
Source Code


000002:                                                                                                  ## Copyright:   Public domain.
000003:                                                                                                  ## Filename:    PINBALL_GAME_BUTTONS_AND_LIGHTS.agc
000004:                                                                                                  ## Purpose:     A module for revision 0 of BURST120 (Sunburst).
000005:                                                                                                  ##              It is part of the source code for the Lunar Module's (LM)
000006:                                                                                                  ##              Apollo Guidance Computer (AGC) for Apollo 5.
000007:                                                                                                  ## Assembler:   yaYUL
000008:                                                                                                  ## Contact:     Ron Burkey <info@sandroid.org>.
000009:                                                                                                  ## Website:     www.ibiblio.org/apollo/index.html
000010:                                                                                                  ## Mod history: 2016-09-30 RSB  Created draft version.
000011:                                                                                                  ##              2016-10-08 RSB  Finished transcription.
000012:                                                                                                  ##              2016-10-31 RSB  Typos.
000013:                                                                                                  ##              2016-11-01 RSB  More typos.
000014:                                                                                                  ##              2016-11-02 RSB  More typos.
000015:


000017:                                                                                                  #  PROGRAM NAME - KEYBOARD AND DISPLAY PROGRAM           DATE - 22 NOV 1966
000018:                                                                                                  #  MOD NO - 0                                            LOG SECTION - PINBALL GAME
000019:                                                                                                  #  MOD BY - FILENE                                                     BUTTONS AND LIGHTS
000020:                                                                                                  #                                                        ASSEMBLY - SUNBURST REV 18
000021:
000022:                                                                                                  #  FUNCTIONAL DESCRIPTION-
000023:
000024:                                                                                                  #     THE KEYBOARD AND DISPLAY SYSTEM PROGRAM OPERATES UNDER EXECUTIVE
000025:                                                                                                  #  CONTROL AND PROCESSES INFORMATION EXCHANGED BETWEEN THE AGC AND THE
000026:                                                                                                  #  COMPUTER OPERATOR.  THE INPUTS TO THE PROGRAM ARE FROM THE KEYBOARD,
000027:                                                                                                  #  FROM INTERNAL PROGRAM, AND FROM THE UPLINK.
000028:                                                                                                  #     THE LANGUAGE OF COMMUNICATION WITH THE PROGRAM IS A PAIR OF WORDS
000029:                                                                                                  #  KNOWN AS VERB AND NOUN.  EACH OF THESE IS REPRESENTED BY A 2 CHARACTER
000030:                                                                                                  #  DECIMAL NUMBER.  THE VERB CODE INDICATES WHAT ACTION IS TO BE TAKEN, THE
000031:                                                                                                  #  NOUN CODE INDICATES TO WHAT THIS ACTION IS APPLIED.  NOUNS USUALLY
000032:                                                                                                  #  REFER TO A GROUP OF ERASABLE REGISTERS.
000033:
000034:                                                                                                  #  VERBS ARE GROUPED INTO DISPLAYS, LOADS, MONITORS (DISPLAYS THAT ARE
000035:                                                                                                  #  UPDATED ONCE PER SECOND), SPECIAL FUNCTIONS, AND EXTENDED VERBS (THESE
000036:                                                                                                  #  ARE OUTSIDE OF THE DOMAIN OF PINBALL AND CAN BE FOUND UNDER LOG SECTION
000037:                                                                                                  #  :EXTENDED VERBS:).
000038:                                                                                                  #  A LIST OF VERBS AND NOUNS IS GIVEN IN LOG SECTION :ASSEMBLY AND
000039:                                                                                                  #  OPERATION INFORMATION:.
000040:
000041:
000042:                                                                                                  #  CALLING SEQUENCES -
000043:
000044:                                                                                                  #  KEYBOARD:
000045:                                                                                                  #     EACH DEPRESSION OF A KEYBOARD BUTTON ACTIVATES INTERRUPT KEYRUPT1
000046:                                                                                                  #  AND PLACES THE 5 BIT KEY CODE INTO CHANNEL 15.  KEYRUPT1 PLACES THE KEY
000047:                                                                                                  #  CODE INTO MPAC, ENTERS AN EXECUTIVE REQUEST FOR THE KEYBOARD AND DISPLAY
000048:                                                                                                  #  PROGRAM (AT :CHARIN:), AND EXECUTES A RESUME.
000049:
000050:                                                                                                  #  UPLINK:
000051:                                                                                                  #     EACH WORD RECEIVED BY THE UPLINK ACTIVATES INTERRUPT UPRUPT, WHICH
000052:                                                                                                  #  PLACES THE 5 BIT KEY CODE INTO MPAC, ENTERS AN EXECUTIVE REQUEST FOR THE
000053:                                                                                                  #  KEYBOARD AND DISPLAY PROGRAM (AT :CHARIN:) AND EXECUTES A RESUME.
000054:
000055:                                                                                                  #  INTERNAL PROGRAMS:
000056:                                                                                                  #     INTERNAL PROGRAMS CALL PINBALL AT :NVSUB: WITH THE DESIRED VERB/NOUN
000057:                                                                                                  #  CODE IN A (LOW 7 BITS FOR NOUN, NEXT 7 BITS FOR VERB).  DETAILS
000058:                                                                                                  #  DESCRIBED ON REMARKS CARDS JUST BEFORE :NVSUB: AND :NVSBWAIT: (SEE
000059:                                                                                                  #  SYMBOL TABLE FOR PAGE NUMBERS).
000060:                                                                                                  #     THERE IS AN INTERLOCK SYSTEM FOR INTERNAL PROGRAMS THAT MUST BE USED
000061:                                                                                                  #  IN CONJUNCTION WITH :NVSUB:.  THIS IS CALLED GRAB/FREE.  DETAILS
000062:                                                                                                  #  DESCRIBED ON REMARKS JUST BEFORE :GRABDSP:, :GRABWAIT: (SEE SYMBOLD TABLE
000063:                                                                                                  #  FOR PAGE NUMERS).
000064:


000066:                                                                                                  #  NORMAL EXIT MODES-
000067:
000068:                                                                                                  #     IF PINBALL WAS CALLED BY EXTERNAL ACTION, EXIT IS TO :ENDOFJOB:.
000069:
000070:                                                                                                  #     IF PINBALL WAS CALLED BY INTERNAL PROGRAMS, EXIT FROM PINBALL IS BACK
000071:                                                                                                  #  TO CALLING ROUTINE.  DETAILS DESCRIBED IN REMARKS CARDS JUST BEFORE
000072:                                                                                                  #  :NVSUB: AND :NVSUBWAIT: (SEE SYMBOL TABLE FOR PAGE NUMBERS).
000073:
000074:
000075:                                                                                                  #  ALARM OR ABORT EXIT MODES-
000076:
000077:                                                                                                  #        EXTERNAL INITIATION:
000078:                                                                                                  #           IF SOME IMPROPER SEQUENCE OF KEY CODES IS DETECTED, THE OPERATOR
000079:                                                                                                  #        ERROR LIGHT IS TURNED ON AND EXIT IS TO :ENDOFJOB:.
000080:
000081:                                                                                                  #        INTERNAL PROGRAM INITIATION:
000082:                                                                                                  #           IF AN ILLEGAL V/N COMBINATION IS ATTEMPTED, AN ABORT IS CAUSED
000083:                                                                                                  #        (WITH OCTAL 01501) AND EXIT TO :ENDOFJOB:.
000084:
000085:                                                                                                  #  CONDITIONS LEADING TO THE ABOVE ARE DESCRIBED IN DIGITAL DEVELOPMENT
000086:                                                                                                  #  REPORT NO. 11.
000087:
000088:
000089:                                                                                                  #  OUTPUT-
000090:
000091:                                                                                                  #     INFORMATION TO BE SENT TO THE DISPLAY PANEL IS LEFT IN THE :DSPTAB:
000092:                                                                                                  #  BUFFERS REGISTERS (UNDER EXEC CONTROL). :DSPOUT: (A PART OF T4RUPT)
000093:                                                                                                  #  HANDLES THE PLACING OF THE :DSPTAB: INFORMATION INTO OUTPUT CHANNEL 10
000094:                                                                                                  #  IN INTERRUPT.
000095:
000096:
000097:                                                                                                  #  ERASABLE INITIALIZATION-
000098:
000099:                                                                                                  #     FRESH START AND RESTART INITIALIZE THE NECESSARY E REGISTERS FOR
000100:                                                                                                  #  PINBALL IN :STARTSUB:.  REGISTERS ARE:  DSPTAB BUFFER, CADRSTOR,
000101:                                                                                                  #  REQRET, CLPASS, DSPLOCK, MONSAVE, MONSAVE1, GRABLOCK, VERBREG, NOUNREG,
000102:                                                                                                  #  DSPLIST, +1, +2, DSPCOUNT.
000103:
000104:                                                                                                  #  A COMPLETE LIST OF ALL THE ERASABLES (BOTH RESERVED AND TEMPORARIES) FOR
000105:                                                                                                  #  PINBALL IS GIVEN BELOW.
000106:
000107:
000108:                                                                                                  #  THE FOLLOWING ARE OF GENERAL INTEREST-
000109:
000110:                                                                                                  #     REMARKS CARDS PRECEDE THE REFERENCED SYMBOL DEFINITION.  SEE SYMBOL
000111:                                                                                                  #  TABLE TO FIND APPROPRIATE PAGE NUMBERS.


000113:
000114:                                                                                                  #        NVSUB   CALLING POINT FOR INTERNAL USE OF PINBALL.
000115:                                                                                                  #                  OF RELATED INTEREST   NVSBWAIT
000116:                                                                                                  #                                        NVSUBUSY
000117:                                                                                                  #                                        PRENVBSY
000118:
000119:                                                                                                  #        GRABDSP   INTERLOCK SYSTEM FOR INTERNAL PROGRAMS THAT MUST BE USED
000120:                                                                                                  #        FREEDSP   IN CONJUNCTION WITH :NVSUB:.
000121:                                                                                                  #                    OF RELATED INTEREST   GRABWAIT
000122:                                                                                                  #                                          GRABUSY
000123:                                                                                                  #                                          PREGBSY
000124:
000125:                                                                                                  #        ENDIDLE   ROUTINE FOR INTERNAL PROGRAMS WISHING TO TO SLEEP WHILE
000126:                                                                                                  #                  AWAITING OPERATORS RESPONSE.
000127:                                                                                                  #                    OF RELATED INTEREST   DATAWAIT
000128:
000129:                                                                                                  #        MONITOR   VERBS FOR PERIODIC ( 1 PER SEC) DISPLAY.
000130:
000131:                                                                                                  #        THE NOUN TABLE FORMAT IS DESCRIBED ON A PAGE OF REMARKS CARDS JUST
000132:                                                                                                  #        BEFORE :DSPABC: (SEE SYMBOL TABLE FOR PAGE NUMBER).
000133:
000134:                                                                                                  #        THE NOUN TABLES THEMSELVES ARE FOUND ON 7 PAGES STARTING AT :NNADTAB:
000135:
000136:
000137:                                                                                                  #  FOR FURTHER DETAILS ABOUT OPERATION OF THE KEYBOARD AND DISPLAY SYSTEM
000138:                                                                                                  #  PROGRAM, SEE THE MISSION PLAN AND/OR DIGITAL DEVELOPMENT REPORT NO. 11.
000139:


000141:                                                                                                  #  THE FOLLOWING QUOTATION IS PROVIDED THROUGH THE COURTESY OF THE AUTHORS.
000142:
000143:                                                                                                  #        ::IT WILL BE PROVED TO THY FACE THAT THOU HAST MEN ABOUT THEE THAT
000144:                                                                                                  #  USUALLY TALK OF A NOUN AND A VERB, AND SUCH ABOMINABLE WORDS AS NO
000145:                                                                                                  #  CHRISTIAN EAR CAN ENDURE TO HEAR.::
000146:
000147:                                                                                                  #                                        HENRY 6, ACT 2, SCENE 4
000148:


000151:
000152:
000153:                                                                                                  #  THE FOLLOWING ASSIGNMENTS FOR PINBALL ARE MADE ELSEWHERE
000154:
000155:
000156:                                                                                                  #  RESERVED FOR PINBALL EXECUTIVE ACTION
000157:
000158:                                                                                                  #  DSPCOUNT      ERASE                   # DISPLAY POSITION INDICATOR
000159:                                                                                                  #  DECBRNCH      ERASE                   # +DEC, -DEC, OCT INDICATOR
000160:                                                                                                  #  VERBREG       ERASE                   # VERB CODE
000161:                                                                                                  #  NOUNREG       ERASE                   # NOUN CODE
000162:                                                                                                  #  XREG          ERASE                   # R1 INPUT BUFFER
000163:                                                                                                  #  YREG          ERASE                   # R2 INPUT BUFFER
000164:                                                                                                  #  ZREG          ERASE                   # R3 INPUT BUFFER
000165:                                                                                                  #  XREGLP        ERASE                   # LO PART OF XREG (FOR DEC CONV ONLY)
000166:                                                                                                  #  YREGLP        ERASE                   # LO PART OF YREG (FOR DEC CONV ONLY)
000167:                                                                                                  #  ZREGLP        ERASE                   # LO PART OF ZREG (FOR DEC CONV ONLY)
000168:                                                                                                  #  MODREG        ERASE                   # MODE CODE
000169:                                                                                                  #  DSPLOCK       ERASE                   # KEYBOARD/SUBROUTINE CALL INTERLOCK
000170:                                                                                                  #  REQRET        ERASE                   # RETURN REGISTER FOR LOAD
000171:                                                                                                  #  LOADSTAT      ERASE                   # STATUS INDICATOR FOR LOADTST
000172:                                                                                                  #  CLPASS        ERASE                   # PASS INDICATOR FOR CLEAR
000173:                                                                                                  #  NOUT          ERASE                   # ACTIVITY COUNTER FOR DSPTAB
000174:                                                                                                  #  NOUNCADR      ERASE                   # MACHINE CADR FOR NOUN
000175:                                                                                                  #  MONSAVE       ERASE                   # N/V CODE FOR MONITOR. (= MONSAVE1-1)
000176:                                                                                                  #  MONSAVE1      ERASE                   # NOUNCADR FOR MONITOR (MATBS) = MONSAVE+1
000177:                                                                                                  #  DSPTAB        ERASE           +13D    # 0-10, DISPLAY PANEL BUFFER, 11-13, C RELAYS
000178:                                                                                                  #  CADRSTOR      ERASE                   # ENDIDLE STORAGE
000179:                                                                                                  #  GRABLOCK      ERASE                   # INTERNAL INTERLOCK FOR DISPLAY SYSTEM
000180:                                                                                                  #  NVQTEM        ERASE                   # NVSUB STORAGE FOR CALLING ADDRESS
000181:                                                                                                  #                                        # MUST = NVBNKTEM-1.
000182:                                                                                                  #  NVBNKTEM      ERASE                   # NVSUB STORAGE FOR CALLING BANK
000183:                                                                                                  #                                        # MUST = NVQTEM+1
000184:                                                                                                  #  DSPLIST       ERASE           +2      # WAITING LIST FOR DSP SYST INTERNAL USE
000185:                                                                                                  #  EXTVBACT      ERASE                   # EXTENDED VERB ACTIVITY INTERLOCK
000186:                                                                                                  #  DSPTEM1       ERASE           +2      # BUFFER STORAGE AREA 1 (MOSTLY FOR TIME)
000187:                                                                                                  #  DSPTEM2       ERASE           +2      # BUFFER STORAGE AREA 2 (MOSTLY FOR DEG)
000188:


000190:                                                                                                  #  END OF ERASABLES RESERVED FOR PINBALL EXECUTIVE ACTION
000191:
000192:
000193:                                                                                                  #  TEMPORARIES FOR PINBALL EXECUTIVE ACTION
000194:
000195:                                                                                                  #  DSEXIT        =       INTB15+         # RETURN FOR DSPIN
000196:                                                                                                  #  EXITEM        =       INTB15+         # RETURN FOR SCALE FACTOR ROUTINE SELECT
000197:                                                                                                  #  BLANKRET      =       INTB15+         # RETURN FOR 2BLANK
000198:
000199:                                                                                                  #  WRDRET        =       INTBIT15        # RETURN FOR 5BLANK.
000200:                                                                                                  #  WDRET         =       INTBIT15        # RETURN FOR DSPWD
000201:                                                                                                  #  DECRET        =       INTBIT15        # RETURN FOR PUTCOM(DEC LOAD)
000202:                                                                                                  #  21/22REG      =       INTBIT15        # TEMP FOR CHARIN
000203:
000204:                                                                                                  #  UPDATRET      =       POLISH          # RETURN FOR UPDATNN, UPDATVB
000205:                                                                                                  #  CHAR          =       POLISH          # TEMP FOR CHARIN
000206:                                                                                                  #  ERCNT         =       POLISH          # COUNTER FOR ERROR LIGHT RESET
000207:                                                                                                  #  DECOUNT       =       POLISH          # COUNTER FOR SCALING AND DISPLAY (DEC)
000208:
000209:                                                                                                  #  SGNON         =       VBUF            # TEMP FOR +,- ON
000210:                                                                                                  #  NOUNTEM       =       VBUF            # COUNTER FOR MIXNOUN FETCH
000211:                                                                                                  #  DISTEM        =       VBUF            # COUNTER FOR OCTAL DISPLAY VERB
000212:                                                                                                  #  DECTEM        =       VBUF            # COUNTER FOR FETCH (DEC DISPLAY VERBS)
000213:
000214:                                                                                                  #  SGNOFF        =       VBUF    +1      # TEMP FOR +,- ON
000215:                                                                                                  #  NVTEMP        =       VBUF    +1      # TEMP FOR NVSUB
000216:                                                                                                  #  SFTEMP1       =       VBUF    +1      # STORAGE FOR SF CONST HI PART (=SFTEMP2-1)
000217:
000218:                                                                                                  #  CODE          =       VBUF    +2      # FOR DSPIN
000219:                                                                                                  #  SFTEMP2       =       VBUF    +2      # STORAGE FOR SF CONST LO PART (=SFTEMP1+1)
000220:
000221:                                                                                                  #  MIXTEMP       =       VBUF    +3      # FOR MIXNOUN DATA
000222:                                                                                                  #  SIGNRET       =       VBUF    +3      # RETURN FOR +,- ON
000223:
000224:                                                                                                  #  ALSO MIXTEMP+1 = VBUF+4, MIXTEMP+2 = VBUF+5.
000225:
000226:                                                                                                  #  ENTRET        =       DOTINC          # EXIT FROM ENTER
000227:
000228:                                                                                                  #  WDCNT         =       DOTRET          # CHAR COUNTER FOR DSPWD
000229:                                                                                                  #  INREL         =       DOTRET          # INPUT BUFFER SELECTOR (X, Y, Z, REG)
000230:
000231:                                                                                                  #  DSPMMTEM      =       MATINC          # DSPCOUNT SAVE FOR DSPMM
000232:                                                                                                  #  MIXBR         =       MATINC          # INDICATOR FOR MIXED OR NORMAL NOUN
000233:
000234:                                                                                                  #  TEM1          ERASE                   # EXEC TEMP
000235:                                                                                                  #  DSREL         =       TEM1            # REL ADDRESS FOR DSPIN
000236:
000237:                                                                                                  #  TEM2          ERASE                   # EXEC TEMP
000238:                                                                                                  #  DSMAG         =       TEM2            # MAGNITUDE STORE FOR DSPIN


000240:                                                                                                  #  IDADDTEM      =       TEM2            # MIXNOUN INDIRECT ADDRESS STORAGE
000241:
000242:                                                                                                  #  TEM3          ERASE                   # EXEC TEMP
000243:                                                                                                  #  COUNT         =       TEM3            # FOR DSPIN
000244:
000245:                                                                                                  #  TEM4          ERASE                   # EXEC TEMP
000246:                                                                                                  #  LSTPTR        =       TEM4            # LIST POINTER FOR GRABUSY
000247:                                                                                                  #  RELRET        =       TEM4            # RETURN FOR RELDSP
000248:                                                                                                  #  FREERET       =       TEM4            # RETURN FOR FREEDSP
000249:
000250:                                                                                                  #  TEM5          ERASE                   # EXEC TEMP
000251:                                                                                                  #  NOUNADD       =       TEM5            # TEMP STORAGE FOR NOUN ADDRESS
000252:
000253:                                                                                                  #  NNADTEM       ERASE                   # TEMP FOR NOUN ADDRESS TABLE ENTRY
000254:                                                                                                  #  NNTYPTEM      ERASE                   # TEMP FOR NOUN TYPE TABLE ENTRY
000255:                                                                                                  #  IDAD1TEM      ERASE                   # TEMP FOR INDIR ADDRESS TABLE ENTRY (MIXNN)
000256:                                                                                                  #                                        # MUST = IDAD2TEM-1, = IDAD3TEM-2.
000257:                                                                                                  #  IDAD2TEM      ERASE                   # TEMP FOR INDIR ADDRESS TABLE ENTRY (MIXNN)
000258:                                                                                                  #                                        # MUST = IDAD1TEM+1, IDAD3TEM-1.
000259:                                                                                                  #  IDAD3TEM      ERASE                   # TEMP FOR INDIR ADDRESS TABLE ENTRY (MIXNN)
000260:                                                                                                  #                                        # MUST = IDAD1TEM+2, IDAD2TEM+1.
000261:                                                                                                  #  RUTMXTEM      ERASE                   # TEMP FOR SF ROUT TABLE ENTRY (MIXNN ONLY)
000262:                                                                                                  #  END OF TEMPORARIES FOR PINBALL EXECUTIVE ACTION.
000263:
000264:
000265:                                                                                                  #  RESERVED FOR PINBALL INTERRUPT ACTION
000266:
000267:                                                                                                  #  DSPCNT        ERASE                   # COUNTER FOR DSPOUT
000268:                                                                                                  #  UPLOCK        ERASE                   # BIT1 = UPLINK INTERLOCK (ACTIVATED BY
000269:                                                                                                  #                                        #                                         RECEPTION OF A BAD MESSAGE IN UPLINK)
000270:                                                                                                  #  END OF ERASABLES RESERVED FOR PINBALL INTERRUPT ACTION
000271:
000272:
000273:
000274:                                                                                                  #  TEMPORARIES FOR PINBALL INTERRUPT ACTION
000275:
000276:                                                                                                  #  KEYTEMP1      =       WAITEXIT        # TEMP FOR KEYRUPT, UPRUPT
000277:                                                                                                  #  DSRUPTEM      =       WAITEXIT        # TEMP FOR DSPOUT
000278:                                                                                                  #  KEYTEMP2      =       RUPTAGN         # TEMP FOR KEYRUPT, UPRUPT
000279:                                                                                                  #  END OF TEMPORARIES FOR PINBALL INTERRUPT ACTION
000280:


000282:                                                                                                  #  THE INPUT CODES ASSUMED FOR THE KEYBOARD ARE,
000283:                                                                                                  #  0        10000
000284:                                                                                                  #  1        00001
000285:                                                                                                  #  9        01001
000286:                                                                                                  #  VERB     10001
000287:                                                                                                  #  ERROR RES10010
000288:                                                                                                  #  KEY RLSE 11001
000289:                                                                                                  #  +        11010
000290:                                                                                                  #  -        11011
000291:                                                                                                  #  ENTER    11100
000292:                                                                                                  #  CLEAR    11110
000293:                                                                                                  #  NOUN     11111
000294:
000295:
000296:                                                                                                  #  OUTPUT FORMAT FOR DISPLAY PANEL. SET OUT0 TO AAAABCCCCCDDDDD.
000297:                                                                                                  #  A'S SELECTS A RELAYWORD. THIS DETERMINES WHICH PAIR OF CHARACTERS ARE
000298:                                                                                                  #  ENERGIZED.
000299:                                                                                                  #  B FOR SPECIAL RELAYS SUCH AS SIGNS ETC.
000300:                                                                                                  #  C'S  5 BIT RELAY CODE FOR LEFT CHAR OF PAIR SELECTED BY RELAYWORD.
000301:                                                                                                  #  D'S  5 BIT RELAY CODE FOR RIGHTCHAR OF PAIR SELECTED BY RELAYWORD.
000302:
000303:                                                                                                  #  THE PANEL APPEARS AS FOLLOWS,
000304:                                                                                                  #  MD1    MD2                         (MAJOR MODE)
000305:                                                                                                  #  VD1    VD2 (VERB)    ND1    ND2    (NOUN)
000306:                                                                                                  #  R1D1   R1D2   R1D3   R1D4   R1D5   (R1)
000307:                                                                                                  #  R2D1   R2D2   R2D3   R2D4   R2D5   (R2)
000308:                                                                                                  #  R3D1   R3D2   R3D3   R3D4   R3D5   (R3)
000309:
000310:                                                                                                  #  EACH OF THESE IS GIVEN A DSPCOUNT NUMBER FOR USE WITHIN COMPUTATION ONLY
000311:                                                                                                  #  MD1   25     R2D1  11         ALL ARE OCTAL
000312:                                                                                                  #  MD2   24     R2D2  10
000313:                                                                                                  #  VD1   23     R2D3   7
000314:                                                                                                  #  VD2   22     R2D4   6
000315:                                                                                                  #  ND1   21     R2D5   5
000316:                                                                                                  #  ND2   20     R3D1   4
000317:                                                                                                  #  R1D1  16     R3D2   3
000318:                                                                                                  #  R1D2  15     R3D3   2
000319:                                                                                                  #  R1D3  14     R3D4   1
000320:                                                                                                  #  R1D4  13     R3D5   0
000321:                                                                                                  #  R1D5  12
000322:
000323:
000324:                                                                                                  #  THERE IS AN 11-REGISTER TABLE (DSPTAB) FOR THE DISPLAY PANEL.
000325:
000326:                                                                                                  #  DSPTAB RELAYWD       BIT11     BITS 10-6     BITS 5-1
000327:                                                                                                  #  RELADD
000328:                                                                                                  #  10     1011                    MD1 (25)      MD2 (24)
000329:                                                                                                  #  9      1010                    VD1 (23)      VD2 (22)


000331:                                                                                                  #  8      1001                    ND1 (21)      ND2 (20)
000332:                                                                                                  #  7      1000                                  R1D1 (16)
000333:                                                                                                  #  6      0111          +R1       R1D2 (15)     R1D3 (14)
000334:                                                                                                  #  5      0110          -R1       R1D4 (13)     R1D5 (12)
000335:                                                                                                  #  4      0101          +R2       R2D1 (11)     R2D2 (10)
000336:                                                                                                  #  3      0100          -R2       R2D3 (7)      R2D4 (6)
000337:                                                                                                  #  2      0011                    R2D5 (5)      R3D1 (4)
000338:                                                                                                  #  1      0010          +R3       R3D2 (3)      R3D3 (2)
000339:                                                                                                  #  0      0001          -R3       R3D4 (1)      R3D5 (0)
000340:                                                                                                  #         0000   NO RELAYWORD
000341:
000342:
000343:                                                                                                  #  THE 5-BIT RELAY CODES ARE,
000344:                                                                                                  #  BLANK      00000
000345:                                                                                                  #  0          10101
000346:                                                                                                  #  1          00011
000347:                                                                                                  #  2          11001
000348:                                                                                                  #  3          11011
000349:                                                                                                  #  4          01111
000350:                                                                                                  #  5          11110
000351:                                                                                                  #  6          11100
000352:                                                                                                  #  7          10011
000353:                                                                                                  #  8          11101
000354:                                                                                                  #  9          11111
000355:


000357:                                                                                                  #  START OF EXECUTIVE SECTION OF PINBALL
000358:
000359: 04,2000                                           SETLOC   20000
000360:
000361: 04,2000           03472        GRABUSYB           TC       GRABUSY1                              #  STANDARD LEAD INS. DONT MOVE.
000362: 04,2001           03514        NVSUBSYB           TC       NVSUBSY1
000363:
000364: 04,2002           37763        CHARIN             CAF      ONE                                   #  BLOCK DISPLAY SYST
000365: 04,2003           56303                           XCH      DSPLOCK                               #  MAKE DSP SYST BUSY, BUT SAVE OLD
000366: 04,2004           54105                           TS       21/22REG                              #  C(DSPLOCK) FOR ERROR LIGHT RESET.
000367: 04,2005           56144                           XCH      MPAC
000368: 04,2006           54107                           TS       CHAR
000369: 04,2007           50000                           INDEX    A
000370: 04,2010           02011                           TC       +1                                    #  INPUT CODE    FUNCTION
000371: 04,2011           03313                           TC       CHARALRM                              #  0
000372: 04,2012           02070                           TC       NUM                                   #  1
000373: 04,2013           02070                           TC       NUM                                   #  2
000374: 04,2014           02070                           TC       NUM                                   #  3
000375: 04,2015           02070                           TC       NUM                                   #  4
000376: 04,2016           02070                           TC       NUM                                   #  5
000377: 04,2017           02070                           TC       NUM                                   #  6
000378: 04,2020           02070                           TC       NUM                                   #  7
000379: 04,2021           02061                           TC       89TEST                                #  10            8
000380: 04,2022           02061                           TC       89TEST                                #  11            9
000381: 04,2023           03313                           TC       CHARALRM                              #  12
000382: 04,2024           03313                           TC       CHARALRM                              #  13
000383: 04,2025           03313                           TC       CHARALRM                              #  14
000384: 04,2026           03313                           TC       CHARALRM                              #  15
000385: 04,2027           03313                           TC       CHARALRM                              #  16
000386: 04,2030           03313                           TC       CHARALRM                              #  17
000387: 04,2031           02066                           TC       NUM        -2                         #  20            0
000388: 04,2032           02243                           TC       VERB                                  #  21            VERB
000389: 04,2033           02355                           TC       ERROR                                 #  22            ERROR LIGHT RESET
000390: 04,2034           02053                           TC       ABRT23GO                              #  23            SUBORBIT ABORT
000391: 04,2035           02056                           TC       ABRT24GO                              #  24            CONORBIT ABORT
000392: 04,2036           03313                           TC       CHARALRM                              #  25
000393: 04,2037           03313                           TC       CHARALRM                              #  26
000394: 04,2040           03313                           TC       CHARALRM                              #  27
000395: 04,2041           03313                           TC       CHARALRM                              #  30
000396: 04,2042           03336                           TC       VBRELDSP                              #  31            KEY RELEASE
000397: 04,2043           02275                           TC       POSGN                                 #  32            +
000398: 04,2044           02262                           TC       NEGSGN                                #  33            -
000399: 04,2045           02051                           TC       ENTERJMP                              #  34            ENTER
000400: 04,2046           03313                           TC       CHARALRM                              #  35
000401: 04,2047           02446                           TC       CLEAR                                 #  36            CLEAR
000402: 04,2050           02256                           TC       NOUN                                  #  37            NOUN
000403:


000405: 04,2051           05225        ENTERJMP           TC       POSTJUMP
000406: 04,2052           12003                           CADR     ENTER
000407:
000408: 04,2053           04666        ABRT23GO           TC       RELDSP
000409: 04,2054           05225                           TC       POSTJUMP
000410: 04,2055           56350                           CADR     SUBABORT
000411: 04,2056           04666        ABRT24GO           TC       RELDSP
000412: 04,2057           05225                           TC       POSTJUMP
000413: 04,2060           56353                           CADR     CONORBIT
000414:
000415: 04,2061           36311        89TEST             CAF      THREE
000416: 04,2062           70271                           MASK     DECBRNCH
000417: 04,2063           10000                           CCS      A
000418: 04,2064           02070                           TC       NUM                                   #  IF DECBRNCH IS +, 8 OR 9 OK
000419: 04,2065           03313                           TC       CHARALRM                              #  IF DECBRNCH IS +0, REJECT 8 OR 9
000420:
000421:
000422:                                                                                                  #  NUM ASSEMBLES OCTAL 3 BITS AT A TIME. FOR DECIMAL IT CONVERTS INCOMING
000423:                                                                                                  #  WORD AS A FRACTION, KEEPING RESULTS TO DP.
000424:                                                                                                  #  OCTAL RESULTS ARE LEFT IN XREG, YREG, OR ZREG. HI PART OF DEC IN XREG,
000425:                                                                                                  #  YREG, ZREG. THE LOW PARTS IN XREGLP, YREGLP, OR ZREGLP)
000426:                                                                                                  #  DECBRNCH IS LEFT AT +0 FOR OCT, +1 FOR + DEC, +2 FOR - DEC.
000427:                                                                                                  #  IF DSPCOUNT WAS LEFT -, NO MORE DATA IS ACCEPTED.
000428:
000429: 04,2066           37767                           CAF      ZERO
000430: 04,2067           54107                           TS       CHAR
000431: 04,2070           10270        NUM                CCS      DSPCOUNT
000432: 04,2071           02075                           TC       +4                                    #  +
000433: 04,2072           02075                           TC       +3                                    #  +0
000434: 04,2073           02074                           TC       +1                                    #  -BLOCK DATA IN IF DSPCOUNT IS -
000435: 04,2074           05567                           TC       ENDOFJOB                              #  -0
000436: 04,2075           02213                           TC       GETINREL
000437: 04,2076           10306                           CCS      CLPASS                                #  IF CLPASS IS + OR +0, MAKE IT +0.
000438: 04,2077           37767                           CAF      ZERO
000439: 04,2100           54306                           TS       CLPASS
000440: 04,2101           02102                           TC       +1
000441: 04,2102           50107                           INDEX    CHAR
000442: 04,2103           34300                           CAF      RELTAB
000443: 04,2104           74556                           MASK     LOW5
000444: 04,2105           54114                           TS       CODE
000445: 04,2106           30270                           CA       DSPCOUNT
000446: 04,2107           54133                           TS       COUNT
000447: 04,2110           03217                           TC       DSPIN
000448: 04,2111           36311                           CAF      THREE
000449: 04,2112           70271                           MASK     DECBRNCH
000450: 04,2113           10000                           CCS      A                                     #  +0, OCTAL.  +1, + DEC.  +2, - DEC.
000451: 04,2114           02125                           TC       DECTOBIN                              #  +
000452: 04,2115           50127                           INDEX    INREL                                 #  +0 OCTAL
000453: 04,2116           56272                           XCH      VERBREG


000455: 04,2117           54022                           TS       CYL
000456: 04,2120           40022                           CS       CYL
000457: 04,2121           40022                           CS       CYL
000458: 04,2122           56022                           XCH      CYL
000459: 04,2123           60107                           AD       CHAR
000460: 04,2124           02142                           TC       ENDNMTST
000461: 04,2125           50127        DECTOBIN           INDEX    INREL
000462: 04,2126           56272                           XCH      VERBREG
000463: 04,2127           54144                           TS       MPAC                                  #  SUM X 2EXP-14 IN MPAC
000464: 04,2130           37767                           CAF      ZERO
000465: 04,2131           54145                           TS       MPAC       +1
000466: 04,2132           34570                           CAF      TEN                                   #  10 X 2EXP-14
000467: 04,2133           07357                           TC       SHORTMP                               #  10SUM X 2EXP-28 IN MPAC, MPAC+1
000468: 04,2134           56145                           XCH      MPAC       +1
000469: 04,2135           60107                           AD       CHAR
000470: 04,2136           54145                           TS       MPAC       +1
000471: 04,2137           02142                           TC       ENDNMTST                              #  NO OF
000472: 04,2140           26144                           ADS      MPAC                                  #  OF MUST BE 5TH CHAR
000473: 04,2141           02160                           TC       DECEND
000474: 04,2142           50127        ENDNMTST           INDEX    INREL
000475: 04,2143           54272                           TS       VERBREG
000476: 04,2144           40270                           CS       DSPCOUNT
000477: 04,2145           50127                           INDEX    INREL
000478: 04,2146           62204                           AD       CRITCON
000479: 04,2147           00006                           EXTEND
000480: 04,2150           12152                           BZF      ENDNUM                                #  -0, DSPCOUNT = CRITCON
000481: 04,2151           02201                           TC       MORNUM                                #  - , DSPCOUNT G/ CRITCON
000482: 04,2152           36311        ENDNUM             CAF      THREE
000483: 04,2153           70271                           MASK     DECBRNCH
000484: 04,2154           10000                           CCS      A
000485: 04,2155           02160                           TC       DECEND
000486: 04,2156           40270        ENDALL             CS       DSPCOUNT                              #  BLOCK NUMIN BY PLACING DSPCOUNT
000487: 04,2157           02202                           TC       MORNUM     +1                         #  NEGATIVELY
000488: 04,2160           07155        DECEND             TC       DMP                                   #  MULT SUM X 2EXP-28 IN MPAC, MPAC+1 BY
000489: 04,2161           02211                           ADRES    DECON                                 #  2EXP14/10EXP5, GIVES (SUM/10EXP5)X2EXP-14
000490: 04,2162           36311                           CAF      THREE                                 #  IN MPAC, +1, +2.
000491: 04,2163           70271                           MASK     DECBRNCH
000492: 04,2164           50000                           INDEX    A
000493: 04,2165           02165                           TC       +0
000494: 04,2166           02172                           TC       +DECSGN
000495: 04,2167           00006                           EXTEND                                         #  - CASE
000496: 04,2170           40146                           DCS      MPAC       +1
000497: 04,2171           52146                           DXCH     MPAC       +1
000498: 04,2172           56146        +DECSGN            XCH      MPAC       +2
000499: 04,2173           50127                           INDEX    INREL
000500: 04,2174           54275                           TS       XREGLP     -2
000501: 04,2175           56145                           XCH      MPAC       +1
000502: 04,2176           50127                           INDEX    INREL
000503: 04,2177           54272                           TS       VERBREG
000504: 04,2200           02156                           TC       ENDALL


000506: 04,2201           10270        MORNUM             CCS      DSPCOUNT                              #  DECREMENT DSPCOUNT
000507: 04,2202           54270                           TS       DSPCOUNT
000508: 04,2203           05567                           TC       ENDOFJOB
000509:
000510: 04,2204           00022        CRITCON            OCT      22                                    #  (DEC 18)
000511: 04,2205           00020                           OCT      20                                    #  (DEC 16)
000512: 04,2206           00012                           OCT      12                                    #  (DEC 10)
000513: 04,2207           00005                           OCT      5
000514: 04,2210           00000                           OCT      0
000515:
000516: 04,2211           05174 13261  DECON              2DEC     1          E-5        B14             #  2EXP14/10EXP5 = .16384 DEC
000517:
000518:                                                                                                  #  GETINREL GETS PROPER DATA REG REL ADDRESS FOR CURRENT C(DSPCOUNT) AND
000519:                                                                                                  #  PUTS IN INTO INREL. +0 VERBREG, 1 NOUNREG, 2 XREG, 3 YREG, 4 ZREG.
000520:
000521: 04,2213           50270        GETINREL           INDEX    DSPCOUNT
000522: 04,2214           32217                           CAF      INRELTAB
000523: 04,2215           54127                           TS       INREL                                 #  (A TEMP. REG)
000524: 04,2216           00002                           TC       Q
000525:
000526: 04,2217           00004        INRELTAB           OCT      4                                     #  R3D5 (DSPCOUNT = 0)
000527: 04,2220           00004                           OCT      4                                     #  R3D4           =(1)
000528: 04,2221           00004                           OCT      4                                     #  R3D3           =(2)
000529: 04,2222           00004                           OCT      4                                     #  R3D2           =(3)
000530: 04,2223           00004                           OCT      4                                     #  R3D1           =(4)
000531: 04,2224           00003                           OCT      3                                     #  R2D5           =(5)
000532: 04,2225           00003                           OCT      3                                     #  R2D4           =(6)
000533: 04,2226           00003                           OCT      3                                     #  R2D3           =(7)
000534: 04,2227           00003                           OCT      3                                     #  R2D2           =(8D)
000535: 04,2230           00003                           OCT      3                                     #  R2D1           =(9D)
000536: 04,2231           00002                           OCT      2                                     #  R1D5           =(10D)
000537: 04,2232           00002                           OCT      2                                     #  R1D4           =(11D)
000538: 04,2233           00002                           OCT      2                                     #  R1D3           =(12D)
000539: 04,2234           00002                           OCT      2                                     #  R1D2           =(13D)
000540: 04,2235           00002                           OCT      2                                     #  R1D1           =(14D)
000541: 04,2236           04736                           TC       CCSHOLE                               #  NO DSPCOUNT NUMBER = 15D
000542: 04,2237           00001                           OCT      1                                     #  ND2            =(16D)
000543: 04,2240           00001                           OCT      1                                     #  ND1            =(17D)
000544: 04,2241           00000                           OCT      0                                     #  VD2            =(18D)
000545: 04,2242           00000                           OCT      0                                     #  VD1            =(19D)
000546:
000547: 04,2243           37767        VERB               CAF      ZERO
000548: 04,2244           54272                           TS       VERBREG
000549: 04,2245           34565                           CAF      VD1
000550: 04,2246           54270        NVCOM              TS       DSPCOUNT
000551: 04,2247           02557                           TC       2BLANK


000553: 04,2250           37767                           CAF      ZERO
000554: 04,2251           54271                           TS       DECBRNCH                              #  SET FOR DEC V/N CODE
000555: 04,2252           54304                           TS       REQRET                                #  SET FOR ENTPAS0
000556: 04,2253           34505                           CAF      ENDINST                               #  IF DSPALARM OCCURS BEFORE FIRST ENTPAS0
000557: 04,2254           54126                           TS       ENTRET                                #  OR NVSUB, ENTRET MUST ALREADY BE SET
000558:                                                                                                  #  TO TC ENDOFJOB
000559: 04,2255           05567                           TC       ENDOFJOB
000560: 04,2256           37767        NOUN               CAF      ZERO
000561: 04,2257           54273                           TS       NOUNREG
000562: 04,2260           34566                           CAF      ND1                                   #  ND1, OCT 21 (DEC 17)
000563: 04,2261           02246                           TC       NVCOM
000564:
000565:
000566: 04,2262           02334        NEGSGN             TC       SIGNTEST
000567: 04,2263           02321                           TC       -ON
000568: 04,2264           37762                           CAF      TWO
000569: 04,2265           50127        BOTHSGN            INDEX    INREL                                 #  SET DEC COMP BIT TO 1 (IN DECBRNCH)
000570: 04,2266           67755                           AD       BIT7                                  #  BIT 5 FOR R1.  BIT 4 FOR R2.
000571: 04,2267           26271                           ADS      DECBRNCH                              #  BIT 3 FOR R3.
000572: 04,2270           10306        FIXCLPAS           CCS      CLPASS                                #  IF CLPASS IS + OR +0. MAKE IT +0.
000573: 04,2271           37767                           CAF      ZERO
000574: 04,2272           54306                           TS       CLPASS
000575: 04,2273           02274                           TC       +1
000576: 04,2274           05567                           TC       ENDOFJOB
000577:
000578: 04,2275           02334        POSGN              TC       SIGNTEST
000579: 04,2276           02301                           TC       +ON
000580: 04,2277           37763                           CAF      ONE
000581: 04,2300           02265                           TC       BOTHSGN
000582:
000583: 04,2301           22002        +ON                LXCH     Q
000584: 04,2302           02213                           TC       GETINREL
000585: 04,2303           50127                           INDEX    INREL
000586: 04,2304           32327                           CAF      SGNTAB     -2
000587: 04,2305           54113                           TS       SGNOFF
000588: 04,2306           67763                           AD       ONE
000589: 04,2307           54112                           TS       SGNON
000590: 04,2310           37767        SGNCOM             CAF      ZERO
000591: 04,2311           54114                           TS       CODE
000592: 04,2312           56113                           XCH      SGNOFF
000593: 04,2313           03301                           TC       11DSPIN
000594: 04,2314           37751                           CAF      BIT11
000595: 04,2315           54114                           TS       CODE
000596: 04,2316           56112                           XCH      SGNON
000597: 04,2317           03301                           TC       11DSPIN
000598: 04,2320           00001                           TC       L
000599: 04,2321           22002        -ON                LXCH     Q
000600: 04,2322           02213                           TC       GETINREL
000601: 04,2323           50127                           INDEX    INREL


000603: 04,2324           32327                           CAF      SGNTAB     -2
000604: 04,2325           54112                           TS       SGNON
000605: 04,2326           67763                           AD       ONE
000606: 04,2327           54113                           TS       SGNOFF
000607: 04,2330           02310                           TC       SGNCOM
000608:
000609: 04,2331           00005        SGNTAB             OCT      5                                     #  -R1
000610: 04,2332           00003                           OCT      3                                     #  -R2
000611: 04,2333           00000                           OCT      0                                     #  -R3
000612:
000613: 04,2334           22002        SIGNTEST           LXCH     Q                                     #  ALLOWS +,- ONLY WHEN DSPCOUNT=R1D1,
000614: 04,2335           36311                           CAF      THREE                                 #  R2D1, OR R3D1.  ALLOWS ONLY FIRST OF
000615: 04,2336           70271                           MASK     DECBRNCH                              #  CONSECUTIVE +/- CHARACTERS.
000616: 04,2337           10000                           CCS      A                                     #  IF LOW2 BITS OF DECBRNCH NOT= 0,  SIGN
000617: 04,2340           05567                           TC       ENDOFJOB                              #  FOR THIS WORD ALREADY IN. REJECT.
000618: 04,2341           44527                           CS       R1D1
000619: 04,2342           02350                           TC       SGNTST1
000620: 04,2343           44530                           CS       R2D1
000621: 04,2344           02350                           TC       SGNTST1
000622: 04,2345           44531                           CS       R3D1
000623: 04,2346           02350                           TC       SGNTST1
000624: 04,2347           05567                           TC       ENDOFJOB                              #  NO MATCH FOUND. SIGN ILLEGAL
000625: 04,2350           60270        SGNTST1            AD       DSPCOUNT
000626: 04,2351           00006                           EXTEND
000627: 04,2352           12354                           BZF      +2                                    #  MATCH FOUND
000628: 04,2353           00002                           TC       Q
000629: 04,2354           00001                           TC       L                                     #  SIGN LEGAL
000630:
000631:                                                                                                  #  ERROR LIGHT RESET (RSET) TURNS OFF,
000632:                                                                                                  #  UPLINK ACTIVITY, AUTO, HOLD, FREE, NO ATT, OPERATOR ERROR,
000633:                                                                                                  #  PROG ALM, TRACKER FAIL.
000634:                                                                                                  #  LEAVES GIMBAL LOCK ALONE.
000635:                                                                                                  #  IT ALSO ZEROES OUT THE :TEST ALARM: OUT BIT, WHICH TURNS OFF STBY,RESTART.
000636:                                                                                                  #  IT ALSO SETS :CAUTION RESET" TO 1.
000637:                                                                                                  #  IT ALSO FORCES BIT 12 OF ALL DSPTAB ENTRIES TO 1.
000638:
000639: 04,2355           56105        ERROR              XCH      21/22REG                              #  RESTORE ORIGINAL C(DSPLOCK). THUS ERROR
000640: 04,2356           54303                           TS       DSPLOCK                               #  LIGHT RESET LEAVES DSPLOCK UNCHANGED.
000641: 04,2357           00004                           INHINT
000642: 04,2360           37752                           CAF      BIT10                                 #  TURN ON :CAUTION RESET: OUTBIT
000643: 04,2361           00006                           EXTEND
000644: 04,2362           05011                           WOR      DSALMOUT                              #  BIT10 CHAN 11
000645: 04,2363           32444                           CAF      GL+NOATT                              #  LEAVE GIMBAL LOCK AND NO ATT INTACT,
000646: 04,2364           70326                           MASK     DSPTAB     +11D                       #  TURNING OFF AUTO, HOLD, FREE,
000647: 04,2365           67745                           AD       BIT15                                 #  PROG ALARM, AND TRACKER.
000648: 04,2366           54326                           TS       DSPTAB     +11D


000650: 04,2367           45642                           CS       PRIO16                                #  RESET FAIL BITS WHICH GENERAGE PROG
000651: 04,2370           70366                           MASK     IMODES33                              #  ALARM SO THAT IF THE FAILURE STILL
000652: 04,2371           65642                           AD       PRIO16                                #  EXISTS, THE ALARM WILL COME BACK.
000653: 04,2372           54366                           TS       IMODES33
000654: 04,2373           47752                           CS       BIT10
000655: 04,2374           70365                           MASK     IMODES30
000656: 04,2375           67752                           AD       BIT10
000657: 04,2376           54365                           TS       IMODES30
000658:
000659: 04,2377           42443                           CS       RFAILS
000660: 04,2400           70412                           MASK     RADMODES
000661: 04,2401           67755                           AD       BIT7
000662: 04,2402           54412                           TS       RADMODES
000663:
000664: 04,2403           47752                           CS       BIT10                                 #  TURN OFF :TEST ALARM: OUTBIT.
000665: 04,2404           00006                           EXTEND
000666: 04,2405           03013                           WAND     CHAN13
000667: 04,2406           42442                           CS       ERCON                                 #  TURN OFF UPLINK ACTIVITY,
000668: 04,2407           00006                           EXTEND                                         #  OPERATOR ERROR.
000669: 04,2410           03011                           WAND     DSALMOUT
000670: 04,2411           34570        TSTAB              CAF      BINCON                                #  (DEC 10)
000671: 04,2412           54107                           TS       ERCNT                                 #  ERCNT = COUNT
000672: 04,2413           00004                           INHINT
000673: 04,2414           50107                           INDEX    ERCNT
000674: 04,2415           10313                           CCS      DSPTAB
000675: 04,2416           67763                           AD       ONE
000676: 04,2417           02424                           TC       ERPLUS
000677: 04,2420           67763                           AD       ONE
000678: 04,2421           40000        ERMINUS            CS       A
000679: 04,2422           72445                           MASK     NOTBIT12
000680: 04,2423           02427                           TC       ERCOM
000681: 04,2424           40000        ERPLUS             CS       A
000682: 04,2425           72445                           MASK     NOTBIT12
000683: 04,2426           40000                           CS       A                                     #  MIGHT WANT TO RESET CLPASS, DECBRNCH,
000684: 04,2427           50107        ERCOM              INDEX    ERCNT                                 #  ETC.
000685: 04,2430           54313                           TS       DSPTAB
000686: 04,2431           00003                           RELINT
000687: 04,2432           10107                           CCS      ERCNT
000688: 04,2433           02412                           TC       TSTAB      +1
000689: 04,2434           37767                           CAF      ZERO
000690: 04,2435           55360                           TS       FAILREG
000691: 04,2436           55361                           TS       FAILREG    +1
000692: 04,2437           55362                           TS       FAILREG    +2
000693: 04,2440           55357                           TS       SFAIL
000694: 04,2441           05567                           TC       ENDOFJOB
000695:
000696: 04,2442           00104        ERCON              OCT      104                                   #  CHAN 11 BITS 3,7.
000697:                                                                                                  #  UPLINK ACTIVITY, AND OPERATOR ERROR.
000698: 04,2443           00330        RFAILS             OCT      330                                   #  RADAR CDU AND DATA FAIL FLAGS.
000699: 04,2444           00050        GL+NOATT           OCT      00050                                 #  NO ATT AND GIMBAL LOCK LAMPS


000701: 04,2445           73777        NOTBIT12           OCT      73777
000702:
000703:
000704:                                                                                                  #  CLEAR BLANKS WHICH R1, R2, R3 IS CURRENT OR LAST TO BE DISPLAYED(PERTINE
000705:                                                                                                  #  NT XREG,YREG,ZREG IS CLEARED). SUCCESSIVE CLEARS TAKE CARE OF EACH RX
000706:                                                                                                  #  L/ RC UNTIL R1 IS DONE. THEN NO FURTHER ACTION
000707:
000708:                                                                                                  #  THE SINGLE COMPONENT LOAD VERBS ALLOW ONLY THE SINGLE RC THAT IS
000709:                                                                                                  #  APPROPRIATE TO BE CLEARED.
000710:
000711:                                                                                                  #  CLPASS   +0  PASS0, CAN BE BACKED UP
000712:                                                                                                  #           +NZ  HIPASS, CAN BE BACKED UP
000713:                                                                                                  #           -NZ  PASS0, CANNOT BE BACKED UP
000714:
000715: 04,2446           10270        CLEAR              CCS      DSPCOUNT
000716: 04,2447           67763                           AD       ONE
000717: 04,2450           02452                           TC       +2
000718: 04,2451           67763                           AD       ONE
000719: 04,2452           50000                           INDEX    A                                     #  DO NOT CHANGE DSPCOUNT BECAUSE MAY LATER
000720: 04,2453           32217                           CAF      INRELTAB                              #  FAIL LEGALTST.
000721: 04,2454           54127                           TS       INREL                                 #  MUST SET INREL, EVEN FOR HIPASS.
000722: 04,2455           10306                           CCS      CLPASS
000723: 04,2456           02464                           TC       CLPASHI                               #  +
000724: 04,2457           02461                           TC       +2                                    #  +0    IF CLPASS IS +0 OR -, IT IS PASS0
000725: 04,2460           02461                           TC       +1                                    #  -
000726: 04,2461           30127                           CA       INREL
000727: 04,2462           02506                           TC       LEGALTST
000728: 04,2463           02501                           TC       CLEAR1
000729: 04,2464           10127        CLPASHI            CCS      INREL
000730: 04,2465           54127                           TS       INREL
000731: 04,2466           02506                           TC       LEGALTST
000732: 04,2467           32555                           CAF      DOUBLK     +2                         #  +3 TO - NUMBER, BACKS DATA REQUESTS.
000733: 04,2470           26304                           ADS      REQRET
000734: 04,2471           30127                           CA       INREL
000735: 04,2472           54115                           TS       MIXTEMP                               #  TEMP STORAGE FOR INREL
000736: 04,2473           00006                           EXTEND
000737: 04,2474           26272                           DIM      VERBREG                               #  DECREMENT VERB AND RE-DISPLAY
000738: 04,2475           05206                           TC       BANKCALL
000739: 04,2476           12315                           CADR     UPDATVB
000740: 04,2477           30115                           CA       MIXTEMP
000741: 04,2500           54127                           TS       INREL                                 #  RESTORE INREL
000742: 04,2501           02504        CLEAR1             TC       CLR5
000743: 04,2502           24306                           INCR     CLPASS                                #  ONLY IF CLPASS IS + OR +0.
000744: 04,2503           05567                           TC       ENDOFJOB                              #  SET FOR HIGHER PASS.
000745: 04,2504           22002        CLR5               LXCH     Q                                     #  USES 5BLANK  BUT AVOIDS ITS TC GETINREL
000746: 04,2505           02516                           TC       5BLANK     +2
000747: 04,2506           65336        LEGALTST           AD       NEG2
000748: 04,2507           10000                           CCS      A
000749: 04,2510           00002                           TC       Q                                     #  LEGAL  INREL G/ 2


000751: 04,2511           04736                           TC       CCSHOLE
000752: 04,2512           05567                           TC       ENDOFJOB                              #  ILLEGAL INREL= 0,1
000753: 04,2513           00002                           TC       Q                                     #  LEGAL  INREL = 2
000754:
000755:                                                                                                  #  5BLANK BLANKS 5 CHAR DISPLAY WORD IN R1, R2, OR R3. IT ALSO ZEROES XREG,
000756:                                                                                                  #  YREG, OR ZREG.PLACE ANY + DSPCOUNT NUMBER FOR PERTINENT RC INTO DSPCOUNT
000757:                                                                                                  #  DSPCOUNT IS LEFT SET TO LEFT MOST DSP NUMB FOR RC JUST BLANKED.
000758:
000759: 04,2514           22002        5BLANK             LXCH     Q
000760: 04,2515           02213                           TC       GETINREL
000761: 04,2516           37767                           CAF      ZERO
000762: 04,2517           50127                           INDEX    INREL
000763: 04,2520           54272                           TS       VERBREG                               #  ZERO X, Y, Z, REG.
000764: 04,2521           50127                           INDEX    INREL
000765: 04,2522           54275                           TS       XREGLP     -2
000766: 04,2523           54114                           TS       CODE
000767: 04,2524           50127                           INDEX    INREL                                 #  ZERO PERTINENT DEC COMP BIT.
000768: 04,2525           47755                           CS       BIT7                                  #  PROTECT OTHERS
000769: 04,2526           70271                           MASK     DECBRNCH
000770: 04,2527           72556                           MASK     BRNCHCON                              #  ZERO LOW 2 BITS.
000771: 04,2530           54271                           TS       DECBRNCH
000772: 04,2531           50127                           INDEX    INREL
000773: 04,2532           32546                           CAF      SINBLANK   -2                         #  BLANK ISOLATED CHAR SEPARATELY
000774: 04,2533           54133                           TS       COUNT
000775: 04,2534           03217                           TC       DSPIN
000776: 04,2535           50127        5BLANK1            INDEX    INREL
000777: 04,2536           32551                           CAF      DOUBLK     -2
000778: 04,2537           54270                           TS       DSPCOUNT
000779: 04,2540           02557                           TC       2BLANK
000780: 04,2541           47762                           CS       TWO
000781: 04,2542           26270                           ADS      DSPCOUNT
000782: 04,2543           02557                           TC       2BLANK
000783: 04,2544           50127                           INDEX    INREL
000784: 04,2545           34525                           CAF      R1D1       -2
000785: 04,2546           54270                           TS       DSPCOUNT                              #  SET DSPCOUNT TO LEFT MOST DSP NUMBER
000786: 04,2547           00001                           TC       L                                     #  OF REG. JUST BLANKED
000787:
000788: 04,2550           00016        SINBLANK           OCT      16                                    #  DEC 14
000789: 04,2551           00005                           OCT      5
000790: 04,2552           00004                           OCT      4
000791: 04,2553           00015        DOUBLK             OCT      15                                    #  DEC 13
000792: 04,2554           00011                           OCT      11                                    #  DEC 9
000793: 04,2555           00003                           OCT      3
000794:
000795: 04,2556           77774        BRNCHCON           OCT      77774
000796:
000797:                                                                                                  #  2BLANK BLANKS TWO CHAR. PLACE DSP NUMBER OF LEFT CHAR OF THE PAIR INTO
000798:                                                                                                  #  DSPCOUNT. THIS NUMBER IS LEFT IN DSPCOUNT


000800:
000801: 04,2557           30270        2BLANK             CA       DSPCOUNT
000802: 04,2560           54021                           TS       SR
000803: 04,2561           42572                           CS       BLANKCON
000804: 04,2562           00004                           INHINT
000805: 04,2563           50021                           INDEX    SR
000806: 04,2564           56313                           XCH      DSPTAB
000807: 04,2565           00006                           EXTEND
000808: 04,2566           62570                           BZMF     +2                                    #  IF OLD CONTENTS -, NOUT OK
000809: 04,2567           24307                           INCR     NOUT                                  #  IF OLD CONTENTS +, +1 TO NOUT
000810: 04,2570           00003                           RELINT                                         #  IF -, NOUT OK
000811: 04,2571           00002                           TC       Q
000812: 04,2572           04000        BLANKCON           OCT      4000
000813:


000815:                                                                                                  #  ENTER PASS 0 IS THE EXECUTE FUNCTION. HIGHER ORDER ENTERS ARE TO LOAD
000816:                                                                                                  #  DATA. THE SIGN OF REQRET DETERMINES THE PASS, + FOR PASS 0, - FOR HIGHER
000817:                                                                                                  #  PASSES.
000818:
000819:
000820:                                                                                                  #  MACHINE CADR TO BE SPECIFIED (MCTBS) NOUNS DESIRE AN ECADR TO BE LOADED
000821:                                                                                                  #  WHEN USED WITH LOAD VERBS, MONITOR VERBS, OR DISPLAY VERBS (EXCEPT
000822:                                                                                                  #  VERB = FIXED MEMORY DISPLAY, WHICH REQUIRES AN FCADR).
000823:
000824: 05,2000                                           SETLOC   22000
000825:
000826: 05,2000           03344        NVSUBB             TC       NVSUB1                                #  STANDARD LEAD INS. DONT MOVE.
000827: 05,2001           13403        DSPMM              TCF      DSPMM1
000828: 05,2002           02663        LOADLV1            TC       LOADLV
000829:                                                                                                  #  END OF STANDARD LEAD INS.
000830:
000831:
000832: 05,2003           37767        ENTER              CAF      ZERO
000833: 05,2004           54306                           TS       CLPASS
000834: 05,2005           34505                           CAF      ENDINST
000835: 05,2006           54126                           TS       ENTRET
000836: 05,2007           10304                           CCS      REQRET
000837: 05,2010           02031                           TC       ENTPAS0                               #  IF +, PASS 0
000838: 05,2011           02031                           TC       ENTPAS0                               #  IF +, PASS 0
000839: 05,2012           02013                           TC       +1                                    #  IF -, NOT PASS 0
000840: 05,2013           36311                           CAF      THREE                                 #  IF DEC, ALARM IF LESS THAN 5 CHAR IN,
000841: 05,2014           70271                           MASK     DECBRNCH                              #  BUT LEAVE REQRET - AND FLASH ON, SO
000842: 05,2015           10000                           CCS      A                                     #  OPERATOR CAN SUPPLY MISSING NUMERICAL
000843: 05,2016           02020                           TC       +2                                    #  CHARACTERS AND CONTINUE.
000844: 05,2017           02024                           TC       ACCEPTWD                              #  OCTAL. ANY NUMBER OF CHAR OK.
000845: 05,2020           10270                           CCS      DSPCOUNT
000846: 05,2021           02324                           TC       GODSPALM                              #  LESS THAN 5 CHAR DEC(DSPCOUNT IS +)
000847: 05,2022           02324                           TC       GODSPALM                              #  LESS THAN 5 CHAR DEC(DSPCOUNT IS +)
000848: 05,2023           02024                           TC       +1                                    #  5 CHAR IN (DSPCOUNT IS -)
000849: 05,2024           40304        ACCEPTWD           CS       REQRET                                #  5 CHAR IN (DSPCOUNT IS -)
000850: 05,2025           54304                           TS       REQRET                                #  SET REQRET +.
000851: 05,2026           04626                           TC       FLASHOFF
000852: 05,2027           00304                           TC       REQRET
000853:
000854: 05,2030     0126               ENTEXIT            =        ENTRET
000855:
000856: 05,2030           00030        LOWVERB            OCT      30                                    #  LOWER VERB THAT AVOIDS NOUN TEST.
000857:
000858: 05,2031           37767        ENTPAS0            CAF      ZERO                                  #   NOUN VERB SUB ENTERS HERE
000859: 05,2032           54271                           TS       DECBRNCH
000860: 05,2033           40272        TESTVB             CS       VERBREG                               #  IF VERB IS 30-77, SKIP NOUN TEST.


000862: 05,2034           62030                           AD       LOWVERB                               #  LOWVERB - VB
000863: 05,2035           00006                           EXTEND
000864: 05,2036           62116                           BZMF     VERBFAN                               #  VERB G/ E 30
000865: 05,2037           00006        TESTNN             EXTEND                                         #  VERB L/ 30
000866: 05,2040           32076                           DCA      LODNNLOC                              #  SWITCH BANKS TO NOUN TABLE READING
000867: 05,2041           52006                           DXCH     Z                                     #  ROUTINE.
000868: 05,2042           50130                           INDEX    MIXBR
000869: 05,2043           02043                           TC       +0
000870: 05,2044           02046                           TC       +2                                    #  NORMAL
000871: 05,2045           02176                           TC       MIXNOUN                               #  MIXED
000872: 05,2046           10136                           CCS      NNADTEM                               #  NORMAL
000873: 05,2047           02114                           TC       VERBFAN    -2                         #       NORMAL IF +
000874: 05,2050           02324                           TC       GODSPALM                              #  NOT IN USE   IF +0
000875: 05,2051           02055                           TC       REQADD                                #  SPECIFY MACHINE CADR IF -
000876: 05,2052           24310                           INCR     NOUNCADR                              #  AUGMENT MACHINE CADR IF -0
000877: 05,2053           04521                           TC       SETNADD                               #  ECADR FROM NOUNCADR, SETS EB, NOUNADD.
000878: 05,2054           02102                           TC       INTMCTBS   +2
000879: 05,2055           37745        REQADD             CAF      BIT15                                 #  SET CLPASS FOR PASS 0 ONLY
000880: 05,2056           54306                           TS       CLPASS
000881: 05,2057           44505                           CS       ENDINST                               #  TEST IF REACHED HERE FROM INTERNAL OR
000882: 05,2060           60126                           AD       ENTEXIT                               #              FROM EXTERNAL
000883: 05,2061           00006                           EXTEND
000884: 05,2062           12064                           BZF      +2                                    #  EXTERNAL MACH CADR TO BE SPECIFIED
000885: 05,2063           02100                           TC       INTMCTBS
000886: 05,2064           02256                           TC       REQDATZ                               #  EXTERNAL MACH CADR TO BE SPECIFIED
000887: 05,2065           10271                           CCS      DECBRNCH
000888: 05,2066           02324                           TC       GODSPALM                              #  ALARM IF DECIMAL USED FOR MCTBS
000889: 05,2067           56276                           XCH      ZREG                                  #  OCTAL USED    OK
000890: 05,2070           04513                           TC       SETNCADR                              #  ECADR INTO NOUNCADR. SET EB, NOUNADD.
000891: 05,2071           00006                           EXTEND
000892: 05,2072           32076                           DCA      LODNNLOC                              #  SWITCH BANKS TO NOUN TABLE READING
000893: 05,2073           52006                           DXCH     Z                                     #  ROUTINE.
000894: 05,2074           02116                           TC       VERBFAN
000895:
000896: 05,2075     0270                                  EBANK=   DSPCOUNT
000897: 05,2075           02000 46060  LODNNLOC           2CADR    LODNNTAB
000898:
000899: 05,2077           77772        NEG5               OCT      77772
000900:
000901: 05,2100           30146        INTMCTBS           CA       MPAC       +2                         #  INTERNAL MACH CADR TO BE SPECIFIED.
000902: 05,2101           04513                           TC       SETNCADR                              #  ECADR INTO NOUNCADR. SET EB. NOUNADD.
000903: 05,2102           47760                           CS       BIT4                                  #  NVSUB CALL LEFT CADR IN MPAC+2 FOR MACH
000904: 05,2103           70272                           MASK     VERBREG                               #  CADR TO BE SPECIFIED.
000905: 05,2104           62077                           AD       NEG5                                  #  MASKING MAKES VB15 LOOK LIKE VB05.
000906: 05,2105           00006                           EXTEND
000907: 05,2106           12116                           BZF      VERBFAN                               #  VB = 05 OR 15, DO NOT DISPLAY CADR.
000908: 05,2107           34531                           CAF      R3D1                                  #  VB NOT = 05 OR 15. DISPLAY CADR.
000909: 05,2110           54270                           TS       DSPCOUNT
000910: 05,2111           30310                           CA       NOUNCADR
000911: 05,2112           03222                           TC       DSPOCTWD


000913: 05,2113           02116                           TC       VERBFAN
000914:
000915: 05,2114           67763                           AD       ONE
000916: 05,2115           04513                           TC       SETNCADR                              #  ECADR INTO NOUNCADR. SETS EB, NOUNADD.
000917: 05,2116           42131        VERBFAN            CS       LST2CON
000918: 05,2117           60272                           AD       VERBREG                               #  VERB = LST2CON
000919: 05,2120           10000                           CCS      A
000920: 05,2121           67763                           AD       ONE                                   #  VERB G/ LST2CON
000921: 05,2122           02124                           TC       +2
000922: 05,2123           02133                           TC       VBFANDIR                              #  VERB L/ LST2CON
000923: 05,2124           54144                           TS       MPAC
000924: 05,2125           04666                           TC       RELDSP                                #  RELEASE DISPLAY SYST
000925: 05,2126           56144                           XCH      MPAC                                  #  ALSO TURN OFF RELEASE DISPLAY SYST LIGHT
000926: 05,2127           62132                           AD       LST2CADR
000927: 05,2130           05230                           TC       BANKJUMP
000928: 05,2131           00040        LST2CON            OCT      40                                    #  FIRST LST2 VERB
000929: 05,2132           22000        LST2CADR           CADR     LST2FAN
000930:
000931: 05,2133           50272        VBFANDIR           INDEX    VERBREG
000932: 05,2134           32136                           CAF      VERBTAB
000933: 05,2135           05230                           TC       BANKJUMP
000934:
000935: 05,2136           12324        VERBTAB            CADR     GODSPALM                              #  VB00 ILLEGAL
000936: 05,2137           12340                           CADR     DSPA                                  #  VB01 DISPLAY OCT COMP 1 (R1)
000937: 05,2140           12345                           CADR     DSPB                                  #  VB02 DISPLAY OCT COMP 2 (R1)
000938: 05,2141           12352                           CADR     DSPC                                  #  VB03 DISPLAY OCT COMP 3 (R1)
000939: 05,2142           12333                           CADR     DSPAB                                 #  VB04 DISPLAY OCT COMP 1,2 (R1,R2)
000940: 05,2143           12326                           CADR     DSPABC                                #  VB05 DISPLAY OCT COMP 1,2,3 (R1,R2,R3)
000941: 05,2144           12445                           CADR     DECDSP                                #  VB06 DECIMAL DISPLAY
000942: 05,2145           10722                           CADR     DSPDPDEC                              #  VB07 DP DECIMAL DISPLAY (R1,R2)
000943: 05,2146           11315                           CADR     DSPALARM                              #  VB10 SPARE
000944: 05,2147           13077                           CADR     MONITOR                               #  VB11 MONITOR OCT COMP 1 (R1)
000945: 05,2150           13077                           CADR     MONITOR                               #  VB12 MONITOR OCT COMP 2 (R1)
000946: 05,2151           13077                           CADR     MONITOR                               #  VB13 MONITOR OCT COMP 3 (R1)
000947: 05,2152           13077                           CADR     MONITOR                               #  VB14 MONITOR OCT COMP 1,2 (R1,R2)
000948: 05,2153           13077                           CADR     MONITOR                               #  VB15 MONITOR OCT COMP 1,2,3 (R1,R2,R3)
000949: 05,2154           13077                           CADR     MONITOR                               #  VB16 MONITOR DECIMAL
000950: 05,2155           13077                           CADR     MONITOR                               #  VB17 MONITOR DP DEC (R1,R2)
000951: 05,2156           12324                           CADR     GODSPALM                              #  VB20 SPARE
000952: 05,2157           12620                           CADR     ALOAD                                 #  VB21 LOAD COMP 1 (R1)
000953: 05,2160           12631                           CADR     BLOAD                                 #  VB22 LOAD COMP 2 (R2)
000954: 05,2161           12646                           CADR     CLOAD                                 #  VB23 LOAD COMP 3 (R3)
000955: 05,2162           12572                           CADR     ABLOAD                                #  VB24 LOAD COMP 1,2 (R1,R2)
000956: 05,2163           12535                           CADR     ABCLOAD                               #  VB25 LOAD COMP 1,2,3 (R1,R2,R3)
000957: 05,2164           12324                           CADR     GODSPALM                              #  VB26 SPARE
000958: 05,2165           13214                           CADR     DSPFMEM                               #  VB27 FIXED MEMORY DISPLAY
000959:                                                                                                  #  THE FOLLOWING VERBS MAKE NO NOUN TEST
000960: 05,2166           13314        REQEXLOC           CADR     VBRQEXEC                              #  VB30 REQUEST EXECUTIVE
000961: 05,2167           13340                           CADR     VBRQWAIT                              #  VB31 REQUEST WAITLIST
000962: 05,2170           11343                           CADR     BUMP                                  #  VB32 C(R2) INTO R3, C(R1) INTO R2


000964: 05,2171           11326                           CADR     VBPROC                                #  VB33 PROCEED WITHOUT DATA
000965: 05,2172           11333                           CADR     VBTERM                                #  VB34 TERMINATE CURRENT TEST OR LOAD REQ
000966: 05,2173           13414                           CADR     VBTSTLTS                              #  VB35 TEST LIGHTS
000967: 05,2174           02000                           CADR     SLAP1                                 #  VB36 FRESH START
000968: 05,2175           13267                           CADR     MMCHANG                               #  VB37 CHANGE MAJOR MODE
000969:
000970:                                                                                                  #  THE LIST2 VERBFAN IS LOCATED IN THE EXTENDED VERB BANK.
000971:


000973:                                                                                                  #  NNADTAB CONTAINS A RELATIVE ADDRESS, IDADDREL(IN LOW 10 BITS), REFERRING
000974:                                                                                                  #  TO WHERE 3 CONSECUTIVE ADDRESSES ARE STORED (IN IDADDTAB).
000975:                                                                                                  #  MIXNOUN GETS DATA AND STORES IN MIXTEMP,+1,+2. IT SETS NOUNADD FOR
000976:                                                                                                  #  MIXTEMP.
000977:
000978: 05,2176           10136        MIXNOUN            CCS      NNADTEM
000979: 05,2177           02203                           TC       +4                                    #  + IN USE
000980: 05,2200           02324                           TC       GODSPALM                              #  +0 NOT IN USE
000981: 05,2201           02203                           TC       +2                                    #  - IN USE
000982: 05,2202           02203                           TC       +1                                    #  -0 IN USE
000983: 05,2203           46306                           CS       SIX
000984: 05,2204           60272                           AD       VERBREG
000985: 05,2205           00006                           EXTEND
000986: 05,2206           62210                           BZMF     +2                                    #  VERB L/E 6
000987: 05,2207           02116                           TC       VERBFAN                               #  AVOID MIXNOUN SWAP IF VB NOT = DISPLAY
000988: 05,2210           37762                           CAF      TWO
000989: 05,2211           54107        MIXNN1             TS       DECOUNT
000990: 05,2212           62235                           AD       MIXAD
000991: 05,2213           54135                           TS       NOUNADD                               #  SET NOUNADD TO MIXTEMP + K
000992: 05,2214           50107                           INDEX    DECOUNT                               #  GET IDADDTAB ENTRY FOR COMPONENT K
000993: 05,2215           30140                           CA       IDAD1TEM                              #  OF NOUN.
000994: 05,2216           54112                           TS       NOUNTEM
000995:                                                                                                  #  TEST FOR DP (FOR OCT DISPLAY).  IF SO, GET
000996:                                                                                                  #    MINOR PART ONLY.
000997: 05,2217           02721                           TC       SFRUTMIX                              #  GET SF ROUT NUMBER IN A
000998: 05,2220           02236                           TC       DPTEST
000999: 05,2221           02223                           TC       MIXNN2                                #  NO DP
001000: 05,2222           24112                           INCR     NOUNTEM                               #  DP GET MINOR PART
001001: 05,2223           30112        MIXNN2             CA       NOUNTEM
001002: 05,2224           74563                           MASK     LOW11                                 #  ESUBK (NO DP) OR (ESUBK)+1     FOR DP
001003: 05,2225           04523                           TC       SETEBANK                              #  SET EBANK, LEAVE EADRES IN A.
001004: 05,2226           50000                           INDEX    A                                     #  PICK UP C(ESUBK) NOT DP
001005: 05,2227           30000                           CA       0                                     #  OR C((ESUBK)+1) FOR DP MINOR PART
001006: 05,2230           50135                           INDEX    NOUNADD
001007: 05,2231           56000                           XCH      0                                     #  STORE IN MIXTEM + K
001008: 05,2232           10107                           CCS      DECOUNT
001009: 05,2233           02211                           TC       MIXNN1
001010: 05,2234           02116                           TC       VERBFAN
001011:
001012: 05,2235           00115        MIXAD              TC       MIXTEMP
001013:
001014:                                                                                                  #  DPTEST        ENTER WITH SF ROUT NUMBER IN A.
001015:                                                                                                  #                RETURNS TO L+1 IF NO DP.
001016:                                                                                                  #                RETURNS TO L+2 IF DP.
001017:
001018: 05,2236           50000        DPTEST             INDEX    A
001019: 05,2237           12240                           TCF      +1
001020: 05,2240           00002                           TC       Q                                     #  OCTAL ONLY NO DP


001022: 05,2241           00002                           TC       Q                                     #  FRACT NO DP
001023: 05,2242           00002                           TC       Q                                     #  DEG  NO DP
001024: 05,2243           00002                           TC       Q                                     #  ARITH  NO DP
001025: 05,2244           12250                           TCF      DPTEST1                               #  DP1OUT
001026: 05,2245           12250                           TCF      DPTEST1                               #  DP2OUT
001027: 05,2246           00002                           TC       Q                                     #  LRPOSOUT NO DP (DATA IN CHANNEL 33)
001028: 05,2247           12250                           TCF      DPTEST1                               #  DP3OUT
001029: 05,2250           50002        DPTEST1            INDEX    Q
001030: 05,2251           00001                           TC       1                                     #  RETURN TO L+2
001031:
001032: 05,2252           34527        REQDATX            CAF      R1D1
001033: 05,2253           12257                           TCF      REQCOM
001034: 05,2254           34530        REQDATY            CAF      R2D1
001035: 05,2255           12257                           TCF      REQCOM
001036: 05,2256           34531        REQDATZ            CAF      R3D1
001037: 05,2257           54270        REQCOM             TS       DSPCOUNT
001038: 05,2260           40002                           CS       Q
001039: 05,2261           54304                           TS       REQRET
001040: 05,2262           05206                           TC       BANKCALL
001041: 05,2263           10514                           CADR     5BLANK
001042: 05,2264           04622                           TC       FLASHON
001043: 05,2265           44505                           CS       ENDINST
001044: 05,2266           60126                           AD       ENTEXIT
001045: 05,2267           00006                           EXTEND
001046: 05,2270           12273                           BZF      ENDRQDAT                              #  ENTEXIT = ENDOFJOB. EXTERNALLY INITIATED
001047: 05,2271           47767                           CS       ZERO                                  #  ENTEXIT NOT ENDOFJOB. NVSUB INITIATED
001048: 05,2272           54327                           TS       CADRSTOR                              #  NVSUB INITIATED LOAD. SET CADRSTOR TO -0
001049: 05,2273           00126        ENDRQDAT           TC       ENTEXIT
001050:
001051:                                                                                                  #  IF NVSUB INITIATED LOAD, SET CADRSTOR TO -0 TO TELL RECALTST TO RELEASE
001052:                                                                                                  #  DISPLAY IF ENDIDLE WAS NOT USED. (NECESSARY FOR DATAWAIT)
001053:
001054: 05,2274           54273                           TS       NOUNREG
001055: 05,2275           56002        UPDATNN            XCH      Q
001056: 05,2276           54107                           TS       UPDATRET
001057: 05,2277           00006                           EXTEND
001058: 05,2300           32076                           DCA      LODNNLOC                              #  SWITCH BANKS TO NOUN TABLE READING
001059: 05,2301           52006                           DXCH     Z                                     #  ROUTINE.
001060: 05,2302           10136                           CCS      NNADTEM
001061: 05,2303           67763                           AD       ONE                                   #  NORMAL
001062: 05,2304           12307                           TCF      PUTADD
001063: 05,2305           12310                           TCF      PUTADD     +1                         #  MCTBS  DONT CHANGE NOUNADD
001064: 05,2306           12310                           TCF      PUTADD     +1                         #  MCTBI  DONT CHANGE NOUNADD
001065: 05,2307           04513        PUTADD             TC       SETNCADR                              #  ECADR INTO NOUNCADR. SETS EB. NOUNADD.
001066: 05,2310           34566                           CAF      ND1
001067: 05,2311           54270                           TS       DSPCOUNT


001069: 05,2312           30273                           CA       NOUNREG
001070: 05,2313           12322                           TCF      UPDAT1
001071:
001072: 05,2314           54272                           TS       VERBREG
001073: 05,2315           56002        UPDATVB            XCH      Q
001074: 05,2316           54107                           TS       UPDATRET
001075: 05,2317           34565                           CAF      VD1
001076: 05,2320           54270                           TS       DSPCOUNT
001077: 05,2321           30272                           CA       VERBREG
001078: 05,2322           03255        UPDAT1             TC       DSP2BIT
001079: 05,2323           00107                           TC       UPDATRET
001080:
001081: 05,2324           05225        GODSPALM           TC       POSTJUMP
001082: 05,2325           11315                           CADR     DSPALARM
001083:


001085:                                                                                                  #  NOUN TABLES
001086:
001087:                                                                                                  #  NOUN CODE L/ 55, NORMAL CASE.  NOUN CODE G/E 55, MIXED NOUN CASE.
001088:                                                                                                  #  FOR NORMAL CASE, NNADTAB CONTAINS ONE       ECADR     FOR EACH NOUN.
001089:                                                                                                  #  +0 INDICATES NOUN NOT USED.   - ENTRY INDICATES MACHINE CADR(E OR F) TO
001090:                                                                                                  #  BE SPECIFIED. -1 INDICATES CHANNEL TO BE SPECIFIED. -0 INDICATES AUGMENT
001091:                                                                                                  #  OF LAST MACHINE CADR SUPPLIED.
001092:
001093:                                                                                                  #  FOR MIXED CASE, NNADTAB CONTAINS ONE INDIRECT ADDRESS(IDADDREL) IN LOW
001094:                                                                                                  #  10 BITS, AND THE COMPONENT CODE NUMBER IN THE HIGH 5 BITS.
001095:
001096:                                                                                                  #  NNTYPTAB IS A PACKED TABLE OF THE FORM MMMMMNNNNNPPPPP.
001097:
001098:                                                                                                  #  FOR THE NORMAL CASE, M'S ARE THE COMPONENT CODE NUMBER.
001099:                                                                                                  #                       N'S ARE THE SF ROUTINE CODE NUMBER.
001100:                                                                                                  #                       P'S ARE THE SF CONSTANT CODE NUMBER.
001101:
001102:                                                                                                  #  MIXED-CASE,M'S ARE THE SF CONSTANT3 CODE NUMBER     3 COMPONENT CASE
001103:                                                                                                  #             N'S ARE THE SF CONSTANT2 CODE NUMBER
001104:                                                                                                  #             P'S ARE THE SF CONSTANT1 CODE NUMBER
001105:                                                                                                  #             N'S ARE THE SF CONSTANT2 CODE NUMBER     2 COMPONENT CASE
001106:                                                                                                  #             P'S ARE THE SF CONSTANT1 CODE NUMBER
001107:                                                                                                  #             P'S ARE THE SF CONSTANT1 CODE NUMBER     1 COMPONENT CASE
001108:
001109:                                                                                                  #  THERE IS ALSO AN INDIRECT ADDRESS TABLE(IDADDTAB) FOR MIXED CASE ONLY.
001110:                                                                                                  #  EACH ENTRY CONTAINS ONE ECADR.    IDADDREL IS THE RELATIVE ADDRESS OF
001111:                                                                                                  #  THE FIRST OF THESE ENTRIES.
001112:                                                                                                  #  THERE IS ONE ENTRY IN THIS TABLE FOR EACH COMPONENT OF A MIXED NOUN
001113:                                                                                                  #  THEY ARE LISTED IN ORDER OF ASCENDING K
001114:
001115:                                                                                                  #  THERE IS ALSO A SCALE FACTOR ROUTINE NUMBER TABLE( RUTMXTAB ) FOR MIXED
001116:                                                                                                  #  CASE ONLY.  THERE IS ONE ENTRY PER MIXED NOUN. THE FORM IS,
001117:                                                                                                  #        QQQQQRRRRRSSSSS
001118:                                                                                                  #  Q'S ARE THE SF ROUTINE 3 CODE NUMBER      3 COMPONENT CASE
001119:                                                                                                  #  R'S ARE THE SF ROUTINE 2 CODE NUMBER
001120:                                                                                                  #  S'S ARE THE SF ROUTINE 1 CODE NUMBER
001121:                                                                                                  #  R'S ARE THE SF ROUTINE 2 CODE NUMBER      2 COMPONENT CASE
001122:                                                                                                  #  S'S ARE THE SF ROUTINE 1 CODE NUMBER
001123:
001124:
001125:                                                                                                  #  IN OCTAL DISPLAY AND LOAD (OCT OR DEC) VERBS, EXCLUDE USE OF VERBS WHOSE
001126:                                                                                                  #  COMPONENT NUMBER IS GREATER THAN THE NUMBER OF COMPONENTS IN NOUN.
001127:                                                                                                  #  ALL MACHINE ADDRESS TO BE SPECIFIED NOUNS ARE 1 COMPONENT.
001128:                                                                                                  #  ONLY EXCEPTION IS NOUN 01 TO ALLOW OCTAL DISPLAYS AND LOADS OF
001129:                                                                                                  #  AN UNCONTOLLED NUMBER OF COMPONENTS.
001130:
001131:
001132:                                                                                                  #  IN MULTI-COMPONENT LOAD VERBS, NO MIXING OF OCTAL AND DECIMAL DATA
001133:                                                                                                  #  COMPONENT WORDS IS ALLOWED. ALARM IF VIOLATION.


001135:
001136:                                                                                                  #  IN DECIMAL LOADS OF DATA, 5 NUMERICAL CHARACTERS MUST BE KEYED IN
001137:                                                                                                  #  BEFORE EACH ENTER. IF NOT, ALARM.
001138:


001140:                                                                                                  #  DISPLAY VERBS
001141:
001142: 05,2326           47762        DSPABC             CS       TWO
001143: 05,2327           02376                           TC       COMPTEST
001144: 05,2330           50135                           INDEX    NOUNADD
001145: 05,2331           40002                           CS       2
001146: 05,2332           56122                           XCH      BUF        +2
001147: 05,2333           47763        DSPAB              CS       ONE
001148: 05,2334           02376                           TC       COMPTEST
001149: 05,2335           50135                           INDEX    NOUNADD
001150: 05,2336           40001                           CS       1
001151: 05,2337           56121                           XCH      BUF        +1
001152: 05,2340           02420        DSPA               TC       TSTFORDP
001153: 05,2341           50135                           INDEX    NOUNADD
001154: 05,2342           40000                           CS       0
001155: 05,2343           56120        DSPCOM1            XCH      BUF
001156: 05,2344           02357                           TC       DSPCOM2
001157: 05,2345           47763        DSPB               CS       ONE
001158: 05,2346           02376                           TC       COMPTEST
001159: 05,2347           50135                           INDEX    NOUNADD
001160: 05,2350           40001                           CS       1
001161: 05,2351           02343                           TC       DSPCOM1
001162: 05,2352           47762        DSPC               CS       TWO
001163: 05,2353           02376                           TC       COMPTEST
001164: 05,2354           50135                           INDEX    NOUNADD
001165: 05,2355           40002                           CS       2
001166: 05,2356           02343                           TC       DSPCOM1
001167: 05,2357           47762        DSPCOM2            CS       TWO                                   #  A  B  C  AB ABC
001168: 05,2360           60272                           AD       VERBREG                               #  -1 -0 +1 +2 +3   IN A
001169: 05,2361           10000                           CCS      A                                     #  +0 +0 +0 +1 +2    IN A AFTER CCS
001170: 05,2362           02365                           TC       DSPCOM3
001171: 05,2363           00126                           TC       ENTEXIT
001172: 05,2364           02365                           TC       +1
001173: 05,2365           54112        DSPCOM3            TS       DISTEM                                #  +0,+1,+2 INTO DISTEM
001174: 05,2366           50000                           INDEX    A
001175: 05,2367           34527                           CAF      R1D1
001176: 05,2370           54270                           TS       DSPCOUNT
001177: 05,2371           50112                           INDEX    DISTEM
001178: 05,2372           40120                           CS       BUF
001179: 05,2373           03222                           TC       DSPOCTWD
001180: 05,2374           56112                           XCH      DISTEM
001181: 05,2375           02361                           TC       DSPCOM2    +2
001182:
001183:                                                                                                  #  COMPTEST ALARMS IF COMPONENT NUMBER OF VERB(LOAD OR OCT DISPLAY) IS
001184:                                                                                                  #  GREATER THAN THE HIGHEST COMPONENT NUMBER OF NOUN.
001185:                                                                                                  #  NOUN 01 IS EXCLUDED FROM TEST.
001186: 05,2376           54113        COMPTEST           TS       SFTEMP1                               #  - VERB COMP
001187: 05,2377           22002                           LXCH     Q
001188: 05,2400           47763        COMPTST1           CS       ONE
001189: 05,2401           60273                           AD       NOUNREG
001190: 05,2402           00006                           EXTEND


001192: 05,2403           12417                           BZF      NDCMPTST                              #  NOUN = 01, ANY COMP OK
001193: 05,2404           50130                           INDEX    MIXBR                                 #  NOUNT NOT = 01.
001194: 05,2405           32442                           CAF      COMPICK    -1
001195: 05,2406           50000                           INDEX    A
001196: 05,2407           30000                           CA       0
001197: 05,2410           74560                           MASK     HI5
001198: 05,2411           04541                           TC       LEFT5                                 #  NOUN COMP
001199: 05,2412           60113                           AD       SFTEMP1                               #  NOUN COMP - VERB COMP
001200: 05,2413           10000                           CCS      A
001201: 05,2414           00001                           TC       L                                     #  NOUN COMP G/ VERB COMP
001202: 05,2415           04736                           TC       CCSHOLE
001203: 05,2416           02324                           TC       GODSPALM                              #  NOUN L/ VERB COMP
001204: 05,2417           00001        NDCMPTST           TC       L                                     #  NOUN COMP = VERB COMP
001205:
001206:
001207: 05,2420           22002        TSTFORDP           LXCH     Q                                     #  TEST FOR DP. IF SO, GET MINOR PART ONLY.
001208: 05,2421           30136                           CA       NNADTEM
001209: 05,2422           67763                           AD       ONE                                   #  IF NNADTEM = -1, CHANNEL TO BE SPECIFIED
001210: 05,2423           00006                           EXTEND
001211: 05,2424           12436                           BZF      CHANDSP
001212: 05,2425           50130                           INDEX    MIXBR
001213: 05,2426           02426                           TC       +0
001214: 05,2427           02431                           TC       +2                                    #  NORMAL
001215: 05,2430           00001                           TC       L                                     #  MIXED CASE ALREADY HANDLED IN MIXNOUN
001216: 05,2431           02713                           TC       SFRUTNOR
001217: 05,2432           02236                           TC       DPTEST
001218: 05,2433           00001                           TC       L                                     #  NO DP
001219: 05,2434           24135                           INCR     NOUNADD                               #  DP    E+1 INTO NOUNADD FOR MINOR PART.
001220: 05,2435           00001                           TC       L
001221:
001222: 05,2436           00006        CHANDSP            EXTEND
001223: 05,2437           50310                           INDEX    NOUNCADR
001224: 05,2440           00000                           READ     0
001225: 05,2441           40000                           CS       A
001226: 05,2442           12343                           TCF      DSPCOM1
001227:
001228:
001229: 05,2443           00137        COMPICK            ADRES    NNTYPTEM
001230: 05,2444           00136                           ADRES    NNADTEM
001231:
001232: 05,2445           50130        DECDSP             INDEX    MIXBR                                 #  NORMAL                 MIXED
001233: 05,2446           32442                           CAF      COMPICK    -1                         #  ADRES NNTYPTEM         ADRES NNADTEM
001234: 05,2447           50000                           INDEX    A
001235: 05,2450           30000                           CA       0                                     #  C(NNTYPTEM)            C(NNADTEM)
001236: 05,2451           74560                           MASK     HI5                                   #  GET HI5 OF NNTYPTAB (NORM)OF NNADTAB (MIX)
001237: 05,2452           04541                           TC       LEFT5


001239:
001240: 05,2453           54107                           TS       DECOUNT                               #  COMP NUMBER INTO DECOUNT
001241: 05,2454           54112        DSPDCGET           TS       DECTEM                                #  PICKS UP DATA
001242: 05,2455           60135                           AD       NOUNADD                               #  DECTEM  1COMP +0, 2COMP +1, 3COMP +2
001243: 05,2456           50000                           INDEX    A
001244: 05,2457           40000                           CS       0
001245: 05,2460           50112                           INDEX    DECTEM
001246: 05,2461           56274                           XCH      XREG                                  #  CANT USE BUF SINCE DMP USES IT.
001247: 05,2462           10112                           CCS      DECTEM
001248: 05,2463           02454                           TC       DSPDCGET                              #  MORE TO GET
001249: 05,2464           37767        DSPDCPUT           CAF      ZERO                                  #  DISPLAYS DATA
001250: 05,2465           54145                           TS       MPAC       +1                         #  DECOUNT 1COMP +0, 2COMP +1, 3COMP +2
001251: 05,2466           54146                           TS       MPAC       +2
001252: 05,2467           50107                           INDEX    DECOUNT
001253: 05,2470           34527                           CAF      R1D1
001254: 05,2471           54270                           TS       DSPCOUNT
001255: 05,2472           50107                           INDEX    DECOUNT
001256: 05,2473           40274                           CS       XREG
001257: 05,2474           54144                           TS       MPAC
001258: 05,2475           02734                           TC       SFCONUM                               #  2X( SF CON NUMB ) IN A
001259: 05,2476           54113                           TS       SFTEMP1
001260: 05,2477           00006                           EXTEND                                         #  SWITCH BANKS TO SF CONSTANT TABLE
001261: 05,2500           32512                           DCA      GTSFOUTL                              #     READING ROUTINE.
001262: 05,2501           52006                           DXCH     Z                                     #  LOADS SFTEMP1, SFTEMP2
001263: 05,2502           50130                           INDEX    MIXBR
001264: 05,2503           02503                           TC       +0
001265: 05,2504           02507                           TC       DSPSFNOR
001266: 05,2505           02721                           TC       SFRUTMIX
001267: 05,2506           02522                           TC       DECDSP3
001268:
001269: 05,2507           02713        DSPSFNOR           TC       SFRUTNOR
001270: 05,2510           02522                           TC       DECDSP3
001271:
001272: 05,2511     0270                                  EBANK=   DSPCOUNT
001273: 05,2511           02037 46060  GTSFOUTL           2CADR    GTSFOUT
001274:
001275:
001276: 05,2513           05206        DSPDCEND           TC       BANKCALL                              #  ALL SFOUT ROUTINES END HERE
001277: 05,2514           11117                           CADR     DSPDECWD
001278: 05,2515           10107                           CCS      DECOUNT
001279: 05,2516           02520                           TC       +2
001280: 05,2517           00126                           TC       ENTEXIT
001281: 05,2520           54107                           TS       DECOUNT
001282: 05,2521           02464                           TC       DSPDCPUT                              #  MORE TO DISPLAY
001283:
001284: 05,2522           50000        DECDSP3            INDEX    A
001285: 05,2523           32525                           CAF      SFOUTABR
001286: 05,2524           05230                           TC       BANKJUMP
001287:


001289: 05,2525           11315        SFOUTABR           CADR     DSPALARM                              #  ALARM IF DEC DISP WITH OCTAL ONLY NOUN
001290: 05,2526           12513                           CADR     DSPDCEND
001291: 05,2527           10573                           CADR     DEGOUTSF
001292: 05,2530           10660                           CADR     ARTOUTSF
001293: 05,2531           10665                           CADR     DP1OUTSF
001294: 05,2532           10672                           CADR     DP2OUTSF
001295: 05,2533           10601                           CADR     OPDEGOUT
001296: 05,2534           10674                           CADR     DP3OUTSF
001297: 05,2535                        ENDRTOUT           EQUALS
001298:
001299:                                                                                                  #          THE FOLLOWING IS ATYPICAL SF ROUTINE. IT USES MPAC. LEAVES RESU
001300:                                                                                                  #  LTS IN MPAC, MPAC+1. ENDS WITH TC DSPDCEND
001301:
001302: 04,2573                                           SETLOC   BLANKCON   +1
001303:
001304:                                                                                                  #     DEGOUTSF SCALES BY .18 THE LOW 14 BITS OF ANGLE, ADDING .18 FOR
001305:                                                                                                  #  NUMBERS IN THE NEGATIVE (AGC) RANGE.
001306:
001307: 04,2573           37767        DEGOUTSF           CAF      ZERO
001308: 04,2574           54146                           TS       MPAC       +2                         #  SET INDEX FOR FULL SCALE.
001309: 04,2575           02632                           TC       FIXRANGE
001310: 04,2576           02600                           TC       +2                                    #  NO AUGMENT NEEDED (SFTEMP1 AND 2 ARE 0)
001311: 04,2577           02625                           TC       SETAUG                                #  SET AUGMENTER ACCORDING TO C(MPAC +2)
001312: 04,2600           02643                           TC       DEGCOM
001313:
001314:                                                                                                  #  OPDEGOUT SCALES BY .45 (THE RANGE IS 90 DEGREES) AND ADDS A 20 DEG BIAS.
001315:
001316: 04,2601           10144        OPDEGOUT           CCS      MPAC                                  #  RANGE IS 90 DEG
001317: 04,2602           56144                           XCH      MPAC                                  #  IF POS OR POS 0 THEN ADD BIAS AND
001318: 04,2603           02606                           TC       +3                                    #  CORRECT FOR POSSIBLE OVERFLOW
001319: 04,2604           02615                           TC       NEGOPT                                #  IF NEG NON ZERO
001320: 04,2605           67771                           AD       NEG1                                  #  IF NEG ZERO SUBTRACT 1
001321: 04,2606           62657                           AD       20BIAS
001322: 04,2607           54144        BIASCOM            TS       MPAC                                  #  TEST FOR OVERFLOW
001323: 04,2610           02613                           TC       +3                                    #  NO OVFLOW
001324: 04,2611           37745                           CAF      BIT15                                 #  IF OVFLOW
001325: 04,2612           26144                           ADS      MPAC
001326: 04,2613           37762                           CAF      TWO                                   #  SET MULTIPLIER TO .45
001327: 04,2614           02574                           TC       DEGOUTSF   +1
001328:
001329: 04,2615           56144        NEGOPT             XCH      MPAC                                  #  NEGATIVE CASE
001330: 04,2616           62657                           AD       20BIAS
001331: 04,2617           10000                           CCS      A
001332: 04,2620           02607                           TC       BIASCOM                               #  IF POS THEN SUBTRACT 1 BECAUSE OF 2SCOM
001333: 04,2621           04736                           TC       CCSHOLE
001334: 04,2622           67763                           AD       ONE                                   #  IF NEG RESTORE SUM
001335:


001337: 04,2623           40000                           COM                                            #  IF NEG 0 LEAVE NEG 0
001338: 04,2624           02607                           TC       BIASCOM
001339:
001340: 04,2625           00006        SETAUG             EXTEND                                         #  LOADS SFTEMP1 AND SFTEMP2 WITH THE
001341: 04,2626           50146                           INDEX    MPAC       +2                         #  DP AUGMENTER CONSTANT
001342: 04,2627           32654                           DCA      DEGTAB
001343: 04,2630           52114                           DXCH     SFTEMP1
001344: 04,2631           00002                           TC       Q
001345:
001346: 04,2632           10144        FIXRANGE           CCS      MPAC                                  #  IF MPAC IS + RETURN TO L+1
001347: 04,2633           00002                           TC       Q                                     #  IF MPAC IS - RETURN TO L+2 AFTER
001348: 04,2634           00002                           TC       Q                                     #  MASKING OUT THE SIGN BIT
001349: 04,2635           12636                           TCF      +1
001350: 04,2636           47745                           CS       BIT15
001351: 04,2637           70144                           MASK     MPAC
001352: 04,2640           54144                           TS       MPAC
001353: 04,2641           50002                           INDEX    Q
001354: 04,2642           00001                           TC       1
001355:
001356: 04,2643           00006        DEGCOM             EXTEND                                         #  LOADS MULTIPLIER, DOES SHORTMP, AND
001357: 04,2644           50146                           INDEX    MPAC       +2                         #  ADDS AUGMENTER.
001358: 04,2645           32654                           DCA      DEGTAB
001359: 04,2646           52145                           DXCH     MPAC                                  #  ADJUSTED ANGLE IN A
001360: 04,2647           07357                           TC       SHORTMP
001361: 04,2650           52114                           DXCH     SFTEMP1
001362: 04,2651           20145                           DAS      MPAC
001363: 04,2652           02663                           TC       SCOUTEND
001364:
001365:
001366: 04,2653           05605        DEGTAB             OCT      05605                                 #  HI PART OF    .18
001367: 04,2654           03656                           OCT      03656                                 #  LOW PART OF   .18
001368: 04,2655           16314                           OCT      16314                                 #  HI PART OF    .45
001369: 04,2656           31463                           OCT      31463                                 #  LO PART OF    .45
001370:
001371: 04,2657           16040        20BIAS             OCT      16040                                 #  20 DEG BIAS FOR OPTICS
001372:
001373: 04,2660           52114        ARTOUTSF           DXCH     SFTEMP1                               #  ASSUMES POINT AT LEFT OF DP SFCON
001374: 04,2661           52145                           DXCH     MPAC
001375: 04,2662           07357                           TC       SHORTMP
001376: 04,2663           05225        SCOUTEND           TC       POSTJUMP
001377: 04,2664           12513                           CADR     DSPDCEND
001378:
001379: 04,2665           02677        DP1OUTSF           TC       DPOUT                                 #  SCALES MPAC, MPAC +1 BY DP SCALE FACTOR
001380: 04,2666           56146                           XCH      MPAC       +2                         #  IN SFTEMP1, SFTEMP2.  THEN SCALE RESULT
001381: 04,2667           56145                           XCH      MPAC       +1                         #  BY B14
001382: 04,2670           54144                           TS       MPAC
001383: 04,2671           02663                           TC       SCOUTEND


001385:
001386: 04,2672           02677        DP2OUTSF           TC       DPOUT                                 #  SCALES MPAC, MPAC +1 BY DP SCALE FACTOR
001387: 04,2673           02663                           TC       SCOUTEND
001388:
001389:
001390: 04,2674           02677        DP3OUTSF           TC       DPOUT                                 #  ASSUMES POINT BETWEEN BITS 7-8 OF HIGH
001391: 04,2675           03072                           TC       TPLEFT7                               #  PART OF SFCON. SHIFTS RESULTS LEFT 7.
001392: 04,2676           02663                           TC       SCOUTEND
001393:
001394:                                                                                                  #  DPOUT PICKS UP FRESH DATA FOR BOTH HI AND LO COMPONENTS.
001395:                                                                                                  #  THIS IS NEEDED FOR TIME DISPLAY.
001396:
001397: 04,2677           56002        DPOUT              XCH      Q
001398: 04,2700           54111                           TS       OVFIND
001399: 04,2701           50130                           INDEX    MIXBR
001400: 04,2702           02702                           TC       +0
001401: 04,2703           02720                           TC       DPOUTNOR
001402: 04,2704           50107                           INDEX    DECOUNT                               #  GET IDADDTAB ENTRY FOR COMPONENT K
001403: 04,2705           30140                           CA       IDAD1TEM                              #      OF NOUN.
001404: 04,2706           74563                           MASK     LOW11                                 #  E SUBK
001405: 04,2707           04523                           TC       SETEBANK                              #  SET EB, LEAVE EADRES IN A.
001406: 04,2710           00006        DPOUTCOM           EXTEND
001407: 04,2711           50000                           INDEX    A                                     #  MIXED         NORMAL
001408: 04,2712           30001                           DCA      0                                     #  C(ESUBK)      C(E)
001409: 04,2713           52145                           DXCH     MPAC                                  #  C((E SUBK)+1)      C(E+1)
001410: 04,2714           07327                           TC       TPAGREE                               #  MAKE DP DATA AGREE
001411: 04,2715           07155                           TC       DMP
001412: 04,2716           00113                           ADRES    SFTEMP1
001413: 04,2717           00111                           TC       OVFIND
001414:
001415: 04,2720           30135        DPOUTNOR           CA       NOUNADD
001416: 04,2721           02710                           TC       DPOUTCOM
001417:
001418:                                                                                                  #  THIS IS A SPECIAL PURPOSE VERB FOR DISPLAYING A DOUBLE PRECISION AGC
001419:                                                                                                  #  WORD AS 10 DECIMAL DIGITS ON THE AGC DISPLAY PANEL.  IT CAN BE USED WITH
001420:                                                                                                  #  ANY NOUN, EXCEPT MIXED NOUNS. IT DISPLAYS THE CONTENTS
001421:                                                                                                  #  OF THE REGISTER NOUNADD IS POINTING TO .  IF USED WITH NOUNS WHICH ARE
001422:                                                                                                  #  INHERENTLY NOT DP SUCH AS THE CDU COUNTERS THE DISPLAY WILL BE GARBAGE.
001423:                                                                                                  #  DISPLAY IS IN R1 AND R2 ONLY WITH THE SIGN IN R1.
001424:
001425:
001426: 04,2722           50130        DSPDPDEC           INDEX    MIXBR
001427: 04,2723           02723                           TC       +0
001428: 04,2724           02726                           TC       +2                                    #  NORMAL NOUN
001429: 04,2725           03315                           TC       DSPALARM
001430:


001432: 04,2726           00006                           EXTEND
001433: 04,2727           50135                           INDEX    NOUNADD
001434: 04,2730           30001                           DCA      0
001435: 04,2731           52145                           DXCH     MPAC
001436: 04,2732           34527                           CAF      R1D1
001437: 04,2733           54270                           TS       DSPCOUNT
001438: 04,2734           37767                           CAF      ZERO
001439: 04,2735           54146                           TS       MPAC       +2
001440: 04,2736           07327                           TC       TPAGREE
001441: 04,2737           03173                           TC       DSP2DEC
001442: 04,2740           00126        ENDDPDEC           TC       ENTEXIT
001443:


001445: 05,2535                                           SETLOC   ENDRTOUT
001446:
001447: 05,2535           47762        ABCLOAD            CS       TWO
001448: 05,2536           02376                           TC       COMPTEST
001449: 05,2537           32673                           CAF      VBSP1LD
001450: 05,2540           02314                           TC       UPDATVB    -1
001451: 05,2541           02252                           TC       REQDATX
001452: 05,2542           32674                           CAF      VBSP2LD
001453: 05,2543           02314                           TC       UPDATVB    -1
001454: 05,2544           02254                           TC       REQDATY
001455: 05,2545           32675                           CAF      VBSP3LD
001456: 05,2546           02314                           TC       UPDATVB    -1
001457: 05,2547           02256                           TC       REQDATZ
001458:
001459:
001460: 05,2550           46306        PUTXYZ             CS       SIX                                   #  TEST THAT THE 3 DATA WORDS LOADED ARE
001461: 05,2551           02676                           TC       ALLDC/OC                              #  ALL DEC OR ALL OCT.
001462: 05,2552           00006                           EXTEND
001463: 05,2553           32076                           DCA      LODNNLOC                              #  SWITCH BANKS TO NOUN TABLE READING
001464: 05,2554           52006                           DXCH     Z                                     #  ROUTINE.
001465: 05,2555           37767                           CAF      ZERO                                  #  X COMP
001466: 05,2556           02762                           TC       PUTCOM
001467: 05,2557           50135                           INDEX    NOUNADD
001468: 05,2560           54000                           TS       0
001469: 05,2561           37763                           CAF      ONE                                   #  Y COMP
001470: 05,2562           02762                           TC       PUTCOM
001471: 05,2563           50135                           INDEX    NOUNADD
001472: 05,2564           54001                           TS       1
001473: 05,2565           37762                           CAF      TWO                                   #  Z COMP
001474: 05,2566           02762                           TC       PUTCOM
001475: 05,2567           50135                           INDEX    NOUNADD
001476: 05,2570           54002                           TS       2
001477: 05,2571           02663                           TC       LOADLV
001478:
001479: 05,2572           47763        ABLOAD             CS       ONE
001480: 05,2573           02376                           TC       COMPTEST
001481: 05,2574           32673                           CAF      VBSP1LD
001482: 05,2575           02314                           TC       UPDATVB    -1
001483: 05,2576           02252                           TC       REQDATX
001484: 05,2577           32674                           CAF      VBSP2LD
001485: 05,2600           02314                           TC       UPDATVB    -1
001486: 05,2601           02254                           TC       REQDATY
001487: 05,2602           47766        PUTXY              CS       FIVE                                  #  TEST THAT THE 2 DATA WORDS LOADED ARE
001488: 05,2603           02676                           TC       ALLDC/OC                              #  ALL DEC OR ALL OCT.
001489: 05,2604           00006                           EXTEND


001491: 05,2605           32076                           DCA      LODNNLOC                              #  SWITCH BANKS TO NOUN TABLE READING
001492: 05,2606           52006                           DXCH     Z                                     #  ROUTINE.
001493: 05,2607           37767                           CAF      ZERO                                  #  X COMP
001494: 05,2610           02762                           TC       PUTCOM
001495: 05,2611           50135                           INDEX    NOUNADD
001496: 05,2612           54000                           TS       0
001497: 05,2613           37763                           CAF      ONE                                   #  Y COMP
001498: 05,2614           02762                           TC       PUTCOM
001499: 05,2615           50135                           INDEX    NOUNADD
001500: 05,2616           54001                           TS       1
001501: 05,2617           02663                           TC       LOADLV
001502:
001503: 05,2620           02252        ALOAD              TC       REQDATX
001504: 05,2621           00006                           EXTEND
001505: 05,2622           32076                           DCA      LODNNLOC                              #  SWITCH BANKS TO NOUN TABLE READING
001506: 05,2623           52006                           DXCH     Z                                     #  ROUTINE.
001507: 05,2624           37767                           CAF      ZERO                                  #  X COMP
001508: 05,2625           02762                           TC       PUTCOM
001509: 05,2626           50135                           INDEX    NOUNADD
001510: 05,2627           54000                           TS       0
001511: 05,2630           02663                           TC       LOADLV
001512:
001513: 05,2631           47763        BLOAD              CS       ONE
001514: 05,2632           02376                           TC       COMPTEST
001515: 05,2633           37745                           CAF      BIT15                                 #  SET CLPASS FOR PASS0 ONLY
001516: 05,2634           54306                           TS       CLPASS
001517: 05,2635           02254                           TC       REQDATY
001518: 05,2636           00006                           EXTEND
001519: 05,2637           32076                           DCA      LODNNLOC                              #  SWITCH BANKS TO NOUN TABLE READING
001520: 05,2640           52006                           DXCH     Z                                     #  ROUTINE.
001521: 05,2641           37763                           CAF      ONE
001522: 05,2642           02762                           TC       PUTCOM
001523: 05,2643           50135                           INDEX    NOUNADD
001524: 05,2644           54001                           TS       1
001525: 05,2645           02663                           TC       LOADLV
001526:
001527: 05,2646           47762        CLOAD              CS       TWO
001528: 05,2647           02376                           TC       COMPTEST
001529: 05,2650           37745                           CAF      BIT15                                 #  SET CLPASS FOR PASS0 ONLY
001530: 05,2651           54306                           TS       CLPASS
001531: 05,2652           02256                           TC       REQDATZ
001532: 05,2653           00006                           EXTEND
001533: 05,2654           32076                           DCA      LODNNLOC                              #  SWITCH BANKS TO NOUN TABLE READING
001534: 05,2655           52006                           DXCH     Z                                     #  ROUTINE.
001535: 05,2656           37762                           CAF      TWO
001536: 05,2657           02762                           TC       PUTCOM
001537: 05,2660           50135                           INDEX    NOUNADD
001538: 05,2661           54002                           TS       2
001539: 05,2662           02663                           TC       LOADLV
001540:


001542: 05,2663           37767        LOADLV             CAF      ZERO
001543: 05,2664           54271                           TS       DECBRNCH
001544: 05,2665           47767                           CS       ZERO
001545: 05,2666           54305                           TS       LOADSTAT
001546: 05,2667           44565                           CS       VD1                                   #  TO BLOCK NUMERICAL CHARACTERS AND
001547: 05,2670           54270                           TS       DSPCOUNT                              #  CLEARS AFTER A COMPLETED LOAD
001548: 05,2671           05225                           TC       POSTJUMP                              #  AFTER COMPLETED LOAD, GO TO RECALTST
001549: 05,2672           11440                           CADR     RECALTST                              #  TO SEE IF THERE IS RECALL FROM ENDIDLE.
001550:
001551: 05,2673           00021        VBSP1LD            OCT      21                                    #  VB21 = ALOAD
001552: 05,2674           00022        VBSP2LD            OCT      22                                    #  VB22 = BLOAD
001553: 05,2675           00023        VBSP3LD            OCT      23                                    #  VB23 = CLOAD
001554:
001555: 05,2676           54107        ALLDC/OC           TS       DECOUNT                               #  TESTS THAT DATA WORDS LOADED ARE EITHER
001556: 05,2677           40271                           CS       DECBRNCH                              #  ALL DEC OR ALL OCT. ALARMS IF NOT.
001557: 05,2700           54021                           TS       SR
001558: 05,2701           40021                           CS       SR
001559: 05,2702           40021                           CS       SR                                    #  SHIFTED RIGHT 2
001560: 05,2703           10000                           CCS      A                                     #  DEC COMP BITS IN LOW 3
001561: 05,2704           12706                           TCF      +2                                    #  SOME ONES IN LOW 3
001562: 05,2705           00002                           TC       Q                                     #  ALL ZEROS. ALL OCTAL.  OK
001563: 05,2706           60107                           AD       DECOUNT                               #  DEC COMP = 7 FOR 3COMP, =6 FOR 2COMP
001564: 05,2707           00006                           EXTEND                                         #  (BUT IT HAS BEEN DECREMENTED BY CCS)
001565: 05,2710           12712                           BZF      +2                                    #  MUST MATCH 6 FOR 3COMP, 5 FOR 2COMP.
001566: 05,2711           02324                           TC       GODSPALM
001567: 05,2712           00002        GOQ                TC       Q                                     #  ALL REQUIRED ARE DEC.  OK
001568:
001569: 05,2713           56002        SFRUTNOR           XCH      Q                                     #  GETS SF ROUTINE NUMBER FOR NORMAL CASE
001570: 05,2714           54104                           TS       EXITEM                                #  CAN'T USE L FOR RETURN. TSTFORDP USES L.
001571: 05,2715           34557                           CAF      MID5
001572: 05,2716           70137                           MASK     NNTYPTEM
001573: 05,2717           04532                           TC       RIGHT5
001574: 05,2720           00104                           TC       EXITEM                                #  SF ROUTINE NUMBER IN A
001575:
001576: 05,2721           56002        SFRUTMIX           XCH      Q                                     #  GETS SF ROUTINE NUMBER FOR MIXED CASE
001577: 05,2722           54104                           TS       EXITEM
001578: 05,2723           50107                           INDEX    DECOUNT
001579: 05,2724           32753                           CAF      DISPLACE                              #  PUT TC GOQ, TC RIGHT5, OR TC LEFT5 IN L
001580: 05,2725           54001                           TS       L
001581: 05,2726           50107                           INDEX    DECOUNT
001582: 05,2727           34556                           CAF      LOW5                                  #  LOW5, MID5, OR HI5 IN A
001583: 05,2730           70143                           MASK     RUTMXTEM                              #  GET HI5, MID5, OR LOW5 OF RUTMXTAB ENTRY
001584: 05,2731           50001                           INDEX    L
001585: 05,2732           00000                           TC       0
001586:                                                                                                  #  DO TC GOQ(DECOUNT=0), DO TC RIGHT5(DECOUNT=1), DO TC LEFT5(DECOUNT=2).
001587: 05,2733           00104        SFRET1             TC       EXITEM                                #  SF ROUTINE NUMBER IN A
001588:


001590: 05,2734           56002        SFCONUM            XCH      Q                                     #  GETS 2X(SF CONSTANT NUMBER)
001591: 05,2735           54104                           TS       EXITEM
001592: 05,2736           50130                           INDEX    MIXBR
001593: 05,2737           02737                           TC       +0
001594: 05,2740           02756                           TC       CONUMNOR                              #  NORMAL NOUN
001595: 05,2741           50107                           INDEX    DECOUNT                               #  MIXED NOUN
001596: 05,2742           32753                           CAF      DISPLACE
001597: 05,2743           54001                           TS       L                                     #  PUT TC GOQ, TC RIGHT5, OR TC LEFT5 IN L
001598: 05,2744           50107                           INDEX    DECOUNT
001599: 05,2745           34556                           CAF      LOW5
001600: 05,2746           70137                           MASK     NNTYPTEM
001601: 05,2747           50001                           INDEX    L
001602: 05,2750           00000                           TC       0
001603:                                                                                                  #  DO TC GOQ(DECOUNT=0), DO TC RIGHT5(DECOUNT=1), DO TC LEFT5(DECOUNT=2).
001604: 05,2751           60000        SFRET              DOUBLE                                         #  2X(SF CONSTANT NUMBER ) IN A
001605: 05,2752           00104                           TC       EXITEM
001606:
001607: 05,2753           02712        DISPLACE           TC       GOQ
001608: 05,2754           04532                           TC       RIGHT5
001609: 05,2755           04541                           TC       LEFT5
001610:
001611: 05,2756           34556        CONUMNOR           CAF      LOW5                                  #  NORMAL NOUN ALWAYS GETS LOW 5 OF
001612: 05,2757           70137                           MASK     NNTYPTEM                              #  NNTYPTAB FOR SF CONUM.
001613: 05,2760           60000                           DOUBLE
001614: 05,2761           00104                           TC       EXITEM                                #  2X(SF CONSTANT NUMBER) IN A
001615:
001616:
001617: 05,2762           54107        PUTCOM             TS       DECOUNT
001618: 05,2763           56002                           XCH      Q
001619: 05,2764           54105                           TS       DECRET
001620: 05,2765           37767                           CAF      ZERO
001621: 05,2766           54111                           TS       OVFIND
001622: 05,2767           50107                           INDEX    DECOUNT
001623: 05,2770           56277                           XCH      XREGLP
001624: 05,2771           54145                           TS       MPAC       +1
001625: 05,2772           50107                           INDEX    DECOUNT
001626: 05,2773           56274                           XCH      XREG
001627: 05,2774           54144                           TS       MPAC
001628: 05,2775           50130                           INDEX    MIXBR
001629: 05,2776           02776                           TC       +0
001630: 05,2777           03023                           TC       PUTNORM                               #  NORMAL NOUN
001631:                                                                                                  #  IF MIXNOUN, PLACE ADDRESS FOR COMPONENT K INTO NOUNADD, SET EBANK BITS.
001632: 05,3000           50107                           INDEX    DECOUNT                               #  GET IDADDTAB ENTRY FOR COMPONENT K
001633: 05,3001           30140                           CA       IDAD1TEM                              #          OF NOUN.
001634: 05,3002           74563                           MASK     LOW11                                 #  (ECADR)SUBK FOR CURRENT COMP OF NOUN
001635: 05,3003           04513                           TC       SETNCADR                              #  ECADR INTO NOUNCADR. SETS EB, NOUNADD.
001636: 05,3004           00006                           EXTEND                                         #  C(NOUNADD) IN A UPON RETURN
001637: 05,3005           60107                           SU       DECOUNT                               #  PLACE (ESUBK)-K INTO NOUNADD
001638: 05,3006           54135                           TS       NOUNADD


001640: 05,3007           10271                           CCS      DECBRNCH
001641: 05,3010           03051                           TC       PUTDECSF                              #  + DEC
001642: 05,3011           02721                           TC       SFRUTMIX                              #  +0 OCTAL
001643: 05,3012           02236                           TC       DPTEST
001644: 05,3013           03040                           TC       PUTCOM2                               #  NO DP
001645:                                                                                                  #  TEST FOR DP SCALE FOR OCT LOAD. IF SO,
001646:                                                                                                  #  +0 INTO MAJOR PART. SET NOUNADD FOR
001647:                                                                                                  #  LOADING OCTAL WORD INTO MINOR PART.
001648: 05,3014           24135        PUTDPCOM           INCR     NOUNADD                               #  DP (ESUBK)-K+1  OR  E+1
001649: 05,3015           30135                           CA       NOUNADD                               #  NOUNADD NOW SET FOR MINOR PART
001650: 05,3016           26107                           ADS      DECOUNT                               #  (ESUBK)+1  OR  E+1  INTO DECOUNT
001651: 05,3017           37767                           CAF      ZERO                                  #  NOUNADD SET FOR MINOR PART
001652: 05,3020           50107                           INDEX    DECOUNT
001653: 05,3021           53777                           TS       0          -1                         #  ZERO MAJOR PART(ESUBK OR E)
001654: 05,3022           03040                           TC       PUTCOM2
001655:
001656: 05,3023           04521        PUTNORM            TC       SETNADD                               #  ECADR FROM NOUNCADR. SETS EB, NOUNADD.
001657: 05,3024           10271                           CCS      DECBRNCH
001658: 05,3025           03051                           TC       PUTDECSF                              #  + DEC
001659: 05,3026           02713                           TC       SFRUTNOR                              #  +0 OCTAL
001660: 05,3027           02236                           TC       DPTEST
001661: 05,3030           03034                           TC       PUTCOM2    -4                         #  NO DP
001662: 05,3031           37767                           CAF      ZERO                                  #  DP
001663: 05,3032           54107                           TS       DECOUNT
001664: 05,3033           03014                           TC       PUTDPCOM
001665:
001666: 05,3034           30136                           CA       NNADTEM
001667: 05,3035           67763                           AD       ONE                                   #  IF NNADTEM = -1, CHANNEL TO BE SPECIFIED
001668: 05,3036           00006                           EXTEND
001669: 05,3037           13044                           BZF      CHANLOAD
001670: 05,3040           56144        PUTCOM2            XCH      MPAC
001671: 05,3041           00105                           TC       DECRET
001672:
001673: 05,3042     0270                                  EBANK=   DSPCOUNT
001674: 05,3042           02045 46060  GTSFINLC           2CADR    GTSFIN
001675:
001676:
001677: 05,3044           56144        CHANLOAD           XCH      MPAC
001678: 05,3045           00006                           EXTEND
001679: 05,3046           50310                           INDEX    NOUNCADR
001680: 05,3047           01000                           WRITE    0
001681: 05,3050           02663                           TC       LOADLV
001682:
001683:                                                                                                  #  PUTDECSF FINDS MIXBR AND DECOUNT STILL SET FROM PUTCOM
001684:
001685: 05,3051           02734        PUTDECSF           TC       SFCONUM                               #  2X(SF CON NUMB) IN A
001686: 05,3052           54113                           TS       SFTEMP1


001688: 05,3053           00006                           EXTEND                                         #  SWITCH BANKS TO SF CONSTANT TABLE
001689: 05,3054           33043                           DCA      GTSFINLC                              #  READING ROUTINE.
001690: 05,3055           52006                           DXCH     Z                                     #  LOADS SFTEMP1, SFTEMP2.
001691: 05,3056           50130                           INDEX    MIXBR
001692: 05,3057           03057                           TC       +0
001693: 05,3060           03063                           TC       PUTSFNOR
001694: 05,3061           02721                           TC       SFRUTMIX
001695: 05,3062           03064                           TC       PUTDCSF2
001696: 05,3063           02713        PUTSFNOR           TC       SFRUTNOR
001697:
001698: 05,3064           50000        PUTDCSF2           INDEX    A
001699: 05,3065           33067                           CAF      SFINTABR
001700: 05,3066           05230                           TC       BANKJUMP                              #  SWITCH BANKS FOR EXPANSION ROOM
001701: 05,3067           11315        SFINTABR           CADR     DSPALARM                              #  ALARM IF DEC LOAD WITH OCTAL ONLY NOUN
001702: 05,3070           11021                           CADR     BINROUND
001703: 05,3071           10741                           CADR     DEGINSF
001704: 05,3072           11011                           CADR     ARTHINSF
001705: 05,3073           11041                           CADR     DPINSF
001706: 05,3074           11066                           CADR     DPINSF2
001707: 05,3075           11024                           CADR     OPTDEGIN
001708: 05,3076           11041                           CADR     DPINSF                                #  SAME AS ARITHDP1
001709: 05,3077                        ENDRUTIN           EQUALS
001710:
001711:
001712:                                                                                                  #  SCALE FACTORS FOR THOSE ROUTINES NEEDING THEM ARE AVAILABLE IN SFTEMP1.
001713:                                                                                                  #  ALL SFIN ROUTINES USE MPAC MPAC+1. LEAVE RESULT IN A. END WITH TC DECRET.
001714:
001715: 04,2741                                           SETLOC   ENDDPDEC   +1
001716:
001717:                                                                                                  #  DEGINSF APPLIES 1000/180 = 5.55555(10) = 5.43434(8)
001718:
001719: 04,2741           07155        DEGINSF            TC       DMP                                   #  SF ROUTINE FOR DEC DEGREES
001720: 04,2742           03004                           ADRES    DEGCON1                               #  MULT BY 5.5 5(10)X2EXP-3
001721: 04,2743           10145                           CCS      MPAC       +1                         #  THIS ROUNDS OFF MPAC+1 BEFORE SHIFT
001722: 04,2744           37751                           CAF      BIT11                                 #  LEFT 3, AND CAUSES 360.00 TO OF/UF
001723: 04,2745           02747                           TC       +2                                    #  WHEN SHIFTED LEFT AND ALARM.
001724: 04,2746           47751                           CS       BIT11
001725: 04,2747           60145                           AD       MPAC       +1
001726: 04,2750           03104                           TC       2ROUND     +2
001727: 04,2751           04611                           TC       TPSL1                                 #  LEFT 1
001728: 04,2752           04611        DEGINSF2           TC       TPSL1                                 #  LEFT 2
001729: 04,2753           03113                           TC       TESTOFUF
001730: 04,2754           04611                           TC       TPSL1                                 #  RETURNS IF NO OF/UF (LEFT3)
001731: 04,2755           10144                           CCS      MPAC
001732: 04,2756           02762                           TC       SIGNFIX                               #  IF +, GO TO SIGNFIX
001733: 04,2757           02762                           TC       SIGNFIX                               #  IF +0, GO TO SIGNFIX
001734: 04,2760           40000                           COM                                            #  IF -, USE -MAGNITUDE +1


001736: 04,2761           54144                           TS       MPAC                                  #  IF -0, USE +0
001737: 04,2762           10111        SIGNFIX            CCS      OVFIND
001738: 04,2763           03000                           TC       SGNTO1                                #  IF OVERFLOW
001739: 04,2764           02774                           TC       ENDSCALE                              #  NO OVERFLOW/UNDERFLOW
001740: 04,2765           10144                           CCS      MPAC                                  #  IF UF FORCE SIGN TO 0 EXCEPT -180
001741: 04,2766           04736                           TC       CCSHOLE
001742: 04,2767           02776                           TC       NEG180
001743: 04,2770           02771                           TC       +1
001744: 04,2771           56144                           XCH      MPAC
001745: 04,2772           77743                           MASK     POSMAX
001746: 04,2773           54144                           TS       MPAC
001747: 04,2774           05225        ENDSCALE           TC       POSTJUMP
001748: 04,2775           13040                           CADR     PUTCOM2
001749:
001750: 04,2776           47743        NEG180             CS       POSMAX
001751: 04,2777           02773                           TC       ENDSCALE   -1
001752:
001753: 04,3000           40144        SGNTO1             CS       MPAC                                  #  IF OF FORCE SIGN TO 1
001754: 04,3001           77743                           MASK     POSMAX
001755: 04,3002           40000                           CS       A
001756: 04,3003           02773                           TC       ENDSCALE   -1
001757:
001758: 04,3004           26161 30707  DEGCON1            2DEC     5.555555555 B-3
001759:
001760: 04,3006           21616 07071  DEGCON2            2DEC     2.222222222 B-2
001761:
001762: 04,3010           71527        NEG.2              OCT      -06250                                #  = .197753906  I.E. THE BIAS SCALED
001763:
001764: 04,3011           07155        ARTHINSF           TC       DMP                                   #  SCALES MPAC, +1 BY SFTEMP1, SFTEMP2.
001765: 04,3012           00113                           ADRES    SFTEMP1                               #  ASSUMES POINT BETWEEN HI AND LO PARTS
001766: 04,3013           56146                           XCH      MPAC       +2                         #  OF SFCON. SHIFTS RESULTS LEFT BY 14.
001767: 04,3014           56145                           XCH      MPAC       +1                         #  (BY TAKING RESULTS FROM MPAC+1, MPAC+2)
001768: 04,3015           56144                           XCH      MPAC
001769: 04,3016           00006                           EXTEND
001770: 04,3017           13021                           BZF      BINROUND
001771: 04,3020           03315                           TC       DSPALARM                              #  TOO LARGE A LOAD
001772: 04,3021           03102        BINROUND           TC       2ROUND
001773: 04,3022           03113                           TC       TESTOFUF
001774: 04,3023           02774                           TC       ENDSCALE                              #  RETURNS IF NO OF/UF
001775:
001776:
001777: 04,3024           10144        OPTDEGIN           CCS      MPAC                                  #  OPTICS SCALING ROUTINE
001778: 04,3025           03031                           TC       +4
001779: 04,3026           03031                           TC       +3
001780: 04,3027           03315                           TC       DSPALARM                              #  REJECT NEGATIVE INPUT
001781: 04,3030           03315                           TC       DSPALARM                              #         DITTO
001782: 04,3031           33010        OPDEGIN2           CAF      NEG.2                                 #  RANGE IS 90 DEG
001783: 04,3032           26144                           ADS      MPAC                                  #  SUBTRACT BIAS
001784: 04,3033           07155                           TC       DMP                                   #  MULT BY 100 / 45 B-2
001785:


001787: 04,3034           03006                           ADRES    DEGCON2
001788: 04,3035           37750                           CAF      BIT12                                 #  ROUND AS IN DEGINSF
001789: 04,3036           60145                           AD       MPAC       +1
001790: 04,3037           03104                           TC       2ROUND     +2
001791: 04,3040           02752                           TC       DEGINSF2
001792:
001793: 04,3041           07155        DPINSF             TC       DMP                                   #  SCALES MPAC, MPAC +1 BY SFTEMP1,
001794: 04,3042           00113                           ADRES    SFTEMP1                               #  SFTEMP.  STORES LOW PART OF RESULT
001795: 04,3043           56146                           XCH      MPAC       +2                         #  IN (E SUBK) +1 OR E+1
001796: 04,3044           60000                           DOUBLE
001797: 04,3045           54146                           TS       MPAC       +2
001798: 04,3046           37767                           CAF      ZERO
001799: 04,3047           60145                           AD       MPAC       +1
001800: 04,3050           03104                           TC       2ROUND     +2
001801: 04,3051           03113                           TC       TESTOFUF
001802: 04,3052           50130                           INDEX    MIXBR                                 #  RETURNS IF NO OF/UF
001803: 04,3053           03053                           TC       +0
001804: 04,3054           03064                           TC       DPINORM
001805: 04,3055           30107                           CA       DECOUNT                               #  MIXEDNOUN
001806: 04,3056           60135        DPINCOM            AD       NOUNADD                               #      MIXED                 NORMAL
001807: 04,3057           54002                           TS       Q                                     #    E SUBK              E
001808: 04,3060           56145                           XCH      MPAC       +1
001809: 04,3061           50002                           INDEX    Q
001810: 04,3062           54001                           TS       1                                     #  PLACE LOW PART IN
001811: 04,3063           02774                           TC       ENDSCALE                              #  (E SUBK) +1    MIXED
001812: 04,3064           37767        DPINORM            CAF      ZERO                                  #  E +1          NORMAL
001813: 04,3065           03056                           TC       DPINCOM
001814:
001815:
001816: 04,3066           07155        DPINSF2            TC       DMP                                   #  ASSUMES POINT BETWEEN BITS 7-8 OF HIGH
001817: 04,3067           00113                           ADRES    SFTEMP1                               #  PART OF SF CONST. DPINSF2 SHIFTS RESULTS
001818: 04,3070           03072                           TC       TPLEFT7                               #  LEFT BY 7, ROUNDS MPAC+2 INTO MPAC+1.
001819: 04,3071           03043                           TC       DPINSF     +2
001820:
001821:
001822: 04,3072           56002        TPLEFT7            XCH      Q                                     #  OPERATES ON MPAC, MPAC+1, MPAC+2
001823: 04,3073           54114                           TS       SFTEMP2                               #  CANT USE L FOR RETURN. TPSL1 USES L.
001824: 04,3074           36306                           CAF      SIX
001825: 04,3075           54113        LEFT7COM           TS       SFTEMP1
001826: 04,3076           04611                           TC       TPSL1
001827: 04,3077           10113                           CCS      SFTEMP1
001828: 04,3100           03075                           TC       LEFT7COM
001829: 04,3101           00114                           TC       SFTEMP2
001830:
001831: 04,3102           56145        2ROUND             XCH      MPAC       +1
001832: 04,3103           60000                           DOUBLE


001834: 04,3104           54145                           TS       MPAC       +1
001835: 04,3105           00002                           TC       Q                                     #  IF MPAC+1 DOES NOT OF/UF
001836: 04,3106           60144                           AD       MPAC
001837: 04,3107           54144                           TS       MPAC
001838: 04,3110           00002                           TC       Q                                     #  IF MPAC DOES NOT OF/UF
001839: 04,3111           54111                           TS       OVFIND
001840: 04,3112           00002        2RNDEND            TC       Q
001841:
001842: 04,3113           10111        TESTOFUF           CCS      OVFIND                                #  RETURNS IF NO OF/UF
001843: 04,3114           03315                           TC       DSPALARM                              #  OF
001844: 04,3115           00002                           TC       Q
001845: 04,3116           03315                           TC       DSPALARM                              #  UF
001846:


001848:                                                                                                  #  MONITOR ALLOWS OTHER KEYBOARD ACTIVITY. IT IS ENDED BY VERB TERMINATE,
001849:                                                                                                  #  ANY NVSUB CALL THAT PASSES THE DSPLOCK, OR OTHER MONITOR.
001850:
001851:                                                                                                  #  MONITOR ACTION IS SUSPENDED, BUT NOT ENDED, BY ANY KEYBOARD ACTION,
001852:                                                                                                  #  EXCEPT ERROR LIGHT RESET. IT BEGINS AGAIN WHEN KEY RELEASE IS PERFORMED.
001853:                                                                                                  #  MONITOR SAVES THE NOUN AND APPROPRIATE DISPLAY VERB IN MONSAVE. IT SAVES
001854:                                                                                                  #  NOUNCADR IN MONSAVE1, IF NOUN = MACHINE CADR TO BE SPECIFIED. BIT 15 OF
001855:                                                                                                  #  MONSAVE1 IS THE KILL MONITOR SIGNAL (KILLER BIT).
001856:
001857:                                                                                                  #  MONSAVE INDICATES IF MONITOR IS ON (+=ON, +0=OFF)
001858:                                                                                                  #  IF MONSAVE IS +, MONITOR ENTERS NO REQUEST, BUT TURNS KILLER BIT OFF.
001859:                                                                                                  #  IF MONSAVE IS +0, MONITOR ENTERS REQUEST AND TURNS KILLER BIT OFF.
001860:
001861:                                                                                                  #  NVSUB AND VB=TERMINATE TURN KILL MONITOR BIT ON.
001862:
001863:                                                                                                  #  IF KILLER BIT IS ON, MONREQ ENTERS NO FURTHER REQUESTS, ZEROS MONSAVE
001864:                                                                                                  #  AND MONSAVE1 (TURNING OFF KILLER BIT).
001865:
001866:                                                                                                  #  MONITOR DOESNT TEST FOR MATBS SINCE NVSUB CAN HANDLE INTERNAL MATBS NOW.
001867: 05,3077                                           SETLOC   ENDRUTIN
001868:
001869: 05,3077           47745        MONITOR            CS       BIT15
001870: 05,3100           70310                           MASK     NOUNCADR
001871: 05,3101           54145        MONIT1             TS       MPAC       +1                         #  TEMP STORAGE
001872: 05,3102           33401                           CAF      LOW6
001873: 05,3103           70272                           MASK     VERBREG
001874: 05,3104           04541                           TC       LEFT5
001875: 05,3105           54022                           TS       CYL
001876: 05,3106           56022                           XCH      CYL
001877: 05,3107           60273                           AD       NOUNREG
001878: 05,3110           54144                           TS       MPAC                                  #  TEMP STORAGE
001879: 05,3111           40330                           CS       GRABLOCK                              #  NEITHER CASE SEARCHES LIST.
001880: 05,3112           67762                           AD       TWO
001881: 05,3113           10000                           CCS      A
001882: 05,3114           04711                           TC       RELDSP1                               #  GRABLOCK=0,1. +0 INTO DSPLOCK AND
001883: 05,3115           03121                           TC       +4                                    #  TURN OFF KEY RLSE LIGHT.
001884: 05,3116           04736                           TC       CCSHOLE
001885: 05,3117           37767                           CAF      ZERO                                  #  GRABLOCK=2. +0 INTO DSPLOCK AND
001886: 05,3120           54303                           TS       DSPLOCK                               #  LEAVE KEY RLSE LIGHT ALONE
001887: 05,3121           00004                           INHINT
001888: 05,3122           10311                           CCS      MONSAVE
001889: 05,3123           03130                           TC       +5                                    #  IF MONSAVE WAS +, NO REQUEST
001890: 05,3124           37763                           CAF      ONE                                   #  IF MONSAVE WAS 0, REQUEST MONREQ
001891: 05,3125           05663                           TC       WAITLIST
001892: 05,3126     0270                                  EBANK=   DSPCOUNT
001893: 05,3126           03134 12060                     2CADR    MONREQ
001894:
001895: 05,3130           52145                           DXCH     MPAC                                  #  PLACE MONITOR VERB AND NOUN INTO MONSAVE


001897: 05,3131           52312                           DXCH     MONSAVE                               #  ZERO THE KILL MONITOR BIT
001898: 05,3132           00003                           RELINT
001899: 05,3133           00126                           TC       ENTRET
001900:
001901:
001902: 05,3134           04605        MONREQ             TC       LODSAMPT                              #  CALLED BY WAITLIST
001903: 05,3135           10312                           CCS      MONSAVE1                              #  TIME IS SNATCHED N RUPT FOR NOUN 65
001904: 05,3136           03142                           TC       +4                                    #  IF KILLER BIT = 0, ENTER REQUESTS
001905: 05,3137           03142                           TC       +3                                    #  IF KILLER BIT = 0, ENTER REQUESTS
001906: 05,3140           03153                           TC       KILLMON                               #  IF KILLER BIT = 1, NO REQUESTS.
001907: 05,3141           03153                           TC       KILLMON                               #  IF KILLER BIT = 1, NO REQUESTS.
001908: 05,3142           33157                           CAF      MONDEL
001909: 05,3143           05663                           TC       WAITLIST                              #  ENTER WAITLIST REQUEST FOR MONREQ
001910: 05,3144     0270                                  EBANK=   DSPCOUNT
001911: 05,3144           03134 12060                     2CADR    MONREQ
001912:
001913: 05,3146           35210                           CAF      CHRPRIO
001914: 05,3147           05505                           TC       NOVAC                                 #  ENTER EXEC REQUEST FOR MONDO
001915: 05,3150     0270                                  EBANK=   DSPCOUNT
001916: 05,3150           03160 12060                     2CADR    MONDO
001917:
001918: 05,3152           05727                           TC       TASKOVER
001919:
001920: 05,3153           37767        KILLMON            CAF      ZERO                                  #  ZERO MONSAVE AND TURN KILLER BIT OFF
001921: 05,3154           54311                           TS       MONSAVE
001922: 05,3155           54312                           TS       MONSAVE1                              #  TURN OFF KILL MONITOR BIT.
001923: 05,3156           05727                           TC       TASKOVER
001924:
001925:
001926: 05,3157           00144        MONDEL             OCT      144                                   #  FOR 1 SEC MONITOR INTERVALS
001927:
001928:
001929: 05,3160           10312        MONDO              CCS      MONSAVE1                              #  CALLED BY EXEC
001930: 05,3161           03165                           TC       +4                                    #  IF KILLER BIT = 0, CONTINUE
001931: 05,3162           03165                           TC       +3                                    #  IF KILLER BIT = 0, CONTINUE
001932: 05,3163           05567                           TC       ENDOFJOB                              #  IN CASE TERMINATE CAME SINCE LAST MONREQ
001933: 05,3164           05567                           TC       ENDOFJOB                              #  IN CASE TERMINATE CAME SINCE LAST MONREQ
001934: 05,3165           10303                           CCS      DSPLOCK
001935: 05,3166           03212                           TC       MONBUSY                               #  NVSUB IS BUSY
001936: 05,3167           33401                           CAF      LOW6                                  #  NVSUB IS AVAILABLE
001937: 05,3170           70311                           MASK     MONSAVE
001938: 05,3171           54113                           TS       NVTEMP
001939: 05,3172           04460                           TC       NVSUBMON                              #  PLACE NOUN INTO NOUNREG AND DISPLAY IT
001940: 05,3173           05567                           TC       ENDOFJOB                              #  IN CASE OF ALARM DURING DISPLAY
001941: 05,3174           33210                           CAF      MONMASK
001942: 05,3175           70311                           MASK     MONSAVE                               #  CHANGE MONITOR VERB TO DISPLAY VERB
001943: 05,3176           04532                           TC       RIGHT5


001945: 05,3177           54020                           TS       CYR
001946: 05,3200           56020                           XCH      CYR
001947: 05,3201           54272                           TS       VERBREG
001948: 05,3202           33211                           CAF      MONBACK                               #  SET RETURN TO PASTEVB AFTER DATA DISPLAY
001949: 05,3203           54126                           TS       ENTRET
001950: 05,3204           47745                           CS       BIT15
001951: 05,3205           70312                           MASK     MONSAVE1                              #  PUT ECADR INTO MPAC +2.  INTMCTBS WILL
001952: 05,3206           54146                           TS       MPAC       +2                         #  DISPLAY IT AND SET NOUNCADR, NOUNADD,
001953: 05,3207           02037        ENDMONDO           TC       TESTNN                                #  EBANK.
001954:
001955:    4435                                           SETLOC   ENDRMODF
001956:
001957:    4435           34443        PASTEVB            CAF      MIDSIX
001958:    4436           70311                           MASK     MONSAVE
001959:    4437           54113                           TS       NVTEMP                                #  PLACE MONITOR VERB INTO VERBREG AND
001960:    4440           04460                           TC       NVSUBMON                              #       DISPLAY IT.
001961:    4441           04442                           TC       +1                                    #  IN CASE OF ALARM DURING DISPLAY
001962:    4442           05567        ENDPASTE           TC       ENDOFJOB
001963:
001964:    4443           07700        MIDSIX             OCT      07700
001965:
001966: 05,3210                                           SETLOC   ENDMONDO   +1
001967: 05,3210           00700        MONMASK            OCT      700
001968: 05,3211           04435        MONBACK            ADRES    PASTEVB
001969:
001970: 05,3212           04601        MONBUSY            TC       RELDSPON                              #  TURN KEY RELEASE LIGHT
001971: 05,3213           05567                           TC       ENDOFJOB
001972:
001973:
001974:                                                                                                  #  DSPFMEM IS USED TO DISPLAY (IN OCTAL) ANY FIXED REGISTER.
001975:                                                                                                  #  IT IS USED WITH NOUN = MACHINE CADR TO BE SPECIFIED. THE FCADR OF THE
001976:                                                                                                  #  DESIRED LOCATION IS THEN PUNCHED IN. IT HANDLES F/F (FCADR 4000-7777)
001977:
001978: 05,3214           34527        DSPFMEM            CAF      R1D1                                  #  IF F/F, DATACALL USES BANK 02 OR 03.
001979: 05,3215           54270                           TS       DSPCOUNT
001980: 05,3216           30310                           CA       NOUNCADR                              #  ORIGINAL FCADR LOADED STILL IN NOUNCADR.
001981: 05,3217           05241                           TC       DATACALL
001982: 05,3220           03222                           TC       DSPOCTWD
001983: 05,3221           05567        ENDSPF             TC       ENDOFJOB
001984:


001986:                                                                                                  #   DSPDECWD CONVERTS C(MPAC, MPAC+1) INTO A SIGN AND 5 CHAR DECIMAL
001987:                                                                                                  #  STARTING IN LOC SPECIFIED IN DSPCOUNT. IT ROUNDS BY 5 EXP-6.
001988:
001989: 04,3117                                           SETLOC   TESTOFUF   +4
001990:
001991: 04,3117           56002        DSPDECWD           XCH      Q
001992: 04,3120           54105                           TS       WDRET
001993: 04,3121           10144                           CCS      MPAC
001994: 04,3122           03131                           TC       +7
001995: 04,3123           03131                           TC       +6
001996: 04,3124           67763                           AD       ONE
001997: 04,3125           54144                           TS       MPAC
001998: 04,3126           02321                           TC       -ON
001999: 04,3127           40145                           CS       MPAC       +1
002000: 04,3130           03133                           TC       +3
002001: 04,3131           02301                           TC       +ON
002002: 04,3132           56145                           XCH      MPAC       +1
002003: 04,3133           63172                           AD       DECROUND
002004: 04,3134           54145                           TS       MPAC       +1
002005: 04,3135           37767                           CAF      ZERO
002006: 04,3136           60144                           AD       MPAC
002007: 04,3137           54144                           TS       MPAC
002008: 04,3140           03144                           TC       +4
002009: 04,3141           37743                           CAF      POSMAX
002010: 04,3142           54144                           TS       MPAC
002011: 04,3143           54145                           TS       MPAC       +1
002012: 04,3144           37761                           CAF      FOUR
002013: 04,3145           54127        DSPDCWD1           TS       WDCNT
002014: 04,3146           34570                           CAF      BINCON
002015: 04,3147           07357                           TC       SHORTMP
002016: 04,3150           50144        TRACE1             INDEX    MPAC
002017: 04,3151           34300                           CAF      RELTAB
002018: 04,3152           74556                           MASK     LOW5
002019: 04,3153           54114                           TS       CODE
002020: 04,3154           37767                           CAF      ZERO
002021: 04,3155           56146                           XCH      MPAC       +2
002022: 04,3156           56145                           XCH      MPAC       +1
002023: 04,3157           54144                           TS       MPAC
002024: 04,3160           56270                           XCH      DSPCOUNT
002025: 04,3161           54133        TRACE1S            TS       COUNT
002026: 04,3162           10000                           CCS      A                                     #  DECREMENT DSPCOUNT EXCEPT AT +0
002027: 04,3163           54270                           TS       DSPCOUNT
002028: 04,3164           03217                           TC       DSPIN
002029: 04,3165           10127                           CCS      WDCNT
002030: 04,3166           03145                           TC       DSPDCWD1
002031: 04,3167           44565                           CS       VD1
002032: 04,3170           54270                           TS       DSPCOUNT
002033: 04,3171           00105                           TC       WDRET
002034:
002035: 04,3172           02476        DECROUND           OCT      02476
002036:


002038:                                                                                                  #  DSP2DEC CONVERTS C(MPAC) AND C(MPAC+1) INTO A SIGN AND 10 CHAR DECIMAL
002039:                                                                                                  #  STARTING IN THE LOC SPECIFIED IN DSPCOUNT.
002040:
002041: 04,3173           56002        DSP2DEC            XCH      Q
002042: 04,3174           54105                           TS       WDRET
002043: 04,3175           37767                           CAF      ZERO
002044: 04,3176           54114                           TS       CODE
002045: 04,3177           36311                           CAF      THREE
002046: 04,3200           03301                           TC       11DSPIN                               #  -R2 OFF
002047: 04,3201           37761                           CAF      FOUR
002048: 04,3202           03301                           TC       11DSPIN                               #  +R2 OFF
002049: 04,3203           10144                           CCS      MPAC
002050: 04,3204           03214                           TC       +8D
002051: 04,3205           03214                           TC       +7
002052: 04,3206           67763                           AD       ONE
002053: 04,3207           54144                           TS       MPAC
002054: 04,3210           02321                           TC       -ON
002055: 04,3211           40145                           CS       MPAC       +1
002056: 04,3212           54145                           TS       MPAC       +1
002057: 04,3213           03215                           TC       +2
002058: 04,3214           02301                           TC       +ON
002059: 04,3215           34530                           CAF      R2D1
002060: 04,3216           03145        END2DEC            TC       DSPDCWD1
002061:
002062:
002063: 05,3222                                           SETLOC   DSPFMEM    +6
002064:                                                                                                  #  DSPOCTWD DISPLAYS C(A) UPON ENTRY AS A 5 CHAR OCT STARTING IN THE DSP
002065:                                                                                                  #  CHAR SPECIFIED IN DSPCOUNT. IT STOPS AFTER 5 CHAR HAVE BEEN DISPLAYED.
002066:
002067: 05,3222           54022        DSPOCTWD           TS       CYL
002068: 05,3223           56002                           XCH      Q
002069: 05,3224           54105                           TS       WDRET                                 #  MUST USE SAME RETURN AS DSP2BIT.
002070: 05,3225           37746                           CAF      BIT14                                 #  TO BLANK SIGNS
002071: 05,3226           26270                           ADS      DSPCOUNT
002072: 05,3227           37761                           CAF      FOUR
002073: 05,3230           54127        WDAGAIN            TS       WDCNT
002074: 05,3231           40022                           CS       CYL
002075: 05,3232           40022                           CS       CYL
002076: 05,3233           40022                           CS       CYL
002077: 05,3234           40000                           CS       A
002078: 05,3235           77765                           MASK     DSPMSK
002079: 05,3236           50000                           INDEX    A
002080: 05,3237           34300                           CAF      RELTAB
002081: 05,3240           74556                           MASK     LOW5
002082: 05,3241           54114                           TS       CODE
002083: 05,3242           56270                           XCH      DSPCOUNT
002084: 05,3243           54133                           TS       COUNT
002085: 05,3244           10000                           CCS      A                                     #  DECREMENT DSPCOUNT EXCEPT AT +0
002086: 05,3245           54270                           TS       DSPCOUNT


002088: 05,3246           05225                           TC       POSTJUMP
002089: 05,3247           11307                           CADR     DSPOCTIN
002090: 05,3250           10127        OCTBACK            CCS      WDCNT
002091: 05,3251           03230                           TC       WDAGAIN                               #  +
002092: 05,3252           44565        DSPLV              CS       VD1                                   #  TO BLOCK NUMERICAL CHARACTERS, CLEARS,
002093: 05,3253           54270                           TS       DSPCOUNT                              #  AND SIGNS AFTER A COMPLETED DISPLAY.
002094: 05,3254           00105                           TC       WDRET
002095:
002096: 05,3255     7765               DSPMSK             =        SEVEN
002097:
002098:
002099:                                                                                                  #  DSP2BIT DISPLAYS C(A) UPON ENTRY AS A 2 CHAR OCT BEGINNING IN THE DSP
002100:                                                                                                  #  LOC SPECIFIED IN DSPCOUNT BY PRE CYCLING RIGHT C(A) AND USING THE LOGIC
002101:                                                                                                  #  OF THE 5 CHAR OCTAL DISPLAY
002102:
002103: 05,3255           54020        DSP2BIT            TS       CYR
002104: 05,3256           56002                           XCH      Q
002105: 05,3257           54105                           TS       WDRET                                 #  CANT USE L AS RETURN. UPDATNN USES L.
002106: 05,3260           37763                           CAF      ONE
002107: 05,3261           54127                           TS       WDCNT
002108: 05,3262           40020                           CS       CYR
002109: 05,3263           40020                           CS       CYR
002110: 05,3264           56020                           XCH      CYR
002111: 05,3265           54022                           TS       CYL
002112: 05,3266           03235                           TC       WDAGAIN    +5
002113:
002114:
002115:                                                                                                  #  FOR DSPIN PLACE 0/25 OCT INTO COUNT, 5 BIT RELAY CODE INTO CODE. BOTH
002116:                                                                                                  #  ARE DESTROYED. IF BIT14 OF COUNT IS 1, SIGN IS BLANKED WITH LEFT CHAR.
002117:                                                                                                  #  FOR DSPIN1 PLACE 0,1 INTO BIT11 OF CODE, 2 INTO COUNT, REL ADDRESS OF
002118:                                                                                                  #  DSPTAB ENTRY INTO DSREL.
002119:
002120: 04,3217                                           SETLOC   END2DEC    +1
002121:
002122: 04,3217           56002        DSPIN              XCH      Q                                     #  CANT USE L FOR RETURN, SINCE MANYOF THE
002123: 04,3220           54104                           TS       DSEXIT                                #  ROTINE CALLING DSPIN USE L AS RETURN.
002124: 04,3221           34556                           CAF      LOW5
002125: 04,3222           70133                           MASK     COUNT
002126: 04,3223           54021                           TS       SR
002127: 04,3224           56021                           XCH      SR
002128: 04,3225           54131                           TS       DSREL
002129: 04,3226           37763                           CAF      BIT1
002130: 04,3227           70133                           MASK     COUNT
002131: 04,3230           10000                           CCS      A
002132: 04,3231           03233                           TC       +2                                    #  LEFT IF COUNT IS ODD
002133: 04,3232           03243                           TC       DSPIN1     -1                         #  RIGHT IF COUNT IS EVEN
002134: 04,3233           56114                           XCH      CODE
002135: 04,3234           04550                           TC       SLEFT5                                #  DOES NOT USE CYL


002137: 04,3235           54114                           TS       CODE
002138: 04,3236           37746                           CAF      BIT14
002139: 04,3237           70133                           MASK     COUNT
002140: 04,3240           10000                           CCS      A
002141: 04,3241           37762                           CAF      TWO                                   #  BIT14 = 1, BLANK SIGN
002142: 04,3242           67763                           AD       ONE                                   #  BIT14 = 0, LEAVE SIGN ALONE
002143: 04,3243           54133                           TS       COUNT                                 #  +0 INTO COUNT FOR RIGHT
002144:                                                                                                  #  +1 INTO COUNT FOR LEFT (SIGN LEFT ALONE)
002145:                                                                                                  #  +3 INTO COUNT FOR LEFT (TO BLANK SIGN)
002146: 04,3244           00004        DSPIN1             INHINT
002147: 04,3245           50131                           INDEX    DSREL
002148: 04,3246           10313                           CCS      DSPTAB
002149: 04,3247           03251                           TC       +2                                    #  IF +
002150: 04,3250           04736                           TC       CCSHOLE
002151: 04,3251           67763                           AD       ONE                                   #  IF -
002152: 04,3252           54132                           TS       DSMAG
002153: 04,3253           50133                           INDEX    COUNT
002154: 04,3254           73275                           MASK     DSMSK
002155: 04,3255           00006                           EXTEND
002156: 04,3256           60114                           SU       CODE
002157: 04,3257           00006                           EXTEND
002158: 04,3260           13273                           BZF      DSLV                                  #  SAME
002159: 04,3261           50133        DFRNT              INDEX    COUNT
002160: 04,3262           43275                           CS       DSMSK                                 #  MASK WITH 77740, 76037, 76777, OR 74037
002161: 04,3263           70132                           MASK     DSMAG
002162: 04,3264           60114                           AD       CODE
002163: 04,3265           40000                           CS       A
002164: 04,3266           50131                           INDEX    DSREL
002165: 04,3267           56313                           XCH      DSPTAB
002166: 04,3270           00006                           EXTEND
002167: 04,3271           63273                           BZMF     DSLV                                  #  DSPTAB ENTRY WAS -
002168: 04,3272           24307                           INCR     NOUT                                  #  DSPTAB ENTRY WAS +
002169: 04,3273           00003        DSLV               RELINT
002170: 04,3274           00104                           TC       DSEXIT
002171:
002172: 04,3275           00037        DSMSK              OCT      37
002173: 04,3276           01740                           OCT      1740
002174: 04,3277           02000                           OCT      2000
002175: 04,3300           03740                           OCT      3740
002176:
002177:
002178:                                                                                                  #  FOR 11DSPIN, PUT REL ADDRESS OF DSPTAB ENTRY INTO A, 1 IN BIT11 OR 0 IN
002179:                                                                                                  #  BIT11 OF CODE.
002180:
002181: 04,3301           54131        11DSPIN            TS       DSREL
002182: 04,3302           37762                           CAF      TWO
002183: 04,3303           54133                           TS       COUNT
002184: 04,3304           56002                           XCH      Q                                     #  MUST USE SAME RETURN AS DSPIN
002185: 04,3305           54104                           TS       DSEXIT


002187: 04,3306           03244                           TC       DSPIN1
002188:
002189:
002190: 04,3307           03217        DSPOCTIN           TC       DSPIN                                 #  SO DSPOCTWD DOESNT USE SWCALL
002191: 04,3310           33312                           CAF      +2
002192: 04,3311           05230                           TC       BANKJUMP
002193: 04,3312           13250        ENDSPOCT           CADR     OCTBACK
002194:
002195:
002196:                                                                                                  #  DSPALARM FINDS TC NVSUBEND IN ENTRET FOR NVSUB INITIATED ROUTINES
002197:                                                                                                  #  ABORT WITH 01501.
002198:                                                                                                  #  DSPALARM FINDS TC ENDOFJOB IN ENTRET FOR KEYBOARD INITIATED ROUTINES.
002199:                                                                                                  #  DC TC ENTRET.
002200:
002201: 04,3313           34505        CHARALRM           CAF      ENDINST                               #  ALARMS WHICH MUST DO ENDOFJOBS COME
002202: 04,3314           54126                           TS       ENTRET                                #  HERE. ALLOWS ENTRET TO BE TEMP ERASABLE
002203:
002204: 04,3315           04571        DSPALARM           TC       FALTON                                #  TURN ON OPERATOR ERROR LIGHT
002205: 04,3316           43325                           CS       NVSBENDL
002206: 04,3317           60126                           AD       ENTEXIT
002207: 04,3320           00006                           EXTEND
002208: 04,3321           13323                           BZF      +2                                    #  NVSUB INITIATED. ABORT
002209: 04,3322           00126                           TC       ENTEXIT                               #  NOT NVSUB INITIATED.
002210: 04,3323           06000                           TC       ABORT
002211: 04,3324           01501                           OCT      01501
002212: 04,3325           04464        NVSBENDL           TC       NVSUBEND
002213:
002214:
002215:                                                                                                  #  MMCHANG USES NOUN DISPLAY UNTIL ENTER.  THEN IT USES MODE DISP.
002216:                                                                                                  #  IT GOES TO MODROUT WITH THE NEW M M CODE IN A, BUT NOT DISPLAYED IN
002217:                                                                                                  #  M M LIGHTS.
002218:
002219: 05,3267                                           SETLOC   DSP2BIT    +10D
002220:
002221: 05,3267           03302        MMCHANG            TC       REQMM
002222: 05,3270           37767                           CAF      ZERO
002223: 05,3271           56273                           XCH      NOUNREG
002224: 05,3272           54144                           TS       MPAC
002225: 05,3273           34566                           CAF      ND1
002226: 05,3274           54270                           TS       DSPCOUNT
002227: 05,3275           05206                           TC       BANKCALL
002228: 05,3276           10557                           CADR     2BLANK
002229: 05,3277           30144                           CA       MPAC
002230: 05,3300           05225                           TC       POSTJUMP
002231: 05,3301           11315                           CADR     MODROUTB                              #  GO THRU STANDARD LOC.
002232:


002234: 05,3302  04,3315               MODROUTB           =        DSPALARM                              #  **FIX LATER**
002235: 05,3302           40002        REQMM              CS       Q
002236: 05,3303           54304                           TS       REQRET
002237: 05,3304           34566                           CAF      ND1
002238: 05,3305           54270                           TS       DSPCOUNT
002239: 05,3306           37767                           CAF      ZERO
002240: 05,3307           54273                           TS       NOUNREG
002241: 05,3310           05206                           TC       BANKCALL
002242: 05,3311           10557                           CADR     2BLANK
002243: 05,3312           04622                           TC       FLASHON
002244: 05,3313           00126                           TC       ENTEXIT
002245:
002246:
002247:                                                                                                  #  VBRQEXEC ENTERS REQUEST TO EXEC     FOR ANY ADDRESS WITH ANY PRIORITY.
002248:                                                                                                  #  IT DOES ENDOFJOB AFTER ENTERING REQUEST. DISPLAY SYST IS RELEASED.
002249:                                                                                                  #  IT ASSUMES NOUN 26 HAS BEEN PRELOADED WITH
002250:                                                                                                  #  COMPONENT 1  PRIORITY (BITS 10-14) BIT1=0 FOR NOVAC, BIT1=1 FOR FINDVAC.
002251:                                                                                                  #  COMPONENT 2  JOB ADRES (12 BIT)
002252:                                                                                                  #  COMPONENT 3  BBCON
002253:
002254: 05,3314           37763        VBRQEXEC           CAF      BIT1
002255: 05,3315           70337                           MASK     DSPTEM1
002256: 05,3316           10000                           CCS      A
002257: 05,3317           03336                           TC       SETVAC                                #  IF BIT1 = 1, FINDVAC
002258: 05,3320           35723                           CAF      TCNOVAC                               #  IF BIT1 = 0, NOVAC
002259: 05,3321           54144        REQEX1             TS       MPAC                                  #  TC NOVAC  OR  TC FINDVAC INTO MPAC
002260: 05,3322           47763                           CS       BIT1
002261: 05,3323           70337                           MASK     DSPTEM1
002262: 05,3324           54150                           TS       MPAC       +4                         #  PRIO INTO MPAC+4 AS A TEMP
002263: 05,3325           04666        REQUESTC           TC       RELDSP
002264: 05,3326           34505                           CA       ENDINST
002265: 05,3327           54147                           TS       MPAC       +3                         #  TC ENDOFJOB INTO MPAC+3
002266: 05,3330           00006                           EXTEND
002267: 05,3331           30341                           DCA      DSPTEM1    +1                         #  JOB ADRES INTO MPAC+1
002268: 05,3332           52146                           DXCH     MPAC       +1                         #  BBCON INTO MPAC+2
002269: 05,3333           30150                           CA       MPAC       +4                         #  PRIO IN A
002270: 05,3334           00004                           INHINT
002271: 05,3335           00144                           TC       MPAC
002272:
002273: 05,3336           34562        SETVAC             CAF      TCFINDVC
002274: 05,3337           03321                           TC       REQEX1
002275:
002276:                                                                                                  #  VBRQWAIT ENTERS REQUEST TO WAITLIST FOR ANY ADDRESS WITH ANY DELAY.
002277:                                                                                                  #  IT DOES ENDOFJOB AFTER ENTERING REQUEST.DISPLAY SYST IS RELEASED.
002278:                                                                                                  #  IT ASSUMES NOUN 26 HAS BEEN PRELOADED WTIH
002279:                                                                                                  #  COMPONENT 1  DELAY (LOW BITS)
002280:                                                                                                  #  COMPONENT 2  TASK ADRES (12 BIT)
002281:                                                                                                  #  COMPONENT 3  BBCON


002283: 05,3340           34561        VBRQWAIT           CAF      TCWAIT
002284: 05,3341           54144                           TS       MPAC                                  #  TC WAITLIST INTO MPAC
002285: 05,3342           30337                           CA       DSPTEM1                               #  TIME DELAY
002286: 05,3343           03324        ENDRQWT            TC       REQUESTC   -1
002287:
002288:                                                                                                  #  REQUESTC WILL PUT TASK ADRES INTO MPAC+1, BBCON INTO MPAC+2,
002289:                                                                                                  #  TC ENDOFJOB INTO MPAC+3. IT WILL TAKE TIME DELAY OUT OF MPAC+4 AND
002290:                                                                                                  #  LEAVE IT IN A, INHINT AND TC MPAC.
002291:
002292:
002293: 04,3326                                           SETLOC   NVSBENDL   +1
002294: 04,3326           37763        VBPROC             CAF      ONE                                   #  PROCEED WITHOUT DATA
002295: 04,3327           54305                           TS       LOADSTAT
002296: 04,3330           04666                           TC       RELDSP
002297: 04,3331           04626                           TC       FLASHOFF
002298: 04,3332           03440                           TC       RECALTST                              #  SEE IF THERE IS ANY RECALL FROM ENDIDLE
002299:
002300:
002301: 04,3333           04466        VBTERM             TC       KILMONON                              #  TURN ON KILL MONITOR BIT
002302: 04,3334           47763                           CS       ONE
002303: 04,3335           03327                           TC       VBPROC     +1                         #  TERM VERB SETS LOADSTAT NEG
002304:
002305:
002306:                                                                                                  #  FLASH IS TURNED OFF BY PROCEED WITHOUT DATA, TERMINATE, END OF LOAD.
002307:
002308:                                                                                                  #  VBRELDSP TURNS OFF RELEASE DISPLAY SYSTEM LIGHT(AND SERCHES LIST ONLY
002309:                                                                                                  #  IF THIS LIGHT WAS TURNED ON BY NVSUBUSY), AND TURNS OFF UPACT LIGHT.
002310:
002311: 04,3336           47761        VBRELDSP           CS       BIT3
002312: 04,3337           00006                           EXTEND
002313: 04,3340           03011                           WAND     DSALMOUT                              #  TURN OFF UPACT LITE
002314: 04,3341           04666                           TC       RELDSP                                #  SEARCHES LIST
002315: 04,3342           05567                           TC       ENDOFJOB
002316:
002317:
002318:                                                                                                  #  BUMP SHIFTS WORD DISPLAYED IN R2 TO R3, R1 TO R2. IT BLANKS R1.
002319:
002320: 04,3343           37766        BUMP               CAF      FIVE                                  #  R2D5
002321: 04,3344           54270                           TS       DSPCOUNT
002322: 04,3345           54133                           TS       COUNT
002323: 04,3346           37763                           CAF      ONE                                   #  SHIFT DATA OF R2 TO R3, R1 TO R2
002324: 04,3347           70133                           MASK     COUNT
002325: 04,3350           56133                           XCH      COUNT                                 #  +0 INTO COUNT IF EVEN (RIGHT)
002326: 04,3351           54021                           TS       SR                                    #  +1 INTO COUNT IF ODD (LEFT)


002328: 04,3352           56021                           XCH      SR                                    #  DSREL IN A
002329: 04,3353           50000                           INDEX    A
002330: 04,3354           10313                           CCS      DSPTAB
002331: 04,3355           03357                           TC       +2
002332: 04,3356           04736                           TC       CCSHOLE
002333: 04,3357           67763                           AD       ONE                                   #  DSMAG IN A
002334: 04,3360           50133                           INDEX    COUNT
002335: 04,3361           73275                           MASK     DSMSK
002336: 04,3362           50133                           INDEX    COUNT
002337: 04,3363           03364                           TC       +1
002338: 04,3364           03366                           TC       +2                                    #  EVEN(RIGHT)  OK
002339: 04,3365           04532                           TC       RIGHT5                                #  ODD(LEFT)  SHIFT RIGHT
002340: 04,3366           54114                           TS       CODE
002341: 04,3367           47766                           CS       FIVE
002342: 04,3370           60270                           AD       DSPCOUNT                              #  DSPCOUNT-5
002343: 04,3371           10000                           CCS      A                                     #  TO PREVENT -0
002344: 04,3372           67763                           AD       ONE
002345: 04,3373           03375                           TC       +2
002346: 04,3374           04736                           TC       CCSHOLE
002347: 04,3375           54133                           TS       COUNT
002348: 04,3376           03217                           TC       DSPIN                                 #  CODE ALREADY IN CODE
002349: 04,3377           40270                           CS       DSPCOUNT
002350: 04,3400           64527                           AD       R1D1                                  #  OCT 16
002351: 04,3401           10000                           CCS      A
002352: 04,3402           56270                           XCH      DSPCOUNT                              #  +. DSPCOUNT L/ OCT 16
002353: 04,3403           67763                           AD       ONE                                   #  INCREMENT DSPCOUNT
002354: 04,3404           03344                           TC       BUMP       +1
002355:
002356: 04,3405           37767        SWSGN              CAF      ZERO                                  #  -0, DSPCOUNT= OCT 16. DO SIGN SHIFT
002357: 04,3406           54270                           TS       DSPCOUNT
002358: 04,3407           63436                           AD       SWTAB      +2                         #  OCT 3
002359: 04,3410           50000                           INDEX    A                                     #  PICKUP ORDER , DSREL=3,4,5,6.
002360: 04,3411           10313                           CCS      DSPTAB                                #                   (-R2,+R2,-R1,+R1)
002361: 04,3412           03414                           TC       +2
002362: 04,3413           04736                           TC       CCSHOLE
002363: 04,3414           67763                           AD       ONE
002364: 04,3415           77751                           MASK     BIT11
002365: 04,3416           54114                           TS       CODE
002366: 04,3417           50270                           INDEX    DSPCOUNT
002367: 04,3420           33434                           CAF      SWTAB                                 #  PUT AWAY ORDER, DSREL= 0,1,3,4.
002368: 04,3421           03301                           TC       11DSPIN                               #                   (-R3,+R3,-R2,+R2.)
002369: 04,3422           40270                           CS       DSPCOUNT
002370: 04,3423           63436                           AD       SWTAB      +2                         #  OCT 3
002371: 04,3424           10000                           CCS      A
002372: 04,3425           56270                           XCH      DSPCOUNT                              #  +, DSPCOUNT L/ 3
002373: 04,3426           67763                           AD       ONE                                   #  INCREMENT DSPCOUNT
002374: 04,3427           03406                           TC       SWSGN      +1
002375: 04,3430           34527                           CAF      R1D1                                  #  -0,       DSPCOUNT = 3
002376: 04,3431           54270                           TS       DSPCOUNT
002377: 04,3432           02514                           TC       5BLANK                                #  BLANKS R1


002379: 04,3433           00126                           TC       ENTEXIT
002380:
002381: 04,3434           00000        SWTAB              OCT      0                                     #  -R3
002382: 04,3435           00001                           OCT      1                                     #  +R3
002383: 04,3436           00003                           OCT      3                                     #  -R2
002384: 04,3437           00004                           OCT      4                                     #  +R2
002385:


002387:                                                                                                  #  NVSUB IS USED FOR SUBROUTINE CALLS FROM WITHIN COMPUTER. IT CAN BE
002388:                                                                                                  #  USED TO DO ANY THING THE KEYBOARD CAN CALL. PLACE ...VVVVVVNNNNNN
002389:                                                                                                  #  INTO A.      V-S ARE 6 BIT VERB CODE. N-S , 6 BIT NOUN CODE.
002390:
002391:                                                                                                  #  NVSUB CAN BE USED WTIH MACH CADR TO BE SPEC BY PLACING THE CADR INTO
002392:                                                                                                  #  MPAC+2 BEFORE THE STANDARD NVSUB CALL.
002393:
002394:                                                                                                  #   NVSUB RETURNS TO 2+ CALLING LOC AFTER PERFORMING TASK, IF DISPLAY
002395:                                                                                                  #  SYSTEM IS AVAIALBLE. THE NEW NOUN AND VERB CODES ARE DISPLAYED.
002396:                                                                                                  #  IF V:S =0, THE NEW NOUN CODE IS DISPLAYED ONLY (RETURN WITH NO FURTHER
002397:                                                                                                  #  ACTION). IF N-S =0, THE NEW VERB CODE IS DISPLAYED ONLY(RETURN WITH NO
002398:                                                                                                  #  FURTHER ACTION).
002399:
002400:                                                                                                  #  IT RETURNS TO 1+ CALLING LOC WITHOUT PERFORMING TASK, IF DISPLAY
002401:                                                                                                  #  SYSTEM IS BLOCKED (NOTHING IS DISPLAYED IN THIS CASE).
002402:                                                                                                  #  IT DOES TC ABORT (WITH OCT 01501) IF IT ENCOUNTERS A DISPLAY PROGRAM
002403:                                                                                                  #  ALARM CONDITION BEFORE RETURN TO CALLER.
002404:
002405:                                                                                                  #  THE DISPLAY SYSTEM IS BLOCKED BY THE DEPRESSION OF ANY
002406:                                                                                                  #  KEY, EXCEPT ERROR LIGHT RESET. ALSO BY ENDIDLE.
002407:                                                                                                  #       IT IS RELEASED BY SPECIAL VERB = RELEASE DISPLAY, ALL TO TO VERBS,
002408:                                                                                                  #  PROCED WITHOUT DATA, TERMINATE, INITIALIZE EXECUTIVE,
002409:                                                                                                  #  RECALL PART OF RECALTST IF ENDIDLE WAS USED,
002410:                                                                                                  #  IN RECALTST IF NVSUB INITIATED LOAD AND ENDIDLE WAS NOT USED.
002411:                                                                                                  #  VB = REQUEST EXECUTIVE, VB = REQUEST WAITLIST,
002412:                                                                                                  #  MONITOR SET UP.
002413:
002414:                                                                                                  #  A NVSUB CALL THAT PASSES DSPLOCK ENDS OLD MONITOR.
002415:
002416:                                                                                                  #  DSPLOCK IS THE INTERLOCK FOR USE OF KEYBOARD AND DISPLAY SYSTEM WHICH
002417:                                                                                                  #  LOCKS OUT INTERNAL USE WHENEVER THERE IS EXTERNAL KEYBOARD ACTION.
002418:
002419:                                                                                                  #  NVSUB IN FIXED-FIXED PLACES 2+CALLING LOC INTO NVQTEM, TC NVSUBEND INTO
002420:                                                                                                  #  ENTRET. (THIS WILL RESTORE OLD CALLING BANK BITS)
002421:
002422:    4444                                           SETLOC   MIDSIX     +1
002423:    4444           54113        NVSUB              TS       NVTEMP                                #  IN FIXED FIXED
002424:    4445           10303                           CCS      DSPLOCK
002425:    4446           00002                           TC       Q                                     #  DSP SYST BLOCKED, RET TO 1+ CALLING LOC
002426:    4447           30002                           CA       Q                                     #  DSP SYST AVAILABLE.
002427:    4450           67763                           AD       ONE
002428:    4451           54331                           TS       NVQTEM                                #  2+ CALLING LOC INTO NVQTEM
002429:    4452           04466                           TC       KILMONON                              #  TURN ON KILL MONITOR BIT
002430:    4453           34457        NVSUBCOM           CAF      NVSBBBNK
002431:
002432:    4454           56006                           XCH      BBANK
002433:    4455           54332                           TS       NVBNKTEM
002434:    4456           02000                           TC       NVSUBB                                #  GO TO NVSUB1 THRU STANDARD LOC
002435:    4457     0270                                  EBANK=   DSPCOUNT
002436:    4457           12060        NVSBBBNK           BBCON    NVSUB1
002437:


002439:    4460           30002        NVSUBMON           CA       Q                                     #  MONDO COMES HERE
002440:    4461           67763                           AD       ONE
002441:    4462           54331                           TS       NVQTEM                                #  2 + CALLING LOC INTO NVQTEM
002442:    4463           04453                           TC       NVSUBCOM
002443:
002444:    4464           52332        NVSUBEND           DXCH     NVQTEM                                #  NVBNKTEM MUST = NVQTEM+1
002445:    4465           52006                           DXCH     Z                                     #  DTCB
002446:
002447: 05,3344                                           SETLOC   ENDRQWT    +1
002448:
002449: 05,3344           33363        NVSUB1             CAF      ENTSET                                #  IN BANK
002450: 05,3345           54126                           TS       ENTRET                                #  SET RETURN TO NVSUBEND
002451: 05,3346           33401                           CAF      LOW6
002452: 05,3347           70113                           MASK     NVTEMP
002453: 05,3350           54144                           TS       MPAC                                  #  TEMP STORAGE
002454: 05,3351           33402                           CAF      MID6
002455: 05,3352           70113                           MASK     NVTEMP
002456: 05,3353           04532                           TC       RIGHT5
002457: 05,3354           54020                           TS       CYR
002458: 05,3355           56020                           XCH      CYR
002459: 05,3356           54145                           TS       MPAC       +1                         #  TEMP STORAGE
002460: 05,3357           10144                           CCS      MPAC                                  #  TEST NOUN
002461: 05,3360           03364                           TC       +4                                    #  IF NOUN NOT +0, GO ON
002462: 05,3361           56145                           XCH      MPAC       +1
002463: 05,3362           02314                           TC       UPDATVB    -1                         #  IF NOUN = +0, DISPLAY VERB . THEN RETURN
002464: 05,3363           04464        ENTSET             TC       NVSUBEND
002465: 05,3364           10145                           CCS      MPAC       +1                         #  TEST VERB
002466: 05,3365           03371                           TC       +4                                    #  IF VERB NOT +0, GO ON
002467: 05,3366           56144                           XCH      MPAC
002468: 05,3367           02274                           TC       UPDATNN    -1                         #  IF VERB = +0, DISPLAY NOUN, THEN RETURN
002469: 05,3370           04464                           TC       NVSUBEND
002470: 05,3371           56145                           XCH      MPAC       +1
002471: 05,3372           02314                           TC       UPDATVB    -1                         #  IF BOTH NOUN AND VERB NOT +0, DISPLAY
002472: 05,3373           56144                           XCH      MPAC                                  #  BOTH AND GO TO ENTPAS0.
002473: 05,3374           02274                           TC       UPDATNN    -1
002474: 05,3375           37767                           CAF      ZERO
002475: 05,3376           54305                           TS       LOADSTAT                              #  SET FOR WAITING FOR DATA CONDITION
002476: 05,3377           54306                           TS       CLPASS
002477: 05,3400           02031                           TC       ENTPAS0
002478:
002479:                                                                                                  #  IF INTERNAL MACH CADR TO BE SPECIFIED, MPAC+2 WILL BE PLACED INTO
002480:                                                                                                  #  NOUNCADR IN ENTPAS0 (INTMCTBS ).
002481:
002482:
002483: 05,3401           00077        LOW6               OCT      77
002484: 05,3402           07700        MID6               OCT      7700
002485:


002487:    4466                                           SETLOC   NVSUBEND   +2
002488:    4466           47745        KILMONON           CS       BIT15                                 #  FORCE BIT 15 OF MONSAVE1 TO 1.
002489:    4467           00004                           INHINT                                         #          THIS IS THE KILL MONITOR BIT.
002490:    4470           70312                           MASK     MONSAVE1
002491:    4471           67745                           AD       BIT15
002492:    4472           54312                           TS       MONSAVE1
002493:    4473           00003                           RELINT
002494:    4474           00002                           TC       Q
002495:
002496:
002497:                                                                                                  #  LOADSTAT  +0 INACTIVE (WAITING FOR DATA). SET BY NVSUB
002498:                                                                                                  #            +1  PROCEED NO DATA. SET BY SPECIAL VERB
002499:                                                                                                  #           -1 TERMINATE   SET BY SPECIAL VERB.
002500:                                                                                                  #           -0 DATA IN   SET BY END OF LOAD ROUTINE
002501:
002502:
002503:                                                                                                  #  L  TO ENDIDLE  (FIXED FIXED)
002504:                                                                                                  #  ROUTINES THAT REQUEST LOADS THROUGH NVSUB SHOULD USE ENDIDLE WHILE
002505:                                                                                                  #  WAITING FOR THE DATA TO BE LOADED. ENDIDLE PUTS CURRENT JOB TO SLEEP.
002506:                                                                                                  #  ENDIDLE CANNOT BE CALLED FROM ERASABLE, SINCE JOB SLEEP AND
002507:                                                                                                  #  JOBWAKE CAN HANDLE ONLY FIXED MEMORY.
002508:                                                                                                  #  RECALTST TESTS LOADSTAT AND WAKES JOB UP TO,
002509:                                                                                                  #  L+1      FOR TERMINATE
002510:                                                                                                  #  L+2      FOR PROCEED WITHOUT DATA
002511:                                                                                                  #  L+3      FOR DATA IN
002512:                                                                                                  #  IT DOES NOTHING     IF LOADSTAT INDICATES WAITING FOR DTA.
002513:
002514:    4475           37763        ENDIDLE            CAF      ONE
002515:    4476           54303                           TS       DSPLOCK
002516:    4477           22004                           LXCH     FBANK
002517:    4500           56002                           XCH      Q
002518:    4501           52124                           DXCH     BUF2
002519:    4502           05235                           TC       MAKECADR
002520:    4503           54327                           TS       CADRSTOR
002521:    4504           05545                           TC       JOBSLEEP
002522:
002523:    4505           05567        ENDINST            TC       ENDOFJOB
002524:
002525:                                                                                                  #  DATAWAIT IS AN ALTERNATIVE TO ENDIDLE. IT RETURNS IMMEDIATELY IF
002526:                                                                                                  #  LOADSTAT INDICATES THAT DATA IS ALREADY IN, OR PROCEED OR TERMINATE HAS
002527:                                                                                                  #  BEEN EXECUTED. RETURN FORMAT IS SAME AS FOR ENDIDLE.
002528:                                                                                                  #  DATAWAIT CANNOT BE CALLED FROM ERASABLE MEMORY, SINCE JOBSLEEP
002529:                                                                                                  #  AND JOBWAK CAN HANDLE ONLY FIXED MEMORY.
002530:                                                                                                  #  DATAWAIT SHOULD BE USED ONLY AFTER REQUESTING A LOAD VERB.
002531:
002532:    4506           10305        DATAWAIT           CCS      LOADSTAT


002534:    4507           17015                           TCF      DATWAIT1                              #  PROCEED. RETURN TO L+2.
002535:    4510           14475                           TCF      ENDIDLE                               #  STILL WAITING. GO TO SLEEP.
002536:    4511           00002                           TC       Q                                     #  TERMINATE. RETURN TO L+1.
002537:    4512           17017                           TCF      Q+2                                   #  DATA IN. RETURN TO L+3
002538:    4513     7015               DATWAIT1           =        Q+1                                   #  RETURN TO L+2
002539:
002540:                                                                                                  #  DATAWAIT DOES NOT RELEASE DISPLAY SYST. IT IS RELEASED AT END OF NVSUB
002541:                                                                                                  #  INITIATED LOAD, IF ENDIDLE WAS NOT USED.
002542:
002543:
002544: 05,3403                                           SETLOC   MID6       +1
002545:                                                                                                  #  DSPMM  PLACE MAJOR MODE CODE INTO MODREG
002546:
002547: 05,3403           34567        DSPMM1             CAF      MD1                                   #  GETS HERE THRU DSPMM (STANDARD LEAD IN)
002548: 05,3404           56270                           XCH      DSPCOUNT
002549: 05,3405           54130                           TS       DSPMMTEM                              #  SAVE DSPCOUNT
002550: 05,3406           30302                           CA       MODREG
002551: 05,3407           22002                           LXCH     Q
002552: 05,3410           03255                           TC       DSP2BIT
002553: 05,3411           56130                           XCH      DSPMMTEM                              #  RESTORE DSPCOUNT
002554: 05,3412           54270                           TS       DSPCOUNT
002555: 05,3413           00001        DSPMMEND           TC       L
002556:
002557:
002558:                                                                                                  #  RECALTST IS ENTERED DIRECTLY AFTER DATA IS
002559:                                                                                                  #  LOADED (OR RESEQUENCE VERB IS
002560:                                                                                                  #  EXECUTED), TERMINATE VERB IS EXECUTED, OR PROCEED WITHOUT DATA VERB IS
002561:                                                                                                  #  EXECUTED. IT WAKES UP JOB THAT DID TC ENDIDLE.
002562:
002563:                                                                                                  #  IF NVSUB INITIATED LOAD, AND ENDIDLE WAS NOT USED, THEN IT RELEASES
002564:                                                                                                  #  DISPLAY SYST. (NEEDED FOR DATAWAIT)
002565:
002566: 04,3440                                           SETLOC   SWTAB      +4
002567:
002568: 04,3440           10327        RECALTST           CCS      CADRSTOR
002569: 04,3441           03446                           TC       RECAL1
002570: 04,3442           05567                           TC       ENDOFJOB                              #  NORMAL EXIT IF KEYBOARD INITIATED
002571: 04,3443           03446                           TC       RECAL1
002572: 04,3444           54327                           TS       CADRSTOR                              #  -0. CONCLUSION OF NVSUB INITIATED LOAD.
002573: 04,3445           03464                           TC       RECAL3                                #  +0 INTO CADRSTOR, RELEASE DISPLAY,
002574:                                                                                                  #     AND ENDOFJOB.  NEEDED FOR DATAWAIT.
002575: 04,3446           37767        RECAL1             CAF      ZERO
002576: 04,3447           56327                           XCH      CADRSTOR
002577: 04,3450           00004                           INHINT
002578: 04,3451           05551                           TC       JOBWAKE
002579: 04,3452           10305                           CCS      LOADSTAT
002580: 04,3453           03470                           TC       DOPROC                                #  + PROCEED WITHOUT DATA
002581: 04,3454           05567                           TC       ENDOFJOB                              #  PATHALOGICAL CASE EXIT
002582: 04,3455           03466                           TC       DOTERM                                #  - TERMINATE


002584: 04,3456           37762                           CAF      TWO                                   #  -0 DATA IN OR RESEQUENCE
002585: 04,3457           50064        RECAL2             INDEX    LOCCTR
002586: 04,3460           60154                           AD       LOC                                   #  LOC IS + FOR BASIC JOBS
002587: 04,3461           50064                           INDEX    LOCCTR
002588: 04,3462           54154                           TS       LOC
002589: 04,3463           00003                           RELINT
002590: 04,3464           04711        RECAL3             TC       RELDSP1                               #  DOES NOT SEARCH LIST
002591: 04,3465           05567                           TC       ENDOFJOB
002592:
002593: 04,3466           37767        DOTERM             CAF      ZERO
002594: 04,3467           03457                           TC       RECAL2
002595:
002596: 04,3470           37763        DOPROC             CAF      ONE
002597: 04,3471           03457                           TC       RECAL2
002598:


002600:                                                                                                  #  THE FOLLOWING REFERS TO THE NOUN TABLES
002601:
002602:
002603:                                                                                                  #  COMPONENT CODE NUMBER         INTERPRETATION
002604:
002605:                                                                                                  #  00000                         1 COMPONENT
002606:                                                                                                  #  00001                         2 COMPONENT (EACH S P)
002607:                                                                                                  #  00010                         3 COMPONENT (EACH SP)
002608:
002609:
002610:                                                                                                  #  SF ROUTINE CODE NUMBER        INTERPRETATION
002611:
002612:                                                                                                  #  00000         OCTAL ONLY
002613:                                                                                                  #  00001         STRAIGHT FRACTIONAL
002614:                                                                                                  #  00010         DEGREES (XXX.XX)
002615:                                                                                                  #  00011         ARITHMETIC SF
002616:                                                                                                  #  00100         ARITH DP1       OUT(MULT BY 2/14 AT END)        IN(STRAIGHT)
002617:                                                                                                  #  00101         ARITH DP2       OUT(STRAIGHT)                   IN(SL 7 AT END)
002618:                                                                                                  #  00110         OPTICS DEGREES(XX.XXX MAX 89.999) OR (XXX.XX MAX 179.99)
002619:                                                                                                  #  00111         ARITH DP3       OUT ( SL 7 AT END)              IN ( STRAIGHT)
002620:                                                                                                  #  END OF SF ROUTINE CODE NUMBERS
002621:
002622:
002623:                                                                                                  #  SF CONSTANT CODE NUMBER       INTERPRETATION
002624:
002625:                                                                                                  #  00000                         WHOLE
002626:                                                                                                  #  00000                         TIME SEC(XXX.XX SEC)SAME AS WHOLE (ARITH DP1)
002627:                                                                                                  #  00001                         TIME HOURS(XXX.XX) USE ARITH DP2
002628:                                                                                                  #  00010                         DEGREES
002629:                                                                                                  #  00010                         OPTICS DEGREES
002630:                                                                                                  #  00011                         GYRO DEGREES(XX.XXX)  USE ARITH DP1
002631:                                                                                                  #  00100                         GYRO BIAS DRIFT .BBXXXXX MILLIRAD/SEC
002632:                                                                                                  #  00101                         GYRO AXIS ACCEL. DRIFT
002633:                                                                                                  #                                .BBXXXXX (MILLIRAD/SEC) / (CM/SEC SEC)
002634:                                                                                                  #  00110                         PIPA BIAS X.XXXX CM/SEC SEC
002635:                                                                                                  #  00111                         PIPA SCALE FACTOR ERROR
002636:                                                                                                  #                                    XXXXX. PARTS/MILLION
002637:                                                                                                  #  01000                         POSITION(XXXX.X KILOMETERS) USE ARITHDP3
002638:                                                                                                  #  01001                         VELOCITY(XXXX.X METERS/SEC) USE ARITHDP2
002639:                                                                                                  #  01010                         TIME HOURS(XXX.XX)WEEKS INSIDE(ARITHDP2)
002640:                                                                                                  #  01011                         ELEVATION DEGREES(89.999MAX) USE ARITH
002641:                                                                                                  #  01100                         RENDEZVOUS RADAR RANGE(XXXXXB.FEET)
002642:                                                                                                  #                                                            USE ARITHDP1
002643:                                                                                                  #  01101                         RENDEZVOUS RADAR RANGE RATE(XXXXX.FEET/SEC
002644:                                                                                                  #                                                            USE ARITHDP1
002645:                                                                                                  #  01110                         LANDING RADAR ALTITUDE(XXXXX.FEET)
002646:                                                                                                  #                                                            USE ARITHDP1


002648:                                                                                                  #  01111                         INITIAL/FINAL ALTITUDE(XXXXX.FEET)
002649:                                                                                                  #                                                            USE ARITHDP1
002650:                                                                                                  #  10000                         ALTITUDE RATE(XXXXX.FEET)      USE ARITH
002651:                                                                                                  #  10001                         FORWARD/LATERAL VELOCITY(XXXXX.FEET/SEC)
002652:                                                                                                  #                                                               USE ARITH
002653:                                                                                                  #  10010                         ROTATIONAL HAND CONTROL ANGLE RATES
002654:                                                                                                  #                                      XXXXX.DEG/SEC            USE ARITH
002655:                                                                                                  #  10011                         LANDING RADAR VELX(XXXXX.FEET/SEC)
002656:                                                                                                  #                                                            USE ARITHDP1
002657:                                                                                                  #  10100                         LANDING RADAR VELY(XXXXX.FEET/SEC)
002658:                                                                                                  #                                                            USE ARITHDP1
002659:                                                                                                  #  10101                         LANDING RADAR VELZ(XXXXX.FEET/SEC)
002660:                                                                                                  #                                                            USE ARITHDP1
002661:                                                                                                  #  10110                         OPTICAL TRACKER AZIMUTH ANGLE(XXX.XXDEG)
002662:                                                                                                  #                                                            USE ARITHDP1
002663:                                                                                                  #  END OF SF CONSTANT CODE NUMBERS
002664:
002665:                                                                                                  #  FOR GREATER THAN SINGLE PRECISION SCALES, PUT ADDRESS OF MAJOR PART INTO
002666:                                                                                                  #  NOUN TABLES.
002667:                                                                                                  #  OCTAL LOADS PLACE +0 INTO MAJOR PART, DATA INTO MINOR PART.
002668:                                                                                                  #  OCTAL DISPLAYS SHOW MINOR PART ONLY.
002669:                                                                                                  #  TO GET AT BOTH MAJOR AND MINOR PARTS (IN OCTAL), USE NOUN 01.
002670:


002672:                                                                                                  #  THE FOLLOWING ROUTINES ARE FOR READING THE NOUN TABLES AND THE SF TABLES
002673:                                                                                                  #  (WHICH ARE IN A SEPARATE BANK FROM THE REST OF PINBALL). THESE READING
002674:                                                                                                  #  ROUTINES ARE IN THE SAME BANK AS THE TABLES. THEY ARE CALLED BY DXCH Z.
002675:
002676:
002677:                                                                                                  #  LODNNTAB LOADS NNADTEM WTIH THE NNADTAB ENTRY, NNTYPTEM WITH THE
002678:                                                                                                  #  NNTYPTAB ENTRY. IF THE NOUN IS MIXED, IDAD1TEM IS LOADED WITH THE FIRST
002679:                                                                                                  #  IDADDTAB ENTRY, IDAD2TEM THE SECOND IDADDTAB ENTRY, IDAD3TEM THE THIRD
002680:                                                                                                  #  IDADDTAB ENTRY, RUTMXTEM WITH THE RUTMXTAB ENTRY, MIXBR IS SET FOR
002681:                                                                                                  #  MIXED OR NORMAL NOUN.
002682:
002683: 23,2000                                           BANK     23
002684: 23,2000           52142        LODNNTAB           DXCH     IDAD2TEM                              #  SAVE RETURN INFO IN IDAD2TEM, IDAD3TEM.
002685: 23,2001           50273                           INDEX    NOUNREG
002686: 23,2002           32052                           CAF      NNADTAB
002687: 23,2003           54136                           TS       NNADTEM
002688: 23,2004           50273                           INDEX    NOUNREG
002689: 23,2005           32152                           CAF      NNTYPTAB
002690: 23,2006           54137                           TS       NNTYPTEM
002691: 23,2007           40273                           CS       NOUNREG
002692: 23,2010           62036                           AD       MIXCON
002693: 23,2011           00006                           EXTEND
002694: 23,2012           62016                           BZMF     LODMIXNN                              #  NOUN NUMBER G/E FIRST MIXED NOUN
002695: 23,2013           37763                           CAF      ONE                                   #  NOUN NUMBER L/ FIRST MIXED NOUN
002696: 23,2014           54130                           TS       MIXBR                                 #  NORMAL.  +1 INTO MIXBR.
002697: 23,2015           02034                           TC       LODNLV
002698: 23,2016           37762        LODMIXNN           CAF      TWO                                   #  MIXED.  +2 INTO MIXBR.
002699: 23,2017           54130                           TS       MIXBR
002700: 23,2020           50273                           INDEX    NOUNREG
002701: 23,2021           32420                           CAF      RUTMXTAB   -55
002702: 23,2022           54143                           TS       RUTMXTEM
002703: 23,2023           35337                           CAF      LOW10
002704: 23,2024           70136                           MASK     NNADTEM
002705: 23,2025           54002                           TS       Q                                     #  TEMP
002706: 23,2026           50000                           INDEX    A
002707: 23,2027           32406                           CAF      IDADDTAB
002708: 23,2030           54140                           TS       IDAD1TEM                              #  LOAD IDAD1TEM WITH FIRST IDADDTAB ENTRY.
002709: 23,2031           00006                           EXTEND
002710: 23,2032           50002                           INDEX    Q                                     #  LOAD IDAD2TEM WITH 2ND IDADDTAB ENTRY
002711: 23,2033           32410                           DCA      IDADDTAB   +1                         #  LOAD IDAD3TEM WITH 3RD IDADDTAB ENTRY.
002712: 23,2034           52142        LODNLV             DXCH     IDAD2TEM                              #  PUT RETURN ADDESS INTO A, L.
002713: 23,2035           52006                           DXCH     Z
002714:
002715: 23,2036           00055        MIXCON             OCT      55                                    #  FIRST MIXED NOUN = 55.
002716:
002717:
002718:                                                                                                  #  GTSFOUT LOADS SFTEMP1, SFTEMP2 WTIH THE DP SFOUTAB ENTRIES.


002720:
002721: 23,2037           52114        GTSFOUT            DXCH     SFTEMP1                               #  2X(SFCONUM) ARRIVES IN SFTEMP1.
002722: 23,2040           00006                           EXTEND
002723: 23,2041           50000                           INDEX    A
002724: 23,2042           32331                           DCA      SFOUTAB
002725: 23,2043           52114        SFCOM              DXCH     SFTEMP1
002726: 23,2044           52006                           DXCH     Z
002727:
002728:
002729:                                                                                                  #  GTSFIN LOADS SFTEMP1, SFTEMP2 WITH THE DP SFINTAB ENTRIES.
002730:
002731: 23,2045           52114        GTSFIN             DXCH     SFTEMP1                               #  2X(SFCONUM) ARRIVES IN SFTEMP1.
002732: 23,2046           00006                           EXTEND
002733: 23,2047           50000                           INDEX    A
002734: 23,2050           32253                           DCA      SFINTAB
002735: 23,2051           12043                           TCF      SFCOM
002736:
002737:                                                                                                  #  NN   NORMAL NOUNS
002738: 23,2052           00000        NNADTAB            OCT      00000                                 #  00 NOT IN USE
002739: 23,2053           40000                           OCT      40000                                 #  01 SPECIFY MACHINE ADDRESS (FRACTIONAL)
002740: 23,2054           40000                           OCT      40000                                 #  02 SPECIFY MACHINE ADDRESS (WHOLE)
002741: 23,2055           40000                           OCT      40000                                 #  03 SPECIFY MACHINE ADDRESS (DEGREES)
002742: 23,2056           40000                           OCT      40000                                 #  04 SPECIFY MACHINE ADDRESS (HOURS)
002743: 23,2057           40000                           OCT      40000                                 #  05 SPECIFY MACHINE ADDRESS (SECONDS)
002744: 23,2060           40000                           OCT      40000                                 #  06 SPECIFY MACHINE ADDRESS (GYRO DEG)
002745: 23,2061           00000                           OCT      00000                                 #  07 SPARE
002746: 23,2062           77776                           OCT      77776                                 #  10 CHANNEL TO BE SPECIFIED
002747: 23,2063           00000                           OCT      00000                                 #  11 SPARE
002748: 23,2064           00000                           OCT      00000                                 #  12 SPARE
002749: 23,2065           00000                           OCT      00000                                 #  13 SPARE
002750: 23,2066           00000                           OCT      00000                                 #  14 SPARE
002751: 23,2067           77777                           OCT      77777                                 #  15 INCREMENT MACHINE ADDRESS
002752: 23,2070           00024                           ECADR    TIME2                                 #  16 TIME SECONDS
002753: 23,2071           00024                           ECADR    TIME2                                 #  17 TIME HOURS
002754: 23,2072           00032                           ECADR    CDUX                                  #  20 ICDU
002755: 23,2073           00037                           ECADR    PIPAX                                 #  21 PIPAS
002756: 23,2074           00400                           ECADR    THETAD                                #  22 NEW ANGLES I
002757: 23,2075           00342                           ECADR    DSPTEM2                               #  23 DELTA ANGLES I
002758: 23,2076           00337                           ECADR    DSPTEM1                               #  24 DELTA TIME (SEC)
002759: 23,2077           00337                           ECADR    DSPTEM1                               #  25 CHECKLIST
002760: 23,2100           00337                           ECADR    DSPTEM1                               #  26 PRIO/DELAY
002761: 23,2101           01355                           ECADR    SMODE                                 #  27 SELF TEST ON/OFF SWITCH
002762: 23,2102           00337                           ECADR    DSPTEM1                               #  30 STAR NUMBERS
002763: 23,2103           01363                           ECADR    ALMCADR                               #  31 ALMCADR, ALMCADR +1, ERCOUNT
002764: 23,2104           02166                           ECADR    TDEC                                  #  32 DECISION TIME (MIDCOURSE)
002765: 23,2105           02046                           ECADR    TET                                   #  33 EPHEMERIS TIME(MIDCOURSE)
002766: 23,2106           02174                           ECADR    MEASQ                                 #  34 MEASURED QUANTITY (MIDCOURSE)
002767: 23,2107           00337                           ECADR    DSPTEM1                               #  35 INBIT MESSAGE


002769: 23,2110           01500                           ECADR    LANDMARK                              #  36 LANDMARK DATA 1
002770: 23,2111           01503                           ECADR    LANDMARK   +3                         #  37 LANDMARK DATA 2
002771: 23,2112           00035                           ECADR    OPTY                                  #  40 RENDEZVOUS RADAR ANGLES (TRUN, SHAFT)
002772: 23,2113           00422                           ECADR    TANG                                  #  41 NEW REND. RADAR ANGLES (TRUN, SHAFT)
002773: 23,2114           00342                           ECADR    DSPTEM2                               #  42 AOT ROTATION ANGLES
002774: 23,2115           00374                           ECADR    XYMARK                                #  43 AOT DETENT CODE
002775: 23,2116           00357                           ECADR    FORVEL                                #  44 FORWARD VELOCITY, LATERAL VELOCITY
002776: 23,2117           03031                           ECADR    PCOM                                  #  45 ROTATIONAL HAND CONTROLLER ANGLE RATE
002777: 23,2120           00000                           OCT      00000                                 #  46 SPARE
002778: 23,2121           00000                           OCT      00000                                 #  47 SPARE
002779: 23,2122           01360                           ECADR    FAILREG                               #  50 FAILREG, FAILREG +1, FAILREG +2.
002780: 23,2123           00000                           OCT      00000                                 #  51 SPARE
002781: 23,2124           01444                           ECADR    GBIASX                                #  52 GYRO BIAS DRIFT
002782: 23,2125           01447                           ECADR    ADIAX                                 #  53 GYRO INPUT AXIS ACCELERATION DRIFT
002783: 23,2126           01452                           ECADR    ADSRAX                                #  54 GYRO SPIN AXIS ACCELERATION DRIFT
002784:
002785:                                                                                                  #  NN  MIXED NOUNS
002786: 23,2127           02000                           OCT      02000                                 #  55 LANDING RADAR ALTITUDE, TIME(SEC)
002787: 23,2130           02002                           OCT      02002                                 #  56 LANDING RADAR VELX, TIME(SEC)
002788: 23,2131           02004                           OCT      02004                                 #  57 LANDING RADAR VELY, TIME(SEC)
002789: 23,2132           02006                           OCT      02006                                 #  60 LANDING RADAR VELZ, TIME(SEC)
002790: 23,2133           02010                           OCT      02010                                 #  61 TARGET AZIMUTH AND ELEVATION
002791: 23,2134           04012                           OCT      04012                                 #  62 RENDEZVOUS RADAR RANGE, TRUN, SHAFT
002792: 23,2135           04015                           OCT      04015                                 #  63 REND. RADAR RANGE RATE, TRUN, SHAFT
002793: 23,2136           04020                           OCT      04020                                 #  64 INITIAL ALT, FINAL ALT, ALT RATE
002794: 23,2137           02023                           OCT      02023                                 #  65 SAMPLED TIME (HOURS AND SECONDS)
002795:                                                                                                  #       (FETCHED IN INTERRUPT)
002796: 23,2140           04025                           OCT      04025                                 #  66 SYSTEM TEST RESULTS
002797: 23,2141           04030                           OCT      04030                                 #  67 DELTA GYRO ANGLES
002798: 23,2142           02033                           OCT      02033                                 #  70 OPTICAL TRACKER ANGLES (AZIMUTH,ELEV)
002799: 23,2143           02035                           OCT      02035                                 #  71 DESIRED OPT. TRACK. ANGLES (AZ, ELEV)
002800: 23,2144           04037                           OCT      04037                                 #  72 DELTA POSITION
002801: 23,2145           04042                           OCT      04042                                 #  73 DELTA VELOCITY
002802: 23,2146           04045                           OCT      04045                                 #  74 MEASUREMENT DATA (MIDCOURSE)
002803: 23,2147           04050                           OCT      04050                                 #  75 MEASUREMENT DEVIATIONS (MIDCOURSE)
002804: 23,2150           04053                           OCT      04053                                 #  76 POSITION VECTOR
002805: 23,2151           04056                           OCT      04056                                 #  77 VELOCITY VECTOR
002806:
002807:                                                                                                  #  NN        NORMAL NOUNS
002808: 23,2152           00000        NNTYPTAB           OCT      00000                                 #  00 NOT IN USE
002809: 23,2153           00040                           OCT      00040                                 #  01 1COMP  FRACTIONAL
002810: 23,2154           00140                           OCT      00140                                 #  02 1COMP  WHOLE
002811: 23,2155           00102                           OCT      00102                                 #  03 1COMP  DEGREES
002812: 23,2156           00241                           OCT      00241                                 #  04 1COMP  HOURS
002813: 23,2157           00200                           OCT      00200                                 #  05 1COMP  SECONDS
002814: 23,2160           00343                           OCT      00343                                 #  06 1COMP  GYRO DEGREES
002815: 23,2161           00000                           OCT      00000                                 #  07        SPARE
002816: 23,2162           00000                           OCT      00000                                 #  10 1COMP  OCTAL ONLY


002818: 23,2163           00000                           OCT      00000                                 #  11        SPARE
002819: 23,2164           00000                           OCT      00000                                 #  12        SPARE
002820: 23,2165           00000                           OCT      00000                                 #  13        SPARE
002821: 23,2166           00000                           OCT      00000                                 #  14        SPARE
002822: 23,2167           00000                           OCT      00000                                 #  15 1COMP  OCTAL ONLY
002823: 23,2170           00200                           OCT      00200                                 #  16 1COMP  SECONDS
002824: 23,2171           00241                           OCT      00241                                 #  17 1COMP  HOURS
002825: 23,2172           04102                           OCT      04102                                 #  20 3COMP  DEGREES
002826: 23,2173           04140                           OCT      04140                                 #  21 3COMP  WHOLE
002827: 23,2174           04102                           OCT      04102                                 #  22 3COMP  DEGREES
002828: 23,2175           04102                           OCT      04102                                 #  23 3COMP  DEGREES
002829: 23,2176           00200                           OCT      00200                                 #  24 1COMP  SECONDS
002830: 23,2177           00140                           OCT      00140                                 #  25 1COMP  WHOLE
002831: 23,2200           04000                           OCT      04000                                 #  26 3COMP  OCTAL ONLY
002832: 23,2201           00140                           OCT      00140                                 #  27 1COMP  WHOLE
002833: 23,2202           04140                           OCT      04140                                 #  30 3COMP  WHOLE
002834: 23,2203           04000                           OCT      04000                                 #  31 3COMP  OCTALONLY
002835: 23,2204           00252                           OCT      00252                                 #  32 1COMP  TIME WEEKS
002836: 23,2205           00252                           OCT      00252                                 #  33 1COMP  TIME WEEKS
002837: 23,2206           00350                           OCT      00350                                 #  34 1COMP  POSITION
002838: 23,2207           04000                           OCT      04000                                 #  35 3COMP  OCTAL ONLY
002839: 23,2210           04000                           OCT      04000                                 #  36 3COMP  OCTAL ONLY
002840: 23,2211           04000                           OCT      04000                                 #  37 3COMP  OCTAL ONLY
002841: 23,2212           02102                           OCT      02102                                 #  40 2COMP  DEGREES
002842: 23,2213           02102                           OCT      02102                                 #  41 2COMP  DEGREES
002843: 23,2214           02102                           OCT      02102                                 #  42 2COMP  DEGREES
002844: 23,2215           00140                           OCT      00140                                 #  43 1COMP  WHOLE
002845: 23,2216           02161                           OCT      02161                                 #  44 2COMP  FORWARD/LATERAL VELOCITY
002846: 23,2217           04162                           OCT      04162                                 #  45 3COMP  ROT HAND CONT ANGLE RATE
002847: 23,2220           00000                           OCT      00000                                 #  46        SPARE
002848: 23,2221           00000                           OCT      00000                                 #  47        SPARE
002849: 23,2222           04000                           OCT      04000                                 #  50 3COMP  OCTAL ONLY
002850: 23,2223           00000                           OCT      00000                                 #  51        SPARE
002851: 23,2224           04144                           OCT      04144                                 #  52 3COMP  GYRO BIAS DRIFT
002852: 23,2225           04145                           OCT      04145                                 #  53 3COMP  GYRO AXIS ACCEL. DRIFT
002853: 23,2226           04145                           OCT      04145                                 #  54 3COMP  GYRO AXIS ACCEL. DRIFT
002854:
002855:                                                                                                  #  NN        MIXED NOUNS
002856: 23,2227           00016                           OCT      00016                                 #  55 2COMP  LANDING RADAR ALT, SECONDS
002857: 23,2230           00023                           OCT      00023                                 #  56 3COMP  LANDING RADAR VELX, SECONDS
002858: 23,2231           00024                           OCT      00024                                 #  57 2COMP  LANDING RADAR VELY, SECONDS
002859: 23,2232           00025                           OCT      00025                                 #  60 3COMP  LANDING RADAR VELZ, SECONDS
002860: 23,2233           00542                           OCT      00542                                 #  61 2COMP  DEGREES, ELEVATION DEGREES
002861: 23,2234           04114                           OCT      04114                                 #  62 3COMP  REND. RADAR RANGE, DEG, DEG
002862: 23,2235           04115                           OCT      04115                                 #  63 2COMP  REND. RAD. RANGE RATE, DEG,DEG
002863: 23,2236           40757                           OCT      40757                                 #  64 2COMP  IN/FN ALT, IN/FN ALT, ALT RATE
002864: 23,2237           00001                           OCT      00001                                 #  65 2COMP  HOURS, SECONDS
002865: 23,2240           00000                           OCT      00000                                 #  66 3COMP  WHOLE, FRACTIONAL, WHOLE
002866: 23,2241           06143                           OCT      06143                                 #  67 3COMP  GYRO DEGREES FOR EACH
002867: 23,2242           00126                           OCT      00126                                 #  70 3COMP  OPT TRACK AZIMUTH, DEGREES


002869: 23,2243           00126                           OCT      00126                                 #  71 2COMP  OPT TRACK AZIMUTH, DEGREES
002870: 23,2244           20410                           OCT      20410                                 #  72 3COMP  POSITION FOR EACH
002871: 23,2245           22451                           OCT      22451                                 #  73 3COMP  VELOCITY FOR EACH
002872: 23,2246           00412                           OCT      00412                                 #  74 3COMP  TIME WEEKS, POSITION, POSITION
002873: 23,2247           20450                           OCT      20450                                 #  75 3COMP  POSITION, VELOCITY, POSITION
002874: 23,2250           20410                           OCT      20410                                 #  76 3COMP  POSITION FOR EACH
002875: 23,2251           22451                           OCT      22451                                 #  77 3COMP  VELOCITY FOR EACH
002876:
002877:
002878: 23,2252           00006        SFINTAB            OCT      00006                                 #  WHOLE,TIME(SEC)
002879: 23,2253           03240                           OCT      03240
002880: 23,2254           00253                           OCT      00253                                 #  TIME HOURS ( = 1.3..... )
002881: 23,2255           25124                           OCT      25124                                 #    (POINT BETWEEN BITS 7-8 )
002882: 23,2256           00000                           OCT      0                                     #  DEGREES (SFCON IN DEGINSF )
002883: 23,2257           00000                           OCT      0
002884: 23,2260           10707                           OCT      10707                                 #  GYRO DEGREES
002885: 23,2261           03435                           OCT      03435                                 #              UPPED BY 1
002886: 23,2262           00001                           OCT      00001                                 #  GYRO BIAS DRIFT
002887: 23,2263           02133                           OCT      02133
002888: 23,2264           00011                           OCT      00011                                 #  GYRO AXIS ACCEL. DRIFT
002889: 23,2265           30322                           OCT      30322
002890: 23,2266           00004                           OCT      00004                                 #  PIPA BIAS
002891: 23,2267           14021                           OCT      14021
002892: 23,2270           00314                           OCT      00314                                 #  PIPA SCALE ERROR
002893: 23,2271           31463                           OCT      31463
002894: 23,2272           23420                           OCT      23420                                 #  POSITION
002895: 23,2273           00000                           OCT      00000
002896: 23,2274           00201                           OCT      00201                                 #  VELOCITY
002897: 23,2275           30327                           OCT      30327                                 #  ( POINT BETWEEN BITS 7-8 )
002898: 23,2276           01371                           OCT      01371                                 #  TIME WEEKS
002899: 23,2277           34750                           OCT      34750                                 #  ( POINT BETWEEN BITS 7-8 )
002900: 23,2300           00001                           OCT      00001                                 #  ELEVATION DEGREES
002901: 23,2301           03434                           OCT      03434
002902: 23,2302           00006                           OCT      00006                                 #  RENDEZVOUS RADAR RANGE
002903: 23,2303           20162                           OCT      20162
002904: 23,2304           00011                           OCT      00011                                 #  RENDEZVOUS RADAR RANGE RATE
002905: 23,2305           27066                           OCT      27066
002906: 23,2306           00005                           OCT      00005                                 #  LANDING RADAR ALTITUDE
002907: 23,2307           24733                           OCT      24733
002908: 23,2310           00002                           OCT      00002                                 #  INITIAL/FINAL ALTITUDE
002909: 23,2311           23224                           OCT      23224
002910: 23,2312           00014                           OCT      00014                                 #  ALTITUDE RATE
002911: 23,2313           06500                           OCT      06500
002912: 23,2314           00012                           OCT      00012                                 #  FORWARD/LATERAL VELOCITY
002913: 23,2315           36455                           OCT      36455
002914: 23,2316           04256                           OCT      04256                                 #  ROT HAND CONT ANGLE RATE
002915: 23,2317           07071                           OCT      07071
002916: 23,2320           00011                           OCT      00011                                 #  LANDING RADAR VELX
002917: 23,2321           17410                           OCT      17410


002919: 23,2322           00004                           OCT      00004                                 #  LANDING RADAR VELY
002920: 23,2323           33740                           OCT      33740
002921: 23,2324           00007                           OCT      00007                                 #  LANDING RADAR VELZ
002922: 23,2325           03701                           OCT      03701
002923: 23,2326           00005                           OCT      00005                                 #  OPTICAL AZIMUTH TRACKER ANGLE
002924: 23,2327           21616                           OCT      21616
002925:                                                                                                  #  END OF SFINTAB
002926:
002927:
002928: 23,2330           05174        SFOUTAB            OCT      05174                                 #  WHOLE, TIME(SEC)
002929: 23,2331           13261                           OCT      13261
002930: 23,2332           27670                           OCT      27670                                 #  TIME HOURS
002931: 23,2333           31357                           OCT      31357
002932: 23,2334           00000                           OCT      0                                     #  DEGREES
002933: 23,2335           00000                           OCT      0
002934: 23,2336           00714                           OCT      00714                                 #  GYRO DEGREES
002935: 23,2337           31463                           OCT      31463                                 #  (POINT BETWEEN BITS 7-8)
002936: 23,2340           35753                           OCT      35753                                 #  GYRO BIAS DRIFT
002937: 23,2341           32323                           OCT      32323
002938: 23,2342           03216                           OCT      03216                                 #  GYRO AXIS ACCEL. DRIFT
002939: 23,2343           06400                           OCT      06400
002940: 23,2344           07237                           OCT      07237                                 #  PIPA BIAS
002941: 23,2345           37776                           OCT      37776
002942: 23,2346           00120                           OCT      00120                                 #  PIPA SCALE ERROR
002943: 23,2347           00000                           OCT      00000
002944: 23,2350           00321                           OCT      00321                                 #  POSITION
002945: 23,2351           26706                           OCT      26706                                 #  ( POINT BETWEEN BITS 7-8 )
002946: 23,2352           37441                           OCT      37441                                 #  VELOCITY
002947: 23,2353           14247                           OCT      14247
002948: 23,2354           05300                           OCT      05300                                 #  TIME WEEKS
002949: 23,2355           20305                           OCT      20305
002950: 23,2356           34631                           OCT      34631                                 #  ELEVATION DEGREES
002951: 23,2357           23146                           OCT      23146
002952: 23,2360           04725                           OCT      04725                                 #  RENDEZVOUS RADAR RANGE
002953: 23,2361           35454                           OCT      35454
002954: 23,2362           03225                           OCT      03225                                 #  RENDEZFOUS RADAR RANGE RATE
002955: 23,2363           07470                           OCT      07470
002956: 23,2364           05521                           OCT      05521                                 #  LANDING RADAR ALTITUDE
002957: 23,2365           30260                           OCT      30260
002958: 23,2366           14226                           OCT      14226                                 #  INITIAL/FINAL ALTITUDE
002959: 23,2367           31757                           OCT      31757
002960: 23,2370           02476                           OCT      02476                                 #  ALTITUDE RATE
002961: 23,2371           05531                           OCT      05531
002962: 23,2372           02727                           OCT      02727                                 #  FORWARD/LATERAL VELOCITY
002963: 23,2373           16415                           OCT      16415
002964: 23,2374           00007                           OCT      00007                                 #  ROT HAND CONT ANGLE RATE
002965: 23,2375           13734                           OCT      13734
002966: 23,2376           03277                           OCT      03277                                 #  LANDING RADAR VELX
002967: 23,2377           14165                           OCT      14165


002969: 23,2400           06442                           OCT      06442                                 #  LANDING RADAR VELY
002970: 23,2401           04735                           OCT      04735
002971: 23,2402           04374                           OCT      04374                                 #  LANDING RADAR VELZ
002972: 23,2403           30251                           OCT      30251
002973: 23,2404           05605                           OCT      05605                                 #  OPTICAL TRACKER-AZIMUTH ANGLE
002974: 23,2405           03656                           OCT      03656
002975:                                                                                                  #  END OF SFOUTAB
002976:
002977:
002978:                                                                                                  #  MIXNOUN  SF ROUT
002979: 23,2406           03471        IDADDTAB           ECADR    RSTACK     +18D                       #  01       LANDING RADAR ALTITUDE
002980: 23,2407           03475                           ECADR    RSTACK     +22D                       #  01       SECONDS
002981: 23,2410           03447                           ECADR    RSTACK                                #  02       LANDING RADAR VELX
002982: 23,2411           03453                           ECADR    RSTACK     +4                         #  02       SECONDS
002983: 23,2412           03455                           ECADR    RSTACK     +6                         #  03       LANDING RADAR VELY
002984: 23,2413           03461                           ECADR    RSTACK     +10D                       #  03       SECONDS
002985: 23,2414           03463                           ECADR    RSTACK     +12D                       #  04       LANDING RADAR VELZ
002986: 23,2415           03467                           ECADR    RSTACK     +16D                       #  04       SECONDS
002987: 23,2416           00337                           ECADR    DSPTEM1                               #  05       DEGREES
002988: 23,2417           00340                           ECADR    DSPTEM1    +1                         #  05       ELEVATION DEGREES
002989: 23,2420           03447                           ECADR    RSTACK                                #  06       RENDEZVOUS RADAR RANGE
002990: 23,2421           03451                           ECADR    RSTACK     +2                         #  06       DEGREES
002991: 23,2422           03452                           ECADR    RSTACK     +3                         #  06       DEGREES
002992: 23,2423           03455                           ECADR    RSTACK     +6                         #  07       RENDEZVOUS RADAR RANGE RATE
002993: 23,2424           03457                           ECADR    RSTACK     +8D                        #  07       DEGREES
002994: 23,2425           03460                           ECADR    RSTACK     +9D                        #  07       DEGREES
002995: 23,2426           00351                           ECADR    ALT                                   #  10       INITIAL/FINAL ALTITUDE
002996: 23,2427           00354                           ECADR    FINALT                                #  10       INITIAL/FINAL ALTITUDE
002997: 23,2430           00353                           ECADR    ALTRATE                               #  10       ALTITUDE RATE
002998: 23,2431           00013                           ECADR    SAMPTIME                              #  11       HOURS
002999: 23,2432           00013                           ECADR    SAMPTIME                              #  11       SECONDS
003000: 23,2433           00342                           ECADR    DSPTEM2                               #  12       WHOLE
003001: 23,2434           00343                           ECADR    DSPTEM2    +1                         #  12       FRACTIONAL
003002: 23,2435           00344                           ECADR    DSPTEM2    +2                         #  12       WHOLE
003003: 23,2436           00403                           ECADR    DELVX                                 #  13       GYRO DEGREES
003004: 23,2437           00405                           ECADR    DELVX      +2                         #  13       GYRO DEGREES
003005: 23,2440           00407                           ECADR    DELVX      +4                         #  13       GYRO DEGREES
003006: 23,2441           01475                           ECADR    AZANG                                 #  14       OPT TRACK AZIMUTH ANGLE
003007: 23,2442           01475                           ECADR    ELANG                                 #  14       DEGREES
003008: 23,2443           01475                           ECADR    DESLOTSY                              #  15       OPT TRACK AZIMUTH ANGLE
003009: 23,2444           01475                           ECADR    DESLOTSX                              #  15       DEGREES
003010: 23,2445           02052                           ECADR    DELR                                  #  16       POSITION
003011: 23,2446           02054                           ECADR    DELR       +2                         #  16       POSITION
003012: 23,2447           02056                           ECADR    DELR       +4                         #  16       POSITION
003013: 23,2450           02060                           ECADR    DELVEL                                #  17       VELOCITY
003014: 23,2451           02062                           ECADR    DELVEL     +2                         #  17       VELOCITY
003015: 23,2452           02064                           ECADR    DELVEL     +4                         #  17       VELOCITY
003016: 23,2453           02166                           ECADR    TDEC                                  #  20       TIME WEEKS
003017: 23,2454           02174                           ECADR    MEASQ                                 #  20       POSITION


003019: 23,2455           02200                           ECADR    MEASMODE                              #  20       WHOLE
003020: 23,2456           00337                           ECADR    DSPTEM1                               #  21       POSITION
003021: 23,2457           00341                           ECADR    DSPTEM1    +2                         #  21       VELOCITY
003022: 23,2460           02176                           ECADR    DELTAQ                                #  21       POSITION
003023: 23,2461           00337                           ECADR    DSPTEM1                               #  22       POSITION
003024: 23,2462           00341                           ECADR    DSPTEM1    +2                         #  22       POSITION
003025: 23,2463           00343                           ECADR    DSPTEM1    +4                         #  22       POSITION
003026: 23,2464           00337                           ECADR    DSPTEM1                               #  23       VELOCITY
003027: 23,2465           00341                           ECADR    DSPTEM1    +2                         #  23       VELOCITY
003028: 23,2466           00343                           ECADR    DSPTEM1    +4                         #  23       VELOCITY
003029: 23,2467           00000                           OCT      00000                                 #           SPARE
003030: 23,2470           00000                           OCT      00000                                 #           SPARE
003031: 23,2471           00000                           OCT      00000                                 #           SPARE
003032: 23,2472           00000                           OCT      00000                                 #           SPARE
003033: 23,2473           00000                           OCT      00000                                 #           SPARE
003034: 23,2474           00000                           OCT      00000                                 #           SPARE
003035:                                                                                                  #  END OF IDADDTAB
003036:
003037:                                                                                                  #  MIXNOUN  SF ROUT
003038: 23,2475           00204        RUTMXTAB           OCT      00204                                 #  01  LANDING RADAR ALTITUDE, SECONDS
003039: 23,2476           00204                           OCT      00204                                 #  02  LANDING RADAR VELX, SECONDS
003040: 23,2477           00204                           OCT      00204                                 #  03  LANDING RADAR VELY, SECONDS
003041: 23,2500           00204                           OCT      00204                                 #  04  LANDING RADAR VELZ, SECONDS
003042: 23,2501           00142                           OCT      00142                                 #  05  DEGREES, ELEVATION DEGREES
003043: 23,2502           04104                           OCT      04104                                 #  06  RENDEZVOUS RADAR RANGE, DEG, DEG
003044: 23,2503           04104                           OCT      04104                                 #  07  REND. RADAR RANGE RATE, DEG, DEG
003045: 23,2504           06204                           OCT      06204                                 #  10  INIT/FIN ALT, INIT/FIN ALT, ALT RATE
003046: 23,2505           00205                           OCT      00205                                 #  11  HOURS, SECONDS
003047: 23,2506           06043                           OCT      06043                                 #  12  WHOLE, FRACTIONAL, WHOLE
003048: 23,2507           16347                           OCT      16347                                 #  13  GYRO DEGREES (FOR EACH)
003049: 23,2510           00104                           OCT      00104                                 #  14  OPT TRACK AZIMUTH ANGLE, DEGREES
003050: 23,2511           00104                           OCT      00104                                 #  15  OPT TRACK AZIMUTH ANGLE, DEGREES
003051: 23,2512           16347                           OCT      16347                                 #  16  POSITION (FOR EACH)
003052: 23,2513           12245                           OCT      12245                                 #  17  VELOCITY (FOR EACH)
003053: 23,2514           06345                           OCT      06345                                 #  20  TIME WEEKS, POSITION, WHOLE
003054: 23,2515           16247                           OCT      16247                                 #  21  POSITION, VELOCITY, POSITION
003055: 23,2516           16347                           OCT      16347                                 #  22  POSITION (FOR EACH)
003056: 23,2517           12245                           OCT      12245                                 #  23  VELOCITY (FOR EACH)
003057:                                                                                                  #  END OF RUTMXTAB
003058:


003060:                                                                                                  #  MISCELLANEOUS SERVICE ROUTINES IN FIXED/FIXED
003061:
003062:    4513                                           BLOCK    02
003063:
003064:                                                                                                  #  SETNCADR      E CADR ARRIVES IN A. IT IS STORED IN NOUNCADR. EBANK BITS
003065:                                                                                                  #                ARE SET.  E ADRES IS DERIVED AND PUT INTO NOUNADD.
003066:
003067:    4513           54310        SETNCADR           TS       NOUNCADR                              #  STORE ECADR
003068:    4514           54003                           TS       EBANK                                 #  SET EBANK BITS
003069:    4515           74564                           MASK     LOW8
003070:    4516           65352                           AD       OCT1400
003071:    4517           54135                           TS       NOUNADD                               #  PUT E ADRES INTO NOUNADD
003072:    4520           00002                           TC       Q
003073:
003074:                                                                                                  #  SETNADD       GETS E CADR FROM NOUNCADR, SETS EBANK BITS, DERIVES
003075:                                                                                                  #                E ADRES AND PUTS IT INTO NOUNADD.
003076:
003077:    4521           30310        SETNADD            CA       NOUNCADR
003078:    4522           14514                           TCF      SETNCADR   +1
003079:
003080:                                                                                                  #  SETEBANK      E CADR ARRIVES IN A. EBANK BITS ARE SET. E ADRES IS
003081:                                                                                                  #                DERIVED AND LEFT IN A.
003082:
003083:    4523           54003        SETEBANK           TS       EBANK                                 #  SET EBANK BITS
003084:    4524           74564                           MASK     LOW8
003085:    4525           65352                           AD       OCT1400                               #  E ADRES LEFT IN A
003086:    4526           00002                           TC       Q
003087:
003088:
003089:    4527           00016        R1D1               OCT      16
003090:    4530           00011        R2D1               OCT      11
003091:    4531           00004        R3D1               OCT      4
003092:
003093:    4532           54020        RIGHT5             TS       CYR
003094:    4533           40020                           CS       CYR
003095:    4534           40020                           CS       CYR
003096:    4535           40020                           CS       CYR
003097:    4536           40020                           CS       CYR
003098:    4537           56020                           XCH      CYR
003099:    4540           00002                           TC       Q
003100:
003101:    4541           54022        LEFT5              TS       CYL
003102:    4542           40022                           CS       CYL
003103:    4543           40022                           CS       CYL


003105:    4544           40022                           CS       CYL
003106:    4545           40022                           CS       CYL
003107:    4546           56022                           XCH      CYL
003108:    4547           00002                           TC       Q
003109:
003110:    4550           60000        SLEFT5             DOUBLE
003111:    4551           60000                           DOUBLE
003112:    4552           60000                           DOUBLE
003113:    4553           60000                           DOUBLE
003114:    4554           60000                           DOUBLE
003115:    4555           00002                           TC       Q
003116:
003117:
003118:    4556           00037        LOW5               OCT      37
003119:    4557           01740        MID5               OCT      1740
003120:    4560           76000        HI5                OCT      76000                                 #  MUST STAY HERE
003121:
003122:    4561     5723               TCNOVAC            =        SVCT3      +5
003123:    4561           05663        TCWAIT             TC       WAITLIST
003124:    4562     5717               TCTSKOVR           =        SVCT3      +1
003125:    4562           05516        TCFINDVC           TC       FINDVAC
003126:
003127:
003128:    4563     5210               CHRPRIO            =        PRIO30                                #  EXEC PRIORITY OF CHARIN
003129:
003130:    4563           03777        LOW11              OCT      3777
003131:    4564     4563               B12-1              EQUALS   LOW11
003132:    4564           00377        LOW8               OCT      377
003133:    4565           00023        VD1                OCT      23
003134:    4566           00021        ND1                OCT      21
003135:    4567           00025        MD1                OCT      25
003136:
003137:    4570           00012        BINCON             DEC      10         B-14
003138:
003139:    4571           37755        FALTON             CA       BIT7                                  #  TURN ON OPERATOR ERROR LIGHT.
003140:    4572           00006                           EXTEND
003141:    4573           05011                           WOR      DSALMOUT                              #  BIT 7 OF CHANNEL 11
003142:    4574           00002                           TC       Q
003143:
003144:    4575           47755        FALTOF             CS       BIT7                                  #  TURN OFF OPERATOR ERROR LIGHT
003145:    4576           00006                           EXTEND
003146:    4577           03011                           WAND     DSALMOUT                              #  BIT 7 OF CHANNEL 11
003147:    4600           00002                           TC       Q
003148:
003149:    4601           37757        RELDSPON           CAF      BIT5                                  #  TURN ON KEY RELEASE LIGHT
003150:    4602           00006                           EXTEND
003151:    4603           05011                           WOR      DSALMOUT                              #  BIT 5 OF CHANNEL 11
003152:    4604           00002                           TC       Q
003153:


003155:    4605           00006        LODSAMPT           EXTEND
003156:    4606           30025                           DCA      TIME2
003157:    4607           52014                           DXCH     SAMPTIME
003158:    4610           00002                           TC       Q
003159:
003160:
003161:    4611           00006        TPSL1              EXTEND                                         #  SHIFTS MPAC, +1, +2 LEFT 1
003162:    4612           30146                           DCA      MPAC       +1                         #  LEAVES OVFIND SET TO +/- 1 FOR OF/UF
003163:    4613           20146                           DAS      MPAC       +1
003164:    4614           60144                           AD       MPAC
003165:    4615           26144                           ADS      MPAC
003166:    4616           54007                           TS       7                                     #  TS A DOES NOT CHANGE A ON OF/UF.
003167:    4617           00002                           TC       Q                                     #  NO NET OF/UF
003168:    4620           54111                           TS       OVFIND                                #  MPAC +6 SET TO +/- 1 FOR OF/UF
003169:    4621           00002                           TC       Q
003170:
003171:
003172:    4622           37756        FLASHON            CAF      BIT6                                  #  TURN ON V/N FLASH
003173:    4623           00006                           EXTEND                                         #  BIT 6 OF CHANNEL 11
003174:    4624           05011                           WOR      DSALMOUT
003175:    4625           00002                           TC       Q
003176:
003177:    4626           47756        FLASHOFF           CS       BIT6                                  #  TURN OFF V/N FLASH
003178:    4627           00006                           EXTEND
003179:    4630           03011                           WAND     DSALMOUT                              #  BIT 6 OF CHANNEL 11
003180:    4631           00002                           TC       Q
003181:


003183:                                                                                                  #  INTERNAL ROUTINES THAT USE THE KEYBOARD AND DISPLAY SYSTEM(THRU
003184:                                                                                                  #  NVSUB) MUST  TC GRABDSP  BEFOREHAND , TO GRAB THE DISPLAY SYSTEM AND
003185:                                                                                                  #  MAKE IT BUSY TO OTHER INTERNAL USERS.
003186:
003187:                                                                                                  #        WHEN FINISHED , THERE MUST BE A FREEDSP , TO RELEAS THE
003188:                                                                                                  #  SYSTEM FOR OTHER INTERNAL USERS.
003189:
003190:                                                                                                  #        THE CALLING SEQUENCES ARE
003191:                                                                                                  #  L        TC     GRABDSP
003192:                                                                                                  #  L+1      RETURN HERE WHEN THE SYSTEM IS ALREADY GRABBED
003193:                                                                                                  #  L+2      RETURN HERE MEANS YOU HAVE IT
003194:
003195:                                                                                                  #  L        TC     NVSUB
003196:                                                                                                  #  L+1      RETURN HERE IF THE OPERATOR HAS INTERVENED
003197:                                                                                                  #  L+2      RETURN HERE AFTER EXECUTION
003198:
003199:                                                                                                  #        A ROUTINE CALLED GRABUSY IS PROVIDED (USE IS OPTIONAL) TO PUT YOUR
003200:                                                                                                  #  JOB TO SLEEP UNTIL  THE SYSTEM IS FREED BY THE JOB HOLDING IT.
003201:                                                                                                  #  GRABUSY CANNOT BE CALLED FROM E MEMORY, SINCE JOBSLEEP AND JOBWAKE
003202:                                                                                                  #  HANDLE ONLY FIXED MEMORY.
003203:                                                                                                  #  YOUR CADR IS PUT AT FIRST AVAILABLE SLOT IN A WAITING LIST (FIFO).
003204:
003205:                                                                                                  #        THE CALLING SEQUENCE IS
003206:                                                                                                  #           CAF    WAKEFCADR
003207:                                                                                                  #           TC     GRABUSY
003208:
003209:                                                                                                  #        A ROUTINE CALLED  NVSUBUSY IS PROVIDED (USE IS OPTIONAL)  TO PUT
003210:                                                                                                  #  YOUR JOB TO SLEEP UNTIL THE OPERATOR RELEASES IT.
003211:                                                                                                  #  NVSUBUSY CANNOT BE CALLED FROM E MEMORY, SINCE JOBSLEEP AND JOBWAKE
003212:                                                                                                  #  HANDLE ONLY FIXED MEMORY
003213:                                                                                                  #                                              YOUR CADR IS PUT
003214:                                                                                                  #  ON TOP OF A WAITING LIST (FIFO).  IT ALSO TURNS ON KEY RELEASE LIGHT.
003215:
003216:                                                                                                  #         THE CALLING SEQUENCE IS
003217:                                                                                                  #           CAF    WAKEFCADR
003218:                                                                                                  #           TC     NVSUBUSY
003219:
003220:
003221:                                                                                                  #  AFTER A TC FREEDSP, THE INTERNAL INTERLOCK IS KEPT BUSY FOR 1.75 SECS.
003222:                                                                                                  #  AFTER WHICH A CADR IS CALLED FROM THE LIST. THIS INSURES THAT ALL
003223:                                                                                                  #  DISPLAYS WAITING WILL BE VISIBLE.
003224:
003225:
003226:                                                                                                  #  GRABLOCK IS THE INTERNAL INTERLOCK FOR THE USE OF THE KEYBOARD
003227:                                                                                                  #  AND DISPLAY SYSTEM.
003228:                                                                                                  #  +0  FREE


003230:                                                                                                  #  +1  SOME INTERNAL ROUTINE HAS GRABBED DSP SYST
003231:                                                                                                  #  +2  SOME INTERNAL ROUTINE HAS GONE TO NVSUBUSY
003232:
003233:    4632           10330        GRABDSP            CCS      GRABLOCK
003234:    4633           00002                           TC       Q                                     #  ALREADY GRABBED, RETURN TO L+1
003235:    4634           37763                           CAF      ONE                                   #  NOT GRABBED, SET TO +1
003236:    4635           54330                           TS       GRABLOCK                              #  AND RETURN TO L+2
003237:    4636           17015                           TCF      Q+1
003238:
003239:
003240:    4637           35337        PREGBSY            CAF      LOW10                                 #  SPECIAL ENTRANCE FOR ROUTINES IN FIXED
003241:    4640           70002                           MASK     Q                                     #  BANKS ONLY DESIRING THE FCADR OF
003242:    4641           60004                           AD       FBANK                                 #  1 + (LOC FROM WHICH TC PREGBSY WAS DONE)
003243:    4642           05225        GRABUSY            TC       POSTJUMP                              #  TO BE ENTERED.
003244:    4643           10000                           CADR     GRABUSYB
003245: 04,3472                                           SETLOC   DOPROC     +2
003246: 04,3472           54001        GRABUSY1           TS       L
003247: 04,3473           10330                           CCS      GRABLOCK
003248: 04,3474           03477                           TC       +3                                    #  STILL GRABBED
003249: 04,3475           30001                           CA       L                                     #  NOT GRABBED SO DO DIRECT CALL
003250: 04,3476           05230                           TC       BANKJUMP
003251: 04,3477           37762                           CAF      TWO
003252: 04,3500           54134                           TS       LSTPTR
003253: 04,3501           50134                           INDEX    LSTPTR                                #  SEARCH LIST FOR FIRST AVAILABLE SPACE
003254: 04,3502           10333                           CCS      DSPLIST                               #  FROM BOTTOM.
003255: 04,3503           03505                           TC       +2
003256: 04,3504           03510                           TC       PUTINLST                              #  SPACE FOUND
003257: 04,3505           10134                           CCS      LSTPTR                                #  DECREMENT POINTER
003258: 04,3506           03500                           TC       -6
003259: 04,3507           03554                           TC       LSTFULL
003260: 04,3510           30001        PUTINLST           CA       L
003261: 04,3511           50134                           INDEX    LSTPTR
003262: 04,3512           54333                           TS       DSPLIST
003263: 04,3513           05545                           TC       JOBSLEEP
003264:
003265:
003266:                                                                                                  #  GRABWAIT IS A SPECIAL ENTRANCE FOR ROUTINES IN FIXED BANKS ONLY. IF
003267:                                                                                                  #  SYSTEM IS NOT GRABBED, IT GRABS IT AND RETURNS TO L+1 (L = LOC FROM
003268:                                                                                                  #  WHICH THE TC GRABWAIT WAS DONE). IF SYSTEM IS GRABBED, IT PUTS CALLING
003269:                                                                                                  #  JOB TO SLEEP WITH L+1 GOING INTO LIST FOR EVENTUAL WAKING UP WHEN
003270:                                                                                                  #  SYSTEM IS FREED.
003271:
003272:    4644                                           SETLOC   GRABUSY    +2
003273:    4644           10330        GRABWAIT           CCS      GRABLOCK
003274:    4645           14637                           TCF      PREGBSY                               #  GRABBED. PUT L+1 INTO LIST. GO TO SLEEP.
003275:    4646           37763                           CAF      ONE                                   #  NOT GRABBED. GRAB AND RETURN TO L+1.


003277:    4647           54330                           TS       GRABLOCK
003278:    4650           00002                           TC       Q
003279:
003280:
003281:    4651           44656        PRENVBSY           CS       2K+3                                  #  SPECIAL ENTRANCE FOR ROUTINES IN FIXED
003282:    4652           60002                           AD       Q                                     #  BANKS ONLY DESIRING THE FCADR OF (LOC
003283:    4653           60004                           AD       FBANK                                 #  FROM WHICH THE TC PRENVBSY WAS DONE) -2
003284:    4654           05225        NVSUBUSY           TC       POSTJUMP                              #  TO BE ENTERED.
003285:    4655           10001                           CADR     NVSUBSYB
003286:    4656           02003        2K+3               OCT      2003
003287:
003288: 04,3514                                           SETLOC   PUTINLST   +4
003289: 04,3514           54001        NVSUBSY1           TS       L
003290: 04,3515           10303                           CCS      DSPLOCK                               #  TEST IF REALLY LOCKED OUT
003291: 04,3516           03521                           TC       +3                                    #  STILL BUSY
003292: 04,3517           30001                           CA       L                                     #  DSPLOCK = +0 SO RETURN DIRECTLY
003293: 04,3520           05230                           TC       BANKJUMP
003294: 04,3521           37762                           CAF      TWO                                   #  SET FOR GRABBED STATE AND NVSUBUSY USE
003295: 04,3522           54330                           TS       GRABLOCK
003296: 04,3523           30001                           CA       L
003297: 04,3524           56335                           XCH      DSPLIST    +2                         #  ENTER CADR INTO FIRST POSITION OF LIST
003298: 04,3525           56334                           XCH      DSPLIST    +1                         #          (BOTTOM)
003299: 04,3526           56333                           XCH      DSPLIST
003300: 04,3527           10000                           CCS      A
003301: 04,3530           03554                           TC       LSTFULL
003302: 04,3531           03533                           TC       +2
003303: 04,3532           03554                           TC       LSTFULL
003304: 04,3533           04601                           TC       RELDSPON
003305: 04,3534           30001                           CA       L
003306: 04,3535           05545        ENDNVBSY           TC       JOBSLEEP
003307:
003308:
003309:                                                                                                  #  NVSBWAIT IS A SPECIAL ENTRANCE FOR ROUTINES IN FIXED BANKS ONLY. IF
003310:                                                                                                  #  SYSTEM IS NOT BUSY, IT EXECUTES V/N AND RETURNS TO L+1 (L= LOC FROM
003311:                                                                                                  #  WHICH THE TC NVSBWAIT WAS DONE). IF SYSTEM IS BUSY, IT PUTS CALLING JOB
003312:                                                                                                  #  TO SLEEP WITH L-1 GOING INTO LIST FOR EVENTUAL WAKING UP WHEN SYSTEM
003313:                                                                                                  #  IS NOT BUSY.
003314:
003315:    4657                                           SETLOC   NVSUBUSY   +3
003316:    4657           54113        NVSBWAIT           TS       NVTEMP
003317:    4660           10303                           CCS      DSPLOCK
003318:    4661           14664                           TCF      NVSBWT1                               #  BUSY
003319:    4662           30002                           CA       Q                                     #  FREE. NVSUB WILL SAVE L+1 FOR RETURN
003320:    4663           14451                           TCF      NVSUB      +5                         #  AFTER EXECUTION.
003321:    4664           24002        NVSBWT1            INCR     Q                                     #  L+2. PRENVBSY WILL PUT L-1 INTO LIST AND
003322:    4665           14651                           TCF      PRENVBSY                              #  GO TO SLEEP.
003323:


003325:    4666           56002        RELDSP             XCH      Q                                     #  SET DSPLOCK TO +0, TURN RELDSP LIGHT
003326:    4667           54134                           TS       RELRET                                #  OFF, SEARCH DSPLIST
003327:    4670           37771                           CAF      NEG1
003328:    4671           60330                           AD       GRABLOCK
003329:    4672           00006                           EXTEND                                         #  SEARCH LIST ONLY IF GRABLOCK = +2
003330:    4673           64701                           BZMF     RELDSP2                               #    (SOMEONE USED NVSUBUSY)
003331:    4674           04714                           TC       WKSEARCH
003332:    4675           04701                           TC       RELDSP2                               #  LIST EMPTY
003333:    4676           05551                           TC       JOBWAKE                               #  LIST NOT EMPTY
003334:    4677           37763                           CAF      ONE
003335:    4700           54330                           TS       GRABLOCK
003336:    4701           00004        RELDSP2            INHINT
003337:    4702           47757                           CS       BIT5                                  #  TURN OFF KEY RELEASE LIGHT
003338:    4703           00006                           EXTEND                                         #  (BIT 5 OF CHANNEL 11)
003339:    4704           03011                           WAND     DSALMOUT
003340:    4705           37767                           CAF      ZERO
003341:    4706           54303                           TS       DSPLOCK
003342:    4707           00003                           RELINT
003343:    4710           00134                           TC       RELRET
003344:    4711           56002        RELDSP1            XCH      Q                                     #  SET DSPLOCK TO +0. NO DSPLIST SEARCH.
003345:    4712           54134                           TS       RELRET                                #  NO LIST SEARCH
003346:    4713           04701                           TC       RELDSP2
003347:
003348:
003349:    4714           37767        WKSEARCH           CAF      ZERO                                  #  SEARCHES LIST. LEAVES RESULT IN A.
003350:    4715           56333                           XCH      DSPLIST                               #  IF EMPTY, RETURN TO L+1.
003351:    4716           56334                           XCH      DSPLIST    +1                         #  IF NOT EMPTY, INHINT AND RETURN TO L+2.
003352:    4717           56335                           XCH      DSPLIST    +2
003353:    4720           00006                           EXTEND
003354:    4721           17020                           BZF      TCQ                                   #  EMPTY, RETURN TO L+1
003355:    4722           00004                           INHINT                                         #  NOT EMPTY
003356:    4723           17015                           TCF      Q+1                                   #  RETURN TO L+2
003357:
003358:    4724           56002        FREEDSP            XCH      Q
003359:    4725           54134                           TS       FREERET
003360:    4726           00004                           INHINT
003361:    4727           34735                           CAF      SHOTIME
003362:    4730           05663                           TC       WAITLIST
003363:    4731     0270                                  EBANK=   DSPCOUNT
003364:    4731           03536 10060                     2CADR    FREEWAIT
003365:
003366:    4733           00003                           RELINT
003367:    4734           00134                           TC       FREERET
003368:
003369:    4735           00257        SHOTIME            DEC      175        B-14                       #  SET FOR 1.75 SECS FOR 501
003370: 04,3536                                           SETLOC   ENDNVBSY   +1
003371:


003373: 04,3536           35210        FREEWAIT           CAF      CHRPRIO                               #  CALLED BY T3RUPT
003374: 04,3537           05505                           TC       NOVAC
003375: 04,3540     0270                                  EBANK=   DSPCOUNT
003376: 04,3540           03543 10060                     2CADR    FREDSPDO
003377:
003378: 04,3542           05727                           TC       TASKOVER
003379:
003380:
003381: 04,3543           04714        FREDSPDO           TC       WKSEARCH                              #  CALLED BY EXECUTIVE
003382: 04,3544           03552                           TC       LSTEMPTY                              #  LIST EMPTY
003383: 04,3545           05551                           TC       JOBWAKE                               #  LIST NOT EMPTY
003384: 04,3546           00003                           RELINT
003385: 04,3547           37763                           CAF      ONE                                   #  SET FOR GRABBED CONDITION
003386: 04,3550           54330                           TS       GRABLOCK
003387: 04,3551           05567                           TC       ENDOFJOB
003388: 04,3552           37767        LSTEMPTY           CAF      ZERO                                  #  SET FOR FREE CONDITION
003389: 04,3553           03550                           TC       -3
003390:
003391:
003392: 04,3554           06000        LSTFULL            TC       ABORT
003393: 04,3555           01206                           OCT      01206                                 #  PINBALL WAITING LINE FULL.
003394:


003396:                                                                                                  #  VBTSTLTS TURNS ON ALL DISPLAY PANEL LIGHTS. AFTER 5 SEC, IT TURNS
003397:                                                                                                  #  OFF THE CAUTION AND STATUS LIGHTS.
003398:
003399: 05,3414                                           SETLOC   DSPMMEND   +1
003400:
003401: 05,3414           00004        VBTSTLTS           INHINT
003402: 05,3415           47763                           CS       BIT1                                  #  SET BIT 1 OF IMODES33 SO IMUMON WONT
003403: 05,3416           70366                           MASK     IMODES33                              #  TURN OUT ANY LAMPS.
003404: 05,3417           67763                           AD       BIT1
003405: 05,3420           54366                           TS       IMODES33
003406:
003407: 05,3421           33457                           CAF      TSTCON1                               #  TURN ON UPLINK ACTIVITY, TEMP, KEY RLSE,
003408: 05,3422           00006                           EXTEND                                         #  V/N FLASH, OPERATOR ERROR.
003409: 05,3423           05011                           WOR      DSALMOUT
003410: 05,3424           33460                           CAF      TSTCON2                               #  TURN ON NO ATT, GIMBAL LOCK, TRACKER,
003411: 05,3425           54326                           TS       DSPTAB     +11D                       #  PROG ALM.
003412: 05,3426           37752                           CAF      BIT10                                 #  TURN ON TEST ALARM OUTBIT
003413: 05,3427           00006                           EXTEND
003414: 05,3430           05013                           WOR      CHAN13
003415: 05,3431           34570                           CAF      TEN
003416: 05,3432           54107        TSTLTS1            TS       ERCNT
003417: 05,3433           43455                           CS       FULLDSP
003418: 05,3434           50107                           INDEX    ERCNT
003419: 05,3435           54313                           TS       DSPTAB
003420: 05,3436           10107                           CCS      ERCNT
003421: 05,3437           03432                           TC       TSTLTS1
003422: 05,3440           43456                           CS       FULLDSP1
003423: 05,3441           54314                           TS       DSPTAB     +1                         #  TURN ON 3 PLUS SIGNS
003424: 05,3442           54317                           TS       DSPTAB     +4
003425: 05,3443           54321                           TS       DSPTAB     +6
003426: 05,3444           37764                           CAF      ELEVEN
003427: 05,3445           54307                           TS       NOUT
003428: 05,3446           00003                           RELINT
003429: 05,3447           33462                           CAF      SHOLTS
003430: 05,3450           00004                           INHINT
003431: 05,3451           05663                           TC       WAITLIST
003432: 05,3452     0313                                  EBANK=   DSPTAB
003433: 05,3452           03463 12060                     2CADR    TSTLTS2
003434:
003435: 05,3454           05567                           TC       ENDOFJOB                              #  DSPLOCK IS LEFT BUSY (FROM KEYBOARD
003436:                                                                                                  #  ACTION) UNTIL TSTLTS3 TO INSURE THAT
003437:                                                                                                  #  LIGHTS TEST WILL BE SEEN.
003438:
003439: 05,3455           05675        FULLDSP            OCT      05675                                 #  DISPLAY ALL 8'S
003440: 05,3456           07675        FULLDSP1           OCT      07675                                 #  DISPLAY ALL 8'S AND +
003441: 05,3457           00175        TSTCON1            OCT      00175
003442:                                                                                                  #  UPLINK ACTIVITY, TEMP. KEY RLSE,
003443:                                                                                                  #  V/N FLASH, OPERATOR ERROR.


003445: 05,3460           40650        TSTCON2            OCT      40650                                 #  DSPTAB+11D BITS 3,4,6,8,9.
003446:                                                                                                  #  NO ATT, GIMBAL LOCK, TRACKER, PROG ALM.
003447: 05,3461           00115        TSTCON3            OCT      00115                                 #  CHAN 11 BITS 1, 3, 4, 7.
003448:                                                                                                  #  UPLINK ACITIVY, TEMP, OPERATOR ERROR.
003449: 05,3462           00764        SHOLTS             OCT      764                                   #  5 SEC
003450:
003451: 05,3463           35210        TSTLTS2            CAF      CHRPRIO                               #  CALLED BY WAITLIST
003452: 05,3464           05505                           TC       NOVAC
003453: 05,3465     0313                                  EBANK=   DSPTAB
003454: 05,3465           03470 12060                     2CADR    TSTLTS3
003455:
003456: 05,3467           05727                           TC       TASKOVER
003457:
003458:
003459: 05,3470           43461        TSTLTS3            CS       TSTCON3                               #  CALLED BY EXECUTIVE
003460: 05,3471           00004                           INHINT
003461: 05,3472           00006                           EXTEND                                         #  TURN OFF  UPLINK ACTIVITY, TEMP,
003462: 05,3473           03011                           WAND     DSALMOUT                              #  OPERATOR ERROR.
003463: 05,3474           47752                           CS       BIT10                                 #  TURN OFF  TEST ALARM OUTBIT
003464: 05,3475           00006                           EXTEND
003465: 05,3476           03013                           WAND     CHAN13
003466: 05,3477           37745                           CAF      BIT15                                 #  TURN OFF AUTO, HOLD, FREE, NO ATT, SPARE
003467: 05,3500           54326                           TS       DSPTAB     +11D                       #  GIMBAL LOCK, SPARE, TRACKER, PROG ALM
003468: 05,3501           43521                           CS       13-11,1                               #  SET BITS TO INDICATE ALL LAMPS OUT. TEST
003469: 05,3502           70366                           MASK     IMODES33                              #  LIGHTS COMPLETE.
003470: 05,3503           65642                           AD       PRIO16
003471: 05,3504           54366                           TS       IMODES33
003472:
003473: 05,3505           43523                           CS       OCT55000
003474: 05,3506           70365                           MASK     IMODES30
003475: 05,3507           65641                           AD       PRIO15                                #  15000.
003476: 05,3510           54365                           TS       IMODES30
003477:
003478: 05,3511           43522                           CS       RFAILS2
003479: 05,3512           70412                           MASK     RADMODES
003480: 05,3513           67755                           AD       BIT7
003481: 05,3514           54412                           TS       RADMODES
003482:
003483: 05,3515           00003                           RELINT
003484:
003485: 05,3516           02001                           TC       DSPMM                                 #  REDISPLAY C(MODREG)
003486: 05,3517           05225                           TC       POSTJUMP                              #  TURN OFF KEY RLSE LIGHT (AND SEARCH LIST
003487: 05,3520           11333                           CADR     VBTERM                                #  IF APPROPRIATE).
003488:                                                                                                  #  TURN OFF V/N FLASH, SET LOADSTAT FOR
003489:                                                                                                  #  TERMINATE CONDITION, AND TO TO
003490:                                                                                                  #  RECALTST. FINALLY DO TC ENDOFJOB.
003491:


003493: 05,3521           16001        13-11,1            OCT      16001
003494: 05,3522           00330        RFAILS2            OCT      330                                   #  RADAR CDU AND DATA FAIL FLAGS.
003495: 05,3523           55000        OCT55000           OCT      55000

End of include-file PINBALL_GAME_BUTTONS_AND_LIGHTS.agc.  Parent file is MAIN.agc


