
Source Code


000002:                                                                                                  ## Copyright:    Public domain.
000003:                                                                                                  ## Filename:     PIPA_READER.agc
000004:                                                                                                  ## Purpose:      A module for revision 0 of BURST120 (Sunburst). It
000005:                                                                                                  ##               is part of the source code for the Lunar Module's
000006:                                                                                                  ##               (LM) Apollo Guidance Computer (AGC) for Apollo 5.
000007:                                                                                                  ## Assembler:    yaYUL
000008:                                                                                                  ## Contact:      Ron Burkey <info@sandroid.org>.
000009:                                                                                                  ## Website:      www.ibiblio.org/apollo/index.html
000010:                                                                                                  ## Mod history:  2016-09-30 RSB  Created draft version.
000011:                                                                                                  ##               2016-10-29 MAS  Adapted from Luminary 099.
000012:                                                                                                  ##               2016-10-31 RSB  Typos.
000013:                                                                                                  ##               2016-12-06 RSB  Comment-proofing via octopus/ProoferComments;
000014:                                                                                                  ##                               changes were made.
000015:


000017:                                                                                                  #  *****  PIPA READER *****
000018:
000019:                                                                                                  #                  MOD NO. 00  BY D. LICKLY  DEC.9 1966
000020:
000021:                                                                                                  #  FUNCTIONAL DESCRIPTION
000022:
000023:                                                                                                  #     SUBROUTINE TO READ PIPA COUNTERS, TRYING TO BE VERY CAREFUL SO THAT IT WILL BE RESTARTABLE.
000024:                                                                                                  #     PIPA READINGS ARE STORED IN THE VECTOR DELV. THE HIGH ORDER PART OF EACH COMPONENT CONTAINS THE PIPA READING,
000025:                                                                                                  #     RESTARTS BEGIN AT REREADAC.
000026:
000027:
000028:                                                                                                  #     AT THE END OF THE PIPA READER THE CDUS ARE READ AND STORED AS A
000029:                                                                                                  #  VECTOR IN CDUTEMP.  THE HIGH ORDER PART OF EACH COMPONENT CONTAINS
000030:                                                                                                  #  THE CDU READING IN 25 COMP IN THE ORDER CDUX,Y,Z.  THE THRUST
000031:                                                                                                  #  VECTOR ESTIMATOR IN FINDCDUD REQUIRES THE CDUS BE READ AT PIPTIME.
000032:
000033:                                                                                                  #  CALLING SEQUENCE AND EXIT
000034:
000035:                                                                                                  #     CALL VIA TC, ISWCALL, ETC.
000036:
000037:                                                                                                  #     EXIT IS VIA Q.
000038:
000039:
000040:                                                                                                  #  INPUT
000041:
000042:                                                                                                  #     INPUT IS THROUGH THE COUNTERS PIPAX, PIPAY, PIPAZ, AND TIME2.
000043:
000044:                                                                                                  #  OUTPUT
000045:
000046:                                                                                                  #     HIGH ORDER COMPONENTS OF THE VECTOR DELV CONTAIN THE PIPA READINGS.
000047:                                                                                                  #     PIPTIME CONTAINS TIME OF PIPA READING.
000048:
000049:
000050:                                                                                                  #  DEBRIS (ERASABLE LOCATIONS DESTROYED BY PROGRAM)
000051:
000052:                                                                                                  #           TEMX   TEMY   TEMZ   PIPAGE
000053:
000054:
000055: 30,2574                                           BANK     30
000056: 30,2574           00006        PIPASR             EXTEND
000057: 30,2575           30025                           DCA      TIME2
000058: 30,2576           53307                           DXCH     PIPTIME                               #  CURRENT TIME  POSITIVE VALUE.
000059:
000060: 30,2577           47767                           CS       ZERO                                  #  INITIALIZE THESE AT NEG ZERO.
000061: 30,2600           55155                           TS       TEMX
000062: 30,2601           55156                           TS       TEMY
000063: 30,2602           55157                           TS       TEMZ
000064:


000066: 30,2603           37767                           CA       ZERO
000067: 30,2604           54407                           TS       DELVZ                                 #  OTHER DELVS OK INCLUDING LOW ORDER
000068: 30,2605           54405                           TS       DELVY
000069:
000070: 30,2606           55331                           TS       CDUTEMP    +1                         #  INITIALIZE THESE FOR FINDCDUD
000071: 30,2607           55333                           TS       CDUTEMP    +3
000072: 30,2610           55335                           TS       CDUTEMP    +5
000073:
000074: 30,2611           55161                           TS       PIPAGE                                #  SHOW PIPA READING IN PROGRESS
000075:
000076: 30,2612           00006        REPIP1             EXTEND
000077: 30,2613           40040                           DCS      PIPAX                                 #  X AND Y PIPS READ
000078: 30,2614           53156                           DXCH     TEMX
000079: 30,2615           52040                           DXCH     PIPAX                                 #  PIPAS SET TO NEG ZERO AS READ.
000080: 30,2616           54403                           TS       DELVX
000081: 30,2617           22405                           LXCH     DELVY
000082:
000083: 30,2620           40041        REPIP3             CS       PIPAZ                                 #  REPEAT PROCESS FOR Z PIP
000084: 30,2621           57157                           XCH      TEMZ
000085: 30,2622           56041                           XCH      PIPAZ
000086: 30,2623           54407        DODELVZ            TS       DELVZ
000087:
000088: 30,2624           30032        REPIP4             CA       CDUX                                  #  READ CDUS INTO HIGH ORDER CDUTEMPS
000089: 30,2625           55330                           TS       CDUTEMP
000090: 30,2626           30033                           CA       CDUY
000091: 30,2627           55332                           TS       CDUTEMP    +2
000092: 30,2630           30034                           CA       CDUZ
000093: 30,2631           55334                           TS       CDUTEMP    +4
000094:
000095: 30,2632           00002                           TC       Q
000096:
000097:
000098:
000099: 30,2633           11110        REREADAC           CCS      PHASE5                                #  COMES HERE ON RESARTS.   IS PHASE 5 ON?
000100: 30,2634           12636                           TCF      +2                                    #  YES..  GO ON.
000101: 30,2635           15727                           TCF      TASKOVER                              #  NO.. HAVE BEEN TO AVGEND SINCE GOJAM.
000102:
000103: 30,2636           11161                           CCS      PIPAGE                                #  WAS 1 READING THE PIPS WHEN GOJAM OCCURD
000104: 30,2637           12064                           TCF      PIPREAD                               #  PIP READING NOT STARTED. GO TO BEGINNING
000105: 30,2640           32676                           CAF      DONEADR                               #  SET UP RETURN FROM PIPASR
000106: 30,2641           54002                           TS       Q
000107:
000108: 30,2642           10407                           CCS      DELVZ
000109: 30,2643           12624                           TCF      REPIP4                                #  Z DONE, GO DO CDUS
000110: 30,2644           12647                           TCF      +3                                    #  Z NOT DONE, CHECK Y.
000111: 30,2645           12624                           TCF      REPIP4
000112: 30,2646           12624                           TCF      REPIP4
000113:
000114: 30,2647           22007                           ZL
000115: 30,2650           10405                           CCS      DELVY


000117: 30,2651           12654                           TCF      +3
000118: 30,2652           12663                           TCF      CHKTEMX                               #  Y NOT DONE, CHECK X.
000119: 30,2653           12654                           TCF      +1
000120: 30,2654           22041                           LXCH     PIPAZ                                 #  Y DONE, ZERO Z PIP.
000121:
000122: 30,2655           11157                           CCS      TEMZ
000123: 30,2656           41157                           CS       TEMZ                                  #  TEMZ NOT = -0, CONTAINS -PIPAZ VALUE.
000124: 30,2657           12623                           TCF      DODELVZ
000125: 30,2660           12656                           TCF      -2
000126: 30,2661           22407                           LXCH     DELVZ                                 #  TEMZ = -0, L HAS ZPIP VALUE.
000127: 30,2662           12624                           TCF      REPIP4
000128:
000129: 30,2663           11155        CHKTEMX            CCS      TEMX                                  #  HAS THIS CHANGED
000130: 30,2664           41155                           CS       TEMX                                  #  YES
000131: 30,2665           12670                           TCF      +3                                    #  YES
000132: 30,2666           12664                           TCF      -2                                    #  YES
000133: 30,2667           12612                           TCF      REPIP1                                #  NO
000134: 30,2670           54403                           TS       DELVX
000135:
000136: 30,2671           41156                           CS       TEMY
000137: 30,2672           54405                           TS       DELVY
000138:
000139: 30,2673           47767                           CS       ZERO                                  #  ZERO X AND Y PIPS
000140: 30,2674           52040                           DXCH     PIPAX                                 #  L STILL ZERO FROM ABOVE
000141:
000142: 30,2675           12620                           TCF      REPIP3
000143:
000144: 30,2676           02065        DONEADR            GENADR   PIPSDONE

End of include-file PIPA_READER.agc.  Parent file is MAIN.agc


