
Source Code


000002:                                                                                                  ## Copyright:    Public domain.
000003:                                                                                                  ## Filename:     PREBURN_FOR_APS2.agc
000004:                                                                                                  ## Purpose:      A module for revision 0 of BURST120 (Sunburst). It
000005:                                                                                                  ##               is part of the source code for the Lunar Module's
000006:                                                                                                  ##               (LM) Apollo Guidance Computer (AGC) for Apollo 5.
000007:                                                                                                  ## Assembler:    yaYUL
000008:                                                                                                  ## Contact:      Ron Burkey <info@sandroid.org>.
000009:                                                                                                  ## Website:      www.ibiblio.org/apollo/index.html
000010:                                                                                                  ## Mod history:  2016-09-30 RSB  Created draft version.
000011:                                                                                                  ##               2016-10-28 HG   Transcribed
000012:                                                                                                  ##               2016-10-31 RSB  Typos
000013:                                                                                                  ##               2016-12-06 RSB  Comment proofing via octopus/ProoferComments
000014:                                                                                                  ##                               performed, and changes made.
000015:


000017:                                                                                                  #       PREAPS2 IS A PROGRAM WHICH INITIALIZED **ASCENT** FOR THE 2ND APS
000018:                                                                                                  #  BURN. IT USES RN AND VN(TIG), PROVIDED BY MIDTOAVE THROUGH MP13, TO COM-
000019:                                                                                                  #  PUTE THE P, Q, AND S AXES FOR TRANSFORMATIONS, SETS 3 SWITCHES FOR PRO-
000020:                                                                                                  #  PER MODING OF ASCENT, AND TRANSFERS DATA FROM FIXED TO ERASABLE FOR USE
000021:                                                                                                  #  AS NOMINALS AT TIG.
000022:                                                                                                  #       IT CALLS ASCENT ONCE TO PROVIDE UT AT IGNITION, AND THEN RESETS THE
000023:                                                                                                  #  EXIT FROM ASCENT TO GO TO FINDCDUD ON SUBSEQUENT ASCENT ENTRIES.
000024:
000025: 32,2000                                           BANK     32
000026: 32,2000  E4,1400                                  EBANK=   PAXIS1
000027: 32,2000           53447        PREAPS2            DXCH     RRETURN
000028: 32,2001           35644                           CA       PRIO21                                #  GIVE LAMBERT A HIGHER PRIORITY THAN
000029: 32,2002           55451                           TS       LAMPRIO                               #  ASCENT, SO IT WILL FINISH.
000030: 32,2003           06112                           TC       INTPRET
000031: 32,2004           77624                           CALL
000032: 32,2005           60436                                    VPATCHER
000033: 32,2006           77775                           VLOAD
000034: 32,2007           01011                                    RN                                    #  LOAD RN*2(N-29)
000035: 32,2010           53435                           VXV      UNIT                                  #  RN X VN*2(N-36)
000036: 32,2011           01017                                    VN                                    #  SAXIS*2(-1)
000037: 32,2012           02015                           STORE    SAXIS                                 #  STORE SAXIS
000038: 32,2013           76435                           VXV      VSL1                                  #  S X UR*2(-2)=Q1*2(-2), NORM TO S AND R
000039: 32,2014           01033                                    UNITR                                 #  Q1*2(-1)
000040: 32,2015           63361                           VXSC     PDVL                                  #  Q1* COS27*2(-1)
000041: 32,2016           03602                                    COS27                                 #  IN PDL(0)*2(-1)                          2
000042: 32,2017           01033                                    UNITR                                 #  LOAD UR*2(-1)
000043: 32,2020           51361                           VXSC     BVSU                                  #  UR SIN27*2(-1)
000044: 32,2021           03604                                    SIN27                                 #  Q1 COS27-UR SIN27 = Q
000045: 32,2022           77626                           STADR                                          #                                           0
000046: 32,2023           75770                           STORE    QAXIS                                 #  STORE QAXIS
000047: 32,2024           76435                           VXV      VSL1                                  #  Q X S*2(-2) = P*2(-2)
000048: 32,2025           02015                                    SAXIS                                 #  P*2(-1)
000049: 32,2026           26001                           STOVL    PAXIS1                                #  STORE PAXIS
000050: 32,2027           24111                                    ENGNOM                                #  LOAD NOMINAL AT,VE,TBUP
000051: 32,2030           26023                           STOVL    AT                                    #  STORE IN ERASE
000052: 32,2031           24117                                    PREIGN                                #  LOAD NOM, 1/DV1, 1/DV2, 1/DV3.
000053: 32,2032           16031                           STODL    ATMEAS                                #  STORE IN ERASE
000054: 32,2033           26641                                    DP.5
000055: 32,2034           16061                           STODL    KR                                    #  LOAD PITCH LIMITING PARAMETER
000056: 32,2035           26643                                    DP0                                   #  LOAD 0
000057: 32,2036           26037                           STOVL    KR1                                   #  STORE IN KR1
000058: 32,2037           03606                                    VCONOM                                #  LOAD NOM. RDOTD,YDOTD,ZDOTD
000059: 32,2040           16041                           STODL    RDOTD
000060: 32,2041           03576                                    VTO-APS
000061: 32,2042           02057                           STORE    VTO
000062: 32,2043           71331                           SSP      DLOAD
000063: 32,2044           02051                                    ASCRET
000064: 32,2045           64067                                    PRAPS                                 #  LOAD RETURN ADD. FROM ASCENT
000065: 32,2046           03600                                    TGONOM
000066: 32,2047           02141                           STORE    TGO                                   #  TGO$2(-17)
000067:


000069: 32,2050           43261                           SR       DAD
000070: 32,2051           20614                                    11D                                   #  TGO$2(-28)
000071: 32,2052           02377                                    TIGNTION
000072: 32,2053           02053                           STORE    TCO                                   #  TCO$2(-28)
000073: 32,2054           43014                           SET      CLEAR
000074: 32,2055           02067                                    DIRECT                                #  DIRECT=1
000075: 32,2056           02266                                    BAKTO4                                #  BAKTO4 = 0
000076: 32,2057           77614                           SET                                            #  TO AVOID CLOBBERING TCO DURING PREBURN
000077: 32,2060           02070                                    PASS
000078: 32,2061           43014                           CLEAR    SET                                   #  CLEAR GUESSW FOR NO COGAVAIL
000079: 32,2062           02263                                    GUESSW
000080: 32,2063           02061                                    DONESW                                #  TO START LAMBERT
000081: 32,2064           52014                           CLEAR    GOTO
000082: 32,2065           02271                                    HC                                    #  HC=0
000083: 32,2066           64125                                    ASCENT                                #  GO TO ASCENT EQUATIONS
000084: 32,2067           43175        PRAPS              VLOAD    SET
000085: 32,2070           02233                                    AXISD
000086: 32,2071           02063                                    GUESSW                                #  SET GUESSW FOR COGAVAIL
000087: 32,2072           25656                           STOVL    POINTVSM                              #  STORE FOR CALCMANU
000088: 32,2073           26641                                    BODYVECT                              #  LOAD UNIT X-AXIS
000089: 32,2074           01664                           STORE    SCAXIS                                #  STORE FOR CALCMANU
000090: 32,2075           43014                           SET      CLEAR
000091: 32,2076           02061                                    DONESW
000092: 32,2077           02273                                    ENGOFFSW
000093: 32,2100           77776                           EXIT
000094: 32,2101           32124                           CA       CDUFAD                                #  SET UP FOR NORMAL EXIT FROM ASCENT TO
000095: 32,2102           55450                           TS       ASCRET                                #  FINDCDUD
000096: 32,2103           35643                           CA       PRIO17                                #  GIVE LAMBERT A LOWER PRIORITY
000097: 32,2104           55451                           TS       LAMPRIO
000098: 32,2105           00006                           EXTEND
000099: 32,2106           31447                           DCA      RRETURN                               #  GO BACK TO MP13
000100: 32,2107           52006                           DXCH     Z
000101: 32,2110           05327 16434  ENGNOM             2DEC     .00033086  B9                         #  AT*2(9)
000102: 32,2112           07446 31055                     2DEC     30.3030                               #  VE*2(-7)
000103: 32,2114           26270 16315                     2DEC     91587.6                               #  TBUP*2(-17)
000104: 32,2116           03627 35747  PREIGN             2DEC     15.187                                #  1/DV1
000105: 32,2120           03624 03045                     2DEC     15.157                                #  1/DV2
000106: 32,2122           03620 10142                     2DEC     15.127                                #  1/DV3
000107: 32,2124  33,2640               DP.5               =        BODYVECT
000108: 32,2124  33,2642               DP0                =        BODYVECT   +2
000109: 32,2124  E4,1400                                  EBANK=   PAXIS1
000110: 32,2124           60703        CDUFAD             FCADR    FINDCDUD

End of include-file PREBURN_FOR_APS2.agc.  Parent file is MAIN.agc


