
Source Code


000002:                                                                                                  ## Copyright:   Public domain.
000003:                                                                                                  ## Filename:    Q_R-AXES_REACTION_CONTROL_SYSTEM_AUTOPILOT.agc
000004:                                                                                                  ## Purpose:     A module for revision 0 of BURST120 (Sunburst). It
000005:                                                                                                  ##              is part of the source code for the Lunar Module's
000006:                                                                                                  ##              (LM) Apollo Guidance Computer (AGC) for Apollo 5.
000007:                                                                                                  ## Assembler:   yaYUL
000008:                                                                                                  ## Contact:     Ron Burkey <info@sandroid.org>.
000009:                                                                                                  ## Website:     www.ibiblio.org/apollo/index.html
000010:                                                                                                  ## Mod history: 2016-09-30 RSB  Created draft version.
000011:                                                                                                  ##              2016-10-30 RSB  Transcribed through page 537.
000012:                                                                                                  ##              2016-10-31 RSB  Transcribed.  Boo!
000013:                                                                                                  ##              2016-10-31 RSB  Typos.
000014:                                                                                                  ##              2016-11-01 RSB  More typos.
000015:                                                                                                  ##              2016-11-02 RSB  More typos.
000016:


000018: 17,2000                                           BANK     17
000019:                                                                                                  #  THE FOLLOWING T5RUPT ENTRY BEGINS THE PROGRAM WHICH CONTROLS THE Q,R-AXIS ACTION OF THE LEM USING THE RCS JETS.
000020:                                                                                                  #  THE NOMINAL TIME BETWEEN THE Q,R-AXIS RUPTS IS 100 MS (UNLESS THE TRIM GIMBAL CONTROL SYSTEM IS USED, IN WHICH
000021:                                                                                                  #  CASE THIS PROGRAM IS IDLE).
000022:
000023: 17,2000  E6,1542                                  EBANK=   DT
000024: 17,2000           03033 40066  NULLFILT           2CADR    FILDUMMY
000025:
000026: 17,2002           32560        QRAXIS             CAF      MS20QR                                #  RESET TIME IMMEDIATELY - DT = 20 MS
000027: 17,2003           54030                           TS       TIME5
000028:
000029: 17,2004           22016                           LXCH     BANKRUPT                              #  INTERRUPT LEAD IN (CONTINUED)
000030: 17,2005           00006                           EXTEND
000031: 17,2006           22012                           QXCH     QRUPT
000032:
000033:                                                                                                  #  SET UP DUMMY KALMAN FILTER T5RUPT.  (THIS MAY BE RESET TO THE KALMAN FILTER INITIALIZATION PASS, IF THE TRIM
000034:                                                                                                  #  GIMBAL CONTROL SYSTEM SHOULD BE USED.)
000035:
000036: 17,2007           00006                           EXTEND
000037: 17,2010           32001                           DCA      NULLFILT
000038:
000039:                                                                                                  #  START CODING FOR MODULE 3 REMAKE, AUGUST 1967***START CODING FOR MODULE 3 REMAKE, AUGUST 1967*****************
000040:
000041: 17,2011           12107        INSERT17           TCF      TRMCHECK                              #  ARE EXTRAORDINARY GTS ENTRIES NEEDED?
000042:                                                                                                  #  **END CODING FOR MODULE 3 REMAKE, AUGUST 1967*****END CODING FOR MODULE 3 REMAKE, AUGUST 1967*****************
000043:
000044:                                                                                                  #  CALCULATE LEM BODY RATES FOR Q AND R AXES:
000045:
000046:                                                                                                  #  THIS COMPUTATION IS VALID FOR BOTH ASCENT ADN DESCENT SINCE THE OFFSET ACCELERATION TERM IS INCLUDED ALWAYS,
000047:                                                                                                  #  BUT HAS VALUE ZERO IN DESCENT, AND SINCE THE WEIGHTING FACTORS ARE IN ERASABLE AND DISTINCT.
000048:
000049:                                                                                                  #  FIRST, CONSTRUCT Y AND Z CDU INCREMENTS:
000050:
000051: 17,2012           30033        BODYRATE           CAE      CDUY                                  #  2:S COMPLEMENT MEASUREMENT SCALED AT PI
000052: 17,2013           54001                           TS       L                                     #  (SAVE FOR UPDATING OF OLDYFORQ)
000053: 17,2014           00006                           EXTEND                                         #  FORM INCREMENT IN CDUY FOR LAST 100 MS
000054: 17,2015           21427                           MSU      OLDYFORQ                              #  (100 MS OLD CDUY SAVED FROM LAST PASS)
000055: 17,2016           23427                           LXCH     OLDYFORQ                              #  UPDATE OLDYFORQ WITH NEW CDUY VALUE
000056: 17,2017           54061                           TS       ITEMP1                                #  SAVE 1:S COMPLEMENT VALUE TEMPORARILY
000057: 17,2020           30034                           CAE      CDUZ                                  #  2'S COMPLEMENT MEASUREMENT SCALED AT PI
000058: 17,2021           54001                           TS       L                                     #  (SAVE FOR UPDATING OF OLDZFORQ)
000059: 17,2022           00006                           EXTEND                                         #  FORM INCREMENT IN CDUZ FOR LAST 100 MS
000060: 17,2023           21430                           MSU      OLDZFORQ                              #  (100 MS OLD CDUZ SAVED FROM LAST PASS)
000061: 17,2024           23430                           LXCH     OLDZFORQ                              #  UPDATE OLDZFORQ WITH NEW CDUZ VALUE
000062: 17,2025           54062                           TS       ITEMP2                                #  SAVE 1'S COMPLEMENT VALUE TEMPORARILY
000063:


000065:                                                                                                  #  SECOND TRANSFORM CPU INCREMENTS TO BODY-ANGLE INCREMENTS:
000066:
000067: 17,2026           31406                           CAE      M31                                   #  MATRIX*VECTOR(WITH x COMPONENT ZERO)
000068: 17,2027           00006                           EXTEND
000069: 17,2030           70061                           MP       ITEMP1                                #  M31 * ITEMP1 = M31 * DELTA CDUY
000070: 17,2031           52065                           DXCH     ITEMP4
000071: 17,2032           31403                           CAE      M32                                   #  M32 * ITEMP2 = M32 * DELTA CDUZ
000072: 17,2033           00006                           EXTEND
000073: 17,2034           70062                           MP       ITEMP2                                #  DELTAR = M31*(DEL CDUY) + M32*(DEL CDUZ)
000074: 17,2035           20065                           DAS      ITEMP4                                #  DOUBLE PRECISION R BODY ANGLE INCREMENT
000075:
000076: 17,2036           37753                           CAF      BIT9
000077: 17,2037           54002                           TS       Q
000078: 17,2040           00006                           EXTEND
000079: 17,2041           30065                           DCA      ITEMP4
000080: 17,2042           00006                           EXTEND
000081: 17,2043           10002                           DV       Q                                     #  RESCALE TO PI/64 AND
000082: 17,2044           54064                           TS       ITEMP4                                #  STORE AS SINGLE PRECISION
000083: 17,2045           31405                           CAE      M21                                   #  MATRIX*VECTOR(WITH X COMPONENT ZERO)
000084: 17,2046           00006                           EXTEND                                         #  CLOBBERS ITEMP2=DEL CDUZ, FOR EFFICIENCY
000085: 17,2047           70061                           MP       ITEMP1                                #  M21 * ITEMP1 = M21 * DELTA CDUY
000086: 17,2050           52063                           DXCH     ITEMP2                                #  M22 * ITEMP2 = M22 * DELTA CDUZ
000087: 17,2051           00006                           EXTEND
000088: 17,2052           71401                           MP       M22                                   #  DELTAQ = M21*(DEL CDUY) + M22*(DEL CDUZ)
000089: 17,2053           20063                           DAS      ITEMP2                                #  DOUBLE PRECISION Q-BODY-ANGLE INCREMENT
000090: 17,2054           00006                           EXTEND
000091: 17,2055           30063                           DCA      ITEMP2
000092: 17,2056           00006                           EXTEND
000093: 17,2057           10002                           DV       Q                                     #  RESCALE TO PI/64
000094:                                                                                                  #  FINALLY, DERIVE Q AND R BODY ANGULAR RATES:
000095:
000096: 17,2060           00006                           EXTEND                                         #  WFORQR IS K/(NOMINAL DT) SCALED AT 16
000097: 17,2061           71641                           MP       WFORQR                                #  FORM WEIGHTED VALUE OF MEASURED DATA
000098: 17,2062           57416                           XCH      OMEGAQ                                #  SAVE AND BEGIN TO WEIGHT VALUE OF OLD W
000099: 17,2063           00006                           EXTEND                                         #  (1-K) IS SCALED AT 1 FOR EFFICIENT CALC
000100: 17,2064           71642                           MP       (1-K)                                 #  (K CHANGES EVERY 2 SECS IN ASCENT)
000101: 17,2065           61605                           AD       JETRATEQ                              #  WEIGHTED TERM DUE TO JET ACCELERATION
000102: 17,2066           61664                           AD       AOSQTERM                              #  TERM DUE TO ASCENT OFFSET ACCELERATION
000103: 17,2067           27416                           ADS      OMEGAQ                                #  TOTAL RATE ESTIMATE SCALED AT PI/4
000104:
000105: 17,2070           30064                           CAE      ITEMP4                                #  GET DELTAR
000106: 17,2071           00006                           EXTEND                                         #  WFORQR IS K/(NOMINAL DT) SCALED AT 16
000107: 17,2072           71641                           MP       WFORQR                                #  FORM WEIGHTED VALUE OF MEASURED DATA
000108: 17,2073           57420                           XCH      OMEGAR                                #  SAVE AND BEGIN TO WEIGHT VALUE OF OLD W
000109: 17,2074           00006                           EXTEND                                         #  (1-K) IS SCALED AT 1 FOR EFFICIENT CALC
000110: 17,2075           71642                           MP       (1-K)                                 #  (K CHANGES EVERY 2 SECS IN ASCENT)
000111: 17,2076           61606                           AD       JETRATER                              #  WEIGHTED TERM DUE TO JET ACCELERATION
000112: 17,2077           61665                           AD       AOSRTERM                              #  TERM DUE TO ASCENT OFFSET ACCELERATION
000113: 17,2100           27420                           ADS      OMEGAR                                #  TOTAL RATE ESTIMATE SCALED AT PI/4
000114:


000116: 17,2101           01653                           TC       QJUMPADR
000117: 17,2102           32105        SKIPQRAX           CA       NORMQADR
000118: 17,2103           55653                           TS       QJUMPADR                              #  DO NOT JUMP NEXT TIME.
000119: 17,2104           12610                           TCF      CHKGIMBL                              #  CHKGIMBL ATTEMPTS TO USE GTS.
000120:
000121: 17,2105           02106        NORMQADR           GENADR   NORMALQ
000122: 17,2106           12620        NORMALQ            TCF      ATTSTEER                              #  NO RHC INPUTS IN 206.
000123:
000124:                                                                                                  #  START CODING FOR MODULE 3 REMAKE, AUGUST 1967***START CODING FOR MODULE 3 REMAKE, AUGUST 1967*****************
000125:
000126: 17,2107           53001        TRMCHECK           DXCH     T5ADR                                 #  SET UP NEXT T5RUPT ADDRESS.
000127:
000128:                                                                                                  #  **END CODING FOR MODULE 3 REMAKE, AUGUST 1967*****END CODING FOR MODULE 3 REMAKE, AUGUST 1967*****************
000129:
000130:                                                                                                  #  CHECK IF TRIMCNTR HAS BEEN COUNTED DOWN TO ZERO, INDICATING THAT 20.0 SECONDS HAVE PASSED SINCE DPS ON AND
000131:                                                                                                  #  CONTROL SHOULD BE TRANSFERRED TO GTS.  THEN SEE IF A RECENT ENGINE-ON REQUIRES AN EARLY GTS ENTRY.
000132:
000133: 17,2110           11744                           CCS      TRIMCNTR                              #  IS GTS NEEDED PRIOR TO THROTTLE-UP?
000134: 17,2111           12121                           TCF      CHKMNITR                              #    NOT YET, BUT CHECK IF FIRST GTS DONE.
000135: 17,2112           04736                           TC       CCSHOLE                               #    ILLEGAL VALUE OF TRIMCNTR.
000136: 17,2113           12012                           TCF      INSERT17   +1                         #    NOT ACTIVE, RETURN TO RCS CONTROL
000137: 17,2114           37762        OKAYGTS            CAF      USEQRJTS                              #    YES, IS GIMBAL SYSTEM USABLE?
000138: 17,2115           70077                           MASK     DAPBOOLS
000139: 17,2116           00006                           EXTEND
000140: 17,2117           12124                           BZF      GOGIMBAL                              #  USABLE.  GO TO GTS.
000141: 17,2120           12012                           TCF      INSERT17   +1                         #  NOT USABLE.  GO ON WITH RCS CONTROL.
000142:
000143: 17,2121           11745        CHKMNITR           CCS      GTSMNITR                              #  IS AN IMMEDIATE (FIRST) GTS CALLED FOR?
000144: 17,2122           12114                           TCF      OKAYGTS                               #    YES, CHECK IF GIMBAL SYSTEM USABLE.
000145: 17,2123           12012                           TCF      INSERT17   +1                         #    NO, RETURN TO RCS CONTROL.
000146: 17,2124           46311        GOGIMBAL           CS       THREE                                 #  RESET TIME5 COUTNER FROM 20 TO 50 MSEC.
000147: 17,2125           26030                           ADS      TIME5
000148:
000149: 17,2126           42614                           CS       BGIM24                                #  TURN OFF GIMBALS FOR BETTER FILTERING.
000150: 17,2127           00006                           EXTEND
000151: 17,2130           03012                           WAND     12
000152:
000153: 17,2131           47763                           CS       BIT1                                  #  DEACTIVATE GIMBAL DRIVE TIMERS
000154: 17,2132           55753                           TS       QGIMTIMR
000155: 17,2133           55754                           TS       RGIMTIMR
000156:
000157: 17,2134           37767                           CAF      ZERO
000158: 17,2135           00006                           EXTEND
000159: 17,2136           01005                           WRITE    5                                     #  TURN OFF ALL Q,R AXIS JETS.
000160:
000161: 17,2137           00006                           EXTEND
000162: 17,2140           32143                           DCA      ADRGOGTS
000163: 17,2141           52006                           DTCB
000164: 17,2142  E6,1542                                  EBANK=   DT
000165: 17,2142           03606 42066  ADRGOGTS           2CADR    GOTOGTS    +2                         #  TIME5 COUNTER WAS ALREADY ADVANCED.
000166:
000167:                                                                                                  #  *** THE FOLLOWING NEW CODING IS NOT BEING USED   ***


000169:                                                                                                  #  LEFT IN PLACE AS FILLER)))MAY BE WRITTEN OVER
000170:
000171: 17,2144           04736                           TC       CCSHOLE                               #  FILLER
000172: 17,2145           04736                           TC       CCSHOLE                               #  FILLER
000173: 17,2146           04736                           TC       CCSHOLE                               #  FILLER
000174: 17,2147           04736                           TC       CCSHOLE                               #  FILLER
000175: 17,2150           04736                           TC       CCSHOLE                               #  FILLER
000176: 17,2151           04736                           TC       CCSHOLE                               #  FILLER
000177: 17,2152           04736                           TC       CCSHOLE                               #  FILLER
000178: 17,2153           04736                           TC       CCSHOLE                               #  FILLER
000179: 17,2154           04736                           TC       CCSHOLE                               #  FILLER
000180: 17,2155  E6,1525                                  EBANK=   NEGUR
000181: 17,2155           03236 42066  RGIMADR            2CADR    OFFGIMR
000182:
000183: 17,2157           31746        GETCNTR            CAE      FORCETRM                              #  LOAD TRIMCNTR TO FORCE TRIM JUST BEFORE
000184: 17,2160           55744                           TS       TRIMCNTR                              #  THE THROTTLE-UP.
000185: 17,2161           37763                           CAF      BIT1                                  #  ENABLE MONITOR TO CALL GTS AS SOON AS
000186: 17,2162           55745                           TS       GTSMNITR                              #  POSSIBLE.
000187:
000188: 17,2163           31765                           CAE      SIMPINIT                              #  INITIALIZE SIMPCNTR. DECISECONDS.
000189: 17,2164           55764                           TS       SIMPCNTR
000190:
000191: 17,2165           00006                           EXTEND                                         #  RETURN TO ORIGINAL CODING
000192: 17,2166           32172                           DCA      INSRTADR
000193: 17,2167           52006                           DTCB
000194:
000195: 17,2170           04736                           TC       CCSHOLE                               #  THIS IS A FILLER
000196: 17,2171  E6,1466                                  EBANK=   PERROR
000197: 17,2171           02232 40066  INSRTADR           2CADR    INSERT20   +1
000198:
000199: 17,2173           40376        17INSRT            CS       /TEMP1/                               #  COMPARE Q WITH THE GENADR OF SWRETURN
000200: 17,2174           62264                           AD       SWRETADR                              #  TO SEE IF ENGINOFF WAS CALLED VIA
000201: 17,2175           00006                           EXTEND                                         #  BANKCALL OR IBNKCALL.
000202: 17,2176           12243                           BZF      17INSRTB                              #  *BANKCALL - DO NOT DELAY*
000203:
000204: 17,2177           00006                           EXTEND                                         #  *IBNKCALL - CHECK FURTHER*
000205: 17,2200           00030                           READ     30
000206: 17,2201           40000                           COM                                            #  SEE IF ENGINE IN QUESTION IS APS OR DPS.
000207: 17,2202           77762                           MASK     BIT2
000208: 17,2203           00006                           EXTEND
000209: 17,2204           12243                           BZF      17INSRTB                              #  *DPS ENGINE - DO NOT DELAY*
000210:
000211: 17,2205           40302                           CS       MODREG                                #  *APS ENGINE - CHECK FURTHER*
000212: 17,2206           62265                           AD       MP3MMODE
000213: 17,2207           00006                           EXTEND                                         #  SEE IF THIS IS THE MP 3 SHORT APS BURN.
000214: 17,2210           12243                           BZF      17INSRTB                              #  *IT IS - DO NOT DELAY*
000215:
000216: 17,2211           41074                           CS       DVMNEXIT                              #  *IT IS NOT - CHECK FOR A FORGET2 ENTRY*
000217: 17,2212           62266                           AD       KILLAVEG
000218: 17,2213           00006                           EXTEND


000220: 17,2214           12257                           BZF      17INSRTD                              #  GENADRS MATCH - CHECK THE BBCONS.
000221:
000222: 17,2215           00006        17INSRTE           EXTEND
000223: 17,2216           41760                           DCS      /TEMP3/
000224: 17,2217           52073                           DXCH     RUPTREG3                              #  PUT MINUS (ENGINEON TIME) IN RUPTREGS
000225: 17,2220           53762                           DXCH     /TEMP5/                               #  AND SAVE FORMER CONTENTS FOR ISWRETRN.
000226:
000227: 17,2221           00006                           EXTEND                                         #  BLEND IN THE CURRENT TIME.
000228: 17,2222           30025                           DCA      TIME2
000229: 17,2223           20073                           DAS      RUPTREG3
000230:
000231: 17,2224           37746                           CAF      HALF                                  #  FORCE SIGN AGREEMENT.
000232: 17,2225           60000                           DOUBLE
000233: 17,2226           60073                           AD       RUPTREG4
000234: 17,2227           54073                           TS       RUPTREG4
000235: 17,2230           37767                           CAF      ZERO
000236: 17,2231           67771                           AD       NEGONE
000237: 17,2232           26072                           ADS      RUPTREG3
000238:
000239: 17,2233           30072                           CA       RUPTREG3                              #  SEE IF BURN HAS BEEN LONGER THAN
000240: 17,2234           00006                           EXTEND                                         #  163.84 SECONDS.
000241: 17,2235           12247                           BZF      17INSRTC                              #  *LESS THAN 163.84 SECONDS*
000242:
000243: 17,2236           00006        17INSRTA           EXTEND                                         #  *MORE THAN 163.84 SECONDS*
000244: 17,2237           31762                           DCA      /TEMP5/
000245: 17,2240           52073                           DXCH     RUPTREG3                              #  RESTORE RUPTREGS FOR ISWRETRN.
000246:
000247: 17,2241           37745        17INSRTF           CAF      NEGMAX                                #  SET TMINAPS NEGATIVE TO INACTIVATE
000248: 17,2242           55763                           TS       TMINAPS                               #  THE ENGINOFF DELAY LOGIC
000249:
000250: 17,2243           31756        17INSRTB           CA       /TEMP2/                               #  RESTORE CALLERS EBANK.
000251: 17,2244           54003                           TS       EBANK
000252: 17,2245           05225                           TC       POSTJUMP                              #  RETURN TO THE ENGINOFF SEQUENCE.
000253: 17,2246           40264                           CADR     ENGINOFF   +1
000254:
000255: 17,2247           40073        17INSRTC           CS       RUPTREG4                              #  CHECK LENGTH OF BURN AGAINST TMINAPS.
000256: 17,2250           61763                           AD       TMINAPS
000257: 17,2251           00006                           EXTEND
000258: 17,2252           62236                           BZMF     17INSRTA                              #  BURN IS LONG ENOUTH - DO THE ENGINOFF.
000259:
000260: 17,2253           05663                           TC       WAITLIST                              #  SUSPEND CURRENT MISSION PHASE AND SET
000261: 17,2254  E6,1763                                  EBANK=   TMINAPS                               #  WAITLIST FOR RESUMPTION AT THE PROPER
000262: 17,2254           02236 36066                     2CADR    17INSRTA                              #  TIME.
000263:
000264: 17,2256           05727                           TC       TASKOVER
000265:
000266: 17,2257           41075        17INSRTD           CS       DVMNEXIT   +1
000267: 17,2260           62267                           AD       KILLAVEG   +1
000268: 17,2261           00006                           EXTEND
000269: 17,2262           12241                           BZF      17INSRTF                              #  BBCONS MATCH - DO NOT DELAY


000271: 17,2263           12215                           TCF      17INSRTE
000272:
000273: 17,2264           05221        SWRETADR           GENADR   SWRETURN
000274:
000275: 17,2265           00071        MP3MMODE           OCT      00071                                 #  MAJOR MODE OF MISSION PHASE 3.
000276:
000277: 17,2266  E3,1400                                  EBANK=   LST1
000278: 17,2266           02072 16063  KILLAVEG           2CADR    AVEGKILL
000279:
000280:                                                                                                  #  FOLLOWING CODING LEFT IN PLACE TO KEEP ADDRESSES CONSTANT.
000281:
000282:                                                                                                  #  **END CODING FOR MODULE 3 REMAKE, AUGUST 1967*****END CODING FOR MODULE 3 REMAKE, AUGUST 1967*****************
000283:
000284: 17,2270           04736        NOQJETS            TC       CCSHOLE                               #  LABEL PREVENTS ASSEMBLER CUSSES.
000285: 17,2271           12413                           TCF      XTRANS
000286: 17,2272           12365                           TCF      R-,CHKDB
000287: 17,2273           12413                           TCF      XTRANS
000288:
000289: 17,2274           61501        NEGQEROR           AD       -RATEDB
000290: 17,2275           00006                           EXTEND
000291: 17,2276           62270                           BZMF     NOQJETS
000292:
000293: 17,2277           11424                           CCS      RRATEDIF
000294: 17,2300           12311                           TCF      R+Q-CHKR
000295: 17,2301           12303                           TCF      Q-NORJTS
000296: 17,2302           12316                           TCF      R-Q-CHKR
000297:
000298: 17,2303           41423        Q-NORJTS           CS       QRATEDIF
000299: 17,2304           55437                           TS       RATEDIF
000300: 17,2305           61500                           AD       -2JETLIM
000301: 17,2306           00006                           EXTEND
000302: 17,2307           63426                           BZMF     2JETS+Q
000303: 17,2310           13424                           TCF      4JETS+Q
000304:
000305: 17,2311           61501        R+Q-CHKR           AD       -RATEDB
000306: 17,2312           00006                           EXTEND
000307: 17,2313           62303                           BZMF     Q-NORJTS
000308: 17,2314           03515                           TC       EDOTVGEN
000309: 17,2315           13344                           TCF      2-V.RATE
000310:
000311: 17,2316           61501        R-Q-CHKR           AD       -RATEDB
000312: 17,2317           00006                           EXTEND
000313: 17,2320           62303                           BZMF     Q-NORJTS
000314: 17,2321           03511                           TC       EDOTUGEN
000315: 17,2322           00006                           EXTEND
000316: 17,2323           61424                           SU       RRATEDIF
000317: 17,2324           13373                           TCF      2+U.RATE
000318:
000319: 17,2325           61501        POSQEROR           AD       -RATEDB
000320: 17,2326           00006                           EXTEND


000322: 17,2327           62270                           BZMF     NOQJETS
000323:
000324: 17,2330           11424                           CCS      RRATEDIF
000325: 17,2331           12342                           TCF      R+Q+CHKR
000326: 17,2332           12334                           TCF      Q+NORJTS
000327: 17,2333           12347                           TCF      R-Q+CHKR
000328:
000329: 17,2334           31423        Q+NORJTS           CA       QRATEDIF
000330: 17,2335           55437                           TS       RATEDIF
000331: 17,2336           61500                           AD       -2JETLIM
000332: 17,2337           00006                           EXTEND
000333: 17,2340           63265                           BZMF     2JETS-Q
000334: 17,2341           13263                           TCF      4JETS-Q
000335:
000336: 17,2342           61501        R+Q+CHKR           AD       -RATEDB
000337: 17,2343           00006                           EXTEND
000338: 17,2344           62334                           BZMF     Q+NORJTS
000339: 17,2345           03511                           TC       EDOTUGEN
000340: 17,2346           13243                           TCF      2-U.RATE
000341:
000342: 17,2347           61501        R-Q+CHKR           AD       -RATEDB
000343: 17,2350           00006                           EXTEND
000344: 17,2351           62334                           BZMF     Q+NORJTS
000345: 17,2352           03515                           TC       EDOTVGEN
000346: 17,2353           13301                           TCF      2+V.RATE
000347:
000348: 17,2354           61501        R+,CHKDB           AD       -RATEDB
000349: 17,2355           00006                           EXTEND
000350: 17,2356           62413                           BZMF     XTRANS
000351: 17,2357           31424                           CA       RRATEDIF
000352: 17,2360           55437                           TS       RATEDIF
000353: 17,2361           61500                           AD       -2JETLIM
000354: 17,2362           00006                           EXTEND
000355: 17,2363           63227                           BZMF     2JETS-R
000356: 17,2364           13225                           TCF      4JETS-R
000357:
000358: 17,2365           61501        R-,CHKDB           AD       -RATEDB
000359: 17,2366           00006                           EXTEND
000360: 17,2367           62413                           BZMF     XTRANS
000361: 17,2370           41424                           CS       RRATEDIF
000362: 17,2371           55437                           TS       RATEDIF
000363: 17,2372           61500                           AD       -2JETLIM
000364: 17,2373           00006                           EXTEND
000365: 17,2374           63412                           BZMF     2JETS+R
000366: 17,2375           13410                           TCF      4JETS+R
000367:
000368: 17,2376           11437        RTJETIME           CCS      RATEDIF                               #  SCALED AT PI/4 RADIANS/SECOND
000369: 17,2377           67763                           AD       ONE
000370: 17,2400           12402                           TCF      +2
000371: 17,2401           67763                           AD       ONE                                   #  ABS(RATEDIF)


000373: 17,2402           00006                           EXTEND
000374: 17,2403           70066                           MP       1/NJETAC                              #  SCALED AT 2(8)/PI SECONDS(2)/RADIANS
000375: 17,2404           00006                           EXTEND
000376: 17,2405           77760                           MP       BIT4                                  #  SCALED AT 2(3) SECONDS
000377: 17,2406           30001                           CAE      L
000378: 17,2407           00006                           EXTEND
000379: 17,2410           72557                           MP       25/32.QR                              #  TJET NOW PROPERLY SCALED IN A
000380: 17,2411           55612                           TS       TQR                                   #  AT 2(4)16/25 SECONDS
000381: 17,2412           12457                           TCF      MNIMPTST
000382:
000383:


000385:                                                                                                  #  DAP SECTION: XTRANS            MOD. NO. 3  DATE: JANUARY 6, 1967.
000386:
000387:                                                                                                  #  AUTHOR: JOHN S. BLISS (ADAMS ASSOCIATES)
000388:
000389:                                                                                                  #  MODIFICATION BY: JONATHAN D. ADDELSTON (ADAMS ASSOCIATES)
000390:
000391:                                                                                                  #  X-AXIS TRANSLATION LOGIC (IN THE ABSENSE OF Q,R-AXIS ROTATION) IS INITIATED IN THE "XTRANS" SECTION.
000392:
000393:                                                                                                  #  XTRANS FIRST SETS ADDTLT6 AND ADDT6JTS TO ZERO FOR USE BY "JTLST" AND "T6JOB" WHEN THEY ARE CALLED.  IT THEN
000394:                                                                                                  #  CHECKS FOR PLUS OR MINUS X TRANSLATION REQUESTS FROM THE ASTRONAUT'S STICK.  IF NONE IS REQUESTED IN THAT WAY,
000395:                                                                                                  #  THE ULLAGE BIT OF DAPBOOLS IS CHECKED.  (NOTE THAT THE ORDER OF THE TESTS ALLOWS THE ASTRONAUT TO OVERRIDE THE
000396:                                                                                                  #  INTERNAL ULLAGE REQUEST.)  IF NO TRANSLATION IS REQUESTED, ALL Q,R-AXIS JETS ARE TURNED OFF AND THE INTERRUPT
000397:                                                                                                  #  IS TERMINATED.
000398:
000399:                                                                                                  #  CALLING SEQUENCE: NONE          SUBROUTINES CALLED: WRITEQR
000400:
000401:                                                                                                  #  NORMAL EXIT: 1.  IF NO TRANSLATION, RESUME.
000402:                                                                                                  #               2.  IF TRANSLATION OR ULLAGE, +/-XTRAN
000403:
000404:                                                                                                  #  ALARM/ABORT MODE: NONE.
000405:
000406:                                                                                                  #  INPUT:  ULLAGER/DAPBOOLS,BITS7,8/CHANNEL 31.
000407:
000408:                                                                                                  #  OUTPUT: C(ANYTRANS) = NEGMAX FOR +X TRANSLATION.
000409:                                                                                                  #          C(ANYTRANS) = POSMAX FOR -X TRANSLATION.
000410:                                                                                                  #          C(TRANSNOW) = C(TRANSAVE) = +0.
000411:                                                                                                  #          C(TRANONLY) = PNZ
000412:                                                                                                  #  C(ADDTLT6), C(ADDT6JTS), C(TQR), C(TOFJTCHG) = 0.
000413:
000414:                                                                                                  #          C(CHANNEL 5) = 0 IF NO X-TRANSLATION REQUESTED
000415:
000416:                                                                                                  #  DEBRIS: A, L, Q
000417:
000418:
000419: 17,2413           37767        XTRANS             CAF      ZERO                                  #  PICK UP ZERO AND INITIALIZE
000420: 17,2414           55474                           TS       ADDTLT6
000421: 17,2415           55473                           TS       ADDT6JTS
000422: 17,2416           55475                           TS       TOFJTCHG
000423: 17,2417           55612                           TS       TQR                                   #  A ZERO OF JET TIME FOR THE TORQUE VECTOR
000424:
000425: 17,2420           37755                           CAF      BIT7                                  #  IS PLUS X TRANSLATION DESIRED
000426: 17,2421           00006                           EXTEND
000427: 17,2422           02031                           RAND     31                                    #  CHANNEL 31 BITS INVERTED
000428: 17,2423           00006                           EXTEND
000429: 17,2424           12441                           BZF      +XORULGE                              #  YES, +X
000430:
000431: 17,2425           37754                           CAF      BIT8                                  #  NO, IS MINUS X TRANSLATION DESIRED
000432: 17,2426           00006                           EXTEND
000433: 17,2427           02031                           RAND     31                                    #  CHANNEL 31 BITS INVERTED


000435: 17,2430           00006                           EXTEND
000436: 17,2431           12443                           BZF      -XTRANS                               #  YES, -X
000437:
000438: 17,2432           37756                           CAF      BIT6                                  #  NO, IS ULLAGE(+X TRANSLATION) DESIRED
000439: 17,2433           70077                           MASK     DAPBOOLS
000440: 17,2434           10000                           CCS      A
000441: 17,2435           12441                           TCF      +XORULGE                              #  YES, ULLAGE
000442:
000443: 17,2436           37767                           CAF      ZERO                                  #  SINCE NEITHER ROTATION NOR TRANSLATION
000444: 17,2437           06046                           TC       WRITEQR                               #  ARE NEEDED, TURN OFF ALL Q,R-AXES JETS.
000445: 17,2440           15733                           TCF      RESUME
000446:
000447: 17,2441           37745        +XORULGE           CAF      NEGMAX                                #  PLUS TRANSLATION OR ULLAGE DESIRED:
000448: 17,2442           12444                           TCF      +2                                    #  LOAD NEGMAX IN A AND SKIP NEXT OPCODE TO
000449:
000450: 17,2443           37743        -XTRANS            CAF      POSMAX                                #  -X TRANSLATION DESIRED, A = POSMAX, AND
000451: 17,2444           54071                           TS       ANYTRANS                              #  LOAD ANYTRANS WITH A(NEG/POS MAX)
000452:
000453: 17,2445           37767                           CAF      ZERO                                  #  INITIALIZE TRANSNOW AND TRANSAVE WITH
000454: 17,2446           54072                           TS       TRANSNOW                              #  ZERO FOR USE IN THE JET POLICY SELECTION
000455: 17,2447           54073                           TS       TRANSAVE                              #  PROGRAM.
000456:
000457: 17,2450           00006                           EXTEND                                         #  SET UP 2CADR FOR TRANSFER TO +/-XTRAN.
000458: 17,2451           32455                           DCA      JTPOLADR
000459: 17,2452           54070                           TS       TRANONLY                              #  STORE POSITIVE, NON-ZERO S-REGISTER IN
000460: 17,2453           52006                           DTCB                                           #  TRANONLY.  AFTER +/-XTRAN, GO TO JTLST.
000461:
000462: 17,2454  E6,1471                                  EBANK=   JTSONNOW
000463: 17,2454           02447 40066  JTPOLADR           2CADR    +/-XTRAN                              #  TRANSLATION ONLY ENTRY TO JET POLICY
000464:
000465:


000467:                                                                                                  #  ALL Q,R AXES TQR COMPUTATIONS TERMINATE IN THIS PROGRAM WHICH PERFORMS A SERIES OF TESTS TO DETERMINE THE TRUE
000468:                                                                                                  #    TIME THE JETS SHOULD BE ON. THESE TESTS ARE AS FOLLOWS ...
000469:
000470:                                                                                                  #       1.  TEST THE ON TIME AGAINST THE 7.5 MS  ELECTRICAL COMMAND (MIN).IF THE ON TIME IS LESS THAN THE MINIMUM
000471:                                                                                                  #           WE BUG OUT TO XTRAN,WHERE X TRANSLATION IS DONE(IF NEEDED).
000472:
000473:                                                                                                  #       2.  TEST THE ON TIME AGAINST 150 MS, IF TQR IS GREATER THAN 150MS ,THEN THE NEXT QR AXIS IS DONE IN 100 MS.
000474:                                                                                                  #           IF TQR IS LESS THAN 150 MS, THEN THE NEXT QR AXIS IS DONE IN 200 MS. THAT IS A QR AXIS SKIP IS DONE.
000475:
000476:                                                                                                  #       3.  WHEN TQR IS LESS THAN 150 MS  THE PROGRAM GOES TO THE JET LIST PROGRAM WHERE THE T6 CLOCK IS SET UP.
000477:
000478:                                                                                                  #       4.  BEFORE GOING TO THE JET LIST THE COMPUTED TIME HAS EITHER 7.5 MS  ADDED OR 5MS  SUBTRACTED-THE EXACT
000479:                                                                                                  #           OPERATION BEING DECIDED BY WHETHER THE JETS WHICH ARE TO GO ON ARE OFF OR ARE ON RESPECTIVELY.
000480:
000481:                                                                                                  #       5.  IF SOME OF THE JETS WHICH ARE TO GO ON ARE NOW ON AND SOME ARE OFF, THEN A ******* COMPUTATION CALLED
000482:                                                                                                  #           NOTRANS DECIDES WHICH JETS GO OFF AT TQR AND WHICH GO OFF AT TQR+6.5MS. THIS 6.5 MS. IS STORED IN
000483:                                                                                                  #           ADDTLT6. ADDTLT6 IS SET TO ZERO OTHERWISE.
000484:
000485: 17,2456           55612        NORMRETN           TS       TQR
000486:
000487:
000488: 17,2457           41612        MNIMPTST           CS       TQR                                   #  TEST FOR TQR GREATER THAN MIN. IMPULSE.
000489: 17,2460           62556                           AD       +T6TJMIN
000490: 17,2461           00006                           EXTEND                                         #    CORRECT BRANCH.
000491: 17,2462           62464                           BZMF     TQRGTTMI                              #  BRANCH FOR TQR = OR GREATER THAN MINIMP.
000492: 17,2463           12413                           TCF      XTRANS                                #  SEE IF TRANSLATION IS DESIRED .
000493: 17,2464           31612        TQRGTTMI           CAE      TQR                                   #  HERE JETS ON FOR LONGER THAN GRUMANN
000494: 17,2465           55475                           TS       TOFJTCHG                              #  MINIMUM IMPULSE SPECIFICATIONS.
000495: 17,2466           62555                           AD       -1.5CSP
000496: 17,2467           00006                           EXTEND
000497: 17,2470           62475                           BZMF     DOQRSKIP
000498: 17,2471           31471                           CAE      JTSONNOW
000499: 17,2472           06046                           TC       WRITEQR
000500: 17,2473           15733                           TCF      RESUME
000501:
000502: 17,2474           02102        SKIPQRAD           GENADR   SKIPQRAX
000503:                                                                                                  #  CHANGE JET ON AND OFF BITS TO ACCOUNT FOR THE PRESENT STATE OF THE
000504:                                                                                                  #    CHANNEL. THE CHANGES ACCOUNT FOR PURE ROTATION ONLY- NOT TRANSLATION.
000505: 17,2475           31471        DOQRSKIP           CA       JTSONNOW
000506: 17,2476           00006                           EXTEND
000507: 17,2477           02005                           RAND     5                                     #  MASK THE CHANNEL WITH THE DESIRED STATE.
000508: 17,2500           00006        FROMROOT           EXTEND                                         #  ENTER HERE FROM DORUTDUM (IN K.E. BANK)
000509: 17,2501           12526                           BZF      NOQRON                                #  A IS ZERO IF NO JETS TO GO ON ARE ON.
000510: 17,2502           67745                           AD       BIT15                                 #  MAKE DIFFERENCE CORRESPOND TO A QR JET.
000511: 17,2503           00006                           EXTEND
000512: 17,2504           61471                           SU       JTSONNOW                              #  RESULT IS COMPLEMENT OF JET BITS WHICH
000513: 17,2505           54001                           TS       L                                     #    ARE TO BE ON FOR 6.5MS MORE THAN CALC.
000514: 17,2506           00006                           EXTEND
000515: 17,2507           12531                           BZF      JTSAREON                              #  A=0,THUS ALL JETS TO GO ON ARE NOW ON.


000517: 17,2510           31472        TRSLTMN2           CAE      JTSATCHG
000518: 17,2511           77743                           MASK     POSMAX                                #  REMOVE BIT15 FROM JSATCHG
000519: 17,2512           00006                           EXTEND
000520: 17,2513           12517                           BZF      NOTRANS                               #  IF JFSTACHG = 0 THEN NO TRANSLATION NOW.
000521: 17,2514           32566                           CA       14-TQRMN
000522: 17,2515           27475                           ADS      TOFJTCHG                              #  INSURE T GREATER THAN 14 MS.
000523: 17,2516           12544                           TCF      TOJTLST
000524: 17,2517           40001        NOTRANS            CS       L
000525: 17,2520           67745                           AD       BIT15                                 #  MAKE JET BITS CORRESPOND TO QR AXIS.
000526: 17,2521           57472                           XCH      JTSATCHG                              #  JTSONNOW - L = JETS ON AT TOFJTCHG.
000527: 17,2522           55473                           TS       ADDT6JTS                              #  JTS ON AT TOFJTCHG +ONDELAY.
000528: 17,2523           32566                           CA       14-TQRMN
000529: 17,2524           55474                           TS       ADDTLT6
000530: 17,2525           12544                           TCF      TOJTLST
000531: 17,2526           32566        NOQRON             CA       14-TQRMN
000532: 17,2527           27475                           ADS      TOFJTCHG
000533: 17,2530           12542                           TCF      TOJTLST    -2
000534: 17,2531           31472        JTSAREON           CAE      JTSATCHG
000535: 17,2532           77743                           MASK     POSMAX
000536: 17,2533           00006                           EXTEND
000537: 17,2534           12536                           BZF      +2
000538: 17,2535           12542                           TCF      TOJTLST    -2
000539: 17,2536           32565                           CAF      MCOMPTQR
000540: 17,2537           27475                           ADS      TOFJTCHG
000541: 17,2540           00006                           EXTEND                                         #  TEST FOR COMPUTATION OF NEGATIVE OR ZERO
000542: 17,2541           62553                           BZMF     QUICKOFF                              #  TOFJTCHG, IF SO, MAKE -0.
000543: 17,2542           37767                 -2        CAF      ZERO
000544: 17,2543           55474                           TS       ADDTLT6
000545: 17,2544           32474        TOJTLST            CA       SKIPQRAD
000546: 17,2545           55653                           TS       QJUMPADR
000547: 17,2546           31471                           CAE      JTSONNOW                              #  TURN ON JETS TO GO ON NOW (EVEN IF ALL
000548: 17,2547           06046                           TC       WRITEQR                               #  ARE ALREADY ON), AFTER TESTING FOR RISE.
000549: 17,2550           00006                           EXTEND
000550: 17,2551           32606                           DCA      JTLSTADR
000551: 17,2552           52006                           DTCB
000552:
000553: 17,2553           41475        QUICKOFF           CS       TOFJTCHG                              #  SET TOFJTCHG TO -0 IN SHORTEST WAY.
000554: 17,2554           12527                           TCF      NOQRON     +1
000555:
000556: 17,2555           77417        -1.5CSP            DEC      -0.01465
000557: 17,2556           00014        +T6TJMIN           DEC      +.00073
000558: 17,2557           31000        25/32.QR           DEC      0.78125
000559: 17,2560           37776        MS20QR             OCTAL    37776
000560: 17,2561           37775        MS30QR             OCTAL    37775
000561: 17,2562           37773        MS50QR             OCTAL    37773
000562: 17,2563           00010        16/32400           DEC      0.00049
000563: 17,2564           00600        BIT8,9             OCTAL    00600
000564: 17,2565           77757        MCOMPTQR           DEC      -16        B-14                       #  -10 MS SCALED AS TIME6.
000565: 17,2566           00013        14-TQRMN           DEC      11         B-14
000566:                                                                                                  #  START CODING FOR MODULE 3 REMAKE, AUGUST 1967***START CODING FOR MODULE 3 REMAKE, AUGUST 1967*********************


000568: 17,2567           04736        MINTADR            GENADR   CCSHOLE
000569:                                                                                                  #  **END CODING FOR MODULE 3 REMAKE, AUGUST 1967*****END CODING FOR MODULE 3 REMAKE, AUGUST 1967*********************
000570: 17,2570           43415        -.88975            DEC      -.88975
000571: 17,2571           20000        (1-K),QR           DEC      0.50000                               #  K = 1/2
000572: 17,2572           02000        (1-KQ)/8           DEC      0.06250
000573: 17,2573           77557        -90MS              DEC      -.00879
000574: 17,2574           00220        +90MS              DEC      0.00879
000575: 17,2575           77537        NEGCSP2            DEC      -.00977
000576: 17,2576           40252        ALL+XJTS           OCTAL    40252
000577: 17,2577           00201        2,10-OUT           OCTAL    00201
000578: 17,2600           40042        +X,A               OCTAL    40042
000579: 17,2601           40210        +X,B               OCTAL    40210
000580: 17,2602           00104        1,9-OUT            OCTAL    00104
000581: 17,2603           40104        -X,A               OCTAL    40104
000582: 17,2604           40021        -X,B               OCTAL    40021
000583: 17,2605  E6,1471                                  EBANK=   JTSONNOW
000584: 17,2605           03402 34066  JTLSTADR           2CADR    JTLST
000585:
000586: 17,2607           02376        RTJETADR           GENADR   RTJETIME
000587:
000588:


000590:                                                                                                  #  Q,R-AXES ATTITUDE STEERING CALCULATIONS:
000591:
000592:                                                                                                  #  (EXECUTED WHEN LGC IS IN AUTOMATIC SCSMODE OR IF SCSMODE IS ATTITUDE HOLD AND THE ROTATIONAL HAND CONTROLLER IS
000593:                                                                                                  #  NEITHER OUT OF DETENT NOR IS THE RATE COMMAND BIT SET IN DAPBOOLS)
000594:
000595: 17,2610           00006        CHKGIMBL           EXTEND
000596: 17,2611           32617                           DCA      TRYGTSAD                              #  TRYGTS ATTEMPTS GTS CONTROL
000597: 17,2612           52006                           DXCH     Z
000598: 17,2613           04736                           TC       CCSHOLE
000599:
000600: 17,2614           07400        BGIM24             OCTAL    07400
000601: 17,2615           03533        DESCADR            GENADR   TJETLAW
000602:
000603: 17,2616  E6,1542                                  EBANK=   DT
000604: 17,2616           03573 42066  TRYGTSAD           2CADR    TRYGTS                                #  TRYGTS ATTEMPS GTS CONTROL.
000605:
000606:


000608:                                                                                                  #  "ATTSTEER" IS THE NOMINAL ENTRY POINT FOR THE REACTION CONTROL SYSTEM ATTITUDE STEERING
000609:
000610: 17,2620  17,2620               ATTSTEER           EQUALS   QERRCALC
000611: 17,2620           30033        QERRCALC           CAE      CDUY                                  #  Q-ERROR CALCULATION
000612: 17,2621           00006                           EXTEND
000613: 17,2622           20767                           MSU      CDUYD                                 #  CDU ANGLE - ANGLE DESIRED (Y-AXIS)
000614: 17,2623           54061                           TS       ITEMP1                                #  SAVE FOR RERRCALC
000615: 17,2624           00006                           EXTEND
000616: 17,2625           71405                           MP       M21                                   #  (CDUY-CDUYD)*M21 SCALED AT PI RADIANS
000617: 17,2626           57413                           XCH      ER                                    #  SAVE FIRST TERM (OF TWO) IN OPP.AXIS REG
000618: 17,2627           30034                           CAE      CDUZ                                  #  SECOND TERM CALCULATION:
000619: 17,2630           00006                           EXTEND
000620: 17,2631           20770                           MSU      CDUZD                                 #  CDU ANGLE -ANGLE DESIRED (Z-AXIS)
000621: 17,2632           54062                           TS       ITEMP2                                #  SAVE FOR RERRCALC
000622: 17,2633           00006                           EXTEND
000623: 17,2634           71401                           MP       M22                                   #  (CDUZ-CDUZD)*M22 SCALED AT PI RADIANS
000624: 17,2635           27413                           ADS      ER                                    #  SAVE SUM OF TERMS, NO OVERFLOW EVER
000625: 17,2636           55467                           TS       QERROR                                #  SAVE QERROR FOR EIGHT-BALL DISPLAY
000626:
000627: 17,2637           30061        RERRCALC           CAE      ITEMP1                                #  R-ERROR CALCULATION:
000628: 17,2640           00006                           EXTEND                                         #  CDU ANGLE -ANGLE DESIRED (Y-AXIS)
000629: 17,2641           71406                           MP       M31                                   #  (CDUY-CDUYD)*M31 SCALED AT PI RADIANS
000630: 17,2642           57411                           XCH      E                                     #  SAVE FIRST TERM (OF TWO) IN OPP.AXIS REG
000631: 17,2643           30062                           CAE      ITEMP2                                #  SECOND TERM CALCULATION:
000632: 17,2644           00006                           EXTEND                                         #  CDU ANGLE -ANGLE DESIRED (Z-AXIS)
000633: 17,2645           71403                           MP       M32                                   #  (CDUZ-CDUZD)*M32 SCALED AT PI RADIANS
000634: 17,2646           27411                           ADS      E                                     #  SAVE SUM OF TERMS, NO OVERFLOW EVER
000635: 17,2647           55470                           TS       RERROR                                #  SAVE R-ERROR FOR EIGHT-BALL DISPLAY
000636:
000637: 17,2650           12715                           TCF      STILLRCS
000638:
000639:                                                                                                  #  THIS CODING IS ENTERED FROM BURGZERO, WHEN BOTH URGENCIES ARE ZERO.  EXITS TO GTS IF POSSIBLE, XTRANS OTHERWISE
000640:
000641: 17,2651           37762        GIMBLTRY           CAF      USEQRJTS                              #  IS JET USAGE MANDATORY.
000642: 17,2652           70077                           MASK     DAPBOOLS
000643: 17,2653           10000                           CCS      A
000644: 17,2654           12413                           TCF      XTRANS                                #  YES.  GO TO XTRANS.
000645:
000646: 17,2655           00006                           EXTEND                                         #  ARE GIMBALS DRIVING?
000647: 17,2656           00012                           READ     12
000648: 17,2657           72614                           MASK     BGIM24                                #  BITS 9,10,11,12 ARE GIMBAL DRIVE BITS.
000649: 17,2660           10000                           CCS      A
000650: 17,2661           12413                           TCF      XTRANS                                #  YES.  DRIVING.  GO TO XTRANS.
000651:
000652: 17,2662           00006                           EXTEND                                         #  NO.   CHECK JETS.
000653: 17,2663           00005                           READ     5                                     #  ARE ANY Q,R JETS ON NOW.
000654:                                                                                                  #  (CAN ONLY BE ROTATION JETS.)
000655: 17,2664           00006                           EXTEND
000656: 17,2665           12413                           BZF      XTRANS                                #  NO.   GO TO XTRANS.
000657:


000659: 17,2666           37767                           CAF      ZERO                                  #  YES.  TURN ON JETS.
000660: 17,2667           00006                           EXTEND
000661: 17,2670           01005                           WRITE    5
000662:
000663: 17,2671           00006                           EXTEND                                         #  NO.   GO TO GTS.
000664: 17,2672           32675                           DCA      GOGTSADR
000665: 17,2673           52006                           DXCH     Z
000666:
000667: 17,2674  E6,1542                                  EBANK=   DT
000668: 17,2674           03604 42066  GOGTSADR           2CADR    GOTOGTS
000669:
000670:                                                                                                  #  REMAINING CODING (HERE TO STILLRCS) STAYS IN TO KEEP ADDRESSES CONSTANT.
000671:
000672: 17,2676           04736                           TC       CCSHOLE                               #  FILLER.
000673: 17,2677           12715                           TCF      STILLRCS                              #  NO.      SO USE RCS.
000674: 17,2700           50066                           INDEX    QRCNTR                                #  YES.     TRY THE ERROR MAGNITUDE.
000675: 17,2701           11467                           CCS      QDIFF                                 #  IS ERROR SMALL ENOUGH FOR GTS.
000676: 17,2702           62714                           AD       -XBND+1                               #  -1.4 DEG SCALED AT PI    + 1 BIT
000677: 17,2703           12705                           TCF      +2
000678: 17,2704           62714                           AD       -XBND+1
000679: 17,2705           00006                           EXTEND
000680: 17,2706           62710                           BZMF     +2                                    #  IS ERROR LESS,EQUAL 1.4 DEG.
000681: 17,2707           12715                           TCF      STILLRCS                              #  NO.      USE RCS CONTROL.
000682: 17,2710           10066                           CCS      QRCNTR                                #  THIS AXIS IS FINE.   ARE BOTH DONE.
000683: 17,2711           04736                           TC       CCSHOLE                               #  REMOVE REFERENCE TO ELIMINATED SYMBOL.
000684: 17,2712           04736                           TC       CCSHOLE                               #  FILLER.
000685: 17,2713           77512        -RATLM+1           OCT      77512                                 #  -.5 DEG/SEC SCALED AT PI/4  + 1 BIT
000686: 17,2714           77601        -XBND+1            OCT      77601                                 #  -1.4 DEG SCALED AT PI, + 1 BIT.
000687:                                                                                                  #  "STILLRCS" IS THE ENTRY POINT TO RCS ATTITUDE STERRING WHENEVER IT IS FOUND THAT THE TRIM GIMBAL CONTROL
000688:                                                                                                  #  SYSTEM SHOULD NOT BE USED;
000689:


000691:                                                                                                  #  Q,R-AXES RCS URGENCY FUNCTION LOGIC:
000692:
000693: 17,2715           10077        STILLRCS           CCS      DAPBOOLS                              #  BRANCH TO SPS-BACKUP RCS CONTROL LOGIC.
000694: 17,2716           13526                           TCF      SPSBAKUP                              #  WHEN BIT15/DAPBOOLS = 0.
000695: 17,2717           12720                           NOOP
000696: 17,2720           32615                           CAF      DESCADR                               #  SET JET SELECT LOGIC RETURN ADDRESS TO
000697: 17,2721           54062                           TS       TJETADR                               #  Q,R-AXIS TJETLAW CALCULATION
000698:
000699: 17,2722           06013                           TC       T6JOBCHK                              #  CHECK T6 CLOCK RUPT BEFORE SUBROUTINE
000700:
000701:                                                                                                  #  CALCULATE THE RATE ERRORS SCALED AT PI/4 RADIANS/SECOND(2):
000702:
000703: 17,2723           40775                           CS       OMEGAQD
000704: 17,2724           61416                           AD       OMEGAQ                                #  EDOTQ = OMEGAQ - OMEGAQD
000705: 17,2725           55423                           TS       EDOTQ
000706:
000707: 17,2726           40776                           CS       OMEGARD
000708: 17,2727           61420                           AD       OMEGAR                                #  EDOTR = OMEGAR - OMEGARD
000709: 17,2730           55424                           TS       EDOTR
000710:


000712:                                                                                                  #  Q,R-AXES URGENCY FUNCTION LOOP:
000713:
000714:                                                                                                  #  SET UP LOOP TO DO R-AXIS, THEN Q-AXIS:
000715:
000716: 17,2731           37763                           CAF      ONE                                   #  1: REFERS TO R-AXIS VARIABLES.
000717: 17,2732           54061                           TS       AXISCNTR                              #  0: REFERS TO Q-AXIS VARIABLES.
000718:
000719:                                                                                                  #  PICK UP EDOT AND RESCALE FROM PI/4 TO PI/16 RADIANS/SECOND:
000720:
000721: 17,2733           50061        URGLOOP            INDEX    AXISCNTR                              #  ERROR RATES ARE PRE-CALCULATED BY RATE
000722: 17,2734           31423                           CAE      EDOTQ                                 #  DERIVATION SCALED AT PI/4 RADIANS/SECOND
000723: 17,2735           00006                           EXTEND                                         #  MULTIPLYING BY FOUR (BIT3) LEAVES EDOT
000724: 17,2736           77761                           MP       FOUR                                  #  AS C(L) IF EDOT LESS THAN 11.25 DEG/SEC.
000725: 17,2737           00006                           EXTEND
000726: 17,2740           12742                           BZF      +2                                    #  IF C(A) NON-ZERO, THEN EDOT GREATER THAN
000727: 17,2741           13010                           TCF      EDOTMAX                               #  11.25 DEG/SEC IN MAGNITUDE, SO LIMIT IT.
000728:
000729: 17,2742           10001                           CCS      L                                     #  INSURE NON-ZERO EDOT:
000730: 17,2743           67762                           AD       TWO                                   #  C(L) PNZ REMAINS UNCHANGED.
000731: 17,2744           12746                           TCF      +2                                    #  C(L) NNZ REMAINS UNCHANGED.
000732: 17,2745           40000                           COM                                            #  C(L)  +0 BECOMES 77776.
000733: 17,2746           67771                           AD       NEG1                                  #  C(L)  -0 BECOMES 77776.
000734: 17,2747           55407        EDOTSTOR           TS       EDOT                                  #  SAVE NON-ZERO EDOT SCALED AT PI/16.
000735:
000736: 17,2750           00006                           EXTEND                                         #  CALCULATE (EDOT)(EDOT):
000737: 17,2751           70000                           SQUARE
000738: 17,2752           55412                           TS       EDOT(2)                               #  SCALED AT PI(2)/2(+8) RAD(2)/SEC(2).
000739:
000740: 17,2753           00006                           EXTEND                                         #   0.5               +8       2
000741: 17,2754           50061                           INDEX    AXISCNTR                              #  ------  SCALED AT 2  /PI SEC /RAD.
000742: 17,2755           71717                           MP       1/ACCQ                                #  ACCQ,R
000743: 17,2756           00006                           EXTEND                                         #  DEADBAND = 5.0 OR 1.0 OR 0.3 DEGREES
000744: 17,2757           60375                           SU       DB                                    #  SCALED AT PI RADIANS.
000745: 17,2760           55441                           TS       FPQR                                  #  0.5(1/ACC)EDOT(2)-DB SCALED AT PI RADS.
000746:
000747: 17,2761           31412                           CAE      EDOT(2)                               #  SCALED AT PI(2)/2(8) RAD(2)/SEC(2).
000748: 17,2762           00006                           EXTEND
000749: 17,2763           50061                           INDEX    AXISCNTR
000750: 17,2764           71721                           MP       1/AMINQ                               #  .5(1/ACCMIN) AT 2(8)/PI SEC(2)/RAD.
000751: 17,2765           60375                           AD       DB                                    #  DEADBAND SCALED AT PI RADIANS.
000752: 17,2766           55460                           TS       FPQRMIN                               #  .5(1/ACCMIN)EDOT(2)+DB SCALED AT PI RAD.
000753:
000754: 17,2767           11407                           CCS      EDOT                                  #  EDOT TEST ON SIGN (NON-ZERO):
000755: 17,2770           31411                           CAE      E                                     #  ATTITUDE ERROR FOR THIS AXIS
000756: 17,2771           12773                           TCF      +2                                    #  SCALED AT PI RADIANS.
000757: 17,2772           13015                           TCF      EDOTNEG
000758: 17,2773           27441                           ADS      FPQR                                  #  E+0.5(1/ACC)EDOT(2)-DB SCALED AT PI RAD.
000759:
000760: 17,2774           11407        FTEST              CCS      EDOT                                  #  EDOT GUARANTEED NOT +0 OR -0.
000761: 17,2775           11441                           CCS      FPQR                                  #  FPQR GUARANTEED NOT +0.


000763: 17,2776           13003                           TCF      QUICKURG                              #  EDOT.G.+0, FPQR.G.+0.
000764: 17,2777           11441                           CCS      FPQR                                  #  EDOT.L.-0.
000765: 17,3000           13021                           TCF      FMINCALC                              #  EDOT.L.-0,FPQR.G.+0/EDOT.G.+0,FPQR.L.-0.
000766: 17,3001           13021                           TCF      FMINCALC                              #  EDOT.G.+0,FPQR.E.-0 (FROM FIRST CCS).
000767: 17,3002           13003                           TCF      QUICKURG                              #  EDOT.L.-0,FPQR.L.-0.
000768:
000769: 17,3003           31407        QUICKURG           CAE      EDOT                                  #  EDOT.L.-0,FPQR.E.-0 (FROM 2ND CCS).
000770: 17,3004           00006                           EXTEND                                         #  SCALE FROM PI/16 TO PI RADIANS/SECOND
000771: 17,3005           77751                           MP       BIT11                                 #  TO HAVE SAME SCALING AS FPQR AFTER THE
000772: 17,3006           61441                           AD       FPQR                                  #  IMPLICIT MULT. OF FPQR BY 1/SEC.
000773: 17,3007           13043                           TCF      URGMULT                               #  THIS URGENCY = (1/ACC)(FPQR+EDOT).
000774:
000775: 17,3010           10000        EDOTMAX            CCS      A                                     #  GURANTEED NOT +0 OR -0.
000776: 17,3011           37743                           CAF      POSMAX
000777: 17,3012           12747                           TCF      EDOTSTOR                              #  SET EDOT TO SIGNED MAXIMUM.
000778: 17,3013           47743                           CS       POSMAX
000779: 17,3014           12747                           TCF      EDOTSTOR                              #  SCALED AT PI/16 RADIANS/SECOND.
000780:
000781: 17,3015           41441        EDOTNEG            CS       FPQR                                  #  SCALED AT PI RADIANS
000782: 17,3016           61411                           AD       E                                     #  ATTITUDE ERROR FOR THIS AXIS
000783: 17,3017           55441                           TS       FPQR                                  #  E-0.5(1/ACC)EDOT(2)+DB SCALED AT PI RAD.
000784: 17,3020           12774                           TCF      FTEST
000785:
000786: 17,3021           11441        FMINCALC           CCS      FPQR                                  #  NECESSARY RETEST ON FPQR;
000787: 17,3022           41460                           CS       FPQRMIN
000788: 17,3023           13025                           TCF      +2                                    #  E-0.5(1/ACCMIN)EDOT(2)-DB
000789: 17,3024           31460                           CAE      FPQRMIN
000790: 17,3025           61411                           AD       E                                     #  E+0.5(1/ACCMIN)EDOT(2)+DB
000791: 17,3026           55460                           TS       FPQRMIN                               #  SCALED AT PI RADIANS.
000792:
000793: 17,3027           11407                           CCS      EDOT                                  #  EDOT    GUARANTEED NOT +0 OR -0.
000794: 17,3030           11460                           CCS      FPQRMIN                               #  FPQRMIN GUARANTEED NOT +0 (CALL IT F).
000795: 17,3031           13036                           TCF      ZEROURG                               #  EDOT.G.+0, F.G.+0.
000796: 17,3032           11460                           CCS      FPQRMIN                               #  EDOT.L.-0.
000797: 17,3033           13042                           TCF      NORMURG                               #  EDOT.L.-0, F.G.+0 / EDOT.G.+0, F.L.-0.
000798: 17,3034           13042                           TCF      NORMURG                               #  EDOT.G.+0, F.E.-0 (FROM FIRST CCS).
000799: 17,3035           13036                           TCF      ZEROURG                               #  EDOT.L.-0, F.L.-0.
000800: 17,3036           00006        ZEROURG            EXTEND                                         #  EDOT.L.-0, F.E.-0 (FROM 2ND CCS).
000801: 17,3037           33117                           DCA      DPZEROY                               #  THIS URGENCY IS ZERO.
000802: 17,3040           53503                           DXCH     URGENCYQ
000803: 17,3041           13047                           TCF      MOREURG                               #  TEST FOR NEXT AXIS
000804:
000805: 17,3042           31460        NORMURG            CAE      FPQRMIN                               #  THIS URGENCY IS FPQRMIN(1/ACC).
000806: 17,3043           00006        URGMULT            EXTEND
000807: 17,3044           50061                           INDEX    AXISCNTR
000808: 17,3045           71717                           MP       1/ACCQ
000809: 17,3046           53503                           DXCH     URGENCYQ                              #  SAVE D.P. SCALED AT 2(+9).
000810:
000811: 17,3047           10061        MOREURG            CCS      AXISCNTR                              #  TEST FOR END OF LOOP
000812: 17,3050           13052                           TCF      +2                                    #  CONTINUE.
000813:


000815: 17,3051           13120                           TCF      URGSCALQ                              #  FINISHED.
000816:
000817: 17,3052           54061                           TS       AXISCNTR                              #  Q-AXIS
000818:
000819: 17,3053           00006                           EXTEND
000820: 17,3054           31503                           DCA      URGENCYQ                              #  SET URGENCYR
000821: 17,3055           53505                           DXCH     URGENCYR
000822:
000823: 17,3056           53412                           DXCH     E                                     #  SET ER,EDOT(2)R
000824: 17,3057           53414                           DXCH     ER
000825: 17,3060           55411                           TS       EQ                                    #  SET EQ
000826: 17,3061           31407                           CAE      EDOT
000827: 17,3062           55410                           TS       EDOT(R)                               #  SET EDOT(R).
000828:
000829: 17,3063           12733                           TCF      URGLOOP                               #  CONTINUE.
000830:
000831:                                                                                                  #  SUFFICIENT TEST FOR URGENCY RESCALING:
000832:
000833: 17,3064           11504        URGSCALR           CCS      URGENCYR                              #  IF ABVAL(URGENCYR) LESS THAN SCALE BOUND
000834: 17,3065           63115                           AD       SCALEBND
000835: 17,3066           13070                           TCF      +2                                    #  THEN BOTH URGENCIES CAN BE RESCALED FROM
000836: 17,3067           63115                           AD       SCALEBND
000837: 17,3070           00006                           EXTEND                                         #  2(+9) TO 2(+4) SECONDS.
000838: 17,3071           63073                           BZMF     URGSCALE
000839: 17,3072           13126                           TCF      URGLIMS
000840:
000841:                                                                                                  #  RESCALE BOTH URGENCIES FROM 2(+9) TO 2(+4) SECONDS:
000842:
000843: 17,3073           31502        URGSCALE           CAE      URGENCYQ                              #  SHIFT D.P. URGENCYQ LEFT 5-PLACES TO
000844: 17,3074           00006                           EXTEND                                         #  FORM S.P. URGENCYQ NOW SCALED AT 16 SECS
000845: 17,3075           77756                           MP       BIT6
000846: 17,3076           23502                           LXCH     URGENCYQ
000847: 17,3077           31503                           CAE      URGENCYQ   +1
000848: 17,3100           00006                           EXTEND
000849: 17,3101           77756                           MP       BIT6
000850: 17,3102           27502                           ADS      URGENCYQ
000851:
000852: 17,3103           31504                           CAE      URGENCYR                              #  SHIFT D.P. URGENCYR LEFT 5-PLACES TO
000853: 17,3104           00006                           EXTEND                                         #  FORM S.P. URGENCYR NOW SCALED AT 16 SECS
000854: 17,3105           77756                           MP       BIT6
000855: 17,3106           23504                           LXCH     URGENCYR
000856: 17,3107           31505                           CAE      URGENCYR   +1
000857: 17,3110           00006                           EXTEND
000858: 17,3111           77756                           MP       BIT6
000859: 17,3112           27504                           ADS      URGENCYR
000860:
000861: 17,3113           31477                           CAE      URGLM2                                #  SET URGENCY LIMIT FOR 2(+4) SCALING.
000862: 17,3114           13127                           TCF      URGFUDGE
000863:
000864: 17,3115           77400        SCALEBND           OCTAL    77400                                 #   -8 SECONDS SCALED AT 2(+9).


000866: 17,3116           00000 00000  DPZEROY            2DEC     0          B-28
000867:
000868:                                                                                                  #  NECESSARY TEST FOR URGENCY RESCALING:
000869:
000870: 17,3120           11502        URGSCALQ           CCS      URGENCYQ                              #  IF ABVAL(URGENCYQ) LESS THAN SCALE BOUND
000871: 17,3121           63115                           AD       SCALEBND
000872: 17,3122           13124                           TCF      +2                                    #  THEN TEST URGENCYR FOR RESCALABLE
000873: 17,3123           63115                           AD       SCALEBND
000874: 17,3124           00006                           EXTEND                                         #  MAGNITUDE.
000875: 17,3125           63064                           BZMF     URGSCALR
000876:
000877: 17,3126           31476        URGLIMS            CAE      URGLM1                                #  SET URGENCY LIMIT FOR 2(+9) SCALING.
000878: 17,3127           54066        URGFUDGE           TS       URGLIMIT
000879:
000880:                                                                                                  #  USE URGENCY FUNCTION CORRECTION FACTOR WHEN NECESSARY:
000881:
000882: 17,3130           11660                           CCS      AOSQ                                  #  IF C(AOSQ) ZERO OR IF(URGENCYQ) ZERO,
000883: 17,3131           41502                           CS       URGENCYQ                              #  THEN IT IS CLEARLY UNNECESSARY TO FUDGE.
000884: 17,3132           13134                           TCF      +2                                    #  WHILE MAKING THIS TEST, WE CALCULATE
000885: 17,3133           31502                           CAE      URGENCYQ                              #  -SIGN(AOSQ)(URGENCYQ) WHICH IF POSITIVE
000886: 17,3134           00006                           EXTEND                                         #  INDICATES THAT WE ARE TRYING TO FIGHT
000887: 17,3135           63142                           BZMF     URGFUDG1                              #  THE EFFECT OF AOSQ, SO WE DO NOT FUDGE.
000888:
000889: 17,3136           31725                           CAE      URGRATQ                               #  HERE WE KNOW THAT AOSQ WILL ACTUALLY
000890: 17,3137           00006                           EXTEND                                         #  HELP THE RCS JETS MANEUVER FOR THIS AXIS
000891: 17,3140           71502                           MP       URGENCYQ                              #  FOR THIS CSP, MULTIPLYING BY URGRATQ
000892: 17,3141           55502                           TS       URGENCYQ                              #  REDUCES URGENCYQ APPROPRIATELY ENOUGH.
000893:
000894: 17,3142           11661        URGFUDG1           CCS      AOSR                                  #  HERE WE DO THE SAME LOGIC FOR THE R-AXIS
000895: 17,3143           41504                           CS       URGENCYR                              #  COMPUTATIONS AS WE DID FOR THE Q-AXIS AT
000896: 17,3144           13146                           TCF      +2                                    #  URGFUDGE.  RATHER THAN REPEAT THE ABOVE
000897: 17,3145           31504                           CAE      URGENCYR                              #  COMMENTS, WE PROVIDE A BIT OF FURTHER
000898: 17,3146           00006                           EXTEND                                         #  EXPLANATION; FIRST, ONLY A S.P. URGENCY
000899: 17,3147           63154                           BZMF     URGPLANE                              #  IS SAVED IF WE DO THE FUDGE, SINCE ONLY
000900:
000901: 17,3150           31726                           CAE      URGRATR                               #  S.P. URGENCIES ARE REFERENCED BELOW AND
000902: 17,3151           00006                           EXTEND                                         #  NO D.P. ACCURACY IS NEEDED.  SECOND, BY
000903: 17,3152           71504                           MP       URGENCYR                              #  BY MULTIPLYING BY THE FUDGE RATIO DURING
000904: 17,3153           55504                           TS       URGENCYR                              #  APS BURNS, WE PREVENT SOME RCS FIRINGS
000905:                                                                                                  #  WHICH WOULD OVER-CORRECT DU TO THE AOS.
000906:
000907: 17,3154           31502        URGPLANE           CAE      URGENCYQ                              #  BEGIN URGENCY-PLANE COMPUTATIONS:
000908: 17,3155           00006                           EXTEND
000909: 17,3156           13310                           BZF      BURGZERO                              #  TEST FOR BOTH URGENCIES ZERO
000910:
000911: 17,3157           00006                           EXTEND
000912: 17,3160           73325                           MP       -TAN22.5
000913: 17,3161           61504                           AD       URGENCYR
000914: 17,3162           00006                           EXTEND
000915: 17,3163           73323                           MP       COS22.5


000917: 17,3164           55510                           TS       TERMA                                 #  UR.COS(22.5)-UQ.SIN(22.5)
000918:
000919: 17,3165           41504                           CS       URGENCYR
000920: 17,3166           00006                           EXTEND
000921: 17,3167           73325                           MP       -TAN22.5
000922: 17,3170           61502                           AD       URGENCYQ
000923: 17,3171           00006                           EXTEND
000924: 17,3172           73323                           MP       COS22.5
000925: 17,3173           55511                           TS       TERMB                                 #  UR.SIN(22.5)+UQ.COS(22.5)
000926:
000927: 17,3174           61510        A+B/A-B            AD       TERMA
000928: 17,3175           55506                           TS       A+B
000929: 17,3176           41511        A-B/ONLY           CS       TERMB
000930: 17,3177           61510                           AD       TERMA
000931: 17,3200           55507                           TS       A-B
000932:
000933:                                                                                                  #  AXIS AND MODE SELECTION
000934:
000935: 17,3201           31511                           CAE      TERMB                                 #  B URGENCY TEST
000936: 17,3202           00006                           EXTEND
000937: 17,3203           63326                           BZMF     NEGBURG
000938:
000939: 17,3204           31510        POSBURG            CAE      TERMA                                 #  A URGENCY TEST
000940: 17,3205           00006                           EXTEND
000941: 17,3206           63252                           BZMF     NETAPOSB
000942:
000943: 17,3207           31507        POSAPOSB           CAE      A-B
000944: 17,3210           00006                           EXTEND
000945: 17,3211           63233                           BZMF     MINUSU                                #  NEGATIVE U-AXIS SELECTED
000946:
000947: 17,3212           31722        2/4JET-R           CAE      1/AMINR
000948: 17,3213           55633                           TS       .5ACCMNE
000949: 17,3214           00006                           EXTEND
000950: 17,3215           31414                           DCA      ER
000951: 17,3216           53412                           DXCH     E
000952: 17,3217           31410                           CAE      EDOT(R)
000953: 17,3220           55407                           TS       EDOT
000954: 17,3221           30066                           CAE      URGLIMIT
000955: 17,3222           61504                           AD       URGENCYR
000956: 17,3223           00006                           EXTEND
000957: 17,3224           63227                           BZMF     2JETS-R
000958:
000959: 17,3225           47763        4JETS-R            CS       ONE
000960: 17,3226           13431                           TCF      POLTYPE                               #  GO FIND BEST POLICY
000961:
000962: 17,3227           11671        2JETS-R            CCS      NJ-R
000963: 17,3230           13225                           TCF      4JETS-R
000964: 17,3231           47762                           CS       TWO
000965: 17,3232           13431                           TCF      POLTYPE                               #  GO FIND BEST POLICY
000966:


000968: 17,3233           31723        MINUSU             CAE      1/AMINU
000969: 17,3234           55633                           TS       .5ACCMNE
000970: 17,3235           31502                           CAE      URGENCYQ
000971: 17,3236           61504                           AD       URGENCYR
000972: 17,3237           60066                           AD       URGLIMIT
000973: 17,3240           00006                           EXTEND
000974: 17,3241           63245                           BZMF     2JETS-U
000975:
000976: 17,3242           03445        2JETSM-U           TC       UXFORM
000977: 17,3243           36311        2-U.RATE           CAF      THREE
000978: 17,3244           13431                           TCF      POLTYPE                               #  GO FIND BEST POLICY
000979:
000980: 17,3245           11673        2JETS-U            CCS      NJ-U
000981: 17,3246           13242                           TCF      2JETSM-U
000982: 17,3247           03445                           TC       UXFORM
000983: 17,3250           37762                           CAF      TWO
000984: 17,3251           13431                           TCF      POLTYPE                               #  GO FIND BEST POLICY
000985:
000986: 17,3252           31506        NETAPOSB           CAE      A+B
000987: 17,3253           00006                           EXTEND
000988: 17,3254           63271                           BZMF     PLUSV
000989:
000990: 17,3255           31721        2/4JET-Q           CAE      1/AMINQ
000991: 17,3256           55633                           TS       .5ACCMNE
000992: 17,3257           30066                           CAE      URGLIMIT
000993: 17,3260           61502                           AD       URGENCYQ
000994: 17,3261           00006                           EXTEND
000995: 17,3262           63265                           BZMF     2JETS-Q
000996:
000997: 17,3263           47766        4JETS-Q            CS       FIVE
000998: 17,3264           13431                           TCF      POLTYPE                               #  GO FIND BEST POLICY
000999:
001000: 17,3265           11667        2JETS-Q            CCS      NJ-Q
001001: 17,3266           13263                           TCF      4JETS-Q
001002: 17,3267           46306                           CS       SIX
001003: 17,3270           13431                           TCF      POLTYPE                               #  GO FIND BEST POLICY
001004:
001005: 17,3271           31724        PLUSV              CAE      1/AMINV
001006: 17,3272           55633                           TS       .5ACCMNE
001007: 17,3273           41504                           CS       URGENCYR
001008: 17,3274           61502                           AD       URGENCYQ
001009: 17,3275           60066                           AD       URGLIMIT
001010: 17,3276           00006                           EXTEND
001011: 17,3277           63303                           BZMF     2JETS+V
001012:
001013: 17,3300           03437        2JETSM+V           TC       VXFORM
001014: 17,3301           37766        2+V.RATE           CAF      FIVE
001015: 17,3302           13431                           TCF      POLTYPE                               #  GO FIND BEST POLICY
001016:
001017: 17,3303           11674        2JETS+V            CCS      NJ+V


001019: 17,3304           13300                           TCF      2JETSM+V
001020: 17,3305           03437                           TC       VXFORM
001021: 17,3306           37761                           CAF      FOUR
001022: 17,3307           13431                           TCF      POLTYPE                               #  GO FIND BEST POLICY
001023:
001024: 17,3310           31504        BURGZERO           CAE      URGENCYR                              #  TEST FOR SECOND URGENCY ALSO ZERO
001025: 17,3311           00006                           EXTEND
001026: 17,3312           12651                           BZF      GIMBLTRY                              #  BOTH URGENCIES ZERO.  TRY THE GTS.
001027:
001028: 17,3313           00006                           EXTEND                                         #  TIME SAVING A+B CALCULATION
001029: 17,3314           73324                           MP       SIN22.5
001030: 17,3315           55511                           TS       TERMB                                 #  US.SIN(22.5)
001031: 17,3316           31504                           CAE      URGENCYR
001032: 17,3317           00006                           EXTEND
001033: 17,3320           73323                           MP       COS22.5
001034: 17,3321           55510                           TS       TERMA                                 #  UR.COS(22.5)
001035: 17,3322           13176                           TCF      A-B/ONLY
001036:
001037: 17,3323           35441        COS22.5            DEC      0.92388                               #  COSINE OF 22.5 DEGREES
001038: 17,3324           14176        SIN22.5            DEC      0.38268                               #  SINE OF 22.5 DEGREES
001039: 17,3325           62575        -TAN22.5           DEC      -.41421                               #  NEGATIVE OF TANGENT OF 22.5 DEGREES
001040:
001041: 17,3326           31510        NEGBURG            CAE      TERMA                                 #  A URGENCY TEST
001042: 17,3327           00006                           EXTEND
001043: 17,3330           63353                           BZMF     NEGANEGB
001044:
001045: 17,3331           31506        POSANEGB           CAE      A+B
001046: 17,3332           00006                           EXTEND
001047: 17,3333           63416                           BZMF     2/4JET+Q
001048:
001049: 17,3334           31724        MINUSV             CAE      1/AMINV
001050: 17,3335           55633                           TS       .5ACCMNE
001051: 17,3336           41502                           CS       URGENCYQ
001052: 17,3337           61504                           AD       URGENCYR
001053: 17,3340           60066                           AD       URGLIMIT
001054: 17,3341           00006                           EXTEND
001055: 17,3342           63346                           BZMF     2JETS-V
001056:
001057: 17,3343           03437        2JETSM-V           TC       VXFORM
001058: 17,3344           37765        2-V.RATE           CAF      SEVEN
001059: 17,3345           13431                           TCF      POLTYPE                               #  GO FIND BEST POLICY
001060:
001061: 17,3346           11675        2JETS-V            CCS      NJ-V
001062: 17,3347           13343                           TCF      2JETSM-V
001063: 17,3350           03437                           TC       VXFORM
001064: 17,3351           36306                           CAF      SIX
001065: 17,3352           13431                           TCF      POLTYPE                               #  GO FIND BEST POLICY
001066:
001067: 17,3353           31507        NEGANEGB           CAE      A-B
001068: 17,3354           00006                           EXTEND


001070: 17,3355           63375                           BZMF     2/4JET+R
001071:
001072: 17,3356           31723        PLUSU              CAE      1/AMINU
001073: 17,3357           55633                           TS       .5ACCMNE
001074: 17,3360           40066                           CS       URGLIMIT
001075: 17,3361           61502                           AD       URGENCYQ
001076: 17,3362           61504                           AD       URGENCYR
001077: 17,3363           00006                           EXTEND
001078: 17,3364           63372                           BZMF     2JETSM+U
001079:
001080: 17,3365           11672        2JETS+U            CCS      NJ+U
001081: 17,3366           13372                           TCF      2JETSM+U
001082: 17,3367           03445                           TC       UXFORM
001083: 17,3370           37767                           CAF      ZERO
001084: 17,3371           13431                           TCF      POLTYPE                               #  GO FIND BEST POLICY
001085:
001086: 17,3372           03445        2JETSM+U           TC       UXFORM
001087: 17,3373           37763        2+U.RATE           CAF      ONE
001088: 17,3374           13431                           TCF      POLTYPE                               #  GO FIND BEST POLICY
001089:
001090: 17,3375           31722        2/4JET+R           CAE      1/AMINR
001091: 17,3376           55633                           TS       .5ACCMNE
001092: 17,3377           00006                           EXTEND
001093: 17,3400           31414                           DCA      ER
001094: 17,3401           53412                           DXCH     E
001095: 17,3402           31410                           CAE      EDOT(R)
001096: 17,3403           55407                           TS       EDOT
001097: 17,3404           41504                           CS       URGENCYR
001098: 17,3405           60066                           AD       URGLIMIT
001099: 17,3406           00006                           EXTEND
001100: 17,3407           63412                           BZMF     2JETS+R
001101:
001102: 17,3410           46311        4JETS+R            CS       THREE
001103: 17,3411           13431                           TCF      POLTYPE                               #  GO FIND BEST POLICY
001104:
001105: 17,3412           11670        2JETS+R            CCS      NJ+R
001106: 17,3413           13410                           TCF      4JETS+R
001107: 17,3414           47761                           CS       FOUR
001108: 17,3415           13431                           TCF      POLTYPE                               #  GO FIND BEST POLICY
001109:
001110: 17,3416           31721        2/4JET+Q           CAE      1/AMINQ
001111: 17,3417           55633                           TS       .5ACCMNE
001112: 17,3420           41502                           CS       URGENCYQ
001113: 17,3421           60066                           AD       URGLIMIT
001114: 17,3422           00006                           EXTEND
001115: 17,3423           63426                           BZMF     2JETS+Q
001116:
001117: 17,3424           47765        4JETS+Q            CS       SEVEN
001118: 17,3425           13431                           TCF      POLTYPE                               #  GO FIND BEST POLICY
001119:


001121: 17,3426           11666        2JETS+Q            CCS      NJ+Q
001122: 17,3427           13424                           TCF      4JETS+Q
001123: 17,3430           47760                           CS       EIGHT
001124:
001125:                                                                                                  #  GENERALIZED CALLING SEQUENCE FOR ALL Q,R-AXES ROTATIONS (FROM BANK 17):
001126:
001127: 17,3431           54061        POLTYPE            TS       NETACNDX                              #  SAVE INDEX INDICATING AXIS, DIRECTION,
001128: 17,3432           00006                           EXTEND                                         #  AND NUMBER OF JETS REQUESTED (THIS SPEC-
001129: 17,3433           33436                           DCA      POLADR                                #  IFIES THE "OPTIMAL" POLICY.  TRANSFER
001130: 17,3434           52006                           DTCB                                           #  ACROSS BANKS TO POLICY SELECTION ROUTINE
001131:
001132: 17,3435  E6,1471                                  EBANK=   JTSONNOW
001133: 17,3435           02321 40066  POLADR             2CADR    POLTYPEP                              #  2CADR OF JET POLICY SELECT ROUINTE.
001134:
001135:


001137:                                                                                                  #  SUBROUTINES UXFORM AND VXFORM CALCULATE NEEDED VALUES FOR T-JET LAW
001138:                                                                                                  #  (THEY GO OFF TO REDUCE RATE, IF NECESSARY, AND THEN DO NOT RETURN)
001139:
001140: 17,3437           31713        VXFORM             CAE      1/2JETSV                              #  GET INVERSE OF V-JET ACCELERATION
001141: 17,3440           54066                           TS       1/NJETAC
001142: 17,3441           41411                           CS       EQ                                    #  COMPLEMENT FOR TRANSFORMATION
001143: 17,3442           55411                           TS       EQ
001144: 17,3443           41423                           CS       EDOTQ
001145: 17,3444           13450                           TCF      UVXFORM    +1
001146: 17,3445           31707        UXFORM             CAE      1/2JETSU                              #  SET INVERSE OF U-JET ACCELERATION
001147: 17,3446           54066                           TS       1/NJETAC
001148:
001149: 17,3447           31423        UVXFORM            CAE      EDOTQ                                 #  TRANSFORM ANGULAR RATE TO U/V-AXIS
001150: 17,3450           61424                           AD       EDOTR
001151: 17,3451           00006                           EXTEND
001152: 17,3452           73525                           MP       .707
001153: 17,3453           55407                           TS       EDOT                                  #  SAVE FOR REDUCEUV
001154: 17,3454           00006                           EXTEND
001155: 17,3455           77761                           MP       BIT3
001156: 17,3456           00006                           EXTEND
001157: 17,3457           13465                           BZF      UVEDOT                                #  BRANCH IF RESCALING SUCCESSFUL.
001158:
001159: 17,3460           10000                           CCS      A                                     #  LIMIT EDOT TO +/- 11.25 DEG/SEC.
001160: 17,3461           37743                           CAF      POSMAX
001161: 17,3462           13466                           TCF      UVEDOT1
001162: 17,3463           47743                           CS       POSMAX
001163: 17,3464           13466                           TCF      UVEDOT1
001164:
001165: 17,3465           30001        UVEDOT             CAE      L
001166: 17,3466           55407        UVEDOT1            TS       EDOT                                  #  RATE ERROR SCALED AT PI/16.
001167: 17,3467           00006                           EXTEND
001168: 17,3470           70000                           SQUARE
001169: 17,3471           55412                           TS       EDOT(2)                               #  SAVE RATE SQUARED SCALED AT PI(2)/2(8)
001170:
001171: 17,3472           31411                           CAE      EQ                                    #  TRANSFORM ANGULAR ERROR TO U/V-AXIS
001172: 17,3473           61413                           AD       ER
001173: 17,3474           00006                           EXTEND
001174: 17,3475           73525                           MP       .707
001175: 17,3476           55411                           TS       E
001176:
001177: 17,3477           00002                           TC       Q
001178:
001179: 17,3500           77545        -1.5CSPQ           DEC      -.00938
001180: 17,3501           00014        +TJMINT6           DEC      +.00073
001181: 17,3502           77757        -TJMIN16           DEC      -.00097
001182: 17,3503  17,3502               -TJMINQR           EQUALS   -TJMIN16
001183: 17,3503           00050        38.7MAT4           DEC      0.00242
001184: 17,3504           77733        -MS35AT4           DEC      -.00219                               #  35MS SCALED AT 4


001186: 17,3505           34344        MAXRATE            DEC      0.88889                               #  10 DEGREES/SECOND SCALED AT PI/16
001187: 17,3506           31221        MAXRATE2           DEC      0.79012                               #  100 DEG(2)/SEC(2) SCALED AT PI(2)/2(8)
001188: 17,3507           01552        .6DEG/SC           DEC      0.05333                               #  6/10 DEGREES/SECOND SCALED AT PI/16
001189: 17,3510           31000        25/32QR            DEC      0.78125
001190:
001191:


001193:                                                                                                  #  THESE TWO SUBROUTINES TRANSFORM EDOTQ,EDOTR INTO THE U/V-AXIS (RESPECTIVELY) FOR THE RATE COMMAND MODE (ONLY).
001194:                                                                                                  #  VALUE IS STORED IN EDOTGEN SCALED AT PI/4 RADIANS/SECOND.
001195:
001196: 17,3511                                           BANK     17
001197:
001198: 17,3511           31707        EDOTUGEN           CAE      1/2JETSU                              #  FOR U-AXIS TRANSFORMATION
001199: 17,3512           54066                           TS       1/NJETAC
001200: 17,3513           31423                           CAE      EDOTQ
001201: 17,3514           13520                           TCF      +4
001202: 17,3515           31713        EDOTVGEN           CAE      1/2JETSV                              #  FOR V-AXIS TRANSFORMATION
001203: 17,3516           54066                           TS       1/NJETAC
001204: 17,3517           41423                           CS       EDOTQ
001205: 17,3520           61424                           AD       EDOTR
001206: 17,3521           00006                           EXTEND
001207: 17,3522           73525                           MP       .707
001208: 17,3523           55437                           TS       RATEDIF
001209: 17,3524           00002                           TC       Q
001210:
001211:
001212: 17,3525           26501        .707               DEC      0.70711                               #  SQRT(1/2)
001213:
001214: 17,3526           00006        SPSBAKUP           EXTEND
001215: 17,3527           33532                           DCA      SPSRCSAD
001216: 17,3530           52006                           DXCH     Z
001217: 17,3531  E6,1542                                  EBANK=   DT
001218: 17,3531           03417 42066  SPSRCSAD           2CADR    SPSRCS
001219:
001220:


001222:                                                                                                  #  *********TJETLAW*********************************************************************************
001223:
001224: 17,3533           41407        TJETLAW            CS       EDOT                                  #  TEST EDOT SIGN
001225: 17,3534           00006                           EXTEND
001226: 17,3535           63541                           BZMF     +4
001227: 17,3536           55407                           TS       EDOT                                  #  SIGNS OF E AND EDOT CHANGED IF EDOT NEG
001228: 17,3537           41411                           CS       E                                     #  TO CONSIDER FUNCTIONS IN UPPER HALF OF
001229: 17,3540           55411                           TS       E                                     #  THE E,EDOT PHASE PLANE
001230:
001231: 17,3541           31412                           CAE      EDOT(2)                               #  SCALED AT PI(2)/2(8) RAD(2)/SEC(2)
001232: 17,3542           00006                           EXTEND                                         #  (1/NJETAC HAS BEEN SET FOR N JETS)
001233: 17,3543           70066                           MP       1/NETACC                              #  IMPLICIT FACTOR OF (1/2).
001234: 17,3544           61411                           AD       E                                     #  SCALED AT PI RADIANS (ERROR)
001235: 17,3545           00006                           EXTEND
001236: 17,3546           60375                           SU       DB                                    #  SCALED AT PI RADIANS (DEADBAND)
001237: 17,3547           55444                           TS       HDAP                                  #  E + .5EDOT(2)/NJETACC - DB
001238:
001239: 17,3550           00006                           EXTEND
001240: 17,3551           63617                           BZMF     NEGHDAP
001241:
001242: 17,3552           31407                           CAE      EDOT                                  #  SCALED AT PI/16 RAD/SEC (RATE)
001243: 17,3553           00006                           EXTEND
001244: 17,3554           70066                           MP       1/NETACC                              #  SCALED AT 2(+8)/PI SEC(2)/RAD: (ACC) (-1)
001245: 17,3555           20001                           DDOUBL
001246: 17,3556           55510                           TS       TERMA
001247:
001248: 17,3557           63500                           AD       -1.5CSPQ                              #  (EDOT/NETACC)-1.5CSP SCALED AT 16 SECS.
001249: 17,3560           00006                           EXTEND
001250: 17,3561           63564                           BZMF     +3
001251:
001252: 17,3562           37746        MAXTJET            CAF      BIT14                                 #  (1/2) IS LIKE POSMAX AT THIS SCALING
001253: 17,3563           12456                           TCF      NORMRETN                              #  (OVERFLOW IS THUS PREVENTED)
001254:
001255: 17,3564           41444                           CS       HDAP                                  #  -DBMINIMP + E + EDOT(2)/NJETACC - DB
001256: 17,3565           61631                           AD       MINIMPDB                              #  SCALED AT PI RADIANS
001257: 17,3566           00006                           EXTEND
001258: 17,3567           63646                           BZMF     MAINBRCH
001259:
001260: 17,3570           31510                           CAE      TERMA                                 #  EDOT/NJETACC - .5TJMIN SCALED AT 16 SECS
001261: 17,3571           63504                           AD       -MS35AT4
001262: 17,3572           00006                           EXTEND                                         #  COMPARE TIME-GO-GET-ZERO-RATE WITH 35MS.
001263: 17,3573           63576                           BZMF     INZONE4
001264:
001265: 17,3574           63503                           AD       38.7MAT4                              #  TIME-TO-GET-ZERO-RATE + 1/2 MINIMP.
001266: 17,3575           13742                           TCF      TJETSCAL
001267:
001268: 17,3576           11407        INZONE4            CCS      EDOT                                  #  IF EDOT IS EITHER 00001, 00000, 77777,
001269: 17,3577           00006                           EXTEND                                         #  OR 77776 (IN OCTAL), THEN THIS CODING
001270: 17,3600           12413                           BZF      XTRANS                                #  CAUSES A BRANCH TO XTRANS, NO ROTATION
001271: 17,3601           00006                           EXTEND                                         #  JETS ARE FIRED. *** NOTE: IF THE EXTEND


001273: 17,3602           12413                           BZF      XTRANS                                #  CODE IS SKIPPED, BZF EXECUTES LIKE TCF.
001274:
001275:
001276: 17,3603           31607                           CAE      NO.QJETS                              #  IF NO Q-AXIS JETS THEN MUST HAVE R-AXIS.
001277: 17,3604           00006                           EXTEND
001278: 17,3605           13613                           BZF      ROTRAXIS
001279:
001280: 17,3606           30775                           CAE      OMEGAQD                               #  WITH Q-AXIS JETS, ZERO THE RATE ERROR.
001281: 17,3607           55416                           TS       OMEGAQ
001282:
001283: 17,3610           31610                           CAE      NO.RJETS                              #  IF NO R-AXIS JETS, THEN Q-AXIS JETS WERE
001284: 17,3611           00006                           EXTEND                                         #  ALREADY FOUND.
001285: 17,3612           13615                           BZF      DOTJMIN
001286:
001287: 17,3613           30776        ROTRAXIS           CAE      OMEGARD                               #  WITH R-AXIS JETS, ZERO THE RATE ERROR.
001288: 17,3614           55420                           TS       OMEGAR
001289:
001290: 17,3615           33501        DOTJMIN            CAF      +TJMINT6                              #  USE MINIMUM IMPULSE DT FOR TQR.
001291: 17,3616           12456                           TCF      NORMRETN
001292:
001293: 17,3617           31412        NEGHDAP            CAE      EDOT(2)                               #  SCALED AT PI(2)/2(8) RAD(2)/SEC(2)
001294: 17,3620           00006                           EXTEND
001295: 17,3621           71633                           MP       .5ACCMNE                              #  .5(1/ACCMIN) AT 2(8)/PI SEC(2)/RAD.
001296: 17,3622           61411                           AD       E                                     #  ATTITUDE ERROR SCALED AT PI RADIANS
001297: 17,3623           60375                           AD       DB                                    #  DEADBANDS (2) SCALED AT PI RADIANS.
001298: 17,3624           61630                           AD       DBMINIMP                              #  (DURING APS BURNS DBMINIMP = 0.)
001299: 17,3625           00006                           EXTEND
001300: 17,3626           63630                           BZMF     +2
001301: 17,3627           12413                           TCF      XTRANS                                #  NO ROTATION JETS NEEDED.
001302:
001303: 17,3630           43505                 +2        CS       MAXRATE                               #  10 DEG/SEC SCALED AT PI/16 RAD/SEC
001304: 17,3631           61407                           AD       EDOT                                  #  EDOT-MAXRATE SCALED AT PI/16 RAD/SEC.
001305: 17,3632           00006                           EXTEND
001306: 17,3633           63635                           BZMF     +2
001307: 17,3634           12413                           TCF      XTRANS
001308:
001309: 17,3635           41407                 +2        CS       EDOT                                  #  RATE ERROR SCALED AT PI/16 RAD/SEC.
001310: 17,3636           00006                           EXTEND                                         #  (LIMITED TO +/- 11.25 DEG/SEC.)
001311: 17,3637           70066                           MP       1/NETACC                              #  SCALED AT 2(+8)/PI SEC(2)/RAD; (ACC):-1)
001312: 17,3640           20001                           DDOUBL                                         #  SCALED AT 2(+4) SECONDS.
001313: 17,3641           55510                           TS       TERMA
001314:
001315: 17,3642           41444                           CS       HDAP                                  #  - E + .5EDOT(2)/NJETACC + DB
001316: 17,3643           61411                           AD       E
001317: 17,3644           61411                           AD       E                                     #  TWICE ERROR NEGATES E OF HDAP(OLD)
001318: 17,3645           61631                           AD       MINIMPDB
001319: 17,3646           55444        MAINBRCH           TS       HDAP                                  #  -HDAP(OLD) + 2E + DBMINIMP AT PI RADS
001320:
001321: 17,3647           30066                           CAE      1/NETACC                              #  .5(1/NETACC+1/ACCMIN) SCALED AT 2(8)/PI.


001323: 17,3650           27633                           ADS      .5ACCMNE                              #  .5ACCMNE NOW HOLDS DENOM.
001324:
001325: 17,3651           00006                           EXTEND                                         #  DENOM(MAXRATE(2)).HDAP AT PI RADIANS.
001326: 17,3652           73506                           MP       MAXRATE2
001327: 17,3653           61444                           AD       HDAP
001328: 17,3654           00006                           EXTEND
001329: 17,3655           63734                           BZMF     NOROOT
001330:
001331: 17,3656           30066                           CAE      1/NETACC                              #  SAVE (1/NETACC)(2)
001332: 17,3657           60000                           DOUBLE
001333: 17,3660           00006                           EXTEND
001334: 17,3661           70000                           SQUARE
001335: 17,3662           53514                           DXCH     INVACCSQ
001336:
001337: 17,3663           31444                           CAE      HDAP                                  #  (HDAP)/(DENOM)
001338: 17,3664           22007                           ZL
001339: 17,3665           00006                           EXTEND
001340: 17,3666           11633                           DV       .5ACCMNE
001341: 17,3667           55727                           TS       QUOTTEMP
001342:
001343: 17,3670           00006                           EXTEND                                         #  +(HDAP/DENOM)(1/NETACC)(2) AT 2(8) SECS.
001344: 17,3671           71514                           MP       INVACCSQ   +1
001345: 17,3672           55514                           TS       INVACCSQ   +1
001346: 17,3673           37767                           CAF      ZERO
001347: 17,3674           57513                           XCH      INVACCSQ
001348: 17,3675           00006                           EXTEND
001349: 17,3676           71727                           MP       QUOTTEMP
001350: 17,3677           21514                           DAS      INVACCSQ
001351:
001352: 17,3700           00006                           EXTEND                                         #  SAVE COPY OF ABOVE D.P. VALUE
001353: 17,3701           31514                           DCA      INVACCSQ
001354: 17,3702           53512                           DXCH     TERMB
001355:
001356: 17,3703           33500                           CAF      -1.5CSPQ                              #  (1.5CSP-EDOT/NETACC) AT 16 SECS.
001357: 17,3704           61510                           AD       TERMA
001358: 17,3705           00006                           EXTEND
001359: 17,3706           70000                           SQUARE                                         #  (1.5CSP-EDOT/NETACC)(2) AT 256 SECS.
001360: 17,3707           21514                           DAS      INVACCSQ                              #  (1.5CSP-EDOT/NETACC)(2) - TERMB
001361:
001362: 17,3710           31513                           CAE      INVACCSQ                              #  CHECK HIGH ORDER PART, IF NON-ZERO.
001363: 17,3711           00006                           EXTEND
001364: 17,3712           13714                           BZF      ONLYTST1
001365: 17,3713           13715                           TCF      ONLYTST1   +1
001366:
001367: 17,3714           31514        ONLYTST1           CAE      INVACCSQ   +1                         #  USE LOW ORDER PART, SINCE HIGH PART 0.
001368: 17,3715           00006                           EXTEND
001369: 17,3716           63562                           BZMF     MAXTJET
001370:
001371: 17,3717           33502                           CAF      -TJMIN16                              #  -EDOT/NETACC-TJMIN SCALED AT 16.
001372: 17,3720           61510                           AD       TERMA


001374: 17,3721           00006                           EXTEND
001375: 17,3722           63746                           BZMF     MAYNOJET
001376:
001377: 17,3723           33733        PREROOT            CAF      AFTRUTAD                              #  THIS WILL CAUSE SQUARE ROOT TO BE TAKEN
001378: 17,3724           55000                           TS       T5ADR                                 #  ON THE NEXT T5RUPT.
001379: 17,3725           00006                           EXTEND
001380: 17,3726           00005                           READ     5
001381: 17,3727           55654                           TS       CH5TEMP
001382: 17,3730           31471        JETSON             CAE      JTSONNOW                              #  TURN ON JETS AND END RUPT
001383: 17,3731           06046                           TC       WRITEQR
001384: 17,3732           15733                           TCF      RESUME
001385:
001386: 17,3733           03214        AFTRUTAD           GENADR   DORUTDUM
001387: 17,3734           33505        NOROOT             CAF      MAXRATE
001388: 17,3735           63507                           AD       .6DEG/SC                              #  MAXRATE+DEL SCALED AT PI/16 RAD/SEC.
001389: 17,3736           00006                           EXTEND
001390: 17,3737           70066                           MP       1/NETACC                              #  (MAXRATE+DEL)/NETACC
001391: 17,3740           20001                           DDOUBL                                         #  SCALED AT 2(+4) SECONDS.
001392: 17,3741           61510        TJSUM              AD       TERMA
001393: 17,3742           60000        TJETSCAL           DOUBLE                                         #  NOW SCALED AT 2(+3) SECONDS.
001394: 17,3743           00006                           EXTEND
001395: 17,3744           73510                           MP       25/32QR                               #  SCALED TO 16/25 2(+4) SECONDS AS TIME6.
001396: 17,3745           12456                           TCF      NORMRETN
001397:
001398: 17,3746           00006        MAYNOJET           EXTEND                                         #  RE-INITIALIZE C(INVACCSQ,D.P.)
001399: 17,3747           31512                           DCA      TERMB                                 #  SINCE CLOBBERED ABOVE.
001400: 17,3750           53514                           DXCH     INVACCSQ
001401:
001402: 17,3751           33502                           CAF      -TJMIN16
001403: 17,3752           61510                           AD       TERMA                                 #  TERMA-TJMIN SCALED AT 2(+4) SECONDS.
001404: 17,3753           00006                           EXTEND
001405: 17,3754           70000                           SQUARE                                         #  SCALED AT 2(+8) SECONDS.
001406: 17,3755           21514                           DAS      INVACCSQ                              #  FORM D.P. SUM.
001407:
001408: 17,3756           31513                           CAE      INVACCSQ                              #  CHECK HIGH ORDER PART IF NON-ZERO.
001409: 17,3757           00006                           EXTEND
001410: 17,3760           13762                           BZF      ONLYTST2
001411: 17,3761           13763                           TCF      ONLYTST2   +1
001412:
001413: 17,3762           31514        ONLYTST2           CAE      INVACCSQ   +1                         #  USE LOW ORDER PART, SINCE HIGH PART 0.
001414: 17,3763           00006                           EXTEND
001415: 17,3764           63723                           BZMF     PREROOT
001416: 17,3765           13615                           TCF      DOTJMIN                               #  FIRE FOR MINIMUM IMPULSE.
001417: 17,3766           37777        CHKSUM17           OCT      37777
001418:
001419:


001421:                                                                                                  #  SUBROUTINE NAME: DAPSQRT        MOD. NO. 0  DATE: DECEMBER 28, 1966
001422:
001423:                                                                                                  #  AUTHOR: JONATHAN D. ADDLESTON (ADAMS ASSOCIATES)
001424:
001425:                                                                                                  #  DAPSQRT IS A SUBROUTINE WHICH PERFORMS THE NECESSARY AND APPROPRIATE INTERFACE FUNCTIONS BETWEEN THE LM DAP AND
001426:                                                                                                  #  THE PRESENT SPROOT SUBROUTINE IN MASTER.  DAPSQRT EXPECTS A DOUBLE PRECISION ARGUMENT IN C(A,L) AND WILL SHIFT
001427:                                                                                                  #  THAT QUANTITY SIX OR FOUR BITS TO THE LEFT TO FORM A MORE ACCURAGE SINGLE PRECISION ARGUMENT FOR SPROOT (AND
001428:                                                                                                  #  THEN SHIFT THE SINGLE PRECISION RESULT OF SPROOT THREE OR TWO BITS TO THE RIGHT IN ORDER TO MAINTAIN SCALING
001429:                                                                                                  #  CONSISTENCY).  DAPSQRT ALSO PERFORMS THE HERETOFORE NEGLECTED FUNCTION OF SAVING AND RESTORING THE CONTENTS OF
001430:                                                                                                  #  THE SR (SHIFT-RIGHT) REGISTER WHICH MUST BE DONE BY ALL USERS OF SPROOT IN INTERRUPT.
001431:
001432:                                                                                                  #  NOTE: IF ORIGINAL C(A) = 0, THEN THE SQUARE ROOT SINGLE PRECISION ARGUMENT IS C(L), AND THE RESULT FROM SPROOT
001433:                                                                                                  #  IS SHIFTED LEFT SEVEN BITS.
001434:
001435:                                                                                                  #  CALLING SEQUENCE:
001436:
001437:                                                                                                  #                                          L        TC     IBNKCALL        CALL IS ALWAYS FROM ANOTHER BANK.
001438:                                                                                                  #                                          L +1     CADR   DAPSQRT         ENTER ROUTINE WITH C(A,L) = D.P. ARG.
001439:                                                                                                  #                                          L +2     (RETURN)               C(A) = BEST VALUE OF SQUARE ROOT.
001440:
001441:                                                                                                  #  ALARM/ABORT MODE: NONE.
001442:
001443:                                                                                                  #  SUBROUTINES CALLED: SPROOT AND T6JOBCHK.
001444:
001445:                                                                                                  #  NORMAL EXIT MODE: RETURN TO L +2.
001446:
001447:                                                                                                  #  OUTPUT: C(A) AT RETURN TO CALLER IS THE BEST SINGLE PRECISION SQUARE ROOT OF THE GIVEN DOUBLE PRECISION ARGUMENT
001448:
001449:                                                                                                  #  ERASABLE INITIALIZATION REQUIRED: DOUBLE PRECISION ARGUMENT AS C(A,L).
001450:
001451:                                                                                                  #  DEBRIS: ITEMP4, ITEMP5, ITEMP6 AND A,L,Q.
001452:
001453:
001454: 26,2525                                           BANK     26
001455: 26,2525  E6,1521                                  EBANK=   FUNCTION
001456:
001457:                                                                                                  #  SRTEMP        ERASE                                   SCRATCH CELLS FOR DAPSQRT
001458:                                                                                                  #  SQRTTEMP      ERASE                                   SCRATCH CELLS FOR DAPSQRT
001459:                                                                                                  #  SQRTTEMQ      ERASE                                   SCRATCH CELLS FOR DAPSQRT
001460:
001461: 26,2525           55730        DAPSQRT            TS       SQRTTEMP                              #  SAVE C(A) PART OF DOUBLE PRECISION ARG.
001462:
001463: 26,2526           00006                           EXTEND                                         #  SAVE C(Q) FOR RETURN TO LM DAP CALLER.
001464: 26,2527           23731                           QXCH     SQRTTEMQ
001465:
001466: 26,2530           30021                           CAE      SR                                    #  SAVE C(SR) SINCE ALL INTERRUPT PROGRAMS
001467: 26,2531           60000                           DOUBLE                                         #  USING SPROOT MUST DO SO.
001468: 26,2532           55727                           TS       SRTEMP


001470: 26,2533           06013                           TC       T6JOBCHK                              #  CHECK TIME6-RUPT BEFORE SPROOT.
001471:
001472: 26,2534           31730                           CAE      SQRTTEMP                              #  RESTORE D.P. ARG. TO C(A,L), AND THEN
001473: 26,2535           00006                           EXTEND                                         #  CHECK FOR C(A) = +0.  IF SO, TAKE THE
001474: 26,2536           12570                           BZF      DAPSQRT3                              #  SQUARE ROOT OF C(L) AND POST-SHIFT.
001475:
001476: 26,2537           72574                           MASK     DAPHIGH7                              #  IF THIS MASK PRODUCES A WORD OF ZEROS,
001477: 26,2540           00006                           EXTEND                                         #  C(D.P.ARG) WILL BE SHIFTED LEFT 6 BITS
001478: 26,2541           12552                           BZF      SQRTSL6                               #  WITHOUT OVERFLOWING BEFORE USING SPROOT.
001479:
001480: 26,2542           72575                           MASK     DAPHIGH5                              #  IF THIS MASK PRODUCES A WORD OF ZEROS,
001481: 26,2543           00006                           EXTEND                                         #  C(D.P.ARG) WILL BE SHIFTED LEFT 4 BITS
001482: 26,2544           12556                           BZF      SQRTSL4                               #  WITHOUT OVERFLOWING BEFORE USING SPROOT.
001483:
001484: 26,2545           31730                           CAE      SQRTTEMP                              #  GET UNSHIFTED S.P. ARGUMENT FOR SPROOT.
001485:
001486: 26,2546           05417                           TC       SPROOT                                #  CALL SUBROUTINE IN FIXED-FIXED.
001487:
001488: 26,2547           23727        DAPSQRT1           LXCH     SRTEMP                                #  RESTORE C(SR).
001489: 26,2550           22021                           LXCH     SR
001490:
001491: 26,2551           01731                           TC       SQRTTEMQ                              #  RETURN WITH SQUARE ROOT AS C(A).
001492:
001493: 26,2552           37753        SQRTSL6            CAF      BIT9                                  #  SET UP TO SHIFT D.P. ARG. LEFT 6 BITS
001494: 26,2553           54002                           TS       Q
001495: 26,2554           37750                           CAF      BIT12                                 #  AND TO SHIFT SPROOT ANS. RIGHT 3 BITS.
001496: 26,2555           12561                           TCF      DAPSQRT2
001497:
001498: 26,2556           37751        SQRTSL4            CAF      BIT11                                 #  SET UP AND SHIFT D.P. ARG. LEFT 4 BITS
001499: 26,2557           54002                           TS       Q
001500: 26,2560           37747                           CAF      BIT13                                 #  AND TO SHIFT SPROOT ANS. RIGHT 2 BITS.
001501: 26,2561           57730        DAPSQRT2           XCH      SQRTTEMP                              #  (RECONSTRUCT D.P. ARGUMENT.)
001502:
001503: 26,2562           00006                           EXTEND                                         #  VARIABLE LEFT SHIFT (4 OR 6 BITS).
001504: 26,2563           10002                           DV       Q                                     #  (MAC HAS DIFFEQ, LM DAP HAS DV Q - PUN?)
001505: 26,2564           05417        DAPROOT            TC       SPROOT                                #  CALL SUBROUTINE IN FIXED-FIXED
001506: 26,2565           00006                           EXTEND                                         #  VARIABLE RIGHT SHIFT (2 OR 3 BITS).
001507: 26,2566           71730                           MP       SQRTTEMP
001508:
001509: 26,2567           12547                           TCF      DAPSQRT1                              #  RETURN SEQUENCE.
001510:
001511: 26,2570           37754        DAPSQRT3           CAF      BIT8                                  #  SET UP TO SHIFT SPROOT ANS. RIGHT 7 BITS
001512: 26,2571           55730                           TS       SQRTTEMP
001513: 26,2572           30001                           CAE      L                                     #  USE C(L) AS SPROOT ARGUMENT.
001514: 26,2573           12564                           TCF      DAPROOT
001515:
001516: 26,2574           77400        DAPHIGH7           OCTAL    77400
001517: 26,2575           76000        DAPHIGH5           OCTAL    76000
001518:

End of include-file Q_R-AXES_REACTION_CONTROL_SYSTEM_AUTOPILOT.agc.  Parent file is MAIN.agc


