
Source Code


000002:                                                                                                  ## Copyright:   Public domain.
000003:                                                                                                  ## Filename:    RADAR_TEST_PROGRAMS.agc
000004:                                                                                                  ## Purpose:     A module for revision 0 of BURST120 (Sunburst).
000005:                                                                                                  ##              It is part of the source code for the Lunar Module's (LM)
000006:                                                                                                  ##              Apollo Guidance Computer (AGC) for Apollo 5.
000007:                                                                                                  ## Assembler:   yaYUL
000008:                                                                                                  ## Contact:     Ron Burkey <info@sandroid.org>.
000009:                                                                                                  ## Website:     www.ibiblio.org/apollo/index.html
000010:                                                                                                  ## Mod history: 2016-09-30 RSB  Created draft version.
000011:                                                                                                  ##              2016-10-06 RSB  Completed transcription.
000012:                                                                                                  ##              2016-12-04 RSB  Proofed comments using octopus/ProoferComments.
000013:                                                                                                  ##              2016-12-05 RSB  Comment-proofing pass with octopus/ProoferComments completed;
000014:                                                                                                  ##                              changes made.
000015:


000017: 10,3261                                           BANK     10
000018: 10,3261  E7,1444                                  EBANK=   RSTKLOC
000019:
000020:                                                                                                  #  RADAR SAMPLING LOOP.
000021:
000022: 10,3261           11445        RADSAMP            CCS      RSAMPDT                               #  TIMES NORMAL ONCE-PER-SECOND SAMPLING.
000023: 10,3262           13264                           TCF      +2
000024:
000025: 10,3263           15727                           TCF      TASKOVER                              #  +0 INSERTED MANUALLY TERMINATES TEST.
000026:
000027: 10,3264           05663                           TC       WAITLIST
000028: 10,3265  E7,1444                                  EBANK=   RSTKLOC
000029: 10,3265           03261 20067                     2CADR    RADSAMP
000030:
000031: 10,3267           35647                           CAF      PRIO25
000032: 10,3270           05505                           TC       NOVAC
000033: 10,3271  E7,1444                                  EBANK=   RSTKLOC
000034: 10,3271           03301 20067                     2CADR    DORSAMP
000035:
000036: 10,3273           33332                           CAF      1/6                                   #  FOR CYCLIC SAMPLING, RTSTDEX =
000037: 10,3274           00006                           EXTEND                                         #  RTSTLOC/6 + RTSTBASE.
000038: 10,3275           71444                           MP       RTSTLOC
000039: 10,3276           61443                           AD       RTSTBASE                              #  0 FOR RR, 2 FOR LR.
000040: 10,3277           55441                           TS       RTSTDEX
000041:
000042: 10,3300           15727                           TCF      TASKOVER
000043:
000044:                                                                                                  #  DO THE ACTUAL RADAR SAMPLE.
000045:
000046: 10,3301           03333        DORSAMP            TC       VARADAR                               #  SELECTS VARIABLE RADAR CHANNEL.
000047: 10,3302           05206                           TC       BANKCALL
000048: 10,3303           26745                           CADR     RADSTALL
000049: 10,3304           25446                           INCR     RFAILCNT                              #  ADVANCE FAIL COUNTER BUT ACCEPT BAD DATA
000050:
000051: 10,3305           00004        DORSAMP2           INHINT                                         #  YES - UPDATE TM BUFFER.
000052: 10,3306           52415                           DXCH     SAMPLSUM
000053: 10,3307           51444                           INDEX    RTSTLOC
000054: 10,3310           53450                           DXCH     RSTACK
000055:
000056: 10,3311           52417                           DXCH     OPTYHOLD
000057: 10,3312           51444                           INDEX    RSTKLOC
000058: 10,3313           53452                           DXCH     RSTACK     +2
000059:
000060: 10,3314           52421                           DXCH     TIMEHOLD
000061: 10,3315           51444                           INDEX    RSTKLOC
000062: 10,3316           53454                           DXCH     RSTACK     +4
000063:
000064: 10,3317           41444                           CS       RTSTLOC                               #  CYCLE RTSTLOC.
000065: 10,3320           61442                           AD       RTSTMAX
000066: 10,3321           00006                           EXTEND
000067:


000069: 10,3322           13325                           BZF      +3
000070: 10,3323           31444                           CA       RTSTLOC
000071: 10,3324           66306                           AD       SIX
000072: 10,3325           55444                           TS       RTSTLOC
000073:
000074: 10,3326           11445                           CCS      RSAMPDT                               #  SEE IF TIME TO RE-SAMPLE.
000075: 10,3327           15567                           TCF      ENDOFJOB                              #  NO - WAIT FOR T3 (REGULAR SAMPLING).
000076:
000077: 10,3330           15567                           TCF      ENDOFJOB                              #  TEST TERMINATED.
000078: 10,3331           13301                           TCF      DORSAMP                               #  JUMP RIGHT BACK AND GET ANOTHER SAMPLE.
000079:
000080: 10,3332           05341        1/6                DEC      .17
000081:
000082:                                                                                                  #  VARIABLE RADAR DATA CALLER FOR ONE MEASUREMENT ONLY.
000083:
000084: 10,3333           37763        VARADAR            CAF      ONE                                   #  WILL BE SENT TO RADAR ROUTINE IN A BY
000085: 10,3334           54123                           TS       BUF2                                  #  SWCALL.
000086: 10,3335           51441                           INDEX    RTSTDEX
000087: 10,3336           33340                           CAF      RDRLOCS
000088: 10,3337           15212                           TCF      SWCALL                                #  NOT TOUCHING Q.
000089:
000090: 10,3340           20651        RDRLOCS            CADR     RRRANGE                               #  = 0
000091: 10,3341           20647                           CADR     RRRDOT                                #  = 1
000092: 10,3342           20645                           CADR     LRVELX                                #  = 2
000093: 10,3343           20643                           CADR     LRVELY                                #  = 3
000094: 10,3344           20641                           CADR     LRVELZ                                #  = 4
000095: 10,3345           20637                           CADR     LRALT                                 #  = 5
000096:
000097:

End of include-file RADAR_TEST_PROGRAMS.agc.  Parent file is MAIN.agc


