
Source Code


000002:                                                                                                  ## Copyright:   Public domain.
000003:                                                                                                  ## Filename:    RADAR_LEADIN_ROUTINES.agc
000004:                                                                                                  ## Purpose:     A module for revision 0 of BURST120 (Sunburst).
000005:                                                                                                  ##              It is part of the source code for the Lunar Module's (LM)
000006:                                                                                                  ##              Apollo Guidance Computer (AGC) for Apollo 5.
000007:                                                                                                  ## Assembler:   yaYUL
000008:                                                                                                  ## Contact:     Ron Burkey <info@sandroid.org>.
000009:                                                                                                  ## Website:     www.ibiblio.org/apollo/index.html
000010:                                                                                                  ## Mod history: 2016-09-30 RSB  Created draft version.
000011:                                                                                                  ##              2016-10-06 RSB  Finished transcribing.
000012:                                                                                                  ##              2016-10-31 RSB  Typos, including an entire missing page (193).
000013:                                                                                                  ##              2016-11-01 RSB  More typos.
000014:


000016:    4323                                           BLOCK    02
000017:    4323  E3,1464                                  EBANK=   RRRET
000018:
000019:                                                                                                  #           THE FOLLOWING SUBROUTINE RETURNS TO CALLER + 2 IF THE ABSOLUTE VALUE OF C(A) IS GREATER THAN THE
000020:                                                                                                  #  NEGATIVE OF THE NUMBER AT CALLER +1. OTHERWISE IT RETURNS TO CALLER +3. MAY BE CALLED IN RUPT OR UNDER EXEC.
000021:
000022:    4323           00006        MAGSUB             EXTEND
000023:    4324           64326                           BZMF     +2
000024:    4325           14327                           TCF      +2
000025:    4326           40000                           COM
000026:
000027:    4327           50002                           INDEX    Q
000028:    4330           60000                           AD       0
000029:    4331           00006                           EXTEND
000030:    4332           67017                           BZMF     Q+2                                   #  ABS(A) LEQ CONSTANT
000031:    4333           17015                           TCF      Q+1                                   #  ABS(A) G CONSTANT
000032:


000034:                                                                                                  #           THE FOLLOWING SUBROUTINE CHECKS RR GIMBAL ANGLES TO SEE IF THEY ARE IN THE LIMITS OF THE CURRENT MODE.
000035:                                                                                                  #  CALLING SEQUENCE IS AS FOLLOWS:
000036:
000037:                                                                                                  #                                                   TC     RRLIMCHK        (WITH INTERRUPT INHIBITED).
000038:                                                                                                  #                                                   ADRES  T,S             (IN UNSWITCHED E OR CURRENT EBANK).
000039:
000040:                                                                                                  #  RETURN IS TO CALLER +2 IF NOT IN LIMITS AND TO CALLER +3 IF SO.
000041:
000042:    4334           50002        RRLIMCHK           INDEX    Q                                     #  READ GIMBAL ANGLES INTO ITEMP STORAGE.
000043:    4335           30000                           CAF      0
000044:    4336           24002                           INCR     Q
000045:    4337           00006                           EXTEND
000046:    4340           50000                           INDEX    A
000047:    4341           30001                           DCA      0
000048:    4342           52062                           DXCH     ITEMP1
000049:    4343           22002                           LXCH     Q                                     #  L(CALLER +2) TO L.
000050:
000051:    4344           37750                           CAF      BIT12                                 #  SEE WHICH MODE RR IS IN.
000052:    4345           70412                           MASK     RADMODES
000053:    4346           10000                           CCS      A
000054:    4347           14362                           TCF      MODE2CHK
000055:
000056:    4350           30061                           CA       ITEMP1                                #  MODE 1 IS DEFINED AS
000057:    4351           04323                           TC       MAGSUB                                #      1. ABS(T) L 55 DEGS.
000058:    4352           66161                           DEC      -.30555                               #      2. ABS(S + 5.5 DEGS) L 64.5 DEGS
000059:    4353           00001                           TC       L                                     #          (SHAFT LIMITS AT +59, -70 DEGS)
000060:
000061:    4354           34374                           CAF      5.5DEGS
000062:    4355           60062                           AD       ITEMP2                                #  S
000063:    4356           04323                           TC       MAGSUB
000064:    4357           64420                           DEC      -.35833                               #  64.5 DEGS
000065:    4360           00001                           TC       L
000066:    4361           04372                           TC       RRLIMOK                               #  IN LIMITS.
000067:
000068:    4362           34376        MODE2CHK           CAF      82DEGS                                #  MODE 2 IS DEFINED AS
000069:    4363           60062                           AD       ITEMP2                                #      1. ABS(T) G 125 DEGS.
000070:    4364           04323                           TC       MAGSUB                                #      2. ABS(S + 82 DEGS) L 57 DEGS
000071:    4365           65673                           DEC      -.31667                               #          (SHAFT LIMITS AT -25, -139 DEGS)
000072:    4366           00001                           TC       L
000073:
000074:    4367           30061                           CA       ITEMP1
000075:    4370           04323                           TC       MAGSUB
000076:    4371           51615                           DEC      -.69444                               #  125 DEGS
000077:
000078:    4372           50001        RRLIMOK            INDEX    L
000079:    4373           00001                           TC       L                                     #  ( = TC 1)
000080:
000081:    4374           00765        5.5DEGS            DEC      .03056
000082:    4375           00707        5DEGS              DEC      .02777                                #  SCALED IN HALF-REVOLUTIONS
000083:    4376           16450        82DEGS             DEC      .45556
000084:


000086:                                                                                                  #  THE FOLLOWING ROUTINE UPDATES THE TRACKER FAIL LAMP ON THE DSKY, IF EITHER:
000087:
000088:                                                                                                  #  1. N SAMPLES OF RR DATA COULD NOT BE OBTAINS FROM 2N TRIES.
000089:                                                                                                  #  2. N SAMPLES OF LR DATA COULD NOT BE TAKEN IN 2N TRIES WITH EITHER THE ALT OR VEL INFORMATION.
000090:                                                                                                  #  3. RR CDU FAILED WITH RR IN AUTO MODE AND RR CDU NOT BEING ZEROED.
000091:
000092:    4377           37763        SETTRKF            CAF      BIT1                                  #  NO ACTION IF DURING LAMP TEST
000093:    4400           70366                           MASK     IMODES33
000094:    4401           10000                           CCS      A
000095:    4402           00002                           TC       Q
000096:
000097:    4403           34433                           CAF      13,7,2                                #  SEE IF CDU FAILED.
000098:    4404           70412                           MASK     RADMODES
000099:    4405           00006                           EXTEND
000100:    4406           14416                           BZF      TRKFLON                               #  CONDITION 3 ABOVE.
000101:
000102:    4407           40412                           CS       RADMODES                              #  SEE IF LR FAILED.
000103:    4410           74434                           MASK     8,5
000104:    4411           00006                           EXTEND
000105:    4412           14416                           BZF      TRKFLON                               #  CONDITION 2 ABOVE.
000106:
000107:    4413           37760                           CAF      BIT4                                  #  SEE IF RR DATA FAILED.
000108:    4414           70412                           MASK     RADMODES
000109:    4415           10000                           CCS      A
000110:    4416           37754        TRKFLON            CAF      BIT8
000111:    4417           60326                           AD       DSPTAB     +11D                       #  HALF ADD DESIRED AND PRESENT STATES.
000112:    4420           77754                           MASK     BIT8
000113:    4421           00006                           EXTEND
000114:    4422           17020                           BZF      TCQ                                   #  NO CHANGE.
000115:
000116:    4423           54001                           TS       L                                     #  INVERT BIT 8 AND SET BIT 15.
000117:    4424           30326                           CA       DSPTAB     +11D                       #  CAN'T USE LXCH DSPTAB +11D (RESTART PROB)
000118:    4425           00006                           EXTEND
000119:    4426           06001                           RXOR     L
000120:    4427           77743                           MASK     POSMAX
000121:    4430           67745                           AD       BIT15
000122:    4431           54326                           TS       DSPTAB     +11D
000123:    4432           00002                           TC       Q
000124:
000125:    4433           10102        13,7,2             OCT      10102
000126:    4434           00220        8,5                OCT      00220
000127:
000128:    4435                        ENDRMODF           EQUALS
000129:


000131:                                                                                                  #  TURNON SEQUENCE TO ZERO THE CDUS AND DETERMINE THE RR MODE.
000132:
000133: 10,2000                                           BANK     10
000134:
000135: 10,2000           02013        RRTURNON           TC       RRZEROSB
000136: 10,2001           05701                           TC       FIXDELAY                              #  WAIT 1 SEC BEFORE REMOVING TURN ON FLAG
000137: 10,2002           00144                           DEC      100        B-14                       #  SO A MONITOR REPOSITION WON'T ALARM.
000138: 10,2003           47763                           CS       BIT1
000139: 10,2004           70412                           MASK     RADMODES
000140: 10,2005           54412                           TS       RADMODES
000141: 10,2006           40074                           CS       STATE                                 #  SEE IF SOMEONE IS WAITING TO USE THE RR.
000142: 10,2007           77755                           MASK     RRUSEFLG
000143: 10,2010           10000                           CCS      A
000144: 10,2011           15727                           TCF      TASKOVER
000145:
000146: 10,2012           13242                           TCF      ENDRADAR                              #  CHECK RR CDU FAIL BEFORE EXIT.
000147:


000149:                                                                                                  #  CLOSED SUBROUTINE TO ZERO THE RR CDUS.
000150:
000151: 10,2013           00006        RRZEROSB           EXTEND
000152: 10,2014           23464                           QXCH     RRRET
000153: 10,2015           37763                           CAF      BIT1                                  #  BIT 13 OF RADMODES MUST BE SET BEFORE
000154: 10,2016           00006                           EXTEND                                         #  COMING HERE.
000155: 10,2017           05012                           WOR      12
000156: 10,2020           05701                           TC       FIXDELAY
000157: 10,2021           00002                           DEC      2          B-14
000158:
000159: 10,2022           37767                           CAF      ZERO
000160: 10,2023           54035                           TS       OPTY
000161: 10,2024           54036                           TS       OPTX
000162: 10,2025           47763                           CS       ONE                                   #  REMOVE ZEROING BIT.
000163: 10,2026           00006                           EXTEND
000164: 10,2027           03012                           WAND     12
000165: 10,2030           05701                           TC       FIXDELAY
000166: 10,2031           00620                           DEC      400        B-14
000167:
000168: 10,2032           47747                           CS       BIT13                                 #  REMOVE ZEROING IN PROCESS BIT
000169: 10,2033           70412                           MASK     RADMODES
000170: 10,2034           54412                           TS       RADMODES
000171:
000172: 10,2035           30035                           CA       OPTY
000173: 10,2036           04323                           TC       MAGSUB
000174: 10,2037           57777                           DEC      -.5
000175: 10,2040           12043                           TCF      +3                                    #  IF MODE 2.
000176:
000177: 10,2041           37767                           CAF      ZERO
000178: 10,2042           12044                           TCF      +2
000179: 10,2043           37750                           CAF      BIT12
000180: 10,2044           56412                           XCH      RADMODES
000181: 10,2045           75502                           MASK     -BIT12
000182: 10,2046           26412                           ADS      RADMODES
000183:
000184: 10,2047           04377                           TC       SETTRKF                               #  TRACKER LAMP MIGHT GO ON NOW.
000185:
000186: 10,2050           01464                           TC       RRRET                                 #  DONE.
000187:
000188: 10,2051     5502               -BIT12             EQUALS   -1/8                                  #  IN SPROOT
000189:


000191:                                                                                                  #  SEQUENCE OF TASKS TO DRIVE THE RR TO A SAFE POSITION.
000192:
000193: 10,2051           02106        DORREPOS           TC       SETRRECR                              #  SET UP RR CDU ERROR COUNTERS.
000194:
000195: 10,2052           37763                           CAF      BIT1                                  #  DO AN ALARM UNLESS RR JUST TURNED ON.
000196: 10,2053           70412                           MASK     RADMODES
000197: 10,2054           10000                           CCS      A
000198: 10,2055           12060                           TCF      +3
000199:
000200: 10,2056           04755                           TC       ALARM
000201: 10,2057           00501                           OCT      501
000202: 10,2060           05701                           TC       FIXDELAY
000203: 10,2061           00002                           DEC      2          B-14
000204:
000205: 10,2062           37750                           CAF      BIT12                                 #  MANEUVER TRUNNION ANGLE TO NOMINAL POS.
000206: 10,2063           70412                           MASK     RADMODES
000207: 10,2064           10000                           CCS      A
000208: 10,2065           37745                           CAF      BIT15                                 #  0 FOR MODE 1 AND 180 FOR MODE 2.
000209: 10,2066           02150                           TC       RRTONLY
000210:
000211: 10,2067           37750                           CAF      BIT12                                 #  NOT PUT SHAFT IN RIGHT POSITION
000212: 10,2070           70412                           MASK     RADMODES
000213: 10,2071           10000                           CCS      A
000214: 10,2072           47746                           CS       HALF                                  #  -90 FOR MODE 2.
000215: 10,2073           02153                           TC       RRSONLY
000216:
000217: 10,2074           47751        REPOSRPT           CS       BIT11                                 #  RETURNS HERE FROM RR1AXIS IN REMODE
000218:                                                                                                  #  REQUESTED DURING REPOSITION.
000219: 10,2075           70412                           MASK     RADMODES                              #  REMOVE REPOSITION BIT.
000220: 10,2076           54412                           TS       RADMODES
000221: 10,2077           77752                           MASK     BIT10                                 #  SEE IF SOMEONE IS WAITING TO DESIGNATE.
000222: 10,2100           10000                           CCS      A
000223: 10,2101           12423                           TCF      BEGDES
000224: 10,2102           47762                           CS       BIT2                                  #  IF NO FURTHER ANTENNA CONTROL REQUIRED,
000225: 10,2103           00006                           EXTEND                                         #  REMOVE ERROR COUNTER ENABLE.
000226: 10,2104           03012                           WAND     12
000227: 10,2105           15727                           TCF      TASKOVER
000228:
000229: 10,2106           37762        SETRRECR           CAF      BIT2                                  #  SET UP RR ERROR COUNTERS
000230: 10,2107           00006                           EXTEND
000231: 10,2110           05012                           WOR      12
000232:
000233: 10,2111           37767                           CAF      ZERO
000234: 10,2112           54361                           TS       LASTYCMD
000235: 10,2113           54362                           TS       LASTXCMD
000236: 10,2114           00002                           TC       Q
000237:


000239:                                                                                                  #           GENERAL REMODING SUBROUTINE. DRIVES TRUNION TO 0 (180), THEN DRIVES SHAFT TO -45, AND FINALLY DRIVES
000240:                                                                                                  #  TRUNNION TO -130 (-50) BEFORE INITIATING 2-AXIS CONTROL. ALL RE-MODING IS DONE WITH SINGLE AXIS ROTATIONS (SEE
000241:                                                                                                  #  RR1AXIS).
000242:
000243: 10,2115           37750        REMODE             CAF      BIT12                                 #  DRIVE TRUNNION TO 0 (180)
000244: 10,2116           70412                           MASK     RADMODES                              #  (ERROR COUNTER ALREADY ENABLED)
000245: 10,2117           10000                           CCS      A
000246: 10,2120           37745                           CAF      BIT15
000247: 10,2121           02150                           TC       RRTONLY
000248:
000249: 10,2122           32137                           CAF      -45DEGSR
000250: 10,2123           02153                           TC       RRSONLY
000251:
000252: 10,2124           40412                           CS       RADMODES
000253: 10,2125           77750                           MASK     BIT12
000254: 10,2126           10000                           CCS      A
000255: 10,2127           32141                           CAF      -80DEGSR                              #  GO TO T = -130 (-50).
000256: 10,2130           62140                           AD       -50DEGSR
000257: 10,2131           02150                           TC       RRTONLY
000258:
000259: 10,2132           02142                           TC       RMODINV
000260:
000261: 10,2133           47746                           CS       BIT14                                 #  END OF REMODE.
000262: 10,2134           70412                           MASK     RADMODES
000263: 10,2135           54412                           TS       RADMODES
000264:
000265: 10,2136           02432                           TC       STDESIG                               #  BEGIN 2-AXIS CONTROL.
000266:
000267: 10,2137           70000        -45DEGSR           OCT      70000
000268: 10,2140           67070        -50DEGSR           DEC      -.27778
000269: 10,2141           61615        -80DEGSR           DEC      -.44444
000270:
000271: 10,2142           22412        RMODINV            LXCH     RADMODES                              #  INVERT THE MODE STATUS.
000272: 10,2143           37750                           CAF      BIT12
000273: 10,2144           00006                           EXTEND
000274: 10,2145           06001                           RXOR     L
000275: 10,2146           54412                           TS       RADMODES
000276: 10,2147           00002                           TC       Q
000277:


000279:                                                                                                  #  SUBROUTINES FOR DOING SINGLE AXIS RR MANEUVERS FOR REMODE AND REPOSITION. DRIVES TO WITHIN 1 DEGREE.
000280:
000281: 10,2150           55465        RRTONLY            TS       RDES                                  #  DESIRED TRUNNION ANGLE.
000282: 10,2151           37767                           CAF      ZERO
000283: 10,2152           12155                           TCF      RR1AXIS
000284:
000285: 10,2153           55465        RRSONLY            TS       RDES                                  #  SHAFT COMMANDS ARE UNRESOLVED SINCE THIS
000286: 10,2154           37763                           CAF      ONE                                   #  ROUTINE ENTERED ONLY WHEN T = 0 OR 180.
000287:
000288: 10,2155           55466        RR1AXIS            TS       RRINDEX
000289: 10,2156           00006                           EXTEND
000290: 10,2157           23464                           QXCH     RRRET
000291: 10,2160           12163                           TCF      RR1AX2
000292:
000293: 10,2161           05701        NXTRR1AX           TC       FIXDELAY
000294: 10,2162           00062                           DEC      50         B-14                       #  2 SAMPLES PER SECOND.
000295:
000296: 10,2163           40412        RR1AX2             CS       RADMODES                              #  IF SOMEONE REQUESTS A DESIGNATE WHICH
000297: 10,2164           75645                           MASK     PRIO22                                #  REQUIRES A REMODE AND A REPOSITION IS IN
000298: 10,2165           00006                           EXTEND                                         #  PROGRESS, INTERRUPT IT AND START THE
000299: 10,2166           12074                           BZF      REPOSRPT                              #  REMODE IMMEDIATELY.
000300:
000301: 10,2167           31465                           CA       RDES
000302: 10,2170           00006                           EXTEND
000303: 10,2171           51466                           INDEX    RRINDEX
000304: 10,2172           20035                           MSU      OPTY
000305: 10,2173           54002                           TS       Q                                     #  SAVE ERROR SIGNAL.
000306: 10,2174           00006                           EXTEND
000307: 10,2175           72212                           MP       RRSPGAIN                              #  TRIES TO NULL .7 OF ERROR OVER NEXT .5
000308: 10,2176           54001                           TS       L
000309: 10,2177           30002                           CA       Q                                     #  SEE IF WITHIN 1 DEGREE
000310: 10,2200           04323                           TC       MAGSUB
000311: 10,2201           77644                           DEC      -.00555                               #  SCALED IN HALF-REVS.
000312:
000313: 10,2202           12204                           TCF      +2                                    #  NO.
000314: 10,2203           01464                           TC       RRRET                                 #  RETURN TO CALLER.
000315:
000316: 10,2204           11466                           CCS      RRINDEX                               #  COMMAND FOR OTHER AXIS IS ZERO.
000317: 10,2205           12207                           TCF      +2                                    #  SETTING A TO 0.
000318: 10,2206           56001                           XCH      L
000319: 10,2207           52423                           DXCH     TANG
000320:
000321: 10,2210           02213                           TC       RROUT
000322:
000323: 10,2211           12161                           TCF      NXTRR1AX                              #  COME BACK IN .5 SECONDS.
000324:
000325: 10,2212           22715        RRSPGAIN           DEC      .59062                                #  NULL .7 ERROR IN .5 SEC.
000326:


000328:                                                                                                  #           THE FOLLOWING ROUTINE RECEIVES RR GYRO COMMANDS IN TANG,+1 IN ERROR COUNTER SCALING. RROUT LIMITS THEM
000329:                                                                                                  #  AND GENERATES COMMANDS TO THE CDU TO ADJUST THE ERROR COUNTERS TO THE DESIRED VALUES. RUPT MUST BE INHIBITED.
000330:
000331: 10,2213           22002        RROUT              LXCH     Q                                     #  SAVE RETURN
000332: 10,2214           37763                           CAF      ONE                                   #  LOOP TWICE.
000333: 10,2215           54062        RROUT2             TS       ITEMP2
000334: 10,2216           50000                           INDEX    A
000335: 10,2217           30422                           CA       TANG
000336: 10,2220           54061                           TS       ITEMP1                                #  SAVE SIGN COMMAND FOR LIMITING.
000337:
000338: 10,2221           04323                           TC       MAGSUB                                #  SEE IF WITHIN LIMITS.
000339: 10,2222           77177        -RRLIMIT           DEC      -384       B-14
000340: 10,2223           12242                           TCF      RROUTLIM                              #  LIMIT COMMAND TO MAG OF 384.
000341:
000342: 10,2224           30061        SETRRCTR           CA       ITEMP1                                #  COUNT OUT DIFFERENCE BETWEEN DESIRED
000343: 10,2225           50062                           INDEX    ITEMP2                                #  STATE AND PRESENT STATE AS RECORDED IN
000344: 10,2226           56361                           XCH      LASTYCMD                              #  LASTYCMD AND LASTXCMD
000345: 10,2227           40000                           COM
000346: 10,2230           60061                           AD       ITEMP1
000347: 10,2231           67770                           AD       NEG0
000348: 10,2232           50062                           INDEX    ITEMP2
000349: 10,2233           54053                           TS       OPTYCMD
000350:
000351: 10,2234           10062                           CCS      ITEMP2                                #  PROCESS BOTH INPUTS.
000352: 10,2235           12215                           TCF      RROUT2
000353:
000354: 10,2236           35634                           CAF      PRIO6                                 #  ENABLE COUNTERS.
000355: 10,2237           00006                           EXTEND
000356: 10,2240           05014                           WOR      14
000357:
000358: 10,2241           00001                           TC       L                                     #  RETURN.
000359:
000360: 10,2242           10061        RROUTLIM           CCS      ITEMP1                                #  LIMIT COMMAND TO ABS VAL OF 384.
000361: 10,2243           42222                           CS       -RRLIMIT
000362: 10,2244           12246                           TCF      +2
000363: 10,2245           32222                           CA       -RRLIMIT
000364: 10,2246           54061                           TS       ITEMP1
000365: 10,2247           12225                           TCF      SETRRCTR   +1
000366:


000368:                                                                                                  #  ROUTINE TO ZERO THE RR CDUS AND DETERMINE THE ANTENNA MODE.
000369:
000370: 10,2250           00004        RRZERO             INHINT
000371: 10,2251           47755                           CS       RRUSEFLG                              #  SET FLAG TO SHOW SOMEONE USING THE RR.
000372: 10,2252           70074                           MASK     STATE
000373: 10,2253           67755                           AD       RRUSEFLG
000374: 10,2254           54074                           TS       STATE
000375:
000376: 10,2255           37763                           CAF      BIT1                                  #  SEE IF RR COMING UP. IF SO, TURNON
000377: 10,2256           70412                           MASK     RADMODES                              #  PROGRAM WILL DO THE WORK.
000378: 10,2257           10000                           CCS      A
000379: 10,2260           12303                           TCF      ROADBACK
000380:
000381: 10,2261           37751                           CAF      BIT11                                 #  SEE IF MONITOR REPOSITION IN PROGRESS.
000382: 10,2262           70412                           MASK     RADMODES                              #  IF SO, DON'T RE-ZERO CDUS.
000383: 10,2263           10000                           CCS      A
000384: 10,2264           13224                           TCF      RADNOOP                               #  (IMMEDIATE TASK TO RGOODEND).
000385:
000386: 10,2265           47747                           CS       BIT13                                 #  SET FLAG TO SHOW ZEROING IN PROGRESS.
000387: 10,2266           70412                           MASK     RADMODES
000388: 10,2267           67747                           AD       BIT13
000389: 10,2270           54412                           TS       RADMODES
000390:
000391: 10,2271           37763                           CAF      ONE
000392: 10,2272           05663                           TC       WAITLIST
000393: 10,2273  E3,1464                                  EBANK=   RRRET
000394: 10,2273           02305 20063                     2CADR    RRZ2
000395:
000396: 10,2275           40412                           CS       RADMODES                              #  SEE IF IN AUTO MODE.
000397: 10,2276           77762                           MASK     BIT2
000398: 10,2277           10000                           CCS      A
000399: 10,2300           12303                           TCF      ROADBACK
000400: 10,2301           04755                           TC       ALARM                                 #  AUTO DISCRETE NOT PRESENT - TRYING
000401: 10,2302           00510                           OCT      510
000402: 10,2303           00003        ROADBACK           RELINT
000403: 10,2304           15221                           TCF      SWRETURN
000404:
000405: 10,2305           02013        RRZ2               TC       RRZEROSB                              #  COMMON TO TURNON AND RRZERO.
000406: 10,2306           13242                           TCF      ENDRADAR
000407:
000408: 10,2307     7755               RRUSEFLG           EQUALS   BIT7
000409: 10,2307     7757               LOKONFLG           EQUALS   BIT5
000410:


000412:                                                                                                  #           STABLE-MEMBER RR DESIGNATE ROUTINE. DESIGNATE TO A SM LOS VECTOR (HALF-UNIT) IN RRTARGET. REMODS IF
000413:                                                                                                  #  REQUIRED. RETURNS TO CALLER IF MANEUVER REQUIRED FOR DES AND SKIPS IF IT CAN BE DONE IN PRESENT VEH ATTITUDE.
000414:
000415: 10,2307           43020        RRDESSM            STQ      CLEAR
000416: 10,2310           00426                                    DESRET
000417: 10,2311           00271                                    RRNBSW
000418: 10,2312           66234                           RTB      SSP                                   #  READ CDUS FOR SMNB.
000419: 10,2313           33473                                    READCDUS
000420: 10,2314           00051                                    S1
000421: 10,2315           00024                                    20D
000422: 10,2316           24025                           STOVL    20D
000423: 10,2317           00415                                    RRTARGET
000424: 10,2320           34041                           STCALL   32D
000425: 10,2321           32531                                    SMNB
000426:
000427: 10,2322           77624                           CALL                                           #  GET RR GIMBAL ANGLES IN PRESENT AND
000428: 10,2323           33355                                    RRANGLES                              #  ALTERNATE MODE.
000429: 10,2324           77776                           EXIT
000430:
000431: 10,2325           00004                           INHINT
000432: 10,2326           04334                           TC       RRLIMCHK
000433: 10,2327           00422                           ADRES    MODEA                                 #  CONFIGURATION FOR CURRENT MODE.
000434: 10,2330           12352                           TCF      TRYSWS
000435:
000436: 10,2331           24426        OKDESSM            INCR     DESRET                                #  INCREMENT SAYS NO VEHICLE MANEUVER REQ.
000437:


000439:                                                                                                  #           AT THIS POINT WE ARE READY TO BEGIN DESIGNATION. THE TARGET IS STORED AS A HALF-UNIT VECTOR IN RRTARGET
000440:                                                                                                  #  WITH RRNBSW SET IF IT IS REFERRED TO NAV BASE AXES. LOKONSW IS SET IF LOCKON IS DESIRED. BIT14 OF RADMODES IS
000441:                                                                                                  #  SET IF A REMODE IS REQUIRED. AT THIS TIME, THE ANTENNA MAY BE IN A MONITOR REPOSITION OPERATION. IN THIS
000442:                                                                                                  #  CASE, IF A REMODE IS REQUIRED IT MAY HAVE ALREADY BEGUN BUT IT ANY CASE THE REPOSITION WILL BE INTERRUPTED.
000443:                                                                                                  #  OTHERWISE, THE REPOSITION WILL BE COMPLETED BEFORE 2-AXIS DESIGNATION BEGINS.
000444:
000445: 10,2332           32351        STARTDES           CAF      MAXTRIES                              #  ALLOW 30 SECS.
000446: 10,2333           54427                           TS       DESCOUNT
000447:
000448: 10,2334           37752                           CAF      BIT10                                 #  SHOW DESIGNATE REQUIRED.
000449: 10,2335           26412                           ADS      RADMODES
000450: 10,2336           77751                           MASK     BIT11                                 #  SEE IF REPOSITION IN PROGRESS.
000451: 10,2337           10000                           CCS      A
000452: 10,2340           12346                           TCF      DESRETRN                              #  ECTR ALREADY SET UP.
000453:
000454: 10,2341           02106                           TC       SETRRECR                              #  SET UP ERROR COUNTERS.
000455:
000456: 10,2342           37762                           CAF      TWO
000457: 10,2343           05663                           TC       WAITLIST
000458: 10,2344  E3,1464                                  EBANK=   RRRET
000459: 10,2344           02423 20063                     2CADR    BEGDES
000460:
000461: 10,2346           00003        DESRETRN           RELINT                                         #  RETURN VIA DESRET
000462: 10,2347           30426                 +1        CA       DESRET
000463: 10,2350           15230                           TCF      BANKJUMP
000464:
000465: 10,2351           00074        MAXTRIES           DEC      60         B-14
000466:


000468:                                                                                                  #  SEE IF RRDESSM CAN BE ACCOMPLISHED AFTER A REMODE.
000469:
000470: 10,2352           02142        TRYSWS             TC       RMODINV                               #  (NOTE RUPT INHIBIT)
000471: 10,2353           04334                           TC       RRLIMCHK                              #  TRY DIFFERENT MODE.
000472: 10,2354           00424                           ADRES    MODEB
000473: 10,2355           12362                           TCF      NODESSM                               #  VEHICLE MANEUVER REQUIRED
000474:
000475: 10,2356           02142                           TC       RMODINV                               #  RESET BIT12
000476: 10,2357           37746                           CAF      BIT14                                 #  SET FLAG FOR REMODE.
000477: 10,2360           26412                           ADS      RADMODES
000478:
000479: 10,2361           12331                           TCF      OKDESSM
000480:
000481: 10,2362           02142        NODESSM            TC       RMODINV                               #  RE-INVERT MODE AND RETURN WITHOUT IN-
000482: 10,2363           12346                           TCF      DESRETRN                              #  CREMENTING DESRET
000483:


000485:                                                                                                  #           DESIGNATE TO SPECIFIC RR GIMBAL ANGLES (INDEPENDENT OF VEHICLE MOTION).  ENTER WITH DESIRED ANGLES IN
000486:                                                                                                  #  TANG AND TANG +1.
000487:
000488: 10,2364           05235        RRDESNB            TC       MAKECADR
000489: 10,2365           54426                           TS       DESRET
000490:
000491: 10,2366           00004                           INHINT                                         #  SEE IF CURRENT MODE OK.
000492: 10,2367           04334                           TC       RRLIMCHK
000493: 10,2370           00422                           ADRES    TANG
000494: 10,2371           12403                           TCF      TRYSWN                                #  SEE IF IN OTHER MODE.
000495:
000496: 10,2372           00003        OKDESNB            RELINT
000497: 10,2373           06112                           TC       INTPRET
000498:
000499: 10,2374           77624                           CALL                                           #  GET LOS IN NB COORDS.
000500: 10,2375           33430                                    RRNB
000501: 10,2376           00415                           STORE    RRTARGET
000502:
000503: 10,2377           77414                           SET      EXIT
000504: 10,2400           00071                                    RRNBSW
000505:
000506: 10,2401           00004                           INHINT
000507: 10,2402           12332                           TCF      STARTDES
000508:
000509: 10,2403           02142        TRYSWN             TC       RMODINV                               #  SEE IF OTHER MODE WILL DO.
000510: 10,2404           04334                           TC       RRLIMCHK
000511: 10,2405           00422                           ADRES    TANG
000512: 10,2406           12413                           TCF      NODESNB                               #  NOT POSSIBLE.
000513:
000514: 10,2407           02142                           TC       RMODINV
000515: 10,2410           37746                           CAF      BIT14                                 #  CALL FOR REMODE.
000516: 10,2411           26412                           ADS      RADMODES
000517: 10,2412           12372                           TCF      OKDESNB
000518:
000519: 10,2413           37763        NODESNB            CAF      BIT1                                  #  CALL FOR ERROR RETURN.
000520: 10,2414           05663                           TC       WAITLIST
000521: 10,2415  E3,1464                                  EBANK=   RRRET
000522: 10,2415           03256 20063                     2CADR    RDBADEND
000523:
000524: 10,2417           02142                           TC       RMODINV
000525: 10,2420           04755                           TC       ALARM                                 #  BAD GIMBAL ANGLE INPUTS.
000526: 10,2421           00502                           OCT      502
000527: 10,2422           12347                           TCF      DESRETRN   +1                         #  ALARM DID A RELINT.
000528:


000530:                                                                                                  #  WAITLIST TASKS TO RUN RR DESIGNATION.
000531:
000532: 10,2423           37746        BEGDES             CAF      BIT14                                 #  ENTER HERE FROM STARTDES OR REPOSRPT.
000533: 10,2424           70412                           MASK     RADMODES                              #  SEE IF REMODE REQUIRED.
000534: 10,2425           10000                           CCS      A
000535: 10,2426           12115                           TCF      REMODE
000536: 10,2427           12432                           TCF      STDESIG
000537:
000538: 10,2430           05701        DESLOOP            TC       FIXDELAY                              #  2 SAMPLES PER SECOND.
000539: 10,2431           00062                           DEC      50         B-14
000540:
000541: 10,2432           37751        STDESIG            CAF      BIT11                                 #  ENTRY FROM BEGDES AND REMODE.
000542: 10,2433           70412                           MASK     RADMODES                              #  SEE IF GIMBAL LIMIT MONITOR HAS FOUND US
000543: 10,2434           10000                           CCS      A                                     #  OUT OF BOUNDS.  IF SO, THIS BIT SHOWS A
000544: 10,2435           12455                           TCF      BADDES                                #  REPOSITION TO BE IN PROGRESS.
000545:
000546: 10,2436           10412                           CCS      RADMODES                              #  SEE IF CONTINUOUS DESIGNATE WANTED.
000547: 10,2437           12442                           TCF      +3                                    #  IF SO, DON'T CHECK BIT 10 TO SEE IF IN
000548: 10,2440           12442                           TCF      +2                                    #  LIMITS BUT GO RIGHT TO FINDVAC ENTRY.
000549: 10,2441           12462                           TCF      MOREDES    +1
000550:
000551: 10,2442           40412                           CS       RADMODES                              #  IF NON-CONTINUOUS, SEE IF END OF
000552: 10,2443           77752                           MASK     BIT10                                 #  PROBLEM (DATA GOOD IF LOCK-ON WANTED OR
000553: 10,2444           10000                           CCS      A                                     #  WITHIN LIMITS IF NOT).  IF SO, EXIT AFTER
000554: 10,2445           13242                           TCF      ENDRADAR                              #  CHECKING RR CDU FAIL.
000555:
000556: 10,2446           10427                           CCS      DESCOUNT                              #  SEE IF THE TIME LIMIT HAS EXPIRED
000557: 10,2447           12461                           TCF      MOREDES
000558:
000559: 10,2450           04755                           TC       ALARM                                 #  OUT OF TIME.
000560: 10,2451           00503                           OCT      503
000561: 10,2452           42467                           CS       B14+B2                                #  IF OUT OF TIME, REMOVE ECR ENABLE + TRKR
000562: 10,2453           00006                           EXTEND
000563: 10,2454           03012                           WAND     12
000564: 10,2455           47752        BADDES             CS       BIT10                                 #  REMOVE DESIGNATE FLAG
000565: 10,2456           70412                           MASK     RADMODES
000566: 10,2457           54412                           TS       RADMODES
000567: 10,2460           13256                           TCF      RDBADEND
000568:
000569: 10,2461           54427        MOREDES            TS       DESCOUNT
000570: 10,2462           35650                           CAF      PRIO26                                #  UPDATE GYRO TORQUE COMMANDS.
000571: 10,2463           05516                           TC       FINDVAC
000572: 10,2464  E3,1464                                  EBANK=   RRRET
000573: 10,2464           02470 20063                     2CADR    DODES
000574:
000575: 10,2466           12430                           TCF      DESLOOP
000576:
000577: 10,2467           20002        B14+B2             OCT      20002
000578:


000580:                                                                                                  #  CALCULATE GYRO TORQUE COMMANDS.
000581:
000582: 10,2470           00006        DODES              EXTEND
000583: 10,2471           30036                           DCA      OPTY
000584: 10,2472           52423                           DXCH     TANG
000585:
000586: 10,2473           06112                           TC       INTPRET
000587:
000588: 10,2474           77775                           VLOAD                                          #  MOVE TARGET VECTOR TO 32D.
000589: 10,2475           00415                                    RRTARGET
000590: 10,2476           00041                           STORE    32D
000591:
000592: 10,2477           47014                           BON      RTB                                   #  DO STABLE-MEMBER TO NAVBASE TRANSFORMA-
000593: 10,2500           00311                                    RRNBSW                                #  TION IF TARGET IN SM COORDS. OTHERWISE,
000594: 10,2501           20510                                    DONBRD                                #  IN NB COORDS ALREADY.
000595: 10,2502           33473                                    READCDUS
000596:
000597: 10,2503           77731                           SSP
000598: 10,2504           00051                                    S1
000599: 10,2505           00024                                    20D                                   #  LOC OF ICDUS.
000600: 10,2506           34025                           STCALL   20D
000601: 10,2507           32531                                    SMNB
000602:


000604: 10,2510           67201        DONBRD             SETPD    SLOAD                                 #  DO NAVBASE TO RADAR DISH TRANSFORMATION.
000605: 10,2511           00001                                    0
000606: 10,2512           00424                                    TANG       +1
000607: 10,2513           41434                           RTB      PUSH                                  #  SHAFT COMMAND = V(32D).(COS(S), 0,
000608: 10,2514           33457                                    CDULOGIC                              #        -SIN(S)).
000609: 10,2515           65356                           SIN      PDDL                                  #  SIN(S) TO 0 AND COS(S) TO 2.
000610: 10,2516           41546                           COS      PUSH
000611: 10,2517           65205                           DMP      PDDL
000612: 10,2520           00041                                    32D
000613: 10,2521           00045                                    36D
000614: 10,2522           44205                           DMP      BDSU
000615: 10,2523           00001                                    0
000616: 10,2524           77626                           STADR
000617: 10,2525           77353                           STORE    TANG       +1                         #  SHAFT COMMAND
000618:
000619: 10,2526           47135                           SLOAD    RTB
000620: 10,2527           00423                                    TANG
000621: 10,2530           33457                                    CDULOGIC
000622: 10,2531           71406                           PUSH     COS                                   #  COS(T) TO 4.
000623: 10,2532           73525                           PDDL     SIN
000624: 10,2533           41206                           PUSH     DMP                                   #  SIN(T) TO 6.
000625: 10,2534           00003                                    2
000626: 10,2535           65352                           SL1      PDDL                                  #  DEFINE VECTOR U =     [SIN(T)SIN(S)]
000627: 10,2536           00005                                    4                                     #                        [   COS(T)   ]
000628: 10,2537           41325                           PDDL     DMP                                   #                        [SIN(T)COS(S)]
000629: 10,2540           00007                                    6
000630: 10,2541           00001                                    0
000631: 10,2542           55552                           SL1      VDEF
000632: 10,2543           77441                           DOT      EXIT                                  #  DOT U WITH LOS TO GET TRUNNION COMMAND.
000633: 10,2544           00041                                    32D
000634:


000636:                                                                                                  #           AT THIS POINT WE HAVE A ROTATION VECTOR IN DISH AXES LYING IN THE TS PLANE.  CONVERT THIS TO A
000637:                                                                                                  #  COMMANDED RATE AND ENABLE THE TRACKER IF WE ARE WITHIN 1 DEGREE OF THE TARGET.
000638:
000639: 10,2545           40144                           CS       MPAC                                  #  DOT WAS NEGATIVE OF DESIRED ANGLE.
000640: 10,2546           54422                           TS       TANG
000641:
000642: 10,2547           40412                           CS       RADMODES                              #  A RELAY IN THE RR REVERSES POLARITY OF
000643: 10,2550           77750                           MASK     BIT12                                 #  THE SHAFT COMMANDS IN MODE 2 SO THAT A
000644: 10,2551           10000                           CCS      A                                     #  POSITIVE TORQUE APPLIED TO THE SHAFT
000645: 10,2552           12555                           TCF      +3                                    #  GYRO CAUSES A POSITIVE CHANGE IN THE
000646:
000647: 10,2553           40423                           CS       TANG       +1                         #  SHAFT ANGLE.  COMPENSATE FOR THIS SWITCH
000648: 10,2554           54423                           TS       TANG       +1                         #  BY CHANGING THE POLARITY OF OUR COMMAND.
000649:
000650: 10,2555           37767                           CAF      ZERO
000651: 10,2556           54145                           TS       MPAC       +1
000652: 10,2557           37763                           CAF      ONE
000653:
000654: 10,2560           54144        RRSCALUP           TS       MPAC
000655: 10,2561           50000                           INDEX    A
000656: 10,2562           30422                           CA       TANG                                  #  TRUNNION COMPONENT OF ROTATION.
000657: 10,2563           00006                           EXTEND
000658: 10,2564           72636                           MP       RDESGAIN                              #  SCALING ON INPUT ANGLE WAS 4 RADIANS.
000659: 10,2565           50144                           INDEX    MPAC
000660: 10,2566           56422                           XCH      TANG                                  #  MAKE EACH COMPONENT LESS THAN .7 DEGREES
000661: 10,2567           04323                           TC       MAGSUB                                #  BEFORE SENDING TRACK ENABLE.
000662: 10,2570           77715                           DEC      -.00305
000663: 10,2571           24145                           INCR     MPAC       +1                         #  IF OUT OF BOUNDS.
000664:
000665: 10,2572           10144                           CCS      MPAC
000666: 10,2573           12560                           TCF      RRSCALUP
000667:


000669:                                                                                                  #  SEE IF TRACKER SHOULD BE ENABLED OR DISABLED.
000670:
000671: 10,2574           00004                           INHINT
000672:
000673: 10,2575           10412                           CCS      RADMODES                              #  IF CONTINUOUS DESIGNATE WANTED, PUT OUT
000674: 10,2576           12601                           TCF      +3                                    #  COMMANDS WITHOUT CHECKING MAGNITUDE OF
000675: 10,2577           12601                           TCF      +2                                    #  ERROR SIGNALS
000676: 10,2600           12626                           TCF      TRKOFF
000677:
000678: 10,2601           10145                           CCS      MPAC       +1                         #  SEE IF BOTH AXES WERE WITHIN .7 DEGS.
000679: 10,2602           12626                           TCF      TRKOFF
000680:
000681: 10,2603           40074                           CS       STATE                                 #  IF WITHIN LIMITS AND NO LOCK-ON WANTED,
000682: 10,2604           77757                           MASK     LOKONFLG                              #  PROBLEM IS FINISHED.
000683: 10,2605           10000                           CCS      A
000684: 10,2606           12617                           TCF      RRDESDUN
000685:
000686: 10,2607           37746                           CAF      BIT14                                 #  ENABLE THE TRACKER
000687: 10,2610           00006                           EXTEND
000688: 10,2611           05012                           WOR      12
000689:
000690: 10,2612           37760                           CAF      BIT4                                  #  SEE IF DATA GOOD RECEIVED YET.
000691: 10,2613           00006                           EXTEND
000692: 10,2614           02033                           RAND     33
000693: 10,2615           10000                           CCS      A
000694: 10,2616           12631                           TCF      DORROUT
000695:
000696: 10,2617           47752        RRDESDUN           CS       BIT10                                 #  WHEN PROBLEM DONE, REMOVE BIT 10 SO NEXT
000697: 10,2620           70412                           MASK     RADMODES                              #  WAITLIST TASK WE WILL GO TO RGOODEND.
000698: 10,2621           54412                           TS       RADMODES
000699:
000700: 10,2622           47762                           CS       BIT2
000701: 10,2623           00006                           EXTEND
000702: 10,2624           03012                           WAND     12
000703: 10,2625           15567                           TCF      ENDOFJOB                              #  WITH ECTR DISABLED.
000704:
000705: 10,2626           47746        TRKOFF             CS       BIT14
000706: 10,2627           00006                           EXTEND
000707: 10,2630           03012                           WAND     12
000708:
000709: 10,2631           40412        DORROUT            CS       RADMODES                              #  PUT OUT COMMAND UNLESS MONITOR
000710: 10,2632           77751                           MASK     BIT11                                 #  REPOSITION HAS TAKEN OVER
000711: 10,2633           10000                           CCS      A
000712: 10,2634           02213                           TC       RROUT
000713:
000714: 10,2635           15567                           TCF      ENDOFJOB
000715:
000716: 10,2636           21122        RDESGAIN           DEC      .53624                                #  TRIES TO NULL .5 ERROR IN .5 SEC.
000717:


000719:                                                                                                  #  RADAR READ INITIALIZATION
000720:
000721:                                                                                                  #  RADAR DATA READ BY A BANKCALL FOR THE APPROPRIATE LEAD-IN BELOW.
000722:
000723: 10,2637           02653        LRALT              TC       INITREAD   -1                         #  ONE SAMPLE PER READING.
000724: 10,2640           00017        ALLREAD            OCT      17
000725:
000726: 10,2641           02654        LRVELZ             TC       INITREAD
000727: 10,2642           00016                           OCT      16
000728:
000729: 10,2643           02654        LRVELY             TC       INITREAD
000730: 10,2644           00015                           OCT      15
000731:
000732: 10,2645           02654        LRVELX             TC       INITREAD
000733: 10,2646           00014                           OCT      14
000734:
000735: 10,2647           02653        RRRDOT             TC       INITREAD   -1
000736: 10,2650           00012                           OCT      12
000737:
000738: 10,2651           02653        RRRANGE            TC       INITREAD   -1
000739: 10,2652           00011                           OCT      11
000740:


000742: 10,2653           37763                 -1        CAF      ONE                                   #  ENTRY TO TAKE ONLY 1 SAMPLE
000743: 10,2654           00004        INITREAD           INHINT
000744:
000745: 10,2655           54420                           TS       TIMEHOLD                              #  GET DT OF MIDPOINT OF NOMINAL SAMPLING
000746: 10,2656           00006                           EXTEND                                         #  INTERVAL (ASSUMES NO BAD SAMPLES WILL BE
000747: 10,2657           77761                           MP       BIT3                                  #  ENCOUNTERED).
000748: 10,2660           52421                           DXCH     TIMEHOLD
000749:
000750: 10,2661           10000                           CCS      A
000751: 10,2662           54424                           TS       NSAMP
000752: 10,2663           67763                           AD       ONE
000753:                                                                                                  #  INSERT FOLLOWING INSTRUCTION TO GET 2N TRIES FOR N SAMPLES.
000754:                                                                                                  #                DOUBLE
000755: 10,2664           54413                           TS       SAMPLIM
000756:
000757: 10,2665           32707                           CAF      DGBITS                                #  READ CURRENT VALUE OF DATA GOOD BITS.
000758: 10,2666           00006                           EXTEND
000759: 10,2667           02033                           RAND     33
000760: 10,2670           54426                           TS       OLDATAGD
000761:
000762: 10,2671           42640                           CS       ALLREAD
000763: 10,2672           00006                           EXTEND
000764: 10,2673           03013                           WAND     13                                    #  REMOVE ALL RADAR BITS
000765:
000766: 10,2674           50002                           INDEX    Q
000767: 10,2675           30000                           CAF      0
000768: 10,2676           00006                           EXTEND
000769: 10,2677           05013                           WOR      13                                    #  SET NEW RADAR BITS
000770:
000771: 10,2700           00006                           EXTEND
000772: 10,2701           30025                           DCA      TIME2
000773: 10,2702           20421                           DAS      TIMEHOLD                              #  TIME OF NOMINAL MIDPOINT.
000774:
000775: 10,2703           37767                           CAF      ZERO
000776: 10,2704           54001                           TS       L
000777: 10,2705           52415                           DXCH     SAMPLSUM
000778: 10,2706           12303                           TCF      ROADBACK
000779:
000780: 10,2707           00230        DGBITS             OCT      230
000781:


000783:                                                                                                  #  RADAR RUPT READER
000784:
000785:                                                                                                  #  THIS ROUTINE STARTS FROM A RADARUPT. IT READS THE DATA & LOTS MORE.
000786:
000787: 10,2710           54016        RADAREAD           TS       BANKRUPT
000788: 10,2711           00006                           EXTEND
000789: 10,2712           22012                           QXCH     QRUPT
000790:
000791: 10,2713           00006        ANGLREAD           EXTEND
000792: 10,2714           30036                           DCA      OPTY
000793: 10,2715           52417                           DXCH     OPTYHOLD                              #  SAVE RAW CDU ANGLES
000794:
000795: 10,2716           10413        TRYCOUNT           CCS      SAMPLIM
000796: 10,2717           12731                           TCF      PLENTY
000797: 10,2720           12724                           TCF      NOMORE
000798: 10,2721           04755                           TC       ALARM
000799: 10,2722           00520                           OCT      520
000800: 10,2723           05733                           TC       RESUME
000801:
000802: 10,2724           04755        NOMORE             TC       ALARM                                 #  P20 WANTS THE ALARM.
000803: 10,2725           00521                           OCT      521
000804: 10,2726           47763        BADRAD             CS       ONE
000805: 10,2727           54413                           TS       SAMPLIM
000806: 10,2730           03254                           TC       RDBADEND   -2
000807:
000808: 10,2731           54413        PLENTY             TS       SAMPLIM
000809: 10,2732           37761                           CAF      BIT3
000810: 10,2733           00006                           EXTEND
000811: 10,2734           02013                           RAND     13                                    #  TO FIND OUT WHICH RADAR
000812: 10,2735           00006                           EXTEND
000813: 10,2736           13015                           BZF      RENDRAD
000814:
000815: 10,2737           30412        LRPOSCHK           CA       RADMODES                              #  SEE IF LR IN DESIRED POSITION
000816: 10,2740           00006                           EXTEND
000817: 10,2741           06033                           RXOR     33
000818: 10,2742           77756                           MASK     BIT6
000819: 10,2743           00006                           EXTEND
000820: 10,2744           12750                           BZF      VELCHK
000821:
000822: 10,2745           04755                           TC       ALARM
000823: 10,2746           00522                           OCT      522
000824: 10,2747           02726                           TC       BADRAD
000825:
000826: 10,2750           36311        VELCHK             CAF      BIN3                                  #  = 00003 OCT
000827: 10,2751           00006                           EXTEND
000828: 10,2752           06013                           RXOR     13
000829: 10,2753           76311                           MASK     BIN3
000830: 10,2754           00006                           EXTEND
000831: 10,2755           13011                           BZF      LRHEIGHT                              #  TAKE A LR RANGE READING
000832:


000834: 10,2756           37743                           CAF      POSMAX
000835: 10,2757           70046                           MASK     RNRAD
000836: 10,2760           63157                           AD       LVELBIAS
000837: 10,2761           54001                           TS       L
000838: 10,2762           30046                           CAE      RNRAD
000839: 10,2763           60000                           DOUBLE
000840: 10,2764           77763                           MASK     BIT1
000841: 10,2765           52064                           DXCH     ITEMP3
000842:
000843: 10,2766           37754                           CAF      BIT8                                  #  DATA GOOD ISN'T CHECKED UNTIL AFTER READ-
000844: 10,2767           03127                           TC       DGCHECK                               #  ING DATA SO SOME RADAR TESTS WILL WORK
000845:                                                                                                  #  INDEPENDENT OF DATA GOOD.
000846:
000847: 10,2770           10424                           CCS      NSAMP
000848: 10,2771           03001                           TC       NOEND
000849: 10,2772           47763        GOODRAD            CS       ONE
000850: 10,2773           54413                           TS       SAMPLIM
000851: 10,2774           40061                           CS       ITEMP1                                #  WHEN ENOUGH GOOD DATA HAS BEEN GATHERED,
000852: 10,2775           70412                           MASK     RADMODES                              #  RESET DATA FAIL FLAGS FOR SETTRKF.
000853: 10,2776           54412                           TS       RADMODES
000854: 10,2777           04377                           TC       SETTRKF                               #  LAMPS MAY GO OFF IF DATA JUST GOOD.
000855: 10,3000           03247                           TC       RGOODEND   -2
000856:
000857: 10,3001           54424        NOEND              TS       NSAMP
000858: 10,3002           10413        RESAMPLE           CCS      SAMPLIM                               #  SEE IF ANY MORE TRIES SHOULD BE MADE.
000859: 10,3003           13005                           TCF      +2
000860: 10,3004           13146                           TCF      DATAFAIL                              #  N SAMPLES NOT AVAILABLE.
000861: 10,3005           37760                           CAF      BIT4                                  #  RESET ACTIVITY BIT.
000862: 10,3006           00006                           EXTEND
000863: 10,3007           05013                           WOR      13                                    #  RESET ACTIVITY BIT
000864: 10,3010           05733                           TC       RESUME
000865:
000866:
000867: 10,3011           37757        LRHEIGHT           CAF      BIT5
000868: 10,3012           54061                           TS       ITEMP1                                #  (POSITION OF DATA GOOD BIT IN CHAN 33)
000869:
000870: 10,3013           37753                           CAF      BIT9
000871: 10,3014           03037                           TC       SCALECHK   -1
000872:
000873: 10,3015           37751        RENDRAD            CAF      BIT11                                 #  MAKE SURE ANTENNA HAS NOT GONE OUT OF
000874: 10,3016           70412                           MASK     RADMODES                              #  LIMITS.
000875: 10,3017           10000                           CCS      A
000876: 10,3020           12726                           TCF      BADRAD
000877:
000878: 10,3021           40412                           CS       RADMODES                              #  BE SURE RR CDU HASN'T FAILED.
000879: 10,3022           77755                           MASK     BIT7
000880: 10,3023           10000                           CCS      A
000881: 10,3024           12726                           TCF      BADRAD
000882:


000884: 10,3025           37760                           CAF      BIT4                                  #  SEE IF DATA HAS BEEN GOOD.
000885: 10,3026           54061                           TS       ITEMP1                                #  (POSITION OF DATA GOOD BIT IN CHAN 33)
000886:
000887: 10,3027           37763                           CAF      BIT1                                  #  SEE IF RR RDOT.
000888: 10,3030           00006                           EXTEND
000889: 10,3031           02013                           RAND     13
000890: 10,3032           54002                           TS       Q                                     #  FOR LATER TESTING.
000891: 10,3033           10000                           CCS      A
000892: 10,3034           13036                           TCF      +2
000893: 10,3035           13050                           TCF      RADIN                                 #  NO SCALE CHECK FOR RR RDOT.
000894: 10,3036           37761                           CAF      BIT3
000895: 10,3037           54001                           TS       L
000896:
000897: 10,3040           00006        SCALECHK           EXTEND
000898: 10,3041           02033                           RAND     33                                    #  SCALE STATUS NOW
000899: 10,3042           56001                           XCH      L
000900: 10,3043           70412                           MASK     RADMODES                              #  SCALE STATUS BEFORE
000901: 10,3044           00006                           EXTEND
000902: 10,3045           06001                           RXOR     01                                    #  SEE IF THEY DIFFER
000903: 10,3046           10000                           CCS      A
000904: 10,3047           03067                           TC       SCALCHNG                              #  THEY DIFFER.
000905:
000906: 10,3050           37743        RADIN              CAF      POSMAX
000907: 10,3051           70046                           MASK     RNRAD
000908: 10,3052           54064                           TS       ITEMP4
000909:
000910: 10,3053           30046                           CAE      RNRAD
000911: 10,3054           60000                           DOUBLE
000912: 10,3055           77763                           MASK     BIT1
000913: 10,3056           54063                           TS       ITEMP3
000914:
000915: 10,3057           10002                           CCS      Q                                     #  SEE IF RR RDOT.
000916: 10,3060           13101                           TCF      SCALADJ                               #  NO, BUT SCALE CHANGING MAY BE NEEDED.
000917:
000918: 10,3061           00006                           EXTEND                                         #  IF RR RANGE RATE, THROW OUT BIAS
000919: 10,3062           43161                           DCS      RDOTBIAS
000920: 10,3063           20064        DASAMPL            DAS      ITEMP3
000921: 10,3064           30061        DGCHECK2           CA       ITEMP1                                #  SEE THAT DATA HAS BEEN GOOD BEFORE AND
000922: 10,3065           03130                           TC       DGCHECK    +1                         #  AFTER TAKING SAMPLE.
000923: 10,3066           02772                           TC       GOODRAD
000924:
000925: 10,3067           22412        SCALCHNG           LXCH     RADMODES
000926: 10,3070           67763                           AD       BIT1
000927: 10,3071           00006                           EXTEND
000928: 10,3072           06001                           RXOR     01
000929: 10,3073           54412                           TS       RADMODES
000930: 10,3074           32707                           CAF      DGBITS                                #  UPDATE LAST VALUE OF DATA GOOD BITS.
000931: 10,3075           00006                           EXTEND
000932: 10,3076           02033                           RAND     33
000933: 10,3077           54426                           TS       OLDATAGD


000935: 10,3100           12726                           TCF      BADRAD
000936:


000938:                                                                                                  #  THE FOLLOWING ROUTINE INCORPORATES RR RANGE AND LR ALT SCALE INFORMATION AND LEAVES DATA AT LO SCALE.
000939:
000940: 10,3101           10001        SCALADJ            CCS      L                                     #  L HAS SCALE INBIT FOR THIS RADAR.
000941: 10,3102           13104                           TCF      +2                                    #  ON HIGH SCALE.
000942: 10,3103           13064                           TCF      DGCHECK2
000943:
000944: 10,3104           52064                           DXCH     ITEMP3
000945: 10,3105           20001                           DDOUBL
000946: 10,3106           20001                           DDOUBL
000947: 10,3107           20001                           DDOUBL
000948: 10,3110           52064                           DXCH     ITEMP3
000949:
000950: 10,3111           37761                           CAF      BIT3                                  #  SEE IF LR OR RR.
000951: 10,3112           00006                           EXTEND
000952: 10,3113           02013                           RAND     13
000953: 10,3114           00006                           EXTEND                                         #  IF RR, NO MORE ACTION REQUIRED.
000954: 10,3115           13064                           BZF      DGCHECK2
000955:
000956: 10,3116           33156                           CAF      LRRATIO                               #  IF LR, CONVERT TO LO SCALING.
000957: 10,3117           00006                           EXTEND
000958: 10,3120           70064                           MP       ITEMP4
000959: 10,3121           54064                           TS       ITEMP4
000960: 10,3122           37767                           CAF      ZERO                                  #  (SO SUBSEQUENT DAS WILL BE OK)
000961: 10,3123           56063                           XCH      ITEMP3
000962: 10,3124           00006                           EXTEND
000963: 10,3125           73156                           MP       LRRATIO
000964: 10,3126           13063                           TCF      DASAMPL
000965:


000967: 10,3127           54061        DGCHECK            TS       ITEMP1                                #  UPDATE DATA GOOD BIT IN OLDATAGD AND
000968: 10,3130           00006                           EXTEND                                         #  MAKE SURE IT WAS ON BEFORE AND AFTER THE
000969: 10,3131           02033                           RAND     33                                    #  SAMPLE WAS TAKEN BEFORE RETURNING.  IF
000970: 10,3132           54001                           TS       L                                     #  NOT, GOES TO RESAMPLE TO TRY AGAIN.  IF
000971: 10,3133           40061                           CS       ITEMP1                                #  MAX NUMBER OF TRIES HAS BEEN REACHED,
000972: 10,3134           70426                           MASK     OLDATAGD                              #  THE BIT CORRESPONDING TO THE DATA GOOD
000973: 10,3135           60001                           AD       L                                     #  WHICH FAILED TO APPEAR IS IN ITEMP1 AND
000974: 10,3136           56426                           XCH      OLDATAGD                              #  CAN BE USED TO SET RADMODES WHICH VIA
000975: 10,3137           70061                           MASK     ITEMP1                                #  SETTRKF SETS THE TRACKER FAIL LAMP.
000976: 10,3140           60001                           AD       L
000977: 10,3141           10000                           CCS      A                                     #  SHOULD BOTH BE ZERO.
000978: 10,3142           03002                           TC       RESAMPLE
000979: 10,3143           52064                           DXCH     ITEMP3                                #  IF DATA GOOD BEFORE AND AFTER, ADD TO
000980: 10,3144           20415                           DAS      SAMPLSUM                              #  ACCUMULATION.
000981: 10,3145           00002                           TC       Q
000982:
000983: 10,3146           40061        DATAFAIL           CS       ITEMP1                                #  IN THE ABOVE CASE, SET RADMODES BIT
000984: 10,3147           70412                           MASK     RADMODES                              #  SHOWING SOME RADAR DATA FAILED.
000985: 10,3150           60061                           AD       ITEMP1
000986: 10,3151           54412                           TS       RADMODES
000987:
000988: 10,3152           52064                           DXCH     ITEMP3                                #  IF WE HAVE BEEN UNABLE TO GATHER N
000989: 10,3153           52415                           DXCH     SAMPLSUM                              #  SAMPLES, USE LAST ONE ONLY.
000990:
000991: 10,3154           04377                           TC       SETTRKF
000992:
000993: 10,3155           12724                           TCF      NOMORE
000994:
000995: 10,3156           23773        LRRATIO            DEC      4.9977     B-3
000996: 10,3157           47777        LVELBIAS           DEC      -12288     B-14                       #  LANDING RADAR BIAS FOR 153.6 KC.
000997: 10,3160           00001 01150  RDOTBIAS           2DEC     17000      B-28                       #  BIAS COUNT FOR RR RANGE RATE
000998:


001000:                                                                                                  #  THIS ROUTINE CHANGES THE LR POSITION, AND CHECKS THAT IT GOT THERE.
001001:
001002: 10,3162           00004        LRPOS2             INHINT
001003:
001004: 10,3163           47756                           CS       BIT6                                  #  SHOW DESIRED LR POSITION IS 2
001005: 10,3164           70412                           MASK     RADMODES
001006: 10,3165           67756                           AD       BIT6
001007: 10,3166           54412                           TS       RADMODES
001008:
001009: 10,3167           37755                           CAF      BIT7
001010: 10,3170           00006                           EXTEND
001011: 10,3171           02033                           RAND     33                                    #  SEE IF ALREADY THERE.
001012: 10,3172           00006                           EXTEND
001013: 10,3173           13224                           BZF      RADNOOP
001014:
001015: 10,3174           37747                           CAF      BIT13
001016: 10,3175           00006                           EXTEND
001017: 10,3176           05012                           WOR      12                                    #  COMMAND TO POSITION 2
001018:
001019: 10,3177           33241                           CAF      6SECS                                 #  START SCANNING FOR INBIT AFTER 7 SECS.
001020: 10,3200           05663                           TC       WAITLIST
001021: 10,3201  E3,1464                                  EBANK=   RRRET
001022: 10,3201           03237 20063                     2CADR    LRPOSCAN
001023:
001024: 10,3203           02303                           TC       ROADBACK
001025:
001026: 10,3204           54413        LRPOSNXT           TS       SAMPLIM
001027: 10,3205           05701                           TC       FIXDELAY                              #  SCAN ONCE PER SECOND 15 TIMES MAX AFTER
001028: 10,3206           00144                           DEC      100        B-14                       #  INITIAL DELAY OF 7 SECONDS.
001029:
001030: 10,3207           37755                           CAF      BIT7                                  #  SEE IF LR POS2 IS ON
001031: 10,3210           00006                           EXTEND
001032: 10,3211           02033                           RAND     33
001033: 10,3212           00006                           EXTEND
001034: 10,3213           13231                           BZF      LASTLRDT                              #  IF THERE, WAIT FINAL SECOND FOR BOUNCE.
001035:
001036: 10,3214           10413                           CCS      SAMPLIM                               #  SEE IF MAX TIME UP.
001037: 10,3215           13204                           TCF      LRPOSNXT
001038:
001039: 10,3216           47747                           CS       BIT13                                 #  IF TIME UP, DISABLE COMMAND AND ALARM.
001040: 10,3217           00006                           EXTEND
001041: 10,3220           03012                           WAND     12
001042:
001043: 10,3221           04755                           TC       ALARM                                 #  LR ANTENNA DIDNT MAKE IT.
001044: 10,3222           00523                           OCT      523
001045: 10,3223           13256                           TCF      RDBADEND
001046:
001047: 10,3224           37763        RADNOOP            CAF      ONE                                   #  NO FURTHER ACTION REQUESTED.
001048: 10,3225           05663                           TC       WAITLIST
001049: 10,3226  E3,1464                                  EBANK=   RRRET


001051: 10,3226           03251 20063                     2CADR    RGOODEND
001052:
001053: 10,3230           02303                           TC       ROADBACK
001054:
001055: 10,3231           05701        LASTLRDT           TC       FIXDELAY                              #  WAIT TWO SECONDS AFTER RECEIPT OF INBIT
001056: 10,3232           00144                           DEC      100        B-14                       #  TO WAIT FOR ANTENNA BOUNCE TO DIE OUT.
001057:
001058: 10,3233           47747                           CS       BIT13                                 #  REMOVE COMMAND
001059: 10,3234           00006                           EXTEND
001060: 10,3235           03012                           WAND     12
001061: 10,3236           13251                           TCF      RGOODEND
001062:
001063: 10,3237           37757        LRPOSCAN           CAF      BIT5                                  #  SET UP FOR 15 SAMPLES.
001064: 10,3240           13204                           TCF      LRPOSNXT
001065:
001066: 10,3241           01130        6SECS              DEC      600        B-14
001067:


001069:                                                                                                  #  SEQUENCES TO TERMINATE RR OPERATIONS.
001070:
001071: 10,3242           37755        ENDRADAR           CAF      BIT7                                  #  PROLOG TO CHECK RR CDU FAIL BEFORE END.
001072: 10,3243           70412                           MASK     RADMODES
001073: 10,3244           10000                           CCS      A
001074: 10,3245           13251                           TCF      RGOODEND
001075: 10,3246           13256                           TCF      RDBADEND
001076: 10,3247           47767                 -2        CS       ZERO                                  #  RGOODEND WHEN NOT UNDER WAITLIST CONTROL
001077: 10,3250           55076                           TS       RUPTAGN
001078:
001079: 10,3251           37762        RGOODEND           CAF      TWO
001080: 10,3252           05225                           TC       POSTJUMP
001081: 10,3253           26720                           CADR     GOODEND
001082:
001083: 10,3254           47767                 -2        CS       ZERO                                  #  RDBADEND WHEN NOT UNDER WAITLIST.
001084: 10,3255           55076                           TS       RUPTAGN
001085: 10,3256           37762        RDBADEND           CAF      TWO
001086: 10,3257           05225                           TC       POSTJUMP
001087: 10,3260           26715                           CADR     BADEND
001088:
001089: 10,3261     6311               BIN3               EQUALS   THREE
001090:
001091:

End of include-file RADAR_LEADIN_ROUTINES.agc.  Parent file is MAIN.agc


