
Source Code


000002:                                                                                                  ## Copyright:   Public domain.
000003:                                                                                                  ## Filename:    RESTART_TABLES_AND_RESTARTS_ROUTINE.agc
000004:                                                                                                  ## Purpose:     A module for revision 0 of BURST120 (Sunburst).
000005:                                                                                                  ##              It is part of the source code for the Lunar Module's (LM)
000006:                                                                                                  ##              Apollo Guidance Computer (AGC) for Apollo 5.
000007:                                                                                                  ## Assembler:   yaYUL
000008:                                                                                                  ## Contact:     Ron Burkey <info@sandroid.org>.
000009:                                                                                                  ## Website:     www.ibiblio.org/apollo/index.html
000010:                                                                                                  ## Mod history: 2016-09-30 RSB  Created draft version.
000011:                                                                                                  ##              2016-10-04 RSB  Transcribed.
000012:                                                                                                  ##              2016-10-30 MAS  Some spelling corrections and a missing 2CADR symbol.
000013:                                                                                                  ##              2016-11-01 RSB  Typos.
000014:                                                                                                  ##              2016-11-02 RSB  More typos.
000015:                                                                                                  ##              2016-11-03 RSB  Added a bunch of SBANK= workarounds.
000016:


000018:                                                                                                  #  RESTART TABLES
000019:                                                                                                  #   DO NOT REMOVE FROM THE BEGINNING OF THIS BANK
000020:                                                                                                  #  --------------
000021:
000022:                                                                                                  #  THERE ARE TWO FORMS OF RESTART TABLES FOR EACH GROUP.  THEY ARE KNOWN AS THE EVEN RESTART TABLES AND THE ODD
000023:                                                                                                  #  RESTART TABLES.  THE ODD TABLES HAVE ONLY ONE ENTRY OF THREE LOCATIONS WHILE THE EVEN TABLES HAVE TWO ENTRIES
000024:                                                                                                  #  EACH USING THREE LOCATIONS.  THE INFORMATION AS TO WHETHER IT IS A JOB, WAITLIST, OR A LONGCALL IS GIVEN BY THE
000025:                                                                                                  #  WAY THINGS ARE PUT IN TO THE TABLES.
000026:                                                                                                  #       A JOB HAS ITS PRIORITY STORED IN A PRDTTAB OF THE CORRECT PHASE SPOT WITH ITS 2CADR IN THE CADRTAB. FOR
000027:                                                                                                  #  EXAMPLE,
000028:
000029:                                                                                                  #                5.7SPOT         OCT     23000
000030:                                                                                                  #                                2CADR   SOMEJOB
000031:
000032:                                                                                                  #  A RESTART OF GROUP 5 WITH PHASE SEVEN WOULD THEN CAUSE SOMEJOB TO BE RESTARTED AS A FINDVAC WITH PRIORITY 23.
000033:
000034:                                                                                                  #  A LONGCALL HAS ITS GENADR OF ITS 2CADR STORED NEGATIVELY AND ITS BBCON STORED POSITIVELY.  IN ITS PRDTTAB IS
000035:                                                                                                  #  PLACED THE LOCATION OF A DP REGISTER THAT CONTAINS THE DELTA TIME THAT LONGCALL HAD BEEN ORIGINALLY STARTED
000036:                                                                                                  #  WITH.  EXAMPLE,
000037:
000038:                                                                                                  #                3.6SPOT         GENADR  DELTAT
000039:                                                                                                  #                               -GENADR  LONGTASK
000040:                                                                                                  #                                BBCON   LONGTASK
000041:
000042:                                                                                                  #                                OCT     31000
000043:                                                                                                  #                                2CADR   JOBAGAIN
000044:
000045:                                                                                                  #  THIS WOULD START UP LONGTASK AT THE APPROPRIATE TIME, OR IMMEDIATELY IF THE TIME HAD ALREADY PASSED.  IT SHOULD
000046:                                                                                                  #  BE NOTED THAT IF DELTAT IS IN A SWITCHED E BANK, THIS INFORMATION SHOULD BE IN THE BBCON OF THE 2CADR OF THE
000047:                                                                                                  #  TASK.  FROM ABOVE, WE SEE THAT THE SECOND PART O THIS PHASE WOULD BE STARTED AS A JOB WITH A PRIORITY OF 31.
000048:
000049:                                                                                                  #  WAITLIST CALLS ARE IDENTIFIED BY THE FCT THAT THEIR 2CADR IS STORED NEGATIVELY.  IF PRDTTAB OF THE PHASE SPOT
000050:                                                                                                  #  IS POSITIVE, THEN IT CONTAINS THE DELTA TIME, IF PRDTTAB IS NEGATIVE THEN IT IS THE -GENADR OF AN ERASABLE
000051:                                                                                                  #  LOCATION CONTAINING THE DELTA TIME, THAT IS, THE TIME IS STORED INDIRECTLY.  IT SHOULD BE NOTED AS ABOVE, THAT
000052:                                                                                                  #  IF THE TIME IS STORED INDIRECTLY, THE BBCON MUST CONTAIN THE NECESSARY E BANK INFORMATION IF APPLICABLE.  WITH
000053:                                                                                                  #  WAITLIST WE HAVE ONE FURTHER OPTION, IF -0 IS STORED IN PRDTTAB, IT WILL CAUSE AN IMMEDIATE RESTART OF THE
000054:                                                                                                  #  TASK.  EXAMPLES,
000055:
000056:                                                                                                  #                                OCT     77777           # THIS WILL CAUSE AN IMMEDIATE RESTART
000057:                                                                                                  #                                -2CADR  ATASK           # OF THE TASK :ATASK:
000058:                                                                                                  #
000059:                                                                                                  #                                DEC     200             # IF THE TIME OF THE 2 SECONDS SINCE DUMMY
000060:                                                                                                  #                                -2CADR  DUMMY           # WAS PUT ON THE WAITLIST IS UP, IT WILL BEGIN
000061:                                                                                                  #                                                        # IN 10 MS, OTHERWISE IT WILL BEGIN WHEN
000062:                                                                                                  #                                                        # IT NORMALLY WOULD HAVE BEGUN.
000063:
000064:                                                                                                  #                                -GENADR DTIME           # WHERE DTIME CONTAINS THE DELTA TIME
000065:                                                                                                  #                                -2CADR  TASKTASK        # OTHERWISE THIS IS AS ABOVE
000066:
000067:                                                                                                  #  ***** NOW THE TABLES THEMSELVES *****


000069:
000070:    4064                        PRDTTAB            EQUALS   24000                                 #  USED TO FIND THE PRIORITY OR DELTA TIME
000071:    4064                        CADRTAB            EQUALS   24001                                 #  THIS AND THE LOCATION (RELATIVE)
000072:                                                                                                  #      CONTAIN THE RESTART CADR
000073:
000074: 06,2000                                           BANK     06
000075: 06,2000  E3,1400                                  EBANK=   LST1                                  #  GOPROG MUST SWITCH IN THIS EBANK
000076:
000077: 06,2000           02627        PHS2CADR           GENADR   PHSPART2                              #  DO NOT REMOVE THE FOLLOWING 6 LOCATIONS
000078: 06,2001           02414        PRT2CADR           GENADR   GETPART2                              #      FROM BEGINNING OF BANK
000079: 06,2002           05741        LGCLCADR           GENADR   LONGCALL
000080: 06,2003           05516        FVACCADR           GENADR   FINDVAC
000081: 06,2004           05663        WTLTCADR           GENADR   WAITLIST
000082: 06,2005           05221        RTRNCADR           TC       SWRETURN
000083:
000084: 06,2006           10000        1.2SPOT            OCT      10000                                 #  TEMPORARY ENTRY TO ESTABLISH TABLE
000085: 06,2007  E3,1400                                  EBANK=   LST1
000086: 06,2007           05576 04003                     2CADR    DUMMYJOB
000087:
000088: 06,2011           10000                           OCT      10000
000089: 06,2012  E3,1400                                  EBANK=   LST1
000090: 06,2012           05576 04003                     2CADR    DUMMYJOB
000091:
000092:                                                                                                  #  ANY MORE GROUP 1.EVEN RESTART VALUES SHOULD GO HERE.
000093:


000095: 06,2014  30,2000                                  SBANK=   LOWSUPER
000096: 06,2014           00303        1.3SPOT            DEC      195        B-14
000097: 06,2015  E5,1565                                  EBANK=   ETHROT
000098: 06,2015           74321 17712                     -2CADR   PCNTOVER
000099:
000100:                                                                                                  #  ANY MORE GROUP 1.ODD RESTART VALUES SHOULD GO HERE.
000101:
000102: 06,2017           20000        2.2SPOT            OCT      20000
000103: 06,2020  E4,1566                                  EBANK=   TDEC
000104: 06,2020           02063 74064                     2CADR    11REDO2
000105:
000106: 06,2022           01304                           GENADR   TDECTEMP
000107: 06,2023           75657                           -GENADR  TIG11-30
000108: 06,2024  E4,1566                                  EBANK=   TDEC
000109: 06,2024           74064                           BBCON    TIG11-30
000110:
000111: 06,2025           15530        2.4SPOT            DEC      7000       B-14
000112: 06,2026  E4,1566                                  EBANK=   TDEC
000113: 06,2026           74741 11713                     -2CADR   POSTKALC
000114:
000115: 06,2030           20000                           OCT      20000
000116: 06,2031  E4,1566                                  EBANK=   TDEC
000117: 06,2031           03023 66064                     2CADR    CALLKALC
000118:
000119:                                                                                                  #  ANY MORE GROUP 2.EVEN RESTART VALUES SHOULD GO HERE


000121:
000122: 06,2033           77777        2.3SPOT            OCT      77777                                 #  MISSION SCHEDULING PACKAGE TO SET UP
000123: 06,2034  E3,1400                                  EBANK=   LST1
000124: 06,2034           75646 15714                     -2CADR   REDOMDUE
000125:


000127: 06,2036                                           SBANK=
000128: 06,2036           12574        2.5SPOT            DEC      5500       B-14
000129: 06,2037  E4,1566                                  EBANK=   TDEC
000130: 06,2037           75123 25773                     -2CADR   SIVB2
000131:
000132: 06,2041           77777        2.7SPOT            OCT      77777
000133: 06,2042  E4,1566                                  EBANK=   TDEC
000134: 06,2042           75614 25773                     -2CADR   SBORBA
000135:
000136: 06,2044           00620        2.11SPOT           DEC      400        B-14
000137: 06,2045  E4,1566                                  EBANK=   TDEC
000138: 06,2045           75470 25773                     -2CADR   SBORB8
000139:
000140: 06,2047           76035        2.13SPOT           -GENADR  DT-LIFT
000141: 06,2050  E3,1736                                  EBANK=   TGRR
000142: 06,2050           75554 21774                     -2CADR   LIFTOFF
000143:


000145: 06,2052  30,2000                                  SBANK=   LOWSUPER
000146: 06,2052           01274        2.15SPOT           DEC      700        B-14
000147: 06,2053  E4,1566                                  EBANK=   TDEC
000148: 06,2053           75426 11713                     -2CADR   TIG4-41
000149:
000150: 06,2055           00310        2.17SPOT           DEC      200        B-14
000151: 06,2056  E4,1566                                  EBANK=   TDEC
000152: 06,2056           75361 11713                     -2CADR   TIG4-34
000153:
000154: 06,2060           77777        2.21SPOT           OCT      77777
000155: 06,2061  E4,1566                                  EBANK=   TDEC
000156: 06,2061           75621 03713                     -2CADR   DPSTART
000157:
000158: 06,2063           01356        2.23SPOT           DEC      750        B-14
000159: 06,2064  E4,1566                                  EBANK=   TDEC
000160: 06,2064           75566 03713                     -2CADR   TIG11
000161:
000162: 06,2066           77777        2.25SPOT           OCT      77777
000163: 06,2067  E4,1566                                  EBANK=   TDEC
000164: 06,2067           75361 03713                     -2CADR   MP11HOLD
000165:
000166: 06,2071           00144        2.27SPOT           DEC      100        B-14
000167: 06,2072  E4,1566                                  EBANK=   TDEC
000168: 06,2072           75314 03713                     -2CADR   MP11OUT
000169:
000170: 06,2074           20000        2.31SPOT           OCT      20000
000171: 06,2075  E4,1566                                  EBANK=   TDEC
000172: 06,2075           02017 74064                     2CADR    11REDO1
000173:
000174: 06,2077           20000        2.33SPOT           OCT      20000
000175: 06,2100  E4,1566                                  EBANK=   TDEC


000177: 06,2100           02032 74064                     2CADR    INTRTN
000178:
000179: 06,2102           01304        2.35SPOT           GENADR   TDECTEMP
000180: 06,2103           75657                           -GENADR  TIG11-30
000181: 06,2104  E4,1566                                  EBANK=   TDEC
000182: 06,2104           74064                           BBCON    TIG11-30
000183:
000184: 06,2105           77777        2.37SPOT           OCT      77777
000185: 06,2106  E4,1566                                  EBANK=   TDEC
000186: 06,2106           75453 03713                     -2CADR   MOVENDX
000187:
000188: 06,2110           01750        2.41SPOT           DEC      1000       B-14
000189: 06,2111  E4,1566                                  EBANK=   TDEC
000190: 06,2111           75445 03713                     -2CADR   CCSMPRET
000191:
000192: 06,2113           15530        2.43SPOT           DEC      7000       B-14
000193: 06,2114  E4,1566                                  EBANK=   TDEC
000194: 06,2114           74741 11713                     -2CADR   POSTKALC
000195:
000196: 06,2116           02114        2.45SPOT           DEC      1100       B-14
000197: 06,2117  E4,1566                                  EBANK=   TDEC
000198: 06,2117           74665 11713                     -2CADR   182LMP
000199:
000200: 06,2121           11610        2.47SPOT           DEC      5000       B-14
000201: 06,2122  E4,1566                                  EBANK=   TDEC
000202: 06,2122           74327 11713                     -2CADR   228LMP
000203:
000204: 06,2124           00062        2.51SPOT           DEC      50         B-14
000205: 06,2125     1072                                  EBANK=   AVGEXIT
000206: 06,2125           74535 11715                     -2CADR   9ULLOFF
000207:
000208: 06,2127           00372        2.53SPOT           DEC      250        B-14
000209: 06,2130     1072                                  EBANK=   AVGEXIT
000210: 06,2130           74527 11715                     -2CADR   9EDBATT
000211:
000212: 06,2132           76473        2.55SPOT           -GENADR  TDECTEMP
000213: 06,2133  E4,1566                                  EBANK=   TDEC
000214: 06,2133           74437 11713                     -2CADR   CUTOFF
000215:
000216: 06,2135           00764        2.57SPOT           DEC      500        B-14
000217: 06,2136  E4,1566                                  EBANK=   TDEC
000218: 06,2136           74415 11713                     -2CADR   87LMP
000219:


000221: 06,2140                                           SBANK=
000222: 06,2140           77777        2.61SPOT           OCT      77777
000223: 06,2141  E3,1736                                  EBANK=   TGRR
000224: 06,2141           75547 21774                     -2CADR   REDO2.61
000225:
000226: 06,2143           77777        2.63SPOT           OCT      77777
000227: 06,2144  E3,1736                                  EBANK=   TGRR
000228: 06,2144           75534 21774                     -2CADR   REDO2.63
000229:


000231:                                                                                                  #  ANY MORE GROUP 2.0DD RESTART VALUES SHOULD GO HERE
000232:
000233: 06,2146  06,2006               3.2SPOT            EQUALS   1.2SPOT
000234:
000235:                                                                                                  #  ANY MORE GROUP 3.EVEN RESTART VALUES SHOULD GO HERE
000236:


000238: 06,2146  30,2000                                  SBANK=   LOWSUPER
000239: 06,2146           00062        3.3SPOT            DEC      50         B-14
000240: 06,2147  E4,1566                                  EBANK=   TDEC
000241: 06,2147           75415 03713                     -2CADR   ABMON
000242:
000243: 06,2151           77777        3.5SPOT            OCT      77777
000244: 06,2152  E4,1566                                  EBANK=   TDEC
000245: 06,2152           75307 17713                     -2CADR   TUMTASK
000246:


000248: 06,2154                                           SBANK=
000249: 06,2154           01743        3.7SPOT            GENADR   DT-LETJT
000250: 06,2155           75507                           -GENADR  POSTLET
000251: 06,2156  E3,1736                                  EBANK=   TGRR
000252: 06,2156           56003                           BBCON    POSTLET
000253:


000255: 06,2157  30,2000                                  SBANK=   LOWSUPER
000256: 06,2157           77777        3.11SPOT           OCT      77777
000257: 06,2160     1164                                  EBANK=   MTIMER4
000258: 06,2160           75740 15715                     -2CADR   REDO3.11
000259:
000260: 06,2162           00144        3.13SPOT           DEC      100        B-14
000261: 06,2163     1164                                  EBANK=   MTIMER4
000262: 06,2163           75777 15715                     -2CADR   MMAINT
000263:
000264: 06,2165           02260        3.15SPOT           DEC      1200       B-14
000265: 06,2166  E4,1566                                  EBANK=   TDEC
000266: 06,2166           75224 03713                     -2CADR   NEXLMP
000267:
000268: 06,2170           00310        3.17SPOT           DEC      200        B-14
000269: 06,2171  E4,1566                                  EBANK=   TDEC
000270: 06,2171           75215 03713                     -2CADR   NEXLMP1
000271:
000272: 06,2173           00144        3.21SPOT           DEC      100        B-14
000273: 06,2174  E4,1566                                  EBANK=   TDEC
000274: 06,2174           75207 03713                     -2CADR   NEXLMP2
000275:
000276: 06,2176           13560        3.23SPOT           DEC      6000       B-14
000277: 06,2177  E4,1566                                  EBANK=   TDEC
000278: 06,2177           75200 03713                     -2CADR   NEXLMP3
000279:
000280: 06,2201           00144        3.25SPOT           DEC      100        B-14
000281: 06,2202  E4,1566                                  EBANK=   TDEC
000282: 06,2202           75232 03713                     -2CADR   MP11TASK
000283:
000284: 06,2204           20000        3.27SPOT           OCT      20000
000285: 06,2205  E5,1400                                  EBANK=   XSM
000286: 06,2205           02651 72065                     2CADR    REDO3.27
000287:


000290: 06,2207                                           SBANK=
000291: 06,2207           77777        3.31SPOT           OCT      77777
000292: 06,2210  E4,1745                                  EBANK=   TTGO
000293: 06,2210           74326 21773                     -2CADR   DUMMY13
000294:
000295: 06,2212           04704        3.33SPOT           DEC      2500       B-14
000296: 06,2213  E4,1745                                  EBANK=   TTGO
000297: 06,2213           74272 21773                     -2CADR   TRMDMY13
000298:
000299:                                                                                                  #  ANY MORE GROUP 3.0DD RESTART VALUES SHOULD GO HERE
000300:
000301: 06,2215  06,2006               4.2SPOT            EQUALS   1.2SPOT
000302:
000303:                                                                                                  #  ANY MORE GROUP 4.EVEN RESTART VALUES SHOULD GO HERE
000304:


000306: 06,2215  30,2000                                  SBANK=   LOWSUPER
000307: 06,2215           30000        4.3SPOT            OCT      30000
000308: 06,2216  E5,1565                                  EBANK=   ETHROT
000309: 06,2216           03540 60065                     2CADR    ACCLJOB
000310:


000312: 06,2220                                           SBANK=
000313: 06,2220           10000        4.5SPOT            OCT      10000
000314: 06,2221  E3,1652                                  EBANK=   RATEINDX
000315: 06,2221           02670 56003                     2CADR    COLDSOAK
000316:
000317: 06,2223           15000        4.7SPOT            OCT      15000
000318: 06,2224  E3,1736                                  EBANK=   TGRR
000319: 06,2224           02056 56003                     2CADR    MP2JOB
000320:


000322: 06,2226  30,2000                                  SBANK=   LOWSUPER
000323: 06,2226           25000        4.11SPOT           OCT      25000
000324: 06,2227  E5,1565                                  EBANK=   ETHROT
000325: 06,2227           03507 60065                     2CADR    PCNTJOB
000326:
000327: 06,2231           01304        4.13SPOT           GENADR   TDECTEMP
000328: 06,2232           74643                           -GENADR  TIG9-66
000329: 06,2233  E4,1566                                  EBANK=   TDEC
000330: 06,2233           66064                           BBCON    TIG9-66
000331:
000332: 06,2234           27000        4.15SPOT           OCT      27000
000333: 06,2235  E4,1566                                  EBANK=   TDEC
000334: 06,2235           03157 66064                     2CADR    ORBINTJB
000335:
000336: 06,2237           76472        4.17SPOT           -GENADR  TDECTEMP   +1
000337: 06,2240     1072                                  EBANK=   AVGEXIT
000338: 06,2240           74547 11715                     -2CADR   TIG9-0
000339:
000340:                                                                                                  #  ANY MORE GROUP 4.0DD RESTART VALUES SHOULD GO HERE
000341:
000342: 06,2242           21000        5.2SPOT            OCT      21000
000343: 06,2243  E4,1514                                  EBANK=   RAVEGON
000344: 06,2243           02412 60064                     2CADR    NORMLIZE
000345:
000346: 06,2245           00310                           DEC      200        B-14


000348: 06,2246  E5,1511                                  EBANK=   DVCNTR
000349: 06,2246           75144 17712                     -2CADR   REREADAC
000350:
000351: 06,2250           00310        5.4SPOT            DEC      200        B-14
000352: 06,2251  E5,1570                                  EBANK=   BMEMORY
000353: 06,2251           75777 17712                     -2CADR   PREREAD
000354:


000356: 06,2253                                           SBANK=
000357: 06,2253           32000                           OCT      32000
000358: 06,2254  E3,1400                                  EBANK=   LST1
000359: 06,2254           03575 24003                     2CADR    LASTBIAS
000360:


000362: 06,2256  30,2000                                  SBANK=   LOWSUPER
000363: 06,2256           00310        5.6SPOT            DEC      200        B-14
000364: 06,2257  E5,1511                                  EBANK=   DVCNTR
000365: 06,2257           75144 17712                     -2CADR   REREADAC
000366:
000367: 06,2261           20000                           OCT      20000
000368: 06,2262  E5,1511                                  EBANK=   DVCNTR
000369: 06,2262           02133 60065                     2CADR    SERVICER
000370:
000371:                                                                                                  #  ANY MORE GROUP 5.EVEN RESTART VALUES SHOULD GO HERE
000372:
000373: 06,2264           00310        5.3SPOT            DEC      200        B-14
000374: 06,2265  E5,1511                                  EBANK=   DVCNTR
000375: 06,2265           75144 17712                     -2CADR   REREADAC
000376:
000377: 06,2267           00000 00000  5.5SPOT            2DEC     0          B-28                       #  5.5 SPOT NOT USED
000378:
000379: 06,2271           00000                           DEC      0          B-14
000380:
000381: 06,2272           20000        5.7SPOT            OCT      20000
000382: 06,2273  E5,1400                                  EBANK=   XSM
000383: 06,2273           02020 72065                     2CADR    RSTGTS1
000384:
000385: 06,2275           77777        5.11SPOT           OCT      77777
000386: 06,2276  E5,1400                                  EBANK=   XSM
000387: 06,2276           75706 05712                     -2CADR   ALLOOP1
000388:
000389: 06,2300           20000        5.13SPOT           OCT      20000
000390: 06,2301  E5,1400                                  EBANK=   XSM
000391: 06,2301           02727 72065                     2CADR    WTLISTNT
000392:
000393: 06,2303           20000        5.15SPOT           OCT      20000
000394: 06,2304  E5,1400                                  EBANK=   XSM
000395: 06,2304           02757 72065                     2CADR    NOCHORLD
000396:
000397: 06,2306           20000        5.17SPOT           OCT      20000
000398: 06,2307  E5,1400                                  EBANK=   XSM
000399: 06,2307           02710 72065                     2CADR    GEOSTRT4
000400:
000401: 06,2311           20000        5.21SPOT           OCT      20000


000403: 06,2312  E5,1400                                  EBANK=   XSM
000404: 06,2312           02126 72065                     2CADR    ALFLT1
000405:
000406: 06,2314           77777        5.23SPOT           OCT      77777
000407: 06,2315  E5,1400                                  EBANK=   XSM
000408: 06,2315           75666 05712                     -2CADR   SPECSTS
000409:
000410: 06,2317           20000        5.25SPOT           OCT      20000
000411: 06,2320  E5,1400                                  EBANK=   XSM
000412: 06,2320           02630 72065                     2CADR    RESTAIER
000413:
000414: 06,2322           00620        5.27SPOT           DEC      400        B-14
000415: 06,2323  E5,1506                                  EBANK=   DVTOTAL
000416: 06,2323           75777 17712                     -2CADR   PREREAD
000417:
000418: 06,2325           77777        5.31SPOT           OCT      77777
000419: 06,2326  E5,1537                                  EBANK=   NEGXDV
000420: 06,2326           75707 17712                     -2CADR   REDO5.31
000421:
000422: 06,2330           77777        5.33SPOT           OCT      77777
000423: 06,2331  E5,1511                                  EBANK=   DVCNTR
000424: 06,2331           75777 17712                     -2CADR   PREREAD
000425:
000426: 06,2333           76435        5.35SPOT           -GENADR  RSDTTEMP
000427: 06,2334  E5,1506                                  EBANK=   DVTOTAL
000428: 06,2334           75777 17712                     -2CADR   PREREAD
000429:


000431: 06,2336                                           SBANK=
000432: 06,2336           77777        5.37SPOT           OCT      77777
000433: 06,2337  E3,1736                                  EBANK=   TGRR
000434: 06,2337           75754 21774                     -2CADR   SETPIPDT
000435:
000436:                                                                                                  #  ANY MORE GROUP 5.0DD RESTART VALUES SHOULD GO HERE
000437:
000438: 06,2341           00764        6.2SPOT            DEC      500        B-14
000439: 06,2342  E7,1407                                  EBANK=   DNTMBUFF
000440: 06,2342           75225 55770                     -2CADR   DAPOFF
000441:
000442: 06,2344           30000                           OCT      30000
000443: 06,2345  E7,1407                                  EBANK=   DNTMBUFF
000444: 06,2345           02541 22007                     2CADR    TGOFF
000445:
000446:                                                                                                  #  ANY MORE GROUP 6.EVEN RESTART VALUES SHOULD GO HERE
000447:
000448: 06,2347           00764        6.3SPOT            DEC      500        B-14
000449: 06,2350  E7,1407                                  EBANK=   DNTMBUFF
000450: 06,2350           75225 55770                     -2CADR   DAPOFF
000451:
000452: 06,2352           33000        6.5SPOT            OCTAL    33000
000453: 06,2353  E4,1677                                  EBANK=   STBUFF
000454: 06,2353           02440 54004                     2CADR    I=4.CONT
000455:


000457: 06,2355           30000        6.7SPOT            OCT      30000
000458: 06,2356  E4,1677                                  EBANK=   STBUFF
000459: 06,2356           02464 54004                     2CADR    UPQUITRM
000460:


000462: 06,2360  30,2000                                  SBANK=   LOWSUPER
000463: 06,2360           76432        6.11SPOT           -GENADR  DAPOFFDT
000464: 06,2361  E7,1407                                  EBANK=   DNTMBUFF
000465: 06,2361           75504 03710                     -2CADR   11DAPOFF
000466:
000467:                                                                                                  #  ANY MORE GROUP 6.0DD RESTART VALUES SHOULD GO HERE
000468:
000469: 06,2363           00000        SIZETAB            GENADR   1.2SPOT    -24006
000470: 06,2364           00010                           GENADR   1.3SPOT    -24004
000471: 06,2365           00011                           GENADR   2.2SPOT    -24006
000472: 06,2366           00027                           GENADR   2.3SPOT    -24004
000473: 06,2367           00000                           GENADR   3.2SPOT    -24006
000474: 06,2370           00142                           GENADR   3.3SPOT    -24004
000475: 06,2371           00000                           GENADR   4.2SPOT    -24006
000476: 06,2372           00211                           GENADR   4.3SPOT    -24004
000477: 06,2373           00234                           GENADR   5.2SPOT    -24006
000478: 06,2374           00260                           GENADR   5.3SPOT    -24004
000479: 06,2375           00333                           GENADR   6.2SPOT    -24006
000480: 06,2376           00343                           GENADR   6.3SPOT    -24004
000481:


000483: 06,2377           30151        RESTARTS           CA       MPAC       +5                         #  GET GROUP NUMBER -1
000484: 06,2400           60000                           DOUBLE                                         #  SAVE FOR INDEXING
000485: 06,2401           54145                           TS       TEMP2G
000486:
000487: 06,2402           32003                           CA       FVACCADR                              #  LET:S ASSUME THIS IS A JOB, THIS WILL
000488: 06,2403           54734                           TS       GOLOC      -1                         #  SAVE US A COUPLE OF LOCATIONS, BUT NOT
000489:                                                                                                  #  NECESSARILY ANY TIME  - SO BE IT -
000490:
000491: 06,2404           32000                           CA       PHS2CADR                              #  SET UP EXIT IN CASE IT IS AN EVEN
000492: 06,2405           54147                           TS       TEMPSWCH                              #  TABLE PHASE
000493:
000494: 06,2406           32005                           CA       RTRNCADR                              #  TO SAVE TIME ASSUME IT WILL GET NEXT
000495: 06,2407           54737                           TS       GOLOC      +2                         #  GROUP AFTER THIS
000496:
000497: 06,2410           30144                           CA       TEMPPHS
000498: 06,2411           75352                           MASK     OCT1400
000499: 06,2412           10000                           CCS      A                                     #  IS IT A VARIABLE OR TABLE RESTART
000500: 06,2413           12424                           TCF      ITSAVAR                               #  IT'S A VARIABLE RESTART
000501:
000502: 06,2414           10144        GETPART2           CCS      TEMPPHS                               #  IS IT AN X.1 RESTART
000503: 06,2415           10000                           CCS      A
000504: 06,2416           12513                           TCF      ITSATBL                               #  NO, IT'S A TABLE RESTART
000505:
000506: 06,2417           35640                           CA       PRIO14                                #  IT IS AN X.1 RESTART, THEREFORE START
000507: 06,2420           05516                           TC       FINDVAC                               #  THE DISPLAY RESTART JOB


000509: 06,2421                                           SBANK=
000510: 06,2421  E3,1400                                  EBANK=   LST1
000511: 06,2421           05567 04003                     2CADR    INITDSP


000513: 06,2423  30,2000                                  SBANK=   LOWSUPER
000514:
000515: 06,2423           02005                           TC       RTRNCADR                              #  FINISHED WITH THIS GROUP, GET NEXT ONE
000516:
000517: 06,2424     5567               INITDSP            EQUALS   ENDOFJOB
000518:
000519: 06,2424           75352        ITSAVAR            MASK     OCT1400                               #  IS IT TYPE B ?
000520: 06,2425           10000                           CCS      A
000521: 06,2426           12475                           TCF      ITSLIKEB                              #  YES, IT IS TYPE B
000522:
000523: 06,2427           00006                           EXTEND                                         #  STORE THE JOB (OR TASK) 2CADR FOR EXIT
000524: 06,2430           50145                           NDX      TEMP2G
000525: 06,2431           31517                           DCA      PHSNAME1
000526: 06,2432           52736                           DXCH     GOLOC
000527:
000528: 06,2433           30144                           CA       TEMPPHS                               #  SEE IF THIS IS A JOB, TASK, OR A LONGCALL
000529: 06,2434           77765                           MASK     OCT7
000530: 06,2435           65336                           AD       MINUS2
000531: 06,2436           10000                           CCS      A
000532: 06,2437           12576                           TCF      ITSLNGCL                              #  IT'S A LONGCALL
000533:
000534: 06,2440           37776        OCT37776           OCT      37776                                 #  CANT GET HERE
000535:


000537: 06,2441           12443                           TCF      ITSAWAIT
000538:
000539: 06,2442           12510                           TCF      ITSAJOB                               #  IT'S A JOB
000540:
000541: 06,2443           32004        ITSAWAIT           CA       WTLTCADR                              #  SET UP WAITLIST CALL
000542: 06,2444           54734                           TS       GOLOC      -1
000543:
000544: 06,2445           50145                           NDX      TEMP2G                                #  DIRECTLY STORED
000545: 06,2446           31114                           CA       PHSPRDT1
000546: 06,2447           10000        TIMETEST           CCS      A                                     #  IS IT AN IMMEDIATE RESTART
000547: 06,2450           24000                           INCR     A                                     #  NO.
000548: 06,2451           12454                           TCF      FINDTIME                              #  FIND OUT WHEN IT SHOULD BEGIN
000549:
000550: 06,2452           14064                           TCF      ITSINDIR                              #  STORED INDIRECTLY
000551:
000552: 06,2453           12473                           TCF      IMEDIATE                              #  IT WANTS AN IMMEDIATE RESTART
000553:
000554:                                                                                                  #  ***** THIS MUST BE IN FIXED FIXED *****
000555:
000556:    4064                                           BLOCK    02
000557:    4064           22736        ITSINDIR           LXCH     GOLOC      +1                         #  GET THE CORRECT E BANK IN CASE THIS IS
000558:    4065           22006                           LXCH     BB                                    #  SWITCHED ERASABLE
000559:
000560:    4066           50000                           NDX      A                                     #  GET THE TIME INDIRECTLY
000561:    4067           30001                           CA       1
000562:
000563:    4070           22006                           LXCH     BB                                    #  RESTORE THE BB AND GOLOC
000564:    4071           22736                           LXCH     GOLOC      +1
000565:
000566:    4072           12454                           TCF      FINDTIME                              #  FIND OUT WHEN IT SHOULD BEGIN
000567:
000568:                                                                                                  #  ***** YOUB MAY RETURN TO SWITCHED FIXED *****
000569:
000570: 06,2454                                           BANK     06
000571: 06,2454           40000        FINDTIME           COM                                            #  MAKE NEGATIVE SINCE IT WILL BE SUBTRACTED
000572: 06,2455           54001                           TS       L                                     #  AND SAVE
000573: 06,2456           50145                           NDX      TEMP2G
000574: 06,2457           41113                           CS       TBASE1
000575: 06,2460           00006                           EXTEND
000576: 06,2461           60025                           SU       TIME1
000577: 06,2462           10000                           CCS      A
000578: 06,2463           40000                           COM
000579: 06,2464           62440                           AD       OCT37776
000580: 06,2465           67763                           AD       ONE
000581: 06,2466           60001                           AD       L
000582: 06,2467           10000                           CCS      A
000583: 06,2470           37767                           CA       ZERO
000584: 06,2471           12473                           TCF      +2
000585: 06,2472           12473                           TCF      +1
000586: 06,2473           67763        IMEDIATE           AD       ONE


000588: 06,2474           00734                           TC       GOLOC      -1
000589: 06,2475           32005        ITSLIKEB           CA       RTRNCADR                              #  TYPE B,             SO STORE RETURN IN
000590: 06,2476           54147                           TS       TEMPSWCH                              #  TEMPSWCH IN CASE OF AN EVEN PHASE
000591:
000592: 06,2477           32001                           CA       PRT2CADR                              #  SET UP EXIT TO GET TABLE PART OF THIS
000593: 06,2500           54737                           TS       GOLOC      +2                         #  VARIABLE TYPE OF PHASE
000594:
000595: 06,2501           30144                           CA       TEMPPHS                               #  MAKE THE PHASE LOOK RIGHT FOR THE TABLE
000596: 06,2502           75342                           MASK     OCT177                                #  PART OF THIS VARIABLE PHASE
000597: 06,2503           54144                           TS       TEMPPHS
000598:
000599: 06,2504           00006                           EXTEND
000600: 06,2505           50145                           NDX      TEMP2G                                #  OBTAIN THE JOB;S 2CADR
000601: 06,2506           31517                           DCA      PHSNAME1
000602: 06,2507           52736                           DXCH     GOLOC
000603:
000604: 06,2510           50145        ITSAJOB            NDX      TEMP2G                                #  NOW ADD THE PRIORITY AND LET;S GO
000605: 06,2511           31114                           CA       PHSPRDT1
000606: 06,2512           00734                           TC       GOLOC      -1
000607:
000608: 06,2513           54020        ITSATBL            TS       CYR                                   #  FIND OUT IF THE PHASE IS ODD OR EVEN
000609: 06,2514           10020                           CCS      CYR
000610: 06,2515           12516                           TCF      +1                                    #  IT;S EVEN
000611: 06,2516           12616                           TCF      ITSEVEN
000612:
000613: 06,2517           32005                           CA       RTRNCADR                              #  IN CASE THIS IS THE SECOND PART OF A
000614: 06,2520           54737                           TS       GOLOC      +2                         #  TYPE B RESTART, WE NEED PROPER EXIT
000615:
000616: 06,2521           30144                           CA       TEMPPHS                               #  SET UP POINTER FOR FINDING OUR PLACE IN
000617: 06,2522           54021                           TS       SR                                    #  THE RESTART TABLES
000618: 06,2523           60021                           AD       SR
000619: 06,2524           50145                           NDX      TEMP2G
000620: 06,2525           62364                           AD       SIZETAB    +1
000621: 06,2526           54146                           TS       POINTER
000622:
000623: 06,2527           00006        CONTBL2            EXTEND                                         #  FIND OUT WHAT;S IN THE TABLE
000624: 06,2530           50146                           NDX      POINTER
000625: 06,2531           32002                           DCA      CADRTAB                               #  GET THE 2CADR
000626:
000627: 06,2532           22736                           LXCH     GOLOC      +1                         #  STORE THE BB INFORMATION
000628:
000629: 06,2533           10000                           CCS      A                                     #  IS IT A JOB OR IT IT TIMED
000630: 06,2534           24000                           INCR     A                                     #  POSITIVE, MUST BE A JOB
000631: 06,2535           12610                           TCF      ITSAJOB2
000632:
000633: 06,2536           24000                           INCR     A                                     #  MUST BE EITHER A WAITLIST OR LONGCALL
000634: 06,2537           54735                           TS       GOLOC                                 #  LET-S STORE THE CORRECT CADR
000635:
000636: 06,2540           32004                           CA       WTLTCADR                              #  SET UP OUR EXIT TO WAITLIST
000637: 06,2541           54734                           TS       GOLOC      -1
000638:


000640: 06,2542           30736                           CA       GOLOC      +1                         #  NOW FIND OUT IF IT IS A WAITLIST CALL
000641: 06,2543           77752                           MASK     BIT10                                 #  THIS SHOULD BE ONE IF WE HAVE -BB
000642: 06,2544           10000                           CCS      A                                     #  FOR THAT MATTER SO SHOULD BE BITS 9,8,7,
000643:                                                                                                  #  6,5, AND LAST BUT NOT LEAST (PERHAPS NOT
000644:                                                                                                  #  IN IMPORTANCE ANYWAY.  BIT 4
000645: 06,2545           12603                           TCF      ITSWTLST                              #  IT IS A WAITLIST CALL
000646:
000647: 06,2546           50146                           NDX      POINTER                               #  OBTAIN THE ORIGINAL DELTA T
000648: 06,2547           32000                           CA       PRDTTAB                               #  ADDRESS FOR THIS LONGCALL
000649:
000650: 06,2550           14073                           TCF      ITSLGCL1                              #  NOW GO GET THE DELTA TIME
000651:
000652:                                                                                                  #  ***** THIS MUST BE IN FIXED FIXED *****
000653:
000654:    4073                                           BLOCK    02
000655:    4073           22736        ITSLGCL1           LXCH     GOLOC      +1                         #  OBTAIN THE CORRECT E BANK
000656:    4074           22006                           LXCH     BB
000657:    4075           22736                           LXCH     GOLOC      +1                         #  AND PRESERVE OUR E AND F BANKS
000658:
000659:    4076           00006                           EXTEND                                         #  GET THE DELTA TIME
000660:    4077           50000                           NDX      A
000661:    4100           30001                           DCA      0
000662:
000663:    4101           22736                           LXCH     GOLOC      +1                         #  RESTORE OUR E AND F BANK
000664:    4102           22006                           LXCH     BB                                    #  RESTORE THE TASKS E AND F BANKS
000665:    4103           22736                           LXCH     GOLOC      +1                         #  AND PRESERVE OUR L
000666:    4104           12551                           TCF      ITSLGCL2                              #  NOT LET:S PROCESS THIS LONGCALL
000667:
000668:                                                                                                  #  ***** YOU MAY RETURN TO SWITCHED FIXED *****
000669:
000670: 06,2551                                           BANK     06
000671: 06,2551           53154        ITSLGCL2           DXCH     LONGTIME
000672:
000673: 06,2552           00006                           EXTEND                                         #  CALCULATE TIME LEFT
000674: 06,2553           40025                           DCS      TIME2
000675: 06,2554           21154                           DAS      LONGTIME
000676: 06,2555           00006                           EXTEND
000677: 06,2556           31433                           DCA      LONGBASE
000678: 06,2557           21154                           DAS      LONGTIME
000679:
000680: 06,2560           11153                           CCS      LONGTIME                              #  FIND OUT HOW THIS SHOULD BE RESTARTED
000681: 06,2561           12571                           TCF      LONGCLCL
000682: 06,2562           12564                           TCF      +2
000683: 06,2563           12470                           TCF      IMEDIATE   -3
000684: 06,2564           11154                           CCS      LONGTIME   +1
000685: 06,2565           12571                           TCF      LONGCLCL
000686: 06,2566           12567                           NOOP                                           #  CAN:T GET HERE   **********
000687: 06,2567           12470                           TCF      IMEDIATE   -3
000688: 06,2570           12473                           TCF      IMEDIATE
000689:


000691: 06,2571           32002        LONGCLCL           CA       LGCLCADR                              #  WE WILL GO TO LONGCALL
000692: 06,2572           54734                           TS       GOLOC      -1
000693:
000694: 06,2573           00006                           EXTEND                                         #  PREPARE OUR ENTRY TO LONGCALL
000695: 06,2574           31154                           DCA      LONGTIME
000696: 06,2575           00734                           TC       GOLOC      -1
000697:
000698: 06,2576           32004        ITSLNGCL           CA       WTLTCADR                              #  ASSUME IT WILL GO TO WAITLIST
000699: 06,2577           54734                           TS       GOLOC      -1
000700:
000701: 06,2600           50145                           NDX      TEMP2G
000702: 06,2601           41114                           CS       PHSPRDT1                              #  GET THE DELTA T ADDRESS
000703:
000704: 06,2602           14073                           TCF      ITSLGCL1                              #  NOW GET THE DELTA TIME
000705:
000706: 06,2603           40736        ITSWTLST           CS       GOLOC      +1                         #  CORRECT THE BBCON INFORMATION
000707: 06,2604           54736                           TS       GOLOC      +1
000708:
000709: 06,2605           50146                           NDX      POINTER                               #  GET THE DT AND FIND OUT IF IT WAS STORED
000710: 06,2606           32000                           CA       PRDTTAB                               #  DIRECTLY OR INDIRECTLY
000711:
000712: 06,2607           12447                           TCF      TIMETEST                              #  FIND OUT HOW THE TIME IS STORED
000713:
000714: 06,2610           56735        ITSAJOB2           XCH      GOLOC                                 #  STORE THE CADR
000715:
000716: 06,2611           32003                           CA       FVACCADR                              #  STORE TC FINDVAC.
000717: 06,2612           54734                           TS       GOLOC      -1
000718:
000719: 06,2613           50146                           NDX      POINTER                               #  ADD THE PRIORITY AND LET;S GO
000720: 06,2614           32000                           CA       PRDTTAB
000721:
000722: 06,2615           00734                           TC       GOLOC      -1
000723:
000724: 06,2616           30147        ITSEVEN            CA       TEMPSWCH                              #  SET FOR EITHER THE SECOND PART OF THE
000725: 06,2617           54737                           TS       GOLOC      +2                         #  TABLE, OR A RETURN FOR THE NEXT GROUP
000726:
000727: 06,2620           50145                           NDX      TEMP2G                                #  SET UP POINTER FOR OUR LOCATION WITHIN
000728: 06,2621           32363                           CA       SIZETAB                               #  THE TABLE
000729: 06,2622           60144                           AD       TEMPPHS                               #  THIS MAY LOOK BAD BUT LET;S SEE YOU DO
000730: 06,2623           60144                           AD       TEMPPHS                               #  BETTER IN TIME OR NUMBER OF LOCATIONS
000731: 06,2624           60144                           AD       TEMPPHS
000732: 06,2625           54146                           TS       POINTER
000733:
000734: 06,2626           12527                           TCF      CONTBL2                               #  NO PROCESS WHAT IS IN THE TABLE
000735:
000736: 06,2627           36311        PHSPART2           CA       THREE                                 #  SET THE POINTER FOR THE SECOND HALF OF
000737: 06,2630           26146                           ADS      POINTER                               #  THE TABLE
000738:
000739: 06,2631           32005                           CA       RTRNCADR                              #  THIS WILL BE OUR LAST TIME THROUGH THE
000740: 06,2632           54737                           TS       GOLOC      +2                         #  EVEN TABLE, SO AFTER IT GET THE NEXT


000742:                                                                                                  #  GROUP
000743: 06,2633           12527                           TCF      CONTBL2                               #  SO LET;S GET THE SECOND ENTRY IN THE TBL
000744:
000745: 06,2634     0144               TEMPPHS            EQUALS   MPAC
000746: 06,2634     0145               TEMP2G             EQUALS   MPAC       +1
000747: 06,2634     0146               POINTER            EQUALS   MPAC       +2
000748: 06,2634     0147               TEMPSWCH           EQUALS   MPAC       +3
000749: 06,2634     0735               GOLOC              EQUALS   VAC5       +20D
000750: 06,2634     5336               MINUS2             EQUALS   NEG2
000751: 06,2634     5342               OCT177             EQUALS   LOW7
000752:
000753:                                                                                                  #  SETRSTRT - RESTART FLAG UP OR DOWN DEPENDING ON CONTENTS OF ERASABLE RSTRTWRD.
000754:
000755:                                                                                                  #  CALLING SEQUENCE
000756:                                                                                                  #                CAF     BITX            # USE BIT CORRESPONDING TO MISS PHASE NUM.
000757:                                                                                                  #                TC      SETRSTRT
000758:
000759:    4105                                           BLOCK    02
000760:
000761:    4105           22002        SETRSTRT           LXCH     Q
000762:    4106           71127                           MASK     RSTRTWRD
000763:    4107           00006                           EXTEND
000764:    4110           14114                           BZF      +4
000765:
000766:    4111           06051                           TC       FLAG1UP                               #  USER MISSION PHASE IS RESTARTABLE
000767:    4112           04000                           OCT      04000
000768:    4113           00001                           TC       L
000769:
000770:    4114           06067                 +4        TC       FLAG1DWN                              #  USER MISSION PHASE NOT RESTARTABLE
000771:    4115           04000                           OCT      04000
000772:    4116           00001                           TC       L

End of include-file RESTART_TABLES_AND_RESTARTS_ROUTINE.agc.  Parent file is MAIN.agc


