
Source Code


000002:                                                                                                  ## Copyright:   Public domain.
000003:                                                                                                  ## Filename:    RESTART_TABLES_AND_RESTARTS_ROUTINE.agc
000004:                                                                                                  ## Purpose:     A module for revision 0 of BURST120 (Sunburst).
000005:                                                                                                  ##              It is part of the source code for the Lunar Module's (LM)
000006:                                                                                                  ##              Apollo Guidance Computer (AGC) for Apollo 5.
000007:                                                                                                  ## Assembler:   yaYUL
000008:                                                                                                  ## Contact:     Ron Burkey <info@sandroid.org>.
000009:                                                                                                  ## Website:     www.ibiblio.org/apollo/index.html
000010:                                                                                                  ## Mod history: 2016-09-30 RSB  Created draft version.
000011:                                                                                                  ##              2016-10-04 RSB  Transcribed.
000012:                                                                                                  ##              2016-10-30 MAS  Some spelling corrections and a missing 2CADR symbol.
000013:                                                                                                  ##              2016-11-01 RSB  Typos.
000014:                                                                                                  ##              2016-11-02 RSB  More typos.
000015:                                                                                                  ##              2016-11-03 RSB  Added a bunch of SBANK= workarounds.
000016:                                                                                                  ##              2016-12-03 RSB  Used octopus/ProoferComments to proof comments.
000017:                                                                                                  ##                              Fixed 17 errors in 15 pages, but process isn't
000018:                                                                                                  ##                              complete.
000019:                                                                                                  ##              2016-12-05 RSB  Fixed more comments with octopus/ProoferComments;
000020:                                                                                                  ##                              comment-proofing process complete.
000021:                                                                                                  ##              2017-02-08 RSB  Comment-text fixes identified while proofing Artemis 72.
000022:                                                                                                  ##              2017-06-17 MAS  Globally removed all SBANK= workarounds.
000023:


000025:                                                                                                  #  RESTART TABLES
000026:                                                                                                  #   DO NOT REMOVE FROM THE BEGINNING OF THIS BANK
000027:                                                                                                  #  ------------------
000028:
000029:                                                                                                  #  THERE ARE TWO FORMS OF RESTART TABLES FOR EACH GROUP.  THEY ARE KNOWN AS THE EVEN RESTART TABLES AND THE ODD
000030:                                                                                                  #  RESTART TABLES.  THE ODD TABLES HAVE ONLY ONE ENTRY OF THREE LOCATIONS WHILE THE EVEN TABLES HAVE TWO ENTRIES
000031:                                                                                                  #  EACH USING THREE LOCATIONS.  THE INFORMATION AS TO WHETHER IT IS A JOB, WAITLIST, OR A LONGCALL IS GIVEN BY THE
000032:                                                                                                  #  WAY THINGS ARE PUT IN TO THE TABLES.
000033:                                                                                                  #       A JOB HAS ITS PRIORITY STORED IN PRDTTAB OF THE CORRECT PHASE SPOT WITH ITS 2CADR IN THE CADRTAB. FOR
000034:                                                                                                  #  EXAMPLE,
000035:
000036:                                                                                                  #                5.7SPOT         OCT     23000
000037:                                                                                                  #                                2CADR   SOMEJOB
000038:
000039:                                                                                                  #  A RESTART OF GROUP 5 WITH PHASE SEVEN WOULD THEN CAUSE SOMEJOB TO BE RESTARTED WITH A PRIORITY OF 23.
000040:
000041:                                                                                                  #  A LONGCALL HAS ITS GENADR OF ITS 2CADR STORED NEGATIVELY AND ITS BBCON STORED POSITIVELY.  IN ITS PRDTTAB IS
000042:                                                                                                  #  PLACED THE LOCATION OF A DP REGISTER THAT CONTAINS THE DELTA TIME THAT LONGCALL HAD BEEN ORIGINALLY STARTED
000043:                                                                                                  #  WITH.  EXAMPLE,
000044:
000045:                                                                                                  #                3.6SPOT         GENADR  DELTAT
000046:                                                                                                  #                               -GENADR  LONGTASK
000047:                                                                                                  #                                BBCON   LONGTASK
000048:
000049:                                                                                                  #                                OCT     31000
000050:                                                                                                  #                                2CADR   JOBAGAIN
000051:
000052:                                                                                                  #  THIS WOULD START UP LONGTASK AT THE APPROPRIATE TIME, OR IMMEDIATELY IF THE TIME HAD ALREADY PASSED.  IT SHOULD
000053:                                                                                                  #  BE NOTED THAT IF DELTAT IS IN A SWITCHED E BANK, THIS INFORMATOIN SHOULD BE IN THE BBCON OF THE 2CADR OF THE
000054:                                                                                                  #  TASK.  FROM ABOVE, WE SEE THAT THE SECOND PART OF THIS PHASE WOULD BE STARTED AS A JOB WITH A PRIORITY OF 31.
000055:
000056:                                                                                                  #  WAITLIST CALLS ARE IDENTIFIED BY THE FACT THAT THEIR 2CADR IS STORED NEGATIVELY.  IF PRDTTAB OF THE PHASE SPOT
000057:                                                                                                  #  IS POSITIVE, THEN IT CONTAINS THE DELTA TIME, IF PRDTTAB IS NEGATIVE THEN IT IS THE -GENADR OF AN ERASABLE
000058:                                                                                                  #  LOCATION CONTAINING THE DELTA TIME, THAT IS, THE TIME IS STORED INDIRECTLY.  IT SHOULD BE NOTED AS ABOVE, THAT
000059:                                                                                                  #  IF THE TIME IS STORED INDIRECTLY, THE BBCON MUST CONTAIN THE NECESSARY E BANK INFORMATION IF APPLICABLE.  WITH
000060:                                                                                                  #  WAITLIST WE HAVE ONE FURTHER OPTION, IF -0 IS STORED IN PRDTTAB, IT WILL CAUSE AN IMMEDIATE RESTART OF THE
000061:                                                                                                  #  TASK.  EXAMPLES,
000062:
000063:                                                                                                  #                                OCT     77777           THIS WILL CAUSE AN IMMEDIATE RESTART
000064:                                                                                                  #                                -2CADR  ATASK           OF THE TASK :ATASK:
000065:                                                                                                  #
000066:                                                                                                  #                                DEC     200             IF THE TIME OF THE 2 SECONDS SINCE DUMMY
000067:                                                                                                  #                                -2CADR  DUMMY           WAS PUT ON WAITLIST IS UP, IT WILL BEGIN
000068:                                                                                                  #                                                        IN 10 MS, OTHERWISE IT WILL BEGIN WHEN
000069:                                                                                                  #                                                        IT NORMALLY WOULD HAVE BEGUN.
000070:
000071:                                                                                                  #                                -GENADR DTIME           WHERE DTIME CONTAINS THE DELTA TIME
000072:                                                                                                  #                                -2CADR  TASKTASK        OTHERWISE THIS IS AS ABOVE
000073:
000074:                                                                                                  #  ***** NOW THE TABLES THEMSELVES *****


000076:
000077:    4064                        PRDTTAB            EQUALS   24000                                 #  USED TO FIND THE PRIORITY OR DELTA TIME
000078:    4064                        CADRTAB            EQUALS   24001                                 #  THIS AND THE NEXT LOCATION (RELATIVE)
000079:                                                                                                  #      CONTAIN THE RESTART CADR
000080:
000081: 06,2000                                           BANK     06
000082: 06,2000  E3,1400                                  EBANK=   LST1                                  #  GOPROG MUST SWITCH IN THIS EBANK
000083:
000084: 06,2000           02627        PHS2CADR           GENADR   PHSPART2                              #  DO NOT REMOVE THE FOLLOWING 6 LOCATIONS
000085: 06,2001           02414        PRT2CADR           GENADR   GETPART2                              #      FROM BEGINNING OF BANK
000086: 06,2002           05741        LGCLCADR           GENADR   LONGCALL
000087: 06,2003           05516        FVACCADR           GENADR   FINDVAC
000088: 06,2004           05663        WTLTCADR           GENADR   WAITLIST
000089: 06,2005           05221        RTRNCADR           TC       SWRETURN
000090:
000091: 06,2006           10000        1.2SPOT            OCT      10000                                 #  TEMPORARY ENTRY TO ESTABLISH TABLE
000092: 06,2007  E3,1400                                  EBANK=   LST1
000093: 06,2007           05576 04003                     2CADR    DUMMYJOB
000094:
000095: 06,2011           10000                           OCT      10000
000096: 06,2012  E3,1400                                  EBANK=   LST1
000097: 06,2012           05576 04003                     2CADR    DUMMYJOB
000098:
000099:                                                                                                  #  ANY MORE GROUP 1.EVEN RESTART VALUES SHOULD GO HERE
000100:
000101: 06,2014           00303        1.3SPOT            DEC      195        B-14
000102: 06,2015  E5,1565                                  EBANK=   ETHROT
000103: 06,2015           74321 17712                     -2CADR   PCNTOVER
000104:
000105:                                                                                                  #  ANY MORE GROUP 1.ODD RESTART VALUES SHOULD GO HERE
000106:
000107: 06,2017           20000        2.2SPOT            OCT      20000
000108: 06,2020  E4,1566                                  EBANK=   TDEC
000109: 06,2020           02063 74064                     2CADR    11REDO2
000110:
000111: 06,2022           01304                           GENADR   TDECTEMP
000112: 06,2023           75657                           -GENADR  TIG11-30
000113: 06,2024  E4,1566                                  EBANK=   TDEC
000114: 06,2024           74064                           BBCON    TIG11-30
000115:
000116: 06,2025           15530        2.4SPOT            DEC      7000       B-14
000117: 06,2026  E4,1566                                  EBANK=   TDEC
000118: 06,2026           74741 11713                     -2CADR   POSTKALC
000119:
000120: 06,2030           20000                           OCT      20000
000121: 06,2031  E4,1566                                  EBANK=   TDEC
000122: 06,2031           03023 66064                     2CADR    CALLKALC
000123:
000124:                                                                                                  #  ANY MORE GROUP 2.EVEN RESTART VALUES SHOULD GO HERE


000126:
000127: 06,2033           77777        2.3SPOT            OCT      77777                                 #  MISSION SCHEDULING PACKAGE TO SET UP
000128: 06,2034  E3,1400                                  EBANK=   LST1
000129: 06,2034           75646 15714                     -2CADR   REDOMDUE
000130:
000131: 06,2036           12574        2.5SPOT            DEC      5500       B-14
000132: 06,2037  E4,1566                                  EBANK=   TDEC
000133: 06,2037           75123 25773                     -2CADR   SIVB2
000134:
000135: 06,2041           77777        2.7SPOT            OCT      77777
000136: 06,2042  E4,1566                                  EBANK=   TDEC
000137: 06,2042           75614 25773                     -2CADR   SBORBA
000138:
000139: 06,2044           00620        2.11SPOT           DEC      400        B-14
000140: 06,2045  E4,1566                                  EBANK=   TDEC
000141: 06,2045           75470 25773                     -2CADR   SBORB8
000142:
000143: 06,2047           76035        2.13SPOT           -GENADR  DT-LIFT
000144: 06,2050  E3,1736                                  EBANK=   TGRR
000145: 06,2050           75554 21774                     -2CADR   LIFTOFF
000146:
000147: 06,2052           01274        2.15SPOT           DEC      700        B-14
000148: 06,2053  E4,1566                                  EBANK=   TDEC
000149: 06,2053           75426 11713                     -2CADR   TIG4-41
000150:
000151: 06,2055           00310        2.17SPOT           DEC      200        B-14
000152: 06,2056  E4,1566                                  EBANK=   TDEC
000153: 06,2056           75361 11713                     -2CADR   TIG4-34
000154:
000155: 06,2060           77777        2.21SPOT           OCT      77777
000156: 06,2061  E4,1566                                  EBANK=   TDEC
000157: 06,2061           75621 03713                     -2CADR   DPSTART
000158:
000159: 06,2063           01356        2.23SPOT           DEC      750        B-14
000160: 06,2064  E4,1566                                  EBANK=   TDEC
000161: 06,2064           75566 03713                     -2CADR   TIG11
000162:
000163: 06,2066           77777        2.25SPOT           OCT      77777
000164: 06,2067  E4,1566                                  EBANK=   TDEC
000165: 06,2067           75361 03713                     -2CADR   MP11HOLD
000166:
000167: 06,2071           00144        2.27SPOT           DEC      100        B-14
000168: 06,2072  E4,1566                                  EBANK=   TDEC
000169: 06,2072           75314 03713                     -2CADR   MP11OUT
000170:
000171: 06,2074           20000        2.31SPOT           OCT      20000
000172: 06,2075  E4,1566                                  EBANK=   TDEC
000173: 06,2075           02017 74064                     2CADR    11REDO1
000174:
000175: 06,2077           20000        2.33SPOT           OCT      20000
000176: 06,2100  E4,1566                                  EBANK=   TDEC


000178: 06,2100           02032 74064                     2CADR    INTRTN
000179:
000180: 06,2102           01304        2.35SPOT           GENADR   TDECTEMP
000181: 06,2103           75657                           -GENADR  TIG11-30
000182: 06,2104  E4,1566                                  EBANK=   TDEC
000183: 06,2104           74064                           BBCON    TIG11-30
000184:
000185: 06,2105           77777        2.37SPOT           OCT      77777
000186: 06,2106  E4,1566                                  EBANK=   TDEC
000187: 06,2106           75453 03713                     -2CADR   MOVENDX
000188:
000189: 06,2110           01750        2.41SPOT           DEC      1000       B-14
000190: 06,2111  E4,1566                                  EBANK=   TDEC
000191: 06,2111           75445 03713                     -2CADR   CCSMPRET
000192:
000193: 06,2113           15530        2.43SPOT           DEC      7000       B-14
000194: 06,2114  E4,1566                                  EBANK=   TDEC
000195: 06,2114           74741 11713                     -2CADR   POSTKALC
000196:
000197: 06,2116           02114        2.45SPOT           DEC      1100       B-14
000198: 06,2117  E4,1566                                  EBANK=   TDEC
000199: 06,2117           74665 11713                     -2CADR   182LMP
000200:
000201: 06,2121           11610        2.47SPOT           DEC      5000       B-14
000202: 06,2122  E4,1566                                  EBANK=   TDEC
000203: 06,2122           74327 11713                     -2CADR   228LMP
000204:
000205: 06,2124           00062        2.51SPOT           DEC      50         B-14
000206: 06,2125     1072                                  EBANK=   AVGEXIT
000207: 06,2125           74535 11715                     -2CADR   9ULLOFF
000208:
000209: 06,2127           00372        2.53SPOT           DEC      250        B-14
000210: 06,2130     1072                                  EBANK=   AVGEXIT
000211: 06,2130           74527 11715                     -2CADR   9EDBATT
000212:
000213: 06,2132           76473        2.55SPOT           -GENADR  TDECTEMP
000214: 06,2133  E4,1566                                  EBANK=   TDEC
000215: 06,2133           74437 11713                     -2CADR   CUTOFF
000216:
000217: 06,2135           00764        2.57SPOT           DEC      500        B-14
000218: 06,2136  E4,1566                                  EBANK=   TDEC
000219: 06,2136           74415 11713                     -2CADR   87LMP
000220:
000221: 06,2140           77777        2.61SPOT           OCT      77777
000222: 06,2141  E3,1736                                  EBANK=   TGRR
000223: 06,2141           75547 21774                     -2CADR   REDO2.61
000224:
000225: 06,2143           77777        2.63SPOT           OCT      77777
000226: 06,2144  E3,1736                                  EBANK=   TGRR
000227: 06,2144           75534 21774                     -2CADR   REDO2.63
000228:


000230:                                                                                                  #  ANY MORE GROUP 2.0DD RESTART VALUES SHOULD GO HERE
000231:
000232: 06,2146  06,2006               3.2SPOT            EQUALS   1.2SPOT
000233:
000234:                                                                                                  #  ANY MORE GROUP 3.EVEN RESTART VALUES SHOULD GO HERE
000235:
000236: 06,2146           00062        3.3SPOT            DEC      50         B-14
000237: 06,2147  E4,1566                                  EBANK=   TDEC
000238: 06,2147           75415 03713                     -2CADR   ABMON
000239:
000240: 06,2151           77777        3.5SPOT            OCT      77777
000241: 06,2152  E4,1566                                  EBANK=   TDEC
000242: 06,2152           75307 17713                     -2CADR   TUMTASK
000243:
000244: 06,2154           01743        3.7SPOT            GENADR   DT-LETJT
000245: 06,2155           75507                           -GENADR  POSTLET
000246: 06,2156  E3,1736                                  EBANK=   TGRR
000247: 06,2156           56003                           BBCON    POSTLET
000248:
000249: 06,2157           77777        3.11SPOT           OCT      77777
000250: 06,2160     1164                                  EBANK=   MTIMER4
000251: 06,2160           75740 15715                     -2CADR   REDO3.11
000252:
000253: 06,2162           00144        3.13SPOT           DEC      100        B-14
000254: 06,2163     1164                                  EBANK=   MTIMER4
000255: 06,2163           75777 15715                     -2CADR   MMAINT
000256:
000257: 06,2165           02260        3.15SPOT           DEC      1200       B-14
000258: 06,2166  E4,1566                                  EBANK=   TDEC
000259: 06,2166           75224 03713                     -2CADR   NEXLMP
000260:
000261: 06,2170           00310        3.17SPOT           DEC      200        B-14
000262: 06,2171  E4,1566                                  EBANK=   TDEC
000263: 06,2171           75215 03713                     -2CADR   NEXLMP1
000264:
000265: 06,2173           00144        3.21SPOT           DEC      100        B-14
000266: 06,2174  E4,1566                                  EBANK=   TDEC
000267: 06,2174           75207 03713                     -2CADR   NEXLMP2
000268:
000269: 06,2176           13560        3.23SPOT           DEC      6000       B-14
000270: 06,2177  E4,1566                                  EBANK=   TDEC
000271: 06,2177           75200 03713                     -2CADR   NEXLMP3
000272:
000273: 06,2201           00144        3.25SPOT           DEC      100        B-14
000274: 06,2202  E4,1566                                  EBANK=   TDEC
000275: 06,2202           75232 03713                     -2CADR   MP11TASK
000276:
000277: 06,2204           20000        3.27SPOT           OCT      20000
000278: 06,2205  E5,1400                                  EBANK=   XSM
000279: 06,2205           02651 72065                     2CADR    REDO3.27
000280:


000282: 06,2207           77777        3.31SPOT           OCT      77777
000283: 06,2210  E4,1745                                  EBANK=   TTGO
000284: 06,2210           74326 21773                     -2CADR   DUMMY13
000285:
000286: 06,2212           04704        3.33SPOT           DEC      2500       B-14
000287: 06,2213  E4,1745                                  EBANK=   TTGO
000288: 06,2213           74272 21773                     -2CADR   TRMDMY13
000289:
000290:                                                                                                  #  ANY MORE GROUP 3.0DD RESTART VALUES SHOULD GO HERE
000291:
000292: 06,2215  06,2006               4.2SPOT            EQUALS   1.2SPOT
000293:
000294:                                                                                                  #  ANY MORE GROUP 4.EVEN RESTART VALUES SHOULD GO HERE
000295:
000296: 06,2215           30000        4.3SPOT            OCT      30000
000297: 06,2216  E5,1565                                  EBANK=   ETHROT
000298: 06,2216           03540 60065                     2CADR    ACCLJOB
000299:
000300: 06,2220           10000        4.5SPOT            OCT      10000
000301: 06,2221  E3,1652                                  EBANK=   RATEINDX
000302: 06,2221           02670 56003                     2CADR    COLDSOAK
000303:
000304: 06,2223           15000        4.7SPOT            OCT      15000
000305: 06,2224  E3,1736                                  EBANK=   TGRR
000306: 06,2224           02056 56003                     2CADR    MP2JOB
000307:
000308: 06,2226           25000        4.11SPOT           OCT      25000
000309: 06,2227  E5,1565                                  EBANK=   ETHROT
000310: 06,2227           03507 60065                     2CADR    PCNTJOB
000311:
000312: 06,2231           01304        4.13SPOT           GENADR   TDECTEMP
000313: 06,2232           74643                           -GENADR  TIG9-66
000314: 06,2233  E4,1566                                  EBANK=   TDEC
000315: 06,2233           66064                           BBCON    TIG9-66
000316:
000317: 06,2234           27000        4.15SPOT           OCT      27000
000318: 06,2235  E4,1566                                  EBANK=   TDEC
000319: 06,2235           03157 66064                     2CADR    ORBINTJB
000320:
000321: 06,2237           76472        4.17SPOT           -GENADR  TDECTEMP   +1
000322: 06,2240     1072                                  EBANK=   AVGEXIT
000323: 06,2240           74547 11715                     -2CADR   TIG9-0
000324:
000325:                                                                                                  #  ANY MORE GROUP 4.0DD RESTART VALUES SHOULD GO HERE
000326:
000327: 06,2242           21000        5.2SPOT            OCT      21000
000328: 06,2243  E4,1514                                  EBANK=   RAVEGON
000329: 06,2243           02412 60064                     2CADR    NORMLIZE
000330:
000331: 06,2245           00310                           DEC      200        B-14


000333: 06,2246  E5,1511                                  EBANK=   DVCNTR
000334: 06,2246           75144 17712                     -2CADR   REREADAC
000335:
000336: 06,2250           00310        5.4SPOT            DEC      200        B-14
000337: 06,2251  E5,1570                                  EBANK=   BMEMORY
000338: 06,2251           75777 17712                     -2CADR   PREREAD
000339:
000340: 06,2253           32000                           OCT      32000
000341: 06,2254  E3,1400                                  EBANK=   LST1
000342: 06,2254           03575 24003                     2CADR    LASTBIAS
000343:
000344: 06,2256           00310        5.6SPOT            DEC      200        B-14
000345: 06,2257  E5,1511                                  EBANK=   DVCNTR
000346: 06,2257           75144 17712                     -2CADR   REREADAC
000347:
000348: 06,2261           20000                           OCT      20000
000349: 06,2262  E5,1511                                  EBANK=   DVCNTR
000350: 06,2262           02133 60065                     2CADR    SERVICER
000351:
000352:                                                                                                  #  ANY MORE GROUP 5.EVEN RESTART VALUES SHOULD GO HERE
000353:
000354: 06,2264           00310        5.3SPOT            DEC      200        B-14
000355: 06,2265  E5,1511                                  EBANK=   DVCNTR
000356: 06,2265           75144 17712                     -2CADR   REREADAC
000357:
000358: 06,2267           00000 00000  5.5SPOT            2DEC     0          B-28                       #  5.5 SPOT NOT USED
000359:
000360: 06,2271           00000                           DEC      0          B-14
000361:
000362: 06,2272           20000        5.7SPOT            OCT      20000
000363: 06,2273  E5,1400                                  EBANK=   XSM
000364: 06,2273           02020 72065                     2CADR    RSTGTS1
000365:
000366: 06,2275           77777        5.11SPOT           OCT      77777
000367: 06,2276  E5,1400                                  EBANK=   XSM
000368: 06,2276           75706 05712                     -2CADR   ALLOOP1
000369:
000370: 06,2300           20000        5.13SPOT           OCT      20000
000371: 06,2301  E5,1400                                  EBANK=   XSM
000372: 06,2301           02727 72065                     2CADR    WTLISTNT
000373:
000374: 06,2303           20000        5.15SPOT           OCT      20000
000375: 06,2304  E5,1400                                  EBANK=   XSM
000376: 06,2304           02757 72065                     2CADR    NOCHORLD
000377:
000378: 06,2306           20000        5.17SPOT           OCT      20000
000379: 06,2307  E5,1400                                  EBANK=   XSM
000380: 06,2307           02710 72065                     2CADR    GEOSTRT4
000381:
000382: 06,2311           20000        5.21SPOT           OCT      20000


000384: 06,2312  E5,1400                                  EBANK=   XSM
000385: 06,2312           02126 72065                     2CADR    ALFLT1
000386:
000387: 06,2314           77777        5.23SPOT           OCT      77777
000388: 06,2315  E5,1400                                  EBANK=   XSM
000389: 06,2315           75666 05712                     -2CADR   SPECSTS
000390:
000391: 06,2317           20000        5.25SPOT           OCT      20000
000392: 06,2320  E5,1400                                  EBANK=   XSM
000393: 06,2320           02630 72065                     2CADR    RESTAIER
000394:
000395: 06,2322           00620        5.27SPOT           DEC      400        B-14
000396: 06,2323  E5,1506                                  EBANK=   DVTOTAL
000397: 06,2323           75777 17712                     -2CADR   PREREAD
000398:
000399: 06,2325           77777        5.31SPOT           OCT      77777
000400: 06,2326  E5,1537                                  EBANK=   NEGXDV
000401: 06,2326           75707 17712                     -2CADR   REDO5.31
000402:
000403: 06,2330           77777        5.33SPOT           OCT      77777
000404: 06,2331  E5,1511                                  EBANK=   DVCNTR
000405: 06,2331           75777 17712                     -2CADR   PREREAD
000406:
000407: 06,2333           76435        5.35SPOT           -GENADR  RSDTTEMP
000408: 06,2334  E5,1506                                  EBANK=   DVTOTAL
000409: 06,2334           75777 17712                     -2CADR   PREREAD
000410:
000411: 06,2336           77777        5.37SPOT           OCT      77777
000412: 06,2337  E3,1736                                  EBANK=   TGRR
000413: 06,2337           75754 21774                     -2CADR   SETPIPDT
000414:
000415:                                                                                                  #  ANY MORE GROUP 5.ODD RESTART VALUES SHOULD GO HERE
000416:
000417: 06,2341           00764        6.2SPOT            DEC      500        B-14
000418: 06,2342  E7,1407                                  EBANK=   DNTMBUFF
000419: 06,2342           75225 55770                     -2CADR   DAPOFF
000420:
000421: 06,2344           30000                           OCT      30000
000422: 06,2345  E7,1407                                  EBANK=   DNTMBUFF
000423: 06,2345           02541 22007                     2CADR    TGOFF
000424:
000425:                                                                                                  #  ANY MORE GROUP 6.EVEN RESTART VALUES SHOULD GO HERE
000426:
000427: 06,2347           00764        6.3SPOT            DEC      500        B-14
000428: 06,2350  E7,1407                                  EBANK=   DNTMBUFF
000429: 06,2350           75225 55770                     -2CADR   DAPOFF
000430:
000431: 06,2352           33000        6.5SPOT            OCTAL    33000
000432: 06,2353  E4,1677                                  EBANK=   STBUFF
000433: 06,2353           02440 54004                     2CADR    I=4.CONT
000434:


000436: 06,2355           30000        6.7SPOT            OCT      30000
000437: 06,2356  E4,1677                                  EBANK=   STBUFF
000438: 06,2356           02464 54004                     2CADR    UPQUITRM
000439:
000440: 06,2360           76432        6.11SPOT           -GENADR  DAPOFFDT
000441: 06,2361  E7,1407                                  EBANK=   DNTMBUFF
000442: 06,2361           75504 03710                     -2CADR   11DAPOFF
000443:
000444:                                                                                                  #  ANY MORE GROUP 6.0DD RESTART VALUES SHOULD GO HERE
000445:
000446: 06,2363           00000        SIZETAB            GENADR   1.2SPOT    -24006
000447: 06,2364           00010                           GENADR   1.3SPOT    -24004
000448: 06,2365           00011                           GENADR   2.2SPOT    -24006
000449: 06,2366           00027                           GENADR   2.3SPOT    -24004
000450: 06,2367           00000                           GENADR   3.2SPOT    -24006
000451: 06,2370           00142                           GENADR   3.3SPOT    -24004
000452: 06,2371           00000                           GENADR   4.2SPOT    -24006
000453: 06,2372           00211                           GENADR   4.3SPOT    -24004
000454: 06,2373           00234                           GENADR   5.2SPOT    -24006
000455: 06,2374           00260                           GENADR   5.3SPOT    -24004
000456: 06,2375           00333                           GENADR   6.2SPOT    -24006
000457: 06,2376           00343                           GENADR   6.3SPOT    -24004
000458:


000460: 06,2377           30151        RESTARTS           CA       MPAC       +5                         #  GET GROUP NUMBER -1
000461: 06,2400           60000                           DOUBLE                                         #  SAVE FOR INDEXING
000462: 06,2401           54145                           TS       TEMP2G
000463:
000464: 06,2402           32003                           CA       FVACCADR                              #  LET:S ASSUME THIS IS A JOB, THIS WILL
000465: 06,2403           54734                           TS       GOLOC      -1                         #  SAVE US A COUPLE OF LOCATIONS, BUT NOT
000466:                                                                                                  #  NECESSARIALY ANY TIME  - SO BE IT -
000467:
000468: 06,2404           32000                           CA       PHS2CADR                              #  SET UP EXIT IN CASE IT IS AN EVEN
000469: 06,2405           54147                           TS       TEMPSWCH                              #  TABLE PHASE
000470:
000471: 06,2406           32005                           CA       RTRNCADR                              #  TO SAVE TIME ASSUME IT WILL GET NEXT
000472: 06,2407           54737                           TS       GOLOC      +2                         #  GROUP AFTER THIS
000473:
000474: 06,2410           30144                           CA       TEMPPHS
000475: 06,2411           75352                           MASK     OCT1400
000476: 06,2412           10000                           CCS      A                                     #  IS IT A VARIABLE OR TABLE RESTART
000477: 06,2413           12424                           TCF      ITSAVAR                               #  IT;S A VARIABLE RESTART
000478:
000479: 06,2414           10144        GETPART2           CCS      TEMPPHS                               #  IS IT AN X.1 RESTART
000480: 06,2415           10000                           CCS      A
000481: 06,2416           12513                           TCF      ITSATBL                               #  NO, ITS A TABLE RESTART
000482:
000483: 06,2417           35640                           CA       PRIO14                                #  IT IS AN X.1 RESTART, THEREFORE START
000484: 06,2420           05516                           TC       FINDVAC                               #  THE DISPLAY RESTART JOB
000485: 06,2421  E3,1400                                  EBANK=   LST1
000486: 06,2421           05567 04003                     2CADR    INITDSP
000487:
000488: 06,2423           02005                           TC       RTRNCADR                              #  FINISHED WITH THIS GROUP, GET NEXT ONE
000489:
000490: 06,2424     5567               INITDSP            EQUALS   ENDOFJOB
000491:
000492: 06,2424           75352        ITSAVAR            MASK     OCT1400                               #  IS IT TYPE B ?
000493: 06,2425           10000                           CCS      A
000494: 06,2426           12475                           TCF      ITSLIKEB                              #  YES, IT IS TYPE B
000495:
000496: 06,2427           00006                           EXTEND                                         #  STORE THE JOB (OR TASK) 2CADR FOR EXIT
000497: 06,2430           50145                           NDX      TEMP2G
000498: 06,2431           31517                           DCA      PHSNAME1
000499: 06,2432           52736                           DXCH     GOLOC
000500:
000501: 06,2433           30144                           CA       TEMPPHS                               #  SEE IF THIS IS A JOB, TASK, OR A LONGCAL
000502: 06,2434           77765                           MASK     OCT7
000503: 06,2435           65336                           AD       MINUS2
000504: 06,2436           10000                           CCS      A
000505: 06,2437           12576                           TCF      ITSLNGCL                              #  ITS A LONGCALL
000506:
000507: 06,2440           37776        OCT37776           OCT      37776                                 #  CANT GET HERE
000508:


000510: 06,2441           12443                           TCF      ITSAWAIT
000511:
000512: 06,2442           12510                           TCF      ITSAJOB                               #  ITS A JOB
000513:
000514: 06,2443           32004        ITSAWAIT           CA       WTLTCADR                              #  SET UP WAITLIST CALL
000515: 06,2444           54734                           TS       GOLOC      -1
000516:
000517: 06,2445           50145                           NDX      TEMP2G                                #  DIRECTLY STORED
000518: 06,2446           31114                           CA       PHSPRDT1
000519: 06,2447           10000        TIMETEST           CCS      A                                     #  IS IT AN IMMEDIATE RESTART
000520: 06,2450           24000                           INCR     A                                     #  NO.
000521: 06,2451           12454                           TCF      FINDTIME                              #  FIND OUT WHEN IT SHOULD BEGIN
000522:
000523: 06,2452           14064                           TCF      ITSINDIR                              #  STORED INDIRECTLY
000524:
000525: 06,2453           12473                           TCF      IMEDIATE                              #  IT WANTS AN IMMEDIATE RESTART
000526:
000527:                                                                                                  #  ***** THIS MUST BE IN FIXED FIXED *****
000528:
000529:    4064                                           BLOCK    02
000530:    4064           22736        ITSINDIR           LXCH     GOLOC      +1                         #  GET THE CORRECT E BANK IN CASE THIS IS
000531:    4065           22006                           LXCH     BB                                    #  SWITCHED ERRASIBLE
000532:
000533:    4066           50000                           NDX      A                                     #  GET THE TIME INDIRECTLY
000534:    4067           30001                           CA       1
000535:
000536:    4070           22006                           LXCH     BB                                    #  RESTORE THE BB AND GOLOC
000537:    4071           22736                           LXCH     GOLOC      +1
000538:
000539:    4072           12454                           TCF      FINDTIME                              #  FIND OUT WHEN IT SHOULD BEGIN
000540:
000541:                                                                                                  #  ***** YOUB MAY RETURN TO SWITCHED FIXED *****
000542:
000543: 06,2454                                           BANK     06
000544: 06,2454           40000        FINDTIME           COM                                            #  MAKE NEGATIVE SINCE IT WILL BE SUBTRACTD
000545: 06,2455           54001                           TS       L                                     #  AND SAVE
000546: 06,2456           50145                           NDX      TEMP2G
000547: 06,2457           41113                           CS       TBASE1
000548: 06,2460           00006                           EXTEND
000549: 06,2461           60025                           SU       TIME1
000550: 06,2462           10000                           CCS      A
000551: 06,2463           40000                           COM
000552: 06,2464           62440                           AD       OCT37776
000553: 06,2465           67763                           AD       ONE
000554: 06,2466           60001                           AD       L
000555: 06,2467           10000                           CCS      A
000556: 06,2470           37767                           CA       ZERO
000557: 06,2471           12473                           TCF      +2
000558: 06,2472           12473                           TCF      +1
000559: 06,2473           67763        IMEDIATE           AD       ONE


000561: 06,2474           00734                           TC       GOLOC      -1
000562: 06,2475           32005        ITSLIKEB           CA       RTRNCADR                              #  TYPE B,             SO STORE RETURN IN
000563: 06,2476           54147                           TS       TEMPSWCH                              #  TEMPSWCH IN CASE OF AN EVEN PHASE
000564:
000565: 06,2477           32001                           CA       PRT2CADR                              #  SET UP EXIT TO GET TABLE PART OF THIS
000566: 06,2500           54737                           TS       GOLOC      +2                         #  VARIABLE TYPE OF PHASE
000567:
000568: 06,2501           30144                           CA       TEMPPHS                               #  MAKE THE PHASE LOOK RIGHT FOR THE TABLE
000569: 06,2502           75342                           MASK     OCT177                                #  PART OF THIS VARIABLE PHASE
000570: 06,2503           54144                           TS       TEMPPHS
000571:
000572: 06,2504           00006                           EXTEND
000573: 06,2505           50145                           NDX      TEMP2G                                #  OBTAIN THE JOB;S 2CADR
000574: 06,2506           31517                           DCA      PHSNAME1
000575: 06,2507           52736                           DXCH     GOLOC
000576:
000577: 06,2510           50145        ITSAJOB            NDX      TEMP2G                                #  NOW ADD THE PRIORITY AND LET;S GO
000578: 06,2511           31114                           CA       PHSPRDT1
000579: 06,2512           00734                           TC       GOLOC      -1
000580:
000581: 06,2513           54020        ITSATBL            TS       CYR                                   #  FIND OUT IF THE PHASE IS ODD OR EVEN
000582: 06,2514           10020                           CCS      CYR
000583: 06,2515           12516                           TCF      +1                                    #  IT;S EVEN
000584: 06,2516           12616                           TCF      ITSEVEN
000585:
000586: 06,2517           32005                           CA       RTRNCADR                              #  IN CASE THIS IS THE SECOND PART OF A
000587: 06,2520           54737                           TS       GOLOC      +2                         #  TYPE B RESTART, WE NEED PROPER EXIT
000588:
000589: 06,2521           30144                           CA       TEMPPHS                               #  SET UP POINTER FOR FINDING OUR PLACE IN
000590: 06,2522           54021                           TS       SR                                    #  THE RESTART TABLES
000591: 06,2523           60021                           AD       SR
000592: 06,2524           50145                           NDX      TEMP2G
000593: 06,2525           62364                           AD       SIZETAB    +1
000594: 06,2526           54146                           TS       POINTER
000595:
000596: 06,2527           00006        CONTBL2            EXTEND                                         #  FIND OUT WHAT;S IN THE TABLE
000597: 06,2530           50146                           NDX      POINTER
000598: 06,2531           32002                           DCA      CADRTAB                               #  GET THE 2CADR
000599:
000600: 06,2532           22736                           LXCH     GOLOC      +1                         #  STORE THE BB INFORMATION
000601:
000602: 06,2533           10000                           CCS      A                                     #  IS IT A JOB OR IS IT TIMED
000603: 06,2534           24000                           INCR     A                                     #  POSITIVE, MUST BE A JOB
000604: 06,2535           12610                           TCF      ITSAJOB2
000605:
000606: 06,2536           24000                           INCR     A                                     #  MUST BE EITHER A WAITLIST OR LONGCALL
000607: 06,2537           54735                           TS       GOLOC                                 #  LET-S STORE THE CORRECT CADR
000608:
000609: 06,2540           32004                           CA       WTLTCADR                              #  SET UP OUR EXIT TO WAITLIST
000610: 06,2541           54734                           TS       GOLOC      -1
000611:


000613: 06,2542           30736                           CA       GOLOC      +1                         #  NOW FIND OUT IF IT IS A WAITLIST CALL
000614: 06,2543           77752                           MASK     BIT10                                 #  THIS SHOULD BE ONE IF WE HAVE -BB
000615: 06,2544           10000                           CCS      A                                     #  FOR THAT MATTER SO SHOULD BE BITS 9,8,7,
000616:                                                                                                  #  6,5, AND LAST BUT NOT LEAST (PERHAPS NOT
000617:                                                                                                  #  IN IMPORTANCE ANYWAY.  BIT 4
000618: 06,2545           12603                           TCF      ITSWTLST                              #  IT IS A WAITLIST CALL
000619:
000620: 06,2546           50146                           NDX      POINTER                               #  OBTAIN THE ORIGINAL DELTA T
000621: 06,2547           32000                           CA       PRDTTAB                               #  ADDRESS FOR THIS LONGCALL
000622:
000623: 06,2550           14073                           TCF      ITSLGCL1                              #  NOW GO GET THE DELTA TIME
000624:
000625:                                                                                                  #  ***** THIS MUST BE IN FIXED FIXED *****
000626:
000627:    4073                                           BLOCK    02
000628:    4073           22736        ITSLGCL1           LXCH     GOLOC      +1                         #  OBTAIN THE CORRECT E BANK
000629:    4074           22006                           LXCH     BB
000630:    4075           22736                           LXCH     GOLOC      +1                         #  AND PRESERVE OUR E AND F BANKS
000631:
000632:    4076           00006                           EXTEND                                         #  GET THE DELTA TIME
000633:    4077           50000                           NDX      A
000634:    4100           30001                           DCA      0
000635:
000636:    4101           22736                           LXCH     GOLOC      +1                         #  RESTORE OUR E AND F BANK
000637:    4102           22006                           LXCH     BB                                    #  RESTORE THE TASKS E AND F BANKS
000638:    4103           22736                           LXCH     GOLOC      +1                         #  AND PRESERVE OUR L
000639:    4104           12551                           TCF      ITSLGCL2                              #  NOT LET:S PROCESS THIS LONGCALL
000640:
000641:                                                                                                  #  ***** YOUB MAY RETURN TO SWITCHED FIXED *****
000642:
000643: 06,2551                                           BANK     06
000644: 06,2551           53154        ITSLGCL2           DXCH     LONGTIME
000645:
000646: 06,2552           00006                           EXTEND                                         #  CALCULATE TIME LEFT
000647: 06,2553           40025                           DCS      TIME2
000648: 06,2554           21154                           DAS      LONGTIME
000649: 06,2555           00006                           EXTEND
000650: 06,2556           31433                           DCA      LONGBASE
000651: 06,2557           21154                           DAS      LONGTIME
000652:
000653: 06,2560           11153                           CCS      LONGTIME                              #  FIND OUT HOW THIS SHOULD BE RESTARTED
000654: 06,2561           12571                           TCF      LONGCLCL
000655: 06,2562           12564                           TCF      +2
000656: 06,2563           12470                           TCF      IMEDIATE   -3
000657: 06,2564           11154                           CCS      LONGTIME   +1
000658: 06,2565           12571                           TCF      LONGCLCL
000659: 06,2566           12567                           NOOP                                           #  CAN:T GET HERE   *********
000660: 06,2567           12470                           TCF      IMEDIATE   -3
000661: 06,2570           12473                           TCF      IMEDIATE
000662:


000664: 06,2571           32002        LONGCLCL           CA       LGCLCADR                              #  WE WILL GO TO LONGCALL
000665: 06,2572           54734                           TS       GOLOC      -1
000666:
000667: 06,2573           00006                           EXTEND                                         #  PREPARE OUR ENTRY TO LONGCALL
000668: 06,2574           31154                           DCA      LONGTIME
000669: 06,2575           00734                           TC       GOLOC      -1
000670:
000671: 06,2576           32004        ITSLNGCL           CA       WTLTCADR                              #  ASSUME IT WILL GO TO WAITLIST
000672: 06,2577           54734                           TS       GOLOC      -1
000673:
000674: 06,2600           50145                           NDX      TEMP2G
000675: 06,2601           41114                           CS       PHSPRDT1                              #  GET THE DELTA T ADDRESS
000676:
000677: 06,2602           14073                           TCF      ITSLGCL1                              #  NOW GET THE DELTA TIME
000678:
000679: 06,2603           40736        ITSWTLST           CS       GOLOC      +1                         #  CORRECT THE BBCON INFORMATION
000680: 06,2604           54736                           TS       GOLOC      +1
000681:
000682: 06,2605           50146                           NDX      POINTER                               #  GET THE DT AND FIND OUT IF IT WAS STORED
000683: 06,2606           32000                           CA       PRDTTAB                               #  DIRECTLY OR INDIRECTLY
000684:
000685: 06,2607           12447                           TCF      TIMETEST                              #  FIND OUT HOW THE TIME IS STORED
000686:
000687: 06,2610           56735        ITSAJOB2           XCH      GOLOC                                 #  STORE THE CADR
000688:
000689: 06,2611           32003                           CA       FVACCADR                              #  STORE TC FINDVAC.
000690: 06,2612           54734                           TS       GOLOC      -1
000691:
000692: 06,2613           50146                           NDX      POINTER                               #  ADD THE PRIORITY AND LET;S GO
000693: 06,2614           32000                           CA       PRDTTAB
000694:
000695: 06,2615           00734                           TC       GOLOC      -1
000696:
000697: 06,2616           30147        ITSEVEN            CA       TEMPSWCH                              #  SET UP FOR EITHER THE SECOND PART OF THE
000698: 06,2617           54737                           TS       GOLOC      +2                         #  TABLE, OR A RETURN FOR THE NEXT GROUP
000699:
000700: 06,2620           50145                           NDX      TEMP2G                                #  SET UP POINTER FOR OUR LOCATION WITHIN
000701: 06,2621           32363                           CA       SIZETAB                               #  THE TABLE
000702: 06,2622           60144                           AD       TEMPPHS                               #  THIS MAY LOOK BAD BUT LET;S SEE YOU DO
000703: 06,2623           60144                           AD       TEMPPHS                               #  BETTER IN TIME OR NUMBERR OF LOCATIONS
000704: 06,2624           60144                           AD       TEMPPHS
000705: 06,2625           54146                           TS       POINTER
000706:
000707: 06,2626           12527                           TCF      CONTBL2                               #  NOW PROCESS WHAT IS IN THE TABLE
000708:
000709: 06,2627           36311        PHSPART2           CA       THREE                                 #  SET THE POINTER FOR THE SECOND HALF OF
000710: 06,2630           26146                           ADS      POINTER                               #  THE TABLE
000711:
000712: 06,2631           32005                           CA       RTRNCADR                              #  THIS WILL BE OUR LAST TIME THROUGH THE
000713: 06,2632           54737                           TS       GOLOC      +2                         #  EVEN TABLE, SO AFTER IT GET THE NEXT


000715:                                                                                                  #  GROUP
000716: 06,2633           12527                           TCF      CONTBL2                               #  SO LET;S GET THE SECOND ENTRY IN THE TBL
000717:
000718: 06,2634     0144               TEMPPHS            EQUALS   MPAC
000719: 06,2634     0145               TEMP2G             EQUALS   MPAC       +1
000720: 06,2634     0146               POINTER            EQUALS   MPAC       +2
000721: 06,2634     0147               TEMPSWCH           EQUALS   MPAC       +3
000722: 06,2634     0735               GOLOC              EQUALS   VAC5       +20D
000723: 06,2634     5336               MINUS2             EQUALS   NEG2
000724: 06,2634     5342               OCT177             EQUALS   LOW7
000725:
000726:                                                                                                  #  SETRSTRT - RESTART FLAG UP OR DOWN DEPENDING ON CONTENTS OF ERASABLE RSTRTWRD.
000727:
000728:                                                                                                  #  CALLING SEQUENCE
000729:                                                                                                  #                CAF     BITX            USE BIT CORRESPONDING TO MISS PHASE NUM.
000730:                                                                                                  #                TC      SETRSTRT
000731:
000732:    4105                                           BLOCK    02
000733:
000734:    4105           22002        SETRSTRT           LXCH     Q
000735:    4106           71127                           MASK     RSTRTWRD
000736:    4107           00006                           EXTEND
000737:    4110           14114                           BZF      +4
000738:
000739:    4111           06051                           TC       FLAG1UP                               #  USER MISSION PHASE IS RESTARTABLE
000740:    4112           04000                           OCT      04000
000741:    4113           00001                           TC       L
000742:
000743:    4114           06067                 +4        TC       FLAG1DWN                              #  USER MISSION PHASE NOT RESTARTABLE
000744:    4115           04000                           OCT      04000
000745:    4116           00001                           TC       L

End of include-file RESTART_TABLES_AND_RESTARTS_ROUTINE.agc.  Parent file is MAIN.agc


