
Source Code


000002:                                                                                                  ## Copyright:   Public domain.
000003:                                                                                                  ## Filename:    RTB_OP_CODES.agc
000004:                                                                                                  ## Purpose:     A module for revision 0 of BURST120 (Sunburst). It
000005:                                                                                                  ##              is part of the source code for the Lunar Module's
000006:                                                                                                  ##              (LM) Apollo Guidance Computer (AGC) for Apollo 5.
000007:                                                                                                  ## Assembler:   yaYUL
000008:                                                                                                  ## Contact:     Ron Burkey <info@sandroid.org>.
000009:                                                                                                  ## Website:     www.ibiblio.org/apollo/index.html
000010:                                                                                                  ## Mod history: 2016-09-30 RSB  Created draft version.
000011:                                                                                                  ##              2016-10-16 RSB  Transcribed.
000012:                                                                                                  ##              2016-10-31 RSB  Typos.
000013:                                                                                                  ##              2016-12-05 RSB  Comment-proofing pass with octopus/ProoferComments completed;
000014:                                                                                                  ##                              changes made.
000015:


000017: 15,3454                                           BANK     15
000018:                                                                                                  #  LOAD TIME2, TIME1 INTO MPAC:
000019:
000020: 15,3454           00006        LOADTIME           EXTEND
000021: 15,3455           30025                           DCA      TIME2
000022: 15,3456           16542                           TCF      SLOAD2
000023:
000024:                                                                                                  #           CONVERT THE SINGLE PRECISION 2'S COMPLEMENT NUMBER ARRIVING IN MPAC (SCALED IN HALF-REVOLUTIONS) TO A
000025:                                                                                                  #  DP 1'S COMPLEMENT NUMBER SCALED IN REVOLUTIONS.
000026:
000027: 15,3457           10144        CDULOGIC           CCS      MPAC
000028: 15,3460           37767                           CAF      ZERO
000029: 15,3461           13464                           TCF      +3
000030: 15,3462           13463                           NOOP
000031: 15,3463           47746                           CS       HALF
000032:
000033: 15,3464           54145                           TS       MPAC       +1
000034: 15,3465           37767                           CAF      ZERO
000035: 15,3466           56144                           XCH      MPAC
000036: 15,3467           00006                           EXTEND
000037: 15,3470           77746                           MP       HALF
000038: 15,3471           20145                           DAS      MPAC
000039: 15,3472           16544                           TCF      SLOAD2     +2                         #  C(A) = +0.
000040:
000041:                                                                                                  #           READ IMU CDUS INTO MPAC AS A VECTOR. ESPECIALLY USEFUL IN CONNECTION WITH SMNB, ETC.
000042:
000043: 15,3473           00004        READCDUS           INHINT
000044: 15,3474           30033                           CA       CDUY                                  #  IN ORDER Y Z X
000045: 15,3475           54144                           TS       MPAC
000046: 15,3476           30034                           CA       CDUZ
000047: 15,3477           54147                           TS       MPAC       +3
000048: 15,3500           30032                           CA       CDUX
000049: 15,3501           13510                           TCF      READPIPS   +6                         #  COMMON CODING.
000050:
000051:                                                                                                  #           READ THE PIPS INTO MPAC WITHOUT CHANGING THEM:
000052:
000053: 15,3502           00004        READPIPS           INHINT
000054: 15,3503           30037                           CA       PIPAX
000055: 15,3504           54144                           TS       MPAC
000056: 15,3505           30040                           CA       PIPAY
000057: 15,3506           54147                           TS       MPAC       +3
000058: 15,3507           30041                           CA       PIPAZ
000059: 15,3510           00003                           RELINT
000060: 15,3511           54151                           TS       MPAC       +5
000061:
000062: 15,3512           37767                           CAF      ZERO
000063: 15,3513           54145                           TS       MPAC       +1
000064: 15,3514           54150                           TS       MPAC       +4
000065: 15,3515           54152                           TS       MPAC       +6
000066:


000068: 15,3516           47763        VECMODE            CS       ONE
000069: 15,3517           16124                           TCF      NEWMODE
000070:
000071:                                                                                                  #           FORCE TP SIGN AGREEMENT IN MPAC:
000072:
000073: 15,3520           07327        SGNAGREE           TC       TPAGREE
000074: 15,3521           16125                           TCF      DANZIG
000075:
000076:                                                                                                  #           CONVERT THE DP 1'S COMPLEMENT ANGLE SCALED IN REVOLUTIONS TO A SINGLE PRECISION 2'S COMPLEMENT ANGLE
000077:                                                                                                  #  SCALED IN HALF-REVOLUTIONS.
000078:
000079: 15,3522           03552        1STO2S             TC       1TO2SUB
000080: 15,3523           37767                           CAF      ZERO
000081: 15,3524           54145                           TS       MPAC       +1
000082: 15,3525           16124                           TCF      NEWMODE
000083:
000084:                                                                                                  #           DO 1STO2S ON A VECTOR OF ANGLES:
000085:
000086: 15,3526           03552        V1STO2S            TC       1TO2SUB                               #  ANSWER ARRIVES IN A AND MPAC.
000087:
000088: 15,3527           52152                           DXCH     MPAC       +5
000089: 15,3530           52145                           DXCH     MPAC
000090: 15,3531           03552                           TC       1TO2SUB
000091: 15,3532           54146                           TS       MPAC       +2
000092:
000093: 15,3533           52150                           DXCH     MPAC       +3
000094: 15,3534           52145                           DXCH     MPAC
000095: 15,3535           03552                           TC       1TO2SUB
000096: 15,3536           54145                           TS       MPAC       +1
000097:
000098: 15,3537           30151                           CA       MPAC       +5
000099: 15,3540           54144                           TS       MPAC
000100:
000101: 15,3541           37763        TPMODE             CAF      ONE                                   #  MODE IS TP.
000102: 15,3542           16124                           TCF      NEWMODE
000103:
000104:                                                                                                  #           V1STO2S FOR 2 COMPONENT VECTOR, USED BY RR.
000105:
000106: 15,3543           03552        2V1STO2S           TC       1TO2SUB
000107: 15,3544           52150                           DXCH     MPAC       +3
000108: 15,3545           52145                           DXCH     MPAC
000109: 15,3546           03552                           TC       1TO2SUB
000110: 15,3547           54001                           TS       L
000111: 15,3550           30147                           CA       MPAC       +3
000112: 15,3551           16542                           TCF      SLOAD2
000113:
000114:                                                                                                  #           SUBROUTINE TO DO DOUBLING AND 1'S TO 2'S COMVERSION:
000115:
000116: 15,3552           52145        1TO2SUB            DXCH     MPAC                                  #  FINAL MPAC +1 UNSPECIFIED.
000117: 15,3553           20001                           DDOUBL


000119: 15,3554           10000                           CCS      A
000120: 15,3555           67763                           AD       ONE
000121: 15,3556           13560                           TCF      +2
000122: 15,3557           40000                           COM                                            #  THIS WAS REVERSE OF MSU.
000123:
000124: 15,3560           54144                           TS       MPAC                                  #  AND SKIP ON OVERFLOW.
000125: 15,3561           00002                           TC       Q
000126:
000127: 15,3562           50000                           INDEX    A                                     #  OVERFLOW UNCORRECT AND IN MSU.
000128: 15,3563           37744                           CAF      LIMITS
000129: 15,3564           26144                           ADS      MPAC
000130: 15,3565           00002                           TC       Q
000131:


000133:                                                                                                  #           SUBROUTINE TO INCREMENT CDUS
000134: 15,3566           33601        INCRCDUS           CAF      LOCTHETA
000135: 15,3567           54120                           TS       BUF                                   #  PLACE ADRES(THETA) IN BUF.
000136: 15,3570           30144                           CAE      MPAC                                  #  INCREMENT IN 1S COMPL.
000137: 15,3571           03602                           TC       CDUINC
000138:
000139: 15,3572           24120                           INCR     BUF
000140: 15,3573           30147                           CAE      MPAC       +3
000141: 15,3574           03602                           TC       CDUINC
000142:
000143: 15,3575           24120                           INCR     BUF
000144: 15,3576           30151                           CAE      MPAC       +5
000145: 15,3577           03602                           TC       CDUINC
000146:
000147: 15,3600           13516                           TCF      VECMODE
000148:
000149: 15,3601           00400        LOCTHETA           ADRES    THETAD
000150:
000151:                                                                                                  #           THE FOLLOWING ROUTINE INCREMENTS IN 2S COMPLEMENT THE REGISTER WHOSE ADDRESS IS IN BUF BY THE 1S COMPL.
000152:                                                                                                  #  QUANTITY FOUND IN TEM2. THIS MAY BE USED TO INCREMENT DESIRED IMU AND OPTICS CDU ANGLES OR ANY OTHER 2S COMPL.
000153:                                                                                                  #  (+0 UNEQUAL TO -0) QUANTITY. MAY BE CALLED BY BANKCALL/SWCALL.
000154:
000155: 15,3602           54132        CDUINC             TS       TEM2                                  #  1S COMPL.QUANT. ARRIVES IN ACC. STORE IT
000156: 15,3603           50120                           INDEX    BUF
000157: 15,3604           10000                           CCS      0                                     #  CHANGE 2S COMPL. ANGLE(IN BUF)INTO 1S
000158: 15,3605           67763                           AD       ONE
000159: 15,3606           13612                           TCF      +4
000160: 15,3607           67763                           AD       ONE
000161: 15,3610           67763                           AD       ONE                                   #  OVERFLOW HERE IF 2S COMPL. IS 180 DEG.
000162: 15,3611           40000                           COM
000163:
000164: 15,3612           60132                           AD       TEM2                                  #  ADD IN INCREMENT. WILL OVERFLOW IF RE-
000165:                                                                                                  #  SULT MOVES FROM 2ND TO 3D QUAD.(OR BACK)
000166: 15,3613           10000                           CCS      A                                     #  BACK TO 2S COMPL.
000167: 15,3614           67763                           AD       ONE
000168: 15,3615           13617                           TCF      +2
000169: 15,3616           40000                           COM
000170: 15,3617           54132                           TS       TEM2                                  #  STORE 14BIT QUANTITY WITH PRESENT SIGN
000171: 15,3620           13624                           TCF      +4
000172: 15,3621           50000                           INDEX    A                                     #  OVERFLOW MEANS CORRECT 14BIT VALUE,WRONG
000173:                                                                                                  #   SIGN.
000174: 15,3622           37744                           CAF      LIMITS                                #  FIX IT,BY ADDING IN 37777 OR 40000
000175: 15,3623           60132                           AD       TEM2
000176:
000177: 15,3624           50120                           INDEX    BUF
000178: 15,3625           54000                           TS       0                                     #  STORE NEW ANGLE IN 2S COMPLEMENT.
000179: 15,3626           00002                           TC       Q
000180:


000182:                                                                                                  #           RTB TO TORQUE GYROS, EXCEPT FOR THE CALL TO IMUSTALL. ECADR OF COMMANDS ARRIVES IN X1.
000183:
000184: 15,3627           50110        PULSEIMU           INDEX    FIXLOC                                #  ADDRESS OF GYRO COMMANDS SHOULD BE IN X1
000185: 15,3630           30046                           CA       X1
000186: 15,3631           05206                           TC       BANKCALL
000187: 15,3632           26362                           CADR     IMUPULSE
000188: 15,3633           16125                           TCF      DANZIG
000189:


000191:                                                                                                  #           THE FOLLOWING ROUTINE IS USED ONLY IN BENCH TESTING THE RR.
000192:
000193: 15,3634           05701        RRSIM              TC       FIXDELAY
000194: 15,3635           00062                           DEC      50         B-14
000195:
000196: 15,3636           37762        RRSIM2             CAF      BIT2                                  #  SEE IF RR ECTR ENABLED.
000197: 15,3637           00006                           EXTEND
000198: 15,3640           02012                           RAND     12
000199: 15,3641           00006                           EXTEND
000200: 15,3642           13634                           BZF      RRSIM
000201:
000202: 15,3643           30132                           CA       TEM2                                  #  SAVE EXEC TEMPS SINCE IN RUPT.
000203: 15,3644           54070                           TS       RUPTREG1
000204: 15,3645           33705                           CAF      LOPTY
000205: 15,3646           56120                           XCH      BUF
000206: 15,3647           54071                           TS       RUPTREG2
000207: 15,3650           30361                           CA       LASTYCMD                              #  ECTR.
000208: 15,3651           60000                           DOUBLE
000209: 15,3652           00006                           EXTEND
000210: 15,3653           73706                           MP       RRSIMG
000211: 15,3654           03602                           TC       CDUINC
000212: 15,3655           24120                           INCR     BUF
000213: 15,3656           30035                           CA       OPTY                                  #  SHAFT CMD IS DIVIDED BY THE ABS VALUE OF
000214: 15,3657           00006                           EXTEND                                         #  THE COS OF THE TRUNNION ANGLE.
000215: 15,3660           20007                           MSU      7                                     #  TO 1S COMPLEMENT.
000216: 15,3661           05354                           TC       SPCOS                                 #                                  *
000217: 15,3662           00006                           EXTEND                                         #  SPCOS NOW GIVES COS SCALED AT 1 *
000218: 15,3663           77746                           MP       BIT14                                 #      (A DAP GROUP FIX)           *
000219: 15,3664           10000                           CCS      A
000220: 15,3665           13670                           TCF      +3
000221: 15,3666           13670                           TCF      +2
000222: 15,3667           13670                           TCF      +1
000223: 15,3670           67763                           AD       ONE
000224: 15,3671           54061                           TS       ITEMP1
000225:
000226: 15,3672           30362                           CA       LASTXCMD                              #  SHAFT RATE DEPENDS ON TRUNNION.
000227: 15,3673           00006                           EXTEND
000228: 15,3674           73706                           MP       RRSIMG
000229: 15,3675           00006                           EXTEND
000230: 15,3676           10061                           DV       ITEMP1
000231: 15,3677           03602                           TC       CDUINC
000232: 15,3700           30070                           CA       RUPTREG1
000233: 15,3701           54132                           TS       TEM2
000234: 15,3702           30071                           CA       RUPTREG2
000235: 15,3703           54120                           TS       BUF
000236: 15,3704           13634                           TCF      RRSIM
000237:
000238: 15,3705           00035        LOPTY              ADRES    OPTY
000239: 15,3706           22755        RRSIMG             DEC      .59259
000240:                                                                                                  #  START CODING FOR MODULE 3 REMAKE, AUGUST 1967***START CODING FOR MODULE 3 REMAKE, AUGUST 1967*******************


000242:
000243: 15,3707  E7,1403                                  EBANK=   DNCDUCNT
000244:
000245: 15,3707           55403        15INSRT            TS       DNCDUCNT
000246:
000247: 15,3710           35632                           CA       EBANK6
000248: 15,3711           56003                           XCH      EBANK
000249: 15,3712           54001                           TS       L
000250:
000251: 15,3713  E6,1754                                  EBANK=   RGIMTIMR
000252:
000253: 15,3713           43723                           CS       GMBLBITS
000254: 15,3714           00006                           EXTEND
000255: 15,3715           03012                           WAND     12
000256:
000257: 15,3716           37745                           CA       NEGMAX
000258: 15,3717           55754                           TS       RGIMTIMR
000259: 15,3720           55753                           TS       QGIMTIMR
000260:
000261: 15,3721           22003                           LXCH     EBANK
000262: 15,3722           12365                           TCF      DNCDUSGO
000263:
000264: 15,3723           07400        GMBLBITS           OCT      7400
000265:
000266: 15,3724           37777        CHKSUM15           OCT      37777
000267:                                                                                                  #  **END CODING FOR MODULE 3 REMAKE, AUGUST 1967*****END CODING FOR MODULE 3 REMAKE, AUGUST 1967*******************

End of include-file RTB_OP_CODES.agc.  Parent file is MAIN.agc


