
Source Code


000002:                                                                                                  ## Copyright:    Public domain.
000003:                                                                                                  ## Filename:     SECOND_DPS_GUIDANCE.agc
000004:                                                                                                  ## Purpose:      A module for revision 0 of BURST120 (Sunburst). It
000005:                                                                                                  ##               is part of the source code for the Lunar Module's
000006:                                                                                                  ##               (LM) Apollo Guidance Computer (AGC) for Apollo 5.
000007:                                                                                                  ## Assembler:    yaYUL
000008:                                                                                                  ## Contact:      Ron Burkey <info@sandroid.org>.
000009:                                                                                                  ## Website:      www.ibiblio.org/apollo/index.html
000010:                                                                                                  ## Mod history:  2016-09-30 RSB  Created draft version.
000011:                                                                                                  ##               2016-10-26 MAS  Began.
000012:                                                                                                  ##               2016-10-27 MAS  Completed transcription.
000013:                                                                                                  ##               2016-10-31 RSB  Typos.
000014:                                                                                                  ##               2016-11-01 RSB  In three places, OCT fractional numbers (such as "OCT .6"),
000015:                                                                                                  ##                               which are not supported by yaYUL, have been replaced by
000016:                                                                                                  ##                               decimal equivalents ("DEC .75"), in lieu of modifying
000017:                                                                                                  ##                               yaYUL at this time.  Appropriate comments were also added
000018:                                                                                                  ##                               at the points in the code where this happened.
000019:                                                                                                  ##               2016-11-02 RSB  More typos.
000020:


000022:
000023:                                                                                                  #  PROGRAM NAME - SECOND DPS GUIDANCE
000024:
000025:                                                                                                  #  MOD NO. - 0
000026:
000027:                                                                                                  #  MODIFICATION BY - KLUMPP AND EYLES
000028:
000029:                                                                                                  #  FUNCTIONAL DESCRIPTION -
000030:
000031:                                                                                                  #       THERE ARE TWO MODES OF OPERATION OF THE SECOND DPS GUIDANCE PROGRAM (2DPS).  PRIOR TO THE IGNITION
000032:                                                                                                  #  SEQUENCE 2DPS IS OPERATED IN THE PRE-IGNITION MODE FOR THE PURPOSE OF PROVIDING, FOR THE IGNITION
000033:                                                                                                  #  SEQUENCE, THE TIME OF INITIATION AND THE DIRECTION OF THRUST.  IMMEDIATELY AFTER THE IGNITION SEQUENCE
000034:                                                                                                  #  IS COMPLETED, INCLUDING THE COMMAND OF MAXIMUM THRUST, 2DPS IS ENGAGED IN THE THRUSTING MODE FOR THE
000035:                                                                                                  #  PURPOSE OF PROVIDING THRUST ACCELERATION MAGNITUDE AND DIRECTION COMMANDS NECESSARY TO CONDUCT THE
000036:                                                                                                  #  SIMULATED POWERED LANDING MANEUVER.
000037:
000038:                                                                                                  #       PRIOR TO LAUNCH, ERASABLE MEMORY MUST BE LOADED WITH THE SEMI-UNIT NORMAL TO THE PLANE OF THE
000039:                                                                                                  #  REQUIRED ORBIT CPT6/2, AND DATA WHICH INDIRECTLY SPECIFICIES THE NOMINAL IGNITION TIME TIGNOM.  THESE
000040:                                                                                                  #  DATA MAY BE ADJUSTED, AS A GROUP, VIA THE UPLINK, UNTIL 200 SECONDS PRIOR TO THE TIGNOM IMPLIED BY THE
000041:                                                                                                  #  PRE-LAUNCH LOAD OR IMPLIED BY THE UPLINK DATA, WHICHEVER IS EARLIER.  A DESCRIPTION OF THE METHOD OF
000042:                                                                                                  #  UPDATING TIGNOM IS IN THE PROVINCE OF THE MISSION CONTROL PROGRAM (MCP) MISSION PHASE 11 -
000043:                                                                                                  #  DPS2/FITH/APS1.  THE TARGETING IS CONTROLLED BY THE SEMI-UNIT VECTOR CPT6/2 AS DESCRIBED IN THE 206 GSOP.
000044:
000045:                                                                                                  #       AT APPROXIMATELY 180 SECONDS PRIOR TO TIGNOM, THE MCP ENGAGES 2DPS IN THE PRE-IGNITION MODE BY
000046:                                                                                                  #  PROVIDING AN EXTRAPOLATED TIME AND STATE IN THE REGISTERS TET, RIGNTION, VIGNTION, AND TRANSFERRING
000047:                                                                                                  #  CONTROL TO LOCATION PREBURN IN 2DPS.  THIS TIME AND STATE ARE AT APPROXIMATELY 50 SECONDS PRIOR TO
000048:                                                                                                  #  TIGNOM.  (THE NAMES RIGNTION, VIGNTION, CHOSEN TO INDICATE USAGE WITH OTHER GUIDANCE PROGRAMS, ARE
000049:                                                                                                  #  MISLEADING WITH 2DPS IN THAT THE EXTRAPOLATED STATE PROVIDED IN THESE REGISTERS IS NOT THAT EXPECTED AT
000050:                                                                                                  #  IGNITION BUT RATHER AT 50 SECONDS PRIOR TO IGNITION.)  2DPS TRANSFERS THE CONTENTS OF TET TO PIPTIME
000051:                                                                                                  #  AND CALLS SUBROUTINE VPATCHER WHICH TRANSFERS THE STATE TO RN, VN AND INITIALIZES FOR CALCRVG.
000052:                                                                                                  #  USING CALCRVG AS A SUBROUTINE, AND INTERNAL SUBROUTINES IGNITN1 AND IGNITN2, 2DPS MOVES THE TIME AND
000053:                                                                                                  #  STATE FORWARD TO A TIME GREATER THAN OR EQUAL TO TULLG-6 SECONDS AND LESS THAN OR EQUAL TO TULLG-3.8 SECONDS,
000054:                                                                                                  #  LEAVING THIS CONSISTENT SET IN PIPTIME, RN, VN, WHERE TULLG IS THE PRECISE TIME FOR ULLAGE TO BE INITIATED
000055:                                                                                                  #  AND IS LEFT IN THE REGISTER OF THAT NAME.  2DPS LEAVES A SEMI-UNIT VECTOR IN THE DIRECTION IN WHICH
000056:                                                                                                  #  THRUST IS TO BE COMMANDED DURING THE IGNITION SEQUENCE IN THE REGISTER POINTVSM AND BRANCHES TO
000057:                                                                                                  #  LOCATION RETPREB IN THE MISSION CONTROL PROGRAM.
000058:
000059:                                                                                                  #       USING THE DATA LEFT BY THE PRE-IGNITION MODE OF 2DPS, THE MCP ENGAGES KALCMANU TO PROPERLY
000060:                                                                                                  #  ORIENT THE SPACECRAFT FOR THE IGNITION SEQUENCE, AND ISSUES THE WAITLIST CALLS WHICH CAUSE THE
000061:                                                                                                  #  READACCS, SERVICER, PGNCSMON LOOP TO BE ESTABLISHED (WITH 2DPS NOT IN THE LOOP) AND PRODUCE ULLAGE,
000062:                                                                                                  #  ENGINE IGNITION, AND FINALLY MAXIMUM THRUST.  IMMEDIATELY AFTER MAXIMUM THRUST IS COMMANDED, THE MCP
000063:                                                                                                  #  PLACES THE 2BCADR OF BURN (EBANK= E2DPS) IN THE AVGEXIT WHICH CAUSES 2DPS TO BE ADDED TO THE READACCS,
000064:                                                                                                  #  SERVICER, PGNCSMON LOOP IMMEDIATELY FOLLOWING CALCRVG.
000065:
000066:                                                                                                  #       WHEN CONTROL IS GIVEN TO 2DPS WITH THE 2BCADR OF BURN IN AVGEXIT, 2DPS OPERATES IN THE THRUSTING
000067:                                                                                                  #  MODE.  IT GENERATES THE SEQUENCING REQUIRED TO CONDUCT THE SIMULATED POWERED LANDING MANEUVER AND ISSUES
000068:                                                                                                  #  THE THRUST ACCELERATION MAGNITUDE AND DIRECTION COMMANDS.
000069:
000070:                                                                                                  #       2DPS GENERATES THE SEQUENCING BY INCREMENTING THE HIGH ORDER PART OF AVGEXIT, BY AN APPROPRIATE
000071:                                                                                                  #  INTEGER, TO ACCOMPLISH EACH CHANGE OF 2DPS PHASE.  THE INCREMENTING OF AVGEXIT CAUSES, ON THE SUBSEQUENT


000073:                                                                                                  #  PASS THROUGH 2DPS, CONTROL TO BEGIN AT A NEW POINT IN THE SECOND DPS FLITE SEQUENCE TABLE, AND
000074:                                                                                                  #  CONSEQUENTLY THE CORRESPONDING 2DPS MODING TO BE ESTABLISHED.
000075:
000076:                                                                                                  #       2DPS GENERATES THE THRUST ACCELERATION MAGNITUDE AND DIRECTION COMMANDS ON THE BASIS OF THE
000077:                                                                                                  #  CONTENTS OF PIPTIME, RN, VN, AT THE BEGINNING OF THE PASS.  TO ISSUE THE THRUST ACCELERATION DIRECTION
000078:                                                                                                  #  COMMAND, 2DPS PLACES A SEMI-UNIT VECTOR IN THE REQUIRED DIRECTION IN THE REGISTER AXISD AND CALLS
000079:                                                                                                  #  FINDCDUD AS A SUBROUTINE.  TO ISSUE THE MAGNITUDE COMMAND, 2DPS PLACES THE REQUIRED MAGNITUDE IN THE
000080:                                                                                                  #  REGISTER /ACF/ AND CALLS THROTCON AS A SUBROUTINE.
000081:
000082:                                                                                                  #       BEFORE BUT NOT INCLUDING THE LAST PASS, 2DPS TERMINATES THE JOB PERIODICALLY STARTED BY READACCS
000083:                                                                                                  #  BY BRANCHING TO ENDOFJOB.
000084:
000085:                                                                                                  #       ON THE LAST PASS 2DPS PLACES THE SEMI-UNIT VECTOR ALONG THE NORMAL TO THE DESIRED ORBITAL PLANE,
000086:                                                                                                  #  CPT6/2, IN THE REGISTER AXISD, CALLS FINDCDUD, AND BRANCHES TO LOCATION RETBURN IN THE MCP.  THE MCP
000087:                                                                                                  #  REMOVES 2DPS FROM THE READACCS, SERVICER, PGNCSMON LOOP AND ISSUES THE WAITLIST CALLS WHICH PRODUCE THE
000088:                                                                                                  #  RANDOM THROTTLING.  THE MCP DOES NOT CHANGE THE CONTENTS OF AXISD SUPPLIED BY 2DPS.  CONSEQUENTLY THE
000089:                                                                                                  #  THRUST ACCELERATION DURING RANDOM THROTTLING IS NORMAL TO THE ORBITAL PLANE.
000090:


000092:                                                                                                  #  INTERFACE SPECIFICATIONS -
000093:                                                                                                  #  SPECIFICATION           PRE-IGNITION MODE          THRUSTING MODE
000094:
000095:                                                                                                  #  CALLING SEQUENCE -      DTCB TO PREBURN            DTCB TO BURN
000096:                                                                                                  #                          (EBANK= E2DPS)             (EBANK= E2DPS)
000097:
000098:                                                                                                  #  NORMAL EXITS -          DTCB TO LOCATION           PRIOR TO LAST PASS -
000099:                                                                                                  #                          RETPREB (EBANK=            TC TO ENDOFJOB
000100:                                                                                                  #                          EMP11JOB) IN MISSION
000101:                                                                                                  #                          CONTROL PROGRAM.           LAST PASS -
000102:                                                                                                  #                                                     DTCB TO LOCATION
000103:                                                                                                  #                                                     RETBURN (EBANK=
000104:                                                                                                  #                                                     EMP11JOB) IN MISSION
000105:                                                                                                  #                                                     CONTROL PROGRAM
000106:
000107:                                                                                                  #  ABORT EXITS -           NONE                       NONE
000108:
000109:                                                                                                  #  ALARMS -                ON OVERFLOW PRIOR TO OR    SAME
000110:                                                                                                  #                          DURING COMPUTATION OF
000111:                                                                                                  #                          ACS OR AFCS,               IN ADDITION, IF OVERFLOW
000112:                                                                                                  #                          SET ALARM 00410            OCCURS AFTER COMPUTATION
000113:                                                                                                  #                          AND RETAIN THE VARIABLES   OF THE AFOREMENTIONED
000114:                                                                                                  #                          COMPUTED ON THE PREVIOUS   VARIABLES,
000115:                                                                                                  #                          PASS.                      SET ALARM 00412
000116:                                                                                                  #                                                     AND SKIP ISSUANCE OF
000117:                                                                                                  #                          ON OVERFLOW DURING         ATTITUDE AND THROTTLE
000118:                                                                                                  #                          COMPUTATION OF AFCS ,      COMMANDS.
000119:                                                                                                  #                                             1
000120:                                                                                                  #                          (YIELDS POSMAX),
000121:                                                                                                  #                          RETAIN POSMAX AND
000122:                                                                                                  #                          SET ALARM 00411.
000123:
000124:                                                                                                  #  ERAS INITIALIZATION -   CPT6/2 (IMU COORDS)        2BCADR OF BURN
000125:                                                                                                  #                          OTHER INITIALIZATION       (EBANK= E2DPS) MUST
000126:                                                                                                  #                          DONE INTERNALLY            BE IN AVGEXIT.  OTHER
000127:                                                                                                  #                                                     INITIALIZATION DONE IN
000128:                                                                                                  #                                                     PRE-IGNITION MODE.
000129:
000130:                                                                                                  #  INPUTS -                TET                        PIPTIME
000131:                                                                                                  #                          RIGNTION                   RN
000132:                                                                                                  #                          VIGNTION                   VN
000133:
000134:                                                                                                  #  OUTPUTS -               PIPTIME                    AXISD
000135:                                                                                                  #                          RN                         /ACF/
000136:                                                                                                  #                          VN
000137:                                                                                                  #                          TULLG
000138:                                                                                                  #                          POINTVSM
000139:
000140:                                                                                                  #  ERASABLES -             AMEMORY THROUGH            SAME


000142:                                                                                                  #                          AMEMORY +215 OCT
000143:                                                                                                  #                          PLUS CPT6/2 IN
000144:                                                                                                  #                          NON SHARABLE E4LOAD
000145:
000146:                                                                                                  #  SUBROUTINES CALLED -    ROOTPSRS                   ROOTPSRS
000147:                                                                                                  #                          VPATCHER                   FINDCDUD
000148:                                                                                                  #                          CALCRVG                    THROTCON
000149:


000151: 22,2000                                           BANK     22
000152: 22,2000  E4,1400                                  EBANK=   E2DPS
000153:                                                                                                  #  ************************************************************************
000154:                                                                                                  #  INITIALIZATION OF SECOND DPS GUIDANCE - PREBURN
000155:                                                                                                  #  ************************************************************************
000156:
000157: 22,2000  22,2000               PREBURN            =        INIT2DPS
000158: 22,2000           03531        INIT2DPS           TC       PRETINIT                              #  INITIALIZES INTERPRETER
000159:
000160:                                                                                                  #  CLEAR ORBITAL INTEGRATION VARIABLES FROM REGISTERS IN COMMON WITH 2DPS
000161:
000162: 22,2001           06112                           TC       INTPRET
000163: 22,2002           77745                           DLOAD
000164: 22,2003           02047                                    TET                                   #  EXTRAPOLATED TIME FROM ORBITAL INTEGRATN
000165: 22,2004           35307                           STCALL   PIPTIME                               #  TIME REGISTER OF PIPASR
000166: 22,2005           60436                                    VPATCHER                              #  TRANSFERS RIGNTION, VIGNTION TO RN, VN,
000167: 22,2006           77776                           EXIT                                           #  AND DUPLICATES FUNCTIONS OF NORMLIZE
000168: 22,2007           04161                           TC       PHASCHNG                              #  PRE-IGNITION MODE: START 2DPS PROTECTN,
000169: 22,2010           05022                 +502      OCT      05022                                 #  ESTABLISHING PRIORITY.
000170: 22,2011           20000                           OCT      20000                                 #  PREVENT REREADING ORBITAL INTEGRATION
000171:                                                                                                  #  VARIABLES AFTER WRITING OVER THEM.
000172:
000173:                                                                                                  #  COMMON REGISTERS ARE CLEARED
000174:
000175: 22,2012           06112                           TC       INTPRET
000176: 22,2013           77745                           DLOAD
000177: 22,2014           05707                                    IGNALGL
000178: 22,2015           25073                           STOVL    AVGEXIT                               #  SET UP RETURN ADDRESS IN AVGEXIT
000179: 22,2016           05722                                    ZEROPOS
000180: 22,2017           02211                           STORE    GDOTM1                                #  DERIVATIVE OF G FOR USE BY IGNITN1
000181: 22,2020           16167                           STODL    UNAFC/2
000182: 22,2021           05722                                    ZEROPOS
000183: 22,2022           02055                           STORE    TTF/4TMP                              #  ZERO AS IF COMING FROM PREVIOUS PHASE
000184: 22,2023           77776                           EXIT
000185: 22,2024           33721                           CA       ZEROPOS
000186: 22,2025           55402                           TS       FLPASS0                               #  SHOWS THIS IS INITIAL PASS THIS PHASE
000187: 22,2026           03343                           TC       XTRTPIP                               #  SETS TPIP EXTRAPOLATED
000188: 22,2027           37743                           CA       POSMAX
000189: 22,2030           55562                           TS       /AFC/                                 #  FORCES INITIALIZATION OF COUNTFC
000190: 22,2031           55563                           TS       /AFC/      +1                         #  ONLY REASON: TO ASSURE GOOD PARITY
000191: 22,2032           55404                           TS       COUNTFCT                              #  ONLY REASON: TO ASSURE GOOD PARITY
000192: 22,2033           01072                           TC       AVGEXIT                               #  RETURNS TO APPROPRIATE LOCATION IN 2DPS
000193:


000195:                                                                                                  #  ************************************************************************
000196:                                                                                                  #  SECOND DPS FLITE SEQUENCE TABLE
000197:                                                                                                  #  ************************************************************************
000198:
000199:                                                                                                  #  INDIRECT ADDRESSES
000200:
000201: 22,2034  22,2043               BURN               =        QUAD0X
000202: 22,2034                        BRTTFNU            =        1
000203: 22,2034                        PARL               =        2
000204: 22,2034                        TBRL               =        3
000205: 22,2034                        MOD2DPS            =        4
000206: 22,2034                        TTF/4CR            =        5
000207: 22,2034                        BRXEND             =        6
000208:
000209: 22,2034           12234        IGNALG             TCF      TTFINCR
000210: 22,2035           12216                           TCF      ADTTFNU                               #  AS IF COMING FROM PREVIOUS PHASE
000211: 22,2036           00000                           OCT      00000
000212: 22,2037           02124                           ADRES    TBRIGAL
000213: 22,2040           00032                           OCT      00032
000214: 22,2041           77664                           DEC      -1.5       E2         B-15            #  -1.5 SECONDS, TTF UNITS, COMPARES TTF/4
000215: 22,2042           12741                           TCF      EXIGEND
000216:
000217: 22,2043           12234        QUAD0X             TCF      TTFINCR
000218: 22,2044           12233                           TCF      RETTTFNU                              #  AS IF CONTINUING PREBURN PHASE
000219: 22,2045           00000                           OCT      00000
000220: 22,2046           02130                           ADRES    TBRQUAD
000221: 22,2047           00042                           OCT      00042
000222: 22,2050           73465                           DEC      -045       E2         B-15            #  -045 SECONDS, TTF UNITS, COMPARES TTF/4
000223: 22,2051           13017                           TCF      EXQDLIN
000224:
000225: 22,2052           12234        QUAD0F             TCF      TTFINCR
000226: 22,2053           12216                           TCF      ADTTFNU
000227: 22,2054           00027                           OCT      00027
000228: 22,2055           02130                           ADRES    TBRQUAD
000229: 22,2056           00042                           OCT      00042
000230: 22,2057           77551                           DEC      -3.0       E2         B-15            #  -3.0 SECONDS, TTF UNITS, COMPARES TTF/4
000231: 22,2060           13017                           TCF      EXQDLIN
000232:
000233: 22,2061           13271        LING0F             TCF      LSETEVN
000234: 22,2062           12233                           TCF      RETTTFNU
000235: 22,2063           00027                           OCT      00027
000236: 22,2064           02134                           ADRES    TBRLING
000237: 22,2065           00042                           OCT      00042
000238: 22,2066           77746                           DEC      -.50       E2         B-15            #  -.50 SECONDS, TTF UNITS, COMPARES TTF/4
000239: 22,2067           13017                           TCF      EXQDLIN
000240:


000242: 22,2070           13312        LING1F             TCF      LSETODD
000243: 22,2071           12216                           TCF      ADTTFNU
000244: 22,2072           00056                           OCT      00056
000245: 22,2073           02134                           ADRES    TBRLING
000246: 22,2074           00042                           OCT      00042
000247: 22,2075           77746                           DEC      -.50       E2         B-15            #  -.50 SECONDS, TTF UNITS, COMPARES TTF/4
000248: 22,2076           13017                           TCF      EXQDLIN
000249:
000250: 22,2077           12234        QUAD2F             TCF      TTFINCR
000251: 22,2100           12216                           TCF      ADTTFNU
000252: 22,2101           00065                           OCT      00065
000253: 22,2102           02130                           ADRES    TBRQUAD
000254: 22,2103           00043                           OCT      00043
000255: 22,2104           77551                           DEC      -3.0       E2         B-15            #  -3.0 SECONDS, TTF UNITS, COMPARES TTF/4
000256: 22,2105           13017                           TCF      EXQDLIN
000257:
000258: 22,2106           13271        LING2F             TCF      LSETEVN
000259: 22,2107           12233                           TCF      RETTTFNU
000260: 22,2110           00065                           OCT      00065
000261: 22,2111           02134                           ADRES    TBRLING
000262: 22,2112           00043                           OCT      00043
000263: 22,2113           77746                           DEC      -.50       E2         B-15            #  -.50 SECONDS, TTF UNITS, COMPARES TTF/4
000264: 22,2114           13017                           TCF      EXQDLIN
000265:
000266: 22,2115           13312        LING3F             TCF      LSETODD
000267: 22,2116           12216                           TCF      ADTTFNU
000268: 22,2117           00114                           OCT      00114
000269: 22,2120           02134                           ADRES    TBRLING
000270: 22,2121           00043                           OCT      00043


000274: 22,2122           77763                           OCT      77763                                 #  -.25 SECONDS, TTF UNITS, COMPARES TTF/4
000275: 22,2123           13043                           TCF      EXFINAL
000276:


000278:                                                                                                  #  ************************************************************************
000279:                                                                                                  #  SECOND DPS ROAD MAPS (BRANCH TABLES)
000280:                                                                                                  #  ************************************************************************
000281:
000282:                                                                                                  #  INDIRECT ADDRESSES
000283:
000284: 22,2124                        BRIGN1             =        0
000285: 22,2124                        BRLING             =        1
000286: 22,2124                        BRIGN2             =        2
000287: 22,2124                        BRXMID             =        3
000288:
000289: 22,2124           13077        TBRIGAL            TCF      IGNITN1
000290: 22,2125           12442                           TCF      TTF/4CL
000291: 22,2126           13172                           TCF      IGNITN2
000292: 22,2127           12702                           TCF      EXIGMID
000293:
000294: 22,2130           12210        TBRQUAD            TCF      RETIGN1
000295: 22,2131           12442                           TCF      TTF/4CL
000296: 22,2132           12615                           TCF      RETIGN2
000297: 22,2133           13017                           TCF      EXQDLIN
000298:
000299: 22,2134           12210        TBRLING            TCF      RETIGN1
000300: 22,2135           13326                           TCF      LINGUID
000301: 22,2136           12615                           TCF      RETIGN2
000302: 22,2137           13017                           TCF      EXQDLIN
000303:


000305:                                                                                                  #  ************************************************************************
000306:                                                                                                  #  INITIALIZATION FOR EACH PASS
000307:                                                                                                  #  ************************************************************************
000308:
000309:                                                                                                  #  NTLZPASS SETS INDICES, FILLS TPIPOLD, TPIP, R, V EVERY PASS; BRANCHES TO IGNITN1, ADTTFNU WHEN APPROPRIATE.
000310:
000311: 22,2140           00006        NTLZPASS           EXTEND
000312: 22,2141           23406                           QXCH     RETNTLZ                               #  SAVE RETURN ADDRESS
000313:
000314: 22,2142           41072                           CS       AVGEXIT
000315: 22,2143           63706                           AD       IGNALGL
000316: 22,2144           00006                           EXTEND
000317: 22,2145           12152                           BZF      NTLZPSS1                              #  BRANCH IF AND ONLY IF PRE-IGNITION MODE
000318:
000319: 22,2146           04141                           TC       2PHSCHNG                              #  THRUSTING MODE, FIRST PHASCHNG IN 2DPS:
000320: 22,2147           00035                           OCT      00035                                 #  IN GROUP 5, RETAIN ONLY PIPA TASK.
000321: 22,2150           05022                 +502      OCT      05022                                 #  IN GROUP 2 START 2DPS PROTECTION
000322: 22,2151           20000                           OCT      20000                                 #  WITH PRIORITY 20.
000323:
000324: 22,2152           03531        NTLZPSS1           TC       PRETINIT                              #  INITIALIZES INTERPRETER
000325:
000326:                                                                                                  #  SET MODE
000327:
000328: 22,2153           51072                           INDEX    AVGEXIT
000329: 22,2154           30004                           CA       MOD2DPS
000330: 22,2155           04122                           TC       NEWMODEA
000331:
000332:                                                                                                  #  SET INDICES
000333:
000334: 22,2156           00006                           EXTEND
000335: 22,2157           51072                           INDEX    AVGEXIT
000336: 22,2160           30003                           DCA      PARL
000337: 22,2161           53401                           DXCH     NDX2DPS
000338: 22,2162           00006                           EXTEND
000339: 22,2163           41401                           DCS      NDX2DPS
000340: 22,2164           50110                           INDEX    FIXLOC
000341: 22,2165           52047                           DXCH     X1                                    #  LOADS BOTH INTRP NDX REGS, NEEDED OR NOT
000342:
000343:                                                                                                  #  FILL TPIPOLD AND TPIP
000344:
000345: 22,2166           00006                           EXTEND
000346: 22,2167           31447                           DCA      TPIP
000347: 22,2170           53451                           DXCH     TPIPOLD
000348: 22,2171           04161                           TC       PHASCHNG                              #  PROTECT TPIPOLD AND
000349: 22,2172           04022                 +402      OCT      04022                                 #  PREVENT RETURNING TO PREVIOUS PROGRAM
000350: 22,2173           00006                           EXTEND
000351: 22,2174           31307                           DCA      PIPTIME
000352: 22,2175           53447                           DXCH     TPIP
000353:
000354:                                                                                                  #  FILL R AND V
000355:


000357: 22,2176           06112                           TC       INTPRET
000358: 22,2177           77775                           VLOAD
000359: 22,2200           01011                                    RN
000360: 22,2201           26061                           STOVL    R                                     #  RN TO R WITHOUT RESCALING
000361: 22,2202           01017                                    VN
000362: 22,2203           77742                           VSR2
000363: 22,2204           02067                           STORE    V                                     #  VN TO V WITH SCALING ADJUSTMENT
000364: 22,2205           77776                           EXIT
000365:
000366:                                                                                                  #  IGNITN1 AND ADTTFNU BRANCH DECISIONS
000367:
000368: 22,2206           51401                           INDEX    NDXBR
000369: 22,2207           10000                           TCF      BRIGN1                                #  TO IGNITN1 WHEN APPROPRIATE
000370:
000371: 22,2210           04161        RETIGN1            TC       PHASCHNG                              #  RETURN HERE WHETHER OR NOT DO IGNITN1.
000372: 22,2211           04022                 +402      OCT      04022                                 #  PROTECT TTF/4TMP AS USED BY IGNITN1 FROM
000373:                                                                                                  #  WIPEOUT BY ADTTFNU AND TTFINCR. ALSO
000374:                                                                                                  #  PROTECT RTEMP, VTEMP, GDOTM1T FROM
000375:                                                                                                  #  RS, VS, ASPRT, (TIME SHARED)
000376:
000377: 22,2212           11402                           CCS      FLPASS0
000378: 22,2213           12235                           TCF      TTFINCR    +1                         #  ON OTHER THAN FIRST PASS IN ANY PHASE.
000379: 22,2214           51072                           INDEX    AVGEXIT
000380: 22,2215           10001                           TCF      BRTTFNU                               #  TO ADTTFNU WHEN APPROPRIATE
000381:
000382:                                                                                                  #  ADD TTF/4NU TO TTF/4 FROM LAST PASS
000383:
000384: 22,2216           00006        ADTTFNU            EXTEND
000385: 22,2217           31453                           DCA      TTF/4
000386: 22,2220           53455                           DXCH     TTF/4TMP
000387: 22,2221           51400                           INDEX    NDX2DPS
000388: 22,2222           33562                           CA       TTF/4NU
000389: 22,2223           27454                           ADS      TTF/4TMP
000390: 22,2224           04161                           TC       PHASCHNG                              #  PROTECT TTF/4
000391: 22,2225           04022                 +402      OCT      04022
000392: 22,2226           00006                           EXTEND
000393: 22,2227           31455                           DCA      TTF/4TMP
000394: 22,2230           53453                           DXCH     TTF/4                                 #  RENEWED TTF/4
000395:
000396: 22,2231           04161                           TC       PHASCHNG                              #  PROTECT TTF/4TMP FROM WIPEOUT BY TTFINCR
000397: 22,2232           04022                 +402      OCT      04022
000398: 22,2233           01406        RETTTFNU           TC       RETNTLZ
000399:
000400:
000401:
000402:
000403:                                                                                                  #  ************************************************************************
000404:                                                                                                  #  INCREMENT TTF/4
000405:                                                                                                  #  ************************************************************************
000406:
000407: 22,2234           02140        TTFINCR            TC       NTLZPASS


000409: 22,2235           00006                 +1        EXTEND
000410: 22,2236           41451                           DCS      TPIPOLD
000411: 22,2237           52145                           DXCH     MPAC
000412: 22,2240           00006                           EXTEND
000413: 22,2241           31447                           DCA      TPIP
000414: 22,2242           20145                           DAS      MPAC
000415: 22,2243           37750                           CA       TSCALE
000416: 22,2244           07375                           TC       DMPNSUB                               #  (TPIP-TPIPOLD)/4 TO MPAC, TTF UNITS
000417:
000418: 22,2245           00006                           EXTEND
000419: 22,2246           31453                           DCA      TTF/4
000420: 22,2247           20145                           DAS      MPAC                                  #  YIELDS INCREMENTED TTF/4 IN MPAC
000421: 22,2250           52145                           DXCH     MPAC
000422: 22,2251           53455                           DXCH     TTF/4TMP
000423: 22,2252           04161                           TC       PHASCHNG                              #  PROTECT TTF/4
000424: 22,2253           04022                 +402      OCT      04022
000425: 22,2254           00006                           EXTEND
000426: 22,2255           31455                           DCA      TTF/4TMP
000427: 22,2256           53453                           DXCH     TTF/4                                 #  INCREMENTED TTF/4
000428:
000429:
000430:
000431:                                                                                                  #  ************************************************************************
000432:                                                                                                  #  SET UP STATE IN LOCAL, PLANE, SPHERICAL COORDINATES
000433:                                                                                                  #  ************************************************************************
000434:
000435: 22,2257           37743        STUP2DPS           CA       POSMAX
000436: 22,2260           55524                           TS       CRS2                                  #  SET CRS2 TO MAXIMUM. RESET LATER ONLY IF
000437: 22,2261           55525                           TS       CRS2       +1                         #  RC/RS0 DOES NOT PRODUCE OVERFLOW
000438:
000439: 22,2262           06112                           TC       INTPRET
000440: 22,2263           53575                           VLOAD    UNIT
000441: 22,2264           02061                                    R
000442: 22,2265           26012                           STOVL    CLT/2                                 #  DEFINITION OF MATRIX CLT/2
000443: 22,2266           02357                                    CPT6/2
000444: 22,2267           53435                           VXV      UNIT
000445: 22,2270           02012                                    CLT/2
000446: 22,2271           26020                           STOVL    CLT/2      +6
000447: 22,2272           02012                                    CLT/2
000448: 22,2273           76435                           VXV      VSL1
000449: 22,2274           02020                                    CLT/2      +6
000450: 22,2275           26026                           STOVL    CLT/2      +14
000451: 22,2276           02067                                    V
000452: 22,2277           76521                           MXV      VSL1
000453: 22,2300           02012                                    CLT/2                                 #  -      *     -
000454: 22,2301           26075                           STOVL    VL                                    #  VL = 2 CLT/2 V
000455: 22,2302           02061                                    R
000456: 22,2303           72441                           DOT      SL1
000457: 22,2304           02357                                    CPT6/2                                #        - -
000458: 22,2305           02103                           STORE    RP2                                   #  RP2 = R.CPT6
000459:


000461: 22,2306           63316                           DSQ      PDVL                                  #  PUSH DOWN RP2 SQUARED
000462: 22,2307           02061                                    R
000463: 22,2310           50235                           VXV      DOT
000464: 22,2311           02067                                    V
000465: 22,2312           02357                                    CPT6/2
000466: 22,2313           77752                           SL1                                            #           - - -
000467: 22,2314           26105                           STOVL    MAP2                                  #  MAP2 = 2 R*V.CPT6/2
000468: 22,2315           02061                                    R
000469: 22,2316           77646                           ABVAL                                          #              -
000470: 22,2317           02111                           STORE    RS                                    #  RS0 = ABVAL(R)
000471: 22,2320           45316                           DSQ      DSU                                   #  PUSHING UP RP2 SQUARED
000472: 22,2321           77766                           SQRT                                           #               2    2
000473: 22,2322           02107                           STORE    RC                                    #  RC = SQRT(RS0 -RP2 )
000474: 22,2323           51025                           DSU      BPL                                   #  BRANCH IF RC/RS0 WOULD OVERFLOW
000475: 22,2324           02111                                    RS
000476: 22,2325           44332                                    SRS2COMP
000477: 22,2326           56345                           DLOAD    DDV
000478: 22,2327           02107                                    RC
000479: 22,2330           02111                                    RS
000480: 22,2331           02125                           STORE    CRS2                                  #  COSINE(RS2) = RC/RS0
000481: 22,2332           56345        SRS2COMP           DLOAD    DDV
000482: 22,2333           02103                                    RP2
000483: 22,2334           02111                                    RS
000484: 22,2335           02127                           STORE    SRS2                                  #  SINE(RS2) = RP2/RS0
000485: 22,2336           67562                           SR1R     ARCSIN
000486: 22,2337           52405                           DMP      SL3
000487: 22,2340           05740                                    PI/4
000488: 22,2341           16115                           STODL    RS         +4                         #  RS2 = ARCSIN(RP2/RS0)
000489: 22,2342           02103                                    RP2
000490: 22,2343           77671                           DDV
000491: 22,2344           02107                                    RC
000492: 22,2345           16131                           STODL    TRS2                                  #  TANGENT (RS2) = RP2/RC
000493: 22,2346           02101                                    VL         +4
000494: 22,2347           65271                           DDV      PDDL                                  #  THIS PUSH DOWN IS FOR 3RD COMP OF VS.
000495: 22,2350           02111                                    RS
000496: 22,2351           02077                                    VL         +2
000497: 22,2352           65271                           DDV      PDDL                                  #  THIS PUSH DOWN IS FOR 2ND COMP OF VS.
000498: 22,2353           02107                                    RC
000499: 22,2354           02075                                    VL
000500: 22,2355           77666                           VDEF                                           #  DEFINITION OF SPHERICAL VELOCITY VECTOR
000501: 22,2356           16117                           STODL    VS
000502: 22,2357           02121                                    VS         +2
000503: 22,2360           77716                           DSQ
000504: 22,2361           41205                           DMP      DMP
000505: 22,2362           02127                                    SRS2
000506: 22,2363           02125                                    CRS2
000507: 22,2364           41325                           PDDL     DMP
000508: 22,2365           02123                                    VS         +4
000509: 22,2366           02117                                    VS
000510: 22,2367           72471                           DDV      SL1


000512: 22,2370           02111                                    RS
000513: 22,2371           57415                           DAD      DCOMP
000514: 22,2372           41325                           PDDL     DMP                                   #  THIS PUSH DOWN IS FOR 3RD COMP OF ASPRT.
000515: 22,2373           02121                                    VS         +2
000516: 22,2374           02117                                    VS
000517: 22,2375           77671                           DDV
000518: 22,2376           02111                                    RS
000519: 22,2377           41325                           PDDL     DMP
000520: 22,2400           02131                                    TRS2
000521: 22,2401           02123                                    VS         +4
000522: 22,2402           77605                           DMP
000523: 22,2403           02121                                    VS         +2
000524: 22,2404           72425                           DSU      SL1
000525:
000526: 22,2405           77634                           RTB                                            #  PREVENT OVERFLOW IN LINSET WHEN
000527: 22,2406           33520                                    SGNAGREE                              #  AFCS +2 =-POSMAX SGN( ASPRT +2)
000528:
000529: 22,2407           63525                           PDDL     DSQ                                   #  THIS PUSH DOWN IS FOR 2ND COMP OF ASPRT.
000530: 22,2410           02111                                    RS
000531: 22,2411           77665                           BDDV
000532: 22,2412           21203                                    MUEARTH
000533: 22,2413           63525                           PDDL     DSQ
000534: 22,2414           02123                                    VS         +4
000535: 22,2415           77605                           DMP                                            #                     -
000536: 22,2416           02111                                    RS                                    #        THIS MONSTER ASPRT REPRESENTS
000537: 22,2417           63525                           PDDL     DSQ                                   #        INCIDENTAL ACCELERATIONS; DUE
000538: 22,2420           02125                                    CRS2                                  #        TO GRAVITY, CORIOLIS FORCES,
000539: 22,2421           63525                           PDDL     DSQ                                   #        AND SO FORTH.
000540: 22,2422           02121                                    VS         +2
000541: 22,2423           41205                           DMP      DMP
000542: 22,2424           02111                                    RS
000543: 22,2425           45215                           DAD      DSU
000544: 22,2426           77666                           VDEF                                           #  DEFINITION OF ASPRT
000545: 22,2427           02133                           STORE    ASPRT
000546: 22,2430           77776                           EXIT
000547: 22,2431           37767                           CA       ZERO                                  #        SECOND COMPONENTS
000548: 22,2432           55512                           TS       RS         +2                         #        OF RS AND VS ARE
000549: 22,2433           55513                           TS       RS         +3                         #        ZEROED HERE TO PREVENT
000550: 22,2434           55520                           TS       VS         +2                         #        OVERFLOW TROBULE IN
000551: 22,2435           55521                           TS       VS         +3                         #        THE ACS EQUATION.
000552: 22,2436           04161                           TC       PHASCHNG                              #  TIME ONLY?
000553: 22,2437           04022                 +402      OCT      04022
000554: 22,2440           51401                           INDEX    NDXBR
000555: 22,2441           10001                           TCF      BRLING                                #  POSSIBLE BRANCH TO LINEAR GUIDANCE
000556:


000558:                                                                                                  #  ************************************************************************
000559:                                                                                                  #  TTF/4 COMPUTATION
000560:                                                                                                  #  ************************************************************************
000561:
000562: 22,2442           00006        TTF/4CL            EXTEND
000563: 22,2443           51400                           INDEX    NDX2DPS
000564: 22,2444           33606                           DCA      JDS2
000565: 22,2445           53442                           DXCH     TABLTTF    +6                         #  A(3) = JDS2 TO TABLTTF
000566: 22,2446           00006                           EXTEND
000567: 22,2447           51400                           INDEX    NDX2DPS
000568: 22,2450           33570                           DCA      ADS        +4
000569: 22,2451           20001                           DDOUBL
000570: 22,2452           52145                           DXCH     MPAC
000571: 22,2453           33736                           CA       SP3/4
000572: 22,2454           07357                           TC       SHORTMP                               #  LEAVING  A(2) IN MPAC
000573: 22,2455           52145                           DXCH     MPAC
000574: 22,2456           53440                           DXCH     TABLTTF    +4                         #  A(2) = (6 ADS2)/4 TO TABLTTF
000575: 22,2457           37754                           CA       BIT8
000576: 22,2460           55443                           TS       TABLTTF    +10                        #  FRACTIONAL PRECISION FOR TTF TO TABLE
000577: 22,2461           00006                           EXTEND
000578: 22,2462           31523                           DCA      VS         +4
000579: 22,2463           52145                           DXCH     MPAC
000580: 22,2464           33732                           CA       SP3/8
000581: 22,2465           07357                           TC       SHORTMP                               #  YIELDS 6/16 VS2 IN MPAC
000582: 22,2466           00006                           EXTEND
000583: 22,2467           51400                           INDEX    NDX2DPS
000584: 22,2470           33604                           DCA      VDS        +4
000585: 22,2471           20001                           DDOUBL
000586: 22,2472           52145                           DXCH     MPAC
000587: 22,2473           53436                           DXCH     TABLTTF    +2                         #  STORE 6/16 VS2 IN TABLTTF
000588: 22,2474           33733                           CA       SP9/16
000589: 22,2475           07357                           TC       SHORTMP                               #  YIELDS 18/16 VDS2 IN MPAC
000590: 22,2476           00006                           EXTEND
000591: 22,2477           41515                           DCS      RS         +4
000592: 22,2500           52145                           DXCH     MPAC                                  #  -RS2 TO MPAC, FETCHING 18/16 VDS2
000593: 22,2501           21436                           DAS      TABLTTF    +2                         #  A(1) = (6 VS2+18 VDS2)/16
000594:
000595: 22,2502           00006                           EXTEND
000596: 22,2503           51400                           INDEX    NDX2DPS
000597: 22,2504           33576                           DCA      RDS        +4
000598: 22,2505           20145                           DAS      MPAC                                  #  YIELDS -RS2+RDS2 IN MPAC
000599: 22,2506           33732                           CA       SP3/8
000600: 22,2507           07357                           TC       SHORTMP
000601: 22,2510           00006                           EXTEND
000602: 22,2511           30145                           DCA      MPAC
000603: 22,2512           53434                           DXCH     TABLTTF                               #  A(0)  =-24(RS2-RDS2)/64
000604:
000605: 22,2513           00006                           EXTEND
000606: 22,2514           31453                           DCA      TTF/4
000607: 22,2515           52145                           DXCH     MPAC                                  #  LOADS TTF/4 (INITIAL GUESS) INTO MPAC


000609: 22,2516           00006                           EXTEND
000610: 22,2517           33711                           DCA      TABLTTFL                              #  LOADS A,L WITH TABLTTFL,2
000611: 22,2520           03352                           TC       ROOTPSRS                              #  YIELDS TTF/4 IN MPAC
000612: 22,2521           00006                           EXTEND
000613: 22,2522           30145                           DCA      MPAC                                  #  FETCH TTF/4 KEEPING IT IN MPAC
000614: 22,2523           53453                           DXCH     TTF/4                                 #  CORRECTED TTF/4
000615:
000616: 22,2524           04161                           TC       PHASCHNG                              #  TIME ONLY?
000617: 22,2525           04022                 +402      OCT      04022
000618:
000619:
000620:
000621:                                                                                                  #  ************************************************************************
000622:                                                                                                  #  QUADRATIC GUIDANCE - SPHERICAL ACCELERATION AS QUADRATIC TIME FUNCTION
000623:                                                                                                  #  ************************************************************************
000624:
000625:                                                                                                  #   -
000626:                                                                                                  #   ACS EQUATION IS PROGRAMMED LIKE THIS:
000627:                                                                                                  #                         -  -
000628:                                                                                                  #           -  -      1/2(RS-RDS)
000629:                                                                                                  #          (VS+VDS) - -----------
000630:                                                                                                  #    -                   TTF/4      -
000631:                                                                                                  #    ACS = ---------------------- + ADS
000632:                                                                                                  #                2/3(TTF/4)
000633:
000634: 22,2526           06112                           TC       INTPRET
000635: 22,2527           41345                           DLOAD    DMP
000636: 22,2530           02053                                    TTF/4
000637: 22,2531           05735                                    2DPS2/3
000638: 22,2532           51715                           PDVL     VSU*
000639: 22,2533           02111                                    RS
000640: 22,2534           05572                                    RDS,1
000641: 22,2535           70362                           VSR1     V/SC
000642: 22,2536           02053                                    TTF/4
000643: 22,2537           52715                           PDVL     VAD*
000644: 22,2540           02117                                    VS
000645: 22,2541           05600                                    VDS,1
000646: 22,2542           70251                           VSU      V/SC
000647: 22,2543           41053                           VAD*     BOVB                                  #  BRANCH, SET ALARM, RETAIN GOOD ACS
000648: 22,2544           05564                                    ADS,1
000649: 22,2545           45061                                    OVF2DPS1
000650:
000651: 22,2546           52206                           PUSH     VSU                                   #  PUSH ACS UNTIL SEEN IF AFCS OVERFLOWS
000652: 22,2547           02133                                    ASPRT
000653: 22,2550           77600                           BOV
000654: 22,2551           45057                                    OVF2DPS2
000655:                                                                                                  #  -      -   -
000656: 22,2552           26147                           STOVL    AFCS                                  #  AFCS = ACS-ASPRT
000657: 22,2553           77626                           STADR
000658: 22,2554           75636                           STORE    ACS                                   #  BEHOLD, UNWORTHY MORTAL
000659:


000661: 22,2555           63545        RETOVF12           DLOAD    DSQ
000662: 22,2556           02107                                    RC
000663: 22,2557           65205                           DMP      PDDL
000664: 22,2560           02053                                    TTF/4
000665: 22,2561           02105                                    MAP2
000666: 22,2562           64425                           DSU      SR2R
000667: 22,2563           05610                                    MADP2
000668: 22,2564           45471                           DDV      STADR                                 #                         2
000669: 22,2565           75626                           STORE    AFCS       +2                         #  AFCS  = (MAP -MADP )/RC  TTF
000670:                                                                                                  #      1       2     2
000671: 22,2566           77604                           BOVB                                           #  RETAIN POSMAX ON OVERFLOW, BUT
000672: 22,2567           45066                                    OVF2DPS3                              #  BRANCH, SET ALARM, RETURN TO AFCCALC
000673:
000674:
000675:
000676:                                                                                                  #  ************************************************************************
000677:                                                                                                  #  THRUST ACCEL POINTING AND MAGNITUDE COMMANDS - DUE TO QUAD OR LINR GUID
000678:                                                                                                  #  ************************************************************************
000679:
000680: 22,2570           41345        AFCCALC            DLOAD    DMP                                   #  COME HERE FROM LINGUID
000681: 22,2571           02153                                    AFCS       +4
000682: 22,2572           02111                                    RS
000683: 22,2573           41325                           PDDL     DMP                                   #  PUSH AFCL
000684: 22,2574           02151                                    AFCS       +2                         #           2
000685: 22,2575           02107                                    RC
000686: 22,2576           55525                           PDDL     VDEF                                  #  PUSH AFCL , FORM VECTOR AFCL
000687: 22,2577           02147                                    AFCS                                  #           1
000688: 22,2600           76505                           VXM      VSL1
000689: 22,2601           02012                                    CLT/2                                 #  -                                 *
000690: 22,2602           02155                           STORE    AFC                                   #  AFC = (AFCS , RC AFCS , RS  AFCS )CLT
000691: 22,2603           77656                           UNIT                                           #             0         1    0     2
000692: 22,2604           16167                           STODL    UNAFC/2
000693: 22,2605           00045                                    36D                                   #  MAGNITUDE OF AFC, /AFC/
000694: 22,2606           02163                           STORE    /AFC/                                 #  FOR IGNITION ALGORITHM
000695: 22,2607           77776                           EXIT
000696: 22,2610           51401                           INDEX    NDXBR
000697: 22,2611           10002                           TCF      BRIGN2
000698:
000699: 22,2612           54111                 -3        TS       OVFIND                                #  RETURN FROM TTF/4 OVERFLOW
000700: 22,2613           37766                 -2        CA       FIVE                                  #  RETURN RESETTING COUNTFC
000701: 22,2614           55404                 -1        TS       COUNTFCT                              #  RETURN DECREMENTING COUNTFC
000702: 22,2615           04161        RETIGN2            TC       PHASCHNG                              #  RETURN (NORMAL) FROM IGNITN2
000703: 22,2616           04022                 +402      OCT      04022                                 #  PREVENT GOING FAR BACK IN 2DPS AFTR EXIT
000704:
000705:
000706:
000707:                                                                                                  #  ************************************************************************
000708:                                                                                                  #  PREPARE TO EXIT
000709:                                                                                                  #  ************************************************************************
000710:


000712:                                                                                                  #  DOWNLINK ENTRIES
000713:
000714: 22,2617           00006                           EXTEND
000715: 22,2620           41453                           DCS      TTF/4


000717: 22,2621           52145                           DXCH     MPAC
000718: 22,2622           33720                           CA       TSCALINV
000719: 22,2623           07357                           TC       SHORTMP
000720: 22,2624           00004                           INHINT
000721: 22,2625           52145                           DXCH     MPAC


000724: 22,2626           53746                           DXCH     TTGO
000725: 22,2627           31447                           CA       TPIP       +1
000726: 22,2630           55723                           TS       DOWN2DPS
000727: 22,2631           31072                           CA       AVGEXIT
000728: 22,2632           55724                           TS       DOWN2DPS   +1
000729: 22,2633           35662                           CA       EBANK7                                #  MAKE UP A WORD WHICH MAY BE USED TO
000730: 22,2634           56003                           XCH      EBANK                                 #  FIND OUT WHERE THE DOWNLIST POINTER IS
000731: 22,2635           54002                           TS       Q                                     #  AT THE MOMENT.
000732:
000733: 22,2636  E7,1402                                  EBANK=   TMINDEX
000734:
000735: 22,2636           31402                           CA       TMINDEX
000736: 22,2637           00006                           EXTEND
000737: 22,2640           77753                           MP       BIT9                                  #  PUT LOW 6 BITS OF TMINDEX INTO BITS
000738: 22,2641           31401                           CA       DNTMGOTO                              #   14 - 9 OF L.
000739: 22,2642           74564                           MASK     LOW8
000740: 22,2643           26001                           ADS      L                                     #  ADD LOW 8 BITS OF DNTMGOTO.
000741: 22,2644           00006                           EXTEND
000742: 22,2645           22003                           QXCH     EBANK
000743:
000744: 22,2646  E4,1400                                  EBANK=   E2DPS
000745:
000746: 22,2646           31320                           CA       MASS
000747: 22,2647           53726                           DXCH     DOWN2DPS   +2
000748: 22,2650           06112                           TC       INTPRET
000749: 22,2651           77745                           DLOAD
000750: 22,2652           02163                                    /AFC/


000752: 22,2653           26330                           STOVL    DOWN2DPS   +4
000753: 22,2654           02167                                    UNAFC/2
000754: 22,2655           02332                           STORE    DOWN2DPS   +6
000755: 22,2656           77776                           EXIT
000756: 22,2657           00003                           RELINT
000757:
000758: 22,2660           25402                           INCR     FLPASS0                               #  INCR FIRST PASS FLAG. REPEATS ARE OK.
000759: 22,2661           51072                           INDEX    AVGEXIT
000760: 22,2662           40005                           CS       TTF/4CR
000761: 22,2663           61452                           AD       TTF/4
000762: 22,2664           00006                           EXTEND
000763: 22,2665           51401                           INDEX    NDXBR
000764: 22,2666           60003                           BZMF     BRXMID                                #  CONTINUE PRESENT PHASE
000765:


000767: 22,2667           31072                           CA       AVGEXIT                               #  PREPARE FOR NEW PHASE
000768: 22,2670           55405                           TS       AVGXTEMP                              #  TEMPORARY PROTECTION FOR AVGEXIT
000769: 22,2671           04161                           TC       PHASCHNG                              #  PROTECT AVGEXIT
000770: 22,2672           04022                 +402      OCT      04022
000771: 22,2673           31405                           CA       AVGXTEMP
000772: 22,2674           67765                           AD       SEVEN
000773: 22,2675           55072                           TS       AVGEXIT
000774: 22,2676           37767                           CA       ZERO
000775: 22,2677           55402                           TS       FLPASS0                               #  RESET FLAG INDICATING PASS ZERO (FIRST)
000776: 22,2700           51405                           INDEX    AVGXTEMP
000777: 22,2701           10006                           TCF      BRXEND
000778:


000780:                                                                                                  #  ************************************************************************
000781:                                                                                                  #  ROUTINES FOR EXITING FROM SECOND DPS GUIDANCE. THESE ARE:
000782:                                                                                                  #  ************************************************************************
000783:
000784:                                                                                                  #  1.       EXIGMID CALLS CALCRVG AS AN INTERPRETIVE SUBROUTINE UP UNTIL BUT NOT INCLUDING THE LAST PASS DURING
000785:                                                                                                  #           THE PREBURN PHASE. UPON RETURN EXIGMID RESTARTS 2DPS.
000786:
000787:                                                                                                  #  2.       EXIGEND IS USED ON THE LAST PASS DURING PREBURN. IT SETS UP FOR KALCMANU, FOR THE SUBSEQUENT 2DPS
000788:                                                                                                  #           BURN, AND EXITS TO THE MISSION CONTROL PROGRAM.
000789:
000790:                                                                                                  #  3.       EXQDLIN IS USED TO TERMINATE EACH PASS UP UNTIL BUT NOT INCLUDING THE LAST PASS ON ALL 2DPS BURN
000791:                                                                                                  #           PHASES. EXQDLIN OBTAINS ATTITUDE AND THROTTLE CONTROL AND TERMINATES THE JOB.
000792:
000793:                                                                                                  #  4.       EXFINAL IS THE FINAL 2DPS EXIT. IT SETS UP AND ISSUES THE ATTITUDE COMMAND FOR RANDOM THROTTLING
000794:                                                                                                  #           AND EXITS TO THE MISSION CONTROL PROGRAM.
000795:
000796:
000797:
000798:                                                                                                  #  EXIGMID SETS UP FOR CALCRVG TO MOVE STATE FORWARD A SPECIFIED TIME, INITIALIZES THE INTERPRETER, CALLS CALCRVG
000799:                                                                                                  #  AS AN INTERPRETIVE SUBROUTINE, AND UPON RETURN SETS UP FOR IGNALG AND BRANCHES INDIRECTLY THERETO.
000800:
000801: 22,2702           03531        EXIGMID            TC       PRETINIT                              #  INITIALIZES INTERPRETER FOR CALCRVG
000802:                                                                                                  #  SUCCEEDING CODING MUST NOT UNDO
000803:
000804: 22,2703           06112                           TC       INTPRET
000805: 22,2704           43345                           DLOAD    DAD
000806: 22,2705           05727                                    PIGNALG
000807: 22,2706           01307                                    PIPTIME
000808: 22,2707           26045                           STOVL    PIPTIMET                              #  UPDATED PIPTIME TEMPORARY STORAGE
000809: 22,2710           05722                                    ZEROPOS
000810: 22,2711           34404                           STCALL   DELV                                  #  DELV = 0
000811: 22,2712           61137                                    CALCRVG                               #  STEPS FORWARD IN TIME LEAVING RN1, VN1
000812: 22,2713           77776                           EXIT
000813:
000814: 22,2714           33705                           CA       E2DPSL                                #  ASSURE CORRECT EBANK BEFORE
000815: 22,2715           54003                           TS       EBANK                                 #  DOING PHASCHNG
000816: 22,2716           04161                           TC       PHASCHNG                              #  PROTECT PIPTIME. PREVENT REDOING CALCRVG
000817: 22,2717           04022                 +402      OCT      04022
000818: 22,2720           00004        RNVNSTOR           INHINT                                         #  SET INHIBITED LOOP TO STORE FOR DWNLINK
000819: 22,2721           33741                           CA       NSCALR-1
000820: 22,2722           54070        RVSTOR             TS       RUPTREG1
000821: 22,2723           50070                           INDEX    RUPTREG1
000822: 22,2724           31050                           CA       RN1
000823: 22,2725           50070                           INDEX    RUPTREG1
000824: 22,2726           55010                           TS       RN                                    #  STORE UPDATED RN, VN
000825: 22,2727           10070                           CCS      RUPTREG1
000826: 22,2730           12722                           TCF      RVSTOR
000827: 22,2731           00006                           EXTEND
000828: 22,2732           31445                           DCA      PIPTIMET
000829: 22,2733           53307                           DXCH     PIPTIME                               #  UPDATED PIPTIME
000830:


000832: 22,2734           00006                           EXTEND
000833: 22,2735           31307                           DCA      PIPTIME
000834: 22,2736           53327                           DXCH     STATIME                               #  TIME FOR DWNLINK
000835: 22,2737           00003                           RELINT
000836: 22,2740           01072                           TC       AVGEXIT                               #  RETURNS TO APPROPRIATE LOCATION IN 2DPS
000837:
000838:                                                                                                  #  EXIGEND EXTRAPOLATES UNAFC/2 TO TTF/4 = 0, SETS UP FOR MISSION CONTROL PROGRAM, SETS UP FOR THE SUCCEEDING
000839:                                                                                                  #  BRAKING PHASE, AND EXITS TO THE MISSION CONTROL PROGRAM.
000840:
000841:                                                                                                  #  EXTRAPOLATE UNAFC/2
000842:
000843:                                                                                                  #  UNAFC/2 = UNAFC/2+(UNAFC/2-UNAFC/2O)(TTF)/(TPIPOLD-TPIP)
000844:
000845: 22,2741           00006        EXIGEND            EXTEND
000846: 22,2742           31451                           DCA      TPIPOLD
000847: 22,2743           52145                           DXCH     MPAC
000848: 22,2744           00006                           EXTEND
000849: 22,2745           41447                           DCS      TPIP
000850: 22,2746           20145                           DAS      MPAC
000851: 22,2747           37750                           CA       TSCALE
000852: 22,2750           00006                           EXTEND
000853: 22,2751           77761                           MP       BIT3                                  #  MULTIPLIES BY N = 4 LEAVING RESULT IN L
000854: 22,2752           30001                           CA       L                                     #  ASSUMES N(TPIPOLD-TPIP)/4>TTF/4 IN MAGN.
000855: 22,2753           07375                           TC       DMPNSUB                               #  N(TPIPOLD-TPIP)/4 TO MPAC, TTF UNITS
000856: 22,2754           00006                           EXTEND
000857: 22,2755           31453                           DCA      TTF/4
000858: 22,2756           52145                           DXCH     MPAC                                  #  DIVIDEND TO MPAC
000859: 22,2757           52121                           DXCH     BUF                                   #  DIVISOR TO BUF
000860: 22,2760           05317                           TC       USPRCADR
000861: 22,2761           00352                           CADR     DDV/BDDV                              #  (TTF/4)/(N(TPIPOLD-TPIP)/4) TO MPAC
000862:
000863: 22,2762           37767                           CA       ZERO
000864: 22,2763           54153                           TS       MODE                                  #  TO INDICATE DP IN MPAC
000865:
000866: 22,2764           06112                           TC       INTPRET
000867: 22,2765           52315                           PDVL     VSU
000868: 22,2766           02167                                    UNAFC/2
000869: 22,2767           02175                                    UNAFC/20
000870: 22,2770           74352                           VSL2     VXSC                                  #  VSL2 UNDOES MP BIT3 PRECEDING
000871: 22,2771           77655                           VAD
000872: 22,2772           02167                                    UNAFC/2                               #  YIELDS EXTRAPOLATED UNAFC/2
000873:
000874:                                                                                                  #  SET UP FOR MISSION CONTROL PROGRAM
000875:
000876: 22,2773           15656                           STODL    POINTVSM                              #  STORE FOR KALCMANU
000877: 22,2774           02053                                    TTF/4
000878: 22,2775           41276                           DCOMP    DMP
000879: 22,2776           05721                                    TSCALINV
000880: 22,2777           77615                           DAD
000881: 22,3000           01307                                    PIPTIME
000882:


000884: 22,3001           02057                           STORE    TULLG                                 #  TIME AT WHICH ULLAGE IS TO START
000885:
000886: 22,3002           77615                           DAD
000887: 22,3003           05547                                    PULLGCS
000888: 22,3004           02270                           STORE    TIGN                                  #  DISPLAY TIGN FOR DOWNLINK.
000889:
000890:                                                                                                  #  SET UP FOR BRAKING PHASE
000891:
000892: 22,3005           77776                           EXIT
000893: 22,3006           04161                           TC       PHASCHNG                              #  PROTECT TTF/4 AND PREVENT REREADING REG-
000894: 22,3007           04022                 +402      OCT      04022                                 #  ISTERS REWRITTEN BY MISN CONT PROGRAM
000895: 22,3010           00006                           EXTEND
000896: 22,3011           31455                           DCA      TTF/4TMP
000897: 22,3012           53453                           DXCH     TTF/4
000898:
000899:                                                                                                  #  RETURN TO MISSION CONTROL PROGRAM
000900:
000901: 22,3013           03531                           TC       PRETINIT                              #  INITIALIZES INTERPRETER
000902: 22,3014           00006                           EXTEND
000903: 22,3015           33713                           DCA      RETPREBL
000904: 22,3016           52006                           DTCB
000905:


000907:                                                                                                  #  EXQDLIN STORES THE SEMI-UNIT VECTOR DEFINING THE DIRECTION OF COMMANDED THRUST ACCELERATION (UNAFC/2) IN THE
000908:                                                                                                  #  APPROPRIATE REGISTERS OF FINDCDUD (AXISD) AND CALLS FINDCDUD AND THROTCON AS SUBROUTINES.
000909:                                                                                                  #  FINALLY EXQDLIN TERMINATES THE JOB.
000910:
000911: 22,3017           10111        EXQDLIN            CCS      OVFIND                                #  IF OVF AFTER COMPUTING AFCS1, ALARM, AND
000912: 22,3020           13073                           TCF      OVF2DPS4                              #  DO NOT ISSUE ATTITUDE OR THROTTLE CMDS.
000913: 22,3021           13023                           TCF      +2
000914: 22,3022           13073                           TCF      OVF2DPS4                              #  IN CASE OVFIND =-1
000915:
000916: 22,3023           06112                           TC       INTPRET
000917: 22,3024           77775                           VLOAD
000918: 22,3025           02167                                    UNAFC/2
000919: 22,3026           36233                           STCALL   AXISD
000920: 22,3027           60703                                    FINDCDUD                              #  ATTITUDE CONTROL
000921:
000922: 22,3030           74545                           DLOAD    SR1R                                  #  LOAD GOOD /AFC/.
000923: 22,3031           02163                                    /AFC/                                 #  SCALE TO THROTCON UNITS.
000924: 22,3032           01323                           STORE    /ACF/                                 #  STORE IN THROTCON ACCEL CMD REGISTERS
000925: 22,3033           77776                           EXIT
000926: 22,3034           00006                           EXTEND
000927: 22,3035           33717                           DCA      THROTCOL
000928: 22,3036           52006                           DTCB                                           #  THROTTLE CONTROL
000929:
000930: 22,3037           04141        EXOVFLOW           TC       2PHSCHNG                              #  PREVENT RECALLING THROTCON AND FINDCDUD
000931: 22,3040           00034                           OCT      00034                                 #  4.3SPOT FOR ACCLJOB
000932: 22,3041           00002                 +002      OCT      00002                                 #  INACTIVATE GROUP 2
000933:
000934: 22,3042           05567                           TC       ENDOFJOB                              #  TERMINATES THE JOB PERIODICALLY STARTED
000935:                                                                                                  #  BY A WAITLIST CALL FROM READACCS
000936:
000937:
000938:
000939:                                                                                                  #  EXFINAL IS THE FINAL EXIT FROM 2DPS. FIRST EXFINAL PLACES THE SEMI-UNIT NORMAL TO THE ORBITAL PLANE (CPT6/2)
000940:                                                                                                  #  IN AXISD AND CALLS FINDCDUD AS A SUBROUTINE. THIS CAUSES FURTHER THRUSTING TO BE NORMAL TO THE ORBITAL PLANE.
000941:                                                                                                  #  FINALLY EXFINAL RETURNS TO THE MISSION CONTROL PROGRAM WHICH EXECUTES THE RANDOM THROTTLING.
000942:
000943: 22,3043           06112        EXFINAL            TC       INTPRET
000944: 22,3044           77775                           VLOAD
000945: 22,3045           02357                                    CPT6/2
000946: 22,3046           36233                           STCALL   AXISD
000947: 22,3047           60703                                    FINDCDUD                              #  ATTITUDE CONTROL
000948: 22,3050           77776                           EXIT
000949:
000950: 22,3051           04161                           TC       PHASCHNG                              #  PREVENT RECALLING FINDCDUD
000951: 22,3052           04022                 +402      OCT      04022
000952:
000953: 22,3053           03531                           TC       PRETINIT                              #  INITIALIZES INTERPRETER
000954: 22,3054           00006                           EXTEND
000955: 22,3055           33715                           DCA      RETBURNL
000956: 22,3056           52006                           DTCB
000957:


000959:                                                                                                  #  ************************************************************************
000960:                                                                                                  #  SPECIAL PURPOSE SUBROUTINES OF SECOND DPS GUIDANCE
000961:                                                                                                  #  ************************************************************************
000962:
000963:                                                                                                  #  ************************************************************************
000964:                                                                                                  #  OVERFLOW ACTIONS
000965:                                                                                                  #  ************************************************************************
000966:
000967: 22,3057           77775        OVF2DPS2           VLOAD                                          #  FROM PUSH LIST, PURPOSE: RESET POINTER
000968: 22,3060           77776                           EXIT
000969:
000970: 22,3061           04755        OVF2DPS1           TC       ALARM                                 #  OVERFLOW PRIOR TO (PRESUMABLY DURING)
000971: 22,3062           00410                           OCT      00410                                 #  COMPUTATION OF ACS OR AFCS
000972:
000973: 22,3063           06112                           TC       INTPRET                               #  OVFIND RESET BY BOVB OR BOV, NO REPEAT
000974: 22,3064           77650                           GOTO
000975: 22,3065           44555                                    RETOVF12
000976:
000977:
000978:
000979: 22,3066           04755        OVF2DPS3           TC       ALARM                                 #  DIVIDE OVERFLOW DURING COMPUTATION OF
000980: 22,3067           00411                           OCT      00411                                 #  AFCS . BOVB RESETS OVFIND.
000981:                                                                                                  #      1
000982: 22,3070           06112                           TC       INTPRET                               #  SET ALARM AND RETURN
000983: 22,3071           77650                           GOTO
000984: 22,3072           44570                                    AFCCALC
000985:
000986:
000987:
000988: 22,3073           54111        OVF2DPS4           TS       OVFIND                                #  OVERFLOW AFTER COMPUTATION OF ACS, AFCS,
000989: 22,3074           04755                           TC       ALARM                                 #  AND AFCS . RESET OVFIND, SET ALARM, AND
000990: 22,3075           00412                           OCT      00412                                 #          1
000991:                                                                                                  #  RETURN SKIPPING CALLS OF FINDCDUD AND
000992: 22,3076           13037                           TCF      EXOVFLOW                              #  THROTCON.
000993:


000995:                                                                                                  #  ************************************************************************
000996:                                                                                                  #  IGNITION ALGORITHM
000997:                                                                                                  #  ************************************************************************
000998:
000999:                                                                                                  #  IGNITN1 EXTRAPOLATES THE GIVEN STATE FORWARD THROUGH THE TIME INTERVAL REQUIRED TO ACCOMPLISH ULLAGE AND TO
001000:                                                                                                  #  LITE AT LOW THRUST AND TRIM THE ENGINE. THE EXTRAPOLATION ENDS AT THE TIME MAXIMUM THRUST WOULD BE COMMANDED
001001:                                                                                                  #  IF THE LITEUP PROCEDURE WERE INITIATED AT THE CURRENT GIVEN TIME. (THE GIVEN TIME IS NOT TRUE. ALL GIVEN
001002:                                                                                                  #  CONDITIONS INCLUDE A FREE-FALL EXTRAPOLATION OF THE ACTUAL ORBIT.) THE EXTRAPOLATION PERFORMED BY IGNITN1
001003:                                                                                                  #  INCLUDES ALL EFFECTS OF ENGINE THRUST DURING THE LITEUP PROCEDURE, AND IT USES THE
001004:                                                                                                  #  THRUST POINTING DIRECTION WHICH WILL BE COMMANDED AT THE INITIATION OF MAXIMUM THRUST.
001005:                                                                                                  #  THIS EXTRAPOLATED STATE IS THEN FED TO TEH GUIDANCE EQUATIONS, WHICH COMPUTE THE THRUST POINTING
001006:                                                                                                  #  DIRECTION (UNAFC/2) AND THE THRUST ACCELERATION MAGNITUDE COMMAND (/AFC/).
001007:
001008:                                                                                                  #  IGNITN2 THEN RECEIVES THIS OUTPUT DATA FROM THE GUIDANCE EQUATIONS AND DETERMINES WHETHER THE THRUST
001009:                                                                                                  #  ACCELERATION MAGNITUDE COMMAND IS MONOTONICALLY INCREASING. WHEN IT IS, IGNITN2 USES THE PRESENT AND PREVIOUS
001010:                                                                                                  #  VALUES TO COMPUTE ONE QUARTER OF THE PRESENT TIME (TTF/4) RELATIVE TO THE TIME AT WHICH THE THRUST
001011:                                                                                                  #  ACCELERATION MAGNITUDE COMMAND WILL REACH THE CRITERION VALUE (/AFC/CR) WHICH CORRESPONDS TO MAXIMUM THROTTLE.
001012:                                                                                                  #  WHEN TTF/4 SO COMPUTED REACHES THE TIME CRITERION FOR TERMINATING THE PREBURN PHASE (TTF/4CR),
001013:                                                                                                  #  EXIGEND IS PROCESSED, TERMINATING THE PHASE AND RETURNING CONTROL TO THE MISSION CONTROL PROGRAM.
001014:                                                                                                  #  THE MISSION CONTROL PROGRAM EXECUTES THE COMPUTED IGNITION SEQUENCE. IGNITN2 MUST ALSO, ON EACH PASS,
001015:                                                                                                  #  REESTABLISH CERTAIN DATA REQUIRED FOR THE SUBSEQUENT PASS.
001016:
001017:                                                                                                  #  IGNITION ALGORITHM PART 1
001018:                                                                                                  #  ************************************************************************
001019:
001020:                                                                                                  #  DO TEMPORARY STORAGE
001021:
001022: 22,3077           06112        IGNITN1            TC       INTPRET
001023: 22,3100           77745                           DLOAD
001024: 22,3101           02163                                    /AFC/
001025: 22,3102           26165                           STOVL    /AFC/OLD                              #  OLD VALUE OF /AFC/ FOR USE BY IGNITN2
001026:
001027: 22,3103           02167                                    UNAFC/2
001028: 22,3104           26175                           STOVL    UNAFC/20                              #  OLD VALUE OF UNAFC/2
001029:
001030:                                                                                                  #  EXTRAPOLATE STATE
001031:
001032: 22,3105           02061                                    R
001033: 22,3106           24011                           STOVL    RDUM
001034: 22,3107           02067                                    V
001035: 22,3110           24017                           STOVL    VDUM
001036: 22,3111           02211                                    GDOTM1
001037: 22,3112           14025                           STODL    JDUM
001038: 22,3113           05545                                    PFCULLG                               #  ULLAGE PERIOD
001039: 22,3114           14007                           STODL    PDUM                                  #  DUMMY PERIOD
001040: 22,3115           05551                                    AFULLG                                #  LEAVE AFULLG IN MPAC
001041: 22,3116           77624                           CALL                                           #  EXTRAPOLATES DUMMY STATE AND
001042: 22,3117           45255                                    XTRIGN1                               #  LEAVES INITIAL GRAVITY IN GDUM
001043:
001044: 22,3120           77775                           VLOAD


001046: 22,3121           00033                                    GDUM
001047: 22,3122           16203                           STODL    GDUMPRES                              #  SAVE INITL GRAVITY FOR COMPUTING GDOTM1
001048:
001049: 22,3123           05553                                    PFCLITE                               #  LITEUP PERIOD
001050: 22,3124           14007                           STODL    PDUM
001051: 22,3125           05555                                    AFLITE                                #  LEAVE AFLITE IN MPAC
001052: 22,3126           77624                           CALL
001053: 22,3127           45255                                    XTRIGN1                               #  EXTRAPOLATE
001054:
001055: 22,3130           77745                           DLOAD
001056: 22,3131           05557                                    PFCTRIM                               #  TRIM PERIOD
001057: 22,3132           14007                           STODL    PDUM
001058: 22,3133           05561                                    AFTRIM                                #  LEAVE AFTRIM IN MPAC
001059: 22,3134           77624                           CALL
001060: 22,3135           45255                                    XTRIGN1                               #  YIELDS FINAL EXTRAPOLATED STATE
001061:
001062: 22,3136           77775                           VLOAD
001063: 22,3137           00011                                    RDUM
001064: 22,3140           26111                           STOVL    RTEMP                                 #  RESTART PROTECTION FOR EXTRAPOLATED R
001065: 22,3141           00017                                    VDUM
001066: 22,3142           36117                           STCALL   VTEMP                                 #  RESTART PROTECTION FOR EXTRAPOLATED V
001067:
001068:                                                                                                  #  COMPUTE DERIVATIVE OF GRAVITY
001069:
001070: 22,3143           45521                                    GDUMCL                                #  YIELDS FINAL GRAVITY IN MPAC AND GDUM
001071: 22,3144           70251                           VSU      V/SC
001072: 22,3145           02203                                    GDUMPRES
001073: 22,3146           05537                                    PPHM1                                 #  COMPLETES COMPUTATION OF DERIV OF G
001074: 22,3147           02133                           STORE    GDOTM1T                               #  FOR USE NEXT PASS. RESTART PROTECTED.
001075: 22,3150           77776                           EXIT
001076:
001077:                                                                                                  #  GENERATION OF EXTRAPOLATED DATA COMPLETE. PROTECT AND TRANSFER TO STORAGE.
001078:
001079: 22,3151           04161                           TC       PHASCHNG                              #  PROTECT R, V
001080: 22,3152           04022                 +402      OCT      04022
001081: 22,3153           06112                           TC       INTPRET
001082: 22,3154           77745                           DLOAD
001083: 22,3155           02055                                    TTF/4TMP
001084: 22,3156           26053                           STOVL    TTF/4                                 #  RESTORES TTF/4 TO LAST VALUE BY GUIDANCE
001085: 22,3157           02111                                    RTEMP
001086: 22,3160           26061                           STOVL    R                                     #  EXTRAPOLATED R
001087: 22,3161           02117                                    VTEMP
001088: 22,3162           26067                           STOVL    V                                     #  EXTRAPOLATED V
001089: 22,3163           02133                                    GDOTM1T
001090: 22,3164           02211                           STORE    GDOTM1                                #  DERIVATIVE OF G
001091: 22,3165           77776                           EXIT
001092: 22,3166           31404                           CA       COUNTFCT
001093: 22,3167           55403                           TS       COUNTFC                               #  FOR IGNITN2
001094: 22,3170           03343                           TC       XTRTPIP                               #  YIELDS TPIP EXTRAPOLATED
001095: 22,3171           12210                           TCF      RETIGN1
001096:


001098:                                                                                                  #  IGNITION ALGORITHM PART 2
001099:                                                                                                  #  ************************************************************************
001100:
001101: 22,3172           00006        IGNITN2            EXTEND
001102: 22,3173           31453                           DCA      TTF/4
001103: 22,3174           53455                           DXCH     TTF/4TMP                              #  SAVE TTF/4 FOR NEXT PASS
001104: 22,3175           04161                           TC       PHASCHNG                              #  PROTECT TTF/4
001105: 22,3176           04022                 +402      OCT      04022
001106: 22,3177           47743                           CS       POSMAX
001107: 22,3200           55452                           TS       TTF/4                                 #  PREVENT PREMATURE TERMINATION OF PREBURN
001108:
001109:                                                                                                  #  TEST WHETHER /AFC/ > /AFC/OLD, IF SO TEST WHETHER COUNTFC = 0.
001110:
001111: 22,3201           00006                           EXTEND
001112: 22,3202           31563                           DCA      /AFC/
001113: 22,3203           52145                           DXCH     MPAC
001114: 22,3204           00006                           EXTEND
001115: 22,3205           41565                           DCS      /AFC/OLD
001116: 22,3206           20145                           DAS      MPAC                                  #  /AFC/-/AFC/OLD IN MPAC
001117:
001118: 22,3207           10144                           CCS      MPAC                                  #  TEST HI ORDER
001119: 22,3210           13216                           TCF      TCOUNTFC
001120: 22,3211           13213                           TCF      TSTLOAFC
001121: 22,3212           12613                           TCF      RETIGN2    -2                         #  RESET COUNTFC
001122: 22,3213           30145        TSTLOAFC           CA       MPAC       +1                         #  TEST LO ORDER
001123: 22,3214           00006                           EXTEND
001124: 22,3215           62613                           BZMF     RETIGN2    -2                         #  RESET COUNTFC
001125: 22,3216           11403        TCOUNTFC           CCS      COUNTFC
001126: 22,3217           12614                           TCF      RETIGN2    -1                         #  DECREMENT COUNTFC
001127:
001128:                                                                                                  #  RESET TTF/4 BY EXTRAPOLATING /AFC/
001129:
001130:                                                                                                  #  TTF/4 = (1/4)(TPIPOLD-TPIP)(/AFC/-/AFC/CR)/(/AFC/OLD-/AFC/)
001131:
001132: 22,3220           00006                           EXTEND
001133: 22,3221           31451                           DCA      TPIPOLD
001134: 22,3222           52145                           DXCH     MPAC
001135: 22,3223           00006                           EXTEND
001136: 22,3224           41447                           DCS      TPIP
001137: 22,3225           20145                           DAS      MPAC
001138: 22,3226           37750                           CA       TSCALE
001139: 22,3227           07375                           TC       DMPNSUB                               #  (1/4)(TPIPOLD-TPIP) TO MPAC, TTF UNITS
001140:
001141: 22,3230           00006                           EXTEND
001142: 22,3231           31563                           DCA      /AFC/
001143: 22,3232           52150                           DXCH     MPAC       +3
001144: 22,3233           00006                           EXTEND
001145: 22,3234           43543                           DCS      /AFC/CR
001146: 22,3235           20150                           DAS      MPAC       +3
001147: 22,3236           07155                           TC       DMP
001148:


001150: 22,3237           00147                           GENADR   MPAC       +3
001151:
001152: 22,3240           00006                           EXTEND
001153: 22,3241           31565                           DCA      /AFC/OLD
001154: 22,3242           52121                           DXCH     BUF
001155: 22,3243           00006                           EXTEND
001156: 22,3244           41563                           DCS      /AFC/
001157: 22,3245           20121                           DAS      BUF
001158: 22,3246           05317                           TC       USPRCADR
001159: 22,3247           00352                           CADR     DDV/BDDV                              #  YIELDS TTF/4 IN MPAC
001160:
001161: 22,3250           10111                           CCS      OVFIND
001162: 22,3251           12612                           TCF      RETIGN2    -3                         #  IF TTF/4 OVFL. RESETS OVFIND, COUNTFC.
001163:
001164: 22,3252           52145                           DXCH     MPAC
001165: 22,3253           53453                           DXCH     TTF/4
001166: 22,3254           12615                           TCF      RETIGN2
001167:
001168:
001169:
001170:                                                                                                  #  ************************************************************************
001171:                                                                                                  #  SPECIAL PURPOSE STATE EXTRAPOLATION SUBROUTINE FOR IGNITN1
001172:                                                                                                  #  ************************************************************************
001173:
001174:                                                                                                  #  XTRIGN1 RECEIVES THE EXTRAPOLATION PERIOD IN PDUM; THE INITIAL STATE IN RDUM, VDUM; THE THRUST ACCELERATION
001175:                                                                                                  #  MAGNITUDE IN MPAC, DIRECTION IN UNAFC/2; AND JERK IN JDUM.
001176:
001177:                                                                                                  #  IT LEAVES GRAVITY IN GDUM, THE TOTAL INITIAL ACCELERATION IN ADUM, AND THE EXTRAPLOATED STATE IN RDUM, VDUM.
001178:
001179:                                                                                                  #  PRESENTLY THE DUM REGISTERS OCCUPY LOCATIONS FIXLOC +6 THRU FIXLOC +45 OCTAL.
001180:
001181: 22,3255           77620        XTRIGN1            STQ
001182: 22,3256           02007                                    RETXIGN1                              #  SAVE QPRET
001183: 22,3257           74352                           SL1      VXSC
001184: 22,3260           02167                                    UNAFC/2
001185: 22,3261           45006                           PUSH     CALL                                  #  PUSHES AF UNAFC
001186: 22,3262           45521                                    GDUMCL                                #  YIELDS GRAVITY IN MPAC AND GDUM
001187: 22,3263           45455                           VAD      STADR
001188: 22,3264           77736                           STORE    ADUM                                  #  ADUM = AF UNAFC+G
001189: 22,3265           77624                           CALL
001190: 22,3266           45471                                    XTRDUMST                              #  EXTRAPOLATES RDUM, VDUM
001191: 22,3267           77650                           GOTO
001192: 22,3270           02007                                    RETXIGN1
001193:


001195:                                                                                                  #  ************************************************************************
001196:                                                                                                  #  LINEAR GUIDANCE - SPHERICAL ACCELERATION AS LINEAR TIME FUNCTION
001197:                                                                                                  #  ************************************************************************
001198:
001199:                                                                                                  #  SET LINEAR GUIDANCE COEFFICIENTS IN EVEN NUMBERED PHASES
001200:                                                                                                  #  ************************************************************************
001201:
001202: 22,3271           02140        LSETEVN            TC       NTLZPASS
001203: 22,3272           06112                           TC       INTPRET
001204: 22,3273           77773                           VLOAD*
001205: 22,3274           05564                                    ADS,1                                 #  -        -
001206: 22,3275           16175                           STODL    ADLINS                                #  ADLINS = ADS, ADLINS  = ASPRT  SUCH THAT
001207: 22,3276           02135                                    ASPRT      +2                         #                      1        1
001208: 22,3277           02177                           STORE    ADLINS     +2                         #  THE TARGET IS ZERO ANGULAR MOMNTUM RATE
001209: 22,3300           40015                           DAD      BOV
001210: 22,3301           02151                                    AFCS       +2
001211: 22,3302           45307                                    LSEOVF
001212: 22,3303           26143        LSENOVF            STOVL    ACS        +2                         #  ACS  = ASPRT  +AFCS
001213: 22,3304           02175                                    ADLINS                                #     1        1      1
001214: 22,3305           77650                           GOTO
001215: 22,3306           45317                                    LINSET
001216:
001217: 22,3307           52034        LSEOVF             RTB      GOTO                                  #  PLACE SIGNED POSMAX INTO MPAC & RETURN.
001218: 22,3310           73501                                    SIGNMPAC
001219: 22,3311           45303                                    LSENOVF
001220:
001221:                                                                                                  #  SET LINEAR GUIDANCE COEFFICIENTS IN ODD NUMBERED PHASES
001222:                                                                                                  #  ************************************************************************
001223:
001224: 22,3312           02140        LSETODD            TC       NTLZPASS
001225: 22,3313           06112                           TC       INTPRET
001226: 22,3314           77773                           VLOAD*
001227: 22,3315           05564                                    ADS,1                                 #  -        -
001228: 22,3316           02175                           STORE    ADLINS                                #  ADLINS = ADS
001229:
001230:                                                                                                  #  COMMON PARTS OF LSETEVN AND LSETODD
001231:                                                                                                  #  ************************************************************************
001232:
001233: 22,3317           77645        LINSET             BVSU
001234: 22,3320           02141                                    ACS                                   #  -          -   -
001235: 22,3321           16203                           STODL    ADELLINS                              #  ADELLINS = ACS-ADLINS
001236: 22,3322           02053                                    TTF/4
001237: 22,3323           02211                           STORE    TTFLIN/4
001238: 22,3324           77776                           EXIT
001239: 22,3325           12235                           TCF      TTFINCR    +1
001240:
001241:                                                                                                  #  LINEAR GUIDANCE EQUATIONS
001242:                                                                                                  #  ************************************************************************
001243:
001244: 22,3326           06112        LINGUID            TC       INTPRET
001245:


001247: 22,3327           56345                           DLOAD    DDV
001248: 22,3330           02053                                    TTF/4
001249: 22,3331           02211                                    TTFLIN/4
001250: 22,3332           53361                           VXSC     VAD
001251: 22,3333           02203                                    ADELLINS
001252: 22,3334           02175                                    ADLINS
001253: 22,3335           02141                           STORE    ACS                                   #  FOR USE BY LINSET FOR FAZES 6 AND 9
001254: 22,3336           77651                           VSU
001255: 22,3337           02133                                    ASPRT                                 #  -          -               -      -
001256: 22,3340           02147                           STORE    AFCS                                  #  AFCS = TTF ADELLINS/TTFLIN+ADLINS-ASPRT
001257: 22,3341           77650                           GOTO
001258: 22,3342           44570                                    AFCCALC
001259:
001260:
001261:
001262:                                                                                                  #  ************************************************************************
001263:                                                                                                  #  SUBROUTINE TO SET TPIP EXTRAPOLATED
001264:                                                                                                  #  ************************************************************************
001265:
001266: 22,3343           00006        XTRTPIP            EXTEND
001267: 22,3344           31307                           DCA      PIPTIME
001268: 22,3345           53447                           DXCH     TPIP
001269: 22,3346           00006                           EXTEND
001270: 22,3347           33541                           DCA      PPHM1CS
001271: 22,3350           21447                           DAS      TPIP
001272: 22,3351           00002                           TC       Q
001273:


001275:                                                                                                  #  ************************************************************************
001276:                                                                                                  #  GENERAL PURPOSE SUBROUTINES CONTRIBUTED BY SECOND DPS GUIDANCE
001277:                                                                                                  #  ************************************************************************
001278:
001279:                                                                                                  #  ************************************************************************
001280:                                                                                                  #  DOUBLE PRECISION ROOT FINDER SUBROUTINE
001281:                                                                                                  #  ************************************************************************
001282:
001283:                                                                                                  #                                                          N        N-1
001284:                                                                                                  #           ROOTPSRS FINDS ONE ROOT OF THE POWER SERIES A X  + A   X    + ... + A X + A
001285:                                                                                                  #                                                        N      N-1              1     0
001286:
001287:                                                                                                  #  USING NEWTON'S METHOD STARTING WITH AN INITIAL GUESS FOR THE ROOT. THE ENTERING DATA MUST BE AS FOLLOWS:
001288:
001289:                                                                                                  #                                          A        SP     LOC-3           ADRES FOR REFERENCING PWR COF TABL
001290:                                                                                                  #                                          L        SP     N-1             N IS THE DEGREE OF THE POWER SERIES
001291:                                                                                                  #                                          MPAC     DP     X               INITIAL GUESS FOR ROOT
001292:
001293:                                                                                                  #                                          LOC-2N   DP     A(0)
001294:                                                                                                  #                                                   ...
001295:                                                                                                  #                                          LOC      DP     A(N)
001296:                                                                                                  #                                          LOC+2    SP     PRECROOT        PREC RQD OF ROOT (AS FRACT OF 1ST GUESS)
001297:
001298:                                                                                                  #  THE DP RESULT IS LEFT IN MPAC UPON EXIT, AND A SP COUNT OF THE ITERATIONS TO CONVERGENCE IS LEFT IN MPAC+2.
001299:                                                                                                  #  RETURN IS TO LOC(TC POWRSERS)+1.
001300:
001301:                                                                                                  #           PRECAUTION: ROOTPSRS MAKES NO CHECKS FOR OVERFLOW OR FOR IMPROPER USAGE. IMPROPER USAGE COULD
001302:                                                                                                  #  PRECLUDE CONVERGENCE OR REQUIRE EXCESSIVE ITERATIONS. AS A SPECIFIC EXAMPLE, ROOTPSRS FORMS A DERIVATIVE
001303:                                                                                                  #  COEFFICIENT TABLE BY MULTIPLYING EACH A(I) BY I, WHERE I RANGES FROM 1 TO N. IF AN ELEMENT OF THE DERIVATIVE
001304:                                                                                                  #  COEFFICIENT TABLE = 1 OR > 1 IN MAGNITUDE, ONLY THE EXCESS IS RETAINED. ROOTPSRS MAY CONVERGE ON THE CORRECT
001305:                                                                                                  #  ROOT NONETHELESS, BUT IT MAY TAKE AN EXCESSIVE NUMBER OF ITERATIONS. THEREFORE THE USER SHOULD RECOGNIZE:
001306:
001307:                                                                                                  #  1. USER'S RESPONSIBILITY TO ASSURE THAT I X A(I) < 1 IN MAGNITUDE FOR ALL I.
001308:
001309:                                                                                                  #  2. USER'S RESPONSIBILITY TO ASSURE OVERFLOW WILL NOT OCCUR IN EVALUATING EITHER THE RESIDUAL OR THE DERIVATIVE
001310:                                                                                                  #     POWER SERIES. THIS OVERFLOW WOULD BE PRODUCED BY SUBROUTINE POWRSERS, CALLED BY ROOTPSRS, AND MIGHT NOT
001311:                                                                                                  #     PRECLUDE EVENTUAL CONVERGENCE.
001312:
001313:                                                                                                  #  3. AT PRESENT, ERASABLE LOCATIONS ARE RESERVED ONLY FOR N UP TO 5. AN N IN EXCESS OF 5 WILL PRODUCE CHAOS.
001314:                                                                                                  #     ALL ERASABLES USED BY ROOTPSRS ARE UNSWITCHED LOCATED IN THE REGION FROM MPAC-33 OCT TO MPAC+7.
001315:
001316:                                                                                                  #  4. THE ITERATION COUNT RETURNED IN MPAC+2 MAY BE USED TO DETECT ABNORMAL PERFORMANCE.
001317:
001318:                                                                                                  #  STORE ENTERING DATA, INITLIZE ERASABLES
001319:
001320: 22,3352           00006        ROOTPSRS           EXTEND
001321: 22,3353           22122                           QXCH     RETROOT                               #  RETURN ADRES
001322: 22,3354           54107                           TS       PWRPTR                                #  PWR TABL POINTER
001323: 22,3355           52150                           DXCH     MPAC       +3                         #  PWR TABL ADRES, N-1
001324: 22,3356           33470                           CA       DERTABLL


001326: 22,3357           54131                           TS       DERPTR                                #  DER TABL POINTER
001327: 22,3360           54151                           TS       MPAC       +5                         #  DER TABL ADRES
001328: 22,3361           10150                           CCS      MPAC       +4                         #  NO POWER SERIES DEGREE 1 OR LESS
001329: 22,3362           54152                           TS       MPAC       +6                         #  N-2
001330: 22,3363           37767                           CA       ZERO                                  #  MODE USED AS ITERATION COUNTER. MODE
001331: 22,3364           54153                           TS       MODE                                  #  MUST BE POS SO ABS WON'T COMP MPAC+3 ETC
001332:
001333:                                                                                                  #  COMPUTE CRITERION TO STOP ITERATING
001334:
001335: 22,3365           00006                           EXTEND
001336: 22,3366           30145                           DCA      MPAC                                  #  FETCH ROOT GUESS, KEEPING IT IN MPAC
001337: 22,3367           52117                           DXCH     ROOTPS                                #  AND IN ROOTPS
001338: 22,3370           50147                           INDEX    MPAC       +3                         #  PWR TABLE ADRES
001339: 22,3371           30005                           CA       5                                     #  PRECROOT TO A
001340: 22,3372           07357                           TC       SHORTMP                               #  YIELDS DP PRODUCT IN MPAC
001341: 22,3373           05317                           TC       USPRCADR
001342: 22,3374           01206                           CADR     ABS                                   #  YIELDS ABVAL OF CRITERION ON DX IN MPAC
001343: 22,3375           52145                           DXCH     MPAC
001344: 22,3376           52115                           DXCH     DXCRIT                                #  CRITERION
001345:
001346:                                                                                                  #  SET UP DER COF TABL
001347:
001348: 22,3377           00006                           EXTEND
001349: 22,3400           50107                           INDEX    PWRPTR
001350: 22,3401           30004                           DCA      3
001351: 22,3402           52145                           DXCH     MPAC                                  #  A(N) TO MPAC
001352:
001353: 22,3403           30150                           CA       MPAC       +4                         #  N-1 TO A
001354:
001355: 22,3404           54130        DERCLOOP           TS       PWRCNT                                #  LOOP COUNTER
001356: 22,3405           67763                           AD       ONE
001357: 22,3406           07375                           TC       DMPNSUB                               #  YIELDS DERCOF = I X A(I) IN MPAC
001358: 22,3407           00006                           EXTEND
001359: 22,3410           50107                           INDEX    PWRPTR
001360: 22,3411           30002                           DCA      1
001361: 22,3412           52145                           DXCH     MPAC                                  #  A(I-1) TO MPAC, FETCHING DERCOF
001362: 22,3413           50131                           INDEX    DERPTR
001363: 22,3414           52004                           DXCH     3                                     #  DERCOF TO DER TABL
001364: 22,3415           47762                           CS       TWO
001365: 22,3416           26107                           ADS      PWRPTR                                #  DECREMENT PWR POINTER
001366: 22,3417           47762                           CS       TWO
001367: 22,3420           26131                           ADS      DERPTR                                #  DECREMENT DER POINTER
001368: 22,3421           10130                           CCS      PWRCNT
001369: 22,3422           13404                           TCF      DERCLOOP
001370:
001371:                                                                                                  #  CONVERGE ON ROOT
001372:
001373: 22,3423           00006        ROOTLOOP           EXTEND
001374: 22,3424           30117                           DCA      ROOTPS                                #  FETCH CURRENT ROOT
001375: 22,3425           52145                           DXCH     MPAC                                  #  LEAVE IN MPAC


001377: 22,3426           00006                           EXTEND
001378: 22,3427           30152                           DCA      MPAC       +5                         #  LOAD A, L WITH DER TABL ADRES, N-2
001379: 22,3430           07267                           TC       POWRSERS                              #  YIELDS DERIVATIVE IN MPAC
001380:
001381: 22,3431           00006                           EXTEND
001382: 22,3432           30117                           DCA      ROOTPS
001383: 22,3433           52145                           DXCH     MPAC                                  #  CURRENT ROOT TO MPAC, FETCHING DERIVATIVE
001384: 22,3434           52121                           DXCH     BUF                                   #  LEAVE DERIVATIVE IN BUF AS DIVISOR
001385: 22,3435           00006                           EXTEND
001386: 22,3436           30150                           DCA      MPAC       +3                         #  LOAD A, L WITH PWR TABL ADRES, N-1
001387: 22,3437           07267                           TC       POWRSERS                              #  YIELDS RESIDUAL IN MPAC
001388:
001389: 22,3440           05317                           TC       USPRCADR
001390: 22,3441           00352                           CADR     DDV/BDDV                              #  YIELDS -DX IN MPAC
001391:
001392: 22,3442           00006                           EXTEND
001393: 22,3443           40145                           DCS      MPAC                                  #  FETCH DX, LEAVING -DX IN MPAC
001394: 22,3444           20117                           DAS      ROOTPS                                #  CORRECTED ROOT NOW IN ROOTPS
001395:
001396: 22,3445           05317                           TC       USPRCADR
001397: 22,3446           01206                           CADR     ABS                                   #  YIELDS ABS(DX) IN MPAC
001398: 22,3447           00006                           EXTEND
001399: 22,3450           40115                           DCS      DXCRIT
001400: 22,3451           20145                           DAS      MPAC                                  #  ABS(DX)-ABS(DXCRIT) IN MPAC
001401:
001402: 22,3452           24153                           INCR     MODE                                  #  INCREMENT ITERATION COUNTER
001403:
001404: 22,3453           10144                           CCS      MPAC                                  #  TEST HI ORDER DX
001405: 22,3454           13423                           TCF      ROOTLOOP
001406: 22,3455           13457                           TCF      TESTLODX
001407: 22,3456           13463                           TCF      ROOTSTOR
001408: 22,3457           10145        TESTLODX           CCS      MPAC       +1                         #  TEST LO ORDER DX
001409: 22,3460           13423                           TCF      ROOTLOOP
001410: 22,3461           13463                           TCF      ROOTSTOR
001411: 22,3462           13463                           TCF      ROOTSTOR
001412: 22,3463           52117        ROOTSTOR           DXCH     ROOTPS
001413: 22,3464           52145                           DXCH     MPAC                                  #  STORE DP ROOT IN MPAC, MPAC+1
001414: 22,3465           30153                           CA       MODE
001415: 22,3466           54146                           TS       MPAC       +2                         #  STORE SP ITERATION COUNT IN MPAC+2
001416: 22,3467           00122                           TC       RETROOT
001417:
001418: 22,3470           00137        DERTABLL           ADRES    DERCOFN    -3
001419:


001421:                                                                                                  #  ************************************************************************
001422:                                                                                                  #  GENERAL PURPOSE SUBROUTINE FOR EXTRAPOLATING DUMMY STATE RDUM, VDUM
001423:                                                                                                  #  ************************************************************************
001424:
001425:                                                                                                  #  XTRDUMST REQUIRES THE EXTRAPOLATION PERIOD, INITIAL POSITION, INITIAL VELOCITY, INITIAL ACCELERATION, JERK
001426:                                                                                                  #  TO ARRIVE IN PDUM, RDUM, VDUM, ADUM, JDUM.
001427:
001428:                                                                                                  #  IT LEAVES THE EXTRAPOLATED STATE IN RDUM, VDUM.
001429:
001430:                                                                                                  #  PRESENTLY THE DUM REGISTERS ARE LOCATIONS FIXLOC +6 THRU FIXLOC +31 OCTAL, AND FIXLOC +40 OCTAL THRU
001431:                                                                                                  #  FIXLOC +45 OCTAL.
001432:
001433:                                                                                                  #                                              2            3
001434:                                                                                                  #  THE EQNS ARE RDUM = RDUM+VDUM PDUM+ADUM PDUM /2+JDUM PDUM /6,
001435:                                                                                                  #                                              2
001436:                                                                                                  #               VDUM = VDUM+ADUM PDUM+JDUM PDUM /2.
001437:
001438:                                                                                                  #  THEY ARE PROGRAMMED AS RDUM = ((JDUM PDUM/3+ADUM)PDUM/2+VDUM)PDUM+RDUM
001439:
001440:                                                                                                  #                         VDUM = (JDUM PDUM/2+ADUM)PDUM+VDUM
001441:
001442: 22,3471           77745        XTRDUMST           DLOAD
001443: 22,3472           00007                                    PDUM
001444: 22,3473           74205                           DMP      VXSC
001445: 22,3474           05731                                    1/3DP
001446: 22,3475           00025                                    JDUM
001447: 22,3476           74255                           VAD      VXSC
001448: 22,3477           00041                                    ADUM
001449: 22,3500           00007                                    PDUM
001450: 22,3501           53362                           VSR1     VAD
001451: 22,3502           00017                                    VDUM
001452: 22,3503           53361                           VXSC     VAD
001453: 22,3504           00007                                    PDUM
001454: 22,3505           00011                                    RDUM
001455: 22,3506           14011                           STODL    RDUM                                  #  EXTRAPOLATED RDUM. NO RESTART PROTECTION
001456:
001457: 22,3507           00007                                    PDUM
001458: 22,3510           74362                           SR1R     VXSC
001459: 22,3511           00025                                    JDUM
001460: 22,3512           74255                           VAD      VXSC
001461: 22,3513           00041                                    ADUM
001462: 22,3514           00007                                    PDUM
001463: 22,3515           77655                           VAD
001464: 22,3516           00017                                    VDUM
001465: 22,3517           00017                           STORE    VDUM                                  #  EXTRAPOLATED VDUM. NO RESTART PROTECTION
001466: 22,3520           77616                           RVQ
001467:


001469:                                                                                                  #  ************************************************************************
001470:                                                                                                  #  DUMMY GRAVITY SUBROUTINE
001471:                                                                                                  #  ************************************************************************
001472:
001473:                                                                                                  #  GDUMCL COMPUTES GRAVITY GIVEN POSITION IN RDUM, LEAVING RESULT IN MPAC AND GDUM.
001474:
001475:                                                                                                  #                                          2
001476:                                                                                                  #  GDUM =-MUEARTH UNIT(RDUM)/((ABVAL(RDUM)) )
001477:
001478: 22,3521           57575        GDUMCL             VLOAD    VCOMP
001479: 22,3522           00011                                    RDUM
001480: 22,3523           74256                           UNIT     VXSC
001481: 22,3524           21203                                    MUEARTH
001482: 22,3525           76541                           V/SC     VSL1                                  #  SHIFT COMPENSATES FOR SEMI-UNIT
001483: 22,3526           00043                                    42
001484: 22,3527           00033                           STORE    GDUM
001485: 22,3530           77616                           RVQ
001486:
001487:
001488:
001489:                                                                                                  #  ************************************************************************
001490:                                                                                                  #  INTERPRETER INITIALIZATION SUBROUTINE
001491:                                                                                                  #  ************************************************************************
001492:
001493: 22,3531           30110        PRETINIT           CA       FIXLOC
001494: 22,3532           54156                           TS       PUSHLOC
001495: 22,3533           37767                           CA       ZERO
001496: 22,3534           54111                           TS       OVFIND
001497: 22,3535           00002                           TC       Q
001498:


001500:                                                                                                  #  ************************************************************************
001501:                                                                                                  #  SECOND DPS TARGET PARAMETERS
001502:                                                                                                  #  ************************************************************************
001503:
001504:                                                                                                  #  PARAMETER TABLE INDIRECT ADDRESSES
001505:
001506: 22,3536  22,3562               TTF/4NU            =        TTF/4N0X
001507: 22,3536  22,3563               ADS                =        A0XS
001508: 22,3536  22,3571               RDS                =        R0XS
001509: 22,3536  22,3577               VDS                =        V0XS
001510: 22,3536  22,3605               JDS2               =        J0XS2
001511: 22,3536  22,3607               MADP2              =        MA0XP2
001512:
001513:                                                                                                  #  A CONSISTENT SET OF UNITS IS USED THRUOUT THE SECOND DPS GUIDANCE. THESE UNITS ARE:
001514:                                                                                                  #  TIME 2(  15)CS; LENGTH 2(  24)M; ANGLE 2(   0)RAD.
001515:
001516:                                                                                                  #  IGNITION ALGORITHM - PREBURN PARAMETERS
001517:                                                                                                  #  ************************************************************************
001518:
001519: 22,3536           03213 00000  PPHM1              2DEC*    +3.350000000 E+3        B-15*
001520:
001521: 22,3540           00000 06426  PPHM1CS            2DEC*    +3.350000000 E+3        B-28*
001522:
001523: 22,3542           00513 13111  /AFC/CR            2DEC*    +3.159982925 E-4        B+6*
001524:
001525: 22,3544           00567 00000  PFCULLG            2DEC*    +7.500000000 E+2        B-15*
001526:
001527: 22,3546           00000 01356  PULLGCS            2DEC*    +7.500000000 E+2        B-28*
001528:
001529: 22,3550           00015 14247  AFULLG             2DEC*    +1.276510908 E-5        B+6*
001530:
001531: 22,3552           00226 00000  PFCLITE            2DEC*    +3.000000000 E+2        B-15*
001532:
001533: 22,3554           00047 24767  AFLITE             2DEC*    +3.781860583 E-5        B+6*
001534:
001535: 22,3556           02176 00000  PFCTRIM            2DEC*    +2.300000000 E+3        B-15*
001536:
001537: 22,3560           00047 27132  AFTRIM             2DEC*    +3.788401593 E-5        B+6*
001538:


001540:                                                                                                  #  PARAMETER TABLE FOR BURN PHASES
001541:                                                                                                  #  ************************************************************************
001542:
001543: 22,3562           67637        TTF/4N0X           DEC*     -8.383250000 E+3        B-15*
001544:
001545: 22,3563           77753 42675  A0XS               2DEC*    -1.994161737 E-5        B+6*
001546:
001547: 22,3565           00000 00000                     2DEC     0          B-28
001548:
001549: 22,3567           02365 21076                     2DEC*    +7.216471076 E-11       B+30*
001550:
001551: 22,3571           14605 04744  R0XS               2DEC*    +6.689950238 E+6        B-24*
001552:
001553: 22,3573           00000 00000                     2DEC     0          B-28
001554:
001555: 22,3575           00415 31771                     2DEC*    +1.646802361 E-2        B-0*
001556:
001557: 22,3577           77766 76522  V0XS               2DEC*    -2.825570521 E-1        B-9*
001558:
001559: 22,3601           00000 00000                     2DEC     0          B-28
001560:
001561: 22,3603           76663 67211                     2DEC*    -1.095743551 E-6        B+15*
001562:
001563: 22,3605           01513 17626  J0XS2              2DEC*    +1.463228058 E-15       B+45*
001564:
001565: 22,3607           01731 21421  MA0XP2             2DEC*    +5.167109434 E+8        B-33*
001566:


001568: 22,3611           75043        TTF/4N0F           DEC*     -3.000000000 E+3        B-15*
001569:
001570: 22,3612           00007 10202  A0FS               2DEC*    +6.921710813 E-6        B+6*
001571:
001572: 22,3614           00000 00000                     2DEC     0          B-28
001573:
001574: 22,3616           01412 02011                     2DEC*    +4.422776218 E-11       B+30*
001575:
001576: 22,3620           14602 07066  R0FS               2DEC*    +6.686947349 E+6        B-24*
001577:
001578: 22,3622           00000 00000                     2DEC     0          B-28
001579:
001580: 22,3624           00136 37231                     2DEC*    +5.797001734 E-3        B-0*
001581:
001582: 22,3626           77771 45437  V0FS               2DEC*    -2.133175242 E-1        B-9*
001583:
001584: 22,3630           00000 00000                     2DEC     0          B-28
001585:
001586: 22,3632           77241 50000                     2DEC*    -6.533226733 E-7        B+15*
001587:
001588: 22,3634           01303 02015  J0FS2              2DEC*    +1.226559287 E-15       B+45*
001589:
001590: 22,3636           01731 21421  MA0FP2             2DEC*    +5.167109434 E+8        B-33*
001591:
001592:
001593:
001594: 22,3640           77602        TTF/4NU1           DEC*     -2.500000000 E+2        B-15*
001595:
001596: 22,3641           00014 36766  A1FS               2DEC*    +1.236735582 E-5        B+6*
001597:
001598: 22,3643           00013 03266                     2DEC*    +6.312364424 E-13       B+30*
001599:
001600: 22,3645           01372 34106                     2DEC*    +4.336466703 E-11       B+30*
001601:


001603: 22,3647           73321        TTF/4NU2           DEC*     -4.700000000 E+3        B-15*
001604:
001605: 22,3650           00004 15764  A2FS               2DEC*    +4.231238847 E-6        B+6*
001606:
001607: 22,3652           00000 00000                     2DEC     0          B-28
001608:
001609: 22,3654           00523 24403                     2DEC*    +1.930634433 E-11       B+30*
001610:
001611: 22,3656           14577 26600  R2FS               2DEC*    +6.684376002 E+6        B-24*
001612:
001613: 22,3660           00000 00000                     2DEC     0          B-28
001614:
001615: 22,3662           00000 03346                     2DEC*    +6.577892482 E-6        B-0*
001616:
001617: 22,3664           77775 65065  V2FS               2DEC*    -7.313936765 E-2        B-9*
001618:
001619: 22,3666           00000 00000                     2DEC     0          B-28
001620:
001621: 22,3670           77770 43440                     2DEC*    -1.469364771 E-8        B+15*
001622:
001623: 22,3672           76346 50661  J2FS2              2DEC*    -1.376890825 E-15       B+45*
001624:
001625: 22,3674           01731 21421  MA2FP2             2DEC*    +5.167109434 E+8        B-33*
001626:
001627:
001628:
001629: 22,3676           77602        TTF/4NU3           DEC*     -2.500000000 E+2        B-15*
001630:
001631: 22,3677           00011 21371  A3FS               2DEC*    +9.104196458 E-6        B+6*
001632:
001633: 22,3701           00004 01370                     2DEC*    +2.300091883 E-13       B+30*
001634:
001635: 22,3703           00261 13043                     2DEC*    +1.008094512 E-11       B+30*
001636:


001638:                                                                                                  #  ************************************************************************
001639:                                                                                                  #  SECOND DPS CONSTANTS
001640:                                                                                                  #  ************************************************************************
001641:
001642:                                                                                                  #  ADDRESS CONSTANTS
001643:
001644: 22,3705           02000        E2DPSL             ECADR    E2DPS                                 #  FOR ACCESSING EBANK OF 2DPS
001645: 22,3706  E4,1400                                  EBANK=   E2DPS
001646: 22,3706           02034 44064  IGNALGL            2BCADR   IGNALG
001647:
001648:
001649:                                                                                                  #  THE NEXT TWO CONSTANTS MUST BE KEPT
001650:                                                                                                  #  IN ORDER AND ADJACENT
001651: 22,3710           01436        TABLTTFL           ADRES    TABLTTF    +3                         #  ADRES TO REF TTF TABL
001652: 22,3711           00002        DEGTTF-1           OCT      2                                     #  DEGREE-1 OF TTF POWER SERIES
001653:
001654: 22,3712  E4,1662                                  EBANK=   EMP11JOB
001655: 22,3712           02035 74064  RETPREBL           2BCADR   RETPREB
001656:
001657: 22,3714  E4,1662                                  EBANK=   EMP11JOB
001658: 22,3714           02257 74064  RETBURNL           2BCADR   RETBURN
001659:
001660: 22,3716  E5,1565                                  EBANK=   ETHROT
001661: 22,3716           03476 60065  THROTCOL           2BCADR   THROTCON
001662:
001663:                                                                                                  #  ARITHMETIC FRACTIONS AND INTEGERS
001664:
001665: 22,3720     7750               TSCALE             =        BIT12
001666:
001667: 22,3720           00010        TSCALINV           OCT      00010
001668: 22,3721           00000        ZEROPOS            OCT      00000                                 #  LO ORDER PART OF TSCALINV, AND
001669: 22,3722           00000                           OCT      00000                                 #  FIRST COMPONENT OF ZERO VECTOR
001670: 22,3723           77777        ZERONEG            OCT      77777
001671: 22,3724           77777                           OCT      77777
001672: 22,3725           00000                           OCT      00000                                 #  LAST COMPONENT OF ZERO VECTOR, AND
001673: 22,3726           00000        PIGNALG            OCT      00000                                 #  HI ORDER PART OF PIGNALG, TPIP UNITS
001674: 22,3727           00310                           DEC      +2         E+2        B-14            #  LO ORDER PART OF PIGNALG, TPIP UNITS
001675:
001676: 22,3730           12525 12525  1/3DP              2DEC     .3333333333
001677:


001681: 22,3732           14000        SP3/8              DEC      .375       B14


001685: 22,3733           22000        SP9/16             DEC      .5625      B14
001686: 22,3734           25252 25253  2/3DP              2DEC     .6666666667
001687:
001688: 22,3736  22,3734               2DPS2/3            =        2/3DP


001692: 22,3736           30000        SP3/4              DEC      .75        B14
001693: 22,3737           31103 36652  PI/4               2DEC     +3.14159265 B-2
001694:
001695: 22,3741           00021        NSCALR-1           OCT      00021                                 #  6 X 3 - 1 TO XPR 3 VCTRS, RN, VN, GDT/2
001696:


End of include-file SECOND_DPS_GUIDANCE.agc.  Parent file is MAIN.agc


