
Source Code


000002:                                                                                                  ## Copyright:   Public domain.
000003:                                                                                                  ## Filename:    SINGLE_PRECISION_SUBROUTINES.agc
000004:                                                                                                  ## Purpose:     A module for revision 0 of BURST120 (Sunburst). It
000005:                                                                                                  ##              is part of the source code for the Lunar Module's
000006:                                                                                                  ##              (LM) Apollo Guidance Computer (AGC) for Apollo 5.
000007:                                                                                                  ## Assembler:   yaYUL
000008:                                                                                                  ## Contact:     Ron Burkey <info@sandroid.org>.
000009:                                                                                                  ## Website:     www.ibiblio.org/apollo/index.html
000010:                                                                                                  ## Mod history: 2016-09-30 RSB  Created draft version.
000011:                                                                                                  ##              2016-10-19 RSB  Transcribed ... I think it's identical to the
000012:                                                                                                  ##                              Aurora 12 version.
000013:


000015:    5354                                           BLOCK    02
000016:                                                                                                  #  SINGLE PRECISION SINE AND COSINE
000017:
000018:    5354           67746        SPCOS              AD       HALF                                  #  ARGUMENTS SCALED AT PI
000019:    5355           55130        SPSIN              TS       TEMK
000020:    5356           15360                           TCF      SPT
000021:    5357           41130                           CS       TEMK
000022:    5360           60000        SPT                DOUBLE
000023:    5361           55130                           TS       TEMK
000024:    5362           15373                           TCF      POLLEY
000025:    5363           57130                           XCH      TEMK
000026:    5364           51130                           INDEX    TEMK
000027:    5365           67744                           AD       LIMITS
000028:    5366           40000                           COM
000029:    5367           61130                           AD       TEMK
000030:    5370           55130                           TS       TEMK
000031:    5371           15373                           TCF      POLLEY
000032:    5372           15411                           TCF      ARG90
000033:    5373           00006        POLLEY             EXTEND
000034:    5374           71130                           MP       TEMK
000035:    5375           55131                           TS       SQ
000036:    5376           00006                           EXTEND
000037:    5377           75416                           MP       C5/2
000038:    5400           65415                           AD       C3/2
000039:    5401           00006                           EXTEND
000040:    5402           71131                           MP       SQ
000041:    5403           65414                           AD       C1/2
000042:    5404           00006                           EXTEND
000043:    5405           71130                           MP       TEMK
000044:    5406           20001                           DDOUBL
000045:    5407           55130                           TS       TEMK
000046:    5410           00002                           TC       Q
000047:    5411           50000        ARG90              INDEX    A
000048:    5412           47744                           CS       LIMITS
000049:    5413           00002                           TC       Q                                     #  RESULT SCALED AT 1
000050:    5414           31103        C1/2               DEC      .7853134
000051:    5415           65552        C3/2               DEC      -.3216146
000052:    5416           01124        C5/2               DEC      .0363551


000054:                                                                                                  #  ENTER WITH ARGUMENT IN A, EXIT WITH ROOT IN A.  IF GIVEN A NEGATIVE ARGUMENT, THE RETURN SKIPS WITH CCS RESULT.
000055:                                                                                                  #  MINUS ZERO RETURNS LIKE PLUS ZERO.
000056:                                                                                                  #  MAXIMUM ERROR IN ANSWER IS NO GREATER THAN 2 BITS.
000057:                                                                                                  #  INTERRUPT PROGRAMS USING SPROOT MUST SAVE AND RESTORE SR.
000058:
000059:
000060:
000061:    5417           55132        SPROOT             TS       SQRARG                                #  ENTER WITH C(A) = Y
000062:    5420           10000                           CCS      A
000063:    5421           15425                           TCF      POSARG                                #  IF PNZ, CONTINUE
000064:    5422           00002                           TC       Q                                     #  RETURN WITH 0 FOR +0
000065:    5423           24002                           INCR     Q
000066:    5424           00002                           TC       Q                                     #  RETURN WITH 0 FOR -0
000067:
000068:    5425           00006        POSARG             EXTEND
000069:    5426           23131                           QXCH     ROOTRET                               #  WILL BE CALLING SPROOT1
000070:    5427           65504                           AD       63/64+1                               #  B(A) = Y - 1
000071:    5430           54000                           OVSK
000072:    5431           15473                           TCF      SPROOT2
000073:    5432           57132                           XCH      SQRARG                                #  ARG JUGGLING
000074:
000075:    5433           55132        SPROOT3            TS       SQRARG
000076:    5434           54021                           TS       SR                                    #  C(A) = Y
000077:    5435           56021                           XCH      SR                                    #  (LOSE 1 BIT)
000078:    5436           55130                           TS       HALFY                                 #  HALFY = Y/2
000079:    5437           65502                           AD       -1/8                                  #  FORM Y/2 - 1/8
000080:    5440           10000                           CCS      A                                     #  TEST FOR FIRST GUESS
000081:    5441           65503                           AD       5/8+1                                 #  Y .G. 1/4, X = Y/2 + 1/2
000082:    5442           05447                           TC       HIGUESS                               #  +0 IMPOSSIBLE FROM ADDITION
000083:    5443           15444                           NOOP                                           #  Y .LE. 1/4, X/2 = Y + 1/16
000084:    5444           37751                           CAF      BIT11                                 #  1/16
000085:    5445           61132                           AD       SQRARG                                #  SQRARG = Y
000086:    5446           60000                           DOUBLE                                         #  X FROM X/2
000087:    5447           05462        HIGUESS            TC       SPROOT1
000088:    5450           05462                           TC       SPROOT1                               #  ITERATE TWICE
000089:    5451           57131                           XCH      ROOTRET                               #  SAVE ANSWER AND GET Q
000090:    5452           10000                           CCS      A
000091:    5453           57131                           XCH      ROOTRET                               #  NO SHIFT NEEDED
000092:    5454           05460                           TC       ROOTBCK
000093:    5455           57131                           XCH      ROOTRET                               #  Q NEG, SHIFT RIGHT THREE
000094:    5456           00006                           EXTEND
000095:    5457           77750                           MP       BIT12                                 #  EXP -3
000096:    5460           51131        ROOTBCK            INDEX    ROOTRET                               #  ROOTRET = Q - 1
000097:    5461           00001                           TC       1                                     #  RETURN, C(A) = SQRT(Y)
000098:
000099:    5462           56021        SPROOT1            XCH      SR                                    #  SR = X/2
000100:    5463           41130                           CS       HALFY                                 #  NEWTON ITER  X = X/2 + (Y/2 / X/2) / 2
000101:    5464           22007                           ZL
000102:    5465           00006                           EXTEND
000103:    5466           10021                           DV       SR                                    #  C(SR) = X/2 DV DOES NOT EDIT


000105:    5467           56021                           XCH      SR
000106:    5470           00006                           EXTEND
000107:    5471           60021                           SU       SR
000108:    5472           00002                           TC       Q                                     #  C(A) = X (NEXT)
000109:
000110:    5473           41131        SPROOT2            CS       ROOTRET                               #  SET RETURN Q NEG, AS FLAG
000111:    5474           55131                           TS       ROOTRET
000112:    5475           37755                           CAF      BIT7                                  #  SHIFT FOR SIGNIFCANCE
000113:    5476           00006                           EXTEND
000114:    5477           71132                           MP       SQRARG
000115:    5500           30001                           CA       L                                     #  B(A) = 0
000116:    5501           05433                           TC       SPROOT3
000117:
000118:    5502           73777        -1/8               OCTAL    73777
000119:    5503           24001        5/8+1              OCTAL    24001
000120:    5504           37401        63/64+1            OCTAL    37401
000121:

End of include-file SINGLE_PRECISION_SUBROUTINES.agc.  Parent file is MAIN.agc


