
Source Code


000002:                                                                                                  ## Copyright:   Public domain.
000003:                                                                                                  ## Filename:    SINGLE_PRECISION_SUBROUTINES.agc
000004:                                                                                                  ## Purpose:     A module for revision 0 of BURST120 (Sunburst). It
000005:                                                                                                  ##              is part of the source code for the Lunar Module's
000006:                                                                                                  ##              (LM) Apollo Guidance Computer (AGC) for Apollo 5.
000007:                                                                                                  ## Assembler:   yaYUL
000008:                                                                                                  ## Contact:     Ron Burkey <info@sandroid.org>.
000009:                                                                                                  ## Website:     www.ibiblio.org/apollo/index.html
000010:                                                                                                  ## Mod history: 2016-09-30 RSB  Created draft version.
000011:                                                                                                  ##              2016-10-19 RSB  Transcribed ... I think it's identical to the
000012:                                                                                                  ##                              Aurora 12 version.
000013:                                                                                                  ##              2016-12-06 RSB  Comments proofed using octopus/ProoferComments,
000014:                                                                                                  ##                              no changes made.
000015:


000017:    5354                                           BLOCK    02
000018:                                                                                                  #  SINGLE PRECISION SINE AND COSINE
000019:
000020:    5354           67746        SPCOS              AD       HALF                                  #  ARGUMENTS SCALED AT PI
000021:    5355           55130        SPSIN              TS       TEMK
000022:    5356           15360                           TCF      SPT
000023:    5357           41130                           CS       TEMK
000024:    5360           60000        SPT                DOUBLE
000025:    5361           55130                           TS       TEMK
000026:    5362           15373                           TCF      POLLEY
000027:    5363           57130                           XCH      TEMK
000028:    5364           51130                           INDEX    TEMK
000029:    5365           67744                           AD       LIMITS
000030:    5366           40000                           COM
000031:    5367           61130                           AD       TEMK
000032:    5370           55130                           TS       TEMK
000033:    5371           15373                           TCF      POLLEY
000034:    5372           15411                           TCF      ARG90
000035:    5373           00006        POLLEY             EXTEND
000036:    5374           71130                           MP       TEMK
000037:    5375           55131                           TS       SQ
000038:    5376           00006                           EXTEND
000039:    5377           75416                           MP       C5/2
000040:    5400           65415                           AD       C3/2
000041:    5401           00006                           EXTEND
000042:    5402           71131                           MP       SQ
000043:    5403           65414                           AD       C1/2
000044:    5404           00006                           EXTEND
000045:    5405           71130                           MP       TEMK
000046:    5406           20001                           DDOUBL
000047:    5407           55130                           TS       TEMK
000048:    5410           00002                           TC       Q
000049:    5411           50000        ARG90              INDEX    A
000050:    5412           47744                           CS       LIMITS
000051:    5413           00002                           TC       Q                                     #  RESULT SCALED AT 1
000052:    5414           31103        C1/2               DEC      .7853134
000053:    5415           65552        C3/2               DEC      -.3216146
000054:    5416           01124        C5/2               DEC      .0363551


000056:                                                                                                  #  ENTER WITH ARGUMENT IN A, EXIT WITH ROOT IN A.  IF GIVEN A NEGATIVE ARGUMENT, THE RETURN SKIPS WITH CCS RESULT.
000057:                                                                                                  #  MINUS ZERO RETURNS LIKE PLUS ZERO.
000058:                                                                                                  #  MAXIMUM ERROR IN ANSWER IS NO GREATER THAN 2 BITS.
000059:                                                                                                  #  INTERRUPT PROGRAMS USING SPROOT MUST SAVE AND RESTORE SR.
000060:
000061:
000062:
000063:    5417           55132        SPROOT             TS       SQRARG                                #  ENTER WITH C(A) = Y
000064:    5420           10000                           CCS      A
000065:    5421           15425                           TCF      POSARG                                #  IF PNZ, CONTINUE
000066:    5422           00002                           TC       Q                                     #  RETURN WITH 0 FOR +0
000067:    5423           24002                           INCR     Q
000068:    5424           00002                           TC       Q                                     #  RETURN WITH 0 FOR -0
000069:
000070:    5425           00006        POSARG             EXTEND
000071:    5426           23131                           QXCH     ROOTRET                               #  WILL BE CALLING SPROOT1
000072:    5427           65504                           AD       63/64+1                               #  B(A) = Y - 1
000073:    5430           54000                           OVSK
000074:    5431           15473                           TCF      SPROOT2
000075:    5432           57132                           XCH      SQRARG                                #  ARG JUGGLING
000076:
000077:    5433           55132        SPROOT3            TS       SQRARG
000078:    5434           54021                           TS       SR                                    #  C(A) = Y
000079:    5435           56021                           XCH      SR                                    #  (LOSE 1 BIT)
000080:    5436           55130                           TS       HALFY                                 #  HALFY = Y/2
000081:    5437           65502                           AD       -1/8                                  #  FORM Y/2 - 1/8
000082:    5440           10000                           CCS      A                                     #  TEST FOR FIRST GUESS
000083:    5441           65503                           AD       5/8+1                                 #  Y .G. 1/4, X = Y/2 + 1/2
000084:    5442           05447                           TC       HIGUESS                               #  +0 IMPOSSIBLE FROM ADDITION
000085:    5443           15444                           NOOP                                           #  Y .LE. 1/4, X/2 = Y + 1/16
000086:    5444           37751                           CAF      BIT11                                 #  1/16
000087:    5445           61132                           AD       SQRARG                                #  SQRARG = Y
000088:    5446           60000                           DOUBLE                                         #  X FROM X/2
000089:    5447           05462        HIGUESS            TC       SPROOT1
000090:    5450           05462                           TC       SPROOT1                               #  ITERATE TWICE
000091:    5451           57131                           XCH      ROOTRET                               #  SAVE ANSWER AND GET Q
000092:    5452           10000                           CCS      A
000093:    5453           57131                           XCH      ROOTRET                               #  NO SHIFT NEEDED
000094:    5454           05460                           TC       ROOTBCK
000095:    5455           57131                           XCH      ROOTRET                               #  Q NEG, SHIFT RIGHT THREE
000096:    5456           00006                           EXTEND
000097:    5457           77750                           MP       BIT12                                 #  EXP -3
000098:    5460           51131        ROOTBCK            INDEX    ROOTRET                               #  ROOTRET = Q - 1
000099:    5461           00001                           TC       1                                     #  RETURN, C(A) = SQRT(Y)
000100:
000101:    5462           56021        SPROOT1            XCH      SR                                    #  SR = X/2
000102:    5463           41130                           CS       HALFY                                 #  NEWTON ITER  X = X/2 + (Y/2 / X/2) / 2
000103:    5464           22007                           ZL
000104:    5465           00006                           EXTEND
000105:    5466           10021                           DV       SR                                    #  C(SR) = X/2 DV DOES NOT EDIT


000107:    5467           56021                           XCH      SR
000108:    5470           00006                           EXTEND
000109:    5471           60021                           SU       SR
000110:    5472           00002                           TC       Q                                     #  C(A) = X (NEXT)
000111:
000112:    5473           41131        SPROOT2            CS       ROOTRET                               #  SET RETURN Q NEG, AS FLAG
000113:    5474           55131                           TS       ROOTRET
000114:    5475           37755                           CAF      BIT7                                  #  SHIFT FOR SIGNIFCANCE
000115:    5476           00006                           EXTEND
000116:    5477           71132                           MP       SQRARG
000117:    5500           30001                           CA       L                                     #  B(A) = 0
000118:    5501           05433                           TC       SPROOT3
000119:
000120:    5502           73777        -1/8               OCTAL    73777
000121:    5503           24001        5/8+1              OCTAL    24001
000122:    5504           37401        63/64+1            OCTAL    37401
000123:

End of include-file SINGLE_PRECISION_SUBROUTINES.agc.  Parent file is MAIN.agc


