
Source Code


000002:                                                                                                  ## Copyright:    Public domain.
000003:                                                                                                  ## Filename:     SPS_BACK-UP_RCS_CONTROL.agc
000004:                                                                                                  ## Purpose:      A module for revision 0 of BURST120 (Sunburst). It
000005:                                                                                                  ##               is part of the source code for the Lunar Module's
000006:                                                                                                  ##               (LM) Apollo Guidance Computer (AGC) for Apollo 5.
000007:                                                                                                  ## Assembler:    yaYUL
000008:                                                                                                  ## Contact:      Ron Burkey <info@sandroid.org>.
000009:                                                                                                  ## Website:      www.ibiblio.org/apollo/index.html
000010:                                                                                                  ## Mod history:  2016-09-30 RSB  Created draft version.
000011:                                                                                                  ##               2016-09-30 MAS  Transcribed.
000012:                                                                                                  ##               2016-10-31 RSB  Typos.
000013:


000015: 21,3417                                           BANK     21
000016: 21,3417  E6,1542                                  EBANK=   DT
000017:
000018: 21,3417           40775        SPSRCS             CS       OMEGAQD
000019: 21,3420           61416                           AD       OMEGAQ
000020: 21,3421           55423                           TS       EDOTQ                                 #   EDOT = OMEGAQ - OMEGAQD
000021:
000022: 21,3422           61413                           AD       ER
000023: 21,3423           00006                           EXTEND                                         #  F = 1/4 E + EDOT
000024: 21,3424           63464                           BZMF     PLUSD                                 #  DQ NEGATIVE FOR POSITIVE F
000025:
000026: 21,3425           33571                           CAF      NEGD                                  #  STORE DIRECTION TO THRUST IN ITEMP3
000027:
000028: 21,3426           54063        GCOMPUTE           TS       ITEMP3
000029: 21,3427           31423                           CAE      EDOTQ
000030: 21,3430           00006                           EXTEND
000031: 21,3431           73570                           MP       ACONST                                #  ACONST = 2**(-11) X SQRT(1/2A X PI/1024)
000032: 21,3432           10000                           CCS      A
000033: 21,3433           13455                           TCF      LIMSQQ
000034: 21,3434           13436                           TCF      +2
000035: 21,3435           13455                           TCF      LIMSQQ
000036: 21,3436           22000                           LXCH     A                                     #  A = 2**(3) X SQRT(1/2A X PI/1024)
000037: 21,3437           00006        LIMRETQ            EXTEND
000038: 21,3440           70000                           SQUARE
000039: 21,3441           54062                           TS       ITEMP2                                #  ITEMP2 = (1/2A) EDOT**2
000040:
000041: 21,3442           61413                           AD       ER
000042: 21,3443           63571                           AD       NEGD                                  #  DB IS SPECIFIED BY NEGD IN SPS MODE
000043:
000044: 21,3444           00006                           EXTEND
000045: 21,3445           63472                           BZMF     UZERO
000046:
000047: 21,3446           31423                           CAE      EDOTQ                                 #  G WAS POSITIVE, NOW TEST EDOT
000048:
000049: 21,3447           00006                           EXTEND
000050: 21,3450           63461                           BZMF     ULOW
000051:
000052: 21,3451           60062                           AD       ITEMP2                                #  EDOT WAS POSITIVE, CALCULATE HIGH U CASE
000053: 21,3452           61413                           AD       ER
000054: 21,3453           55502                           TS       URGENCYQ
000055:
000056: 21,3454           13474                           TCF      RCALC
000057:
000058: 21,3455           37743        LIMSQQ             CAF      POSMAX
000059: 21,3456           13437                           TCF      LIMRETQ
000060: 21,3457           37743        LIMSQR             CAF      POSMAX
000061: 21,3460           13514                           TCF      LIMRETR
000062: 21,3461           61413        ULOW               AD       ER                                    #  EDOT WAS NEGATIVE, CALCULATE LOW U CASE
000063: 21,3462           55502                           TS       URGENCYQ


000065: 21,3463           13474                           TCF      RCALC
000066:
000067: 21,3464           41413        PLUSD              CS       ER
000068: 21,3465           57413                           XCH      ER
000069: 21,3466           41423                           CS       EDOTQ
000070: 21,3467           57423                           XCH      EDOTQ
000071: 21,3470           43571                           CS       NEGD
000072: 21,3471           13426                           TCF      GCOMPUTE
000073:
000074: 21,3472           37767        UZERO              CAF      ZERO                                  #  G = 0, NO URGENCY
000075: 21,3473           55502                           TS       URGENCYQ
000076:
000077: 21,3474           40776        RCALC              CS       OMEGARD                               #  REPEAT CALCULATIONS FOR R-AXIS
000078: 21,3475           61420                           AD       OMEGAR
000079: 21,3476           55424                           TS       EDOTR
000080:
000081: 21,3477           61411                           AD       E                                     #  F = 1/4 E + EDOT
000082: 21,3500           00006                           EXTEND
000083: 21,3501           63535                           BZMF     PLUSDR
000084:
000085: 21,3502           33571                           CAF      NEGD
000086:
000087: 21,3503           54064        GCOMPUTR           TS       ITEMP4
000088: 21,3504           31424                           CAE      EDOTR
000089: 21,3505           00006                           EXTEND
000090: 21,3506           73570                           MP       ACONST                                #  ACONST = 2**(-11) X SQRT(1/2A X PI/1024)
000091: 21,3507           10000                           CCS      A
000092: 21,3510           13457                           TCF      LIMSQR
000093: 21,3511           13513                           TCF      +2
000094: 21,3512           13457                           TCF      LIMSQR
000095: 21,3513           22000                           LXCH     A                                     #  A = 2**(3) X SQRT(1/2A X PI/1024)
000096: 21,3514           00006        LIMRETR            EXTEND
000097: 21,3515           70000                           SQUARE
000098: 21,3516           54062                           TS       ITEMP2
000099:
000100: 21,3517           61411                           AD       E
000101: 21,3520           63571                           AD       NEGD
000102:
000103: 21,3521           00006                           EXTEND
000104: 21,3522           63543                           BZMF     UZEROR
000105:
000106: 21,3523           31424                           CAE      EDOTR
000107:
000108: 21,3524           00006                           EXTEND
000109: 21,3525           63532                           BZMF     ULOWR
000110:
000111: 21,3526           60062                           AD       ITEMP2                                #  EDOT WAS POSITIVE, CALCULATE HIGH U CASE
000112: 21,3527           61411                           AD       E
000113: 21,3530           55504                           TS       URGENCYR


000115: 21,3531           13545                           TCF      URGRECT
000116: 21,3532           61411        ULOWR              AD       E                                     #  EDOT WAS NEGATIVE, CALCULATE LOW U CASE
000117: 21,3533           55504                           TS       URGENCYR
000118:
000119: 21,3534           13545                           TCF      URGRECT
000120: 21,3535           41411        PLUSDR             CS       E
000121: 21,3536           57411                           XCH      E
000122: 21,3537           41424                           CS       EDOTR
000123: 21,3540           57424                           XCH      EDOTR
000124: 21,3541           43571                           CS       NEGD
000125: 21,3542           13503                           TCF      GCOMPUTR
000126:
000127: 21,3543           37767        UZEROR             CAF      ZERO
000128: 21,3544           55504                           TS       URGENCYR
000129:
000130: 21,3545           10064        URGRECT            CCS      ITEMP4                                #  DR = ITEMP4, NON-ZERO
000131: 21,3546           41504                           CS       URGENCYR                              #  DR POS = POSR JETS = URGENCY NEG
000132: 21,3547           55504                           TS       URGENCYR                              #  URGENCYR NEGATIVE
000133:
000134: 21,3550           10063                           CCS      ITEMP3                                #  DQ = ITEMP3, NON-ZERO
000135: 21,3551           41502                           CS       URGENCYQ                              #  DQ POS = POSR JETS = NEGATIVE URGENCY
000136: 21,3552           55502                           TS       URGENCYQ
000137:
000138: 21,3553           33572                           CAF      RESADR                                #  RESADR = JETSON AFTER POLICY LOCATION
000139: 21,3554           54062                           TS       TJETADR
000140:
000141: 21,3555           37744                           CAF      NEG1/2                                #  SET URGLIMIT = NEGMAX FOR ONLY
000142: 21,3556           54066                           TS       URGLIMIT                              #           2 JET RESPONSE
000143: 21,3557           55673                           TS       NJ-U                                  #  SET JETS FOR NO OFFSET CORRECTION
000144: 21,3560           55672                           TS       NJ+U
000145: 21,3561           55675                           TS       NJ-V
000146: 21,3562           55674                           TS       NJ+V
000147:
000148: 21,3563           00006                           EXTEND
000149: 21,3564           33567                           DCA      URGAXADR
000150: 21,3565           52006                           DTCB
000151:
000152: 21,3566  E6,1416                                  EBANK=   OMEGAQ
000153: 21,3566           03154 36066  URGAXADR           2CADR    URGPLANE
000154:
000155: 21,3570           00016        ACONST             OCTAL    00016
000156: 21,3571           77511        NEGD               DEC      -0.0111
000157: 21,3572           03730        RESADR             REMADR   JETSON                                #  JETSON IS IN Q,R TJETLAW
000158:


000160:                                                                                                  #  THE TRYGTS CODING IS AN EXTENSION OF THE Q,R-AXES REACTION CONTROL SYSTEM AUTOPILOT.  TRYGTS CALLS UPON THE GTS
000161:                                                                                                  #  CODING WHENEVER Q,R-AXIS CONTROL FINDS ITSELF ENTERING A COAST REGION WITH JETS OFF.
000162:
000163: 21,3573  E6,1542                                  EBANK=   DT
000164: 21,3573           37762        TRYGTS             CAF      USEQRJTS                              #  IS JET USE MANDATORY.
000165: 21,3574           70077                           MASK     DAPBOOLS
000166: 21,3575           10000                           CCS      A
000167: 21,3576           15733                           TCF      RESUME                                #  YES.  RESUME.
000168:
000169: 21,3577           00006                           EXTEND                                         #  NO.  CALL IN GTS, IF POSSIBLE.
000170: 21,3600           00012                           READ     12
000171: 21,3601           73617                           MASK     BGIM21                                #  ARE GIMBALS STILL DRIVING.
000172: 21,3602           10000                           CCS      A
000173: 21,3603           15733                           TCF      RESUME                                #  GIMBALS STILL DRIVING.  TRY AGAIN LATER.
000174:
000175: 21,3604           46311        GOTOGTS            CS       THREE                                 #  GIMBALS STOPPED.  RESET TIME5 COUNTER
000176: 21,3605           26030                           ADS      TIME5                                 #  FROM 20 MS TO 50 MS.
000177: 21,3606           00006                           EXTEND                                         #  NEXT T5RUPT IN 50 MS IS PAXIS.
000178: 21,3607           32100                           DCA      PAX/FILT
000179: 21,3610           53001                           DXCH     T5ADR
000180:
000181: 21,3611           13404        INSRT21A           TCF      TESTCNTR                              #  DETERMINE WHAT TO PUT IN PASSCTR.
000182: 21,3612           55736        LOADCNTR           TS       PASSCTR                               #  NMBR PASSES REQUIRED TO WARM UP FILTER
000183: 21,3613           00006                           EXTEND
000184: 21,3614           33621                           DCA      RATEINAD                              #  NEXT T5RUPT AFTER NEXT PAXIS IS RATEINIT
000185: 21,3615           53573                           DXCH     PFILTADR                              #  CONTROL FLOW SWITCH CELL FOR PAXIS RUPT.
000186: 21,3616           15733                           TCF      RESUME
000187:
000188: 21,3617           07400        BGIM21             OCT      07400                                 #  TRIM GIMBAL BITS IN CHANNEL 12 ARE 9-12.
000189: 21,3620  E6,1542                                  EBANK=   DT
000190: 21,3620           03622 42066  RATEINAD           2CADR    RATEINIT                              #  RATE INITIALIZATION FOR KALMAN FILTER.
000191:


000193: 21,3622           33645        RATEINIT           CAF      FILTMS50                              #  RESET TIMER IMMEDIATELY  DT = 50 MS.
000194: 21,3623           54030                           TS       TIME5
000195:
000196: 21,3624           22016                           LXCH     BANKRUPT                              #  INTERRUPT LEAD-IN (CONTINUED)
000197: 21,3625           00006                           EXTEND
000198: 21,3626           22012                           QXCH     QRUPT
000199:
000200: 21,3627           00006                           EXTEND                                         #  FILTINIT WILL BE NEXT T5RUPT, IN 50 MS.
000201: 21,3630           33644                           DCA      FILINADR
000202: 21,3631           53001                           DXCH     T5ADR
000203:
000204: 21,3632           33635                           CA       BACKHOME                              #  ESTABLISH RETURN SWITCH FROM THE PROCESS
000205: 21,3633           55544                           TS       STEERADR                              #  OF READING CDUY,Z AND TIMER.  TO BE USED
000206: 21,3634           12042                           TCF      FILSTART   +1                         #  IN FILTINIT FOR RATE INITIALIZATION
000207:
000208: 21,3635           03636        BACKHOME           GENADR   BACKHOME   +1
000209:
000210: 21,3636           23543                           LXCH     DAPTIME                               #  RETURN HERE TO STORE DATA JUST DESCRIBED
000211: 21,3637           00006                           EXTEND
000212: 21,3640           31541                           DCA      STORCDUY                              #  IN 2S COMPLEMENT, SCALED AT PI
000213: 21,3641           53741                           DXCH     HOLDCDUY                              #  HOLD FOR RATE DERIVATION
000214: 21,3642           15733                           TCF      RESUME
000215:
000216: 21,3643  E6,1542                                  EBANK=   DT
000217: 21,3643           02000 42066  FILINADR           2CADR    FILTINIT
000218:
000219: 21,3645           37773        FILTMS50           OCT      37773                                 #  50 MS CONSTANT FOR TIME5
000220:
000221: 21,3646           03647        HOMAGAIN           GENADR   HOMAGAIN   +1
000222: 21,3647           37763                           CA       BIT1                                  #  SET UP RATE CALCULATION LOOP, Z AXIS 1ST
000223: 21,3650           54066        HOMELOOP           TS       QRCNTR
000224: 21,3651           60000                           DOUBLE
000225: 21,3652           54061                           TS       KCENTRAL
000226: 21,3653           50066                           INDEX    QRCNTR
000227: 21,3654           31540                           CA       STORCDUY                              #  2S COMPLEMENT AT PI
000228: 21,3655           00006                           EXTEND
000229: 21,3656           50066                           INDEX    QRCNTR
000230: 21,3657           21740                           MSU      HOLDCDUY                              #  DIFFERENCE IN 1S COMPLEMENT, AT PI
000231: 21,3660           00006                           EXTEND
000232: 21,3661           77756                           MP       BIT6                                  #  DIFFERENCE IN L, AT PI/2(5)
000233: 21,3662           56001                           XCH      L                                     #  ZERO L, PREPARE FOR DIVISION BY DT
000234: 21,3663           00006                           EXTEND
000235: 21,3664           11542                           DV       DT                                    #  DT IS AT 1/8, SO RATE IS AT PI/4
000236: 21,3665           50061                           INDEX    KCENTRAL
000237: 21,3666           53560                           DXCH     DCDUYFIL                              #  STORE S.P. INITIAL RATE ESTIMATE
000238: 21,3667           10066                           CCS      QRCNTR                                #  ARE BOTH RATES DONE YET.
000239: 21,3670           13650                           TCF      HOMELOOP                              #  NO.   NOW DO Y AXIS
000240: 21,3671           33674                           CA       ORDINARY                              #  YES.   SET SWITCH FOR NORMAL OPERATION


000242: 21,3672           55742                           TS       STEERAD2
000243: 21,3673           12323                           TCF      FILFIRST   +1
000244: 21,3674           02075        ORDINARY           GENADR   PAX/FILT   -2
000245:
000246: 21,3675           37767        CLEARCH5           CAF      ZERO                                  #  TURN OFF Q,R-AXES RCS JETS.
000247: 21,3676           00006                           EXTEND
000248: 21,3677           01005                           WRITE    5
000249: 21,3700           33646                           CAF      HOMAGAIN                              #  SET UP TO PREVENT FILTERING DURING THE
000250: 21,3701           55742                           TS       STEERAD2                              #  INITIALIZATION.
000251: 21,3702           12042                           TCF      FILSTART   +1                         #  T6JOBCHK NOT NEEDED.  CHANNEL 5 ZEROED.
000252:
000253: 21,3703           53575        COUNTDWN           DXCH     PFRPTLST                              #  FINISH CYCLING POST RUPT LIST.
000254:
000255: 21,3704           11736                           CCS      PASSCTR                               #  DECREMENT PASSCTR.
000256: 21,3705           55736                           TS       PASSCTR
000257: 21,3706           12041                           TCF      FILSTART
000258:
000259: 21,3707           55542        TIMEDONE           TS       DT                                    #  DT STORED.  SCALED AT 1/8.
000260: 21,3710           01742                           TC       STEERAD2                              #  BYPASS FILTERING DURING INITIALIZATION.
000261: 21,3711           12075                           TCF      PAX/FILT   -2
000262:
000263: 21,3712           33720        USUALXIT           CA       GOQADR
000264: 21,3713           55737                           TS       SLECTLAW                              #  SET LOOP EXIT FOR SIMPLE CONTROL OR NOT.
000265: 21,3714           13005                           TCF      GTSQAXIS
000266:
000267: 21,3715           11736        TESTPCTR           CCS      PASSCTR                               #  EITHER ZERO (+) , OR POSITIVE
000268: 21,3716           13722                           TCF      SIMPCTRL                              #  USE SIMPLE CONTROL - NULLIFY ALPHA.
000269: 21,3717           12731                           TCF      RCSCNTRL                              #  TO TO Q,R JETS.
000270:
000271: 21,3720           03003        GOQADR             GENADR   GOQTRIMG
000272: 21,3721           03726        SIMPQADR           GENADR   SIMPQTRG
000273:
000274: 21,3722           33721        SIMPCTRL           CA       SIMPQADR                              #  SET UP 2ND PASS THROUGH CONTROL LOOP.
000275: 21,3723           55737                           TS       SLECTLAW
000276: 21,3724           37762                           CAF      TWO                                   #  SET UP INDEX FOR 1ST PASS THROUGH SIM
000277: 21,3725           13727                           TCF      SIMPLOOP                              #  PLE CONTROL LAW.  (R-AXIS)
000278: 21,3726           37767        SIMPQTRG           CAF      ZERO                                  #  SET INDEX FOR Q-AXIS
000279: 21,3727           54066        SIMPLOOP           TS       QRCNTR
000280: 21,3730           50066                           INDEX    QRCNTR
000281: 21,3731           11417                           CCS      ALPHAQ                                #  CHOOSE DRIVE TO NULL ALPHA
000282: 21,3732           37763                           CA       BIT1
000283: 21,3733           13176                           TCF      POSDRIVE
000284: 21,3734           47763                           CS       BIT1
000285: 21,3735           13176                           TCF      POSDRIVE                              #  DRIVE BITS GO TO THE CHANNEL
000286:


000288:                                                                                                  #  START CODING FOR MODULE 3 REMAKE, AUGUST 1967***START CODING FOR MODULE 3 REMAKE, AUGUST 1967*******************
000289:
000290:                                                                                                  #  FROM GTS: WHEN TRIMCNTR ACTIVE,  DO SIMPCTRL IF THE FILTER IS NOT WARM
000291:                                                                                                  #            AND DO A TGOFF DRIVE IF IT IS.
000292:
000293: 21,3736           11764        CHKCNTR            CCS      SIMPCNTR                              #  CHOOSE SIMPCTRL OR NORMAL GTS CONTROL.
000294: 21,3737           13715                           TCF      TESTPCTR                              #  SIMPCTRL UNTIL PASSCTR IS ZERO,THEN EXIT
000295: 21,3740           13743                           TCF      NORMCTRL                              #  NORMAL GTS CONTROL.
000296: 21,3741           04736                           TC       CCSHOLE
000297: 21,3742           04736                           TC       CCSHOLE
000298:
000299: 21,3743           37763        NORMCTRL           CAF      BIT1                                  #  RETURN TO NORMAL GTS CONTROL.
000300: 21,3744           12701                           TCF      INSERT21   +1
000301:
000302:                                                                                                  #  FROM CHEKDRIV: ALLOW TGOFFCAL DRIVES AND DISABLE SPECIAL GTS INDICATORS
000303:
000304: 21,3745           03307        WARMFILT           TC       TGOFFCAL                              #  (A= 0, INDEX FOR Q-AXIS IN TGOFFCAL)
000305: 21,3746           37745                           CAF      NEGMAX                                #  RETURN HERE FOR NO Q DRIVE.
000306: 21,3747           54063                           TS       ITEMP3                                #  RETURN HERE WITH TIME IN A (DECASECONDS)
000307:
000308: 21,3750           37762                           CAF      TWO                                   #  INDEX FOR R-AXIS.
000309: 21,3751           03307                           TC       TGOFFCAL
000310: 21,3752           37745                           CAF      NEGMAX                                #  RETURN HERE FOR NO R DRIVE.
000311: 21,3753           54001                           TS       L                                     #  RETURN HERE WITH TIME IN A (DECASECONDS)
000312: 21,3754           30063                           CAE      ITEMP3
000313: 21,3755           53754                           DXCH     QGIMTIMR                              #  SET TIMERS SIMULTANEOUSLY FOR RESTART
000314:                                                                                                  #    PROTECTION.
000315: 21,3756           03243                           TC       WRCHN12                               #  START DRIVES
000316:
000317: 21,3757           11744                           CCS      TRIMCNTR                              #  DEACTIVATE TRIMCNTR IF IT HAS REACHED -0
000318: 21,3760           13765                           TCF      +5
000319: 21,3761           04736                           TC       CCSHOLE
000320: 21,3762           13765                           TCF      +3
000321: 21,3763           37745                           CAF      NEGMAX
000322: 21,3764           55744                           TS       TRIMCNTR
000323: 21,3765           37767                 +5        CAF      ZERO                                  #  DEACTIVATE GTSMNITR NOW THAT TGOFFCAL
000324: 21,3766           55745                           TS       GTSMNITR                              #    HAS BEEN DONE
000325: 21,3767           15727                           TCF      TASKOVER
000326:
000327:                                                                                                  #  **END CODING FOR MODULE 3 REMAKE, AUGUST 1967*****END CODING FOR MODULE 3 REMAKE, AUGUST 1967*******************
000328:
000329: 21,3770           37777        CHKSUM21           OCT      37777

End of include-file SPS_BACK-UP_RCS_CONTROL.agc.  Parent file is MAIN.agc


