
Source Code


000002:                                                                                                  ## Copyright:   Public domain.
000003:                                                                                                  ## Filename:    T4RUPT_PROGRAM.agc
000004:                                                                                                  ## Purpose:     A module for revision 0 of BURST120 (Sunburst). It
000005:                                                                                                  ##              is part of the source code for the Lunar Module's
000006:                                                                                                  ##              (LM) Apollo Guidance Computer (AGC) for Apollo 5.
000007:                                                                                                  ## Assembler:   yaYUL
000008:                                                                                                  ## Contact:     Ron Burkey <info@sandroid.org>.
000009:                                                                                                  ## Website:     www.ibiblio.org/apollo/index.html
000010:                                                                                                  ## Mod history: 2016-09-30 RSB  Created draft version.
000011:                                                                                                  ##              2016-10-05 RSB  Finished transcribing.
000012:                                                                                                  ##              2016-10-30 MAS  Some spelling corrections, channel updates and a line correction.
000013:                                                                                                  ##              2016-10-31 RSB  Typo.
000014:                                                                                                  ##              2016-11-02 RSB  More typos.
000015:                                                                                                  ##              2016-12-03 RSB  Fixed a bunch of typos in the comments, using octopus/ProoferComments,
000016:                                                                                                  ##                              but some of the pages still don't work well with octopus, so the
000017:                                                                                                  ##                              proofing process isn't complete yet.
000018:                                                                                                  ##              2016-12-04 RSB  I was a bit too aggressive yesterday in interpreting noise in the scans
000019:                                                                                                  ##                              as colons, and have backed that off in 5 places.  Also, fixed a couple
000020:                                                                                                  ##                              more typos.
000021:                                                                                                  ##              2016-12-05 RSB  Comment-proofing process with octopus/ProoferComments completed;
000022:                                                                                                  ##                              fixes made.
000023:                                                                                                  ##              2017-01-26 RSB  Back-ported a comment-text fix found while
000024:                                                                                                  ##                              proofing corresponding Luminary 69 file.
000025:                                                                                                  ##              2017-01-28 RSB  WTIH -> WITH.
000026:                                                                                                  ##              2017-03-03 RSB  Fixed comment-text errors identified while proofing
000027:                                                                                                  ##                              Luminary 116.
000028:


000030: 12,2000                                           BANK     12
000031:
000032: 12,2000  E6,1404                                  EBANK=   M11
000033: 12,2000           54016        T4RUPT             TS       BANKRUPT
000034:
000035: 12,2001           37767                           CA       ZERO
000036: 12,2002           00006                           EXTEND                                         #  ZERO OUT0 EVERY T4RUPT.
000037: 12,2003           01010                           WRITE    OUT0
000038:
000039: 12,2004           50346                           INDEX    T4LOC                                 #  NORMALLY TO NORMT4, BUT TO LMPRESET OR
000040: 12,2005           10000                           TCF      0                                     #  DSKYRSET AFTER OUT0 COMMAND.
000041:
000042: 12,2006           10347        NORMT4             CCS      DSRUPTSW                              #  GOES 7(-1)0.
000043: 12,2007           12011                           TCF      +2
000044: 12,2010           37765                           CAF      SEVEN
000045: 12,2011           54347                           TS       DSRUPTSW
000046:
000047: 12,2012           12030                           TCF      T4RUPTA
000048:
000049: 12,2013           34276        LMPRESET           CAF      LNORMT4                               #  DO THINGS IN THIS ORDER FOR RESTART
000050: 12,2014           54346                           TS       T4LOC                                 #  PROTECTION.
000051: 12,2015           31145                           CA       LMPOUTT                               #  NEW VALUE OF OUTPUT POINTER.
000052: 12,2016           55144                           TS       LMPOUT
000053: 12,2017           47763                           CS       ONE                                   #  TO SHOW OUTPUT POINTER ALREADY UPDATED.
000054: 12,2020           55145                           TS       LMPOUTT
000055: 12,2021           34274                           CAF      90MRUPT
000056: 12,2022           12026                           TCF      +4
000057:
000058: 12,2023           34276        DSKYRSET           CAF      LNORMT4                               #  20 MS ON / 100 MS OFF.
000059: 12,2024           54346                           TS       T4LOC
000060: 12,2025           34275                           CAF      100MRUPT
000061: 12,2026           54027                 +4        TS       TIME4
000062: 12,2027           15735                           TCF      NOQRSM
000063:    4274                                           BLOCK    02
000064:    4274           37767        90MRUPT            DEC      16375      B-14
000065:    4275           37766        100MRUPT           DEC      16374      B-14
000066:    4276           02006        LNORMT4            ADRES    NORMT4
000067:    4277           74000        74K                OCT      74000
000068:
000069:                                                                                                  #  RELTAB IS A PACKED TABLE. RELAYWORD CODE IN UPPER 4 BITS, RELAY CODE
000070:                                                                                                  #  IN LOWER 5 BITS.
000071:
000072:    4300           04025        RELTAB             OCT      04025
000073:    4301           10003                           OCT      10003
000074:    4302           14031                           OCT      14031
000075:    4303           20033                           OCT      20033
000076:    4304           24017                           OCT      24017
000077:    4305           30036                           OCT      30036
000078:    4306           34034                           OCT      34034
000079:    4307           40023                           OCT      40023
000080:    4310           44035                           OCT      44035


000082:    4311           50037                           OCT      50037
000083:    4312           54000                           OCT      54000
000084:    4313           60000        RELTAB11           OCT      60000
000085:


000087:                                                                                                  #  SWITCHED-BANK PORTION.
000088:
000089: 12,2030                                           BANK     12
000090: 12,2030           00006        T4RUPTA            EXTEND
000091: 12,2031           22012                           QXCH     QRUPT
000092:
000093: 12,2032           51144                           INDEX    LMPOUT                                #  SEE IF LMP COMMAND TO BE PUT OUT.
000094: 12,2033           11133                           CCS      LMPCMD
000095: 12,2034           12056                           TCF      CDRVE                                 #  BIT 15 = 1 AND (UP TO) BITS 1 - 11
000096: 12,2035           12056                           TCF      CDRVE                                 #  CONTAIN THE COMMAND.
000097:
000098: 12,2036           32147                           CAF      LLMPRS                                #  SET T4 FOR SPECIAL RUPT AND SHOW LMP
000099: 12,2037           54346                           TS       T4LOC                                 #  COMMAND IN PROGRESS IF RESTART.
000100:
000101: 12,2040           34563                           CAF      LOW11
000102: 12,2041           51144                           INDEX    LMPOUT
000103: 12,2042           71133                           MASK     LMPCMD                                #  LEAVE COMMAND PORTION INTACT.
000104: 12,2043           51144                           INDEX    LMPOUT
000105: 12,2044           55133                           TS       LMPCMD
000106: 12,2045           64277                           AD       74K
000107: 12,2046           00006                           EXTEND
000108: 12,2047           01010                           WRITE    OUT0
000109:
000110: 12,2050           11144                           CCS      LMPOUT                                #  PREDICT NEW VALUE OF LMPOUT BUT DONT
000111: 12,2051           12053                           TCF      +2                                    #  UPDATE IT UNTIL COMMAND SENT (IN CASE OF
000112: 12,2052           37765                           CAF      SEVEN                                 #  RESTART.)
000113: 12,2053           55145                           TS       LMPOUTT
000114:
000115: 12,2054           32150                           CAF      30MRUPT
000116: 12,2055           12133                           TCF      SETTIME4
000117:
000118: 12,2056           10326        CDRVE              CCS      DSPTAB     +11D
000119: 12,2057           02066                           TC       DSPOUT
000120: 12,2060           02066                           TC       DSPOUT
000121:
000122: 12,2061           56326                           XCH      DSPTAB     +11D
000123: 12,2062           74563                           MASK     LOW11
000124: 12,2063           54326                           TS       DSPTAB     +11D
000125: 12,2064           64313                           AD       RELTAB11
000126: 12,2065           02126                           TC       DSPLAYC
000127:


000129:                                                                                                  #  DSPOUT PROGRAM. PUTS OUT DISPLAYS.
000130:
000131: 12,2066           10307        DSPOUT             CCS      NOUT                                  #  DRIVE DISPLAY SYSTEM RELAYS.
000132: 12,2067           12072                           TCF      +3
000133:
000134: 12,2070           32107        NODSPOUT           CAF      120MRUPT                              #  SET FOR RUPT IN 120 MS IF NO RELAYS.
000135: 12,2071           12133                           TCF      SETTIME4
000136:
000137: 12,2072           54307                           TS       NOUT
000138: 12,2073           47767                           CS       ZERO
000139: 12,2074           54073                           TS       DSRUPTEM                              #  SET TO -0 FOR 1ST PASS THRU DSPTAB
000140: 12,2075           56345                           XCH      DSPCNT
000141: 12,2076           67770                           AD       NEG0                                  #  TO PREVENT +0
000142: 12,2077           54345                           TS       DSPCNT
000143: 12,2100           50345        DSPSCAN            INDEX    DSPCNT
000144: 12,2101           10313                           CCS      DSPTAB
000145: 12,2102           10345                           CCS      DSPCNT                                #  IF DSPTAB ENTRY +, SKIP
000146: 12,2103           02076                           TC       DSPSCAN    -2                         #  IF DSPCNT +, AGAIN
000147: 12,2104           02115                           TC       DSPLAY                                #  IF DSPTAB ENTRY -, DISPLAY
000148: 12,2105           00012        TABLNTH            OCT      12                                    #  DEC 10   LENGTH OF DSPTAB
000149: 12,2106           10073                           CCS      DSRUPTEM                              #  IF DSRUPTEM=+0, 2ND PASS THRU DSPTAB
000150: 12,2107           37764        120MRUPT           DEC      16372      B-14                       #  (DSPCNT = 0).  +0 INTO NOUT.
000151: 12,2110           54307                           TS       NOUT
000152: 12,2111           12070                           TCF      NODSPOUT
000153: 12,2112           54073                           TS       DSRUPTEM                              #  IF DSRUPTEM=-0, 1ST PASS THRU DSPTAB
000154: 12,2113           32105                           CAF      TABLNTH                               #  (DSPCNT=0).+0 INTO DSRUPTEM. PASS AGAIN
000155: 12,2114           02077                           TC       DSPSCAN    -1
000156:
000157: 12,2115           67763        DSPLAY             AD       ONE
000158: 12,2116           50345                           INDEX    DSPCNT
000159: 12,2117           54313                           TS       DSPTAB                                #  REPLACE POSITIVELY
000160: 12,2120           74563                           MASK     LOW11                                 #  REMOVE BITS 12 TO 15
000161: 12,2121           54073                           TS       DSRUPTEM
000162: 12,2122           34560                           CAF      HI5
000163: 12,2123           50345                           INDEX    DSPCNT
000164: 12,2124           74300                           MASK     RELTAB                                #  PICK UP BITS 12 TO 15 OF RELTAB ENTRY
000165: 12,2125           60073                           AD       DSRUPTEM
000166: 12,2126           00006        DSPLAYC            EXTEND
000167: 12,2127           01010                           WRITE    OUT0
000168:
000169: 12,2130           32146                           CAF      LDSKYRS
000170: 12,2131           54346                           TS       T4LOC
000171: 12,2132           32151                           CAF      20MRUPT
000172:
000173: 12,2133           54027        SETTIME4           TS       TIME4
000174:


000176:                                                                                                  #  JUMP TO APPROPRIATE ONCE-PER SECOND (.96 SEC ACTUALLY) ACTIVITY
000177:
000178: 12,2134           50347        T4JUMP             INDEX    DSRUPTSW
000179: 12,2135           12136                           TCF      +1
000180:
000181: 12,2136           03166                           TC       RCSMONIT
000182: 12,2137           03161                           TC       NORRGMON                              #  WAS TCF RRAUTCHK (NO RADAR IN 206).
000183: 12,2140           12305                           TCF      IMUMON
000184: 12,2141           13161                           TCF      DAPT4S
000185: 12,2142           15733                           TCF      RESUME
000186: 12,2143           03161                           TC       NORRGMON                              #  WAS TCF RRAUTCHK (NO RADAR IN 206).
000187: 12,2144           12305                           TCF      IMUMON
000188: 12,2145           13161                           TCF      DAPT4S
000189:
000190: 12,2146           02023        LDSKYRS            ADRES    DSKYRSET
000191: 12,2147           02013        LLMPRS             ADRES    LMPRESET
000192:
000193: 12,2150           37775        30MRUPT            DEC      16381      B-14
000194: 12,2151           37776        20MRUPT            DEC      16382      B-14
000195:


000197:                                                                                                  #  THIS ROUTINE SERVICES THE METER OUTPUTS.
000198:
000199:                                                                                                  #  DIDFLG INDICATES THE STATE OF THE PROGRAM..............
000200:                                                                                                  #  IF GREATER THAN ZERO, THEN UNABLE TO DISPLAY DATA
000201:                                                                                                  #  IF EQUAL TO ZERO, THEN THE PROGRAM IS IN USE
000202:                                                                                                  #  IF LESS THAN ZERO, THEN THE PROGRAM IS ABLE TO BE USED............
000203:
000204: 12,2152           02225        ALTOUT             TC       DISINDAT
000205: 12,2153           47762                           CS       BIT2
000206: 12,2154           00006                           EXTEND
000207: 12,2155           03014                           WAND     14                                    #  SET UP OUTPUT FOR ALTITUDE
000208: 12,2156           10351                           CCS      ALT                                   #  -1 IF OLD DATA TO BE EXTRAPOLATED.
000209: 12,2157           12163                           TCF      +4                                    #  NEW DATA.
000210: 12,2160           12163                           TCF      +3
000211: 12,2161           12167                           TCF      OLDDATA
000212:
000213: 12,2162           54351                           TS       ALT                                   #  CHANGE -0 IN ALT TO +0.
000214: 12,2163           47763                           CS       ONE                                   #  RESET ALTSAVE.
000215: 12,2164           52352                           DXCH     ALT
000216: 12,2165           52364        ZDATA2             DXCH     ALTSAVE
000217: 12,2166           12207                           TCF      NEWDATA
000218:
000219: 12,2167           30353        OLDDATA            CA       ALTRATE                               #  USE ALTRATE TO EXTRAPOLATE.
000220: 12,2170           00006                           EXTEND
000221: 12,2171           72302                           MP       ARTOA                                 #  RATE APPLIES FOR .96 SEC.
000222: 12,2172           60364                           AD       ALTSAVE    +1
000223: 12,2173           54364                           TS       ALTSAVE    +1                         #  AND MAYBE SKIP.
000224: 12,2174           37767                           CAF      ZERO
000225: 12,2175           26363                           ADS      ALTSAVE
000226:
000227: 12,2176           37743                           CAF      POSMAX                                #  FORCE SIGN AGREEMENT ASSUMING ALTSAVE IS
000228: 12,2177           67763                           AD       ONE                                   #  NOT NEGATIVE. IF IT IS, THE FINAL TS
000229: 12,2200           60364                           AD       ALTSAVE    +1                         #  WILL NOT SKIP AND WE CAN SET ALTSAVE TO
000230: 12,2201           54364                           TS       ALTSAVE    +1                         #  ZERO IN THAT CASE.
000231: 12,2202           37767                           CAF      ZERO
000232: 12,2203           67743                           AD       POSMAX
000233: 12,2204           60363                           AD       ALTSAVE
000234: 12,2205           54363                           TS       ALTSAVE
000235: 12,2206           12277                           TCF      ZERODATA                              #  ALTSAVE NEGATIVE - SET TO ZERO.
000236:
000237: 12,2207           10363        NEWDATA            CCS      ALTSAVE                               #  MAKE UP 15 BIT UNSIGNED OUTPUT.
000238: 12,2210           37745                           CAF      BIT15                                 #  MAJOR PART +1 OR +0.
000239: 12,2211           60364                           AD       ALTSAVE    +1
000240: 12,2212           54060        METEROUT           TS       ALTM
000241: 12,2213           32303                           CAF      BITSET
000242: 12,2214           00006                           EXTEND
000243: 12,2215           05014                           WOR      14
000244: 12,2216           12276                           TCF      DONEDID
000245:


000247: 12,2217           02225        ALTROUT            TC       DISINDAT
000248: 12,2220           37762                           CAF      BIT2
000249: 12,2221           00006                           EXTEND
000250: 12,2222           05014                           WOR      14                                    #  SET UP OUTPUT FOR ALT. RATE
000251: 12,2223           30353                           CA       ALTRATE
000252: 12,2224           12212                           TCF      METEROUT
000253:
000254: 12,2225           10350        DISINDAT           CCS      DIDFLG
000255: 12,2226           12273                           TCF      ALLDONE                               #  NOTE THAT THIS SHOULD ALWAYS GO TO
000256:                                                                                                  #  ALLDONE AND NOT DONEDID SINCE THE
000257:                                                                                                  #  AVAILABILITY OF DATA MAY DISAPPEAR WHILE
000258:                                                                                                  #  THE ASTRONAUT HAS THE BUTTON DOWN.
000259: 12,2227           12230                           NOOP
000260: 12,2230           37756                           CAF      BIT6
000261: 12,2231           00006                           EXTEND
000262: 12,2232           02030                           RAND     30                                    #  CHECK DISPLAY INERTIAL DATA BIT
000263: 12,2233           10000                           CCS      A
000264: 12,2234           12273                           TCF      ALLDONE
000265: 12,2235           10350                           CCS      DIDFLG
000266: 12,2236           12237                           NOOP
000267: 12,2237           12260                           TCF      GOAGN
000268:
000269: 12,2240           37754        FIRSTIME           CAF      BIT8
000270: 12,2241           00006                           EXTEND
000271: 12,2242           05012                           WOR      12                                    #  ENABLE DISPLAY INERTIAL DATA
000272: 12,2243           37767                           CAF      ZERO
000273: 12,2244           54350                           TS       DIDFLG
000274: 12,2245           54362                           TS       LASTXCMD
000275: 12,2246           54361                           TS       LASTYCMD
000276: 12,2247           36306                           CAF      SIX
000277: 12,2250           05663                           TC       WAITLIST
000278: 12,2251  E6,1404                                  EBANK=   M11
000279: 12,2251           02254 24066                     2CADR    INTLZE
000280:
000281: 12,2253           02276                           TC       DONEDID
000282:
000283: 12,2254           37762        INTLZE             CAF      BIT2
000284: 12,2255           00006                           EXTEND
000285: 12,2256           05012                           WOR      12                                    #  ENABLE RR ERROR COUNTER
000286: 12,2257           05727                           TC       TASKOVER
000287:
000288: 12,2260           40362        GOAGN              CS       LASTXCMD
000289: 12,2261           60357                           AD       FORVEL
000290: 12,2262           54054                           TS       OPTXCMD
000291: 12,2263           30357                           CA       FORVEL
000292: 12,2264           54362                           TS       LASTXCMD
000293: 12,2265           40361                           CS       LASTYCMD
000294: 12,2266           60360                           AD       LATVEL
000295: 12,2267           54053                           TS       OPTYCMD
000296: 12,2270           30360                           CA       LATVEL
000297:


000299: 12,2271           54361                           TS       LASTYCMD
000300: 12,2272           00002                           TC       Q
000301:
000302: 12,2273           42304        ALLDONE            CS       DIDRESET                              #  REMOVE DISPLAY INERTIAL DATA AND ECTR.
000303: 12,2274           00006                           EXTEND
000304: 12,2275           03012                           WAND     12                                    #  RESET RR ERROR COUNTER
000305: 12,2276           15733        DONEDID            TCF      RESUME                                #  ** FIX LATER**
000306:
000307: 12,2277           37767        ZERODATA           CAF      ZERO
000308: 12,2300           54001                           TS       L
000309: 12,2301           12165                           TCF      ZDATA2
000310:
000311: 12,2302           06432        ARTOA              DEC      .20469                                #  ALT DUE TO ALTRATE FOR .96 SEC.
000312: 12,2303           06004        BITSET             OCT      6004
000313:
000314: 12,2304           00202        DIDRESET           OCT      202
000315:


000317:                                                                                                  #  PROGRAM NAME:  IMUMON
000318:
000319:                                                                                                  #  FUNCTIONAL DESCRIPTION:  THIS PROGRAM IS ENTERED EVERY 480 MS.  IT DETECTS CHANGES OF THE IMU STATUS BITS IN
000320:                                                                                                  #  CHANNEL 30 AND CALLS THE APPROPRIATE SUBROUTINES.  THE BITS PROCESSED AND THEIR RELEVANT SUBROUTINES ARE:
000321:
000322:                                                                                                  #        FUNCTION                BIT     SUBROUTINE CALLED
000323:                                                                                                  #        --------                ---     -----------------
000324:                                                                                                  #        TEMP IN LIMITS           15     TLIM
000325:                                                                                                  #        ISS TURN-ON REQUEST      14     ITURNON
000326:                                                                                                  #        IMU FAIL                 13     IMUFAIL (SETISSW)
000327:                                                                                                  #        IMU CDU FAIL             12     ICDUFAIL (SETISSW)
000328:                                                                                                  #        IMU CAGE                 11     IMUCAGE
000329:                                                                                                  #        IMU OPERATE               9     IMUOP
000330:
000331:                                                                                                  #           THE LAST SAMPLED STATE OF THESE BITS IS LEFT IN IMODES30.  ALSO, EACH SUBROUTINE CALLED FINDS THE NEW
000332:                                                                                                  #  VALUE OF THE BIT IN A, WITH Q SET TO THE PROPER RETURN LOCATION, NXTIFAIL.
000333:
000334:                                                                                                  #  CALLING SEQUENCE:  T4RUPT EVERY 480 MILLISECONDS.
000335:
000336:                                                                                                  #  JOBS OR TASKS INITIATED:  NONE.
000337:
000338:                                                                                                  #  SUBROUTINES CALLED:  TLIM, ITURNON, SETISSW, IMUCAGE, IMUOP.
000339:
000340:                                                                                                  #  ERASABLE INITIALIZATION:
000341:                                                                                                  #        FRESH START OR RESTART WITH NO GROUPS ACTIVE:  C(IMODES30) = OCT 37411.
000342:                                                                                                  #        RESTART WITH ACTIVE GROUPS: C(IMODES30) = (B(IMODES30)AND(OCT 00035)) PLUS OCT 37400.
000343:                                                                                                  #                                    THIS LEAVES IMU FAIL BITS INTACT.
000344:
000345:                                                                                                  #  ALARMS:  NONE.
000346:
000347:                                                                                                  #  EXIT:  TNONTEST.
000348:
000349:                                                                                                  #  OUTPUT:  UPDATED IMODES30 WITH CHANGES PROCESSED BY APPROPRIATE SUBROUTINE.
000350:
000351: 12,2305           30365        IMUMON             CA       IMODES30                              #  SEE IF THERE HAS BEEN A CHANGE IN THE
000352: 12,2306           00006                           EXTEND                                         #  RELEVANT BITS OF CHAN 30.
000353: 12,2307           06030                           RXOR     30
000354: 12,2310           73025                           MASK     30RDMSK
000355: 12,2311           00006                           EXTEND
000356: 12,2312           12342                           BZF      TNONTEST                              #  NO CHANGE IN STATUS.
000357:
000358: 12,2313           54070                           TS       RUPTREG1                              #  SAVE BITS WHICH HAVE CHANGED.
000359: 12,2314           22365                           LXCH     IMODES30                              #  UPDATE IMODES30.
000360: 12,2315           00006                           EXTEND
000361: 12,2316           06001                           RXOR     L
000362: 12,2317           54365                           TS       IMODES30
000363:
000364: 12,2320           47763                           CS       ONE
000365: 12,2321           56070                           XCH      RUPTREG1
000366: 12,2322           00006                           EXTEND


000368: 12,2323           62614                           BZMF     TLIM                                  #  CHANGE IN IMU TEMP.
000369: 12,2324           12326                           TCF      NXTIFBIT                              #  BEGIN BIT SCAN.
000370:
000371: 12,2325           67763                 -1        AD       ONE                                   #  (RE-ENTERS HERE FROM NXTIFAIL.)
000372: 12,2326           24070        NXTIFBIT           INCR     RUPTREG1                              #  ADVANCE BIT POSITION NUMBER.
000373: 12,2327           60000                 +1        DOUBLE
000374: 12,2330           54000                           TS       A                                     #  SKIP IF OVERFLOW.
000375: 12,2331           12326                           TCF      NXTIFBIT                              #  LOOK FOR BIT.
000376:
000377: 12,2332           56071                           XCH      RUPTREG2                              #  SAVE OVERFLOW-CORRECTED DATA.
000378: 12,2333           50070                           INDEX    RUPTREG1                              #  SELECT NEW VALUE OF THIS BIT.
000379: 12,2334           37746                           CAF      BIT14
000380: 12,2335           70365                           MASK     IMODES30
000381: 12,2336           50070                           INDEX    RUPTREG1
000382: 12,2337           03021                           TC       IFAILJMP
000383:
000384: 12,2340           10071        NXTIFAIL           CCS      RUPTREG2                              #  PROCESS ANY ADDITIONAL CHANGES.
000385: 12,2341           12325                           TCF      NXTIFBIT   -1
000386:


000388:                                                                                                  #  PROGRAM NAME:  TNONTEST.
000389:
000390:                                                                                                  #  FUNCTIONAL DESCRIPTION:  THIS PROGRAM HONORS REQUESTS FOR ISS INITIALIZATION.  ISS TURN-ON (CHANNEL 30 BIT 14)
000391:                                                                                                  #  AND ISS OPERATE (CHANNEL 30 BIT 9) REQUESTS ARE TREATED AS A PAIR AND PROCESSING TAKES PLACE .480 SECONDS
000392:                                                                                                  #  AFTER EITHER ONE APPEARS.  THIS INITIALIZATION TAKES ON ONE OF THE FOLLOWING THREE FORMS:
000393:
000394:                                                                                                  #        1)  ISS TURN-ON:  IN THIS SITUATION THE COMPUTER IS OPERATING WHEN THE ISS IS TURNED ON.  NOMINALLY,
000395:                                                                                                  #        BOTH ISS TURN-ON AND ISS OPERATE APPEAR.  THE PLATFORM IS CAGED FOR 90 SECONDS AND THE ICDU'S ZEROED
000396:                                                                                                  #        SO THAT AT THE END OF THE PROCESS THE GIMBAL LOCK MONITOR WILL FUNCTION PROPERLY.
000397:
000398:                                                                                                  #        2)  ICDU INITIALIZATION:  IN THIS CASE THE COMPUTER WAS PROBABLY TURNED ON WITH THE ISS IN OPERATE OR
000399:                                                                                                  #        A FRESH START WAS DONE WITH THE ISS IN OPERATE.  IN THIS CASE ONLY ISS OPERATE IS ON.  THE ICDU'S ARE
000400:                                                                                                  #        ZEROED SO THE GIMBAL LOCK MONITOR WILL FUNCTION.  AN EXCEPTION IS IF THE ISS IS IN GIMBAL LOCK AFTER
000401:                                                                                                  #        A RESTART, THE ICDU'S WILL NOT BE ZEROED.
000402:
000403:                                                                                                  #        3)  RESTART WITH RESTARTABLE PROGRAM USING THE IMU:  IN THIS CASE, NO INITIALIZATION TAKES PLACE SINCE
000404:                                                                                                  #        IT IS ASSUMED THAT THE USING PROGRAM DID THE INITIALIZATION AND THEREFORE T4RUPT SHOULD NOT INTERFERE.
000405:
000406:                                                                                                  #  IMODES30 BIT 7 IS SET = 1 BY THE FIRST BIT (CHANNEL 30 BIT 14 OR 9) WHICH ARRIVES.  FOLLOWING THIS. TNONTEST IS
000407:                                                                                                  #  ENTERED, FINDS BIT 7 = 1 BUT BIT 8 = 0, SO IT SETS BIT 8 = 1 AND EXITS.  THE NEXT TIME IT FINDS BIT 8 = 1 AND
000408:                                                                                                  #  PROCEEDS, SETTING BITS 8 AND 7 = 0.  AT PROCTNON, IF ISS TURN-ON REQUEST IS PRESENT, THE ISS IS CAGED (ZERO +
000409:                                                                                                  #  COARSE).  IF ISS OPERATE IS NOT PRESENT PROGRAM ALARM 00213 IS ISSUED.  AT THE END OF A 90 SECOND CAGE, BIT 2
000410:                                                                                                  #  OF IMODES30 IS TESTED.  IF IT IS = 1, ISS TURN-ON WAS NOT PRESENT FOR THE ENTIRE 90 SECONDS.  IN THAT CASE, IF
000411:                                                                                                  #  THE ISS TURN-ON REQUEST IS PRESENT THE 90 SECOND WAIT IS REPEATED, OTHERWISE NO ACTION OCCURS UNLESS A PROGRAM
000412:                                                                                                  #  WAS WAITING FOR THE INITIALIZATION IN WHICH CASE THE PROGRAM IS GIVEN AN IMUSTALL ERROR RETURN.  IF THE DELAY
000413:                                                                                                  #  WENT PROPERLY, THE ISS DELAY OUTBIT IS SENT AND THE ICDU'S ZEROED.  A TASK IS INITIATED TO REMOVE THE PIPA FAIL
000414:                                                                                                  #  INHIBIT BIT IN 10.24 SECONDS.  IF A MISSION PROGRAM WAS WAITING IT IS INFORMED VIA ENDIMU.
000415:
000416:                                                                                                  #  AT PROCTNON, IF ONLY ISS OPERATE IS PRESENT (OPONLY), THE CDU'S ARE ZEROED UNLESS THE PLATFORM IS IN COARSE
000417:                                                                                                  #  ALIGN (= GIMBAL LOCK HERE) OR A MISSION PROGRAM IS USING THE IMU (IMUSEFLG = 1).
000418:
000419:                                                                                                  #  CALLING SEQUENCE:  T4RUPT EVERY 480 MILLISECONDS AFTER IMUMON.
000420:
000421:                                                                                                  #  JOBS OR TASKS INITIATED:  1) ENDTNON, 90 SECONDS AFTER CAGING STARTED.  2) ISSUP, 4 SECONDS AFTER CAGING DONE.
000422:                                                                                                  #        3) PFAILOK, 10.24 SECONDS AFTER INITIALIZATION COMPLETED.  4) UNZ2, 320 MILLISECONDS AFTER ZEROING
000423:                                                                                                  #        STARTED.
000424:
000425:                                                                                                  #  SUBROUTINES CALLED: CAGESUB, CAGESUB2, ZEROICDU, ENDIMU, IMUBAD, NOATTOFF, SETISSW, VARDELAY.
000426:
000427:                                                                                                  #  ERASABLE INITIALIZATION:  SEE IMUMON.
000428:
000429:                                                                                                  #  ALARMS:  PROGRAM ALARM 00213 IF ISS TURN-ON REQUESTED WITHOUT ISS OPERATE.
000430:
000431:                                                                                                  #  EXIT:  ENDTNON EXITS TO C33TEST.  TASKS HAVING TO DO WITH INITIALIZATION EXIT AS FOLLOWS:  MISSION PROGRAM
000432:                                                                                                  #  WAITING AND INITIALIZATION COMPLETE, EXIT TO ENDIMU, MISSION PROGRAM WAITING AND INITIALIZATION FAILED, EXIT TO
000433:                                                                                                  #  IMUBAD, IMU NOT IN USE, EXIT TO TASKOVER.
000434:
000435:                                                                                                  #  OUTPUT:  ISS INITIALIZED.
000436:
000437: 12,2342           40365        TNONTEST           CS       IMODES30                              #  AFTER PROCESSING ALL CHANGES, SEE IF IT


000439: 12,2343           77755                           MASK     BIT7                                  #  IS TIME TO ACT ON A TURN-ON SEQUENCE.
000440: 12,2344           10000                           CCS      A
000441: 12,2345           12477                           TCF      C33TEST                               #  NO - EXAMINE CHANNEL 33.
000442:
000443: 12,2346           37754                           CAF      BIT8                                  #  SEE IF FIRST SAMPLE OR SECOND.
000444: 12,2347           70365                           MASK     IMODES30
000445: 12,2350           10000                           CCS      A
000446: 12,2351           12355                           TCF      PROCTNON                              #  REACT AFTER SECOND SAMPLE.
000447:
000448: 12,2352           37754                           CAF      BIT8                                  #  IF FIRST SAMPLE, SET BIT TO REACT NEXT
000449: 12,2353           26365                           ADS      IMODES30                              #  TIME.
000450: 12,2354           12477                           TCF      C33TEST
000451:
000452:                                                                                                  #  PROCESS IMU TURN-ON REQUESTS AFTER WAITING 1 SAMPLE FOR ALL SIGNALS TO ARRIVE.
000453:
000454: 12,2355           43044        PROCTNON           CS       BITS7&8
000455: 12,2356           70365                           MASK     IMODES30
000456: 12,2357           54365                           TS       IMODES30
000457: 12,2360           77746                           MASK     BIT14                                 #  SEE IF TURN-ON REQUEST.
000458: 12,2361           10000                           CCS      A
000459: 12,2362           12455                           TCF      OPONLY                                #  OPERATE ON ONLY.
000460:
000461: 12,2363           40365                           CS       IMODES30                              #  IF TURN-ON REQUEST, WE SHOULD HAVE IMU
000462: 12,2364           77753                           MASK     BIT9                                  #  OPERATE.
000463: 12,2365           10000                           CCS      A
000464: 12,2366           12371                           TCF      +3
000465:
000466: 12,2367           04755                           TC       ALARM                                 #  ALARM IF NOT.
000467: 12,2370           00213                           OCT      213
000468:
000469: 12,2371           03002                 +3        TC       CAGESUB
000470: 12,2372           33052                           CAF      90SECS
000471: 12,2373           05663                           TC       WAITLIST
000472: 12,2374  E6,1404                                  EBANK=   M11
000473: 12,2374           02401 24066                     2CADR    ENDTNON
000474:
000475: 12,2376           12477                           TCF      C33TEST
000476:
000477: 12,2377           33052        RETNON             CAF      90SECS
000478: 12,2400           05704                           TC       VARDELAY
000479:
000480: 12,2401           47762        ENDTNON            CS       BIT2                                  #  RESET TURN-ON REQUEST FAIL BIT.
000481: 12,2402           70365                           MASK     IMODES30
000482: 12,2403           56365                           XCH      IMODES30
000483: 12,2404           77762                           MASK     BIT2                                  #  IF IT WAS OFF, SEND ISS DELAY COMPLETE.
000484: 12,2405           00006                           EXTEND
000485: 12,2406           12421                           BZF      ENDTNON2
000486:
000487: 12,2407           37746                           CAF      BIT14                                 #  IF IT WAS ON AND TURN-ON REQUEST NOW
000488: 12,2410           70365                           MASK     IMODES30                              #  PRESENT, RE-ENTER 90 SEC DELAY IN WL.


000490: 12,2411           00006                           EXTEND
000491: 12,2412           12377                           BZF      RETNON
000492:
000493: 12,2413           40074                           CS       STATE                                 #  IF IT IS NOT ON NOW, SEE IF A PROG WAS
000494: 12,2414           77754                           MASK     IMUSEFLG                              #  WAITING.
000495: 12,2415           10000                           CCS      A
000496: 12,2416           15727                           TCF      TASKOVER
000497: 12,2417           05225                           TC       POSTJUMP
000498: 12,2420           26672                           CADR     IMUBAD                                #  UNSUCCESSFUL TURN-ON.
000499:
000500: 12,2421           37745        ENDTNON2           CAF      BIT15                                 #  SEND ISS DELAY COMPLETE.
000501: 12,2422           00006                           EXTEND
000502: 12,2423           05012                           WOR      CHAN12
000503:
000504: 12,2424           05270                           TC       IBNKCALL                              #  TURN OFF NO ATT LAMP.
000505: 12,2425           26324                           CADR     NOATTOFF
000506:
000507: 12,2426           04314        UNZ2               TC       ZEROICDU
000508:
000509: 12,2427           43041                           CS       BITS4&5                               #  REMOVE ZERO AND COARSE.
000510: 12,2430           00006                           EXTEND
000511: 12,2431           03012                           WAND     CHAN12
000512:
000513: 12,2432           34321                           CAF      4SECS                                 #  WAIT 4 SECS FOR COUNTERS TO FIND GIMBALS
000514: 12,2433           05704                           TC       VARDELAY
000515:
000516: 12,2434           43042        ISSUP              CS       OCT54                                 #  REMOVE CAGING, IMU FAIL INHIBIT, AND
000517: 12,2435           70365                           MASK     IMODES30                              #  ICDUFAIL INHIBIT FLAGS.
000518: 12,2436           54365                           TS       IMODES30
000519:
000520: 12,2437           02753                           TC       SETISSW                               #  ISS WARNING MIGHT HAVE BEEN INHIBITED.
000521:
000522: 12,2440           47745                           CS       BIT15                                 #  REMOVE IMU DELAY COMPLETE DISCRETE.
000523: 12,2441           00006                           EXTEND
000524: 12,2442           03012                           WAND     12
000525:
000526: 12,2443           37751                           CAF      BIT11                                 #  DONT ENABLE PROG ALARM ON PIP FAIL FOR
000527: 12,2444           05663                           TC       WAITLIST                              #  ANOTHER 10 SECS.
000528: 12,2445  E6,1404                                  EBANK=   M11
000529: 12,2445           02310 26066                     2CADR    PFAILOK
000530:
000531: 12,2447           40074                           CS       STATE                                 #  SEE IF ANYONE IS WAITING FOR THE IMU AT
000532: 12,2450           77754                           MASK     IMUSEFLG                              #  IMUZERO. IF SO, WAKE THEM UP.
000533: 12,2451           10000                           CCS      A
000534: 12,2452           15727                           TCF      TASKOVER
000535:
000536: 12,2453           05225                           TC       POSTJUMP
000537: 12,2454           26664                           CADR     ENDIMU
000538:
000539: 12,2455           37760        OPONLY             CAF      BIT4                                  #  IF OPERATE ON ONLY, AND WE ARE IN COARSE


000541: 12,2456           00006                           EXTEND                                         #  ALIGN, DONT ZERO THE CDUS BECAUSE WE
000542: 12,2457           02012                           RAND     CHAN12                                #  MIGHT BE IN GIMBAL LOCK.
000543: 12,2460           10000                           CCS      A
000544: 12,2461           12477                           TCF      C33TEST
000545:
000546: 12,2462           37754                           CAF      IMUSEFLG                              #  OTHERWISE, ZERO THE COUNTERS
000547: 12,2463           70074                           MASK     STATE                                 #  UNLESS SOMEONE IS USING THE IMU.
000548: 12,2464           10000                           CCS      A
000549: 12,2465           12477                           TCF      C33TEST
000550:
000551: 12,2466           03014                           TC       CAGESUB2                              #  SET TURNON FLAGS.
000552:
000553: 12,2467           37757                           CAF      BIT5
000554: 12,2470           00006                           EXTEND
000555: 12,2471           05012                           WOR      12
000556:
000557: 12,2472           37756                           CAF      BIT6                                  #  WAIT 300 MS FOR AGS TO RECEIVE SIGNAL.
000558: 12,2473           05663                           TC       WAITLIST
000559: 12,2474  E6,1404                                  EBANK=   M11
000560: 12,2474           02426 24066                     2CADR    UNZ2
000561:
000562: 12,2476           12477                           TCF      C33TEST
000563:


000565:                                                                                                  #  PROGRAM NAME:  C33TEST
000566:
000567:                                                                                                  #  FUNCTIONAL DESCRIPTION:  THIS PROGRAM MONITORS THREE FLIP-FLOP INBITS OF CHANNEL 33 AND CALLS THE APPROPRIATE
000568:                                                                                                  #  SUBROUTINE TO PROCESS A CHANGE.  IT IS ANALOGOUS TO IMUMON, WHICH MONITORS CHANNEL 30, EXCEPT THAT IT READS
000569:                                                                                                  #  CHANNEL 33 WITH A WAND INSTRUCTION BECAUSE A 'WRITE' PULSE IS REQUIRED TO RESET THE FLIP-FLOPS.  THE BITS
000570:                                                                                                  #  PROCESSED AND THE SUBROUTINES CALLED ARE:
000571:
000572:                                                                                                  #        BIT     FUNCTION                SUBROUTINE
000573:                                                                                                  #        ---     --------                ----------
000574:                                                                                                  #         13     PIPA FAIL               PIPFAIL
000575:                                                                                                  #         12     DOWNLINK TOO FAST       DNTMFAST
000576:                                                                                                  #         11     UPLINK TOO FAST         UPTMFAST
000577:
000578:                                                                                                  #  UPON ENTRY TO THE SUBROUTINE, THE NEW BIT STATE IS IN A.
000579:
000580:                                                                                                  #  CALLING SEQUENCE:  EVERY 480 MILLISECONDS AFTER TNONTEST.
000581:
000582:                                                                                                  #  JOBS OR TASKS INITIATED:  NONE.
000583:
000584:                                                                                                  #  SUBROUTINES CALLED:  PIPFAIL, DNTMFAST AND UPTMFAST ON BIT CHANGES.
000585:
000586:                                                                                                  #  ERASABLE INITIALIZATION:  C(IMODES33) = OCT 16000 ON A FRESH START OR RESTART, THEREFORE, THESE ALARMS WILL
000587:                                                                                                  #  REAPPEAR IF THE CONDITIONS PERSIST.
000588:
000589:                                                                                                  #  ALARMS:  NONE.
000590:
000591:                                                                                                  #  EXIT:  GLOCKMON.
000592:
000593:                                                                                                  #  OUTPUT:  UPDATED BITS 13, 12 AND 11 OF IMODES33 WITH CHANGES PROCESSED.
000594:
000595: 12,2477           30366        C33TEST            CA       IMODES33                              #  SEE IF RELEVANT CHAN33 BITS HAVE
000596: 12,2500           75642                           MASK     33RDMSK
000597: 12,2501           54001                           TS       L                                     #  CHANGED.
000598: 12,2502           35642                           CAF      33RDMSK
000599: 12,2503           00006                           EXTEND
000600: 12,2504           03033                           WAND     CHAN33                                #  RESETS FLIP-FLOP INPUTS.
000601: 12,2505           00006                           EXTEND
000602: 12,2506           06001                           RXOR     L
000603: 12,2507           00006                           EXTEND
000604: 12,2510           12537                           BZF      GLOCKMON                              #  ON NO CHANGE.
000605:
000606: 12,2511           54070                           TS       RUPTREG1                              #  SAVE BITS WHICH HAVE CHANGED.
000607: 12,2512           22366                           LXCH     IMODES33
000608: 12,2513           00006                           EXTEND
000609: 12,2514           06001                           RXOR     L
000610: 12,2515           54366                           TS       IMODES33                              #  UPDATED IMODES33.
000611:
000612: 12,2516           37767                           CAF      ZERO
000613: 12,2517           56070                           XCH      RUPTREG1
000614: 12,2520           60000                           DOUBLE


000616: 12,2521           12524                           TCF      NXTIBT     +1                         #  SCAN FOR BIT CHANGES.
000617:
000618: 12,2522           67763                 -1        AD       ONE
000619: 12,2523           24070        NXTIBT             INCR     RUPTREG1
000620: 12,2524           60000                 +1        DOUBLE
000621: 12,2525           54000                           TS       A                                     #  (CODING IDENTICAL TO CHAN 30).
000622: 12,2526           12523                           TCF      NXTIBT
000623:
000624: 12,2527           56071                           XCH      RUPTREG2
000625: 12,2530           50070                           INDEX    RUPTREG1                              #  GET NEW VALUE OF BIT WHICH CHANGED.
000626: 12,2531           37747                           CAF      BIT13
000627: 12,2532           70366                           MASK     IMODES33
000628: 12,2533           50070                           INDEX    RUPTREG1
000629: 12,2534           03027                           TC       C33JMP
000630: 12,2535           10071        NXTFL33            CCS      RUPTREG2                              #  PROCESS POSSIBLE ADDITIONAL CHANGES.
000631: 12,2536           12522                           TCF      NXTIBT     -1
000632:


000634:                                                                                                  #  PROGRAM NAME:  GLOCKMON
000635:
000636:                                                                                                  #  FUNCTIONAL DESCRIPTION:  THIS PROGRAM MONITORS THE CDUZ COUNTER TO DETERMINE WHETHER THE ISS IS IN GIMBAL LOCK
000637:                                                                                                  #  AND TAKES ACTION IF IT IS.  THREE REGIONS OF MIDDLE GIMBAL ANGLE (MGA) ARE USED:
000638:
000639:                                                                                                  #        1) ABS(MGA) LESS THAN OR EQUAL TO 70 DEGREES - NORMAL MODE.
000640:                                                                                                  #        2) ABS(MGA) GREATER THAN 70 DEGREES AND LESS THAN OR EQUAL TO 85 DEGREES - GIMBAL LOCK LAMP TURNED ON.
000641:                                                                                                  #        3) ABS(MGA) GREATER THAN 85 DEGREES - ISS PUT IN COARSE ALIGN AND NO ATT LAMP TURNED ON.
000642:
000643:                                                                                                  #  CALLING SEQUENCE:  EVERY 480 MILLISECONDS AFTER C33TEST.
000644:
000645:                                                                                                  #  JOBS OR TASKS INITIATED:  NONE.
000646:
000647:                                                                                                  #  SUBROUTINES CALLED:   1) SETCOARS WHEN ABS(MGA) GREATER THAN 85 DEGREES AND ISS NOT IN COARSE ALIGN.
000648:                                                                                                  #                        2) LAMPTEST BEFORE TURNING OFF GIMBAL LOCK LAMP.
000649:
000650:                                                                                                  #  ERASABLE INITIALIZATION:
000651:                                                                                                  #                1) FRESH START OR RESTART WITH NO GROUPS ACTIVE:  C(CDUZ) = 0, IMODES30 BIT 6 = 0, IMODES33 BIT 1 =  0.
000652:                                                                                                  #                2) RESTART WITH GROUPS ACTIVE:  SAME AS FRESH START EXCEPT C(CDUZ) NOT CHANGED SO GIMBAL MONITOR
000653:                                                                                                  #                                                PROCEEDS AS BEFORE.
000654:
000655:                                                                                                  #  ALARMS:       1) MGA REGION (2) CAUSES GIMBAL LOCK LAMP TO BE LIT.
000656:                                                                                                  #                2) MGA REGION (3) CAUSES THE ISS TO BE PUT IN COARSE ALIGN AND THE NO ATT LAMP TO BE LIT IF EITHER NOT
000657:                                                                                                  #                   SO ALREADY.
000658:
000659: 12,2537           10034        GLOCKMON           CCS      CDUZ
000660: 12,2540           12544                           TCF      GLOCKCHK                              #  SEE IF MAGNITUDE OF MGA IS GREATER THAN
000661: 12,2541           12564                           TCF      SETGLOCK                              #  70 DEGREES.
000662: 12,2542           12544                           TCF      GLOCKCHK
000663: 12,2543           12564                           TCF      SETGLOCK
000664:
000665: 12,2544           62611        GLOCKCHK           AD       -70DEGS
000666: 12,2545           00006                           EXTEND
000667: 12,2546           62563                           BZMF     SETGLOCK   -1                         #  NO LOCK.
000668:
000669: 12,2547           62612                           AD       -15DEGS                               #  SEE IF ABS(MGA) GREATER THAN 85 DEGREES.
000670: 12,2550           00006                           EXTEND
000671: 12,2551           62561                           BZMF     NOGIMRUN
000672:
000673: 12,2552           37760                           CAF      BIT4                                  #  IF SO, SYSTEM SHOULD BE IN COARSE ALIGN
000674: 12,2553           00006                           EXTEND                                         #  TO PREVENT GIMBAL RUNAWAY.
000675: 12,2554           02012                           RAND     CHAN12
000676: 12,2555           10000                           CCS      A
000677: 12,2556           12561                           TCF      NOGIMRUN
000678:
000679: 12,2557           05270                           TC       IBNKCALL
000680: 12,2560           26232                           CADR     SETCOARS
000681:
000682: 12,2561           37756        NOGIMRUN           CAF      BIT6                                  #  TURN ON GIMBAL LOCK LAMP.
000683: 12,2562           12564                           TCF      SETGLOCK
000684:


000686: 12,2563           37767                 -1        CAF      ZERO
000687: 12,2564           60326        SETGLOCK           AD       DSPTAB     +11D                       #  SEE IF PRESENT STATE OF GIMBAL LOCK LAMP
000688: 12,2565           77756                           MASK     BIT6                                  #  AGREES WITH DESIRED STATE BY HALF ADDING
000689: 12,2566           00006                           EXTEND                                         #  THE TWO.
000690: 12,2567           15733                           BZF      GLOCKOK                               #  OK AS IS.
000691:
000692: 12,2570           70326                           MASK     DSPTAB     +11D                       #  IF OFF, DONT TURN ON IF IMU BEING CAGED.
000693: 12,2571           10000                           CCS      A
000694: 12,2572           12606                           TCF      GLAMPTST                              #  TURN OFF UNLESS LAMP TEST IN PROGRESS.
000695:
000696: 12,2573           37756                           CAF      BIT6
000697: 12,2574           70365                           MASK     IMODES30
000698: 12,2575           10000                           CCS      A
000699: 12,2576           15733                           TCF      GLOCKOK
000700:
000701: 12,2577           40326        GLINVERT           CS       DSPTAB     +11D                       #  INVERT GIMBAL LOCK LAMP.
000702: 12,2600           77756                           MASK     BIT6
000703: 12,2601           67745                           AD       BIT15                                 #  TO INDICATE CHANGE IN DSPTAB +11D.
000704: 12,2602           56326                           XCH      DSPTAB     +11D
000705: 12,2603           72613                           MASK     OCT37737
000706: 12,2604           26326                           ADS      DSPTAB     +11D
000707: 12,2605           15733                           TCF      GLOCKOK
000708:
000709: 12,2606           03032        GLAMPTST           TC       LAMPTEST                              #  TURN OFF UNLESS LAMP TEST IN PROGRESS.
000710: 12,2607           15733                           TCF      GLOCKOK
000711: 12,2610           12577                           TCF      GLINVERT
000712:
000713: 12,2611           63434        -70DEGS            DEC      -.38888                               #  -70 DEGREES SCALED IN HALF-REVOLUTIONS.
000714: 12,2612           75252        -15DEGS            DEC      -.08333
000715: 12,2613           37737        OCT37737           OCT      37737
000716:


000718:                                                                                                  #  PROGRAM NAME:  TLIM.
000719:
000720:                                                                                                  #  FUNCTIONAL DESCRIPTION:  THIS PROGRAM MAINTAINS THE TEMP LAMP (BIT 4 OF CHANNEL 11) ON THE DSKY TO AGREE WITH
000721:                                                                                                  #  THE TEMP SIGNAL FROM THE ISS (BIT 15 OF CHANNEL 30).  HOWEVER, THE LIGHT WILL NOT BE TURNED OFF IF A LAMP TEST
000722:                                                                                                  #  IS IN PROGRESS.
000723:
000724:                                                                                                  #  CALLING SEQUENCE:  CALLED BY IMUMON ON A CHANGE OF BIT 15 OF CHANNEL 30.
000725:
000726:                                                                                                  #  JOBS OR TASKS INITIATED:  NONE.
000727:
000728:                                                                                                  #  SUBROUTINES CALLED:  LAMPTEST.
000729:
000730:                                                                                                  #  ERASABLE INITIALIZATION:  FRESH START AND RESTART TURN THE TEMP LAMP OFF.
000731:
000732:                                                                                                  #  ALARMS:  TEMP LAMP TURNED ON WHEN IMU TEMP GOES OUT OF LIMITS.
000733:
000734:                                                                                                  #  EXIT:  NXTIFAIL.
000735:
000736:                                                                                                  #  OUTPUT:  SERVICE OF TEMP LAMP.                  IN A, EXCEPT FOR TLIM.
000737:
000738: 12,2614           77743        TLIM               MASK     POSMAX                                #  REMOVE BIT FROM WORD OF CHANGES AND SET
000739: 12,2615           54071                           TS       RUPTREG2                              #  DSKY TEMP LAMP ACCORDINGLY.
000740:
000741: 12,2616           10365                           CCS      IMODES30
000742: 12,2617           12625                           TCF      TEMPOK
000743: 12,2620           12625                           TCF      TEMPOK
000744:
000745: 12,2621           37760                           CAF      BIT4                                  #  TURN ON LAMP.
000746: 12,2622           00006                           EXTEND
000747: 12,2623           05011                           WOR      11
000748: 12,2624           12340                           TCF      NXTIFAIL
000749:
000750: 12,2625           03032        TEMPOK             TC       LAMPTEST                              #  IF TEMP NOW OK, DONT TURN OFF LAMP IF
000751: 12,2626           12340                           TCF      NXTIFAIL                              #  LAMP TEST IN PROGRESS.
000752:
000753: 12,2627           47760                           CS       BIT4
000754: 12,2630           00006                           EXTEND
000755: 12,2631           03011                           WAND     11
000756: 12,2632           12340                           TCF      NXTIFAIL
000757:


000759:                                                                                                  #  PROGRAM NAME:  ITURNON.
000760:
000761:                                                                                                  #  FUNCTIONAL DESCRIPTION:  THIS PROGRAM IS CALLED BY IMUMON WHEN A CHANGE OF BIT 14 OF CHANNEL 30 (ISS TURN-ON
000762:                                                                                                  #  REQUEST) IS DETECTED.  UPON ENTRY, ITURNON CHECKS IF A TURN-ON DELAY SEQUENCE HAS FAILED, AND IF SO, IT EXITS.
000763:                                                                                                  #  IF NOT, IT CHECKS WHETHER THE TURN-ON REQUEST CHANGE IS TO ON OR OFF.  IF ON, IT SETS BIT7 OF IMODES30 TO 1 SO
000764:                                                                                                  #  THAT TNONTEST WILL INITIATE THE ISS INITIALIZATION SEQUENCE.  IF OFF, THE TURN-ON DELAY SIGNAL, CHANNEL 12 BIT
000765:                                                                                                  #  15, IS CHECKED AND IF IT IS ON, ITURNON EXITS.  IF THE DELAY SIGNAL IS OFF, PROGRAM ALARM 00207 IS ISSUED, BIT 2
000766:                                                                                                  #  OF IMODES30 IS SET TO 1 AND THE PROGRAM EXITS.
000767:                                                                                                  #           THE SETTING OF BIT 2 OF IMODES30 (ISS DELAY SEQUENCE FAIL) INHIBITS THIS ROUTINE AND IMUOP FROM
000768:                                                                                                  #  PROCESSING ANY CHANGES.  THIS BIT WILL BE RESET BY THE ENDTNON ROUTINE WHEN THE CURRENT 90 SECOND DELAY PERIOD
000769:                                                                                                  #  ENDS.
000770:
000771:                                                                                                  #  CALLING SEQUENCE:  FROM IMUMOM WHEN ISS TURN-ON REQUEST CHANGES STATE.
000772:
000773:                                                                                                  #  JOBS OR TASKS INITIATED:  NONE.
000774:
000775:                                                                                                  #  SUBROUTINES CALLED:  ALARM, IF THE ISS TURN-ON REQUEST IS NOT PRESENT FOR 90 SECONDS.
000776:
000777:                                                                                                  #  ERASABLE INITIALIZATION:  FRESH START AND RESTART SET BIT 15 OF CHANNEL 12 AND BITS 2 AND 7 OF IMODES30 TO 0,
000778:                                                                                                  #  AND BIT 14 OF IMODES30 TO 1.
000779:
000780:                                                                                                  #  ALARMS: PROGRAM ALARM 00207 IS ISSUED IF THE ISS TURN-ON REQUEST SIGNAL IS NOT PRESENT FOR 90 SECONDS.
000781:
000782:                                                                                                  #  EXIT:  NXTIFAIL.
000783:
000784:                                                                                                  #  OUTPUT:  BIT 7 OF IMODES30 TO START ISS INITIALIZATION, OR BIT 2 OF IMODES30 AND PROGRAM ALARM 00207 TO INDICATE
000785:                                                                                                  #  A FAILED TURN-ON SEQUENCE.
000786:
000787: 12,2633           37762        ITURNON            CAF      BIT2                                  #  IF DELAY REQUEST HAS GONE OFF
000788: 12,2634           70365                           MASK     IMODES30                              #  PREMATURELY, DO NOT PROCESS ANY CHANGES
000789: 12,2635           10000                           CCS      A                                     #  UNTIL THE CURRENT 90 SEC WAIT EXPIRES.
000790: 12,2636           12340                           TCF      NXTIFAIL
000791:
000792: 12,2637           37746                           CAF      BIT14                                 #  SEE IF JUST ON OR OFF.
000793: 12,2640           70365                           MASK     IMODES30
000794: 12,2641           00006                           EXTEND
000795: 12,2642           12656                           BZF      ITURNON2                              #  IF JUST ON.
000796:
000797: 12,2643           37745                           CAF      BIT15
000798: 12,2644           00006                           EXTEND                                         #  SEE IF DELAY PRESENT DISCRETE HAS BEEN
000799: 12,2645           02012                           RAND     12                                    #  SENT.  IF SO, ACTION COMPLETE.
000800: 12,2646           00006                           EXTEND
000801: 12,2647           12651                           BZF      +2
000802: 12,2650           12340                           TCF      NXTIFAIL
000803:
000804: 12,2651           37762                           CAF      BIT2                                  #  IF NOT, SET BIT TO INDICATE REQUEST NOT
000805: 12,2652           26365                           ADS      IMODES30                              #  PRESENT FOR FULL DURATION.
000806: 12,2653           04755                           TC       ALARM
000807: 12,2654           00207                           OCT      207
000808: 12,2655           12340                           TCF      NXTIFAIL
000809:


000811: 12,2656           47755        ITURNON2           CS       BIT7                                  #  SET BIT 7 TO INITIATE WAIT OF 1 SAMPLE.
000812: 12,2657           70365                           MASK     IMODES30
000813: 12,2660           67755                           AD       BIT7
000814: 12,2661           54365                           TS       IMODES30
000815: 12,2662           12340                           TCF      NXTIFAIL
000816:


000818:                                                                                                  #  PROGRAM NAME:  IMUCAGE.
000819:
000820:                                                                                                  #  FUNCTIONAL DESCRIPTION:  THIS PROGRAM PROCESSES CHANGES OF THE IMUCAGE INBIT, CHANNEL 30 BIT 11.  IF THE BIT
000821:                                                                                                  #  CHANGES TO 0 (CAGE BUTTON PRESSED), THE ISS IS CAGED (ICDU ZERO + COARSE ALIGN + NO ATT LAMP) UNTIL THE
000822:                                                                                                  #  ASTRONAUT SELECTS ANOTHER PROGRAM TO ALIGN THE ISS.  ANY PULSE TRAINS TO THE ICDU'S AND GYRO'S ARE TERMINATED,
000823:                                                                                                  #  THE ASSOCIATED OUTCOUNTERS ARE ZEROED AND THE GYRO'S ARE DE-SELECTED.  NO ACTION OCCURS WHEN THE BUTTON IS
000824:                                                                                                  #  RELEASED (INBIT CHANGES TO 1).
000825:
000826:                                                                                                  #  CALLING SEQUENCE:  BY IMUMON WHEN IMU CAGE BIT CHANGES.
000827:
000828:                                                                                                  #  JOBS OR TASKS INITIATED:  NONE.
000829:
000830:                                                                                                  #  SUBROUTINES CALLED:  CAGESUB.
000831:
000832:                                                                                                  #  ERASABLE INITIALIZATION:  FRESH START AND RESTART SET BIT 11 OF IMODES30 TO 1.
000833:
000834:                                                                                                  #  ALARMS: NONE.
000835:
000836:                                                                                                  #  EXIT:  NXTIFAIL.
000837:
000838:                                                                                                  #  OUTPUT:  ISS CAGED, COUNTERS ZEROED, PULSE TRAINS TERMINATED AND NO ATT LAMP LIT.
000839:
000840: 12,2663           10000        IMUCAGE            CCS      A                                     #  NO ACTION IF GOING OFF.
000841: 12,2664           12340                           TCF      NXTIFAIL
000842:
000843: 12,2665           43047                           CS       OCT71000                              #  TERMINATE ICDU AND GYRO PULSE TRAINS.
000844: 12,2666           00006                           EXTEND
000845: 12,2667           03014                           WAND     14
000846:
000847: 12,2670           03002                           TC       CAGESUB
000848:
000849: 12,2671           47767                           CS       ZERO                                  #  ZERO COMMAND OUT-COUNTERS
000850: 12,2672           54050                           TS       CDUXCMD
000851: 12,2673           54051                           TS       CDUYCMD
000852: 12,2674           54052                           TS       CDUZCMD
000853: 12,2675           54047                           TS       GYROCMD
000854:
000855: 12,2676           43046                           CS       OCT1700                               #  HAVING WAITED AT LEAST 27 MCT FROM
000856: 12,2677           00006                           EXTEND                                         #  GYRO PULSE TRAIN TERMINATION, WE CAN
000857: 12,2700           03014                           WAND     14                                    #  DE-SELECT THE GYROS.
000858:
000859: 12,2701           12340                           TCF      NXTIFAIL
000860:


000862:                                                                                                  #  PROGRAM NAME:  IMUOP.
000863:
000864:                                                                                                  #  FUNCTIONAL DESCRIPTION:  THIS PROGRAM PROCESSES CHANGES IN THE ISS OPERATE DISCRETE, BIT 9 OF CHANNEL 30.
000865:                                                                                                  #  IF THE INBIT CHANGES TO 0, INDICATING ISS ON, IMUOP GENERALLY SETS BIT 7 OF IMODES30 TO 1 TO REQUEST ISS
000866:                                                                                                  #  INITIALIZATION VIA TNONTEST.  AN EXCEPTION IS DURING A FAILED ISS DELAY DURING WHICH BIT 2 OF IMODES30 IS SET
000867:                                                                                                  #  TO 1 AND NO FURTHER INITIALIZATION IS REQUIRED.  WHEN THE INBIT CHANGES TO 1, INDICATING ISS OFF, IMUSEFLG IS
000868:                                                                                                  #  TESTED TO SEE IF ANY PROGRAM WAS USING THE ISS.  IF SO, PROGRAM ALARM 00214 IS ISSUED.
000869:
000870:                                                                                                  #  CALLING SEQUENCE:  BY IMUMON WHEN BIT 9 OF CHANNEL 30 CHANGES.
000871:
000872:                                                                                                  #  JOBS OR TASKS INITIATED:  NONE.
000873:                                                                                                  #
000874:                                                                                                  #  SUBROUTINES CALLED:  ALARM, IF ISS IS TURNED OFF WHILE IN USE.
000875:
000876:                                                                                                  #  ERASABLE INITIALIZATION:  ON FRESH START AND RESTART, BIT 9 OF IMODES30 IS SET TO 1 EXCEPT WHEN THE GIMBAL LOCK
000877:                                                                                                  #  LAMP IS ON, IN WHICH CASE IT IS SET TO 0.  THIS PREVENTS ICDU ZERO BY TNONTEST WITH THE ISS IN GIMBAL LOCK.
000878:
000879:                                                                                                  #  ALARMS:  PROGRAM ALARM 00214 IF THE ISS IS TURNED OFF WHILE IN USE.
000880:
000881:                                                                                                  #  EXIT:  NXTIFAIL.
000882:
000883:                                                                                                  #  OUTPUT:  ISS INITIALIZATION REQUEST (IMODES30 BIT 7) OR PROGRAM ALARM 00214.
000884:
000885: 12,2702           00006        IMUOP              EXTEND
000886: 12,2703           12713                           BZF      IMUOP2
000887:
000888: 12,2704           40074                           CS       STATE                                 #  IF GOING OFF, ALARM IF PROG USING IMU.
000889: 12,2705           77754                           MASK     IMUSEFLG
000890: 12,2706           10000                           CCS      A
000891: 12,2707           12340                           TCF      NXTIFAIL
000892:
000893: 12,2710           04755                           TC       ALARM
000894: 12,2711           00214                           OCT      214
000895: 12,2712           12340                           TCF      NXTIFAIL
000896:
000897: 12,2713           37762        IMUOP2             CAF      BIT2                                  #  SEE IF FAILED ISS TURN-ON SEQ IN PROG.
000898: 12,2714           70365                           MASK     IMODES30
000899: 12,2715           10000                           CCS      A
000900: 12,2716           12340                           TCF      NXTIFAIL                              #  IF SO, DONT PROCESS UNTIL PRESENT 90
000901: 12,2717           12656                           TCF      ITURNON2                              #  SECONDS EXPIRES.
000902:


000904:                                                                                                  #  PROGRAM NAME:  PIPFAIL
000905:
000906:                                                                                                  #  FUNCTIONAL DESCRIPTION:  THIS PROGRAM PROCESSES CHANGES OF BIT 13 OF CHANNEL 33, PIPA FAIL.  IT SETS BIT 10 OF
000907:                                                                                                  #  IMODES30 TO AGREE.  IT CALLS SETISSW IN CASE A PIPA FAIL NECESSITATES AN ISS WARNING.  IF NOT,I.E., IMODES30
000908:                                                                                                  #  BIT 1 = 1, AND A PIPA FAIL IS PRESENT AND THE ISS IS NOT BEING INITIALIZED, PROGRAM ALARM 00212 IS ISSUED.
000909:
000910:                                                                                                  #  CALLING SEQUENCE:  BY C33TEST ON CHANGES OF CHANNEL 33 BIT 13.
000911:
000912:                                                                                                  #  JOBS OR TASKS INITIATED:  NONE.
000913:
000914:                                                                                                  #  SUBROUTINES CALLED:  1) SETISSW, AND 2) ALARM (SEE FUNCTIONAL DESCRIPTION).
000915:
000916:                                                                                                  #  ERASABLE INITIALIZATION:  SEE IMUMON FOR INITIALIZATION OF IMODES30.  THE RELAVANT BITS ARE 5, 7, 8, 9, AND 10.
000917:
000918:                                                                                                  #  ALARMS:  PROGRAM ALARM 00212 IF PIPA FAIL IS PRESENT BUT NEITHER ISS WARNING IS TO BE ISSUED NOR THE ISS IS
000919:                                                                                                  #  BEING INITIALIZED.
000920:
000921:                                                                                                  #  EXIT:  NXTFL33.
000922:
000923:                                                                                                  #  OUTPUT:  PROGRAM ALARM 00212 AND ISS WARNING MAINTENANCE.
000924:
000925: 12,2720           10000        PIPFAIL            CCS      A                                     #  SET BIT10 IN IMODES30 SO ALL ISS WARNING
000926: 12,2721           37752                           CAF      BIT10                                 #  INFO IS IN ONE REGISTER.
000927: 12,2722           56365                           XCH      IMODES30
000928: 12,2723           73051                           MASK     -BIT10
000929: 12,2724           26365                           ADS      IMODES30
000930:
000931: 12,2725           02753                           TC       SETISSW
000932:
000933: 12,2726           40365                           CS       IMODES30                              #  IF PIP FAIL DOESNT LIGHT ISS WARNING, DO
000934: 12,2727           77763                           MASK     BIT1                                  #  A PROGRAM ALARM IF IMU OPERATING BUT NOT
000935: 12,2730           10000                           CCS      A                                     #  CAGED OR BEING TURNED ON.
000936: 12,2731           12535                           TCF      NXTFL33
000937:
000938: 12,2732           30365                           CA       IMODES30
000939: 12,2733           73045                           MASK     OCT1720
000940: 12,2734           10000                           CCS      A
000941: 12,2735           12535                           TCF      NXTFL33                               #  ABOVE CONDITION NOT MET.
000942:
000943: 12,2736           04755                           TC       ALARM
000944: 12,2737           00212                           OCT      212
000945: 12,2740           12535                           TCF      NXTFL33
000946:


000948:                                                                                                  #  PROGRAM NAMES:  DNTMFAST, UPTMFAST
000949:
000950:                                                                                                  #  FUNCTIONAL DESCRIPTION:  THESE PROGRAMS PROCESS CHANGES OF BITS 12 AND 11 OF CHANNEL 33.  IF A BIT CHANGES TO A
000951:                                                                                                  #  0, A PROGRAM ALARM IS ISSUED.  THE ALARMS ARE:
000952:
000953:                                                                                                  #        BIT     ALARM   CAUSE
000954:                                                                                                  #        ---     -----   -----
000955:                                                                                                  #         12     01105   DOWNLINK TOO FAST
000956:                                                                                                  #         11     01106   UPLINK TOO FAST
000957:
000958:                                                                                                  #  CALLING SEQUENCE:  BY C33TEST ON A BIT CHANGE.
000959:
000960:                                                                                                  #  SUBROUTINES CALLED:  ALARM, IF A BIT CHANGES TO A 0.
000961:
000962:                                                                                                  #  ERASABLE INITIALIZATION:  FRESH START OR RESTART, BITS 12 AND 11 OF IMODES33 ARE SET TO 1.
000963:
000964:                                                                                                  #  ALARMS:  SET FUNCTIONAL DESCRIPTION.
000965:
000966:                                                                                                  #  EXIT:  NXTFL33.
000967:
000968:                                                                                                  #  OUTPUT:  PROGRAM ALARM ON A BIT CHANGE TO 0.
000969:
000970: 12,2741           10000        DNTMFAST           CCS      A                                     #  DO PROG ALARM IF TM TOO FAST.
000971: 12,2742           12535                           TCF      NXTFL33
000972:
000973: 12,2743           04755                           TC       ALARM
000974: 12,2744           01105                           OCT      1105
000975: 12,2745           12535                           TCF      NXTFL33
000976:
000977: 12,2746           10000        UPTMFAST           CCS      A                                     #  SAME AS DNLINK TOO FAST WITH DIFFERENT
000978: 12,2747           12535                           TCF      NXTFL33                               #  ALARM CODE.
000979:
000980: 12,2750           04755                           TC       ALARM
000981: 12,2751           01106                           OCT      1106
000982: 12,2752           12535                           TCF      NXTFL33


000984:                                                                                                  #  PROGRAM NAME:  SETISSW
000985:
000986:                                                                                                  #  FUNCTIONAL DESCRIPTION:  THIS PROGRAM TURNS THE ISS WARNING LAMP ON AND OFF (CHANNEL 11 BIT 1 = 1 FOR ON,
000987:                                                                                                  #  0 FOR OFF) DEPENDING ON THE STATUS OF IMODES30 BITS 13 (IMU FAIL) AND 4 (INHIBIT IMU FAIL), 12 (ICDU FAIL) AND
000988:                                                                                                  #  3 (INHIBIT ICDU FAIL), AND 10 (PIPA FAIL) AND 1 (INHIBIT PIPA FAIL).  THE LAMP IS LEFT ON IF A LAMP TEST IS IN
000989:                                                                                                  #  PROGRESS.
000990:
000991:                                                                                                  #  CALLING SEQUENCE:  CALLED BY IMUMON ON CHANGES TO IMU FAIL AND ICDU FAIL.  CALLED BY IFAILOK AND PFAILOK UPON
000992:                                                                                                  #  REMOVAL OF THE FAIL INHIBITS.  CALLED BY PIPFAIL WHEN THE PIPA FAIL DISCRETE CHANGES.  IT IS CALLED BY PIPUSE
000993:                                                                                                  #  SINCE THE PIPA FAIL PROGRAM ALARM MAY NECESSITATE AN ISS WARNING, AND LIKEWISE BY PIPFREE WHEN THE ALARM DEPARTS
000994:                                                                                                  #  AND IT IS CALLED BY IMUZERO3 AND ISSUP AFTER THE FAIL INHIBITS HAVE BEEN REMOVED.
000995:
000996:                                                                                                  #  JOBS OR TASKS INITIATED:  NONE.
000997:
000998:                                                                                                  #  SUBROUTINES CALLED:  NONE.
000999:
001000:                                                                                                  #  ERASABLE INITIALIZATION:
001001:
001002:                                                                                                  #        1) IMODES30 - SEE IMUMON.
001003:                                                                                                  #        2) IMODES33 BIT 1 = 0 (LAMP TEST NOT IN PROGRESS).
001004:
001005:                                                                                                  #  ALARMS:  ISS WARNING.
001006:
001007:                                                                                                  #  EXIT: VIA Q.
001008:
001009:                                                                                                  #  OUTPUT: ISS WARNING LAMP SET PROPERLY.
001010:
001011: 12,2753           33037        SETISSW            CAF      OCT15                                 #  SET ISS WARNING USING THE FAIL BITS IN
001012: 12,2754           70365                           MASK     IMODES30                              #  BITS 13, 12, AND 10 OF IMODES30 AND THE
001013: 12,2755           00006                           EXTEND                                         #  FAILURE INHIBIT BITS IN POSITIONS
001014: 12,2756           77752                           MP       BIT10                                 #  4, 3, AND 1.
001015: 12,2757           30365                           CA       IMODES30
001016: 12,2760           00006                           EXTEND
001017: 12,2761           04001                           ROR      L                                     #  0 INDICATES FAILURE.
001018: 12,2762           40000                           COM
001019: 12,2763           75641                           MASK     OCT15000
001020: 12,2764           10000                           CCS      A
001021: 12,2765           12776                           TCF      ISSWON                                #  FAILURE.
001022:
001023: 12,2766           37763        ISSWOFF            CAF      BIT1                                  #  DONT TURN OFF ISS WARNING IF LAMP TEST
001024: 12,2767           70366                           MASK     IMODES33                              #  IN PROGRESS.
001025: 12,2770           10000                           CCS      A
001026: 12,2771           00002                           TC       Q
001027:
001028: 12,2772           47763                           CS       BIT1
001029: 12,2773           00006                           EXTEND
001030: 12,2774           03011                           WAND     11
001031: 12,2775           00002                           TC       Q
001032:
001033: 12,2776           37763        ISSWON             CAF      BIT1


001035: 12,2777           00006                           EXTEND
001036: 12,3000           05011                           WOR      11
001037: 12,3001           00002                           TC       Q
001038:
001039: 12,3002           43050        CAGESUB            CS       BITS6&15                              #  SET OUTBITS AND INTERNAL FLAGS FOR
001040: 12,3003           00006                           EXTEND                                         #  SYSTEM TURN-ON OR CAGE.  DISABLE THE
001041: 12,3004           03012                           WAND     12                                    #  ERROR COUNTER AND REMOVE IMU DELAY COMP.
001042: 12,3005           33041                           CAF      BITS4&5                               #  SEND ZERO AND COARSE.
001043: 12,3006           00006                           EXTEND
001044: 12,3007           05012                           WOR      12
001045:
001046: 12,3010           43040                           CS       OC40010                               #  TURN ON NO ATT LAMP.
001047: 12,3011           70326                           MASK     DSPTAB     +11D
001048: 12,3012           63040                           AD       OC40010
001049: 12,3013           54326                           TS       DSPTAB     +11D
001050:
001051: 12,3014           43043        CAGESUB2           CS       OCT75                                 #  SET FLAGS TO INDICATE CAGING OR TURN-ON,
001052: 12,3015           70365                           MASK     IMODES30                              #  AND TO INHIBIT ALL ISS WARNING INFO.
001053: 12,3016           63043                           AD       OCT75
001054: 12,3017           54365                           TS       IMODES30
001055:
001056: 12,3020           00002                           TC       Q
001057:
001058: 12,3021  12,2753               IMUFAIL            EQUALS   SETISSW
001059: 12,3021  12,2753               ICDUFAIL           EQUALS   SETISSW
001060:


001062:                                                                                                  #  JUMP TABLES AND CONSTANTS.
001063:
001064: 12,3021           12633        IFAILJMP           TCF      ITURNON                               #  CHANNEL 30 DISPATCH.
001065: 12,3022           12753                           TCF      IMUFAIL
001066: 12,3023           12753                           TCF      ICDUFAIL
001067: 12,3024           12663                           TCF      IMUCAGE
001068: 12,3025           76400        30RDMSK            OCT      76400                                 #  (BIT 10 NOT SAMPLED HERE).
001069: 12,3026           12702                           TCF      IMUOP
001070:
001071: 12,3027           12720        C33JMP             TCF      PIPFAIL                               #  CHANNEL 33 DISPATCH.
001072: 12,3030           12741                           TCF      DNTMFAST
001073: 12,3031           12746                           TCF      UPTMFAST
001074:
001075:                                                                                                  #  SUBROUTINE TO SKIP IF LAMP TEST NOT IN PROGRESS.
001076: 12,3032           40366        LAMPTEST           CS       IMODES33                              #  BIT 1 OF IMODES33 = 1 IF LAMP TEST IN
001077: 12,3033           77763                           MASK     BIT1                                  #  PROGRESS.
001078: 12,3034           10000                           CCS      A
001079: 12,3035           24002                           INCR     Q
001080: 12,3036           00002                           TC       Q
001081:
001082: 12,3037     5642               33RDMSK            EQUALS   PRIO16
001083: 12,3037           00015        OCT15              OCT      15
001084: 12,3040           40010        OC40010            OCT      40010
001085: 12,3041           00030        BITS4&5            OCT      30
001086: 12,3042           00054        OCT54              OCT      54
001087: 12,3043           00075        OCT75              OCT      75
001088: 12,3044           00300        BITS7&8            OCT      300
001089: 12,3045           01720        OCT1720            OCT      1720
001090: 12,3046           01700        OCT1700            OCT      1700
001091: 12,3047     5641               OCT15000           EQUALS   PRIO15
001092: 12,3047           71000        OCT71000           OCT      71000
001093: 12,3050           40040        BITS6&15           OCT      40040
001094: 12,3051           76777        -BIT10             OCT      -1000
001095:
001096: 12,3052           21450        90SECS             DEC      9000       B-14
001097: 12,3053           00014        120MS              DEC      12         B-14
001098:
001099: 12,3054     5733               GLOCKOK            EQUALS   RESUME
001100:


001102:                                                                                                  #  RR INBIT MONITOR.
001103:
001104: 12,3054           30412        RRAUTCHK           CA       RADMODES                              #  SEE IF CHANGE IN RR AUTO MODE BIT.
001105: 12,3055           00006                           EXTEND
001106: 12,3056           06033                           RXOR     33
001107: 12,3057           77762                           MASK     BIT2
001108: 12,3060           00006                           EXTEND
001109: 12,3061           13115                           BZF      RRCDUCHK
001110:
001111: 12,3062           22412                           LXCH     RADMODES                              #  UPDATE RADMODES.
001112: 12,3063           00006                           EXTEND
001113: 12,3064           06001                           RXOR     L
001114: 12,3065           54412                           TS       RADMODES
001115: 12,3066           77762                           MASK     BIT2                                  #  SEE IF JUST ON.
001116: 12,3067           10000                           CCS      A
001117: 12,3070           13107                           TCF      RROFF                                 #  OFF.
001118:
001119: 12,3071           37755                           CAF      BIT7                                  #  IF JUST ON AND SOME PROGRAM IS USING THE
001120: 12,3072           70074                           MASK     STATE                                 #  RR, DONT ZERO THE CDUS.
001121: 12,3073           10000                           CCS      A
001122: 12,3074           13115                           TCF      RRCDUCHK
001123:
001124: 12,3075           43106                           CS       OCT10001                              #  SET BITS TO INDICATE ZERO AND TURNON
001125: 12,3076           70412                           MASK     RADMODES                              #  IN PROGRESS.
001126: 12,3077           63106                           AD       OCT10001
001127: 12,3100           54412                           TS       RADMODES
001128:
001129: 12,3101           37763                           CAF      ONE
001130: 12,3102           05663                           TC       WAITLIST
001131: 12,3103  E6,1404                                  EBANK=   M11
001132: 12,3103           02000 20066                     2CADR    RRTURNON
001133:
001134: 12,3105           13161                           TCF      NORRGMON
001135:
001136: 12,3106           10001        OCT10001           OCT      10001
001137:
001138: 12,3107           40074        RROFF              CS       STATE                                 #  IF SOMEONE WAS USING THE RR, DISPLAY AN
001139: 12,3110           77755                           MASK     BIT7                                  #  ALARM IF THE RR GOES OUT OF AUTO MODE.
001140: 12,3111           10000                           CCS      A
001141: 12,3112           13115                           TCF      RRCDUCHK
001142:
001143: 12,3113           04755                           TC       ALARM
001144: 12,3114           00514                           OCT      514
001145:


001147:                                                                                                  #  CHECK FOR RR CDU FAIL.
001148:
001149: 12,3115           30412        RRCDUCHK           CA       RADMODES                              #  LAST SAMPLED BIT IN RADMODES.
001150: 12,3116           00006                           EXTEND
001151: 12,3117           06030                           RXOR     30
001152: 12,3120           77755                           MASK     BIT7
001153: 12,3121           00006                           EXTEND
001154: 12,3122           13135                           BZF      RRGIMON
001155:
001156: 12,3123           37762                           CAF      BIT2                                  #  IF RR NOT IN AUTO MODE, DONT CHANGE BIT
001157: 12,3124           70412                           MASK     RADMODES                              #  7 OF RADMODES.  IF THIS WERE NOT DONE,
001158: 12,3125           10000                           CCS      A                                     #  THE TRACKER FAIL MIGHT COME ON WHEN
001159: 12,3126           13161                           TCF      NORRGMON                              #  JUST READING LR DATA.
001160:
001161: 12,3127           37755                           CAF      BIT7                                  #  SET BIT 7 OF RADMODES FOR SETTRKF.
001162: 12,3130           22412                           LXCH     RADMODES                              #  UPDATE RADMODES.
001163: 12,3131           00006                           EXTEND
001164: 12,3132           06001                           RXOR     L
001165: 12,3133           54412                           TS       RADMODES
001166:
001167: 12,3134           04377        TRKFLCDU           TC       SETTRKF                               #  UPDATE TRACKER FAIL LAMP ON DSKY.
001168:


001170:                                                                                                  #           THE RR GIMBAL LIMIT MONITOR IS ENABLED WHENEVER THE RR IS IN THE AUTO MODE EXCEPT WHEN THE RR CDUS ARE
001171:                                                                                                  #  BEING ZEROED, OR DURING A REMODE OR MONITOR REPOSITION OPERATION. THE LATTER IS INITIATED BY THIS MONITOR WHEN
001172:                                                                                                  #  THE GIMBALS EXCEED THE LIMITS FOR THE CURRENT MODE. A ROUTINE IS INITIATED TO DRIVE THE GIMBALS TO T = 0 AND
001173:                                                                                                  #  S = 0 IF IN MODE 1 AND T = 180 WITH S = -90 FOR MODE 2.
001174:
001175: 12,3135           33157        RRGIMON            CAF      OCT32002                              #  INHIBITED BY REMODE, ZEROING, MONITOR.
001176: 12,3136           70412                           MASK     RADMODES                              #  OR RR NOT IN AUTO.
001177: 12,3137           10000                           CCS      A
001178: 12,3140           13161                           TCF      NORRGMON
001179:
001180: 12,3141           04334                           TC       RRLIMCHK                              #  SET IF ANGLES IN LIMITS.
001181: 12,3142           00035                           ADRES    OPTY
001182:
001183: 12,3143           13145                           TCF      MONREPOS
001184:
001185: 12,3144           13161                           TCF      NORRGMON                              #  (ADDITIONAL CODING MAY GO HERE).
001186:
001187: 12,3145           37751        MONREPOS           CAF      BIT11                                 #  SET FLAG TO SHOW REPOSITION IN PROGRESS.
001188: 12,3146           26412                           ADS      RADMODES
001189:
001190: 12,3147           43160                           CS       OCT20002                              #  DISABLE TRACKER AND ERROR COUNTER.
001191: 12,3150           00006                           EXTEND
001192: 12,3151           03012                           WAND     12
001193:
001194: 12,3152           37762                           CAF      TWO
001195: 12,3153           05663                           TC       WAITLIST
001196: 12,3154  E6,1404                                  EBANK=   M11
001197: 12,3154           02051 20066                     2CADR    DORREPOS
001198:
001199: 12,3156           13161                           TCF      NORRGMON
001200:
001201: 12,3157           32002        OCT32002           OCT      32002
001202: 12,3160           20002        OCT20002           OCT      20002
001203:


001205:                                                                                                  #  PROGRAM NAME:  GPMATRIX (DAPT4S) MOD. NO. 2 DATE: OCTOBER 27, 1966
001206:
001207:                                                                                                  #  AUTHOR:  JONATHAN D. ADDELSTON (ADAMS ASSOCIATES)
001208:
001209:                                                                                                  #  THIS PROGRAM CALCULATES ALL THE SINGLE-PRECISION MATRIX ELEMENTS WHICH ARE USED BY LEM DAP TO TRANSFORM VECTORS
001210:                                                                                                  #  FROM GIMBAL TO PILOT (BODY) AXES AND BACK AGAIN.  THESE ELEMENTS ARE USED EXCLUSIVELY BY BASIC LANGUAGE ROUTINES
001211:                                                                                                  #  AND THEREFORE ARE NOT ARRAYED FOR USE BY INTERPRETIVE PROGRAMS.
001212:
001213:                                                                                                  #  CALLING SEQUENCE:  GPMATRIX IS TRANSFERRED TO FROM DAPT4S AND IS THUS EXECUTED 4 TIMES A SECOND BY T4RUPT.
001214:                                                                                                  #  DAPT4S IS LISTED IN T4JUMP TABLE TWICE EXPLICITLY AND ALSO OCCURS AFTER RRAUTCHK (WHICH IS ALSO LISTED TWICE).
001215:
001216:                                                                                                  #  SUBROUTINES CALLED: SPSIN, SPCOS.
001217:
001218:                                                                                                  #  NORMAL EXIT: RESUME.
001219:
001220:                                                                                                  #  ALARM/ABORT MODE:  THERE ARE NO REAL ALARMS OR ABORTS.  HOWEVER, WHEN THE MIDDLE GIMBAL ANGLE NEARS GIMBAL LOCK,
001221:                                                                                                  #  A DIVISION BY COS(MG) WILL CAUSE OVERFLOW (I.E. A BAD QUOTIENT).  THIS CONDITION IS PREVENTED BY TESTING COS(MG)
001222:                                                                                                  #  AND SUBSTITUTING POSMAX/NEGMAX FOR THE INCALCULABLE QUANTITIES.
001223:
001224:                                                                                                  #  INPUT: CDUX, CDUY, CDUZ.        OUTPUT: M11,M21,M31,M22,M32,MR12,MR13.
001225:                                                                                                  #                                          (ALSO MR22=M22,MR23=M32)
001226:
001227:                                                                                                  #  AOG = CDUX, AIG = CDUY, AMG = CDUZ: MNEMONIC IS : OIM = XYZ
001228:
001229:                                                                                                  #                *       *       SIN(MG)                 0                       1       *
001230:                                                                                                  #                M   =   *       COS(MG)COS(OG)          SIN(OG)                 0       *
001231:                                                                                                  #                 GP     *       -COS(MG)SIN(OG)         COS(OG)                 0       *
001232:
001233:                                                                                                  #                *       *       0                       COS(OG)/COS(MG)         -SIN(OG)/COS(MG)        *
001234:                                                                                                  #                M   =   *       0                       SIN(OG)                 COS(OG)                 *
001235:                                                                                                  #                 PG     *       1                       -SIN(MG)COS(OG)/COS(MG) SIN(MG)SIN(OG)/COS(MG)  *
001236:
001237:                                                                                                  #  THIS CODING TRANSFERS CONTROL TO THE DAP FIXED BANK FOR GPMATRIX:
001238: 12,3161                                           BANK     12
001239: 12,3161  E6,1404                                  EBANK=   M11
001240:
001241: 12,3161           00006        DAPT4S             EXTEND                                         #  GET 2CADR OF GPMATRIX
001242: 12,3162           33165                           DCA      DAPT4
001243: 12,3163           52006                           DTCB
001244:
001245: 12,3164  12,3161               NORRGMON           EQUALS   DAPT4S
001246:
001247: 12,3164  E6,1404                                  EBANK=   M11
001248: 12,3164           02000 40066  DAPT4              2CADR    GPMATRIX
001249:


001251:                                                                                                  #  T4RUPT DAP LOGIC:
001252:
001253: 20,2000                                           BANK     20
001254: 20,2000  E6,1404                                  EBANK=   M11
001255:
001256: 20,2000           30034        GPMATRIX           CAE      CDUZ                                  #  SINGLE ENTRY POINT
001257: 20,2001           05355                           TC       SPSIN                                 #  SIN(CDUZ) = SIN(MG)
001258: 20,2002           55404                           TS       M11                                   #  SCALED AT 1
001259:
001260: 20,2003           30034                           CAE      CDUZ
001261: 20,2004           05354                           TC       SPCOS                                 #  COS(CDUZ) = COS(MG)
001262: 20,2005           55457                           TS       COSMG                                 #  SCALED AT 1 (ONLY A FACTOR)
001263:
001264: 20,2006           30032                           CAE      CDUX
001265: 20,2007           05355                           TC       SPSIN                                 #  SIN(CDUX) = SIN(OG)
001266: 20,2010           55401                           TS       M22                                   #  SCALED AT 1 (ALSO IS MR22)
001267:
001268: 20,2011           41401                           CS       M22
001269: 20,2012           00006                           EXTEND
001270: 20,2013           71457                           MP       COSMG                                 #  -SIN(OG)COS(MG)
001271: 20,2014           55406                           TS       M31                                   #  SCALED AT 1
001272:
001273: 20,2015           30032                           CAE      CDUX
001274: 20,2016           05354                           TC       SPCOS                                 #  COS(CDUX) = COS(OG)
001275: 20,2017           55403                           TS       M32                                   #  SCALED AT 1 (ALSO IS MR23)
001276:
001277: 20,2020           00006                           EXTEND
001278: 20,2021           71457                           MP       COSMG                                 #  COS(OG)COS(MG)
001279: 20,2022           55405                           TS       M21                                   #  SCALED AT 1
001280:
001281: 20,2023           41457                           CS       COSMG                                 #  CHECK FOR CDUZ GREATER THAN 60 DEGREES.
001282: 20,2024           67746                           AD       BIT14
001283: 20,2025           00006                           EXTEND
001284: 20,2026           62031                           BZMF     +3
001285: 20,2027           37746                           CAF      BIT14                                 #  USE 60 DEG. FOR CDUZ-HENCE COS(CDUZ)=1/2
001286: 20,2030           55457                           TS       COSMG                                 #  (SINMG NOT SIMILARLY LIMITED)
001287: 20,2031           31403                 +3        CAE      M32
001288: 20,2032           00006                           EXTEND
001289: 20,2033           77746                           MP       BIT14                                 #  SCALE FOR DIVISION
001290: 20,2034           00006                           EXTEND
001291: 20,2035           11457                           DV       COSMG                                 #  COS(OG)/COS(MG)
001292: 20,2036           55400                           TS       MR12                                  #  SCALED AT 2
001293:
001294: 20,2037           41401                           CS       M22
001295: 20,2040           00006                           EXTEND
001296: 20,2041           77746                           MP       BIT14                                 #  SCALE FOR DIVISION
001297: 20,2042           00006                           EXTEND
001298: 20,2043           11457                           DV       COSMG                                 #  -SIN(OG)/COS(MG)
001299: 20,2044           55402                           TS       MR13                                  #  SCALED AT 2
001300: 20,2045           15733                           TCF      RESUME
001301:

End of include-file T4RUPT_PROGRAM.agc.  Parent file is MAIN.agc


