
Source Code


000002:                                                                                                  ## Copyright:    Public domain.
000003:                                                                                                  ## Filename:     T6-RUPT_PROGRAMS.agc
000004:                                                                                                  ## Purpose:      A module for revision 0 of BURST120 (Sunburst). It
000005:                                                                                                  ##               is part of the source code for the Lunar Module's
000006:                                                                                                  ##               (LM) Apollo Guidance Computer (AGC) for Apollo 5.
000007:                                                                                                  ## Assembler:    yaYUL
000008:                                                                                                  ## Contact:      Ron Burkey <info@sandroid.org>.
000009:                                                                                                  ## Website:      www.ibiblio.org/apollo/index.html
000010:                                                                                                  ## Mod history:  2016-09-30 RSB  Created draft version.
000011:                                                                                                  ##               2016-10-21 HG   Transcribed
000012:


000014:                                                                                                  #  PROGRAM NAMES: (1) DOT6RUPT     MOD. NO. 4  DATE: FEBRUARY 9. 1967
000015:
000016:                                                                                                  #                 (2) T6JOBCHK
000017:
000018:                                                                                                  #  MODIFICATION BY: JONATHAN D. ADDELSTON (ADAMS ASSOCIATES)
000019:
000020:                                                                                                  #  THESE PROGRAMS ENABLE THE LM DAP TO CONTROL THE THRUST TIMES OF THE REACTION CONTROL SYSTEM JETS BY USING TIME6.
000021:                                                                                                  #  SINCE THE LM DAP MAINTAINS EXCLUSIVE CONTROL OVER TIME6 AND ITS INTERRUPTS, THE FOLLOWING CONVENTIONS HAVE BEEN
000022:                                                                                                  #  ESTABLISHED AND MUST NOT BE TAMPERED WITH:
000023:                                                                                                  #           1. NO NUMBER IS EVER PLACED INTO TIME6 EXCEPT BY LM DAP.
000024:                                                                                                  #           2. NO PROGRAM OTHER THAN LM DAP ENABLES THE TIME6 COUNTER.
000025:                                                                                                  #           3. ONLY POSITIVE NUMBERS ARE ENTERED INTO TIME6, SO IT COUNTS DOWN TO -0 (MINUS ZERO) TO INTERRUPT.
000026:                                                                                                  #           4. IF -0 IS NOT IN TIME6 WHEN THE INTERRUPT OCCURS, THEN THE INTERRUPT HAS ALREADY BEEN PROCESSED.
000027:                                                                                                  #           5  ALL PROGRAMS WHICH OPERATE IN EITHER INTERRUPT MODE OR WITH INTERRUPT INHIBITED MUST CALL T6JOBCHK
000028:                                                                                                  #              EVERY 6 MILLISECONDS TO PROCESS A POSSIBLE WAITING T6RUPT BEFORE IT CAN BE HONORED BY THE HARDWARE.
000029:
000030:                                                                                                  #  DOT6RUPT CALLING SEQUENCE:
000031:
000032:                                                                                                  #  REF   1                 4004  52 011 0           DXCH   ARUPT           T6RUPT
000033:                                                                                                  #                          4005  0 0006 1           EXTEND
000034:                                                                                                  #  REF   1                 4006  3 5045 0           DCA    T6ADR
000035:                                                                                                  #                          4007  52 006 0           DTCB
000036:
000037:                                                                                                  #  T6JOBCHK CALLING SEQUENCE:
000038:
000039:                                                                                                  #  REF   0              23,1000  0 4200 1           TC     T6JOBCHK
000040:                                                                                                  #                L+1     (RETURN)
000041:
000042:                                                                                                  #  SUBROUTINES CALLED:   DOT6RUPT CALLS T6JOBCHK.
000043:
000044:                                                                                                  #  NORMAL EXIT MODES:    DOT6RUPT TRANSFERS CONTROL TO RESUME.
000045:                                                                                                  #                        T6JOBCHK TRANSFERS CONTROL TO CALLER AT LOCATION AFTER CALL.
000046:
000047:                                                                                                  #  ALARM/ABORT MODES:    NONE.
000048:
000049:                                                                                                  #  INPUT: TIME6,T6NEXT REGS,T6NEXTJT REGS.
000050:
000051:                                                                                                  #  OUTPUT: (SAME AS INPUT.)
000052:
000053:                                                                                                  #  DEBRIS: DOT6RUPT: NONE.  T6JOBCHK: A,L
000054:                                                                                                  #  *** NOTE: AS OF MOD. NO. 2, T6NEXT AND T6NEXTJT LISTS ARE IN UNSWITCHED ERASABLE. ***
000055:


000057:
000058:    5050                                           BLOCK    02
000059:    5050     1002                                  EBANK=   T6NEXT
000060:
000061:    5050     1002                                  EBANK=   T6NEXT
000062:    5050           02000 34062  T6ADR              2CADR    DOT6RUPT                              #  2CADR OF INTERRUPT PROCESSOR.
000063:
000064: 16,2000                                           BANK     16
000065: 16,2000     1002                                  EBANK=   T6NEXT
000066:
000067: 16,2000           22016        DOT6RUPT           LXCH     BANKRUPT                              #  (INTERRUPT LEAD IN CONTINUED)
000068: 16,2001           00006                           EXTEND
000069: 16,2002           22012                           QXCH     QRUPT
000070:
000071: 16,2003           06013                           TC       T6JOBCHK                              #  CALL T6JOBCHK
000072:
000073: 16,2004           15733                           TCF      RESUME                                #  END TIME6 RUPT
000074:
000075:
000076:
000077:    6013                                           BLOCK    03
000078:    6013     1002                                  EBANK=   T6NEXT
000079:
000080:    6013           10031        T6JOBCHK           CCS      TIME6                                 #  CHECK TIME6 FOR WAITING T6RUPT:
000081:    6014           00002                           TC       Q                                     #  NONE: CLOCK COUTING DOWN.
000082:    6015           00002                           TC       Q                                     #  NONE: T6RUPT ALREADY PROCESSED.
000083:    6016           00002                           TC       Q                                     #  NONE: INVALID VALUE. (POSSIBLE ABORT.)
000084:
000085:                                                                                                  #  CONTROL PASSES TO T6JOB ONLY WHEN C(TIME6) = -0 (I.E. WHEN A T6RUPT MUST BE PROCESSED).
000086:
000087:    6017           37743        T6JOB              CAF      POSMAX                                #  DISABLE CLOCK: NEEDED SINCE RUPT OCCURS
000088:    6020           00006                           EXTEND                                         #  1 DINC AFTER T6 = 77777.  FOR 625 MUSECS
000089:    6021           03013                           WAND     13                                    #  MUST NOT HAVE T6 = +0 WITH ENABLE SET.
000090:
000091:    6022           37767                           CAF      ZERO                                  #  UPDATE ORDERED LIST OF T6NEXT REGISTERS
000092:    6023           57003                           XCH      T6NEXT     +1                         #  1) PUSH FIRST ENTRY INTO TIME6.
000093:    6024           57002                           XCH      T6NEXT                                #  2) PUSH SECOND ENTRY INTO FIRST PLACE.
000094:    6025           54031                           TS       TIME6                                 #  3) ZERO LAST (SECOND) DT IN LIST.
000095:
000096:    6026           10031                           CCS      TIME6                                 #  TIME6 EITHER POSITIVE OR PLUS ZERO:
000097:    6027           16032                           TCF      T6NZERO                               #  (BRANCH IF TIME6 STILL ACTIVE.)
000098:
000099:    6030           31004                           CAE      T6NEXTJT                              #  THESE ARE TRANSLATION JETS (NO DT),
000100:    6031           16041                           TCF      WRITEJTS                              #  DETERMINE CHANNEL AND WRITE.
000101:
000102:    6032           37745        T6NZERO            CAF      BIT15                                 #  ENABLE TIME6 COUNTER TO START TIMING
000103:    6033           00006                           EXTEND                                         #  THIS JET FIRING (PROPER JETS NOT YET
000104:    6034           05013                           WOR      13                                    #  WRITTEN INTO CHANNEL, BUT WILL BE SOON).
000105:
000106:    6035           37767                           CAF      ZERO                                  #  UPDATE ORDERED LIST OF JET POLICIES:
000107:    6036           57006                           XCH      T6NEXTJT   +2                         #  1) LEAVE JETS TO GO ON NOW IN A.
000108:


000110:    6037           57005                           XCH      T6NEXTJT   +1                         #  2) CYCLE LIST UP TOWARD TOP.
000111:    6040           57004                           XCH      T6NEXTJT                              #  3) ZERO LAST ENTRY IN LIST.
000112:


000114:                                                                                                  #  THE FOLLOWING JET-ON LOGIC MAY BE USED AS A SUBROUTINE (3 ENTRY POINTS):
000115:
000116:                                                                                                  #  FIRST, LET SGN(A) DETERMINE THE JET CHANNEL:
000117:                                                                                                  #           POSITIVE IMPLIES P-AXIS POLICY.
000118:                                                                                                  #           NEGATIVE IMPLIES Q,R-AXIS POLICY.
000119:
000120:    6041           00006        WRITEJTS           EXTEND                                         #  TEST FOR CHANNEL TO WRITE POLICY IN:
000121:    6042           66046                           BZMF     WRITEQR                               #  NEG: Q,R-AXES JETS IN CHANNEL 5
000122:
000123:                                                                                                  #  SECOND, FOR P-AXIS JET POLICIES:
000124:
000125:    6043           00006        WRITEP             EXTEND                                         #  POS: P-AXIS   JETS IN CHANNEL 6
000126:    6044           01006                           WRITE    6
000127:    6045           00002                           TC       Q                                     #  RETURN.
000128:
000129:                                                                                                  #  THIRD, FOR Q,R-AXES JET POLICIES:
000130:
000131:    6046           00006        WRITEQR            EXTEND                                         #  Q,R-AXES JETS IN CHANNEL 5
000132:    6047           01005                           WRITE    5
000133:    6050           00002                           TC       Q                                     #  RETURN.

End of include-file T6-RUPT_PROGRAMS.agc.  Parent file is MAIN.agc


