
Source Code


000002:                                                                                                  ## Copyright:    Public domain.
000003:                                                                                                  ## Filename:     T6-RUPT_PROGRAMS.agc
000004:                                                                                                  ## Purpose:      A module for revision 0 of BURST120 (Sunburst). It
000005:                                                                                                  ##               is part of the source code for the Lunar Module's
000006:                                                                                                  ##               (LM) Apollo Guidance Computer (AGC) for Apollo 5.
000007:                                                                                                  ## Assembler:    yaYUL
000008:                                                                                                  ## Contact:      Ron Burkey <info@sandroid.org>.
000009:                                                                                                  ## Website:      www.ibiblio.org/apollo/index.html
000010:                                                                                                  ## Mod history:  2016-09-30 RSB  Created draft version.
000011:                                                                                                  ##               2016-10-21 HG   Transcribed
000012:                                                                                                  ##               2016-12-05 RSB  Comment-proofing with octopus/ProoferComments
000013:                                                                                                  ##                               completed, changes made.
000014:


000016:                                                                                                  #  PROGRAM NAMES: (1) DOT6RUPT     MOD. NO. 4  DATE: FEBRUARY 9. 1967
000017:
000018:                                                                                                  #                 (2) T6JOBCHK
000019:
000020:                                                                                                  #  MODIFICATION BY: JONATHAN D. ADDELSTON (ADAMS ASSOCIATES)
000021:
000022:                                                                                                  #  THESE PROGRAMS ENABLE THE LM DAP TO CONTROL THE THRUST TIMES OF THE REACTION CONTROL SYSTEM JETS BY USING TIME6.
000023:                                                                                                  #  SINCE THE LM DAP MAINTAINS EXCLUSIVE CONTROL OVER TIME6 AND ITS INTERRUPTS, THE FOLLOWING CONVENTIONS HAVE BEEN
000024:                                                                                                  #  ESTABLISHED AND MUST NOT BE TAMPERED WITH:
000025:                                                                                                  #           1. NO NUMBER IS EVER PLACED INTO TIME6 EXCEPT BY LM DAP.
000026:                                                                                                  #           2. NO PROGRAM OTHER THAN LM DAP ENABLES THE TIME6 COUNTER.
000027:                                                                                                  #           3. ONLY POSITIVE NUMBERS ARE ENTERED INTO TIME6, SO IT COUNTS DOWN TO -0 (MINUS ZERO) TO INTERRUPT.
000028:                                                                                                  #           4. IF -0 IS NOT IN TIME6 WHEN THE INTERRUPT OCCURS, THEN THE INTERRUPT HAS ALREADY BEEN PROCESSED.
000029:                                                                                                  #           5. ALL PROGRAMS WHICH OPERATE IN EITHER INTERRUPT MODE OR WITH INTERRUPT INHIBITED MUST CALL T6JOBCHK
000030:                                                                                                  #              EVERY 6 MILLISECONDS TO PROCESS A POSSIBLE WAITING T6RUPT BEFORE IT CAN BE HONORED BY THE HARDWARE.
000031:
000032:                                                                                                  #  DOT6RUPT CALLING SEQUENCE:
000033:
000034:                                                                                                  #  REF   1                 4004  52 011 0           DXCH   ARUPT           T6RUPT
000035:                                                                                                  #                          4005  0 0006 1           EXTEND
000036:                                                                                                  #  REF   1                 4006  3 5045 0           DCA    T6ADR
000037:                                                                                                  #                          4007  52 006 0           DTCB
000038:
000039:                                                                                                  #  T6JOBCHK CALLING SEQUENCE:
000040:
000041:                                                                                                  #  REF   0              23,1000  0 4200 1           TC     T6JOBCHK
000042:
000043:                                                                                                  #  SUBROUTINES CALLED:   DOT6RUPT CALLS T6JOBCHK.
000044:
000045:                                                                                                  #  NORMAL EXIT MODES:    DOT6RUPT TRANSFERS CONTROL TO RESUME.
000046:                                                                                                  #                        T6JOBCHK TRANSFERS CONTROL TO CALLER AT LOCATION AFTER CALL.
000047:
000048:                                                                                                  #  ALARM/ABORT MODES:    NONE.
000049:
000050:                                                                                                  #  INPUT: TIME6,T6NEXT REGS,T6NEXTJT REGS.
000051:
000052:                                                                                                  #  OUTPUT: (SAME AS INPUT.)
000053:
000054:                                                                                                  #  DEBRIS: DOT6RUPT: NONE.  T6JOBCHK: A,L
000055:                                                                                                  #  *** NOTE: AS OF MOD. NO. 2, T6NEXT AND T6NEXTJT LISTS ARE IN UNSWITCHED ERASABLE. ***
000056:


000058:
000059:    5050                                           BLOCK    02
000060:    5050     1002                                  EBANK=   T6NEXT
000061:
000062:    5050     1002                                  EBANK=   T6NEXT
000063:    5050           02000 34062  T6ADR              2CADR    DOT6RUPT                              #  2CADR OF INTERRUPT PROCESSOR.
000064:
000065: 16,2000                                           BANK     16
000066: 16,2000     1002                                  EBANK=   T6NEXT
000067:
000068: 16,2000           22016        DOT6RUPT           LXCH     BANKRUPT                              #  (INTERRUPT LEAD IN CONTINUED)
000069: 16,2001           00006                           EXTEND
000070: 16,2002           22012                           QXCH     QRUPT
000071:
000072: 16,2003           06013                           TC       T6JOBCHK                              #  CALL T6JOBCHK
000073:
000074: 16,2004           15733                           TCF      RESUME                                #  END TIME6 RUPT
000075:
000076:
000077:
000078:    6013                                           BLOCK    03
000079:    6013     1002                                  EBANK=   T6NEXT
000080:
000081:    6013           10031        T6JOBCHK           CCS      TIME6                                 #  CHECK TIME6 FOR WAITING T6RUPT:
000082:    6014           00002                           TC       Q                                     #  NONE: CLOCK COUTING DOWN.
000083:    6015           00002                           TC       Q                                     #  NONE: T6RUPT ALREADY PROCESSED.
000084:    6016           00002                           TC       Q                                     #  NONE: INVALID VALUE. (POSSIBLE ABORT.)
000085:
000086:                                                                                                  #  CONTROL PASSES TO T6JOB ONLY WHEN C(TIME6) = -0 (I.E. WHEN A T6RUPT MUST BE PROCESSED).
000087:
000088:    6017           37743        T6JOB              CAF      POSMAX                                #  DISABLE CLOCK: NEEDED SINCE RUPT OCCURS
000089:    6020           00006                           EXTEND                                         #  1 DINC AFTER T6 = 77777.  FOR 625 MUSECS
000090:    6021           03013                           WAND     13                                    #  MUST NOT HAVE T6 = +0 WITH ENABLE SET.
000091:
000092:    6022           37767                           CAF      ZERO                                  #  UPDATE ORDERED LIST OF T6NEXT REGISTERS
000093:    6023           57003                           XCH      T6NEXT     +1                         #  1) PUSH FIRST ENTRY INTO TIME6.
000094:    6024           57002                           XCH      T6NEXT                                #  2) PUSH SECOND ENTRY INTO FIRST PLACE.
000095:    6025           54031                           TS       TIME6                                 #  3) ZERO LAST (SECOND) DT IN LIST.
000096:
000097:    6026           10031                           CCS      TIME6                                 #  TIME6 EITHER POSITIVE OR PLUS ZERO:
000098:    6027           16032                           TCF      T6NZERO                               #  (BRANCH IF TIME6 STILL ACTIVE.)
000099:
000100:    6030           31004                           CAE      T6NEXTJT                              #  THESE ARE TRANSLATION JETS (NO DT),
000101:    6031           16041                           TCF      WRITEJTS                              #  DETERMINE CHANNEL AND WRITE.
000102:
000103:    6032           37745        T6NZERO            CAF      BIT15                                 #  ENABLE TIME6 COUNTER TO START TIMING
000104:    6033           00006                           EXTEND                                         #  THIS JET FIRING (PROPER JETS NOT YET
000105:    6034           05013                           WOR      13                                    #  WRITTEN INTO CHANNEL, BUT WILL BE SOON).
000106:
000107:    6035           37767                           CAF      ZERO                                  #  UPDATE ORDERED LIST OF JET POLICIES:
000108:    6036           57006                           XCH      T6NEXTJT   +2                         #  1) LEAVE JETS TO GO ON NOW IN A.
000109:


000111:    6037           57005                           XCH      T6NEXTJT   +1                         #  2) CYCLE LIST UP TOWARD TOP.
000112:    6040           57004                           XCH      T6NEXTJT                              #  3) ZERO LAST ENTRY IN LIST.
000113:


000115:                                                                                                  #  THE FOLLOWING JET-ON LOGIC MAY BE USED AS A SUBROUTINE (3 ENTRY POINTS):
000116:
000117:                                                                                                  #  FIRST, LET SGN(A) DETERMINE THE JET CHANNEL:
000118:                                                                                                  #           POSITIVE IMPLIES P-AXIS POLICY.
000119:                                                                                                  #           NEGATIVE IMPLIES Q,R-AXES POLICY.
000120:
000121:    6041           00006        WRITEJTS           EXTEND                                         #  TEST FOR CHANNEL TO WRITE POLICY IN:
000122:    6042           66046                           BZMF     WRITEQR                               #  NEG: Q,R-AXES JETS IN CHANNEL 5
000123:
000124:                                                                                                  #  SECOND, FOR P-AXIS JET POLICIES:
000125:
000126:    6043           00006        WRITEP             EXTEND                                         #  POS: P-AXIS   JETS IN CHANNEL 6
000127:    6044           01006                           WRITE    6
000128:    6045           00002                           TC       Q                                     #  RETURN.
000129:
000130:                                                                                                  #  THIRD, FOR Q,R-AXES JET POLICIES:
000131:
000132:    6046           00006        WRITEQR            EXTEND                                         #  Q,R-AXES JETS IN CHANNEL 5
000133:    6047           01005                           WRITE    5
000134:    6050           00002                           TC       Q                                     #  RETURN.

End of include-file T6-RUPT_PROGRAMS.agc.  Parent file is MAIN.agc


