
Source Code


000002:                                                                                                  ## Copyright:    Public domain.
000003:                                                                                                  ## Filename:     THROTTLE_CONTROL.agc
000004:                                                                                                  ## Purpose:      A module for revision 0 of BURST120 (Sunburst). It
000005:                                                                                                  ##               is part of the source code for the Lunar Module's
000006:                                                                                                  ##               (LM) Apollo Guidance Computer (AGC) for Apollo 5.
000007:                                                                                                  ## Assembler:    yaYUL
000008:                                                                                                  ## Contact:      Ron Burkey <info@sandroid.org>.
000009:                                                                                                  ## Website:      www.ibiblio.org/apollo/index.html
000010:                                                                                                  ## Mod history:  2016-09-30 RSB  Created draft version.
000011:                                                                                                  ##               2016-10-30 MAS  Transcribed.
000012:                                                                                                  ##               2016-11-02 RSB  Typo.
000013:                                                                                                  ##               2016-12-06 RSB  Comment-proofing via octopus/ProoferComments;
000014:                                                                                                  ##                               changes were made.
000015:


000017:                                                                                                  #        THROTTLE CONTROL CAN BE USED IN EITHER OF TWO MODES: IN "PERCENTAGE MODE" (WHEN A CERTAIN FRACTION OF
000018:                                                                                                  #  MAXIMUM THRUST IS DESIRED) AND IN "ACCELERATION MODE"  (WHEN THE THRUST DESIRED IS THAT CORRESPONDING TO A
000019:                                                                                                  #  SPECIFIED ACCELERATION).
000020:
000021:                                                                                                  #                   PERCENTAGE MODE                                               ACCELERATION MODE
000022:
000023:                                                                                                  #        THE FRACTION OF MAXIMUM THRUST (NOMINALLY                     DESIRED ACCELERATION, IN DOUBLE PRECISION,
000024:                                                                                                  #  10500 POUNDS) DESIRED, IN SINGLE PRECISION, IS                IN UNITS OF 2(-5) M/CS/CS, IS PLACED IN /ACF/.
000025:                                                                                                  #  PLACED IN PCNTF.   ENTRY IS VIA A DTCB AN THE                 ENTRY IS VIA A DTCB ON THE 2CADR OF THROTCON.
000026:                                                                                                  #  2CADR OF PCNTFMAX.   THE ROUTINE BEGINNING AT                 THE ROUTINE BEGINNING AT THROTCON SETS UP A JOB -
000027:                                                                                                  #  PCNTFMAX SETS UP A JOB - PCNTJOB - AND RETURNS                ACCLJOB - AND RETURNS TO THE USER (AT THE
000028:                                                                                                  #  TO THE USER (AT THE INSTRUCTION IMMEDIATELY                   INSTRUCTION FOLLOWING THE DTCB).
000029:                                                                                                  #  FOLLOWING THE DTCB).
000030:                                                                                                  #                                                                     ACCLJOB, AFTER A RESTART PROTECT,
000031:                                                                                                  #        PCNTJOB, AFTER A RESTART PROTECT,                       COMPUTES DESIRED ACCELERATION, FC = /ACF/ MASS,
000032:                                                                                                  #  TURNS OFF THE TRIM GIMBAL, SETS UP A WAITLIST                SCALED AT ABOUT 2.7 POUNDS PER BIT.
000033:                                                                                                  #  TASK (DESCRIBED LOCALLY), COMPUTES THRUST DESIRED,
000034:                                                                                                  #  FC = PCNTF FMAX, SCALED AT ABOUT 2.7 POUNDS PER BIT,                (NOTE THAT IN THE ACCELERATION MODE THE TRIM
000035:                                                                                                  #  AND TCF'S AROUND THE COMMENCEMENT OF ACCLJOB TO               GIMBAL IS NOT TURNED OFF; IT IS ASSUMED TO BE OFF
000036:                                                                                                  #  FOLDCALC.                                                    BY THE TIME THROTTLE CHANGES ARE COMMANDED.
000037:
000038:                                                                                                  #        FOLDCALC BEGINS BY COMPUTING PRESENT THRUST,  FOLD = MASS /AF/,  SCALED AS IS FC.   NEXT, SINCE /AF/ IS
000039:                                                                                                  #  MERELY AN "AVERAGE" OF THE THROTTLE LEVELS OF THE PRECEEDING PIPA INTERVAL, FOLD IS WEIGHTED BY FWEIGHT, A
000040:                                                                                                  #  FUNCTION OF THE PRECEEDING THROTTLE COMMAND (DESCRIBED LOCALLY).   TO PRECLUDE A SPURIOUS WEIGHTING THAT WOULD
000041:                                                                                                  #  OTHERWISE OCCUR, FWEIGHT IS ZEROED 1.95 SECONDS AFTER EVERY PERCENTAGE MODE THROTTLING.
000042:
000043:                                                                                                  #        NEXT, TO COMPENSATE FOR THE DIFFERENTIAL BETWEEN BITS FOR MAXIMUM THRUST AND BITS FOR FULL THROTTLE, THE
000044:                                                                                                  #  NUMBER  FOLD - FODD IS COMPUTED AND SET INTO PIFPSET WHENEVER FCOLD INDICATES THE THROTTLE IS AT MAXIMUM.
000045:                                                                                                  #  SINCE PIFPSET IS USED, RATHER THAN PIF, PIF STILL REFLECTS ACCURATELY THE ACTUAL THRUST CHANGE AND FWEIGHT IS
000046:                                                                                                  #  COMPUTED PROPERLY.
000047:
000048:                                                                                                  #        NEXT COMES IS-IT-ON.   HERE THE ENGINE-OFF BIT (14 OF CHANNEL 11) IS QUERIED; IF THE ENGINE IS OFF
000049:                                                                                                  #  FCOLD, THE SINGLE PRECISION HISTORY REGISTER, IS SET TO 10% FMAX AND PIFPSET, A PRESETTING ADDED TO PIF AT
000050:                                                                                                  #  THE LAST MOMENT, IS SET TO -10% FMAX TO COMPENSATE FOR THE ASSUMED SETTING OF THE MANUAL THROTTLE.
000051:
000052:                                                                                                  #        THE SERIES OF DECISIONS BEGINNING AT WHERETO CAUSES THE THROTTLE TO REACT TO USERS' DESIRES IN THE
000053:                                                                                                  #  MANNER DESCRIBED BY FIGURE 5.3-5 OF THE FLIGHT 206 GSOP.   WHERETO PROCEEDS (OR BRANCHES) TO FLATOUT (IF THE
000054:                                                                                                  #  THROTTLE LEVEL ASKED FOR IS IN THE FORBIDDEN REGION) OR TO DOPIF.   FLATOUT RESETS FC TO 94% FMAX, SETS FEXTRA
000055:                                                                                                  #  (A BOOST GIVEN TO THE THROTTLE TO KEEP IT JAMMED AGAINST ITS STOPS) INTO PIFPSET, AND PROCEEDS TO DOPIF.
000056:
000057:                                                                                                  #        DOPIF, AFTER A "TYPE C" RESTART PROTECT (NECESSITATED BY THE FACT THAT FCOLD AND PIF, USED EARLIER, ARE
000058:                                                                                                  #  ABOUT TO BE MODIFIED), SETS FCOLD = FC, COMPUTES PIF (PULSE INCREMENT FOR ACCELERATION) = FC - FOLD, AND, AS
000059:                                                                                                  #  IT PROCEEDS TO DOIT, HAS THIS NUMBER PLUS PIFPSET IN A & L.
000060:
000061:                                                                                                  #        DOIT DOES IT.   IT TS'S INTO THRUST, THE CHANNEL (55) LEADING TO DECA, THE THROTTLE-AGC INTERFACE
000062:                                                                                                  #  CIRCUIT, AND SETS BIT 4 IN CHANNEL 11, THE SIGNAL FOR THRUST TO BE COUNTED DOWN (AT 3200 PPS).   FINALLY,
000063:                                                                                                  #  FWEIGHT = F(PIF) IS COMPUTED FOR USE NEXT PASS.
000064:
000065:                                                                                                  #        AFTER ANOTHER RESTART PROTECT A TCF ENDOFJOB ENDS THROTTLE CONTROL.
000066:


000068: 30,3445                                           BANK     30
000069: 30,3445  E5,1565                                  EBANK=   ETHROT
000070:
000071:
000072:
000073:                                                                                                  #  ***************
000074:                                                                                                  #  * SUBROUTINES *
000075:                                                                                                  #  ***************
000076:
000077:                                                                                                  #  THIS SUBROUTINE MULTIPLIES ACCELERATION
000078:                                                                                                  #  (ARRIVING IN A AND L) BY MASS AND LEAVES
000079:                                                                                                  #  FORCE (THRUST) IN A & L, SCALED AT ABOUT
000080:                                                                                                  #  2.7 POUNDS PER BIT.
000081:
000082: 30,3445           00006        MASSMULT           EXTEND
000083: 30,3446           22120                           QXCH     BUF                                   #  PRESERVING RETURN ADDRESS
000084: 30,3447           52145                           DXCH     MPAC
000085: 30,3450           07155                           TC       DMP                                   #  LEAVES ODDLY SCALED FORCE IN MPAC
000086: 30,3451           01320                           ADRES    MASS
000087: 30,3452           07155                           TC       DMP                                   #  LEAVES PROPERLY SCALED FORCE IN MPAC
000088: 30,3453           03533                           ADRES    SCALEFAC
000089: 30,3454           52146                           DXCH     MPAC       +1                         #  LOADING FORCE INTO A AND L
000090: 30,3455           00120                           TC       BUF                                   #  IN WHICH Q WAS STORED
000091:
000092:
000093:
000094:                                                                                                  #  THIS TASK WILL BE EXECUTED 1.95 SECONDS
000095:                                                                                                  #    AFTER PERCENTAGE MODE THROTTLING.
000096:
000097: 30,3456           47767        PCNTOVER           CS       ZERO
000098: 30,3457           55576                           TS       FWEIGHT                               #    SCHEME WILL WORK PROPERLY NEXT PASS
000099: 30,3460           55577                           TS       FWEIGHT    +1
000100: 30,3461           22007                           ZL                                             #  -0 STILL IN A
000101: 30,3462           53100                           DXCH     -PHASE1
000102: 30,3463           15727                           TCF      TASKOVER
000103:
000104:
000105:


000108:                                                                                                  #  ========================================================================
000109: 30,3464           00303        THROTDT            DEC      +195       B-14
000110: 30,3465           00310        PGUID              DEC      +200       B-14
000111:                                                                                                  #  ========================================================================
000112:


000114:                                                                                                  #  ***********
000115:                                                                                                  #  * ENTRIES *
000116:                                                                                                  #  ***********
000117:
000118:                                                                                                  #  THIS ENTRY SETS UP A JOB WHICH WILL
000119:                                                                                                  #  DELIVER A SPECIFIED FRACTION OF MAXIMUM
000120:                                                                                                  #  THRUST.   THIS FRACTION ARRIVES (SP) IN
000121:                                                                                                  #  REGISTER PCNTF.
000122:
000123: 30,3466           53575        PCNTFMAX           DXCH     RTNHOLD                               #  RETAINING 2CADR FOR RETURN TO USER
000124: 30,3467           35647                           CAF      PRIO25
000125: 30,3470           00004                           INHINT
000126: 30,3471           05505                           TC       NOVAC
000127: 30,3472  E5,1565                                  EBANK=   ETHROT
000128: 30,3472           03507 60065                     2CADR    PCNTJOB
000129:
000130: 30,3474           00003                           RELINT
000131: 30,3475           13505                           TCF      AWAY
000132:
000133:                                                                                                  #  NORMAL ENTRY FROM GUIDANCE EQUATIONS:
000134:                                                                                                  #  THE JOB SET UP HERE DELIVERS A THRUST
000135:                                                                                                  #  CORRESPONDING TO THE DESIRED MAGNITUDE
000136:                                                                                                  #  OF THRUST-ACCELERATION.   THIS VALUE
000137:                                                                                                  #  ARRIVES (DP) IN /ACF/, SCALED IN UNITS
000138:                                                                                                  #  OF 2(-5) M/CS/CS.
000139:
000140: 30,3476           53575        THROTCON           DXCH     RTNHOLD                               #  RETAINING 2CADR FOR RETURN TO USER
000141: 30,3477           35210                           CAF      PRIO30
000142: 30,3500           00004                           INHINT
000143: 30,3501           05505                           TC       NOVAC
000144: 30,3502  E5,1565                                  EBANK=   ETHROT
000145: 30,3502           03540 60065                     2CADR    ACCLJOB
000146:
000147: 30,3504           00003                           RELINT
000148:
000149:
000150:                                                                                                  #  THIS RETURN IS COMMON TO BOTH ENTRIES.
000151:
000152: 30,3505           53575        AWAY               DXCH     RTNHOLD
000153: 30,3506           52006                           DTCB
000154:


000156:                                                                                                  #  ***************
000157:                                                                                                  #  * COMPUTATION *
000158:                                                                                                  #  ***************
000159:
000160: 30,3507           00004        PCNTJOB            INHINT                                         #  SINCE THROTTLING IS ABOUT TO COMMENCE.
000161:
000162: 30,3510           33464                           CAF      THROTDT                               #  SET UP A TASK TO ZERO FWEIGHT IN 2 SECS
000163: 30,3511           05663                           TC       WAITLIST
000164: 30,3512  E5,1565                                  EBANK=   ETHROT
000165: 30,3512           03456 60065                     2CADR    PCNTOVER
000166:
000167: 30,3514           04141                           TC       2PHSCHNG
000168: 30,3515           40031                           OCT      40031                                 #  1.3 SPOT FOR PCNTOVER
000169: 30,3516           05024                           OCT      05024
000170: 30,3517           25000                           OCT      25000
000171:
000172: 30,3520           00006                           EXTEND
000173: 30,3521           43701                           DCS      -FMAX
000174: 30,3522           52145                           DXCH     MPAC
000175: 30,3523           31323                           CA       PCNTF
000176: 30,3524           07357                           TC       SHORTMP
000177: 30,3525           52145                           DXCH     MPAC                                  #  LOADING
000178: 30,3526           53571                           DXCH     FC                                    #  STORING
000179:
000180: 30,3527           37767                           CA       ZERO                                  #  ZEROING FWEIGHT SINCE IT'S UNKNOWN
000181: 30,3530           55576                           TS       FWEIGHT
000182: 30,3531           55577                           TS       FWEIGHT    +1
000183: 30,3532           13547                           TCF      FOLDCALC
000184:
000185:


000189:                                                                                                  #  ########################################################################
000190: 30,3533           00063 36233  SCALEFAC           2DEC     +51.946987 B-14                       #  QUASI-NEWTONS TO PULSE UNITS
000191:
000192: 30,3535           31000        2.PG.FRT           DEC      12800      B-14                       #  TWICE PGUID TIME PULSE RATE
000193: 30,3536           74034        -LOCRIT            DEC      -2019      B-14                       #  THE LOWER MID-SCALE CRITERION
000194: 30,3537  30,3536               FEXTRA             =        -LOCRIT
000195: 30,3537           00666        +FLOW              DEC      +438       B-14                       #  MINIMUM ATTAINABLE THRUST
000196:                                                                                                  #  ########################################################################
000197:
000198: 30,3540           04161        ACCLJOB            TC       PHASCHNG
000199: 30,3541           05024                           OCT      05024
000200: 30,3542           30000                           OCT      30000
000201:
000202: 30,3543           00006                           EXTEND
000203: 30,3544           31323                           DCA      /ACF/
000204: 30,3545           03445                           TC       MASSMULT
000205: 30,3546           53571                           DXCH     FC                                    #  FC = MASS /ACF/, SCALED
000206:


000208: 30,3547           00006        FOLDCALC           EXTEND
000209: 30,3550           31325                           DCA      /AF/
000210: 30,3551           03445                           TC       MASSMULT
000211: 30,3552           53566                           DXCH     FOLD                                  #  FOLD = MASS /AF/, SCALED
000212:
000213: 30,3553           00006                           EXTEND
000214: 30,3554           31577                           DCA      FWEIGHT                               #  WEIGHTING FOLD BY FWEIGHT
000215: 30,3555           21566                           DAS      FOLD                                  #    AS COMPUTED LAST PASS
000216:
000217:                                                                                                  #  IF THE THROTTLE IS AT MAXIMUM, THE
000218:                                                                                                  #  QUANTITY  -(FODD-FOLD)  IS COMPUTED AND
000219:                                                                                                  #  PUT INTO PIFPSET TO COMPENSATE FOR THE
000220:                                                                                                  #  DIFFERENCE BETWEEN THE NUMBER OF BITS
000221:                                                                                                  #  (I.E. PULSES) CORRESPONDING TO 100%
000222:                                                                                                  #  THROTTLE (FODD) AND THE NUMBER CORRES-
000223:                                                                                                  #  PONDING TO ACTUAL THRUST (FOLD).   THIS
000224:                                                                                                  #  COMPENSATION IS NEEDED IF THE THROTTLE
000225:                                                                                                  #  RETURNS TO THE THROTTLEABLE REGION THIS
000226:                                                                                                  #  PASS.   IF IT DOES NOT, PIFPSET IS RESET
000227:                                                                                                  #  IN FLATOUT.
000228:
000229: 30,3556           47767        FCOMPSET           CS       ZERO
000230: 30,3557           55574                           TS       PIFPSET
000231: 30,3560           43704                           CS       +HICRIT
000232: 30,3561           61567                           AD       FCOLD
000233: 30,3562           00006                           EXTEND
000234: 30,3563           63567                           BZMF     IS-IT-ON                              #  BRANCH IF FCOLD < HICRIT, OTHERWISE
000235: 30,3564           43677                           CS       +FODD                                 #    COMPUTE THE COMPENSATION NUMBER
000236: 30,3565           61565                           AD       FOLD
000237: 30,3566           55574                           TS       PIFPSET
000238:
000239:
000240:
000241:                                                                                                  #  THIS ROUTINE CHECKS THE ENGINE-OFF BIT.
000242:                                                                                                  #  IF THE ENGINE IS OFF, FCOLD IS SET TO
000243:                                                                                                  #  10 PERCENT FMAX, AND, SINCE /AF/ DOES
000244:                                                                                                  #  NOT REFLECT THE SETTING OF THE MANUAL
000245:                                                                                                  #  THROTTLE, THAT SETTING (AROUND 12%) IS
000246:                                                                                                  #  PLACED NEGATIVELY IN PIFPSET.
000247:
000248: 30,3567           40075        IS-IT-ON           CS       FLAGWRD1
000249: 30,3570           77757                           MASK     ENGINBIT
000250: 30,3571           00006                           EXTEND
000251: 30,3572           13577                           BZF      WHERETO                               #  BRANCH HERE IF ENGINE IS ON
000252: 30,3573           33537                           CA       +FLOW
000253: 30,3574           55567                           TS       FCOLD                                 #  SETTING FCOLD
000254: 30,3575           43537                           CS       +FLOW
000255: 30,3576           55574                           TS       PIFPSET
000256:


000258:                                                                                                  #  ************
000259:                                                                                                  #  * DECISION *
000260:                                                                                                  #  ************
000261:
000262:                                                                                                  #  THIS LOGIC DETERMINES THROTTLING IN THE
000263:                                                                                                  #  REGION 10% - 94%.   THE MANUAL THROTTLE,
000264:                                                                                                  #  SET TO MINIMUM BY MISSION PHASE PROGRMS,
000265:                                                                                                  #  PROVIDES THE LOWER BOUND; A STOP IN THE
000266:                                                                                                  #  ENGINE ITSELF PROVIDES THE UPPER.
000267:
000268:
000269:
000270: 30,3577           31570        WHERETO            CA       FC
000271: 30,3600           63536                           AD       -LOCRIT
000272: 30,3601           00006                           EXTEND
000273: 30,3602           63620                           BZMF     DOPIF                                 #  BRANCH IF FC < LOCRIT
000274: 30,3603           41570                           CS       FC
000275: 30,3604           63704                           AD       +HICRIT
000276: 30,3605           00006                           EXTEND
000277: 30,3606           63613                           BZMF     FLATOUT                               #  BRANCH IF FC > OR = HICRIT
000278: 30,3607           43704                           CS       +HICRIT
000279: 30,3610           61567                           AD       FCOLD
000280: 30,3611           00006                           EXTEND
000281: 30,3612           63620                           BZMF     DOPIF                                 #  BRANCH IF FCOLD < OR = HICRIT,
000282:                                                                                                  #    OTHERWISE PROCEED TO FLATOUT
000283:


000285:                                                                                                  #  *************
000286:                                                                                                  #  * EXECUTION *
000287:                                                                                                  #  *************
000288:
000289: 30,3613           00006        FLATOUT            EXTEND
000290: 30,3614           33703                           DCA      +FHIGH
000291: 30,3615           53571                           DXCH     FC
000292: 30,3616           43536                           CS       FEXTRA
000293: 30,3617           55574                           TS       PIFPSET
000294:
000295: 30,3620           04161        DOPIF              TC       PHASCHNG
000296: 30,3621           04024                           OCT      04024                                 #  ?
000297:
000298: 30,3622           00006                           EXTEND
000299: 30,3623           31571                           DCA      FC
000300: 30,3624           55567                           TS       FCOLD                                 #  HISTORY
000301: 30,3625           53573                           DXCH     PIF
000302: 30,3626           00006                           EXTEND
000303: 30,3627           41566                           DCS      FOLD
000304: 30,3630           21573                           DAS      PIF                                   #  PIF = FC - FOLD
000305: 30,3631           03713                           TC       DAPLOGIC
000306:
000307: 30,3632           31572        DAPLRETN           CA       PIF
000308: 30,3633           61574                           AD       PIFPSET                               #  ADD IN PIFPSET, NOT CHANGING PIF
000309:
000310: 30,3634           54055        DOIT               TS       THRUST
000311: 30,3635           04161                           TC       PHASCHNG
000312: 30,3636           04024                           OCT      04024
000313:
000314: 30,3637           37760                           CAF      BIT4
000315: 30,3640           00006                           EXTEND
000316: 30,3641           05014                           WOR      14                                    #  AND THE ENGINE DOES THE REST...


000319:                                                                                                  #  SINCE /AF/ IS NOT AN INSTANTANEOUS
000320:                                                                                                  #  ACCELERATION (WOULD THAT IT WERE%) BUT
000321:                                                                                                  #  RATHER AN "AVERAGE" OF THE ACCELERATION
000322:                                                                                                  #  LEVELS OF THE LAST PIPA INTERVAL, AND
000323:                                                                                                  #  SINCE FOLD IS COMPUTED DIRECTLY FROM
000324:                                                                                                  #  /AF/, FOLD IN ORDER TO CORRESPOND TO THE
000325:                                                                                                  #  ACTUAL THRUST LEVEL AT THE END OF THE
000326:                                                                                                  #  INTERVAL MUST BE WEIGHTED BY
000327:
000328:                                                                                                  #             PIF PPROCES     PIF /PIF/
000329:                                                                                                  #   FWEIGHT = ----------- + ------------- ,
000330:                                                                                                  #                PGUID      2 PGUID FRATE
000331:
000332:                                                                                                  #  WHERE PPROCES IS THE TIME BETWEEN PIPA
000333:                                                                                                  #  READING AND THE START OF THROTTLING,
000334:                                                                                                  #  PGUID IS THE GUIDANCE PERIOD (2 SECONDS)


000336:                                                                                                  #  AND FRATE IS THE THROTTLING RATE (SOME
000337:                                                                                                  #  3200 UNITS PER SECOND).   HERE FWEIGHT
000338:                                                                                                  #  IS COMPUTED FOR USE NEXT PASS.
000339:
000340: 30,3642           00006                           EXTEND
000341: 30,3643           30025                           DCA      TIME2
000342: 30,3644           52145                           DXCH     MPAC
000343: 30,3645           00006                           EXTEND
000344: 30,3646           41307                           DCS      PIPTIME
000345: 30,3647           20145                           DAS      MPAC
000346: 30,3650           33465                           CA       PGUID
000347: 30,3651           56145                           XCH      MPAC       +1
000348: 30,3652           77743                           MASK     POSMAX                                #  IN CASE THAT LOUSY SIGN BIT IS SET
000349: 30,3653           00006                           EXTEND
000350: 30,3654           10145                           DV       MPAC       +1                         #  WHICH CONTAINS PGUID
000351: 30,3655           00006                           EXTEND
000352: 30,3656           71572                           MP       PIF
000353: 30,3657           53577                           DXCH     FWEIGHT                               #  FWEIGHT = (PPROCES/PGUID)PIF, SO FAR...
000354:
000355: 30,3660           33535                           CA       2.PG.FRT
000356: 30,3661           56144                           XCH      MPAC                                  #  TO BE USED AS A DIVISOR LATER
000357: 30,3662           11572                           CCS      PIF
000358: 30,3663           67763                           AD       ONE
000359: 30,3664           13666                           TCF      +2
000360: 30,3665           67763                           AD       ONE
000361: 30,3666           00006                           EXTEND                                         #  AT THIS POINT HAVE /PIF/ IN A
000362: 30,3667           71572                           MP       PIF
000363: 30,3670           00006                           EXTEND
000364: 30,3671           10144                           DV       MPAC                                  #  WHICH CONTAINS 2.PG.FRT
000365: 30,3672           22007                           LXCH     7
000366: 30,3673           21577                           DAS      FWEIGHT
000367:
000368: 30,3674           04161                           TC       PHASCHNG
000369: 30,3675           00004                           OCT      00004
000370: 30,3676           15567                           TCF      ENDOFJOB
000371:


000373:                                                                                                  #  *************
000374:                                                                                                  #  * CONSTANTS *
000375:                                                                                                  #  *************
000376:
000377:                                                                                                  #  CONSTANTS FOR DECISION
000378:
000379: 30,3677           07432        +FODD              DEC      +3866      B-14                       #  THIS MUCH SATURATES THROTTLE
000380:
000381: 30,3700           70325 77777  -FMAX              2DEC     -3882      B-14                       #  NOMINAL MAX THRUST IN BIT UNITS
000382:
000383: 30,3702           07100 00000  +FHIGH             2DEC     +3648      B-14                       #  MAX ATTAINABLE THRUST, UNERODED
000384:
000385: 30,3704           04314        +HICRIT            DEC      +2252      B-14                       #  THE HIGHER MID-SCALE CRITERION
000386:


000390:                                                                                                  #  ########################################################################
000391:                                                                                                  #  SINCE BETWEEN REVISION 113 AND 114 IT WAS NECESSARY TO PRESERVE THE
000392:                                                                                                  #  LOCATIONS IN MEMORY OF LABELS ADDRESSED FROM OTHER BANKS (SINCE THE ROPE
000393:                                                                                                  #  IS ALREADY UNDER CONSTRUCTION) CERTAIN CONSTANTS WERE REMOVED FROM THIS
000394:                                                                                                  #  SECTION FOR USE AS FILLER ELSEWHERE.   THESE ARE -LOCRIT, +FLOW,
000395:                                                                                                  #  SCALEFAC, FEXTRA, THROTDT, PGUID, AND 2.PG.FRT.
000396:                                                                                                  #  ########################################################################
000397:
000398:
000399:
000400:                                                                                                  #  IF THE TRIM GIMBAL IS TURNED OFF BY
000401:                                                                                                  #  THE THROTTLE, THIS TASK WILL REENABLE IT
000402:                                                                                                  #  ABOUT 2 SECONDS LATER.
000403:
000404: 30,3705           06076        THROTOVR           TC       FLAG2DWN
000405: 30,3706           00010                           OCT      00010
000406: 30,3707           47767                           CS       ZERO
000407: 30,3710           22007                           ZL
000408: 30,3711           53100                           DXCH     -PHASE1
000409: 30,3712           15727                           TCF      TASKOVER
000410:
000411:
000412:
000413: 30,3713           31572        DAPLOGIC           CA       PIF
000414: 30,3714           00006                           EXTEND
000415: 30,3715           63717                           BZMF     +2
000416: 30,3716           40000                           COM
000417:
000418: 30,3717           63770                           AD       HITHRESH
000419: 30,3720           00006                           EXTEND
000420: 30,3721           63750                           BZMF     JETSET                                #  BRANCH IF /PIF/ > OR = HITHRESH
000421:
000422: 30,3722           31565                           CA       FOLD
000423: 30,3723           60000                           DOUBLE
000424: 30,3724           54120                           TS       BUF
000425:


000427: 30,3725           31570                           CA       FC
000428: 30,3726           00006                           EXTEND
000429: 30,3727           10120                           DV       BUF                                   #  WHERE TWICE FOLD WAS STORED
000430: 30,3730           54120                           TS       BUF
000431: 30,3731           35632                           CA       EBANK6
000432: 30,3732           54003                           TS       EBANK
000433: 30,3733  E6,1563                                  EBANK=   D2CDUYFL
000434: 30,3733           30120                           CA       BUF
000435: 30,3734           00006                           EXTEND
000436: 30,3735           71563                           MP       D2CDUYFL
000437: 30,3736           60000                           DOUBLE
000438: 30,3737           57563                           XCH      D2CDUYFL
000439: 30,3740           30120                           CA       BUF
000440: 30,3741           00006                           EXTEND
000441: 30,3742           71565                           MP       D2CDUZFL
000442: 30,3743           60000                           DOUBLE
000443: 30,3744           57565                           XCH      D2CDUZFL
000444:
000445: 30,3745           35661                           CA       EBANK5
000446: 30,3746           54003                           TS       EBANK
000447: 30,3747  E5,1565                                  EBANK=   ETHROT
000448: 30,3747           13632                           TCF      DAPLRETN
000449:
000450:
000451:
000452: 30,3750           00004        JETSET             INHINT
000453: 30,3751           40077                           CS       DAPBOOLS                              #  INHIBIT USE OF TRIM GIMBAL
000454: 30,3752           77762                           MASK     USEQRJTS
000455: 30,3753           26077                           ADS      DAPBOOLS
000456:
000457: 30,3754           33464                           CA       THROTDT                               #  SET UP TASK TO REMOVE THE INHIBITION
000458: 30,3755           05663                           TC       WAITLIST                              #    CREATED BELOW
000459: 30,3756  E5,1565                                  EBANK=   ETHROT
000460: 30,3756           03705 60065                     2CADR    THROTOVR
000461:
000462: 30,3760           06060                           TC       FLAG2UP                               #  INHIBIT THE GIMBLMON FROM REACTIVATING
000463: 30,3761           00010                           OCT      00010                                 #    THE GIMBAL
000464:
000465: 30,3762           04161                           TC       PHASCHNG
000466: 30,3763           47011                           OCT      47011
000467: 30,3764           00303                           DEC      195        B-14
000468: 30,3765  E5,1565                                  EBANK=   ETHROT
000469: 30,3765           03705 60065                     2CADR    THROTOVR
000470:
000471: 30,3767           13632                           TCF      DAPLRETN
000472:
000473:
000474:
000475: 30,3770           00302        HITHRESH           DEC      +194       B-14                       #  ABOUT 5 % OF NOMINAL MAXIMUM THRUST

End of include-file THROTTLE_CONTROL.agc.  Parent file is MAIN.agc


