
Source Code


000002:                                                                                                  ## Copyright:    Public domain.
000003:                                                                                                  ## Filename:     THROTTLE_CONTROL.agc
000004:                                                                                                  ## Purpose:      A module for revision 0 of BURST120 (Sunburst). It
000005:                                                                                                  ##               is part of the source code for the Lunar Module's
000006:                                                                                                  ##               (LM) Apollo Guidance Computer (AGC) for Apollo 5.
000007:                                                                                                  ## Assembler:    yaYUL
000008:                                                                                                  ## Contact:      Ron Burkey <info@sandroid.org>.
000009:                                                                                                  ## Website:      www.ibiblio.org/apollo/index.html
000010:                                                                                                  ## Mod history:  2016-09-30 RSB  Created draft version.
000011:                                                                                                  ##               2016-10-30 MAS  Transcribed.
000012:                                                                                                  ##               2016-11-02 RSB  Typo.
000013:


000015:                                                                                                  #        THROTTLE CONTROL CAN BE USED IN EITHER OF TWO MODES: IN "PERCENTAGE MODE" (WHEN A CERTAIN FRACTION OF
000016:                                                                                                  #  MAXIMUM THRUST IS DESIRED) AND IN "ACCELERATION MODE"  (WHEN THE THRUST DESIRED IS THAT CORRESPONDING TO A
000017:                                                                                                  #  SPECIFIED ACCELERATION).
000018:
000019:                                                                                                  #                   PERCENTAGE MODE                                               ACCLERATION MODE
000020:
000021:                                                                                                  #        THE FRACTION OF MAXIMUM THRUST (NOMINALLY                     DESIRED ACCELERATION, IN DOUBLE PRECISION,
000022:                                                                                                  #  10500 POUNDS) DESIRED, IN SINGLE PRECISION, IS                IN UNITS OF 2(-5) M/CS/CS, IS PLACED IN /ACF/.
000023:                                                                                                  #  PLACED IN PCNTF.   ENTRY IS VIA A DTCB AN THE                 ENTRY IS VIA A DTCB ON THE 2CADR OF THROTCON.
000024:                                                                                                  #  2CADR OF PCNTFMAX.   THE ROUTINE BEGINNING AT                 THE ROUTINE BEGINNING AT THROTCON SETS UP A JOB -
000025:                                                                                                  #  PCNTFMAX SETS UP A JOB - PCNTJOB - AND RETURNS                ACCLJOB - AND RETURNS TO THE USER (AT THE
000026:                                                                                                  #  TO THE USER (AT THE INSTRUCTION IMMEDIATELY                   INSTRUCTION FOLLOWING THE DTCB).
000027:                                                                                                  #  FOLLOWING THE DTCB).
000028:                                                                                                  #                                                                     ACCLJOB, AFTER A RESTART PROTECT,
000029:                                                                                                  #        PCNTJOB, AFTER A RESTART PROTECT,                       COMPUTES DESIRED ACCELERATION, FC = /AFC/ MASS,
000030:                                                                                                  #  TURNS OFF THE TRIM GIMBAL, SETS UP A WAITLIST                SCALED AT ABOUT 2.7 POUNDS PER BIT.
000031:                                                                                                  #  TASK (DESCRIBED LOCALLY), COMPUTES THRUST DESIRED,
000032:                                                                                                  #  FC = PCNTF FMAX, SCALED AT ABOUT 2.7 POUNDS PER BIT,                (NOTE THAT IN THE ACCELERATION MODE THE TRIM
000033:                                                                                                  #  AND TCF'S AROUND THE COMMENCEMENT OF ACCLJOB TO               GIMBAL IS NOT TURNED OFF; IT IS ASSUMED TO BE OFF
000034:                                                                                                  #  FOLDCALC.                                                    BY THE TIME THROTTLE CHANGES ARE COMMANDED.
000035:
000036:                                                                                                  #        FOLDCALC BEGINS BY COMPUTING PRESENT THRUST,  FOLD = MASS /AF/,  SCALED AS IS FC.   NEXT, SINCE /AF/ IS
000037:                                                                                                  #  MERELY AN "AVERAGE" OF THE THROTTLE LEVELS OF THE PRECEEDING PIPA INTERVAL, FOLD IS WEIGHTED BY FWEIGHT, A
000038:                                                                                                  #  FUNCTION OF THE PRECEEDING THROTTLE COMMAND (DESCRIBED LOCALLY).   TO PRECLUDE A SPURIOUS WEIGHTING THAT WOULD
000039:                                                                                                  #  OTHERWISE OCCUR, FWEIGHT IS ZEROED 1.95 SECONDS AFTER EVERY PERCENTAGE MODE THROTTLING.
000040:
000041:                                                                                                  #        NEXT, TO COMPENSATE FOR THE DIFFERENTIAL BETWEEN BITS FOR MAXIMUM THRUST AND BITS FOR FULL THROTTLE, THE
000042:                                                                                                  #  NUMBER  FOLD - FODD IS COMPUTED AND SET INTO PIFPSET WHENEVER FCOLD INDICATES THE THROTTLE IS AT MAXIMUM.
000043:                                                                                                  #  SINCE PIFPSET IS USED, RATHER THAN PIF, PIF STILL REFLECTS ACCURATELY THE ACTUAL THRUST CHANGE AND FWEIGHT IS
000044:                                                                                                  #  COMPUTED PROPERLY.
000045:
000046:                                                                                                  #        NEXT COMES IS-IT-ON.   HERE THE ENGINE-OFF BIT (14 OF CHANNEL 11) IS QUERIED; IF THE ENGINE IS OFF
000047:                                                                                                  #  FCOLD, THE SINGLE PRECISION HISTORY REGISTER, IS SET TO 10% FMAX AND PIFPSET, A PRESETTING ADDED TO PIF AT
000048:                                                                                                  #  THE LAST MOMENT, IS SET TO -10% FMAX TO COMPENSATE FOR THE ASSUMED SETTING OF THE MANUAL THROTTLE.
000049:
000050:                                                                                                  #        THE SERIES OF DECISIONS BEGINNING AT WHERETO CAUSES THE THROTTLE TO REACT TO USERS' DESIRES IN THE
000051:                                                                                                  #  MANNER DESCRIBED BY FIGURE 5.3-5 OF THE FLIGHT 206 GSOP.   WHERETO PROCEEDS (OR BRANCHES) TO FLATOUT (IF THE
000052:                                                                                                  #  THROTTLE LEVEL ASKED FOR IS IN THE FORBIDDEN REGION) OR TO DOPIF.   FLATOUT RESETS FC TO 94% FMAX, SETS FEXTRA
000053:                                                                                                  #  (A BOOST GIVEN TO THE THROTTLE TO KEEP IT JAMMED AGAINST ITS STOPS) INTO PIFPSET, AND PROCEEDS TO DOPIF.
000054:
000055:                                                                                                  #        DOPIF, AFTER A "TYPE C" RESTART PROTECT (NECESSITATED BY THE FACT THAT FCOLD AND PIF, USED EARLIER, ARE
000056:                                                                                                  #  ABOUT TO BE MODIFIED), SETS FCOLD = FC, COMPUTES PIF (PULSE INCREMENT FOR ACCELERATION) = FC - FOLD, AND, AS
000057:                                                                                                  #  IT PROCEEDS TO DOIT, HAS THIS NUMBER PLUS PIFPSET IN A & L.
000058:
000059:                                                                                                  #        DOIT DOES IT.   IT TS'S INTO THRUST, THE CHANNEL (55) LEADING TO DECA, THE THROTTLE-AGC INTERFACE
000060:                                                                                                  #  CIRCUIT, AND SETS BIT 4 IN CHANNEL 11, THE SIGNAL FOR THRUST TO BE COUNTED DOWN (AT 3200 PPS).   FINALLY,
000061:                                                                                                  #  FWEIGHT = F(PIF) IS COMPUTED FOR USE NEXT PASS.
000062:
000063:                                                                                                  #        AFTER ANOTHER RESTART PROTECT A TCF ENDOFJOB ENDS THROTTLE CONTROL.
000064:


000066: 30,3445                                           BANK     30
000067: 30,3445  E5,1565                                  EBANK=   ETHROT
000068:
000069:
000070:
000071:                                                                                                  #  ***************
000072:                                                                                                  #  * SUBROUTINES *
000073:                                                                                                  #  ***************
000074:
000075:                                                                                                  #  THIS SUBROUTINE MULTIPLIES ACCELERATION
000076:                                                                                                  #  (ARRIVING IN A AND L) BY MASS AND LEAVES
000077:                                                                                                  #  FORCE (THRUST) IN A & L, SCALED AT ABOUT
000078:                                                                                                  #  2.7 POUNDS PER BIT.
000079:
000080: 30,3445           00006        MASSMULT           EXTEND
000081: 30,3446           22120                           QXCH     BUF                                   #  PRESERVING RETURN ADDRESS
000082: 30,3447           52145                           DXCH     MPAC
000083: 30,3450           07155                           TC       DMP                                   #  LEAVES ODDLY SCALED FORCE IN MPAC
000084: 30,3451           01320                           ADRES    MASS
000085: 30,3452           07155                           TC       DMP                                   #  LEAVES PROPERLY SCLAED FORCE IN MPAC
000086: 30,3453           03533                           ADRES    SCALEFAC
000087: 30,3454           52146                           DXCH     MPAC       +1                         #  LOADING FORCE INTO A AND L
000088: 30,3455           00120                           TC       BUF                                   #  IN WHICH Q WAS STORED
000089:
000090:
000091:
000092:                                                                                                  #  THIS TASK WILL BE EXECUTED 1.95 SECONDS
000093:                                                                                                  #    AFTER PERCENTAGE MODE THROTTLING.
000094:
000095: 30,3456           47767        PCNTOVER           CS       ZERO
000096: 30,3457           55576                           TS       FWEIGHT                               #    SCHEME WILL WORK PROPERLY NEXT PASS
000097: 30,3460           55577                           TS       FWEIGHT    +1
000098: 30,3461           22007                           ZL                                             #  -0 STILL IN A
000099: 30,3462           53100                           DXCH     -PHASE1
000100: 30,3463           15727                           TCF      TASKOVER
000101:
000102:
000103:


000106:                                                                                                  #  =======================================================================================================
000107: 30,3464           00303        THROTDT            DEC      +195       B-14
000108: 30,3465           00310        PGUID              DEC      +200       B-14
000109:                                                                                                  #  =======================================================================================================
000110:


000112:                                                                                                  #  ***********
000113:                                                                                                  #  * ENTRIES *
000114:                                                                                                  #  ***********
000115:
000116:                                                                                                  #  THIS ENTRY SETS UP A JOB WHICH WILL
000117:                                                                                                  #  DELIVER A SPECIFIED FRACTION OF MAXIMUM
000118:                                                                                                  #  THRUST.   THIS FRACTION ARRIVES (SP) IN
000119:                                                                                                  #  REGISTER PCNTF.
000120:
000121: 30,3466           53575        PCNTFMAX           DXCH     RTNHOLD                               #  RETAINING 2CADR FOR RETURN TO USER
000122: 30,3467           35647                           CAF      PRIO25
000123: 30,3470           00004                           INHINT
000124: 30,3471           05505                           TC       NOVAC
000125: 30,3472  E5,1565                                  EBANK=   ETHROT
000126: 30,3472           03507 60065                     2CADR    PCNTJOB
000127:
000128: 30,3474           00003                           RELINT
000129: 30,3475           13505                           TCF      AWAY
000130:
000131:                                                                                                  #  NORMAL ENTRY FROM GUIDANCE EQUATIONS:
000132:                                                                                                  #  THE JOB SET UP HERE DELIVERS A THRUST
000133:                                                                                                  #  CORRESPONDING TO THE DESIRED MAGNITUDE
000134:                                                                                                  #  OF THRUST-ACCELERATION.   THIS VALUE
000135:                                                                                                  #  ARRIVES (DP) IN /ACF/, SCALED IN UNITS
000136:                                                                                                  #  OF 2(-5) M/CS/CS.
000137:
000138: 30,3476           53575        THROTCON           DXCH     RTNHOLD                               #  RETAINING 2CADR FOR RETURN TO USER
000139: 30,3477           35210                           CAF      PRIO30
000140: 30,3500           00004                           INHINT
000141: 30,3501           05505                           TC       NOVAC
000142: 30,3502  E5,1565                                  EBANK=   ETHROT
000143: 30,3502           03540 60065                     2CADR    ACCLJOB
000144:
000145: 30,3504           00003                           RELINT
000146:
000147:
000148:                                                                                                  #  THIS RETURN IS COMMON TO BOTH ENTRIES.
000149:
000150: 30,3505           53575        AWAY               DXCH     RTNHOLD
000151: 30,3506           52006                           DTCB
000152:


000154:                                                                                                  #  ***************
000155:                                                                                                  #  * COMPUTATION *
000156:                                                                                                  #  ***************
000157:
000158: 30,3507           00004        PCNTJOB            INHINT                                         #  SINCE THROTTLING IS ABOUT TO COMMENCE.
000159:
000160: 30,3510           33464                           CAF      THROTDT                               #  SET UP A TASK TO ZERO FWEIGHT IN 2 SECS
000161: 30,3511           05663                           TC       WAITLIST
000162: 30,3512  E5,1565                                  EBANK=   ETHROT
000163: 30,3512           03456 60065                     2CADR    PCNTOVER
000164:
000165: 30,3514           04141                           TC       2PHSCHNG
000166: 30,3515           40031                           OCT      40031                                 #  1.3 SPOT FOR PCNTOVER
000167: 30,3516           05024                           OCT      05024
000168: 30,3517           25000                           OCT      25000
000169:
000170: 30,3520           00006                           EXTEND
000171: 30,3521           43701                           DCS      -FMAX
000172: 30,3522           52145                           DXCH     MPAC
000173: 30,3523           31323                           CA       PCNTF
000174: 30,3524           07357                           TC       SHORTMP
000175: 30,3525           52145                           DXCH     MPAC                                  #  LOADING
000176: 30,3526           53571                           DXCH     FC                                    #  STORING
000177:
000178: 30,3527           37767                           CA       ZERO                                  #  ZEROING FWEIGHT SINCE IT'S UNKNOWN
000179: 30,3530           55576                           TS       FWEIGHT
000180: 30,3531           55577                           TS       FWEIGHT    +1
000181: 30,3532           13547                           TCF      FOLDCALC
000182:
000183:
000184:
000185:                                                                                                  #  =======================================================================================================
000186: 30,3533           00063 36233  SCALEFAC           2DEC     +51.946987 B-14                       #  QUASI-NEWTONS TO PULSE UNITS
000187:
000188: 30,3535           31000        2.PG.FRT           DEC      12800      B-14                       #  TWICE PGUID TIME PULSE RATE
000189: 30,3536           74034        -LOCRIT            DEC      -2019      B-14                       #  THE LOWER MID-SCALE CRITERION
000190: 30,3537  30,3536               FEXTRA             =        -LOCRIT
000191: 30,3537           00666        +FLOW              DEC      +438       B-14                       #  MINIMUM ATTAINABLE THRUST
000192:                                                                                                  #  =======================================================================================================
000193:
000194: 30,3540           04161        ACCLJOB            TC       PHASCHNG
000195: 30,3541           05024                           OCT      05024
000196: 30,3542           30000                           OCT      30000
000197:
000198: 30,3543           00006                           EXTEND
000199: 30,3544           31323                           DCA      /ACF/
000200: 30,3545           03445                           TC       MASSMULT
000201: 30,3546           53571                           DXCH     FC                                    #  FC = MASS /AFC/, SCALED
000202:


000204: 30,3547           00006        FOLDCALC           EXTEND
000205: 30,3550           31325                           DCA      /AF/
000206: 30,3551           03445                           TC       MASSMULT
000207: 30,3552           53566                           DXCH     FOLD                                  #  FOLD = MASS /AF/, SCALED
000208:
000209: 30,3553           00006                           EXTEND
000210: 30,3554           31577                           DCA      FWEIGHT                               #  WEIGHTING FOLD BY FWEIGHT
000211: 30,3555           21566                           DAS      FOLD                                  #    AS COMPUTED LAST PASS
000212:
000213:                                                                                                  #  IF THE THROTTLE IS AT MAXIMUM, THE
000214:                                                                                                  #  QUANTITY  -(FODD-FOLD)  IS COMPUTED AND
000215:                                                                                                  #  PUT INTO PIFPSET TO COMPENSATE FOR THE
000216:                                                                                                  #  DIFFERENCE BETWEEN THE NUMBER OF BITS
000217:                                                                                                  #  (I.E. PULSES) CORRESPONDING TO 100%
000218:                                                                                                  #  THROTTLE (FODD) AND THE NUMBER CORRES-
000219:                                                                                                  #  PONDING TO ACTUAL THRUST (FOLD).   THIS
000220:                                                                                                  #  COMPENSATION IS NEEDED IF THE THROTTLE
000221:                                                                                                  #  RETURNS TO THE THROTTLEABLE REGION THIS
000222:                                                                                                  #  PASS.   IF IT DOES NOT, PIFPSET IS RESET
000223:                                                                                                  #  IN FLATOUT.
000224:
000225: 30,3556           47767        FCOMPSET           CS       ZERO
000226: 30,3557           55574                           TS       PIFPSET
000227: 30,3560           43704                           CS       +HICRIT
000228: 30,3561           61567                           AD       FCOLD
000229: 30,3562           00006                           EXTEND
000230: 30,3563           63567                           BZMF     IS-IT-ON                              #  BRANCH IF FCOLD < HICRIT, OTHERWISE
000231: 30,3564           43677                           CS       +FODD                                 #    COMPUTE THE COMPENSATION NUMBER
000232: 30,3565           61565                           AD       FOLD
000233: 30,3566           55574                           TS       PIFPSET
000234:
000235:
000236:
000237:                                                                                                  #  THIS ROUTINE CHECKS THE ENGINE-OFF BIT.
000238:                                                                                                  #  IF THE ENGINE IS OFF, FCOLD IS SET TO
000239:                                                                                                  #  10 PERCENT FMAX, AND, SINCE /AF/ DOES
000240:                                                                                                  #  NOT REFLECT THE SETTING OF THE MANUAL
000241:                                                                                                  #  THROTTLE, THAT SETTING (AROUND 12%) IS
000242:                                                                                                  #  PLACED NEGATIVELY IN PIFPSET.
000243:
000244: 30,3567           40075        IS-IT-ON           CS       FLAGWRD1
000245: 30,3570           77757                           MASK     ENGINBIT
000246: 30,3571           00006                           EXTEND
000247: 30,3572           13577                           BZF      WHERETO                               #  BRANCH HERE IF ENGINE IS ON
000248: 30,3573           33537                           CA       +FLOW
000249: 30,3574           55567                           TS       FCOLD                                 #  SETTING FCOLD
000250: 30,3575           43537                           CS       +FLOW
000251: 30,3576           55574                           TS       PIFPSET
000252:


000254:                                                                                                  #  ************
000255:                                                                                                  #  * DECISION *
000256:                                                                                                  #  ************
000257:
000258:                                                                                                  #  THIS LOGIC DETERMINES THROTTLING IN THE
000259:                                                                                                  #  REGION 10% - 94%.   THE MANUAL THROTTLE,
000260:                                                                                                  #  SET TO MINIMUM BY MISSION PHASE PROGRMS,
000261:                                                                                                  #  PROVIDES THE LOWER BOUND; A STOP IN THE
000262:                                                                                                  #  ENGINE ITSELF PROVIDES THE UPPER.
000263:
000264:
000265:
000266: 30,3577           31570        WHERETO            CA       FC
000267: 30,3600           63536                           AD       -LOCRIT
000268: 30,3601           00006                           EXTEND
000269: 30,3602           63620                           BZMF     DOPIF                                 #  BRANCH IF FC < LOCRIT
000270: 30,3603           41570                           CS       FC
000271: 30,3604           63704                           AD       +HICRIT
000272: 30,3605           00006                           EXTEND
000273: 30,3606           63613                           BZMF     FLATOUT                               #  BRANCH IF FC > OR = HICRIT
000274: 30,3607           43704                           CS       +HICRIT
000275: 30,3610           61567                           AD       FCOLD
000276: 30,3611           00006                           EXTEND
000277: 30,3612           63620                           BZMF     DOPIF                                 #  BRANCH IF FCOLD < OR = HICRIT,
000278:                                                                                                  #    OTHERWISE PROCEED TO FLATOUT
000279:


000281:                                                                                                  #  *************
000282:                                                                                                  #  * EXECUTION *
000283:                                                                                                  #  *************
000284:
000285: 30,3613           00006        FLATOUT            EXTEND
000286: 30,3614           33703                           DCA      +FHIGH
000287: 30,3615           53571                           DXCH     FC
000288: 30,3616           43536                           CS       FEXTRA
000289: 30,3617           55574                           TS       PIFPSET
000290:
000291: 30,3620           04161        DOPIF              TC       PHASCHNG
000292: 30,3621           04024                           OCT      04024                                 #  ?
000293:
000294: 30,3622           00006                           EXTEND
000295: 30,3623           31571                           DCA      FC
000296: 30,3624           55567                           TS       FCOLD                                 #  HISTORY
000297: 30,3625           53573                           DXCH     PIF
000298: 30,3626           00006                           EXTEND
000299: 30,3627           41566                           DCS      FOLD
000300: 30,3630           21573                           DAS      PIF                                   #  PIF = FC - FOLD
000301: 30,3631           03713                           TC       DAPLOGIC
000302:
000303: 30,3632           31572        DAPLRETN           CA       PIF
000304: 30,3633           61574                           AD       PIFPSET                               #  ADD IN PIFPSET, NOT CHANGING PIF
000305:
000306: 30,3634           54055        DOIT               TS       THRUST
000307: 30,3635           04161                           TC       PHASCHNG
000308: 30,3636           04024                           OCT      04024
000309:
000310: 30,3637           37760                           CAF      BIT4
000311: 30,3640           00006                           EXTEND
000312: 30,3641           05014                           WOR      14                                    #  AND THE ENGINE DOES THE REST...
000313:
000314:                                                                                                  #  SINCE /AF/ IS NOT AN INSTANTANEOUS
000315:                                                                                                  #  ACCELERATION (WOULD THAT IT WERE%) BUT
000316:                                                                                                  #  RATHER AN "AVERAGE" OF THE ACCELERATION
000317:                                                                                                  #  LEVELS OF THE LAST PIPA INTERVAL, AND
000318:                                                                                                  #  SINCE FOLD IS COMPUTED DIRECTLY FROM
000319:                                                                                                  #  /AF/, FOLD IN ORDER TO CORRESPOND TO THE
000320:                                                                                                  #  ACTUAL THRUST LEVEL AT THE END OF THE
000321:                                                                                                  #  INTERVAL MUST BE WEIGHTED BY
000322:
000323:                                                                                                  #             PIF PPROCES     PIF /PIF/
000324:                                                                                                  #   FWEIGHT = ----------- + ------------- ,
000325:                                                                                                  #                PGUID      2 PGUID FRATE
000326:
000327:                                                                                                  #  WHERE PPROCES IS THE TIME BETWEEN PIPA
000328:                                                                                                  #  READING AND THE START OF THROTTLING,
000329:                                                                                                  #  PGUID IS THE GUIDANCE PERIOD (2 SECONDS)


000331:                                                                                                  #  AND FRATE IS THE THROTTLING RATE (SOME
000332:                                                                                                  #  3200 UNITS PER SECOND).   HERE FWEIGHT
000333:                                                                                                  #  IS COMPUTED FOR USE NEXT PASS.
000334:
000335: 30,3642           00006                           EXTEND
000336: 30,3643           30025                           DCA      TIME2
000337: 30,3644           52145                           DXCH     MPAC
000338: 30,3645           00006                           EXTEND
000339: 30,3646           41307                           DCS      PIPTIME
000340: 30,3647           20145                           DAS      MPAC
000341: 30,3650           33465                           CA       PGUID
000342: 30,3651           56145                           XCH      MPAC       +1
000343: 30,3652           77743                           MASK     POSMAX                                #  IN CASE THAT LOUSY SIGN BIT IS SET
000344: 30,3653           00006                           EXTEND
000345: 30,3654           10145                           DV       MPAC       +1                         #  WHICH CONTAINS PGUID
000346: 30,3655           00006                           EXTEND
000347: 30,3656           71572                           MP       PIF
000348: 30,3657           53577                           DXCH     FWEIGHT                               #  FWEIGHT = (PPROCES/PGUID)PIF, SO FAR...
000349:
000350: 30,3660           33535                           CA       2.PG.FRT
000351: 30,3661           56144                           XCH      MPAC                                  #  TO BE USED AS A DIVISOR LATER
000352: 30,3662           11572                           CCS      PIF
000353: 30,3663           67763                           AD       ONE
000354: 30,3664           13666                           TCF      +2
000355: 30,3665           67763                           AD       ONE
000356: 30,3666           00006                           EXTEND                                         #  AT THIS POINT HAVE /PIF/ IN A
000357: 30,3667           71572                           MP       PIF
000358: 30,3670           00006                           EXTEND
000359: 30,3671           10144                           DV       MPAC                                  #  WHICH CONTAINS 2.PG.FRT
000360: 30,3672           22007                           LXCH     7
000361: 30,3673           21577                           DAS      FWEIGHT
000362:
000363: 30,3674           04161                           TC       PHASCHNG
000364: 30,3675           00004                           OCT      00004
000365: 30,3676           15567                           TCF      ENDOFJOB
000366:


000368:                                                                                                  #  *************
000369:                                                                                                  #  * CONSTANTS *
000370:                                                                                                  #  *************
000371:
000372:                                                                                                  #  CONSTANTS FOR DECISION
000373:
000374: 30,3677           07432        +FODD              DEC      +3866      B-14                       #  THIS MUCH SATURATES THROTTLE
000375:
000376: 30,3700           70325 77777  -FMAX              2DEC     -3882      B-14                       #  NOMINAL MAX THRUST IN BIT UNITS
000377:
000378: 30,3702           07100 00000  +FHIGH             2DEC     +3648      B-14                       #  MAX ATTAINABLE THRUST, UNERODED
000379:
000380: 30,3704           04314        +HICRIT            DEC      +2252      B-14                       #  THE HIGHER MID-SCALE CRITERION
000381:
000382:                                                                                                  #  ========================================================================
000383:                                                                                                  #  SINCE BETWEEN REVISION 113 AND 114 IT WAS NECESSARY TO PRESERVE THE
000384:                                                                                                  #  LOCATIONS IN MEMORY OF LABELS ADDRESSED FROM OTHER BANKS (SINCE THE ROPE
000385:                                                                                                  #  IS ALREADY UNDER CONSTRUCTION) CERTAIN CONSTANTS WERE REMOVED FROM THIS
000386:                                                                                                  #  SECTION FOR USE AS FILLER ELSEWHERE.   THESE ARE -LOCRIT, +FLOW,
000387:                                                                                                  #  SCALEFAC, FEXTRA, THROTDT, PGUID, AND 2.PG.FRT.
000388:                                                                                                  #  ========================================================================
000389:
000390:
000391:
000392:                                                                                                  #  IF THE TRIM GIMBAL IS TURNED OFF BY
000393:                                                                                                  #  THE THROTTLE, THIS TASK WILL REENABLE IT
000394:                                                                                                  #  ABOUT 2 SECONDS LATER.
000395:
000396: 30,3705           06076        THROTOVR           TC       FLAG2DWN
000397: 30,3706           00010                           OCT      00010
000398: 30,3707           47767                           CS       ZERO
000399: 30,3710           22007                           ZL
000400: 30,3711           53100                           DXCH     -PHASE1
000401: 30,3712           15727                           TCF      TASKOVER
000402:
000403:
000404:
000405: 30,3713           31572        DAPLOGIC           CA       PIF
000406: 30,3714           00006                           EXTEND
000407: 30,3715           63717                           BZMF     +2
000408: 30,3716           40000                           COM
000409:
000410: 30,3717           63770                           AD       HITHRESH
000411: 30,3720           00006                           EXTEND
000412: 30,3721           63750                           BZMF     JETSET                                #  BRANCH IF /PIF/ > OR = HITHRESH
000413:
000414: 30,3722           31565                           CA       FOLD
000415: 30,3723           60000                           DOUBLE
000416: 30,3724           54120                           TS       BUF
000417:


000419: 30,3725           31570                           CA       FC
000420: 30,3726           00006                           EXTEND
000421: 30,3727           10120                           DV       BUF                                   #  WHERE TWICE FOLD WAS STORED
000422: 30,3730           54120                           TS       BUF
000423: 30,3731           35632                           CA       EBANK6
000424: 30,3732           54003                           TS       EBANK
000425: 30,3733  E6,1563                                  EBANK=   D2CDUYFL
000426: 30,3733           30120                           CA       BUF
000427: 30,3734           00006                           EXTEND
000428: 30,3735           71563                           MP       D2CDUYFL
000429: 30,3736           60000                           DOUBLE
000430: 30,3737           57563                           XCH      D2CDUYFL
000431: 30,3740           30120                           CA       BUF
000432: 30,3741           00006                           EXTEND
000433: 30,3742           71565                           MP       D2CDUZFL
000434: 30,3743           60000                           DOUBLE
000435: 30,3744           57565                           XCH      D2CDUZFL
000436:
000437: 30,3745           35661                           CA       EBANK5
000438: 30,3746           54003                           TS       EBANK
000439: 30,3747  E5,1565                                  EBANK=   ETHROT
000440: 30,3747           13632                           TCF      DAPLRETN
000441:
000442:
000443:
000444: 30,3750           00004        JETSET             INHINT
000445: 30,3751           40077                           CS       DAPBOOLS                              #  INHIBIT USE OF TRIM GIMBAL
000446: 30,3752           77762                           MASK     USEQRJTS
000447: 30,3753           26077                           ADS      DAPBOOLS
000448:
000449: 30,3754           33464                           CA       THROTDT                               #  SET UP TASK TO REMOVE THE INHIBITION
000450: 30,3755           05663                           TC       WAITLIST                              #    CREATED BELOW
000451: 30,3756  E5,1565                                  EBANK=   ETHROT
000452: 30,3756           03705 60065                     2CADR    THROTOVR
000453:
000454: 30,3760           06060                           TC       FLAG2UP                               #  INHIBIT THE GIMBLMON FROM REACTIVATING
000455: 30,3761           00010                           OCT      00010                                 #    THE GIMBAL
000456:
000457: 30,3762           04161                           TC       PHASCHNG
000458: 30,3763           47011                           OCT      47011
000459: 30,3764           00303                           DEC      195        B-14
000460: 30,3765  E5,1565                                  EBANK=   ETHROT
000461: 30,3765           03705 60065                     2CADR    THROTOVR
000462:
000463: 30,3767           13632                           TCF      DAPLRETN
000464:
000465:
000466:
000467: 30,3770           00302        HITHRESH           DEC      +194       B-14                       #  ABOUT 5 % OF NOMINAL MAXIMUM THRUST

End of include-file THROTTLE_CONTROL.agc.  Parent file is MAIN.agc


