
Source Code


000002:                                                                                                  ## Copyright:   Public domain.
000003:                                                                                                  ## Filename:    THRUST_MAGNITUDE_FILTER.agc
000004:                                                                                                  ## Purpose:     A module for revision 0 of BURST120 (Sunburst). It
000005:                                                                                                  ##              is part of the source code for the Lunar Module's
000006:                                                                                                  ##              (LM) Apollo Guidance Computer (AGC) for Apollo 5.
000007:                                                                                                  ## Assembler:   yaYUL
000008:                                                                                                  ## Contact:     Ron Burkey <info@sandroid.org>.
000009:                                                                                                  ## Website:     www.ibiblio.org/apollo/index.html
000010:                                                                                                  ## Mod history: 2016-09-30 RSB  Created draft version.
000011:                                                                                                  ##              2016-10-19 RSB  Transcribed.
000012:                                                                                                  ##              2016-10-31 RSB  Typos.
000013:


000015:                                                                                                  #  PROGRAM NAME - ATMAG
000016:
000017:                                                                                                  #  MODIFICATION BY - BERMAN AND CATTANACH
000018:
000019:                                                                                                  #  FUNCTIONAL DESCRIPTION -
000020:
000021:                                                                                                  #      THE THRUST MAGNITUDE FILTER CONVERTS ABDELV TO M/CS, INVERTS AND COMBINES IT WITH TWO PROCEDING
000022:                                                                                                  #  INPUTS TO PRODUCE THE INVERTED EXHAUST VELOCITY, BURN UP TIME, AND ANTICIPATED THRUST ACCELERATION FOR
000023:                                                                                                  #  THE NEXT TIME INCREMENT.  THRUST MAGNITUDE FILTER IS BYPASSED UNTIL AFTER THE MAIN ENGINE GOES ON.
000024:
000025:                                                                                                  #  CALLING SEQUENC - ATMAG IS ENTERED BY EXTEND                 AND        EXTEND
000026:                                                                                                  #                                       DCA      ATMAGAD                   DCA     ATMAG4
000027:                                                                                                  #                                       DXCH     AVGEXIT                   DXCH    AVGEXIT
000028:                                                                                                  #  NORMAL EXIT - FROM ATMAG BY GOTO
000029:                                                                                                  #                                   ASCENT
000030:
000031:                                                                                                  #  OUTPUT - INVERTED EXHAUST VELOCITY, BURN UP TIME, AND ANTICIPATED THRUST ACCELERATION
000032:
000033:                                                                                                  #  ERASABLE INITIALIZATION REQUIRED - THIS IS DONE BY PRE-APS PROGRAMS
000034:
000035:                                                                                                  #  DEBRIS - ABDVCONV, 1/DV1, 1/DV2, 1/VE, TBUP, AT.
000036:
000037:                                                                                                  #  ALARM OR ABORT EXIT MODES -
000038:
000039:                                                                                                  #  SUBROUTINES CALLED - NONE
000040:
000041: 32,3005                                           BANK     32
000042:
000043: 32,3005  E4,1452                                  EBANK=   TCO                                   #  EBANK4
000044:
000045: 32,3005           06112        ATMAG              TC       INTPRET
000046: 32,3006           57545                           DLOAD    DCOMP                                 #  LOAD -VE*2(-6)
000047: 32,3007           02556                                    NEGVEX
000048: 32,3010           77742                           SR1
000049: 32,3011           02025                           STORE    VE                                    #  VE*2(-7)
000050: 32,3012           67201                           SETPD    SLOAD
000051: 32,3013           00001                                    00D
000052: 32,3014           25052                                    BIT4H
000053: 32,3015           77471                           DDV      EXIT
000054: 32,3016           03624                                    ABDVCONV
000055:
000056: 32,3017           52145                           DXCH     MPAC
000057: 32,3020           53435                           DXCH     1/DV3
000058: 32,3021           53433                           DXCH     1/DV2
000059: 32,3022           53431                           DXCH     1/DV1
000060: 32,3023           52145                           DXCH     MPAC                                  #  MPAC=1/DV0*2(-7)
000061: 32,3024           06112                           TC       INTPRET
000062: 32,3025           77615                           DAD
000063: 32,3026           02031                                    1/DV1                                 #  (1/DV0+1/DV1)*2(-7)
000064: 32,3027           43215                           DAD      DAD


000066: 32,3030           02033                                    1/DV2
000067: 32,3031           02035                                    1/DV3                                 #  SUM(1/DV)*2(-7)
000068: 32,3032           41205                           DMP      DMP                                   #  VE SUM(1/DV)*2(-14)
000069: 32,3033           02025                                    VE                                    #  DT VE SUM(1/DV)*2(-21)
000070: 32,3034           21400                                    2SEC(9)
000071: 32,3035           65252                           SL3      PDDL                                  #  1/8 DT VE SUM(1/DV)*2(-7)
000072: 32,3036           02027                                    TBUP                                  #  LOAD TBUP*2(-17)
000073: 32,3037           43342                           SR1      DAD                                   #  1/2 OLD TBUP*2(-17)
000074: 32,3040           77625                           DSU
000075: 32,3041           25053                                    6SEC(18)                              #  GET NEW TBUP *2(-17)
000076: 32,3042           16027                           STODL    TBUP
000077: 32,3043           02025                                    VE
000078: 32,3044           56342                           SR1      DDV                                   #  VE*2(-8)
000079: 32,3045           02027                                    TBUP                                  #  AT*2(9)
000080: 32,3046           02023                           STORE    AT
000081: 32,3047           77650        FILTEND            GOTO
000082: 32,3050           64125                                    ASCENT
000083:
000084: 32,3051           00010        BIT4H              OCT      10
000085: 32,3052           00045 20000  6SEC(18)           2DEC     600        B-28
000086:
000087: 32,3054           25715        ASCPATCH           STOVL    UNNORM                                #  PATCH FROM ASCENT STEERING LOG SECTION.
000088: 32,3055           02340                                    RCOV
000089: 32,3056           52056                           UNIT     GOTO
000090: 32,3057           64327                                    ENDPATCH

End of include-file THRUST_MAGNITUDE_FILTER.agc.  Parent file is MAIN.agc


