
Source Code


000002:                                                                                                  ## Copyright:   Public domain.
000003:                                                                                                  ## Filename:    TRIM_GIMBAL_CNTROL_SYSTEM.agc
000004:                                                                                                  ## Purpose:     A module for revision 0 of BURST120 (Sunburst). It
000005:                                                                                                  ##              is part of the source code for the Lunar Module's
000006:                                                                                                  ##              (LM) Apollo Guidance Computer (AGC) for Apollo 5.
000007:                                                                                                  ## Assembler:   yaYUL
000008:                                                                                                  ## Contact:     Ron Burkey <info@sandroid.org>.
000009:                                                                                                  ## Website:     www.ibiblio.org/apollo/index.html
000010:                                                                                                  ## Mod history: 2016-09-30 RSB  Created draft version.
000011:                                                                                                  ##              2016-10-18 MAS  Began.
000012:                                                                                                  ##              2016-10-19 MAS  Completed transcription.
000013:                                                                                                  ##              2016-10-31 RSB   Typos
000014:                                                                                                  ##              2016-12-06 RSB  Comment-proofing with octopus/ProoferComments,
000015:                                                                                                  ##                              changes made.
000016:


000018: 21,2572                                           BANK     21
000019: 21,2572  E6,1542                                  EBANK=   DT
000020:                                                                                                  #  CONTROL REACHES THIS POINT UNDER EITHER OF THE FOLLOWING TWO CONDITIONS ONCE THE DESCENT ENGINE AND THE DIGITAL
000021:                                                                                                  #  AUTOPILOT ARE BOTH ON:
000022:                                                                                                  #           A) THE TRIM GIMBAL CONTROL LAW WAS ON DURING THE PREVIOUS Q,R-AXIS TIME5 INTERRUPT (OR THE DAPIDLER
000023:                                                                                                  #              INITIALIZATION WAS SET FOR TRIM GIMBAL CONTROL AND THIS IS THE FIRST PASS), OR
000024:                                                                                                  #           B) THE Q,R-AXES RCS JET CONTROL LAW ATTITUDE STEERING MODE REDUCED THE ATTITUDE ERROR TO LESS THAN
000025:                                                                                                  #  1DEGREE ON EACH AXIS ON ITS LAST TIME5 INTERRUPT.
000026:
000027:                                                                                                  #  THE FOLLOWING T5RUPT ENTRY BEGINS THE TRIM GIMBAL CONTROL LAW.  SINCE IT IS ASSUMED THAT THE LEM WILL REMAIN
000028:                                                                                                  #  UNDER TRIM GIMBAL CONTROL, A KALMAN FILTER RUPT IS SET UP TO BEGIN 30 MS FROM THE TRIM GIMBAL RUPT.
000029:
000030: 21,2572           32402        GTS                CAF      MS30F                                 #  RESET TIMER IMMEDIATELY: DT = 30 MS
000031: 21,2573           54030                           TS       TIME5
000032:
000033: 21,2574           22016                           LXCH     BANKRUPT                              #  INTERRUPT LEAD IN (CONTINUED)
000034: 21,2575           00006                           EXTEND
000035: 21,2576           22012                           QXCH     QRUPT
000036:
000037: 21,2577           00006                           EXTEND
000038: 21,2600           32411                           DCA      POSTPFIL
000039: 21,2601           53001                           DXCH     T5ADR
000040:
000041: 21,2602           12674                           TCF      GTSTEST                               #  SKIP OVER XFORMS UNTIL REORGANIZATION
000042:
000043: 21,2603           00006        GIMBAL             EXTEND                                         #  GET D.P. FILTERED CDUY VALUE (ONES COMP)
000044: 21,2604           31554                           DCA      CDUYFIL                               #  SCALED AT 2PI RADIANS
000045: 21,2605           02307                           TC       ONETOTWO                              #  FORM S.P. VALUE IN TWOS COMPLEMENT AT PI
000046: 21,2606           00006                           EXTEND
000047: 21,2607           20767                           MSU      CDUYD                                 #  FORM Y-AXIS ERROR IN ONES COMPLEMENT
000048: 21,2610           55467                           TS       QDIFF                                 #  (SAVE IN Q-AXIS ERROR LOC: EFFICIENCY)
000049:
000050: 21,2611           00006                           EXTEND                                         #  GET D.P. FILTERED CDUZ VALUE (ONES COMP)
000051: 21,2612           31556                           DCA      CDUZFIL                               #  SCALED AT 2PI RADIANS
000052: 21,2613           02307                           TC       ONETOTWO                              #  FORM S.P. VALUE IN TWOS COMPLEMENT AT PI
000053: 21,2614           00006                           EXTEND
000054: 21,2615           20770                           MSU      CDUZD                                 #  FORM Z-AXIS ERROR IN ONES COMPLEMENT
000055: 21,2616           55470                           TS       RDIFF                                 #  (SAVE IN R-AXIS ERROR LOC: EFFICIENCY)
000056:
000057:                                                                                                  #  TRANSFORM Y,Z CDU ERRORS TO THE Q,R-AXES.
000058:
000059: 21,2617           00006                           EXTEND                                         #  GET BOTH Y AND Z CDU ERRORS AT PI RAD
000060: 21,2620           31470                           DCA      QDIFF
000061: 21,2621           03264                           TC       QTRANSF                               #  FORM Q-ERROR IN A (SCALED AT PI RAD)
000062: 21,2622           53470                           DXCH     QDIFF                                 #  STORE Q-ERROR, GET BOTH Y,Z CDU ERRORS
000063: 21,2623           03274                           TC       RTRANSF                               #  FORM R-ERROR IN A (SCALED AT PI RAD)
000064: 21,2624           57470                           XCH      RDIFF                                 #  STORE R-ERROR
000065:
000066:                                                                                                  #  TRANSFORM THE FILTERED Y,Z RATES TO THE Q,R-AXES.
000067:                                                                                                  #  (THESE MAY BE NEEDED FOR THE RATE DERIVATION FOR THE JETS IF THEY MUST BE USED.)
000068:


000070: 21,2625           31561                           CAE      DCDUZFIL                              #  GET FILTERED Y,Z RATES
000071: 21,2626           54001                           TS       L                                     #  SCALED AT PI/4 RADIANS/SECOND
000072: 21,2627           31557                           CAE      DCDUYFIL
000073: 21,2630           03264                           TC       QTRANSF                               #  FOR Q-AXIS RATE
000074: 21,2631           55416                           TS       OMEGAQ                                #  STORED SCALED AT PI/4 RADIANS/SECOND
000075:
000076: 21,2632           31561                           CAE      DCDUZFIL                              #  GET FILTERED Y,Z RATES
000077: 21,2633           54001                           TS       L                                     #  SCALED AT PI/4 RADIANS/SECOND
000078: 21,2634           31557                           CAE      DCDUYFIL
000079: 21,2635           03274                           TC       RTRANSF                               #  FOR R-AXIS RATE
000080: 21,2636           55420                           TS       OMEGAR                                #  STORED SCALED AT PI/4 RADIANS/SECOND
000081:
000082:                                                                                                  #  TRANSFORM THE FILTERED Y,Z ACCELERATIONS TO THE Q,R-AXES.
000083:                                                                                                  #  (THESE MAY BE NEEDED TO CALCULATE TRIM GIMBAL OFF-TIMES IF ATTITUDE ERROR HAS GONE BEYOND TRIM GIMBAL CONTROL.)
000084:
000085: 21,2637           31565                           CAE      D2CDUZFL                              #  GET FILTERED Y,Z ACCELERATIONS
000086: 21,2640           54001                           TS       L                                     #  SCALED AT PI/8 RADIANS/SECOND(2)
000087: 21,2641           31563                           CAE      D2CDUYFL
000088: 21,2642           03264                           TC       QTRANSF                               #  FORM Q-AXIS ACCELERATION
000089: 21,2643           55417                           TS       ALPHAQ                                #  STORE AT PI/8 RADIANS/SECOND(2)
000090:
000091: 21,2644           31565                           CAE      D2CDUZFL                              #  GET FILTERED Y,Z ACCELERATIONS
000092: 21,2645           54001                           TS       L                                     #  SCALED AT PI/8 RADIANS/SECOND(2)
000093: 21,2646           31563                           CAE      D2CDUYFL
000094: 21,2647           03274                           TC       RTRANSF                               #  FORM R-AXIS ACCELERATION
000095: 21,2650           55421                           TS       ALPHAR                                #  STORE AT PI/8 RADIANS/SECOND(2)
000096:
000097:                                                                                                  #  EXTRAPOLATE THETA AND OMEGA OVER 100 MS PLUS THE 20 MS DELAY BETWEEN THE KALMAN FILTER AND TRIM GIMBAL
000098:                                                                                                  #   CONTROL, REFLECTING MECHANICAL LAG.
000099:
000100: 21,2651           31416                           CAE      OMEGAQ
000101: 21,2652           00006                           EXTEND
000102: 21,2653           72672                           MP       DTW
000103: 21,2654           27467                           ADS      QDIFF
000104:
000105: 21,2655           31420                           CAE      OMEGAR
000106: 21,2656           00006                           EXTEND
000107: 21,2657           72672                           MP       DTW
000108: 21,2660           27470                           ADS      RDIFF
000109:
000110: 21,2661           31417                           CAE      ALPHAQ
000111: 21,2662           00006                           EXTEND
000112: 21,2663           72673                           MP       DTA
000113: 21,2664           27416                           ADS      OMEGAQ
000114:
000115: 21,2665           31421                           CAE      ALPHAR
000116: 21,2666           00006                           EXTEND
000117: 21,2667           72673                           MP       DTA
000118: 21,2670           27420                           ADS      OMEGAR
000119:


000121: 21,2671           15733                           TCF      RESUME
000122:
000123: 21,2672           00754        DTW                OCT      00754                                 #  120 MS SCALED AT 4
000124: 21,2673           01727        DTA                OCT      01727                                 #  120 MS SCALED AT 2
000125:                                                                                                  #  TEST TO SEE IF TRIM GIMBAL CONTROL LAW HAS KEPT BOTH ATTITUDE ERRORS BELOW THE 1 DEGREE BOUNDARY WITH THE REGION
000126:                                                                                                  #  OF RCS CONTROL LAW DOMINANCE OR IS STILL REDUCING THE ERROR.
000127:
000128: 21,2674           37762        GTSTEST            CAF      TRYGIMBL                              #  VERIFY THAT GTS IS STILL OPERATIVE.
000129: 21,2675           70077                           MASK     DAPBOOLS
000130: 21,2676           10000                           CCS      A
000131: 21,2677           12731                           TCF      RCSCNTRL                              #  GTS NOT OPERATIVE
000132:                                                                                                  #  START CODING FOR MODULE 3 REMAKE, AUGUST 1967***START CODING FOR MODULE 3 REMAKE, AUGUST 1967*******************
000133:
000134: 21,2700           13736        INSERT21           TCF      CHKCNTR                               #  GO CHECK TRIMCNTR (AT END OF BANK 21).
000135:
000136:                                                                                                  #  **END CODING FOR MODULE 3 REMAKE, AUGUST 1967*****END CODING FOR MODULE 3 REMAKE, AUGUST 1967*******************
000137:
000138: 21,2701           54066        LOOPTEST           TS       QRCNTR
000139: 21,2702           50066                           INDEX    QRCNTR
000140: 21,2703           11467                           CCS      QDIFF                                 #  SCALED AT PI.
000141: 21,2704           62727                           AD       -TGBND+1                              #  -2 DEG SCALED AT PI, + 1 BIT.
000142: 21,2705           12707                           TCF      +2
000143: 21,2706           62727                           AD       -TGBND+1
000144: 21,2707           00006                           EXTEND
000145: 21,2710           62712                           BZMF     +2                                    #  IS ERROR MAG LESS,EQUAL 2 DEG.
000146: 21,2711           13715                           TCF      TESTPCTR                              #  NO.  MAY CONTINUE,THOUGH.
000147: 21,2712           30066                           CA       QRCNTR                                #  YES.  TRY RATE MAGNITUDE.
000148: 21,2713           60000                           DOUBLE
000149: 21,2714           50000                           INDEX    A
000150:
000151:                                                                                                  #  THIS TEST BYPASSES THE TEST IN WSFTEST.  CHECK WSFTEST IF BOUND CHANGES.
000152:
000153: 21,2715           11416                           CCS      OMEGAQ                                #  SCALED AT PI/4.
000154: 21,2716           62730                           AD       -RATBD+1                              #  -.65 DEC/SEC SCALED AT PI/4  + 1 BIT
000155: 21,2717           12721                           TCF      +2
000156: 21,2720           62730                           AD       -RATBD+1
000157: 21,2721           00006                           EXTEND
000158: 21,2722           62724                           BZMF     +2                                    #  IS RATE MAG LESS,EQUAL .65 DEG/SEC.
000159: 21,2723           13715                           TCF      TESTPCTR                              #  NO.  MAY CONTINUE,THOUGH.
000160: 21,2724           10066                           CCS      QRCNTR                                #  YES.  THIS AXIS IS FINE. ARE BOTH DONE.
000161: 21,2725           12701                           TCF      LOOPTEST                              #  TRY THE Q AXIS NOW.
000162: 21,2726           13000                           TCF      GTSRAXIS                              #  USE TRIM GIMBAL CONTROL.
000163: 21,2727           77512        -TGBND+1           OCT      77512                                 #  -2 DEG SCALED AT PI, + 1 BIT.
000164: 21,2730           77423        -RATBD+1           OCT      77423                                 #  -.65 DEG/SEC SCALED AT PI/4  + 1 BIT
000165:                                                                                                  #  ATTITUDE ERROR IS BEYOND TRIM GIMBAL CONTROL LAW RANGE.  SET UP FOR RCS CONTROL LAW (Q,R-AXIS) AND CALCULATE
000166:                                                                                                  #  TIMES TO TURN OFF THE GIMBAL DRIVES.
000167:
000168: 21,2731           00006        RCSCNTRL           EXTEND                                         #  CHANGE LOCATION OF NEXT T5RUPT FROM FIL-
000169: 21,2732           32756                           DCA      POSTQRFL                              #  TER TO FILDUMMY.  AHEM, DON'T FORGET
000170: 21,2733           53001                           DXCH     T5ADR                                 #  THAT FILDUMMY MOVED TO BANK20, DICK GOSS
000171:


000173: 21,2734           00006                           EXTEND                                         #  SET UP POST P-AXIS T5RUPT TO GO TO
000174: 21,2735           32760                           DCA      QRJPFILT                              #  DUMMYFIL INSTEAD OF FILTER.  USE 2CADR
000175: 21,2736           53573                           DXCH     PFILTADR                              #  BECAUSE DUMMYFIL NOW IN BANK 16.
000176:
000177: 21,2737           00006                           EXTEND                                         #  PREPARE FOR SEQUENCED RESUMPTION OF
000178: 21,2740           30034                           DCA      CDUY                                  #  Q,R-AXIS RCS CONTROL RATE DERIVATION
000179: 21,2741           53430                           DXCH     OLDYFORQ                              #  BY PROVIDING OLD CDU READINGS
000180:
000181: 21,2742           00006                           EXTEND                                         #  MOVE FILTERED AND TRANSFORMED ATTITUDE
000182: 21,2743           31470                           DCA      QDIFF                                 #  ERRORS INTO ERASABLE FOR Q,R-AXIS RCS
000183: 21,2744           57413                           XCH      ER                                    #  CONTROL URGENCY CALCULATIONS.
000184: 21,2745           23411                           LXCH     E
000185:
000186: 21,2746           37763                           CAF      ONE
000187: 21,2747           05663                           TC       WAITLIST
000188: 21,2750  E6,1542                                  EBANK=   DT
000189: 21,2750           02763 42066                     2CADR    CHEKDRIV                              #  DO TGOFF CALCULATION IN WAITLIST TASK
000190:
000191: 21,2752           00006                           EXTEND                                         #  GO TO Q,R-AXES CONTROL IMMEDIATELY
000192: 21,2753           32762                           DCA      TGENTRY
000193: 21,2754           52006                           DTCB
000194:
000195: 21,2755  E6,1471                                  EBANK=   JTSONNOW                              #  NO, SURELY YOU JEST, NOT EBANK 6, AGAIN?
000196: 21,2755           03033 40066  POSTQRFL           2CADR    FILDUMMY                              #  WATCH OUT FOR BANK SWITCHING D. GOSS
000197:
000198: 21,2757  E6,1664                                  EBANK=   AOSQTERM
000199: 21,2757           03642 34066  QRJPFILT           2CADR    DUMMYFIL                              #  NECESSARY BECAUSE DUMMYFIL IN BANK 16.
000200:
000201: 21,2761  E6,1542                                  EBANK=   DT
000202: 21,2761           02715 36066  TGENTRY            2CADR    STILLRCS
000203:
000204:
000205:                                                                                                  #  START CODING FOR MODULE 3 REMAKE, AUGUST 1967***START CODING FOR MODULE 3 REMAKE, AUGUST 1967*******************
000206:
000207: 21,2763           11736        CHEKDRIV           CCS      PASSCTR                               #  ENOUGH FILTER PASSES FOR DRIVE DONE?
000208: 21,2764           12766                           TCF      COLDFILT                              #    NO.  JUST STOP DRIVES.
000209: 21,2765           13745                           TCF      WARMFILT                              #    YES.  CALCULATE TIMES (END OF BANK).
000210:
000211: 21,2766           37767        COLDFILT           CAF      ZERO                                  #  FILTER NOT WARM YET. TURN OFF DRIVES.
000212: 21,2767           55523                           TS       NEGUQ
000213: 21,2770           55525                           TS       NEGUR
000214: 21,2771           55533                           TS       QACCDOT
000215: 21,2772           55535                           TS       RACCDOT
000216: 21,2773           03243                           TC       WRCHN12
000217: 21,2774           15727                           TCF      TASKOVER
000218:
000219: 21,2775           04736                           TC       CCSHOLE                               #  FILLER (TO PRESERVE ADDRESSES)
000220: 21,2776           04736                           TC       CCSHOLE                               #  FILLER (TO PRESERVE ADDRESSES)
000221:                                                                                                  #  **END CODING FOR MODULE 3 REMAKE, AUGUST 1967*****END CODING FOR MODULE 3 REMAKE, AUGUST 1967*******************
000222:


000224:                                                                                                  #  THE DRIVE SETTING ALGORITHM
000225:                                                                                                  #  DEL = SGN(OMEGA.K + SGN(ALPHA)ALPHA(2)/2)    ONLY +1/-1
000226:
000227:                                                                                                  #  NEGUSUM = ERROR.K(2) + DEL(OMEGA.K.DEL + ALPHA(2)/2)(3/2) + ALPHA(OMEGA.K.DEL + ALPHA(2)/3)
000228:
000229:                                                                                                  #  DRIVE = -SGN(NEGUSUM)
000230:
000231: 21,2777           76504        -.04266            DEC      -.04266
000232: 21,3000           37762        GTSRAXIS           CAF      TWO                                   #  SET INDEXER FOR R-AXIS CALCULATIONS
000233: 21,3001           54066                           TS       QRCNTR
000234: 21,3002           13712                           TCF      USUALXIT
000235:
000236: 21,3003           37767        GOQTRIMG           CAF      ZERO                                  #  SET INDEXER FOR Q-AXIS CALCULATIONS
000237: 21,3004           54066                           TS       QRCNTR
000238:
000239: 21,3005           00006        GTSQAXIS           EXTEND
000240: 21,3006           50066                           INDEX    QRCNTR                                #  PICK UP K AND K(2) FOR THIS AXIS
000241: 21,3007           31527                           DCA      KQ
000242: 21,3010           52062                           DXCH     KCENTRAL
000243:
000244: 21,3011           00006                           EXTEND
000245: 21,3012           50066                           INDEX    QRCNTR                                #  PICK UP OMEGA AND ALPHA FOR THIS AXIS
000246: 21,3013           31417                           DCA      OMEGAQ
000247: 21,3014           52064                           DXCH     WCENTRAL
000248:
000249: 21,3015           10066                           CCS      QRCNTR                                #  RDIFF IS STORED IMMEDIATELY FOLLOWING
000250: 21,3016           50000                           INDEX    A                                     #  QDIFF, WITH NO SEPARATING CELL.
000251: 21,3017           31467                           CAE      QDIFF
000252:
000253:                                                                                                  #  QDIFF IS LESS,EQUAL 2 DEG. AND IS SCALED AT 180 DEG.  RESCALE AT 180/64 DEG. = 2 + 13/16 DEG. = PI/64 RADIANS.
000254:
000255: 21,3020           00006                           EXTEND                                         #  RESCALE DIFFERENCE BY MULTIPLYING BY
000256: 21,3021           77755                           MP       BIT7                                  #  2(6)
000257: 21,3022           22071                           LXCH     ETHETA
000258:
000259: 21,3023           30061                           CAE      KCENTRAL                              #  TEST ON MAGNITUDE OF ACCDOT
000260: 21,3024           62777                           AD       -.04266
000261: 21,3025           00006                           EXTEND
000262: 21,3026           63034                           BZMF     ACCDOTSM                              #  BRANCH IF ACCDOT IS SMALL
000263:
000264: 21,3027           37746        ACCDOTLG           CAF      BIT14                                 #  ACCDOT IS COMPARITIVELY LARGE
000265: 21,3030           54072                           TS       SF1                                   #  SET UP SCALE FACTORS
000266: 21,3031           37750                           CAF      BIT12
000267: 21,3032           54073        WSFTEST            TS       SF2
000268:
000269:                                                                                                  #  LOOPTEST CODING BYPASSES THE OMEGA MAGNITUDE TEST, BUT A CHANGE IN THE TEST BOUNDS COULD REQUIRE ITS USE AGAIN.
000270:
000271:                                                                                                  #                  CCS             WCENTRAL                      TEST ON MAGNITUDE OF OMEGA
000272:                                                                                                  #                  AD              -.04438
000273:                                                                                                  #                  TCF             +2


000275:                                                                                                  #                  AD              -.04438
000276:                                                                                                  #                  EXTEND
000277:                                                                                                  #                  BZMF            ASFTEST                       IF SMALL, GO TO ALPHA TEST
000278:                                                                                                  #                  TCF             WLARGE
000279: 21,3033           13050                           TCF      ASFTEST                               #  OMEGA IS ALWAYS BOUNDED BY .65 DEG/SEC.
000280: 21,3034           30061        ACCDOTSM           CAE      KCENTRAL                              #  RESCALE IF ACCDOT IS SMALL
000281: 21,3035           00006                           EXTEND
000282: 21,3036           77757                           MP       BIT5                                  #  RESCALE K BY MULTIPLYING BY 2(4)
000283: 21,3037           22061                           LXCH     KCENTRAL
000284: 21,3040           30061                           CAE      KCENTRAL
000285: 21,3041           00006                           EXTEND
000286: 21,3042           70000                           SQUARE
000287: 21,3043           54062                           TS       K2CNTRAL
000288: 21,3044           37752                           CAF      BIT10                                 #  SET UP VARIABLE SCALE FACTORS
000289: 21,3045           54072                           TS       SF1
000290: 21,3046           37760                           CAF      BIT4
000291: 21,3047           13032                           TCF      WSFTEST                               #  GO TEST ON MAGNITUDE OF OMEGA
000292:
000293: 21,3050           10064        ASFTEST            CCS      ACENTRAL                              #  TEST ON MAGNITUDE OF ALPHA
000294: 21,3051           63057                           AD       -.08882
000295: 21,3052           13054                           TCF      +2
000296: 21,3053           63057                           AD       -.08882
000297: 21,3054           00006                           EXTEND
000298: 21,3055           63060                           BZMF     WARESCAL                              #  IF SMALL, GO TO W,A RESCALING
000299: 21,3056           13071                           TCF      WLARGE                                #  IF LARGE, DO SAME AS IF W LARGE
000300:
000301:                                                                                                  #  -.04438         DEC             -.04438
000302: 21,3057           75120        -.08882            DEC      -.08882
000303:
000304: 21,3060           30063        WARESCAL           CAE      WCENTRAL                              #  RESCALE OMEGA BY MULTIPLYING BY 2(4)
000305: 21,3061           00006                           EXTEND
000306: 21,3062           77757                           MP       BIT5
000307: 21,3063           22063                           LXCH     WCENTRAL
000308:
000309: 21,3064           30064                           CAE      ACENTRAL                              #  RESCALE ALPHA BY MULTIPLYING BY 2(3)
000310: 21,3065           00006                           EXTEND
000311: 21,3066           77760                           MP       BIT4
000312: 21,3067           22064                           LXCH     ACENTRAL
000313:
000314: 21,3070           13101                           TCF      ALGORTHM
000315:
000316: 21,3071           30072        WLARGE             CAE      SF1                                   #  RESCALE VARIABLE SCALE FACTORS
000317: 21,3072           00006                           EXTEND
000318: 21,3073           77747                           MP       BIT13                                 #  SF1 = SF1*2(-2)
000319: 21,3074           54072                           TS       SF1
000320: 21,3075           30073                           CAE      SF2
000321: 21,3076           00006                           EXTEND
000322: 21,3077           77756                           MP       BIT6                                  #  SF2 = SF2*2(-9)
000323: 21,3100           54073                           TS       SF2
000324:


000326: 21,3101           30071        ALGORTHM           CAE      ETHETA                                #  GET RESCALED ERROR THETA
000327: 21,3102           00006                           EXTEND
000328: 21,3103           70062                           MP       K2CNTRAL                              #  FORM K(2)*THETA IN D.P.
000329: 21,3104           00006                           EXTEND
000330: 21,3105           70073                           MP       SF2                                   #  CALCULATE AND STORE
000331: 21,3106           54070                           TS       K2THETA                               #  K(2)*THETA*SF2 IN K2THETA
000332:
000333: 21,3107           30063                           CA       WCENTRAL                              #  CALCULATE AND STORE
000334: 21,3110           00006                           EXTEND                                         #  K*OMEGA*SF1 IN OMEGA.K
000335: 21,3111           70061                           MP       KCENTRAL
000336: 21,3112           00006                           EXTEND
000337: 21,3113           70072                           MP       SF1
000338: 21,3114           54061                           TS       OMEGA.K
000339:
000340: 21,3115           30064                           CA       ACENTRAL
000341: 21,3116           00006                           EXTEND                                         #  BY REDESIGNATION OF THE SCALE FACTOR,
000342: 21,3117           70000                           MP       A                                     #  THIS PRODUCT BECOMES ALPHA(2)/2
000343: 21,3120           54072                           TS       A2CNTRAL                              #  INSTEAD OF  ALPHA(2)
000344:
000345: 21,3121           10064                           CCS      ACENTRAL
000346: 21,3122           30072                           CA       A2CNTRAL
000347: 21,3123           13125                           TCF      +2
000348: 21,3124           40072                           CS       A2CNTRAL                              #  NOW THE A REGISTER CONTAINS
000349: 21,3125           60061                           AD       OMEGA.K                               #  K*OMEGA + ALPHA*ABS(ALPHA)/2
000350:
000351: 21,3126           10000                           CCS      A
000352: 21,3127           37763                           CA       BIT1                                  #  DEL = SIGNUM(A) , (ZERO WHEN A IS ZERO),
000353: 21,3130           13132                           TCF      +2                                    #  PLUS ONE OR MINUS ONE OTHERWISE.
000354: 21,3131           47763                           CS       BIT1
000355: 21,3132           54065                           TS       DEL
000356:
000357: 21,3133           10065                           CCS      DEL
000358: 21,3134           30061                           CA       OMEGA.K
000359: 21,3135           13137                           TCF      +2
000360: 21,3136           40061                           CS       OMEGA.K                               #  DEL*OMEGA.K REPLACES OMEGA.K
000361: 21,3137           54061                           TS       OMEGA.K
000362:
000363: 21,3140           60072                           AD       A2CNTRAL                              #  DEL*OMEGA.K + ALPHA(2)/2
000364: 21,3141           57521                           XCH      FUNCTION                              #  STORED IN FUNCTION
000365:
000366: 21,3142           30072                           CA       A2CNTRAL
000367: 21,3143           00006                           EXTEND                                         #  CALCULATE ALPHA(2)/3
000368: 21,3144           73304                           MP       .66667
000369: 21,3145           60061                           AD       OMEGA.K
000370: 21,3146           00006                           EXTEND
000371: 21,3147           70064                           MP       ACENTRAL                              #  K(2)*THETA+ALPHA*(DEL*OMEG.K+ALPHA(2)/3)
000372: 21,3150           26070                           ADS      K2THETA                               #  FIRST AND SECOND TERMS SUMMED HERE.
000373:
000374:                                                                                                  #  THE FOLLOWING SECTION CALCULATES .707*DEL*FUNCTION(3/2) AND ADDS IT TO THE OTHER TWO TERMS OF NEGUSUM.
000375:


000377: 21,3151           30021                           CA       SR                                    #  CALL SEQUENCE FOR SPROOT REQUIRES THAT
000378: 21,3152           60000                           AD       A                                     #  SR BE PRESERVED BY THE CALLER.
000379: 21,3153           57540                           XCH      STORCDUY                              #  THE KALMAN FILTER STORES INTO THE CELL
000380: 21,3154           31521                           CA       FUNCTION                              #  STORCDUY BEFORE USING IT OTHERWISE.
000381: 21,3155           05417                           TC       SPROOT
000382: 21,3156           23540                           LXCH     STORCDUY
000383: 21,3157           22021                           LXCH     SR
000384:
000385: 21,3160           00006                           EXTEND
000386: 21,3161           71521                           MP       FUNCTION
000387: 21,3162           57540                           XCH      STORCDUY
000388: 21,3163           10065                           CCS      DEL
000389: 21,3164           33305                           CA       .707GTS                               #  THIS CELL CONTAINS SQUARE ROOT OF 1/2
000390: 21,3165           13167                           TCF      +2
000391: 21,3166           43305                           CS       .707GTS
000392: 21,3167           00006                           EXTEND
000393: 21,3170           71540                           MP       STORCDUY
000394: 21,3171           60070                           AD       K2THETA                               #  NEGUSUM IS COMPLETE.
000395:
000396: 21,3172           10000                           CCS      A                                     #  SIGNUM(NEGUSUM) IS NEGATIVE OF THE SIGN
000397: 21,3173           37763                           CA       BIT1                                  #  WHICH WILL BE ATTACHED TO THE NEW VALUE
000398: 21,3174           13176                           TCF      POSDRIVE                              #  OF Q(R)ACCDOT.
000399: 21,3175           47763                           CS       BIT1
000400:
000401: 21,3176           50066        POSDRIVE           INDEX    QRCNTR                                #  SIGN OF NEW Q(R)ACCDOT OPPOSES THIS SIGN
000402: 21,3177           55523                           TS       NEGUQ
000403:
000404: 21,3200           40000                           COM
000405: 21,3201           00006                           EXTEND                                         #  SEND BACK JERK TERM
000406: 21,3202           50066                           INDEX    ITEMP6
000407: 21,3203           71532                           MP       ACCDOTQ
000408: 21,3204           50066                           INDEX    ITEMP6
000409: 21,3205           23733                           LXCH     QACDOTMP                              #  STORE FOR 100 MS, THEN RELEASE TO FILTER
000410: 21,3206           10066                           CCS      QRCNTR                                #  LOOP COUNTER
000411: 21,3207           01737                           TC       SLECTLAW                              #  2ND PASS.  (FOR Q-AXIS)
000412:                                                                                                  #  TRANSFORM JERKS BACK TO GIMBAL AXES.
000413:
000414: 21,3210           41533                           CS       QACCDOT                               #  SCALED AT PI/2(7), AND COMPLEMENTED.
000415: 21,3211           00006                           EXTEND
000416: 21,3212           71400                           MP       MR12                                  #  SCALED AT 2
000417: 21,3213           55567                           TS       Y3DOT
000418: 21,3214           41535                           CS       RACCDOT                               #  SCALED AT PI/2(7), AND COMPLEMENTED.
000419: 21,3215           00006                           EXTEND
000420: 21,3216           71402                           MP       MR13                                  #  SCALED AT 2
000421: 21,3217           27567                           ADS      Y3DOT
000422: 21,3220           27567                           ADS      Y3DOT                                 #  SCALED AT PI/2(7)
000423:
000424: 21,3221           41533                           CS       QACCDOT                               #  SCALED AT PI/2(7), AND COMPLEMENTED.
000425: 21,3222           00006                           EXTEND
000426: 21,3223           71401                           MP       MR22                                  #  SCALED AT 1


000428: 21,3224           55571                           TS       Z3DOT
000429: 21,3225           41535                           CS       RACCDOT                               #  SCALED AT PI/2(7), AND COMPLEMENTED.
000430: 21,3226           00006                           EXTEND
000431: 21,3227           71403                           MP       MR23                                  #  SCALED AT 1
000432: 21,3230           27571                           ADS      Z3DOT                                 #  SCALED AT PI/2(7)
000433:
000434: 21,3231           03243                           TC       WRCHN12                               #  SEND GIMBAL DRIVES TO SERVOS
000435: 21,3232           15733                           TCF      RESUME                                #  WAIT UNTIL NEXT TRIM GIMBAL RUPT
000436:
000437:                                                                                                  #  WAITLIST TASKS TO SET TRIM GIMBAL TURN OFF BITS.
000438:
000439: 21,3233           37767        OFFGIMQ            CAF      ZERO                                  #  SET Q-AXIS FLAG TO ZERO
000440: 21,3234           55523                           TS       NEGUQ
000441: 21,3235           13240                           TCF      +3
000442: 21,3236           37767        OFFGIMR            CAF      ZERO                                  #  SET R-AXIS FLAG TO ZERO
000443: 21,3237           55525                           TS       NEGUR
000444: 21,3240           03243                           TC       WRCHN12                               #  FLAGS TO CHANNEL BITS
000445: 21,3241           15727                           TCF      TASKOVER
000446:
000447:                                                                                                  #  THE WRCHN12 SUBROUTINE SETS BITS 9,10,11,12 OF CHANNEL 12 ON THE BASIS OF THE CONTENTS OF NEGUQ,NEGUR WHICH ARE
000448:                                                                                                  #  THE NEGATIVES OF THE TRIM GIMBAL DESIRED DRIVES.
000449:
000450: 21,3242           07400        BGIM               OCTAL    07400
000451: 21,3243     0066               CHNL12             EQUALS   ITEMP6
000452:
000453: 21,3243           11523        WRCHN12            CCS      NEGUQ
000454: 21,3244           37752                           CAF      BIT10
000455: 21,3245           13247                           TCF      +2
000456: 21,3246           37753                           CAF      BIT9
000457: 21,3247           54066                           TS       CHNL12
000458:
000459: 21,3250           11525                           CCS      NEGUR
000460: 21,3251           37750                           CAF      BIT12
000461: 21,3252           13254                           TCF      +2
000462: 21,3253           37751                           CAF      BIT11
000463: 21,3254           26066                           ADS      CHNL12                                #  (STORED RESULT NOT USED AT PRESENT)
000464:
000465: 21,3255           43242                           CS       BGIM
000466: 21,3256           00006                           EXTEND
000467: 21,3257           03012                           WAND     12
000468: 21,3260           30066                           CA       CHNL12
000469: 21,3261           00006                           EXTEND
000470: 21,3262           05012                           WOR      12
000471:
000472: 21,3263           00002                           TC       Q                                     #  SIMPLE RETURN ALWAYS
000473:
000474:                                                                                                  #  Q,R-TRANSF TRANSFORMS A Y,Z GIMBAL COORDINATE VARIABLE PAIR (IN A,L) TO PILOT COORDINATES (Q/R), RETURNED IN A.
000475:                                                                                                  #  (THE MATRIX M FROM GIMBAL TO PILOT AXES IS ASSUMED TO BE DONE BY T4RUPT AND SCALED AT +1.)
000476:
000477: 21,3264     0066               QRERAS             EQUALS   ITEMP6
000478:


000480: 21,3264           22066        QTRANSF            LXCH     QRERAS                                #  SAVE Z-AXIS VARIABLE
000481: 21,3265           00006                           EXTEND
000482: 21,3266           71405                           MP       M21                                   #  (Y-AXIS)*M21
000483: 21,3267           56066                           XCH      QRERAS                                #  SAVE, GET Z-AXIS VARIABLE
000484: 21,3270           00006                           EXTEND
000485: 21,3271           71401                           MP       M22                                   #  (Z-AXIS)*M22
000486: 21,3272           60066                           AD       QRERAS                                #  SUM = (Y-AXIS)*M21 + (Z-AXIS)*M22
000487: 21,3273           00002                           TC       Q                                     #  RETURN WITH SUM IN A
000488:
000489: 21,3274           22066        RTRANSF            LXCH     QRERAS                                #  SAVE Z-AXIS VARIABLE
000490: 21,3275           00006                           EXTEND
000491: 21,3276           71406                           MP       M31                                   #  (Y-AXIS)*M31
000492: 21,3277           56066                           XCH      QRERAS                                #  SAVE, GET Z-AXIS VARIABLE
000493: 21,3300           00006                           EXTEND
000494: 21,3301           71403                           MP       M32                                   #  (Z-AXIS)*M32
000495: 21,3302           60066                           AD       QRERAS                                #  SUM = (Y-AXIS)*M31 + (Z-AXIS)*M32
000496: 21,3303           00002                           TC       Q                                     #  RETURN WITH SUM IN A
000497:
000498: 21,3304           25253        .66667             DEC      .66667
000499: 21,3305           26501        .707GTS            DEC      0.70711
000500: 21,3306           25253        (2/3)              DEC      0.66667
000501:


000503:                                                                                                  #  SUBROUTINE: TGOFFCAL            MOD. NO. 1  DATE: AUGUST 22, 1966
000504:
000505:                                                                                                  #  START CODING FOR MODULE 3 REMAKE, AUGUST 1967***START CODING FOR MODULE 3 REMAKE, AUGUST 1967*******************
000506:
000507:                                                                                                  #  PROGRAM DESIGN BY: RICHARD D. GOSS (MIT/IL)
000508:
000509:                                                                                                  #  PROGRAM IMPLEMENTATION BY: JONATHAN D. ADDELSTON (ADAMS ASSOCIATES)
000510:
000511:                                                                                                  #  MODIFIED 30 NOV 66, TO USE ACCDOTQ AND ACCDOTR.              CRAIG WORK
000512:                                                                                                  #  MODIFIED AUGUST '67 TO CHANGE CALLING SEQUENCE AND MAKE MAXTIME ERASABLE          PETER WEISSMAN
000513:
000514:                                                                                                  #  THIS SUBROUTINE CALCULATES THE TRIM GIMBAL SHUTDOWN TIME FOR EITHER THE Q OR THE R AXIS (DEPENDING ON THE
000515:                                                                                                  #  CALLING SEQUENCE).  THIS TIME IS SCALED FOR IMMEDIATE USE BY A WAITLIST CALL AS SHOWN IN THE CALLING SEQUENCES.
000516:                                                                                                  #  IF THE TIME-TO-GO IS MORE THAN 'DRIVELIM', IT IS LIMITED TO 'MAXTIME'. IF
000517:                                                                                                  #  THE TIME-TO-GO IS LESS THAN TEN MILLISECONDS, THE SHUTDOWN IS PERFORMED IMMEDIATELY AND THE WAITLIST CALL IS
000518:                                                                                                  #  BY-PASSED.
000519:
000520:                                                                                                  #  THESE TIME-TO-GO CALCULATIONS ARE DESIGNED TO DRIVE THE TRIM GIMBAL TO A POSITION WHERE THE DESCENT ENGINE WILL
000521:                                                                                                  #  CAUSE NO ANGULAR ACCELERATION.  THIS SUBROUTINE IS CALLED ONLY FROM THE WAITLIST TASK CHEKDRIV WHICH IS
000522:                                                                                                  #  INITIATED ONLY WHEN THE TRIM GIMBAL CONTROL LAW HAS LOST CONTROL OF THE LEM VEHICLE ATTITUDE AND MUST RETURN TO
000523:                                                                                                  #  THE USE OF REACTION CONTROL SYSTEM JETS.
000524:
000525:                                                                                                  #  CALLING SEQUENCES:
000526:
000527:                                                                                                  #                                                   CAF     ZERO           INDEX FOR Q-AXIS.
000528:                                                                                                  #                                                   TC      TGOFFCAL
000529:                                                                                                  #                                                   CAF     NEGMAX         RETURN HERE FOR NO Q DRIVE.
000530:                                                                                                  #                                                   TS      (QTIME)        RETURN HERE WITH TIME IN A (DECASECONDS)
000531:
000532:                                                                                                  #                                                   CAF     TWO            INDEX FOR R-AXIS.
000533:                                                                                                  #                                                   TC      TGOFFCAL
000534:                                                                                                  #                                                   CAF     NEGMAX         RETURN HERE FOR NO R DRIVE.
000535:                                                                                                  #                                                   TS      (RTIME)        RETURN HERE WITH TIME IN A (DECASECONDS)
000536:
000537:                                                                                                  #  SUBROUTINES CALLED: NONE, BUT WRCHNL12 IS CALLED AFTER BOTH TGOFFCALL CALLS.
000538:
000539:                                                                                                  #  NORMAL EXITS: TO WAITLIST CALL OR BEYOND 2CADR IN CALLING SEQUENCE AS SPECIFIED ABOVE.
000540:
000541:                                                                                                  #  ALARM OR ABORT EXIT MODES: NONE
000542:
000543:                                                                                                  #  INPUT: 1. THE AXIS INDEXER: 0 FOR Q, 2 FOR R (SEE CALLING SEQUENCES)
000544:                                                                                                  #         2. THE SIGNED TIME DERIVATIVE OF ACCELERATION (QACCDOT OR RACCDOT) SCALED AT PI/2(7) RAD/SEC(3).
000545:                                                                                                  #         3. THE ACCELERATION APPROXIMATION FROM THE DESCENT KALMAN FILTER TRANSFORMED TO PILOT AXES (ALPHAQ OR
000546:                                                                                                  #  ALPHAR) SCALED AT PI/8 RAD/SEC(2).
000547:
000548:                                                                                                  #         4. CHANNEL 12 CONTAINS THE GIMBAL DRIVES AND OTHER BITS.
000549:                                                                                                  #  OUTPUT 5. THE NEGATIVE GIMBAL DRIVE FLAG (NEGUQ AND NEGUR) WHERE A +1 BIT REQUESTS POSITIVE GIMBAL DRIVE
000550:                                                                                                  #            (ANGULAR ACCELERATION DECREASING), A -1 BIT REQUESTS NEGATIVE GIMBAL DRIVE (ANG. ACC. INCREASING).
000551:                                                                                                  #            A ZERO INDICATES NO DRIVE.
000552:                                                                                                  #         6. TIME REQUIRED TO ZERO OFFSET, SCALED FOR Q(R)GIMTIMR.
000553:


000555:                                                                                                  #  ERASABLE STORAGE CONFIGURATION (NEEDED BY THE INDEXING METHODS):
000556:
000557:                                                                                                  #                                          NEGUQ    ERASE   +2             NEGATIVE OF Q-AXIS GIMBAL DRIVE
000558:                                                                                                  #                                          (SPWORD) EQUALS NEGUQ +1        ANY S.P. ERASABLE NUMBER, NOW THRSTCMD
000559:                                                                                                  #                                          NEGUR    EQUALS NEGUQ +2        NEGATIVE OF R-AXIS GIMBAL DRIVE
000560:
000561:                                                                                                  #                                          ACCDOTQ  ERASE   +2             Q-JERK TERM SCALED AT PI/2(7) RAD/SEC(3)
000562:                                                                                                  #                                          (SPWORD) EQUALS ACCDOTQ +1      ANY S.P. ERASABLE NUMBER  NOW QACCDOT
000563:                                                                                                  #                                          ACCDOTR  EQUALS ACCDOTQ +2      R-JERK TERM SCALED AT PI/2(7) RAD/SEC(3)
000564:                                                                                                  #                                                                          ACCDOTQ,ACCDOTR ARE MAGNITUDES.
000565:                                                                                                  #                                          ALPHAQ   ERASE   +2             Q-AXIS ACCELERATION SCALED AT PI/8 R/S2
000566:                                                                                                  #                                          (SPWORD) EQUALS ALPHAQ +1       ANY S.P. ERASABLE NUMBER, NOW OMEGAR
000567:                                                                                                  #                                          ALPHAR   EQUALS ALPHAQ +2       R-AXIS ACCELERATION SCALED AT PI/8 R/S2
000568:                                                                                                  #                                                                          NOTE: NOW OMEGAP,OMEGAQ PRECEDE ALPHAQ
000569:
000570:                                                                                                  #  DEBRIS: L, Q, ITEMP1, ITEMP2, ITEMP6
000571:
000572:
000573: 21,3307           54061        TGOFFCAL           TS       QRNDXER                               #  Q OR R AXIS INDEXER
000574: 21,3310           50061                           INDEX    QRNDXER                               #  GET JERK TERM MAGNITUDE SCALED AT
000575: 21,3311           31532                           CAE      ACCDOTQ                               #       PI/2(7) IN RADIANS/SEC(3).
000576: 21,3312           00006                           EXTEND                                         #  UNLESS THETA TRIPLE-DOT MAGNITUDE IS NON
000577: 21,3313           63373                           BZMF     TGOFFNOW                              #       -ZERO, SET DRIVE TO ZERO NOW.
000578: 21,3314           54062                           TS       NZACCDOT                              #  SAVE NON-ZERO DENOMINATOR.
000579: 21,3315           50061                           INDEX    QRNDXER                               #  INITIALIZE THE AOSTERM WHICH WILL BE UP-
000580: 21,3316           31417                           CAE      ALPHAQ                                #  DATED IN THE DUMMYFIL CALCULATION FOR
000581: 21,3317           00006                           EXTEND                                         #  USE IN THE QRAXIS RATE DERIVATION.  SET
000582: 21,3320           73403                           MP       .1-.05K)                              #  AOSTERM TO ALPHA*CSP*(1-.5*K), WHERE CSP
000583: 21,3321           56001                           XCH      L                                     #  IS .1 SEC, K IS .5   THEN AOSTERM IS SET
000584: 21,3322           10061                           CCS      QRNDXER                               #  TO .075*ALPHA, SCALED AT PI/4,WHILE
000585: 21,3323           50000                           INDEX    A                                     #  ALPHA IS SCALED AT PI/8( THE CONSTANT IS
000586: 21,3324           23664                           LXCH     AOSQTERM                              #  SCALED AT 2.
000587: 21,3325           50061                           INDEX    QRNDXER                               #  GET ACCELERATION SCALED AT PI/8
000588: 21,3326           31417                           CAE      ALPHAQ                                #       RAD/SEC(2).
000589: 21,3327           00006                           EXTEND                                         #  IF ACCELERATION IS ALREADY ZERO, EXIT.
000590: 21,3330           13373                           BZF      TGOFFNOW                              #  OTHERWISE, PROCEED WITH NON-ZERO ALPHA.
000591: 21,3331           00006                           EXTEND                                         #  SET NEGUQ TO THE SIGN OF ALPHA. THEN USE
000592: 21,3332           63336                           BZMF     NEGALPH                               #    THE MAGNITUDE OF ALPHA TO COMPUTE TIME
000593: 21,3333           54066                           TS       ITEMP6
000594: 21,3334           37763                           CAF      BIT1
000595: 21,3335           13341                           TCF      +4
000596: 21,3336           40000        NEGALPH            CS       A
000597: 21,3337           54066                           TS       ITEMP6
000598: 21,3340           47763                           CS       BIT1
000599: 21,3341           50061                           INDEX    QRNDXER                               #  STORE THE DRIVE DIRECTION FLAG
000600: 21,3342           55523                           TS       NEGUQ                                 #  TIME = MAGNITUDE OF (ALPHA/ACCDOT),
000601:                                                                                                  #  MINUS THE SIGN OF Q(R)ACCDOT LEFT IN A.
000602: 21,3343           00006                           EXTEND                                         #  STORE ACCDOT TO REFLECT THE CHANGE IN
000603: 21,3344           50061                           INDEX    QRNDXER                               #  GIMBAL DRIVE DIRECTION (POSSIBLE).  THIS


000605: 21,3345           71532                           MP       ACCDOTQ                               #  CAN BE ESSENTIAL FOR DUMMYFIL, IN CASE
000606: 21,3346           50061                           INDEX    QRNDXER                               #  Q(R)ACCDOT IS NOT INITIALIZED BEFORE
000607: 21,3347           23533                           LXCH     QACCDOT                               #  EXECUTING DUMMYFIL.
000608: 21,3350           30062                           CAE      NZACCDOT                              #  WILL ALPHA/ACCDOT EXCEED MAX DRIVE TIME?
000609: 21,3351           00006                           EXTEND
000610: 21,3352           71747                           MP       DRIVELIM                              #  MAX DRIVE TIME AT 16 SEC (ERASABLE LOAD)
000611: 21,3353           00006                           EXTEND
000612: 21,3354           60066                           SU       ITEMP6                                #  15*ACCDOT - ABS(ALPHA) AT PI/8
000613: 21,3355           00006                           EXTEND
000614: 21,3356           63370                           BZMF     USEMAX                                #  LARGE T.  USE MAX DRIVE TIME INSTEAD.
000615:
000616: 21,3357           30066                           CAE      ITEMP6                                #  DRIVE  IME = ABS(ALPHA/ACCDOT)
000617: 21,3360           00006                           EXTEND                                         #  RESCALE QUOTIENT TO TIMER(ERASABLE LOAD)
000618: 21,3361           50061                           INDEX    QRNDXER
000619: 21,3362           71750                           MP       DRIVFACQ                              #  (10 SCALED AT 2(10)) X (DAMPING FACTOR)
000620: 21,3363           00006                           EXTEND
000621: 21,3364           10062                           DV       NZACCDOT
000622:
000623: 21,3365           00006        ZEROTEST           EXTEND                                         #  BE SURE WAITLIST TIME IS GREATER THAN 0.
000624: 21,3366           63373                           BZMF     TGOFFNOW
000625:
000626: 21,3367           13371                           TCF      +2                                    #  IT IS, RETURN.
000627:
000628: 21,3370           31755        USEMAX             CAE      MAXTIME                               #  USE MAXIMUM DRIVE TIME.
000629: 21,3371           50002                 +2        INDEX    Q                                     #  RETURN TO Q+1 WITH TIME IN A.
000630: 21,3372           00001                           TC       1
000631:
000632: 21,3373           37767        TGOFFNOW           CAF      ZERO                                  #  MAKE SURE PLUS ZERO FOR DRIVE FLAG
000633: 21,3374           50061                           INDEX    QRNDXER                               #  TURN OFF DRIVE FLAG NOW
000634: 21,3375           55523                           TS       NEGUQ
000635: 21,3376           00002                           TC       Q                                     #  RETURN TO Q ( WITHOUT A DRIVE TIME).
000636:
000637: 21,3377           04736                           TC       CCSHOLE                               #    (FILLER)
000638:
000639:                                                                                                  #  **END CODING FOR MODULE 3 REMAKE, AUGUST 1967*****END CODING FOR MODULE 3 REMAKE, AUGUST 1967*******************
000640:
000641: 21,3400     0061               QRNDXER            EQUALS   ITEMP1                                #  INDEXER FOR Q OR R AXIS
000642: 21,3400     0062               NZACCDOT           EQUALS   ITEMP2                                #  TEMPORARY STORAGE FOR NON-ZERO ACCDOT
000643: 21,3400           50437        -2MINWL            DEC      -12000     B-14                       #  - 2 MINUTES SCALED FOR WAITLIST
000644: 21,3401           60777        -2MIN256           DEC      -.46875                               #  - 2 MINUTES SCALED AT 256
000645: 21,3402           31000        128/164            OCTAL    31000                                 #  128/163.84 CONVERTING 256 TO WAITLIST/2
000646: 21,3403           01146        .1-.05K)           OCTAL    01146                                 #  .0375=.075 SCALED AT 2
000647:                                                                                                  #  START CODING FOR MODULE 3 REMAKE, AUGUST 1967***START CODING FOR MODULE 3 REMAKE, AUGUST 1967*******************
000648:
000649: 21,3404           11764        TESTCNTR           CCS      SIMPCNTR                              #  USE BIGBOX FOR PASSCTR INITIALIZATION
000650: 21,3405           13410                           TCF      BIGLOAD                               #  UNTIL SIMPCNTR IS +0. THEN USE COUNTBOX.
000651:
000652: 21,3406           31743                           CAE      COUNTBOX
000653: 21,3407           13612                           TCF      LOADCNTR


000655: 21,3410           31766        BIGLOAD            CAE      BIGBOX
000656: 21,3411           13612                           TCF      LOADCNTR
000657:
000658:                                                                                                  #  **END CODING FOR MODULE 3 REMAKE, AUGUST 1967*****END CODING FOR MODULE 3 REMAKE, AUGUST 1967*******************
000659:
000660:                                                                                                  #  THE NEXT FIVE CELLS ARE LEFT IN FOR SPACING.
000661:
000662: 21,3412           27522                           ADS      FUNCTION   +1                         #  MULTIPLIER AS C(A).  MULTIPLY THESE AND
000663: 21,3413           54001                           TS       L                                     #  USE ONLY HIGH ORDER PART OF PRODUCT.
000664: 21,3414           13416                           TCF      +2                                    #  ADD S.P. LOW PRODUCT TO LOW PART OF HIGH
000665: 21,3415           27521                           ADS      FUNCTION                              #  PRODUCT.  CHECK OVERFLOW, CARRY, AND
000666: 21,3416           00002                           TC       Q                                     #  RETURN.

End of include-file TRIM_GIMBAL_CONTROL_SYSTEM.agc.  Parent file is MAIN.agc


