
Source Code


000002:                                                                                                  ## Copyright:    Public domain.
000003:                                                                                                  ## Filename:     TUMBLE_MONITOR.agc
000004:                                                                                                  ## Purpose:      A module for revision 0 of BURST120 (Sunburst). It
000005:                                                                                                  ##               is part of the source code for the Lunar Module's
000006:                                                                                                  ##               (LM) Apollo Guidance Computer (AGC) for Apollo 5.
000007:                                                                                                  ## Assembler:    yaYUL
000008:                                                                                                  ## Contact:      Ron Burkey <info@sandroid.org>.
000009:                                                                                                  ## Website:      www.ibiblio.org/apollo/index.html
000010:                                                                                                  ## Mod history:  2016-09-30 RSB  Created draft version.
000011:                                                                                                  ##               2016-10-29 MAS  Transcribed.
000012:


000014:                                                                                                  #  PROGRAM DETECTS SPIN ABOUT NAV.AXES AND SETS BIT 13 OF FLAGWORD1 ON IF SPIN IS IN EXCESS OF 2.99 DEGREES/SEC .
000015:                                                                                                  #  NO CONTROL ACTION IS EXERTED . TO DISCONTINUE MONITORING , TURN BIT 14  OF FLAGWORD1 OFF . TO INITIATE MONITOR ,
000016:                                                                                                  #  SET UP WAITLIST CALL FOR TUMTASK. IT IS ASSUMED THAT THE IMU,S ARE IN   FINE ALIGN .
000017:
000018:
000019:
000020:                                                                                                  #  NAME=                           DATE=
000021:                                                                                                  #    TUMBLE MONITOR                  29 AUGUST 1966
000022:                                                                                                  #  PROGRAMMER=                     REVISIONS=
000023:                                                                                                  #    G.MANSBACH EXT-182              NANSTONE/2
000024:                                                                                                  #                                    NANSTONE/7
000025:                                                                                                  #                                    NANSTONE/15   10/27/66
000026:                                                                                                  #                                    NANSTONE/3    11/12/66
000027:                                                                                                  #  CALLING SEQUENCE=               SUBROUTINES CALLED=
000028:                                                                                                  #           CAF    (DT)              FLAG1UP
000029:                                                                                                  #           TC     WAITLIST          FLAG1DOWN
000030:                                                                                                  #           EBANK= OMEGA
000031:                                                                                                  #           2CADR  TUMTASK
000032:                                                                                                  #  NORMAL EXIT MODES=              ABORT MODE=
000033:                                                                                                  #           TC     TASKOVER          TURN BIT 14 OF FLAGWORD1 OFF
000034:                                                                                                  #  OUTPUT=
000035:                                                                                                  #    SET BIT 13 OF FLAGWORD1 ON/OFF
000036:                                                                                                  #  DEBRIS=
000037:                                                                                                  #    PCDUY,PCDUZ,PCDUX,DCDUY,DCDUZ,OMEGA
000038: 30,2470                                           BANK     30
000039: 30,2470  E6,1422                                  EBANK=   OMEGA
000040:                                                                                                  #  INITIALIZATION ROUTINE FOR TUMBLE
000041:                                                                                                  #  MONITOR
000042:
000043: 30,2470           04161        TUMTASK            TC       PHASCHNG                              #  IMMEDIATE RECALL
000044: 30,2471           05013                           OCT      05013                                 #  *TUMTASK*
000045: 30,2472           77777                           OCT      77777
000046: 30,2473           06051                           TC       FLAG1UP                               #  TURN TUMBLE MONITOR ON
000047: 30,2474           20000                           OCT      20000
000048: 30,2475           02547                           TC       RESET
000049: 30,2476           05727                           TC       TASKOVER
000050:
000051:
000052: 30,2477           37746        TMTSK              CA       BIT14
000053: 30,2500           70075                           MASK     FLAGWRD1                              #  IS TUMBLE MONITOR STILL NEEDED
000054: 30,2501           00006                           EXTEND
000055: 30,2502           12542                           BZF      EOTUM                                 #  IT IS NOT.  DISCONTINUE MONITORING
000056:
000057: 30,2503           02547                           TC       RESET                                 #  IT IS.
000058:                                                                                                  #  COMPUTE ROTATION RATE ABOUT PILOT AXES
000059:                                                                                                  #  USING OUTPUT OF *TRANSFORMATION MATRIX
000060:                                                                                                  #  CALCULATION* OF *TRUPT PROGRAM*
000061:
000062:                                                                                                  #  COMPUTE
000063:                                                                                                  #         * OMEGAX *   *     *   * DCDUY *


000065:                                                                                                  #         * OMEGAY * = * M   * X * DCDUZ *
000066:                                                                                                  #         * OMEGAZ * = *  GP *   * DCDUX *
000067:
000068: 30,2504           55422                           TS       OMEGA                                 #  COMPUTE OMEGAX
000069: 30,2505           31404                           CA       M11
000070: 30,2506           02526                           TC       EVAL
000071: 30,2507           31401                           CA       M22                                   #  COMPUTE OMEGAY
000072: 30,2510           00006                           EXTEND
000073: 30,2511           71420                           MP       DCDUZ
000074: 30,2512           55422                           TS       OMEGA
000075: 30,2513           31405                           CA       M21
000076: 30,2514           02526                           TC       EVAL
000077: 30,2515           31403                           CA       M32                                   #  COMPUTE OMEGAZ
000078: 30,2516           00006                           EXTEND
000079: 30,2517           71420                           MP       DCDUZ
000080: 30,2520           55422                           TS       OMEGA
000081: 30,2521           31406                           CA       M31
000082: 30,2522           02526                           TC       EVAL
000083:                                                                                                  #  NO TUMBLE NOTED
000084: 30,2523           06067                           TC       FLAG1DWN                              #  REMOVE TUMBLE FLAG
000085: 30,2524           10000                           OCT      10000
000086: 30,2525           05727                           TC       TASKOVER
000087: 30,2526           00006        EVAL               EXTEND                                         #  COMPLETE OMEGA CALCULATION
000088: 30,2527           71416                           MP       DCDUY
000089: 30,2530           61422                           AD       OMEGA                                 #  SCALE FACTOR OF PI
000090:                                                                                                  #  EVALUATE TUMBLE RATE
000091: 30,2531           00006                           EXTEND                                         #  SET ALL VALUES NEG.
000092: 30,2532           62534                           BZMF     +2
000093: 30,2533           40000                           CS       A
000094: 30,2534           62546                           AD       CRIT                                  #  CAUSE UNDERFLOW IF OMEGA IS GREATER THAN
000095: 30,2535           54000                           OVSK                                           #  OR = TO 2.99 DEGREES/SEC
000096: 30,2536           00002                           RETURN                                         #  NO TUMBLE . EVALUATE NEXT AXIS
000097:
000098:                                                                                                  #  EXCESSIVE TUMBLE NOTED ABOUT AN AXIS
000099: 30,2537           06051                           TC       FLAG1UP                               #  SET TUMBLE FLAG AND DISCONTINUE CALCS.
000100: 30,2540           10000                           OCT      10000
000101: 30,2541           05727                           TC       TASKOVER
000102: 30,2542           04161        EOTUM              TC       PHASCHNG
000103: 30,2543           00003                           OCT      3
000104: 30,2544           05727                           TC       TASKOVER
000105: 30,2545           00144        1SECTM             DEC      100        B-14                       #  1 SECOND
000106: 30,2546           40417        CRIT               OCT      40417                                 #  NEGMAX + 00417   421 = 2.99 DEGREES
000107:
000108:
000109:                                                                                                  #  RECALL MONITOR IN
000110:                                                                                                  #     1 SECOND
000111: 30,2547           00006        RESET              EXTEND
000112: 30,2550           23422                           QXCH     OMEGA
000113: 30,2551           32545                           CA       1SECTM
000114: 30,2552           05663                           TC       WAITLIST


000116: 30,2553  E6,1422                                  EBANK=   OMEGA
000117: 30,2553           02477 60066                     2CADR    TMTSK
000118:                                                                                                  #  STORE PRESENT CDU(X,Y,Z) AND
000119:                                                                                                  #  COMPUTE DELTA(CDU(X,Y,Z)/SEC =
000120:                                                                                                  #  DCDU(X,Y,Z)
000121: 30,2555           30033                           CA       CDUY                                  #  FOR Y-AXIS
000122: 30,2556           57412                           XCH      PCDUY                                 #  STORE PRESENT VALUE AND RECOVER PREVIOUS
000123: 30,2557           00006                           EXTEND
000124: 30,2560           20033                           MSU      CDUY
000125: 30,2561           55416                           TS       DCDUY                                 #  = CDUX(T-1)-CDUX(T)
000126: 30,2562           30034                           CA       CDUZ                                  #  FOR Z-AXIS
000127: 30,2563           57413                           XCH      PCDUZ
000128: 30,2564           00006                           EXTEND
000129: 30,2565           20034                           MSU      CDUZ
000130: 30,2566           55420                           TS       DCDUZ
000131: 30,2567           30032                           CA       CDUX                                  #  FOR X-AXIS
000132: 30,2570           57411                           XCH      PCDUX
000133: 30,2571           00006                           EXTEND
000134: 30,2572           20032                           MSU      CDUX
000135: 30,2573           01422                           TC       OMEGA

End of include-file TUMBLE_MONITOR.agc.  Parent file is MAIN.agc


