
Source Code


000002:                                                                                                  ## Copyright:   Public domain.
000003:                                                                                                  ## Filename:    UPDATE_PROGRAM_PART_1_OF_2.agc
000004:                                                                                                  ## Purpose:     A module for revision 0 of BURST120 (Sunburst). It
000005:                                                                                                  ##              is part of the source code for the Lunar Module's
000006:                                                                                                  ##              (LM) Apollo Guidance Computer (AGC) for Apollo 5.
000007:                                                                                                  ## Assembler:   yaYUL
000008:                                                                                                  ## Contact:     Ron Burkey <info@sandroid.org>.
000009:                                                                                                  ## Website:     www.ibiblio.org/apollo/index.html
000010:                                                                                                  ## Mod history: 2016-09-30 RSB  Created draft version.
000011:                                                                                                  ##              2016-10-14 RSB  Transcribed.
000012:                                                                                                  ##              2016-10-31 RSB  Typo.
000013:                                                                                                  ##              2016-12-05 RSB  Proofed with octopus/ProoferComments
000014:                                                                                                  ##                              and various comments corrected, but the
000015:                                                                                                  ##                              proofing process is not yet completed.
000016:                                                                                                  ##              2016-12-05 RSB  Comment-proofing pass with octopus/ProoferComments completed.
000017:


000019:                                                                                                  #  PROGRAM NAME- UPDATE PROGRAM
000020:                                                                                                  #  PROGRAM WRITTEN BY- RHODE
000021:                                                                                                  #  MOD NO.- 2
000022:                                                                                                  #  MOD BY- KILROY TO ADD AGC CLOCK AND TE(V75E4ETTTTTE) UPDATE FEATURE.
000023:                                                                                                  #  DATE- 01FEB67
000024:                                                                                                  #  LOG SECTIONS- UPDATE PROGRAM PART 1 OF 2
000025:                                                                                                  #                UPDATE PROGRAM PART 2 OF 2
000026:                                                                                                  #  ASSEMBLY- REV 93 OF SUNBURST
000027:                                                                                                  #  FUNCTIONAL DESCRIPTION- TO PROCESS COMMANDS AND DATA INSERTIONS
000028:                                                                                                  #           REQUESTED BY THE GROUND VIA UPLINK.
000029:                                                                                                  #           VERBS V64, V67, V70, V71, V72, V73, V75 AND V76 WILL NOT BE
000030:                                                                                                  #           PROCESSED IF THE MISSION TIMERS ARE DISABLED(I.E. AN MP IS IN
000031:                                                                                                  #           PROGRESS). OPERATOR ERROR LIGHT WILL BE TURNED ON.
000032:                                                                                                  #           V65, V66 AND V74 WILL BE PROCESSED EVEN IF A MP IS IN PROGRESS
000033:                                                                                                  #  CALLING SEQUENCE- TCF XXUPDAT   WHERE XX = EXTENDED VERGS(64 TO 76)
000034:                                                                                                  #                                  LST2FAN CONTAINS A LIST OF TCF XXUPDAT
000035:                                                                                                  #                                  WHICH ARE USED BY VERBFAN IN PINBALL TO
000036:                                                                                                  #                                  GIVE CONTROL TO THE UPDATE PROGRAM.
000037:                                                                                                  #  SUBROUTINES CALLED- POSTJUMP,IBNKCALL, BANKCALL, CHECKMM, GRABWAIT,
000038:                                                                                                  #           NEWMODEX, FREEDSP, WAITLIST, ENDOFJOB, NOVAC, TASKOVER, FINDVAC
000039:                                                                                                  #           ENDUP, DOV67, DOV70, DOV71, DOV72, DOV73, DOV74, DFITMCAL,
000040:                                                                                                  #           GRRPLACE, NVSBWAIT, ENDIDLE, XACTALM, MGETUP, UPDATINT, TPAGREE
000041:                                                                                                  #  NORMAL EXIT MODE- TC    BANKCALL
000042:                                                                                                  #                    CADR  ENDUP
000043:                                                                                                  #  ALARM OR ABORT EXIT MODE- BZF   XACTALM    IF MP IN PROGRESS
000044:
000045:                                                                                                  #                            TC    BANKCALL   IF MP IN PROGRESS
000046:                                                                                                  #                            CADR  XACTALM
000047:                                                                                                  #  RESTART PROTECTION- NONE FOR VERBS 64 TO 74. RESTART PROTECTION IS
000048:                                                                                                  #           INCLUDED FOR V75 AND V76 UNDER THE FOLLOWING CIRCUMSTANCES-----
000049:                                                                                                  #           1. THE DATA HAS BEEN SENT AND VERIFIED(I.E. V33E HAS BEEN SENT)
000050:                                                                                                  #           2. PROGRAM IS IN THE PROCESS OF MOVING DATA FROM STBUFF TO
000051:                                                                                                  #              APPROPRIATE REGISTERS OR
000052:                                                                                                  #              VERB 75 OR VERB 75(INDEX = 4 ONLY) PROGRAM(S) ARE WAITING(VIA WAITLIST
000053:                                                                                                  #              3 SEC CALL) FOR ORBITAL INTEGRATION TO BE TURNED OFF.
000054:                                                                                                  #           ***OF COURSE ALL GROUND UPDATES(IF LOST DUE TO A RESTART) CAN
000055:                                                                                                  #           BE RESTARTED BY SENDING THE COMMANDS AND DATA A SECOND TIME***
000056:                                                                                                  #  INPUT(SEE LATEST AS206 GSOP:R527:FOR MORE INFO)-    ..................DESCRIPTION OF UPDATE COMPONENTS..........
000057:                                                                                                  #                                                      COMP.
000058:                                                                                                  #  UPDATE ENTRY    DESCRIPTION OF UPDATE VERBS         NO.  SYMBOL VALUES           DEFINITION  (WHERE STORED)
000059:                                                                                                  #  --------------- ----------------------------------- ---- ------ ---------------- -------------------------------
000060:                                                                                                  #  V64EIEXXXXXE    SET MISSION TIMER I TO ELAPSE AT A   1.    I    1,2,3,4          MISSION TIMERS
000061:                                                                                                  #        XXXXXE    GIVEN GROUND ELAPSED TIME(GET).X-S   2.  XXXXX                   MSB OF GET(MUST BE IN)
000062:                                                                                                  #                  ARE THE GET(IN CENTISECONDS OF THE   3.  XXXXX                   LSB OF GET(THE FUTURE)
000063:                                                                                                  #                  DESIRED EVENT.
000064:                                                                                                  #  V65E            SET GUIDANCE REFERENCE RELEASE       NONE
000065:                                                                                                  #                  DISCRETE.
000066:                                                                                                  #  V66E            INITIATE THE LGC DFI TLM CALIBRATE   NONE
000067:                                                                                                  #                  ROUTINE.
000068:                                                                                                  #  V67EXXXE        ENTER A THREE DIGIT OCTAL NUMBER     1.   XXX   1-377(OCTAL)     SEE GSOP FOR LIST OF COMMANDS


000070:                                                                                                  #                  REPRESENTING THE 8 BIT COMMAND TO
000071:                                                                                                  #                  BE SENT TO THE LMP.
000072:                                                                                                  #  V70EIETTTTTE    INCREMENT TIMER I BY TTTTT OCTAL     1.    I    1,2,3,4          MISSION TIMERS
000073:                                                                                                  #                  SECONDS.                             2.  TTTTT                   **SEE NOTES TO LEFT**
000074:                                                                                                  #                  **SEE BELOW FOR DESCRIPTION OF
000075:                                                                                                  #                  :UPDATE OF TIMERI LOGIC : AND
000076:                                                                                                  #                  :TIMER MAINTENANCE LOGIC:**
000077:                                                                                                  #  V71EIEPPE       SET MISSION PHASE REGISTER I TO      1.    I    1,2,3,4          MISSION PHASE REGISTERS
000078:                                                                                                  #                  MISSION PHASE PP (OCTAL)             2.   PP 7,10,11,13,15(OCT)  MISSION PHASES
000079:                                                                                                  #  V72EIEPPETTTTTE (--COMBINATION OF V70 AND V71.--)
000080:                                                                                                  #  V73EIE          CHANGE THE STATE OF THE DPS COLD     1.    I     1               ENABLE/INHIBIT RCS TESTING
000081:                                                                                                  #                  SOAK (MISSION PHASE 8) DISCRETE(I=2)       I     2               ENABLE/INHIBIT DPS COLD SOAK
000082:                                                                                                  #                                                             I     3               ENABLE/INHIBIT RCS COLD SOAK
000083:                                                                                                  #                                                                                   (I = 1 OR 3 WILL ONLY INVERT
000084:                                                                                                  #                                                                                   RESPECTIVE BITS OF FLAGWRD2 AND
000085:                                                                                                  #                                                                                   HAVE NO OTHER EFFECT ON 206)
000086:                                                                                                  #  V74E            MISSION IDLE COMMAND.                NONE
000087:                                                                                                  #                  (VERB 15,NOUN 50, R1 = FAILREG,
000088:                                                                                                  #                  R2 = FAILREG +1, R3 = FAILREG +2
000089:                                                                                                  #                  WILL APPEAR ON DSKY)
000090:                                                                                                  #  V75E1EXXXXXE    UPDATE TARGET PARAMETERS FOR DPS1    1.    I     1               DPS1 TARGET PARAMS UPDATE CODE
000091:                                                                                                  #        XXXXXE    BURN.(MISSION PHASE 9).              2.  XXXXX                   MSB OF R(P)   (RP   )
000092:                                                                                                  #                                                       3.  XXXXX                   LSB OF R(P)   (RP +1)
000093:                                                                                                  #                                                                          (RP IS THE DESIRED PERIGEE OR APOGEE
000094:                                                                                                  #                                                                          RADIUS SCALED AT METERS  2(24))
000095:                                                                                                  #  V75E2EXXXXXE    UPDATE TARGET PARAMETERS FOR DPS2    1.    I     2               DPS2 TARGET PARAMS UPDATE CODE
000096:                                                                                                  #        XXXXXE    BURN (MISSION PHASE 11).             2.  XXXXX                   MSB OF CPT(6) (CPT6/2   )
000097:                                                                                                  #        XXXXXE                                         3.  XXXXX                   LSB OF CPT(6) (CPT6/2 +1)
000098:                                                                                                  #        XXXXXE                                         4.  XXXXX                   MSB OF CPT(7) (CPT6/2 +2)
000099:                                                                                                  #        XXXXXE                                         5.  XXXXX                   LSB OF CPT(7) (CPT6/2 +3)
000100:                                                                                                  #        XXXXXE                                         6.  XXXXX                   MSB OF CPT(8) (CPT6/2 +4)
000101:                                                                                                  #                                                       7.  XXXXX                   LSB OF CPT(8) (CPT6/2 +5)
000102:                                                                                                  #                                                                          (CPT/6 IS 1/2 UNIT NORMAL TO THE
000103:                                                                                                  #                                                                          DESIRED ORBITAL PLANE IN STABLE MEMBER
000104:                                                                                                  #                                                                          COORDINATES)
000105:                                                                                                  #  V75E3EXXXXXE    UPDATE TARGET PARAMETERS FOR APS2    1.    I     3               APS2 TARGET PARAMS UPDATE CODE
000106:                                                                                                  #        XXXXXE    BURN (MISSION PHASE 13).             2.  XXXXX                   MSB OF RCSM(TA)0  (RIVEC   )
000107:                                                                                                  #        XXXXXE                                         3.  XXXXX                   LSB OF RCSM(TA)0  (RIVEC +1)
000108:                                                                                                  #        XXXXXE                                         4.  XXXXX                   MSB OF RCSM(TA)1  (RIVEC +2)
000109:                                                                                                  #        XXXXXE                                         5.  XXXXX                   LSB OF RCSM(TA)1  (RIVEC +3)
000110:                                                                                                  #        XXXXXE                                         6.  XXXXX                   MSB OF RCSM(TA)2  (RIVEC +4)
000111:                                                                                                  #        XXXXXE                                         7.  XXXXX                   LSB OF RCSM(TA)2  (RIVEC +5)
000112:                                                                                                  #        XXXXXE                                         8.  XXXXX                   MSB OF TA         (TINT    )
000113:                                                                                                  #        XXXXXE                                         9.  XXXXX                   LSB OF TA         (TINT  +1)
000114:                                                                                                  #        XXXXXE                                        10.  XXXXX                   MSB OF RD         (RCO     )
000115:                                                                                                  #                                                      11.  XXXXX                   LSB OF RD         (RCO   +1)
000116:                                                                                                  #                                                                          (RIVEC IS THE POSITION VECTOR OF THE
000117:                                                                                                  #                                                                           DESIRED INTERCEPT POINT IN STABLE
000118:                                                                                                  #                                                                           MEMBER COORD SCALED AT METERS 2(25).
000119:                                                                                                  #                                                                           TINT IS THE TIME SCALED AT CSEC 2(28).


000121:                                                                                                  #                                                                           RCO IS THE DESIRED RADIUS AT CUTOFF
000122:                                                                                                  #                                                                            SCALED AT METERS 2(25))
000123:                                                                                                  #  V75E4ETTTTTE    UPDATE LGC CLOCK(TIME2,TIME1)        1.    I     4               LGC AND SV CLOCK UPDATE CODE
000124:                                                                                                  #                  AND STATE VECTOR TIME(TE,TE +1)      2.  TTTTT                   DELTA TIME(SP,OCTAL,CSEC) TO
000125:                                                                                                  #                  WITH TTTTT(IN CENTISECONDS)                                      BE ADDED TO TIME1 AND TE +1
000126:                                                                                                  #  V76E  XXXXXE    STATE VECTOR UPDATE.                 1.  XXXXX                   MSB OF X POSITION (REFRRECT   )
000127:                                                                                                  #        XXXXXE                                         2.  XXXXX                   LSB OF X POSITION (REFRRECT +1)
000128:                                                                                                  #        XXXXXE                                         3.  XXXXX                   MSB OF Y POSITION (REFRRECT +2)
000129:                                                                                                  #        XXXXXE                                         4.  XXXXX                   LSB OF Y POSITION (REFRRECT +3)
000130:                                                                                                  #        XXXXXE                                         5.  XXXXX                   MSB OF Z POSITION (REFRRECT +4)
000131:                                                                                                  #        XXXXXE                                         6.  XXXXX                   LSB OF Z POSITION (REFRRECT +5)
000132:                                                                                                  #        XXXXXE                                         7.  XXXXX                   MSB OF X VELOCITY (REFVRECT   )
000133:                                                                                                  #        XXXXXE                                         8.  XXXXX                   LSB OF X VELOCITY (REFVRECT +1)
000134:                                                                                                  #        XXXXXE                                         9.  XXXXX                   MSB OF Y VELOCITY (REFVRECT +2)
000135:                                                                                                  #        XXXXXE                                        10.  XXXXX                   LSB OF Y VELOCITY (REFVRECT +3)
000136:                                                                                                  #        XXXXXE                                        11.  XXXXX                   MSB OF Z VELOCITY (REFVRECT +4)
000137:                                                                                                  #        XXXXXE                                        12.  XXXXX                   LSB OF Z VELOCITY (REFVRECT +5)
000138:                                                                                                  #        XXXXXE                                        13.  XXXXX                   MSB OF TIME       (TE         )
000139:                                                                                                  #        XXXXXE                                        14.  XXXXX                   LSB OF TIME       (TE +1      )
000140:                                                                                                  #                                                                          (POSITION SCALED AT KILOMETERS 2(14).
000141:                                                                                                  #                                                                          VELOCITY SCALED AT METERS/CSEC
000142:                                                                                                  #                                                                           2(7) / 1.29753638
000143:                                                                                                  #                                                                          TIME SCALED AT CENTISECONDS 2(23) )
000144:                                                                                                  #  UPTATE OF TIMERI LOGIC(UPDT = TTTTT TIME SENT VIA UPLINK)-
000145:                                                                                                  #                                                        T
000146:                                                                                                  #  BEFORE   A        A                 A                 H
000147:                                                                                                  #  UPDATE   N        N                 N                 E
000148:                                                                                                  #  TIMERI = D UPDT = D TIMERI + UPDT = D TIMERI + UPDT = N TIMERI =
000149:                                                                                                  #  -------- - ------ - --------------- - --------------- - -------------
000150:                                                                                                  #           (        (
000151:                                                                                                  #           (        ( OVERFLOW                            NO CHANGE (EXCEPT OPERATOR ERROR = ON)
000152:                                                                                                  #           (        (
000153:                                                                                                  #           (        (
000154:                                                                                                  #           (        (                 (
000155:                                                                                                  #           ( .GT. +0(                 (  .GE. +0          TIMERI + UPDT
000156:                                                                                                  #           ( .LT. -0(   NO            (
000157:                                                                                                  #           (        ( OVERFLOW        (  .LT. -0             0
000158:                                                                                                  #   .GE. +0 (        (                 (
000159:                                                                                                  #           (        (                 (  .EQ. -0             0
000160:                                                                                                  #           (        (                 (
000161:                                                                                                  #           (        (
000162:                                                                                                  #           (
000163:                                                                                                  #           (        (
000164:                                                                                                  #           ( .EQ. +0(                                       UPDT
000165:                                                                                                  #           ( .EQ. -0(
000166:                                                                                                  #           (        (
000167:                                                                                                  #           (
000168:
000169:                                                                                                  #   .LE. -0                                                  UPDT
000170:


000172:                                                                                                  #  TIMER MAINTENANCE LOGIC(BY MMAINT)-
000173:                                                                                                  #  TIMERI =  MEANS
000174:                                                                                                  #  --------  --------------------------------------------------------------
000175:                                                                                                  #   .GT. +0  TIMERI IS COUNTING DOWN
000176:                                                                                                  #   .EQ. +0  MISSION PHASE IN ASSOCIATED MISSION PHASE REGISTER IS NOW DUE
000177:                                                                                                  #   .LT. -0  FREE BUT LOADED BY GROUND
000178:                                                                                                  #   .EQ. -0  FREE
000179:                                                                                                  #  OUTPUT- PERFORM UPDATES AS DESCRIBED IN GSOP AND :INPUT:
000180:                                                                                                  #  ERASABLE INITIALIZATION REQUIRED- NONE
000181:                                                                                                  #  DEBRIS(ERASABLE LOCATIONS DESTROYED BY THIS PROGRAM)- MPAC - MPAC +2,
000182:                                                                                                  #           STCOUNT, EBANK, UPVERB, UPOLDMOD, FLAGWRD2(BIT6),UPTEMP,
000183:                                                                                                  #           UPTEMP1, COMPNUMB, REFRRECT - REFRRECT +5, REFRCV - REFRCV +5,
000184:                                                                                                  #           REFVRECT - REFVRECT +5, REFVCV - REFVCV +5, TE - TE +1,
000185:                                                                                                  #           DELTAV - DELTAV +5, NUV - NUV +5, REFTC -REFTC +1,
000186:                                                                                                  #           REFKEP - REFKEP +1, UPINDEX, UPDT
000187:                                                                                                  #           AND CENTRAL REGISTERS
000188:
000189: 11,3242                                           BANK     11
000190: 11,3242  E4,1677                                  EBANK=   STBUFF
000191: 11,3242           05225        65UPDAT            TC       POSTJUMP
000192: 11,3243           56000                           CADR     GRRPLACE
000193: 11,3244           05225        74UPDAT            TC       POSTJUMP
000194: 11,3245           16003                           CADR     DOV74
000195: 11,3246           00004        66UPDAT            INHINT
000196: 11,3247           05270                           TC       IBNKCALL
000197: 11,3250           56204                           CADR     DFITMCAL
000198: 11,3251           15567                           TCF      ENDOFJOB
000199:
000200: 11,3252           33311        73UPDAT            CA       OCT73
000201: 11,3253           03255                           TC       67UPDAT    +1
000202: 11,3254           33312        67UPDAT            CA       OCT67
000203: 11,3255           54144                           TS       MPAC
000204: 11,3256           37763                           CA       ONE
000205: 11,3257           03277                           TC       76UPDAT    +3
000206: 11,3260           33313        70UPDAT            CA       OCT70
000207: 11,3261           03263                           TC       71UPDAT    +1
000208: 11,3262           33314        71UPDAT            CA       OCT71
000209: 11,3263           54144                           TS       MPAC
000210: 11,3264           37762                           CA       TWO
000211: 11,3265           03277                           TC       76UPDAT    +3
000212: 11,3266           33315        64UPDAT            CA       11OCT64
000213: 11,3267           03271                           TC       72UPDAT    +1
000214: 11,3270           33316        72UPDAT            CA       OCT72
000215: 11,3271           54144                           TS       MPAC
000216: 11,3272           36311                           CA       THREE
000217: 11,3273           03277                           TC       76UPDAT    +3
000218: 11,3274           33317        76UPDAT            CA       OCT76
000219: 11,3275           54144                           TS       MPAC
000220: 11,3276           33320                           CA       11OCT16
000221: 11,3277           54145                           TS       MPAC       +1


000223: 11,3300           03303                           TC       75UPDAT    +2
000224: 11,3301           33321        75UPDAT            CA       11OCT75
000225: 11,3302           54144                           TS       MPAC
000226: 11,3303           30076                           CA       FLAGWRD2                              #  TEST IF TIMERS ENABLED
000227: 11,3304           77757                           MASK     BIT5
000228: 11,3305           00006                           EXTEND
000229: 11,3306           12053                           BZF      XACTALM                               #  NO, RETURN
000230: 11,3307           05206                           TC       BANKCALL
000231: 11,3310           54000                           CADR     UPPART2
000232: 11,3311           00073        OCT73              OCT      00073
000233: 11,3312           00067        OCT67              OCT      00067
000234: 11,3313           00070        OCT70              OCT      00070
000235: 11,3314           00071        OCT71              OCT      00071
000236: 11,3315           00064        11OCT64            OCT      00064
000237: 11,3316           00072        OCT72              OCT      00072
000238: 11,3317           00076        OCT76              OCT      00076
000239: 11,3320           00016        11OCT16            OCT      16
000240: 11,3321           00075        11OCT75            OCT      00075

End of include-file UPDATE_PROGRAM_PART_1_OF_2.agc.  Parent file is MAIN.agc


