
Source Code


000002:                                                                                                  ## Copyright:   Public domain.
000003:                                                                                                  ## Filename:    UPDATE_PROGRAM_PART_2_OF_2.agc
000004:                                                                                                  ## Purpose:     A module for revision 0 of BURST120 (Sunburst). It
000005:                                                                                                  ##              is part of the source code for the Lunar Module's
000006:                                                                                                  ##              (LM) Apollo Guidance Computer (AGC) for Apollo 5.
000007:                                                                                                  ## Assembler:   yaYUL
000008:                                                                                                  ## Contact:     Ron Burkey <info@sandroid.org>.
000009:                                                                                                  ## Website:     www.ibiblio.org/apollo/index.html
000010:                                                                                                  ## Mod history: 2016-09-30 RSB  Created draft version.
000011:                                                                                                  ##              2016-10-14 RSB  Transcribed.
000012:                                                                                                  ##              2016-10-31 RSB  Typos.
000013:                                                                                                  ##              2016-11-01 RSB  More typos.
000014:                                                                                                  ##              2016-11-02 RSB  Removed workaround I had added for TC without
000015:                                                                                                  ##                              an operand.  Ended up supporting it in yaYUL
000016:                                                                                                  ##                              instead, since it had already been supported
000017:                                                                                                  ##                              for block 1 and BLK2 targets anyway.
000018:                                                                                                  ##              2016-12-05 RSB  Comment-proofing pass with octopus/ProoferComments completed;
000019:                                                                                                  ##                              changes made.
000020:


000022: 26,2000                                           BANK     26
000023: 26,2000  E4,1677                                  EBANK=   STBUFF
000024: 26,2000           32515        UPPART2            CA       UPE4
000025: 26,2001           54003                           TS       EBANK
000026: 26,2002           04133                           TC       CHECKMM
000027: 26,2003           00027                           OCT      27
000028: 26,2004           02006                           TC       +2
000029: 26,2005           02513                           TC       21XCTALM
000030: 26,2006           37763                           CA       ONE
000031: 26,2007           55715                           TS       STCOUNT
000032: 26,2010           04644                           TC       GRABWAIT
000033: 26,2011           30144                           CA       MPAC
000034: 26,2012           55721                           TS       UPVERB
000035: 26,2013           30302                           CA       MODREG
000036: 26,2014           55716                           TS       UPOLDMOD
000037: 26,2015           04161                           TC       PHASCHNG
000038: 26,2016           00076                           OCT      00076                                 #  6.7 SPOT TO RESTORE OLD PROGRAM MODE.
000039:
000040: 26,2017           04117                           TC       NEWMODEX
000041: 26,2020           00027                           OCT      27
000042: 26,2021           41721                           CS       UPVERB
000043: 26,2022           62362                           AD       21OCT75
000044: 26,2023           00006                           EXTEND
000045: 26,2024           12030                           BZF      +4
000046: 26,2025           30145                           CA       MPAC       +1
000047: 26,2026           55722                           TS       COMPNUMB
000048: 26,2027           02052                           TC       UPIN       +1
000049: 26,2030           37763        UPNO33             CA       ONE                                   #  CONTINUE V75
000050: 26,2031           62523                           AD       ASTBFM1
000051: 26,2032           54146                           TS       MPAC       +2
000052: 26,2033           32364                           CA       STATENV                               #  UPDATE PROGRAM IS READY TO ACCEPT TARGET
000053: 26,2034           04657                           TC       NVSBWAIT                              #  UPDATE INDEX. FLASH V 21 N 01
000054: 26,2035           04475                           TC       ENDIDLE                               #  WAIT FOR V33, V34 OR DATA.
000055: 26,2036           12463                           TCF      UPVERB34                              #  V34 TERMINATE UPDATE PROGRAM.
000056: 26,2037           02030                           TC       UPNO33                                #  V33, IGNORE
000057: 26,2040           37761                           CA       FOUR                                  #  OCTAL NO. IN STBUFF
000058: 26,2041           55717                           TS       UPTEMP
000059: 26,2042           31677                           CA       STBUFF
000060: 26,2043           02473                           TC       UPRANGE                               #  IS STBUFF GE 1 AND LE 4
000061: 26,2044           02030                           TC       UPNO33                                #   NO, TRY AGAIN
000062: 26,2045           51677                           INDEX    STBUFF                                #   YES
000063: 26,2046           32515                           CA       AOFC       -1
000064: 26,2047           55722                           TS       COMPNUMB
000065: 26,2050           37762                           CA       TWO
000066: 26,2051           55715        UPIN               TS       STCOUNT
000067: 26,2052           32523                           CA       ASTBFM1
000068: 26,2053           61715                           AD       STCOUNT
000069: 26,2054           54146                           TS       MPAC       +2
000070: 26,2055           32364                           CA       STATENV                               #  UPDATE PROGRAM IS READY TO ACCEPT THE
000071: 26,2056           04657                           TC       NVSBWAIT                              #  NEXT COMPONENT, FLASH V21 N01


000073: 26,2057           04475                           TC       ENDIDLE                               #  WAIT FOR V33, V34 OR DATA.
000074: 26,2060           12463                           TCF      UPVERB34                              #  V34 TERMINATE UPDATE PROGRAM.
000075: 26,2061           02052                           TC       UPIN       +1                         #  V33 , IGNORE
000076: 26,2062           41715                           CS       STCOUNT                               #  OCTAL NO.
000077: 26,2063           61722                           AD       COMPNUMB
000078: 26,2064           00006                           EXTEND
000079: 26,2065           12070                           BZF      +3
000080: 26,2066           25715                           INCR     STCOUNT
000081: 26,2067           02052                           TC       UPIN       +1
000082: 26,2070           32522        UPHERE             CA       UPAOFTP1
000083: 26,2071           54146                           TS       MPAC       +2
000084: 26,2072           32353                           CA       OCTID                                 #  INDICATE TO GROUND THAT ALL COMPONENTS
000085: 26,2073           04657                           TC       NVSBWAIT                              #  HAVE BEEN RECEIVED BY FLASHING V21 N02.
000086: 26,2074           04475                           TC       ENDIDLE                               #  WAIT FOR V33, V34 OR DATA(COMPONENT NO.)
000087: 26,2075           12463                           TCF      UPVERB34                              #  V34 TERMINATE UPDATE PROGRAM.
000088: 26,2076           02107                           TC       UPSTORE                               #  V33, VERIFY
000089: 26,2077           31722                           CA       COMPNUMB                              #  OCTAL IDENTIFIER
000090: 26,2100           55717                           TS       UPTEMP
000091: 26,2101           31720                           CA       UPTEMP1
000092: 26,2102           02473                           TC       UPRANGE
000093: 26,2103           02070                           TC       UPHERE                                #  BAD OCTAL IDENTIFIER
000094: 26,2104           31720                           CA       UPTEMP1
000095: 26,2105           62523                           AD       ASTBFM1
000096: 26,2106           02054                           TC       UPIN       +3
000097: 26,2107           04724        UPSTORE            TC       FREEDSP
000098: 26,2110           00004                           INHINT
000099: 26,2111           40076                           CS       FLAGWRD2                              #  INVERT VERIFLAG FOR GROUND VERIFY
000100: 26,2112           77756                           MASK     BIT6
000101: 26,2113           54002                           TS       Q
000102: 26,2114           47756                           CS       BIT6
000103: 26,2115           70076                           MASK     FLAGWRD2
000104: 26,2116           60002                           AD       Q
000105: 26,2117           54076                           TS       FLAGWRD2
000106: 26,2120           00003                           RELINT
000107: 26,2121           41721                           CS       UPVERB                                #  IF A VERB 75 OR 76 UPDATE
000108: 26,2122           62362                           AD       21OCT75                               #  STAY IN P27 UNTIL UPDATE IS COMPLETED.
000109: 26,2123           00006                           EXTEND                                         #  (THIS IS DONE SO THAT NO OTHER UPDATES
000110: 26,2124           62132                           BZMF     UPRETURN                              #  WILL BE ALLOWED IF ORBIT INT IS ON)
000111: 26,2125           04133                           TC       CHECKMM
000112: 26,2126           00027                           OCT      27
000113: 26,2127           02132                           TC       UPRETURN
000114: 26,2130           31716                           CA       UPOLDMOD                              #  RESTORE PRE-P27 MODE
000115: 26,2131           04122                           TC       NEWMODEX   +3                         #  (THIS WILL CAUSE A RELINT)
000116: 26,2132           00004        UPRETURN           INHINT
000117: 26,2133           37757                           CA       BIT5
000118: 26,2134           70076                           MASK     FLAGWRD2
000119: 26,2135           00006                           EXTEND
000120: 26,2136           12504                           BZF      XCTALMRM
000121: 26,2137           42153                           CS       21OCT64                               #    BEGIN STORING DATA FROM STBUFF
000122: 26,2140           61721                           AD       UPVERB                                #  YES, CONTINUE
000123:


000125: 26,2141           50000                           INDEX    A
000126: 26,2142           02143                           TC       +1
000127: 26,2143           00006                           EXTEND
000128: 26,2144           31701                           DCA      STBUFF     +1
000129: 26,2145           02301                           TC       UPEND64
000130: 26,2146           02311                           TC       UPEND67                               #  V67
000131: 26,2147           02315                           TC       UPEND70                               #  V70
000132: 26,2150           02323                           TC       UPEND71                               #  V71
000133: 26,2151           02331                           TC       UPEND72                               #  V72
000134: 26,2152           02341                           TC       UPEND73
000135: 26,2153           00064        21OCT64            OCT      00064
000136: 26,2154           02345                           TC       UPEND75                               #  V75
000137: 26,2155           40076        UPEND76            CS       FLAGWRD2                              #  IS ORBITAL INTEGRATION ON
000138: 26,2156           77755                           MASK     BIT7
000139: 26,2157           00006                           EXTEND
000140: 26,2160           12262                           BZF      SETUPRCK                              #  YES, SET UP 3SEC CALL TO CHECK AGAIN
000141: 26,2161           04161                           TC       PHASCHNG
000142: 26,2162           05026                           OCT      05026
000143: 26,2163           33000                           OCT      33000
000144: 26,2164           00004                           INHINT                                         #  INHINT BECAUSE PHASCHNG RELINTS AND BECA
000145:                                                                                                  #  USE RESTARTED JOB WILL NEED IT.
000146: 26,2165           00006                           EXTEND                                         #  V76
000147: 26,2166           31700                           DCA      STBUFF                                #  NO, BEGIN LOAD OF UPDATE PARAMETERS
000148: 26,2167           53211                           DXCH     REFRRECT
000149: 26,2170           00006                           EXTEND
000150: 26,2171           31700                           DCA      STBUFF
000151: 26,2172           53241                           DXCH     REFRCV
000152: 26,2173           00006                           EXTEND
000153: 26,2174           31702                           DCA      STBUFF     +2
000154: 26,2175           53213                           DXCH     REFRRECT   +2
000155: 26,2176           00006                           EXTEND
000156: 26,2177           31702                           DCA      STBUFF     +2
000157: 26,2200           53243                           DXCH     REFRCV     +2
000158: 26,2201           00006                           EXTEND
000159: 26,2202           31704                           DCA      STBUFF     +4
000160: 26,2203           53215                           DXCH     REFRRECT   +4
000161: 26,2204           00006                           EXTEND
000162: 26,2205           31704                           DCA      STBUFF     +4
000163: 26,2206           53245                           DXCH     REFRCV     +4
000164: 26,2207           00006                           EXTEND
000165: 26,2210           31706                           DCA      STBUFF     +6
000166: 26,2211           53217                           DXCH     REFVRECT
000167: 26,2212           00006                           EXTEND
000168: 26,2213           31706                           DCA      STBUFF     +6
000169: 26,2214           53247                           DXCH     REFVCV
000170: 26,2215           00006                           EXTEND
000171: 26,2216           31710                           DCA      STBUFF     +8D
000172: 26,2217           53221                           DXCH     REFVRECT   +2
000173: 26,2220           00006                           EXTEND
000174: 26,2221           31710                           DCA      STBUFF     +8D


000176: 26,2222           53251                           DXCH     REFVCV     +2
000177: 26,2223           00006                           EXTEND
000178: 26,2224           31712                           DCA      STBUFF     +10D
000179: 26,2225           53223                           DXCH     REFVRECT   +4
000180: 26,2226           00006                           EXTEND
000181: 26,2227           31712                           DCA      STBUFF     +10D
000182: 26,2230           53253                           DXCH     REFVCV     +4
000183: 26,2231           00006                           EXTEND
000184: 26,2232           31714                           DCA      STBUFF     +12D
000185: 26,2233           53257                           DXCH     TE
000186: 26,2234           37767                           CA       ZERO
000187: 26,2235           55224                           TS       DELTAV
000188: 26,2236           55225                           TS       DELTAV     +1
000189: 26,2237           55226                           TS       DELTAV     +2
000190: 26,2240           55227                           TS       DELTAV     +3
000191: 26,2241           55230                           TS       DELTAV     +4
000192: 26,2242           55231                           TS       DELTAV     +5
000193: 26,2243           55232                           TS       NUV
000194: 26,2244           55233                           TS       NUV        +1
000195: 26,2245           55234                           TS       NUV        +2
000196: 26,2246           55235                           TS       NUV        +3
000197: 26,2247           55236                           TS       NUV        +4
000198: 26,2250           55237                           TS       NUV        +5
000199: 26,2251           55254                           TS       REFTC
000200: 26,2252           55255                           TS       REFTC      +1
000201: 26,2253           55260                           TS       REFXKEP
000202: 26,2254           55261                           TS       REFXKEP    +1
000203: 26,2255           37746                           CAF      PRIO20                                #  SET UP JOB TO STORE NEW STATE FOR DWNTEL
000204: 26,2256           05516                           TC       FINDVAC
000205: 26,2257  E4,1566                                  EBANK=   TDEC
000206: 26,2257           02475 16064                     2CADR    UPDATINT
000207:
000208: 26,2261           12464                           TCF      UPVERB34   +1                         #  RESTORE PRE-P27 MODE AND EXIT UPDATE
000209: 26,2262           32524        SETUPRCK           CA       3SEC21
000210: 26,2263           05663                           TC       WAITLIST
000211: 26,2264  E4,1677                                  EBANK=   STBUFF
000212: 26,2264           02274 54064                     2CADR    UPDOAGN
000213:
000214: 26,2266           04161                           TC       PHASCHNG
000215: 26,2267           47016                           OCT      47016
000216: 26,2270           00454                           DEC      300        B-14
000217: 26,2271  E4,1677                                  EBANK=   STBUFF
000218: 26,2271           02274 54064                     2CADR    UPDOAGN
000219:
000220: 26,2273           05567                           TC       ENDOFJOB
000221: 26,2274           35651        UPDOAGN            CA       PRIO27
000222: 26,2275           05505                           TC       NOVAC
000223: 26,2276  E4,1677                                  EBANK=   STBUFF
000224: 26,2276           02132 54064                     2CADR    UPRETURN


000226: 26,2300           05727                           TC       TASKOVER
000227: 26,2301           53206        UPEND64            DXCH     UPGET
000228: 26,2302           31677                           CA       STBUFF
000229: 26,2303           55204                           TS       UPINDEX
000230: 26,2304           35651                           CA       PRIO27
000231: 26,2305           05516                           TC       FINDVAC
000232: 26,2306  E4,1677                                  EBANK=   STBUFF
000233: 26,2306           02325 62064                     2CADR    MGETUP
000234:
000235: 26,2310           02471                           TC       UPQUIT
000236: 26,2311           31677        UPEND67            CA       STBUFF
000237: 26,2312           55204                           TS       UPINDEX
000238: 26,2313           05225                           TC       POSTJUMP
000239: 26,2314           62202                           CADR     DOV67
000240: 26,2315           31677        UPEND70            CA       STBUFF
000241: 26,2316           55204                           TS       UPINDEX
000242: 26,2317           31700                           CA       STBUFF     +1
000243: 26,2320           55203                           TS       UPDT
000244: 26,2321           05225                           TC       POSTJUMP
000245: 26,2322           62153                           CADR     DOV70
000246: 26,2323           31677        UPEND71            CA       STBUFF
000247: 26,2324           55204                           TS       UPINDEX
000248: 26,2325           31700                           CA       STBUFF     +1
000249: 26,2326           55202                           TS       UPPHASE
000250: 26,2327           05225                           TC       POSTJUMP
000251: 26,2330           62155                           CADR     DOV71
000252: 26,2331           31677        UPEND72            CA       STBUFF
000253: 26,2332           55204                           TS       UPINDEX
000254: 26,2333           31700                           CA       STBUFF     +1
000255: 26,2334           55202                           TS       UPPHASE
000256: 26,2335           31701                           CA       STBUFF     +2
000257: 26,2336           55203                           TS       UPDT
000258: 26,2337           05225                           TC       POSTJUMP
000259: 26,2340           62157                           CADR     DOV72
000260: 26,2341           31677        UPEND73            CA       STBUFF
000261: 26,2342           55204                           TS       UPINDEX
000262: 26,2343           05225                           TC       POSTJUMP
000263: 26,2344           62165                           CADR     DOV73
000264: 26,2345           04161        UPEND75            TC       PHASCHNG
000265: 26,2346           05026                           OCT      05026
000266: 26,2347           33000                           OCT      33000
000267: 26,2350           00004                           INHINT                                         #  INHINT BECAUSE PHASCHNG RELINTS AND BECA
000268:                                                                                                  #  USE RESTARTED JOB WILL NEED IT.
000269: 26,2351           51722                           INDEX    COMPNUMB                              #  V75
000270: 26,2352           02352                           TC       -0                                    #  FAN TO V75 ROUTINES
000271: 26,2353           02102        OCTID              OCT      02102
000272: 26,2354           02417                           TC       I=4
000273: 26,2355           00006        I=1                EXTEND
000274: 26,2356           31701                           DCA      STBUFF     +1
000275: 26,2357           53755                           DXCH     RP


000277: 26,2360           02464                           TC       UPQUITRM                              #  RESTORE PRE-P27 MODE AND EXIT UPDATE
000278: 26,2361           02405                           TC       I=2
000279: 26,2362           00075        21OCT75            OCT      75
000280: 26,2363           02417                           TC       I=4
000281: 26,2364           02101        STATENV            OCT      2101
000282: 26,2365           00006        I=3                EXTEND
000283: 26,2366           31701                           DCA      STBUFF     +1
000284: 26,2367           53765                           DXCH     R1VEC
000285: 26,2370           00006                           EXTEND
000286: 26,2371           31703                           DCA      STBUFF     +3
000287: 26,2372           53767                           DXCH     R1VEC      +2
000288: 26,2373           00006                           EXTEND
000289: 26,2374           31705                           DCA      STBUFF     +5
000290: 26,2375           53771                           DXCH     R1VEC      +4
000291: 26,2376           00006                           EXTEND
000292: 26,2377           31707                           DCA      STBUFF     +7
000293: 26,2400           53773                           DXCH     TINT
000294: 26,2401           00006                           EXTEND
000295: 26,2402           31711                           DCA      STBUFF     +9D
000296: 26,2403           53775                           DXCH     RCO
000297: 26,2404           02464                           TC       UPQUITRM                              #  RESTORE PRE-P27 MODE AND EXIT UPDATE
000298: 26,2405           00006        I=2                EXTEND
000299: 26,2406           31701                           DCA      STBUFF     +1
000300: 26,2407           53757                           DXCH     CPT6/2
000301: 26,2410           00006                           EXTEND
000302: 26,2411           31703                           DCA      STBUFF     +3
000303: 26,2412           53761                           DXCH     CPT6/2     +2
000304: 26,2413           00006                           EXTEND
000305: 26,2414           31705                           DCA      STBUFF     +5
000306: 26,2415           53763                           DXCH     CPT6/2     +4
000307: 26,2416           02464                           TC       UPQUITRM                              #  RESTORE PRE-P27 MODE AND EXIT UPDATE
000308: 26,2417           40076        I=4                CS       FLAGWRD2                              #  IS ORBITAL INTEGRATION ON
000309: 26,2420           77755                           MASK     BIT7
000310: 26,2421           00006                           EXTEND
000311: 26,2422           12262                           BZF      SETUPRCK                              #  YES
000312: 26,2423           31700                           CAE      STBUFF     +1
000313: 26,2424           61257                           AD       TE         +1
000314: 26,2425           55714                           TS       STBUFF     +13D
000315: 26,2426           37767                           CAF      ZERO
000316: 26,2427           61256                           AD       TE
000317: 26,2430           55713                           TS       STBUFF     +12D
000318: 26,2431           37767                           CA       ZERO
000319: 26,2432           54001                           TS       L
000320: 26,2433           52025                           DXCH     TIME2
000321: 26,2434           53712                           DXCH     STBUFF     +10D
000322: 26,2435           37766                           CA       FIVE
000323: 26,2436           04246                           TC       NEWPHASE
000324: 26,2437           00006                           OCT      00006
000325:
000326: 26,2440           00004        I=4.CONT           INHINT


000328: 26,2441           37767                           CA       ZERO
000329: 26,2442           54146                           TS       MPAC       +2                         #  FOR TPAGREE
000330: 26,2443           00006                           EXTEND
000331: 26,2444           31714                           DCA      STBUFF     +12D
000332: 26,2445           53257                           DXCH     TE
000333: 26,2446           31700                           CA       STBUFF     +1
000334: 26,2447           61712                           AD       STBUFF     +11D
000335: 26,2450           54001                           TS       L
000336: 26,2451           37767                           CA       ZERO
000337: 26,2452           61711                           AD       STBUFF     +10D
000338: 26,2453           52145                           DXCH     MPAC
000339: 26,2454           07327                           TC       TPAGREE                               #  FORCE SIGN AGREEMENT
000340: 26,2455           52145                           DXCH     MPAC
000341: 26,2456           20025                           DAS      TIME2                                 #  NEW CLOCK
000342: 26,2457           37765                           CAF      SEVEN                                 #  6.7 SPOT TO RESTORE OLD PROGRAM MODE.
000343: 26,2460           04246                           TC       NEWPHASE
000344: 26,2461           00006                           OCT      00006
000345:
000346: 26,2462           02464                           TC       UPQUITRM                              #  RESTORE PRE-P27 MODE AND EXIT UPDATE
000347: 26,2463           04724        UPVERB34           TC       FREEDSP
000348: 26,2464           04133        UPQUITRM           TC       CHECKMM                               #  RESTORE MODE AND UPQUIT
000349: 26,2465           00027                           OCT      27
000350: 26,2466           12471                           TCF      UPQUIT
000351: 26,2467           31716                           CA       UPOLDMOD
000352: 26,2470           04122                           TC       NEWMODEX   +3
000353:
000354: 26,2471           05206        UPQUIT             TC       BANKCALL                              #  SETS 6.0 SPOT AND DOES ENDOFJOB
000355: 26,2472           62351                           CADR     ENDUP
000356: 26,2473           00006        UPRANGE            EXTEND
000357: 26,2474           62503                           BZMF     UPRAUS                                #  C(A) LE ZERO RETURN TO Q
000358: 26,2475           40000                           CS       A
000359: 26,2476           24000                           INCR     A
000360: 26,2477           61717                           AD       UPTEMP
000361: 26,2500           00006                           EXTEND
000362: 26,2501           62503                           BZMF     UPRAUS                                #  C(A) GT C(LOC) RETURN TO Q
000363: 26,2502           24002                           INCR     Q
000364: 26,2503           00002        UPRAUS             TC       Q                                     #  C(A) LE C(LOC) AND GT 0 RETURN TO Q+1
000365: 26,2504           04133        XCTALMRM           TC       CHECKMM
000366: 26,2505           00027                           OCT      27
000367: 26,2506           12511                           TCF      +3
000368: 26,2507           31716                           CA       UPOLDMOD
000369: 26,2510           04122                           TC       NEWMODEX   +3
000370: 26,2511           04161                           TC       PHASCHNG
000371: 26,2512           00006                           OCT      00006
000372: 26,2513           05206        21XCTALM           TC       BANKCALL
000373: 26,2514           22053                           CADR     XACTALM
000374:
000375: 26,2515           02000        UPE4               OCT      2000
000376: 26,2516           00003        AOFC               OCT      00003
000377: 26,2517           00007                           OCT      00007


000379: 26,2520           00013                           OCT      00013
000380: 26,2521           00002                           OCT      00002
000381: 26,2522           02320        UPAOFTP1           ECADR    UPTEMP1
000382: 26,2523           02276        ASTBFM1            ECADR    STBUFF     -1
000383: 26,2524           00454        3SEC21             DEC      300        B-14

End of include-file UPDATE_PROGRAM_PART_2_OF_2.agc.  Parent file is MAIN.agc


