
Source Code


000002:                                                                                                  ## Copyright:    Public domain.
000003:                                                                                                  ## Filename:     WAITLIST.agc
000004:                                                                                                  ## Purpose:      A module for revision 0 of BURST120 (Sunburst). It
000005:                                                                                                  ##               is part of the source code for the Lunar Module's
000006:                                                                                                  ##               (LM) Apollo Guidance Computer (AGC) for Apollo 5.
000007:                                                                                                  ## Assembler:    yaYUL
000008:                                                                                                  ## Contact:      Ron Burkey <info@sandroid.org>.
000009:                                                                                                  ## Website:      www.ibiblio.org/apollo/index.html
000010:                                                                                                  ## Pages:        1062-1074
000011:                                                                                                  ## Mod history:  2016-09-30 RSB  Created draft version.
000012:                                                                                                  ##               2016-10-10 PDJ  Updated based on Sunburst120 scans.
000013:                                                                                                  ##               2016-12-06 RSB  Comments proofed using octopus/ProoferComments,
000014:                                                                                                  ##                               changes made.
000015:


000017:
000018:                                                                                                  #  PROGRAM DESCRIPTION                                                           DATE - 10 OCTOBER 1966
000019:                                                                                                  #  MOD NO - 2                                                                    LOG SECTION - WAITLIST
000020:                                                                                                  #  MOD BY - MILLER      (DTMAX INCREASED TO 162.5 SEC)                           ASSEMBLY SUNBURST REV 5
000021:
000022:                                                                                                  #  FUNCTIONAL DESCRIPTION-
000023:                                                                                                  #             PART OF A SECTION OF PROGRAMS,-WAITLIST, TASKOVER, T3RUPT, USED TO CALL A PROGRAM, (CALLED A TASK),
000024:                                                                                                  #        WHICH IS TO BEGIN IN C(A) CENTISECONDS.  WAITLIST UPDATES TIME3, LST1 AND LST2.  THE MEANING OF THESE LISTS
000025:                                                                                                  #        FOLLOW.
000026:
000027:                                                                                                  #                C(TIME3) = 16384 -(T1-T) CENTISECONDS, (T=PRESENT TIME, T1-TIME FOR TASK1)
000028:
000029:                                                                                                  #                        C(LST1)         =       -(T2-T1)+1
000030:                                                                                                  #                        C(LST1 +1)      =       -(T3-T2)+1
000031:                                                                                                  #                        C(LST1 +2)      =       -(T4-T3)+1
000032:                                                                                                  #                                        .
000033:                                                                                                  #                                        .
000034:                                                                                                  #                        C(LST1 +6)      =       -(T8-T7)+1
000035:                                                                                                  #                        C(LST1 +7)      =       -(T9-T8)+1
000036:
000037:                                                                                                  #                        C(LST2)         =       2CADR OF TASK1
000038:                                                                                                  #                        C(LST2 +2)      =       2CADR OF TASK2
000039:                                                                                                  #                                        .
000040:                                                                                                  #                                        .
000041:                                                                                                  #                        C(LST2 +14)     =       2CADR OF TASK8
000042:                                                                                                  #                        C(LST2 +16)     =       2CADR OF TASK9
000043:
000044:                                                                                                  #  WARNINGS-
000045:                                                                                                  #  --------
000046:                                                                                                  #        1)      1 <= C(A) <= 16250D (1 CENTISECOND TO 162.5 SEC)
000047:                                                                                                  #        2)      9 TASKS MAXIMUM
000048:                                                                                                  #        3)      TASKS CALLED UNDER INTERRUPT INHIBITED
000049:                                                                                                  #        4)      TASKS END BY TC TASKOVER
000050:
000051:                                                                                                  #  CALLING SEQUENCE-
000052:                                                                                                  #        L-2     CAF     DELTAT  (TIME IN CENTISECONDS TO TASK START)
000053:                                                                                                  #        L-1     INHINT
000054:                                                                                                  #        L       TC      WAITLIST
000055:                                                                                                  #        L+1     2CADR   DESIRED TASK
000056:                                                                                                  #        L+2     (MINOR OF 2CADR)
000057:                                                                                                  #        L+3     RELINT          (RETURNS HERE)
000058:
000059:                                                                                                  #  NORMAL EXIT MODES-
000060:
000061:                                                                                                  #        AT L+3 OF CALLING SEQUENCE
000062:
000063:                                                                                                  #  ALARM OR ABORT EXIT MODES-
000064:


000066:
000067:                                                                                                  #        TC      ABORT
000068:                                                                                                  #        OCT     1203    (WAITLIST OVERFLOW - TOO MANY TASKS)
000069:
000070:                                                                                                  #  ERASABLE INITIALIZATION REQUIRED-
000071:
000072:                                                                                                  #        ACCOMPLISHED BY FRESH START,--LST2,..., LST2 +16 =ENDTASK
000073:                                                                                                  #                                      LST1,..., LST1 +7  =NEG1/2
000074:
000075:                                                                                                  #  OUTPUT--
000076:
000077:                                                                                                  #        LST1 AND LST2 UPDATED WTIH NEW TASK AND ASSOCIATED TIME.
000078:
000079:                                                                                                  #  DEBRIS-
000080:
000081:                                                                                                  #        CENTRALS- A,Q,L
000082:                                                                                                  #        OTHER   - WAITEXIT, WAITADR, WAITTEMP, WAITBANK
000083:                                                                                                  #  DETAILED ANALYSIS OF TIMING-
000084:
000085:                                                                                                  #             CONTROL WILL NOT BE RETURNED TO THE SPECIFIED ADDRESS (2CADR) IN EXACTLY DELTA T CENTISECONDS.
000086:                                                                                                  #        THE APPROXIMATE TIME MAY BE CALCULATED AS FOLLOWS
000087:
000088:                                                                                                  #                LET T0 = THE TIME OF THE TC WAITLIST
000089:                                                                                                  #                LET TS = T0 +147U + COUNTER INCREMENTS (SET UP TIME)
000090:                                                                                                  #                LET X  = TS -(100TS)/100  (VARIANCE FROM COUNTERS)
000091:                                                                                                  #                LET Y  = LENGTH OF TIME OF INHIBIT INTERRUPT AFTER T3RUPT
000092:                                                                                                  #                LET Z  = LENGTH OF TIME TO PROCESS TASKS WHICH ARE DUE THIS T3RUPT BUT DISPATCHED EARLIER.
000093:                                                                                                  #        (Z=0, USUALLY)
000094:                                                                                                  #                LET DELTD  = THE ACTUAL TIME TAKEN TO GIVE CONTROL TO 2CADR
000095:                                                                                                  #             THEN DELTD = TS+DELTA T -X +Y +Z +1.05MS* +COUNTERS*
000096:
000097:                                                                                                  #        *-THE TIME TAKEN BY WAITLIST ITSELF AND THE COUNTER TICKING DURING THIS WAITLIST TIME.
000098:
000099:                                                                                                  #             IN SHORT, THE ACTUAL TIME TO RETURN CONTROL TO A 2CADR IS AUGMENTED BY THE TIME TO SET UP THE TASK'S
000100:                                                                                                  #        INTERRUPT, ALL COUNTERS TICKING, THE T3RUPT PROCESSING TIME, THE WAITLIST PROCESSING TIME AND THE POSSIBILITY
000101:                                                                                                  #        OF OTHER TASKS INHIBITING THE INTERRUPT.
000102:
000103:    5663                                           BLOCK    02
000104:    5663  E3,1400                                  EBANK=   LST1                                  #  TASK LISTS IN SWITCHED E BANK.
000105:
000106:    5663           56002        WAITLIST           XCH      Q                                     #   SAVE DELTA T IN Q AND RETURN IN
000107:    5664           54061                           TS       WAITEXIT                              #  WAITEXIT.
000108:    5665           00006                           EXTEND
000109:    5666           50000                           INDEX    A
000110:    5667           30001                           DCA      0                                     #  PICK UP 2CADR OF TASK.
000111:    5670           54063                           TS       WAITADR                               #  BBCON WILL REMAIN IN L.
000112:    5671           35700        DLY2               CAF      WAITBB                                #  ENTRY FROM FIXDELAY AND VARDELAY.
000113:    5672           56006                           XCH      BBANK
000114:    5673           13427                           TCF      WAIT2
000115:
000116:                                                                                                  #  RETURN TO CALLER AFTER TASK INSERTION:
000117:


000119:
000120:    5674           30062        LVWTLIST           CA       WAITBANK
000121:    5675           54006                           TS       BBANK
000122:    5676           50061                           INDEX    WAITEXIT
000123:    5677           00002                           TC       2
000124:
000125:    5700  E3,1400                                  EBANK=   LST1
000126:    5700           02063        WAITBB             BBCON    WAIT2
000127:
000128:                                                                                                  #  RETURN TO CALLER +2 AFTER WAITING DT SPECIFIED AT CALLER +1.
000129:
000130:    5701           50002        FIXDELAY           INDEX    Q                                     #  BOTH ROUTINES MUST BE CALLED UNDER
000131:    5702           30000                           CAF      0                                     #  WAITLIST CONTROL AND TERMINATE THE TASK
000132:    5703           24002                           INCR     Q                                     #  IN WHICH THEY WERE CALLED.
000133:
000134:                                                                                                  #  RETURN TO CALLER +1 AFTER WAITING THE DT AS ARRIVING IN A.
000135:
000136:    5704           56002        VARDELAY           XCH      Q                                     #  DT TO Q.  TASK ADRES TO WAITADR.
000137:    5705           54063                           TS       WAITADR
000138:    5706           30006                           CA       BBANK                                 #  BBANK IS SAVED DURING DELAY.
000139:    5707           54001                           TS       L
000140:    5710           35713                           CAF      DELAYEX
000141:    5711           54061                           TS       WAITEXIT                              #  GO TO TASKOVER AFTER TASK ENTRY.
000142:    5712           15671                           TCF      DLY2
000143:
000144:    5713           15725        DELAYEX            TCF      TASKOVER   -2                         #  RETURNS TO TASKOVER
000145:


000147:
000148:                                                                                                  #  ENDTASK MUST BE ENTERED IN FIXED-FIXED SO IT IS DISTINGUISHABLE BY ITS ADRES ALONE.
000149:
000150:    5714  E3,1400                                  EBANK=   LST1
000151:    5714           72061 73714  ENDTASK            -2CADR   SVCT3
000152:
000153:    5716           10076        SVCT3              CCS      FLAGWRD2                              #  DRIFT FLAG
000154:    5717           15727                           TCF      TASKOVER
000155:    5720           15727                           TCF      TASKOVER
000156:    5721           15722                           TCF      +1
000157:
000158:    5722           35656                           CAF      PRIO35                                #  COMPENSATE FOR NBD COEFFICIENTS ONLY
000159:    5723           05505                           TC       NOVAC                                 #      ENABLE EVERY 81.93 SECONDS
000160:    5724  E3,1444                                  EBANK=   NBDX
000161:    5724           03501 24063                     2CADR    NBDONLY
000162:
000163:    5726           15727                           TCF      TASKOVER
000164:


000166:
000167:                                                                                                  #  BEGIN TASK INSERTION.
000168:
000169: 01,3427                                           BANK     01
000170: 01,3427           54062        WAIT2              TS       WAITBANK                              #  BBANK OF CALLING PROGRAM.
000171: 01,3430           40026                           CS       TIME3
000172: 01,3431           67754                           AD       BIT8                                  #  BIT 8 = OCT 200
000173: 01,3432           10000                           CCS      A                                     #  TEST 200 - C(TIME3).  IF POSITIVE,
000174:                                                                                                  #  IT MEANS THAT TIME3 OVERFLOW HAS OCCURRED PRIOR TO CS TIME3 AND THAT
000175:                                                                                                  #  C(TIME3) = T - T1, INSTEAD OF 1.0 - (T1 - T).  THE FOLLOWING FOUR
000176:                                                                                                  #  ORDERS SET C(A) = TD - T1 + 1 IN EITHER CASE.
000177:
000178: 01,3433           66153                           AD       OCT40001                              #  OVERFLOW HAS OCCURRED.  SET C(A) =
000179: 01,3434           40000                           CS       A                                     #  T - T1 + 1.0 - 201
000180:
000181:                                                                                                  #  NORMAL CASE (C(A) NNZ) YIELDS SAME C(A):  -( -(1.0-(T1-T)) + 200) - 1
000182:
000183: 01,3435           63563                           AD       OCT40201
000184: 01,3436           60002                           AD       Q                                     #  RESULT = TD - T1 + 1.
000185:
000186: 01,3437           10000                           CCS      A                                     #  TEST TD - T1 + 1
000187:
000188: 01,3440           61400                           AD       LST1                                  #  IF TD - T1 POS, GO TO WTLST5 WITH
000189: 01,3441           13503                           TCF      WTLST5                                #  C(A) = (TD - T1) + C(LST1) = TD-T2+1
000190:
000191: 01,3442           13443                           NOOP
000192: 01,3443           40002                           CS       Q
000193:
000194:                                                                                                  #  NOTE THAT THIS PROGRAM SECTION IS NEVER ENTERED WHEN T-T1 G/E -1,
000195:                                                                                                  #  SINCE TD-T1+1 = (TD-T) + (T-T1+1), AND DELTA T = TD-T G/E +1.  (G/E
000196:                                                                                                  #  SYMBOL MEANS GREATER THAN OR EQUAL TO).  THUS THERE NEED BE NO CON-
000197:                                                                                                  #  CERN OVER A PREVIOUS OR IMMINENT OVERFLOW OF TIME3 HERE.
000198:
000199: 01,3444           67746                           AD       POS1/2                                #  WHEN TD IS NEXT, FORM QUANTITY
000200: 01,3445           67746                           AD       POS1/2                                #        1.0 - DELTA T = 1.0 - (TD - T)
000201: 01,3446           56026                           XCH      TIME3
000202: 01,3447           67745                           AD       NEGMAX
000203: 01,3450           60002                           AD       Q                                     #  1.0 - DELTAT T NOW COMPLETE.
000204: 01,3451           00006                           EXTEND                                         #  ZERO INDEX Q.
000205: 01,3452           22007                           QXCH     7                                     #  (ZQ)
000206:


000208: 01,3453           57400        WTLST4             XCH      LST1
000209: 01,3454           57401                           XCH      LST1       +1
000210: 01,3455           57402                           XCH      LST1       +2
000211: 01,3456           57403                           XCH      LST1       +3
000212: 01,3457           57404                           XCH      LST1       +4
000213: 01,3460           57405                           XCH      LST1       +5
000214: 01,3461           57406                           XCH      LST1       +6
000215: 01,3462           57407                           XCH      LST1       +7
000216:
000217: 01,3463           30063                           CA       WAITADR                               #  (MINOR PART OF TASK CADR HAS BEEN IN L.)
000218: 01,3464           50002                           INDEX    Q
000219: 01,3465           13466                           TCF      +1
000220:
000221: 01,3466           53411                           DXCH     LST2
000222: 01,3467           53413                           DXCH     LST2       +2
000223: 01,3470           53415                           DXCH     LST2       +4
000224: 01,3471           53417                           DXCH     LST2       +6
000225: 01,3472           53421                           DXCH     LST2       +8D
000226: 01,3473           53423                           DXCH     LST2       +10D                       #  AT END, CHECK THAT C(LST2+10) IS STD
000227: 01,3474           53425                           DXCH     LST2       +12D
000228: 01,3475           53427                           DXCH     LST2       +14D
000229: 01,3476           53431                           DXCH     LST2       +16D
000230: 01,3477           65714                           AD       ENDTASK                               #  END ITEM, AS CHECK FOR EXCEEDING
000231:                                                                                                  #  THE LENGTH OF THE LIST.
000232: 01,3500           00006                           EXTEND                                         #  DUMMY TASK ADRES SHOULD BE IN FIXED-
000233: 01,3501           15674                           BZF      LVWTLIST                              #  FIXED SO ITS ADRES ALONE DISTINGUISHES
000234: 01,3502           13556                           TCF      WTABORT                               #  IT.
000235:


000237:
000238: 01,3503           10000        WTLST5             CCS      A                                     #  TEST TD - T2 + 1
000239: 01,3504           61401                           AD       LST1       +1
000240: 01,3505           13511                           TCF      +4
000241: 01,3506           67763                           AD       ONE
000242: 01,3507           03564                           TC       WTLST2
000243: 01,3510           00001                           OCT      1
000244:
000245: 01,3511           10000                 +4        CCS      A                                     #  TEST TD - T3 + 1
000246: 01,3512           61402                           AD       LST1       +2
000247: 01,3513           13517                           TCF      +4
000248: 01,3514           67763                           AD       ONE
000249: 01,3515           03564                           TC       WTLST2
000250: 01,3516           00002                           OCT      2
000251:
000252: 01,3517           10000                 +4        CCS      A                                     #  TEST TD - T4 + 1
000253: 01,3520           61403                           AD       LST1       +3
000254: 01,3521           13525                           TCF      +4
000255: 01,3522           67763                           AD       ONE
000256: 01,3523           03564                           TC       WTLST2
000257: 01,3524           00003                           OCT      3
000258:
000259: 01,3525           10000                 +4        CCS      A                                     #  TEST TD - T5 + 1
000260: 01,3526           61404                           AD       LST1       +4
000261: 01,3527           13533                           TCF      +4
000262: 01,3530           67763                           AD       ONE
000263: 01,3531           03564                           TC       WTLST2
000264: 01,3532           00004                           OCT      4
000265:
000266: 01,3533           10000                 +4        CCS      A                                     #  TEST TD - T6 + 1
000267: 01,3534           61405                           AD       LST1       +5
000268: 01,3535           13541                           TCF      +4
000269: 01,3536           67763                           AD       ONE
000270: 01,3537           03564                           TC       WTLST2
000271: 01,3540           00005                           OCT      5
000272:
000273: 01,3541           10000                 +4        CCS      A                                     #  TEST TD - T7 + 1
000274: 01,3542           61406                           AD       LST1       +6
000275: 01,3543           13547                           TCF      +4
000276: 01,3544           67763                           AD       ONE
000277: 01,3545           03564                           TC       WTLST2
000278: 01,3546           00006                           OCT      6
000279:


000281:
000282: 01,3547           10000                 +4        CCS      A
000283: 01,3550           61407                           AD       LST1       +7
000284: 01,3551           13555                           TCF      +4
000285: 01,3552           67763                           AD       ONE
000286: 01,3553           03564                           TC       WTLST2
000287: 01,3554           00007                           OCT      7
000288:
000289: 01,3555           10000                 +4        CCS      A
000290: 01,3556           06000        WTABORT            TC       ABORT                                 #  NO ROOM IN THE INN.
000291: 01,3557           01203                           OCT      1203
000292:
000293: 01,3560           67763                           AD       ONE
000294: 01,3561           03564                           TC       WTLST2
000295: 01,3562           00010                           OCT      10
000296:
000297: 01,3563           40201        OCT40201           OCT      40201
000298:


000300:
000301:                                                                                                  #  THE ENTRY TC WTLST2 JUST PRECEDING OCT N IS FOR T  LE TD LE T   -1.
000302:                                                                                                  #                                                   N           N+1
000303:                                                                                                  #  (LE MEANS LESS THAN OR EQUAL TO).  AT ENTRY, C(A) = -(TD - T   + 1)
000304:                                                                                                  #                                                              N+1
000305:                                                                                                  #  THE LST1 ENTRY -(T   -T +1) IS TO BE REPLACED BY -(TD - T  + 1), AND
000306:                                                                                                  #                    N+1  N                                 N
000307:                                                                                                  #  THE ENTRY -(T   - TD + 1) IS TO BE INSERTED IMMEDIATELY FOLLOWING.
000308:                                                                                                  #               N+1
000309:
000310: 01,3564           54064        WTLST2             TS       WAITTEMP                              #  C(A) = -(TD - T + 1)
000311: 01,3565           50002                           INDEX    Q
000312: 01,3566           30000                           CAF      0
000313: 01,3567           54002                           TS       Q                                     #  INDEX VALUE INTO Q.
000314:
000315: 01,3570           37763                           CAF      ONE
000316: 01,3571           60064                           AD       WAITTEMP
000317: 01,3572           50002                           INDEX    Q                                     #  C(A) = -(TD - T ) + 1.
000318: 01,3573           27377                           ADS      LST1       -1                         #                 N
000319:
000320: 01,3574           40064                           CS       WAITTEMP
000321: 01,3575           50002                           INDEX    Q
000322: 01,3576           13453                           TCF      WTLST4
000323:
000324:                                                                                                  #        C(TIME3)        =       1.0 - (T1 - T)
000325:
000326:                                                                                                  #        C(LST1 )         =       - (T2 - T1) + 1
000327:                                                                                                  #        C(LST1+1 )       =       - (T3 - T2) + 1
000328:                                                                                                  #        C(LST1+2 )       =       - (T4 - T3) + 1
000329:                                                                                                  #        C(LST1+3 )       =       - (T5 - T4) + 1
000330:                                                                                                  #        C(LST1+4 )       =       - (T6 - T5) + 1
000331:
000332:                                                                                                  #        C(LST2   )       =       2CADR TASK1
000333:                                                                                                  #        C(LST2+2 )       =       2CADR TASK2
000334:                                                                                                  #        C(LST2+4 )       =       2CADR TASK3
000335:                                                                                                  #        C(LST2+6 )       =       2CADR TASK4
000336:                                                                                                  #        C(LST2+8 )       =       2CADR TASK5
000337:                                                                                                  #        C(LST2+10)       =       2CADR TASK6
000338:


000340:
000341:                                                                                                  #  ENTERS HERE ON T3 RUPT TO DISPATCH WAITLISTED TASK.
000342:
000343: 01,3577           54016        T3RUPT             TS       BANKRUPT
000344: 01,3600           00006                           EXTEND
000345: 01,3601           22012                           QXCH     QRUPT
000346:
000347: 01,3602           37744        T3RUPT2            CAF      NEG1/2                                #  DISPATCH WAITLIST TASK.
000348: 01,3603           57407                           XCH      LST1       +7
000349: 01,3604           57406                           XCH      LST1       +6
000350: 01,3605           57405                           XCH      LST1       +5
000351: 01,3606           57404                           XCH      LST1       +4                         #  1. MOVE UP LST1 CONTENTS, ENTERING
000352: 01,3607           57403                           XCH      LST1       +3                         #     A VALUE OF 1/2 +1 AT THE BOTTOM
000353: 01,3610           57402                           XCH      LST1       +2                         #     FOR T6-T5, CORRESPONDING TO THE
000354: 01,3611           57401                           XCH      LST1       +1                         #     INTERVAL 81.91 SEC FOR ENDTASK.
000355: 01,3612           57400                           XCH      LST1
000356: 01,3613           67743                           AD       POSMAX                                #  2. SET T3 = 1.0 - T2 - T USING LIST 1.
000357: 01,3614           26026                           ADS      TIME3                                 #  SO T3 WONT TICK DURING UPDATE.
000358: 01,3615           55076                           TS       RUPTAGN
000359: 01,3616           47767                           CS       ZERO
000360: 01,3617           55076                           TS       RUPTAGN                               #  SETS RUPTAGN TO +1 ON OVERFLOW.
000361:
000362: 01,3620           00006                           EXTEND                                         #  DISPATCH TASK.
000363: 01,3621           45715                           DCS      ENDTASK
000364: 01,3622           53431                           DXCH     LST2       +16D
000365: 01,3623           53427                           DXCH     LST2       +14D
000366: 01,3624           53425                           DXCH     LST2       +12D
000367: 01,3625           53423                           DXCH     LST2       +10D
000368: 01,3626           53421                           DXCH     LST2       +8D
000369: 01,3627           53417                           DXCH     LST2       +6
000370: 01,3630           53415                           DXCH     LST2       +4
000371: 01,3631           53413                           DXCH     LST2       +2
000372: 01,3632           53411                           DXCH     LST2
000373:
000374: 01,3633           52006                           DTCB
000375:


000377:
000378:                                                                                                  #  RETURN, AFTER EXECUTION OF T3 OVERFLOW TASK:
000379:
000380:    5727                                           BLOCK    02
000381:    5727           11076        TASKOVER           CCS      RUPTAGN                               #  IF +1 RETURN TO T3RUPT, IF -0 RESUME.
000382:    5730           35700                           CAF      WAITBB
000383:    5731           54006                           TS       BBANK
000384:    5732           13602                           TCF      T3RUPT2                               #  DISPATCH NEXT TASK IF IT WAS DUE.
000385:
000386:    5733           00006        RESUME             EXTEND
000387:    5734           22012                           QXCH     QRUPT
000388:    5735           30016        NOQRSM             CA       BANKRUPT
000389:    5736           56006                           XCH      BBANK
000390:    5737           52011        NOQBRSM            DXCH     ARUPT
000391:    5740           50017                           RESUME
000392:


000394:
000395:                                                                                                  #  LONGCALL
000396:
000397:                                                                                                  #  LONGCALL IS CALLED WITH THE DELTA TIME ARRIVING IN A,L SCALED AS TIME2,TIME1 WITH THE 2CADR OF THE TASK
000398:                                                                                                  #  IMMEDIATELY FOLLOWING THE TC LONGCALL.  FOR EXAMPLE, IT MIGHT BE DONE AS FOLLOWS WHERE TIMELOC IS THE NAME OF
000399:                                                                                                  #  A DP REGISTER CONTAINING A DELTA TIME AND WHERE TASKTODO IS THE NAME OF THE LOCATION AT WHICH LONGCALL IS TO
000400:                                                                                                  #  START
000401:
000402:                                                                                                  #                EXTEND
000403:                                                                                                  #                DCA             TIMELOC
000404:                                                                                                  #                TC              LONGCALL
000405:                                                                                                  #                2CADR           TASKTODO
000406:
000407:                                                                                                  #  *** THE FOLLOWING IS TO BE IN FIXED-FIXED AND UNSWITCHED ERRASIBLE ***
000408:
000409:    5741                                           BLOCK    02
000410:    5741  E3,1400                                  EBANK=   LST1
000411:    5741           53154        LONGCALL           DXCH     LONGTIME                              #  OBTAIN THE DELTA TIME
000412:
000413:    5742           00006                           EXTEND                                         #  OBTAIN THE 2CADR
000414:    5743           50002                           NDX      Q
000415:    5744           30001                           DCA      0
000416:    5745           53152                           DXCH     LONGCADR
000417:
000418:    5746           00006                           EXTEND                                         #  NOW GO TO THE APPROPRIATE SWITCHED BANK
000419:    5747           35752                           DCA      LGCL2CDR                              #  FOR THE REST OF LONGCALL
000420:    5750           52006                           DTCB
000421:
000422:    5751  E3,1400                                  EBANK=   LST1
000423:    5751           03634 02063  LGCL2CDR           2CADR    LNGCALL2
000424:
000425:                                                                                                  #  *** THE FOLLOWING MAY BE IN A SWITCHED BANK, INCLUDING ITS ERASABLE ***
000426:
000427: 01,3634                                           BANK     01
000428: 01,3634           23435        LNGCALL2           LXCH     LONGEXIT   +1                         #  SAVE THE CORRECT BB FOR RETURN
000429: 01,3635           37762                           CA       TWO                                   #  OBTAIN THE RETURN ADDRESS
000430: 01,3636           26002                           ADS      Q
000431: 01,3637           55434                           TS       LONGEXIT
000432:
000433:                                                                                                  #  *** WAITLIST TASK LONGCYCL ***
000434:
000435: 01,3640           00006        LONGCYCL           EXTEND                                         #  CAN WE SUCCESFULLY TAKE ABOUT 1.25
000436: 01,3641           43652                           DCS      DPBIT14                               #  MINUTES OFF OF LONGTIME
000437: 01,3642           21154                           DAS      LONGTIME
000438:
000439: 01,3643           11154                           CCS      LONGTIME   +1                         #  THE REASONIBG BEHIND THIS PART IS
000440: 01,3644           13663                           TCF      MUCHTIME                              #  INVOLVED, TAKING INTO ACCOUNT THAT THE
000441:                                                                                                  #  WORDS MAY NOT BE SIGNED CORRECTED (DP
000442:                                                                                                  #  BASIC INSTRUCTIONS
000443:                                                                                                  #  DO NOT SIGN CORRECT) AND THAT WE SUBTRAC-
000444:                                                                                                  #  TED BIT14 (1 OVER HALF THE POS. VALUE
000445:                                                                                                  #  REPRESENTABLE IN SINGLE WORD)
000446:


000448:
000449: 01,3645           13646                           NOOP                                           #  CAN'T GET HERE **********
000450: 01,3646           13647                           TCF      +1
000451: 01,3647           11153                           CCS      LONGTIME
000452: 01,3650           13663                           TCF      MUCHTIME
000453: 01,3651           00000        DPBIT14            OCT      00000
000454: 01,3652           20000                           OCT      20000
000455:
000456:                                                                                                  #  LONGCALL
000457:
000458: 01,3653           37746        LASTTIME           CA       BIT14                                 #  GET BACK THE CORRECT DELTA T FOR WAITLIST
000459: 01,3654           27154                           ADS      LONGTIME   +1
000460: 01,3655           05663                           TC       WAITLIST
000461: 01,3656  E3,1400                                  EBANK=   LST1
000462: 01,3656           03670 02063                     2CADR    GETCADR                               #  THE ENTRY TO OUR LONGCADR
000463:
000464: 01,3660           33672        LONGRTRN           CA       TSKOVCDR                              #  SET IT UP SO THAT ONLY THE FIRST EXIT IS
000465: 01,3661           53435                           DXCH     LONGEXIT                              #  TO THE CALLER OF LONGCALL
000466: 01,3662           52006                           DTCB                                           #  THE REST ARE TO TASKOVER
000467:
000468: 01,3663           37746        MUCHTIME           CA       BIT14                                 #  WE HAVE OVER OUR ABOUT 1.25 MINUTES
000469: 01,3664           05663                           TC       WAITLIST                              #  SO SET UP FOR ANOTHER CYCLE THROUGH HERE
000470: 01,3665  E3,1400                                  EBANK=   LST1
000471: 01,3665           03640 02063                     2CADR    LONGCYCL
000472:
000473: 01,3667           13660                           TCF      LONGRTRN                              #  NOW EXIT PROPERLY
000474:
000475:                                                                                                  #  *** WAITLIST TASK GETCADR ***
000476:
000477: 01,3670           53152        GETCADR            DXCH     LONGCADR                              #  GET THE LONGCALL THAT WE WISHED TO START
000478: 01,3671           52006                           DTCB                                           #  AND TRANSFER CONTROL TO IT
000479:
000480: 01,3672           05727        TSKOVCDR           GENADR   TASKOVER

End of include-file WAITLIST.agc.  Parent file is MAIN.agc


