
Source Code


000002:                                                                                                  ## Copyright:    Public domain.
000003:                                                                                                  ## Filename:     WAITLIST.agc
000004:                                                                                                  ## Purpose:      A module for revision 0 of BURST120 (Sunburst). It
000005:                                                                                                  ##               is part of the source code for the Lunar Module's
000006:                                                                                                  ##               (LM) Apollo Guidance Computer (AGC) for Apollo 5.
000007:                                                                                                  ## Assembler:    yaYUL
000008:                                                                                                  ## Contact:      Ron Burkey <info@sandroid.org>.
000009:                                                                                                  ## Website:      www.ibiblio.org/apollo/index.html
000010:                                                                                                  ## Pages:        1062-1074
000011:                                                                                                  ## Mod history:  2016-09-30 RSB  Created draft version.
000012:                                                                                                  ##               2016-10-10 PDJ  Updated based on Sunburst120 scans.
000013:                                                                                                  ##               2016-12-06 RSB  Comments proofed using octopus/ProoferComments,
000014:                                                                                                  ##                               changes made.
000015:                                                                                                  ##              2017-01-28 RSB  WTIH -> WITH.
000016:


000018:
000019:                                                                                                  #  PROGRAM DESCRIPTION                                                           DATE - 10 OCTOBER 1966
000020:                                                                                                  #  MOD NO - 2                                                                    LOG SECTION - WAITLIST
000021:                                                                                                  #  MOD BY - MILLER      (DTMAX INCREASED TO 162.5 SEC)                           ASSEMBLY SUNBURST REV 5
000022:
000023:                                                                                                  #  FUNCTIONAL DESCRIPTION-
000024:                                                                                                  #             PART OF A SECTION OF PROGRAMS,-WAITLIST, TASKOVER, T3RUPT, USED TO CALL A PROGRAM, (CALLED A TASK),
000025:                                                                                                  #        WHICH IS TO BEGIN IN C(A) CENTISECONDS.  WAITLIST UPDATES TIME3, LST1 AND LST2.  THE MEANING OF THESE LISTS
000026:                                                                                                  #        FOLLOW.
000027:
000028:                                                                                                  #                C(TIME3) = 16384 -(T1-T) CENTISECONDS, (T=PRESENT TIME, T1-TIME FOR TASK1)
000029:
000030:                                                                                                  #                        C(LST1)         =       -(T2-T1)+1
000031:                                                                                                  #                        C(LST1 +1)      =       -(T3-T2)+1
000032:                                                                                                  #                        C(LST1 +2)      =       -(T4-T3)+1
000033:                                                                                                  #                                        .
000034:                                                                                                  #                                        .
000035:                                                                                                  #                        C(LST1 +6)      =       -(T8-T7)+1
000036:                                                                                                  #                        C(LST1 +7)      =       -(T9-T8)+1
000037:
000038:                                                                                                  #                        C(LST2)         =       2CADR OF TASK1
000039:                                                                                                  #                        C(LST2 +2)      =       2CADR OF TASK2
000040:                                                                                                  #                                        .
000041:                                                                                                  #                                        .
000042:                                                                                                  #                        C(LST2 +14)     =       2CADR OF TASK8
000043:                                                                                                  #                        C(LST2 +16)     =       2CADR OF TASK9
000044:
000045:                                                                                                  #  WARNINGS-
000046:                                                                                                  #  --------
000047:                                                                                                  #        1)      1 <= C(A) <= 16250D (1 CENTISECOND TO 162.5 SEC)
000048:                                                                                                  #        2)      9 TASKS MAXIMUM
000049:                                                                                                  #        3)      TASKS CALLED UNDER INTERRUPT INHIBITED
000050:                                                                                                  #        4)      TASKS END BY TC TASKOVER
000051:
000052:                                                                                                  #  CALLING SEQUENCE-
000053:                                                                                                  #        L-2     CAF     DELTAT  (TIME IN CENTISECONDS TO TASK START)
000054:                                                                                                  #        L-1     INHINT
000055:                                                                                                  #        L       TC      WAITLIST
000056:                                                                                                  #        L+1     2CADR   DESIRED TASK
000057:                                                                                                  #        L+2     (MINOR OF 2CADR)
000058:                                                                                                  #        L+3     RELINT          (RETURNS HERE)
000059:
000060:                                                                                                  #  NORMAL EXIT MODES-
000061:
000062:                                                                                                  #        AT L+3 OF CALLING SEQUENCE
000063:
000064:                                                                                                  #  ALARM OR ABORT EXIT MODES-
000065:


000067:
000068:                                                                                                  #        TC      ABORT
000069:                                                                                                  #        OCT     1203    (WAITLIST OVERFLOW - TOO MANY TASKS)
000070:
000071:                                                                                                  #  ERASABLE INITIALIZATION REQUIRED-
000072:
000073:                                                                                                  #        ACCOMPLISHED BY FRESH START,--LST2,..., LST2 +16 =ENDTASK
000074:                                                                                                  #                                      LST1,..., LST1 +7  =NEG1/2
000075:
000076:                                                                                                  #  OUTPUT--
000077:
000078:                                                                                                  #        LST1 AND LST2 UPDATED WITH NEW TASK AND ASSOCIATED TIME.
000079:
000080:                                                                                                  #  DEBRIS-
000081:
000082:                                                                                                  #        CENTRALS- A,Q,L
000083:                                                                                                  #        OTHER   - WAITEXIT, WAITADR, WAITTEMP, WAITBANK
000084:                                                                                                  #  DETAILED ANALYSIS OF TIMING-
000085:
000086:                                                                                                  #             CONTROL WILL NOT BE RETURNED TO THE SPECIFIED ADDRESS (2CADR) IN EXACTLY DELTA T CENTISECONDS.
000087:                                                                                                  #        THE APPROXIMATE TIME MAY BE CALCULATED AS FOLLOWS
000088:
000089:                                                                                                  #                LET T0 = THE TIME OF THE TC WAITLIST
000090:                                                                                                  #                LET TS = T0 +147U + COUNTER INCREMENTS (SET UP TIME)
000091:                                                                                                  #                LET X  = TS -(100TS)/100  (VARIANCE FROM COUNTERS)
000092:                                                                                                  #                LET Y  = LENGTH OF TIME OF INHIBIT INTERRUPT AFTER T3RUPT
000093:                                                                                                  #                LET Z  = LENGTH OF TIME TO PROCESS TASKS WHICH ARE DUE THIS T3RUPT BUT DISPATCHED EARLIER.
000094:                                                                                                  #        (Z=0, USUALLY)
000095:                                                                                                  #                LET DELTD  = THE ACTUAL TIME TAKEN TO GIVE CONTROL TO 2CADR
000096:                                                                                                  #             THEN DELTD = TS+DELTA T -X +Y +Z +1.05MS* +COUNTERS*
000097:
000098:                                                                                                  #        *-THE TIME TAKEN BY WAITLIST ITSELF AND THE COUNTER TICKING DURING THIS WAITLIST TIME.
000099:
000100:                                                                                                  #             IN SHORT, THE ACTUAL TIME TO RETURN CONTROL TO A 2CADR IS AUGMENTED BY THE TIME TO SET UP THE TASK'S
000101:                                                                                                  #        INTERRUPT, ALL COUNTERS TICKING, THE T3RUPT PROCESSING TIME, THE WAITLIST PROCESSING TIME AND THE POSSIBILITY
000102:                                                                                                  #        OF OTHER TASKS INHIBITING THE INTERRUPT.
000103:
000104:    5663                                           BLOCK    02
000105:    5663  E3,1400                                  EBANK=   LST1                                  #  TASK LISTS IN SWITCHED E BANK.
000106:
000107:    5663           56002        WAITLIST           XCH      Q                                     #   SAVE DELTA T IN Q AND RETURN IN
000108:    5664           54061                           TS       WAITEXIT                              #  WAITEXIT.
000109:    5665           00006                           EXTEND
000110:    5666           50000                           INDEX    A
000111:    5667           30001                           DCA      0                                     #  PICK UP 2CADR OF TASK.
000112:    5670           54063                           TS       WAITADR                               #  BBCON WILL REMAIN IN L.
000113:    5671           35700        DLY2               CAF      WAITBB                                #  ENTRY FROM FIXDELAY AND VARDELAY.
000114:    5672           56006                           XCH      BBANK
000115:    5673           13427                           TCF      WAIT2
000116:
000117:                                                                                                  #  RETURN TO CALLER AFTER TASK INSERTION:
000118:


000120:
000121:    5674           30062        LVWTLIST           CA       WAITBANK
000122:    5675           54006                           TS       BBANK
000123:    5676           50061                           INDEX    WAITEXIT
000124:    5677           00002                           TC       2
000125:
000126:    5700  E3,1400                                  EBANK=   LST1
000127:    5700           02063        WAITBB             BBCON    WAIT2
000128:
000129:                                                                                                  #  RETURN TO CALLER +2 AFTER WAITING DT SPECIFIED AT CALLER +1.
000130:
000131:    5701           50002        FIXDELAY           INDEX    Q                                     #  BOTH ROUTINES MUST BE CALLED UNDER
000132:    5702           30000                           CAF      0                                     #  WAITLIST CONTROL AND TERMINATE THE TASK
000133:    5703           24002                           INCR     Q                                     #  IN WHICH THEY WERE CALLED.
000134:
000135:                                                                                                  #  RETURN TO CALLER +1 AFTER WAITING THE DT AS ARRIVING IN A.
000136:
000137:    5704           56002        VARDELAY           XCH      Q                                     #  DT TO Q.  TASK ADRES TO WAITADR.
000138:    5705           54063                           TS       WAITADR
000139:    5706           30006                           CA       BBANK                                 #  BBANK IS SAVED DURING DELAY.
000140:    5707           54001                           TS       L
000141:    5710           35713                           CAF      DELAYEX
000142:    5711           54061                           TS       WAITEXIT                              #  GO TO TASKOVER AFTER TASK ENTRY.
000143:    5712           15671                           TCF      DLY2
000144:
000145:    5713           15725        DELAYEX            TCF      TASKOVER   -2                         #  RETURNS TO TASKOVER
000146:


000148:
000149:                                                                                                  #  ENDTASK MUST BE ENTERED IN FIXED-FIXED SO IT IS DISTINGUISHABLE BY ITS ADRES ALONE.
000150:
000151:    5714  E3,1400                                  EBANK=   LST1
000152:    5714           72061 73714  ENDTASK            -2CADR   SVCT3
000153:
000154:    5716           10076        SVCT3              CCS      FLAGWRD2                              #  DRIFT FLAG
000155:    5717           15727                           TCF      TASKOVER
000156:    5720           15727                           TCF      TASKOVER
000157:    5721           15722                           TCF      +1
000158:
000159:    5722           35656                           CAF      PRIO35                                #  COMPENSATE FOR NBD COEFFICIENTS ONLY
000160:    5723           05505                           TC       NOVAC                                 #      ENABLE EVERY 81.93 SECONDS
000161:    5724  E3,1444                                  EBANK=   NBDX
000162:    5724           03501 24063                     2CADR    NBDONLY
000163:
000164:    5726           15727                           TCF      TASKOVER
000165:


000167:
000168:                                                                                                  #  BEGIN TASK INSERTION.
000169:
000170: 01,3427                                           BANK     01
000171: 01,3427           54062        WAIT2              TS       WAITBANK                              #  BBANK OF CALLING PROGRAM.
000172: 01,3430           40026                           CS       TIME3
000173: 01,3431           67754                           AD       BIT8                                  #  BIT 8 = OCT 200
000174: 01,3432           10000                           CCS      A                                     #  TEST 200 - C(TIME3).  IF POSITIVE,
000175:                                                                                                  #  IT MEANS THAT TIME3 OVERFLOW HAS OCCURRED PRIOR TO CS TIME3 AND THAT
000176:                                                                                                  #  C(TIME3) = T - T1, INSTEAD OF 1.0 - (T1 - T).  THE FOLLOWING FOUR
000177:                                                                                                  #  ORDERS SET C(A) = TD - T1 + 1 IN EITHER CASE.
000178:
000179: 01,3433           66153                           AD       OCT40001                              #  OVERFLOW HAS OCCURRED.  SET C(A) =
000180: 01,3434           40000                           CS       A                                     #  T - T1 + 1.0 - 201
000181:
000182:                                                                                                  #  NORMAL CASE (C(A) NNZ) YIELDS SAME C(A):  -( -(1.0-(T1-T)) + 200) - 1
000183:
000184: 01,3435           63563                           AD       OCT40201
000185: 01,3436           60002                           AD       Q                                     #  RESULT = TD - T1 + 1.
000186:
000187: 01,3437           10000                           CCS      A                                     #  TEST TD - T1 + 1
000188:
000189: 01,3440           61400                           AD       LST1                                  #  IF TD - T1 POS, GO TO WTLST5 WITH
000190: 01,3441           13503                           TCF      WTLST5                                #  C(A) = (TD - T1) + C(LST1) = TD-T2+1
000191:
000192: 01,3442           13443                           NOOP
000193: 01,3443           40002                           CS       Q
000194:
000195:                                                                                                  #  NOTE THAT THIS PROGRAM SECTION IS NEVER ENTERED WHEN T-T1 G/E -1,
000196:                                                                                                  #  SINCE TD-T1+1 = (TD-T) + (T-T1+1), AND DELTA T = TD-T G/E +1.  (G/E
000197:                                                                                                  #  SYMBOL MEANS GREATER THAN OR EQUAL TO).  THUS THERE NEED BE NO CON-
000198:                                                                                                  #  CERN OVER A PREVIOUS OR IMMINENT OVERFLOW OF TIME3 HERE.
000199:
000200: 01,3444           67746                           AD       POS1/2                                #  WHEN TD IS NEXT, FORM QUANTITY
000201: 01,3445           67746                           AD       POS1/2                                #        1.0 - DELTA T = 1.0 - (TD - T)
000202: 01,3446           56026                           XCH      TIME3
000203: 01,3447           67745                           AD       NEGMAX
000204: 01,3450           60002                           AD       Q                                     #  1.0 - DELTAT T NOW COMPLETE.
000205: 01,3451           00006                           EXTEND                                         #  ZERO INDEX Q.
000206: 01,3452           22007                           QXCH     7                                     #  (ZQ)
000207:


000209: 01,3453           57400        WTLST4             XCH      LST1
000210: 01,3454           57401                           XCH      LST1       +1
000211: 01,3455           57402                           XCH      LST1       +2
000212: 01,3456           57403                           XCH      LST1       +3
000213: 01,3457           57404                           XCH      LST1       +4
000214: 01,3460           57405                           XCH      LST1       +5
000215: 01,3461           57406                           XCH      LST1       +6
000216: 01,3462           57407                           XCH      LST1       +7
000217:
000218: 01,3463           30063                           CA       WAITADR                               #  (MINOR PART OF TASK CADR HAS BEEN IN L.)
000219: 01,3464           50002                           INDEX    Q
000220: 01,3465           13466                           TCF      +1
000221:
000222: 01,3466           53411                           DXCH     LST2
000223: 01,3467           53413                           DXCH     LST2       +2
000224: 01,3470           53415                           DXCH     LST2       +4
000225: 01,3471           53417                           DXCH     LST2       +6
000226: 01,3472           53421                           DXCH     LST2       +8D
000227: 01,3473           53423                           DXCH     LST2       +10D                       #  AT END, CHECK THAT C(LST2+10) IS STD
000228: 01,3474           53425                           DXCH     LST2       +12D
000229: 01,3475           53427                           DXCH     LST2       +14D
000230: 01,3476           53431                           DXCH     LST2       +16D
000231: 01,3477           65714                           AD       ENDTASK                               #  END ITEM, AS CHECK FOR EXCEEDING
000232:                                                                                                  #  THE LENGTH OF THE LIST.
000233: 01,3500           00006                           EXTEND                                         #  DUMMY TASK ADRES SHOULD BE IN FIXED-
000234: 01,3501           15674                           BZF      LVWTLIST                              #  FIXED SO ITS ADRES ALONE DISTINGUISHES
000235: 01,3502           13556                           TCF      WTABORT                               #  IT.
000236:


000238:
000239: 01,3503           10000        WTLST5             CCS      A                                     #  TEST TD - T2 + 1
000240: 01,3504           61401                           AD       LST1       +1
000241: 01,3505           13511                           TCF      +4
000242: 01,3506           67763                           AD       ONE
000243: 01,3507           03564                           TC       WTLST2
000244: 01,3510           00001                           OCT      1
000245:
000246: 01,3511           10000                 +4        CCS      A                                     #  TEST TD - T3 + 1
000247: 01,3512           61402                           AD       LST1       +2
000248: 01,3513           13517                           TCF      +4
000249: 01,3514           67763                           AD       ONE
000250: 01,3515           03564                           TC       WTLST2
000251: 01,3516           00002                           OCT      2
000252:
000253: 01,3517           10000                 +4        CCS      A                                     #  TEST TD - T4 + 1
000254: 01,3520           61403                           AD       LST1       +3
000255: 01,3521           13525                           TCF      +4
000256: 01,3522           67763                           AD       ONE
000257: 01,3523           03564                           TC       WTLST2
000258: 01,3524           00003                           OCT      3
000259:
000260: 01,3525           10000                 +4        CCS      A                                     #  TEST TD - T5 + 1
000261: 01,3526           61404                           AD       LST1       +4
000262: 01,3527           13533                           TCF      +4
000263: 01,3530           67763                           AD       ONE
000264: 01,3531           03564                           TC       WTLST2
000265: 01,3532           00004                           OCT      4
000266:
000267: 01,3533           10000                 +4        CCS      A                                     #  TEST TD - T6 + 1
000268: 01,3534           61405                           AD       LST1       +5
000269: 01,3535           13541                           TCF      +4
000270: 01,3536           67763                           AD       ONE
000271: 01,3537           03564                           TC       WTLST2
000272: 01,3540           00005                           OCT      5
000273:
000274: 01,3541           10000                 +4        CCS      A                                     #  TEST TD - T7 + 1
000275: 01,3542           61406                           AD       LST1       +6
000276: 01,3543           13547                           TCF      +4
000277: 01,3544           67763                           AD       ONE
000278: 01,3545           03564                           TC       WTLST2
000279: 01,3546           00006                           OCT      6
000280:


000282:
000283: 01,3547           10000                 +4        CCS      A
000284: 01,3550           61407                           AD       LST1       +7
000285: 01,3551           13555                           TCF      +4
000286: 01,3552           67763                           AD       ONE
000287: 01,3553           03564                           TC       WTLST2
000288: 01,3554           00007                           OCT      7
000289:
000290: 01,3555           10000                 +4        CCS      A
000291: 01,3556           06000        WTABORT            TC       ABORT                                 #  NO ROOM IN THE INN.
000292: 01,3557           01203                           OCT      1203
000293:
000294: 01,3560           67763                           AD       ONE
000295: 01,3561           03564                           TC       WTLST2
000296: 01,3562           00010                           OCT      10
000297:
000298: 01,3563           40201        OCT40201           OCT      40201
000299:


000301:
000302:                                                                                                  #  THE ENTRY TC WTLST2 JUST PRECEDING OCT N IS FOR T  LE TD LE T   -1.
000303:                                                                                                  #                                                   N           N+1
000304:                                                                                                  #  (LE MEANS LESS THAN OR EQUAL TO).  AT ENTRY, C(A) = -(TD - T   + 1)
000305:                                                                                                  #                                                              N+1
000306:                                                                                                  #  THE LST1 ENTRY -(T   -T +1) IS TO BE REPLACED BY -(TD - T  + 1), AND
000307:                                                                                                  #                    N+1  N                                 N
000308:                                                                                                  #  THE ENTRY -(T   - TD + 1) IS TO BE INSERTED IMMEDIATELY FOLLOWING.
000309:                                                                                                  #               N+1
000310:
000311: 01,3564           54064        WTLST2             TS       WAITTEMP                              #  C(A) = -(TD - T + 1)
000312: 01,3565           50002                           INDEX    Q
000313: 01,3566           30000                           CAF      0
000314: 01,3567           54002                           TS       Q                                     #  INDEX VALUE INTO Q.
000315:
000316: 01,3570           37763                           CAF      ONE
000317: 01,3571           60064                           AD       WAITTEMP
000318: 01,3572           50002                           INDEX    Q                                     #  C(A) = -(TD - T ) + 1.
000319: 01,3573           27377                           ADS      LST1       -1                         #                 N
000320:
000321: 01,3574           40064                           CS       WAITTEMP
000322: 01,3575           50002                           INDEX    Q
000323: 01,3576           13453                           TCF      WTLST4
000324:
000325:                                                                                                  #        C(TIME3)        =       1.0 - (T1 - T)
000326:
000327:                                                                                                  #        C(LST1 )         =       - (T2 - T1) + 1
000328:                                                                                                  #        C(LST1+1 )       =       - (T3 - T2) + 1
000329:                                                                                                  #        C(LST1+2 )       =       - (T4 - T3) + 1
000330:                                                                                                  #        C(LST1+3 )       =       - (T5 - T4) + 1
000331:                                                                                                  #        C(LST1+4 )       =       - (T6 - T5) + 1
000332:
000333:                                                                                                  #        C(LST2   )       =       2CADR TASK1
000334:                                                                                                  #        C(LST2+2 )       =       2CADR TASK2
000335:                                                                                                  #        C(LST2+4 )       =       2CADR TASK3
000336:                                                                                                  #        C(LST2+6 )       =       2CADR TASK4
000337:                                                                                                  #        C(LST2+8 )       =       2CADR TASK5
000338:                                                                                                  #        C(LST2+10)       =       2CADR TASK6
000339:


000341:
000342:                                                                                                  #  ENTERS HERE ON T3 RUPT TO DISPATCH WAITLISTED TASK.
000343:
000344: 01,3577           54016        T3RUPT             TS       BANKRUPT
000345: 01,3600           00006                           EXTEND
000346: 01,3601           22012                           QXCH     QRUPT
000347:
000348: 01,3602           37744        T3RUPT2            CAF      NEG1/2                                #  DISPATCH WAITLIST TASK.
000349: 01,3603           57407                           XCH      LST1       +7
000350: 01,3604           57406                           XCH      LST1       +6
000351: 01,3605           57405                           XCH      LST1       +5
000352: 01,3606           57404                           XCH      LST1       +4                         #  1. MOVE UP LST1 CONTENTS, ENTERING
000353: 01,3607           57403                           XCH      LST1       +3                         #     A VALUE OF 1/2 +1 AT THE BOTTOM
000354: 01,3610           57402                           XCH      LST1       +2                         #     FOR T6-T5, CORRESPONDING TO THE
000355: 01,3611           57401                           XCH      LST1       +1                         #     INTERVAL 81.91 SEC FOR ENDTASK.
000356: 01,3612           57400                           XCH      LST1
000357: 01,3613           67743                           AD       POSMAX                                #  2. SET T3 = 1.0 - T2 - T USING LIST 1.
000358: 01,3614           26026                           ADS      TIME3                                 #  SO T3 WONT TICK DURING UPDATE.
000359: 01,3615           55076                           TS       RUPTAGN
000360: 01,3616           47767                           CS       ZERO
000361: 01,3617           55076                           TS       RUPTAGN                               #  SETS RUPTAGN TO +1 ON OVERFLOW.
000362:
000363: 01,3620           00006                           EXTEND                                         #  DISPATCH TASK.
000364: 01,3621           45715                           DCS      ENDTASK
000365: 01,3622           53431                           DXCH     LST2       +16D
000366: 01,3623           53427                           DXCH     LST2       +14D
000367: 01,3624           53425                           DXCH     LST2       +12D
000368: 01,3625           53423                           DXCH     LST2       +10D
000369: 01,3626           53421                           DXCH     LST2       +8D
000370: 01,3627           53417                           DXCH     LST2       +6
000371: 01,3630           53415                           DXCH     LST2       +4
000372: 01,3631           53413                           DXCH     LST2       +2
000373: 01,3632           53411                           DXCH     LST2
000374:
000375: 01,3633           52006                           DTCB
000376:


000378:
000379:                                                                                                  #  RETURN, AFTER EXECUTION OF T3 OVERFLOW TASK:
000380:
000381:    5727                                           BLOCK    02
000382:    5727           11076        TASKOVER           CCS      RUPTAGN                               #  IF +1 RETURN TO T3RUPT, IF -0 RESUME.
000383:    5730           35700                           CAF      WAITBB
000384:    5731           54006                           TS       BBANK
000385:    5732           13602                           TCF      T3RUPT2                               #  DISPATCH NEXT TASK IF IT WAS DUE.
000386:
000387:    5733           00006        RESUME             EXTEND
000388:    5734           22012                           QXCH     QRUPT
000389:    5735           30016        NOQRSM             CA       BANKRUPT
000390:    5736           56006                           XCH      BBANK
000391:    5737           52011        NOQBRSM            DXCH     ARUPT
000392:    5740           50017                           RESUME
000393:


000395:
000396:                                                                                                  #  LONGCALL
000397:
000398:                                                                                                  #  LONGCALL IS CALLED WITH THE DELTA TIME ARRIVING IN A,L SCALED AS TIME2,TIME1 WITH THE 2CADR OF THE TASK
000399:                                                                                                  #  IMMEDIATELY FOLLOWING THE TC LONGCALL.  FOR EXAMPLE, IT MIGHT BE DONE AS FOLLOWS WHERE TIMELOC IS THE NAME OF
000400:                                                                                                  #  A DP REGISTER CONTAINING A DELTA TIME AND WHERE TASKTODO IS THE NAME OF THE LOCATION AT WHICH LONGCALL IS TO
000401:                                                                                                  #  START
000402:
000403:                                                                                                  #                EXTEND
000404:                                                                                                  #                DCA             TIMELOC
000405:                                                                                                  #                TC              LONGCALL
000406:                                                                                                  #                2CADR           TASKTODO
000407:
000408:                                                                                                  #  *** THE FOLLOWING IS TO BE IN FIXED-FIXED AND UNSWITCHED ERRASIBLE ***
000409:
000410:    5741                                           BLOCK    02
000411:    5741  E3,1400                                  EBANK=   LST1
000412:    5741           53154        LONGCALL           DXCH     LONGTIME                              #  OBTAIN THE DELTA TIME
000413:
000414:    5742           00006                           EXTEND                                         #  OBTAIN THE 2CADR
000415:    5743           50002                           NDX      Q
000416:    5744           30001                           DCA      0
000417:    5745           53152                           DXCH     LONGCADR
000418:
000419:    5746           00006                           EXTEND                                         #  NOW GO TO THE APPROPRIATE SWITCHED BANK
000420:    5747           35752                           DCA      LGCL2CDR                              #  FOR THE REST OF LONGCALL
000421:    5750           52006                           DTCB
000422:
000423:    5751  E3,1400                                  EBANK=   LST1
000424:    5751           03634 02063  LGCL2CDR           2CADR    LNGCALL2
000425:
000426:                                                                                                  #  *** THE FOLLOWING MAY BE IN A SWITCHED BANK, INCLUDING ITS ERASABLE ***
000427:
000428: 01,3634                                           BANK     01
000429: 01,3634           23435        LNGCALL2           LXCH     LONGEXIT   +1                         #  SAVE THE CORRECT BB FOR RETURN
000430: 01,3635           37762                           CA       TWO                                   #  OBTAIN THE RETURN ADDRESS
000431: 01,3636           26002                           ADS      Q
000432: 01,3637           55434                           TS       LONGEXIT
000433:
000434:                                                                                                  #  *** WAITLIST TASK LONGCYCL ***
000435:
000436: 01,3640           00006        LONGCYCL           EXTEND                                         #  CAN WE SUCCESFULLY TAKE ABOUT 1.25
000437: 01,3641           43652                           DCS      DPBIT14                               #  MINUTES OFF OF LONGTIME
000438: 01,3642           21154                           DAS      LONGTIME
000439:
000440: 01,3643           11154                           CCS      LONGTIME   +1                         #  THE REASONIBG BEHIND THIS PART IS
000441: 01,3644           13663                           TCF      MUCHTIME                              #  INVOLVED, TAKING INTO ACCOUNT THAT THE
000442:                                                                                                  #  WORDS MAY NOT BE SIGNED CORRECTED (DP
000443:                                                                                                  #  BASIC INSTRUCTIONS
000444:                                                                                                  #  DO NOT SIGN CORRECT) AND THAT WE SUBTRAC-
000445:                                                                                                  #  TED BIT14 (1 OVER HALF THE POS. VALUE
000446:                                                                                                  #  REPRESENTABLE IN SINGLE WORD)
000447:


000449:
000450: 01,3645           13646                           NOOP                                           #  CAN'T GET HERE **********
000451: 01,3646           13647                           TCF      +1
000452: 01,3647           11153                           CCS      LONGTIME
000453: 01,3650           13663                           TCF      MUCHTIME
000454: 01,3651           00000        DPBIT14            OCT      00000
000455: 01,3652           20000                           OCT      20000
000456:
000457:                                                                                                  #  LONGCALL
000458:
000459: 01,3653           37746        LASTTIME           CA       BIT14                                 #  GET BACK THE CORRECT DELTA T FOR WAITLIST
000460: 01,3654           27154                           ADS      LONGTIME   +1
000461: 01,3655           05663                           TC       WAITLIST
000462: 01,3656  E3,1400                                  EBANK=   LST1
000463: 01,3656           03670 02063                     2CADR    GETCADR                               #  THE ENTRY TO OUR LONGCADR
000464:
000465: 01,3660           33672        LONGRTRN           CA       TSKOVCDR                              #  SET IT UP SO THAT ONLY THE FIRST EXIT IS
000466: 01,3661           53435                           DXCH     LONGEXIT                              #  TO THE CALLER OF LONGCALL
000467: 01,3662           52006                           DTCB                                           #  THE REST ARE TO TASKOVER
000468:
000469: 01,3663           37746        MUCHTIME           CA       BIT14                                 #  WE HAVE OVER OUR ABOUT 1.25 MINUTES
000470: 01,3664           05663                           TC       WAITLIST                              #  SO SET UP FOR ANOTHER CYCLE THROUGH HERE
000471: 01,3665  E3,1400                                  EBANK=   LST1
000472: 01,3665           03640 02063                     2CADR    LONGCYCL
000473:
000474: 01,3667           13660                           TCF      LONGRTRN                              #  NOW EXIT PROPERLY
000475:
000476:                                                                                                  #  *** WAITLIST TASK GETCADR ***
000477:
000478: 01,3670           53152        GETCADR            DXCH     LONGCADR                              #  GET THE LONGCALL THAT WE WISHED TO START
000479: 01,3671           52006                           DTCB                                           #  AND TRANSFER CONTROL TO IT
000480:
000481: 01,3672           05727        TSKOVCDR           GENADR   TASKOVER

End of include-file WAITLIST.agc.  Parent file is MAIN.agc


