
Source Code


000002:                                                                                                  ## Copyright:   Public domain.
000003:                                                                                                  ## Filename:    AGC_BLOCK_TWO_SELF_CHECK.agc
000004:                                                                                                  ## Purpose:     Part of the source code for Artemis (i.e., Colossus 3),
000005:                                                                                                  ##              build 072.  This is for the Command Module's (CM)
000006:                                                                                                  ##              Apollo Guidance Computer (AGC), for
000007:                                                                                                  ##              Apollo 15-17.
000008:                                                                                                  ## Assembler:   yaYUL
000009:                                                                                                  ## Contact:     Jim Lawton <jim DOT lawton AT gmail DOT com>
000010:                                                                                                  ## Website:     www.ibiblio.org/apollo/index.html
000011:                                                                                                  ## Page Scans:  www.ibiblio.org/apollo/ScansForConversion/Artemis072/
000012:                                                                                                  ## Mod history: 2009-08-18 JL   Adapted from corresponding Comanche 055 file.
000013:                                                                                                  ##              2010-02-20 RSB  Un-##'d this header.
000014:                                                                                                  ##              2017-01-21 RSB  Proofed comment text by diff'ing vs Comanche 55
000015:                                                                                                  ##                              and corrected errors found.
000016:


000018:
000019:                                                                                                  #  PROGRAM DESCRIPTION                           DATE  20 DECEMBER 1967
000020:                                                                                                  #  PROGRAM NAME -  SELF-CHECK                    LOG SECTION AGC BLOCK TWO SELF-CHECK
000021:                                                                                                  #  MOD NO - 1                                    ASSEMBLY SUBROUTINE UTILITYM REV 25
000022:                                                                                                  #  MOD BY - GAUNTT
000023:
000024:                                                                                                  #  FUNCTIONAL DESCRIPTION
000025:
000026:                                                                                                  #  PROGRAM HAS TWO MAIN PARTS. THE FIRST IS SELF-CHECK WHICH RUNS AS A ZERO PRIORITY JOB WITH NO CORE SET, AS
000027:                                                                                                  #  PART OF THE BACK-UP IDLE LOOP. THE SECOND IS SHOW-BANKSUM WHICH RUNS AS A REGULAR EXECUTIVE JOB WITH ITS OWN
000028:                                                                                                  #  STARTING VERB.
000029:                                                                                                  #  THE PURPOSE OF SELF-CHECK IS TO CHECK OUT VARIOUS PARTS OF THE COMPUTER AS OUTLINED BELOW IN THE OPTIONS.
000030:                                                                                                  #  THE PURPOSE OF SHOW-BANKSUM IS TO DISPLAY THE SUM OF EACH BANK, ONE AT A TIME.
000031:                                                                                                  #  IN ALL THERE ARE  7 POSSIBLE OPTIONS IN THIS BLOCK II VERSION OF SELF-CHECK. MORE DETAIL DESCRIPTION MAY BE
000032:                                                                                                  #  FOUND IN E-2065 BLOCK II AGC SELF-CHECK AND SHOW BANKSUM BY EDWIN D. SMALLY DECEMBER 1966, AND ADDENDA 2 AND 3.
000033:                                                                                                  #  THE DIFFERENT OPTIONS ARE CONTROLLED BY PUTTING DIFFERENT NUMBERS IN THE SMODE REGISTER (NOUN 27). BELOW IS
000034:                                                                                                  #  A DESCRIPTION OF WHAT PARTS OF THE COMPUTER THAT ARE CHECKED BY THE OPTIONS, AND THE CORRESPONDING NUMBER, IN
000035:                                                                                                  #  OCTAL, TO LOAD INTO SMODE.
000036:                                                                                                  #        +-4             ERASABLE MEMORY
000037:                                                                                                  #        +-5             FIXED MEMORY
000038:                                                                                                  #        +-1,2,3,6,7,10  EVERYTHING IN OPTIONS 4 AND 5.
000039:                                                                                                  #        -0              SAME AS +-10 UNTIL AN ERROR IS DETECTED.
000040:                                                                                                  #        +0              NO CHECK, PUTS COMPUTER INTO THE BACKUP IDLE LOOP.
000041:
000042:                                                                                                  #  WARNINGS
000043:
000044:                                                                                                  #        USE OF E MEMORY RESERVED FOR SELF-CHECK (EVEN IN IDLE LOOP) AS TEMP STORAGE BY OTHER PROGRAMS IS DANGEROUS.
000045:                                                                                                  #        SMODE SET GREATER THAN OCT 10 PUTS COMPUTER INTO BACKUP IDLE LOOP.
000046:
000047:                                                                                                  #  CALLING SEQUENCE
000048:
000049:                                                                                                  #        TO CALL SELF-CHECK KEY IN
000050:                                                                                                  #                V 21 N 27 E     OPTION NUMBER E
000051:                                                                                                  #        TO CALL SHOW-BANKSUM KEY IN
000052:                                                                                                  #                V 91 E          DISPLAYS FIRST BANK
000053:                                                                                                  #                V 33 E          PROCEED, DISPLAYS NEXT BANK
000054:
000055:
000056:                                                                                                  #  EXIT MODES, NORMAL AND ALARM
000057:
000058:                                                                                                  #  SELF-CHECK NORMALLY CONTINUES INDEFINITELY UNLESS THERE IS AN ERROR DETECTED. IF SO + OPTION NUMBERS PUT
000059:                                                                                                  #  COMPUTER INTO BACKUP IDLE LOOP, - OPTION NUMBERS RESTART THE OPTION.
000060:                                                                                                  #  THE -0 OPTION PROCEEDS FROM THE LINE FOLLOWING THE LINE WHERE THE ERROR WAS DETECTED.
000061:                                                                                                  #  SHOW-BANKSUM PROCEEDS UNTIL A TERMINATE IS KEYED IN (V 34 E). THE COMPUTER IS PUT INTO THE BACKUP IDLE LOOP
000062:
000063:
000064:                                                                                                  #  OUTPUT


000066:                                                                                                  #  SELF-CHECK UPON DETECTING AN ERROR LOADS THE SELF-CHECK ALARM CONSTANT (01102) INTO THE FAILREG SET AND
000067:                                                                                                  #  TURNS ON THE ALARM LIGHT. THE OPERATOR MAY THEN DISPLAY THE THREE FAILREGS BY KEYING IN V 05 N 09 E. FOR FURTHER
000068:                                                                                                  #  INFORMATION HE MAY KEY IN V 05 N 08 E, THE DSKY DISPLAY IN R1 WILL BE ADDRESS+1 OF WHERE THE ERROR WAS DETECTED,
000069:                                                                                                  #  IN R2 THE BBCON OF SELF-CHECK, AND IN R3 THE TOTAL NUMBER OF ERRORS DETECTED BY SELF-CHECK SINCE THE LAST MAN
000070:                                                                                                  #  INITIATED FRESH START (SLAP1).
000071:                                                                                                  #  SHOW-BANKSUM STARTING WITH BANK 0 DISPLAYS IN R1 THE BANK SUM (A +-NUMBER EQUAL TO THE BANK NUMBER), IN R2
000072:                                                                                                  #  THE BANK NUMBER, AND IN R3 THE BUGGER WORD.
000073:
000074:
000075:                                                                                                  #  ERASABLE INITIALIZATION REQUIRED
000076:
000077:                                                                                                  #        ACCOMPLISHED BY FRESH START
000078:                                                                                                  #                SMODE SET TO +0
000079:
000080:                                                                                                  #  DEBRIS
000081:
000082:                                                                                                  #        ALL EXITS FROM THE CHECK OF ERASABLE (ERASCHK) RESTORE ORIGINAL CONTENTS TO REGISTERS UNDER CHECK.
000083:                                                                                                  #        EXCEPTION IS A RESTART. RESTART THAT OCCURS DURING ERASCHK RESTORES ERASABLE, UNLESS THERE IS EVIDENCE TO DOUBT
000084:                                                                                                  #        E MEMORY, IN WHICH CASE PROGRAM THEN DOES A FRESH START (DOFSTART).
000085:
000086: 43,2000                                           SETLOC   SELFCHEC
000087: 43,2000                                           BANK
000088:
000089: 43,3166                                           COUNT*   $$/SELF
000090: 43,3166     4770               SBIT1              EQUALS   BIT1
000091: 43,3166     4767               SBIT2              EQUALS   BIT2
000092: 43,3166     4766               SBIT3              EQUALS   BIT3
000093: 43,3166     4765               SBIT4              EQUALS   BIT4
000094: 43,3166     4764               SBIT5              EQUALS   BIT5
000095: 43,3166     4763               SBIT6              EQUALS   BIT6
000096: 43,3166     4762               SBIT7              EQUALS   BIT7
000097: 43,3166     4761               SBIT8              EQUALS   BIT8
000098: 43,3166     4760               SBIT9              EQUALS   BIT9
000099: 43,3166     4757               SBIT10             EQUALS   BIT10
000100: 43,3166     4756               SBIT11             EQUALS   BIT11
000101: 43,3166     4755               SBIT12             EQUALS   BIT12
000102: 43,3166     4754               SBIT13             EQUALS   BIT13
000103: 43,3166     4753               SBIT14             EQUALS   BIT14
000104: 43,3166     4752               SBIT15             EQUALS   BIT15
000105:
000106: 43,3166     4772               S+ZERO             EQUALS   ZERO
000107: 43,3166     4770               S+1                EQUALS   BIT1
000108: 43,3166     4767               S+2                EQUALS   BIT2
000109: 43,3166     6214               S+3                EQUALS   THREE
000110: 43,3166     4766               S+4                EQUALS   FOUR
000111: 43,3166     4773               S+5                EQUALS   FIVE
000112: 43,3166     6211               S+6                EQUALS   SIX
000113: 43,3166     4774               S+7                EQUALS   SEVEN


000115: 43,3166     4350               S8BITS             EQUALS   LOW8                                  #  00377
000116: 43,3166     5004               CNTRCON            =        OCT50                                 #  USED IN CNTRCHK
000117: 43,3166           00061        ERASCON1           OCTAL    00061                                 #  USED IN ERASCHK
000118: 43,3167           01373        ERASCON2           OCTAL    01373                                 #  USED IN ERASCHK
000119: 43,3170     5024               ERASCON6           =        OCT1400                               #  USED IN ERASCHK
000120: 43,3170     5030               ERASCON3           EQUALS   V06N49                                #  USED IN ERASCHK
000121: 43,3170           01773        ERASCON4           OCTAL    01773                                 #  USED IN ERASCHK
000122: 43,3171     5041               S10BITS            EQUALS   LOW10                                 #  01777, USED IN ERASCHK
000123: 43,3171     5050               SBNK03             EQUALS   PRIO6                                 #  06000, USED IN ROPECHK
000124: 43,3171     4344               -MAXADRS           =        HI5                                   #  FOR ROPECHK
000125: 43,3171     5010               SIXTY              EQUALS   SUPER011
000126: 43,3171           60017        SUPRCON            OCTAL    60017                                 #  USED IN ROPECHK
000127: 43,3172           17777        S13BITS            OCTAL    17777
000128: 43,3173           25252        CONC+S1            OCTAL    25252                                 #  USED IN CYCLSHFT
000129: 43,3174           52400        CONC+S2            OCTAL    52400                                 #  USED IN CYCLSHFT
000130: 43,3175           76777        ERASCON5           OCTAL    76777
000131: 43,3176     5736               S-7                =        OCT77770
000132: 43,3176     6061               S-4                EQUALS   NEG4
000133: 43,3176     7700               S-3                EQUALS   NEG3
000134: 43,3176     7701               S-2                EQUALS   NEG2
000135: 43,3176     7702               S-1                EQUALS   NEGONE
000136: 43,3176     4771               S-ZERO             EQUALS   NEG0
000137:
000138: 43,3176  E3,1400                                  EBANK=   LST1
000139: 43,3176           01371        ADRS1              ADRES    SKEEP1
000140: 43,3177           03270        SELFADRS           ADRES    SELFCHK                               #  SELFCHK RETURN ADDRESS. SHOULD BE PUT
000141:                                                                                                  #  IN SELFRET WHEN GOING FROM SELFCHK TO
000142:                                                                                                  #  SHOWSUM AND PUT IN SKEEP1 WHEN GOING
000143:                                                                                                  #  FROM SHOWSUM TO SELF-CHECK.
000144:
000145: 43,3200           31360        PRERRORS           CA       ERESTORE                              #  IS IT NECESSARY TO RESTORE ERASABLE
000146: 43,3201           00006                           EXTEND
000147: 43,3202           13211                           BZF      ERRORS                                #  NO
000148: 43,3203           00006                           EXTEND
000149: 43,3204           31376                           DCA      SKEEP5
000150: 43,3205           51377                           INDEX    SKEEP7
000151: 43,3206           52001                           DXCH     0000                                  #  RESTORE THE TWO ERASABLE REGISTERS
000152: 43,3207           34772                           CA       S+ZERO
000153: 43,3210           55360                           TS       ERESTORE
000154: 43,3211           00004        ERRORS             INHINT
000155: 43,3212           30002                           CA       Q
000156: 43,3213           55357                           TS       SFAIL                                 #  SAVE Q FOR FAILURE LOCATION
000157: 43,3214           55363                           TS       ALMCADR                               #  FOR DISPLAY WITH BBANK AND ERCOUNT
000158: 43,3215           25365                           INCR     ERCOUNT                               #  KEEP TRACK OF NUMBER OF MALFUNCTIONS.
000159: 43,3216           05673        TCALARM2           TC       ALARM2
000160: 43,3217           01102                           OCT      01102                                 #  SELF-CHECK MALFUNCTION INDICATOR
000161: 43,3220           11362                           CCS      SMODE
000162: 43,3221           34772        SIDLOOP            CA       S+ZERO
000163: 43,3222           55362                           TS       SMODE
000164: 43,3223           03270                           TC       SELFCHK                               #  GO TO IDLE LOOP


000166: 43,3224           01357                           TC       SFAIL                                 #  CONTINUE WITH SELF-CHECK
000167:
000168: 43,3225           10000        -1CHK              CCS      A
000169: 43,3226           13200                           TCF      PRERRORS
000170: 43,3227           13200                           TCF      PRERRORS
000171: 43,3230           10000                           CCS      A
000172: 43,3231           13200                           TCF      PRERRORS
000173: 43,3232           00002                           TC       Q
000174:
000175: 43,3233           00006        SMODECHK           EXTEND
000176: 43,3234           23371                           QXCH     SKEEP1
000177: 43,3235           03264                           TC       CHECKNJ                               #  CHECK FOR NEW JOB
000178: 43,3236           11362                           CCS      SMODE
000179: 43,3237           03244                           TC       SOPTIONS
000180: 43,3240           03235                           TC       SMODECHK   +2                         #  TO BACKUP IDLE LOOP
000181: 43,3241           03244                           TC       SOPTIONS
000182: 43,3242           25366                           INCR     SCOUNT
000183: 43,3243           01371                           TC       SKEEP1                                #  CONTINUE WITH SELF-CHECK
000184:
000185: 43,3244           65736        SOPTIONS           AD       S-7
000186: 43,3245           00006                           EXTEND
000187: 43,3246           63250                           BZMF     +2                                    #  FOR OPTIONS BELOW NINE.
000188: 43,3247           03221        BNKOPTN            TC       SIDLOOP                               #  ILLEGAL OPTION.  GO TO IDLE LOOP.
000189: 43,3250           25366                           INCR     SCOUNT                                #  FOR OPTIONS BELOW NINE.
000190: 43,3251           64774                           AD       S+7
000191:
000192: 43,3252           50000                           INDEX    A
000193: 43,3253           03254                           TC       SOPTION1
000194: 43,3254           01371        SOPTION1           TC       SKEEP1                                #  WAS TC+TCF
000195: 43,3255           01371        SOPTION2           TC       SKEEP1                                #  WAS IN:OUT1
000196: 43,3256           01371        SOPTION3           TC       SKEEP1                                #  WAS COUNTCHK
000197: 43,3257           03271        SOPTION4           TC       ERASCHK
000198: 43,3260           03452        SOPTION5           TC       ROPECHK
000199: 43,3261           01371        SOPTION6           TC       SKEEP1
000200: 43,3262           01371        SOPTION7           TC       SKEEP1
000201: 43,3263           01371        SOPTON10           TC       SKEEP1                                #  CONTINUE WITH SELF-CHECK
000202:
000203: 43,3264           00006        CHECKNJ            EXTEND
000204: 43,3265           23361                           QXCH     SELFRET                               #  SAVE RETURN ADDRESS WHILE TESTING NEWJOB
000205: 43,3266           04655                           TC       POSTJUMP                              #  TO SEE IF ANY JOBS HAVE BECOME ACTIVE.
000206: 43,3267           03177                           CADR     ADVAN
000207:
000208: 43,3270           03233        SELFCHK            TC       SMODECHK                              #  ** CHARLEY, COME IN HERE
000209:
000210:                                                                                                  #  SKEEP7 HOLDS LOWEST OF TWO ADDRESSES BEING CHECKED.
000211:                                                                                                  #  SKEEP6 HOLDS B(X+1).
000212:                                                                                                  #  SKEEP5 HOLDS B(X).
000213:                                                                                                  #  SKEEP4 HOLDS C(EBANK) DURING ERASLOOP AND CHECKNJ.
000214:                                                                                                  #  SKEEP3 HOLDS LAST ADDRESS BEING CHECKED (HIGHEST ADDRESS).
000215:                                                                                                  #  SKEEP2 CONTROLS CHECKING OF NON-SWITCHABLE ERASABLE MEMORY WITH BANK NUMBERS IN EB.


000217:                                                                                                  #  ERASCHK TAKES APPROXMATELY 7 SECONDS
000218:
000219: 43,3271           34770        ERASCHK            CA       S+1
000220: 43,3272           55372                           TS       SKEEP2
000221: 43,3273           34772        0EBANK             CA       S+ZERO
000222: 43,3274           54003                           TS       EBANK
000223: 43,3275           35030                           CA       ERASCON3                              #  01461
000224: 43,3276           55377                           TS       SKEEP7                                #  STARTING ADDRESS
000225: 43,3277           35041                           CA       S10BITS                               #  01777
000226: 43,3300           55373                           TS       SKEEP3                                #  LAST ADDRESS CHECKED
000227: 43,3301           03321                           TC       ERASLOOP
000228:
000229: 43,3302           35024        E134567B           CA       ERASCON6                              #  01400
000230: 43,3303           55377                           TS       SKEEP7                                #  STARTING ADDRESS
000231: 43,3304           35041                           CA       S10BITS                               #  01777
000232: 43,3305           55373                           TS       SKEEP3                                #  LAST ADDRESS CHECKED
000233: 43,3306           03321                           TC       ERASLOOP
000234:
000235: 43,3307           35024        2EBANK             CA       ERASCON6                              #  01400
000236: 43,3310           55377                           TS       SKEEP7                                #  STARTING ADDRESS
000237: 43,3311           33170                           CA       ERASCON4                              #  01773
000238: 43,3312           55373                           TS       SKEEP3                                #  LAST ADDRESS CHECKED
000239: 43,3313           03321                           TC       ERASLOOP
000240:
000241: 43,3314           55372        NOEBANK            TS       SKEEP2                                #  +0
000242: 43,3315           33166                           CA       ERASCON1                              #  00061
000243: 43,3316           55377                           TS       SKEEP7                                #  STARTING ADDRESS
000244: 43,3317           33167                           CA       ERASCON2                              #  01373
000245: 43,3320           55373                           TS       SKEEP3                                #  LAST ADDRESS CHECKED
000246:
000247: 43,3321           00004        ERASLOOP           INHINT
000248: 43,3322           30003                           CA       EBANK                                 #  STORES C(EBANK)
000249: 43,3323           55374                           TS       SKEEP4
000250: 43,3324           00006                           EXTEND
000251: 43,3325           51377                           NDX      SKEEP7
000252: 43,3326           30001                           DCA      0000
000253: 43,3327           53376                           DXCH     SKEEP5                                #  STORES C(X) AND C(X+1) IN SKEEP6 AND 5.
000254: 43,3330           31377                           CA       SKEEP7
000255: 43,3331           55360                           TS       ERESTORE                              #  IF RESTART, RESTORE C(X) AND C(X+1)
000256: 43,3332           54001                           TS       L
000257: 43,3333           24001                           INCR     L
000258: 43,3334           50000                           NDX      A
000259: 43,3335           52001                           DXCH     0000                                  #  PUTS OWN ADDRESS IN X AND X +1
000260: 43,3336           51377                           NDX      SKEEP7
000261: 43,3337           40001                           CS       0001                                  #  CS X+1
000262: 43,3340           51377                           NDX      SKEEP7
000263: 43,3341           60000                           AD       0000                                  #  AD X
000264: 43,3342           03225                           TC       -1CHK
000265: 43,3343           31360                           CA       ERESTORE                              #  HAS ERASABLE BEEN RESTORED
000266: 43,3344           00006                           EXTEND
000267: 43,3345           13371                           BZF      ELOOPFIN                              #  YES, EXIT ERASLOOP.


000269: 43,3346           00006                           EXTEND
000270: 43,3347           51377                           NDX      SKEEP7
000271: 43,3350           40001                           DCS      0000                                  #  COMPLEMENT OF ADDRESS OF X AND X+1
000272: 43,3351           51377                           NDX      SKEEP7
000273: 43,3352           52001                           DXCH     0000                                  #  PUT COMPLEMENT OF ADDRESS OF X AND X+1
000274: 43,3353           51377                           NDX      SKEEP7
000275: 43,3354           40000                           CS       0000                                  #  CS X
000276: 43,3355           51377                           NDX      SKEEP7
000277: 43,3356           60001                           AD       0001                                  #  AD X+1
000278: 43,3357           03225                           TC       -1CHK
000279: 43,3360           31360                           CA       ERESTORE                              #  HAS ERASABLE BEEN RESTORED
000280: 43,3361           00006                           EXTEND
000281: 43,3362           13371                           BZF      ELOOPFIN                              #  YES, EXIT ERASLOOP.
000282: 43,3363           00006                           EXTEND
000283: 43,3364           31376                           DCA      SKEEP5
000284: 43,3365           51377                           NDX      SKEEP7
000285: 43,3366           52001                           DXCH     0000                                  #  PUT B(X) AND B(X+1) BACK INTO X AND X+1
000286: 43,3367           34772                           CA       S+ZERO
000287: 43,3370           55360                           TS       ERESTORE                              #  IF RESTART, DO NOT RESTORE C(X), C(X+1)
000288: 43,3371           00003        ELOOPFIN           RELINT
000289: 43,3372           03264                           TC       CHECKNJ                               #  CHECK FOR NEW JOB
000290: 43,3373           31374                           CA       SKEEP4                                #  REPLACES B(EBANK)
000291: 43,3374           54003                           TS       EBANK
000292: 43,3375           25377                           INCR     SKEEP7
000293: 43,3376           41377                           CS       SKEEP7
000294: 43,3377           61373                           AD       SKEEP3
000295: 43,3400           00006                           EXTEND
000296: 43,3401           13403                           BZF      +2
000297: 43,3402           03321                           TC       ERASLOOP                              #  GO TO NEXT ADDRESS IN SAME BANK
000298: 43,3403           11372                           CCS      SKEEP2
000299: 43,3404           03314                           TC       NOEBANK
000300: 43,3405           25372                           INCR     SKEEP2                                #  PUT +1 IN SKEEP2.
000301: 43,3406           30003                           CA       EBANK
000302: 43,3407           64760                           AD       SBIT9
000303: 43,3410           54003                           TS       EBANK
000304: 43,3411           63175                           AD       ERASCON5                              #  76777, CHECK FOR BANK E2
000305: 43,3412           00006                           EXTEND
000306: 43,3413           13307                           BZF      2EBANK
000307: 43,3414           10003                           CCS      EBANK
000308: 43,3415           03302                           TC       E134567B                              #  GO TO EBANKS 1,3,4,5,6, AND 7
000309: 43,3416           35024                           CA       ERASCON6                              #  END OF ERASCHK
000310: 43,3417           54003                           TS       EBANK
000311:
000312:                                                                                                  #  CNTRCHK PERFORMS A CS OF ALL REGISTERS FROM OCT. 60 THROUGH OCT. 10.
000313:                                                                                                  #  INCLUDED ARE ALL COUNTERS, T6-1, CYCLE AND SHIFT, AND ALL RUPT REGISTERS
000314:
000315: 43,3420           35004        CNTRCHK            CA       CNTRCON                               #  00050
000316: 43,3421           55372        CNTRLOOP           TS       SKEEP2
000317: 43,3422           64765                           AD       SBIT4                                 #  +10 OCTAL
000318: 43,3423           50000                           INDEX    A
000319: 43,3424           40000                           CS       0000
000320: 43,3425           11372                           CCS      SKEEP2


000322: 43,3426           03421                           TC       CNTRLOOP
000323:
000324:                                                                                                  #  CYCLSHFT CHECKS THE CYCLE AND SHIFT REGISTERS
000325:
000326: 43,3427           33173        CYCLSHFT           CA       CONC+S1                               #  25252
000327: 43,3430           54020                           TS       CYR                                   #  C(CYR) = 12525
000328: 43,3431           54022                           TS       CYL                                   #  C(CYL) = 52524
000329: 43,3432           54021                           TS       SR                                    #  C(SR) = 12525
000330: 43,3433           54023                           TS       EDOP                                  #  C(EDOP) = 00125
000331: 43,3434           60020                           AD       CYR                                   #  37777         C(CYR) = 45252
000332: 43,3435           60022                           AD       CYL                                   #  00-12524      C(CYL) = 25251
000333: 43,3436           60021                           AD       SR                                    #  00-25251      C(SR) = 05252
000334: 43,3437           60023                           AD       EDOP                                  #  00-25376      C(EDOP) = +0
000335: 43,3440           63174                           AD       CONC+S2                               #  C(CONC+S2) = 52400
000336: 43,3441           03225                           TC       -1CHK
000337: 43,3442           60020                           AD       CYR                                   #  45252
000338: 43,3443           60022                           AD       CYL                                   #  72523
000339: 43,3444           60021                           AD       SR                                    #  77775
000340: 43,3445           60023                           AD       EDOP                                  #  77775
000341: 43,3446           64770                           AD       S+1                                   #  77776
000342: 43,3447           03225                           TC       -1CHK
000343:
000344: 43,3450           25367                           INCR     SCOUNT     +1
000345: 43,3451           03233                           TC       SMODECHK
000346:
000347:                                                                                                  #  SKEEP1 HOLDS SUM
000348:                                                                                                  #  SKEEP2 HOLDS PRESENT CONTENTS OF ADDRESS IN ROPECHK AND SHOWSUM ROUTINES
000349:                                                                                                  #  SKEEP2 HOLDS BANK NUMBER IN LOW ORDER BITS DURING SHOWSUM DISPLAY
000350:                                                                                                  #  SKEEP3 HOLDS PRESENT ADDRESS (00000 TO 01777 IN COMMON FIXED BANKS)
000351:                                                                                                  #                               (04000 TO 07777 IN FXFX BANKS)
000352:                                                                                                  #  SKEEP3 HOLDS BUGGER WORD DURING SHOWSUM DISPLAY
000353:                                                                                                  #  SKEEP4 HOLDS BANK NUMBER AND SUPER BANK NUMBER
000354:                                                                                                  #  SKEEP5 COUNTS 2 SUCCESSIVE TC SELF WORDS
000355:                                                                                                  #  SKEEP6 CONTROLS ROPECHK OR SHOWSUM OPTION
000356:                                                                                                  #  SKEEP7 CONTROLS WHEN ROUNTINE IS IN COMMON FIXED OR FIXED FIXED BANKS
000357:
000358: 43,3452           34771        ROPECHK            CA       S-ZERO                                #  *
000359: 43,3453           55376                           TS       SKEEP6                                #  * -0 FOR ROPECHK.
000360: 43,3454           34772        STSHOSUM           CA       S+ZERO                                #  * SHOULD BE ROPECHK
000361:
000362: 43,3455           55374                           TS       SKEEP4                                #  BANK NUMBER
000363: 43,3456           34770                           CA       S+1
000364: 43,3457           55377        COMMFX             TS       SKEEP7
000365: 43,3460           34772                           CA       S+ZERO
000366: 43,3461           55371                           TS       SKEEP1
000367: 43,3462           55373                           TS       SKEEP3
000368: 43,3463           34770                           CA       S+1
000369: 43,3464           55375                           TS       SKEEP5                                #  COUNTS DOWN 2 TC SELF WORDS
000370: 43,3465           31374        COMADRS            CA       SKEEP4
000371: 43,3466           54001                           TS       L                                     #  TO SET SUPER BANK
000372: 43,3467           74344                           MASK     HI5
000373: 43,3470           61373                           AD       SKEEP3


000375: 43,3471           04671                           TC       SUPDACAL                              #  SUPER DATA CALL
000376: 43,3472           03515                           TC       ADSUM
000377: 43,3473           64756                           AD       SBIT11                                #  02000
000378: 43,3474           03526                           TC       ADRSCHK
000379:
000380: 43,3475           40000        FXFX               CS       A
000381: 43,3476           55377                           TS       SKEEP7
000382: 43,3477           00006                           EXTEND
000383: 43,3500           13503                           BZF      +3
000384: 43,3501           34755                           CA       SBIT12                                #  04000, STARTING ADDRESS OF BANK 02
000385: 43,3502           03504                           TC       +2
000386: 43,3503           35050                           CA       SBNK03                                #  06000, STARTING ADDRESS OF BANK 03
000387: 43,3504           55373                           TS       SKEEP3
000388: 43,3505           34772                           CA       S+ZERO
000389: 43,3506           55371                           TS       SKEEP1
000390: 43,3507           34770                           CA       S+1
000391: 43,3510           55375                           TS       SKEEP5                                #  COUNTS DOWN 2 TC SELF WORDS
000392: 43,3511           51373        FXADRS             INDEX    SKEEP3
000393: 43,3512           30000                           CA       0000
000394: 43,3513           03515                           TC       ADSUM
000395: 43,3514           03526                           TC       ADRSCHK
000396:
000397: 43,3515           55372        ADSUM              TS       SKEEP2
000398: 43,3516           61371                           AD       SKEEP1
000399: 43,3517           55371                           TS       SKEEP1
000400: 43,3520           34772                           CAF      S+ZERO
000401: 43,3521           61371                           AD       SKEEP1
000402: 43,3522           55371                           TS       SKEEP1
000403: 43,3523           41372                           CS       SKEEP2
000404: 43,3524           61373                           AD       SKEEP3
000405: 43,3525           00002                           TC       Q
000406:
000407: 43,3526           22000        ADRSCHK            LXCH     A
000408: 43,3527           31373                           CA       SKEEP3
000409: 43,3530           75041                           MASK     LOW10                                 #  RELATIVE ADDRESS
000410: 43,3531           64344                           AD       -MAXADRS                              #  SUBTRACT MAX RELATIVE ADDRESS = 1777.
000411: 43,3532           00006                           EXTEND
000412: 43,3533           13622                           BZF      SOPTION                               #  CHECKSUM FINISHED IF LAST ADDRESS.
000413: 43,3534           11375                           CCS      SKEEP5                                #  IS CHECKSUM FINISHED
000414: 43,3535           03540                           TC       +3                                    #  NO
000415: 43,3536           03540                           TC       +2                                    #  NO
000416: 43,3537           03622                           TC       SOPTION                               #  GO TO ROPECHK SHOWSUM OPTION
000417: 43,3540           10001                           CCS      L                                     #  -0 MEANS A TC SELF WORD.
000418: 43,3541           03550                           TC       CONTINU
000419: 43,3542           03550                           TC       CONTINU
000420: 43,3543           03550                           TC       CONTINU
000421: 43,3544           11375                           CCS      SKEEP5
000422: 43,3545           03551                           TC       CONTINU    +1
000423: 43,3546           37702                           CA       S-1
000424: 43,3547           03551                           TC       CONTINU    +1                         #  AD IN THE BUGGER WORD


000426: 43,3550           34770        CONTINU            CA       S+1                                   #  MAKE SURE TWO CONSECUTIVE TC SELF WORDS
000427: 43,3551           55375                           TS       SKEEP5
000428: 43,3552           11376                           CCS      SKEEP6                                #  *
000429: 43,3553           10067                           CCS      NEWJOB                                #  * +1, SHOWSUM
000430: 43,3554           05152                           TC       CHANG1                                #  *
000431: 43,3555           03557                           TC       +2                                    #  *
000432: 43,3556           03264                           TC       CHECKNJ                               #  -0 IN SKEEP6 FOR ROPECHK
000433:
000434: 43,3557           25373        ADRS+1             INCR     SKEEP3
000435: 43,3560           11377                           CCS      SKEEP7
000436: 43,3561           03465                           TC       COMADRS
000437: 43,3562           03465                           TC       COMADRS
000438: 43,3563           03511                           TC       FXADRS
000439: 43,3564           03511                           TC       FXADRS
000440:
000441: 43,3565           41374        NXTBNK             CS       SKEEP4
000442: 43,3566           63655                           AD       LSTBNKCH                              #  LAST BANK TO BE CHECKED
000443: 43,3567           00006                           EXTEND
000444: 43,3570           12764                           BZF      ENDSUMS                               #  END OF SUMMING OF BANKS.
000445: 43,3571           31374                           CA       SKEEP4
000446: 43,3572           64756                           AD       SBIT11
000447: 43,3573           55374                           TS       SKEEP4                                #  37 TO 40 INCRMTS SKEEP4 BY END RND CARRY
000448: 43,3574           03600                           TC       CHKSUPR
000449: 43,3575           34752        17TO20             CA       SBIT15
000450: 43,3576           27374                           ADS      SKEEP4                                #  SET FOR BANK 20
000451: 43,3577           03614                           TC       GONXTBNK
000452: 43,3600           74344        CHKSUPR            MASK     HI5
000453: 43,3601           00006                           EXTEND
000454: 43,3602           13612                           BZF      NXTSUPR                               #  INCREMENT SUPER BANK
000455: 43,3603           63172        27TO30             AD       S13BITS
000456: 43,3604           00006                           EXTEND
000457: 43,3605           13607                           BZF      +2                                    #  BANK SET FOR 30
000458: 43,3606           03614                           TC       GONXTBNK
000459: 43,3607           35010                           CA       SIXTY                                 #  FIRST SUPER BANK
000460: 43,3610           27374                           ADS      SKEEP4
000461: 43,3611           03614                           TC       GONXTBNK
000462: 43,3612           63171        NXTSUPR            AD       SUPRCON                               #  SET BNK 30 + INCR SUPR BNK AND CANCEL
000463: 43,3613           27374                           ADS      SKEEP4                                #  ERC BIT OF THE 37 TO 40 ADVANCE.
000464: 43,3614           11377        GONXTBNK           CCS      SKEEP7
000465: 43,3615           03457                           TC       COMMFX
000466: 43,3616           34770                           CA       S+1
000467: 43,3617           03475                           TC       FXFX
000468: 43,3620           34762                           CA       SBIT7                                 #  HAS TO BE LARGER THAN NO OF FXSW BANKS.
000469: 43,3621           03457                           TC       COMMFX
000470:
000471: 43,3622           31374        SOPTION            CA       SKEEP4
000472: 43,3623           74344                           MASK     HI5                                   #  = BANK BITS
000473: 43,3624           04333                           TC       LEFT5
000474: 43,3625           54001                           TS       L                                     #  BANK NUMBER BEFORE SUPER BANK
000475: 43,3626           31374                           CA       SKEEP4


000477: 43,3627           74350                           MASK     S8BITS                                #  = SUPER BANK BITS
000478: 43,3630           00006                           EXTEND
000479: 43,3631           13637                           BZF      SOPT                                  #  BEFORE SUPER BANK
000480: 43,3632           54021                           TS       SR                                    #  SUPER BANK NECESSARY
000481: 43,3633           30001                           CA       L
000482: 43,3634           74774                           MASK     SEVEN
000483: 43,3635           60021                           AD       SR
000484: 43,3636           54001                           TS       L                                     #  BANK NUMBER WITH SUPER BANK
000485: 43,3637           31376        SOPT               CA       SKEEP6                                #  *
000486: 43,3640           00006                           EXTEND                                         #  *
000487: 43,3641           13643                           BZF      +2                                    #  * ON -0 CONTINUE WITH ROPE CHECK.
000488: 43,3642           02746                           TC       SDISPLAY                              #  * ON +1 GO TO DISPLAY OF SUM.
000489: 43,3643           11371                           CCS      SKEEP1                                #  FORCE SUM TO ABSOLUTE VALUE.
000490: 43,3644           03646                           TC       +2
000491: 43,3645           03647                           TC       +2
000492: 43,3646           64770                           AD       S+1
000493: 43,3647           55371                           TS       SKEEP1
000494: 43,3650           40001        BNKCHK             CS       L                                     #  = - BANK NUMBER
000495: 43,3651           61371                           AD       SKEEP1
000496: 43,3652           67702                           AD       S-1
000497: 43,3653           03225                           TC       -1CHK                                 #  CHECK SUM
000498: 43,3654           03565                           TC       NXTBNK
000499:
000500: 43,3655     0067                                  EBANK=   NEWJOB
000501: 43,3655           66100        LSTBNKCH           BBCON*                                         #  * CONSTANT, LAST BANK.
000502:
000503: 43,3656  30,2000                                  SBANK=   LOWSUPER

End of include-file AGC_BLOCK_TWO_SELF-CHECK.agc.  Parent file is MAIN.agc


