
Source Code


000002:                                                                                                 #  Copyright:     Public domain.
000003:                                                                                                 #  Filename:      AGC_BLOCK_TWO_SELF-CHECK.agc
000004:                                                                                                 #  Purpose:       Part of the source code for Artemis (i.e., Colossus 3),
000005:                                                                                                 #                 build 072.  This is for the Command Module's (CM)
000006:                                                                                                 #                 Apollo Guidance Computer (AGC), we believe for
000007:                                                                                                 #                 Apollo 15-17.
000008:                                                                                                 #  Assembler:     yaYUL
000009:                                                                                                 #  Contact:       Jim Lawton <jim DOT lawton AT gmail DOT com>
000010:                                                                                                 #  Website:       www.ibiblio.org/apollo/index.html
000011:                                                                                                 #  Page scans:    www.ibiblio.org/apollo/ScansForConversion/Artemis072/
000012:                                                                                                 #  Mod history:   2009-08-18 JL   Adapted from corresponding Comanche 055 file.
000013:                                                                                                 #                 2010-02-20 RSB  Un-##'d this header.
000014:


000016:
000017:                                                                                                 #  PROGRAM DESCRIPTION                            DATE  20 DECEMBER 1967
000018:                                                                                                 #  PROGRAM NAME -  SELF-CHECK                     LOG SECTION AGC BLOCK TWO SELF-CHECK
000019:                                                                                                 #  MOD NO - 1                                     ASSEMBLY SUBROUTINE UTILITYM REV 25
000020:                                                                                                 #  MOD BY - GAUNTT
000021:
000022:                                                                                                 #  FUNCTIONAL DESCRIPTION
000023:
000024:                                                                                                 #  PROGRAM HAS TWO MAIN PARTS. THE FIRST IS SELF-CHECK WHICH RUNS AS A ZERO PRIORITY JOB WITH NO CORE SET, AS
000025:                                                                                                 #  PART OF THE BACK-UP IDLE LOOP. THE SECOND IS SHOW-BANKSUM WHICH RUNS AS A REGULAR EXECUTIVE JOB WITH ITS OWN
000026:                                                                                                 #  STARTING VERB.
000027:                                                                                                 #  THE PURPOSE OF SELF-CHECK IS TO CHECK OUT VARIOUS PARTS OF THE COMPUTER AS OUTLINED BELOW IN THE OPTIONS.
000028:                                                                                                 #  THE PURPOSE OF SHOW-BANKSUM IS TO DISPLAY THE SUM OF EACH BANK, ONE AT A TIME.
000029:                                                                                                 #  IN ALL THERE ARE  7 POSSIBLE OPTIONS IN THIS BLOCK II VERSION OF SELF-CHECK. MORE DETAIL DESCRIPTION MAY BE
000030:                                                                                                 #  FOUND IN E-2065 BLOCK II AGC SELF-CHECK AND SHOW BANKSUM BY EDWIN D. SMALLY DECEMBER 1966, AND ADDENDA 2 AND 3.
000031:                                                                                                 #  THE DIFFERENT OPTIONS ARE CONTROLLED BY PUTTING DIFFERENT NUMBERS IN THE SMODE REGISTER (NOUN 27). BELOW IS
000032:                                                                                                 #  A DESCRIPTION OF WHAT PARTS OF THE COMPUTER THAT ARE CHECKED BY THE OPTIONS, AND THE CORRESPONDING NUMBER, IN
000033:                                                                                                 #  OCTAL, TO LOAD INTO SMODE.
000034:                                                                                                 #         +-4             ERASABLE MEMORY
000035:                                                                                                 #         +-5             FIXED MEMORY
000036:                                                                                                 #         +-1,2,3,6,7,10  EVERYTHING IN OPTIONS 4 AND 5.
000037:                                                                                                 #         -0              SAME AS +-10 UNTIL AN ERROR IS DETECTED.
000038:                                                                                                 #         +0              NO CHECK, PUTS COMPUTER INTO THE BACKUP IDLE LOOP.
000039:
000040:                                                                                                 #  WARNINGS
000041:
000042:                                                                                                 #         USE OF E MEMORY RESERVED FOR SELF-CHECK (EVEN IN IDLE LOOP) AS TEMP STORAGE BY OTHER PROGRAMS IS DANGEROUS.
000043:                                                                                                 #         SMODE SET GREATER THAN OCT 10 PUTS COMPUTER INTO BACKUP IDLE LOOP.
000044:
000045:                                                                                                 #  CALLING SEQUENCE
000046:
000047:                                                                                                 #         TO CALL SELF-CHECK KEY IN
000048:                                                                                                 #                 V 21 N 27 E     OPTION NUMBER E
000049:                                                                                                 #         TO CALL SHOW-BANKSUM KEY IN
000050:                                                                                                 #                 V 91 E          DISPLAYS FIRST BANK
000051:                                                                                                 #                 V 33 E          PROCEED, DISPLAYS NEXT BANK
000052:
000053:
000054:                                                                                                 #  EXIT MODES, NORMAL AND ALARM
000055:
000056:                                                                                                 #  SELF-CHECK NORMALLY CONTINUES INDEFINITELY UNLESS THERE IS AN ERROR DETECTED. IF SO + OPTION NUMBERS PUT
000057:                                                                                                 #  COMPUTER INTO BACKUP IDLE LOOP, - OPTION NUMBERS RESTART THE OPTION.
000058:                                                                                                 #  THE -0 OPTION PROCEEDS FROM THE LINE FOLLOWING THE LINE WHERE THE ERROR WAS DETECTED.
000059:                                                                                                 #  SHOW-BANKSUM PROCEEDS UNTIL A TERMINATE IS KEYED IN (V 34 E). THE COMPUTER IS PUT INTO THE BACKUP IDLE LOOP.
000060:
000061:
000062:                                                                                                 #  OUTPUT


000064:                                                                                                 #  SELF-CHECK UPON DETECTING AN ERROR LOADS THE SELF-CHECK ALARM CONSTANT (01102) INTO THE FAILREG SET AND
000065:                                                                                                 #  TURNS ON THE ALARM LIGHT. THE OPERATOR MAY THEN DISPLAY THE THREE FAILREGS BY KEYING IN V 05 N 09 E. FOR FURTHER
000066:                                                                                                 #  INFORMATION HE MAY KEY IN V 05 N 08 E, THE DSKY DISPLAY IN R1 WILL BE ADDRESS+1 OF WHERE THE ERROR WAS DETECTED,
000067:                                                                                                 #  IN R2 THE BBCON OF SELF-CHECK, AND IN R3 THE TOTAL NUMBER OF ERRORS DETECTED BY SELF-CHECK SINCE THE LAST MAN
000068:                                                                                                 #  INITIATED FRESH START (SLAP1).
000069:                                                                                                 #  SHOW-BANKSUM STARTING WTIH BANK 0 DISPLAYS IN R1 THE BANK SUM (A +-NUMBER EQUAL TO THE BANK NUMBER), IN R2
000070:                                                                                                 #  THE BANK NUMBER, AND IN R3 THE BUGGER WORD.
000071:
000072:
000073:                                                                                                 #  ERASABLE INITIALIZATION REQUIRED
000074:
000075:                                                                                                 #         ACCOMPLISHED BY FRESH START
000076:                                                                                                 #                 SMODE SET TO +0
000077:
000078:                                                                                                 #  DEBRIS
000079:
000080:                                                                                                 #         ALL EXITS FROM THE CHECK OF ERASABLE (ERASCHK) RESTORE ORIGINAL CONTENTS TO REGISTERS UNDER CHECK.
000081:                                                                                                 #         EXCEPTION IS A RESTART. RESTART THAT OCCURS DURING ERASCHK RESTORES ERASABLE, UNLESS THERE IS EVIDENCE TO DOUBT
000082:                                                                                                 #         E MEMORY, IN WHICH CASE PROGRAM THEN DOES A FRESH START (DOFSTART).
000083:
000084: 43,2000                                          SETLOC   SELFCHEC
000085: 43,2000                                          BANK
000086:
000087: 43,3166                                          COUNT*   $$/SELF
000088: 43,3166     4770               SBIT1             EQUALS   BIT1
000089: 43,3166     4767               SBIT2             EQUALS   BIT2
000090: 43,3166     4766               SBIT3             EQUALS   BIT3
000091: 43,3166     4765               SBIT4             EQUALS   BIT4
000092: 43,3166     4764               SBIT5             EQUALS   BIT5
000093: 43,3166     4763               SBIT6             EQUALS   BIT6
000094: 43,3166     4762               SBIT7             EQUALS   BIT7
000095: 43,3166     4761               SBIT8             EQUALS   BIT8
000096: 43,3166     4760               SBIT9             EQUALS   BIT9
000097: 43,3166     4757               SBIT10            EQUALS   BIT10
000098: 43,3166     4756               SBIT11            EQUALS   BIT11
000099: 43,3166     4755               SBIT12            EQUALS   BIT12
000100: 43,3166     4754               SBIT13            EQUALS   BIT13
000101: 43,3166     4753               SBIT14            EQUALS   BIT14
000102: 43,3166     4752               SBIT15            EQUALS   BIT15
000103:
000104: 43,3166     4772               S+ZERO            EQUALS   ZERO
000105: 43,3166     4770               S+1               EQUALS   BIT1
000106: 43,3166     4767               S+2               EQUALS   BIT2
000107: 43,3166     6214               S+3               EQUALS   THREE
000108: 43,3166     4766               S+4               EQUALS   FOUR
000109: 43,3166     4773               S+5               EQUALS   FIVE
000110: 43,3166     6211               S+6               EQUALS   SIX
000111: 43,3166     4774               S+7               EQUALS   SEVEN


000113: 43,3166     4350               S8BITS            EQUALS   LOW8                                  #  00377
000114: 43,3166     5004               CNTRCON           =        OCT50                                 #  USED IN CNTRCHK
000115: 43,3166           00061        ERASCON1          OCTAL    00061                                 #  USED IN ERASCHK
000116: 43,3167           01373        ERASCON2          OCTAL    01373                                 #  USED IN ERASCHK
000117: 43,3170     5024               ERASCON6          =        OCT1400                               #  USED IN ERASCHK
000118: 43,3170     5030               ERASCON3          EQUALS   V06N49                                #  USED IN ERASCHK
000119: 43,3170           01773        ERASCON4          OCTAL    01773                                 #  USED IN ERASCHK
000120: 43,3171     5041               S10BITS           EQUALS   LOW10                                 #  01777, USED IN ERASCHK
000121: 43,3171     5050               SBNK03            EQUALS   PRIO6                                 #  06000, USED IN ROPECHK
000122: 43,3171     4344               -MAXADRS          =        HI5                                   #  FOR ROPECHK
000123: 43,3171     5010               SIXTY             EQUALS   SUPER011
000124: 43,3171           60017        SUPRCON           OCTAL    60017                                 #  USED IN ROPECHK
000125: 43,3172           17777        S13BITS           OCTAL    17777
000126: 43,3173           25252        CONC+S1           OCTAL    25252                                 #  USED IN CYCLSHFT
000127: 43,3174           52400        CONC+S2           OCTAL    52400                                 #  USED IN CYCLSHFT
000128: 43,3175           76777        ERASCON5          OCTAL    76777
000129: 43,3176     5736               S-7               =        OCT77770
000130: 43,3176     6061               S-4               EQUALS   NEG4
000131: 43,3176     7700               S-3               EQUALS   NEG3
000132: 43,3176     7701               S-2               EQUALS   NEG2
000133: 43,3176     7702               S-1               EQUALS   NEGONE
000134: 43,3176     4771               S-ZERO            EQUALS   NEG0
000135:
000136: 43,3176  E3,1400                                 EBANK=   LST1
000137: 43,3176           01371        ADRS1             ADRES    SKEEP1
000138: 43,3177           03270        SELFADRS          ADRES    SELFCHK                               #  SELFCHK RETURN ADDRESS. SHOULD BE PUT
000139:                                                                                                 #  IN SELFRET WHEN GOING FROM SELFCHK TO
000140:                                                                                                 #  SHOWSUM AND PUT IN SKEEP1 WHEN GOING
000141:                                                                                                 #  FROM SHOWSUM TO SELF-CHECK.
000142:
000143: 43,3200           31360        PRERRORS          CA       ERESTORE                              #  IS IT NECESSARY TO RESTORE ERASABLE
000144: 43,3201           00006                          EXTEND
000145: 43,3202           13211                          BZF      ERRORS                                #  NO
000146: 43,3203           00006                          EXTEND
000147: 43,3204           31376                          DCA      SKEEP5
000148: 43,3205           51377                          INDEX    SKEEP7
000149: 43,3206           52001                          DXCH     0000                                  #  RESTORE THE TWO ERASABLE REGISTERS
000150: 43,3207           34772                          CA       S+ZERO
000151: 43,3210           55360                          TS       ERESTORE
000152: 43,3211           00004        ERRORS            INHINT
000153: 43,3212           30002                          CA       Q
000154: 43,3213           55357                          TS       SFAIL                                 #  SAVE Q FOR FAILURE LOCATION
000155: 43,3214           55363                          TS       ALMCADR                               #  FOR DISPLAY WITH BBANK AND ERCOUNT
000156: 43,3215           25365                          INCR     ERCOUNT                               #  KEEP TRACK OF NUMBER OF MALFUNCTIONS.
000157: 43,3216           05673        TCALARM2          TC       ALARM2
000158: 43,3217           01102                          OCT      01102                                 #  SELF-CHECK MALFUNCTION INDICATOR
000159: 43,3220           11362                          CCS      SMODE
000160: 43,3221           34772        SIDLOOP           CA       S+ZERO
000161: 43,3222           55362                          TS       SMODE
000162: 43,3223           03270                          TC       SELFCHK                               #  GO TO IDLE LOOP


000164: 43,3224           01357                          TC       SFAIL                                 #  CONTINUE WITH SELF-CHECK
000165:
000166: 43,3225           10000        -1CHK             CCS      A
000167: 43,3226           13200                          TCF      PRERRORS
000168: 43,3227           13200                          TCF      PRERRORS
000169: 43,3230           10000                          CCS      A
000170: 43,3231           13200                          TCF      PRERRORS
000171: 43,3232           00002                          TC       Q
000172:
000173: 43,3233           00006        SMODECHK          EXTEND
000174: 43,3234           23371                          QXCH     SKEEP1
000175: 43,3235           03264                          TC       CHECKNJ                               #  CHECK FOR NEW JOB
000176: 43,3236           11362                          CCS      SMODE
000177: 43,3237           03244                          TC       SOPTIONS
000178: 43,3240           03235                          TC       SMODECHK   +2                         #  TO BACKUP IDLE LOOP
000179: 43,3241           03244                          TC       SOPTIONS
000180: 43,3242           25366                          INCR     SCOUNT
000181: 43,3243           01371                          TC       SKEEP1                                #  CONTINUE WITH SELF-CHECK
000182:
000183: 43,3244           65736        SOPTIONS          AD       S-7
000184: 43,3245           00006                          EXTEND
000185: 43,3246           63250                          BZMF     +2                                    #  FOR OPTIONS BELOW NINE.
000186: 43,3247           03221        BNKOPTN           TC       SIDLOOP                               #  ILLEGAL OPTION.  GO TO IDLE LOOP.
000187: 43,3250           25366                          INCR     SCOUNT                                #  FOR OPTIONS BELOW NINE.
000188: 43,3251           64774                          AD       S+7
000189:
000190: 43,3252           50000                          INDEX    A
000191: 43,3253           03254                          TC       SOPTION1
000192: 43,3254           01371        SOPTION1          TC       SKEEP1                                #  WAS TC+TCF
000193: 43,3255           01371        SOPTION2          TC       SKEEP1                                #  WAS IN:OUT1
000194: 43,3256           01371        SOPTION3          TC       SKEEP1                                #  WAS COUNTCHK
000195: 43,3257           03271        SOPTION4          TC       ERASCHK
000196: 43,3260           03452        SOPTION5          TC       ROPECHK
000197: 43,3261           01371        SOPTION6          TC       SKEEP1
000198: 43,3262           01371        SOPTION7          TC       SKEEP1
000199: 43,3263           01371        SOPTON10          TC       SKEEP1                                #  CONTINUE WITH SELF-CHECK
000200:
000201: 43,3264           00006        CHECKNJ           EXTEND
000202: 43,3265           23361                          QXCH     SELFRET                               #  SAVE RETURN ADDRESS WHILE TESTING NEWJOB
000203: 43,3266           04655                          TC       POSTJUMP                              #  TO SEE IF ANY JOBS HAVE BECOME ACTIVE.
000204: 43,3267           03177                          CADR     ADVAN
000205:
000206: 43,3270           03233        SELFCHK           TC       SMODECHK                              #  ** CHARLEY, COME IN HERE
000207:
000208:                                                                                                 #  SKEEP7 HOLDS LOWEST OF TWO ADDRESSES BEING CHECKED.
000209:                                                                                                 #  SKEEP6 HOLDS B(X+1).
000210:                                                                                                 #  SKEEP5 HOLDS B(X).
000211:                                                                                                 #  SKEEP4 HOLDS C(EBANK) DURING ERASLOOP AND CHECKNJ
000212:                                                                                                 #  SKEEP3 HOLDS LAST ADDRESS BEING CHECKED (HIGHEST ADDRESS).
000213:                                                                                                 #  SKEEP2 CONTROLS CHECKING OF NON-SWITCHABLE ERASABLE MEMORY WITH BANK NUMBERS IN EB.


000215:                                                                                                 #  ERASCHK TAKES APPROXIMATELY 7 SECONDS.
000216:
000217: 43,3271           34770        ERASCHK           CA       S+1
000218: 43,3272           55372                          TS       SKEEP2
000219: 43,3273           34772        0EBANK            CA       S+ZERO
000220: 43,3274           54003                          TS       EBANK
000221: 43,3275           35030                          CA       ERASCON3                              #  01461
000222: 43,3276           55377                          TS       SKEEP7                                #  STARTING ADDRESS
000223: 43,3277           35041                          CA       S10BITS                               #  01777
000224: 43,3300           55373                          TS       SKEEP3                                #  LAST ADDRESS CHECKED
000225: 43,3301           03321                          TC       ERASLOOP
000226:
000227: 43,3302           35024        E134567B          CA       ERASCON6                              #  01400
000228: 43,3303           55377                          TS       SKEEP7                                #  STARTING ADDRESS
000229: 43,3304           35041                          CA       S10BITS                               #  01777
000230: 43,3305           55373                          TS       SKEEP3                                #  LAST ADDRESS CHECKED
000231: 43,3306           03321                          TC       ERASLOOP
000232:
000233: 43,3307           35024        2EBANK            CA       ERASCON6                              #  01400
000234: 43,3310           55377                          TS       SKEEP7                                #  STARTING ADDRESS
000235: 43,3311           33170                          CA       ERASCON4                              #  01773
000236: 43,3312           55373                          TS       SKEEP3                                #  LAST ADDRESS CHECKED
000237: 43,3313           03321                          TC       ERASLOOP
000238:
000239: 43,3314           55372        NOEBANK           TS       SKEEP2                                #  +0
000240: 43,3315           33166                          CA       ERASCON1                              #  00061
000241: 43,3316           55377                          TS       SKEEP7                                #  STARTING ADDRESS
000242: 43,3317           33167                          CA       ERASCON2                              #  01373
000243: 43,3320           55373                          TS       SKEEP3                                #  LAST ADDRESS CHECKED
000244:
000245: 43,3321           00004        ERASLOOP          INHINT
000246: 43,3322           30003                          CA       EBANK                                 #  STORES C(EBANK)
000247: 43,3323           55374                          TS       SKEEP4
000248: 43,3324           00006                          EXTEND
000249: 43,3325           51377                          NDX      SKEEP7
000250: 43,3326           30001                          DCA      0000
000251: 43,3327           53376                          DXCH     SKEEP5                                #  STORES C(X) AND C(X+1) IN SKEEP6 AND 5.
000252: 43,3330           31377                          CA       SKEEP7
000253: 43,3331           55360                          TS       ERESTORE                              #  IF RESTART, RESTORE C(X) AND C(X+1)
000254: 43,3332           54001                          TS       L
000255: 43,3333           24001                          INCR     L
000256: 43,3334           50000                          NDX      A
000257: 43,3335           52001                          DXCH     0000                                  #  PUTS OWN ADDRESS IN X AND X +1
000258: 43,3336           51377                          NDX      SKEEP7
000259: 43,3337           40001                          CS       0001                                  #  CS X+1
000260: 43,3340           51377                          NDX      SKEEP7
000261: 43,3341           60000                          AD       0000                                  #  AD X
000262: 43,3342           03225                          TC       -1CHK
000263: 43,3343           31360                          CA       ERESTORE                              #  HAS ERASABLE BEEN RESTORED
000264: 43,3344           00006                          EXTEND
000265: 43,3345           13371                          BZF      ELOOPFIN                              #  YES, EXIT ERASLOOP.


000267: 43,3346           00006                          EXTEND
000268: 43,3347           51377                          NDX      SKEEP7
000269: 43,3350           40001                          DCS      0000                                  #  COMPLEMENT OF ADDRESS OF X AND X+1
000270: 43,3351           51377                          NDX      SKEEP7
000271: 43,3352           52001                          DXCH     0000                                  #  PUT COMPLEMENT OF ADDRESS OF X AND X+1
000272: 43,3353           51377                          NDX      SKEEP7
000273: 43,3354           40000                          CS       0000                                  #  CS X
000274: 43,3355           51377                          NDX      SKEEP7
000275: 43,3356           60001                          AD       0001                                  #  AD X+1
000276: 43,3357           03225                          TC       -1CHK
000277: 43,3360           31360                          CA       ERESTORE                              #  HAS ERASABLE BEEN RESTORED
000278: 43,3361           00006                          EXTEND
000279: 43,3362           13371                          BZF      ELOOPFIN                              #  YES, EXIT ERASLOOP.
000280: 43,3363           00006                          EXTEND
000281: 43,3364           31376                          DCA      SKEEP5
000282: 43,3365           51377                          NDX      SKEEP7
000283: 43,3366           52001                          DXCH     0000                                  #  PUT B(X) AND B(X+1) BACK INTO X AND X+1
000284: 43,3367           34772                          CA       S+ZERO
000285: 43,3370           55360                          TS       ERESTORE                              #  IF RESTART, DO NOT RESTORE C(X), C(X+1)
000286: 43,3371           00003        ELOOPFIN          RELINT
000287: 43,3372           03264                          TC       CHECKNJ                               #  CHECK FOR NEW JOB
000288: 43,3373           31374                          CA       SKEEP4                                #  REPLACES B(EBANK)
000289: 43,3374           54003                          TS       EBANK
000290: 43,3375           25377                          INCR     SKEEP7
000291: 43,3376           41377                          CS       SKEEP7
000292: 43,3377           61373                          AD       SKEEP3
000293: 43,3400           00006                          EXTEND
000294: 43,3401           13403                          BZF      +2
000295: 43,3402           03321                          TC       ERASLOOP                              #  GO TO NEXT ADDRESS IN SAME BANK
000296: 43,3403           11372                          CCS      SKEEP2
000297: 43,3404           03314                          TC       NOEBANK
000298: 43,3405           25372                          INCR     SKEEP2                                #  PUT +1 IN SKEEP2.
000299: 43,3406           30003                          CA       EBANK
000300: 43,3407           64760                          AD       SBIT9
000301: 43,3410           54003                          TS       EBANK
000302: 43,3411           63175                          AD       ERASCON5                              #  76777, CHECK FOR BANK E2
000303: 43,3412           00006                          EXTEND
000304: 43,3413           13307                          BZF      2EBANK
000305: 43,3414           10003                          CCS      EBANK
000306: 43,3415           03302                          TC       E134567B                              #  GO TO EBANKS 1,3,4,5,6, AND 7
000307: 43,3416           35024                          CA       ERASCON6                              #  END OF ERASCHK
000308: 43,3417           54003                          TS       EBANK
000309:
000310:                                                                                                 #  CNTRCHK PERFORMS A CS OF ALL REGISTERS FROM OCT. 60 THROUGH OCT. 10.
000311:                                                                                                 #  INCLUDED ARE ALL COUNTERS, T6-1, CYCLE AND SHIFT, AND ALL RUPT REGISTERS
000312:
000313: 43,3420           35004        CNTRCHK           CA       CNTRCON                               #  00050
000314: 43,3421           55372        CNTRLOOP          TS       SKEEP2
000315: 43,3422           64765                          AD       SBIT4                                 #  +10 OCTAL
000316: 43,3423           50000                          INDEX    A
000317: 43,3424           40000                          CS       0000
000318: 43,3425           11372                          CCS      SKEEP2


000320: 43,3426           03421                          TC       CNTRLOOP
000321:
000322:                                                                                                 #  CYCLSHFT CHECKS THE CYCLE AND SHIFT REGISTERS
000323:
000324: 43,3427           33173        CYCLSHFT          CA       CONC+S1                               #  25252
000325: 43,3430           54020                          TS       CYR                                   #  C(CYR) = 12525
000326: 43,3431           54022                          TS       CYL                                   #  C(CYL) = 52524
000327: 43,3432           54021                          TS       SR                                    #  C(SR) = 12525
000328: 43,3433           54023                          TS       EDOP                                  #  C(EDOP) = 00125
000329: 43,3434           60020                          AD       CYR                                   #  37777          C(CYR) = 45252
000330: 43,3435           60022                          AD       CYL                                   #  00-12524       C(CYL) = 25251
000331: 43,3436           60021                          AD       SR                                    #  00-25251       C(SR) = 05252
000332: 43,3437           60023                          AD       EDOP                                  #  00-25376       C(EDOP) = +0
000333: 43,3440           63174                          AD       CONC+S2                               #  C(CONC+S2) = 52400
000334: 43,3441           03225                          TC       -1CHK
000335: 43,3442           60020                          AD       CYR                                   #  45252
000336: 43,3443           60022                          AD       CYL                                   #  72523
000337: 43,3444           60021                          AD       SR                                    #  77775
000338: 43,3445           60023                          AD       EDOP                                  #  77775
000339: 43,3446           64770                          AD       S+1                                   #  77776
000340: 43,3447           03225                          TC       -1CHK
000341:
000342: 43,3450           25367                          INCR     SCOUNT     +1
000343: 43,3451           03233                          TC       SMODECHK
000344:
000345:                                                                                                 #  SKEEP1 HOLDS SUM
000346:                                                                                                 #  SKEEP2 HOLDS PRESENT CONTENTS OF ADDRESS IN ROPECHK AND SHOWSUM ROUTINES
000347:                                                                                                 #  SKEEP2 HOLDS BANK NUMBER IN LOW ORDER BITS DURING SHOWSUM DISPLAY
000348:                                                                                                 #  SKEEP3 HOLDS PRESENT ADDRESS (00000 TO 01777 IN COMMON FIXED BANKS)
000349:                                                                                                 #                                (04000 TO 07777 IN FXFX BANKS)
000350:                                                                                                 #  SKEEP3 HOLDS BUGGER WORD DURING SHOWSUM DISPLAY
000351:                                                                                                 #  SKEEP4 HOLDS BANK NUMBER AND SUPER BANK NUMBER
000352:                                                                                                 #  SKEEP5 COUNTS 2 SUCCESSIVE TC SELF WORDS
000353:                                                                                                 #  SKEEP6 CONTROLS ROPECHK OR SHOWSUM OPTION
000354:                                                                                                 #  SKEEP7 CONTROLS WHEN ROUTINE IS IN COMMON FIXED OR FIXED FIXED BANKS
000355:
000356: 43,3452           34771        ROPECHK           CA       S-ZERO                                #  *
000357: 43,3453           55376                          TS       SKEEP6                                #  * -0 FOR ROPECHK
000358: 43,3454           34772        STSHOSUM          CA       S+ZERO                                #  * SHOULD BE ROPECHK
000359:
000360: 43,3455           55374                          TS       SKEEP4                                #  BANK NUMBER
000361: 43,3456           34770                          CA       S+1
000362: 43,3457           55377        COMMFX            TS       SKEEP7
000363: 43,3460           34772                          CA       S+ZERO
000364: 43,3461           55371                          TS       SKEEP1
000365: 43,3462           55373                          TS       SKEEP3
000366: 43,3463           34770                          CA       S+1
000367: 43,3464           55375                          TS       SKEEP5                                #  COUNTS DOWN 2 TC SELF WORDS
000368: 43,3465           31374        COMADRS           CA       SKEEP4
000369: 43,3466           54001                          TS       L                                     #  TO SET SUPER BANK
000370: 43,3467           74344                          MASK     HI5
000371: 43,3470           61373                          AD       SKEEP3


000373: 43,3471           04671                          TC       SUPDACAL                              #  SUPER DATA CALL
000374: 43,3472           03515                          TC       ADSUM
000375: 43,3473           64756                          AD       SBIT11                                #  02000
000376: 43,3474           03526                          TC       ADRSCHK
000377:
000378: 43,3475           40000        FXFX              CS       A
000379: 43,3476           55377                          TS       SKEEP7
000380: 43,3477           00006                          EXTEND
000381: 43,3500           13503                          BZF      +3
000382: 43,3501           34755                          CA       SBIT12                                #  04000, STARTING ADDRESS OF BANK 02
000383: 43,3502           03504                          TC       +2
000384: 43,3503           35050                          CA       SBNK03                                #  06000, STARTING ADDRESS OF BANK 03
000385: 43,3504           55373                          TS       SKEEP3
000386: 43,3505           34772                          CA       S+ZERO
000387: 43,3506           55371                          TS       SKEEP1
000388: 43,3507           34770                          CA       S+1
000389: 43,3510           55375                          TS       SKEEP5                                #  COUNTS DOWN 2 TC SELF WORDS
000390: 43,3511           51373        FXADRS            INDEX    SKEEP3
000391: 43,3512           30000                          CA       0000
000392: 43,3513           03515                          TC       ADSUM
000393: 43,3514           03526                          TC       ADRSCHK
000394:
000395: 43,3515           55372        ADSUM             TS       SKEEP2
000396: 43,3516           61371                          AD       SKEEP1
000397: 43,3517           55371                          TS       SKEEP1
000398: 43,3520           34772                          CAF      S+ZERO
000399: 43,3521           61371                          AD       SKEEP1
000400: 43,3522           55371                          TS       SKEEP1
000401: 43,3523           41372                          CS       SKEEP2
000402: 43,3524           61373                          AD       SKEEP3
000403: 43,3525           00002                          TC       Q
000404:
000405: 43,3526           22000        ADRSCHK           LXCH     A
000406: 43,3527           31373                          CA       SKEEP3
000407: 43,3530           75041                          MASK     LOW10                                 #  RELATIVE ADDRESS
000408: 43,3531           64344                          AD       -MAXADRS                              #  SUBTRACT MAX RELATIVE ADDRESS = 1777.
000409: 43,3532           00006                          EXTEND
000410: 43,3533           13622                          BZF      SOPTION                               #  CHECKSUM FINISHED IF LAST ADDRESS.
000411: 43,3534           11375                          CCS      SKEEP5                                #  IS CHECKSUM FINISHED
000412: 43,3535           03540                          TC       +3                                    #  NO
000413: 43,3536           03540                          TC       +2                                    #  NO
000414: 43,3537           03622                          TC       SOPTION                               #  GO TO ROPECHK SHOWSUM OPTION
000415: 43,3540           10001                          CCS      L                                     #  -0 MEANS A TC SELF WORD.
000416: 43,3541           03550                          TC       CONTINU
000417: 43,3542           03550                          TC       CONTINU
000418: 43,3543           03550                          TC       CONTINU
000419: 43,3544           11375                          CCS      SKEEP5
000420: 43,3545           03551                          TC       CONTINU    +1
000421: 43,3546           37702                          CA       S-1
000422: 43,3547           03551                          TC       CONTINU    +1                         #  AD IN THE BUGGER WORD


000424: 43,3550           34770        CONTINU           CA       S+1                                   #  MAKE SURE TWO CONSECUTIVE TC SELF WORDS
000425: 43,3551           55375                          TS       SKEEP5
000426: 43,3552           11376                          CCS      SKEEP6                                #  *
000427: 43,3553           10067                          CCS      NEWJOB                                #  * +1, SHOWSUM
000428: 43,3554           05152                          TC       CHANG1                                #  *
000429: 43,3555           03557                          TC       +2                                    #  *
000430: 43,3556           03264                          TC       CHECKNJ                               #  -0 IN SKEEP6 FOR ROPECHK
000431:
000432: 43,3557           25373        ADRS+1            INCR     SKEEP3
000433: 43,3560           11377                          CCS      SKEEP7
000434: 43,3561           03465                          TC       COMADRS
000435: 43,3562           03465                          TC       COMADRS
000436: 43,3563           03511                          TC       FXADRS
000437: 43,3564           03511                          TC       FXADRS
000438:
000439: 43,3565           41374        NXTBNK            CS       SKEEP4
000440: 43,3566           63655                          AD       LSTBNKCH                              #  LAST BANK TO BE CHECKED
000441: 43,3567           00006                          EXTEND
000442: 43,3570           12764                          BZF      ENDSUMS                               #  END OF SUMMING OF BANKS.
000443: 43,3571           31374                          CA       SKEEP4
000444: 43,3572           64756                          AD       SBIT11
000445: 43,3573           55374                          TS       SKEEP4                                #  37 TO 40 INCRMTS SKEEP4 BY END RND CARRY
000446: 43,3574           03600                          TC       CHKSUPR
000447: 43,3575           34752        17TO20            CA       SBIT15
000448: 43,3576           27374                          ADS      SKEEP4                                #  SET FOR BANK 20
000449: 43,3577           03614                          TC       GONXTBNK
000450: 43,3600           74344        CHKSUPR           MASK     HI5
000451: 43,3601           00006                          EXTEND
000452: 43,3602           13612                          BZF      NXTSUPR                               #  INCREMENT SUPER BANK
000453: 43,3603           63172        27TO30            AD       S13BITS
000454: 43,3604           00006                          EXTEND
000455: 43,3605           13607                          BZF      +2                                    #  BANK SET FOR 30
000456: 43,3606           03614                          TC       GONXTBNK
000457: 43,3607           35010                          CA       SIXTY                                 #  FIRST SUPER BANK
000458: 43,3610           27374                          ADS      SKEEP4
000459: 43,3611           03614                          TC       GONXTBNK
000460: 43,3612           63171        NXTSUPR           AD       SUPRCON                               #  SET BNK 30 + INCR SUPR BNK AND CANCEL
000461: 43,3613           27374                          ADS      SKEEP4                                #  ERC BIT OF THE 37 TO 40 ADVANCE.
000462: 43,3614           11377        GONXTBNK          CCS      SKEEP7
000463: 43,3615           03457                          TC       COMMFX
000464: 43,3616           34770                          CA       S+1
000465: 43,3617           03475                          TC       FXFX
000466: 43,3620           34762                          CA       SBIT7                                 #  HAS TO BE LARGER THAN NO OF FXSW BANKS.
000467: 43,3621           03457                          TC       COMMFX
000468:
000469: 43,3622           31374        SOPTION           CA       SKEEP4
000470: 43,3623           74344                          MASK     HI5                                   #  = BANK BITS
000471: 43,3624           04333                          TC       LEFT5
000472: 43,3625           54001                          TS       L                                     #  BANK NUMBER BEFORE SUPER BANK
000473: 43,3626           31374                          CA       SKEEP4


000475: 43,3627           74350                          MASK     S8BITS                                #  = SUPER BANK BITS
000476: 43,3630           00006                          EXTEND
000477: 43,3631           13637                          BZF      SOPT                                  #  BEFORE SUPER BANK
000478: 43,3632           54021                          TS       SR                                    #  SUPER BANK NECESSARY
000479: 43,3633           30001                          CA       L
000480: 43,3634           74774                          MASK     SEVEN
000481: 43,3635           60021                          AD       SR
000482: 43,3636           54001                          TS       L                                     #  BANK NUMBER WITH SUPER BANK
000483: 43,3637           31376        SOPT              CA       SKEEP6                                #  *
000484: 43,3640           00006                          EXTEND                                         #  *
000485: 43,3641           13643                          BZF      +2                                    #  * ON -0 CONTINUE WITH ROPE CHECK.
000486: 43,3642           02746                          TC       SDISPLAY                              #  * ON +1 GO TO DISPLAY OF SUM.
000487: 43,3643           11371                          CCS      SKEEP1                                #  FORCE SUM TO ABSOLUTE VALUE.
000488: 43,3644           03646                          TC       +2
000489: 43,3645           03647                          TC       +2
000490: 43,3646           64770                          AD       S+1
000491: 43,3647           55371                          TS       SKEEP1
000492: 43,3650           40001        BNKCHK            CS       L                                     #  = - BANK NUMBER
000493: 43,3651           61371                          AD       SKEEP1
000494: 43,3652           67702                          AD       S-1
000495: 43,3653           03225                          TC       -1CHK                                 #  CHECK SUM
000496: 43,3654           03565                          TC       NXTBNK
000497:
000498: 43,3655     0067                                 EBANK=   NEWJOB
000499: 43,3655           66100        LSTBNKCH          BBCON*                                         #  * CONSTANT, LAST BANK.
000500:
000501: 43,3656  30,2000                                 SBANK=   LOWSUPER

End of include-file AGC_BLOCK_TWO_SELF-CHECK.agc.  Parent file is MAIN.agc


