
Source Code


000002:                                                                                                  #  Copyright:    Public domain.
000003:                                                                                                  #  Filename:     ALARM_AND_ABORT.agc
000004:                                                                                                  #  Purpose:      Part of the source code for Artemis (i.e., Colossus 3),
000005:                                                                                                  #                build 072.  This is for the Command Module's (CM)
000006:                                                                                                  #                Apollo Guidance Computer (AGC), we believe for
000007:                                                                                                  #                Apollo 15-17.
000008:                                                                                                  #  Assembler:    yaYUL
000009:                                                                                                  #  Contact:      Jim Lawton <jim DOT lawton AT gmail DOT com>
000010:                                                                                                  #  Website:      www.ibiblio.org/apollo/index.html
000011:                                                                                                  #  Page Scans:   www.ibiblio.org/apollo/ScansForConversion/Artemis072/
000012:                                                                                                  #  Mod history:  2009-08-18 JL   Adapted from corresponding Comanche 055 file.
000013:                                                                                                  #                2010-02-10 JL   Fixed error on p1488.
000014:                                                                                                  #                2010-02-20 RSB  Un-##'d this header.
000015:


000017:
000018:                                                                                                  #  THE FOLLOWING SUBROUTINE MAY BE CALLED TO DISPLAY A NON-ABORTIVE ALARM CONDITION. IT MAY BE CALLED
000019:                                                                                                  #  EITHER IN INTERRUPT OR UNDER EXECUTIVE CONTROL.
000020:
000021:                                                                                                  #        CALLING SEQUENCE IS AS FOLLOWS:
000022:
000023:                                                                                                  #        TC      ALARM
000024:                                                                                                  #        OCT     NNNNN
000025:                                                                                                  #                                (RETURNS HERE)
000026:
000027:    4000                                           SETLOC   FFTAG7
000028:    4000                                           BANK
000029:
000030:    5671     0375                                  EBANK=   FAILREG
000031:
000032:    5671                                           COUNT*   $$/ALARM
000033:
000034:                                                                                                  #  ALARM TURNS ON THE PROGRAM ALARM LIGHT, BUT DOES NOT DISPLAY.
000035:
000036:    5671           00004        ALARM              INHINT
000037:
000038:    5672           30002                           CA       Q
000039:    5673           55363        ALARM2             TS       ALMCADR
000040:    5674           50002                           INDEX    Q
000041:    5675           30000                           CA       0
000042:    5676           54001        BORTENT            TS       L
000043:
000044:    5677           30006        PRIOENT            CA       BBANK
000045:    5700           00006                 +1        EXTEND
000046:    5701           04007                           ROR      SUPERBNK                              #  ADD SUPER BITS.
000047:    5702           55364                           TS       ALMCADR    +1
000048:
000049:    5703           30002        LARMENT            CA       Q                                     #  STORE RETURN FOR ALARM
000050:    5704           54061                           TS       ITEMP1
000051:
000052:    5705           10375        CHKFAIL1           CCS      FAILREG                               #  IS ANYTHING IN FAILREG
000053:    5706           15712                           TCF      CHKFAIL2                              #  YES TRY NEXT REG
000054:    5707           30001                           CA       L
000055:    5710           54375                           TS       FAILREG
000056:    5711           15716                           TCF      PROGLARM                              #  TURN ALARM LIGHT ON FOR FIRST ALARM
000057:
000058:    5712           10376        CHKFAIL2           CCS      FAILREG    +1
000059:    5713           15716                           TCF      PROGLARM
000060:    5714           30001                           CA       L
000061:    5715           54376                           TS       FAILREG    +1
000062:
000063:    5716           22377        PROGLARM           LXCH     FAILREG    +2                         #  STORE AS "MOST RECENT" ALARM CODE
000064:
000065:    5717           41241                           CS       DSPTAB     +11D                       #  TURN ON PROGRAM ALARM IF OFF
000066:    5720           77716                           MASK     BIT15+9
000067:    5721           27241                           ADS      DSPTAB     +11D
000068:
000069:    5722           56061        MULTEXIT           XCH      ITEMP1                                #  OBTAIN RETURN ADDRESS IN A


000071:    5723           00003                           RELINT
000072:    5724           50000                           INDEX    A
000073:    5725           00001                           TC       1
000074:
000075:                                                                                                  #  PRIOLARM DISPLAYS V05N09 VIA PRIODSPR WITH 3 RETURNS TO THE USER FROM THE ASTRONAUT AT CALL LOC +1,+2,+3 AND
000076:                                                                                                  #  AN IMMEDIATE RETURN TO THE USER AT CALL LOC +4. EXAMPLE FOLLOWS,
000077:                                                                                                  #                CAF     OCTXX           # ALARM CODE
000078:                                                                                                  #                TC      BANKCALL
000079:                                                                                                  #                CADR    PRIOLARM
000080:
000081:                                                                                                  #                ...     ...
000082:                                                                                                  #                ...     ...
000083:                                                                                                  #                ...     ...             # ASTRONAUT RETURN
000084:                                                                                                  #                TC      PHASCHNG        # IMMEDIATE RETURN TO USER. RESTART
000085:                                                                                                  #                OCT     X.1             # PHASE CHANGE FOR PRIO DISPLAY
000086:
000087: 10,2000                                           SETLOC   DISPLAYS
000088: 10,2000                                           BANK
000089:
000090: 10,3766                                           COUNT*   $$/DSPLA
000091: 10,3766           00004        PRIOLARM           INHINT                                         #  * * * KEEP IN DISPLAY ROUTINES BANK
000092: 10,3767           54001                           TS       L                                     #  SAVE ALARM CODE
000093:
000094: 10,3770           30133                           CA       BUF2                                  #  2 CADR OF PRIOLARM USER
000095: 10,3771           55363                           TS       ALMCADR
000096: 10,3772           30134                           CA       BUF2       +1
000097: 10,3773           05700                           TC       PRIOENT    +1                         #  * LEAVE L ALONE
000098: 10,3774           77467        -2SEC              DEC      -200       B-14                       #  *** DONT MOVE
000099: 10,3775           35023                           CAF      V05N09
000100: 10,3776           12750                           TCF      PRIODSPR
000101:
000102:    6000                                           SETLOC   FFTAG13
000103:    6000                                           BANK
000104:
000105:    7706                                           COUNT*   $$/ALARM
000106:    7706           00004        BAILOUT            INHINT
000107:    7707           30002                           CA       Q
000108:    7710           55363                           TS       ALMCADR
000109:
000110:    7711           04636                           TC       BANKCALL
000111:    7712           40000                           CADR     VAC5STOR
000112:
000113:    7713           51363                           INDEX    ALMCADR
000114:    7714           30000                           CAF      0
000115:    7715           05676                           TC       BORTENT
000116:    7716           40400        BIT15+9            OCT      40400
000117:
000118:    7717           00004                 -1        INHINT
000119:    7720           34767        WHIMPER            CA       TWO
000120:    7721           60005                           AD       Z


000122:    7722           54017                           TS       BRUPT
000123:    7723           50017                           RESUME
000124:    7724           04655                           TC       POSTJUMP                              #  RESUME SENDS CONTROL HERE
000125:    7725           12712                           CADR     ENEMA
000126:
000127:    4000                                           SETLOC   FFTAG7
000128:    4000                                           COUNT*   $$/ALARM
000129:    4000                                           BANK
000130:
000131:    5726           00004        POODOO             INHINT
000132:    5727           30002                           CA       Q
000133:    5730           55363                           TS       ALMCADR
000134:
000135:    5731           04636                           TC       BANKCALL
000136:    5732           40000                           CADR     VAC5STOR                              #  STORE ERASABLES FOR DEBUGGING PURPOSES.
000137:
000138:    5733           51363                           INDEX    ALMCADR
000139:    5734           30000                           CAF      0
000140:    5735           05676        ABORT2             TC       BORTENT
000141:
000142:    5736           77770        OCT77770           OCT      77770                                 #  DONT MOVE
000143:    5737           34763                           CA       V37FLBIT                              #  IS AVERAGE G ON
000144:    5740           70103                           MASK     FLAGWRD7
000145:    5741           10000                           CCS      A
000146:    5742           07717                           TC       WHIMPER    -1                         #  YES.  DONT DO POODOO.  DO BAILOUT.
000147:
000148:    5743           44753                           CS       BIT14                                 #  DISREGARD ENTRY SETTING
000149:    5744           71247                           MASK     EXTVBACT                              #  EXTENDED VBS ACTIVITY?
000150:    5745           10000                           CCS      A
000151:    5746           17717                           TCF      WHIMPER    -1                         #  YES.  DONT DO POODOO.  DO BAILOUT.
000152:
000153:    5747           05561                           TC       DOWNFLAG
000154:    5750           00067                           ADRES    STATEFLG
000155:
000156:    5751           05561                           TC       DOWNFLAG
000157:    5752           00236                           ADRES    AUTOSEQ
000158:
000159:    5753           05561                           TC       DOWNFLAG
000160:    5754           00230                           ADRES    REINTFLG
000161:
000162:    5755           05561                           TC       DOWNFLAG
000163:    5756           00176                           ADRES    UTFLAG
000164:    5757           05561                           TC       DOWNFLAG
000165:    5760           00010                           ADRES    RNDVZFLG
000166:    5761           05561                           TC       DOWNFLAG
000167:    5762           00031                           ADRES    TRACKFLG                              #  FORCE STOPRATE
000168:    5763           05561                           TC       DOWNFLAG
000169:    5764           00054                           ADRES    NODOFLAG
000170:
000171:    5765           04636                           TC       BANKCALL


000173:    5766           12536                           CADR     MR.KLEAN
000174:    5767           07720                           TC       WHIMPER
000175:
000176:    5770     5205               DOALARM            EQUALS   ENDOFJOB
000177:
000178:                                                                                                  #  CALLING SEQUENCE FOR VARALARM
000179:                                                                                                  #                CAF     (ALARM)
000180:                                                                                                  #                TC      VARALARM
000181:
000182:                                                                                                  #  VARALARM TURNS ON PROGRAM ALARM LIGHT BUT DOES NOT DISPLAY
000183:
000184:    5770           00004        VARALARM           INHINT
000185:
000186:    5771           54001                           TS       L                                     #  SAVE USERS ALARM CODE
000187:
000188:    5772           30002                           CA       Q                                     #  SAVE USERS Q
000189:    5773           55363                           TS       ALMCADR
000190:
000191:    5774           05677                           TC       PRIOENT
000192:    5775           00014        OCT14              OCT      14                                    #  DONT MOVE
000193:
000194:    5776           01363                           TC       ALMCADR                               #  RETURN TO USER
000195:
000196:    5777     7706               ABORT              EQUALS   BAILOUT                               #  *** TEMPORARY UNTIL ABORT CALLS OUT

End of include-file ALARM_AND_ABORT.agc.  Parent file is MAIN.agc


