
Source Code


000002:                                                                                                  ## Copyright:   Public domain.
000003:                                                                                                  ## Filename:    ALARM_AND_ABORT.agc
000004:                                                                                                  ## Purpose:     Part of the source code for Artemis (i.e., Colossus 3),
000005:                                                                                                  ##              build 072.  This is for the Command Module's (CM)
000006:                                                                                                  ##              Apollo Guidance Computer (AGC), for
000007:                                                                                                  ##              Apollo 15-17.
000008:                                                                                                  ## Assembler:   yaYUL
000009:                                                                                                  ## Contact:     Jim Lawton <jim DOT lawton AT gmail DOT com>
000010:                                                                                                  ## Website:     www.ibiblio.org/apollo/index.html
000011:                                                                                                  ## Page Scans:  www.ibiblio.org/apollo/ScansForConversion/Artemis072/
000012:                                                                                                  ## Mod history: 2009-08-18 JL   Adapted from corresponding Comanche 055 file.
000013:                                                                                                  ##              2010-02-10 JL   Fixed error on p1488.
000014:                                                                                                  ##              2010-02-20 RSB  Un-##'d this header.
000015:                                                                                                  ##              2017-01-21 RSB  Proofed comment text by diff'ing vs Comanche 55
000016:                                                                                                  ##                              and corrected errors found.
000017:


000019:
000020:                                                                                                  #  THE FOLLOWING SUBROUTINE MAY BE CALLED TO DISPLAY A NON-ABORTIVE ALARM CONDITION. IT MAY BE CALLED
000021:                                                                                                  #  EITHER IN INTERRUPT OR UNDER EXECUTIVE CONTROL.
000022:
000023:                                                                                                  #        CALLING SEQUENCE IS AS FOLLOWS:
000024:
000025:                                                                                                  #        TC      ALARM
000026:                                                                                                  #        OCT     NNNNN
000027:                                                                                                  #                                (RETURNS HERE)
000028:
000029:    4000                                           SETLOC   FFTAG7
000030:    4000                                           BANK
000031:
000032:    5671     0375                                  EBANK=   FAILREG
000033:
000034:    5671                                           COUNT*   $$/ALARM
000035:
000036:                                                                                                  #  ALARM TURNS ON THE PROGRAM ALARM LIGHT, BUT DOES NOT DISPLAY.
000037:
000038:    5671           00004        ALARM              INHINT
000039:
000040:    5672           30002                           CA       Q
000041:    5673           55363        ALARM2             TS       ALMCADR
000042:    5674           50002                           INDEX    Q
000043:    5675           30000                           CA       0
000044:    5676           54001        BORTENT            TS       L
000045:
000046:    5677           30006        PRIOENT            CA       BBANK
000047:    5700           00006                 +1        EXTEND
000048:    5701           04007                           ROR      SUPERBNK                              #  ADD SUPER BITS.
000049:    5702           55364                           TS       ALMCADR    +1
000050:
000051:    5703           30002        LARMENT            CA       Q                                     #  STORE RETURN FOR ALARM
000052:    5704           54061                           TS       ITEMP1
000053:
000054:    5705           10375        CHKFAIL1           CCS      FAILREG                               #  IS ANYTHING IN FAILREG
000055:    5706           15712                           TCF      CHKFAIL2                              #  YES TRY NEXT REG
000056:    5707           30001                           CA       L
000057:    5710           54375                           TS       FAILREG
000058:    5711           15716                           TCF      PROGLARM                              #  TURN ALARM LIGHT ON FOR FIRST ALARM
000059:
000060:    5712           10376        CHKFAIL2           CCS      FAILREG    +1
000061:    5713           15716                           TCF      PROGLARM
000062:    5714           30001                           CA       L
000063:    5715           54376                           TS       FAILREG    +1
000064:
000065:    5716           22377        PROGLARM           LXCH     FAILREG    +2                         #  STORE AS "MOST RECENT" ALARM CODE
000066:
000067:    5717           41241                           CS       DSPTAB     +11D                       #  TURN ON PROGRAM ALARM IF OFF
000068:    5720           77716                           MASK     BIT15+9
000069:    5721           27241                           ADS      DSPTAB     +11D
000070:
000071:    5722           56061        MULTEXIT           XCH      ITEMP1                                #  OBTAIN RETURN ADDRESS IN A


000073:    5723           00003                           RELINT
000074:    5724           50000                           INDEX    A
000075:    5725           00001                           TC       1
000076:
000077:                                                                                                  #  PRIOLARM DISPLAYS V05N09 VIA PRIODSPR WITH 3 RETURNS TO THE USER FROM THE ASTRONAUT AT CALL LOC +1,+2,+3 AND
000078:                                                                                                  #  AN IMMEDIATE RETURN TO THE USER AT CALL LOC +4. EXAMPLE FOLLOWS,
000079:                                                                                                  #                CAF     OCTXX           ALARM CODE
000080:                                                                                                  #                TC      BANKCALL
000081:                                                                                                  #                CADR    PRIOLARM
000082:
000083:                                                                                                  #                ...     ...
000084:                                                                                                  #                ...     ...
000085:                                                                                                  #                ...     ...             ASTRONAUT RETURN
000086:                                                                                                  #                TC      PHASCHNG        IMMEDIATE RETURN TO USER. RESTART
000087:                                                                                                  #                OCT     X.1             PHASE CHANGE FOR PRIO DISPLAY
000088:
000089: 10,2000                                           SETLOC   DISPLAYS
000090: 10,2000                                           BANK
000091:
000092: 10,3766                                           COUNT*   $$/DSPLA
000093: 10,3766           00004        PRIOLARM           INHINT                                         #  * * * KEEP IN DISPLAY ROUTINES BANK
000094: 10,3767           54001                           TS       L                                     #  SAVE ALARM CODE
000095:
000096: 10,3770           30133                           CA       BUF2                                  #  2 CADR OF PRIOLARM USER
000097: 10,3771           55363                           TS       ALMCADR
000098: 10,3772           30134                           CA       BUF2       +1
000099: 10,3773           05700                           TC       PRIOENT    +1                         #  * LEAVE L ALONE
000100: 10,3774           77467        -2SEC              DEC      -200       B-14                       #  *** DONT MOVE
000101: 10,3775           35023                           CAF      V05N09
000102: 10,3776           12750                           TCF      PRIODSPR
000103:
000104:    6000                                           SETLOC   FFTAG13
000105:    6000                                           BANK
000106:
000107:    7706                                           COUNT*   $$/ALARM
000108:    7706           00004        BAILOUT            INHINT
000109:    7707           30002                           CA       Q
000110:    7710           55363                           TS       ALMCADR
000111:
000112:    7711           04636                           TC       BANKCALL
000113:    7712           40000                           CADR     VAC5STOR
000114:
000115:    7713           51363                           INDEX    ALMCADR
000116:    7714           30000                           CAF      0
000117:    7715           05676                           TC       BORTENT
000118:    7716           40400        BIT15+9            OCT      40400
000119:
000120:    7717           00004                 -1        INHINT
000121:    7720           34767        WHIMPER            CA       TWO
000122:    7721           60005                           AD       Z


000124:    7722           54017                           TS       BRUPT
000125:    7723           50017                           RESUME
000126:    7724           04655                           TC       POSTJUMP                              #  RESUME SENDS CONTROL HERE
000127:    7725           12712                           CADR     ENEMA
000128:
000129:    4000                                           SETLOC   FFTAG7
000130:    4000                                           COUNT*   $$/ALARM
000131:    4000                                           BANK
000132:
000133:    5726           00004        POODOO             INHINT
000134:    5727           30002                           CA       Q
000135:    5730           55363                           TS       ALMCADR
000136:
000137:    5731           04636                           TC       BANKCALL
000138:    5732           40000                           CADR     VAC5STOR                              #  STORE ERASABLES FOR DEBUGGING PURPOSES.
000139:
000140:    5733           51363                           INDEX    ALMCADR
000141:    5734           30000                           CAF      0
000142:    5735           05676        ABORT2             TC       BORTENT
000143:
000144:    5736           77770        OCT77770           OCT      77770                                 #  DONT MOVE
000145:    5737           34763                           CA       V37FLBIT                              #  IS AVERAGE G ON
000146:    5740           70103                           MASK     FLAGWRD7
000147:    5741           10000                           CCS      A
000148:    5742           07717                           TC       WHIMPER    -1                         #  YES.  DONT DO POODOO.  DO BAILOUT.
000149:
000150:    5743           44753                           CS       BIT14                                 #  DISREGARD ENTRY SETTING
000151:    5744           71247                           MASK     EXTVBACT                              #  EXTENDED VBS ACTIVE?
000152:    5745           10000                           CCS      A
000153:    5746           17717                           TCF      WHIMPER    -1                         #  YES  DONT DO POODOO  DO BAILOUT
000154:
000155:    5747           05561                           TC       DOWNFLAG
000156:    5750           00067                           ADRES    STATEFLG
000157:
000158:    5751           05561                           TC       DOWNFLAG
000159:    5752           00236                           ADRES    AUTOSEQ
000160:
000161:    5753           05561                           TC       DOWNFLAG
000162:    5754           00230                           ADRES    REINTFLG
000163:
000164:    5755           05561                           TC       DOWNFLAG
000165:    5756           00176                           ADRES    UTFLAG
000166:    5757           05561                           TC       DOWNFLAG
000167:    5760           00010                           ADRES    RNDVZFLG
000168:    5761           05561                           TC       DOWNFLAG
000169:    5762           00031                           ADRES    TRACKFLG                              #  FORCE STOPRATE
000170:    5763           05561                           TC       DOWNFLAG
000171:    5764           00054                           ADRES    NODOFLAG
000172:
000173:    5765           04636                           TC       BANKCALL


000175:    5766           12536                           CADR     MR.KLEAN
000176:    5767           07720                           TC       WHIMPER
000177:
000178:    5770     5205               DOALARM            EQUALS   ENDOFJOB
000179:
000180:                                                                                                  #  CALLING SEQUENCE FOR VARALARM
000181:                                                                                                  #                CAF     (ALARM)
000182:                                                                                                  #                TC      VARALARM
000183:
000184:                                                                                                  #  VARALARM TURNS ON PROGRAM ALARM LIGHT BUT DOES NOT DISPLAY
000185:
000186:    5770           00004        VARALARM           INHINT
000187:
000188:    5771           54001                           TS       L                                     #  SAVE USERS ALARM CODE
000189:
000190:    5772           30002                           CA       Q                                     #  SAVE USERS Q
000191:    5773           55363                           TS       ALMCADR
000192:
000193:    5774           05677                           TC       PRIOENT
000194:    5775           00014        OCT14              OCT      14                                    #  DONT MOVE
000195:
000196:    5776           01363                           TC       ALMCADR                               #  RETURN TO USER
000197:
000198:    5777     7706               ABORT              EQUALS   BAILOUT                               #  *** TEMPORARY UNTIL ABORT CALLS OUT

End of include-file ALARM_AND_ABORT.agc.  Parent file is MAIN.agc


