
Source Code


000002:                                                                                                  ## Copyright:   Public domain.
000003:                                                                                                  ## Filename:    CM_BODY_ATTITUDE.agc
000004:                                                                                                  ## Purpose:     Part of the source code for Artemis (i.e., Colossus 3),
000005:                                                                                                  ##              build 072.  This is for the Command Module's (CM)
000006:                                                                                                  ##              Apollo Guidance Computer (AGC), for
000007:                                                                                                  ##              Apollo 15-17.
000008:                                                                                                  ## Assembler:   yaYUL
000009:                                                                                                  ## Contact:     Steve Case <case.steve@gmail.com>
000010:                                                                                                  ## Website:     www.ibiblio.org/apollo/index.html
000011:                                                                                                  ## Page Scans:  www.ibiblio.org/apollo/ScansForConversion/Artemis072/
000012:                                                                                                  ## Mod history: 2009-08-20 SMC  Adapted from Comanche055 files.
000013:                                                                                                  ##              2009-09-14 JL   Fix typos. Fix page numbers. Remove change comments.
000014:                                                                                                  ##                              Remove RELINT. Restore hard tabs.
000015:                                                                                                  ##              2010-02-20 RSB  Un-##'d this header.
000016:                                                                                                  ##              2017-01-21 RSB  Proofed comment text by diff'ing vs Comanche 55
000017:                                                                                                  ##                              and corrected errors found.
000018:                                                                                                  ##              2017-03-16 RSB  Comment-text fixes identified in 4-way side-by-side
000019:                                                                                                  ##                              diff of Colossus237/249/Comanche55/Artemis72.
000020:


000022: 37,2000                                           SETLOC   BODYATT
000023: 37,2000                                           BANK
000024:
000025: 37,3404                                           COUNT*   $$/CMBAT
000026:                                                                                                  #                PDL 12D - 15D SAFE.
000027:
000028:                                                                                                  #    VALUES OF GIMBAL AND BODY ANGLES VALID AT PIP TIME ARE SAVED DURING    READACCS.
000029:
000030: 37,3404  E7,1451                                  EBANK=   RTINIT                                #  LET INTERPRETER SET EB
000031:
000032: 37,3404           06006        CM/POSE            TC       INTPRET                               #  COME HERE VIA AVEGEXIT.
000033:
000034: 37,3405           77201                           SETPD    VLOAD
000035: 37,3406           00001                                    0
000036: 37,3407           01036                                    VN                                    #  KVSCALE = (12800/ .3048) /2VS
000037: 37,3410           63361                           VXSC     PDVL
000038: 37,3411           37700                                    -KVSCALE                              #  KVSCALE = .81491944
000039: 37,3412           01712                                    UNITW                                 #  FULL UNIT VECTOR
000040: 37,3413           74235                           VXV      VXSC                                  #  VREL = V - WE*R
000041: 37,3414           01756                                    UNITR
000042: 37,3415           15246                                    KWE
000043: 37,3416           45455                           VAD      STADR
000044: 37,3417           74251                           STORE    -VREL                                 #  SAVE FOR ENTRY GUIDANCE.      REF COORDS
000045:
000046: 37,3420           72056                           UNIT     LXA,1
000047: 37,3421           00044                                    36D                                   #  ABVAL( -VREL) TO X1
000048: 37,3422           03542                           STORE    UXA/2                                 #  -UVREL                        REF COORDS
000049:
000050: 37,3423           57435                           VXV      VCOMP
000051: 37,3424           01756                                    UNITR                                 #  .5 UNIT                       REF COORDS
000052: 37,3425           66256                           UNIT     SSP                                   #  THE FOLLOWING IS TO PROVIDE A STABLE
000053: 37,3426           00051                                    S1                                    #  UN FOR THE END OF THE TERMINAL PHASE.
000054: 37,3427           00476        SPVQUIT            DEC      .019405                               #  1000/ 2 VS
000055: 37,3430           77300                           TIX,1    VLOAD                                 #  IF V-VQUIT POS, BRANCH.
000056: 37,3431           77433                                    CM/POSE2                              #  SAVE UYA IN OLDUYA
000057: 37,3432           03534                                    OLDUYA                                #  OTHERWISE CONTINUE TO USE OLDUYA.
000058: 37,3433           03550        CM/POSE2           STORE    UYA/2                                 #                                REF COORDS
000059:
000060: 37,3434           03534                           STORE    OLDUYA                                #  RESTORE, OR SAVE AS CASE MAY BE.
000061:
000062: 37,3435           57435                           VXV      VCOMP
000063: 37,3436           03542                                    UXA/2                                 #  FINISH OBTAINING TRAJECTORY TRIAD.
000064: 37,3437           77772                           VSL1
000065: 37,3440           03556                           STORE    UZA/2                                 #                                REF COORDS
000066:
000067: 37,3441           77751                           TLOAD                                          #  PICK UP CDUX, CDUY, CDUZ CORRESPONDING
000068: 37,3442           03270                                    AOG/PIP                               #  TO PIPUP TIME IN 2S,C AND SAVE.
000069: 37,3443           14031        CM/TRIO            STODL    24D


000071: 37,3444           00032                                    25D                                   #  AIG/PIP
000072:
000073: 37,3445           41434                           RTB      PUSH                                  #  TO PDL0
000074: 37,3446           51754                                    CDULOGIC
000075: 37,3447           77746                           COS
000076: 37,3450           17564                           STODL    UBX/2                                 #  CI /2
000077:                                                                                                  #  AIG/PIP FROM PDL 0
000078: 37,3451           57556                           SIN      DCOMP
000079: 37,3452           17570                           STODL    UBX/2      +4                         #  -SI /2
000080: 37,3453           00033                                    26D                                   #  AMG/PIP
000081: 37,3454           41434                           RTB      PUSH                                  #  TO PDL 0
000082: 37,3455           51754                                    CDULOGIC
000083: 37,3456           65356                           SIN      PDDL                                  #  XCH PDL 0. SAVE SM /2
000084: 37,3457           65346                           COS      PDDL                                  #  CM /2 TO PDL 2
000085: 37,3460           00001                                    0                                     #  SM /2
000086: 37,3461           74276                           DCOMP    VXSC
000087: 37,3462           03564                                    UBX/2
000088: 37,3463           77772                           VSL1                                           #  NOISE WONT OVFL.
000089: 37,3464           17572                           STODL    UBY/2                                 #  =(-SMCI, NOISE, SMSI)/2
000090: 37,3465           00003                                    2                                     #  CM /2 REPLACES NOISE
000091: 37,3466           17574                           STODL    UBY/2      +2                         #  UBY/2=(-SMCI, CM, SMSI)/2
000092: 37,3467           00031                                    24D                                   #  AOG/PIP
000093: 37,3470           41434                           RTB      PUSH                                  #  TO PDL 4
000094: 37,3471           51754                                    CDULOGIC
000095: 37,3472           65356                           SIN      PDDL                                  #  XCH PDL 4. SAVE SO /2
000096: 37,3473           74346                           COS      VXSC                                  #  CO /2
000097: 37,3474           03572                                    UBY/2
000098: 37,3475           17572                           STODL    UBY/2                                 #  UBY/2=(-COSMCI, COCM, COSMSI)/4
000099: 37,3476           00005                                    4D                                    #  SO /2
000100: 37,3477           57405                           DMP      DCOMP
000101: 37,3500           03570                                    UBX/2      +4                         #  -SI /2
000102: 37,3501           77615                           DAD
000103: 37,3502           03572                                    UBY/2                                 #   INCREMENT BY (SOSI /4)
000104: 37,3503           17572                           STODL    UBY/2
000105:                                                                                                  #  SO /2 FROM PDL 4
000106: 37,3504           43205                           DMP      DAD
000107: 37,3505           03564                                    UBX/2                                 #  CI /2
000108: 37,3506           03576                                    UBY/2      +4
000109: 37,3507           27576                           STOVL    UBY/2      +4                         #  YB/4                          PLATFORM COORDS
000110:
000111:                                                                                                  #  YB = (-COSMCI + SOSI , COCM , COSMSI + SOCI )
000112:
000113: 37,3510           03572                                    UBY/2
000114: 37,3511           72505                           VXM      VSL2
000115: 37,3512           01734                                    REFSMMAT                              #  .5 UNIT
000116: 37,3513           17572                           STODL    UBY/2                                 #  YB/2  DONE                    REF COORDS
000117:
000118:                                                                                                  #  CM /2 FROM PDL 2
000119: 37,3514           76561                           VXSC     VSL1
000120: 37,3515           03564                                    UBX/2


000122: 37,3516           17564                           STODL    UBX/2                                 #  =( CMCI, NOISE, -CMSI)/2
000123: 37,3517           77626                           STADR                                          #  SM /2 FROM PDL 0
000124: 37,3520           50211                           STOVL    UBX/2      +2                         #  SM /2 REPLACES NOISE
000125: 37,3521           03564                                    UBX/2                                 #  XB/2                          PLATFORM COORDS
000126:
000127:                                                                                                  #  XB = ( CMCI , SM , -CMSI )
000128:
000129: 37,3522           76505                           VXM      VSL1
000130: 37,3523           01734                                    REFSMMAT                              #  .5 UNIT
000131: 37,3524           03564                           STORE    UBX/2                                 #  XB/2 DONE                     REF COORDS
000132:
000133: 37,3525           76435                           VXV      VSL1
000134: 37,3526           03572                                    UBY/2
000135: 37,3527           27600                           STOVL    UBZ/2                                 #  ZB/2 DONE                     REF COORDS
000136:
000137:                                                                                                  #  EQUIVALENT TO
000138:                                                                                                  #  ZB = ( SOSMCI + COSI , -SOCM , -SOSMSI + COCI)
000139:
000140: 37,3530           03542                                    UXA/2                                 #  -UVREL/2 = -UVA/2
000141: 37,3531           53435                           VXV      UNIT                                  #  GET UNIT(-UVREL*UBY)/2  = UL/2
000142: 37,3532           03572                                    UBY/2                                 #  YB/2
000143: 37,3533           50206                           PUSH     DOT                                   #  UL/2  TO PDL 0,5
000144: 37,3534           03556                                    UZA/2                                 #  UNA/2
000145: 37,3535           24021                           STOVL    COSTH                                 #  COS(ROLL)/4
000146: 37,3536           00001                                    0                                     #  UL/2
000147:
000148: 37,3537           77641                           DOT
000149: 37,3540           03550                                    UYA/2
000150: 37,3541           34023                           STCALL   SINTH                                 #  -SIN(ROLL)/4
000151: 37,3542           47311                                    ARCTRIG
000152: 37,3543           24007                           STOVL    6D                                    #  -(ROLL/180) /2
000153: 37,3544           03572                                    UBY/2
000154: 37,3545           72441                           DOT      SL1                                   #  -UVA.UBY = -SIN(BETA)
000155: 37,3546           03542                                    UXA/2                                 #  -UVREL/2
000156: 37,3547           77736                           ARCSIN
000157: 37,3550           24010                           STOVL    7D                                    #  -(BETA/180) /2
000158: 37,3551           03564                                    UBX/2                                 #  XB/2
000159: 37,3552           77641                           DOT                                            #  UL.UBX = -SIN(ALFA)
000160: 37,3553           00001                                    0                                     #  UL/2
000161: 37,3554           24023                           STOVL    SINTH                                 #  -SIN(ALFA)/4
000162: 37,3555           77641                           DOT                                            #  UL/2 FROM PDL 0
000163: 37,3556           03600                                    UBZ/2
000164: 37,3557           34021                           STCALL   COSTH                                 #  COS(ALFA)/4
000165: 37,3560           47311                                    ARCTRIG
000166: 37,3561           24011                           STOVL    8D                                    #  -(ALFA/180) /2
000167: 37,3562           01756                                    UNITR                                 #  UR/2                          REF COORDS
000168: 37,3563           72441                           DOT      SL1
000169: 37,3564           03556                                    UZA/2                                 #  MORE ACCURATE AT LARGE ARG.
000170: 37,3565           77726                           ARCCOS
000171: 37,3566           00013                           STORE    10D                                   #  (-GAMA/180)/2


000173: 37,3567           77551                           TLOAD    EXIT                                  #  ANGLES IN MPAC IN THE ORDER
000174:                                                                                                  #  -( (ROLL, BETA, ALFA) /180)/2
000175: 37,3570           00007                                    6D                                    #  THESE VALUES CORRECT AT PIPUP TIME.
000176:                                                                                                  #  SPACER


000178:
000179:                                                                                                  #  BASIC SUBROUTINE TO UPDATE ATTITUDE ANGLES
000180:
000181: 37,3571  E6,1661                                  EBANK=   AOG
000182:
000183: 37,3571           04611        CM/ATUP            TC       E6SETTER
000184:
000185: 37,3572           50120        CMTR1              INDEX    FIXLOC
000186: 37,3573           40012                           CS       10D                                   #  (GAMA/180)/2
000187: 37,3574           57722                           XCH      GAMA
000188: 37,3575           54001                           TS       L
000189:
000190: 37,3576           00004                           INHINT
000191:                                                                                                  #  MUST REMAIN INHINTED UNTIL UPDATE OF BODY
000192:                                                                                                  #  ANGLES, SO THAT GAMDIFSW IS VALID FIRST PASS
000193:                                                                                                  #  INDICATOR.
000194:
000195: 37,3577           40102                           CS       CM/FLAGS
000196: 37,3600           74756                           MASK     GMDIFBIT                              #  GAMDIFSW = 94D BIT11 INITLY=
000197: 37,3601           00006                           EXTEND                                         #  DONT CALC GAMA DOT UNTIL HAVE FORMD
000198:                                                                                                  #  ONE DIFFERENCE.
000199: 37,3602           13605                           BZF      DOGAMDOT                              #  IS OK, GO ON.
000200: 37,3603           26102                           ADS      CM/FLAGS                              #  KNOW BIT IS 0
000201: 37,3604           03620                           TC       NOGAMDOT                              #  SET GAMDOT = 0
000202:
000203: 37,3605           40001        DOGAMDOT           CS       L
000204: 37,3606           61722                           AD       GAMA                                  #  DEL GAMA/360= T GAMDOT/360
000205: 37,3607           00006                           EXTEND
000206: 37,3610           73701                           MP       TCDU                                  #  TCDU = .1 SEC,   T = 2 SEC.
000207: 37,3611           55723                           TS       GAMDOT                                #  GAMA DOT TCDU / 180
000208:
000209: 37,3612           00006                           EXTEND                                         #  IGNORE GAMDOT IF LEQ  .5 DEG/SEC
000210: 37,3613           63615                           BZMF     +2
000211: 37,3614           40000                           COM
000212: 37,3615           64773                           AD       FIVE
000213: 37,3616           00006                           EXTEND
000214: 37,3617           63622                           BZMF     +3                                    #  SET GAMDOT=+0 AS TAG IF TOO SMALL.
000215:
000216: 37,3620           34772        NOGAMDOT           CA       ZERO                                  #  COME HERE INHINTED.
000217: 37,3621           55723                           TS       GAMDOT
000218:                                                                                                  #  FOR NOW LEAVE IN 2S,C
000219:                                                                                                  #  UPDATE ANGLES BY CORRECTING EUILER ANG
000220:                                                                                                  #  FOR ACCRUED INCREMENT SINCE PIPUP
000221:                                                                                                  #  R = R EUIL + R(NOW) -R(PIPUP)
000222: 37,3622           40154                           CS       MPAC                                  #  GET (R EUL/180) /2
000223: 37,3623           60000                           DOUBLE                                         #  POSSIBLE OVERFLOW
000224: 37,3624           03671                           TC       CORANGOV                              #  CORRECT FOR OVFL IF ANY
000225: 37,3625           00006                           EXTEND
000226: 37,3626           61672                           SU       ROLL/PIP                              #  GET INCR SINCE PIPUP
000227: 37,3627           61664                           AD       ROLL/180                              #  ONLY SINGLE OVFL POSSIBLE.
000228: 37,3630           03671                           TC       CORANGOV                              #  CORRECT FOR OVFL IF ANY


000230: 37,3631           55770                           TS       TEMPROLL
000231:
000232: 37,3632           40156                           CS       MPAC       +2                         #  GET (ALFA EUL/180) /2
000233: 37,3633           60000                           DOUBLE                                         #  SAME AS FOR ROLL. NEEDED FOR EXT ATM DAP
000234: 37,3634           03671                           TC       CORANGOV                              #  CORRECT FOR OVFL IF ANY
000235: 37,3635           00006                           EXTEND
000236: 37,3636           61673                           SU       ALFA/PIP
000237: 37,3637           61665                           AD       ALFA/180
000238: 37,3640           03671                           TC       CORANGOV                              #  CORRECT FOR OVFL IF ANY
000239: 37,3641           55771                           TS       TEMPALFA
000240:
000241: 37,3642           40155                           CS       MPAC       +1                         #  GET (BETA EUL/180) /2
000242: 37,3643           60000        CMTR2              DOUBLE
000243: 37,3644           00006                           EXTEND
000244: 37,3645           61674                           SU       BETA/PIP
000245: 37,3646           61666                           AD       BETA/180
000246: 37,3647           57772                           XCH      TEMPBETA                              #  OVFL NOT EXPECTED.
000247:
000248: 37,3650           35024                           CA       EBANK3
000249: 37,3651           54003                           TS       EBANK
000250:
000251: 37,3652  E3,1446                                  EBANK=   PHSNAME5
000252: 37,3652           00006                           EXTEND
000253: 37,3653           33703                           DCA      REPOSADR                              #  THIS ASSUMES THAT THE         TC   PHASCHNG
000254: 37,3654           53447                           DXCH     PHSNAME5                              #  IS NOT CHANGED IN             OCT  10035
000255:                                                                                                  #  SERVICER.
000256:
000257: 37,3655           04611                           TC       E6SETTER
000258:
000259: 37,3656  E6,1661                                  EBANK=   AOG
000260: 37,3656           00006        REDOPOSE           EXTEND                                         #  RE-STARTS COME HERE
000261: 37,3657           31771                           DCA      TEMPROLL
000262: 37,3660           53665                           DXCH     ROLL/180
000263: 37,3661           31772                           CA       TEMPBETA
000264: 37,3662           55666                           TS       BETA/180
000265:
000266: 37,3663           06006                           TC       INTPRET                               #  CANT TC DANZIG AFTER PHASCHNG.
000267: 37,3664           51575        CM/POSE3           VLOAD    ABVAL                                 #  RETURN FROM CM/ATUP.  (RESTART)
000268: 37,3665           01036                                    VN                                    #  2(-7)  M/CS
000269: 37,3666           03723                           STORE    VMAGI                                 #  FOR DISPLAY ON CALL.
000270:
000271: 37,3667           77650                           GOTO
000272: 37,3670           03324                                    POSEXIT                               #  ENDEXIT, STARTENT, OR SCALEPOP.
000273:
000274: 37,3671           54001        CORANGOV           TS       L
000275: 37,3672           00002                           TC       Q
000276: 37,3673           50000                           INDEX    A
000277: 37,3674           34751                           CA       LIMITS
000278: 37,3675           26001                           ADS      L
000279: 37,3676           00002                           TC       Q                                     #  COSTS 2 MCT TO USE. SEE ANGOVCOR.
000280:


000282: 37,3677           45730 53410  -KVSCALE           2DEC     -.81491944                            #  -12800/(2 VS .3048)
000283: 37,3701           03146        TCDU               DEC      .1                                    #  TCDU = .1 SEC.
000284:
000285: 37,3702  E6,1661                                  EBANK=   AOG
000286: 37,3702           03656 76066  REPOSADR           2CADR    REDOPOSE

End of include-file CM_BODY_ATTITUDE.agc.  Parent file is MAIN.agc


