
Source Code


000002:                                                                                                  ## Copyright:   Public domain.
000003:                                                                                                  ## Filename:    CONIC_SUBROUTINES.agc
000004:                                                                                                  ## Purpose:     Part of the source code for Artemis (i.e., Colossus 3),
000005:                                                                                                  ##              build 072.  This is for the Command Module's (CM)
000006:                                                                                                  ##              Apollo Guidance Computer (AGC), for
000007:                                                                                                  ##              Apollo 15-17.
000008:                                                                                                  ## Assembler:   yaYUL
000009:                                                                                                  ## Contact:     Sergio Navarro <sergionavarrog@gmail.com>
000010:                                                                                                  ## Website:     www.ibiblio.org/apollo/index.html
000011:                                                                                                  ## Page Scans:  www.ibiblio.org/apollo/ScansForConversion/Artemis072/
000012:                                                                                                  ## Mod history: 2009-09-03 SN   Adapted from corresponding Comanche 055 file.
000013:                                                                                                  ##              2009-09-04 JL   Fixed typos. Fixed page comment.
000014:                                                                                                  ##              2009-09-05 JL   Fixed typos.
000015:                                                                                                  ##              2009-09-09 JL   Fixed typos.
000016:                                                                                                  ##              2010-02-08 JL   Fixed SETLOC on p1289.
000017:                                                                                                  ##              2010-02-20 RSB  Un-##'d this header.
000018:                                                                                                  ##              2017-01-21 RSB  Proofed comment text by diff'ing vs Comanche 55
000019:                                                                                                  ##                              and corrected errors found.
000020:                                                                                                  ##              2017-01-28 RSB  WTIH -> WITH and WHCIH -> WHICH.
000021:


000023:
000024:                                                                                                  #  PROGRAM DESCRIPTION - ENTIRE CONIC SUBROUTINE LOG SECTION                     DATE - 1 SEPTEMBER 1967
000025:                                                                                                  #  MOD NO. - 0                                                                   LOG SECTION - CONIC SUBROUTINES
000026:                                                                                                  #  MOD BY KRAUSE                                                                 ASSEMBLY - COLOSSUS REVISION 88
000027:
000028:
000029:
000030:                                                                                                  #  FUNCTIONAL DESCRIPTION -
000031:
000032:                                                                                                  #        THE FOLLOWING SET OF SUBROUTINES SOLVE VARIOUS PROBLEMS INVOLVING THE TRAJECTORY PRODUCED BY A CENTRAL
000033:                                                                                                  #  INVERSE-SQUARE FORCE ACTING ON A POINT MASS, AS OUTLINED IN THE CMC AND LGC LUNAR LANDING MISSION GSOP, SECTION
000034:                                                                                                  #  5.5.1.2.  A GENERAL USAGE POINT-OF-VIEW WAS TAKEN IN FORMULATING, MECHANIZING, AND SCALING THE SUBROUTINES,
000035:                                                                                                  #  RATHER THAN OPTIMIZING EACH FOR A PARTICULAR USE.  THEREFORE, MULTIPLE USAGE CAN BE MADE OF THE SUBROUTINES
000036:                                                                                                  #  INVOLVING ANY REALISTIC SET OF CONSTRAINTS.  IT SHOULD BE NOTED THAT ONLY ONE SET OF CODING IS USED, WHETHER THE
000037:                                                                                                  #  EARTH, MOON, OR ANY OTHER CELESTIAL BODY IS SPECIFIED AS THE CENTRAL BODY OF THE PROBLEM, PROVIDED ONE OBSERVES
000038:                                                                                                  #  THE INHERENT SCALE CHANGE REQUIRED IN POSITION, VELOCITY, MU, AND TIME, AS OUTLINED IN MISSION PROGRAMMING
000039:                                                                                                  #  DEFINITION MEMO NO. 10.  THIS CAN BE ACCOMPLISHED BY SIMPLY ADDING TO THE MUTABLE AND INITIALIZING THE SUBROU-
000040:                                                                                                  #  TINES APPROPRIATELY.
000041:
000042:                                                                                                  #        DUE TO THE UNIFORMITY OF THE EQUATIONS INVOLVED, CODING WAS MINIMIZED BY TREATING INDIVIDUAL EQUATIONS AND
000043:                                                                                                  #  BLOCKS OF EQUATIONS AS SUBROUTINES OF LOWER RANK WHENEVER POSSIBLE.  AS A RESULT, THREE BY-PRODUCTS SUBROUTINES,
000044:                                                                                                  #  DIRECTLY USABLE AS INDEPENDENT SUBROUTINES, WERE GENERATED.
000045:
000046:
000047:                                                                                                  #  RESTRICTIONS -
000048:
000049:                                                                                                  #        THE ONLY LIMITATION IN THE SCOPE OF PROBLEM WHICH CAN BE SOLVED BY A PARTICULAR SUBROUTINE IS THE SCALING
000050:                                                                                                  #  LIMIT OF EACH PARAMETER AS SPECIFIED IN THE GSOP.  THESE SCALING LIMITS WERE CHOSEN SO THAT ALL FEASIBLE TRAJEC-
000051:                                                                                                  #  TORIES COULD BE HANDLED.
000052:                                                                                                  #        SINCE THE SUBROUTINES (EXCEPT KEPLER) USE COMMON SUBROUTINES OF LOWER RANK WHICH USE ERASABLE OTHER THAN
000053:                                                                                                  #  THE PUSHLIST (DUE TO ITS LIMITED SIZE) AND COMMON INTERPRETIVE SWITCHES, THE CONIC SUBROUTINES CANNOT BE ALLOWED
000054:                                                                                                  #  TO INTERRUPT EACH OTHER.  IT IS UP TO THE USER TO GUARANTEE THIS CONDITION.
000055:


000057:
000058:                                                                                                  #  PROGRAM DESCRIPTION - KEPLER SUBROUTINE                               DATE - 11 OCTOBER 1967
000059:                                                                                                  #  MOD NO. -1                                                                    LOG SECTION - CONIC SUBROUTINES
000060:                                                                                                  #  MOD BY KRAUSE                                                         ASSEMBLY - COLOSSUS 103 AND SUNDANCE 222
000061:                                                                                                  #  MOD NO. - 2 (AUGUST 1968) BY ROBERTSON: TO PERMIT BACKDATING BY MORE THAN ONE ORBITAL PERIOD.
000062:
000063:
000064:                                                                                                  #  MOD NO. - 3 (DEC 1968) BY ROBERTSON: SUPPRESSION OF X-MODULO-ING
000065:
000066:
000067:                                                                                                  #  MOD. NO. - 4 (JAN 1969) BY ROBERTSON: CLEAR OVFIND AT KEPLER ENTRY
000068:
000069:
000070:                                                                                                  #  FUNCTIONAL DESCRIPTION -
000071:                                                                                                  #        THIS SUBROUTINE, GIVEN AN INITIAL STATE VECTOR AND THE DESIRED TRANSFER TIME THROUGH WHICH THE STATE IS TO
000072:                                                                                                  #  BE UPDATED ALONG A CONIC TRAJECTORY, COMPUTES THE NEW, UPDATED STATE VECTOR.  THE TRAJECTORY MAY BE ANY CONIC
000073:                                                                                                  #  SECTION - CIRCULAR, ELLIPTIC, PARABOLIC, HYPERBOLIC, OR RECTILINEAR WITH RESPECT TO THE EARTH OR THE MOON. THE
000074:                                                                                                  #  USE OF THE SUBROUTINE CAN BE EXTENDED USING OTHER PRIMARY BODIES BY SIMPLE ADDITIONS TO THE MUTABLE WITHOUT
000075:                                                                                                  #  INTRODUCING ANY CODING CHANGES, ACCEPTING THE INHERENT SCALE FACTOR CHANGES IN POSITION AND VELOCITY.  AN ITERA-
000076:                                                                                                  #  TION TECHNIQUE IS UTILIZED IN THE COMPUTATION.
000077:                                                                                                  #        IF A NEGATIVE TIME-OF-FLIGHT IS INPUT, THE PROGRAM WILL SOLVE FOR THE STATE WHICH WOULD BE PRODUCED BY
000078:                                                                                                  #  EXTRAPOLATING THE POSITION BACKWARD IN TIME.
000079:                                                                                                  #        IF THE ABSOLUTE VALUE OF THE DESIRED TRANSFER TIME EXCEEDS THE ORBITAL PERIOD, THE SUBROUTINE, THROUGH A
000080:                                                                                                  #  MODULAR TECHNIQUE, WILL COMPUTE THE STATE CORRESPONDING TO THE DESIRED TIME (WHETHER POSITIVE OR NEGATIVE).
000081:
000082:
000083:                                                                                                  #  THE RESTRICTIONS ARE -
000084:                                                                                                  #        1. (PREVIOUS RESTRICTION ON THE NEGATIVE DESIRED TRANSFER TIME IS NOW DELETED.)
000085:                                                                                                  #        2. THE PARAMETERS IN THE PROBLEM CANNOT EXCEED THEIR SCALING LIMITS AS SPECIFIED IN THE GSOP.  IF
000086:                                                                                                  #  ANY OF THESE LIMITS ARE EXCEEDED, THE RESULTING SOLUTION WILL BE MEANINGLESS.
000087:
000088:
000089:                                                                                                  #        THE NUMBER OF ITERATIONS AND, THEREFORE, THE COMPUTATION SPEED IS DEPENDENT ON THE ACCURACY OF THE
000090:                                                                                                  #  GUESS, XKFPNEW.  THE AGC COMPUTATION TIME IS APPROXIMATELY .061 SECONDS FOR INITIALIZATION, .065 SECONDS FOR THE
000091:                                                                                                  #  FINAL COMPUTATIONS, PLUS .083 SECONDS FOR EACH ITERATION.
000092:
000093:
000094:
000095:                                                                                                  #  REFERENCES -
000096:                                                                                                  #        R-479, MISSION PROGRAMMING DEFINITION MEMO NO. 10, LUNAR LANDING MISSION GSOP, SECTION 5.5, SGA
000097:                                                                                                  #  MEMO 67-4.
000098:
000099:
000100:
000101:                                                                                                  #  INPUT - ERASABLE INITIALIZATION REQUIRED
000102:
000103:                                                                                                  #          * SCALE FACTOR *
000104:                                                                                                  #  VARIABLE*IN POWERS OF 2*              DESCRIPTION AND REMARKS
000105:                                                                                                  #  --------*--------------*              -----------------------
000106:                                                                                                  #  RRECT   * +29 FOR EARTH*DP INITIAL POSITION VECTOR IN METERS
000107:                                                                                                  #          * +27 FOR MOON *


000109:                                                                                                  #  VRECT   * +7 FOR EARTH *DP INITIAL VELOCITY VECTOR IN METERS/CENTISECOND
000110:                                                                                                  #          * +5 FOR MOON  *
000111:                                                                                                  #  X1 (38D)* NONE         *INDEX REGISTER SET TO -2D OR -10D ACCORDING TO WHETHER THE EARTH OR MOON,
000112:                                                                                                  #          *              *RESPECTIVELY, IS THE CENTRAL BODY
000113:                                                                                                  #  TAU.    * +28          *DESIRED TRANSFER TIME IN CENTISECONDS (DP)
000114:                                                                                                  #          *              *    MAY BE POS OR NEG AND ABSOLUTE VALUE MAY BE GREATER OR LESS THAN ONE ORBITAL PERIOD.
000115:                                                                                                  #  XKEPNEW * +17 FOR EARTH*DP GUESS OF ROOT X OF KEPLERS EQN IN SQRT(METERS). SIGN SHOULD AGREE WITH THAT OF TAU.
000116:                                                                                                  #          * +16 FOR MOON *    AND ABS VALUE SHOULD BE LESS THAN THAT CORRESPONDING TO A PERIOD, VIZ, 2PI SQRT(SEMI-
000117:                                                                                                  #          *              *    MAJOR AXIS), FOR SPEED OF CONVERGENCE, BUT IF EITHER CONDITION FAILS, XKEPNEW IS RESET
000118:                                                                                                  #          *              *    BY KEPLER TO A POOR BUT VALID GUESS.
000119:                                                                                                  #  TC      * +28          *DP PREV. VALUE OF TIME IN CENTISECS.  MUST BE LESS THAN ONE ORBITAL PERIOD.
000120:                                                                                                  #  XPREV   * +17 FOR EARTH*DP PREV. VALUE OF X IN SQRT(METERS).  MUST BE LESS THAN AN X CORRESPONDING TO ONE
000121:                                                                                                  #          * +16 FOR MOON *    ORBITAL PERIOD, VIZ, 2PI SQRT(SEMI-MAJOR AXIS)
000122:
000123:
000124:
000125:                                                                                                  #  SUBROUTINES CALLED -
000126:                                                                                                  #        DELTIME
000127:
000128:
000129:
000130:                                                                                                  #  CALLING SEQUENCE AND NORMAL EXIT MODES -
000131:
000132:                                                                                                  #  KEPRTN-2      GOTO                    MUST BE IN INTERPRETIVE MODE BUT OVFIND ARBITRARY.
000133:                                                                                                  #  KEPRTN-1              KEPLER          RETURNS WITH XPREV IN MPAC. PL IS AT 0.
000134:                                                                                                  #  KEPRTN        ...                     CONTINUE
000135:
000136:                                                                                                  #  KEPLER MUST NOT BE CALLED DIRECTLY SINCE AN INTERRUPTION OF IT WOULD DESTROY THE ERASABLES IT NEEDS TO COMPLETE
000137:                                                                                                  #  THE INTERRUPTED JOB.  THEREFORE THE USER MUST CALL CSMCONIC OR LEMCONIC WHICH GUARANTEES NO INTERRUPTS AND WHICH
000138:                                                                                                  #  ALSO CALLS KEPPREP TO COMPUTE A GUESS OF XKEPNEW.
000139:
000140:
000141:
000142:                                                                                                  #  ABORT EXIT MODES -
000143:                                                                                                  #        NONE
000144:
000145:
000146:                                                                                                  #  OUTPUT -
000147:
000148:                                                                                                  #          * SCALE FACTOR *
000149:                                                                                                  #  VARIABLE*IN POWERS OF 2*                      DESCRIPTION AND REMARKS
000150:                                                                                                  #  --------*--------------*                      -----------------------
000151:                                                                                                  #  RCV     * +29 FOR EARTH*DP TERMINAL POSITION VECTOR IN METERS
000152:                                                                                                  #          * +27 FOR MOON *
000153:                                                                                                  #  VCV     * +7 FOR EARTH *DP TERMINAL VELOCITY VECTOR IN METERS/CENTISEC
000154:                                                                                                  #          * +5 FOR MOON  *
000155:                                                                                                  #  TC      * +28          *DP TRANSFER TIME IN CENTISECS TO WHICH KEPLER CONVERGED. ALWAYS LESS THAN ONE PERIOD.
000156:                                                                                                  #  XPREV   * +17 FOR EARTH*DP VALUE OF X IN SQRT(METERS) TO WHICH KEPLER CONVERGED. ALWAYS LESS THAN THE X
000157:                                                                                                  #          * +16 FOR MOON *    CORRESPONDING TO ONE PERIOD.


000159:                                                                                                  #  FOR OTHER OUTPUT WHICH MAY BE OF USE, SEE DEBRIS.
000160:
000161:
000162:                                                                                                  #  DEBRIS -
000163:
000164:                                                                                                  #        PARAMETERS WHICH MAY BE OF USE -
000165:
000166:                                                                                                  #          * SCALE FACTOR *
000167:                                                                                                  #  VARIABLE*IN POWERS OF 2*                      DESCRIPTION AND REMARKS
000168:                                                                                                  #  --------*--------------*                      -----------------------
000169:                                                                                                  #  URRECT  * +1           *DP UNIT VECTOR OF INITIAL POSITION
000170:                                                                                                  #  R1      * +29 FOR EARTH*DP MAGNITUDE OF INITIAL POSITION IN METERS
000171:                                                                                                  #          * +27 FOR MOON *
000172:                                                                                                  #  ALPHA   * -22 FOR EARTH*DP INVERSE OF SEMIMAJOR AXIS IN 1/METERS
000173:                                                                                                  #          * -20 FOR MOON *
000174:                                                                                                  #  TMODULO * +28          *DP INTEGRAL NUMBER OF PERIODS IN CENTISECS, WHICH WAS SUBTRACTED FROM TAU. TO PRODUCE A
000175:                                                                                                  #          *              *TAU. OF LESS THAN ONE PERIOD.
000176:
000177:                                                                                                  #        PARAMETERS OF NO USE -
000178:                                                                                                  #  DP PARAMETERS - EPSILONT, DELX, DELT, RCNORM, XMODULO, PLUS PUSHLIST REGISTERS 0 THROUGH 39D.
000179:


000181:
000182:                                                                                                  #  PROGRAM DESCRIPTION - LAMBERT SUBROUTINE                                      DATE - 1 SEPTEMBER 1967
000183:                                                                                                  #  MOD NO. - 0                                                                   LOG SECTION - CONIC SUBROUTINES
000184:                                                                                                  #  MOD BY KRAUSE                                                                 ASSEMBLY - COLOSSUS REVISION 88
000185:
000186:
000187:
000188:                                                                                                  #  FUNCTIONAL DESCRIPTION -
000189:
000190:                                                                                                  #        THIS SUBROUTINE CALCULATES THE INITIAL VELOCITY REQUIRED TO TRANSFER A POINT-MASS ALONG A CONIC TRAJECTORY
000191:                                                                                                  #  FROM AN INITIAL POSITION TO A TERMINAL POSITION IN A PRESCRIBED TIME INTERVAL.  THE RESULTING TRAJECTORY MAY BE
000192:                                                                                                  #  A SECTION OF A CIRCLE, ELLIPSE, PARABOLA, OR HYPERBOLA WITH RESPECT TO THE EARTH OR THE MOON.  THE USE OF THE
000193:                                                                                                  #  SUBROUTINE CAN BE EXTENDED USING OTHER PRIMARY BODIES BY SIMPLE ADDITIONS TO THE MUTABLE WITHOUT INTRODUCING ANY
000194:                                                                                                  #  CODING CHANGES, ACCEPTING THE INHERENT SCALE FACTOR CHANGES IN POSITION AND VELOCITY.  AN ITERATION TECHNIQUE IS
000195:                                                                                                  #  UTILIZED IN THE COMPUTATION.
000196:
000197:
000198:                                                                                                  #  THE RESTRICTIONS ARE -
000199:                                                                                                  #        1. RECTILINEAR TRAJECTORIES CANNOT BE COMPUTED.
000200:                                                                                                  #        2. AN ACCURACY DEGRADATION OCCURS AS THE COSINE OF THE TRUE ANOMALY DIFFERENCE APPROACHES +1.0.
000201:                                                                                                  #        3. THE ANGLE BETWEEN ANY POSITION VECTOR AND ITS VELOCITY VECTOR MUST BE GREATER THAN 1 DEGREE 47.5 MINUTES
000202:                                                                                                  #  AND LESS THAN 178 DEGREES 12.5 MINUTES.
000203:                                                                                                  #        4. NEGATIVE TRANSFER TIME IS AMBIGUOUS AND WILL RESULT IN NO SOLUTION.
000204:                                                                                                  #        5. THE PARAMETERS IN THE PROBLEM MUST NOT EXCEED THEIR SCALING LIMITS SPECIFIED IN THE GSOP.  IF THE
000205:                                                                                                  #  LIMITS ARE EXCEEDED, THE RESULTING SOLUTION WILL BE MEANINGLESS.
000206:                                                                                                  #        THE NUMBER OF ITERATIONS AND, THEREFORE, THE COMPUTATIONS SPEED IS DEPENDENT ON THE ACCURACY OF THE FIRST
000207:                                                                                                  #  GUESS OF THE INDEPENDENT VARIABLE, COGA.                                THE AGC COMPUTATION TIME IS APPROXIMATE-
000208:                                                                                                  #  LY .105 SECONDS FOR INITIALIZATION, .069 SECONDS FOR FINAL COMPUTATIONS, PLUS .205 SECONDS FOR EACH ITERATION.
000209:
000210:
000211:
000212:                                                                                                  #  REFERENCES -
000213:                                                                                                  #        R-479, MISSION PROGRAMMING DEFINITION MEMO NO. 10, LUNAR LANDING MISSION GSOP-SECTION 5.5, SGA MEMO 67-8,
000214:                                                                                                  #  SGA MEMO 67-4.
000215:
000216:
000217:
000218:                                                                                                  #  INPUT - ERASABLE INITIALIZATION REQUIRED
000219:
000220:                                                                                                  #          * SCALE FACTOR *
000221:                                                                                                  #  VARIABLE*IN POWERS OF 2*                         DESCRIPTION AND REMARKS
000222:                                                                                                  #  --------*--------------*                         -----------------------
000223:                                                                                                  #  R1VEC   * +29 FOR EARTH*DP INITIAL POSITION VECTOR IN METERS
000224:                                                                                                  #          * +27 FOR MOON *
000225:                                                                                                  #  R2VEC   * +29 FOR EARTH*DP TARGET OR TERMINAL POSITION VECTOR IN METERS
000226:                                                                                                  #          * +27 FOR MOON *
000227:                                                                                                  #  TDESIRED* +28          *DP DESIRED TRANSFER TIME IN CENTISECONDS
000228:                                                                                                  #  X1 (38D)* NONE         *INDEX REGISTER SET TO -2D OR -10D ACCORDING TO WHETHER THE EARTH OR MOON,
000229:                                                                                                  #          *              *RESPECTIVELY, IS THE CENTRAL BODY
000230:                                                                                                  #  GEOMSGN * NONE         *SP +.5 IF DESIRED TRANSFER ANGLE IS LESS THAN 180 DEGREES, -.5 IF GREATER THAN 180 DEG.
000231:                                                                                                  #  GUESSW  * NONE         *AN INTERPRETER SWITCH TO BE SET IF NO GUESS OF COGA IS AVAILABLE, CLEAR IF A GUESS OF


000233:                                                                                                  #          *              *COGA IS TO BE USED BY LAMBERT
000234:                                                                                                  #  COGA    * +5           *DP GUESS OF COTANGNT OF FLIGHT PATH ANGLE (MEASURED FROM VERTICAL).  THIS WILL BE
000235:                                                                                                  #                         *IGNORED IF GUESSW IS SET.
000236:                                                                                                  #  NORMSW  * NONE         *AN INTERPRETER SWITCH TO BE SET IF UN IS TO BE AN INPUT TO THE SUBROUTINE, CLEAR IF
000237:                                                                                                  #          *              *LAMBERT IS TO COMPUTE ITS OWN NORMAL (UN).
000238:                                                                                                  #  UN      * +1           *DP UNIT  NORMAL TO THE DESIRED ORBIT PLANE IN THE DIRECTION OF THE RESULTING ANGULAR
000239:                                                                                                  #          *              *MOMENTUM VECTOR.  THIS WILL BE IGNORED IF NORMSW IS CLEAR.
000240:                                                                                                  #  VTARGTAG* NONE         *A S.P. TAG TO BE SET TO ZERO IF LAMBERT IS TO COMPUTE THE VELOCITY AT R2VEC AS WELL AS
000241:                                                                                                  #          *              *AT R1VEC.
000242:
000243:
000244:
000245:                                                                                                  #  SUBROUTINES CALLED -
000246:                                                                                                  #        GEOM, GETX, DELTIME, ITERATOR, LAMENTER (PART OF NEWSTATE)
000247:
000248:
000249:
000250:                                                                                                  #  CALLING SEQUENCE AND NORMAL EXIT MODES -
000251:
000252:                                                                                                  #  L     CALL                    MUST BE IN INTERPRETIVE MODE BUT OVFIND ARBITRARY.
000253:                                                                                                  #  L+1           LAMBERT         RETURNS WITH PL AT 0 AND WITH VVEC IN MPAC IF VTARGTAG WAS NON-ZERO OR VTARGET
000254:                                                                                                  #                                IN MPAC IF VTARGTAG WAS ZERO
000255:                                                                                                  #  L+2   BON                     CONTINUE IF SOLNSW CLEAR SINCE SOLUTION IS ACCEPTABLE
000256:                                                                                                  #  L+3           SOLNSW
000257:                                                                                                  #  L+4           LAMABORT
000258:
000259:                                                                                                  #        IF A LAMBERT RESULT IS TO BE A FIRST GUESS FOR THE NEXT LAMBERT CALCULATION, COGA MUST BE PRESERVED AND
000260:                                                                                                  #  GUESSW MUST BE CLEAR FOR EACH SUCCEEDING LAMBERT CALL.
000261:
000262:
000263:
000264:                                                                                                  #  ABORT EXIT MODES -
000265:                                                                                                  #        IF SOLNSW WAS SET UPON EXITING, EITHER LAMBERT WAS ASKED TO COMPUTE A TRANSFER TOO NEAR 0 OR 360 DEG, OR T
000266:                                                                                                  #  WAS TOO SMALL TO PRODUCE A REALISTIC TRANSFER BETWEEN R1VEC AND R2VEC.  IN EITHER CASE THE FIX MUST BE MADE
000267:                                                                                                  #  ACCORDING TO THE NEEDS OF THE PARTICULAR USER.  THE ABORT EXIT MODE MAY BE CODED AS ...
000268:                                                                                                  #  LAMABORT      DLOAD   ABS             A MEASURE OF PROXIMITY TO 0 OR
000269:                                                                                                  #                        1-CSTH          360 DEGREES.
000270:                                                                                                  #                DSU     BMN
000271:                                                                                                  #                        ONEBIT
000272:                                                                                                  #                        CHANGER2        CHANGE R2VEC DIRECTION SLIGHTLY.
000273:                                                                                                  #                DLOAD   DAD
000274:                                                                                                  #                        TDESIRED
000275:                                                                                                  #                        SOMETIME
000276:                                                                                                  #                STCALL  TDESIRED        INCREASE TDESIRED
000277:                                                                                                  #                        LAMBERT
000278:
000279:
000280:
000281:                                                                                                  #  OUTPUT -
000282:                                                                                                  #          * SCALE FACTOR *
000283:                                                                                                  #  VARIABLE*IN POWERS OF 2*                      DESCRIPTION AND REMARKS


000285:                                                                                                  #  --------*--------------*                      -----------------------
000286:                                                                                                  #  VVEC    * +7 FOR EARTH *DP INITIAL VELOCITY VECTOR IN METERS/CENTISECOND REQUIRED TO SATISFY THE BOUNDARY VALUE
000287:                                                                                                  #          * +5 FOR MOON  *PROBLEM.
000288:                                                                                                  #  VTARGET * +7 FOR EARTH *DP RESULTANT VELOCITY VECTOR AT R2VEC IN METERS/CENTISECOND.
000289:                                                                                                  #          * +5 FOR MOON  *
000290:                                                                                                  #  SOLNSW  * NONE         *INTERPRETER SWITCH WHICH IS SET IF THE SUBROUTINE CANNOT SOLVE THE PROBLEM, CLEAR IF THE
000291:                                                                                                  #          *              *SOLUTION EXISTS.
000292:                                                                                                  #  FOR OTHER OUTPUT WHICH MAY BE OF USE, SEE DEBRIS.
000293:
000294:
000295:
000296:                                                                                                  #  DEBRIS -
000297:                                                                                                  #        PARAMETERS WHICH MAY BE OF USE -
000298:
000299:                                                                                                  #          * SCALE FACTOR *
000300:                                                                                                  #  VARIABLE*IN POWERS OF 2*                      DESCRIPTION AND REMARKS
000301:                                                                                                  #  --------*--------------*                      -----------------------
000302:                                                                                                  #  SNTH    * +1           *DP SIN OF ANGLE BETWEEN R1VEC AND R2VEC
000303:                                                                                                  #  CSTH    * +1           *DP COSINE OF ANGLE
000304:                                                                                                  #  1-CSTH  * +2           *DP 1-CSTH
000305:                                                                                                  #  COGA    * +5           *DP COTAN OF INITIAL REQUIRED FLIGHT PATH ANGLE MEASURED FROM VERTICAL
000306:                                                                                                  #  P       * +4           *DP RATIO  OF SEMILATUS RECTUM TO INITIAL RADIUS
000307:                                                                                                  #  R1A     * +6           *DP RATIO OF INITIAL RADIUS TO SEMIMAJOR AXIS
000308:                                                                                                  #  R1 (32D)* +29 FOR EARTH*DP INITIAL RADIUS IN METERS
000309:                                                                                                  #          * +27 FOR MOON *
000310:                                                                                                  #  UR1     * +1           *DP UNIT VECTOR OF R1VEC
000311:                                                                                                  #  U2      * +1           *DP UNIT VECTOR OF R2VEC
000312:
000313:                                                                                                  #        PARAMETERS OF NO USE
000314:                                                                                                  #  DP PARAMETERS - EPSILONL, CSTH-RHO, TPREV, TERRLAMB, R2, RTNLAMB (SP), PLUS PUSHLIST REGISTER 0 THROUGH 41D
000315:                                                                                                  #  ADDITIONAL INTERPRETIVE SWITCHES USED - INFINFLG, 360SW, SLOPESW, ORDERSW
000316:
000317:


000319:
000320:                                                                                                  #  PROGRAM DESCRIPTION - TIME-THETA SUBROUTINE                                   DATE - 1 SEPTEMBER 1967
000321:                                                                                                  #  MOD NO. - 0                                                                   LOG SECTION - CONIC SUBROUTINES
000322:                                                                                                  #  MOD BY KRAUSE                                                                 ASSEMBLY - COLOSSUS REVISION 88
000323:
000324:
000325:
000326:                                                                                                  #  FUNCTIONAL DESCRIPTION -
000327:
000328:                                                                                                  #        THIS SUBROUTINE, GIVEN AN INITIAL STATE VECTOR AND A DESIRED TRUE-ANOMALY-DIFFERENCE THROUGH WHICH THE
000329:                                                                                                  #  STATE IS TO BE UPDATED ALONG A CONIC TRAJECTORY, CALCULATES THE CORRESPONDING TIME-OF-FLIGHT AND, IN ADDITION,
000330:                                                                                                  #  PROVIDES THE OPTION OF COMPUTING THE NEW UPDATED STATE VECTOR.  THE RESULTING TRAJECTORY MAY BE A SECTION OF A
000331:                                                                                                  #  CIRCLE, ELLIPSE, PARABOLA, OR HYPERBOLA WITH RESPECT TO THE EARTH OR THE MOON.  THE USE OF THE SUBROUTINE CAN BE
000332:                                                                                                  #  EXTENDED USING OTHER PRIMARY BODIES BY SIMPLE ADDITIONS TO THE MUTABLE WITHOUT INTRODUCING ANY CODING CHANGES,
000333:                                                                                                  #  ACCEPTING THE INHERENT SCALE FACTOR CHANGES IN POSITION AND VELOCITY.
000334:
000335:
000336:                                                                                                  #  THE RESTRICTIONS ARE -
000337:                                                                                                  #        1. THE ANGLE BETWEEN ANY POSITION VECTOR AND ITS VELOCITY VECTOR MUST BE GREATER THAN 1 DEGREE 47.5 MINUTES
000338:                                                                                                  #  AND LESS THAN 178 DEGREES 12.5 MINUTES.
000339:                                                                                                  #        2. THE PARAMETERS IN THE PROBLEM MUST NOT EXCEED THEIR SCALING LIMITS SPECIFIED IN THE GSCP.  IF THE LIMITS
000340:                                                                                                  #  ARE EXCEEDED, THE RESULTING SOLUTION WILL BE MEANINGLESS.
000341:
000342:                                                                                                  #        THE AGC COMPUTATION TIME IS APPROXIMATELY .292 SECONDS.
000343:
000344:
000345:                                                                                                  #  REFERENCES -
000346:                                                                                                  #        R-479, MISSION PROGRAMMING DEFINITION MEMO NO. 10, LUNAR LANDING MISSION GSOP-SECTION 5.5, SGA MEMO 67-8.
000347:
000348:
000349:                                                                                                  #  INPUT - ERASABLE INITIALIZATION REQUIRED
000350:
000351:                                                                                                  #          * SCALE FACTOR *
000352:                                                                                                  #  VARIABLE*IN POWERS OF 2*                      DESCRIPTION AND REMARKS
000353:                                                                                                  #  --------*--------------*                      -----------------------
000354:                                                                                                  #  RVEC    * +29 FOR EARTH*DP INITIAL POSITION VECTOR IN METERS
000355:                                                                                                  #          * +27 FOR MOON *
000356:                                                                                                  #  VVEC    * +7 FOR EARTH *DP INITIAL VELOCITY VECTOR IN METERS/CENTISECOND
000357:                                                                                                  #          * +5 FOR MOON  *
000358:                                                                                                  #  SNTH    * +1           *DP SINE OF TRUE-ANOMALY-DIFFERENCE THROUGH WHICH THE STATE IS TO BE UPDATED
000359:                                                                                                  #  CSTH    * +1           *DP COSINE OF THE ANGLE
000360:                                                                                                  #  RVSW    * NONE         *AN INTERPRETIVE SWITCH TO BE SET IF ONLY TIME IS TO BE AN OUTPUT, CLEAR IF THE NEW STATE
000361:                                                                                                  #          *              *IS TO BE COMPUTED ALSO.
000362:                                                                                                  #  X1 (38D)*NONE          *INDEX REGISTER TO BE SET TO -2D OR -10D ACCORDING TO WHETHER THE EARTH OR MOON,
000363:                                                                                                  #          *              *RESPECTIVELY, IS THE CENTRAL BODY.
000364:
000365:
000366:
000367:                                                                                                  #  SUBROUTINES CALLED -


000369:                                                                                                  #        PARAM, GEOM, GETX, DELTIME, NEWSTATE
000370:
000371:
000372:
000373:                                                                                                  #  CALLING SEQUENCE AND NORMAL EXIT MODES -
000374:
000375:                                                                                                  #        IF ONLY TIME IS DESIRED AS OUTPUT -
000376:                                                                                                  #  L     SET     CALL            MUST BE IN INTERPRETIVE MODE BUT OVFIND ARBITRARY.
000377:                                                                                                  #  L+1           RVSW
000378:                                                                                                  #  L+2           TIMETHET        RETURN WITH PL AT 0 AND T IN MPAC
000379:                                                                                                  #  L+3   ...                     CONTINUE
000380:
000381:
000382:                                                                                                  #        IF THE UPDATE STATE VECTOR IS DESIRED AS WELL -
000383:                                                                                                  #  L     CLEAR   CALL            MUST BE IN INTERPRETIVE MODE BUT OVFIND ARBITRARY.
000384:                                                                                                  #  L+1           RVSW
000385:                                                                                                  #  L+2           TIMETHET        RETURNS WITH PL AT 6.  THE INITIAL POSITION VECTOR IS IN 0D OF THE PUSHLIST AND
000386:                                                                                                  #                                THE INITIAL VELOCITY VECTOR IN MPAC.
000387:                                                                                                  #  L+3   STOVL   NEWVVEC
000388:                                                                                                  #  L+4   STADR
000389:                                                                                                  #  L+5   STORE   NEWRVEC                 NEWVVEC AND NEWRVEC ARE SYMBOLIC REPRESENTATIONS OF THE USERS LOCATIONS.
000390:                                                                                                  #  L+6   ...                             CONTINUE
000391:
000392:
000393:
000394:                                                                                                  #  ABORT EXIT MODES -
000395:                                                                                                  #        IF COGAFLAG AND/OR INFINFLG IS SET AT THE EXIT TO TIME-THETA, TIME-THETA WILL TRANSFER TO POODOO WITH
000396:                                                                                                  #        AN ALARM CODE (ORIGINALLY 00607), AND NOT RETURN TO THE CALLING PROGRAM. (PCR 692 AND 721).
000397:
000398:
000399:
000400:                                                                                                  #  OUTPUT -
000401:                                                                                                  #          * SCALE FACTOR *
000402:                                                                                                  #  VARIABLE*IN POWERS OF 2*                      DESCRIPTION AND REMARKS
000403:                                                                                                  #  --------*--------------*                      -----------------------
000404:                                                                                                  #  T(30D)  * +28          *DP TRANSFER TIME IN CENTISECONDS
000405:                                                                                                  #  INFINFLG* NONE         *AN INTERPRETIVE SWITCH WHICH IS SET IF THE TRANSFER ANGLE REQUIRES CLOSURE THROUGH
000406:                                                                                                  #          *              *INFINITY (NO SOLUTION), CLEAR IF A PHYSICAL SOLUTION IS POSSIBLE.
000407:                                                                                                  #  COGAFLAG* NONE         *AN INTERPRETIVE SWITCH WHICH IS SET IF RESTRICTION 1 HAS BEEN VIOLATED (NO SOLUTION),
000408:                                                                                                  #          *              *CLEAR IF NOT.
000409:
000410:                                                                                                  #  IN ADDITION, IF RVSW IS CLEAR, THE FOLLOWING ARE OUTPUT -
000411:
000412:                                                                                                  #  MPAC -  * +7 FOR EARTH *DP TERMINAL VELOCITY VECTOR IN METERS/CENTISEC.
000413:                                                                                                  #   MPAC +5* +5 FOR MOON  *
000414:                                                                                                  #  0D - 5D * +29 FOR EARTH*DP TERMINAL POSITION VECTOR IN METERS (PL AT 6D)
000415:                                                                                                  #          * +27 FOR MOON *
000416:
000417:                                                                                                  #  FOR OTHER OUTPUT WHICH MAY BE OF USE, SEE DEBRIS.
000418:


000420:
000421:                                                                                                  #  DEBRIS -
000422:
000423:                                                                                                  #        PARAMETERS WHICH MAY BE OF USE -
000424:
000425:                                                                                                  #          * SCALE FACTOR *
000426:                                                                                                  #  VARIABLE*IN POWERS OF 2*                      DESCRIPTION AND REMARKS
000427:                                                                                                  #  --------*--------------*                      -----------------------
000428:                                                                                                  #  R1 (32D)* +29 FOR EARTH*DP MAGNITUDE OF INITIAL POSITION VECTOR, RVEC, IN METERS
000429:                                                                                                  #          * +27 FOR MOON *
000430:                                                                                                  #  R1A     * +6           *DP RATIO OF R1 TO SEMIMAJOR AXIS (NEG. FOR HYPERBOLIC TRAJECTORIES)
000431:                                                                                                  #  P       * +4           *DP RATIO OF SEMILATUS RECTUM TO R1
000432:                                                                                                  #  COGA    * +5           *DP COTAN OF ANGLE BETWEEN RVEC AND VVEC
000433:                                                                                                  #  UR1     * +1           *DP UNIT VECTOR OF RVEC
000434:                                                                                                  #  U2      * +1           *DP UNIT VECTOR OF VVEC
000435:                                                                                                  #  UN      * +1           *DP UNIT VECTOR OF UR1*U2
000436:
000437:                                                                                                  #        PARAMETERS OF NO USE -
000438:                                                                                                  #  SP PARAMETERS - RTNTT, GEOMSGN, RTNPRM, MAGVEC2=R2 (DP), PLUS PUSHLIST LOCATIONS 0-11D, 14D-21D, 24D-39D, 41D
000439:                                                                                                  #  ADDITIONAL INTERPRETIVE SWITCHES USED - NORMSW, 360SW
000440:
000441:


000443:
000444:                                                                                                  #  PROGRAM DESCRIPTION - TIME-RADIUS SUBROUTINE                          DATE - 11 OCTOBER 1967
000445:                                                                                                  #  MOD NO. -1                                                                    LOG SECTION - CONIC SUBROUTINES
000446:                                                                                                  #  MOD BY KRAUSE                                                                 ASSEMBLY - COLOSSUS REVISION 88
000447:
000448:
000449:
000450:                                                                                                  #  FUNCTIONAL DESCRIPTION -
000451:
000452:                                                                                                  #        THIS SUBROUTINE, GIVEN AN INITIAL STATE VECTOR AND A DESIRED RADIUS TO WHICH THE
000453:                                                                                                  #  STATE IS TO BE UPDATED ALONG A CONIC TRAJECTORY, CALCULATES THE CORRESPONDING TIME-OF-FLIGHT AND, IN ADDITION,
000454:                                                                                                  #  PROVIDES THE OPTION OF COMPUTING THE NEW UPDATED STATE VECTOR.  THE RESULTING TRAJECTORY MAY BE A SECTION OF A
000455:                                                                                                  #  CIRCLE, ELLIPSE, PARABOLA, OR HYPERBOLA WITH RESPECT TO THE EARTH OR THE MOON.  THE USE OF THE SUBROUTINE CAN BE
000456:                                                                                                  #  EXTENDED USING OTHER PRIMARY BODIES BY SIMPLE ADDITIONS TO THE MUTABLE WITHOUT INTRODUCING ANY CODING CHANGES,
000457:                                                                                                  #  ACCEPTING THE INHERENT SCALE FACTOR CHANGES IN POSITION AND VELOCITY.
000458:                                                                                                  #        IF THE DESIRED RADIUS IS BEYOND THE RADIUS OF APOCENTER OF THE CONIC OR BELOW THE RADIUS OF PERICENTER,
000459:                                                                                                  #  APSESW WILL BE SET AND THE SUBROUTINE WILL RETURN THE APOCENTER OR PERICENTER SOLUTION, RESPECTIVELY.
000460:
000461:
000462:                                                                                                  #  THE RESTRICTIONS ARE -
000463:                                                                                                  #        1. THE ANGLE BETWEEN ANY POSITION VECTOR AND ITS VELOCITY VECTOR MUST BE GREATER THAN 1 DEGREE 47.5 MINUTES
000464:                                                                                                  #  AND LESS THAN 178 DEGREES 12.5 MINUTES.
000465:                                                                                                  #        2. THE PARAMETERS IN THE PROBLEM MUST NOT EXCEED THEIR SCALING LIMITS SPECIFIED IN THE GSOP.  IF THE LIMITS
000466:                                                                                                  #  ARE EXCEEDED, THE RESULTING SOLUTION WILL BE MEANINGLESS.
000467:                                                                                                  #        3. AN ACCURACY DEGRADATION OCCURS AS THE SENSITIVITIES OF TIME AND UPDATED STATE VECTOR TO CHANGES IN
000468:                                                                                                  #  RDESIRED INCREASE.  THIS WILL OCCUR NEAR EITHER APSIS OF THE CONIC AND WHEN THE CONIC IS NEARLY CIRCULAR.  IN
000469:                                                                                                  #  PARTICULAR, IF THE CONIC IS AN EXACT CIRCLE, THE PROBLEM IS UNDEFINED AND THE SUBROUTINE WILL ABORT.
000470:
000471:
000472:                                                                                                  #        THE AGC COMPUTATION TIME IS APPROXIMATELY .363 SECONDS
000473:
000474:
000475:
000476:                                                                                                  #  REFERENCES -
000477:                                                                                                  #        R-479, MISSION PROGRAMMING DEFINITION MEMO NO. 10, LUNAR LANDING MISSION GSOP-SECTION 5.5, SGA MEMO 67-8.
000478:
000479:
000480:
000481:                                                                                                  #  INPUT - ERASABLE INITIALIZATION REQUIRED
000482:
000483:                                                                                                  #          * SCALE FACTOR *
000484:                                                                                                  #  VARIABLE*IN POWERS OF 2*                      DESCRIPTION AND REMARKS
000485:                                                                                                  #  --------*--------------*                      -----------------------
000486:                                                                                                  #  RVEC    * +29 FOR EARTH*DP INITIAL POSITION VECTOR IN METERS
000487:                                                                                                  #          * +27 FOR MOON *
000488:                                                                                                  #  VVEC    * +7 FOR EARTH *DP INITIAL VELOCITY VECTOR IN METERS/CENTISECOND
000489:                                                                                                  #          * +5 FOR MOON  *
000490:                                                                                                  #  RDESIRED* +29 FOR EARTH*DP TERMINAL RADIAL DISTANCE ON CONIC TRAJECTORY FOR WHICH TRANSFER TIME IS TO BE
000491:                                                                                                  #          * +27 FOR MOON *COMPUTED.
000492:                                                                                                  #  SGNRDOT * NONE         *SP TAG SET TO +.5 OR -.5 ACCORDING TO WHETHER THE RADIAL VELOCITY AT RDESIRED IS TO BE
000493:                                                                                                  #          *              *POSITIVE OR NEGATIVE, RESPECTIVELY.   THIS TAG REDUCES THE DOUBLE-VALUED PROBLEM TO A


000495:                                                                                                  #          *              *SINGLE-VALUED PROBLEM.
000496:                                                                                                  #  X1 (38D)* NONE         *INDEX REGISTER TO BE SET TO -2D OR -10D ACCORDING TO WHETHER THE EARTH OR MOON,
000497:                                                                                                  #          *              *RESPECTIVELY, IS THE CENTRAL BODY.
000498:                                                                                                  #  RVSW    * NONE         *AN INTERPRETIVE SWITCH TO BE SET IF ONLY TIME IS TO BE AN OUTPUT, CLEAR IF THE NEW STATE
000499:                                                                                                  #          *              *IS TO BE COMPUTED ALSO.
000500:
000501:
000502:
000503:                                                                                                  #  SUBROUTINES CALLED -
000504:                                                                                                  #        PARAM, GEOM, GETX, DELTIME, NEWSTATE
000505:
000506:
000507:
000508:                                                                                                  #  CALLING SEQUENCE AND NORMAL EXIT MODES -
000509:
000510:                                                                                                  #        IF ONLY TIME IS DESIRED AS OUTPUT -
000511:                                                                                                  #  L     SET     CALL            MUST BE IN INTERPRETIVE MODE BUT OVFIND ARBITRARY.
000512:                                                                                                  #  L+1           RVSW
000513:                                                                                                  #  L+2           TIMERAD         RETURN WITH PL AT 0 AND T IN MPAC
000514:                                                                                                  #  L+3   ...                     CONTINUE
000515:
000516:                                                                                                  #        IF THE UPDATE STATE VECTOR IS DESIRED AS WELL -
000517:                                                                                                  #  L     CLEAR   CALL            MUST BE IN INTERPRETIVE MODE BUT OVFIND ARBITRARY.
000518:                                                                                                  #  L+1           RVSW
000519:                                                                                                  #  L+2           TIMERAD         RETURNS WITH PL AT 6.  THE INITIAL POSITION VECTOR IS IN 0D OF THE PUSHLIST AND
000520:                                                                                                  #                                THE INITIAL VELOCITY VECTOR IN MPAC.
000521:                                                                                                  #  L+3   STOVL   NEWVVEC
000522:                                                                                                  #  L+4   STADR
000523:                                                                                                  #  L+5   STORE   NEWRVEC                 NEWVVEC AND NEWRVEC ARE SYMBOLIC REPRESENTATIONS OF THE USERS LOCATIONS.
000524:                                                                                                  #  L+6   ...                             CONTINUE
000525:
000526:
000527:
000528:                                                                                                  #  ABORT EXIT MODES -
000529:                                                                                                  #        IF SOLNSW AND/OR COGAFLAG AND/OR INFINFLG IS SET AT THE EXIT TO TIME-RADIUS, TIME-RADIUS WILL TRANSFER
000530:                                                                                                  #        TO POODOO WITH AN ALARM CODE (ORIGINALLY 00607), AND NOT RETURN TO THE CALLING PROGRAM. (PCR 692 & 721)
000531:
000532:
000533:
000534:                                                                                                  #  OUTPUT -
000535:                                                                                                  #          * SCALE FACTOR *
000536:                                                                                                  #  VARIABLE*IN POWERS OF 2*                      DESCRIPTION AND REMARKS
000537:                                                                                                  #  --------*--------------*                      -----------------------
000538:                                                                                                  #  T (30D) * +28          *DP TRANSFER TIME IN CENTISECONDS
000539:                                                                                                  #  INFINFLG* NONE         *AN INTERPRETIVE SWITCH WHICH IS SET IF RDESIRED AND SGNRDOT REQUIRE CLOSURE THROUGH
000540:                                                                                                  #          *              *INFINITY (NO SOLUTION), CLEAR IF A PHYSICAL SOLUTION IS POSSIBLE.
000541:                                                                                                  #  COGAFLAG* NONE         *AN INTERPRETIVE SWITCH WHICH IS SET IF RESTRICTION 1 HAS BEEN VIOLATED (NO SOLUTION),
000542:                                                                                                  #          *              *CLEAR IF NOT.
000543:                                                                                                  #  APSESW  * NONE         *AN INTERPRETIVE SWITCH WHICH IS SET IF RDESIRED WAS GREATER THAN RADIUS OF APOCENTER OR


000545:                                                                                                  #          *              *LESS THAN RADIUS OF PERICENTER.  THE APOCENTER OR PERICENTER SOLUTION, RESPECTIVELY,
000546:                                                                                                  #          *              *WILL THEN BE RETURNED.  THE SWITCH IS CLEAR IF RDESIRED WAS BETWEEN PERICENTER AND
000547:                                                                                                  #          *              *APOCENTER.
000548:                                                                                                  #  SOLNSW  * NONE         *AN INTERPRETIVE SWITCH WHICH IS SET IF THE CONIC IS SO CLOSE TO A CIRCLE THAT THE TERMIN
000549:                                                                                                  #                         *POINT IS AMBIGUOUS, VIOLATING RESTRICTION 3.  IF ECCENTRICITY IS GREATER THAN 2-TO-THE-
000550:                                                                                                  #                         *MINUS-18, THE SWITCH IS CLEAR.
000551:
000552:
000553:                                                                                                  #  IN ADDITION, IF RVSW IS CLEAR, THE FOLLOWING ARE OUTPUT -
000554:
000555:                                                                                                  #  MPAC -  * +7 FOR EARTH *DP TERMINAL VELOCITY VECTOR IN METERS/CENTISEC.
000556:                                                                                                  #   MPAC +5* +5 FOR MOON  *
000557:                                                                                                  #  0D - 5D * +29 FOR EARTH*DP TERMINAL POSITION VECTOR IN METERS (PL AT 6D)
000558:                                                                                                  #          * +27 FOR MOON *
000559:
000560:                                                                                                  #  FOR OTHER OUTPUT WHICH MAY BE OF USE, SEE DEBRIS.
000561:
000562:
000563:
000564:                                                                                                  #  DEBRIS -
000565:
000566:                                                                                                  #        PARAMETERS WHICH MAY BE OF USE -
000567:
000568:                                                                                                  #          * SCALE FACTOR *
000569:                                                                                                  #  VARIABLE*IN POWERS OF 2*                      DESCRIPTION AND REMARKS
000570:                                                                                                  #  --------*--------------*                      -----------------------
000571:                                                                                                  #  R1 (32D)* +29 FOR EARTH*DP MAGNITUDE OF INITIAL POSITION VECTOR, RVEC, IN METERS
000572:                                                                                                  #          * +27 FOR MOON *
000573:                                                                                                  #  R1A     * +6           *DP RATIO OF R1 TO SEMIMAJOR AXIS (NEG. FOR HYPERBOLIC TRAJECTORIES)
000574:                                                                                                  #  P       * +4           *DP RATIO OF SEMILATUS RECTUM TO R1
000575:                                                                                                  #  COGA    * +5           *DP COTAN OF ANGLE BETWEEN RVEC AND VVEC
000576:                                                                                                  #  UR1     * +1           *DP UNIT VECTOR OF RVEC
000577:                                                                                                  #  U2      * +1           *DP UNIT VECTOR OF VVEC
000578:                                                                                                  #  UN      * +1           *DP UNIT VECTOR OF UR1*U2
000579:                                                                                                  #  CSTH    * +1           *DP COSINE OF TRUE ANOMALY DIFFERENCE BETWEEN RVEC AND RDESIRED.
000580:                                                                                                  #  SNTH    * +1           *DP SINE OF TRUE ANOMALY DIFFERENCE.
000581:
000582:
000583:                                                                                                  #        PARAMETERS OF NO USE -
000584:                                                                                                  #  SP PARAMETERS - RTNTT, GEOMSGN, RTNPRM, MAGVEC2=R2 (DP), PLUS PUSHLIST LOCATIONS 0-11D, 14D-21D, 24D-39D, 41D
000585:                                                                                                  #  ADDITIONAL INTERPRETIVE SWITCHES USED - NORMSW, 360SW
000586:
000587:


000589:
000590:                                                                                                  #  PROGRAM DESCRIPTION - APSIDES SUBROUTINE                                      DATE - 1 SEPTEMBER 1967
000591:                                                                                                  #  MOD NO. - 0                                                                   LOG SECTION - CONIC SUBROUTINES
000592:                                                                                                  #  MOD BY KRAUSE                                                                 ASSEMBLY - COLOSSUS REVISION 88
000593:
000594:
000595:
000596:                                                                                                  #  FUNCTIONAL DESCRIPTION -
000597:
000598:                                                                                                  #        THIS SUBROUTINE, GIVEN AN INITIAL STATE VECTOR CALCULATES THE RADIUS OF PERICENTER AND OF APOCENTER AND THE
000599:                                                                                                  #  ECCENTRICITY OF THE RESULTING CONIC TRAJECTORY, WHICH MAY BE A STRAIGHT LINE,
000600:                                                                                                  #  CIRCLE, ELLIPSE, PARABOLA, OR HYPERBOLA WITH RESPECT TO THE EARTH OR THE MOON.  THE USE OF THE SUBROUTINE CAN BE
000601:                                                                                                  #  EXTENDED USING OTHER PRIMARY BODIES BY SIMPLE ADDITIONS TO THE MUTABLE WITHOUT INTRODUCING ANY CODING CHANGES,
000602:                                                                                                  #  ACCEPTING THE INHERENT SCALE FACTOR CHANGES IN POSITION AND VELOCITY.
000603:
000604:
000605:                                                                                                  #  THE RESTRICTIONS ARE -
000606:                                                                                                  #        1. IF APOCENTER IS BEYOND THE SCALING OF POSITION, THE SCALE FACTOR LIMIT (536,870,910 METERS WITH RESPECT
000607:                                                                                                  #  TO THE EARTH OR 134,217,727.5 METERS WITH RESPECT TO THE MOON) WILL BE RETURNED.
000608:                                                                                                  #        2. THE PARAMETERS IN THE PROBLEM MUST NOT EXCEED THEIR SCALING LIMITS SPECIFIED IN THE GSOP.  IF THE LIMITS
000609:                                                                                                  #  ARE EXCEEDED, THE RESULTING SOLUTION WILL BE MEANINGLESS.
000610:
000611:                                                                                                  #        THE AGC COMPUTATION TIME IS APPROXIMATELY .103 SECONDS.
000612:
000613:
000614:
000615:                                                                                                  #  REFERENCES -
000616:                                                                                                  #        MISSION PROGRAMMING DEFINITION MEMO NO. 10, LUNAR LANDING MISSION GSOP-SECTION 5.5
000617:
000618:
000619:
000620:                                                                                                  #  INPUT - ERASABLE INITIALIZATION REQUIRED
000621:
000622:                                                                                                  #          * SCALE FACTOR *
000623:                                                                                                  #  VARIABLE*IN POWERS OF 2*                      DESCRIPTION AND REMARKS
000624:                                                                                                  #  --------*--------------*                      -----------------------
000625:                                                                                                  #  RVEC    * +29 FOR EARTH*DP INITIAL POSITION VECTOR IN METERS
000626:                                                                                                  #          * +27 FOR MOON *
000627:                                                                                                  #  VVEC    * +7 FOR EARTH *DP INITIAL VELOCITY VECTOR IN METERS/CENTISECOND
000628:                                                                                                  #          * +5 FOR MOON  *
000629:                                                                                                  #  X1 (38D)* NONE         *INDEX REGISTER TO BE SET TO -2D OR -10D ACCORDING TO WHETHER THE EARTH OR MOON,
000630:                                                                                                  #          *              *RESPECTIVELY, IS THE CENTRAL BODY.
000631:
000632:
000633:
000634:                                                                                                  #  SUBROUTINES CALLED -
000635:                                                                                                  #        PARAM, GEOM
000636:
000637:
000638:
000639:                                                                                                  #  CALLING SEQUENCE AND NORMAL EXIT MODES -
000640:


000642:                                                                                                  #        IF ONLY TIME IS DESIRED AS OUTPUT -
000643:                                                                                                  #  L     CALL                    MUST BE IN INTERPRETIVE MODE BUT OVFIND ARBITRARY.
000644:                                                                                                  #  L+1           APSIDES         RETURNS WITH PL AT 0, RADIUS OF APOCENTER IN MPAC AND RADIUS OF PERICENTER IN 0D
000645:                                                                                                  #  L+2   STODL   APOAPSE
000646:                                                                                                  #  L+3           0D
000647:                                                                                                  #  L+4   STORE   PERIAPSE        APOAPSE AND PERIAPSE ARE SYMBOLIC REPRESENTATIONS OF THE USERS LOCATIONS
000648:                                                                                                  #  L+5   ...                     CONTINUE
000649:
000650:                                                                                                  #  OUTPUT -
000651:                                                                                                  #          * SCALE FACTOR *
000652:                                                                                                  #  VARIABLE*IN POWERS OF 2*                      DESCRIPTION AND REMARKS
000653:                                                                                                  #  --------*--------------*                      -----------------------
000654:                                                                                                  #  MPAC    * +29 FOR EARTH*DP RADIUS OF APOCENTER IN METERS
000655:                                                                                                  #          * +27 FOR MOON *
000656:                                                                                                  #  0D-1D   * +29 FOR EARTH*DP RADIUS OF PERICENTER IN METERS
000657:                                                                                                  #          * +27 FOR MOON *
000658:                                                                                                  #  ECC     * +3           *DP ECCENTRICITY OF CONIC TRAJECTORY.
000659:
000660:                                                                                                  #  FOR OTHER OUTPUT WHICH MAY BE OF USE, SEE DEBRIS.
000661:
000662:
000663:
000664:                                                                                                  #  DEBRIS -
000665:
000666:                                                                                                  #        PARAMETERS WHICH MAY BE OF USE -
000667:
000668:                                                                                                  #          * SCALE FACTOR *
000669:                                                                                                  #  VARIABLE*IN POWERS OF 2*                      DESCRIPTION AND REMARKS
000670:                                                                                                  #  --------*--------------*                      -----------------------
000671:                                                                                                  #  R1 (32D)* +29 FOR EARTH*DP MAGNITUDE OF INITIAL POSITION VECTOR, RVEC, IN METERS
000672:                                                                                                  #          * +27 FOR MOON *
000673:                                                                                                  #  R1A     * +6           *DP RATIO OF R1 TO SEMIMAJOR AXIS (NEG. FOR HYPERBOLIC TRAJECTORIES)
000674:                                                                                                  #  P       * +4           *DP RATIO OF SEMILATUS RECTUM TO R1
000675:                                                                                                  #  COGA    * +5           *DP COTAN OF ANGLE BETWEEN RVEC AND VVEC
000676:                                                                                                  #  UR1     * +1           *DP UNIT VECTOR OF RVEC
000677:                                                                                                  #  U2      * +1           *DP UNIT VECTOR OF VVEC
000678:                                                                                                  #  UN      * +1           *DP UNIT VECTOR OF UR1*U2
000679:                                                                                                  #  MAGVEC2 * +7 FOR EARTH *DP MAGNITUDE OF VVEC
000680:                                                                                                  #          * +5 FOR MOON  *
000681:
000682:
000683:                                                                                                  #        PARAMETERS OF NO USE -
000684:                                                                                                  #  SP PARAMETERS - RTNAPSE, GEOMSGN, RTNPRM, PLUS PUSHLIST LOCATIONS 0-5,10D-11D, 14D-21D, 31D-38D.
000685:                                                                                                  #  ADDITIONAL INTERPRETIVE SWITCHES USED - NORMSW
000686:
000687:
000688:
000689: 12,2000                                           SETLOC   CONICS


000691: 12,2000                                           BANK
000692:
000693: 12,2077                                           COUNT*   $$/CONIC
000694: 12,2077  E5,1723                                  EBANK=   UR1
000695:
000696: 12,2077           77624        KEPLERN            CALL
000697: 12,2100           24577                                    COMSETUP
000698: 12,2101           53575                           VLOAD    UNIT
000699: 12,2102           01503                                    RRECT
000700: 12,2103           16647                           STODL    URRECT
000701: 12,2104           00045                                    36D
000702: 12,2105           24041                           STOVL    R1
000703: 12,2106           01503                                    RRECT
000704: 12,2107           76441                           DOT      SL1R
000705: 12,2110           01511                                    VRECT
000706: 12,2111           76405                           DMP      SL1R
000707: 12,2112           00023                                    1/ROOTMU                              #  1/ROOTMU (-17 OR -14)
000708: 12,2113           24043                           STOVL    KEPC1                                 #  C1=R.V/ROOTMU (+17 OR +16)
000709:
000710: 12,2114           01511                                    VRECT
000711: 12,2115           57236                           VSQ      DMPR
000712: 12,2116           00017                                    1/MU                                  #  1/MU (-34 OR -28)
000713: 12,2117           52405                           DMP      SL3
000714: 12,2120           00041                                    R1
000715: 12,2121           61425                           DSU      ROUND
000716: 12,2122           33410                                    D1/64
000717: 12,2123           00045                           STORE    KEPC2                                 #  C2=RV.V/MU -1 (+6)
000718:
000719: 12,2124           74421                           BDSU     SR1R
000720: 12,2125           33410                                    D1/64
000721: 12,2126           77671                           DDV
000722: 12,2127           00041                                    R1
000723: 12,2130           00011                           STORE    ALPHA                                 #  ALPHA=(1-C2)/R1 (-22 OR -20)
000724:
000725: 12,2131           71244                           BPL      DLOAD                                 #  MAXIMUM X DEPENDS ON TYPE OF CONIC
000726: 12,2132           24141                                    1REV
000727: 12,2133           33426                                    -50SC                                 #  -50SC (+12)
000728: 12,2134           40071                           DDV      BOV
000729: 12,2135           00011                                    ALPHA
000730: 12,2136           24145                                    STOREMAX
000731: 12,2137           52166                           SQRT     GOTO
000732: 12,2140           24145                                    STOREMAX
000733:
000734: 12,2141           55366        1REV               SQRT     BDDV
000735: 12,2142           33430                                    2PISC                                 #  2PISC (+6)
000736: 12,2143           77600                           BOV
000737: 12,2144           24145                                    STOREMAX
000738: 12,2145           00013        STOREMAX           STORE    XMAX
000739: 12,2146           65205                           DMP      PDDL
000740: 12,2147           00023                                    1/ROOTMU


000742: 12,2150           00011                                    ALPHA
000743: 12,2151           65301                           NORM     PDDL
000744: 12,2152           00047                                    X1
000745: 12,2153           56257                           SL*      DDV
000746: 12,2154           20173                                    0          -6,1
000747: 12,2155           50000                           BOV      BMN
000748: 12,2156           24172                                    MODDONE
000749: 12,2157           24172                                    MODDONE                               #  MPAC=PERIOD
000750: 12,2160           51525        PERIODCH           PDDL     ABS                                   #  0D=PERIOD
000751: 12,2161           02303                                    TAU.
000752: 12,2162           50025                           DSU      BMN
000753: 12,2163           00001                                    0D
000754: 12,2164           24172                                    MODDONE
000755: 12,2165           77765                           SIGN
000756: 12,2166           02303                                    TAU.
000757: 12,2167           16303                           STODL    TAU.
000758: 12,2170           77650                           GOTO
000759: 12,2171           24160                                    PERIODCH
000760: 12,2172           71201        MODDONE            SETPD    DLOAD
000761: 12,2173           00001                                    0
000762: 12,2174           02277                                    XKEPNEW
000763: 12,2175           00025                           STORE    X
000764: 12,2176           53165                           SIGN     BZE
000765: 12,2177           02303                                    TAU.
000766: 12,2200           24347                                    BADX
000767: 12,2201           51440                           BMN      ABS
000768: 12,2202           24347                                    BADX
000769: 12,2203           51025                           DSU      BPL
000770: 12,2204           00013                                    XMAX
000771: 12,2205           24347                                    BADX
000772: 12,2206           51145        STORBNDS           DLOAD    BPL
000773: 12,2207           02303                                    TAU.
000774: 12,2210           24217                                    STOREMIN
000775: 12,2211           57545                           DLOAD    DCOMP
000776: 12,2212           00013                                    XMAX
000777: 12,2213           14015                           STODL    XMIN
000778: 12,2214           11762                                    KEPZERO
000779: 12,2215           34013                           STCALL   XMAX
000780: 12,2216           24222                                    DXCOMP
000781: 12,2217           77745        STOREMIN           DLOAD
000782: 12,2220           11762                                    KEPZERO
000783: 12,2221           00015                           STORE    XMIN
000784: 12,2222           57345        DXCOMP             DLOAD    DMPR
000785: 12,2223           02303                                    TAU.
000786: 12,2224           33421                                    BEE22
000787: 12,2225           77646                           ABS
000788: 12,2226           15026                           STODL    EPSILONT
000789: 12,2227           01553                                    XPREV
000790: 12,2230           77621        XDIFF              BDSU
000791: 12,2231           00025                                    X


000793: 12,2232           02643                           STORE    DELX
000794:
000795:
000796: 12,2233           63545        KEPLOOP            DLOAD    DSQ
000797: 12,2234           00025                                    X                                     #  X=XKEP
000798: 12,2235           41501                           NORM     PUSH                                  #  0D=XSQ (+34 OR +32 -N1)       PL AT 2
000799: 12,2236           00047                                    X1
000800: 12,2237           53605                           DMP      SRR*
000801: 12,2240           00011                                    ALPHA
000802: 12,2241           21573                                    0          -6,1
000803: 12,2242           34031                           STCALL   XI                                    #  XI=ALPHA XSQ (+6)
000804: 12,2243           24462                                    DELTIME
000805: 12,2244           44200                           BOV      BDSU
000806: 12,2245           24355                                    TIMEOVFL                              #  UNLIKELY
000807: 12,2246           02303                                    TAU.
000808: 12,2247           02645                           STORE    DELT                                  #  DELT=DELINDEP
000809: 12,2250           44246                           ABS      BDSU
000810: 12,2251           01026                                    EPSILONT
000811: 12,2252           71244                           BPL      DLOAD
000812: 12,2253           24375                                    KEPCONVG
000813: 12,2254           00037                                    T
000814: 12,2255           60225                           DSU      NORM
000815: 12,2256           01551                                    TC
000816: 12,2257           00047                                    X1
000817: 12,2260           60325                           PDDL     NORM
000818: 12,2261           02643                                    DELX
000819: 12,2262           00050                                    X2
000820: 12,2263           41260                           XSU,1    DMP
000821: 12,2264           00047                                    X2
000822: 12,2265           02645                                    DELT
000823: 12,2266           56257                           SLR*     DDV
000824: 12,2267           21202                                    1,1
000825: 12,2270           41542                           SR1      PUSH                                  #  0D=TRIAL DELX                 PL AT 2
000826: 12,2271           71244                           BPL      DLOAD
000827: 12,2272           24313                                    POSDELX
000828: 12,2273           00025                                    X
000829: 12,2274           00013                           STORE    XMAX                                  #  MOVE MAX BOUND IN
000830: 12,2275           45221                           BDSU     DSU                                   #                                PL AT 0
000831: 12,2276           00015                                    XMIN
000832: 12,2277           51000                           BOV      BPL
000833: 12,2300           24305                                    NDXCHNGE
000834: 12,2301           24305                                    NDXCHNGE
000835: 12,2302           52145                           DLOAD    GOTO
000836: 12,2303           00001                                    0D
000837: 12,2304           24325                                    NEWDELX
000838:
000839:
000840: 12,2305           45345        NDXCHNGE           DLOAD    DSU
000841: 12,2306           00015                                    XMIN
000842: 12,2307           00025                                    X


000844: 12,2310           52075                           DMPR     GOTO                                  #  TO FORCE MPAC +2 TO ZERO
000845: 12,2311           33424                                    DP9/10
000846: 12,2312           24325                                    NEWDELX
000847:
000848:
000849: 12,2313           77745        POSDELX            DLOAD
000850: 12,2314           00025                                    X
000851: 12,2315           00015                           STORE    XMIN                                  #  MOVE MIN BOUND IN
000852: 12,2316           45221                           BDSU     DSU                                   #                                PL AT 0
000853: 12,2317           00013                                    XMAX
000854: 12,2320           50000                           BOV      BMN
000855: 12,2321           24341                                    PDXCHNGE
000856: 12,2322           24341                                    PDXCHNGE
000857: 12,2323           77745                           DLOAD
000858: 12,2324           00001                                    0D
000859: 12,2325           02643        NEWDELX            STORE    DELX
000860: 12,2326           43254                           BZE      DAD
000861: 12,2327           24375                                    KEPCONVG
000862: 12,2330           00025                                    X
000863: 12,2331           14025                           STODL    X
000864: 12,2332           00037                                    T
000865: 12,2333           01551                           STORE    TC
000866: 12,2334           46034        BRNCHCTR           RTB      BHIZ
000867: 12,2335           24716                                    CHECKCTR
000868: 12,2336           24375                                    KEPCONVG
000869: 12,2337           77650                           GOTO
000870: 12,2340           24233                                    KEPLOOP                               #  ITERATE
000871:
000872:
000873: 12,2341           45345        PDXCHNGE           DLOAD    DSU
000874: 12,2342           00013                                    XMAX
000875: 12,2343           00025                                    X
000876: 12,2344           52075                           DMPR     GOTO                                  #  TO FORCE MPAC +2 TO ZERO
000877: 12,2345           33424                                    DP9/10
000878: 12,2346           24325                                    NEWDELX
000879:
000880:
000881: 12,2347           70545        BADX               DLOAD    SR1
000882: 12,2350           00013                                    XMAX
000883: 12,2351           77765                           SIGN
000884: 12,2352           02303                                    TAU.
000885: 12,2353           34025                           STCALL   X
000886: 12,2354           24206                                    STORBNDS
000887: 12,2355           50145        TIMEOVFL           DLOAD    BMN                                   #  X WAS TOO BIG
000888: 12,2356           00025                                    X
000889: 12,2357           24373                                    NEGTOVFL
000890: 12,2360           00013                           STORE    XMAX
000891: 12,2361           70545        CMNTOVFL           DLOAD    SR1
000892: 12,2362           02643                                    DELX
000893: 12,2363           02643                           STORE    DELX


000895: 12,2364           44254                           BZE      BDSU
000896: 12,2365           02267                                    KEPRTN
000897: 12,2366           00025                                    X
000898: 12,2367           14025                           STODL    X
000899: 12,2370           01551                                    TC
000900: 12,2371           34037                           STCALL   T
000901: 12,2372           24334                                    BRNCHCTR
000902: 12,2373           34015        NEGTOVFL           STCALL   XMIN
000903: 12,2374           24361                                    CMNTOVFL
000904: 12,2375           44545        KEPCONVG           DLOAD    SR4R
000905: 12,2376           00041                                    R1
000906: 12,2377           74225                           DSU      VXSC
000907: 12,2400           00035                                    XSQC(XI)
000908: 12,2401           02647                                    URRECT
000909: 12,2402           65372                           VSL1     PDDL                                  #  0D=(R1-XSQC(XI))URRECT (+33 OR +31)
000910: 12,2403           00025                                    X
000911: 12,2404           60316                           DSQ      NORM
000912: 12,2405           00047                                    X1
000913: 12,2406           57275                           DMPR     DMPR
000914: 12,2407           00023                                    1/ROOTMU
000915: 12,2410           00025                                    X
000916: 12,2411           53605                           DMP      SRR*
000917: 12,2412           00033                                    S(XI)
000918: 12,2413           21572                                    0          -7,1
000919: 12,2414           77621                           BDSU
000920: 12,2415           00037                                    T
000921: 12,2416           74352                           SL1      VXSC
000922: 12,2417           01511                                    VRECT
000923: 12,2420           53372                           VSL1     VAD                                   #                                PL AT 0
000924: 12,2421           77712                           VSL4
000925: 12,2422           01535                           STORE    RCV                                   #  RCV (+29 OR +27)
000926:
000927:
000928: 12,2423           60246                           ABVAL    NORM
000929: 12,2424           00050                                    X2
000930: 12,2425           16655                           STODL    RCNORM
000931: 12,2426           00031                                    XI
000932: 12,2427           45275                           DMPR     DSU
000933: 12,2430           00033                                    S(XI)
000934: 12,2431           33406                                    D1/128
000935: 12,2432           76405                           DMP      SL1R
000936: 12,2433           00021                                    ROOTMU
000937: 12,2434           53605                           DMP      SLR*
000938: 12,2435           00025                                    X
000939: 12,2436           56601                                    0          -3,2
000940: 12,2437           74271                           DDV      VXSC
000941: 12,2440           02655                                    RCNORM
000942: 12,2441           02647                                    URRECT
000943: 12,2442           65372                           VSL1     PDDL                                  #  0D=URRECT(XI S(XI)-1)X ROOTMU/RCV (+15
000944: 12,2443           00035                                    XSQC(XI)                              #  OR +13)                       PL AT 6


000946: 12,2444           56257                           SLR*     DDV
000947: 12,2445           56602                                    0          -4,2
000948: 12,2446           02655                                    RCNORM
000949: 12,2447           74221                           BDSU     VXSC
000950: 12,2450           33422                                    D1/256
000951: 12,2451           01511                                    VRECT
000952: 12,2452           42455                           VAD      VSL8                                  #                                PL AT 0
000953: 12,2453           77626                           STADR
000954: 12,2454           62234                           STODL    VCV                                   #  VCV (+7 OR +5)
000955: 12,2455           00037                                    T
000956: 12,2456           15551                           STODL    TC
000957: 12,2457           00025                                    X
000958: 12,2460           35553                           STCALL   XPREV
000959: 12,2461           02267                                    KEPRTN
000960:


000962: 12,2462           77776        DELTIME            EXIT                                           #  MPAC=XI (+6), 0D=XSQ (+34 OR +32 -N1)
000963: 12,2463           07171                           TC       POLY
000964: 12,2464           00010                           DEC      8          B-14
000965: 12,2465           02525 12526                     2DEC     .083333334
000966: 12,2467           67356 75666                     2DEC     -.266666684
000967: 12,2471           15001 23771                     2DEC     .406349155
000968: 12,2473           64342 43674                     2DEC     -.361198675
000969: 12,2475           06563 04645                     2DEC     .210153242
000970: 12,2477           75173 52672                     2DEC     -.086221951
000971: 12,2501           00656 14331                     2DEC     .026268812
000972: 12,2503           77633 40512                     2DEC     -.006163316
000973: 12,2505           00023 11210                     2DEC     .001177342
000974: 12,2507           77774 67506                     2DEC     -.000199055
000975: 12,2511           06006                           TC       INTPRET
000976: 12,2512           14033                           STODL    S(XI)
000977: 12,2513           00031                                    XI
000978: 12,2514           77776                           EXIT
000979: 12,2515           07171                           TC       POLY
000980: 12,2516           00010                           DEC      8          B-14
000981: 12,2517           01000 00000                     2DEC     .031250001
000982: 12,2521           72525 52506                     2DEC     -.166666719
000983: 12,2523           13301 15337                     2DEC     .355555413
000984: 12,2525           62776 54733                     2DEC     -.406347410
000985: 12,2527           11176 13267                     2DEC     .288962094
000986: 12,2531           73410 51674                     2DEC     -.140117894
000987: 12,2533           01446 33641                     2DEC     .049247387
000988: 12,2535           77451 65233                     2DEC     -.013081923
000989: 12,2537           00055 37266                     2DEC     .002806389
000990: 12,2541           77767 52336                     2DEC     -.000529414
000991: 12,2543           06006                           TC       INTPRET


000993: 12,2544           53605                           DMP      SRR*                                  #                                PL AT 0
000994: 12,2545           00001                                    0D
000995: 12,2546           21574                                    0          -5,1
000996: 12,2547           00035                           STORE    XSQC(XI)                              #  XSQC(XI) (+33 OR +31)
000997: 12,2550           72405                           DMP      SL1
000998: 12,2551           00043                                    KEPC1
000999: 12,2552           65234                           RTB      PDDL                                  #  XCH WITH PL. 0D=C1 XSQ C(XI) (+49 OR +46
001000: 12,2553           45657                                    TPMODE                                #                                PL AT 0,3
001001: 12,2554           53605                           DMP      SRR*
001002: 12,2555           00033                                    S(XI)
001003: 12,2556           21574                                    0          -5,1
001004: 12,2557           72405                           DMP      SL1
001005: 12,2560           00045                                    KEPC2
001006: 12,2561           65234                           RTB      PDDL                                  #  3D=C2 XSQ S(XI) (+35 OR +33)  PL AT 6
001007: 12,2562           45657                                    TPMODE
001008: 12,2563           00041                                    R1
001009: 12,2564           76261                           SR       TAD                                   #                                PL AT 3
001010: 12,2565           20607                                    6
001011: 12,2566           41301                           NORM     DMP                                   #  TO PRESERVE SIGNIF.
001012: 12,2567           00047                                    X1
001013: 12,2570           00025                                    X
001014: 12,2571           76257                           SR*      TAD                                   #  X(C2 XSQ S(XI) +R1) (+49 OR +46) PL AT 0
001015: 12,2572           20576                                    0          -3,1
001016: 12,2573           57232                           SL4R     DMPR
001017: 12,2574           00023                                    1/ROOTMU
001018: 12,2575           00037                           STORE    T
001019: 12,2576           77616                           RVQ
001020:


001022: 12,2577           40001        COMSETUP           SETPD    BOV
001023: 12,2600           00001                                    0D
001024: 12,2601           24602                                    +1
001025: 12,2602           76731                           SSP      VLOAD*
001026: 12,2603           00027                                    ITERCTR
001027: 12,2604           00024                                    20D
001028: 12,2605           22301                                    MUTABLE,1
001029: 12,2606           00017                           STORE    1/MU
001030: 12,2607           77616                           RVQ
001031:
001032: 12,2610           71214        ITERATOR           BONCLR   DLOAD
001033: 12,2611           00614                                    SLOPESW
001034: 12,2612           24660                                    FIRSTIME
001035: 12,2613           00037                                    DEP
001036: 12,2614           60225                           DSU      NORM
001037: 12,2615           02764                                    DEPREV
001038: 12,2616           00047                                    X1
001039: 12,2617           60325                           PDDL     NORM
001040: 12,2620           00015                                    DELINDEP
001041: 12,2621           00050                                    X2
001042: 12,2622           41260                           XSU,1    DMP
001043: 12,2623           00047                                    X2
001044: 12,2624           02762                                    DELDEP
001045: 12,2625           56257                           SLR*     DDV                                   #                                PL UP 2
001046: 12,2626           21202                                    1,1
001047: 12,2627           43142                           SR1      BOFF
001048: 12,2630           04351                                    ORDERSW
001049: 12,2631           24634                                    SGNCHECK
001050: 12,2632           75246                           ABS      SIGN                                  #  IN CASE 2ND DERIV. CHANGED SIGN, MUST
001051: 12,2633           02762                                    DELDEP                                #  DISREGARD IT TO FIND MIN.
001052:
001053: 12,2634           51006        SGNCHECK           PUSH     BPL                                   #  TRIAL DELINDEP                PL DOWN 2
001054: 12,2635           24672                                    POSDEL
001055: 12,2636           43145                           DLOAD    BON
001056: 12,2637           03770                                    INDEP
001057: 12,2640           04311                                    ORDERSW
001058: 12,2641           24643                                    MINCHECK
001059: 12,2642           00017                           STORE    MAX                                   #  IF NOT 2ND ORDER, CAN MOVE MAX BOUND IN.
001060:
001061: 12,2643           45221        MINCHECK           BDSU     DSU
001062: 12,2644           00011                                    MIN
001063: 12,2645           51000                           BOV      BPL
001064: 12,2646           24652                                    MODNGDEL
001065: 12,2647           24652                                    MODNGDEL
001066: 12,2650           77650                           GOTO
001067: 12,2651           24704                                    DELOK
001068:
001069:
001070: 12,2652           45345        MODNGDEL           DLOAD    DSU                                   #  TRIAL DELINDEP WOULD EXCEED MIN BOUND
001071: 12,2653           00011                                    MIN


001073: 12,2654           03770                                    INDEP
001074: 12,2655           52005                           DMP      GOTO
001075: 12,2656           33424                                    DP9/10
001076: 12,2657           24706                                    NEWDEL
001077:
001078:
001079: 12,2660           41335        FIRSTIME           SLOAD    DMP
001080: 12,2661           00051                                    TWEEKIT
001081: 12,2662           00011                                    MIN
001082: 12,2663           67206                           PUSH     SLOAD
001083: 12,2664           00051                                    TWEEKIT
001084: 12,2665           45205                           DMP      DSU
001085: 12,2666           00017                                    MAX
001086: 12,2667           52165                           SIGN     GOTO
001087: 12,2670           02762                                    DELDEP
001088: 12,2671           24634                                    SGNCHECK
001089:
001090:
001091: 12,2672           43145        POSDEL             DLOAD    BON
001092: 12,2673           03770                                    INDEP
001093: 12,2674           04311                                    ORDERSW
001094: 12,2675           24677                                    MAXCHECK
001095: 12,2676           00011                           STORE    MIN                                   #  IF NOT 2ND ORDER, CAN MOVE MIN BOUND IN.
001096:
001097: 12,2677           45221        MAXCHECK           BDSU     DSU
001098: 12,2700           00017                                    MAX
001099: 12,2701           50000                           BOV      BMN
001100: 12,2702           24710                                    MODPSDEL
001101: 12,2703           24710                                    MODPSDEL
001102: 12,2704           77745        DELOK              DLOAD
001103: 12,2705           00001                                    0D
001104: 12,2706           00015        NEWDEL             STORE    DELINDEP
001105: 12,2707           77616                           RVQ
001106:
001107:
001108: 12,2710           45345        MODPSDEL           DLOAD    DSU
001109: 12,2711           00017                                    MAX
001110: 12,2712           03770                                    INDEP
001111: 12,2713           52005                           DMP      GOTO
001112: 12,2714           33424                                    DP9/10
001113: 12,2715           24706                                    NEWDEL
001114:
001115: 12,2716           44770        CHECKCTR           CS       ONE
001116: 12,2717           50120                           INDEX    FIXLOC
001117: 12,2720           26026                           ADS      ITERCTR
001118: 12,2721           54154                           TS       MPAC
001119: 12,2722           06030                           TC       DANZIG
001120:


001122: 12,2723           44545        NEWSTATE           DLOAD    SR4R
001123: 12,2724           00041                                    R1
001124: 12,2725           74225                           DSU      VXSC
001125: 12,2726           00035                                    XSQC(XI)
001126: 12,2727           02724                                    UR1
001127: 12,2730           65372                           VSL1     PDDL                                  #  0D=(R1-XSQC(XI))UR1 (+33 OR 31) PL AT 6
001128: 12,2731           00025                                    X
001129: 12,2732           60316                           DSQ      NORM
001130: 12,2733           00047                                    X1
001131: 12,2734           57275                           DMPR     DMPR
001132: 12,2735           00023                                    1/ROOTMU
001133: 12,2736           00025                                    X
001134: 12,2737           53605                           DMP      SRR*
001135: 12,2740           00033                                    S(XI)
001136: 12,2741           21572                                    0          -7,1
001137: 12,2742           77621                           BDSU
001138: 12,2743           00037                                    T
001139: 12,2744           74352                           SL1      VXSC
001140: 12,2745           02746                                    VVEC
001141: 12,2746           53372                           VSL1     VAD                                   #                                PL AT 0
001142: 12,2747           41512                           VSL4     PUSH
001143: 12,2750           77646                           ABVAL
001144: 12,2751           77701        LAMENTER           NORM
001145: 12,2752           00047                                    X1
001146: 12,2753           16722                           STODL    R2
001147: 12,2754           00031                                    XI
001148: 12,2755           45205                           DMP      DSU
001149: 12,2756           00033                                    S(XI)
001150: 12,2757           33406                                    D1/128
001151: 12,2760           76405                           DMP      SL1R
001152: 12,2761           00021                                    ROOTMU
001153: 12,2762           53605                           DMP      SLR*
001154: 12,2763           00025                                    X
001155: 12,2764           21176                                    0          -3,1
001156: 12,2765           74271                           DDV      VXSC
001157: 12,2766           02722                                    R2
001158: 12,2767           02724                                    UR1
001159: 12,2770           65372                           VSL1     PDDL                                  #  6D=V2VEC PART (+15 OR 13)     PL AT 12
001160: 12,2771           00035                                    XSQC(XI)
001161: 12,2772           56257                           SLR*     DDV
001162: 12,2773           21175                                    0          -4,1
001163: 12,2774           02722                                    R2
001164: 12,2775           77621                           BDSU
001165: 12,2776           33422                                    D1/256
001166: 12,2777           53361                           VXSC     VAD
001167: 12,3000           02746                                    VVEC                                  #                                PL AT 6
001168: 12,3001           43412                           VSL8     RVQ
001169:


001171: 15,2000                                           SETLOC   CONICS1
001172: 15,2000                                           BANK
001173:
001174: 15,3402                                           COUNT*   $$/CONIC
001175:                                                                                                  #  DO NOT DISTURB THE ORDER OF THESE CDS, OVERLAYS HAVE BEEN MADE.
001176: 15,3402           00000        BEE17              DEC      0          B-14                       #  KEEP WITH D1/8 2DEC 1.0B-17 (0000004000)
001177: 15,3403           04000 00000  D1/8               2DEC     1.0        B-3
001178: 15,3405           00200 00000  D1/128             2DEC     1.0        B-7
001179: 15,3407           00400 00000  D1/64              2DEC     1.0        B-6
001180: 15,3411           10000 00000  D1/4               2DEC     1.0        B-2
001181: 15,3413           02000 00000  D1/16              2DEC     1.0        B-4
001182: 15,3415           01000 00000  D1/32              2DEC     1.0        B-5
001183: 15,3417           00020 00000  D1/1024            2DEC     1.0        B-10
001184: 15,3421           00100 00000  D1/256             2DEC     1.0        B-8
001185: 15,3423           34631 23146  DP9/10             2DEC     .9
001186: 15,3425  04,3761               KEPZERO            EQUALS   LO6ZEROS
001187: 15,3425           77467 77777  -50SC              2DEC     -50.0      B-12
001188: 15,3427           03110 17665  2PISC              2DEC     6.28318530 B-6
001189: 15,3431  15,3414               BEE19              EQUALS   D1/32      -1                         #  2DEC 1.0 B-19 (00000 01000)
001190: 15,3431  15,3420               BEE22              EQUALS   D1/256     -1                         #  2DEC 1.0 B-22 (00000 00100)
001191: 15,3431           00000 00001  ONEBIT             2DEC     1.0        B-28
001192: 15,3433           37767 37737  COGUPLIM           2DEC     .999511597
001193: 15,3435           40010 40040  COGLOLIM           2DEC     -.999511597
001194:


001196: 12,2000                                           SETLOC   CONICS
001197: 12,2000                                           BANK
001198:
001199: 12,3002                                           COUNT*   $$/CONIC
001200: 12,3002           45020        TIMETHET           STQ      CALL
001201: 12,3003           02712                                    RTNTT
001202: 12,3004           25763                                    PRAMSET
001203: 12,3005           77624                           CALL
001204: 12,3006           37727                                    PARAM
001205: 12,3007           45000                           BOV      CALL                                  #                                PL AT 0
001206: 12,3010           25027                                    COGAOVFL
001207: 12,3011           25032                                    GETX
001208: 12,3012           43145        COMMNOUT           DLOAD    BON
001209: 12,3013           00031                                    XI
001210: 12,3014           04310                                    INFINFLG
001211: 12,3015           25760                                    ABTCONIC
001212: 12,3016           45014                           CLEAR    CALL
001213: 12,3017           04273                                    COGAFLAG
001214: 12,3020           24462                                    DELTIME
001215: 12,3021           45014                           BON      CALL
001216: 12,3022           03706                                    RVSW
001217: 12,3023           02712                                    RTNTT
001218: 12,3024           24723                                    NEWSTATE
001219: 12,3025           77650                           GOTO
001220: 12,3026           02712                                    RTNTT
001221:
001222: 12,3027           77614        COGAOVFL           SETGO
001223: 12,3030           04033                                    COGAFLAG
001224: 12,3031           25760                                    ABTCONIC
001225: 17,2000                                           SETLOC   CONICS2
001226: 17,2000                                           BANK
001227: 17,3727                                           COUNT*   $$/CONIC
001228: 17,3727           43020        PARAM              STQ      CLEAR                                 #  MPAC=V1VEC, 0D=R1VEC          PL AT 6
001229: 17,3730           02755                                    RTNPRM
001230: 17,3731           03665                                    NORMSW
001231: 17,3732           77614                           CLEAR
001232: 17,3733           04273                                    COGAFLAG
001233: 17,3734           45131                           SSP      CALL
001234: 17,3735           02675                                    GEOMSGN
001235: 17,3736           27777                                    37777                                 #  GAMMA ALWAYS LESS THAN 180DEG
001236: 17,3737           13717                                    GEOM                                  #  MPAC=SNGA (+1), 0D=CSGA (+1)  PL AT 2
001237: 17,3740           14045                           STODL    36D                                   #  36D=SIN GAMMA (+1)            PL AT 0
001238: 17,3741           56261                           SR       DDV
001239: 17,3742           20606                                    5
001240:
001241: 17,3743           00045                                    36D
001242: 17,3744           33770                           STOVL*   COGA
001243: 17,3745           22301                                    MUTABLE,1
001244: 17,3746           14017                           STODL    1/MU


001246: 17,3747           02722                                    MAGVEC2
001247: 17,3750           60316                           DSQ      NORM
001248: 17,3751           00047                                    X1
001249: 17,3752           41275                           DMPR     DMP
001250: 17,3753           00017                                    1/MU
001251: 17,3754           00041                                    R1
001252: 17,3755           77657                           SRR*
001253: 17,3756           21576                                    0          -3,1
001254: 17,3757           44206                           PUSH     BDSU                                  #  0D=R1 V1SQ/MU (+6)            PL AT 2
001255: 17,3760           33416                                    D1/32
001256: 17,3761           16744                           STODL    R1A                                   #  R1A (+6)                      PL AT 0
001257:
001258: 17,3762           60205                           DMP      NORM
001259: 17,3763           00045                                    36D
001260: 17,3764           00047                                    X1
001261: 17,3765           53605                           DMP      SR*
001262: 17,3766           00045                                    36D
001263: 17,3767           20575                                    0          -4,1
001264: 17,3770           36742                           STCALL   P                                     #  P (+4)
001265: 17,3771           02755                                    RTNPRM
001266:


001268: 05,2000                                           SETLOC   CONICS4
001269: 05,2000                                           BANK
001270:
001271: 05,3717                                           COUNT*   $$/CONIC
001272: 05,3717           77656        GEOM               UNIT                                           #  MPAC=V2VEC, 0D=R1VEC          PL AT 6
001273: 05,3720           16714                           STODL    U2                                    #  U2 (+1)
001274: 05,3721           00045                                    36D
001275: 05,3722           26722                           STOVL    MAGVEC2                               #                                PL AT 0
001276: 05,3723           77656                           UNIT
001277: 05,3724           02724                           STORE    UR1                                   #  UR1 (+1)
001278: 05,3725           72441                           DOT      SL1
001279: 05,3726           02714                                    U2
001280: 05,3727           77725                           PDDL                                           #  0D=CSTH (+1)                  PL AT 2
001281: 05,3730           00045                                    36D
001282: 05,3731           24041                           STOVL    R1                                    #  R1 (+29 OR +27)
001283: 05,3732           02724                                    UR1
001284: 05,3733           76435                           VXV      VSL1
001285: 05,3734           02714                                    U2
001286: 05,3735           75214                           BON      SIGN
001287: 05,3736           03705                                    NORMSW
001288: 05,3737           13751                                    HAVENORM
001289: 05,3740           02675                                    GEOMSGN
001290: 05,3741           40056                           UNIT     BOV
001291: 05,3742           13747                                    COLINEAR
001292: 05,3743           16676        UNITNORM           STODL    UN                                    #  UN (+1)
001293: 05,3744           00045                                    36D
001294: 05,3745           43565                           SIGN     RVQ                                   #  MPAC=SNTH (+1), 34D=SNTH.SNTH (+2)
001295: 05,3746           02675                                    GEOMSGN
001296:
001297:
001298: 05,3747           52162        COLINEAR           VSR1     GOTO
001299: 05,3750           13743                                    UNITNORM
001300:
001301: 05,3751           75246        HAVENORM           ABVAL    SIGN
001302: 05,3752           02675                                    GEOMSGN
001303: 05,3753           77616                           RVQ                                            #  MPAC=SNTH (+1), 34D=SNTH.SNTH (+2)
001304:


001306: 12,2000                                           SETLOC   CONICS
001307: 12,2000                                           BANK
001308:
001309: 12,3032                                           COUNT*   $$/CONIC
001310: 12,3032           66374        GETX               AXT,2    SSP                                   #  ASSUMES P (+4) IN MPAC
001311: 12,3033           00003                                    3
001312: 12,3034           00052                                    S2
001313: 12,3035           00001                                    1
001314: 12,3036           77614                           CLEAR
001315: 12,3037           04276                                    360SW
001316: 12,3040           65366                           SQRT     PDDL                                  #  0D=SQRT(P)                    PL AT 2
001317: 12,3041           02734                                    CSTH
001318: 12,3042           44342                           SR1      BDSU
001319: 12,3043           33412                                    D1/4
001320: 12,3044           54325                           PDDL     SRR                                   #                                PL AT 4D
001321: 12,3045           02732                                    SNTH
001322: 12,3046           21607                                    6
001323: 12,3047           77671                           DDV                                            #                                PL AT 2
001324: 12,3050           77600                           BOV
001325: 12,3051           25165                                    360CHECK
001326: 12,3052           41225                           DSU      DMP
001327: 12,3053           03770                                    COGA                                  #                                PL AT 0
001328: 12,3054           40132                           SL2R     BOV
001329: 12,3055           25165                                    360CHECK
001330: 12,3056           63406        WLOOP              PUSH     DSQ                                   #  0D=W (+5)                     PL AT 2
001331: 12,3057           65351                           TLOAD    PDDL                                  #  2D=WSQ (+10)                  PL AT 5
001332: 12,3060           00155                                    MPAC
001333: 12,3061           02744                                    R1A
001334: 12,3062           76202                           SR4      TAD                                   #                                PL AT 2
001335: 12,3063           75440                           BMN      SQRT
001336: 12,3064           25250                                    INFINITY
001337: 12,3065           43306                           ROUND    DAD                                   #                                PL AT 0D
001338: 12,3066           61000                           BOV      TIX,2
001339: 12,3067           25163                                    RESETX2
001340: 12,3070           25056                                    WLOOP
001341:
001342:
001343: 12,3071           40065                           BDDV     BOV
001344: 12,3072           33406                                    D1/128
001345: 12,3073           25250                                    INFINITY
001346: 12,3074           41440        POLYCOEF           BMN      PUSH                                  #  0D=1/W (+2) OR 16/W (+6)      PL AT 2
001347: 12,3075           25250                                    INFINITY
001348: 12,3076           77716                           DSQ
001349: 12,3077           41301                           NORM     DMP
001350: 12,3100           00047                                    X1
001351: 12,3101           02744                                    R1A
001352: 12,3102           77457                           SRR*     EXIT
001353: 12,3103           21567                                    0          -10D,1
001354: 12,3104           07171                           TC       POLY
001355: 12,3105           00005                           DEC      5          B-14


001357: 12,3106           20000 00000                     2DEC     .5
001358: 12,3110           72525 52471                     2DEC     -.166666770
001359: 12,3112           03146 15003                     2DEC     .100000392
001360: 12,3114           75556 45210                     2DEC     -.071401086
001361: 12,3116           01615 13553                     2DEC     .055503292
001362: 12,3120           76371 63777                     2DEC     -.047264098
001363: 12,3122           01232 27367                     2DEC     .040694204
001364:
001365: 12,3124           06006                           TC       INTPRET
001366: 12,3125           76405                           DMP      SL1R                                  #                                PL AT 0D
001367: 12,3126           43006                           PUSH     BON
001368: 12,3127           04316                                    360SW
001369: 12,3130           25235                                    TRUE360X
001370: 12,3131           60316        XCOMMON            DSQ      NORM
001371: 12,3132           00047                                    X1
001372: 12,3133           53605                           DMP      SRR*
001373: 12,3134           02744                                    R1A
001374: 12,3135           21565                                    0          -12D,1
001375: 12,3136           14031                           STODL    XI                                    #  XI (+6)
001376:
001377:
001378: 12,3137           00041                                    R1
001379: 12,3140           75542                           SR1      SQRT
001380: 12,3141           41306                           ROUND    DMP
001381: 12,3142           77632                           SL4R                                           #                                PL AT 0
001382: 12,3143           00025                           STORE    X                                     #  X (+17 OR +16)
001383:
001384:
001385: 12,3144           60316                           DSQ      NORM
001386: 12,3145           00047                                    X1
001387: 12,3146           41325                           PDDL     DMP                                   #  0D=XSQ (+34 OR +32 -N1)       PL AT 2
001388: 12,3147           02742                                    P
001389: 12,3150           00041                                    R1
001390: 12,3151           75452                           SL3      SQRT
001391: 12,3152           56405                           DMP      SL3R
001392: 12,3153           03770                                    COGA
001393: 12,3154           14043                           STODL    KEPC1
001394: 12,3155           02744                                    R1A
001395: 12,3156           43021                           BDSU     CLEAR
001396: 12,3157           33410                                    D1/64
001397: 12,3160           04270                                    INFINFLG
001398: 12,3161           00045                           STORE    KEPC2
001399: 12,3162           77616                           RVQ
001400:


001402:
001403: 12,3163           77774        RESETX2            AXT,2
001404: 12,3164           00003                                    3
001405:
001406: 12,3165           51001        360CHECK           SETPD    BPL
001407: 12,3166           00001                                    0D
001408: 12,3167           25172                                    INVRSEQN
001409: 12,3170           77614                           SET
001410: 12,3171           04076                                    360SW
001411:
001412:
001413: 12,3172           75545        INVRSEQN           DLOAD    SQRT
001414: 12,3173           02742                                    P
001415: 12,3174           41325                           PDDL     DMP                                   #  0D=SQRT(P) (+2)               PL AT 2
001416: 12,3175           02732                                    SNTH
001417: 12,3176           03770                                    COGA
001418: 12,3177           65352                           SL1      PDDL                                  #  2D=SNTH COGA (+5)             PL AT 4
001419: 12,3200           02734                                    CSTH
001420: 12,3201           43202                           SR4      DAD
001421: 12,3202           33416                                    D1/32
001422: 12,3203           41225                           DSU      DMP                                   #                                PL AT 2,0
001423: 12,3204           55301                           NORM     BDDV
001424: 12,3205           00047                                    X1
001425: 12,3206           02732                                    SNTH
001426: 12,3207           51457                           SLR*     ABS                                   #  NOTE: NEAR 360 CASE TREATED DIFFERENTLY
001427: 12,3210           21174                                    0          -5,1
001428: 12,3211           63406                           PUSH     DSQ                                   #  0D=1/W (-1)                   PL AT 2
001429: 12,3212           14043                           STODL    34D
001430: 12,3213           33414                                    D1/16
001431: 12,3214           63406        1/WLOOP            PUSH     DSQ                                   #  2D=G (+4)                     PL AT 4
001432: 12,3215           65234                           RTB      PDDL                                  #                                PL AT 7
001433: 12,3216           45657                                    TPMODE
001434: 12,3217           02744                                    R1A
001435: 12,3220           40405                           DMP      SR4
001436: 12,3221           00043                                    34D
001437: 12,3222           77771                           TAD                                            #                                PL AT 4
001438: 12,3223           75440                           BMN      SQRT
001439: 12,3224           25250                                    INFINITY
001440: 12,3225           77615                           DAD                                            #                                PL AT 2
001441: 12,3226           60304                           TIX,2    NORM
001442: 12,3227           25214                                    1/WLOOP
001443: 12,3230           00047                                    X1
001444: 12,3231           77665                           BDDV
001445: 12,3232           52057                           SLR*     GOTO                                  #                                PL AT 0
001446: 12,3233           21172                                    0          -7,1
001447: 12,3234           25074                                    POLYCOEF
001448:
001449:
001450: 12,3235           50145        TRUE360X           DLOAD    BMN
001451: 12,3236           02744                                    R1A


001453: 12,3237           25250                                    INFINITY
001454: 12,3240           60366                           SQRT     NORM
001455: 12,3241           00047                                    X1
001456: 12,3242           53665                           BDDV     SL*
001457: 12,3243           33430                                    2PISC
001458: 12,3244           20176                                    0          -3,1
001459: 12,3245           41425                           DSU      PUSH                                  #  0D=2PI/SQRT(R1A) -X           PL AT 0,2
001460: 12,3246           77650                           GOTO
001461: 12,3247           25131                                    XCOMMON
001462: 12,3250           40001        INFINITY           SETPD    BOV                                   #  NO SOLUTION EXISTS SINCE CLOSURE THROUGH
001463: 12,3251           00001                                    0                                     #  INFINITY IS REQUIRED
001464: 12,3252           25253                                    OVFLCLR
001465: 12,3253           43414        OVFLCLR            SET      RVQ
001466: 12,3254           04070                                    INFINFLG
001467:


001469: 12,3255           45020        LAMBERT            STQ      CALL
001470: 12,3256           02712                                    RTNLAMB
001471: 12,3257           24577                                    COMSETUP
001472: 12,3260           57345                           DLOAD    DMPR
001473: 12,3261           02673                                    TDESIRED
001474: 12,3262           33415                                    BEE19
001475: 12,3263           03772                           STORE    EPSILONL
001476: 12,3264           77214                           SET      VLOAD
001477: 12,3265           00474                                    SLOPESW
001478: 12,3266           02657                                    R1VEC
001479: 12,3267           45115                           PDVL     CALL                                  #  0D=R1VEC (+29 OR +27)         PL AT 6
001480: 12,3270           02665                                    R2VEC                                 #  MPAC=R2VEC (+29 OR +27)
001481: 12,3271           13717                                    GEOM
001482: 12,3272           16732                           STODL    SNTH                                  #  0D=CSTH (+1)                  PL AT 2
001483: 12,3273           02722                                    MAGVEC2
001484: 12,3274           65301                           NORM     PDDL                                  #                                PL AT 4
001485: 12,3275           00047                                    X1
001486: 12,3276           00041                                    R1
001487: 12,3277           56342                           SR1      DDV                                   #                                PL AT 2
001488: 12,3300           65257                           SL*      PDDL                                  #  DXCH WITH 0D, 0D=R1/R2 (+7)   PL AT 0,2
001489: 12,3301           20173                                    0          -6,1
001490: 12,3302           77626                           STADR
001491: 12,3303           75043                           STORE    CSTH                                  #  CSTH (+1)
001492: 12,3304           44342                           SR1      BDSU
001493: 12,3305           33412                                    D1/4
001494: 12,3306           02736                           STORE    1-CSTH                                #  1-CSTH (+2)
001495:
001496: 12,3307           53106                           ROUND    BZE
001497: 12,3310           25524                                    360LAMB
001498: 12,3311           65301                           NORM     PDDL                                  #                                PL AT 4
001499: 12,3312           00047                                    X1
001500: 12,3313           00001                                    0D
001501: 12,3314           56342                           SR1      DDV                                   #                                PL AT 2
001502: 12,3315           75457                           SL*      SQRT
001503: 12,3316           20176                                    0          -3,1
001504: 12,3317           54325                           PDDL     SR                                    #  2D=SQRT(2R1/R2(1-CSTH)) (+5)  PL AT 4
001505: 12,3320           02732                                    SNTH
001506: 12,3321           20607                                    6
001507: 12,3322           43271                           DDV      DAD                                   #                                PL AT 2
001508: 12,3323           02736                                    1-CSTH
001509: 12,3324           77626                           STADR
001510: 12,3325           77760                           STORE    COGAMAX
001511: 12,3326           50000                           BOV      BMN                                   #  IF OVFL, COGAMAX=COGUPLIM
001512: 12,3327           25334                                    UPLIM                                 #  IF NEG, USE EVEN IF LT COGLOLIM, SINCE
001513: 12,3330           25337                                    MAXCOGA                               #    THIS WOULD BE RESET IN LAMBLOOP
001514: 12,3331           50025                           DSU      BMN                                   #  IF COGAMAX GT COGUPLIM, COGAMAX=COGUPLIM
001515: 12,3332           33434                                    COGUPLIM
001516: 12,3333           25337                                    MAXCOGA                               #  OTHERWISE OK, SO GO TO MAXCOGA
001517: 12,3334           77745        UPLIM              DLOAD
001518: 12,3335           33434                                    COGUPLIM                              #  COGUPLIM=.999511597 = MAX VALUE OF COGA


001520: 12,3336           00017                           STORE    COGAMAX                               #    NOT CAUSING OVFL IN R1A CALCULATION
001521: 12,3337           54345        MAXCOGA            DLOAD    SR
001522: 12,3340           02734                                    CSTH
001523: 12,3341           20607                                    6
001524: 12,3342           45425                           DSU      STADR
001525: 12,3343           61037                           STODL    CSTH-RHO
001526: 12,3344           02675                                    GEOMSGN
001527: 12,3345           71240                           BMN      DLOAD
001528: 12,3346           25543                                    LOLIM
001529: 12,3347           02740                                    CSTH-RHO
001530: 12,3350           56352                           SL1      DDV
001531: 12,3351           02732                                    SNTH
001532: 12,3352           77600                           BOV
001533: 12,3353           25543                                    LOLIM
001534: 12,3354           00011        MINCOGA            STORE    COGAMIN                               #  COGAMIN (+5)
001535: 12,3355           66214                           BON      SSP
001536: 12,3356           00715                                    GUESSW
001537: 12,3357           25530                                    NOGUESS
001538: 12,3360           00051                                    TWEEKIT
001539: 12,3361           00001                                    00001
001540: 12,3362           77745                           DLOAD
001541: 12,3363           03770                                    COGA
001542:
001543:
001544: 12,3364           77605        LAMBLOOP           DMP
001545: 12,3365           02732                                    SNTH
001546: 12,3366           45342                           SR1      DSU
001547: 12,3367           02740                                    CSTH-RHO
001548: 12,3370           65301                           NORM     PDDL                                  #  0D=SNTH COGA-(CSTH-RHO) (+7+C(X1)) PL=2
001549: 12,3371           00047                                    X1
001550: 12,3372           02736                                    1-CSTH
001551: 12,3373           56257                           SL*      DDV                                   #  1-CSTH (+2)                   PL AT 0
001552: 12,3374           20170                                    0          -9D,1
001553: 12,3375           53040                           BMN      BZE
001554: 12,3376           25462                                    NEGP
001555: 12,3377           25462                                    NEGP
001556: 12,3400           16742                           STODL    P                                     #  P=(1-CSTH)/(SNTH COGA-(CSTH-RHO)) (+4)
001557: 12,3401           03770                                    COGA
001558: 12,3402           43316                           DSQ      DAD
001559: 12,3403           33420                                    D1/1024
001560: 12,3404           41301                           NORM     DMP
001561: 12,3405           00047                                    X1
001562: 12,3406           02742                                    P
001563: 12,3407           44257                           SR*      BDSU
001564: 12,3410           20571                                    0          -8D,1
001565: 12,3411           33416                                    D1/32
001566: 12,3412           16744                           STODL    R1A                                   #  R1A=2-P(1+COGA COGA) (+6)
001567:
001568: 12,3413           02742                                    P
001569: 12,3414           45000                           BOV      CALL


001571: 12,3415           25465                                    HIENERGY
001572: 12,3416           25032                                    GETX
001573: 12,3417           77745                           DLOAD
001574: 12,3420           00037                                    T
001575: 12,3421           16764                           STODL    TPREV
001576: 12,3422           00031                                    XI
001577: 12,3423           45014                           BON      CALL
001578: 12,3424           04310                                    INFINFLG
001579: 12,3425           25462                                    NEGP                                  #  HAVE EXCEEDED THEORETICAL BOUNDS
001580: 12,3426           24462                                    DELTIME
001581: 12,3427           44200                           BOV      BDSU
001582: 12,3430           25501                                    BIGTIME
001583: 12,3431           02673                                    TDESIRED
001584: 12,3432           02762                           STORE    TERRLAMB
001585: 12,3433           44246                           ABS      BDSU
001586: 12,3434           03772                                    EPSILONL
001587: 12,3435           47044                           BPL      RTB
001588: 12,3436           25546                                    INITV
001589: 12,3437           24716                                    CHECKCTR
001590: 12,3440           43030                           BHIZ     BON
001591: 12,3441           25511                                    SUFFCHEK
001592: 12,3442           00714                                    SLOPESW
001593: 12,3443           25451                                    GOITER
001594: 12,3444           45345                           DLOAD    DSU
001595: 12,3445           00037                                    T
001596: 12,3446           02764                                    TPREV
001597: 12,3447           77654                           BZE
001598: 12,3450           25511                                    SUFFCHEK
001599: 12,3451           77624        GOITER             CALL
001600: 12,3452           24610                                    ITERATOR
001601: 12,3453           53145                           DLOAD    BZE
001602: 12,3454           00155                                    MPAC
001603: 12,3455           25511                                    SUFFCHEK
001604: 12,3456           77615                           DAD
001605: 12,3457           03770                                    COGA
001606: 12,3460           37770                           STCALL   COGA
001607: 12,3461           25364                                    LAMBLOOP
001608:
001609:
001610: 12,3462           51145        NEGP               DLOAD    BPL                                   #  IMPOSSIBLE TRAJECTORY DUE TO INACCURATE
001611: 12,3463           00015                                    DCOGA                                 #  BOUND CALCULATION. TRY NEW COGA.
001612: 12,3464           25504                                    LOENERGY
001613:
001614: 12,3465           71201        HIENERGY           SETPD    DLOAD                                 #  HIGH ENERGY TRAJECTORY RESULTED
001615: 12,3466           00001                                    0
001616: 12,3467           03770                                    COGA                                  #  IN OVFL OF P OR R1A, OR XI EXCEEDING 50.
001617: 12,3470           00011                           STORE    COGAMIN                               #  THIS IS THE NEW BOUND.
001618: 12,3471           70545        COMMONLM           DLOAD    SR1
001619: 12,3472           00015                                    DCOGA


001621: 12,3473           00015                           STORE    DCOGA                                 #  USE DCOGA/2 AS DECREMENT
001622: 12,3474           44254                           BZE      BDSU
001623: 12,3475           25511                                    SUFFCHEK
001624: 12,3476           03770                                    COGA
001625: 12,3477           37770                           STCALL   COGA
001626: 12,3500           25364                                    LAMBLOOP
001627:
001628:
001629: 12,3501           77745        BIGTIME            DLOAD
001630: 12,3502           02764                                    TPREV
001631: 12,3503           00037                           STORE    T
001632:
001633:
001634: 12,3504           71201        LOENERGY           SETPD    DLOAD                                 #  LOW ENERGY TRAJECTORY RESULTED
001635: 12,3505           00001                                    0
001636: 12,3506           03770                                    COGA                                  #  IN OVERFLOW OF TIME.
001637: 12,3507           34017                           STCALL   COGAMAX                               #  THIS IS THE NEW BOUND.
001638: 12,3510           25471                                    COMMONLM
001639:
001640:
001641: 12,3511           51545        SUFFCHEK           DLOAD    ABS
001642: 12,3512           02762                                    TERRLAMB
001643: 12,3513           41325                           PDDL     DMP                                   #                                PL AT 2D
001644: 12,3514           02673                                    TDESIRED
001645: 12,3515           33412                                    D1/4
001646: 12,3516           45215                           DAD      DSU                                   #                                PL AT 0D
001647: 12,3517           33432                                    ONEBIT
001648: 12,3520           43044                           BPL      SETGO
001649: 12,3521           25546                                    INITV
001650: 12,3522           02434                                    SOLNSW
001651: 12,3523           02712                                    RTNLAMB
001652:
001653:
001654: 12,3524           43001        360LAMB            SETPD    SETGO                                 #  LAMBERT CANNOT HANDLE CSTH=1
001655: 12,3525           00001                                    0
001656: 12,3526           02434                                    SOLNSW
001657: 12,3527           02712                                    RTNLAMB
001658:
001659:
001660: 12,3530           71331        NOGUESS            SSP      DLOAD
001661: 12,3531           00051                                    TWEEKIT
001662: 12,3532           10000                                    20000
001663: 12,3533           00011                                    COGAMIN
001664: 12,3534           65342                           SR1      PDDL                                  #                                PL AT 2
001665: 12,3535           00017                                    COGAMAX
001666: 12,3536           43342                           SR1      DAD
001667: 12,3537           77626                           STADR                                          #                                PL AT 0
001668: 12,3540           74007                           STORE    COGA
001669: 12,3541           34015                           STCALL   DCOGA
001670: 12,3542           25364                                    LAMBLOOP


001672: 12,3543           52145        LOLIM              DLOAD    GOTO
001673: 12,3544           33436                                    COGLOLIM                              #  COGLOLIM=-.999511597
001674: 12,3545           25354                                    MINCOGA
001675:
001676:
001677: 12,3546           60345        INITV              DLOAD    NORM
001678: 12,3547           00041                                    R1
001679: 12,3550           00047                                    X1
001680: 12,3551           70525                           PDDL     SR1                                   #                                PL AT 2
001681: 12,3552           02742                                    P
001682: 12,3553           77671                           DDV                                            #                                PL AT 0
001683: 12,3554           75457                           SL*      SQRT
001684: 12,3555           20175                                    0          -4,1
001685: 12,3556           72405                           DMP      SL1
001686: 12,3557           00021                                    ROOTMU
001687: 12,3560           41206                           PUSH     DMP                                   #  0D=VTAN (+7)                  PL AT 2
001688: 12,3561           03770                                    COGA
001689: 12,3562           74261                           SL       VXSC
001690: 12,3563           20206                                    5
001691: 12,3564           02724                                    UR1
001692: 12,3565           77725                           PDDL                                           #  XCH WITH 0D                   PL AT 0,6
001693: 12,3566           76561                           VXSC     VSL1
001694: 12,3567           02676                                    UN
001695: 12,3570           53235                           VXV      VAD                                   #                                PL AT 0
001696: 12,3571           02724                                    UR1
001697: 12,3572           43172                           VSL1     CLEAR
001698: 12,3573           02674                                    SOLNSW
001699: 12,3574           02746                           STORE    VVEC
001700: 12,3575           53135                           SLOAD    BZE
001701: 12,3576           02704                                    VTARGTAG
001702: 12,3577           25602                                    TARGETV
001703: 12,3600           77650                           GOTO
001704: 12,3601           02712                                    RTNLAMB
001705:
001706:
001707: 12,3602           45145        TARGETV            DLOAD    CALL
001708: 12,3603           02722                                    MAGVEC2
001709: 12,3604           24751                                    LAMENTER
001710: 12,3605           36705                           STCALL   VTARGET
001711: 12,3606           02712                                    RTNLAMB
001712:


001714: 12,3607           45020        TIMERAD            STQ      CALL
001715: 12,3610           02712                                    RTNTR
001716: 12,3611           25763                                    PRAMSET
001717: 12,3612           77624                           CALL
001718: 12,3613           37727                                    PARAM
001719: 12,3614           71200                           BOV      DLOAD                                 #                                PL AT 0
001720: 12,3615           25027                                    COGAOVFL
001721: 12,3616           33416                                    D1/32
001722: 12,3617           41225                           DSU      DMP
001723: 12,3620           02744                                    R1A
001724: 12,3621           02742                                    P
001725: 12,3622           41366                           SQRT     DMP
001726: 12,3623           03770                                    COGA
001727: 12,3624           74212                           SL4      VXSC
001728: 12,3625           02714                                    U2
001729: 12,3626           45325                           PDDL     DSU                                   #                                PL AT 6
001730: 12,3627           33410                                    D1/64
001731: 12,3630           02744                                    R1A
001732: 12,3631           52361                           VXSC     VSU                                   #                                PL AT 0
001733: 12,3632           02724                                    UR1
001734: 12,3633           53512                           VSL4     UNIT
001735: 12,3634           77600                           BOV
001736: 12,3635           25713                                    CIRCULAR
001737: 12,3636           60325                           PDDL     NORM                                  #  0D=UNIT(ECC) (+3)             PL AT 6
001738: 12,3637           02760                                    RDESIRED                              #  36D=ECC (+3)
001739: 12,3640           00047                                    X1
001740: 12,3641           41325                           PDDL     DMP                                   #                                PL AT 8
001741: 12,3642           00041                                    R1
001742: 12,3643           02742                                    P
001743: 12,3644           56257                           SL*      DDV                                   #                                PL AT 6
001744: 12,3645           20201                                    0,1
001745: 12,3646           56225                           DSU      DDV
001746: 12,3647           33414                                    D1/16
001747: 12,3650           00045                                    36D                                   #  36D=ECC (+3)
001748: 12,3651           00031                           STORE    COSF
001749: 12,3652           63400                           BOV      DSQ
001750: 12,3653           20453                                    BADR2
001751: 12,3654           50021                           BDSU     BMN
001752: 12,3655           33412                                    D1/4
001753: 12,3656           20453                                    BADR2
001754: 12,3657           75366                           SQRT     SIGN
001755: 12,3660           02757                                    SGNRDOT
001756: 12,3661           77614                           CLEAR
001757: 12,3662           04272                                    APSESW
001758:
001759: 12,3663           76561        TERMNVEC           VXSC     VSL1
001760: 12,3664           02676                                    UN
001761: 12,3665           63235                           VXV      PDVL                                  #  VXCH WITH 0D                  PL AT 0,6
001762: 12,3666           00001                                    0D
001763: 12,3667           53361                           VXSC     VAD                                   #                                PL AT 0


001765: 12,3670           00031                                    COSF
001766: 12,3671           41572                           VSL1     PUSH                                  #  0D=U2                         PL AT 6
001767:
001768: 12,3672           56241                           DOT      DDV                                   #  LIMITS RESULT TO POSMAX OR NEGMAX
001769: 12,3673           02724                                    UR1
001770: 12,3674           33412                                    DP1/4
001771: 12,3675           40142                           SR1      BOV                                   #  SCALE BACK DOWN TO NORMAL
001772: 12,3676           25677                                    +1                                    #  CLEAR OVFIND IF SET
001773: 12,3677           26734                           STOVL    CSTH                                  #  CSTH (+1)
001774: 12,3700           02724                                    UR1
001775: 12,3701           76435                           VXV      VSL1
001776: 12,3702           72441                           DOT      SL1
001777: 12,3703           02676                                    UN
001778: 12,3704           16732                           STODL    SNTH                                  #  SNTH (+1)
001779: 12,3705           02742                                    P
001780: 12,3706           77624                           CALL
001781: 12,3707           25032                                    GETX
001782: 12,3710           77614                           CLRGO
001783: 12,3711           02634                                    SOLNSW
001784: 12,3712           25012                                    COMMNOUT
001785:
001786:
001787: 12,3713           43001        CIRCULAR           SETPD    SETGO
001788: 12,3714           00001                                    0
001789: 12,3715           02434                                    SOLNSW
001790: 12,3716           25760                                    ABTCONIC
001791:
001792:
001793: 10,2000                                           SETLOC   CONICS5
001794: 10,2000                                           BANK
001795:
001796: 10,2453                                           COUNT*   $$/CONIC
001797: 10,2453           75345        BADR2              DLOAD    SIGN
001798: 10,2454           11760                                    LODPHALF
001799: 10,2455           00031                                    COSF
001800: 10,2456           14031                           STODL    COSF
001801: 10,2457           11762                                    KEPZERO
001802: 10,2460           77614                           SETGO
001803: 10,2461           04032                                    APSESW
001804: 10,2462           25663                                    TERMNVEC
001805:


001807: 12,2000                                           SETLOC   CONICS
001808: 12,2000                                           BANK
001809:
001810: 12,3717                                           COUNT*   $$/CONIC
001811: 12,3717           45020        APSIDES            STQ      CALL
001812: 12,3720           02712                                    RTNAPSE
001813: 12,3721           25763                                    PRAMSET
001814: 12,3722           77624                           CALL
001815: 12,3723           37727                                    PARAM
001816: 12,3724           77600                           BOV                                            #                                PL AT 0
001817: 12,3725           25726                                    GETECC
001818: 12,3726           42405        GETECC             DMP      SL4
001819: 12,3727           02744                                    R1A
001820: 12,3730           75421                           BDSU     SQRT
001821: 12,3731           33410                                    D1/64
001822: 12,3732           02754                           STORE    ECC
001823: 12,3733           65215                           DAD      PDDL                                  #                                PL AT 2
001824: 12,3734           33404                                    D1/8
001825: 12,3735           00041                                    R1
001826: 12,3736           72405                           DMP      SL1
001827: 12,3737           02742                                    P
001828: 12,3740           77671                           DDV                                            #                                PL AT 0
001829: 12,3741           60325                           PDDL     NORM                                  #  0D=RP (+29 OR +27)            PL AT 2
001830: 12,3742           02744                                    R1A
001831: 12,3743           00047                                    X1
001832: 12,3744           53725                           PDDL     SL*                                   #                                PL AT 4
001833: 12,3745           00041                                    R1
001834: 12,3746           20174                                    0          -5,1
001835: 12,3747           45271                           DDV      DSU                                   #                                PL AT 2,0
001836: 12,3750           50000                           BOV      BMN
001837: 12,3751           25755                                    INFINAPO
001838: 12,3752           25755                                    INFINAPO
001839: 12,3753           77650                           GOTO
001840: 12,3754           02712                                    RTNAPSE
001841: 12,3755           52145        INFINAPO           DLOAD    GOTO                                  #  RETURNS WITH APOAPSIS IN MPAC,PERIAPSIS
001842: 12,3756           11773                                    LDPOSMAX
001843: 12,3757           02712                                    RTNAPSE                               #  THAT PL IS AT 0.
001844:


001846: 12,3760           77776        ABTCONIC           EXIT
001847: 12,3761           05726                           TC       POODOO
001848: 12,3762           20607                           OCT      20607                                 #  NO SOLUTION FROM TIMETHET OR TIMERAD
001849:


001851: 12,3763           40001        PRAMSET            SETPD    BOV
001852: 12,3764           00001                                    0D
001853: 12,3765           25766                                    +1
001854: 12,3766           63375                           VLOAD    PDVL
001855: 12,3767           02657                                    RVEC
001856: 12,3770           02746                                    VVEC
001857: 12,3771           77616                           RVQ
001858:
001859: 11,2000                                           SETLOC   CONICS3
001860: 11,2000                                           BANK
001861:
001862: 11,2300                                           COUNT*   $$/CONIC
001863: 11,2300           22437 16067  MUTABLE            2DEC*    3.986032   E10        B-36*           #  MUE
001864: 11,2302           15625 21042                     2DEC*    .25087606  E-10       B+34*           #  1/MUE
001865: 11,2304           30276 04773                     2DEC*    1.99650495 E5         B-18*           #  SQRT(MUE)
001866: 11,2306           25004 06702                     2DEC*    .50087529  E-5        B+17*           #  1/SQRT(MUE)
001867:
001868: 11,2310           16471 01352                     2DEC     4.902778   E8         B-30            #  MUM
001869: 11,2312           21412 20500                     2DEC     .203966    E-8        B+28            #  1/MUM
001870: 11,2314           25477 03367                     2DEC*    2.21422176 E4         B-15*           #  SQRT(MUM)
001871: 11,2316           27533 07571                     2DEC*    .45162595  E-4        B+14*           #  1/SQRT(MUM)
001872:
001873: 11,2320  04,3772               LDPOSMAX           EQUALS   LODPMAX                               #  DPPOSMAX IN LOW MEMORY.
001874:
001875:                                                                                                  #  ERASABLE ASSIGNMENTS
001876:
001877:
001878:                                                                                                  #  KEPLER SUBROUTINE
001879:
001880:                                                                                                  #     INPUT -
001881:                                                                                                  #  RRECT         ERASE   +5
001882:                                                                                                  #  VRECT         ERASE   +5
001883:                                                                                                  #  TAU.          ERASE   +1
001884:                                                                                                  #  XKEP          ERASE   +1
001885:                                                                                                  #  TC            ERASE   +1
001886:                                                                                                  #  XPREV         ERASE   +1
001887: 11,2320                        1/MU               EQUALS   14D
001888: 11,2320                        ROOTMU             EQUALS   16D
001889: 11,2320                        1/ROOTMU           EQUALS   18D
001890:
001891:                                                                                                  #     OUTPUT -
001892:                                                                                                  #  RCV           ERASE   +5


001894:                                                                                                  #  VCV           ERASE   +5
001895:                                                                                                  #  RC            ERASE   +1
001896:                                                                                                  #  XPREV         ERASE   +1
001897:
001898:                                                                                                  #  DEBRIS -
001899: 11,2320                        ALPHA              EQUALS   8D
001900: 11,2320                        XMAX               EQUALS   10D
001901: 11,2320                        XMIN               EQUALS   12D
001902: 11,2320                        X                  EQUALS   20D
001903: 11,2320                        XI                 EQUALS   24D
001904: 11,2320                        S(XI)              EQUALS   26D
001905: 11,2320                        XSQC(XI)           EQUALS   28D
001906: 11,2320                        T                  EQUALS   30D
001907: 11,2320                        R1                 EQUALS   32D
001908: 11,2320                        KEPC1              EQUALS   34D
001909: 11,2320                        KEPC2              EQUALS   36D
001910:                                                                                                  #  DELX          ERASE   +1
001911:                                                                                                  #  DELT          ERASE   +1
001912:                                                                                                  #  URRECT        ERASE   +5
001913:                                                                                                  #  RCNORM        ERASE   +1
001914:                                                                                                  #  XPREV         EQUALS  XKEP
001915:
001916:
001917:                                                                                                  #  LAMBERT SUBROUTINE
001918:
001919:                                                                                                  #     INPUT -
001920:                                                                                                  #  R1VEC         ERASE   +5
001921:                                                                                                  #  R2VEC         ERASE   +5
001922:                                                                                                  #  TDESIRED      ERASE   +1
001923:                                                                                                  #  GEOMSGN       ERASE   +0
001924:                                                                                                  #  GUESSW                                0 IF COGA GUESS AVAILABLE, 1 IF NOT
001925:                                                                                                  #  COGA          ERASE   +1              INPUT ONLY IF GUESSW IS ZERO.
001926:                                                                                                  #  NORMSW                                0 IF UN TO BE COMPUTED, 1 IF UN INPUT
001927:                                                                                                  #  UN            ERASE   +5              ONLY USED IF NORMSW IS 1
001928:                                                                                                  #  VTARGTAG      ERASE   +0
001929:                                                                                                  #  TWEEKIT       EQUALS  40D             ONLY USED IF GUESSW IS 0
001930:
001931:                                                                                                  #     OUTPUT -
001932:                                                                                                  #  VTARGET       ERASE   +5              AVAILABLE ONLY IF VTARGTAG IS ZERO.
001933:                                                                                                  #  V1VEC         EQUALS  MPAC
001934:
001935:                                                                                                  #     DEBRIS -
001936:                                                                                                  #  RTNLAMB       ERASE   +0
001937:                                                                                                  #  U2            ERASE   +5
001938:                                                                                                  #  MAGVEC2       ERASE   +1
001939:                                                                                                  #  UR1           ERASE   +5
001940:                                                                                                  #  R1            EQUALS  31D
001941:                                                                                                  #  UN            ERASE   +5
001942:                                                                                                  #  SNTH          ERASE   +1
001943:                                                                                                  #  CSTH          ERASE   +1


001945:                                                                                                  #  1-CSTH        ERASE   +1
001946:                                                                                                  #  CSTH-RHO      ERASE   +1
001947: 11,2320                        COGAMAX            EQUALS   14D                                   #  CLOBBERS 1/MU
001948: 11,2320                        COGAMIN            EQUALS   8D
001949: 11,2320                        DCOGA              EQUALS   12D
001950:                                                                                                  #  TWEEKIT       EQUALS  40D
001951:                                                                                                  #  P             ERASE   +1
001952:                                                                                                  #  COGA          ERASE   +1
001953:                                                                                                  #  R1A           ERASE   +1
001954:                                                                                                  #  X             EQUALS  20D
001955:                                                                                                  #  XSQ           EQUALS  22D
001956:                                                                                                  #  XI            EQUALS  24D
001957:                                                                                                  #  S(XI)         EQUALS  26D
001958:                                                                                                  #  XSQC(XI)      EQUALS  28D
001959:                                                                                                  #  T             EQUALS  30D
001960:                                                                                                  #  KEPC1         EQUALS  34D
001961:                                                                                                  #  KEPC2         EQUALS  36D
001962:                                                                                                  #  SLOPESW
001963:                                                                                                  #  SOLNSW
001964:
001965:                                                                                                  #  OTHERS -
001966:
001967:                                                                                                  #  RVEC          EQUALS  R1VEC
001968:                                                                                                  #  VVEC          ERASE   +5
001969:                                                                                                  #  COGAFLAG
001970:                                                                                                  #  RVSW
001971:                                                                                                  #  INFINFLG
001972:                                                                                                  #  APSESW
001973:                                                                                                  #  360SW
001974:                                                                                                  #  RTNTT         EQUALS  RTNLAMB
001975:                                                                                                  #  ECC           ERASE   +1
001976:                                                                                                  #  RTNTR         EQUALS  RTNLAMB
001977:                                                                                                  #  RTNAPSE       EQUALS  RTNLAMB
001978:                                                                                                  #  R2            EQUALS  MAGVEC2
001979: 11,2320                        COSF               EQUALS   24D
001980:                                                                                                  #  RTNPRM        ERASE   +0
001981:                                                                                                  #  SGNRDOT       ERASE   +0
001982:                                                                                                  #  RDESIRED      ERASE   +1
001983:
001984:
001985:                                                                                                  #  ITERATOR SUBROUTINE
001986:
001987:                                                                                                  #  ORDERSW
001988: 11,2320                        MAX                EQUALS   14D                                   #  CLOBBERS 1/MU
001989: 11,2320                        MIN                EQUALS   8D
001990:                                                                                                  #  INDEP         ERASE   +1
001991: 11,2320                        DELINDEP           EQUALS   12D
001992: 11,2320                        ITERCTR            EQUALS   22D
001993: 11,2320                        DEP                EQUALS   30D
001994:                                                                                                  #  DELDEP        ERASE   +1
001995:                                                                                                  #  DEPREV        ERASE   +1


001997: 11,2320                        TWEEKIT            EQUALS   40D
001998:
001999:
002000:                                                                                                  #  MORE KEPLER
002001:
002002:                                                                                                  #  EPSILONT      ERASE   +1
002003:
002004:
002005:                                                                                                  #  MORE LAMBERT
002006:
002007:                                                                                                  #  TERRLAMB      EQUALS  DELDEP
002008:                                                                                                  #  TPREV         EQUALS  DEPREV
002009:
002010:                                                                                                  #  EPSILONL      EQUALS  EPSILONT +2     DOUBLE PRECISION WORD

End of include-file CONIC_SUBROUTINES.agc.  Parent file is MAIN.agc


