
Source Code


000002:                                                                                                 #  Copyright:     Public domain.
000003:                                                                                                 #  Filename:      CSM_GEOMETRY.agc
000004:                                                                                                 #  Purpose:       Part of the source code for Artemis (i.e., Colossus 3),
000005:                                                                                                 #                 build 072.  This is for the Command Module's (CM)
000006:                                                                                                 #                 Apollo Guidance Computer (AGC), we believe for
000007:                                                                                                 #                 Apollo 15-17.
000008:                                                                                                 #  Assembler:     yaYUL
000009:                                                                                                 #  Contact:       Jim Lawton <jim DOT lawton AT gmail DOT com>
000010:                                                                                                 #  Website:       www.ibiblio.org/apollo/index.html
000011:                                                                                                 #  Page scans:    www.ibiblio.org/apollo/ScansForConversion/Artemis072/
000012:                                                                                                 #  Mod history:   2009-08-08 JL   Adapted from corresponding Comanche 055 file.
000013:                                                                                                 #                 2010-02-08 JL   Fixed a line that should have been commented out on p305.
000014:                                                                                                 #                 2010-02-20 RSB  Un-##'d this header.
000015:


000017:
000018: 23,2000                                          SETLOC   COMGEOM1
000019: 23,2000                                          BANK
000020:
000021:                                                                                                 #  THIS ROUTINE TAKES THE SHAFT AND TRUNNION ANGLES AS READ BY THE CM OPTICAL SYSTEM AND CONVERTS THEM INTO A UNIT
000022:                                                                                                 #  VECTOR REFERENCED TO THE NAVIGATION BASE COORDINATE SYSTEM AND COINCIDENT WTIH THE SEXTANT LINE OF SIGHT.
000023:
000024:                                                                                                 #  THE INPUTS ARE  1) THE SEXTANT SHAFT AND TRUNNION ANGLES ARE STORED SP IN LOCATIONS 3 AND 5 RESPECTIVELY OF THE
000025:                                                                                                 #  MARK VAC AREA.  2) THE COMPLEMENT OF THE BASE ADDRESS OF THE MARK VAC AREA IS STORED SP AT LOCATION X1 OF YOUR
000026:                                                                                                 #  JOB VAC AREA.
000027:
000028:                                                                                                 #  THE OUTPUT IS A HALF-UNIT VECTOR IN NAVIGATION BASE COORDINATES AND STORED AT LOCATION 32D OF THE VAC AREA. THE
000029:                                                                                                 #  OUTPUT IS ALSO AVAILABLE AT MPAC.
000030:
000031: 23,2000                                          COUNT*   $$/GEOM
000032: 23,2000           47133        SXTNB             SLOAD*   RTB                                   #  PUSHDOWN 00,02,04,(17D-19D),32D-36D
000033: 23,2001           00006                                   5,1                                   #  TRUNNION = TA
000034: 23,2002           51754                                   CDULOGIC
000035: 23,2003           41434                          RTB      PUSH
000036: 23,2004           46027                                   SXTLOGIC
000037: 23,2005           72556                          SIN      SL1
000038: 23,2006           66606                          PUSH     SLOAD*                                #  PD2 = SIN(TA)
000039: 23,2007           00004                                   3,1                                   #  SHAFT = SA
000040: 23,2010           41434                          RTB      PUSH                                  #  PD4 = SA
000041: 23,2011           51754                                   CDULOGIC
000042:
000043: 23,2012           41346                          COS      DMP
000044: 23,2013           00003                                   2
000045: 23,2014           14041                          STODL    STARM                                 #  COS(SA)SIN(TA)
000046:
000047: 23,2015           41356                          SIN      DMP
000048: 23,2016           77626                          STADR
000049: 23,2017           63734                          STODL    STARM      +2                         #  SIN(SA)SIN(TA)
000050:
000051: 23,2020           77746                          COS
000052: 23,2021           24045                          STOVL    STARM      +4
000053: 23,2022           00041                                   STARM                                 #  STARM = 32D
000054: 23,2023           76521                          MXV      VSL1
000055: 23,2024           06300                                   NB1NB2
000056: 23,2025           00041                          STORE    32D
000057: 23,2026           77616                          RVQ
000058:
000059: 23,2027           32321        SXTLOGIC          CAF      10DEGS-                               #  CORRECT FOR 19.775 DEGREE OFFSET
000060: 23,2030           26154                          ADS      MPAC
000061: 23,2031           34754                          CAF      QUARTER
000062: 23,2032           07256                          TC       SHORTMP
000063: 23,2033           06030                          TC       DANZIG
000064:


000066:
000067:                                                                                                 #  CALCSXA COMPUTES THE SEXTANT SHAFT AND TRUNNION ANGLES REQUIRED TO POSITION THE OPTICS SUCH THAT A STAR LINE-
000068:                                                                                                 #  OF-SIGHT LIES ALONG THE STAR VECTOR. THE ROUTINE TAKES THE GIVEN STAR VECTOR AND EXPRESSES IT AS A VECTOR REF-
000069:                                                                                                 #  ERENCED TO THE OPTICS COORDINATE SYSTEM. IN ADDITION IT SETS UP THREE UNIT VECTORS DEFINING THE X, Y, AND Z AXES
000070:                                                                                                 #  REFERENCED TO THE OPTICS COORDINATE SYSTEM.
000071:
000072:                                                                                                 #  THE INPUTS ARE  1) THE STAR VECTOR REFERRED TO THE PRESENT STABLE MEMMBER COORDINATES STORED AT STAR.  2) SAME ANGLE
000073:                                                                                                 #  INPUT AS *SMNB*, I.E., SINES AND COSINES OF THE CDU ANGLES, IN THE ORDER Y Z X, AT SINCDU AND COSCDU.  A CALL
000074:                                                                                                 #  TO CDUTRIG WILL PROVIDE THIS INPUT.
000075:
000076:                                                                                                 #  THE OUTPUTS ARE THE SEXTANT SHAFT AND TRUNNION ANGLES STORED DP AT SAC AND PAC RESPECTIVELY.  (LOW ORDER PART
000077:                                                                                                 #  EQUAL TO ZERO).
000078:
000079: 23,2034           77220        CALCSXA           ITA      VLOAD                                 #  PUSHDOWN 00-26D,28D,30D,32D-36D
000080: 23,2035           00034                                   28D
000081: 23,2036           02766                                   STAR
000082: 23,2037           77624                          CALL
000083: 23,2040           47633                                   *SMNB*
000084: 23,2041           76521                          MXV      VSL1
000085: 23,2042           06256                                   NB2NB1
000086: 23,2043           26766                          STOVL    STAR
000087: 23,2044           15334                                   HIUNITX
000088: 23,2045           26555                          STOVL    XNB1
000089: 23,2046           15332                                   HIUNITY
000090: 23,2047           26563                          STOVL    YNB1
000091: 23,2050           15330                                   HIUNITZ
000092: 23,2051           36571                          STCALL   ZNB1
000093: 23,2052           46076                                   SXTANG1
000094:


000096:
000097:                                                                                                 #  SXTANG COMPUTES THE SEXTANT SHAFT AND TRUNNION ANGLES REQUIRED TO POSITION THE OPTICS SUCH THAT A STAR LINE-OF-
000098:                                                                                                 #  SIGHT LIES ALONG THE STAR VECTOR.
000099:
000100:                                                                                                 #  THE INPUTS ARE  1) THE STAR VECTOR REFERRED TO ANY COORDINATE SYSTEM STORED AT STAR.  2) THE NAVIGATION BASE
000101:                                                                                                 #  COORDINATES REFERRED TO THE SAME COORDINATE SYSTEM. THESE THREE HALF-UNIT VECTORS ARE STORED AT XNB, YNB, AND
000102:                                                                                                 #  ZNB.
000103:
000104:                                                                                                 #  THE OUTPUTS ARE THE SEXTANT SHAFT AND TRUNNION ANGLES STORED DP AT SAC AND PAC RESPECTIVELY.  (LOW ORDER PART
000105:                                                                                                 #  EQUAL TO ZERO).
000106:
000107: 23,2053           47020        SXTANG            ITA      RTB                                   #  PUSHDOWN 16D,18D,22D-26D,28D
000108: 23,2054           00034                                   28D
000109: 23,2055           45731                                   TRANSP1                               #  EREF WRT NB2
000110: 23,2056           64375                          VLOAD    MXV
000111: 23,2057           02714                                   XNB
000112: 23,2060           06256                                   NB2NB1
000113: 23,2061           77772                          VSL1
000114: 23,2062           26555                          STOVL    XNB1
000115: 23,2063           02722                                   YNB
000116: 23,2064           76521                          MXV      VSL1
000117: 23,2065           06256                                   NB2NB1
000118: 23,2066           26563                          STOVL    YNB1
000119: 23,2067           02730                                   ZNB
000120: 23,2070           76521                          MXV      VSL1
000121: 23,2071           06256                                   NB2NB1
000122: 23,2072           02571                          STORE    ZNB1
000123:
000124: 23,2073           47034                          RTB      RTB
000125: 23,2074           45731                                   TRANSP1
000126: 23,2075           45745                                   TRANSP2
000127:
000128: 23,2076           47375        SXTANG1           VLOAD    VXV
000129: 23,2077           02571                                   ZNB1
000130: 23,2100           02766                                   STAR
000131: 23,2101           77600                          BOV
000132: 23,2102           46103                                   +1
000133: 23,2103           40056                          UNIT     BOV
000134: 23,2104           46145                                   ZNB=S1
000135: 23,2105           00027                          STORE    PDA                                   #  PDA = UNIT(ZNB X S)
000136:
000137: 23,2106           57441                          DOT      DCOMP
000138: 23,2107           02555                                   XNB1
000139: 23,2110           24023                          STOVL    SINTH                                 #  SIN(SA) = PDA . -XNB
000140: 23,2111           00027                                   PDA
000141:
000142: 23,2112           77641                          DOT
000143: 23,2113           02563                                   YNB1
000144: 23,2114           34021                          STCALL   COSTH                                 #  COS(SA) = PDA . YNB
000145: 23,2115           47311                                   ARCTRIG


000147: 23,2116           77634                          RTB
000148: 23,2117           45640                                   1STO2S
000149: 23,2120           26774                          STOVL    SAC
000150: 23,2121           02766                                   STAR
000151: 23,2122           77600                          BOV
000152: 23,2123           46124                                   +1
000153: 23,2124           72441                          DOT      SL1
000154: 23,2125           02571                                   ZNB1
000155: 23,2126           77726                          ACOS
000156: 23,2127           62440                          BMN      SL2
000157: 23,2130           46142                                   SXTALARM                              #  TRUNNION ANGLE NEGATIVE
000158: 23,2131           45200                          BOV      DSU
000159: 23,2132           46142                                   SXTALARM                              #  TRUNNION ANGLE GREATER THAN 90 DEGREES
000160: 23,2133           06327                                   20DEG-
000161: 23,2134           77634                          RTB
000162: 23,2135           45640                                   1STO2S
000163: 23,2136           02776                          STORE    PAC                                   #  FOR FLIGHT USE, CULTFLAG IS ON IF
000164: 23,2137           77614                          CLRGO                                          #  TRUNION IS GREATER THAN 90 DEG
000165: 23,2140           01630                                   CULTFLAG
000166: 23,2141           00034                                   28D
000167: 23,2142           77614        SXTALARM          SETGO                                          #  ALARM HAS BEEN REMOVED FROM THIS
000168: 23,2143           01430                                   CULTFLAG
000169: 23,2144           00034                                   28D                                   #  SUBROUTINE, ALARM WILL BE SET BY MPI
000170: 23,2145           77745        ZNB=S1            DLOAD
000171: 23,2146           06323                                   270DEG
000172: 23,2147           16774                          STODL    SAC
000173: 23,2150           06325                                   20DEGS-
000174: 23,2151           02776                          STORE    PAC
000175: 23,2152           77614                          CLRGO
000176: 23,2153           01630                                   CULTFLAG
000177: 23,2154           00034                                   28D
000178:


000180:
000181:                                                                                                 #  THESE TWO ROUTINES COMPUTE THE ACTUAL STATE VECTOR FOR LM, CSM BY ADDING
000182:                                                                                                 #  THE CONIC R,V AND THE DEVIATIONS R,V.  THE STATE VECTORS ARE CONVERTED TO
000183:                                                                                                 #  METERS B-29 AND METERS/CSEC B-7 AND STORED APPROPRIATELY IN RN,VN OR
000184:                                                                                                 #  R-OTHER , V-OTHER FOR DOWNLINK. THE ROUTINES NAMES ARE SWITCHED IN THE
000185:                                                                                                 #  OTHER VEHICLES COMPUTER.
000186:
000187:                                                                                                 #  INPUT
000188:                                                                                                 #         STATE VECTOR IN TEMPORARY STORAGE AREA
000189:                                                                                                 #         IF STATE VECTOR IS SCALED POS B27 AND VEL B5
000190:                                                                                                 #                 SET X2 TO +2
000191:                                                                                                 #         IF STATE VECTOR IS SCALED POS B29 AND VEL B7
000192:                                                                                                 #                 SET X2 TO 0
000193:
000194:                                                                                                 #  OUTPUT
000195:                                                                                                 #         R(T) IN RN, V(T) IN VN, T IN PIPTIME
000196:                                                                                                 #  OR
000197:                                                                                                 #         R(T) IN R-OTHER, V(T) IN V-OTHER        (T IS DEFINED BY T-OTHER)
000198:
000199: 10,2000                                          SETLOC   COMGEOM2
000200: 10,2000                                          BANK
000201: 10,2240                                          COUNT*   $$/GEOM
000202: 10,2240           43414        SVDWN1            BOF      RVQ                                   #  SW=1=AVETOMID DOING W-MATRIX INTEG
000203: 10,2241           04756                                   AVEMIDSW
000204: 10,2242           20243                                   +1
000205: 10,2243           53775                          VLOAD    VSL*
000206: 10,2244           01521                                   TDELTAV
000207: 10,2245           57605                                   0          -7,2
000208: 10,2246           53655                          VAD      VSL*
000209: 10,2247           01535                                   RCV
000210: 10,2250           57576                                   0,2
000211: 10,2251           25030                          STOVL    RN
000212: 10,2252           01527                                   TNUV
000213: 10,2253           53257                          VSL*     VAD
000214: 10,2254           57602                                   0          -4,2
000215: 10,2255           01543                                   VCV
000216: 10,2256           77657                          VSL*
000217: 10,2257           57576                                   0,2
000218: 10,2260           15036                          STODL    VN
000219: 10,2261           01517                                   TET
000220: 10,2262           01044                          STORE    PIPTIME
000221: 10,2263           77616                          RVQ
000222:
000223: 10,2264           53775        SVDWN2            VLOAD    VSL*
000224: 10,2265           01521                                   TDELTAV
000225: 10,2266           57605                                   0          -7,2
000226: 10,2267           53655                          VAD      VSL*
000227: 10,2270           01535                                   RCV
000228: 10,2271           57576                                   0,2


000230: 10,2272           25720                          STOVL    R-OTHER
000231: 10,2273           01527                                   TNUV
000232: 10,2274           53257                          VSL*     VAD
000233: 10,2275           57602                                   0          -4,2
000234: 10,2276           01543                                   VCV
000235: 10,2277           77657                          VSL*
000236: 10,2300           57576                                   0,2
000237: 10,2301           01726                          STORE    V-OTHER
000238: 10,2302           77616                          RVQ
000239:


000241:
000242:                                                                                                 #  SUBROUTINE TO COMPUTE THE NATURAL LOG OF C(MPAC, MPAC +1).
000243:
000244:                                                                                                 #         ENTRY:  CALL
000245:                                                                                                 #                         LOG
000246:
000247:                                                                                                 #  SUBROUTINE RETURNS WITH -LOG IN DP MPAC.
000248:
000249:                                                                                                 #  EBANK IS ARBITRARY..
000250:
000251: 23,2000                                          SETLOC   POWFLIT2
000252: 23,2000                                          BANK
000253: 23,2155                                          COUNT*   $$/GEOM
000254: 23,2155           44301        LOG               NORM     BDSU                                  #  GENERATES LOG BY SHIFTING ARG
000255: 23,2156           00160                                   MPAC       +3                         #  UNTIL IT LIES BETWEEN .5 AND 1.
000256: 23,2157           15344                                   NEARLY1                               #  THE LOG OF THIS PART IS FOUND AND THE
000257: 23,2160           77776                          EXIT                                           #  LOG OF THE SHIFTED PART IS COMPUTED
000258:
000259: 23,2161           07171                          TC       POLY                                  #  AND ADDED IN. SHIFT COUNT STORED
000260:
000261: 23,2162           00002                          DEC      2          B-14                       #  (N-1, SUPPLIED BY SMERZH)
000262: 23,2163           00000 00000                    2DEC     0          B-28                       #  IN MPAC +3.
000263: 23,2165           01001 14636                    2DEC     .031335467
000264: 23,2167           00325 07310                    2DEC     .0130145859
000265: 23,2171           00541 16735                    2DEC     .0215738898
000266:
000267: 23,2173           34772                          CAF      ZERO
000268: 23,2174           54156                          TS       MPAC       +2
000269: 23,2175           00006                          EXTEND
000270: 23,2176           32212                          DCA      CLOG2/32
000271: 23,2177           52155                          DXCH     MPAC
000272: 23,2200           52160                          DXCH     MPAC       +3
000273: 23,2201           40000                          COM                                            #  LOAD POSITIVE SHIFT COUNT IN A.
000274: 23,2202           07256                          TC       SHORTMP                               #  MULTIPLY BY SHIFT COUNT.
000275:
000276: 23,2203           52156                          DXCH     MPAC       +1
000277: 23,2204           52155                          DXCH     MPAC
000278: 23,2205           52160                          DXCH     MPAC       +3
000279: 23,2206           20155                          DAS      MPAC
000280: 23,2207           06006                          TC       INTPRET                               #  RESULT IN MPAC, MPAC +1
000281:
000282: 23,2210           77616                          RVQ
000283:
000284: 23,2211  26,3343               NEARLY1           =        NEARONE
000285: 23,2211           00542 34414  CLOG2/32          2DEC     .0216608494
000286:


000288:
000289:                                                                                                 #  SUBROUTINE NAME:  EARTH ROTATOR        (EARROT1 OR EARROT2)            DATE:  15 FEB 67
000290:                                                                                                 #  MOD NO:  N +1                                                          LOG SECTION:  POWERED FLIGHT SUBROS
000291:                                                                                                 #  MOD BY:  ENTRY GROUP (BAIRNSFATHER)
000292:
000293:                                                                                                 #  FUNCTIONAL DESCRIPTION:  THIS ROUTINE PROJECTS THE INITIAL EARTH TARGET VECTOR   RTINIT   AHEAD THROUGH
000294:                                                                                                 #         THE ESTIMATED TIME OF FLIGHT. INITIAL CALL RESOLVES THE INITIAL TARGET VECTOR   RTINIT   INTO EASTERLY
000295:                                                                                                 #         AND NORMAL COMPONENTS   RTEAST   AND   RTNORM   . INITIAL AND SUBSEQUENT CALLS ROTATE THIS VECTOR
000296:                                                                                                 #         ABOUT THE (FULL) UNIT POLAR AXIS   UNITW   THROUGH THE ANGLE   WIE DTEAROT   TO OBTAIN THE ROTATED
000297:                                                                                                 #         TARGET VECTOR   RT   . ALL VECTORS EXCEPT   UNITW   ARE HALF UNIT.
000298:                                                                                                 #         THE EQUATIONS ARE:
000299:                                                                                                 #                 _    _        _                      _
000300:                                                                                                 #                 RT = RTINIT + RTNORM (COS(WT) - 1) + RTEAST SIN(WT)
000301:
000302:                                                                                                 #         WHERE   WT = WIE DTEAROT
000303:
000304:                                                                                                 #                 RTINIT = INITIAL TARGET VECTOR
000305:                                                                                                 #                 _        _       _
000306:                                                                                                 #                 RTEAST = UNITW * RTINIT
000307:                                                                                                 #                 _        _        _
000308:                                                                                                 #                 RTNORM = RTEAST * UNITW
000309:
000310:                                                                                                 #         FOR CONTINUOUS UPDATING, ONLY ONE ENTRY TO EARROT1 IS REQUIRED, WITH SUBSEQUENT ENTRIES AT EARROT2.
000311:
000312:                                                                                                 #  CALLING SEQUENCE:      FIRST CALL                      SUBSEQUENT CALL
000313:                                                                                                 #                         STCALL  DTEAROT                 STCALL  DTEAROT
000314:                                                                                                 #                                 EARROT1                         EARROT2
000315:                                                                                                 #                         C(MPAC) UNSPECIFIED             C(MPAC) = DTEAROT
000316:                                                                                                 #         PUSHLOC = PDL+0, ARBITRARY.  6 LOCATIONS USED.
000317:
000318:                                                                                                 #  SUBROUTINES USED:  NONE
000319:
000320:                                                                                                 #  NORMAL EXIT MODES:  RVQ
000321:
000322:                                                                                                 #  ALARMS:  NONE
000323:
000324:                                                                                                 #  OUTPUT:        RTEAST  (-1)            .5 UNIT VECTOR EAST, COMPNT OF RTINIT   LEFT BY FIRST CALL
000325:                                                                                                 #                 RTNORM  (-1)            .5 UNIT VECTOR NORML, COMPNT OF RTINIT  LEFT BY FIRST CALL
000326:                                                                                                 #                 RT      (-1)            .5 UNIT TARGET VECTOR, ROTATED          LEFT BY ALL CALLS
000327:                                                                                                 #                 DTEAROT (-28) CS        MAY BE CHANGED BY EARROT2, IF OVER 1 DAY
000328:
000329:                                                                                                 #  ERASABLE INITIALIZATION REQUIRED:
000330:                                                                                                 #                 UNITW   (0)             UNIT POLAR VECTOR                       PAD LOADED
000331:                                                                                                 #                 RTINIT  (-1)            .5 UNIT INITIAL TARGET VECTOR           LEFT BY ENTRY
000332:                                                                                                 #                 DTEAROT (-28) CS        TIME OF FLIGHT                          LEFT BY CALLER
000333:
000334:                                                                                                 #  DEBRIS:  QPRET, PDL+0 ... PDL+5
000335:


000337: 23,2213  E7,1451                                 EBANK=   RTINIT
000338:
000339: 23,2213           47375        EARROT1           VLOAD    VXV
000340: 23,2214           01712                                   UNITW                                 #  FULL UNIT VECTOR
000341: 23,2215           03452                                   RTINIT                                #  .5 UNIT
000342: 23,2216           03460                          STORE    RTEAST                                #  .5 UNIT
000343:
000344: 23,2217           77635                          VXV
000345: 23,2220           01712                                   UNITW                                 #  FULL UNIT
000346: 23,2221           17466                          STODL    RTNORM                                #  .5 UNIT
000347: 23,2222           03606                                   DTEAROT                               #  (-28) CS
000348:
000349: 23,2223           56204        EARROT2           BOVB     DDV
000350: 23,2224           57544                                   TCDANZIG                              #  RESET OVFIND, IF ON
000351: 23,2225           06254                                   1/WIE
000352: 23,2226           41400                          BOV      PUSH
000353: 23,2227           46243                                   OVERADAY
000354: 23,2230           45346                          COS      DSU
000355: 23,2231           15334                                   HIDPHALF
000356: 23,2232           65361                          VXSC     PDDL                                  #  XCH W PUSH LIST
000357: 23,2233           03466                                   RTNORM                                #  .5 UNIT
000358: 23,2234           74356                          SIN      VXSC
000359: 23,2235           03460                                   RTEAST                                #  .5 UNIT
000360: 23,2236           76455                          VAD      VSL1
000361: 23,2237           53455                          VAD      UNIT                                  #  INSURE THAT RT IS 'UNIT'.
000362: 23,2240           03452                                   RTINIT                                #  .5 UNIT
000363: 23,2241           03474                          STORE    RT                                    #  .5 UNIT TARGET VECTOR
000364:
000365: 23,2242           77616                          RVQ
000366:
000367: 23,2243           75345        OVERADAY          DLOAD    SIGN
000368: 23,2244           06254                                   1/WIE
000369: 23,2245           03606                                   DTEAROT
000370: 23,2246           77621                          BDSU
000371: 23,2247           03606                                   DTEAROT
000372: 23,2250           03606                          STORE    DTEAROT
000373:
000374: 23,2251           77650                          GOTO
000375: 23,2252           46223                                   EARROT2
000376:
000377:                                                                                                 # WIE             2DEC    .1901487997
000378: 23,2253           01015 34732  1/WIE             2DEC     8616410    B-28
000379:
000380: 23,2255           15373 11346  NB2NB1            2DEC     +.8431756920 B-1
000381: 23,2257           00000 00000                    2DEC     0          B-28
000382: 23,2261           67313 65307                    2DEC     -.5376381241 B-1
000383:


000385:
000386: 23,2263           00000 00000  ZERINFLT          2DEC     0          B-28
000387:
000388: 23,2265           20000 00000  HALFNFLT          2DEC     .5
000389: 23,2267           00000 00000                    2DEC     0          B-28
000390: 23,2271           10464 12470                    2DEC     +.5376381241 B-1
000391: 23,2273           00000 00000                    2DEC     0          B-28
000392: 23,2275           15373 11346                    2DEC     +.8431756920 B-1
000393:
000394: 23,2277           15373 11346  NB1NB2            2DEC     +.8431756920 B-1
000395: 23,2301           00000 00000                    2DEC     0          B-28
000396: 23,2303           10464 12470                    2DEC     +.5376381241 B-1
000397: 23,2305           00000 00000                    2DEC     0          B-28
000398: 23,2307           20000 00000                    2DEC     .5
000399: 23,2311           00000 00000                    2DEC     0          B-28
000400: 23,2313           67313 65307                    2DEC     -.5376381241 B-1
000401: 23,2315           00000 00000                    2DEC     0          B-28
000402: 23,2317           15373 11346                    2DEC     +.8431756920 B-1
000403:


000405:
000406: 23,2321           07020        10DEGS-           DEC      3600       B-14
000407:
000408: 23,2322           60000        270DEG            OCT      60000                                 #  SHAFT   270 DEGREES    25 COMP.
000409: 23,2323           00000                          OCT      00000
000410:
000411: 23,2324           61740        20DEGS-           DEC      -07199     B-14
000412: 23,2325           77777                          DEC      -00000     B-14
000413:
000414: 23,2326           07020        20DEG-            DEC      03600      B-14
000415: 23,2327           00000                          DEC      00000      B-14

End of include-file CSM_GEOMETRY.agc.  Parent file is MAIN.agc


