
Source Code


000002:                                                                                                  ## Copyright:   Public domain.
000003:                                                                                                  ## Filename:    CSM_GEOMETRY.agc
000004:                                                                                                  ## Purpose:     Part of the source code for Artemis (i.e., Colossus 3),
000005:                                                                                                  ##              build 072.  This is for the Command Module's (CM)
000006:                                                                                                  ##              Apollo Guidance Computer (AGC), for
000007:                                                                                                  ##              Apollo 15-17.
000008:                                                                                                  ## Assembler:   yaYUL
000009:                                                                                                  ## Contact:     Jim Lawton <jim DOT lawton AT gmail DOT com>
000010:                                                                                                  ## Website:     www.ibiblio.org/apollo/index.html
000011:                                                                                                  ## Page Scans:  www.ibiblio.org/apollo/ScansForConversion/Artemis072/
000012:                                                                                                  ## Mod history: 2009-08-08 JL   Adapted from corresponding Comanche 055 file.
000013:                                                                                                  ##              2010-02-08 JL   Fixed a line that should have been commented out on p305.
000014:                                                                                                  ##              2010-02-20 RSB  Un-##'d this header.
000015:                                                                                                  ##              2017-01-21 RSB  Proofed comment text by diff'ing vs Comanche 55
000016:                                                                                                  ##                              and corrected errors found.
000017:                                                                                                  ##              2017-01-28 RSB  WTIH -> WITH.
000018:


000020:
000021: 23,2000                                           SETLOC   COMGEOM1
000022: 23,2000                                           BANK
000023:
000024:                                                                                                  #  THIS ROUTINE TAKES THE SHAFT AND TRUNNION ANGLES AS READ BY THE CM OPTICAL SYSTEM AND CONVERTS THEM INTO A UNIT
000025:                                                                                                  #  VECTOR REFERENCED TO THE NAVIGATION BASE COORDINATE SYSTEM AND COINCIDENT WITH THE SEXTANT LINE OF SIGHT.
000026:
000027:                                                                                                  #  THE INPUTS ARE  1) THE SEXTANT SHAFT AND TRUNNION ANGLES ARE STORED SP IN LOCATIONS 3 AND 5 RESPECTIVELY OF THE
000028:                                                                                                  #  MARK VAC AREA.  2) THE COMPLEMENT OF THE BASE ADDRESS OF THE MARK VAC AREA IS STORED SP AT LOCATION X1 OF YOUR
000029:                                                                                                  #  JOB VAC AREA.
000030:
000031:                                                                                                  #  THE OUTPUT IS A HALF-UNIT VECTOR IN NAVIGATION BASE COORDINATES AND STORED AT LOCATION 32D OF THE VAC AREA. THE
000032:                                                                                                  #  OUTPUT IS ALSO AVAILABLE AT MPAC.
000033:
000034: 23,2000                                           COUNT*   $$/GEOM
000035: 23,2000           47133        SXTNB              SLOAD*   RTB                                   #  PUSHDOWN 00,02,04,(17D-19D),32D-36D
000036: 23,2001           00006                                    5,1                                   #  TRUNNION = TA
000037: 23,2002           51754                                    CDULOGIC
000038: 23,2003           41434                           RTB      PUSH
000039: 23,2004           46027                                    SXTLOGIC
000040: 23,2005           72556                           SIN      SL1
000041: 23,2006           66606                           PUSH     SLOAD*                                #  PD2 = SIN(TA)
000042: 23,2007           00004                                    3,1                                   #  SHAFT = SA
000043: 23,2010           41434                           RTB      PUSH                                  #  PD4 = SA
000044: 23,2011           51754                                    CDULOGIC
000045:
000046: 23,2012           41346                           COS      DMP
000047: 23,2013           00003                                    2
000048: 23,2014           14041                           STODL    STARM                                 #  COS(SA)SIN(TA)
000049:
000050: 23,2015           41356                           SIN      DMP
000051: 23,2016           77626                           STADR
000052: 23,2017           63734                           STODL    STARM      +2                         #  SIN(SA)SIN(TA)
000053:
000054: 23,2020           77746                           COS
000055: 23,2021           24045                           STOVL    STARM      +4
000056: 23,2022           00041                                    STARM                                 #  STARM = 32D
000057: 23,2023           76521                           MXV      VSL1
000058: 23,2024           06300                                    NB1NB2
000059: 23,2025           00041                           STORE    32D
000060: 23,2026           77616                           RVQ
000061:
000062: 23,2027           32321        SXTLOGIC           CAF      10DEGS-                               #  CORRECT FOR 19.775 DEGREE OFFSET
000063: 23,2030           26154                           ADS      MPAC
000064: 23,2031           34754                           CAF      QUARTER
000065: 23,2032           07256                           TC       SHORTMP
000066: 23,2033           06030                           TC       DANZIG
000067:


000069:
000070:                                                                                                  #  CALCSXA COMPUTES THE SEXTANT SHAFT AND TRUNNION ANGLES REQUIRED TO POSITION THE OPTICS SUCH THAT A STAR LINE-
000071:                                                                                                  #  OF-SIGHT LIES ALONG THE STAR VECTOR. THE ROUTINE TAKES THE GIVEN STAR VECTOR AND EXPRESSES IT AS A VECTOR REF-
000072:                                                                                                  #  ERENCED TO THE OPTICS COORDINATE SYSTEM. IN ADDITION IT SETS UP THREE UNIT VECTORS DEFINING THE X, Y, AND Z AXES
000073:                                                                                                  #  REFERENCED TO THE OPTICS COORDINATE SYSTEM.
000074:
000075:                                                                                                  #  THE INPUTS ARE  1) THE STAR VECTOR REFERRED TO PRESENT STABLE MEMBER COORDINATES STORED AT STAR.  2) SAME ANGLE
000076:                                                                                                  #  INPUT AS *SMNB*, I.E. SINES AND COSINES OF THE CDU ANGLES, IN THE ORDER Y Z X, AT SINCDU AND COSCDU.  A CALL
000077:                                                                                                  #  TO CDUTRIG WILL PROVIDE THIS INPUT.
000078:
000079:                                                                                                  #  THE OUTPUTS ARE THE SEXTANT SHAFT AND TRUNNION ANGLES STORED DP AT SAC AND PAC RESPECTIVELY.  (LOW ORDER PART
000080:                                                                                                  #  EQUAL TO ZERO).
000081:
000082: 23,2034           77220        CALCSXA            ITA      VLOAD                                 #  PUSHDOWN 00-26D,28D,30D,32D-36D
000083: 23,2035           00034                                    28D
000084: 23,2036           02766                                    STAR
000085: 23,2037           77624                           CALL
000086: 23,2040           47633                                    *SMNB*
000087: 23,2041           76521                           MXV      VSL1
000088: 23,2042           06256                                    NB2NB1
000089: 23,2043           26766                           STOVL    STAR
000090: 23,2044           15334                                    HIUNITX
000091: 23,2045           26555                           STOVL    XNB1
000092: 23,2046           15332                                    HIUNITY
000093: 23,2047           26563                           STOVL    YNB1
000094: 23,2050           15330                                    HIUNITZ
000095: 23,2051           36571                           STCALL   ZNB1
000096: 23,2052           46076                                    SXTANG1
000097:


000099:
000100:                                                                                                  #  SXTANG COMPUTES THE SEXTANT SHAFT AND TRUNNION ANGLES REQUIRED TO POSITION THE OPTICS SUCH THAT A STAR LINE-OF-
000101:                                                                                                  #  SIGHT LIES ALONG THE STAR VECTOR.
000102:
000103:                                                                                                  #  THE INPUTS ARE  1) THE STAR VECTOR REFERRED TO ANY COORDINATE SYSTEM STORED AT STAR.  2) THE NAVIGATION BASE
000104:                                                                                                  #  COORDINATES REFERRED TO THE SAME COORDINATE SYSTEM. THESE THREE HALF-UNIT VECTORS ARE STORED AT XNB, YNB, AND
000105:                                                                                                  #  ZNB.
000106:
000107:                                                                                                  #  THE OUTPUTS ARE THE SEXTANT SHAFT AND TRUNNION ANGLES STORED DP AT SAC AND PAC RESPECTIVELY.  (LOW ORDER PART
000108:                                                                                                  #  EQUAL TO ZERO).
000109:
000110: 23,2053           47020        SXTANG             ITA      RTB                                   #  PUSHDOWN 16D,18D,22D-26D,28D
000111: 23,2054           00034                                    28D
000112: 23,2055           45731                                    TRANSP1                               #  EREF WRT NB2
000113: 23,2056           64375                           VLOAD    MXV
000114: 23,2057           02714                                    XNB
000115: 23,2060           06256                                    NB2NB1
000116: 23,2061           77772                           VSL1
000117: 23,2062           26555                           STOVL    XNB1
000118: 23,2063           02722                                    YNB
000119: 23,2064           76521                           MXV      VSL1
000120: 23,2065           06256                                    NB2NB1
000121: 23,2066           26563                           STOVL    YNB1
000122: 23,2067           02730                                    ZNB
000123: 23,2070           76521                           MXV      VSL1
000124: 23,2071           06256                                    NB2NB1
000125: 23,2072           02571                           STORE    ZNB1
000126:
000127: 23,2073           47034                           RTB      RTB
000128: 23,2074           45731                                    TRANSP1
000129: 23,2075           45745                                    TRANSP2
000130:
000131: 23,2076           47375        SXTANG1            VLOAD    VXV
000132: 23,2077           02571                                    ZNB1
000133: 23,2100           02766                                    STAR
000134: 23,2101           77600                           BOV
000135: 23,2102           46103                                    +1
000136: 23,2103           40056                           UNIT     BOV
000137: 23,2104           46145                                    ZNB=S1
000138: 23,2105           00027                           STORE    PDA                                   #  PDA = UNIT(ZNB X S)
000139:
000140: 23,2106           57441                           DOT      DCOMP
000141: 23,2107           02555                                    XNB1
000142: 23,2110           24023                           STOVL    SINTH                                 #  SIN(SA) = PDA . -XNB
000143: 23,2111           00027                                    PDA
000144:
000145: 23,2112           77641                           DOT
000146: 23,2113           02563                                    YNB1
000147: 23,2114           34021                           STCALL   COSTH                                 #  COS(SA) = PDA . YNB
000148: 23,2115           47311                                    ARCTRIG


000150: 23,2116           77634                           RTB
000151: 23,2117           45640                                    1STO2S
000152: 23,2120           26774                           STOVL    SAC
000153: 23,2121           02766                                    STAR
000154: 23,2122           77600                           BOV
000155: 23,2123           46124                                    +1
000156: 23,2124           72441                           DOT      SL1
000157: 23,2125           02571                                    ZNB1
000158: 23,2126           77726                           ACOS
000159: 23,2127           62440                           BMN      SL2
000160: 23,2130           46142                                    SXTALARM                              #  TRUNNION ANGLE NEGATIVE
000161: 23,2131           45200                           BOV      DSU
000162: 23,2132           46142                                    SXTALARM                              #  TRUNNION ANGLE GREATER THAN 90 DEGREES
000163: 23,2133           06327                                    20DEG-
000164: 23,2134           77634                           RTB
000165: 23,2135           45640                                    1STO2S
000166: 23,2136           02776                           STORE    PAC                                   #  FOR FLIGHT USE, CULTFLAG IS ON IF
000167: 23,2137           77614                           CLRGO                                          #  TRUNION IS GREATER THAN 90 DEG
000168: 23,2140           01630                                    CULTFLAG
000169: 23,2141           00034                                    28D
000170: 23,2142           77614        SXTALARM           SETGO                                          #  ALARM HAS BEEN REMOVED FROM THIS
000171: 23,2143           01430                                    CULTFLAG
000172: 23,2144           00034                                    28D                                   #  SUBROUTINE, ALARM WILL BE SET BY MPI
000173: 23,2145           77745        ZNB=S1             DLOAD
000174: 23,2146           06323                                    270DEG
000175: 23,2147           16774                           STODL    SAC
000176: 23,2150           06325                                    20DEGS-
000177: 23,2151           02776                           STORE    PAC
000178: 23,2152           77614                           CLRGO
000179: 23,2153           01630                                    CULTFLAG
000180: 23,2154           00034                                    28D
000181:


000183:
000184:                                                                                                  #  THESE TWO ROUTINES COMPUTE THE ACTUAL STATE VECTOR FOR LM, CSM BY ADDING
000185:                                                                                                  #  THE CONIC R,V AND THE DEVIATIONS R,V.  THE STATE VECTORS ARE CONVERTED TO
000186:                                                                                                  #  METERS B-29 AND METERS/CSEC B-7 AND STORED APPROPRIATELY IN RN,VN OR
000187:                                                                                                  #  R-OTHER , V-OTHER FOR DOWNLINK. THE ROUTINES NAMES ARE SWITCHED IN THE
000188:                                                                                                  #  OTHER VEHICLES COMPUTER.
000189:
000190:                                                                                                  #  INPUT
000191:                                                                                                  #        STATE VECTOR IN TEMPORARY STORAGE AREA
000192:                                                                                                  #        IF STATE VECTOR IS SCALED POS B27 AND VEL B5
000193:                                                                                                  #                SET X2 TO +2
000194:                                                                                                  #        IF STATE VECTOR IS SCALED POS B29 AND VEL B7
000195:                                                                                                  #                SET X2 TO 0
000196:
000197:                                                                                                  #  OUTPUT
000198:                                                                                                  #        R(T) IN RN, V(T) IN VN, T IN PIPTIME
000199:                                                                                                  #  OR
000200:                                                                                                  #        R(T) IN R-OTHER, V(T) IN V-OTHER        (T IS DEFINED BY T-OTHER)
000201:
000202: 10,2000                                           SETLOC   COMGEOM2
000203: 10,2000                                           BANK
000204: 10,2240                                           COUNT*   $$/GEOM
000205: 10,2240           43414        SVDWN1             BOF      RVQ                                   #  SW=1=AVETOMID DOING W-MATRIX INTEG
000206: 10,2241           04756                                    AVEMIDSW
000207: 10,2242           20243                                    +1
000208: 10,2243           53775                           VLOAD    VSL*
000209: 10,2244           01521                                    TDELTAV
000210: 10,2245           57605                                    0          -7,2
000211: 10,2246           53655                           VAD      VSL*
000212: 10,2247           01535                                    RCV
000213: 10,2250           57576                                    0,2
000214: 10,2251           25030                           STOVL    RN
000215: 10,2252           01527                                    TNUV
000216: 10,2253           53257                           VSL*     VAD
000217: 10,2254           57602                                    0          -4,2
000218: 10,2255           01543                                    VCV
000219: 10,2256           77657                           VSL*
000220: 10,2257           57576                                    0,2
000221: 10,2260           15036                           STODL    VN
000222: 10,2261           01517                                    TET
000223: 10,2262           01044                           STORE    PIPTIME
000224: 10,2263           77616                           RVQ
000225:
000226: 10,2264           53775        SVDWN2             VLOAD    VSL*
000227: 10,2265           01521                                    TDELTAV
000228: 10,2266           57605                                    0          -7,2
000229: 10,2267           53655                           VAD      VSL*
000230: 10,2270           01535                                    RCV
000231: 10,2271           57576                                    0,2


000233: 10,2272           25720                           STOVL    R-OTHER
000234: 10,2273           01527                                    TNUV
000235: 10,2274           53257                           VSL*     VAD
000236: 10,2275           57602                                    0          -4,2
000237: 10,2276           01543                                    VCV
000238: 10,2277           77657                           VSL*
000239: 10,2300           57576                                    0,2
000240: 10,2301           01726                           STORE    V-OTHER
000241: 10,2302           77616                           RVQ
000242:


000244:
000245:                                                                                                  #  SUBROUTINE TO COMPUTE THE NATURAL LOG OF C(MPAC, MPAC +1).
000246:
000247:                                                                                                  #        ENTRY:  CALL
000248:                                                                                                  #                        LOG
000249:
000250:                                                                                                  #  SUBROUTINE RETURNS WITH -LOG IN DP MPAC.
000251:
000252:                                                                                                  #  EBANK IS ARBITRARY..
000253:
000254: 23,2000                                           SETLOC   POWFLIT2
000255: 23,2000                                           BANK
000256: 23,2155                                           COUNT*   $$/GEOM
000257: 23,2155           44301        LOG                NORM     BDSU                                  #  GENERATES LOG BY SHIFTING ARG
000258: 23,2156           00160                                    MPAC       +3                         #  UNTIL IT LIES BETWEEN .5 AND 1.
000259: 23,2157           15344                                    NEARLY1                               #  THE LOG OF THIS PART IS FOUND AND THE
000260: 23,2160           77776                           EXIT                                           #  LOG OF THE SHIFTED PART IS COMPUTED
000261:
000262: 23,2161           07171                           TC       POLY                                  #  AND ADDED IN. SHIFT COUNT STORED
000263:
000264: 23,2162           00002                           DEC      2          B-14                       #  (N-1, SUPPLIED BY SMERZH)
000265: 23,2163           00000 00000                     2DEC     0          B-28                       #  IN MPAC +3.
000266: 23,2165           01001 14636                     2DEC     .031335467
000267: 23,2167           00325 07310                     2DEC     .0130145859
000268: 23,2171           00541 16735                     2DEC     .0215738898
000269:
000270: 23,2173           34772                           CAF      ZERO
000271: 23,2174           54156                           TS       MPAC       +2
000272: 23,2175           00006                           EXTEND
000273: 23,2176           32212                           DCA      CLOG2/32
000274: 23,2177           52155                           DXCH     MPAC
000275: 23,2200           52160                           DXCH     MPAC       +3
000276: 23,2201           40000                           COM                                            #  LOAD POSITIVE SHIFT COUNT IN A.
000277: 23,2202           07256                           TC       SHORTMP                               #  MULTIPLY BY SHIFT COUNT.
000278:
000279: 23,2203           52156                           DXCH     MPAC       +1
000280: 23,2204           52155                           DXCH     MPAC
000281: 23,2205           52160                           DXCH     MPAC       +3
000282: 23,2206           20155                           DAS      MPAC
000283: 23,2207           06006                           TC       INTPRET                               #  RESULT IN MPAC, MPAC +1
000284:
000285: 23,2210           77616                           RVQ
000286:
000287: 23,2211  26,3343               NEARLY1            =        NEARONE
000288: 23,2211           00542 34414  CLOG2/32           2DEC     .0216608494
000289:


000291:
000292:                                                                                                  #  SUBROUTINE NAME:  EARTH ROTATOR       (EARROT1 OR EARROT2)            DATE:  15 FEB 67
000293:                                                                                                  #  MOD NO:  N +1                                                         LOG SECTION:  POWERED FLIGHT SUBROS
000294:                                                                                                  #  MOD BY:  ENTRY GROUP (BAIRNSFATHER)
000295:
000296:                                                                                                  #  FUNCTIONAL DESCRIPTION:  THIS ROUTINE PROJECTS THE INITIAL EARTH TARGET VECTOR   RTINIT   AHEAD THROUGH
000297:                                                                                                  #        THE ESTIMATED TIME OF FLIGHT. INITIAL CALL RESOLVES THE INITIAL TARGET VECTOR   RTINIT   INTO EASTERLY
000298:                                                                                                  #        AND NORMAL COMPONENTS   RTEAST   AND   RTNORM   . INITIAL AND SUBSEQUENT CALLS ROTATE THIS VECTOR
000299:                                                                                                  #        ABOUT THE (FULL) UNIT POLAR AXIS   UNITW   THROUGH THE ANGLE   WIE DTEAROT   TO OBTAIN THE ROTATED
000300:                                                                                                  #        TARGET VECTOR   RT   . ALL VECTORS EXCEPT   UNITW   ARE HALF UNIT.
000301:                                                                                                  #        THE EQUATIONS ARE
000302:                                                                                                  #                -    -        -                      -
000303:                                                                                                  #                RT = RTINIT + RTNORM (COS(WT) - 1) + RTEAST SIN(WT)
000304:
000305:                                                                                                  #        WHERE   WT = WIE DTEAROT
000306:
000307:                                                                                                  #                RTINIT = INITIAL TARGET VECTOR
000308:                                                                                                  #                -        -       -
000309:                                                                                                  #                RTEAST = UNITW * RTINIT
000310:                                                                                                  #                -        -        -
000311:                                                                                                  #                RTNORM = RTEAST * UNITW
000312:
000313:                                                                                                  #        FOR CONTINUOUS UPDATING, ONLY ONE ENTRY TO EARROT1 IS REQUIRED, WITH SUBSEQUENT ENTRIES AT EARROT2.
000314:
000315:                                                                                                  #  CALLING SEQUENCE:     FIRST CALL                      SUBSEQUENT CALL
000316:                                                                                                  #                        STCALL  DTEAROT                 STCALL  DTEAROT
000317:                                                                                                  #                                EARROT1                         EARROT2
000318:                                                                                                  #                        C(MPAC) UNSPECIFIED             C(MPAC) = DTEAROT
000319:                                                                                                  #        PUSHLOC = PDL+0, ARBITRARY.  6 LOCATIONS USED.
000320:
000321:                                                                                                  #  SUBROUTINES USED:  NONE
000322:
000323:                                                                                                  #  NORMAL EXIT MODES:  RVQ
000324:
000325:                                                                                                  #  ALARMS:  NONE
000326:
000327:                                                                                                  #  OUTPUT:       RTEAST  (-1)            .5 UNIT VECTOR EAST, COMPNT OF RTINIT   LEFT BY FIRST CALL
000328:                                                                                                  #                RTNORM  (-1)            .5 UNIT VECTOR NORML, COMPNT OF RTINIT  LEFT BY FIRST CALL
000329:                                                                                                  #                RT      (-1)            .5 UNIT TARGET VECTOR, ROTATED          LEFT BY ALL CALLS
000330:                                                                                                  #                DTEAROT (-28) CS        MAY BE CHANGED BY EARROT2, IF OVER 1 DAY
000331:
000332:                                                                                                  #  ERASABLE INITIALIZATION REQUIRED:
000333:                                                                                                  #                UNITW   (0)             UNIT POLAR VECTOR                       PAD LOADED
000334:                                                                                                  #                RTINIT  (-1)            .5 UNIT INITIAL TARGET VECTOR           LEFT BY ENTRY
000335:                                                                                                  #                DTEAROT (-28) CS        TIME OF FLIGHT                          LEFT BY CALLER
000336:
000337:                                                                                                  #  DEBRIS:  QPRET, PDL+0 ... PDL+5
000338:


000340: 23,2213  E7,1451                                  EBANK=   RTINIT
000341:
000342: 23,2213           47375        EARROT1            VLOAD    VXV
000343: 23,2214           01712                                    UNITW                                 #  FULL UNIT VECTOR
000344: 23,2215           03452                                    RTINIT                                #  .5 UNIT
000345: 23,2216           03460                           STORE    RTEAST                                #  .5 UNIT
000346:
000347: 23,2217           77635                           VXV
000348: 23,2220           01712                                    UNITW                                 #  FULL UNIT
000349: 23,2221           17466                           STODL    RTNORM                                #  .5 UNIT
000350: 23,2222           03606                                    DTEAROT                               #  (-28) CS
000351:
000352: 23,2223           56204        EARROT2            BOVB     DDV
000353: 23,2224           57544                                    TCDANZIG                              #  RESET OVFIND, IF ON
000354: 23,2225           06254                                    1/WIE
000355: 23,2226           41400                           BOV      PUSH
000356: 23,2227           46243                                    OVERADAY
000357: 23,2230           45346                           COS      DSU
000358: 23,2231           15334                                    HIDPHALF
000359: 23,2232           65361                           VXSC     PDDL                                  #  XCH W PUSH LIST
000360: 23,2233           03466                                    RTNORM                                #  .5 UNIT
000361: 23,2234           74356                           SIN      VXSC
000362: 23,2235           03460                                    RTEAST                                #  .5 UNIT
000363: 23,2236           76455                           VAD      VSL1
000364: 23,2237           53455                           VAD      UNIT                                  #  INSURE THAT RT IS 'UNIT'.
000365: 23,2240           03452                                    RTINIT                                #  .5 UNIT
000366: 23,2241           03474                           STORE    RT                                    #  .5 UNIT TARGET VECTOR
000367:
000368: 23,2242           77616                           RVQ
000369:
000370: 23,2243           75345        OVERADAY           DLOAD    SIGN
000371: 23,2244           06254                                    1/WIE
000372: 23,2245           03606                                    DTEAROT
000373: 23,2246           77621                           BDSU
000374: 23,2247           03606                                    DTEAROT
000375: 23,2250           03606                           STORE    DTEAROT
000376:
000377: 23,2251           77650                           GOTO
000378: 23,2252           46223                                    EARROT2
000379:
000380:                                                                                                  # WIE            2DEC    .1901487997
000381: 23,2253           01015 34732  1/WIE              2DEC     8616410    B-28
000382:
000383: 23,2255           15373 11346  NB2NB1             2DEC     +.8431756920 B-1
000384: 23,2257           00000 00000                     2DEC     0          B-28
000385: 23,2261           67313 65307                     2DEC     -.5376381241 B-1
000386:


000388:
000389: 23,2263           00000 00000  ZERINFLT           2DEC     0          B-28
000390:
000391: 23,2265           20000 00000  HALFNFLT           2DEC     .5
000392: 23,2267           00000 00000                     2DEC     0          B-28
000393: 23,2271           10464 12470                     2DEC     +.5376381241 B-1
000394: 23,2273           00000 00000                     2DEC     0          B-28
000395: 23,2275           15373 11346                     2DEC     +.8431756920 B-1
000396:
000397: 23,2277           15373 11346  NB1NB2             2DEC     +.8431756920 B-1
000398: 23,2301           00000 00000                     2DEC     0          B-28
000399: 23,2303           10464 12470                     2DEC     +.5376381241 B-1
000400: 23,2305           00000 00000                     2DEC     0          B-28
000401: 23,2307           20000 00000                     2DEC     .5
000402: 23,2311           00000 00000                     2DEC     0          B-28
000403: 23,2313           67313 65307                     2DEC     -.5376381241 B-1
000404: 23,2315           00000 00000                     2DEC     0          B-28
000405: 23,2317           15373 11346                     2DEC     +.8431756920 B-1
000406:


000408:
000409: 23,2321           07020        10DEGS-            DEC      3600       B-14
000410:
000411: 23,2322           60000        270DEG             OCT      60000                                 #  SHAFT   270 DEGREES   2S COMP.
000412: 23,2323           00000                           OCT      00000
000413:
000414: 23,2324           61740        20DEGS-            DEC      -07199     B-14
000415: 23,2325           77777                           DEC      -00000     B-14
000416:
000417: 23,2326           07020        20DEG-             DEC      03600      B-14
000418: 23,2327           00000                           DEC      00000      B-14

End of include-file CSM_GEOMETRY.agc.  Parent file is MAIN.agc


