
Source Code


000002:                                                                                                  ## Copyright:   Public domain.
000003:                                                                                                  ## Filename:    DISPLAY_INTERFACE_ROUTINES.agc
000004:                                                                                                  ## Purpose:     Part of the source code for Artemis (i.e., Colossus 3),
000005:                                                                                                  ##              build 072.  This is for the Command Module's (CM)
000006:                                                                                                  ##              Apollo Guidance Computer (AGC), for
000007:                                                                                                  ##              Apollo 15-17.
000008:                                                                                                  ## Assembler:   yaYUL
000009:                                                                                                  ## Contact:     Jim Lawton <jim DOT lawton AT gmail DOT com>
000010:                                                                                                  ## Website:     www.ibiblio.org/apollo/index.html
000011:                                                                                                  ## Page Scans:  www.ibiblio.org/apollo/ScansForConversion/Artemis072/
000012:                                                                                                  ## Mod history: 2009-08-18 JL   Adapted from corresponding Comanche 055 file.
000013:                                                                                                  ##              2010-01-31 JL   Removed obsolete meta-comment.
000014:                                                                                                  ##              2010-02-01 JL   Fixed build errors.
000015:                                                                                                  ##              2010-02-11 JL   Fixed error on p1465.
000016:                                                                                                  ##              2010-02-20 RSB  Un-##'d this header.
000017:                                                                                                  ##              2017-01-21 RSB  Proofed comment text by diff'ing vs Comanche 55
000018:                                                                                                  ##                              and corrected errors found.
000019:                                                                                                  ##              2021-05-30 ABS  BLKNR1 -> BLNKR1
000020:


000022:
000023:                                                                                                  #  DISPLAYS CAN BE CLASSIFIED INTO THE FOLLOWING CATEGORIES -
000024:
000025:                                                                                                  #        1. PRIORITY DISPLAYS - DISPLAYS WHICH TAKE PRIORITY OVER ALL OTHER DISPLAYS. USUALLY THESE DISPLAYS ARE SENT
000026:                                                                                                  #           OUT UNDER CRITICAL ALARM CONDITIONS.
000027:                                                                                                  #        2. EXTENDED VERB DISPLAYS - ALL EXTENDED VERBS AND MARK ROUTINES SHOULD USE EXTENDED VERB (MARK) DISPLAYS.
000028:                                                                                                  #        3. NORMAL DISPLAYS - ALL MISSION PROGRAM DISPLAYS WHICH INTERFACE WITH THE ASTRONAUT DURING THE NORMAL
000029:                                                                                                  #           SEQUENCE OF EVENTS.
000030:                                                                                                  #        4. MISC. DISPLAYS - ALL DISPLAYS NOT HANDLED BY THE DISPLAY INTERFACE ROUTINES. THESE INCLUDE SUCH DISPLAYS AS
000031:                                                                                                  #           MM DISPLAYS AND SPECIAL PURPOSE DISPLAYS HANDLED BY PINBALL.
000032:                                                                                                  #        5. ASTRONAUT INITIATED DISPLAYS - ALL DISPLAYS INITIATED EXTERNALLY.
000033:
000034:                                                                                                  #  THE FOLLOWING TERMS ARE USED TO DESCRIBE THE STATUS OF DISPLAYS -
000035:
000036:                                                                                                  #        1. ACTIVE - THE DISPLAY WHICH IS (1) BEING DISPLAYED TO THE ASTRONAUT AND WAITING FOR A RESPONSE OR
000037:                                                                                                  #           (2) WAITING FIRST IN LINE FOR THE ASTRONAUT TO FINISH USING THE DSKY OR (3) BEING DISPLAYED ON THE DSKY
000038:                                                                                                  #           BUT NOT WAITING FOR A RESPONSE.
000039:                                                                                                  #        2. INACTIVE - A DISPLAY WHICH HAS (1) BEEN ACTIVE BUT WAS INTERRUPTED BY A DISPLAY OF HIGHER PRIORITY,
000040:                                                                                                  #           (2) BEEN PUT INTO THE WAITING LIST AT TIME IT WAS REQUESTED DUE TO THE FACT A HIGHER PRIORITY DISPLAY
000041:                                                                                                  #           WAS ALREADY GOING, (3) BEEN INTERRUPTED BY THE ASTRONAUT (CALLED A PINBRANCH CONDITION, SINCE THIS TYPE
000042:                                                                                                  #           OF INACTIVE DISPLAY IS USUALLY REACTIVATED ONLY BY PINBALL) OR (4) A DISPLAY WHICH HAS FINISHED BUT STILL
000043:                                                                                                  #           HAS INFO SAVED FOR RESTART PURPOSES.
000044:
000045:                                                                                                  #  DISPLAY PRIORITIES WORK AS FOLLOWS -
000046:
000047:                                                                                                  #        INTERRUPTS -
000048:                                                                                                  #                1. THE ASTRONAUT CAN INTERRUPT ANY DISPLAY WITH AN EXTERNAL DISPLAY REQUEST.
000049:                                                                                                  #                2. INTERNAL DISPLAYS CAN NOT BE SENT OUT WHEN THE ASTRONAUT IS USING THE DSKY.
000050:                                                                                                  #                3. PRIORITY DISPLAYS INTERRUPT ALL OTHER TYPES OF INTERNAL DISPLAYS. A PRIORITY DISPLAY INTERRUPTING ANOTHER
000051:                                                                                                  #                   PRIORITY DISPLAY WILL CAUSE AN ABORT UNLESS BIT14 IS SET FOR THE LINUS ROUTINE.
000052:                                                                                                  #                4. A MARK DISPLAY INTERRUPTS ANY NORMAL DISPLAY.
000053:                                                                                                  #                5. A MARK THAT INTERRUPTS A MARK COMPLETELY REPLACES IT.
000054:
000055:                                                                                                  #        ORDER OF WAITING DISPLAYS -
000056:                                                                                                  #                1.  ASTRONAUT EXTERNAL USE
000057:                                                                                                  #                2.  PRIORITY
000058:                                                                                                  #                3.  INTERRUPTED MARK
000059:                                                                                                  #                4.  INTERRUPTED NORMAL
000060:
000061:                                                                                                  #                5.  MARK TO BE REQUESTED (SEE DESCRIPTION OF ENDMARK)
000062:                                                                                                  #                6.  MARK WAITING
000063:                                                                                                  #                7.  NORMAL WAITING
000064:


000066:                                                                                                  #  THE DISPLAY ROUTINES ARE INTENDED TO SERVE AS AN INTERFACE BETWEEN THE USER AND PINBALL.  THE
000067:                                                                                                  #  FOLLOWING STATEMENTS CAN BE MADE ABOUT NORMAL DISPLAYS AND PRIORITY DISPLAYS (A DESCRIPTION OF MARK ROUTINES
000068:                                                                                                  #  WILL FOLLOW LATER):
000069:
000070:                                                                                                  #        1.  ALL ROUTINES THAT END IN R HAVE AN IMMEDIATE RETURN TO THE USER.  FOR ALL FLASHING DISPLAYS THIS RETURN
000071:                                                                                                  #            IS TO THE USERS CALL CADR +4.  FOR THE ONLY NON FLASHING IMMEDIATE RETURN DISPLAY (GODSPR) THIS RETURN
000072:                                                                                                  #            IS TO THE USERS CALLING LOC +1.
000073:                                                                                                  #        2.  ALL ROUTINES NOT ENDING IN R DO NOT DO AN IMMEDIATE RETURN TO THE USER.
000074:                                                                                                  #        3.  ALL ROUTINES THAT END IN R START A SEPARATE JOB (MAKEPLAY) WITH USERS JOB PRIORITY.
000075:                                                                                                  #        4.  ALL ROUTINES NOT ENDING IN R BRANCH DIRECTLY TO MAKEPLAY WHICH MAKES THESE DISPLAYS A PART OF THE
000076:                                                                                                  #            USERS JOB.
000077:                                                                                                  #        5.  ALL DISPLAY ROUTINES ARE CALLED VIA BANKCALL.
000078:                                                                                                  #        6.  TO RESTART A DISPLAY THE USER WILL GENERALLY USE A PHASE OF ONE WITH DESIRED RESTART GROUP (SEE
000079:                                                                                                  #            DESCRIPTION OF RESTARTS).
000080:                                                                                                  #        7.  ALL FLASHING DISPLAYS HAVE 3 RETURNS TO THE USER FROM ASTRONAUT RESPONSES.  A TERMINATE (V34) BRANCHES
000081:                                                                                                  #            TO THE USERS CALL CADR +1.  A PROCEED (V33) BRANCHES TO THE USERS CALL CADR +2.  AN ENTER OR RECYCLE
000082:                                                                                                  #            (V32) BRANCHES TO THE USERS CALL CADR +3.
000083:                                                                                                  #        8.  ALL ROUTINES MUST BE USED UNDER EXECUTIVE CONTROL.
000084:
000085:                                                                                                  #  A DESCRIPTION OF EACH ROUTINE WITH AN EXAMPLE FOLLOWS:
000086:
000087:                                                                                                  #  GODSPR IS THE SAME AS GODSP ONLY RETURN IS TO THE USER.
000088:
000089:                                                                                                  #                        CAF     VXXNYY
000090:                                                                                                  #                        TC      BANKCALL
000091:                                                                                                  #                        CADR    GODSPR
000092:                                                                                                  #                        ...     ...             IMMEDIATE RETURN OF GODSPR
000093:
000094:                                                                                                  #  GOFLASH DISPLAYS A FLASHING VERB NOUN WITH NO IMMEDIATE RETURN TO THE USER. 3 RETURNS ARE POSSIBLE FROM
000095:                                                                                                  #  THE ASTRONAUT (SEE NO. 7 ABOVE).
000096:
000097:                                                                                                  #                        CAF     VXXNYY          VXX NYY WILL BE A FLASHING VERB NOUN.
000098:                                                                                                  #                        TC      BANKCALL
000099:                                                                                                  #                        CADR    GOFLASH
000100:                                                                                                  #                        ...     ...             TERMINATE RETURN
000101:                                                                                                  #                        ...     ...             PROCEED RETURN
000102:                                                                                                  #                        ...     ...             ENTER OR RECYCLE RETURN
000103:
000104:                                                                                                  #  GOPERF1 IS ENTERED WITH DESIRED CHECKLIST VALUE IN A.  GOPERF1 WILL DISPLAY THIS VALUE IN R1 BY MEANS OF A
000105:                                                                                                  #  V01 N25. A FLASHING PLEASE PERFORM ON CHECKLIST (V50 N25) IS THEN DISPLAYED.  NO IMMEDIATE RETURN IS MADE TO
000106:                                                                                                  #  USER (SEE NO. 7 ABOVE).
000107:                                                                                                  #  GOPERF1 BLANKS REGISTERS R2 AND R3
000108:
000109:                                                                                                  #                        CAF     OCTXX           CODE FOR CHECKLIST VALUE XX
000110:                                                                                                  #                        TC      BANKCALL
000111:                                                                                                  #                        CADR    GOPERF1
000112:                                                                                                  #                        ...     ...             TERMINATE RETURN
000113:                                                                                                  #                        ...     ...             PROCEED RETURN


000115:                                                                                                  #                        ...     ...             ENTER RETURN
000116:
000117:                                                                                                  #  GOPERF3 IS USED FOR A PLEASE PERFORM ON A PROGRAM NUMBER.  THE DESIRED PROGRAM NO. IS ENTERED IN A.  GOPERF3
000118:                                                                                                  #  DISPLAYS THE NO. BY MEANS OF A V06 N07 FOLLOWED BY A FLASHING V50 N07 FOR A PLEASE PERFORM. NO IMMEDIATE RETURN
000119:                                                                                                  #  IS MADE TO THE USER (SEE NO. 7 ABOVE).
000120:                                                                                                  #  GOPERF3 BLANKS REGISTERS R2 AND R3
000121:
000122:                                                                                                  #                        CAF     DECXX           REQUEST PERFORM ON PXX
000123:                                                                                                  #                        TC      BANKCALL
000124:                                                                                                  #                        CADR    GOPERF3
000125:                                                                                                  #                        ...     ...             TERMINATE RETURN
000126:                                                                                                  #                        ...     ...             PROCEED RETURN
000127:                                                                                                  #                        ...     ...             ENTER RETURN
000128:
000129:                                                                                                  #  GOPERF4 IS USED FOR A PLEASE PERFORM ON AN OPTION. THE DESIRED OPTION IS ENTERED IN A AND STORED IN OPTION1.
000130:                                                                                                  #  GOPERF4 DISPLAYS R1 AND R2 BY MEANS OF A V04N06 FOLLOWED BY A FLASHING V50N06 FOR A PLEASE PERFORM. NO
000131:                                                                                                  #  IMMEDIATE RETURN IS MADE TO THE USER (SEE NO. 7 ABOVE).
000132:
000133:                                                                                                  #                        CAF     OCTXX           REQUEST PERFORM ON OPTION XX
000134:                                                                                                  #                        TC      BANKCALL
000135:                                                                                                  #                        CADR    GOPERF4
000136:                                                                                                  #                        ...     ...             TERMINATE RETURN
000137:                                                                                                  #                        ...     ...             PROCEED RETURN
000138:                                                                                                  #                        ...     ...             ENTER RETURN
000139:
000140:                                                                                                  #  GOPERF4 BLANKS REGISTER R3
000141:
000142:                                                                                                  #  GODSPRET IS USED TO DISPLAY A VERB NOUN ARRIVING IN A WITH A RETURN TO THE USER AFTER THE DISPLAY HAS BEEN SENT
000143:                                                                                                  #  OUT.
000144:
000145:                                                                                                  #                        CAF     VXXNYY
000146:                                                                                                  #                        TC      BANKCALL
000147:                                                                                                  #                        CADR    GODSPRET
000148:                                                                                                  #                        ...     ...             RETURN TO USER
000149:
000150:                                                                                                  #  REGODSP IS USED TO DISPLAY A VERB NOUN ARRIVING IN A.  REGODSP IS THE SAME AS GODSP ONLY REGODSP REPLACES ANY
000151:                                                                                                  #  ACTIVE NORMAL DISPLAY IF ONE WAS ACTIVE.
000152:
000153:                                                                                                  #                        CAF     VXXNYY
000154:                                                                                                  #                        TC      BANKCALL
000155:                                                                                                  #                        CADR    REGODSP
000156:
000157:                                                                                                  #  REFLASH IS THE SAME AS GOFLASH ONLY REFLASH REPLACES ANY ACTIVE NORMAL DISPLAY IF ONE WAS ACTIVE.
000158:
000159:                                                                                                  #                        CAF     VXXNYY          VXX NYY WILL BE A FLASHING VERB NOUN
000160:                                                                                                  #                        TC      BANKCALL
000161:                                                                                                  #                        CADR    REFLASH
000162:                                                                                                  #                        ...     ...             TERMINATE RETURN


000164:                                                                                                  #                        ...     ...             PROCEED RETURN
000165:                                                                                                  #                        ...     ...             ENTER RETURN
000166:
000167:                                                                                                  #  GOFLASHR IS SAME AS GOFLASH ONLY AN IMMEDIATE RETURN IS MADE TO THE USERS CALL CADR +4.
000168:
000169:                                                                                                  #                        CAF     VXXNYY
000170:                                                                                                  #                        TC      BANKCALL
000171:                                                                                                  #                        CADR    GOFLASHR
000172:                                                                                                  #                        ...     ...             TERMINATE RETURN
000173:                                                                                                  #                        ...     ...             PROCEED RETURN
000174:                                                                                                  #                        ...     ...             ENTER OR RECYCLE RETURN
000175:
000176:                                                                                                  #                        ...     ...             IMMEDIATE RETURN FROM GOFLASHR
000177:
000178:                                                                                                  #  GOPERF1R IS THE SAME AS GOPERF1 ONLY GOPERF1R HAS AN IMMEDIATE RETURN TO USERS CALL CADR +4.
000179:                                                                                                  #  GOPERF1R BLANKS REGISTERS R2 AND R3
000180:
000181:                                                                                                  #                        CAF     OCTXX           CODE FOR CHECKLIST VALUE XX.
000182:                                                                                                  #                        TC      BANKCALL
000183:                                                                                                  #                        CADR    GOPERF1R
000184:                                                                                                  #                        ...     ...             TERMINATE RETURN
000185:                                                                                                  #                        ...     ...             PROCEED RETURN
000186:                                                                                                  #                        ...     ...             ENTER RETURN
000187:
000188:                                                                                                  #                        ...     ...             IMMEDIATE RETURN FROM GOPERF1R
000189:
000190:                                                                                                  #  GOPERF3R IS THE SAME AS GOPERF3 ONLY AN IMMEDIATE RETURN IS MADE TO USERS CALL CADR +4.
000191:                                                                                                  #  GOPERF3R BLANKS REGISTERS R2 AND R3
000192:
000193:                                                                                                  #                        CAF     PROGXX          PERFORM PROGRAM XX
000194:                                                                                                  #                        TC      BANKCALL
000195:                                                                                                  #                        CADR    GOPERF3R
000196:                                                                                                  #                        ...     ...             TERMINATE RETURN
000197:                                                                                                  #                        ...     ...             PROCEED RETURN
000198:                                                                                                  #                        ...     ...             ENTER RETURN
000199:
000200:                                                                                                  #                        ...     ...             GOPERF3R IMMEDIATELY RETURNS HERE
000201:
000202:                                                                                                  #  GOPERF4R IS THE SAME AS GOPERF4 ONLY AN IMMEDIATE RETURN IS MADE TO USERS CALL CADR +4.
000203:
000204:                                                                                                  #                        CAF     OCTXX           REQUEST PERFORM ON OPTIONXX
000205:                                                                                                  #                        TC      BANKCALL
000206:                                                                                                  #                        CADR    GOPERF4R
000207:                                                                                                  #                        ...     ...             TERMINATE RETURN
000208:                                                                                                  #                        ...     ...             PROCEED RETURN
000209:                                                                                                  #                        ...     ...             ENTER RETURN
000210:
000211:                                                                                                  #                        ...     ...             IMMEDIATE RETURN TO USER
000212:


000214:                                                                                                  #  GOPERF4R BLANKS REGISTER R3
000215:
000216:                                                                                                  #  REFLASHR IS THE SAME AS REFLASH ONLY AN IMMEDIATE RETURN IS MADE TO THE USERS CALL CADR +4.
000217:
000218:                                                                                                  #                        CAF     VXXNYY          VXX NYY WILL BE A FLASHING VERB NOUN
000219:                                                                                                  #                        TC      BANKCALL
000220:                                                                                                  #                        CADR    REFLASHR
000221:                                                                                                  #                        ...     ...             TERMINATE RETURN
000222:                                                                                                  #                        ...     ...             PROCEED RETURN
000223:                                                                                                  #                        ...     ...             ENTER RETURN
000224:
000225:                                                                                                  #                        ...     ...             IMMEDIATE RETURN TO USER
000226:
000227:                                                                                                  #  REGODSPR IS THE SAME AS REGODSP ONLY A RETURN (IMMEDIATE) IS MADE TO THE USER.
000228:
000229:                                                                                                  #                        CAF     VXXNYY
000230:                                                                                                  #                        TC      BANKCALL
000231:                                                                                                  #                        CADR    REGODSPR
000232:
000233:                                                                                                  #                        ...     ...             IMMEDIATE RETURN TO USER
000234:


000236:                                                                                                  #  GOMARK IS USED TO DISPLAY A MARK VERB NOUN ARRIVING IN A. NO RETURN IS MADE TO THE USER.
000237:
000238:                                                                                                  #  GOMARKR IS THE SAME AS GOMARK ONLY RETURN IS TO THE USER.
000239:
000240:                                                                                                  #  GOMARKF DISPLAYS A FLASHING MARK VERB NOUN WITH NO IMMEDIATE RETURN TO THE USER. 3 RETURNS ARE POSSIBLE FROM
000241:                                                                                                  #  THE ASTRONAUT (SEE NO. 7 ABOVE).
000242:                                                                                                  #  GOXDSPF = GOMARKF
000243:
000244:                                                                                                  #                        CAF     VXXNYY          VXXNYY WILL BE A FLASHING MARK VERB NOUN
000245:                                                                                                  #                        TC      BANKCALL
000246:                                                                                                  #                        CADR    GOMARKF         OTHER EXTENDED VERBS USE CADR GOXDSPF
000247:                                                                                                  #                        ...     ...             TERMINATE RETURN
000248:                                                                                                  #                        ...     ...             PROCEED RETURN
000249:                                                                                                  #                        ...     ...             ENTER OR RECYCLE RETURN
000250:
000251:                                                                                                  #  GOMARKFR IS THE SAME AS GOMARKF ONLY AN IMMEDIATE RETURN IS MADE TO THE USER CALL CADR +4.
000252:
000253:                                                                                                  #  GOMARK1 IS USED FOR A PLEASE PERFORM ON A MARK REQUEST WITH ONLY 1 ASTRONAUT RETURN TO THE USER. NO IMMEDIATE
000254:                                                                                                  #  RETURN IS MADE. THE DESIRED MARK PLEASE PERFORM VERB AND DESIRED NOUN IS ENTERED IN A. GOMARK1 DISPLAYS R1, R2, R
000255:                                                                                                  #  MEANS OF A V05NYY FOLLOWED BY A FLASHING V5XNYY FOR A PLEASE PERFORM. THE ASTRONAUT WILL RESPOND WITH A MARK
000256:                                                                                                  #  OR MARK REJECT OR AN ENTER. THE ENTER IS THE ONLY ASTRONAUT RESPONSE THAT WILL COME BACK TO THE USER.
000257:
000258:                                                                                                  #                        CAF     V5XNYY          X=1,2,3,4       Y=NOUN
000259:                                                                                                  #                        TC      BANKCALL
000260:                                                                                                  #                        CADR    GOMARK1
000261:
000262:                                                                                                  #                        ...     ...             ENTER RETURN
000263:
000264:                                                                                                  #  *** IF BLANKING DESIRED ON NON R ROUTINES, NOTIFY DISPLAYER.
000265:
000266:                                                                                                  #  GOMARK1R IS THE SAME AS A GOMARK1 ONLY AN IMMEDIATE RETURN IS MADE TO THE USERS CALL CADR +2.
000267:
000268:                                                                                                  #                        CAF     V5XNYY          X=1,2,3,4       YY=NOUN
000269:                                                                                                  #                        TC      BANKCALL
000270:                                                                                                  #                        CADR    GOMARK1R
000271:
000272:                                                                                                  #                        ...     ...             ASTRONAUT ENTER RETURN
000273:                                                                                                  #                        ...     ...             IMMEDIATE RETURN TO USER
000274:
000275:                                                                                                  #  GOMARK2 IS THE SAME AS GOMARK1 ONLY 3 RETURNS ARE MADE TO THE USER FROM THE ASTRONAUT.
000276:
000277:                                                                                                  #                        CAF     V5XNYY          X=1,2,3,4       YY=NOUN
000278:                                                                                                  #                        TC      BANKCALL
000279:                                                                                                  #                        CADR    GOMARK2
000280:                                                                                                  #                        ...     ...             TERMINATE RETURN
000281:                                                                                                  #                        ...     ...             PROCEED RETURN
000282:                                                                                                  #                        ...     ...             ENTER RETURN
000283:
000284:                                                                                                  #  GOMARK4 IS THE SAME AS GOMARK3 ONLY R2 AND R3 ARE BLANKED AND R1 IS DISPLAYED IN OCTAL.
000285:
000286:                                                                                                  #                        CAF     V5XNYY          X=1,2,3,4       YY=NOUN
000287:                                                                                                  #                        TC      BANKCALL


000289:                                                                                                  #                        CADR    GOMARK4
000290:                                                                                                  #                        ...     ...             TERMINATE RETURN
000291:                                                                                                  #                        ...     ...             PROCEED RETURN
000292:                                                                                                  #                        ...     ...             ENTER RETURN
000293:
000294:                                                                                                  #  EXDSPRET IS USED TO DISPLAY A VERB NOUN ARRIVING IN A WITH A RETURN MADE TO THE USER AFTER THE DISPLAY HAS BEEN
000295:                                                                                                  #  SENT OUT.
000296:
000297:                                                                                                  #                        CAF     VXXNYY
000298:                                                                                                  #                        TC      BANKCALL
000299:                                                                                                  #                        CADR    EXDSPRET
000300:
000301:                                                                                                  #                        ...     ...             RETURN TO USER
000302:
000303:                                                                                                  #  KLEENEX CLEANS OUT ALL MARK DISPLAYS (ACTIVE AND INACTIVE). A RETURN IS MADE TO THE USER AFTER THE MARK DISPLAYS
000304:                                                                                                  #  HAVE BEEN CLEANED OUT.
000305:
000306:                                                                                                  #                        TC      BANKCALL
000307:                                                                                                  #                        CADR    KLEENEX
000308:
000309:                                                                                                  #                        ...     ...             RETURN TO USER
000310:
000311:                                                                                                  #  MARKBRAN IS A SPECIAL PURPOSE ROUTINE USED FOR SAVING JOB VAC AREAS (SEE DESCRIPTION OF MARKBRAN BELOW).
000312:
000313:                                                                                                  #                        TC      BANKCALL
000314:                                                                                                  #                        CADR    MARKBRAN
000315:
000316:                                                                                                  #                        ...     ...             BAD RETURN IF MARK DISPLAY NOT ACTIVE
000317:
000318:                                                                                                  #                                                (GOOD RETURN TO IMMEDIATE RETURN LOC OF
000319:                                                                                                  #                                                LAST FLASHING MARK R ROUTINE)
000320:
000321:                                                                                                  #  PINBRNCH REESTABLISHES THE LAST ACTIVE FLASHING DISPLAY. IF THERE IS NO ACTIVE FLASHING DISPLAY, THE DSKY IS
000322:                                                                                                  #  BLANKED AND CONTROL IS SENT TO ENDOFJOB.
000323:
000324:                                                                                                  #                                TC      POSTJUMP
000325:                                                                                                  #                                CADR    PINBRNCH
000326:
000327:                                                                                                  #  PRIODSP IS USED AS A PRIORITY DISPLAY.  IT WILL DISPLAY A GOFLASH TYPE DISPLAY WITH THREE POSSIBLE RETURNS FROM
000328:                                                                                                  #  THE ASTRONAUT (SEE NO. 7 ABOVE).
000329:
000330:                                                                                                  #  THE MAIN PURPOSE OF PRIODSP IS TO REPLACE THE PRESENT DISPLAY WITH A DISPLAY OF HIGHER PRIORITY AND TO
000331:                                                                                                  #  PROVIDE A MEANS FOR RESTORING THE OLD DISPLAY WHEN THE PRIORITY DISPLAY
000332:                                                                                                  #  IS RESPONDED TO BY THE ASTRONAUT.
000333:
000334:                                                                                                  #  THE FORMER DISPLAY IS RESTORED BY AN AUTOMATIC BRANCH TO WAKE UP THE DISPLAY THAT WAS INTERRUPTED BY THE
000335:                                                                                                  #  PRIO DISPLAY.
000336:
000337:                                                                                                  #                        CAF     VXXNYY          VXXNYY WILL BE A FLASHING VERB NOUN
000338:                                                                                                  #                        TC      BANKCALL


000340:                                                                                                  #                        CADR    PRIODSP
000341:                                                                                                  #                        ...     ...             TERMINATE RETURN
000342:                                                                                                  #                        ...     ...             PROCEED RETURN
000343:                                                                                                  #                        ...     ...             ENTER OR RECYCLE RETURN
000344:
000345:                                                                                                  #  PRIODSPR IS THE SAME AS PRIODSP ONLY AN IMMEDIATE RETURN IS MADE TO THE USERS CALL CADR +4.
000346:
000347:                                                                                                  #                        CAF     VXXNYY          VXXNYY WILL BE A FLASHING VERB NOUN
000348:                                                                                                  #                        TC      BANKCALL
000349:                                                                                                  #                        CADR    PRIODSPR
000350:                                                                                                  #                        ...     ...             TERMINATE RETURN
000351:                                                                                                  #                        ...     ...             PROCEED RETURN
000352:                                                                                                  #                        ...     ...             ENTER OR RECYCLE RETURN
000353:
000354:                                                                                                  #                        ...     ...             IMMEDIATE RETURN
000355:
000356:                                                                                                  #  PRIOLARM DOES A V05N09 PRIODSPR.
000357:
000358:                                                                                                  #  CLEANDSP CLEANS OUT ALL NORMAL DISPLAYS (ACTIVE AND INACTIVE). A RETURN IS MADE TO THE USER AFTER NORMAL
000359:                                                                                                  #  DISPLAYS ARE CLEANED OUT.
000360:
000361:                                                                                                  #                        TC      BANKCALL
000362:                                                                                                  #                        CADR    CLEANDSP
000363:
000364:                                                                                                  #                        ...     ...             RETURN TO USER
000365:


000367:
000368:                                                                                                  #  GENERAL INFORMATION
000369:                                                                                                  #  ------- -----------
000370:
000371:                                                                                                  #  ALARM OR ABORT EXIT MODES--
000372:
000373:                                                                                                  #                PRIOBORT        TC      ABORT
000374:                                                                                                  #                                OCT     1502
000375:
000376:                                                                                                  #  PRIOBORT IS BRANCED TO WHEN (1) A NORMAL DISPLAY IS REQUESTED AND ANOTHER NORMAL DISPLAY IS ALREADY ACTIVE
000377:                                                                                                  #  (REFLASH AND REGODSP ARE EXCEPTIONS) OR (2) A PRIORITY DISPLAY IS REQUESTED WHEN ANOTHER PRIORITY DISPLAY IS
000378:                                                                                                  #  ALREADY ACTIVE (A PRIORITY WITH LINUS BIT14 IS AN EXCEPTION).
000379:
000380:                                                                                                  #  ERASABLE INITIALIZATION REQUIRED--
000381:
000382:                                                                                                  #        ACCOMPLISHED BY FRESH START-    1. FLAGWRD4 (USED EXCLUSIVELY BY DISPLAY INTERFACE ROUTINES)
000383:                                                                                                  #                                        2. NVSAVE = NORMAL VERB AND NOUN REGISTER.
000384:                                                                                                  #                                        3. EBANKTEM = NORMAL INACTIVE FLAGWORD (ALSO CONTAINS NORMALS EBANK).
000385:
000386:                                                                                                  #                                        5. R1SAVE = MARKBRAN CONTROL WORD
000387:                                                                                                  #                                        4. RESTREG = PRIORITY 30 AND SUPERBANK 3.
000388:
000389:                                                                                                  #  OUTPUT--
000390:
000391:                                                                                                  #        NVWORD = PRIO VERB AND NOUN
000392:                                                                                                  #        NVWORD +1 (MARKNV) = MARK VERB AND NOUN
000393:                                                                                                  #        NVWORD +2 (NVSAVE) = NORMAL VERB AND NOUN
000394:
000395:                                                                                                  #        DSPFLG (EBANKSAV) = PRIO FLAGWORD (INCLUDING EBANK)
000396:                                                                                                  #        DSPFLG +1 (MARKEBAN) = MARK FLAGWORD (INCLUDING EBANK)
000397:                                                                                                  #        DSPFLG +2 (EBANKTEM) = NORMAL FLAGWORD (INCLUDIG EBANK)
000398:
000399:                                                                                                  #        CADRFLSH = PRIO USERS CALL CADR +1 LOCATION
000400:                                                                                                  #        CADRFLSH +1 (MARKFLSH) = MARK USERS CALL CADR +1 LOCATION
000401:                                                                                                  #        CADRFLSH +2 (TEMPFLSH) = NORMAL USERS CALL CADR +1 LOCATION
000402:
000403:                                                                                                  #        PRIOTIME = TIME EACH PRIO REQUEST FIRST SENT OUT
000404:                                                                                                  #        OPTION1 = DESIRED OPTION FROM GOPERF4
000405:                                                                                                  #        FLAGWRD4 = BIT INFO FOR CONTROL OF ALL DISPLAY ROUTINES
000406:                                                                                                  #        DSPTEM1 = R1 INFO FOR ASTRONAUT FROM PERFORM DISPLAYS (NORMAL)
000407:
000408:                                                                                                  #  SUBROUTINES USED-- NVSUB, FLAGUP, FLAGDOWN, ENDOFJOB, BLANKSUB, ABORT, JOBWAKE, JOBSLEEP, FINDVAC, PRIOCHNG,
000409:                                                                                                  #  JAMTERM, NVSUBUSY, FLASHON, ENDIDLE, CHANG1, BANKJUMP, MAKECADR, NOVAC,
000410:
000411:                                                                                                  #  DEBRIS-- (STORED INTO)
000412:                                                                                                  #        TEMPORARY TEMPORARIES- A, Q, L, MPAC +2, MPAC +3, MPAC +4, MPAC +5, MPAC +6, RUPTREG2, RUPTREG3, CYL,
000413:                                                                                                  #                EBANK, RUPTREG4, LOC, BANKSET, MODE, MPAC, MPAC +1      4, FACEREG
000414:                                                                                                  #        ERASABES (SHARED AND USED WITH OTHER PROGRAMS) CADRSTOR, DSPLIST, LOC, DSPTEM1, OPTION1
000415:                                                                                                  #        ERASABLES (USED ONLY BY DISPLAY ROUTINES)- NVWORD,+1,+2, DSPFLG,+1,+2, CADRFLSH,+1,+2, PRIOTIME, FLAGWRD4,


000417:                                                                                                  #                R1SAVE, MARK2PAC,
000418:
000419:                                                                                                  #  DEBRIS-- (USED BUT NOT STORED INTO)- NOUNREG, VERBREG, LOCCTR, MONSAVE1
000420:
000421:                                                                                                  #  FLAGWORD DESCRIPTIONS--
000422:                                                                                                  #        FLAGWRD4- SEE DESCRIPTION UNDER LOG SECTION ERASABLE ASSIGNMENTS
000423:
000424:                                                                                                  #        DSPFLG, DSPFLG+1, DSPFLG +2-
000425:                                                                                                  #        ----------------------------
000426:                                                                                                  #        BITS 1  BLANK R1
000427:                                                                                                  #             2  BLANK R2
000428:                                                                                                  #             3  BLANK R3
000429:                                                                                                  #             4  FLASHING DISPLAY REQUESTED
000430:                                                                                                  #             5  PERFORM DISPLAY REQUESTED
000431:                                                                                                  #             6  -----                   EXDSPRET                GODSPRET
000432:                                                                                                  #             7  PRIO DISPLAY            -----                   -----
000433:                                                                                                  #             8  -----                   MARK MONITOR PERF       -----
000434:                                                                                                  #             9  EBANK
000435:                                                                                                  #            10  EBANK
000436:                                                                                                  #            11  EBANK
000437:                                                                                                  #            12  -----                   -----                   V99PASTE
000438:                                                                                                  #            13  2ND PART OF PERFORM
000439:                                                                                                  #            14  REFLASH OR REDO         -----                   REFLASH OR REDO
000440:                                                                                                  #            15  -----                   MARK REQUEST            -----
000441:
000442:                                                                                                  #  RESTARTING DISPLAYS--
000443:
000444:                                                                                                  #  RULES FOR THE DSKY OPERATOR--
000445:
000446:                                                                                                  #        1. PROCEED AND TERMINATE SERVE AS RESPONSES TO REQUESTS FOR OPERATOR RESPONSE (FLASHING V/N).  AS LONG
000447:                                                                                                  #           AS THERE IS ANY REQUEST AWAITING OPERATOR RESPONSE, ANY USE OF PROCEED OR TERMINATE WILL SERVE AS
000448:                                                                                                  #           RESPONSES TO THAT REQUEST.  CARE SHOULD BE EXERCISED IN ATTEMPTING TO KILL AN OPERATOR INITIATED MONITOR
000449:                                                                                                  #           WITH PROCEED AND TERMINATE FOR THIS REASON.
000450:                                                                                                  #        2. THE ASTRONAUT MUST RESPOND TO A PRIORITY DISPLAY NO SOONER THAN 5 SECS FROM THE TIME THE MISSION
000451:                                                                                                  #           PROGRAM SENT OUT THE REQUEST FOR OPERATOR RESPONSE (THE ASTRONAUT WOULD SEE THIS DISPLAY FOR LESS TIME
000452:                                                                                                  #           DUE TO TIME IT TAKES TO GET DISPLAY SENT OUT.)  IF THE ASTRONAUT RESPONDS TOO SOON, THE PRIORITY DISPLAY
000453:                                                                                                  #           IS SENT OUT AGAIN---AND AGAIN UNTIL AN ACCUMULATED 5 SECS FROM TIME THE FIRST PRIORITY DISPLAY WAS SENT
000454:                                                                                                  #           OUT. THE SAME 5 SEC. DELAY WILL OCCUR AT 163.84 SECS OR IN ANY MULTIPLE OF THAT TIME DUE TO PROGRAM
000455:                                                                                                  #           CONSIDERATION.
000456:                                                                                                  #        3. KEY RELEASE BUTTON-
000457:                                                                                                  #           A) IF THE KEY RELEASE LIGHT IS ON, IT SIMPLY RELEASES THE KEYBOARD AND DISPLAY FOR INTERNAL USE.
000458:                                                                                                  #           B) IF THE KEY RELEASE LIGHT IS OFF, AND IF SOME REQUEST FOR OPERATOR RESPONSE (FLASHING V/N) IS STILL
000459:                                                                                                  #              AWAITING RESPONSE THEN IT RE-ESTABLISHES THE DISPLAYS THAT ORIGINALLY REQUESTED RESPONSE.
000460:                                                                                                  #           IF AN OPERATOR WANTS THEREFORE TO RE-ESTABLISH BUT CONDITION (A) IS ENCOUNTERED, A SECOND DEPRESSION OF
000461:                                                                                                  #           KEY RELEASE BUTTON MAY BE NECESSARY.
000462:                                                                                                  #        4. IT IS IMPORTANT TO ANSWER ALL REQUESTS FOR OPERATOR RESPONSE.
000463:                                                                                                  #        5. IT IS ALWAYS GOOD PRACTICE TO TERMINATE AN EXTENDED VERB BEFORE ASKING FOR ANOTHER ONE OR THE SAME ONE
000464:                                                                                                  #           OVER AGAIN.
000465:
000466:                                                                                                  #  SPECIAL CONSIDERATIONS--


000468:                                                                                                  #        1. MPAC +2 SAVED ONLY IN MARK DISPLAYS
000469:                                                                                                  #        2. GODSP(R),REGODSP(R),GOMARK(R) ALWAYS TURN ON THE FLASH IF ENTERED WITH A PASTE VERB REQUEST.
000470:                                                                                                  #        3. ALL NORMAL DISPLAYS ARE RESTARTABLE EXCEPT GODSP(R), REGODSP(R)
000471:                                                                                                  #        4. ALL EXTENDED VERBS WITH DISPLAYS SHOULD START WITH A TC TESTXACT AND FINISH WITH A TC ENDEXT.
000472:                                                                                                  #        5. GODSP(R) AND REGODSP(R) MUST BE IN THE SAME EBANK AND SUPERBANK AS THE LAST NORMAL DISPLAY RESTARTED
000473:                                                                                                  #           BY A .1 RESTART PHASE CHANGE.
000474:                                                                                                  #        6. IN ORDER TO SET UP A NON DISPLAY .1 RESTART POINT, THE USER MUST MAKE CERTAIN THAT RESTREG CONTAINS THE
000475:                                                                                                  #           CORRECT PRIORITY AND SUPERBANK AND THAT EBANKTEM CONTAINS THE CO
000476:                                                                                                  #        7. IF CLEANDSP IS RESTARTED VIA A .1 PHASE CHANGE, CAF ZERO SHOULD BE EXECUTED BEFORE THE TC BANKCALL
000477:


000479:                                                                                                  #  CALLING SEQUENCE FOR BLANKING
000480:                                                                                                  #                CAF     BITX            X=1,2,3 BLANK R1,R2,R3 RESPECTIVELY
000481:                                                                                                  #                TC      BLANKET
000482:                                                                                                  #                ...     ...             RETURN TO USER HERE
000483:
000484:                                                                                                  #  IN ORDER TO USE BLANKET CORRECTLY THE USER MUST USE A DISPLAY ROUTINE THAT ENDS IN R FIRST FOLLOWED BY THE CALL
000485:                                                                                                  #  TO BLANKET AT THE IMMEDIATE RETURN LOC.
000486:
000487:    4000                                           SETLOC   FFTAG4
000488:    4000                                           BANK
000489:
000490:    5516                                           COUNT*   $$/DSPLA
000491:    5516           54162        BLANKET            TS       MPAC       +6
000492:    5517           40160                           CS       PLAYTEM4
000493:    5520           70162                           MASK     MPAC       +6
000494:    5521           50161                           INDEX    MPAC       +5
000495:    5522           26160                           ADS      PLAYTEM4
000496:
000497:    5523           00002                           TC       Q
000498:
000499:    5524           05527        ENDMARK            TC       CLEARMRK
000500:    5525           04655                           TC       POSTJUMP
000501:    5526           21643                           CADR     MARKOVER
000502:
000503:    5527           34772        CLEARMRK           CAF      ZERO
000504:    5530           55247                           TS       EXTVBACT
000505:
000506:    5531           44770                           CS       XDSPBIT
000507:    5532           70100                           MASK     FLAGWRD4
000508:    5533           54100                           TS       FLAGWRD4
000509:
000510:    5534           00002                           TC       Q
000511:
000512:                                                                                                  #  *** ALL EXTENDED VERB ROUTINES THAT HAVE AT LEAST ONE FLASHING DISPLAY MUST TCF ENDMARK OR TCF ENDEXT WHEN
000513:                                                                                                  #  FINISHED.
000514:
000515:    5535           56001        VNFLASH            XCH      L
000516:    5536           35545                           CAF      VNCADR
000517:    5537           15542                           TCF      VNGODSP
000518:
000519:    5540           56001        VNFLASHR           XCH      L
000520:    5541           35546                           CAF      VNRCADR
000521:    5542           24002        VNGODSP            INCR     Q                                     #  BECAUSE OF RESTARTS
000522:    5543           22155                           LXCH     PLAYTEM1
000523:    5544           14642                           TCF      SWCALL
000524:
000525:    5545           20732        VNCADR             CADR     VNFLSH
000526:    5546           20735        VNRCADR            CADR     VNFLSHR
000527:
000528: 10,2000                                           SETLOC   DISPLAYS
000529: 10,2000                                           BANK


000531:
000532: 10,2575                                           COUNT    10/DSPLA
000533:
000534:                                                                                                  #  NTERONLY IS USED TO DIFFERENTIATE THE MARK ROUTINE WITH ONLY ONE RETURN TO THE USER FROM THE MARKING ROUTINE WIT
000535:                                                                                                  #  3 RETURNS TO THE USER.  THIS ROUTINE IS ONLY USED BY GOMARK1 AND GOMARK1R.
000536:
000537: 10,2575           34772        KLEENEX            CAF      ZERO                                  #  CLEAN OUT EXTENDED VERBS
000538: 10,2576           54155        GOMARKF            TS       PLAYTEM1                              #  ENTRANCE FOR MARK GOFLASH
000539:
000540: 10,2577           37664                           CAF      MARKFMSK                              #  MARK,FLASH
000541: 10,2600           12745                           TCF      GOFLASH2
000542:
000543: 10,2601           54155        GOMARK2            TS       PLAYTEM1                              #  MARK GOPERFS-3 AST. RETURNS
000544: 10,2602           33733        MARKFORM           CAF      MPERFMSK                              #  MARK, PERFORM, FLASH
000545: 10,2603           12745                           TCF      GOFLASH2
000546:
000547: 10,2604           54155        GOMARK4            TS       PLAYTEM1
000548: 10,2605           33723                           CAF      MARK4MSK                              #  MARK,PERFORM,FLASH,BLANK
000549: 10,2606           12745                           TCF      GOFLASH2
000550:
000551: 10,2607           54155        GOMARKFR           TS       PLAYTEM1                              #  ENTRANCE FOR MARK GOFLASHR
000552:
000553: 10,2610           37664                           CAF      MARKFMSK
000554: 10,2611           13103                           TCF      GODSPRS
000555:
000556: 10,2612           54155        MARKMONR           TS       PLAYTEM1                              #  USED FOR MARK MONITOR
000557: 10,2613           33754                           CAF      MARK3MSK
000558: 10,2614           12745                           TCF      GOFLASH2
000559: 10,2615           34770        MAKEMARK           CAF      ONE
000560: 10,2616           03172                           TC       COPIES
000561:
000562: 10,2617           30100                           CA       FLAGWRD4                              #  IS NORM OR PRIO BUSY OR WAITING
000563: 10,2620           73734                           MASK     OCT34300
000564: 10,2621           10000                           CCS      A
000565: 10,2622           12670                           TCF      CHKPRIO
000566:
000567: 10,2623           30100                           CA       FLAGWRD4                              #  IS MARK SLEEPING DUE TO ASTRO BUSY
000568: 10,2624           74760                           MASK     MRKNVBIT
000569: 10,2625           00006                           EXTEND
000570: 10,2626           12630                           BZF      MARKPLAY                              #  NO
000571:
000572: 10,2627           15205                           TCF      ENDOFJOB
000573:
000574: 10,2630           44773        MARKPLAY           CS       FIVE                                  #  RESET MARK OVER NORM, SET MARK
000575: 10,2631           70100                           MASK     FLAGWRD4
000576: 10,2632           64770                           AD       XDSPBIT
000577: 10,2633           54100                           TS       FLAGWRD4
000578: 10,2634           22007        GOGOMARK           ZL                                             #  PERFORM
000579: 10,2635           41274                           CS       MARKFLAG
000580: 10,2636           74761                           MASK     DCMKPERF
000581: 10,2637           10000                           CCS      A
000582: 10,2640           12645                           TCF      +5


000584: 10,2641           30367                           CA       MARKNV
000585: 10,2642           74171                           MASK     MID7
000586: 10,2643           54001                           TS       L
000587: 10,2644           12651                           TCF      +5
000588: 10,2645           41274                           CS       MARKFLAG
000589: 10,2646           74764                           MASK     PERFRQST
000590: 10,2647           10000                           CCS      A
000591: 10,2650           12653                           TCF      MARKCOP
000592: 10,2651           40367                           CS       MARKNV
000593: 10,2652           54367                           TS       MARKNV
000594:
000595: 10,2653           34770        MARKCOP            CAF      ONE                                   #  MARK INDEX
000596: 10,2654           54164                           TS       COPINDEX
000597: 10,2655           13316                           TCF      NVDSP      +1
000598: 10,2656           30165        COPYTOGO           CA       MPAC2SAV
000599: 10,2657           54156                           TS       MPAC       +2
000600:
000601: 10,2660           50164        COPYPACS           INDEX    COPINDEX
000602: 10,2661           33740                           CAF      PRIOOCT
000603: 10,2662           54162                           TS       GENMASK
000604:
000605: 10,2663           50164                           INDEX    COPINDEX
000606: 10,2664           31273                           CAF      EBANKSAV
000607: 10,2665           54160                           TS       TEMPOR2                               #  ACTIVE EBANK AND FLAG
000608:
000609: 10,2666           54003                           TS       EBANK
000610:
000611: 10,2667           00002                           TC       Q
000612:
000613:                                                                                                  #  PINCHEK CHECKS TO SEE IF THE CURRENT MARK REQUEST IS MADE BY THE ASTRONAUT WHILE INTERRUPTING A GOPLAY DISPLAY
000614:                                                                                                  #  (A NORMAL OR A PRIO). IF THE ASTRONAUT TRIES TO MARK DURING A PRIO, THE CHECK FAIL LIGHT GOES ON AND THE MARK
000615:                                                                                                  #  REQUEST IS ENDED. IF HE TRIES TO MARK DURING A NORM, THE MARK IS ALLOWED. IN THIS CASE THE NORM IS PUT TO SLEEP
000616:                                                                                                  #  UNTIL ALL MARKING IS FINISHED.
000617:
000618:                                                                                                  #  IF THE MARK REQUEST COMES FROM THE PROGRAM DURING A TIME THE ASTRONAUT IS NOT INTERRUPTING A NORMAL OR A
000619:                                                                                                  #  PRIO, THE MARK REQUEST IS PUT TO SLEEP UNTIL THE +RESENT ACTIVE DISPLAY IS RESPONDED TO BY THE ASTRONAUT.
000620:
000621: 10,2670           30100        CHKPRIO            CA       FLAGWRD4                              #  MARK ATTEMPT DURING PRIO
000622: 10,2671           77646                           MASK     14,12,7
000623: 10,2672           10000                           CCS      A
000624: 10,2673           13676                           TCF      MARSLEEP
000625:
000626: 10,2674           34766                           CAF      MKOVBIT                               #  SET MARK OVER NORM
000627: 10,2675           03755                           TC       UPENT2
000628:
000629: 10,2676           13000                           TCF      SETNORM
000630:
000631: 10,2677           30367        MARKPERF           CA       MARKNV
000632: 10,2700           74171                           MASK     VERBMASK
000633: 10,2701           13350                           TCF      NV50DSP
000634:


000636: 10,2702           54155        GODSP              TS       PLAYTEM1
000637:
000638: 10,2703           34772        GODSP2             CAF      DSPONLY
000639: 10,2704           12745                           TCF      GOFLASH2
000640:
000641: 10,2705           54155        GODSPRET           TS       PLAYTEM1                              #  ENTRANCE FOR A GODSP WITH A PASTE
000642:
000643: 10,2706           34763                           CAF      RETDSPY                               #  SET BIT6 TO RETURN TO USER AFTER NVSUB
000644: 10,2707           12745                           TCF      GOFLASH2
000645:
000646: 10,2710           54155        GODSPR             TS       PLAYTEM1
000647:
000648: 10,2711           34772        GODSPR1            CAF      DSPONLY
000649: 10,2712           54160        GODSPR2            TS       PLAYTEM4
000650:
000651: 10,2713           34772                           CAF      ZERO                                  #  * DONT MOVE
000652: 10,2714           13105                           TCF      GODSPRS1
000653:
000654:                                                                                                  #  CLEANDSP IS USED FOR CLEARING OUT A NORMAL DISPLAY THAT IS PRESENTLY ACTIVE OR A NORMAL DISPLAY THAT IS
000655:                                                                                                  #  SET UP TO BE STARTED OR RESTARTED.
000656:
000657:                                                                                                  #  NORMALLY THE USER WILL NOT NEED TO USE THIS ROUTINE SINCE A NEW NORMAL DISPLAY AUTOMATICALLY CLEARS OUT AN
000658:                                                                                                  #  OLD DISPLAY.
000659:
000660:                                                                                                  #  CALLING SEQUENCE FOR CLEANDSP-
000661:
000662:                                                                                                  #                TC      BANKCALL
000663:                                                                                                  #                CADR    CLEANDSP
000664:
000665: 10,2715           34772        CLEANDSP           CAF      ZERO
000666: 10,2716           54155        REFLASH            TS       PLAYTEM1
000667:
000668: 10,2717           33722                           CAF      REDOMASK                              #  FLASH AND PERMIT
000669: 10,2720           12745                           TCF      GOFLASH2
000670:
000671: 10,2721           54155        REGODSP            TS       PLAYTEM1
000672:
000673: 10,2722           34753                           CAF      REFLSH
000674: 10,2723           12745                           TCF      GOFLASH2
000675:
000676: 10,2724           54155        REGODSPR           TS       PLAYTEM1
000677:
000678: 10,2725           34753                           CAF      REFLSH
000679: 10,2726           12712                           TCF      GODSPR2
000680:
000681: 10,2727           54155        CLOCPLAY           TS       PLAYTEM1
000682: 10,2730           33750                           CAF      CLOCKCON
000683: 10,2731           12745                           TCF      GOFLASH2
000684: 10,2732           05547        VNFLSH             TC       UPFLAG
000685: 10,2733           00111                           ADRES    VNFLAG


000687: 10,2734           12744                           TCF      GOFLASH    +1
000688:
000689: 10,2735           05547        VNFLSHR            TC       UPFLAG
000690: 10,2736           00111                           ADRES    VNFLAG
000691: 10,2737           34765                           CAF      FLSHRQST
000692: 10,2740           54160                           TS       PLAYTEM4                              #  IT'S A FLASHING DISPLAY
000693: 10,2741           34772                           CAF      ZERO                                  #  RETURN TO CALLER'S Q +1
000694: 10,2742           13105                           TCF      GODSPRS1
000695:
000696: 10,2743           54155        GOFLASH            TS       PLAYTEM1
000697:
000698: 10,2744           34765                 +1        CAF      FLSHRQST                              #  LEAVE ONLY FLASH BIT SET
000699: 10,2745           54160        GOFLASH2           TS       PLAYTEM4
000700:
000701: 10,2746           03157                           TC       SAVELOCS
000702:
000703: 10,2747           13012                           TCF      MAKEPLAY                              #  BRANCH DIRECT WITH NO SEPARATE JOB CALL
000704:
000705: 10,2750           54155        PRIODSPR           TS       PLAYTEM1
000706:
000707: 10,2751           35013                           CAF      BITS7+4
000708: 10,2752           13103                           TCF      GODSPRS
000709:
000710: 10,2753           54155        PRIODSP            TS       PLAYTEM1
000711:
000712: 10,2754           35013        SETPRIO            CAF      BITS7+4
000713: 10,2755           12745                           TCF      GOFLASH2
000714:
000715: 10,2756           34772        MAKEPRIO           CAF      ZERO
000716: 10,2757           54164                           TS       COPINDEX
000717:
000718: 10,2760           03623                           TC       LINUSCHR
000719: 10,2761           12766                           TCF      HIPRIO                                #  LINUS RETURN
000720: 10,2762           30100                           CA       FLAGWRD4
000721: 10,2763           73747                           MASK     BIT14+7                               #  IS PRIO IN ENDIDLE OR BUSY
000722: 10,2764           10000                           CCS      A
000723: 10,2765           13041                           TCF      PRIOBORT                              #  YES, ABORT
000724:
000725: 10,2766           30100        HIPRIO             CA       FLAGWRD4                              #  MARK ACTIVE
000726: 10,2767           77716                           MASK     BIT15+9
000727: 10,2770           00006                           EXTEND
000728: 10,2771           12774                           BZF      ASKIFNRM                              #  NO
000729:
000730: 10,2772           34772        SETMARK            CAF      ZERO
000731: 10,2773           13226                           TCF      JOBXCHS
000732:
000733: 10,2774           30100        ASKIFNRM           CA       FLAGWRD4                              #  NORMAL ACTIVE
000734: 10,2775           73745                           MASK     BIT13+8
000735: 10,2776           00006                           EXTEND
000736: 10,2777           13002                           BZF      OKTOCOPY                              #  NO


000738:
000739: 10,3000           34770        SETNORM            CAF      ONE
000740: 10,3001           13226                           TCF      JOBXCHS
000741:
000742: 10,3002           03171        OKTOCOPY           TC       COPYNORM
000743: 10,3003           03431                           TC       WITCHONE
000744:
000745: 10,3004           05167                           TC       JOBWAKE
000746:
000747: 10,3005           03445                           TC       XCHTOEND
000748:
000749: 10,3006           30025        REDOPRIO           CA       TIME1                                 #  SAVE TIME PRIODSP SENT OUT
000750: 10,3007           55005                           TS       PRIOTIME
000751:
000752: 10,3010           34772        KEEPPRIO           CAF      ZERO                                  #  START UP PRIO DISPLAY
000753: 10,3011           13062                           TCF      PRIOPLAY
000754:
000755: 10,3012           30167        MAKEPLAY           CA       PRIORITY                              #  SAVE USERS PRIORITY
000756: 10,3013           77660                           MASK     PRIO37
000757: 10,3014           54163                           TS       USERPRIO
000758:
000759: 10,3015           37655                           CAF      PRIO33                                #  RAISE PRIORITY FOR FAST JOBS AFTER WAKE
000760: 10,3016           05176                           TC       PRIOCHNG
000761:
000762: 10,3017           30160                           CA       PLAYTEM4                              #  IS IT MARK OR PRIO OR NORM
000763: 10,3020           73735                           MASK     BITS15+7
000764: 10,3021           10000                           CCS      A
000765: 10,3022           12756                           TCF      MAKEPRIO                              #  ITS PRIO
000766: 10,3023           13025                           TCF      IFLEGAL
000767: 10,3024           12615                           TCF      MAKEMARK                              #  ITS MARK
000768:
000769: 10,3025           34767        IFLEGAL            CAF      TWO
000770: 10,3026           54164                           TS       COPINDEX
000771:
000772: 10,3027           03623                           TC       LINUSCHR
000773:
000774: 10,3030           13043                           TCF      OKTOPLAY                              #  LINUS RETURN
000775: 10,3031           41275                           CS       EBANKTEM
000776: 10,3032           74765                           MASK     FLSHRQST
000777: 10,3033           10000                           CCS      A
000778: 10,3034           13043                           TCF      OKTOPLAY                              #  NO
000779:
000780: 10,3035           30100                           CA       FLAGWRD4                              #  WAS NORM ASLEEP
000781: 10,3036           73727                           MASK     NBUSMASK                              #  ARE ANY NORMS ASLEEP
000782: 10,3037           00006                           EXTEND
000783: 10,3040           13043                           BZF      OKTOPLAY                              #  NO
000784:
000785: 10,3041           05726        PRIOBORT           TC       POODOO
000786: 10,3042           21502                           OCT      21502                                 #  ILLEGAL FLASHING DISPLAY
000787:
000788: 10,3043           03173        OKTOPLAY           TC       COPIES2


000790: 10,3044           30163                           CA       USERPRIO
000791: 10,3045           00006                           EXTEND
000792: 10,3046           04007                           ROR      SUPERBNK
000793: 10,3047           54365                           TS       RESTREG
000794:
000795: 10,3050           30100                           CA       FLAGWRD4                              #  PRIO OR MARK GOING
000796: 10,3051           73730                           MASK     PMMASK
000797: 10,3052           10000                           CCS      A
000798: 10,3053           13210                           TCF      GOSLEEPS                              #  YES
000799:
000800: 10,3054           13056                           TCF      +2
000801: 10,3055           13210                           TCF      GOSLEEPS                              #  MARK GOING
000802:
000803:                                                                                                  #  COULD PUT NORM BUSY CHECK HERE TO SAVE TIME
000804:
000805: 10,3056           03431                           TC       WITCHONE                              #  IS IT NVSUB BUSY, ENDIDLE OR NOONE
000806: 10,3057           05167                           TC       JOBWAKE
000807:
000808: 10,3060           03445                           TC       XCHTOEND
000809:
000810: 10,3061           34767        PLAYJUM1           CAF      TWO
000811: 10,3062           54164        PRIOPLAY           TS       COPINDEX
000812:
000813: 10,3063           13315                           TCF      GOPLAY
000814:
000815: 10,3064           54155        EXDSPRET           TS       PLAYTEM1
000816:
000817: 10,3065           37667                           CAF      BIT15+6
000818: 10,3066           12745                           TCF      GOFLASH2
000819:
000820: 10,3067           55250        GOPERF1            TS       NORMTEM1                              #  STORE DESIRED CHECKLIST VALUE
000821: 10,3070           33720                           CAF      V01N25                                #  USED TO DISPLAY CHECKLIST VALUE IN R1
000822:
000823: 10,3071           54155        GOPERFS            TS       PLAYTEM1
000824:
000825: 10,3072           33717                           CAF      PERFMASK                              #  LEAVE ONLY FLASH, PERFORM, BLANKING
000826: 10,3073           12745                           TCF      GOFLASH2
000827:
000828: 10,3074           54775        GOPERF4            TS       OPTION1                               #  DESIRED OPTION CODE
000829:
000830: 10,3075           34537                           CAF      V04N06
000831: 10,3076           54155                           TS       PLAYTEM1
000832:
000833: 10,3077           35775                           CAF      PERF4MSK                              #  FLASH, PERFORM, AND BLANK R3
000834: 10,3100           12745                           TCF      GOFLASH2
000835:
000836: 10,3101           54155        GOFLASHR           TS       PLAYTEM1
000837:
000838: 10,3102           34765                           CAF      FLSHRQST                              #  LEAVE ONLY FLASH BIT SET
000839: 10,3103           54160        GODSPRS            TS       PLAYTEM4


000841: 10,3104           36214                           CAF      THREE
000842:
000843: 10,3105           00004        GODSPRS1           INHINT                                         #  IMMEDIATE RETURN IS CALL CADR +4
000844: 10,3106           54072                           TS       RUPTREG3
000845:
000846: 10,3107           30167                           CA       PRIORITY                              #  MAKE DISPLAY ONE HIGHER THAN USER
000847: 10,3110           77660                           MASK     PRIO37
000848: 10,3111           54063                           TS       NEWPRIO
000849:
000850: 10,3112           30160                           CA       PLAYTEM4                              #  IS THIS A FLASHING R DISPLAY
000851: 10,3113           74765                           MASK     FLSHRQST
000852: 10,3114           10000                           CCS      A
000853: 10,3115           13123                           TCF      VACDSP                                #  YES, MAKE DSPLAY JOB A VAC
000854: 10,3116           30063                           CA       NEWPRIO                               #  NO, MAKE DSPLAY JOB A NOVAC
000855: 10,3117           05121                           TC       NOVAC
000856: 10,3120  0003777                                  EBANK=   WHOCARES
000857: 10,3120           03012 20067                     2CADR    MAKEPLAY
000858:
000859: 10,3122           13131                           TCF      BOTHJOBS
000860:
000861: 10,3123           30006        VACDSP             CA       BBANK
000862: 10,3124           00006                           EXTEND
000863: 10,3125           04007                           ROR      SUPERBNK
000864: 10,3126           54001                           TS       L
000865: 10,3127           33744                           CAF      MAKEGEN
000866: 10,3130           05146                           TC       SPVAC
000867:
000868: 10,3131           03157        BOTHJOBS           TC       SAVELOCS                              #  COPY TEMPS INTO PERMANENT REGISTERS
000869:
000870: 10,3132           00006                           EXTEND                                         #  SAVE NVWORD AND USERS MPAC +2
000871: 10,3133           30156                           DCA      MPAC       +1
000872: 10,3134           50064                           INDEX    LOCCTR
000873: 10,3135           52156                           DXCH     MPAC       +1
000874:
000875: 10,3136           00006                           EXTEND                                         #  SAVE USERS CADR, FLAGS AND EBANK
000876: 10,3137           30160                           DCA      MPAC       +3
000877: 10,3140           50064                           INDEX    LOCCTR
000878: 10,3141           52160                           DXCH     MPAC       +3
000879:
000880: 10,3142           30064                           CA       LOCCTR
000881: 10,3143           54161                           TS       MPAC       +5
000882:
000883: 10,3144           03164                           TC       SAVELOCR
000884: 10,3145           00003                           RELINT
000885:
000886: 10,3146           14660                           TCF      BANKJUMP                              #  CALL CADR +4
000887:
000888: 10,3147           55250        GOPERF1R           TS       NORMTEM1                              #  DESIRED CHECKLIST VALUE
000889:
000890: 10,3150           33720                           CAF      V01N25                                #  DISPLAYS CHECKLIST VALUE IN R1
000891:


000893:
000894: 10,3151           54155        GOPERFRS           TS       PLAYTEM1
000895:
000896: 10,3152           33717                           CAF      PERFMASK                              #  LEAVE ONLY FLASH, PERFORM, BLANKING
000897: 10,3153           13103                           TCF      GODSPRS
000898:
000899: 10,3154           54155        GOPERF2R           TS       PLAYTEM1                              #  DESIRED VERB-NOUN TO DISPLAY R1,R2,R3
000900:
000901: 10,3155           35001                           CAF      PERF2MSK
000902: 10,3156           13103                           TCF      GODSPRS
000903:
000904: 10,3157           00004        SAVELOCS           INHINT
000905:
000906: 10,3160           45046                           CS       EBANK7                                #  GETS ALL EBANK BITS OFF
000907: 10,3161           70160                           MASK     PLAYTEM4
000908: 10,3162           60003                           AD       EBANK
000909: 10,3163           54160                           TS       PLAYTEM4
000910:
000911: 10,3164           22002        SAVELOCR           LXCH     Q
000912:
000913: 10,3165           04665                           TC       MAKECADR
000914: 10,3166           54157                           TS       PLAYTEM3
000915:
000916: 10,3167           60072                           AD       RUPTREG3                              #  NOT USED FOR NON R ROUTINES
000917: 10,3170           00001                           TC       L
000918:
000919: 10,3171           34772        COPYNORM           CAF      ZERO
000920: 10,3172           54164        COPIES             TS       COPINDEX
000921: 10,3173           30160        COPIES2            CA       PLAYTEM4                              #  FLAGWORD
000922: 10,3174           50164                           INDEX    COPINDEX
000923: 10,3175           55273                           TS       EBANKSAV                              #  EQUIV TO DSPFLG
000924:
000925: 10,3176           75004                           MASK     CADRMASK                              #  FLASH AND GODSPRET
000926: 10,3177           00006                           EXTEND
000927: 10,3200           13204                           BZF      SKIPADD
000928:
000929: 10,3201           30157                           CA       PLAYTEM3
000930: 10,3202           50164                           INDEX    COPINDEX
000931: 10,3203           54371                           TS       CADRFLSH
000932:
000933: 10,3204           30155        SKIPADD            CA       PLAYTEM1                              #  VERB NOUN
000934: 10,3205           50164                           INDEX    COPINDEX
000935: 10,3206           54366                           TS       NVWORD
000936:
000937: 10,3207           13454                           TCF      RELINTQ
000938:
000939: 10,3210           50164        GOSLEEPS           INDEX    COPINDEX
000940: 10,3211           33740                           CA       PRIOOCT
000941: 10,3212           75045                           MASK     WAITMASK
000942: 10,3213           03755                           TC       UPENT2
000943: 10,3214           44770                           CS       ONE


000945: 10,3215           60164                           AD       COPINDEX
000946: 10,3216           54154                           TS       FACEREG
000947:
000948: 10,3217           50154        XCHSLEEP           INDEX    FACEREG
000949: 10,3220           33725                           CAF      WAKECADR
000950: 10,3221           05167                           TC       JOBWAKE                               #  FIND CADR IN JOB AREA
000951:
000952: 10,3222           03445                           TC       XCHTOEND                              #  CAUSES AWAKENED JOB TO GO TO ENDOFJOB
000953:
000954: 10,3223           50154                           INDEX    FACEREG                               #  REPLACE SAME CADR BUT NEW JOB AREA
000955: 10,3224           33725                           CAF      WAKECADR
000956: 10,3225           15163                           TCF      JOBSLEEP
000957:
000958: 10,3226           54154        JOBXCHS            TS       FACEREG                               #  CONTROLS TYPE OF DISPLAY PUT TO SLEEP
000959: 10,3227           03431                           TC       WITCHONE
000960: 10,3230           05167                           TC       JOBWAKE
000961: 10,3231           30154                           CA       FACEREG
000962: 10,3232           50064                           INDEX    LOCCTR
000963: 10,3233           54154                           TS       FACEREG
000964:
000965: 10,3234           33752                           CAF      XCHQADD
000966: 10,3235           03446                           TC       XCHNYLOC
000967:
000968: 10,3236           50154                           INDEX    FACEREG
000969: 10,3237           33741                           CA       MARKOCT
000970: 10,3240           73743                           MASK     IDLESLEP
000971: 10,3241           03762                           TC       DOWNENT2
000972: 10,3242           50154                           INDEX    FACEREG                               #  BIT SHOWS PRIO INTERRUPTED NORM OR MARK
000973: 10,3243           34764                           CA       MRUPTBIT                              #  BIT5 FOR MARK, BIT4 FOR NORMAL
000974: 10,3244           03755                           TC       UPENT2
000975: 10,3245           30100                           CA       FLAGWRD4
000976: 10,3246           74766                           MASK     MKOVBIT                               #  IF BIT 3 THEN MARK OVER NORM
000977: 10,3247           10000                           CCS      A
000978: 10,3250           02630        GENMARK            TC       MARKPLAY                              #  USED AS GENADR FOR JOBWAKE
000979: 10,3251           13002                           TCF      OKTOCOPY
000980:
000981: 10,3252           34772        MARKWAKE           CAF      ZERO
000982: 10,3253           54160        WAKEPLAY           TS       TEMPOR2
000983:
000984: 10,3254           50160                           INDEX    TEMPOR2
000985: 10,3255           33736                           CA       BITS5+11
000986: 10,3256           03762                           TC       DOWNENT2
000987: 10,3257           50160                           INDEX    TEMPOR2
000988: 10,3260           33725                           CAF      WAKECADR
000989: 10,3261           05167                           TC       JOBWAKE
000990:
000991: 10,3262           13555                           TCF      ENDRET
000992:
000993:                                                                                                  #  ALL .1 RESTARTS BRANCH DIRECTLY TO INITDSP. NORMAL DISPLAYS ARE THE ONLY DISPLAYS ALLOWED TO USE .1 RESTARTS
000994:                                                                                                  #  INITDSP FIRST RESTORES THE EBANK AND THE SUPERBANK TO THE MOST RECENT NORMAL EBANK AND SUPERBANK.


000996:                                                                                                  #  IF THE MOST RECENT NORMAL DISPLAY REQUEST WAS NOT FINISHED, CONTROL IS SENT BACK TO THE LAST NORMAL USER.
000997:                                                                                                  #  OTHERWISE THE NORMAL DISPLAY SET UP IN THE NORMAL DISPLAY REGS IS STARTED UP IMMEDIATELY.
000998:
000999: 10,3263           31275        INITDSP            CA       EBANKTEM                              #  RESTORE MOST RECECT NORMAL EBANK
001000: 10,3264           54003                           TS       EBANK
001001:
001002: 10,3265           30365                           CA       RESTREG                               #  SUPERBANK AND JOB PRIORITY
001003: 10,3266           00006                           EXTEND                                         #  RESTORE SUPERBANK
001004: 10,3267           01007                           WRITE    SUPERBNK                              #  CHAN 07
001005: 10,3270           77660                           MASK     PRIO37
001006: 10,3271           05176                           TC       PRIOCHNG
001007:
001008: 10,3272           46214                           CS       THREE
001009: 10,3273           60373                           AD       TEMPFLSH
001010: 10,3274           14660                           TCF      BANKJUMP
001011:
001012: 10,3275           00003        PINBRNCH           RELINT                                         #  FOR GOPIN USERS
001013: 10,3276           31276                           CA       MARK2PAC                              #  NEEDED TO SAVE MPAC +2 FOR MARK USERS
001014: 10,3277           54156                           TS       MPAC       +2                         #  ONLY
001015:
001016: 10,3300           30100                           CA       FLAGWRD4                              #  PINBRANCH CONDITION
001017: 10,3301           77673                           MASK     PINMASK
001018: 10,3302           10000                           CCS      A
001019: 10,3303           13306                           TCF      +3
001020: 10,3304           13713                           TCF      ERASER                                #  ** NOTHING IN ENDIDLE
001021: 10,3305           12630                           TCF      MARKPLAY
001022:
001023: 10,3306           05547        NORMBNCH           TC       UPFLAG                                #  SET PINBRANCH BIT
001024: 10,3307           00105                           ADRES    PINBRFLG
001025:
001026: 10,3310           34753                           CAF      PRIODBIT                              #  PRIO INTERRUPTED
001027: 10,3311           70100                           MASK     FLAGWRD4
001028: 10,3312           10000                           CCS      A
001029: 10,3313           13010                           TCF      KEEPPRIO
001030:
001031: 10,3314           13061                           TCF      PLAYJUM1
001032:
001033: 10,3315           22007        NVDSP              ZL
001034: 10,3316           02660                           TC       COPYPACS
001035: 10,3317           30160                           CA       TEMPOR2                               #  SET UP BLANK BITS FOR NVMONOPT IN CASE
001036: 10,3320           74774                           MASK     SEVEN                                 #  USER REQUESTS BLANKING MONITOR
001037: 10,3321           26001                           ADS      L
001038: 10,3322           44754                           CS       2NDPERF
001039: 10,3323           50164                           INDEX    COPINDEX
001040: 10,3324           71273                           MASK     DSPFLG
001041: 10,3325           50164                           INDEX    COPINDEX
001042: 10,3326           55273                           TS       DSPFLG
001043:
001044: 10,3327           74761                           MASK     DCMKPERF
001045: 10,3330           10000                           CCS      A


001047: 10,3331           35044                           CA       OCT2600
001048: 10,3332           54141                           TS       TEM1
001049:
001050: 10,3333           30156                           CA       MPAC       +2
001051: 10,3334           54165                           TS       MPAC2SAV
001052:
001053: 10,3335           55276                           TS       MARK2PAC                              #  * FOR DISK ONLY *
001054: 10,3336           50164                           INDEX    COPINDEX
001055: 10,3337           10366                           CCS      NVWORD
001056: 10,3340           13347                           TCF      NVDSP1
001057: 10,3341           13455                           TCF      CLEANEND
001058: 10,3342           40367                           CS       MARKNV
001059: 10,3343           54367                           TS       MARKNV                                #  IN CASE MARKPLAY AWAKENED AFTER SLEEPING
001060: 10,3344           76043                           MASK     LOW7
001061: 10,3345           63731                           AD       V05N00M1
001062: 10,3346           60141                           AD       TEM1
001063: 10,3347           64770        NVDSP1             AD       ONE
001064: 10,3350           04203        NV50DSP            TC       NVMONOPT
001065: 10,3351           13467                           TCF      REST                                  #  IF BUSY
001066: 10,3352           04417                           TC       FLASHOFF                              #  IN CASE OF EXTENDED VERB NON FLASH
001067:
001068: 10,3353           02656                           TC       COPYTOGO                              #  MPACS DESTROYED BY NVSUB
001069: 10,3354           33732                           CAF      OCT700
001070: 10,3355           03762                           TC       DOWNENT2
001071:
001072: 10,3356           30160        BLANKCHK           CA       TEMPOR2                               #  BLANK BITS 1,2,3 IF SET
001073: 10,3357           04264                           TC       BLANKSUB
001074: 10,3360           13315                           TCF      NVDSP
001075: 10,3361           34764        PERFCHEK           CAF      PERFRQST                              #  BIT5 FOR PERFORM
001076: 10,3362           70160                           MASK     TEMPOR2
001077: 10,3363           10000                           CCS      A                                     #  IS THIS A GOPERF DISPLAY
001078: 10,3364           13407                           TCF      1STOR2ND                              #  YES
001079:
001080: 10,3365           34765        GOANIDLE           CAF      FLSHRQST
001081: 10,3366           70160                           MASK     TEMPOR2
001082: 10,3367           10000                           CCS      A
001083: 10,3370           13504                           TCF      FLASHSUB                              #  IT IS
001084:
001085: 10,3371           40160                           CS       TEMPOR2                               #  IS THIS A GODSPRET
001086: 10,3372           74763                           MASK     RETDSPY
001087: 10,3373           10000                           CCS      A
001088: 10,3374           13401                           TCF      ISITN00
001089:
001090: 10,3375           50164                           INDEX    COPINDEX
001091: 10,3376           30371                           CA       CADRFLSH
001092: 10,3377           54157                           TS       MPAC       +3
001093: 10,3400           13602                           TCF      ENDIT
001094:
001095: 10,3401           50164        ISITN00            INDEX    COPINDEX                              #  IS THIS A PASTE
001096: 10,3402           30366                           CA       NVWORD


001098: 10,3403           76043                           MASK     LOW7                                  #  CHECK MADE FOR PINBRNCH AND PRIO ON MARK
001099: 10,3404           00006                           EXTEND
001100: 10,3405           13504                           BZF      FLASHSUB                              #  YES, ASSUME PASTE ALWAYS ON FLASH
001101:
001102: 10,3406           15205                           TCF      ENDOFJOB                              #  NOT FLASH, NOT GOPERF, THERFORE EXIT
001103:
001104: 10,3407           30160        1STOR2ND           CA       TEMPOR2
001105: 10,3410           74754                           MASK     2NDPERF
001106: 10,3411           10000                           CCS      A
001107: 10,3412           13365                           TCF      GOANIDLE                              #  SECOND
001108:
001109: 10,3413           34754                           CA       2NDPERF
001110: 10,3414           50164                           INDEX    COPINDEX
001111: 10,3415           27273                           ADS      DSPFLG
001112:
001113: 10,3416           22007                           ZL
001114: 10,3417           00006                           EXTEND                                         #  IS IT MARK
001115: 10,3420           62677                           BZMF     MARKPERF                              #  YES
001116:
001117: 10,3421           74755                           MASK     V99PSTE
001118: 10,3422           00006                           EXTEND
001119: 10,3423           13427                           BZF      V50PASTE
001120: 10,3424           40777                           CS       NVWORD1                               #  NVOWRD1= -0 IS V97.  NVWORD1= -400 IS V99
001121: 10,3425           63746                           AD       V97N00
001122: 10,3426           13350                           TCF      NV50DSP
001123: 10,3427           33721        V50PASTE           CAF      V50N00
001124: 10,3430           13350                           TCF      NV50DSP                               #  DISPLAY SECOND PART OF GOPERF
001125:
001126: 10,3431           44764        WITCHONE           CS       BIT5                                  #  TURN OFF KEY RELEASE LIGHT
001127: 10,3432           00006                           EXTEND
001128: 10,3433           03011                           WAND     DSALMOUT
001129:
001130: 10,3434           30100                           CA       FLAGWRD4
001131: 10,3435           73732                           MASK     NVBUSMSK                              #  IS IT NVSUB ASLEEP
001132: 10,3436           10000                           CCS      A
001133: 10,3437           34770                           CAF      ONE
001134: 10,3440           54001                           TS       L
001135: 10,3441           34772                           CAF      ZERO
001136: 10,3442           50001                           INDEX    L
001137: 10,3443           57245                           XCH      CADRSTOR
001138:
001139: 10,3444           00002                           TC       Q
001140:
001141: 10,3445           34170        XCHTOEND           CAF      ENDINST                               #  TC ENDOFJOB REPLACES GENADR IN LOC FOR
001142: 10,3446           56064        XCHNYLOC           XCH      LOCCTR                                #  WAS THIS ADDRESS SLEEPING
001143: 10,3447           00006                           EXTEND
001144: 10,3450           63454                           BZMF     RELINTQ                               #  NO
001145: 10,3451           56064                           XCH      LOCCTR                                #  YES
001146: 10,3452           50064                           INDEX    LOCCTR
001147: 10,3453           54164                           TS       LOC
001148:


001150:
001151: 10,3454           15642        RELINTQ            TCF      REQ                                   #  BACK TO USER
001152: 10,3455           37654        CLEANEND           CAF      PRIO32                                #  ONE LOWER THAN DISPLAYS SLEEPING
001153: 10,3456           05135                           TC       FINDVAC
001154: 10,3457     0370                                  EBANK=   NVSAVE
001155: 10,3457           04247 04060                     2CADR    JAMTERM
001156:
001157: 10,3461           13505                           TCF      FLASHSUB   +1
001158:
001159: 10,3462           30100        ISITPRIO           CA       FLAGWRD4
001160: 10,3463           77667                           MASK     ITISMASK                              #  IS PINBRFLG, MARKIDFLG SET
001161: 10,3464           00006                           EXTEND
001162: 10,3465           13041                           BZF      PRIOBORT
001163: 10,3466           15205                           TCF      ENDOFJOB
001164:
001165: 10,3467           11245        REST               CCS      CADRSTOR                              #  IS SOMEONE IN ENDIDLE
001166: 10,3470           15205                           TCF      ENDOFJOB                              #  YES
001167: 10,3471           13473                           TCF      RESTSLEP
001168:
001169: 10,3472           15205                           TCF      ENDOFJOB
001170:
001171: 10,3473           30162        RESTSLEP           CA       GENMASK                               #  SET NVSLEEP BITS
001172: 10,3474           73732                           MASK     NVBUSMSK
001173: 10,3475           03755                           TC       UPENT2
001174: 10,3476           04240        NVSUBUSY           TC       ISCADR+0
001175: 10,3477           04356                           TC       RELDSPON
001176: 10,3500           50164                           INDEX    COPINDEX
001177: 10,3501           33724                           CAF      NVCADR
001178: 10,3502           55246                           TS       DSPLIST
001179: 10,3503           05163                           TC       JOBSLEEP
001180: 10,3504           04360        FLASHSUB           TC       FLASHON
001181:
001182: 10,3505           30164                 +1        CA       COPINDEX                              #  COPINDEX DESTROYED BY ENDIDLE
001183: 10,3506           54157                           TS       COPMPAC
001184:
001185: 10,3507           30162                           CA       GENMASK
001186: 10,3510           77675                           MASK     IDLEMASK
001187: 10,3511           03755                           TC       UPENT2
001188: 10,3512           11245                           CCS      CADRSTOR                              #  SEE IF SOMEONE ALREADY IN ENDIDLE
001189: 10,3513           13462                           TCF      ISITPRIO
001190: 10,3514           13516                           TCF      +2
001191: 10,3515           13462                           TCF      ISITPRIO
001192:
001193: 10,3516           04240        ENDIDLE            TC       ISCADR+0
001194: 10,3517           33557                           CA       ENDIDRET
001195: 10,3520           55245                           TS       CADRSTOR
001196: 10,3521           05163                           TC       JOBSLEEP
001197: 10,3522           44354        IDLERET1           CS       LOWLOAD
001198: 10,3523           60154                           AD       MPAC                                  #  VERBREG
001199: 10,3524           00006                           EXTEND


001201: 10,3525           26000                           DIM      A
001202: 10,3526           00006                           EXTEND
001203: 10,3527           13703                           BZF      LOADITIS                              #  V21 OR V22 OR V23 ON DSKY
001204: 10,3530           30100        OKTOENT            CA       FLAGWRD4                              #  CHECK NATURE OF ENDIDLE RETURN
001205: 10,3531           74076                           MASK     BIT15/14
001206: 10,3532           10000                           CCS      A
001207: 10,3533           13536                           TCF      TIMECHEK                              #  PRIO ENDIDLE RETURN
001208: 10,3534           13651                           TCF      NORMRET                               #  NORMAL ENDIDLE RETURN
001209: 10,3535           13640                           TCF      MARKRET                               #  MARK ENDIDLE RETURN
001210:
001211: 10,3536           30366        TIMECHEK           CA       NVWORD
001212: 10,3537           00006                           EXTEND
001213: 10,3540           13651                           BZF      NORMRET
001214:
001215: 10,3541           40025                           CS       TIME1
001216: 10,3542           61005                           AD       PRIOTIME
001217: 10,3543           10000                           CCS      A
001218: 10,3544           40000                           COM
001219: 10,3545           67663                           AD       OCT37776
001220: 10,3546           64770                           AD       ONE
001221: 10,3547           63774                           AD       -2SEC
001222: 10,3550           00006                           EXTEND
001223: 10,3551           63010                           BZMF     KEEPPRIO
001224:
001225: 10,3552           13651                           TCF      NORMRET
001226:
001227: 10,3553           34770        NORMWAKE           CAF      ONE
001228: 10,3554           13253                           TCF      WAKEPLAY
001229:
001230:
001231: 10,3555           11217        ENDRET             CCS      LOADSTAT                              #  -0=V32 OR E, -1=V33 OR PRO, -2=V34
001232: 10,3556           15205                           TCF      ENDOFJOB                              #  +1=ENDMARK
001233: 10,3557           21522        ENDIDRET           CADR     IDLERET1                              #  CANNOT GET HERE
001234: 10,3560           13561                           TCF      +1
001235: 10,3561           30100                           CA       FLAGWRD4                              #  IS IT A VNFLASH
001236: 10,3562           74767                           MASK     VNBIT                                 #     (BIT2)
001237: 10,3563           60157                           AD       COPMPAC                               #    AND A NORMAL DISPLAY
001238: 10,3564           66061                           AD       NEG4
001239: 10,3565           00006                           EXTEND
001240: 10,3566           13607                           BZF      VNRET
001241: 10,3567           31217                           CA       LOADSTAT
001242: 10,3570           64767                           AD       TWO
001243: 10,3571           50157        ENDRET1            INDEX    COPMPAC
001244: 10,3572           60371                           AD       CADRFLSH
001245: 10,3573           54157        ENDRET2            TS       MPAC       +3
001246:
001247: 10,3574           30162                           CA       GENMASK                               #  REMOVE ENDIDLE AND PINBRANCH BITS
001248: 10,3575           73751                           MASK     PINIDMSK
001249: 10,3576           03762                           TC       DOWNENT2
001250: 10,3577           46214                           CS       THREE                                 #  BLANK EVERYTHING EXCEPT MM
001251: 10,3600           04202                           TC       NVSUB


001253: 10,3601           13602                           TCF      +1
001254:
001255: 10,3602           30163        ENDIT              CA       USERPRIO                              #  RETURN TO USERS PRIORITY
001256: 10,3603           77660                           MASK     PRIO37
001257: 10,3604           05176                           TC       PRIOCHNG
001258: 10,3605           30157                           CA       MPAC       +3
001259: 10,3606           14660                           TCF      BANKJUMP
001260:
001261: 10,3607           05561        VNRET              TC       DOWNFLAG
001262: 10,3610           00111                           ADRES    VNFLAG
001263: 10,3611           31217                           CA       LOADSTAT
001264: 10,3612           64770                           AD       ONE
001265: 10,3613           10000                           CCS      A
001266: 10,3614           37700                           CAF      NEG3                                  #  LOADOSTAT.-0
001267: 10,3615           13571                           TCF      ENDRET1                               #  CANNOT GET HERE VIA CCS
001268: 10,3616           13621                           TCF      TERMFLSH                              #  LOADSTAT=-2
001269: 10,3617           44770                           CS       ONE                                   #  COMPENSATE FOR INCREMENTED Q IN LEAD-IN
001270: 10,3620           13571                           TCF      ENDRET1                               #  LOADSTAT=-1
001271: 10,3621           33753        TERMFLSH           CAF      GOPOOCAD
001272: 10,3622           13573                           TCF      ENDRET2
001273:
001274:
001275: 10,3623           40160        LINUSCHR           CS       PLAYTEM4                              #  IS THIS A LINUS
001276: 10,3624           74753                           MASK     REFLSH
001277: 10,3625           10000                           CCS      A
001278: 10,3626           16706                           TCF      Q+1                                   #  NO
001279: 10,3627           40157                           CS       PLAYTEM3                              #  YES, IS IT ALREADY IN ENDIDLE
001280: 10,3630           50164                           INDEX    COPINDEX
001281: 10,3631           60371                           AD       CADRFLSH
001282: 10,3632           00006                           EXTEND
001283: 10,3633           13635                           BZF      +2                                    #  YES
001284:
001285: 10,3634           00002                           TC       Q                                     #  NO
001286: 10,3635           11215                           CCS      DSPLOCK                               #  IS THE ASTRONAUT BUSY
001287: 10,3636           05205                           TC       ENDOFJOB                              #  END THE NEW DISPLAY, ITS ALREADY ACTIVE
001288: 10,3637           00002                           TC       Q
001289:
001290:                                                                                                  #  MORE LOGIC COULD BE INCORPORATED HERE TO MAKE SURE A RECYCLE IS A RECYCLAND CONVERSLY THAT A LOAD IS A LOAD.
001291:
001292:                                                                                                  #  LASTPLAY CHECKS TO SEE IF (1) THE LAST NORMAL DISPLAY WAS EITHER INTERRUPTED BY A PRIO OR A MARK (MARK
001293:                                                                                                  #  COULD ONLY HAPPEN DURING PINBRANCH) OR IF (2) THE LAST NORMAL DISPLAY WAS REQUESTED WHILE A HIGHER PRIORITY
001294:                                                                                                  #  DISPLAY WAS GOING RESULTING IN THE NORMAL BEING PUT TO SLEEP.
001295:
001296:                                                                                                  #  IF EITHER OF THE ABOVE 2 CONDITIONS EXISTS, THE NORMAL DISPLAY IS AWAKENED TO GO TO PLAYJUM1 WHICH STARTS
001297:                                                                                                  #  UP THE MOST RECENT VALID NORMAL DISPLAY. IF THESE 2 CONDITIONS DO NOT EXIST, CONTROL GOES TO PLAYJUM1 WHICH IS
001298:                                                                                                  #  STARTED IMMEDIATELY WITH THE ASSUMPTION THAT THE MOST RECENT NORMAL DISPLAY IS ALREADY IN-ENDIDLE (DURING A
001299:                                                                                                  #  PINBRANCH) OR THAT A RESTART HAS OCCURRED AND THE DISPLAY CAN BE STARTED AS A .1 RESTART.
001300:
001301: 10,3640           34766        MARKRET            CAF      MKOVBIT
001302: 10,3641           03762                           TC       DOWNENT2


001304: 10,3642           13555                           TCF      ENDRET
001305:
001306: 10,3643           34770        MARKOVER           CAF      ONE
001307: 10,3644           55217                           TS       LOADSTAT
001308: 10,3645           30100                           CA       FLAGWRD4                              #  IS ENDIDFLG SET
001309: 10,3646           74346                           MASK     BIT13-14                              #  IS NORMAL OR PRIO IN ENDIDLE
001310: 10,3647           10000                           CCS      A
001311: 10,3650           13306                           TCF      NORMBNCH
001312:
001313: 10,3651           30100        NORMRET            CA       FLAGWRD4                              #  IS MARK SLEEPING
001314: 10,3652           73736                           MASK     BITS5+11                              #  OR WAITING
001315: 10,3653           10000                           CCS      A
001316: 10,3654           13252                           TCF      MARKWAKE
001317:
001318: 10,3655           30100                           CA       FLAGWRD4                              #  NO
001319: 10,3656           73737                           MASK     BITS4+10                              #  IS NORMAL INTERRUPTED OR WAITING
001320: 10,3657           10000                           CCS      A
001321: 10,3660           13553                           TCF      NORMWAKE                              #  YES
001322:
001323: 10,3661           34765                           CAF      FLSHRQST                              #  NO, WAS IT A FLASH REQUEST
001324: 10,3662           64763                           AD       RETDSPY                               #  OR GODSPRET
001325: 10,3663           71275                           MASK     EBANKTEM
001326: 10,3664           10000                           CCS      A
001327: 10,3665           13555                           TCF      ENDRET                                #  YES
001328: 10,3666           30370                           CA       NVSAVE
001329: 10,3667           00006                           EXTEND
001330: 10,3670           13555                           BZF      ENDRET
001331:
001332: 10,3671           35054                           CAF      PRIO15
001333: 10,3672           05121                           TC       NOVAC
001334: 10,3673     0366                                  EBANK=   NVWORD
001335: 10,3673           03061 20060                     2CADR    PLAYJUM1
001336:
001337:
001338: 10,3675           13555                           TCF      ENDRET
001339:
001340: 10,3676           30100        MARSLEEP           CA       FLAGWRD4                              #  IS MARK ALREADY IN
001341: 10,3677           73736                           MASK     BITS5+11
001342: 10,3700           10000                           CCS      A
001343: 10,3701           15205                           TCF      ENDOFJOB                              #  YES
001344: 10,3702           13210                           TCF      GOSLEEPS
001345:
001346: 10,3703           50157        LOADITIS           INDEX    COPMPAC
001347: 10,3704           30366                           CA       NVWORD
001348: 10,3705           76043                           MASK     LOW7
001349: 10,3706           40000                           COM
001350: 10,3707           60155                           AD       MPAC       +1                         #  NOUNREG
001351: 10,3710           00006                           EXTEND
001352: 10,3711           13530                           BZF      OKTOENT                               #  NO, THEN LOAD IS VALID
001353: 10,3712           13275                           TCF      PINBRNCH                              #  YES, ACCEPT LOAD BUT ASK FOR LAST AGAIN
001354:


001356: 10,3713           46214        ERASER             CS       THREE                                 #  BLANK EVERYTHING EXCEPT MM
001357: 10,3714           04202                           TC       NVSUB
001358: 10,3715           15205                           TCF      ENDOFJOB
001359: 10,3716           15205                           TCF      ENDOFJOB
001360:
001361: 10,3717           00036        PERFMASK           OCT      0036                                  #  FLASH,PERFORM,BLANK R2 AND R3
001362: 10,3720           00231        V01N25             VN       00125
001363: 10,3721           14400        V50N00             VN       5000
001364: 10,3722     5001               PERF2MSK           EQUALS   BITS4&5                               #  (OCTAL 30)   FLASH, PERFORM
001365: 10,3722     5775               PERF4MSK           EQUALS   OCT14                                 #  FLASH, BLANK R3
001366: 10,3722           20010        REDOMASK           OCT      20010                                 #  BITS 4 AND 14
001367: 10,3723           40036        MARK4MSK           OCT      40036                                 #  MARK,PERFORM,FLASH,BLANK 2 AND 3
001368: 10,3724           21006        NVCADR             CADR     REDOPRIO
001369: 10,3725           20630        WAKECADR           CADR     MARKPLAY
001370: 10,3726           21061                           CADR     PLAYJUM1
001371:
001372: 10,3727           11210        NBUSMASK           OCT      11210
001373: 10,3730           66521        PMMASK             OCT      66521
001374: 10,3731     4171               VERBMASK           =        MID7                                  #  (OCT 37600)
001375: 10,3731           01177        V05N00M1           OCT      1177                                  #  V05 MINUS ONE
001376: 10,3732  10,2576               GOXDSPF            EQUALS   GOMARKF
001377: 10,3732     5524               ENDEXT             EQUALS   ENDMARK
001378: 10,3732     0165               MPAC2SAV           EQUALS   BANKSET
001379: 10,3732           00700        NVBUSMSK           OCT      700
001380: 10,3733           40030        MPERFMSK           OCT      40030                                 #  BIT 15,5,4 FOR MARK,PERFORM,FLASH
001381: 10,3734           34300        OCT34300           OCT      34300
001382: 10,3735           40100        BITS15+7           OCT      40100
001383: 10,3736           02020        BITS5+11           OCT      2020                                  #  * DONT MOVE
001384: 10,3737           01010        BITS4+10           OCT      1010                                  #  * DONT MOVE
001385: 10,3740     4354               LOWLOAD            EQUALS   VBSP2LD
001386: 10,3740     5004               CADRMASK           EQUALS   OCT50
001387: 10,3740     7673               PINMASK            EQUALS   13,14,15
001388: 10,3740  10,3315               GOPLAY             EQUALS   NVDSP
001389:                                                                                                  # PRIOSAVE       EQUALS  R1SAVE
001390: 10,3740     0157               COPMPAC            EQUALS   MPAC       +3
001391: 10,3740     0160               TEMPOR2            EQUALS   MPAC       +4
001392: 10,3740     0164               COPINDEX           EQUALS   LOC
001393: 10,3740     0163               USERPRIO           EQUALS   MODE
001394: 10,3740     0162               GENMASK            EQUALS   MPAC       +6
001395: 10,3740           20144        PRIOOCT            OCT      20144                                 #  PRIO
001396: 10,3741           42424        MARKOCT            OCT      42424                                 #  MARK
001397: 10,3742           11254                           OCT      11254                                 #  NORM
001398:
001399: 10,3743           74700        IDLESLEP           OCT      74700
001400: 10,3744     5516               LINUS              EQUALS   BLANKET
001401: 10,3744     0154               FACEREG            EQUALS   MPAC
001402: 10,3744     0155               PLAYTEM1           EQUALS   MPAC       +1
001403: 10,3744     0157               PLAYTEM3           EQUALS   MPAC       +3
001404: 10,3744     0160               PLAYTEM4           EQUALS   MPAC       +4
001405: 10,3744           03012        MAKEGEN            GENADR   MAKEPLAY


001407: 10,3745           10200        BIT13+8            OCT      10200
001408: 10,3746           30200        V97N00             VN       09700                                 #  PASTE FOR V97 OR V99
001409: 10,3747           20100        BIT14+7            OCT      20100
001410: 10,3750           24030        CLOCKCON           OCT      24030                                 #  FLASH, PERFORM, V99 OR V97 PASTE,REFLASH
001411: 10,3751           74040        PINIDMSK           OCT      74040
001412: 10,3752     7675               IDLEMASK           EQUALS   HIGH4
001413: 10,3752     7667               ITISMASK           EQUALS   BIT15+6                               #  *** ENDIDLE ALLOW ***
001414: 10,3752     7664               MARKFMSK           EQUALS   OT40010
001415: 10,3752           03217        XCHQADD            GENADR   XCHSLEEP
001416: 10,3753     5045               WAITMASK           EQUALS   PRIO3                                 #  (OCTAL 3000)
001417: 10,3753  10,3732               OCT700             EQUALS   NVBUSMSK
001418: 10,3753           55772        GOPOOCAD           CADR     TCGOPOOH
001419: 10,3754           40210        MARK3MSK           OCT      40210
001420: 10,3755     4752               MKRQST             =        BIT15
001421: 10,3755     4753               REFLSH             =        BIT14
001422: 10,3755     4754               2NDPERF            =        BIT13
001423: 10,3755     4755               V99PSTE            =        BIT12
001424: 10,3755     4761               DCMKPERF           =        BIT8
001425: 10,3755     4762               PRIODSPY           =        BIT7
001426: 10,3755     4763               RETDSPY            =        BIT6
001427: 10,3755     4764               PERFRQST           =        BIT5
001428: 10,3755     4765               FLSHRQST           =        BIT4
001429: 10,3755     4766               BLNKR3             =        BIT3
001430: 10,3755     4767               BLNKR2             =        BIT2
001431: 10,3755     4770               BLNKR1             =        BIT1
001432: 10,3755     4772               DSPONLY            =        ZERO

End of include-file DISPLAY_INTERFACE_ROUTINES.agc.  Parent file is MAIN.agc


