
Source Code


000002:                                                                                                  #  Copyright:    Public domain.
000003:                                                                                                  #  Filename:     DOWN-TELEMETRY_PROGRAM.agc
000004:                                                                                                  #  Purpose:      Part of the source code for Artemis (i.e., Colossus 3),
000005:                                                                                                  #                build 072.  This is for the Command Module's (CM)
000006:                                                                                                  #                Apollo Guidance Computer (AGC), we believe for
000007:                                                                                                  #                Apollo 15-17.
000008:                                                                                                  #  Assembler:    yaYUL
000009:                                                                                                  #  Contact:      Sergio Navarro <sergionavarrog@gmail.com>
000010:                                                                                                  #  Website:      www.ibiblio.org/apollo/index.html
000011:                                                                                                  #  Page scans:   www.ibiblio.org/apollo/ScansForConversion/Artemis072/
000012:                                                                                                  #  Mod history:  2009-08-27 SN   Adapted from corresponding Comanche 055 file.
000013:                                                                                                  #                2009-09-04 JL   Fixed typos. Fixed page comments.
000014:                                                                                                  #                2009-09-06 JL   Fixed typos.
000015:                                                                                                  #                2010-02-20 RSB  Un-##'d this header.
000016:
000017:                                                                                                  # # Page 1093
000018:                                                                                                  #  PROGRAM NAME- DOWN TELEMETRY PROGRAM
000019:                                                                                                  #  MOD NO.- 0      TO COMPLETELY REWRITE THE DOWN TELEMETRY PROGRAM AND DOWNLINK ERASABLE DUMP PROGRAM FOR THE
000020:                                                                                                  #                  PURPOSE OF SAVING APPROXIMATELY 150 WORDS OF CORE STORAGE.
000021:                                                                                                  #                  THIS CHANGE REQUIRES AN ENTIRELY NEW METHOD OF SPECIFYING DOWNLINK LISTS. REFER TO DOWNLINK
000022:                                                                                                  #                  LISTS LOG SECTION FOR MORE DETAILS. HOWEVER THIS CHANGE WILL NOT AFFECT THE GROUND PROCESSING
000023:                                                                                                  #                  OF DOWN TELEMETRY DATA.
000024:                                                                                                  #  MOD BY-  KILROY, SMITH, DEWITT
000025:                                                                                                  #  MOD BY - DENSMORE - JUNE 1969 - ELIMINATE ERASABLE DUMP COUNT
000026:                                                                                                  #  DATE-    02 OCT 67
000027:                                                                                                  #  AUTHORS- KILROY, SMITH, DWWITT, DEWOLF, FAGIN
000028:                                                                                                  #  LOG SECTION- DOWN-TELEMETRY PROGRAM
000029:                                                                                                  #  FUNCTIONAL DESCRIPTION- THIS ROUTINE IS INITIATED BY TELEMETRY END
000030:                                                                                                  #           PULSE FROM THE DOWNLINK TELEMETRY CONVERTER. THIS PULSE OCCURS
000031:                                                                                                  #           AT 50 TIMES PER SEC (EVERY 20 MS) THEREFORE DODOWNTM IS
000032:                                                                                                  #           EXECUTED AT THESE RATES. THIS ROUTINE SELECTS THE APPROPRIATE
000033:                                                                                                  #           AGC DATA TO BE TRANSMITTED DOWNLINK AND LOADS IT INTO OUTPUT
000034:                                                                                                  #           CHANNELS 34 AND 35. THE INFORMATION IS THEN GATED OUT FROM THE
000035:                                                                                                  #           LGC IN SERIAL FASHION.
000036:                                                                                                  #           THIS PROGRAM IS CODED FOR A 2 SECOND DOWNLIST. SINCE DOWNRUPTS
000037:                                                                                                  #           OCCUR EVERY 20 MS AND 2 AGC COMPUTER WORDS CAN BE PLACED IN
000038:                                                                                                  #           CHANNELS 34 AND 35 DURING EACH DOWNRUPT THE PROGRAM IS CAPABLE
000039:                                                                                                  #           OF SENDING 200 AGC WORDS EVERY 2 SECONDS.
000040:                                                                                                  #  CALLING SEQUENCE- NONE
000041:                                                                                                  #           PROGRAM IS ENTERED VIA TCF DODOWNTM WHICH IS EXECUTED AS A
000042:                                                                                                  #           RESULT OF A DOWNRUPT. CONTROL IS RETURNED VIA TCF RESUME WHICH
000043:                                                                                                  #           IN EFFECT IS A RESUME.
000044:                                                                                                  #  SUBROUTINES CALLED- NONE
000045:                                                                                                  #  NORMAL EXIT MODE- TCF RESUME
000046:                                                                                                  #  ALARM OR ABORT EXIT MODE- NONE
000047:                                                                                                  #  RESTART PROTECTION:
000048:                                                                                                  #           ON A FRESH START AND RESTART THE 'STARTSUB' SUBROUTINE WILL INITIALIZE THE DOWNLIST POINTER (ACTUALLY
000049:                                                                                                  #           DNTMGOTO) TO THE BEGINNING OF THE CURRENT DOWNLIST (I.E. CURRENT CONTENTS OF DNLSTADR). THIS HAS THE
000050:                                                                                                  #           EFFECT OF IGNORING THE REMAINDER OF THE DOWNLIST WHICH THE DOWN-TELEMETRY PROGRAM WAS WORKING ON WHEN
000051:                                                                                                  #           THE RESTART (OR FRESH START) OCCURRED AND RESUME DOWN TELEMETRY FROM THE BEGINNING OF THE CURRENT
000052:                                                                                                  #           DOWNLIST.
000053:                                                                                                  #           ALSO OF INTEREST IS THE FACT THAT ON A RESTART THE AGC WILL ZERO DOWNLINK CHANNELS 13, 34 AND 35.
000054:                                                                                                  #  DOWNLINK LIST SELECTION:
000055:                                                                                                  #           THE APPROPRIATE DOWNLINK LISTS ARE SELECTED BY THE FOLLOWING:
000056:                                                                                                  #           1. FRESH START
000057:                                                                                                  #           2. V37EXXE  WHERE XX = THE MAJOR MODE BEING SELECTED.
000058:                                                                                                  #           3. UPDATE PROGRAM (P27)
000059:                                                                                                  #           4.   NON-V37 SELECTABLE TYPE PROGRAMS (E.G. AGS INITIALIZATION (SUNDANCE, LUMINARY) AND P61-P62
000060:                                                                                                  #                TRANSITION (COLOSSUS) ETC.).
000061:                                                                                                  #  DOWNLINK LIST RULES AND LIMITATIONS:
000062:                                                                                                  #           READ SECTION(S) WHICH FOLLOW 'DEBRIS' WRITEUP.
000063:                                                                                                  #  OUTPUT-  EVERY 2 SECONDS 100 DOUBLE PRECISION WORDS (I.E., 200 LGC
000064:                                                                                                  #           COMPUTER WORDS) ARE TRANSMITTED VIA DOWNLINK.
000065:                                                                                                  #  ERASABLE INITIALIZATION REQUIRED- NONE
000066:                                                                                                  #           'DNTMGOTO' AND 'DNLSTADR' ARE INITIALIZED BY THE FRESH START PROGRAM.
000067:                                                                                                  #  DEBRIS (ERASABLE LOCATIONS DESTROYED BY THIS PROGRAM)-
000068:                                                                                                  # # Page 1094
000069:                                                                                                  #           LDATALST, DNTMBUFF TO DNTMBUFF +21D, TMINDEX, DNQ.
000070:
000071:                                                                                                  # # Page 1095
000072:                                                                                                  #  DODOWNTM IS ENTERED EVERY 20 MS BY AN INTERRUPT TRIGGERED BY THE
000073:                                                                                                  #  RECEIPT OF AN ENDPULSE FROM THE SPACECRAFT TELEMETRY PROGRAMMER.
000074:
000075:                                                                                                  #  NOTES REGARDING DOWNLINK LISTS ASSOCIATED WITH THIS PROGRAM:
000076:                                                                                                  #  1. DOWNLISTS. - DOWNLISTS MUST BE COMPILED IN THE SAME BANK AS THE
000077:                                                                                                  #     DOWN-TELEMETRY PROGRAM. THIS IS DONE FOR EASE OF CODING, FASTER
000078:                                                                                                  #     EXECUTION.
000079:                                                                                                  #  2. EACH DOWNLINK LIST CONSISTES OF A CONTROL LIST AND A NUMBER OF
000080:                                                                                                  #     SUBLISTS.
000081:                                                                                                  #  3. A SUBLIST REFERS TO A SNAPSHOT OR DATA COMMON TO THE SAME OR OTHER
000082:                                                                                                  #     DOWNLINK LISTS. ANY SUBLIST CONTAINING COMMON DATA NEEDS TO BE
000083:                                                                                                  #     CODED ONLY ONCE FOR THE APPLICABLE DOWNLINK LISTS.
000084:                                                                                                  #  4. SNAPSHOT SUBLISTS REFER SPECIFICALLY TO HOMOGENEOUS DATA WHICH MUST BE
000085:                                                                                                  #     SAVED IN A BUFFER DURING ONE DOWNRUPT.
000086:                                                                                                  #  5. THE 1DNADR FOR THE 1ST WORD OF SNAPSHOT DATA IS FOUND AT THE END
000087:                                                                                                  #     OF EACH SNAPSHOT SUBLIST, SINCE THE PROGRAM CODING SENDS THIS DP WORD
000088:                                                                                                  #     IMMEDIATELY AFTER STORING THE OTHERS IN THE SNAPSHOT BUFFER.
000089:                                                                                                  #  6. ALL LISTS ARE COMBINATIONS OF CODED ERASABLE ADDRESS CONSTANTS
000090:                                                                                                  #     CREATED FOR THE DOWNLIST PROGRAM.
000091:                                                                                                  #     A. 1DNADR                  1-WORD DOWNLIST ADDRESS.
000092:                                                                                                  #         SAME AS ECADR, BUT USED WHEN THE WORD ADDRESSED IS THE LEFT
000093:                                                                                                  #         HALF OF A DOUBLE-PRECISION WORD FOR DOWN TELEMETRY.
000094:                                                                                                  #     B. 2DNADR - 6DNADR         N-WORD DOWNLIST ADDRESS, N = 2 - 6.
000095:                                                                                                  #         SAME AS 1DNADR, BUT WTIH THE 4 UNUSED BITS OF THE ECADR FORMAT
000096:                                                                                                  #         FILLED IN WITH 0001-0101.  USED TO POINT TO A LIST OF N DOUBLE-
000097:                                                                                                  #         PRECISION WORDS, STORED CONSECUTIVELY, FOR DOWN TELEMETRY.
000098:                                                                                                  #     C. DNCHAN                  DOWNLIST CHANNEL ADDRESS.
000099:                                                                                                  #         SAME AS 1DNADR, BUT WITH PREFIX BITS 0111.  USED TO POINT TO
000100:                                                                                                  #         A PAIR OF CHANNELS FOR DOWN TELEMETRY.
000101:                                                                                                  #     D. DNPTR                   DOWN-TELEMETRY SUBLIST POINTER.
000102:                                                                                                  #         SAME AS CAF BUT TAGGED AS A CONSTANT. USED IN CONTROL LIST TO POINT TO A SUBLIST.
000103:                                                                                                  #         CAUTION--- A DNPTR CANNOT BE USED IN A SUBLIST.
000104:                                                                                                  #  7. THE WORD ORDER CODE IS SET TO ZERO AT THE BEGINNING OF EACH DOWNLIST (I.E. CONTROL LIST) AND WHEN
000105:                                                                                                  #     A '1DNADR TIME2' IS DETECTED IN THE CONTROL LIST (ONLY).
000106:                                                                                                  #  8. IN THE SNAPSHOT SUBLIST ONLY, THE DNADR'S CANNOT POINT TO THE FIRST WORD OF ANY EBANK.
000107:
000108:                                                                                                  #  DOWNLIST LIST RESTRICTIONS:
000109:                                                                                                  #    (THE FOLLOWING POINTS MAY BE LISTED ELSEWHERE BUT ARE LISTED HERE SO IT IS CLEAR THAT THESE THINGS CANNOT BE
000110:                                                                                                  #    DONE)
000111:
000112:                                                                                                  #  1. SNAPSHOT DOWNLIST:
000113:                                                                                                  #    (A) CANNOT CONTAIN THE FOLLOWING ECADRS (I.E. 1DNADR'S): Q, 400, 1000, 1400, 2000, 2400, 3000, 3400.
000114:                                                                                                  #    (B) CAN CONTAIN ONLY 1DNADR'S
000115:
000116:                                                                                                  #  2. ALL DOWNLINKED DATA (EXCEPT CHANNELS) IS PICKED UP BY A <DCA< SO DOWNLINK LISTS CANNOT CONTAIN THE
000117:                                                                                                  #     EQUIVALENT OF THE FOLLOWING ECADRS (I.E. 1DNADRS): 377, 777, 1377, 1777, 2377, 27777, 3377, 3777.
000118:
000119:                                                                                                  #     (NOTE: THE TERM 'EQUIVALENT' MEANT THAT THE 1DNADR TO 6DNADR WILL BE PROCESSED LIKE 1 TO 6 ECADRS)
000120:
000121:                                                                                                  #  3. CONTROL LISTS AND SUBLISTS CANNOT HAVE ENTRIES = OCTAL 00000 OR OCTAL 77777
000122:                                                                                                  # # Page 1096
000123:                                                                                                  #  4. THE '1DNADR TIME2' WHICH WILL CAUSE THE DOWNLINK PROGRAM TO SET THE WORDER CODE TO 3 MUST APPEAR IN THE
000124:                                                                                                  #     CONTROL SECTION OF THE DOWNLIST.
000125:
000126:                                                                                                  #  5. 'DNCHAN 0' CANNOT BE USED.
000127:
000128:                                                                                                  #  6. 'DNPTR 0' CANNOT BE USED.
000129:
000130:                                                                                                  #  7. DNPTR CANNOT APPEAR IN A SUBLIST.
000131:
000132:                                                                                                  #  EBANK SETTINGS
000133:                                                                                                  #        IN THE PROCESS OF SETTING THE EBANK (WHEN PICKING UP DOWNLINK DATA) THE DOWN TELEMETRY PROGRAM PUTS
000134:                                                                                                  #        'GARBAGE' INTO BITS15-12 OF EBANK. HUGH BLAIR-SMITH WARNS US THAT BITS15-12 OF EBANK MAY BECOME
000135:                                                                                                  #        SIGNIFICANT SOMEDAY IN THE FUTURE. IF/WHEN THAT HAPPENS, THE PROGRAM SHOULD INSURE (BY MASKING ETC.)
000136:                                                                                                  #        THAT BITS 15-12 OF EBANK ARE ZERO.
000137:                                                                                                  #  INITIALIZATION REQUIRED- TO INTERRUPT CURRENT LIST AND START A NEW ONE..
000138:                                                                                                  #        1.      ADRES OF DOWNLINK LIST INTO DNLSTADR
000139:                                                                                                  #        2.      NEGONE INTO SUBLIST
000140:                                                                                                  #        3.      NEGONE INTO DNECADR
000141:
000142:    4000                                           SETLOC   FFTAG12
000143:    4000                                           BANK
000144:
000145:    4621     0337                                  EBANK=   DNTMBUFF
000146:
000147:    4621                                           COUNT*   $$/DPROG
000148:    4621           54016        DODOWNTM           TS       BANKRUPT
000149:    4622           00006                           EXTEND
000150:    4623           22012                           QXCH     QRUPT                                 #  SAVE Q
000151:    4624           34762                           CA       BIT7                                  #  SET WORD ORDER CODE TO 1. EXCEPTION- AT
000152:    4625           00006                           EXTEND
000153:    4626           02013                           RAND     CHAN13
000154:    4627           10000                           CCS      A
000155:    4630           00334                           TC       DNTMGOTO
000156:    4631           04542                           TC       C13STALL
000157:    4632           34762                           CA       BIT7
000158:    4633           00006                           EXTEND                                         #  THE BEGINNING OF EACH LIST THE WORD
000159:    4634           05013                           WOR      CHAN13                                #  CODE WILL BE SET BACK TO 0.
000160:    4635           00334                           TC       DNTMGOTO                              #  GOTO APPROPRIATE PHASE OF PROGRAM
000161:
000162: 05,2000                                           SETLOC   DOWNTELM
000163: 05,2000                                           BANK
000164:
000165: 05,3446                                           COUNT*   $$/DPROG
000166: 05,3446           37702        DNPHASE1           CA       NEGONE                                #  INITIALIZE ALL CONTROL WORDS
000167: 05,3447           54336                           TS       SUBLIST                               #  WORDS TO MINUS ONE
000168: 05,3450           54335                           TS       DNECADR
000169: 05,3451           33574                           CA       LDNPHAS2                              #  SET DNTMGOTO =0 ALL SUSEQUENT DOWRUPTS
000170:                                                                                                  # # Page 1097
000171: 05,3452           54334                           TS       DNTMGOTO                              #  GO TO DNPHASE2
000172: 05,3453           13467                           TCF      NEWLIST
000173: 05,3454           10335        DNPHASE2           CCS      DNECADR                               #  SENDING OF DATA IN PROGRESS
000174: 05,3455           03607        DODNADR            TC       FETCH2WD                              #  YES - THEN FETCH THE NEXT 2 SP WORDS
000175: 05,3456           77753        MINTIME2           -1DNADR  TIME2                                 #  NEGATIVE OF TIME2 1DNADR
000176: 05,3457           13460                           TCF      +1                                    #  (ECADR OF 3776 + 74001 = 77777)
000177:
000178: 05,3460           10336                           CCS      SUBLIST                               #  IS THE SUBLIST IN CONTROL
000179: 05,3461           13622                           TCF      NEXTINSL                              #  YES
000180: 05,3462           74001        DNADRDCR           OCT      74001                                 #  DNADR COUNT AND ECADR DECREMENTER
000181:
000182: 05,3463           30333        CHKLIST            CA       CTLIST
000183: 05,3464           00006                           EXTEND
000184: 05,3465           63467                           BZMF     NEWLIST                               #  IT WILL BE NEGATIVE AT END OF LIST
000185: 05,3466           13474                           TCF      NEXTINCL
000186: 05,3467           50332        NEWLIST            INDEX    DNLSTCOD
000187: 05,3470           32362                           CA       DNTABLE                               #  INITIALIZE CTLIST WITH
000188: 05,3471           54333                           TS       CTLIST                                #    STARTING ADDRESS OF NEW LIST
000189: 05,3472           40332                           CS       DNLSTCOD
000190: 05,3473           13711                           TCF      SENDID     +3
000191: 05,3474           50333        NEXTINCL           INDEX    CTLIST
000192: 05,3475           30000                           CA       0
000193: 05,3476           10000                           CCS      A
000194: 05,3477           24333                           INCR     CTLIST                                #  SET POINTER TO PICK UP NEXT CTLIST WORD
000195: 05,3500           13504                           TCF      +4                                    #  ON NEXT ENTRY TO PROG. (A SHOULD NOT =0)
000196: 05,3501           56333                           XCH      CTLIST                                #  SET CTLIST TO NEGATIVE AND PLACE(CODING)
000197: 05,3502           40000                           COM                                            #  UNCOMPLEMENTED DNADR INTO A.    (FOR LA)
000198: 05,3503           56333                           XCH      CTLIST                                #                                  (ST IN )
000199: 05,3504           24000                 +4        INCR     A                                     #                                  (CTLIST)
000200: 05,3505           54335                           TS       DNECADR                               #  SAVE DNADR
000201: 05,3506           63456                           AD       MINTIME2                              #  TEST FOR TIME2 (NEG. OF ECADR)
000202: 05,3507           10000                           CCS      A
000203: 05,3510           13514                           TCF      SETWO      +1                         #  DON'T SET WORD ORDER CODE
000204: 05,3511           47777        MINB1314           OCT      47777                                 #  MINUS BIT 13 AND 14  (CAN'T GET HERE)
000205: 05,3512           13514                           TCF      SETWO      +1                         #  DON'T SET WORD ORDER CODE
000206: 05,3513           03536        SETWO              TC       WOZERO                                #  GO SET WORD ORDER CODE TO ZERO.
000207: 05,3514           30335                 +1        CA       DNECADR                               #  RELOAD A WITH THE DNADR.
000208: 05,3515           63511                 +2        AD       MINB1314                              #  IS THIS A REGULAR DNADR?
000209: 05,3516           00006                           EXTEND
000210: 05,3517           63607                           BZMF     FETCH2WD                              #  YES. (A MUST NEVER BE ZERO)
000211: 05,3520           67674                           AD       MINB12                                #  NO- IS IT A POINTER (DNPTR) OR A
000212: 05,3521           00006                           EXTEND                                         #      CHANNEL(DNCHAN)
000213: 05,3522           63545                           BZMF     DODNPTR                               #  IT'S A POINTER. (A MUST NEVER BE ZERO)
000214:
000215: 05,3523           00006        DODNCHAN           TC       6                                     #  (EXECUTED AS EXTEND) IT'S A CHANNEL
000216: 05,3524           50335                           INDEX    DNECADR
000217: 05,3525           44000                           INDEX    0          -4000                      #  (EXECUTED AS READ)
000218: 05,3526           54001                           TS       L
000219: 05,3527           00006                           TC       6                                     #  (EXECUTED AS EXTEND)
000220: 05,3530           50335                           INDEX    DNECADR
000221:                                                                                                  # # Page 1098
000222: 05,3531           43777                           INDEX    0          -4001                      #  (EXECUTED AS READ)
000223: 05,3532           54335                           TS       DNECADR                               #  SET DNECADR
000224: 05,3533           37702                           CA       NEGONE                                #      TO MINUS
000225: 05,3534           56335                           XCH      DNECADR                               #          WHILE PRESERVING A.
000226: 05,3535           13635                           TCF      DNTMEXIT                              #  GO SEND CHANNELS
000227:
000228: 05,3536           00006        WOZERO             EXTEND
000229: 05,3537           22070                           QXCH     RUPTREG1
000230: 05,3540           04542                           TC       C13STALL
000231: 05,3541           44762                           CS       BIT7
000232: 05,3542           00006                           EXTEND
000233: 05,3543           03013                           WAND     CHAN13                                #  SET WORD ORDER CODE TO ZERO
000234: 05,3544           00070                           TC       RUPTREG1                              #  RETURN TO CALLER
000235:
000236: 05,3545           50335        DODNPTR            INDEX    DNECADR                               #  DNECADR CONTAINS ADRES OF SUBLIST
000237: 05,3546           00000                           0        0                                     #  CLEAR AND ADD LIST ENTRY INTO A.
000238: 05,3547           10000                           CCS      A                                     #  IS THIS A SNAPSHOT SUBLIST
000239: 05,3550           30335                           CA       DNECADR                               #  NO, IT IS A REGULAR SUBLIST.
000240: 05,3551           13621                           TCF      DOSUBLST                              #  A MUST NOT BE ZERO.
000241:
000242: 05,3552           56335                           XCH      DNECADR                               #  YES, IT IS A SNAPSHOT SUBLIST.
000243: 05,3553           54336                           TS       SUBLIST                               #  C(DNECADR) INTO SUBLIST
000244: 05,3554           34772                           CAF      ZERO                                  #       A     INTO   A
000245: 05,3555           56335                           XCH      TMINDEX                               #  (NOTE.. TMINDEX = DNECADR)
000246:
000247:                                                                                                  #  THE FOLLOWING CODING (FROM SNAPLOOP TO SNAPEND) IS FOR THE PURPOSE OF TAKING A SNAPSHOT OF 12 DP REGISTERS.
000248:                                                                                                  #  THIS IS DONE BY SAVING 11 DP REGISTERS IN DNTMBUFF AND SENDING THE FIRST DP WORD IMMEDIATELY.
000249:                                                                                                  #  THE SNAPSHOT PROCESSING IS THE MOST TIME CONSUMING AND THEREFORE THE CODING AND LIST STRUCTURE WERE DESIGNED
000250:                                                                                                  #  TO MINIMIZE TIME. THE TIME OPTIMIZATION RESULTS IN RULES UNIQUE TO THE SNAPSHOT PORTION OF THE DOWNLIST.
000251:                                                                                                  #  THESE RULES ARE......
000252:                                                                                                  #        1.      ONLY 1DNADR'S CAN APPEAR IN THE SNAPSHOT SUBLIST
000253:                                                                                                  #        2.      THE 1DNADR'S CANNOT REFER TO THE FIRST LOCATION IN ANY BANK.
000254:
000255: 05,3556           54003        SNAPLOOP           TS       EBANK                                 #  SET EBANK
000256: 05,3557           74350                           MASK     LOW8                                  #  ISOLATE RELATIVE ADDRESS
000257: 05,3560           00006                           EXTEND
000258: 05,3561           50000                           INDEX    A
000259: 05,3562  E3,1401                                  EBANK=   1401
000260: 05,3562           31402                           DCA      1401                                  #  PICK UP 2 SNAPSHOT WORDS.
000261: 05,3563     0337                                  EBANK=   DNTMBUFF
000262: 05,3563           50335                           INDEX    TMINDEX
000263: 05,3564           52340                           DXCH     DNTMBUFF                              #  STORE 2 SNAPSHOT WORDS IN BUFFER
000264: 05,3565           24335                           INCR     TMINDEX                               #  SET BUFFER INDEX FOR NEXT 2 WORDS.
000265: 05,3566           24335                           INCR     TMINDEX
000266: 05,3567           24336        SNAPAGN            INCR     SUBLIST                               #  SET POINTER TO NEXT 2 WORDS OF SNAPSHOT
000267: 05,3570           50336                           INDEX    SUBLIST
000268: 05,3571           00000                           0        0                                     #  = CA SSSS (SSSS = NEXT ENTRY IN SUBLIST)
000269: 05,3572           10000                           CCS      A                                     #  TEST FOR LAST TWO WORDS OF SNAPSHOT.
000270:                                                                                                  # # Page 1099
000271: 05,3573           13556                           TCF      SNAPLOOP                              #  NOT LAST TWO.
000272: 05,3574           03454        LDNPHAS2           GENADR   DNPHASE2
000273: 05,3575           54336                           TS       SUBLIST                               #  YES, LAST.  SAVE A.
000274: 05,3576           37702                           CA       NEGONE                                #  SET DNECADR AND
000275: 05,3577           54335                           TS       DNECADR                               #      SUBLIST POINTERS
000276: 05,3600           56336                           XCH      SUBLIST                               #          TO NEGATIVE VALUES.
000277: 05,3601           54003                           TS       EBANK
000278: 05,3602           74350                           MASK     LOW8
000279: 05,3603           00006                           EXTEND
000280: 05,3604           50000                           INDEX    A
000281: 05,3605  E3,1401                                  EBANK=   1401
000282: 05,3605           31402                           DCA      1401                                  #  PICK UP FIRST 2 WORDS OF SNAPSHOT.
000283: 05,3606     0337                                  EBANK=   DNTMBUFF
000284: 05,3606           13635        SNAPEND            TCF      DNTMEXIT                              #     NOW GO SEND THEM.
000285:
000286: 05,3607           30335        FETCH2WD           CA       DNECADR
000287: 05,3610           54003                           TS       EBANK                                 #  SET EBANK
000288: 05,3611           74350                           MASK     LOW8                                  #  ISOLATE RELATIVE ADDRESS
000289: 05,3612           54001                           TS       L
000290: 05,3613           33462                           CA       DNADRDCR                              #  DECREMENT COUNT AND ECADR
000291: 05,3614           26335                           ADS      DNECADR
000292: 05,3615           00006                           EXTEND
000293: 05,3616           50001                           INDEX    L
000294: 05,3617  E3,1400                                  EBANK=   1400
000295: 05,3617           31401                           DCA      1400                                  #  PICK UP 2 DATA WORDS
000296: 05,3620     0337                                  EBANK=   DNTMBUFF
000297: 05,3620           13635                           TCF      DNTMEXIT                              #     NOW GO SEND THEM.
000298:
000299: 05,3621           54336        DOSUBLST           TS       SUBLIST                               #  SET SUBLIST POINTER
000300: 05,3622           50336        NEXTINSL           INDEX    SUBLIST
000301: 05,3623           00000                           0        0                                     #  = CA SSSS (SSSS = NEXT ENTRY IN SUBLIST)
000302: 05,3624           10000                           CCS      A                                     #  IS IT THE END OF THE SUBLIST
000303: 05,3625           24336                           INCR     SUBLIST                               #  NO-
000304: 05,3626           13632                           TCF      +4
000305: 05,3627           54336                           TS       SUBLIST                               #  SAVE A.
000306: 05,3630           37702                           CA       NEGONE                                #  SET SUBLIST TO MINUS
000307: 05,3631           56336                           XCH      SUBLIST                               #  RETRIEVE A.
000308: 05,3632           24000                 +4        INCR     A
000309: 05,3633           54335                           TS       DNECADR                               #  SAVE DNADR
000310: 05,3634           13515                           TCF      SETWO      +2                         #  GO USE COMMON CODING (PROBLEMS WOULD
000311:                                                                                                  #  OCCUR IF THE PROGRAM ENCOUNTERED A
000312:                                                                                                  #  DNPTR NOW)
000313:
000314: 05,3635           00006        DNTMEXIT           EXTEND                                         #  DOWN-TELEMETRY EXIT
000315: 05,3636           01034                           WRITE    DNTM1                                 #  TO SEND A + L TO CHANNELS 34 + 35
000316: 05,3637           30001                           CA       L                                     #  RESPECTIVELY
000317: 05,3640           00006        TMEXITL            EXTEND
000318: 05,3641           01035                           WRITE    DNTM2
000319: 05,3642           15323        TMRESUME           TCF      RESUME                                #  EXIT TELEMTRY PROGRAM VIA RESUME.
000320:                                                                                                  # # Page 1100
000321: 05,3643     7674               MINB12             EQUALS   -1/8
000322:
000323:                                                                                                  # # Page 1101
000324:                                                                                                  #  SUBROUTINE NAME- DNDUMP
000325:                                                                                                  #  FUNCTIONAL DESCRIPTION - TO SEND (DUMP) ALL 8 BANKS OF ERASABLE STORAGE TWICE.  BANKS ARE SENT ONE AT A TIME
000326:                                                                                                  #        EACH BANK IS PRECEEDED BY AN ID WORD, SYNCH BITS, ECADR AND TIME1 FOLLOWED BY THE 256D WORDS OF EACH
000327:                                                                                                  #        EBANK. EBANKS ARE DUMPED IN ORDER (I.E. EBANK 0 FIRST, THEN EBANK1 ETC.)
000328:                                                                                                  #  CALLING SEQUENCE- THE GROUND OR ASTRONAUT BY KEYING V74E CAN INITIALIZE THE DUMP.
000329:                                                                                                  #        AFTER KEYING IN V74E THE CURRENT DOWNLIST WILL BE IMMEDIATELY TERMINATED AND THE DOWNLINK ERASABLE DUMP
000330:                                                                                                  #        WILL BEGIN.
000331:                                                                                                  #        ONCE INITITIATED THE DOWNLINK ERASABLE DUMP CAN BE TERMINATED (AND INTERRUPTED DOWNLIST REINSTATED) ONLY
000332:                                                                                                  #        BY THE FOLLOWING:
000333:                                                                                                  #        1. A FRESH START
000334:                                                                                                  #        2. COMPLETION OF ALL DOWNLINK DUMPS
000335:                                                                                                  #        3. AND INVOLUNTARILY BY A RESTART.
000336:                                                                                                  #  NORMAL EXIT MODE- TCF DNPHASE1
000337:                                                                                                  #  ALARM OR ABORT MODE- NONE
000338:                                                                                                  #  *SUBROUTINES CALLED- NONE
000339:                                                                                                  #  ERASABLE INITIALIZATION REQUIRED-
000340:                                                                                                  #        NONE
000341:                                                                                                  #  DEBRIS- DUMPLOC, DUMPSW, DNTMGOTO, EBANK, AND CENTRAL REGISTERS
000342:                                                                                                  #  TIMING-    TIME (IN SECS) = ((NO.DUMPS)*(NO.EBANKS)* (WDSPEREBANK + NO.IDWDS)) / NO.WDSPERSEC
000343:                                                                                                  #             TIME (IN SECS) =  (   4    )*(    8    )* (    256     +     4   )  /     100
000344:                                                                                                  #        THUS TIME (IN SECS TO SEND DUMP OF ERASABLE 4 TIMES VIA DOWNLINK) = 83.2 SECONDS
000345:
000346:                                                                                                  #  STRUCTURE OF ONE EBANK AS IT IS SENT BY DOWNLINK PROGRAM-
000347:                                                                                                  #        (REMINDER- THIS ONLY DESCRIBES ONE OF THE 8 EBANKS X 4 (DUMPS) = 32 EBANKS WHICH WILL BE SENT BY DNDUMP)
000348:                                                                                                  #        DOWNLIST                                W
000349:                                                                                                  #          WORD  TAKEN FROM CONTENTS OF  EXAMPLE O       COMMENTS
000350:
000351:                                                                                                  #            1   ERASID                   0177X  0       DOWNLIST I.D. FOR DOWNLINK ERASABLE DUMP (X=7 CSM, 6 LM)
000352:                                                                                                  #            2   LOWIDCOD                 77340  1       DOWNLINK SYNCH BITS. (SAME ONE USED IN ALL OTHER DOWNLISTS)
000353:                                                                                                  #            3   DUMPLOC                  13400  1       (SEE NOTES ON DUMPLOC) 1 = 3RD ERAS DUMP, 3400=ECADR OF 5TH WD
000354:                                                                                                  #            4   TIME1                    14120  1       TIME IN CENTISECONDS
000355:                                                                                                  #            5   FIRST WORD OF EBANK X    03400  1       IN THIS EXAMPLE THIS WORD = CONTENTS OF E7,1400 (ECADR 3400)
000356:                                                                                                  #            6   2ND   WORD OF EBANK X    00142  1       IN THIS EXAMPLE THIS WORD = CONTENTS OF E7,1401 (ECADR 3401)
000357:                                                                                                  #            7   3RD   WORD OF EBANK X    00142  1       IN THIS EXAMPLE THIS WORD = CONTENTS OF E7,1402 (ECADR 3402)
000358:                                                                                                  #            .                                   1
000359:                                                                                                  #            .                                   1
000360:                                                                                                  #            .                                   1
000361:                                                                                                  #           260D 256TH WORD OF EBANK X    03777  1       IN THIS EXAMPLE THIS WORD = CONTENTS OF E7,1777 (ECADR 3777)
000362:
000363:                                                                                                  #  NOTE- DUMPLOC CONTAINS THE COUNTER AND ECADR FOR EACH WORD BEING SENT.
000364:                                                                                                  #        THE BIT STRUCTURE OF DUMPLOC IS FOLLOWS---
000365:                                                                                                  #                                               X = NOT USED
000366:                                                                                                  #                X ABC EEE RRRRRRRR           ABC = ERASABLE DUMP COUNTER (I.E. ABC = 0,1,2, OR 3 WHICH MEANS THAT
000367:                                                                                                  #                                                   COMPLETE ERASABLE DUMP NUMBER 1,2,3, OR 4 RESPECTIVELY IS IN PROGRESS)
000368:                                                                                                  #                                             EEE = EBANK BITS
000369:                                                                                                  #                                        RRRRRRRR = RELATIVE ADDRESS WITHIN AN EBANK.
000370:
000371: 05,3643           34772        DNDUMPI            CA       ZERO                                  #  INITIALIZE DOWNLINK
000372: 05,3644           54335                           TS       DUMPLOC                               #  ERASABLE DUMP
000373: 05,3645           03706                 +2        TC       SENDID                                #  GO SEND ID AND SYNCH BITS
000374:                                                                                                  # # Page 1102
000375: 05,3646           33655                           CA       LDNDUMP1                              #  SET DNTMGOTO
000376: 05,3647           54334                           TS       DNTMGOTO                              #  TO LOCATION FOR NEXT PASS
000377: 05,3650           30025                           CA       TIME1                                 #  PLACE TIME1
000378: 05,3651           56001                           XCH      L                                     #  INTO L
000379: 05,3652           30335                           CA       DUMPLOC                               #  AND ECADR OF THIS EBANK INTO A
000380: 05,3653           13635                           TCF      DNTMEXIT                              #  SEND DUMPLOC AND TIME1
000381:
000382: 05,3654           03656        LDNDUMP            ADRES    DNDUMP
000383: 05,3655           03670        LDNDUMP1           ADRES    DNDUMP1
000384:
000385: 05,3656           34767        DNDUMP             CA       TWO                                   #  INCREMENT ECADR IN DUMPLOC
000386: 05,3657           26335                           ADS      DUMPLOC                               #  TO NEXT DP WORD TO BE
000387: 05,3660           74350                           MASK     LOW8                                  #  DUMPED AND SAVE IT.
000388: 05,3661           10000                           CCS      A                                     #  IS THIS THE BEGINNING OF A NEW EBANK
000389: 05,3662           13672                           TCF      DNDUMP2                               #  NO- THEN CONTINUE DUMPING
000390: 05,3663           30335                           CA       DUMPLOC                               #  YES- IS THIS THE END OF THE
000391: 05,3664           74754                           MASK     BIT13                                 #  SECOND COMPLETE ERASABLE DUMP?
000392: 05,3665           00006                           EXTEND
000393: 05,3666           13645                           BZF      DNDUMPI    +2                         #  NO - GO BACK AND INITIALZE NEXT BANK
000394: 05,3667           13446                           TCF      DNPHASE1                              #  YES - SEND DOWNLIST AGAIN
000395: 05,3670           33654        DNDUMP1            CA       LDNDUMP                               #  SET DNTMGOTO
000396: 05,3671           54334                           TS       DNTMGOTO                              #  FOR WORDS 3 TO 256D OF CURRENT EBANK
000397:
000398: 05,3672           30335        DNDUMP2            CA       DUMPLOC
000399: 05,3673           54003                           TS       EBANK                                 #  SET EBANK
000400: 05,3674           74350                           MASK     LOW8                                  #  ISOLATE RELATIVE ADDRESS.
000401: 05,3675           54002                           TS       Q                                     #  (NOTE: MASK INSTRUCTION IS USED TO PICK
000402: 05,3676           34771                           CA       NEG0                                  #  UP ERASABLE REGISTERS TO THAT EDITING
000403: 05,3677           54001                           TS       L                                     #  REGISTERS 20-23 WILL NOT BE ALTERED.)
000404: 05,3700           50002                           INDEX    Q
000405: 05,3701  E3,1400                                  EBANK=   1400                                  #  PICK UP LOW ORDER REGISTER OF PAIR
000406: 05,3701           71401                           MASK     1401                                  #  OF ERASABLE REGISTERS.
000407: 05,3702           56001                           XCH      L
000408: 05,3703           50002                           INDEX    Q                                     #  PICK UP HIGH ORDER REGISTER OF PAIR
000409: 05,3704           71400                           MASK     1400                                  #  OF ERASABLE REGISTERS.
000410: 05,3705     0337                                  EBANK=   DNTMBUFF
000411: 05,3705           13635                           TCF      DNTMEXIT                              #  GO SEND THEM
000412:
000413: 05,3706           00006        SENDID             EXTEND                                         #  **ENTRANCE USED BY ERASABLE DUMP PROG.**
000414: 05,3707           22334                           QXCH     DNTMGOTO                              #  SET DNTMGOTO SO NEXT TIME PROG WILL GO
000415: 05,3710           35041                           CAF      ERASID                                #  TO LOCATION FOLLOWING 'TC SENDID'
000416:
000417: 05,3711           54061                 +3        TS       ITEMP1                                #  ** ENTRANCE USED BY REGULAR DOWNLINK
000418:                                                                                                  #                              PROGRAM  **
000419: 05,3712           03536                           TC       WOZERO                                #  GO SET WORD ORDER CODE TO ZERO
000420: 05,3713           32000                           CAF      LOWIDCOD                              #  PLACE SPECIAL ID CODE INTO L
000421: 05,3714           56001                           XCH      L                                     #  AND ID BACK INTO A
000422: 05,3715           30061                           CA       ITEMP1
000423: 05,3716           13635                           TCF      DNTMEXIT                              #  SEND DOWNLIST ID CODE(S).
000424:
000425:                                                                                                  # # Page 1103 (empty page)
000426:

End of include-file DOWN-TELEMETRY_PROGRAM.agc.  Parent file is MAIN.agc


