
Source Code


000002:                                                                                                 #  Copyright:     Public domain.
000003:                                                                                                 #  Filename:      ERASABLE_ASSIGNMENTS.agc
000004:                                                                                                 #  Purpose:       Part of the source code for Artemis (i.e., Colossus 3),
000005:                                                                                                 #                 build 072.  This is for the Command Module's (CM)
000006:                                                                                                 #                 Apollo Guidance Computer (AGC), we believe for
000007:                                                                                                 #                 Apollo 15-17.
000008:                                                                                                 #  Assembler:     yaYUL
000009:                                                                                                 #  Contact:       Onno Hommes <ohommes@alumni.cmu.edu>
000010:                                                                                                 #  Website:       www.ibiblio.org/apollo/index.html
000011:                                                                                                 #  Page scans:    www.ibiblio.org/apollo/ScansForConversion/Artemis072/
000012:                                                                                                 #  Mod history:   2009-07-30 OH   Started from corresponding Comanche 055 file.
000013:                                                                                                 #                 2009-11-29 JL   Carried on from where Onno stopped on page 48.
000014:                                                                                                 #                 2010-01-25 JL   Finished conversion.
000015:                                                                                                 #                 2010-01-26 JL   Updated header comments.
000016:                                                                                                 #                 2010-01-31 JL   Fixed build errors.
000017:                                                                                                 #                 2010-02-02 JL   Fixed page numbers.
000018:                                                                                                 #                 2010-02-02 JL   Fixed ERASE op.
000019:                                                                                                 #                 2010-02-09 JL   Fixed addresses of 9X9LOC1 and 9X9LOC2 on p97.
000020:                                                                                                 #                                 Fixed EQUALS on p80.
000021:                                                                                                 #                 2010-02-20 RSB  Un-##'d this header.
000022:


000024:                                                                                                 #  CONVENTIONS AND NOTATIONS UTILIZED FOR ERASABLE ASSIGNMENTS.
000025:
000026:                                                                                                 #         EQUALS  IS USED IN TWO WAYS.  IT IS OFTEN USED TO CHAIN A GROUP
000027:                                                                                                 #                 OF ASSIGNMENTS SO THAT THE GROUP MAY BE MOVED WITH THE
000028:                                                                                                 #                 CHANGING OF ONLY ONE CARD.  EXAMPLE:
000029:
000030:                                                                                                 #                                         X       EQUALS  START
000031:                                                                                                 #                                         Y       EQUALS  X       +SIZE.X
000032:                                                                                                 #                                         Z       EQUALS  Y       +SIZE.Y
000033:
000034:                                                                                                 #                 (X, Y, AND Z ARE CONSECUTIVE AND BEGIN AT START.       )
000035:                                                                                                 #                 (SIZE.X AND SIZE.Y ARE THE RESPECTIVE SIZES OF X AND Y,
000036:                                                                                                 #                  USUALLY NUMERIC,  IE. 1, 2, 6, 18D, ETC.              )
000037:
000038:
000039:                                                                                                 #         EQUALS  OFTEN IMPLIES THE SHARING OF REGISTERS (DIFFERENT NAMES
000040:                                                                                                 #                 AND DIFFERENT DATA).  EXAMPLE:
000041:
000042:                                                                                                 #                                         X       EQUALS  Y
000043:
000044:
000045:                                                                                                 #         = MEANS THAT MULTIPLE NAMES HAVE BEEN GIVEN TO THE SAME DATA.
000046:                                                                                                 #                 (THIS IS LOGICAL EQUIVALENCE, NOT SHARING)  EXAMPLE.
000047:
000048:                                                                                                 #                                         X       =       Y
000049:
000050:
000051:                                                                                                 #         THE SIZE AND UTILIZATION OF AN ERASABLE ARE OFTEN INCLUDED IN
000052:                                                                                                 #         THE COMMENTS IN THE FOLLOWING FORM.  M(SIZE)N.
000053:
000054:                                                                                                 #                 M REFERS TO THE MOBILITY OF THE ASSIGNMENT.
000055:                                                                                                 #                      B   MEANS THAT THE SYMBOL IS REFERENCED BY BASIC
000056:                                                                                                 #                          INSTRUCTIONS AND THUS IS E-BANK SENSITIVE.
000057:                                                                                                 #                      I   MEANS THAT THE SYMBOL IS REFERENCED ONLY BY
000058:                                                                                                 #                          INTERPRETIVE INSTRUCTIONS, AND IS THUS E-BANK
000059:                                                                                                 #                          INSENSITIVE AND MAY APPEAR IN ANY E-BANK.
000060:
000061:                                                                                                 #                 SIZE IS THE NUMBER OF REGISTERS INCLUDED BY THE SYMBOL.
000062:
000063:                                                                                                 #                 N INDICATES THE NATURE OF PERMANENCE OF THE CONTENTS.
000064:                                                                                                 #                      PL MEANS THAT THE CONTENTS ARE PAD LOADED.
000065:                                                                                                 #                      DSP MEANS THAT THE REGISTER IS USED FOR A DISPLAY.
000066:                                                                                                 #                      PRM MEANS THAT THE REGISTER IS PERMANENT, IE. IT
000067:                                                                                                 #                          IS USED DURING THE ENTIRE MISSION FOR ONE
000068:                                                                                                 #                          PURPOSE AND CANNOT BE SHARED.
000069:                                                                                                 #                      TMP MEANS THAT THE REGISTER IS USED TEMPORARILY OR
000070:                                                                                                 #                          IS A SCRATCH REGISTER FOR THE ROUTINE TO WHICH
000071:                                                                                                 #                          IT IS ASSIGNED.  THAT IS, IT NEED NOT BE SET
000072:                                                                                                 #                          PRIOR TO INVOCATION OF THE ROUTINE NOR DOES IT
000073:                                                                                                 #                          CONTAIN USEFUL OUTPUT TO ANOTHER ROUTINE.  THUS


000075:                                                                                                 #                          IT MAY BE SHARED WITH ANY OTHER ROUTINE WHICH
000076:                                                                                                 #                          IS NOT ACTIVE IN PARALLEL.
000077:                                                                                                 #                      IN  MEANS INPUT TO THE ROUTINE AND IT IS PROBABLY
000078:                                                                                                 #                          TEMPORARY FOR A HIGHER-LEVEL ROUTINE/PROGRAM.
000079:                                                                                                 #                      OUT MEANS OUTPUT FROM THE ROUTINE, PROBABLY
000080:                                                                                                 #                          TEMPORARY FOR A HIGHER-LEVEL ROUTINE/PROGRAM.
000081:


000083:
000084:                                                                                                 #         SPECIAL REGISTERS.
000085:
000086: ???????                        A                 EQUALS   0
000087: ???????                        L                 EQUALS   1                                     #  L AND Q ARE BOTH CHANNELS AND REGISTERS.
000088: ???????                        Q                 EQUALS   2
000089: ???????                        EBANK             EQUALS   3
000090: ???????                        FBANK             EQUALS   4
000091: ???????                        Z                 EQUALS   5                                     #  ADJACENT TO FBANK AND BBANK FOR DXCH Z
000092: ???????                        BBANK             EQUALS   6                                     #  (DTCB) AND DXCH FBANK (DTCF)
000093:                                                                                                 #  REGISTER 7 IS A ZERO-SOURCE, USED BY ZL.
000094:
000095: ???????                        ARUPT             EQUALS   10                                    #  INTERRUPT STORAGE.
000096: ???????                        LRUPT             EQUALS   11
000097: ???????                        QRUPT             EQUALS   12
000098: ???????                        SAMPTIME          EQUALS   13                                    #  SAMPLED TIME 1 & 2.
000099: ???????                        ZRUPT             EQUALS   15                                    #  (13 AND 14 ARE SPARES.)
000100: ???????                        BANKRUPT          EQUALS   16                                    #  USUALLY HOLDS FBANK OR BBANK
000101: ???????                        BRUPT             EQUALS   17                                    #  RESUME ADDRESS AS WELL.
000102:
000103: ???????                        CYR               EQUALS   20
000104: ???????                        SR                EQUALS   21
000105: ???????                        CYL               EQUALS   22
000106: ???????                        EDOP              EQUALS   23                                    #  EDITS INTERPRETIVE OPERATION CODE PAIRS.
000107:
000108:
000109: ???????                        TIME2             EQUALS   24
000110: ???????                        TIME1             EQUALS   25
000111: ???????                        TIME3             EQUALS   26
000112: ???????                        TIME4             EQUALS   27
000113: ???????                        TIME5             EQUALS   30
000114: ???????                        TIME6             EQUALS   31
000115: ???????                        CDUX              EQUALS   32
000116: ???????                        CDUY              EQUALS   33
000117: ???????                        CDUZ              EQUALS   34
000118: ???????                        CDUT              EQUALS   35                                    #  OPTICS TRUNNION CDU (WAS OPTY)
000119: ???????                        CDUS              EQUALS   36                                    #  OPTICS SHAFT CDU (WAS OPTX)
000120: ???????                        PIPAX             EQUALS   37
000121: ???????                        PIPAY             EQUALS   40
000122: ???????                        PIPAZ             EQUALS   41
000123: ???????                        BMAGX             EQUALS   42
000124: ???????                        BMAGY             EQUALS   43
000125: ???????                        BMAGZ             EQUALS   44
000126: ???????                        INLINK            EQUALS   45
000127: ???????                        RNRAD             EQUALS   46
000128: ???????                        GYROCMD           EQUALS   47
000129: ???????                        CDUXCMD           EQUALS   50
000130: ???????                        CDUYCMD           EQUALS   51
000131: ???????                        CDUZCMD           EQUALS   52
000132: ???????                        CDUTCMD           EQUALS   53                                    #  OPTICS TRUNNION COMMAND (WAS OPTYCMD).
000133: ???????  0000053               TVCYAW            EQUALS   CDUTCMD                               #  SPS YAW COMMAND IN TVC MODE.
000134:


000136: ???????                        CDUSCMD           EQUALS   54                                    #  OPTICS SHAFT COMMAND (WAS OPTXCMD).
000137: ???????  0000054               TVCPITCH          EQUALS   CDUSCMD                               #  SPS PITCH COMMAND IN TVC MODE.
000138:                                                                                                 #  REGISTERS 55-60 ARE COUNTERS WHICH ARE NOT PRESENTLY WIRED, AND SO MAY BE USED WITH CARE
000139:
000140:
000141:                                                                                                 #         INTERPRETIVE REGISTERS ADDRESSED RELATIVE TO VAC AREA.
000142:
000143: ???????                        LVSQUARE          EQUALS   34D                                   #  SQUARE OF VECTOR INPUT TO ABVAL AND UNIT
000144: ???????                        LV                EQUALS   36D                                   #  LENGTH OF VECTOR INPUT TO UNIT.
000145: ???????                        X1                EQUALS   38D                                   #  INTERPRETIVE SPECIAL REGISTERS RELATIVE
000146: ???????                        X2                EQUALS   39D                                   #  TO THE WORK AREA
000147: ???????                        S1                EQUALS   40D
000148: ???????                        S2                EQUALS   41D
000149: ???????                        QPRET             EQUALS   42D
000150:


000152:
000153:                                                                                                 #  INPUT/OUTPUT CHANNELS
000154:
000155:                                                                                                 #   *** CHANNEL ZERO IS TO BE USED IN AN INDEXED OPERATION ONLY. ***
000156: ???????  0000001               LCHAN             EQUALS   L
000157: ???????  0000002               QCHAN             EQUALS   Q
000158: ???????                        HISCALAR          EQUALS   3
000159: ???????                        LOSCALAR          EQUALS   4
000160: ???????                        PYJETS            EQUALS   5
000161: ???????  0000005               CHAN5             =        PYJETS
000162: ???????                        ROLLJETS          EQUALS   6
000163: ???????  0000006               CHAN6             =        ROLLJETS
000164: ???????                        SUPERBNK          EQUALS   7
000165: ???????                        OUT0              EQUALS   10
000166: ???????                        DSALMOUT          EQUALS   11
000167: ???????                        CHAN12            EQUALS   12
000168: ???????                        CHAN13            EQUALS   13
000169: ???????                        CHAN14            EQUALS   14
000170: ???????                        MNKEYIN           EQUALS   15
000171: ???????                        NAVKEYIN          EQUALS   16
000172: ???????                        CHAN30            EQUALS   30
000173: ???????                        CHAN31            EQUALS   31
000174: ???????                        CHAN32            EQUALS   32
000175: ???????                        CHAN33            EQUALS   33
000176: ???????                        DNTM1             EQUALS   34
000177: ???????                        DNTM2             EQUALS   35
000178: ???????                        CHAN76            EQUALS   76
000179: ???????                        CHAN77            EQUALS   77
000180:                                                                                                 #  END OF CHANNEL ASSIGNMENTS
000181:


000183:
000184:                                                                                                 #         FLAGWORDS
000185:
000186:
000187:                                                                                                 #  FLAGWRD0       STATE +0        (000-014)
000188:                                                                                                 #  FLAGWRD1       STATE +1        (015-029)
000189:                                                                                                 #  FLAGWRD2       STATE +2        (030-044)
000190:                                                                                                 #  FLAGWRD3       STATE +3        (045-059)
000191:                                                                                                 #  FLAGWRD4       STATE +4        (060-074)
000192:                                                                                                 #  FLAGWRD5       STATE +5        (075-089)
000193:                                                                                                 #  FLAGWRD6       STATE +6        (090-104)
000194:                                                                                                 #  FLAGWRD7       STATE +7        (105-119)
000195:                                                                                                 #  FLAGWRD8       STATE +8D       (120-134)
000196:                                                                                                 #  FLAGWRD9       STATE +9D       (135-149)
000197:
000198:
000199:
000200:                                                                                                 #         SORTED LIST OF
000201:
000202:                                                                                                 #         INTERPITIVE SWITCH BIT ASSIGNMENTS
000203:
000204:                                                                                                 #  INTERPRETIVE SWITCH BIT ASSIGNMENTS
000205:                                                                                                 #  FLAGWORD       DEC NUM         BIT + FLAG      EQUIVALENT FLAGWORDS
000206:
000207:                                                                                                 #  .05GSW 102D            BIT 3 FLAG 6
000208:                                                                                                 #  22DSPFLG       032D            BIT 13 FLAG 2
000209:                                                                                                 #  360SW          134D            BIT 1 FLAG 8
000210:                                                                                                 #  3AXISFLG       084D            BIT 6 FLAG 5
000211:                                                                                                 #  ADVTRK 125D            BIT 10 FLAG 8
000212:                                                                                                 #  AMOONFLG       13D             BIT 2 FLAG 0
000213:                                                                                                 #  APSESW 130D            BIT 5 FLAG 8
000214:                                                                                                 #  ASTNFLAG       108D            BIT 12 FLAG 7
000215:                                                                                                 #  ATTCHFLG       118D            BIT 2 FLAG 7
000216:                                                                                                 #  AUTOSEQ        158D            BIT 7  FLAG 10
000217:                                                                                                 #  AVEGFLAG       029D            BIT 1 FLAG 1
000218:                                                                                                 #  AVEMIDSW       149D            BIT 1 FLAG 9
000219:                                                                                                 #  AVFLAG 040D            BIT 5 FLAG 2
000220:                                                                                                 #  AZIMFLAG       172D            BIT 8 FLAG 11
000221:                                                                                                 #  BURNFLAG       155D            BIT 10 FLAG 10
000222:                                                                                                 #  CALCMAN2       043D            BIT 2 FLAG 2
000223:                                                                                                 #  CMDAPARM       093D            BIT 12 FLAG 6
000224:                                                                                                 #  CMOONFLG       123D            BIT 12 FLAG 8
000225:                                                                                                 #  CM/DSTBY       103D            BIT 2 FLAG 6
000226:                                                                                                 #  COGAFLAG       131D            BIT 4 FLAG 8
000227:                                                                                                 #  COMPUTER       082D            BIT 8 FLAG 5
000228:                                                                                                 #  CSISFLAG       174D            BIT 6  FLAG 11
000229:                                                                                                 #  CULTFLAG       053D            BIT 7 FLAG 3
000230:                                                                                                 #  CYC61FLG       11D             BIT 4  FLAG 0
000231:                                                                                                 #  D6OR9FLG       058D            BIT 2 FLAG 3
000232:                                                                                                 #  DAPBIT1        090D            BIT 15 FLAG 6
000233:                                                                                                 #  DAPBIT2        091D            BIT 14 FLAG 6
000234:


000236:                                                                                                 #  DIM0FLAG       059D            BIT 1 FLAG 3
000237:                                                                                                 #  DMENFLAG       081D            BIT 9 FLAG 5
000238:                                                                                                 #  DRIFTFLG       030D            BIT 15 FLAG 2
000239:                                                                                                 #  DSKYFLAG       075D            BIT 15 FLAG 5
000240:                                                                                                 #  EGSW           97D             BIT 8 FLAG 6    KNOwNFLG  R57FLAG
000241:                                                                                                 #  ENG2FLAG       019D            BIT 11 FLAG 1
000242:                                                                                                 #  ENGONFLG       083D            BIT 7 FLAG 5
000243:                                                                                                 #  ENTRYDSP       047D            BIT 13 FLAG 6
000244:                                                                                                 #  ERADFLAG       017D            BIT 13 FLAG 1
000245:                                                                                                 #  ETPIFLAG       038D            BIT 7 FLAG 2    FIRSTFLG   OPTNSW
000246:                                                                                                 #  F2RTE          10D             BIT 5  FLAG 0
000247:                                                                                                 #  FINALFLG       039D            BIT 6 FLAG 2
000248:                                                                                                 #  FIRSTFLG       38D             BIT 7  FLAG 2   ETPIFLAG   OPTNSW
000249:                                                                                                 #  FREEFLAG       012D            BIT 3 FLAG 0
000250:                                                                                                 #  FULTKFLG       163D            BIT 2 FLAG 10
000251:                                                                                                 #  GAMDIFSW       094D            BIT 11 FLAG 6
000252:                                                                                                 #  GLOKFAIL       046D            BIT 14 FLAG 3
000253:                                                                                                 #  GONEBY 112D            BIT 8 FLAG 7
000254:                                                                                                 #  GONEPAST       095D            BIT 10 FLAG 6
000255:                                                                                                 #  GRRBKFLG       085D            BIT 5 FLAG 5
000256:                                                                                                 #  GUESSW 028D            BIT 2 FLAG 1
000257:                                                                                                 #  GYMDIFSW       104D            BIT 1 FLAG 6
000258:                                                                                                 #  HAFLAG 173D            BIT 7  FLAG 11
000259:                                                                                                 #  HDSUPFLG       154D            BIT 11 FLAG 10
000260:                                                                                                 #  HIND           099D            BIT 6 FLAG 6
000261:                                                                                                 #  IDLEFAIL       024D            BIT 6 FLAG 1
000262:                                                                                                 #  IGNFLAG        107D            BIT 13 FLAG 7
000263:                                                                                                 #  IMPULSW        036D            BIT 9 FLAG 2
000264:                                                                                                 #  IMUSE          007D            BIT 8 FLAG 0
000265:                                                                                                 #  INCORFLG       079D            BIT 11 FLAG 5
000266:                                                                                                 #  INFINFLG       128D            BIT 7 FLAG 8
000267:                                                                                                 #  INRLSW 100D            BIT 5 FLAG 6
000268:                                                                                                 #  INTFLAG        151D            BIT 14 FLAG 10
000269:                                                                                                 #  INTYPFLG       056D            BIT 4 FLAG 3
000270:                                                                                                 #  ITSWICH        106D            BIT 14 FLAG 7
000271:                                                                                                 #  JSWITCH        001D            BIT 14 FLAG 0
000272:                                                                                                 #  KNOWNFLG       097D            BIT 8  FLAG 6   EGSW  R57FLAG
000273:                                                                                                 #  LATSW          101D            BIT 4  FLAG 6
000274:                                                                                                 #  LMOONFLG       124D            BIT 11 FLAG 8
000275:                                                                                                 #  LUNAFLAG       048D            BIT 12 FLAG 3
000276:                                                                                                 #  MANEUFLG       160D            BIT 5 FLAG 10
000277:                                                                                                 #  MARKFLG        026D            BIT 4 FLAG 1
000278:                                                                                                 #  MAXDBFLG       138D            BIT 12 FLAG 9
000279:                                                                                                 #  MGLVFLAG       088D            BIT 2 FLAG 5
000280:                                                                                                 #  MID1FLAG       147D            BIT 3 FLAG 9
000281:                                                                                                 #  MIDAVFLG       148D            BIT 2 FLAG 9
000282:                                                                                                 #  MIDFLAG        002D            BIT 13 FLAG 0
000283:                                                                                                 #  MKOVFLAG       072D            BIT 3 FLAG 4
000284:                                                                                                 #  MOONFLAG       003D            BIT 12 FLAG 0
000285:                                                                                                 #  MRKIDFLG       060D            BIT 15 FLAG 4
000286:


000288:                                                                                                 #  MRKNVFLG       066D            BIT 9 FLAG 4
000289:                                                                                                 #  MRUPTFLG       070D            BIT 5 FLAG 4
000290:                                                                                                 #  MWAITFLG       064D            BIT 11 FLAG 4
000291:                                                                                                 #  N22ORN17       144D            BIT 6 FLAG 9
000292:                                                                                                 #  NEEDLFLG       006D            BIT 9 FLAG 0
000293:                                                                                                 #  NEWIFLG        122D            BIT 13 FLAG 8
000294:                                                                                                 #  NEWLMFLG       121D            BIT 14 FLAG  8
000295:                                                                                                 #  NEWTFLAG       80D             BIT 10 FLAG 5
000296:                                                                                                 #  NJETSFLG       015D            BIT 15 FLAG 1
000297:                                                                                                 #  NODOFLAG       044D            BIT 1 FLAG 2
000298:                                                                                                 #  NODOP01        018D            BIT 12 FLAG 1
000299:                                                                                                 #  NORFHOR        004D            BIT 11 FLAG 0
000300:                                                                                                 #  NORMSW 110D            BIT 10 FLAG 7
000301:                                                                                                 #  NOSWITCH       098D            BIT 7 FLAG 6
000302:                                                                                                 #  NRMIDFLG       062D            BIT 13 FLAG 4
000303:                                                                                                 #  NRMNVFLG       067D            BIT 8 FLAG 4
000304:                                                                                                 #  NRUPTFLG       071D            BIT 4 FLAG 4
000305:                                                                                                 #  NWAITFLG       065D            BIT 10 FLAG 4
000306:                                                                                                 #  ORBWFLAG       054D            BIT 6 FLAG 3
000307:                                                                                                 #  ORDERSW        129D            BIT 6 FLAG 8
000308:                                                                                                 #  P21FLAG        033D            BIT 12 FLAG 2
000309:                                                                                                 #  P22MKFLG       49D             BIT 11 FLAG 3
000310:                                                                                                 #  P24FLAG        136D            BIT 14 FLAG  9
000311:                                                                                                 #  P24MKFLG       042D            BIT  3 FLAG  2
000312:                                                                                                 #  P29FLAG        14D             BIT 1 FLAG 0
000313:                                                                                                 #  P35FLAG        157D            BIT 8 FLAG 10
000314:                                                                                                 #  PCFLAG 164D            BIT 1 FLAG 10
000315:                                                                                                 #  PCMANFLG       150D            BIT 15 FLAG 10
000316:                                                                                                 #  PDSPFLAG       063D            BIT 12 FLAG 4
000317:                                                                                                 #  PFRATFLG       041D            BIT 4 FLAG 2
000318:                                                                                                 #  PINBRFLG       069D            BIT 6 FLAG 4
000319:                                                                                                 #  POOFLAG        051D            BIT 9  FLAG 3
000320:                                                                                                 #  PRECIFLG       052D            BIT 8 FLAG 3
000321:                                                                                                 #  PRIODFLG       061D            BIT 14 FLAG 4
000322:                                                                                                 #  PRONVFLG       068D            BIT 7 FLAG 4
000323:                                                                                                 #  PTV93FLG       161D            BIT 4 FLAG 10
000324:                                                                                                 #  QUITFLAG       145D            BIT 5 FLAG 9
000325:                                                                                                 #  R21MARK        031D            BIT 14 FLAG 2
000326:                                                                                                 #  R22CAFLG       143D            BIT 7 FLAG 9
000327:                                                                                                 #  R31FLAG        146D            BIT 4 FLAG 9
000328:                                                                                                 #  R53FLAG        009D            BIT 6 FLAG 0
000329:                                                                                                 #  R67FLAG        133D            BIT 2  FLAG 8
000330:                                                                                                 #  RANGFLAG       156D            BIT 9 FLAG 10
000331:                                                                                                 #  REFSMFLG       047D            BIT 13 FLAG 3
000332:                                                                                                 #  REINTFLG       152D            BIT 13 FLAG 10
000333:                                                                                                 #  REJCTFLG       153D            BIT 12 FLAG 10
000334:                                                                                                 #  RELVELSW       096D            BIT 9 FLAG 6
000335:                                                                                                 #  RENDWFLG       089D            BIT 1 FLAG 5
000336:                                                                                                 #  RETROFLG       76D             BIT 14 FLAG 5
000337:                                                                                                 #  RNDVZFLG       008D            BIT 7 FLAG 0
000338:


000340:                                                                                                 #  RPQFLAG        120D            BIT 15 FLAG 6
000341:                                                                                                 #  RVSW           111D            BIT 9 FLAG 7
000342:                                                                                                 #  S32.1F1        165D            BIT 15 FLAG 11
000343:                                                                                                 #  S32.1F2        166D            BIT 14 FLAG 11
000344:                                                                                                 #  S32.1F3A       167D            BIT 13 FLAG 11
000345:                                                                                                 #  S32.1F3B       168D            BIT 12 FLAG 11
000346:                                                                                                 #  SAVECFLG       140D            BIT 10 FLAG 9
000347:                                                                                                 #  SKIPVHF        035D            BIT 10 FLAG 2
000348:                                                                                                 #  SLOPESW        027D            BIT 3 FLAG 1
000349:                                                                                                 #  SLOWFLG        77D             BIT 13 FLAG 5
000350:                                                                                                 #  SOLNSW 087D            BIT 3 FLAG 5
000351:                                                                                                 #  SOURCFLG       142D            BIT 8 FLAG 9
000352:                                                                                                 #  STATEFLG       055D            BIT 5 FLAG 3
000353:                                                                                                 #  STEERSW        034D            BIT 11 FLAG 2
000354:                                                                                                 #  STIKFLAG       016D            BIT 14 FLAG 1
000355:                                                                                                 #  STRULLSW       92D             BIT 13 FLAG 6
000356:                                                                                                 #  SURFFLAG       127D            BIT 8  FLAG 8
000357:                                                                                                 #  SWTOVER        135D            BIT 15 FLAG 9
000358:                                                                                                 #  TARG1FLG       020D            BIT 10 FLAG 1
000359:                                                                                                 #  TARG2FLG       021D            BIT 9 FLAG 1
000360:                                                                                                 #  TERMIFLG       105D            BIT 15 FLAG 7
000361:                                                                                                 #  TFFSW          119D            BIT 1 FLAG 7
000362:                                                                                                 #  TIMRFLAG       109D            BIT 11 FLAG 7
000363:                                                                                                 #  TPIMNFLG       162D            BIT 3 FLAG 10
000364:                                                                                                 #  TRACKFLG       025D            BIT 5 FLAG 1
000365:                                                                                                 #  UPDATFLG       023D            BIT 7 FLAG 1
000366:                                                                                                 #  UPLOCKFL       116D            BIT 4 FLAG 7
000367:                                                                                                 #  UTFLAG 126D            BIT 9 FLAG 8
000368:                                                                                                 #  V37FLAG        114D            BIT 6 FLAG 7
000369:                                                                                                 #  V50N18FL       045D            BIT 15 FLAG 3
000370:                                                                                                 #  V59FLAG        078D            BIT 12 FLAG 5
000371:                                                                                                 #  VE2EMFLG       137D            BIT 13 FLAG 9
000372:                                                                                                 #  V94FLAG        139D            BIT 11 FLAG 9
000373:                                                                                                 #  V96ONFLG       132D            BIT 3 FLAG 8
000374:                                                                                                 #  VEHUPFLG       022D            BIT 8 FLAG 1
000375:                                                                                                 #  VERIFLAG       117D            BIT 3 FLAG 7
000376:                                                                                                 #  VFLAG          050D            BIT 10 FLAG 3
000377:                                                                                                 #  VHFRFLAG       141D            BIT 9 FLAG 9
000378:                                                                                                 #  VINTFLAG       057D            BIT 3 FLAG 3
000379:                                                                                                 #  VNFLAG 073D            BIT 2 FLAG 4
000380:                                                                                                 #  XDELVFLG       037D            BIT 8 FLAG 2
000381:                                                                                                 #  XDSPFLAG       074D            BIT 1 FLAG 4
000382:                                                                                                 #  ZMEASURE       005D            BIT 10 FLAG 0
000383:


000385:
000386:                                                                                                 #  INTERPRETIVE SWITCH BIT ASSIGNMENTS
000387: ???????     0074               FLAGWRD0          =        STATE      +0                         #  (000-014)
000388:                                                                                                 #  (SET)                  (RESET)
000389:                                                                                                 #                         BIT 15 FLAG 0
000390: ???????                                          =        000D
000391:                                                                                                 #                         BIT 14 FLAG 0
000392: ???????                        JSWITCH           =        001D                                  #  INTEGRATION OF W       INTEGRATION OF STATE
000393:                                                                                                 #  MATRIX         VECTOR
000394: ???????     4753               JSWCHBIT          =        BIT14
000395:
000396:                                                                                                 #                         BIT 13 FLAG 0
000397: ???????                        MIDFLAG           =        002D                                  #  INTEGRATION WITH       INTEGRATION WITHOUT
000398:                                                                                                 #  SOLAR PERTURBATIONS    SOLAR PERTURBATIONS
000399:
000400: ???????     4754               MIDFLBIT          =        BIT13
000401:
000402:                                                                                                 #                         BIT 12 FLAG 0
000403: ???????                        MOONFLAG          =        003D                                  #  MOON IS SPHERE OF      EARTH IS SPHERE OF
000404:                                                                                                 #  INFLUENCE              INFLUENCE
000405:
000406: ???????     4755               MOONBIT           =        BIT12
000407:
000408:                                                                                                 #                         BIT 11 FLAG 0
000409: ???????                        NORFHOR           =        004D                                  #  FAR HORIZON            NEAR HORIZON
000410:
000411: ???????     4756               NORFBIT           =        BIT11
000412:
000413:                                                                                                 #                         BIT 10 FLAG 0
000414: ???????                        ZMEASURE          =        005D                                  #  MEASUREMENT PLANET     MEASUREMENT PLANET
000415:                                                                                                 #  AND PRIMARY PLANET     AND PRIMARY PLANET
000416:                                                                                                 #  DIFFERENT              SAME
000417:
000418: ???????     4757               ZMEASBIT          =        BIT10
000419:
000420:                                                                                                 #                         BIT 9 FLAG 0
000421: ???????                        NEEDLFLG          =        006D                                  #  TOTAL ATTIDUDE A/P FOLLOWING ERROR
000422:                                                                                                 #  ERROR DISPLAYED        DISPLAYED
000423:
000424: ???????     4760               NEEDLBIT          =        BIT9
000425:
000426:                                                                                                 #                         BIT 8 FLAG 0
000427: ???????                        IMUSE             =        007D                                  #  IMU IN USE             IMU NOT IN USE
000428:
000429: ???????     4761               IMUSEBIT          =        BIT8
000430:
000431:                                                                                                 #                         BIT 7 FLAG 0


000433: ???????                        RNDVZFLG          =        008D                                  #  P20 RUNNING            P20 NOT RUNNING
000434: ???????     4762               RNDVZBIT          =        BIT7
000435:
000436:                                                                                                 #                         BIT 6 FLAG 0
000437: ???????                        R53FLAG           =        009D                                  #  V51 INITIATED          V51 NOT INITIATED
000438:
000439:
000440: ???????     4763               R53FLBIT          =        BIT6
000441:
000442:                                                                                                 #                         BIT 5 FLAG 0
000443: ???????                        F2RTE             =        010D                                  #  IN TIME CRITICAL       NOT IN TIME CRITICAL
000444:                                                                                                 #  MODE                   MODE
000445:
000446: ???????     4764               F2RTEBIT          =        BIT5
000447:
000448:                                                                                                 #                         BIT 4 FLAG 0
000449: ???????                        CYC61FLG          =        11D                                   #  KALCMAN3 TO RETURN     KALCMAN3 TO DO
000450:                                                                                                 #  TO R61 AFTER           MANEUVER
000451:
000452: ???????     4765               CYC61BIT          =        BIT4                                  #  COMPUTING TM
000453:
000454:                                                                                                 #                         BIT 3 FLAG 0
000455: ???????                        FREEFLAG          =        012D                                  #  (TEMPORARY FLAG USED IN MANY ROUTINES)
000456:
000457: ???????     4766               FREEFBIT          =        BIT3
000458:
000459:                                                                                                 #                         BIT 2 FLAG 0
000460: ???????                        AMOONFLG          =        013D                                  #  STATE VECTOR IN        STATE VECTOR IN
000461: ???????     4767               AMOONBIT          =        BIT2                                  #  LUNAR SPHERE AT        EARTH SPHERE AT
000462:                                                                                                 #  MIDTOAVE               MIDTOAVE
000463:
000464:                                                                                                 #                         BIT 1 FLAG 0
000465: ???????                        P29FLAG           =        14D                                   #  P29 RUNNING. 1ST       P29 FINISHED WITH
000466: ???????     4770               P29BIT            =        BIT1                                  #  PASS IN PROGRESS.      1ST PASS.
000467:
000468:
000469: ???????     0075               FLAGWRD1          =        STATE      +1                         #  (015-029)
000470:
000471:                                                                                                 #  (SET)                  (RESET)
000472:
000473:                                                                                                 #                         BIT 15 FLAG 1
000474: ???????                        NJETSFLG          =        015D                                  #  TWO JET RCS BURN       FOUR JET RCS BURN
000475:
000476: ???????     4752               NJETSBIT          =        BIT15
000477:
000478:                                                                                                 #                         BIT 14 FLAG 1
000479: ???????                        STIKFLAG          =        016D                                  #  RHC CONTROL            CMC CONTROL


000481: ???????     4753               STIKBIT           =        BIT14
000482:
000483:                                                                                                 #                         BIT 13 FLAG 1
000484: ???????                        ERADFLAG          =        017D                                  #  EARTH, COMPUTE EARTH, USED FIXED
000485:                                                                                                 #   FISCHER ELLIPSOID      RADIUS
000486:                                                                                                 #   RADIUS
000487:                                                                                                 #  MOON, USE FIXED        MOON, USE RLS FOR
000488:                                                                                                 #        RADIUS                 LUNAR RADIUS
000489:
000490: ???????     4754               ERADFBIT          =        BIT13
000491:
000492:                                                                                                 #                         BIT 12 FLAG 1
000493: ???????                        NODOP01           =        018D                                  #  P01 NOT ALLOWED        P01 ALLOWD
000494:
000495: ???????     4755               NOP01BIT          =        BIT12
000496:
000497:
000498:                                                                                                 #                         BIT 11 FLAG 1
000499: ???????                        ENG2FLAG          =        019D                                  #  RCS BURN               SPS BURN
000500:
000501: ???????     4756               ENG2BIT           =        BIT11
000502:
000503:                                                                                                 #                         BIT 10 FLAG 1
000504: ???????                        TARG1FLG          =        020D                                  #  SIGHTING LEM           NOT SIGHTING LEM
000505:
000506: ???????     4757               TARG1BIT          =        BIT10
000507:
000508:                                                                                                 #                         BIT 9 FLAG 1
000509: ???????                        TARG2FLG          =        021D                                  #  SIGHTING LANDMARK      SIGHTING STAR
000510:
000511: ???????     4760               TARG2BIT          =        BIT9
000512:
000513:                                                                                                 #                         BIT 8 FLAG 1
000514: ???????                        VEHUPFLG          =        022D                                  #  CSM STATE VECTOR       LEM STATE VECTOR
000515:                                                                                                 #  BEING UPDATED          BEING UPDATED
000516:
000517: ???????     4761               VEHUPBIT          =        BIT8
000518:
000519:                                                                                                 #                         BIT 7 FLAG 1
000520: ???????                        UPDATFLG          =        023D                                  #  UPDATING BY MARKS      UPDATING BY MARKS
000521:                                                                                                 #  ALLOWED                NOT ALLOWED
000522:
000523: ???????     4762               UPDATBIT          =        BIT7
000524:
000525:                                                                                                 #                         BIT 6 FLAG 1
000526: ???????                        IDLEFAIL          =        024D                                  #  INHIBIT R41            ENABLE R41 (ENGFAIL)
000527:
000528: ???????     4763               IDLEBIT           =        BIT6
000529:


000531:
000532:                                                                                                 #                         BIT 5 FLAG 1
000533: ???????                        TRACKFLG          =        025D                                  #  TRACKING ALLOWED       TRACKING NOT ALLOWED
000534:
000535: ???????     4764               TRACKBIT          =        BIT5
000536:
000537:                                                                                                 #                         BIT 4 FLAG 1
000538: ???????                        MARKFLG           =        026D                                  #  A MARK HAS BEEN        NO MARK HAS BEEN
000539: ???????     4765               MARKBIT           =        BIT4                                  #  ACCEPTED. ALLOW        ACCEPTED. DO NOT
000540:                                                                                                 #  MARK REJECT.           MARK REJECT.
000541:
000542:
000543:                                                                                                 #                         BIT 3 FLAG 1
000544: ???????                        SLOPESW           =        27D                                   #  ITERATE WITH BIAS      ITERATE WITH REGULA
000545:                                                                                                 #  METHOD IN ITERATOR     FALSI METHOD IN
000546:                                                                                                 #                         ITERATOR
000547:
000548:
000549: ???????     4766               SLOPEBIT          =        BIT3
000550:
000551:                                                                                                 #                         BIT 2 FLAG 1
000552: ???????                        GUESSW            =        028D                                  #  NO STARTING VALUE      STARTING VALUE FOR
000553:                                                                                                 #  FOR ITERATION          ITERATION EXISTS
000554:
000555: ???????     4767               GUESSBIT          =        BIT2
000556:
000557:                                                                                                 #                         BIT 1 FLAG 1
000558: ???????                        AVEGFLAG          =        029D                                  #  AVERAGEG (SERVICER)    AVERAGEG (SERVICER)
000559:                                                                                                 #  TO CONTINUE            TO CEASE
000560:
000561: ???????     4770               AVEGBIT           =        BIT1
000562:
000563: ???????     0076               FLAGWRD2          =        STATE      +2                         #  (030-044)
000564:
000565:                                                                                                 #  (SET)                  (RESET)
000566:
000567:                                                                                                 #                         BIT 15 FLAG 2
000568: ???????                        DRIFTFLG          =        030D                                  #  T3RUPT CALLS GYRO      T3RUPT DOES NO GYRO
000569:                                                                                                 #  COMPENSATION           COMPENSATION
000570:
000571: ???????     4752               DRFTBIT           =        BIT15
000572:
000573:                                                                                                 #                         BIT 14 FLAG 2
000574: ???????                        R21MARK           =        031D                                  #  OPTION ONE FOR OPTION TWO FOR
000575:                                                                                                 #  MARKRUPT               MARKRUPT
000576:
000577: ???????     4753               R21BIT            =        BIT14
000578:
000579:                                                                                                 #                         BIT 13 FLAG 2
000580: ???????                        22DSPFLG          =        032D                                  #  DISPLAY DR,DV          DO NOT DISPLAY DR,DV
000581:


000583: ???????     4754               22DSPBIT          =        BIT13
000584:
000585:                                                                                                 #                         BIT 12 FLAG 2
000586: ???????                        P21FLAG           =        033D                                  #  SUCCEEDING PASS        1ST PASS THRU P21,
000587:                                                                                                 #  THRU P21, USE BASE     CALCULATE BASE
000588: ???????     4755               P21BIT            =        BIT12                                 #  VECTOR FOR CALC.       VECTOR
000589: ???????                        STEERSW           =        034D                                  #  STEERING TO BE DONE    STEERING OMITTED
000590:
000591: ???????     4756               STEERBIT          =        BIT11
000592:
000593:                                                                                                 #                         BIT 10 FLAG 2
000594: ???????                        SKIPVHF           =        035D                                  #  DISREGARD RADAR        RADAR READ TO
000595:                                                                                                 #  READ BECAUSE OF        PROCEED NORMALLY
000596: ???????     4757               SKIPVBIT          =        BIT10                                 #  SFTWRE OR HDWRE
000597:                                                                                                 #  RESTART
000598:
000599:                                                                                                 #                         BIT 9 FLAG 2
000600: ???????                        IMPULSW           =        036D                                  #  MINIMUM IMPULSE        STEERING BURN (NO
000601:                                                                                                 #  BURN (CUTOFF TIME      CUTOFF TIME YET
000602:                                                                                                 #  SPECIFIED)             AVAILABLE)
000603:
000604: ???????     4760               IMPULBIT          =        BIT9
000605:
000606:                                                                                                 #                         BIT 8 FLAG 2
000607: ???????                        XDELVFLG          =        037D                                  #  EXTERNAL DELTAV VG     LAMBERT (AIMPOINT)
000608:                                                                                                 #  COMPUTATION            VG COMPUTATION
000609:
000610: ???????     4761               XDELVBIT          =        BIT8
000611:                                                                                                 #                         BIT 7 FLAG 2
000612: ???????                        ETPIFLAG          =        038D                                  #  ELEVATION ANGLE        TPI TIME SUPPLIED
000613:                                                                                                 #  SUPPLIED FOR P34,74    FOR P34,74
000614:
000615: ???????     4762               ETPIBIT           =        BIT7
000616:
000617:                                                                                                 #                         BIT 7 FLAG 2
000618: ???????  0000046               FIRSTFLG          =        ETPIFLAG                              #  FIRST PASS             SUCCEEDING PASS THRU
000619:                                                                                                 #  THRU S40.9             S40.9
000620:
000621: ???????     4762               FIRSTBIT          =        BIT7
000622:
000623: ???????     4763               FINALBIT          =        BIT6
000624:
000625:                                                                                                 #                         BIT 6 FLAG 2
000626: ???????                        FINALFLG          =        039D                                  #  LAST PASS THROUGH      INTERIM PASS THROUGH
000627:                                                                                                 #  RENDEZVOUS PROGRAM     RENDEZVOUS PROGRAM
000628:                                                                                                 #  COMPUTATIONS           COMPUTATIONS
000629:
000630: ???????     4764               AVFLBIT           =        BIT5
000631:
000632:                                                                                                 #                         BIT 5 FLAG 2


000634: ???????                        AVFLAG            =        040D                                  #  LEM IS ACTIVE          CSM IS ACTIVE
000635:                                                                                                 #  VEHICLE                VEHICLE
000636:
000637:                                                                                                 #                         BIT 4 FLAG 2
000638: ???????                        PFRATFLG          =        041D                                  #  PREFERRED ATTITUDE     PREFERRED ATTITUDE
000639:                                                                                                 #  COMPUTED               NOT COMPUTED
000640:
000641: ???????     4765               PFRATBIT          =        BIT4
000642:
000643:                                                                                                 #                         BIT 3 FLAG 2
000644: ???????                        P24MKFLG          =        042D                                  #  P24 MARKING            P24 NOT MARKING
000645: ???????     4766               P24MKBIT          =        BIT3
000646:
000647:                                                                                                 #                         BIT 2 FLAG 2
000648: ???????                        CALCMAN2          =        043D                                  #  PERFORM MANEUVER       BYPASS STARTING
000649:                                                                                                 #  STARTING PROCEDURE     PROCEDURE
000650:
000651: ???????     4767               CALC2BIT          =        BIT2
000652:
000653:                                                                                                 #                         BIT 1 FLAG 2
000654: ???????                        NODOFLAG          =        044D                                  #  V37 NOT PERMITTED      V37 PERMITTED
000655:
000656: ???????     4770               NODOBIT           =        BIT1
000657:
000658: ???????     0077               FLAGWRD3          =        STATE      +3                         #  (045-059)
000659:
000660:                                                                                                 #  (SET)                  (RESET)
000661:
000662:                                                                                                 #                         BIT 15 FLAG 3
000663: ???????                        V50N18FL          =        045D
000664: ???????     4752               V50N18BT          =        BIT15
000665:
000666:                                                                                                 #                         BIT 14 FLAG 3
000667: ???????                        GLOKFAIL          =        046D                                  #  GIMBAL LOCK HAS        NOT IN GIMBAL LOCK
000668:                                                                                                 #  OCCURED
000669:
000670: ???????     4753               GLOKFBIT          =        BIT14
000671:
000672:                                                                                                 #                         BIT 13 FLAG 3
000673: ???????                        REFSMFLG          =        047D                                  #  REFSMMAT GOOD          REFSMMAT NO GOOD
000674:
000675: ???????     4754               REFSMBIT          =        BIT13
000676:
000677:                                                                                                 #                         BIT 12 FLAG 3
000678: ???????                        LUNAFLAG          =        048D                                  #  LUNAR LAT-LONG EARTH LAT-LONG
000679:
000680: ???????     4755               LUNABIT           =        BIT12
000681:
000682:                                                                                                 #                         BIT 11 FLAG 3


000684: ???????                        P22MKFLG          =        49D                                   #  P22 DOWNLINKED MARK    P22 DOWNLINK MARK
000685:                                                                                                 #  DATA WAS JUST TAKEN    DATA NOT JUST TAKEN
000686:
000687: ???????     4756               P22MKBIT          =        BIT11
000688:
000689:                                                                                                 #                         BIT 10 FLAG 3
000690: ???????                        VFLAG             =        050D                                  #  LESS THAN TWO STARS    TWO STARS IN FIELD
000691:                                                                                                 #  IN FIELD OF VIEW       OF VIEW
000692:
000693: ???????     4757               VFLAGBIT          =        BIT10
000694:
000695:                                                                                                 #                         BIT 9 FLAG 3
000696: ???????                        POOFLAG           =        051D                                  #  INHIBIT BACKWARDS      ALLOW BACKWARDS
000697: ???????     4760               POOBIT            =        BIT9                                  #  INTEGRATION            INTEGRATION
000698:                                                                                                 #                         BIT 8 FLAG 3
000699: ???????                        PRECIFLG          =        052D                                  #  CSMPREC, LEMPREC       INTEGRV CALLED
000700: ???????     4761               PRECIBIT          =        BIT8                                  #  OR INTEGRVS CALLED
000701:
000702:                                                                                                 #                         BIT 7 FLAG 3
000703: ???????                        CULTFLAG          =        053D                                  #  STAR OCCULTED          STAR NOT OCCULTED
000704:
000705: ???????     4762               CULTBIT           =        BIT7
000706:
000707:                                                                                                 #                         BIT 6 FLAG 3
000708: ???????                        ORBWFLAG          =        054D                                  #  W MATRIX VALID FOR     W MATRIX INVALID FOR
000709:                                                                                                 #  ORBITAL N1VIGATION     ORBITAL NAVIGATION
000710:
000711: ???????     4763               ORBWFBIT          =        BIT6
000712:
000713:                                                                                                 #                         BIT 5 FLAG 3
000714: ???????                        STATEFLG          =        055D                                  #  PERMANENT STATE        PERMANENT STATE
000715:                                                                                                 #  VECTOR UPDATED VECTOR NOT UPDATED
000716:
000717: ???????     4764               STATEBIT          =        BIT5
000718:
000719:                                                                                                 #                         BIT 4 FLAG 3
000720: ???????                        INTYPFLG          =        056D                                  #  CONIC INTEGRATION      ENCKE INTEGRATION
000721:
000722: ???????     4765               INTYBIT           =        BIT4
000723:
000724:                                                                                                 #                         BIT 3 FLAG 3
000725: ???????                        VINTFLAG          =        057D                                  #  CSM STATE VECTOR       LEM STATE VECTOR
000726:                                                                                                 #  BEING INTEGRATED       BEING INTEGRATED
000727:
000728: ???????     4766               VINTFBIT          =        BIT3
000729:
000730:                                                                                                 #                         BIT 2 FLAG 3
000731: ???????                        D6OR9FLG          =        058D                                  #  DIMENSION OF W IS 9    DIMENSION OF W IS 6
000732:                                                                                                 #  FOR INTEGRATION        FOR INTEGRATION


000734: ???????     4767               D6OR9BIT          =        BIT2
000735:
000736:                                                                                                 #                         BIT 1 FLAG 3
000737: ???????                        DIM0FLAG          =        059D                                  #  W MATRIX IS TO BE      W MATRIX IS NOT TO
000738:                                                                                                 #  USED                   BE USED
000739:
000740: ???????     0100               FLAGWRD4          =        STATE      +4                         #  (060-074)
000741:
000742:                                                                                                 #  (SET)                  (RESET)
000743:
000744: ???????     4770               DIM0BIT           =        BIT1
000745:
000746:                                                                                                 #                         BIT 15 FLAG 4
000747: ???????                        MRKIDFLG          =        060D                                  #  MARK DISPLAY IN        NO MARK DISPLAY IN
000748:                                                                                                 #  ENDIDLE                ENDIDLE
000749:
000750: ???????     4752               MRKIDBIT          =        BIT15
000751:
000752:                                                                                                 #                         BIT 14 FLAG 4
000753: ???????                        PRIODFLG          =        061D                                  #  PRIORITY DISPLAY IN    NO PRIORITY DISPLAY
000754:                                                                                                 #  ENDIDLE                IN ENDIDLE
000755:
000756: ???????     4753               PRIODBIT          =        BIT14
000757:
000758:                                                                                                 #                         BIT 13 FLAG 4
000759: ???????                        NRMIDFLG          =        062D                                  #  NORMAL DISPLAY IN      NO NORMAL DISPLAY
000760:                                                                                                 #  ENDIDLE                IN ENDIDLE
000761:
000762: ???????     4754               NRMIDBIT          =        BIT13
000763:
000764:                                                                                                 #                         BIT 12 FLAG 4
000765: ???????                        PDSPFLAG          =        063D                                  #  CAN'T INTERRUPT        SEE M. HAMILTON
000766:                                                                                                 #  PRIORITY DISPLAY
000767:
000768: ???????     4755               PDSPFBIT          =        BIT12
000769:
000770:                                                                                                 #                         BIT 11 FLAG 4
000771: ???????                        MWAITFLG          =        064D                                  #  HIGHER PRIORITY        NO HIGHER PRIORITY
000772:                                                                                                 #  DISPLAY OPERATING      DISPLAY OPERATING
000773:                                                                                                 #  WHEN MARK DISPLAY      WHEN MARK DISPLAY
000774:                                                                                                 #  INITIATED              INITIATED
000775: ???????     4756               MWAITBIT          =        BIT11
000776:
000777:                                                                                                 #                         BIT 10 FLAG 4
000778: ???????                        NWAITFLG          =        065D                                  #  HIGHER PRIORITY        NO HIGHER PRIORITY
000779:                                                                                                 #  DISPLAY OPERATING      DISPLAY OPERATING
000780:                                                                                                 #  WHEN NORMAL            WHEN NORMAL DISPLAY
000781:                                                                                                 #  DISPLAY INITIATED      INITIATED


000783: ???????     4757               NWAITBIT          =        BIT10
000784:
000785:                                                                                                 #                         BIT 9 FLAG 4
000786: ???????                        MRKNVFLG          =        066D                                  #  ASTRONAUT USING        ASTRONAUT NOT USING
000787:                                                                                                 #  KEYBOARD WHEN MARK     KEYBOARD WHEN MARK
000788:                                                                                                 #  DISPLAY INITIATED      DISPLAY INITIATED
000789:
000790: ???????     4760               MRKNVBIT          =        BIT9
000791:
000792:                                                                                                 #                         BIT 8 FLAG 4
000793: ???????                        NRMNVFLG          =        067D                                  #  ASTRONAUT USING        ASTRONAUT NOT USING
000794:                                                                                                 #  KEYBOARD WHEN          KEYBOARD WHEN
000795:                                                                                                 #  NORMAL DISPLAY NORMAL DISPLAY
000796:                                                                                                 #  INITIATED              INITIATED
000797:
000798: ???????     4761               NRMNVBIT          =        BIT8
000799:
000800:                                                                                                 #                         BIT 7 FLAG 4
000801: ???????                        PRONVFLG          =        068D                                  #  ASTRONAUT USING        ASTRONAUT NOT USING
000802:                                                                                                 #  KEYBOARD WHEN          KEYBOARD WHEN
000803:                                                                                                 #  PRIORITY DISPLAY       PRIORITY DISPLAY
000804:                                                                                                 #  INITIATED              INITIATED
000805:
000806: ???????     4762               PRONVBIT          =        BIT7
000807:
000808:                                                                                                 #                         BIT 6 FLAG 4
000809: ???????                        PINBRFLG          =        069D                                  #  ASTRONAUT HAS          ASTRONAUT HAS NOT
000810:                                                                                                 #  INTERFERED WITH        INTERFERED WITH
000811:                                                                                                 #  EXISTING DISPLAY       EXISTING DISPLAY
000812:
000813: ???????     4763               PINBRBIT          =        BIT6
000814:
000815:                                                                                                 #                         BIT 5 FLAG 4
000816: ???????                        MRUPTFLG          =        070D                                  #  MARK DISPLAY           MARK DISPLAY NOT
000817:                                                                                                 #  INTERRUPTED BY INTERRUPTED BY
000818:                                                                                                 #  PRIORITY DISPLAY       PRIORITY DISPLAY
000819:
000820: ???????     4764               MRUPTBIT          =        BIT5
000821:
000822:                                                                                                 #                         BIT 4 FLAG 4
000823: ???????                        NRUPTFLG          =        071D                                  #  NORMAL DISPLAY NORMAL DISPLAY NOT
000824:                                                                                                 #  INTERRUPTED BY INTERRUPTED BY
000825:                                                                                                 #  PRIORITY OR MARK       PRIORITY OR MARK
000826:                                                                                                 #  DISPLAY                DISPLAY
000827:
000828: ???????     4765               NRUPTBIT          =        BIT4
000829:
000830:                                                                                                 #                         BIT 3 FLAG 4
000831: ???????                        MKOVFLAG          =        072D                                  #  MARK DISPLAY OVER      NO MARK DISPLAY OVER
000832:                                                                                                 #  NORMAL         NORMAL


000834: ???????     4766               MKOVBIT           =        BIT3
000835:
000836:                                                                                                 #                         BIT 2 FLAG 4    # DISPLAY BIT
000837: ???????                        VNFLAG            =        073D                                  #  DISPLAY IS A           DISPLAY IS NOT A
000838: ???????     4767               VNBIT             =        BIT2                                  #  VNFLASH TYPE           VNFLASH TYPE
000839:
000840:                                                                                                 #                         BIT 1 FLAG 4    # MARK DISPLAY NOT TO   NO SPECIAL MARK
000841: ???????                        XDSPFLAG          =        074D                                  #  BE INTERRUPTED INFORMATION.
000842:
000843: ???????     4770               XDSPBIT           =        BIT1
000844:
000845: ???????     0101               FLAGWRD5          =        STATE      +5                         #  (075-099)
000846:
000847:                                                                                                 #  (SET)                  (RESET)
000848:
000849:                                                                                                 #                         BIT 15 FLAG 5
000850: ???????                        DSKYFLAG          =        075D                                  #  DISPLAYS SENT TO       NO DISPLAYS TO DSKY
000851:                                                                                                 #  DSKY
000852:
000853:
000854: ???????     4752               DSKYBIT           =        BIT15
000855:
000856:                                                                                                 #                         BIT 14 FLAG 5
000857: ???????                        RETROFLG          =        76D                                   #  P37 PREMANEUVER        ORBIT NOT RETROGRADE
000858: ???????     4753               RETROBIT          =        BIT14                                 #  ORBIT IS RETROGRADE
000859:
000860:                                                                                                 #                         BIT 13 FLAG 5
000861: ???????                        SLOWFLG           =        77D                                   #  P37 TRANSEARTH SLOW DOWN IS NOT
000862: ???????     4754               SLOWBIT           =        BIT13                                 #  COAST SLOW DOWN        DESIRED
000863:                                                                                                 #  IS DESIRED
000864:
000865:                                                                                                 #                         BIT 12 FLAG 5
000866: ???????                        V59FLAG           =        078D                                  #  CALIBRATING FOR        NORMAL MARKING FOR
000867:                                                                                                 #  P 23                   P 23
000868:
000869: ???????     4755               V59FLBIT          =        BIT12
000870:
000871:                                                                                                 #                         BIT 11 FLAG 5
000872: ???????                        INCORFLG          =        079D                                  #  FIRST INCORPORATION    SECOND INCORPORATION
000873:
000874: ???????     4756               INCORBIT          =        BIT11
000875:
000876:                                                                                                 #                         BIT 10 FLAG 5
000877: ???????                        NEWTFLAG          =        80D                                   #  RETURN TO P29 SKIP-    NOMRAL OPERATION
000878: ???????     4757               NEWTBIT           =        BIT10                                 #  PING LONGITUDE DIS-
000879:                                                                                                 #  PLAY
000880:
000881:                                                                                                 #                         BIT 9 FLAG 5
000882: ???????                        DMENFLG           =        081D                                  #  DIMENSION OF W IS 9    DIMENSION OF W IS 6
000883:                                                                                                 #  FOR INCORPORATION      FOR INCORPORATION


000885: ???????     4760               DMENFBIT          =        BIT9
000886:
000887:                                                                                                 #                         BIT 8 FLAG 5
000888: ???????                        COMPUTER          =        082D                                  #  COMPUTER IS CMC        COMPUTER IS LGC
000889:
000890: ???????     4761               COMPTBIT          =        BIT8
000891:
000892:                                                                                                 #                         BIT 7 FLAG 5
000893: ???????                        ENGONFLG          =        083D                                  #  ENGINE TURNED ON       ENGINE TURNED OFF
000894:
000895: ???????     4762               ENGONBIT          =        BIT7
000896:
000897:                                                                                                 #                         BIT 6 FLAG 5
000898: ???????                        3AXISFLG          =        084D                                  #  MANEUVER SPECIFIED     MANEUVER SPECIFIED
000899:                                                                                                 #  BY THREE AXES          BY ONE AXIS
000900:
000901: ???????     4763               3AXISBIT          =        BIT6
000902:
000903:                                                                                                 #                         BIT 5 FLAG 5
000904: ???????                        GRRBKFLG          =        085D                                  #  BACKUP GRR RECEIVED    BACKUP GRR NOT
000905:                                                                                                 #                         RECEIVED
000906:
000907: ???????     4764               GRRBKBIT          =        BIT5
000908:
000909:                                                                                                 #                         BIT 4 FLAG 5
000910: ???????                                          =        086D
000911:
000912:
000913:                                                                                                 #                         BIT 3 FLAG 5
000914: ???????                        SOLNSW            =        87D                                   #  LAMBERT DOES NOT       LAMBERT CONVERGES OR
000915:                                                                                                 #  CONVERGE, OR TIME-     TIME-RADIUS NON
000916:                                                                                                 #  RADIUS NEARLY CIRC.    CIRCULAR.
000917:
000918:
000919: ???????     4766               SOLNSBIT          =        BIT3
000920:
000921:                                                                                                 #                         BIT 2 FLAG 5
000922: ???????                        MGLVFLAG          =        088D                                  #  LOCAL VERTICAL MIDDLE GIMBAL ANGLE
000923:                                                                                                 #  COORDINATES            COMPUTED
000924:                                                                                                 #  COMPUTED
000925:
000926: ???????     4767               MGLVFBIT          =        BIT2
000927:
000928:                                                                                                 #                         BIT 1 FLAG 5
000929: ???????                        RENDWFLG          =        089D                                  #  W MATRIX VALID W MATRIX INVALID
000930:                                                                                                 #  FOR RENDEZVOUS FOR RENDEZVOUS
000931:                                                                                                 #  NAVIGATION             NAVIGATION
000932:
000933: ???????     4770               RENDWBIT          =        BIT1
000934:


000936:
000937: ???????     0102               FLAGWRD6          =        STATE      +6                         #  (090-104)
000938:
000939:                                                                                                 #  (SET)                  (RESET)
000940:
000941:                                                                                                 #                         BIT 15 FLAG 6
000942: ???????                        DAPBIT1           =        090D                                  #  1 SATURN 1 TVC 0 RCS   0 NO
000943:
000944:
000945: ???????     4752               DAP1BIT           =        BIT15
000946:
000947:                                                                                                 #                         BIT 14 FLAG 6
000948: ???????                        DAPBIT2           =        091D                                  #  1 A/P    0 A/P 1 A/P   0 A/P
000949:
000950: ???????     4753               DAP2BIT           =        BIT14
000951:
000952:                                                                                                 #                         BIT 13 FLAG 6
000953: ???????                        STRULLSW          =        92D                                   #  DO STEERULL            DO ULAGEOFF ONLY
000954:
000955: ???????     4754               STRULBIT          =        BIT13
000956:
000957:                                                                                                 #                         BIT 13 FLAG 6
000958: ???????  0000134               ENTRYDSP          =        STRULLSW                              #  DO ENTRY DISPLAY       OMIT ENTRY DISPLAY
000959:                                                                                                 #  VIA ENTRYVN.
000960:
000961: ???????     4754               ENDSPBIT          =        BIT13
000962:
000963:                                                                                                 #                         BIT 12 FLAG 6
000964: ???????                        CMDAPARM          =        093D                                  #  ALLOW ENTRY FIRINGS    INHIBIT ENTRY FIRING
000965:                                                                                                 #  AND CALCULATIONS       AND CONTROL FUNCTION
000966: ???????     4755               CMARMBIT          =        BIT12
000967:
000968:                                                                                                 #                                 DO NOT SHARE BIT12 WITH PROGRAMS USING SERVICER
000969:
000970:                                                                                                 #                         BIT 11 FLAG 6
000971: ???????                        GAMDIFSW          =        094D                                  #  CALCULATE GAMDOT       GAMDOT NOT TO BE
000972:                                                                                                 #                         CALCULATED
000973:
000974: ???????     4756               GMDIFBIT          =        BIT11
000975:
000976:                                                                                                 #                         BIT 10 FLAG 6
000977: ???????                        GONEPAST          =        095D                                  #  LATERAL CONTROL        LATERAL CONTROL
000978:                                                                                                 #  CALCULATIONS TO BE     CALCULATIONS TO BE
000979:                                                                                                 #  OMITTED                DONE
000980:
000981: ???????     4757               GONEBIT           =        BIT10
000982:
000983:                                                                                                 #                         BIT 9 FLAG 6
000984: ???????                        RELVELSW          =        096D                                  #  TARGETING USES TARGETING USES
000985:                                                                                                 #  EARTH-RELATIVE INERTIAL VELOCITY


000987:                                                                                                 #  VELOCITY
000988:
000989: ???????     4760               RELVBIT           =        BIT9
000990:
000991:                                                                                                 #                         BIT 8 FLAG 6
000992: ???????                        EGSW              =        097D                                  #  IN FINAL PHASE NOT IN FINAL PHASE
000993:
000994: ???????     4761               EGFLGBIT          =        BIT8
000995:
000996:                                                                                                 #                         BIT 8 FLAG 6
000997: ???????  0000141               KNOWNFLG          =        EGSW                                  #  LANDMARK KNOWN LANDMARK UNKNOWN
000998:
000999: ???????     4761               KNOWNBIT          =        BIT8
001000:
001001:                                                                                                 #                         BIT 7 FLAG 6
001002: ???????                        NOSWITCH          =        098D                                  #  LATERAL ROLL           LATERAL ROLL MANEUVER
001003: ???????     4762               NOSWBIT           =        BIT7                                  #  MANEUVER INHIBITED     PERMITTED IN ENTRY
001004:                                                                                                 #  IN ENTRY
001005:
001006:
001007:                                                                                                 #                         BIT 6 FLAG 6
001008: ???????                        HIND              =        099D                                  #  ITERATING HUNTEST      ITERATING OF HUNTEST
001009:                                                                                                 #  CALCULATIONS TO BE     CALCULATIONS TO BE
001010:                                                                                                 #  DONE AFTER RANGE       OMITTED AFTER RANGE
001011:                                                                                                 #  PREDICTION             PREDICTION
001012:
001013: ???????     4763               HINDBIT           =        BIT6
001014:
001015:                                                                                                 #                         BIT 5 FLAG 6
001016: ???????                        INRLSW            =        100D                                  #  INITIAL ROLL           INITIAL ROLL
001017:                                                                                                 #  V(LV)                  V(LV)
001018:
001019: ???????     4764               INRLBIT           =        BIT5
001020:
001021:                                                                                                 #  ATTITUDE NOT HELD      ATTITUDE HELD
001022:
001023:                                                                                                 #                         BIT 4 FLAG 6
001024: ???????                        LATSW             =        101D                                  #  DOWNLIFT NOT           DOWNLIFT INHIBITED
001025:                                                                                                 #  INHIBITED
001026:
001027: ???????     4765               LATSWBIT          =        BIT4
001028:
001029:                                                                                                 #                         BIT 3 FLAG 6
001030: ???????                        .05GSW            =        102D                                  #  DRAG OVER .05G DRAG LESS THAN .05G
001031:
001032: ???????     4766               .05GBIT           =        BIT3
001033:
001034:                                                                                                 #                                 DO NOT SHARE BIT3 WITH PROGRAMS USING SERVICER
001035:
001036:                                                                                                 #                         BIT 2 FLAG 6


001038: ???????                        CM/DSTBY          =        103D                                  #  ENTRY DAP ACTIVATED    ENTRY DAP NOT
001039:                                                                                                 #                         ACTIVATED
001040:
001041: ???????     4767               CM/DSBIT          =        BIT2
001042:
001043:                                                                                                 #                                 DO NOT SHARE BIT2  WITH PROGRAMS USING SERVICER
001044:
001045:                                                                                                 #                         BIT 1 FLAG 6
001046: ???????                        GYMDIFSW          =        104D                                  #  CDU DIFFERENCES AND    CDU DIFFERENCES AND
001047:                                                                                                 #  BODY RATES COMPUTED    BODY RATES NOT
001048:                                                                                                 #                         COMPUTED
001049:
001050: ???????     4770               GYMDIBIT          =        BIT1
001051:
001052: ???????     0103               FLAGWRD7          =        STATE      +7                         #  (105-119)
001053:
001054:                                                                                                 #  (SET)                  (RESET)
001055:
001056:                                                                                                 #                         BIT 15 FLAG 7
001057: ???????                        TERMIFLG          =        105D                                  #  TERMINATE R52          DO NOT TERMINATE R52
001058: ???????     4752               TERMIBIT          =        BIT15
001059:
001060:                                                                                                 #                         BIT 14 FLAG 7
001061: ???????                        ITSWICH           =        106D                                  #  ACCEPT NEXT LAMBERT    TEST LAMBERT ANSWER
001062:                                                                                                 #  TPI SEARCH SOLUTION    AGAINST LIMITS
001063:
001064: ???????     4753               ITSWBIT           =        BIT14
001065:
001066:                                                                                                 #                         BIT 13 FLAG 7
001067: ???????                        IGNFLAG           =        107D                                  #  TIG HAS ARRIVED        TIG HAS NOT ARRIVED
001068:
001069: ???????     4754               IGNFLBIT          =        BIT13
001070:
001071:                                                                                                 #                         BIT 12 FLAG 7
001072: ???????                        ASTNFLAG          =        108D                                  #  ASTRONAUT HAS          ASTRONAUT HAS NOT
001073:                                                                                                 #  OKAYED IGNITION        OKAYED IGNITION
001074:
001075: ???????     4755               ASTNBIT           =        BIT12
001076:
001077:                                                                                                 #                         BIT 11 FLAG 7
001078: ???????                        TIMRFLAG          =        109D                                  #  CLOKTASK OPERATING     CLOKTASK INOPERATIVE
001079:
001080: ???????     4756               TIMRBIT           =        BIT11
001081:
001082:                                                                                                 #                         BIT 10 FLAG 7
001083: ???????                        NORMSW            =        110D                                  #  UNIT NORMAL INPUT      LAMBERT COMPUTE ITS
001084:                                                                                                 #  TO LAMBERT.            OWN UNIT NORMAL.
001085:
001086:
001087: ???????     4757               NORMSBIT          =        BIT10
001088:


001090:                                                                                                 #                         BIT 9 FLAG 7
001091: ???????                        RVSW              =        111D                                  #  DO NOT COMPUTE FINAL   COMPUTE FINAL STATE
001092:                                                                                                 #  STATE VECTOR IN        VECTOR IN TIME-THETA
001093:                                                                                                 #  TIME-THETA
001094:
001095:
001096: ???????     4760               RVSWBIT           =        BIT9
001097:
001098:                                                                                                 #                         BIT 8 FLAG 7
001099: ???????                        GONEBY            =        112D                                  #  PASSED TARGET          APPROACHING TARGET
001100:
001101: ???????     4761               GONBYBIT          =        BIT8
001102:
001103:                                                                                                 #                         BIT 7 FLAG 7
001104: ???????                                          =        113D
001105:
001106:                                                                                                 #                         BIT 6 FLAG 7
001107: ???????                        V37FLAG           =        114D                                  #  AVERAGEG (SERVICER)    AVERAGEG (SERVICER)
001108:                                                                                                 #  RUNNING                OFF
001109:
001110: ???????     4763               V37FLBIT          =        BIT6
001111:
001112:                                                                                                 #                         BIT 5 FLAG 7
001113: ???????                                          =        115D
001114:
001115:                                                                                                 #                         BIT 4 FLAG 7
001116: ???????                        UPLOCKFL          =        116D                                  #  K-KBAR-K FAIL          NO K-KBAR-K FAIL
001117:
001118: ???????     4765               UPLOCBIT          =        BIT4
001119:
001120:                                                                                                 #                         BIT 3 FLAG 7
001121: ???????                        VERIFLAG          =        117D                                  #  CHANGED WHEN V33E OCCURS AT END OF P27
001122:
001123: ???????     4766               VERIFBIT          =        BIT3
001124:
001125:                                                                                                 #                         BIT 2 FLAG 7
001126: ???????                        ATTCHFLG          =        118D                                  #  LM,CM ATTACHED LM,CM NOT ATTACHED
001127:
001128: ???????     4767               ATTCHBIT          =        BIT2
001129:
001130:                                                                                                 #                         BIT 1 FLAG 7
001131: ???????                        TFFSW             =        119D                                  #  CALCULATE TPERIGEE     CALCULATE TFF
001132:
001133: ???????     4770               TFFSWBIT          =        BIT1
001134:
001135: ???????     0104               FLAGWRD8          =        STATE      +8D                        #  (120-134)
001136:
001137:                                                                                                 #  (SET)                  (RESET)
001138:
001139:                                                                                                 #                         BIT 15 FLAG 8


001141: ???????                        RPQFLAG           =        120D                                  #  RPQ NOT COMPUTED       RPQ COMPUTED
001142:
001143: ???????     4752               RPQFLBIT          =        BIT15
001144:
001145:                                                                                                 #                         BIT 14 FLAG 8
001146: ???????                        NEWLMFLG          =        121D                                  #  NEW LANDMARK COORD     OLD LANDMARK COORD
001147: ???????     4753               NEWLMBIT          =        BIT14
001148:
001149:                                                                                                 #                         BIT 13 FLAG 8
001150: ???????                        NEWIFLG           =        122D                                  #  FIRST PASS THROUGH     SUCCEEDING ITERATION
001151:                                                                                                 #  INTEGRATION            OF INTEGRATION
001152:
001153: ???????     4754               NEWIBIT           =        BIT13
001154:
001155:                                                                                                 #                         BIT 12 FLAG 8
001156: ???????                        CMOONFLG          =        123D                                  #  PERMANENT CSM STATE    PERMANENT CSM STATE
001157: ???????     4755               CMOONBIT          =        BIT12                                 #  IN LUNAR SPHERE        IN EARTH SPHERE
001158:
001159:                                                                                                 #                         BIT 11 FLAG 8
001160: ???????                        LMOONFLG          =        124D                                  #  PERMANENT LM  STATE    PERMANENT LM  STATE
001161: ???????     4756               LMOONBIT          =        BIT11                                 #  IN LUNAR SPHERE        IN EARTH SPHERE
001162:
001163:                                                                                                 #                         BIT 10 FLAG 8
001164: ???????                        ADVTRK            =        125D                                  #  ADVANCE GROUND TRACK   NOT ADVANCED
001165:                                                                                                 #  SIGHTING WANTED        GROUND TRACK
001166:
001167: ???????     4757               ADVTKBIT          =        BIT10
001168:
001169:                                                                                                 #                         BIT 9 FLAG 8
001170: ???????                        UTFLAG            =        126D                                  #  UNIVERSAL TRACKING     NO UNIVERSAL TRACKING
001171: ???????     4760               UTBIT             =        BIT9
001172:
001173:                                                                                                 #                         BIT 8 FLAG 8
001174: ???????                        SURFFLAG          =        127D                                  #  LM ON LUNAR SURFACE    LM NOT ON LUNAR
001175:                                                                                                 #                         SURFACE
001176:
001177: ???????     4761               SURFFBIT          =        BIT8
001178:
001179:                                                                                                 #                         BIT 7 FLAG 8
001180: ???????                        INFINFLG          =        128D                                  #  NO CONIC SOLUTION      CONIC SOLUTION
001181:                                                                                                 #  (CLOSURE THROUGH       EXISTS.
001182:                                                                                                 #  INFINITY REQUIRED).
001183:
001184: ???????     4762               INFINBIT          =        BIT7
001185:
001186:                                                                                                 #                         BIT 6 FLAG 8
001187: ???????                        ORDERSW           =        129D                                  #  ITERATOR USES 2ND      ITERATOR USES 1ST
001188:                                                                                                 #  ORDER MINIMUM MODE.    ORDER STANDARD MODE.


001190: ???????     4763               ORDERBIT          =        BIT6
001191:
001192:                                                                                                 #                         BIT 5 FLAG 8
001193: ???????                        APSESW            =        130D                                  #  RDESIRED OUTSIDE       RDESIRED INSIDE
001194:                                                                                                 #  PERICENTER-APOCENTER   PERICENTER-APOCENTER
001195:                                                                                                 #  RANGE IN TIME-RAD      RANGE IN TIME-RADIUS
001196:
001197:
001198: ???????     4764               APSESBIT          =        BIT5
001199:
001200:                                                                                                 #                         BIT 4 FLAG 8
001201: ???????                        COGAFLAG          =        131D                                  #  NO CONIC SOLUTION      CONIC SOLUTION
001202:                                                                                                 #  TOO CLOSE TO           EXISTS (COGA DOES
001203:                                                                                                 #  RECTILINEAR (COGA      NOT OVERFLOW).
001204:                                                                                                 #  OVERFLOWS).
001205:
001206:
001207: ???????     4765               COGAFBIT          =        BIT4
001208:
001209:                                                                                                 #                         BIT 3 FLAG 8
001210: ???????                        V96ONFLG          =        132D                                  #  P00 INTEGRATION HAS    P00 INTEGRATION IS
001211:                                                                                                 #  BEEN INHIBITED BY      PROCEEDING REGULARLY
001212: ???????     4766               V96ONBIT          =        BIT3                                  #  V96
001213:
001214:                                                                                                 #                         BIT 2 FLAG 8
001215: ???????                        R67FLAG           =        133D                                  #  R67 CALLING R60        NOT R67 CALLING R60
001216: ???????     4767               R67BIT            =        BIT2
001217:
001218:                                                                                                 #                         BIT 1 FLAG 8
001219: ???????                        360SW             =        134D                                  #  TRANSFER ANGLE NEAR    TRANSFER ANGLE NOT
001220:                                                                                                 #  360 DEGREES            NEAR 360 DEGREES
001221:
001222: ???????     4770               360SWBIT          =        BIT1
001223:
001224: ???????     0105               FLAGWRD9          =        STATE      +9D                        #  (135-149)
001225:
001226:                                                                                                 #  (SET)                  (RESET)
001227:                                                                                                 #                         BIT 15 FLAG 9
001228: ???????                        SWTOVER           =        135D                                  #  SWITCHOVER HAS NO SWITCHOVER YET
001229:                                                                                                 #  OCCURRED
001230:
001231: ???????     4752               SWTOVBIT          =        BIT15
001232:
001233:                                                                                                 #                         BIT 14 FLAG 9
001234: ???????                        P24FLAG           =        136D                                  #  P24 RUNNING            P24 NOT RUNNING
001235: ???????     4753               P24BIT            =        BIT14
001236:
001237:                                                                                                 #                         BIT 13 FLAG 9
001238: ???????                        V82EMFLG          =        137D                                  #  MOON VICINITY          EARTH VICINITY
001239:


001241: ???????     4754               V82EMBIT          =        BIT13
001242:
001243:                                                                                                 #                         BIT 12 FLAG 9
001244: ???????                        MAXDBFLG          =        138D                                  #  MAX DB SELECTED        MIN DB SELECTED
001245:
001246:
001247: ???????     4755               MAXDBBIT          =        BIT12
001248:
001249:                                                                                                 #                         BIT 11 FLAG 9
001250: ???????                        V94FLAG           =        139D                                  #  V94 ALLOWED DURING     V94 NOT ALLOWED
001251:                                                                                                 #  P23
001252:
001253: ???????     4756               V94FLBIT          =        BIT11
001254:
001255:                                                                                                 #                         BIT 10 FLAG 9
001256: ???????                        SAVECFLG          =        140D                                  #  P23 DISPLAY AND        P23 DISPLAY AND
001257:                                                                                                 #  DATA STORAGE AFTER     DATA STORAGE BEFORE
001258:                                                                                                 #  MARK IS DONE           MARK IS DONE
001259:
001260: ???????     4757               SAVECBIT          =        BIT10
001261:
001262:                                                                                                 #                         BIT 9 FLAG 9
001263: ???????                        VHFRFLAG          =        141D                                  #  ALLOW R22 TO           STOP ACCEPTANCE
001264:                                                                                                 #  ACCEPT RANGE           OF RANGE DATA
001265:                                                                                                 #  DATA
001266:
001267: ???????     4760               VHFRBIT           =        BIT9
001268:
001269:                                                                                                 #                         BIT 8 FLAG 9
001270: ???????                        SOURCFLG          =        142D                                  #  SOURCE OF INPUT        SOURCE OF INPUT
001271:                                                                                                 #  DATA IS FROM           DATA IS FROM
001272:                                                                                                 #  VHF RADAR              OPTICS MARK
001273:
001274: ???????     4761               SOURCBIT          =        BIT8
001275:
001276:                                                                                                 #                         BIT 7 FLAG 9
001277: ???????                        R22CAFLG          =        143D                                  #  R22 IS PROCESSING      R22 IS NOT PROCESSING
001278:                                                                                                 #  AN OPTICS MARK AN OPTICS MARK
001279:
001280: ???????     4762               R22CABIT          =        BIT7
001281:
001282:                                                                                                 #                         BIT 6 FLAG 9
001283: ???????                        N22ORN17          =        144D                                  #  COMPUTE TOTAL          COMPUTE TOTAL
001284:                                                                                                 #  ATTITUDE ERRORS        ATTITUDE ERRORS
001285:                                                                                                 #  WRT N22 (V62)          WRT N17 (V63)
001286:
001287: ???????     4763               N2217BIT          =        BIT6
001288:
001289:                                                                                                 #                         BIT 5 FLAG 9
001290: ???????                        QUITFLAG          =        145D                                  #  TERMINATE AND EXIT     CONTINUE INTEGRATION


001292: ???????     4764               QUITBIT           =        BIT5                                  #  FROM INTEGRATION
001293:
001294:                                                                                                 #                         BIT 4 FLAG 9
001295: ???????                        R31FLAG           =        146D                                  #  R31 SELECTED (V83)     R34 SELECTED (V85)
001296:
001297: ???????     4765               R31FLBIT          =        BIT4
001298:
001299:                                                                                                 #                         BIT 3 FLAG 9
001300: ???????                        MID1FLAG          =        147D                                  #  INTEGRATE TO TDEC      INTEGRATE TO THE
001301:                                                                                                 #                         THEN-PRESENT TIME
001302:
001303: ???????     4766               MID1FBIT          =        BIT3
001304:
001305:                                                                                                 #                         BIT 2 FLAG 9
001306: ???????                        MIDAVFLG          =        148D                                  #  INTEGRATION ENTERED    INTEGRATION WAS
001307:                                                                                                 #  FROM ONE OF MIDTOAV    NOT ENTERED VIA
001308:                                                                                                 #  PORTALS                MIDTOAV
001309:
001310: ???????     4767               MIDAVBIT          =        BIT2
001311:
001312:                                                                                                 #                         BIT 1 FLAG 9
001313: ???????                        AVEMIDSW          =        149D                                  #  AVETOMID CALLING       NO AVETOMID W INTEGER
001314:                                                                                                 #  FOR W MATRIX INTEGR    ALLOW SET UP RN,VN,
001315:                                                                                                 #  DONT WRITE OVER RN,    PIPTIME
001316:                                                                                                 #  VN,PIPTIME
001317:
001318: ???????     4770               AVEMDBIT          =        BIT1
001319:
001320:                                                                                                 #  (SET)                  (RESET)
001321:
001322: ???????     0106               FLGWRD10          =        STATE      +10D                       #  (150-164)
001323:
001324:
001325:                                                                                                 #                         BIT 15 FLAG 10
001326: ???????                        PCMANFLG          =        150D                                  #  P20 MANEUVER           NOT P20 PC
001327:                                                                                                 #  AT PLANE CHANGE        MANEUVER
001328: ???????     4752               PCMANBIT          =        BIT15
001329:
001330:                                                                                                 #                         BIT 14 FLAG 10
001331: ???????                        INTFLAG           =        151D                                  #  INTEGRATION IN INTEGRATION NOT IN
001332:                                                                                                 #  PROGRESS               PROGRESS
001333:
001334: ???????     4753               INTFLBIT          =        BIT14
001335:
001336:                                                                                                 #                         BIT 13 FLAG 10
001337: ???????                        REINTFLG          =        152D                                  #  INTEGRATION ROUTINE    INTEGRATION ROUTINE
001338:                                                                                                 #  TO BE RESTARTED        NOT TO BE RESTARTED
001339: ???????     4754               REINTBIT          =        BIT13
001340:


001342:                                                                                                 #                         BIT 12 FLAG 10
001343: ???????                        REJCTFLG          =        153D                                  #  MARK TO BE REJECTED    NO MARK REJECT BY
001344:                                                                                                 #  IN R22         R22
001345: ???????     4755               REJCTBIT          =        BIT12
001346:
001347:
001348:                                                                                                 #                         BIT 11 FLAG 10
001349: ???????                        HDSUPFLG          =        154D
001350: ???????     4756               HDSUPBIT          =        BIT11                                 #  HEADS UP ATTITUDE      HEADS DOWN ATTITUDE
001351:
001352:
001353:                                                                                                 #                         BIT 10 FLAG 10
001354: ???????                        BURNFLAG          =        155D                                  #  CSM DID BURN           LM DID BURN
001355: ???????     4757               BURNBIT           =        BIT10
001356:
001357:                                                                                                 #                         BIT 9 FLAG 10
001358: ???????                        RANGFLAG          =        156D                                  #  RANGE < 328 N.M        RANGE > 328 N.M.
001359: ???????     4760               RANGBIT           =        BIT9
001360:
001361:                                                                                                 #                         BIT 8 FLAG 10
001362: ???????                        P35FLAG           =        157D                                  #  MCC TARGETING DONE     NOT YET MCC
001363: ???????     4761               P35BIT            =        BIT8
001364:
001365:                                                                                                 #                         BIT 7 FLAG 10
001366: ???????                        AUTOSEQ           =        158D                                  #  AUTOMATIC RENDEZVOUS   AUTOMATIC RENDEZ-
001367:
001368:                                                                                                 #  SEQUENCE IS RUNNING    VOUS NOT RUNNING
001369: ???????     4762               AUTSQBIT          =        BIT7
001370:
001371:                                                                                                 #                         BIT 6 FLAG 10
001372: ???????                                          =        159D
001373:                                                                                                 #                         BIT 5 FLAG 10
001374: ???????                        MANEUFLG          =        160D                                  #  MANEUVER,P76,          MARK INCORPORATED
001375:                                                                                                 #  OR PLANNED MANEUVER
001376: ???????     4764               MANEUBIT          =        BIT5
001377:
001378:                                                                                                 #                         BIT 4 FLAG 10
001379: ???????                        PTV93FLG          =        161D                                  #  V93 TO BE DONE MANEUVER AND
001380:                                                                                                 #  AFTER MANEUVER V93 DONE
001381: ???????     4765               PTV93BIT          =        BIT4
001382:
001383:                                                                                                 #                         BIT 3 FLAG 10
001384: ???????                        TPIMNFLG          =        162D                                  #  TPI MANEUVER HAS
001385:                                                                                                 #  BEEN DONE
001386: ???????     4766               TPIMNBIT          =        BIT3
001387:
001388:                                                                                                 #                         BIT 2 FLAG 10
001389: ???????                        FULTKFLG          =        163D                                  #  ONLY OPTICS OR VHF     OPTICS AND VHF
001390:                                                                                                 #  MARKS BEING TAKEN      MARKS TAKEN
001391: ???????     4767               FULTKBIT          =        BIT2
001392:


001394:                                                                                                 #                         BIT 1 FLAG 10
001395: ???????                        PCFLAG            =        164D                                  #  PLANE CHANGE           NOT PLANE CHANGE
001396:                                                                                                 #  TARGETTING
001397: ???????     4770               PCBIT             =        BIT1
001398: ???????     0107               FLGWRD11          =        STATE      +11D                       #  (165-179)
001399:
001400:                                                                                                 #  (SET)                  (RESET)
001401:
001402:                                                                                                 #                         BIT 15 FLAG 11
001403: ???????                        S32.1F1           =        165D                                  #  DELTAN AT CSI TIME     DVT1 LESS THAN MAX
001404: ???????     4752               S32BIT1           =        BIT15                                 #  ONE EXCEEDS MAX
001405:
001406:                                                                                                 #                         BIT 14 FLAG 11
001407: ???????                        S32.1F2           =        166D                                  #  FIRST PASS OF  REITERATION OF
001408: ???????     4753               S32BIT2           =        BIT14                                 #  NEWTON INTERATION      NEWTON
001409:
001410:                                                                                                 #                         BIT 13 FLAG 11
001411: ???????                        S32.1F3A          =        167D                                  #  BIT 13 AND BIT 12 FUNCTION AS AN ORDERED
001412: ???????     4754               S32BIT3A          =        BIT13                                 #  PAIR (13,12) INDICATING THE POSSIBLE OC-
001413:                                                                                                 #  CURRENCE OF 2NEWTON ITERATIONS FOR S32.1
001414:                                                                                                 #                         BIT 12 FLAG 11  # IN THE PROGRAM IN THE FOLLOWING ORDER:
001415: ???????                        S32.1F3B          =        168D                                  #  (0,1) (I.E.BIT 13 RESET, BIT 12 SET)
001416: ???????     4755               S3229T3B          =        BIT12                                 #       = FIRST NEWTON ITERATION BEING DONE
001417:                                                                                                 #  (0,0)= FIRST PASS OF 2ND NEWTON ITER.
001418:                                                                                                 #  (1,1)= 50 FPS STAGE OF 2ND NEWT ITER.
001419:                                                                                                 #  (1,0)= REMAINDER OF 2ND NEWT ITER.
001420:
001421:                                                                                                 #                         BIT 11 FLAG 11
001422: ???????                                          =        169D
001423:
001424:                                                                                                 #                         BIT 10 FLAG 11
001425: ???????                                          =        170D
001426:
001427:                                                                                                 #                         BIT 9 FLAG 11
001428: ???????                                          =        171D
001429:
001430:                                                                                                 #                         BIT 8 FLAG 11
001431: ???????                        AZIMFLAG          =        172D                                  #  3-AXIS UT              VECPOINT UT
001432: ???????     4761               AZIMBIT           =        BIT8
001433:
001434:                                                                                                 #                         BIT 7 FLAG 11
001435: ???????                        HAFLAG            =        173D                                  #  HEIGHT ADJUST          NOT HEIGHT ADJUST
001436: ???????     4762               HABIT             =        BIT7                                  #  MANEUVER PROG
001437:
001438:                                                                                                 #                         BIT 6 FLAG 11
001439: ???????                        CSISFLAG          =        174D                                  #  MULTIPLE CSI S NOT MULTIPLE CSI
001440:
001441:
001442:                                                                                                 #  REQUESTED
001443: ???????     4763               CSISBIT           =        BIT6
001444:


001446:                                                                                                 #                         BIT 5 FLAG 11
001447: ???????                                          =        175D
001448:
001449:                                                                                                 #                         BIT 4 FLAG 11
001450: ???????                                          =        176D
001451:
001452:                                                                                                 #                         BIT 3 FLAG 11
001453: ???????                                          =        177D
001454:
001455:                                                                                                 #                         BIT 2 FLAG 11
001456: ???????                                          =        178D
001457:
001458:                                                                                                 #                         BIT 1 FLAG 11
001459: ???????                                          =        179D
001460:


001462:                                                                                                 #  GENERAL ERASABLE ASSIGNMENTS.
001463:
001464:    0061                                          SETLOC   61
001465:                                                                                                 #         INTERRUPT TEMPORARY STORAGE POOL.  (11D)
001466:                                                                                                 #           (ITEMP1 THROUGH RUPTREG4)
001467:
001468:                                                                                                 #         ANY OF THESE MAY BE USED AS TEMPORARIES DURING INTERRUPT OR WITH INTERRUPT INHIBITED. THE ITEMP SERIES
001469:                                                                                                 #  IS USED DURING CALLS TO THE EXECUTIVE AND WAITLIST - THE RUPTREGS ARE NOT.
001470:
001471:    0061                        ITEMP1            ERASE
001472:    0062     0061               WAITEXIT          EQUALS   ITEMP1
001473:    0062     0061               EXECTEM1          EQUALS   ITEMP1
001474:
001475:    0062                        ITEMP2            ERASE
001476:    0063     0062               WAITBANK          EQUALS   ITEMP2
001477:    0063     0062               EXECTEM2          EQUALS   ITEMP2
001478:
001479:    0063                        ITEMP3            ERASE
001480:    0064     0063               RUPTSTOR          EQUALS   ITEMP3
001481:    0064     0063               WAITADR           EQUALS   ITEMP3
001482:    0064     0063               NEWPRIO           EQUALS   ITEMP3
001483:
001484:    0064                        ITEMP4            ERASE
001485:    0065     0064               LOCCTR            EQUALS   ITEMP4
001486:    0065     0064               WAITTEMP          EQUALS   ITEMP4
001487:
001488:    0065                        ITEMP5            ERASE
001489:    0066     0065               NEWLOC            EQUALS   ITEMP5
001490:
001491:    0066                        ITEMP6            ERASE
001492:    0067     0066               NEWLOC+1          EQUALS   ITEMP6                                #  DP ADDRESS.
001493:
001494:    0067                                          SETLOC   67
001495:    0067                        NEWJOB            ERASE                                          #  MUST BE AT LOC 67 DUE TO WIRING.
001496:
001497:    0070                        RUPTREG1          ERASE
001498:    0071                        RUPTREG2          ERASE
001499:    0072                        RUPTREG3          ERASE
001500:    0073                        RUPTREG4          ERASE
001501:    0074     0073               KEYTEMP1          EQUALS   RUPTREG4
001502:    0074     0073               DSRUPTEM          EQUALS   RUPTREG4
001503:
001504:                                                                                                 #         FLAGWORD RESERVATIONS.                                          (12D)
001505:
001506:    0074                        STATE             ERASE    +11D
001507:
001508:                                                                                                 #         UNSWITCHED DAP ERASABLE.                                        (4D)
001509:    0110                        T6LOC             ERASE
001510:    0111                        T6ADR             ERASE


001512:    0112                        T5LOC             ERASE    +1
001513:
001514:
001515:                                                                                                 #         EXEC TEMPORARIES WHICH MAY BE USED BETWEEN CCS NEWJOBS.
001516:                                                                                                 #         (INTB15+ THROUGH RUPTMXM)                                       (32D)
001517:
001518:    0114                        INTB15+           ERASE                                          #  REFLECTS 15TH BIT OF INDEXABLE ADDRESSES
001519:    0115     0114               DSEXIT            EQUALS   INTB15+                               #  RETURN FOR DSPIN
001520:    0115     0114               EXITEM            EQUALS   INTB15+                               #  RETURN FOR SCALE FACTOR ROUTINE SELECT
001521:    0115                        INTBIT15          ERASE                                          #  SIMILAR TO ABOVE.
001522:    0116     0115               WDRET             EQUALS   INTBIT15                              #  RETURN FOR DSPWD
001523:    0116     0115               DECRET            EQUALS   INTBIT15                              #  RETURN FOR PUTCOM(DEC LOAD)
001524:    0116     0115               21/22REG          EQUALS   INTBIT15                              #  TEMP FOR CHARIN
001525:
001526:                                                                                                 #  THE REGISTERS BETWEEN ADDRWD AND PRIORITY MUST STAY IN THE FOLLOWING ORDER FOR INTERPRETIVE TRACE.
001527:
001528:    0116                        ADDRWD            ERASE                                          #  12 BIT INTERPRETIVE OPERAND SUB-ADDRESS.
001529:    0117                        POLISH            ERASE                                          #  HOLDS CADR MADE FROM POLISH ADDRESS.
001530:    0120     0117               UPDATRET          EQUALS   POLISH                                #  RETURN FOR UPDATNN, UPDATVB
001531:    0120     0117               CHAR              EQUALS   POLISH                                #  TEMP FOR CHARIN
001532:    0120     0117               ERCNT             EQUALS   POLISH                                #  COUNTER FOR ERROR LIGHT RESET
001533:    0120     0117               DECOUNT           EQUALS   POLISH                                #  COUNTER FOR SCALING AND DISPLAY (DEC)
001534:
001535:    0120                        FIXLOC            ERASE                                          #  WORK AREA ADDRESS.
001536:    0121                        OVFIND            ERASE                                          #  SET NON-ZERO ON OVERFLOW.
001537:
001538:    0122                        VBUF              ERASE    +5                                    #  TEMPORARY STORAGE USED FOR VECTORS.
001539:    0130     0122               SGNON             EQUALS   VBUF                                  #  TEMP FOR +,- ON
001540:    0130     0122               NOUNTEM           EQUALS   VBUF                                  #  COUNTER FOR MIXNOUN FETCH
001541:    0130     0122               DISTEM            EQUALS   VBUF                                  #  COUNTER FOR OCTAL DISPLAY VERBS
001542:    0130     0122               DECTEM            EQUALS   VBUF                                  #  COUNTER FOR FETCH (DEC DISPLAY VERBS)
001543:
001544:    0130     0123               SGNOFF            EQUALS   VBUF       +1                         #  TEMP FOR +,- ON
001545:    0130     0123               NVTEMP            EQUALS   VBUF       +1                         #  TEMP FOR NVSUB
001546:    0130     0123               SFTEMP1           EQUALS   VBUF       +1                         #  STORAGE FOR SF CONST HI PART(=SFTEMP2-1)
001547:    0130     0123               HITEMIN           EQUALS   VBUF       +1                         #  TEMP FOR LOAD OF HRS, MIN, SEC
001548:                                                                                                 #         MUST = LOTEMIN-1.
001549:    0130     0124               CODE              EQUALS   VBUF       +2                         #  FOR DSPIN
001550:    0130     0124               SFTEMP2           EQUALS   VBUF       +2                         #  STORAGE FOR SF CONST LO PART(=SFTEMP1+1)
001551:    0130     0124               LOTEMIN           EQUALS   VBUF       +2                         #  TEMP FOR LOAD OF HRS, MIN, SEC
001552:                                                                                                 #         MUST = HITEMIN+1.
001553:    0130     0125               MIXTEMP           EQUALS   VBUF       +3                         #  FOR MIXNOUN DATA
001554:                                                                                                 #  ALSO MIXTEMP+1 = VBUF+4, MIXTEMP+2 = VBUF+5.
001555:
001556:    0130                        BUF               ERASE    +2                                    #  TEMPORARY SCALAR STORAGE.
001557:    0133                        BUF2              ERASE    +1
001558:    0135     0130               INDEXLOC          EQUALS   BUF                                   #  CONTAINS ADDRESS OF SPECIFIED INDEX.
001559:    0135     0130               SWWORD            EQUALS   BUF                                   #  ADDRESS OF SWITCH WORD.
001560:    0135     0131               SWBIT             EQUALS   BUF        +1                         #  SWITCH BIT WITHIN THE SWITCH WORD.
001561:    0135                        MPTEMP            ERASE                                          #  TEMPORARY USED IN MULTIPLY AND SHIFT.


001563:    0136                        DOTINC            ERASE                                          #  COMPONENT INCREMENT FOR DOT SUBROUTINE.
001564:    0137     0136               DVSIGN            EQUALS   DOTINC                                #  DETERMINES SIGN OF DDV RESULT.
001565:    0137     0136               ESCAPE            EQUALS   DOTINC                                #  USED IN ARCSIN/ARCCOS.
001566:    0137     0136               ENTRET            EQUALS   DOTINC                                #  EXIT FROM ENTER
001567:
001568:    0137     0136               ENTEXIT           =        ENTRET
001569:
001570:    0137                        DOTRET            ERASE                                          #  RETURN FROM DOT SUBROUTINE.
001571:    0140     0137               DVNORMCT          EQUALS   DOTRET                                #  DIVIDEND NORMALIZATION COUNT IN DDV.
001572:    0140     0137               ESCAPE2           EQUALS   DOTRET                                #  ALTERNATE ARCSIN/ARCCOS SWITCH.
001573:    0140     0137               WDCNT             EQUALS   DOTRET                                #  CHAR COUNTER FOR DSPWD
001574:    0140     0137               INREL             EQUALS   DOTRET                                #  INPUT BUFFER SELECTOR ( X,Y,Z, REG )
001575:
001576:    0140                        MATINC            ERASE                                          #  VECTOR INCREMENT IN MXV AND VXM.
001577:    0141     0140               MAXDVSW           EQUALS   MATINC                                #  +0 IF DP QUOTIENT IS NEAR ONE - ELSE -1.
001578:    0141     0140               POLYCNT           EQUALS   MATINC                                #  POLYNOMIAL LOOP COUNTER
001579:    0141     0140               DSPMMTEM          EQUALS   MATINC                                #  DSPCOUNT SAVE FOR DSPMM
001580:    0141     0140               MIXBR             EQUALS   MATINC                                #  INDICATOR FOR MIXED OR NORMAL NOUN
001581:
001582:    0141                        TEM1              ERASE                                          #  EXEC TEMP
001583:    0142     0141               POLYRET           EQUALS   TEM1
001584:    0142     0141               DSREL             EQUALS   TEM1                                  #  REL ADDRESS FOR DSPIN
001585:
001586:    0142                        TEM2              ERASE                                          #  EXEC TEMP
001587:    0143     0142               DSMAG             EQUALS   TEM2                                  #  MAGNITUDE STORE FOR DSPIN
001588:    0143                        TEM3              ERASE                                          #  EXEC TEMP
001589:    0144     0143               COUNT             EQUALS   TEM3                                  #  FOR DSPIN
001590:
001591:    0144                        TEM4              ERASE                                          #  EXEC TEMP
001592:    0145     0144               RELRET            EQUALS   TEM4                                  #  RETURN FOR RELDSP
001593:    0145     0144               DSPWDRET          EQUALS   TEM4                                  #  RETURN FOR DSPSIGN
001594:    0145     0144               SEPSCRET          EQUALS   TEM4                                  #  RETURN FOR SEPSEC
001595:    0145     0144               SEPMNRET          EQUALS   TEM4                                  #  RETURN FOR SEPMIN
001596:
001597:    0145                        TEM5              ERASE                                          #  EXEC TEMP
001598:    0146     0145               NOUNADD           EQUALS   TEM5                                  #  TEMP STORAGE FOR NOUN ADDRESS
001599:
001600:    0146                        NNADTEM           ERASE                                          #  TEMP FOR NOUN ADDRESS TABLE ENTRY
001601:    0147                        NNTYPTEM          ERASE                                          #  TEMP FOR NOUN TYPE TABLE ENTRY
001602:    0150                        IDAD1TEM          ERASE                                          #  TEMP FOR INDIR ADDRESS TABLE ENTRY(MIXNN)
001603:                                                                                                 #  MUST = IDAD2TEM-1, = IDAD3TEM-2.
001604:    0151                        IDAD2TEM          ERASE                                          #  TEMP FOR INDIR ADDRESS TABLE ENTRY(MIXNN)
001605:                                                                                                 #  MUST = IDAD1TEM+1, = IDAD3TEM-1.
001606:    0152                        IDAD3TEM          ERASE                                          #  TEMP FOR INDIR ADDRESS TABLE ENTRY(MIXNN)
001607:                                                                                                 #  MUST = IDAD1TEM+2, = IDAD2TEM+1.
001608:    0153                        RUTMXTEM          ERASE                                          #  TEMP FOR SF ROUT TABLE ENTRY(MIXNN ONLY)
001609:
001610:                                                                                                 #         AX*SR*T STORAGE.                                                (6D)
001611:    0154     0142               DEXDEX            EQUALS   TEM2                                  #  B(1)TMP


001613:    0154     0143               DEX1              EQUALS   TEM3                                  #  B(1)TMP
001614:    0154     0144               DEX2              EQUALS   TEM4                                  #  B(1)TMP
001615:    0154     0145               RTNSAVER          EQUALS   TEM5                                  #  B(1)TMP
001616:    0154     0133               TERM1TMP          EQUALS   BUF2                                  #  B(2)TMP
001617:
001618:    0154     0143               DEXI              =        DEX1
001619:


001621:                                                                                                 #         DYNAMICALLY ALLOCATED CORE SETS FOR JOBS.                       (84D)
001622:
001623:    0154                        MPAC              ERASE    +6                                    #  MULTI-PURPOSE ACCUMULATOR.
001624:    0163                        MODE              ERASE                                          #  +1 FOR TP, +0 FOR DP, OR -1 FOR VECTOR.
001625:    0164                        LOC               ERASE                                          #  LOCATION ASSOCIATED WITH JOB.
001626:    0165                        BANKSET           ERASE                                          #  USUALLY CONTAINS BBANK SETTING.
001627:    0166                        PUSHLOC           ERASE                                          #  WORD OF PACKED INTERPRETIVE PARAMETERS.
001628:    0167                        PRIORITY          ERASE                                          #  PRIORITY OF PRESENT JOB AND WORK AREA.
001629:
001630:    0170                                          ERASE    +71D                                  #  SEVEN SETS OF 12 REGISTERS EACH
001631:
001632:                                                                                                 #         SPECIAL DOWNLINK BUFFER.-OVERLAYED BY P27 STORAGE-
001633:
001634:                                                                                                 #         P27(UPDATE PROGRAM) STORAGE. -OVERLAYS SPEC DNLNK BUFF-         (24D)
001635:
001636:    0300                        COMPNUMB          ERASE    +23D                                  #  B(1)TMP NUMBER OF ITEMS TO BE UPLINKED.
001637:    0330     0301               UPOLDMOD          EQUALS   COMPNUMB   +1                         #  B(1)TMP HOLDS INTERRUPTED PROGRAM NUMBER
001638:    0330     0302               UPVERB            EQUALS   UPOLDMOD   +1                         #  B(1)TMP VERB NUMBER
001639:    0330     0303               UPCOUNT           EQUALS   UPVERB     +1                         #  B(1)TMP UPBUFF INDEX
001640:    0330     0304               UPBUFF            EQUALS   UPCOUNT    +1                         #  B(20D)
001641:
001642:                                                                                                 #         MORE P27 STORAGE.                                               (2D)
001643:
001644:    0330                        UPTEMP            ERASE                                          #  B(1)TMP SCRATCH
001645:    0331                        UPVERBSV          ERASE                                          #  B(1)TMP
001646:
001647:
001648:                                                                                                 #         ENTRY DOWNLINK STORAGE
001649:
001650:                                                                                                 #                 (20 REGISTERS OF ENTRY DOWNLINK WILL GO HERE.)
001651:
001652:                                                                                                 #                                                         THE FOLLOWING ARE INDEXED FOR TM. IN ENTRY DAP.
001653:
001654:    0332     0304               CMTMTIME          =        UPBUFF                                #  B(1) (VEHICLE BODY RATE INFO IS
001655:    0332     0305               SW/NDX            =        CMTMTIME   +1                         #  B(1)  TELEMETERED EACH 0.2 SEC. DURING
001656:    0332     0324               ENDBUF            =        CMTMTIME   +16D                       #  B(1)  ENTRY.)
001657:
001658:    0332     0325               V1                =        ENDBUF     +1                         #  I(2) REENTRY, P64-P65
001659:    0332     0327               A0                =        V1         +2                         #  I(2) REENTRY, P64-P65
001660:                                                                                                 #  HI-ORDER WORD ONLY ON DNLNK.
001661:
001662:                                                                                                 #         ALIGNMENT STORAGE.                                              (5D)
001663:                                                                                                 #         (CANNOT SHARE WITH PRECISION INTEGRATION OR KEPLER STORAGE.)
001664:
001665:    0332     0300               QMAJ              EQUALS   COMPNUMB                              #  B(1)TMP
001666:    0332     0301               MARKINDX          EQUALS   QMAJ       +1                         #  B(1)TMP
001667:    0332     0302               BESTI             EQUALS   MARKINDX   +1                         #  I(1)TMP
001668:    0332     0303               BESTJ             EQUALS   BESTI      +1                         #  I(1)TMP
001669:    0332     0304               STARIND           EQUALS   BESTJ      +1                         #  I(1)TMP
001670:


001672:                                                                                                 #         ALIGNMENT/S40.2,3 COMMON STORAGE.                               (18D)
001673:
001674:    0332     0306               XSMD              EQUALS   UPBUFF     +2                         #  I(6)TMP
001675:    0332     0314               YSMD              EQUALS   XSMD       +6                         #  I(6)TMP
001676:    0332     0322               ZSMD              EQUALS   YSMD       +6                         #  I(6)TMP
001677:
001678:    0332     0306               XSCREF            =        XSMD                                  #         SPACE CRAFT AXES IN REF COORDS.
001679:    0332     0314               YSCREF            =        YSMD
001680:    0332     0322               ZSCREF            =        ZSMD
001681:
001682:
001683:                                                                                                 #         ALIGNMENT TEMPS IN VAC
001684:
001685:    0332                        ZPRIME            =        22D
001686:    0332                        PDA               =        22D
001687:    0332                        COSTH             =        16D
001688:    0332                        SINTH             =        18D
001689:    0332                        THETA             =        20D
001690:    0332                        STARM             =        32D
001691:
001692:                                                                                                 #  R52 AUTO-OPTICS (1)
001693:
001694:    0332     0330               PACTEMP           EQUALS   ZSMD       +6D                        #  B(1)TMP
001695:
001696:                                                                                                 #         DOWNLINK STORAGE.                                               (17D)
001697:
001698:    0332     0332               DNLSTADR          EQUALS   DNLSTCOD                              #  CONTENTS NO LONGER AN ADDR BUT A CODE
001699:
001700:    0332                        DNLSTCOD          ERASE                                          #  B(1)PRM ID CODE OF DOWNLIST
001701:    0333                        CTLIST            ERASE
001702:    0334                        DNTMGOTO          ERASE                                          #  B(1)
001703:    0335                        TMINDEX           ERASE                                          #  B(1)
001704:    0336     0335               DNECADR           EQUALS   TMINDEX                               #  B(1) ADDRESS OF CURRENT DNLST WORD
001705:    0336     0335               DUMPLOC           EQUALS   TMINDEX                               #  CONTAINS ECADR OF AGC DP WORD BEING DUMP
001706:                                                                                                 #  ED AND COUNT OF COMPLETE DUMPS ALREADY S
001707:                                                                                                 #  ENT.
001708:    0336                        SUBLIST           ERASE                                          #  B(1)
001709:    0337                        DNTMBUFF          ERASE    +11D                                  #  B(12) PRM DOWNLINK SNAPSHOT BUFFER
001710:
001711:
001712:
001713:                                                                                                 #         OPTICS MARKING . UNSHARED.                                      (8D)
001714:
001715:    0353                        MKNDX             ERASE
001716:    0354                        MKT2T1            ERASE    +1
001717:    0356                        MKCDUY            ERASE
001718:    0357                        MKCDUS            ERASE
001719:    0360                        MKCDUZ            ERASE


001721:    0361                        MKCDUT            ERASE
001722:    0362                        MKCDUX            ERASE
001723:
001724:
001725:
001726:                                                                                                 #         R52 TIME SAVE STORAGE                                           (2)
001727:    0363                        AOPOLD            ERASE    +1
001728:
001729:
001730:                                                                                                 #         UNSWITCHED FOR DISPLAY INTERFACE ROUTINES.                      (7D)
001731:
001732:    0365                        RESTREG           ERASE                                          #  B(1)PRM FOR DISPLAY RESTARTS
001733:    0366                        NVWORD            ERASE
001734:    0367                        MARKNV            ERASE
001735:    0370                        NVSAVE            ERASE                                          #   PURPOSES)
001736:    0371                        CADRFLSH          ERASE                                          #  B(1)TMP
001737:    0372                        CADRMARK          ERASE                                          #  B(1)TMP
001738:    0373                        TEMPFLSH          ERASE                                          #  B(1)TMP
001739:
001740:
001741:                                                                                                 #  CHANNEL FAIL REGISTER                                                  (1D)
001742:
001743:    0374                        C31FLWRD          ERASE                                          #  B(1)PRM
001744:
001745:
001746:                                                                                                 #  C31FLWRD HAS THE FOLLOWING OCTAL FORMAT AXXBX WHERE A + B HAVE THE FOLLOWING INTERPRETATION. IF THE ASTRONAUT
001747:                                                                                                 #  DESIRES TO BYPASS THE CHANNEL REPRESENTATION, HE SHOULD LOAD C31FLWRD   VIA V21 N01 TO THE VALUES SHOWN IN THE
001748:                                                                                                 #  FOLLOWING TABLES:
001749:
001750:                                                                                                 #     A VALUE       MEANING FOR CHANNEL 31                                     B VALUE      MEANING FOR CHANNEL 33
001751:
001752:                                                                                                 #     0 OR 4        BITS 15,14, + 13 OF CHANNEL 31 ARE VALID                   0 OR 4       BITS 4 + 5 OF CHANNEL 33
001753:                                                                                                 #     1             G&N CONTROL FREE                                           1 OR 5       OPTICS MODE CMC
001754:                                                                                                 #     2             G&N CONTROL ATT. HOLD                                      2 OR 6       OPTICS MODE ZERO
001755:                                                                                                 #     3             G&N CONTROL AUTO                                           3 OR 7       OPTICS MODE MANUAL
001756:                                                                                                 #     5             SCS CONTROL FREE
001757:                                                                                                 #     6             SCS CONTROL ATT. HOLD
001758:                                                                                                 #     7             SCS CONTROL AUTO
001759:
001760:
001761:                                                                                                 #  ALARM REGISTERS                                                        (3D)
001762:
001763:    0375                        FAILREG           ERASE    +2                                    #  B(3)PRM ALARM ABORT CODES
001764:
001765:    0400                                          SETLOC   400
001766:                                                                                                 #  VAC AREAS. -BE CAREFUL OF PLACEMENT-                                   (220D)
001767:
001768:    0400                        VAC1USE           ERASE                                          #  B(1)PRM
001769:    0401                        VAC1              ERASE    +42D                                  #  B(43)PRM


001771:    0454                        VAC2USE           ERASE                                          #  B(1)PRM
001772:    0455                        VAC2              ERASE    +42D                                  #  B(43)PRM
001773:    0530                        VAC3USE           ERASE                                          #  B(1)PRM
001774:    0531                        VAC3              ERASE    +42D                                  #  B(43)PRM
001775:    0604                        VAC4USE           ERASE                                          #  B(1)PRM
001776:    0605                        VAC4              ERASE    +42D                                  #  B(43)PRM
001777:    0660                        VAC5USE           ERASE                                          #  B(1)PRM
001778:    0661                        VAC5              ERASE    +42D                                  #  B(43)PRM
001779:
001780:
001781:                                                                                                 #         TEMP STORAGE FOR RESTARTS ROUTINE -- STARTS AT VAC5 + 19D
001782:
001783:    0734     0705               GOLOC             EQUALS   VAC5       +20D                       #  B(4) GOLOC -1 THRU GOLOC +2 USED
001784:                                                                                                 #     TO SET EXEC AND WTLST CALL
001785:
001786:                                                                                                 #         V82, V90 STORAGE        (1D)
001787:
001788:    0734                        VEHRET            ERASE
001789:
001790:                                                                                                 #         P24-RATE AIDED OPTICS (PAD LOAD)*****                           (3D)
001791:
001792:
001793:    0735                        TRATE             ERASE
001794:    0736                        SRATE             ERASE
001795:    0737                        NO.PASS           ERASE
001796:
001797:
001798:                                                                                                 #         P24-RATE AIDED OPTICS UNSHARED ERASABLES                        (2D)
001799:
001800:    0740                        TOLD              ERASE
001801:    0741                        SOLD              ERASE
001802:
001803:
001804:
001805:                                                                                                 #         SINGLE PRECISION SUBROUTINE TEMPORARIES.                        (2D)
001806:
001807:                                                                                                 #                                                                         SPSIN, SPCOS VARIABLES
001808:
001809:                                                                                                 #                                                                 DO NOT SHARE. THESE ARE USED BY DAPS IN INTERRUPT
001810:                                                                                                 #                                                                 AND CURRENTLY ARE NOT PROTECTED. IF OTHER USERS
001811:                                                                                                 #                                                                 MATERIALIZE, THEN THIS CAN BE CHANGED.
001812:
001813:    0742                        TEMK              ERASE
001814:    0743                        SQ                ERASE
001815:


001817:                                                                                                 #         UNSWITCHED FOR ORBIT INTEGRATION.                               (21D)
001818:
001819:    0744                        TDEC              ERASE    +20D                                  #  I(2)
001820:    0771     0746               LAT               EQUALS   TDEC       +2                         #  I(2)DSP NOUN 43,67 FOR P20,22,51,R52,53.
001821:    0771     0746               LANDLAT           =        LAT                                   #           NOUN 89    FOR P22.
001822:    0771     0750               LONG              EQUALS   LAT        +2                         #  I(2)DSP NOUN 43,67 FOR P20,22,51 R52,53.
001823:    0771     0752               ALT               EQUALS   LONG       +2                         #  I(2)DSP NOUN 43    FOR P20,22,51 R52,53.
001824:    0771     0754               YV                EQUALS   ALT        +2                         #  I(6)
001825:    0771     0762               ZV                EQUALS   YV         +6                         #  I(6)
001826:    0771     0770               COLREG            EQUALS   ZV         +6                         #  I(1)
001827:
001828:
001829:
001830:                                                                                                 #         MARK STORAGE.                                                   (2)
001831:
001832:    0771                        VHFCNT            ERASE                                          #  B(1) PRM NO. OF VHF MARKS(P20(R22)).
001833:    0772                        TRKMKCNT          ERASE                                          #  B(1) PRM NO. OF VHF MARKS (P20(R22)).
001834:
001835:                                                                                                 #         P24 STORAGE                                                     (1D)
001836:
001837:    0773     0771               RATETEMP          EQUALS   VHFCNT                                #  B(1) TMP
001838:
001839:                                                                                                 #         MISCELLANEOUS UNSWITCHED.                                       (15D)
001840:
001841:    0773                        IRETURN1          ERASE                                          #  B(1)  RET ADDR USED BY MIDTOAV1 AND 2
001842:                                                                                                 #  CALLED BY P40,P41,P42,  P61,P62
001843:    0774                        RATEINDX          ERASE                                          #   (1)    USED BY KALCMANU
001844:    0775                        OPTION1           ERASE                                          #  B(1)   NOUN 06 USES THIS.
001845:    0776                        OPTION2           ERASE                                          #  B(1)   NOUN 06 USES THIS.
001846:    0777                        NVWORD1           ERASE                                          #  B(1)
001847:    1000                        DELAYLOC          ERASE    +3
001848:    1004                        TEMPR60           ERASE                                          #  B(1)
001849:    1005                        PRIOTIME          ERASE                                          #  B(1)
001850:    1006                        TIME2SAV          ERASE    +1                                    #  B(2)TMP
001851:    1010                        SCALSAVE          ERASE    +1                                    #  B(2)TMP
001852:                                                                                                 #         P20, CONICS   (SHARING WITH TIME 2 SAVE AND SCAL SAV ONLY)      (3D)
001853:
001854:    1012     1006               POINTEX           EQUALS   TIME2SAV                              #  I(1) POINT AXS EXIT
001855:    1012     1007               VHFTIME           EQUALS   POINTEX    +1                         #  I(2) DOWNLINK OF VHF RANGE TIME +1M
001856:
001857:
001858:
001859:                                                                                                 #         MINKEY RENDEZVOUS                                               (1D)
001860:
001861:    1012                        AUTPOINT          ERASE                                          #  B(1) CONTROLLER RETURN
001862:


001864:
001865:                                                                                                 #         CRS61.1 STORAGE.  -USED IN R63 (VERB 89)-                       (3D)
001866:
001867:    1013                        CPHIX             ERASE    +2                                    #  B(3)DSP NOUN 95 CALCULATED BY CRS61.1
001868:
001869:
001870:
001871:                                                                                                 #         NOUN 26 ERASABLES                                               (3D)
001872:
001873:    1016                        N26/PRI           ERASE                                          #  B(1D)  PRIO/TIME DELAY
001874:    1017                        N26/2CAD          ERASE    +1                                    #  B(2D)  2CADR OF JOB/TASK
001875:
001876:
001877:                                                                                                 #  DOWNLINK TIME OF EVENT
001878:
001879:    1021                        TEVENT            ERASE    +1                                    #  B(2)     TIME OF EVENT FOR DOWNLIST
001880:    1023     1021               TLIFTOFF          =        TEVENT
001881:
001882:                                                                                                 #         P34-P35 STORAGE                                                 (1D)
001883:    1023                        NORMEX            ERASE
001884:
001885:
001886:
001887:                                                                                                 #         R57 STORAGE. -MUST BE UNSHARED EXCEPT IN BOOST OR ENTRY-        (1D)
001888:
001889:    1024                        TRUNBIAS          ERASE                                          #  B(1)PRM RESULT OF R57 CALIBR OF TRUNION
001890:
001891:
001892:
001893:                                                                                                 #         KEPLER STORAGE                                                  (6D)
001894:
001895:    1025                        EPSILONT          ERASE    +1                                    #  I(2) TMP
001896:
001897:
001898:
001899:                                                                                                 #         PERM STATE VECTORS FOR BOOST AND DOWNLINK -WHOLE MISSION-       (14D)
001900:
001901:    1027                        RN                ERASE    +5                                    #  B(6)PRM
001902:    1035                        VN                ERASE    +5                                    #  B(6)PRM
001903:    1043                        PIPTIME           ERASE    +1                                    #  B(2)PRM (MUST BE FOLLOWED BY GDT/2)
001904:
001905:
001906:                                                                                                 #         SERVICER STORAGE.                                               (45D)
001907:
001908:                                                                                                 #         (SERVICER STORAGE AND P11 STORAGE IN UNSWITHCHED SHOULD NOT
001909:                                                                                                 #         OVERLAY EACH OTHER AND THE TOTAL ERASABLE REQUIRED SHOULD NOT
001910:                                                                                                 #         EXCEED THE ERASABLE STORAGE REQUIRED BY RENDEZVOUS GUIDANCE)
001911:
001912:    1045     1045               GDT/2             EQUALS   PIPTIME    +2                         #  B(6)TMP        (MUST FOLLOW PIPTIME)


001914:    1045     1053               GOBL/2            EQUALS   GDT/2      +6                         #  B(6)TMP
001915:    1045     1061               AVEGEXIT          EQUALS   GOBL/2     +6                         #  B(2)TMP
001916:    1045     1061               AVGEXIT           =        AVEGEXIT
001917:    1045     1063               TEMX              EQUALS   AVEGEXIT   +2                         #  B(1)TMP
001918:    1045     1064               TEMY              EQUALS   TEMX       +1                         #  B(1)TMP
001919:    1045     1065               TEMZ              EQUALS   TEMY       +1                         #  B(1)TMP
001920:    1045     1066               PIPCTR            EQUALS   TEMZ       +1                         #  B(1)TMP
001921:    1045     1067               PIPAGE            EQUALS   PIPCTR     +1                         #  B(1)TMP
001922:
001923:
001924:    1045     1070               RN1               EQUALS   PIPAGE     +1                         #  B(6)TMP
001925:    1045     1076               VN1               EQUALS   RN1        +6                         #  B(6)TMP
001926:    1045     1104               PIPTIME1          EQUALS   VN1        +6                         #  B(2)TMP
001927:    1045     1106               GDT1/2            EQUALS   PIPTIME1   +2                         #  B(6)TMP
001928:    1045     1114               GOBL1/2           EQUALS   GDT1/2     +6                         #  B(6)TMP
001929:
001930:                                                                                                 #         ENTRY STORAGE.                                                  (1D)
001931:
001932:    1045     1122               ENTRYVN           EQUALS   GOBL1/2    +6                         #  B(1)TMP VN CODE FOR ENTRY DISPLAYS P60S.
001933:
001934:
001935:
001936:                                                                                                 #         RENDEZVOUS NAVIGATION STORAGE.(SEE COMMENT IN SERVICER STORAGE) (58D)
001937:
001938:    1045                        CSMPOS            ERASE    +55D                                  #  I(6)TMP
001939:    1135     1053               LEMPOS            EQUALS   CSMPOS     +6                         #  I(6)TMP
001940:    1135     1061               MARKTIME          EQUALS   LEMPOS     +6                         #  B(2) TEMP MUST PRECEDE VTEMP FOR GENTRAN
001941:    1135     1063               VTEMP             EQUALS   MARKTIME   +2                         #  B(6)TMP
001942:    1135     1071               UM                EQUALS   VTEMP      +6                         #  I(6)TMP
001943:    1135     1077               MARKDATA          EQUALS   UM         +6                         #  B(2)TMP
001944:    1135     1101               USTAR             EQUALS   MARKDATA   +2                         #  I(6)TMP
001945:    1135     1107               WIXA              EQUALS   USTAR      +6                         #  B(1)TMP
001946:    1135     1110               WIXB              EQUALS   WIXA       +1                         #  B(1)TMP
001947:    1135     1111               ZIXA              EQUALS   WIXB       +1                         #  B(1)TMP
001948:    1135     1112               ZIXB              EQUALS   ZIXA       +1                         #  B(1)TMP
001949:    1135     1113               DELTAX            EQUALS   ZIXB       +1                         #  I(18)TMP
001950:
001951:    1135     1113               VHFRANGE          EQUALS   DELTAX                                #   (2)
001952:    1135     1127               UCL               EQUALS   DELTAX     +12D                       #   (6)     LM-CSM LINE OF SIGHT 1/2 UNIT V
001953:
001954:
001955:                                                                                                 #         P22 TEMPORARIES
001956:
001957:    1135     1053               S22UOFF           EQUALS   LEMPOS                                #  I(6)TMP  UM OFFSET
001958:    1135     1053               9DWXX             EQUALS   LEMPOS                                #  I(1)TMP QSAVE REGISTER
001959:    1135     1113               S22UUT            EQUALS   DELTAX                                #  I(18)
001960:


001962:
001963:                                                                                                 #         MINKEY RENDEZVOUS *** (1D)
001964:
001965:    1135     1113               TEMPMM            EQUALS   DELTAX                                #  B(1) MAJOR MODE DURING P20 STARTUP
001966:
001967:
001968:                                                                                                 #         USED FOR SUMMATION OF UPRUPT DURING PRELAUNCH & SYS TEST LEADIN (3D)
001969:
001970:    1135     1116               UPSUM             EQUALS   EBUF2      +2                         #  (3)
001971:
001972:
001973:                                                                                                 #         PRELAUNCH ERASABLE PROGRAM ENTRANCE                             (2D)
001974:
001975:    1135     1114               EBUF2             EQUALS   GOBL1/2                               #  (2)
001976:
001977:
001978:                                                                                                 #         FOR STALL ROUTINE FOR VHF RADAR
001979:
001980:
001981:    1135     1063               RADTIME           EQUALS   VTEMP                                 #  B(1)
001982:    1135     1064               RADDEL            EQUALS   RADTIME    +1                         #  B(1)
001983:
001984:
001985:                                                                                                 #         P11 STORAGE.                                                    (9D)
001986:
001987:    1135     1126               LIFTTEMP          EQUALS   UCL        -1                         #  (2)TMP
001988:    1135     1130               TEPHEM1           EQUALS   LIFTTEMP   +2                         #   (3)TMP
001989:    1135     1133               PGNCSALT          EQUALS   TEPHEM1    +3                         #   (2)PL  ALTITUDE
001990:    1135     1135               PADLONG           EQUALS   PGNCSALT   +2                         #  (2)PL  LONGITUDE F LAUNCH PAD
001991:
001992:
001993:                                                                                                 #     **** CONICSEX (MEAS INC) ****                                       (6D)
001994:
001995:    1135     1113               TRIPA             EQUALS   DELTAX
001996:    1135     1116               TEMPVAR           EQUALS   DELTAX     +3
001997:
001998:
001999:
002000:                                                                                                 #         P24   RATE AIDED OPTICS
002001:
002002:    1135     1131               PASSCNT           EQUALS   TEPHEM1    +1                         #  B(1)
002003:
002004:
002005:                                                                                                 #         P20-P22 PROCESSING STORAGE                                      (2D)
002006:
002007:    1135                        TEMPOR1           ERASE    +1                                    #  B(2)TMP
002008:
002009:
002010:                                                                                                 #         WAITLIST REPEAT FLAG.                                           (1D)
002011:
002012:    1137                        RUPTAGN           ERASE                                          #  B(1)PRM


002014:    1140     1137               KEYTEMP2          =        RUPTAGN
002015:
002016:
002017:                                                                                                 #         STARALIGN ERASABLES.                                            (13D)
002018:
002019:    1140                        STARCODE          ERASE                                          #  B(1)DSP NOUN 70 FOR P22,51 AND R52,53.
002020:    1141                        STARALGN          ERASE    +11D
002021:    1155     1141               SINCDU            =        STARALGN
002022:    1155     1147               COSCDU            =        STARALGN   +6
002023:
002024:    1155     1145               SINCDUX           =        SINCDU     +4
002025:    1155     1141               SINCDUY           =        SINCDU
002026:    1155     1143               SINCDUZ           =        SINCDU     +2
002027:    1155     1153               COSCDUX           =        COSCDU     +4
002028:    1155     1147               COSCDUY           =        COSCDU
002029:    1155     1151               COSCDUZ           =        COSCDU     +2
002030:
002031:
002032:                                                                                                 #         PHASE TABLE AND RESTART COUNTERS.                               (12D)
002033:
002034:    1155                        -PHASE1           ERASE                                          #  B(1)PRM
002035:    1156                        PHASE1            ERASE                                          #  B(1)PRM
002036:    1157                        -PHASE2           ERASE                                          #  B(1)PRM
002037:    1160                        PHASE2            ERASE                                          #  B(1)PRM
002038:    1161                        -PHASE3           ERASE                                          #  B(1)PRM
002039:    1162                        PHASE3            ERASE                                          #  B(1)PRM
002040:    1163                        -PHASE4           ERASE                                          #  B(1)PRM
002041:    1164                        PHASE4            ERASE                                          #  B(1)PRM
002042:    1165                        -PHASE5           ERASE                                          #  B(1)PRM
002043:    1166                        PHASE5            ERASE                                          #  B(1)PRM
002044:    1167                        -PHASE6           ERASE                                          #  B(1)PRM
002045:    1170                        PHASE6            ERASE                                          #  B(1)PRM
002046:
002047:
002048:                                                                                                 #         AX*SR*T STORAGE.                                                (6D)
002049:
002050:    1171                        CDUSPOT           ERASE    +5                                    #  B(6)
002051:
002052:    1177     1171               CDUSPOTY          =        CDUSPOT
002053:    1177     1173               CDUSPOTZ          =        CDUSPOT    +2
002054:    1177     1175               CDUSPOTX          =        CDUSPOT    +4
002055:
002056:
002057:                                                                                                 #         VERB 37 STORAGE.                                                (2D)
002058:
002059:    1177                        MINDEX            ERASE                                          #  B(1)TMP  INDEX FOR MAJOR MODE
002060:    1200                        MMNUMBER          ERASE                                          #  B(1)TMP  MAJOR MODE REQUESTED VIA V37
002061:
002062:
002063:                                                                                                 #         PINBALL INTERRUPT STORAGE.                                      (1D)
002064:


002066:    1201                        DSPCNT            ERASE                                          #  B(1)PRM DSPOUT COUNTER
002067:
002068:
002069:                                                                                                 #         PINBALL EXECUTIVE ACTION.                                       (44D)
002070:
002071:    1202                        DSPCOUNT          ERASE                                          #  DISPLAY POSITION INDICATOR
002072:    1203                        DECBRNCH          ERASE                                          #  +DEC, - DEC, OCT INDICATOR
002073:    1204                        VERBREG           ERASE                                          #  VERB CODE
002074:    1205                        NOUNREG           ERASE                                          #  NOUN CODE
002075:    1206                        XREG              ERASE                                          #  R1 INPUT BUFFER
002076:    1207                        YREG              ERASE                                          #  R2 INPUT BUFFER
002077:    1210                        ZREG              ERASE                                          #  R3 INPUT BUFFER
002078:    1211                        XREGLP            ERASE                                          #  LO PART OF XREG (FOR DEC CONV ONLY)
002079:    1212                        YREGLP            ERASE                                          #  LO PART OF YREG (FOR DEC CONV ONLY)
002080:    1213     1212               HITEMOUT          =        YREGLP                                #  TEMP FOR DISPLAY OF HRS, MIN, SEC
002081:                                                                                                 #         MUST = LOTEMOUT-1.
002082:    1213                        ZREGLP            ERASE                                          #  LO PART OF ZREG (FOR DEC CONV ONLY)
002083:    1214     1213               LOTEMOUT          =        ZREGLP                                #  TEMP FOR DISPLAY OF HRS, MIN, SEC
002084:                                                                                                 #         MUST = HITEMOUT+1.
002085:    1214                        MODREG            ERASE                                          #  MODE CODE
002086:    1215                        DSPLOCK           ERASE                                          #  KEYBOARD/SUBROUTINE CALL INTERLOCK
002087:    1216                        REQRET            ERASE                                          #  RETURN REGISTER FOR LOAD
002088:    1217                        LOADSTAT          ERASE                                          #  STATUS INDICATOR FOR LOADTST
002089:    1220                        CLPASS            ERASE                                          #  PASS INDICATOR CLEAR
002090:    1221                        NOUT              ERASE                                          #  ACTIVITY COUNTER FOR DSPTAB
002091:    1222                        NOUNCADR          ERASE                                          #  MACHINE CADR FOR NOUN
002092:    1223                        MONSAVE           ERASE                                          #  N/V CODE FOR MONITOR. (= MONSAVE1-1)
002093:    1224                        MONSAVE1          ERASE                                          #  NOUNCADR FOR MONITOR(MATBS) =MONSAVE +1
002094:    1225                        MONSAVE2          ERASE                                          #  B(1)PRM NVMONOPT OPTIONS
002095:    1226                        DSPTAB            ERASE    +11D                                  #  0-100, DISPLAY PANEL BUFF. 11D, C/S LTS.
002096:    1242                        NVQTEM            ERASE                                          #  NVSUB STORAGE FOR CALLING ADDRESS
002097:                                                                                                 #  MUST = NVBNKTEM-1
002098:    1243                        NVBNKTEM          ERASE                                          #  NVSUB STORAGE FOR CALLING BANK
002099:                                                                                                 #  MUST = NVQTEM+1
002100:    1244                        VERBSAVE          ERASE                                          #  NEEDED FOR RECYCLE
002101:    1245                        CADRSTOR          ERASE                                          #  ENDIDLE STORAGE
002102:    1246                        DSPLIST           ERASE                                          #  WAITING REG FOR DSP SYST INTERNAL USE
002103:    1247                        EXTVBACT          ERASE                                          #  EXTENDED VERB ACTIVITY INTERLOCK
002104:    1250                        DSPTEM1           ERASE    +2                                    #  BUFFER STORAGE AREA 1 (MOSTLY FOR TIME)
002105:    1253                        DSPTEM2           ERASE    +2                                    #  BUFFER STORAGE AREA 2 (MOSTLY FOR DEG)
002106:
002107:
002108:    1256     1254               DSPTEMX           EQUALS   DSPTEM2    +1                         #  B(2) S-S DISPLAY BUFFER FOR EXT. VERBS.
002109:    1256     1250               NORMTEM1          EQUALS   DSPTEM1                               #  B(3)DSP NORMAL DISPLAY REGISTERS.
002110:
002111:
002112:
002113:                                                                                                 #         DISPLAY FOR EXTENDED VERBS                                      (2D)
002114:
002115:    1256     1255               OPTIONX           EQUALS   DSPTEMX    +1                         #  B(2) EXT VB OPTION CODE


002117:    1256                        OPTIONEV          ERASE
002118:
002119:
002120:
002121:                                                                                                 #         TBASE'S AND PHSPRDT'S.                                          (12D)
002122:
002123:    1257                        TBASE1            ERASE                                          #  B(1)PRM
002124:    1260                        PHSPRDT1          ERASE                                          #  B(1)PRM
002125:    1261                        TBASE2            ERASE                                          #  B(1)PRM
002126:    1262                        PHSPRDT2          ERASE                                          #  B(1)PRM
002127:    1263                        TBASE3            ERASE                                          #  B(1)PRM
002128:    1264                        PHSPRDT3          ERASE                                          #  B(1)PRM
002129:    1265                        TBASE4            ERASE                                          #  B(1)PRM
002130:    1266                        PHSPRDT4          ERASE                                          #  B(1)PRM
002131:    1267                        TBASE5            ERASE                                          #  B(1)PRM
002132:    1270                        PHSPRDT5          ERASE                                          #  B(1)PRM
002133:    1271                        TBASE6            ERASE                                          #  B(1)PRM
002134:    1272                        PHSPRDT6          ERASE                                          #  B(1)PRM
002135:
002136:
002137:                                                                                                 #  V37 TEMP STORAGE                                                       (2D)
002138:    1273     1264               MMTEMP            EQUALS   PHSPRDT3                              #  B(1)TMP
002139:    1273     1265               BASETEMP          EQUALS   TBASE4                                #  B(1)TMP
002140:
002141:                                                                                                 #         MORE UNSWITCHED FOR DISPLAY INF                                 (4D)
002142:
002143:    1273                        EBANKSAV          ERASE
002144:    1274     1273               DSPFLG            =        EBANKSAV
002145:    1274                        MARKFLAG          ERASE
002146:    1275                        EBANKTEM          ERASE
002147:    1276                        MARK2PAC          ERASE
002148:
002149:
002150:                                                                                                 #  MISCELLANEOUS UNSWITCHED                                               (19D)
002151:    1277                        1/PIPADT          ERASE                                          #  B(1)PRM
002152:    1300     1277               OLDBT1            =        1/PIPADT
002153:
002154:    1300                        LONGCADR          ERASE    +1                                    #  B(2)    LONGCALL REGISTER
002155:    1302                        LONGBASE          ERASE    +1                                    #  B(2)    LONGCALL REGISTER
002156:    1304                        LONGTIME          ERASE    +1                                    #  B(2)    LONGCALL REGISTER
002157:
002158:
002159:
002160:                                                                                                 #         MISC. INCLUDING RESTART COUNTER, GIMBAL ANGLE  SAVE  AND
002161:                                                                                                 #         STANDBY VERB ERASABLES. REDOCTR BEFORE THETAD (DWNLNK)
002162:
002163:    1306                        REDOCTR           ERASE                                          #  B(1)PRM CONTAINS NUMBER OF RESTARTS.
002164:    1307                        THETAD            ERASE    +2                                    #  B(3)PRM DESIRED GIM ANGLES FOR MANEUVER.
002165:    1312     1307               CPHI              =        THETAD                                #           (OUTER)


002167:    1312     1310               CTHETA            =        THETAD     +1                         #           (INNER)
002168:    1312     1311               CPSI              =        THETAD     +2                         #           (MIDDLE)
002169:
002170:                                                                                                 #         ENTRY VARIABLES SHARED FOR TM.                                  (4D)
002171:
002172:    1312     1307               RDOTREF           =        THETAD                                #  I(2)    P65
002173:    1312     1311               VREF              =        RDOTREF    +2                         #  I(2)    P65   HI-ORDER WORD ONLY DNLNK'D
002174:    1312                        DESOPTT           ERASE                                          #  B(1)DSP NOUN 92 FOR P20,22,52, R52.
002175:    1313                        DESOPTS           ERASE                                          #  B(1)DSP NOUN 92 FOR P20,22,52, R52.
002176:
002177:    1314                        DELV              ERASE    +5                                    #  I(6)
002178:    1322     1314               DELVX             =        DELV
002179:    1322     1316               DELVY             =        DELV       +2
002180:    1322     1320               DELVZ             =        DELV       +4
002181:
002182:
002183:                                                                                                 #         T4RUPT ERASABLE.                                                (6D)
002184:
002185:    1322                        DSRUPTSW          ERASE
002186:    1323                        OPTIND            ERASE
002187:    1324                        LGYRO             ERASE
002188:    1325                        COMMANDO          ERASE    +1
002189:    1327                        ZONE              ERASE                                          #  B(1)PRM USED IN SHAFT STOP MONITOR
002190:
002191:
002192:                                                                                                 #         MODE SWITCHING ERASABLE.                                        (09D)
002193:
002194:    1330                        DESOPMOD          ERASE                                          #  B(1)PRM
002195:    1331                        WTOPTION          ERASE                                          #  B(1)PRM
002196:    1332                        ZOPTCNT           ERASE                                          #  B(1)PRM
002197:
002198:
002199:    1333                        IMODES30          ERASE                                          #  B(1)PRM
002200:    1334     4752               TLIMBIT           =        BIT15                                 #  IMU TEMP NOT           IMU TEMP WITHIN
002201:                                                                                                 #  WITHIN LIMITS          LIMITS
002202:
002203:    1334     4753               TONISSBT          =        BIT14                                 #  ISS OFF                ISS ON
002204:
002205:    1334     4754               IMUFLBIT          =        BIT13                                 #  IMU OK         IMU FAIL IS ON
002206:
002207:    1334     4755               ICDUFLBT          =        BIT12                                 #  IMU CDU OK             IMU CDU FAIL IS ON
002208:
002209:    1334     4756               CAGEBIT           =        BIT11                                 #  IMU CAGE NOT ON        IMU CAGE ON
002210:
002211:    1334     4757               PIPAFLBT          =        BIT10                                 #  PIPA OK                PIPA FAIL IS ON
002212:
002213:    1334     4760               IMUOPBIT          =        BIT9                                  #  IMU OFF OR NOT OK      IMU ON AND OK
002214:
002215:    1334     4761               ITNON2BT          =        BIT8                                  #  IMU TURN ON DELAYED    IMU TURN ON ALLOWED
002216:


002218:    1334     4762               ITNON1BT          =        BIT7                                  #  IMU TURN ON DELAYED    IMU TURN ON ALLOWED
002219:
002220:    1334     4763               IMUNITBT          =        BIT6                                  #  IMU INIT IN PROCESS    IMU NOT BEING INIT.
002221:
002222:    1334     4764               NOACCALM          =        BIT5                                  #  INHIBIT PIPA ALARM     ALLOW PIPA ALARM
002223:
002224:    1334     4765               IMUFINHT          =        BIT4                                  #  INHIBIT IMU WARNING    ALLOW IMU WARNING
002225:
002226:    1334     4766               ICDUINHT          =        BIT3                                  #  INHIBIT CDU WARNING    ALLOW CDU WARNING
002227:
002228:    1334     4767               DLAYFAIL          =        BIT2                                  #  TURNON DELAY FAIL      TURN DELAY OK
002229:
002230:    1334     4770               ACCFINHT          =        BIT1                                  #  INHIBIT PIPA           ALLOW PIPA WARNING
002231:                                                                                                 #           WARNING
002232:
002233:    1334                        IMODES33          ERASE                                          #  B(1)PRM
002234:    1335     4753               PROCDBIT          =        BIT14                                 #  PROCEED OFF            PROCEED ON
002235:
002236:    1335     4754               PIP2FLBT          =        BIT13                                 #  PIPA OK                PIPA FAIL IS ON
002237:
002238:    1335     4755               DNLKFAIL          =        BIT12                                 #  DOWNLINK OK            DOWNLINK FAIL
002239:
002240:    1335     4756               UPLKFAIL          =        BIT11                                 #  UPLINK OK              UPLINK TOO FAST
002241:
002242:    1335     4763               NOIMUDAP          =        BIT6                                  #  DONT USE IMU FOR       OK TO USE IMU FOR
002243:                                                                                                 #   VEHICLE ATTITUDE         VEHICEL ATTITUDE
002244:
002245:    1335     4764               IMUZROBT          =        BIT5                                  #  IMU ZEROING            IMU NOT ZEROING
002246:
002247:    1335     4770               LMPTSTBT          =        BIT1                                  #  LAMP TEST REQUESTED    LAMP TEST NOT ON
002248:
002249:
002250:    1335                        MODECADR          ERASE    +1                                    #  B(2)TMP
002251:    1337     1335               IMUCADR           =        MODECADR
002252:    1337     1336               OPTCADR           =        MODECADR   +1
002253:
002254:    1337                        OPTMODES          ERASE                                          #  B(1)PRM *****MUST PRECEDE HOLDFLAG
002255:                                                                                                 #                 FOR DOWNLINK
002256:    1340     4757               ZROPTFIN          =        BIT10                                 #  OPTICS ZERO FINISH     OPTICS BEING ZEROED
002257:
002258:    1340     4762               OCDUFBIT          =        BIT7                                  #  OPTICS CDU OK          OPTICS CDU FAIL
002259:
002260:    1340     4764               OPMD1BIT          =        BIT5                                  #  OPTICS MODE NOT SET    OPTICS MODE SET TO
002261:                                                                                                 #  TO COMPUTER CONTROL      COMPUTER CONTROL
002262:
002263:    1340     4765               OPMD2BIT          =        BIT4                                  #  OPTICS MODE NOT SET    OPTICS MODE SET TO
002264:                                                                                                 #    TO ZERO OPTICS         ZERO OPTICS
002265:
002266:    1340     4766               ZOPTCS            =        BIT3                                  #  OPTICS MODE            OPTICS MODE NOT


002268:                                                                                                 #  SWITCHED TO ZERO       SWITCHED TO ZERO
002269:                                                                                                 #  OPTICS         OPTICS
002270:
002271:    1340     4767               OCDUINHT          =        BIT2                                  #  INHIBIT TRACKER        ALLOW TRACKER ALARM
002272:                                                                                                 #   ALARM
002273:
002274:    1340                        HOLDFLAG          ERASE                                          #  B(1)PRM  **** MUST FOLLOW OPTMODES
002275:                                                                                                 #                 FOR DOWNLINK
002276:
002277:
002278:
002279:                                                                                                 #         ERASABLE FOR SXTMARK CDU CHECK DELAY.  -PAD LOADED-             (1D)
002280:
002281:    1341                        CDUCHKWD          ERASE                                          #  B(1) PL
002282:
002283:                                                                                                 #         P37    **RETURN TO EARTH  (PAD LOAD) ****                       (2D)
002284:
002285:    1342                        RTED1             ERASE    +1                                    #  I(2)PL VGAMMA POLY COEF                B-3
002286:
002287:                                                                                                 #         P40    ***STEERING ROUTINE*** PAD LOAD                          (1D)
002288:
002289:    1344                        DVTHRESH          ERASE                                          #  I(1)PL  DELTA V THRESHOLD FOR LOW THRUST
002290:                                                                                                 #           ROUTINE                       B-2
002291:
002292:                                                                                                 #         P23    ***PAD LOAD****                                          (2D)
002293:
002294:    1345                        HORIZALT          ERASE    +1                                    #  I(2)PL  HORIZON ALTITUDE            M B-29
002295:
002296:                                                                                                 #         P20        ALTERNATE LOS VARIANCE     PAD LOAD****              (1D)
002297:                                                                                                 #                                                                           -16
002298:    1347                        ALTVAR            ERASE                                          #  I(2)PL MILLARD. SQUARED SCALED 2
002299:
002300:
002301:                                                                                                 #         PAD LOADED FOR DAP                                              (1D)
002302:
002303:    1350                        EMDOT             ERASE                                          #  I(1)PL  SPS FLOW RATE   KG/CS B+3
002304:
002305:
002306:                                                                                                 #         UNIVERSAL TRACKING STORAGE                                      (3D)
002307:
002308:    1351                        OPTNTYPE          ERASE                                          #  B(1)
002309:    1352                        AZIMANGL          ERASE    +1                                    #  B(2)
002310:


002312:                                                                                                 #         MODE SW. ERASABLE               (1D)
002313:
002314:    1354                        SWSAMPLE          ERASE                                          #  B(1)PRM
002315:
002316:
002317:                                                                                                 #         UT PERMANENT STORAGE                                            (2D)
002318:
002319:    1355                        R67TIME           ERASE    +1                                    #  B(2)
002320:    1357     1355               UTSTARNO          EQUALS   R67TIME                               #  B(1)
002321:
002322:
002323:                                                                                                 #         MINKEY CONTROLLER TEMP RESTART STORAGE                          (1D)
002324:
002325:    1357     1356               AUTTEMP           EQUALS   R67TIME    +1                         #  B(1)
002326:
002327:
002328:                                                                                                 #         SELF-CHECK ASSIGNMENTS.                                         (17D)
002329:
002330:                                                                                                 #                                 (DO NOT MOVE, S-C IS ADDRESS SENSITIVE)
002331:
002332:    1357                        SELFERAS          ERASE    1357       -          1377            #  ***MUST NOT BE MOVED***
002333:    1357  0001357               SFAIL             EQUALS   SELFERAS                              #  B(1)
002334:    1357  0001360               ERESTORE          EQUALS   SFAIL      +1                         #  B(1)
002335:    1357  0001361               SELFRET           EQUALS   ERESTORE   +1                         #  B(1)    RETURN
002336:    1357  0001362               SMODE             EQUALS   SELFRET    +1                         #  B(1)
002337:    1357  0001363               ALMCADR           EQUALS   SMODE      +1                         #  B(2)     ALARM-ABORT USER'S 2CADR
002338:    1357  0001365               ERCOUNT           EQUALS   ALMCADR    +2                         #  B(1)
002339:    1357  0001366               SCOUNT            EQUALS   ERCOUNT    +1                         #  B(3)
002340:    1357  0001371               SKEEP1            EQUALS   SCOUNT     +3                         #  B(1)
002341:    1357  0001372               SKEEP2            EQUALS   SKEEP1     +1                         #  B(1)
002342:    1357  0001373               SKEEP3            EQUALS   SKEEP2     +1                         #  B(1)
002343:    1357  0001374               SKEEP4            EQUALS   SKEEP3     +1                         #  B(1)
002344:    1357  0001375               SKEEP5            EQUALS   SKEEP4     +1                         #  B(1)
002345:    1357  0001376               SKEEP6            EQUALS   SKEEP5     +1                         #  B(1)
002346:    1357  0001377               SKEEP7            EQUALS   SKEEP6     +1                         #  B(1)
002347:
002348:
002349:


002351:                                                                                                 #         EBANK-3 ASSIGNMENTS
002352:
002353: E3,1400                                          SETLOC   1400
002354:
002355:                                                                                                 #         WAITLIST TASK LISTS.                                            (26D)
002356:
002357: E3,1400                        LST1              ERASE    +7                                    #  B(8D)PRM  DELTA T S.
002358: E3,1410                        LST2              ERASE    +17D                                  #  B(18D)PRM TASK 2CADR ADDRESSES.
002359:
002360:
002361:                                                                                                 #         RESTART STORAGE.                                                (2D)
002362:
002363: E3,1432                        RSBBQ             ERASE    +1                                    #  B(2)PRM SAVE BB AND Q FOR RESTARTS.
002364:
002365:
002366:                                                                                                 #         MORE LONGCALL STORAGE. (MUST BE IN LST1'S BANK.                 (2D)
002367:
002368: E3,1434                        LONGEXIT          ERASE    +1                                    #  B(2)TMP MAY BE SELDOM OVERLAYED.
002369:
002370:
002371:                                                                                                 #         PHASE-CHANGE LISTS PART II.                                             (12D)
002372:
002373: E3,1436                        PHSNAME1          ERASE                                          #  B(1)PRM
002374: E3,1437                        PHSBB1            ERASE                                          #  B(1)PRM
002375: E3,1440                        PHSNAME2          ERASE                                          #  B(1)PRM
002376: E3,1441                        PHSBB2            ERASE                                          #  B(1)PRM
002377: E3,1442                        PHSNAME3          ERASE                                          #  B(1)PRM
002378: E3,1443                        PHSBB3            ERASE                                          #  B(1)PRM
002379: E3,1444                        PHSNAME4          ERASE                                          #  B(1)PRM
002380: E3,1445                        PHSBB4            ERASE                                          #  B(1)PRM
002381: E3,1446                        PHSNAME5          ERASE                                          #  B(1)PRM
002382: E3,1447                        PHSBB5            ERASE                                          #  B(1)PRM
002383: E3,1450                        PHSNAME6          ERASE                                          #  B(1)PRM
002384: E3,1451                        PHSBB6            ERASE                                          #  B(1)PRM
002385:
002386:
002387:                                                                                                 #         IMU COMPENSATION PARAMETERS.                                            (22D)
002388:
002389: E3,1452                        PBIASX            ERASE                                          #  B(1)   PIPA BIAS, PIPA SCALE FACTR TERMS
002390: E3,1453  E3,1452               PIPABIAS          =        PBIASX                                #      INTERMIXED.
002391: E3,1453                        PIPASCFX          ERASE
002392: E3,1454  E3,1453               PIPASCF           =        PIPASCFX
002393: E3,1454                        PBIASY            ERASE
002394: E3,1455                        PIPASCFY          ERASE
002395: E3,1456                        PBIASZ            ERASE
002396: E3,1457                        PIPASCFZ          ERASE
002397:
002398: E3,1460                        NBDX              ERASE                                          #  GYRO BIAS DRIFTS
002399: E3,1461                        NBDY              ERASE
002400: E3,1462                        NBDZ              ERASE
002401:


002403: E3,1463                        ADIAX             ERASE                                          #  ACCELERATION SENSITIVE DRIFT ALONG THE
002404: E3,1464                        ADIAY             ERASE                                          #      INPUT AXIS
002405: E3,1465                        ADIAZ             ERASE
002406:
002407: E3,1466                        ADSRAX            ERASE                                          #  ACCELERATION SENSITIVE DRIFT ALONG THE
002408: E3,1467                        ADSRAY            ERASE                                          #      SPIN REFERENCE AXIS
002409: E3,1470                        ADSRAZ            ERASE
002410:
002411: E3,1471                        GCOMP             ERASE    +5                                    #  CONTAINS COMPENSATING TORQUES
002412:
002413: E3,1477                        GCOMPSW           ERASE
002414: E3,1500  E3,1471               COMMAND           EQUALS   GCOMP
002415: E3,1500  E3,1474               CDUIND            EQUALS   GCOMP      +3
002416:
002417:                                                                                                 #         STATE VECTORS FOR ORBIT INTEGRATION.                            (44D)
002418:
002419:                                                                                                 #                                 (DIFEQCNT THRU XKEP MUST BE IN SAME
002420:                                                                                                 #                                   EBANK AS RRECTCSM, RRECTLEM ETC
002421:                                                                                                 #                                   BECAUSE THE COPY-CYCLES (ATOPCSM,
002422:                                                                                                 #                                   PTOACSM ETC) ARE EXECUTED IN BASIC.
002423:                                                                                                 #                                     ALL OTHER REFERENCES TO THIS GROUP
002424:                                                                                                 #                                   ARE BY INTERPRETIVE INSTRUCTIONS.)
002425:
002426: E3,1500                        DIFEQCNT          ERASE    +43D                                  #  B(1)TMP
002427:                                                                                                 #                                 (UPSVFLAG...XKEP MUST BE KEPT IN ORDER)
002428:
002429: E3,1554  E3,1501               UPSVFLAG          EQUALS   DIFEQCNT   +1                         #  B(1)PRM UPDATE FLAG
002430: E3,1554  E3,1502               RRECT             EQUALS   UPSVFLAG   +1                         #  B(6)TMP POS AT RECT             KM*2(-14)
002431: E3,1554  E3,1510               VRECT             EQUALS   RRECT      +6                         #  B(6)TMP VEL AT RECT         KM(-1/2)*2(6)
002432: E3,1554  E3,1516               TET               EQUALS   VRECT      +6                         #  B(2)TMP TIME OF STATE VECT  CSECS*2(-28)
002433: E3,1554  E3,1520               TDELTAV           EQUALS   TET        +2                         #  B(6)TMP POSITION DEVIATION       KM*2(14)
002434: E3,1554  E3,1526               TNUV              EQUALS   TDELTAV    +6                         #  B(6)TMP VEL DEVIATION      KM(-1/2)*2(14)
002435: E3,1554  E3,1534               RCV               EQUALS   TNUV       +6                         #  B(6)TMP CONIC POSITION  KM*2(-14)
002436: E3,1554  E3,1542               VCV               EQUALS   RCV        +6                         #  B(6)TMP CONIC VELOCITY     KM(-1/2)*2(6)
002437: E3,1554  E3,1550               TC                EQUALS   VCV        +6                         #  B(2)TMP TIME SINCE RECITIFICATION
002438: E3,1554  E3,1552               XKEP              EQUALS   TC         +2                         #  B(2)TMP ROOT OF KEPLER EQ KM(1/2)*2(-10)
002439:
002440: E3,1554  E3,1552               XPREV             =        XKEP                                  #  I(2)TMP
002441:                                                                                                 #      **** TEMP - IN VAC AREA ****
002442: E3,1554                        RRECT1            EQUALS   18D
002443: E3,1554                        VRECT1            EQUALS   24D
002444: E3,1554                        TET1              EQUALS   30D
002445:
002446:
002447:
002448:                                                                                                 #         PERMANENT STATE VECTORS AND TIMES.                              (99D)
002449:
002450:                                                                                                 #         (DO NOT OVERLAY WITH ANYTHING AFTER BOOST)
002451:


002453:                                                                                                 #         (RRECTCSM ...XKEPCSM MUST BE KEPT IN THIS ORDER)
002454:
002455: E3,1554                        RRECTCSM          ERASE    +5                                    #  B(6)PRM CSM VARIABLES.
002456: E3,1562  E3,1554               RRECTHIS          =        RRECTCSM
002457: E3,1562                        VRECTCSM          ERASE    +5                                    #  B(6)PRM
002458: E3,1570                        TETCSM            ERASE    +1                                    #  B(2)PRM
002459: E3,1572  E3,1570               TETTHIS           =        TETCSM
002460: E3,1572                        DELTACSM          ERASE    +5                                    #  B(6)PRM
002461: E3,1600                        NUVCSM            ERASE    +5                                    #  B(6)PRM
002462: E3,1606                        RCVCSM            ERASE    +5                                    #  B(6)PRM
002463: E3,1614                        VCVCSM            ERASE    +5                                    #  B(6)PRM
002464: E3,1622                        TCCSM             ERASE    +1                                    #  B(2)PRM
002465: E3,1624                        XKEPCSM           ERASE    +1                                    #  B(2)PRM
002466:
002467:                                                                                                 #         (RRECTLEM ...XKEPLEM MUST BE KEPT IN THIS ORDER)
002468:
002469: E3,1626                        RRECTLEM          ERASE    +5                                    #  B(6)PRM LEM VARIABLES
002470: E3,1634  E3,1626               RRECTOTH          =        RRECTLEM
002471: E3,1634                        VRECTLEM          ERASE    +5                                    #  B(6)PRM
002472: E3,1642                        TETLEM            ERASE    +1                                    #  B(2)PRM
002473: E3,1644  E3,1642               TETOTHER          =        TETLEM
002474: E3,1644                        DELTALEM          ERASE    +5                                    #  B(6)PRM
002475: E3,1652                        NUVLEM            ERASE    +5                                    #  B(6)PRM
002476: E3,1660                        RCVLEM            ERASE    +5                                    #  B(6)PRM
002477: E3,1666                        VCVLEM            ERASE    +5                                    #  B(6)PRM
002478: E3,1674                        TCLEM             ERASE    +1                                    #  B(2)PRM
002479: E3,1676                        XKEPLEM           ERASE    +1                                    #  B(2)PRM
002480:
002481: E3,1700                        X789              ERASE    +5
002482: E3,1706                        TEPHEM            ERASE    +2
002483: E3,1711                        UNITW             ERASE    +5
002484: E3,1717  E3,1711               -AYO              EQUALS   UNITW                                 #   (2)
002485: E3,1717  E3,1713               AXO               EQUALS   UNITW      +2                         #   (2)
002486:
002487:
002488:
002489:                                                                                                 #         STATE VECTORS FOR DOWNLINK.                                     (12D)
002490:
002491: E3,1717                        R-OTHER           ERASE    +5                                    #  B(6)PRM POS VECT (OTHER VECH) FOR DNLINK
002492: E3,1725                        V-OTHER           ERASE    +5                                    #  B(6)PRM VEL VECT (OTHER VECH) FOR DNLINK
002493:
002494: E3,1733  E3,1642               T-OTHER           =        TETLEM                                #               TIME (OTHER VECH) FOR DNLINK
002495:
002496:
002497:                                                                                                 #         REFSMMAT.                                                       (18D)
002498:
002499: E3,1733                        REFSMMAT          ERASE    +17D                                  #  I(18D)PRM
002500:
002501:                                                                                                 #         AVERAGEG INTEGRATOR STORAGE.                                    (6D)
002502:


002504: E3,1755                        UNITR             ERASE    +5
002505:
002506:
002507:
002508:                                                                                                 #         TEMP STORAGE FOR N90 DISPLAY IN RENDEZVOUS TARGETING PROGRAMS   (6D)
002509: E3,1763  E3,1755               YCSM              EQUALS   UNITR
002510: E3,1763  E3,1757               YDOTC             EQUALS   YCSM       +2
002511: E3,1763  E3,1761               YDOTL             EQUALS   YDOTC      +2
002512:
002513:
002514:                                                                                                 #         P40 PAD LOADS                                                   (3D)
002515:
002516: E3,1763                        EIMP1SEC          ERASE                                          #  I(1)PL E-2 B-14 NEWT-SEC BR-PT AT 1 SEC
002517: E3,1764                        EFIMP01           ERASE                                          #  I(1)PL E-2 B-14 NEWT SLOPE 0-1 SEC SEG
002518: E3,1765                        EFIMP16           ERASE                                          #  I(1)PL E-2 B-14 NEWT SLOPE 1-6 SEC SEG
002519:
002520:
002521:
002522:                                                                                                 #  **********LUNAR MODULE CHANGE  ***********                             (2D)
002523:
002524: E3,1766  E3,1766               E3J22R2M          EQUALS   EFIMP16    +1
002525: E3,1766  E3,1767               E32C31RM          EQUALS   E3J22R2M   +1
002526:
002527:
002528:                                                                                                 #      **** CONICSEX (PLANETARY INERT. ORIEN.) ****
002529:
002530: E3,1766  E3,1706               TIMSUBO           EQUALS   TEPHEM                                #  CSEC B-42 (TRIPLE PREC)
002531:
002532:
002533:                                                                                                 #         P23 PAD LOAD (2D)
002534:
002535:                                                                                                 #  ** P24  PAD LOADS **    (2D)
002536:
002537: E3,1766  E3,1770               TRUNSF            EQUALS   E32C31RM   +1                         #  I(1)PL
002538: E3,1766  E3,1771               SHAFTSF           EQUALS   TRUNSF     +1                         #  I(1)PL
002539:


002541:
002542:                                                                                                 #                 EBANK-4 ASSIGNMENTS
002543:
002544: E4,1400                                          SETLOC   2000
002545:
002546:
002547: E4,1400                        ERASPIP           EQUALS                                         #  ENTRANCE TO ERASABLE PIPA TEST PROGRAM
002548:                                                                                                 #         P20 STORAGE.            -PAD LOADED-                            (4D)
002549:
002550: E4,1400                        WRENDPOS          ERASE                                          #  B(1)PL                     M B-14
002551: E4,1401                        WRENDVEL          ERASE                                          #  B(1)PL                   M/CSECB0
002552: E4,1402                        RMAX              ERASE                                          #  B(1)PL              METERS*2(-19)
002553: E4,1403                        VMAX              ERASE                                          #  B(1)PL               M/CSEC*2(-7)
002554:
002555:
002556:                                                                                                 #         P22 STORAGE.            -PAD LOADED-                            (5D)
002557:
002558: E4,1404                        WORBPOS           ERASE                                          #  B(1)PL                     M B-14
002559: E4,1405                        WORBVEL           ERASE                                          #  B(1)PL                   M/CSECB0
002560: E4,1406                        S22WSUBL          ERASE                                          #  B(1)PL                     M B-14
002561: E4,1407                        RPVAR             ERASE    +1                                    #  B(2)PL
002562:
002563:
002564:                                                                                                 #         CONISEX STORAGE.        -PAD LOADED-                            (6D)
002565:
002566: E4,1411                        504LM             ERASE    +5                                    #  I(6)MOON LIBRATION VECTOR
002567:
002568:
002569:
002570:                                                                                                 #         ENTRY STORAGE           -PAD LOADED-                            (2D)
002571:
002572: E4,1417                        EMSALT            ERASE    +1                                    #  I(2)PL
002573:
002574:
002575:                                                                                                 #         P35 CONSTANTS.          -PAD LOADED-                            (4D)
002576:
002577: E4,1421                        ATIGINC           ERASE    +1                                    #  B(2)PL
002578: E4,1423                        PTIGINC           ERASE    +1                                    #  B(2)PL
002579:
002580:
002581:                                                                                                 #         LUNAR LANDING SIGHT DATA. -PAD LOADED-                          (6D)
002582:                                                                                                 #         (USED BY INTEGRATION INITIALIZATION,LAT-LONG SUBROUTINES, P30'S)
002583:
002584: E4,1425                        RLS               ERASE    +5                                    #  I(6) PL  LUNAR LANDING SIGHT VECTOR
002585:
002586:
002587:
002588:                                                                                                 #  CONISEX (LUNAR AND SOLAR EPHEM)STORAGE. -PAD LOADED-                   (77D)
002589:
002590: E4,1433                        TIMEMO            ERASE    +76D
002591: E4,1550  E4,1436               VECOEM            EQUALS   TIMEMO     +3


002593: E4,1550  E4,1532               RESO              EQUALS   VECOEM     +60D
002594: E4,1550  E4,1540               VESO              EQUALS   RESO       +6
002595: E4,1550  E4,1546               OMEGAES           EQUALS   VESO       +6
002596:
002597:
002598:                                                                                                 #         FULL INTEGRATION STORAGE.                                       (88D)
002599:
002600: E4,1550                        PBODY             ERASE                                          #  I(1)
002601: E4,1551  E4,1551               ALPHAV            EQUALS   PBODY      +1                         #  I(6)TMP
002602: E4,1551  E4,1557               BETAV             EQUALS   ALPHAV     +6                         #  I(6)TMP
002603: E4,1551  E4,1565               PHIV              EQUALS   BETAV      +6                         #  I(6)TMP
002604: E4,1551  E4,1573               PSIV              EQUALS   PHIV       +6                         #  I(6)TMP
002605: E4,1551  E4,1601               FV                EQUALS   PSIV       +6                         #  I(6)TMP
002606: E4,1551  E4,1607               BETAM             EQUALS   FV         +6                         #  I(6)TMP
002607: E4,1551  E4,1611               H                 EQUALS   BETAM      +2                         #  I(2)TMP
002608: E4,1551  E4,1613               IRETURN           EQUALS   H          +2                         #  I(1) TMP
002609: E4,1551  E4,1614               NORMGAM           EQUALS   IRETURN    +1                         #  I(1)TMP
002610: E4,1551  E4,1615               VECTAB            EQUALS   NORMGAM    +1                         #  I(36)TMP
002611: E4,1551  E4,1661               RPQV              EQUALS   VECTAB     +36D                       #   (6)TMP VECTOR PRIMARY TO SECONDARY BODY
002612: E4,1551  E4,1667               ORIGEX            EQUALS   RPQV       +6                         #  B(1)TMP QSAVE FOR COORD. SWITCH ROUTINE
002613: E4,1551  E4,1667               KEPRTN            EQUALS   ORIGEX                                #           QSAVE FOR KEPLER
002614: E4,1551  E4,1670               RPSV              EQUALS   ORIGEX     +1                         #  I(6) TMP SUN TO PRIMARY BODY VECTOR
002615: E4,1551  E4,1676               XKEPNEW           EQUALS   RPSV       +6                         #   (2)TMP ROOT OF KEPLERS EQU FOR TIME TAU
002616:
002617:
002618:                                                                                                 #         THESE PROBABLY CAN SHARE INTEGRATION VARIABLES.                 (3D)
002619:
002620:                                                                                                 #         LAT-LONG STORAGE
002621:
002622: E4,1551  E4,1637               ERADM             EQUALS   VECTAB     +18D                       #  I(2)TMP
002623: E4,1551  E4,1641               INCORPEX          EQUALS   ERADM      +2                         #  I(1)TMP
002624:
002625:
002626:                                                                                                 #         R31(V83) STORAGE. -SHARES WITH INTEGRATION STORAGE-             (24D)
002627:
002628:
002629: E4,1551  E4,1623               BASEOTP           EQUALS   VECTAB     +6                         #  I(6) BASE POS VECTOR OTHER VEH
002630: E4,1551  E4,1637               BASEOTV           EQUALS   VECTAB     +18D                       #  I(6) BASE VEL VECTOR OTHER VEH
002631: E4,1551  E4,1653               BASETHP           EQUALS   VECTAB     +30D                       #  I(6) BASE POS VECTOR THIS VEH
002632: E4,1551  E4,1661               BASETHV           EQUALS   RPQV                                  #  I(6) BASE VEL VECTOR THIS VEH
002633:
002634:
002635:                                                                                                 #         CONIC INTEGRATION STORAGE.      -MAY NOT SHARE WITH SERVICER-   (6D)
002636:
002637: E4,1551  E4,1700               ALPHAM            EQUALS   XKEPNEW    +2                         #  I(2)TMP
002638: E4,1551  E4,1702               TAU.              EQUALS   ALPHAM     +2                         #  I(2)TMP
002639: E4,1551  E4,1704               DT/2              EQUALS   TAU.       +2                         #  I(2)TMP
002640:
002641:
002642:                                                                                                 #         R61 STORAGE.                                                    (2D)
002643:


002645: E4,1551  E4,1706               R63TIME           EQUALS   DT/2       +2                         #  I(2)TMP
002646:
002647:
002648:
002649:                                                                                                 #         INTEGRATION STORAGE                                             (1D)
002650: E4,1551  E4,1710               EGRESS            EQUALS   R63TIME    +2
002651:
002652:
002653:                                                                                                 #         VERB 83(N54)AND VERB 90 (N96) DISPLAYS                          (6D)
002654: E4,1551  E4,1711               RANGE             EQUALS   EGRESS     +1                         #  I(2)DSP NOUN 54 DISTANCE TO OPTICAL SUBJ
002655: E4,1551  E4,1713               RRATE             EQUALS   RANGE      +2                         #  I(2)DSP NOUN 54 RATE OF APPROACH
002656: E4,1551  E4,1715               RTHETA            EQUALS   RRATE      +2                         #  I(2)DSP NOUN 54
002657: E4,1551  E4,1715               RRATE2            EQUALS   RTHETA                                #  I(2) N96 LM OUT-OF-PLANE RATE
002658:
002659:
002660:                                                                                                 #  VERB 83  STORAGE                                                       (14D)
002661:
002662: E4,1551  E4,1717               RONE              EQUALS   RTHETA     +2                         #  I(6)TMP VECTOR STORAGE. (SCRATCH)
002663: E4,1551  E4,1725               VONE              EQUALS   RONE       +6                         #  I(6)TMP VECTOR STORAGE (SCRATCH)
002664: E4,1551  E4,1733               BASETIME          EQUALS   VONE       +6                         #  I(2)    BASE TIME  ASSOC WITH BASE VECS
002665:
002666:
002667:
002668:                                                                                                 #         V 67 STORAGE                                                    (6D)
002669:
002670: E4,1551  E4,1711               WWPOS             EQUALS   RANGE                                 #  I(2)TMP
002671: E4,1551  E4,1713               WWVEL             EQUALS   RRATE                                 #  I(2)TMP
002672: E4,1551  E4,1715               WWOPT             EQUALS   RTHETA                                #  I(2)TMP
002673:
002674:
002675:                                                                                                 #         S-BAND ANTENNA GIMBAL ANGLES.  DISPLAYED BY R05 (EXT.VB.64)     (4D)
002676:                                                                                                 #                OPERATION DURING P00 ONLY.
002677:
002678: E4,1551  E4,1711               RHOSB             EQUALS   RANGE                                 #  B(2)DSP NOUN 51.  PITCH ANGLE
002679: E4,1551  E4,1713               GAMMASB           EQUALS   RHOSB      +2                         #  B(2)DSP NOUN 51.  YAW ANGLE
002680:
002681:
002682:                                                                                                 #         R 36 SCRATCHPAD STORAGE                                         (18D)
002683:
002684: E4,1551  E4,1717               VPASS36           EQUALS   RONE                                  #  I (6)S-S
002685: E4,1551  E4,1725               UNP36             EQUALS   VPASS36    +6                         #  I (6)S-S
002686: E4,1551  E4,1733               UNA36             EQUALS   UNP36      +6                         #  I (6)S-S
002687:
002688:
002689:
002690:                                                                                                 #         EXTENDED VERB 82 STORAGE.                                       (6D)
002691:
002692: E4,1551  E4,1711               HPERMIN           EQUALS   RANGE                                 #  I(2) SET TO 300KFT OR 35KFT FOR SR30.1
002693: E4,1551  E4,1713               RPADTEM           EQUALS   HPERMIN    +2                         #  I(2) PAD OR LANDING RADIUS FOR SR30.1
002694: E4,1551  E4,1715               TSTART82          EQUALS   RPADTEM    +2                         #  I(2) TEMP TIME STORAGE FOR V82.


002696:
002697:
002698:
002699:                                                                                                 #         MORE VERB 82 NOT SHARING WITH VERB 83                           (7D)
002700:
002701:
002702: E4,1551  E4,1733               V82FLAGS          EQUALS   VONE       +6                         #   (1) FOR V 82 BITS
002703: E4,1551  E4,1734               TFF               EQUALS   V82FLAGS   +1                         #  I(2)  DSP NOUN 50,44
002704: E4,1551  E4,1736               -TPER             EQUALS   TFF        +2                         #  I(2)DSP NOUN 32
002705: E4,1551  E4,1740               THETA(1)          EQUALS   -TPER      +2                         #  I(2) TMP SET AT END OF V82
002706: E4,1551  E4,1746               RSP-RREC          EQUALS   AOPTIME                               #  DSP NOUN 50 FOR V82 DURING P00 AND P11
002707:
002708:
002709:
002710:                                                                                                 #         REENTRY CONICS                                                  (6D)
002711:
002712: E4,1551  E4,1733               URONE             EQUALS   V82FLAGS                              #  I(6) SAVE ACTUAL FOR CALCULATIONS
002713:
002714:
002715:                                                                                                 #         V 82 DISPLAY                                                    (4D)
002716:
002717: E4,1551  E4,1742               HAPOX             EQUALS   THETA(1)   +2                         #  I(2) DSP NOUN 44
002718: E4,1551  E4,1744               HPERX             EQUALS   HAPOX      +2                         #  I(2) DSP NOUN 44
002719:
002720:
002721:
002722:                                                                                                 #         MINKEY RENDEZVOUS STORAGE                                       (2D)
002723:
002724: E4,1551  E4,1750               TCSI2             EQUALS   RSP-RREC   +2                         #  I(2) TIME OF NEXT CSI
002725:
002726:
002727:                                                                                                 #         P22 DISPLAY REGISTERS                                           (06D)
002728:
002729: E4,1551  E4,1746               AOPTIME           EQUALS   HPERX      +2                         #  I(2)TMP FOR SR52.1,ADVTRACK
002730: E4,1551  E4,1750               LANDLONG          EQUALS   AOPTIME    +2                         #  I(2) DSP NOUN 89 FOR P22
002731: E4,1551  E4,1752               LANDALT           EQUALS   LANDLONG   +2                         #  I(2)DSP NOUN 89 FOR P22.
002732:
002733:
002734:
002735:                                                                                                 #         S34/35.5,P34-P35 STORAGE.                                       (5D)
002736:
002737: E4,1551  E4,1754               KT                EQUALS   LANDALT    +2                         #  B(2)
002738: E4,1551  E4,1756               QSAVED            EQUALS   KT         +2                         #  B(1)TMP HOLDS RETURN
002739: E4,1551  E4,1757               RTRN              EQUALS   QSAVED     +1                         #  B(1) RETURN
002740: E4,1551  E4,1760               SUBEXIT           EQUALS   RTRN       +1                         #  B(1) TMP
002741: E4,1551  E4,1756               ANEXIT            EQUALS   QSAVED                                #  I(1)
002742:
002743:
002744:                                                                                                 #         P 30 DISPLAY                                                    (4D)
002745:


002747: E4,1551  E4,1754               HAPO              EQUALS   KT                                    #  I(2) DSP NOUN 42, FOR P30.
002748: E4,1551  E4,1756               HPER              EQUALS   HAPO       +2                         #  I(2) DSP NOUN 42, FOR P30.
002749:
002750:
002751:
002752:                                                                                                 #         SOME P34 STORAGE.       (OVERLAYS P35.1 STORAGE)                (2D)
002753:
002754: E4,1551  E4,1754               NOMTPI            EQUALS   KT                                    #  I(2)TMP NOMINAL TPI TIME FOR RECYCLE
002755:
002756:
002757:                                                                                                 #         P15 PAD LOADS
002758:
002759: E4,1551  E4,1754               DTF               EQUALS   KT                                    #  I(1)
002760: E4,1551  E4,1755               VC/O              EQUALS   DTF        +1                         #  I(2)
002761:
002762:
002763:                                                                                                 #  THE FOLLOWING ARE ERASABLES USED BY THE SYSTEM TESTS. 205 USES TRANSM1  GS ARE NOT USED IN 205 NOR ARE THEY
002764:                                                                                                 #  WHILE 504 USES TRANSM1 AND ALFDK .
002765:


002769: E4,1400                                          SETLOC   2000
002770: E4,1400                        TRANSM1           EQUALS                                         #   (18) INITIALIZATION FOR IMU TESTS
002771: E4,1400  E4,1422               ALFDK             =        TRANSM1    +18D                       #   (144) ERASABLE LOAD IN 504
002772: E4,1400  E4,1641               ENDSYS-4          EQUALS   ALFDK      +143D                      #  LAST SYS.TEST STORAGE IN E-4
002773:
002774:                                                                                                 #  END OF PERF. TEST ERASABLE IN BANK 4
002775:
002776:                                                                                                 #      *-*-* V82 *-*-*                                                    (6D)
002777:
002778: E4,1400  E4,1761               VONE'             EQUALS   SUBEXIT    +1                         #  I(6)TMP NORMAL VELOCITY VONE/ SQRT MU
002779:
002780:
002781:                                                                                                 #      MINKEY PAD LOADS                                                   (8D)
002782:
002783: E4,1400  E4,1767               HAMDELH           EQUALS   VONE'      +6                         #  I(2)PL
002784: E4,1400  E4,1771               WRDTIME           EQUALS   HAMDELH    +2                         #  I(1)PL
002785: E4,1400  E4,1772               MINBLKTM          EQUALS   WRDTIME    +1                         #  I(1)PL
002786: E4,1400  E4,1773               TBEFCOMP          EQUALS   MINBLKTM   +1                         #  I(1)PL
002787: E4,1400  E4,1774               BRNBLKTM          EQUALS   TBEFCOMP   +1                         #  I(1)PL
002788: E4,1400  E4,1775               MAXWTIME          EQUALS   BRNBLKTM   +1                         #  I(1)PL
002789: E4,1400  E4,1776               FINCMPTM          EQUALS   MAXWTIME   +1                         #  I(1)PL
002790:
002791:
002792:                                                                                                 #         PAD LOAD INTEGRATION ERROR INCLUDED IN VARIANCE BY P20          (1D)
002793:
002794: E4,1400  E4,1777               INTVAR            EQUALS   FINCMPTM   +1                         #  I(1)PL  SQUARE OF EXPECTED INTEGRATION
002795:                                                                                                 #           POSITION EXTRAPOLATION ERROR.
002796:                                                                                                 #           SCALED  METERS(2) 2(15)


002798:                                                                                                 #  EBANK-5 ASSIGNMENTS
002799:
002800: E5,1400                                          SETLOC   2400
002801:
002802:
002803:                                                                                                 #         *-*-*-*-  OVERLAY 1 IN EBANK 5 -*-*-*-*
002804:
002805:                                                                                                 #         W-MATRIX STORAGE.                                               (162D)
002806:


002813:
002814: E5,1400                        W                 EQUALS                                         #  B(162)
002815:
002816: E5,1400  E5,1444               9X9LOC1           EQUALS   W          +44
002817: E5,1400  E5,1532               9X9LOC2           EQUALS   9X9LOC1    +66
002818:
002819:                                                                                                 #         P22 TEMP STORAGE                                                (6D)
002820:
002821: E5,1400  E5,1554               S22RL             EQUALS   W          +108D                      #  TMP RL IN UNKNOWN LMK W INIT
002822:
002823:
002824: E5,1400  E5,1570               EMATRIX           =        W          +120D                      #  B(42)    USED TO CONVERT W TO  6X6
002825: E5,1400  E5,1642               END-W             EQUALS   W          +162D                      #  **NEXT AVAILABLE LOC AFTER W MATRIX**
002826:
002827:
002828:                                                                                                 #         AUTO-OPTICS STORAGE -R52-
002829:
002830:                                                                                                 #  DO NOT MOVE FROM E5,1554. A DELICATE BALANCE EXISTS BETWEEN THIS AND P03
002831: E5,1400  E5,1554               XNB1              EQUALS   W          +108D                      #  B(6D) TMP
002832: E5,1400  E5,1562               YNB1              EQUALS   XNB1       +6                         #  B(6)TMP
002833: E5,1400  E5,1570               ZNB1              EQUALS   YNB1       +6                         #  B(6)TMP
002834: E5,1400  E5,1576               SAVQR52           EQUALS   ZNB1       +6                         #  I(2)TMP
002835:
002836:
002837: E5,1400  E5,1577               R52BNKSV          EQUALS   SAVQR52    +1                         #  USED TO SAVE EBANK IN R52
002838: E5,1400  E5,1600               PLANVEC           EQUALS   SAVQR52    +2                         #  B(6) S-S SIGHTING VECTOR IN REF. COOR.
002839: E5,1400  E5,1606               TSIGHT            EQUALS   PLANVEC    +6                         #  B(2) S-S TIME OF SIGHTING
002840:
002841:
002842:
002843:                                                                                                 #         RENDEZVOUS TARGETTING STORAGE                                   (6D)
002844:
002845: E5,1400  E5,1600               AUTOY             EQUALS   PLANVEC                               #  I(2)
002846: E5,1400  E5,1602               CMYDOT            EQUALS   AUTOY      +2                         #  I(2)
002847: E5,1400  E5,1604               LMYDOT            EQUALS   CMYDOT     +2                         #  I(2)
002848:
002849:
002850:                                                                                                 #         RENDEZVOUS -P34-35                                              (26D)
002851:
002852: E5,1400  E5,1610               DVLOS             EQUALS   TSIGHT     +2                         #  I(6) S-S DELTA VELOCITY,LOS COORD-DISPL1
002853: E5,1400  E5,1616               UNRM              EQUALS   DVLOS      +6                         #  I(6) S-S
002854: E5,1400  E5,1624               ULOS              EQUALS   UNRM       +6                         #  I(6) S-S UNIT LINE OF SIGHT VECTOR
002855: E5,1400  E5,1632               ACTCENT           EQUALS   ULOS       +6                         #  I(2) S-S CENTRAL ANGLE BETWEEN ACTIVE


002857:                                                                                                 #           VEH AT TPI IGNITION TIME AND
002858:                                                                                                 #           TARGET VECTOR.
002859: E5,1400  E5,1634               DELVTPI           EQUALS   ACTCENT    +2                         #  I(2)    NOUN 58 FOR P34.
002860: E5,1400  E5,1636               DELVTPF           EQUALS   DELVTPI    +2                         #  I(2)    NOUN 58,59 FOR P34,35.
002861: E5,1400  E5,1640               POSTTPI           EQUALS   DELVTPF    +2                         #  I(2)    NOUN 58 FOR P34.
002862: E5,1400  E5,1634               TDEC2             EQUALS   DELVTPI                               #   (2)
002863:
002864:
002865: E5,1400  E5,1640               T3TOT4            EQUALS   POSTTPI                               #  I(2) DSP NOUN 39 FOR P34,P35. TPI TO TIN
002866:                                                                                                 #  T (CAN NOT SHARE WITH RETURN TO EARTH)
002867:                                                                                                 #         ALIGNMENT                                                       (12D)
002868:
002869: E5,1400  E5,1610               STARSAV1          EQUALS   DVLOS                                 #  I(6)TMP RESTART STAR SAVE.
002870: E5,1400  E5,1616               STARSAV2          EQUALS   STARSAV1   +6                         #  I(6)TMP RESTART STAR SAVE.
002871: E5,1400  E5,1616               US                =        STARSAV2                              #           (CISLUNAR TAG FOR STARSAV2).
002872:
002873:
002874:
002875:                                                                                                 #         P24-RATE AIDED OPTICS                                           (2)
002876:
002877: E5,1400  E5,1656               TRTEMP            EQUALS   R1VEC                                 #  B(1)TMP
002878: E5,1400  E5,1657               SRTEMP            EQUALS   TRTEMP     +1                         #  B(1)TMP  ALSO USED AS RETURN SAVE BY R51
002879:                                                                                                 #           AND P23.
002880:


002882:                                                                                                 #         ALIGNMENT/SYSTEST/CALCSMSC/CRS61.1 COMMON STORAGE.              (36D)
002883:                                                                                                 #         (CALCSMSC IS A SUBSET OF S41.1 AT LEAST)
002884:                                                                                                 #         (CRS61.1  IS A SUBSET OF P20)
002885:
002886: E5,1400  E5,1671               XSM               EQUALS   END-W      +23D                       #  B(6)
002887: E5,1400  E5,1677               YSM               EQUALS   XSM        +6                         #  B(6)TMP
002888: E5,1400  E5,1705               ZSM               EQUALS   YSM        +6                         #  B(6)TMP
002889:
002890: E5,1400  E5,1713               XDC               EQUALS   ZSM        +6                         #  B(6)TMP
002891: E5,1400  E5,1721               YDC               EQUALS   XDC        +6                         #  B(6)TMP
002892: E5,1400  E5,1727               ZDC               EQUALS   YDC        +6                         #  B(6)TMP
002893:
002894: E5,1400  E5,1713               XNB               =        XDC
002895: E5,1400  E5,1721               YNB               =        YDC
002896: E5,1400  E5,1727               ZNB               =        ZDC
002897:
002898:
002899:                                                                                                 #         ALIGNMENT/SYSTEST COMMON STORAGE.                               (18D)
002900:
002901: E5,1400  E5,1735               STARAD            EQUALS   ZDC        +6                         #  I(18D)TMP
002902:
002903:
002904:                                                                                                 #         ALIGNMENT/SYSTEST/AUTO OPTICS COMMON STORAGE.                   (17D)
002905:
002906: E5,1400  E5,1757               OGC               EQUALS   STARAD     +18D                       #  I(2)TMP
002907: E5,1400  E5,1761               IGC               EQUALS   OGC        +2                         #  I(2)TMP
002908: E5,1400  E5,1763               MGC               EQUALS   IGC        +2                         #  I(2)TMP
002909: E5,1400  E5,1765               STAR              EQUALS   MGC        +2                         #  I(6)TMP
002910: E5,1400  E5,1773               SAC               EQUALS   STAR       +6                         #  I(2)TMP
002911: E5,1400  E5,1775               PAC               EQUALS   SAC        +2                         #  I(2)TMP
002912: E5,1400  E5,1777               QMIN              EQUALS   PAC        +2                         #  B(1)TMP
002913:
002914:
002915:                                                                                                 #      **** COLP50S ****                                                  (1D)
002916:
002917: E5,1400  E5,1735               CULTRIX           EQUALS   VEARTH                                #  VEARTH, VSUN, VMOON
002918:
002919:                                                                                                 #         OVERLAYS WITHIN ALIGNMENT/SYSTEST COMMON STORAGE.               (24D)
002920:
002921: E5,1400  E5,1735               VEARTH            EQUALS   STARAD                                #   (6)TMP
002922: E5,1400  E5,1743               VSUN              EQUALS   VEARTH     +6                         #   (6)TMP
002923: E5,1400  E5,1751               VMOON             EQUALS   VSUN       +6                         #   (6)TMP
002924: E5,1400  E5,1757               SAX               EQUALS   VMOON      +6                         #   (6)TMP
002925:


002927:                                                                                                 #         *-*-*-*-  OVERLAY 2 IN EBANK 5 -*-*-*-*
002928:
002929:                                                                                                 #         CONIC ROUTINES STORAGE.                                         (87D)
002930:
002931: E5,1400  E5,1642               DELX              EQUALS   END-W                                 #  I(2)TMP
002932: E5,1400  E5,1644               DELT              EQUALS   DELX       +2                         #  I(2)TMP
002933: E5,1400  E5,1646               URRECT            EQUALS   DELT       +2                         #  I(6)TMP
002934: E5,1400  E5,1654               RCNORM            EQUALS   URRECT     +6                         #  I(2)TMP
002935: E5,1400  E5,1656               R1VEC             EQUALS   RCNORM     +2                         #  I(6)TMP
002936: E5,1400  E5,1664               R2VEC             EQUALS   R1VEC      +6                         #  I(6)TMP
002937: E5,1400  E5,1672               TDESIRED          EQUALS   R2VEC      +6                         #  I(2)TMP
002938: E5,1400  E5,1674               GEOMSGN           EQUALS   TDESIRED   +2                         #  I(1)TMP
002939: E5,1400  E5,1675               UN                EQUALS   GEOMSGN    +1                         #  I(6)TMP
002940: E5,1400  E5,1703               VTARGTAG          EQUALS   UN         +6                         #  I(1)TMP
002941: E5,1400  E5,1704               VTARGET           EQUALS   VTARGTAG   +1                         #  I(6)TMP
002942: E5,1400  E5,1712               RTNLAMB           EQUALS   VTARGET    +6                         #  I(1)TMP
002943: E5,1400  E5,1713               U2                EQUALS   RTNLAMB    +1                         #  I(6)TMP
002944: E5,1400  E5,1721               MAGVEC2           EQUALS   U2         +6                         #  I(2)TMP
002945: E5,1400  E5,1723               UR1               EQUALS   MAGVEC2    +2                         #  I(6)TMP
002946: E5,1400  E5,1731               SNTH              EQUALS   UR1        +6                         #  I(2)TMP
002947: E5,1400  E5,1733               CSTH              EQUALS   SNTH       +2                         #  I(2)TMP
002948: E5,1400  E5,1735               1-CSTH            EQUALS   CSTH       +2                         #  I(2)TMP
002949: E5,1400  E5,1737               CSTH-RHO          EQUALS   1-CSTH     +2                         #  I(2)TMP
002950: E5,1400  E5,1741               P                 EQUALS   CSTH-RHO   +2                         #  I(2)TMP
002951: E5,1400  E5,1743               R1A               EQUALS   P          +2                         #  I(2)TMP
002952: E5,1400  E5,1656               RVEC              EQUALS   R1VEC                                 #  I(6)TMP
002953: E5,1400  E5,1745               VVEC              EQUALS   R1A        +2                         #  I(6)TMP
002954: E5,1400  E5,1712               RTNTT             EQUALS   RTNLAMB                               #  I(1)TMP
002955: E5,1400  E5,1753               ECC               EQUALS   VVEC       +6                         #  I(2)TMP
002956: E5,1400  E5,1712               RTNTR             EQUALS   RTNLAMB                               #  I(1)TMP
002957: E5,1400  E5,1712               RTNAPSE           EQUALS   RTNLAMB                               #  I(1)TMP
002958: E5,1400  E5,1721               R2                EQUALS   MAGVEC2                               #  I(2)TMP
002959: E5,1400  E5,1755               RTNPRM            EQUALS   ECC        +2                         #  I(1)TMP
002960: E5,1400  E5,1756               SGNRDOT           EQUALS   RTNPRM     +1                         #  I(1)TMP
002961: E5,1400  E5,1757               RDESIRED          EQUALS   SGNRDOT    +1                         #  I(2)TMP
002962: E5,1400  E5,1761               DELDEP            EQUALS   RDESIRED   +2                         #  I(2)TMP
002963: E5,1400  E5,1763               DEPREV            EQUALS   DELDEP     +2                         #  I(2)TMP
002964: E5,1400  E5,1761               TERRLAMB          EQUALS   DELDEP                                #  I(2)TMP
002965: E5,1400  E5,1763               TPREV             EQUALS   DEPREV                                #  I(2)TMP
002966:


002968:
002969:                                                                                                 #         *-*-*-*-  OVERLAY 3 IN EBANK 5 -*-*-*-*
002970:
002971:                                                                                                 #         MEASUREMENT INCORPORATION STORAGE.                              (54D)
002972:                                                                                                 #         (CALLED BY P20, P22, P23)
002973:
002974: E5,1400  E5,1642               OMEGAM1           EQUALS   END-W                                 #  I(6)TMP
002975: E5,1400  E5,1650               OMEGAM2           EQUALS   OMEGAM1    +6                         #  I(6)TMP
002976: E5,1400  E5,1656               OMEGAM3           EQUALS   OMEGAM2    +6                         #  I(6)TMP
002977: E5,1400  E5,1664               HOLDW             EQUALS   OMEGAM3    +6                         #  I(18)TMP
002978: E5,1400  E5,1706               ZI                EQUALS   HOLDW      +18D                       #  I(18)
002979:


002981:
002982:                                                                                                 #         *-*-*-*-  OVERLAY 0 IN EBANK 5 -*-*-*-*
002983:
002984:                                                                                                 #         SYSTEM TEST STORAGE.                                            (174)
002985:
002986: E5,1400                        AZIMUTH           ERASE    +1
002987: E5,1402                        LATITUDE          ERASE    +1
002988:
002989: E5,1404                        ERVECTOR          ERASE    +5
002990: E5,1412                        LENGTHOT          ERASE
002991: E5,1413                        LOSVEC            ERASE    +5
002992:
002993: E5,1421  E5,1413               SXTOPTN           =        LOSVEC
002994: E5,1421                        NDXCTR            ERASE
002995:
002996: E5,1422                        SYSTSPR1          ERASE                                          #  UNUSED
002997:
002998: E5,1423                        POSITON           ERASE
002999: E5,1424                        QPLAC             ERASE
003000: E5,1425                        QPLACE            ERASE
003001: E5,1426                        QPLACES           ERASE
003002: E5,1427                        RUN               ERASE
003003:
003004: E5,1430                        SYSTSPR2          ERASE                                          #  UNUSED
003005:
003006: E5,1431                        SOUTHDR           ERASE
003007: E5,1432  E5,1431               TARG1/2           =        SOUTHDR
003008: E5,1432                        TAZEL1            ERASE    +5
003009: E5,1440                        TEMPTIME          ERASE    +1
003010: E5,1442                        TMARK             ERASE    +1
003011: E5,1444                        AINLA             ERASE    +139D                                 #  OPTIMUM CALIB. AND ALIGNMENT
003012: E5,1660  E5,1444               GENPL             =        AINLA
003013: E5,1660  E5,1453               CDULIMIT          =        AINLA      +7
003014: E5,1660  E5,1552               COUNTPL           =        AINLA      +70D
003015: E5,1660  E5,1444               WANGO             EQUALS   AINLA
003016: E5,1660  E5,1446               WANGI             EQUALS   AINLA      +2D
003017: E5,1660  E5,1450               WANGT             EQUALS   AINLA      +4D
003018: E5,1660  E5,1450               TORQNDX           =        WANGT
003019: E5,1660  E5,1452               DRIFTT            EQUALS   AINLA      +6D
003020: E5,1660  E5,1454               ALX1S             EQUALS   AINLA      +8D
003021: E5,1660  E5,1455               CMPX1             EQUALS   AINLA      +9D
003022: E5,1660  E5,1456               ALK               EQUALS   AINLA      +10D
003023: E5,1660  E5,1472               VLAUNS            EQUALS   AINLA      +22D
003024: E5,1660  E5,1460               THETAX            =        ALK        +2
003025: E5,1660  E5,1474               WPLATO            EQUALS   AINLA      +24D
003026: E5,1660  E5,1500               INTY              EQUALS   AINLA      +28D
003027: E5,1660  E5,1466               THETAN            =        THETAX     +6
003028: E5,1660  E5,1502               ANGZ              EQUALS   AINLA      +30D
003029: E5,1660  E5,1504               INTZ              EQUALS   AINLA      +32D
003030: E5,1660  E5,1506               ANGY              EQUALS   AINLA      +34D
003031: E5,1660  E5,1510               ANGX              EQUALS   AINLA      +36D


003033: E5,1660  E5,1512               DRIFTO            EQUALS   AINLA      +38D
003034: E5,1660  E5,1514               DRIFTI            EQUALS   AINLA      +40D
003035: E5,1660  E5,1520               VLAUN             EQUALS   AINLA      +44D
003036: E5,1660  E5,1474               FILDELV           =        THETAN     +6
003037: E5,1660  E5,1522               ACCWD             EQUALS   AINLA      +46D
003038: E5,1660  E5,1476               INTVEC            =        FILDELV    +2
003039: E5,1660  E5,1530               POSNV             EQUALS   AINLA      +52D
003040: E5,1660  E5,1532               DPIPAY            EQUALS   AINLA      +54D
003041: E5,1660  E5,1536               DPIPAZ            EQUALS   AINLA      +58D
003042: E5,1660  E5,1540               ALTIM             EQUALS   AINLA      +60D
003043: E5,1660  E5,1541               ALTIMS            EQUALS   AINLA      +61D
003044: E5,1660  E5,1542               ALDK              EQUALS   AINLA      +62D
003045: E5,1660  E5,1560               DELM              EQUALS   AINLA      +76D
003046: E5,1660  E5,1570               WPLATI            EQUALS   AINLA      +84D
003047: E5,1660  E5,1577               RESTARPT          =        AINLA      +91D
003048: E5,1660  E5,1631               GEOSAVED          =        AINLA      +117D
003049: E5,1660  E5,1632               PREMTRXC          =        AINLA      +118D
003050: E5,1660  E5,1633               LAUNCHAZ          =        AINLA      +119D
003051: E5,1660  E5,1635               NEWAZMTH          =        AINLA      +121D
003052: E5,1660  E5,1637               OLDAZMTH          =        AINLA      +123D
003053: E5,1660  E5,1641               TOLDAZMT          =        AINLA      +125D
003054: E5,1660  E5,1643               GEOCOMPS          =        AINLA      +127D
003055: E5,1660  E5,1644               1SECXT            =        AINLA      +128D
003056: E5,1660  E5,1645               GTSWTLST          =        AINLA      +129D
003057: E5,1660  E5,1646               ERECTIME          =        AINLA      +130D
003058: E5,1660  E5,1647               ERCOMP            =        AINLA      +131D
003059: E5,1660  E5,1655               ZERONDX           =        AINLA      +137D
003060: E5,1660  E5,1655               GTSOPNDZ          =        ZERONDX
003061:
003062:
003063:                                                                                                 #  THE FOLLOWING TAGS ARE USED BY THE 504 IMU CALIBRATION AND ALIGNMENT PROGRAM ONLY.
003064:
003065: E5,1660  E5,1460               THETAX1           EQUALS   ALK        +2
003066: E5,1660  E5,1466               THETAN1           EQUALS   THETAX1    +6
003067: E5,1660  E5,1474               FILDELV1          EQUALS   THETAN1    +6
003068: E5,1660  E5,1476               INTVEC1           EQUALS   FILDELV1   +2
003069: E5,1660  E5,1631               GEOSAVE1          EQUALS   AINLA      +117D
003070: E5,1660  E5,1632               PREMTRX1          EQUALS   AINLA      +118D
003071: E5,1660  E5,1633               LUNCHAZ1          EQUALS   AINLA      +119D
003072: E5,1660  E5,1635               NEWAZ1            EQUALS   LUNCHAZ1   +2
003073: E5,1660  E5,1637               OLDAZ1            EQUALS   LUNCHAZ1   +4
003074: E5,1660  E5,1641               TOLDAZ1           EQUALS   LUNCHAZ1   +6
003075: E5,1660  E5,1643               GEOCOMP1          EQUALS   AINLA      +127D
003076: E5,1660  E5,1644               1SECXT1           EQUALS   AINLA      +128D
003077: E5,1660  E5,1645               GTSWTLT1          EQUALS   AINLA      +129D
003078: E5,1660  E5,1646               ERECTIM1          EQUALS   AINLA      +130D
003079: E5,1660  E5,1647               ERCOMP1           EQUALS   AINLA      +131D                      #  I(6)
003080: E5,1660  E5,1655               ZERONDX1          EQUALS   AINLA      +137D
003081: E5,1660  E5,1656               PERFDLAY          EQUALS   AINLA      +138D                      #  B(2).........
003082: E5,1660  E5,1657               ENDSYS-5          EQUALS   AINLA      +139D                      #  LAST SYS.TEST STORAGE IN E-5
003083:


003085:
003086:                                                                                                 #  END OF 504 CAL + ALIGN ERASE.
003087:


003089:
003090:                                                                                                 #         *-*-*-*-  OVERLAY 4 IN EBANK 5  -*-*-*-*
003091:
003092:                                                                                                 #         P32 -- P33                                                      (20D)
003093:
003094: E5,1660  E5,1610               UP1               EQUALS   DVLOS                                 #  I(6)
003095: E5,1660  E5,1616               VPASS2            EQUALS   UP1        +6                         #  I(6)
003096: E5,1660  E5,1624               RPASS2            EQUALS   VPASS2     +6                         #  I(6)
003097: E5,1660  E5,1632               DIFFALT           EQUALS   RPASS2     +6                         #  I(2)
003098:
003099:
003100:
003101:                                                                                                 #  P32,P33 STORAGE OVERLAYING 9X9 W-MATRIX LOCATIONS                      (32D)
003102:
003103: E5,1660  E5,1444               DELVEET1          EQUALS   9X9LOC1                               #  I(6) DELV FOR CSI
003104: E5,1660  E5,1452               RACT2             EQUALS   DELVEET1   +6                         #  I(6) POS. ACTIVE VEH. AT CDH TIME
003105: E5,1660  E5,1460               TCDH              EQUALS   RACT2      +6                         #  I(2)
003106: E5,1660  E5,1462               TCSI              EQUALS   TCDH       +2                         #  I(2)
003107: E5,1660  E5,1464               TTPI0             EQUALS   TCSI       +2                         #  I(2)
003108: E5,1660  E5,1532               VACT2             EQUALS   9X9LOC2                               #  I(6) VEL. ACTIVE VEH. AT CDH TIME
003109: E5,1660  E5,1540               RACT1             EQUALS   VACT2      +6                         #  I(6) POS. ACTIVE VEH. AT CSI TIME
003110: E5,1660  E5,1546               T1TOT2            EQUALS   RACT1      +6                         #  I(2) TCDH - TCSI
003111:
003112:
003113:
003114:                                                                                                 #         MARK COUNT FOR MINKEY R22, Q RETURN FOR N90/N81 DSP  P31,P36.   (2D)
003115:
003116: E5,1660  E5,1550               COUNT3MK          EQUALS   T1TOT2     +2                         #  I(1)
003117: E5,1660  E5,1551               N90RET            EQUALS   COUNT3MK   +1                         #  I(1)
003118:
003119:
003120:                                                                                                 #      MINKEY AFTERBURN TEMPORARIES FOR RESTART                           (24D)
003121:
003122: E5,1660  E5,1552               BURNTMP1          EQUALS   N90RET     +1                         #  I(6)
003123: E5,1660  E5,1560               BURNTMP2          EQUALS   BURNTMP1   +6                         #  I(6)
003124: E5,1660  E5,1566               BURNTMP3          EQUALS   BURNTMP2   +6                         #  I(6)
003125: E5,1660  E5,1574               BURNTMP4          EQUALS   BURNTMP3   +6                         #  I(6)
003126:


003128:
003129:                                                                                                 #                 EBANK-6 ASSIGNMENTS.
003130: E6,1400                                          SETLOC   3000
003131:
003132:                                                                                                 #         P23    PAD LOADS***                                             (2D).
003133:
003134: E6,1400                        WMIDPOS           ERASE                                          #  I(1) PL  INITIAL VALUES FOR W-MATRIX IN
003135: E6,1401                        WMIDVEL           ERASE                                          #  I(1) PL  CISLUNAR (P23) NAVIGATION
003136:
003137:
003138:
003139:                                                                                                 #         R22    PAD LOADS                                                ( 5D ).
003140:
003141: E6,1402                        RVAR              ERASE    +1                                    #  I(2) PL  VHF RADAR
003142: E6,1404                        RVARMIN           ERASE    +2                                    #  I(3) PL  VHF RADAR
003143:
003144:
003145:
003146:                                                                                                 #  ******** PAD LOADED ENTRY DAP STEERING VARIABLES ********              (3D)
003147:
003148: E6,1407                        LADPAD            ERASE                                          #  I(1) PL FOR ENTRY.HOLDS CM  NOMINAL L/D
003149: E6,1410                        LODPAD            ERASE                                          #  I(1) PL FOR ENTRY.HOLDS CM  NOMINAL LOD
003150: E6,1411                        ALFAPAD           ERASE                                          #  B(1) PL ALFA TRIM / 180
003151:
003152:
003153:                                                                                                 #         P37  PAD LOAD
003154:
003155: E6,1412                        P37RANGE          ERASE                                          #  I(1)PL
003156:
003157:
003158:                                                                                                 #  ******** PAD LOADED TVC DAP VARIABLES.********************************(26D)
003159:
003160: E6,1413                        ETDECAY           ERASE                                          #  I(1)PL
003161: E6,1414                        EKPRIME           ERASE    +1                                    #  B(2)PL
003162: E6,1416                        EKTLX/I           ERASE    +2                                    #  B(3)PL
003163: E6,1421                        EREPFRAC          ERASE    +1                                    #  B(2)PL
003164:
003165: E6,1423                        PACTOFF           ERASE                                          #  B(1)PL, DSP N48 R01 = PTRIM, R02 = YTRIM
003166: E6,1424                        YACTOFF           ERASE                                          #  B(1)PL, CONSECUTIVE WITH PACTOFF
003167:
003168: E6,1425                        HBN10             ERASE                                          #  B(1)
003169: E6,1426                        HBN11/2           ERASE                                          #  B(1)
003170: E6,1427                        HBN12             ERASE                                          #  B(1)
003171: E6,1430                        HBD11/2           ERASE                                          #  B(1)
003172: E6,1431                        HBD12             ERASE                                          #  B(1)
003173:
003174: E6,1432                        HBN20             ERASE                                          #  B(1)
003175: E6,1433                        HBN21/2           ERASE                                          #  B(1)
003176: E6,1434                        HBN22             ERASE                                          #  B(1)
003177: E6,1435                        HBD21/2           ERASE                                          #  B(1)
003178: E6,1436                        HBD22             ERASE                                          #  B(1)


003180: E6,1437                        HBN30             ERASE                                          #  B(1)
003181: E6,1440                        HBN31/2           ERASE                                          #  B(1)
003182: E6,1441                        HBN32             ERASE                                          #  B(1)
003183: E6,1442                        HBD31/2           ERASE                                          #  B(1)
003184: E6,1443                        HBD32             ERASE                                          #  B(1)
003185:
003186:                                                                                                 #  ******* EXCLUSIVE TVC DAP VARIABLES. *********************************(4D)
003187:
003188: E6,1444                        TEMPDAP           ERASE    +1                                    #  B(2)
003189: E6,1446  E6,1444               MRKRTMP           =        TEMPDAP                               #       ((B(1)))
003190: E6,1446                        CNTR              ERASE                                          #  B(1)
003191: E6,1447                        OGAD              ERASE                                          #  B(1)
003192:
003193:
003194:
003195:                                                                                                 #  ******* EXCLUSIVE RCS DAP VARIABLES. *********************************(13D)
003196:
003197: E6,1450                        RWORD1            ERASE    +12D                                  #  B(1)
003198: E6,1465  E6,1451               RWORD2            EQUALS   RWORD1     +1                         #  B(1)
003199: E6,1465  E6,1452               PWORD1            EQUALS   RWORD2     +1                         #  B(1)
003200: E6,1465  E6,1453               PWORD2            EQUALS   PWORD1     +1                         #  B(1)
003201: E6,1465  E6,1454               YWORD1            EQUALS   PWORD2     +1                         #  B(1)
003202: E6,1465  E6,1455               YWORD2            EQUALS   YWORD1     +1                         #  B(1)
003203: E6,1465  E6,1456               BLAST             EQUALS   YWORD2     +1                         #  B(2)
003204: E6,1465  E6,1460               BLAST1            EQUALS   BLAST      +2                         #  B(2)
003205: E6,1465  E6,1462               BLAST2            EQUALS   BLAST1     +2                         #  B(2)
003206: E6,1465  E6,1464               T5PHASE           EQUALS   BLAST2     +2                         #  B(1)
003207:
003208:
003209:
003210:                                                                                                 #  ******* RCS/TVC DAP COMMON STORAGE.***********************************(17D)
003211:
003212: E6,1465                        DAPDATR1          ERASE                                          #  B(1)DSP NOUN 46(R1)
003213: E6,1466                        DAPDATR2          ERASE                                          #  B(1)DSP NOUN 46(R2)
003214:
003215: E6,1467     4076               DPCONFIG          =        OCT60000                              #  DAP CONFIG BITS
003216:
003217: E6,1467                        IXX               ERASE                                          #  B(1) CONSECUTIVE WITH IAVG, IAVG/TLX FOR
003218: E6,1470                        IAVG              ERASE                                          #  B(1)                             MASSPROP
003219: E6,1471                        IAVG/TLX          ERASE                                          #  B(1)
003220:
003221: E6,1472                        LEMMASS           ERASE                                          #  B(1)DSP NOUN 47(R2)
003222: E6,1473                        CSMMASS           ERASE    +1                                    #  B(2)
003223: E6,1475                        WEIGHT/G          ERASE
003224: E6,1476                        AK                ERASE
003225: E6,1477                        AK1               ERASE
003226: E6,1500                        AK2               ERASE
003227:
003228: E6,1501                        RCSFLAGS          ERASE                                          #  B(1) CONSECUTIVE WITH AK2 DOWNLINK
003229: E6,1502                        T5TEMP            ERASE                                          #  B(1)


003231: E6,1503                        EDRIVEX           ERASE
003232: E6,1504                        EDRIVEY           ERASE
003233: E6,1505                        EDRIVEZ           ERASE
003234:
003235:
003236:                                                                                                 #         INTEMP THRU INTEMP+14D  ARE RESERVED FOR OVERLAYED TVC/RCS INTERUP TRUE TEMPORIES
003237: E6,1506                        INTTEMP           ERASE    +14D                                  #   (15)
003238:
003239:
003240:                                                                                                 #         TVC/RCS THRU TVCRCS +11D RESERVED FOR DOWNLINKED VARIABLES
003241:
003242: E6,1525                        TVCRCS            ERASE    +11D                                  #  (12)
003243:                                                                                                 #  RCS (WBODYS,ADOTS)
003244:                                                                                                 #  TVC(OMEGACS,OMEGABS)
003245:
003246:
003247:                                                                                                 #         TVC DAP TEMPORARY VARIABLES*********************************
003248:
003249:                                                                                                 #         TVC DAP INTERRUPT TRUE TEMPORARIES**************************
003250:
003251: E6,1541  E6,1506               PHI333            EQUALS   INTTEMP                               #  B(1)     COUNTING REGISTER
003252: E6,1541  E6,1507               PSI333            EQUALS   PHI333     +1                         #  B(1)     COUNTING REGISTER
003253: E6,1541  E6,1510               TEMP333           EQUALS   PSI333     +1                         #  B(1)     MASS TEMPORARY
003254: E6,1541  E6,1511               VARST0            EQUALS   TEMP333    +1                         #  B(8)     BREAKPOINTS AND SLOPES
003255: E6,1541  E6,1516               VARST5            =        VARST0     +5
003256: E6,1541  E6,1522               LASTMASP          EQUALS   VARST0     +9D                        #  LAST VARST0 WORD
003257:
003258:
003259:
003260:
003261:                                                                                                 #         *******REGULAR TVC TEMPORARIES*************
003262:
003263:
003264:                                                                                                 #         TVC ZEROING STARTS HERE
003265:
003266:
003267: E6,1541  E6,1525               OMEGAC            EQUALS   TVCRCS                                #  I(6)
003268: E6,1541  E6,1525               OMEGAXC           =        OMEGAC
003269: E6,1541  E6,1527               OMEGAYC           =        OMEGAC     +2
003270: E6,1541  E6,1531               OMEGAZC           =        OMEGAC     +4
003271:
003272: E6,1541  E6,1533               OMEGAB            EQUALS   TVCRCS     +6                         #  B(6)
003273: E6,1541  E6,1533               OMEGAXB           =        OMEGAB
003274: E6,1541  E6,1535               OMEGAYB           =        OMEGAB     +2
003275: E6,1541  E6,1537               OMEGAZB           =        OMEGAB     +4
003276:
003277: E6,1541  E6,1541               PTMP1             EQUALS   OMEGAC     +12D                       #  B(2)
003278: E6,1541  E6,1543               PTMP2             EQUALS   PTMP1      +2                         #  B(2)
003279: E6,1541  E6,1545               PTMP3             EQUALS   PTMP2      +2                         #  B(2)
003280: E6,1541  E6,1547               PTMP4             EQUALS   PTMP3      +2                         #  B(2)


003282: E6,1541  E6,1551               PTMP5             EQUALS   PTMP4      +2                         #  B(2)
003283: E6,1541  E6,1553               PTMP6             EQUALS   PTMP5      +2                         #  B(2)
003284:
003285: E6,1541  E6,1555               YTMP1             EQUALS   PTMP6      +2                         #  B(2)
003286: E6,1541  E6,1557               YTMP2             EQUALS   YTMP1      +2                         #  B(2)
003287: E6,1541  E6,1561               YTMP3             EQUALS   YTMP2      +2                         #  B(2)
003288: E6,1541  E6,1563               YTMP4             EQUALS   YTMP3      +2                         #  B(2)
003289: E6,1541  E6,1565               YTMP5             EQUALS   YTMP4      +2                         #  B(2)
003290: E6,1541  E6,1567               YTMP6             EQUALS   YTMP5      +2                         #  B(2)
003291:
003292: E6,1541  E6,1571               ROLLFIRE          EQUALS   YTMP6      +2                         #  B(1)
003293: E6,1541  E6,1572               ROLLWORD          EQUALS   ROLLFIRE   +1                         #  B(1)
003294: E6,1541  E6,1573               TEMREG            EQUALS   ROLLWORD   +1                         #  B(1)
003295:
003296: E6,1541  E6,1574               TVCDUMMY          EQUALS   TEMREG     +1                         #  DUMMY (NEED EVEN NUMBER OF LOCATIONS)
003297: E6,1541  E6,1575               PERRB             EQUALS   TVCDUMMY   +1                         #  B(2)
003298: E6,1541  E6,1577               YERRB             EQUALS   PERRB      +2                         #  B(2)
003299:
003300: E6,1541  E6,1601               DELPBAR           EQUALS   YERRB      +2                         #  B(2)
003301: E6,1541  E6,1603               DELYBAR           EQUALS   DELPBAR    +2                         #  B(2)
003302:
003303: E6,1541  E6,1605               PDELOFF           EQUALS   DELYBAR    +2                         #  B(2)
003304: E6,1541  E6,1607               YDELOFF           EQUALS   PDELOFF    +2                         #  B(2)
003305:
003306:
003307:                                                                                                 #         TVC ZEROING LOOP ENDS HERE
003308:
003309:
003310: E6,1541  E6,1611               TTMP1             EQUALS   YDELOFF    +2                         #  B(2)
003311: E6,1541  E6,1613               TTMP2             EQUALS   TTMP1      +2                         #  B(2)
003312:
003313: E6,1541  E6,1615               DAP1              EQUALS   TTMP2      +2                         #  B(2)
003314: E6,1541  E6,1617               DAP2              EQUALS   DAP1       +2                         #  B(2)
003315: E6,1541  E6,1621               DAP3              EQUALS   DAP2       +2                         #  B(2)
003316:
003317: E6,1541  E6,1623               PCMD              EQUALS   DAP3       +2                         #  B(1)
003318: E6,1541  E6,1624               YCMD              EQUALS   PCMD       +1                         #  B(1),  CONSECUTIVE WITH PCMD
003319: E6,1541  E6,1625               T5TVCDT           EQUALS   YCMD       +1                         #  B(1)
003320: E6,1541  E6,1626               KPRIMEDT          EQUALS   T5TVCDT    +1                         #  I(2)
003321: E6,1541  E6,1630               KTLX/I            EQUALS   KPRIMEDT   +2                         #  B(1)
003322: E6,1541  E6,1631               1/CONACC          EQUALS   KTLX/I     +1                         #  B(1)
003323: E6,1541  E6,1632               VARK              EQUALS   1/CONACC   +1                         #  B(1)
003324: E6,1541  E6,1633               REPFRAC           EQUALS   VARK       +1                         #  B(1)
003325: E6,1541  E6,1634               VCNTR             EQUALS   REPFRAC    +1                         #  B(1)
003326: E6,1541  E6,1635               TVCPHASE          EQUALS   VCNTR      +1                         #  B(1)
003327: E6,1541  E6,1636               PCDUYPST          EQUALS   TVCPHASE   +1                         #  B(1)
003328: E6,1541  E6,1637               PCDUZPST          EQUALS   PCDUYPST   +1                         #  B(1)
003329: E6,1541  E6,1640               YCDUYPST          EQUALS   PCDUZPST   +1                         #  B(1)
003330: E6,1541  E6,1641               YCDUZPST          EQUALS   YCDUYPST   +1                         #  B(1)
003331: E6,1541  E6,1642               MCDUYDOT          EQUALS   YCDUZPST   +1                         #  B(1)
003332: E6,1541  E6,1643               MCDUZDOT          EQUALS   MCDUYDOT   +1                         #  B(1)


003334: E6,1541  E6,1644               TVCEXPHS          EQUALS   MCDUZDOT   +1                         #  B(1)
003335:                                                                                                 #         TVC ROLL DAP VARIABLES
003336:
003337:                                                                                                 #  (8D)
003338: E6,1541  E6,1645               OGANOW            EQUALS   TVCEXPHS   +1
003339: E6,1541  E6,1646               OGAPAST           EQUALS   OGANOW     +1                         #  B(1)
003340: E6,1541  E6,1647               OGA               EQUALS   OGAPAST    +1                         #  B(1)TMP
003341: E6,1541  E6,1647               OGAERR            =        OGA                                   #  (ROLL DAP USES OGA, MEANS OGAERROR)
003342: E6,1541  E6,1650               DELOGART          EQUALS   OGA        +1                         #  B(1)TMP
003343: E6,1541  E6,1651               SGNRT             EQUALS   DELOGART   +1                         #  SIGN OF OGA RATE
003344: E6,1541  E6,1652               DELOGA            EQUALS   SGNRT      +1                         #  USED IN ROLL LOGIC
003345: E6,1541  E6,1653               I                 EQUALS   DELOGA     +1                         #  USED IN ROLL LOGIC
003346: E6,1541  E6,1654               IOGARATE          EQUALS   I          +1                         #  USED IN ROLL LOGIC
003347:
003348:                                                                                                 #         TVC DAP RESTART TEMPORARIES.
003349:
003350: E6,1541  E6,1655               PACTTMP           EQUALS   IOGARATE   +1                         #  B(2)
003351: E6,1541  E6,1657               YACTTMP           EQUALS   PACTTMP    +2                         #  B(2)
003352: E6,1541  E6,1661               CNTRTMP           EQUALS   YACTTMP    +2                         #  B(1)
003353: E6,1541  E6,1662               DELBRTMP          EQUALS   CNTRTMP    +1                         #  B(2)
003354: E6,1541  E6,1664               ERRBTMP           EQUALS   DELBRTMP   +2                         #  B(2)
003355: E6,1541  E6,1666               CMDTMP            EQUALS   ERRBTMP    +2                         #  B(2)
003356:
003357: E6,1541  E6,1670               TMP1              EQUALS   CMDTMP     +2                         #  B(2)
003358: E6,1541  E6,1672               TMP2              EQUALS   TMP1       +2                         #  B(2)
003359: E6,1541  E6,1674               TMP3              EQUALS   TMP2       +2                         #  B(2)
003360: E6,1541  E6,1676               TMP4              EQUALS   TMP3       +2                         #  B(2)
003361: E6,1541  E6,1700               TMP5              EQUALS   TMP4       +2                         #  B(2)
003362: E6,1541  E6,1702               TMP6              EQUALS   TMP5       +2                         #  B(2)
003363:
003364:                                                                                                 #         TVC DAP FILTER COEFFICIENTS TEMPORARIES
003365:
003366: E6,1541  E6,1704               COEFFADR          EQUALS   TMP6       +2                         #  B(1)
003367: E6,1541  E6,1705               N10               EQUALS   COEFFADR   +1                         #  I(15)
003368:
003369:
003370:                                                                                                 #         OVERLAYS WITHIN TVC DAP
003371:
003372: E6,1541  E6,1533               OGARATE           =        OMEGAB                                #  B(2)
003373:
003374: E6,1541  E6,1611               PHASETMP          =        TTMP1                                 #  B(1) RESTART FOR CSM/LM V46 SWITCH-OVER
003375: E6,1541  E6,1613               RTRNLOC           =        TTMP2                                 #  B(1) RESTART FOR CSM/LM V46 SWITCH-OVER
003376:
003377:
003378:
003379:                                                                                                 #         S40.9 STORAGE..........
003380:
003381: E6,1541  E6,1724               NBRCYCLS          EQUALS   N10        +15D                       #  B(1) COUNTER FOR P40,41 STEERING
003382: E6,1541  E6,1725               NBRCYCLP          EQUALS   NBRCYCLS   +1                         #  B(1) MAINTAIN ORDER
003383: E6,1541  E6,1726               DELVSUM           EQUALS   NBRCYCLP   +1                         #  I(6)  P40,P41
003384: E6,1541  E6,1734               DELVSUMP          EQUALS   DELVSUM    +6                         #  I(6) P40,P41
003385:


003387:
003388:                                                                                                 #         S40.8 TEMPORARY
003389:
003390: E6,1541  E6,1734               MASSTMP           EQUALS   DELVSUMP                              #  I(2)
003391:


003393:
003394:                                                                                                 #  ******* RCS DAP TEMPORARY VARIABLES.**********************************(95D)
003395:
003396:                                                                                                 #         **RCS INTERRUPT TRUE TEMPS*************************             15D
003397:
003398: E6,1541  E6,1506               SPNDX             EQUALS   INTTEMP                               #  B(1)
003399: E6,1541  E6,1507               DPNDX             EQUALS   SPNDX      +1                         #  B(1)TMP
003400: E6,1541  E6,1510               KMPAC             EQUALS   DPNDX      +1                         #  B(2)TMP
003401: E6,1541  E6,1512               KMPTEMP           EQUALS   KMPAC      +2                         #  B(1)TMP
003402:
003403: E6,1541  E6,1513               XNDX1             EQUALS   KMPTEMP    +1                         #  B(1)TMP  XNDX1 THRU NYJETS ARE OVERLAYED
003404: E6,1541  E6,1514               XNDX2             EQUALS   XNDX1      +1                         #  B(1)TMP  BY OTHER DAP ERASABLES SO
003405: E6,1541  E6,1515               YNDX              EQUALS   XNDX2      +1                         #  B(1)TMP  SHOULD ALWAYS BE DEFINED IN
003406: E6,1541  E6,1516               ZNDX              EQUALS   YNDX       +1                         #  B(1)TMP  A BLOCK
003407: E6,1541  E6,1517               RINDEX            EQUALS   ZNDX       +1                         #  B(1)TMP
003408: E6,1541  E6,1520               PINDEX            EQUALS   RINDEX     +1                         #  B(1)TMP
003409: E6,1541  E6,1521               YINDEX            EQUALS   PINDEX     +1                         #  B(1)TMP
003410: E6,1541  E6,1522               NRJETS            EQUALS   YINDEX     +1                         #  B(1)TMP
003411: E6,1541  E6,1523               NPJETS            EQUALS   NRJETS     +1                         #  B(1)TMP
003412: E6,1541  E6,1524               NYJETS            EQUALS   NPJETS     +1                         #  B(1)TMP
003413:
003414: E6,1541  E6,1513               WTEMP             EQUALS   XNDX1                                 #  B(2)TMP  WTEMP THRU DELTEMPZ OVERLAY
003415: E6,1541  E6,1515               DELTEMPX          EQUALS   WTEMP      +2                         #  B(2)TMP  XNDX1 THRU NRJETS AND EDOT THRU
003416: E6,1541  E6,1517               DELTEMPY          EQUALS   DELTEMPX   +2                         #  B(2)TMP  ADBVEL
003417: E6,1541  E6,1521               DELTEMPZ          EQUALS   DELTEMPY   +2                         #  B(2)TMP
003418:
003419: E6,1541  E6,1515               EDOT              EQUALS   YNDX                                  #  B(2)TMP  EDOT THRU ADBVEL OVERLAY
003420: E6,1541  E6,1517               AERR              EQUALS   EDOT       +2                         #  B(1)TMP  YNDX THRU NPJETS AND DELTEMPX
003421: E6,1541  E6,1520               EDOTVEL           EQUALS   AERR       +1                         #  B(2)TMP   THRU DELTEMPZ
003422: E6,1541  E6,1522               AERRVEL           EQUALS   EDOTVEL    +2                         #  B(1)TMP
003423: E6,1541  E6,1523               ADBVEL            EQUALS   AERRVEL    +1                         #  B(1)TMP
003424:
003425:                                                                                                 #         *** REGULAR RCS TEMPS***************************                (   ).
003426:
003427:                                                                                                 #          RCS ZEROING LOOP STARTS HERE**** ** **  ** ***   *** * *       (37)
003428:
003429: E6,1541  E6,1525               WBODY             EQUALS   TVCRCS                                #  B(2)TMP
003430: E6,1541  E6,1527               WBODY1            EQUALS   WBODY      +2                         #  B(2)TMP
003431: E6,1541  E6,1531               WBODY2            EQUALS   WBODY      +4                         #  B(2)TMP
003432: E6,1541  E6,1533               ADOT              EQUALS   WBODY2     +2                         #  B(2)TMP
003433: E6,1541  E6,1535               ADOT1             EQUALS   ADOT       +2                         #  B(2)TMP
003434: E6,1541  E6,1537               ADOT2             EQUALS   ADOT1      +2                         #  B(2)TMP
003435:
003436: E6,1541  E6,1541               MERRORX           EQUALS   ADOT2      +2                         #   (2)
003437: E6,1541  E6,1543               MERRORY           EQUALS   MERRORX    +2                         #   (2)
003438: E6,1541  E6,1545               MERRORZ           EQUALS   MERRORY    +2                         #   (2)
003439: E6,1541  E6,1547               DFT               EQUALS   MERRORZ    +2                         #           B(1)TMP
003440: E6,1541  E6,1550               DFT1              EQUALS   DFT        +1                         #  B(1)TMP
003441: E6,1541  E6,1551               DFT2              EQUALS   DFT1       +1                         #  B(1)TMP
003442: E6,1541  E6,1552               DRHO              EQUALS   DFT2       +1                         #  B(2)TMP
003443: E6,1541  E6,1554               DRHO1             EQUALS   DRHO       +2                         #  B(2)TMP


003445: E6,1541  E6,1556               DRHO2             EQUALS   DRHO1      +2                         #  B(2)TMP
003446: E6,1541  E6,1560               ATTSEC            EQUALS   DRHO2      +2                         #  B(1)TMP
003447: E6,1541  E6,1561               TAU               EQUALS   ATTSEC     +1                         #  B(1)TMP
003448: E6,1541  E6,1562               TAU1              EQUALS   TAU        +1                         #  B(1)TMP
003449: E6,1541  E6,1563               TAU2              EQUALS   TAU1       +1                         #  B(1)TMP
003450: E6,1541  E6,1564               BIAS              EQUALS   TAU2       +1                         #  B(1)TMP
003451: E6,1541  E6,1565               BIAS1             EQUALS   BIAS       +1                         #  B(1)TMP
003452: E6,1541  E6,1566               BIAS2             EQUALS   BIAS1      +1                         #  B(1)TMP
003453: E6,1541  E6,1567               ERRORX            EQUALS   BIAS2      +1                         #  B(1)TMP
003454: E6,1541  E6,1570               ERRORY            EQUALS   ERRORX     +1                         #  B(1)TMP
003455: E6,1541  E6,1571               ERRORZ            EQUALS   ERRORY     +1                         #  B(1)TMP
003456:
003457:
003458:
003459:                                                                                                 #         RCS ZERO LOOP ENDS HERE
003460:
003461:
003462:                                                                                                 #              MORE RCS                                                   (69D)
003463:
003464:
003465: E6,1541  E6,1572               THETADX           EQUALS   ERRORZ     +1                         #  B(1)TMP  MUST BE CONSECUTIVE WITH ERRORZ
003466: E6,1541  E6,1573               THETADY           EQUALS   THETADX    +1                         #  B(1)TMP
003467: E6,1541  E6,1574               THETADZ           EQUALS   THETADY    +1                         #  B(1)TMP
003468:
003469: E6,1541  E6,1575               DELCDUX           EQUALS   THETADZ    +1                         #  B(2)TMP
003470: E6,1541  E6,1577               DELCDUY           EQUALS   DELCDUX    +2                         #  B(2)TMP
003471: E6,1541  E6,1601               DELCDUZ           EQUALS   DELCDUY    +2                         #  B(2)TMP
003472:
003473: E6,1541  E6,1603               DCDU              EQUALS   DELCDUZ    +2                         #  B(6)TMP USED DURING P20
003474: E6,1541  E6,1611               DTHETASM          EQUALS   DCDU       +6                         #  B(6)TMP STEER LOW OUTPUT.
003475:
003476: E6,1541  E6,1617               ATTKALMN          EQUALS   DTHETASM   +6                         #  B(1)TMP
003477: E6,1541  E6,1620               KMJ               EQUALS   ATTKALMN   +1                         #  B(1)TMP
003478: E6,1541  E6,1621               KMJ1              EQUALS   KMJ        +1                         #  B(1)TMP
003479: E6,1541  E6,1622               KMJ2              EQUALS   KMJ1       +1                         #  B(1)TMP
003480: E6,1541  E6,1623               J/M               EQUALS   KMJ2       +1                         #  B(1)TMP
003481: E6,1541  E6,1624               J/M1              EQUALS   J/M        +1                         #  B(1)TMP
003482: E6,1541  E6,1625               J/M2              EQUALS   J/M1       +1                         #  B(1)TMP
003483: E6,1541  E6,1626               RACFAIL           EQUALS   J/M2       +1                         #  B(1)TMP
003484: E6,1541  E6,1627               RBDFAIL           EQUALS   RACFAIL    +1                         #  B(1)TMP
003485: E6,1541  E6,1630               ACORBD            EQUALS   RBDFAIL    +1                         #  B(1)TMP
003486: E6,1541  E6,1631               XTRANS            EQUALS   ACORBD     +1                         #  B(1)TMP
003487: E6,1541  E6,1632               CH31TEMP          EQUALS   XTRANS     +1                         #  B(1)TMP
003488: E6,1541  E6,1633               CHANTEMP          EQUALS   CH31TEMP   +1                         #  B(1)TMP
003489: E6,1541  E6,1634               T5TIME            EQUALS   CHANTEMP   +1                         #  B(1)TMP
003490: E6,1541  E6,1635               RHO               EQUALS   T5TIME     +1                         #  B(1)TMP
003491: E6,1541  E6,1636               RHO1              EQUALS   RHO        +1                         #  B(1)TMP
003492: E6,1541  E6,1637               RHO2              EQUALS   RHO1       +1                         #  B(1)TMP
003493: E6,1541  E6,1640               AMGB1             EQUALS   RHO2       +1                         #  B(1)TMP
003494: E6,1541  E6,1641               AMGB4             EQUALS   AMGB1      +1                         #  B(1)TMP


003496: E6,1541  E6,1642               AMGB5             EQUALS   AMGB4      +1                         #  B(1)TMP
003497: E6,1541  E6,1643               AMGB7             EQUALS   AMGB5      +1                         #  B(1)TMP
003498: E6,1541  E6,1644               AMGB8             EQUALS   AMGB7      +1                         #  B(1)TMP
003499: E6,1541  E6,1645               CAPSI             EQUALS   AMGB8      +1                         #  B(1)TMP
003500: E6,1541  E6,1646               CDUXD             EQUALS   CAPSI      +1                         #  B(2)TMP
003501: E6,1541  E6,1650               CDUYD             EQUALS   CDUXD      +2                         #  B(2)TMP
003502: E6,1541  E6,1652               CDUZD             EQUALS   CDUYD      +2                         #  B(2)TMP
003503: E6,1541  E6,1654               SLOPE             EQUALS   CDUZD      +2                         #  B(1)TMP
003504: E6,1541  E6,1655               ADB               EQUALS   SLOPE      +1                         #  B(1)TMP
003505: E6,1541  E6,1656               RMANNDX           EQUALS   ADB        +1                         #  B(1)TMP
003506: E6,1541  E6,1657               PMANNDX           EQUALS   RMANNDX    +1                         #  B(1)TMP
003507: E6,1541  E6,1660               YMANNDX           EQUALS   PMANNDX    +1                         #  B(1)TMP  MUST BE LAST VARIABLE IN RCS
003508:


003510:
003511:                                                                                                 #  ******** ENTRY DAP TEMPORARY VARIABLES.*******************************(69D)
003512:
003513:                                                                                                 #   ANGLE REGISTERS FOR ENTRY DAPS
003514:
003515: E6,1541  E6,1661               AOG               EQUALS   BCDU                                  #  1P
003516: E6,1541  E6,1662               AIG               EQUALS   AOG        +1                         #  1P
003517: E6,1541  E6,1663               AMG               EQUALS   AIG        +1                         #  1P
003518: E6,1541  E6,1664               ROLL/180          EQUALS   AMG        +1                         #  1P
003519: E6,1541  E6,1665               ALFA/180          EQUALS   ROLL/180   +1                         #  1P
003520: E6,1541  E6,1666               BETA/180          EQUALS   ALFA/180   +1                         #  1P
003521: E6,1541  E6,1667               AOG/PIP           EQUALS   BETA/180   +1                         #  1P
003522: E6,1541  E6,1670               AIG/PIP           EQUALS   AOG/PIP    +1                         #  1P
003523: E6,1541  E6,1671               AMG/PIP           EQUALS   AIG/PIP    +1                         #  1P
003524: E6,1541  E6,1672               ROLL/PIP          EQUALS   AMG/PIP    +1                         #  1P
003525: E6,1541  E6,1673               ALFA/PIP          EQUALS   ROLL/PIP   +1                         #  1P
003526: E6,1541  E6,1674               BETA/PIP          EQUALS   ALFA/PIP   +1                         #  1P
003527:
003528:                                                                                                 #  GYMBAL DIFFERENCES OVER INTERNAL TCDU = .1 SEC.
003529:
003530: E6,1541  E6,1675               -DELAOG           EQUALS   BETA/PIP   +1                         #  1P
003531: E6,1541  E6,1676               -DELAIG           EQUALS   -DELAOG    +1                         #  1P
003532: E6,1541  E6,1677               -DELAMG           EQUALS   -DELAIG    +1                         #  1P
003533:
003534:                                                                                                 #  ESTIMATED BODY RATES
003535:
003536: E6,1541  E6,1700               CMDAPMOD          EQUALS   -DELAMG    +1                         #  1P  GOES BEFORE PREL FOR TM.
003537:
003538: E6,1541  E6,1701               PREL              EQUALS   CMDAPMOD   +1                         #  1P   P TCDU/180      (ROLLDOT)
003539: E6,1541  E6,1702               QREL              EQUALS   PREL       +1                         #  1P   Q TCDU/180     (PITCHDOT)
003540: E6,1541  E6,1703               RREL              EQUALS   QREL       +1                         #  1P   R TCDU/180     (YAWDOT)
003541:
003542: E6,1541  E6,1704               BETADOT           EQUALS   RREL       +1                         #  1P  MUST FOLLOW RREL. BETADOT TCDU/180
003543: E6,1541  E6,1705               PHIDOT            EQUALS   BETADOT    +1                         #  1P
003544:
003545:                                                                                                 #  OLD (UNAVERAGED) BODY RATE MEASURE
003546:
003547: E6,1541  E6,1706               OLDELP            EQUALS   PHIDOT     +1                         #  1P
003548: E6,1541  E6,1707               OLDELQ            EQUALS   OLDELP     +1                         #  1P
003549: E6,1541  E6,1710               OLDELR            EQUALS   OLDELQ     +1                         #  1P
003550:
003551: E6,1541  E6,1711               JETAG             EQUALS   OLDELR     +1                         #  1P
003552: E6,1541  E6,1712               TUSED             EQUALS   JETAG      +1                         #  1P   ELAPSED TIME SINCE NOMINAL UPDATE.
003553:
003554:
003555:
003556:                                                                                                 #         FOLLOWING 3 SP WORDS IN DOWNLINK.  ROLLTM SENT EACH 1 SEC.
003557:
003558: E6,1541  E6,1713               PAXERR1           EQUALS   TUSED      +1                         #  1P   INTEGRATED ROLL ERROR/360.
003559: E6,1541  E6,1714               ROLLTM            EQUALS   PAXERR1    +1                         #  1P   ROLL/180 FOR TM.
003560: E6,1541  E6,1715               ROLLC             EQUALS   ROLLTM     +1                         #  2P   ROLLCOM/360 FROM ENTRY (FOR TM)
003561:                                                                                                 #  >> KEEP ROLLC & ROLLHOLD ADJACENT FOR TP


003563: E6,1541  E6,1717               ROLLHOLD          EQUALS   ROLLC      +2                         #  1P FOR ATTITUDE HOLD IN CMDAPMOD = +1
003564:
003565:                                                                                                 #         ENTRY DAP QUANTITIES THAT SHARE WITH RCS DAP.
003566:
003567: E6,1541  E6,1603               ALFACOM           EQUALS   DCDU                                  #  1P  KEEP ADJACENT TO BETACOM.  <<
003568: E6,1541  E6,1604               BETACOM           EQUALS   ALFACOM    +1                         #  1P
003569:
003570:                                                                                                 #  JET LIST:   DT, JETBITS  IN THIS ORDER.
003571:
003572: E6,1541  E6,1605               TOFF              EQUALS   BETACOM    +1                         #  1P   DP PAIR
003573: E6,1541  E6,1606               TBITS             EQUALS   TOFF       +1                         #  1P
003574: E6,1541  E6,1607               TON2              EQUALS   TBITS      +1                         #  1P   DP PAIR
003575: E6,1541  E6,1610               T2BITS            EQUALS   TON2       +1                         #  1P
003576:
003577:                                                                                                 #   MISCELLANEOUS PERMANENT ERASABLE.
003578:
003579: E6,1541  E6,1611               OUTTAG            EQUALS   T2BITS     +1                         #  1P
003580: E6,1541  E6,1612               NUJET             EQUALS   OUTTAG     +1                         #  1P
003581:                                                                                                 #     MORE ENTRY DAP QUANTITIES THAT  DO NOT SHARE WITH RCS DAP.
003582:
003583: E6,1541  E6,1720               JETEM             EQUALS   ROLLHOLD   +1                         #  2P  THIS DP USED IN RATEAVG
003584: E6,1541  E6,1722               GAMA              EQUALS   JETEM      +2                         #  1P
003585: E6,1541  E6,1723               GAMDOT            EQUALS   GAMA       +1                         #  1P
003586: E6,1541  E6,1724               POSEXIT           EQUALS   GAMDOT     +1                         #  1P
003587: E6,1541  E6,1725               CM/GYMDT          EQUALS   POSEXIT    +1                         #  1P
003588: E6,1541  E6,1726               HEADSUP           EQUALS   CM/GYMDT   +1                         #  1P  DSP NOUN 61 FOR P62,63,64,67.
003589: E6,1541  E6,1727               P63FLAG           EQUALS   HEADSUP    +1                         #  1P  INTERLOCK FOR WAKEP62
003590:
003591:
003592:                                                                                                 #                                 >> SHARE BELOW WITH RCS RUPT TEMPS (< 15D) <<<
003593: E6,1541  E6,1506               CALFA             EQUALS   SPNDX                                 #  1P
003594: E6,1541  E6,1507               SALFA             EQUALS   CALFA      +1                         #  1P
003595:
003596: E6,1541  E6,1510               SINM              EQUALS   SALFA      +1                         #  1P
003597: E6,1541  E6,1511               COSM              EQUALS   SINM       +1                         #  1P
003598: E6,1541  E6,1512               SINO              EQUALS   COSM       +1                         #  1P
003599: E6,1541  E6,1513               COSO              EQUALS   SINO       +1                         #  1P
003600: E6,1541  E6,1514               SINOCOSM          EQUALS   COSO       +1                         #  1P
003601: E6,1541  E6,1515               COSOCOSM          EQUALS   SINOCOSM   +1                         #  1P
003602:                                                                                                 #                                 >> SHARE ABOVE WITH RCS RUPT TEMPS          <<<
003603:
003604:                                                                                                 #         THE FOLLOWING FEW REGISTERS USED ONCE EACH 2 SEC.
003605:
003606: E6,1541  E6,1613               -VT/180           EQUALS   NUJET      +1                         #  1P
003607: E6,1541  E6,1614               LCX/360           EQUALS   -VT/180    +1                         #  1P
003608: E6,1541  E6,1615               XD/360            EQUALS   LCX/360    +1                         #  1P
003609: E6,1541  E6,1616               VSQ/4API          EQUALS   XD/360     +1                         #  1P
003610: E6,1541  E6,1617               JNDX              EQUALS   VSQ/4API   +1                         #  1P
003611: E6,1541  E6,1620               JNDX1             EQUALS   JNDX       +1                         #  1P


003613: E6,1541  E6,1621               TON1              EQUALS   JNDX1      +1                         #  1P   DP PAIR
003614: E6,1541  E6,1622               T1BITS            EQUALS   TON1       +1                         #  1P
003615:
003616:                                                                                                 #         MISCELLANEOUS REGISTERS USED EACH UPDATE.
003617:
003618: E6,1541  E6,1623               CM/SAVE           EQUALS   T1BITS     +1                         #  1P
003619: E6,1541  E6,1624               JETEM2            EQUALS   CM/SAVE    +1                         #  1P  TEMPORARY STORAGE
003620:
003621:                                                                                                 #         DAP   QUANTITIES SHARED WITH RCS DAP FOR TM & FLIGHT RECORDER.
003622:
003623: E6,1541  E6,1567               VDT/180           =        ERRORX                                #  1P   (EDIT)
003624: E6,1541  E6,1570               -VT/180E          =        ERRORY                                #  1P   (EDIT)
003625:
003626: E6,1541  E6,1476               PAXERR            EQUALS   AK                                    #  1P  ROLL ERROR FOR NEEDLES
003627: E6,1541  E6,1572               QAXERR            =        THETADX                               #  1P  SINCE AK1 IS ZEROED IN ATM DAP.
003628: E6,1541  E6,1573               RAXERR            =        QAXERR     +1                         #  1P  SINCE AK2 IS ZEROED IN TM DAP.
003629:
003630:
003631:
003632:                                                                                                 #         **** COLMANU (R60,R62) ****
003633:
003634: E6,1541  E6,1710               VECQTEMP          EQUALS   COFSKEW
003635:


003637:
003638:                                                                                                 #  ******** KALCMANU VARIABLES. (71D) *************************************
003639: E6,1541  E6,1661               BCDU              EQUALS   YMANNDX    +1                         #  B(3) TMP
003640: E6,1541  E6,1664               KSPNDX            EQUALS   BCDU       +3                         #  B(1)TMP
003641: E6,1541  E6,1665               KDPNDX            EQUALS   KSPNDX     +1                         #  B(1)TMP
003642:
003643: E6,1541  E6,1666               TMIS              EQUALS   KDPNDX     +1                         #  I(18) MUST BE IN THE SAME BANK AS RCS DAP
003644: E6,1541  E6,1710               COFSKEW           EQUALS   TMIS       +18D                       #  I(6)  MUST BE IN THE SAME BANK AS RCS DAP
003645: E6,1541  E6,1716               CAM               EQUALS   COFSKEW    +6                         #  I(2)  MUST BE IN THE SAME BANK AS RCS DAP
003646:
003647: E6,1541  E6,1720               MIS               EQUALS   CAM        +2                         #  I(18)   (THE REST MAY GO ANYWHERE)
003648: E6,1541  E6,1742               COF               EQUALS   MIS        +18D                       #  I(6)TMP
003649: E6,1541  E6,1750               SCAXIS            EQUALS   COF        +6                         #  I(6)TMP
003650: E6,1541  E6,1756               POINTVSM          EQUALS   SCAXIS     +6                         #  I(6)TMP
003651: E6,1541  E6,1764               AM                EQUALS   POINTVSM   +6                         #  I(2)TMP
003652: E6,1541  E6,1766               RAD               EQUALS   AM         +2                         #  I(2)TMP
003653:
003654:
003655:                                                                                                 #  FIRST-ORDER OVERLAYS IN KALCMANU                                       (12D+8D)
003656:
003657: E6,1541  E6,1666               MFISYM            EQUALS   TMIS                                  #  I   TMP
003658: E6,1541  E6,1666               TMFI              EQUALS   TMIS                                  #  I   TMP
003659: E6,1541  E6,1666               NCDU              EQUALS   TMIS                                  #  B   TMP
003660: E6,1541  E6,1671               NEXTIME           EQUALS   TMIS       +3                         #  B   TMP
003661: E6,1541  E6,1672               TTEMP             EQUALS   TMIS       +4                         #  B   TMP
003662: E6,1541  E6,1674               BIASTEMP          EQUALS   TMIS       +6                         #  B   TMP
003663: E6,1541  E6,1710               BRATE             EQUALS   COFSKEW                               #  B   TMP
003664: E6,1541  E6,1716               TM                EQUALS   CAM                                   #  B   TMP
003665:
003666:                                                                                                 #         UT TEMPS
003667:
003668: E6,1541  E6,1750               UTX               EQUALS   SCAXIS                                #  I(6)
003669: E6,1541  E6,1756               UTY               EQUALS   POINTVSM                              #  I(6)
003670:
003671:
003672:                                                                                                 #         SATURN BOOST STORAGE. SAVE TILL RCS DAP OPERATION.              (17D)
003673:
003674: E6,1541  E6,1661               POLYNUM           EQUALS   BCDU                                  #  B(15) PAD LOADED
003675: E6,1541  E6,1673               POLYLOC           =        POLYNUM    +10D
003676: E6,1541  E6,1700               SATRLRT           EQUALS   POLYNUM    +15D                       #  B(2)  PAD LOADED
003677:
003678:
003679:
003680:                                                                                                 #         MORE P11 STORAGE -PAD LOADED-                                   (2D)
003681:
003682:                                                                                                 #         (NOTE: THIS PAD LOAD WILL NOT BE PRESERVED THROUGHOUT THE MISSION AS IT SHARES STORAGE WITH KALCMANU,
003683:                                                                                                 #          ENTRY DAP AND TVC DAP)
003684:
003685: E6,1541  E6,1702               RPSTART           EQUALS   SATRLRT    +2                         #  B(1) PITCH ROLL START TIME
003686: E6,1541  E6,1703               POLYSTOP          EQUALS   RPSTART    +1                         #  B(1) POLY CUTOFF MINUS RPSTART SEC
003687:
003688:


003690:
003691:                                                                                                 #         P11 STORAGE                                                     (4D)
003692:
003693: E6,1541  E6,1704               SPOLYARG          EQUALS   POLYSTOP   +1                         #  B(1)TMP ARG FOR POLY
003694: E6,1541  E6,1705               BOOSTEMP          EQUALS   SPOLYARG   +1                         #  B(3)TEMP
003695:
003696:
003697:                                                                                                 #  P11 SATURN I/F                                                 (9D)
003698:
003699: E6,1541  E6,1710               SATRATE           EQUALS   BOOSTEMP   +3                         #  B(4)PL MANEUVER RATES FOR SATURN STICK
003700: E6,1541  E6,1714               SATSW             EQUALS   SATRATE    +4                         #  B(1)TEM STATUS SW FOR BOOST TAKEOVER
003701: E6,1541  E6,1715               BIASAK            EQUALS   SATSW      +1                         #  B(3)TEM STOR AK BIAS FOR BOOST TAKEOVER
003702: E6,1541  E6,1720               SATSCALE          EQUALS   BIASAK     +3                         #  B(1) SCALE FACTOR FOR SATURN STEERING
003703:
003704:
003705:
003706:                                                                                                 #         P21 STORAGE.                                                    (1D)
003707:
003708: E6,1541  E6,1770               GENRET            EQUALS   RAD        +2                         #  B(1)TMP
003709:
003710:
003711:                                                                                                 #         R61CSM STORAGE.                                                 (1D)
003712:
003713: E6,1541  E6,1771               SAVBNK            EQUALS   GENRET     +1                         #  B(1) S-S SAVE EBANK FOR R61 SUBROUTINE
003714:
003715:
003716:                                                                                                 #  R67 STORAGE                                                            (1D)
003717:
003718: E6,1541  E6,1772               RATEPTC           EQUALS   SAVBNK     +1                         #  B(1)
003719:
003720:
003721:                                                                                                 #         PERMANENT STORAGE FOR P20 DEADBAND                              (1D)
003722:
003723: E6,1541  E6,1773               DBPTC             EQUALS   RATEPTC    +1                         #  B(1)
003724:
003725:
003726:                                                                                                 #  R61,R67 STORAGE.                                                       (1D)
003727:
003728:
003729: E6,1541  E6,1774               R61CNTR           EQUALS   DBPTC      +1                         #  B(1)
003730:                                                                                                 #         ENTRY RESTART PROTECTION STORAGE. -KEEP TEMPS IN ORDER-         (12D)
003731:
003732: E6,1541  E6,1770               TEMPROLL          EQUALS   GENRET                                #  B(1)TMP COPY CYCLE REGISTER
003733: E6,1541  E6,1771               TEMPALFA          EQUALS   TEMPROLL   +1                         #  B(1)TMP COPY CYCLE REGISTER
003734: E6,1541  E6,1772               TEMPBETA          EQUALS   TEMPALFA   +1                         #  B(1)TMP COPY CYCLE REGISTER
003735: E6,1541  E6,1773               60GENRET          EQUALS   TEMPBETA   +1                         #  B(1)TMP QSAVE FOR S61.1 AND ENTRY.
003736: E6,1541  E6,1774               S61DT             EQUALS   60GENRET   +1                         #  B(1)TMP VARIABLE DT FOR S61.1 RESTART.
003737:
003738:
003739:
003740:                                                                                                 #         ENTRY TM SHARING FOR ACCELERATION PROFILE.
003741:


003743: E6,1541  E6,1533               XPIPBUF           EQUALS   ADOT                                  #  B(1) PIPA BUFFER FOR TM DURING ENTRY.
003744: E6,1541  E6,1534               YPIPBUF           EQUALS   XPIPBUF    +1                         #  B(1) PIPS FILED HERE EACH .5 SEC APPEAR
003745: E6,1541  E6,1535               ZPIPBUF           EQUALS   YPIPBUF    +1                         #  B(1) ON DOWNLIST ONCE PER SECOND DURING
003746: E6,1541  E6,1536               XOLDBUF           EQUALS   ZPIPBUF    +1                         #  B(1) ENTRY AFTER RCS DAP HAS BEEN DIS-
003747: E6,1541  E6,1537               YOLDBUF           EQUALS   XOLDBUF    +1                         #  B(1) ABLED. NEWEST PIP VALUE REPLACES
003748: E6,1541  E6,1540               ZOLDBUF           EQUALS   YOLDBUF    +1                         #  B(1) PIPBUF,WHICH IS MOVED INTO OLDBUF.
003749:
003750:
003751:                                                                                                 #         REENTRY VARIABLES SHARED WITH RCS DAP FOR TM & FLIGHT RECORDER.
003752:
003753: E6,1541  E6,1574               Q7                =        THETADZ                               #  I(2)   HI-WORD ONLY ON DNLIST.
003754:
003755: E6,1541  E6,1525               ASPS(TM)          =        WBODY                                 #  I(6) DWN
003756:                                                                                                 #         ASKEP,ASP1,ASPUP,ASPDN,ASP3,ASP3+1
003757:
003758:                                                                                                 #         P23 PAD LOAD (2D)
003759:
003760: E6,1541  E6,1775               HORISLP           EQUALS   R61CNTR    +1                         #  I(2)PL
003761:


003763:
003764:                                                                                                 #                 EBANK-7 ASSIGNMENTS
003765:
003766: E7,1400                                          SETLOC   3400
003767:
003768:
003769:                                                                                                 #         *-*-*-*- OVERLAY NUMBER 0 IN EBANK 7 -*-*-*-*
003770:
003771:                                                                                                 #         EXTERNAL DELTA-V UPDATE.                                        (21D)
003772:
003773:                                                                                                 #         (MUST BE IN ORDER FOR UPDATE PROGRAM. ALSO ENTRY PROGRAMS PICK UP 'LAT(SPL)' WITH A VLOAD.)
003774:
003775: E7,1400                        LAT(SPL)          ERASE    +20D                                  #  I(2)      DSP NOUN 61 FOR P62,63,64,67
003776: E7,1425  E7,1402               LNG(SPL)          EQUALS   LAT(SPL)   +2                         #  I(2)DSP NOUN 61 FOR P62,63,64,67
003777:
003778: E7,1425  E7,1404               DELVSLV           EQUALS   LNG(SPL)   +2                         #  I(6)TMP DELTA VEL VECT, LOC VER COORDS
003779: E7,1425  E7,1412               TIG               EQUALS   DELVSLV    +6                         #  B(2)DSP NOUN 33 FOR X-V84(R32),P30,40.
003780: E7,1425  E7,1414               RTARG             EQUALS   TIG        +2                         #  I(6)IN  DESIRED VEHICHE RADIUS VECTOR
003781: E7,1425  E7,1422               DELLT4            EQUALS   RTARG      +6                         #  I(2)IN  TIME DIFFERENCE FOR INITVEL
003782: E7,1425  E7,1424               ECSTEER           EQUALS   DELLT4     +2                         #  I(1)PL   FOR P40 S
003783: E7,1425  E7,1404               DELVLVC           =        DELVSLV
003784: E7,1425                        END-DELV          ERASE                                          #  *NEXT AVAIL LOC AFTER UNSHARED E7*
003785:
003786:
003787:
003788:                                                                                                 #         SERVICER STORAGE.                                               (12D)
003789:
003790: E7,1426  E7,1425               DVTOTAL           EQUALS   END-DELV                              #  B(2) DSP NOUN 40,99 FOR P30,34,35,40
003791: E7,1426  E7,1427               TGO               EQUALS   DVTOTAL    +2                         #  B(2)
003792: E7,1426  E7,1431               DELVREF           EQUALS   TGO        +2                         #  I(6)TMP
003793: E7,1426  E7,1447               NOMTIG            EQUALS   END-KALC                              #  I(2) (CAN NOT SHARE WITH KALCMANU
003794:                                                                                                 #  OR DELVREF)
003795: E7,1426  E7,1451               END-SVCR          EQUALS   NOMTIG     +2                         #  ***NEXT AVAILABLE AFTER SERVICER
003796:
003797:
003798:
003799:                                                                                                 #         ALIGNMENT STORAGE.                                              (7D)
003800:
003801: E7,1426  E7,1451               VEL/C             EQUALS   END-SVCR                              #  I(6)TMP
003802: E7,1426  E7,1457               R53EXIT           EQUALS   VEL/C      +6                         #  I(1)TMP
003803:
003804:                                                                                                 #         ALIGNMENT MARKDATA (DOWNLINK) *******                           (7D)
003805: E7,1426  E7,1460               MARK2DWN          EQUALS   R53EXIT    +1                         #  (7)  USED BY ALIGNMENT P50S
003806:


003808:
003809:                                                                                                 #         *-*-*-*- OVERLAY NUMBER 1 IN EBANK 7 -*-*-*-*
003810:
003811:                                                                                                 #  REENTRY ERASABLES                                                      (181D+4D)
003812:
003813: E7,1426  E7,1451               RTINIT            EQUALS   END-SVCR                              #  6P
003814: E7,1426  E7,1457               RTEAST            EQUALS   RTINIT     +6                         #  6P
003815: E7,1426  E7,1465               RTNORM            EQUALS   RTEAST     +6                         #  6P
003816: E7,1426  E7,1473               RT                EQUALS   RTNORM     +6                         #  6P
003817: E7,1426  E7,1501               UNI               EQUALS   RT         +6                         #  6P
003818: E7,1426  E7,1507               UNITV             EQUALS   UNI        +6                         #  6P
003819: E7,1426  E7,1515               VEL               EQUALS   UNITV      +6                         #  6P
003820:
003821: E7,1426  E7,1523               TIME/RTO          EQUALS   VEL        +6                         #  2P   TIME OF INITIAL TARGET, RTO.
003822: E7,1426  E7,1525               -VREL             EQUALS   TIME/RTO   +2                         #  6P
003823: E7,1426  E7,1533               OLDUYA            EQUALS   -VREL      +6                         #  6P   USED BY CM/POSE    (ENTRY DAP)
003824: E7,1426  E7,1541               UXA/2             EQUALS   OLDUYA     +6                         #  6P   USED BY CM/POSE  (ENTRY DAP)  -UVA
003825: E7,1426  E7,1541               URH               =        UXA/2                                 #             P61 DISPLAY NOUN
003826: E7,1426  E7,1547               UYA/2             EQUALS   UXA/2      +6                         #  6P   USED BY CM/POSE   (ENTRY DAP)   UYA
003827: E7,1426  E7,1555               UZA/2             EQUALS   UYA/2      +6                         #  6P   USED BY CM/POSE   (ENTRY DAP)   UNA
003828: E7,1426  E7,1563               UBX/2             EQUALS   UZA/2      +6                         #  6P   USED BY CM/POSE   (ENTRY DAP)
003829: E7,1426  E7,1571               UBY/2             EQUALS   UBX/2      +6                         #  6P   USED BY CM/POSE   (ENTRY DAP)
003830: E7,1426  E7,1577               UBZ/2             EQUALS   UBY/2      +6                         #  6P   USED BY CM/POSE   (ENTRY DAP)
003831:
003832: E7,1426  E7,1605               DTEAROT           EQUALS   UBZ/2      +6                         #  2P
003833: E7,1426  E7,1607               DIFF              EQUALS   DTEAROT    +2                         #  2P
003834: E7,1426  E7,1611               DIFFOLD           EQUALS   DIFF       +2                         #  2P
003835: E7,1426  E7,1613               FACTOR            EQUALS   DIFFOLD    +2                         #  2P
003836: E7,1426  E7,1615               FACT1             EQUALS   FACTOR     +2                         #  2P
003837: E7,1426  E7,1617               FACT2             EQUALS   FACT1      +2                         #  2P
003838:                                                                                                 # Q7              =       THETADZ         # 2P  SHARED FOR TM.   P64-P66
003839: E7,1426  E7,1621               VSQUARE           EQUALS   FACT2      +2                         #  2P
003840: E7,1426  E7,1623               LAD               EQUALS   VSQUARE    +2                         #  2P
003841: E7,1426  E7,1625               LOD               EQUALS   LAD        +2                         #  2P
003842: E7,1426  E7,1627               L/DCMINR          EQUALS   LOD        +2                         #  2P
003843: E7,1426  E7,1631               KLAT              EQUALS   L/DCMINR   +2                         #  2P
003844: E7,1426  E7,1633               L/D               EQUALS   KLAT       +2                         #  2P
003845: E7,1426  E7,1635               L/D1              EQUALS   L/D        +2                         #  2P
003846: E7,1426  E7,1724               LEWD              =        VIO                                   #  2P   SHARED FOR TM.  P64-P65
003847: E7,1426  E7,1637               D                 EQUALS   L/D1       +2                         #  2P   DSP NOUN 64,66,68 FOR P63,64,67
003848:                                                                                                 # V1              =       ENDBUF +1       # 2P   SHARED FOR TM.  P64-P65
003849: E7,1426  E7,1641               DLEWD             EQUALS   D          +2                         #  2P
003850: E7,1426  E7,1643               K2ROLL            EQUALS   DLEWD      +2                         #  2 P
003851: E7,1426  E7,1645               GOTOADDR          EQUALS   K2ROLL     +2                         #  1P
003852: E7,1426  E7,1646               TEM1B             EQUALS   GOTOADDR   +1                         #  2 P
003853: E7,1426  E7,1650               MM                EQUALS   TEM1B      +2                         #  2 P
003854: E7,1426  E7,1651               GRAD              EQUALS   MM         +1                         #  1P
003855: E7,1426  E7,1652               FX                EQUALS   GRAD       +1                         #  1P   OVERWRITES NEXT 5 LOCS IN P67
003856: E7,1426  E7,1653               LEQ               EQUALS   FX         +1                         #  2P
003857: E7,1426  E7,1655               DHOOK             EQUALS   LEQ        +2                         #  2P
003858: E7,1426  E7,1657               AHOOKDV           EQUALS   DHOOK      +2                         #  2P


003860: E7,1426  E7,1661               DVL               EQUALS   AHOOKDV    +2                         #  2P
003861:                                                                                                 # A0              =       ENDBUF +3       # 2P    SHARED FOR TM.(HI-WD ) P64-P65
003862: E7,1426  E7,1663               A1                EQUALS   DVL        +2                         #  2P
003863: E7,1426  E7,1665               VBARS             EQUALS   A1         +2                         #  2P
003864: E7,1426  E7,1667               COSG/2            EQUALS   VBARS      +2                         #  2P
003865: E7,1426                        GAMMAL1           =        22D                                   #  2P
003866: E7,1426  E7,1671               VS1               EQUALS   COSG/2     +2                         #  2P
003867: E7,1426  E7,1673               V                 EQUALS   VS1        +2                         #  2P
003868:                                                                                                 # VREF            =       THETAD +2       # 2P   SHARED FOR TM    P65
003869: E7,1426  E7,1675               LATANG            EQUALS   V          +2                         #  2P   ADJACENT FOR TM.
003870: E7,1426  E7,1677               RDOT              EQUALS   LATANG     +2                         #  2P   ADJACENT FOR TM.
003871: E7,1426  E7,1701               THETAH            EQUALS   RDOT       +2                         #  2P   DSP NOUN 64,67 FOR P63,64,67
003872:                                                                                                 # RDOTREF =       THETAD          # 2P   SHARED FOR TM     P65
003873: E7,1426  E7,1703               ALP               EQUALS   THETAH     +2                         #  2P
003874:
003875: E7,1426  E7,1730               ASKEP             =        ASPS                                  #  2P)                  THESE ARE STORED IN
003876: E7,1426  E7,1731               ASP1              =        ASPS       +1                         #  2P)                  SEQUENCE,OVERLAPPING
003877: E7,1426  E7,1732               ASPUP             =        ASPS       +2                         #  2P)>HI-WD OF EACH<  HI-WORD ONLY APPEARING
003878: E7,1426  E7,1733               ASPDWN            =        ASPS       +3                         #  2P)                  ON DOWNLIST, EXCEPT
003879: E7,1426  E7,1734               ASP3              =        ASPS       +4                         #  2P)                  ASP3 IS COMPLETE.
003880:
003881: E7,1426  E7,1705               C/D0              EQUALS   ALP        +2                         #  2P   -1/D0
003882: E7,1426  E7,1707               D0                EQUALS   C/D0       +2                         #  I(2)    CONSTANT DRAG
003883: E7,1426  E7,1711               Q2                EQUALS   D0         +2                         #  2P
003884:
003885:                                                                                                 #         ROLLC IS LOCATED IN EBANK= AOG TO AID ENTRY DAP.
003886: E7,1426  E7,1713               RTGO              EQUALS   Q2         +2                         #  2P   DSP NOUN 66 FOR P64,P67.
003887: E7,1426  E7,1715               DNRNGERR          EQUALS   RTGO       +2                         #  2P DSP NOUN 66 FOR P64,67.
003888: E7,1426  E7,1675               XRNGERR           =        LATANG                                #       FOR DISKY DISPLAY
003889: E7,1426  E7,1717               KAT               EQUALS   DNRNGERR   +2                         #  2P
003890: E7,1426  E7,1721               GMAX              EQUALS   KAT        +2                         #  1P  DSP NOUN 60 FOR P61,62,63.
003891:                                                                                                 #  GMAX IS LOADED IN DOUBLE PRECISION
003892: E7,1426  E7,1726               L/DCALC           =        TTE                                   #  2P  CALCULATED L/D FOR TM:  P64 - P67.
003893:
003894:
003895: E7,1426  E7,1756               VL                =        VPRED                                 #  2P  SHARED FOR TM  P64-P65
003896: E7,1426  E7,1760               GAMMAL            =        GAMMAEI                               #  2P  SHARED FOR TM.  P64
003897: E7,1426  E7,1760               PREDANG           =        GAMMAEI                               #       FOR TM IN P67.
003898: E7,1426  E7,1761               JJ                =        PREDANG    +1                         #       FOR TM IN P67.
003899:
003900:
003901:                                                                                                 #     ENTRY P11  P15
003902:
003903: E7,1426  E7,1722               VMAGI             EQUALS   GMAX       +1                         #  2P DSP NOUN 62,64,68 FOR P11,63,64.
003904:
003905: E7,1426  E7,1724               VIO               EQUALS   VMAGI      +2                         #  2P  DSP NOUN 63 FOR P61.
003906: E7,1426  E7,1726               TTE               EQUALS   VIO        +2                         #  2P  DSP NOUN 63 FOR P61.
003907:
003908:
003909: E7,1426  E7,1730               ASPS              EQUALS   TTE        +2                         #  I(2)     HI-WORD ONLY ON DNLIST FOR TEMP


003911: E7,1426  E7,1732               TTE1              EQUALS   ASPS       +2                         #  I(2ETMP HOLDS UNDECREMENTED TTE VALUE
003912:
003913:
003914: E7,1426  E7,1734               TTE2              EQUALS   TTE1       +2                         #  I(2) HOLDS COMPENSATED TTE VALUE DURING
003915:                                                                                                 #       P61 THRU P63 FOR  N63 DISPLAY
003916:
003917:                                                                                                 #         **** P6OS ****                                                  (2D)
003918:
003919: E7,1426  E7,1713               RTGON64           EQUALS   RTGO                                  #  RANGE ERRORS NEGATIVE IF FALLS SHORT
003920: E7,1426  E7,1713               RTGON67           EQUALS   RTGO                                  #     DSP NOUN 67
003921:
003922:
003923:
003924:                                                                                                 #         REENTRY, RETURN TO EARTH COMMON DISPLAY.                        (4D)
003925:
003926: E7,1426  E7,1756               VPRED             EQUALS   BETA12     +2                         #  DSP NOUN 60 FOR P61,   ,62,63.
003927: E7,1426  E7,1760               GAMMAEI           EQUALS   VPRED      +2                         #  DSP NOUN 60 FOR P61,   ,62,63.
003928:
003929:
003930:
003931:                                                                                                 #         DISPLAY REGISTER FOR VG                                         (2D)
003932:
003933: E7,1426  E7,1762               VGDISP            EQUALS   GAMMAEI    +2                         #  B(2)DSP N.40,42,99 FOR P30,34,35,37,40,
003934:                                                                                                 #             41 VG DISPLAY
003935:
003936:
003937:                                                                                                 #         SOME P11 DISPLAY REGISTERS.                                     (4D)
003938:
003939: E7,1426  E7,1736               ALTI              EQUALS   TTE2       +2                         #  2P DSP NOUN 62 FOR P11
003940: E7,1426  E7,1740               HDOT              EQUALS   ALTI       +2                         #  2P DSP NOUN 62 FOR P11.
003941:
003942:                                                                                                 #         P15,S11.1 INTERFACE                                             (4D)
003943:
003944: E7,1426  E7,1722               VNOW              =        VMAGI
003945:
003946: E7,1426  E7,1724               VGTLI             EQUALS   VMAGI      +2                         #  I(2)TMP
003947:


003949:
003950:                                                                                                 #         *-*-*-*- OVERLAY 2 IN EBANK 7 -*-*-*-*
003951:
003952:                                                                                                 #         KALCMANU STORAGE.                                               (18D)
003953:
003954: E7,1426  E7,1425               MFS               EQUALS   END-DELV                              #  I(18)
003955: E7,1426  E7,1425               MFI               EQUALS   MFS                                   #  I   TMP
003956: E7,1426  E7,1425               DEL               EQUALS   MFS                                   #  I   TMP
003957: E7,1426  E7,1447               END-KALC          EQUALS   MFS        +18D                       #  **NEXT AVAIL LOC AFTER KALCMANU **
003958:
003959:
003960:                                                                                                 #         MEASUREMENT INCORPORATION STORAGE(R22) STORAGE.                 (56D)
003961:
003962: E7,1426  E7,1447               TX789             EQUALS   END-KALC                              #  I(6)TMP
003963: E7,1426  E7,1455               GAMMA             EQUALS   TX789      +6                         #  I(2)TMP
003964: E7,1426  E7,1457               OMEGA             EQUALS   GAMMA      +2                         #  I(18)TMP
003965: E7,1426  E7,1501               BVECTOR           EQUALS   OMEGA      +18D                       #  I(18)TMP
003966: E7,1426  E7,1523               DELTAQ            EQUALS   BVECTOR    +18D                       #  I(2)TMP
003967: E7,1426  E7,1525               VARIANCE          EQUALS   DELTAQ     +2                         #  I(3)TMP
003968: E7,1426  E7,1530               RCLP              EQUALS   VARIANCE   +3                         #  I(6)TMP
003969: E7,1426  E7,1536               GRP2SVQ           EQUALS   RCLP       +6                         #  I(1)TMP QSAVE FOR RESTARTS
003970:
003971:
003972:                                                                                                 #         P22 TEMP
003973:
003974: E7,1426  E7,1501               S22UMRL           EQUALS   BVECTOR                               #  I(18)
003975:
003976:
003977:                                                                                                 #         P20, P22, P23 DSP NOUN                                          (5D)
003978:
003979: E7,1426  E7,1501               N49DISP           EQUALS   BVECTOR                               #  B(5)TMP
003980:
003981:
003982:                                                                                                 #         S22.1 STORAGE.                                                  (36D)
003983:
003984: E7,1426  E7,1537               SVMRKDAT          EQUALS   GRP2SVQ    +1                         #  I(36)TMP 5 SETS OF MARK DATA +PAD OF ONE
003985:
003986:
003987:                                                                                                 #         **** CISLUNAR NAV. ERAS. (P20S) ****                            (42D)
003988:
003989: E7,1426  E7,1603               UBAR0             EQUALS   SVMRKDAT   +36D
003990: E7,1426  E7,1611               UBAR1             EQUALS   UBAR0      +6
003991: E7,1426  E7,1617               UBAR2             EQUALS   UBAR1      +6
003992: E7,1426  E7,1625               RZC               EQUALS   UBAR2      +6
003993: E7,1426  E7,1633               VZC               EQUALS   RZC        +6
003994: E7,1426  E7,1641               UCLSTAR           EQUALS   VZC        +6
003995: E7,1426  E7,1647               USSTAR            EQUALS   UCLSTAR    +6
003996:


003998:
003999:                                                                                                 #         *-*-*-*- OVERLAY 3 IN EBANK 7 -*-*-*-*
004000:
004001:                                                                                                 #         RENDEZVOUS GUIDANCE STORAGE. - P32...P35 -                      (8D)
004002:
004003: E7,1426  E7,1447               DELTEEO           EQUALS   END-KALC                              #  I(2) S-S BACK VALUES OF DELTA TIME
004004: E7,1426  E7,1451               DELEL             EQUALS   DELTEEO    +2                         #  I(2) S-S
004005: E7,1426  E7,1453               SECMAX            EQUALS   DELEL      +2                         #  I(2) S-S MAX STOP SIZE FOR ROUTINE
004006: E7,1426  E7,1455               XXXALT            EQUALS   SECMAX     +2                         #  I(2)
004007:
004008:
004009:
004010:                                                                                                 #         S40.9 STORAGE.                                                  (16D)
004011:
004012: E7,1426  E7,1457               VG                EQUALS   XXXALT     +2                         #  I(6)TMP
004013: E7,1426  E7,1465               VRPREV            EQUALS   VG         +6                         #  I(6)
004014: E7,1426  E7,1473               TNIT              EQUALS   VRPREV     +6                         #  I(2)
004015: E7,1426  E7,1475               TNITPREV          EQUALS   TNIT       +2                         #  I(2)
004016:
004017:
004018:                                                                                                 #         P30'S COMMON STORAGE.                                           (24D)
004019:
004020: E7,1426  E7,1537               RACT3             EQUALS   GRP2SVQ    +1                         #  I(6)TMP POSITION OF ACTIE AT TPI TIME.
004021: E7,1426  E7,1545               VACT3             EQUALS   RACT3      +6                         #  I(6)TMP VELOCITY OF ACTIVE AT TPI TIME.
004022: E7,1426  E7,1553               RPASS3            EQUALS   VACT3      +6                         #  I(6)TMP POSITION OF PASSIVE AT TPI TIME.
004023: E7,1426  E7,1561               VPASS3            EQUALS   RPASS3     +6                         #  I(6)TMP VELOCITY OF PASSIVE AT TPI TIME.
004024:
004025:
004026:                                                                                                 #         P76  N84 DISPLAY  -  P32  N82 DISPLAY                           (6D)
004027: E7,1426  E7,1537               DELVOV            EQUALS   RACT3                                 #  I(6)DSP NOUN 84 FOR X-V84, P34-35
004028:
004029:
004030:                                                                                                 #         P76 - P77          STORAGE                                      (1D)
004031:
004032: E7,1426  E7,1545               OPTFLAG           EQUALS   DELVOV     +6                         #  B(1)TMP FLAG FOR P76 OR P77 BRANCHING
004033:                                                                                                 #         INITVEL/MIDGIM STORAGE.                                         (34D)
004034:                                                                                                 #                 (CALLED BY S34.1,2, S35.1,2, AND S40.9)
004035:                                                                                                 #                 (CALLS LAMBERT, CONIC SUBROUTINES)
004036:
004037: E7,1426  E7,1567               RINIT             EQUALS   VPASS3     +6                         #  I(6)IN  ACTIVE VEHICLE RADIUS VECTOR
004038: E7,1426  E7,1575               VINIT             EQUALS   RINIT      +6                         #  I(6)IN  ACTIVE VEHICLE VELOCITY VECTOR
004039: E7,1426  E7,1603               RTARG1            EQUALS   VINIT      +6                         #  I(6)TMP SHIFTED RTARG
004040: E7,1426  E7,1611               VIPRIME           EQUALS   RTARG1     +6                         #  I(6)OUT   NEW VEL REQ AT INITIAL RADIUS
004041: E7,1426  E7,1617               VTPRIME           EQUALS   VIPRIME    +6                         #  I(6)OUT TOTAL VELOCITY AT DESIRED RADIUS
004042: E7,1426  E7,1625               +MGA              EQUALS   VTPRIME    +6                         #  I(2)DSP NOUN 45 FOR P30,34,35. +MID GIM.
004043: E7,1426  E7,1627               COZY4             EQUALS   +MGA       +2                         #  I(2)TMP COSINE OF ANGLE WHEN ROT STARTS
004044:
004045:                                                                                                 #  (THE FOLLOWING OVERLAYS MEASUREMENT INCORP AND CANNOT SHARE WITH TPI
004046: E7,1426  E7,1502               INTIME            EQUALS   TNITPREV   +5
004047: E7,1426  E7,1504               ITCTR             EQUALS   INTIME     +2                         #  I(1)TMP ITERATION COUNTER


004049: E7,1426  E7,1631               END-IN/M          EQUALS   COZY4      +2                         #  **NEXT AVAIL LOC AFTER INITVEL/MIDGIM**
004050:
004051:
004052:                                                                                                 #         P34 AND P33 STORAGE.    (OVERLAYS INITVEL/MIDGIM)               (24D)
004053:
004054: E7,1426  E7,1567               VAPREC            EQUALS   RINIT                                 #  I(6) S-S PREC VEC FOR NOM TPI TIME (ACT V
004055: E7,1426  E7,1575               RAPREC            EQUALS   VINIT                                 #  I(6) S-S PREC VEC FOR NOM TPI TIME (ACT V
004056: E7,1426  E7,1611               VPPREC            EQUALS   VIPRIME                               #  I(6) S-S PREC VEC FOR NOM TPI TIME (PASS
004057: E7,1426  E7,1617               RPPREC            EQUALS   VTPRIME                               #  I(6) S-S PREC VEC FOR NOM TPI TIME (PASS
004058:
004059:
004060:
004061:                                                                                                 #         P30, P40 INTERFACE.                                             (20D)
004062:
004063: E7,1426  E7,1631               RTIG              EQUALS   END-IN/M                              #  I(6)TMP
004064: E7,1426  E7,1637               VTIG              EQUALS   RTIG       +6                         #  I(6)TMP
004065: E7,1426  E7,1645               DELVSIN           EQUALS   VTIG       +6                         #  I(6)TMP
004066: E7,1426  E7,1645               DELVEET3          EQUALS   DELVSIN                               #       TMP DELTA VEL VECT INERTIAL COORDS.
004067: E7,1426  E7,1645               VGTEMP            EQUALS   DELVEET3
004068: E7,1426  E7,1653               DELVSAB           EQUALS   DELVSIN    +6                         #  I(2)TMP
004069:
004070:
004071:
004072:                                                                                                 #         P35-P40 INTERFACE STORAGE. (OVERLAYS P30-P40 I/F STORAGE)       (6D)
004073:
004074: E7,1426  E7,1637               VPASS4            EQUALS   VTIG                                  #  I(6)TMP VELOCITY OF PASSIVE AT INTERCEPT
004075:                                                                                                 #         P30-P40 COMMON STORAGE.                                         (3D)
004076:
004077: E7,1426  E7,1655               TPASS4            EQUALS   DELVSAB    +2                         #  I(2)TMP
004078: E7,1426  E7,1657               QTEMP             EQUALS   TPASS4     +2                         #  I(1) TMP
004079:
004080:
004081:
004082:                                                                                                 #         P30-P40 STORAGE.                                                (4D)
004083:
004084: E7,1426  E7,1660               TTOGO             EQUALS   QTEMP      +1                         #  B(2)DSP NOUN 35,40,45,59,99
004085:                                                                                                 #           FOR P30,34,35,40,41,47,  R30.
004086: E7,1426  E7,1662               TTPI              EQUALS   TTOGO      +2                         #  B(2)DSP NOUN 37 FOR P34 TPI TIME, CSECS.
004087:
004088: E7,1426  E7,1664               END-P30S          EQUALS   TTPI       +2                         #  **NEXT AVAIL LOC AFTER P30-40 STORAGE.**
004089:
004090:
004091:                                                                                                 #         P40 STORAGE.                                                    (8D)
004092:
004093: E7,1426  E7,1664               VGBODY            EQUALS   END-P30S                              #  B(6)DSP NOUN 85 FOR P40,41,42 VG-SC COOR
004094: E7,1426  E7,1664               DELVCTL           =        VGBODY
004095: E7,1426  E7,1672               P40TMP            EQUALS   VGBODY     +6                         #  B(2)TMP
004096:
004097:
004098:                                                                                                 #         P47 STORAGE.
004099:


004101: E7,1426  E7,1457               DV47TEMP          EQUALS   VG                                    #  B(6)TMP
004102: E7,1426  E7,1674               DELVIMU           EQUALS   P40TMP     +2                         #  I(6)  DSP  NOUN 83 FOR P47 DELTAV(IMU)
004103:
004104:
004105:
004106:                                                                                                 #         S40.1 STORAGE.                                                  (23D)
004107:
004108: E7,1426  E7,1702               CSTEER            EQUALS   DELVIMU    +6                         #  I(2)IN
004109: E7,1426  E7,1704               BDT               EQUALS   CSTEER     +2                         #  I(6)IN
004110: E7,1426  E7,1712               UT                EQUALS   BDT        +6                         #  I(6)OUT THRUST DIRECTION
004111: E7,1426  E7,1720               VGTIG             EQUALS   UT         +6                         #  I(6)OUT
004112: E7,1426  E7,1720               VGPREV            =        VGTIG
004113: E7,1426  E7,1726               F                 EQUALS   VGTIG      +6                         #  I(2)OUT S40.3 NEEDS THIS
004114:
004115: E7,1426  E7,1730               QTEMP1            EQUALS   F          +2                         #  I(1)TMP HOLDS RETURN
004116:
004117:
004118:                                                                                                 #         P15 TEMPORARY STORAGE                                           (6D)
004119:
004120: E7,1426  E7,1457               AVEGDT            EQUALS   DV47TEMP                              #  B(2)
004121: E7,1426  E7,1461               VPAST             EQUALS   AVEGDT     +2                         #  I(2)
004122: E7,1426  E7,1463               TLITMP            EQUALS   VPAST      +2                         #  B(2)
004123:
004124:
004125:                                                                                                 #         R41                                                             (2D)
004126:
004127: E7,1426  E7,1465               T-TO-ADD          EQUALS   DV47TEMP   +6                         #  I(2) FOR MIDTOAVE
004128:
004129:


004131:
004132:                                                                                                 #         *-*-*-*- OVERLAY 4 IN EBANK 7 -*-*-*-*
004133:
004134:                                                                                                 #         S35.1 STORAGE.                                                  (2D)
004135:
004136: E7,1426  E7,1664               TSTRT             EQUALS   END-P30S                              #  I(2)IN MIDCOURSE START TIME
004137:
004138:
004139:                                                                                                 #         S34.1 STORAGE.          (OVERLAYS S35.1 STORAGE)                (1D)
004140:
004141: E7,1426  E7,1664               TITER             EQUALS   TSTRT                                 #  I(1)TMP ITERATION COUNTER
004142:
004143:
004144:                                                                                                 #         P22 STORAGE.                                                    (5D)
004145: E7,1426  E7,1667               S22TOFF           EQUALS   DELVEET2   +1                         #  2   T SUB OFF
004146:                                                                                                 #  *USED IN SUBROUTINE COMMON TO P22 AND P23.
004147: E7,1426  E7,1671               S22TPRIM          EQUALS   S22TOFF    +2                         #  2      SAVE TF
004148: E7,1426  E7,1673               S22EORM           EQUALS   S22TPRIM   +2                         #  0 = EARTH -- NON-ZERO = MOON
004149:
004150:
004151:
004152:                                                                                                 #         DOWNLINK ERASABLES FOR P22,P20 MARK DATA.                       (8D)
004153:
004154: E7,1426  E7,1674               MARKDOWN          EQUALS   S22EORM    +1                         #  B(7)
004155: E7,1426  E7,1703               RM                EQUALS   S22RTNEX                              #  DOWNLINK OF VHF RANGE
004156:
004157:
004158:
004159:                                                                                                 #         S22.1                                                           (1D)
004160:
004161: E7,1426  E7,1703               S22RTNEX          EQUALS   MARKDOWN   +7                         #  B(1)
004162:
004163:
004164:
004165:                                                                                                 #         P22 STORAGE                                                     (6D)
004166:
004167: E7,1426  E7,1704               STARSAV3          EQUALS   S22RTNEX   +1                         #  I(6)TMP
004168:
004169:
004170:                                                                                                 #         CRS61.1 STORAGE.        -A SUBSET OF P20-                       (14D)
004171:
004172: E7,1426  E7,1704               Q611              EQUALS   RM         +1                         #  I(1) TMP QSAVE
004173: E7,1426  E7,1705               Q6111             EQUALS   Q611       +1                         #  I(1)TMP QSAVE
004174: E7,1426  E7,1706               SAVEPOS           EQUALS   Q6111      +1                         #  I(6)TMP LEM POSITION VECTOR-
004175: E7,1426  E7,1714               SAVEVEL           EQUALS   SAVEPOS    +6                         #  I(6)TMP LEM VELOCITY VECTOR-
004176:
004177:
004178:                                                                                                 #         MARK STORAGE AND W MATRIX INIT STORAGE (UNSHARED)               (13D)
004179:
004180: E7,1426  E7,1722               MRKBUF1           EQUALS   SAVEVEL    +6                         #  B(7)
004181: E7,1426  E7,1731               CNT3TEMP          EQUALS   MRKBUF1    +7                         #  I(2)


004183: E7,1426  E7,1733               OLDMKTME          EQUALS   CNT3TEMP   +2                         #  I(2)
004184: E7,1426  E7,1735               AGEOFW            EQUALS   OLDMKTME   +2                         #  I(2)
004185:
004186:
004187:
004188:                                                                                                 #         MORE CONICS STORAGE.                                            (4)
004189: E7,1426  E7,1767               COGA              EQUALS   NN         +2                         #  I(2) COTAN OF INITIAL FLT PATH ANGLE
004190: E7,1426  E7,1767               INDEP             EQUALS   COGA                                  #  I(1) USED BY SUBROUTINE'ITERATOR'
004191: E7,1426  E7,1771               EPSILONL          EQUALS   COGA       +2                         #  I(2) TMP
004192:
004193:
004194:                                                                                                 #         UNIVERSAL TRACKING STORAGE                                      (10D)
004195:
004196: E7,1426  E7,1731               PLANVCUT          EQUALS   CNT3TEMP                              #  I(6) PLANET VECTOR UT
004197: E7,1426  E7,1737               UTPIT             EQUALS   PLANVCUT   +6                         #  I(2)  N78 PITCH
004198: E7,1426  E7,1741               UTYAW             EQUALS   UTPIT      +2                         #     I(2)  N78 YAW
004199:
004200:
004201:
004202:                                                                                                 #         RENDEZVOUS GUIDANCE STORAGE.  - P32...P35 -                     (10D)
004203:
004204: E7,1426  E7,1743               ELEV              EQUALS   UTYAW      +2                         #  I(2)TMP
004205: E7,1426  E7,1745               RTX1              EQUALS   ELEV       +2                         #   (1)
004206: E7,1426  E7,1746               RTX2              EQUALS   RTX1       +1                         #   (1)
004207: E7,1426  E7,1747               RTMU              EQUALS   RTX2       +1                         #   (2)
004208: E7,1426  E7,1751               RTSR1/MU          EQUALS   RTMU       +2                         #   (2)
004209: E7,1426  E7,1753               CENTANG           EQUALS   RTSR1/MU   +2                         #  I(2) S-S CENTRAL ANGLE COVERED(TPI-TPF)
004210:
004211:


004213:
004214:                                                                                                 #         *-*-*-*- OVERLAY 5 IN EBANK 7 -*-*-*-*
004215:
004216:                                                                                                 #         P34                                                             (2D)
004217:
004218: E7,1426  E7,1765               NN1               =        NN                                    #  I(2) DSP NOUN 55, R1
004219:
004220:
004221:                                                                                                 #   ************ THE FOLLOWING ARE FOR FLIGHT 504 ONLY ********************
004222:
004223:                                                                                                 #         RETURN-TO-EARTH STORAGE.                                        (93D)
004224:
004225: E7,1426  E7,1631               RTEDVD            EQUALS   END-IN/M                              #  I(2)IN DELTA VELOCITY DESIRED    M/CS B7
004226: E7,1426  E7,1633               RTEGAM2D          EQUALS   RTEDVD     +2                         #  I(2)IN REENTRY ANGLE DESIRED     REVS B0
004227: E7,1426  E7,1635               RCON              EQUALS   RTEGAM2D   +2                         #  I(2)TMP CONIC R2 RADIUS             M B29
004228: E7,1426  E7,1637               R(T1)/            EQUALS   RCON       +2                         #  I(6)TMP POSITION VECTOR AT TIG M B29/B27
004229: E7,1426  E7,1645               R(T1)             EQUALS   R(T1)/     +6                         #  I(2)TMP MAGNITUDE OF R(T1)/     M B29/B27
004230: E7,1426  E7,1647               DT21PR            EQUALS   R(T1)      +2                         #  I(2) TMP PREVIOUS DT21   CS B30
004231: E7,1426  E7,1651               MAMAX1            EQUALS   DT21PR     +2                         #  I(2) TMP MAJ AXIS LOW BOUND LMT    M B30
004232: E7,1426  E7,1653               MAMAX2            EQUALS   MAMAX1     +2                         #  I(2) TMP MAJ AXIS UP BOUND LMT     M B30
004233: E7,1426  E7,1655               R(T2)/            EQUALS   MAMAX2     +2                         #  I(6)TMP FINAL POSITION VECTOR   M B29/B27
004234: E7,1426  E7,1663               RD                EQUALS   R(T2)/     +6                         #  I(2)TMP FINAL R DESIRED         M B29/B27
004235: E7,1426  E7,1665               DRCON             EQUALS   RD         +2                         #  I(2)TMP RCON SLOPE ITERATOR     M B29/B27
004236: E7,1426  E7,1667               RPRE,             EQUALS   DRCON      +2                         #  I(2)TMP PREVIOUS RPRE           M B29/B27
004237: E7,1426  E7,1671               V(T1)/            EQUALS   RPRE,      +2                         #  I(6)TMP VEL VECTOR AT TIG      M/CS B7/B5
004238: E7,1426  E7,1677               V2(T1)/           EQUALS   V(T1)/     +6                         #  I(6)TMP POST IMP VEL AT TIG    M/CS B7/B5
004239: E7,1426  E7,1705               DV                EQUALS   V2(T1)/    +6                         #  I(2)TMP DELTA VELOCITY AT TIG  M/CS B7/B5
004240: E7,1426  E7,1707               V(T2)/            EQUALS   DV         +2                         #  I(6)TMP FINAL VELOCITY VECTOR  M/CS B7/B5
004241: E7,1426  E7,1715               T1                EQUALS   V(T2)/     +6                         #  I(2)TMP INITIAL VECTOR TIME        CS B28
004242: E7,1426  E7,1717               PCON              EQUALS   T1         +2                         #  I(2)TMP SEMI-LATUS RECTUM          M B29
004243: E7,1426  E7,1721               X(T1)             EQUALS   PCON       +2                         #  I(2)TMP COTANGENT GAMMA1               B5
004244: E7,1426  E7,1723               T12               EQUALS   X(T1)      +2                         #  I(2)TMP INIT TO FINAL POSIT TIME  CS B28
004245: E7,1426  E7,1725               DELTAT            EQUALS   T12        +2                         #  I(2) TMP DELTA T IN SAVE PERILUNE CS B28
004246: E7,1426  E7,1727               NN1A              EQUALS   DELTAT     +2                         #  I(2) TMP ITERATION COUNTER 1
004247:
004248:
004249:
004250: E7,1426  E7,1545               NN2               EQUALS   DELVOV     +6                         #  I(2) TMP ITERATION COUNTER
004251: E7,1426  E7,1547               RTENCKEX          EQUALS   NN2        +2                         #  I(1)TMP RTENCK RETURN ADDRESS
004252: E7,1426  E7,1550               CONICX1           EQUALS   RTENCKEX   +1                         #  I(1) TMP CONICS MU TABLE INDEX
004253: E7,1426  E7,1551               T2                EQUALS   CONICX1    +1                         #  I(2)TMP FINAL TIME                 CS B28
004254: E7,1426  E7,1553               UR1/              EQUALS   T2         +2                         #  I(6)TMP UNIT R(T1)/                    B1
004255: E7,1426  E7,1561               UV1/              EQUALS   UR1/       +6                         #  I(6)TMP UNIT V(T1)/                    B1
004256:
004257:
004258: E7,1426  E7,1743               BETA1             EQUALS   UTYAW      +2                         #  I(2) TEMP 1+X(T2)**2                   B1
004259: E7,1426  E7,1745               P(T1)             EQUALS   BETA1      +2                         #  I(1)TMP PRIMARY BODY STATE TIME 1    B14
004260: E7,1426  E7,1746               CFPA              EQUALS   P(T1)      +1                         #  I(2) TMP COSINE FLIGHT PATH ANGLE   B1
004261: E7,1426  E7,1750               PHI2              EQUALS   CFPA       +2                         #  I(2) TMP PERI OR APO INDICATOR       B2
004262: E7,1426  E7,1752               SPRTEX            EQUALS   PHI2       +2                         #  I(1)TMP ROUTINE RETURN ADDRESS


004264: E7,1426  E7,1753               VNSTORE           EQUALS   SPRTEX     +1                         #  I(1)TMP VERBNOUN STORAGE
004265: E7,1426  E7,1754               BETA12            EQUALS   VNSTORE    +1                         #  I(2)TMP SIGN FOR TIMERAD
004266:                                                                                                 #                 OVERLAYS WITHIN RETURN-TO-EARTH STORAGE.
004267:
004268:                                                                                                 #         TEMPS WITHIN VAC
004269:
004270: E7,1426                        RPRE              EQUALS   24D                                   #  I(2)TMP COMPUTED PREC RADIUS    M B29/B27
004271: E7,1426                        P/RPRE            EQUALS   26D                                   #  I(2)TMP P/R                            B4
004272: E7,1426                        R/APRE            EQUALS   28D                                   #  I(2)TMP R/A                            B6
004273:
004274: E7,1426  E7,1723               X(T2)PRE          EQUALS   T12                                   #  I(2)TMP PREC COTAN GAMMA2              B0
004275: E7,1426  E7,1725               X(T2)             EQUALS   DELTAT                                #  I(2)TMP COTAN GAMMA2                   B0
004276: E7,1426  E7,1561               UH/               EQUALS   UV1/                                  #  I(2)TMP UNIT HORIZONTAL VECTOR.        B1
004277: E7,1426  E7,1412               SPRTETIG          EQUALS   TIG                                   #  I(2)IN  TIME OF IGNITION           CS B28
004278:
004279:


004281:
004282:                                                                                                 #         *-*-*-*- OVERLAY 6 IN EBANK 7 -*-*-*-*
004283:
004284:                                                                                                 #         P32,P33
004285:
004286:
004287:                                                                                                 #            THE FOLLOWING OVERLAY MEAS. INCORP. AND ARE IN USE ONLY WHEN (32D)
004288:
004289: E7,1426  E7,1457               POSTCSI           EQUALS   VG                                    #  I(2)
004290: E7,1426  E7,1461               DELVCSI           EQUALS   POSTCSI    +2                         #  I(2)
004291: E7,1426  E7,1463               DELDV             EQUALS   DELVCSI    +2                         #  I(2)
004292: E7,1426  E7,1465               GAMPREV           EQUALS   DELDV      +2                         #  I(2)
004293: E7,1426  E7,1467               DVPREV            EQUALS   GAMPREV    +2                         #  I(2)
004294: E7,1426  E7,1471               POSTCDH           EQUALS   DVPREV     +2                         #  I(2)
004295: E7,1426  E7,1471               HAFPA1            EQUALS   POSTCDH
004296: E7,1426  E7,1473               VACT4             EQUALS   POSTCDH    +2                         #  I(6)
004297: E7,1426  E7,1501               RDOTV             EQUALS   VACT4      +6                         #  I(2)
004298: E7,1426  E7,1503               VACT1             EQUALS   RDOTV      +2                         #  I(6)
004299: E7,1426  E7,1511               VPASS1            EQUALS   VACT1      +6                         #  I(6) VEL. PASSIVE VEH, AT CSI TIME
004300:
004301:
004302: E7,1426  E7,1545               UNVEC             EQUALS   VACT3                                 #  I(6)
004303: E7,1426  E7,1655               T2TOT3            EQUALS   TPASS4                                #  I(2) TPI - TCDH
004304:
004305: E7,1426  E7,1664               CSIALRM           EQUALS   TITER                                 #  I(2) ALARM INDEX
004306:
004307: E7,1426  E7,1666               DELVEET2          EQUALS   CSIALRM    +2                         #  I(6) VACT3-VACT2 = DVCDH REF.COORD.
004308:                                                                                                 #         P21 STORAGE                                                     (2D)
004309:
004310: E7,1426  E7,1537               P21TIME           EQUALS   RACT3                                 #  I(2)
004311:
004312:
004313:                                                                                                 #         ADDITIONAL CSI - CDH STORAGE.                                   (10D)
004314:
004315: E7,1426  E7,1755               RPASS1            EQUALS   CENTANG    +2                         #  I(6) POS. PASSIVE VEH. AT CSI TIME.
004316: E7,1426  E7,1763               LOOPCT            EQUALS   RPASS1     +6                         #  I(2) ITERATION COUNTER
004317: E7,1426  E7,1765               NN                EQUALS   LOOPCT     +2                         #  I(2)
004318:
004319:                                                                                                 #         P21 STORAGE                                                     (19D)
004320:
004321: E7,1426  E7,1603               P21ORIG           EQUALS   UBAR0                                 #  I(1)
004322: E7,1426  E7,1604               P21BASER          EQUALS   P21ORIG    +1                         #  I(6)
004323: E7,1426  E7,1612               P21BASEV          EQUALS   P21BASER   +6                         #  I(6)
004324: E7,1426  E7,1620               P21ALT            EQUALS   P21BASEV   +6                         #  I(2) NOUN 73 R1 ALTITUDE
004325: E7,1426  E7,1622               P21VEL            EQUALS   P21ALT     +2                         #  I(2) NOUN 73 R2 VELOCITY
004326: E7,1426  E7,1624               P21GAM            EQUALS   P21VEL     +2                         #  I(2) NOUN 73 R3 FLIGHT PATH ANGLE
004327:
004328:
004329:
004330:                                                                                                 #         P29 ERASABLES                                                   (32D)
004331:


004333: E7,1426  E7,1541               PASSTIME          EQUALS   P21TIME    +2                         #  B(2)TMP
004334: E7,1426  E7,1543               LONGFOR           EQUALS   PASSTIME   +2                         #  B(2)TMP
004335: E7,1426  E7,1545               DELTLONG          EQUALS   LONGFOR    +2                         #  I(2)TMP
004336: E7,1426  E7,1547               FUDGE             EQUALS   DELTLONG   +2                         #  I(2)TMP
004337: E7,1426  E7,1551               MUSUBE            EQUALS   FUDGE      +2                         #  I(6)TMP
004338: E7,1426  E7,1557               MUSUBC            EQUALS   MUSUBE     +6                         #  I(6)TMP
004339: E7,1426  E7,1565               MUSUBS            EQUALS   MUSUBC     +6                         #  I(6)TMP
004340: E7,1426  E7,1573               MUSUBN            EQUALS   MUSUBS     +6                         #  I(6)TMP
004341:
004342: E7,1426  E7,1537               P29BASET          =        P21TIME
004343: E7,1426  E7,1604               P29BASER          =        P21BASER
004344: E7,1426  E7,1612               P29BASEV          =        P21BASEV
004345:
004346:                                                                                                 #  P22-P23 STORAGE.                                                       (9D)
004347:
004348: E7,1426  E7,1743               22SUBSCL          EQUALS   ELEV                                  #  B(1) DE OF ABCDE LANDMARK ID NO
004349: E7,1426  E7,1744               CXOFF             EQUALS   22SUBSCL   +1                         #  B OF ABCDE OFFSET INDICATOR.
004350: E7,1426  E7,1745               8KK               EQUALS   CXOFF      +1                         #  B (2)  TMP   INDEX OF PRESENT MARK.
004351: E7,1426  E7,1747               8NN               EQUALS   8KK        +2                         #  B(1) TMP NO OF MARKS TAKEN IN SXTMARK
004352: E7,1426  E7,1750               S22LOC            EQUALS   8NN        +1                         #  I(1)TMP MAKR DATA LOC
004353: E7,1426  E7,1751               LANDMARK          EQUALS   S22LOC     +1                         #  B(1)DSP NOUN 70 FOR P22,51,R52,53.
004354: E7,1426  E7,1752               HORIZON           EQUALS   LANDMARK   +1                         #  B(1)DSP NOUN 70 FOR P22,51,R52,53.
004355: E7,1426  E7,1753               P22DEX            EQUALS   HORIZON    +1                         #  B(1) INDEX FOR SXTMARK IN P22
004356:                                                                                                 #         P23 TRUNION BOAS STORAGE.
004357:
004358:                                                                                                 #  9(1D)
004359: E7,1426  E7,1754               TRUNION           EQUALS   P22DEX     +1                         #  B(1)


004361: E7,1777                                          SETLOC   3777
004362: E7,1777                        WHOCARES          EQUALS                                         #  A DUMMY FOR E-BANK INSENSITIVE 2CADRS.


004364:                                                                                                 # #WHOCARES       =       3777            # A DUMMY FOR E-BANK INSENSITIVE 2CADRS.


004366:
004367: E7,1777  E7,1777               END-E7            =        WHOCARES                              #  TAG NEEDED FOR EDITS

End of include-file ERASABLE_ASSIGNMENTS.agc.  Parent file is MAIN.agc


