
Source Code


000002:                                                                                                  ## Copyright:   Public domain.
000003:                                                                                                  ## Filename:    ERASABLE_ASSIGNMENTS.agc
000004:                                                                                                  ## Purpose:     Part of the source code for Artemis (i.e., Colossus 3),
000005:                                                                                                  ##              build 072.  This is for the Command Module's (CM)
000006:                                                                                                  ##              Apollo Guidance Computer (AGC), for
000007:                                                                                                  ##              Apollo 15-17.
000008:                                                                                                  ## Assembler:   yaYUL
000009:                                                                                                  ## Contact:     Onno Hommes <ohommes@alumni.cmu.edu>
000010:                                                                                                  ## Website:     www.ibiblio.org/apollo/index.html
000011:                                                                                                  ## Page Scans:  www.ibiblio.org/apollo/ScansForConversion/Artemis072/
000012:                                                                                                  ## Mod history: 2009-07-30 OH   Started from corresponding Comanche 055 file.
000013:                                                                                                  ##              2009-11-29 JL   Carried on from where Onno stopped on page 48.
000014:                                                                                                  ##              2010-01-25 JL   Finished conversion.
000015:                                                                                                  ##              2010-01-26 JL   Updated header comments.
000016:                                                                                                  ##              2010-01-31 JL   Fixed build errors.
000017:                                                                                                  ##              2010-02-02 JL   Fixed page numbers.
000018:                                                                                                  ##              2010-02-02 JL   Fixed ERASE op.
000019:                                                                                                  ##              2010-02-09 JL   Fixed addresses of 9X9LOC1 and 9X9LOC2 on p97.
000020:                                                                                                  ##                              Fixed EQUALS on p80.
000021:                                                                                                  ##              2010-02-20 RSB  Un-##'d this header.
000022:                                                                                                  ##              2010-04-12 JL   Fixed tab spacing on a line.
000023:                                                                                                  ##              2011-05-07 JL   Removed workarounds.
000024:                                                                                                  ##              2017-01-04 RSB  Proofed comment text using octopus/ProoferComments
000025:                                                                                                  ##                              and fixed errors found.
000026:                                                                                                  ##              2017-01-22 RSB  Proofed comment text by diff'ing vs Comanche 55
000027:                                                                                                  ##                              and corrected errors found, though the match between
000028:                                                                                                  ##                              these program versions is not stellar (ha!), so
000029:                                                                                                  ##                              you shouldn't have too much confidence that all
000030:                                                                                                  ##                              comment-text errors were found.
000031:                                                                                                  ##              2017-03-16 RSB  Comment-text fixes identified in 4-way side-by-side
000032:                                                                                                  ##                              diff of Colossus237/249/Comanche55/Artemis72.
000033:                                                                                                  ##                              Note that there are several instances (marked by
000034:                                                                                                  ##                              ##-style comments) in which I've added a trailing
000035:                                                                                                  ##                              period not visible in the printout. In these instances
000036:                                                                                                  ##                              I believe that the printout is simply too faint, but
000037:                                                                                                  ##                              that the periods are really present in the source code.
000038:                                                                                                  ##                              Previously, I had intentionally omitted these periods.
000039:                                                                                                  ##              2021-05-30 ABS  NORMSBIT -> NDRMSBIT
000040:                                                                                                  ##                              GONBYBIT -> G0NBYBIT
000041:                                                                                                  ##                              Removed RUPTSTOR line not present in scans.
000042:


000044:                                                                                                  #  CONVENTIONS AND NOTATIONS UTILIZED FOR ERASABLE ASSIGNMENTS.
000045:
000046:                                                                                                  #        EQUALS  IS USED IN TWO WAYS.  IT IS OFTEN USED TO CHAIN A GROUP
000047:                                                                                                  #                OF ASSIGNMENTS SO THAT THE GROUP MAY BE MOVED WITH THE
000048:                                                                                                  #                CHANGING OF ONLY ONE CARD.  EXAMPLE.
000049:
000050:                                                                                                  #                                        X       EQUALS  START
000051:                                                                                                  #                                        Y       EQUALS  X       +SIZE.X
000052:                                                                                                  #                                        Z       EQUALS  Y       +SIZE.Y
000053:
000054:                                                                                                  #                (X, Y, AND Z ARE CONSECUTIVE AND BEGIN AT START.       )
000055:                                                                                                  #                (SIZE.X AND SIZE.Y ARE THE RESPECTIVE SIZES OF X AND Y,
000056:                                                                                                  #                 USUALLY NUMERIC,  IE. 1, 2, 6, 18D ETC.               )
000057:
000058:
000059:                                                                                                  #        EQUALS  OFTEN IMPLIES THE SHARING OF REGISTERS (DIFFERENT NAMES
000060:                                                                                                  #                AND DIFFERENT DATA).  EXAMPLE.
000061:
000062:                                                                                                  #                                        X       EQUALS  Y
000063:
000064:
000065:                                                                                                  #        = MEANS THAT MULTIPLE NAMES HAVE BEEN GIVEN TO THE SAME DATA.
000066:                                                                                                  #                (THIS IS LOGICAL EQUIVALENCE, NOT SHARING)  EXAMPLE.
000067:
000068:                                                                                                  #                                        X       =       Y
000069:
000070:
000071:                                                                                                  #        THE SIZE AND UTILIZATION OF AN ERASABLE ARE OFTEN INCLUDED IN
000072:                                                                                                  #        THE COMMENTS IN THE FOLLOWING FORM.  M(SIZE)N.
000073:
000074:                                                                                                  #                M REFERS TO THE MOBILITY OF THE ASSIGNMENT.
000075:                                                                                                  #                     B   MEANS THAT THE SYMBOL IS REFERENCED BY BASIC
000076:                                                                                                  #                         INSTRUCTIONS AND THUS IS E-BANK SENSITIVE.
000077:                                                                                                  #                     I   MEANS THAT THE SYMBOL IS REFERENCED ONLY BY
000078:                                                                                                  #                         INTERPRETIVE INSTRUCTIONS, AND IS THUS E-BANK
000079:                                                                                                  #                         INSENSITIVE AND MAY APPEAR IN ANY E-BANK.
000080:
000081:                                                                                                  #                SIZE IS THE NUMBER OF REGISTERS INCLUDED BY THE SYMBOL.
000082:
000083:                                                                                                  #                N INDICATES THE NATURE OR PERMANENCE OF THE CONTENTS.
000084:                                                                                                  #                     PL MEANS THAT THE CONTENTS ARE PAD LOADED.
000085:                                                                                                  #                     DSP MEANS THAT THE REGISTER IS USED FOR A DISPLAY.
000086:                                                                                                  #                     PRM MEANS THAT THE REGISTER IS PERMANENT, IE. IT
000087:                                                                                                  #                         IS USED DURING THE ENTIRE MISSION FOR ONE
000088:                                                                                                  #                         PURPOSE AND CANNOT BE SHARED.
000089:                                                                                                  #                     TMP MEANS THAT THE REGISTER IS USED TEMPORARILY OR
000090:                                                                                                  #                         IS A SCRATCH REGISTER FOR THE ROUTINE TO WHICH
000091:                                                                                                  #                         IT IS ASSIGNED.  THAT IS, IT NEED NOT BE SET
000092:                                                                                                  #                         PRIOR TO INVOCATION OF THE ROUTINE NOR DOES IT
000093:                                                                                                  #                         CONTAIN USEFUL OUTPUT TO ANOTHER ROUTINE.  THUS


000095:                                                                                                  #                         IT MAY BE SHARED WITH ANY OTHER ROUTINE WHICH
000096:                                                                                                  #                         IS NOT ACTIVE IN PARALLEL.
000097:                                                                                                  #                     IN  MEANS INPUT TO THE ROUTINE AND IT IS PROBABLY
000098:                                                                                                  #                         TEMPORARY FOR A HIGHER-LEVEL ROUTINE/PROGRAM.
000099:                                                                                                  #                     OUT MEANS OUTPUT FROM THE ROUTINE, PROBABLY
000100:                                                                                                  #                         TEMPORARY FOR A HIGHER-LEVEL ROUTINE/PROGRAM.
000101:


000103:
000104:                                                                                                  #        SPECIAL REGISTERS.
000105:
000106: ???????                        A                  EQUALS   0
000107: ???????                        L                  EQUALS   1                                     #  L AND Q ARE BOTH CHANNELS AND REGISTERS.
000108: ???????                        Q                  EQUALS   2
000109: ???????                        EBANK              EQUALS   3
000110: ???????                        FBANK              EQUALS   4
000111: ???????                        Z                  EQUALS   5                                     #  ADJACENT TO FBANK AND BBANK FOR DXCH Z
000112: ???????                        BBANK              EQUALS   6                                     #  (DTCB) AND DXCH FBANK (DTCF).
000113:                                                                                                  #  REGISTER 7 IS A ZERO-SOURCE, USED BY ZL.
000114:
000115: ???????                        ARUPT              EQUALS   10                                    #  INTERRUPT STORAGE.
000116: ???????                        LRUPT              EQUALS   11
000117: ???????                        QRUPT              EQUALS   12
000118: ???????                        SAMPTIME           EQUALS   13                                    #  SAMPLED TIME 1 & 2.
000119: ???????                        ZRUPT              EQUALS   15                                    #  (13 AND 14 ARE SPARES.)


000122: ???????                        BANKRUPT           EQUALS   16                                    #  USUALLY HOLDS FBANK OR BBANK.
000123: ???????                        BRUPT              EQUALS   17                                    #  RESUME ADDRESS AS WELL.
000124:
000125: ???????                        CYR                EQUALS   20
000126: ???????                        SR                 EQUALS   21
000127: ???????                        CYL                EQUALS   22
000128: ???????                        EDOP               EQUALS   23                                    #  EDITS INTERPRETIVE OPERATION CODE PAIRS.
000129:
000130:
000131: ???????                        TIME2              EQUALS   24
000132: ???????                        TIME1              EQUALS   25
000133: ???????                        TIME3              EQUALS   26
000134: ???????                        TIME4              EQUALS   27
000135: ???????                        TIME5              EQUALS   30
000136: ???????                        TIME6              EQUALS   31
000137: ???????                        CDUX               EQUALS   32
000138: ???????                        CDUY               EQUALS   33
000139: ???????                        CDUZ               EQUALS   34


000142: ???????                        CDUT               EQUALS   35                                    #  OPTICS TRUNNION CDU (WAS OPTY).
000143: ???????                        CDUS               EQUALS   36                                    #  OPTICS SHAFT CDU (WAS OPTX).
000144: ???????                        PIPAX              EQUALS   37
000145: ???????                        PIPAY              EQUALS   40
000146: ???????                        PIPAZ              EQUALS   41
000147: ???????                        BMAGX              EQUALS   42
000148: ???????                        BMAGY              EQUALS   43
000149: ???????                        BMAGZ              EQUALS   44
000150: ???????                        INLINK             EQUALS   45
000151: ???????                        RNRAD              EQUALS   46
000152: ???????                        GYROCMD            EQUALS   47
000153: ???????                        CDUXCMD            EQUALS   50
000154: ???????                        CDUYCMD            EQUALS   51
000155: ???????                        CDUZCMD            EQUALS   52
000156: ???????                        CDUTCMD            EQUALS   53                                    #  OPTICS TRUNNION COMMAND (WAS OPTYCMD).
000157: ???????  0000053               TVCYAW             EQUALS   CDUTCMD                               #  SPS YAW COMMAND IN TVC MODE.
000158:


000160: ???????                        CDUSCMD            EQUALS   54                                    #  OPTICS SHAFT COMMAND (WAS OPTXCMD).
000161: ???????  0000054               TVCPITCH           EQUALS   CDUSCMD                               #  SPS PITCH COMMAND IN TVC MODE.
000162:                                                                                                  #  REGISTERS 55-60 ARE COUNTERS WHICH ARE NOT PRESENTLY WIRED, AND SO MAY BE USED WITH CARE
000163:
000164:
000165:                                                                                                  #        INTERPRETIVE REGISTERS ADDRESSED RELATIVE TO VAC AREA.
000166:
000167: ???????                        LVSQUARE           EQUALS   34D                                   #  SQUARE OF VECTOR INPUT TO ABVAL AND UNIT
000168: ???????                        LV                 EQUALS   36D                                   #  LENGTH OF VECTOR INPUT TO UNIT.
000169: ???????                        X1                 EQUALS   38D                                   #  INTERPRETIVE SPECIAL REGISTERS RELATIVE


000172: ???????                        X2                 EQUALS   39D                                   #  TO THE WORK AREA.
000173: ???????                        S1                 EQUALS   40D
000174: ???????                        S2                 EQUALS   41D
000175: ???????                        QPRET              EQUALS   42D
000176:


000178:
000179:                                                                                                  #  INPUT/OUTPUT CHANNELS
000180:
000181:                                                                                                  #   *** CHANNEL ZERO IS TO BE USED IN AN INDEXED OPERATION ONLY. ***
000182: ???????  0000001               LCHAN              EQUALS   L
000183: ???????  0000002               QCHAN              EQUALS   Q
000184: ???????                        HISCALAR           EQUALS   3
000185: ???????                        LOSCALAR           EQUALS   4
000186: ???????                        PYJETS             EQUALS   5
000187: ???????  0000005               CHAN5              =        PYJETS
000188: ???????                        ROLLJETS           EQUALS   6
000189: ???????  0000006               CHAN6              =        ROLLJETS
000190: ???????                        SUPERBNK           EQUALS   7
000191: ???????                        OUT0               EQUALS   10
000192: ???????                        DSALMOUT           EQUALS   11
000193: ???????                        CHAN12             EQUALS   12
000194: ???????                        CHAN13             EQUALS   13
000195: ???????                        CHAN14             EQUALS   14
000196: ???????                        MNKEYIN            EQUALS   15
000197: ???????                        NAVKEYIN           EQUALS   16
000198: ???????                        CHAN30             EQUALS   30
000199: ???????                        CHAN31             EQUALS   31
000200: ???????                        CHAN32             EQUALS   32
000201: ???????                        CHAN33             EQUALS   33
000202: ???????                        DNTM1              EQUALS   34
000203: ???????                        DNTM2              EQUALS   35
000204: ???????                        CHAN76             EQUALS   76
000205: ???????                        CHAN77             EQUALS   77
000206:                                                                                                  #  END OF CHANNEL ASSIGNMENTS
000207:


000209:
000210:                                                                                                  #        FLAGWORDS
000211:
000212:
000213:                                                                                                  #  FLAGWRD0      STATE +0        (000-014)
000214:                                                                                                  #  FLAGWRD1      STATE +1        (015-029)
000215:                                                                                                  #  FLAGWRD2      STATE +2        (030-044)
000216:                                                                                                  #  FLAGWRD3      STATE +3        (045-059)
000217:                                                                                                  #  FLAGWRD4      STATE +4        (060-074)
000218:                                                                                                  #  FLAGWRD5      STATE +5        (075-089)
000219:                                                                                                  #  FLAGWRD6      STATE +6        (090-104)
000220:                                                                                                  #  FLAGWRD7      STATE +7        (105-119)
000221:                                                                                                  #  FLAGWRD8      STATE +8D       (120-134)
000222:                                                                                                  #  FLAGWRD9      STATE +9D       (135-149)
000223:
000224:
000225:
000226:                                                                                                  #        SORTED LIST OF
000227:
000228:                                                                                                  #        INTERPITIVE SWITCH BIT ASSIGNMENTS
000229:
000230:                                                                                                  #  INTERPRETIVE SWITCH BIT ASSIGNMENTS
000231:                                                                                                  #  FLAGWORD      DEC NUM         BIT + FLAG      EQUIVALENT FLAGWORDS
000232:
000233:                                                                                                  #  .05GSW        102D            BIT 3 FLAG 6
000234:                                                                                                  #  22DSPFLG      032D            BIT 13 FLAG 2
000235:                                                                                                  #  360SW         134D            BIT 1 FLAG 8
000236:                                                                                                  #  3AXISFLG      084D            BIT 6 FLAG 5
000237:                                                                                                  #  ADVTRK        125D            BIT 10 FLAG 8
000238:                                                                                                  #  AMOONFLG      13D             BIT 2 FLAG 0
000239:                                                                                                  #  APSESW        130D            BIT 5 FLAG 8
000240:                                                                                                  #  ASTNFLAG      108D            BIT 12 FLAG 7
000241:                                                                                                  #  ATTCHFLG      118D            BIT 2 FLAG 7
000242:                                                                                                  #  AUTOSEQ       158D            BIT 7  FLAG 10
000243:                                                                                                  #  AVEGFLAG      029D            BIT 1 FLAG 1
000244:                                                                                                  #  AVEMIDSW      149D            BIT 1 FLAG 9
000245:                                                                                                  #  AVFLAG        040D            BIT 5 FLAG 2
000246:                                                                                                  #  AZIMFLAG      172D            BIT 8 FLAG 11
000247:                                                                                                  #  BURNFLAG      155D            BIT 10 FLAG 10
000248:                                                                                                  #  CALCMAN2      043D            BIT 2 FLAG 2
000249:                                                                                                  #  CMDAPARM      093D            BIT 12 FLAG 6
000250:                                                                                                  #  CMOONFLG      123D            BIT 12 FLAG 8
000251:                                                                                                  #  CM/DSTBY      103D            BIT 2 FLAG 6
000252:                                                                                                  #  COGAFLAG      131D            BIT 4 FLAG 8
000253:                                                                                                  #  COMPUTER      082D            BIT 8 FLAG 5
000254:                                                                                                  #  CSISFLAG      174D            BIT 6  FLAG 11
000255:                                                                                                  #  CULTFLAG      053D            BIT 7 FLAG 3
000256:                                                                                                  #  CYC61FLG      11D             BIT 4  FLAG 0
000257:                                                                                                  #  D6OR9FLG      058D            BIT 2 FLAG 3
000258:                                                                                                  #  DAPBIT1       090D            BIT 15 FLAG 6
000259:                                                                                                  #  DAPBIT2       091D            BIT 14 FLAG 6
000260:


000262:                                                                                                  #  DIM0FLAG      059D            BIT 1 FLAG 3
000263:                                                                                                  #  DMENFLG       081D            BIT 9 FLAG 5
000264:                                                                                                  #  DRIFTFLG      030D            BIT 15 FLAG 2
000265:                                                                                                  #  DSKYFLAG      075D            BIT 15 FLAG 5
000266:                                                                                                  #  EGSW          97D             BIT 8 FLAG 6    KNOWNFLG  R57FLAG
000267:                                                                                                  #  ENG2FLAG      019D            BIT 11 FLAG 1
000268:                                                                                                  #  ENGONFLG      083D            BIT 7 FLAG 5
000269:                                                                                                  #  ENTRYDSP      047D            BIT 13 FLAG 6
000270:                                                                                                  #  ERADFLAG      017D            BIT 13 FLAG 1
000271:                                                                                                  #  ETPIFLAG      038D            BIT 7 FLAG 2    FIRSTFLG   OPTNSW
000272:                                                                                                  #  F2RTE         10D             BIT 5  FLAG 0
000273:                                                                                                  #  FINALFLG      039D            BIT 6 FLAG 2
000274:                                                                                                  #  FIRSTFLG      38D             BIT 7  FLAG 2   ETPIFLAG   OPTNSW
000275:                                                                                                  #  FREEFLAG      012D            BIT 3 FLAG 0
000276:                                                                                                  #  FULTKFLG      163D            BIT 2 FLAG 10
000277:                                                                                                  #  GAMDIFSW      094D            BIT 11 FLAG 6
000278:                                                                                                  #  GLOKFAIL      046D            BIT 14 FLAG 3
000279:                                                                                                  #  GONEBY        112D            BIT 8 FLAG 7
000280:                                                                                                  #  GONEPAST      095D            BIT 10 FLAG 6
000281:                                                                                                  #  GRRBKFLG      085D            BIT 5 FLAG 5
000282:                                                                                                  #  GUESSW        028D            BIT 2 FLAG 1
000283:                                                                                                  #  GYMDIFSW      104D            BIT 1 FLAG 6
000284:                                                                                                  #  HAFLAG        173D            BIT 7  FLAG 11
000285:                                                                                                  #  HDSUPFLG      154D            BIT 11 FLAG 10
000286:                                                                                                  #  HIND          099D            BIT 6 FLAG 6
000287:                                                                                                  #  IDLEFAIL      024D            BIT 6 FLAG 1
000288:                                                                                                  #  IGNFLAG       107D            BIT 13 FLAG 7
000289:                                                                                                  #  IMPULSW       036D            BIT 9 FLAG 2
000290:                                                                                                  #  IMUSE         007D            BIT 8 FLAG 0
000291:                                                                                                  #  INCORFLG      079D            BIT 11 FLAG 5
000292:                                                                                                  #  INFINFLG      128D            BIT 7 FLAG 8
000293:                                                                                                  #  INRLSW        100D            BIT 5 FLAG 6
000294:                                                                                                  #  INTFLAG       151D            BIT 14 FLAG 10
000295:                                                                                                  #  INTYPFLG      056D            BIT 4 FLAG 3
000296:                                                                                                  #  ITSWICH       106D            BIT 14 FLAG 7
000297:                                                                                                  #  JSWITCH       001D            BIT 14 FLAG 0
000298:                                                                                                  #  KNOWNFLG      097D            BIT 8  FLAG 6   EGSW  R57FLAG
000299:                                                                                                  #  LATSW         101D            BIT 4  FLAG 6
000300:                                                                                                  #  LMOONFLG      124D            BIT 11 FLAG 8
000301:                                                                                                  #  LUNAFLAG      048D            BIT 12 FLAG 3
000302:                                                                                                  #  MANEUFLG      160D            BIT 5 FLAG 10
000303:                                                                                                  #  MARKFLG       026D            BIT 4 FLAG 1
000304:                                                                                                  #  MAXDBFLG      138D            BIT 12 FLAG 9
000305:                                                                                                  #  MGLVFLAG      088D            BIT 2 FLAG 5
000306:                                                                                                  #  MID1FLAG      147D            BIT 3 FLAG 9
000307:                                                                                                  #  MIDAVFLG      148D            BIT 2 FLAG 9
000308:                                                                                                  #  MIDFLAG       002D            BIT 13 FLAG 0
000309:                                                                                                  #  MKOVFLAG      072D            BIT 3 FLAG 4
000310:                                                                                                  #  MOONFLAG      003D            BIT 12 FLAG 0
000311:                                                                                                  #  MRKIDFLG      060D            BIT 15 FLAG 4
000312:


000314:                                                                                                  #  MRKNVFLG      066D            BIT 9 FLAG 4
000315:                                                                                                  #  MRUPTFLG      070D            BIT 5 FLAG 4
000316:                                                                                                  #  MWAITFLG      064D            BIT 11 FLAG 4
000317:                                                                                                  #  N22ORN17      144D            BIT 6 FLAG 9
000318:                                                                                                  #  NEEDLFLG      006D            BIT 9 FLAG 0
000319:                                                                                                  #  NEWIFLG       122D            BIT 13 FLAG 8
000320:                                                                                                  #  NEWLMFLG      121D            BIT 14 FLAG  8
000321:                                                                                                  #  NEWTFLAG      80D             BIT 10 FLAG 5
000322:                                                                                                  #  NJETSFLG      015D            BIT 15 FLAG 1
000323:                                                                                                  #  NODOFLAG      044D            BIT 1 FLAG 2
000324:                                                                                                  #  NODOP01       018D            BIT 12 FLAG 1
000325:                                                                                                  #  NORFHOR       004D            BIT 11 FLAG 0
000326:                                                                                                  #  NORMSW        110D            BIT 10 FLAG 7
000327:                                                                                                  #  NOSWITCH      098D            BIT 7 FLAG 6
000328:                                                                                                  #  NRMIDFLG      062D            BIT 13 FLAG 4
000329:                                                                                                  #  NRMNVFLG      067D            BIT 8 FLAG 4
000330:                                                                                                  #  NRUPTFLG      071D            BIT 4 FLAG 4
000331:                                                                                                  #  NWAITFLG      065D            BIT 10 FLAG 4
000332:                                                                                                  #  ORBWFLAG      054D            BIT 6 FLAG 3
000333:                                                                                                  #  ORDERSW       129D            BIT 6 FLAG 8
000334:                                                                                                  #  P21FLAG       033D            BIT 12 FLAG 2
000335:                                                                                                  #  P22MKFLG      49D             BIT 11 FLAG 3
000336:                                                                                                  #  P24FLAG       136D            BIT 14 FLAG  9
000337:                                                                                                  #  P24MKFLG      042D            BIT  3 FLAG  2
000338:                                                                                                  #  P29FLAG       14D             BIT 1 FLAG 0
000339:                                                                                                  #  P35FLAG       157D            BIT 8 FLAG 10
000340:                                                                                                  #  PCFLAG        164D            BIT 1 FLAG 10
000341:                                                                                                  #  PCMANFLG      150D            BIT 15 FLAG 10
000342:                                                                                                  #  PDSPFLAG      063D            BIT 12 FLAG 4
000343:                                                                                                  #  PFRATFLG      041D            BIT 4 FLAG 2
000344:                                                                                                  #  PINBRFLG      069D            BIT 6 FLAG 4
000345:                                                                                                  #  POOFLAG       051D            BIT 9  FLAG 3
000346:                                                                                                  #  PRECIFLG      052D            BIT 8 FLAG 3
000347:                                                                                                  #  PRIODFLG      061D            BIT 14 FLAG 4
000348:                                                                                                  #  PRONVFLG      068D            BIT 7 FLAG 4
000349:                                                                                                  #  PTV93FLG      161D            BIT 4 FLAG 10
000350:                                                                                                  #  QUITFLAG      145D            BIT 5 FLAG 9
000351:                                                                                                  #  R21MARK       031D            BIT 14 FLAG 2
000352:                                                                                                  #  R22CAFLG      143D            BIT 7 FLAG 9
000353:                                                                                                  #  R31FLAG       146D            BIT 4 FLAG 9
000354:                                                                                                  #  R53FLAG       009D            BIT 6 FLAG 0
000355:                                                                                                  #  R67FLAG       133D            BIT 2  FLAG 8
000356:                                                                                                  #  RANGFLAG      156D            BIT 9 FLAG 10
000357:                                                                                                  #  REFSMFLG      047D            BIT 13 FLAG 3
000358:                                                                                                  #  REINTFLG      152D            BIT 13 FLAG 10
000359:                                                                                                  #  REJCTFLG      153D            BIT 12 FLAG 10
000360:                                                                                                  #  RELVELSW      096D            BIT 9 FLAG 6
000361:                                                                                                  #  RENDWFLG      089D            BIT 1 FLAG 5
000362:                                                                                                  #  RETROFLG      76D             BIT 14 FLAG 5
000363:                                                                                                  #  RNDVZFLG      008D            BIT 7 FLAG 0
000364:


000366:                                                                                                  #  RPQFLAG       120D            BIT 15 FLAG 8
000367:                                                                                                  #  RVSW          111D            BIT 9 FLAG 7
000368:                                                                                                  #  S32.1F1       165D            BIT 15 FLAG 11
000369:                                                                                                  #  S32.1F2       166D            BIT 14 FLAG 11
000370:                                                                                                  #  S32.1F3A      167D            BIT 13 FLAG 11
000371:                                                                                                  #  S32.1F3B      168D            BIT 12 FLAG 11
000372:                                                                                                  #  SAVECFLG      140D            BIT 10 FLAG 9
000373:                                                                                                  #  SKIPVHF       035D            BIT 10 FLAG 2
000374:                                                                                                  #  SLOPESW       027D            BIT 3 FLAG 1
000375:                                                                                                  #  SLOWFLG       77D             BIT 13 FLAG 5
000376:                                                                                                  #  SOLNSW        087D            BIT 3 FLAG 5
000377:                                                                                                  #  SOURCFLG      142D            BIT 8 FLAG 9
000378:                                                                                                  #  STATEFLG      055D            BIT 5 FLAG 3
000379:                                                                                                  #  STEERSW       034D            BIT 11 FLAG 2
000380:                                                                                                  #  STIKFLAG      016D            BIT 14 FLAG 1
000381:                                                                                                  #  STRULLSW      92D             BIT 13 FLAG 6
000382:                                                                                                  #  SURFFLAG      127D            BIT 8  FLAG 8
000383:                                                                                                  #  SWTOVER       135D            BIT 15 FLAG 9
000384:                                                                                                  #  TARG1FLG      020D            BIT 10 FLAG 1
000385:                                                                                                  #  TARG2FLG      021D            BIT 9 FLAG 1
000386:                                                                                                  #  TERMIFLG      105D            BIT 15 FLAG 7
000387:                                                                                                  #  TFFSW         119D            BIT 1 FLAG 7
000388:                                                                                                  #  TIMRFLAG      109D            BIT 11 FLAG 7
000389:                                                                                                  #  TPIMNFLG      162D            BIT 3 FLAG 10
000390:                                                                                                  #  TRACKFLG      025D            BIT 5 FLAG 1
000391:                                                                                                  #  UPDATFLG      023D            BIT 7 FLAG 1
000392:                                                                                                  #  UPLOCKFL      116D            BIT 4 FLAG 7
000393:                                                                                                  #  UTFLAG        126D            BIT 9 FLAG 8
000394:                                                                                                  #  V37FLAG       114D            BIT 6 FLAG 7
000395:                                                                                                  #  V50N18FL      045D            BIT 15 FLAG 3
000396:                                                                                                  #  V59FLAG       078D            BIT 12 FLAG 5
000397:                                                                                                  #  V82EMFLG      137D            BIT 13 FLAG 9
000398:                                                                                                  #  V94FLAG       139D            BIT 11 FLAG 9
000399:                                                                                                  #  V96ONFLG      132D            BIT 3 FLAG 8
000400:                                                                                                  #  VEHUPFLG      022D            BIT 8 FLAG 1
000401:                                                                                                  #  VERIFLAG      117D            BIT 3 FLAG 7
000402:                                                                                                  #  VFLAG         050D            BIT 10 FLAG 3
000403:                                                                                                  #  VHFRFLAG      141D            BIT 9 FLAG 9
000404:                                                                                                  #  VINTFLAG      057D            BIT 3 FLAG 3
000405:                                                                                                  #  VNFLAG        073D            BIT 2 FLAG 4
000406:                                                                                                  #  XDELVFLG      037D            BIT 8 FLAG 2
000407:                                                                                                  #  XDSPFLAG      074D            BIT 1 FLAG 4
000408:                                                                                                  #  ZMEASURE      005D            BIT 10 FLAG 0
000409:


000411:
000412:                                                                                                  #  INTERPRETIVE SWITCH BIT ASSIGNMENTS
000413: ???????     0074               FLAGWRD0           =        STATE      +0                         #  (000-014)
000414:                                                                                                  #  (SET)                 (RESET)
000415:                                                                                                  #                        BIT 15 FLAG 0
000416:                                                                                                  #                =       000D
000417:                                                                                                  #                        BIT 14 FLAG 0
000418: ???????                        JSWITCH            =        001D                                  #  INTEGRATION OF W      INTEGRATION OF STATE
000419:                                                                                                  #  MATRIX                VECTOR
000420: ???????     4753               JSWCHBIT           =        BIT14
000421:
000422:                                                                                                  #                        BIT 13 FLAG 0
000423: ???????                        MIDFLAG            =        002D                                  #  INTEGRATION WITH      INTEGRATION WITHOUT
000424:                                                                                                  #  SOLAR PERTURBATIONS   SOLAR PERTURBATIONS
000425:
000426: ???????     4754               MIDFLBIT           =        BIT13
000427:
000428:                                                                                                  #                        BIT 12 FLAG 0
000429: ???????                        MOONFLAG           =        003D                                  #  MOON IS SPHERE OF     EARTH IS SPHERE OF
000430:                                                                                                  #  INFLUENCE             INFLUENCE
000431:
000432: ???????     4755               MOONBIT            =        BIT12
000433:
000434:                                                                                                  #                        BIT 11 FLAG 0
000435: ???????                        NORFHOR            =        004D                                  #  FAR HORIZON           NEAR HORIZON
000436:
000437: ???????     4756               NORFBIT            =        BIT11
000438:
000439:                                                                                                  #                        BIT 10 FLAG 0
000440: ???????                        ZMEASURE           =        005D                                  #  MEASUREMENT PLANET    MEASUREMENT PLANET
000441:                                                                                                  #  AND PRIMARY PLANET    AND PRIMARY PLANET
000442:                                                                                                  #  DIFFERENT             SAME
000443:
000444: ???????     4757               ZMEASBIT           =        BIT10
000445:
000446:                                                                                                  #                        BIT 9 FLAG 0
000447: ???????                        NEEDLFLG           =        006D                                  #  TOTAL ATTIDUDE        A/P FOLLOWING ERROR
000448:                                                                                                  #  ERROR DISPLAYED       DISPLAYED
000449:
000450: ???????     4760               NEEDLBIT           =        BIT9
000451:
000452:                                                                                                  #                        BIT 8 FLAG 0
000453: ???????                        IMUSE              =        007D                                  #  IMU IN USE            IMU NOT IN USE
000454:
000455: ???????     4761               IMUSEBIT           =        BIT8
000456:
000457:                                                                                                  #                        BIT 7 FLAG 0


000459: ???????                        RNDVZFLG           =        008D                                  #  P20 RUNNING           P20 NOT RUNNING
000460: ???????     4762               RNDVZBIT           =        BIT7
000461:
000462:                                                                                                  #                        BIT 6 FLAG 0
000463: ???????                        R53FLAG            =        009D                                  #  V51 INITIATED         V51 NOT INITIATED
000464:
000465:
000466: ???????     4763               R53FLBIT           =        BIT6
000467:
000468:                                                                                                  #                        BIT 5 FLAG 0
000469: ???????                        F2RTE              =        010D                                  #  IN TIME CRITICAL      NOT IN TIME CRITICAL
000470:                                                                                                  #  MODE                  MODE
000471:
000472: ???????     4764               F2RTEBIT           =        BIT5
000473:
000474:                                                                                                  #                        BIT 4 FLAG 0
000475: ???????                        CYC61FLG           =        11D                                   #  KALCMAN3 TO RETURN    KALCMAN3 TO DO
000476:                                                                                                  #  TO R61 AFTER          MANEUVER
000477:
000478: ???????     4765               CYC61BIT           =        BIT4                                  #  COMPUTING TM
000479:
000480:                                                                                                  #                        BIT 3 FLAG 0
000481: ???????                        FREEFLAG           =        012D                                  #  (TEMPORARY FLAG USED IN MANY ROUTINES)
000482:
000483: ???????     4766               FREEFBIT           =        BIT3
000484:
000485:                                                                                                  #                        BIT 2 FLAG 0
000486: ???????                        AMOONFLG           =        013D                                  #  STATE VECTOR IN       STATE VECTOR IN
000487: ???????     4767               AMOONBIT           =        BIT2                                  #  LUNAR SPHERE AT       EARTH SPHERE AT
000488:                                                                                                  #  MIDTOAVE              MIDTOAVE
000489:
000490:                                                                                                  #                        BIT 1 FLAG 0
000491: ???????                        P29FLAG            =        14D                                   #  P29 RUNNING. 1ST      P29 FINISHED WITH
000492: ???????     4770               P29BIT             =        BIT1                                  #  PASS IN PROGRESS.     1ST PASS.
000493:
000494:
000495: ???????     0075               FLAGWRD1           =        STATE      +1                         #  (015-029)
000496:
000497:                                                                                                  #  (SET)                 (RESET)
000498:
000499:                                                                                                  #                        BIT 15 FLAG 1
000500: ???????                        NJETSFLG           =        015D                                  #  TWO JET RCS BURN      FOUR JET RCS BURN
000501:
000502: ???????     4752               NJETSBIT           =        BIT15
000503:
000504:                                                                                                  #                        BIT 14 FLAG 1
000505: ???????                        STIKFLAG           =        016D                                  #  RHC CONTROL           CMC CONTROL


000507: ???????     4753               STIKBIT            =        BIT14
000508:
000509:                                                                                                  #                        BIT 13 FLAG 1
000510: ???????                        ERADFLAG           =        017D                                  #  EARTH, COMPUTE        EARTH, USE FIXED
000511:                                                                                                  #   FISCHER ELLIPSOID     RADIUS
000512:                                                                                                  #   RADIUS
000513:                                                                                                  #  MOON, USE FIXED       MOON, USE RLS FOR
000514:                                                                                                  #        RADIUS                LUNAR RADIUS
000515:
000516: ???????     4754               ERADFBIT           =        BIT13
000517:
000518:                                                                                                  #                        BIT 12 FLAG 1
000519: ???????                        NODOP01            =        018D                                  #  P01 NOT ALLOWED       P01 ALLOWED
000520:
000521: ???????     4755               NOP01BIT           =        BIT12
000522:
000523:
000524:                                                                                                  #                        BIT 11 FLAG 1
000525: ???????                        ENG2FLAG           =        019D                                  #  RCS BURN              SPS BURN
000526:
000527: ???????     4756               ENG2BIT            =        BIT11
000528:
000529:                                                                                                  #                        BIT 10 FLAG 1
000530: ???????                        TARG1FLG           =        020D                                  #  SIGHTING LEM          NOT SIGHTING LEM
000531:
000532: ???????     4757               TARG1BIT           =        BIT10
000533:
000534:                                                                                                  #                        BIT 9 FLAG 1
000535: ???????                        TARG2FLG           =        021D                                  #  SIGHTING LANDMARK     SIGHTING STAR
000536:
000537: ???????     4760               TARG2BIT           =        BIT9
000538:
000539:                                                                                                  #                        BIT 8 FLAG 1
000540: ???????                        VEHUPFLG           =        022D                                  #  CSM STATE VECTOR      LEM STATE VECTOR
000541:                                                                                                  #  BEING UPDATED         BEING UPDATED
000542:
000543: ???????     4761               VEHUPBIT           =        BIT8
000544:
000545:                                                                                                  #                        BIT 7 FLAG 1
000546: ???????                        UPDATFLG           =        023D                                  #  UPDATING BY MARKS     UPDATING BY MARKS
000547:                                                                                                  #  ALLOWED               NOT ALLOWED
000548:
000549: ???????     4762               UPDATBIT           =        BIT7
000550:
000551:                                                                                                  #                        BIT 6 FLAG 1
000552: ???????                        IDLEFAIL           =        024D                                  #  INHIBIT R41           ENABLE R41 (ENGFAIL)
000553:
000554: ???????     4763               IDLEBIT            =        BIT6
000555:


000557:
000558:                                                                                                  #                        BIT 5 FLAG 1
000559: ???????                        TRACKFLG           =        025D                                  #  TRACKING ALLOWED      TRACKING NOT ALLOWED
000560:
000561: ???????     4764               TRACKBIT           =        BIT5
000562:
000563:                                                                                                  #                        BIT 4 FLAG 1
000564: ???????                        MARKFLG            =        026D                                  #  A MARK HAS BEEN       NO MARK HAS BEEN
000565: ???????     4765               MARKBIT            =        BIT4                                  #  ACCEPTED. ALLOW       ACCEPTED. DO NOT
000566:                                                                                                  #  MARK REJECT.          MARK REJECT.
000567:
000568:
000569:                                                                                                  #                        BIT 3 FLAG 1
000570: ???????                        SLOPESW            =        27D                                   #  ITERATE WITH BIAS     ITERATE WITH REGULA
000571:                                                                                                  #  METHOD IN ITERATOR    FALSI METHOD IN
000572:                                                                                                  #                        ITERATOR
000573:
000574:
000575: ???????     4766               SLOPEBIT           =        BIT3
000576:
000577:                                                                                                  #                        BIT 2 FLAG 1
000578: ???????                        GUESSW             =        028D                                  #  NO STARTING VALUE     STARTING VALUE FOR
000579:                                                                                                  #  FOR ITERATION         ITERATION EXISTS
000580:
000581: ???????     4767               GUESSBIT           =        BIT2
000582:
000583:                                                                                                  #                        BIT 1 FLAG 1
000584: ???????                        AVEGFLAG           =        029D                                  #  AVERAGEG (SERVICER)   AVERAGEG (SERVICER)
000585:                                                                                                  #  TO CONTINUE           TO CEASE
000586:
000587: ???????     4770               AVEGBIT            =        BIT1
000588:
000589: ???????     0076               FLAGWRD2           =        STATE      +2                         #  (030-044)
000590:
000591:                                                                                                  #  (SET)                 (RESET)
000592:
000593:                                                                                                  #                        BIT 15 FLAG 2
000594: ???????                        DRIFTFLG           =        030D                                  #  T3RUPT CALLS GYRO     T3RUPT DOES NO GYRO
000595:                                                                                                  #  COMPENSATION          COMPENSATION
000596:
000597: ???????     4752               DRFTBIT            =        BIT15
000598:
000599:                                                                                                  #                        BIT 14 FLAG 2
000600: ???????                        R21MARK            =        031D                                  #  OPTION ONE FOR        OPTION TWO FOR
000601:                                                                                                  #  MARKRUPT              MARKRUPT
000602:
000603: ???????     4753               R21BIT             =        BIT14
000604:
000605:                                                                                                  #                        BIT 13 FLAG 2
000606: ???????                        22DSPFLG           =        032D                                  #  DISPLAY DR,DV         DO NOT DISPLAY DR,DV
000607:


000609: ???????     4754               22DSPBIT           =        BIT13
000610:
000611:                                                                                                  #                        BIT 12 FLAG 2
000612: ???????                        P21FLAG            =        033D                                  #  SUCCEEDING PASS       1ST PASS THRU P21,
000613:                                                                                                  #  THRU P21, USE BASE    CALCULATE BASE
000614: ???????     4755               P21BIT             =        BIT12                                 #  VECTOR FOR CALC.      VECTOR
000615: ???????                        STEERSW            =        034D                                  #  STEERING TO BE DONE   STEERING OMITTED
000616:
000617: ???????     4756               STEERBIT           =        BIT11
000618:
000619:                                                                                                  #                        BIT 10 FLAG 2
000620: ???????                        SKIPVHF            =        035D                                  #  DISREGARD RADAR       RADAR READ TO
000621:                                                                                                  #  READ BECAUSE OF       PROCEED NORMALLY
000622: ???????     4757               SKIPVBIT           =        BIT10                                 #  SFTWRE OR HDWRE
000623:                                                                                                  #  RESTART
000624:
000625:                                                                                                  #                        BIT 9 FLAG 2
000626: ???????                        IMPULSW            =        036D                                  #  MINIMUM IMPULSE       STEERING BURN (NO
000627:                                                                                                  #  BURN (CUTOFF TIME     CUTOFF TIME YET
000628:                                                                                                  #  SPECIFIED)            AVAILABLE)
000629:
000630: ???????     4760               IMPULBIT           =        BIT9
000631:
000632:                                                                                                  #                        BIT 8 FLAG 2
000633: ???????                        XDELVFLG           =        037D                                  #  EXTERNAL DELTAV VG    LAMBERT (AIMPOINT)
000634:                                                                                                  #  COMPUTATION           VG COMPUTATION
000635:
000636: ???????     4761               XDELVBIT           =        BIT8
000637:                                                                                                  #                        BIT 7 FLAG 2
000638: ???????                        ETPIFLAG           =        038D                                  #  ELEVATION ANGLE       TPI TIME SUPPLIED
000639:                                                                                                  #  SUPPLIED FOR P34,74   FOR P34,74
000640:
000641: ???????     4762               ETPIBIT            =        BIT7
000642:
000643:                                                                                                  #                        BIT 7 FLAG 2
000644: ???????  0000046               FIRSTFLG           =        ETPIFLAG                              #  FIRST PASS            SUCCEEDING PASS THRU
000645:                                                                                                  #  THRU S40.9            S40.9
000646:
000647: ???????     4762               FIRSTBIT           =        BIT7
000648:
000649: ???????     4763               FINALBIT           =        BIT6
000650:
000651:                                                                                                  #                        BIT 6 FLAG 2
000652: ???????                        FINALFLG           =        039D                                  #  LSAT PASS THROUGH     INTERIM PASS THROUGH
000653:                                                                                                  #  RENDEZVOUS PROGRAM    RENDEZVOUS PROGRAM
000654:                                                                                                  #  COMPUTATIONS          COMPUTATIONS
000655:
000656: ???????     4764               AVFLBIT            =        BIT5
000657:
000658:                                                                                                  #                        BIT 5 FLAG 2


000660: ???????                        AVFLAG             =        040D                                  #  LEM IS ACTIVE         CSM IS ACTIVE
000661:                                                                                                  #  VEHICLE               VEHICLE
000662:
000663:                                                                                                  #                        BIT 4 FLAG 2
000664: ???????                        PFRATFLG           =        041D                                  #  PREFERRED ATTITUDE    PREFERRED ATTITUDE
000665:                                                                                                  #  COMPUTED              NOT COMPUTED
000666:
000667: ???????     4765               PFRATBIT           =        BIT4
000668:
000669:                                                                                                  #                        BIT 3 FLAG 2
000670: ???????                        P24MKFLG           =        042D                                  #  P24 MARKING           P24 NOT MARKING
000671: ???????     4766               P24MKBIT           =        BIT3
000672:
000673:                                                                                                  #                        BIT 2 FLAG 2
000674: ???????                        CALCMAN2           =        043D                                  #  PERFORM MANEUVER      BYPASS STARTING
000675:                                                                                                  #  STARTING PROCEDURE    PROCEDURE
000676:
000677: ???????     4767               CALC2BIT           =        BIT2
000678:
000679:                                                                                                  #                        BIT 1 FLAG 2
000680: ???????                        NODOFLAG           =        044D                                  #  V37 NOT PERMITTED     V37 PERMITTED
000681:
000682: ???????     4770               NODOBIT            =        BIT1
000683:
000684: ???????     0077               FLAGWRD3           =        STATE      +3                         #  (045-059)
000685:
000686:                                                                                                  #  (SET)                 (RESET)
000687:
000688:                                                                                                  #                        BIT 15 FLAG 3
000689: ???????                        V50N18FL           =        045D                                  #  ENABLE R60 ATT        INHIBIT R60 ATTITUDE
000690: ???????     4752               V50N18BT           =        BIT15                                 #   MANEUVER              MANEUVER
000691:
000692:                                                                                                  #                        BIT 14 FLAG 3
000693: ???????                        GLOKFAIL           =        046D                                  #  GIMBAL LOCK HAS       NOT IN GIMBAL LOCK
000694:                                                                                                  #  OCCURED
000695:
000696: ???????     4753               GLOKFBIT           =        BIT14
000697:
000698:                                                                                                  #                        BIT 13 FLAG 3
000699: ???????                        REFSMFLG           =        047D                                  #  REFSMMAT GOOD         REFSMMAT NO GOOD
000700:
000701: ???????     4754               REFSMBIT           =        BIT13
000702:
000703:                                                                                                  #                        BIT 12 FLAG 3
000704: ???????                        LUNAFLAG           =        048D                                  #  LUNAR LAT-LONG        EARTH LAT-LONG
000705:
000706: ???????     4755               LUNABIT            =        BIT12
000707:
000708:                                                                                                  #                        BIT 11 FLAG 3


000710: ???????                        P22MKFLG           =        49D                                   #  P22 DOWNLINKED MARK   P22 DOWLINK MARK
000711:                                                                                                  #  DATA WAS JUST TAKEN   DATA NOT JUST TAKEN
000712:
000713: ???????     4756               P22MKBIT           =        BIT11
000714:
000715:                                                                                                  #                        BIT 10 FLAG 3
000716: ???????                        VFLAG              =        050D                                  #  LESS THAN TWO STARS   TWO STARS IN FIELD
000717:                                                                                                  #  IN FIELD OF VIEW      OF VIEW
000718:
000719: ???????     4757               VFLAGBIT           =        BIT10
000720:
000721:                                                                                                  #                        BIT 9 FLAG 3
000722: ???????                        POOFLAG            =        051D                                  #  INHIBIT BACKWARDS     ALLOW BACKWARDS
000723: ???????     4760               POOBIT             =        BIT9                                  #  INTEGRATION           INTEGRATION
000724:                                                                                                  #                        BIT 8 FLAG 3
000725: ???????                        PRECIFLG           =        052D                                  #  CSMPREC, LEMPREC      INTGRV CALLED
000726: ???????     4761               PRECIBIT           =        BIT8                                  #  OR INTEGRVS CALLED
000727:
000728:                                                                                                  #                        BIT 7 FLAG 3
000729: ???????                        CULTFLAG           =        053D                                  #  STAR OCCULTED         STAR NOT OCCULTED
000730:
000731: ???????     4762               CULTBIT            =        BIT7
000732:
000733:                                                                                                  #                        BIT 6 FLAG 3
000734: ???????                        ORBWFLAG           =        054D                                  #  W MATRIX VALID FOR    W MATRIX INVALID FOR
000735:                                                                                                  #  ORBITAL N1VIGATION    ORBITAL NAVIGATION
000736:
000737: ???????     4763               ORBWFBIT           =        BIT6
000738:
000739:                                                                                                  #                        BIT 5 FLAG 3
000740: ???????                        STATEFLG           =        055D                                  #  PERMANENT STATE       PERMANENT STATE
000741:                                                                                                  #  VECTOR UPDATED        VECTOR NOT UPDATED
000742:
000743: ???????     4764               STATEBIT           =        BIT5
000744:
000745:                                                                                                  #                        BIT 4 FLAG 3
000746: ???????                        INTYPFLG           =        056D                                  #  CONIC INTEGRATION     ENCKE INTEGRATION
000747:
000748: ???????     4765               INTYBIT            =        BIT4
000749:
000750:                                                                                                  #                        BIT 3 FLAG 3
000751: ???????                        VINTFLAG           =        057D                                  #  CSM STATE VECTOR      LEM STATE VECTOR
000752:                                                                                                  #  BEING INTEGRATED      BEING INTEGRATED
000753:
000754: ???????     4766               VINTFBIT           =        BIT3
000755:
000756:                                                                                                  #                        BIT 2 FLAG 3
000757: ???????                        D6OR9FLG           =        058D                                  #  DIMENSION OF W IS 9   DIMENSION OF W IS 6
000758:                                                                                                  #  FOR INTEGRATION       FOR INTEGRATION


000760: ???????     4767               D6OR9BIT           =        BIT2
000761:
000762:                                                                                                  #                        BIT 1 FLAG 3
000763: ???????                        DIM0FLAG           =        059D                                  #  W MATRIX IS TO BE     W MATRIX IS NOT TO
000764:                                                                                                  #  USED                  BE USED
000765:
000766: ???????     0100               FLAGWRD4           =        STATE      +4                         #  (060-074)
000767:
000768:                                                                                                  #  (SET)                 (RESET)
000769:
000770: ???????     4770               DIM0BIT            =        BIT1
000771:
000772:                                                                                                  #                        BIT 15 FLAG 4
000773: ???????                        MRKIDFLG           =        060D                                  #  MARK DISPLAY IN       NO MARK DISPLAY IN
000774:                                                                                                  #  ENDIDLE               ENDIDLE
000775:
000776: ???????     4752               MRKIDBIT           =        BIT15
000777:
000778:                                                                                                  #                        BIT 14 FLAG 4
000779: ???????                        PRIODFLG           =        061D                                  #  PRIORITY DISPLAY IN   NO PRIORITY DISPLAY
000780:                                                                                                  #  ENDIDLE               IN ENDIDLE
000781:
000782: ???????     4753               PRIODBIT           =        BIT14
000783:
000784:                                                                                                  #                        BIT 13 FLAG 4
000785: ???????                        NRMIDFLG           =        062D                                  #  NORMAL DISPLAY IN     NO NORMAL DISPLAY
000786:                                                                                                  #  ENDIDLE               IN ENDIDLE
000787:
000788: ???????     4754               NRMIDBIT           =        BIT13
000789:
000790:                                                                                                  #                        BIT 12 FLAG 4
000791: ???????                        PDSPFLAG           =        063D                                  #  CAN'T INTERRUPT       SEE M. HAMILTON
000792:                                                                                                  #  PRIORITY DISPLAY
000793:
000794: ???????     4755               PDSPFBIT           =        BIT12
000795:
000796:                                                                                                  #                        BIT 11 FLAG 4
000797: ???????                        MWAITFLG           =        064D                                  #  HIGHER PRIORITY       NO HIGHER PRIORITY
000798:                                                                                                  #  DISPLAY OPERATING     DISPLAY OPERATING
000799:                                                                                                  #  WHEN MARK DISPLAY     WHEN MARK DISPLAY
000800:                                                                                                  #  INITIATED             INITIATED
000801: ???????     4756               MWAITBIT           =        BIT11
000802:
000803:                                                                                                  #                        BIT 10 FLAG 4
000804: ???????                        NWAITFLG           =        065D                                  #  HIGHER PRIORITY       NO HIGHER PRIORITY
000805:                                                                                                  #  DISPLAY OPERATING     DISPLAY OPERATING
000806:                                                                                                  #  WHEN NORMAL           WHEN NORMAL DISPLAY
000807:                                                                                                  #  DISPLAY INITIATED     INITIATED


000809: ???????     4757               NWAITBIT           =        BIT10
000810:
000811:                                                                                                  #                        BIT 9 FLAG 4
000812: ???????                        MRKNVFLG           =        066D                                  #  ASTRONAUT USING       ASTRONAUT NOT USING
000813:                                                                                                  #  KEYBOARD WHEN MARK    KEYBOARD WHEN MARK
000814:                                                                                                  #  DISPLAY INITIATED     DISPLAY INITIATED
000815:
000816: ???????     4760               MRKNVBIT           =        BIT9
000817:
000818:                                                                                                  #                        BIT 8 FLAG 4
000819: ???????                        NRMNVFLG           =        067D                                  #  ASTRONAUT USING       ASTRONAUT NOT USING
000820:                                                                                                  #  KEYBOARD WHEN         KEYBOARD WHEN
000821:                                                                                                  #  NORMAL DISPLAY        NORMAL DISPLAY
000822:                                                                                                  #  INITIATED             INITIATED
000823:
000824: ???????     4761               NRMNVBIT           =        BIT8
000825:
000826:                                                                                                  #                        BIT 7 FLAG 4
000827: ???????                        PRONVFLG           =        068D                                  #  ASTRONAUT USING       ASTRONAUT NOT USING
000828:                                                                                                  #  KEYBOARD WHEN         KEYBOARD WHEN
000829:                                                                                                  #  PRIORITY DISPLAY      PRIORITY DISPLAY
000830:                                                                                                  #  INITIATED             INITIATED
000831:
000832: ???????     4762               PRONVBIT           =        BIT7
000833:
000834:                                                                                                  #                        BIT 6 FLAG 4
000835: ???????                        PINBRFLG           =        069D                                  #  ASTRONAUT HAS         ASTRONAUT HAS NOT
000836:                                                                                                  #  INTERFERED WITH       INTERFERED WITH
000837:                                                                                                  #  EXISTING DISPLAY      EXISTING DISPLAY
000838:
000839: ???????     4763               PINBRBIT           =        BIT6
000840:
000841:                                                                                                  #                        BIT 5 FLAG 4
000842: ???????                        MRUPTFLG           =        070D                                  #  MARK DISPLAY          MARK DISPLAY NOT
000843:                                                                                                  #  INTERRUPTED BY        INTERRUPTED BY
000844:                                                                                                  #  PRIORITY DISPLAY      PRIORITY DISPLAY
000845:
000846: ???????     4764               MRUPTBIT           =        BIT5
000847:
000848:                                                                                                  #                        BIT 4 FLAG 4
000849: ???????                        NRUPTFLG           =        071D                                  #  NORMAL DISPLAY        NORMAL DISPLAY NOT
000850:                                                                                                  #  INTERRUPTED BY        INTERRUPTED BY
000851:                                                                                                  #  PRIORITY OR MARK      PRIORITY OR MARK
000852:                                                                                                  #  DISPLAY               DISPLAY
000853:
000854: ???????     4765               NRUPTBIT           =        BIT4
000855:
000856:                                                                                                  #                        BIT 3 FLAG 4
000857: ???????                        MKOVFLAG           =        072D                                  #  MARK DISPLAY OVER     NO MARK DISPLAY OVER
000858:                                                                                                  #  NORMAL                NORMAL


000860: ???????     4766               MKOVBIT            =        BIT3
000861:
000862:                                                                                                  #                        BIT 2 FLAG 4    DISPLAY BIT
000863: ???????                        VNFLAG             =        073D                                  #  DISPLAY IS A          DISPLAY IS NOT A
000864: ???????     4767               VNBIT              =        BIT2                                  #  VNFLASH TYPE          VNFLASH TYPE
000865:
000866:                                                                                                  #                        BIT 1 FLAG 4    MARK DISPLAY NOT TO     NO SPECIAL MARK
000867: ???????                        XDSPFLAG           =        074D                                  #  BE INTERRUPTED        INFORMATION.
000868:
000869: ???????     4770               XDSPBIT            =        BIT1
000870:
000871: ???????     0101               FLAGWRD5           =        STATE      +5                         #  (075-099)
000872:
000873:                                                                                                  #  (SET)                 (RESET)
000874:
000875:                                                                                                  #                        BIT 15 FLAG 5
000876: ???????                        DSKYFLAG           =        075D                                  #  DISPLAYS SENT TO      NO DISPLAYS TO DSKY
000877:                                                                                                  #  DSKY
000878:
000879:
000880: ???????     4752               DSKYBIT            =        BIT15
000881:
000882:                                                                                                  #                        BIT 14 FLAG 5
000883: ???????                        RETROFLG           =        76D                                   #  P37 PREMANEUVER       ORBIT NOT RETROGRADE
000884: ???????     4753               RETROBIT           =        BIT14                                 #  ORBIT IS RETROGRADE
000885:
000886:                                                                                                  #                        BIT 13 FLAG 5
000887: ???????                        SLOWFLG            =        77D                                   #  P37 TRANSEARTH        SLOW DOWN IS NOT
000888: ???????     4754               SLOWBIT            =        BIT13                                 #  COAST SLOW DOWN       DESIRED
000889:                                                                                                  #  IS DESIRED
000890:
000891:                                                                                                  #                        BIT 12 FLAG 5
000892: ???????                        V59FLAG            =        078D                                  #  CALIBRATING FOR       NORMAL MARKING FOR
000893:                                                                                                  #  P 23                  P 23
000894:
000895: ???????     4755               V59FLBIT           =        BIT12
000896:
000897:                                                                                                  #                        BIT 11 FLAG 5
000898: ???????                        INCORFLG           =        079D                                  #  FIRST INCORPORATION   SECOND INCORPORATION
000899:
000900: ???????     4756               INCORBIT           =        BIT11
000901:
000902:                                                                                                  #                        BIT 10 FLAG 5
000903: ???????                        NEWTFLAG           =        80D                                   #  RETURN TO P29 SKIP-   NORMAL OPERATION
000904: ???????     4757               NEWTBIT            =        BIT10                                 #  PING LONGITUDE DIS-
000905:                                                                                                  #  PLAY
000906:
000907:                                                                                                  #                        BIT 9 FLAG 5
000908: ???????                        DMENFLG            =        081D                                  #  DIMENSION OF W IS 9   DIMENSION OF W IS 6
000909:                                                                                                  #  FOR INCORPORATION     FOR INCORPORATION


000911: ???????     4760               DMENFBIT           =        BIT9
000912:
000913:                                                                                                  #                        BIT 8 FLAG 5
000914: ???????                        COMPUTER           =        082D                                  #  COMPUTER IS CMC       COMPUTER IS LGC
000915:
000916: ???????     4761               COMPTBIT           =        BIT8
000917:
000918:                                                                                                  #                        BIT 7 FLAG 5
000919: ???????                        ENGONFLG           =        083D                                  #  ENGINE TURNED ON      ENGINE TURNED OFF
000920:
000921: ???????     4762               ENGONBIT           =        BIT7
000922:
000923:                                                                                                  #                        BIT 6 FLAG 5
000924: ???????                        3AXISFLG           =        084D                                  #  MANEUVER SPECIFIED    MANEUVER SPECIFIED
000925:                                                                                                  #  BY THREE AXES         BY ONE AXIS
000926:
000927: ???????     4763               3AXISBIT           =        BIT6
000928:
000929:                                                                                                  #                        BIT 5 FLAG 5
000930: ???????                        GRRBKFLG           =        085D                                  #  BACKUP GRR RECEIVED   BACKUP GRR NOT
000931:                                                                                                  #                        RECEIVED
000932:
000933: ???????     4764               GRRBKBIT           =        BIT5
000934:
000935:                                                                                                  #                        BIT 4 FLAG 5
000936:                                                                                                  #                =       086D
000937:
000938:
000939:                                                                                                  #                        BIT 3 FLAG 5
000940: ???????                        SOLNSW             =        87D                                   #  LAMBERT DOES NOT      LAMBERT CONVERGES OR
000941:                                                                                                  #  CONVERGE, OR TIME-    TIME-RADIUS NON
000942:                                                                                                  #  RADIUS NEARLY CIRC.   CIRCULAR.
000943:
000944:
000945: ???????     4766               SOLNSBIT           =        BIT3
000946:
000947:                                                                                                  #                        BIT 2 FLAG 5
000948: ???????                        MGLVFLAG           =        088D                                  #  LOCAL VERTICAL        MIDDLE GIMBAL ANGLE
000949:                                                                                                  #  COORDINATES           COMPUTED
000950:                                                                                                  #  COMPUTED
000951:
000952: ???????     4767               MGLVFBIT           =        BIT2
000953:
000954:                                                                                                  #                        BIT 1 FLAG 5
000955: ???????                        RENDWFLG           =        089D                                  #  W MATRIX VALID        W MATRIX INVALID
000956:                                                                                                  #  FOR RENDEZVOUS        FOR RENDEZVOUS
000957:                                                                                                  #  NAVIGATION            NAVIGATION
000958:
000959: ???????     4770               RENDWBIT           =        BIT1
000960:


000962:
000963: ???????     0102               FLAGWRD6           =        STATE      +6                         #  (090-104)
000964:
000965:                                                                                                  #  (SET)                 (RESET)
000966:
000967:                                                                                                  #                        BIT 15 FLAG 6
000968: ???????                        DAPBIT1            =        090D                                  #  1 SATURN 1 TVC        0 RCS   0 NO
000969:
000970:
000971: ???????     4752               DAP1BIT            =        BIT15
000972:
000973:                                                                                                  #                        BIT 14 FLAG 6
000974: ???????                        DAPBIT2            =        091D                                  #  1 A/P    0 A/P        1 A/P   0 A/P
000975:
000976: ???????     4753               DAP2BIT            =        BIT14
000977:
000978:                                                                                                  #                        BIT 13 FLAG 6
000979: ???????                        STRULLSW           =        92D                                   #  DO STEERULL           DO ULAGEOFF ONLY
000980:
000981: ???????     4754               STRULBIT           =        BIT13
000982:
000983:                                                                                                  #                        BIT 13 FLAG 6
000984: ???????  0000134               ENTRYDSP           =        STRULLSW                              #  DO ENTRY DISPLAY      OMIT ENTRY DISPLAY
000985:                                                                                                  #  VIA ENTRYVN.
000986:
000987: ???????     4754               ENDSPBIT           =        BIT13
000988:
000989:                                                                                                  #                        BIT 12 FLAG 6
000990: ???????                        CMDAPARM           =        093D                                  #  ALOW ENTRY FIRINGS    INHIBIT ENTRY FIRING
000991:                                                                                                  #  AND CALCULATIONS      AND CONTROL FUNCTION
000992: ???????     4755               CMARMBIT           =        BIT12
000993:
000994:                                                                                                  #                                DO NOT SHARE BIT12 WITH PROGRAMS USING SERVICER
000995:
000996:                                                                                                  #                        BIT 11 FLAG 6
000997: ???????                        GAMDIFSW           =        094D                                  #  CALCULATE GAMDOT      GAMDOT NOT TO BE
000998:                                                                                                  #                        CALCULATED
000999:
001000: ???????     4756               GMDIFBIT           =        BIT11
001001:
001002:                                                                                                  #                        BIT 10 FLAG 6
001003: ???????                        GONEPAST           =        095D                                  #  LATERAL CONTROL       LATERAL CONTROL
001004:                                                                                                  #  CALCULATIONS TO BE    CALCULATIONS TO BE
001005:                                                                                                  #  OMITTED               DONE
001006:
001007: ???????     4757               GONEBIT            =        BIT10
001008:
001009:                                                                                                  #                        BIT 9 FLAG 6
001010: ???????                        RELVELSW           =        096D                                  #  TARGETING USES        TARGETING USES
001011:                                                                                                  #  EARTH-RELATIVE        INERTIAL VELOCITY


001013:                                                                                                  #  VELOCITY
001014:
001015: ???????     4760               RELVBIT            =        BIT9
001016:
001017:                                                                                                  #                        BIT 8 FLAG 6
001018: ???????                        EGSW               =        097D                                  #  IN FINAL PHASE        NOT IN FINAL PHASE
001019:
001020: ???????     4761               EGFLGBIT           =        BIT8
001021:
001022:                                                                                                  #                        BIT 8 FLAG 6
001023: ???????  0000141               KNOWNFLG           =        EGSW                                  #  LANDMARK KNOWN        LANDMARK UNKNOWN
001024:
001025: ???????     4761               KNOWNBIT           =        BIT8
001026:
001027:                                                                                                  #                        BIT 7 FLAG 6
001028: ???????                        NOSWITCH           =        098D                                  #  LATERAL ROLL          LATERAL ROLL MANUVER
001029: ???????     4762               NOSWBIT            =        BIT7                                  #  MANUVER INHIBITED     PERMITED IN ENTRY
001030:                                                                                                  #  IN ENTRY
001031:
001032:
001033:                                                                                                  #                        BIT 6 FLAG 6
001034: ???????                        HIND               =        099D                                  #  ITERATING HUNTEST     ITERATING OF HUNTEST
001035:                                                                                                  #  CALCULATIONS TO BE    CALCULATIONS TO BE
001036:                                                                                                  #  DONE AFTER RANGE      OMITTED AFTER RANGE
001037:                                                                                                  #  PREDICTION            PREDICTION
001038:
001039: ???????     4763               HINDBIT            =        BIT6
001040:
001041:                                                                                                  #                        BIT 5 FLAG 6
001042: ???????                        INRLSW             =        100D                                  #  INITIAL ROLL          INITIAL ROLL
001043:                                                                                                  #  V(LV)                 V(LV)
001044:
001045: ???????     4764               INRLBIT            =        BIT5
001046:
001047:                                                                                                  #  ATTITUDE NOT HELD     ATTITUDE HELD
001048:
001049:                                                                                                  #                        BIT 4 FLAG 6
001050: ???????                        LATSW              =        101D                                  #  DOWNLIFT NOT          DOWNLIFT INHIBITED
001051:                                                                                                  #  INHIBITED
001052:
001053: ???????     4765               LATSWBIT           =        BIT4
001054:
001055:                                                                                                  #                        BIT 3 FLAG 6
001056: ???????                        .05GSW             =        102D                                  #  DRAG OVER .05G        DRAG LESS THAN .05G
001057:
001058: ???????     4766               .05GBIT            =        BIT3
001059:
001060:                                                                                                  #                                DO NOT SHARE BIT3 WITH PROGRAMS USING SERVICER
001061:
001062:                                                                                                  #                        BIT 2 FLAG 6


001064: ???????                        CM/DSTBY           =        103D                                  #  ENTRY DAP ACTIVATED   ENTRY DAP NOT
001065:                                                                                                  #                        ACTIVATED
001066:
001067: ???????     4767               CM/DSBIT           =        BIT2
001068:
001069:                                                                                                  #                                DO NOT SHARE BIT2  WITH PROGRAMS USING SERVICER
001070:
001071:                                                                                                  #                        BIT 1 FLAG 6
001072: ???????                        GYMDIFSW           =        104D                                  #  CDU DIFFERENCES AND   CDU DIFFERENCES AND
001073:                                                                                                  #  BODY RATES COMPUTED   BODY RATES NOT
001074:                                                                                                  #                        COMPUTED
001075:
001076: ???????     4770               GYMDIBIT           =        BIT1
001077:
001078: ???????     0103               FLAGWRD7           =        STATE      +7                         #  (105-119)
001079:
001080:                                                                                                  #  (SET)                 (RESET)
001081:
001082:                                                                                                  #                        BIT 15 FLAG 7
001083: ???????                        TERMIFLG           =        105D                                  #  TERMINATE R52         DO NOT TERMINATE R52
001084: ???????     4752               TERMIBIT           =        BIT15
001085:
001086:                                                                                                  #                        BIT 14 FLAG 7
001087: ???????                        ITSWICH            =        106D                                  #  ACCEPT NEXT LAMBERT   TEST LAMBERT ANSWER
001088:                                                                                                  #  TPI SEARCH SOLUTION   AGAINST LIMITS
001089:
001090: ???????     4753               ITSWBIT            =        BIT14
001091:
001092:                                                                                                  #                        BIT 13 FLAG 7
001093: ???????                        IGNFLAG            =        107D                                  #  TIG HAS ARRIVED       TIG HAS NOT ARRIVED
001094:
001095: ???????     4754               IGNFLBIT           =        BIT13
001096:
001097:                                                                                                  #                        BIT 12 FLAG 7
001098: ???????                        ASTNFLAG           =        108D                                  #  ASTRONAUT HAS         ASTRONAUT HAS NOT
001099:                                                                                                  #  OKAYED IGNITION       OKAYED IGNITION
001100:
001101: ???????     4755               ASTNBIT            =        BIT12
001102:
001103:                                                                                                  #                        BIT 11 FLAG 7
001104: ???????                        TIMRFLAG           =        109D                                  #  CLOKTASK OPERATING    CLOKTASK INOPERATIVE
001105:
001106: ???????     4756               TIMRBIT            =        BIT11
001107:
001108:                                                                                                  #                        BIT 10 FLAG 7
001109: ???????                        NORMSW             =        110D                                  #  UNIT NORMAL INPUT     LAMBERT COMPUTE ITS
001110:                                                                                                  #  TO LAMBERT.           OWN UNIT NORMAL.
001111:
001112:
001113: ???????     4757               NDRMSBIT           =        BIT10
001114:


001116:                                                                                                  #                        BIT 9 FLAG 7
001117: ???????                        RVSW               =        111D                                  #  DO NOT COMPUTE FINAL  COMPUTE FINAL STATE
001118:                                                                                                  #  STATE VECTOR IN       VECTOR IN TIME-THETA
001119:                                                                                                  #  TIME-THETA.
001120:
001121:
001122: ???????     4760               RVSWBIT            =        BIT9
001123:
001124:                                                                                                  #                        BIT 8 FLAG 7
001125: ???????                        GONEBY             =        112D                                  #  PASSED TARGET         APPROACHING TARGET
001126:
001127: ???????     4761               G0NBYBIT           =        BIT8
001128:
001129:                                                                                                  #                        BIT 7 FLAG 7
001130:                                                                                                  #                =       113D
001131:
001132:                                                                                                  #                        BIT 6 FLAG 7
001133: ???????                        V37FLAG            =        114D                                  #  AVERAGEG (SERVICER)   AVERAGEG (SERVICER)
001134:                                                                                                  #  RUNNING               OFF
001135:
001136: ???????     4763               V37FLBIT           =        BIT6
001137:
001138:                                                                                                  #                        BIT 5 FLAG 7
001139:                                                                                                  #                =       115D
001140:
001141:                                                                                                  #                        BIT 4 FLAG 7
001142: ???????                        UPLOCKFL           =        116D                                  #  K-KBAR-K FAIL         NO K-KBAR-K FAIL
001143:
001144: ???????     4765               UPLOCBIT           =        BIT4
001145:
001146:                                                                                                  #                        BIT 3 FLAG 7
001147: ???????                        VERIFLAG           =        117D                                  #  CHANGED WHEN V33E OCCURS AT END OF P27
001148:
001149: ???????     4766               VERIFBIT           =        BIT3
001150:
001151:                                                                                                  #                        BIT 2 FLAG 7
001152: ???????                        ATTCHFLG           =        118D                                  #  LM,CM ATTACHED        LM,CM NOT ATTACHED
001153:
001154: ???????     4767               ATTCHBIT           =        BIT2
001155:
001156:                                                                                                  #                        BIT 1 FLAG 7
001157: ???????                        TFFSW              =        119D                                  #  CALCULATE TPERIGEE    CALCULATE TFF
001158:
001159: ???????     4770               TFFSWBIT           =        BIT1
001160:
001161: ???????     0104               FLAGWRD8           =        STATE      +8D                        #  (120-134)
001162:
001163:                                                                                                  #  (SET)                 (RESET)
001164:
001165:                                                                                                  #                        BIT 15 FLAG 8


001167: ???????                        RPQFLAG            =        120D                                  #  RPQ NOT COMPUTED      RPQ COMPUTED
001168:
001169: ???????     4752               RPQFLBIT           =        BIT15
001170:
001171:                                                                                                  #                        BIT 14 FLAG 8
001172: ???????                        NEWLMFLG           =        121D                                  #  NEW LANDMARK COORD    OLD LANDMARK COORD
001173: ???????     4753               NEWLMBIT           =        BIT14
001174:
001175:                                                                                                  #                        BIT 13 FLAG 8
001176: ???????                        NEWIFLG            =        122D                                  #  FIRST PASS THROUGH    SUCCEEDING ITERATION
001177:                                                                                                  #  INTEGRATION           OF INTEGRATION
001178:
001179: ???????     4754               NEWIBIT            =        BIT13
001180:
001181:                                                                                                  #                        BIT 12 FLAG 8
001182: ???????                        CMOONFLG           =        123D                                  #  PERMANENT CSM STATE   PERMANENT CSM STATE
001183: ???????     4755               CMOONBIT           =        BIT12                                 #  IN LUNAR SPHERE       IN EARTH SPHERE
001184:
001185:                                                                                                  #                        BIT 11 FLAG 8
001186: ???????                        LMOONFLG           =        124D                                  #  PERMANENT LM  STATE   PERMANENT LM  STATE
001187: ???????     4756               LMOONBIT           =        BIT11                                 #  IN LUNAR SPHERE       IN EARTH SHPERE
001188:
001189:                                                                                                  #                        BIT 10 FLAG 8
001190: ???????                        ADVTRK             =        125D                                  #  ADVANCE GROUND TRACK  NOT ADVANCED
001191:                                                                                                  #  SIGHTING WANTED       GROUND TRACK
001192:
001193: ???????     4757               ADVTKBIT           =        BIT10
001194:
001195:                                                                                                  #                        BIT 9 FLAG 8
001196: ???????                        UTFLAG             =        126D                                  #  UNIVERSAL TRACKING    NO UNIVERSAL TRACKING
001197: ???????     4760               UTBIT              =        BIT9
001198:
001199:                                                                                                  #                        BIT 8 FLAG 8
001200: ???????                        SURFFLAG           =        127D                                  #  LM ON LUNAR SURFACE   LM NOT ON LUNAR
001201:                                                                                                  #                        SURFACE
001202:
001203: ???????     4761               SURFFBIT           =        BIT8
001204:
001205:                                                                                                  #                        BIT 7 FLAG 8
001206: ???????                        INFINFLG           =        128D                                  #  NO CONIC SOLUTION     CONIC SOLUTION
001207:                                                                                                  #  (CLOSURE THROUGH      EXISTS.
001208:                                                                                                  #  INFINITY REQUIRED).
001209:
001210: ???????     4762               INFINBIT           =        BIT7
001211:
001212:                                                                                                  #                        BIT 6 FLAG 8
001213: ???????                        ORDERSW            =        129D                                  #  ITERATOR USES 2ND     ITERATOR USES 1ST
001214:                                                                                                  #  ORDER MINIMUM MODE.   ORDER STANDARD MODE.


001216: ???????     4763               ORDERBIT           =        BIT6
001217:
001218:                                                                                                  #                        BIT 5 FLAG 8
001219: ???????                        APSESW             =        130D                                  #  RDESIRED OUTSIDE      RDESIRED INSIDE
001220:                                                                                                  #  PERICENTER-APOCENTER  PERICENTER-APOCENTE
001221:                                                                                                  #  RANGE IN TIME-RAD     RANGE IN TIME-RADIUS
001222:
001223:
001224: ???????     4764               APSESBIT           =        BIT5
001225:
001226:                                                                                                  #                        BIT 4 FLAG 8
001227: ???????                        COGAFLAG           =        131D                                  #  NO CONIC SOLUTION     CONIC SOLUTION
001228:                                                                                                  #  TOO CLOSE TO          EXISTS (COGA DOES
001229:                                                                                                  #  RECTILINEAR (COGA     NOT OVERFLOW).
001230:                                                                                                  #  OVERFLOWS).
001231:
001232:
001233: ???????     4765               COGAFBIT           =        BIT4
001234:
001235:                                                                                                  #                        BIT 3 FLAG 8
001236: ???????                        V96ONFLG           =        132D                                  #  P00 INTEGRATION HAS   P00 INTEGRATION IS
001237:                                                                                                  #  BEEN INHIBITED BY     PROCEEDING REGULARLY
001238: ???????     4766               V96ONBIT           =        BIT3                                  #  V96
001239:
001240:                                                                                                  #                        BIT 2 FLAG 8
001241: ???????                        R67FLAG            =        133D                                  #  R67 CALLING R60       NOT R67 CALLING R60
001242: ???????     4767               R67BIT             =        BIT2
001243:
001244:                                                                                                  #                        BIT 1 FLAG 8
001245: ???????                        360SW              =        134D                                  #  TRANSFER ANGLE NEAR   TRANSFER ANGLE NOT
001246:                                                                                                  #  360 DEGREES           NEAR 360 DEGREES
001247:
001248: ???????     4770               360SWBIT           =        BIT1
001249:
001250: ???????     0105               FLAGWRD9           =        STATE      +9D                        #  (135-149)
001251:
001252:                                                                                                  #  (SET)                 (RESET)
001253:                                                                                                  #                        BIT 15 FLAG 9
001254: ???????                        SWTOVER            =        135D                                  #  SWITCHOVER HAS        NO SWITCHOVER YET
001255:                                                                                                  #  OCCURRED
001256:
001257: ???????     4752               SWTOVBIT           =        BIT15
001258:
001259:                                                                                                  #                        BIT 14 FLAG 9
001260: ???????                        P24FLAG            =        136D                                  #  P24 RUNNING           P24 NOT RUNNING
001261: ???????     4753               P24BIT             =        BIT14
001262:
001263:                                                                                                  #                        BIT 13 FLAG 9
001264: ???????                        V82EMFLG           =        137D                                  #  MOON VICINITY         EARTH VICINITY
001265:


001267: ???????     4754               V82EMBIT           =        BIT13
001268:
001269:                                                                                                  #                        BIT 12 FLAG 9
001270: ???????                        MAXDBFLG           =        138D                                  #  MAX DB SELECTED       MIN DB SELECTED
001271:
001272:
001273: ???????     4755               MAXDBBIT           =        BIT12
001274:
001275:                                                                                                  #                        BIT 11 FLAG 9
001276: ???????                        V94FLAG            =        139D                                  #  V94 ALLOWED DURING    V94 NOT ALLOWED
001277:                                                                                                  #  P23
001278:
001279: ???????     4756               V94FLBIT           =        BIT11
001280:
001281:                                                                                                  #                        BIT 10 FLAG 9
001282: ???????                        SAVECFLG           =        140D                                  #  P23 DISPLAY AND       P23 DISPLAY AND
001283:                                                                                                  #  DATA STORAGE AFTER    DATA STORAGE BEFORE
001284:                                                                                                  #  MARK IS DONE          MARK IS DONE
001285:
001286: ???????     4757               SAVECBIT           =        BIT10
001287:
001288:                                                                                                  #                        BIT 9 FLAG 9
001289: ???????                        VHFRFLAG           =        141D                                  #  ALLOW R22 TO          STOP ACCEPTANCE
001290:                                                                                                  #  ACCEPT RANGE          OF RANGE DATA
001291:                                                                                                  #  DATA
001292:
001293: ???????     4760               VHFRBIT            =        BIT9
001294:
001295:                                                                                                  #                        BIT 8 FLAG 9
001296: ???????                        SOURCFLG           =        142D                                  #  SOURCE OF INPUT       SOURCE OF INPUT
001297:                                                                                                  #  DATA IS FROM          DATA IS FROM
001298:                                                                                                  #  VHF RADAR             OPTICS MARK
001299:
001300: ???????     4761               SOURCBIT           =        BIT8
001301:
001302:                                                                                                  #                        BIT 7 FLAG 9
001303: ???????                        R22CAFLG           =        143D                                  #  R22 IS PROCESSING     R22 IS NOT PROCESSING
001304:                                                                                                  #  AN OPTICS MARK        AN OPTICS MARK
001305:
001306: ???????     4762               R22CABIT           =        BIT7
001307:
001308:                                                                                                  #                        BIT 6 FLAG 9
001309: ???????                        N22ORN17           =        144D                                  #  COMPUTE TOTAL         COMPUTE TOTAL
001310:                                                                                                  #  ATTITUDE ERRORS       ATTITUDE ERRORS
001311:                                                                                                  #  WRT N22 (V62)         WRT N17 (V63)
001312:
001313: ???????     4763               N2217BIT           =        BIT6
001314:
001315:                                                                                                  #                        BIT 5 FLAG 9
001316: ???????                        QUITFLAG           =        145D                                  #  TERMINATE AND EXIT    CONTINUE INTEGRATION


001318: ???????     4764               QUITBIT            =        BIT5                                  #  FROM INTEGRATION
001319:
001320:                                                                                                  #                        BIT 4 FLAG 9
001321: ???????                        R31FLAG            =        146D                                  #  R31 SELECTED (V83)    R34 SELECTED (V85)
001322:
001323: ???????     4765               R31FLBIT           =        BIT4
001324:
001325:                                                                                                  #                        BIT 3 FLAG 9
001326: ???????                        MID1FLAG           =        147D                                  #  INTEGRATE TO TDEC     INTEGRATE TO THE
001327:                                                                                                  #                        THEN-PRESENT TIME
001328:
001329: ???????     4766               MID1FBIT           =        BIT3
001330:
001331:                                                                                                  #                        BIT 2 FLAG 9
001332: ???????                        MIDAVFLG           =        148D                                  #  INTEGRATION ENTERED   INTEGRATION WAS
001333:                                                                                                  #  FROM ONE OF MIDTOAV   NOT ENTERED VIA
001334:                                                                                                  #  PORTALS               MIDTOAV
001335:
001336: ???????     4767               MIDAVBIT           =        BIT2
001337:
001338:                                                                                                  #                        BIT 1 FLAG 9
001339: ???????                        AVEMIDSW           =        149D                                  #  AVETOMID CALLING      NO AVETOMID W INTEGR
001340:                                                                                                  #  FOR W.MATRIX INTEGR   ALLOW SET UP RN,VN,
001341:                                                                                                  #  DONT WRITE OVER RN,   PIPTIME
001342:                                                                                                  #  VN,PIPTIME
001343:
001344: ???????     4770               AVEMDBIT           =        BIT1
001345:
001346:                                                                                                  #  (SET)                 (RESET)
001347:
001348: ???????     0106               FLGWRD10           =        STATE      +10D                       #  (150-164)
001349:
001350:
001351:                                                                                                  #                        BIT 15 FLAG 10
001352: ???????                        PCMANFLG           =        150D                                  #  P20 MANEUVER          NOT P20 PC
001353:                                                                                                  #  AT PLANE CHANGE       MANEUVER
001354: ???????     4752               PCMANBIT           =        BIT15
001355:
001356:                                                                                                  #                        BIT 14 FLAG 10
001357: ???????                        INTFLAG            =        151D                                  #  INTEGRATION IN        INTEGRATION NOT IN
001358:                                                                                                  #  PROGRESS              PROGRESS
001359:
001360: ???????     4753               INTFLBIT           =        BIT14
001361:
001362:                                                                                                  #                        BIT 13 FLAG 10
001363: ???????                        REINTFLG           =        152D                                  #  INTEGRATION ROUTINE   INTEGRATION ROUTINE
001364:                                                                                                  #  TO BE RESTARTED       NOT TO BE RESTARTED
001365: ???????     4754               REINTBIT           =        BIT13
001366:


001368:                                                                                                  #                        BIT 12 FLAG 10
001369: ???????                        REJCTFLG           =        153D                                  #  MARK TO BE REJECTED   NO MARK REJECT BY
001370:                                                                                                  #  IN R22                R22
001371: ???????     4755               REJCTBIT           =        BIT12
001372:
001373:
001374:                                                                                                  #                        BIT 11 FLAG 10
001375: ???????                        HDSUPFLG           =        154D
001376: ???????     4756               HDSUPBIT           =        BIT11                                 #  HEADS UP ATTITUDE     HEADS DOWN ATTITUDE
001377:
001378:
001379:                                                                                                  #                        BIT 10 FLAG 10
001380: ???????                        BURNFLAG           =        155D                                  #  CSM DID BURN          LM DID BURN
001381: ???????     4757               BURNBIT            =        BIT10
001382:
001383:                                                                                                  #                        BIT 9 FLAG 10
001384: ???????                        RANGFLAG           =        156D                                  #  RANGE < 328 N.M       RANGE > 328 N.M.
001385: ???????     4760               RANGBIT            =        BIT9
001386:
001387:                                                                                                  #                        BIT 8 FLAG 10
001388: ???????                        P35FLAG            =        157D                                  #  MCC TARGETING DONE    NOT YET MCC
001389: ???????     4761               P35BIT             =        BIT8
001390:
001391:                                                                                                  #                        BIT 7 FLAG 10
001392: ???????                        AUTOSEQ            =        158D                                  #  AUTOMATIC RENDEZVOUS  AUTOMATIC RENDEZ-
001393:
001394:                                                                                                  #  SEQUENCE IS RUNNING   VOUS NOT RUNNING
001395: ???????     4762               AUTSQBIT           =        BIT7
001396:
001397:                                                                                                  #                        BIT 6 FLAG 10
001398: ???????                                           =        159D
001399:                                                                                                  #                        BIT 5 FLAG 10
001400: ???????                        MANEUFLG           =        160D                                  #  MANEUVER,P76,         MARK INCORPORATED
001401:                                                                                                  #  OR PLANNED MANEUVER
001402: ???????     4764               MANEUBIT           =        BIT5
001403:
001404:                                                                                                  #                        BIT 4 FLAG 10
001405: ???????                        PTV93FLG           =        161D                                  #  V93 TO BE DONE        MANEUVER AND
001406:                                                                                                  #  AFTER MANEUVER        V93 DONE
001407: ???????     4765               PTV93BIT           =        BIT4
001408:
001409:                                                                                                  #                        BIT 3 FLAG 10
001410: ???????                        TPIMNFLG           =        162D                                  #  TPI MANEUVER HAS
001411:                                                                                                  #  BEEN DONE
001412: ???????     4766               TPIMNBIT           =        BIT3
001413:
001414:                                                                                                  #                        BIT 2 FLAG 10
001415: ???????                        FULTKFLG           =        163D                                  #  ONLY OPTICS OR VHF    OPTICS AND VHF
001416:                                                                                                  #  MARKS BEING TAKEN     MARKS TAKEN
001417: ???????     4767               FULTKBIT           =        BIT2
001418:


001420:                                                                                                  #                        BIT 1 FLAG 10
001421: ???????                        PCFLAG             =        164D                                  #  PLANE CHANGE          NOT PLANE CHANGE
001422:                                                                                                  #  TARGETTING
001423: ???????     4770               PCBIT              =        BIT1
001424: ???????     0107               FLGWRD11           =        STATE      +11D                       #  (165-179)
001425:
001426:                                                                                                  #  (SET)                 (RESET)
001427:
001428:                                                                                                  #                        BIT 15 FLAG 11
001429: ???????                        S32.1F1            =        165D                                  #  DELTAN AT CSI TIME    DVT1 LESS THAN MAX
001430: ???????     4752               S32BIT1            =        BIT15                                 #  ONE EXCEEDS MAX
001431:
001432:                                                                                                  #                        BIT 14 FLAG 11
001433: ???????                        S32.1F2            =        166D                                  #  FIRST PASS OF         REITERATION OF
001434: ???????     4753               S32BIT2            =        BIT14                                 #  NEWTON INTERATION     NEWTON
001435:
001436:                                                                                                  #                        BIT 13 FLAG 11
001437: ???????                        S32.1F3A           =        167D                                  #  BIT 13 AND BIT 12 FUNCTION AS AN ORDERED
001438: ???????     4754               S32BIT3A           =        BIT13                                 #  PAIR (13,12) INDICATING THE POSSIBLE OC-
001439:                                                                                                  #  CURRENCE OF 2NEWTON ITERATIONS FOR S32.1
001440:                                                                                                  #                        BIT 12 FLAG 11    IN THE PROGRAM IN THE FOLLOWING ORDER:
001441: ???????                        S32.1F3B           =        168D                                  #  (0,1) (I.E.BIT 13 RESET, BIT 12 SET)
001442: ???????     4755               S3229T3B           =        BIT12                                 #       = FIRST NEWTON ITERATION BEING DONE
001443:                                                                                                  #  (0,0)= FIRST PASS OF 2ND NEWTON ITER.
001444:                                                                                                  #  (1,1)= 50 FPS STAGE OF 2ND NEWT ITER.
001445:                                                                                                  #  (1,0)= REMAINDER OF 2ND NEWTON ITER.
001446:
001447:                                                                                                  #                        BIT 11 FLAG 11
001448:                                                                                                  #                =       169D
001449:
001450:                                                                                                  #                        BIT 10 FLAG 11
001451:                                                                                                  #                =       170D
001452:
001453:                                                                                                  #                        BIT 9 FLAG 11
001454:                                                                                                  #                =       171D
001455:
001456:                                                                                                  #                        BIT 8 FLAG 11
001457: ???????                        AZIMFLAG           =        172D                                  #  3-AXIS UT             VECPOINT UT
001458: ???????     4761               AZIMBIT            =        BIT8
001459:
001460:                                                                                                  #                        BIT 7 FLAG 11
001461: ???????                        HAFLAG             =        173D                                  #  HEIGHT ADJUST         NOT HEIGHT ADJUST
001462: ???????     4762               HABIT              =        BIT7                                  #  MANEUVER PROG
001463:
001464:                                                                                                  #                        BIT 6 FLAG 11
001465: ???????                        CSISFLAG           =        174D                                  #  MULTIPLE CSI S        NOT MULTIPLE CSI
001466:
001467:
001468:                                                                                                  #  REQUESTED
001469: ???????     4763               CSISBIT            =        BIT6
001470:


001472:                                                                                                  #                        BIT 5 FLAG 11
001473:                                                                                                  #                =       175D
001474:
001475:                                                                                                  #                        BIT 4 FLAG 11
001476:                                                                                                  #                =       176D
001477:
001478:                                                                                                  #                        BIT 3 FLAG 11
001479:                                                                                                  #                =       177D
001480:
001481:                                                                                                  #                        BIT 2 FLAG 11
001482:                                                                                                  #                =       178D
001483:
001484:                                                                                                  #                        BIT 1 FLAG 11
001485:                                                                                                  #                =       179D
001486:


001488:                                                                                                  #  GENERAL ERASABLE ASSIGNMENTS.
001489:
001490:    0061                                           SETLOC   61
001491:                                                                                                  #        INTERRUPT TEMPORARY STORAGE POOL.  (11D)
001492:                                                                                                  #          (ITEMP1 THROUGH RUPTREG4)
001493:
001494:                                                                                                  #        ANY OF THESE MAY BE USED AS TEMPORARIES DURING INTERRUPT OR WITH INTERRUPT INHIBITED. THE ITEMP SERIES
001495:                                                                                                  #  IS USED DURING CALLS TO THE EXECUTIVE AND WAITLIST - THE RUPTREGS ARE NOT.
001496:
001497:    0061                        ITEMP1             ERASE
001498:    0062     0061               WAITEXIT           EQUALS   ITEMP1
001499:    0062     0061               EXECTEM1           EQUALS   ITEMP1
001500:
001501:    0062                        ITEMP2             ERASE
001502:    0063     0062               WAITBANK           EQUALS   ITEMP2
001503:    0063     0062               EXECTEM2           EQUALS   ITEMP2
001504:
001505:    0063                        ITEMP3             ERASE
001506:    0064     0063               WAITADR            EQUALS   ITEMP3
001507:    0064     0063               NEWPRIO            EQUALS   ITEMP3
001508:
001509:    0064                        ITEMP4             ERASE
001510:    0065     0064               LOCCTR             EQUALS   ITEMP4
001511:    0065     0064               WAITTEMP           EQUALS   ITEMP4
001512:
001513:    0065                        ITEMP5             ERASE
001514:    0066     0065               NEWLOC             EQUALS   ITEMP5
001515:
001516:    0066                        ITEMP6             ERASE
001517:                                                                                                  #  NEWLOC+1      EQUALS  ITEMP6          DP ADDRESS.
001518:
001519:    0067                                           SETLOC   67
001520:    0067                        NEWJOB             ERASE                                          #  MUST BE AT LOC 67 DUE TO WIRING.
001521:
001522:    0070                        RUPTREG1           ERASE
001523:    0071                        RUPTREG2           ERASE
001524:    0072                        RUPTREG3           ERASE
001525:    0073                        RUPTREG4           ERASE
001526:    0074     0073               KEYTEMP1           EQUALS   RUPTREG4
001527:    0074     0073               DSRUPTEM           EQUALS   RUPTREG4
001528:
001529:                                                                                                  #        FLAGWORD RESERVATIONS.                                          (12D)
001530:
001531:    0074                        STATE              ERASE    +11D
001532:
001533:                                                                                                  #        UNSWITCHED DAP ERASABLE.                                        (4D)
001534:    0110                        T6LOC              ERASE
001535:    0111                        T6ADR              ERASE


001537:    0112                        T5LOC              ERASE    +1
001538:
001539:
001540:                                                                                                  #        EXEC TEMPORARIES WHICH MAY BE USED BETWEEN CCS NEWJOBS.
001541:                                                                                                  #        (INTB15+ THROUGH RUPTMXM)                                       (32D)
001542:
001543:    0114                        INTB15+            ERASE                                          #  REFLECTS 15TH BIT OF INDEXABLE ADDRESSES
001544:    0115     0114               DSEXIT             EQUALS   INTB15+                               #  RETURN FOR DSPIN
001545:    0115     0114               EXITEM             EQUALS   INTB15+                               #  RETURN FOR SCALE FACTOR ROUTINE SELECT
001546:    0115                        INTBIT15           ERASE                                          #  SIMILAR TO ABOVE.
001547:    0116     0115               WDRET              EQUALS   INTBIT15                              #  RETURN FOR DSPWD
001548:    0116     0115               DECRET             EQUALS   INTBIT15                              #  RETURN FOR PUTCOM(DEC LOAD)
001549:    0116     0115               21/22REG           EQUALS   INTBIT15                              #  TEMP FOR CHARIN
001550:
001551:                                                                                                  #  THE REGISTERS BETWEEN ADDRWD AND PRIORITY MUST STAY IN THE FOLLOWING ORDER FOR INTERPRETIVE TRACE.
001552:
001553:    0116                        ADDRWD             ERASE                                          #  12 BIT INTERPRETIVE OPERAND SUB-ADDRESS.
001554:    0117                        POLISH             ERASE                                          #  HOLDS CADR MADE FROM POLISH ADDRESS.
001555:    0120     0117               UPDATRET           EQUALS   POLISH                                #  RETURN FOR UPDATNN, UPDATVB
001556:    0120     0117               CHAR               EQUALS   POLISH                                #  TEMP FOR CHARIN
001557:    0120     0117               ERCNT              EQUALS   POLISH                                #  COUNTER FOR ERROR LIGHT RESET
001558:    0120     0117               DECOUNT            EQUALS   POLISH                                #  COUNTER FOR SCALING AND DISPLAY (DEC)
001559:
001560:    0120                        FIXLOC             ERASE                                          #  WORK AREA ADDRESS.
001561:    0121                        OVFIND             ERASE                                          #  SET NON-ZERO ON OVERFLOW.
001562:
001563:    0122                        VBUF               ERASE    +5                                    #  TEMPORARY STORAGE USED FOR VECTORS.
001564:    0130     0122               SGNON              EQUALS   VBUF                                  #  TEMP FOR +,- ON
001565:    0130     0122               NOUNTEM            EQUALS   VBUF                                  #  COUNTER FOR MIXNOUN FETCH
001566:    0130     0122               DISTEM             EQUALS   VBUF                                  #  COUNTER FOR OCTAL DISPLAY VERBS
001567:    0130     0122               DECTEM             EQUALS   VBUF                                  #  COUNTER FOR FETCH (DEC DISPLAY VERBS)
001568:
001569:    0130     0123               SGNOFF             EQUALS   VBUF       +1                         #  TEMP FOR +,- ON
001570:    0130     0123               NVTEMP             EQUALS   VBUF       +1                         #  TEMP FOR NVSUB
001571:    0130     0123               SFTEMP1            EQUALS   VBUF       +1                         #  STORAGE FOR SF CONST HI PART(=SFTEMP2-1)
001572:    0130     0123               HITEMIN            EQUALS   VBUF       +1                         #  TEMP FOR LOAD OF HRS, MIN, SEC
001573:                                                                                                  #        MUST = LOTEMIN-1.
001574:    0130     0124               CODE               EQUALS   VBUF       +2                         #  FOR DSPIN
001575:    0130     0124               SFTEMP2            EQUALS   VBUF       +2                         #  STORAGE FOR SF CONST LO PART(=SFTEMP1+1)
001576:    0130     0124               LOTEMIN            EQUALS   VBUF       +2                         #  TEMP FOR LOAD OF HRS, MIN, SEC
001577:                                                                                                  #        MUST = HITEMIN+1.
001578:    0130     0125               MIXTEMP            EQUALS   VBUF       +3                         #  FOR MIXNOUN DATA
001579:                                                                                                  #  ALSO MIXTEMP+1 = VBUF+4, MIXTEMP+2 = VBUF+5.
001580:
001581:    0130                        BUF                ERASE    +2                                    #  TEMPORARY SCALAR STORAGE.
001582:    0133                        BUF2               ERASE    +1
001583:    0135     0130               INDEXLOC           EQUALS   BUF                                   #  CONTAINS ADDRESS OF SPECIFIED INDEX.
001584:    0135     0130               SWWORD             EQUALS   BUF                                   #  ADDRESS OF SWITCH WORD.
001585:    0135     0131               SWBIT              EQUALS   BUF        +1                         #  SWITCH BIT WITHIN SWITCH WORD.
001586:    0135                        MPTEMP             ERASE                                          #  TEMPORARY USED IN MULTIPLY AND SHIFT.


001588:    0136                        DOTINC             ERASE                                          #  COMPONENT INCREMENT FOR DOT SUBROUTINE.
001589:    0137     0136               DVSIGN             EQUALS   DOTINC                                #  DETERMINES SIGN OF DDV RESULT.
001590:    0137     0136               ESCAPE             EQUALS   DOTINC                                #  USED IN ARCSIN/ARCCOS.
001591:    0137     0136               ENTRET             EQUALS   DOTINC                                #  EXIT FROM ENTER
001592:
001593:    0137     0136               ENTEXIT            =        ENTRET
001594:
001595:    0137                        DOTRET             ERASE                                          #  RETURN FROM DOT SUBROUTINE.
001596:    0140     0137               DVNORMCT           EQUALS   DOTRET                                #  DIVIDEND NORMALIZATION COUNT IN DDV.
001597:    0140     0137               ESCAPE2            EQUALS   DOTRET                                #  ALTERNATE ARCSIN/ARCCOS SWITCH.
001598:    0140     0137               WDCNT              EQUALS   DOTRET                                #  CHAR COUNTER FOR DSPWD
001599:    0140     0137               INREL              EQUALS   DOTRET                                #  INPUT BUFFER SELECTOR ( X,Y,Z, REG )
001600:
001601:    0140                        MATINC             ERASE                                          #  VECTOR INCREMENT IN MXV AND VXM.
001602:    0141     0140               MAXDVSW            EQUALS   MATINC                                #  +0 IF DP QUOTIENT IS NEAR ONE - ELSE -1.
001603:    0141     0140               POLYCNT            EQUALS   MATINC                                #  POLYNOMIAL LOOP COUNTER
001604:    0141     0140               DSPMMTEM           EQUALS   MATINC                                #  DSPCOUNT SAVE FOR DSPMM
001605:    0141     0140               MIXBR              EQUALS   MATINC                                #  INDICATOR FOR MIXED OR NORMAL NOUN
001606:
001607:    0141                        TEM1               ERASE                                          #  EXEC TEMP
001608:    0142     0141               POLYRET            EQUALS   TEM1
001609:    0142     0141               DSREL              EQUALS   TEM1                                  #  REL ADDRESS FOR DSPIN
001610:
001611:    0142                        TEM2               ERASE                                          #  EXEC TEMP
001612:    0143     0142               DSMAG              EQUALS   TEM2                                  #  MAGNITUDE STORE FOR DSPIN
001613:    0143                        TEM3               ERASE                                          #  EXEC TEMP
001614:    0144     0143               COUNT              EQUALS   TEM3                                  #  FOR DSPIN
001615:
001616:    0144                        TEM4               ERASE                                          #  EXEC TEMP
001617:    0145     0144               RELRET             EQUALS   TEM4                                  #  RETURN FOR RELDSP
001618:    0145     0144               DSPWDRET           EQUALS   TEM4                                  #  RETURN FOR DSPSIGN
001619:    0145     0144               SEPSCRET           EQUALS   TEM4                                  #  RETURN FOR SEPSEC
001620:    0145     0144               SEPMNRET           EQUALS   TEM4                                  #  RETURN FOR SEPMIN
001621:
001622:    0145                        TEM5               ERASE                                          #  EXEC TEMP
001623:    0146     0145               NOUNADD            EQUALS   TEM5                                  #  TEMP STORAGE FOR NOUN ADDRESS
001624:
001625:    0146                        NNADTEM            ERASE                                          #  TEMP FOR NOUN ADDRESS TABLE ENTRY
001626:    0147                        NNTYPTEM           ERASE                                          #  TEMP FOR NOUN TYPE TABLE ENTRY
001627:    0150                        IDAD1TEM           ERASE                                          #  TEMP FOR INDIR ADRESS TABLE ENTRY(MIXNN)
001628:                                                                                                  #  MUST = IDAD2TEM-1, = IDAD3TEM-2.
001629:    0151                        IDAD2TEM           ERASE                                          #  TEMP FOR INDIR ADRESS TABLE ENTRY(MIXNN)
001630:                                                                                                  #  MUST = IDAD1TEM+1, = IDAD3TEM-1.
001631:    0152                        IDAD3TEM           ERASE                                          #  TEMP FOR INDIR ADRESS TABLE ENTRY(MIXNN)
001632:                                                                                                  #  MUST = IDAD1TEM+2, = IDAD2TEM+1.
001633:    0153                        RUTMXTEM           ERASE                                          #  TEMP FOR SF ROUT TABLE ENTRY(MIXNN ONLY)
001634:
001635:                                                                                                  #        AX*SR*T STORAGE.                                                (6D)
001636:    0154     0142               DEXDEX             EQUALS   TEM2                                  #  B(1)TMP


001638:    0154     0143               DEX1               EQUALS   TEM3                                  #  B(1)TMP
001639:    0154     0144               DEX2               EQUALS   TEM4                                  #  B(1)TMP
001640:    0154     0145               RTNSAVER           EQUALS   TEM5                                  #  B(1)TMP
001641:    0154     0133               TERM1TMP           EQUALS   BUF2                                  #  B(2)TMP
001642:
001643:    0154     0143               DEXI               =        DEX1
001644:


001646:                                                                                                  #        DYNAMICALLY ALLOCATED CORE SETS FOR JOBS.                       (84D)
001647:
001648:    0154                        MPAC               ERASE    +6                                    #  MULTI-PURPOSE ACCUMULATOR.
001649:    0163                        MODE               ERASE                                          #  +1 FOR TP, +0 FOR DP, OR -1 FOR VECTOR.
001650:    0164                        LOC                ERASE                                          #  LOCATION ASSOCIATED WITH JOB.
001651:    0165                        BANKSET            ERASE                                          #  USUALLY CONTAINS BBANK SETTING.
001652:    0166                        PUSHLOC            ERASE                                          #  WORD OF PACKED INTERPRETIVE PARAMETERS.
001653:    0167                        PRIORITY           ERASE                                          #  PRIORITY OF PRESENT JOB AND WORK AREA.
001654:
001655:    0170                                           ERASE    +71D                                  #  SEVEN SETS OF 12 REGISTERS EACH.
001656:
001657:                                                                                                  #        SPECIAL DOWNLINK BUFFER.-OVERLAYED BY P27 STORAGE-
001658:
001659:                                                                                                  #        P27(UPDATE PROGRAM) STORAGE. -OVERLAYS SPEC DNLNK BUFF-         (24D)
001660:
001661:    0300                        COMPNUMB           ERASE    +23D                                  #  B(1)TMP NUMBER OF ITEMS TO BE UPLINKED.
001662:    0330     0301               UPOLDMOD           EQUALS   COMPNUMB   +1                         #  B(1)TMP HOLDS INTERRUPTED PROGRAM NUMBER
001663:    0330     0302               UPVERB             EQUALS   UPOLDMOD   +1                         #  B(1)TMP VERB NUMBER
001664:    0330     0303               UPCOUNT            EQUALS   UPVERB     +1                         #  B(1)TMP UPBUFF INDEX
001665:    0330     0304               UPBUFF             EQUALS   UPCOUNT    +1                         #  B(20D)
001666:
001667:                                                                                                  #        MORE P27 STORAGE.                                               (2D)
001668:
001669:    0330                        UPTEMP             ERASE                                          #  B(1)TMP SCRATCH
001670:    0331                        UPVERBSV           ERASE                                          #  B(1)TMP
001671:
001672:
001673:                                                                                                  #        ENTRY DOWNLINK STORAGE
001674:
001675:                                                                                                  #                (20 REGISTERS OF ENTRY DOWNLINK WILL GO HERE.)
001676:
001677:                                                                                                  #                                                        THE FOLLOWING ARE INDEXED FOR TM. IN ENTRY DAP.
001678:
001679:    0332     0304               CMTMTIME           =        UPBUFF                                #  B(1) (VEHICLE BODY RATE INFO IS
001680:    0332     0305               SW/NDX             =        CMTMTIME   +1                         #  B(1)  TELEMETERED EACH 0.2 SEC. DURING
001681:    0332     0324               ENDBUF             =        CMTMTIME   +16D                       #  B(1)  ENTRY.)
001682:
001683:    0332     0325               V1                 =        ENDBUF     +1                         #  I(2) REENTRY, P64-P65
001684:    0332     0327               A0                 =        V1         +2                         #  I(2) REENTRY, P64-P65
001685:                                                                                                  #  HI-ORDER WORD ONLY ON DNLNK.
001686:
001687:                                                                                                  #        ALIGNMENT STORAGE.                                              (5D)
001688:                                                                                                  #        (CANNOT SHARE WITH PRECISION INTEGRATION OR KEPLER STORAGE.)
001689:
001690:    0332     0300               QMAJ               EQUALS   COMPNUMB                              #  B(1)TMP
001691:    0332     0301               MARKINDX           EQUALS   QMAJ       +1                         #  B(1)TMP
001692:    0332     0302               BESTI              EQUALS   MARKINDX   +1                         #  I(1)TMP
001693:    0332     0303               BESTJ              EQUALS   BESTI      +1                         #  I(1)TMP
001694:    0332     0304               STARIND            EQUALS   BESTJ      +1                         #  I(1)TMP
001695:


001697:                                                                                                  #        ALIGNMENT/S40.2,3 COMMON STORAGE.                               (18D)
001698:
001699:    0332     0306               XSMD               EQUALS   UPBUFF     +2                         #  I(6)TMP
001700:    0332     0314               YSMD               EQUALS   XSMD       +6                         #  I(6)TMP
001701:    0332     0322               ZSMD               EQUALS   YSMD       +6                         #  I(6)TMP
001702:
001703:    0332     0306               XSCREF             =        XSMD                                  #        SPACE CRAFT AXES IN REF COORDS.
001704:    0332     0314               YSCREF             =        YSMD
001705:    0332     0322               ZSCREF             =        ZSMD
001706:
001707:
001708:                                                                                                  #        ALIGNMENT TEMPS IN VAC
001709:
001710:    0332                        ZPRIME             =        22D
001711:    0332                        PDA                =        22D
001712:    0332                        COSTH              =        16D
001713:    0332                        SINTH              =        18D
001714:    0332                        THETA              =        20D
001715:    0332                        STARM              =        32D
001716:
001717:                                                                                                  #  R52 AUTO-OPTICS (1)
001718:
001719:    0332     0330               PACTEMP            EQUALS   ZSMD       +6D                        #  B(1)TMP
001720:
001721:                                                                                                  #        DOWNLINK STORAGE.                                               (17D)
001722:
001723:    0332     0332               DNLSTADR           EQUALS   DNLSTCOD                              #  CONTENTS NO LONGER AN ADDR BUT A CODE
001724:
001725:    0332                        DNLSTCOD           ERASE                                          #  B(1)PRM ID CODE OF DOWNLIST
001726:    0333                        CTLIST             ERASE
001727:    0334                        DNTMGOTO           ERASE                                          #  B(1)
001728:    0335                        TMINDEX            ERASE                                          #  B(1)
001729:    0336     0335               DNECADR            EQUALS   TMINDEX                               #  B(1) ADDRESS OF CURRENT DNLST WORD
001730:    0336     0335               DUMPLOC            EQUALS   TMINDEX                               #  CONTAINS ECADR OF AGC DP WORD BEING DUMP
001731:                                                                                                  #  ED AND COUNT OF COMPLETE DUMPS ALREADY S
001732:                                                                                                  #  ENT.
001733:    0336                        SUBLIST            ERASE                                          #  B(1)
001734:    0337                        DNTMBUFF           ERASE    +11D                                  #  B(12) PRM DOWNLINK SNAPSHOT BUFFER
001735:
001736:
001737:
001738:                                                                                                  #        OPTICS MARKING . UNSHARED.                                      (8D)
001739:
001740:    0353                        MKNDX              ERASE
001741:    0354                        MKT2T1             ERASE    +1
001742:    0356                        MKCDUY             ERASE
001743:    0357                        MKCDUS             ERASE
001744:    0360                        MKCDUZ             ERASE


001746:    0361                        MKCDUT             ERASE
001747:    0362                        MKCDUX             ERASE
001748:
001749:
001750:
001751:                                                                                                  #        R52 TIME SAVE STORAGE                                           (2)
001752:    0363                        AOPOLD             ERASE    +1
001753:
001754:
001755:                                                                                                  #        UNSWITCHED FOR DISPLAY INTERFACE ROUTINES.                      (7D)
001756:
001757:    0365                        RESTREG            ERASE                                          #  B(1)PRM FOR DISPLAY RESTARTS
001758:    0366                        NVWORD             ERASE
001759:    0367                        MARKNV             ERASE
001760:    0370                        NVSAVE             ERASE                                          #   PURPOSES)
001761:    0371                        CADRFLSH           ERASE                                          #  B(1)TMP
001762:    0372                        CADRMARK           ERASE                                          #  B(1)TMP
001763:    0373                        TEMPFLSH           ERASE                                          #  B(1)TMP
001764:
001765:
001766:                                                                                                  #  CHANNEL FAIL REGISTER                                                 (1D)
001767:
001768:    0374                        C31FLWRD           ERASE                                          #  B(1)PRM
001769:
001770:
001771:                                                                                                  #  C31FLWRD HAS THE FOLLOWING OCTAL FORMAT AXXBX WHERE A + B HAVE THE FOLLOWING INTERPRETATION. IF THE ASTRONAUT
001772:                                                                                                  #  DESIRES TO BYPASS THE CHANNEL REPRESENTATION, HE SHOULD LOAD C31FLWRD   VIA V21 N01 TO THE VALUES SHOWN IN THE
001773:                                                                                                  #  FOLLOWING TABLES:
001774:
001775:                                                                                                  #     A VALUE      MEANING FOR CHANNEL 31                                     B VALUE      MEANING FOR CHANNEL 33
001776:
001777:                                                                                                  #     0 OR 4       BITS 15,14, + 13 OF CHANNEL 31 ARE VALID                   0 OR 4       BITS 4 + 5 OF CHANNEL 33
001778:                                                                                                  #     1            G&N CONTROL FREE                                           1 OR 5       OPTICS MODE CMC
001779:                                                                                                  #     2            G&N CONTROL ATT. HOLD                                      2 OR 6       OPTICS MODE ZERO
001780:                                                                                                  #     3            G&N CONTROL AUTO                                           3 OR 7       OPTICS MODE MANUAL
001781:                                                                                                  #     5            SCS CONTROL FREE
001782:                                                                                                  #     6            SCS CONTROL ATT. HOLD
001783:                                                                                                  #     7            SCS CONTROL AUTO
001784:
001785:
001786:                                                                                                  #  ALARM REGISTERS                                                       (3D)
001787:
001788:    0375                        FAILREG            ERASE    +2                                    #  B(3)PRM ALARM ABORT CODES
001789:
001790:    0400                                           SETLOC   400
001791:                                                                                                  #  VAC AREAS. -BE CAREFUL OF PLACEMENT-                                  (220D)
001792:
001793:    0400                        VAC1USE            ERASE                                          #  B(1)PRM
001794:    0401                        VAC1               ERASE    +42D                                  #  B(43)PRM


001796:    0454                        VAC2USE            ERASE                                          #  B(1)PRM
001797:    0455                        VAC2               ERASE    +42D                                  #  B(43)PRM
001798:    0530                        VAC3USE            ERASE                                          #  B(1)PRM
001799:    0531                        VAC3               ERASE    +42D                                  #  B(43)PRM
001800:    0604                        VAC4USE            ERASE                                          #  B(1)PRM
001801:    0605                        VAC4               ERASE    +42D                                  #  B(43)PRM
001802:    0660                        VAC5USE            ERASE                                          #  B(1)PRM
001803:    0661                        VAC5               ERASE    +42D                                  #  B(43)PRM
001804:
001805:
001806:                                                                                                  #        TEMP STORAGE FOR RESTARTS ROUTINE -- STARTS AT VAC5 + 19D
001807:
001808:    0734     0705               GOLOC              EQUALS   VAC5       +20D                       #  B(4) GOLOC -1 THRU GOLOC +2 USED
001809:                                                                                                  #     TO SET EXEC AND WTLST CALL
001810:
001811:                                                                                                  #        V82, V90 STORAGE        (1D)
001812:
001813:    0734                        VEHRET             ERASE
001814:
001815:                                                                                                  #        P24-RATE AIDED OPTICS (PAD LOAD)*****                           (3D)
001816:
001817:
001818:    0735                        TRATE              ERASE
001819:    0736                        SRATE              ERASE
001820:    0737                        NO.PASS            ERASE
001821:
001822:
001823:                                                                                                  #        P24-RATE AIDED OPTICS UNSHARED ERASABLES                        (2D)
001824:
001825:    0740                        TOLD               ERASE
001826:    0741                        SOLD               ERASE
001827:
001828:
001829:
001830:                                                                                                  #        SINGLE PRECISION SUBROUTINE TEMPORARIES.                        (2D)
001831:
001832:                                                                                                  #                                                                        SPSIN, SPCOS VARIABLES
001833:
001834:                                                                                                  #                                                                DO NOT SHARE. THESE ARE USED BY DAPS IN INTERRUPT
001835:                                                                                                  #                                                                AND CURRENTLY ARE NOT PROTECTED. IF OTHER USERS
001836:                                                                                                  #                                                                MATERIALIZE, THEN THIS CAN BE CHANGED.
001837:
001838:    0742                        TEMK               ERASE
001839:    0743                        SQ                 ERASE
001840:


001842:                                                                                                  #        UNSWITCHED FOR ORBIT INTEGRATION.                               (21D)
001843:
001844:    0744                        TDEC               ERASE    +20D                                  #  I(2)
001845:    0771     0746               LAT                EQUALS   TDEC       +2                         #  I(2)DSP NOUN 43,67 FOR P20,22,51,R52,53.
001846:    0771     0746               LANDLAT            =        LAT                                   #          NOUN 89    FOR P22.
001847:    0771     0750               LONG               EQUALS   LAT        +2                         #  I(2)DSP NOUN 43,67 FOR P20,22,51 R52,53.
001848:    0771     0752               ALT                EQUALS   LONG       +2                         #  I(2)DSP NOUN 43    FOR P20,22,51 R52,53.
001849:    0771     0754               YV                 EQUALS   ALT        +2                         #  I(6)
001850:    0771     0762               ZV                 EQUALS   YV         +6                         #  I(6)
001851:    0771     0770               COLREG             EQUALS   ZV         +6                         #  I(1)
001852:
001853:
001854:
001855:                                                                                                  #        MARK STORAGE.                                                   (2)
001856:
001857:    0771                        VHFCNT             ERASE                                          #  B(1) PRM NO. OF VHF MARKS(P20(R22)).
001858:    0772                        TRKMKCNT           ERASE                                          #  B(1) PRM NO. OF VHF MARKS (P20(R22)).
001859:
001860:                                                                                                  #        P24 STORAGE                                                     (1D)
001861:
001862:    0773     0771               RATETEMP           EQUALS   VHFCNT                                #  B(1) TMP
001863:
001864:                                                                                                  #        MISCELLANEOUS UNSWITCHED.                                       (15D)
001865:
001866:    0773                        IRETURN1           ERASE                                          #  B(1)  RET ADDR USED BY MIDTOAV1 AND 2
001867:                                                                                                  #  CALLED BY P40,P41,P42,  P61,P62
001868:    0774                        RATEINDX           ERASE                                          #   (1)    USED BY KALCMANU
001869:    0775                        OPTION1            ERASE                                          #  B(1)   NOUN 06 USES THIS
001870:    0776                        OPTION2            ERASE                                          #  B(1)   NOUN 06 USES THIS
001871:    0777                        NVWORD1            ERASE                                          #  B(1)
001872:    1000                        DELAYLOC           ERASE    +3
001873:    1004                        TEMPR60            ERASE                                          #  B(1)
001874:    1005                        PRIOTIME           ERASE                                          #  B(1)
001875:    1006                        TIME2SAV           ERASE    +1                                    #  B(2)TMP
001876:    1010                        SCALSAVE           ERASE    +1                                    #  B(2)TMP
001877:                                                                                                  #        P20, CONICS   (SHARING WITH TIME 2 SAVE AND SCAL SAV ONLY)      (3D)
001878:
001879:    1012     1006               POINTEX            EQUALS   TIME2SAV                              #  I(1) POINT AXS EXIT
001880:    1012     1007               VHFTIME            EQUALS   POINTEX    +1                         #  I(2) DOWNLINK OF VHF RANGE TIME +1M
001881:
001882:
001883:
001884:                                                                                                  #        MINKEY RENDEZVOUS                                               (1D)
001885:
001886:    1012                        AUTPOINT           ERASE                                          #  B(1) CONTROLLER RETURN
001887:


001889:
001890:                                                                                                  #        CRS61.1 STORAGE.  -USED IN R63 (VERB 89)-                       (3D)
001891:
001892:    1013                        CPHIX              ERASE    +2                                    #  B(3)DSP NOUN 95 CALCULATED BY CRS61.1
001893:
001894:
001895:
001896:                                                                                                  #        NOUN 26 ERASABLES                                               (3D)
001897:
001898:    1016                        N26/PRI            ERASE                                          #  B(1D)  PRIO/TIME DELAY
001899:    1017                        N26/2CAD           ERASE    +1                                    #  B(2D)  2CADR OF JOB/TASK
001900:
001901:
001902:                                                                                                  #  DOWNLINK TIME OF EVENT
001903:
001904:    1021                        TEVENT             ERASE    +1                                    #  B(2)     TIME OF EVENT FOR DOWNLIST
001905:    1023     1021               TLIFTOFF           =        TEVENT
001906:
001907:                                                                                                  #        P34-P35 STORAGE                                                 (1D)
001908:    1023                        NORMEX             ERASE
001909:
001910:
001911:
001912:                                                                                                  #        R57 STORAGE. -MUST BE UNSHARED EXCEPT IN BOOST OR ENTRY-        (1D)
001913:
001914:    1024                        TRUNBIAS           ERASE                                          #  B(1)PRM RESULT OF R57 CALIBR OF TRUNION
001915:
001916:
001917:
001918:                                                                                                  #        KEPLER STORAGE                                                  (2D)
001919:
001920:    1025                        EPSILONT           ERASE    +1                                    #  I(2) TMP
001921:
001922:
001923:
001924:                                                                                                  #        PERM STATE VECTORS FOR BOOST AND DOWNLINK -WHOLE MISSION-       (14D)
001925:
001926:    1027                        RN                 ERASE    +5                                    #  B(6)PRM
001927:    1035                        VN                 ERASE    +5                                    #  B(6)PRM
001928:    1043                        PIPTIME            ERASE    +1                                    #  B(2)PRM (MUST BE FOLLOWED BY GDT/2)
001929:
001930:
001931:                                                                                                  #        SERVICER STORAGE.                                               (45D)
001932:
001933:                                                                                                  #        (SERVICER STORAGE AND P11 STORAGE IN UNSWITHCHED SHOULD NOT
001934:                                                                                                  #        OVERLAY EACH OTHER AND THE TOTAL ERASABLE REQUIRED SHOULD NOT
001935:                                                                                                  #        EXCEED THE ERASABLE STORAGE REQUIRED BY RENDEZVOUS GUIDANCE)
001936:
001937:    1045     1045               GDT/2              EQUALS   PIPTIME    +2                         #  B(6)TMP       (MUST FOLLOW PIPTIME)


001939:    1045     1053               GOBL/2             EQUALS   GDT/2      +6                         #  B(6)TMP
001940:    1045     1061               AVEGEXIT           EQUALS   GOBL/2     +6                         #  B(2)TMP
001941:    1045     1061               AVGEXIT            =        AVEGEXIT
001942:    1045     1063               TEMX               EQUALS   AVEGEXIT   +2                         #  B(1)TMP
001943:    1045     1064               TEMY               EQUALS   TEMX       +1                         #  B(1)TMP
001944:    1045     1065               TEMZ               EQUALS   TEMY       +1                         #  B(1)TMP
001945:    1045     1066               PIPCTR             EQUALS   TEMZ       +1                         #  B(1)TMP
001946:    1045     1067               PIPAGE             EQUALS   PIPCTR     +1                         #  B(1)TMP
001947:
001948:
001949:    1045     1070               RN1                EQUALS   PIPAGE     +1                         #  B(6)TMP
001950:    1045     1076               VN1                EQUALS   RN1        +6                         #  B(6)TMP
001951:    1045     1104               PIPTIME1           EQUALS   VN1        +6                         #  B(2)TMP
001952:    1045     1106               GDT1/2             EQUALS   PIPTIME1   +2                         #  B(6)TMP
001953:    1045     1114               GOBL1/2            EQUALS   GDT1/2     +6                         #  B(6)TMP
001954:
001955:                                                                                                  #        ENTRY STORAGE.                                                  (1D)
001956:
001957:    1045     1122               ENTRYVN            EQUALS   GOBL1/2    +6                         #  B(1)TMP VN CODE FOR ENTRY DISPLAYS P60S.
001958:
001959:
001960:
001961:                                                                                                  #        RENDEZVOUS NAVIGATION STORAGE.(SEE COMMENT IN SERVICER STORAGE) (56D)
001962:
001963:    1045                        CSMPOS             ERASE    +55D                                  #  I(6)TMP
001964:    1135     1053               LEMPOS             EQUALS   CSMPOS     +6                         #  I(6)TMP
001965:    1135     1061               MARKTIME           EQUALS   LEMPOS     +6                         #  B(2) TEMP MUST PRECEDE VTEMP FOR GENTRAN
001966:    1135     1063               VTEMP              EQUALS   MARKTIME   +2                         #  B(6)TMP
001967:    1135     1071               UM                 EQUALS   VTEMP      +6                         #  I(6)TMP
001968:    1135     1077               MARKDATA           EQUALS   UM         +6                         #  B(2)TMP
001969:    1135     1101               USTAR              EQUALS   MARKDATA   +2                         #  I(6)TMP
001970:    1135     1107               WIXA               EQUALS   USTAR      +6                         #  B(1)TMP
001971:    1135     1110               WIXB               EQUALS   WIXA       +1                         #  B(1)TMP
001972:    1135     1111               ZIXA               EQUALS   WIXB       +1                         #  B(1)TMP
001973:    1135     1112               ZIXB               EQUALS   ZIXA       +1                         #  B(1)TMP
001974:    1135     1113               DELTAX             EQUALS   ZIXB       +1                         #  I(18)TMP
001975:
001976:    1135     1113               VHFRANGE           EQUALS   DELTAX                                #   (2)
001977:    1135     1127               UCL                EQUALS   DELTAX     +12D                       #   (6)     LM-CSM LINE OF SIGHT 1/2 UNIT V
001978:
001979:
001980:                                                                                                  #        P22 TEMPORARIES
001981:
001982:    1135     1053               S22UOFF            EQUALS   LEMPOS                                #  I(6)TMP  UM OFFSET
001983:    1135     1053               9DWXX              EQUALS   LEMPOS                                #  I(1)TMP QSAVE REGISTER
001984:    1135     1113               S22UUT             EQUALS   DELTAX                                #  I(18)
001985:


001987:
001988:                                                                                                  #        MINKEY RENDEZVOUS *** (1D)
001989:
001990:    1135     1113               TEMPMM             EQUALS   DELTAX                                #  B(1) MAJOR MODE DURING P20 STARTUP
001991:
001992:
001993:                                                                                                  #        USED FOR SUMMATION OF UPRUPT DURING PRELAUNCH & SYS TEST LEADIN (3D)
001994:
001995:    1135     1116               UPSUM              EQUALS   EBUF2      +2                         #  (3)
001996:
001997:
001998:                                                                                                  #        PRELAUNCH ERASABLE PROGRAM ENTRANCE                             (2D)
001999:
002000:    1135     1114               EBUF2              EQUALS   GOBL1/2                               #  (2)
002001:
002002:
002003:                                                                                                  #        FOR STALL ROUTINE FOR VHF RADAR
002004:
002005:
002006:    1135     1063               RADTIME            EQUALS   VTEMP                                 #  B(1)
002007:    1135     1064               RADDEL             EQUALS   RADTIME    +1                         #  B(1)
002008:
002009:
002010:                                                                                                  #        P11 STORAGE.                                                    (9D)
002011:
002012:    1135     1126               LIFTTEMP           EQUALS   UCL        -1                         #  (2)TMP
002013:    1135     1130               TEPHEM1            EQUALS   LIFTTEMP   +2                         #   (3)TMP
002014:    1135     1133               PGNCSALT           EQUALS   TEPHEM1    +3                         #   (2)PL  ALTITUDE
002015:    1135     1135               PADLONG            EQUALS   PGNCSALT   +2                         #  (2)PL LONGITUDE F LAUNCH PAD
002016:
002017:
002018:                                                                                                  #     **** CONICSEX (MEAS INC) ****                                      (6D)
002019:
002020:    1135     1113               TRIPA              EQUALS   DELTAX
002021:    1135     1116               TEMPVAR            EQUALS   DELTAX     +3
002022:
002023:
002024:
002025:                                                                                                  #        P24   RATE AIDED OPTICS
002026:
002027:    1135     1131               PASSCNT            EQUALS   TEPHEM1    +1                         #  B(1)
002028:
002029:
002030:                                                                                                  #        P20-P22 PROCESSING STORAGE                                      (2D)
002031:
002032:    1135                        TEMPOR1            ERASE    +1                                    #  B(2)TMP
002033:
002034:
002035:                                                                                                  #        WAITLIST REPEAT FLAG.                                           (1D)
002036:
002037:    1137                        RUPTAGN            ERASE                                          #  B(1)PRM


002039:    1140     1137               KEYTEMP2           =        RUPTAGN
002040:
002041:
002042:                                                                                                  #        STARALIGN ERASABLES.                                            (13D)
002043:
002044:    1140                        STARCODE           ERASE                                          #  B(1)DSP NOUN 70 FOR P22,51 AND R52,53.
002045:    1141                        STARALGN           ERASE    +11D
002046:    1155     1141               SINCDU             =        STARALGN
002047:    1155     1147               COSCDU             =        STARALGN   +6
002048:
002049:    1155     1145               SINCDUX            =        SINCDU     +4
002050:    1155     1141               SINCDUY            =        SINCDU
002051:    1155     1143               SINCDUZ            =        SINCDU     +2
002052:    1155     1153               COSCDUX            =        COSCDU     +4
002053:    1155     1147               COSCDUY            =        COSCDU
002054:    1155     1151               COSCDUZ            =        COSCDU     +2
002055:
002056:
002057:                                                                                                  #        PHASE TABLE AND RESTART COUNTERS.                               (12D)
002058:
002059:    1155                        -PHASE1            ERASE                                          #  B(1)PRM
002060:    1156                        PHASE1             ERASE                                          #  B(1)PRM
002061:    1157                        -PHASE2            ERASE                                          #  B(1)PRM
002062:    1160                        PHASE2             ERASE                                          #  B(1)PRM
002063:    1161                        -PHASE3            ERASE                                          #  B(1)PRM
002064:    1162                        PHASE3             ERASE                                          #  B(1)PRM
002065:    1163                        -PHASE4            ERASE                                          #  B(1)PRM
002066:    1164                        PHASE4             ERASE                                          #  B(1)PRM
002067:    1165                        -PHASE5            ERASE                                          #  B(1)PRM
002068:    1166                        PHASE5             ERASE                                          #  B(1)PRM
002069:    1167                        -PHASE6            ERASE                                          #  B(1)PRM
002070:    1170                        PHASE6             ERASE                                          #  B(1)PRM
002071:
002072:
002073:                                                                                                  #        AX*SR*T STORAGE.                                                (6D)
002074:
002075:    1171                        CDUSPOT            ERASE    +5                                    #  B(6)
002076:
002077:    1177     1171               CDUSPOTY           =        CDUSPOT
002078:    1177     1173               CDUSPOTZ           =        CDUSPOT    +2
002079:    1177     1175               CDUSPOTX           =        CDUSPOT    +4
002080:
002081:
002082:                                                                                                  #        VERB 37 STORAGE.                                                (2D)
002083:
002084:    1177                        MINDEX             ERASE                                          #  B(1)TMP  INDEX FOR MAJOR MODE
002085:    1200                        MMNUMBER           ERASE                                          #  B(1)TMP  MAJOR MODE REQUESTED VIA V37
002086:
002087:
002088:                                                                                                  #        PINBALL INTERRUPT STORAGE.                                      (1D)
002089:


002091:    1201                        DSPCNT             ERASE                                          #  B(1)PRM DSPOUT COUNTER
002092:
002093:
002094:                                                                                                  #        PINBALL EXECUTIVE ACTION.                                       (44D)
002095:
002096:    1202                        DSPCOUNT           ERASE                                          #  DISPLAY POSITION INDICATOR
002097:    1203                        DECBRNCH           ERASE                                          #  +DEC, - DEC, OCT INDICATOR
002098:    1204                        VERBREG            ERASE                                          #  VERB CODE
002099:    1205                        NOUNREG            ERASE                                          #  NOUN CODE
002100:    1206                        XREG               ERASE                                          #  R1 INPUT BUFFER
002101:    1207                        YREG               ERASE                                          #  R2 INPUT BUFFER
002102:    1210                        ZREG               ERASE                                          #  R3 INPUT BUFFER
002103:    1211                        XREGLP             ERASE                                          #  LO PART OF XREG (FOR DEC CONV ONLY)
002104:    1212                        YREGLP             ERASE                                          #  LO PART OF YREG (FOR DEC CONV ONLY)
002105:    1213     1212               HITEMOUT           =        YREGLP                                #  TEMP FOR DISPLAY OF HRS, MIN, SEC
002106:                                                                                                  #        MUST = LOTEMOUT-1.
002107:    1213                        ZREGLP             ERASE                                          #  LO PART OF ZREG (FOR DEC CONV ONLY)
002108:    1214     1213               LOTEMOUT           =        ZREGLP                                #  TEMP FOR DISPLAY OF HRS, MIN, SEC
002109:                                                                                                  #        MUST = HITEMOUT+1.
002110:    1214                        MODREG             ERASE                                          #  MODE CODE
002111:    1215                        DSPLOCK            ERASE                                          #  KEYBOARD/SUBROUTINE CALL INTERLOCK
002112:    1216                        REQRET             ERASE                                          #  RETURN REGISTER FOR LOAD
002113:    1217                        LOADSTAT           ERASE                                          #  STATUS INDICATOR FOR LOADTST
002114:    1220                        CLPASS             ERASE                                          #  PASS INDICATOR CLEAR
002115:    1221                        NOUT               ERASE                                          #  ACTIVITY COUNTER FOR DSPTAB
002116:    1222                        NOUNCADR           ERASE                                          #  MACHINE CADR FOR NOUN
002117:    1223                        MONSAVE            ERASE                                          #  N/V CODE FOR MONITOR. (= MONSAVE1-1)
002118:    1224                        MONSAVE1           ERASE                                          #  NOUNCADR FOR MONITOR(MATBS) =MONSAVE +1
002119:    1225                        MONSAVE2           ERASE                                          #  B(1)PRM NVMONOPT OPTIONS
002120:    1226                        DSPTAB             ERASE    +11D                                  #  0-10D, DISPLAY PANEL BUFF. 11D, C/S LTS.
002121:    1242                        NVQTEM             ERASE                                          #  NVSUB STORAGE FOR CALLING ADDRESS
002122:                                                                                                  #  MUST = NVBNKTEM-1
002123:    1243                        NVBNKTEM           ERASE                                          #  NVSUB STORAGE FOR CALLING BANK
002124:                                                                                                  #  MUST = NVQTEM+1
002125:    1244                        VERBSAVE           ERASE                                          #  NEEDED FOR RECYCLE
002126:    1245                        CADRSTOR           ERASE                                          #  ENDIDLE STORAGE
002127:    1246                        DSPLIST            ERASE                                          #  WAITING REG FOR DSP SYST INTERNAL USE
002128:    1247                        EXTVBACT           ERASE                                          #  EXTENDED VERB ACTIVITY INTERLOCK
002129:    1250                        DSPTEM1            ERASE    +2                                    #  BUFFER STORAGE AREA 1 (MOSTLY FOR TIME)
002130:    1253                        DSPTEM2            ERASE    +2                                    #  BUFFER STORAGE AREA 2 (MOSTLY FOR DEG)
002131:
002132:
002133:    1256     1254               DSPTEMX            EQUALS   DSPTEM2    +1                         #  B(2) S-S DISPLAY BUFFER FOR EXT. VERBS.
002134:    1256     1250               NORMTEM1           EQUALS   DSPTEM1                               #  B(3)DSP NORMAL DISPLAY REGISTERS.
002135:
002136:
002137:
002138:                                                                                                  #        DISPLAY FOR EXTENDED VERBS                                      (2D)
002139:
002140:    1256     1255               OPTIONX            EQUALS   DSPTEMX    +1                         #  B(2) EXT VB OPTION CODE


002142:    1256                        OPTIONEV           ERASE
002143:
002144:
002145:
002146:                                                                                                  #        TBASE S AND PHSPRDT S.                                          (12D)
002147:
002148:    1257                        TBASE1             ERASE                                          #  B(1)PRM
002149:    1260                        PHSPRDT1           ERASE                                          #  B(1)PRM
002150:    1261                        TBASE2             ERASE                                          #  B(1)PRM
002151:    1262                        PHSPRDT2           ERASE                                          #  B(1)PRM
002152:    1263                        TBASE3             ERASE                                          #  B(1)PRM
002153:    1264                        PHSPRDT3           ERASE                                          #  B(1)PRM
002154:    1265                        TBASE4             ERASE                                          #  B(1)PRM
002155:    1266                        PHSPRDT4           ERASE                                          #  B(1)PRM
002156:    1267                        TBASE5             ERASE                                          #  B(1)PRM
002157:    1270                        PHSPRDT5           ERASE                                          #  B(1)PRM
002158:    1271                        TBASE6             ERASE                                          #  B(1)PRM
002159:    1272                        PHSPRDT6           ERASE                                          #  B(1)PRM
002160:
002161:
002162:                                                                                                  #  V37 TEMP STORAGE                                                      (2D)
002163:    1273     1264               MMTEMP             EQUALS   PHSPRDT3                              #  B(1)TMP
002164:    1273     1265               BASETEMP           EQUALS   TBASE4                                #  B(1)TMP
002165:
002166:                                                                                                  #        MORE UNSWITCHED FOR DISPLAY INF                                 (4D)
002167:
002168:    1273                        EBANKSAV           ERASE
002169:    1274     1273               DSPFLG             =        EBANKSAV
002170:    1274                        MARKFLAG           ERASE
002171:    1275                        EBANKTEM           ERASE
002172:    1276                        MARK2PAC           ERASE
002173:
002174:
002175:                                                                                                  #  MISCELLANEOUS UNSWITCHED                                              (19D)
002176:    1277                        1/PIPADT           ERASE                                          #  B(1)PRM
002177:    1300     1277               OLDBT1             =        1/PIPADT
002178:
002179:    1300                        LONGCADR           ERASE    +1                                    #  B(2)    LONGCALL REGISTER
002180:    1302                        LONGBASE           ERASE    +1                                    #  B(2)    LONGCALL REGISTER
002181:    1304                        LONGTIME           ERASE    +1                                    #  B(2)    LONGCALL REGISTER
002182:
002183:
002184:
002185:                                                                                                  #        MISC. INCLUDING RESTART COUNTER, GIMBAL ANGLE  SAVE  AND
002186:                                                                                                  #        STANDBY VERB ERASABLES. REDOCTR BEFORE THETAD (DWNLNK)
002187:
002188:    1306                        REDOCTR            ERASE                                          #  B(1)PRM CONTAINS NUMBER OF RESTARTS.
002189:    1307                        THETAD             ERASE    +2                                    #  B(3)PRM DESIRED GIM ANGLES FOR MANEUVER.
002190:    1312     1307               CPHI               =        THETAD                                #          (OUTER)


002192:    1312     1310               CTHETA             =        THETAD     +1                         #          (INNER)
002193:    1312     1311               CPSI               =        THETAD     +2                         #          (MIDDLE)
002194:
002195:                                                                                                  #        ENTRY VARIABLES SHARED FOR TM.                                  (4D)
002196:
002197:    1312     1307               RDOTREF            =        THETAD                                #  I(2)    P65
002198:    1312     1311               VREF               =        RDOTREF    +2                         #  I(2)    P65   HI-ORDER WORD ONLY DNLNK'D
002199:    1312                        DESOPTT            ERASE                                          #  B(1)DSP NOUN 92 FOR P20,22,52, R52.
002200:    1313                        DESOPTS            ERASE                                          #  B(1)DSP NOUN 92 FOR P20,22,52, R52.
002201:
002202:    1314                        DELV               ERASE    +5                                    #  I(6)
002203:    1322     1314               DELVX              =        DELV
002204:    1322     1316               DELVY              =        DELV       +2
002205:    1322     1320               DELVZ              =        DELV       +4
002206:
002207:
002208:                                                                                                  #        T4RUPT ERASABLE.                                                (6D)
002209:
002210:    1322                        DSRUPTSW           ERASE
002211:    1323                        OPTIND             ERASE
002212:    1324                        LGYRO              ERASE
002213:    1325                        COMMANDO           ERASE    +1
002214:    1327                        ZONE               ERASE                                          #  B(1)PRM USED IN SHAFT STOP MONITOR
002215:
002216:
002217:                                                                                                  #        MODE SWITCHING ERASABLE.                                        (09D)
002218:
002219:    1330                        DESOPMOD           ERASE                                          #  B(1)PRM
002220:    1331                        WTOPTION           ERASE                                          #  B(1)PRM
002221:    1332                        ZOPTCNT            ERASE                                          #  B(1)PRM
002222:
002223:
002224:    1333                        IMODES30           ERASE                                          #  B(1)PRM
002225:    1334     4752               TLIMBIT            =        BIT15                                 #  IMU TEMP NOT          IMU TEMP WITHIN
002226:                                                                                                  #  WITHIN LIMITS         LIMITS
002227:
002228:    1334     4753               TONISSBT           =        BIT14                                 #  ISS OFF               ISS ON
002229:
002230:    1334     4754               IMUFLBIT           =        BIT13                                 #  IMU OK                IMU FAIL IS ON
002231:
002232:    1334     4755               ICDUFLBT           =        BIT12                                 #  IMU CDU OK            IMU CDU FAIL IS ON
002233:
002234:    1334     4756               CAGEBIT            =        BIT11                                 #  IMU CAGE NOT ON       IMU CAGE ON
002235:
002236:    1334     4757               PIPAFLBT           =        BIT10                                 #  PIPA OK               PIPA FAIL IS ON
002237:
002238:    1334     4760               IMUOPBIT           =        BIT9                                  #  IMU OFF OR NOT OK     IMU ON AND OK
002239:
002240:    1334     4761               ITNON2BT           =        BIT8                                  #  IMU TURN ON DELAYED   IMU TURN ON ALLOWED
002241:


002243:    1334     4762               ITNON1BT           =        BIT7                                  #  IMU TURN ON DELAYED   IMU TURN ON ALLOWED
002244:
002245:    1334     4763               IMUNITBT           =        BIT6                                  #  IMU INIT IN PROCESS   IMU NOT BEING INIT.
002246:
002247:    1334     4764               NOACCALM           =        BIT5                                  #  INHIBIT PIPA ALARM    ALLOW PIPA ALARM
002248:
002249:    1334     4765               IMUFINHT           =        BIT4                                  #  INHIBIT IMU WARNING   ALLOW IMU WARNING
002250:
002251:    1334     4766               ICDUINHT           =        BIT3                                  #  INHIBIT CDU WARNING   ALLOW CDU WARNING
002252:
002253:    1334     4767               DLAYFAIL           =        BIT2                                  #  TURNON DELAY FAIL     TURN DELAY OK
002254:
002255:    1334     4770               ACCFINHT           =        BIT1                                  #  INHIBIT PIPA          ALLOW PIPA WARNING
002256:                                                                                                  #          WARNING
002257:
002258:    1334                        IMODES33           ERASE                                          #  B(1)PRM
002259:    1335     4753               PROCDBIT           =        BIT14                                 #  PROCEED OFF           PROCEED ON
002260:
002261:    1335     4754               PIP2FLBT           =        BIT13                                 #  PIPA OK               PIPA FAIL IS ON
002262:
002263:    1335     4755               DNLKFAIL           =        BIT12                                 #  DOWNLINK OK           DOWNLINK FAIL
002264:
002265:    1335     4756               UPLKFAIL           =        BIT11                                 #  UPLINK OK             UPLINK TOO FAST
002266:
002267:    1335     4763               NOIMUDAP           =        BIT6                                  #  DONT USE IMU FOR      OK TO USE IMU FOR
002268:                                                                                                  #   VEHICLE ATTITUDE        VEHICLE ATTITUDE
002269:
002270:    1335     4764               IMUZROBT           =        BIT5                                  #  IMU ZEROING           IMU NOT ZEROING
002271:
002272:    1335     4770               LMPTSTBT           =        BIT1                                  #  LAMP TEST REQUESTED   LAMP TEST NOT ON
002273:
002274:
002275:    1335                        MODECADR           ERASE    +1                                    #  B(2)TMP
002276:    1337     1335               IMUCADR            =        MODECADR
002277:    1337     1336               OPTCADR            =        MODECADR   +1
002278:
002279:    1337                        OPTMODES           ERASE                                          #  B(1)PRM *****MUST PRECEDE HOLDFLAG
002280:                                                                                                  #                FOR DOWNLINK
002281:    1340     4757               ZROPTFIN           =        BIT10                                 #  OPTICS ZERO FINISH    OPTICS BEING ZEROED
002282:
002283:    1340     4762               OCDUFBIT           =        BIT7                                  #  OPTICS CDU OK         OPTICS CDU FAIL
002284:
002285:    1340     4764               OPMD1BIT           =        BIT5                                  #  OPTICS MODE NOT SET   OPTICS MODE SET TO
002286:                                                                                                  #  TO COMPUTER CONTROL     COMPUTER CONTROL
002287:
002288:    1340     4765               OPMD2BIT           =        BIT4                                  #  OPTICS MODE NOT SET   OPTICS MODE SET TO
002289:                                                                                                  #    TO ZERO OPTICS        ZERO OPTICS
002290:
002291:    1340     4766               ZOPTCS             =        BIT3                                  #  OPTICS MODE           OPTICS MODE NOT


002293:                                                                                                  #  SWITCHED TO ZERO      SWITCHED TO ZERO
002294:                                                                                                  #  OPTICS                OPTICS
002295:
002296:    1340     4767               OCDUINHT           =        BIT2                                  #  INHIBIT TRACKER       ALLOW TRACKER ALARM
002297:                                                                                                  #   ALARM
002298:
002299:    1340                        HOLDFLAG           ERASE                                          #  B(1)PRM  **** MUST FOLLOW OPTMODES
002300:                                                                                                  #                FOR DOWNLINK
002301:
002302:
002303:
002304:                                                                                                  #        ERASABLE FOR SXTMARK CDU CHECK DELAY.  -PAD LOADED-             (1D)
002305:
002306:    1341                        CDUCHKWD           ERASE                                          #  B(1) PL
002307:
002308:                                                                                                  #        P37    **RETURN TO EARTH  (PAD LOAD) ****                       (2D)
002309:
002310:    1342                        RTED1              ERASE    +1                                    #  I(2)PL VGAMMA POLY COEF               B-3
002311:
002312:                                                                                                  #        P40    ***STEERING ROUTINE*** PAD LOAD                          (1D)
002313:
002314:    1344                        DVTHRESH           ERASE                                          #  I(1)PL  DELTA V THRESHOLD FOR LOW THRUST
002315:                                                                                                  #          ROUTINE                       B-2
002316:
002317:                                                                                                  #        P23    ***PAD LOAD****                                          (2D)
002318:
002319:    1345                        HORIZALT           ERASE    +1                                    #  I(2)PL  HORIZION ALTITUDE          M B-29
002320:
002321:                                                                                                  #        P-20       ALTERNATE LOS VARIANCE     PAD LOAD*****             (1D)
002322:                                                                                                  #                                  -16
002323:    1347                        ALTVAR             ERASE                                          #  I(2)PL MILLARD. SQUARED SCALED 2
002324:
002325:
002326:                                                                                                  #        PAD LOADED FOR DAP                                              (1D)
002327:
002328:    1350                        EMDOT              ERASE                                          #  I(1)PL  SPS FLOW RATE   KG/CS B+3
002329:
002330:
002331:                                                                                                  #        UNIVERSAL TRACKING STORAGE                                      (3D)
002332:
002333:    1351                        OPTNTYPE           ERASE                                          #  B(1)
002334:    1352                        AZIMANGL           ERASE    +1                                    #  B(2)
002335:


002337:                                                                                                  #        MODE SW. ERASABLE               (1D)
002338:
002339:    1354                        SWSAMPLE           ERASE                                          #  B(1)PRM
002340:
002341:
002342:                                                                                                  #        UT PERMANENT STORAGE                                            (2D)
002343:
002344:    1355                        R67TIME            ERASE    +1                                    #  B(2)
002345:    1357     1355               UTSTARNO           EQUALS   R67TIME                               #  B(1)
002346:
002347:
002348:                                                                                                  #        MINKEY CONTROLLER TEMP RESTART STORAGE                          (1D)
002349:
002350:    1357     1356               AUTTEMP            EQUALS   R67TIME    +1                         #  B(1)
002351:
002352:
002353:                                                                                                  #        SELF-CHECK ASSIGNMENTS.                                         (17D)
002354:
002355:                                                                                                  #                                (DO NOT MOVE, S-C IS ADDRESS SENSITIVE)
002356:
002357:    1357                        SELFERAS           ERASE    1357       -          1377            #  ***MUST NOT BE MOVED***
002358:    1357     1357               SFAIL              EQUALS   SELFERAS                              #  B(1)
002359:    1357     1360               ERESTORE           EQUALS   SFAIL      +1                         #  B(1)
002360:    1357     1361               SELFRET            EQUALS   ERESTORE   +1                         #  B(1)    RETURN
002361:    1357     1362               SMODE              EQUALS   SELFRET    +1                         #  B(1)
002362:    1357     1363               ALMCADR            EQUALS   SMODE      +1                         #  B(2)     ALARM-ABORT USER'S 2CADR
002363:    1357     1365               ERCOUNT            EQUALS   ALMCADR    +2                         #  B(1)
002364:    1357     1366               SCOUNT             EQUALS   ERCOUNT    +1                         #  B(3)
002365:    1357     1371               SKEEP1             EQUALS   SCOUNT     +3                         #  B(1)
002366:    1357     1372               SKEEP2             EQUALS   SKEEP1     +1                         #  B(1)
002367:    1357     1373               SKEEP3             EQUALS   SKEEP2     +1                         #  B(1)
002368:    1357     1374               SKEEP4             EQUALS   SKEEP3     +1                         #  B(1)
002369:    1357     1375               SKEEP5             EQUALS   SKEEP4     +1                         #  B(1)
002370:    1357     1376               SKEEP6             EQUALS   SKEEP5     +1                         #  B(1)
002371:    1357     1377               SKEEP7             EQUALS   SKEEP6     +1                         #  B(1)
002372:
002373:
002374:


002376:                                                                                                  #        EBANK-3 ASSIGNMENTS
002377:
002378: E3,1400                                           SETLOC   1400
002379:
002380:                                                                                                  #        WAITLIST TASK LISTS.                                            (26D)
002381:
002382: E3,1400                        LST1               ERASE    +7                                    #  B(8D)PRM  DELTA T S.
002383: E3,1410                        LST2               ERASE    +17D                                  #  B(18D)PRM TASK 2CADR ADDRESSES.
002384:
002385:
002386:                                                                                                  #        RESTART STORAGE.                                                (2D)
002387:
002388: E3,1432                        RSBBQ              ERASE    +1                                    #  B(2)PRM SAVE BB AND Q FOR RESTARTS.
002389:
002390:
002391:                                                                                                  #        MORE LONGCALL STORAGE. (MUST BE IN LST1 S BANK).                (2D)
002392:
002393: E3,1434                        LONGEXIT           ERASE    +1                                    #  B(2)TMP MAY BE SELDOM OVERLAYED.
002394:
002395:
002396:                                                                                                  #        PHASE-CHANGE LISTS PART II.                                     (12D)
002397:
002398: E3,1436                        PHSNAME1           ERASE                                          #  B(1)PRM
002399: E3,1437                        PHSBB1             ERASE                                          #  B(1)PRM
002400: E3,1440                        PHSNAME2           ERASE                                          #  B(1)PRM
002401: E3,1441                        PHSBB2             ERASE                                          #  B(1)PRM
002402: E3,1442                        PHSNAME3           ERASE                                          #  B(1)PRM
002403: E3,1443                        PHSBB3             ERASE                                          #  B(1)PRM
002404: E3,1444                        PHSNAME4           ERASE                                          #  B(1)PRM
002405: E3,1445                        PHSBB4             ERASE                                          #  B(1)PRM
002406: E3,1446                        PHSNAME5           ERASE                                          #  B(1)PRM
002407: E3,1447                        PHSBB5             ERASE                                          #  B(1)PRM
002408: E3,1450                        PHSNAME6           ERASE                                          #  B(1)PRM
002409: E3,1451                        PHSBB6             ERASE                                          #  B(1)PRM
002410:
002411:
002412:                                                                                                  #        IMU COMPENSATION PARAMETERS.                                            (22D)
002413:
002414: E3,1452                        PBIASX             ERASE                                          #  B(1)   PIPA BIAS, PIPA SCALE FACTR TERMS
002415: E3,1453  E3,1452               PIPABIAS           =        PBIASX                                #      INTERMIXED.
002416: E3,1453                        PIPASCFX           ERASE
002417: E3,1454  E3,1453               PIPASCF            =        PIPASCFX
002418: E3,1454                        PBIASY             ERASE
002419: E3,1455                        PIPASCFY           ERASE
002420: E3,1456                        PBIASZ             ERASE
002421: E3,1457                        PIPASCFZ           ERASE
002422:
002423: E3,1460                        NBDX               ERASE                                          #  GYRO BIAS DRIFTS
002424: E3,1461                        NBDY               ERASE
002425: E3,1462                        NBDZ               ERASE
002426:


002428: E3,1463                        ADIAX              ERASE                                          #  ACCELERATION SENSITIVE DRIFT ALONG THE
002429: E3,1464                        ADIAY              ERASE                                          #      INPUT AXIS
002430: E3,1465                        ADIAZ              ERASE
002431:
002432: E3,1466                        ADSRAX             ERASE                                          #  ACCELERATION SENSITIVE DRIFT ALONG THE
002433: E3,1467                        ADSRAY             ERASE                                          #      SPIN REFERENCE AXIS
002434: E3,1470                        ADSRAZ             ERASE
002435:
002436: E3,1471                        GCOMP              ERASE    +5                                    #  CONTAINS COMPENSATING TORQUES
002437:
002438: E3,1477                        GCOMPSW            ERASE
002439: E3,1500  E3,1471               COMMAND            EQUALS   GCOMP
002440: E3,1500  E3,1474               CDUIND             EQUALS   GCOMP      +3
002441:
002442:                                                                                                  #        STATE VECTORS FOR ORBIT INTEGRATION.                            (44D)
002443:
002444:                                                                                                  #                                (DIFEQCNT THRU XKEP MUST BE IN SAME
002445:                                                                                                  #                                  EBANK AS RRECTCSM, RRECTLEM ETC
002446:                                                                                                  #                                  BECAUSE THE COPY-CYCLES (ATOPCSM,
002447:                                                                                                  #                                  PTOACSM ETC) ARE EXECUTED IN BASIC.
002448:                                                                                                  #                                    ALL OTHER REFERENCES TO THIS GROUP
002449:                                                                                                  #                                  ARE BY INTERPRETIVE INSTRUCTIONS.)
002450:
002451: E3,1500                        DIFEQCNT           ERASE    +43D                                  #  B(1)TMP
002452:                                                                                                  #                                (UPSVFLAG...XKEP MUST BE KEPT IN ORDER)
002453:
002454: E3,1554  E3,1501               UPSVFLAG           EQUALS   DIFEQCNT   +1                         #  B(1)PRM UPDATE FLAG
002455: E3,1554  E3,1502               RRECT              EQUALS   UPSVFLAG   +1                         #  B(6)TMP POS AT RECT            KM*2(-14)
002456: E3,1554  E3,1510               VRECT              EQUALS   RRECT      +6                         #  B(6)TMP VEL AT RECT        KM(-1/2)*2(6)
002457: E3,1554  E3,1516               TET                EQUALS   VRECT      +6                         #  B(2)TMP TIME OF STATE VECT  CSECS*2(-28)
002458: E3,1554  E3,1520               TDELTAV            EQUALS   TET        +2                         #  B(6)TMP POSITION DEVIATION      KM*2(14)
002459: E3,1554  E3,1526               TNUV               EQUALS   TDELTAV    +6                         #  B(6)TMP VEL DEVIATION     KM(-1/2)*2(14)
002460: E3,1554  E3,1534               RCV                EQUALS   TNUV       +6                         #  B(6)TMP CONIC POSITION         KM*2(-14)
002461: E3,1554  E3,1542               VCV                EQUALS   RCV        +6                         #  B(6)TMP CONIC VELOCITY     KM(-1/2)*2(6)
002462: E3,1554  E3,1550               TC                 EQUALS   VCV        +6                         #  B(2)TMP TIME SINCE RECTIFICATION
002463: E3,1554  E3,1552               XKEP               EQUALS   TC         +2                         #  B(2)TMP ROOT OF KEPLER EQ KM(1/2.*2(-10)
002464:
002465: E3,1554  E3,1552               XPREV              =        XKEP                                  #  I(2)TMP
002466:                                                                                                  #      **** TEMP - IN VAC AREA ****
002467: E3,1554                        RRECT1             EQUALS   18D
002468: E3,1554                        VRECT1             EQUALS   24D
002469: E3,1554                        TET1               EQUALS   30D
002470:
002471:
002472:
002473:                                                                                                  #        PERMANENT STATE VECTORS AND TIMES.                              (99D)
002474:
002475:                                                                                                  #        (DO NOT OVERLAY WITH ANYTHING AFTER BOOST)
002476:


002478:                                                                                                  #        (RRECTCSM ...XKEPCSM MUST BE KEPT IN THIS ORDER)
002479:
002480: E3,1554                        RRECTCSM           ERASE    +5                                    #  B(6)PRM CSM VARIABLES.
002481: E3,1562  E3,1554               RRECTHIS           =        RRECTCSM
002482: E3,1562                        VRECTCSM           ERASE    +5                                    #  B(6)PRM
002483: E3,1570                        TETCSM             ERASE    +1                                    #  B(2)PRM
002484: E3,1572  E3,1570               TETTHIS            =        TETCSM
002485: E3,1572                        DELTACSM           ERASE    +5                                    #  B(6)PRM
002486: E3,1600                        NUVCSM             ERASE    +5                                    #  B(6)PRM
002487: E3,1606                        RCVCSM             ERASE    +5                                    #  B(6)PRM
002488: E3,1614                        VCVCSM             ERASE    +5                                    #  B(6)PRM
002489: E3,1622                        TCCSM              ERASE    +1                                    #  B(2)PRM
002490: E3,1624                        XKEPCSM            ERASE    +1                                    #  B(2)PRM
002491:
002492:                                                                                                  #        (RRECTLEM ...XKEPLEM MUST BE KEPT IN THIS ORDER)
002493:
002494: E3,1626                        RRECTLEM           ERASE    +5                                    #  B(6)PRM LEM VARIABLES
002495: E3,1634  E3,1626               RRECTOTH           =        RRECTLEM
002496: E3,1634                        VRECTLEM           ERASE    +5                                    #  B(6)PRM
002497: E3,1642                        TETLEM             ERASE    +1                                    #  B(2)PRM
002498: E3,1644  E3,1642               TETOTHER           =        TETLEM
002499: E3,1644                        DELTALEM           ERASE    +5                                    #  B(6)PRM
002500: E3,1652                        NUVLEM             ERASE    +5                                    #  B(6)PRM
002501: E3,1660                        RCVLEM             ERASE    +5                                    #  B(6)PRM
002502: E3,1666                        VCVLEM             ERASE    +5                                    #  B(6)PRM
002503: E3,1674                        TCLEM              ERASE    +1                                    #  B(2)PRM
002504: E3,1676                        XKEPLEM            ERASE    +1                                    #  B(2)PRM
002505:
002506: E3,1700                        X789               ERASE    +5
002507: E3,1706                        TEPHEM             ERASE    +2
002508: E3,1711                        UNITW              ERASE    +5
002509: E3,1717  E3,1711               -AYO               EQUALS   UNITW                                 #   (2)
002510: E3,1717  E3,1713               AXO                EQUALS   UNITW      +2                         #   (2)
002511:
002512:
002513:
002514:                                                                                                  #        STATE VECTORS FOR DOWNLINK.                                     (12D)
002515:
002516: E3,1717                        R-OTHER            ERASE    +5                                    #  B(6)PRM POS VECT (OTHER VECH) FOR DNLINK
002517: E3,1725                        V-OTHER            ERASE    +5                                    #  B(6)PRM VEL VECT (OTHER VECH) FOR DNLINK
002518:
002519: E3,1733  E3,1642               T-OTHER            =        TETLEM                                #              TIME (OTHER VECH) FOR DNLINK
002520:
002521:
002522:                                                                                                  #        REFSMMAT.                                                       (18D)
002523:
002524: E3,1733                        REFSMMAT           ERASE    +17D                                  #  I(18D)PRM
002525:
002526:                                                                                                  #        AVERAGEG INTEGRATOR STORAGE.                                    (6D)
002527:


002529: E3,1755                        UNITR              ERASE    +5
002530:
002531:
002532:
002533:                                                                                                  #        TEMP STORAGE FOR N90 DISPLAY IN RENDEZVOUS TARGETING PROGRAMS   (6D)
002534: E3,1763  E3,1755               YCSM               EQUALS   UNITR
002535: E3,1763  E3,1757               YDOTC              EQUALS   YCSM       +2
002536: E3,1763  E3,1761               YDOTL              EQUALS   YDOTC      +2
002537:
002538:
002539:                                                                                                  #        P40 PAD LOADS                                                   (3D)
002540:
002541: E3,1763                        EIMP1SEC           ERASE                                          #  I(1)PL E-2 B-14 NEWT-SEC BR-PT AT 1 SEC
002542: E3,1764                        EFIMP01            ERASE                                          #  I(1)PL E-2 B-14 NEWT SLOPE 0-1 SEC SEG
002543: E3,1765                        EFIMP16            ERASE                                          #  I(1)PL E-2 B-14 NEWT SLOPE 1-6 SEC SEG
002544:
002545:
002546:
002547:                                                                                                  #  **********LUNAR MODULE CHANGE  ***********                            (2D)
002548:
002549: E3,1766  E3,1766               E3J22R2M           EQUALS   EFIMP16    +1
002550: E3,1766  E3,1767               E32C31RM           EQUALS   E3J22R2M   +1
002551:
002552:
002553:                                                                                                  #      **** CONICSEX (PLANETARY INERT. ORIEN.) ****
002554:
002555: E3,1766  E3,1706               TIMSUBO            EQUALS   TEPHEM                                #  CSEC B-42 (TRIPLE PREC)
002556:
002557:
002558:                                                                                                  #        P23 PAD LOAD (2D)
002559:
002560:                                                                                                  #  ** P24  PAD LOADS **    (2D)
002561:
002562: E3,1766  E3,1770               TRUNSF             EQUALS   E32C31RM   +1                         #  I(1)PL
002563: E3,1766  E3,1771               SHAFTSF            EQUALS   TRUNSF     +1                         #  I(1)PL
002564:


002566:
002567:                                                                                                  #                EBANK-4 ASSIGNMENTS
002568:
002569: E4,1400                                           SETLOC   2000
002570:
002571:
002572: E4,1400                        ERASPIP            EQUALS                                         #  ENTRANCE TO ERASABLE PIPA TEST PROGRAM
002573:                                                                                                  #        P20 STORAGE.            -PAD LOADED-                            (4D)
002574:
002575: E4,1400                        WRENDPOS           ERASE                                          #  B(1)PL                            M B-14
002576: E4,1401                        WRENDVEL           ERASE                                          #  B(1)PL                          M/CSECB0
002577: E4,1402                        RMAX               ERASE                                          #  B(1)PL                     METERS*2(-19)
002578: E4,1403                        VMAX               ERASE                                          #  B(1)PL                      M/CSEC*2(-7)
002579:
002580:
002581:                                                                                                  #        P22 STORAGE.            -PAD LOADED-                            (5D)
002582:
002583: E4,1404                        WORBPOS            ERASE                                          #  B(1)PL                            M B-14
002584: E4,1405                        WORBVEL            ERASE                                          #  B(1)PL                          M/CSECB0
002585: E4,1406                        S22WSUBL           ERASE                                          #  B(1)PL                            M B-14
002586: E4,1407                        RPVAR              ERASE    +1                                    #  B(2)PL
002587:
002588:
002589:                                                                                                  #        CONISEX STORAGE.        -PAD LOADED-                            (6D)
002590:
002591: E4,1411                        504LM              ERASE    +5                                    #  I(6)MOON LIBRATION VECTOR
002592:
002593:
002594:
002595:                                                                                                  #        ENTRY STORAGE.          -PAD LOADED-                            (2D)
002596:
002597: E4,1417                        EMSALT             ERASE    +1                                    #  I(2)PL
002598:
002599:
002600:                                                                                                  #        P35 CONSTANTS.          -PAD LOADED-                            (4D)
002601:
002602: E4,1421                        ATIGINC            ERASE    +1                                    #  B(2)PL
002603: E4,1423                        PTIGINC            ERASE    +1                                    #  B(2)PL
002604:
002605:
002606:                                                                                                  #        LUNAR LANDING SIGHT DATA. -PAD LOADED-                          (6D)
002607:                                                                                                  #        (USED BY INTEGRATION INITIALIZATION,LAT-LONG SUBROUTINES, P30'S)
002608:
002609: E4,1425                        RLS                ERASE    +5                                    #  I(6) PL  LUNAR LANDING SIGHT VECTOR
002610:
002611:
002612:
002613:                                                                                                  #  CONISEX (LUNAR AND SOLAR EPHEM)STORAGE. -PAD LOADED-                  (77D)
002614:
002615: E4,1433                        TIMEMO             ERASE    +76D
002616: E4,1550  E4,1436               VECOEM             EQUALS   TIMEMO     +3


002618: E4,1550  E4,1532               RESO               EQUALS   VECOEM     +60D
002619: E4,1550  E4,1540               VESO               EQUALS   RESO       +6
002620: E4,1550  E4,1546               OMEGAES            EQUALS   VESO       +6
002621:
002622:
002623:                                                                                                  #        FULL INTEGRATION STORAGE.                                       (88D)
002624:
002625: E4,1550                        PBODY              ERASE                                          #  I(1)
002626: E4,1551  E4,1551               ALPHAV             EQUALS   PBODY      +1                         #  I(6)TMP
002627: E4,1551  E4,1557               BETAV              EQUALS   ALPHAV     +6                         #  I(6)TMP
002628: E4,1551  E4,1565               PHIV               EQUALS   BETAV      +6                         #  I(6)TMP
002629: E4,1551  E4,1573               PSIV               EQUALS   PHIV       +6                         #  I(6)TMP
002630: E4,1551  E4,1601               FV                 EQUALS   PSIV       +6                         #  I(6)TMP
002631: E4,1551  E4,1607               BETAM              EQUALS   FV         +6                         #  I(6)TMP
002632: E4,1551  E4,1611               H                  EQUALS   BETAM      +2                         #  I(2)TMP
002633: E4,1551  E4,1613               IRETURN            EQUALS   H          +2                         #  I(1) TMP
002634: E4,1551  E4,1614               NORMGAM            EQUALS   IRETURN    +1                         #  I(1)TMP
002635: E4,1551  E4,1615               VECTAB             EQUALS   NORMGAM    +1                         #  I(36)TMP
002636: E4,1551  E4,1661               RPQV               EQUALS   VECTAB     +36D                       #   (6)TMP VECTOR PRIMARY TO SECONDARY BODY
002637: E4,1551  E4,1667               ORIGEX             EQUALS   RPQV       +6                         #  B(1)TMP QSAVE FOR COORD. SWITCH. ROUTINE
002638: E4,1551  E4,1667               KEPRTN             EQUALS   ORIGEX                                #          QSAVE FOR KEPLER
002639: E4,1551  E4,1670               RPSV               EQUALS   ORIGEX     +1                         #  I(6) TMP SUN TO PRIMARY BODY VECTOR
002640: E4,1551  E4,1676               XKEPNEW            EQUALS   RPSV       +6                         #   (2)TMP ROOT OF KEPLERS EQU FOR TIME TAU
002641:
002642:
002643:                                                                                                  #        THESE PROBABLY CAN SHARE INTEGRATION VARIABLES.                 (3D)
002644:
002645:                                                                                                  #        LAT-LONG STORAGE
002646:
002647: E4,1551  E4,1637               ERADM              EQUALS   VECTAB     +18D                       #  I(2)TMP
002648: E4,1551  E4,1641               INCORPEX           EQUALS   ERADM      +2                         #  I(1)TMP
002649:
002650:
002651:                                                                                                  #        R31(V83) STORAGE. -SHARES WITH INTEGRATION STORAGE-             (24D)
002652:
002653:
002654: E4,1551  E4,1623               BASEOTP            EQUALS   VECTAB     +6                         #  I(6) BASE POS VECTOR OTHER VEH
002655: E4,1551  E4,1637               BASEOTV            EQUALS   VECTAB     +18D                       #  I(6) BASE VEL VECTOR OTHER VEH
002656: E4,1551  E4,1653               BASETHP            EQUALS   VECTAB     +30D                       #  I(6) BASE POS VECTOR THIS VEH
002657: E4,1551  E4,1661               BASETHV            EQUALS   RPQV                                  #  I(6) BASE VEL VECTOR THIS VEH
002658:
002659:
002660:                                                                                                  #        CONIC INTEGRATION STORAGE.      -MAY NOT SHARE WITH SERVICER-   (6D)
002661:
002662: E4,1551  E4,1700               ALPHAM             EQUALS   XKEPNEW    +2                         #  I(2)TMP
002663: E4,1551  E4,1702               TAU.               EQUALS   ALPHAM     +2                         #  I(2)TMP
002664: E4,1551  E4,1704               DT/2               EQUALS   TAU.       +2                         #  I(2)TMP
002665:
002666:
002667:                                                                                                  #        R61 STORAGE                                                     (2D)
002668:


002670: E4,1551  E4,1706               R63TIME            EQUALS   DT/2       +2                         #  I(2)TMP
002671:
002672:
002673:
002674:                                                                                                  #        INTEGRATION STORAGE                                             (1D)
002675: E4,1551  E4,1710               EGRESS             EQUALS   R63TIME    +2
002676:
002677:
002678:                                                                                                  #        VERB 83(N54)AND VERB 90 (N96) DISPLAYS                          (6D)
002679: E4,1551  E4,1711               RANGE              EQUALS   EGRESS     +1                         #  I(2)DSP NOUN 54 DISTANCE TO OPTICAL SUBJ
002680: E4,1551  E4,1713               RRATE              EQUALS   RANGE      +2                         #  I(2)DSP NOUN 54 RATE OF APPROACH
002681: E4,1551  E4,1715               RTHETA             EQUALS   RRATE      +2                         #  I(2)DSP NOUN 54
002682: E4,1551  E4,1715               RRATE2             EQUALS   RTHETA                                #  I(2) N96 LM OUT-OF-PLANE RATE
002683:
002684:
002685:                                                                                                  #  VERB 83  STORAGE                                                      (14D)
002686:
002687: E4,1551  E4,1717               RONE               EQUALS   RTHETA     +2                         #  I(6)TMP VECTOR STORAGE. (SCRATCH)
002688: E4,1551  E4,1725               VONE               EQUALS   RONE       +6                         #  I(6)TMP VECTOR STORAGE (SCRATCH)
002689: E4,1551  E4,1733               BASETIME           EQUALS   VONE       +6                         #  I(2)    BASE TIME  ASSOC WITH BASE VECS
002690:
002691:
002692:
002693:                                                                                                  #        V 67 STORAGE                                                    (6D)
002694:
002695: E4,1551  E4,1711               WWPOS              EQUALS   RANGE                                 #  I(2)TMP
002696: E4,1551  E4,1713               WWVEL              EQUALS   RRATE                                 #  I(2)TMP
002697: E4,1551  E4,1715               WWOPT              EQUALS   RTHETA                                #  I(2)TMP
002698:
002699:
002700:                                                                                                  #        S-BAND ANTENNA GIMBAL ANGLES.  DISPLAYED BY R05 (EXT.VB.64)     (4D)
002701:                                                                                                  #               OPERATION DURING P00 ONLY.
002702:
002703: E4,1551  E4,1711               RHOSB              EQUALS   RANGE                                 #  B(2)DSP NOUN 51.  PITCH ANGLE
002704: E4,1551  E4,1713               GAMMASB            EQUALS   RHOSB      +2                         #  B(2)DSP NOUN 51.  YAW ANGLE
002705:
002706:
002707:                                                                                                  #        R 36 SCRATCHPAD STORAGE                                         (18D)
002708:
002709: E4,1551  E4,1717               VPASS36            EQUALS   RONE                                  #  I (6)S-S
002710: E4,1551  E4,1725               UNP36              EQUALS   VPASS36    +6                         #  I (6)S-S
002711: E4,1551  E4,1733               UNA36              EQUALS   UNP36      +6                         #  I (6)S-S
002712:
002713:
002714:
002715:                                                                                                  #        EXTENDED VERB 82 STORAGE.                                       (6D)
002716:
002717: E4,1551  E4,1711               HPERMIN            EQUALS   RANGE                                 #  I(2) SET TO 300KFT OR 35KFT FOR SR30.1
002718: E4,1551  E4,1713               RPADTEM            EQUALS   HPERMIN    +2                         #  I(2) PAD OR LANDING RADIUS FOR SR30.1
002719: E4,1551  E4,1715               TSTART82           EQUALS   RPADTEM    +2                         #  I(2) TEMP TIME STORAGE FOR V82.


002721:
002722:
002723:
002724:                                                                                                  #        MORE VERB 82 NOT SHARING WITH VERB 83                           (7D)
002725:
002726:
002727: E4,1551  E4,1733               V82FLAGS           EQUALS   VONE       +6                         #   (1) FOR V 82 BITS
002728: E4,1551  E4,1734               TFF                EQUALS   V82FLAGS   +1                         #  I(2)  DSP NOUN 50,44
002729: E4,1551  E4,1736               -TPER              EQUALS   TFF        +2                         #  I(2)DSP NOUN 32
002730: E4,1551  E4,1740               THETA(1)           EQUALS   -TPER      +2                         #  I(2) TMP SET AT END OF V82
002731: E4,1551  E4,1746               RSP-RREC           EQUALS   AOPTIME                               #  DSP NOUN 50 FOR V82 DURING P00 AND P11
002732:
002733:
002734:
002735:                                                                                                  #        REENTRY CONICS                                                  (6D)
002736:
002737: E4,1551  E4,1733               URONE              EQUALS   V82FLAGS                              #  I(6) SAVE ACTUAL FOR CALCULATIONS
002738:
002739:
002740:                                                                                                  #        V 82 DISPLAY                                                    (4D)
002741:
002742: E4,1551  E4,1742               HAPOX              EQUALS   THETA(1)   +2                         #  I(2) DSP NOUN 44
002743: E4,1551  E4,1744               HPERX              EQUALS   HAPOX      +2                         #  I(2) DSP NOUN 44
002744:
002745:
002746:
002747:                                                                                                  #        MINKEY RENDEZVOUS STORAGE                                       (2D)
002748:
002749: E4,1551  E4,1750               TCSI2              EQUALS   RSP-RREC   +2                         #  I(2) TIME OF NEXT CSI
002750:
002751:
002752:                                                                                                  #        P22 DISPLAY REGISTERS                                           (06D)
002753:
002754: E4,1551  E4,1746               AOPTIME            EQUALS   HPERX      +2                         #  I(2)TMP FOR SR52.1,ADVTRACK
002755: E4,1551  E4,1750               LANDLONG           EQUALS   AOPTIME    +2                         #  I(2) DSP NOUN 89 FOR P22
002756: E4,1551  E4,1752               LANDALT            EQUALS   LANDLONG   +2                         #  I(2)DSP NOUN 89 FOR P22.
002757:
002758:
002759:
002760:                                                                                                  #        S34/35.5,P34-P35 STORAGE.                                       (5D)
002761:
002762: E4,1551  E4,1754               KT                 EQUALS   LANDALT    +2                         #  B(2)
002763: E4,1551  E4,1756               QSAVED             EQUALS   KT         +2                         #  B(1)TMP HOLDS RETURN
002764: E4,1551  E4,1757               RTRN               EQUALS   QSAVED     +1                         #  B(1) RETURN
002765: E4,1551  E4,1760               SUBEXIT            EQUALS   RTRN       +1                         #  B(1) TMP
002766: E4,1551  E4,1756               ANEXIT             EQUALS   QSAVED                                #  I(1)
002767:
002768:
002769:                                                                                                  #        P 30 DISPLAY                                                    (4D)
002770:


002772: E4,1551  E4,1754               HAPO               EQUALS   KT                                    #  I(2) DSP NOUN 42, FOR P30.
002773: E4,1551  E4,1756               HPER               EQUALS   HAPO       +2                         #  I(2) DSP NOUN 42, FOR P30.
002774:
002775:
002776:
002777:                                                                                                  #        SOME P34 STORAGE.       (OVERLAYS P35.1 STORAGE)                (2D)
002778:
002779: E4,1551  E4,1754               NOMTPI             EQUALS   KT                                    #  I(2)TMP NOMINAL TPI TIME FOR RECYCLE
002780:
002781:
002782:                                                                                                  #        P15 PAD LOADS                                                   (3D)
002783:
002784: E4,1551  E4,1754               DTF                EQUALS   KT                                    #  I(1)
002785: E4,1551  E4,1755               VC/O               EQUALS   DTF        +1                         #  I(2)
002786:
002787:
002788:                                                                                                  #  THE FOLLOWING ARE ERASABLES USED BY THE SYSTEM TESTS. 205 USES TRANSM1  GS ARE NOT USED IN 205 NOR ARE THEY
002789:                                                                                                  #  WHILE 504 USES TRANSM1 AND ALFDK .
002790:
002791: E4,1551                        TRANSM1            EQUALS   2000                                  #   (18) INITIALIZATION FOR IMU TESTS
002792: E4,1551  E4,1422               ALFDK              =        TRANSM1    +18D                       #   (144) ERASABLE LOAD IN 504
002793: E4,1551  E4,1641               ENDSYS-4           EQUALS   ALFDK      +143D                      #  LAST SYS.TEST STORAGE IN E-4
002794:
002795:                                                                                                  #  END OF PERF. TEST ERASABLE IN BANK 4
002796:
002797:                                                                                                  #      *-*-* V82 *-*-*                                                   (6D)
002798:
002799: E4,1551  E4,1761               VONE'              EQUALS   SUBEXIT    +1                         #  I(6)TMP NORMAL VELOCITY VONE/ SQRT MU
002800:
002801:
002802:                                                                                                  #      MINKEY PAD LOADS                                                  (8D)
002803:
002804: E4,1551  E4,1767               HAMDELH            EQUALS   VONE'      +6                         #  I(2)PL
002805: E4,1551  E4,1771               WRDTIME            EQUALS   HAMDELH    +2                         #  I(1)PL
002806: E4,1551  E4,1772               MINBLKTM           EQUALS   WRDTIME    +1                         #  I(1)PL
002807: E4,1551  E4,1773               TBEFCOMP           EQUALS   MINBLKTM   +1                         #  I(1)PL
002808: E4,1551  E4,1774               BRNBLKTM           EQUALS   TBEFCOMP   +1                         #  I(1)PL
002809: E4,1551  E4,1775               MAXWTIME           EQUALS   BRNBLKTM   +1                         #  I(1)PL
002810: E4,1551  E4,1776               FINCMPTM           EQUALS   MAXWTIME   +1                         #  I(1)PL
002811:
002812:
002813:                                                                                                  #        PAD LOAD INTEGRATION ERROR INCLUDED IN VARIANCE BY P20          (1D)
002814:
002815: E4,1551  E4,1777               INTVAR             EQUALS   FINCMPTM   +1                         #  I(1)PL  SQUARE OF EXPECTED INTEGRATION
002816:                                                                                                  #          POSITION EXTRAPOLATION ERROR.
002817:                                                                                                  #          SCALED  METERS(2) 2(15)


002819:                                                                                                  #  EBANK-5 ASSIGNMENTS
002820:
002821: E5,1400                                           SETLOC   2400
002822:
002823:
002824:                                                                                                  #        *-*-*-*-  OVERLAY 1 IN EBANK 5 -*-*-*-*
002825:
002826:                                                                                                  #        W-MATRIX STORAGE.                                               (162D)
002827:
002828: E5,1400                        W                  EQUALS   2400                                  #  B(162)
002829:
002830: E5,1400                        9X9LOC1            EQUALS   2444
002831: E5,1400                        9X9LOC2            EQUALS   2532
002832:
002833:                                                                                                  #        P22 TEMP STORAGE                                                (6D)
002834:
002835: E5,1400  E5,1554               S22RL              EQUALS   W          +108D                      #  TMP RL IN UNKNOWN LMK W INIT
002836:
002837:
002838: E5,1400  E5,1570               EMATRIX            =        W          +120D                      #  B(42E    USED TO CONVERT W TO  6X6
002839: E5,1400  E5,1642               END-W              EQUALS   W          +162D                      #  **NEXT AVAILABLE LOC AFTER W MATRIX**
002840:
002841:
002842:                                                                                                  #        AUTO-OPTICS STORAGE -R52-
002843:
002844:                                                                                                  #  DO NOT MOVE FROM E5,1554. A DELICATE BALANCE EXISTS BETWEEN THIS AND P03
002845: E5,1400  E5,1554               XNB1               EQUALS   W          +108D                      #  B(6D) TMP
002846: E5,1400  E5,1562               YNB1               EQUALS   XNB1       +6                         #  B(6)TMP
002847: E5,1400  E5,1570               ZNB1               EQUALS   YNB1       +6                         #  B(6)TMP
002848: E5,1400  E5,1576               SAVQR52            EQUALS   ZNB1       +6                         #  I(2)TMP
002849:
002850:
002851: E5,1400  E5,1577               R52BNKSV           EQUALS   SAVQR52    +1                         #  USED TO SAVE EBANK IN R52
002852: E5,1400  E5,1600               PLANVEC            EQUALS   SAVQR52    +2                         #  B(6) S-S SIGHTING VECTOR IN REF. COOR.
002853: E5,1400  E5,1606               TSIGHT             EQUALS   PLANVEC    +6                         #  B(2) S-S TIME OF SIGHTING
002854:
002855:
002856:
002857:                                                                                                  #        RENDEZVOUS TARGETTING STORAGE                                   (6D)
002858:
002859: E5,1400  E5,1600               AUTOY              EQUALS   PLANVEC                               #  I(2)
002860: E5,1400  E5,1602               CMYDOT             EQUALS   AUTOY      +2                         #  I(2)
002861: E5,1400  E5,1604               LMYDOT             EQUALS   CMYDOT     +2                         #  I(2)
002862:
002863:
002864:                                                                                                  #        RENDEZVOUS -P34-35                                              (26D)
002865:
002866: E5,1400  E5,1610               DVLOS              EQUALS   TSIGHT     +2                         #  I(6) S-S DELTA VELOCITY,LOS COORD-DISPL1
002867: E5,1400  E5,1616               UNRM               EQUALS   DVLOS      +6                         #  I(6) S-S
002868: E5,1400  E5,1624               ULOS               EQUALS   UNRM       +6                         #  I(6) S-S UNIT LINE OF SIGHT VECTOR
002869: E5,1400  E5,1632               ACTCENT            EQUALS   ULOS       +6                         #  I(2) S-S CENTRAL ANGLE BETWEEN ACTIVE


002871:                                                                                                  #           VEH AT TPI IGNITION TIME AND
002872:                                                                                                  #           TARGET VECTOR.
002873: E5,1400  E5,1634               DELVTPI            EQUALS   ACTCENT    +2                         #  I(2)    NOUN 58 FOR P34.
002874: E5,1400  E5,1636               DELVTPF            EQUALS   DELVTPI    +2                         #  I(2)    NOUN 58,59 FOR P34,35.
002875: E5,1400  E5,1640               POSTTPI            EQUALS   DELVTPF    +2                         #  I(2)    NOUN 58 FOR P34.
002876: E5,1400  E5,1634               TDEC2              EQUALS   DELVTPI                               #   (2)
002877:
002878:
002879: E5,1400  E5,1640               T3TOT4             EQUALS   POSTTPI                               #  I(2) DSP NOUN 39 FOR P34,P35. TPI TO TIN
002880:                                                                                                  #  T (CAN NOT SHARE WITH RETURN TO EARTH)
002881:                                                                                                  #        ALIGNMENT                                                       (12D)
002882:
002883: E5,1400  E5,1610               STARSAV1           EQUALS   DVLOS                                 #  I(6)TMP RESTART STAR SAVE.
002884: E5,1400  E5,1616               STARSAV2           EQUALS   STARSAV1   +6                         #  I(6)TMP RESTART STAR SAVE.
002885: E5,1400  E5,1616               US                 =        STARSAV2                              #           (CISLUNAR TAG FOR STARSAV2).
002886:
002887:
002888:
002889:                                                                                                  #        P24-RATE AIDED OPTICS                                           (2)
002890:
002891: E5,1400  E5,1656               TRTEMP             EQUALS   R1VEC                                 #  B(1)TMP
002892: E5,1400  E5,1657               SRTEMP             EQUALS   TRTEMP     +1                         #  B(1)TMP  ALSO USED AS RETURN SAVE BY R51
002893:                                                                                                  #           AND P23.
002894:


002896:                                                                                                  #        ALIGNMENT/SYSTEST/CALCSMSC/CRS61.1 COMMON STORAGE.              (36D)
002897:                                                                                                  #        (CALCSMSC IS A SUBSET OF S41.1 AT LEAST)
002898:                                                                                                  #        (CRS61.1  IS A SUBSET OF P20)
002899:
002900: E5,1400  E5,1671               XSM                EQUALS   END-W      +23D                       #  B(6)
002901: E5,1400  E5,1677               YSM                EQUALS   XSM        +6                         #  B(6)TMP
002902: E5,1400  E5,1705               ZSM                EQUALS   YSM        +6                         #  B(6)TMP
002903:
002904: E5,1400  E5,1713               XDC                EQUALS   ZSM        +6                         #  B(6)TMP
002905: E5,1400  E5,1721               YDC                EQUALS   XDC        +6                         #  B(6)TMP
002906: E5,1400  E5,1727               ZDC                EQUALS   YDC        +6                         #  B(6)TMP
002907:
002908: E5,1400  E5,1713               XNB                =        XDC
002909: E5,1400  E5,1721               YNB                =        YDC
002910: E5,1400  E5,1727               ZNB                =        ZDC
002911:
002912:
002913:                                                                                                  #        ALIGNMENT/SYSTEST COMMON STORAGE.                               (18D)
002914:
002915: E5,1400  E5,1735               STARAD             EQUALS   ZDC        +6                         #  I(18D)TMP
002916:
002917:
002918:                                                                                                  #        ALIGNMENT/SYSTEST/AUTO OPTICS COMMON STORAGE.                   (17D)
002919:
002920: E5,1400  E5,1757               OGC                EQUALS   STARAD     +18D                       #  I(2)TMP
002921: E5,1400  E5,1761               IGC                EQUALS   OGC        +2                         #  I(2)TMP
002922: E5,1400  E5,1763               MGC                EQUALS   IGC        +2                         #  I(2)TMP
002923: E5,1400  E5,1765               STAR               EQUALS   MGC        +2                         #  I(6)TMP
002924: E5,1400  E5,1773               SAC                EQUALS   STAR       +6                         #  I(2)TMP
002925: E5,1400  E5,1775               PAC                EQUALS   SAC        +2                         #  I(2)TMP
002926: E5,1400  E5,1777               QMIN               EQUALS   PAC        +2                         #  B(1)TMP
002927:
002928:
002929:                                                                                                  #      **** COLP50S ****                                                 (1D)
002930:
002931: E5,1400  E5,1735               CULTRIX            EQUALS   VEARTH                                #  VEARTH, VSUN, VMOON
002932:
002933:                                                                                                  #        OVERLAYS WITHIN ALIGNMENT/SYSTEST COMMON STORAGE.               (24D)
002934:
002935: E5,1400  E5,1735               VEARTH             EQUALS   STARAD                                #   (6)TMP
002936: E5,1400  E5,1743               VSUN               EQUALS   VEARTH     +6                         #   (6)TMP
002937: E5,1400  E5,1751               VMOON              EQUALS   VSUN       +6                         #   (6)TMP
002938: E5,1400  E5,1757               SAX                EQUALS   VMOON      +6                         #   (6)TMP
002939:


002941:                                                                                                  #        *-*-*-*-  OVERLAY 2 IN EBANK 5 -*-*-*-*
002942:
002943:                                                                                                  #        CONIC ROUTINES STORAGE.                                         (87D)
002944:
002945: E5,1400  E5,1642               DELX               EQUALS   END-W                                 #  I(2)TMP
002946: E5,1400  E5,1644               DELT               EQUALS   DELX       +2                         #  I(2)TMP
002947: E5,1400  E5,1646               URRECT             EQUALS   DELT       +2                         #  I(6)TMP
002948: E5,1400  E5,1654               RCNORM             EQUALS   URRECT     +6                         #  I(2)TMP
002949: E5,1400  E5,1656               R1VEC              EQUALS   RCNORM     +2                         #  I(6)TMP
002950: E5,1400  E5,1664               R2VEC              EQUALS   R1VEC      +6                         #  I(6)TMP
002951: E5,1400  E5,1672               TDESIRED           EQUALS   R2VEC      +6                         #  I(2)TMP
002952: E5,1400  E5,1674               GEOMSGN            EQUALS   TDESIRED   +2                         #  I(1)TMP
002953: E5,1400  E5,1675               UN                 EQUALS   GEOMSGN    +1                         #  I(6)TMP
002954: E5,1400  E5,1703               VTARGTAG           EQUALS   UN         +6                         #  I(1)TMP
002955: E5,1400  E5,1704               VTARGET            EQUALS   VTARGTAG   +1                         #  I(6)TMP
002956: E5,1400  E5,1712               RTNLAMB            EQUALS   VTARGET    +6                         #  I(1)TMP
002957: E5,1400  E5,1713               U2                 EQUALS   RTNLAMB    +1                         #  I(6)TMP
002958: E5,1400  E5,1721               MAGVEC2            EQUALS   U2         +6                         #  I(2)TMP
002959: E5,1400  E5,1723               UR1                EQUALS   MAGVEC2    +2                         #  I(6)TMP
002960: E5,1400  E5,1731               SNTH               EQUALS   UR1        +6                         #  I(2)TMP
002961: E5,1400  E5,1733               CSTH               EQUALS   SNTH       +2                         #  I(2)TMP
002962: E5,1400  E5,1735               1-CSTH             EQUALS   CSTH       +2                         #  I(2)TMP
002963: E5,1400  E5,1737               CSTH-RHO           EQUALS   1-CSTH     +2                         #  I(2)TMP
002964: E5,1400  E5,1741               P                  EQUALS   CSTH-RHO   +2                         #  I(2)TMP
002965: E5,1400  E5,1743               R1A                EQUALS   P          +2                         #  I(2)TMP
002966: E5,1400  E5,1656               RVEC               EQUALS   R1VEC                                 #  I(6)TMP
002967: E5,1400  E5,1745               VVEC               EQUALS   R1A        +2                         #  I(6)TMP
002968: E5,1400  E5,1712               RTNTT              EQUALS   RTNLAMB                               #  I(1)TMP
002969: E5,1400  E5,1753               ECC                EQUALS   VVEC       +6                         #  I(2)TMP
002970: E5,1400  E5,1712               RTNTR              EQUALS   RTNLAMB                               #  I(1)TMP
002971: E5,1400  E5,1712               RTNAPSE            EQUALS   RTNLAMB                               #  I(1)TMP
002972: E5,1400  E5,1721               R2                 EQUALS   MAGVEC2                               #  I(2)TMP
002973: E5,1400  E5,1755               RTNPRM             EQUALS   ECC        +2                         #  I(1)TMP
002974: E5,1400  E5,1756               SGNRDOT            EQUALS   RTNPRM     +1                         #  I(1)TMP
002975: E5,1400  E5,1757               RDESIRED           EQUALS   SGNRDOT    +1                         #  I(2)TMP
002976: E5,1400  E5,1761               DELDEP             EQUALS   RDESIRED   +2                         #  I(2)TMP
002977: E5,1400  E5,1763               DEPREV             EQUALS   DELDEP     +2                         #  I(2)TMP
002978: E5,1400  E5,1761               TERRLAMB           EQUALS   DELDEP                                #  I(2)TMP
002979: E5,1400  E5,1763               TPREV              EQUALS   DEPREV                                #  I(2)TMP
002980:


002982:
002983:                                                                                                  #        *-*-*-*-  OVERLAY 3 IN EBANK 5 -*-*-*-*
002984:
002985:                                                                                                  #        MEASUREMENT INCORPORATION STORAGE.                              (54D)
002986:                                                                                                  #        (CALLED BY P20, P22, P23)
002987:
002988: E5,1400  E5,1642               OMEGAM1            EQUALS   END-W                                 #  I(6)TMP
002989: E5,1400  E5,1650               OMEGAM2            EQUALS   OMEGAM1    +6                         #  I(6)TMP
002990: E5,1400  E5,1656               OMEGAM3            EQUALS   OMEGAM2    +6                         #  I(6)TMP
002991: E5,1400  E5,1664               HOLDW              EQUALS   OMEGAM3    +6                         #  I(18)TMP
002992: E5,1400  E5,1706               ZI                 EQUALS   HOLDW      +18D                       #  I(18)
002993:


002995:
002996:                                                                                                  #        *-*-*-*-  OVERLAY 0 IN EBANK 5 -*-*-*-*
002997:
002998:                                                                                                  #        SYSTEM TEST STORAGE.                                            (174)
002999:
003000: E5,1400                        AZIMUTH            ERASE    +1
003001: E5,1402                        LATITUDE           ERASE    +1
003002:
003003: E5,1404                        ERVECTOR           ERASE    +5
003004: E5,1412                        LENGTHOT           ERASE
003005: E5,1413                        LOSVEC             ERASE    +5
003006:
003007: E5,1421  E5,1413               SXTOPTN            =        LOSVEC
003008: E5,1421                        NDXCTR             ERASE
003009:
003010: E5,1422                        SYSTSPR1           ERASE                                          #  UNUSED
003011:
003012: E5,1423                        POSITON            ERASE
003013: E5,1424                        QPLAC              ERASE
003014: E5,1425                        QPLACE             ERASE
003015: E5,1426                        QPLACES            ERASE
003016: E5,1427                        RUN                ERASE
003017:
003018: E5,1430                        SYSTSPR2           ERASE                                          #  UNUSED
003019:
003020: E5,1431                        SOUTHDR            ERASE
003021: E5,1432  E5,1431               TARG1/2            =        SOUTHDR
003022: E5,1432                        TAZEL1             ERASE    +5
003023: E5,1440                        TEMPTIME           ERASE    +1
003024: E5,1442                        TMARK              ERASE    +1
003025: E5,1444                        AINLA              ERASE    +139D                                 #  OPTIMUM CALIB. AND ALIGNMENT
003026: E5,1660  E5,1444               GENPL              =        AINLA
003027: E5,1660  E5,1453               CDULIMIT           =        AINLA      +7
003028: E5,1660  E5,1552               COUNTPL            =        AINLA      +70D
003029: E5,1660  E5,1444               WANGO              EQUALS   AINLA
003030: E5,1660  E5,1446               WANGI              EQUALS   AINLA      +2D
003031: E5,1660  E5,1450               WANGT              EQUALS   AINLA      +4D
003032: E5,1660  E5,1450               TORQNDX            =        WANGT
003033: E5,1660  E5,1452               DRIFTT             EQUALS   AINLA      +6D
003034: E5,1660  E5,1454               ALX1S              EQUALS   AINLA      +8D
003035: E5,1660  E5,1455               CMPX1              EQUALS   AINLA      +9D
003036: E5,1660  E5,1456               ALK                EQUALS   AINLA      +10D
003037: E5,1660  E5,1472               VLAUNS             EQUALS   AINLA      +22D
003038: E5,1660  E5,1460               THETAX             =        ALK        +2
003039: E5,1660  E5,1474               WPLATO             EQUALS   AINLA      +24D
003040: E5,1660  E5,1500               INTY               EQUALS   AINLA      +28D
003041: E5,1660  E5,1466               THETAN             =        THETAX     +6
003042: E5,1660  E5,1502               ANGZ               EQUALS   AINLA      +30D
003043: E5,1660  E5,1504               INTZ               EQUALS   AINLA      +32D
003044: E5,1660  E5,1506               ANGY               EQUALS   AINLA      +34D
003045: E5,1660  E5,1510               ANGX               EQUALS   AINLA      +36D


003047: E5,1660  E5,1512               DRIFTO             EQUALS   AINLA      +38D
003048: E5,1660  E5,1514               DRIFTI             EQUALS   AINLA      +40D
003049: E5,1660  E5,1520               VLAUN              EQUALS   AINLA      +44D
003050: E5,1660  E5,1474               FILDELV            =        THETAN     +6
003051: E5,1660  E5,1522               ACCWD              EQUALS   AINLA      +46D
003052: E5,1660  E5,1476               INTVEC             =        FILDELV    +2
003053: E5,1660  E5,1530               POSNV              EQUALS   AINLA      +52D
003054: E5,1660  E5,1532               DPIPAY             EQUALS   AINLA      +54D
003055: E5,1660  E5,1536               DPIPAZ             EQUALS   AINLA      +58D
003056: E5,1660  E5,1540               ALTIM              EQUALS   AINLA      +60D
003057: E5,1660  E5,1541               ALTIMS             EQUALS   AINLA      +61D
003058: E5,1660  E5,1542               ALDK               EQUALS   AINLA      +62D
003059: E5,1660  E5,1560               DELM               EQUALS   AINLA      +76D
003060: E5,1660  E5,1570               WPLATI             EQUALS   AINLA      +84D
003061: E5,1660  E5,1577               RESTARPT           =        AINLA      +91D
003062: E5,1660  E5,1631               GEOSAVED           =        AINLA      +117D
003063: E5,1660  E5,1632               PREMTRXC           =        AINLA      +118D
003064: E5,1660  E5,1633               LAUNCHAZ           =        AINLA      +119D
003065: E5,1660  E5,1635               NEWAZMTH           =        AINLA      +121D
003066: E5,1660  E5,1637               OLDAZMTH           =        AINLA      +123D
003067: E5,1660  E5,1641               TOLDAZMT           =        AINLA      +125D
003068: E5,1660  E5,1643               GEOCOMPS           =        AINLA      +127D
003069: E5,1660  E5,1644               1SECXT             =        AINLA      +128D
003070: E5,1660  E5,1645               GTSWTLST           =        AINLA      +129D
003071: E5,1660  E5,1646               ERECTIME           =        AINLA      +130D
003072: E5,1660  E5,1647               ERCOMP             =        AINLA      +131D
003073: E5,1660  E5,1655               ZERONDX            =        AINLA      +137D
003074: E5,1660  E5,1655               GTSOPNDZ           =        ZERONDX
003075:
003076:
003077:                                                                                                  #  THE FOLLOWING TAGS ARE USED BY THE 504 IMU CALIBRATION AND ALIGNMENT PROGRAM ONLY.
003078:
003079: E5,1660  E5,1460               THETAX1            EQUALS   ALK        +2
003080: E5,1660  E5,1466               THETAN1            EQUALS   THETAX1    +6
003081: E5,1660  E5,1474               FILDELV1           EQUALS   THETAN1    +6
003082: E5,1660  E5,1476               INTVEC1            EQUALS   FILDELV1   +2
003083: E5,1660  E5,1631               GEOSAVE1           EQUALS   AINLA      +117D
003084: E5,1660  E5,1632               PREMTRX1           EQUALS   AINLA      +118D
003085: E5,1660  E5,1633               LUNCHAZ1           EQUALS   AINLA      +119D
003086: E5,1660  E5,1635               NEWAZ1             EQUALS   LUNCHAZ1   +2
003087: E5,1660  E5,1637               OLDAZ1             EQUALS   LUNCHAZ1   +4
003088: E5,1660  E5,1641               TOLDAZ1            EQUALS   LUNCHAZ1   +6
003089: E5,1660  E5,1643               GEOCOMP1           EQUALS   AINLA      +127D
003090: E5,1660  E5,1644               1SECXT1            EQUALS   AINLA      +128D
003091: E5,1660  E5,1645               GTSWTLT1           EQUALS   AINLA      +129D
003092: E5,1660  E5,1646               ERECTIM1           EQUALS   AINLA      +130D
003093: E5,1660  E5,1647               ERCOMP1            EQUALS   AINLA      +131D                      #  I(6)
003094: E5,1660  E5,1655               ZERONDX1           EQUALS   AINLA      +137D
003095: E5,1660  E5,1656               PERFDLAY           EQUALS   AINLA      +138D                      #  B(2).........
003096: E5,1660  E5,1657               ENDSYS-5           EQUALS   AINLA      +139D                      #  LAST SYS.TEST STORAGE IN E-5
003097:


003099:
003100:                                                                                                  #  END OF 504 CAL + ALIGN ERASE.
003101:


003103:
003104:                                                                                                  #        *-*-*-*-  OVERLAY 4 IN EBANK 5  -*-*-*-*
003105:
003106:                                                                                                  #        P32 -- P33                                                      (20D)
003107:
003108: E5,1660  E5,1610               UP1                EQUALS   DVLOS                                 #  I(6)
003109: E5,1660  E5,1616               VPASS2             EQUALS   UP1        +6                         #  I(6)
003110: E5,1660  E5,1624               RPASS2             EQUALS   VPASS2     +6                         #  I(6)
003111: E5,1660  E5,1632               DIFFALT            EQUALS   RPASS2     +6                         #  I(2)
003112:
003113:
003114:
003115:                                                                                                  #  P32,P33 STORAGE OVERLAYING 9X9 W-MATRIX LOCATIONS                     (32D)
003116:
003117: E5,1660  E5,1444               DELVEET1           EQUALS   9X9LOC1                               #  I(6) DELV FOR CSI
003118: E5,1660  E5,1452               RACT2              EQUALS   DELVEET1   +6                         #  I(6) POS. ACTIVE VEH. AT CDH TIME
003119: E5,1660  E5,1460               TCDH               EQUALS   RACT2      +6                         #  I(2)
003120: E5,1660  E5,1462               TCSI               EQUALS   TCDH       +2                         #  I(2)
003121: E5,1660  E5,1464               TTPI0              EQUALS   TCSI       +2                         #  I(2)
003122: E5,1660  E5,1532               VACT2              EQUALS   9X9LOC2                               #  I(6) VEL. ACTIVE VEH. AT CDH TIME
003123: E5,1660  E5,1540               RACT1              EQUALS   VACT2      +6                         #  I(6) POS. ACTIVE VEH. AT CSI TIME
003124: E5,1660  E5,1546               T1TOT2             EQUALS   RACT1      +6                         #  I(2) TCDH - TCSI
003125:
003126:
003127:
003128:                                                                                                  #        MARK COUNT FOR MINKEY R22, Q RETURN FOR N90/N81 DSP  P31,P36.   (2D)
003129:
003130: E5,1660  E5,1550               COUNT3MK           EQUALS   T1TOT2     +2                         #  I(1)
003131: E5,1660  E5,1551               N90RET             EQUALS   COUNT3MK   +1                         #  I(1)
003132:
003133:
003134:                                                                                                  #      MINKEY AFTERBURN TEMPORARIES FOR RESTART                          (24D)
003135:
003136: E5,1660  E5,1552               BURNTMP1           EQUALS   N90RET     +1                         #  I(6)
003137: E5,1660  E5,1560               BURNTMP2           EQUALS   BURNTMP1   +6                         #  I(6)
003138: E5,1660  E5,1566               BURNTMP3           EQUALS   BURNTMP2   +6                         #  I(6)
003139: E5,1660  E5,1574               BURNTMP4           EQUALS   BURNTMP3   +6                         #  I(6)
003140:


003142:
003143:                                                                                                  #                EBANK-6 ASSIGNMENTS
003144: E6,1400                                           SETLOC   3000
003145:
003146:                                                                                                  #        P23    PAD LOADS***                                             (2D).
003147:
003148: E6,1400                        WMIDPOS            ERASE                                          #  I(1) PL  INITIAL VALUES FOR W-MATRIX IN
003149: E6,1401                        WMIDVEL            ERASE                                          #  I(1) PL  CISLUNAR (P23) NAVIGATION
003150:
003151:
003152:
003153:                                                                                                  #        R22    PAD LOADS                                                ( 5D ).
003154:
003155: E6,1402                        RVAR               ERASE    +1                                    #  I(2) PL  VHF RADAR
003156: E6,1404                        RVARMIN            ERASE    +2                                    #  I(3) PL  VHF RADAR
003157:
003158:
003159:
003160:                                                                                                  #  ******** PAD LOADED ENTRY DAP STEERING VARIABLES ********             (3D)
003161:
003162: E6,1407                        LADPAD             ERASE                                          #  I(1) PL FOR ENTRY.HOLDS CM  NOMINAL L/D
003163: E6,1410                        LODPAD             ERASE                                          #  I(1) PL FOR ENTRY.HOLDS CM  NOMINAL LOD
003164: E6,1411                        ALFAPAD            ERASE                                          #  B(1) PL ALFA TRIM / 180
003165:
003166:
003167:                                                                                                  #        P37  PAD LOAD
003168:
003169: E6,1412                        P37RANGE           ERASE                                          #  I(1)PL
003170:
003171:
003172:                                                                                                  #  ******** PAD LOADED TVC DAP VARIABLES.********************************(26D)
003173:
003174: E6,1413                        ETDECAY            ERASE                                          #  I(1)PL
003175: E6,1414                        EKPRIME            ERASE    +1                                    #  B(2)PL
003176: E6,1416                        EKTLX/I            ERASE    +2                                    #  B(3)PL
003177: E6,1421                        EREPFRAC           ERASE    +1                                    #  B(2)PL
003178:
003179: E6,1423                        PACTOFF            ERASE                                          #  B(1)PL, DSP N48 R01 = PTRIM, R02 = YTRIM
003180: E6,1424                        YACTOFF            ERASE                                          #  B(1)PL, CONSECUTIVE WITH PACTOFF
003181:
003182: E6,1425                        HBN10              ERASE                                          #  B(1)
003183: E6,1426                        HBN11/2            ERASE                                          #  B(1)
003184: E6,1427                        HBN12              ERASE                                          #  B(1)
003185: E6,1430                        HBD11/2            ERASE                                          #  B(1)
003186: E6,1431                        HBD12              ERASE                                          #  B(1)
003187:
003188: E6,1432                        HBN20              ERASE                                          #  B(1)
003189: E6,1433                        HBN21/2            ERASE                                          #  B(1)
003190: E6,1434                        HBN22              ERASE                                          #  B(1)
003191: E6,1435                        HBD21/2            ERASE                                          #  B(1)
003192: E6,1436                        HBD22              ERASE                                          #  B(1)


003194: E6,1437                        HBN30              ERASE                                          #  B(1)
003195: E6,1440                        HBN31/2            ERASE                                          #  B(1)
003196: E6,1441                        HBN32              ERASE                                          #  B(1)
003197: E6,1442                        HBD31/2            ERASE                                          #  B(1)
003198: E6,1443                        HBD32              ERASE                                          #  B(1)
003199:
003200:                                                                                                  #  ******** EXCLUSIVE TVC DAP VARIABLES. **********************************(4D)
003201:
003202: E6,1444                        TEMPDAP            ERASE    +1                                    #  B(2)
003203: E6,1446  E6,1444               MRKRTMP            =        TEMPDAP                               #       ((B(1)))
003204: E6,1446                        CNTR               ERASE                                          #  B(1)
003205: E6,1447                        OGAD               ERASE                                          #  B(1)
003206:
003207:
003208:
003209:                                                                                                  #  ******** EXCLUSIVE RCS DAP VARIABLES. *********************************(13D)
003210:
003211: E6,1450                        RWORD1             ERASE    +12D                                  #  B(1)
003212: E6,1465  E6,1451               RWORD2             EQUALS   RWORD1     +1                         #  B(1)
003213: E6,1465  E6,1452               PWORD1             EQUALS   RWORD2     +1                         #  B(1)
003214: E6,1465  E6,1453               PWORD2             EQUALS   PWORD1     +1                         #  B(1)
003215: E6,1465  E6,1454               YWORD1             EQUALS   PWORD2     +1                         #  B(1)
003216: E6,1465  E6,1455               YWORD2             EQUALS   YWORD1     +1                         #  B(1)
003217: E6,1465  E6,1456               BLAST              EQUALS   YWORD2     +1                         #  B(2)
003218: E6,1465  E6,1460               BLAST1             EQUALS   BLAST      +2                         #  B(2)
003219: E6,1465  E6,1462               BLAST2             EQUALS   BLAST1     +2                         #  B(2)
003220: E6,1465  E6,1464               T5PHASE            EQUALS   BLAST2     +2                         #  B(1)
003221:
003222:
003223:
003224:                                                                                                  #  ******** RCS/TVC DAP COMMON STORAGE.************************************(17D)
003225:
003226: E6,1465                        DAPDATR1           ERASE                                          #  B(1)DSP NOUN 46(R1)
003227: E6,1466                        DAPDATR2           ERASE                                          #  B(1)DSP NOUN 46(R2)
003228:
003229: E6,1467     4076               DPCONFIG           =        OCT60000                              #  DAP CONFIG BITS
003230:
003231: E6,1467                        IXX                ERASE                                          #  B(1) CONSECUTIVE WITH IAVG, IAVG/TLX FOR
003232: E6,1470                        IAVG               ERASE                                          #  B(1)                            MASSPROP
003233: E6,1471                        IAVG/TLX           ERASE                                          #  B(1)
003234:
003235: E6,1472                        LEMMASS            ERASE                                          #  B(1)DSP NOUN 47(R2)
003236: E6,1473                        CSMMASS            ERASE    +1                                    #  B(2)
003237: E6,1475                        WEIGHT/G           ERASE
003238: E6,1476                        AK                 ERASE
003239: E6,1477                        AK1                ERASE
003240: E6,1500                        AK2                ERASE
003241:
003242: E6,1501                        RCSFLAGS           ERASE                                          #  B(1) CONSECUTIVE WITH AK2 DOWNLINK
003243: E6,1502                        T5TEMP             ERASE                                          #  B(1)


003245: E6,1503                        EDRIVEX            ERASE
003246: E6,1504                        EDRIVEY            ERASE
003247: E6,1505                        EDRIVEZ            ERASE
003248:
003249:
003250:                                                                                                  #        INTEMP THRU INTEMP+14D  ARE RESERVED FOR OVERLAYED TVC/RCS INTERUP TRUE TEMPORIES
003251: E6,1506                        INTTEMP            ERASE    +14D                                  #   (15)
003252:
003253:
003254:                                                                                                  #        TVC/RCS THRU TVCRCS +11D RESERVED FOR DOWNLINKED VARIABLES
003255:
003256: E6,1525                        TVCRCS             ERASE    +11D                                  #  (12)
003257:                                                                                                  #  RCS (WBODYS,ADOTS)
003258:                                                                                                  #  TVC(OMEGACS,OMEGABS)
003259:
003260:
003261:                                                                                                  #        TVC DAP TEMPORARY VARIABLES************************************
003262:
003263:                                                                                                  #        TVC DAP INTERUPT TRUE TEMPORARIES******************************
003264:
003265: E6,1541  E6,1506               PHI333             EQUALS   INTTEMP                               #  B(1)     COUNTING REGISTER
003266: E6,1541  E6,1507               PSI333             EQUALS   PHI333     +1                         #  B(1)     COUNTING REGISTER
003267: E6,1541  E6,1510               TEMP333            EQUALS   PSI333     +1                         #  B(1)     MASS TEMPORARY
003268: E6,1541  E6,1511               VARST0             EQUALS   TEMP333    +1                         #  B(8)     BREAKPOINTS AND SLOPES
003269: E6,1541  E6,1516               VARST5             =        VARST0     +5
003270: E6,1541  E6,1522               LASTMASP           EQUALS   VARST0     +9D                        #  LAST VARST0 WORD
003271:
003272:
003273:
003274:
003275:                                                                                                  #        *******REGULAR TVC TEMPORARIES*************
003276:
003277:
003278:                                                                                                  #        TVC ZEROING LOOP STARTS HERE
003279:
003280:
003281: E6,1541  E6,1525               OMEGAC             EQUALS   TVCRCS                                #  I(6)
003282: E6,1541  E6,1525               OMEGAXC            =        OMEGAC
003283: E6,1541  E6,1527               OMEGAYC            =        OMEGAC     +2
003284: E6,1541  E6,1531               OMEGAZC            =        OMEGAC     +4
003285:
003286: E6,1541  E6,1533               OMEGAB             EQUALS   TVCRCS     +6                         #  B(6)
003287: E6,1541  E6,1533               OMEGAXB            =        OMEGAB
003288: E6,1541  E6,1535               OMEGAYB            =        OMEGAB     +2
003289: E6,1541  E6,1537               OMEGAZB            =        OMEGAB     +4
003290:
003291: E6,1541  E6,1541               PTMP1              EQUALS   OMEGAC     +12D                       #  B(2)
003292: E6,1541  E6,1543               PTMP2              EQUALS   PTMP1      +2                         #  B(2)
003293: E6,1541  E6,1545               PTMP3              EQUALS   PTMP2      +2                         #  B(2)
003294: E6,1541  E6,1547               PTMP4              EQUALS   PTMP3      +2                         #  B(2)


003296: E6,1541  E6,1551               PTMP5              EQUALS   PTMP4      +2                         #  B(2)
003297: E6,1541  E6,1553               PTMP6              EQUALS   PTMP5      +2                         #  B(2)
003298:
003299: E6,1541  E6,1555               YTMP1              EQUALS   PTMP6      +2                         #  B(2)
003300: E6,1541  E6,1557               YTMP2              EQUALS   YTMP1      +2                         #  B(2)
003301: E6,1541  E6,1561               YTMP3              EQUALS   YTMP2      +2                         #  B(2)
003302: E6,1541  E6,1563               YTMP4              EQUALS   YTMP3      +2                         #  B(2)
003303: E6,1541  E6,1565               YTMP5              EQUALS   YTMP4      +2                         #  B(2)
003304: E6,1541  E6,1567               YTMP6              EQUALS   YTMP5      +2                         #  B(2)
003305:
003306: E6,1541  E6,1571               ROLLFIRE           EQUALS   YTMP6      +2                         #  B(1)
003307: E6,1541  E6,1572               ROLLWORD           EQUALS   ROLLFIRE   +1                         #  B(1)
003308: E6,1541  E6,1573               TEMREG             EQUALS   ROLLWORD   +1                         #  B(1)
003309:
003310: E6,1541  E6,1574               TVCDUMMY           EQUALS   TEMREG     +1                         #  DUMMY (NEED EVEN NUMBER OF LOCATIONS)
003311: E6,1541  E6,1575               PERRB              EQUALS   TVCDUMMY   +1                         #  B(2)
003312: E6,1541  E6,1577               YERRB              EQUALS   PERRB      +2                         #  B(2)
003313:
003314: E6,1541  E6,1601               DELPBAR            EQUALS   YERRB      +2                         #  B(2)
003315: E6,1541  E6,1603               DELYBAR            EQUALS   DELPBAR    +2                         #  B(2)
003316:
003317: E6,1541  E6,1605               PDELOFF            EQUALS   DELYBAR    +2                         #  B(2)
003318: E6,1541  E6,1607               YDELOFF            EQUALS   PDELOFF    +2                         #  B(2)
003319:
003320:
003321:                                                                                                  #        TVC ZEROING LOOP ENDS HERE
003322:
003323:
003324: E6,1541  E6,1611               TTMP1              EQUALS   YDELOFF    +2                         #  B(2)
003325: E6,1541  E6,1613               TTMP2              EQUALS   TTMP1      +2                         #  B(2)
003326:
003327: E6,1541  E6,1615               DAP1               EQUALS   TTMP2      +2                         #  B(2)
003328: E6,1541  E6,1617               DAP2               EQUALS   DAP1       +2                         #  B(2)
003329: E6,1541  E6,1621               DAP3               EQUALS   DAP2       +2                         #  B(2)
003330:
003331: E6,1541  E6,1623               PCMD               EQUALS   DAP3       +2                         #  B(1)
003332: E6,1541  E6,1624               YCMD               EQUALS   PCMD       +1                         #  B(1),  CONSECUTIVE WITH PCMD
003333: E6,1541  E6,1625               T5TVCDT            EQUALS   YCMD       +1                         #  B(1)
003334: E6,1541  E6,1626               KPRIMEDT           EQUALS   T5TVCDT    +1                         #  I(2)
003335: E6,1541  E6,1630               KTLX/I             EQUALS   KPRIMEDT   +2                         #  B(1)
003336: E6,1541  E6,1631               1/CONACC           EQUALS   KTLX/I     +1                         #  B(1)
003337: E6,1541  E6,1632               VARK               EQUALS   1/CONACC   +1                         #  B(1)
003338: E6,1541  E6,1633               REPFRAC            EQUALS   VARK       +1                         #  B(1)
003339: E6,1541  E6,1634               VCNTR              EQUALS   REPFRAC    +1                         #  B(1)
003340: E6,1541  E6,1635               TVCPHASE           EQUALS   VCNTR      +1                         #  B(1)
003341: E6,1541  E6,1636               PCDUYPST           EQUALS   TVCPHASE   +1                         #  B(1)
003342: E6,1541  E6,1637               PCDUZPST           EQUALS   PCDUYPST   +1                         #  B(1)
003343: E6,1541  E6,1640               YCDUYPST           EQUALS   PCDUZPST   +1                         #  B(1)
003344: E6,1541  E6,1641               YCDUZPST           EQUALS   YCDUYPST   +1                         #  B(1)
003345: E6,1541  E6,1642               MCDUYDOT           EQUALS   YCDUZPST   +1                         #  B(1)
003346: E6,1541  E6,1643               MCDUZDOT           EQUALS   MCDUYDOT   +1                         #  B(1)


003348: E6,1541  E6,1644               TVCEXPHS           EQUALS   MCDUZDOT   +1                         #  B(1)
003349:                                                                                                  #        TVC ROLL DAP VARIABLES
003350:
003351:                                                                                                  #  (8D)
003352: E6,1541  E6,1645               OGANOW             EQUALS   TVCEXPHS   +1
003353: E6,1541  E6,1646               OGAPAST            EQUALS   OGANOW     +1                         #  B(1)
003354: E6,1541  E6,1647               OGA                EQUALS   OGAPAST    +1                         #  B(1)TMP
003355: E6,1541  E6,1647               OGAERR             =        OGA                                   #  (ROLL DAP USES OGA, MEANS OGAERROR)
003356: E6,1541  E6,1650               DELOGART           EQUALS   OGA        +1                         #  B(1)TMP
003357: E6,1541  E6,1651               SGNRT              EQUALS   DELOGART   +1                         #  SIGN OF OGA RATE
003358: E6,1541  E6,1652               DELOGA             EQUALS   SGNRT      +1                         #  USED IN ROLL LOGIC
003359: E6,1541  E6,1653               I                  EQUALS   DELOGA     +1                         #  USED IN ROLL LOGIC
003360: E6,1541  E6,1654               IOGARATE           EQUALS   I          +1                         #  USED IN ROLL LOGIC
003361:
003362:                                                                                                  #        TVC DAP RESTART TEMPORARIES.
003363:
003364: E6,1541  E6,1655               PACTTMP            EQUALS   IOGARATE   +1                         #  B(2)
003365: E6,1541  E6,1657               YACTTMP            EQUALS   PACTTMP    +2                         #  B(2)
003366: E6,1541  E6,1661               CNTRTMP            EQUALS   YACTTMP    +2                         #  B(1)
003367: E6,1541  E6,1662               DELBRTMP           EQUALS   CNTRTMP    +1                         #  B(2)
003368: E6,1541  E6,1664               ERRBTMP            EQUALS   DELBRTMP   +2                         #  B(2)
003369: E6,1541  E6,1666               CMDTMP             EQUALS   ERRBTMP    +2                         #  B(2)
003370:
003371: E6,1541  E6,1670               TMP1               EQUALS   CMDTMP     +2                         #  B(2)
003372: E6,1541  E6,1672               TMP2               EQUALS   TMP1       +2                         #  B(2)
003373: E6,1541  E6,1674               TMP3               EQUALS   TMP2       +2                         #  B(2)
003374: E6,1541  E6,1676               TMP4               EQUALS   TMP3       +2                         #  B(2)
003375: E6,1541  E6,1700               TMP5               EQUALS   TMP4       +2                         #  B(2)
003376: E6,1541  E6,1702               TMP6               EQUALS   TMP5       +2                         #  B(2)
003377:
003378:                                                                                                  #        TVC DAP FILTER COEFFICIENTS TEMPORARIES
003379:
003380: E6,1541  E6,1704               COEFFADR           EQUALS   TMP6       +2                         #  B(1)
003381: E6,1541  E6,1705               N10                EQUALS   COEFFADR   +1                         #  I(15)
003382:
003383:
003384:                                                                                                  #        OVERLAYS WITHIN TVC DAP
003385:
003386: E6,1541  E6,1533               OGARATE            =        OMEGAB                                #  B(2)
003387:
003388: E6,1541  E6,1611               PHASETMP           =        TTMP1                                 #  B(1) RESTART FOR CSM/LM V46 SWITCH-OVER
003389: E6,1541  E6,1613               RTRNLOC            =        TTMP2                                 #  B(1) RESTART FOR CSM/LM V46 SWITCH-OVER
003390:
003391:
003392:
003393:                                                                                                  #        S40.9 STORAGE..........
003394:
003395: E6,1541  E6,1724               NBRCYCLS           EQUALS   N10        +15D                       #  B(1) COUNTER FOR P40,41 STEERING
003396: E6,1541  E6,1725               NBRCYCLP           EQUALS   NBRCYCLS   +1                         #  B(1) MAINTAIN ORDER
003397: E6,1541  E6,1726               DELVSUM            EQUALS   NBRCYCLP   +1                         #  I(6)  P40,P41
003398: E6,1541  E6,1734               DELVSUMP           EQUALS   DELVSUM    +6                         #  I(6) P40,P41
003399:


003401:
003402:                                                                                                  #        S40.8 TEMPORARY
003403:
003404: E6,1541  E6,1734               MASSTMP            EQUALS   DELVSUMP                              #  I(2)
003405:


003407:
003408:                                                                                                  #  ******** RCS DAP TEMPORARY VARIABLES.**********************************(95D)
003409:
003410:                                                                                                  #           **RCS INTERUPT TRUE TEMPS*************************            15D
003411:
003412: E6,1541  E6,1506               SPNDX              EQUALS   INTTEMP                               #  B(1)
003413: E6,1541  E6,1507               DPNDX              EQUALS   SPNDX      +1                         #  B(1)TMP
003414: E6,1541  E6,1510               KMPAC              EQUALS   DPNDX      +1                         #  B(2)TMP
003415: E6,1541  E6,1512               KMPTEMP            EQUALS   KMPAC      +2                         #  B(1)TMP
003416:
003417: E6,1541  E6,1513               XNDX1              EQUALS   KMPTEMP    +1                         #  B(1)TMP  XNDX1 THRU NYJETS ARE OVERLAYED
003418: E6,1541  E6,1514               XNDX2              EQUALS   XNDX1      +1                         #  B(1)TMP  BY OTHER DAP ERASABLES SO
003419: E6,1541  E6,1515               YNDX               EQUALS   XNDX2      +1                         #  B(1)TMP  SHOULD ALWAYS BE DEFINED IN
003420: E6,1541  E6,1516               ZNDX               EQUALS   YNDX       +1                         #  B(1)TMP  A BLOCK
003421: E6,1541  E6,1517               RINDEX             EQUALS   ZNDX       +1                         #  B(1)TMP
003422: E6,1541  E6,1520               PINDEX             EQUALS   RINDEX     +1                         #  B(1)TMP
003423: E6,1541  E6,1521               YINDEX             EQUALS   PINDEX     +1                         #  B(1)TMP
003424: E6,1541  E6,1522               NRJETS             EQUALS   YINDEX     +1                         #  B(1)TMP
003425: E6,1541  E6,1523               NPJETS             EQUALS   NRJETS     +1                         #  B(1)TMP
003426: E6,1541  E6,1524               NYJETS             EQUALS   NPJETS     +1                         #  B(1)TMP
003427:
003428: E6,1541  E6,1513               WTEMP              EQUALS   XNDX1                                 #  B(2)TMP  WTEMP THRU DELTEMPZ OVERLAY
003429: E6,1541  E6,1515               DELTEMPX           EQUALS   WTEMP      +2                         #  B(2)TMP  XNDX1 THRU NRJETS AND EDOT THRU
003430: E6,1541  E6,1517               DELTEMPY           EQUALS   DELTEMPX   +2                         #  B(2)TMP  ADBVEL
003431: E6,1541  E6,1521               DELTEMPZ           EQUALS   DELTEMPY   +2                         #  B(2)TMP
003432:
003433: E6,1541  E6,1515               EDOT               EQUALS   YNDX                                  #  B(2)TMP  EDOT THRU ADBVEL OVERLAY
003434: E6,1541  E6,1517               AERR               EQUALS   EDOT       +2                         #  B(1)TMP  YNDX THRU NPJETS AND DELTEMPX
003435: E6,1541  E6,1520               EDOTVEL            EQUALS   AERR       +1                         #  B(2)TMP   THRU DELTEMPZ
003436: E6,1541  E6,1522               AERRVEL            EQUALS   EDOTVEL    +2                         #  B(1)TMP
003437: E6,1541  E6,1523               ADBVEL             EQUALS   AERRVEL    +1                         #  B(1)TMP
003438:
003439:                                                                                                  #           *** REGULAR RCS TEMPS*****************************           (   ).
003440:
003441:                                                                                                  #            RCS ZEROING LOOP STARTS HERE**** ** **  ** ***   *** * *    (37)
003442:
003443: E6,1541  E6,1525               WBODY              EQUALS   TVCRCS                                #  B(2)TMP
003444: E6,1541  E6,1527               WBODY1             EQUALS   WBODY      +2                         #  B(2)TMP
003445: E6,1541  E6,1531               WBODY2             EQUALS   WBODY      +4                         #  B(2)TMP
003446: E6,1541  E6,1533               ADOT               EQUALS   WBODY2     +2                         #  B(2)TMP
003447: E6,1541  E6,1535               ADOT1              EQUALS   ADOT       +2                         #  B(2)TMP
003448: E6,1541  E6,1537               ADOT2              EQUALS   ADOT1      +2                         #  B(2)TMP
003449:
003450: E6,1541  E6,1541               MERRORX            EQUALS   ADOT2      +2                         #   (2)
003451: E6,1541  E6,1543               MERRORY            EQUALS   MERRORX    +2                         #   (2)
003452: E6,1541  E6,1545               MERRORZ            EQUALS   MERRORY    +2                         #   (2)
003453: E6,1541  E6,1547               DFT                EQUALS   MERRORZ    +2                         #          B(1)TMP
003454: E6,1541  E6,1550               DFT1               EQUALS   DFT        +1                         #  B(1)TMP
003455: E6,1541  E6,1551               DFT2               EQUALS   DFT1       +1                         #  B(1)TMP
003456: E6,1541  E6,1552               DRHO               EQUALS   DFT2       +1                         #  B(2)TMP
003457: E6,1541  E6,1554               DRHO1              EQUALS   DRHO       +2                         #  B(2)TMP


003459: E6,1541  E6,1556               DRHO2              EQUALS   DRHO1      +2                         #  B(2)TMP
003460: E6,1541  E6,1560               ATTSEC             EQUALS   DRHO2      +2                         #  B(1)TMP
003461: E6,1541  E6,1561               TAU                EQUALS   ATTSEC     +1                         #  B(1)TMP
003462: E6,1541  E6,1562               TAU1               EQUALS   TAU        +1                         #  B(1)TMP
003463: E6,1541  E6,1563               TAU2               EQUALS   TAU1       +1                         #  B(1)TMP
003464: E6,1541  E6,1564               BIAS               EQUALS   TAU2       +1                         #  B(1)TMP
003465: E6,1541  E6,1565               BIAS1              EQUALS   BIAS       +1                         #  B(1)TMP
003466: E6,1541  E6,1566               BIAS2              EQUALS   BIAS1      +1                         #  B(1)TMP
003467: E6,1541  E6,1567               ERRORX             EQUALS   BIAS2      +1                         #  B(1)TMP
003468: E6,1541  E6,1570               ERRORY             EQUALS   ERRORX     +1                         #  B(1)TMP
003469: E6,1541  E6,1571               ERRORZ             EQUALS   ERRORY     +1                         #  B(1)TMP
003470:
003471:
003472:
003473:                                                                                                  #        RCS ZERO LOOP ENDS HERE
003474:
003475:
003476:                                                                                                  #             MORE RCS                                                   (69D)
003477:
003478:
003479: E6,1541  E6,1572               THETADX            EQUALS   ERRORZ     +1                         #  B(1)TMP  MUST BE CONSECUTIVE WITH ERRORZ
003480: E6,1541  E6,1573               THETADY            EQUALS   THETADX    +1                         #  B(1)TMP
003481: E6,1541  E6,1574               THETADZ            EQUALS   THETADY    +1                         #  B(1)TMP
003482:
003483: E6,1541  E6,1575               DELCDUX            EQUALS   THETADZ    +1                         #  B(2)TMP
003484: E6,1541  E6,1577               DELCDUY            EQUALS   DELCDUX    +2                         #  B(2)TMP
003485: E6,1541  E6,1601               DELCDUZ            EQUALS   DELCDUY    +2                         #  B(2)TMP
003486:
003487: E6,1541  E6,1603               DCDU               EQUALS   DELCDUZ    +2                         #  B(6)TMP USED DURING P20
003488: E6,1541  E6,1611               DTHETASM           EQUALS   DCDU       +6                         #  B(6)TMP STEER LOW OUTPUT.
003489:
003490: E6,1541  E6,1617               ATTKALMN           EQUALS   DTHETASM   +6                         #  B(1)TMP
003491: E6,1541  E6,1620               KMJ                EQUALS   ATTKALMN   +1                         #  B(1)TMP
003492: E6,1541  E6,1621               KMJ1               EQUALS   KMJ        +1                         #  B(1)TMP
003493: E6,1541  E6,1622               KMJ2               EQUALS   KMJ1       +1                         #  B(1)TMP
003494: E6,1541  E6,1623               J/M                EQUALS   KMJ2       +1                         #  B(1)TMP
003495: E6,1541  E6,1624               J/M1               EQUALS   J/M        +1                         #  B(1)TMP
003496: E6,1541  E6,1625               J/M2               EQUALS   J/M1       +1                         #  B(1)TMP
003497: E6,1541  E6,1626               RACFAIL            EQUALS   J/M2       +1                         #  B(1)TMP
003498: E6,1541  E6,1627               RBDFAIL            EQUALS   RACFAIL    +1                         #  B(1)TMP
003499: E6,1541  E6,1630               ACORBD             EQUALS   RBDFAIL    +1                         #  B(1)TMP
003500: E6,1541  E6,1631               XTRANS             EQUALS   ACORBD     +1                         #  B(1)TMP
003501: E6,1541  E6,1632               CH31TEMP           EQUALS   XTRANS     +1                         #  B(1)TMP
003502: E6,1541  E6,1633               CHANTEMP           EQUALS   CH31TEMP   +1                         #  B(1)TMP
003503: E6,1541  E6,1634               T5TIME             EQUALS   CHANTEMP   +1                         #  B(1)TMP
003504: E6,1541  E6,1635               RHO                EQUALS   T5TIME     +1                         #  B(1)TMP
003505: E6,1541  E6,1636               RHO1               EQUALS   RHO        +1                         #  B(1)TMP
003506: E6,1541  E6,1637               RHO2               EQUALS   RHO1       +1                         #  B(1)TMP
003507: E6,1541  E6,1640               AMGB1              EQUALS   RHO2       +1                         #  B(1)TMP
003508: E6,1541  E6,1641               AMGB4              EQUALS   AMGB1      +1                         #  B(1)TMP


003510: E6,1541  E6,1642               AMGB5              EQUALS   AMGB4      +1                         #  B(1)TMP
003511: E6,1541  E6,1643               AMGB7              EQUALS   AMGB5      +1                         #  B(1)TMP
003512: E6,1541  E6,1644               AMGB8              EQUALS   AMGB7      +1                         #  B(1)TMP
003513: E6,1541  E6,1645               CAPSI              EQUALS   AMGB8      +1                         #  B(1)TMP
003514: E6,1541  E6,1646               CDUXD              EQUALS   CAPSI      +1                         #  B(2)TMP
003515: E6,1541  E6,1650               CDUYD              EQUALS   CDUXD      +2                         #  B(2)TMP
003516: E6,1541  E6,1652               CDUZD              EQUALS   CDUYD      +2                         #  B(2)TMP
003517: E6,1541  E6,1654               SLOPE              EQUALS   CDUZD      +2                         #  B(1)TMP
003518: E6,1541  E6,1655               ADB                EQUALS   SLOPE      +1                         #  B(1)TMP
003519: E6,1541  E6,1656               RMANNDX            EQUALS   ADB        +1                         #  B(1)TMP
003520: E6,1541  E6,1657               PMANNDX            EQUALS   RMANNDX    +1                         #  B(1)TMP
003521: E6,1541  E6,1660               YMANNDX            EQUALS   PMANNDX    +1                         #  B(1)TMP  MUST BE LAST VARIABLE IN RCS
003522:


003524:
003525:                                                                                                  #  ******** ENTRY DAP TEMPORARY VARIABLES.*********************************(69D)
003526:
003527:                                                                                                  #   ANGLE REGISTERS FOR ENTRY DAPS
003528:
003529: E6,1541  E6,1661               AOG                EQUALS   BCDU                                  #  1P
003530: E6,1541  E6,1662               AIG                EQUALS   AOG        +1                         #  1P
003531: E6,1541  E6,1663               AMG                EQUALS   AIG        +1                         #  1P
003532: E6,1541  E6,1664               ROLL/180           EQUALS   AMG        +1                         #  1P
003533: E6,1541  E6,1665               ALFA/180           EQUALS   ROLL/180   +1                         #  1P
003534: E6,1541  E6,1666               BETA/180           EQUALS   ALFA/180   +1                         #  1P
003535: E6,1541  E6,1667               AOG/PIP            EQUALS   BETA/180   +1                         #  1P
003536: E6,1541  E6,1670               AIG/PIP            EQUALS   AOG/PIP    +1                         #  1P
003537: E6,1541  E6,1671               AMG/PIP            EQUALS   AIG/PIP    +1                         #  1P
003538: E6,1541  E6,1672               ROLL/PIP           EQUALS   AMG/PIP    +1                         #  1P
003539: E6,1541  E6,1673               ALFA/PIP           EQUALS   ROLL/PIP   +1                         #  1P
003540: E6,1541  E6,1674               BETA/PIP           EQUALS   ALFA/PIP   +1                         #  1P
003541:
003542:                                                                                                  #  GYMBAL DIFFERENCES OVER INTERVAL TCDU = .1 SEC.
003543:
003544: E6,1541  E6,1675               -DELAOG            EQUALS   BETA/PIP   +1                         #  1P
003545: E6,1541  E6,1676               -DELAIG            EQUALS   -DELAOG    +1                         #  1P
003546: E6,1541  E6,1677               -DELAMG            EQUALS   -DELAIG    +1                         #  1P
003547:
003548:                                                                                                  #  ESTIMATED BODY RATES
003549:
003550: E6,1541  E6,1700               CMDAPMOD           EQUALS   -DELAMG    +1                         #  1P  GOES BEFORE PREL FOR TM.
003551:
003552: E6,1541  E6,1701               PREL               EQUALS   CMDAPMOD   +1                         #  1P   P TCDU/180      (ROLLDOT)
003553: E6,1541  E6,1702               QREL               EQUALS   PREL       +1                         #  1P   Q TCDU/180     (PITCHDOT)
003554: E6,1541  E6,1703               RREL               EQUALS   QREL       +1                         #  1P   R TCDU/180     (YAWDOT)
003555:
003556: E6,1541  E6,1704               BETADOT            EQUALS   RREL       +1                         #  1P  MUST FOLLOW RREL. BETADOT TCDU/180
003557: E6,1541  E6,1705               PHIDOT             EQUALS   BETADOT    +1                         #  1P
003558:
003559:                                                                                                  #  OLD (UNAVERAGED) BODY RATE MEASURE
003560:
003561: E6,1541  E6,1706               OLDELP             EQUALS   PHIDOT     +1                         #  1P
003562: E6,1541  E6,1707               OLDELQ             EQUALS   OLDELP     +1                         #  1P
003563: E6,1541  E6,1710               OLDELR             EQUALS   OLDELQ     +1                         #  1P
003564:
003565: E6,1541  E6,1711               JETAG              EQUALS   OLDELR     +1                         #  1P
003566: E6,1541  E6,1712               TUSED              EQUALS   JETAG      +1                         #  1P   ELAPSED TIME SINCE NOMINAL UPDATE.
003567:
003568:
003569:
003570:                                                                                                  #        FOLLOWING 3 SP WORDS IN DOWNLINK.  ROLLTM SENT EACH 1 SEC.
003571:
003572: E6,1541  E6,1713               PAXERR1            EQUALS   TUSED      +1                         #  1P   INTEGRATED ROLL ERROR/360.
003573: E6,1541  E6,1714               ROLLTM             EQUALS   PAXERR1    +1                         #  1P   ROLL/180 FOR TM.
003574: E6,1541  E6,1715               ROLLC              EQUALS   ROLLTM     +1                         #  2P   ROLLCOM/360 FROM ENTRY (FOR TM)
003575:                                                                                                  #  >> KEEP ROLLC & ROLLHOLD ADJACENT FOR TP


003577: E6,1541  E6,1717               ROLLHOLD           EQUALS   ROLLC      +2                         #  1P FOR ATTITUDE HOLD IN CMDAPMOD = +1
003578:
003579:                                                                                                  #        ENTRY DAP QUANTITIES THAT SHARE WITH RCS DAP.
003580:
003581: E6,1541  E6,1603               ALFACOM            EQUALS   DCDU                                  #  1P  KEEP ADJACENT TO BETACOM.  <<
003582: E6,1541  E6,1604               BETACOM            EQUALS   ALFACOM    +1                         #  1P
003583:
003584:                                                                                                  #  JET LIST:   DT, JETBITS  IN THIS ORDER.
003585:
003586: E6,1541  E6,1605               TOFF               EQUALS   BETACOM    +1                         #  1P   DP PAIR
003587: E6,1541  E6,1606               TBITS              EQUALS   TOFF       +1                         #  1P
003588: E6,1541  E6,1607               TON2               EQUALS   TBITS      +1                         #  1P   DP PAIR
003589: E6,1541  E6,1610               T2BITS             EQUALS   TON2       +1                         #  1P
003590:
003591:                                                                                                  #   MISCELLANEOUS PERMANENT ERASEABLE.
003592:
003593: E6,1541  E6,1611               OUTTAG             EQUALS   T2BITS     +1                         #  1P
003594: E6,1541  E6,1612               NUJET              EQUALS   OUTTAG     +1                         #  1P
003595:                                                                                                  #     MORE ENTRY DAP QUANTITIES THAT  DO NOT SHARE WITH RCS DAP.
003596:
003597: E6,1541  E6,1720               JETEM              EQUALS   ROLLHOLD   +1                         #  2P  THIS DP USED IN RATEAVG.
003598: E6,1541  E6,1722               GAMA               EQUALS   JETEM      +2                         #  1P
003599: E6,1541  E6,1723               GAMDOT             EQUALS   GAMA       +1                         #  1P
003600: E6,1541  E6,1724               POSEXIT            EQUALS   GAMDOT     +1                         #  1P
003601: E6,1541  E6,1725               CM/GYMDT           EQUALS   POSEXIT    +1                         #  1P
003602: E6,1541  E6,1726               HEADSUP            EQUALS   CM/GYMDT   +1                         #  1P  DSP NOUN 61 FOR P62,63,64,67.
003603: E6,1541  E6,1727               P63FLAG            EQUALS   HEADSUP    +1                         #  1P  INTERLOCK FOR WAKEP62
003604:
003605:
003606:                                                                                                  #                                >> SHARE BELOW WITH RCS RUPT TEMPS (< 15D) <<<
003607: E6,1541  E6,1506               CALFA              EQUALS   SPNDX                                 #  1P
003608: E6,1541  E6,1507               SALFA              EQUALS   CALFA      +1                         #  1P
003609:
003610: E6,1541  E6,1510               SINM               EQUALS   SALFA      +1                         #  1P
003611: E6,1541  E6,1511               COSM               EQUALS   SINM       +1                         #  1P
003612: E6,1541  E6,1512               SINO               EQUALS   COSM       +1                         #  1P
003613: E6,1541  E6,1513               COSO               EQUALS   SINO       +1                         #  1P
003614: E6,1541  E6,1514               SINOCOSM           EQUALS   COSO       +1                         #  1P
003615: E6,1541  E6,1515               COSOCOSM           EQUALS   SINOCOSM   +1                         #  1P
003616:                                                                                                  #                                >> SHARE ABOVE WITH RCS RUPT TEMPS          <<<
003617:
003618:                                                                                                  #        THE FOLLOWING FEW REGISTERS USED ONCE EACH 2 SEC.
003619:
003620: E6,1541  E6,1613               -VT/180            EQUALS   NUJET      +1                         #  1P
003621: E6,1541  E6,1614               LCX/360            EQUALS   -VT/180    +1                         #  1P
003622: E6,1541  E6,1615               XD/360             EQUALS   LCX/360    +1                         #  1P
003623: E6,1541  E6,1616               VSQ/4API           EQUALS   XD/360     +1                         #  1P
003624: E6,1541  E6,1617               JNDX               EQUALS   VSQ/4API   +1                         #  1P
003625: E6,1541  E6,1620               JNDX1              EQUALS   JNDX       +1                         #  1P


003627: E6,1541  E6,1621               TON1               EQUALS   JNDX1      +1                         #  1P   DP PAIR
003628: E6,1541  E6,1622               T1BITS             EQUALS   TON1       +1                         #  1P
003629:
003630:                                                                                                  #        MISCELLANEOUS REGISTERS USED EACH UPDATE.
003631:
003632: E6,1541  E6,1623               CM/SAVE            EQUALS   T1BITS     +1                         #  1P
003633: E6,1541  E6,1624               JETEM2             EQUALS   CM/SAVE    +1                         #  1P  TEMPORARY STORAGE
003634:
003635:                                                                                                  #        DAP   QUANTITIES SHARED WITH RCS DAP FOR TM & FLIGHT RECORDER.
003636:
003637: E6,1541  E6,1567               VDT/180            =        ERRORX                                #  1P   (EDIT)
003638: E6,1541  E6,1570               -VT/180E           =        ERRORY                                #  1P   (EDIT)
003639:
003640: E6,1541  E6,1476               PAXERR             EQUALS   AK                                    #  1P  ROLL ERROR FOR NEEDLES
003641: E6,1541  E6,1572               QAXERR             =        THETADX                               #  1P  SINCE AK1 IS ZEROED IN ATM DAP.
003642: E6,1541  E6,1573               RAXERR             =        QAXERR     +1                         #  1P  SINCE AK2 IS ZEROED IN TM DAP.
003643:
003644:
003645:
003646:                                                                                                  #        **** COLMANU (R60,R62) ****
003647:
003648: E6,1541  E6,1710               VECQTEMP           EQUALS   COFSKEW
003649:


003651:
003652:                                                                                                  #  ******** KALCMANU VARIABLES. (71D) *************************************
003653: E6,1541  E6,1661               BCDU               EQUALS   YMANNDX    +1                         #  B(3) TMP
003654: E6,1541  E6,1664               KSPNDX             EQUALS   BCDU       +3                         #  B(1)TMP
003655: E6,1541  E6,1665               KDPNDX             EQUALS   KSPNDX     +1                         #  B(1)TMP
003656:
003657: E6,1541  E6,1666               TMIS               EQUALS   KDPNDX     +1                         #  I(18) MUST BE IN SAME BANK AS RCS DAP
003658: E6,1541  E6,1710               COFSKEW            EQUALS   TMIS       +18D                       #  I(6)  MUST BE IN SAME BANK AS RCS DAP
003659: E6,1541  E6,1716               CAM                EQUALS   COFSKEW    +6                         #  I(2)  MUST BE IN SAME BANK AS RCS DAP
003660:
003661: E6,1541  E6,1720               MIS                EQUALS   CAM        +2                         #  I(18)  (THE REST MAY GO ANYWHERE)
003662: E6,1541  E6,1742               COF                EQUALS   MIS        +18D                       #  I(6)TMP
003663: E6,1541  E6,1750               SCAXIS             EQUALS   COF        +6                         #  I(6)TMP
003664: E6,1541  E6,1756               POINTVSM           EQUALS   SCAXIS     +6                         #  I(6)TMP
003665: E6,1541  E6,1764               AM                 EQUALS   POINTVSM   +6                         #  I(2)TMP
003666: E6,1541  E6,1766               RAD                EQUALS   AM         +2                         #  I(2)TMP
003667:
003668:
003669:                                                                                                  #  FIRST-ORDER OVERLAYS IN KALCMANU                                      (12D+8D)
003670:
003671: E6,1541  E6,1666               MFISYM             EQUALS   TMIS                                  #  I   TMP
003672: E6,1541  E6,1666               TMFI               EQUALS   TMIS                                  #  I   TMP
003673: E6,1541  E6,1666               NCDU               EQUALS   TMIS                                  #  B   TMP
003674: E6,1541  E6,1671               NEXTIME            EQUALS   TMIS       +3                         #  B   TMP
003675: E6,1541  E6,1672               TTEMP              EQUALS   TMIS       +4                         #  B   TMP
003676: E6,1541  E6,1674               BIASTEMP           EQUALS   TMIS       +6                         #  B   TMP
003677: E6,1541  E6,1710               BRATE              EQUALS   COFSKEW                               #  B   TMP
003678: E6,1541  E6,1716               TM                 EQUALS   CAM                                   #  B   TMP
003679:
003680:                                                                                                  #        UT TEMPS
003681:
003682: E6,1541  E6,1750               UTX                EQUALS   SCAXIS                                #  I(6)
003683: E6,1541  E6,1756               UTY                EQUALS   POINTVSM                              #  I(6)
003684:
003685:
003686:                                                                                                  #        SATURN BOOST STORAGE. SAVE TILL RCS DAP OPERATION.              (17D)
003687:
003688: E6,1541  E6,1661               POLYNUM            EQUALS   BCDU                                  #  B(15) PAD LOADED
003689: E6,1541  E6,1673               POLYLOC            =        POLYNUM    +10D
003690: E6,1541  E6,1700               SATRLRT            EQUALS   POLYNUM    +15D                       #  B(2)  PAD LOADED
003691:
003692:
003693:
003694:                                                                                                  #        MORE P11 STORAGE -PAD LOADED-                                   (2D)
003695:
003696:                                                                                                  #        (NOTE: THIS PAD LOAD WILL NOT BE PRESERVED THROUGHOUT THE MISSION AS IT SHARES STORAGE WITH KALCMANU,
003697:                                                                                                  #         ENTRY DAP AND TVC DAP)
003698:
003699: E6,1541  E6,1702               RPSTART            EQUALS   SATRLRT    +2                         #  B(1) PITCH ROLL START TIME
003700: E6,1541  E6,1703               POLYSTOP           EQUALS   RPSTART    +1                         #  B(1) POLY CUTOFF MINUS RPSTART SEC
003701:
003702:


003704:
003705:                                                                                                  #        P11 STORAGE                                                     (4D)
003706:
003707: E6,1541  E6,1704               SPOLYARG           EQUALS   POLYSTOP   +1                         #  B(1)TMP ARG FOR POLY
003708: E6,1541  E6,1705               BOOSTEMP           EQUALS   SPOLYARG   +1                         #  B(3)TEMP
003709:
003710:
003711:                                                                                                  #  P11 SATURN I/F                                                        (9D)
003712:
003713: E6,1541  E6,1710               SATRATE            EQUALS   BOOSTEMP   +3                         #  B(4)PL MANEUVER RATES FOR SATURN STICK
003714: E6,1541  E6,1714               SATSW              EQUALS   SATRATE    +4                         #  B(1)TEM STATUS SW FOR BOOST TAKEOVER
003715: E6,1541  E6,1715               BIASAK             EQUALS   SATSW      +1                         #  B(3)TEM STORE AK BIAS FOR BOOST TAKEOVER
003716: E6,1541  E6,1720               SATSCALE           EQUALS   BIASAK     +3                         #  B(1) SCALE FACTOR FOR SATURN STEERING
003717:
003718:
003719:
003720:                                                                                                  #        P21 STORAGE.                                                    (1D)
003721:
003722: E6,1541  E6,1770               GENRET             EQUALS   RAD        +2                         #  B(1)TMP
003723:
003724:
003725:                                                                                                  #        R61CSM STORAGE.                                                 (1D)
003726:
003727: E6,1541  E6,1771               SAVBNK             EQUALS   GENRET     +1                         #  B(1) S-S SAVE EBANK FOR R61 SUBROUTINE
003728:
003729:
003730:                                                                                                  #  R67 STORAGE                                                           (1D)
003731:
003732: E6,1541  E6,1772               RATEPTC            EQUALS   SAVBNK     +1                         #  B(1)
003733:
003734:
003735:                                                                                                  #        PERMANENT STORAGE FOR P20 DEADBAND                              (1D)
003736:
003737: E6,1541  E6,1773               DBPTC              EQUALS   RATEPTC    +1                         #  B(1)
003738:
003739:
003740:                                                                                                  #  R61,R67 STORAGE.                                                      (1D)
003741:
003742:
003743: E6,1541  E6,1774               R61CNTR            EQUALS   DBPTC      +1                         #  B(1)
003744:                                                                                                  #        ENTRY RESTART PROTECTION STORAGE. -KEEP TEMPS IN ORDER-         (12D)
003745:
003746: E6,1541  E6,1770               TEMPROLL           EQUALS   GENRET                                #  B(1)TMP COPY CYCLE REGISTER
003747: E6,1541  E6,1771               TEMPALFA           EQUALS   TEMPROLL   +1                         #  B(1)TMP COPY CYCLE REGISTER
003748: E6,1541  E6,1772               TEMPBETA           EQUALS   TEMPALFA   +1                         #  B(1)TMP COPY CYCLE REGISTER
003749: E6,1541  E6,1773               60GENRET           EQUALS   TEMPBETA   +1                         #  B(1)TMP QSAVE FOR S61.1 AND ENTRY.
003750: E6,1541  E6,1774               S61DT              EQUALS   60GENRET   +1                         #  B(1)TMP VARIABLE DT FOR S61.1 RESTART.
003751:
003752:
003753:
003754:                                                                                                  #        ENTRY TM SHARING FOR ACCELERATION PROFILE.
003755:


003757: E6,1541  E6,1533               XPIPBUF            EQUALS   ADOT                                  #  B(1) PIPA BUFFER FOR TM DURING ENTRY.
003758: E6,1541  E6,1534               YPIPBUF            EQUALS   XPIPBUF    +1                         #  B(1) PIPS FILED HERE EACH .5 SEC APPEAR
003759: E6,1541  E6,1535               ZPIPBUF            EQUALS   YPIPBUF    +1                         #  B(1) ON DOWNLIST ONCE PER SECOND DURING
003760: E6,1541  E6,1536               XOLDBUF            EQUALS   ZPIPBUF    +1                         #  B(1) ENTRY AFTER RCS DAP HAS BEEN DIS-
003761: E6,1541  E6,1537               YOLDBUF            EQUALS   XOLDBUF    +1                         #  B(1) ABLED. NEWEST PIP VALUE REPLACES
003762: E6,1541  E6,1540               ZOLDBUF            EQUALS   YOLDBUF    +1                         #  B(1) PIPBUF,WHICH IS MOVED INTO OLDBUF.
003763:
003764:
003765:                                                                                                  #        REENTRY VARIABLES SHARED WITH RCS DAP FOR TM & FLIGHT RECORDER.
003766:
003767: E6,1541  E6,1574               Q7                 =        THETADZ                               #  I(2)   HI-WORD ONLY ON DNLIST.
003768:
003769: E6,1541  E6,1525               ASPS(TM)           =        WBODY                                 #  I(6) DWN
003770:                                                                                                  #        ASKEP,ASP1,ASPUP,ASPDN,ASP3,ASP3+1
003771:
003772:                                                                                                  #        P23 PAD LOAD (2D)
003773:
003774: E6,1541  E6,1775               HORISLP            EQUALS   R61CNTR    +1                         #  I(2)PL
003775:


003777:
003778:                                                                                                  #                EBANK-7 ASSIGNMENTS
003779:
003780: E7,1400                                           SETLOC   3400
003781:
003782:
003783:                                                                                                  #        *-*-*-*- OVERLAY 0 IN EBANK 7 -*-*-*-*
003784:
003785:                                                                                                  #        EXTERNAL DELTA-V UPDATE.                                        (21D)
003786:
003787:                                                                                                  #        (MUST BE IN ORDER FOR UPDATE PROGRAM. ALSO ENTRY PROGRAMS PICK UP 'LAT(SPL)' WITH A VLOAD.)
003788:
003789: E7,1400                        LAT(SPL)           ERASE    +20D                                  #  I(2)      DSP NOUN 61 FOR P62,63,64,67
003790: E7,1425  E7,1402               LNG(SPL)           EQUALS   LAT(SPL)   +2                         #  I(2)DSP NOUN 61 FOR P62,63,64,67.
003791:
003792: E7,1425  E7,1404               DELVSLV            EQUALS   LNG(SPL)   +2                         #  I(6)TMP DELTA VEL VECT, LOC VER COORDS
003793: E7,1425  E7,1412               TIG                EQUALS   DELVSLV    +6                         #  B(2)DSP NOUN 33 FOR X-V84(R32),P30,40.
003794: E7,1425  E7,1414               RTARG              EQUALS   TIG        +2                         #  I(6)IN  DESIRED VEHICHE RADIUS VECTOR
003795: E7,1425  E7,1422               DELLT4             EQUALS   RTARG      +6                         #  I(2)IN  TIME DIFFERENCE FOR INITVEL
003796: E7,1425  E7,1424               ECSTEER            EQUALS   DELLT4     +2                         #  I(1)PL   FOR P40 S
003797: E7,1425  E7,1404               DELVLVC            =        DELVSLV
003798: E7,1425                        END-DELV           ERASE                                          #  *NEXT AVAIL LOC AFTER UNSHARED E7*
003799:
003800:
003801:
003802:                                                                                                  #        SERVICER STORAGE.                                               (12D)
003803:
003804: E7,1426  E7,1425               DVTOTAL            EQUALS   END-DELV                              #  B(2) DSP NOUN 40,99 FOR P30,34,35,40
003805: E7,1426  E7,1427               TGO                EQUALS   DVTOTAL    +2                         #  B(2)
003806: E7,1426  E7,1431               DELVREF            EQUALS   TGO        +2                         #  I(6)TMP
003807: E7,1426  E7,1447               NOMTIG             EQUALS   END-KALC                              #  I(2) (CAN NOT SHARE WITH KALCMANU
003808:                                                                                                  #  OR DELVREF)
003809: E7,1426  E7,1451               END-SVCR           EQUALS   NOMTIG     +2                         #  ***NEXT AVAILABLE AFTER SERVICER
003810:
003811:
003812:
003813:                                                                                                  #        ALIGNMENT STORAGE.                                              (7D)
003814:
003815: E7,1426  E7,1451               VEL/C              EQUALS   END-SVCR                              #  I(6)TMP
003816: E7,1426  E7,1457               R53EXIT            EQUALS   VEL/C      +6                         #  I(1)TMP
003817:
003818:                                                                                                  #        ALIGNMENT MARKDATA (DOWNLNK) ******                             (7D)
003819: E7,1426  E7,1460               MARK2DWN           EQUALS   R53EXIT    +1                         #  (7)  USED BY ALLIGNMENT P50S
003820:


003822:
003823:                                                                                                  #        *-*-*-*- OVERLAY 1 IN EBANK 7 -*-*-*-*
003824:
003825:                                                                                                  #  REENTRY ERASABLES                                                     (181D+4D)
003826:
003827: E7,1426  E7,1451               RTINIT             EQUALS   END-SVCR                              #  6P
003828: E7,1426  E7,1457               RTEAST             EQUALS   RTINIT     +6                         #  6P
003829: E7,1426  E7,1465               RTNORM             EQUALS   RTEAST     +6                         #  6P
003830: E7,1426  E7,1473               RT                 EQUALS   RTNORM     +6                         #  6P
003831: E7,1426  E7,1501               UNI                EQUALS   RT         +6                         #  6P
003832: E7,1426  E7,1507               UNITV              EQUALS   UNI        +6                         #  6P
003833: E7,1426  E7,1515               VEL                EQUALS   UNITV      +6                         #  6P
003834:
003835: E7,1426  E7,1523               TIME/RTO           EQUALS   VEL        +6                         #  2P   TIME OF INITIAL TARGET, RTO.
003836: E7,1426  E7,1525               -VREL              EQUALS   TIME/RTO   +2                         #  6P
003837: E7,1426  E7,1533               OLDUYA             EQUALS   -VREL      +6                         #  6P   USED BY CM/POSE    (ENTRY DAP)
003838: E7,1426  E7,1541               UXA/2              EQUALS   OLDUYA     +6                         #  6P   USED BY CM/POSE  (ENTRY DAP)  -UVA
003839: E7,1426  E7,1541               URH                =        UXA/2                                 #            P61 DISPLAY NOUN
003840: E7,1426  E7,1547               UYA/2              EQUALS   UXA/2      +6                         #  6P   USED BY CM/POSE  (ENTRY DAP)   UYA
003841: E7,1426  E7,1555               UZA/2              EQUALS   UYA/2      +6                         #  6P   USED BY CM/POSE  (ENTRY DAP)   UNA
003842: E7,1426  E7,1563               UBX/2              EQUALS   UZA/2      +6                         #  6P   USED BY CM/POSE  (ENTRY DAP)
003843: E7,1426  E7,1571               UBY/2              EQUALS   UBX/2      +6                         #  6P   USED BY CM/POSE  (ENTRY DAP)
003844: E7,1426  E7,1577               UBZ/2              EQUALS   UBY/2      +6                         #  6P   USED BY CM/POSE  (ENTRY DAP)
003845:
003846: E7,1426  E7,1605               DTEAROT            EQUALS   UBZ/2      +6                         #  2P
003847: E7,1426  E7,1607               DIFF               EQUALS   DTEAROT    +2                         #  2P
003848: E7,1426  E7,1611               DIFFOLD            EQUALS   DIFF       +2                         #  2P
003849: E7,1426  E7,1613               FACTOR             EQUALS   DIFFOLD    +2                         #  2P
003850: E7,1426  E7,1615               FACT1              EQUALS   FACTOR     +2                         #  2P
003851: E7,1426  E7,1617               FACT2              EQUALS   FACT1      +2                         #  2P
003852:                                                                                                  # Q7             =       THETADZ           2P  SHARED FOR TM.   P64-P66
003853: E7,1426  E7,1621               VSQUARE            EQUALS   FACT2      +2                         #  2P
003854: E7,1426  E7,1623               LAD                EQUALS   VSQUARE    +2                         #  2P
003855: E7,1426  E7,1625               LOD                EQUALS   LAD        +2                         #  2P
003856: E7,1426  E7,1627               L/DCMINR           EQUALS   LOD        +2                         #  2P
003857: E7,1426  E7,1631               KLAT               EQUALS   L/DCMINR   +2                         #  2P
003858: E7,1426  E7,1633               L/D                EQUALS   KLAT       +2                         #  2P
003859: E7,1426  E7,1635               L/D1               EQUALS   L/D        +2                         #  2P
003860: E7,1426  E7,1724               LEWD               =        VIO                                   #  2P   SHARED FOR TM.  P64-P65
003861: E7,1426  E7,1637               D                  EQUALS   L/D1       +2                         #  2P   DSP NOUN 64,66,68 FOR P63,64,67
003862:                                                                                                  # V1             =       ENDBUF +1         2P   SHARED FOR TM.  P64-P65
003863: E7,1426  E7,1641               DLEWD              EQUALS   D          +2                         #  2P
003864: E7,1426  E7,1643               K2ROLL             EQUALS   DLEWD      +2                         #  2 P
003865: E7,1426  E7,1645               GOTOADDR           EQUALS   K2ROLL     +2                         #  1P
003866: E7,1426  E7,1646               TEM1B              EQUALS   GOTOADDR   +1                         #  2 P
003867: E7,1426  E7,1650               MM                 EQUALS   TEM1B      +2                         #  2 P
003868: E7,1426  E7,1651               GRAD               EQUALS   MM         +1                         #  1P
003869: E7,1426  E7,1652               FX                 EQUALS   GRAD       +1                         #  1P   OVERWRITES NEXT 5 LOCS IN P67.
003870: E7,1426  E7,1653               LEQ                EQUALS   FX         +1                         #  2P
003871: E7,1426  E7,1655               DHOOK              EQUALS   LEQ        +2                         #  2P
003872: E7,1426  E7,1657               AHOOKDV            EQUALS   DHOOK      +2                         #  2P


003874: E7,1426  E7,1661               DVL                EQUALS   AHOOKDV    +2                         #  2P
003875:                                                                                                  # A0             =       ENDBUF +3         2P    SHARED FOR TM.(HI-WD ) P64-P65
003876: E7,1426  E7,1663               A1                 EQUALS   DVL        +2                         #  2P
003877: E7,1426  E7,1665               VBARS              EQUALS   A1         +2                         #  2P
003878: E7,1426  E7,1667               COSG/2             EQUALS   VBARS      +2                         #  2P
003879: E7,1426                        GAMMAL1            =        22D                                   #  2P
003880: E7,1426  E7,1671               VS1                EQUALS   COSG/2     +2                         #  2P
003881: E7,1426  E7,1673               V                  EQUALS   VS1        +2                         #  2P
003882:                                                                                                  # VREF           =       THETAD +2         2P   SHARED FOR TM    P65
003883: E7,1426  E7,1675               LATANG             EQUALS   V          +2                         #  2P   ADJACENT FOR TM.
003884: E7,1426  E7,1677               RDOT               EQUALS   LATANG     +2                         #  2P   ADJACENT FOR TM.
003885: E7,1426  E7,1701               THETAH             EQUALS   RDOT       +2                         #  2P   DSP NOUN 64,67 FOR P63,64,67
003886:                                                                                                  # RDOTREF        =       THETAD            2P   SHARED FOR TM     P65
003887: E7,1426  E7,1703               ALP                EQUALS   THETAH     +2                         #  2P
003888:
003889: E7,1426  E7,1730               ASKEP              =        ASPS                                  #  2P)                 THESE ARE STORED IN
003890: E7,1426  E7,1731               ASP1               =        ASPS       +1                         #  2P)                 SEQUENCE,OVERLAPPING
003891: E7,1426  E7,1732               ASPUP              =        ASPS       +2                         #  2P)>HI-WD OF EACH<  HI-WORD ONLY APPEARS
003892: E7,1426  E7,1733               ASPDWN             =        ASPS       +3                         #  2P)                 ON DOWNLIST, EXCEPT
003893: E7,1426  E7,1734               ASP3               =        ASPS       +4                         #  2P)                 ASP3 IS COMPLETE.
003894:
003895: E7,1426  E7,1705               C/D0               EQUALS   ALP        +2                         #  2P   -1/D0
003896: E7,1426  E7,1707               D0                 EQUALS   C/D0       +2                         #  I(2)    CONSTANT DRAG
003897: E7,1426  E7,1711               Q2                 EQUALS   D0         +2                         #  2P
003898:
003899:                                                                                                  #        ROLLC IS LOCATED IN EBANK= AOG TO AID ENTRY DAP.
003900: E7,1426  E7,1713               RTGO               EQUALS   Q2         +2                         #  2P   DSP NOUN 66 FOR P64,P67.
003901: E7,1426  E7,1715               DNRNGERR           EQUALS   RTGO       +2                         #  2P DSP NOUN 66 FOR P64,67.
003902: E7,1426  E7,1675               XRNGERR            =        LATANG                                #       FOR DISKY DISPLAY
003903: E7,1426  E7,1717               KAT                EQUALS   DNRNGERR   +2                         #  2P
003904: E7,1426  E7,1721               GMAX               EQUALS   KAT        +2                         #  1P  DSP NOUN 60 FOR P61,62,63.
003905:                                                                                                  #  GMAX IS LOADED IN DOUBLE PRECISION
003906: E7,1426  E7,1726               L/DCALC            =        TTE                                   #  2P  CALCULATED L/D FOR TM:  P64 - P67.
003907:
003908:
003909: E7,1426  E7,1756               VL                 =        VPRED                                 #  2P  SHARED FOR TM  P64-P65
003910: E7,1426  E7,1760               GAMMAL             =        GAMMAEI                               #  2P  SHARED FOR TM  P64
003911: E7,1426  E7,1760               PREDANG            =        GAMMAEI                               #       FOR TM IN P67.
003912: E7,1426  E7,1761               JJ                 =        PREDANG    +1                         #       FOR TM IN P67.
003913:
003914:
003915:                                                                                                  #     ENTRY P11  P15
003916:
003917: E7,1426  E7,1722               VMAGI              EQUALS   GMAX       +1                         #  2P DSP NOUN 62,64,68 FOR P11,63,64.
003918:
003919: E7,1426  E7,1724               VIO                EQUALS   VMAGI      +2                         #  2P  DSP NOUN 63 FOR P61.
003920: E7,1426  E7,1726               TTE                EQUALS   VIO        +2                         #  2P  DSP NOUN 63 FOR P61.
003921:
003922:
003923: E7,1426  E7,1730               ASPS               EQUALS   TTE        +2                         #  I(2)     HI-WORD ONLY ON DNLIST FOR TEMP


003925: E7,1426  E7,1732               TTE1               EQUALS   ASPS       +2                         #  I(2ETMP HOLDS UNDECREMENTED TTE VALUE
003926:
003927:
003928: E7,1426  E7,1734               TTE2               EQUALS   TTE1       +2                         #  I(2) HOLDS COMPENSATED TTE VALUE DURING
003929:                                                                                                  #       P61 THRU P63 FOR  N63 DISPLAY
003930:
003931:                                                                                                  #        **** P6OS ****                                                  (2D)
003932:
003933: E7,1426  E7,1713               RTGON64            EQUALS   RTGO                                  #  RANGE ERRORS NEGATIVE IF FALLS SHORT
003934: E7,1426  E7,1713               RTGON67            EQUALS   RTGO                                  #     DSP NOUN 67
003935:
003936:
003937:
003938:                                                                                                  #        REENTRY, RETURN TO EARTH COMMON DISPLAY.                        (4D)
003939:
003940: E7,1426  E7,1756               VPRED              EQUALS   BETA12     +2                         #  DSP NOUN 60 FOR P61,   ,62,63.
003941: E7,1426  E7,1760               GAMMAEI            EQUALS   VPRED      +2                         #  DSP NOUN 60 FOR P61,   ,62,63.
003942:
003943:
003944:
003945:                                                                                                  #        DISPLAY REGISTER FOR VG                                         (2D)
003946:
003947: E7,1426  E7,1762               VGDISP             EQUALS   GAMMAEI    +2                         #  B(2)DSP N.40,42,99 FOR P30,34,35,37,40,
003948:                                                                                                  #            41 VG DISPLAY
003949:
003950:
003951:                                                                                                  #        SOME P11 DISPLAY REGISTERS.                                     (4D)
003952:
003953: E7,1426  E7,1736               ALTI               EQUALS   TTE2       +2                         #  2P DSP NOUN 62 FOR P11
003954: E7,1426  E7,1740               HDOT               EQUALS   ALTI       +2                         #  2P DSP NOUN 62 FOR P11.
003955:
003956:                                                                                                  #        P15,S11.1 INTERFACE                                             (4D)
003957:
003958: E7,1426  E7,1722               VNOW               =        VMAGI
003959:
003960: E7,1426  E7,1724               VGTLI              EQUALS   VMAGI      +2                         #  I(2)TMP
003961:


003963:
003964:                                                                                                  #        *-*-*-*- OVERLAY 2 IN EBANK 7 -*-*-*-*
003965:
003966:                                                                                                  #        KALCMANU STORAGE.                                               (18D)
003967:
003968: E7,1426  E7,1425               MFS                EQUALS   END-DELV                              #  I(18)
003969: E7,1426  E7,1425               MFI                EQUALS   MFS                                   #  I   TMP
003970: E7,1426  E7,1425               DEL                EQUALS   MFS                                   #  I   TMP
003971: E7,1426  E7,1447               END-KALC           EQUALS   MFS        +18D                       #  **NEXT AVAIL LOC AFTER KALCMANU **
003972:
003973:
003974:                                                                                                  #        MEASUREMENT INCORPORATION STORAGE(R22) STORAGE.                 (56D)
003975:
003976: E7,1426  E7,1447               TX789              EQUALS   END-KALC                              #  I(6)TMP
003977: E7,1426  E7,1455               GAMMA              EQUALS   TX789      +6                         #  I(2)TMP
003978: E7,1426  E7,1457               OMEGA              EQUALS   GAMMA      +2                         #  I(18)TMP
003979: E7,1426  E7,1501               BVECTOR            EQUALS   OMEGA      +18D                       #  I(18)TMP
003980: E7,1426  E7,1523               DELTAQ             EQUALS   BVECTOR    +18D                       #  I(2)TMP
003981: E7,1426  E7,1525               VARIANCE           EQUALS   DELTAQ     +2                         #  I(3)TMP
003982: E7,1426  E7,1530               RCLP               EQUALS   VARIANCE   +3                         #  I(6)TMP
003983: E7,1426  E7,1536               GRP2SVQ            EQUALS   RCLP       +6                         #  I(1)TMP QSAVE FOR RESTARTS
003984:
003985:
003986:                                                                                                  #        P22 TEMP
003987:
003988: E7,1426  E7,1501               S22UMRL            EQUALS   BVECTOR                               #  I(18)
003989:
003990:
003991:                                                                                                  #        P20, P22, P23 DSP NOUN                                          (5D)
003992:
003993: E7,1426  E7,1501               N49DISP            EQUALS   BVECTOR                               #  B(5)TMP
003994:
003995:
003996:                                                                                                  #        S22.1 STORAGE.                                                  (36D)
003997:
003998: E7,1426  E7,1537               SVMRKDAT           EQUALS   GRP2SVQ    +1                         #  I(36)TMP 5 SETS OF MARK DATA +PAD OF ONE
003999:
004000:
004001:                                                                                                  #        **** CISLUNAR NAV. ERAS. (P20S) ****                            (42D)
004002:
004003: E7,1426  E7,1603               UBAR0              EQUALS   SVMRKDAT   +36D
004004: E7,1426  E7,1611               UBAR1              EQUALS   UBAR0      +6
004005: E7,1426  E7,1617               UBAR2              EQUALS   UBAR1      +6
004006: E7,1426  E7,1625               RZC                EQUALS   UBAR2      +6
004007: E7,1426  E7,1633               VZC                EQUALS   RZC        +6
004008: E7,1426  E7,1641               UCLSTAR            EQUALS   VZC        +6
004009: E7,1426  E7,1647               USSTAR             EQUALS   UCLSTAR    +6
004010:


004012:
004013:                                                                                                  #        *-*-*-*- OVERLAY 3 IN EBANK 7 -*-*-*-*
004014:
004015:                                                                                                  #        RENDEZVOUS GUIDANCE STORAGE. - P32...P35 -                      (8D)
004016:
004017: E7,1426  E7,1447               DELTEEO            EQUALS   END-KALC                              #  I(2) S-S BACK VALUES OF DELTA TIME
004018: E7,1426  E7,1451               DELEL              EQUALS   DELTEEO    +2                         #  I(2) S-S
004019: E7,1426  E7,1453               SECMAX             EQUALS   DELEL      +2                         #  I(2) S-S MAX STOP SIZE FOR ROUTINE
004020: E7,1426  E7,1455               XXXALT             EQUALS   SECMAX     +2                         #  I(2)
004021:
004022:
004023:
004024:                                                                                                  #        S40.9 STORAGE.                                                  (16D)
004025:
004026: E7,1426  E7,1457               VG                 EQUALS   XXXALT     +2                         #  I(6)TMP
004027: E7,1426  E7,1465               VRPREV             EQUALS   VG         +6                         #  I(6)
004028: E7,1426  E7,1473               TNIT               EQUALS   VRPREV     +6                         #  I(2)
004029: E7,1426  E7,1475               TNITPREV           EQUALS   TNIT       +2                         #  I(2)
004030:
004031:
004032:                                                                                                  #        P30'S COMMON STORAGE                                            (24D)
004033:
004034: E7,1426  E7,1537               RACT3              EQUALS   GRP2SVQ    +1                         #  I(6)TMP POSITION OF ACTIVE AT TPI TIME.
004035: E7,1426  E7,1545               VACT3              EQUALS   RACT3      +6                         #  I(6)TMP VELOCITY OF ACTIVE AT TPI TIME.
004036: E7,1426  E7,1553               RPASS3             EQUALS   VACT3      +6                         #  I(6)TMP POSITION OF PASSIVE AT TPI TIME.
004037: E7,1426  E7,1561               VPASS3             EQUALS   RPASS3     +6                         #  I(6)TMP VELOCITY OF PASSIVE AT TPI TIME.
004038:
004039:
004040:                                                                                                  #        P76  N84 DISPLAY  -  P32  N82 DISPLAY                           (6D)
004041: E7,1426  E7,1537               DELVOV             EQUALS   RACT3                                 #  I(6)DSP NOUN 84 FOR X-V84, P34-35
004042:
004043:
004044:                                                                                                  #        P76 - P77          STORAGE                                      (1D)
004045:
004046: E7,1426  E7,1545               OPTFLAG            EQUALS   DELVOV     +6                         #  B(1)TMP FLAG FOR P76 OR P77 BRANCHING
004047:                                                                                                  #        INITVEL/MIDGIM STORAGE.                                         (34D)
004048:                                                                                                  #                (CALLED BY S34.1,2, S35.1,2, AND S40.9)
004049:                                                                                                  #                (CALLS LAMBERT, CONIC SUBROUTINES)
004050:
004051: E7,1426  E7,1567               RINIT              EQUALS   VPASS3     +6                         #  I(6)IN  ACTIVE VEHICLE RADIUS VECTOR
004052: E7,1426  E7,1575               VINIT              EQUALS   RINIT      +6                         #  I(6)IN  ACTIVE VEHICLE VELOCITY VECTOR
004053: E7,1426  E7,1603               RTARG1             EQUALS   VINIT      +6                         #  I(6)TMP SHIFTED RTARG
004054: E7,1426  E7,1611               VIPRIME            EQUALS   RTARG1     +6                         #  I(6)OUT   NEW VEL REQ AT INITIAL RADIUS
004055: E7,1426  E7,1617               VTPRIME            EQUALS   VIPRIME    +6                         #  I(6)OUT TOTAL VELOCITY AT DESIRED RADIUS
004056: E7,1426  E7,1625               +MGA               EQUALS   VTPRIME    +6                         #  I(2)DSP NOUN 45 FOR P30,34,35. +MID GIM.
004057: E7,1426  E7,1627               COZY4              EQUALS   +MGA       +2                         #  I(2)TMP COSINE OF ANGLE WHEN ROT STARTS
004058:
004059:                                                                                                  #  (THE FOLLOWING OVERLAYS MEASUREMENT INCORP AND CANNOT SHARE WITH TPI
004060: E7,1426  E7,1502               INTIME             EQUALS   TNITPREV   +5
004061: E7,1426  E7,1504               ITCTR              EQUALS   INTIME     +2                         #  I(1)TMP ITERATION COUNTER


004063: E7,1426  E7,1631               END-IN/M           EQUALS   COZY4      +2                         #  **NEXT AVAIL LOC AFTER INITVEL/MIDGIM**
004064:
004065:
004066:                                                                                                  #        P34 AND P33 STORAGE.    (OVERLAYS INITVEL/MIDGIM)               (24D)
004067:
004068: E7,1426  E7,1567               VAPREC             EQUALS   RINIT                                 #  I(6) S-S PREC VEC FOR NOM TPI TIME (ACT V
004069: E7,1426  E7,1575               RAPREC             EQUALS   VINIT                                 #  I(6) S-S PREC VEC FOR NOM TPI TIME (ACT V
004070: E7,1426  E7,1611               VPPREC             EQUALS   VIPRIME                               #  I(6) S-S PREC VEC FOR NOM TPI TIME (PASS
004071: E7,1426  E7,1617               RPPREC             EQUALS   VTPRIME                               #  I(6) S-S PREC VEC FOR NOM TPI TIME (PASS
004072:
004073:
004074:
004075:                                                                                                  #        P30, P40 INTERFACE.                                             (20D)
004076:
004077: E7,1426  E7,1631               RTIG               EQUALS   END-IN/M                              #  I(6)TMP
004078: E7,1426  E7,1637               VTIG               EQUALS   RTIG       +6                         #  I(6)TMP
004079: E7,1426  E7,1645               DELVSIN            EQUALS   VTIG       +6                         #  I(6)TMP
004080: E7,1426  E7,1645               DELVEET3           EQUALS   DELVSIN                               #       TMP DELTA VEL VECT INERTIAL COORDS.
004081: E7,1426  E7,1645               VGTEMP             EQUALS   DELVEET3
004082: E7,1426  E7,1653               DELVSAB            EQUALS   DELVSIN    +6                         #  I(2)TMP
004083:
004084:
004085:
004086:                                                                                                  #        P35-P40 INTERFACE STORAGE. (OVERLAYS P30-P40 I/F STORAGE)       (6D)
004087:
004088: E7,1426  E7,1637               VPASS4             EQUALS   VTIG                                  #  I(6)TMP VELOCITY OF PASSIVE AT INTERCEPT
004089:                                                                                                  #        P30-P40 COMMON STORAGE.                                         (3D)
004090:
004091: E7,1426  E7,1655               TPASS4             EQUALS   DELVSAB    +2                         #  I(2)TMP
004092: E7,1426  E7,1657               QTEMP              EQUALS   TPASS4     +2                         #  I(1) TMP
004093:
004094:
004095:
004096:                                                                                                  #        P30-P40 STORAGE.                                                (4D)
004097:
004098: E7,1426  E7,1660               TTOGO              EQUALS   QTEMP      +1                         #  B(2)DSP NOUN 35,40,45,59,99
004099:                                                                                                  #          FOR P30,34,35,40,41,47,  R30.
004100: E7,1426  E7,1662               TTPI               EQUALS   TTOGO      +2                         #  B(2)DSP NOUN 37 FOR P34 TPI TIME, CSECS.
004101:
004102: E7,1426  E7,1664               END-P30S           EQUALS   TTPI       +2                         #  **NEXT AVAIL LOC AFTER P30-40 STORAGE.**
004103:
004104:
004105:                                                                                                  #        P40 STORAGE.                                                    (8D)
004106:
004107: E7,1426  E7,1664               VGBODY             EQUALS   END-P30S                              #  B(6)DSP NOUN 85 FOR P40,41,42 VG-SC COOR
004108: E7,1426  E7,1664               DELVCTL            =        VGBODY
004109: E7,1426  E7,1672               P40TMP             EQUALS   VGBODY     +6                         #  B(2)TMP
004110:
004111:
004112:                                                                                                  #        P47 STORAGE.
004113:


004115: E7,1426  E7,1457               DV47TEMP           EQUALS   VG                                    #  B(6)TMP
004116: E7,1426  E7,1674               DELVIMU            EQUALS   P40TMP     +2                         #  I(6)  DSP  NOUN 83 FOR P47 DELTAV(IMU)
004117:
004118:
004119:
004120:                                                                                                  #        S40.1 STORAGE.                                                  (23D)
004121:
004122: E7,1426  E7,1702               CSTEER             EQUALS   DELVIMU    +6                         #  I(2)IN
004123: E7,1426  E7,1704               BDT                EQUALS   CSTEER     +2                         #  I(6)IN
004124: E7,1426  E7,1712               UT                 EQUALS   BDT        +6                         #  I(6)OUT THRUST DIRECTION
004125: E7,1426  E7,1720               VGTIG              EQUALS   UT         +6                         #  I(6)OUT
004126: E7,1426  E7,1720               VGPREV             =        VGTIG
004127: E7,1426  E7,1726               F                  EQUALS   VGTIG      +6                         #  I(2)OUT S40.3 NEEDS THIS
004128:
004129: E7,1426  E7,1730               QTEMP1             EQUALS   F          +2                         #  I(1)TMP HOLDS RETURN
004130:
004131:
004132:                                                                                                  #        P15 TEMPORARY STORAGE                                           (6D)
004133:
004134: E7,1426  E7,1457               AVEGDT             EQUALS   DV47TEMP                              #  B(2)
004135: E7,1426  E7,1461               VPAST              EQUALS   AVEGDT     +2                         #  I(2)
004136: E7,1426  E7,1463               TLITMP             EQUALS   VPAST      +2                         #  B(2)
004137:
004138:
004139:                                                                                                  #        R41                                                             (2D)
004140:
004141: E7,1426  E7,1465               T-TO-ADD           EQUALS   DV47TEMP   +6                         #  I(2) FOR MIDTOAVE
004142:
004143:


004145:
004146:                                                                                                  #        *-*-*-*- OVERLAY 4 IN EBANK 7 -*-*-*-*
004147:
004148:                                                                                                  #        S35.1 STORAGE.                                                  (2D)
004149:
004150: E7,1426  E7,1664               TSTRT              EQUALS   END-P30S                              #  I(2)IN MIDCOURSE START TIME
004151:
004152:
004153:                                                                                                  #        S34.1 STORAGE.          (OVERLAYS S35.1 STORAGE)                (1D)
004154:
004155: E7,1426  E7,1664               TITER              EQUALS   TSTRT                                 #  I(1)TMP ITERATION COUNTER
004156:
004157:
004158:                                                                                                  #        P22 STORAGE.                                                    (5D)
004159: E7,1426  E7,1667               S22TOFF            EQUALS   DELVEET2   +1                         #  2   T SUB OFF
004160:                                                                                                  #  *USED IN SUBROUTINE COMMON TO P22 & P23.
004161: E7,1426  E7,1671               S22TPRIM           EQUALS   S22TOFF    +2                         #  2      SAVE TF
004162: E7,1426  E7,1673               S22EORM            EQUALS   S22TPRIM   +2                         #  0 = EARTH -- NON-ZERO = MOON
004163:
004164:
004165:
004166:                                                                                                  #        DOWNLINK ERASABLES FOR P22,P20 MARK DATA.                       (8D)
004167:
004168: E7,1426  E7,1674               MARKDOWN           EQUALS   S22EORM    +1                         #  B(7)
004169: E7,1426  E7,1703               RM                 EQUALS   S22RTNEX                              #  DOWNLINK OF VHF RANGE
004170:
004171:
004172:
004173:                                                                                                  #        S22.1                                                           (1D)
004174:
004175: E7,1426  E7,1703               S22RTNEX           EQUALS   MARKDOWN   +7                         #  B(1)
004176:
004177:
004178:
004179:                                                                                                  #        P22 STORAGE                                                     (6D)
004180:
004181: E7,1426  E7,1704               STARSAV3           EQUALS   S22RTNEX   +1                         #  I(6)TMP
004182:
004183:
004184:                                                                                                  #        CRS61.1 STORAGE.        -A SUBSET OF P20-                       (14D)
004185:
004186: E7,1426  E7,1704               Q611               EQUALS   RM         +1                         #  I(1) TMP QSAVE
004187: E7,1426  E7,1705               Q6111              EQUALS   Q611       +1                         #  I(1)TMP QSAVE
004188: E7,1426  E7,1706               SAVEPOS            EQUALS   Q6111      +1                         #  I(6)TMP LEM POSITION VECTOR-
004189: E7,1426  E7,1714               SAVEVEL            EQUALS   SAVEPOS    +6                         #  I(6)TMP LEM VELOCITY VECTOR-
004190:
004191:
004192:                                                                                                  #        MARK STORAGE AND W MATRIX INIT STORAGE (UNSHARED)               (13D)
004193:
004194: E7,1426  E7,1722               MRKBUF1            EQUALS   SAVEVEL    +6                         #  B(7)
004195: E7,1426  E7,1731               CNT3TEMP           EQUALS   MRKBUF1    +7                         #  I(2)


004197: E7,1426  E7,1733               OLDMKTME           EQUALS   CNT3TEMP   +2                         #  I(2)
004198: E7,1426  E7,1735               AGEOFW             EQUALS   OLDMKTME   +2                         #  I(2)
004199:
004200:
004201:
004202:                                                                                                  #        MORE CONICS STORAGE.                                            (4)
004203: E7,1426  E7,1767               COGA               EQUALS   NN         +2                         #  I(2) COTAN OF INITIAL FLT PATH ANGLE
004204: E7,1426  E7,1767               INDEP              EQUALS   COGA                                  #  I(1) USED BY SUBROUTINE:ITERATOR:
004205: E7,1426  E7,1771               EPSILONL           EQUALS   COGA       +2                         #  I(2) TMP
004206:
004207:
004208:                                                                                                  #        UNIVERSAL TRACKING STORAGE                                      (10D)
004209:
004210: E7,1426  E7,1731               PLANVCUT           EQUALS   CNT3TEMP                              #  I(6) PLANET VECTOR UT
004211: E7,1426  E7,1737               UTPIT              EQUALS   PLANVCUT   +6                         #  I(2)  N78 PITCH
004212: E7,1426  E7,1741               UTYAW              EQUALS   UTPIT      +2                         #     I(2)  N78 YAW
004213:
004214:
004215:
004216:                                                                                                  #        RENDEZVOUS GUIDANCE STORAGE.  - P32...P35 -                     (10D)
004217:
004218: E7,1426  E7,1743               ELEV               EQUALS   UTYAW      +2                         #  I(2)TMP
004219: E7,1426  E7,1745               RTX1               EQUALS   ELEV       +2                         #   (1)
004220: E7,1426  E7,1746               RTX2               EQUALS   RTX1       +1                         #   (1)
004221: E7,1426  E7,1747               RTMU               EQUALS   RTX2       +1                         #   (2)
004222: E7,1426  E7,1751               RTSR1/MU           EQUALS   RTMU       +2                         #   (2)
004223: E7,1426  E7,1753               CENTANG            EQUALS   RTSR1/MU   +2                         #  I(2) S-S CENTRAL ANGLE COVERED(TPI-TPF)
004224:
004225:


004227:
004228:                                                                                                  #        *-*-*-*- OVERLAY 5 IN EBANK 7 -*-*-*-*
004229:
004230:                                                                                                  #        P34                                                             (2D)
004231:
004232: E7,1426  E7,1765               NN1                =        NN                                    #  I(2) DSP NOUN 55, R1
004233:
004234:
004235:                                                                                                  #   ************ THE FOLLOWING ARE FOR FLIGHT 504 ONLY ********************
004236:
004237:                                                                                                  #        RETURN-TO-EARTH STORAGE.                                        (93D)
004238:
004239: E7,1426  E7,1631               RTEDVD             EQUALS   END-IN/M                              #  I(2)IN DELTA VELOCITY DESIRED   M/CS B7
004240: E7,1426  E7,1633               RTEGAM2D           EQUALS   RTEDVD     +2                         #  I(2)IN REENTRY ANGLE DESIRED    REVS B0
004241: E7,1426  E7,1635               RCON               EQUALS   RTEGAM2D   +2                         #  I(2)TMP CONIC R2 RADIUS            M B29
004242: E7,1426  E7,1637               R(T1)/             EQUALS   RCON       +2                         #  I(6)TMP POSITION VECTOR AT TIG M B29/B27
004243: E7,1426  E7,1645               R(T1)              EQUALS   R(T1)/     +6                         #  I(2)TMP MAGNITUDE OF R(T1)/    M B29/B27
004244: E7,1426  E7,1647               DT21PR             EQUALS   R(T1)      +2                         #  I(2) TMP PREVOUS DT21           CS B30
004245: E7,1426  E7,1651               MAMAX1             EQUALS   DT21PR     +2                         #  I(2) TMP MAJ AXIS LOW BOUND LMT    M B30
004246: E7,1426  E7,1653               MAMAX2             EQUALS   MAMAX1     +2                         #  I(2) TMP MAJ AXIS UP BOUND LMT     M B30
004247: E7,1426  E7,1655               R(T2)/             EQUALS   MAMAX2     +2                         #  I(6)TMP FINAL POSITION VECTOR  M B29/B27
004248: E7,1426  E7,1663               RD                 EQUALS   R(T2)/     +6                         #  I(2)TMP FINAL R DESIRED        M B29/B27
004249: E7,1426  E7,1665               DRCON              EQUALS   RD         +2                         #  I(2)TMP RCON SLOPE ITERATOR    M B29/B27
004250: E7,1426  E7,1667               RPRE,              EQUALS   DRCON      +2                         #  I(2)TMP PREVISOUS RPRE         M B29/B27
004251: E7,1426  E7,1671               V(T1)/             EQUALS   RPRE,      +2                         #  I(6)TMP VEL VECTOR AT TIG     M/CS B7/B5
004252: E7,1426  E7,1677               V2(T1)/            EQUALS   V(T1)/     +6                         #  I(6)TMP POST IMP VEL AT TIG   M/CS B7/B5
004253: E7,1426  E7,1705               DV                 EQUALS   V2(T1)/    +6                         #  I(2)TMP DELTA VELOCITY AT TIG M/CS B7/B5
004254: E7,1426  E7,1707               V(T2)/             EQUALS   DV         +2                         #  I(6)TMP FINAL VELOCITY VECTOR M/CS B7/B5
004255: E7,1426  E7,1715               T1                 EQUALS   V(T2)/     +6                         #  I(2)TMP INITIAL VECTOR TIME       CS B28
004256: E7,1426  E7,1717               PCON               EQUALS   T1         +2                         #  I(2)TMP SEMI-LATUS RECTUM         M B29
004257: E7,1426  E7,1721               X(T1)              EQUALS   PCON       +2                         #  I(2)TMP COTANGENT GAMMA1              B5
004258: E7,1426  E7,1723               T12                EQUALS   X(T1)      +2                         #  I(2)TMP INIT TO FINL POSIT TIME   CS B28
004259: E7,1426  E7,1725               DELTAT             EQUALS   T12        +2                         #  I(2) TMP DELTA T IN SAFE PERILUNE CS B28
004260: E7,1426  E7,1727               NN1A               EQUALS   DELTAT     +2                         #  I(2) TMP ITERATION COUNTER 1
004261:
004262:
004263:
004264: E7,1426  E7,1545               NN2                EQUALS   DELVOV     +6                         #  I(2) TMP ITERATION COUNTER
004265: E7,1426  E7,1547               RTENCKEX           EQUALS   NN2        +2                         #  I(1)TMP RTENCK RETURN ADDRESS
004266: E7,1426  E7,1550               CONICX1            EQUALS   RTENCKEX   +1                         #  I(1) TMP CONICS MU TABLE INDEX
004267: E7,1426  E7,1551               T2                 EQUALS   CONICX1    +1                         #  I(2)TMP FINAL TIME                CS B28
004268: E7,1426  E7,1553               UR1/               EQUALS   T2         +2                         #  I(6)TMP UNIT R(T1)/                   B1
004269: E7,1426  E7,1561               UV1/               EQUALS   UR1/       +6                         #  I(6)TMP UNIT V(T1)/                   B1
004270:
004271:
004272: E7,1426  E7,1743               BETA1              EQUALS   UTYAW      +2                         #  I(2) TEMP 1+X(T2)**2                  B1
004273: E7,1426  E7,1745               P(T1)              EQUALS   BETA1      +2                         #  I(1)TMP PRIMARY BODY STATE TIME 1    B14
004274: E7,1426  E7,1746               CFPA               EQUALS   P(T1)      +1                         #  I(2) TMP COSINE FLIGHT PATH ANGLE   B1
004275: E7,1426  E7,1750               PHI2               EQUALS   CFPA       +2                         #  I(2) TMP PERI OR APO INDICATOR       B2
004276: E7,1426  E7,1752               SPRTEX             EQUALS   PHI2       +2                         #  I(1)TMP ROUTINE RETURN ADDRESS


004278: E7,1426  E7,1753               VNSTORE            EQUALS   SPRTEX     +1                         #  I(1)TMP VERBNOUN STORAGE
004279: E7,1426  E7,1754               BETA12             EQUALS   VNSTORE    +1                         #  I(2)TMP SIGN FOR TIMERAD
004280:                                                                                                  #                OVERLAYS WITHIN RETURN-TO-EARTH STORAGE.
004281:
004282:                                                                                                  #        TEMPS WITHIN VAC
004283:
004284: E7,1426                        RPRE               EQUALS   24D                                   #  I(2)TMP COMPUTED PREC RADIUS   M B29/B27
004285: E7,1426                        P/RPRE             EQUALS   26D                                   #  I(2)TMP P/R                           B4
004286: E7,1426                        R/APRE             EQUALS   28D                                   #  I(2)TMP R/A                           B6
004287:
004288: E7,1426  E7,1723               X(T2)PRE           EQUALS   T12                                   #  I(2)TMP PREC COTAN GAMMA2             B0
004289: E7,1426  E7,1725               X(T2)              EQUALS   DELTAT                                #  I(2)TMP COTAN GAMMA2                  B0
004290: E7,1426  E7,1561               UH/                EQUALS   UV1/                                  #  I(2)TMP UNIT HORIZONTAL VECTOR.       B1
004291: E7,1426  E7,1412               SPRTETIG           EQUALS   TIG                                   #  I(2)IN  TIME OF IGNITION          CS B28
004292:
004293:


004295:
004296:                                                                                                  #        *-*-*-*- OVERLAY 6 IN EBANK 7 -*-*-*-*
004297:
004298:                                                                                                  #        P32,P33
004299:
004300:
004301:                                                                                                  #           THE FOLLOWING OVERLAY MEAS. INCORP. AND ARE IN USE ONLY WHEN (32D)
004302:
004303: E7,1426  E7,1457               POSTCSI            EQUALS   VG                                    #  I(2)
004304: E7,1426  E7,1461               DELVCSI            EQUALS   POSTCSI    +2                         #  I(2)
004305: E7,1426  E7,1463               DELDV              EQUALS   DELVCSI    +2                         #  I(2)
004306: E7,1426  E7,1465               GAMPREV            EQUALS   DELDV      +2                         #  I(2)
004307: E7,1426  E7,1467               DVPREV             EQUALS   GAMPREV    +2                         #  I(2)
004308: E7,1426  E7,1471               POSTCDH            EQUALS   DVPREV     +2                         #  I(2)
004309: E7,1426  E7,1471               HAFPA1             EQUALS   POSTCDH
004310: E7,1426  E7,1473               VACT4              EQUALS   POSTCDH    +2                         #  I(6)
004311: E7,1426  E7,1501               RDOTV              EQUALS   VACT4      +6                         #  I(2)
004312: E7,1426  E7,1503               VACT1              EQUALS   RDOTV      +2                         #  I(6)
004313: E7,1426  E7,1511               VPASS1             EQUALS   VACT1      +6                         #  I(6) VEL. PASSIVE VEH, AT CSI TIME
004314:
004315:
004316: E7,1426  E7,1545               UNVEC              EQUALS   VACT3                                 #  I(6)
004317: E7,1426  E7,1655               T2TOT3             EQUALS   TPASS4                                #  I(2) TPI - TCDH
004318:
004319: E7,1426  E7,1664               CSIALRM            EQUALS   TITER                                 #  I(2) ALARM INDEX
004320:
004321: E7,1426  E7,1666               DELVEET2           EQUALS   CSIALRM    +2                         #  I(6) VACT3-VACT2 = DVCDH REF.COORD.
004322:                                                                                                  #        P21 STORAGE                                                     (2D)
004323:
004324: E7,1426  E7,1537               P21TIME            EQUALS   RACT3                                 #  I(2)
004325:
004326:
004327:                                                                                                  #        ADDITIONAL CSI - CDH STORAGE.                                   (10D)
004328:
004329: E7,1426  E7,1755               RPASS1             EQUALS   CENTANG    +2                         #  I(6) POS. PASSIVE VEH. AT CSI TIME.
004330: E7,1426  E7,1763               LOOPCT             EQUALS   RPASS1     +6                         #  I(2) ITERATION COUNTER
004331: E7,1426  E7,1765               NN                 EQUALS   LOOPCT     +2                         #  I(2)
004332:
004333:                                                                                                  #        P21 STORAGE                                                     (19D)
004334:
004335: E7,1426  E7,1603               P21ORIG            EQUALS   UBAR0                                 #  I(1)
004336: E7,1426  E7,1604               P21BASER           EQUALS   P21ORIG    +1                         #  I(6)
004337: E7,1426  E7,1612               P21BASEV           EQUALS   P21BASER   +6                         #  I(6)
004338: E7,1426  E7,1620               P21ALT             EQUALS   P21BASEV   +6                         #  I(2) NOUN 73 R1 ALTITUDE
004339: E7,1426  E7,1622               P21VEL             EQUALS   P21ALT     +2                         #  I(2) NOUN 73 R2 VELOCITY
004340: E7,1426  E7,1624               P21GAM             EQUALS   P21VEL     +2                         #  I(2) NOUN 73 R3 FLIGHT PATH ANGLE
004341:
004342:
004343:
004344:                                                                                                  #        P29 ERASABLES                                                   (32D)
004345:


004347: E7,1426  E7,1541               PASSTIME           EQUALS   P21TIME    +2                         #  B(2)TMP
004348: E7,1426  E7,1543               LONGFOR            EQUALS   PASSTIME   +2                         #  B(2)TMP
004349: E7,1426  E7,1545               DELTLONG           EQUALS   LONGFOR    +2                         #  I(2)TMP
004350: E7,1426  E7,1547               FUDGE              EQUALS   DELTLONG   +2                         #  I(2)TMP
004351: E7,1426  E7,1551               MUSUBE             EQUALS   FUDGE      +2                         #  I(6)TMP
004352: E7,1426  E7,1557               MUSUBC             EQUALS   MUSUBE     +6                         #  I(6)TMP
004353: E7,1426  E7,1565               MUSUBS             EQUALS   MUSUBC     +6                         #  I(6)TMP
004354: E7,1426  E7,1573               MUSUBN             EQUALS   MUSUBS     +6                         #  I(6)TMP
004355:
004356: E7,1426  E7,1537               P29BASET           =        P21TIME
004357: E7,1426  E7,1604               P29BASER           =        P21BASER
004358: E7,1426  E7,1612               P29BASEV           =        P21BASEV
004359:
004360:                                                                                                  #  P22-P23 STORAGE.                                                      (9D)
004361:
004362: E7,1426  E7,1743               22SUBSCL           EQUALS   ELEV                                  #  B(1) DE OF ABCDE LANDMARK ID NO
004363: E7,1426  E7,1744               CXOFF              EQUALS   22SUBSCL   +1                         #  B OF ABCDE OFFSET INDICATOR.
004364: E7,1426  E7,1745               8KK                EQUALS   CXOFF      +1                         #  B (2)  TMP   INDEX OF PRESENT MARK.
004365: E7,1426  E7,1747               8NN                EQUALS   8KK        +2                         #  B(1) TMP NO OF MARKS TAKEN IN SXTMARK
004366: E7,1426  E7,1750               S22LOC             EQUALS   8NN        +1                         #  I(1)TMP MARK DATA LOC
004367: E7,1426  E7,1751               LANDMARK           EQUALS   S22LOC     +1                         #  B(1)DSP NOUN 70 FOR P22,51,R52,53.
004368: E7,1426  E7,1752               HORIZON            EQUALS   LANDMARK   +1                         #  B(1)DSP NOUN 70 FOR P22,51,R52,53.
004369: E7,1426  E7,1753               P22DEX             EQUALS   HORIZON    +1                         #  B(1) INDEX FOR SXTMARK IN P22
004370:                                                                                                  #        P23 TRUNION BIAS STORAGE.
004371:
004372:                                                                                                  #  9(1D)
004373: E7,1426  E7,1754               TRUNION            EQUALS   P22DEX     +1                         #  B(1)
004374: E7,1426                        WHOCARES           =        3777                                  #  A DUMMY FOR E-BANK INSENSITIVE 2CADRS.
004375:
004376: E7,1426  0003777               END-E7             =        WHOCARES                              #  TAG NEEDED FOR EDITS

End of include-file ERASABLE_ASSIGNMENTS.agc.  Parent file is MAIN.agc


