
Source Code


000002:                                                                                                  #  Copyright:    Public domain.
000003:                                                                                                  #  Filename:     ERASABLE_ASSIGNMENTS.agc
000004:                                                                                                  #  Purpose:      Part of the source code for Artemis (i.e., Colossus 3),
000005:                                                                                                  #                build 072.  This is for the Command Module's (CM)
000006:                                                                                                  #                Apollo Guidance Computer (AGC), we believe for
000007:                                                                                                  #                Apollo 15-17.
000008:                                                                                                  #  Assembler:    yaYUL
000009:                                                                                                  #  Contact:      Onno Hommes <ohommes@alumni.cmu.edu>
000010:                                                                                                  #  Website:      www.ibiblio.org/apollo/index.html
000011:                                                                                                  #  Page Scans:   www.ibiblio.org/apollo/ScansForConversion/Artemis072/
000012:                                                                                                  #  Mod history:  2009-07-30 OH   Started from corresponding Comanche 055 file.
000013:                                                                                                  #                2009-11-29 JL   Carried on from where Onno stopped on page 48.
000014:                                                                                                  #                2010-01-25 JL   Finished conversion.
000015:                                                                                                  #                2010-01-26 JL   Updated header comments.
000016:                                                                                                  #                2010-01-31 JL   Fixed build errors.
000017:                                                                                                  #                2010-02-02 JL   Fixed page numbers.
000018:                                                                                                  #                2010-02-02 JL   Fixed ERASE op.
000019:                                                                                                  #                2010-02-09 JL   Fixed addresses of 9X9LOC1 and 9X9LOC2 on p97.
000020:                                                                                                  #                                Fixed EQUALS on p80.
000021:                                                                                                  #                2010-02-20 RSB  Un-##'d this header.
000022:                                                                                                  #                2010-04-12 JL   Fixed tab spacing on a line.
000023:                                                                                                  #                2011-05-07 JL   Removed workarounds.
000024:


000026:                                                                                                  #  CONVENTIONS AND NOTATIONS UTILIZED FOR ERASABLE ASSIGNMENTS.
000027:
000028:                                                                                                  #        EQUALS  IS USED IN TWO WAYS.  IT IS OFTEN USED TO CHAIN A GROUP
000029:                                                                                                  #                OF ASSIGNMENTS SO THAT THE GROUP MAY BE MOVED WITH THE
000030:                                                                                                  #                CHANGING OF ONLY ONE CARD.  EXAMPLE:
000031:
000032:                                                                                                  #                                        X       EQUALS  START
000033:                                                                                                  #                                        Y       EQUALS  X       +SIZE.X
000034:                                                                                                  #                                        Z       EQUALS  Y       +SIZE.Y
000035:
000036:                                                                                                  #                (X, Y, AND Z ARE CONSECUTIVE AND BEGIN AT START.       )
000037:                                                                                                  #                (SIZE.X AND SIZE.Y ARE THE RESPECTIVE SIZES OF X AND Y,
000038:                                                                                                  #                 USUALLY NUMERIC,  IE. 1, 2, 6, 18D, ETC.              )
000039:
000040:
000041:                                                                                                  #        EQUALS  OFTEN IMPLIES THE SHARING OF REGISTERS (DIFFERENT NAMES
000042:                                                                                                  #                AND DIFFERENT DATA).  EXAMPLE:
000043:
000044:                                                                                                  #                                        X       EQUALS  Y
000045:
000046:
000047:                                                                                                  #        = MEANS THAT MULTIPLE NAMES HAVE BEEN GIVEN TO THE SAME DATA.
000048:                                                                                                  #                (THIS IS LOGICAL EQUIVALENCE, NOT SHARING)  EXAMPLE.
000049:
000050:                                                                                                  #                                        X       =       Y
000051:
000052:
000053:                                                                                                  #        THE SIZE AND UTILIZATION OF AN ERASABLE ARE OFTEN INCLUDED IN
000054:                                                                                                  #        THE COMMENTS IN THE FOLLOWING FORM.  M(SIZE)N.
000055:
000056:                                                                                                  #                M REFERS TO THE MOBILITY OF THE ASSIGNMENT.
000057:                                                                                                  #                     B   MEANS THAT THE SYMBOL IS REFERENCED BY BASIC
000058:                                                                                                  #                         INSTRUCTIONS AND THUS IS E-BANK SENSITIVE.
000059:                                                                                                  #                     I   MEANS THAT THE SYMBOL IS REFERENCED ONLY BY
000060:                                                                                                  #                         INTERPRETIVE INSTRUCTIONS, AND IS THUS E-BANK
000061:                                                                                                  #                         INSENSITIVE AND MAY APPEAR IN ANY E-BANK.
000062:
000063:                                                                                                  #                SIZE IS THE NUMBER OF REGISTERS INCLUDED BY THE SYMBOL.
000064:
000065:                                                                                                  #                N INDICATES THE NATURE OF PERMANENCE OF THE CONTENTS.
000066:                                                                                                  #                     PL MEANS THAT THE CONTENTS ARE PAD LOADED.
000067:                                                                                                  #                     DSP MEANS THAT THE REGISTER IS USED FOR A DISPLAY.
000068:                                                                                                  #                     PRM MEANS THAT THE REGISTER IS PERMANENT, IE. IT
000069:                                                                                                  #                         IS USED DURING THE ENTIRE MISSION FOR ONE
000070:                                                                                                  #                         PURPOSE AND CANNOT BE SHARED.
000071:                                                                                                  #                     TMP MEANS THAT THE REGISTER IS USED TEMPORARILY OR
000072:                                                                                                  #                         IS A SCRATCH REGISTER FOR THE ROUTINE TO WHICH
000073:                                                                                                  #                         IT IS ASSIGNED.  THAT IS, IT NEED NOT BE SET
000074:                                                                                                  #                         PRIOR TO INVOCATION OF THE ROUTINE NOR DOES IT
000075:                                                                                                  #                         CONTAIN USEFUL OUTPUT TO ANOTHER ROUTINE.  THUS


000077:                                                                                                  #                         IT MAY BE SHARED WITH ANY OTHER ROUTINE WHICH
000078:                                                                                                  #                         IS NOT ACTIVE IN PARALLEL.
000079:                                                                                                  #                     IN  MEANS INPUT TO THE ROUTINE AND IT IS PROBABLY
000080:                                                                                                  #                         TEMPORARY FOR A HIGHER-LEVEL ROUTINE/PROGRAM.
000081:                                                                                                  #                     OUT MEANS OUTPUT FROM THE ROUTINE, PROBABLY
000082:                                                                                                  #                         TEMPORARY FOR A HIGHER-LEVEL ROUTINE/PROGRAM.
000083:


000085:
000086:                                                                                                  #        SPECIAL REGISTERS.
000087:
000088: ???????                        A                  EQUALS   0
000089: ???????                        L                  EQUALS   1                                     #  L AND Q ARE BOTH CHANNELS AND REGISTERS.
000090: ???????                        Q                  EQUALS   2
000091: ???????                        EBANK              EQUALS   3
000092: ???????                        FBANK              EQUALS   4
000093: ???????                        Z                  EQUALS   5                                     #  ADJACENT TO FBANK AND BBANK FOR DXCH Z
000094: ???????                        BBANK              EQUALS   6                                     #  (DTCB) AND DXCH FBANK (DTCF)
000095:                                                                                                  #  REGISTER 7 IS A ZERO-SOURCE, USED BY ZL.
000096:
000097: ???????                        ARUPT              EQUALS   10                                    #  INTERRUPT STORAGE.
000098: ???????                        LRUPT              EQUALS   11
000099: ???????                        QRUPT              EQUALS   12
000100: ???????                        SAMPTIME           EQUALS   13                                    #  SAMPLED TIME 1 & 2.
000101: ???????                        ZRUPT              EQUALS   15                                    #  (13 AND 14 ARE SPARES.)
000102: ???????                        BANKRUPT           EQUALS   16                                    #  USUALLY HOLDS FBANK OR BBANK
000103: ???????                        BRUPT              EQUALS   17                                    #  RESUME ADDRESS AS WELL.
000104:
000105: ???????                        CYR                EQUALS   20
000106: ???????                        SR                 EQUALS   21
000107: ???????                        CYL                EQUALS   22
000108: ???????                        EDOP               EQUALS   23                                    #  EDITS INTERPRETIVE OPERATION CODE PAIRS.
000109:
000110:
000111: ???????                        TIME2              EQUALS   24
000112: ???????                        TIME1              EQUALS   25
000113: ???????                        TIME3              EQUALS   26
000114: ???????                        TIME4              EQUALS   27
000115: ???????                        TIME5              EQUALS   30
000116: ???????                        TIME6              EQUALS   31
000117: ???????                        CDUX               EQUALS   32
000118: ???????                        CDUY               EQUALS   33
000119: ???????                        CDUZ               EQUALS   34
000120: ???????                        CDUT               EQUALS   35                                    #  OPTICS TRUNNION CDU (WAS OPTY)
000121: ???????                        CDUS               EQUALS   36                                    #  OPTICS SHAFT CDU (WAS OPTX)
000122: ???????                        PIPAX              EQUALS   37
000123: ???????                        PIPAY              EQUALS   40
000124: ???????                        PIPAZ              EQUALS   41
000125: ???????                        BMAGX              EQUALS   42
000126: ???????                        BMAGY              EQUALS   43
000127: ???????                        BMAGZ              EQUALS   44
000128: ???????                        INLINK             EQUALS   45
000129: ???????                        RNRAD              EQUALS   46
000130: ???????                        GYROCMD            EQUALS   47
000131: ???????                        CDUXCMD            EQUALS   50
000132: ???????                        CDUYCMD            EQUALS   51
000133: ???????                        CDUZCMD            EQUALS   52
000134: ???????                        CDUTCMD            EQUALS   53                                    #  OPTICS TRUNNION COMMAND (WAS OPTYCMD).
000135: ???????  0000053               TVCYAW             EQUALS   CDUTCMD                               #  SPS YAW COMMAND IN TVC MODE.
000136:


000138: ???????                        CDUSCMD            EQUALS   54                                    #  OPTICS SHAFT COMMAND (WAS OPTXCMD).
000139: ???????  0000054               TVCPITCH           EQUALS   CDUSCMD                               #  SPS PITCH COMMAND IN TVC MODE.
000140:                                                                                                  #  REGISTERS 55-60 ARE COUNTERS WHICH ARE NOT PRESENTLY WIRED, AND SO MAY BE USED WITH CARE
000141:
000142:
000143:                                                                                                  #        INTERPRETIVE REGISTERS ADDRESSED RELATIVE TO VAC AREA.
000144:
000145: ???????                        LVSQUARE           EQUALS   34D                                   #  SQUARE OF VECTOR INPUT TO ABVAL AND UNIT
000146: ???????                        LV                 EQUALS   36D                                   #  LENGTH OF VECTOR INPUT TO UNIT.
000147: ???????                        X1                 EQUALS   38D                                   #  INTERPRETIVE SPECIAL REGISTERS RELATIVE
000148: ???????                        X2                 EQUALS   39D                                   #  TO THE WORK AREA
000149: ???????                        S1                 EQUALS   40D
000150: ???????                        S2                 EQUALS   41D
000151: ???????                        QPRET              EQUALS   42D
000152:


000154:
000155:                                                                                                  #  INPUT/OUTPUT CHANNELS
000156:
000157:                                                                                                  #   *** CHANNEL ZERO IS TO BE USED IN AN INDEXED OPERATION ONLY. ***
000158: ???????  0000001               LCHAN              EQUALS   L
000159: ???????  0000002               QCHAN              EQUALS   Q
000160: ???????                        HISCALAR           EQUALS   3
000161: ???????                        LOSCALAR           EQUALS   4
000162: ???????                        PYJETS             EQUALS   5
000163: ???????  0000005               CHAN5              =        PYJETS
000164: ???????                        ROLLJETS           EQUALS   6
000165: ???????  0000006               CHAN6              =        ROLLJETS
000166: ???????                        SUPERBNK           EQUALS   7
000167: ???????                        OUT0               EQUALS   10
000168: ???????                        DSALMOUT           EQUALS   11
000169: ???????                        CHAN12             EQUALS   12
000170: ???????                        CHAN13             EQUALS   13
000171: ???????                        CHAN14             EQUALS   14
000172: ???????                        MNKEYIN            EQUALS   15
000173: ???????                        NAVKEYIN           EQUALS   16
000174: ???????                        CHAN30             EQUALS   30
000175: ???????                        CHAN31             EQUALS   31
000176: ???????                        CHAN32             EQUALS   32
000177: ???????                        CHAN33             EQUALS   33
000178: ???????                        DNTM1              EQUALS   34
000179: ???????                        DNTM2              EQUALS   35
000180: ???????                        CHAN76             EQUALS   76
000181: ???????                        CHAN77             EQUALS   77
000182:                                                                                                  #  END OF CHANNEL ASSIGNMENTS
000183:


000185:
000186:                                                                                                  #        FLAGWORDS
000187:
000188:
000189:                                                                                                  #  FLAGWRD0      STATE +0        (000-014)
000190:                                                                                                  #  FLAGWRD1      STATE +1        (015-029)
000191:                                                                                                  #  FLAGWRD2      STATE +2        (030-044)
000192:                                                                                                  #  FLAGWRD3      STATE +3        (045-059)
000193:                                                                                                  #  FLAGWRD4      STATE +4        (060-074)
000194:                                                                                                  #  FLAGWRD5      STATE +5        (075-089)
000195:                                                                                                  #  FLAGWRD6      STATE +6        (090-104)
000196:                                                                                                  #  FLAGWRD7      STATE +7        (105-119)
000197:                                                                                                  #  FLAGWRD8      STATE +8D       (120-134)
000198:                                                                                                  #  FLAGWRD9      STATE +9D       (135-149)
000199:
000200:
000201:
000202:                                                                                                  #        SORTED LIST OF
000203:
000204:                                                                                                  #        INTERPITIVE SWITCH BIT ASSIGNMENTS
000205:
000206:                                                                                                  #  INTERPRETIVE SWITCH BIT ASSIGNMENTS
000207:                                                                                                  #  FLAGWORD      DEC NUM         BIT + FLAG      EQUIVALENT FLAGWORDS
000208:
000209:                                                                                                  #  .05GSW        102D            BIT 3 FLAG 6
000210:                                                                                                  #  22DSPFLG      032D            BIT 13 FLAG 2
000211:                                                                                                  #  360SW         134D            BIT 1 FLAG 8
000212:                                                                                                  #  3AXISFLG      084D            BIT 6 FLAG 5
000213:                                                                                                  #  ADVTRK        125D            BIT 10 FLAG 8
000214:                                                                                                  #  AMOONFLG      13D             BIT 2 FLAG 0
000215:                                                                                                  #  APSESW        130D            BIT 5 FLAG 8
000216:                                                                                                  #  ASTNFLAG      108D            BIT 12 FLAG 7
000217:                                                                                                  #  ATTCHFLG      118D            BIT 2 FLAG 7
000218:                                                                                                  #  AUTOSEQ       158D            BIT 7  FLAG 10
000219:                                                                                                  #  AVEGFLAG      029D            BIT 1 FLAG 1
000220:                                                                                                  #  AVEMIDSW      149D            BIT 1 FLAG 9
000221:                                                                                                  #  AVFLAG        040D            BIT 5 FLAG 2
000222:                                                                                                  #  AZIMFLAG      172D            BIT 8 FLAG 11
000223:                                                                                                  #  BURNFLAG      155D            BIT 10 FLAG 10
000224:                                                                                                  #  CALCMAN2      043D            BIT 2 FLAG 2
000225:                                                                                                  #  CMDAPARM      093D            BIT 12 FLAG 6
000226:                                                                                                  #  CMOONFLG      123D            BIT 12 FLAG 8
000227:                                                                                                  #  CM/DSTBY      103D            BIT 2 FLAG 6
000228:                                                                                                  #  COGAFLAG      131D            BIT 4 FLAG 8
000229:                                                                                                  #  COMPUTER      082D            BIT 8 FLAG 5
000230:                                                                                                  #  CSISFLAG      174D            BIT 6  FLAG 11
000231:                                                                                                  #  CULTFLAG      053D            BIT 7 FLAG 3
000232:                                                                                                  #  CYC61FLG      11D             BIT 4  FLAG 0
000233:                                                                                                  #  D6OR9FLG      058D            BIT 2 FLAG 3
000234:                                                                                                  #  DAPBIT1       090D            BIT 15 FLAG 6
000235:                                                                                                  #  DAPBIT2       091D            BIT 14 FLAG 6
000236:


000238:                                                                                                  #  DIM0FLAG      059D            BIT 1 FLAG 3
000239:                                                                                                  #  DMENFLAG      081D            BIT 9 FLAG 5
000240:                                                                                                  #  DRIFTFLG      030D            BIT 15 FLAG 2
000241:                                                                                                  #  DSKYFLAG      075D            BIT 15 FLAG 5
000242:                                                                                                  #  EGSW          97D             BIT 8 FLAG 6    KNOwNFLG  R57FLAG
000243:                                                                                                  #  ENG2FLAG      019D            BIT 11 FLAG 1
000244:                                                                                                  #  ENGONFLG      083D            BIT 7 FLAG 5
000245:                                                                                                  #  ENTRYDSP      047D            BIT 13 FLAG 6
000246:                                                                                                  #  ERADFLAG      017D            BIT 13 FLAG 1
000247:                                                                                                  #  ETPIFLAG      038D            BIT 7 FLAG 2    FIRSTFLG   OPTNSW
000248:                                                                                                  #  F2RTE         10D             BIT 5  FLAG 0
000249:                                                                                                  #  FINALFLG      039D            BIT 6 FLAG 2
000250:                                                                                                  #  FIRSTFLG      38D             BIT 7  FLAG 2   ETPIFLAG   OPTNSW
000251:                                                                                                  #  FREEFLAG      012D            BIT 3 FLAG 0
000252:                                                                                                  #  FULTKFLG      163D            BIT 2 FLAG 10
000253:                                                                                                  #  GAMDIFSW      094D            BIT 11 FLAG 6
000254:                                                                                                  #  GLOKFAIL      046D            BIT 14 FLAG 3
000255:                                                                                                  #  GONEBY        112D            BIT 8 FLAG 7
000256:                                                                                                  #  GONEPAST      095D            BIT 10 FLAG 6
000257:                                                                                                  #  GRRBKFLG      085D            BIT 5 FLAG 5
000258:                                                                                                  #  GUESSW        028D            BIT 2 FLAG 1
000259:                                                                                                  #  GYMDIFSW      104D            BIT 1 FLAG 6
000260:                                                                                                  #  HAFLAG        173D            BIT 7  FLAG 11
000261:                                                                                                  #  HDSUPFLG      154D            BIT 11 FLAG 10
000262:                                                                                                  #  HIND          099D            BIT 6 FLAG 6
000263:                                                                                                  #  IDLEFAIL      024D            BIT 6 FLAG 1
000264:                                                                                                  #  IGNFLAG       107D            BIT 13 FLAG 7
000265:                                                                                                  #  IMPULSW       036D            BIT 9 FLAG 2
000266:                                                                                                  #  IMUSE         007D            BIT 8 FLAG 0
000267:                                                                                                  #  INCORFLG      079D            BIT 11 FLAG 5
000268:                                                                                                  #  INFINFLG      128D            BIT 7 FLAG 8
000269:                                                                                                  #  INRLSW        100D            BIT 5 FLAG 6
000270:                                                                                                  #  INTFLAG       151D            BIT 14 FLAG 10
000271:                                                                                                  #  INTYPFLG      056D            BIT 4 FLAG 3
000272:                                                                                                  #  ITSWICH       106D            BIT 14 FLAG 7
000273:                                                                                                  #  JSWITCH       001D            BIT 14 FLAG 0
000274:                                                                                                  #  KNOWNFLG      097D            BIT 8  FLAG 6   EGSW  R57FLAG
000275:                                                                                                  #  LATSW         101D            BIT 4  FLAG 6
000276:                                                                                                  #  LMOONFLG      124D            BIT 11 FLAG 8
000277:                                                                                                  #  LUNAFLAG      048D            BIT 12 FLAG 3
000278:                                                                                                  #  MANEUFLG      160D            BIT 5 FLAG 10
000279:                                                                                                  #  MARKFLG       026D            BIT 4 FLAG 1
000280:                                                                                                  #  MAXDBFLG      138D            BIT 12 FLAG 9
000281:                                                                                                  #  MGLVFLAG      088D            BIT 2 FLAG 5
000282:                                                                                                  #  MID1FLAG      147D            BIT 3 FLAG 9
000283:                                                                                                  #  MIDAVFLG      148D            BIT 2 FLAG 9
000284:                                                                                                  #  MIDFLAG       002D            BIT 13 FLAG 0
000285:                                                                                                  #  MKOVFLAG      072D            BIT 3 FLAG 4
000286:                                                                                                  #  MOONFLAG      003D            BIT 12 FLAG 0
000287:                                                                                                  #  MRKIDFLG      060D            BIT 15 FLAG 4
000288:


000290:                                                                                                  #  MRKNVFLG      066D            BIT 9 FLAG 4
000291:                                                                                                  #  MRUPTFLG      070D            BIT 5 FLAG 4
000292:                                                                                                  #  MWAITFLG      064D            BIT 11 FLAG 4
000293:                                                                                                  #  N22ORN17      144D            BIT 6 FLAG 9
000294:                                                                                                  #  NEEDLFLG      006D            BIT 9 FLAG 0
000295:                                                                                                  #  NEWIFLG       122D            BIT 13 FLAG 8
000296:                                                                                                  #  NEWLMFLG      121D            BIT 14 FLAG  8
000297:                                                                                                  #  NEWTFLAG      80D             BIT 10 FLAG 5
000298:                                                                                                  #  NJETSFLG      015D            BIT 15 FLAG 1
000299:                                                                                                  #  NODOFLAG      044D            BIT 1 FLAG 2
000300:                                                                                                  #  NODOP01       018D            BIT 12 FLAG 1
000301:                                                                                                  #  NORFHOR       004D            BIT 11 FLAG 0
000302:                                                                                                  #  NORMSW        110D            BIT 10 FLAG 7
000303:                                                                                                  #  NOSWITCH      098D            BIT 7 FLAG 6
000304:                                                                                                  #  NRMIDFLG      062D            BIT 13 FLAG 4
000305:                                                                                                  #  NRMNVFLG      067D            BIT 8 FLAG 4
000306:                                                                                                  #  NRUPTFLG      071D            BIT 4 FLAG 4
000307:                                                                                                  #  NWAITFLG      065D            BIT 10 FLAG 4
000308:                                                                                                  #  ORBWFLAG      054D            BIT 6 FLAG 3
000309:                                                                                                  #  ORDERSW       129D            BIT 6 FLAG 8
000310:                                                                                                  #  P21FLAG       033D            BIT 12 FLAG 2
000311:                                                                                                  #  P22MKFLG      49D             BIT 11 FLAG 3
000312:                                                                                                  #  P24FLAG       136D            BIT 14 FLAG  9
000313:                                                                                                  #  P24MKFLG      042D            BIT  3 FLAG  2
000314:                                                                                                  #  P29FLAG       14D             BIT 1 FLAG 0
000315:                                                                                                  #  P35FLAG       157D            BIT 8 FLAG 10
000316:                                                                                                  #  PCFLAG        164D            BIT 1 FLAG 10
000317:                                                                                                  #  PCMANFLG      150D            BIT 15 FLAG 10
000318:                                                                                                  #  PDSPFLAG      063D            BIT 12 FLAG 4
000319:                                                                                                  #  PFRATFLG      041D            BIT 4 FLAG 2
000320:                                                                                                  #  PINBRFLG      069D            BIT 6 FLAG 4
000321:                                                                                                  #  POOFLAG       051D            BIT 9  FLAG 3
000322:                                                                                                  #  PRECIFLG      052D            BIT 8 FLAG 3
000323:                                                                                                  #  PRIODFLG      061D            BIT 14 FLAG 4
000324:                                                                                                  #  PRONVFLG      068D            BIT 7 FLAG 4
000325:                                                                                                  #  PTV93FLG      161D            BIT 4 FLAG 10
000326:                                                                                                  #  QUITFLAG      145D            BIT 5 FLAG 9
000327:                                                                                                  #  R21MARK       031D            BIT 14 FLAG 2
000328:                                                                                                  #  R22CAFLG      143D            BIT 7 FLAG 9
000329:                                                                                                  #  R31FLAG       146D            BIT 4 FLAG 9
000330:                                                                                                  #  R53FLAG       009D            BIT 6 FLAG 0
000331:                                                                                                  #  R67FLAG       133D            BIT 2  FLAG 8
000332:                                                                                                  #  RANGFLAG      156D            BIT 9 FLAG 10
000333:                                                                                                  #  REFSMFLG      047D            BIT 13 FLAG 3
000334:                                                                                                  #  REINTFLG      152D            BIT 13 FLAG 10
000335:                                                                                                  #  REJCTFLG      153D            BIT 12 FLAG 10
000336:                                                                                                  #  RELVELSW      096D            BIT 9 FLAG 6
000337:                                                                                                  #  RENDWFLG      089D            BIT 1 FLAG 5
000338:                                                                                                  #  RETROFLG      76D             BIT 14 FLAG 5
000339:                                                                                                  #  RNDVZFLG      008D            BIT 7 FLAG 0
000340:


000342:                                                                                                  #  RPQFLAG       120D            BIT 15 FLAG 6
000343:                                                                                                  #  RVSW          111D            BIT 9 FLAG 7
000344:                                                                                                  #  S32.1F1       165D            BIT 15 FLAG 11
000345:                                                                                                  #  S32.1F2       166D            BIT 14 FLAG 11
000346:                                                                                                  #  S32.1F3A      167D            BIT 13 FLAG 11
000347:                                                                                                  #  S32.1F3B      168D            BIT 12 FLAG 11
000348:                                                                                                  #  SAVECFLG      140D            BIT 10 FLAG 9
000349:                                                                                                  #  SKIPVHF       035D            BIT 10 FLAG 2
000350:                                                                                                  #  SLOPESW       027D            BIT 3 FLAG 1
000351:                                                                                                  #  SLOWFLG       77D             BIT 13 FLAG 5
000352:                                                                                                  #  SOLNSW        087D            BIT 3 FLAG 5
000353:                                                                                                  #  SOURCFLG      142D            BIT 8 FLAG 9
000354:                                                                                                  #  STATEFLG      055D            BIT 5 FLAG 3
000355:                                                                                                  #  STEERSW       034D            BIT 11 FLAG 2
000356:                                                                                                  #  STIKFLAG      016D            BIT 14 FLAG 1
000357:                                                                                                  #  STRULLSW      92D             BIT 13 FLAG 6
000358:                                                                                                  #  SURFFLAG      127D            BIT 8  FLAG 8
000359:                                                                                                  #  SWTOVER       135D            BIT 15 FLAG 9
000360:                                                                                                  #  TARG1FLG      020D            BIT 10 FLAG 1
000361:                                                                                                  #  TARG2FLG      021D            BIT 9 FLAG 1
000362:                                                                                                  #  TERMIFLG      105D            BIT 15 FLAG 7
000363:                                                                                                  #  TFFSW         119D            BIT 1 FLAG 7
000364:                                                                                                  #  TIMRFLAG      109D            BIT 11 FLAG 7
000365:                                                                                                  #  TPIMNFLG      162D            BIT 3 FLAG 10
000366:                                                                                                  #  TRACKFLG      025D            BIT 5 FLAG 1
000367:                                                                                                  #  UPDATFLG      023D            BIT 7 FLAG 1
000368:                                                                                                  #  UPLOCKFL      116D            BIT 4 FLAG 7
000369:                                                                                                  #  UTFLAG        126D            BIT 9 FLAG 8
000370:                                                                                                  #  V37FLAG       114D            BIT 6 FLAG 7
000371:                                                                                                  #  V50N18FL      045D            BIT 15 FLAG 3
000372:                                                                                                  #  V59FLAG       078D            BIT 12 FLAG 5
000373:                                                                                                  #  VE2EMFLG      137D            BIT 13 FLAG 9
000374:                                                                                                  #  V94FLAG       139D            BIT 11 FLAG 9
000375:                                                                                                  #  V96ONFLG      132D            BIT 3 FLAG 8
000376:                                                                                                  #  VEHUPFLG      022D            BIT 8 FLAG 1
000377:                                                                                                  #  VERIFLAG      117D            BIT 3 FLAG 7
000378:                                                                                                  #  VFLAG         050D            BIT 10 FLAG 3
000379:                                                                                                  #  VHFRFLAG      141D            BIT 9 FLAG 9
000380:                                                                                                  #  VINTFLAG      057D            BIT 3 FLAG 3
000381:                                                                                                  #  VNFLAG        073D            BIT 2 FLAG 4
000382:                                                                                                  #  XDELVFLG      037D            BIT 8 FLAG 2
000383:                                                                                                  #  XDSPFLAG      074D            BIT 1 FLAG 4
000384:                                                                                                  #  ZMEASURE      005D            BIT 10 FLAG 0
000385:


000387:
000388:                                                                                                  #  INTERPRETIVE SWITCH BIT ASSIGNMENTS
000389: ???????     0074               FLAGWRD0           =        STATE      +0                         #  (000-014)
000390:                                                                                                  #  (SET)                 (RESET)
000391:                                                                                                  #                        BIT 15 FLAG 0
000392: ???????                                           =        000D
000393:                                                                                                  #                        BIT 14 FLAG 0
000394: ???????                        JSWITCH            =        001D                                  #  INTEGRATION OF W      INTEGRATION OF STATE
000395:                                                                                                  #  MATRIX                VECTOR
000396: ???????     4753               JSWCHBIT           =        BIT14
000397:
000398:                                                                                                  #                        BIT 13 FLAG 0
000399: ???????                        MIDFLAG            =        002D                                  #  INTEGRATION WITH      INTEGRATION WITHOUT
000400:                                                                                                  #  SOLAR PERTURBATIONS   SOLAR PERTURBATIONS
000401:
000402: ???????     4754               MIDFLBIT           =        BIT13
000403:
000404:                                                                                                  #                        BIT 12 FLAG 0
000405: ???????                        MOONFLAG           =        003D                                  #  MOON IS SPHERE OF     EARTH IS SPHERE OF
000406:                                                                                                  #  INFLUENCE             INFLUENCE
000407:
000408: ???????     4755               MOONBIT            =        BIT12
000409:
000410:                                                                                                  #                        BIT 11 FLAG 0
000411: ???????                        NORFHOR            =        004D                                  #  FAR HORIZON           NEAR HORIZON
000412:
000413: ???????     4756               NORFBIT            =        BIT11
000414:
000415:                                                                                                  #                        BIT 10 FLAG 0
000416: ???????                        ZMEASURE           =        005D                                  #  MEASUREMENT PLANET    MEASUREMENT PLANET
000417:                                                                                                  #  AND PRIMARY PLANET    AND PRIMARY PLANET
000418:                                                                                                  #  DIFFERENT             SAME
000419:
000420: ???????     4757               ZMEASBIT           =        BIT10
000421:
000422:                                                                                                  #                        BIT 9 FLAG 0
000423: ???????                        NEEDLFLG           =        006D                                  #  TOTAL ATTIDUDE        A/P FOLLOWING ERROR
000424:                                                                                                  #  ERROR DISPLAYED       DISPLAYED
000425:
000426: ???????     4760               NEEDLBIT           =        BIT9
000427:
000428:                                                                                                  #                        BIT 8 FLAG 0
000429: ???????                        IMUSE              =        007D                                  #  IMU IN USE            IMU NOT IN USE
000430:
000431: ???????     4761               IMUSEBIT           =        BIT8
000432:
000433:                                                                                                  #                        BIT 7 FLAG 0


000435: ???????                        RNDVZFLG           =        008D                                  #  P20 RUNNING           P20 NOT RUNNING
000436: ???????     4762               RNDVZBIT           =        BIT7
000437:
000438:                                                                                                  #                        BIT 6 FLAG 0
000439: ???????                        R53FLAG            =        009D                                  #  V51 INITIATED         V51 NOT INITIATED
000440:
000441:
000442: ???????     4763               R53FLBIT           =        BIT6
000443:
000444:                                                                                                  #                        BIT 5 FLAG 0
000445: ???????                        F2RTE              =        010D                                  #  IN TIME CRITICAL      NOT IN TIME CRITICAL
000446:                                                                                                  #  MODE                  MODE
000447:
000448: ???????     4764               F2RTEBIT           =        BIT5
000449:
000450:                                                                                                  #                        BIT 4 FLAG 0
000451: ???????                        CYC61FLG           =        11D                                   #  KALCMAN3 TO RETURN    KALCMAN3 TO DO
000452:                                                                                                  #  TO R61 AFTER          MANEUVER
000453:
000454: ???????     4765               CYC61BIT           =        BIT4                                  #  COMPUTING TM
000455:
000456:                                                                                                  #                        BIT 3 FLAG 0
000457: ???????                        FREEFLAG           =        012D                                  #  (TEMPORARY FLAG USED IN MANY ROUTINES)
000458:
000459: ???????     4766               FREEFBIT           =        BIT3
000460:
000461:                                                                                                  #                        BIT 2 FLAG 0
000462: ???????                        AMOONFLG           =        013D                                  #  STATE VECTOR IN       STATE VECTOR IN
000463: ???????     4767               AMOONBIT           =        BIT2                                  #  LUNAR SPHERE AT       EARTH SPHERE AT
000464:                                                                                                  #  MIDTOAVE              MIDTOAVE
000465:
000466:                                                                                                  #                        BIT 1 FLAG 0
000467: ???????                        P29FLAG            =        14D                                   #  P29 RUNNING. 1ST      P29 FINISHED WITH
000468: ???????     4770               P29BIT             =        BIT1                                  #  PASS IN PROGRESS.     1ST PASS.
000469:
000470:
000471: ???????     0075               FLAGWRD1           =        STATE      +1                         #  (015-029)
000472:
000473:                                                                                                  #  (SET)                 (RESET)
000474:
000475:                                                                                                  #                        BIT 15 FLAG 1
000476: ???????                        NJETSFLG           =        015D                                  #  TWO JET RCS BURN      FOUR JET RCS BURN
000477:
000478: ???????     4752               NJETSBIT           =        BIT15
000479:
000480:                                                                                                  #                        BIT 14 FLAG 1
000481: ???????                        STIKFLAG           =        016D                                  #  RHC CONTROL           CMC CONTROL


000483: ???????     4753               STIKBIT            =        BIT14
000484:
000485:                                                                                                  #                        BIT 13 FLAG 1
000486: ???????                        ERADFLAG           =        017D                                  #  EARTH, COMPUTE        EARTH, USED FIXED
000487:                                                                                                  #   FISCHER ELLIPSOID     RADIUS
000488:                                                                                                  #   RADIUS
000489:                                                                                                  #  MOON, USE FIXED       MOON, USE RLS FOR
000490:                                                                                                  #        RADIUS                LUNAR RADIUS
000491:
000492: ???????     4754               ERADFBIT           =        BIT13
000493:
000494:                                                                                                  #                        BIT 12 FLAG 1
000495: ???????                        NODOP01            =        018D                                  #  P01 NOT ALLOWED       P01 ALLOWD
000496:
000497: ???????     4755               NOP01BIT           =        BIT12
000498:
000499:
000500:                                                                                                  #                        BIT 11 FLAG 1
000501: ???????                        ENG2FLAG           =        019D                                  #  RCS BURN              SPS BURN
000502:
000503: ???????     4756               ENG2BIT            =        BIT11
000504:
000505:                                                                                                  #                        BIT 10 FLAG 1
000506: ???????                        TARG1FLG           =        020D                                  #  SIGHTING LEM          NOT SIGHTING LEM
000507:
000508: ???????     4757               TARG1BIT           =        BIT10
000509:
000510:                                                                                                  #                        BIT 9 FLAG 1
000511: ???????                        TARG2FLG           =        021D                                  #  SIGHTING LANDMARK     SIGHTING STAR
000512:
000513: ???????     4760               TARG2BIT           =        BIT9
000514:
000515:                                                                                                  #                        BIT 8 FLAG 1
000516: ???????                        VEHUPFLG           =        022D                                  #  CSM STATE VECTOR      LEM STATE VECTOR
000517:                                                                                                  #  BEING UPDATED         BEING UPDATED
000518:
000519: ???????     4761               VEHUPBIT           =        BIT8
000520:
000521:                                                                                                  #                        BIT 7 FLAG 1
000522: ???????                        UPDATFLG           =        023D                                  #  UPDATING BY MARKS     UPDATING BY MARKS
000523:                                                                                                  #  ALLOWED               NOT ALLOWED
000524:
000525: ???????     4762               UPDATBIT           =        BIT7
000526:
000527:                                                                                                  #                        BIT 6 FLAG 1
000528: ???????                        IDLEFAIL           =        024D                                  #  INHIBIT R41           ENABLE R41 (ENGFAIL)
000529:
000530: ???????     4763               IDLEBIT            =        BIT6
000531:


000533:
000534:                                                                                                  #                        BIT 5 FLAG 1
000535: ???????                        TRACKFLG           =        025D                                  #  TRACKING ALLOWED      TRACKING NOT ALLOWED
000536:
000537: ???????     4764               TRACKBIT           =        BIT5
000538:
000539:                                                                                                  #                        BIT 4 FLAG 1
000540: ???????                        MARKFLG            =        026D                                  #  A MARK HAS BEEN       NO MARK HAS BEEN
000541: ???????     4765               MARKBIT            =        BIT4                                  #  ACCEPTED. ALLOW       ACCEPTED. DO NOT
000542:                                                                                                  #  MARK REJECT.          MARK REJECT.
000543:
000544:
000545:                                                                                                  #                        BIT 3 FLAG 1
000546: ???????                        SLOPESW            =        27D                                   #  ITERATE WITH BIAS     ITERATE WITH REGULA
000547:                                                                                                  #  METHOD IN ITERATOR    FALSI METHOD IN
000548:                                                                                                  #                        ITERATOR
000549:
000550:
000551: ???????     4766               SLOPEBIT           =        BIT3
000552:
000553:                                                                                                  #                        BIT 2 FLAG 1
000554: ???????                        GUESSW             =        028D                                  #  NO STARTING VALUE     STARTING VALUE FOR
000555:                                                                                                  #  FOR ITERATION         ITERATION EXISTS
000556:
000557: ???????     4767               GUESSBIT           =        BIT2
000558:
000559:                                                                                                  #                        BIT 1 FLAG 1
000560: ???????                        AVEGFLAG           =        029D                                  #  AVERAGEG (SERVICER)   AVERAGEG (SERVICER)
000561:                                                                                                  #  TO CONTINUE           TO CEASE
000562:
000563: ???????     4770               AVEGBIT            =        BIT1
000564:
000565: ???????     0076               FLAGWRD2           =        STATE      +2                         #  (030-044)
000566:
000567:                                                                                                  #  (SET)                 (RESET)
000568:
000569:                                                                                                  #                        BIT 15 FLAG 2
000570: ???????                        DRIFTFLG           =        030D                                  #  T3RUPT CALLS GYRO     T3RUPT DOES NO GYRO
000571:                                                                                                  #  COMPENSATION          COMPENSATION
000572:
000573: ???????     4752               DRFTBIT            =        BIT15
000574:
000575:                                                                                                  #                        BIT 14 FLAG 2
000576: ???????                        R21MARK            =        031D                                  #  OPTION ONE FOR        OPTION TWO FOR
000577:                                                                                                  #  MARKRUPT              MARKRUPT
000578:
000579: ???????     4753               R21BIT             =        BIT14
000580:
000581:                                                                                                  #                        BIT 13 FLAG 2
000582: ???????                        22DSPFLG           =        032D                                  #  DISPLAY DR,DV         DO NOT DISPLAY DR,DV
000583:


000585: ???????     4754               22DSPBIT           =        BIT13
000586:
000587:                                                                                                  #                        BIT 12 FLAG 2
000588: ???????                        P21FLAG            =        033D                                  #  SUCCEEDING PASS       1ST PASS THRU P21,
000589:                                                                                                  #  THRU P21, USE BASE    CALCULATE BASE
000590: ???????     4755               P21BIT             =        BIT12                                 #  VECTOR FOR CALC.      VECTOR
000591: ???????                        STEERSW            =        034D                                  #  STEERING TO BE DONE   STEERING OMITTED
000592:
000593: ???????     4756               STEERBIT           =        BIT11
000594:
000595:                                                                                                  #                        BIT 10 FLAG 2
000596: ???????                        SKIPVHF            =        035D                                  #  DISREGARD RADAR       RADAR READ TO
000597:                                                                                                  #  READ BECAUSE OF       PROCEED NORMALLY
000598: ???????     4757               SKIPVBIT           =        BIT10                                 #  SFTWRE OR HDWRE
000599:                                                                                                  #  RESTART
000600:
000601:                                                                                                  #                        BIT 9 FLAG 2
000602: ???????                        IMPULSW            =        036D                                  #  MINIMUM IMPULSE       STEERING BURN (NO
000603:                                                                                                  #  BURN (CUTOFF TIME     CUTOFF TIME YET
000604:                                                                                                  #  SPECIFIED)            AVAILABLE)
000605:
000606: ???????     4760               IMPULBIT           =        BIT9
000607:
000608:                                                                                                  #                        BIT 8 FLAG 2
000609: ???????                        XDELVFLG           =        037D                                  #  EXTERNAL DELTAV VG    LAMBERT (AIMPOINT)
000610:                                                                                                  #  COMPUTATION           VG COMPUTATION
000611:
000612: ???????     4761               XDELVBIT           =        BIT8
000613:                                                                                                  #                        BIT 7 FLAG 2
000614: ???????                        ETPIFLAG           =        038D                                  #  ELEVATION ANGLE       TPI TIME SUPPLIED
000615:                                                                                                  #  SUPPLIED FOR P34,74   FOR P34,74
000616:
000617: ???????     4762               ETPIBIT            =        BIT7
000618:
000619:                                                                                                  #                        BIT 7 FLAG 2
000620: ???????  0000046               FIRSTFLG           =        ETPIFLAG                              #  FIRST PASS            SUCCEEDING PASS THRU
000621:                                                                                                  #  THRU S40.9            S40.9
000622:
000623: ???????     4762               FIRSTBIT           =        BIT7
000624:
000625: ???????     4763               FINALBIT           =        BIT6
000626:
000627:                                                                                                  #                        BIT 6 FLAG 2
000628: ???????                        FINALFLG           =        039D                                  #  LAST PASS THROUGH     INTERIM PASS THROUGH
000629:                                                                                                  #  RENDEZVOUS PROGRAM    RENDEZVOUS PROGRAM
000630:                                                                                                  #  COMPUTATIONS          COMPUTATIONS
000631:
000632: ???????     4764               AVFLBIT            =        BIT5
000633:
000634:                                                                                                  #                        BIT 5 FLAG 2


000636: ???????                        AVFLAG             =        040D                                  #  LEM IS ACTIVE         CSM IS ACTIVE
000637:                                                                                                  #  VEHICLE               VEHICLE
000638:
000639:                                                                                                  #                        BIT 4 FLAG 2
000640: ???????                        PFRATFLG           =        041D                                  #  PREFERRED ATTITUDE    PREFERRED ATTITUDE
000641:                                                                                                  #  COMPUTED              NOT COMPUTED
000642:
000643: ???????     4765               PFRATBIT           =        BIT4
000644:
000645:                                                                                                  #                        BIT 3 FLAG 2
000646: ???????                        P24MKFLG           =        042D                                  #  P24 MARKING           P24 NOT MARKING
000647: ???????     4766               P24MKBIT           =        BIT3
000648:
000649:                                                                                                  #                        BIT 2 FLAG 2
000650: ???????                        CALCMAN2           =        043D                                  #  PERFORM MANEUVER      BYPASS STARTING
000651:                                                                                                  #  STARTING PROCEDURE    PROCEDURE
000652:
000653: ???????     4767               CALC2BIT           =        BIT2
000654:
000655:                                                                                                  #                        BIT 1 FLAG 2
000656: ???????                        NODOFLAG           =        044D                                  #  V37 NOT PERMITTED     V37 PERMITTED
000657:
000658: ???????     4770               NODOBIT            =        BIT1
000659:
000660: ???????     0077               FLAGWRD3           =        STATE      +3                         #  (045-059)
000661:
000662:                                                                                                  #  (SET)                 (RESET)
000663:
000664:                                                                                                  #                        BIT 15 FLAG 3
000665: ???????                        V50N18FL           =        045D
000666: ???????     4752               V50N18BT           =        BIT15
000667:
000668:                                                                                                  #                        BIT 14 FLAG 3
000669: ???????                        GLOKFAIL           =        046D                                  #  GIMBAL LOCK HAS       NOT IN GIMBAL LOCK
000670:                                                                                                  #  OCCURED
000671:
000672: ???????     4753               GLOKFBIT           =        BIT14
000673:
000674:                                                                                                  #                        BIT 13 FLAG 3
000675: ???????                        REFSMFLG           =        047D                                  #  REFSMMAT GOOD         REFSMMAT NO GOOD
000676:
000677: ???????     4754               REFSMBIT           =        BIT13
000678:
000679:                                                                                                  #                        BIT 12 FLAG 3
000680: ???????                        LUNAFLAG           =        048D                                  #  LUNAR LAT-LONG        EARTH LAT-LONG
000681:
000682: ???????     4755               LUNABIT            =        BIT12
000683:
000684:                                                                                                  #                        BIT 11 FLAG 3


000686: ???????                        P22MKFLG           =        49D                                   #  P22 DOWNLINKED MARK   P22 DOWNLINK MARK
000687:                                                                                                  #  DATA WAS JUST TAKEN   DATA NOT JUST TAKEN
000688:
000689: ???????     4756               P22MKBIT           =        BIT11
000690:
000691:                                                                                                  #                        BIT 10 FLAG 3
000692: ???????                        VFLAG              =        050D                                  #  LESS THAN TWO STARS   TWO STARS IN FIELD
000693:                                                                                                  #  IN FIELD OF VIEW      OF VIEW
000694:
000695: ???????     4757               VFLAGBIT           =        BIT10
000696:
000697:                                                                                                  #                        BIT 9 FLAG 3
000698: ???????                        POOFLAG            =        051D                                  #  INHIBIT BACKWARDS     ALLOW BACKWARDS
000699: ???????     4760               POOBIT             =        BIT9                                  #  INTEGRATION           INTEGRATION
000700:                                                                                                  #                        BIT 8 FLAG 3
000701: ???????                        PRECIFLG           =        052D                                  #  CSMPREC, LEMPREC      INTEGRV CALLED
000702: ???????     4761               PRECIBIT           =        BIT8                                  #  OR INTEGRVS CALLED
000703:
000704:                                                                                                  #                        BIT 7 FLAG 3
000705: ???????                        CULTFLAG           =        053D                                  #  STAR OCCULTED         STAR NOT OCCULTED
000706:
000707: ???????     4762               CULTBIT            =        BIT7
000708:
000709:                                                                                                  #                        BIT 6 FLAG 3
000710: ???????                        ORBWFLAG           =        054D                                  #  W MATRIX VALID FOR    W MATRIX INVALID FOR
000711:                                                                                                  #  ORBITAL N1VIGATION    ORBITAL NAVIGATION
000712:
000713: ???????     4763               ORBWFBIT           =        BIT6
000714:
000715:                                                                                                  #                        BIT 5 FLAG 3
000716: ???????                        STATEFLG           =        055D                                  #  PERMANENT STATE       PERMANENT STATE
000717:                                                                                                  #  VECTOR UPDATED        VECTOR NOT UPDATED
000718:
000719: ???????     4764               STATEBIT           =        BIT5
000720:
000721:                                                                                                  #                        BIT 4 FLAG 3
000722: ???????                        INTYPFLG           =        056D                                  #  CONIC INTEGRATION     ENCKE INTEGRATION
000723:
000724: ???????     4765               INTYBIT            =        BIT4
000725:
000726:                                                                                                  #                        BIT 3 FLAG 3
000727: ???????                        VINTFLAG           =        057D                                  #  CSM STATE VECTOR      LEM STATE VECTOR
000728:                                                                                                  #  BEING INTEGRATED      BEING INTEGRATED
000729:
000730: ???????     4766               VINTFBIT           =        BIT3
000731:
000732:                                                                                                  #                        BIT 2 FLAG 3
000733: ???????                        D6OR9FLG           =        058D                                  #  DIMENSION OF W IS 9   DIMENSION OF W IS 6
000734:                                                                                                  #  FOR INTEGRATION       FOR INTEGRATION


000736: ???????     4767               D6OR9BIT           =        BIT2
000737:
000738:                                                                                                  #                        BIT 1 FLAG 3
000739: ???????                        DIM0FLAG           =        059D                                  #  W MATRIX IS TO BE     W MATRIX IS NOT TO
000740:                                                                                                  #  USED                  BE USED
000741:
000742: ???????     0100               FLAGWRD4           =        STATE      +4                         #  (060-074)
000743:
000744:                                                                                                  #  (SET)                 (RESET)
000745:
000746: ???????     4770               DIM0BIT            =        BIT1
000747:
000748:                                                                                                  #                        BIT 15 FLAG 4
000749: ???????                        MRKIDFLG           =        060D                                  #  MARK DISPLAY IN       NO MARK DISPLAY IN
000750:                                                                                                  #  ENDIDLE               ENDIDLE
000751:
000752: ???????     4752               MRKIDBIT           =        BIT15
000753:
000754:                                                                                                  #                        BIT 14 FLAG 4
000755: ???????                        PRIODFLG           =        061D                                  #  PRIORITY DISPLAY IN   NO PRIORITY DISPLAY
000756:                                                                                                  #  ENDIDLE               IN ENDIDLE
000757:
000758: ???????     4753               PRIODBIT           =        BIT14
000759:
000760:                                                                                                  #                        BIT 13 FLAG 4
000761: ???????                        NRMIDFLG           =        062D                                  #  NORMAL DISPLAY IN     NO NORMAL DISPLAY
000762:                                                                                                  #  ENDIDLE               IN ENDIDLE
000763:
000764: ???????     4754               NRMIDBIT           =        BIT13
000765:
000766:                                                                                                  #                        BIT 12 FLAG 4
000767: ???????                        PDSPFLAG           =        063D                                  #  CAN'T INTERRUPT       SEE M. HAMILTON
000768:                                                                                                  #  PRIORITY DISPLAY
000769:
000770: ???????     4755               PDSPFBIT           =        BIT12
000771:
000772:                                                                                                  #                        BIT 11 FLAG 4
000773: ???????                        MWAITFLG           =        064D                                  #  HIGHER PRIORITY       NO HIGHER PRIORITY
000774:                                                                                                  #  DISPLAY OPERATING     DISPLAY OPERATING
000775:                                                                                                  #  WHEN MARK DISPLAY     WHEN MARK DISPLAY
000776:                                                                                                  #  INITIATED             INITIATED
000777: ???????     4756               MWAITBIT           =        BIT11
000778:
000779:                                                                                                  #                        BIT 10 FLAG 4
000780: ???????                        NWAITFLG           =        065D                                  #  HIGHER PRIORITY       NO HIGHER PRIORITY
000781:                                                                                                  #  DISPLAY OPERATING     DISPLAY OPERATING
000782:                                                                                                  #  WHEN NORMAL           WHEN NORMAL DISPLAY
000783:                                                                                                  #  DISPLAY INITIATED     INITIATED


000785: ???????     4757               NWAITBIT           =        BIT10
000786:
000787:                                                                                                  #                        BIT 9 FLAG 4
000788: ???????                        MRKNVFLG           =        066D                                  #  ASTRONAUT USING       ASTRONAUT NOT USING
000789:                                                                                                  #  KEYBOARD WHEN MARK    KEYBOARD WHEN MARK
000790:                                                                                                  #  DISPLAY INITIATED     DISPLAY INITIATED
000791:
000792: ???????     4760               MRKNVBIT           =        BIT9
000793:
000794:                                                                                                  #                        BIT 8 FLAG 4
000795: ???????                        NRMNVFLG           =        067D                                  #  ASTRONAUT USING       ASTRONAUT NOT USING
000796:                                                                                                  #  KEYBOARD WHEN         KEYBOARD WHEN
000797:                                                                                                  #  NORMAL DISPLAY        NORMAL DISPLAY
000798:                                                                                                  #  INITIATED             INITIATED
000799:
000800: ???????     4761               NRMNVBIT           =        BIT8
000801:
000802:                                                                                                  #                        BIT 7 FLAG 4
000803: ???????                        PRONVFLG           =        068D                                  #  ASTRONAUT USING       ASTRONAUT NOT USING
000804:                                                                                                  #  KEYBOARD WHEN         KEYBOARD WHEN
000805:                                                                                                  #  PRIORITY DISPLAY      PRIORITY DISPLAY
000806:                                                                                                  #  INITIATED             INITIATED
000807:
000808: ???????     4762               PRONVBIT           =        BIT7
000809:
000810:                                                                                                  #                        BIT 6 FLAG 4
000811: ???????                        PINBRFLG           =        069D                                  #  ASTRONAUT HAS         ASTRONAUT HAS NOT
000812:                                                                                                  #  INTERFERED WITH       INTERFERED WITH
000813:                                                                                                  #  EXISTING DISPLAY      EXISTING DISPLAY
000814:
000815: ???????     4763               PINBRBIT           =        BIT6
000816:
000817:                                                                                                  #                        BIT 5 FLAG 4
000818: ???????                        MRUPTFLG           =        070D                                  #  MARK DISPLAY          MARK DISPLAY NOT
000819:                                                                                                  #  INTERRUPTED BY        INTERRUPTED BY
000820:                                                                                                  #  PRIORITY DISPLAY      PRIORITY DISPLAY
000821:
000822: ???????     4764               MRUPTBIT           =        BIT5
000823:
000824:                                                                                                  #                        BIT 4 FLAG 4
000825: ???????                        NRUPTFLG           =        071D                                  #  NORMAL DISPLAY        NORMAL DISPLAY NOT
000826:                                                                                                  #  INTERRUPTED BY        INTERRUPTED BY
000827:                                                                                                  #  PRIORITY OR MARK      PRIORITY OR MARK
000828:                                                                                                  #  DISPLAY               DISPLAY
000829:
000830: ???????     4765               NRUPTBIT           =        BIT4
000831:
000832:                                                                                                  #                        BIT 3 FLAG 4
000833: ???????                        MKOVFLAG           =        072D                                  #  MARK DISPLAY OVER     NO MARK DISPLAY OVER
000834:                                                                                                  #  NORMAL                NORMAL


000836: ???????     4766               MKOVBIT            =        BIT3
000837:
000838:                                                                                                  #                        BIT 2 FLAG 4    # DISPLAY BIT
000839: ???????                        VNFLAG             =        073D                                  #  DISPLAY IS A          DISPLAY IS NOT A
000840: ???????     4767               VNBIT              =        BIT2                                  #  VNFLASH TYPE          VNFLASH TYPE
000841:
000842:                                                                                                  #                        BIT 1 FLAG 4    # MARK DISPLAY NOT TO   NO SPECIAL MARK
000843: ???????                        XDSPFLAG           =        074D                                  #  BE INTERRUPTED        INFORMATION.
000844:
000845: ???????     4770               XDSPBIT            =        BIT1
000846:
000847: ???????     0101               FLAGWRD5           =        STATE      +5                         #  (075-099)
000848:
000849:                                                                                                  #  (SET)                 (RESET)
000850:
000851:                                                                                                  #                        BIT 15 FLAG 5
000852: ???????                        DSKYFLAG           =        075D                                  #  DISPLAYS SENT TO      NO DISPLAYS TO DSKY
000853:                                                                                                  #  DSKY
000854:
000855:
000856: ???????     4752               DSKYBIT            =        BIT15
000857:
000858:                                                                                                  #                        BIT 14 FLAG 5
000859: ???????                        RETROFLG           =        76D                                   #  P37 PREMANEUVER       ORBIT NOT RETROGRADE
000860: ???????     4753               RETROBIT           =        BIT14                                 #  ORBIT IS RETROGRADE
000861:
000862:                                                                                                  #                        BIT 13 FLAG 5
000863: ???????                        SLOWFLG            =        77D                                   #  P37 TRANSEARTH        SLOW DOWN IS NOT
000864: ???????     4754               SLOWBIT            =        BIT13                                 #  COAST SLOW DOWN       DESIRED
000865:                                                                                                  #  IS DESIRED
000866:
000867:                                                                                                  #                        BIT 12 FLAG 5
000868: ???????                        V59FLAG            =        078D                                  #  CALIBRATING FOR       NORMAL MARKING FOR
000869:                                                                                                  #  P 23                  P 23
000870:
000871: ???????     4755               V59FLBIT           =        BIT12
000872:
000873:                                                                                                  #                        BIT 11 FLAG 5
000874: ???????                        INCORFLG           =        079D                                  #  FIRST INCORPORATION   SECOND INCORPORATION
000875:
000876: ???????     4756               INCORBIT           =        BIT11
000877:
000878:                                                                                                  #                        BIT 10 FLAG 5
000879: ???????                        NEWTFLAG           =        80D                                   #  RETURN TO P29 SKIP-   NOMRAL OPERATION
000880: ???????     4757               NEWTBIT            =        BIT10                                 #  PING LONGITUDE DIS-
000881:                                                                                                  #  PLAY
000882:
000883:                                                                                                  #                        BIT 9 FLAG 5
000884: ???????                        DMENFLG            =        081D                                  #  DIMENSION OF W IS 9   DIMENSION OF W IS 6
000885:                                                                                                  #  FOR INCORPORATION     FOR INCORPORATION


000887: ???????     4760               DMENFBIT           =        BIT9
000888:
000889:                                                                                                  #                        BIT 8 FLAG 5
000890: ???????                        COMPUTER           =        082D                                  #  COMPUTER IS CMC       COMPUTER IS LGC
000891:
000892: ???????     4761               COMPTBIT           =        BIT8
000893:
000894:                                                                                                  #                        BIT 7 FLAG 5
000895: ???????                        ENGONFLG           =        083D                                  #  ENGINE TURNED ON      ENGINE TURNED OFF
000896:
000897: ???????     4762               ENGONBIT           =        BIT7
000898:
000899:                                                                                                  #                        BIT 6 FLAG 5
000900: ???????                        3AXISFLG           =        084D                                  #  MANEUVER SPECIFIED    MANEUVER SPECIFIED
000901:                                                                                                  #  BY THREE AXES         BY ONE AXIS
000902:
000903: ???????     4763               3AXISBIT           =        BIT6
000904:
000905:                                                                                                  #                        BIT 5 FLAG 5
000906: ???????                        GRRBKFLG           =        085D                                  #  BACKUP GRR RECEIVED   BACKUP GRR NOT
000907:                                                                                                  #                        RECEIVED
000908:
000909: ???????     4764               GRRBKBIT           =        BIT5
000910:
000911:                                                                                                  #                        BIT 4 FLAG 5
000912: ???????                                           =        086D
000913:
000914:
000915:                                                                                                  #                        BIT 3 FLAG 5
000916: ???????                        SOLNSW             =        87D                                   #  LAMBERT DOES NOT      LAMBERT CONVERGES OR
000917:                                                                                                  #  CONVERGE, OR TIME-    TIME-RADIUS NON
000918:                                                                                                  #  RADIUS NEARLY CIRC.   CIRCULAR.
000919:
000920:
000921: ???????     4766               SOLNSBIT           =        BIT3
000922:
000923:                                                                                                  #                        BIT 2 FLAG 5
000924: ???????                        MGLVFLAG           =        088D                                  #  LOCAL VERTICAL        MIDDLE GIMBAL ANGLE
000925:                                                                                                  #  COORDINATES           COMPUTED
000926:                                                                                                  #  COMPUTED
000927:
000928: ???????     4767               MGLVFBIT           =        BIT2
000929:
000930:                                                                                                  #                        BIT 1 FLAG 5
000931: ???????                        RENDWFLG           =        089D                                  #  W MATRIX VALID        W MATRIX INVALID
000932:                                                                                                  #  FOR RENDEZVOUS        FOR RENDEZVOUS
000933:                                                                                                  #  NAVIGATION            NAVIGATION
000934:
000935: ???????     4770               RENDWBIT           =        BIT1
000936:


000938:
000939: ???????     0102               FLAGWRD6           =        STATE      +6                         #  (090-104)
000940:
000941:                                                                                                  #  (SET)                 (RESET)
000942:
000943:                                                                                                  #                        BIT 15 FLAG 6
000944: ???????                        DAPBIT1            =        090D                                  #  1 SATURN 1 TVC        0 RCS   0 NO
000945:
000946:
000947: ???????     4752               DAP1BIT            =        BIT15
000948:
000949:                                                                                                  #                        BIT 14 FLAG 6
000950: ???????                        DAPBIT2            =        091D                                  #  1 A/P    0 A/P        1 A/P   0 A/P
000951:
000952: ???????     4753               DAP2BIT            =        BIT14
000953:
000954:                                                                                                  #                        BIT 13 FLAG 6
000955: ???????                        STRULLSW           =        92D                                   #  DO STEERULL           DO ULAGEOFF ONLY
000956:
000957: ???????     4754               STRULBIT           =        BIT13
000958:
000959:                                                                                                  #                        BIT 13 FLAG 6
000960: ???????  0000134               ENTRYDSP           =        STRULLSW                              #  DO ENTRY DISPLAY      OMIT ENTRY DISPLAY
000961:                                                                                                  #  VIA ENTRYVN.
000962:
000963: ???????     4754               ENDSPBIT           =        BIT13
000964:
000965:                                                                                                  #                        BIT 12 FLAG 6
000966: ???????                        CMDAPARM           =        093D                                  #  ALLOW ENTRY FIRINGS   INHIBIT ENTRY FIRING
000967:                                                                                                  #  AND CALCULATIONS      AND CONTROL FUNCTION
000968: ???????     4755               CMARMBIT           =        BIT12
000969:
000970:                                                                                                  #                                DO NOT SHARE BIT12 WITH PROGRAMS USING SERVICER
000971:
000972:                                                                                                  #                        BIT 11 FLAG 6
000973: ???????                        GAMDIFSW           =        094D                                  #  CALCULATE GAMDOT      GAMDOT NOT TO BE
000974:                                                                                                  #                        CALCULATED
000975:
000976: ???????     4756               GMDIFBIT           =        BIT11
000977:
000978:                                                                                                  #                        BIT 10 FLAG 6
000979: ???????                        GONEPAST           =        095D                                  #  LATERAL CONTROL       LATERAL CONTROL
000980:                                                                                                  #  CALCULATIONS TO BE    CALCULATIONS TO BE
000981:                                                                                                  #  OMITTED               DONE
000982:
000983: ???????     4757               GONEBIT            =        BIT10
000984:
000985:                                                                                                  #                        BIT 9 FLAG 6
000986: ???????                        RELVELSW           =        096D                                  #  TARGETING USES        TARGETING USES
000987:                                                                                                  #  EARTH-RELATIVE        INERTIAL VELOCITY


000989:                                                                                                  #  VELOCITY
000990:
000991: ???????     4760               RELVBIT            =        BIT9
000992:
000993:                                                                                                  #                        BIT 8 FLAG 6
000994: ???????                        EGSW               =        097D                                  #  IN FINAL PHASE        NOT IN FINAL PHASE
000995:
000996: ???????     4761               EGFLGBIT           =        BIT8
000997:
000998:                                                                                                  #                        BIT 8 FLAG 6
000999: ???????  0000141               KNOWNFLG           =        EGSW                                  #  LANDMARK KNOWN        LANDMARK UNKNOWN
001000:
001001: ???????     4761               KNOWNBIT           =        BIT8
001002:
001003:                                                                                                  #                        BIT 7 FLAG 6
001004: ???????                        NOSWITCH           =        098D                                  #  LATERAL ROLL          LATERAL ROLL MANEUVER
001005: ???????     4762               NOSWBIT            =        BIT7                                  #  MANEUVER INHIBITED    PERMITTED IN ENTRY
001006:                                                                                                  #  IN ENTRY
001007:
001008:
001009:                                                                                                  #                        BIT 6 FLAG 6
001010: ???????                        HIND               =        099D                                  #  ITERATING HUNTEST     ITERATING OF HUNTEST
001011:                                                                                                  #  CALCULATIONS TO BE    CALCULATIONS TO BE
001012:                                                                                                  #  DONE AFTER RANGE      OMITTED AFTER RANGE
001013:                                                                                                  #  PREDICTION            PREDICTION
001014:
001015: ???????     4763               HINDBIT            =        BIT6
001016:
001017:                                                                                                  #                        BIT 5 FLAG 6
001018: ???????                        INRLSW             =        100D                                  #  INITIAL ROLL          INITIAL ROLL
001019:                                                                                                  #  V(LV)                 V(LV)
001020:
001021: ???????     4764               INRLBIT            =        BIT5
001022:
001023:                                                                                                  #  ATTITUDE NOT HELD     ATTITUDE HELD
001024:
001025:                                                                                                  #                        BIT 4 FLAG 6
001026: ???????                        LATSW              =        101D                                  #  DOWNLIFT NOT          DOWNLIFT INHIBITED
001027:                                                                                                  #  INHIBITED
001028:
001029: ???????     4765               LATSWBIT           =        BIT4
001030:
001031:                                                                                                  #                        BIT 3 FLAG 6
001032: ???????                        .05GSW             =        102D                                  #  DRAG OVER .05G        DRAG LESS THAN .05G
001033:
001034: ???????     4766               .05GBIT            =        BIT3
001035:
001036:                                                                                                  #                                DO NOT SHARE BIT3 WITH PROGRAMS USING SERVICER
001037:
001038:                                                                                                  #                        BIT 2 FLAG 6


001040: ???????                        CM/DSTBY           =        103D                                  #  ENTRY DAP ACTIVATED   ENTRY DAP NOT
001041:                                                                                                  #                        ACTIVATED
001042:
001043: ???????     4767               CM/DSBIT           =        BIT2
001044:
001045:                                                                                                  #                                DO NOT SHARE BIT2  WITH PROGRAMS USING SERVICER
001046:
001047:                                                                                                  #                        BIT 1 FLAG 6
001048: ???????                        GYMDIFSW           =        104D                                  #  CDU DIFFERENCES AND   CDU DIFFERENCES AND
001049:                                                                                                  #  BODY RATES COMPUTED   BODY RATES NOT
001050:                                                                                                  #                        COMPUTED
001051:
001052: ???????     4770               GYMDIBIT           =        BIT1
001053:
001054: ???????     0103               FLAGWRD7           =        STATE      +7                         #  (105-119)
001055:
001056:                                                                                                  #  (SET)                 (RESET)
001057:
001058:                                                                                                  #                        BIT 15 FLAG 7
001059: ???????                        TERMIFLG           =        105D                                  #  TERMINATE R52         DO NOT TERMINATE R52
001060: ???????     4752               TERMIBIT           =        BIT15
001061:
001062:                                                                                                  #                        BIT 14 FLAG 7
001063: ???????                        ITSWICH            =        106D                                  #  ACCEPT NEXT LAMBERT   TEST LAMBERT ANSWER
001064:                                                                                                  #  TPI SEARCH SOLUTION   AGAINST LIMITS
001065:
001066: ???????     4753               ITSWBIT            =        BIT14
001067:
001068:                                                                                                  #                        BIT 13 FLAG 7
001069: ???????                        IGNFLAG            =        107D                                  #  TIG HAS ARRIVED       TIG HAS NOT ARRIVED
001070:
001071: ???????     4754               IGNFLBIT           =        BIT13
001072:
001073:                                                                                                  #                        BIT 12 FLAG 7
001074: ???????                        ASTNFLAG           =        108D                                  #  ASTRONAUT HAS         ASTRONAUT HAS NOT
001075:                                                                                                  #  OKAYED IGNITION       OKAYED IGNITION
001076:
001077: ???????     4755               ASTNBIT            =        BIT12
001078:
001079:                                                                                                  #                        BIT 11 FLAG 7
001080: ???????                        TIMRFLAG           =        109D                                  #  CLOKTASK OPERATING    CLOKTASK INOPERATIVE
001081:
001082: ???????     4756               TIMRBIT            =        BIT11
001083:
001084:                                                                                                  #                        BIT 10 FLAG 7
001085: ???????                        NORMSW             =        110D                                  #  UNIT NORMAL INPUT     LAMBERT COMPUTE ITS
001086:                                                                                                  #  TO LAMBERT.           OWN UNIT NORMAL.
001087:
001088:
001089: ???????     4757               NORMSBIT           =        BIT10
001090:


001092:                                                                                                  #                        BIT 9 FLAG 7
001093: ???????                        RVSW               =        111D                                  #  DO NOT COMPUTE FINAL  COMPUTE FINAL STATE
001094:                                                                                                  #  STATE VECTOR IN       VECTOR IN TIME-THETA
001095:                                                                                                  #  TIME-THETA
001096:
001097:
001098: ???????     4760               RVSWBIT            =        BIT9
001099:
001100:                                                                                                  #                        BIT 8 FLAG 7
001101: ???????                        GONEBY             =        112D                                  #  PASSED TARGET         APPROACHING TARGET
001102:
001103: ???????     4761               GONBYBIT           =        BIT8
001104:
001105:                                                                                                  #                        BIT 7 FLAG 7
001106: ???????                                           =        113D
001107:
001108:                                                                                                  #                        BIT 6 FLAG 7
001109: ???????                        V37FLAG            =        114D                                  #  AVERAGEG (SERVICER)   AVERAGEG (SERVICER)
001110:                                                                                                  #  RUNNING               OFF
001111:
001112: ???????     4763               V37FLBIT           =        BIT6
001113:
001114:                                                                                                  #                        BIT 5 FLAG 7
001115: ???????                                           =        115D
001116:
001117:                                                                                                  #                        BIT 4 FLAG 7
001118: ???????                        UPLOCKFL           =        116D                                  #  K-KBAR-K FAIL         NO K-KBAR-K FAIL
001119:
001120: ???????     4765               UPLOCBIT           =        BIT4
001121:
001122:                                                                                                  #                        BIT 3 FLAG 7
001123: ???????                        VERIFLAG           =        117D                                  #  CHANGED WHEN V33E OCCURS AT END OF P27
001124:
001125: ???????     4766               VERIFBIT           =        BIT3
001126:
001127:                                                                                                  #                        BIT 2 FLAG 7
001128: ???????                        ATTCHFLG           =        118D                                  #  LM,CM ATTACHED        LM,CM NOT ATTACHED
001129:
001130: ???????     4767               ATTCHBIT           =        BIT2
001131:
001132:                                                                                                  #                        BIT 1 FLAG 7
001133: ???????                        TFFSW              =        119D                                  #  CALCULATE TPERIGEE    CALCULATE TFF
001134:
001135: ???????     4770               TFFSWBIT           =        BIT1
001136:
001137: ???????     0104               FLAGWRD8           =        STATE      +8D                        #  (120-134)
001138:
001139:                                                                                                  #  (SET)                 (RESET)
001140:
001141:                                                                                                  #                        BIT 15 FLAG 8


001143: ???????                        RPQFLAG            =        120D                                  #  RPQ NOT COMPUTED      RPQ COMPUTED
001144:
001145: ???????     4752               RPQFLBIT           =        BIT15
001146:
001147:                                                                                                  #                        BIT 14 FLAG 8
001148: ???????                        NEWLMFLG           =        121D                                  #  NEW LANDMARK COORD    OLD LANDMARK COORD
001149: ???????     4753               NEWLMBIT           =        BIT14
001150:
001151:                                                                                                  #                        BIT 13 FLAG 8
001152: ???????                        NEWIFLG            =        122D                                  #  FIRST PASS THROUGH    SUCCEEDING ITERATION
001153:                                                                                                  #  INTEGRATION           OF INTEGRATION
001154:
001155: ???????     4754               NEWIBIT            =        BIT13
001156:
001157:                                                                                                  #                        BIT 12 FLAG 8
001158: ???????                        CMOONFLG           =        123D                                  #  PERMANENT CSM STATE   PERMANENT CSM STATE
001159: ???????     4755               CMOONBIT           =        BIT12                                 #  IN LUNAR SPHERE       IN EARTH SPHERE
001160:
001161:                                                                                                  #                        BIT 11 FLAG 8
001162: ???????                        LMOONFLG           =        124D                                  #  PERMANENT LM  STATE   PERMANENT LM  STATE
001163: ???????     4756               LMOONBIT           =        BIT11                                 #  IN LUNAR SPHERE       IN EARTH SPHERE
001164:
001165:                                                                                                  #                        BIT 10 FLAG 8
001166: ???????                        ADVTRK             =        125D                                  #  ADVANCE GROUND TRACK  NOT ADVANCED
001167:                                                                                                  #  SIGHTING WANTED       GROUND TRACK
001168:
001169: ???????     4757               ADVTKBIT           =        BIT10
001170:
001171:                                                                                                  #                        BIT 9 FLAG 8
001172: ???????                        UTFLAG             =        126D                                  #  UNIVERSAL TRACKING    NO UNIVERSAL TRACKING
001173: ???????     4760               UTBIT              =        BIT9
001174:
001175:                                                                                                  #                        BIT 8 FLAG 8
001176: ???????                        SURFFLAG           =        127D                                  #  LM ON LUNAR SURFACE   LM NOT ON LUNAR
001177:                                                                                                  #                        SURFACE
001178:
001179: ???????     4761               SURFFBIT           =        BIT8
001180:
001181:                                                                                                  #                        BIT 7 FLAG 8
001182: ???????                        INFINFLG           =        128D                                  #  NO CONIC SOLUTION     CONIC SOLUTION
001183:                                                                                                  #  (CLOSURE THROUGH      EXISTS.
001184:                                                                                                  #  INFINITY REQUIRED).
001185:
001186: ???????     4762               INFINBIT           =        BIT7
001187:
001188:                                                                                                  #                        BIT 6 FLAG 8
001189: ???????                        ORDERSW            =        129D                                  #  ITERATOR USES 2ND     ITERATOR USES 1ST
001190:                                                                                                  #  ORDER MINIMUM MODE.   ORDER STANDARD MODE.


001192: ???????     4763               ORDERBIT           =        BIT6
001193:
001194:                                                                                                  #                        BIT 5 FLAG 8
001195: ???????                        APSESW             =        130D                                  #  RDESIRED OUTSIDE      RDESIRED INSIDE
001196:                                                                                                  #  PERICENTER-APOCENTER  PERICENTER-APOCENTER
001197:                                                                                                  #  RANGE IN TIME-RAD     RANGE IN TIME-RADIUS
001198:
001199:
001200: ???????     4764               APSESBIT           =        BIT5
001201:
001202:                                                                                                  #                        BIT 4 FLAG 8
001203: ???????                        COGAFLAG           =        131D                                  #  NO CONIC SOLUTION     CONIC SOLUTION
001204:                                                                                                  #  TOO CLOSE TO          EXISTS (COGA DOES
001205:                                                                                                  #  RECTILINEAR (COGA     NOT OVERFLOW).
001206:                                                                                                  #  OVERFLOWS).
001207:
001208:
001209: ???????     4765               COGAFBIT           =        BIT4
001210:
001211:                                                                                                  #                        BIT 3 FLAG 8
001212: ???????                        V96ONFLG           =        132D                                  #  P00 INTEGRATION HAS   P00 INTEGRATION IS
001213:                                                                                                  #  BEEN INHIBITED BY     PROCEEDING REGULARLY
001214: ???????     4766               V96ONBIT           =        BIT3                                  #  V96
001215:
001216:                                                                                                  #                        BIT 2 FLAG 8
001217: ???????                        R67FLAG            =        133D                                  #  R67 CALLING R60       NOT R67 CALLING R60
001218: ???????     4767               R67BIT             =        BIT2
001219:
001220:                                                                                                  #                        BIT 1 FLAG 8
001221: ???????                        360SW              =        134D                                  #  TRANSFER ANGLE NEAR   TRANSFER ANGLE NOT
001222:                                                                                                  #  360 DEGREES           NEAR 360 DEGREES
001223:
001224: ???????     4770               360SWBIT           =        BIT1
001225:
001226: ???????     0105               FLAGWRD9           =        STATE      +9D                        #  (135-149)
001227:
001228:                                                                                                  #  (SET)                 (RESET)
001229:                                                                                                  #                        BIT 15 FLAG 9
001230: ???????                        SWTOVER            =        135D                                  #  SWITCHOVER HAS        NO SWITCHOVER YET
001231:                                                                                                  #  OCCURRED
001232:
001233: ???????     4752               SWTOVBIT           =        BIT15
001234:
001235:                                                                                                  #                        BIT 14 FLAG 9
001236: ???????                        P24FLAG            =        136D                                  #  P24 RUNNING           P24 NOT RUNNING
001237: ???????     4753               P24BIT             =        BIT14
001238:
001239:                                                                                                  #                        BIT 13 FLAG 9
001240: ???????                        V82EMFLG           =        137D                                  #  MOON VICINITY         EARTH VICINITY
001241:


001243: ???????     4754               V82EMBIT           =        BIT13
001244:
001245:                                                                                                  #                        BIT 12 FLAG 9
001246: ???????                        MAXDBFLG           =        138D                                  #  MAX DB SELECTED       MIN DB SELECTED
001247:
001248:
001249: ???????     4755               MAXDBBIT           =        BIT12
001250:
001251:                                                                                                  #                        BIT 11 FLAG 9
001252: ???????                        V94FLAG            =        139D                                  #  V94 ALLOWED DURING    V94 NOT ALLOWED
001253:                                                                                                  #  P23
001254:
001255: ???????     4756               V94FLBIT           =        BIT11
001256:
001257:                                                                                                  #                        BIT 10 FLAG 9
001258: ???????                        SAVECFLG           =        140D                                  #  P23 DISPLAY AND       P23 DISPLAY AND
001259:                                                                                                  #  DATA STORAGE AFTER    DATA STORAGE BEFORE
001260:                                                                                                  #  MARK IS DONE          MARK IS DONE
001261:
001262: ???????     4757               SAVECBIT           =        BIT10
001263:
001264:                                                                                                  #                        BIT 9 FLAG 9
001265: ???????                        VHFRFLAG           =        141D                                  #  ALLOW R22 TO          STOP ACCEPTANCE
001266:                                                                                                  #  ACCEPT RANGE          OF RANGE DATA
001267:                                                                                                  #  DATA
001268:
001269: ???????     4760               VHFRBIT            =        BIT9
001270:
001271:                                                                                                  #                        BIT 8 FLAG 9
001272: ???????                        SOURCFLG           =        142D                                  #  SOURCE OF INPUT       SOURCE OF INPUT
001273:                                                                                                  #  DATA IS FROM          DATA IS FROM
001274:                                                                                                  #  VHF RADAR             OPTICS MARK
001275:
001276: ???????     4761               SOURCBIT           =        BIT8
001277:
001278:                                                                                                  #                        BIT 7 FLAG 9
001279: ???????                        R22CAFLG           =        143D                                  #  R22 IS PROCESSING     R22 IS NOT PROCESSING
001280:                                                                                                  #  AN OPTICS MARK        AN OPTICS MARK
001281:
001282: ???????     4762               R22CABIT           =        BIT7
001283:
001284:                                                                                                  #                        BIT 6 FLAG 9
001285: ???????                        N22ORN17           =        144D                                  #  COMPUTE TOTAL         COMPUTE TOTAL
001286:                                                                                                  #  ATTITUDE ERRORS       ATTITUDE ERRORS
001287:                                                                                                  #  WRT N22 (V62)         WRT N17 (V63)
001288:
001289: ???????     4763               N2217BIT           =        BIT6
001290:
001291:                                                                                                  #                        BIT 5 FLAG 9
001292: ???????                        QUITFLAG           =        145D                                  #  TERMINATE AND EXIT    CONTINUE INTEGRATION


001294: ???????     4764               QUITBIT            =        BIT5                                  #  FROM INTEGRATION
001295:
001296:                                                                                                  #                        BIT 4 FLAG 9
001297: ???????                        R31FLAG            =        146D                                  #  R31 SELECTED (V83)    R34 SELECTED (V85)
001298:
001299: ???????     4765               R31FLBIT           =        BIT4
001300:
001301:                                                                                                  #                        BIT 3 FLAG 9
001302: ???????                        MID1FLAG           =        147D                                  #  INTEGRATE TO TDEC     INTEGRATE TO THE
001303:                                                                                                  #                        THEN-PRESENT TIME
001304:
001305: ???????     4766               MID1FBIT           =        BIT3
001306:
001307:                                                                                                  #                        BIT 2 FLAG 9
001308: ???????                        MIDAVFLG           =        148D                                  #  INTEGRATION ENTERED   INTEGRATION WAS
001309:                                                                                                  #  FROM ONE OF MIDTOAV   NOT ENTERED VIA
001310:                                                                                                  #  PORTALS               MIDTOAV
001311:
001312: ???????     4767               MIDAVBIT           =        BIT2
001313:
001314:                                                                                                  #                        BIT 1 FLAG 9
001315: ???????                        AVEMIDSW           =        149D                                  #  AVETOMID CALLING      NO AVETOMID W INTEGER
001316:                                                                                                  #  FOR W MATRIX INTEGR   ALLOW SET UP RN,VN,
001317:                                                                                                  #  DONT WRITE OVER RN,   PIPTIME
001318:                                                                                                  #  VN,PIPTIME
001319:
001320: ???????     4770               AVEMDBIT           =        BIT1
001321:
001322:                                                                                                  #  (SET)                 (RESET)
001323:
001324: ???????     0106               FLGWRD10           =        STATE      +10D                       #  (150-164)
001325:
001326:
001327:                                                                                                  #                        BIT 15 FLAG 10
001328: ???????                        PCMANFLG           =        150D                                  #  P20 MANEUVER          NOT P20 PC
001329:                                                                                                  #  AT PLANE CHANGE       MANEUVER
001330: ???????     4752               PCMANBIT           =        BIT15
001331:
001332:                                                                                                  #                        BIT 14 FLAG 10
001333: ???????                        INTFLAG            =        151D                                  #  INTEGRATION IN        INTEGRATION NOT IN
001334:                                                                                                  #  PROGRESS              PROGRESS
001335:
001336: ???????     4753               INTFLBIT           =        BIT14
001337:
001338:                                                                                                  #                        BIT 13 FLAG 10
001339: ???????                        REINTFLG           =        152D                                  #  INTEGRATION ROUTINE   INTEGRATION ROUTINE
001340:                                                                                                  #  TO BE RESTARTED       NOT TO BE RESTARTED
001341: ???????     4754               REINTBIT           =        BIT13
001342:


001344:                                                                                                  #                        BIT 12 FLAG 10
001345: ???????                        REJCTFLG           =        153D                                  #  MARK TO BE REJECTED   NO MARK REJECT BY
001346:                                                                                                  #  IN R22                R22
001347: ???????     4755               REJCTBIT           =        BIT12
001348:
001349:
001350:                                                                                                  #                        BIT 11 FLAG 10
001351: ???????                        HDSUPFLG           =        154D
001352: ???????     4756               HDSUPBIT           =        BIT11                                 #  HEADS UP ATTITUDE     HEADS DOWN ATTITUDE
001353:
001354:
001355:                                                                                                  #                        BIT 10 FLAG 10
001356: ???????                        BURNFLAG           =        155D                                  #  CSM DID BURN          LM DID BURN
001357: ???????     4757               BURNBIT            =        BIT10
001358:
001359:                                                                                                  #                        BIT 9 FLAG 10
001360: ???????                        RANGFLAG           =        156D                                  #  RANGE < 328 N.M       RANGE > 328 N.M.
001361: ???????     4760               RANGBIT            =        BIT9
001362:
001363:                                                                                                  #                        BIT 8 FLAG 10
001364: ???????                        P35FLAG            =        157D                                  #  MCC TARGETING DONE    NOT YET MCC
001365: ???????     4761               P35BIT             =        BIT8
001366:
001367:                                                                                                  #                        BIT 7 FLAG 10
001368: ???????                        AUTOSEQ            =        158D                                  #  AUTOMATIC RENDEZVOUS  AUTOMATIC RENDEZ-
001369:
001370:                                                                                                  #  SEQUENCE IS RUNNING   VOUS NOT RUNNING
001371: ???????     4762               AUTSQBIT           =        BIT7
001372:
001373:                                                                                                  #                        BIT 6 FLAG 10
001374: ???????                                           =        159D
001375:                                                                                                  #                        BIT 5 FLAG 10
001376: ???????                        MANEUFLG           =        160D                                  #  MANEUVER,P76,         MARK INCORPORATED
001377:                                                                                                  #  OR PLANNED MANEUVER
001378: ???????     4764               MANEUBIT           =        BIT5
001379:
001380:                                                                                                  #                        BIT 4 FLAG 10
001381: ???????                        PTV93FLG           =        161D                                  #  V93 TO BE DONE        MANEUVER AND
001382:                                                                                                  #  AFTER MANEUVER        V93 DONE
001383: ???????     4765               PTV93BIT           =        BIT4
001384:
001385:                                                                                                  #                        BIT 3 FLAG 10
001386: ???????                        TPIMNFLG           =        162D                                  #  TPI MANEUVER HAS
001387:                                                                                                  #  BEEN DONE
001388: ???????     4766               TPIMNBIT           =        BIT3
001389:
001390:                                                                                                  #                        BIT 2 FLAG 10
001391: ???????                        FULTKFLG           =        163D                                  #  ONLY OPTICS OR VHF    OPTICS AND VHF
001392:                                                                                                  #  MARKS BEING TAKEN     MARKS TAKEN
001393: ???????     4767               FULTKBIT           =        BIT2
001394:


001396:                                                                                                  #                        BIT 1 FLAG 10
001397: ???????                        PCFLAG             =        164D                                  #  PLANE CHANGE          NOT PLANE CHANGE
001398:                                                                                                  #  TARGETTING
001399: ???????     4770               PCBIT              =        BIT1
001400: ???????     0107               FLGWRD11           =        STATE      +11D                       #  (165-179)
001401:
001402:                                                                                                  #  (SET)                 (RESET)
001403:
001404:                                                                                                  #                        BIT 15 FLAG 11
001405: ???????                        S32.1F1            =        165D                                  #  DELTAN AT CSI TIME    DVT1 LESS THAN MAX
001406: ???????     4752               S32BIT1            =        BIT15                                 #  ONE EXCEEDS MAX
001407:
001408:                                                                                                  #                        BIT 14 FLAG 11
001409: ???????                        S32.1F2            =        166D                                  #  FIRST PASS OF         REITERATION OF
001410: ???????     4753               S32BIT2            =        BIT14                                 #  NEWTON INTERATION     NEWTON
001411:
001412:                                                                                                  #                        BIT 13 FLAG 11
001413: ???????                        S32.1F3A           =        167D                                  #  BIT 13 AND BIT 12 FUNCTION AS AN ORDERED
001414: ???????     4754               S32BIT3A           =        BIT13                                 #  PAIR (13,12) INDICATING THE POSSIBLE OC-
001415:                                                                                                  #  CURRENCE OF 2NEWTON ITERATIONS FOR S32.1
001416:                                                                                                  #                        BIT 12 FLAG 11  # IN THE PROGRAM IN THE FOLLOWING ORDER:
001417: ???????                        S32.1F3B           =        168D                                  #  (0,1) (I.E.BIT 13 RESET, BIT 12 SET)
001418: ???????     4755               S3229T3B           =        BIT12                                 #       = FIRST NEWTON ITERATION BEING DONE
001419:                                                                                                  #  (0,0)= FIRST PASS OF 2ND NEWTON ITER.
001420:                                                                                                  #  (1,1)= 50 FPS STAGE OF 2ND NEWT ITER.
001421:                                                                                                  #  (1,0)= REMAINDER OF 2ND NEWT ITER.
001422:
001423:                                                                                                  #                        BIT 11 FLAG 11
001424: ???????                                           =        169D
001425:
001426:                                                                                                  #                        BIT 10 FLAG 11
001427: ???????                                           =        170D
001428:
001429:                                                                                                  #                        BIT 9 FLAG 11
001430: ???????                                           =        171D
001431:
001432:                                                                                                  #                        BIT 8 FLAG 11
001433: ???????                        AZIMFLAG           =        172D                                  #  3-AXIS UT             VECPOINT UT
001434: ???????     4761               AZIMBIT            =        BIT8
001435:
001436:                                                                                                  #                        BIT 7 FLAG 11
001437: ???????                        HAFLAG             =        173D                                  #  HEIGHT ADJUST         NOT HEIGHT ADJUST
001438: ???????     4762               HABIT              =        BIT7                                  #  MANEUVER PROG
001439:
001440:                                                                                                  #                        BIT 6 FLAG 11
001441: ???????                        CSISFLAG           =        174D                                  #  MULTIPLE CSI S        NOT MULTIPLE CSI
001442:
001443:
001444:                                                                                                  #  REQUESTED
001445: ???????     4763               CSISBIT            =        BIT6
001446:


001448:                                                                                                  #                        BIT 5 FLAG 11
001449: ???????                                           =        175D
001450:
001451:                                                                                                  #                        BIT 4 FLAG 11
001452: ???????                                           =        176D
001453:
001454:                                                                                                  #                        BIT 3 FLAG 11
001455: ???????                                           =        177D
001456:
001457:                                                                                                  #                        BIT 2 FLAG 11
001458: ???????                                           =        178D
001459:
001460:                                                                                                  #                        BIT 1 FLAG 11
001461: ???????                                           =        179D
001462:


001464:                                                                                                  #  GENERAL ERASABLE ASSIGNMENTS.
001465:
001466:    0061                                           SETLOC   61
001467:                                                                                                  #        INTERRUPT TEMPORARY STORAGE POOL.  (11D)
001468:                                                                                                  #          (ITEMP1 THROUGH RUPTREG4)
001469:
001470:                                                                                                  #        ANY OF THESE MAY BE USED AS TEMPORARIES DURING INTERRUPT OR WITH INTERRUPT INHIBITED. THE ITEMP SERIES
001471:                                                                                                  #  IS USED DURING CALLS TO THE EXECUTIVE AND WAITLIST - THE RUPTREGS ARE NOT.
001472:
001473:    0061                        ITEMP1             ERASE
001474:    0062     0061               WAITEXIT           EQUALS   ITEMP1
001475:    0062     0061               EXECTEM1           EQUALS   ITEMP1
001476:
001477:    0062                        ITEMP2             ERASE
001478:    0063     0062               WAITBANK           EQUALS   ITEMP2
001479:    0063     0062               EXECTEM2           EQUALS   ITEMP2
001480:
001481:    0063                        ITEMP3             ERASE
001482:    0064     0063               RUPTSTOR           EQUALS   ITEMP3
001483:    0064     0063               WAITADR            EQUALS   ITEMP3
001484:    0064     0063               NEWPRIO            EQUALS   ITEMP3
001485:
001486:    0064                        ITEMP4             ERASE
001487:    0065     0064               LOCCTR             EQUALS   ITEMP4
001488:    0065     0064               WAITTEMP           EQUALS   ITEMP4
001489:
001490:    0065                        ITEMP5             ERASE
001491:    0066     0065               NEWLOC             EQUALS   ITEMP5
001492:
001493:    0066                        ITEMP6             ERASE
001494:    0067     0066               NEWLOC+1           EQUALS   ITEMP6                                #  DP ADDRESS.
001495:
001496:    0067                                           SETLOC   67
001497:    0067                        NEWJOB             ERASE                                          #  MUST BE AT LOC 67 DUE TO WIRING.
001498:
001499:    0070                        RUPTREG1           ERASE
001500:    0071                        RUPTREG2           ERASE
001501:    0072                        RUPTREG3           ERASE
001502:    0073                        RUPTREG4           ERASE
001503:    0074     0073               KEYTEMP1           EQUALS   RUPTREG4
001504:    0074     0073               DSRUPTEM           EQUALS   RUPTREG4
001505:
001506:                                                                                                  #        FLAGWORD RESERVATIONS.                                          (12D)
001507:
001508:    0074                        STATE              ERASE    +11D
001509:
001510:                                                                                                  #        UNSWITCHED DAP ERASABLE.                                        (4D)
001511:    0110                        T6LOC              ERASE
001512:    0111                        T6ADR              ERASE


001514:    0112                        T5LOC              ERASE    +1
001515:
001516:
001517:                                                                                                  #        EXEC TEMPORARIES WHICH MAY BE USED BETWEEN CCS NEWJOBS.
001518:                                                                                                  #        (INTB15+ THROUGH RUPTMXM)                                       (32D)
001519:
001520:    0114                        INTB15+            ERASE                                          #  REFLECTS 15TH BIT OF INDEXABLE ADDRESSES
001521:    0115     0114               DSEXIT             EQUALS   INTB15+                               #  RETURN FOR DSPIN
001522:    0115     0114               EXITEM             EQUALS   INTB15+                               #  RETURN FOR SCALE FACTOR ROUTINE SELECT
001523:    0115                        INTBIT15           ERASE                                          #  SIMILAR TO ABOVE.
001524:    0116     0115               WDRET              EQUALS   INTBIT15                              #  RETURN FOR DSPWD
001525:    0116     0115               DECRET             EQUALS   INTBIT15                              #  RETURN FOR PUTCOM(DEC LOAD)
001526:    0116     0115               21/22REG           EQUALS   INTBIT15                              #  TEMP FOR CHARIN
001527:
001528:                                                                                                  #  THE REGISTERS BETWEEN ADDRWD AND PRIORITY MUST STAY IN THE FOLLOWING ORDER FOR INTERPRETIVE TRACE.
001529:
001530:    0116                        ADDRWD             ERASE                                          #  12 BIT INTERPRETIVE OPERAND SUB-ADDRESS.
001531:    0117                        POLISH             ERASE                                          #  HOLDS CADR MADE FROM POLISH ADDRESS.
001532:    0120     0117               UPDATRET           EQUALS   POLISH                                #  RETURN FOR UPDATNN, UPDATVB
001533:    0120     0117               CHAR               EQUALS   POLISH                                #  TEMP FOR CHARIN
001534:    0120     0117               ERCNT              EQUALS   POLISH                                #  COUNTER FOR ERROR LIGHT RESET
001535:    0120     0117               DECOUNT            EQUALS   POLISH                                #  COUNTER FOR SCALING AND DISPLAY (DEC)
001536:
001537:    0120                        FIXLOC             ERASE                                          #  WORK AREA ADDRESS.
001538:    0121                        OVFIND             ERASE                                          #  SET NON-ZERO ON OVERFLOW.
001539:
001540:    0122                        VBUF               ERASE    +5                                    #  TEMPORARY STORAGE USED FOR VECTORS.
001541:    0130     0122               SGNON              EQUALS   VBUF                                  #  TEMP FOR +,- ON
001542:    0130     0122               NOUNTEM            EQUALS   VBUF                                  #  COUNTER FOR MIXNOUN FETCH
001543:    0130     0122               DISTEM             EQUALS   VBUF                                  #  COUNTER FOR OCTAL DISPLAY VERBS
001544:    0130     0122               DECTEM             EQUALS   VBUF                                  #  COUNTER FOR FETCH (DEC DISPLAY VERBS)
001545:
001546:    0130     0123               SGNOFF             EQUALS   VBUF       +1                         #  TEMP FOR +,- ON
001547:    0130     0123               NVTEMP             EQUALS   VBUF       +1                         #  TEMP FOR NVSUB
001548:    0130     0123               SFTEMP1            EQUALS   VBUF       +1                         #  STORAGE FOR SF CONST HI PART(=SFTEMP2-1)
001549:    0130     0123               HITEMIN            EQUALS   VBUF       +1                         #  TEMP FOR LOAD OF HRS, MIN, SEC
001550:                                                                                                  #        MUST = LOTEMIN-1.
001551:    0130     0124               CODE               EQUALS   VBUF       +2                         #  FOR DSPIN
001552:    0130     0124               SFTEMP2            EQUALS   VBUF       +2                         #  STORAGE FOR SF CONST LO PART(=SFTEMP1+1)
001553:    0130     0124               LOTEMIN            EQUALS   VBUF       +2                         #  TEMP FOR LOAD OF HRS, MIN, SEC
001554:                                                                                                  #        MUST = HITEMIN+1.
001555:    0130     0125               MIXTEMP            EQUALS   VBUF       +3                         #  FOR MIXNOUN DATA
001556:                                                                                                  #  ALSO MIXTEMP+1 = VBUF+4, MIXTEMP+2 = VBUF+5.
001557:
001558:    0130                        BUF                ERASE    +2                                    #  TEMPORARY SCALAR STORAGE.
001559:    0133                        BUF2               ERASE    +1
001560:    0135     0130               INDEXLOC           EQUALS   BUF                                   #  CONTAINS ADDRESS OF SPECIFIED INDEX.
001561:    0135     0130               SWWORD             EQUALS   BUF                                   #  ADDRESS OF SWITCH WORD.
001562:    0135     0131               SWBIT              EQUALS   BUF        +1                         #  SWITCH BIT WITHIN THE SWITCH WORD.
001563:    0135                        MPTEMP             ERASE                                          #  TEMPORARY USED IN MULTIPLY AND SHIFT.


001565:    0136                        DOTINC             ERASE                                          #  COMPONENT INCREMENT FOR DOT SUBROUTINE.
001566:    0137     0136               DVSIGN             EQUALS   DOTINC                                #  DETERMINES SIGN OF DDV RESULT.
001567:    0137     0136               ESCAPE             EQUALS   DOTINC                                #  USED IN ARCSIN/ARCCOS.
001568:    0137     0136               ENTRET             EQUALS   DOTINC                                #  EXIT FROM ENTER
001569:
001570:    0137     0136               ENTEXIT            =        ENTRET
001571:
001572:    0137                        DOTRET             ERASE                                          #  RETURN FROM DOT SUBROUTINE.
001573:    0140     0137               DVNORMCT           EQUALS   DOTRET                                #  DIVIDEND NORMALIZATION COUNT IN DDV.
001574:    0140     0137               ESCAPE2            EQUALS   DOTRET                                #  ALTERNATE ARCSIN/ARCCOS SWITCH.
001575:    0140     0137               WDCNT              EQUALS   DOTRET                                #  CHAR COUNTER FOR DSPWD
001576:    0140     0137               INREL              EQUALS   DOTRET                                #  INPUT BUFFER SELECTOR ( X,Y,Z, REG )
001577:
001578:    0140                        MATINC             ERASE                                          #  VECTOR INCREMENT IN MXV AND VXM.
001579:    0141     0140               MAXDVSW            EQUALS   MATINC                                #  +0 IF DP QUOTIENT IS NEAR ONE - ELSE -1.
001580:    0141     0140               POLYCNT            EQUALS   MATINC                                #  POLYNOMIAL LOOP COUNTER
001581:    0141     0140               DSPMMTEM           EQUALS   MATINC                                #  DSPCOUNT SAVE FOR DSPMM
001582:    0141     0140               MIXBR              EQUALS   MATINC                                #  INDICATOR FOR MIXED OR NORMAL NOUN
001583:
001584:    0141                        TEM1               ERASE                                          #  EXEC TEMP
001585:    0142     0141               POLYRET            EQUALS   TEM1
001586:    0142     0141               DSREL              EQUALS   TEM1                                  #  REL ADDRESS FOR DSPIN
001587:
001588:    0142                        TEM2               ERASE                                          #  EXEC TEMP
001589:    0143     0142               DSMAG              EQUALS   TEM2                                  #  MAGNITUDE STORE FOR DSPIN
001590:    0143                        TEM3               ERASE                                          #  EXEC TEMP
001591:    0144     0143               COUNT              EQUALS   TEM3                                  #  FOR DSPIN
001592:
001593:    0144                        TEM4               ERASE                                          #  EXEC TEMP
001594:    0145     0144               RELRET             EQUALS   TEM4                                  #  RETURN FOR RELDSP
001595:    0145     0144               DSPWDRET           EQUALS   TEM4                                  #  RETURN FOR DSPSIGN
001596:    0145     0144               SEPSCRET           EQUALS   TEM4                                  #  RETURN FOR SEPSEC
001597:    0145     0144               SEPMNRET           EQUALS   TEM4                                  #  RETURN FOR SEPMIN
001598:
001599:    0145                        TEM5               ERASE                                          #  EXEC TEMP
001600:    0146     0145               NOUNADD            EQUALS   TEM5                                  #  TEMP STORAGE FOR NOUN ADDRESS
001601:
001602:    0146                        NNADTEM            ERASE                                          #  TEMP FOR NOUN ADDRESS TABLE ENTRY
001603:    0147                        NNTYPTEM           ERASE                                          #  TEMP FOR NOUN TYPE TABLE ENTRY
001604:    0150                        IDAD1TEM           ERASE                                          #  TEMP FOR INDIR ADDRESS TABLE ENTRY(MIXNN)
001605:                                                                                                  #  MUST = IDAD2TEM-1, = IDAD3TEM-2.
001606:    0151                        IDAD2TEM           ERASE                                          #  TEMP FOR INDIR ADDRESS TABLE ENTRY(MIXNN)
001607:                                                                                                  #  MUST = IDAD1TEM+1, = IDAD3TEM-1.
001608:    0152                        IDAD3TEM           ERASE                                          #  TEMP FOR INDIR ADDRESS TABLE ENTRY(MIXNN)
001609:                                                                                                  #  MUST = IDAD1TEM+2, = IDAD2TEM+1.
001610:    0153                        RUTMXTEM           ERASE                                          #  TEMP FOR SF ROUT TABLE ENTRY(MIXNN ONLY)
001611:
001612:                                                                                                  #        AX*SR*T STORAGE.                                                (6D)
001613:    0154     0142               DEXDEX             EQUALS   TEM2                                  #  B(1)TMP


001615:    0154     0143               DEX1               EQUALS   TEM3                                  #  B(1)TMP
001616:    0154     0144               DEX2               EQUALS   TEM4                                  #  B(1)TMP
001617:    0154     0145               RTNSAVER           EQUALS   TEM5                                  #  B(1)TMP
001618:    0154     0133               TERM1TMP           EQUALS   BUF2                                  #  B(2)TMP
001619:
001620:    0154     0143               DEXI               =        DEX1
001621:


001623:                                                                                                  #        DYNAMICALLY ALLOCATED CORE SETS FOR JOBS.                       (84D)
001624:
001625:    0154                        MPAC               ERASE    +6                                    #  MULTI-PURPOSE ACCUMULATOR.
001626:    0163                        MODE               ERASE                                          #  +1 FOR TP, +0 FOR DP, OR -1 FOR VECTOR.
001627:    0164                        LOC                ERASE                                          #  LOCATION ASSOCIATED WITH JOB.
001628:    0165                        BANKSET            ERASE                                          #  USUALLY CONTAINS BBANK SETTING.
001629:    0166                        PUSHLOC            ERASE                                          #  WORD OF PACKED INTERPRETIVE PARAMETERS.
001630:    0167                        PRIORITY           ERASE                                          #  PRIORITY OF PRESENT JOB AND WORK AREA.
001631:
001632:    0170                                           ERASE    +71D                                  #  SEVEN SETS OF 12 REGISTERS EACH
001633:
001634:                                                                                                  #        SPECIAL DOWNLINK BUFFER.-OVERLAYED BY P27 STORAGE-
001635:
001636:                                                                                                  #        P27(UPDATE PROGRAM) STORAGE. -OVERLAYS SPEC DNLNK BUFF-         (24D)
001637:
001638:    0300                        COMPNUMB           ERASE    +23D                                  #  B(1)TMP NUMBER OF ITEMS TO BE UPLINKED.
001639:    0330     0301               UPOLDMOD           EQUALS   COMPNUMB   +1                         #  B(1)TMP HOLDS INTERRUPTED PROGRAM NUMBER
001640:    0330     0302               UPVERB             EQUALS   UPOLDMOD   +1                         #  B(1)TMP VERB NUMBER
001641:    0330     0303               UPCOUNT            EQUALS   UPVERB     +1                         #  B(1)TMP UPBUFF INDEX
001642:    0330     0304               UPBUFF             EQUALS   UPCOUNT    +1                         #  B(20D)
001643:
001644:                                                                                                  #        MORE P27 STORAGE.                                               (2D)
001645:
001646:    0330                        UPTEMP             ERASE                                          #  B(1)TMP SCRATCH
001647:    0331                        UPVERBSV           ERASE                                          #  B(1)TMP
001648:
001649:
001650:                                                                                                  #        ENTRY DOWNLINK STORAGE
001651:
001652:                                                                                                  #                (20 REGISTERS OF ENTRY DOWNLINK WILL GO HERE.)
001653:
001654:                                                                                                  #                                                        THE FOLLOWING ARE INDEXED FOR TM. IN ENTRY DAP.
001655:
001656:    0332     0304               CMTMTIME           =        UPBUFF                                #  B(1) (VEHICLE BODY RATE INFO IS
001657:    0332     0305               SW/NDX             =        CMTMTIME   +1                         #  B(1)  TELEMETERED EACH 0.2 SEC. DURING
001658:    0332     0324               ENDBUF             =        CMTMTIME   +16D                       #  B(1)  ENTRY.)
001659:
001660:    0332     0325               V1                 =        ENDBUF     +1                         #  I(2) REENTRY, P64-P65
001661:    0332     0327               A0                 =        V1         +2                         #  I(2) REENTRY, P64-P65
001662:                                                                                                  #  HI-ORDER WORD ONLY ON DNLNK.
001663:
001664:                                                                                                  #        ALIGNMENT STORAGE.                                              (5D)
001665:                                                                                                  #        (CANNOT SHARE WITH PRECISION INTEGRATION OR KEPLER STORAGE.)
001666:
001667:    0332     0300               QMAJ               EQUALS   COMPNUMB                              #  B(1)TMP
001668:    0332     0301               MARKINDX           EQUALS   QMAJ       +1                         #  B(1)TMP
001669:    0332     0302               BESTI              EQUALS   MARKINDX   +1                         #  I(1)TMP
001670:    0332     0303               BESTJ              EQUALS   BESTI      +1                         #  I(1)TMP
001671:    0332     0304               STARIND            EQUALS   BESTJ      +1                         #  I(1)TMP
001672:


001674:                                                                                                  #        ALIGNMENT/S40.2,3 COMMON STORAGE.                               (18D)
001675:
001676:    0332     0306               XSMD               EQUALS   UPBUFF     +2                         #  I(6)TMP
001677:    0332     0314               YSMD               EQUALS   XSMD       +6                         #  I(6)TMP
001678:    0332     0322               ZSMD               EQUALS   YSMD       +6                         #  I(6)TMP
001679:
001680:    0332     0306               XSCREF             =        XSMD                                  #        SPACE CRAFT AXES IN REF COORDS.
001681:    0332     0314               YSCREF             =        YSMD
001682:    0332     0322               ZSCREF             =        ZSMD
001683:
001684:
001685:                                                                                                  #        ALIGNMENT TEMPS IN VAC
001686:
001687:    0332                        ZPRIME             =        22D
001688:    0332                        PDA                =        22D
001689:    0332                        COSTH              =        16D
001690:    0332                        SINTH              =        18D
001691:    0332                        THETA              =        20D
001692:    0332                        STARM              =        32D
001693:
001694:                                                                                                  #  R52 AUTO-OPTICS (1)
001695:
001696:    0332     0330               PACTEMP            EQUALS   ZSMD       +6D                        #  B(1)TMP
001697:
001698:                                                                                                  #        DOWNLINK STORAGE.                                               (17D)
001699:
001700:    0332     0332               DNLSTADR           EQUALS   DNLSTCOD                              #  CONTENTS NO LONGER AN ADDR BUT A CODE
001701:
001702:    0332                        DNLSTCOD           ERASE                                          #  B(1)PRM ID CODE OF DOWNLIST
001703:    0333                        CTLIST             ERASE
001704:    0334                        DNTMGOTO           ERASE                                          #  B(1)
001705:    0335                        TMINDEX            ERASE                                          #  B(1)
001706:    0336     0335               DNECADR            EQUALS   TMINDEX                               #  B(1) ADDRESS OF CURRENT DNLST WORD
001707:    0336     0335               DUMPLOC            EQUALS   TMINDEX                               #  CONTAINS ECADR OF AGC DP WORD BEING DUMP
001708:                                                                                                  #  ED AND COUNT OF COMPLETE DUMPS ALREADY S
001709:                                                                                                  #  ENT.
001710:    0336                        SUBLIST            ERASE                                          #  B(1)
001711:    0337                        DNTMBUFF           ERASE    +11D                                  #  B(12) PRM DOWNLINK SNAPSHOT BUFFER
001712:
001713:
001714:
001715:                                                                                                  #        OPTICS MARKING . UNSHARED.                                      (8D)
001716:
001717:    0353                        MKNDX              ERASE
001718:    0354                        MKT2T1             ERASE    +1
001719:    0356                        MKCDUY             ERASE
001720:    0357                        MKCDUS             ERASE
001721:    0360                        MKCDUZ             ERASE


001723:    0361                        MKCDUT             ERASE
001724:    0362                        MKCDUX             ERASE
001725:
001726:
001727:
001728:                                                                                                  #        R52 TIME SAVE STORAGE                                           (2)
001729:    0363                        AOPOLD             ERASE    +1
001730:
001731:
001732:                                                                                                  #        UNSWITCHED FOR DISPLAY INTERFACE ROUTINES.                      (7D)
001733:
001734:    0365                        RESTREG            ERASE                                          #  B(1)PRM FOR DISPLAY RESTARTS
001735:    0366                        NVWORD             ERASE
001736:    0367                        MARKNV             ERASE
001737:    0370                        NVSAVE             ERASE                                          #   PURPOSES)
001738:    0371                        CADRFLSH           ERASE                                          #  B(1)TMP
001739:    0372                        CADRMARK           ERASE                                          #  B(1)TMP
001740:    0373                        TEMPFLSH           ERASE                                          #  B(1)TMP
001741:
001742:
001743:                                                                                                  #  CHANNEL FAIL REGISTER                                                 (1D)
001744:
001745:    0374                        C31FLWRD           ERASE                                          #  B(1)PRM
001746:
001747:
001748:                                                                                                  #  C31FLWRD HAS THE FOLLOWING OCTAL FORMAT AXXBX WHERE A + B HAVE THE FOLLOWING INTERPRETATION. IF THE ASTRONAUT
001749:                                                                                                  #  DESIRES TO BYPASS THE CHANNEL REPRESENTATION, HE SHOULD LOAD C31FLWRD   VIA V21 N01 TO THE VALUES SHOWN IN THE
001750:                                                                                                  #  FOLLOWING TABLES:
001751:
001752:                                                                                                  #     A VALUE      MEANING FOR CHANNEL 31                                     B VALUE      MEANING FOR CHANNEL 33
001753:
001754:                                                                                                  #     0 OR 4       BITS 15,14, + 13 OF CHANNEL 31 ARE VALID                   0 OR 4       BITS 4 + 5 OF CHANNEL 33
001755:                                                                                                  #     1            G&N CONTROL FREE                                           1 OR 5       OPTICS MODE CMC
001756:                                                                                                  #     2            G&N CONTROL ATT. HOLD                                      2 OR 6       OPTICS MODE ZERO
001757:                                                                                                  #     3            G&N CONTROL AUTO                                           3 OR 7       OPTICS MODE MANUAL
001758:                                                                                                  #     5            SCS CONTROL FREE
001759:                                                                                                  #     6            SCS CONTROL ATT. HOLD
001760:                                                                                                  #     7            SCS CONTROL AUTO
001761:
001762:
001763:                                                                                                  #  ALARM REGISTERS                                                       (3D)
001764:
001765:    0375                        FAILREG            ERASE    +2                                    #  B(3)PRM ALARM ABORT CODES
001766:
001767:    0400                                           SETLOC   400
001768:                                                                                                  #  VAC AREAS. -BE CAREFUL OF PLACEMENT-                                  (220D)
001769:
001770:    0400                        VAC1USE            ERASE                                          #  B(1)PRM
001771:    0401                        VAC1               ERASE    +42D                                  #  B(43)PRM


001773:    0454                        VAC2USE            ERASE                                          #  B(1)PRM
001774:    0455                        VAC2               ERASE    +42D                                  #  B(43)PRM
001775:    0530                        VAC3USE            ERASE                                          #  B(1)PRM
001776:    0531                        VAC3               ERASE    +42D                                  #  B(43)PRM
001777:    0604                        VAC4USE            ERASE                                          #  B(1)PRM
001778:    0605                        VAC4               ERASE    +42D                                  #  B(43)PRM
001779:    0660                        VAC5USE            ERASE                                          #  B(1)PRM
001780:    0661                        VAC5               ERASE    +42D                                  #  B(43)PRM
001781:
001782:
001783:                                                                                                  #        TEMP STORAGE FOR RESTARTS ROUTINE -- STARTS AT VAC5 + 19D
001784:
001785:    0734     0705               GOLOC              EQUALS   VAC5       +20D                       #  B(4) GOLOC -1 THRU GOLOC +2 USED
001786:                                                                                                  #     TO SET EXEC AND WTLST CALL
001787:
001788:                                                                                                  #        V82, V90 STORAGE        (1D)
001789:
001790:    0734                        VEHRET             ERASE
001791:
001792:                                                                                                  #        P24-RATE AIDED OPTICS (PAD LOAD)*****                           (3D)
001793:
001794:
001795:    0735                        TRATE              ERASE
001796:    0736                        SRATE              ERASE
001797:    0737                        NO.PASS            ERASE
001798:
001799:
001800:                                                                                                  #        P24-RATE AIDED OPTICS UNSHARED ERASABLES                        (2D)
001801:
001802:    0740                        TOLD               ERASE
001803:    0741                        SOLD               ERASE
001804:
001805:
001806:
001807:                                                                                                  #        SINGLE PRECISION SUBROUTINE TEMPORARIES.                        (2D)
001808:
001809:                                                                                                  #                                                                        SPSIN, SPCOS VARIABLES
001810:
001811:                                                                                                  #                                                                DO NOT SHARE. THESE ARE USED BY DAPS IN INTERRUPT
001812:                                                                                                  #                                                                AND CURRENTLY ARE NOT PROTECTED. IF OTHER USERS
001813:                                                                                                  #                                                                MATERIALIZE, THEN THIS CAN BE CHANGED.
001814:
001815:    0742                        TEMK               ERASE
001816:    0743                        SQ                 ERASE
001817:


001819:                                                                                                  #        UNSWITCHED FOR ORBIT INTEGRATION.                               (21D)
001820:
001821:    0744                        TDEC               ERASE    +20D                                  #  I(2)
001822:    0771     0746               LAT                EQUALS   TDEC       +2                         #  I(2)DSP NOUN 43,67 FOR P20,22,51,R52,53.
001823:    0771     0746               LANDLAT            =        LAT                                   #          NOUN 89    FOR P22.
001824:    0771     0750               LONG               EQUALS   LAT        +2                         #  I(2)DSP NOUN 43,67 FOR P20,22,51 R52,53.
001825:    0771     0752               ALT                EQUALS   LONG       +2                         #  I(2)DSP NOUN 43    FOR P20,22,51 R52,53.
001826:    0771     0754               YV                 EQUALS   ALT        +2                         #  I(6)
001827:    0771     0762               ZV                 EQUALS   YV         +6                         #  I(6)
001828:    0771     0770               COLREG             EQUALS   ZV         +6                         #  I(1)
001829:
001830:
001831:
001832:                                                                                                  #        MARK STORAGE.                                                   (2)
001833:
001834:    0771                        VHFCNT             ERASE                                          #  B(1) PRM NO. OF VHF MARKS(P20(R22)).
001835:    0772                        TRKMKCNT           ERASE                                          #  B(1) PRM NO. OF VHF MARKS (P20(R22)).
001836:
001837:                                                                                                  #        P24 STORAGE                                                     (1D)
001838:
001839:    0773     0771               RATETEMP           EQUALS   VHFCNT                                #  B(1) TMP
001840:
001841:                                                                                                  #        MISCELLANEOUS UNSWITCHED.                                       (15D)
001842:
001843:    0773                        IRETURN1           ERASE                                          #  B(1)  RET ADDR USED BY MIDTOAV1 AND 2
001844:                                                                                                  #  CALLED BY P40,P41,P42,  P61,P62
001845:    0774                        RATEINDX           ERASE                                          #   (1)    USED BY KALCMANU
001846:    0775                        OPTION1            ERASE                                          #  B(1)   NOUN 06 USES THIS.
001847:    0776                        OPTION2            ERASE                                          #  B(1)   NOUN 06 USES THIS.
001848:    0777                        NVWORD1            ERASE                                          #  B(1)
001849:    1000                        DELAYLOC           ERASE    +3
001850:    1004                        TEMPR60            ERASE                                          #  B(1)
001851:    1005                        PRIOTIME           ERASE                                          #  B(1)
001852:    1006                        TIME2SAV           ERASE    +1                                    #  B(2)TMP
001853:    1010                        SCALSAVE           ERASE    +1                                    #  B(2)TMP
001854:                                                                                                  #        P20, CONICS   (SHARING WITH TIME 2 SAVE AND SCAL SAV ONLY)      (3D)
001855:
001856:    1012     1006               POINTEX            EQUALS   TIME2SAV                              #  I(1) POINT AXS EXIT
001857:    1012     1007               VHFTIME            EQUALS   POINTEX    +1                         #  I(2) DOWNLINK OF VHF RANGE TIME +1M
001858:
001859:
001860:
001861:                                                                                                  #        MINKEY RENDEZVOUS                                               (1D)
001862:
001863:    1012                        AUTPOINT           ERASE                                          #  B(1) CONTROLLER RETURN
001864:


001866:
001867:                                                                                                  #        CRS61.1 STORAGE.  -USED IN R63 (VERB 89)-                       (3D)
001868:
001869:    1013                        CPHIX              ERASE    +2                                    #  B(3)DSP NOUN 95 CALCULATED BY CRS61.1
001870:
001871:
001872:
001873:                                                                                                  #        NOUN 26 ERASABLES                                               (3D)
001874:
001875:    1016                        N26/PRI            ERASE                                          #  B(1D)  PRIO/TIME DELAY
001876:    1017                        N26/2CAD           ERASE    +1                                    #  B(2D)  2CADR OF JOB/TASK
001877:
001878:
001879:                                                                                                  #  DOWNLINK TIME OF EVENT
001880:
001881:    1021                        TEVENT             ERASE    +1                                    #  B(2)     TIME OF EVENT FOR DOWNLIST
001882:    1023     1021               TLIFTOFF           =        TEVENT
001883:
001884:                                                                                                  #        P34-P35 STORAGE                                                 (1D)
001885:    1023                        NORMEX             ERASE
001886:
001887:
001888:
001889:                                                                                                  #        R57 STORAGE. -MUST BE UNSHARED EXCEPT IN BOOST OR ENTRY-        (1D)
001890:
001891:    1024                        TRUNBIAS           ERASE                                          #  B(1)PRM RESULT OF R57 CALIBR OF TRUNION
001892:
001893:
001894:
001895:                                                                                                  #        KEPLER STORAGE                                                  (6D)
001896:
001897:    1025                        EPSILONT           ERASE    +1                                    #  I(2) TMP
001898:
001899:
001900:
001901:                                                                                                  #        PERM STATE VECTORS FOR BOOST AND DOWNLINK -WHOLE MISSION-       (14D)
001902:
001903:    1027                        RN                 ERASE    +5                                    #  B(6)PRM
001904:    1035                        VN                 ERASE    +5                                    #  B(6)PRM
001905:    1043                        PIPTIME            ERASE    +1                                    #  B(2)PRM (MUST BE FOLLOWED BY GDT/2)
001906:
001907:
001908:                                                                                                  #        SERVICER STORAGE.                                               (45D)
001909:
001910:                                                                                                  #        (SERVICER STORAGE AND P11 STORAGE IN UNSWITHCHED SHOULD NOT
001911:                                                                                                  #        OVERLAY EACH OTHER AND THE TOTAL ERASABLE REQUIRED SHOULD NOT
001912:                                                                                                  #        EXCEED THE ERASABLE STORAGE REQUIRED BY RENDEZVOUS GUIDANCE)
001913:
001914:    1045     1045               GDT/2              EQUALS   PIPTIME    +2                         #  B(6)TMP       (MUST FOLLOW PIPTIME)


001916:    1045     1053               GOBL/2             EQUALS   GDT/2      +6                         #  B(6)TMP
001917:    1045     1061               AVEGEXIT           EQUALS   GOBL/2     +6                         #  B(2)TMP
001918:    1045     1061               AVGEXIT            =        AVEGEXIT
001919:    1045     1063               TEMX               EQUALS   AVEGEXIT   +2                         #  B(1)TMP
001920:    1045     1064               TEMY               EQUALS   TEMX       +1                         #  B(1)TMP
001921:    1045     1065               TEMZ               EQUALS   TEMY       +1                         #  B(1)TMP
001922:    1045     1066               PIPCTR             EQUALS   TEMZ       +1                         #  B(1)TMP
001923:    1045     1067               PIPAGE             EQUALS   PIPCTR     +1                         #  B(1)TMP
001924:
001925:
001926:    1045     1070               RN1                EQUALS   PIPAGE     +1                         #  B(6)TMP
001927:    1045     1076               VN1                EQUALS   RN1        +6                         #  B(6)TMP
001928:    1045     1104               PIPTIME1           EQUALS   VN1        +6                         #  B(2)TMP
001929:    1045     1106               GDT1/2             EQUALS   PIPTIME1   +2                         #  B(6)TMP
001930:    1045     1114               GOBL1/2            EQUALS   GDT1/2     +6                         #  B(6)TMP
001931:
001932:                                                                                                  #        ENTRY STORAGE.                                                  (1D)
001933:
001934:    1045     1122               ENTRYVN            EQUALS   GOBL1/2    +6                         #  B(1)TMP VN CODE FOR ENTRY DISPLAYS P60S.
001935:
001936:
001937:
001938:                                                                                                  #        RENDEZVOUS NAVIGATION STORAGE.(SEE COMMENT IN SERVICER STORAGE) (58D)
001939:
001940:    1045                        CSMPOS             ERASE    +55D                                  #  I(6)TMP
001941:    1135     1053               LEMPOS             EQUALS   CSMPOS     +6                         #  I(6)TMP
001942:    1135     1061               MARKTIME           EQUALS   LEMPOS     +6                         #  B(2) TEMP MUST PRECEDE VTEMP FOR GENTRAN
001943:    1135     1063               VTEMP              EQUALS   MARKTIME   +2                         #  B(6)TMP
001944:    1135     1071               UM                 EQUALS   VTEMP      +6                         #  I(6)TMP
001945:    1135     1077               MARKDATA           EQUALS   UM         +6                         #  B(2)TMP
001946:    1135     1101               USTAR              EQUALS   MARKDATA   +2                         #  I(6)TMP
001947:    1135     1107               WIXA               EQUALS   USTAR      +6                         #  B(1)TMP
001948:    1135     1110               WIXB               EQUALS   WIXA       +1                         #  B(1)TMP
001949:    1135     1111               ZIXA               EQUALS   WIXB       +1                         #  B(1)TMP
001950:    1135     1112               ZIXB               EQUALS   ZIXA       +1                         #  B(1)TMP
001951:    1135     1113               DELTAX             EQUALS   ZIXB       +1                         #  I(18)TMP
001952:
001953:    1135     1113               VHFRANGE           EQUALS   DELTAX                                #   (2)
001954:    1135     1127               UCL                EQUALS   DELTAX     +12D                       #   (6)     LM-CSM LINE OF SIGHT 1/2 UNIT V
001955:
001956:
001957:                                                                                                  #        P22 TEMPORARIES
001958:
001959:    1135     1053               S22UOFF            EQUALS   LEMPOS                                #  I(6)TMP  UM OFFSET
001960:    1135     1053               9DWXX              EQUALS   LEMPOS                                #  I(1)TMP QSAVE REGISTER
001961:    1135     1113               S22UUT             EQUALS   DELTAX                                #  I(18)
001962:


001964:
001965:                                                                                                  #        MINKEY RENDEZVOUS *** (1D)
001966:
001967:    1135     1113               TEMPMM             EQUALS   DELTAX                                #  B(1) MAJOR MODE DURING P20 STARTUP
001968:
001969:
001970:                                                                                                  #        USED FOR SUMMATION OF UPRUPT DURING PRELAUNCH & SYS TEST LEADIN (3D)
001971:
001972:    1135     1116               UPSUM              EQUALS   EBUF2      +2                         #  (3)
001973:
001974:
001975:                                                                                                  #        PRELAUNCH ERASABLE PROGRAM ENTRANCE                             (2D)
001976:
001977:    1135     1114               EBUF2              EQUALS   GOBL1/2                               #  (2)
001978:
001979:
001980:                                                                                                  #        FOR STALL ROUTINE FOR VHF RADAR
001981:
001982:
001983:    1135     1063               RADTIME            EQUALS   VTEMP                                 #  B(1)
001984:    1135     1064               RADDEL             EQUALS   RADTIME    +1                         #  B(1)
001985:
001986:
001987:                                                                                                  #        P11 STORAGE.                                                    (9D)
001988:
001989:    1135     1126               LIFTTEMP           EQUALS   UCL        -1                         #  (2)TMP
001990:    1135     1130               TEPHEM1            EQUALS   LIFTTEMP   +2                         #   (3)TMP
001991:    1135     1133               PGNCSALT           EQUALS   TEPHEM1    +3                         #   (2)PL  ALTITUDE
001992:    1135     1135               PADLONG            EQUALS   PGNCSALT   +2                         #  (2)PL LONGITUDE F LAUNCH PAD
001993:
001994:
001995:                                                                                                  #     **** CONICSEX (MEAS INC) ****                                      (6D)
001996:
001997:    1135     1113               TRIPA              EQUALS   DELTAX
001998:    1135     1116               TEMPVAR            EQUALS   DELTAX     +3
001999:
002000:
002001:
002002:                                                                                                  #        P24   RATE AIDED OPTICS
002003:
002004:    1135     1131               PASSCNT            EQUALS   TEPHEM1    +1                         #  B(1)
002005:
002006:
002007:                                                                                                  #        P20-P22 PROCESSING STORAGE                                      (2D)
002008:
002009:    1135                        TEMPOR1            ERASE    +1                                    #  B(2)TMP
002010:
002011:
002012:                                                                                                  #        WAITLIST REPEAT FLAG.                                           (1D)
002013:
002014:    1137                        RUPTAGN            ERASE                                          #  B(1)PRM


002016:    1140     1137               KEYTEMP2           =        RUPTAGN
002017:
002018:
002019:                                                                                                  #        STARALIGN ERASABLES.                                            (13D)
002020:
002021:    1140                        STARCODE           ERASE                                          #  B(1)DSP NOUN 70 FOR P22,51 AND R52,53.
002022:    1141                        STARALGN           ERASE    +11D
002023:    1155     1141               SINCDU             =        STARALGN
002024:    1155     1147               COSCDU             =        STARALGN   +6
002025:
002026:    1155     1145               SINCDUX            =        SINCDU     +4
002027:    1155     1141               SINCDUY            =        SINCDU
002028:    1155     1143               SINCDUZ            =        SINCDU     +2
002029:    1155     1153               COSCDUX            =        COSCDU     +4
002030:    1155     1147               COSCDUY            =        COSCDU
002031:    1155     1151               COSCDUZ            =        COSCDU     +2
002032:
002033:
002034:                                                                                                  #        PHASE TABLE AND RESTART COUNTERS.                               (12D)
002035:
002036:    1155                        -PHASE1            ERASE                                          #  B(1)PRM
002037:    1156                        PHASE1             ERASE                                          #  B(1)PRM
002038:    1157                        -PHASE2            ERASE                                          #  B(1)PRM
002039:    1160                        PHASE2             ERASE                                          #  B(1)PRM
002040:    1161                        -PHASE3            ERASE                                          #  B(1)PRM
002041:    1162                        PHASE3             ERASE                                          #  B(1)PRM
002042:    1163                        -PHASE4            ERASE                                          #  B(1)PRM
002043:    1164                        PHASE4             ERASE                                          #  B(1)PRM
002044:    1165                        -PHASE5            ERASE                                          #  B(1)PRM
002045:    1166                        PHASE5             ERASE                                          #  B(1)PRM
002046:    1167                        -PHASE6            ERASE                                          #  B(1)PRM
002047:    1170                        PHASE6             ERASE                                          #  B(1)PRM
002048:
002049:
002050:                                                                                                  #        AX*SR*T STORAGE.                                                (6D)
002051:
002052:    1171                        CDUSPOT            ERASE    +5                                    #  B(6)
002053:
002054:    1177     1171               CDUSPOTY           =        CDUSPOT
002055:    1177     1173               CDUSPOTZ           =        CDUSPOT    +2
002056:    1177     1175               CDUSPOTX           =        CDUSPOT    +4
002057:
002058:
002059:                                                                                                  #        VERB 37 STORAGE.                                                (2D)
002060:
002061:    1177                        MINDEX             ERASE                                          #  B(1)TMP  INDEX FOR MAJOR MODE
002062:    1200                        MMNUMBER           ERASE                                          #  B(1)TMP  MAJOR MODE REQUESTED VIA V37
002063:
002064:
002065:                                                                                                  #        PINBALL INTERRUPT STORAGE.                                      (1D)
002066:


002068:    1201                        DSPCNT             ERASE                                          #  B(1)PRM DSPOUT COUNTER
002069:
002070:
002071:                                                                                                  #        PINBALL EXECUTIVE ACTION.                                       (44D)
002072:
002073:    1202                        DSPCOUNT           ERASE                                          #  DISPLAY POSITION INDICATOR
002074:    1203                        DECBRNCH           ERASE                                          #  +DEC, - DEC, OCT INDICATOR
002075:    1204                        VERBREG            ERASE                                          #  VERB CODE
002076:    1205                        NOUNREG            ERASE                                          #  NOUN CODE
002077:    1206                        XREG               ERASE                                          #  R1 INPUT BUFFER
002078:    1207                        YREG               ERASE                                          #  R2 INPUT BUFFER
002079:    1210                        ZREG               ERASE                                          #  R3 INPUT BUFFER
002080:    1211                        XREGLP             ERASE                                          #  LO PART OF XREG (FOR DEC CONV ONLY)
002081:    1212                        YREGLP             ERASE                                          #  LO PART OF YREG (FOR DEC CONV ONLY)
002082:    1213     1212               HITEMOUT           =        YREGLP                                #  TEMP FOR DISPLAY OF HRS, MIN, SEC
002083:                                                                                                  #        MUST = LOTEMOUT-1.
002084:    1213                        ZREGLP             ERASE                                          #  LO PART OF ZREG (FOR DEC CONV ONLY)
002085:    1214     1213               LOTEMOUT           =        ZREGLP                                #  TEMP FOR DISPLAY OF HRS, MIN, SEC
002086:                                                                                                  #        MUST = HITEMOUT+1.
002087:    1214                        MODREG             ERASE                                          #  MODE CODE
002088:    1215                        DSPLOCK            ERASE                                          #  KEYBOARD/SUBROUTINE CALL INTERLOCK
002089:    1216                        REQRET             ERASE                                          #  RETURN REGISTER FOR LOAD
002090:    1217                        LOADSTAT           ERASE                                          #  STATUS INDICATOR FOR LOADTST
002091:    1220                        CLPASS             ERASE                                          #  PASS INDICATOR CLEAR
002092:    1221                        NOUT               ERASE                                          #  ACTIVITY COUNTER FOR DSPTAB
002093:    1222                        NOUNCADR           ERASE                                          #  MACHINE CADR FOR NOUN
002094:    1223                        MONSAVE            ERASE                                          #  N/V CODE FOR MONITOR. (= MONSAVE1-1)
002095:    1224                        MONSAVE1           ERASE                                          #  NOUNCADR FOR MONITOR(MATBS) =MONSAVE +1
002096:    1225                        MONSAVE2           ERASE                                          #  B(1)PRM NVMONOPT OPTIONS
002097:    1226                        DSPTAB             ERASE    +11D                                  #  0-100, DISPLAY PANEL BUFF. 11D, C/S LTS.
002098:    1242                        NVQTEM             ERASE                                          #  NVSUB STORAGE FOR CALLING ADDRESS
002099:                                                                                                  #  MUST = NVBNKTEM-1
002100:    1243                        NVBNKTEM           ERASE                                          #  NVSUB STORAGE FOR CALLING BANK
002101:                                                                                                  #  MUST = NVQTEM+1
002102:    1244                        VERBSAVE           ERASE                                          #  NEEDED FOR RECYCLE
002103:    1245                        CADRSTOR           ERASE                                          #  ENDIDLE STORAGE
002104:    1246                        DSPLIST            ERASE                                          #  WAITING REG FOR DSP SYST INTERNAL USE
002105:    1247                        EXTVBACT           ERASE                                          #  EXTENDED VERB ACTIVITY INTERLOCK
002106:    1250                        DSPTEM1            ERASE    +2                                    #  BUFFER STORAGE AREA 1 (MOSTLY FOR TIME)
002107:    1253                        DSPTEM2            ERASE    +2                                    #  BUFFER STORAGE AREA 2 (MOSTLY FOR DEG)
002108:
002109:
002110:    1256     1254               DSPTEMX            EQUALS   DSPTEM2    +1                         #  B(2) S-S DISPLAY BUFFER FOR EXT. VERBS.
002111:    1256     1250               NORMTEM1           EQUALS   DSPTEM1                               #  B(3)DSP NORMAL DISPLAY REGISTERS.
002112:
002113:
002114:
002115:                                                                                                  #        DISPLAY FOR EXTENDED VERBS                                      (2D)
002116:
002117:    1256     1255               OPTIONX            EQUALS   DSPTEMX    +1                         #  B(2) EXT VB OPTION CODE


002119:    1256                        OPTIONEV           ERASE
002120:
002121:
002122:
002123:                                                                                                  #        TBASE'S AND PHSPRDT'S.                                          (12D)
002124:
002125:    1257                        TBASE1             ERASE                                          #  B(1)PRM
002126:    1260                        PHSPRDT1           ERASE                                          #  B(1)PRM
002127:    1261                        TBASE2             ERASE                                          #  B(1)PRM
002128:    1262                        PHSPRDT2           ERASE                                          #  B(1)PRM
002129:    1263                        TBASE3             ERASE                                          #  B(1)PRM
002130:    1264                        PHSPRDT3           ERASE                                          #  B(1)PRM
002131:    1265                        TBASE4             ERASE                                          #  B(1)PRM
002132:    1266                        PHSPRDT4           ERASE                                          #  B(1)PRM
002133:    1267                        TBASE5             ERASE                                          #  B(1)PRM
002134:    1270                        PHSPRDT5           ERASE                                          #  B(1)PRM
002135:    1271                        TBASE6             ERASE                                          #  B(1)PRM
002136:    1272                        PHSPRDT6           ERASE                                          #  B(1)PRM
002137:
002138:
002139:                                                                                                  #  V37 TEMP STORAGE                                                      (2D)
002140:    1273     1264               MMTEMP             EQUALS   PHSPRDT3                              #  B(1)TMP
002141:    1273     1265               BASETEMP           EQUALS   TBASE4                                #  B(1)TMP
002142:
002143:                                                                                                  #        MORE UNSWITCHED FOR DISPLAY INF                                 (4D)
002144:
002145:    1273                        EBANKSAV           ERASE
002146:    1274     1273               DSPFLG             =        EBANKSAV
002147:    1274                        MARKFLAG           ERASE
002148:    1275                        EBANKTEM           ERASE
002149:    1276                        MARK2PAC           ERASE
002150:
002151:
002152:                                                                                                  #  MISCELLANEOUS UNSWITCHED                                              (19D)
002153:    1277                        1/PIPADT           ERASE                                          #  B(1)PRM
002154:    1300     1277               OLDBT1             =        1/PIPADT
002155:
002156:    1300                        LONGCADR           ERASE    +1                                    #  B(2)    LONGCALL REGISTER
002157:    1302                        LONGBASE           ERASE    +1                                    #  B(2)    LONGCALL REGISTER
002158:    1304                        LONGTIME           ERASE    +1                                    #  B(2)    LONGCALL REGISTER
002159:
002160:
002161:
002162:                                                                                                  #        MISC. INCLUDING RESTART COUNTER, GIMBAL ANGLE  SAVE  AND
002163:                                                                                                  #        STANDBY VERB ERASABLES. REDOCTR BEFORE THETAD (DWNLNK)
002164:
002165:    1306                        REDOCTR            ERASE                                          #  B(1)PRM CONTAINS NUMBER OF RESTARTS.
002166:    1307                        THETAD             ERASE    +2                                    #  B(3)PRM DESIRED GIM ANGLES FOR MANEUVER.
002167:    1312     1307               CPHI               =        THETAD                                #          (OUTER)


002169:    1312     1310               CTHETA             =        THETAD     +1                         #          (INNER)
002170:    1312     1311               CPSI               =        THETAD     +2                         #          (MIDDLE)
002171:
002172:                                                                                                  #        ENTRY VARIABLES SHARED FOR TM.                                  (4D)
002173:
002174:    1312     1307               RDOTREF            =        THETAD                                #  I(2)    P65
002175:    1312     1311               VREF               =        RDOTREF    +2                         #  I(2)    P65   HI-ORDER WORD ONLY DNLNK'D
002176:    1312                        DESOPTT            ERASE                                          #  B(1)DSP NOUN 92 FOR P20,22,52, R52.
002177:    1313                        DESOPTS            ERASE                                          #  B(1)DSP NOUN 92 FOR P20,22,52, R52.
002178:
002179:    1314                        DELV               ERASE    +5                                    #  I(6)
002180:    1322     1314               DELVX              =        DELV
002181:    1322     1316               DELVY              =        DELV       +2
002182:    1322     1320               DELVZ              =        DELV       +4
002183:
002184:
002185:                                                                                                  #        T4RUPT ERASABLE.                                                (6D)
002186:
002187:    1322                        DSRUPTSW           ERASE
002188:    1323                        OPTIND             ERASE
002189:    1324                        LGYRO              ERASE
002190:    1325                        COMMANDO           ERASE    +1
002191:    1327                        ZONE               ERASE                                          #  B(1)PRM USED IN SHAFT STOP MONITOR
002192:
002193:
002194:                                                                                                  #        MODE SWITCHING ERASABLE.                                        (09D)
002195:
002196:    1330                        DESOPMOD           ERASE                                          #  B(1)PRM
002197:    1331                        WTOPTION           ERASE                                          #  B(1)PRM
002198:    1332                        ZOPTCNT            ERASE                                          #  B(1)PRM
002199:
002200:
002201:    1333                        IMODES30           ERASE                                          #  B(1)PRM
002202:    1334     4752               TLIMBIT            =        BIT15                                 #  IMU TEMP NOT          IMU TEMP WITHIN
002203:                                                                                                  #  WITHIN LIMITS         LIMITS
002204:
002205:    1334     4753               TONISSBT           =        BIT14                                 #  ISS OFF               ISS ON
002206:
002207:    1334     4754               IMUFLBIT           =        BIT13                                 #  IMU OK                IMU FAIL IS ON
002208:
002209:    1334     4755               ICDUFLBT           =        BIT12                                 #  IMU CDU OK            IMU CDU FAIL IS ON
002210:
002211:    1334     4756               CAGEBIT            =        BIT11                                 #  IMU CAGE NOT ON       IMU CAGE ON
002212:
002213:    1334     4757               PIPAFLBT           =        BIT10                                 #  PIPA OK               PIPA FAIL IS ON
002214:
002215:    1334     4760               IMUOPBIT           =        BIT9                                  #  IMU OFF OR NOT OK     IMU ON AND OK
002216:
002217:    1334     4761               ITNON2BT           =        BIT8                                  #  IMU TURN ON DELAYED   IMU TURN ON ALLOWED
002218:


002220:    1334     4762               ITNON1BT           =        BIT7                                  #  IMU TURN ON DELAYED   IMU TURN ON ALLOWED
002221:
002222:    1334     4763               IMUNITBT           =        BIT6                                  #  IMU INIT IN PROCESS   IMU NOT BEING INIT.
002223:
002224:    1334     4764               NOACCALM           =        BIT5                                  #  INHIBIT PIPA ALARM    ALLOW PIPA ALARM
002225:
002226:    1334     4765               IMUFINHT           =        BIT4                                  #  INHIBIT IMU WARNING   ALLOW IMU WARNING
002227:
002228:    1334     4766               ICDUINHT           =        BIT3                                  #  INHIBIT CDU WARNING   ALLOW CDU WARNING
002229:
002230:    1334     4767               DLAYFAIL           =        BIT2                                  #  TURNON DELAY FAIL     TURN DELAY OK
002231:
002232:    1334     4770               ACCFINHT           =        BIT1                                  #  INHIBIT PIPA          ALLOW PIPA WARNING
002233:                                                                                                  #          WARNING
002234:
002235:    1334                        IMODES33           ERASE                                          #  B(1)PRM
002236:    1335     4753               PROCDBIT           =        BIT14                                 #  PROCEED OFF           PROCEED ON
002237:
002238:    1335     4754               PIP2FLBT           =        BIT13                                 #  PIPA OK               PIPA FAIL IS ON
002239:
002240:    1335     4755               DNLKFAIL           =        BIT12                                 #  DOWNLINK OK           DOWNLINK FAIL
002241:
002242:    1335     4756               UPLKFAIL           =        BIT11                                 #  UPLINK OK             UPLINK TOO FAST
002243:
002244:    1335     4763               NOIMUDAP           =        BIT6                                  #  DONT USE IMU FOR      OK TO USE IMU FOR
002245:                                                                                                  #   VEHICLE ATTITUDE        VEHICEL ATTITUDE
002246:
002247:    1335     4764               IMUZROBT           =        BIT5                                  #  IMU ZEROING           IMU NOT ZEROING
002248:
002249:    1335     4770               LMPTSTBT           =        BIT1                                  #  LAMP TEST REQUESTED   LAMP TEST NOT ON
002250:
002251:
002252:    1335                        MODECADR           ERASE    +1                                    #  B(2)TMP
002253:    1337     1335               IMUCADR            =        MODECADR
002254:    1337     1336               OPTCADR            =        MODECADR   +1
002255:
002256:    1337                        OPTMODES           ERASE                                          #  B(1)PRM *****MUST PRECEDE HOLDFLAG
002257:                                                                                                  #                FOR DOWNLINK
002258:    1340     4757               ZROPTFIN           =        BIT10                                 #  OPTICS ZERO FINISH    OPTICS BEING ZEROED
002259:
002260:    1340     4762               OCDUFBIT           =        BIT7                                  #  OPTICS CDU OK         OPTICS CDU FAIL
002261:
002262:    1340     4764               OPMD1BIT           =        BIT5                                  #  OPTICS MODE NOT SET   OPTICS MODE SET TO
002263:                                                                                                  #  TO COMPUTER CONTROL     COMPUTER CONTROL
002264:
002265:    1340     4765               OPMD2BIT           =        BIT4                                  #  OPTICS MODE NOT SET   OPTICS MODE SET TO
002266:                                                                                                  #    TO ZERO OPTICS        ZERO OPTICS
002267:
002268:    1340     4766               ZOPTCS             =        BIT3                                  #  OPTICS MODE           OPTICS MODE NOT


002270:                                                                                                  #  SWITCHED TO ZERO      SWITCHED TO ZERO
002271:                                                                                                  #  OPTICS                OPTICS
002272:
002273:    1340     4767               OCDUINHT           =        BIT2                                  #  INHIBIT TRACKER       ALLOW TRACKER ALARM
002274:                                                                                                  #   ALARM
002275:
002276:    1340                        HOLDFLAG           ERASE                                          #  B(1)PRM  **** MUST FOLLOW OPTMODES
002277:                                                                                                  #                FOR DOWNLINK
002278:
002279:
002280:
002281:                                                                                                  #        ERASABLE FOR SXTMARK CDU CHECK DELAY.  -PAD LOADED-             (1D)
002282:
002283:    1341                        CDUCHKWD           ERASE                                          #  B(1) PL
002284:
002285:                                                                                                  #        P37    **RETURN TO EARTH  (PAD LOAD) ****                       (2D)
002286:
002287:    1342                        RTED1              ERASE    +1                                    #  I(2)PL VGAMMA POLY COEF               B-3
002288:
002289:                                                                                                  #        P40    ***STEERING ROUTINE*** PAD LOAD                          (1D)
002290:
002291:    1344                        DVTHRESH           ERASE                                          #  I(1)PL  DELTA V THRESHOLD FOR LOW THRUST
002292:                                                                                                  #          ROUTINE                       B-2
002293:
002294:                                                                                                  #        P23    ***PAD LOAD****                                          (2D)
002295:
002296:    1345                        HORIZALT           ERASE    +1                                    #  I(2)PL  HORIZON ALTITUDE           M B-29
002297:
002298:                                                                                                  #        P20        ALTERNATE LOS VARIANCE     PAD LOAD****              (1D)
002299:                                                                                                  #                                                                          -16
002300:    1347                        ALTVAR             ERASE                                          #  I(2)PL MILLARD. SQUARED SCALED 2
002301:
002302:
002303:                                                                                                  #        PAD LOADED FOR DAP                                              (1D)
002304:
002305:    1350                        EMDOT              ERASE                                          #  I(1)PL  SPS FLOW RATE   KG/CS B+3
002306:
002307:
002308:                                                                                                  #        UNIVERSAL TRACKING STORAGE                                      (3D)
002309:
002310:    1351                        OPTNTYPE           ERASE                                          #  B(1)
002311:    1352                        AZIMANGL           ERASE    +1                                    #  B(2)
002312:


002314:                                                                                                  #        MODE SW. ERASABLE               (1D)
002315:
002316:    1354                        SWSAMPLE           ERASE                                          #  B(1)PRM
002317:
002318:
002319:                                                                                                  #        UT PERMANENT STORAGE                                            (2D)
002320:
002321:    1355                        R67TIME            ERASE    +1                                    #  B(2)
002322:    1357     1355               UTSTARNO           EQUALS   R67TIME                               #  B(1)
002323:
002324:
002325:                                                                                                  #        MINKEY CONTROLLER TEMP RESTART STORAGE                          (1D)
002326:
002327:    1357     1356               AUTTEMP            EQUALS   R67TIME    +1                         #  B(1)
002328:
002329:
002330:                                                                                                  #        SELF-CHECK ASSIGNMENTS.                                         (17D)
002331:
002332:                                                                                                  #                                (DO NOT MOVE, S-C IS ADDRESS SENSITIVE)
002333:
002334:    1357                        SELFERAS           ERASE    1357       -          1377            #  ***MUST NOT BE MOVED***
002335:    1357     1357               SFAIL              EQUALS   SELFERAS                              #  B(1)
002336:    1357     1360               ERESTORE           EQUALS   SFAIL      +1                         #  B(1)
002337:    1357     1361               SELFRET            EQUALS   ERESTORE   +1                         #  B(1)    RETURN
002338:    1357     1362               SMODE              EQUALS   SELFRET    +1                         #  B(1)
002339:    1357     1363               ALMCADR            EQUALS   SMODE      +1                         #  B(2)     ALARM-ABORT USER'S 2CADR
002340:    1357     1365               ERCOUNT            EQUALS   ALMCADR    +2                         #  B(1)
002341:    1357     1366               SCOUNT             EQUALS   ERCOUNT    +1                         #  B(3)
002342:    1357     1371               SKEEP1             EQUALS   SCOUNT     +3                         #  B(1)
002343:    1357     1372               SKEEP2             EQUALS   SKEEP1     +1                         #  B(1)
002344:    1357     1373               SKEEP3             EQUALS   SKEEP2     +1                         #  B(1)
002345:    1357     1374               SKEEP4             EQUALS   SKEEP3     +1                         #  B(1)
002346:    1357     1375               SKEEP5             EQUALS   SKEEP4     +1                         #  B(1)
002347:    1357     1376               SKEEP6             EQUALS   SKEEP5     +1                         #  B(1)
002348:    1357     1377               SKEEP7             EQUALS   SKEEP6     +1                         #  B(1)
002349:
002350:
002351:


002353:                                                                                                  #        EBANK-3 ASSIGNMENTS
002354:
002355: E3,1400                                           SETLOC   1400
002356:
002357:                                                                                                  #        WAITLIST TASK LISTS.                                            (26D)
002358:
002359: E3,1400                        LST1               ERASE    +7                                    #  B(8D)PRM  DELTA T S.
002360: E3,1410                        LST2               ERASE    +17D                                  #  B(18D)PRM TASK 2CADR ADDRESSES.
002361:
002362:
002363:                                                                                                  #        RESTART STORAGE.                                                (2D)
002364:
002365: E3,1432                        RSBBQ              ERASE    +1                                    #  B(2)PRM SAVE BB AND Q FOR RESTARTS.
002366:
002367:
002368:                                                                                                  #        MORE LONGCALL STORAGE. (MUST BE IN LST1'S BANK.                 (2D)
002369:
002370: E3,1434                        LONGEXIT           ERASE    +1                                    #  B(2)TMP MAY BE SELDOM OVERLAYED.
002371:
002372:
002373:                                                                                                  #        PHASE-CHANGE LISTS PART II.                                             (12D)
002374:
002375: E3,1436                        PHSNAME1           ERASE                                          #  B(1)PRM
002376: E3,1437                        PHSBB1             ERASE                                          #  B(1)PRM
002377: E3,1440                        PHSNAME2           ERASE                                          #  B(1)PRM
002378: E3,1441                        PHSBB2             ERASE                                          #  B(1)PRM
002379: E3,1442                        PHSNAME3           ERASE                                          #  B(1)PRM
002380: E3,1443                        PHSBB3             ERASE                                          #  B(1)PRM
002381: E3,1444                        PHSNAME4           ERASE                                          #  B(1)PRM
002382: E3,1445                        PHSBB4             ERASE                                          #  B(1)PRM
002383: E3,1446                        PHSNAME5           ERASE                                          #  B(1)PRM
002384: E3,1447                        PHSBB5             ERASE                                          #  B(1)PRM
002385: E3,1450                        PHSNAME6           ERASE                                          #  B(1)PRM
002386: E3,1451                        PHSBB6             ERASE                                          #  B(1)PRM
002387:
002388:
002389:                                                                                                  #        IMU COMPENSATION PARAMETERS.                                            (22D)
002390:
002391: E3,1452                        PBIASX             ERASE                                          #  B(1)   PIPA BIAS, PIPA SCALE FACTR TERMS
002392: E3,1453  E3,1452               PIPABIAS           =        PBIASX                                #      INTERMIXED.
002393: E3,1453                        PIPASCFX           ERASE
002394: E3,1454  E3,1453               PIPASCF            =        PIPASCFX
002395: E3,1454                        PBIASY             ERASE
002396: E3,1455                        PIPASCFY           ERASE
002397: E3,1456                        PBIASZ             ERASE
002398: E3,1457                        PIPASCFZ           ERASE
002399:
002400: E3,1460                        NBDX               ERASE                                          #  GYRO BIAS DRIFTS
002401: E3,1461                        NBDY               ERASE
002402: E3,1462                        NBDZ               ERASE
002403:


002405: E3,1463                        ADIAX              ERASE                                          #  ACCELERATION SENSITIVE DRIFT ALONG THE
002406: E3,1464                        ADIAY              ERASE                                          #      INPUT AXIS
002407: E3,1465                        ADIAZ              ERASE
002408:
002409: E3,1466                        ADSRAX             ERASE                                          #  ACCELERATION SENSITIVE DRIFT ALONG THE
002410: E3,1467                        ADSRAY             ERASE                                          #      SPIN REFERENCE AXIS
002411: E3,1470                        ADSRAZ             ERASE
002412:
002413: E3,1471                        GCOMP              ERASE    +5                                    #  CONTAINS COMPENSATING TORQUES
002414:
002415: E3,1477                        GCOMPSW            ERASE
002416: E3,1500  E3,1471               COMMAND            EQUALS   GCOMP
002417: E3,1500  E3,1474               CDUIND             EQUALS   GCOMP      +3
002418:
002419:                                                                                                  #        STATE VECTORS FOR ORBIT INTEGRATION.                            (44D)
002420:
002421:                                                                                                  #                                (DIFEQCNT THRU XKEP MUST BE IN SAME
002422:                                                                                                  #                                  EBANK AS RRECTCSM, RRECTLEM ETC
002423:                                                                                                  #                                  BECAUSE THE COPY-CYCLES (ATOPCSM,
002424:                                                                                                  #                                  PTOACSM ETC) ARE EXECUTED IN BASIC.
002425:                                                                                                  #                                    ALL OTHER REFERENCES TO THIS GROUP
002426:                                                                                                  #                                  ARE BY INTERPRETIVE INSTRUCTIONS.)
002427:
002428: E3,1500                        DIFEQCNT           ERASE    +43D                                  #  B(1)TMP
002429:                                                                                                  #                                (UPSVFLAG...XKEP MUST BE KEPT IN ORDER)
002430:
002431: E3,1554  E3,1501               UPSVFLAG           EQUALS   DIFEQCNT   +1                         #  B(1)PRM UPDATE FLAG
002432: E3,1554  E3,1502               RRECT              EQUALS   UPSVFLAG   +1                         #  B(6)TMP POS AT RECT            KM*2(-14)
002433: E3,1554  E3,1510               VRECT              EQUALS   RRECT      +6                         #  B(6)TMP VEL AT RECT        KM(-1/2)*2(6)
002434: E3,1554  E3,1516               TET                EQUALS   VRECT      +6                         #  B(2)TMP TIME OF STATE VECT  CSECS*2(-28)
002435: E3,1554  E3,1520               TDELTAV            EQUALS   TET        +2                         #  B(6)TMP POSITION DEVIATION      KM*2(14)
002436: E3,1554  E3,1526               TNUV               EQUALS   TDELTAV    +6                         #  B(6)TMP VEL DEVIATION     KM(-1/2)*2(14)
002437: E3,1554  E3,1534               RCV                EQUALS   TNUV       +6                         #  B(6)TMP CONIC POSITION         KM*2(-14)
002438: E3,1554  E3,1542               VCV                EQUALS   RCV        +6                         #  B(6)TMP CONIC VELOCITY     KM(-1/2)*2(6)
002439: E3,1554  E3,1550               TC                 EQUALS   VCV        +6                         #  B(2)TMP TIME SINCE RECITIFICATION
002440: E3,1554  E3,1552               XKEP               EQUALS   TC         +2                         #  B(2)TMP ROOT OF KEPLER EQ KM(1/2)*2(-10)
002441:
002442: E3,1554  E3,1552               XPREV              =        XKEP                                  #  I(2)TMP
002443:                                                                                                  #      **** TEMP - IN VAC AREA ****
002444: E3,1554                        RRECT1             EQUALS   18D
002445: E3,1554                        VRECT1             EQUALS   24D
002446: E3,1554                        TET1               EQUALS   30D
002447:
002448:
002449:
002450:                                                                                                  #        PERMANENT STATE VECTORS AND TIMES.                              (99D)
002451:
002452:                                                                                                  #        (DO NOT OVERLAY WITH ANYTHING AFTER BOOST)
002453:


002455:                                                                                                  #        (RRECTCSM ...XKEPCSM MUST BE KEPT IN THIS ORDER)
002456:
002457: E3,1554                        RRECTCSM           ERASE    +5                                    #  B(6)PRM CSM VARIABLES.
002458: E3,1562  E3,1554               RRECTHIS           =        RRECTCSM
002459: E3,1562                        VRECTCSM           ERASE    +5                                    #  B(6)PRM
002460: E3,1570                        TETCSM             ERASE    +1                                    #  B(2)PRM
002461: E3,1572  E3,1570               TETTHIS            =        TETCSM
002462: E3,1572                        DELTACSM           ERASE    +5                                    #  B(6)PRM
002463: E3,1600                        NUVCSM             ERASE    +5                                    #  B(6)PRM
002464: E3,1606                        RCVCSM             ERASE    +5                                    #  B(6)PRM
002465: E3,1614                        VCVCSM             ERASE    +5                                    #  B(6)PRM
002466: E3,1622                        TCCSM              ERASE    +1                                    #  B(2)PRM
002467: E3,1624                        XKEPCSM            ERASE    +1                                    #  B(2)PRM
002468:
002469:                                                                                                  #        (RRECTLEM ...XKEPLEM MUST BE KEPT IN THIS ORDER)
002470:
002471: E3,1626                        RRECTLEM           ERASE    +5                                    #  B(6)PRM LEM VARIABLES
002472: E3,1634  E3,1626               RRECTOTH           =        RRECTLEM
002473: E3,1634                        VRECTLEM           ERASE    +5                                    #  B(6)PRM
002474: E3,1642                        TETLEM             ERASE    +1                                    #  B(2)PRM
002475: E3,1644  E3,1642               TETOTHER           =        TETLEM
002476: E3,1644                        DELTALEM           ERASE    +5                                    #  B(6)PRM
002477: E3,1652                        NUVLEM             ERASE    +5                                    #  B(6)PRM
002478: E3,1660                        RCVLEM             ERASE    +5                                    #  B(6)PRM
002479: E3,1666                        VCVLEM             ERASE    +5                                    #  B(6)PRM
002480: E3,1674                        TCLEM              ERASE    +1                                    #  B(2)PRM
002481: E3,1676                        XKEPLEM            ERASE    +1                                    #  B(2)PRM
002482:
002483: E3,1700                        X789               ERASE    +5
002484: E3,1706                        TEPHEM             ERASE    +2
002485: E3,1711                        UNITW              ERASE    +5
002486: E3,1717  E3,1711               -AYO               EQUALS   UNITW                                 #   (2)
002487: E3,1717  E3,1713               AXO                EQUALS   UNITW      +2                         #   (2)
002488:
002489:
002490:
002491:                                                                                                  #        STATE VECTORS FOR DOWNLINK.                                     (12D)
002492:
002493: E3,1717                        R-OTHER            ERASE    +5                                    #  B(6)PRM POS VECT (OTHER VECH) FOR DNLINK
002494: E3,1725                        V-OTHER            ERASE    +5                                    #  B(6)PRM VEL VECT (OTHER VECH) FOR DNLINK
002495:
002496: E3,1733  E3,1642               T-OTHER            =        TETLEM                                #              TIME (OTHER VECH) FOR DNLINK
002497:
002498:
002499:                                                                                                  #        REFSMMAT.                                                       (18D)
002500:
002501: E3,1733                        REFSMMAT           ERASE    +17D                                  #  I(18D)PRM
002502:
002503:                                                                                                  #        AVERAGEG INTEGRATOR STORAGE.                                    (6D)
002504:


002506: E3,1755                        UNITR              ERASE    +5
002507:
002508:
002509:
002510:                                                                                                  #        TEMP STORAGE FOR N90 DISPLAY IN RENDEZVOUS TARGETING PROGRAMS   (6D)
002511: E3,1763  E3,1755               YCSM               EQUALS   UNITR
002512: E3,1763  E3,1757               YDOTC              EQUALS   YCSM       +2
002513: E3,1763  E3,1761               YDOTL              EQUALS   YDOTC      +2
002514:
002515:
002516:                                                                                                  #        P40 PAD LOADS                                                   (3D)
002517:
002518: E3,1763                        EIMP1SEC           ERASE                                          #  I(1)PL E-2 B-14 NEWT-SEC BR-PT AT 1 SEC
002519: E3,1764                        EFIMP01            ERASE                                          #  I(1)PL E-2 B-14 NEWT SLOPE 0-1 SEC SEG
002520: E3,1765                        EFIMP16            ERASE                                          #  I(1)PL E-2 B-14 NEWT SLOPE 1-6 SEC SEG
002521:
002522:
002523:
002524:                                                                                                  #  **********LUNAR MODULE CHANGE  ***********                            (2D)
002525:
002526: E3,1766  E3,1766               E3J22R2M           EQUALS   EFIMP16    +1
002527: E3,1766  E3,1767               E32C31RM           EQUALS   E3J22R2M   +1
002528:
002529:
002530:                                                                                                  #      **** CONICSEX (PLANETARY INERT. ORIEN.) ****
002531:
002532: E3,1766  E3,1706               TIMSUBO            EQUALS   TEPHEM                                #  CSEC B-42 (TRIPLE PREC)
002533:
002534:
002535:                                                                                                  #        P23 PAD LOAD (2D)
002536:
002537:                                                                                                  #  ** P24  PAD LOADS **    (2D)
002538:
002539: E3,1766  E3,1770               TRUNSF             EQUALS   E32C31RM   +1                         #  I(1)PL
002540: E3,1766  E3,1771               SHAFTSF            EQUALS   TRUNSF     +1                         #  I(1)PL
002541:


002543:
002544:                                                                                                  #                EBANK-4 ASSIGNMENTS
002545:
002546: E4,1400                                           SETLOC   2000
002547:
002548:
002549: E4,1400                        ERASPIP            EQUALS                                         #  ENTRANCE TO ERASABLE PIPA TEST PROGRAM
002550:                                                                                                  #        P20 STORAGE.            -PAD LOADED-                            (4D)
002551:
002552: E4,1400                        WRENDPOS           ERASE                                          #  B(1)PL                            M B-14
002553: E4,1401                        WRENDVEL           ERASE                                          #  B(1)PL                          M/CSECB0
002554: E4,1402                        RMAX               ERASE                                          #  B(1)PL                     METERS*2(-19)
002555: E4,1403                        VMAX               ERASE                                          #  B(1)PL                      M/CSEC*2(-7)
002556:
002557:
002558:                                                                                                  #        P22 STORAGE.            -PAD LOADED-                            (5D)
002559:
002560: E4,1404                        WORBPOS            ERASE                                          #  B(1)PL                            M B-14
002561: E4,1405                        WORBVEL            ERASE                                          #  B(1)PL                          M/CSECB0
002562: E4,1406                        S22WSUBL           ERASE                                          #  B(1)PL                            M B-14
002563: E4,1407                        RPVAR              ERASE    +1                                    #  B(2)PL
002564:
002565:
002566:                                                                                                  #        CONISEX STORAGE.        -PAD LOADED-                            (6D)
002567:
002568: E4,1411                        504LM              ERASE    +5                                    #  I(6)MOON LIBRATION VECTOR
002569:
002570:
002571:
002572:                                                                                                  #        ENTRY STORAGE           -PAD LOADED-                            (2D)
002573:
002574: E4,1417                        EMSALT             ERASE    +1                                    #  I(2)PL
002575:
002576:
002577:                                                                                                  #        P35 CONSTANTS.          -PAD LOADED-                            (4D)
002578:
002579: E4,1421                        ATIGINC            ERASE    +1                                    #  B(2)PL
002580: E4,1423                        PTIGINC            ERASE    +1                                    #  B(2)PL
002581:
002582:
002583:                                                                                                  #        LUNAR LANDING SIGHT DATA. -PAD LOADED-                          (6D)
002584:                                                                                                  #        (USED BY INTEGRATION INITIALIZATION,LAT-LONG SUBROUTINES, P30'S)
002585:
002586: E4,1425                        RLS                ERASE    +5                                    #  I(6) PL  LUNAR LANDING SIGHT VECTOR
002587:
002588:
002589:
002590:                                                                                                  #  CONISEX (LUNAR AND SOLAR EPHEM)STORAGE. -PAD LOADED-                  (77D)
002591:
002592: E4,1433                        TIMEMO             ERASE    +76D
002593: E4,1550  E4,1436               VECOEM             EQUALS   TIMEMO     +3


002595: E4,1550  E4,1532               RESO               EQUALS   VECOEM     +60D
002596: E4,1550  E4,1540               VESO               EQUALS   RESO       +6
002597: E4,1550  E4,1546               OMEGAES            EQUALS   VESO       +6
002598:
002599:
002600:                                                                                                  #        FULL INTEGRATION STORAGE.                                       (88D)
002601:
002602: E4,1550                        PBODY              ERASE                                          #  I(1)
002603: E4,1551  E4,1551               ALPHAV             EQUALS   PBODY      +1                         #  I(6)TMP
002604: E4,1551  E4,1557               BETAV              EQUALS   ALPHAV     +6                         #  I(6)TMP
002605: E4,1551  E4,1565               PHIV               EQUALS   BETAV      +6                         #  I(6)TMP
002606: E4,1551  E4,1573               PSIV               EQUALS   PHIV       +6                         #  I(6)TMP
002607: E4,1551  E4,1601               FV                 EQUALS   PSIV       +6                         #  I(6)TMP
002608: E4,1551  E4,1607               BETAM              EQUALS   FV         +6                         #  I(6)TMP
002609: E4,1551  E4,1611               H                  EQUALS   BETAM      +2                         #  I(2)TMP
002610: E4,1551  E4,1613               IRETURN            EQUALS   H          +2                         #  I(1) TMP
002611: E4,1551  E4,1614               NORMGAM            EQUALS   IRETURN    +1                         #  I(1)TMP
002612: E4,1551  E4,1615               VECTAB             EQUALS   NORMGAM    +1                         #  I(36)TMP
002613: E4,1551  E4,1661               RPQV               EQUALS   VECTAB     +36D                       #   (6)TMP VECTOR PRIMARY TO SECONDARY BODY
002614: E4,1551  E4,1667               ORIGEX             EQUALS   RPQV       +6                         #  B(1)TMP QSAVE FOR COORD. SWITCH ROUTINE
002615: E4,1551  E4,1667               KEPRTN             EQUALS   ORIGEX                                #          QSAVE FOR KEPLER
002616: E4,1551  E4,1670               RPSV               EQUALS   ORIGEX     +1                         #  I(6) TMP SUN TO PRIMARY BODY VECTOR
002617: E4,1551  E4,1676               XKEPNEW            EQUALS   RPSV       +6                         #   (2)TMP ROOT OF KEPLERS EQU FOR TIME TAU
002618:
002619:
002620:                                                                                                  #        THESE PROBABLY CAN SHARE INTEGRATION VARIABLES.                 (3D)
002621:
002622:                                                                                                  #        LAT-LONG STORAGE
002623:
002624: E4,1551  E4,1637               ERADM              EQUALS   VECTAB     +18D                       #  I(2)TMP
002625: E4,1551  E4,1641               INCORPEX           EQUALS   ERADM      +2                         #  I(1)TMP
002626:
002627:
002628:                                                                                                  #        R31(V83) STORAGE. -SHARES WITH INTEGRATION STORAGE-             (24D)
002629:
002630:
002631: E4,1551  E4,1623               BASEOTP            EQUALS   VECTAB     +6                         #  I(6) BASE POS VECTOR OTHER VEH
002632: E4,1551  E4,1637               BASEOTV            EQUALS   VECTAB     +18D                       #  I(6) BASE VEL VECTOR OTHER VEH
002633: E4,1551  E4,1653               BASETHP            EQUALS   VECTAB     +30D                       #  I(6) BASE POS VECTOR THIS VEH
002634: E4,1551  E4,1661               BASETHV            EQUALS   RPQV                                  #  I(6) BASE VEL VECTOR THIS VEH
002635:
002636:
002637:                                                                                                  #        CONIC INTEGRATION STORAGE.      -MAY NOT SHARE WITH SERVICER-   (6D)
002638:
002639: E4,1551  E4,1700               ALPHAM             EQUALS   XKEPNEW    +2                         #  I(2)TMP
002640: E4,1551  E4,1702               TAU.               EQUALS   ALPHAM     +2                         #  I(2)TMP
002641: E4,1551  E4,1704               DT/2               EQUALS   TAU.       +2                         #  I(2)TMP
002642:
002643:
002644:                                                                                                  #        R61 STORAGE.                                                    (2D)
002645:


002647: E4,1551  E4,1706               R63TIME            EQUALS   DT/2       +2                         #  I(2)TMP
002648:
002649:
002650:
002651:                                                                                                  #        INTEGRATION STORAGE                                             (1D)
002652: E4,1551  E4,1710               EGRESS             EQUALS   R63TIME    +2
002653:
002654:
002655:                                                                                                  #        VERB 83(N54)AND VERB 90 (N96) DISPLAYS                          (6D)
002656: E4,1551  E4,1711               RANGE              EQUALS   EGRESS     +1                         #  I(2)DSP NOUN 54 DISTANCE TO OPTICAL SUBJ
002657: E4,1551  E4,1713               RRATE              EQUALS   RANGE      +2                         #  I(2)DSP NOUN 54 RATE OF APPROACH
002658: E4,1551  E4,1715               RTHETA             EQUALS   RRATE      +2                         #  I(2)DSP NOUN 54
002659: E4,1551  E4,1715               RRATE2             EQUALS   RTHETA                                #  I(2) N96 LM OUT-OF-PLANE RATE
002660:
002661:
002662:                                                                                                  #  VERB 83  STORAGE                                                      (14D)
002663:
002664: E4,1551  E4,1717               RONE               EQUALS   RTHETA     +2                         #  I(6)TMP VECTOR STORAGE. (SCRATCH)
002665: E4,1551  E4,1725               VONE               EQUALS   RONE       +6                         #  I(6)TMP VECTOR STORAGE (SCRATCH)
002666: E4,1551  E4,1733               BASETIME           EQUALS   VONE       +6                         #  I(2)    BASE TIME  ASSOC WITH BASE VECS
002667:
002668:
002669:
002670:                                                                                                  #        V 67 STORAGE                                                    (6D)
002671:
002672: E4,1551  E4,1711               WWPOS              EQUALS   RANGE                                 #  I(2)TMP
002673: E4,1551  E4,1713               WWVEL              EQUALS   RRATE                                 #  I(2)TMP
002674: E4,1551  E4,1715               WWOPT              EQUALS   RTHETA                                #  I(2)TMP
002675:
002676:
002677:                                                                                                  #        S-BAND ANTENNA GIMBAL ANGLES.  DISPLAYED BY R05 (EXT.VB.64)     (4D)
002678:                                                                                                  #               OPERATION DURING P00 ONLY.
002679:
002680: E4,1551  E4,1711               RHOSB              EQUALS   RANGE                                 #  B(2)DSP NOUN 51.  PITCH ANGLE
002681: E4,1551  E4,1713               GAMMASB            EQUALS   RHOSB      +2                         #  B(2)DSP NOUN 51.  YAW ANGLE
002682:
002683:
002684:                                                                                                  #        R 36 SCRATCHPAD STORAGE                                         (18D)
002685:
002686: E4,1551  E4,1717               VPASS36            EQUALS   RONE                                  #  I (6)S-S
002687: E4,1551  E4,1725               UNP36              EQUALS   VPASS36    +6                         #  I (6)S-S
002688: E4,1551  E4,1733               UNA36              EQUALS   UNP36      +6                         #  I (6)S-S
002689:
002690:
002691:
002692:                                                                                                  #        EXTENDED VERB 82 STORAGE.                                       (6D)
002693:
002694: E4,1551  E4,1711               HPERMIN            EQUALS   RANGE                                 #  I(2) SET TO 300KFT OR 35KFT FOR SR30.1
002695: E4,1551  E4,1713               RPADTEM            EQUALS   HPERMIN    +2                         #  I(2) PAD OR LANDING RADIUS FOR SR30.1
002696: E4,1551  E4,1715               TSTART82           EQUALS   RPADTEM    +2                         #  I(2) TEMP TIME STORAGE FOR V82.


002698:
002699:
002700:
002701:                                                                                                  #        MORE VERB 82 NOT SHARING WITH VERB 83                           (7D)
002702:
002703:
002704: E4,1551  E4,1733               V82FLAGS           EQUALS   VONE       +6                         #   (1) FOR V 82 BITS
002705: E4,1551  E4,1734               TFF                EQUALS   V82FLAGS   +1                         #  I(2)  DSP NOUN 50,44
002706: E4,1551  E4,1736               -TPER              EQUALS   TFF        +2                         #  I(2)DSP NOUN 32
002707: E4,1551  E4,1740               THETA(1)           EQUALS   -TPER      +2                         #  I(2) TMP SET AT END OF V82
002708: E4,1551  E4,1746               RSP-RREC           EQUALS   AOPTIME                               #  DSP NOUN 50 FOR V82 DURING P00 AND P11
002709:
002710:
002711:
002712:                                                                                                  #        REENTRY CONICS                                                  (6D)
002713:
002714: E4,1551  E4,1733               URONE              EQUALS   V82FLAGS                              #  I(6) SAVE ACTUAL FOR CALCULATIONS
002715:
002716:
002717:                                                                                                  #        V 82 DISPLAY                                                    (4D)
002718:
002719: E4,1551  E4,1742               HAPOX              EQUALS   THETA(1)   +2                         #  I(2) DSP NOUN 44
002720: E4,1551  E4,1744               HPERX              EQUALS   HAPOX      +2                         #  I(2) DSP NOUN 44
002721:
002722:
002723:
002724:                                                                                                  #        MINKEY RENDEZVOUS STORAGE                                       (2D)
002725:
002726: E4,1551  E4,1750               TCSI2              EQUALS   RSP-RREC   +2                         #  I(2) TIME OF NEXT CSI
002727:
002728:
002729:                                                                                                  #        P22 DISPLAY REGISTERS                                           (06D)
002730:
002731: E4,1551  E4,1746               AOPTIME            EQUALS   HPERX      +2                         #  I(2)TMP FOR SR52.1,ADVTRACK
002732: E4,1551  E4,1750               LANDLONG           EQUALS   AOPTIME    +2                         #  I(2) DSP NOUN 89 FOR P22
002733: E4,1551  E4,1752               LANDALT            EQUALS   LANDLONG   +2                         #  I(2)DSP NOUN 89 FOR P22.
002734:
002735:
002736:
002737:                                                                                                  #        S34/35.5,P34-P35 STORAGE.                                       (5D)
002738:
002739: E4,1551  E4,1754               KT                 EQUALS   LANDALT    +2                         #  B(2)
002740: E4,1551  E4,1756               QSAVED             EQUALS   KT         +2                         #  B(1)TMP HOLDS RETURN
002741: E4,1551  E4,1757               RTRN               EQUALS   QSAVED     +1                         #  B(1) RETURN
002742: E4,1551  E4,1760               SUBEXIT            EQUALS   RTRN       +1                         #  B(1) TMP
002743: E4,1551  E4,1756               ANEXIT             EQUALS   QSAVED                                #  I(1)
002744:
002745:
002746:                                                                                                  #        P 30 DISPLAY                                                    (4D)
002747:


002749: E4,1551  E4,1754               HAPO               EQUALS   KT                                    #  I(2) DSP NOUN 42, FOR P30.
002750: E4,1551  E4,1756               HPER               EQUALS   HAPO       +2                         #  I(2) DSP NOUN 42, FOR P30.
002751:
002752:
002753:
002754:                                                                                                  #        SOME P34 STORAGE.       (OVERLAYS P35.1 STORAGE)                (2D)
002755:
002756: E4,1551  E4,1754               NOMTPI             EQUALS   KT                                    #  I(2)TMP NOMINAL TPI TIME FOR RECYCLE
002757:
002758:
002759:                                                                                                  #        P15 PAD LOADS
002760:
002761: E4,1551  E4,1754               DTF                EQUALS   KT                                    #  I(1)
002762: E4,1551  E4,1755               VC/O               EQUALS   DTF        +1                         #  I(2)
002763:
002764:
002765:                                                                                                  #  THE FOLLOWING ARE ERASABLES USED BY THE SYSTEM TESTS. 205 USES TRANSM1  GS ARE NOT USED IN 205 NOR ARE THEY
002766:                                                                                                  #  WHILE 504 USES TRANSM1 AND ALFDK .
002767:
002768: E4,1551                        TRANSM1            EQUALS   2000                                  #   (18) INITIALIZATION FOR IMU TESTS
002769: E4,1551  0002022               ALFDK              =        TRANSM1    +18D                       #   (144) ERASABLE LOAD IN 504
002770: E4,1551  0002241               ENDSYS-4           EQUALS   ALFDK      +143D                      #  LAST SYS.TEST STORAGE IN E-4
002771:
002772:                                                                                                  #  END OF PERF. TEST ERASABLE IN BANK 4
002773:
002774:                                                                                                  #      *-*-* V82 *-*-*                                                   (6D)
002775:
002776: E4,1551  E4,1761               VONE'              EQUALS   SUBEXIT    +1                         #  I(6)TMP NORMAL VELOCITY VONE/ SQRT MU
002777:
002778:
002779:                                                                                                  #      MINKEY PAD LOADS                                                  (8D)
002780:
002781: E4,1551  E4,1767               HAMDELH            EQUALS   VONE'      +6                         #  I(2)PL
002782: E4,1551  E4,1771               WRDTIME            EQUALS   HAMDELH    +2                         #  I(1)PL
002783: E4,1551  E4,1772               MINBLKTM           EQUALS   WRDTIME    +1                         #  I(1)PL
002784: E4,1551  E4,1773               TBEFCOMP           EQUALS   MINBLKTM   +1                         #  I(1)PL
002785: E4,1551  E4,1774               BRNBLKTM           EQUALS   TBEFCOMP   +1                         #  I(1)PL
002786: E4,1551  E4,1775               MAXWTIME           EQUALS   BRNBLKTM   +1                         #  I(1)PL
002787: E4,1551  E4,1776               FINCMPTM           EQUALS   MAXWTIME   +1                         #  I(1)PL
002788:
002789:
002790:                                                                                                  #        PAD LOAD INTEGRATION ERROR INCLUDED IN VARIANCE BY P20          (1D)
002791:
002792: E4,1551  E4,1777               INTVAR             EQUALS   FINCMPTM   +1                         #  I(1)PL  SQUARE OF EXPECTED INTEGRATION
002793:                                                                                                  #          POSITION EXTRAPOLATION ERROR.
002794:                                                                                                  #          SCALED  METERS(2) 2(15)


002796:                                                                                                  #  EBANK-5 ASSIGNMENTS
002797:
002798: E5,1400                                           SETLOC   2400
002799:
002800:
002801:                                                                                                  #        *-*-*-*-  OVERLAY 1 IN EBANK 5 -*-*-*-*
002802:
002803:                                                                                                  #        W-MATRIX STORAGE.                                               (162D)
002804:
002805: E5,1400                        W                  EQUALS   2400                                  #  B(162)
002806:
002807: E5,1400                        9X9LOC1            EQUALS   2444
002808: E5,1400                        9X9LOC2            EQUALS   2532
002809:
002810:                                                                                                  #        P22 TEMP STORAGE                                                (6D)
002811:
002812: E5,1400  0002554               S22RL              EQUALS   W          +108D                      #  TMP RL IN UNKNOWN LMK W INIT
002813:
002814:
002815: E5,1400  0002570               EMATRIX            =        W          +120D                      #  B(42)    USED TO CONVERT W TO  6X6
002816: E5,1400  0002642               END-W              EQUALS   W          +162D                      #  **NEXT AVAILABLE LOC AFTER W MATRIX**
002817:
002818:
002819:                                                                                                  #        AUTO-OPTICS STORAGE -R52-
002820:
002821:                                                                                                  #  DO NOT MOVE FROM E5,1554. A DELICATE BALANCE EXISTS BETWEEN THIS AND P03
002822: E5,1400  0002554               XNB1               EQUALS   W          +108D                      #  B(6D) TMP
002823: E5,1400  0002562               YNB1               EQUALS   XNB1       +6                         #  B(6)TMP
002824: E5,1400  0002570               ZNB1               EQUALS   YNB1       +6                         #  B(6)TMP
002825: E5,1400  0002576               SAVQR52            EQUALS   ZNB1       +6                         #  I(2)TMP
002826:
002827:
002828: E5,1400  0002577               R52BNKSV           EQUALS   SAVQR52    +1                         #  USED TO SAVE EBANK IN R52
002829: E5,1400  0002600               PLANVEC            EQUALS   SAVQR52    +2                         #  B(6) S-S SIGHTING VECTOR IN REF. COOR.
002830: E5,1400  0002606               TSIGHT             EQUALS   PLANVEC    +6                         #  B(2) S-S TIME OF SIGHTING
002831:
002832:
002833:
002834:                                                                                                  #        RENDEZVOUS TARGETTING STORAGE                                   (6D)
002835:
002836: E5,1400  0002600               AUTOY              EQUALS   PLANVEC                               #  I(2)
002837: E5,1400  0002602               CMYDOT             EQUALS   AUTOY      +2                         #  I(2)
002838: E5,1400  0002604               LMYDOT             EQUALS   CMYDOT     +2                         #  I(2)
002839:
002840:
002841:                                                                                                  #        RENDEZVOUS -P34-35                                              (26D)
002842:
002843: E5,1400  0002610               DVLOS              EQUALS   TSIGHT     +2                         #  I(6) S-S DELTA VELOCITY,LOS COORD-DISPL1
002844: E5,1400  0002616               UNRM               EQUALS   DVLOS      +6                         #  I(6) S-S
002845: E5,1400  0002624               ULOS               EQUALS   UNRM       +6                         #  I(6) S-S UNIT LINE OF SIGHT VECTOR
002846: E5,1400  0002632               ACTCENT            EQUALS   ULOS       +6                         #  I(2) S-S CENTRAL ANGLE BETWEEN ACTIVE


002848:                                                                                                  #           VEH AT TPI IGNITION TIME AND
002849:                                                                                                  #           TARGET VECTOR.
002850: E5,1400  0002634               DELVTPI            EQUALS   ACTCENT    +2                         #  I(2)    NOUN 58 FOR P34.
002851: E5,1400  0002636               DELVTPF            EQUALS   DELVTPI    +2                         #  I(2)    NOUN 58,59 FOR P34,35.
002852: E5,1400  0002640               POSTTPI            EQUALS   DELVTPF    +2                         #  I(2)    NOUN 58 FOR P34.
002853: E5,1400  0002634               TDEC2              EQUALS   DELVTPI                               #   (2)
002854:
002855:
002856: E5,1400  0002640               T3TOT4             EQUALS   POSTTPI                               #  I(2) DSP NOUN 39 FOR P34,P35. TPI TO TIN
002857:                                                                                                  #  T (CAN NOT SHARE WITH RETURN TO EARTH)
002858:                                                                                                  #        ALIGNMENT                                                       (12D)
002859:
002860: E5,1400  0002610               STARSAV1           EQUALS   DVLOS                                 #  I(6)TMP RESTART STAR SAVE.
002861: E5,1400  0002616               STARSAV2           EQUALS   STARSAV1   +6                         #  I(6)TMP RESTART STAR SAVE.
002862: E5,1400  0002616               US                 =        STARSAV2                              #           (CISLUNAR TAG FOR STARSAV2).
002863:
002864:
002865:
002866:                                                                                                  #        P24-RATE AIDED OPTICS                                           (2)
002867:
002868: E5,1400  0002656               TRTEMP             EQUALS   R1VEC                                 #  B(1)TMP
002869: E5,1400  0002657               SRTEMP             EQUALS   TRTEMP     +1                         #  B(1)TMP  ALSO USED AS RETURN SAVE BY R51
002870:                                                                                                  #           AND P23.
002871:


002873:                                                                                                  #        ALIGNMENT/SYSTEST/CALCSMSC/CRS61.1 COMMON STORAGE.              (36D)
002874:                                                                                                  #        (CALCSMSC IS A SUBSET OF S41.1 AT LEAST)
002875:                                                                                                  #        (CRS61.1  IS A SUBSET OF P20)
002876:
002877: E5,1400  0002671               XSM                EQUALS   END-W      +23D                       #  B(6)
002878: E5,1400  0002677               YSM                EQUALS   XSM        +6                         #  B(6)TMP
002879: E5,1400  0002705               ZSM                EQUALS   YSM        +6                         #  B(6)TMP
002880:
002881: E5,1400  0002713               XDC                EQUALS   ZSM        +6                         #  B(6)TMP
002882: E5,1400  0002721               YDC                EQUALS   XDC        +6                         #  B(6)TMP
002883: E5,1400  0002727               ZDC                EQUALS   YDC        +6                         #  B(6)TMP
002884:
002885: E5,1400  0002713               XNB                =        XDC
002886: E5,1400  0002721               YNB                =        YDC
002887: E5,1400  0002727               ZNB                =        ZDC
002888:
002889:
002890:                                                                                                  #        ALIGNMENT/SYSTEST COMMON STORAGE.                               (18D)
002891:
002892: E5,1400  0002735               STARAD             EQUALS   ZDC        +6                         #  I(18D)TMP
002893:
002894:
002895:                                                                                                  #        ALIGNMENT/SYSTEST/AUTO OPTICS COMMON STORAGE.                   (17D)
002896:
002897: E5,1400  0002757               OGC                EQUALS   STARAD     +18D                       #  I(2)TMP
002898: E5,1400  0002761               IGC                EQUALS   OGC        +2                         #  I(2)TMP
002899: E5,1400  0002763               MGC                EQUALS   IGC        +2                         #  I(2)TMP
002900: E5,1400  0002765               STAR               EQUALS   MGC        +2                         #  I(6)TMP
002901: E5,1400  0002773               SAC                EQUALS   STAR       +6                         #  I(2)TMP
002902: E5,1400  0002775               PAC                EQUALS   SAC        +2                         #  I(2)TMP
002903: E5,1400  0002777               QMIN               EQUALS   PAC        +2                         #  B(1)TMP
002904:
002905:
002906:                                                                                                  #      **** COLP50S ****                                                 (1D)
002907:
002908: E5,1400  0002735               CULTRIX            EQUALS   VEARTH                                #  VEARTH, VSUN, VMOON
002909:
002910:                                                                                                  #        OVERLAYS WITHIN ALIGNMENT/SYSTEST COMMON STORAGE.               (24D)
002911:
002912: E5,1400  0002735               VEARTH             EQUALS   STARAD                                #   (6)TMP
002913: E5,1400  0002743               VSUN               EQUALS   VEARTH     +6                         #   (6)TMP
002914: E5,1400  0002751               VMOON              EQUALS   VSUN       +6                         #   (6)TMP
002915: E5,1400  0002757               SAX                EQUALS   VMOON      +6                         #   (6)TMP
002916:


002918:                                                                                                  #        *-*-*-*-  OVERLAY 2 IN EBANK 5 -*-*-*-*
002919:
002920:                                                                                                  #        CONIC ROUTINES STORAGE.                                         (87D)
002921:
002922: E5,1400  0002642               DELX               EQUALS   END-W                                 #  I(2)TMP
002923: E5,1400  0002644               DELT               EQUALS   DELX       +2                         #  I(2)TMP
002924: E5,1400  0002646               URRECT             EQUALS   DELT       +2                         #  I(6)TMP
002925: E5,1400  0002654               RCNORM             EQUALS   URRECT     +6                         #  I(2)TMP
002926: E5,1400  0002656               R1VEC              EQUALS   RCNORM     +2                         #  I(6)TMP
002927: E5,1400  0002664               R2VEC              EQUALS   R1VEC      +6                         #  I(6)TMP
002928: E5,1400  0002672               TDESIRED           EQUALS   R2VEC      +6                         #  I(2)TMP
002929: E5,1400  0002674               GEOMSGN            EQUALS   TDESIRED   +2                         #  I(1)TMP
002930: E5,1400  0002675               UN                 EQUALS   GEOMSGN    +1                         #  I(6)TMP
002931: E5,1400  0002703               VTARGTAG           EQUALS   UN         +6                         #  I(1)TMP
002932: E5,1400  0002704               VTARGET            EQUALS   VTARGTAG   +1                         #  I(6)TMP
002933: E5,1400  0002712               RTNLAMB            EQUALS   VTARGET    +6                         #  I(1)TMP
002934: E5,1400  0002713               U2                 EQUALS   RTNLAMB    +1                         #  I(6)TMP
002935: E5,1400  0002721               MAGVEC2            EQUALS   U2         +6                         #  I(2)TMP
002936: E5,1400  0002723               UR1                EQUALS   MAGVEC2    +2                         #  I(6)TMP
002937: E5,1400  0002731               SNTH               EQUALS   UR1        +6                         #  I(2)TMP
002938: E5,1400  0002733               CSTH               EQUALS   SNTH       +2                         #  I(2)TMP
002939: E5,1400  0002735               1-CSTH             EQUALS   CSTH       +2                         #  I(2)TMP
002940: E5,1400  0002737               CSTH-RHO           EQUALS   1-CSTH     +2                         #  I(2)TMP
002941: E5,1400  0002741               P                  EQUALS   CSTH-RHO   +2                         #  I(2)TMP
002942: E5,1400  0002743               R1A                EQUALS   P          +2                         #  I(2)TMP
002943: E5,1400  0002656               RVEC               EQUALS   R1VEC                                 #  I(6)TMP
002944: E5,1400  0002745               VVEC               EQUALS   R1A        +2                         #  I(6)TMP
002945: E5,1400  0002712               RTNTT              EQUALS   RTNLAMB                               #  I(1)TMP
002946: E5,1400  0002753               ECC                EQUALS   VVEC       +6                         #  I(2)TMP
002947: E5,1400  0002712               RTNTR              EQUALS   RTNLAMB                               #  I(1)TMP
002948: E5,1400  0002712               RTNAPSE            EQUALS   RTNLAMB                               #  I(1)TMP
002949: E5,1400  0002721               R2                 EQUALS   MAGVEC2                               #  I(2)TMP
002950: E5,1400  0002755               RTNPRM             EQUALS   ECC        +2                         #  I(1)TMP
002951: E5,1400  0002756               SGNRDOT            EQUALS   RTNPRM     +1                         #  I(1)TMP
002952: E5,1400  0002757               RDESIRED           EQUALS   SGNRDOT    +1                         #  I(2)TMP
002953: E5,1400  0002761               DELDEP             EQUALS   RDESIRED   +2                         #  I(2)TMP
002954: E5,1400  0002763               DEPREV             EQUALS   DELDEP     +2                         #  I(2)TMP
002955: E5,1400  0002761               TERRLAMB           EQUALS   DELDEP                                #  I(2)TMP
002956: E5,1400  0002763               TPREV              EQUALS   DEPREV                                #  I(2)TMP
002957:


002959:
002960:                                                                                                  #        *-*-*-*-  OVERLAY 3 IN EBANK 5 -*-*-*-*
002961:
002962:                                                                                                  #        MEASUREMENT INCORPORATION STORAGE.                              (54D)
002963:                                                                                                  #        (CALLED BY P20, P22, P23)
002964:
002965: E5,1400  0002642               OMEGAM1            EQUALS   END-W                                 #  I(6)TMP
002966: E5,1400  0002650               OMEGAM2            EQUALS   OMEGAM1    +6                         #  I(6)TMP
002967: E5,1400  0002656               OMEGAM3            EQUALS   OMEGAM2    +6                         #  I(6)TMP
002968: E5,1400  0002664               HOLDW              EQUALS   OMEGAM3    +6                         #  I(18)TMP
002969: E5,1400  0002706               ZI                 EQUALS   HOLDW      +18D                       #  I(18)
002970:


002972:
002973:                                                                                                  #        *-*-*-*-  OVERLAY 0 IN EBANK 5 -*-*-*-*
002974:
002975:                                                                                                  #        SYSTEM TEST STORAGE.                                            (174)
002976:
002977: E5,1400                        AZIMUTH            ERASE    +1
002978: E5,1402                        LATITUDE           ERASE    +1
002979:
002980: E5,1404                        ERVECTOR           ERASE    +5
002981: E5,1412                        LENGTHOT           ERASE
002982: E5,1413                        LOSVEC             ERASE    +5
002983:
002984: E5,1421  E5,1413               SXTOPTN            =        LOSVEC
002985: E5,1421                        NDXCTR             ERASE
002986:
002987: E5,1422                        SYSTSPR1           ERASE                                          #  UNUSED
002988:
002989: E5,1423                        POSITON            ERASE
002990: E5,1424                        QPLAC              ERASE
002991: E5,1425                        QPLACE             ERASE
002992: E5,1426                        QPLACES            ERASE
002993: E5,1427                        RUN                ERASE
002994:
002995: E5,1430                        SYSTSPR2           ERASE                                          #  UNUSED
002996:
002997: E5,1431                        SOUTHDR            ERASE
002998: E5,1432  E5,1431               TARG1/2            =        SOUTHDR
002999: E5,1432                        TAZEL1             ERASE    +5
003000: E5,1440                        TEMPTIME           ERASE    +1
003001: E5,1442                        TMARK              ERASE    +1
003002: E5,1444                        AINLA              ERASE    +139D                                 #  OPTIMUM CALIB. AND ALIGNMENT
003003: E5,1660  E5,1444               GENPL              =        AINLA
003004: E5,1660  E5,1453               CDULIMIT           =        AINLA      +7
003005: E5,1660  E5,1552               COUNTPL            =        AINLA      +70D
003006: E5,1660  E5,1444               WANGO              EQUALS   AINLA
003007: E5,1660  E5,1446               WANGI              EQUALS   AINLA      +2D
003008: E5,1660  E5,1450               WANGT              EQUALS   AINLA      +4D
003009: E5,1660  E5,1450               TORQNDX            =        WANGT
003010: E5,1660  E5,1452               DRIFTT             EQUALS   AINLA      +6D
003011: E5,1660  E5,1454               ALX1S              EQUALS   AINLA      +8D
003012: E5,1660  E5,1455               CMPX1              EQUALS   AINLA      +9D
003013: E5,1660  E5,1456               ALK                EQUALS   AINLA      +10D
003014: E5,1660  E5,1472               VLAUNS             EQUALS   AINLA      +22D
003015: E5,1660  E5,1460               THETAX             =        ALK        +2
003016: E5,1660  E5,1474               WPLATO             EQUALS   AINLA      +24D
003017: E5,1660  E5,1500               INTY               EQUALS   AINLA      +28D
003018: E5,1660  E5,1466               THETAN             =        THETAX     +6
003019: E5,1660  E5,1502               ANGZ               EQUALS   AINLA      +30D
003020: E5,1660  E5,1504               INTZ               EQUALS   AINLA      +32D
003021: E5,1660  E5,1506               ANGY               EQUALS   AINLA      +34D
003022: E5,1660  E5,1510               ANGX               EQUALS   AINLA      +36D


003024: E5,1660  E5,1512               DRIFTO             EQUALS   AINLA      +38D
003025: E5,1660  E5,1514               DRIFTI             EQUALS   AINLA      +40D
003026: E5,1660  E5,1520               VLAUN              EQUALS   AINLA      +44D
003027: E5,1660  E5,1474               FILDELV            =        THETAN     +6
003028: E5,1660  E5,1522               ACCWD              EQUALS   AINLA      +46D
003029: E5,1660  E5,1476               INTVEC             =        FILDELV    +2
003030: E5,1660  E5,1530               POSNV              EQUALS   AINLA      +52D
003031: E5,1660  E5,1532               DPIPAY             EQUALS   AINLA      +54D
003032: E5,1660  E5,1536               DPIPAZ             EQUALS   AINLA      +58D
003033: E5,1660  E5,1540               ALTIM              EQUALS   AINLA      +60D
003034: E5,1660  E5,1541               ALTIMS             EQUALS   AINLA      +61D
003035: E5,1660  E5,1542               ALDK               EQUALS   AINLA      +62D
003036: E5,1660  E5,1560               DELM               EQUALS   AINLA      +76D
003037: E5,1660  E5,1570               WPLATI             EQUALS   AINLA      +84D
003038: E5,1660  E5,1577               RESTARPT           =        AINLA      +91D
003039: E5,1660  E5,1631               GEOSAVED           =        AINLA      +117D
003040: E5,1660  E5,1632               PREMTRXC           =        AINLA      +118D
003041: E5,1660  E5,1633               LAUNCHAZ           =        AINLA      +119D
003042: E5,1660  E5,1635               NEWAZMTH           =        AINLA      +121D
003043: E5,1660  E5,1637               OLDAZMTH           =        AINLA      +123D
003044: E5,1660  E5,1641               TOLDAZMT           =        AINLA      +125D
003045: E5,1660  E5,1643               GEOCOMPS           =        AINLA      +127D
003046: E5,1660  E5,1644               1SECXT             =        AINLA      +128D
003047: E5,1660  E5,1645               GTSWTLST           =        AINLA      +129D
003048: E5,1660  E5,1646               ERECTIME           =        AINLA      +130D
003049: E5,1660  E5,1647               ERCOMP             =        AINLA      +131D
003050: E5,1660  E5,1655               ZERONDX            =        AINLA      +137D
003051: E5,1660  E5,1655               GTSOPNDZ           =        ZERONDX
003052:
003053:
003054:                                                                                                  #  THE FOLLOWING TAGS ARE USED BY THE 504 IMU CALIBRATION AND ALIGNMENT PROGRAM ONLY.
003055:
003056: E5,1660  E5,1460               THETAX1            EQUALS   ALK        +2
003057: E5,1660  E5,1466               THETAN1            EQUALS   THETAX1    +6
003058: E5,1660  E5,1474               FILDELV1           EQUALS   THETAN1    +6
003059: E5,1660  E5,1476               INTVEC1            EQUALS   FILDELV1   +2
003060: E5,1660  E5,1631               GEOSAVE1           EQUALS   AINLA      +117D
003061: E5,1660  E5,1632               PREMTRX1           EQUALS   AINLA      +118D
003062: E5,1660  E5,1633               LUNCHAZ1           EQUALS   AINLA      +119D
003063: E5,1660  E5,1635               NEWAZ1             EQUALS   LUNCHAZ1   +2
003064: E5,1660  E5,1637               OLDAZ1             EQUALS   LUNCHAZ1   +4
003065: E5,1660  E5,1641               TOLDAZ1            EQUALS   LUNCHAZ1   +6
003066: E5,1660  E5,1643               GEOCOMP1           EQUALS   AINLA      +127D
003067: E5,1660  E5,1644               1SECXT1            EQUALS   AINLA      +128D
003068: E5,1660  E5,1645               GTSWTLT1           EQUALS   AINLA      +129D
003069: E5,1660  E5,1646               ERECTIM1           EQUALS   AINLA      +130D
003070: E5,1660  E5,1647               ERCOMP1            EQUALS   AINLA      +131D                      #  I(6)
003071: E5,1660  E5,1655               ZERONDX1           EQUALS   AINLA      +137D
003072: E5,1660  E5,1656               PERFDLAY           EQUALS   AINLA      +138D                      #  B(2).........
003073: E5,1660  E5,1657               ENDSYS-5           EQUALS   AINLA      +139D                      #  LAST SYS.TEST STORAGE IN E-5
003074:


003076:
003077:                                                                                                  #  END OF 504 CAL + ALIGN ERASE.
003078:


003080:
003081:                                                                                                  #        *-*-*-*-  OVERLAY 4 IN EBANK 5  -*-*-*-*
003082:
003083:                                                                                                  #        P32 -- P33                                                      (20D)
003084:
003085: E5,1660  0002610               UP1                EQUALS   DVLOS                                 #  I(6)
003086: E5,1660  0002616               VPASS2             EQUALS   UP1        +6                         #  I(6)
003087: E5,1660  0002624               RPASS2             EQUALS   VPASS2     +6                         #  I(6)
003088: E5,1660  0002632               DIFFALT            EQUALS   RPASS2     +6                         #  I(2)
003089:
003090:
003091:
003092:                                                                                                  #  P32,P33 STORAGE OVERLAYING 9X9 W-MATRIX LOCATIONS                     (32D)
003093:
003094: E5,1660  0002444               DELVEET1           EQUALS   9X9LOC1                               #  I(6) DELV FOR CSI
003095: E5,1660  0002452               RACT2              EQUALS   DELVEET1   +6                         #  I(6) POS. ACTIVE VEH. AT CDH TIME
003096: E5,1660  0002460               TCDH               EQUALS   RACT2      +6                         #  I(2)
003097: E5,1660  0002462               TCSI               EQUALS   TCDH       +2                         #  I(2)
003098: E5,1660  0002464               TTPI0              EQUALS   TCSI       +2                         #  I(2)
003099: E5,1660  0002532               VACT2              EQUALS   9X9LOC2                               #  I(6) VEL. ACTIVE VEH. AT CDH TIME
003100: E5,1660  0002540               RACT1              EQUALS   VACT2      +6                         #  I(6) POS. ACTIVE VEH. AT CSI TIME
003101: E5,1660  0002546               T1TOT2             EQUALS   RACT1      +6                         #  I(2) TCDH - TCSI
003102:
003103:
003104:
003105:                                                                                                  #        MARK COUNT FOR MINKEY R22, Q RETURN FOR N90/N81 DSP  P31,P36.   (2D)
003106:
003107: E5,1660  0002550               COUNT3MK           EQUALS   T1TOT2     +2                         #  I(1)
003108: E5,1660  0002551               N90RET             EQUALS   COUNT3MK   +1                         #  I(1)
003109:
003110:
003111:                                                                                                  #      MINKEY AFTERBURN TEMPORARIES FOR RESTART                          (24D)
003112:
003113: E5,1660  0002552               BURNTMP1           EQUALS   N90RET     +1                         #  I(6)
003114: E5,1660  0002560               BURNTMP2           EQUALS   BURNTMP1   +6                         #  I(6)
003115: E5,1660  0002566               BURNTMP3           EQUALS   BURNTMP2   +6                         #  I(6)
003116: E5,1660  0002574               BURNTMP4           EQUALS   BURNTMP3   +6                         #  I(6)
003117:


003119:
003120:                                                                                                  #                EBANK-6 ASSIGNMENTS.
003121: E6,1400                                           SETLOC   3000
003122:
003123:                                                                                                  #        P23    PAD LOADS***                                             (2D).
003124:
003125: E6,1400                        WMIDPOS            ERASE                                          #  I(1) PL  INITIAL VALUES FOR W-MATRIX IN
003126: E6,1401                        WMIDVEL            ERASE                                          #  I(1) PL  CISLUNAR (P23) NAVIGATION
003127:
003128:
003129:
003130:                                                                                                  #        R22    PAD LOADS                                                ( 5D ).
003131:
003132: E6,1402                        RVAR               ERASE    +1                                    #  I(2) PL  VHF RADAR
003133: E6,1404                        RVARMIN            ERASE    +2                                    #  I(3) PL  VHF RADAR
003134:
003135:
003136:
003137:                                                                                                  #  ******** PAD LOADED ENTRY DAP STEERING VARIABLES ********             (3D)
003138:
003139: E6,1407                        LADPAD             ERASE                                          #  I(1) PL FOR ENTRY.HOLDS CM  NOMINAL L/D
003140: E6,1410                        LODPAD             ERASE                                          #  I(1) PL FOR ENTRY.HOLDS CM  NOMINAL LOD
003141: E6,1411                        ALFAPAD            ERASE                                          #  B(1) PL ALFA TRIM / 180
003142:
003143:
003144:                                                                                                  #        P37  PAD LOAD
003145:
003146: E6,1412                        P37RANGE           ERASE                                          #  I(1)PL
003147:
003148:
003149:                                                                                                  #  ******** PAD LOADED TVC DAP VARIABLES.********************************(26D)
003150:
003151: E6,1413                        ETDECAY            ERASE                                          #  I(1)PL
003152: E6,1414                        EKPRIME            ERASE    +1                                    #  B(2)PL
003153: E6,1416                        EKTLX/I            ERASE    +2                                    #  B(3)PL
003154: E6,1421                        EREPFRAC           ERASE    +1                                    #  B(2)PL
003155:
003156: E6,1423                        PACTOFF            ERASE                                          #  B(1)PL, DSP N48 R01 = PTRIM, R02 = YTRIM
003157: E6,1424                        YACTOFF            ERASE                                          #  B(1)PL, CONSECUTIVE WITH PACTOFF
003158:
003159: E6,1425                        HBN10              ERASE                                          #  B(1)
003160: E6,1426                        HBN11/2            ERASE                                          #  B(1)
003161: E6,1427                        HBN12              ERASE                                          #  B(1)
003162: E6,1430                        HBD11/2            ERASE                                          #  B(1)
003163: E6,1431                        HBD12              ERASE                                          #  B(1)
003164:
003165: E6,1432                        HBN20              ERASE                                          #  B(1)
003166: E6,1433                        HBN21/2            ERASE                                          #  B(1)
003167: E6,1434                        HBN22              ERASE                                          #  B(1)
003168: E6,1435                        HBD21/2            ERASE                                          #  B(1)
003169: E6,1436                        HBD22              ERASE                                          #  B(1)


003171: E6,1437                        HBN30              ERASE                                          #  B(1)
003172: E6,1440                        HBN31/2            ERASE                                          #  B(1)
003173: E6,1441                        HBN32              ERASE                                          #  B(1)
003174: E6,1442                        HBD31/2            ERASE                                          #  B(1)
003175: E6,1443                        HBD32              ERASE                                          #  B(1)
003176:
003177:                                                                                                  #  ******* EXCLUSIVE TVC DAP VARIABLES. *********************************(4D)
003178:
003179: E6,1444                        TEMPDAP            ERASE    +1                                    #  B(2)
003180: E6,1446  E6,1444               MRKRTMP            =        TEMPDAP                               #       ((B(1)))
003181: E6,1446                        CNTR               ERASE                                          #  B(1)
003182: E6,1447                        OGAD               ERASE                                          #  B(1)
003183:
003184:
003185:
003186:                                                                                                  #  ******* EXCLUSIVE RCS DAP VARIABLES. *********************************(13D)
003187:
003188: E6,1450                        RWORD1             ERASE    +12D                                  #  B(1)
003189: E6,1465  E6,1451               RWORD2             EQUALS   RWORD1     +1                         #  B(1)
003190: E6,1465  E6,1452               PWORD1             EQUALS   RWORD2     +1                         #  B(1)
003191: E6,1465  E6,1453               PWORD2             EQUALS   PWORD1     +1                         #  B(1)
003192: E6,1465  E6,1454               YWORD1             EQUALS   PWORD2     +1                         #  B(1)
003193: E6,1465  E6,1455               YWORD2             EQUALS   YWORD1     +1                         #  B(1)
003194: E6,1465  E6,1456               BLAST              EQUALS   YWORD2     +1                         #  B(2)
003195: E6,1465  E6,1460               BLAST1             EQUALS   BLAST      +2                         #  B(2)
003196: E6,1465  E6,1462               BLAST2             EQUALS   BLAST1     +2                         #  B(2)
003197: E6,1465  E6,1464               T5PHASE            EQUALS   BLAST2     +2                         #  B(1)
003198:
003199:
003200:
003201:                                                                                                  #  ******* RCS/TVC DAP COMMON STORAGE.***********************************(17D)
003202:
003203: E6,1465                        DAPDATR1           ERASE                                          #  B(1)DSP NOUN 46(R1)
003204: E6,1466                        DAPDATR2           ERASE                                          #  B(1)DSP NOUN 46(R2)
003205:
003206: E6,1467     4076               DPCONFIG           =        OCT60000                              #  DAP CONFIG BITS
003207:
003208: E6,1467                        IXX                ERASE                                          #  B(1) CONSECUTIVE WITH IAVG, IAVG/TLX FOR
003209: E6,1470                        IAVG               ERASE                                          #  B(1)                            MASSPROP
003210: E6,1471                        IAVG/TLX           ERASE                                          #  B(1)
003211:
003212: E6,1472                        LEMMASS            ERASE                                          #  B(1)DSP NOUN 47(R2)
003213: E6,1473                        CSMMASS            ERASE    +1                                    #  B(2)
003214: E6,1475                        WEIGHT/G           ERASE
003215: E6,1476                        AK                 ERASE
003216: E6,1477                        AK1                ERASE
003217: E6,1500                        AK2                ERASE
003218:
003219: E6,1501                        RCSFLAGS           ERASE                                          #  B(1) CONSECUTIVE WITH AK2 DOWNLINK
003220: E6,1502                        T5TEMP             ERASE                                          #  B(1)


003222: E6,1503                        EDRIVEX            ERASE
003223: E6,1504                        EDRIVEY            ERASE
003224: E6,1505                        EDRIVEZ            ERASE
003225:
003226:
003227:                                                                                                  #        INTEMP THRU INTEMP+14D  ARE RESERVED FOR OVERLAYED TVC/RCS INTERUP TRUE TEMPORIES
003228: E6,1506                        INTTEMP            ERASE    +14D                                  #   (15)
003229:
003230:
003231:                                                                                                  #        TVC/RCS THRU TVCRCS +11D RESERVED FOR DOWNLINKED VARIABLES
003232:
003233: E6,1525                        TVCRCS             ERASE    +11D                                  #  (12)
003234:                                                                                                  #  RCS (WBODYS,ADOTS)
003235:                                                                                                  #  TVC(OMEGACS,OMEGABS)
003236:
003237:
003238:                                                                                                  #        TVC DAP TEMPORARY VARIABLES*********************************
003239:
003240:                                                                                                  #        TVC DAP INTERRUPT TRUE TEMPORARIES**************************
003241:
003242: E6,1541  E6,1506               PHI333             EQUALS   INTTEMP                               #  B(1)     COUNTING REGISTER
003243: E6,1541  E6,1507               PSI333             EQUALS   PHI333     +1                         #  B(1)     COUNTING REGISTER
003244: E6,1541  E6,1510               TEMP333            EQUALS   PSI333     +1                         #  B(1)     MASS TEMPORARY
003245: E6,1541  E6,1511               VARST0             EQUALS   TEMP333    +1                         #  B(8)     BREAKPOINTS AND SLOPES
003246: E6,1541  E6,1516               VARST5             =        VARST0     +5
003247: E6,1541  E6,1522               LASTMASP           EQUALS   VARST0     +9D                        #  LAST VARST0 WORD
003248:
003249:
003250:
003251:
003252:                                                                                                  #        *******REGULAR TVC TEMPORARIES*************
003253:
003254:
003255:                                                                                                  #        TVC ZEROING STARTS HERE
003256:
003257:
003258: E6,1541  E6,1525               OMEGAC             EQUALS   TVCRCS                                #  I(6)
003259: E6,1541  E6,1525               OMEGAXC            =        OMEGAC
003260: E6,1541  E6,1527               OMEGAYC            =        OMEGAC     +2
003261: E6,1541  E6,1531               OMEGAZC            =        OMEGAC     +4
003262:
003263: E6,1541  E6,1533               OMEGAB             EQUALS   TVCRCS     +6                         #  B(6)
003264: E6,1541  E6,1533               OMEGAXB            =        OMEGAB
003265: E6,1541  E6,1535               OMEGAYB            =        OMEGAB     +2
003266: E6,1541  E6,1537               OMEGAZB            =        OMEGAB     +4
003267:
003268: E6,1541  E6,1541               PTMP1              EQUALS   OMEGAC     +12D                       #  B(2)
003269: E6,1541  E6,1543               PTMP2              EQUALS   PTMP1      +2                         #  B(2)
003270: E6,1541  E6,1545               PTMP3              EQUALS   PTMP2      +2                         #  B(2)
003271: E6,1541  E6,1547               PTMP4              EQUALS   PTMP3      +2                         #  B(2)


003273: E6,1541  E6,1551               PTMP5              EQUALS   PTMP4      +2                         #  B(2)
003274: E6,1541  E6,1553               PTMP6              EQUALS   PTMP5      +2                         #  B(2)
003275:
003276: E6,1541  E6,1555               YTMP1              EQUALS   PTMP6      +2                         #  B(2)
003277: E6,1541  E6,1557               YTMP2              EQUALS   YTMP1      +2                         #  B(2)
003278: E6,1541  E6,1561               YTMP3              EQUALS   YTMP2      +2                         #  B(2)
003279: E6,1541  E6,1563               YTMP4              EQUALS   YTMP3      +2                         #  B(2)
003280: E6,1541  E6,1565               YTMP5              EQUALS   YTMP4      +2                         #  B(2)
003281: E6,1541  E6,1567               YTMP6              EQUALS   YTMP5      +2                         #  B(2)
003282:
003283: E6,1541  E6,1571               ROLLFIRE           EQUALS   YTMP6      +2                         #  B(1)
003284: E6,1541  E6,1572               ROLLWORD           EQUALS   ROLLFIRE   +1                         #  B(1)
003285: E6,1541  E6,1573               TEMREG             EQUALS   ROLLWORD   +1                         #  B(1)
003286:
003287: E6,1541  E6,1574               TVCDUMMY           EQUALS   TEMREG     +1                         #  DUMMY (NEED EVEN NUMBER OF LOCATIONS)
003288: E6,1541  E6,1575               PERRB              EQUALS   TVCDUMMY   +1                         #  B(2)
003289: E6,1541  E6,1577               YERRB              EQUALS   PERRB      +2                         #  B(2)
003290:
003291: E6,1541  E6,1601               DELPBAR            EQUALS   YERRB      +2                         #  B(2)
003292: E6,1541  E6,1603               DELYBAR            EQUALS   DELPBAR    +2                         #  B(2)
003293:
003294: E6,1541  E6,1605               PDELOFF            EQUALS   DELYBAR    +2                         #  B(2)
003295: E6,1541  E6,1607               YDELOFF            EQUALS   PDELOFF    +2                         #  B(2)
003296:
003297:
003298:                                                                                                  #        TVC ZEROING LOOP ENDS HERE
003299:
003300:
003301: E6,1541  E6,1611               TTMP1              EQUALS   YDELOFF    +2                         #  B(2)
003302: E6,1541  E6,1613               TTMP2              EQUALS   TTMP1      +2                         #  B(2)
003303:
003304: E6,1541  E6,1615               DAP1               EQUALS   TTMP2      +2                         #  B(2)
003305: E6,1541  E6,1617               DAP2               EQUALS   DAP1       +2                         #  B(2)
003306: E6,1541  E6,1621               DAP3               EQUALS   DAP2       +2                         #  B(2)
003307:
003308: E6,1541  E6,1623               PCMD               EQUALS   DAP3       +2                         #  B(1)
003309: E6,1541  E6,1624               YCMD               EQUALS   PCMD       +1                         #  B(1),  CONSECUTIVE WITH PCMD
003310: E6,1541  E6,1625               T5TVCDT            EQUALS   YCMD       +1                         #  B(1)
003311: E6,1541  E6,1626               KPRIMEDT           EQUALS   T5TVCDT    +1                         #  I(2)
003312: E6,1541  E6,1630               KTLX/I             EQUALS   KPRIMEDT   +2                         #  B(1)
003313: E6,1541  E6,1631               1/CONACC           EQUALS   KTLX/I     +1                         #  B(1)
003314: E6,1541  E6,1632               VARK               EQUALS   1/CONACC   +1                         #  B(1)
003315: E6,1541  E6,1633               REPFRAC            EQUALS   VARK       +1                         #  B(1)
003316: E6,1541  E6,1634               VCNTR              EQUALS   REPFRAC    +1                         #  B(1)
003317: E6,1541  E6,1635               TVCPHASE           EQUALS   VCNTR      +1                         #  B(1)
003318: E6,1541  E6,1636               PCDUYPST           EQUALS   TVCPHASE   +1                         #  B(1)
003319: E6,1541  E6,1637               PCDUZPST           EQUALS   PCDUYPST   +1                         #  B(1)
003320: E6,1541  E6,1640               YCDUYPST           EQUALS   PCDUZPST   +1                         #  B(1)
003321: E6,1541  E6,1641               YCDUZPST           EQUALS   YCDUYPST   +1                         #  B(1)
003322: E6,1541  E6,1642               MCDUYDOT           EQUALS   YCDUZPST   +1                         #  B(1)
003323: E6,1541  E6,1643               MCDUZDOT           EQUALS   MCDUYDOT   +1                         #  B(1)


003325: E6,1541  E6,1644               TVCEXPHS           EQUALS   MCDUZDOT   +1                         #  B(1)
003326:                                                                                                  #        TVC ROLL DAP VARIABLES
003327:
003328:                                                                                                  #  (8D)
003329: E6,1541  E6,1645               OGANOW             EQUALS   TVCEXPHS   +1
003330: E6,1541  E6,1646               OGAPAST            EQUALS   OGANOW     +1                         #  B(1)
003331: E6,1541  E6,1647               OGA                EQUALS   OGAPAST    +1                         #  B(1)TMP
003332: E6,1541  E6,1647               OGAERR             =        OGA                                   #  (ROLL DAP USES OGA, MEANS OGAERROR)
003333: E6,1541  E6,1650               DELOGART           EQUALS   OGA        +1                         #  B(1)TMP
003334: E6,1541  E6,1651               SGNRT              EQUALS   DELOGART   +1                         #  SIGN OF OGA RATE
003335: E6,1541  E6,1652               DELOGA             EQUALS   SGNRT      +1                         #  USED IN ROLL LOGIC
003336: E6,1541  E6,1653               I                  EQUALS   DELOGA     +1                         #  USED IN ROLL LOGIC
003337: E6,1541  E6,1654               IOGARATE           EQUALS   I          +1                         #  USED IN ROLL LOGIC
003338:
003339:                                                                                                  #        TVC DAP RESTART TEMPORARIES.
003340:
003341: E6,1541  E6,1655               PACTTMP            EQUALS   IOGARATE   +1                         #  B(2)
003342: E6,1541  E6,1657               YACTTMP            EQUALS   PACTTMP    +2                         #  B(2)
003343: E6,1541  E6,1661               CNTRTMP            EQUALS   YACTTMP    +2                         #  B(1)
003344: E6,1541  E6,1662               DELBRTMP           EQUALS   CNTRTMP    +1                         #  B(2)
003345: E6,1541  E6,1664               ERRBTMP            EQUALS   DELBRTMP   +2                         #  B(2)
003346: E6,1541  E6,1666               CMDTMP             EQUALS   ERRBTMP    +2                         #  B(2)
003347:
003348: E6,1541  E6,1670               TMP1               EQUALS   CMDTMP     +2                         #  B(2)
003349: E6,1541  E6,1672               TMP2               EQUALS   TMP1       +2                         #  B(2)
003350: E6,1541  E6,1674               TMP3               EQUALS   TMP2       +2                         #  B(2)
003351: E6,1541  E6,1676               TMP4               EQUALS   TMP3       +2                         #  B(2)
003352: E6,1541  E6,1700               TMP5               EQUALS   TMP4       +2                         #  B(2)
003353: E6,1541  E6,1702               TMP6               EQUALS   TMP5       +2                         #  B(2)
003354:
003355:                                                                                                  #        TVC DAP FILTER COEFFICIENTS TEMPORARIES
003356:
003357: E6,1541  E6,1704               COEFFADR           EQUALS   TMP6       +2                         #  B(1)
003358: E6,1541  E6,1705               N10                EQUALS   COEFFADR   +1                         #  I(15)
003359:
003360:
003361:                                                                                                  #        OVERLAYS WITHIN TVC DAP
003362:
003363: E6,1541  E6,1533               OGARATE            =        OMEGAB                                #  B(2)
003364:
003365: E6,1541  E6,1611               PHASETMP           =        TTMP1                                 #  B(1) RESTART FOR CSM/LM V46 SWITCH-OVER
003366: E6,1541  E6,1613               RTRNLOC            =        TTMP2                                 #  B(1) RESTART FOR CSM/LM V46 SWITCH-OVER
003367:
003368:
003369:
003370:                                                                                                  #        S40.9 STORAGE..........
003371:
003372: E6,1541  E6,1724               NBRCYCLS           EQUALS   N10        +15D                       #  B(1) COUNTER FOR P40,41 STEERING
003373: E6,1541  E6,1725               NBRCYCLP           EQUALS   NBRCYCLS   +1                         #  B(1) MAINTAIN ORDER
003374: E6,1541  E6,1726               DELVSUM            EQUALS   NBRCYCLP   +1                         #  I(6)  P40,P41
003375: E6,1541  E6,1734               DELVSUMP           EQUALS   DELVSUM    +6                         #  I(6) P40,P41
003376:


003378:
003379:                                                                                                  #        S40.8 TEMPORARY
003380:
003381: E6,1541  E6,1734               MASSTMP            EQUALS   DELVSUMP                              #  I(2)
003382:


003384:
003385:                                                                                                  #  ******* RCS DAP TEMPORARY VARIABLES.**********************************(95D)
003386:
003387:                                                                                                  #        **RCS INTERRUPT TRUE TEMPS*************************             15D
003388:
003389: E6,1541  E6,1506               SPNDX              EQUALS   INTTEMP                               #  B(1)
003390: E6,1541  E6,1507               DPNDX              EQUALS   SPNDX      +1                         #  B(1)TMP
003391: E6,1541  E6,1510               KMPAC              EQUALS   DPNDX      +1                         #  B(2)TMP
003392: E6,1541  E6,1512               KMPTEMP            EQUALS   KMPAC      +2                         #  B(1)TMP
003393:
003394: E6,1541  E6,1513               XNDX1              EQUALS   KMPTEMP    +1                         #  B(1)TMP  XNDX1 THRU NYJETS ARE OVERLAYED
003395: E6,1541  E6,1514               XNDX2              EQUALS   XNDX1      +1                         #  B(1)TMP  BY OTHER DAP ERASABLES SO
003396: E6,1541  E6,1515               YNDX               EQUALS   XNDX2      +1                         #  B(1)TMP  SHOULD ALWAYS BE DEFINED IN
003397: E6,1541  E6,1516               ZNDX               EQUALS   YNDX       +1                         #  B(1)TMP  A BLOCK
003398: E6,1541  E6,1517               RINDEX             EQUALS   ZNDX       +1                         #  B(1)TMP
003399: E6,1541  E6,1520               PINDEX             EQUALS   RINDEX     +1                         #  B(1)TMP
003400: E6,1541  E6,1521               YINDEX             EQUALS   PINDEX     +1                         #  B(1)TMP
003401: E6,1541  E6,1522               NRJETS             EQUALS   YINDEX     +1                         #  B(1)TMP
003402: E6,1541  E6,1523               NPJETS             EQUALS   NRJETS     +1                         #  B(1)TMP
003403: E6,1541  E6,1524               NYJETS             EQUALS   NPJETS     +1                         #  B(1)TMP
003404:
003405: E6,1541  E6,1513               WTEMP              EQUALS   XNDX1                                 #  B(2)TMP  WTEMP THRU DELTEMPZ OVERLAY
003406: E6,1541  E6,1515               DELTEMPX           EQUALS   WTEMP      +2                         #  B(2)TMP  XNDX1 THRU NRJETS AND EDOT THRU
003407: E6,1541  E6,1517               DELTEMPY           EQUALS   DELTEMPX   +2                         #  B(2)TMP  ADBVEL
003408: E6,1541  E6,1521               DELTEMPZ           EQUALS   DELTEMPY   +2                         #  B(2)TMP
003409:
003410: E6,1541  E6,1515               EDOT               EQUALS   YNDX                                  #  B(2)TMP  EDOT THRU ADBVEL OVERLAY
003411: E6,1541  E6,1517               AERR               EQUALS   EDOT       +2                         #  B(1)TMP  YNDX THRU NPJETS AND DELTEMPX
003412: E6,1541  E6,1520               EDOTVEL            EQUALS   AERR       +1                         #  B(2)TMP   THRU DELTEMPZ
003413: E6,1541  E6,1522               AERRVEL            EQUALS   EDOTVEL    +2                         #  B(1)TMP
003414: E6,1541  E6,1523               ADBVEL             EQUALS   AERRVEL    +1                         #  B(1)TMP
003415:
003416:                                                                                                  #        *** REGULAR RCS TEMPS***************************                (   ).
003417:
003418:                                                                                                  #         RCS ZEROING LOOP STARTS HERE**** ** **  ** ***   *** * *       (37)
003419:
003420: E6,1541  E6,1525               WBODY              EQUALS   TVCRCS                                #  B(2)TMP
003421: E6,1541  E6,1527               WBODY1             EQUALS   WBODY      +2                         #  B(2)TMP
003422: E6,1541  E6,1531               WBODY2             EQUALS   WBODY      +4                         #  B(2)TMP
003423: E6,1541  E6,1533               ADOT               EQUALS   WBODY2     +2                         #  B(2)TMP
003424: E6,1541  E6,1535               ADOT1              EQUALS   ADOT       +2                         #  B(2)TMP
003425: E6,1541  E6,1537               ADOT2              EQUALS   ADOT1      +2                         #  B(2)TMP
003426:
003427: E6,1541  E6,1541               MERRORX            EQUALS   ADOT2      +2                         #   (2)
003428: E6,1541  E6,1543               MERRORY            EQUALS   MERRORX    +2                         #   (2)
003429: E6,1541  E6,1545               MERRORZ            EQUALS   MERRORY    +2                         #   (2)
003430: E6,1541  E6,1547               DFT                EQUALS   MERRORZ    +2                         #          B(1)TMP
003431: E6,1541  E6,1550               DFT1               EQUALS   DFT        +1                         #  B(1)TMP
003432: E6,1541  E6,1551               DFT2               EQUALS   DFT1       +1                         #  B(1)TMP
003433: E6,1541  E6,1552               DRHO               EQUALS   DFT2       +1                         #  B(2)TMP
003434: E6,1541  E6,1554               DRHO1              EQUALS   DRHO       +2                         #  B(2)TMP


003436: E6,1541  E6,1556               DRHO2              EQUALS   DRHO1      +2                         #  B(2)TMP
003437: E6,1541  E6,1560               ATTSEC             EQUALS   DRHO2      +2                         #  B(1)TMP
003438: E6,1541  E6,1561               TAU                EQUALS   ATTSEC     +1                         #  B(1)TMP
003439: E6,1541  E6,1562               TAU1               EQUALS   TAU        +1                         #  B(1)TMP
003440: E6,1541  E6,1563               TAU2               EQUALS   TAU1       +1                         #  B(1)TMP
003441: E6,1541  E6,1564               BIAS               EQUALS   TAU2       +1                         #  B(1)TMP
003442: E6,1541  E6,1565               BIAS1              EQUALS   BIAS       +1                         #  B(1)TMP
003443: E6,1541  E6,1566               BIAS2              EQUALS   BIAS1      +1                         #  B(1)TMP
003444: E6,1541  E6,1567               ERRORX             EQUALS   BIAS2      +1                         #  B(1)TMP
003445: E6,1541  E6,1570               ERRORY             EQUALS   ERRORX     +1                         #  B(1)TMP
003446: E6,1541  E6,1571               ERRORZ             EQUALS   ERRORY     +1                         #  B(1)TMP
003447:
003448:
003449:
003450:                                                                                                  #        RCS ZERO LOOP ENDS HERE
003451:
003452:
003453:                                                                                                  #             MORE RCS                                                   (69D)
003454:
003455:
003456: E6,1541  E6,1572               THETADX            EQUALS   ERRORZ     +1                         #  B(1)TMP  MUST BE CONSECUTIVE WITH ERRORZ
003457: E6,1541  E6,1573               THETADY            EQUALS   THETADX    +1                         #  B(1)TMP
003458: E6,1541  E6,1574               THETADZ            EQUALS   THETADY    +1                         #  B(1)TMP
003459:
003460: E6,1541  E6,1575               DELCDUX            EQUALS   THETADZ    +1                         #  B(2)TMP
003461: E6,1541  E6,1577               DELCDUY            EQUALS   DELCDUX    +2                         #  B(2)TMP
003462: E6,1541  E6,1601               DELCDUZ            EQUALS   DELCDUY    +2                         #  B(2)TMP
003463:
003464: E6,1541  E6,1603               DCDU               EQUALS   DELCDUZ    +2                         #  B(6)TMP USED DURING P20
003465: E6,1541  E6,1611               DTHETASM           EQUALS   DCDU       +6                         #  B(6)TMP STEER LOW OUTPUT.
003466:
003467: E6,1541  E6,1617               ATTKALMN           EQUALS   DTHETASM   +6                         #  B(1)TMP
003468: E6,1541  E6,1620               KMJ                EQUALS   ATTKALMN   +1                         #  B(1)TMP
003469: E6,1541  E6,1621               KMJ1               EQUALS   KMJ        +1                         #  B(1)TMP
003470: E6,1541  E6,1622               KMJ2               EQUALS   KMJ1       +1                         #  B(1)TMP
003471: E6,1541  E6,1623               J/M                EQUALS   KMJ2       +1                         #  B(1)TMP
003472: E6,1541  E6,1624               J/M1               EQUALS   J/M        +1                         #  B(1)TMP
003473: E6,1541  E6,1625               J/M2               EQUALS   J/M1       +1                         #  B(1)TMP
003474: E6,1541  E6,1626               RACFAIL            EQUALS   J/M2       +1                         #  B(1)TMP
003475: E6,1541  E6,1627               RBDFAIL            EQUALS   RACFAIL    +1                         #  B(1)TMP
003476: E6,1541  E6,1630               ACORBD             EQUALS   RBDFAIL    +1                         #  B(1)TMP
003477: E6,1541  E6,1631               XTRANS             EQUALS   ACORBD     +1                         #  B(1)TMP
003478: E6,1541  E6,1632               CH31TEMP           EQUALS   XTRANS     +1                         #  B(1)TMP
003479: E6,1541  E6,1633               CHANTEMP           EQUALS   CH31TEMP   +1                         #  B(1)TMP
003480: E6,1541  E6,1634               T5TIME             EQUALS   CHANTEMP   +1                         #  B(1)TMP
003481: E6,1541  E6,1635               RHO                EQUALS   T5TIME     +1                         #  B(1)TMP
003482: E6,1541  E6,1636               RHO1               EQUALS   RHO        +1                         #  B(1)TMP
003483: E6,1541  E6,1637               RHO2               EQUALS   RHO1       +1                         #  B(1)TMP
003484: E6,1541  E6,1640               AMGB1              EQUALS   RHO2       +1                         #  B(1)TMP
003485: E6,1541  E6,1641               AMGB4              EQUALS   AMGB1      +1                         #  B(1)TMP


003487: E6,1541  E6,1642               AMGB5              EQUALS   AMGB4      +1                         #  B(1)TMP
003488: E6,1541  E6,1643               AMGB7              EQUALS   AMGB5      +1                         #  B(1)TMP
003489: E6,1541  E6,1644               AMGB8              EQUALS   AMGB7      +1                         #  B(1)TMP
003490: E6,1541  E6,1645               CAPSI              EQUALS   AMGB8      +1                         #  B(1)TMP
003491: E6,1541  E6,1646               CDUXD              EQUALS   CAPSI      +1                         #  B(2)TMP
003492: E6,1541  E6,1650               CDUYD              EQUALS   CDUXD      +2                         #  B(2)TMP
003493: E6,1541  E6,1652               CDUZD              EQUALS   CDUYD      +2                         #  B(2)TMP
003494: E6,1541  E6,1654               SLOPE              EQUALS   CDUZD      +2                         #  B(1)TMP
003495: E6,1541  E6,1655               ADB                EQUALS   SLOPE      +1                         #  B(1)TMP
003496: E6,1541  E6,1656               RMANNDX            EQUALS   ADB        +1                         #  B(1)TMP
003497: E6,1541  E6,1657               PMANNDX            EQUALS   RMANNDX    +1                         #  B(1)TMP
003498: E6,1541  E6,1660               YMANNDX            EQUALS   PMANNDX    +1                         #  B(1)TMP  MUST BE LAST VARIABLE IN RCS
003499:


003501:
003502:                                                                                                  #  ******** ENTRY DAP TEMPORARY VARIABLES.*******************************(69D)
003503:
003504:                                                                                                  #   ANGLE REGISTERS FOR ENTRY DAPS
003505:
003506: E6,1541  E6,1661               AOG                EQUALS   BCDU                                  #  1P
003507: E6,1541  E6,1662               AIG                EQUALS   AOG        +1                         #  1P
003508: E6,1541  E6,1663               AMG                EQUALS   AIG        +1                         #  1P
003509: E6,1541  E6,1664               ROLL/180           EQUALS   AMG        +1                         #  1P
003510: E6,1541  E6,1665               ALFA/180           EQUALS   ROLL/180   +1                         #  1P
003511: E6,1541  E6,1666               BETA/180           EQUALS   ALFA/180   +1                         #  1P
003512: E6,1541  E6,1667               AOG/PIP            EQUALS   BETA/180   +1                         #  1P
003513: E6,1541  E6,1670               AIG/PIP            EQUALS   AOG/PIP    +1                         #  1P
003514: E6,1541  E6,1671               AMG/PIP            EQUALS   AIG/PIP    +1                         #  1P
003515: E6,1541  E6,1672               ROLL/PIP           EQUALS   AMG/PIP    +1                         #  1P
003516: E6,1541  E6,1673               ALFA/PIP           EQUALS   ROLL/PIP   +1                         #  1P
003517: E6,1541  E6,1674               BETA/PIP           EQUALS   ALFA/PIP   +1                         #  1P
003518:
003519:                                                                                                  #  GYMBAL DIFFERENCES OVER INTERNAL TCDU = .1 SEC.
003520:
003521: E6,1541  E6,1675               -DELAOG            EQUALS   BETA/PIP   +1                         #  1P
003522: E6,1541  E6,1676               -DELAIG            EQUALS   -DELAOG    +1                         #  1P
003523: E6,1541  E6,1677               -DELAMG            EQUALS   -DELAIG    +1                         #  1P
003524:
003525:                                                                                                  #  ESTIMATED BODY RATES
003526:
003527: E6,1541  E6,1700               CMDAPMOD           EQUALS   -DELAMG    +1                         #  1P  GOES BEFORE PREL FOR TM.
003528:
003529: E6,1541  E6,1701               PREL               EQUALS   CMDAPMOD   +1                         #  1P   P TCDU/180      (ROLLDOT)
003530: E6,1541  E6,1702               QREL               EQUALS   PREL       +1                         #  1P   Q TCDU/180     (PITCHDOT)
003531: E6,1541  E6,1703               RREL               EQUALS   QREL       +1                         #  1P   R TCDU/180     (YAWDOT)
003532:
003533: E6,1541  E6,1704               BETADOT            EQUALS   RREL       +1                         #  1P  MUST FOLLOW RREL. BETADOT TCDU/180
003534: E6,1541  E6,1705               PHIDOT             EQUALS   BETADOT    +1                         #  1P
003535:
003536:                                                                                                  #  OLD (UNAVERAGED) BODY RATE MEASURE
003537:
003538: E6,1541  E6,1706               OLDELP             EQUALS   PHIDOT     +1                         #  1P
003539: E6,1541  E6,1707               OLDELQ             EQUALS   OLDELP     +1                         #  1P
003540: E6,1541  E6,1710               OLDELR             EQUALS   OLDELQ     +1                         #  1P
003541:
003542: E6,1541  E6,1711               JETAG              EQUALS   OLDELR     +1                         #  1P
003543: E6,1541  E6,1712               TUSED              EQUALS   JETAG      +1                         #  1P   ELAPSED TIME SINCE NOMINAL UPDATE.
003544:
003545:
003546:
003547:                                                                                                  #        FOLLOWING 3 SP WORDS IN DOWNLINK.  ROLLTM SENT EACH 1 SEC.
003548:
003549: E6,1541  E6,1713               PAXERR1            EQUALS   TUSED      +1                         #  1P   INTEGRATED ROLL ERROR/360.
003550: E6,1541  E6,1714               ROLLTM             EQUALS   PAXERR1    +1                         #  1P   ROLL/180 FOR TM.
003551: E6,1541  E6,1715               ROLLC              EQUALS   ROLLTM     +1                         #  2P   ROLLCOM/360 FROM ENTRY (FOR TM)
003552:                                                                                                  #  >> KEEP ROLLC & ROLLHOLD ADJACENT FOR TP


003554: E6,1541  E6,1717               ROLLHOLD           EQUALS   ROLLC      +2                         #  1P FOR ATTITUDE HOLD IN CMDAPMOD = +1
003555:
003556:                                                                                                  #        ENTRY DAP QUANTITIES THAT SHARE WITH RCS DAP.
003557:
003558: E6,1541  E6,1603               ALFACOM            EQUALS   DCDU                                  #  1P  KEEP ADJACENT TO BETACOM.  <<
003559: E6,1541  E6,1604               BETACOM            EQUALS   ALFACOM    +1                         #  1P
003560:
003561:                                                                                                  #  JET LIST:   DT, JETBITS  IN THIS ORDER.
003562:
003563: E6,1541  E6,1605               TOFF               EQUALS   BETACOM    +1                         #  1P   DP PAIR
003564: E6,1541  E6,1606               TBITS              EQUALS   TOFF       +1                         #  1P
003565: E6,1541  E6,1607               TON2               EQUALS   TBITS      +1                         #  1P   DP PAIR
003566: E6,1541  E6,1610               T2BITS             EQUALS   TON2       +1                         #  1P
003567:
003568:                                                                                                  #   MISCELLANEOUS PERMANENT ERASABLE.
003569:
003570: E6,1541  E6,1611               OUTTAG             EQUALS   T2BITS     +1                         #  1P
003571: E6,1541  E6,1612               NUJET              EQUALS   OUTTAG     +1                         #  1P
003572:                                                                                                  #     MORE ENTRY DAP QUANTITIES THAT  DO NOT SHARE WITH RCS DAP.
003573:
003574: E6,1541  E6,1720               JETEM              EQUALS   ROLLHOLD   +1                         #  2P  THIS DP USED IN RATEAVG
003575: E6,1541  E6,1722               GAMA               EQUALS   JETEM      +2                         #  1P
003576: E6,1541  E6,1723               GAMDOT             EQUALS   GAMA       +1                         #  1P
003577: E6,1541  E6,1724               POSEXIT            EQUALS   GAMDOT     +1                         #  1P
003578: E6,1541  E6,1725               CM/GYMDT           EQUALS   POSEXIT    +1                         #  1P
003579: E6,1541  E6,1726               HEADSUP            EQUALS   CM/GYMDT   +1                         #  1P  DSP NOUN 61 FOR P62,63,64,67.
003580: E6,1541  E6,1727               P63FLAG            EQUALS   HEADSUP    +1                         #  1P  INTERLOCK FOR WAKEP62
003581:
003582:
003583:                                                                                                  #                                >> SHARE BELOW WITH RCS RUPT TEMPS (< 15D) <<<
003584: E6,1541  E6,1506               CALFA              EQUALS   SPNDX                                 #  1P
003585: E6,1541  E6,1507               SALFA              EQUALS   CALFA      +1                         #  1P
003586:
003587: E6,1541  E6,1510               SINM               EQUALS   SALFA      +1                         #  1P
003588: E6,1541  E6,1511               COSM               EQUALS   SINM       +1                         #  1P
003589: E6,1541  E6,1512               SINO               EQUALS   COSM       +1                         #  1P
003590: E6,1541  E6,1513               COSO               EQUALS   SINO       +1                         #  1P
003591: E6,1541  E6,1514               SINOCOSM           EQUALS   COSO       +1                         #  1P
003592: E6,1541  E6,1515               COSOCOSM           EQUALS   SINOCOSM   +1                         #  1P
003593:                                                                                                  #                                >> SHARE ABOVE WITH RCS RUPT TEMPS          <<<
003594:
003595:                                                                                                  #        THE FOLLOWING FEW REGISTERS USED ONCE EACH 2 SEC.
003596:
003597: E6,1541  E6,1613               -VT/180            EQUALS   NUJET      +1                         #  1P
003598: E6,1541  E6,1614               LCX/360            EQUALS   -VT/180    +1                         #  1P
003599: E6,1541  E6,1615               XD/360             EQUALS   LCX/360    +1                         #  1P
003600: E6,1541  E6,1616               VSQ/4API           EQUALS   XD/360     +1                         #  1P
003601: E6,1541  E6,1617               JNDX               EQUALS   VSQ/4API   +1                         #  1P
003602: E6,1541  E6,1620               JNDX1              EQUALS   JNDX       +1                         #  1P


003604: E6,1541  E6,1621               TON1               EQUALS   JNDX1      +1                         #  1P   DP PAIR
003605: E6,1541  E6,1622               T1BITS             EQUALS   TON1       +1                         #  1P
003606:
003607:                                                                                                  #        MISCELLANEOUS REGISTERS USED EACH UPDATE.
003608:
003609: E6,1541  E6,1623               CM/SAVE            EQUALS   T1BITS     +1                         #  1P
003610: E6,1541  E6,1624               JETEM2             EQUALS   CM/SAVE    +1                         #  1P  TEMPORARY STORAGE
003611:
003612:                                                                                                  #        DAP   QUANTITIES SHARED WITH RCS DAP FOR TM & FLIGHT RECORDER.
003613:
003614: E6,1541  E6,1567               VDT/180            =        ERRORX                                #  1P   (EDIT)
003615: E6,1541  E6,1570               -VT/180E           =        ERRORY                                #  1P   (EDIT)
003616:
003617: E6,1541  E6,1476               PAXERR             EQUALS   AK                                    #  1P  ROLL ERROR FOR NEEDLES
003618: E6,1541  E6,1572               QAXERR             =        THETADX                               #  1P  SINCE AK1 IS ZEROED IN ATM DAP.
003619: E6,1541  E6,1573               RAXERR             =        QAXERR     +1                         #  1P  SINCE AK2 IS ZEROED IN TM DAP.
003620:
003621:
003622:
003623:                                                                                                  #        **** COLMANU (R60,R62) ****
003624:
003625: E6,1541  E6,1710               VECQTEMP           EQUALS   COFSKEW
003626:


003628:
003629:                                                                                                  #  ******** KALCMANU VARIABLES. (71D) *************************************
003630: E6,1541  E6,1661               BCDU               EQUALS   YMANNDX    +1                         #  B(3) TMP
003631: E6,1541  E6,1664               KSPNDX             EQUALS   BCDU       +3                         #  B(1)TMP
003632: E6,1541  E6,1665               KDPNDX             EQUALS   KSPNDX     +1                         #  B(1)TMP
003633:
003634: E6,1541  E6,1666               TMIS               EQUALS   KDPNDX     +1                         #  I(18) MUST BE IN THE SAME BANK AS RCS DAP
003635: E6,1541  E6,1710               COFSKEW            EQUALS   TMIS       +18D                       #  I(6)  MUST BE IN THE SAME BANK AS RCS DAP
003636: E6,1541  E6,1716               CAM                EQUALS   COFSKEW    +6                         #  I(2)  MUST BE IN THE SAME BANK AS RCS DAP
003637:
003638: E6,1541  E6,1720               MIS                EQUALS   CAM        +2                         #  I(18)  (THE REST MAY GO ANYWHERE)
003639: E6,1541  E6,1742               COF                EQUALS   MIS        +18D                       #  I(6)TMP
003640: E6,1541  E6,1750               SCAXIS             EQUALS   COF        +6                         #  I(6)TMP
003641: E6,1541  E6,1756               POINTVSM           EQUALS   SCAXIS     +6                         #  I(6)TMP
003642: E6,1541  E6,1764               AM                 EQUALS   POINTVSM   +6                         #  I(2)TMP
003643: E6,1541  E6,1766               RAD                EQUALS   AM         +2                         #  I(2)TMP
003644:
003645:
003646:                                                                                                  #  FIRST-ORDER OVERLAYS IN KALCMANU                                      (12D+8D)
003647:
003648: E6,1541  E6,1666               MFISYM             EQUALS   TMIS                                  #  I   TMP
003649: E6,1541  E6,1666               TMFI               EQUALS   TMIS                                  #  I   TMP
003650: E6,1541  E6,1666               NCDU               EQUALS   TMIS                                  #  B   TMP
003651: E6,1541  E6,1671               NEXTIME            EQUALS   TMIS       +3                         #  B   TMP
003652: E6,1541  E6,1672               TTEMP              EQUALS   TMIS       +4                         #  B   TMP
003653: E6,1541  E6,1674               BIASTEMP           EQUALS   TMIS       +6                         #  B   TMP
003654: E6,1541  E6,1710               BRATE              EQUALS   COFSKEW                               #  B   TMP
003655: E6,1541  E6,1716               TM                 EQUALS   CAM                                   #  B   TMP
003656:
003657:                                                                                                  #        UT TEMPS
003658:
003659: E6,1541  E6,1750               UTX                EQUALS   SCAXIS                                #  I(6)
003660: E6,1541  E6,1756               UTY                EQUALS   POINTVSM                              #  I(6)
003661:
003662:
003663:                                                                                                  #        SATURN BOOST STORAGE. SAVE TILL RCS DAP OPERATION.              (17D)
003664:
003665: E6,1541  E6,1661               POLYNUM            EQUALS   BCDU                                  #  B(15) PAD LOADED
003666: E6,1541  E6,1673               POLYLOC            =        POLYNUM    +10D
003667: E6,1541  E6,1700               SATRLRT            EQUALS   POLYNUM    +15D                       #  B(2)  PAD LOADED
003668:
003669:
003670:
003671:                                                                                                  #        MORE P11 STORAGE -PAD LOADED-                                   (2D)
003672:
003673:                                                                                                  #        (NOTE: THIS PAD LOAD WILL NOT BE PRESERVED THROUGHOUT THE MISSION AS IT SHARES STORAGE WITH KALCMANU,
003674:                                                                                                  #         ENTRY DAP AND TVC DAP)
003675:
003676: E6,1541  E6,1702               RPSTART            EQUALS   SATRLRT    +2                         #  B(1) PITCH ROLL START TIME
003677: E6,1541  E6,1703               POLYSTOP           EQUALS   RPSTART    +1                         #  B(1) POLY CUTOFF MINUS RPSTART SEC
003678:
003679:


003681:
003682:                                                                                                  #        P11 STORAGE                                                     (4D)
003683:
003684: E6,1541  E6,1704               SPOLYARG           EQUALS   POLYSTOP   +1                         #  B(1)TMP ARG FOR POLY
003685: E6,1541  E6,1705               BOOSTEMP           EQUALS   SPOLYARG   +1                         #  B(3)TEMP
003686:
003687:
003688:                                                                                                  #  P11 SATURN I/F                                                        (9D)
003689:
003690: E6,1541  E6,1710               SATRATE            EQUALS   BOOSTEMP   +3                         #  B(4)PL MANEUVER RATES FOR SATURN STICK
003691: E6,1541  E6,1714               SATSW              EQUALS   SATRATE    +4                         #  B(1)TEM STATUS SW FOR BOOST TAKEOVER
003692: E6,1541  E6,1715               BIASAK             EQUALS   SATSW      +1                         #  B(3)TEM STOR AK BIAS FOR BOOST TAKEOVER
003693: E6,1541  E6,1720               SATSCALE           EQUALS   BIASAK     +3                         #  B(1) SCALE FACTOR FOR SATURN STEERING
003694:
003695:
003696:
003697:                                                                                                  #        P21 STORAGE.                                                    (1D)
003698:
003699: E6,1541  E6,1770               GENRET             EQUALS   RAD        +2                         #  B(1)TMP
003700:
003701:
003702:                                                                                                  #        R61CSM STORAGE.                                                 (1D)
003703:
003704: E6,1541  E6,1771               SAVBNK             EQUALS   GENRET     +1                         #  B(1) S-S SAVE EBANK FOR R61 SUBROUTINE
003705:
003706:
003707:                                                                                                  #  R67 STORAGE                                                           (1D)
003708:
003709: E6,1541  E6,1772               RATEPTC            EQUALS   SAVBNK     +1                         #  B(1)
003710:
003711:
003712:                                                                                                  #        PERMANENT STORAGE FOR P20 DEADBAND                              (1D)
003713:
003714: E6,1541  E6,1773               DBPTC              EQUALS   RATEPTC    +1                         #  B(1)
003715:
003716:
003717:                                                                                                  #  R61,R67 STORAGE.                                                      (1D)
003718:
003719:
003720: E6,1541  E6,1774               R61CNTR            EQUALS   DBPTC      +1                         #  B(1)
003721:                                                                                                  #        ENTRY RESTART PROTECTION STORAGE. -KEEP TEMPS IN ORDER-         (12D)
003722:
003723: E6,1541  E6,1770               TEMPROLL           EQUALS   GENRET                                #  B(1)TMP COPY CYCLE REGISTER
003724: E6,1541  E6,1771               TEMPALFA           EQUALS   TEMPROLL   +1                         #  B(1)TMP COPY CYCLE REGISTER
003725: E6,1541  E6,1772               TEMPBETA           EQUALS   TEMPALFA   +1                         #  B(1)TMP COPY CYCLE REGISTER
003726: E6,1541  E6,1773               60GENRET           EQUALS   TEMPBETA   +1                         #  B(1)TMP QSAVE FOR S61.1 AND ENTRY.
003727: E6,1541  E6,1774               S61DT              EQUALS   60GENRET   +1                         #  B(1)TMP VARIABLE DT FOR S61.1 RESTART.
003728:
003729:
003730:
003731:                                                                                                  #        ENTRY TM SHARING FOR ACCELERATION PROFILE.
003732:


003734: E6,1541  E6,1533               XPIPBUF            EQUALS   ADOT                                  #  B(1) PIPA BUFFER FOR TM DURING ENTRY.
003735: E6,1541  E6,1534               YPIPBUF            EQUALS   XPIPBUF    +1                         #  B(1) PIPS FILED HERE EACH .5 SEC APPEAR
003736: E6,1541  E6,1535               ZPIPBUF            EQUALS   YPIPBUF    +1                         #  B(1) ON DOWNLIST ONCE PER SECOND DURING
003737: E6,1541  E6,1536               XOLDBUF            EQUALS   ZPIPBUF    +1                         #  B(1) ENTRY AFTER RCS DAP HAS BEEN DIS-
003738: E6,1541  E6,1537               YOLDBUF            EQUALS   XOLDBUF    +1                         #  B(1) ABLED. NEWEST PIP VALUE REPLACES
003739: E6,1541  E6,1540               ZOLDBUF            EQUALS   YOLDBUF    +1                         #  B(1) PIPBUF,WHICH IS MOVED INTO OLDBUF.
003740:
003741:
003742:                                                                                                  #        REENTRY VARIABLES SHARED WITH RCS DAP FOR TM & FLIGHT RECORDER.
003743:
003744: E6,1541  E6,1574               Q7                 =        THETADZ                               #  I(2)   HI-WORD ONLY ON DNLIST.
003745:
003746: E6,1541  E6,1525               ASPS(TM)           =        WBODY                                 #  I(6) DWN
003747:                                                                                                  #        ASKEP,ASP1,ASPUP,ASPDN,ASP3,ASP3+1
003748:
003749:                                                                                                  #        P23 PAD LOAD (2D)
003750:
003751: E6,1541  E6,1775               HORISLP            EQUALS   R61CNTR    +1                         #  I(2)PL
003752:


003754:
003755:                                                                                                  #                EBANK-7 ASSIGNMENTS
003756:
003757: E7,1400                                           SETLOC   3400
003758:
003759:
003760:                                                                                                  #        *-*-*-*- OVERLAY NUMBER 0 IN EBANK 7 -*-*-*-*
003761:
003762:                                                                                                  #        EXTERNAL DELTA-V UPDATE.                                        (21D)
003763:
003764:                                                                                                  #        (MUST BE IN ORDER FOR UPDATE PROGRAM. ALSO ENTRY PROGRAMS PICK UP 'LAT(SPL)' WITH A VLOAD.)
003765:
003766: E7,1400                        LAT(SPL)           ERASE    +20D                                  #  I(2)      DSP NOUN 61 FOR P62,63,64,67
003767: E7,1425  E7,1402               LNG(SPL)           EQUALS   LAT(SPL)   +2                         #  I(2)DSP NOUN 61 FOR P62,63,64,67
003768:
003769: E7,1425  E7,1404               DELVSLV            EQUALS   LNG(SPL)   +2                         #  I(6)TMP DELTA VEL VECT, LOC VER COORDS
003770: E7,1425  E7,1412               TIG                EQUALS   DELVSLV    +6                         #  B(2)DSP NOUN 33 FOR X-V84(R32),P30,40.
003771: E7,1425  E7,1414               RTARG              EQUALS   TIG        +2                         #  I(6)IN  DESIRED VEHICHE RADIUS VECTOR
003772: E7,1425  E7,1422               DELLT4             EQUALS   RTARG      +6                         #  I(2)IN  TIME DIFFERENCE FOR INITVEL
003773: E7,1425  E7,1424               ECSTEER            EQUALS   DELLT4     +2                         #  I(1)PL   FOR P40 S
003774: E7,1425  E7,1404               DELVLVC            =        DELVSLV
003775: E7,1425                        END-DELV           ERASE                                          #  *NEXT AVAIL LOC AFTER UNSHARED E7*
003776:
003777:
003778:
003779:                                                                                                  #        SERVICER STORAGE.                                               (12D)
003780:
003781: E7,1426  E7,1425               DVTOTAL            EQUALS   END-DELV                              #  B(2) DSP NOUN 40,99 FOR P30,34,35,40
003782: E7,1426  E7,1427               TGO                EQUALS   DVTOTAL    +2                         #  B(2)
003783: E7,1426  E7,1431               DELVREF            EQUALS   TGO        +2                         #  I(6)TMP
003784: E7,1426  E7,1447               NOMTIG             EQUALS   END-KALC                              #  I(2) (CAN NOT SHARE WITH KALCMANU
003785:                                                                                                  #  OR DELVREF)
003786: E7,1426  E7,1451               END-SVCR           EQUALS   NOMTIG     +2                         #  ***NEXT AVAILABLE AFTER SERVICER
003787:
003788:
003789:
003790:                                                                                                  #        ALIGNMENT STORAGE.                                              (7D)
003791:
003792: E7,1426  E7,1451               VEL/C              EQUALS   END-SVCR                              #  I(6)TMP
003793: E7,1426  E7,1457               R53EXIT            EQUALS   VEL/C      +6                         #  I(1)TMP
003794:
003795:                                                                                                  #        ALIGNMENT MARKDATA (DOWNLINK) *******                           (7D)
003796: E7,1426  E7,1460               MARK2DWN           EQUALS   R53EXIT    +1                         #  (7)  USED BY ALIGNMENT P50S
003797:


003799:
003800:                                                                                                  #        *-*-*-*- OVERLAY NUMBER 1 IN EBANK 7 -*-*-*-*
003801:
003802:                                                                                                  #  REENTRY ERASABLES                                                     (181D+4D)
003803:
003804: E7,1426  E7,1451               RTINIT             EQUALS   END-SVCR                              #  6P
003805: E7,1426  E7,1457               RTEAST             EQUALS   RTINIT     +6                         #  6P
003806: E7,1426  E7,1465               RTNORM             EQUALS   RTEAST     +6                         #  6P
003807: E7,1426  E7,1473               RT                 EQUALS   RTNORM     +6                         #  6P
003808: E7,1426  E7,1501               UNI                EQUALS   RT         +6                         #  6P
003809: E7,1426  E7,1507               UNITV              EQUALS   UNI        +6                         #  6P
003810: E7,1426  E7,1515               VEL                EQUALS   UNITV      +6                         #  6P
003811:
003812: E7,1426  E7,1523               TIME/RTO           EQUALS   VEL        +6                         #  2P   TIME OF INITIAL TARGET, RTO.
003813: E7,1426  E7,1525               -VREL              EQUALS   TIME/RTO   +2                         #  6P
003814: E7,1426  E7,1533               OLDUYA             EQUALS   -VREL      +6                         #  6P   USED BY CM/POSE    (ENTRY DAP)
003815: E7,1426  E7,1541               UXA/2              EQUALS   OLDUYA     +6                         #  6P   USED BY CM/POSE  (ENTRY DAP)  -UVA
003816: E7,1426  E7,1541               URH                =        UXA/2                                 #            P61 DISPLAY NOUN
003817: E7,1426  E7,1547               UYA/2              EQUALS   UXA/2      +6                         #  6P   USED BY CM/POSE  (ENTRY DAP)   UYA
003818: E7,1426  E7,1555               UZA/2              EQUALS   UYA/2      +6                         #  6P   USED BY CM/POSE  (ENTRY DAP)   UNA
003819: E7,1426  E7,1563               UBX/2              EQUALS   UZA/2      +6                         #  6P   USED BY CM/POSE  (ENTRY DAP)
003820: E7,1426  E7,1571               UBY/2              EQUALS   UBX/2      +6                         #  6P   USED BY CM/POSE  (ENTRY DAP)
003821: E7,1426  E7,1577               UBZ/2              EQUALS   UBY/2      +6                         #  6P   USED BY CM/POSE  (ENTRY DAP)
003822:
003823: E7,1426  E7,1605               DTEAROT            EQUALS   UBZ/2      +6                         #  2P
003824: E7,1426  E7,1607               DIFF               EQUALS   DTEAROT    +2                         #  2P
003825: E7,1426  E7,1611               DIFFOLD            EQUALS   DIFF       +2                         #  2P
003826: E7,1426  E7,1613               FACTOR             EQUALS   DIFFOLD    +2                         #  2P
003827: E7,1426  E7,1615               FACT1              EQUALS   FACTOR     +2                         #  2P
003828: E7,1426  E7,1617               FACT2              EQUALS   FACT1      +2                         #  2P
003829:                                                                                                  # Q7             =       THETADZ         # 2P  SHARED FOR TM.   P64-P66
003830: E7,1426  E7,1621               VSQUARE            EQUALS   FACT2      +2                         #  2P
003831: E7,1426  E7,1623               LAD                EQUALS   VSQUARE    +2                         #  2P
003832: E7,1426  E7,1625               LOD                EQUALS   LAD        +2                         #  2P
003833: E7,1426  E7,1627               L/DCMINR           EQUALS   LOD        +2                         #  2P
003834: E7,1426  E7,1631               KLAT               EQUALS   L/DCMINR   +2                         #  2P
003835: E7,1426  E7,1633               L/D                EQUALS   KLAT       +2                         #  2P
003836: E7,1426  E7,1635               L/D1               EQUALS   L/D        +2                         #  2P
003837: E7,1426  E7,1724               LEWD               =        VIO                                   #  2P   SHARED FOR TM.  P64-P65
003838: E7,1426  E7,1637               D                  EQUALS   L/D1       +2                         #  2P   DSP NOUN 64,66,68 FOR P63,64,67
003839:                                                                                                  # V1             =       ENDBUF +1       # 2P   SHARED FOR TM.  P64-P65
003840: E7,1426  E7,1641               DLEWD              EQUALS   D          +2                         #  2P
003841: E7,1426  E7,1643               K2ROLL             EQUALS   DLEWD      +2                         #  2 P
003842: E7,1426  E7,1645               GOTOADDR           EQUALS   K2ROLL     +2                         #  1P
003843: E7,1426  E7,1646               TEM1B              EQUALS   GOTOADDR   +1                         #  2 P
003844: E7,1426  E7,1650               MM                 EQUALS   TEM1B      +2                         #  2 P
003845: E7,1426  E7,1651               GRAD               EQUALS   MM         +1                         #  1P
003846: E7,1426  E7,1652               FX                 EQUALS   GRAD       +1                         #  1P   OVERWRITES NEXT 5 LOCS IN P67
003847: E7,1426  E7,1653               LEQ                EQUALS   FX         +1                         #  2P
003848: E7,1426  E7,1655               DHOOK              EQUALS   LEQ        +2                         #  2P
003849: E7,1426  E7,1657               AHOOKDV            EQUALS   DHOOK      +2                         #  2P


003851: E7,1426  E7,1661               DVL                EQUALS   AHOOKDV    +2                         #  2P
003852:                                                                                                  # A0             =       ENDBUF +3       # 2P    SHARED FOR TM.(HI-WD ) P64-P65
003853: E7,1426  E7,1663               A1                 EQUALS   DVL        +2                         #  2P
003854: E7,1426  E7,1665               VBARS              EQUALS   A1         +2                         #  2P
003855: E7,1426  E7,1667               COSG/2             EQUALS   VBARS      +2                         #  2P
003856: E7,1426                        GAMMAL1            =        22D                                   #  2P
003857: E7,1426  E7,1671               VS1                EQUALS   COSG/2     +2                         #  2P
003858: E7,1426  E7,1673               V                  EQUALS   VS1        +2                         #  2P
003859:                                                                                                  # VREF           =       THETAD +2       # 2P   SHARED FOR TM    P65
003860: E7,1426  E7,1675               LATANG             EQUALS   V          +2                         #  2P   ADJACENT FOR TM.
003861: E7,1426  E7,1677               RDOT               EQUALS   LATANG     +2                         #  2P   ADJACENT FOR TM.
003862: E7,1426  E7,1701               THETAH             EQUALS   RDOT       +2                         #  2P   DSP NOUN 64,67 FOR P63,64,67
003863:                                                                                                  # RDOTREF        =       THETAD          # 2P   SHARED FOR TM     P65
003864: E7,1426  E7,1703               ALP                EQUALS   THETAH     +2                         #  2P
003865:
003866: E7,1426  E7,1730               ASKEP              =        ASPS                                  #  2P)                 THESE ARE STORED IN
003867: E7,1426  E7,1731               ASP1               =        ASPS       +1                         #  2P)                 SEQUENCE,OVERLAPPING
003868: E7,1426  E7,1732               ASPUP              =        ASPS       +2                         #  2P)>HI-WD OF EACH<  HI-WORD ONLY APPEARING
003869: E7,1426  E7,1733               ASPDWN             =        ASPS       +3                         #  2P)                 ON DOWNLIST, EXCEPT
003870: E7,1426  E7,1734               ASP3               =        ASPS       +4                         #  2P)                 ASP3 IS COMPLETE.
003871:
003872: E7,1426  E7,1705               C/D0               EQUALS   ALP        +2                         #  2P   -1/D0
003873: E7,1426  E7,1707               D0                 EQUALS   C/D0       +2                         #  I(2)    CONSTANT DRAG
003874: E7,1426  E7,1711               Q2                 EQUALS   D0         +2                         #  2P
003875:
003876:                                                                                                  #        ROLLC IS LOCATED IN EBANK= AOG TO AID ENTRY DAP.
003877: E7,1426  E7,1713               RTGO               EQUALS   Q2         +2                         #  2P   DSP NOUN 66 FOR P64,P67.
003878: E7,1426  E7,1715               DNRNGERR           EQUALS   RTGO       +2                         #  2P DSP NOUN 66 FOR P64,67.
003879: E7,1426  E7,1675               XRNGERR            =        LATANG                                #       FOR DISKY DISPLAY
003880: E7,1426  E7,1717               KAT                EQUALS   DNRNGERR   +2                         #  2P
003881: E7,1426  E7,1721               GMAX               EQUALS   KAT        +2                         #  1P  DSP NOUN 60 FOR P61,62,63.
003882:                                                                                                  #  GMAX IS LOADED IN DOUBLE PRECISION
003883: E7,1426  E7,1726               L/DCALC            =        TTE                                   #  2P  CALCULATED L/D FOR TM:  P64 - P67.
003884:
003885:
003886: E7,1426  E7,1756               VL                 =        VPRED                                 #  2P  SHARED FOR TM  P64-P65
003887: E7,1426  E7,1760               GAMMAL             =        GAMMAEI                               #  2P  SHARED FOR TM.  P64
003888: E7,1426  E7,1760               PREDANG            =        GAMMAEI                               #       FOR TM IN P67.
003889: E7,1426  E7,1761               JJ                 =        PREDANG    +1                         #       FOR TM IN P67.
003890:
003891:
003892:                                                                                                  #     ENTRY P11  P15
003893:
003894: E7,1426  E7,1722               VMAGI              EQUALS   GMAX       +1                         #  2P DSP NOUN 62,64,68 FOR P11,63,64.
003895:
003896: E7,1426  E7,1724               VIO                EQUALS   VMAGI      +2                         #  2P  DSP NOUN 63 FOR P61.
003897: E7,1426  E7,1726               TTE                EQUALS   VIO        +2                         #  2P  DSP NOUN 63 FOR P61.
003898:
003899:
003900: E7,1426  E7,1730               ASPS               EQUALS   TTE        +2                         #  I(2)     HI-WORD ONLY ON DNLIST FOR TEMP


003902: E7,1426  E7,1732               TTE1               EQUALS   ASPS       +2                         #  I(2ETMP HOLDS UNDECREMENTED TTE VALUE
003903:
003904:
003905: E7,1426  E7,1734               TTE2               EQUALS   TTE1       +2                         #  I(2) HOLDS COMPENSATED TTE VALUE DURING
003906:                                                                                                  #       P61 THRU P63 FOR  N63 DISPLAY
003907:
003908:                                                                                                  #        **** P6OS ****                                                  (2D)
003909:
003910: E7,1426  E7,1713               RTGON64            EQUALS   RTGO                                  #  RANGE ERRORS NEGATIVE IF FALLS SHORT
003911: E7,1426  E7,1713               RTGON67            EQUALS   RTGO                                  #     DSP NOUN 67
003912:
003913:
003914:
003915:                                                                                                  #        REENTRY, RETURN TO EARTH COMMON DISPLAY.                        (4D)
003916:
003917: E7,1426  E7,1756               VPRED              EQUALS   BETA12     +2                         #  DSP NOUN 60 FOR P61,   ,62,63.
003918: E7,1426  E7,1760               GAMMAEI            EQUALS   VPRED      +2                         #  DSP NOUN 60 FOR P61,   ,62,63.
003919:
003920:
003921:
003922:                                                                                                  #        DISPLAY REGISTER FOR VG                                         (2D)
003923:
003924: E7,1426  E7,1762               VGDISP             EQUALS   GAMMAEI    +2                         #  B(2)DSP N.40,42,99 FOR P30,34,35,37,40,
003925:                                                                                                  #            41 VG DISPLAY
003926:
003927:
003928:                                                                                                  #        SOME P11 DISPLAY REGISTERS.                                     (4D)
003929:
003930: E7,1426  E7,1736               ALTI               EQUALS   TTE2       +2                         #  2P DSP NOUN 62 FOR P11
003931: E7,1426  E7,1740               HDOT               EQUALS   ALTI       +2                         #  2P DSP NOUN 62 FOR P11.
003932:
003933:                                                                                                  #        P15,S11.1 INTERFACE                                             (4D)
003934:
003935: E7,1426  E7,1722               VNOW               =        VMAGI
003936:
003937: E7,1426  E7,1724               VGTLI              EQUALS   VMAGI      +2                         #  I(2)TMP
003938:


003940:
003941:                                                                                                  #        *-*-*-*- OVERLAY 2 IN EBANK 7 -*-*-*-*
003942:
003943:                                                                                                  #        KALCMANU STORAGE.                                               (18D)
003944:
003945: E7,1426  E7,1425               MFS                EQUALS   END-DELV                              #  I(18)
003946: E7,1426  E7,1425               MFI                EQUALS   MFS                                   #  I   TMP
003947: E7,1426  E7,1425               DEL                EQUALS   MFS                                   #  I   TMP
003948: E7,1426  E7,1447               END-KALC           EQUALS   MFS        +18D                       #  **NEXT AVAIL LOC AFTER KALCMANU **
003949:
003950:
003951:                                                                                                  #        MEASUREMENT INCORPORATION STORAGE(R22) STORAGE.                 (56D)
003952:
003953: E7,1426  E7,1447               TX789              EQUALS   END-KALC                              #  I(6)TMP
003954: E7,1426  E7,1455               GAMMA              EQUALS   TX789      +6                         #  I(2)TMP
003955: E7,1426  E7,1457               OMEGA              EQUALS   GAMMA      +2                         #  I(18)TMP
003956: E7,1426  E7,1501               BVECTOR            EQUALS   OMEGA      +18D                       #  I(18)TMP
003957: E7,1426  E7,1523               DELTAQ             EQUALS   BVECTOR    +18D                       #  I(2)TMP
003958: E7,1426  E7,1525               VARIANCE           EQUALS   DELTAQ     +2                         #  I(3)TMP
003959: E7,1426  E7,1530               RCLP               EQUALS   VARIANCE   +3                         #  I(6)TMP
003960: E7,1426  E7,1536               GRP2SVQ            EQUALS   RCLP       +6                         #  I(1)TMP QSAVE FOR RESTARTS
003961:
003962:
003963:                                                                                                  #        P22 TEMP
003964:
003965: E7,1426  E7,1501               S22UMRL            EQUALS   BVECTOR                               #  I(18)
003966:
003967:
003968:                                                                                                  #        P20, P22, P23 DSP NOUN                                          (5D)
003969:
003970: E7,1426  E7,1501               N49DISP            EQUALS   BVECTOR                               #  B(5)TMP
003971:
003972:
003973:                                                                                                  #        S22.1 STORAGE.                                                  (36D)
003974:
003975: E7,1426  E7,1537               SVMRKDAT           EQUALS   GRP2SVQ    +1                         #  I(36)TMP 5 SETS OF MARK DATA +PAD OF ONE
003976:
003977:
003978:                                                                                                  #        **** CISLUNAR NAV. ERAS. (P20S) ****                            (42D)
003979:
003980: E7,1426  E7,1603               UBAR0              EQUALS   SVMRKDAT   +36D
003981: E7,1426  E7,1611               UBAR1              EQUALS   UBAR0      +6
003982: E7,1426  E7,1617               UBAR2              EQUALS   UBAR1      +6
003983: E7,1426  E7,1625               RZC                EQUALS   UBAR2      +6
003984: E7,1426  E7,1633               VZC                EQUALS   RZC        +6
003985: E7,1426  E7,1641               UCLSTAR            EQUALS   VZC        +6
003986: E7,1426  E7,1647               USSTAR             EQUALS   UCLSTAR    +6
003987:


003989:
003990:                                                                                                  #        *-*-*-*- OVERLAY 3 IN EBANK 7 -*-*-*-*
003991:
003992:                                                                                                  #        RENDEZVOUS GUIDANCE STORAGE. - P32...P35 -                      (8D)
003993:
003994: E7,1426  E7,1447               DELTEEO            EQUALS   END-KALC                              #  I(2) S-S BACK VALUES OF DELTA TIME
003995: E7,1426  E7,1451               DELEL              EQUALS   DELTEEO    +2                         #  I(2) S-S
003996: E7,1426  E7,1453               SECMAX             EQUALS   DELEL      +2                         #  I(2) S-S MAX STOP SIZE FOR ROUTINE
003997: E7,1426  E7,1455               XXXALT             EQUALS   SECMAX     +2                         #  I(2)
003998:
003999:
004000:
004001:                                                                                                  #        S40.9 STORAGE.                                                  (16D)
004002:
004003: E7,1426  E7,1457               VG                 EQUALS   XXXALT     +2                         #  I(6)TMP
004004: E7,1426  E7,1465               VRPREV             EQUALS   VG         +6                         #  I(6)
004005: E7,1426  E7,1473               TNIT               EQUALS   VRPREV     +6                         #  I(2)
004006: E7,1426  E7,1475               TNITPREV           EQUALS   TNIT       +2                         #  I(2)
004007:
004008:
004009:                                                                                                  #        P30'S COMMON STORAGE.                                           (24D)
004010:
004011: E7,1426  E7,1537               RACT3              EQUALS   GRP2SVQ    +1                         #  I(6)TMP POSITION OF ACTIE AT TPI TIME.
004012: E7,1426  E7,1545               VACT3              EQUALS   RACT3      +6                         #  I(6)TMP VELOCITY OF ACTIVE AT TPI TIME.
004013: E7,1426  E7,1553               RPASS3             EQUALS   VACT3      +6                         #  I(6)TMP POSITION OF PASSIVE AT TPI TIME.
004014: E7,1426  E7,1561               VPASS3             EQUALS   RPASS3     +6                         #  I(6)TMP VELOCITY OF PASSIVE AT TPI TIME.
004015:
004016:
004017:                                                                                                  #        P76  N84 DISPLAY  -  P32  N82 DISPLAY                           (6D)
004018: E7,1426  E7,1537               DELVOV             EQUALS   RACT3                                 #  I(6)DSP NOUN 84 FOR X-V84, P34-35
004019:
004020:
004021:                                                                                                  #        P76 - P77          STORAGE                                      (1D)
004022:
004023: E7,1426  E7,1545               OPTFLAG            EQUALS   DELVOV     +6                         #  B(1)TMP FLAG FOR P76 OR P77 BRANCHING
004024:                                                                                                  #        INITVEL/MIDGIM STORAGE.                                         (34D)
004025:                                                                                                  #                (CALLED BY S34.1,2, S35.1,2, AND S40.9)
004026:                                                                                                  #                (CALLS LAMBERT, CONIC SUBROUTINES)
004027:
004028: E7,1426  E7,1567               RINIT              EQUALS   VPASS3     +6                         #  I(6)IN  ACTIVE VEHICLE RADIUS VECTOR
004029: E7,1426  E7,1575               VINIT              EQUALS   RINIT      +6                         #  I(6)IN  ACTIVE VEHICLE VELOCITY VECTOR
004030: E7,1426  E7,1603               RTARG1             EQUALS   VINIT      +6                         #  I(6)TMP SHIFTED RTARG
004031: E7,1426  E7,1611               VIPRIME            EQUALS   RTARG1     +6                         #  I(6)OUT   NEW VEL REQ AT INITIAL RADIUS
004032: E7,1426  E7,1617               VTPRIME            EQUALS   VIPRIME    +6                         #  I(6)OUT TOTAL VELOCITY AT DESIRED RADIUS
004033: E7,1426  E7,1625               +MGA               EQUALS   VTPRIME    +6                         #  I(2)DSP NOUN 45 FOR P30,34,35. +MID GIM.
004034: E7,1426  E7,1627               COZY4              EQUALS   +MGA       +2                         #  I(2)TMP COSINE OF ANGLE WHEN ROT STARTS
004035:
004036:                                                                                                  #  (THE FOLLOWING OVERLAYS MEASUREMENT INCORP AND CANNOT SHARE WITH TPI
004037: E7,1426  E7,1502               INTIME             EQUALS   TNITPREV   +5
004038: E7,1426  E7,1504               ITCTR              EQUALS   INTIME     +2                         #  I(1)TMP ITERATION COUNTER


004040: E7,1426  E7,1631               END-IN/M           EQUALS   COZY4      +2                         #  **NEXT AVAIL LOC AFTER INITVEL/MIDGIM**
004041:
004042:
004043:                                                                                                  #        P34 AND P33 STORAGE.    (OVERLAYS INITVEL/MIDGIM)               (24D)
004044:
004045: E7,1426  E7,1567               VAPREC             EQUALS   RINIT                                 #  I(6) S-S PREC VEC FOR NOM TPI TIME (ACT V
004046: E7,1426  E7,1575               RAPREC             EQUALS   VINIT                                 #  I(6) S-S PREC VEC FOR NOM TPI TIME (ACT V
004047: E7,1426  E7,1611               VPPREC             EQUALS   VIPRIME                               #  I(6) S-S PREC VEC FOR NOM TPI TIME (PASS
004048: E7,1426  E7,1617               RPPREC             EQUALS   VTPRIME                               #  I(6) S-S PREC VEC FOR NOM TPI TIME (PASS
004049:
004050:
004051:
004052:                                                                                                  #        P30, P40 INTERFACE.                                             (20D)
004053:
004054: E7,1426  E7,1631               RTIG               EQUALS   END-IN/M                              #  I(6)TMP
004055: E7,1426  E7,1637               VTIG               EQUALS   RTIG       +6                         #  I(6)TMP
004056: E7,1426  E7,1645               DELVSIN            EQUALS   VTIG       +6                         #  I(6)TMP
004057: E7,1426  E7,1645               DELVEET3           EQUALS   DELVSIN                               #       TMP DELTA VEL VECT INERTIAL COORDS.
004058: E7,1426  E7,1645               VGTEMP             EQUALS   DELVEET3
004059: E7,1426  E7,1653               DELVSAB            EQUALS   DELVSIN    +6                         #  I(2)TMP
004060:
004061:
004062:
004063:                                                                                                  #        P35-P40 INTERFACE STORAGE. (OVERLAYS P30-P40 I/F STORAGE)       (6D)
004064:
004065: E7,1426  E7,1637               VPASS4             EQUALS   VTIG                                  #  I(6)TMP VELOCITY OF PASSIVE AT INTERCEPT
004066:                                                                                                  #        P30-P40 COMMON STORAGE.                                         (3D)
004067:
004068: E7,1426  E7,1655               TPASS4             EQUALS   DELVSAB    +2                         #  I(2)TMP
004069: E7,1426  E7,1657               QTEMP              EQUALS   TPASS4     +2                         #  I(1) TMP
004070:
004071:
004072:
004073:                                                                                                  #        P30-P40 STORAGE.                                                (4D)
004074:
004075: E7,1426  E7,1660               TTOGO              EQUALS   QTEMP      +1                         #  B(2)DSP NOUN 35,40,45,59,99
004076:                                                                                                  #          FOR P30,34,35,40,41,47,  R30.
004077: E7,1426  E7,1662               TTPI               EQUALS   TTOGO      +2                         #  B(2)DSP NOUN 37 FOR P34 TPI TIME, CSECS.
004078:
004079: E7,1426  E7,1664               END-P30S           EQUALS   TTPI       +2                         #  **NEXT AVAIL LOC AFTER P30-40 STORAGE.**
004080:
004081:
004082:                                                                                                  #        P40 STORAGE.                                                    (8D)
004083:
004084: E7,1426  E7,1664               VGBODY             EQUALS   END-P30S                              #  B(6)DSP NOUN 85 FOR P40,41,42 VG-SC COOR
004085: E7,1426  E7,1664               DELVCTL            =        VGBODY
004086: E7,1426  E7,1672               P40TMP             EQUALS   VGBODY     +6                         #  B(2)TMP
004087:
004088:
004089:                                                                                                  #        P47 STORAGE.
004090:


004092: E7,1426  E7,1457               DV47TEMP           EQUALS   VG                                    #  B(6)TMP
004093: E7,1426  E7,1674               DELVIMU            EQUALS   P40TMP     +2                         #  I(6)  DSP  NOUN 83 FOR P47 DELTAV(IMU)
004094:
004095:
004096:
004097:                                                                                                  #        S40.1 STORAGE.                                                  (23D)
004098:
004099: E7,1426  E7,1702               CSTEER             EQUALS   DELVIMU    +6                         #  I(2)IN
004100: E7,1426  E7,1704               BDT                EQUALS   CSTEER     +2                         #  I(6)IN
004101: E7,1426  E7,1712               UT                 EQUALS   BDT        +6                         #  I(6)OUT THRUST DIRECTION
004102: E7,1426  E7,1720               VGTIG              EQUALS   UT         +6                         #  I(6)OUT
004103: E7,1426  E7,1720               VGPREV             =        VGTIG
004104: E7,1426  E7,1726               F                  EQUALS   VGTIG      +6                         #  I(2)OUT S40.3 NEEDS THIS
004105:
004106: E7,1426  E7,1730               QTEMP1             EQUALS   F          +2                         #  I(1)TMP HOLDS RETURN
004107:
004108:
004109:                                                                                                  #        P15 TEMPORARY STORAGE                                           (6D)
004110:
004111: E7,1426  E7,1457               AVEGDT             EQUALS   DV47TEMP                              #  B(2)
004112: E7,1426  E7,1461               VPAST              EQUALS   AVEGDT     +2                         #  I(2)
004113: E7,1426  E7,1463               TLITMP             EQUALS   VPAST      +2                         #  B(2)
004114:
004115:
004116:                                                                                                  #        R41                                                             (2D)
004117:
004118: E7,1426  E7,1465               T-TO-ADD           EQUALS   DV47TEMP   +6                         #  I(2) FOR MIDTOAVE
004119:
004120:


004122:
004123:                                                                                                  #        *-*-*-*- OVERLAY 4 IN EBANK 7 -*-*-*-*
004124:
004125:                                                                                                  #        S35.1 STORAGE.                                                  (2D)
004126:
004127: E7,1426  E7,1664               TSTRT              EQUALS   END-P30S                              #  I(2)IN MIDCOURSE START TIME
004128:
004129:
004130:                                                                                                  #        S34.1 STORAGE.          (OVERLAYS S35.1 STORAGE)                (1D)
004131:
004132: E7,1426  E7,1664               TITER              EQUALS   TSTRT                                 #  I(1)TMP ITERATION COUNTER
004133:
004134:
004135:                                                                                                  #        P22 STORAGE.                                                    (5D)
004136: E7,1426  E7,1667               S22TOFF            EQUALS   DELVEET2   +1                         #  2   T SUB OFF
004137:                                                                                                  #  *USED IN SUBROUTINE COMMON TO P22 AND P23.
004138: E7,1426  E7,1671               S22TPRIM           EQUALS   S22TOFF    +2                         #  2      SAVE TF
004139: E7,1426  E7,1673               S22EORM            EQUALS   S22TPRIM   +2                         #  0 = EARTH -- NON-ZERO = MOON
004140:
004141:
004142:
004143:                                                                                                  #        DOWNLINK ERASABLES FOR P22,P20 MARK DATA.                       (8D)
004144:
004145: E7,1426  E7,1674               MARKDOWN           EQUALS   S22EORM    +1                         #  B(7)
004146: E7,1426  E7,1703               RM                 EQUALS   S22RTNEX                              #  DOWNLINK OF VHF RANGE
004147:
004148:
004149:
004150:                                                                                                  #        S22.1                                                           (1D)
004151:
004152: E7,1426  E7,1703               S22RTNEX           EQUALS   MARKDOWN   +7                         #  B(1)
004153:
004154:
004155:
004156:                                                                                                  #        P22 STORAGE                                                     (6D)
004157:
004158: E7,1426  E7,1704               STARSAV3           EQUALS   S22RTNEX   +1                         #  I(6)TMP
004159:
004160:
004161:                                                                                                  #        CRS61.1 STORAGE.        -A SUBSET OF P20-                       (14D)
004162:
004163: E7,1426  E7,1704               Q611               EQUALS   RM         +1                         #  I(1) TMP QSAVE
004164: E7,1426  E7,1705               Q6111              EQUALS   Q611       +1                         #  I(1)TMP QSAVE
004165: E7,1426  E7,1706               SAVEPOS            EQUALS   Q6111      +1                         #  I(6)TMP LEM POSITION VECTOR-
004166: E7,1426  E7,1714               SAVEVEL            EQUALS   SAVEPOS    +6                         #  I(6)TMP LEM VELOCITY VECTOR-
004167:
004168:
004169:                                                                                                  #        MARK STORAGE AND W MATRIX INIT STORAGE (UNSHARED)               (13D)
004170:
004171: E7,1426  E7,1722               MRKBUF1            EQUALS   SAVEVEL    +6                         #  B(7)
004172: E7,1426  E7,1731               CNT3TEMP           EQUALS   MRKBUF1    +7                         #  I(2)


004174: E7,1426  E7,1733               OLDMKTME           EQUALS   CNT3TEMP   +2                         #  I(2)
004175: E7,1426  E7,1735               AGEOFW             EQUALS   OLDMKTME   +2                         #  I(2)
004176:
004177:
004178:
004179:                                                                                                  #        MORE CONICS STORAGE.                                            (4)
004180: E7,1426  E7,1767               COGA               EQUALS   NN         +2                         #  I(2) COTAN OF INITIAL FLT PATH ANGLE
004181: E7,1426  E7,1767               INDEP              EQUALS   COGA                                  #  I(1) USED BY SUBROUTINE'ITERATOR'
004182: E7,1426  E7,1771               EPSILONL           EQUALS   COGA       +2                         #  I(2) TMP
004183:
004184:
004185:                                                                                                  #        UNIVERSAL TRACKING STORAGE                                      (10D)
004186:
004187: E7,1426  E7,1731               PLANVCUT           EQUALS   CNT3TEMP                              #  I(6) PLANET VECTOR UT
004188: E7,1426  E7,1737               UTPIT              EQUALS   PLANVCUT   +6                         #  I(2)  N78 PITCH
004189: E7,1426  E7,1741               UTYAW              EQUALS   UTPIT      +2                         #     I(2)  N78 YAW
004190:
004191:
004192:
004193:                                                                                                  #        RENDEZVOUS GUIDANCE STORAGE.  - P32...P35 -                     (10D)
004194:
004195: E7,1426  E7,1743               ELEV               EQUALS   UTYAW      +2                         #  I(2)TMP
004196: E7,1426  E7,1745               RTX1               EQUALS   ELEV       +2                         #   (1)
004197: E7,1426  E7,1746               RTX2               EQUALS   RTX1       +1                         #   (1)
004198: E7,1426  E7,1747               RTMU               EQUALS   RTX2       +1                         #   (2)
004199: E7,1426  E7,1751               RTSR1/MU           EQUALS   RTMU       +2                         #   (2)
004200: E7,1426  E7,1753               CENTANG            EQUALS   RTSR1/MU   +2                         #  I(2) S-S CENTRAL ANGLE COVERED(TPI-TPF)
004201:
004202:


004204:
004205:                                                                                                  #        *-*-*-*- OVERLAY 5 IN EBANK 7 -*-*-*-*
004206:
004207:                                                                                                  #        P34                                                             (2D)
004208:
004209: E7,1426  E7,1765               NN1                =        NN                                    #  I(2) DSP NOUN 55, R1
004210:
004211:
004212:                                                                                                  #   ************ THE FOLLOWING ARE FOR FLIGHT 504 ONLY ********************
004213:
004214:                                                                                                  #        RETURN-TO-EARTH STORAGE.                                        (93D)
004215:
004216: E7,1426  E7,1631               RTEDVD             EQUALS   END-IN/M                              #  I(2)IN DELTA VELOCITY DESIRED   M/CS B7
004217: E7,1426  E7,1633               RTEGAM2D           EQUALS   RTEDVD     +2                         #  I(2)IN REENTRY ANGLE DESIRED    REVS B0
004218: E7,1426  E7,1635               RCON               EQUALS   RTEGAM2D   +2                         #  I(2)TMP CONIC R2 RADIUS            M B29
004219: E7,1426  E7,1637               R(T1)/             EQUALS   RCON       +2                         #  I(6)TMP POSITION VECTOR AT TIG M B29/B27
004220: E7,1426  E7,1645               R(T1)              EQUALS   R(T1)/     +6                         #  I(2)TMP MAGNITUDE OF R(T1)/    M B29/B27
004221: E7,1426  E7,1647               DT21PR             EQUALS   R(T1)      +2                         #  I(2) TMP PREVIOUS DT21          CS B30
004222: E7,1426  E7,1651               MAMAX1             EQUALS   DT21PR     +2                         #  I(2) TMP MAJ AXIS LOW BOUND LMT    M B30
004223: E7,1426  E7,1653               MAMAX2             EQUALS   MAMAX1     +2                         #  I(2) TMP MAJ AXIS UP BOUND LMT     M B30
004224: E7,1426  E7,1655               R(T2)/             EQUALS   MAMAX2     +2                         #  I(6)TMP FINAL POSITION VECTOR  M B29/B27
004225: E7,1426  E7,1663               RD                 EQUALS   R(T2)/     +6                         #  I(2)TMP FINAL R DESIRED        M B29/B27
004226: E7,1426  E7,1665               DRCON              EQUALS   RD         +2                         #  I(2)TMP RCON SLOPE ITERATOR    M B29/B27
004227: E7,1426  E7,1667               RPRE,              EQUALS   DRCON      +2                         #  I(2)TMP PREVIOUS RPRE          M B29/B27
004228: E7,1426  E7,1671               V(T1)/             EQUALS   RPRE,      +2                         #  I(6)TMP VEL VECTOR AT TIG     M/CS B7/B5
004229: E7,1426  E7,1677               V2(T1)/            EQUALS   V(T1)/     +6                         #  I(6)TMP POST IMP VEL AT TIG   M/CS B7/B5
004230: E7,1426  E7,1705               DV                 EQUALS   V2(T1)/    +6                         #  I(2)TMP DELTA VELOCITY AT TIG M/CS B7/B5
004231: E7,1426  E7,1707               V(T2)/             EQUALS   DV         +2                         #  I(6)TMP FINAL VELOCITY VECTOR M/CS B7/B5
004232: E7,1426  E7,1715               T1                 EQUALS   V(T2)/     +6                         #  I(2)TMP INITIAL VECTOR TIME       CS B28
004233: E7,1426  E7,1717               PCON               EQUALS   T1         +2                         #  I(2)TMP SEMI-LATUS RECTUM         M B29
004234: E7,1426  E7,1721               X(T1)              EQUALS   PCON       +2                         #  I(2)TMP COTANGENT GAMMA1              B5
004235: E7,1426  E7,1723               T12                EQUALS   X(T1)      +2                         #  I(2)TMP INIT TO FINAL POSIT TIME  CS B28
004236: E7,1426  E7,1725               DELTAT             EQUALS   T12        +2                         #  I(2) TMP DELTA T IN SAVE PERILUNE CS B28
004237: E7,1426  E7,1727               NN1A               EQUALS   DELTAT     +2                         #  I(2) TMP ITERATION COUNTER 1
004238:
004239:
004240:
004241: E7,1426  E7,1545               NN2                EQUALS   DELVOV     +6                         #  I(2) TMP ITERATION COUNTER
004242: E7,1426  E7,1547               RTENCKEX           EQUALS   NN2        +2                         #  I(1)TMP RTENCK RETURN ADDRESS
004243: E7,1426  E7,1550               CONICX1            EQUALS   RTENCKEX   +1                         #  I(1) TMP CONICS MU TABLE INDEX
004244: E7,1426  E7,1551               T2                 EQUALS   CONICX1    +1                         #  I(2)TMP FINAL TIME                CS B28
004245: E7,1426  E7,1553               UR1/               EQUALS   T2         +2                         #  I(6)TMP UNIT R(T1)/                   B1
004246: E7,1426  E7,1561               UV1/               EQUALS   UR1/       +6                         #  I(6)TMP UNIT V(T1)/                   B1
004247:
004248:
004249: E7,1426  E7,1743               BETA1              EQUALS   UTYAW      +2                         #  I(2) TEMP 1+X(T2)**2                  B1
004250: E7,1426  E7,1745               P(T1)              EQUALS   BETA1      +2                         #  I(1)TMP PRIMARY BODY STATE TIME 1    B14
004251: E7,1426  E7,1746               CFPA               EQUALS   P(T1)      +1                         #  I(2) TMP COSINE FLIGHT PATH ANGLE   B1
004252: E7,1426  E7,1750               PHI2               EQUALS   CFPA       +2                         #  I(2) TMP PERI OR APO INDICATOR       B2
004253: E7,1426  E7,1752               SPRTEX             EQUALS   PHI2       +2                         #  I(1)TMP ROUTINE RETURN ADDRESS


004255: E7,1426  E7,1753               VNSTORE            EQUALS   SPRTEX     +1                         #  I(1)TMP VERBNOUN STORAGE
004256: E7,1426  E7,1754               BETA12             EQUALS   VNSTORE    +1                         #  I(2)TMP SIGN FOR TIMERAD
004257:                                                                                                  #                OVERLAYS WITHIN RETURN-TO-EARTH STORAGE.
004258:
004259:                                                                                                  #        TEMPS WITHIN VAC
004260:
004261: E7,1426                        RPRE               EQUALS   24D                                   #  I(2)TMP COMPUTED PREC RADIUS   M B29/B27
004262: E7,1426                        P/RPRE             EQUALS   26D                                   #  I(2)TMP P/R                           B4
004263: E7,1426                        R/APRE             EQUALS   28D                                   #  I(2)TMP R/A                           B6
004264:
004265: E7,1426  E7,1723               X(T2)PRE           EQUALS   T12                                   #  I(2)TMP PREC COTAN GAMMA2             B0
004266: E7,1426  E7,1725               X(T2)              EQUALS   DELTAT                                #  I(2)TMP COTAN GAMMA2                  B0
004267: E7,1426  E7,1561               UH/                EQUALS   UV1/                                  #  I(2)TMP UNIT HORIZONTAL VECTOR.       B1
004268: E7,1426  E7,1412               SPRTETIG           EQUALS   TIG                                   #  I(2)IN  TIME OF IGNITION          CS B28
004269:
004270:


004272:
004273:                                                                                                  #        *-*-*-*- OVERLAY 6 IN EBANK 7 -*-*-*-*
004274:
004275:                                                                                                  #        P32,P33
004276:
004277:
004278:                                                                                                  #           THE FOLLOWING OVERLAY MEAS. INCORP. AND ARE IN USE ONLY WHEN (32D)
004279:
004280: E7,1426  E7,1457               POSTCSI            EQUALS   VG                                    #  I(2)
004281: E7,1426  E7,1461               DELVCSI            EQUALS   POSTCSI    +2                         #  I(2)
004282: E7,1426  E7,1463               DELDV              EQUALS   DELVCSI    +2                         #  I(2)
004283: E7,1426  E7,1465               GAMPREV            EQUALS   DELDV      +2                         #  I(2)
004284: E7,1426  E7,1467               DVPREV             EQUALS   GAMPREV    +2                         #  I(2)
004285: E7,1426  E7,1471               POSTCDH            EQUALS   DVPREV     +2                         #  I(2)
004286: E7,1426  E7,1471               HAFPA1             EQUALS   POSTCDH
004287: E7,1426  E7,1473               VACT4              EQUALS   POSTCDH    +2                         #  I(6)
004288: E7,1426  E7,1501               RDOTV              EQUALS   VACT4      +6                         #  I(2)
004289: E7,1426  E7,1503               VACT1              EQUALS   RDOTV      +2                         #  I(6)
004290: E7,1426  E7,1511               VPASS1             EQUALS   VACT1      +6                         #  I(6) VEL. PASSIVE VEH, AT CSI TIME
004291:
004292:
004293: E7,1426  E7,1545               UNVEC              EQUALS   VACT3                                 #  I(6)
004294: E7,1426  E7,1655               T2TOT3             EQUALS   TPASS4                                #  I(2) TPI - TCDH
004295:
004296: E7,1426  E7,1664               CSIALRM            EQUALS   TITER                                 #  I(2) ALARM INDEX
004297:
004298: E7,1426  E7,1666               DELVEET2           EQUALS   CSIALRM    +2                         #  I(6) VACT3-VACT2 = DVCDH REF.COORD.
004299:                                                                                                  #        P21 STORAGE                                                     (2D)
004300:
004301: E7,1426  E7,1537               P21TIME            EQUALS   RACT3                                 #  I(2)
004302:
004303:
004304:                                                                                                  #        ADDITIONAL CSI - CDH STORAGE.                                   (10D)
004305:
004306: E7,1426  E7,1755               RPASS1             EQUALS   CENTANG    +2                         #  I(6) POS. PASSIVE VEH. AT CSI TIME.
004307: E7,1426  E7,1763               LOOPCT             EQUALS   RPASS1     +6                         #  I(2) ITERATION COUNTER
004308: E7,1426  E7,1765               NN                 EQUALS   LOOPCT     +2                         #  I(2)
004309:
004310:                                                                                                  #        P21 STORAGE                                                     (19D)
004311:
004312: E7,1426  E7,1603               P21ORIG            EQUALS   UBAR0                                 #  I(1)
004313: E7,1426  E7,1604               P21BASER           EQUALS   P21ORIG    +1                         #  I(6)
004314: E7,1426  E7,1612               P21BASEV           EQUALS   P21BASER   +6                         #  I(6)
004315: E7,1426  E7,1620               P21ALT             EQUALS   P21BASEV   +6                         #  I(2) NOUN 73 R1 ALTITUDE
004316: E7,1426  E7,1622               P21VEL             EQUALS   P21ALT     +2                         #  I(2) NOUN 73 R2 VELOCITY
004317: E7,1426  E7,1624               P21GAM             EQUALS   P21VEL     +2                         #  I(2) NOUN 73 R3 FLIGHT PATH ANGLE
004318:
004319:
004320:
004321:                                                                                                  #        P29 ERASABLES                                                   (32D)
004322:


004324: E7,1426  E7,1541               PASSTIME           EQUALS   P21TIME    +2                         #  B(2)TMP
004325: E7,1426  E7,1543               LONGFOR            EQUALS   PASSTIME   +2                         #  B(2)TMP
004326: E7,1426  E7,1545               DELTLONG           EQUALS   LONGFOR    +2                         #  I(2)TMP
004327: E7,1426  E7,1547               FUDGE              EQUALS   DELTLONG   +2                         #  I(2)TMP
004328: E7,1426  E7,1551               MUSUBE             EQUALS   FUDGE      +2                         #  I(6)TMP
004329: E7,1426  E7,1557               MUSUBC             EQUALS   MUSUBE     +6                         #  I(6)TMP
004330: E7,1426  E7,1565               MUSUBS             EQUALS   MUSUBC     +6                         #  I(6)TMP
004331: E7,1426  E7,1573               MUSUBN             EQUALS   MUSUBS     +6                         #  I(6)TMP
004332:
004333: E7,1426  E7,1537               P29BASET           =        P21TIME
004334: E7,1426  E7,1604               P29BASER           =        P21BASER
004335: E7,1426  E7,1612               P29BASEV           =        P21BASEV
004336:
004337:                                                                                                  #  P22-P23 STORAGE.                                                      (9D)
004338:
004339: E7,1426  E7,1743               22SUBSCL           EQUALS   ELEV                                  #  B(1) DE OF ABCDE LANDMARK ID NO
004340: E7,1426  E7,1744               CXOFF              EQUALS   22SUBSCL   +1                         #  B OF ABCDE OFFSET INDICATOR.
004341: E7,1426  E7,1745               8KK                EQUALS   CXOFF      +1                         #  B (2)  TMP   INDEX OF PRESENT MARK.
004342: E7,1426  E7,1747               8NN                EQUALS   8KK        +2                         #  B(1) TMP NO OF MARKS TAKEN IN SXTMARK
004343: E7,1426  E7,1750               S22LOC             EQUALS   8NN        +1                         #  I(1)TMP MAKR DATA LOC
004344: E7,1426  E7,1751               LANDMARK           EQUALS   S22LOC     +1                         #  B(1)DSP NOUN 70 FOR P22,51,R52,53.
004345: E7,1426  E7,1752               HORIZON            EQUALS   LANDMARK   +1                         #  B(1)DSP NOUN 70 FOR P22,51,R52,53.
004346: E7,1426  E7,1753               P22DEX             EQUALS   HORIZON    +1                         #  B(1) INDEX FOR SXTMARK IN P22
004347:                                                                                                  #        P23 TRUNION BOAS STORAGE.
004348:
004349:                                                                                                  #  9(1D)
004350: E7,1426  E7,1754               TRUNION            EQUALS   P22DEX     +1                         #  B(1)
004351: E7,1426                        WHOCARES           =        3777                                  #  A DUMMY FOR E-BANK INSENSITIVE 2CADRS.
004352:
004353: E7,1426  0003777               END-E7             =        WHOCARES                              #  TAG NEEDED FOR EDITS

End of include-file ERASABLE_ASSIGNMENTS.agc.  Parent file is MAIN.agc


