
Source Code


000002:                                                                                                  ## Copyright:   Public domain.
000003:                                                                                                  ## Filename:    EXTENDED_VERBS.agc
000004:                                                                                                  ## Purpose:     Part of the source code for Artemis (i.e., Colossus 3),
000005:                                                                                                  ##              build 072.  This is for the Command Module's (CM)
000006:                                                                                                  ##              Apollo Guidance Computer (AGC), for
000007:                                                                                                  ##              Apollo 15-17.
000008:                                                                                                  ## Assembler:   yaYUL
000009:                                                                                                  ## Contact:     Jim Lawton <jim DOT lawton AT gmail DOT com>
000010:                                                                                                  ## Website:     www.ibiblio.org/apollo/index.html
000011:                                                                                                  ## Page Scans:  www.ibiblio.org/apollo/ScansForConversion/Artemis072/
000012:                                                                                                  ## Mod history: 2009-08-04 JL   Adapted from corresponding Comanche 055 file.
000013:                                                                                                  ##              2010-01-31 JL   Fixed build errors.
000014:                                                                                                  ##              2010-02-13 JL   Fixed errors on p260, p261.
000015:                                                                                                  ##              2010-02-16 JL   Added some SBANK= directives on pages 258, 262, 271, 274 to fix rope image errors.
000016:                                                                                                  ##              2010-02-20 RSB  Un-##'d this header.
000017:                                                                                                  ##              2010-12-29 JL   Fixed indentation.
000018:                                                                                                  ##              2011-05-07 JL   Flagged SBANK= workarounds for future removal.
000019:                                                                                                  ##              2011-05-17 JL   Removed all SBANK= workarounds.
000020:                                                                                                  ##              2017-01-22 RSB  Proofed comment text by diff'ing vs Comanche 55
000021:                                                                                                  ##                              and corrected errors found.
000022:


000024:
000025: 43,2000                                           SETLOC   EXTVERBS
000026: 43,2000                                           BANK
000027:
000028: 43,2000  E5,1757                                  EBANK=   OGC
000029:
000030: 43,2000                                           COUNT*   $$/EXTVB
000031:
000032:                                                                                                  #  FAN-OUT
000033:
000034: 43,2000           50154        GOEXTVB            INDEX    MPAC                                  #  VERB-40 IS IN MPAC
000035: 43,2001           02002                           TC       LST2FAN                               #  FAN AS BEFORE.
000036:
000037: 43,2002           02121        LST2FAN            TC       VBZERO                                #  VB40 ZERO (USED WITH NOUN 20 ONLY).
000038: 43,2003           02133                           TC       VBCOARK                               #  VB41 COARSE ALIGN (USED WITH NOUN 20 OR
000039:                                                                                                  #                                91 ONLY)
000040: 43,2004           02227                           TC       IMUFINEK                              #  VB42 FINE ALIGN IMU
000041: 43,2005           02364                           TC       IMUATTCK                              #  VB43 LOAD IMU ATTITUDE ERROR METERS.
000042: 43,2006           03064                           TC       SETSURF                               #  VB44 SET SURFACE FLAG
000043: 43,2007           03062                           TC       RESTSRF                               #  VB45 RESET SURFACE FLAG
000044: 43,2010           02451                           TC       STABLISH                              #  VB46 ESTABLISH G+C CONTROL.
000045: 43,2011           03001                           TC       LMTOCMSV                              #  VB47 MOVE LM STATE VECTOR INTO CM
000046: 43,2012           02544                           TC       DAPDISP                               #  VB48 LOAD A/P DATA.
000047: 43,2013           12535                           TCF      CREWMANU                              #  VB 49 START AUTOMATIC ATTITUDE MANEUVER
000048: 43,2014           02265                           TC       GOLOADLV                              #  VB50 PLEASE PERFORM
000049: 43,2015           02265                           TC       GOLOADLV                              #  VB51 PLEASE MARK
000050: 43,2016           03037                           TC       V52                                   #  VB52 SET OFFSET NO. FOR P22
000051: 43,2017           02265                           TC       GOLOADLV                              #  VB53 PLEASE PERFORM COAS MARK
000052: 43,2020           02600                           TC       GOTOR23                               #  V54 START R23 (R21-BACKUP)
000053: 43,2021           02312                           TC       ALINTIME                              #  VB55 ALIGN TIME
000054: 43,2022           02641                           TC       TRACKTRM                              #  VB56 TERMINATE TRACKING (P20 +P25)
000055: 43,2023           03102                           TC       V57CALL                               #  V57  FULTKFLG SETTING OPTION
000056: 43,2024           02445                           TC       ENATMA                                #  VB58 ENABLE AUTOMATIC ATTITUDE MANEUVER
000057: 43,2025           02265                           TC       GOLOADLV                              #  VB59 PLEASE CALIBRATE
000058: 43,2026           02273                           TC       V60                                   #  VB60 SET CPHIX (N17) EQUAL TO CDU
000059: 43,2027           02301                           TC       V61                                   #  VB61 SELECT MODE I
000060: 43,2030           02304                           TC       V62                                   #  VB62 SELECT MODE II, ERROR WRT N22
000061: 43,2031           02307                           TC       V63                                   #  VB63 SELECT MODE III, ERROR WRT N17
000062: 43,2032           02437                           TC       VB64                                  #  VB64 CALCULATE,DISPLAY S-BAND ANT ANGLES
000063: 43,2033           02342                           TC       CKOPTVB                               #  V 65 E OPTICAL VERIFICATION FOR PRELAUNC
000064: 43,2034           02774                           TC       ATTACHED                              #  VB 66 ATTACHED. MOVE THIS TO OTHER STATE
000065: 43,2035           03054                           TC       V67                                   #  VB67 WMATRIX MONITOR
000066: 43,2036           02116                           TC       ALM/END                               #  VB68 SPARE
000067: 43,2037           02037        VERB69             TC       VERB69                                #  VB 69 CAUSE RESTART
000068: 43,2040           03656                           TC       V70UPDAT                              #  VB70 UPDATE LIFTOFF TIME.
000069: 43,2041           03660                           TC       V71UPDAT                              #  VB71 UNIVERSAL UPDATE - BLOCK ADDRESS.
000070: 43,2042           03662                           TC       V72UPDAT                              #  VB72 UNIVERSAL UPDATE - SINGLE ADDRESS.
000071: 43,2043           03664                           TC       V73UPDAT                              #  VB73 UPDATE AGC TIME (OCTAL).
000072: 43,2044           02706                           TC       DNEDUMP                               #  VB74 INITIALIZE DOWN-TELEMETRY PROGRAM
000073:                                                                                                  #        FOR ERASABLE DUMP.
000074: 43,2045           02713                           TC       LFTFLGON                              #  VB75 SET LIFTOFF FLAG.
000075: 43,2046           02116                           TC       ALM/END                               #  VB76 SPARE


000077: 43,2047           02116                           TC       ALM/END                               #  VB77 SPARE
000078: 43,2050           02352                           TC       CHAZFOGC                              #  CHANGE GYROCOMPASS LAUNCH AZIMUTH V78
000079: 43,2051           02116                           TC       ALM/END                               #  VB79 SPARE
000080: 43,2052           02703                           TC       LEMVEC                                #  VB80 UPDATE LEM STATE VECTOR
000081: 43,2053           02705                           TC       CSMVEC                                #  VB81 UPDATE CSM STATE VECTOR
000082: 43,2054           02557                           TC       V82PERF                               #  VB82 REQUEST ORBIT PARAM DISPLAY (R30)
000083: 43,2055           02564                           TC       V83PERF                               #  VB83 RANGE, RANGE RATE, +X AXIS  (R31)
000084: 43,2056           02116                           TC       ALM/END                               #  V84 SPARE
000085: 43,2057           02574                           TC       V85PERF                               #  VB85 RANGE, RANGE RATE, SLOS     (R34)
000086: 43,2060           02621                           TC       V86PERF                               #  VB86 BACKUP MARK REJECT
000087: 43,2061           02773                           TC       SETVHFLG                              #  VB87 SET VHF RANGE FLAG
000088: 43,2062           02770                           TC       RESETVHF                              #  VB88 RESET VHF RANGE FLAG
000089: 43,2063           02722                           TC       V89PERF                               #  V89-ALIGN X OR PRF CSM AXIS TO LOS (R63)
000090: 43,2064           03022                           TC       V90PERF                               #  VB90-OUT OF PLANE PARAMETERS     %R36"
000091: 43,2065           02735                           TC       GOSHOSUM                              #  VB91 TEMP FOR HYBRID AND STG.
000092: 43,2066           02116                           TC       ALM/END                               #  VB92 SPARE
000093: 43,2067           02731                           TC       WMATRXNG                              #  VB93 CLEAR RENDWFLG
000094: 43,2070           03006                           TC       VERB94                                #  VB94 DO R64
000095: 43,2071           02116                           TC       ALM/END                               #  VB95 SPARE
000096: 43,2072           13030                           TCF      VERB96                                #  VB96 SET QUITFLAG TO STOP INTEGRATION
000097: 43,2073           02265                           TC       GOLOADLV                              #  V97 PLEASE PERFORM ENGINE-FAIL (R41)
000098: 43,2074           02116                           TC       ALM/END                               #  VB98 SPARE
000099: 43,2075           02265                           TC       GOLOADLV                              #  VB99 PLEASE ENABLE ENGINE
000100:
000101:                                                                                                  #  END OF EXTENDED VERB FAN
000102:
000103: 43,2076           11247        TESTXACT           CCS      EXTVBACT
000104: 43,2077           02116                           TC       ALM/END                               #  YES. TURN ON OPERATOR ERROR LIGHT
000105: 43,2100           30100                           CA       FLAGWRD4                              #  ARE PRIOS USING DSKY
000106: 43,2101           77646                           MASK     14,12,7
000107: 43,2102           10000                           CCS      A
000108: 43,2103           02116                           TC       ALM/END
000109:
000110: 43,2104           34124                           CAF      OCT24                                 #  SET BITS 3 AND 5
000111: 43,2105           55247        SETXTACT           TS       EXTVBACT                              #  NO. SET FLAG TO SHOW EXT VERB DISPLAY
000112:                                                                                                  #  SYSTEM BUSY
000113:
000114: 43,2106           30002                           CA       Q
000115: 43,2107           54155                           TS       MPAC       +1
000116:
000117: 43,2110           44767                           CS       TWO                                   #  BLANK EVERYTHING EXCEPT MM AND VERB
000118: 43,2111           04202                           TC       NVSUB
000119: 43,2112           02113                           TC       +1
000120: 43,2113           10067                           CCS      NEWJOB                                #  ALLOW POSSIBLE WAITING DISPLAY (FROM
000121: 43,2114           05152                           TC       CHANG1                                #     RELDSP) TO COME UP.
000122:
000123: 43,2115           00155                           TC       MPAC       +1
000124:
000125: 43,2116     5524               TERMEXTV           EQUALS   ENDEXT
000126:


000128:
000129: 43,2116     5524               ENDEXTVB           EQUALS   ENDEXT
000130:
000131: 43,2116           04362        ALM/END            TC       FALTON                                #  TURN ON OPERATOR ERROR LIGHT
000132: 43,2117           04655        GOPIN              TC       POSTJUMP
000133: 43,2120           21275                           CADR     PINBRNCH
000134:


000136:
000137:                                                                                                  #  VBZERO        VERB 40         DESCRIPTION
000138: 43,2121           31335        VBZERO             CA       MODECADR                              #  KEYBOARD REQUEST FOR ISS CDU ZERO
000139: 43,2122           00006                           EXTEND
000140: 43,2123           12125                           BZF      +2
000141: 43,2124           02116                           TC       ALM/END
000142: 43,2125           04636                           TC       BANKCALL
000143: 43,2126           16627                           CADR     IMUZERO
000144:
000145: 43,2127           04636                           TC       BANKCALL                              #  STALL
000146: 43,2130           17644                           CADR     IMUSTALL
000147: 43,2131           02132                           TC       +1
000148:
000149: 43,2132           02117                           TC       GOPIN
000150:


000152:
000153:                                                                                                  #  VBCOARK       VERB 41         DESCRIPTION
000154:                                                                                                  #        COURSE ALIGN IMU OR OPTICS
000155:
000156:                                                                                                  #        1. REQUIRE NOUN 20 OR NOUN 91 OR TURN ON OPERATOR ERROR
000157:                                                                                                  #        2. REQUIRE EXT VERB DISPLAY SYS AVAILABLE OR TURN ON OPERATOR ERROR LIGHT AND GO TO PINBRNCH.
000158:                                                                                                  #        CASE 1  NOUN 20 (ICDU ANGLES)
000159:                                                                                                  #        3. SET EXT VERB DISPLAY ACTIVE FLAG.
000160:                                                                                                  #        4. DISPLAY FLASHING V25,N22 (LOAD NEW ICDU ANGLES).
000161:                                                                                                  #           RESPONSES
000162:                                                                                                  #                A. TERMINATE
000163:                                                                                                  #                        1. RELEASE EXT VERB DISPLAY SYSTEM
000164:                                                                                                  #                B. PROCEED
000165:                                                                                                  #                        1. DISPLAY FLASHING V25,N23 (LOAD DELTA ICDU ANGLES).
000166:                                                                                                  #                                RESPONSES
000167:                                                                                                  #                                A. TERMINATE
000168:                                                                                                  #                                        1. RELEASE EXT VERB DISPLAY SYSTEM.
000169:                                                                                                  #                                B. PROCEED
000170:                                                                                                  #                                        1. EXECUTE ICORK2.
000171:                                                                                                  #                                C. ENTER
000172:                                                                                                  #                                        1. INCREMENT CDU ANGLES
000173:                                                                                                  #                                        2. EXECUTE ICORK2.
000174:                                                                                                  #                C. ENTER
000175:                                                                                                  #                        1. EXECUTE ICORK2.
000176:                                                                                                  #        ICORK2
000177:                                                                                                  #                1. RE-DISPLAY VERB 41.
000178:                                                                                                  #                2. EXECUTE IMUCOARS (IMU COARSE ALIGN).
000179:                                                                                                  #                3. EXECUTE IMUSTALL (ALLOW TIME FOR DATA TRANSFER).
000180:                                                                                                  #                4. RELEASE EXT VERB DISPLAY SYSTEM.
000181:                                                                                                  #        CASE 2  NOUN 91 (OCDU ANGLES)
000182:                                                                                                  #        5. (REQUIRE OPTICS SWITCH TO BE AT COMPUTER OR TURN ON OPERATOR ERROR AND ALARM 115) AND (REQUIRE
000183:                                                                                                  #           OPTICS AVAILABLE AND DISPLAY FLASHING V24,N92....LOAD NEW OPTICS ANGLES....OR TURN ON ALARM 117
000184:                                                                                                  #           AND RELEASE EXT VERB DISPLAY SYSTEM).
000185:                                                                                                  #        6. RESPONSES TO V29,N92.
000186:                                                                                                  #                A. TERMINATE
000187:                                                                                                  #                        RELEASE EXT VERB DISPLAY SYSTEM
000188:                                                                                                  #                B. PROCEED OR ENTER
000189:                                                                                                  #                        RE-DISPLAY V41, SET SWITCH TO INDICATE COURSE ALIGN OPTICS WORKING.
000190:                                                                                                  #                        RELEASE EXT VERB DISPLAY SYSTEM.
000191:
000192: 43,2133           44124        VBCOARK            CS       OCT24
000193: 43,2134           61205                           AD       NOUNREG
000194: 43,2135           00006                           EXTEND
000195: 43,2136           12143                           BZF      IMUCOARK                              #  NOUN 20
000196:
000197: 43,2137           62165                           AD       OPIMDIFF                              #  -71
000198: 43,2140           00006                           EXTEND
000199: 43,2141           12166                           BZF      OPTCOARK                              #  NOUN 91
000200:
000201: 43,2142           02116                           TC       ALM/END                               #  WRONG NOUN
000202:
000203: 43,2143           02076        IMUCOARK           TC       TESTXACT                              #  COARSE ALIGN FROM KEYBOARD


000205: 43,2144           32163                           CAF      VNLODCDU                              #  CALL FOR THETAD LOAD
000206: 43,2145           04636                           TC       BANKCALL
000207: 43,2146           20576                           CADR     GOXDSPF
000208: 43,2147           05524                           TC       TERMEXTV
000209: 43,2150           12151                           TCF      +1
000210:
000211: 43,2151           32164        ICORK2             CAF      IMUCOARV                              #  RE-DISPLAY COARSE ALIGN VERB.
000212: 43,2152           04636                           TC       BANKCALL
000213: 43,2153           21064                           CADR     EXDSPRET
000214:
000215: 43,2154           02260                           TC       CKMODCAD
000216: 43,2155           04636                           TC       BANKCALL                              #  CALL MODE SWITCHING PROG
000217: 43,2156           16724                           CADR     IMUCOARS
000218:
000219: 43,2157           04636                           TC       BANKCALL                              #  STALL
000220: 43,2160           17644                           CADR     IMUSTALL
000221: 43,2161           05524                           TC       ENDEXTVB
000222: 43,2162           05524                           TC       ENDEXTVB
000223:
000224: 43,2163           06226        VNLODCDU           VN       2522
000225: 43,2164           12200        IMUCOARV           VN       4100
000226: 43,2165           77670        OPIMDIFF           DEC      -71        B-14
000227:


000229:
000230:                                                                                                  #  TEMPORARY ROUTINE TO RUN THE OPTICS CDUS FROM THE KEYBOARD
000231:
000232: 43,2166           02714        OPTCOARK           TC       CHKPOOH                               #  ENSURE IN POO
000233: 43,2167           02076                           TC       TESTXACT
000234: 43,2170           35043                           CAF      EBANK5
000235: 43,2171           54003                           TS       EBANK
000236:
000237: 43,2172           11354                           CCS      SWSAMPLE                              #  SEE IF SWITCH AT COMPUTER
000238: 43,2173           02200                           TC       +5                                    #  SWITCH AT COMPUTER
000239: 43,2174           02175                           TC       +1                                    #  NOT ON COMPUTER
000240: 43,2175           04362                           TC       FALTON                                #  TURN ON OPERATOR ERR
000241: 43,2176           05671                           TC       ALARM                                 #  AND ALARM
000242: 43,2177           00115                           OCT      00115
000243:
000244: 43,2200           11323                           CCS      OPTIND                                #  SEE IF OPTICS AVAILABLE
000245: 43,2201           02207                           TC       OPTC1                                 #  IN USE
000246: 43,2202           02207                           TC       OPTC1                                 #  IN USE
000247: 43,2203           02207                           TC       OPTC1                                 #  IN USE
000248:
000249: 43,2204           05671                           TC       ALARM                                 #  OPTICS RESERVED (OPTIND=-0)
000250: 43,2205           00117                           OCT      00117
000251: 43,2206           05524                           TC       ENDEXT
000252:
000253: 43,2207           32226        OPTC1              CAF      VNLDOCDU                              #  VERB-NOUN TO LOAD OPTICS CDUS
000254: 43,2210           04636                           TC       BANKCALL
000255: 43,2211           20576                           CADR     GOXDSPF
000256: 43,2212           05524                           TC       TERMEXTV
000257: 43,2213           02214                           TC       +1                                    #  PROCEED
000258:
000259: 43,2214           31773                           CA       SAC
000260: 43,2215           55313                           TS       DESOPTS
000261: 43,2216           31775                           CA       PAC
000262: 43,2217           55312                           TS       DESOPTT
000263: 43,2220           32164                           CAF      OPTCOARV                              #  RE-DISPLAY OUR OWN VERB
000264: 43,2221           04636                           TC       BANKCALL
000265: 43,2222           21064                           CADR     EXDSPRET
000266:
000267: 43,2223           34770                           CAF      ONE
000268: 43,2224           55323                           TS       OPTIND                                #  SET COARS WORKING
000269:
000270: 43,2225           05524                           TC       ENDEXTVB
000271:
000272: 43,2226           06134        VNLDOCDU           VN       2492
000273: 43,2227  43,2164               OPTCOARV           EQUALS   IMUCOARV                              #  DIFFERENT NOUNS.
000274:


000276:
000277:                                                                                                  #  IMUFINEK      VERB 42         DESCRIPTION
000278:                                                                                                  #        FINE ALIGN IMU
000279:
000280:                                                                                                  #        1. REQUIRE EXT VERB DISPLAY AVAILABLE AND SET BUSY FLAG OR TURN ON OPER ERROR AND GO TO PINBRNCH.
000281:                                                                                                  #        2. DISPLAY FLASHING V25,N93....LOAD DELTA GYRO ANGLES....
000282:                                                                                                  #                RESPONSES
000283:                                                                                                  #                A. TERMINATE
000284:                                                                                                  #                        1. RELEASE EXT VERB DISPLAY SYSTEM.
000285:                                                                                                  #                B. PROCEED OR ENTER
000286:                                                                                                  #                        1. RE-DISPLAY VERB 42
000287:                                                                                                  #                        2. EXECUTE IMUFINE (IMU FIVE ALIGN MODE SWITCHING).
000288:                                                                                                  #                        3. EXECUTE IMUSTALL (ALLOW FOR DATA TRANSFER)
000289:                                                                                                  #                                A. FAILED
000290:                                                                                                  #                                        1. RELEASE EXT VERB DISPLAY SYSTEM.
000291:                                                                                                  #                                B. GOOD
000292:                                                                                                  #                                        1. EXECUTE IMUPULSE (TORQUE IRIGS).
000293:                                                                                                  #                                        2. EXECUTE IMUSTALL AND RELEASE EXT VERB DISPLAY SYSTEM.
000294:
000295: 43,2227           02076        IMUFINEK           TC       TESTXACT                              #  FINE ALIGN WITH GYRO TORQUING
000296: 43,2230           32256                           CAF      VNLODGYR                              #  CALL FOR LOAD OF GYRO COMMANDS
000297: 43,2231           04636                           TC       BANKCALL
000298: 43,2232           20576                           CADR     GOXDSPF
000299: 43,2233           05524                           TC       TERMEXTV
000300: 43,2234           02235                           TC       +1                                    #  PROCEED WITHOUT A LOAD
000301:
000302: 43,2235           32257                           CAF      IMUFINEV                              #  RE-DISPLAY OUR OWN VERB
000303: 43,2236           04636                           TC       BANKCALL
000304: 43,2237           21064                           CADR     EXDSPRET
000305:
000306: 43,2240           02260                           TC       CKMODCAD
000307: 43,2241           04636                           TC       BANKCALL                              #  CALL MODE SWITCH PROG
000308: 43,2242           17133                           CADR     IMUFINE
000309:
000310: 43,2243           04636                           TC       BANKCALL                              #  HIBERNATION
000311: 43,2244           17644                           CADR     IMUSTALL
000312: 43,2245           05524                           TC       ENDEXTVB
000313:
000314: 43,2246           32255        FINEK2             CAF      LGYROBIN                              #  PINBALL LEFT COMMANDS IN OGC REGISTERS
000315: 43,2247           04636                           TC       BANKCALL
000316: 43,2250           17244                           CADR     IMUPULSE
000317:
000318: 43,2251           04636                           TC       BANKCALL                              #  WAIT FOR PULSES TO GET OUT.
000319: 43,2252           17644                           CADR     IMUSTALL
000320: 43,2253           05524                           TC       ENDEXTVB
000321: 43,2254           05524                           TC       ENDEXTVB
000322:
000323: 43,2255           02757        LGYROBIN           ECADR    OGC
000324: 43,2256           06335        VNLODGYR           VN       2593
000325: 43,2257           12400        IMUFINEV           VN       4200                                  #  FINE ALIGN VERB
000326:
000327: 43,2260           31335        CKMODCAD           CA       MODECADR


000329: 43,2261           00006                           EXTEND
000330: 43,2262           16711                           BZF      TCQ
000331: 43,2263           04362                           TC       FALTON
000332: 43,2264           05524                           TC       ENDEXTVB
000333:
000334:                                                                                                  #  GOLOADLV      VERB 50         DESCRIPTION
000335:                                                                                                  #                AND OTHER PLEASE
000336:                                                                                                  #                DO SOMETHING VERBS
000337:
000338:                                                                                                  #        PLEASE PERFORM, MARK, CALIBRATE, ETC.
000339:
000340:                                                                                                  #        1. PRESSING ENTER ON DSKY INDICATES REQUESTED ACTION HAS BEEN PERFORMED, AND THE PROGRAM DOES THE
000341:                                                                                                  #           SAME RECALL AS A COMPLETED LOAD.
000342:                                                                                                  #        2. THE EXECUTION OF A VERB 33 (PROCEED WITHOUT DATA) INDICATES THE REQUESTED ACTION IS NOT DESIRED.
000343:
000344: 43,2265           04417        GOLOADLV           TC       FLASHOFF
000345: 43,2266           34223                           CAF      PINSUPBT
000346: 43,2267           00006                           EXTEND
000347: 43,2270           01007                           WRITE    SUPERBNK                              #  TURN ON FE7
000348: 43,2271           04655                           TC       POSTJUMP
000349: 43,2272  40,2000                                  SBANK=   PINSUPER
000350: 43,2272           63001                           CADR     LOADLV1
000351:
000352:                                                                                                  #  V60   VERB 60
000353:
000354: 43,2273           00006        V60                EXTEND                                         #  SET ASTRONAUT TOTAL ATTITUDE (N17) EQUAL
000355: 43,2274           30033                           DCA      CDUX                                  #  TO PRESENT ATTITUDE
000356: 43,2275           53014                           DXCH     CPHIX
000357: 43,2276           30034                           CA       CDUZ
000358: 43,2277           55015                           TS       CPHIX      +2
000359: 43,2300           02117                           TC       GOPIN
000360:
000361:                                                                                                  #  V61   VERB 61
000362:
000363: 43,2301           03065        V61                TC       DOWNX                                 #  CLEAR NEEDLFLG, PHASE
000364: 43,2302           00006                           ADRES    NEEDLFLG                              #  PLANE A/P FOLLOWING ERROR DISPLAYED
000365: 43,2303           03071        SETNEEDL           TC       UPX                                   #  SET NEEDLFLG, TOTAL ATT ERR DISPLAYED
000366:
000367:                                                                                                  #  V62   VERB 62
000368:
000369: 43,2304           05547        V62                TC       UPFLAG
000370: 43,2305           00220                           ADRES    N22ORN17                              #  COMPUTE TOTAL ATTITUDE ERROR WRT N22
000371: 43,2306           02303                           TC       SETNEEDL
000372:
000373:                                                                                                  #  V63   VERB 63
000374:
000375: 43,2307           05561        V63                TC       DOWNFLAG
000376: 43,2310           00220                           ADRES    N22ORN17                              #  COMPUTE TOTAL ASTRONAUT ATTITUDE ERROR
000377: 43,2311           02303                           TC       SETNEEDL
000378:


000380:
000381:                                                                                                  #  ALINTIME      VERB 55         DESCRIPTION
000382:                                                                                                  #        1. SET EXT VERB DISPLAY BUSY FLAG.
000383:                                                                                                  #        2. DISPLAY FLASHING V25,N24 (LOAD DELTA TIME FOR AGC CLOCK.
000384:                                                                                                  #        3. REQUIRE EXECUTION OF VERB 23.
000385:                                                                                                  #        4. ADD DELTA TIME, RECEIVED FROM INPUT REGISTER, TO THE COMPUTER TIME.
000386:                                                                                                  #        5. RELEASE EXT VERB DISPLAY SYSTEM
000387:
000388: 43,2312                                           COUNT*   $$/R33
000389: 43,2312           02076        ALINTIME           TC       TESTXACT
000390:
000391: 43,2313           32341                           CAF      VNLODDT
000392: 43,2314           04636                           TC       BANKCALL
000393: 43,2315           20576                           CADR     GOMARKF
000394: 43,2316           05524                           TC       ENDEXT                                #  TERMINATE
000395: 43,2317           05524                           TC       ENDEXT                                #  PROCEED
000396: 43,2320           44615                           CS       DEC23                                 #  DATA IN OR RESEQUENCE (UNLIKELY)
000397: 43,2321           60154                           AD       MPAC                                  #  RECALL LEFT VERB IN MPAC
000398: 43,2322           00006                           EXTEND
000399: 43,2323           12325                           BZF      UPDATIME                              #  GO AHEAD WITH UPDATE ONLY IF RECALL
000400: 43,2324           05524                           TC       ENDEXT                                #        WITH V23 (DATA IN).
000401: 43,2325           00004        UPDATIME           INHINT                                         #  DELTA TIME IS IN DSPTEM1, +1.
000402: 43,2326           34772                           CAF      ZERO
000403: 43,2327           54001                           TS       L                                     #  ZERO T1 & 2 WHILE ALIGNING.
000404: 43,2330           52025                           DXCH     TIME2
000405: 43,2331           52155                           DXCH     MPAC
000406: 43,2332           53255                           DXCH     DSPTEM2    +1                         #  INCREMENT
000407: 43,2333           20155                           DAS      MPAC
000408:
000409: 43,2334           07224                           TC       DPAGREE                               #  FORCE SIGN AGREEMENT
000410: 43,2335           52155                           DXCH     MPAC                                  #  NEW CLOCK.
000411: 43,2336           20025                           DAS      TIME2
000412: 43,2337           00003                           RELINT
000413: 43,2340           05524        UPDTMEND           TC       ENDEXT
000414: 43,2341           06230        VNLODDT            VN       2524                                  #  V25N24 FOR LOAD DELTA TIME
000415:
000416:                                                                                                  #  REDO AND TSELECT ARE NOW IN SYSTEM TEST.
000417:
000418: 43,2342                                           COUNT*   $$/EXTVB
000419:                                                                                                  #  CKOPTVB       VERB 65         DESCRIPTION
000420:                                                                                                  #        OPTICAL VERIFICATION FOR PRELAUNCH.
000421:                                                                                                  #        1. SCHEDULE GCOMPVER, OPTICAL VERIFICATION SUBPROGRAM, WITH PRIORITY 17.
000422:
000423: 43,2342           05354        CKOPTVB            TC       CHECKMM
000424: 43,2343           00002                           MM       02         B-14                       #  I WONDER IF PRELAUNCH IS RUNNING
000425: 43,2344           02116                           TC       ALM/END                               #  NOT RUNNING OPERATOR ERROR
000426: 43,2345           35055                           CAF      PRIO16                                #  PRELAUNCH OPTICAL VERIFICATION
000427: 43,2346           05135                           TC       FINDVAC
000428: 43,2347  E5,1425                                  EBANK=   QPLACE
000429: 43,2347           02000 66065                     2CADR    COMPVER                               #  STANDARD LEADIN TO GCOMPVER.
000430:


000432: 43,2351           02117                           TC       GOPIN
000433:
000434:                                                                                                  #  V 78 ....     TO CHANGE GYROCOMPASS AZIMUTH
000435:
000436: 43,2352           05354        CHAZFOGC           TC       CHECKMM                               #  IS IT PRELAUNCH
000437: 43,2353           00002                           MM       02         B-14
000438: 43,2354           02116                           TC       ALM/END                               #  NO - OPERATOR ERROR
000439:
000440: 43,2355           35055                           CAF      PRIO16                                #  PRELAUNCH AZIMUTH CHANGE
000441: 43,2356           05135                           TC       FINDVAC
000442: 43,2357  E5,1671                                  EBANK=   XSM
000443: 43,2357           03132 66105                     2CADR    AZMTHCG1
000444:
000445: 43,2361           05402                           TC       PHASCHNG
000446: 43,2362           00174                           OCT      00174
000447: 43,2363  01,2146               4P17SPT1           =        4.17SPOT
000448: 43,2363           02117                           TC       GOPIN
000449:


000451:
000452:                                                                                                  #  IMUATTCK      VERB 43         DESCRIPTION
000453:                                                                                                  #        LOAD IMU ATTITUDE ERROR METERS
000454:                                                                                                  #        1. REQUIRE PROGRAM 00 ACTIVE, COARSE ALIGN ENABLE BIT OFF AND ZERO ICDU BIT OFF.
000455:                                                                                                  #        2. IF GUID REF RELEASE OR LIFTOFF HAS OCCURRED REQUIRE EXT VERB DISPLAY AVAILABLE AND SET BUSY
000456:                                                                                                  #           FLAG, OTHERWISE ALLOW CURRENT EXT VERB DISPLAY TO BE OVER-RIDDEN.
000457:                                                                                                  #        3. REMOVE COARSE ALIGN ENABLE AND IMU ERROR COUNTER ENABLE
000458:                                                                                                  #        4. DISPLAY FLASHING V25,N22 (LOAD NEW ICDU ANGLES).
000459:                                                                                                  #        5. UPON PROCEED OR ENTER RESPONSE, INITIALIZE CURRENT DAC AND COMMAND VALUES, ENABLE ERROR COUNTERS
000460:                                                                                                  #           TRANSFER LOADED VALUES TO REGISTERS, AND SEND COMMANDS.
000461:                                                                                                  #        6. IF BUSY FLAG SET, RESET IT TO RELEASE EXT VERB DISPLAY.
000462:
000463: 43,2364           02714        IMUATTCK           TC       CHKPOOH
000464:
000465: 43,2365           35001                           CAF      BITS4&5                               #  CHECK IF IMU ZERO AND IMU COARSE ARE ON
000466: 43,2366           00006                           EXTEND
000467: 43,2367           02012                           RAND     CHAN12
000468: 43,2370           10000                           CCS      A
000469: 43,2371           12116                           TCF      ALM/END                               #  NOT ALLOWED IF IMU COARSE OR IMU ZERO ON
000470:
000471: 43,2372           02427                           TC       CKLFTBTS                              #  IS IT BEFORE OR AFTER LIFTOFF
000472: 43,2373           02076                           TC       TESTXACT                              #  AFTER
000473: 43,2374           45004                           CS       OCT50                                 #  REMOVE COARSE AND ECTR ENABLE.
000474: 43,2375           00006                           EXTEND
000475: 43,2376           03012                           WAND     CHAN12
000476:
000477: 43,2377           32163                           CAF      VNLODCDU
000478: 43,2400           04636                           TC       BANKCALL
000479: 43,2401           20576                           CADR     GOXDSPF
000480: 43,2402           12414                           TCF      TRMATTCK
000481: 43,2403           02404                           TC       +1
000482: 43,2404           04611                           TC       E6SETTER                              #  FOR NEEDLES.
000483:
000484: 43,2405  E6,1476                                  EBANK=   AK
000485:
000486: 43,2405           04636                           TC       BANKCALL                              #  INITIALIZE CURRENT DAC AND
000487: 43,2406           42450                           CADR     NEEDLE11                              #  COMMAND VALUES
000488:
000489: 43,2407           04636                           TC       BANKCALL                              #  ENABLE ERROR COUNTERS.
000490: 43,2410           42467                           CADR     NEEDLER2
000491:
000492: 43,2411           34767                           CAF      TWO                                   #  4 MS MIN.
000493: 43,2412           05223                           TC       TWIDDLE
000494: 43,2413           02417                           ADRES    ATTCK1
000495: 43,2414           02427        TRMATTCK           TC       CKLFTBTS                              #  IS IT BEFORE OR AFRER LIFTOFF
000496: 43,2415           15524                           TCF      ENDEXT                                #  AFTER
000497: 43,2416           02117                           TC       GOPIN
000498:
000499: 43,2417           00006        ATTCK1             EXTEND                                         #  TRANSFER LOADED VALUES TO DESIRED REGS.
000500: 43,2420           31310                           DCA      THETAD


000502: 43,2421           53477                           DXCH     AK
000503: 43,2422           31311                           CAE      THETAD     +2
000504: 43,2423           55500                           TS       AK         +2
000505:
000506: 43,2424           04714                           TC       IBNKCALL                              #  SENDS COMMANDS LIMITED TO +,- 384 PULSES
000507: 43,2425           42503                           CADR     NEEDLES                               #  AND LEAVES ERROR COUNTERS ENABLED.
000508:
000509: 43,2426           05314                           TC       TASKOVER
000510:
000511: 43,2427           34764        CKLFTBTS           CAF      GRRBKBIT                              #  HAS LIFTOFF OCCURRED
000512: 43,2430           70101                           MASK     FLAGWRD5
000513: 43,2431           10000                           CCS      A
000514: 43,2432           00002        XACT0Q             TC       Q                                     #  YES
000515: 43,2433           34764                           CAF      BIT5
000516: 43,2434           00006                           EXTEND
000517: 43,2435           02030                           RAND     CHAN30
000518: 43,2436           15651                           TCF      INCRQCK
000519: 43,2437           02076        VB64               TC       TESTXACT
000520: 43,2440           34755                           CAF      PRIO4
000521: 43,2441           05135                           TC       FINDVAC
000522: 43,2442  E4,1711                                  EBANK=   RHOSB
000523: 43,2442           03504 64104                     2CADR    SBANDANT                              #  CALC.,DISPLAY S-BAND ANTENNA ANGLES.
000524:
000525: 43,2444           05205                           TC       ENDOFJOB
000526:
000527:                                                                                                  #  ENATMA        VERB 58         DESCRIPTION
000528:                                                                                                  #        ENABLE AUTOMATIC ATTITUDE MANEUVER
000529:
000530:                                                                                                  #  VERB58 RESETS STIKFLAG TO ENABLE R61 TO PERFORM AUTOMATIC TRACKING MANEUVERS, AFTER INTERUPTIONS BY RHC ACT-
000531:                                                                                                  #  IVITY.
000532:
000533: 43,2445           05547        ENATMA             TC       UPFLAG                                #  SET FLAG TO ENABLE R60 MANEUVER
000534: 43,2446           00055                           ADRES    V50N18FL
000535: 43,2447           03065                           TC       DOWNX                                 #  RESET STIKFLAG.
000536: 43,2450           00020                           ADRES    STIKFLAG
000537:
000538:                                                                                                  #  STABLISH      VERB 46         DESCRIPTION
000539:                                                                                                  #        ESTABLISH G & N AUTOPILOT CONTROL
000540:                                                                                                  #        1. SETS UP EITHER RCS, ENTRY, OR SATURN
000541:                                                                                                  #        2. IF TVC IS ON, SETS UP CSM/LM SWITCH-OVER
000542:                                                                                                  #                FROM HIGH BW TO LOW BW
000543:
000544:
000545: 43,2451           04611        STABLISH           TC       E6SETTER
000546:
000547: 43,2452           40102                           CS       FLAGWRD6                              #  TEST FOR TVC
000548: 43,2453           74076                           MASK     DPCONFIG
000549: 43,2454           00006                           EXTEND
000550: 43,2455           62465                           BZMF     DAPFIG


000552: 43,2456           31465                           CAE      DAPDATR1                              #  TET FOR CSM/LM
000553: 43,2457           74753                           MASK     BIT14
000554: 43,2460           00006                           EXTEND
000555: 43,2461           62116                           BZMF     ALM/END                               #  CSM, SO ALARM AND EXIT
000556:
000557: 43,2462           04636                           TC       BANKCALL                              #  CSM/LM, SO PERFORM HB TO LB SWITCH-OVER
000558: 43,2463           36344                           CADR     SWICHOVR
000559:
000560: 43,2464           02117                           TC       GOPIN
000561:
000562: 43,2465           44760        DAPFIG             CS       BIT9                                  #  TURN OFF SIVB TAKEOVER
000563: 43,2466           00006                           EXTEND
000564: 43,2467           03012                           WAND     CHAN12
000565: 43,2470           31465                           CAE      DAPDATR1                              #  DETERMINE VEHICLE CONFIGURATION
000566: 43,2471           00006                           EXTEND
000567: 43,2472           74766                           MP       BIT3                                  #  RIGHT SHIFT 4 OCTAL DIGITS
000568: 43,2473           76214                           MASK     THREE                                 #  (IN CASE BIT 15 IS USED)
000569: 43,2474           00004                           INHINT
000570: 43,2475           50000                           INDEX    A
000571: 43,2476           12477                           TCF      +1                                    #  BRANCH BASED ON CONFIG
000572: 43,2477           12522                           TCF      NODAPUP                               #  CM.. ACTIVATE NODAP
000573: 43,2500           12517                           TCF      RCSDAPUP                              #  CSM..ACTIVATE RCSDAP
000574: 43,2501           12517                           TCF      RCSDAPUP                              #  CSM/LM ACTIVATE RCSDAP
000575: 43,2502           00006        SATSTKON           EXTEND
000576: 43,2503           32516                           DCA      2REDOSAT
000577: 43,2504           52113                           DXCH     T5LOC
000578: 43,2505           34750                           CAF      POSMAX
000579: 43,2506           54030                           TS       TIME5
000580: 43,2507           40102                           CS       FLAGWRD6                              #  TURN ON BITS 15,14 OF FLAGWRD6
000581: 43,2510           74076                           MASK     DPCONFIG
000582: 43,2511           26102                           ADS      FLAGWRD6                              #  SATSTICK CONTROL OF T5
000583: 43,2512           04714                           TC       IBNKCALL                              #  ZERO JET CHANNELS IN 14MS AND THEN
000584: 43,2513           42642                           CADR     ZEROJET                               #  LEAVE THE T6 CLOCK DISABLED
000585: 43,2514           02117                           TC       GOPIN                                 #  EXIT THUS BECAUSE WE CAME VIA V46
000586:
000587: 43,2515  E6,1704                                  EBANK=   SPOLYARG
000588: 43,2515           02000 54106  2REDOSAT           2CADR    REDOSAT
000589:
000590: 43,2517           04714        RCSDAPUP           TC       IBNKCALL
000591: 43,2520           42042                           CADR     RCSDAPON
000592: 43,2521           12117                           TCF      GOPIN
000593:
000594: 43,2522           04714        NODAPUP            TC       IBNKCALL                              #  ZERO JET CHANNELS IN 14 MS. AND THEN
000595: 43,2523           42642                           CADR     ZEROJET                               #  LEAVE THE T6 CLOCK DISABLED.
000596: 43,2524           34770                           CAF      BIT1
000597: 43,2525           55340                           TS       HOLDFLAG                              #  KILL KALCMANU JOB
000598:
000599: 43,2526           00006        EXDAPOFF           EXTEND
000600: 43,2527           32721                           DCA      IDLECADR                              #  SET T5 TO IDLE


000602: 43,2530           52113                           DXCH     T5LOC
000603: 43,2531           44076                           CS       DPCONFIG
000604: 43,2532           70102                           MASK     FLAGWRD6
000605: 43,2533           54102                           TS       FLAGWRD6
000606:
000607: 43,2534           02117                           TC       GOPIN
000608:


000610:
000611:                                                                                                  #  CREWMANU      VERB 49         DESCRIPTION
000612:                                                                                                  #        START AUTOMATIC ATTITUDE MANEUVER
000613:                                                                                                  #        1. REQUIRE PROGRAM 00 ACTIVE.
000614:                                                                                                  #        2. SET EXT VERB DISPLAY BUSY FLAG.
000615:                                                                                                  #        3. SCHEDULE R62DISP WITH PRIORITY 10.
000616:                                                                                                  #        4. RELEASE EXT VERB DISPLAY.
000617:
000618:                                                                                                  #        R62DISP
000619:                                                                                                  #        1. DISPLAY FLASHING V06,N22 (DECIMAL DISPLAY NEW ICDU ANGLES). UPON IMMEDIATE RETURN, SET-UP GROUP
000620:                                                                                                  #           4 FOR RESTART OF DISPLAY SEQUENCE.
000621:                                                                                                  #                RESPONSES
000622:                                                                                                  #                A. TERMINATE
000623:                                                                                                  #                        1. GO TO GOTOPOOH.
000624:                                                                                                  #                B. PROCEED
000625:                                                                                                  #                        1. SET 3AXISFLG TO INDICATE MANEUVER IS SPECIFIED BY 3 AXIS.
000626:                                                                                                  #                        2. EXECUTE R60CSM (ATTITUDE MANEUVER).
000627:                                                                                                  #                        3. ZERO GROUP 4 (END R62).
000628:                                                                                                  #                C. ENTER
000629:                                                                                                  #                        1. REPEAT FLASHING V06,N22.
000630:
000631: 43,2535           02714        CREWMANU           TC       CHKPOOH                               #  DEMAND POO
000632:
000633: 43,2536           02076                           TC       TESTXACT
000634:
000635: 43,2537           34754                           CAF      PRIO10
000636: 43,2540           05135                           TC       FINDVAC
000637: 43,2541  E6,1774                                  EBANK=   R61CNTR
000638: 43,2541           02427 56106                     2CADR    R62DISP
000639:
000640: 43,2543           05205                           TC       ENDOFJOB


000642:                                                                                                  #  DAPDISP       VERB 48         DESCRIPTION
000643:                                                                                                  #        LOAD AUTOPILOT DATA (ROUTINE R03)
000644:                                                                                                  #        0.      CHECKFAIL AND RETURN IF TVC.
000645:                                                                                                  #        1.      REQUIRE EXT VERB DISPLAY AVAILABLE AND SET BUSY FLAG.
000646:                                                                                                  #        2.      LOWER PRIORITY TO 10.
000647:                                                                                                  #        3.      DISPLAY FLASHING V04,N46 (DISPLAY AUTOPILOT CONFIGURATION)
000648:                                                                                                  #        4.      UPON PROCEED RESPONSE, EXECUTE S41.2.
000649:                                                                                                  #        5.      DISPLAY FLASHING V06,N47 (DISPLAY CSM WGT., LEM WGT.)
000650:                                                                                                  #        6.      UPON PROCEED RESPONSE EXECUTE S40.14.
000651:                                                                                                  #        7.      DISPLAY FLASHING V06,N48 (DISPLAY PITCH TRIM, YAW TRIM)
000652:                                                                                                  #        8.      UPON PROCEED RESPONSE, RELEASE EXTENDED VERB DESPLAY SYSTEM
000653:
000654: 43,2544                                           COUNT*   $$/EXTVB
000655: 43,2544           40102        DAPDISP            CS       FLAGWRD6
000656: 43,2545           74076                           MASK     DPCONFIG
000657: 43,2546           00006                           EXTEND
000658: 43,2547           62551                           BZMF     +2                                    #  TVC = 10, CS YIELDS 01, BZMF TO CONTINUE
000659: 43,2550           02116                           TC       ALM/END                               #  RETURN IF TVC
000660:
000661: 43,2551           02076                           TC       TESTXACT
000662: 43,2552           34754                           CAF      PRIO10
000663: 43,2553           05121                           TC       NOVAC
000664: 43,2554  E6,1465                                  EBANK=   DAPDATR1
000665: 43,2554           02000 64106                     2CADR    DONOUN46
000666:
000667: 43,2556           05205                           TC       ENDOFJOB
000668:
000669: 42,2000                                           SETLOC   EXTVBS
000670: 42,2000                                           BANK
000671: 42,2000                                           COUNT*   $$/R03
000672: 42,2000           32055        DONOUN46           CAF      V04N46                                #     R1         R2
000673: 42,2001           04636                           TC       BANKCALL                              #   DAPDATR1   DAPDATR2
000674: 42,2002           20576                           CADR     GOXDSPF                               #  GOXDSP ROUTINES USED FOR EXTENDED VERBS.
000675:
000676: 42,2003           05524                           TC       ENDEXT                                #  EXT. VBS GO TO ENDEXT, NOT ENDOFJOB.
000677: 42,2004           02006                           TC       +2
000678: 42,2005           02000                           TC       DONOUN46
000679:
000680: 42,2006           31465                           CA       DAPDATR1
000681: 42,2007           74765                           MASK     BIT4
000682: 42,2010           10000                           CCS      A
000683: 42,2011           12050                           TCF      MAXIN
000684: 42,2012           05561                           TC       DOWNFLAG
000685: 42,2013           00212                           ADRES    MAXDBFLG
000686: 42,2014           04636        MAXOUT             TC       BANKCALL
000687: 42,2015           40463                           CADR     S41.2
000688:
000689: 42,2016           32054        DONOUN47           CAF      V06N47                                #     R1         R2        R3
000690: 42,2017           04636                           TC       BANKCALL                              #  CSM WGT.   LEM WGT.    BLANK
000691: 42,2020           20576                           CADR     GOXDSPF


000693: 42,2021           05524                           TC       ENDEXT
000694: 42,2022           02024                           TC       +2
000695: 42,2023           02016                           TC       DONOUN47
000696: 42,2024           31465                           CAE      DAPDATR1                              #  DO MASS PROPERTIES CALCULATION ONLY IF
000697: 42,2025           74346                           MASK     PRIO30                                #  CONFIG = 1(CSM), 2(CSM/LM), 6(CSM/LMA)
000698: 42,2026           00006                           EXTEND
000699: 42,2027           12042                           BZF      DONOUN48                              #  SKIP IF 0, 4
000700: 42,2030           40000                           COM
000701: 42,2031           74346                           MASK     PRIO30
000702: 42,2032           00006                           EXTEND
000703: 42,2033           12042                           BZF      DONOUN48                              #  SKIP IF 3, 7
000704: 42,2034           00004                           INHINT
000705: 42,2035           04714                           TC       IBNKCALL
000706: 42,2036           13313                           CADR     MASSPROP                              #  UPDATE IXX, IAVG, IAVG/TLX
000707:
000708: 42,2037           00003                           RELINT
000709: 42,2040           04636                           TC       BANKCALL
000710: 42,2041           40614                           CADR     S40.14                                #  COMPUTE RCS DAP STUFF
000711:
000712: 42,2042           32053        DONOUN48           CAF      V0648                                 #     R1         R2         R3
000713: 42,2043           04636                           TC       BANKCALL                              #    PTRIM      YTRIM      BLANK
000714: 42,2044           20576                           CADR     GOXDSPF
000715:
000716: 42,2045           05524                           TC       ENDEXT
000717: 42,2046           05524                           TC       ENDEXT
000718: 42,2047           02042                           TC       DONOUN48
000719:
000720: 42,2050           05547        MAXIN              TC       UPFLAG
000721: 42,2051           00212                           ADRES    MAXDBFLG
000722: 42,2052           02014                           TC       MAXOUT
000723:
000724: 42,2053           01460        V0648              VN       0648
000725: 42,2054           01457        V06N47             VN       0647
000726: 42,2055           01056        V04N46             VN       0446
000727: 43,2557                                           BANK     43
000728: 43,2000                                           SETLOC   EXTVERBS
000729: 43,2000                                           BANK
000730:
000731: 43,2557                                           COUNT*   $$/EXTVB
000732:
000733:                                                                                                  #  V82PERF       VERB82          DESCRIPTION
000734:                                                                                                  #        REQUEST ORBIT PARAMETERS DISPLAY (R30)
000735:                                                                                                  #        1. IF AVERAGE G IS OFF:
000736:                                                                                                  #                FLASH DISPLAY V04N06. R2 INDICATES WHICH SHIP'S STATE VECTOR IS
000737:                                                                                                  #                 TO BE UPDATED. INITIAL CHOICE IS THIS SHIP (R2=1). ASTRONAUT
000738:                                                                                                  #                 CAN CHANGE TO OTHER SHIP BY V22EXE, WHERE X NOT EQ 1.
000739:                                                                                                  #                SELECTED STATE VECTOR UPDATED BY THISPREC (OTHPREC).
000740:                                                                                                  #                CALLS SR30.1 (WHICH CALLS TFFCONMU + TFFRP/RA) TO CALCULATE
000741:                                                                                                  #                 RPER (PERIGEE RADIUS), RAPO (APOGEE RADIUS), HPER (PERIGEE
000742:                                                                                                  #                 HEIGHT ABOVE LAUNCH PAD OR LUNAR LANDING SITE), HAPO (APOGEE
000743:                                                                                                  #                 HEIGHT AS ABOVE), TPER (TIME TO PERIGEE), TFF (TIME TO
000744:                                                                                                  #                 INTERSECT 300 KFT ABOVE PAD OR 35KFT ABOVE LANDING SITE).


000746:                                                                                                  #                FLASH MONITOR V16N44 (HAPO, HPER, TFF). TFF IS -59M59S IF IT WAS
000747:                                                                                                  #                 NOT COMPUTABLE, OTHERWISE IT INCREMENTS ONCE PER SECOND.
000748:                                                                                                  #                 ASTRONAUT HAS OPTION TO MONITOR TPER BY KEYING IN N 32 E.
000749:                                                                                                  #                 DISPLAY IS IN HMS, IS NEGATIVE (AS WAS TFF), AND INCREMENTS
000750:                                                                                                  #                 ONCE PER SECOND ONLY IF TFF DISPLAY WAS -59M59S.
000751:
000752:                                                                                                  #        2.IF AVERAGE G IS ON:
000753:                                                                                                  #                CALLS SR30.1 APPROX EVERY TWO SECS.  STATE VECTOR IS ALWAYS
000754:                                                                                                  #                 FOR THIS VEHICLE. V82 DOES NOT DISTURB STATE VECTOR.  RESULTS
000755:                                                                                                  #                 OF SR30.1 ARE RAPO, RPER, HAPO, HPER, TPER, TFF.
000756:                                                                                                  #                FLASH MONITOR V16N44 (HAPO, HPER, TFF).
000757:                                                                                                  #                 IF MODE IS P11, THEN CALL DELRSPL SO ASTRONAUT CAN MONITOR
000758:                                                                                                  #                 RESULTS BY N50E.  SPLASH COMPUTATION DONE ONCE PER TWO SECS.
000759:
000760:                                                                                                  #  ADDENDUM: HAPO AND HPER SHOULD BE CHANGED TO READ HAPOX AND HPERX IN THE
000761:                                                                                                  #            ABOVE REMARKS.
000762:
000763: 43,2557           02076        V82PERF            TC       TESTXACT
000764: 43,2560           35051                           CAF      PRIO7
000765: 43,2561           05176                           TC       PRIOCHNG
000766: 43,2562           04655                           TC       POSTJUMP
000767: 43,2563           46330                           CADR     V82CALL                               #  ***** V82CALL MUST NOT BE A FINDVAC JOB.
000768:
000769:                                                                                                  #  VB83PERF      VERB 83         DESCRIPTION
000770:                                                                                                  #        REQUEST RENDEZVOUS PARAMETER DISPLAY (R31)
000771:                                                                                                  #        1. SET EXT VERB DISPLAY BUSY FLAG.
000772:                                                                                                  #        2. SCHEDULE V83CALL WITH PRIORITY 10.
000773:                                                                                                  #                A. DISPLAY
000774:                                                                                                  #                        R1  RANGE
000775:                                                                                                  #                        R2  RANGE RATE
000776:                                                                                                  #                        R3  THETA
000777:
000778: 43,2564           02076        V83PERF            TC       TESTXACT
000779: 43,2565           05547                           TC       UPFLAG
000780: 43,2566           00222                           ADRES    R31FLAG
000781: 43,2567           35047                 +3        CAF      PRIO5
000782: 43,2570           05121                           TC       NOVAC
000783: 43,2571  E4,1760                                  EBANK=   SUBEXIT
000784: 43,2571           02000 62064                     2CADR    R31CALL
000785:
000786: 43,2573           05205                           TC       ENDOFJOB
000787:
000788: 43,2574           02076        V85PERF            TC       TESTXACT
000789: 43,2575           05561                           TC       DOWNFLAG                              #  RESET R31 FLAG TO INDICATE R34
000790: 43,2576           00222                           ADRES    R31FLAG
000791: 43,2577           02567                           TC       V83PERF    +3


000793:
000794:                                                                                                  #  GOTOR23       VERB 54         DESCRIPTION
000795:                                                                                                  #        SET UP MARKING FOR R22 (REND TRACK DATA PROC)
000796:                                                                                                  #        1. SET EXT VERB DISPLAY BUSY FLAG
000797:                                                                                                  #        2. IF REND (P20 RUNNING) + TRACK (TRACKING ALLOWED) FLAGS ARE SET,
000798:                                                                                                  #            SCHEDULE R23 WITH PRIORITY 16, OTHERWISE TURN ON ALARM 406
000799:                                                                                                  #        3. RELEASE EXT VERB DISPLAY SYSTEM
000800:
000801: 43,2600           02076        GOTOR23            TC       TESTXACT
000802: 43,2601           30074                           CA       FLAGWRD0                              #  V54 UNACCEPTABLE UNLESS BOTH
000803: 43,2602           74762                           MASK     RNDVZBIT                              #        RENDEZVOUS AND TRACK FLAGS ON
000804: 43,2603           00006                           EXTEND
000805: 43,2604           12616                           BZF      R22ALARM
000806:
000807: 43,2605           30075                           CA       FLAGWRD1
000808: 43,2606           74764                           MASK     TRACKBIT
000809: 43,2607           00006                           EXTEND
000810: 43,2610           12616                           BZF      R22ALARM
000811:
000812: 43,2611           35055                           CAF      PRIO16                                #  LOWER THAN R22
000813: 43,2612           05121                           TC       NOVAC
000814: 43,2613  E7,1722                                  EBANK=   MRKBUF1
000815: 43,2613           02263 76067                     2CADR    R23CSM
000816:
000817: 43,2615           05205                           TC       ENDOFJOB
000818: 43,2616           05671        R22ALARM           TC       ALARM                                 #  VERB 57 WAS SELECTED AND NEITHER REND
000819: 43,2617           00406                           OCT      00406                                 #        NOR TRACK FLAG WERE ON.
000820: 43,2620           05524                           TC       ENDEXT
000821:


000823:                                                                                                  #  VERB 86       DESCRIPTION
000824:                                                                                                  #        V86 IS TO R23 AS MARK REJECT IS TO R21
000825:                                                                                                  #        V86 IS THE MARK REJECT FOR R23(THE BACKUP MARKING ROUTINE)
000826:
000827: 43,2621  E7,1722                                  EBANK=   MRKBUF1
000828: 43,2621           04606        V86PERF            TC       E7SETTER                              #  BACKUP MARK REJ.
000829: 43,2622           31722                           CA       MRKBUF1
000830: 43,2623           00006                           EXTEND
000831: 43,2624           12627                           BZF      +3
000832: 43,2625           00006                           EXTEND
000833: 43,2626           62632                           BZMF     BKRJCT
000834:
000835: 43,2627           37702                           CA       NEGONE
000836: 43,2630           55722                           TS       MRKBUF1
000837: 43,2631           02117                           TC       GOPIN
000838: 43,2632           34762        BKRJCT             CAF      R22CABIT
000839: 43,2633           70105                           MASK     FLAGWRD9
000840: 43,2634           00006                           EXTEND
000841: 43,2635           12117                           BZF      GOPIN
000842:
000843: 43,2636           05547                           TC       UPFLAG
000844: 43,2637           00231                           ADRES    REJCTFLG
000845: 43,2640           12117                           TCF      GOPIN
000846:


000848:                                                                                                  #  TRACKTRM      VERB 56         DESCRIPTION
000849:                                                                                                  #        TERMINATE TRACKING (P20)
000850:                                                                                                  #        1. KNOCK DOWN RENDEZVOUS, TRACK, AND UPDATE FLAGS.
000851:                                                                                                  #        2. REQUIRE P20 NOT RUNNING ALONE OR GO TO GOTOPOOH (REQUEST PROGRAM 00).
000852:                                                                                                  #        3. REQUIRE R22 RUNNING OR GO TO PINBRNCH.
000853:                                                                                                  #        4. IF INTEGRATION RUNNING, STALL UNTIL IT IS COMPLETED, THEN ZERO GROUPS 2 AND 3 TO KILL R21 + R22.
000854:                                                                                                  #        3. KNOCK DOWN RENDEZVOUS, R22, R21, TRACK, UPDATE, AND TARG1 FLAGS.
000855:                                                                                                  #        4. GO TO ENEMA (SOFTWARE RESTART).
000856:                                                                                                  #        REFERENCE
000857:                                                                                                  #                P20     RENDEZVOUS      NAVIGATION.
000858:                                                                                                  #                R21     RENDEZVOUS      TRACKING SIGHTING MARK.
000859:                                                                                                  #                R22     RENDEZVOUS      TRACKING DATA PROCESSING.
000860:
000861: 43,2641           06006        TRACKTRM           TC       INTPRET
000862: 43,2642           43014                           CLEAR    BON
000863: 43,2643           04275                                    R67FLAG
000864: 43,2644           04306                                    UTFLAG
000865: 43,2645           66655                                    TRACKCHK
000866: 43,2646           43014                           BOFF     CLEAR
000867: 43,2647           00350                                    RNDVZFLG
000868: 43,2650           66701                                    EXPIN1
000869: 43,2651           05270                                    AUTOSEQ
000870: 43,2652           43014                           CLEAR    CLEAR
000871: 43,2653           01261                                    R21MARK
000872: 43,2654           00670                                    UPDATFLG
000873: 43,2655           43014        TRACKCHK           BOFCLR   CLEAR
000874: 43,2656           00652                                    TRACKFLG
000875: 43,2657           66676                                    EXPIN
000876: 43,2660           00267                                    IMUSE
000877: 43,2661           43014                           CLEAR    CLEAR
000878: 43,2662           00270                                    RNDVZFLG
000879: 43,2663           04266                                    UTFLAG
000880: 43,2664           45034                           RTB      CALL
000881: 43,2665           11030                                    INITSUBB                              #  DO STOPRATE AND RESTOREDB
000882: 43,2666           27516                                    INTSTALL                              #  DONT INTERRUPT INTEGRATION
000883: 43,2667           77776                           EXIT
000884:
000885: 43,2670           05362                           TC       2PHSCHNG
000886: 43,2671           00002                           OCT      2                                     #  KILL GROUP 2 TO HALT P20 ACTIVITY
000887: 43,2672           00001                           OCT      1                                     #  ALSO KILL GROUP 1
000888:
000889: 43,2673           00004        CLEANOUT           INHINT
000890: 43,2674           04655                           TC       POSTJUMP
000891: 43,2675           12712                           CADR     ENEMA                                 #  CAUSE RESTART
000892:
000893: 43,2676           43014        EXPIN              CLEAR    CLEAR
000894: 43,2677           00270                                    RNDVZFLG
000895: 43,2700           04266                                    UTFLAG
000896: 43,2701           77776        EXPIN1             EXIT


000898: 43,2702           02117                           TC       GOPIN
000899:
000900:                                                                                                  #  LEMVEC        VERB 80         DESCRIPTION
000901:                                                                                                  #        UPDATE LEM STATE VECTOR
000902:                                                                                                  #                RESET VEHUPFLG TO 0
000903:
000904: 43,2703           03065        LEMVEC             TC       DOWNX
000905: 43,2704           00026                           ADRES    VEHUPFLG                              #  VEHUPFLG DOWN INDICATES LEM
000906:
000907: 43,2705           03071        CSMVEC             TC       UPX                                   #  VEHUPFLG UP INDICATES CM.
000908:
000909:                                                                                                  #  CSMVEC        VERB 81         DESCRIPTION
000910:                                                                                                  #        UPDATE CSM STATE VECTOR
000911:                                                                                                  #                SET VEHUPFLG TO 1
000912:
000913:                                                                                                  #  DNEDUMP       VERB 74         DESCRIPTION
000914:                                                                                                  #        INITIALIZE DOWN-TELEMETRY PROGRAM FOR ERASABLE MEMORY DUMP.
000915:                                                                                                  #        2. REPLACE CURRENT DOWNLIST WITH ERASABLE MEMORY.
000916:                                                                                                  #        3. RELEASE EXT VERB DISPLAY.
000917:
000918: 43,2706           32711        DNEDUMP            CAF      LDNDUMPI
000919: 43,2707           54334                           TS       DNTMGOTO
000920: 43,2710           02117                           TC       GOPIN
000921:
000922: 43,2711  43,2706               V74                EQUALS   DNEDUMP
000923: 43,2711           03643        LDNDUMPI           REMADR   DNDUMPI
000924:
000925:                                                                                                  #  LFTFLGON      VERB 75         DESCRIPTION
000926:                                                                                                  #        SET LIFT-OFF FLAG
000927:                                                                                                  #        1. SETUP GGRBKFLG, GUIDANCE REFERENCE RELEASE BACK-UP FLAG.
000928:                                                                                                  #        2. RETURN VIA PINBRNCH
000929:
000930: 43,2712           00125                           ADRES    GRRBKFLG                              #  MUST PRECEDE LFTFLGON
000931: 43,2713           03071        LFTFLGON           TC       UPX
000932:
000933: 43,2714           31214        CHKPOOH            CA       MODREG
000934: 43,2715           00006                           EXTEND
000935: 43,2716           16711                           BZF      TCQ
000936: 43,2717           12116                           TCF      ALM/END
000937:
000938: 43,2720  E6,1423                                  EBANK=   PACTOFF
000939: 43,2720           03226 12106  IDLECADR           2CADR    T5IDLOC
000940:


000942:                                                                                                  #  VERB 89       DESCRIPTION     RENDEZVOUS FINAL ATTITUDE ROUTINE (R63)
000943:
000944:                                                                                                  #  CALLED BY VERB 89 ENTER DURING P00. PRIO 10 USED. CALCULATES AND
000945:                                                                                                  #  DISPLAYS FINAL GIMBAL ANGLES TO POINT CSM +X AXIS OR PREFERRED AXIS
000946:                                                                                                  #  (UNIT(Z)COS55 DEG + UNIT(X)SIN55 DEG) AT LM.
000947:
000948:                                                                                                  #  1. KEY IN V 89 E ONLY IF IN PROG 00. IF NOT IN P00, OPERATOR ERROR AND
000949:                                                                                                  #  EXIT R63, OTHERWISE CONTINUE.
000950:
000951:                                                                                                  #  2. IF IN P00, DO IMU STATUS CHECK (R02BOTH). IF IMU ON AND ITS
000952:                                                                                                  #  ORIENTATION KNOWN TO CGC, CONTINUE.
000953:
000954:                                                                                                  #  3. FLASH DISPLAY V 04 N 06. R2 INDICATES WHICH SPACECRAFT AXIS IS TO
000955:                                                                                                  #  BE POINTED AT LM.  INITIAL CHOICE IS PREFERRED AXIS. (R2=1).
000956:                                                                                                  #  ASTRONAUT CAN CHANGE TO (+X) AXIS (R2 NOT= 1) BY V 22 E 2 E. CONTINUE
000957:                                                                                                  #  AFTER KEYING IN PROCEED.
000958:
000959:                                                                                                  #  4. SET PREFERRED ATTITUDE FLAG ACCORDING TO OPTION DESIRED. SET FLAG
000960:                                                                                                  #  FOR PREFERRED AXIS. RESET FLAG FOR X AXIS.
000961:
000962:                                                                                                  #  5. CURRENT TIME IS STORED AND R63COMP IS CALLED
000963:
000964:                                                                                                  #        R63COMP JOB:
000965:
000966:                                                                                                  #                UPDATES CSM AND LM STATE VECTORS USING CONIC EQUATIONS
000967:
000968:                                                                                                  #                CALCULATES BOTH PREFERRED AND X AXIS TRACKING ATT FROM CSM TO LM.
000969:
000970:                                                                                                  #                DESIRED GIMBAL ANGLES AS INDICATED BY PREFERRED ATTITUDE FLAG
000971:                                                                                                  #                ARE STORED FOR LATER R60CSM CALL.
000972:
000973:                                                                                                  #  6.  FLASH DISPLAY V 06 N18 AND AWAIT RESPONSE.
000974:
000975:                                                                                                  #  7.  RECYCLE- RETURN TO STEP 5.
000976:                                                                                                  #      TERMINATE- EXIT R63 ROUTINE
000977:                                                                                                  #      PROCEED- RESET 3AXISFLG AND CALL R60CSM FOR ATTITUDE MANEUVER.
000978:
000979: 43,2722           02714        V89PERF            TC       CHKPOOH                               #  DEMAND P00
000980: 43,2723           02076                           TC       TESTXACT
000981: 43,2724           34754                           CAF      PRIO10
000982: 43,2725           05135                           TC       FINDVAC
000983: 43,2726  E6,1774                                  EBANK=   R61CNTR
000984: 43,2726           02377 62066                     2CADR    V89CALL
000985:
000986: 43,2730           15205                           TCF      ENDOFJOB
000987:
000988: 43,2731           05561        WMATRXNG           TC       DOWNFLAG                              #  RESET RENDWFLG
000989: 43,2732           00131                           ADRES    RENDWFLG
000990: 43,2733           03065                           TC       DOWNX


000992: 43,2734           00066                           ADRES    ORBWFLAG
000993:
000994: 43,2735  43,2735               GOSHOSUM           EQUALS   SHOWSUM
000995:
000996: 43,2735           02714        SHOWSUM            TC       CHKPOOH
000997: 43,2736           02076                           TC       TESTXACT                              #  *
000998: 43,2737           34770                           CAF      S+1                                   #  *
000999: 43,2740           55376                           TS       SKEEP6                                #  * SHOWSUM OPTION
001000: 43,2741           34772                           CAF      S+ZERO                                #  *
001001: 43,2742           55362                           TS       SMODE                                 #  * TURN OFF SELF-CHECK
001002: 43,2743           33177                           CA       SELFADRS                              #  *
001003: 43,2744           55361                           TS       SELFRET                               #  *
001004: 43,2745           03454                           TC       STSHOSUM                              #  * ENTER ROPECHK
001005:
001006: 43,2746           23372        SDISPLAY           LXCH     SKEEP2                                #  * BNK NO FOR DSP
001007: 43,2747           23373                           LXCH     SKEEP3                                #  * BUGGER WORD FOR DSP
001008: 43,2750           33176        NOKILL             CA       ADRS1                                 #  *
001009: 43,2751           54156                           TS       MPAC       +2                         #  *
001010: 43,2752           32763                           CA       VNCON                                 #  * 0501
001011: 43,2753           04636                           TC       BANKCALL                              #  *
001012: 43,2754           20576                           CADR     GOXDSPF                               #  *
001013: 43,2755           02760                           TC       +3                                    #  *
001014: 43,2756           03565                           TC       NXTBNK                                #  *
001015: 43,2757           02750                           TC       NOKILL                                #  *
001016: 43,2760           33177                           CA       SELFADRS
001017: 43,2761           55371                           TS       SKEEP1
001018:
001019: 43,2762           05524                           TC       ENDEXT                                #  *
001020:
001021: 43,2763           01201        VNCON              VN       501                                   #  *
001022:
001023: 43,2764           31376        ENDSUMS            CA       SKEEP6                                #  *
001024: 43,2765           00006                           EXTEND                                         #  *
001025: 43,2766           13270                           BZF      SELFCHK                               #  * ROPECHK, START SELFCHK AGAIN.
001026: 43,2767           03454                           TC       STSHOSUM                              #  * START SHOWSUM AGAIN.
001027:
001028:
001029:                                                                                                  #  VB 87  SET VHF RANGE FLAG - ALLOWS R22 TO ACCEPT RANGE DATA.
001030:
001031:                                                                                                  #  VB 88  RESET VHF RANGE FLAG - STOPS ACCEPTANCE OF RANGE DATA.
001032:
001033: 43,2770           05632        RESETVHF           TC       TRFAILOF                              #  TRACKER FAIL LIGHT
001034: 43,2771           03065                           TC       DOWNX
001035: 43,2772           00215                           ADRES    VHFRFLAG
001036: 43,2773           03071        SETVHFLG           TC       UPX                                   #  V87 SET VHF RANGE FLAG
001037:
001038:                                                                                                  #  VERB 66.      VEHICLES ARE ATTACHED. - MOVE THIS VEHICLE STATE VECTOR TO
001039:                                                                                                  #                OTHER VEHICLE STATE VECTOR.
001040:


001042:                                                                                                  #  USE SUBROUTINE GENTRAN.
001043:
001044: 43,2774  E3,1554                                  EBANK=   RRECTHIS
001045: 43,2774           34754        ATTACHED           CAF      PRIO10
001046: 43,2775           05135                           TC       FINDVAC
001047: 43,2776  E3,1554                                  EBANK=   RRECTHIS
001048: 43,2776           02000 36103                     2CADR    ATTACHIT
001049:
001050: 43,3000           05205                           TC       ENDOFJOB
001051:
001052: 17,2000                                           SETLOC   EXTVRBS1
001053: 17,2000                                           BANK
001054: 17,2000                                           COUNT*   $$/EXTVB
001055: 17,2000           06006        ATTACHIT           TC       INTPRET
001056: 17,2001           77624                           CALL
001057: 17,2002           27516                                    INTSTALL
001058: 17,2003           43014                           SET      BON
001059: 17,2004           04064                                    MOONOTH
001060: 17,2005           04303                                    MOONTHIS
001061: 17,2006           36011                                    CMMOVE
001062: 17,2007           77614                           CLEAR
001063: 17,2010           04264                                    MOONOTH
001064: 17,2011           77776        CMMOVE             EXIT
001065: 17,2012           32032                           CAF      OCT51
001066: 17,2013           05607                           TC       GENTRAN
001067: 17,2014           01554                           ADRES    RRECTHIS                              #  OUR STATE VECTOR INTO OTHER VIA GENTRAN
001068: 17,2015           01626                           ADRES    RRECTOTH
001069:
001070: 17,2016           06006        TACHEXIT           TC       INTPRET
001071: 17,2017           77624                           CALL                                           #  UPDATE RN, VN, R-OTHER, V-OTHER
001072: 17,2020           27005                                    PTOACSM
001073: 17,2021           45154                           LXA,2    CALL
001074: 17,2022           02150                                    PBODY
001075: 17,2023           20240                                    SVDWN1
001076: 17,2024           77624                           CALL
001077: 17,2025           20264                                    SVDWN2
001078: 17,2026           77624                           CALL
001079: 17,2027           27525                                    INTWAKE0
001080: 17,2030           77634        TCPIN              RTB
001081: 17,2031           21275                                    PINBRNCH
001082:
001083: 17,2032           00051        OCT51              OCT      51
001084:
001085: 43,2000                                           SETLOC   EXTVERBS
001086: 43,2000                                           BANK
001087: 43,3001                                           COUNT*   $$/EXTVB
001088:
001089:                                                                                                  #  VERB 47  MOVE LM STATE VECTOR INTO CM STATE VECTOR.
001090:
001091: 43,3001           34754        LMTOCMSV           CAF      PRIO10
001092: 43,3002           05135                           TC       FINDVAC


001094: 43,3003  E3,1554                                  EBANK=   RRECTHIS
001095: 43,3003           02033 36103                     2CADR    LMTOCM
001096:
001097: 43,3005           05205                           TC       ENDOFJOB
001098:
001099: 17,2000                                           SETLOC   EXTVRBS1
001100: 17,2000                                           BANK
001101:
001102: 17,2033                                           COUNT*   $$/EXTVB
001103: 17,2033           06006        LMTOCM             TC       INTPRET
001104: 17,2034           77624                           CALL
001105: 17,2035           27516                                    INTSTALL
001106: 17,2036           43014                           SET      BON
001107: 17,2037           04063                                    MOONTHIS
001108: 17,2040           04304                                    MOONOTH
001109: 17,2041           36044                                    LMMOVE
001110: 17,2042           77614                           CLEAR
001111: 17,2043           04263                                    MOONTHIS
001112: 17,2044           77776        LMMOVE             EXIT
001113: 17,2045           32032                           CAF      OCT51
001114: 17,2046           05607                           TC       GENTRAN
001115: 17,2047           01626                           ADRES    RRECTOTH                              #  LM STATE VECTOR INTO CM VIA GENTRAN
001116: 17,2050           01554                           ADRES    RRECTHIS
001117:
001118: 17,2051           12016                           TCF      TACHEXIT
001119:
001120:                                                                                                  #  VERB 94  DO R64 VIA ENEMA TO PICK UP IN P23.
001121:
001122: 43,2000                                           SETLOC   EXTVERBS
001123: 43,2000                                           BANK
001124: 43,3006                                           COUNT*   $$/EXTVB
001125: 43,3006           34756        VERB94             CAF      V94FLBIT
001126: 43,3007           70105                           MASK     FLAGWRD9                              #  IS V94FLAG SET
001127: 43,3010           00006                           EXTEND
001128: 43,3011           12116                           BZF      ALM/END                               #  NO - OPERATOR ERROR
001129:
001130: 43,3012           05561                           TC       DOWNFLAG
001131: 43,3013           00213                           ADRES    V94FLAG
001132:
001133: 43,3014           05354                           TC       CHECKMM                               #  IS IT P23
001134: 43,3015           00027                           MM       23         B-14
001135: 43,3016           02116                           TC       ALM/END                               #  NO - OPERATOR ERROR
001136: 43,3017           05402                           TC       PHASCHNG
001137: 43,3020           00112                           OCT      112                                   #  SET GROUP 2 TO DO R64
001138:
001139: 43,3021  01,2044               2P11SPT1           =        2.11SPOT
001140: 43,3021           02673                           TC       CLEANOUT                              #  CAUSE RESTART
001141:
001142:                                                                                                  #  V90PERF       VERB 90         DESCRIPTION
001143:                                                                                                  #        REQUEST RENDEZVOUS OUT-OF-PLANE DISPLAY (R36)


001145:                                                                                                  #        1. SET EXT VERB DISPLAY BUSY FLAG.
001146:                                                                                                  #        2. SCHEDULE R36 CALL WITH PRIORITY 10
001147:                                                                                                  #                A. DISPLAY
001148:                                                                                                  #                        TIME OF EVENT - HOURS , MINUTES , SECONDS
001149:                                                                                                  #                        Y       OUT-OF-PLANE POSITION - NAUTICAL MILES
001150:                                                                                                  #                        YDOT    OUT-OF-PLANE VELOCITY - FEET/SECOND
001151:                                                                                                  #                        PSI     ANGLE BTW LINE OF SIGHT AND FORWARD
001152:                                                                                                  #                                DIRECTION VECTOR IN HORIZONTAL PLANE - DEGREES
001153:
001154: 43,3022           02076        V90PERF            TC       TESTXACT
001155: 43,3023           35051                           CAF      PRIO7                                 #  R36.V90
001156: 43,3024           05135                           TC       FINDVAC
001157: 43,3025  40,2000                                  SBANK=   PINSUPER
001158: 43,3025  E7,1412                                  EBANK=   TIG
001159: 43,3025           02000 50107                     2CADR    R36
001160:
001161: 43,3027           15205                           TCF      ENDOFJOB
001162:
001163:                                                                                                  #  VERB 96  SET QUITFLAG TO STOP INTEGRATION.
001164:
001165: 43,3030           05547        VERB96             TC       UPFLAG                                #  QUITFLAG WILL CAUSE INTEGRATION TO EXIT
001166: 43,3031           00221                           ADRES    QUITFLAG                              #        AT NEXT TIMESTEP
001167:
001168: 43,3032           05547                           TC       UPFLAG
001169: 43,3033           00204                           ADRES    V96ONFLG
001170: 43,3034           34772                           CAF      ZERO
001171: 43,3035           04655                           TC       POSTJUMP
001172: 43,3036           10007                           CADR     V37                                   #  GO TO POO
001173:
001174: 43,3037  E7,1751                                  EBANK=   LANDMARK
001175: 43,3037           05354        V52                TC       CHECKMM                               #  IS P22 OPERATING
001176: 43,3040           00026                           MM       22         B-14
001177: 43,3041           02116                           TC       ALM/END                               #  NO
001178: 43,3042           04606                           TC       E7SETTER
001179: 43,3043           45051                           CS       PRIO7                                 #  YES  SET BITS 12,11,10 OF LANDMARK =
001180: 43,3044           71751                           MASK     LANDMARK                              #  NO. OF MARKS TO GET OFFSET MARK NO.
001181: 43,3045           55751                           TS       LANDMARK
001182:
001183: 43,3046           31747                           CA       8NN                                   #  NO. OF MARKS
001184: 43,3047           00006                           EXTEND
001185: 43,3050           74757                           MP       BIT10
001186: 43,3051           30001                           CA       L
001187: 43,3052           27751                           ADS      LANDMARK
001188: 43,3053           02117                           TC       GOPIN
001189:
001190:                                                                                                  #  VERB 67  ASTRONAUT DISPLAY OF W MATRIX
001191:
001192: 43,3054           02076        V67                TC       TESTXACT
001193: 43,3055           35047                           CAF      PRIO5
001194: 43,3056           05135                           TC       FINDVAC


001196: 43,3057  E5,1400                                  EBANK=   W
001197: 43,3057           03636 60105                     2CADR    V67CALL
001198:
001199: 43,3061           05205                           TC       ENDOFJOB
001200:
001201:                                                                                                  #  VB 45.     RESET SURFACE FLAG.
001202:
001203: 43,3062           03065        RESTSRF            TC       DOWNX
001204: 43,3063           00177                           ADRES    SURFFLAG
001205: 43,3064           03071        SETSURF            TC       UPX                                   #  VB 44. SET SURFACE FLAG
001206:


001208:
001209:                                                                                                  #  DOWNX, UPX    FLAG SETTING AND RESETTING FOR EXTENDED VERBS.
001210:
001211:                                                                                                  #        RETURN IS TO GOPIN.
001212:
001213:                                                                                                  #        CALLING SEQUENCES:
001214:
001215:                                                                                                  #                FOR DOWNX
001216:
001217:                                                                                                  #                        TC      DOWNX
001218:                                                                                                  #                        ADRES   (FLAG NAME)
001219:
001220:                                                                                                  #                FOR UPX
001221:
001222:                                                                                                  #                        ADRES   (FLAG NAME)
001223:                                                                                                  #                        TC      UPX
001224:
001225: 43,3065                                           COUNT*   $$/FLAG
001226: 43,3065           30002        DOWNX              CA       Q
001227: 43,3066           05565                           TC       DEBIT
001228: 43,3067           70001                           MASK     L
001229: 43,3070           13077                           TCF      COMXFLG
001230:
001231: 43,3071           30002        UPX                CA       Q
001232: 43,3072           67701                           AD       NEG2
001233: 43,3073           05565                           TC       DEBIT
001234: 43,3074           40000                           COM
001235: 43,3075           00006                           EXTEND
001236: 43,3076           04001                           ROR      LCHAN
001237:
001238: 43,3077           50061        COMXFLG            INDEX    ITEMP1
001239: 43,3100           54074                           TS       FLAGWRD0
001240: 43,3101           12117                           TCF      GOPIN
001241:


001243:
001244:                                                                                                  #  VERB 57 SET FULL TRACK OPTION
001245:
001246: 43,3102                                           COUNT*   $$/EXTVB
001247: 43,3102           02076        V57CALL            TC       TESTXACT
001248:
001249: 43,3103           34766        PARTRACK           CAF      BIT3                                  #  OPTION 4 SPECIFY CONDITION OF FULTKFLG
001250: 43,3104           55255                           TS       OPTIONX
001251:
001252: 43,3105           34767        PRTRCK             CAF      FULTKBIT
001253: 43,3106           70106                           MASK     FLGWRD10
001254: 43,3107           00006                           EXTEND
001255: 43,3110           13112                           BZF      +2                                    #  FULTKFLG NOT SET
001256:
001257: 43,3111           34770                           CAF      BIT1                                  #  FULTKFLG SET
001258: 43,3112           55256                           TS       OPTIONX    +1
001259: 43,3113           33131                           CAF      V04N12
001260: 43,3114           04636                           TC       BANKCALL
001261: 43,3115           20576                           CADR     GOXDSPF
001262: 43,3116           05524                           TC       ENDEXT
001263: 43,3117           05524                           TC       ENDEXT
001264: 43,3120           31256                           CA       OPTIONX    +1
001265: 43,3121           00006                           EXTEND
001266: 43,3122           13126                           BZF      +4
001267: 43,3123           05547                           TC       UPFLAG
001268: 43,3124           00243                           ADRES    FULTKFLG
001269: 43,3125           13105                           TCF      PRTRCK
001270:
001271: 43,3126           05561                           TC       DOWNFLAG
001272: 43,3127           00243                           ADRES    FULTKFLG
001273: 43,3130           13105                           TCF      PRTRCK
001274:
001275: 43,3131           01014        V04N12             VN       0412

End of include-file EXTENDED_VERBS.agc.  Parent file is MAIN.agc


