
Source Code


000002:                                                                                                  ## Copyright:   Public domain.
000003:                                                                                                  ## Filename:    FIXED_FIXED_CONSTANT_POOL.agc
000004:                                                                                                  ## Purpose:     Part of the source code for Artemis (i.e., Colossus 3),
000005:                                                                                                  ##              build 072.  This is for the Command Module's (CM)
000006:                                                                                                  ##              Apollo Guidance Computer (AGC), for
000007:                                                                                                  ##              Apollo 15-17.
000008:                                                                                                  ## Assembler:   yaYUL
000009:                                                                                                  ## Contact:     Jim Lawton <jim DOT lawton AT gmail DOT com>
000010:                                                                                                  ## Website:     www.ibiblio.org/apollo/index.html
000011:                                                                                                  ## Page Scans:  www.ibiblio.org/apollo/ScansForConversion/Artemis072/
000012:                                                                                                  ## Mod history: 2009-08-22 JL   Adapted from corresponding Comanche 055 file.
000013:                                                                                                  ##              2010-02-01 JL   Fixed build errors.
000014:                                                                                                  ##              2010-02-20 RSB  Un-##'d this header.
000015:                                                                                                  ##              2012-10-07 JL   Fixed typo in comment on p1201.
000016:                                                                                                  ##              2017-02-04 RSB  Proofed comment text by diff'ing vs Comanche 55
000017:                                                                                                  ##                              and corrected errors found.
000018:                                                                                                  ##              2017-03-16 RSB  Comment-text fixes identified in 4-way side-by-side
000019:                                                                                                  ##                              diff of Colossus237/249/Comanche55/Artemis72.
000020:


000022:    4000                                           SETLOC   FFTAG1
000023:    4000                                           BANK
000024:
000025:    4747                                           COUNT*   $$/FCONS
000026:
000027:                                                                                                  #  THE FOLLOWING TABLE OF 18 VALUES IS INDEXED. DO NOT INSERT OR REMOVE ANY QUANTITIES.
000028:
000029:    4747           37777        DPOSMAX            OCT      37777                                 #  MUST PRECEDE POSMAX
000030:    4750           37777        POSMAX             OCT      37777
000031:
000032:    4751     4751               LIMITS             =        NEG1/2
000033:
000034:    4751           57777        NEG1/2             OCT      -20000                                #  USED BY SIN ROUTINE (MUST BE TWO
000035:                                                                                                  #  LOCATIONS IN FRONT OF BIT14)
000036:
000037:                                                                                                  #  BIT TABLE
000038:
000039:    4752           40000        BIT15              OCT      40000
000040:    4753           20000        BIT14              OCT      20000
000041:    4754           10000        BIT13              OCT      10000
000042:    4755           04000        BIT12              OCT      04000
000043:    4756           02000        BIT11              OCT      02000
000044:    4757           01000        BIT10              OCT      01000
000045:    4760           00400        BIT9               OCT      00400
000046:    4761           00200        BIT8               OCT      00200
000047:    4762           00100        BIT7               OCT      00100
000048:    4763           00040        BIT6               OCT      00040
000049:    4764           00020        BIT5               OCT      00020
000050:    4765           00010        BIT4               OCT      00010
000051:    4766           00004        BIT3               OCT      00004
000052:    4767           00002        BIT2               OCT      00002
000053:    4770           00001        BIT1               OCT      00001
000054:
000055:                                                                                                  #  DO NOT DESTROY THIS COMBINATION, SINCE IT IS USED IN DOUBLE PRECISION INSTRUCTIONS.
000056:
000057:    4771           77777        NEG0               OCT      -0                                    #  MUST PRECEDE ZERO
000058:    4772           00000        ZERO               OCT      0                                     #  MUST FOLLOW NEG0
000059:                                                                                                  #  BIT1          OCT     00001
000060:                                                                                                  #  NO.WDS        OCT     2               INTERPRETER
000061:                                                                                                  #  OCTAL3        OCT     3               INTERPRETER
000062:                                                                                                  #  R3D1          OCT     4               PINBALL
000063:    4773           00005        FIVE               OCT      5
000064:                                                                                                  #  REVCNT        OCT     6               INTERPRETER
000065:    4774           00007        SEVEN              OCT      7
000066:                                                                                                  #  BIT4          OCT     00010
000067:                                                                                                  #  R2D1          OCT     11              PINBALL
000068:    4775     4322               OCT11              =        R2D1                                  #  P20S
000069:                                                                                                  #  BINCON        DEC     10              PINBALL         (OCTAL 12)
000070:    4775           00013        ELEVEN             DEC      11         B-14
000071:                                                                                                  #  OCT14         OCT     14              ALARM AND ABORT (FILLER)
000072:    4776           00015        OCT15              OCT      15
000073:                                                                                                  #  R1D1          OCT     16              PINBALL


000075:    4777           00017        LOW4               OCT      17
000076:                                                                                                  #  BIT5          OCT     00020
000077:                                                                                                  #  ND1           OCT     21              PINBALL
000078:    5000           00022        OCT22              OCT      22
000079:                                                                                                  #  VD1           OCT     23              PINBALL
000080:                                                                                                  #  OCT24         OCT     24              SERVICE ROUTINES
000081:                                                                                                  #  MD1           OCT     25              PINBALL
000082:                                                                                                  #  VBSP2LD       DEC     22              PINBALL (OCT26)
000083:                                                                                                  #  DEC23         DEC     23              AUTO MAN.       (OCT27)
000084:    5001           00030        BITS4&5            OCT      30
000085:                                                                                                  #  OCT31         OCT     31              SERVICE ROUTINES
000086:    5002           00032        CALLCODE           OCT      00032
000087:    5003     4342               OCT37              =        LOW5
000088:                                                                                                  #  LOW5          OCT     37              PINBALL
000089:    5003           00041        33DEC              DEC      33         B-14
000090:                                                                                                  #  34DEC         DEC     34              PINBALL         (OCTAL 42)
000091:                                                                                                  #  BIT6          OCT     00040
000092:    5004           00050        OCT50              OCT      50
000093:    5005           00054        LTHVACA            DEC      44         B-14
000094:    5006           00055        DEC45              DEC      45         B-14
000095:    5007           00056        MINDB              DEC      46         B-14                       #  OCT 56
000096:    5010           00060        SUPER011           OCT      60                                    #  BITS FOR SUPERBNK SETTING 011.
000097:    5011           00062        .5SEC              DEC      50         B-14
000098:    5012           00075        OCT75              OCT      75
000099:                                                                                                  #  BIT7          OCT     00100
000100:
000101:    5013     4762               SUPER100           =        BIT7                                  #  BITS FOR SUPERBNK SETTING 100
000102:                                                                                                  #  (LAST 4K OF ROPE)
000103:    5013           00110        BITS7+4            OCT      110
000104:    5014           00120        SUPER101           OCT      120                                   #  BITS FOR SUPERBNK SETTING 101
000105:                                                                                                  #  OCT121        OCT     121             SERVICE ROUTINES
000106:                                                                                                  #  (FIRST 8K OF ACM)
000107:    5015           00140        SUPER110           OCT      140                                   #  BITS FOR SUPERBNK SETTING 110.
000108:                                                                                                  #  (LAST 8K OF ACM)
000109:    5016           00144        1SEC               DEC      100        B-14
000110:                                                                                                  #  LOW7          OCT     177             INTERPRETER
000111:                                                                                                  #  BIT8          OCT     00200
000112:                                                                                                  #  OT215         OCT     215             ALARM AND ABORT
000113:                                                                                                  #  8,5           OCT     00220           P20-P25 SUNDANCE
000114:    5017           00310        2SECS              DEC      200        B-14
000115:                                                                                                  #  LOW8          OCT     377             PINBALL
000116:                                                                                                  #  BIT9          OCT     00400
000117:    5020           00620        4SECS              DEC      400        B-14
000118:    5021           00777        LOW9               OCT      777
000119:                                                                                                  #  BIT10         OCT     01000
000120:                                                                                                  #  5.5DEGS       DEC     .03056          P20-P25 SUNDANCE        (OCTAL 00765)
000121:                                                                                                  #  OCT1103       OCT     1103            ALARM AND ABORT
000122:    5022           01124        C5/2               DEC      .0363551                              #                        (OCTAL 01124)
000123:    5023           01211        V05N09             VN       0509                                  #  (SAME AS OCTAL 1211)
000124:    5024           01400        OCT1400            OCT      01400


000126:    5025     5025               7.9SEC             EQUALS   V06N22
000127:    5025           01426        V06N22             VN       0622
000128:    5026           01441        V06N33             VN       0633
000129:    5027           01442        V06N34             VN       0634
000130:    5030           01461        V06N49             VN       0649
000131:    5031           01422        V06N18             VN       0618
000132:    5032           01451        V06N41             VN       0641
000133:    5033           01474        V06N60             VN       0660
000134:    5034           01475        V06N61             VN       0661
000135:    5035           01530        V06N88             VN       0688
000136:    5036           01531        V06N89             VN       0689
000137:    5037           01532        V06N90             VN       0690
000138:    5040           01535        V06N93             VN       0693
000139:                                                                                                  #  MID5          OCT     1740            PINBALL
000140:    5041           01777        LOW10              OCT      1777
000141:                                                                                                  #  BIT11         OCT     02000
000142:                                                                                                  #  2K+3          OCT     2003            PINBALL
000143:    5042           02177        LOW7+2K            OCT      2177
000144:    5043           02400        EBANK5             OCT      02400
000145:    5044           02600        OCT2600            OCT      2600
000146:    5045           03000        PRIO3              OCT      03000
000147:    5046           03400        EBANK7             OCT      03400
000148:                                                                                                  #  LOW11         OCT     3777            PINBALL
000149:                                                                                                  #  BIT12         OCT     04000
000150:                                                                                                  #  RELTAB        OCT     04025           T4RUPT
000151:    5047           05000        PRIO5              OCT      05000
000152:    5050           06000        PRIO6              OCT      06000
000153:    5051           07000        PRIO7              OCT      07000
000154:
000155:                                                                                                  #  BIT13         OCT     10000
000156:                                                                                                  #                OCT     10003           T4RUPT  RELTAB +1D
000157:                                                                                                  #  13,7,2        OCT     10102           P20-P25 SUNDANCE
000158:                                                                                                  #  PRIO12        OCT     12000           BANKCALL
000159:    5052           13000        PRIO13             OCT      13000
000160:    5053           14000        PRIO14             OCT      14000
000161:                                                                                                  #                OCT     14031           T4RUPT  RELTAB +2D
000162:    5054           15000        PRIO15             OCT      15000
000163:    5055           16000        PRIO16             OCT      16000
000164:                                                                                                  #  85DEGS        DEC     .45556          P20-P25 SUNDANCE        (OCTAL 16450)
000165:    5056           17770        OCT17770           OCT      17770
000166:                                                                                                  #  BIT14         OCT     20000
000167:                                                                                                  #                OCT     20033           T4RUPT  RELTAB +3D
000168:    5057           21000        PRIO21             OCT      21000
000169:    6000                                           SETLOC   FFTAG6
000170:    6000                                           BANK
000171:
000172:    7644                                           COUNT*   $$/FCONS
000173:    7644           22000        PRIO22             OCT      22000                                 #  SERVICE ROUTINES
000174:    7645           24000        PRIO24             OCT      24000
000175:                                                                                                  #  5/8+1         OCT     24001           SINGLE PRECISION SUBROUTINES


000177:                                                                                                  #                OCT     24017           T4RUPT  RELTAB +4D
000178:    7646           24100        14,12,7            OCT      24100
000179:    7647           25000        PRIO25             OCT      25000
000180:    7650           26000        PRIO26             OCT      26000
000181:    7651           27000        PRIO27             OCT      27000
000182:                                                                                                  #  CHRPRIO       OCT     30000           PINBALL
000183:                                                                                                  #                OCT     30036           T4RUPT  RELTAB +5D
000184:    7652           31000        PRIO31             OCT      31000
000185:    7653           31103        C1/2               DEC      .7853134                              #                        (OCTAL 31103)
000186:    7654           32000        PRIO32             OCT      32000
000187:    7655           33000        PRIO33             OCT      33000
000188:    7656           34000        PRIO34             OCT      34000
000189:                                                                                                  #                OCT     34034           T4RUPT  RELTAB +6D
000190:    7657           35000        PRIO35             OCT      35000
000191:    7660           37000        PRIO37             OCT      37000
000192:                                                                                                  #  MID7          OCT     37600           PINBALL
000193:    7661           37766        OCT37766           OCT      37766
000194:    7662           37774        OCT37774           OCT      37774
000195:    7663           37776        OCT37776           OCT      37776
000196:                                                                                                  #  DPOSMAX       OCT     37777
000197:                                                                                                  #  BIT15         OCT     40000
000198:                                                                                                  #  OCT40001      OCT     40001           INTERPRETER (CS 1 INSTRUCTION)
000199:    7664           40010        OT40010            OCT      40010
000200:    7665           40014        DLOADCOD           OCT      40014
000201:    7666           40015        DLOAD*             OCT      40015
000202:                                                                                                  #                OCT     40023           T4RUPT  RELTAB +7D
000203:    7667           40040        BIT15+6            OCT      40040
000204:    7670           40200        OCT40200           OCT      40200
000205:                                                                                                  #                OCT     44035           T4RUPT  RELTAB +8D
000206:    7671           47777        NEG30000           OCT      47777
000207:                                                                                                  #                OCT     50037           T4RUPT  RELTAB +9D
000208:                                                                                                  #                OCT     54000           T4RUPT  RELTAB +10D
000209:    7672     4751               -BIT14             EQUALS   NEG1/2


000215:                                                                                                  #  RELTAB11      OCT     60000           T4RUPT
000216:    7672           65552        C3/2               DEC      -.3216147                             #                        (OCTAL 65552)
000217:    7673           70000        13,14,15           OCT      70000
000218:    7674           73777        -1/8               OCT      73777
000219:    7675           74000        HIGH4              OCT      74000
000220:    7676           74056        -ENDERAS           DEC      -2001      B-14                       #                        (OCTAL 74056)
000221:                                                                                                  #  HI5           OCT     76000           PINBALL
000222:    7677           77700        HIGH9              OCT      77700
000223:                                                                                                  #  -ENDVAC       DEC     -45             INTERPRETER             (OCTAL 77722)
000224:                                                                                                  #  DECNEG23      DEC     -23             AUTO MAN. (OCT77750)
000225:                                                                                                  #  -OCT10        OCT     -10                                     (OCT 77767)
000226:                                                                                                  #  NEG4          DEC     -4                                      (OCTAL 77773)
000227:    7700           77774        NEG3               DEC      -3         B-14
000228:    7701           77775        NEG2               OCT      77775
000229:    7702           77776        NEGONE             DEC      -1         B-14
000230:


000232:
000233:                                                                                                  #  DEFINED BY EQUALS
000234:
000235:                                                                                                  #  IT WOULD BE TO THE USERS ADVANTAGE TO OCCASIONALLY CHECK ANY OF THESE SYMBOLS IN ORDER TO PREVENT ANY
000236:                                                                                                  #  ACCIDENTAL DEFINITION CHANGES.
000237:
000238:    7703     7702               MINUS1             =        NEG1
000239:    7703     7702               NEG1               =        NEGONE
000240:    7703     4770               ONE                =        BIT1
000241:    7703     4767               TWO                =        BIT2
000242:    7703     6214               THREE              =        OCTAL3
000243:    7703     6214               LOW2               =        THREE
000244:    7703     4766               FOUR               =        BIT3
000245:    7703     6211               SIX                =        REVCNT
000246:    7703     4774               LOW3               =        SEVEN
000247:    7703     4765               EIGHT              =        BIT4
000248:    7703     4322               NINE               =        R2D1
000249:    7703     4355               TEN                =        BINCON
000250:    7703     4775               NOUTCON            =        ELEVEN
000251:    7703     4351               OCT23              =        VD1
000252:    7703     4353               OCT25              =        MD1
000253:    7703     4757               PRIO1              =        BIT10
000254:    7703     5024               EBANK3             =        OCT1400
000255:    7703     4756               PRIO2              =        BIT11
000256:    7703     5014               OCT120             =        SUPER101
000257:    7703     5015               OCT140             =        SUPER110
000258:    7703     4756               2K                 =        BIT11
000259:    7703     4756               EBANK4             =        BIT11
000260:    7703     4755               PRIO4              =        BIT12
000261:    7703     5045               EBANK6             =        PRIO3
000262:    7703     4754               QUARTER            =        BIT13
000263:    7703     4754               PRIO10             =        BIT13
000264:    7703     7617               OCT10001           =        CCSL
000265:    7703     4753               POS1/2             =        HALF
000266:    7703     4753               PRIO20             =        BIT14
000267:    7703     4753               HALF               =        BIT14
000268:    7703     4346               PRIO30             =        CHRPRIO
000269:    7703     4346               BIT13-14           =        PRIO30                                #  INTERPRETER USES IN PROCESSING STORECODE
000270:    7703     6440               OCT30002           =        TLOAD      +1
000271:    7703     7656               B12T14             =        PRIO34
000272:    7703     4752               NEGMAX             =        BIT15
000273:    7703     4752               VLOADCOD           =        BIT15
000274:    7703     6056               VLOAD*             =        OCT40001
000275:    7703     4076               OCT60000           =        RELTAB11
000276:    7703     4344               BANKMASK           =        HI5
000277:

End of include-file FIXED-FIXED_CONSTANT_POOL.agc.  Parent file is MAIN.agc


