
Source Code


000002:                                                                                                  ## Copyright:   Public domain.
000003:                                                                                                  ## Filename:    FRESH_START_AND_RESTART.agc
000004:                                                                                                  ## Purpose:     Part of the source code for Artemis (i.e., Colossus 3),
000005:                                                                                                  ##              build 072.  This is for the Command Module's (CM)
000006:                                                                                                  ##              Apollo Guidance Computer (AGC), for
000007:                                                                                                  ##              Apollo 15-17.
000008:                                                                                                  ## Assembler:   yaYUL
000009:                                                                                                  ## Contact:     Jim Lawton <jim DOT lawton AT gmail DOT com>
000010:                                                                                                  ## Website:     www.ibiblio.org/apollo/index.html
000011:                                                                                                  ## Page Scans:  www.ibiblio.org/apollo/ScansForConversion/Artemis072/
000012:                                                                                                  ## Mod history: 2009-07-28 JL   Adapted from corresponding Comanche 055 file.
000013:                                                                                                  ##              2009-09-03 JL   Fixed symbol names.
000014:                                                                                                  ##              2010-01-31 JL   Fixed build errors.
000015:                                                                                                  ##              2010-02-01 JL   Fixed build errors.
000016:                                                                                                  ##              2010-02-05 JL   Fixed build errors.
000017:                                                                                                  ##              2010-02-11 JL   Fixed errors on p201, p226.
000018:                                                                                                  ##              2010-02-20 RSB  Un-##'d this header.
000019:                                                                                                  ##              2010-12-29 JL   Fixed indentation.
000020:                                                                                                  ##              2017-01-28 RSB  WTIH -> WITH.
000021:


000023:
000024:                                                                                                  #  PROGRAM DESCRIPTION                                           8 APRIL, 1967
000025:                                                                                                  #                                                                SUNDISK REV 120
000026:                                                                                                  #  FUNCTIONAL DESCRIPTION
000027:
000028:                                                                                                  #  SLAP1         MAN INITIATED FRESH START
000029:                                                                                                  #        1.      EXECUTE STARTSUB
000030:                                                                                                  #        2.      TURN OFF DSKY DISCRETE-LAMPS
000031:                                                                                                  #        3.      CLEAR FAIL REGISTERS, SELF-CHECK ERROR COUNTER AND RESTART
000032:                                                                                                  #                COUNTER
000033:                                                                                                  #        4.      INITIALIZE OUTBIT CHANNEL 77
000034:                                                                                                  #        4.      EXECUTE DOFSTART
000035:
000036:                                                                                                  #  DOFSTART      MACHINE INITIATED FRESH START
000037:
000038:                                                                                                  #        1.      CLEAR SELF-CHECK REGISTERS, MODE REGISTER AND CDUZ REGISTER
000039:                                                                                                  #        2.      CLEAR PHASE TABLE
000040:                                                                                                  #        3.      INITIALIZE IMU FLAGS
000041:                                                                                                  #        4.      INITIALIZE FLAGWORDS
000042:                                                                                                  #        5.      TRANSFER CONTROL TO IDLE LOOP IN DUMMYJOB
000043:
000044:                                                                                                  #  GOPROG        HARDWARE RESTART
000045:
000046:                                                                                                  #        0.      EXECUTE STARTSUB
000047:                                                                                                  #        1.      TRANSFER CONTROL TO DOFSTART IF ANY OF THE FOLLOWING CONDITIONS
000048:                                                                                                  #                EXIST.
000049:                                                                                                  #                A.      RESTART OCCURRED DURING EXECUTION OF ERASCHK
000050:                                                                                                  #                B.      BOTH OSCILLATOR FAIL AND AGC WARNING ARE ON
000051:                                                                                                  #                C.      MARK REJECT AND EITHER NAV OR MAIN DSKY ERROR LIGHT RESET
000052:                                                                                                  #                        ARE ON.
000053:                                                                                                  #        2.      SCHEDULE A T5RUPT PROGRAM FOR THE DAP
000054:                                                                                                  #        3.      SET FLAGWRD5 BITS FOR INTWAKE ROUTINE
000055:                                                                                                  #        4.      EXTINGUISH ALL DSKY LAMPS, EXCEPT FOR PROGRAM ALARM, GIMBAL LOCK, AND
000056:                                                                                                  #                NO ATT
000057:                                                                                                  #        5.      INITIALIZE IMU FLAGS
000058:                                                                                                  #        6.      IF ENGINE COMMAND IS ON (FLAGWRD5, BIT 7), SET ENGINE ON (CHANNEL
000059:                                                                                                  #                11, BIT 13).
000060:                                                                                                  #        7.      TRANSFER CONTROL TO GOPROG3
000061:
000062:                                                                                                  #  ENEMA         SOFTWARE RESTART -- INITIATED BY MAJOR MODE CHANGE
000063:
000064:                                                                                                  #        1.      EXECUTE STARTSB2
000065:                                                                                                  #        2.      KILL PROGRAMS THAT WERE INTEGRATING OR WAITING FOR INTEGRATION
000066:                                                                                                  #                ROUTINE
000067:                                                                                                  #        3.      TRANSFER CONTROL TO GOPROG3
000068:
000069:                                                                                                  #  GOPROG3       SUBROUTINE COMMON TO GOPROG AND ENEMA
000070:
000071:                                                                                                  #        1.      TEST PHASE TABLES -- IF INCORRECT, DISPLAY ALARM 1107 AND
000072:                                                                                                  #                TRANSFER CONTROL TO DOFSTART
000073:                                                                                                  #        2.      DISPLAY MAJOR MODE
000074:


000076:
000077:                                                                                                  #        3.      IF ANY GROUPS WERE ACTIVE UPON RESTART, TRANSFER CONTROL TO THE
000078:                                                                                                  #                RESTARTS SUBROUTINE TO RESCHEDULE PENDING TASKS, LONGCALLS, AND
000079:                                                                                                  #                JOBS (P20 IS RESTARTED VIA FINDVAC)
000080:                                                                                                  #        4.      IF NO GROUPS WERE ACTIVE UPON RESTART, DISPLAY ALARM CODE
000081:                                                                                                  #                1110 (RESTART WITH NO ACTIVE GROUPS).
000082:                                                                                                  #        5.      TRANSFER CONTROL TO IDLE LOOP IN DUMMYJOB
000083:
000084:                                                                                                  #  STARTSUB      SUBROUTINE COMMON TO SLAP1 AND GOPROG
000085:
000086:                                                                                                  #        1.      CLEAR OUTBIT CHANNELS 5 AND 6
000087:                                                                                                  #        2.      INITIALIZE TIME5, TIME4, TIME3
000088:                                                                                                  #        3.      TRANSFER CONTROL TO STARTSB2
000089:
000090:                                                                                                  #  STARTSB2      SUBROUTINE COMMON TO STARTSUB AND ENEMA
000091:
000092:                                                                                                  #        1.      INTIALIZE OUTBIT CHANNELS 11,12,13, AND 14
000093:                                                                                                  #        2.      REPLACE ALL TASKS ON WAITLIST WITH ENDTASK
000094:                                                                                                  #        3.      MAKE ALL EXECUTEVE REGISTERS AVAILABLE
000095:                                                                                                  #        4.      MAKE ALL VAC AREAS AVAILABLE
000096:                                                                                                  #        5.      CLEAR DSKY REGISTERS
000097:                                                                                                  #        6.      ZERO NUMEROUS SWITCHES
000098:                                                                                                  #        7.      INITIALIZE OPTICS FLAGS
000099:                                                                                                  #        8.      INITIALIZE PIPA AND TELEMETRY FAIL FLAGS
000100:                                                                                                  #        9.      INITIALIZE DOWN TELEMETRY
000101:
000102:                                                                                                  #  INPUT/OUTPUT INITIALIZATION
000103:
000104:                                                                                                  #        A.      CALLING SEQUENCE
000105:
000106:                                                                                                  #                SLAP1 - TC POSTJUMP     OR      VERB 36,ENTER
000107:                                                                                                  #                        CADR SLAP1
000108:
000109:                                                                                                  #                ENEMA - TC POSTJUMP     ***  DO NOT CALL ENEMA WITHOUT  ***
000110:                                                                                                  #                        CADR ENEMA      ***  CONSULTING POOH PEOPLE     ***
000111:
000112:                                                                                                  #        B.      OUTPUT
000113:
000114:                                                                                                  #                ERASABLE MEMORY INITIALIZATION
000115:
000116:                                                                                                  #  PROGRAM ANALYSIS
000117:
000118:                                                                                                  #        A.      SUBROUTINES CALLED
000119:
000120:                                                                                                  #                MR.KLEAN,WAITLIST,DSPMM,ALARM,RESTARTS,FINDVAC
000121:
000122:                                                                                                  #        B.      ALARMS
000123:
000124:                                                                                                  #                1107    PHASE TABLE ERROR
000125:                                                                                                  #                1110    RESTART WITH NO ACTIVE GROUPS
000126:


000128: 05,2000                                           SETLOC   FRANDRES
000129: 05,2000                                           BANK
000130:
000131: 05,2367  E3,1400                                  EBANK=   LST1
000132:
000133: 05,2367                                           COUNT*   $$/START
000134: 05,2367           00004        SLAP1              INHINT                                         #  FRESH START. COMES HERE FROM PINBALL.
000135: 05,2370           03046                           TC       STARTSUB                              #  SUBROUTINE DOES MOST OF THE WORK.
000136:
000137: 05,2371           12376        STARTSW            TCF      SKIPSIM
000138:
000139: 05,2372           34753        STARTSIM           CAF      BIT14
000140:
000141: 05,2373           05135                           TC       FINDVAC
000142:
000143: 05,2374           77777        SIM2CADR           OCT      77777
000144:
000145: 05,2375           77777                           OCT      77777
000146: 05,2376           31241        SKIPSIM            CA       DSPTAB     +11D
000147: 05,2377           75004                           MASK     BITS4&6
000148: 05,2400           64752                           AD       BIT15
000149: 05,2401           55241                           TS       DSPTAB     +11D                       #  REQUESTED FRESH START.
000150:
000151: 05,2402           34772                           CAF      ZERO                                  #  SAME STORY ON ZEROING FAILREG.
000152: 05,2403           55365                           TS       ERCOUNT
000153: 05,2404           54375                           TS       FAILREG
000154: 05,2405           54376                           TS       FAILREG    +1
000155: 05,2406           54377                           TS       FAILREG    +2
000156: 05,2407           55306                           TS       REDOCTR
000157:
000158: 05,2410           00006                           EXTEND
000159: 05,2411           01077                           WRITE    CHAN77                                #  ZERO CHANNEL 77
000160: 05,2412           44664                           CS       PRIO12
000161: 05,2413           55322                           TS       DSRUPTSW
000162:
000163: 05,2414           34772        DOFSTART           CAF      ZERO                                  #  DO A FRESH START.
000164: 05,2415           55360                           TS       ERESTORE                              #  ***** MUST NOT BE REMOVED FROM DOFSTART
000165: 05,2416           55362                           TS       SMODE                                 #  ***** MUST NOT BE REMOVED FROM DOFSTART
000166: 05,2417           55501                           TS       UPSVFLAG                              #  UPDATE STATE VECTOR REQUEST FLAGWORD
000167: 05,2420           00006                           EXTEND
000168: 05,2421           01005                           WRITE    CHAN5                                 #  TURN OFF RCS JETS
000169: 05,2422           00006                           EXTEND
000170: 05,2423           01006                           WRITE    CHAN6                                 #  TURN OFF RCS JETS
000171: 05,2424           00006                           EXTEND
000172: 05,2425           01011                           WRITE    DSALMOUT                              #  ZERO CHANNEL 11
000173: 05,2426           00006                           EXTEND
000174: 05,2427           01012                           WRITE    CHAN12                                #  ZERO CHANNEL 12
000175: 05,2430           00006                           EXTEND
000176: 05,2431           01013                           WRITE    CHAN13                                #  ZERO CHANNEL 13
000177: 05,2432           00006                           EXTEND


000179: 05,2433           01014                           WRITE    CHAN14                                #  ZERO CHANNEL 14
000180: 05,2434           55331                           TS       WTOPTION
000181: 05,2435           54332                           TS       DNLSTCOD
000182:
000183: 05,2436           54370                           TS       NVSAVE
000184: 05,2437           55275                           TS       EBANKTEM
000185: 05,2440           54772                           TS       TRKMKCNT
000186: 05,2441           54771                           TS       VHFCNT
000187: 05,2442           55247                           TS       EXTVBACT
000188:
000189: 05,2443           54735                           TS       TRATE
000190: 05,2444           54736                           TS       SRATE
000191: 05,2445           54740                           TS       TOLD
000192: 05,2446           54741                           TS       SOLD
000193: 05,2447           41241                           CS       DSPTAB     +11D
000194: 05,2450           75004                           MASK     BITS4&6
000195: 05,2451           10000                           CCS      A
000196: 05,2452           02456                           TC       +4
000197: 05,2453           35004                           CA       BITS4&6
000198: 05,2454           00006                           EXTEND                                         #  THE IMU WAS IN COARSE ALIGN IN GIMBAL
000199: 05,2455           05012                           WOR      CHAN12                                #  LOCK, SO PUT IT BACK INTO COARSE ALIGN.
000200: 05,2456           02536                           TC       MR.KLEAN
000201:
000202: 05,2457           44772                           CS       ZERO
000203: 05,2460           55214                           TS       MODREG
000204:
000205: 05,2461           34346                           CAF      PRIO30
000206: 05,2462           54365                           TS       RESTREG
000207:
000208: 05,2463           33247                           CAF      IM30INIF                              #  FRESH START IMU INITIALIZATION.
000209: 05,2464           55333                           TS       IMODES30
000210:
000211: 05,2465           37702                           CAF      NEGONE
000212: 05,2466           55323                           TS       OPTIND                                #  KILL COARSE OPTICS
000213:
000214: 05,2467           33251                           CAF      OPTINITF
000215: 05,2470           55337                           TS       OPTMODES
000216:
000217: 05,2471           35055                           CAF      IM33INIT
000218: 05,2472           55334                           TS       IMODES33
000219:
000220: 05,2473           00006                           EXTEND                                         #  LET T5 IDLE.
000221: 05,2474           33231                           DCA      T5IDLER
000222: 05,2475           52113                           DXCH     T5LOC
000223:
000224: 05,2476           33252                           CA       SWINIT
000225: 05,2477           54074                           TS       STATE
000226:
000227: 05,2500           30075                           CA       FLAGWRD1
000228: 05,2501           74755                           MASK     NOP01BIT                              #  LEAVE NODOP01 FLAG UNTOUCHED


000230: 05,2502           63253                           AD       SWINIT     +1
000231: 05,2503           54075                           TS       FLAGWRD1
000232:
000233: 05,2504           33254                           CA       SWINIT     +2
000234: 05,2505           54076                           TS       STATE      +2
000235:
000236: 05,2506           30077                           CA       FLAGWRD3
000237: 05,2507           74754                           MASK     REFSMBIT
000238: 05,2510           63255                           AD       SWINIT     +3
000239: 05,2511           54077                           TS       FLAGWRD3
000240:
000241: 05,2512           00006                           EXTEND
000242: 05,2513           33257                           DCA      SWINIT     +4
000243: 05,2514           52101                           DXCH     STATE      +4
000244: 05,2515           00006                           EXTEND
000245: 05,2516           33261                           DCA      SWINIT     +6
000246: 05,2517           52103                           DXCH     STATE      +6
000247: 05,2520           30104                           CA       FLAGWRD8
000248: 05,2521           72562                           MASK     OCT6200                               #  CMOONFLG, LMOONFLG, AND SUFFLAG
000249: 05,2522           63262                           AD       SWINIT     +8D
000250: 05,2523           54104                           TS       FLAGWRD8
000251:
000252: 05,2524           33263                           CA       SWINIT     +9D
000253: 05,2525           54105                           TS       STATE      +9D
000254:
000255: 05,2526           34756                           CAF      HDSUPBIT
000256: 05,2527           70106                           MASK     FLGWRD10
000257: 05,2530           63264                           AD       SWINIT     +10D
000258: 05,2531           54106                           TS       FLGWRD10
000259:
000260: 05,2532           33265                           CAF      SWINIT     +11D
000261: 05,2533           54107                           TS       FLGWRD11
000262:
000263: 05,2534           04655        ENDRSTRT           TC       POSTJUMP
000264: 05,2535           03173                           CADR     DUMMYJOB   +2                         #  DOES A RELINT.  (IN A SWITCHED BANK.)
000265:
000266: 05,2536           00004        MR.KLEAN           INHINT
000267: 05,2537           00006                           EXTEND
000268: 05,2540           34772                           DCA      NEG0
000269: 05,2541           53160                           DXCH     -PHASE2
000270: 05,2542           00006        POOKLEAN           EXTEND
000271: 05,2543           34772                           DCA      NEG0
000272: 05,2544           53164                           DXCH     -PHASE4
000273: 05,2545           00006                           EXTEND
000274: 05,2546           34772                           DCA      NEG0
000275: 05,2547           53156                           DXCH     -PHASE1
000276: 05,2550           00006        V37KLEAN           EXTEND
000277: 05,2551           34772                           DCA      NEG0
000278: 05,2552           53162                           DXCH     -PHASE3
000279: 05,2553           00006                           EXTEND


000281: 05,2554           34772                           DCA      NEG0
000282: 05,2555           53166                           DXCH     -PHASE5
000283: 05,2556           00006        UPKLEAN            EXTEND
000284: 05,2557           34772                           DCA      NEG0
000285: 05,2560           53170                           DXCH     -PHASE6
000286: 05,2561           00002                           TC       Q
000287:
000288: 05,2562           06200        OCT6200            OCT      6200
000289:


000291:                                                                                                  #  COMES HERE FROM LOCATION 4000, GOJAM, RESTART ANY PROGRAMS WHICH MAY HAVE BEEN RUNNING AT THE TIME.
000292:
000293: 05,2563           25306        GOPROG             INCR     REDOCTR                               #  ADVANCE RESTART COUNTER.
000294:
000295: 05,2564           22002                           LXCH     Q
000296: 05,2565           00006                           EXTEND
000297: 05,2566           04007                           ROR      SUPERBNK
000298: 05,2567           53433                           DXCH     RSBBQ
000299: 05,2570           04636                           TC       BANKCALL                              #  STORE ERASABLES FOR DEBUGGING PURPOSES.
000300: 05,2571           40000                           CADR     VAC5STOR
000301: 05,2572           34752                           CA       BIT15                                 #  TEST OSC FAIL BIT TO SEE IF WE HAVE
000302: 05,2573           00006                           EXTEND                                         #  HAD A POWER TRANSIENT. IF SO, ATTEMPT
000303: 05,2574           03033                           WAND     CHAN33                                #  A RESTART. IF NOT, CHECK THE PRESENT
000304: 05,2575           00006                           EXTEND                                         #  STATE OF AGC WARNING BIT.
000305: 05,2576           12604                           BZF      BUTTONS
000306:
000307: 05,2577           34753                           CA       BIT14                                 #  IF AGC WARNING ON (BIT = 0), DO A
000308: 05,2600           00006                           EXTEND                                         #  FRESH START ON ASSUMPTION THAT
000309: 05,2601           02033                           RAND     CHAN33                                #  WE ARE IN A RESTART LOOP.
000310: 05,2602           00006                           EXTEND
000311: 05,2603           13044                           BZF      NONAVKEY   +1
000312:
000313: 05,2604           03023        BUTTONS            TC       LIGHTSET                              #  MAKE FRESH START CHECKS BEFORE ERESTORE.
000314:
000315:                                                                                                  #  ERASCHK TEMPORARILY STORES THE CONTENST OF TWO ERASABLE LOCATIONS, X
000316:                                                                                                  #  AND X+1 INTO SKEEP5 AND SKEEP6. IT ALSO STORES X INTO SKEEP7 AND
000317:                                                                                                  #  ERESTORE. IF ERASCHK IS INTERRUPTED BY A RESTART, C(ERESTORE) SHOULD
000318:                                                                                                  #  EQUAL C(SKEEP7), AND SHOULD BE A + NUMBER LESS THAN 2000 OCT.  OTHERWISE
000319:                                                                                                  #  C(ERESTORE) SHOULD EQUAL +0.
000320:
000321: 05,2605           34344                           CAF      HI5
000322: 05,2606           71360                           MASK     ERESTORE
000323: 05,2607           00006                           EXTEND
000324: 05,2610           12612                           BZF      +2                                    #  IF ERESTORE NOT = +0 OR +N LESS THAN 2K,
000325: 05,2611           13044                           TCF      NONAVKEY   +1                         #  DOUBT E MEMORY AND DO A FRESH START
000326: 05,2612           41360                           CS       ERESTORE
000327: 05,2613           00006                           EXTEND
000328: 05,2614           12631                           BZF      ELRSKIP    -1
000329: 05,2615           61377                           AD       SKEEP7
000330: 05,2616           00006                           EXTEND
000331: 05,2617           12621                           BZF      +2                                    #  = SKEEP7, RESTORE E MEMORY.
000332: 05,2620           13044                           TCF      NONAVKEY   +1                         #  NOT = SKEEP7, DOUBT EMEM, DO FRESH START
000333: 05,2621           31374                           CA       SKEEP4
000334: 05,2622           54003                           TS       EBANK                                 #  EBANK OF E MEMORY THAT WAS UNDER TEST.
000335: 05,2623           00006                           EXTEND                                         #  (NOT DXCH SINCE THIS MIGHT HAPPEN AGAIN)
000336: 05,2624           31376                           DCA      SKEEP5
000337: 05,2625           51377                           INDEX    SKEEP7
000338: 05,2626           52001                           DXCH     0000                                  #  E MEMORY RESTORED.
000339: 05,2627           34772                           CA       ZERO
000340: 05,2630           55360                           TS       ERESTORE


000342: 05,2631           03046                 -1        TC       STARTSUB                              #  DO INITIALIZATION AFTER ERASE RESTORE.
000343: 05,2632           30102        ELRSKIP            CA       FLAGWRD6                              #  RESTART AUTOPILOTS
000344: 05,2633           74076                           MASK     DPCONFIG
000345: 05,2634           00006                           EXTEND
000346: 05,2635           74766                           MP       BIT3                                  #  BITS 15,14    00      T5IDLOC
000347: 05,2636           76211                           MASK     SIX                                   #                01      REDORCS
000348: 05,2637           00006                           EXTEND                                         #                10      REDOTVC
000349: 05,2640           50000                           INDEX    A                                     #                11      REDOSAT
000350: 05,2641           33231                           DCA      T5IDLER
000351: 05,2642           52113                           DXCH     T5LOC
000352:
000353: 05,2643           44753                           CS       INTFLBIT
000354: 05,2644           70106                           MASK     FLGWRD10
000355: 05,2645           54106                           TS       FLGWRD10
000356:
000357: 05,2646           31337                           CA       OPTMODES
000358: 05,2647           75001                           MASK     OPTINITR
000359: 05,2650           64762                           AD       OCDUFBIT
000360: 05,2651           55337                           TS       OPTMODES
000361:
000362: 05,2652           34763                           CAF      NOIMUDAP
000363: 05,2653           71334                           MASK     IMODES33
000364: 05,2654           65055                           AD       IM33INIT
000365: 05,2655           55334                           TS       IMODES33
000366:
000367: 05,2656           34772                           CAF      ZERO
000368: 05,2657           54740                           TS       TOLD
000369: 05,2660           54741                           TS       SOLD
000370: 05,2661           33250                           CA       9,6,4                                 #  LEAVE PROG ALARM, GIMBAL LOCK, NO ATT
000371: 05,2662           71241                           MASK     DSPTAB     +11D                       #  LAMPS INTACT ON HARDWARE RESTART
000372: 05,2663           64752                           AD       BIT15
000373: 05,2664           57241                           XCH      DSPTAB     +11D
000374: 05,2665           74765                           MASK     BIT4                                  #  IF NO ATT LAMP WAS ON, LEAVE ISS IN
000375: 05,2666           00006                           EXTEND                                         #  COARSE ALIGN
000376: 05,2667           12676                           BZF      NOCOARSE
000377: 05,2670           04714                           TC       IBNKCALL                              #  IF NO ATT LAMP ON, RETURN ISS TO
000378: 05,2671           17070                           CADR     SETCOARS                              #        COARSE ALIGN.
000379:
000380: 05,2672           36211                           CAF      SIX
000381: 05,2673           05233                           TC       WAITLIST
000382: 05,2674  E3,1474                                  EBANK=   CDUIND
000383: 05,2674           03064 16063                     2CADR    CA+ECE
000384:
000385: 05,2676           33240        NOCOARSE           CAF      IFAILINH                              #  LEAVE FAILURE INHIBITS INTACT ON
000386: 05,2677           71333                           MASK     IMODES30                              #        HARDWARE RESTART. RESET ALL
000387: 05,2700           67660                           AD       IM30INIR                              #        FAILURE CODES.
000388: 05,2701           55333                           TS       IMODES30
000389:
000390: 05,2702           40101                           CS       FLAGWRD5
000391: 05,2703           74762                           MASK     ENGONBIT


000393: 05,2704           10000                           CCS      A
000394: 05,2705           12730                           TCF      GOPROG3
000395: 05,2706           34754                           CAF      BIT13
000396: 05,2707           00006                           EXTEND
000397: 05,2710           05011                           WOR      DSALMOUT                              #  TURN ENGINE ON
000398: 05,2711           12730                           TCF      GOPROG3
000399: 05,2712           00004        ENEMA              INHINT
000400: 05,2713           03023                           TC       LIGHTSET                              #  EXIT TO DOFSTART IF ERROR RESET AND
000401: 05,2714           03054                           TC       STARTSB2                              #  MARK REJECT DEPRESSED SIMULTANEOUSLY
000402: 05,2715           44753                           CS       INTFLBIT
000403: 05,2716           70106                           MASK     FLGWRD10
000404: 05,2717           54106                           TS       FLGWRD10
000405:
000406: 05,2720           40102                           CS       FLAGWRD6                              #  IS TVC ON
000407: 05,2721           74076                           MASK     DPCONFIG
000408: 05,2722           00006                           EXTEND
000409: 05,2723           62730                           BZMF     GOPROG3                               #  NO
000410:
000411: 05,2724           35011                           CAF      .5SEC                                 #  YES, CALL TVCEXEC TASK WHICH WAS KILLED
000412: 05,2725           05233                           TC       WAITLIST                              #        IN STARTSB2.
000413: 05,2726  E6,1446                                  EBANK=   CNTR
000414: 05,2726           03037 34066                     2CADR    TVCEXEC
000415:
000416: 05,2730           30102        GOPROG3            CA       FLAGWRD6
000417: 05,2731           74076                           MASK     DPCONFIG
000418: 05,2732           00006                           EXTEND
000419: 05,2733           62744                           BZMF     GOPROG4
000420: 05,2734           34764                           CAF      TRACKBIT
000421: 05,2735           70075                           MASK     FLAGWRD1
000422: 05,2736           10000                           CCS      A
000423: 05,2737           12744                           TCF      GOPROG4
000424: 05,2740           04611                           TC       E6SETTER
000425: 05,2741           04463                           TC       STOPRATE
000426: 05,2742           35024                           CAF      EBANK3
000427: 05,2743           54003                           TS       EBANK
000428: 05,2744           34773        GOPROG4            CAF      NUMGRPS                               #  VERIFY PHASE TABLE AGREEMENTS
000429: 05,2745           54161        PCLOOP             TS       MPAC       +5
000430: 05,2746           60000                           DOUBLE
000431: 05,2747           00006                           EXTEND
000432: 05,2750           50000                           INDEX    A
000433: 05,2751           31156                           DCA      -PHASE1                               #  COMPLEMENT INTO A, DIRECT INTO L.
000434: 05,2752           00006                           EXTEND
000435: 05,2753           06001                           RXOR     LCHAN                                 #  RESULT MUST BE -0 FOR AGREEMENT.
000436: 05,2754           10000                           CCS      A
000437: 05,2755           13012                           TCF      PTBAD                                 #  RESTART FAILURE.
000438: 05,2756           13012                           TCF      PTBAD
000439: 05,2757           13012                           TCF      PTBAD
000440:
000441: 05,2760           10161                           CCS      MPAC       +5                         #  PROCESS ALL RESTART GROUPS.
000442: 05,2761           12745                           TCF      PCLOOP


000444: 05,2762           54162                           TS       MPAC       +6                         #  SET TO +0.
000445: 05,2763           05350                           TC       MMDSPLAY                              #  DISPLAY MAJOR MODE
000446:
000447: 05,2764           00004                           INHINT                                         #  RELINT DONE IN MMDSPLAY
000448:
000449: 05,2765           34773                           CAF      NUMGRPS                               #  SEE IF ANY GROUPS RUNNING.
000450: 05,2766           54161        NXTRST             TS       MPAC       +5
000451: 05,2767           60000                           DOUBLE
000452: 05,2770           50000                           INDEX    A
000453: 05,2771           11156                           CCS      PHASE1
000454: 05,2772           12774                           TCF      PACTIVE                               #  PNZ - GROUP ACTIVE.
000455: 05,2773           13001                           TCF      PINACT                                #  +0 - GROUP NOT RUNNING.
000456:
000457: 05,2774           54154        PACTIVE            TS       MPAC
000458: 05,2775           24154                           INCR     MPAC                                  #  ABS OF PHASE.
000459: 05,2776           24162                           INCR     MPAC       +6                         #  INDICATE GROUP DEMANDS PRESENT.
000460: 05,2777           04636                           TC       BANKCALL
000461: 05,3000           03467                           CADR     RESTARTS
000462:
000463: 05,3001           10161        PINACT             CCS      MPAC       +5                         #  PROCESS ALL RESTART GROUPS.
000464: 05,3002           12766                           TCF      NXTRST
000465:
000466: 05,3003           10162                           CCS      MPAC       +6                         #  NO, CHECK PHASE ACTIVITY FLAG
000467: 05,3004           12534                           TCF      ENDRSTRT                              #  PHASE ACTIVE
000468: 05,3005           34752                           CAF      BIT15                                 #  IS MODE -0
000469: 05,3006           71214                           MASK     MODREG
000470: 05,3007           00006                           EXTEND
000471: 05,3010           14103                           BZF      GOTOPOOH                              #  NO
000472: 05,3011           12534                           TCF      ENDRSTRT                              #  YES
000473: 05,3012           05671        PTBAD              TC       ALARM                                 #  SET ALARM TO SHOW PHASE TABLE FAILURE.
000474: 05,3013           01107                           OCT      1107
000475:
000476: 05,3014           12414                           TCF      DOFSTART                              #  IN R21.
000477:
000478:                                                                                                  #  ******** ****** ******
000479:
000480:                                                                                                  #  DO NOT USE GOPROG2 OR ENEMA WITHOUT CONSULTING POOH PEOPLE.
000481:
000482: 05,3015           00004        GOPROG2            INHINT
000483: 05,3016           03054                           TC       STARTSB2
000484: 05,3017           44753                           CS       INTFLBIT
000485: 05,3020           70106                           MASK     FLGWRD10
000486: 05,3021           54106                           TS       FLGWRD10
000487: 05,3022           12744                           TCF      GOPROG4
000488: 05,3023     4754               OCT10000           =        BIT13
000489: 05,3023     4346               OCT30000           =        PRIO30
000490: 05,3023           34762        LIGHTSET           CAF      BIT7                                  #  DOFSTART IF MARK REJECT AND EITHER
000491: 05,3024           00006                           EXTEND                                         #  ERROR LIGHT RESET BUTTONS ARE DEPRESSED
000492: 05,3025           02016                           RAND     NAVKEYIN
000493: 05,3026           00006                           EXTEND


000495: 05,3027           13043                           BZF      NONAVKEY                              #  NO MARK REJECT
000496: 05,3030           34342                           CAF      OCT37
000497: 05,3031           00006                           EXTEND
000498: 05,3032           02016                           RAND     NAVKEYIN                              #  NAV DSKY KEYCODES,MARK,MARK REJECT
000499: 05,3033           63246                           AD       -ELR
000500: 05,3034           00006                           EXTEND
000501: 05,3035           13044                           BZF      NONAVKEY   +1
000502: 05,3036           00006                           EXTEND
000503: 05,3037           00015                           READ     MNKEYIN                               #  MAIN DSKY KEYCODES
000504: 05,3040           63246                           AD       -ELR
000505: 05,3041           00006                           EXTEND
000506: 05,3042           13044                           BZF      +2
000507:
000508: 05,3043           00002        NONAVKEY           TC       Q
000509:
000510: 05,3044           03046                 +1        TC       STARTSUB
000511: 05,3045           12414                           TCF      DOFSTART
000512: 05,3046           33241        STARTSUB           CAF      LDNPHAS1                              #  SET POINTER SO NEXT 20MS DOWNRUPT WILL
000513: 05,3047           54334                           TS       DNTMGOTO                              #  CAUSE THE CURRENT DOWNLIST TO BE
000514:                                                                                                  #  INTERRUPTED AND START SENDING FROM THE
000515:                                                                                                  #  BEGINNING OF THE CURRENT DOWNLIST.
000516:
000517: 05,3050           37662                           CAF      OCT37774                              #  37774 TO TIME5
000518: 05,3051           54030                           TS       TIME5
000519: 05,3052           64770                           AD       ONE                                   #  37775 TO TIME4
000520: 05,3053           54027                           TS       TIME4
000521:
000522: 05,3054           33244        STARTSB2           CAF      OCT77603                              #  TURN OFF UPLINK ACTY, TEMP CAUTION, KR,
000523: 05,3055           00006                           EXTEND                                         #  FLASH, OP. ERROR, LEAVE OTHERS UNCHANGED
000524: 05,3056           03011                           WAND     DSALMOUT
000525:
000526: 05,3057           34750                           CAF      POSMAX                                #  37777 to TIME3.
000527: 05,3060           54026                           TS       TIME3
000528:
000529: 05,3061           33245                           CAF      OCT74777                              #  TURN OFF TEST ALARMS, STANDBY ENABLE.
000530: 05,3062           00006                           EXTEND
000531: 05,3063           03013                           WAND     CHAN13
000532: 05,3064           34753                           CAF      R21BIT                                #  CLEAR BITS
000533: 05,3065           64755                           AD       P21BIT
000534: 05,3066           64757                           AD       SKIPVBIT                              #  NOW SET SKIPVHF FLAG.
000535: 05,3067           40000                           COM
000536: 05,3070           70076                           MASK     FLAGWRD2
000537: 05,3071           64757                           AD       SKIPVBIT                              #  NOW SET SKIPVHF FLAG.
000538: 05,3072           54076                           TS       FLAGWRD2
000539: 05,3073           44765                           CS       MARKBIT
000540: 05,3074           70075                           MASK     FLAGWRD1
000541: 05,3075           54075                           TS       FLAGWRD1
000542:
000543: 05,3076           44765                           CS       CYC61BIT
000544: 05,3077           70074                           MASK     FLAGWRD0


000546: 05,3100           54074                           TS       FLAGWRD0
000547: 05,3101  E3,1400                                  EBANK=   LST1
000548: 05,3101           35024                           CAF      EBANK3
000549: 05,3102           54003                           TS       EBANK                                 #  SET FOR E3
000550:
000551: 05,3103           34751                           CAF      NEG1/2                                #  INITIALIZE WAITLIST DELTA-TS.
000552: 05,3104           55407                           TS       LST1       +7
000553: 05,3105           55406                           TS       LST1       +6
000554: 05,3106           55405                           TS       LST1       +5
000555: 05,3107           55404                           TS       LST1       +4
000556: 05,3110           55403                           TS       LST1       +3
000557: 05,3111           55402                           TS       LST1       +2
000558: 05,3112           55401                           TS       LST1       +1
000559: 05,3113           55400                           TS       LST1
000560:
000561: 05,3114           45274                           CS       ENDTASK
000562: 05,3115           55410                           TS       LST2
000563: 05,3116           55412                           TS       LST2       +2
000564: 05,3117           55414                           TS       LST2       +4
000565: 05,3120           55416                           TS       LST2       +6
000566: 05,3121           55420                           TS       LST2       +8D
000567: 05,3122           55422                           TS       LST2       +10D
000568: 05,3123           55424                           TS       LST2       +12D
000569: 05,3124           55426                           TS       LST2       +14D
000570: 05,3125           55430                           TS       LST2       +16D
000571: 05,3126           45275                           CS       ENDTASK    +1
000572: 05,3127           55411                           TS       LST2       +1
000573: 05,3130           55413                           TS       LST2       +3
000574: 05,3131           55415                           TS       LST2       +5
000575: 05,3132           55417                           TS       LST2       +7
000576: 05,3133           55421                           TS       LST2       +9D
000577: 05,3134           55423                           TS       LST2       +11D
000578: 05,3135           55425                           TS       LST2       +13D
000579: 05,3136           55427                           TS       LST2       +15D
000580: 05,3137           55431                           TS       LST2       +17D
000581:
000582: 05,3140           44772                           CS       ZERO                                  #  MAKE ALL EXECUTIVE REGISTER SETS
000583: 05,3141           54167                           TS       PRIORITY                              #  AVAILABLE.
000584: 05,3142           54203                           TS       PRIORITY   +12D
000585: 05,3143           54217                           TS       PRIORITY   +24D
000586: 05,3144           54233                           TS       PRIORITY   +36D
000587: 05,3145           54247                           TS       PRIORITY   +48D
000588: 05,3146           54263                           TS       PRIORITY   +60D
000589: 05,3147           54277                           TS       PRIORITY   +72D
000590:
000591: 05,3150           55322                           TS       DSRUPTSW
000592: 05,3151           54067                           TS       NEWJOB                                #  SHOWS NO ACTIVE JOBS.
000593:
000594: 05,3152           33243                           CAF      VAC1ADRC                              #  MAKE ALL VAC AREAS AVAILABLE.
000595: 05,3153           54400                           TS       VAC1USE


000597: 05,3154           65005                           AD       LTHVACA
000598: 05,3155           54454                           TS       VAC2USE
000599: 05,3156           65005                           AD       LTHVACA
000600: 05,3157           54530                           TS       VAC3USE
000601: 05,3160           65005                           AD       LTHVACA
000602: 05,3161           54604                           TS       VAC4USE
000603: 05,3162           65005                           AD       LTHVACA
000604: 05,3163           54660                           TS       VAC5USE
000605:
000606: 05,3164           34355                           CAF      TEN                                   #  BLANK DSKY REGISTERS (PROGRAM,VERB,NOUN,
000607:                                                                                                  #  R1,R2,R3)
000608: 05,3165           54154        DSPOFF             TS       MPAC
000609: 05,3166           44755                           CS       BIT12
000610: 05,3167           50154                           INDEX    MPAC
000611: 05,3170           55226                           TS       DSPTAB
000612: 05,3171           10154                           CCS      MPAC
000613: 05,3172           13165                           TCF      DSPOFF
000614:
000615: 05,3173           55000                           TS       DELAYLOC
000616: 05,3174           55001                           TS       DELAYLOC   +1
000617: 05,3175           55002                           TS       DELAYLOC   +2
000618: 05,3176           55003                           TS       DELAYLOC   +3
000619: 05,3177           54045                           TS       INLINK
000620: 05,3200           55201                           TS       DSPCNT
000621: 05,3201           55245                           TS       CADRSTOR
000622: 05,3202           55216                           TS       REQRET
000623: 05,3203           55220                           TS       CLPASS
000624: 05,3204           55215                           TS       DSPLOCK
000625: 05,3205           55223                           TS       MONSAVE                               #  KILL MONITOR
000626: 05,3206           55224                           TS       MONSAVE1
000627: 05,3207           55204                           TS       VERBREG
000628: 05,3210           55205                           TS       NOUNREG
000629: 05,3211           55246                           TS       DSPLIST
000630: 05,3212           55335                           TS       IMUCADR
000631: 05,3213           55324                           TS       LGYRO
000632: 05,3214           54100                           TS       FLAGWRD4                              #  KILL INTERFACE DISPLAYS
000633: 05,3215           54301                           TS       MARKINDX
000634: 05,3216           55247                           TS       EXTVBACT
000635: 05,3217           34775                           CAF      NOUTCON
000636: 05,3220           55221                           TS       NOUT
000637:
000638: 05,3221           33242                           CAF      LESCHK                                #  SELF CHECK GO-TO REGISTER.
000639: 05,3222           55361                           TS       SELFRET
000640:
000641: 05,3223           44351                           CS       VD1
000642: 05,3224           55202                           TS       DSPCOUNT
000643:
000644: 05,3225           00002                           TC       Q
000645: 05,3226           30001        T5IDLOC            CA       L                                     #  T5RUPT COMES HERE EVERY 163.84 SECS
000646: 05,3227           15326                           TCF      NOQRSM     +1                         #  WHEN NOBODY IS USING IT.
000647:


000649: 05,3230  E6,1645                                  EBANK=   OGANOW
000650: 05,3230           03226 12066  T5IDLER            2CADR    T5IDLOC
000651:
000652: 05,3232  E6,1645                                  EBANK=   OGANOW
000653: 05,3232           02123 42066                     2CADR    REDORCS
000654:
000655: 05,3234  E6,1645                                  EBANK=   OGANOW
000656: 05,3234           03222 34066                     2CADR    REDOTVC
000657:
000658: 05,3236  E6,1645                                  EBANK=   OGANOW
000659: 05,3236           02000 54066                     2CADR    REDOSAT
000660:
000661: 05,3240           00435        IFAILINH           OCT      435
000662: 05,3241           03446        LDNPHAS1           GENADR   DNPHASE1
000663: 05,3242           03270        LESCHK             GENADR   SELFCHK
000664: 05,3243           00400        VAC1ADRC           ADRES    VAC1USE
000665: 05,3244           77603        OCT77603           OCT      77603
000666: 05,3245           74777        OCT74777           OCT      74777
000667: 05,3246     4773               NUMGRPS            EQUALS   FIVE
000668: 05,3246           77755        -ELR               OCT      -22                                   #  -ERROR LIGHT RESET KEY CODE.
000669: 05,3247           37411        IM30INIF           OCT      37411                                 #  INHIBITS IMU FAIL FOR 5 SEC AND PIP ISSW
000670: 05,3250     7660               IM30INIR           =        PRIO37
000671: 05,3250     5055               IM33INIT           =        PRIO16                                #  NO PIP OR TM FAIL SIGNALS.
000672: 05,3250           00450        9,6,4              OCT      450
000673: 05,3251           00130        OPTINITF           OCT      130
000674: 05,3252     5001               OPTINITR           =        BITS4&5
000675: 05,3252           00000        SWINIT             OCT      0
000676: 05,3253           00000                           OCT      0
000677: 05,3254           00000                           OCT      0
000678: 05,3255           00000                           OCT      0
000679:
000680: 05,3256           00000                           OCT      0
000681: 05,3257           00200                           OCT      00200
000682: 05,3260           00004                           OCT      00004                                 #  .05GSW
000683: 05,3261           00000                           OCT      0
000684: 05,3262           00000                           OCT      0
000685: 05,3263           00000                           OCT      0
000686: 05,3264           00000                           OCT      0
000687: 05,3265           00000                           OCT      0


000689:                                                                                                  #  ROUTINE NAME          GOTOPOOH -- ENTRANCE TO ROUTINE R00 (SELECTION OF NEW PROGRAM VIA V37)
000690:                                                                                                  #  FUNCTIONAL DESCRIPTION
000691:
000692:                                                                                                  #        1. FLASH V37    TO REQUEST SELECTION OF NEW PROGRAM
000693:
000694:    4000                                           SETLOC   FFTAG10
000695:    4000                                           BANK
000696:
000697:    4103                                           COUNT*   $$/POO
000698:    4103           05561        GOTOPOOH           TC       DOWNFLAG
000699:    4104           00236                           ADRES    AUTOSEQ
000700:    4105           05402        MNKGOPOO           TC       PHASCHNG
000701:    4106           05024                           OCT      05024
000702:    4107           13000                           OCT      13000
000703:    4110           04655                           TC       POSTJUMP
000704:    4111           10000                           CADR     GOPOOFIX
000705:    4112           34762        AUTOCHK            CAF      AUTSQBIT                              #  IS THIS AN AUTO SEQUENCE
000706:    4113           70106                           MASK     FLGWRD10
000707:    4114           00006                           EXTEND
000708:    4115           16711                           BZF      TCQ                                   #  NO, RETURN TO CALLER
000709:    4116           05402        AUTOCHK1           TC       PHASCHNG
000710:    4117           05024                           OCT      05024
000711:    4120           13000                           OCT      13000
000712:
000713:                                                                                                  #  GROUP 4 USE IS OK SINCE V37 TO FOLLOW
000714:    4121           34754                           CAF      BIT13
000715:    4122           56004                           XCH      FBANK                                 #  INCORRECT IF P80'S NOT IN BANK 4 (BIT13)
000716:    4123           01012                           TC       AUTPOINT
000717: 04,2000                                           SETLOC   VERB37
000718: 04,2000                                           BANK
000719:
000720: 04,2000                                           COUNT*   $$/POO
000721: 04,2000           02767        GOPOOFIX           TC       INITSUB
000722: 04,2001           05531                           TC       CLEARMRK   +2
000723: 04,2002           04112                           TC       AUTOCHK
000724: 04,2003           32006                           CAF      V37N99
000725: 04,2004           05535                           TC       VNFLASH
000726: 04,2005           02003                           TC       -2
000727:
000728: 04,2006           11343        V37N99             VN       3799
000729:


000731:                                                                                                  #  PROGRAM NAME          V37                             ASSEMBLY        SUNDISK
000732:                                                                                                  #  LOG SECTION           FRESH START AND RESTART
000733:
000734:                                                                                                  #  FUNCTIONAL DESCRIPTION
000735:
000736:                                                                                                  #        1. CHECK IF NEW PROGRAM ALLOWED. IF BIT 1 OF FLAGWRD2 (NODOFLAG) IS SET, AN ALARM 1520 IS CALLED.
000737:                                                                                                  #        2. CHECK FOR VALIDITY OF PROGRAM SELECTED. IF AN INVALID PROGRAM IS SELECTED, THE OPERATOR ERROR LIGHT IS
000738:                                                                                                  #           SET AND CURRENT ACTIVITY, IF ANY, CONTINUES.
000739:                                                                                                  #        3. SERVICER IS TERMINATED IF IT HAS BEEN RUNNING.
000740:                                                                                                  #        4. INTSTALL IS EXECUTED TO AVOID INTERRUPTING INTEGRATION.
000741:                                                                                                  #        5. THE ENGINE IS TURNED OFF AND THE DAP IS INITIALIZED FOR COAST.
000742:                                                                                                  #        6. TRACK, UPDATE, AND TARG1 FLAGS ARE SET TO ZERO.
000743:                                                                                                  #        7. DISPLAY SYSTEM IS RELEASED.
000744:                                                                                                  #        8. THE FOLLOWING ARE PERFORMED FOR EACH OF THE THREE CASES.
000745:                                                                                                  #                A. PROGRAM SELECTED IS P00.
000746:                                                                                                  #                        1. RENDEZVOUS FLAG IS RESET (KILL P20).
000747:                                                                                                  #                        2. STATINT1 IS SCHEDULED BY SETTING RESTART GROUP 2.
000748:                                                                                                  #                        3. MAJOR MODE 00 IS STORED IN THE MODE REGISTER (MODREG).
000749:                                                                                                  #                        4. SUPERBANK 3 IS SELECTED.
000750:                                                                                                  #                        5. NODOFLAG IS RESET.
000751:                                                                                                  #                        6. ALL RESTART GROUPS EXCEPT GROUP 2 ARE CLEARED. CONTROL IS TRANSFERRED TO RESTART PROGRAM (GOPROG2)
000752:                                                                                                  #                           WHICH CAUSES ALL CURRENT ACTIVITY TO BE DISCONTINUED AND A 9 MINUTE INTEGRATION CYCLE TO BE
000753:                                                                                                  #                           INITIATED.
000754:                                                                                                  #                B. PROGRAM SELECTED IS P20
000755:                                                                                                  #                        1. IF THE CURRENT MAJOR MODE IS THE SAME AS THE SELECTED NEWPROGRAM, THE PROGRAM IS RE-INITIALIZED
000756:                                                                                                  #                           VIA V37XEQ, ALL RESTART GROUPS, EXCEPT GROUP 4 ARE CLEARED.
000757:                                                                                                  #                        2. IF THE CURRENT MAJOR MODE IS NOT EQUAL TO THE NEW REQUEST, A CHECK IS MADE TO SEE IF THE REQUEST-
000758:                                                                                                  #                           ED MAJOR MODE HAS BEEN RUNNING IN THE BACKGROUND,
000759:                                                                                                  #                           AND IF IT HAS, NO NEW PROGRAM IS SCHEDULED, THE EXISTING
000760:                                                                                                  #                           P20 IS RESTARTED TO CONTINUE, AND ITS MAJOR MODE IS SET.
000761:                                                                                                  #                        3. CONTROL IS TRANSFERRED TO GOPROG2.
000762:                                                                                                  #                C. PROGRAM SELECTED IS NEITHER P00 NOR P20
000763:                                                                                                  #                        1. V37XEQ IS SCHEDULED (AS A JOB) BY SETTING RESTART GROUP 4
000764:                                                                                                  #                        2. ALL CURRENT ACTIVITY EXCEPT RENDEZVOUS AND TRACKING IS DISCONTINUED BY CLEARING ALL RESTART
000765:                                                                                                  #                           GROUPS. GROUP 2 IS CLEARED. IF THE RENDEZVOUS FLAG IS ON P20 IS RESTARTED IN GOPROG2 VIA REDOP20,
000766:                                                                                                  #                           TO CONTINUE.
000767:
000768:                                                                                                  #  INPUT/OUTPUT INFORMATION
000769:
000770:                                                                                                  #        A. CALLING SEQUENCE
000771:
000772:                                                                                                  #                CONTROL IS DIRECTED TO V37 BY THE VERBFAN ROUTINE.
000773:                                                                                                  #                VERBFAN GOES TO C(VERBTAB+C(VERBREG)). VERB 37 = MMCHANG.
000774:                                                                                                  #                MMCHANG EXECUTES A      TC POSTJUMP, CADR V37.
000775:
000776:                                                                                                  #        B. ERASABLE INITIALIZATION              NONE
000777:
000778:                                                                                                  #        C. OUTPUT
000779:                                                                                                  #                MAJOR MODE CHANGE


000781:
000782:                                                                                                  #        D. DEBRIS
000783:                                                                                                  #                MMNUMBER, MPAC +1, MINDEX, BASETEMP +C(MINDEX), FLAGWRD0, FLAGWRD1, FLAGWRD2, MODREG, GOLOC -1,
000784:                                                                                                  #                GOLOC, GOLOC +1, GOLOC +2, BASETEMP, -PHASE2, PHASE2, -PHASE4
000785:
000786:                                                                                                  #  PROGRAM ANALYSIS
000787:
000788:                                                                                                  #        A. SUBROUTINES CALLED
000789:                                                                                                  #                ALARM, RELDSP, PINBRNCH, INTSTALL, ENGINOF2, ALLCOAST, V37KLEAN, GOPROG2, FALTON, FINDVAC, SUPERSW,
000790:                                                                                                  #                DSPMM
000791:
000792:                                                                                                  #        B. NORMAL EXIT                          TC ENDOFJOB
000793:
000794:                                                                                                  #        C. ALARMS                               1520 (MAJOR MODE CHANGE NOT PERMITTED)
000795:
000796:    4000                                           SETLOC   FFTAG10
000797:    4000                                           BANK
000798:
000799:    4124                                           COUNT*   $$/V37
000800:    4124           00024        OCT24              MM       20         B-14
000801:    4125           00031        OCT31              MM       25         B-14
000802: 04,2000                                           SETLOC   VERB37
000803: 04,2000                                           BANK
000804:
000805: 04,2007                                           COUNT*   $$/V37
000806: 04,2007           55200        V37                TS       MMNUMBER                              #  SAVE MAJOR MODE
000807: 04,2010           05561                           TC       DOWNFLAG
000808: 04,2011           00236                           ADRES    AUTOSEQ
000809: 04,2012           05561                           TC       DOWNFLAG
000810: 04,2013           00226                           ADRES    PCMANFLG
000811: 04,2014           05561                           TC       DOWNFLAG
000812: 04,2015           00215                           ADRES    VHFRFLAG
000813: 04,2016           04606                           TC       E7SETTER
000814: 04,2017  E7,1722                                  EBANK=   MRKBUF1
000815: 04,2017           37702                           CAF      NEGONE
000816: 04,2020           55722                           TS       MRKBUF1                               #  TO PREVENT P20 FROM PROCESSING P50's MRK
000817: 04,2021           40077                           CS       FLAGWRD3
000818: 04,2022           74754                           MASK     REFSMBIT
000819: 04,2023           10000                           CCS      A
000820: 04,2024           12044                           TCF      AUTO37
000821: 04,2025           31200                           CA       MMNUMBER
000822: 04,2026           62031                           AD       NEG79
000823: 04,2027           10000                           CCS      A
000824: 04,2030           12375                           TCF      V37NONO
000825: 04,2031           77660        NEG79              DEC      -79        B-14
000826: 04,2032           12035                           TCF      MMOK
000827: 04,2033           31200        RENDP79            CA       MMNUMBER
000828: 04,2034           12410                           TCF      REND30S    +1
000829: 04,2035           31200        MMOK               CA       MMNUMBER
000830: 04,2036           62406                           AD       NEG30
000831: 04,2037           00006                           EXTEND


000833: 04,2040           62044                           BZMF     AUTO37                                #  P01 - P30
000834: 04,2041           63770                           AD       NEG6
000835: 04,2042           00006                           EXTEND
000836: 04,2043           62407                           BZMF     REND30S                               #  P31 - P36 RENDEZVOUS
000837: 04,2044           34346        AUTO37             CAF      PRIO30
000838: 04,2045           54365                           TS       RESTREG
000839:
000840: 04,2046           34772                           CAF      ZERO                                  #  ZERO OUT AUTO OPTICS RATE REGS
000841: 04,2047           54740                           TS       TOLD
000842: 04,2050           54741                           TS       SOLD
000843: 04,2051           54735                           TS       TRATE
000844: 04,2052           54736                           TS       SRATE
000845: 04,2053           05561                           TC       DOWNFLAG
000846: 04,2054           00210                           ADRES    P24FLAG
000847: 04,2055           31333                           CA       IMODES30                              #  IS IMU BEING INITIALIZED
000848: 04,2056           74763                           MASK     IMUNITBT
000849: 04,2057           10000                           CCS      A
000850: 04,2060           12125                           TCF      CANTROO
000851:
000852: 04,2061           34762                           CAF      ENGONBIT                              #  IS ENGINE ON
000853: 04,2062           70101                           MASK     FLAGWRD5
000854: 04,2063           10000                           CCS      A
000855: 04,2064           12071                           TCF      ROOTOPOO                              #  YES, SET UP FOR POO
000856:
000857: 04,2065           40102                           CS       FLAGWRD6                              #  NO, IS TVC DAP ON
000858: 04,2066           74076                           MASK     DPCONFIG
000859: 04,2067           00006                           EXTEND
000860: 04,2070           62116                           BZMF     ISITPOO                               #  NO, CONTINUE WITH ROO
000861:
000862: 04,2071           04611        ROOTOPOO           TC       E6SETTER
000863:
000864: 04,2072  E6,1465                                  EBANK=   DAPDATR1
000865: 04,2072           04636                           TC       BANKCALL                              #  SPSOFF DOES AN INHINT
000866: 04,2073           51045                           CADR     SPSOFF
000867: 04,2074           04714                           TC       IBNKCALL
000868: 04,2075           13313                           CADR     MASSPROP
000869: 04,2076           33054                           CAF      3.1SEC
000870: 04,2077           04714                           TC       IBNKCALL
000871: 04,2100           42043                           CADR     RCSDAPON   +1
000872:
000873: 04,2101           04714                           TC       IBNKCALL
000874: 04,2102           51161                           CADR     TVCZAP                                #  DISABLE TVC
000875: 04,2103           34772                           CAF      ZERO
000876: 04,2104           55200                           TS       MMNUMBER
000877: 04,2105           00003                           RELINT
000878: 04,2106           34773                           CAF      FIVE
000879: 04,2107           04636                           TC       BANKCALL
000880: 04,2110           01731                           CADR     DELAYJOB
000881: 04,2111           34772                           CAF      ZERO
000882: 04,2112           00006                           EXTEND


000884: 04,2113           01005                           WRITE    5
000885: 04,2114           00006                           EXTEND
000886: 04,2115           01006                           WRITE    6
000887: 04,2116           31200        ISITPOO            CA       MMNUMBER
000888: 04,2117           00006                           EXTEND
000889: 04,2120           12151                           BZF      ISSERVON                              #  YES, CHECK SERVICER STATUS
000890:
000891: 04,2121           40076                           CS       FLAGWRD2                              #  NO, IS NODO V37 FLAG SET
000892: 04,2122           74770                           MASK     NODOBIT
000893: 04,2123           10000                           CCS      A
000894: 04,2124           12132                           TCF      CHECKTAB                              #  NO
000895: 04,2125           05671        CANTROO            TC       ALARM
000896: 04,2126           01520                           OCT      1520
000897:
000898: 04,2127           04432        V37BAD             TC       RELDSP                                #  RELEASES DISPLAY FROM ASTRONAUT
000899:
000900: 04,2130           04655                           TC       POSTJUMP                              #  BRING BACK LAST NORMAL DISPLAY IF THERE
000901: 04,2131           21275                           CADR     PINBRNCH                              #  WAS ONE. OY
000902:
000903: 04,2132           33173        CHECKTAB           CA       NOV37MM                               #  THE NO. OF MM
000904: 04,2133           54155        AGAINMM            TS       MPAC       +1
000905: 04,2134           50155                           NDX      MPAC       +1
000906: 04,2135           33124                           CA       PREMM1                                #  OBTAIN WHICH MM THIS IS FOR
000907: 04,2136           76043                           MASK     LOW7
000908: 04,2137           40000                           COM
000909: 04,2140           61200                           AD       MMNUMBER
000910: 04,2141           10000                           CCS      A
000911: 04,2142           10155                           CCS      MPAC       +1                         #  IF GR, SEE IF ANY MORE IN LIST
000912: 04,2143           12133                           TCF      AGAINMM                               #  YES, GET NEXT ONE
000913: 04,2144           12375                           TCF      V37NONO                               #  LAST TIME OR PASSED MM
000914:
000915: 04,2145           30155                           CA       MPAC       +1
000916: 04,2146           55177                           TS       MINDEX                                #  SAVE INDEX FOR LATER
000917:
000918: 04,2147           05547                           TC       UPFLAG
000919: 04,2150           00055                           ADRES    V50N18FL                              #  66935 55  518 490731Y
000920:
000921: 04,2151           40103        ISSERVON           CS       FLAGWRD7                              #  V37 FLAG SET - I.E. IS SERVICER GOING
000922: 04,2152           74763                           MASK     V37FLBIT
000923: 04,2153           10000                           CCS      A
000924: 04,2154           12162                           TCF      CANV37                                #  NO
000925:
000926: 04,2155           00004                           INHINT
000927: 04,2156           44770                           CS       AVEGBIT                               #  YES TURN OFF AVERAGE G FLAG AND WAIT
000928: 04,2157           70075                           MASK     FLAGWRD1                              #  FOR SERVICER TO RETURN TO CANV37
000929: 04,2160           54075                           TS       FLAGWRD1
000930:
000931: 04,2161           15205                           TCF      ENDOFJOB
000932:
000933: 04,2162           33053        CANV37             CAF      ROOAD


000935: 04,2163           54373                           TS       TEMPFLSH
000936:
000937: 04,2164           05402                           TC       PHASCHNG
000938: 04,2165           00014                           OCT      14
000939:
000940: 04,2166           06006        ROO                TC       INTPRET
000941:
000942: 04,2167           77624                           CALL                                           #  WAIT FOR INTEGRATION TO FINISH
000943: 04,2170           27516                                    INTSTALL
000944: 04,2171           77776        DUMMYAD            EXIT
000945:
000946: 04,2172           45024                           CS       OCT1400                               #  CLEAR CAUTION RESET
000947: 04,2173           00006                           EXTEND                                         #    AND TEST CONNECTOR OUTBIT
000948: 04,2174           03011                           WAND     11
000949:
000950: 04,2175           33046                           CAF      OCT44571                              #  CLEAR ENABLE OPTICS ERROR COUNTER, STAR
000951: 04,2176           00006                           EXTEND                                         #  TRACKERS ON BIT, TVC ENABLE, ZERO OPTICS,
000952: 04,2177           03012                           WAND     12                                    #  DISENGAGE OPTICS DAP, SIVB INJ SEQUENCE
000953:                                                                                                  #  START, AND SIVB CUTOFF BIT.
000954:
000955: 04,2200           43047                           CS       OCT600                                #  CLEAR UNUSED BITS
000956: 04,2201           00006                           EXTEND
000957: 04,2202           03013                           WAND     13
000958:
000959: 04,2203           02767                           TC       INITSUB
000960:
000961: 04,2204           05527                           TC       CLEARMRK
000962:
000963: 04,2205           34772                           CAF      ZERO
000964: 04,2206           54304                           TS       STARIND
000965:
000966: 04,2207           05561                           TC       DOWNFLAG
000967: 04,2210           00020                           ADRES    STIKFLAG
000968:
000969: 04,2211           04415                           TC       UPACTOFF                              #  TURN OFF UPLINK ACTIV LIGHT
000970:
000971: 04,2212           05561                           TC       DOWNFLAG
000972: 04,2213           00037                           ADRES    R21MARK
000973:
000974: 04,2214           11200                           CCS      MMNUMBER                              #  IS THIS A POOH REQUEST
000975: 04,2215           12352                           TCF      NOUVEAU                               #  NO, PICK UP NEW PROGRAM
000976:
000977: 04,2216                                           COUNT*   $$/POO
000978: 04,2216           04432        POOH               TC       RELDSP                                #  RELEASE DISPLAY SYSTEM
000979:
000980: 04,2217           35047                           CAF      PRIO5                                 #  SET VARIABLE RESTART REGISTER FOR P00.
000981: 04,2220           55262                           TS       PHSPRDT2
000982:
000983: 04,2221           00004                           INHINT


000985: 04,2222           44770                           CS       NODOBIT                               #  TURN OFF NODOFLAG
000986: 04,2223           70076                           MASK     FLAGWRD2
000987: 04,2224           54076                           TS       FLAGWRD2
000988:
000989: 04,2225           34773                           CA       FIVE                                  #  SET 2.5 RESTART FOR STATEINT1
000990: 04,2226           54001                           TS       L
000991: 04,2227           40000                           COM
000992: 04,2230  01,2036               2P5SPT1            =        2.5SPOT
000993: 04,2230           53160                           DXCH     -PHASE2
000994:
000995: 04,2231           34761                           CA       IMUSEBIT                              #  RESET IMUSE AND
000996: 04,2232           64762                           AD       RNDVZBIT                              #  KILL P20
000997: 04,2233           40000                           COM
000998: 04,2234           70074                           MASK     FLAGWRD0
000999: 04,2235           54074                           TS       FLAGWRD0                              #                         RENDFLG
001000:
001001: 04,2236           44760                           CS       UTBIT
001002: 04,2237           70104                           MASK     FLAGWRD8
001003: 04,2240           54104                           TS       FLAGWRD8
001004:
001005: 04,2241           34772                           CAF      DNLADP00
001006:
001007: 04,2242                                           COUNT*   $$/V37
001008: 04,2242           54332        SEUDOPOO           TS       DNLSTCOD                              #  SET UP APPROPRIATE DOWNLIST.
001009:                                                                                                  #  (OLD ONE WILL BE FINISHED FIRST)
001010:
001011: 04,2243           34764                           CA       TRACKBIT
001012: 04,2244           64757                           AD       TARG1BIT
001013: 04,2245           64762                           AD       UPDATBIT
001014: 04,2246           40000                           COM
001015: 04,2247           55275                           TS       EBANKTEM
001016: 04,2250           70075                           MASK     FLAGWRD1
001017: 04,2251           54075                           TS       FLAGWRD1
001018:
001019: 04,2252           44767                           CS       R67BIT                                #  CLEAR R67FLAG. P20 WILL SET IT AGAIN.
001020: 04,2253           70104                           MASK     FLAGWRD8
001021: 04,2254           54104                           TS       FLAGWRD8
001022:
001023: 04,2255           04714        GROUPKIL           TC       IBNKCALL                              #  KILL GROUPS 3,5,6
001024: 04,2256           12550                           CADR     V37KLEAN
001025:
001026: 04,2257           11200                           CCS      MMNUMBER                              #  IS IT POOH
001027: 04,2260           12270                           TCF      RENDVOO                               #  NO
001028: 04,2261           04714                           TC       IBNKCALL
001029: 04,2262           12542                           CADR     POOKLEAN                              #  REDUNDANT EXCEPT FOR GROUP 4.
001030:
001031: 04,2263           03002                           TC       INITSUBA
001032: 04,2264           31200        GOMOD              CA       MMNUMBER
001033: 04,2265           55214                           TS       MODREG
001034:


001036:
001037: 04,2266           04655        GOGOPROG           TC       POSTJUMP
001038: 04,2267           13015                           CADR     GOPROG2
001039:
001040: 04,2270           41200        RENDVOO            CS       MMNUMBER                              #  IS NEW PROG = 20
001041: 04,2271           64124                           AD       OCT24                                 #  20
001042: 04,2272           00006                           EXTEND
001043: 04,2273           12275                           BZF      RENDNOO                               #  YES
001044: 04,2274           12311                           TCF      POOFIZZ
001045:
001046: 04,2275           41200        RENDNOO            CS       MMNUMBER
001047: 04,2276           61214                           AD       MODREG
001048: 04,2277           00006                           EXTEND
001049: 04,2300           12321                           BZF      KILL20
001050:
001051: 04,2301           30104                           CA       FLAGWRD8
001052: 04,2302           74760                           MASK     UTBIT
001053: 04,2303           10000                           CCS      A
001054: 04,2304           12333                           TCF      STATQUO1
001055:
001056: 04,2305           30074                           CA       FLAGWRD0                              #  IS RENDEZVOO FLAG SET
001057: 04,2306           74762                           MASK     RNDVZBIT
001058: 04,2307           10000                           CCS      A
001059: 04,2310           12340                           TCF      STATQUO
001060:
001061: 04,2311           30104        POOFIZZ            CA       FLAGWRD8
001062: 04,2312           74760                           MASK     UTBIT
001063: 04,2313           10000                           CCS      A
001064: 04,2314           12325                           TCF      KILL20     +4
001065: 04,2315           34762                           CAF      RNDVZBIT
001066: 04,2316           70074                           MASK     FLAGWRD0
001067: 04,2317           10000                           CCS      A
001068: 04,2320           12330                           TCF      REV37
001069: 04,2321           00006        KILL20             EXTEND                                         #  NO, KILL GROUPS 1 + 2
001070: 04,2322           34772                           DCA      NEG0
001071: 04,2323           53156                           DXCH     -PHASE1
001072:
001073: 04,2324           03002                           TC       INITSUBA
001074: 04,2325           00006                 +4        EXTEND
001075: 04,2326           34772                           DCA      NEG0
001076: 04,2327           53160                           DXCH     -PHASE2
001077:
001078: 04,2330           33052        REV37              CAF      V37QCAD                               #  SET RESTART POINT
001079: 04,2331           54373                           TS       TEMPFLSH
001080:
001081: 04,2332           12266                           TCF      GOGOPROG
001082:
001083: 04,2333           34773        STATQUO1           CAF      FIVE                                  #  SET 2.5 RESTART for STATEINT1
001084: 04,2334           54001                           TS       L
001085: 04,2335  01,2036               2P5SPT2            =        2.5SPOT
001086: 04,2335           40000                           COM


001088: 04,2336           53160                           DXCH     -PHASE2
001089: 04,2337           12343                           TCF      STATQUO    +3
001090: 04,2340           40075        STATQUO            CS       FLAGWRD1                              #  SET TRACK FLAG AND UPDATE FLAG
001091: 04,2341           74762                           MASK     UPDATBIT
001092: 04,2342           26075                           ADS      FLAGWRD1
001093: 04,2343           40075                 +3        CS       FLAGWRD1
001094: 04,2344           74764                           MASK     TRACKBIT
001095: 04,2345           26075                           ADS      FLAGWRD1
001096:
001097: 04,2346           00006                           EXTEND                                         #  KILL GROUP 4
001098: 04,2347           34772                           DCA      NEG0
001099: 04,2350           53164                           DXCH     -PHASE4
001100:
001101: 04,2351           12264                           TCF      GOMOD
001102:
001103: 04,2352           34762        NOUVEAU            CAF      RNDVZBIT
001104: 04,2353           70074                           MASK     FLAGWRD0
001105: 04,2354           10000                           CCS      A
001106: 04,2355           12364                           TCF      +7
001107: 04,2356           34760                           CAF      UTBIT
001108: 04,2357           70104                           MASK     FLAGWRD8
001109: 04,2360           10000                           CCS      A
001110: 04,2361           12364                           TCF      +3
001111: 04,2362           05561                           TC       DOWNFLAG                              #  NO, RESET IMUSE FLAG.
001112: 04,2363           00007                           ADRES    IMUSE                                 #  BIT 8 FLAG 0
001113: 04,2364           51177                 +3        INDEX    MINDEX
001114: 04,2365           33124                           CAF      PREMM1                                #  EXTRACT DOWNLIST ADDRESS
001115: 04,2366           54022                           TS       CYL                                   #  SHIFT BITS 15 - 13 TO BITS 3 - 1
001116: 04,2367           40022                           CS       CYL
001117: 04,2370           40022                           CS       CYL
001118: 04,2371           56022                           XCH      CYL
001119: 04,2372           74774                           MASK     SEVEN                                 #  KEEP DOWNLIST CODE BITS
001120: 04,2373           00004                           INHINT
001121: 04,2374           12242                           TCF      SEUDOPOO
001122:
001123: 04,2375           04362        V37NONO            TC       FALTON                                #  COME HERE IF MM REQUESTED DOESNT EXIST
001124:
001125: 04,2376           12127                           TCF      V37BAD
001126:
001127: 04,2000                                           SETLOC   VERB37                                #  MUST BE IN BANK 4 BECAUSE OF AUTOCHK
001128: 04,2000                                           BANK
001129: 04,2377                                           COUNT*   $$/MNKEY
001130: 04,2377           00051        DEC41              DEC      41         B-14
001131: 04,2400           00114        DEC76              DEC      76         B-14
001132: 04,2401           00064        DEC52              DEC      52         B-14
001133: 04,2402     4124               DEC20              =        OCT24
001134: 04,2402     4342               DEC31              =        LOW5
001135: 04,2402     4763               DEC32              =        BIT6
001136: 04,2402     5004               DEC40              =        OCT50
001137: 04,2402     5003               DEC33              =        33DEC


001139: 04,2402     4260               DEC34              =        34DEC
001140: 04,2402           00044        DEC36              DEC      36         B-14
001141: 04,2403           00043        DEC35              DEC      35         B-14
001142: 04,2404           00117        DEC79              DEC      79         B-14
001143: 04,2405  04,3770               NEG6               =        DEC-6
001144: 04,2405           00126        DEC86              DEC      86         B-14
001145: 04,2406           77741        NEG30              DEC      -30        B-14
001146: 04,2407     5011               DEC50              =        OCT62
001147: 04,2407     4777               CKLSTAUT           =        LOW4
001148: 04,2407           62405        REND30S            AD       DEC86                                 #  CHANGE P3X to P8X
001149: 04,2410           55113                 +1        TS       TEMPMM                                #        AND SAVE
001150: 04,2411           34760                           CAF      UTBIT
001151: 04,2412           70104                           MASK     FLAGWRD8
001152: 04,2413           00006                           EXTEND
001153: 04,2414           12421                           BZF      UTOFF
001154:
001155: 04,2415           05561                           TC       DOWNFLAG
001156: 04,2416           00031                           ADRES    TRACKFLG
001157:
001158: 04,2417           05561                           TC       DOWNFLAG
001159: 04,2420           00176                           ADRES    UTFLAG
001160:
001161: 04,2421           40074        UTOFF              CS       FLAGWRD0                              #  HAS P20 BEEN ON
001162: 04,2422           74762                           MASK     RNDVZBIT
001163: 04,2423           00006                           EXTEND
001164: 04,2424           12431                           BZF      NOP20                                 #  YES
001165: 04,2425           05547                           TC       UPFLAG
001166: 04,2426           00236                           ADRES    AUTOSEQ                               #  SET TO CAUSE RETURN FROM P20
001167:
001168: 04,2427           34124                           CAF      DEC20                                 #  NO - TURN ON P20
001169: 04,2430           02507                           TC       AUTOSET
001170: 04,2431           31113        NOP20              CA       TEMPMM
001171: 04,2432           55200        AUTOSETA           TS       MMNUMBER
001172: 04,2433           02044                           TC       AUTO37
001173: 04,2434           30002        MINKDISP           CA       Q
001174: 04,2435           55012                           TS       AUTPOINT
001175: 04,2436           45011                           CS       DEC50
001176: 04,2437           61200                           AD       MMNUMBER
001177: 04,2440           05347                           TC       NEWMODEA                              #  CHANGE MAJOR MODE TO 30'S
001178: 04,2441           04432                           TC       RELDSP
001179: 04,2442           34777                           CAF      CKLSTAUT
001180: 04,2443           04636                           TC       BANKCALL
001181: 04,2444           21067                           CADR     GOPERF1
001182: 04,2445           14103                           TCF      GOTOPOOH
001183: 04,2446           02452                           TC       STARTAUT                              #  PRO - DO MINKEY
001184: 04,2447           05561                           TC       DOWNFLAG                              #  ENTER - NO MINKEY
001185: 04,2450           00236                           ADRES    AUTOSEQ
001186: 04,2451           01012                           TC       AUTPOINT
001187: 04,2452           30107        STARTAUT           CA       FLGWRD11                              #  INITIALIZE MINKEY
001188: 04,2453           74761                           MASK     AZIMBIT


001190: 04,2454           10000                           CCS      A
001191: 04,2455           12470                           TCF      STRTAUT1
001192: 04,2456           05547                           TC       UPFLAG
001193: 04,2457           00254                           ADRES    AZIMFLAG
001194: 04,2460           22007                           ZL
001195: 04,2461           40106                           CS       FLGWRD10
001196: 04,2462           74756                           MASK     HDSUPBIT
001197: 04,2463           00006                           EXTEND
001198: 04,2464           12467                           BZF      +3
001199: 04,2465           00006                           EXTEND
001200: 04,2466           33760                           DCA      XUNIT
001201: 04,2467           53353                           DXCH     AZIMANGL
001202: 04,2470           40101        STRTAUT1           CS       FLAGWRD5
001203: 04,2471           74770                           MASK     RENDWBIT
001204: 04,2472           00006                           EXTEND
001205: 04,2473           12500                           BZF      +5                                    #  YES
001206: 04,2474           05547                           TC       UPFLAG                                #  NO
001207: 04,2475           00240                           ADRES    MANEUFLG
001208: 04,2476           05547                           TC       UPFLAG
001209: 04,2477           00241                           ADRES    PTV93FLG
001210: 04,2500           05547                           TC       UPFLAG
001211: 04,2501           00215                           ADRES    VHFRFLAG                              #  EQUIVALENT TO A V87
001212:
001213: 04,2502           05561                           TC       DOWNFLAG
001214: 04,2503           00244                           ADRES    PCFLAG
001215: 04,2504           05547                           TC       UPFLAG
001216: 04,2505           00236                           ADRES    AUTOSEQ
001217:
001218: 04,2506           01012                           TC       AUTPOINT
001219: 04,2507           00006        AUTOSET            EXTEND
001220: 04,2510           23356                           QXCH     AUTTEMP
001221: 04,2511           55200                 +2        TS       MMNUMBER
001222: 04,2512           05402                           TC       PHASCHNG
001223: 04,2513           04024                           OCT      04024
001224:
001225: 04,2514           31356                           CA       AUTTEMP
001226: 04,2515           55012                           TS       AUTPOINT
001227:
001228: 04,2516           02044                           TC       AUTO37
001229:
001230: 04,2517           00006        BURNHOW            EXTEND
001231: 04,2520           23356                           QXCH     AUTTEMP
001232: 04,2521           06006                           TC       INTPRET
001233: 04,2522           51575                           VLOAD    ABVAL
001234: 04,2523           03405                                    DELVLVC
001235: 04,2524           51025                           DSU      BPL
001236: 04,2525           10536                                    DV40/41                               #  THRESHOLD DELTA V FOR SPS BURN
001237: 04,2526           10532                                    P40BURN
001238: 04,2527           77776                           EXIT
001239: 04,2530           32377                           CAF      DEC41                                 #  CALL P41
001240:


001242:
001243: 04,2531           02511                           TC       AUTOSET    +2
001244: 04,2532           77776        P40BURN            EXIT
001245: 04,2533           35004                           CAF      DEC40                                 #  CALL P40
001246: 04,2534           02511                           TC       AUTOSET    +2
001247: 04,2535           00002 27311  DV40/41            2DEC     .021336    B-7                        #  7 PPS IN M/CS B-7
001248:
001249: 04,2537           02434        P81                TC       MINKDISP
001250: 04,2540           34342        P81CONT1           CAF      DEC31
001251: 04,2541           02507                           TC       AUTOSET
001252: 04,2542           02517                           TC       BURNHOW
001253: 04,2543           02724                           TC       AFTERBRN
001254: 04,2544           12546                           TCF      P82CONT1
001255: 04,2545           02434        P82                TC       MINKDISP
001256: 04,2546           05561        P82CONT1           TC       DOWNFLAG
001257: 04,2547           00256                           ADRES    CSISFLAG
001258: 04,2550           34763        P82CONT2           CAF      DEC32
001259: 04,2551           02507                           TC       AUTOSET
001260: 04,2552           02517                           TC       BURNHOW
001261: 04,2553           02724                           TC       AFTERBRN
001262: 04,2554  E7,1765                                  EBANK=   NN
001263: 04,2554           35046                           CAF      EBANK7
001264: 04,2555           54003                           TS       EBANK
001265: 04,2556           31765                           CA       NN
001266: 04,2557           67701                           AD       NEG2
001267: 04,2560           55414                           TS       RTARG
001268:
001269: 04,2561           05402                           TC       PHASCHNG
001270: 04,2562           04024                           OCT      04024
001271:
001272: 04,2563           31414                           CA       RTARG
001273: 04,2564           55765                           TS       NN
001274: 04,2565           67701                           AD       NEG2
001275: 04,2566           40000                           COM
001276: 04,2567           00006                           EXTEND
001277: 04,2570           62572                           BZMF     +2                                    #  N = 2 OR GREATER
001278: 04,2571           12607                           TCF      P86CONT1                              #  N = 1
001279: 04,2572           05547                           TC       UPFLAG
001280: 04,2573           00256                           ADRES    CSISFLAG
001281: 04,2574           06006                           TC       INTPRET
001282: 04,2575           77745                           DLOAD
001283: 04,2576           02351                                    TCSI2
001284: 04,2577           02463                           STORE    TCSI
001285: 04,2600           77776                           EXIT
001286: 04,2601           31765                           CA       NN
001287: 04,2602           67701                           AD       NEG2
001288: 04,2603           00006                           EXTEND
001289: 04,2604           62540                           BZMF     P81CONT1                              #  N = 2 HAM
001290: 04,2605           02546                           TC       P82CONT1                              #  MULTIPLE CSIS
001291: 04,2606           02434        P86                TC       MINKDISP
001292: 04,2607           32402        P86CONT1           CAF      DEC36


001294: 04,2610           02507                           TC       AUTOSET
001295: 04,2611           06006                           TC       INTPRET
001296: 04,2612           51575                           VLOAD    ABVAL
001297: 04,2613           03405                                    DELVLVC
001298: 04,2614           77454                           BZE      EXIT
001299: 04,2615           10642                                    NOPC
001300: 04,2616           32401                           CAF      DEC52
001301: 04,2617           02507                           TC       AUTOSET
001302: 04,2620           40106                           CS       FLGWRD10
001303: 04,2621           74770                           MASK     PCBIT
001304: 04,2622           00006                           EXTEND
001305: 04,2623           12637                           BZF      DOP41                                 #  PULSE TORQUING NOT DONE - CALL P41
001306: 04,2624           02517                           TC       BURNHOW                               #  P40 OR P41
001307: 04,2625           02724                           TC       AFTERBRN
001308: 04,2626           05547        P86CONT2           TC       UPFLAG
001309: 04,2627           00226                           ADRES    PCMANFLG
001310: 04,2630           34124                           CAF      DEC20                                 #  MANEUVER TO TRACK ATTITUDE
001311: 04,2631           02507                           TC       AUTOSET
001312: 04,2632           05561                           TC       DOWNFLAG
001313: 04,2633           00226                           ADRES    PCMANFLG
001314: 04,2634           32401                           CAF      DEC52
001315: 04,2635           02507                           TC       AUTOSET
001316: 04,2636           02647                           TC       P83CONT1
001317: 04,2637           32377        DOP41              CAF      DEC41
001318: 04,2640           02507                           TC       AUTOSET
001319: 04,2641           02644                           TC       PCP76
001320: 04,2642           77414        NOPC               SET      EXIT
001321: 04,2643           05065                                    BURNFLAG
001322: 04,2644           02724        PCP76              TC       AFTERBRN
001323: 04,2645           02647                           TC       P83CONT1
001324: 04,2646           02434        P83                TC       MINKDISP
001325: 04,2647           35003        P83CONT1           CAF      DEC33
001326: 04,2650           02507                           TC       AUTOSET
001327: 04,2651           02517                           TC       BURNHOW
001328: 04,2652           05547                           TC       UPFLAG                                #  SET TO INDICATE PASSIVE CDH
001329: 04,2653           00050                           ADRES    AVFLAG
001330: 04,2654           02724                           TC       AFTERBRN
001331: 04,2655           12657                           TCF      P84CONT1
001332: 04,2656           02434        P84                TC       MINKDISP
001333: 04,2657           34260        P84CONT1           CAF      DEC34
001334: 04,2660           02507                           TC       AUTOSET
001335: 04,2661           02517                           TC       BURNHOW
001336: 04,2662           02724                           TC       AFTERBRN
001337: 04,2663           12665                           TCF      P85CONT1
001338: 04,2664           02434        P85                TC       MINKDISP
001339: 04,2665           32403        P85CONT1           CAF      DEC35
001340: 04,2666           02507                           TC       AUTOSET
001341: 04,2667           02517                           TC       BURNHOW
001342: 04,2670           02724                           TC       AFTERBRN
001343: 04,2671           32403        P89CONT1           CAF      DEC35


001345: 04,2672           02507                           TC       AUTOSET
001346: 04,2673           02517                           TC       BURNHOW
001347: 04,2674           02724                           TC       AFTERBRN
001348: 04,2675           32404                           CAF      DEC79
001349: 04,2676           02432                           TC       AUTOSETA
001350: 04,2677                                           COUNT*   $$/P79
001351: 04,2677           05547        P79                TC       UPFLAG
001352: 04,2700           00226                           ADRES    PCMANFLG                              #  FORCE P20 TO EXIT AFTER MANEUVER
001353:
001354: 04,2701           05547                           TC       UPFLAG
001355: 04,2702           00031                           ADRES    TRACKFLG
001356:
001357: 04,2703           34772                           CAF      ZERO
001358: 04,2704           54001                           TS       L
001359: 04,2705           53740                           DXCH     UTPIT
001360:
001361: 04,2706           32715                           CAF      P79LOCRT
001362: 04,2707           55012                           TS       AUTPOINT
001363: 04,2710           12452                           TCF      STARTAUT
001364: 04,2711           32714        P791               CAF      P79LOC
001365: 04,2712           55012                           TS       AUTPOINT
001366:
001367: 04,2713           05205                           TC       ENDOFJOB
001368: 04,2714           02716        P79LOC             ADRES    P79A
001369:
001370: 04,2715           02711        P79LOCRT           ADRES    P791
001371:
001372: 04,2716           35047        P79A               CAF      PRIO5
001373: 04,2717           05135                           TC       FINDVAC
001374: 04,2720  E4,1760                                  EBANK=   SUBEXIT
001375: 04,2720           02564 66104                     2CADR    V83PERF
001376:
001377: 04,2722           04655                           TC       POSTJUMP                              #  RETURN TO P20 FOR TRACKING
001378: 04,2723           74207                           CADR     P20TRACK
001379: 04,2724                                           COUNT*   $$/MNKEY
001380: 04,2724           00006        AFTERBRN           EXTEND
001381: 04,2725           23356                           QXCH     AUTTEMP
001382: 04,2726           35051                           CAF      PRIO7
001383: 04,2727           05135                           TC       FINDVAC
001384: 04,2730  0003777                                  EBANK=   WHOCARES
001385: 04,2730           02000 56067                     2CADR    HARTBURN
001386:
001387: 04,2732           05205                           TC       ENDOFJOB
001388: 04,2733           77776        TIG76              EXIT
001389: 04,2734           32400                           CAF      DEC76                                 #  CALL P76
001390: 04,2735           02511                           TC       AUTOSET    +2
001391: 27,2000                                           SETLOC   JANESUB
001392: 27,2000                                           BANK
001393: 27,2000                                           COUNT*   $$/MNKEY
001394: 27,2000           06006        HARTBURN           TC       INTPRET


001396: 27,2001           77201                           SETPD    VLOAD
001397: 27,2002           00001                                    0
001398: 27,2003           15336                                    ZEROVECS
001399: 27,2004           77614                           BON
001400: 27,2005           05305                                    BURNFLAG
001401: 27,2006           56042                                    GOP76
001402: 27,2007           77214                           BOFF     VLOAD
001403: 27,2010           05354                                    TPIMNFLG
001404: 27,2011           56044                                    NOTTPI
001405: 27,2012           03554                                    RPASS3
001406: 27,2013           26561                           STOVL    BURNTMP2
001407: 27,2014           03540                                    RACT3
001408: 27,2015           26553                           STOVL    BURNTMP1
001409: 27,2016           03546                                    VACT3
001410: 27,2017           26567                           STOVL    BURNTMP3
001411: 27,2020           03562                                    VPASS3
001412: 27,2021           02575                           STORE    BURNTMP4
001413: 27,2022           77776                           EXIT
001414: 27,2023           05402                           TC       PHASCHNG
001415: 27,2024           04024                           OCT      04024
001416:
001417: 27,2025           06006                           TC       INTPRET
001418: 27,2026           77775                           VLOAD
001419: 27,2027           02567                                    BURNTMP3
001420: 27,2030           27562                           STOVL    VPASS3
001421: 27,2031           02561                                    BURNTMP2
001422: 27,2032           27540                           STOVL    RACT3
001423: 27,2033           02553                                    BURNTMP1
001424: 27,2034           27554                           STOVL    RPASS3
001425: 27,2035           02575                                    BURNTMP4
001426: 27,2036           37546                           STCALL   VACT3
001427: 27,2037           74000                                    S34/35.1
001428: 27,2040           77624                           CALL
001429: 27,2041           72561                                    S34/35.2                              #  COMPUTE DV(LV)
001430: 27,2042           37540        GOP76              STCALL   DELVOV
001431: 27,2043           10733                                    TIG76
001432: 27,2044           71214        NOTTPI             BOFF     DLOAD
001433: 27,2045           01352                                    AVFLAG
001434: 27,2046           56066                                    NOTCDH
001435: 27,2047           03450                                    NOMTIG
001436: 27,2050           77624                           CALL
001437: 27,2051           76560                                    ADVANCE
001438: 27,2052           77624                           CALL
001439: 27,2053           56674                                    CDHMVR
001440: 27,2054           77624                           CALL
001441: 27,2055           32050                                    S32/33.X
001442: 27,2056           64375                           VLOAD    MXV
001443: 27,2057           03667                                    DELVEET2
001444: 27,2060           00001                                    0D
001445: 27,2061           77772                           VSL1


001447: 27,2062           17540                           STODL    DELVOV
001448: 27,2063           02603                                    CMYDOT
001449: 27,2064           77650                           GOTO
001450: 27,2065           56072                                    STORDV
001451: 27,2066           57575        NOTCDH             VLOAD    VCOMP
001452: 27,2067           03405                                    DELVLVC
001453: 27,2070           17540                           STODL    DELVOV
001454: 27,2071           02605                                    LMYDOT
001455: 27,2072           37542        STORDV             STCALL   DELVOV     +2
001456: 27,2073           10733                                    TIG76
001457: 27,2074  30,2000                                  SBANK=   LOWSUPER
001458: 04,2000                                           SETLOC   VERB37
001459: 04,2000                                           BANK
001460:
001461: 04,2736                                           COUNT*   $$/V37
001462: 04,2736     4765               OCT00010           EQUALS   BIT4
001463: 04,2736           00004        V37XEQ             INHINT
001464: 04,2737           35052                           CAF      PRIO13
001465: 04,2740           55266                           TS       PHSPRDT4                              #  PRESTART GROUP4 RESTART PRIORITY
001466: 04,2741           54063        V37XEQ+3           TS       NEWPRIO                               #  STORE PRIO FOR SPVAC
001467: 04,2742           51177                           INDEX    MINDEX
001468: 04,2743           33124                           CAF      PREMM1
001469: 04,2744           55264                           TS       MMTEMP                                #  OBTAIN PRIORITY BITS 15 - 11
001470: 04,2745           00006                           EXTEND
001471: 04,2746           74761                           MP       BIT8
001472: 04,2747           74774                           MASK     LOW3
001473: 04,2750           54001                           TS       L
001474: 04,2751           51177                           INDEX    MINDEX
001475: 04,2752           33055                           CAF      FCADRMM1
001476: 04,2753           55265                           TS       BASETEMP
001477: 04,2754           74344                           MASK     HI5
001478: 04,2755           26001                           ADS      L
001479:
001480: 04,2756           31265                           CA       BASETEMP                              #  OBTAIN GENADR PORTION OF 2CADR.
001481: 04,2757           75041                           MASK     LOW10
001482: 04,2760           64756                           AD       BIT11
001483:
001484: 04,2761           05146                           TC       SPVAC
001485:
001486: 04,2762           31264        V37XEQC            CA       MMTEMP                                #  UPON RETURN FROM FINDVAC PLACE THE
001487: 04,2763           76043                           MASK     LOW7                                  #  NEW MM IN MODREG (THE LOW 7 BITS OF
001488: 04,2764           05347                           TC       NEWMODEA                              #  PHSBRDT1)
001489:
001490: 04,2765           04432                           TC       RELDSP                                #  RELEASE DISPLAY
001491: 04,2766           05205                           TC       ENDOFJOB                              #  AND EXIT
001492:
001493: 04,2767           00004        INITSUB            INHINT
001494: 04,2770           34775                           CAF      ELEVEN                                #  CLEAR INDICATED FLAG BITS
001495: 04,2771           54154        RAKE               TS       MPAC                                  #  LOOP STARTS HERE


001497: 04,2772           50154                           INDEX    MPAC
001498: 04,2773           43032                           CS       FLAGTABL
001499: 04,2774           50154                           INDEX    MPAC
001500: 04,2775           70074                           MASK     FLAGWRD0
001501: 04,2776           50154                           INDEX    MPAC                                  #  RESTORE REVISED FLAGWORD
001502: 04,2777           54074                           TS       FLAGWRD0
001503:
001504: 04,3000           10154                           CCS      MPAC
001505: 04,3001           12771                           TCF      RAKE
001506:
001507: 04,3002           00006        INITSUBA           EXTEND
001508: 04,3003           22155                           QXCH     MPAC       +1
001509:
001510: 04,3004           00004                           INHINT
001511: 04,3005           34764                           CAF      TRACKBIT                              #  BYPASS IF TRACKFLG ON
001512: 04,3006           70075                           MASK     FLAGWRD1
001513: 04,3007           10000                           CCS      A
001514: 04,3010           13024                           TCF      INITRET
001515: 04,3011           04611                           TC       E6SETTER                              #  FOR DB CODE.. STARTSB2 WILL RESET.
001516: 04,3012           04463                           TC       STOPRATE
001517:
001518: 04,3013           30105                           CA       FLAGWRD9                              #  RESTORE DEADBAND
001519: 04,3014           74755                           MASK     MAXDBBIT
001520: 04,3015           10000                           CCS      A
001521: 04,3016           13022                           TCF      SETMAXER                              #  MAX DB SELECTED
001522: 04,3017           04636                           TC       BANKCALL                              #  MIN DB SELECTED
001523: 04,3020           51203                           CADR     SETMINDB
001524: 04,3021           13024                           TCF      INITRET
001525:
001526: 04,3022           04636        SETMAXER           TC       BANKCALL
001527: 04,3023           51217                           CADR     SETMAXDB
001528:
001529: 04,3024           00003        INITRET            RELINT
001530: 04,3025           37702                           CA       NEGONE
001531: 04,3026           55323                           TS       OPTIND
001532: 04,3027           00155                           TC       MPAC       +1                         #  RETURN FROM INITSUB
001533:
001534: 04,3030           03002        INITSUBB           TC       INITSUBA                              #  ENTRANCE USED BY RTB CALL FROM V56
001535: 04,3031           06030                           TC       DANZIG
001536:
001537: 04,3032           00001        FLAGTABL           OCT      1                                     #  P29FLAG
001538: 04,3033           00040                           OCT      40                                    #  IDLEFAIL
001539: 04,3034           06400                           OCT      06400                                 #  P21FLAG,STEERSW,IMPULSW
001540: 04,3035           20400                           OCT      20400                                 #  GLOKFAIL, POOFLAG
001541: 04,3036           00000                           OCT      0
001542: 04,3037           05100                           OCT      05100                                 #  V59FLAG,NEWTFLAG,ENGONFLG
001543: 04,3040           10000                           OCT      10000                                 #  STRULLSW
001544: 04,3041           16000                           OCT      16000                                 #  IGNFLAG,ASTNFLAG,TIMRFLAG
001545: 04,3042           00000                           OCT      0
001546: 04,3043           42000                           OCT      42000                                 #  SWTOVER,V94FLAG


001548: 04,3044           00000                           OCT      0
001549: 04,3045           00000                           OCT      0
001550:
001551: 20,2000                                           SETLOC   VAC5LOC
001552: 20,2000                                           BANK
001553: 20,2000                                           COUNT*   $$/START
001554: 20,2000           34772        VAC5STOR           CA       ZERO                                  #  INITIALIZE INDEX REGISTERS
001555: 20,2001           54061                           TS       ITEMP1
001556: 20,2002           54062                           TS       ITEMP2
001557:
001558: 20,2003           00006        V5LOOP1            EXTEND                                         #  LOOP TO STORE LOCS, BANKSETS, AND PRIOS.
001559: 20,2004           50061                           INDEX    ITEMP1
001560: 20,2005           30165                           DCA      LOC
001561: 20,2006           50062                           INDEX    ITEMP2
001562: 20,2007           52662                           DXCH     VAC5
001563:
001564: 20,2010           50061                           INDEX    ITEMP1
001565: 20,2011           30167                           CA       PRIORITY
001566: 20,2012           50062                           INDEX    ITEMP2
001567: 20,2013           54663                           TS       VAC5       +2
001568:
001569: 20,2014           40062                           CS       ITEMP2                                #  HAVE WE STORED THEM ALL?
001570: 20,2015           65000                           AD       EIGHTEEN
001571: 20,2016           00006                           EXTEND
001572: 20,2017           12025                           BZF      V5OUT1                                #  YES, GET PHASE INFORMATION.
001573:
001574: 20,2020           35775                           CA       TWELVE                                #  NO, INCREMENT INDEXES AND LOOP.
001575: 20,2021           26061                           ADS      ITEMP1
001576: 20,2022           36214                           CA       THREE
001577: 20,2023           26062                           ADS      ITEMP2
001578: 20,2024           12003                           TCF      V5LOOP1
001579:
001580: 20,2025  E3,1436                                  EBANK=   PHSNAME1
001581: 20,2025           35024        V5OUT1             CA       EBANK3                                #  PHSNAME REGISTERS ARE IN EBANK3.
001582: 20,2026           54003                           TS       EBANK
001583:
001584: 20,2027           34775                           CA       ELEVEN                                #  GET PHASE 2CADRS.
001585: 20,2030           05607                           TC       GENTRAN
001586: 20,2031           01436                           ADRES    PHSNAME1
001587: 20,2032           00706                           ADRES    VAC5       +21D
001588:
001589: 20,2033           34772                           CA       ZERO                                  #  NOW INITIALIZE INDEXES AGAIN.
001590: 20,2034           54061                           TS       ITEMP1
001591: 20,2035           54062                           TS       ITEMP2
001592:
001593: 20,2036           50061        V5LOOP2            INDEX    ITEMP1                                #  LOOP TO GET PHASE TABLES.
001594: 20,2037           31156                           CA       PHASE1
001595: 20,2040           50062                           INDEX    ITEMP2
001596: 20,2041           54722                           TS       VAC5       +33D


001598: 20,2042           40062                           CS       ITEMP2                                #  DO WE HAVE THEM ALL?
001599: 20,2043           64773                           AD       FIVE
001600: 20,2044           00006                           EXTEND
001601: 20,2045           12052                           BZF      V5OUT2                                #  YES, GO FINISH UP.
001602:
001603: 20,2046           34767                           CA       TWO                                   #  NO, INCREMENT INDEXES AND LOOP.
001604: 20,2047           26061                           ADS      ITEMP1
001605: 20,2050           24062                           INCR     ITEMP2
001606: 20,2051           12036                           TCF      V5LOOP2
001607:
001608: 20,2052           30157        V5OUT2             CA       MPAC       +3
001609: 20,2053           54730                           TS       VAC5       +39D
001610:
001611: 20,2054           00006                           EXTEND
001612: 20,2055           30066                           DCA      NEWLOC
001613: 20,2056           52732                           DXCH     VAC5       +40D
001614:
001615: 20,2057           30067                           CA       NEWJOB
001616: 20,2060           54707                           TS       VAC5       +22D
001617:
001618: 20,2061           30063                           CA       NEWPRIO
001619: 20,2062           54713                           TS       VAC5       +26D
001620:
001621: 20,2063           04651                           TC       SWRETURN
001622:
001623: 20,2064     5000               EIGHTEEN           EQUALS   OCT22
001624: 04,2000                                           SETLOC   VERB37
001625: 04,2000                                           BANK
001626:
001627: 04,3046                                           COUNT*   $$/V37
001628: 04,3046     5736               NEG7               EQUALS   OCT77770
001629:
001630: 04,3046           44571        OCT44571           OCT      44571                                 #  CONSTANTS TO CLEAR CHANNEL BITS IN V37
001631: 04,3047           00600        OCT600             OCT      600
001632: 04,3050           00300        BIT7-8             OCT      300
001633: 04,3051           01120        OCT01120           OCT      01120
001634:
001635: 04,3052           10741        V37QCAD            CADR     V37XEQ+3
001636: 04,3053           10171        ROOAD              CADR     DUMMYAD
001637: 04,3054           37312        3.1SEC             OCT      37312                                 #  2.5 + 0.6 SEC
001638:
001639:                                                                                                  #  FOR VERB 37 TWO TABLES ARE MAINTAINED. EACH TABLE HAS AN ENTRY FOR EACH
001640:                                                                                                  #  MAJOR MODE THAT CAN BE STARTED FROM THE KEYBOARD. THE ENTRIES ARE PUT
001641:                                                                                                  #  INTO THE TABLE WITH THE ENTRY FOR THE HIGHEST MAJOR MODE COMING FIRST,
001642:                                                                                                  #  TO THE LOWEST MAJOR MODE WHICH IS THE LAST ENTRY IN EACH TABLE.
001643:
001644:                                                                                                  #  THE FCADRMM TABLE CONTAINS THE FCADR OF THE STARTING JOB OF
001645:                                                                                                  #  THE MAJOR MODE.  FOR EXAMPLE,
001646:
001647:                                                                                                  #        FCADRMM1        FCADR   P79             # START OF P 79


001649:                                                                                                  #                        FCADR   PROG18          # START OF P 18
001650:                                                                                                  #                        FCADR   P01             # START OF P 01
001651:
001652: 04,3055                        FCADRMM1           EQUALS
001653: 04,3055           10606                           FCADR    P86
001654: 04,3056           10664                           FCADR    P85
001655: 04,3057           10656                           FCADR    P84
001656: 04,3060           10646                           FCADR    P83
001657: 04,3061           10545                           FCADR    P82
001658: 04,3062           10537                           FCADR    P81
001659: 04,3063           10677                           FCADR    P79
001660: 04,3064           26071                           FCADR    P76ER77
001661: 04,3065           26071                           FCADR    P76ER77
001662: 04,3066           72212                           FCADR    P75
001663: 04,3067           72002                           FCADR    P74
001664: 04,3070           11575                           FCADR    P73
001665: 04,3071           11405                           FCADR    P72
001666: 04,3072           54321                           FCADR    P62
001667: 04,3073           54234                           FCADR    P61
001668: 04,3074           30002                           FCADR    P54
001669: 04,3075           31414                           FCADR    P53
001670: 04,3076           30002                           FCADR    PROG52
001671: 04,3077           31414                           FCADR    P51
001672: 04,3100           51662                           FCADR    P47CSM
001673: 04,3101           51563                           FCADR    P41CSM
001674: 04,3102           50214                           FCADR    P40CSM
001675: 04,3103           74476                           FCADR    P37
001676: 04,3104           45334                           FCADR    P36
001677: 04,3105           72206                           FCADR    P35
001678: 04,3106           72000                           FCADR    P34
001679: 04,3107           11573                           FCADR    P33
001680: 04,3110           11403                           FCADR    P32
001681: 04,3111           11303                           FCADR    P31
001682: 04,3112           73433                           FCADR    P30
001683: 04,3113           60000                           FCADR    P29
001684: 04,3114           26254                           FCADR    PROG24
001685: 04,3115           62444                           FCADR    P23
001686: 04,3116           60153                           FCADR    PROG22
001687: 04,3117           76000                           FCADR    PROG21
001688: 04,3120           74016                           FCADR    PROG20
001689: 04,3121           67455                           FCADR    P15JOB
001690: 04,3122           55654                           FCADR    P06
001691: 04,3123           66001                           FCADR    GTSCPSS1                              #  GYROCOMPASS STANDARD LEAD IN.
001692:
001693:                                                                                                  #  THE PREMM TABLE CONTAINS THE E-BANK, MAJOR MODE, AND DOWNLINK INFO.
001694:                                                                                                  #  IT IS IN THE FOLLOWING FORMAT
001695:                                                                                                  #        DDD 00E EEM MMM MMM
001696:                                                                                                  #  WHERE THE     7 M BITS CONTAIN THE MAJOR MODE NUMBER
001697:                                                                                                  #                3 E BITS CONTAIN THE E-BANK NUMBER


001699:                                                                                                  #                3 D BITS CONTAIN THE DOWNLIST ID
001700:
001701:                                                                                                  #        COAST AND ALIGN LIST    =  0
001702:                                                                                                  #        ENTRY LIST              =  1
001703:                                                                                                  #        RENDEZVOUS LIST         =  2
001704:                                                                                                  #        POWERED FLIGHT LIST     =  3
001705:                                                                                                  #        P22 LIST                =  4
001706:
001707:                                                                                                  #  FOR EXAMPLE,
001708:
001709:                                                                                                  #                OCT     21137           # DOWNLIST      = 2 (RENDEZVOUS)
001710:                                                                                                  #                                        # E-BANK        = 4
001711:                                                                                                  #                                        # MAJOR MODE    = 95
001712:
001713:                                                                                                  #                OCT     11476           # DOWNLIST      = 1 (ENTRY)
001714:                                                                                                  #                                        # E-BANK        = 6
001715:                                                                                                  #                                        # MAJOR MODE    = 62
001716:
001717: 04,3124                        PREMM1             EQUALS
001718: 04,3124           21526                           OCT      21526                                 #  MM 86         EBANK 6         DOWNLIST        2
001719: 04,3125           21525                           OCT      21525                                 #  MM 85         EBANK 6         DOWNLIST        2
001720: 04,3126           21524                           OCT      21524                                 #  MM 84         EBANK 6         DOWNLIST        2
001721: 04,3127           21523                           OCT      21523                                 #  MM 83         EBANK 6         DOWNLIST        2
001722: 04,3130           21522                           OCT      21522                                 #  MM 82         EBANK 6         DOWNLIST        2
001723: 04,3131           21521                           OCT      21521                                 #  MM 81         EBANK 6         DOWNLIST        2
001724: 04,3132           21717                           OCT      21717                                 #  MM 79         EBANK 7         DOWNLIST        2
001725: 04,3133           21715                           OCT      21715
001726: 04,3134           21714                           OCT      21714                                 #  MM 76         EBANK 7         DOWNLIST        2
001727: 04,3135           21113                           OCT      21113                                 #  MM 75         EBANK 4         DOWNLIST        2
001728: 04,3136           21112                           OCT      21112                                 #  MM 74         EBANK 4         DOWNLIST        2
001729: 04,3137           21111                           OCT      21111                                 #  MM 73         EBANK 4         DOWNLIST        2
001730: 04,3140           21110                           OCT      21110                                 #  MM 72         EBANK 4         DOWNLIST        2
001731: 04,3141           11476                           OCT      11476                                 #  MM 62         EBANK 6         DOWNLIST        1
001732: 04,3142           31475                           OCT      31475                                 #  MM 61         EBANK 6         DOWNLIST        3
001733: 04,3143           01266                           OCT      01266                                 #  MM 54         EBANK 5         DOWNLIST        0
001734: 04,3144           01265                           OCT      01265                                 #  MM 53         EBANK 5         DOWNLIST        0
001735: 04,3145           01264                           OCT      01264                                 #  MM 52         EBANK 5         DOWNLIST        0
001736: 04,3146           01263                           OCT      01263                                 #  MM 51         EBANK 5         DOWNLIST        0
001737: 04,3147           31657                           OCT      31657                                 #  MM 47         EBANK 7         DOWNLIST        3
001738: 04,3150           31451                           OCT      31451                                 #  MM 41         EBANK 6         DOWNLIST        3
001739: 04,3151           31450                           OCT      31450                                 #  MM 40         EBANK 6         DOWNLIST        3
001740: 04,3152           21645                           OCT      21645                                 #  MM 37         EBANK 7         DOWNLIST        2
001741: 04,3153           21044                           OCT      21044                                 #  MM 36         EBANK 4         DOWNLIST        2
001742: 04,3154           21043                           OCT      21043                                 #  MM 35         EBANK 4         DOWNLIST        2
001743: 04,3155           21042                           OCT      21042                                 #  MM 34         EBANK 4         DOWNLIST        2
001744: 04,3156           21041                           OCT      21041                                 #  MM 33         EBANK 4         DOWNLIST        2
001745: 04,3157           21040                           OCT      21040                                 #  MM 32         EBANK 4         DOWNLIST        2
001746: 04,3160           21037                           OCT      21037                                 #  MM 31         EBANK 4         DOWNLIST        2
001747: 04,3161           21636                           OCT      21636                                 #  MM 30         EBANK 7         DOWNLIST        2
001748: 04,3162           21635                           OCT      21635                                 #  MM 29         EBANK 7         DOWNLIST        2


001750: 04,3163           41230                           OCT      41230                                 #  MM 24         EBANK 5         DOWNLIST        4
001751: 04,3164           21627                           OCT      21627                                 #  MM 23         EBANK 7         DOWNLIST        2
001752: 04,3165           41626                           OCT      41626                                 #  MM 22         EBANK 7         DOWNLIST        4
001753: 04,3166           21025                           OCT      21025                                 #  MM 21         EBANK 4         DOWNLIST        2
001754: 04,3167           21424                           OCT      21424                                 #  MM 20         EBANK 6         DOWNLIST        2
001755: 04,3170           31617                           OCT      31617                                 #  MM 15         EBANK 7         DOWNLIST        3
001756: 04,3171           01006                           OCT      01006                                 #  MM 06         EBANK 4         DOWNLIST        0
001757: 04,3172           01201                           OCT      01201                                 #  MM 01         EBANK 5         DOWNLIST        0
001758:
001759:                                                                                                  #  NOTE:         THE FOLLOWING CONSTANT IS THE NUMBER OF ENTRIES IN EACH OF
001760:                                                                                                  #  -----         THE ABOVE LISTS-1 (I.E., THE NUMBER OF MAJOR MODES (EXCEPT P00)
001761:                                                                                                  #                THAT CAN BE CALLED FROM THE KEYBOARD MINUS ONE)
001762:
001763: 04,3173                        EPREMM1            EQUALS                                         #  END OF PREMM1 TABLE
001764: 04,3124                                           SETLOC   PREMM1                                #  THIS CODING WILL AUTOMATICALLY CHANGE
001765: 04,3124                        NO.MMS             =MINUS   EPREMM1                               #  THE 'NOV37MM' CONSTANT AS ENTRIES ARE
001766: 04,2000                                           SETLOC   VERB37                                #  INSERTED(IN) OR DELETED(FROM) THE
001767: 04,2000                                           BANK                                           #  'PREMM1' TABLE.
001768:
001769: 04,3173           00046        NOV37MM            ADRES    NO.MMS     -1                         #  ITEMS IN 'PREMM1' TABLE - 1. *DON'T MOVE*
001770:
001771: 04,3174     4772               DNLADP00           =        ZERO
001772:
001773:                                                                                                  #  ORBITAL INTEGRATION CONSTANTS
001774:
001775:                                                                                                  #  THESE CONSTANTS ARE USED IN COMPUTING THE SETTING OF MIDFLAG.
001776:
001777: 04,3174           00465 32324  RMM                2DEC     2538.09    E3         B-27            #  800 KM ABOVE LUNAR SURFACE
001778:
001779: 04,3176           00333 01733  RME                2DEC     7178165    B-29                       #  800 KM ABOVE EQ. RADIUS
001780:
001781: 13,2000                                           SETLOC   INTINIT
001782: 13,2000                                           BANK
001783:
001784: 13,2000                                           COUNT*   $$/INTIN
001785:
001786: 13,2000  E3,1554                                  EBANK=   RRECTCSM
001787:
001788: 13,2000           43014        STATEUP            SET      BOF                                   #  EXTRAPOLATE CM STATE VECTOR
001789: 13,2001           01474                                    VINTFLAG
001790: 13,2002           01751                                    ORBWFLAG                              #  ALSO 6X6 W-MATRIX IF VALID
001791: 13,2003           26006                                    +3                                    #       FOR ORBITAL NAVIGATION
001792: 13,2004           77614                           SET
001793: 13,2005           01476                                    DIM0FLAG
001794: 13,2006           45014                           CLEAR    CALL
001795: 13,2007           01667                                    PRECIFLG
001796: 13,2010           27236                                    INTEGRV
001797: 13,2011           71214                           BON      DLOAD
001798: 13,2012           04307                                    SURFFLAG


001800: 13,2013           26031                                    STATEND
001801: 13,2014           01571                                    TETCSM
001802: 13,2015           34041                           STCALL   TDEC1
001803: 13,2016           27516                                    INTSTALL
001804: 13,2017           45014                           CLEAR    CALL                                  #  EXTRAPOLATE LM STATE VECTOR
001805: 13,2020           01674                                    VINTFLAG
001806: 13,2021           26744                                    SETIFLGS                              #        AND 6X6 W-MATRIX IF VALID
001807: 13,2022           43014                           BOF      SET
001808: 13,2023           02756                                    RENDWFLG                              #        FOR RENDEZVOUS NAVIGATION
001809: 13,2024           26026                                    +2
001810: 13,2025           01476                                    DIM0FLAG
001811: 13,2026           45014                           SET      CALL
001812: 13,2027           01467                                    PRECIFLG
001813: 13,2030           27236                                    INTEGRV
001814: 13,2031           77614        STATEND            CLRGO
001815: 13,2032           01236                                    NODOFLAG
001816: 13,2033           26732                                    ENDINT
001817:
001818:                                                                                                  #  THISVINT IS CALLED BY MIDTOAV1 AND 2
001819:
001820: 13,2034           43414        THISVINT           SET      RVQ
001821: 13,2035           01474                                    VINTFLAG

End of include-file FRESH_START_AND_RESTART.agc.  Parent file is MAIN.agc


