
Source Code


000002:                                                                                                  ## Copyright:   Public domain.
000003:                                                                                                  ## Filename:    GIMBAL_LOCK_AVOIDANCE.agc
000004:                                                                                                  ## Purpose:     Part of the source code for Artemis (i.e., Colossus 3),
000005:                                                                                                  ##              build 072.  This is for the Command Module's (CM)
000006:                                                                                                  ##              Apollo Guidance Computer (AGC), for
000007:                                                                                                  ##              Apollo 15-17.
000008:                                                                                                  ## Assembler:   yaYUL
000009:                                                                                                  ## Contact:     Sergio Navarro <sergionavarrog@gmail.com>
000010:                                                                                                  ## Website:     www.ibiblio.org/apollo/index.html
000011:                                                                                                  ## Page Scans:  www.ibiblio.org/apollo/ScansForConversion/Artemis072/
000012:                                                                                                  ## Mod history: 2009-08-19 SN   Adapted from corresponding Comanche 055 file.
000013:                                                                                                  ##              2009-09-04 JL   Minor changes.
000014:                                                                                                  ##              2010-02-20 RSB  Un-##'d this header.
000015:                                                                                                  ##              2017-02-05 RSB  Proofed comment text by diff'ing vs Comanche 55
000016:                                                                                                  ##                              but no differences found.
000017:


000019:
000020: 22,2000                                           SETLOC   KALCMON1
000021: 22,2000                                           BANK
000022:
000023: 22,2745                                           COUNT*   $$/KALC
000024: 22,2745  E6,1661                                  EBANK=   BCDU
000025:
000026:                                                                                                  #  DETECTING GIMBAL LOCK
000027: 22,2745  22,2745               LOCSKIRT           EQUALS   WCALC
000028: 22,2745           70740        WCALC              LXC,1    DLOAD*
000029: 22,2746           00774                                    RATEINDX
000030: 22,2747           05002                                    ARATE,1
000031: 22,2750           45002                           SR4      CALL                                  #  COMPUTE THE INCREMENTAL ROTATION MATRIX
000032: 22,2751           44522                                    DELCOMP                               #  DEL CORRESPONDING TO A 1 SEC ROTATION
000033:                                                                                                  #  ABOUT COF
000034: 22,2752           74343                           DLOAD*   VXSC
000035: 22,2753           05002                                    ARATE,1
000036: 22,2754           03343                                    COF
000037: 22,2755           77721                           MXV
000038: 22,2756           05014                                    QUADROT
000039: 22,2757           17311                           STODL    BRATE
000040: 22,2760           03365                                    AM
000041: 22,2761           55605                           DMP      DDV*
000042: 22,2762           05012                                    ANGLTIME
000043: 22,2763           05002                                    ARATE,1
000044: 22,2764           77661                           SR
000045: 22,2765           20606                                    5
000046: 22,2766           03317                           STORE    TM
000047: 22,2767           77214                           BON      VLOAD
000048: 22,2770           00313                                    CYC61FLG
000049: 22,2771           71747                                    RCYCLR61
000050: 22,2772           03311                                    BRATE
000051: 22,2773           77761                           VXSC
000052: 22,2774           05036                                    BIASCALE
000053: 22,2775           03275                           STORE    BIASTEMP                              #  ATTITUDE ERROR BIAS TO PREVENT OVERSHOOT
000054:                                                                                                  #  IN SYSTEM
000055: 22,2776           77614                           SETGO                                          #  STATE SWITCH CALCMAN2 (43D)
000056: 22,2777           01035                                    CALCMAN2                              #  0(OFF) = BYPASS STARTING PROCEDURE
000057: 22,3000           45053                                    NEWANGL    +1                         #  1(ON) = START MANEUVER
000058:
000059:
000060: 22,3001           00044 15053  ARATE              2DEC     .0022222222                            #  = .05 DEG/SEC
000061: 22,3003           00221 24255                     2DEC     .0088888889                            #  = .2 DEG/SEC
000062: 22,3005           00554 02660                     2DEC     .0222222222                            #  = .5 DEG/SEC
000063: 22,3007           02660 13301                     2DEC     .0888888889                            #  = 2 DEG/SEC                $22.5 DEG/SEC
000064: 22,3011           00003 04000  ANGLTIME           2DEC     .000190735                            #  = 100B - 19
000065:                                                                                                  #  MANEUVER ANGLE TO MANEUVER TIME


000067: 22,3013           03146 14632  QUADROT            2DEC     .1                                    #  ROTATION MATRIX FROM S/C AXES TO CONTROL
000068: 22,3015           00000 00000                     2DEC     0          B-28                       #  AXES (X ROT = -7.25 DEG)
000069: 22,3017           00000 00000                     2DEC     0          B-28
000070: 22,3021           00000 00000                     2DEC     0          B-28
000071: 22,3023           03131 11275                     2DEC     .099200                               #  =(.1)COS7.25
000072: 22,3025           77461 47370                     2DEC     -.012620                              #  =-(.1)SIN7.25
000073: 22,3027           00000 00000                     2DEC     0          B-28
000074: 22,3031           00316 30407                     2DEC     .012620                               #  (.1)SIN7.25
000075: 22,3033           03131 11275                     2DEC     .099200                               #  (.1)COS7.25
000076: 22,3035           00004 05253  BIASCALE           2DEC     .0002543132                            #  = (450/180)(1/0.6)(1/16384)

End of include-file GIMBAL_LOCK_AVOIDANCE.agc.  Parent file is MAIN.agc


