
Source Code


000002:                                                                                                  ## Copyright:   Public domain.
000003:                                                                                                  ## Filename:    GROUND_TRACKING_DETERMINATION_PROGRAM_-_P21.agc
000004:                                                                                                  ## Purpose:     Part of the source code for Artemis (i.e., Colossus 3),
000005:                                                                                                  ##              build 072.  This is for the Command Module's (CM)
000006:                                                                                                  ##              Apollo Guidance Computer (AGC), for
000007:                                                                                                  ##              Apollo 15-17.
000008:                                                                                                  ## Assembler:   yaYUL
000009:                                                                                                  ## Contact:     Sergio Navarro <sergionavarrog@gmail.com>
000010:                                                                                                  ## Website:     www.ibiblio.org/apollo/index.html
000011:                                                                                                  ## Page Scans:  www.ibiblio.org/apollo/ScansForConversion/Artemis072/
000012:                                                                                                  ## Mod history: 2009-08-19 SN   Adapted from corresponding Comanche 055 file.
000013:                                                                                                  ##              2009-09-03 JL   Fixed symbol names.
000014:                                                                                                  ##              2009-09-04 JL   Fixed a bunch of typos.
000015:                                                                                                  ##              2009-09-05 JL   Fixed typos.
000016:                                                                                                  ##              2010-01-31 JL   Fixed build errors.
000017:                                                                                                  ##              2010-02-20 RSB  Un-##'d this header.
000018:                                                                                                  ##              2017-02-05 RSB  Proofed comment text by diff'ing vs Comanche 55
000019:                                                                                                  ##                              and fixed errors found.
000020:


000022:                                                                                                  #  GROUND TRACKING DETERMINATION PROGRAM P21
000023:
000024:                                                                                                  #  PROGRAM DESCRIPTION
000025:                                                                                                  #  MOD NO - 1
000026:                                                                                                  #  MOD BY - N. M. NEVILLE
000027:
000028:                                                                                                  #  FUNCTIONAL DECRIPTION-
000029:
000030:                                                                                                  #        TO PROVIDE THE ASTRONAUT DETAILS OF THE LM OR CSM GROUND TRACK WITHOUT
000031:                                                                                                  #        THE NEED FOR GROUND COMMUNICATION (REQUESTED BY DSKY).
000032:
000033:                                                                                                  #  CALLING SEQUENCE -
000034:
000035:                                                                                                  #        ASTRONAUT REQUEST THROUGH DSKY V37E21E
000036:
000037:                                                                                                  #  SUBROUTINES CALLED-
000038:
000039:                                                                                                  #        GOPERF4
000040:                                                                                                  #        GOFLASH
000041:                                                                                                  #        THISPREC
000042:                                                                                                  #        OTHPREC
000043:                                                                                                  #        LAT-LONG
000044:
000045:                                                                                                  #  NORMAL EXIT MODES-
000046:
000047:                                                                                                  #        ASTRONAUT REQUEST TROUGH DSKY TO TERMINATE PROGRAM V34E
000048:
000049:                                                                                                  #  ALARM OR ABORT EXIT MODES-
000050:                                                                                                  #
000051:                                                                                                  #        NONE
000052:
000053:                                                                                                  #  OUTPUT -
000054:
000055:                                                                                                  #        OCTAL DISPLAY OF OPTION CODE AND VEHICLE WHOSE GROUND TRACK IS TO BE
000056:                                                                                                  #        COMPUTED
000057:                                                                                                  #                OPTION CODE     00002
000058:                                                                                                  #                THIS            00001
000059:                                                                                                  #                OTHER           00002
000060:                                                                                                  #        DECIMAL DISPLAY OF TIME TO BE INTEGRATED TO HOURS , MINUTES , SECONDS
000061:                                                                                                  #        DECIMAL DISPLAY OF LAT,LONG,ALT
000062:
000063:                                                                                                  #  ERASABLE INITIALIZATION REQUIRED
000064:
000065:                                                                                                  #        AX0      2DEC   4.652459653 E-5   RADIANS       %68-69 CONSTANTS"
000066:
000067:                                                                                                  #        -AY0     2DEC   2.147535898 E-5   RADIANS
000068:
000069:                                                                                                  #        AZ0      2DEC   .7753206164       REVOLUTIONS
000070:
000071:                                                                                                  #        FOR LUNAR ORBITS 504LM VECTOR IS NEEDED
000072:
000073:                                                                                                  #        504LM    2DEC   -2.700340600 E-5  RADIANS
000074:
000075:                                                                                                  #        504LM _2 2DEC   -7.514128400 E-4  RADIANS
000076:
000077:                                                                                                  #        504LM _4 2DEC   _2.553198641 E-4  RADIANS
000078:
000079:                                                                                                  #        NONE
000080:
000081:                                                                                                  #  DEBRIS
000082:


000084:                                                                                                  #        CENTRALS - A,Q,L
000085:                                                                                                  #        OTHER - THOSE USED BY THE ABOVE LISTED SUBROUTINES
000086:                                                                                                  #        SEE LEMPREC,LAT-LONG
000087:
000088: 43,3166  30,2000                                  SBANK=   LOWSUPER                              #  FOR LOW 2CADR'S.
000089:
000090: 37,2000                                           SETLOC   P20S
000091: 37,2000                                           BANK
000092:
000093: 37,2000  E7,1537                                  EBANK=   P21TIME
000094: 37,2000                                           COUNT*   $$/P21
000095: 37,2000           34770        PROG21             CAF      ONE
000096: 37,2001           54776                           TS       OPTION2                               #  ASSUMED VEHICLE IS LM, R2 = 00001
000097: 37,2002           05547                           TC       UPFLAG
000098: 37,2003           00031                           ADRES    TRACKFLG
000099:
000100: 37,2004           34767                           CAF      BIT2                                  #   OPTION 2
000101: 37,2005           04636                           TC       BANKCALL
000102: 37,2006           21074                           CADR     GOPERF4
000103: 37,2007           04103                           TC       GOTOPOOH                              #  TERMINATE
000104: 37,2010           02012                           TC       +2                                    #  PROCEED VALUE OF ASSUMED VEHICLE OK
000105: 37,2011           02004                           TC       -5                                    #  R2 LOADED THROUGH DSKY
000106: 37,2012           34772                           CAF      ZERO                                  #  ZERO DSPTEM
000107: 37,2013           55250                           TS       DSPTEM1
000108: 37,2014           55251                           TS       DSPTEM1    +1
000109: 37,2015           35027        P21PROG1           CAF      V6N34                                 #  LOAD DESIRED TIME OF LAT-LONG.
000110: 37,2016           05535                           TC       VNFLASH
000111: 37,2017           06006                           TC       INTPRET
000112: 37,2020           53145                           DLOAD    BZE
000113: 37,2021           01251                                    DSPTEM1
000114: 37,2022           76155                                    P21PRTM                               #  SET TO INTEG TO PRES TIME
000115: 37,2023           34041        P21PROG2           STCALL   TDEC1                                 #  INTEG TO TIME SPECIFIED IN TDEC
000116: 37,2024           27516                                    INTSTALL
000117: 37,2025           43014                           BON      SET
000118: 37,2026           01303                                    P21FLAG
000119: 37,2027           76045                                    P21CONT                               #  ON...RECYCLE USING BASE VECTOR
000120: 37,2030           01474                                    VINTFLAG                              #  OFF..1ST PASS CALC BASE VECTOR
000121: 37,2031           70535                           SLOAD    SR1
000122: 37,2032           00777                                    OPTION2
000123: 37,2033           43030                           BHIZ     CLEAR
000124: 37,2034           76036                                    +2                                    #  ZERO..THIS VEHICLE (CM)
000125: 37,2035           01674                                    VINTFLAG                              #  ONE...OTHER VEHICLE(LM)
000126: 37,2036           43014                           CLEAR    CLEAR
000127: 37,2037           01676                                    DIM0FLAG
000128: 37,2040           01673                                    INTYPFLG                              #  PRECISION
000129: 37,2041           77624                           CALL
000130: 37,2042           27236                                    INTEGRV                               #  CALCULATE
000131: 37,2043           77650                           GOTO                                           #  .AND
000132: 37,2044           76066                                    P21VSAVE                              #  ..SAVE BASE VECTOR
000133: 37,2045           77775        P21CONT            VLOAD                                          #  RECYCLE..INTEG FROM BASE VECTOR


000135: 37,2046           03605                                    P21BASER
000136: 37,2047           25535                           STOVL    RCV                                   #  ..POS
000137: 37,2050           03613                                    P21BASEV
000138: 37,2051           15543                           STODL    VCV                                   #  ..VEL
000139: 37,2052           03540                                    P21TIME
000140: 37,2053           01517                           STORE    TET                                   #  ..TIME
000141: 37,2054           43014                           CLEAR    CLEAR
000142: 37,2055           01676                                    DIM0FLAG
000143: 37,2056           00263                                    MOONFLAG
000144: 37,2057           53135                           SLOAD    BZE
000145: 37,2060           03604                                    P21ORIG
000146: 37,2061           76064                                    +3                                    #  ZERO = EARTH
000147: 37,2062           77614                           SET                                            #  ...2 = MOON
000148: 37,2063           00063                                    MOONFLAG
000149: 37,2064           77624                           CALL
000150: 37,2065           27211                                    INTEGRVS
000151: 37,2066           77745        P21VSAVE           DLOAD                                          #  SAVE CURRENT BASE VECTOR
000152: 37,2067           00015                                    TAT
000153: 37,2070           27540                           STOVL    P21TIME                               #  ..TIME
000154: 37,2071           00017                                    RATT1
000155: 37,2072           27605                           STOVL    P21BASER                              #  ..POS B-29 OR B-27
000156: 37,2073           00025                                    VATT1
000157: 37,2074           03613                           STORE    P21BASEV                              #  ..VEL B-7  OR B-5
000158: 37,2075           77614                           BONCLR                                         #  WITH ADJUSTED P29 BASE TIME, SKIP
000159: 37,2076           02605                                    NEWTFLAG                              #       P29 DISPLAYS
000160: 37,2077           60015                                    HOP29DSP
000161: 37,2100           47014                           BOFF     RTB                                   #  RETURN TO P29 IF P29FLAG IS SET
000162: 37,2101           00356                                    P29FLAG
000163: 37,2102           76104                                    +2
000164: 37,2103           60004                                    LONGPASS
000165: 37,2104           53646                           ABVAL    SL*
000166: 37,2105           57576                                    0,2
000167: 37,2106           27623                           STOVL    P21VEL                                #  /VEL/ FOR N73 DSP
000168: 37,2107           00001                                    RATT
000169: 37,2110           50256                           UNIT     DOT
000170: 37,2111           00007                                    VATT                                  #  U(R).(V)
000171: 37,2112           67471                           DDV      ASIN                                  #  U(R).U(V)
000172: 37,2113           03623                                    P21VEL
000173: 37,2114           03625                           STORE    P21GAM                                #  SIN-1 U(R).U(V), -90 TO +90
000174: 37,2115           43134                           SXA,2    SET
000175: 37,2116           03603                                    P21ORIG                               #  0 = EARTH  2 = MOON
000176: 37,2117           01063                                    P21FLAG
000177: 37,2120           67214        P21DSP             CLEAR    SLOAD                                 #  GENERATE DISPLAY DATA
000178: 37,2121           01663                                    LUNAFLAG
000179: 37,2122           00050                                    X2
000180: 37,2123           43054                           BZE      SET
000181: 37,2124           76126                                    +2                                    #  0 = EARTH
000182: 37,2125           01463                                    LUNAFLAG
000183: 37,2126           77775                           VLOAD
000184: 37,2127           00001                                    RATT


000186: 37,2130           16152                           STODL    ALPHAV
000187: 37,2131           00015                                    TAT
000188: 37,2132           45014                           CLEAR    CALL
000189: 37,2133           00662                                    ERADFLAG
000190: 37,2134           26453                                    LAT-LONG
000191: 37,2135           77605                           DMP                                            #  MPAC = ALT, METERS B-29
000192: 37,2136           36166                                    K.01
000193: 37,2137           03621                           STORE    P21ALT                                #  ALT/100 FOR N73 DSP
000194: 37,2140           77776                           EXIT
000195: 37,2141           32164                           CAF      V06N43                                #  DISPLAY LAT,LONG,ALT
000196: 37,2142           04636                           TC       BANKCALL                              #  LAT,LONG = REVS B0    BOTH EARTH/MOON
000197: 37,2143           20743                           CADR     GOFLASH                               #  ALT = METERS B-29     BOTH EARTH/MOON
000198: 37,2144           04103                           TC       GOTOPOOH                              #  TERM
000199: 37,2145           04103                           TC       GOTOPOOH
000200: 37,2146           06006                           TC       INTPRET                               #  V32E RECYCLE
000201: 37,2147           43345                           DLOAD    DAD
000202: 37,2150           03540                                    P21TIME
000203: 37,2151           36161                                    600SEC                                #  600 SECONDS OR 10 MIN
000204: 37,2152           01251                           STORE    DSPTEM1
000205: 37,2153           77634                           RTB
000206: 37,2154           76015                                    P21PROG1
000207: 37,2155           52034        P21PRTM            RTB      GOTO
000208: 37,2156           51751                                    LOADTIME
000209: 37,2157           76023                                    P21PROG2
000210: 37,2160           00003 25140  600SEC             2DEC     60000      B-28                       #  10 MIN
000211:
000212: 37,2162           00001        P21ONENN           OCT      00001                                 #  NEEDED TO DETERMINE VEHICLE
000213: 37,2163           00000                           OCT      00000                                 #  TO BE INTEGRATED
000214: 37,2164           01453        V06N43             VN       00643
000215: 37,2165     5027               V6N34              =        V06N34
000216: 37,2165           00243 32703  K.01               2DEC     .01
000217:
000218: 30,2000                                           SETLOC   P29TAG1
000219: 30,2000                                           BANK
000220:
000221: 30,2000                                           COUNT*   $$/P29
000222: 30,2000  E7,1543                                  EBANK=   LONGFOR
000223:
000224: 30,2000           06006        P29                TC       INTPRET                               #  TIME-TO-LONGITUDE PROGRAM
000225: 30,2001           47014                           SET      RTB                                   #  SET=P29,CLEARED=P21--CHECKED IN P21
000226: 30,2002           00076                                    P29FLAG                               #  FLAG ALSO MARKS FIRST PASS THRU P29
000227: 30,2003           76000                                    PROG21                                #  GET BASE TIME + STATE VECTOR FROM P21
000228: 30,2004           32152        LONGPASS           CAF      V06N43LP
000229: 30,2005           05540                           TC       VNFLASHR                              #  ASTRONAUT LOADS DESIRED LONGITUDE
000230: 30,2006           12012                           TCF      +4
000231: 30,2007           34773                           CAF      FIVE                                  #  BLANK R1,R3
000232: 30,2010           05516                           TC       BLANKET
000233: 30,2011           05205                           TC       ENDOFJOB
000234: 30,2012           52751                           DXCH     LONG
000235: 30,2013           53544                           DXCH     LONGFOR                               #  STORE DESIRED LONGITUDE


000237: 30,2014           06006                           TC       INTPRET
000238: 30,2015           65375        HOP29DSP           VLOAD    PDDL                                  #  STORE UNIT NORTH(IN PLANETARY COORDS )
000239: 30,2016           15330                                    UNITZ                                 #       AND BASE TIME ON PUSHLIST FOR
000240: 30,2017           03540                                    P29BASET                              #       RP-TO-R
000241: 30,2020           03542                           STORE    PASSTIME                              #  INITIALIZE TIME OF CROSSING
000242: 30,2021           43125                           PDDL     SET
000243: 30,2022           15336                                    ZEROVECS
000244: 30,2023           00076                                    P29FLAG                               #  IN CASE OF RESTART OR REPEAT INTEGRATION
000245: 30,2024           03546                           STORE    DELTLONG                              #  INITIALIZE LONGITUDE DIFFERENCE TO ZERO
000246: 30,2025           43014                           CLEAR    BOFF
000247: 30,2026           01663                                    LUNAFLAG
000248: 30,2027           04343                                    CMOONFLG
000249: 30,2030           60034                                    +4
000250: 30,2031           71214                           SET      DLOAD
000251: 30,2032           01463                                    LUNAFLAG                              #  SET LUNAFLAG=CMOONFLG FOR LAT-LONG
000252: 30,2033           20150                                    FMOON                                 #  MPAC NONZERO FOR MOON, ZERO FOR EARTH
000253: 30,2034           77624                           CALL                                           #  GET UNIT PLANETARY NORTH IN BASE COORDS.
000254: 30,2035           55345                                    RP-TO-R
000255: 30,2036           41406                           PUSH     PUSH                                  #  PD=12D,MUSUBZ(UNIT PLANETARY NORTH)
000256: 30,2037           53435                           VXV      UNIT
000257: 30,2040           03605                                    P29BASER
000258: 30,2041           27552                           STOVL    MUSUBE                                #  PD=6D,MUSUBE=UNIT LOCAL EAST AT P29BASER
000259: 30,2042           53435                           VXV      UNIT
000260: 30,2043           03552                                    MUSUBE
000261: 30,2044           27560                           STOVL    MUSUBC                                #  UNIT EQUATORIAL CENTRAL-DIRECTED VECTOR
000262: 30,2045           03605                                    P29BASER
000263: 30,2046           53435                           VXV      UNIT                                  #  FORM MUSUBN(UNIT ORBITAL LOCAL NORTH)
000264: 30,2047           03613                                    P29BASEV
000265: 30,2050           41406                           PUSH     PUSH                                  #  PD=18D
000266: 30,2051           53435                           VXV      UNIT
000267: 30,2052           03605                                    P29BASER
000268: 30,2053           27566                           STOVL    MUSUBS                                #  PD=12D,MUSUBS=UNIT ORBITAL TANG. VEL.
000269: 30,2054           63241                           DOT      PDVL                                  #  PD=8D,MUSUBZ AT 0D, EXCHANGE DOT-PRODUCT
000270: 30,2055           00001                                    0D                                    #       WITH MUSUBN IN PUSHLIST
000271: 30,2056           45565                           SIGN     STADR                                 #  PD=6D, PUT MUSUBN IN HEMI. OF MUSUBZ
000272: 30,2057           50203                           STOVL    MUSUBN
000273: 30,2060           03605                                    P29BASER
000274: 30,2061           70414        HOPALONG           BOFF     VSR2                                  #  MUST BE B+29 FOR LAT-LONG
000275: 30,2062           04343                                    CMOONFLG
000276: 30,2063           60064                                    +1
000277: 30,2064           16152                           STODL    ALPHAV                                #  STORE FOR LAT-LONG
000278: 30,2065           03542                                    PASSTIME
000279: 30,2066           45014                           CLEAR    CALL                                  #  FIND LONGITUDE FOR PRESENT ITERATION OF
000280: 30,2067           00662                                    ERADFLAG                              #       POSITION VECTOR
000281: 30,2070           26453                                    LAT-LONG
000282: 30,2071           45345                           DLOAD    DSU                                   #  COMPARE WITH DESIRED LONGITUDE
000283: 30,2072           03544                                    LONGFOR
000284: 30,2073           00751                                    LONG
000285: 30,2074           51406                           PUSH     ABS                                   #  PD=2D, SAVE DELTA
000286: 30,2075           50025                           DSU      BMN                                   #  IF WITHIN EPSILONG, DISPLAY RESULTS


000288: 30,2076           20142                                    EPSILONG                              #  .01 DEGREES
000289: 30,2077           60122                                    PASSOUT
000290: 30,2100           77600                           BOV                                            #  CLEAR OVERFLOW INDICATOR
000291: 30,2101           60102                                    +1
000292: 30,2102           40015                           DAD      BOV                                   #  CHECK WHETHER WITHIN EPSILON OF 360 DEG.
000293: 30,2103           20144                                    TWICEEPS                              #  .02 DEGREES
000294: 30,2104           60122                                    PASSOUT
000295: 30,2105           71214                           BOFCLR   DLOAD                                 #  P29FLAG CLEARED FOR LATER PASSES
000296: 30,2106           00256                                    P29FLAG                               #  PD=0D
000297: 30,2107           40272                                    MODULO
000298: 30,2110           43244                           BPL      DAD                                   #  MAKE DELTA>0
000299: 30,2111           60113                                    +2
000300: 30,2112           15344                                    DPPOSMAX
000301: 30,2113           45214                           BOFF     DSU                                   #  FOR EARTH,DELTA>0
000302: 30,2114           04343                                    CMOONFLG                              #  FOR MOON, DELTA.0
000303: 30,2115           40212                                    HOP1
000304: 30,2116           15344                                    DPPOSMAX
000305: 30,2117           52125                           PDDL     GOTO                                  #  PD=2D
000306: 30,2120           20150                                    FMOON                                 #  327.8/328.8, 8+1
000307: 30,2121           40214                                    HOP2
000308: 20,2000                                           SETLOC   P29TAG2
000309: 20,2000                                           BANK
000310:
000311: 20,2212                                           COUNT*   $$/P29
000312: 20,2212           77725        HOP1               PDDL                                           #  PD=2D
000313: 20,2213           20146                                    FEARTH                                #  16/15, B+1
000314: 20,2214           03550        HOP2               STORE    FUDGE
000315: 20,2215           77745        DELTLOAD           DLOAD                                          #  PD=0D, LOAD DELTA
000316: 20,2216           40005        THETCOMP           DMP      BOV
000317: 20,2217           03550                                    FUDGE
000318: 20,2220           40221                                    +1                                    #  CLEAR OVERFLOW INDICATOR
000319: 20,2221           43352                           SL1      DAD                                   #  SHIFT TO GET B0, SINCE FUDGE IS B+1
000320: 20,2222           03546                                    DELTLONG
000321: 20,2223           40006                           PUSH     BOV                                   #  PD=2D, IF FUDGE FACTOR MAKES DELTLONG>
000322: 20,2224           40303                                    ADDTEN                                #       360, MODIFY BASE TIME
000323: 20,2225           03546                           STORE    DELTLONG                              #  CUMULATIVE EQUATORIAL DELTA
000324: 20,2226           74346                           COS      VXSC
000325: 20,2227           03552                                    MUSUBE
000326: 20,2230           73525                           PDDL     SIN                                   #  PD=6D
000327: 20,2231           53361                           VXSC     VAD                                   #  PD=0D
000328: 20,2232           03560                                    MUSUBC                                #  ROTATE MUSUBE THRU ANGLE DELTLONG
000329: 20,2233           53435                           VXV      UNIT                                  #  FORM MUSUBD=ROTATED ORBITAL UNIT
000330: 20,2234           03574                                    MUSUBN                                #       POSITION VECTOR, OUTWARD-DIRECTED
000331: 20,2235           63206                           PUSH     PDVL                                  #  PD=12D
000332: 20,2236           03605                                    P29BASER
000333: 20,2237           50256                           UNIT     DOT                                   #  PD=6D, DOT PRODUCT IS B+2
000334: 20,2240           63352                           SL1      PDVL                                  #  PD=2D, MAKE B+1 FOR ACOS, EXCHANGE
000335: 20,2241           65241                           DOT      PDDL                                  #  PD=2D, EXCHANGE WITH PUSHLIST
000336: 20,2242           03566                                    MUSUBS
000337: 20,2243           75326                           ACOS     SIGN                                  #  PD=0D


000339: 20,2244           73406                           PUSH     SIN                                   #  PD=2D, FORM THETA=ORBITAL DELTA
000340: 20,2245           16732                           STODL    SNTH                                  #  PD=0D
000341: 20,2246           74146                           COS      AXC,1
000342: 20,2247           00002                                    2D
000343: 20,2250           26734                           STOVL    CSTH                                  #  STORE ANGLE DATA AND BASE STATE VECTOR
000344: 20,2251           03605                                    P29BASER                              #       FOR TIME-THETA
000345: 20,2252           26657                           STOVL    RVEC
000346: 20,2253           03613                                    P29BASEV
000347: 20,2254           02746                           STORE    VVEC
000348: 20,2255           74014                           BOFF     AXC,1                                 #  SET X1=-2D FOR EARTH, -10D FOR MOON
000349: 20,2256           04343                                    CMOONFLG
000350: 20,2257           40261                                    +2
000351: 20,2260           00012                                    10D
000352: 20,2261           45014                           CLEAR    CALL                                  #  INTEGRATE BASE STATE VECTOR THRU THETA
000353: 20,2262           03666                                    RVSW
000354: 20,2263           25002                                    TIMETHET
000355: 20,2264           43345                           DLOAD    DAD
000356: 20,2265           00037                                    T                                     #  T=TIME TO TRAVERSE THETA
000357: 20,2266           03540                                    P29BASET
000358: 20,2267           27542                           STOVL    PASSTIME                              #  TIME OF LONGITUDE CROSSING
000359: 20,2270           77650                           GOTO                                           #  UPDATED POSITION VECTOR LOADED FOR
000360: 20,2271           60061                                    HOPALONG                              #       LAT-LONG
000361: 20,2272           50025        MODULO             DSU      BMN                                   #  MPAC CONTAINS ABS(DELTA)+EPSILONG
000362: 20,2273           15334                                    DPHALF                                #  IF THIS IS NEAR 360, MUST ADJUST DELTA
000363: 20,2274           40215                                    DELTLOAD                              #       BY 360 TO GET ANGLE NEAR ZERO
000364: 20,2275           77625                           DSU                                            #  TO ADJUST, SUBTRACT DPHALF (TWICE) AND
000365: 20,2276           20142                                    EPSILONG                              #       EPSILONG TO GET NEGATIVE NUMBER,
000366: 20,2277           75225                           DSU      SIGN                                  #       AND SIGN BY UNADJUSTED DIFFERENCE,
000367: 20,2300           15334                                    DPHALF                                #       AT TOP OF PUSHLIST, PD=0D.
000368: 20,2301           77650                           GOTO
000369: 20,2302           40216                                    THETCOMP
000370: 20,2303           43345        ADDTEN             DLOAD    DAD                                   #  ADD 10 MINUTES TO BASE TIME
000371: 20,2304           03540                                    P29BASET
000372: 20,2305           36161                                    600SEC
000373: 20,2306           52014                           SET      GOTO                                  #  SET FLAG TO SKIP DISPLAYS ON RETURN TO
000374: 20,2307           02465                                    NEWTFLAG                              #        P29
000375: 20,2310           76023                                    P21PROG2                              #  GO TO P21 FOR INTEGRATION
000376: 30,2000                                           SETLOC   P29TAG1
000377: 30,2000                                           BANK
000378:
000379: 30,2122                                           COUNT*   $$/P29
000380: 30,2122           77776        PASSOUT            EXIT
000381: 30,2123           53542                           DXCH     PASSTIME
000382: 30,2124           53251                           DXCH     DSPTEM1
000383: 30,2125           32151                           CAF      V06N34LP
000384: 30,2126           04636                           TC       BANKCALL
000385: 30,2127           20743                           CADR     GOFLASH                               #  DISPLAY PASSTIME
000386: 30,2130           04103                           TC       GOTOPOOH
000387: 30,2131           02133                           TC       +2
000388: 30,2132           02004                           TC       LONGPASS                              #  RECYCLE TO LONGITUDE INPUT


000390: 30,2133           32152                           CAF      V06N43LP
000391: 30,2134           04636                           TC       BANKCALL                              #  DISPLAY LAT,LONG,ALT AT DESIRED
000392: 30,2135           20743                           CADR     GOFLASH                               #       LONGITUDE
000393: 30,2136           04103                           TC       GOTOPOOH
000394: 30,2137           04103                           TC       GOTOPOOH
000395: 30,2140           02000                           TC       P29                                   #  RECYCLE TO START OF PROGRAM
000396: 30,2141           00000 16441  EPSILONG           2DEC     .2777778                              #  .01 DEGREES
000397: 30,2143           00000 35101  TWICEEPS           2DEC     .5555556                              #  .02 DEGREES
000398: 30,2145           21042 04211  FEARTH             2DEC     1.06666667 B-01                       #  16/15
000399: 30,2147           17747 02563  FMOON              2DEC     .996958637 B-01                       #  327.8/328.8
000400: 30,2151           01442        V06N34LP           VN       0634
000401: 30,2152           01453        V06N43LP           VN       0643

End of include-file GROUND_TRACKING_DETERMINATION_PROGRAM_-_P21.agc.  Parent file is MAIN.agc


