
Source Code


000002:                                                                                                  ## Copyright:   Public domain.
000003:                                                                                                  ## Filename:    IMU_MODE_SWITCHING_ROUTINES.agc
000004:                                                                                                  ## Purpose:     Part of the source code for Artemis (i.e., Colossus 3),
000005:                                                                                                  ##              build 072.  This is for the Command Module's (CM)
000006:                                                                                                  ##              Apollo Guidance Computer (AGC), for
000007:                                                                                                  ##              Apollo 15-17.
000008:                                                                                                  ## Assembler:   yaYUL
000009:                                                                                                  ## Contact:     Jim Lawton <jim DOT lawton AT gmail DOT com>
000010:                                                                                                  ## Website:     www.ibiblio.org/apollo/index.html
000011:                                                                                                  ## Page Scans:  www.ibiblio.org/apollo/ScansForConversion/Artemis072/
000012:                                                                                                  ## Mod history: 2009-08-19 JL   Adapted from corresponding Comanche 055 file.
000013:                                                                                                  ##              2010-02-06 JL   Fixed a 2CADR that should have been ADRES on page 1418.
000014:                                                                                                  ##              2020-02-11 JL   Fixed errors on p1419, p1432.
000015:                                                                                                  ##              2010-02-20 RSB  Un-##'d this header.
000016:                                                                                                  ##              2010-07-15 JL   Fixed indentation.
000017:                                                                                                  ##              2010-07-18 JL   Fixed indentation.
000018:                                                                                                  ##              2017-02-05 RSB  Proofed comment text by diff'ing vs Comanche 55
000019:                                                                                                  ##                              and corrected errors found.  There are several instances
000020:                                                                                                  ##                              in which comments are terminated in Comanche 55 by a
000021:                                                                                                  ##                              very distinct period, and yet the corresponding comments
000022:                                                                                                  ##                              here haven't the slightest indication of a period (nor is
000023:                                                                                                  ##                              there any difference in the code preceding the comment
000024:                                                                                                  ##                              on the same line).  There is even one instance in which
000025:                                                                                                  ##                              the "+0." at the end of a comment is truncated to simply
000026:                                                                                                  ##                              "+" (on p. 1438).  While I feel this is likely a problem
000027:                                                                                                  ##                              with the printer used for the Artemis printout, I've
000028:                                                                                                  ##                              nevertheless omitted the "." (or "0.") in those cases.
000029:


000031:    4000                                           SETLOC   FFTAG3
000032:    4000                                           BANK
000033:
000034:    5511  E3,1471                                  EBANK=   COMMAND
000035:
000036:                                                                                                  #  FIXED-FIXED ROUTINES
000037:
000038:    5511                                           COUNT*   $$/IMODE
000039:    5511           34772        ZEROICDU           CAF      ZERO                                  #  ZERO ICDU COUNTERS.
000040:    5512           54032                           TS       CDUX
000041:    5513           54033                           TS       CDUY
000042:    5514           54034                           TS       CDUZ
000043:    5515           00002                           TC       Q
000044:
000045:    5516     4760               SPSCODE            =        BIT9
000046:


000048:                                                                                                  #  IMU ZEROING ROUTINE.
000049:
000050: 07,2000                                           SETLOC   MODESW
000051: 07,2000                                           BANK
000052:
000053: 07,2627                                           COUNT*   $$/IMODE
000054: 07,2627           00004        IMUZERO            INHINT                                         #  ROUTINE TO ZERO ICDUS.
000055: 07,2630           41241                           CS       DSPTAB     +11D                       #  DONT ZERO CDUS IF IMU IN GIMBAL LOCK AND
000056: 07,2631           75004                           MASK     BITS4&6                               #  COARSE ALIGN (GIMBAL RUNAWAY PROTECTION)
000057: 07,2632           10000                           CCS      A
000058: 07,2633           12637                           TCF      IMUZEROA
000059:
000060: 07,2634           05671                           TC       ALARM                                 #  IF SO.
000061: 07,2635           00206                           OCT      00206
000062:
000063: 07,2636           13622                           TCF      CAGETSTJ   +4                         #  IMMEDIATE FAILURE.
000064:
000065: 07,2637           03616        IMUZEROA           TC       CAGETSTJ
000066:                                                                                                  #  DO ALL THE WORK.
000067: 07,2640           41334                           CS       IMODES33                              #  DISABLE DAP AUTO AND HOLD MODES
000068: 07,2641           74763                           MASK     NOIMUDAP
000069: 07,2642           27334                           ADS      IMODES33
000070: 07,2643           40000                           COM
000071: 07,2644           74764                           MASK     IMUZROBT
000072: 07,2645           27334                           ADS      IMODES33
000073:
000074: 07,2646           41333                           CS       IMODES30                              #  INHIBIT ICDUFAIL AND IMUFAIL (IN CASE WE
000075: 07,2647           74765                           MASK     IMUFINHT
000076: 07,2650           27333                           ADS      IMODES30
000077: 07,2651           40000                           COM
000078: 07,2652           74766                           MASK     ICDUINHT
000079: 07,2653           27333                           ADS      IMODES30
000080:
000081: 07,2654           45004                           CS       BITS4&6                               #  SEND ZERO ENCODE WITH COARSE AND ERROR
000082: 07,2655           00006                           EXTEND                                         #  COUNTER DISABLED.
000083: 07,2656           03012                           WAND     CHAN12
000084:
000085: 07,2657           03207                           TC       NOATTOFF                              #  TURN OFF NO ATT LAMP.
000086:
000087: 07,2660           34764                           CAF      BIT5
000088: 07,2661           00006                           EXTEND
000089: 07,2662           05012                           WOR      CHAN12
000090:
000091: 07,2663           05511                           TC       ZEROICDU
000092: 07,2664           34763                           CAF      BIT6                                  #  WAIT 320 MS TO GIVE AGS ADEQUATE TIME TO
000093: 07,2665           05223                           TC       TWIDDLE                               #  RECEIVE ITS PULSE TRAIN.
000094: 07,2666  E3,1474                                  EBANK=   CDUIND
000095: 07,2666           02677                           ADRES    IMUZERO2
000096: 07,2667           41333                           CS       IMODES30                              #  SEE IF IMU OPERATING AND ALARM IF NOT.
000097: 07,2670           74760                           MASK     IMUOPBIT


000099: 07,2671           10000                           CCS      A
000100: 07,2672           12675                           TCF      MODEEXIT
000101:
000102: 07,2673           05671                           TC       ALARM
000103: 07,2674           00210                           OCT      210
000104:
000105: 07,2675           00003        MODEEXIT           RELINT                                         #  GENERAL MODE-SWITCHING EXIT.
000106: 07,2676           14651                           TCF      SWRETURN
000107:
000108:
000109: 07,2677           03606        IMUZERO2           TC       CAGETEST
000110: 07,2700           05511                           TC       ZEROICDU                              #  ZERO CDUX, CDUY, CDUZ
000111:
000112: 07,2701           44764                           CS       BIT5                                  #  REMOVE ZERO DISCRETE.
000113: 07,2702           00006                           EXTEND
000114: 07,2703           03012                           WAND     CHAN12
000115:
000116: 07,2704           35025                           CAF      7.9SEC                                #  WAIT 7.9 SECS FOR CTRS TO FIND GIMBALS
000117: 07,2705           05260                           TC       VARDELAY
000118:
000119: 07,2706           03606        IMUZERO3           TC       CAGETEST
000120: 07,2707           34765                           CA       IMUFINHT
000121: 07,2710           64766                           AD       ICDUINHT
000122: 07,2711           40000                           COM
000123: 07,2712           71333                           MASK     IMODES30
000124: 07,2713           55333                           TS       IMODES30
000125:
000126: 07,2714           34763                           CA       NOIMUDAP
000127: 07,2715           64764                           AD       IMUZROBT
000128: 07,2716           40000                           COM
000129: 07,2717           71334                           MASK     IMODES33                              #        BIT5 FOR GROUND
000130: 07,2720           55334                           TS       IMODES33
000131:
000132: 07,2721           04714                           TC       IBNKCALL                              #  SET ISS WARNING IF EITHER OF ABOVE ARE
000133: 07,2722           14706                           CADR     SETISSW                               #  PRESENT.
000134:
000135: 07,2723           13563                           TCF      ENDIMU
000136:


000138:                                                                                                  #  IMU COARSE ALIGN MODE.
000139:
000140: 07,2724           00004        IMUCOARS           INHINT
000141: 07,2725           03616                           TC       CAGETSTJ
000142: 07,2726           03070                           TC       SETCOARS
000143:
000144: 07,2727           36211                           CAF      SIX
000145: 07,2730           05233                           TC       WAITLIST
000146: 07,2731  E3,1474                                  EBANK=   CDUIND
000147: 07,2731           02734 16063                     2CADR    COARS
000148:
000149: 07,2733           12675                           TCF      MODEEXIT
000150:
000151: 07,2734           03606        COARS              TC       CAGETEST
000152: 07,2735           34763                           CAF      BIT6                                  #  ENABLE ALL THREE ISS CDU ERROR COUNTERS
000153: 07,2736           00006                           EXTEND
000154: 07,2737           05012                           WOR      CHAN12
000155:
000156: 07,2740           34767                           CAF      TWO                                   #  SET CDU INDICATOR
000157: 07,2741           55474        COARS1             TS       CDUIND
000158:
000159: 07,2742           51474                           INDEX    CDUIND                                #  COMPUTE THETAD - THETAA IN 1:S
000160: 07,2743           31307                           CA       THETAD                                #    COMPLEMENT FORM
000161: 07,2744           00006                           EXTEND
000162: 07,2745           51474                           INDEX    CDUIND
000163: 07,2746           20032                           MSU      CDUX
000164: 07,2747           00006                           EXTEND
000165: 07,2750           74754                           MP       BIT13                                 #  SHIFT RIGHT 2
000166: 07,2751           56001                           XCH      L                                     #  ROUND
000167: 07,2752           60000                           DOUBLE
000168: 07,2753           54061                           TS       ITEMP1
000169: 07,2754           12756                           TCF      +2
000170: 07,2755           26001                           ADS      L
000171:
000172: 07,2756           51474                           INDEX    CDUIND                                #  DIFFERENCE TO BE COMPUTED
000173: 07,2757           23471                           LXCH     COMMAND
000174: 07,2760           11474                           CCS      CDUIND
000175: 07,2761           02741                           TC       COARS1
000176:
000177: 07,2762           34767                           CAF      TWO                                   #  MINIMUM OF 4 MS WAIT
000178: 07,2763           05260                 -1        TC       VARDELAY
000179: 07,2764           03606        COARS2             TC       CAGETEST                              #  DONT CONTINUE IF CAGED.
000180: 07,2765           54061                           TS       ITEMP1                                #  SETS TO +0.
000181: 07,2766           34767                           CAF      TWO                                   #  SET CDU INDICATOR
000182: 07,2767           55474                 +3        TS       CDUIND
000183:
000184: 07,2770           51474                           INDEX    CDUIND
000185: 07,2771           11471                           CCS      COMMAND                               #  NUMBER OF PULSES REQUIRED
000186: 07,2772           02776                           TC       COMPOS                                #  GREATER THAN MAX ALLOWED


000188: 07,2773           03005                           TC       NEXTCDU    +1
000189: 07,2774           03043                           TC       COMNEG
000190: 07,2775           03005                           TC       NEXTCDU    +1
000191:
000192: 07,2776           63663        COMPOS             AD       -COMMAX                               #  COMMAX = MAX NUMBER OF PULSES ALLOWED
000193: 07,2777           00006                           EXTEND                                         #    MINUS ONE
000194: 07,3000           63053                           BZMF     COMZERO
000195: 07,3001           51474                           INDEX    CDUIND
000196: 07,3002           55471                           TS       COMMAND                               #  REDUCE COMMAND BY MAX NUMBER OF PULSES
000197: 07,3003           43664                           CS       -COMMAX-                              #    ALLOWED
000198:
000199: 07,3004           24061        NEXTCDU            INCR     ITEMP1
000200: 07,3005           64771                 +1        AD       NEG0
000201: 07,3006           51474                           INDEX    CDUIND
000202: 07,3007           54050                           TS       CDUXCMD                               #  SET UP COMMAND REGISTER.
000203:
000204: 07,3010           11474                           CCS      CDUIND
000205: 07,3011           02767                           TC       COARS2     +3
000206:
000207: 07,3012           10061                           CCS      ITEMP1                                #  SEE IF ANY PULSES TO GO OUT.
000208: 07,3013           13057                           TCF      SENDPULS
000209:
000210: 07,3014           05255                           TC       FIXDELAY                              #  WAIT FOR GIMBALS TO SETTLE.
000211: 07,3015           00226                           DEC      150        B-14
000212:
000213: 07,3016           34767                           CAF      TWO                                   #  AT END OF COMMAND, CHECK TO SEE THAT
000214: 07,3017           54061        CHKCORS            TS       ITEMP1                                #  GIMBALS ARE WITHIN 2 DEGREES OF THETAD.
000215: 07,3020           50000                           INDEX    A
000216: 07,3021           30032                           CA       CDUX
000217: 07,3022           00006                           EXTEND
000218: 07,3023           50061                           INDEX    ITEMP1
000219: 07,3024           21307                           MSU      THETAD
000220: 07,3025           10000                           CCS      A
000221: 07,3026           13034                           TCF      COARSERR
000222: 07,3027           13031                           TCF      CORSCHK2
000223: 07,3030           13034                           TCF      COARSERR
000224:


000226:
000227: 07,3031           10061        CORSCHK2           CCS      ITEMP1
000228: 07,3032           13017                           TCF      CHKCORS
000229: 07,3033           13563                           TCF      ENDIMU                                #  END OF COARSE ALIGNMENT.
000230:
000231: 07,3034           63042        COARSERR           AD       COARSTOL                              #  2 DEGREES.
000232: 07,3035           00006                           EXTEND
000233: 07,3036           63031                           BZMF     CORSCHK2
000234:
000235:
000236: 07,3037           05671                           TC       ALARM                                 #  COARSE ALIGN ERROR.
000237: 07,3040           00211                           OCT      211
000238:
000239: 07,3041           13625                           TCF      IMUBAD
000240:
000241: 07,3042           77511        COARSTOL           DEC      -.01111                               #  2 DEGREES SCALED AT HALF-REVOLUTIONS
000242:
000243:
000244: 07,3043           63663        COMNEG             AD       -COMMAX
000245: 07,3044           00006                           EXTEND
000246: 07,3045           63053                           BZMF     COMZERO
000247: 07,3046           40000                           COM
000248: 07,3047           51474                           INDEX    CDUIND
000249: 07,3050           55471                           TS       COMMAND
000250: 07,3051           33664                           CA       -COMMAX-
000251: 07,3052           03004                           TC       NEXTCDU
000252:
000253: 07,3053           34772        COMZERO            CAF      ZERO
000254: 07,3054           51474                           INDEX    CDUIND
000255: 07,3055           57471                           XCH      COMMAND
000256: 07,3056           03004                           TC       NEXTCDU
000257:
000258:
000259: 07,3057           37673        SENDPULS           CAF      13,14,15
000260: 07,3060           00006                           EXTEND
000261: 07,3061           05014                           WOR      CHAN14
000262: 07,3062           33665                           CAF      600MS
000263: 07,3063           12763                           TCF      COARS2     -1                         #  THEN TO VARDELAY
000264:
000265: 07,3064           34763        CA+ECE             CAF      BIT6                                  #  ENABLE ALL THREE ISS CDU ERROR COUNTERS
000266: 07,3065           00006                           EXTEND
000267: 07,3066           05012                           WOR      CHAN12
000268: 07,3067           05314                           TC       TASKOVER
000269:


000271: 07,3070           34765        SETCOARS           CAF      BIT4                                  #  BYPASS IF ALREADY IN COARSE ALIGN
000272: 07,3071           00006                           EXTEND
000273: 07,3072           02012                           RAND     CHAN12
000274: 07,3073           10000                           CCS      A
000275: 07,3074           00002                           TC       Q
000276:
000277: 07,3075           44763                           CS       BIT6                                  #  CLEAR ISS ERROR COUNTERS
000278: 07,3076           00006                           EXTEND
000279: 07,3077           03012                           WAND     CHAN12
000280:
000281: 07,3100           44757                           CS       BIT10                                 #  KNOCK DOWN GYRO ACTIVITY
000282: 07,3101           00006                           EXTEND
000283: 07,3102           03014                           WAND     CHAN14
000284: 07,3103           44772                           CS       ZERO
000285: 07,3104           54047                           TS       GYROCMD
000286:
000287: 07,3105           34765                           CAF      BIT4                                  #  PUT ISS IN COARSE ALIGN
000288: 07,3106           00006                           EXTEND
000289: 07,3107           05012                           WOR      CHAN12
000290:
000291: 07,3110           41241                           CS       DSPTAB     +11D                       #  TURN ON NO ATT LAMP
000292: 07,3111           77664                           MASK     OCT40010
000293: 07,3112           27241                           ADS      DSPTAB     +11D
000294:
000295: 07,3113           41334                           CS       IMODES33                              #  DISABLE DAP AUTO AND HOLD MODES
000296: 07,3114           74763                           MASK     NOIMUDAP
000297: 07,3115           27334                           ADS      IMODES33
000298:
000299: 07,3116           41333                           CS       IMODES30                              #  DISABLE IMUFAIL
000300: 07,3117           74765                           MASK     IMUFINHT
000301: 07,3120           27333                           ADS      IMODES30
000302:
000303: 07,3121           44764        RNDREFDR           CS       TRACKBIT                              #  KNOCK DOWN TRACK FLAG
000304: 07,3122           70075                           MASK     FLAGWRD1
000305: 07,3123           54075                           TS       FLAGWRD1
000306:
000307: 07,3124           44752                           CS       DRFTBIT                               #  KNOCK DOWN DRIFT FLAG
000308: 07,3125           70076                           MASK     FLAGWRD2
000309: 07,3126           54076                           TS       FLAGWRD2
000310:
000311: 07,3127           44754                           CS       REFSMBIT                              #  KNOCK DOWN REFSMMAT FLAG
000312: 07,3130           70077                           MASK     FLAGWRD3
000313: 07,3131           54077                           TS       FLAGWRD3
000314:
000315: 07,3132           00002                           TC       Q
000316:
000317: 07,3133     7664               OCT40010           EQUALS   OT40010
000318:


000320:
000321:                                                                                                  #  IMU FINE ALIGN MODE SWITCH.
000322:
000323: 07,3133           00004        IMUFINE            INHINT
000324: 07,3134           03616                           TC       CAGETSTJ                              #  SEE IF IMU BEING CAGED.
000325:
000326: 07,3135           45001                           CS       BITS4-5                               #  RESET ZERO AND COARSE
000327: 07,3136           00006                           EXTEND
000328: 07,3137           03012                           WAND     CHAN12
000329:
000330: 07,3140           44763                           CS       NOIMUDAP                              #  INSURE DAP AUTO AND HOLD MODES ENABLED
000331: 07,3141           71334                           MASK     IMODES33
000332: 07,3142           55334                           TS       IMODES33
000333:
000334: 07,3143           03207                           TC       NOATTOFF
000335:
000336: 07,3144           34757                           CAF      BIT10                                 #  IMU FAIL WAS INHIBITED DURING THE
000337: 07,3145           05223                           TC       TWIDDLE                               #  PRESUMABLY PRECEDING COARSE ALIGN. LEAVE
000338: 07,3146           03155                           ADRES    IFAILOK                               #  IT ON FOR THE FIRST 5 SECS OF FINE ALIGN
000339: 07,3147           35017                           CAF      2SECS
000340: 07,3150           05223                           TC       TWIDDLE
000341: 07,3151           03153                           ADRES    IMUFINED
000342: 07,3152           12675                           TCF      MODEEXIT
000343:
000344: 07,3153           03606        IMUFINED           TC       CAGETEST                              #  SEE THAT NO ONE HAS CAGED THE IMU.
000345: 07,3154           13563                           TCF      ENDIMU
000346:


000348: 07,3155           03613        IFAILOK            TC       CAGETSTQ                              #  ENABLE IMU FIAL UNLESS IMU BEING CAGED.
000349: 07,3156           15314                           TCF      TASKOVER                              #  IT IS.
000350:
000351: 07,3157           34765                           CAF      BIT4                                  #  DONT RESET IMU FAIL INHIBIT IF SOMEONE
000352: 07,3160           00006                           EXTEND                                         #  HAS GONE INTO COARSE ALIGN.
000353: 07,3161           02012                           RAND     CHAN12
000354: 07,3162           10000                           CCS      A
000355: 07,3163           15314                           TCF      TASKOVER
000356:
000357: 07,3164           41333                           CS       IMODES30                              #  RESET IMUFAIL.
000358: 07,3165           74754                           MASK     IMUFLBIT
000359: 07,3166           27333                           ADS      IMODES30
000360: 07,3167           44765                           CS       IMUFINHT
000361: 07,3170           71333        PFAILOK2           MASK     IMODES30
000362: 07,3171           55333                           TS       IMODES30
000363: 07,3172           04714                           TC       IBNKCALL                              #  THE ISS WARNING LIGHT MAY COME ON NOW
000364: 07,3173           14706                           CADR     SETISSW                               #  THAT THE INHIBIT HAS BEEN REMOVED.
000365: 07,3174           15314                           TCF      TASKOVER
000366:
000367: 07,3175           03613        PFAILOK            TC       CAGETSTQ                              #  ENABLE PIP FAIL PROG ALARM.
000368: 07,3176           15314                           TCF      TASKOVER
000369:
000370: 07,3177           41333                           CS       IMODES30                              #  RESET IMU AND PIPA FAIL BITS.
000371: 07,3200           74757                           MASK     PIPAFLBT
000372: 07,3201           27333                           ADS      IMODES30
000373:
000374: 07,3202           41334                           CS       IMODES33
000375: 07,3203           74754                           MASK     PIP2FLBT
000376: 07,3204           27334                           ADS      IMODES33
000377:
000378: 07,3205           44764                           CS       NOACCALM
000379: 07,3206           13170                           TCF      PFAILOK2
000380:
000381: 07,3207           47664        NOATTOFF           CS       OCT40010                              #  SUBROUTINE TO TURN OFF NO ATT LAMP.
000382: 07,3210           71241                           MASK     DSPTAB     +11D
000383: 07,3211           64752                           AD       BIT15
000384: 07,3212           55241                           TS       DSPTAB     +11D
000385: 07,3213           00002                           TC       Q
000386:


000388:
000389:                                                                                                  #  ROUITNES TO INITIATE AND TERMINATE PROGRAM USE OF THE PIPAS. NO IMUSTALL REQUIRED IN EITHER CASE.
000390:
000391: 07,3214           44772        PIPUSE             CS       ZERO
000392: 07,3215           54037                           TS       PIPAX
000393: 07,3216           54040                           TS       PIPAY
000394: 07,3217           54041                           TS       PIPAZ
000395:
000396: 07,3220           03613        PIPUSE1            TC       CAGETSTQ                              #  DO NOT ENABLE PIPA FAIL IF IMU IS CAGED
000397: 07,3221           14651                           TCF      SWRETURN
000398:
000399: 07,3222           00004                           INHINT
000400: 07,3223           44770                           CS       ACCFINHT                              #  IF PIPA FAILS FROM NOW ON (UNTIL
000401: 07,3224           71333                           MASK     IMODES30                              #  PIPFREE), LIGHT ISS WARNING.
000402: 07,3225           55333                           TS       IMODES30
000403:
000404: 07,3226           04714        PIPFREE2           TC       IBNKCALL                              #  ISS WARNING MIGHT COME ON NOW.
000405: 07,3227           14706                           CADR     SETISSW                               #  (OR GO OFF ON PIPFREE).
000406:
000407: 07,3230           12675                           TCF      MODEEXIT
000408:
000409: 07,3231           00004        PIPFREE            INHINT                                         #  PROGRAM DONE WITH PIPAS. DONT LIGHT
000410: 07,3232           41333                           CS       IMODES30                              #  ISS WARNING.
000411: 07,3233           74770                           MASK     ACCFINHT
000412: 07,3234           27333                           ADS      IMODES30
000413:
000414: 07,3235           74757                           MASK     PIPAFLBT                              #  IF PIP FAIL ON, DO PROG ALARM AND RESET
000415: 07,3236           10000                           CCS      A                                     #  ISS WARNING.
000416: 07,3237           12675                           TCF      MODEEXIT
000417:
000418: 07,3240           05671                           TC       ALARM
000419: 07,3241           00212                           OCT      212
000420:
000421: 07,3242           00004                           INHINT
000422:
000423: 07,3243           13226                           TCF      PIPFREE2
000424:


000426:
000427:                                                                                                  #           THE FOLLOWING ROUTINE TORQUES THE IRIGS ACCORDING TO DOUBLE PRECISION INPUTS IN THE SIX REGISTERS
000428:                                                                                                  #  BEGINNING AT THE ECADR ARRIVING IN A. THE MINIMUM SIZE OF ANY PULSE TRAIN IS 16 PULSES (.25 CDU COUNTS). THE
000429:                                                                                                  #  UNSENT PORTION OF THE COMMAND IS LEFT INTACT IN THE INPUT COMMAND REGISTERS.
000430:
000431: 07,3244           54161        IMUPULSE           TS       MPAC       +5                         #  SAVE ARRIVING ECADR.
000432: 07,3245           03616                           TC       CAGETSTJ                              #  DONT PROCEED IF IMU BEING CAGED.
000433:
000434: 07,3246           11324                           CCS      LGYRO                                 #  SEE IF GYROS BUSY.
000435: 07,3247           03307                           TC       GYROBUSY                              #  SLEEP.
000436:
000437: 07,3250           34763                           CAF      BIT6                                  #  ENABLE THE POWER SUPPLY.
000438: 07,3251           00006                           EXTEND
000439: 07,3252           05014                           WOR      CHAN14
000440:
000441: 07,3253           34766                           CAF      FOUR
000442: 07,3254           05233        GWAKE2             TC       WAITLIST                              #  (IF A JOB WAS PUT TO SLEEP, THE POWER
000443: 07,3255  E3,1474                                  EBANK=   CDUIND                                #  SUPPLY IS LEFT ON BY THE WAKING JOB).
000444: 07,3255           03324 16063                     2CADR    STRTGYRO
000445:
000446: 07,3257           30161                           CA       MPAC       +5                         #  SET UP EBANK, SAVING CALLER'S EBANK FOR
000447: 07,3260           56003                           XCH      EBANK                                 #  RESTORATION ON RETURN.
000448: 07,3261           56161                           XCH      MPAC       +5
000449: 07,3262           55324                           TS       LGYRO                                 #  RESERVES GYROS.
000450: 07,3263           74350                           MASK     LOW8
000451: 07,3264           54061                           TS       ITEMP1
000452:
000453: 07,3265           34767                           CAF      TWO                                   #  FORCE SIGN AGREEMENT ON INPUTS.
000454: 07,3266           54157        GYROAGRE           TS       MPAC       +3
000455: 07,3267           60000                           DOUBLE
000456: 07,3270           60061                           AD       ITEMP1
000457: 07,3271           54160                           TS       MPAC       +4
000458: 07,3272           00006                           EXTEND
000459: 07,3273           50000                           INDEX    A
000460: 07,3274           31401                           DCA      1400
000461: 07,3275           52155                           DXCH     MPAC
000462: 07,3276           07224                           TC       DPAGREE
000463: 07,3277           52155                           DXCH     MPAC
000464: 07,3300           50160                           INDEX    MPAC       +4
000465: 07,3301           53401                           DXCH     1400
000466:
000467: 07,3302           10157                           CCS      MPAC       +3
000468: 07,3303           13266                           TCF      GYROAGRE
000469:
000470: 07,3304           30161                           CA       MPAC       +5                         #  RESTORE CALLER'S EBANK.
000471: 07,3305           54003                           TS       EBANK
000472: 07,3306           12675                           TCF      MODEEXIT
000473:


000475:
000476:                                                                                                  #           ROUTINES TO ALLOW TORQUING BY ONLY ONE JOB AT A TIME.
000477:
000478: 07,3307           00006        GYROBUSY           EXTEND                                         #  SAVE RETURN 2FCADR.
000479: 07,3310           30134                           DCA      BUF2
000480: 07,3311           52155                           DXCH     MPAC
000481: 07,3312           33323        REGSLEEP           CAF      LGWAKE
000482: 07,3313           15163                           TCF      JOBSLEEP
000483:
000484: 07,3314           11324        GWAKE              CCS      LGYRO                                 #  WHEN AWAKENED, SEE IF GYROS STILL BUSY.
000485: 07,3315           13312                           TCF      REGSLEEP                              #  IF SO, SLEEP SOME MORE.
000486:
000487: 07,3316           00006                           EXTEND
000488: 07,3317           30155                           DCA      MPAC
000489: 07,3320           52134                           DXCH     BUF2                                  #  RESTORE SWRETURN INFO.
000490: 07,3321           34770                           CAF      ONE
000491: 07,3322           13254                           TCF      GWAKE2
000492:
000493: 07,3323           17314        LGWAKE             CADR     GWAKE
000494:


000496:
000497:                                                                                                  #  GYRO-TORQUING WAITLIST TASKS.
000498:
000499: 07,3324           43560        STRTGYRO           CS       GDESELCT                              #  DE-SELECT LAST GYRO.
000500: 07,3325           00006                           EXTEND
000501: 07,3326           03014                           WAND     CHAN14
000502:
000503: 07,3327           03575                           TC       CAGETSTG
000504:
000505: 07,3330           31324        STRTGYR2           CA       LGYRO                                 #  JUMP ON PHASE COUNTER IN BITS 13-14
000506: 07,3331           00006                           EXTEND
000507: 07,3332           74765                           MP       BIT4
000508: 07,3333           50000                           INDEX    A
000509: 07,3334           13335                           TCF      +1
000510: 07,3335           03352                           TC       GSELECT                               #  =0. DO Y GYRO.
000511: 07,3336           00202                           OCT      00202
000512:
000513: 07,3337           03352                           TC       GSELECT                               #  =1. DO Z GYRO.
000514: 07,3340           00302                           OCT      00302
000515:
000516: 07,3341           03350                           TC       GSELECT    -2                         #  =2. DO X GYRO.
000517: 07,3342           00100                           OCT      00100
000518:
000519: 07,3343           34772                           CAF      ZERO                                  #  =3. DONE
000520: 07,3344           55324                           TS       LGYRO
000521: 07,3345           33323                           CAF      LGWAKE                                #  WAKE A POSSIBLE SLEEPING JOB.
000522: 07,3346           05167                           TC       JOBWAKE
000523:
000524: 07,3347           13153        NORESET            TCF      IMUFINED                              #  DO NOT RESET POWER SUPPLY
000525:


000527:
000528: 07,3350           44766                 -2        CS       FOUR                                  #  SPECIAL ENTRY TO REGRESS LGYRO FOR X
000529: 07,3351           27324                           ADS      LGYRO
000530:
000531: 07,3352           50002        GSELECT            INDEX    Q                                     #  SELECT GYRO.
000532: 07,3353           30000                           CAF      0                                     #  PACKED WORD CONTAINS GYRO SELECT BITS
000533: 07,3354           54064                           TS       ITEMP4                                #  AND INCREMENT TO LGYRO.
000534: 07,3355           74774                           MASK     SEVEN
000535: 07,3356           64754                           AD       BIT13
000536: 07,3357           27324                           ADS      LGYRO
000537: 07,3360           54003                           TS       EBANK
000538: 07,3361           74350                           MASK     LOW8
000539: 07,3362           54061                           TS       ITEMP1
000540:
000541: 07,3363           44774                           CS       SEVEN
000542: 07,3364           70064                           MASK     ITEMP4
000543: 07,3365           54064                           TS       ITEMP4
000544:
000545: 07,3366           00006                           EXTEND                                         #  MOVE DP COMMAND TO RUPTREGS FOR TESTING.
000546: 07,3367           50061                           INDEX    ITEMP1
000547: 07,3370           31401                           DCA      1400
000548: 07,3371           52071                           DXCH     RUPTREG1
000549:
000550: 07,3372           10070                           CCS      RUPTREG1
000551: 07,3373           13406                           TCF      MAJ+
000552: 07,3374           13376                           TCF      +2
000553: 07,3375           13541                           TCF      MAJ-
000554:
000555: 07,3376           10071                           CCS      RUPTREG2
000556: 07,3377           13403                           TCF      MIN+
000557: 07,3400           13330                           TCF      STRTGYR2
000558: 07,3401           13536                           TCF      MIN-
000559: 07,3402           13330                           TCF      STRTGYR2
000560:


000562:
000563: 07,3403           63437        MIN+               AD       -GYROMIN                              #  SMALL POSITIVE COMMAND. SEE IF AT LEAST
000564: 07,3404           00006                           EXTEND                                         #  16 GYRO PULSES.
000565: 07,3405           63330                           BZMF     STRTGYR2
000566:
000567: 07,3406           00006        MAJ+               EXTEND                                         #  DEFINITE POSITIVE OUTPUT.
000568: 07,3407           33562                           DCA      GYROFRAC
000569: 07,3410           20071                           DAS      RUPTREG1
000570:
000571: 07,3411           30064                           CA       ITEMP4                                #  SELECT POSITIVE TORQUING FOR THIS GYRO.
000572: 07,3412           00006                           EXTEND
000573: 07,3413           05014                           WOR      CHAN14
000574:
000575: 07,3414           36043                           CAF      LOW7                                  #  LEAVE NUMBER OF POSSIBLE 8192 AUGMENTS
000576: 07,3415           70071                           MASK     RUPTREG2                              #  TO INITIAL COMMAND IN MAJOR PART OF LONG
000577: 07,3416           56071                           XCH      RUPTREG2                              #  TERM STORAGE AND TRUNCATED FRACTION
000578: 07,3417           00006        GMERGE             EXTEND                                         #  IN MINOR PART. THE MAJOR PART WILL BE
000579: 07,3420           74761                           MP       BIT8                                  #  COUNTED DOWN TO ZERO IN THE COURSE OF
000580: 07,3421           54062                           TS       ITEMP2                                #  PUTTING OUT THE ENTIRE COMMAND.
000581: 07,3422           30070                           CA       RUPTREG1
000582: 07,3423           00006                           EXTEND
000583: 07,3424           74760                           MP       BIT9
000584: 07,3425           54070                           TS       RUPTREG1
000585: 07,3426           30001                           CA       L
000586: 07,3427           00006                           EXTEND
000587: 07,3430           74753                           MP       BIT14
000588: 07,3431           26062                           ADS      ITEMP2                                #  INITIAL COMMAND.
000589:
000590: 07,3432           00006                           EXTEND                                         #  SEE IF MORE THAN ONE PULSE TRAIN NEEDED
000591: 07,3433           30071                           DCA      RUPTREG1                              #  (MORE THAN 16383 PULSES).
000592: 07,3434           67702                           AD       MINUS1
000593: 07,3435           10000                           CCS      A
000594: 07,3436           13503                           TCF      LONGGYRO
000595: 07,3437           77601        -GYROMIN           OCT      -176                                  #  MAY BE ADJUSTED TO SPECIFY MINIMUM CMD
000596: 07,3440           13444                           TCF      +4
000597:
000598: 07,3441           34753                           CAF      BIT14
000599: 07,3442           26062                           ADS      ITEMP2
000600: 07,3443           34772                           CAF      ZERO
000601:
000602: 07,3444           50061                 +4        INDEX    ITEMP1
000603: 07,3445           53401                           DXCH     1400
000604:


000606:
000607: 07,3446           30062                           CA       ITEMP2                                #  ENTIRE COMMAND.
000608: 07,3447           54047        LASTSEG            TS       GYROCMD
000609: 07,3450           03570                 +1        TC       COARSTST
000610:
000611: 07,3451           30047                           CA       GYROCMD
000612: 07,3452           00006                           EXTEND
000613: 07,3453           74757                           MP       BIT10                                 #  WAITLIST DT
000614: 07,3454           66214                           AD       THREE                                 #  TRUNCATION AND PHASE UNCERTAINTIES.
000615: 07,3455           05223                           TC       TWIDDLE
000616: 07,3456           03467                           ADRES    TWOPULSE
000617: 07,3457           03463        EXITGYRO           TC       GYROEXIT
000618: 07,3460           15314                           TCF      TASKOVER
000619: 07,3461           34767        OUTPULSE           CA       BIT2
000620: 07,3462           54047                           TS       GYROCMD
000621: 07,3463           34757        GYROEXIT           CAF      BIT10
000622: 07,3464           00006                           EXTEND
000623: 07,3465           05014                           WOR      CHAN14
000624: 07,3466           00002                           TC       Q
000625: 07,3467           44760        TWOPULSE           CS       BIT9
000626: 07,3470           00006                           EXTEND
000627: 07,3471           03014                           WAND     CHAN14
000628: 07,3472           03461                           TC       OUTPULSE
000629: 07,3473           34770                           CA       BIT1
000630: 07,3474           05223                           TC       TWIDDLE
000631: 07,3475           03324                           ADRES    STRTGYRO
000632: 07,3476           34760                           CA       BIT9
000633: 07,3477           00006                           EXTEND
000634: 07,3500           05014                           WOR      CHAN14
000635: 07,3501           03461                           TC       OUTPULSE
000636: 07,3502           15314                           TCF      TASKOVER
000637: 07,3503           50061        LONGGYRO           INDEX    ITEMP1
000638: 07,3504           53401                           DXCH     1400                                  #  INITIAL COMMAND OUT PLUS N AUGMENTS OF
000639: 07,3505           34753                           CAF      BIT14                                 #  8192. INITIAL COMMAND IS AT LEAST 8192
000640: 07,3506           60062                           AD       ITEMP2
000641: 07,3507           54047                           TS       GYROCMD
000642:
000643: 07,3510           00006        AUG3               EXTEND                                         #  GET WAITLIST DT TO TIME WHEN TRAIN IS
000644: 07,3511           74757                           MP       BIT10                                 #  ALMOST OUT.
000645: 07,3512           67700                           AD       NEG3
000646: 07,3513           05223                           TC       TWIDDLE
000647: 07,3514           03516                           ADRES    8192AUG
000648: 07,3515           13457                           TCF      EXITGYRO
000649:
000650: 07,3516           03570        8192AUG            TC       COARSTST
000651:
000652: 07,3517           31324                           CA       LGYRO                                 #  ADD 8192 PULSES TO GYROCMD
000653: 07,3520           54003                           TS       EBANK
000654: 07,3521           74350                           MASK     LOW8
000655: 07,3522           54061                           TS       ITEMP1


000657: 07,3523           50061                           INDEX    ITEMP1                                #  SEE IF THIS IS THE LAST AUG.
000658: 07,3524           11400                           CCS      1400
000659: 07,3525           13531                           TCF      AUG2                                  #  MORE TO COME.
000660:
000661: 07,3526           34753                           CAF      BIT14
000662: 07,3527           26047                           ADS      GYROCMD
000663: 07,3530           13450                           TCF      LASTSEG    +1
000664:
000665: 07,3531           50061        AUG2               INDEX    ITEMP1
000666: 07,3532           55400                           TS       1400
000667: 07,3533           34753                           CAF      BIT14
000668: 07,3534           26047                           ADS      GYROCMD
000669: 07,3535           13510                           TCF      AUG3                                  #  COMPUTE DT.
000670:


000672:
000673: 07,3536           63437        MIN-               AD       -GYROMIN                              #  POSSIBLE NEGATIVE OUTPUT.
000674: 07,3537           00006                           EXTEND
000675: 07,3540           63330                           BZMF     STRTGYR2
000676:
000677: 07,3541           00006        MAJ-               EXTEND                                         #  DEFINITE NEGATIVE OUTPUT.
000678: 07,3542           43562                           DCS      GYROFRAC
000679: 07,3543           20071                           DAS      RUPTREG1
000680:
000681: 07,3544           30064                           CA       ITEMP4                                #  SELECT NEGATIVE TORQUING FOR THIS GYRO.
000682: 07,3545           64760                           AD       BIT9
000683: 07,3546           00006                           EXTEND
000684: 07,3547           05014                           WOR      CHAN14
000685:
000686: 07,3550           40070                           CS       RUPTREG1                              #  SET UP RUPTREGS TO FALL INTO GMERGE.
000687: 07,3551           54070                           TS       RUPTREG1                              #  ALL NUMBERS PUT INTO GYROCMD ARE
000688: 07,3552           40071                           CS       RUPTREG2                              #  POSITIVE - BIT9 OF CHAN 14 DETERMINES
000689: 07,3553           76043                           MASK     LOW7                                  #  THE SIGN OF THE COMMAND.
000690: 07,3554           40000                           COM
000691: 07,3555           56071                           XCH      RUPTREG2
000692: 07,3556           40000                           COM
000693: 07,3557           13417                           TCF      GMERGE
000694:
000695: 07,3560           01700        GDESELCT           OCT      1700                                  #  TURN OFF SELECT AND ACTIVITY BITS.
000696:
000697: 07,3561           00000 00034  GYROFRAC           2DEC     .215       B-21
000698:


000700:
000701:                                                                                                  #  IMU MODE SWITCHING ROUTINES COME HERE WHEN ACTION COMPLETE.
000702:
000703: 07,3563           00006        ENDIMU             EXTEND                                         #  MODE IS BAD IF CAGE HAS OCCURED OR IF
000704: 07,3564           00011                           READ     DSALMOUT                              #  ISS WARNING IS ON.
000705: 07,3565           74770                           MASK     BIT1
000706: 07,3566           67702                           AD       NEG1
000707: 07,3567           13626                           TCF      BADEND     +1
000708: 07,3570           34765        COARSTST           CAF      BIT4
000709: 07,3571           00006                           EXTEND
000710: 07,3572           02012                           RAND     CHAN12
000711: 07,3573           10000                           CCS      A
000712: 07,3574           13601                           TCF      DONTPULS
000713:
000714: 07,3575           41333        CAGETSTG           CS       IMODES30
000715: 07,3576           74763                           MASK     IMUNITBT
000716: 07,3577           10000                           CCS      A
000717: 07,3600           00002                           TC       Q
000718:
000719: 07,3601           34772        DONTPULS           CAF      ZERO
000720: 07,3602           55324                           TS       LGYRO
000721:
000722: 07,3603           33323                           CAF      LGWAKE
000723: 07,3604           05167                           TC       JOBWAKE
000724:
000725: 07,3605           13625                           TCF      IMUBAD
000726: 07,3606           34763        CAGETEST           CAF      IMUNITBT                              #  SUBROUTINE TO TERMINATE IMU MODE
000727: 07,3607           71333                           MASK     IMODES30                              #  SWITCH IF IMU HAS BEEN CAGED.
000728: 07,3610           10000                           CCS      A
000729: 07,3611           13625                           TCF      IMUBAD                                #  DIRECTLY.
000730: 07,3612           00002                           TC       Q                                     #  WITH C(A) = +0.
000731:
000732: 07,3613           41333        CAGETSTQ           CS       IMODES30                              #  SKIP IF IMU NOT BEING CAGED.
000733: 07,3614           74763                           MASK     IMUNITBT
000734: 07,3615           15651                           TCF      INCRQCK
000735: 07,3616           41333        CAGETSTJ           CS       IMODES30                              #  IF DURING MODE SWITCH INITIALIZATION
000736: 07,3617           74763                           MASK     IMUNITBT                              #  IT IS FOUND THAT THE IMU IS BEING CAGED.
000737: 07,3620           10000                           CCS      A                                     #  SET IMUCADR TO -0 TO INDICATE OPERATION
000738: 07,3621           00002                           TC       Q                                     #  COMPLETE BUT FAILED. RETURN IMMEDIATELY
000739:
000740: 07,3622           44772                 +4        CS       ZERO                                  #  TO SWRETURN
000741: 07,3623           55335                           TS       IMUCADR
000742: 07,3624           12675                           TCF      MODEEXIT
000743:
000744: 07,3625  07,3625               IMUBAD             EQUALS   BADEND
000745:


000747:
000748:                                                                                                  #           GENERALIZED MODE SWITCHING TERMINATION. ENTER AT GOODEND FOR SUCCESSFUL COMPLETION OF AN I/O OPERATION
000749:                                                                                                  #  OR AT BADEND FOR AN UNSUCCESSFUL ONE.
000750:
000751: 07,3625           44772        BADEND             CS       ZERO                                  #  FOR FAILURE.
000752: 07,3626           54072                 +1        TS       RUPTREG3                              #  -0 FAILURE -1 SUCCESS
000753: 07,3627           11335                           CCS      MODECADR
000754: 07,3630           13632                           TCF      +2                                    #  YES - WAKE IT UP.
000755: 07,3631           13641                           TCF      ENDMODE                               #  IF 0, PROGRAM NOT IN YET.
000756:
000757: 07,3632           34772                           CAF      ZERO                                  #  WAKE SLEEPING PROGRAM.
000758: 07,3633           57335                           XCH      MODECADR
000759: 07,3634           05167                           TC       JOBWAKE
000760:
000761: 07,3635           40072                           CS       RUPTREG3                              #  ADVANCE LOC IF SUCCESSFUL.
000762: 07,3636           50064                           INDEX    LOCCTR
000763: 07,3637           26164                           ADS      LOC
000764:
000765: 07,3640           15314                           TCF      TASKOVER
000766:
000767: 07,3641           30072        ENDMODE            CA       RUPTREG3                              #  -0 INDICATES OPERATION COMPLETE BUT
000768: 07,3642           55335                           TS       MODECADR                              #  SUCCESSFUL.
000769: 07,3643           15314                           TCF      TASKOVER
000770:


000772:
000773:                                                                                                  #  GENERAL STALLING ROUTINE. USING PROGRAMS COME HERE TO WAIT FOR I/O COMPLETION.
000774:
000775:                                                                                                  #  PROGRAM DESCRIPTION                                           DATE- 21 FEB 1967
000776:                                                                                                  #                                                   LOG SECTION IMU MODE SWITCHING
000777:                                                                                                  #  MOD BY- R.MELANSON TO ADD DOCUMENTATION                ASSEMBLY SUNDISK REV. 82
000778:
000779:                                                                                                  #  FUNCTIONAL DESCRIPTION-
000780:                                                                                                  #        TO DELAY FURTHER EXECUTION OF THE CALLING ROUTINE UNTIL ITS SELECTED
000781:                                                                                                  #        I/O FUNCTION IS COMPLETE. THE FOLLOWING CHECKS ON THE CALLING ROUTINE:S
000782:                                                                                                  #        MODECADR ARE MADE AND ACTED UPON.
000783:                                                                                                  #        1) +0 INDICATES INCOMPLETE I/O OPERATION. CALLING ROUTINE IS PUT TO
000784:                                                                                                  #           SLEEP.
000785:                                                                                                  #        2) -1 INDICATES COMPLETED I/O OPERATION. STALL BYPASSES JOBSLEEP
000786:                                                                                                  #           CALL AND RETURNS TO CALLING ROUTINE AT L+3
000787:                                                                                                  #        3) -0 INDICATES COMPLETED I/O WITH FAILURE. STALL CLEARS MODECADR
000788:                                                                                                  #           AND RETURNS TO CALLING ROUTINE AT L+2.
000789:                                                                                                  #        4) VALUE GREATER THAN 0 INDICATES TWO ROUTINES CALLING FOR USE OF
000790:                                                                                                  #           SAME DEVICE. STALL EXITS TO ABORT WHICH EXECUTES A PROGRAM
000791:                                                                                                  #           RESTART WHICH IN TURN CLEARS ALL MODECADR REGISTERS.
000792:
000793:                                                                                                  #  CALLING SEQUENCE-
000794:                                                                                                  #        L       TC      BANKCALL
000795:                                                                                                  #        L+1     CADR    IMUSTALL
000796:
000797:                                                                                                  #  NORMAL-EXIT MODE-
000798:                                                                                                  #        TCF JOBSLEEP    OR      TCF MODEXIT
000799:
000800:                                                                                                  #  ALARM OR ABORT EXIT MODE-
000801:                                                                                                  #        POODOO  21210
000802:
000803:                                                                                                  #  OUTPUT-
000804:                                                                                                  #        MODECADR= CADR  IF JOBSLEEP
000805:                                                                                                  #        MODECADR=+0     IF I/O COMPLETE
000806:                                                                                                  #        BUF2=L+3        IF I/O COMPLETE AND GOOD.
000807:                                                                                                  #        BUF2=L+2        IF I/O COMPLETE BUT FAILED.
000808:
000809:                                                                                                  #  ERASABLE INITIALIZATION-
000810:                                                                                                  #        BUF2 CONTAINS RETURN ADDRESS PLUS 1,(L+2)
000811:                                                                                                  #        BUF2+1 CONTAINS FBANK VALUE OF CALLING ROUTINE.
000812:                                                                                                  #        MODECADR CONTAINS +0, -1, -0 OR CADR RETURN ADDRESS.
000813:
000814:
000815: 07,3644           11335        IMUSTALL           CCS      MODECADR
000816: 07,3645           13661                           TCF      MODABORT                              #  ALLOWABLE STATES ARE +0, -1, AND -0.
000817: 07,3646           13656                           TCF      MODESLP                               #  OPERATION INCOMPLETE.
000818: 07,3647           13652                           TCF      MODEGOOD                              #  COMPLETE AND GOOD IF = -1.
000819:
000820: 07,3650           55335        MG2                TS       MODECADR                              #  COMPLETE AND FAILED IF -0. RESET TO +0.
000821: 07,3651           12675                           TCF      MODEEXIT                              #  RETURN TO CALLER.


000823: 07,3652           10000        MODEGOOD           CCS      A                                     #  MAKE SURE INITIAL STATE -1.
000824: 07,3653           13661                           TCF      MODABORT
000825:
000826: 07,3654           24133                           INCR     BUF2                                  #  IF SO, INCREMENT RETURN ADDRESS AND
000827: 07,3655           13650                           TCF      MG2                                   #  RETURN IMMEDIATELY, SETTING CADR = +
000828:
000829: 07,3656           04665        MODESLP            TC       MAKECADR                              #  CALL FROM SWITCHABLE FIXED ONLY.
000830: 07,3657           55335                           TS       MODECADR
000831: 07,3660           15163                           TCF      JOBSLEEP
000832:
000833: 07,3661           05726        MODABORT           TC       POODOO                                #  TWO PROGRAMS USING SAME DEVICE.
000834: 07,3662           21210                           OCT      21210
000835:


000837:
000838:                                                                                                  #  CONSTANTS FOR MODE SWITCHING ROUTINES
000839:
000840: 07,3663     5775               BITS3&4            =        OCT14
000841: 07,3663     5004               BITS4&6            =        OCT50
000842: 07,3663     5001               BITS4-5            EQUALS   BITS4&5
000843: 07,3663     4761               IMUSEFLG           EQUALS   BIT8                                  #  INTERPRETER SWITCH 7.
000844: 07,3663           77500        -COMMAX            DEC      -191       B-14
000845: 07,3664           77477        -COMMAX-           DEC      -192       B-14
000846: 07,3665           00074        600MS              DEC      60         B-14
000847: 07,3666  07,3133               IMUFIN20           =        IMUFINE
000848:


000850:
000851:                                                                                                  #  PROGRAM DESCRIPTION
000852:                                                                                                  #  IMU STATUS CHECK ROUTINE R02  (SUBROUTINE UTILITY)
000853:                                                                                                  #  MOD NO - 1
000854:                                                                                                  #  MOD BY - N.BRODEUR
000855:
000856:                                                                                                  #  FUNCTIONAL DESCRIPTION
000857:                                                                                                  #  TO CHECK WHETHER IMU IS ON AND IF ON WHETHER IT IS ALIGNED TO AN
000858:                                                                                                  #  ORIENTATION KNOWN BY THE CMC. TO REQUEST SELECTION OF THE APPROPRIATE
000859:                                                                                                  #  PROGRAM IF THE IMU IS OFF OR NOT ALIGNED TO AN ORIENTATION KNOWN BY THE
000860:                                                                                                  #  CMC. CALLED THROUGH BANKCALL
000861:
000862:                                                                                                  #  CALLING SEQUENCE-
000863:                                                                                                  #        L       TC      BANKCALL
000864:                                                                                                  #        L+1     CADR    R02BOTH
000865:
000866:                                                                                                  #  SUBROUTINES CALLED
000867:                                                                                                  #        VARALARM
000868:                                                                                                  #        FLAGUP
000869:
000870:                                                                                                  #  NORMAL EXIT MODES
000871:                                                                                                  #        AT L+2 OF CALLING SEQUENCE
000872:
000873:                                                                                                  #  ALARM OR ABORT EXIT MODES
000874:                                                                                                  #        GOTOPOOH, WITH ALARM
000875:
000876:                                                                                                  #  ERASABLE INITIALIZATION REQUIRED
000877:                                                                                                  #        NONE
000878:
000879:                                                                                                  #  DEBRIS
000880:                                                                                                  #        CENTRALS - A,Q,L
000881:
000882: 01,2000                                           SETLOC   R02
000883: 01,2000                                           BANK
000884: 01,3731                                           COUNT*   $$/R02
000885: 01,3731           34754        R02BOTH            CAF      REFSMBIT
000886: 01,3732           70077                           MASK     FLAGWRD3
000887: 01,3733           10000                           CCS      A
000888: 01,3734           03745                           TC       R02ZERO                               #  ZERO IMUS
000889:
000890: 01,3735           31333                           CA       IMODES30
000891: 01,3736           74760                           MASK     IMUOPBIT                              #  IS ISS INITIALIZED
000892: 01,3737           00006                           EXTEND
000893: 01,3740           13742                           BZF      +2
000894: 01,3741           44765                           CS       BIT4                                  #  SEND IMU ALARM CODE 210
000895: 01,3742           63750                           AD       OCT220                                #  SEND REFSMM ALARM
000896: 01,3743           05770                           TC       VARALARM
000897:
000898: 01,3744           04103                           TC       GOTOPOOH
000899: 01,3745           05547        R02ZERO            TC       UPFLAG
000900: 01,3746           00007                           ADRES    IMUSE
000901: 01,3747           14651                           TCF      SWRETURN
000902: 01,3750           00220        OCT220             OCT      220
000903:


000905:
000906:                                                                                                  #  PROGRAM DESCRIPTION   P06     10FEB67
000907:
000908:                                                                                                  #  TRANSFER THE ISS/CMC FROM THE OPERATE TO THE STANDBY CONDITION.
000909:
000910:                                                                                                  #  THE NORMAL CONDITION OF READINESS OF THE GNCS WHEN NOT IN USE IS STANDBY. IN THIS CONDITION THE IMU
000911:                                                                                                  #  HEATER POWER IS ON. THE IMU OPERATE POWER IS OFF. THE COMPUTER POWER IS ON. THE OPTICS POWER IS OFF. THE
000912:                                                                                                  #  CMC STANDBY ON THE MAIN AND LEB DISKYS IS ON.
000913:
000914:                                                                                                  #  CALLING SEQUENCE:
000915:                                                                                                  #        ASTRONAUT REQUEST THROUGH DSKY  V37E 06E.
000916:
000917:                                                                                                  #  SUBROUTINES CALLED:
000918:                                                                                                  #        GOPERF1
000919:                                                                                                  #        BANKCALL
000920:                                                                                                  #        FLAGDOWN
000921:


000923:                                                                                                  #  PRESTAND PREPARES FOR STANDBY BY SNAPSHOTTING THE SCALER AND TIME1 TIME2
000924:                                                                                                  #  THE LOW 5 BITS OF THE SCALER ARE INSPECTED TO INSURE COMPATABILITY
000925:                                                                                                  #  BETWEEN THE SCALER READING AND THE TIME1 TIME2 READING.
000926:
000927: 26,2000                                           SETLOC   P05P06
000928: 26,2000                                           BANK
000929:
000930: 26,3654     1006                                  EBANK=   TIME2SAV
000931: 26,3654                                           COUNT*   $$/P06
000932:
000933: 26,3654           05547        P06                TC       UPFLAG                                #  SET NODOV37 BIT
000934: 26,3655           00054                           ADRES    NODOFLAG
000935:
000936: 26,3656           00004        PRESTAND           INHINT
000937: 26,3657           00006                           EXTEND
000938: 26,3660           30025                           DCA      TIME2                                 #  SNAPSHOT TIME1 TIME2
000939: 26,3661           53007                           DXCH     TIME2SAV
000940: 26,3662           03715                           TC       SCALPREP
000941: 26,3663           03656                           TC       PRESTAND                              #  T1,T2,SCALER NOT COMPATIBLE
000942: 26,3664           52155                           DXCH     MPAC                                  #  T1,T2 AND SCALER OK
000943: 26,3665           53011                           DXCH     SCALSAVE                              #  STORE SCALER
000944: 26,3666           00004                           INHINT
000945: 26,3667           04636                           TC       BANKCALL
000946: 26,3670           17121                           CADR     RNDREFDR                              #  REFSMM, DRIFT, TRACK FLAGS DOWN
000947:
000948: 26,3671           05561                           TC       DOWNFLAG
000949: 26,3672           00007                           ADRES    IMUSE                                 #  IMUSE DOWN
000950: 26,3673           05561                           TC       DOWNFLAG
000951: 26,3674           00010                           ADRES    RNDVZFLG                              #  RNDVZFLG DOWN
000952:
000953: 26,3675           05561                           TC       DOWNFLAG
000954: 26,3676           00176                           ADRES    UTFLAG
000955: 26,3677           34756                           CAF      BIT11
000956: 26,3700           00006                           EXTEND
000957: 26,3701           05013                           WOR      CHAN13                                #  SET STANDBY ENABLE BIT
000958:
000959: 26,3702           05402                           TC       PHASCHNG                              #  SET RESTART TO POSTAND WHEN STANDBY
000960: 26,3703           07024                           OCT      07024                                 #        RECOVERS
000961: 26,3704           20000                           OCT      20000
000962: 26,3705     1010                                  EBANK=   SCALSAVE
000963: 26,3705           03735 54062                     2CADR    POSTAND
000964:
000965: 26,3707           35011                           CAF      OCT62
000966: 26,3710           04636                           TC       BANKCALL
000967: 26,3711           21067                           CADR     GOPERF1
000968: 26,3712           13707                           TCF      -3
000969: 26,3713           13707                           TCF      -4
000970: 26,3714           13707                           TCF      -5
000971:
000972: 26,3715     5011               OCT62              EQUALS   .5SEC                                 #  DEC 50 = OCT 62
000973:


000975:                                                                                                  #  THE LOW 5 BITS OF THE SCALER READS 10000 FOR THE FIRST INTERVAL AFTER A
000976:                                                                                                  #  T1 INCREMENT. IF SCALPREP DETECTS THIS INTERVAL THE T1,T2 AND SCALER
000977:                                                                                                  #  DATA ARE NOT COMPATABLE AND RETURN IS TO L+1 FOR ANOTHER READING OF THE
000978:                                                                                                  #  DATA. OTHERWISE, THE RETURN IS TO L+2 TO PROCEED. ROUTINE ALSO PREPARES
000979:                                                                                                  #  THE SCALER READING FOR COMPUTATION OF THE INCREMENT TO UPDATE T1T2. (THE
000980:                                                                                                  #  10 MS BIT (BIT 6) OF THE SCALER IS INCREMENTED 5 MS OUT OF PHASE FROM
000981:                                                                                                  #  T1.) ADDITION OF 5 MS (BIT 5) TO THE SCALER READING HAS THE EFFECT OF
000982:                                                                                                  #  ADJUSTING BIT 6 IN THE SCALER TO BE IN PHASE WITH BIT 1 OF T1. THE LOW 5
000983:                                                                                                  #  BITS OF THE SCALER READING ARE THEN SET TO ZERO, TO TRUNCATE THE SCALER
000984:                                                                                                  #  DATA TO 10 MS. RESULTS ARE STORED IN MPAC, +1.
000985:
000986: 26,3715           00006        SCALPREP           EXTEND
000987: 26,3716           22156                           QXCH     MPAC       +2
000988: 26,3717           04511                           TC       FINETIME   +1
000989: 26,3720           00003                           RELINT
000990: 26,3721           52155                           DXCH     MPAC
000991: 26,3722           34764                           CA       BIT5                                  #  ADD 5 MS TO THE SCALER READING
000992: 26,3723           54001                           TS       L
000993: 26,3724           34772                           CA       ZERO
000994: 26,3725           20155                           DAS      MPAC
000995: 26,3726           44342                           CS       LOW5                                  #  SET LOW 5 BITS OF (SCALER+5MS) TO ZERO
000996: 26,3727           70155                           MASK     MPAC       +1                         #  AND STORE RESULTS IN MPAC,+1.
000997: 26,3730           56155                           XCH      MPAC       +1
000998: 26,3731           74342                           MASK     LOW5                                  #  TEST LOW 5 BITS OF SCALER FOR THE FIRST
000999:                                                                                                  #  INTERVAL AFTER THE T1 INCREMENT
001000:                                                                                                  #  (NOW = 00000, SINCE BIT 5 ADDED).
001001: 26,3732           10000                           CCS      A                                     #  IS IT 1ST INTERVAL AFTER T1 INCREMENT
001002: 26,3733           24156                           INCR     MPAC       +2                         #  NO
001003: 26,3734           00156                           TC       MPAC       +2                         #  YES
001004:
001005:                                                                                                  #  POSTAND RECOVERS TIME AFTER STANDBY. THE SCALER IS SNAPSHOTTED AND THE
001006:                                                                                                  #  TIME1 TIME2 COUNTER IS SET TO ZERO. THE LOW 5 BITS OF THE SCALER ARE
001007:                                                                                                  #  INSPECTED TO INSURE COMPATABILITY BETWEEN THE SCALER READING AND THE
001008:                                                                                                  #  CLEARING OF THE TIME COUNTER. IT THEN COMPUTES THE DIFFERENCE IN SCALER
001009:                                                                                                  #  VALUES (IN DP) AND ADDS THIS TO THE PREVIOUSLY SNAPSHOTTED VALUES OF
001010:                                                                                                  #  TIME1 TIME2 AND PLACES THIS NEW TIME INTO THE TIME1 TIME2 COUNTER.
001011:
001012: 26,3735                                           COUNT*   $$/P05
001013:
001014: 26,3735           44756        POSTAND            CS       BIT11                                 #  RECOVER TIME AFTER STANDBY.
001015: 26,3736           00006                           EXTEND
001016: 26,3737           03013                           WAND     CHAN13                                #  CLEAR STANDBY ENABLE BIT
001017: 26,3740           00004                 +3        INHINT
001018: 26,3741           34772                           CA       ZERO
001019: 26,3742           54001                           TS       L
001020: 26,3743           52025                           DXCH     TIME2                                 #  CLEAR TIME1 TIME2
001021: 26,3744           03715                           TC       SCALPREP                              #  STORE SCALER IN MPAC, MPAC+1
001022: 26,3745           03740                           TC       POSTAND    +3                         #  T1,T2,SCALER NOT COMPATIBLE
001023: 26,3746           00006                           EXTEND                                         #  T1,T2 AND SCALER OK
001024: 26,3747           41011                           DCS      SCALSAVE


001026: 26,3750           20155                           DAS      MPAC                                  #  FORM DP DIFFERENCE OF POSTSTANDBY SCALER
001027: 26,3751           34757                           CAF      BIT10                                 #  MINUS PRESTANDBY SCALER AND SHIFT RIGHT
001028: 26,3752           07256                           TC       SHORTMP                               #  5 TO ALIGN BITS WITH TIME1 TIME2.
001029: 26,3753           07224                           TC       DPAGREE
001030: 26,3754           10154                           CCS      MPAC
001031: 26,3755           03762                           TC       POSTCOM                               #  IF DP DIFF NET +, NO SCALER OVERFLOW
001032: 26,3756           03762                           TC       POSTCOM                               #  BETWEEN PRE AND POST STANDBY.
001033: 26,3757           03760                           TC       +1                                    #  IF DP DIFF NET -, SCALER OVERFLOWED. ADD
001034: 26,3760           34757                           CAF      BIT10                                 #  BIT 10 TO HIGH DIFF TO CORRECT.
001035: 26,3761           26154                           ADS      MPAC
001036: 26,3762           00006        POSTCOM            EXTEND                                         #  C(MPAC,+1) IS MAGNITUDE OF DELTA SCALER.
001037: 26,3763           31007                           DCA      TIME2SAV                              #  PRESTANDBY TIME1 TIME2
001038: 26,3764           20155                           DAS      MPAC
001039: 26,3765           07226                           TC       TPAGREE                               #  FORCE SIGN AGREEMENT
001040: 26,3766           52155                           DXCH     MPAC                                  #  UPDATED VALUE FOR T1,T2.
001041: 26,3767           20025                           DAS      TIME2                                 #  LOAD UPDATED VALUE INTO T1,T2, WITH
001042: 26,3770           05561                           TC       DOWNFLAG                              #  CLEAR NODOFLAG
001043: 26,3771           00054                           ADRES    NODOFLAG
001044:
001045: 26,3772           04103        TCGOPOOH           TC       GOTOPOOH

End of include-file IMU_MODE_SWITCHING_ROUTINES.agc.  Parent file is MAIN.agc


