
Source Code


000002:                                                                                                  ## Copyright:   Public domain.
000003:                                                                                                  ## Filename:    INFLIGHT_ALIGNMENT_ROUTINES.agc
000004:                                                                                                  ## Purpose:     Part of the source code for Artemis (i.e., Colossus 3),
000005:                                                                                                  ##              build 072.  This is for the Command Module's (CM)
000006:                                                                                                  ##              Apollo Guidance Computer (AGC), for
000007:                                                                                                  ##              Apollo 15-17.
000008:                                                                                                  ## Assembler:   yaYUL
000009:                                                                                                  ## Contact:     Jim Lawton <jim DOT lawton AT gmail DOT com>
000010:                                                                                                  ## Website:     www.ibiblio.org/apollo/index.html
000011:                                                                                                  ## Page Scans:  www.ibiblio.org/apollo/ScansForConversion/Artemis072/
000012:                                                                                                  ## Mod history: 2009-08-20 JL   Adapted from corresponding Comanche 055 file.
000013:                                                                                                  ##              2010-02-20 RSB  Un-##'d this header.
000014:


000016:
000017: 23,2000                                           SETLOC   INFLIGHT
000018: 23,2000                                           BANK
000019:
000020: 23,3240  E5,1671                                  EBANK=   XSM
000021:
000022:                                                                                                  #  CALCGTA COMPUTES THE GYRO TORQUE ANGLES REQUIRED TO BRING THE STABLE MEMBER INTO THE DESIRED ORIENTATION.
000023:
000024:                                                                                                  #  THE INPUT IS THE DESIRED STABLE MEMBER COORDINATES REFERRED TO PRESENT STABLE MEMBER COORDINATES. THE THREE
000025:                                                                                                  #  HALF-UNIT VECTORS ARE STORED AT XDC, YDC, AND ZDC.
000026:
000027:                                                                                                  #  THE OUTPUTS ARE THE THREE GYRO TORQUE ANGLES TO BE APPLIED TO THE Y, Z, AND X GYROS AND ARE STORED DP AT IGC,
000028:                                                                                                  #  MGC, AND OGC RESPECTIVELY.
000029:
000030: 23,3240                                           COUNT*   $$/INFLT
000031: 23,3240           71220        CALCGTA            ITA      DLOAD                                 #  PUSHDOWN 00-03,16D-27D,34D-37D
000032: 23,3241           00051                                    S2                                    #  XDC = (XD1 XD2 XD3)
000033: 23,3242           02714                                    XDC                                   #  YDC = (YD1 YD2 YD3)
000034: 23,3243           65325                           PDDL     PDDL                                  #  ZDC = (ZD1 ZD2 ZD3)
000035: 23,3244           15336                                    HI6ZEROS
000036: 23,3245           02720                                    XDC        +4
000037: 23,3246           55476                           DCOMP    VDEF
000038: 23,3247           77656                           UNIT
000039: 23,3250           14027                           STODL    ZPRIME                                #  ZP = UNIT(-XD3 0 XD1) = (ZP1 ZP2 ZP3)
000040: 23,3251           00027                                    ZPRIME
000041:
000042: 23,3252           77742                           SR1
000043: 23,3253           14023                           STODL    SINTH                                 #  SIN(IGC) = ZP1
000044: 23,3254           00033                                    ZPRIME     +4
000045: 23,3255           77742                           SR1
000046: 23,3256           34021                           STCALL   COSTH                                 #  COS(IGC) = ZP3
000047: 23,3257           47311                                    ARCTRIG
000048:
000049: 23,3260           16762                           STODL    IGC                                   #  Y GYRO TORQUING ANGLE   FRACTION OF REV.
000050: 23,3261           02716                                    XDC        +2
000051: 23,3262           77742                           SR1
000052: 23,3263           14023                           STODL    SINTH                                 #  SIN(MGC) = XD2
000053: 23,3264           00027                                    ZPRIME
000054:
000055: 23,3265           65205                           DMP      PDDL
000056: 23,3266           02720                                    XDC        +4                         #  PD00 = (ZP1)(XD3)
000057: 23,3267           00033                                    ZPRIME     +4
000058:
000059: 23,3270           45205                           DMP      DSU
000060: 23,3271           02714                                    XDC                                   #  MPAC = (ZP3)(XD1)
000061: 23,3272           77626                           STADR
000062: 23,3273           43756                           STCALL   COSTH                                 #  COS(MGC) = MPAC - PD00
000063: 23,3274           47311                                    ARCTRIG
000064: 23,3275           26764                           STOVL    MGC                                   #  Z GYRO TORQUING ANGLE   FRACTION OF REV.


000066: 23,3276           00027                                    ZPRIME
000067: 23,3277           77641                           DOT
000068: 23,3300           02730                                    ZDC
000069: 23,3301           24021                           STOVL    COSTH                                 #  COS(OGC) = ZP . ZDC
000070: 23,3302           00027                                    ZPRIME
000071: 23,3303           77641                           DOT
000072: 23,3304           02722                                    YDC
000073: 23,3305           34023                           STCALL   SINTH                                 #  SIN(OGC) = ZP . YDC
000074: 23,3306           47311                                    ARCTRIG
000075:
000076: 23,3307           36760                           STCALL   OGC                                   #  X GYRO TORQUING ANGLE   FRACTION OF REV.
000077: 23,3310           00051                                    S2
000078:


000080:
000081:                                                                                                  #  ARCTRIG COMPUTES AN ANGLE GIVEN THE SINE AND COSINE OF THIS ANGLE.
000082:
000083:                                                                                                  #  THE INPUTS ARE SIN/4 AND COS/4 STORED DP AT SINTH AND COSTH.
000084:
000085:                                                                                                  #  THE OUTPUT IS THE CALCULATED ANGLE BETWEEN +.5 AND -.5 REVOLUTIONS AND STORED AT THETA. THE OUTPUT IS ALSO
000086:                                                                                                  #  AVAILABLE AT MPAC.
000087:
000088: 23,3311           51545        ARCTRIG            DLOAD    ABS                                   #  PUSHDOWN  16D-21D
000089: 23,3312           00023                                    SINTH
000090: 23,3313           50025                           DSU      BMN
000091: 23,3314           07525                                    QTSN45                                #  ABS(SIN/4) - SIN(45)/4
000092: 23,3315           47324                                    TRIG1                                 #  IF (-45,45) OR (135,-135)
000093:
000094: 23,3316           72545                           DLOAD    SL1                                   #  (45,135) OR (-135,-45)
000095: 23,3317           00021                                    COSTH
000096: 23,3320           75326                           ACOS     SIGN
000097: 23,3321           00023                                    SINTH
000098: 23,3322           00025                           STORE    THETA                                 #  X = ARCCOS(COS) WITH SIGN(SIN)
000099: 23,3323           77616                           RVQ
000100:
000101: 23,3324           72545        TRIG1              DLOAD    SL1                                   #  (-45,45) OR (135,-135)
000102: 23,3325           00023                                    SINTH
000103: 23,3326           77736                           ASIN
000104: 23,3327           14025                           STODL    THETA                                 #  X = ARCSIN(SIN) WITH SIGN(SIN)
000105: 23,3330           00021                                    COSTH
000106: 23,3331           77640                           BMN
000107: 23,3332           47335                                    TRIG2                                 #  IF (135,-135)
000108:
000109: 23,3333           43545                           DLOAD    RVQ
000110: 23,3334           00025                                    THETA                                 #  X = ARCSIN(SIN)   (-45,45)
000111:
000112: 23,3335           75345        TRIG2              DLOAD    SIGN                                  #  (135,-135)
000113: 23,3336           15334                                    HIDPHALF
000114: 23,3337           00023                                    SINTH
000115: 23,3340           77625                           DSU
000116: 23,3341           00025                                    THETA
000117: 23,3342           00025                           STORE    THETA                                 #  X = .5 WITH SIGN(SIN) - ARCSIN(SIN)
000118: 23,3343           77616                           RVQ                                            #        (+) - (+) OR (-) - (-)
000119:


000121:                                                                                                  #  SMNB, NBSM, AND AXISROT, WHICH USED TO APPEAR HERE, HAVE BEEN
000122:                                                                                                  #  COMBINED IN A ROUTINE CALLED AX*SR*T, WHICH APPEARS AMONG THE POWERED
000123:                                                                                                  #  FLIGHT SUBROUTINES.
000124:


000126:                                                                                                  #  CALCGA COMPUTES THE CDU DRIVING ANGLES REQUIRED TO BRING THE STABLE MEMBER INTO THE DESIRED ORIENTATION.
000127:
000128:                                                                                                  #  THE INPUTS ARE  1) THE NAVIGATION BASE COORDINATES REFERRED TO ANY COORDINATE SYSTEM. THE THREE HALF-UNIT
000129:                                                                                                  #  VECTORS ARE STORED AT XNB, YNB, AND ZNB.  2) THE DESIRED STABLE MEMBER COORDINATES REFERRED TO THE SAME
000130:                                                                                                  #  COORDINATE SYSTEM ARE STORED AT XSM, YSM, AND ZSM.
000131:
000132:                                                                                                  #  THE OUTPUTS ARE THE THREE CDU DRIVING ANGLES AND ARE STORED SP AT THETAD, THETAD +1, AND THETAD +2.
000133:
000134: 23,3344           77601        CALCGA             SETPD                                          #  PUSHDOWN 00-05, 16D-21D, 34D-37D
000135: 23,3345           00001                                    0
000136: 23,3346           47375                           VLOAD    VXV
000137: 23,3347           02714                                    XNB                                   #  XNB = OGA (OUTER GIMBAL AXIS)
000138: 23,3350           02700                                    YSM                                   #  YSM = IGA (INNER GIMBAL AXIS)
000139: 23,3351           41456                           UNIT     PUSH                                  #  PD0 = UNIT(OGA X IGA) = MGA
000140:
000141: 23,3352           44041                           DOT      ITA
000142: 23,3353           02730                                    ZNB
000143: 23,3354           00051                                    S2
000144: 23,3355           24021                           STOVL    COSTH                                 #  COS(OG) = MGA . ZNB
000145: 23,3356           00001                                    0
000146: 23,3357           77641                           DOT
000147: 23,3360           02722                                    YNB
000148: 23,3361           34023                           STCALL   SINTH                                 #  SIN(OG) = MGA . YNB
000149: 23,3362           47311                                    ARCTRIG
000150: 23,3363           26760                           STOVL    OGC
000151: 23,3364           00001                                    0
000152:
000153: 23,3365           50235                           VXV      DOT                                   #  PROVISION FOR MG ANGLE OF 90 DEGREES
000154: 23,3366           02714                                    XNB
000155: 23,3367           02700                                    YSM
000156: 23,3370           77752                           SL1
000157: 23,3371           24021                           STOVL    COSTH                                 #  COS(MG) = IGA . (MGA X OGA)
000158: 23,3372           02700                                    YSM
000159: 23,3373           77641                           DOT
000160: 23,3374           02714                                    XNB
000161: 23,3375           34023                           STCALL   SINTH                                 #  SIN(MG) = IGA . OGA
000162: 23,3376           47311                                    ARCTRIG
000163: 23,3377           02764                           STORE    MGC
000164:
000165: 23,3400           45246                           ABS      DSU
000166: 23,3401           07527                                    .166...
000167: 23,3402           77644                           BPL
000168: 23,3403           47422                                    GIMLOCK1                              #  IF ANGLE GREATER THAN 60 DEGREES
000169:
000170: 23,3404           50375        CALCGA1            VLOAD    DOT
000171: 23,3405           02706                                    ZSM
000172: 23,3406           00001                                    0
000173: 23,3407           24021                           STOVL    COSTH                                 #  COS(IG) = ZSM . MGA
000174: 23,3410           02672                                    XSM


000176: 23,3411           45441                           DOT      STADR
000177: 23,3412           43754                           STCALL   SINTH                                 #  SIN(IG) = XSM . MGA
000178: 23,3413           47311                                    ARCTRIG
000179:
000180: 23,3414           26762                           STOVL    IGC
000181: 23,3415           02760                                    OGC
000182: 23,3416           77634                           RTB
000183: 23,3417           45644                                    V1STO2S
000184: 23,3420           35310                           STCALL   THETAD
000185: 23,3421           00051                                    S2
000186:
000187: 23,3422           77776        GIMLOCK1           EXIT
000188: 23,3423           05671                           TC       ALARM
000189: 23,3424           00401                           OCT      00401
000190: 23,3425           05547                           TC       UPFLAG                                #  GIMBAL LOCK HAS OCCURRED
000191: 23,3426           00056                           ADRES    GLOKFAIL
000192:
000193: 23,3427           06006                           TC       INTPRET
000194: 23,3430           77650                           GOTO
000195: 23,3431           47404                                    CALCGA1
000196:


000198:
000199:                                                                                                  #  AXISGEN COMPUTES THE COORDINATES OF ONE COORDINATE SYSTEM REFERRED TO ANOTHER COORDINATE SYSTEM.
000200:
000201:                                                                                                  #  THE INPUTS ARE  1) THE STAR1 VECTOR REFERRED TO COORDINATE SYSTEM A STORED AT STARAD.  2) THE STAR2 VECTOR
000202:                                                                                                  #  REFERRED TO COORDINATE SYSTEM A STORED AT STARAD +6.  3) THE STAR1 VECTOR REFERRED TO COORDINATE SYSTEM B STORED
000203:                                                                                                  #  AT LOCATION 6 OF THE VAC AREA.  4) THE STAR2 VECTOR REFERRED TO COORDINATE SYSTEM B STORED AT LOCATION 12D OF
000204:                                                                                                  #  THE VAC AREA.
000205:
000206:                                                                                                  #  THE OUTPUT DEFINES COORDINATE SYSTEM A REFERRED TO COORDINATE SYSTEM B. THE THREE HALF-UNIT VECTORS ARE STORED
000207:                                                                                                  #  AT LOCATIONS XDC, XDC +6, XDC +12D, AND STARAD, STARAD +6, STARAD +12D.
000208:
000209: 23,3432           66370        AXISGEN            AXT,1    SSP                                   #  PUSHDOWN 00-30D,34D-37D
000210: 23,3433           02743                                    STARAD     +6
000211: 23,3434           00051                                    S1
000212: 23,3435           02727                                    STARAD     -6
000213:
000214: 23,3436           77601                           SETPD
000215: 23,3437           00001                                    0
000216: 23,3440           46773        AXISGEN1           VLOAD*   VXV*                                  #  06D   UA = S1
000217: 23,3441           02752                                    STARAD     +12D,1                     #        STARAD +00D     UB = S1
000218: 23,3442           02760                                    STARAD     +18D,1
000219: 23,3443           77656                           UNIT                                           #  12D   VA = UNIT(S1 X S2)
000220: 23,3444           06760                           STORE    STARAD     +18D,1                     #        STARAD +06D     VB = UNIT(S1 X S2)
000221: 23,3445           77773                           VLOAD*
000222: 23,3446           02752                                    STARAD     +12D,1
000223:
000224: 23,3447           76433                           VXV*     VSL1
000225: 23,3450           02760                                    STARAD     +18D,1                     #  18D   WA = UA X VA
000226: 23,3451           06766                           STORE    STARAD     +24D,1                     #        STARAD +12D     WB = UB X VB
000227:
000228: 23,3452           77700                           TIX,1
000229: 23,3453           47440                                    AXISGEN1
000230:
000231: 23,3454           66160                           AXC,1    SXA,1
000232: 23,3455           00006                                    6
000233: 23,3456           00036                                    30D
000234:
000235: 23,3457           66370                           AXT,1    SSP
000236: 23,3460           00022                                    18D
000237: 23,3461           00051                                    S1
000238: 23,3462           00006                                    6
000239:
000240: 23,3463           66374                           AXT,2    SSP
000241: 23,3464           00006                                    6
000242: 23,3465           00052                                    S2
000243: 23,3466           00002                                    2
000244:
000245: 23,3467           76720        AXISGEN2           XCHX,1   VLOAD*
000246: 23,3470           00036                                    30D                                   #  X1=-6 X2=+6   X1=-6 X2=+4     X1=-6 X2=+2
000247: 23,3471           00001                                    0,1
000248:


000250: 23,3472           62757                           VXSC*    PDVL*                                 #  J=(UA)(UB1)   J=(UA)(UB2)     J=(UA)(UB3)
000251: 23,3473           75033                                    STARAD     +6,2
000252: 23,3474           00007                                    6,1
000253: 23,3475           77757                           VXSC*
000254: 23,3476           75025                                    STARAD     +12D,2
000255: 23,3477           30031                           STOVL*   24D                                   #  K=(VA)(VB1)   J=(VA)(VB2)     J=(VA)(VB3)
000256: 23,3500           00015                                    12D,1
000257:
000258: 23,3501           53357                           VXSC*    VAD
000259: 23,3502           75017                                    STARAD     +18D,2                     #  L=(WA)(WB1)   J=(WA)(WB2)     J=(WA)(WB3)
000260: 23,3503           76455                           VAD      VSL1
000261: 23,3504           00031                                    24D
000262: 23,3505           53520                           XCHX,1   UNIT
000263: 23,3506           00036                                    30D
000264: 23,3507           06736                           STORE    XDC        +18D,1                     #  XDC = L+J+K   YDC = L+J+K     ZDC = L+J+K
000265:
000266: 23,3510           77700                           TIX,1
000267: 23,3511           47512                                    AXISGEN3
000268:
000269: 23,3512           77704        AXISGEN3           TIX,2
000270: 23,3513           47467                                    AXISGEN2
000271:
000272: 23,3514           77775                           VLOAD
000273: 23,3515           02714                                    XDC
000274: 23,3516           26736                           STOVL    STARAD
000275: 23,3517           02722                                    YDC
000276: 23,3520           26744                           STOVL    STARAD     +6
000277: 23,3521           02730                                    ZDC
000278: 23,3522           02752                           STORE    STARAD     +12D
000279:
000280: 23,3523           77616                           RVQ
000281:


000283: 23,3524           05520 26075  QTSN45             2DEC     .1768
000284: 23,3526           05252 25253  .166...            2DEC     .1666666667
000285:


000287:
000288:

End of include-file INFLIGHT_ALIGNMENT_ROUTINES.agc.  Parent file is MAIN.agc


