
Source Code


000002:                                                                                                  ## Copyright:   Public domain.
000003:                                                                                                  ## Filename:    INTERRUPT_LEAD_INS.agc
000004:                                                                                                  ## Purpose:     Part of the source code for Artemis (i.e., Colossus 3),
000005:                                                                                                  ##              build 072.  This is for the Command Module's (CM)
000006:                                                                                                  ##              Apollo Guidance Computer (AGC), for
000007:                                                                                                  ##              Apollo 15-17.
000008:                                                                                                  ## Assembler:   yaYUL
000009:                                                                                                  ## Contact:     Jim Lawton <jim DOT lawton AT gmail DOT com>
000010:                                                                                                  ## Website:     www.ibiblio.org/apollo/index.html
000011:                                                                                                  ## Page Scans:  www.ibiblio.org/apollo/ScansForConversion/Artemis072/
000012:                                                                                                  ## Mod history: 2009-07-25 JL   Adapted from corresponding Comanche 055 file.
000013:                                                                                                  ##              2010-02-02 JL   Added missing RESUME.
000014:                                                                                                  ##              2010-02-20 RSB  Un-##'d this header.
000015:                                                                                                  ##              2017-02-05 RSB  Proofed comment text by diff'ing vs Comanche 55
000016:                                                                                                  ##                              but no differences found.
000017:


000019:    4000                                           SETLOC   4000
000020:
000021:    4000                                           COUNT*   $$/RUPTS
000022:
000023:    4000           00004                           INHINT                                         #  GO
000024:    4001           34051                           CAF      GOBB
000025:    4002           56006                           XCH      BBANK
000026:    4003           12563                           TCF      GOPROG
000027:
000028:    4004           52011                           DXCH     ARUPT                                 #  T6RUPT
000029:    4005           00006                           EXTEND
000030:    4006           30111                           DCA      T6LOC
000031:    4007           52006                           DTCB
000032:
000033:    4010           52011                           DXCH     ARUPT                                 #  T5RUPT
000034:    4011           40030                           CS       TIME5
000035:    4012           65011                           AD       .5SEC
000036:    4013           14056                           TCF      T5RUPT
000037:
000038:    4014           52011                           DXCH     ARUPT                                 #  T3RUPT
000039:    4015           35254                           CAF      T3RPTBB
000040:    4016           56006                           XCH      BBANK
000041:    4017           13362                           TCF      T3RUPT
000042:
000043:    4020           52011                           DXCH     ARUPT                                 #  T4RUPT
000044:    4021           34054                           CAF      T4RPTBB
000045:    4022           56006                           XCH      BBANK
000046:    4023           12000                           TCF      T4RUPT
000047:
000048:    4024           52011                           DXCH     ARUPT                                 #  KEYRUPT1
000049:    4025           34052                           CAF      KEYRPTBB
000050:    4026           56006                           XCH      BBANK
000051:    4027           13666                           TCF      KEYRUPT1
000052:
000053:    4030           52011                           DXCH     ARUPT                                 #  KEYRUPT2
000054:    4031           34052                           CAF      MKRUPTBB
000055:    4032           56006                           XCH      BBANK
000056:    4033           12105                           TCF      MARKRUPT
000057:
000058:    4034           52011                           DXCH     ARUPT                                 #  UPRUPT
000059:    4035           34052                           CAF      UPRPTBB
000060:    4036           56006                           XCH      BBANK
000061:    4037           13710                           TCF      UPRUPT
000062:
000063:    4040           52011                           DXCH     ARUPT                                 #  DOWNRUPT
000064:    4041           34051                           CAF      DWNRPTBB
000065:    4042           56006                           XCH      BBANK
000066:    4043           14621                           TCF      DODOWNTM
000067:
000068:    4044           52011                           DXCH     ARUPT                                 #  RADAR RUPT
000069:    4045           34053                           CAF      RDRPTBB


000071:    4046           56006                           XCH      BBANK
000072:    4047           12536                           TCF      VHFREAD
000073:
000074:    4050           50017                           RESUME
000075:
000076:    4051  E3,1400                                  EBANK=   LST1                                  #  RESTART USES E0,E3
000077:    4051           12063        GOBB               BBCON    GOPROG
000078:
000079:    4052  E3,1400                                  EBANK=   LST1
000080:    4052     5254               T3RPTBB            EQUALS   WAITBB
000081:    4052     4052               KEYRPTBB           =        MKRUPTBB
000082:
000083:    4052  E7,1722                                  EBANK=   MRKBUF1
000084:    4052           16067        MKRUPTBB           BBCON    MARKRUPT
000085:    4053     4052               UPRPTBB            =        KEYRPTBB
000086:    4053     4051               DWNRPTBB           =        GOBB
000087:
000088:    4053  E7,1703                                  EBANK=   RM
000089:    4053           56067        RDRPTBB            BBCON    VHFREAD
000090:    4054     1322                                  EBANK=   DSRUPTSW
000091:    4054           14062        T4RPTBB            BBCON    T4RUPT
000092:    4055     0025                                  EBANK=   TIME1
000093:    4055           04060        T5RPTBB            BBCON    T5RUPT
000094:
000095:    4056           00006        T5RUPT             EXTEND
000096:    4057           65327                           BZMF     NOQBRSM
000097:    4060           00006                           EXTEND
000098:    4061           30113                           DCA      T5LOC
000099:    4062           52006                           DTCB

End of include-file INTERRUPT_LEAD_INS.agc.  Parent file is MAIN.agc


