
Source Code


000002:                                                                                                 #  Copyright:     Public domain.
000003:                                                                                                 #  Filename:      INTER-BANK_COMMUNICATION.agc
000004:                                                                                                 #  Purpose:       Part of the source code for Artemis (i.e., Colossus 3),
000005:                                                                                                 #                 build 072.  This is for the Command Module's (CM)
000006:                                                                                                 #                 Apollo Guidance Computer (AGC), we believe for
000007:                                                                                                 #                 Apollo 15-17.
000008:                                                                                                 #  Assembler:     yaYUL
000009:                                                                                                 #  Contact:       Jim Lawton <jim DOT lawton AT gmail DOT com>
000010:                                                                                                 #  Website:       www.ibiblio.org/apollo/index.html
000011:                                                                                                 #  Page scans:    www.ibiblio.org/apollo/ScansForConversion/Artemis072/
000012:                                                                                                 #  Mod history:   2009-08-22 JL   Adapted from corresponding Comanche 055 file.
000013:                                                                                                 #                 2009-08-29 JL   Merged changes from Sergio Navarro.
000014:                                                                                                 #                 2010-02-20 RSB  Un-##'d this header.
000015:


000017:
000018:                                                                                                 #  THE FOLLOWING ROUTINE CAN BE USED TO CALL A SUBROUTINE IN ANOTHER BANK. IN THE BANKCALL VERSION, THE
000019:                                                                                                 #  CADR OF THE SUBROUTINE IMMEDIATELY FOLLOWS THE  TC BANKCALL  INSTRUCTION, WITH C(A) AND C(L) PRESERVED.
000020:
000021:    4000                                          SETLOC   FFTAG1
000022:    4000                                          BANK
000023:
000024:    4636                                          COUNT*   $$/BANK
000025:    4636           52134        BANKCALL          DXCH     BUF2                                  #  SAVE INCOMING A,L.
000026:    4637           50002                          INDEX    Q                                     #  PICK UP CADR.
000027:    4640           30000                          CA       0
000028:    4641           24002                 -1       INCR     Q                                     #  SO WE RETURN TO THE LOC. AFTER THE CADR.
000029:
000030:                                                                                                 #  SWCALL IS  IDENTICAL TO BANKCALL, EXCEPT THAT THE CADR ARRIVES IN A.
000031:
000032:    4642           54001        SWCALL            TS       L
000033:    4643           22004                          LXCH     FBANK                                 #  SWITCH BANKS, SAVING RETURN.
000034:    4644           75041                          MASK     LOW10                                 #  GET SUB-ADDRESS OF CADR.
000035:    4645           56002                          XCH      Q                                     #  A,L NOW CONTAINS DP RETURN.
000036:    4646           52134                          DXCH     BUF2                                  #  RESTORING INPUTS IF THIS IS A BANKCALL.
000037:    4647           50002                          INDEX    Q
000038:    4650           02000                          TC       10000                                 #  SETTING Q TO SWRETURN.
000039:
000040:    4651           56134        SWRETURN          XCH      BUF2       +1                         #  COMES HERE TO RETURN TO CALLER. C(A,L)
000041:    4652           56004                          XCH      FBANK                                 #  ARE PRESERVED FOR RETURN.
000042:    4653           56134                          XCH      BUF2       +1
000043:    4654           00133                          TC       BUF2
000044:
000045:                                                                                                 #  THE FOLLOWING ROUTINE CAN BE USED AS A UNILATERAL JUMP WITH C(A,L) PRESERVED AND THE CADR IMMEDIATELY
000046:                                                                                                 #  FOLLOWING THE TC POSTJUMP INSTRUCTION.
000047:
000048:    4655           56002        POSTJUMP          XCH      Q                                     #  SAVE INCOMING C(A).
000049:    4656           50000                          INDEX    A                                     #  GET CADR.
000050:    4657           30000                          CA       0
000051:
000052:                                                                                                 #  BANKJUMP IS THE SAME AS POSTJUMP, EXCEPT THAT THE CADR ARRIVES IN A.
000053:
000054:    4660           54004        BANKJUMP          TS       FBANK
000055:    4661           75041                          MASK     LOW10
000056:    4662           56002                          XCH      Q                                     #  RESTORING INPUT C(A) IF THIS WAS A
000057:    4663           50002        Q+10000           INDEX    Q                                     #  POSTJUMP.
000058:    4664           12000        PRIO12            TCF      10000                                 #  PRIO12 = TCF   10000 = 12000
000059:


000061:
000062:                                                                                                 #  THE FOLLOWING ROUTINE GETS THE RETURN CADR SAVED BY SWCALL OR BANKCALL AND LEAVES IT IN A.
000063:
000064:    4665           35041        MAKECADR          CAF      LOW10
000065:    4666           70133                          MASK     BUF2
000066:    4667           60134                          AD       BUF2       +1
000067:    4670           00002                          TC       Q
000068:
000069:    4671           54135        SUPDACAL          TS       MPTEMP
000070:    4672           56004                          XCH      FBANK                                 #  SET FBANK FOR DATA.
000071:    4673           00006                          EXTEND
000072:    4674           04007                          ROR      SUPERBNK                              #  SAVE FBANK IN BITS 15-11, AND
000073:    4675           56135                          XCH      MPTEMP                                #  SUPERBANK IN BITS 7-5.
000074:    4676           75041                          MASK     LOW10
000075:    4677           56001                          XCH      L                                     #  SAVE REL. ADR. IN BANK, FETCH SUPERBITS
000076:    4700           00004                          INHINT                                         #  BECAUSE RUPT DOES NOT SAVE SUPERBANK.
000077:    4701           00006                          EXTEND
000078:    4702           01007                          WRITE    SUPERBNK                              #  SET SUPERBANK FOR DATA.
000079:    4703           50001                          INDEX    L
000080:    4704           32000                          CA       10000                                 #  PINBALL (FIX MEM DISP) PREVENTS DCA HERE
000081:    4705           56135                          XCH      MPTEMP                                #  SAVE 1ST WD, FETCH OLD FBANK AND SBANK.
000082:    4706           00006                          EXTEND
000083:    4707           01007                          WRITE    SUPERBNK                              #  RESTORE SUPERBANK.
000084:    4710           00003                          RELINT
000085:    4711           54004                          TS       FBANK                                 #  RESTORE FBANK.
000086:    4712           30135                          CA       MPTEMP                                #  RECOVER FIRST WORD OF DATA.
000087:    4713           00002                          RETURN                                         #  24 WDS. DATACALL 516 MU, SUPDACAL 432 MU
000088:


000090:
000091:                                                                                                 #  THE FOLLOWING ROUTINES ARE IDENTICAL TO BANKCALL AND SWCALL EXCEPT THAT THEY ARE USED IN INTERRUPT.
000092:
000093:    4714           52073        IBNKCALL          DXCH     RUPTREG3                              #  USES RUPTREG3,4 FOR DP RETURN ADDRESS.
000094:    4715           50002                          INDEX    Q


000097:    4716           30000                          CA       0
000098:    4717           24002                          INCR     Q
000099:
000100:    4720           54001        ISWCALL           TS       L
000101:    4721           22004                          LXCH     FBANK
000102:    4722           75041                          MASK     LOW10
000103:    4723           56002                          XCH      Q
000104:    4724           52073                          DXCH     RUPTREG3
000105:    4725           50002                          INDEX    Q
000106:    4726           02000                          TC       10000
000107:
000108:    4727           56073        ISWRETRN          XCH      RUPTREG4
000109:    4730           56004                          XCH      FBANK
000110:    4731           56073                          XCH      RUPTREG4
000111:    4732           00072                          TC       RUPTREG3
000112:
000113:                                                                                                 #  2. USPRCADR ACCESSES INTERPRETIVE CODING IN OTHER THAN THE USER'S FBANK. THE CALLING SEQUENCE IS AS FOLLOWS:
000114:
000115:                                                                                                 #         L       TC      USPRCADR
000116:                                                                                                 #         L+1     CADR    INTPRETX        # INTPRETX IS THE INTERPRETIVE CODING
000117:                                                                                                 #                                         # RETURN IS TO L+2
000118:
000119:    4733           54164        USPRCADR          TS       LOC                                   #  SAVE A
000120:    4734           34761                          CA       BIT8
000121:    4735           54023                          TS       EDOP                                  #  EXIT INSTRUCTION TO EDOP
000122:    4736           30006                          CA       BBANK
000123:    4737           54165                          TS       BANKSET                               #  USER'S BBANK TO BANKSET
000124:    4740           50002                          INDEX    Q
000125:    4741           30000                          CA       0
000126:    4742           54004                          TS       FBANK                                 #  INTERPRETIVE BANK TO FBANK
000127:    4743           75041                          MASK     LOW10                                 #  YIELDS INTERPRETIVE RELATIVE ADDRESS
000128:    4744           56002                          XCH      Q                                     #  INTERPRETIVE ADDRESS TO Q, FETCHING L+1
000129:    4745           56164                          XCH      LOC                                   #  L+1 TO LOC, RETRIEVING ORIGINAL A
000130:    4746           14663                          TCF      Q+10000
000131:


000133:
000134:                                                                                                 #  THERE ARE FOUR POSSIBLE SETTINGS FOR CHANNEL 07.  (CHANNEL 07 CONTAINS SUPERBANK SETTING.)
000135:
000136:                                                                                                 #                                                 PSEUDO-FIXED     OCTAL PSEUDO
000137:                                                                                                 #  SUPERBANK      SETTING         S-REG. VALUE    BANK NUMBERS       ADDRESSES
000138:                                                                                                 #  ---------      -------         ------------    ------------       ---------
000139:                                                                                                 #  SUPERBANK 3      OXX            2000 - 3777       30 - 37       70000 - 107777         (WHERE XX CAN BE ANYTHING AND
000140:                                                                                                 #                                                                                         WILL USUALLY BE SEEN AS 11)
000141:                                                                                                 #  SUPERBANK 4      100            2000 - 3777       40 - 47      110000 - 127777         (AS FAR AS IT CAN BE SEEN,
000142:                                                                                                 #                                                                                         ONLY BANKS 40-43 WILL EVER BE
000143:                                                                                                 #                                                                                         AND ARE PRESENTLY AVAILABLE)
000144:                                                                                                 #  SUPERBANK 5      101            2000 - 3777       50 - 57      130000 - 147777         (PRESENTLY NOT AVAILABLE TO
000145:                                                                                                 #                                                                                         THE USER)
000146:                                                                                                 #  SUPERBANK 6      110            2000 - 3777       60 - 67      150000 - 167777         (PRESENTLY NOT AVAILABLE TO
000147:                                                                                                 #                                                                                         THE USER)
000148:

End of include-file INTER-BANK_COMMUNICATION.agc.  Parent file is MAIN.agc


