
Source Code


000002:                                                                                                  #  Copyright:    Public domain.
000003:                                                                                                  #  Filename:     INTERPRETER.agc
000004:                                                                                                  #  Purpose:      Part of the source code for Artemis (i.e., Colossus 3),
000005:                                                                                                  #                build 072.  This is for the Command Module's (CM)
000006:                                                                                                  #                Apollo Guidance Computer (AGC), we believe for
000007:                                                                                                  #                Apollo 15-17.
000008:                                                                                                  #  Assembler:    yaYUL
000009:                                                                                                  #  Contact:      Jim Lawton <jim DOT lawton AT gmail DOT com>
000010:                                                                                                  #  Website:      www.ibiblio.org/apollo/index.html
000011:                                                                                                  #  Page Scans:   www.ibiblio.org/apollo/ScansForConversion/Artemis072/
000012:                                                                                                  #  Mod history:  2009-09-02 JL   Adapted from corresponding Comanche 055 file.
000013:                                                                                                  #                2009-09-16 JL   Fixed line comment alignment in top section of file.
000014:                                                                                                  #                2010-02-20 RSB  Un-##'d this header.
000015:                                                                                                  #                2011-05-07 JL   Removed workarounds.
000016:


000018:
000019:                                                                                                  #  SECTION 1:  DISPATCHER
000020:
000021:                                                                                                  #  ENTRY TO THE INTERPRETER.  INTPRET SETS LOC TO THE FIRST INSTRUCTION, BANKSET TO THE BBANK OF THE
000022:                                                                                                  #  OBJECT INTERPRETIVE PROGRAM, AND INTBIT15 TO THE BIT15 CONTENTS OF FBANK. INTERPRETIVE PROGRAMS MAY BE IN
000023:                                                                                                  #  VIRTUALLY ALL BANKS PRESENT UNDER ANY SUPER-BANK SETTING, WITH THE RESTRICTION THAT PROGRAMS IN HIGH BANKS
000024:                                                                                                  #  (BIT15 OF FBANK = 1) DO NOT REFER TO LOWBANKS, AND VICE-VERSA. THE INTERPRETER DOES NOT SWITCH SUPERBANKS.
000025:                                                                                                  #  E-BANK SWITCHING OCCURS WHENEVER GENERAL ERASABLE (100-3777) IS ADDRESSED.
000026:
000027:    6000                                           SETLOC   INTERF3
000028:    6000                                           BANK
000029:
000030:    6006                                           COUNT*   $$/INTER
000031:    6006           00003        INTPRET            RELINT
000032:    6007           00006                           EXTEND                                         #  SET LOC TO THE WORD FOLLOWING THE TC.
000033:    6010           22164                 +2        QXCH     LOC
000034:
000035:    6011           30006                 +3        CA       BBANK                                 #  INTERPRETIVE BRANCHES FINISH HERE.
000036:    6012           54165                           TS       BANKSET
000037:    6013           74752                           MASK     BIT15                                 #  GET 15TH BIT FOR INDEXABLE ADDRESSES.
000038:    6014           54115                           TS       INTBIT15
000039:
000040:    6015           54023                           TS       EDOP                                  #  MAKE SURE NO INSTRUCTIONS LEFT OVER
000041:
000042:    6016           16037                           TCF      NEWOPS                                #  PICK UP OP CODE PAIR AND BEGIN.
000043:
000044:    6017           22006        INTRSM             LXCH     BBANK                                 #  RESUME SUSPENDED INTERPRETIVE JOB
000045:    6020           16011                           TCF      INTPRET    +3
000046:
000047:                                                                                                  #  DLOAD LOADS MPAC, MPAC +1, LEAVING ZERO IN MPAC +2.
000048:
000049:    6021           00006        DLOAD              EXTEND
000050:    6022           50116                           INDEX    ADDRWD
000051:    6023           30001                           DCA      0                                     #  LOAD DP C(C(ADDRWD)) INT MPAC,MPAC +1
000052:    6024           52155        SLOAD2             DXCH     MPAC
000053:    6025           34772                           CAF      ZERO                                  #  ZERO MPAC +2
000054:


000056:                                                                                                  #  AT THE END OF MOST INSTRUCTIONS, CONTROL IS GIVEN TO DANZIG TO DISPATCH THE NEXT OPERATION.
000057:
000058:    6026           54156                 +2        TS       MPAC       +2                         #  AND DECLARE DP MODE
000059:    6027           54163        NEWMODE            TS       MODE                                  #  PROLOGUE FOR MODE-CHANGING INSTRUCTIONS.
000060:
000061:    6030           30165        DANZIG             CA       BANKSET                               #  SET BBANK BEFORE TESTING NEWJOB SO THAT
000062:    6031           54006                           TS       BBANK                                 #  IT MAY BE SAVED DIRECTLY BY CHANJOB.
000063:
000064:    6032           10023        NOIBNKSW           CCS      EDOP                                  #  SEE IF AN ORDER CODE IS LEFT OVER FROM
000065:    6033           16046                           TCF      OPJUMP                                #  THE LAST PAIR RETRIEVED. IF SO, EXECUTE.
000066:                                                                                                  #  EDOP IS SET TO ZERO ON ITS RE-EDITIING.
000067:
000068:    6034           10067                           CCS      NEWJOB                                #  SEE IF A JOB OF HIGHER PRIORITY IS
000069:    6035           15156                           TCF      CHANG2                                #  PRESENT, AND IF SO, CHANGE JOBS.
000070:
000071:    6036           24164                           INCR     LOC                                   #  ADVANCE THE LOCATION COUNTER.
000072:                                                                                                  #  ITRACE (1) REFERS TO "NEWOPS"
000073:    6037           50164        NEWOPS             INDEX    LOC                                   #  ENTRY TO BEGIN BY PICKING OP CODE PAIR.
000074:    6040           30000                           CA       0                                     #  MAY BE AN OPCODE PAIR OR A STORE CODE.
000075:    6041           10000                           CCS      A                                     #  TEST SIGN AND GET DABS(A).
000076:    6042           16331                           TCF      DOSTORE                               #  PROCESS STORE CODE.
000077:
000078:    6043           00177        LOW7               OCT      177
000079:
000080:    6044           54023                           TS       EDOP                                  #  OP CODE PAIR. LEAVE THE OTHER IN EDOP
000081:    6045           76043                           MASK     LOW7                                  #  WHERE  CCS EDOP  WILL HONOR IT NEXT.
000082:
000083:    6046           54020        OPJUMP             TS       CYR                                   #  LOWWD ENTERS HERE IF A RIGHT-HAND OP
000084:    6047           10020                           CCS      CYR                                   #  CODE IS TO BE PROCESSED. TEST PREFICES.
000085:    6050           16216                           TCF      OPJUMP2                               #  TEST SECOND PREFIX BIT.
000086:
000087:    6051           16712                           TCF      EXIT                                  #  +0 OP CODE IS EXIT


000089:                                                                                                  #  PROCESS ADDRESSES WHICH MAY BE DIRECT, INDEXED, OR REFERENCE THE PUSHDOWN LIST.
000090:
000091:    6052           74770        ADDRESS            MASK     BIT1                                  #  SEE IF ADDRESS IS INDEXED. CYR CONTAINED
000092:    6053           10000                           CCS      A                                     #  400XX, SO BIT 1 IS NOW AS IT WAS IN CYR.
000093:    6054           16115                           TCF      INDEX                                 #  FORM INDEXED ADDRESS.
000094:
000095:    6055           50164        DIRADRES           INDEX    LOC                                   #  LOOK AHEAD TO NEXT WORD TO SEE IF
000096:    6056           40001        OCT40001           CS       1                                     #  ADDRESS IS GIVEN.
000097:    6057           10000                           CCS      A
000098:    6060           16164                           TCF      PUSHUP                                #  IF NOT.
000099:
000100:    6061           77773        NEG4               DEC      -4         B-14
000101:
000102:    6062           24164                           INCR     LOC                                   #  IF SO, TO SHOW WE PICKED UP A WORD.
000103:    6063           54116                           TS       ADDRWD
000104:


000106:                                                                                                  #  FINAL DIGESTION OF DIRECT ADDRESSES OF OP CODES WITH 01 PREFIX IS DONE HERE.  IN EACH CASE, THE
000107:                                                                                                  #  REQUIRED 12-BIT SUB-ADDRESS IS LEFT IN ADDRWD, WITH ANY REQUIRED E OR F BANK SWITCHING DONE. ADDRESSES LESS
000108:                                                                                                  #  THAN 45D ARE TAKEN TO BE RELATIVE TO THE WORK AREA. THE OP CODE IS NOW IN BITS 1-5 OF CYR WITH BIT 14 = 1.
000109:
000110:    6064           66220                           AD       -ENDVAC                               #  SEE IF ADDRESS RELATIVE TO WORK AREA.
000111:    6065           10000                           CCS      A
000112:    6066           67676                           AD       -ENDERAS                              #  IF NOT, SEE IF IN GENERAL ERASABLE.
000113:    6067           16074                           TCF      IERASTST
000114:
000115:    6070           30120        NETZERO            CA       FIXLOC                                #  IF SO, LEAVE THE MODIFIED ADDRESS IN
000116:    6071           26116                           ADS      ADDRWD                                #  ADDRWD AND DISPATCH.
000117:    6072           50020        ITR15              INDEX    CYR                                   #  THIS INDEX MAKES THE NEXT INSTRUCTION
000118:    6073           76242                           7        INDJUMP    -1                         #  TCF INDJUMP + OP, EDITING CYR.
000119:
000120:    6074           00006        IERASTST           EXTEND
000121:    6075           66105                           BZMF     GEADDR                                #  GO PROCESS GENERAL-ERASABLE ADDRESS.
000122:
000123:    6076           75041                           MASK     LOW10                                 #  FIXED BANK ADDRESS. RESTORE AND ADD B15.
000124:    6077           65041                           AD       LOW10                                 #  SWITCH BANKS AND LEAVE SUBADDRESS IN
000125:    6100           56116                           XCH      ADDRWD                                #  ADDRWD FOR OPERAND RETRIEVAL. (THIS
000126:    6101           60115                           AD       INTBIT15                              #  METHOD PRECLUDES USE OF THE LAST
000127:    6102           54004                           TS       FBANK                                 #  LOCATION IN EACH FBANK.)
000128:    6103           50020        ITR12              INDEX    CYR
000129:    6104           76242                           7        INDJUMP    -1
000130:
000131:    6105           74350        GEADDR             MASK     LOW8
000132:    6106           65024                           AD       OCT1400
000133:    6107           56116                           XCH      ADDRWD
000134:    6110           54003                           TS       EBANK
000135:    6111           50020        ITR10              INDEX    CYR
000136:    6112           76242                           7        INDJUMP    -1
000137:


000139:                                                                                                  #  THE FOLLOWING ROUTINE PROCESSES INTERPRETIVE INDEXED ADDRESSES. AN INTERPRETER INDEX REGISTER MAY
000140:                                                                                                  #  CONTAIN THE ADDRESS OF ANY ERASABLE REGISTER (0-42 BEING RELATIVE TO THE VAC AREA) OR ANY INTERPRETIVE PROGRAM
000141:                                                                                                  #  BANK, OR ANY INTEGER IN THAT RANGE.
000142:
000143:    6113           37666        DODLOAD*           CAF      DLOAD*                                #  STODL* COMES HERE TO PROCESS LOAD ADR.
000144:    6114           54020                 +1        TS       CYR                                   #  (STOVL* ENTERS HERE).
000145:    6115           30120        INDEX              CA       FIXLOC                                #  SET UP INDEX LOCATION.
000146:    6116           54130                           TS       INDEXLOC
000147:    6117           24164                           INCR     LOC                                   #  (ADDRESS ALWAYS GIVEN).
000148:    6120           50164                           INDEX    LOC
000149:    6121           40000                           CS       0
000150:    6122           10000                           CCS      A                                     #  INDEX 2 IF ADDRESS STORED COMPLEMENTED.
000151:    6123           24130                           INCR     INDEXLOC
000152:    6124           16125                           NOOP
000153:
000154:    6125           54116                           TS       ADDRWD                                #  14 BIT ADDRESS TO ADDRWD.
000155:    6126           77675                           MASK     HIGH4                                 #  IF ADDRESS GREATER THAN 2K, ADD INTBIT15
000156:    6127           00006                           EXTEND
000157:    6130           16133                           BZF      INDEX2
000158:    6131           30115                           CA       INTBIT15
000159:    6132           26116                           ADS      ADDRWD
000160:
000161:    6133           50130        INDEX2             INDEX    INDEXLOC
000162:    6134           40046                           CS       X1
000163:    6135           26116                           ADS      ADDRWD                                #  DO AUGMENT, IGNORING AND CORRECTING OVF.
000164:
000165:    6136           77677                           MASK     HIGH9                                 #  SEE IF ADDRESS IS IN WORK AREA.
000166:    6137           00006                           EXTEND
000167:    6140           16153                           BZF      INDWORK
000168:    6141           77675                           MASK     HIGH4                                 #  SEE IF IN FIXED BANK.
000169:    6142           00006                           EXTEND
000170:    6143           16155                           BZF      INDERASE
000171:
000172:    6144           30116                           CA       ADDRWD                                #  IN FIXED - SWITCH BANKS AND CREATE
000173:    6145           54004                           TS       FBANK                                 #  SUB-ADDRESS.
000174:    6146           75041                           MASK     LOW10
000175:    6147           64756                           AD       2K
000176:    6150           54116                           TS       ADDRWD
000177:    6151           50020        ITR11              INDEX    CYR
000178:    6152           36242                           3        INDJUMP    -1
000179:
000180:    6153           30120        INDWORK            CA       FIXLOC                                #  MAKE ADDRWD RELATIVE TO WORK AREA.
000181:    6154           16161                           TCF      ITR13      -1
000182:
000183:    6155           35024        INDERASE           CA       OCT1400
000184:    6156           56116                           XCH      ADDRWD
000185:    6157           54003                           TS       EBANK
000186:    6160           74350                           MASK     LOW8
000187:    6161           26116                 -1        ADS      ADDRWD
000188:    6162           50020        ITR13              INDEX    CYR


000190:    6163           36242                           3        INDJUMP    -1
000191:


000193:                                                                                                  #  PUSH-UP ROUTINES. WHEN NO OPERAND ADDRESS IS GIVEN, THE APPROPRIATE OPERAND IS TAKEN FROM THE PUSH-DOWN
000194:                                                                                                  #  LIST. IN MOST CASES THE MODE OF THE RESULT (VECTOR OR SCALAR) OF THE LAST ARTGHMETIC OPERATION PERFORMED
000195:                                                                                                  #  IS THE SAME AS THE TYPE OF OPERAND DESIRED (ALL ADD/SUBTRACT ETC.). EXCEPTIONS TO THIS GENERAL RULE ARE LISTED
000196:                                                                                                  #  BELOW (NOTE THAT IN EVERY CASE THE MODE REGISTER IS LEFT INTACT):
000197:
000198:                                                                                                  #        1.      VXSC AND V/SC WANT THE OPPOSITE TYPE OF OPERAND, E.G., IF THE LAST OPERATION YIELDED A VECTOR
000199:                                                                                                  #                RESULT, VXSC WANTS A SCALAR.
000200:
000201:                                                                                                  #        2.      THE LOAD CODES SHOULD LOAD THE ACCUMULATOR INDEPENDENT OF THE RESULT OF THE LAST OPERATION. THIS
000202:                                                                                                  #                INCLUDES VLOAD, DLOAD, TLOAD, PDDL, AND PDVL (NO PUSHUP WITH SLOAD).
000203:
000204:                                                                                                  #        3.      SOME ARITHMETIC OPERATIONS REQUIRE A STANDARD TYPE OF OPERAND REGARDLESS OF THE PREVIOUS OPERATION.
000205:                                                                                                  #                THIS INCLUDES SIGN WANTING DP AND TAD REQUIRING TP.
000206:
000207:    6164           34351        PUSHUP             CAF      OCT23                                 #  IF THE LOW 5 BITS OF CYR ARE LESS THAN
000208:    6165           70020                           MASK     CYR                                   #  20, THIS OP REQUIRES SPECIAL ATTENTION.
000209:    6166           66171                           AD       -OCT10                                #  (NO -0).
000210:    6167           10000                           CCS      A
000211:    6170           16202                           TCF      REGUP                                 #  FOR ALL CODES GREATER THAN OCT 7.
000212:
000213:    6171           77767        -OCT10             OCT      -10
000214:
000215:    6172           66061                           AD       NEG4                                  #  WE NOW HAVE 7 - OP CODE(MOD4).  SEE IF
000216:    6173           10000                           CCS      A                                     #  THE OP CODE (MOD4) IS THREE (REVERSE).
000217:    6174           50000                           INDEX    A                                     #  NO - THE MODE IS DEFINITE. PICK UP THE
000218:    6175           46213                           CS       NO.WDS
000219:    6176           16204                           TCF      REGUP      +2
000220:
000221:    6177           50163                           INDEX    MODE                                  #  FOR VXSC AND V/SC WE WANT THE REQUIRED
000222:    6200           46211                           CS       REVCNT                                #  PUSHLOC DECREMENT WITHOUT CHANGING THE
000223:    6201           16204                           TCF      REGUP      +2                         #  MODE AT THIS TIME.
000224:
000225:    6202           50163        REGUP              INDEX    MODE                                  #  MOST ALL OP CODES PUSHUP HERE.
000226:    6203           46213                           CS       NO.WDS
000227:    6204           26166                 +2        ADS      PUSHLOC
000228:    6205           54116                           TS       ADDRWD
000229:    6206           50020        ITR14              INDEX    CYR
000230:    6207           76242                           7        INDJUMP    -1                         #  (THE INDEX MAKES THIS A TCF.)
000231:
000232:    6210           00002                           OCT      2                                     #  REVERSE PUSHUP DECREMENT. VECTOR TAKES 2
000233:    6211           00006        REVCNT             OCT      6                                     #  WORDS, SCALAR TAKES 6.
000234:    6212           00006                           OCT      6
000235:    6213           00002        NO.WDS             OCT      2                                     #  CONVENTIONAL DECREMENT IS 6 WORDS VECTOR
000236:    6214           00003        OCTAL3             OCT      3                                     #  2 IN DP, AND 3 IN TP.
000237:    6215           00006                           OCT      6
000238:


000240:                                                                                                  #  TEST THE SECOND PREFIX BIT TO SEE IF THIS IS A MISCELLANEOUS OR A UNARY/SHORT SHIFT OPERATION.
000241:
000242:    6216           10020        OPJUMP2            CCS      CYR                                   #  TEST SECOND PREFIX BIT.
000243:    6217           16232                           TCF      OPJUMP3                               #  TEST THIRD BIT TO SEE IF UNARY OR SHIFT.
000244:
000245:    6220           77722        -ENDVAC            DEC      -45        B-14
000246:
000247:                                                                                                  #  THE FOLLOWING ROUTINE PROCESSES ADDRESSES OF SUFFIX CLASS 10. THEY ARE BASICALLY WORK AREA ADDRESSES
000248:                                                                                                  #  IN THE RANGE 0 - 52, ERASABLE ECADR CONSTANTS FROM 100 - 3777, AND FCADRS ABOVE THAT. ALL 15 BITS ARE AVAILABLE
000249:                                                                                                  #  IN CONTRAST TO SUFFIX 1, IN WHICH ONLY THE LOW ORDER 14 ARE AVAILABLE.
000250:
000251:    6221           24164        15BITADR           INCR     LOC                                   #  (ENTRY HERE FROM STCALL).
000252:    6222           50164                           INDEX    LOC                                   #  PICK UP ADDRESS WORD.
000253:    6223           30000                           CA       0
000254:    6224           54117                           TS       POLISH                                #  WE MAY NEED A SUBADDRESS LATER.
000255:
000256:    6225           35042                           CAF      LOW7+2K                               #  THESE INSTRUCTIONS ARE IN BANK 1.
000257:    6226           54004                           TS       FBANK
000258:    6227           70020                           MASK     CYR
000259:    6230           50000        ITR7               INDEX    A
000260:    6231           16303                           TCF      MISCJUMP
000261:


000263:                                                                                                  #  COMPLETE THE DISPATCHING OF UNARY AND SHORT SHIFT OPERATIONS.
000264:
000265:    6232           54004        OPJUMP3            TS       FBANK                                 #  CALL IN BANK 0 (BITS 11-15 OF A ARE 0.)
000266:
000267:    6233           10020                           CCS      CYR                                   #  TEST THIRD PREFIX BIT.
000268:    6234           50000                           INDEX    A                                     #  THE DECREMENTED UNARY CODE IS IN BITS
000269:    6235           12000                           TCF      UNAJUMP                               #  1-4 OF A (ZERO, EXIT, HAS BEEN DETECTED)
000270:
000271:    6236           10163                           CCS      MODE                                  #  ITS A SHORT SHIFT CODE. SEE IF PRESENT
000272:    6237           12017                           TCF      SHORTT                                #  SCALAR OR VECTOR.
000273:    6240           12017                           TCF      SHORTT
000274:    6241           12121                           TCF      SHORTV                                #  CALLS THE APPROPRIATE ROUTINE.
000275:
000276:    6242     4344               FBANKMSK           EQUALS   BANKMASK
000277:    6242           00122        LVBUF              ADRES    VBUF
000278:


000280:                                                                                                  #  THE FOLLOWING IS THE JUMP TABLE FOR OP CODES WHICH MAY HAVE INDEXABLE ADDRESSES OR MAY PUSH UP.
000281:
000282:    6243           16454        INDJUMP            TCF      VLOAD                                 #  00 - LOAD MPAC WITH A VECTOR.
000283:    6244           17040                           TCF      TAD                                   #  01 - TRIPLE PRECISION ADD TO MPAC.
000284:    6245           17611                           TCF      SIGN                                  #  02 - COMPLEMENT MPAC (V OR SC) IF X NEG.
000285:    6246           17335                           TCF      VXSC                                  #  03 - VECTOR TIMES SCALAR.
000286:    6247           16652                           TCF      CGOTO                                 #  04 - COMPUTED GO TO.
000287:    6250           16437                           TCF      TLOAD                                 #  05 - LOAD MPAC WITH TRIPLE PRECISION.
000288:    6251           16021                           TCF      DLOAD                                 #  06 - LOAD MPAC WITH A DP SCALAR.
000289:    6252           17560                           TCF      V/SC                                  #  07 - VECTOR DIVIDED BY SCALAR.
000290:
000291:    6253           16450                           TCF      SLOAD                                 #  10 - LOAD MPAC IN SINGLE PRECISION.
000292:    6254           16567                           TCF      SSP                                   #  11 - SET SINGLE PRECISION INTO X.
000293:    6255           16472                           TCF      PDDL                                  #  12 - PUSH DOWN MPAC AND RE-LOAD IN DP.
000294:    6256           17270                           TCF      MXV                                   #  13 - MATRIX POST-MULTIPLIED BY VECTOR.
000295:    6257           16526                           TCF      PDVL                                  #  14 - PUSH DOWN AND VECTOR LOAD.
000296:    6260           16575                           TCF      CCALL                                 #  15 - COMPUTED CALL.
000297:    6261           17273                           TCF      VXM                                   #  16 - MATRIX PRE-MULTIPLIED BY VECTOR.
000298:    6262           17552                           TCF      TSLC                                  #  17 - NORMALIZE MPAC (SCALAR ONLY).
000299:
000300:    6263           17530                           TCF      DMPR                                  #  20 - DP MULTIPLY AND ROUND.
000301:    6264           17533                           TCF      DDV                                   #  21 - DP DIVIDE BY.
000302:    6265           17537                           TCF      BDDV                                  #  22 - DP DIVIDE INTO.
000303:    6266           17555                           TCF      GSHIFT                                #  23 - GENERAL SHIFT INSTRUCTION
000304:    6267           16720                           TCF      VAD                                   #  24 - VECTOR ADD.
000305:    6270           16716                           TCF      VSU                                   #  25 - VECTOR SUBTRACT.
000306:    6271           17005                           TCF      BVSU                                  #  26 - VECTOR SUBTRACT FROM.
000307:    6272           17265                           TCF      DOT                                   #  27 - VECTOR DOT PRODUCT.
000308:
000309:    6273           17414                           TCF      VXV                                   #  30 - VECTOR CROSS PRODUCT.
000310:    6274           17361                           TCF      VPROJ                                 #  31 - VECTOR PROJECTION.
000311:    6275           16754                           TCF      DSU                                   #  32 - DP SUBTRACT.
000312:    6276           17031                           TCF      BDSU                                  #  33 - DP SUBTRACT FROM.
000313:    6277           16744                           TCF      DAD                                   #  34 - DP ADD.
000314:    6300           16300                           TCF      +0                                    #  35 - AVAILABLE
000315:    6301           17526                           TCF      DMP1                                  #  36 - DP MULTIPLY.
000316:    6302           17547                           TCF      SETPD                                 #  37 - SET PUSH DOWN POINTER (DIRECT ONLY)
000317:
000318:                                                                                                  #  CODES 10 AND 14 MUST NOT PUSH UP. CODE 04 MAY BE USED FOR VECTOR DECLARE BEFORE PUSHUP IF DESIRED.
000319:


000321:                                                                                                  #  THE FOLLOWING JUMP TABLE APPLIES TO INDEX, BRANCH, AND MISCELLANEOUS INSTRUCTIONS.
000322:
000323:    6303           12341        MISCJUMP           TCF      AXT                                   #  00 - ADDRESS TO INDEX TRUE.
000324:    6304           12346                           TCF      AXC                                   #  01 - ADDRESS TO INDEX COMPLEMENTED.
000325:    6305           12351                           TCF      LXA                                   #  02 - LOAD INDEX FROM ERASABLE.
000326:    6306           12355                           TCF      LXC                                   #  03 - LOAD INDEX FROM COMPLEMENT OF ERAS.
000327:    6307           12361                           TCF      SXA                                   #  04 - STORE INDEX IN ERASABLE.
000328:    6310           12367                           TCF      XCHX                                  #  05 - EXCHANGE INDEX WITH ERASABLE.
000329:    6311           12403                           TCF      INCR                                  #  06 - INCREMENT INDEX REGISTER.
000330:    6312           12412                           TCF      TIX                                   #  07 - TRANSFER ON INDEX.
000331:
000332:    6313           12375                           TCF      XAD                                   #  10 - INDEX REGISTER ADD FROM ERASABLE.
000333:    6314           12406                           TCF      XSU                                   #  11 - INDEX SUBTRACT FROM ERASABLE.
000334:    6315           12464                           TCF      BZE/GOTO                              #  12 - BRANCH ZERO AND GOTO
000335:    6316           12471                           TCF      BPL/BMN                               #  13 - BRANCH PLUS AND BRANCH MINUS.
000336:    6317           12444                           TCF      RTB/BHIZ                              #  14 - RETURN TO BASIC AND BRANCH HI ZERO.
000337:    6320           12504                           TCF      CALL/ITA                              #  15 - CALL AND STORE QPRET.
000338:    6321           12513                           TCF      SW/                                   #  16 - SWITCH INSTRUCTIONS AND AVAILABLE.
000339:    6322           12454                           TCF      BOV(B)                                #  17 - BRANCH ON OVERFLOW TO BASIC OR INT.
000340:


000342:                                                                                                  #  THE FOLLOWING JUMP TABLE APPLIES TO UNARY INSTRUCTIONS
000343:
000344: 00,2000                                           SETLOC   INTERB0
000345: 00,2000                                           BANK
000346:
000347: 00,2000                                           COUNT*   $$/INTER
000348: 00,2000           13206        UNAJUMP            TCF      SQRT                                  #  01 - SQUARE ROOT.
000349: 00,2001           13525                           TCF      SINE                                  #  02 - SIN.
000350: 00,2002           13514                           TCF      COSINE                                #  03 - COS.
000351: 00,2003           13605                           TCF      ARCSIN                                #  04 - ARC SIN.
000352: 00,2004           13607                           TCF      ARCCOS                                #  05 - ARC COS.
000353: 00,2005           13173                           TCF      DSQ                                   #  06 - DP SQUARE.
000354: 00,2006           12116                           TCF      ROUND                                 #  07 - ROUND TO DP.
000355:
000356: 00,2007           17624                           TCF      COMP                                  #  10 - COMPLEMENT VECTOR OR SCALAR
000357: 00,2010           13231                           TCF      VDEF                                  #  11 - VECTOR DEFINE.
000358: 00,2011           13022                           TCF      UNIT                                  #  12 - UNIT VECTOR.
000359: 00,2012           13175                           TCF      ABVALABS                              #  13 - LENGTH OF VECTOR OR MAG OF SCALAR.
000360: 00,2013           13244                           TCF      VSQ                                   #  14 - SQUARE OF LENGTH OF VECTOR.
000361: 00,2014           16323                           TCF      STADR                                 #  15 - PUSH UP ON STORE CODE.
000362: 00,2015           13273                           TCF      RVQ                                   #  16 - RETURN VIA QPRET.
000363: 00,2016           13246                           TCF      PUSH                                  #  17 - PUSH MPAC DOWN.
000364:


000366:                                                                                                  #  SECTION 2     LOAD AND STORE PACKAGE.
000367:
000368:                                                                                                  #  A SET OF EIGHT STORE CODES IS PROVIDED AS THE PRIMARY METHOD OF STORING THE MULTI-PURPOSE
000369:                                                                                                  #  ACCUMULATOR (MPAC). IF IN THE DANZIG SECTION LOC REFERS TO AN ALGEBRAICALLY POSITIVE WORD, IT IS TAKEN AS A
000370:                                                                                                  #  STORE CODE WITH A CORRESPONDING ERASABLE ADDRESS. MOST OF THESE CODES ARE TWO ADDRESS, SPECIFYING THAT THE WORD
000371:                                                                                                  #  FOLLOWING THE STORE CODE IS TO BE USED AS AN ADDRESS FROM WHICH TO RE-LOAD MPAC. FOUR OPTIONS ARE AVAILABLE:
000372:
000373:                                                                                                  #        1. STORE        STORE MPAC. THE E ADDRESS MAY BE INDEXED.
000374:                                                                                                  #        2. STODL        STORE MPAC AND RE-LOAD IT IN DP WITH THE NEXT ADDRESS (THE LOAD MAY BE INDEXED).
000375:                                                                                                  #        3. STOVL        STORE MPAC AND RE-LOAD A VECTOR (AS ABOVE).
000376:                                                                                                  #        4. STCALL       STORE AND DO A CALL (BOTH ADDRESSES MUST BE DIRECT HERE).
000377:
000378:                                                                                                  #  STODL AND STOVL WILL TAKE FROM THE PUSH-DOWN LIST IF NO LOAD ADDRESS IS GIVEN.
000379:
000380:    6000                                           SETLOC   INTERF3
000381:    6000                                           BANK
000382:
000383:    6323                                           COUNT*   $$/INTER
000384:    6323           30165        STADR              CA       BANKSET                               #  THE STADR CODE (PUSHUP UP ON STORE
000385:    6324           54004                           TS       FBANK                                 #  ADDRESS) ENTERS HERE.
000386:    6325           24164                           INCR     LOC
000387:    6326           50164        ITR1               INDEX    LOC                                   #  THE STORECODE WAS STORED COMPLEMENTED TO
000388:    6327           40000                           CS       0                                     #  MAKE IT LOOK LIKE AN OPCODE PAIR.
000389:    6330           67702                           AD       NEGONE                                #  (YUL CAN'T REMOVE 1 BECAUSE OF EARLY CCS)
000390:
000391:    6331           54116        DOSTORE            TS       ADDRWD
000392:    6332           74347                           MASK     LOW11                                 #  ENTRY FROM DISPATCHER. SAVE THE ERASABLE
000393:    6333           56116                           XCH      ADDRWD                                #  ADDRESS AND JUMP ON THE STORE CODE NO.
000394:    6334           77656                           MASK     B12T14
000395:    6335           00006                           EXTEND
000396:    6336           74764                           MP       BIT5                                  #  EACH TRANSFER VECTOR ENTRY IS TWO WORDS.
000397:    6337           50000        ITR0               INDEX    A
000398:    6340           16341                           TCF      STORJUMP
000399:


000401:                                                                                                  #  STORE CODE JUMP TABLE. CALLS THE APPROPRIATE STORING ROUTINE AND EXITS TO DANZIG OR TO ADDRESS WITH
000402:                                                                                                  #  A SUPPLIED OPERATION CODE.
000403:
000404:                                                                                                  #  STORE STORE,1 AND STORE,2 RETURN TO DANZIG, THUS RESETTING THE EBANK TO ITS STATE AT INTPRET.
000405:
000406:    6341           06371        STORJUMP           TC       STORE                                 #  STORE.
000407:    6342           16030                           TCF      DANZIG                                #  PICK UP NEW OP CODE(S).
000408:    6343           06363                           TC       STORE,1
000409:    6344           16030                           TCF      DANZIG
000410:    6345           06366                           TC       STORE,2
000411:    6346           16030                           TCF      DANZIG
000412:
000413:    6347           06371                           TC       STORE                                 #  STODL.
000414:    6350           16427                           TCF      DODLOAD
000415:
000416:    6351           06371                           TC       STORE                                 #  STODL WITH INDEXED LOAD ADDRESS.
000417:    6352           16113                           TCF      DODLOAD*
000418:
000419:    6353           06371                           TC       STORE                                 #  STOVL.
000420:    6354           16432                           TCF      DOVLOAD
000421:
000422:    6355           06371                           TC       STORE                                 #  STOVL WITH INDEXED LOAD ADDRESS.
000423:    6356           16435                           TCF      DOVLOAD*
000424:    6357           06371                           TC       STORE                                 #  STOTC.
000425:    6360           35002                           CAF      CALLCODE
000426:    6361           54020                           TS       CYR
000427:    6362           16221                           TCF      15BITADR                              #  GET A 15 BIT ADDRESS.
000428:


000430:                                                                                                  #  STORE CODE ADDRESS PROCESSOR.
000431:
000432:    6363           50120        STORE,1            INDEX    FIXLOC
000433:    6364           40046                           CS       X1
000434:    6365           16370                           TCF      PRESTORE
000435:
000436:    6366           50120        STORE,2            INDEX    FIXLOC
000437:    6367           40047                           CS       X2
000438:    6370           26116        PRESTORE           ADS      ADDRWD                                #  RESULTANT ADDRESS IS IN ERASABLE.
000439:
000440:    6371           40116        STORE              CS       ADDRWD
000441:    6372           65006                           AD       DEC45
000442:    6373           10000                           CCS      A                                     #  DOES THE ADDRESS POINT TO THE WORK AREA?
000443:    6374           30120                           CA       FIXLOC                                #  YES.
000444:    6375           16402                           TCF      AHEAD5
000445:    6376           35024                           CA       OCT1400                               #  NO.  SET EBANK & MAKE UP SUBADDRESS.
000446:    6377           56116                           XCH      ADDRWD
000447:    6400           54003                           TS       EBANK
000448:    6401           74350                           MASK     LOW8
000449:    6402           26116        AHEAD5             ADS      ADDRWD
000450:


000452:                                                                                                  #  STORING ROUTINES. STORE DP, TP, OR VECTOR AS INDICATED BY MODE.
000453:
000454:    6403           00006        STARTSTO           EXTEND                                         #  MPAC,+1 MUST BE STORED IN ANY EVENT.
000455:                                                                                                  #  ITRACE (5) REFERS TO "STARTSTO".
000456:    6404           30155                           DCA      MPAC
000457:    6405           50116                           INDEX    ADDRWD
000458:    6406           52001                           DXCH     0
000459:
000460:    6407           10163                           CCS      MODE
000461:    6410           16423                           TCF      TSTORE
000462:    6411           00002                           TC       Q
000463:
000464:    6412           00006        VSTORE             EXTEND
000465:    6413           30160                           DCA      MPAC       +3
000466:    6414           50116                           INDEX    ADDRWD
000467:    6415           52003                           DXCH     2
000468:
000469:    6416           00006                           EXTEND
000470:    6417           30162                           DCA      MPAC       +5
000471:    6420           50116                           INDEX    ADDRWD
000472:    6421           52005                           DXCH     4
000473:    6422           00002                           TC       Q
000474:
000475:    6423           30156        TSTORE             CA       MPAC       +2
000476:    6424           50116                           INDEX    ADDRWD
000477:    6425           54002                           TS       2
000478:    6426           00002                           TC       Q
000479:


000481:                                                                                                  #  ROUTINES TO BEGIN PROCESSING OF THE SECOND ADDRESS ASSOCIATED WITH ALL STORE-TYPE CODES EXCEPT STORE
000482:                                                                                                  #  ITSELF.
000483:
000484:    6427           37665        DODLOAD            CAF      DLOADCOD
000485:    6430           54020                           TS       CYR
000486:    6431           16055                           TCF      DIRADRES                              #  GO GET A DIRECT ADDRESS.
000487:
000488:    6432           34752        DOVLOAD            CAF      VLOADCOD
000489:    6433           54020                           TS       CYR
000490:    6434           16055                           TCF      DIRADRES
000491:
000492:    6435           36056        DOVLOAD*           CAF      VLOAD*
000493:    6436           16114                           TCF      DODLOAD*   +1                         #  PROLOGUE TO INDEX ROUTINE.
000494:


000496:                                                                                                  #  THE FOLLOWING LOAD INSTRUCTIONS ARE PROVIDED FOR LOADING THE MULTI-PURPOSE ACCUMULATOR MPAC.
000497:
000498:    6437           50116        TLOAD              INDEX    ADDRWD
000499:    6440           30002                           CA       2                                     #  LOAD A TRIPLE PRECISION ARGUMENT INTO
000500:    6441           54156                           TS       MPAC       +2                         #  THE FIRST THREE MPAC REGISTERS, WITH THE
000501:    6442           00006                           EXTEND                                         #  CONTENTS OF THE OTHER FOUR IRRELEVANT.
000502:    6443           50116                           INDEX    ADDRWD
000503:    6444           30001                           DCA      0
000504:    6445           52155                           DXCH     MPAC
000505:    6446           34770        TMODE              CAF      ONE
000506:    6447           16027                           TCF      NEWMODE                               #  DECLEARE TRIPLE PRECISION MODE.
000507:
000508:    6450           22007        SLOAD              ZL                                             #  LOAD A SINGLE PRECISION NUMBER INTO
000509:    6451           50116                           INDEX    ADDRWD                                #  MPAC, SETTING MPAC+1,2 TO ZERO. THE
000510:    6452           30000                           CA       0                                     #  CONTENTS OF THE REMAINING MPAC REGISTERS
000511:    6453           16024                           TCF      SLOAD2                                #  ARE IRRELEVANT.
000512:
000513:    6454           00006        VLOAD              EXTEND                                         #  LOAD A DOUBLE PRECISION VECTOR INTO
000514:    6455           50116                           INDEX    ADDRWD                                #  MPAC,+1, MPAC+3,4, AND MPAC+5,6. THE
000515:    6456           30001                           DCA      0                                     #  CONTENTS OF MPAC +2 ARE IRRELEVANT.
000516:    6457           52155                           DXCH     MPAC
000517:
000518:    6460           00006        ENDVLOAD           EXTEND                                         #  PDVL COMES HERE TO FINISH UP FOR DP, TP.
000519:    6461           50116                           INDEX    ADDRWD
000520:    6462           30003                           DCA      2
000521:    6463           52160                           DXCH     MPAC       +3
000522:
000523:    6464           00006                 +4        EXTEND                                         #  TPDVL FINISHES HERE.
000524:    6465           50116                           INDEX    ADDRWD
000525:    6466           30005                           DCA      4
000526:    6467           52162                           DXCH     MPAC       +5
000527:
000528:    6470           44770        VMODE              CS       ONE                                   #  DECLARE VECTOR MODE.
000529:    6471           16027                           TCF      NEWMODE
000530:


000532:                                                                                                  #  THE FOLLOWING INSTRUCTIONS ARE PROVIDED FOR STORING OPERANDS IN THE PUSHDOWN LIST:
000533:                                                                                                  #        1.      PUSH            PUSHDOWN AND NO LOAD.
000534:                                                                                                  #        2.      PDDL            PUSHDOWN AND DOUBLE PRECISION LOAD.
000535:                                                                                                  #        3.      PDVL            PUSHDOWN AND VECTOR LOAD.
000536:
000537:    6472           00006        PDDL               EXTEND
000538:    6473           50116                           INDEX    ADDRWD                                #  LOAD MPAC,+1, PUSHING THE FORMER
000539:    6474           30001                           DCA      0                                     #  CONTENTS DOWN.
000540:    6475           52155                           DXCH     MPAC
000541:    6476           50166                           INDEX    PUSHLOC
000542:    6477           52001                           DXCH     0
000543:
000544:    6500           50163                           INDEX    MODE                                  #  ADVANCE THE PUSHDOWN POINTER APPRO-
000545:    6501           36213                           CAF      NO.WDS                                #  PRIATELY.
000546:    6502           26166                           ADS      PUSHLOC
000547:
000548:    6503           10163                           CCS      MODE
000549:    6504           16521                           TCF      ENDTPUSH
000550:    6505           16517                           TCF      ENDDPUSH
000551:
000552:    6506           54163                           TS       MODE                                  #  NOW DP.
000553:    6507           54156        ENDVPUSH           TS       MPAC       +2
000554:    6510           52160                           DXCH     MPAC       +3                         #  PUSH DOWN THE REST OF THE VECTOR HERE.
000555:    6511           50166                           INDEX    PUSHLOC
000556:    6512           51775                           DXCH     0          -4
000557:
000558:    6513           52162                           DXCH     MPAC       +5
000559:    6514           50166                           INDEX    PUSHLOC
000560:    6515           51777                           DXCH     0          -2
000561:
000562:    6516           16030                           TCF      DANZIG
000563:
000564:    6517           54156        ENDDPUSH           TS       MPAC       +2                         #  SET MPAC +2 TO ZERO AND EXIT ON DP.
000565:    6520           16030                           TCF      DANZIG
000566:
000567:    6521           54163        ENDTPUSH           TS       MODE
000568:    6522           56156                           XCH      MPAC       +2                         #  ON TRIPLE, SET MPAC +2 TO ZERO, PUSHING
000569:    6523           50166                 +2        INDEX    PUSHLOC                               #  DOWN THE OLD CONTENTS
000570:    6524           53777                           TS       0          -1
000571:    6525           16030                           TCF      DANZIG
000572:


000574:                                                                                                  #  PDVL - PUSHDOWN AND VECTOR LOAD
000575:
000576:    6526           00006        PDVL               EXTEND                                         #  RELOAD MPAC AND PUSH DOWN ITS CONTENTS.
000577:    6527           50116                           INDEX    ADDRWD
000578:    6530           30001                           DCA      0
000579:    6531           52155                           DXCH     MPAC
000580:    6532           50166                           INDEX    PUSHLOC
000581:    6533           52001                           DXCH     0
000582:
000583:    6534           50163                           INDEX    MODE                                  #  ADVANCE THE PUSHDOWN POINTER.
000584:    6535           36213                           CAF      NO.WDS
000585:    6536           26166                           ADS      PUSHLOC
000586:
000587:    6537           10163                           CCS      MODE                                  #  TEST PAST MODE.
000588:    6540           16557                           TCF      TPDVL
000589:    6541           16460                           TCF      ENDVLOAD                              #  JUST LOAD LAST FOUR REGISTERS ON DP.
000590:
000591:    6542           00006        VPDVL              EXTEND                                         #  PUSHDOWN AND RE-LOAD LAST TWO COMPONENTS
000592:    6543           50116                           INDEX    ADDRWD
000593:    6544           30003                           DCA      2
000594:    6545           52160                           DXCH     MPAC       +3
000595:    6546           50166                           INDEX    PUSHLOC
000596:    6547           51775                           DXCH     0          -4
000597:
000598:    6550           00006                           EXTEND
000599:    6551           50116                           INDEX    ADDRWD
000600:    6552           30005                           DCA      4
000601:    6553           52162                           DXCH     MPAC       +5
000602:    6554           50166                           INDEX    PUSHLOC
000603:    6555           51777                           DXCH     0          -2
000604:
000605:    6556           16030                           TCF      DANZIG
000606:
000607:    6557           00006        TPDVL              EXTEND                                         #  ON TP, WE MUST LOAD THE Y COMPONENT
000608:    6560           50116                           INDEX    ADDRWD                                #  BEFORE STORING MPAC +2 IN CASE THIS IS A
000609:    6561           30003                           DCA      2                                     #  PUSHUP.
000610:    6562           52160                           DXCH     MPAC       +3
000611:
000612:    6563           30156                           CA       MPAC       +2
000613:    6564           50166                           INDEX    PUSHLOC                               #  IN DP.
000614:    6565           53777                           TS       0          -1
000615:    6566           16464                           TCF      ENDVLOAD   +4
000616:
000617:                                                                                                  #  SSP (STORE SINGLE PRECISION) IS EXECUTED HERE.
000618:
000619:    6567           24164        SSP                INCR     LOC                                   #  PICK UP THE WORD FOLLOWING THE GIVEN
000620:    6570           50164                           INDEX    LOC                                   #  ADDRESS AND STORE IT AT X.
000621:    6571           30000                           CA       0
000622:    6572           50116        STORE1             INDEX    ADDRWD                                #  SOME INDEX AND MISCELLANEOUS OPS END
000623:    6573           54000                           TS       0                                     #  HERE.


000625:    6574           16030                           TCF      DANZIG
000626:


000628:                                                                                                  #  SEQUENCE CHANGING AND SUBROUTINE CALLING OPTIONS.
000629:
000630:                                                                                                  #  THE FOLLOWING OPERATIONS ARE AVAILABLE FOR SEQUENCING CHANGING, BRANCHING, AND CALLING SUBROUTINES:
000631:
000632:                                                                                                  #        1.      GOTO            GO TO.
000633:                                                                                                  #        2.      CALL            CALL SUBROUTINE SETTING QPRET.
000634:                                                                                                  #        3.      CGOTO           COMPUTED GO TO.
000635:                                                                                                  #        4.      CCALL           COMPUTED CALL.
000636:                                                                                                  #        7.      BPL             BRANCH IF MPAC POSITIVE OR ZERO.
000637:                                                                                                  #        8.      BZE             BRANCH IF MPAC ZERO.
000638:                                                                                                  #        9.      BMN             BRANCH IF MPAC NEGATIVE NON-ZERO.
000639:
000640:    6575           24164        CCALL              INCR     LOC                                   #  MAINTAIN LOC FOR QPRET COMPUTATION.
000641:    6576           50164                           INDEX    LOC
000642:    6577           30000                           CAF      0                                     #  GET BASE ADDRESS OF CADR LIST.
000643:    6600           50116                           INDEX    ADDRWD
000644:    6601           60000                           AD       0                                     #  ADD INCREMENT.
000645:    6602           54004                           TS       FBANK                                 #  SELECT DESIRED CADR.
000646:    6603           75041                           MASK     LOW10
000647:    6604           50000                           INDEX    A
000648:    6605           32000                           CAF      10000
000649:    6606           54117                           TS       POLISH
000650:
000651:    6607           30165        CALL               CA       BANKSET                               #  FOR ANY OF THE CALL OPTIONS, MAKE UP THE
000652:    6610           74344                           MASK     BANKMASK                              #  ADDRESS OF THE NEXT OP-CODE PAIR/STORE
000653:    6611           64344                           AD       BANKMASK                              #  CODE AND LEAVE IT IN QPRET.  NOTE THAT
000654:    6612           60164                           AD       LOC                                   #  BANKMASK = -(2000 - 1).
000655:    6613           50120                           INDEX    FIXLOC
000656:    6614           54052                           TS       QPRET
000657:
000658:    6615           30117        GOTO               CA       POLISH                                #  BASIC BRANCHING SEQUENCE.
000659:    6616           77675                 +1        MASK     HIGH4
000660:    6617           00006                           EXTEND
000661:    6620           16631                           BZF      GOTOERS                               #  SEE IF ADDRESS POINTS TO FIXED OR ERAS.
000662:    6621           30165                 +4        CA       BANKSET                               #  SET EBANK PART OF BBANK. NEXT, SET UP
000663:    6622           54006                           TS       BBANK                                 #  FBANK. THE COMBINATION IS PICKED UP &
000664:    6623           30117                           CA       POLISH                                #  PUT INTO BANKSET AT INTPRET +2.
000665:    6624           54004                           TS       FBANK
000666:    6625           75041                           MASK     LOW10
000667:    6626           64756                           AD       2K
000668:    6627           54164                           TS       LOC
000669:    6630           16011                           TCF      INTPRET    +3
000670:
000671:    6631  E3,1400                                  EBANK=   1400                                  #  SO YUL DOESN'T CUSS THE "CA 1400" BELOW.
000672:
000673:    6631           30117        GOTOERS            CA       POLISH                                #  THE GIVEN ADDRESS IS IN ERASABLE - SEE
000674:    6632           66220                           AD       -ENDVAC                               #  IF RELATIVE TO THE WORK AREA.
000675:    6633           10000                           CCS      A
000676:    6634           30117                           CA       POLISH                                #  GENERAL ERASABLE.
000677:    6635           16644                           TCF      GOTOGE


000679:    6636           30120                           CA       FIXLOC                                #  WORK AREA.
000680:    6637           60117                           AD       POLISH
000681:    6640           50000                           INDEX    A                                     #  USE THE GIVEN ADDRESS AS THE ADDRESS OF
000682:    6641           30000                           CA       0                                     #  THE BRANCH ADDRESS.
000683:    6642           54117                           TS       POLISH
000684:    6643           16616                           TCF      GOTO       +1                         #  ALLOWS ARBITRARY INDIRECTNESS LEVELS.
000685:
000686:    6644           54003        GOTOGE             TS       EBANK
000687:    6645           74350                           MASK     LOW8
000688:    6646           50000                           INDEX    A                                     #  USE THE GIVEN ADDRESS AS THE ADDRESS OF
000689:    6647           31400                           CA       1400                                  #  THE BRANCH ADDRESS.
000690:    6650           54117                           TS       POLISH
000691:    6651           16616                           TCF      GOTO       +1
000692:
000693:    6652           50164        CGOTO              INDEX    LOC                                   #  COMPUTED GO TO. PICK UP ADDRESS OF CADR
000694:    6653           30001                           CA       1                                     #  LIST.
000695:    6654           50116                           INDEX    ADDRWD                                #  ADD MODIFIER.
000696:    6655           60000                           AD       0
000697:    6656           54004                           TS       FBANK                                 #  SELECT GOTO ADDRESS.
000698:    6657           75041                           MASK     LOW10
000699:    6660           50000                           INDEX    A
000700:    6661           32000                           CA       10000
000701:    6662           54117                           TS       POLISH
000702:    6663           16616                           TCF      GOTO       +1                         #  WITH ADDRESS IN A.
000703:
000704:    6664           30165        SWBRANCH           CA       BANKSET                               #  SWITCH INSTRUCTIONS WHICH ELECT TO
000705:    6665           54004                           TS       FBANK                                 #  BRANCH COME HERE TO DO SO.
000706:    6666           50164                           INDEX    LOC
000707:    6667           30001                           CA       1
000708:    6670           54117                           TS       POLISH
000709:    6671           16616                           TCF      GOTO       +1
000710:


000712:                                                                                                  #  TRIPLE PRECISION BRANCHING ROUTINE. IF CALLING TC IS AT L, RETURN IS AS FOLLOWS:
000713:
000714:                                                                                                  #        L+1     IF MPAC IS GREATER THAN ZERO.
000715:                                                                                                  #        L+2     IF MPAC IS EQUAL TO +0 OR -0.
000716:                                                                                                  #        L+3     IF MPAC IS LESS THAN ZERO.
000717:
000718:    6672           10154        BRANCH             CCS      MPAC
000719:    6673           00002                           TC       Q
000720:    6674           16676                           TCF      +2                                    #  ON ZERO.
000721:    6675           16710                           TCF      NEG
000722:
000723:    6676           10155                           CCS      MPAC       +1
000724:    6677           00002                           TC       Q
000725:    6700           16702                           TCF      +2
000726:    6701           16710                           TCF      NEG
000727:
000728:    6702           10156                           CCS      MPAC       +2
000729:    6703           00002                           TC       Q
000730:    6704           16706                           TCF      +2
000731:    6705           16710                           TCF      NEG
000732:
000733:    6706           50002        Q+1                INDEX    Q
000734:    6707           00001                           TC       1
000735:
000736:    6710           50002        NEG                INDEX    Q                                     #  IF FIRST NON-ZERO REGISTER WAS NEGATIVE.
000737:    6711           00002        TCQ                TC       2
000738:
000739:    6712     6710               Q+2                =        NEG
000740:
000741:                                                                                                  #  ITRACE (3) REFERS TO "EXIT".
000742:
000743:    6712           30165        EXIT               CA       BANKSET                               #  RESTORE USER'S BANK SETTING, AND LEAVE
000744:    6713           54006                           TS       BBANK                                 #  INTERPRETIVE MODE.
000745:    6714           50164                           INDEX    LOC
000746:    6715           00001                           TC       1
000747:


000749:                                                                                                  #  SECTION 3 - ADD/SUBTRACT PACKAGE.
000750:
000751:                                                                                                  #  THE FOLLOWING OPERATIONS ARE PROVIDED FOR ADDING TO AND SUBTRACTING FROM THE MULTI-PURPOSE ACCUMULATOR
000752:                                                                                                  #  MPAC:
000753:
000754:                                                                                                  #        1.      DAD             DOUBLE PRECISION ADD.
000755:                                                                                                  #        2.      DSU             DOUBLE PRECISION SUBTRACT.
000756:                                                                                                  #        3.      BDSU            DOUBLE PRECISION SUBTRACT FROM.
000757:
000758:                                                                                                  #        4.      TAD             TRIPLE PRECISION ADD.
000759:
000760:                                                                                                  #        5.      VAD             VECTOR ADD.
000761:                                                                                                  #        6.      VSU             VECTOR SUBTRACT.
000762:                                                                                                  #        7.      BVSU            VECTOR SUBTRACT FROM.
000763:
000764:                                                                                                  #  THE INTERPRETIVE OVERFLOW INDICATOR OVFIND IS SET NON-ZERO IF OVERFLOW OCCURS IN ANY OF THE ABOVE.
000765:
000766:    6716           34752        VSU                CAF      BIT15                                 #  CHANGES 0 TO DCS.
000767:    6717           16721                           TCF      +2
000768:
000769:    6720           34346        VAD                CAF      PRIO30                                #  CHANGES 0 TO DCA.
000770:    6721           26116                           ADS      ADDRWD
000771:    6722           00006                           EXTEND
000772:    6723           50116                           INDEX    ADDRWD
000773:    6724           00003                           READ     HISCALAR                              #  DCA  2   OR   DCS  2
000774:    6725           20160                           DAS      MPAC       +3
000775:    6726           00006                           EXTEND                                         #  CHECK OVERFLOW.
000776:    6727           16731                           BZF      +2
000777:    6730           06763                           TC       OVERFLWY
000778:
000779:    6731           00006                           EXTEND
000780:    6732           50116                           INDEX    ADDRWD
000781:    6733           00005                           READ     CHAN5                                 #  DCA  4   OR   DCS  4
000782:    6734           20162                           DAS      MPAC       +5
000783:    6735           00006                           EXTEND
000784:    6736           16740                           BZF      +2
000785:    6737           06760                           TC       OVERFLWZ
000786:
000787:    6740           00006                           EXTEND
000788:    6741           50116                           INDEX    ADDRWD
000789:    6742           00001                           READ     LCHAN                                 #  DCA  0   OR   DCS  0
000790:    6743           16747                           TCF      ENDVXV
000791:
000792:    6744           00006        DAD                EXTEND
000793:    6745           50116                           INDEX    ADDRWD
000794:    6746           30001                           DCA      0
000795:    6747           20155        ENDVXV             DAS      MPAC                                  #  VXV FINISHES HERE.
000796:    6750           00006                           EXTEND
000797:    6751           16030                           BZF      DANZIG
000798:


000800:    6752           06766        SETOVF             TC       OVERFLOW
000801:    6753           16030                           TCF      DANZIG
000802:


000804:    6754           00006        DSU                EXTEND
000805:    6755           50116                           INDEX    ADDRWD
000806:    6756           40001                           DCS      0
000807:    6757           16747                           TCF      ENDVXV
000808:
000809:    6760           54001        OVERFLWZ           TS       L                                     #  ENTRY FOR THIRD COMPONENT.
000810:    6761           34773                           CAF      FIVE
000811:    6762           16765                           TCF      +3
000812:
000813:    6763           54001        OVERFLWY           TS       L                                     #  ENTRY FOR SECOND COMPONENT.
000814:    6764           36214                           CAF      THREE
000815:    6765           56001                           XCH      L
000816:
000817:    6766           50000        OVERFLOW           INDEX    A                                     #  ENTRY FOR 1ST COMP OR DP (L=0).
000818:    6767           44751                           CS       LIMITS                                #  PICK UP POSMAX OR NEGMAX.
000819:    6770           54130                           TS       BUF
000820:    6771           00006                           EXTEND
000821:    6772           24000                           AUG      A
000822:    6773           50001                           INDEX    L
000823:    6774           26155                           ADS      MPAC       +1
000824:    6775           54007                           TS       7
000825:    6776           34772                           CAF      ZERO
000826:    6777           60130                           AD       BUF
000827:    7000           50001                           INDEX    L
000828:    7001           26154                           ADS      MPAC
000829:    7002           54007                           TS       7
000830:    7003           00002                           TC       Q                                     #  NO OVERFLOW EXIT.
000831:    7004           17121                           TCF      SETOVF2                               #  SET OVFIND AND EXIT.
000832:
000833:    7005           00006        BVSU               EXTEND
000834:    7006           50116                           INDEX    ADDRWD
000835:    7007           30003                           DCA      2
000836:    7010           52160                           DXCH     MPAC       +3
000837:    7011           00006                           EXTEND
000838:    7012           40001                           DCOM
000839:    7013           20160                           DAS      MPAC       +3
000840:    7014           00006                           EXTEND
000841:    7015           17017                           BZF      +2
000842:    7016           06763                           TC       OVERFLWY
000843:
000844:    7017           00006                           EXTEND
000845:    7020           50116                           INDEX    ADDRWD
000846:    7021           30005                           DCA      4
000847:    7022           52162                           DXCH     MPAC       +5
000848:    7023           00006                           EXTEND
000849:    7024           40001                           DCOM
000850:    7025           20162                           DAS      MPAC       +5
000851:    7026           00006                           EXTEND
000852:    7027           17031                           BZF      +2
000853:    7030           06760                           TC       OVERFLWZ
000854:


000856:    7031           00006        BDSU               EXTEND
000857:    7032           50116                           INDEX    ADDRWD
000858:    7033           30001                           DCA      0
000859:    7034           52155                           DXCH     MPAC
000860:    7035           00006                           EXTEND
000861:    7036           40001                           DCOM
000862:    7037           16747                           TCF      ENDVXV
000863:


000865:                                                                                                  #  TRIPLE PRECISION ADD ROUTINE.
000866:
000867:    7040           00006        TAD                EXTEND
000868:    7041           50116                           INDEX    ADDRWD
000869:    7042           30002                           DCA      1                                     #  ADD MINOR PARTS FIRST.
000870:    7043           20156                           DAS      MPAC       +1
000871:    7044           50116                           INDEX    ADDRWD
000872:    7045           60000                           AD       0
000873:    7046           60154                           AD       MPAC
000874:    7047           54154                           TS       MPAC
000875:    7050           16030                           TCF      DANZIG
000876:
000877:    7051           16752                           TCF      SETOVF                                #  SET OVFIND IF SUCH OCCURS.
000878:


000880:                                                                                                  #  ARITHMETIC SUBROUTINES REQUIRED IN FIXED-FIXED.
000881:
000882:                                                                                                  #        1.  DMPSUB      DOUBLE PRECISION MULTIPLY, MULTIPLY THE CONTENTS OF MPAC,+1 BY THE DP WORD WHOSE ADDRESS
000883:                                                                                                  #                        IS IN ADDRWD AND LEAVE A TRIPLE-PRECISION RESULT IN MPAC.
000884:                                                                                                  #        2.  ROUNDSUB    ROUND THE TRIPLE PRECISION CONTENTS OF MPAC TO DOUBLE PRECISION.
000885:                                                                                                  #        3.  DOTSUB      TAKE THE DOT PRODUCT OF THE VECTOR IN MPAC AND THE VECTOR WHOSE ADDRESS IS IN ADDRWD
000886:                                                                                                  #                        AND LEAVE THE TRIPLE PRECISION RESULT IN MPAC.
000887:                                                                                                  #        4.  POLY        USING THE CONTENTS OF MPAC AS A DP ARGUMENT, EVALUATE THE POLYNOMIAL WHOSE DEGREE AND
000888:                                                                                                  #                        COEFFICIENTS IMMEDIATELY FOLLOW THE TC POLY INSTRUCTION (SEE ROUTINE FOR DETAILS).
000889:
000890:    7052           50002        DMP                INDEX    Q                                     #  BASIC SUBROUTINE FOR USE BY PINBALL, ETC
000891:    7053           30000                           CAF      0                                     #  ADRES OF ARGUMENT FOLLOWS  TC DMP  .
000892:    7054           24002                           INCR     Q
000893:    7055           54116                 -1        TS       ADDRWD                                #  (PROLOGUE FOR SETTING ADDRWD.)
000894:
000895:    7056           50116        DMPSUB             INDEX    ADDRWD                                #  GET MINOR PART OF OPERAND AT C(ADDRWD).
000896:    7057           30001                           CA       1
000897:    7060           54156                           TS       MPAC       +2                         #  THIS WORKS FOR SQUARING MPAC AS WELL.
000898:    7061           34772                           CAF      ZERO                                  #  SET MPAC +1 TO ZERO SO WE CAN ACCUMULATE
000899:    7062           56155                           XCH      MPAC       +1                         #  THE PARTIAL PRODUCTS WITH DAS
000900:    7063           54135                           TS       MPTEMP                                #  INSTRUCTIONS.
000901:    7064           00006                           EXTEND
000902:    7065           70156                           MP       MPAC       +2                         #  MINOR OF MPAC X MINOR OF C(ADDRWD).
000903:
000904:    7066           56156                           XCH      MPAC       +2                         #  DISCARD MINOR PART OF ABOVE RESULT AND
000905:    7067           00006                           EXTEND                                         #  FORM MAJOR OF MPAC X MINOR OF C(ADDRWD).
000906:    7070           70154                           MP       MPAC
000907:    7071           20156                           DAS      MPAC       +1                         #  GUARANTEED NO OVERFLOW.
000908:
000909:    7072           50116                           INDEX    ADDRWD                                #  GET MAJOR PART OF ARGUMENT AT C(ADDRWD).
000910:    7073           30000                           CA       0
000911:    7074           56135                           XCH      MPTEMP                                #  SAVE AND BRING OUT MINOR OF MPAC.
000912:    7075           00006        DMPSUB2            EXTEND
000913:    7076           70135                           MP       MPTEMP                                #  MAJOR OF C(ADDRWD) X MINOR OF MPAC.
000914:    7077           20156                           DAS      MPAC       +1                         #  ACCUMULATE, SETTING A TO NET OVERFLOW.
000915:
000916:    7100           56154                           XCH      MPAC                                  #  SETTING MPAC TO 0 OR +-1.
000917:    7101           00006                           EXTEND
000918:    7102           70135                           MP       MPTEMP                                #  MAJOR OF MPAC X MAJOR OF C(ADDRWD).
000919:    7103           20155                           DAS      MPAC                                  #  GUARANTEED NO OVERFLOW.
000920:    7104           00002                           TC       Q                                     #  49 MCT = .573 MS. INCLUDING RETURN.
000921:


000923:                                                                                                  #  ROUND MPAC TO DOUBLE PRECISION, SETTING OVFIND ON THE RARE EVENT OF OVERFLOW.
000924:
000925:    7105           34772        ROUNDSUB           CAF      ZERO                                  #  SET MPAC +2 = 0 FOR SCALARS AND CHANGE
000926:    7106           54163                 +1        TS       MODE                                  #  MODE TO DP.
000927:
000928:    7107           56156        VROUND             XCH      MPAC       +2                         #  BUT WE NEEDNT TAKE THE TIME FOR VECTORS.
000929:    7110           60000                           DOUBLE
000930:    7111           54001                           TS       L
000931:    7112           00002                           TC       Q
000932:
000933:    7113           60155                           AD       MPAC       +1                         #  ADD ROUNDING BIT IF MPAC +2 WAS GREATER
000934:    7114           54155                           TS       MPAC       +1                         #  THAN .5 IN MAGNITUDE.
000935:    7115           00002                           TC       Q
000936:
000937:    7116           60154                           AD       MPAC                                  #  PROPAGATE INTERFLOW.
000938:    7117           54154                           TS       MPAC
000939:    7120           00002                           TC       Q
000940:
000941:    7121           54121        SETOVF2            TS       OVFIND                                #  (RARE).
000942:    7122           00002                           TC       Q
000943:


000945:                                                                                                  #  THE DOT PRODUCT SUBROUTINE USUALLY FORMS THE DOT PRODUCT OF THE VECTOR IN MPAC WITH A STANDARD SIX
000946:                                                                                                  #  REGISTER VECTOR WHOSE ADDRESS IS IN ADDRWD. IN THIS CASE C(DOTINC) ARE SET TO 2. VXM, HOWEVER, SETS C(DOTINC) TO
000947:                                                                                                  #  6 SO THAT DOTSUB DOTS MPAC WITH A COLUMN VECTOR OF THE MATRIX IN QUESTION IN THIS CASE.
000948:
000949:    7123           34767        PREDOT             CAF      TWO                                   #  PROLOGUE TO SET DOTINC TO 2.
000950:    7124           54136                           TS       DOTINC
000951:
000952:    7125           00006        DOTSUB             EXTEND
000953:    7126           22137                           QXCH     DOTRET                                #  SAVE RETURN.
000954:    7127           07056                           TC       DMPSUB                                #  DOT X COMPONENTS.
000955:    7130           52160                           DXCH     MPAC       +3                         #  POSITION Y COMPONENT OF MPAC FOR
000956:    7131           52155                           DXCH     MPAC                                  #  MULTIPLICATION WHILE SAVING RESULT IN
000957:    7132           52131                           DXCH     BUF                                   #  THREE WORD BUFFER, BUF.
000958:    7133           30156                           CA       MPAC       +2
000959:    7134           54132                           TS       BUF        +2
000960:
000961:    7135           30136                           CA       DOTINC                                #  ADVANCE ADDRWD TO Y COMPONENT OF
000962:    7136           26116                           ADS      ADDRWD                                #  OTHER ARGUMENT.
000963:    7137           07056                           TC       DMPSUB
000964:    7140           52156                           DXCH     MPAC       +1                         #  ACCUMULATE PARTIAL PRODUCTS.
000965:    7141           20132                           DAS      BUF        +1
000966:    7142           60154                           AD       MPAC
000967:    7143           60130                           AD       BUF
000968:    7144           54130                           TS       BUF
000969:    7145           17147                           TCF      +2
000970:    7146           54121                           TS       OVFIND                                #  IF OVERFLOW OCCURS.
000971:
000972:    7147           52162                           DXCH     MPAC       +5                         #  MULTIPLY Z COMPONENTS.
000973:    7150           52155                           DXCH     MPAC
000974:    7151           30136                           CA       DOTINC
000975:    7152           26116                           ADS      ADDRWD
000976:    7153           07056                           TC       DMPSUB
000977:    7154           52132        ENDDOT             DXCH     BUF        +1                         #  LEAVE FINAL ACCUMULATION IN MPAC.
000978:    7155           20156                           DAS      MPAC       +1
000979:    7156           60154                           AD       MPAC
000980:    7157           60130                           AD       BUF
000981:    7160           54154                           TS       MPAC
000982:    7161           00137                           TC       DOTRET
000983:
000984:    7162           06766                           TC       OVERFLOW                              #  ON OVERFLOW HERE.
000985:    7163           00137                           TC       DOTRET
000986:


000988:                                                                                                  #  DOUBLE PRECISION POLYNOMIAL EVALUATOR
000989:
000990:                                                                                                  #                                  N        N-1
000991:                                                                                                  #        THIS ROUTINE EVALUATES A X  + A   X    + ... + A  X + A  LEAVING THE DP RESULT IN MPAC ON EXIT.
000992:                                                                                                  #                                N      N-1              1      0
000993:
000994:                                                                                                  #  THE ROUTINE HAS TWO ENTRIES
000995:
000996:                                                                                                  #        1. ENTRY THRU POWRSERS. THE COEFFICIENTS MAY BE EITHER IN FIXED OR ERASABLE, THE CALL IS BY
000997:                                                                                                  #           TC POWRSERS, AND THE RETURN IS TO LOC(TC POWRSERS)+1. THE ENTERING DATA MUST BE AS FOLLOWS
000998:
000999:                                                                                                  #                        A       SP      LOC-3           ADDRESS FOR REFERENCING COEF TABLE
001000:                                                                                                  #                        L       SP      N-1             N IS THE DEGREE OF THE POWER SERIES
001001:                                                                                                  #                        MPAC    DP      X               ARGUMENT
001002:
001003:                                                                                                  #                        LOC-2N  DP      A(0)
001004:                                                                                                  #                                ...
001005:                                                                                                  #                        LOC     DP      A(N)
001006:
001007:                                                                                                  #        2. ENTRY THRU POLY. THE CALL TO POLY AND THE ENTERING DATA MUST BE AS FOLLOWS
001008:
001009:                                                                                                  #                        MPAC            DP              X               ARGUMENT
001010:
001011:                                                                                                  #                        LOC             TC              POLY
001012:                                                                                                  #                        LOC+1           SP              N-1
001013:                                                                                                  #                        LOC+2           DP              A(0)
001014:                                                                                                  #                                        ...
001015:                                                                                                  #                        LOC+2N+2        DP              A(N)            RETURN IS TO LOC+2N+4
001016:
001017:    7164           00006        POWRSERS           EXTEND
001018:    7165           22141                           QXCH     POLYRET                               #  RETURN ADDRESS
001019:    7166           54117                           TS       POLISH                                #  POWER SERIES ADDRESS
001020:    7167           22140                           LXCH     POLYCNT                               #  N-1 TO COUNTER
001021:    7170           17201                           TCF      POLYCOM                               #  SKIP SET UP BY POLY
001022:
001023:    7171           50002        POLY               INDEX    Q
001024:    7172           30000                           CAF      0
001025:    7173           54140                           TS       POLYCNT                               #  N-1 TO COUNTER
001026:    7174           60000                           DOUBLE
001027:    7175           60002                           AD       Q
001028:    7176           54117                           TS       POLISH                                #  L(A(N))-3 TO POLISH
001029:    7177           64773                           AD       FIVE
001030:    7200           54141                           TS       POLYRET                               #  STORE RETURN ADDRESS
001031:
001032:    7201           36242        POLYCOM            CAF      LVBUF                                 #  INCOMING X WILL BE MOVED TO VBUF, SO
001033:    7202           54116                           TS       ADDRWD                                #  SET ADDRWD SO DMPSUB WILL MPY BY VBUF.
001034:
001035:    7203           00006                           EXTEND
001036:    7204           50117                           INDEX    POLISH
001037:    7205           30004                           DCA      3


001039:    7206           52155                           DXCH     MPAC                                  #  LOAD A(N) INTO MPAC,
001040:    7207           52123                           DXCH     VBUF                                  #  SAVING X IN VBUF
001041:    7210           17214                           TCF      POLY2
001042:
001043:    7211           54140        POLYLOOP           TS       POLYCNT                               #  SAVE DECREMENTD LOOP COUNTER
001044:    7212           44767                           CS       TWO
001045:    7213           26117                           ADS      POLISH                                #  REGRESS COEFFICIENT POINTER
001046:
001047:    7214           07056        POLY2              TC       DMPSUB                                #  MULTIPLY BY X
001048:    7215           00006                           EXTEND
001049:    7216           50117                           INDEX    POLISH
001050:    7217           30002                           DCA      1                                     #  ADD IN NEXT COEFFICIENT
001051:    7220           20155                           DAS      MPAC                                  #  USERS RESPONSIBILITY TO ASSURE NO OVFLOW
001052:
001053:    7221           10140                           CCS      POLYCNT
001054:    7222           17211                           TCF      POLYLOOP
001055:    7223           00141                           TC       POLYRET                               #  RETURN CALLER
001056:


001058:                                                                                                  #  MISCELLANEOUS MULTI-PRECISION ROUTINES REQUIRED IN FIXED-FIXED BUT NOT USED BY THE INTERPRETER.
001059:
001060:    7224           34772        DPAGREE            CAF      ZERO                                  #  DOUBLE PRECISION ENTRY -
001061:    7225           54156        BUFAGREE           TS       MPAC       +2                         #  ZERO LOW-ORDER WORD
001062:    7226           22002        TPAGREE            LXCH     Q                                     #  FORCE SIGN AGREEMENT AMONG THE TRIPLE
001063:    7227           06672                           TC       BRANCH                                #  PRECISION CONTENTS OF MPAC.  RETURNING
001064:    7230           17234                           TCF      ARG+                                  #  WITH SIGNUM OF THE INPUT IN A.
001065:    7231           17254                           TCF      ARGZERO
001066:
001067:    7232           44750                           CS       POSMAX                                #  IF NEGATIVE.
001068:    7233           17235                           TCF      +2
001069:
001070:    7234           34750        ARG+               CAF      POSMAX
001071:    7235           54002                           TS       Q
001072:    7236           00006                           EXTEND
001073:    7237           24000                           AUG      A                                     #  FORMS +-1.0.
001074:    7240           60156                           AD       MPAC       +2
001075:    7241           54156                           TS       MPAC       +2
001076:    7242           34772                           CAF      ZERO
001077:    7243           60002                           AD       Q
001078:    7244           60155                           AD       MPAC       +1
001079:    7245           54155                           TS       MPAC       +1
001080:    7246           34772                           CAF      ZERO
001081:    7247           60002                           AD       Q                                     #  Q STILL HAS POSMAX OR NEGMAX IN IT.
001082:    7250           60154                           AD       MPAC
001083:    7251           54154        ARGZERO2           TS       MPAC                                  #  ALWAYS SKIPPING UNLESS ARGZERO.
001084:    7252           54155                           TS       MPAC       +1
001085:    7253           00001                           TC       L                                     #  RETURN VIA L.
001086:
001087:    7254           54156        ARGZERO            TS       MPAC       +2                         #  SET ALL THREE MPAC REGISTERS TO ZERO.
001088:    7255           17251                           TCF      ARGZERO2
001089:
001090:                                                                                                  #  SHORTMP MULTIPLIES THE TP CONTENTS OF MPAC BY THE SINGLE PRECISION NUMBER ARRIVING IN A.
001091:
001092:    7256           54135        SHORTMP            TS       MPTEMP
001093:    7257           00006                 +1        EXTEND
001094:    7260           70156                           MP       MPAC       +2
001095:    7261           54156                           TS       MPAC       +2
001096:    7262           34772        SHORTMP2           CAF      ZERO                                  #  SO SUBSEQUENT DAS WILL WORK.
001097:    7263           56155                           XCH      MPAC       +1
001098:    7264           17075                           TCF      DMPSUB2
001099:


001101:                                                                                                  #  MISCELLANEOUS VECTOR OPERATIONS. INCLUDED HERE ARE THE FOLLOWING:
001102:
001103:                                                                                                  #        1.      DOT             DP VECTOR DOT PRODUCT.
001104:                                                                                                  #        2.      VXV             DP VECTOR CROSS PRODUCT.
001105:                                                                                                  #        3.      VXSC            DP VECTOR TIMES SCALAR.
001106:                                                                                                  #        4.      V/SC            DP VECTOR DIVIDED BY SCALAR.
001107:                                                                                                  #        5.      VPROJ           DP VECTOR PROJECTION. ( (MPAC.X)MPAC ).
001108:                                                                                                  #        6.      VXM             DP VECTOR POST-MULTIPLIED BY MATRIX.
001109:                                                                                                  #        7.      MXV             DP VECTOR PRE-MULTIPLIED BY MATRIX.
001110:
001111:    7265           07123        DOT                TC       PREDOT                                #  DO THE DOT PRODUCT AND EXIT, CHANGING
001112:    7266           34772        DMODE              CAF      ZERO                                  #  THE MODE TO DP SCALAR.
001113:    7267           16027                           TCF      NEWMODE
001114:
001115:    7270           34767        MXV                CAF      TWO                                   #  SET UP MATINC AND DOTINC FOR ROW
001116:    7271           54140                           TS       MATINC                                #  VECTORS.
001117:    7272           17276                           TCF      VXM/MXV                               #  GO TO COMMON PORTION.
001118:
001119:    7273           44355        VXM                CS       TEN                                   #  SET MATINC AND DOTINC TO REFER TO MATRIX
001120:    7274           54140                           TS       MATINC                                #  AS THREE COLUMN VECTORS.
001121:    7275           36211                           CAF      SIX
001122:


001124:                                                                                                  #  COMMON PORTION OF MXV AND VXM.
001125:
001126:    7276           54136        VXM/MXV            TS       DOTINC
001127:
001128:                                                                                                  #  ITRACE (2) REFERS TO "VXM/MXV".
001129:
001130:    7277           07466                           TC       MPACVBUF                              #  SAVE VECTOR IN MPAC FOR FURTHER USE.
001131:
001132:    7300           07125                           TC       DOTSUB                                #  GO DOT TO GET X COMPONENT OF ANSWER.
001133:    7301           00006                           EXTEND
001134:    7302           30123                           DCA      VBUF                                  #  MOVE MPAC VECTOR BACK INTO MPAC, SAVING
001135:    7303           52155                           DXCH     MPAC                                  #  NEW X COMPONENT IN BUF2.
001136:    7304           52134                           DXCH     BUF2
001137:    7305           00006                           EXTEND
001138:    7306           30125                           DCA      VBUF       +2
001139:    7307           52160                           DXCH     MPAC       +3
001140:    7310           00006                           EXTEND
001141:    7311           30127                           DCA      VBUF       +4
001142:    7312           52162                           DXCH     MPAC       +5
001143:    7313           30140                           CA       MATINC                                #  INITIALIZE ADDRWD FOR NEXT DOT PRODUCT.
001144:    7314           26116                           ADS      ADDRWD                                #  FORMS BASE ADDRESS OF NEXT COLUMN(ROW).
001145:
001146:    7315           07125                           TC       DOTSUB
001147:    7316           52123                           DXCH     VBUF                                  #  MOVE GIVEN VECTOR BACK TO MPAC, SAVING Y
001148:    7317           52155                           DXCH     MPAC                                  #  COMPONENT OF ANSWER IN VBUF +2.
001149:    7320           52125                           DXCH     VBUF       +2
001150:    7321           52160                           DXCH     MPAC       +3
001151:    7322           52127                           DXCH     VBUF       +4
001152:    7323           52162                           DXCH     MPAC       +5
001153:    7324           30140                           CA       MATINC                                #  FORM ADDRESS OF LAST COLUMN OR ROW.
001154:    7325           26116                           ADS      ADDRWD
001155:
001156:    7326           07125                           TC       DOTSUB
001157:    7327           52134                           DXCH     BUF2                                  #  ANSWER NOW COMPLETE. PUT COMPONENTS INTO
001158:    7330           52155                           DXCH     MPAC                                  #  PROPER MPAC REGISTERS.
001159:    7331           52162                           DXCH     MPAC       +5
001160:    7332           52125                           DXCH     VBUF       +2
001161:    7333           52160                           DXCH     MPAC       +3
001162:    7334           16030                           TCF      DANZIG                                #  EXIT.
001163:


001165:                                                                                                  #  VXSC - VECTOR TIMES SCALAR.
001166:
001167:    7335           10163        VXSC               CCS      MODE                                  #  TEST PRESENT MODE.
001168:    7336           17364                           TCF      DVXSC                                 #  SEPARATE ROUTINE WHEN SCALAR IS IN MPAC.
001169:    7337           17364                           TCF      DVXSC
001170:
001171:    7340           07056        VVXSC              TC       DMPSUB                                #  COMPUTE X COMPONENT
001172:    7341           07107                           TC       VROUND                                #  AND ROUND IT.
001173:    7342           52160                           DXCH     MPAC       +3                         #  PUT Y COMPONENT INTO MPAC SAVING MPAC IN
001174:    7343           52155                           DXCH     MPAC                                  #  MPAC +3.
001175:    7344           52160                           DXCH     MPAC       +3
001176:
001177:    7345           07056                           TC       DMPSUB                                #  DO SAME FOR Y AND Z COMPONENTS.
001178:    7346           07107                           TC       VROUND
001179:    7347           52162                           DXCH     MPAC       +5
001180:    7350           52155                           DXCH     MPAC
001181:    7351           52162                           DXCH     MPAC       +5
001182:
001183:    7352           07056                           TC       DMPSUB
001184:    7353           07107                           TC       VROUND
001185:    7354           52155        VROTATEX           DXCH     MPAC                                  #  EXIT USED TO RESTORE MPAC AFTER THIS
001186:    7355           52162                           DXCH     MPAC       +5                         #  TYPE OF ROTATION. CALLED BY VECTOR SHIFT
001187:    7356           52160                           DXCH     MPAC       +3                         #  RIGHT, V/SC, ETC.
001188:    7357           52155                           DXCH     MPAC
001189:    7360           16030                           TCF      DANZIG
001190:


001192:                                                                                                  #  DP VECTOR PROJECTION ROUTINE.
001193:
001194:    7361           07123        VPROJ              TC       PREDOT                                #  (MPAC.X)MPAC IS COMPUTED AND LEFT IN
001195:    7362           44766                           CS       FOUR                                  #  MPAC. DO DOT AND FALL INTO DVXSC.
001196:    7363           26116                           ADS      ADDRWD
001197:
001198:                                                                                                  #  VXSC WHEN SCALAR ARRIVES IN MPAC AND VECTOR IS AT X.
001199:
001200:    7364           00006        DVXSC              EXTEND                                         #  SAVE SCALAR IN MPAC +3 AND GET X
001201:    7365           30155                           DCA      MPAC                                  #  COMPONENT OF ANSWER.
001202:    7366           52160                           DXCH     MPAC       +3
001203:    7367           07056                           TC       DMPSUB
001204:    7370           07107                           TC       VROUND
001205:
001206:    7371           34767                           CAF      TWO                                   #  ADVANCE ADDRWD TO Y COMPONENT OF X.
001207:    7372           26116                           ADS      ADDRWD
001208:    7373           00006                           EXTEND
001209:    7374           30160                           DCA      MPAC       +3                         #  PUT SCALAR BACK INTO MPAC AND SAVE
001210:    7375           52155                           DXCH     MPAC                                  #  X RESULT IN MPAC +5.
001211:    7376           52162                           DXCH     MPAC       +5
001212:    7377           07056                           TC       DMPSUB
001213:    7400           07107                           TC       VROUND
001214:
001215:    7401           34767                           CAF      TWO
001216:    7402           26116                           ADS      ADDRWD                                #  TO Z COMPONENT.
001217:    7403           52160                           DXCH     MPAC       +3                         #  BRING SCALAR BACK, PUTTING Y RESULT IN
001218:    7404           52155                           DXCH     MPAC                                  #  THE PROPER PLACE.
001219:    7405           52160                           DXCH     MPAC       +3
001220:    7406           07056                           TC       DMPSUB
001221:    7407           07107                           TC       VROUND
001222:
001223:    7410           52155                           DXCH     MPAC                                  #  PUT Z COMPONENT IN PROPER PLACE, ALSO
001224:    7411           52162                           DXCH     MPAC       +5                         #  POSITIONING X.
001225:    7412           52155                           DXCH     MPAC
001226:
001227:    7413           16470                           TCF      VMODE                                 #  MODE HAS CHANGED TO VECTOR.
001228:


001230:                                                                                                  #  THE VECTOR CROSS PRODUCT ROUTINE CALCULATES (X M -X M ,X M -X M ,X M -X M ) WHERE M IS THE VECTOR IN
001231:                                                                                                  #                                                3 2  2 3  1 3  3 1  2 1  1 2
001232:                                                                                                  #  MPAC AND X THE VECTOR AT THE GIVEN ADDRESS.
001233:
001234:    7414           00006        VXV                EXTEND
001235:    7415           30162                           DCA      MPAC       +5                         #  FORM UP M3X1, LEAVING M1 IN VBUF.
001236:    7416           52155                           DXCH     MPAC
001237:    7417           52123                           DXCH     VBUF
001238:    7420           07056                           TC       DMPSUB                                #  BY X1.
001239:
001240:    7421           00006                           EXTEND
001241:    7422           40160                           DCS      MPAC       +3                         #  CALCULATE -X1M2, SAVING X1M3 IN VBUF +2.
001242:    7423           52155                           DXCH     MPAC
001243:    7424           52125                           DXCH     VBUF       +2
001244:    7425           07056                           TC       DMPSUB
001245:
001246:    7426           34767                           CAF      TWO                                   #  ADVANCE ADDRWD TO X2.
001247:    7427           26116                           ADS      ADDRWD
001248:    7430           00006                           EXTEND
001249:    7431           40162                           DCS      MPAC       +5                         #  PREPARE TO GET -X2M3, SAVING -X1M2 IN
001250:    7432           52155                           DXCH     MPAC                                  #  MPAC +5.
001251:    7433           52162                           DXCH     MPAC       +5
001252:    7434           07056                           TC       DMPSUB
001253:
001254:    7435           00006                           EXTEND
001255:    7436           30123                           DCA      VBUF                                  #  GET X2M1, SAVING -X2M3 IN VBUF +4.
001256:    7437           52155                           DXCH     MPAC
001257:    7440           52127                           DXCH     VBUF       +4
001258:    7441           07056                           TC       DMPSUB
001259:
001260:    7442           34767                           CAF      TWO                                   #  ADVANCE ADDRWD TO X3.
001261:    7443           26116                           ADS      ADDRWD
001262:    7444           00006                           EXTEND
001263:    7445           40123                           DCS      VBUF                                  #  GET -X3M1, ADDING X2M1 TO MPAC +5 TO
001264:    7446           52155                           DXCH     MPAC                                  #  COMPLETE THE Z COMPONENT OF THE ANSWER.
001265:    7447           20162                           DAS      MPAC       +5
001266:
001267:    7450           00006                           EXTEND
001268:    7451           17453                           BZF      +2
001269:    7452           06760                           TC       OVERFLWZ
001270:
001271:    7453           07056                           TC       DMPSUB
001272:    7454           52125                           DXCH     VBUF       +2                         #  MOVE X1M3 TO MPAC +3 SETTING UP FOR X3M2
001273:    7455           52160                           DXCH     MPAC       +3                         #  AND ADD -X3M1 TO MPAC +3 TO COMPLETE THE
001274:    7456           52155                           DXCH     MPAC                                  #  Y COMPONENT OF THE RESULT.
001275:    7457           20160                           DAS      MPAC       +3
001276:
001277:    7460           00006                           EXTEND
001278:    7461           17463                           BZF      +2


001280:    7462           06763                           TC       OVERFLWY
001281:
001282:    7463           07056                           TC       DMPSUB
001283:    7464           52127                           DXCH     VBUF       +4                         #  GO ADD -X2M3 TO X3M2 TO COMPLETE THE X
001284:    7465           16747                           TCF      ENDVXV                                #  COMPONENT (TAIL END OF DAD).
001285:
001286:                                                                                                  #  THE MPACVBUF SUBROUTINE SAVES THE VECTOR IN MPAC IN VBUF WITHOUT CLOBBERING MPAC.
001287:
001288:    7466           00006        MPACVBUF           EXTEND                                         #  CALLED BY MXV, VXM, AND UNIT.
001289:    7467           30155                           DCA      MPAC
001290:    7470           52123                           DXCH     VBUF
001291:    7471           00006                           EXTEND
001292:    7472           30160                           DCA      MPAC       +3
001293:    7473           52125                           DXCH     VBUF       +2
001294:    7474           00006                           EXTEND
001295:    7475           30162                           DCA      MPAC       +5
001296:    7476           52127                           DXCH     VBUF       +4
001297:    7477           00002                           TC       Q                                     #  RETURN TO CALLER.
001298:
001299:                                                                                                  #  DOUBLE PRECISION SIGN AGREE ROUTINE. ARRIVE WITH INPUT IN A+L. OUTPUT IS IN A + L.
001300:
001301:    7500           10000        ALSIGNAG           CCS      A                                     #  TEST UPPER PART.
001302:    7501           17505                           TCF      UPPOS                                 #  IT IS POSITIVE
001303:    7502           00002                           TC       Q                                     #  ZERO
001304:    7503           17515                           TCF      UPNEG                                 #  NEGATIVE
001305:    7504           00002                           TC       Q                                     #  ZERO
001306:
001307:    7505           56001        UPPOS              XCH      L                                     #  SAVE DECREMENTED UPPER PART.
001308:    7506           64753                           AD       HALF
001309:    7507           64753                           AD       HALF
001310:    7510           54000                           TS       A                                     #  SKIPS ON OVERFLOW
001311:    7511           17513                           TCF      +2
001312:    7512           24001                           INCR     L                                     #  RESTORE UPPER TO ORIGINAL VALUE
001313:    7513           56001                           XCH      L                                     #  SWAP A + L BACK.
001314:    7514           00002                           TC       Q
001315:
001316:    7515           56001        UPNEG              XCH      L                                     #  SAVE COMPLEMENTED + DECREMENTED UPPER PT
001317:    7516           64752                           AD       NEGMAX
001318:    7517           67702                           AD       NEGONE
001319:    7520           54000                           TS       A
001320:    7521           17523                           TCF      +2                                    #  DONT INCREMENT IF NO OVERFLOW.
001321:    7522           24001                           INCR     L
001322:    7523           56001                           XCH      L
001323:    7524           40000                           COM                                            #  MAKE NEGATIVE AGAIN.
001324:    7525           00002                           TC       Q
001325:


001327:                                                                                                  #  INTERPRETIVE INSTRUCTIONS WHOSE EXECUTION CONSISTS OF PRINCIPALLY CALLING SUBROUTINES.
001328:
001329:    7526           07056        DMP1               TC       DMPSUB                                #  DMP INSTRUCTION.
001330:    7527           16030                           TCF      DANZIG
001331:
001332:    7530           07056        DMPR               TC       DMPSUB
001333:    7531           07106                           TC       ROUNDSUB   +1                         #  (C(A) = +0).
001334:    7532           16030                           TCF      DANZIG
001335:
001336:    7533           00006        DDV                EXTEND
001337:    7534           50116                           INDEX    ADDRWD                                #  MOVE DIVIDEND INTO BUF.
001338:    7535           30001                           DCA      0
001339:    7536           17543                           TCF      BDDV       +4
001340:
001341:    7537           00006        BDDV               EXTEND                                         #  MOVE DIVISOR INTO MPAC SAVING MPAC, THE
001342:    7540           50116                           INDEX    ADDRWD                                #  DIVIDEND, IN BUF.
001343:    7541           30001                           DCA      0
001344:    7542           52155                           DXCH     MPAC
001345:    7543           52131                 +4        DXCH     BUF
001346:    7544           34772                           CAF      ZERO                                  #  DIVIDE ROUTINES IN BANK 0.
001347:    7545           54004                           TS       FBANK
001348:    7546           12353                           TCF      DDV/BDDV
001349:
001350:    7547           30116        SETPD              CA       ADDRWD                                #  MUST SET TO WORK AREA, OR EBANK TROUBLE.
001351:    7550           54166                           TS       PUSHLOC
001352:    7551           16032                           TCF      NOIBNKSW                              #  NO FBANK SWITCH REQUIRED.
001353:
001354:    7552           34772        TSLC               CAF      ZERO                                  #  SHIFTING ROUTINES LOCATED IN BANK 00.
001355:    7553           54004                           TS       FBANK
001356:    7554           12172                           TCF      TSLC2
001357:
001358:    7555           36043        GSHIFT             CAF      LOW7                                  #  USED AS MASK AT GENSHIFT. THIS PROCESSES
001359:    7556           54004                           TS       FBANK                                 #  ANY SHIFT INSTRUCTION (EXCEPT TSLC) WITH
001360:    7557           12214                           TCF      GENSHIFT                              #  AN ADDRESS (ROUTINES IN BANK 0).
001361:


001363:                                                                                                  #  THE FOLLOWING IS THE PROLOGUE TO V/SC. IF THE PRESENT MODE IS VECTOR, IT SAVES THE SCALAR AT X IN BUF
001364:                                                                                                  #  AND CALLS THE V/SC ROUTINE IN BANK 0. IF THE PRESENT MODE IS SCALAR, IT MOVES THE VECTOR AT X INTO MPAC, SAVING
001365:                                                                                                  #  THE SCALAR IN MPAC IN BUF BEFORE CALLING THE V/SC ROUTINE IN BANK 0.
001366:
001367:    7560           10163        V/SC               CCS      MODE
001368:    7561           17572                           TCF      DV/SC                                 #  MOVE VECTOR INTO MPAC.
001369:    7562           17572                           TCF      DV/SC
001370:
001371:    7563           00006        VV/SC              EXTEND
001372:    7564           50116                           INDEX    ADDRWD
001373:    7565           30001                           DCA      0
001374:    7566           52131        V/SC1              DXCH     BUF                                   #  IN BOTH CASES, VECTOR IS NOW IN MPAC AND
001375:    7567           34772                           CAF      ZERO                                  #  SCALAR IN BUF.
001376:    7570           54004                           TS       FBANK
001377:    7571           12653                           TCF      V/SC2
001378:
001379:    7572           00006        DV/SC              EXTEND
001380:    7573           50116                           INDEX    ADDRWD
001381:    7574           30003                           DCA      2
001382:    7575           52160                           DXCH     MPAC       +3
001383:    7576           00006                           EXTEND
001384:    7577           50116                           INDEX    ADDRWD
001385:    7600           30005                           DCA      4
001386:    7601           52162                           DXCH     MPAC       +5
001387:
001388:    7602           44770                           CS       ONE                                   #  CHANGE MODE TO VECTOR.
001389:    7603           54163                           TS       MODE
001390:
001391:    7604           00006                           EXTEND
001392:    7605           50116                           INDEX    ADDRWD
001393:    7606           30001                           DCA      0
001394:    7607           52155                           DXCH     MPAC
001395:    7610           17566                           TCF      V/SC1                                 #  FINISH PROLOGUE AT COMMON SECTION.
001396:


001398:                                                                                                  #  SIGN AND COMPLEMENT INSTRUCTIONS.
001399:
001400:    7611           50116        SIGN               INDEX    ADDRWD                                #  CALL COMP INSTRUCTION IF WORD AT X IS
001401:    7612           10000                           CCS      0                                     #  NEGATIVE NON-ZERO.
001402:    7613           16030                           TCF      DANZIG
001403:    7614           17616                           TCF      +2
001404:    7615           17624                           TCF      COMP                                  #  DO THE COMPLEMENT.
001405:
001406:    7616           50116                           INDEX    ADDRWD
001407:    7617           10001        CCSL               CCS      1
001408:    7620           16030                           TCF      DANZIG
001409:    7621           16030                           TCF      DANZIG
001410:    7622           17624                           TCF      COMP
001411:    7623           16030                           TCF      DANZIG
001412:    7624           00006        COMP               EXTEND                                         #  COMPLEMENT DP MPAC IN EVERY CASE.
001413:    7625           40155                           DCS      MPAC
001414:    7626           52155                           DXCH     MPAC
001415:
001416:    7627           10163                           CCS      MODE                                  #  EITHER COMPLEMENT MPAC +3 OR THE REST OF
001417:    7630           17641                           TCF      DCOMP                                 #  THE VECTOR ACCUMULATOR.
001418:    7631           17641                           TCF      DCOMP
001419:
001420:    7632           00006                           EXTEND                                         #  VECTOR COMPLEMENT.
001421:    7633           40160                           DCS      MPAC       +3
001422:    7634           52160                           DXCH     MPAC       +3
001423:    7635           00006                           EXTEND
001424:    7636           40162                           DCS      MPAC       +5
001425:    7637           52162                           DXCH     MPAC       +5
001426:    7640           16030                           TCF      DANZIG
001427:
001428:    7641           40156        DCOMP              CS       MPAC       +2
001429:    7642           54156                           TS       MPAC       +2
001430:    7643           16030                           TCF      DANZIG
001431:


001433:                                                                                                  #  THE FOLLOWING SHORT SHIFT CODES REQUIRE NO ADDRESS WORD:
001434:
001435:                                                                                                  #        1.      SR1 TO SR4      SCALAR SHIFT RIGHT.
001436:                                                                                                  #        2.      SR1R TO SR4R    SCALAR SHIFT RIGHT AND ROUND.
001437:                                                                                                  #        3.      SL1 TO SL4      SCALAR SHIFT LEFT.
001438:                                                                                                  #        4.      SL1R TO SL4R    SCALAR SHIFT LEFT AND ROUND.
001439:
001440:                                                                                                  #        5.      VSR1 TO VSR8    VECTOR SHIFT RIGHT (ALWAYS ROUNDS).
001441:                                                                                                  #        6.      VSL1 TO VSL8    VECTOR SHIFT LEFT (NEVER ROUNDS).
001442:
001443:                                                                                                  #  THE FOLLOWING CODES REQUIRE AN ADDRESS WHICH MAY BE INDEXED:*
001444:
001445:                                                                                                  #        1.      SR              SCALAR SHIFT RIGHT.
001446:                                                                                                  #        2.      SRR             SCALAR SHIFT RIGHT AND ROUND.
001447:                                                                                                  #        3.      SL              SCALAR SHIFT LEFT.
001448:                                                                                                  #        4.      SLR             SCALAR SHIFT LEFT AND ROUND.
001449:
001450:                                                                                                  #        5.      VSR             VECTOR SHIFT RIGHT.
001451:                                                                                                  #        6.      VSL             VECTOR SHIFT LEFT.
001452:
001453:                                                                                                  #  * IF THE ADDRESS IS INDEXED, AND THE INDEX MODIFICATION RESULTS IN A NEGATIVE SHIFT COUNT, A SHIFT OF THE
001454:                                                                                                  #  ABSOLUTE VALUE OF THE COUNT IS DONE IN THE OPPOSITE DIRECTION.
001455:
001456: 00,2000                                           SETLOC   INTERB0
001457: 00,2000                                           BANK
001458:
001459: 00,2017                                           COUNT*   $$/INTER
001460: 00,2017           36211        SHORTT             CAF      SIX                                   #  SCALAR SHORT SHIFTS COME HERE. THE SHIFT
001461: 00,2020           70020                           MASK     CYR                                   #  COUNT-1 IS NOW IN BITS 2-3 OF CYR. THE
001462: 00,2021           54021                           TS       SR                                    #  ROUNDING BIT IS IN BIT1 AT THIS POINT.
001463:
001464: 00,2022           10020                           CCS      CYR                                   #  SEE IF RIGHT OR LEFT SHIFT DESIRED.
001465: 00,2023           12101                           TCF      TSSL                                  #  SHIFT LEFT.
001466:
001467: 00,2024           00024        SRDDV              DEC      20         B-14                       #  MPTEMP SETTING FOR SR BEFORE DDV.
001468:
001469: 00,2025           50021        TSSR               INDEX    SR                                    #  GET SHIFTING BIT.
001470: 00,2026           34753                           CAF      BIT14
001471: 00,2027           54135                           TS       MPTEMP
001472:
001473: 00,2030           10020                           CCS      CYR                                   #  SEE IF A ROUND IS DESIRED.
001474: 00,2031           02050        RIGHTR             TC       MPACSRND                              #  YES - SHIFT RIGHT AND ROUND.
001475: 00,2032           16027                           TCF      NEWMODE                               #  SET MODE TO DP (C(A) = 0).
001476: 00,2033           30135        MPACSHR            CA       MPTEMP                                #  DO A TRIPLE PRECISION SHIFT RIGHT.
001477: 00,2034           00006                           EXTEND
001478: 00,2035           70156                           MP       MPAC       +2
001479: 00,2036           54156                 +3        TS       MPAC       +2                         #  (EXIT FROM SQRT AND ABVAL).
001480: 00,2037           30135                           CA       MPTEMP
001481: 00,2040           00006                           EXTEND


001483: 00,2041           70154                           MP       MPAC                                  #  SHIFT MAJOR PART INTO A,L AND PLACE IN
001484: 00,2042           52155                           DXCH     MPAC                                  #  MPAC,+1.
001485: 00,2043           30135                           CA       MPTEMP
001486: 00,2044           00006                           EXTEND
001487: 00,2045           70001                           MP       L                                     #  ORIGINAL C(MPAC +1).
001488: 00,2046           20156                           DAS      MPAC       +1                         #  GUARANTEED NO OVERFLOW.
001489: 00,2047           16030                           TCF      DANZIG
001490:
001491:                                                                                                  #  MPAC SHIFT RIGHT AND ROUND SUBROUTINES
001492:
001493: 00,2050           30156        MPACSRND           CA       MPAC       +2                         #  WE HAVE TO DO ALL THREE MULTIPLIES SINCE
001494: 00,2051           00006                           EXTEND                                         #  MPAC +1 AND MPAC +2 MIGHT HAVE SIGN
001495: 00,2052           70135                           MP       MPTEMP                                #  DISAGREEMENT WITH A SHIFT RIGHT OF 1.
001496: 00,2053           56155                           XCH      MPAC       +1
001497: 00,2054           00006                           EXTEND
001498: 00,2055           70135                           MP       MPTEMP
001499: 00,2056           56155                           XCH      MPAC       +1                         #  TRIAL MINOR PART.
001500: 00,2057           60001                           AD       L
001501:
001502: 00,2060           60000        VSHR2              DOUBLE                                         #  (FINISH VECTOR COMPONENT SHIFT RIGHT
001503: 00,2061           54156                           TS       MPAC       +2                         #  AND ROUND.)
001504: 00,2062           12064                           TCF      +2
001505: 00,2063           26155                           ADS      MPAC       +1                         #  GUARANTEED NO OVERFLOW.
001506:
001507: 00,2064           34772                           CAF      ZERO
001508: 00,2065           54156                           TS       MPAC       +2
001509: 00,2066           56154                           XCH      MPAC                                  #  SETTING TO ZERO SO FOLLOWING DAS WORKS.
001510: 00,2067           00006                           EXTEND
001511: 00,2070           70135                           MP       MPTEMP
001512: 00,2071           20155                           DAS      MPAC                                  #  AGAIN NO OVERFLOW.
001513: 00,2072           00002                           TC       Q
001514:
001515: 00,2073           30135        VSHRRND            CA       MPTEMP                                #  ENTRY TO SHIFT RIGHT AND ROUND MPAC WHEN
001516: 00,2074           00006                           EXTEND                                         #  MPAC CONTAINS A VECTOR COMPONENT.
001517: 00,2075           70155                           MP       MPAC       +1
001518: 00,2076           54155                           TS       MPAC       +1
001519: 00,2077           56001                           XCH      L
001520: 00,2100           12060                           TCF      VSHR2                                 #  GO ADD ONE IF NECESSARY AND FINISH.
001521:


001523:                                                                                                  #  ROUTINE FOR SHORT SCALAR SHIFT LEFT (AND MAYBE ROUND).
001524:
001525: 00,2101           30021        TSSL               CA       SR                                    #  GET SHIFT COUNT FOR SR.
001526: 00,2102           54135                 +1        TS       MPTEMP
001527:
001528: 00,2103           00006                 +2        EXTEND                                         #  ENTRY HERE FROM SL FOR SCALARS.
001529: 00,2104           30156                           DCA      MPAC       +1                         #  SHIFTING LEFT ONE PLACE AT A TIME IS
001530: 00,2105           20156                           DAS      MPAC       +1                         #  FASTER THAN DOING THE WHOLE SHIFT WITH
001531: 00,2106           60154                           AD       MPAC                                  #  MULTIPLIES ASSUMING THAT FREQUENCY OF
001532: 00,2107           60154                           AD       MPAC                                  #  SHIFT COUNTS GOES DOWN RAPIDLY AS A
001533: 00,2110           54154                           TS       MPAC                                  #  FUNCTION OF THEIR MAGNITUDE.
001534: 00,2111           12113                           TCF      +2
001535: 00,2112           54121                           TS       OVFIND                                #  OVERFLOW. (LEAVES OVERFLOW-CORRECTED
001536:                                                                                                  #  RESULT ANYWAY).
001537: 00,2113           10135                           CCS      MPTEMP                                #  LOOP ON DECREMENTED SHIFT COUNT.
001538: 00,2114           12102                           TCF      TSSL       +1
001539:
001540: 00,2115           10020                           CCS      CYR                                   #  SEE IF ROUND WANTED.
001541: 00,2116           07105        ROUND              TC       ROUNDSUB                              #  YES - ROUND AND EXIT.
001542: 00,2117           16030                           TCF      DANZIG                                #  SL LEAVES A ZERO IN CYR FOR NO ROUND.
001543: 00,2120           16030                           TCF      DANZIG                                #  NO - EXIT IMMEDIATELY
001544:


001546:                                                                                                  #  VECTOR SHIFTING ROUTINES.
001547:
001548: 00,2121           34774        SHORTV             CAF      LOW3                                  #  SAVE 3 BIT SHIFT COUNT - 1 WITHOUT
001549: 00,2122           70020                           MASK     CYR                                   #  EDITING CYR.
001550: 00,2123           54135                           TS       MPTEMP
001551: 00,2124           10020                           CCS      CYR                                   #  SEE IF LEFT OR RIGHT SHIFT.
001552: 00,2125           12145                           TCF      VSSL                                  #  VECTOR SHIFT LEFT.
001553: 00,2126           00176        OCT176             OCT      176                                   #  USED IN PROCESSED SHIFTS WITH - COUNT.
001554:
001555: 00,2127           50135        VSSR               INDEX    MPTEMP                                #  (ENTRY FROM SR).  PICK UP SHIFTING BIT.
001556: 00,2130           34753                           CAF      BIT14                                 #  MPTEMP CONTAINS THE SHIFT COUNT - 1.
001557: 00,2131           54135                           TS       MPTEMP
001558: 00,2132           02073                           TC       VSHRRND                               #  SHIFT X COMPONENT.
001559:
001560: 00,2133           52155                           DXCH     MPAC                                  #  SWAP X AND Y COMPONENTS.
001561: 00,2134           52160                           DXCH     MPAC       +3
001562: 00,2135           52155                           DXCH     MPAC
001563: 00,2136           02073                           TC       VSHRRND                               #  SHIFT Y COMPONENT.
001564:
001565: 00,2137           52155                           DXCH     MPAC                                  #  SWAP Y AND Z COMPONENTS.
001566: 00,2140           52162                           DXCH     MPAC       +5
001567: 00,2141           52155                           DXCH     MPAC
001568: 00,2142           02073                           TC       VSHRRND                               #  SHIFT Z COMPONENT.
001569:
001570: 00,2143           17354                           TCF      VROTATEX                              #  RESTORE COMPONENTS TO PROPER PLACES.
001571:


001573:                                                                                                  #  VECTOR SHIFT LEFT - DONE ONE PLACE AT A TIME.
001574:
001575: 00,2144           54135                 -1        TS       MPTEMP                                #  SHIFTING LOOP.
001576:
001577: 00,2145           00006        VSSL               EXTEND
001578: 00,2146           30155                           DCA      MPAC
001579: 00,2147           20155                           DAS      MPAC
001580: 00,2150           00006                           EXTEND
001581: 00,2151           12153                           BZF      +2
001582: 00,2152           06766                           TC       OVERFLOW
001583:
001584: 00,2153           00006                           EXTEND
001585: 00,2154           30160                           DCA      MPAC       +3
001586: 00,2155           20160                           DAS      MPAC       +3
001587: 00,2156           00006                           EXTEND
001588: 00,2157           12161                           BZF      +2
001589: 00,2160           06763                           TC       OVERFLWY
001590:
001591: 00,2161           00006                           EXTEND
001592: 00,2162           30162                           DCA      MPAC       +5
001593: 00,2163           20162                           DAS      MPAC       +5
001594: 00,2164           00006                           EXTEND
001595: 00,2165           12167                           BZF      +2
001596: 00,2166           06760                           TC       OVERFLWZ
001597:
001598: 00,2167           10135                           CCS      MPTEMP                                #  LOOP ON DECREMENTED SHIFT COUNTER.
001599: 00,2170           12144                           TCF      VSSL       -1
001600: 00,2171           16030                           TCF      DANZIG                                #  EXIT.
001601:


001603:                                                                                                  #  TSLC - TRIPLE SHIFT LEFT AND COUNT. SHIFTS MPAC LEFT UNTIL GREATER THAN .5 IN MAGNITUDE, LEAVING
001604:                                                                                                  #  THE COMPLEMENT OF THE NUMBER OF SHIFTS REQUIRED IN X.
001605:
001606: 00,2172           54135        TSLC2              TS       MPTEMP                                #  START BY ZEROING SHIFT COUNT (IN A NOW).
001607: 00,2173           06672                           TC       BRANCH                                #  EXIT WITH NO SHIFTING IF ARGUMENT ZERO.
001608: 00,2174           12176                           TCF      +2
001609: 00,2175           12212                           TCF      ENDTSLC                               #  STORES ZERO SHIFT COUNT IN THIS CASE.
001610:
001611: 00,2176           07226                           TC       TPAGREE                               #  MAY CAUSE UPSHIFT OF ONE EXTRA PLACE.
001612:
001613: 00,2177           30154                           CA       MPAC                                  #  BEGIN NORMALIZATION LOOP.
001614: 00,2200           12207                           TCF      TSLCTEST
001615:
001616: 00,2201           24135        TSLCLOOP           INCR     MPTEMP                                #  INCREMENT SHIFT COUNTER.
001617: 00,2202           00006                           EXTEND
001618: 00,2203           30156                           DCA      MPAC       +1
001619: 00,2204           20156                           DAS      MPAC       +1
001620: 00,2205           60154                           AD       MPAC
001621: 00,2206           26154                           ADS      MPAC
001622: 00,2207           60000        TSLCTEST           DOUBLE                                         #  SEE IF (ANOTHER) SHIFT IS REQUIRED.
001623: 00,2210           54000                           OVSK
001624: 00,2211           12201                           TCF      TSLCLOOP                              #  YES - INCREMENT COUNT AND SHIFT AGAIN.
001625:
001626: 00,2212           40135        ENDTSLC            CS       MPTEMP
001627: 00,2213           16572                           TCF      STORE1                                #  STORE SHIFT COUNT AND RETURN TO DANZIG.
001628:


001630:                                                                                                  #  THE FOLLOWING ROUTINES PROCESS THE GENERAL SHIFT INSTRUCTIONS SR, SRR, SL, AND SLR.
001631:                                                                                                  #  THE GIVEN ADDRESS IS DECODED AS FOLLOWS:
001632:
001633:                                                                                                  #        BITS 1-7        SHIFT COUNT (SUBADDRESS) LESS THAN 125 DECIMAL.
001634:                                                                                                  #        BIT 8           PSEUDO SIGN BIT (DETECTS CHANGE IN SIGN IN INDEXED SHIFTS).
001635:                                                                                                  #        BIT 9           0 FOR LEFT SHIFT, AND 1 FOR RIGHT SHIFT.
001636:                                                                                                  #        BIT 10          1 FOR TERMINAL ROUND ON SCALAR SHIFTS, 0 OTHERWISE.
001637:                                                                                                  #        BITS 11-13      0.
001638:                                                                                                  #        BIT 14          1.
001639:                                                                                                  #        BIT 15          0.
001640:
001641:                                                                                                  #  THE ABOVE ENCODING IS DONE BY THE YUL SYSTEM.
001642:
001643: 00,2214           70116        GENSHIFT           MASK     ADDRWD                                #  GET SHIFT COUNT, TESTING FOR ZERO.
001644: 00,2215           10000                           CCS      A                                     #  (ARRIVES WITH C(A) = LOW7).
001645: 00,2216           12224                           TCF      GENSHFT2                              #  IF NON-ZERO, PROCEED WITH DECREMENTED CT
001646:
001647: 00,2217           34757                           CAF      BIT10                                 #  ZERO SHIFT COUNT. NO SHIFTS NEEDED BUT
001648: 00,2220           70116                           MASK     ADDRWD                                #  WE MIGHT HAVE TO ROUND MPAC ON SLR AND
001649: 00,2221           10000                           CCS      A                                     #  SRR (SCALAR ONLY).
001650: 00,2222           07105                           TC       ROUNDSUB
001651: 00,2223           16030                           TCF      DANZIG
001652:
001653: 00,2224           54135        GENSHFT2           TS       MPTEMP                                #  DECREMENTED SHIFT COUNT TO MPTEMP.
001654: 00,2225           34761                           CAF      BIT8                                  #  TEST MEANING OF LOW SEVEN BIT COUNT IN
001655: 00,2226           00006                           EXTEND                                         #  MPTEMP NOW.
001656: 00,2227           70116                           MP       ADDRWD
001657: 00,2230           76214                           MASK     LOW2                                  #  JUMPS ON SHIFT DIRECTION (BIT8) AND
001658: 00,2231           50000                           INDEX    A
001659: 00,2232           12233                           TCF      +1                                    #  ORIGINAL SHIFT DIRECTION (BIT 9).
001660: 00,2233           12332                           TCF      RIGHT-                                #  NEGATIVE SHIFT COUNT FOR SL OR SLR.
001661: 00,2234           12342                           TCF      LEFT                                  #  SL OR SLR.
001662: 00,2235           12336                           TCF      LEFT-                                 #  NEGATIVE SHIFT COUNT WITH SR OR SRR.
001663:


001665:                                                                                                  #  GENERAL SHIFT RIGHT.
001666:
001667: 00,2236           10163        RIGHT              CCS      MODE                                  #  SEE IF VECTOR OR SCALAR.
001668: 00,2237           12277                           TCF      GENSCR
001669: 00,2240           12277                           TCF      GENSCR
001670:
001671: 00,2241           30135                           CA       MPTEMP                                #  SEE IF SHIFT COUNT LESS THAN 14D.
001672: 00,2242           63726        VRIGHT2            AD       NEG12
001673: 00,2243           00006                           EXTEND
001674: 00,2244           62127                           BZMF     VSSR                                  #  IF SO, BRANCH AND SHIFT IMMEDIATELY.
001675:
001676: 00,2245           67702                           AD       NEGONE                                #  IF NOT, REDUCE MPTEMP BY A TOTAL OF 14,
001677: 00,2246           54135                           TS       MPTEMP                                #  AND DO A SHIFT RIGHT AND ROUND BY 14.
001678: 00,2247           34772                           CAF      ZERO                                  #  THE ROUND AT THIS STAGE MAY INTRODUCE A
001679: 00,2250           54001                           TS       L                                     #  ONE BIT ERROR IN A SHIFT RIGHT 15D.
001680: 00,2251           56154                           XCH      MPAC
001681: 00,2252           56155                           XCH      MPAC       +1
001682: 00,2253           02272                           TC       SETROUND                              #  X COMPONENT NOW SHIFTED, SO MAKE UP THE
001683: 00,2254           20155                           DAS      MPAC                                  #  ROUNDING QUANTITY (0 IN A AND 0 OR +-1
001684:                                                                                                  #  IN L).
001685: 00,2255           56157                           XCH      MPAC       +3                         #  REPEAT THE ABOVE PROCESS FOR Y AND Z.
001686: 00,2256           56160                           XCH      MPAC       +4
001687: 00,2257           02272                           TC       SETROUND
001688: 00,2260           20160                           DAS      MPAC       +3                         #  NO OVERFLOW ON THESE ADDS.
001689:
001690: 00,2261           56161                           XCH      MPAC       +5
001691: 00,2262           56162                           XCH      MPAC       +6
001692: 00,2263           02272                           TC       SETROUND
001693: 00,2264           20162                           DAS      MPAC       +5
001694:
001695: 00,2265           10135                           CCS      MPTEMP                                #  SEE IF DONE, DOING FINAL DECREMENT.
001696: 00,2266           54135                           TS       MPTEMP
001697: 00,2267           12242                           TCF      VRIGHT2
001698: 00,2270           04604        BIASLO             DEC      .2974      B-1                        #  SQRT CONSTANT
001699:
001700: 00,2271           16030                           TCF      DANZIG
001701:
001702: 00,2272           60000        SETROUND           DOUBLE                                         #  MAKES UP ROUNDING QUANTITY FROM ARRIVING
001703: 00,2273           54156                           TS       MPAC       +2                         #  C(A). L IS ZERO INITIALLY.
001704: 00,2274           34772                           CAF      ZERO
001705: 00,2275           56001                           XCH      L
001706: 00,2276           00002                           TC       Q                                     #  RETURN AND DO THE DAS, RESETTING L TO 0.
001707:


001709:                                                                                                  #  PROCESS SR AND SRR FOR SCALARS.
001710:
001711: 00,2277           30135        GENSCR             CA       MPTEMP                                #  SEE IF THE ORIGINAL SHIFT COUNT WAS LESS
001712: 00,2300           63726                 +1        AD       NEG12                                 #  THAN 14D.
001713: 00,2301           00006                           EXTEND
001714: 00,2302           62322                           BZMF     DOSSHFT                               #  DO THE SHIFT IMMEDIATELY IF SO.
001715:
001716: 00,2303           67702                 +4        AD       NEGONE                                #  IF NOT, DECREMENT SHIFT COUNT BY 14D AND
001717: 00,2304           54135                           TS       MPTEMP                                #  SHIFT MPAC RIGHT 14 PLACES.
001718: 00,2305           34772                           CAF      ZERO
001719: 00,2306           56154                           XCH      MPAC
001720: 00,2307           56155                           XCH      MPAC       +1
001721: 00,2310           54156                           TS       MPAC       +2
001722: 00,2311           10135                           CCS      MPTEMP                                #  SEE IF FINISHED, DO FINAL DECREMENT.
001723: 00,2312           54135                           TS       MPTEMP
001724: 00,2313           02300                           TC       GENSCR     +1
001725: 00,2314           22650        SLOPEHI            DEC      .5884                                 #  SQRT CONSTANT.
001726: 00,2315           34757                           CAF      BIT10                                 #  FINISHED WITH SHIFT. SEE IF ROUND
001727: 00,2316           70116                           MASK     ADDRWD                                #  WANTED.
001728: 00,2317           10000                           CCS      A
001729: 00,2320           07105                           TC       ROUNDSUB
001730: 00,2321           16030                           TCF      DANZIG                                #  DO SO AND/OR EXIT.
001731:
001732: 00,2322           50135        DOSSHFT            INDEX    MPTEMP                                #  PICK UP SHIFTING BIT.
001733: 00,2323           34753                           CAF      BIT14
001734: 00,2324           54135                           TS       MPTEMP
001735: 00,2325           34757                           CAF      BIT10                                 #  SEE IF TERMINAL ROUND DESIRED.
001736: 00,2326           70116                           MASK     ADDRWD
001737: 00,2327           10000                           CCS      A
001738: 00,2330           12031                           TCF      RIGHTR                                #  YES.
001739: 00,2331           12033                           TCF      MPACSHR                               #  JUST SHIFT RIGHT.
001740:


001742:                                                                                                  #  PROCESS THE RIGHT- (SL(R) WITH A NEGATIVE COUNT), LEFT-, AND LEFT OPTIONS.
001743:
001744: 00,2332           40135        RIGHT-             CS       MPTEMP                                #  GET ABSOLUTE VALUE - 1 OF SHIFT COUNT
001745: 00,2333           62126                           AD       OCT176                                #  UNDERSTANDING THAT BIT8 (PSEUDO-SIGN)
001746: 00,2334           54135                           TS       MPTEMP                                #  WAS 1 INITIALLY.
001747: 00,2335           12236                           TCF      RIGHT                                 #  DO NORMAL SHIFT RIGHT.
001748:
001749: 00,2336           42126        LEFT-              CS       OCT176                                #  SAME PROLOGUE TO LEFT FOR INDEXED RIGHT
001750: 00,2337           60135                           AD       MPTEMP                                #  SHIFT WHOSE NET SHIFT COUNT IS NEGATIVE
001751: 00,2340           40000                           COM
001752: 00,2341           54135                           TS       MPTEMP
001753:
001754: 00,2342           10163        LEFT               CCS      MODE                                  #  SINCE LEFT SHIFTING IS DONE ONE PLACE AT
001755: 00,2343           12346                           TCF      GENSCL                                #  A TIME, NO COMPARISON WITH 14 NEED BE
001756: 00,2344           12346                           TCF      GENSCL                                #  DONE. FOR SCALARS, SEE IF TERMINAL ROUND
001757: 00,2345           12145                           TCF      VSSL                                  #  DESIRED. FOR VECTORS, SHIFT IMMEDIATELY.
001758:
001759: 00,2346           40116        GENSCL             CS       ADDRWD                                #  PUT ROUNDING BIT (BIT 10 OF ADDRWD) INTO
001760: 00,2347           00006                           EXTEND                                         #  BIT 15 OF CYR WHERE THE ROUNDING BIT OF
001761: 00,2350           74763                           MP       BIT6                                  #  A SHORT SHIFT LEFT WOULD BE
001762: 00,2351           54020                           TS       CYR
001763: 00,2352           12103                           TCF      TSSL       +2                         #  DO THE SHIFT.
001764:


001766:                                                                                                  #  SCALAR DIVISION INSTRUCTIONS, DDV AND BDDV, ARE EXECUTED HERE. AT THIS POINT, THE DIVIDEND IS IN MPAC
001767:                                                                                                  #  AND THE DIVISOR IS IN BUF.
001768:
001769: 00,2353           44770        DDV/BDDV           CS       ONE                                   #  INITIALIZATION.
001770: 00,2354           54136                           TS       DVSIGN                                #  +-1 FOR POSITIVE QUOTIENT - -0 FOR NEG.
001771: 00,2355           54137                           TS       DVNORMCT                              #  DIVIDEND NORMALIZATION COUNT.
001772: 00,2356           54140                           TS       MAXDVSW                               #  NEAR-ONE DIVIDE FLAG.
001773:
001774: 00,2357           10130                           CCS      BUF                                   #  FORCE BUF POSITIVE WITH THE MAJOR PART
001775: 00,2360           12515                           TCF      BUFPOS                                #  NON-ZERO.
001776: 00,2361           12363                           TCF      +2
001777: 00,2362           12530                           TCF      BUFNEG
001778:
001779: 00,2363           07225        BUFZERO            TC       BUFAGREE
001780: 00,2364           10154                           CCS      MPAC                                  #  TEST TO SEE IF MPAC NON-ZERO.  (TOO BIG)
001781: 00,2365           12413                           TCF      OVF+                                  #  MAJOR PART OF DIVIDEND IS POSITIVE NON-0
001782: 00,2366           12370                           TCF      +2
001783: 00,2367           12412                           TCF      OVF+       -1                         #  MAJOR PART OF DIVIDEND IS NEG. NON-ZERO
001784:
001785: 00,2370           56131                           XCH      BUF        +1                         #  SHIFT DIVIDENT AND DIVISOR LEFT 14.
001786: 00,2371           56130                           XCH      BUF
001787: 00,2372           56155                           XCH      MPAC       +1
001788: 00,2373           56154                           XCH      MPAC
001789: 00,2374           10130                           CCS      BUF                                   #  TRY AGAIN ON FORMER MINOR PART.
001790: 00,2375           12421                           TCF      BUF+
001791: 00,2376           12400                           TCF      +2                                    #  OVERFLOW ON ZERO DIVISOR.
001792: 00,2377           12415                           TCF      BUF-
001793:
001794: 00,2400           40154                           CS       MPAC                                  #  SIGN OF MPAC DETERMINES SIGN OF RESULT.
001795: 00,2401           00006        SGNDVOVF           EXTEND
001796: 00,2402           62404                           BZMF     +2
001797: 00,2403           24136                           INCR     DVSIGN                                #  NEGMAX IN MPAC PERHAPS.
001798: 00,2404           34750        DVOVF              CAF      POSMAX                                #  ON DIVISION OVERFLOW OF ANY SORT, SET
001799: 00,2405           54154                           TS       MPAC                                  #  SET DP MPAC TO +-POSMAX.
001800: 00,2406           02627                           TC       FINALDV    +3
001801: 00,2407           34770                           CAF      ONE                                   #  SET OVEFLOW INDICATOR AND EXIT.
001802: 00,2410           54121                           TS       OVFIND
001803: 00,2411           06030                           TC       DANZIG
001804:
001805: 00,2412           24136                 -1        INCR     DVSIGN
001806: 00,2413           40131        OVF+               CS       BUF        +1                         #  LOAD LOWER ORDER PART OF DIVISOR.
001807: 00,2414           12401                           TCF      SGNDVOVF                              #  GET SIGN OF RESULT.
001808:
001809: 00,2415           00006        BUF-               EXTEND                                         #  IF BUF IS NEGATIVE, COMPLEMENT IT AND
001810: 00,2416           40131                           DCS      BUF                                   #  MAINTAIN DVSIGN FOR FINAL QUOTIENT SIGN.
001811: 00,2417           52131                           DXCH     BUF
001812: 00,2420           24136                           INCR     DVSIGN                                #  NOW -0.
001813: 00,2421           10154        BUF+               CCS      MPAC                                  #  FORCE MPAC POSITIVE, CHECKING FOR ZERO


001815: 00,2422           12436                           TCF      MPAC+                                 #  DIVIDEND IN THE PROCESS.
001816: 00,2423           12425                           TCF      +2
001817: 00,2424           12432                           TCF      MPAC-
001818: 00,2425           10155                           CCS      MPAC       +1
001819: 00,2426           12436                           TCF      MPAC+
001820: 00,2427           16030                           TCF      DANZIG                                #  EXIT IMMEDIATELY ON ZERO DIVIDEND.
001821: 00,2430           12432                           TCF      MPAC-
001822: 00,2431           16030                           TCF      DANZIG
001823:
001824: 00,2432           00006        MPAC-              EXTEND                                         #  FORCE MPAC POSITIVE AS BUF IN BUF-.
001825: 00,2433           40155                           DCS      MPAC
001826: 00,2434           52155                           DXCH     MPAC
001827: 00,2435           24136                           INCR     DVSIGN                                #  NOW +1 OR -0.
001828:


001830: 00,2436           40154        MPAC+              CS       MPAC                                  #  CHECK FOR DIVISION OVERFLOW. IF THE
001831: 00,2437           67702                           AD       NEGONE                                #  MAJOR PART OF THE DIVIDEND IS LESS THAN
001832: 00,2440           60130                           AD       BUF                                   #  THE MAJOR PART OF THE DIVISOR BY AT
001833: 00,2441           10000                           CCS      A                                     #  LEAST TWO, WE CAN PROCEED IMMEDIATELY
001834: 00,2442           12504                           TCF      DVNORM                                #  WITHOUT NORMALIZATION PRODUCING A DVMAX.
001835: 00,2443           60001        -1/2+2             OCT      60001                                 #  USED IN SQRTSUB.
001836:
001837: 00,2444           12445                           TCF      +1                                    #  IF THE ABOVE DOES NOT HOLD, FORCE SIGN
001838: 00,2445           34753                           CAF      HALF                                  #  AGREEMENT IN NUMERATOR AND DENOMINATOR
001839: 00,2446           60000                           DOUBLE                                         #  TO FACILITATE OVERFLOW AND NEAR-ONE
001840: 00,2447           60155                           AD       MPAC       +1                         #  CHECKING.
001841: 00,2450           54155                           TS       MPAC       +1
001842: 00,2451           34772                           CAF      ZERO
001843: 00,2452           64750                           AD       POSMAX
001844: 00,2453           26154                           ADS      MPAC
001845:
001846: 00,2454           34753                           CAF      HALF                                  #  SAME FOR BUF.
001847: 00,2455           60000                           DOUBLE
001848: 00,2456           60131                           AD       BUF        +1
001849: 00,2457           54131                           TS       BUF        +1
001850: 00,2460           34772                           CAF      ZERO
001851: 00,2461           64750                           AD       POSMAX
001852: 00,2462           26130                           ADS      BUF
001853:
001854: 00,2463           40154                           CS       MPAC                                  #  CHECK MAGNITUDE OF SIGN-CORRECTED
001855: 00,2464           60130                           AD       BUF                                   #  OPERANDS.
001856: 00,2465           10000                           CCS      A
001857: 00,2466           12504                           TCF      DVNORM                                #  DIVIDE OK - WILL NOT BECOME MAXOV CASE.
001858: 00,2467           00133        LBUF2              ADRES    BUF2
001859: 00,2470           12404                           TCF      DVOVF                                 #  DIVISOR NOT LESS THAN DIVIDEND - OVF.
001860:
001861: 00,2471           54140                           TS       MAXDVSW                               #  IF THE MAJOR PARTS OF THE DIVIDEND AND
001862: 00,2472           40155                           CS       MPAC       +1                         #  DIVISOR ARE EQUAL, A SPECIAL APPROXIMA-
001863: 00,2473           60131                           AD       BUF        +1                         #  TION IS USED (PROVIDED THE DIVISION IS
001864: 00,2474           00006                           EXTEND                                         #  POSSIBLE, OF COURSE).
001865: 00,2475           62404                           BZMF     DVOVF
001866: 00,2476           12504                           TCF      DVNORM                                #  IF NO OVERFLOW.
001867:


001869: 00,2477           00006        BUFNORM            EXTEND                                         #  ADD -1 TO AUGMENT SHIFT COUNT AND SHIFT
001870: 00,2500           24137                           AUG      DVNORMCT                              #  LEFT ONE PLACE.
001871: 00,2501           00006                           EXTEND
001872: 00,2502           30131                           DCA      BUF
001873: 00,2503           20131                           DAS      BUF
001874:
001875: 00,2504           30130        DVNORM             CA       BUF                                   #  SEE IF DIVISOR NORMALIZED YET.
001876: 00,2505           60000                           DOUBLE
001877: 00,2506           54000                           OVSK
001878: 00,2507           12477                           TCF      BUFNORM                               #  NO - SHIFT LEFT ONE AND TRY AGAIN.
001879:
001880: 00,2510           52155                           DXCH     MPAC                                  #  CALL DIVIDEND NORMALIZATION SEQUENCE
001881: 00,2511           50137                           INDEX    DVNORMCT                              #  PRIOR TO DOING THE DIVIDE.
001882: 00,2512           02564                           TC       MAXTEST
001883:
001884: 00,2513           54156                           TS       MPAC       +2                         #  RETURNS WITH DIVISION DONE AND C(A) = 0.
001885: 00,2514           16030                           TCF      DANZIG
001886:
001887: 00,2515           10000        BUFPOS             CCS      A
001888: 00,2516           12421                           TCF      BUF+                                  #  TO BUF+ IF BUF IS GREATER THAN +1.
001889:
001890: 00,2517           40131                           CS       BUF        +1                         #  IF BUF IS +1, FORCING SIGN AGREEMENT
001891: 00,2520           00006                           EXTEND                                         #  MAY CAUSE BUF TO BECOME ZERO.
001892: 00,2521           62421                           BZMF     BUF+                                  #  BRANCH IF SIGNS AGREE.
001893:
001894: 00,2522           34753                           CA       HALF                                  #  SIGNS DISAGREE.  FORCE AGREEMENT.
001895: 00,2523           60000                 +6        DOUBLE
001896: 00,2524           26131                           ADS      BUF        +1
001897: 00,2525           34772                           CA       ZERO
001898: 00,2526           54130                           TS       BUF
001899: 00,2527           12363                           TCF      BUFZERO
001900:
001901: 00,2530           10000        BUFNEG             CCS      A
001902: 00,2531           12415                           TCF      BUF-                                  #  TO BUF- IF BUF IS LESS THAN -1.
001903:
001904: 00,2532           30131                           CA       BUF        +1                         #  IF BUF IS -1, FORCING SIGN AGREEMENT
001905: 00,2533           00006                           EXTEND                                         #  MAY CAUSE BUF TO BECOME ZERO.
001906: 00,2534           62415                           BZMF     BUF-                                  #  BRANCH IF SIGNS AGREE.
001907:
001908: 00,2535           44753                           CS       HALF                                  #  SIGNS DISAGREE.  FORCE AGREEMENT.
001909: 00,2536           12523                           TCF      BUFPOS     +6
001910:


001912:                                                                                                  #  THE FOLLOWING ARE PROLOGUES TO SHIFT THE DIVIDEND ARRIVING IN A AND L BEFORE THE DIVIDE.
001913:
001914: 00,2537           22021                 -21D      LXCH     SR                                    #  SPECIAL PROLOGUE FOR UNIT WHEN THE
001915: 00,2540           00006                           EXTEND                                         #  LENGTH OF THE ARGUMENT WAS NOT LESS THAN
001916: 00,2541           74753                           MP       HALF                                  #  .5. IN THIS CASE, EACH COMPONENT MUST BE
001917: 00,2542           56001                           XCH      L                                     #  SHIFTED RIGHT ONE TO PRODUCE A HALF-UNIT
001918: 00,2543           60021                           AD       SR                                    #  VECTOR.
001919: 00,2544           56001                           XCH      L
001920: 00,2545           12570                           TCF      GENDDV     +1                         #  WITH DP DIVIDEND IN A,L.
001921:
001922: 00,2546           20001                           DDOUBL                                         #  PROLOGUE WHICH NORMALIZES THE DIVIDEND
001923: 00,2547           20001                           DDOUBL                                         #  WHEN IT IS KNOWN THAT NO DIVISION
001924: 00,2550           20001                           DDOUBL                                         #  OVEFLOW WILL OCCUR.
001925: 00,2551           20001                           DDOUBL
001926: 00,2552           20001                           DDOUBL
001927: 00,2553           20001                           DDOUBL
001928: 00,2554           20001                           DDOUBL
001929: 00,2555           20001                           DDOUBL
001930: 00,2556           20001                           DDOUBL
001931: 00,2557           20001                           DDOUBL
001932: 00,2560           20001                           DDOUBL
001933: 00,2561           20001                           DDOUBL
001934: 00,2562           20001                           DDOUBL
001935: 00,2563           52155                 -1        DXCH     MPAC
001936: 00,2564           10140        MAXTEST            CCS      MAXDVSW                               #  0 IF MAJORS MIGHT BE =, -1 OTHERWISE.
001937: 00,2565           06552        BIASHI             DEC      .4192      B-1                        #  SQRT CONSTANTS
001938:
001939: 00,2566           12641                           TCF      MAXDV                                 #  CHECK TO SEE IF THAY ARE NOW EQUAL.
001940:


001942:                                                                                                  #  THE FOLLOWING IS A GENERAL PURPOSE DOUBLE PRECISION DIVISION ROUTINE. IT DIVIDES MPAC BY BUF AND LEAVES
001943:                                                                                                  #  THE RESULT IN MPAC. THE FOLLOWING CONDITIONS MUST BE SATISFIED:
001944:
001945:                                                                                                  #        1.      THE DIVISOR (BUF) MUST BE POSITIVE AND NOT LESS THAN .5.
001946:
001947:                                                                                                  #        2.      THE DIVIDEND (MPAC) MUST BE POSITIVE WITH THE MAJOR PART OF MPAC STRICTLY LESS THAN THAT OF BUF
001948:                                                                                                  #                (A SPECIAL APPROXIMATION, MAXDV, IS USED WHEN THE MAJOR PARTS ARE EQUAL).
001949:
001950:                                                                                                  #  UNDERSTANDING THAT A/B = Q + S(R/B) WHERE S = 2(-14) AND Q AND R ARE QUOTIENT AND REMAINDER, RESPEC-
001951:                                                                                                  #  TIVELY, THE FOLLOWING APPROXIMATION IS OBTAINED BY MULTIPLYING ABOVE AND BELOW BY C - SD AND NEGLECTING TERMS OF
001952:                                                                                                  #  ORDER S-SQUARED (POSSIBLY INTRODUCING ERROR INTO THE LOW TWO BITS OF THE RESULT). SIGN AGREEMENT IS UNNECESSARY.
001953:
001954:                                                                                                  #        A + SB .      (R - CD)                                             A + SB
001955:                                                                                                  #        ------ = Q + S(------) WHERE Q AND R ARE QUOTIENT AND REMAINDER OF ------ RESPECTIVELY.
001956:                                                                                                  #        C + SD        (  C   }                                                C
001957:
001958: 00,2567           52155        GENDDV             DXCH     MPAC                                  #  WE NEED A AND B ONLY FOR FIRST DV.
001959: 00,2570           00006                 +1        EXTEND                                         #  (SPECIAL UNIT PROLOGUE ENTERS HERE).
001960: 00,2571           10130                           DV       BUF                                   #  A NOW CONTAINS Q AND L, R.
001961: 00,2572           52155                           DXCH     MPAC
001962:
001963: 00,2573           40154                           CS       MPAC                                  #  FORM DIVIDEND FOR MINOR PART OF RESULT.
001964: 00,2574           00006                           EXTEND
001965: 00,2575           70131                           MP       BUF        +1
001966: 00,2576           60155                           AD       MPAC       +1                         #  OVERFLOW AT THIS POINT IS POSITIVE SINCE
001967: 00,2577           54000                           OVSK                                           #  R IS POSITIVE IN EVERY CASE.
001968: 00,2600           12605                           TCF      +5
001969:
001970: 00,2601           00006                           EXTEND                                         #  OVERFLOW CAN BE REMOVED BY SUBTRACTING C
001971: 00,2602           60130                           SU       BUF                                   #  (BUF) ONCE SINCE R IS ALWAYS LESS THAN C
001972: 00,2603           24154                           INCR     MPAC                                  #  IN THIS CASE. INCR COMPENSATES SUBTRACT.
001973: 00,2604           12607                           TCF      +DOWN                                 #  (SINCE C(A) IS STILL POSITIVE).
001974:
001975: 00,2605           00006                 +5        EXTEND                                         #  C(A) CAN BE MADE LESS THAN C IN MAGNI-
001976: 00,2606           62617                           BZMF     -UP                                   #  TUDE BY DIMINISHING IT BY C (SINCE C IS
001977:                                                                                                  #  NOT LESS THAN .5) UNLESS C(A) = 0.
001978:


001980: 00,2607           00006        +DOWN              EXTEND
001981: 00,2610           60130                           SU       BUF                                   #  IF POSITIVE, REDUCE ONLY IF NECESSARY
001982: 00,2611           00006                           EXTEND                                         #  SINCE THE COMPENSATING INCR MIGHT CAUSE
001983: 00,2612           12615                           BZF      +3                                    #  OVERFLOW.
001984: 00,2613           00006                           EXTEND                                         #  DONT SUBTRACT UNLESS RESULT IS POSITIVE
001985: 00,2614           62623                           BZMF     ENDMAXDV                              #  OR ZERO.
001986:
001987: 00,2615           24154                 +3        INCR     MPAC                                  #  KEEP SUBTRACT HERE AND COMPENSATE.
001988: 00,2616           12624                           TCF      FINALDV
001989:
001990: 00,2617           00006        -UP                EXTEND                                         #  IF ZERO, SET MINOR PART OF RESULT TO
001991: 00,2620           12627                           BZF      FINALDV    +3                         #  ZERO.
001992:
001993: 00,2621           00006                           EXTEND                                         #  IF NEGATIVE, ADD C TO A, SUBTRACTING ONE
001994: 00,2622           26154                           DIM      MPAC                                  #  TO COMPENSATE. DIM IS OK HERE SINCE THE
001995: 00,2623           60130        ENDMAXDV           AD       BUF                                   #  MAJOR PART NEVER GOES NEGATIVE.
001996:


001998: 00,2624           22007        FINALDV            ZL                                             #  DO DV TO OBTAIN MINOR PART OF RESULT.
001999: 00,2625           00006                           EXTEND
002000: 00,2626           10130                           DV       BUF
002001: 00,2627           54155                 +3        TS       MPAC       +1
002002:
002003: 00,2630           10136                           CCS      DVSIGN                                #  LEAVE RESULT POSITIVE UNLESS C(DVSIGN)=
002004: 00,2631           00002                           TC       Q                                     #  -0.
002005: 00,2632           00002                           TC       Q
002006: 00,2633           00002                           TC       Q
002007:
002008: 00,2634           00006                           EXTEND
002009: 00,2635           40155                           DCS      MPAC
002010: 00,2636           52155                           DXCH     MPAC
002011: 00,2637           34772                           CAF      ZERO                                  #  SO WE ALWAYS RETURN WITH C(A) = 0.
002012: 00,2640           00002                           TC       Q
002013:


002015:                                                                                                  #  IF THE MAJOR PARTS OF THE DIVISOR AND DIVIDEND ARE EQUAL, BUT THE MINOR PARTS ARE SUCH THAT THE
002016:                                                                                                  #  DIVIDEND IS STRICTLY LESS THAN THE DIVISOR IN MAGNITUDE, THE FOLLOWING APPROXIMATION IS USED. THE ASSUMPTIONS
002017:                                                                                                  #  ARE THE SAME AS THE GENERAL ROUTINE WITH THE ADDITION THAT SIGN AGREEMENT IS NECESSARY (B, C, & D POSITIVE).
002018:
002019:                                                                                                  #        C + SB .          (C + B - D)
002020:                                                                                                  #        ------ = 37777 + S(---------)
002021:                                                                                                  #        C + SD            (    C    )
002022:
002023:                                                                                                  #  THE DIVISION MAY BE PERFORMED IMMEDIATELY SINCE B IS STRICTLY LESS THAN D AND C IS NOT LESS THAN .5.
002024:
002025: 00,2641           40154        MAXDV              CS       MPAC                                  #  SEE IF MAXDV CASE STILL HOLDS AFTER
002026: 00,2642           60130                           AD       BUF                                   #  NORMALIZATION.
002027: 00,2643           00006                           EXTEND
002028: 00,2644           12646                           BZF      +2
002029: 00,2645           12567                           TCF      GENDDV                                #  MPAC NOW LESS THAN BUF - DIVIDE AS USUAL
002030:
002031: 00,2646           34750                 +2        CAF      POSMAX                                #  SET MAJOR PART OF RESULT.
002032: 00,2647           54154                           TS       MPAC
002033:
002034: 00,2650           40131                           CS       BUF        +1                         #  FORM DIVIDEND OF MINOR PART OF RESULT.
002035: 00,2651           60155                           AD       MPAC       +1
002036: 00,2652           12623                           TCF      ENDMAXDV                              #  GO ADD C AND DO DIVIDE, ATTACHING SIGN
002037:                                                                                                  #  BEFORE EXITING.
002038:


002040:                                                                                                  #  VECTOR DIVIDED BY SCALAR, V/SC, IS EXECUTED HERE. THE VECTOR IS NOW IN MPAC WITH SCALAR IN BUF.
002041:
002042: 00,2653           44770        V/SC2              CS       ONE                                   #  INITIALIZE DIVIDEND NORMALIZATION COUNT
002043: 00,2654           54137                           TS       DVNORMCT                              #  AND DIVISION SIGN REGISTER.
002044: 00,2655           54127                           TS       VBUF       +5
002045:
002046: 00,2656           03007                           TC       VECAGREE                              #  FORCE SIGN AGREEMENT IN VECTOR
002047:
002048: 00,2657           52131                           DXCH     BUF
002049: 00,2660           07500                           TC       ALSIGNAG                              #  SIGN AGREE BUF
002050: 00,2661           52131                           DXCH     BUF
002051: 00,2662           10130                           CCS      BUF                                   #  FORCE DIVISOR POSITIVE WITH MAJOR PART
002052: 00,2663           12720                           TCF      /BUF+                                 #  NON-ZERO (IF POSSIBLE).
002053: 00,2664           12666                           TCF      +2
002054: 00,2665           12714                           TCF      /BUF-
002055:
002056: 00,2666           56131                           XCH      BUF        +1                         #  SHIFT VECTOR AND SCALAR LEFT 14.
002057: 00,2667           56130                           XCH      BUF
002058: 00,2670           56155                           XCH      MPAC       +1
002059: 00,2671           56154                           XCH      MPAC
002060: 00,2672           00006                           EXTEND                                         #  CHECK FOR OVERFLOW IN EACH CASE.
002061: 00,2673           12675                           BZF      +2
002062: 00,2674           12404                           TCF      DVOVF
002063:
002064: 00,2675           56160                           XCH      MPAC       +4
002065: 00,2676           56157                           XCH      MPAC       +3
002066: 00,2677           00006                           EXTEND
002067: 00,2700           12702                           BZF      +2
002068: 00,2701           12404                           TCF      DVOVF
002069:
002070: 00,2702           56162                           XCH      MPAC       +6
002071: 00,2703           56161                           XCH      MPAC       +5
002072: 00,2704           00006                           EXTEND
002073: 00,2705           12707                           BZF      +2
002074: 00,2706           12404                           TCF      DVOVF
002075:
002076: 00,2707           10130                           CCS      BUF
002077: 00,2710           12720                           TCF      /BUF+
002078: 00,2711           12404                           TCF      DVOVF                                 #  ZERO DIVISOR - OVERFLOW.
002079: 00,2712           12714                           TCF      /BUF-
002080: 00,2713           12404                           TCF      DVOVF
002081:
002082: 00,2714           00006        /BUF-              EXTEND                                         #  ON NEGATIVE, COMPLEMENT BUF AND MAINTAIN
002083: 00,2715           40131                           DCS      BUF                                   #  DVSIGN IN VBUF +5.
002084: 00,2716           52131                           DXCH     BUF
002085: 00,2717           24127                           INCR     VBUF       +5
002086:


002088: 00,2720           00006        /BUF+              EXTEND
002089: 00,2721           30131                           DCA      BUF                                   #  LEAVE ABS(ORIG DIVISOR) IN BUF2
002090: 00,2722           52134                           DXCH     BUF2                                  #  FOR OVERFLOW TESTING
002091: 00,2723           12731                           TCF      /NORM                                 #  NORMALIZE DIVISOR IN BUF.
002092:
002093: 00,2724           00006        /NORM2             EXTEND                                         #  IF LESS THAN .5, AUGMENT DVNORMCT AND
002094: 00,2725           24137                           AUG      DVNORMCT                              #  DOUBLE DIVISOR.
002095: 00,2726           00006                           EXTEND
002096: 00,2727           30131                           DCA      BUF
002097: 00,2730           20131                           DAS      BUF
002098:
002099: 00,2731           30130        /NORM              CA       BUF                                   #  SEE IF DIVISOR NORMALIZED.
002100: 00,2732           60000                           DOUBLE
002101: 00,2733           54000                           OVSK
002102: 00,2734           12724                           TCF      /NORM2                                #  DOUBLE AND TRY AGAIN IF NOT.
002103:
002104: 00,2735           02747                           TC       V/SCDV                                #  DO X COMPONENT DIVIDE.
002105: 00,2736           52160                           DXCH     MPAC       +3                         #  SUPPLY ARGUMENTS IN USUAL SEQUENCE.
002106: 00,2737           52155                           DXCH     MPAC
002107: 00,2740           52160                           DXCH     MPAC       +3
002108:
002109: 00,2741           02747                           TC       V/SCDV                                #  Y COMPONENT.
002110: 00,2742           52162                           DXCH     MPAC       +5
002111: 00,2743           52155                           DXCH     MPAC
002112: 00,2744           52162                           DXCH     MPAC       +5
002113:
002114: 00,2745           02747                           TC       V/SCDV                                #  Z COMPONENT.
002115: 00,2746           17354                           TCF      VROTATEX                              #  GO RE-ARRANGE COMPONENTS BEFORE EXIT.
002116:


002118:                                                                                                  #  SUBROUTINE USED BY V/SC TO DIVIDE VECTOR COMPONENT IN MPAC,+1 BY THE SCALAR GIVEN IN BUF.
002119:
002120: 00,2747           30127        V/SCDV             CA       VBUF       +5                         #  REFLECTS SIGN OF SCALAR.
002121: 00,2750           54136                           TS       DVSIGN
002122:
002123: 00,2751           10154                           CCS      MPAC                                  #  FORCE MPAC POSITIVE, EXITING ON ZERO.
002124: 00,2752           12766                           TCF      /MPAC+
002125: 00,2753           12755                           TCF      +2
002126: 00,2754           12762                           TCF      /MPAC-
002127:
002128: 00,2755           10155                           CCS      MPAC       +1
002129: 00,2756           12766                           TCF      /MPAC+
002130: 00,2757           00002                           TC       Q
002131: 00,2760           12762                           TCF      /MPAC-
002132: 00,2761           00002                           TC       Q
002133:
002134: 00,2762           00006        /MPAC-             EXTEND                                         #  USUAL COMPLEMENTING AND SETTING OF SIGN.
002135: 00,2763           40155                           DCS      MPAC
002136: 00,2764           52155                           DXCH     MPAC
002137: 00,2765           24136                           INCR     DVSIGN
002138:
002139: 00,2766           44770        /MPAC+             CS       ONE                                   #  INITIALIZE NEAR-ONE SWITCH.
002140: 00,2767           54140                           TS       MAXDVSW
002141:
002142: 00,2770           40154                           CS       MPAC                                  #  CHECK POSSIBLE OVERFLOW.
002143: 00,2771           60133                           AD       BUF2                                  #  UNNORMALIZED INPUT DIVISOR.
002144: 00,2772           10000                           CCS      A
002145: 00,2773           13003                           TCF      DDVCALL                               #  NOT NEAR-ONE
002146: 00,2774           12776                           TCF      +2                                    #  +0 IS JUST POSSIBLE
002147: 00,2775           12404                           TCF      DVOVF                                 #  NO HOPE
002148: 00,2776           54140                           TS       MAXDVSW                               #  SIGNAL POSSIBLE NEAR-ONE CASE
002149: 00,2777           40155                           CS       MPAC       +1                         #  SEE IF DIVISION CAN BE DONE
002150: 00,3000           60134                           AD       BUF2       +1
002151: 00,3001           00006                           EXTEND
002152: 00,3002           62404                           BZMF     DVOVF
002153:
002154: 00,3003           52155        DDVCALL            DXCH     MPAC                                  #  CALL PRE-DIVIDE NORMALIZATION.
002155: 00,3004           50137                           INDEX    DVNORMCT
002156: 00,3005           12564                           TCF      MAXTEST
002157:


002159: 00,3006           32506        SLOPELO            DEC      .8324
002160:
002161: 00,3007           56002        VECAGREE           XCH      Q                                     #  SAVE Q IN A
002162: 00,3010           52155                           DXCH     MPAC
002163: 00,3011           07500                           TC       ALSIGNAG                              #  SIGNAGREE MPAC
002164: 00,3012           52155                           DXCH     MPAC
002165: 00,3013           52160                           DXCH     MPAC       +3
002166: 00,3014           07500                           TC       ALSIGNAG                              #  SIGN AGREE MPAC +3
002167: 00,3015           52160                           DXCH     MPAC       +3
002168: 00,3016           52162                           DXCH     MPAC       +5
002169: 00,3017           07500                           TC       ALSIGNAG                              #  SIGNAGREE MPAC +5
002170: 00,3020           52162                           DXCH     MPAC       +5
002171: 00,3021           00000                           TC       A
002172:


002174:                                                                                                  #  THE FOLLOWING ROUTINE EXECUTES THE UNIT INSTRUCTION, WHICH TAKES THE UNIT OF THE VECTOR IN MPAC.
002175:
002176: 00,3022           03007        UNIT               TC       VECAGREE                              #  FORCE SIGN AGREEMENT IN VECTOR
002177: 00,3023           07466                           TC       MPACVBUF                              #  SAVE ARGUMENT IN VBUF
002178: 00,3024           34772                           CAF      ZERO                                  #  MUST SENSE OVERFLOW IN FOLLOWING DOT.
002179: 00,3025           56121                           XCH      OVFIND
002180: 00,3026           54141                           TS       TEM1
002181: 00,3027           03316                           TC       VSQSUB                                #  DOT MPAC WITH ITSELF.
002182: 00,3030           30141                           CA       TEM1
002183: 00,3031           56121                           XCH      OVFIND
002184: 00,3032           00006                           EXTEND
002185: 00,3033           13035                           BZF      +2
002186: 00,3034           12404                           TCF      DVOVF
002187: 00,3035           00006                           EXTEND
002188: 00,3036           30155                           DCA      MPAC                                  #  LEAVE THE SQUARE OF THE LENGTH OF THE
002189: 00,3037           50120                           INDEX    FIXLOC                                #  ARGUMENT IN LVSQUARE.
002190: 00,3040           52043                           DXCH     LVSQUARE
002191:
002192: 00,3041           03342                           TC       SQRTSUB                               #  GO TAKE THE NORMALIZED SQUARE ROOT.
002193:
002194: 00,3042           10154                           CCS      MPAC                                  #  CHECK FOR UNIT OVERFLOW.
002195: 00,3043           13050                           TCF      +5                                    #  MPAC IS NOT LESS THAN .5 UNLESS
002196: 00,3044           54001                           TS       L
002197: 00,3045           50120                           INDEX    FIXLOC
002198: 00,3046           52045                           DXCH     LV
002199: 00,3047           12404                           TCF      DVOVF                                 #  INPUT TO SQRTSUB WAS 0.
002200:
002201: 00,3050           44321                           CS       FOURTEEN                              #  SEE IF THE INPUT WAS SO SMALL THAT THE
002202: 00,3051           60135                           AD       MPTEMP                                #  FIRST TWO REGISTERS OF THE SQUARE WERE 0
002203: 00,3052           10000                           CCS      A
002204: 00,3053           40000                           COM                                            #  IF SO, SAVE THE NEGATIVE OF THE SHIFT
002205: 00,3054           13132                           TCF      SMALL                                 #  COUNT -15D.
002206:
002207: 00,3055           13064                           TCF      LARGE                                 #  (THIS IS USUALLY THE CASE.)
002208:
002209: 00,3056           44776                           CS       THIRTEEN                              #  IF THE SHIFT COUNT WAS EXACTLY 14, SET
002210: 00,3057           54135                           TS       MPTEMP                                #  THE PRE-DIVIDE NORM COUNT TO -13D.
002211:
002212: 00,3060           30154                           CA       MPAC                                  #  SHIFT THE LENGTH RIGHT 14 BEFORE STORING
002213: 00,3061           54001        SMALL2             TS       L                                     #  (SMALL EXITS TO THIS POINT).
002214: 00,3062           34772                           CAF      ZERO
002215: 00,3063           13111                           TCF      LARGE2                                #  GO TO STORE LENGTH AND PROCEED.
002216:
002217: 00,3064           10135        LARGE              CCS      MPTEMP                                #  MOST ALL CASES COME HERE.
002218: 00,3065           13073                           TCF      LARGE3                                #  SEE IF NO NORMALIZATION WAS REQUIRED BY
002219: 00,3066           42024                           CS       SRDDV                                 #  SQRT, AND IF SO, SET UP FOR A SHIFT
002220: 00,3067           54135                           TS       MPTEMP                                #  RIGHT 1 BEFORE DIVIDING TO PRODUCE
002221: 00,3070           00006                           EXTEND                                         #  THE DESIRED HALF UNIT VECTOR.
002222: 00,3071           30155                           DCA      MPAC


002224: 00,3072           13111                           TCF      LARGE2
002225:


002227: 00,3073           40000        LARGE3             COM                                            #  LEAVE NEGATIVE OF SHIFT COUNT-1 FOR
002228: 00,3074           54135                           TS       MPTEMP                                #  PREDIVIDE LEFT SHIFT.
002229:
002230: 00,3075           40000                           COM                                            #  PICK UP REQUIRED SHIFTING BIT TO UNNORM-
002231: 00,3076           50000                           INDEX    A                                     #  ALIZE THE SQRT RESULT.
002232: 00,3077           34753                           CAF      BIT14
002233: 00,3100           54130                           TS       BUF
002234: 00,3101           00006                           EXTEND
002235: 00,3102           70155                           MP       MPAC       +1
002236: 00,3103           56130                           XCH      BUF
002237: 00,3104           00006                           EXTEND                                         #  (UNNORMALIZE THE SQRT FOR LV).
002238: 00,3105           70154                           MP       MPAC
002239: 00,3106           56001                           XCH      L
002240: 00,3107           60130                           AD       BUF
002241: 00,3110           56001                           XCH      L
002242:
002243: 00,3111           50120        LARGE2             INDEX    FIXLOC
002244: 00,3112           52045                           DXCH     LV                                    #  LENGTH NOW STORED IN WORK AREA.
002245:
002246: 00,3113           44770                           CS       ONE
002247: 00,3114           54140                           TS       MAXDVSW                               #  NO MAXDV CASES IN UNIT.
002248:
002249: 00,3115           52123                           DXCH     VBUF                                  #  PREPARE X COMPONENT FOR DIVIDE, SETTING
002250: 00,3116           52155                           DXCH     MPAC                                  #  LENGTH OF VECTOR AS DIVISOR IN BUF.
002251: 00,3117           52131                           DXCH     BUF
002252: 00,3120           03150                           TC       UNITDV
002253:
002254: 00,3121           52125                           DXCH     VBUF       +2                         #  DO Y AND Z IN USUAL FASHION SO WE CAN
002255: 00,3122           52155                           DXCH     MPAC                                  #  EXIT THROUGH VROTATEX.
002256: 00,3123           52160                           DXCH     MPAC       +3
002257: 00,3124           03150                           TC       UNITDV
002258:
002259: 00,3125           52127                           DXCH     VBUF       +4
002260: 00,3126           52155                           DXCH     MPAC
002261: 00,3127           52162                           DXCH     MPAC       +5
002262: 00,3130           03150                           TC       UNITDV
002263: 00,3131           17354                           TCF      VROTATEX                              #  AND EXIT.
002264:


002266:                                                                                                  #  IF THE LENGTH OF THE ARGUMENT VECTOR WAS LESS THAN 2(-28), EACH COMPONENT MUST BE SHIFTED LEFT AT LEAST
002267:                                                                                                  #  14 PLACES BEFORE THE DIVIDE. NOTE THAT IN THIS CASE, THE MAJOR PART OF EACH COMPONENT IS ZERO.
002268:
002269: 00,3132           54135        SMALL              TS       MPTEMP                                #  NEGATIVE OF PRE-DIVIDE SHIFT COUNT.
002270:
002271: 00,3133           34772                           CAF      ZERO                                  #  SHIFT EACH COMPONENT LEFT 14.
002272: 00,3134           56123                           XCH      VBUF       +1
002273: 00,3135           56122                           XCH      VBUF
002274: 00,3136           56125                           XCH      VBUF       +3
002275: 00,3137           56124                           XCH      VBUF       +2
002276: 00,3140           56127                           XCH      VBUF       +5
002277: 00,3141           56126                           XCH      VBUF       +4
002278:
002279: 00,3142           40135                           CS       MPTEMP
002280: 00,3143           50000                           INDEX    A
002281: 00,3144           34753                           CAF      BIT14
002282: 00,3145           00006                           EXTEND
002283: 00,3146           70154                           MP       MPAC
002284: 00,3147           13061                           TCF      SMALL2
002285:
002286: 00,3150     4776               THIRTEEN           =        OCT15
002287: 00,3150     4321               FOURTEEN           =        OCT16
002288: 00,3150     4321               OCT16              =        R1D1
002289:


002291:                                                                                                  #  THE FOLLOWING ROUTINE SETS UP THE CALL TO THE DIVIDE ROUTINES.
002292:
002293: 00,3150           10154        UNITDV             CCS      MPAC                                  #  FORCE MPAC POSITIVE IF POSSIBLE, SETTING
002294: 00,3151           13167                           TCF      UMPAC+                                #  DVSIGN ACCORDING TO THE SIGN OF MPAC
002295: 00,3152           13154                           TCF      +2                                    #  SINCE THE DIVISOR IS ALWAYS POSITIVE
002296: 00,3153           13161                           TCF      UMPAC-                                #  HERE.
002297:
002298: 00,3154           10155                           CCS      MPAC       +1
002299: 00,3155           13167                           TCF      UMPAC+
002300: 00,3156           00002                           TC       Q                                     #  EXIT IMMEDIATELY ON ZERO.
002301: 00,3157           13161                           TCF      UMPAC-
002302: 00,3160           00002                           TC       Q
002303:
002304: 00,3161           44772        UMPAC-             CS       ZERO                                  #  IF NEGATIVE, SET -0 IN DVSIGN FOR FINAL
002305: 00,3162           54136                           TS       DVSIGN                                #  COMPLEMENT.
002306: 00,3163           00006                           EXTEND
002307: 00,3164           40155                           DCS      MPAC                                  #  PICK UP ABSOLUTE VALUE OF ARG AND JUMP.
002308: 00,3165           50135                           INDEX    MPTEMP
002309: 00,3166           12563                           TCF      MAXTEST    -1
002310:
002311: 00,3167           54136        UMPAC+             TS       DVSIGN                                #  SET DVSIGN FOR POSITIVE QUOTIENT.
002312: 00,3170           52155                           DXCH     MPAC
002313: 00,3171           50135                           INDEX    MPTEMP
002314: 00,3172           12563                           TCF      MAXTEST    -1
002315:


002317:                                                                                                  #  MISCELLANEOUS UNARY OPERATIONS.
002318:
002319: 00,3173           03277        DSQ                TC       DSQSUB                                #  SQUARE THE DP CONTENTS OF MPAC.
002320: 00,3174           16030                           TCF      DANZIG
002321:
002322: 00,3175           10163        ABVALABS           CCS      MODE                                  #  ABVAL OR ABS INSTRUCTION.
002323: 00,3176           13225                           TCF      ABS                                   #  DO ABS ON SCALAR.
002324: 00,3177           13225                           TCF      ABS
002325:
002326: 00,3200           03316        ABVAL              TC       VSQSUB                                #  DOT MPAC WITH ITSELF.
002327: 00,3201           22163                           LXCH     MODE                                  #  MODE IS NOW DP (L ZERO AFTER DAS).
002328:
002329: 00,3202           00006                           EXTEND                                         #  STORE SQUARE OF LENGTH IN WORK AREA.
002330: 00,3203           30155                           DCA      MPAC
002331: 00,3204           50120                           INDEX    FIXLOC
002332: 00,3205           52043                           DXCH     LVSQUARE
002333:


002335:                                                                                                  #  PROGRAM DESCRIPTION - SUBROUTINE SQRT
002336:                                                                                                  #
002337:                                                                                                  #  FUNCTIONAL DESCRIPTION - DOUBLE PRECISION SQUARE ROOT ROUTINE
002338:                                                                                                  #
002339:                                                                                                  #        THIS PROGRAM TAKES THE SQUARE ROOT OF THE 27 OR 28 MOST SIGNIFICANT BITS IN THE TRIPLE PRECISION SET OF
002340:                                                                                                  #        NUMBERS - MPAC, MPAC+1, AND MPAC+2.  THE ROOT IS RETURNED DOUBLE PRECISION IN MPAC AND MPAC+1.
002341:                                                                                                  #
002342:                                                                                                  #  WARNING - THIS SUBROUTINE USES A TRIPLE PRECISION INPUT. THE PROGRAMMER MUST ASSURE THE CONTENTS OF MPAC+2
002343:                                                                                                  #        ESPECIALLY IF THE CONTENTS OF MPAC IS SMALL OR ZERO.  FOR DETAILS SEE STG MEMO NO.949.
002344:                                                                                                  #
002345:                                                                                                  #  CALLING SEQUENCE - IN INTERPRETIVE MODE I.E., FOLLOWING TC  INTPRET, SQRT   NO ADDRESS IS ALLOWED
002346:
002347:                                                                                                  #  INPUT SCALING  THE BINARY POINT IS ASSUMED TO THE RIGHT OF BIT 15. THE ANSWER IS RETURNED WITH THE SAME SCALING.
002348:
002349:                                                                                                  #  SUBROUTINES - GENSCR, MPACSHR, SQRTSUB, ABORT
002350:
002351:                                                                                                  #  ABORT EXIT MODE - ABORTS ON NEGATIVE INPUT -1.2X10E-4 (77775  OCTAL) OR LESS.
002352:                                                                                                  #        DISPLAYS ERROR CODE 1302
002353:                                                                                                  #                TC      ABORT
002354:                                                                                                  #                OCT     1302
002355:
002356:                                                                                                  #  DEBRIS - LOCATIONS BUF, MPTEMP, ADDRWD ARE USED
002357:
002358: 00,3206           03342        SQRT               TC       SQRTSUB                               #  TAKE THE SQUARE ROOT OF MPAC.
002359: 00,3207           10135                           CCS      MPTEMP                                #  RETURNED NORMALIZED SQUARE ROOT. SEE IF
002360: 00,3210           13212                           TCF      +2                                    #  ANY UN-NORMALIZATION REQUIRED AND EXIT
002361: 00,3211           16030                           TCF      DANZIG                                #  IF NOT.
002362:
002363: 00,3212           63726                           AD       NEG12                                 #  A RIGHT SHIFT OF MORE THAN 13 COULD BE
002364: 00,3213           00006                           EXTEND                                         #  REQUIRED IF INPUT WAS ZERO IN MPAC,+1.
002365: 00,3214           63220                           BZMF     SQRTSHFT                              #  GOES HERE IN MOST CASES.
002366: 00,3215           22007                           ZL                                             #  IF A LONG SHIFT IS REQUIRED, GO TO
002367: 00,3216           22116                           LXCH     ADDRWD                                #  GENERAL RIGHT SHIFT ROUTINES.
002368: 00,3217           12303                           TCF      GENSCR     +4                         #  ADDRWD WAS ZERO TO PREVENT ROUND.
002369:
002370: 00,3220           50135        SQRTSHFT           INDEX    MPTEMP                                #  SELECT SHIFTING BIT AND EXIT THROUGH
002371: 00,3221           34752                           CAF      BIT15                                 #  SHIFT ROUTINES.
002372: 00,3222           54135                           TS       MPTEMP
002373: 00,3223           34772                           CAF      ZERO                                  #  TO ZERO MPAC +2 IN THE PROCESS.
002374: 00,3224           12036                           TCF      MPACSHR    +3
002375:
002376: 00,3225           06672        ABS                TC       BRANCH                                #  TEST SIGN OF MPAC AND COMPLEMENT IF
002377: 00,3226           16030                           TCF      DANZIG
002378: 00,3227           16030                           TCF      DANZIG
002379: 00,3230           17624                           TCF      COMP
002380:


002382: 00,3231           44766        VDEF               CS       FOUR                                  #  VECTOR DEFINE - ESSENTIALLY TREATS
002383: 00,3232           26166                           ADS      PUSHLOC                               #  SCALAR IN MPAC AS X COMPONENT, PUSHES UP
002384: 00,3233           00006                           EXTEND                                         #  FOR Y AND THEN AGAIN FOR Z.
002385: 00,3234           50000                           INDEX    A
002386: 00,3235           30003                           DCA      2
002387: 00,3236           52160                           DXCH     MPAC       +3
002388: 00,3237           00006                           EXTEND
002389: 00,3240           50166                           INDEX    PUSHLOC
002390: 00,3241           30001                           DCA      0
002391: 00,3242           52162                           DXCH     MPAC       +5
002392: 00,3243           16470                           TCF      VMODE                                 #  MODE IS NON VECTOR.
002393:
002394: 00,3244           03316        VSQ                TC       VSQSUB                                #  DOT MPAC WITH ITSELF.
002395: 00,3245           17266                           TCF      DMODE                                 #  MODE IS NOW DP.
002396:
002397: 00,3246           00006        PUSH               EXTEND                                         #  PUSH DOWN MPAC LEAVING IT LOADED.
002398: 00,3247           30155                           DCA      MPAC
002399: 00,3250           50166                           INDEX    PUSHLOC                               #  PUSH DOWN FIRST TWO REGISTERS IN EACH
002400: 00,3251           52001                           DXCH     0
002401:
002402: 00,3252           50163                           INDEX    MODE                                  #  INCREMENT PUSHDOWN POINTER.
002403: 00,3253           36213                           CAF      NO.WDS
002404: 00,3254           26166                           ADS      PUSHLOC
002405:
002406: 00,3255           10163                           CCS      MODE
002407: 00,3256           13271                           TCF      TPUSH                                 #  PUSH DOWN MPAC +2.
002408: 00,3257           16030                           TCF      DANZIG                                #  DONE FOR DP.
002409:
002410: 00,3260           00006                           EXTEND                                         #  ON VECTOR, PUSH DOWN Y AND Z COMPONENTS.
002411: 00,3261           30160                           DCA      MPAC       +3
002412: 00,3262           50166                           INDEX    PUSHLOC
002413: 00,3263           51775                           DXCH     0          -4
002414: 00,3264           00006                           EXTEND
002415: 00,3265           30162                           DCA      MPAC       +5
002416: 00,3266           50166                           INDEX    PUSHLOC
002417: 00,3267           51777                           DXCH     0          -2
002418: 00,3270           16030                           TCF      DANZIG
002419:
002420: 00,3271           30156        TPUSH              CA       MPAC       +2
002421: 00,3272           16523                           TCF      ENDTPUSH   +2
002422:
002423: 00,3273           50120        RVQ                INDEX    FIXLOC                                #  RVQ - RETURN VIA QPRET.
002424: 00,3274           30052                           CA       QPRET
002425: 00,3275           54117                           TS       POLISH
002426: 00,3276           16621                           TCF      GOTO       +4                         #  (ASSUME QPRET POINTS TO FIXED ONLY.)
002427:


002429:                                                                                                  #  THE FOLLOWING SUBROUTINES ARE USED IN SQUARING MPAC, IN BOTH THE SCALAR AND VECTOR SENSE. THEY ARE
002430:                                                                                                  #  SPECIAL CASES OF DMPSUB AND DOTSUB, PUT IN TO SAVE SOME TIME.
002431:
002432: 00,3277           30155        DSQSUB             CA       MPAC       +1                         #  SQUARES THE SCALAR CONTENTS OF MPAC.
002433: 00,3300           00006                           EXTEND
002434: 00,3301           70000                           SQUARE
002435: 00,3302           54156                           TS       MPAC       +2
002436: 00,3303           34772                           CAF      ZERO                                  #  FORM 2(CROSS TERM).
002437: 00,3304           56155                           XCH      MPAC       +1
002438: 00,3305           00006                           EXTEND
002439: 00,3306           70154                           MP       MPAC
002440: 00,3307           20001                           DDOUBL                                         #  AND MAYBE OVEFLOW.
002441: 00,3310           20156                           DAS      MPAC       +1                         #  AND SET A TO NET OVERFLOW.
002442: 00,3311           56154                           XCH      MPAC
002443: 00,3312           00006                           EXTEND
002444: 00,3313           70000                           SQUARE
002445: 00,3314           20155                           DAS      MPAC
002446: 00,3315           00002                           TC       Q
002447:
002448: 00,3316           00006        VSQSUB             EXTEND                                         #  DOTS THE VECTOR IN MPAC WITH ITSELF.
002449: 00,3317           22137                           QXCH     DOTRET
002450: 00,3320           03277                           TC       DSQSUB                                #  SQUARE THE X COMPONENT.
002451: 00,3321           52160                           DXCH     MPAC       +3
002452: 00,3322           52155                           DXCH     MPAC
002453: 00,3323           52131                           DXCH     BUF                                   #  SO WE CAN END IN DOTSUB.
002454: 00,3324           30156                           CA       MPAC       +2
002455: 00,3325           54132                           TS       BUF        +2
002456:
002457: 00,3326           03277                           TC       DSQSUB                                #  SQUARE Y COMPONENT.
002458: 00,3327           52156                           DXCH     MPAC       +1
002459: 00,3330           20132                           DAS      BUF        +1
002460: 00,3331           60154                           AD       MPAC
002461: 00,3332           60130                           AD       BUF
002462: 00,3333           54130                           TS       BUF
002463: 00,3334           13336                           TCF      +2
002464: 00,3335           54121                           TS       OVFIND                                #  IF OVERFLOW.
002465:
002466: 00,3336           52162                           DXCH     MPAC       +5
002467: 00,3337           52155                           DXCH     MPAC
002468: 00,3340           03277                           TC       DSQSUB                                #  SQUARE Z COMPONENT.
002469: 00,3341           17154                           TCF      ENDDOT                                #  END AS IN DOTSUB.
002470:


002472:                                                                                                  #  DOUBLE PRECISION SQUARE ROOT ROUTINE. TAKE THE SQUARE ROOT OF THE TRIPLE PRECISION (MPAC +2 USED ONLY
002473:                                                                                                  #  IN NORMALIZATION) CONTENTS OF MPAC AND LEAVE THE NORMALIZED RESULT IN MPAC (C(MPAC) GREATER THAN OR EQUAL TO
002474:                                                                                                  #  .5). THE RIGHT SHIFT COUNT (TC UNNORMALIZE) IS LEFT IN MPTEMP.
002475:
002476: 00,3342           34772        SQRTSUB            CAF      ZERO                                  #  START BY ZEROING RIGHT SHIFT COUNT.
002477: 00,3343           54135                           TS       MPTEMP
002478:
002479: 00,3344           10154                           CCS      MPAC                                  #  CHECK FOR POSITIVE ARGUMENT, SHIFTING
002480: 00,3345           13403                           TCF      SMPAC+                                #  FIRST SIGNIFICANT MPAC REGISTER INTO
002481: 00,3346           13350                           TCF      +2                                    #  MPAC ITSELF.
002482: 00,3347           13372                           TCF      SQRTNEG                               #  SEE IF MAG OF ARGUMENT LESS THAN 10(-4).
002483:
002484: 00,3350           56156                           XCH      MPAC       +2                         #  MPAC IS ZERO - SHIFT LEFT 14.
002485: 00,3351           56155                           XCH      MPAC       +1
002486: 00,3352           54154                           TS       MPAC
002487: 00,3353           34774                           CAF      SEVEN                                 #  AUGMENT RIGHT SHIFT COUNTER.
002488: 00,3354           54135                           TS       MPTEMP
002489:
002490: 00,3355           10154                           CCS      MPAC                                  #  SEE IF MPAC NOW PNZ.
002491: 00,3356           13403                           TCF      SMPAC+
002492: 00,3357           13361                           TCF      +2
002493: 00,3360           13375                           TCF      ZEROANS                               #  NEGATIVE BUT LESS THAN 10(-4) IN MAG.
002494:
002495: 00,3361           56155                           XCH      MPAC       +1                         #  XERO - SHIFT LEFT 14 AGAIN.
002496: 00,3362           54154                           TS       MPAC
002497: 00,3363           34774                           CAF      SEVEN                                 #  AUGMENT RIGHT SHIFT COUNTER.
002498: 00,3364           26135                           ADS      MPTEMP
002499:
002500: 00,3365           10154                           CCS      MPAC
002501: 00,3366           13403                           TCF      SMPAC+
002502: 00,3367           00002                           TC       Q                                     #  SQRT(0) = 0.
002503: 00,3370           13375                           TCF      ZEROANS
002504: 00,3371           13450                           TCF      FIXROOT                               #  DO NOT LEAVE SQRTSUB WITH -0 IN MPAC.
002505:
002506: 00,3372           10000        SQRTNEG            CCS      A                                     #  ARGUMENT IS NEGATIVE, BUT SEE IF SIGN-
002507: 00,3373           13401                           TCF      SQRTABRT                              #  CORRECTED ARGUMENT IS LESS THAN 10(-4)
002508:
002509: 00,3374           10155                           CCS      MPAC       +1                         #  IN MAGNITUDE. IF SO, CALL ANSWER ZERO.
002510: 00,3375           34772        ZEROANS            CAF      ZERO                                  #  FORCE ANSWER TO ZERO HERE.
002511: 00,3376           13450                           TCF      FIXROOT
002512: 00,3377           13401                           TCF      SQRTABRT
002513: 00,3400           13450                           TCF      FIXROOT
002514:
002515: 00,3401           05726        SQRTABRT           TC       POODOO
002516: 00,3402           21302                           OCT      21302                                 #  SQRT CALLED WITH NEGATIVE ARGUMENT
002517:
002518: 00,3403           62443        SMPAC+             AD       -1/2+2                                #  SEE IF ARGUMENT GREATER THAN OR EQUAL TO
002519: 00,3404           00006                           EXTEND                                         #  .5.


002521: 00,3405           63453                           BZMF     SRTEST                                #  IF SO, SEE IF LESS THAN .25.
002522:
002523: 00,3406           52155                           DXCH     MPAC                                  #  WE WILL TAKE THE SQUARE ROOT OF MPAC/2.
002524: 00,3407           22021                           LXCH     SR                                    #  SHIFT RIGHT 1 AND GO TO THE SQRT ROUTINE
002525: 00,3410           00006                           EXTEND
002526: 00,3411           74753                           MP       HALF
002527: 00,3412           52155                           DXCH     MPAC
002528: 00,3413           56021                           XCH      SR
002529: 00,3414           26155                           ADS      MPAC       +1                         #  GUARANTEED NO OVERFLOW.
002530:
002531: 00,3415           32314        ARGHI              CAF      SLOPEHI                               #  ARGUMENT BETWEEN .25 AND .5. GET A
002532: 00,3416           00006                           EXTEND                                         #  LINEAR APPROXIMATION FOR THIS RANGE.
002533: 00,3417           70154                           MP       MPAC
002534: 00,3420           62565                           AD       BIASHI                                #  X0/2 = (MPAC/2)(SLOPHI) + BIASHI/2.
002535:
002536: 00,3421           54130                 +4        TS       BUF                                   #  X0/2 (ARGLO ENTERS HERE).
002537: 00,3422           30154                           CA       MPAC                                  #  SINGLE-PRECISION THROUGHOUT.
002538: 00,3423           00006                           EXTEND
002539: 00,3424           74753                           MP       HALF                                  #  .5(MPAC/2)
002540: 00,3425           00006                           EXTEND
002541: 00,3426           10130                           DV       BUF                                   #  .5(MPAC/2)/(X0/2)
002542: 00,3427           26130                           ADS      BUF                                   #  X1 = X0/2 + .5(MPAC/2)/(X0/2).
002543:
002544: 00,3430           00006                           EXTEND
002545: 00,3431           74753                           MP       HALF                                  #  FORM UP X1/2.
002546: 00,3432           52155                           DXCH     MPAC                                  #  SAVE AND BRING OUT ARGUMENT.
002547: 00,3433           00006                           EXTEND                                         #  TAKE DP QUOTIENT WITH X1.
002548: 00,3434           10130                           DV       BUF
002549: 00,3435           54131                           TS       BUF        +1                         #  SAVE MAJOR PART OF QUOTIENT.
002550: 00,3436           34772                           CAF      ZERO                                  #  FORM MINOR PART OF QUOTIENT USING
002551: 00,3437           56001                           XCH      L                                     #  (REMAINDER,0).
002552: 00,3440           00006                           EXTEND
002553: 00,3441           10130                           DV       BUF
002554: 00,3442           54001                           TS       L                                     #  IN PREPARATION FOR DAS.
002555: 00,3443           30131                           CA       BUF        +1
002556: 00,3444           20155                           DAS      MPAC                                  #  X2 = X1/2 + (MPAC/2)X1
002557:
002558: 00,3445           00006                           EXTEND                                         #  OVERFLOWS IF ARG. NEAR POSMAX.
002559: 00,3446           13452                           BZF      TCQBNK00
002560: 00,3447           34750                           CAF      POSMAX
002561: 00,3450           54154        FIXROOT            TS       MPAC
002562: 00,3451           54155                           TS       MPAC       +1
002563: 00,3452           00002        TCQBNK00           TC       Q                                     #  RETURN TO CALLER TO UNNORMALIZE, ETC.
002564:


002566: 00,3453           64754        SRTEST             AD       QUARTER                               #  ARGUMENT WAS LESS THAN .5, SEE IF LESS
002567: 00,3454           00006                           EXTEND                                         #  THAN .25.
002568: 00,3455           63477                           BZMF     SQRTNORM                              #  IF SO, BEGIN NORMALIZATION.
002569:
002570: 00,3456           52155                           DXCH     MPAC                                  #  IF BETWEEN .5 AND .25, SHIFT RIGHT 1 AND
002571: 00,3457           22021                           LXCH     SR                                    #  START AT ARGLO.
002572: 00,3460           00006                           EXTEND
002573: 00,3461           74753                           MP       HALF
002574: 00,3462           52155                           DXCH     MPAC
002575: 00,3463           56021                           XCH      SR
002576: 00,3464           26155                           ADS      MPAC       +1                         #  NO OVERFLOW.
002577:
002578: 00,3465           33006        ARGLO              CAF      SLOPELO                               #  (NORMALIZED) ARGUMENT BETWEEN .125 AND
002579: 00,3466           00006                           EXTEND                                         #  .25
002580: 00,3467           70154                           MP       MPAC
002581: 00,3470           62270                           AD       BIASLO
002582: 00,3471           13421                           TCF      ARGHI      +4                         #  BEGIN SQUARE ROOT.
002583:
002584: 00,3472           00006        SQRTNM2            EXTEND                                         #  SHIFT LEFT 2 AND INCREMENT RIGHT SHIFT
002585: 00,3473           30156                           DCA      MPAC       +1                         #  COUNT (FOR TERMINAL UNNORMALIZATION).
002586: 00,3474           20156                           DAS      MPAC       +1
002587: 00,3475           60154                           AD       MPAC
002588: 00,3476           26154                           ADS      MPAC                                  #  (NO OVERFLOW).
002589:
002590: 00,3477           24135        SQRTNORM           INCR     MPTEMP                                #  FIRST TIME THROUGH, JUST SHIFT LEFT 1
002591: 00,3500           00006                           EXTEND                                         #  (PUTS IN EFFECTIVE RIGHT SHIFT SINCE
002592: 00,3501           30156                           DCA      MPAC       +1                         #  WE WANT MPAC/2).
002593: 00,3502           20156                           DAS      MPAC       +1
002594: 00,3503           60154                           AD       MPAC
002595: 00,3504           26154                           ADS      MPAC                                  #  (AGAIN NO OVERFLOW).
002596: 00,3505           60000                           DOUBLE
002597: 00,3506           54022                           TS       CYL
002598:
002599: 00,3507           10022        NORMTEST           CCS      CYL                                   #  SEE IF ARGUMENT NOW NORMALIZED AT
002600: 00,3510           10022                           CCS      CYL                                   #  GREATER THAN .125.
002601: 00,3511           13472                           TCF      SQRTNM2                               #  NO - SHIFT LEFT 2 MORE AND TRY AGAIN.
002602: 00,3512           13415                           TCF      ARGHI                                 #  YES - NOW BETWEEN .5 AND .25.
002603: 00,3513           13465                           TCF      ARGLO                                 #  ARGUMENT NOW BETWEEN .25 AND .125.
002604:


002606:                                                                                                  #  TRIGONOMETRIC FUNCTION PACKAGE.
002607:
002608:                                                                                                  #        THE FOLLOWING TRIGONOMETRIC FUNCTIONS ARE AVAIALABLE AS INTERPRETIVE OPERATIONS:
002609:
002610:                                                                                                  #        1.      SIN             COMPUTES (1/2)SINE(2 PI MPAC).
002611:                                                                                                  #        2.      COS             COMPUTES (1/2)COSINE(2 PI MPAC).
002612:
002613:                                                                                                  #        3.      ASIN            COMPUTES (1/2PI)ARCSINE(2 MPAC).
002614:                                                                                                  #        4.      ACOS            COMPUTES (1/2PI)ARCCOSINE(2 MPAC).
002615:
002616:                                                                                                  #  SIN-ASIN AND COS-ACOS ARE MUTUALLY INVERSE, IE SIN(ASIN(X)) = X.
002617:
002618: 00,3514           06672        COSINE             TC       BRANCH                                #  FINDS COSINE USING THE IDENTITY
002619: 00,3515           13520                           TCF      +3                                    #  COS(X) = SIN(PI/2 - ABS(X)).
002620: 00,3516           13523                           TCF      PRESINE
002621: 00,3517           13523                           TCF      PRESINE
002622:
002623: 00,3520           00006                 +3        EXTEND
002624: 00,3521           40155                           DCS      MPAC
002625: 00,3522           52155                           DXCH     MPAC
002626:
002627: 00,3523           34754        PRESINE            CAF      QUARTER                               #  PI/2 SCALED.
002628: 00,3524           26154                           ADS      MPAC
002629:
002630: 00,3525           52155        SINE               DXCH     MPAC                                  #  DOUBLE ARGUMENT.
002631: 00,3526           20001                 +1        DDOUBL
002632: 00,3527           54000                           OVSK                                           #  SEE IF OVERFLOW PRESENT.
002633: 00,3530           13533                           TCF      +3                                    #  IF NOT, ARGUMENT OK AS IS.
002634:
002635: 00,3531           00006                           EXTEND                                         #  IF SO, WE LOST (OR GAINED) PI, SO
002636: 00,3532           40001                           DCOM                                           #  COMPLEMENT MPAC USING THE IDENTITY
002637:                                                                                                  #  SIN(X-(+)PI) = SIN(-X).
002638: 00,3533           52155                 +3        DXCH     MPAC
002639: 00,3534           30154                           CA       MPAC                                  #  SEE IF ARGUMENT GREATER THAN .5 IN
002640: 00,3535           60000                           DOUBLE                                         #  MAGNITUDE. IF SO, REDUCE IT TO LESS THAN
002641: 00,3536           54001                           TS       L                                     #  .5 (+-PI/2 SCALED) AS FOLLOWS:
002642: 00,3537           13550                           TCF      SN1
002643:
002644: 00,3540           50000                           INDEX    A                                     #  IF POSITIVE, FORM PI - X, IF NEGATIVE
002645: 00,3541           34752                           CAF      NEG1/2     +1                         #  USE -PI -X.
002646: 00,3542           60000                           DOUBLE
002647: 00,3543           00006                           EXTEND
002648: 00,3544           60154                           SU       MPAC                                  #  GUARANTEED NO OVERFLOW.
002649: 00,3545           54154                           TS       MPAC
002650: 00,3546           40155                           CS       MPAC       +1
002651: 00,3547           54155                           TS       MPAC       +1
002652:


002654: 00,3550           00006        SN1                EXTEND                                         #  SET UP TO EVALUATE HASTINGS POLYNOMIAL
002655: 00,3551           30155                           DCA      MPAC
002656: 00,3552           52134                           DXCH     BUF2
002657: 00,3553           03277                           TC       DSQSUB                                #  SQUARE MPAC.
002658:
002659: 00,3554           07171                           TC       POLY                                  #  EVALUATE FOURTH ORDER POLYNOMIAL.
002660: 00,3555           00003                           DEC      3          B-14
002661: 00,3556           14441 37325                     2DEC     +.3926990796
002662: 00,3560           53250 60764                     2DEC     -.6459637111
002663: 00,3562           12146 21276                     2DEC     +.318758717
002664: 00,3564           75466 71471                     2DEC     -.074780249
002665: 00,3566           00236 32757                     2DEC     +.009694988
002666:
002667: 00,3570           32467                           CAF      LBUF2                                 #  MULTIPLY BY ARGUMENT AND SHIFT LEFT 2.
002668: 00,3571           07055                           TC       DMPSUB     -1
002669:
002670: 00,3572           00006                           EXTEND
002671: 00,3573           30156                           DCA      MPAC       +1
002672: 00,3574           20156                           DAS      MPAC       +1
002673: 00,3575           60154                           AD       MPAC
002674: 00,3576           26154                           ADS      MPAC                                  #  NEITHER SHIFT OVERFLOWS.
002675: 00,3577           00006                           EXTEND
002676: 00,3600           30156                           DCA      MPAC       +1
002677: 00,3601           20156                           DAS      MPAC       +1
002678: 00,3602           60154                           AD       MPAC
002679: 00,3603           26154                           ADS      MPAC
002680: 00,3604           16030                           TCF      DANZIG
002681:


002683:                                                                                                  #  ARCSIN/ARCCOS ROUTINE.
002684:
002685: 00,3605           33626        ARCSIN             CAF      LASINEX                               #  COMPUTE ARCSIN BY USING THE IDENTITY
002686: 00,3606           13610                           TCF      +2                                    #  ARCSIN(X) = PI/2 - ARCCOS(X).
002687:
002688: 00,3607           33710        ARCCOS             CAF      LDANZIG                               #  (EXITS IMMEDIATELY).
002689: 00,3610           54136                           TS       ESCAPE
002690: 00,3611           06672                           TC       BRANCH                                #  TEST SIGN OF INPUT.
002691: 00,3612           13622                           TCF      ACOSST                                #  START IMMEDIATELY IF POSITIVE.
002692: 00,3613           13724                           TCF      ACOSZERO                              #  ARCCOS(0) = PI/2 = .25.
002693: 00,3614           00006                           EXTEND                                         #  IF NEGATIVE, USE THE IDENTITY
002694: 00,3615           40155                           DCS      MPAC                                  #  ARCCOS(X) = PI - ARCCOS(-X), FORCING
002695: 00,3616           52155                           DXCH     MPAC                                  #  ARGUMENT POSITIVE.
002696: 00,3617           33727                           CAF      TCSUBTR                               #  SET EXIT TO DO ABOVE BEFORE
002697: 00,3620           56136                           XCH      ESCAPE                                #  ARCSIN/ARCCOS CONSIDERATIONS.
002698: 00,3621           54137                           TS       ESCAPE2
002699:
002700: 00,3622           44753        ACOSST             CS       HALF                                  #  TEST MAGNITUDE OF INPUT.
002701: 00,3623           60154                           AD       MPAC
002702: 00,3624           10000                           CCS      A
002703: 00,3625           13716                           TCF      ACOSOVF                               #  THIS IS PROBABLY AN OVERFLOW CASE.
002704:
002705: 00,3626           13704        LASINEX            TCF      ASINEX
002706:
002707: 00,3627           13637                           TCF      ACOSST2                               #  NO OVERFLOW - PROCEED.
002708:
002709: 00,3630           10155                           CCS      MPAC       +1                         #  IF MAJOR PART IS .5, CALL ANSWER 0
002710: 00,3631           34772                           CAF      ZERO                                  #  UNLESS MINOR PART NEGATIVE.
002711: 00,3632           13634                           TCF      ACOS=0
002712:
002713: 00,3633           13637                           TCF      ACOSST2
002714:
002715: 00,3634           54155        ACOS=0             TS       MPAC       +1
002716: 00,3635           54154                 +1        TS       MPAC
002717: 00,3636           00136                           TC       ESCAPE
002718:
002719: 00,3637           00006        ACOSST2            EXTEND                                         #  NOW THAT ARGUMENT IS IN PROPER RANGE,
002720: 00,3640           40155                           DCS      MPAC                                  #  BEGIN COMPUTATION. USE HASTINGS
002721: 00,3641           64753                           AD       HALF                                  #  APPROXIMATION ARCCOS(X) = SQRT(1-X)P(X)
002722: 00,3642           52155                           DXCH     MPAC                                  #  IN A SCALED VERSION WHERE P(X) IS A
002723: 00,3643           52134                           DXCH     BUF2                                  #  SEVENTH ORDER POLYNOMIAL.
002724:
002725: 00,3644           03342                           TC       SQRTSUB                               #  RETURNS WITH NORMALIZED SQUARE ROOT.
002726:
002727: 00,3645           10135                           CCS      MPTEMP                                #  SEE IF UN-NORMALIZATION REQUIRED.
002728: 00,3646           13711                           TCF      ACOSSHR                               #  IF SO.
002729:


002731: 00,3647           52155        ACOS3              DXCH     MPAC                                  #  SET UP FOR POLYNOMIAL EVALUATION.
002732: 00,3650           52134                           DXCH     BUF2
002733: 00,3651           52155                           DXCH     MPAC
002734:
002735: 00,3652           07171                           TC       POLY
002736: 00,3653           00006                           DEC      6          B-14
002737: 00,3654           13240 23630                     2DEC     +.353553385                            #  COEFFICIENTS ARE C 2(+I)/PISQRT(2) WHERE
002738: 00,3656           74721 47775                     2DEC*    -.0483017006 B+1*                       #             I
002739: 00,3660           02440 20237                     2DEC*    +.0200273085 B+2*                       #  WHERE C STANDS FOR ORIGINAL COEFFS.
002740: 00,3662           75067 70742                     2DEC*    -.0112931863 B+3*
002741: 00,3664           03436 26756                     2DEC*    +.00695311612 B+4*
002742: 00,3666           74037 57640                     2DEC*    -.00384617957 B+5*
002743: 00,3670           03046 07143                     2DEC*    +.001501297736 B+6*
002744: 00,3672           76654 42244                     2DEC*    -.000284160334 B+7*
002745:
002746: 00,3674           32467                           CAF      LBUF2                                 #  DO FINAL MULTIPLY AND GO TO ANY
002747: 00,3675           07055                           TC       DMPSUB     -1                         #  EPILOGUE SEQUENCES.
002748: 00,3676           00136                           TC       ESCAPE
002749:
002750: 00,3677           00006        SUBTR              EXTEND                                         #  EPILOGUE FOR NEGATIVE INPUTS TO ARCCOS.
002751: 00,3700           40155                           DCS      MPAC
002752: 00,3701           64753                           AD       HALF                                  #  FORMS PI - ARCCOS(-X) = ARCCOS(X).
002753: 00,3702           52155                           DXCH     MPAC
002754: 00,3703           00137                           TC       ESCAPE2                               #  GO TO POSSIBLE ARCSIN EPILOGUE.
002755:
002756: 00,3704           00006        ASINEX             EXTEND
002757: 00,3705           40155                           DCS      MPAC                                  #  ARCSIN EPILOGUE - GET ARCSIN(X)
002758: 00,3706           64754                           AD       QUARTER                               #  = PI/2 - ARCCOS(X).
002759: 00,3707           52155                           DXCH     MPAC
002760: 00,3710           16030        LDANZIG            TCF      DANZIG
002761:


002763: 00,3711           50000        ACOSSHR            INDEX    A                                     #  THE SHIFT RIGHT IS LESS THAN 14 SINCE
002764: 00,3712           34753                           CAF      BIT14                                 #  THE INPUT WAS NON-ZERO DP.
002765: 00,3713           54135                           TS       MPTEMP
002766: 00,3714           02073                           TC       VSHRRND                               #  DP SHIFT RIGHT AND ROUND.
002767: 00,3715           13647                           TCF      ACOS3                                 #  PROCEED.
002768:
002769: 00,3716           00006        ACOSOVF            EXTEND                                         #  IF MAJOR PART WAS ONLY 1 MORE THAN .5,
002770: 00,3717           13634                           BZF      ACOS=0                                #  CALL ANSWER ZERO.
002771:
002772: 00,3720           05671        ACOSABRT           TC       ALARM                                 #  IF OVERFLOW, CALL ANSWER ZERO BUT
002773: 00,3721           01301                           OCT      1301                                  #  SOUND AN ALARM.
002774:
002775: 00,3722           34772                           CAF      ZERO
002776: 00,3723           13634                           TCF      ACOS=0
002777:
002778: 00,3724           34754        ACOSZERO           CAF      QUARTER                               #  ACOS(0) = PI/2.
002779: 00,3725           13635                           TCF      ACOS=0     +1                         #  SET MPAC AND EXIT VIA ESCAPE.
002780:
002781: 00,3726           77763        NEG12              DEC      -12        B-14
002782: 00,3727           13677        TCSUBTR            TCF      SUBTR
002783:


002785:                                                                                                  #  THE FOLLOWING INSTRUCTIONS ARE AVAILABLE FOR SETTING, MODIFYING, AND BRANCHING ON INDEX REGISTERS:
002786:
002787:                                                                                                  #         1.     AXT             ADDRESS TO INDEX TRUE.
002788:                                                                                                  #         2.     AXC             ADDRESS TO INDEX COMPLEMENTED.
002789:                                                                                                  #         3.     LXA             LOAD INDEX FROM ERASABLE.
002790:                                                                                                  #         4.     LXC             LOAD INDEX COMPLEMENTED FROM ERASABLE.
002791:                                                                                                  #         5.     SXA             STORE INDEX IN ERASABLE.
002792:                                                                                                  #         6.     XCHX            EXCHANGE INDEX REGISTER WITH ERASABLE.
002793:
002794:                                                                                                  #         7.     INCR            INCREMENT INDEX REGISTER.
002795:                                                                                                  #         8.     XAD             ERASABLE ADD TO INDEX REGISTER.
002796:                                                                                                  #         9.     XSU             ERASABLE SUBTRACT FROM INDEX REGISTER.
002797:
002798:                                                                                                  #        10.     TIX             BRANCH ON INDEX REGISTER AND DECREMENT.
002799:
002800: 01,2000                                           SETLOC   INTERB1
002801: 01,2000                                           BANK
002802:
002803: 01,2341                                           COUNT*   $$/INTER
002804: 01,2341           02436        AXT                TC       TAGSUB                                #  SELECT APPROPRIATE INDEX REGISTER.
002805: 01,2342           30117                           CA       POLISH
002806: 01,2343           50130        XSTORE             INDEX    INDEXLOC                              #  CONTAINS C(FIXLOC) OR C(FIXLOC)+1.
002807: 01,2344           54046                           TS       X1
002808: 01,2345           16030                           TCF      DANZIG
002809:
002810: 01,2346           02436        AXC                TC       TAGSUB
002811: 01,2347           40117                           CS       POLISH
002812: 01,2350           02343                           TC       XSTORE
002813:
002814: 01,2351           02424        LXA                TC       15ADRERS                              #  LOAD INDEX REGISTER FROM ERASABLE.
002815: 01,2352           50117                           INDEX    POLISH
002816: 01,2353           30000                           CA       0
002817: 01,2354           12343                           TCF      XSTORE
002818:
002819: 01,2355           02424        LXC                TC       15ADRERS                              #  LOAD NDX REG FROM ERASABLE COMPLEMENTED.
002820: 01,2356           50117                           INDEX    POLISH
002821: 01,2357           40000                           CS       0
002822: 01,2360           12343                           TCF      XSTORE
002823:
002824: 01,2361           02424        SXA                TC       15ADRERS                              #  STORE INDEX REGISTER IN ERASABLE.
002825: 01,2362           50130                           INDEX    INDEXLOC
002826: 01,2363           30046                           CA       X1
002827: 01,2364           50117        MSTORE1            INDEX    POLISH
002828: 01,2365           54000                           TS       0
002829: 01,2366           16030                           TCF      DANZIG
002830:


002832: 01,2367           02424        XCHX               TC       15ADRERS                              #  EXCHANGE INDEX REGISTER WITH ERASABLE.
002833: 01,2370           50117                           INDEX    POLISH
002834: 01,2371           30000                           CA       0
002835: 01,2372           50130                           INDEX    INDEXLOC
002836: 01,2373           56046                           XCH      X1
002837: 01,2374           12364                           TCF      MSTORE1
002838:
002839: 01,2375           02424        XAD                TC       15ADRERS                              #  ADD ERASABLE TO INDEX REGISTER.
002840: 01,2376           50117                           INDEX    POLISH
002841: 01,2377           30000                           CA       0
002842: 01,2400           50130        XAD2               INDEX    INDEXLOC
002843: 01,2401           26046                           ADS      X1                                    #  IGNORING OVERFLOWS.
002844: 01,2402           16030                           TCF      DANZIG
002845:
002846: 01,2403           02436        INCR               TC       TAGSUB                                #  INCREMENT INDEX REGISTER.
002847: 01,2404           30117                           CA       POLISH
002848: 01,2405           12400                           TCF      XAD2
002849:
002850: 01,2406           02424        XSU                TC       15ADRERS                              #  SUBTRACT ERASABLE FROM INDEX REGISTER.
002851: 01,2407           50117                           INDEX    POLISH
002852: 01,2410           40000                           CS       0
002853: 01,2411           12400                           TCF      XAD2
002854:
002855: 01,2412           02436        TIX                TC       TAGSUB                                #  BRANCH AND DECREMENT ON INDEX.
002856: 01,2413           50130                           INDEX    INDEXLOC
002857: 01,2414           40050                           CS       S1
002858: 01,2415           50130                           INDEX    INDEXLOC
002859: 01,2416           60046                           AD       X1
002860: 01,2417           00006                           EXTEND                                         #  NO OPERATION IF DECREMENTED INDEX IS
002861: 01,2420           66030                           BZMF     DANZIG                                #  NEGATIVE OR ZERO.
002862:
002863: 01,2421           50130        DOTIXBR            INDEX    INDEXLOC
002864: 01,2422           56046                           XCH      X1                                    #  IGNORING OVERFLOWS.
002865:
002866: 01,2423           16615                           TCF      GOTO                                  #  DO THE BRANCH USING THE CADR IN POLISH.
002867:


002869:                                                                                                  #  SUBROUTINE TO CONVERT AN ERASABLE ADDRESS (11 BITS) TO AN EBANK SETTING AND SUBADDRESS.
002870:
002871: 01,2424           40117        15ADRERS           CS       POLISH
002872: 01,2425           65006                           AD       DEC45
002873: 01,2426           10000                           CCS      A                                     #  DOES THE ADDRESS POINT TO THE WORK AREA?
002874: 01,2427           30120                           CA       FIXLOC                                #  YES.  ADD FIXLOC.  EBANK OK AS IS.
002875: 01,2430           12435                           TCF      +5
002876:
002877: 01,2431           35024                           CA       OCT1400                               #  NO.  SET EBANK & MAKE UP SUBADDRESS.
002878: 01,2432           56117                           XCH      POLISH
002879: 01,2433           54003                           TS       EBANK
002880: 01,2434           74350                           MASK     LOW8
002881: 01,2435           26117                 +5        ADS      POLISH                                #  FALL INTO TAGSUB, AND RETURN VIA Q.
002882:
002883:                                                                                                  #  SUBROUTINE WHICH SETS THE ADDRESS OF THE SPECIFIED INDEX IN INDEXLOC. (ACTUALLY, THE ADDRESS -38D.)
002884:
002885: 01,2436           30120        TAGSUB             CA       FIXLOC
002886: 01,2437           54130                           TS       INDEXLOC
002887:
002888: 01,2440           10020                           CCS      CYR                                   #  BIT 15 SPECIFIES INDEX.
002889: 01,2441           24130                           INCR     INDEXLOC                              #  0 MEANS USE X2.
002890: 01,2442           00002                           TC       Q
002891: 01,2443           00002                           TC       Q                                     #  1 FOR X1.
002892:


002894:                                                                                                  #  MISCELLANEOUS OPERATION CODES WITH DIRECT ADDRESSES. INCLUDED HERE ARE:
002895:
002896:                                                                                                  #        1.      ITA             STORE QPRET (RETURN ADDRESS) IN ERASABLE.
002897:                                                                                                  #        2.      CALL            CALL A SUBROUTINE, LEAVING RETURN IN QPRET.
002898:                                                                                                  #        3.      RTB             RETURN TO BASIC LANGUAGE AT THE GIVEN ADDRESS.
002899:                                                                                                  #        4.      BHIZ            BRANCH IF THE HIGHORDER OF MPAC IS ZERO (SINGLE PRECISION).
002900:                                                                                                  #        5.      BOV             BRANCH ON OVERFLOW.
002901:                                                                                                  #        6.      GOTO            SIMPLE SEQUENCE CHANGE.
002902:
002903: 01,2444           10020        RTB/BHIZ           CCS      CYR
002904: 01,2445           30117        RTB                CA       POLISH
002905: 01,2446           04641                           TC       SWCALL     -1                         #  SO A "TC Q" FROM ROUTINE LEADS TO DANZIG
002906:
002907: 01,2447           10154        BHIZ               CCS      MPAC
002908: 01,2450           16030                           TCF      DANZIG
002909: 01,2451           16615                           TCF      GOTO
002910: 01,2452           16030                           TCF      DANZIG
002911: 01,2453           16615                           TCF      GOTO
002912:
002913: 01,2454           10121        BOV(B)             CCS      OVFIND                                #  BRANCH ON OVERFLOW TO BASIC OR INTERP.
002914: 01,2455           12457                           TCF      +2
002915: 01,2456           16030                           TCF      DANZIG
002916: 01,2457           54121                           TS       OVFIND
002917: 01,2460           10020                           CCS      CYR
002918: 01,2461           12445                           TCF      RTB                                   #  IF BASIC.
002919: 01,2462           00360        B5TOB8             OCT      360
002920: 01,2463           16615                           TCF      GOTO
002921:


002923: 01,2464           10020        BZE/GOTO           CCS      CYR                                   #  SEE WHICH OP-CODE IS DESIRED.
002924: 01,2465           06672                           TC       BRANCH                                #  DO BZE.
002925: 01,2466           16030                           TCF      DANZIG
002926: 01,2467           16615                           TCF      GOTO                                  #  DO GOTO.
002927: 01,2470           16030                           TCF      DANZIG
002928:
002929: 01,2471           10020        BPL/BMN            CCS      CYR
002930: 01,2472           12500                           TCF      BPL
002931: 01,2473           12000        5B10               DEC      5          B+10                       #  SHIFTS OP CODE IN SWITCH INSTRUCTION ADR
002932:
002933: 01,2474           06672                           TC       BRANCH                                #  DO BMN.
002934: 01,2475           16030                           TCF      DANZIG
002935: 01,2476           16030                           TCF      DANZIG
002936: 01,2477           16615                           TCF      GOTO                                  #  ONLY IF NNZ.
002937:
002938: 01,2500           06672        BPL                TC       BRANCH
002939: 01,2501           16615                           TCF      GOTO                                  #  IF POSITIVE OR ZERO.
002940: 01,2502           16615                           TCF      GOTO
002941: 01,2503           16030                           TCF      DANZIG
002942:
002943: 01,2504           10020        CALL/ITA           CCS      CYR
002944: 01,2505           16607                           TCF      CALL
002945:
002946: 01,2506           12507                           NOOP                                           #  CANNOT GET HERE
002947: 01,2507           02424                           TC       15ADRERS                              #  STORE QPRET. (TAGSUB AFTER 15ADRERS IS
002948: 01,2510           50120                           INDEX    FIXLOC                                #  SLOW IN THIS CASE, BUT SAVES STORAGE.)
002949: 01,2511           30052                           CA       QPRET
002950: 01,2512           12364                           TCF      MSTORE1
002951:


002953:                                                                                                  #  THE FOLLOWING OPERATIONS ARE AVAILABLE FOR ALTERING AND TESTING INTERPRETATIVE SWITCHES:
002954:                                                                                                  #
002955:                                                                                                  #        00      BONSET          SET A SWITCH AND DO A GOTO IF IT WAS ON.
002956:                                                                                                  #        01      SETGO           SET A SWITCH AND DO A GOTO.
002957:                                                                                                  #        02      BOFSET          SET A SWITCH AND DO A GOTO IF IT WAS OFF
002958:                                                                                                  #        03      SET             SET A SWITCH.
002959:
002960:                                                                                                  #        04      BONINV          INVERT A SWITCH AND BRANCH IF IT WAS ON.
002961:                                                                                                  #        05      INVGO           INVERT A SWITCH AND DO A GOTO.
002962:                                                                                                  #        06      BOFINV          INVERT A SWITCH AND BRANCH IF IT WAS OFF
002963:                                                                                                  #        07      INVERT          INVERT A SWITCH.
002964:
002965:                                                                                                  #        10      BONCLR          CLEAR A SWITCH AND BRANCH IF IT WAS ON.
002966:                                                                                                  #        11      CLRGO           CLEAR A SWITCH AND DO A GOTO.
002967:                                                                                                  #        12      BOFCLR          CLEAR A SWITCH AND BRANCH IF IT WAS OFF.
002968:                                                                                                  #        13      CLEAR           CLEAR A SWITCH.
002969:
002970:                                                                                                  #        14      BON             BRANCH IF A SWITCH WAS ON.
002971:                                                                                                  #        16      BOFF            BRANCH IF A SWITCH WAS OFF.
002972:
002973:                                                                                                  #  THE ADDRESS SUPPLIED WITH THE SWITCH INSTRUCTION IS INTERPRETED AS FOLLOWS:
002974:
002975:                                                                                                  #        BITS 1-4        SWITCH BIT NUMBER (1-15).
002976:                                                                                                  #        BITS 5-8        SWITCH OPERATION NUMBER.
002977:                                                                                                  #        BITS 9-         SWITCH WORD NUMBER (UP TO 64 SWITCH WORDS).
002978:
002979:                                                                                                  #  THE ADDRESS ITSELF IS MADE UP BY THE YUL SYSTEM ASSEMBLER. THE BRANCH INSTRUCTIONS REQUIRE TWO
002980:                                                                                                  #  ADDRESSES, THE SECOND TAKEN AS THE DIRECT (OR INDIRECT IF IN ERASABLE) ADDRESS OF THE BRANCH.
002981:
002982: 01,2513           34777        SWITCHES           CAF      LOW4                                  #  LEAVE THE SWITCH BIT IN  SWBIT  .
002983: 01,2514           70117                           MASK     POLISH
002984: 01,2515           50000                           INDEX    A
002985: 01,2516           34752                           CAF      BIT15                                 #  (NUMBER FROM LEFT TO RIGHT.)
002986: 01,2517           54131                           TS       SWBIT
002987:
002988: 01,2520           34762                           CAF      BIT7                                  #  LEAVE THE SWITCH NUMBER IN SWWORD.
002989: 01,2521           00006                           EXTEND
002990: 01,2522           70117                           MP       POLISH
002991: 01,2523           54130                           TS       SWWORD
002992:
002993: 01,2524           00004                           INHINT                                         #  DURING SWITCH CHANGE SO RUPT CAN USE TOO
002994: 01,2525           50000                           INDEX    A                                     #  LEAVE THE SWITCH WORD ITSELF IN L.
002995: 01,2526           30074                           CA       STATE
002996: 01,2527           54002                           TS       Q                                     #  Q WILL BE USED AS A CHANNEL.


002998: 01,2530           34756                           CAF      BIT11
002999: 01,2531           00006                           EXTEND                                         #  DISPATCH SWITCH BIT OPERATION AS IN BITS
003000: 01,2532           70117                           MP       POLISH                                #  7-8 OF POLISH.
003001: 01,2533           73024                           MASK     B3TOB4                                #  GETS 4X2-BIT CODE.
003002: 01,2534           50000                           INDEX    A
003003: 01,2535           12536                           TCF      +1
003004:
003005: 01,2536           30131                 +1        CA       SWBIT                                 #  00 - SET SWITCH IN QUESTION.
003006: 01,2537           00006                           EXTEND
003007: 01,2540           04002                           ROR      QCHAN
003008: 01,2541           12550                           TCF      SWSTORE
003009:
003010: 01,2542           30131                 +5        CA       SWBIT                                 #  01 - INVERT SWITCH.
003011: 01,2543           00006                           EXTEND
003012: 01,2544           06002                           RXOR     QCHAN
003013: 01,2545           12550                           TCF      SWSTORE
003014:
003015: 01,2546           40131                 +9D       CS       SWBIT                                 #  10 - CLEAR.
003016: 01,2547           70002                           MASK     Q
003017: 01,2550           50130        SWSTORE            INDEX    SWWORD
003018: 01,2551           54074                           TS       STATE                                 #  NEW SWITCH WORD.


003020: 01,2552           00003                 +13D      RELINT                                         #  11 - NOOP.
003021: 01,2553           34754                           CAF      BIT13
003022: 01,2554           00006                           EXTEND                                         #  DISPATCH SEQUENCE CHANGING OR BRANCING
003023: 01,2555           70117                           MP       POLISH                                #  CODE.
003024: 01,2556           73024                           MASK     B3TOB4
003025: 01,2557           50000                           INDEX    A
003026: 01,2560           12561                           TCF      +1                                    #  ORIGINALLY STORED IN BITS 5-6.
003027:
003028: 01,2561           40002                 +1        CS       Q                                     #  00 - BRANCH IF ON.
003029: 01,2562           70131        TEST               MASK     SWBIT
003030: 01,2563           10000                           CCS      A
003031: 01,2564           12574                           TCF      SWSKIP
003032:
003033: 01,2565           16664                 +5        TCF      SWBRANCH                              #  01 - GO TO.
003034:
003035: 01,2566           12574                           TCF      SWSKIP                                #  HERE ONLY ON BIT 15.
003036:
003037: 01,2567           12570                           NOOP                                           #  CANNOT GET HERE
003038: 01,2570           12571                           NOOP                                           #  CANNOT GET HERE
003039: 01,2571           30002                 +9D       CA       Q                                     #  10 - BRANCH IF OFF.
003040: 01,2572           12562                           TCF      TEST
003041:
003042: 01,2573           12574                 +11D      NOOP                                           #  CANNOT GET HERE
003043: 01,2574           24164        SWSKIP             INCR     LOC
003044:
003045: 01,2575           16030                 +13D      TCF      DANZIG                                #  11 - NOOP.
003046:
003047: 01,2576  01,3024               B3TOB4             EQUALS   COREINC
003048: 01,2576  01,2513               SW/                EQUALS   SWITCHES

End of include-file INTERPRETER.agc.  Parent file is MAIN.agc


