
Source Code


000002:                                                                                                  #  Copyright:    Public domain.
000003:                                                                                                  #  Filename:     INTERPRETIVE_CONSTANTS.agc
000004:                                                                                                  #  Purpose:      Part of the source code for Artemis (i.e., Colossus 3),
000005:                                                                                                  #                build 072.  This is for the Command Module's (CM)
000006:                                                                                                  #                Apollo Guidance Computer (AGC), we believe for
000007:                                                                                                  #                Apollo 15-17.
000008:                                                                                                  #  Assembler:    yaYUL
000009:                                                                                                  #  Contact:      Jim Lawton <jim DOT lawton AT gmail DOT com>
000010:                                                                                                  #  Website:      www.ibiblio.org/apollo/index.html
000011:                                                                                                  #  Page Scans:   www.ibiblio.org/apollo/ScansForConversion/Artemis072/
000012:                                                                                                  #  Mod history:  2009-08-22 JL   Adapted from corresponding Comanche 055 file.
000013:                                                                                                  #                2010-02-20 RSB  Un-##'d this header.
000014:


000016: 26,2000                                           SETLOC   INTPRET1
000017: 26,2000                                           BANK
000018:
000019: 26,3325                                           COUNT*   $$/ICONS
000020: 26,3325           10000 00000  DP1/4TH            2DEC     .25
000021: 26,3327           00000 00000  UNITZ              2DEC     0          B-28
000022: 26,3331           00000 00000  UNITY              2DEC     0          B-28
000023: 26,3333           20000 00000  UNITX              2DEC     .5
000024: 26,3335           00000 00000  ZEROVECS           2DEC     0          B-28
000025: 26,3337           00000 00000                     2DEC     0          B-28
000026: 26,3341           00000 00000                     2DEC     0          B-28
000027: 26,3343  26,3333               DPHALF             =        UNITX
000028: 26,3343           37777        DPPOSMAX           OCT      37777
000029: 26,3344           37777                           OCT      37777
000030:


000032:
000033:                                                                                                  #  INTERPRETIVE CONSTANTS IN THE OTHER HALF-MEMORY
000034:
000035: 04,2000                                           SETLOC   INTPRET2
000036: 04,2000                                           BANK
000037:
000038: 04,3753                                           COUNT*   $$/ICONS
000039: 04,3753           00000 00000  ZUNIT              2DEC     0          B-28
000040: 04,3755           00000 00000  YUNIT              2DEC     0          B-28
000041: 04,3757           20000 00000  XUNIT              2DEC     .5
000042: 04,3761           00000 00000  ZEROVEC            2DEC     0          B-28
000043: 04,3763           00000 00000                     2DEC     0          B-28
000044: 04,3765           00000 00000                     2DEC     0          B-28
000045:
000046: 04,3767           77777                           OCT      77777                                 #  -0, -6, -12 MUST REMAIN IN THIS ORDER
000047: 04,3770           77771        DEC-6              DEC      -6         B-14
000048: 04,3771           77763        DEC-12             DEC      -12        B-14
000049: 04,3772           37777 37777  LODPMAX            2OCT     3777737777                            #  THESE TWO CONSTANTS MUST REMAIN
000050: 04,3774           37777 37777  LODPMAX1           2OCT     3777737777                            #  ADJACENT AND THE SAME FOR INTEGRATION
000051:
000052: 04,3776  04,3761               ZERODP             =        ZEROVEC
000053: 04,3776  04,3757               HALFDP             =        XUNIT

End of include-file INTERPRETIVE_CONSTANTS.agc.  Parent file is MAIN.agc


