
Source Code


000002:                                                                                                  #  Copyright:    Public domain.
000003:                                                                                                  #  Filename:     INTER-BANK_COMMUNICATION.agc
000004:                                                                                                  #  Purpose:      Part of the source code for Artemis (i.e., Colossus 3),
000005:                                                                                                  #                build 072.  This is for the Command Module's (CM)
000006:                                                                                                  #                Apollo Guidance Computer (AGC), we believe for
000007:                                                                                                  #                Apollo 15-17.
000008:                                                                                                  #  Assembler:    yaYUL
000009:                                                                                                  #  Contact:      Jim Lawton <jim DOT lawton AT gmail DOT com>
000010:                                                                                                  #  Website:      www.ibiblio.org/apollo/index.html
000011:                                                                                                  #  Page scans:   www.ibiblio.org/apollo/ScansForConversion/Artemis072/
000012:                                                                                                  #  Mod history:  2009-08-22 JL   Adapted from corresponding Comanche 055 file.
000013:                                                                                                  #                2009-08-29 JL   Merged changes from Sergio Navarro.
000014:                                                                                                  #                2010-02-20 RSB  Un-##'d this header.
000015:                                                                                                  #                2011-05-07 JL   Removed workaround.
000016:
000017:                                                                                                  # # Page 1104
000018:
000019:                                                                                                  #  THE FOLLOWING ROUTINE CAN BE USED TO CALL A SUBROUTINE IN ANOTHER BANK. IN THE BANKCALL VERSION, THE
000020:                                                                                                  #  CADR OF THE SUBROUTINE IMMEDIATELY FOLLOWS THE  TC BANKCALL  INSTRUCTION, WITH C(A) AND C(L) PRESERVED.
000021:
000022:    4000                                           SETLOC   FFTAG1
000023:    4000                                           BANK
000024:
000025:    4636                                           COUNT*   $$/BANK
000026:    4636           52134        BANKCALL           DXCH     BUF2                                  #  SAVE INCOMING A,L.
000027:    4637           50002                           INDEX    Q                                     #  PICK UP CADR.
000028:    4640           30000                           CA       0
000029:    4641           24002                 -1        INCR     Q                                     #  SO WE RETURN TO THE LOC. AFTER THE CADR.
000030:
000031:                                                                                                  #  SWCALL IS  IDENTICAL TO BANKCALL, EXCEPT THAT THE CADR ARRIVES IN A.
000032:
000033:    4642           54001        SWCALL             TS       L
000034:    4643           22004                           LXCH     FBANK                                 #  SWITCH BANKS, SAVING RETURN.
000035:    4644           75041                           MASK     LOW10                                 #  GET SUB-ADDRESS OF CADR.
000036:    4645           56002                           XCH      Q                                     #  A,L NOW CONTAINS DP RETURN.
000037:    4646           52134                           DXCH     BUF2                                  #  RESTORING INPUTS IF THIS IS A BANKCALL.
000038:    4647           50002                           INDEX    Q
000039:    4650           02000                           TC       10000                                 #  SETTING Q TO SWRETURN.
000040:
000041:    4651           56134        SWRETURN           XCH      BUF2       +1                         #  COMES HERE TO RETURN TO CALLER. C(A,L)
000042:    4652           56004                           XCH      FBANK                                 #  ARE PRESERVED FOR RETURN.
000043:    4653           56134                           XCH      BUF2       +1
000044:    4654           00133                           TC       BUF2
000045:
000046:                                                                                                  #  THE FOLLOWING ROUTINE CAN BE USED AS A UNILATERAL JUMP WITH C(A,L) PRESERVED AND THE CADR IMMEDIATELY
000047:                                                                                                  #  FOLLOWING THE TC POSTJUMP INSTRUCTION.
000048:
000049:    4655           56002        POSTJUMP           XCH      Q                                     #  SAVE INCOMING C(A).
000050:    4656           50000                           INDEX    A                                     #  GET CADR.
000051:    4657           30000                           CA       0
000052:
000053:                                                                                                  #  BANKJUMP IS THE SAME AS POSTJUMP, EXCEPT THAT THE CADR ARRIVES IN A.
000054:
000055:    4660           54004        BANKJUMP           TS       FBANK
000056:    4661           75041                           MASK     LOW10
000057:    4662           56002                           XCH      Q                                     #  RESTORING INPUT C(A) IF THIS WAS A
000058:    4663           50002        Q+10000            INDEX    Q                                     #  POSTJUMP.
000059:    4664           12000        PRIO12             TCF      10000                                 #  PRIO12 = TCF  10000 = 12000
000060:
000061:                                                                                                  # # Page 1105
000062:
000063:                                                                                                  #  THE FOLLOWING ROUTINE GETS THE RETURN CADR SAVED BY SWCALL OR BANKCALL AND LEAVES IT IN A.
000064:
000065:    4665           35041        MAKECADR           CAF      LOW10
000066:    4666           70133                           MASK     BUF2
000067:    4667           60134                           AD       BUF2       +1
000068:    4670           00002                           TC       Q
000069:
000070:    4671           54135        SUPDACAL           TS       MPTEMP
000071:    4672           56004                           XCH      FBANK                                 #  SET FBANK FOR DATA.
000072:    4673           00006                           EXTEND
000073:    4674           04007                           ROR      SUPERBNK                              #  SAVE FBANK IN BITS 15-11, AND
000074:    4675           56135                           XCH      MPTEMP                                #  SUPERBANK IN BITS 7-5.
000075:    4676           75041                           MASK     LOW10
000076:    4677           56001                           XCH      L                                     #  SAVE REL. ADR. IN BANK, FETCH SUPERBITS
000077:    4700           00004                           INHINT                                         #  BECAUSE RUPT DOES NOT SAVE SUPERBANK.
000078:    4701           00006                           EXTEND
000079:    4702           01007                           WRITE    SUPERBNK                              #  SET SUPERBANK FOR DATA.
000080:    4703           50001                           INDEX    L
000081:    4704           32000                           CA       10000                                 #  PINBALL (FIX MEM DISP) PREVENTS DCA HERE
000082:    4705           56135                           XCH      MPTEMP                                #  SAVE 1ST WD, FETCH OLD FBANK AND SBANK.
000083:    4706           00006                           EXTEND
000084:    4707           01007                           WRITE    SUPERBNK                              #  RESTORE SUPERBANK.
000085:    4710           00003                           RELINT
000086:    4711           54004                           TS       FBANK                                 #  RESTORE FBANK.
000087:    4712           30135                           CA       MPTEMP                                #  RECOVER FIRST WORD OF DATA.
000088:    4713           00002                           RETURN                                         #  24 WDS. DATACALL 516 MU, SUPDACAL 432 MU
000089:
000090:                                                                                                  # # Page 1106
000091:
000092:                                                                                                  #  THE FOLLOWING ROUTINES ARE IDENTICAL TO BANKCALL AND SWCALL EXCEPT THAT THEY ARE USED IN INTERRUPT.
000093:
000094:    4714           52073        IBNKCALL           DXCH     RUPTREG3                              #  USES RUPTREG3,4 FOR DP RETURN ADDRESS.
000095:    4715           50002                           INDEX    Q
000096:    4716           30000                           CAF      0
000097:    4717           24002                           INCR     Q
000098:
000099:    4720           54001        ISWCALL            TS       L
000100:    4721           22004                           LXCH     FBANK
000101:    4722           75041                           MASK     LOW10
000102:    4723           56002                           XCH      Q
000103:    4724           52073                           DXCH     RUPTREG3
000104:    4725           50002                           INDEX    Q
000105:    4726           02000                           TC       10000
000106:
000107:    4727           56073        ISWRETRN           XCH      RUPTREG4
000108:    4730           56004                           XCH      FBANK
000109:    4731           56073                           XCH      RUPTREG4
000110:    4732           00072                           TC       RUPTREG3
000111:
000112:                                                                                                  #  2. USPRCADR ACCESSES INTERPRETIVE CODING IN OTHER THAN THE USER'S FBANK. THE CALLING SEQUENCE IS AS FOLLOWS:
000113:
000114:                                                                                                  #        L       TC      USPRCADR
000115:                                                                                                  #        L+1     CADR    INTPRETX        # INTPRETX IS THE INTERPRETIVE CODING
000116:                                                                                                  #                                        # RETURN IS TO L+2
000117:
000118:    4733           54164        USPRCADR           TS       LOC                                   #  SAVE A
000119:    4734           34761                           CA       BIT8
000120:    4735           54023                           TS       EDOP                                  #  EXIT INSTRUCTION TO EDOP
000121:    4736           30006                           CA       BBANK
000122:    4737           54165                           TS       BANKSET                               #  USER'S BBANK TO BANKSET
000123:    4740           50002                           INDEX    Q
000124:    4741           30000                           CA       0
000125:    4742           54004                           TS       FBANK                                 #  INTERPRETIVE BANK TO FBANK
000126:    4743           75041                           MASK     LOW10                                 #  YIELDS INTERPRETIVE RELATIVE ADDRESS
000127:    4744           56002                           XCH      Q                                     #  INTERPRETIVE ADDRESS TO Q, FETCHING L+1
000128:    4745           56164                           XCH      LOC                                   #  L+1 TO LOC, RETRIEVING ORIGINAL A
000129:    4746           14663                           TCF      Q+10000
000130:
000131:                                                                                                  # # Page 1107
000132:
000133:                                                                                                  #  THERE ARE FOUR POSSIBLE SETTINGS FOR CHANNEL 07.  (CHANNEL 07 CONTAINS SUPERBANK SETTING.)
000134:
000135:                                                                                                  #                                                PSEUDO-FIXED     OCTAL PSEUDO
000136:                                                                                                  #  SUPERBANK     SETTING         S-REG. VALUE    BANK NUMBERS       ADDRESSES
000137:                                                                                                  #  ---------     -------         ------------    ------------       ---------
000138:                                                                                                  #  SUPERBANK 3     OXX            2000 - 3777       30 - 37       70000 - 107777         (WHERE XX CAN BE ANYTHING AND
000139:                                                                                                  #                                                                                        WILL USUALLY BE SEEN AS 11)
000140:                                                                                                  #  SUPERBANK 4     100            2000 - 3777       40 - 47      110000 - 127777         (AS FAR AS IT CAN BE SEEN,
000141:                                                                                                  #                                                                                        ONLY BANKS 40-43 WILL EVER BE
000142:                                                                                                  #                                                                                        AND ARE PRESENTLY AVAILABLE)
000143:                                                                                                  #  SUPERBANK 5     101            2000 - 3777       50 - 57      130000 - 147777         (PRESENTLY NOT AVAILABLE TO
000144:                                                                                                  #                                                                                        THE USER)
000145:                                                                                                  #  SUPERBANK 6     110            2000 - 3777       60 - 67      150000 - 167777         (PRESENTLY NOT AVAILABLE TO
000146:                                                                                                  #                                                                                        THE USER)
000147:

End of include-file INTER-BANK_COMMUNICATION.agc.  Parent file is MAIN.agc


