
Source Code


000002:                                                                                                  ## Copyright:   Public domain.
000003:                                                                                                  ## Filename:    INTERPRETER.agc
000004:                                                                                                  ## Purpose:     Part of the source code for Artemis (i.e., Colossus 3),
000005:                                                                                                  ##              build 072.  This is for the Command Module's (CM)
000006:                                                                                                  ##              Apollo Guidance Computer (AGC), for
000007:                                                                                                  ##              Apollo 15-17.
000008:                                                                                                  ## Assembler:   yaYUL
000009:                                                                                                  ## Contact:     Jim Lawton <jim DOT lawton AT gmail DOT com>
000010:                                                                                                  ## Website:     www.ibiblio.org/apollo/index.html
000011:                                                                                                  ## Page Scans:  www.ibiblio.org/apollo/ScansForConversion/Artemis072/
000012:                                                                                                  ## Mod history: 2009-09-02 JL   Adapted from corresponding Comanche 055 file.
000013:                                                                                                  ##              2009-09-16 JL   Fixed line comment alignment in top section of file.
000014:                                                                                                  ##              2010-02-20 RSB  Un-##'d this header.
000015:                                                                                                  ##              2011-05-07 JL   Removed workarounds.
000016:                                                                                                  ##              2017-02-05 RSB  Proofed comment text by diff'ing vs Comanche 55
000017:                                                                                                  ##                              and corrected errors found.
000018:


000020:
000021:                                                                                                  #  SECTION 1   DISPATCHER
000022:
000023:                                                                                                  #           ENTRY TO THE INTERPRETER.  INTPRET SETS LOC TO THE FIRST INSTRUCTION, BANKSET TO THE BBANK OF THE
000024:                                                                                                  #  OBJECT INTERPRETIVE PROGRAM, AND INTBIT15 TO THE BIT15 CONTENTS OF FBANK. INTERPRETIVE PROGRAMS MAY BE IN
000025:                                                                                                  #  VIRTUALLY ALL BANKS PRESENT UNDER ANY SUPER-BANK SETTING, WITH THE RESTRICTION THAT PROGRAMS IN HIGH BANKS
000026:                                                                                                  #  (BIT15 OF FBANK = 1) DO NOT REFER TO LOWBANKS, AND VICE-VERSA. THE INTERPRETER DOES NOT SWITCH SUPERBANKS.
000027:                                                                                                  #  E-BANK SWITCHING OCCURS WHENEVER GENERAL ERASABLE (100-3777) IS ADDRESSED.
000028:
000029:    6000                                           SETLOC   INTERF3
000030:    6000                                           BANK
000031:
000032:    6006                                           COUNT*   $$/INTER
000033:    6006           00003        INTPRET            RELINT
000034:    6007           00006                           EXTEND                                         #  SET LOC TO THE WORD FOLLOWING THE TC.
000035:    6010           22164                 +2        QXCH     LOC
000036:
000037:    6011           30006                 +3        CA       BBANK                                 #  INTERPRETIVE BRANCHES FINISH HERE.
000038:    6012           54165                           TS       BANKSET
000039:    6013           74752                           MASK     BIT15                                 #  GET 15TH BIT FOR INDEXABLE ADDRESSES.
000040:    6014           54115                           TS       INTBIT15
000041:
000042:    6015           54023                           TS       EDOP                                  #  MAKE SURE NO INSTRUCTIONS LEFT OVER
000043:
000044:    6016           16037                           TCF      NEWOPS                                #  PICK UP OP CODE PAIR AND BEGIN.
000045:
000046:    6017           22006        INTRSM             LXCH     BBANK                                 #  RESUME SUSPENDED INTERPRETIVE JOB
000047:    6020           16011                           TCF      INTPRET    +3
000048:
000049:                                                                                                  #  DLOAD LOADS MPAC, MPAC +1, LEAVING ZERO IN MPAC +2.
000050:
000051:    6021           00006        DLOAD              EXTEND
000052:    6022           50116                           INDEX    ADDRWD
000053:    6023           30001                           DCA      0                                     #  LOAD DP C(C(ADDRWD)) INTO MPAC,MPAX +1
000054:    6024           52155        SLOAD2             DXCH     MPAC
000055:    6025           34772                           CAF      ZERO                                  #  ZERO MPAC +2
000056:


000058:                                                                                                  #  AT THE END OF MOST INSTRUCTIONS, CONTROL IS GIVEN TO DANZIG TO DISPATCH THE NEXT OPERATION.
000059:
000060:    6026           54156                 +2        TS       MPAC       +2                         #  AND DECLARE DP MODE
000061:    6027           54163        NEWMODE            TS       MODE                                  #  PROLOGUE FOR MODE-CHANGING INSTRUCTIONS.
000062:
000063:    6030           30165        DANZIG             CA       BANKSET                               #  SET BBANK BEFORE TESTING NEWJOB SO THAT
000064:    6031           54006                           TS       BBANK                                 #  IT MAY BE SAVED DIRECTLY BY CHANJOB.
000065:
000066:    6032           10023        NOIBNKSW           CCS      EDOP                                  #  SEE IF AN ORDER CODE IS LEFT OVER FROM
000067:    6033           16046                           TCF      OPJUMP                                #  THE LAST PAIR RETRIEVED. IF SO, EXECUTE.
000068:                                                                                                  #  EDOP IS SET TO ZERO ON ITS RE-EDITING.
000069:
000070:    6034           10067                           CCS      NEWJOB                                #  SEE IF A JOB OF HIGHER PRIORITY IS
000071:    6035           15156                           TCF      CHANG2                                #  PRESENT, AND IF SO, CHANGE JOBS.
000072:
000073:    6036           24164                           INCR     LOC                                   #  ADVANCE THE LOCATION COUNTER.
000074:                                                                                                  #           ITRACE (1) REFERS TO "NEWOPS".
000075:    6037           50164        NEWOPS             INDEX    LOC                                   #  ENTRY TO BEGIN BY PICKING OP CODE PAIR.
000076:    6040           30000                           CA       0                                     #  MAY BE AN OPCODE PAIR OR A STORE CODE.
000077:    6041           10000                           CCS      A                                     #  TEST SIGN AND GET DABS(A).
000078:    6042           16331                           TCF      DOSTORE                               #  PROCESS STORE CODE.
000079:
000080:    6043           00177        LOW7               OCT      177
000081:
000082:    6044           54023                           TS       EDOP                                  #  OP CODE PAIR. LEAVE THE OTHER IN EDOP
000083:    6045           76043                           MASK     LOW7                                  #  WHERE  CCS EDOP  WILL HONOR IT NEXT.
000084:
000085:    6046           54020        OPJUMP             TS       CYR                                   #  LOWWD ENTERS HERE IF A RIGHT-HAND OP
000086:    6047           10020                           CCS      CYR                                   #  CODE IS TO BE PROCESSED. TEST PREFICES.
000087:    6050           16216                           TCF      OPJUMP2                               #  TEST SECOND PREFIX BIT.
000088:
000089:    6051           16712                           TCF      EXIT                                  #  +0 OP CODE IS EXIT.


000091:                                                                                                  #  PROCESS ADDRESSES WHICH MAY BE DIRECT, INDEXED, OR REFERENCE THE PUSHDOWN LIST.
000092:
000093:    6052           74770        ADDRESS            MASK     BIT1                                  #  SEE IF ADDRESS IS INDEXED. CYR CONTAINED
000094:    6053           10000                           CCS      A                                     #  400XX, SO BIT 1 IS NOW AS IT WAS IN CYR.
000095:    6054           16115                           TCF      INDEX                                 #  FORM INDEXED ADDRESS.
000096:
000097:    6055           50164        DIRADRES           INDEX    LOC                                   #  LOOK AHEAD TO NEXT WORD TO SEE IF
000098:    6056           40001        OCT40001           CS       1                                     #  ADDRESS IS GIVEN.
000099:    6057           10000                           CCS      A
000100:    6060           16164                           TCF      PUSHUP                                #  IF NOT.
000101:
000102:    6061           77773        NEG4               DEC      -4         B-14
000103:
000104:    6062           24164                           INCR     LOC                                   #  IF SO, TO SHOW WE PICKED UP A WORD.
000105:    6063           54116                           TS       ADDRWD
000106:


000108:                                                                                                  #  FINAL DIGESTION OF DIRECT ADDRESSES OF OP CODES WITH 01 PREFIX IS DONE HERE.  IN EACH CASE, THE
000109:                                                                                                  #  REQUIRED 12-BIT SUB-ADDRESS IS LEFT IN ADDRWD, WITH ANY REQUIRED E OR F BANK SWITCHING DONE. ADDRESSES LESS
000110:                                                                                                  #  THAN 45D ARE TAKEN TO BE RELATIVE TO THE WORK AREA. THE OP CODE IS NOW IN BITS 1-5 OF CYR WITH BIT 14 = 1.
000111:
000112:    6064           66220                           AD       -ENDVAC                               #  SEE IF ADDRESS RELATIVE TO WORK AREA.
000113:    6065           10000                           CCS      A
000114:    6066           67676                           AD       -ENDERAS                              #  IF NOT, SEE IF IN GENERAL ERASABLE.
000115:    6067           16074                           TCF      IERASTST
000116:
000117:    6070           30120        NETZERO            CA       FIXLOC                                #  IF SO, LEAVE THE MODIFIED ADDRESS IN
000118:    6071           26116                           ADS      ADDRWD                                #  ADDRWD AND DISPATCH.
000119:    6072           50020        ITR15              INDEX    CYR                                   #  THIS INDEX MAKES THE NEXT INSTRUCTION
000120:    6073           76242                           7        INDJUMP    -1                         #  TCF INDJUMP + OP, EDITING CYR.
000121:
000122:    6074           00006        IERASTST           EXTEND
000123:    6075           66105                           BZMF     GEADDR                                #  GO PROCESS GENERAL-ERASABLE ADDRESS.
000124:
000125:    6076           75041                           MASK     LOW10                                 #  FIXED BANK ADDRESS. RESTORE AND ADD B15.
000126:    6077           65041                           AD       LOW10                                 #  SWITCH BANKS AND LEAVE SUBADDRESS IN
000127:    6100           56116                           XCH      ADDRWD                                #  ADDRWD FOR OPERAND RETRIEVAL. (THIS
000128:    6101           60115                           AD       INTBIT15                              #  METHOD PRECLUDES USE OF THE LAST
000129:    6102           54004                           TS       FBANK                                 #  LOCATION IN EACH FBANK.)
000130:    6103           50020        ITR12              INDEX    CYR
000131:    6104           76242                           7        INDJUMP    -1
000132:
000133:    6105           74350        GEADDR             MASK     LOW8
000134:    6106           65024                           AD       OCT1400
000135:    6107           56116                           XCH      ADDRWD
000136:    6110           54003                           TS       EBANK
000137:    6111           50020        ITR10              INDEX    CYR
000138:    6112           76242                           7        INDJUMP    -1
000139:


000141:                                                                                                  #  THE FOLLOWING ROUTINE PROCESSES INTERPRETIVE INDEXED ADDRESSES. AN INTERPRETER INDEX REGISTER MAY
000142:                                                                                                  #  CONTAIN THE ADDRESS OF ANY ERASABLE REGISTER (0-42 BEING RELATIVE TO THE VAC AREA) OR ANY INTERPRETIVE PROGRAM
000143:                                                                                                  #  BANK, OR ANY INTEGER IN THAT RANGE.
000144:
000145:    6113           37666        DODLOAD*           CAF      DLOAD*                                #  STODL* COMES HERE TO PROCESS LOAD ADR.
000146:    6114           54020                 +1        TS       CYR                                   #  (STOVL* ENTERS HERE).
000147:    6115           30120        INDEX              CA       FIXLOC                                #  SET UP INDEX LOCATION.
000148:    6116           54130                           TS       INDEXLOC
000149:    6117           24164                           INCR     LOC                                   #  (ADDRESS ALWAYS GIVEN).
000150:    6120           50164                           INDEX    LOC
000151:    6121           40000                           CS       0
000152:    6122           10000                           CCS      A                                     #  INDEX 2 IF ADDRESS STORED COMPLEMENTED.
000153:    6123           24130                           INCR     INDEXLOC
000154:    6124           16125                           NOOP
000155:
000156:    6125           54116                           TS       ADDRWD                                #  14 BIT ADDRESS TO ADDRWD.
000157:    6126           77675                           MASK     HIGH4                                 #  IF ADDRESS GREATER THAN 2K, ADD INTBIT15
000158:    6127           00006                           EXTEND
000159:    6130           16133                           BZF      INDEX2
000160:    6131           30115                           CA       INTBIT15
000161:    6132           26116                           ADS      ADDRWD
000162:
000163:    6133           50130        INDEX2             INDEX    INDEXLOC
000164:    6134           40046                           CS       X1
000165:    6135           26116                           ADS      ADDRWD                                #  DO AUGMENT, IGNORING AND CORRECTING OVF.
000166:
000167:    6136           77677                           MASK     HIGH9                                 #  SEE IF ADDRESS IS IN WORK AREA.
000168:    6137           00006                           EXTEND
000169:    6140           16153                           BZF      INDWORK
000170:    6141           77675                           MASK     HIGH4                                 #  SEE IF IN FIXED BANK.
000171:    6142           00006                           EXTEND
000172:    6143           16155                           BZF      INDERASE
000173:
000174:    6144           30116                           CA       ADDRWD                                #  IN FIXED - SWITCH BANKS AND CREATE
000175:    6145           54004                           TS       FBANK                                 #  SUB-ADDRESS.
000176:    6146           75041                           MASK     LOW10
000177:    6147           64756                           AD       2K
000178:    6150           54116                           TS       ADDRWD
000179:    6151           50020        ITR11              INDEX    CYR
000180:    6152           36242                           3        INDJUMP    -1
000181:
000182:    6153           30120        INDWORK            CA       FIXLOC                                #  MAKE ADDRWD RELATIVE TO WORK AREA.
000183:    6154           16161                           TCF      ITR13      -1
000184:
000185:    6155           35024        INDERASE           CA       OCT1400
000186:    6156           56116                           XCH      ADDRWD
000187:    6157           54003                           TS       EBANK
000188:    6160           74350                           MASK     LOW8
000189:    6161           26116                 -1        ADS      ADDRWD
000190:    6162           50020        ITR13              INDEX    CYR


000192:    6163           36242                           3        INDJUMP    -1
000193:


000195:                                                                                                  #  PUSH-UP ROUTINES. WHEN NO OPERAND ADDRESS IS GIVEN, THE APPROPRIATE OPERAND IS TAKEN FROM THE PUSH-DOWN
000196:                                                                                                  #  LIST. IN MOST CASES THE MODE OF THE RESULT (VECTOR OR SCALAR) OF THE LAST ARITHMETIC OPERATION PERFORMED
000197:                                                                                                  #  IS THE SAME AS THE TYPE OF OPERAND DESIRED (ALL ADD/SUBTRACT ETC.). EXCEPTIONS TO THIS GENERAL RULE ARE LISTED
000198:                                                                                                  #  BELOW (NOTE THAT IN EVERY CASE THE MODE REGISTER IS LEFT INTACT):
000199:
000200:                                                                                                  #        1.      VXSC AND V/SC WANT THE OPPOSITE TYPE OF OPERAND, E.G., IF THE LAST OPERATION YIELDED A VECTOR
000201:                                                                                                  #                RESULT, VXSC WANTS A SCALAR.
000202:
000203:                                                                                                  #        2.      THE LOAD CODES SHOULD LOAD THE ACCUMULATOR INDEPENDENT OF THE RESULT OF THE LAST OPERATION. THIS
000204:                                                                                                  #                INCLUDES VLOAD, DLOAD, TLOAD, PDDL, AND PDVL (NO PUSHUP WITH SLOAD).
000205:
000206:                                                                                                  #        3.      SOME ARITHMETIC OPERATIONS REQUIRE A STANDARD TYPE OF OPERAND REGARDLESS OF THE PREVIOUS OPERATION.
000207:                                                                                                  #                THIS INCLUDES SIGN WANTING DP AND TAD REQUIRING TP.
000208:
000209:    6164           34351        PUSHUP             CAF      OCT23                                 #  IF THE LOW 5 BITS OF CYR ARE LESS THAN
000210:    6165           70020                           MASK     CYR                                   #  20, THIS OP REQUIRES SPECIAL ATTENTION.
000211:    6166           66171                           AD       -OCT10                                #  (NO -0).
000212:    6167           10000                           CCS      A
000213:    6170           16202                           TCF      REGUP                                 #  FOR ALL CODES GREATER THAN OCT 7.
000214:
000215:    6171           77767        -OCT10             OCT      -10
000216:
000217:    6172           66061                           AD       NEG4                                  #  WE NOW HAVE 7 - OP CODE(MOD4).  SEE IF
000218:    6173           10000                           CCS      A                                     #  THE OP CODE (MOD4) IS THREE (REVERSE).
000219:    6174           50000                           INDEX    A                                     #  NO - THE MODE IS DEFINITE. PICK UP THE
000220:    6175           46213                           CS       NO.WDS
000221:    6176           16204                           TCF      REGUP      +2
000222:
000223:    6177           50163                           INDEX    MODE                                  #  FOR VXSC AND V/SC WE WANT THE REQUIRED
000224:    6200           46211                           CS       REVCNT                                #  PUSHLOC DECREMENT WITHOUT CHANGING THE
000225:    6201           16204                           TCF      REGUP      +2                         #  MODE AT THIS TIME.
000226:
000227:    6202           50163        REGUP              INDEX    MODE                                  #  MOST ALL OP CODES PUSHUP HERE.
000228:    6203           46213                           CS       NO.WDS
000229:    6204           26166                 +2        ADS      PUSHLOC
000230:    6205           54116                           TS       ADDRWD
000231:    6206           50020        ITR14              INDEX    CYR
000232:    6207           76242                           7        INDJUMP    -1                         #  (THE INDEX MAKES THIS A TCF.)
000233:
000234:    6210           00002                           OCT      2                                     #  REVERSE PUSHUP DECREMENT. VECTOR TAKES 2
000235:    6211           00006        REVCNT             OCT      6                                     #  WORDS, SCALAR TAKES 6.
000236:    6212           00006                           OCT      6
000237:    6213           00002        NO.WDS             OCT      2                                     #  CONVENTIONAL DECREMENT IS 6 WORDS VECTOR
000238:    6214           00003        OCTAL3             OCT      3                                     #  2 IN DP, AND 3 IN TP.
000239:    6215           00006                           OCT      6
000240:


000242:                                                                                                  #  TEST THE SECOND PREFIX BIT TO SEE IF THIS IS A MISCELLANEOUS OR A UNARY/SHORT SHIFT OPERATION.
000243:
000244:    6216           10020        OPJUMP2            CCS      CYR                                   #  TEST SECOND PREFIX BIT.
000245:    6217           16232                           TCF      OPJUMP3                               #  TEST THIRD BIT TO SEE IF UNARY OR SHIFT.
000246:
000247:    6220           77722        -ENDVAC            DEC      -45        B-14
000248:
000249:                                                                                                  #  THE FOLLOWING ROUTINE PROCESSES ADDRESSES OF SUFFIX CLASS 10. THEY ARE BASICALLY WORK AREA ADDRESSES
000250:                                                                                                  #  IN THE RANGE 0 - 52, ERASABLE ECADR CONSTANTS FROM 100 - 3777, AND FCADRS ABOVE THAT. ALL 15 BITS ARE AVAILABLE
000251:                                                                                                  #  IN CONTRAST TO SUFFIX 1, IN WHICH ONLY THE LOW ORDER 14 ARE AVAILABLE.
000252:
000253:    6221           24164        15BITADR           INCR     LOC                                   #  (ENTRY HERE FROM STCALL).
000254:    6222           50164                           INDEX    LOC                                   #  PICK UP ADDRESS WORD.
000255:    6223           30000                           CA       0
000256:    6224           54117                           TS       POLISH                                #  WE MAY NEED A SUBADDRESS LATER.
000257:
000258:    6225           35042                           CAF      LOW7+2K                               #  THESE INSTRUCTIONS ARE IN BANK 1.
000259:    6226           54004                           TS       FBANK
000260:    6227           70020                           MASK     CYR
000261:    6230           50000        ITR7               INDEX    A
000262:    6231           16303                           TCF      MISCJUMP
000263:


000265:                                                                                                  #  COMPLETE THE DISPATCHING OF UNARY AND SHORT SHIFT OPERATIONS.
000266:
000267:    6232           54004        OPJUMP3            TS       FBANK                                 #  CALL IN BANK 0 (BITS 11-15 OF A ARE 0.)
000268:
000269:    6233           10020                           CCS      CYR                                   #  TEST THIRD PREFIX BIT.
000270:    6234           50000                           INDEX    A                                     #  THE DECREMENTED UNARY CODE IS IN BITS
000271:    6235           12000                           TCF      UNAJUMP                               #  1-4 OF A (ZERO, EXIT, HAS BEEN DETECTED)
000272:
000273:    6236           10163                           CCS      MODE                                  #  ITS A SHORT SHIFT CODE. SEE IF PRESENT
000274:    6237           12017                           TCF      SHORTT                                #  SCALAR OR VECTOR.
000275:    6240           12017                           TCF      SHORTT
000276:    6241           12121                           TCF      SHORTV                                #  CALLS THE APPROPRIATE ROUTINE.
000277:
000278:    6242     4344               FBANKMSK           EQUALS   BANKMASK
000279:    6242           00122        LVBUF              ADRES    VBUF
000280:


000282:                                                                                                  #  THE FOLLOWING IS THE JUMP TABLE FOR OP CODES WHICH MAY HAVE INDEXABLE ADDRESSES OR MAY PUSH UP.
000283:
000284:    6243           16454        INDJUMP            TCF      VLOAD                                 #  00 - LOAD MPAC WITH A VECTOR.
000285:    6244           17040                           TCF      TAD                                   #  01 - TRIPLE PRECISION ADD TO MPAC.
000286:    6245           17611                           TCF      SIGN                                  #  02 - COMPLEMENT MPAC (V OR SC) IF X NEG.
000287:    6246           17335                           TCF      VXSC                                  #  03 - VECTOR TIMES SCALAR.
000288:    6247           16652                           TCF      CGOTO                                 #  04 - COMPUTED GO TO.
000289:    6250           16437                           TCF      TLOAD                                 #  05 - LOAD MPAC WITH TRIPLE PRECISION.
000290:    6251           16021                           TCF      DLOAD                                 #  06 - LOAD MPAC WITH A DP SCALAR.
000291:    6252           17560                           TCF      V/SC                                  #  07 - VECTOR DIVIDED BY SCALAR.
000292:
000293:    6253           16450                           TCF      SLOAD                                 #  10 - LOAD MPAC IN SINGLE PRECISION.
000294:    6254           16567                           TCF      SSP                                   #  11 - SET SINGLE PRECISION INTO X.
000295:    6255           16472                           TCF      PDDL                                  #  12 - PUSH DOWN MPAC AND RE-LOAD IN DP.
000296:    6256           17270                           TCF      MXV                                   #  13 - MATRIX POST-MULTIPLIED BY VECTOR.
000297:    6257           16526                           TCF      PDVL                                  #  14 - PUSH DOWN AND VECTOR LOAD.
000298:    6260           16575                           TCF      CCALL                                 #  15 - COMPUTED CALL.
000299:    6261           17273                           TCF      VXM                                   #  16 - MATRIX PRE-MULTIPLIED BY VECTOR.
000300:    6262           17552                           TCF      TSLC                                  #  17 - NORMALIZE MPAC (SCALAR ONLY).
000301:
000302:    6263           17530                           TCF      DMPR                                  #  20 - DP MULTIPLY AND ROUND.
000303:    6264           17533                           TCF      DDV                                   #  21 - DP DIVIDE BY.
000304:    6265           17537                           TCF      BDDV                                  #  22 - DP DIVIDE INTO.
000305:    6266           17555                           TCF      GSHIFT                                #  23 - GENERAL SHIFT INSTRUCTION.
000306:    6267           16720                           TCF      VAD                                   #  24 - VECTOR ADD.
000307:    6270           16716                           TCF      VSU                                   #  25 - VECTOR SUBTRACT.
000308:    6271           17005                           TCF      BVSU                                  #  26 - VECTOR SUBTRACT FROM.
000309:    6272           17265                           TCF      DOT                                   #  27 - VECTOR DOT PRODUCT.
000310:
000311:    6273           17414                           TCF      VXV                                   #  30 - VECTOR CROSS PRODUCT.
000312:    6274           17361                           TCF      VPROJ                                 #  31 - VECTOR PROJECTION.
000313:    6275           16754                           TCF      DSU                                   #  32 - DP SUBTRACT.
000314:    6276           17031                           TCF      BDSU                                  #  33 - DP SUBTRACT FROM.
000315:    6277           16744                           TCF      DAD                                   #  34 - DP ADD.
000316:    6300           16300                           TCF      +0                                    #  35 - AVAILABLE
000317:    6301           17526                           TCF      DMP1                                  #  36 - DP MULTIPLY.
000318:    6302           17547                           TCF      SETPD                                 #  37 - SET PUSH DOWN POINTER (DIRECT ONLY)
000319:
000320:                                                                                                  #  CODES 10 AND 14 MUST NOT PUSH UP. CODE 04 MAY BE USED FOR VECTOR DECLARE BEFORE PUSHUP IF DESIRED.
000321:


000323:                                                                                                  #  THE FOLLOWING JUMP TABLE APPLIES TO INDEX, BRANCH, AND MISCELLANEOUS INSTRUCTIONS.
000324:
000325:    6303           12341        MISCJUMP           TCF      AXT                                   #  00 - ADDRESS TO INDEX TRUE.
000326:    6304           12346                           TCF      AXC                                   #  01 - ADDRESS TO INDEX COMPLEMENTED.
000327:    6305           12351                           TCF      LXA                                   #  02 - LOAD INDEX FROM ERASABLE.
000328:    6306           12355                           TCF      LXC                                   #  03 - LOAD INDEX FROM COMPLEMENT OF ERAS.
000329:    6307           12361                           TCF      SXA                                   #  04 - STORE INDEX IN ERASABLE.
000330:    6310           12367                           TCF      XCHX                                  #  05 - EXCHANGE INDEX WITH ERASABLE.
000331:    6311           12403                           TCF      INCR                                  #  06 - INCREMENT INDEX REGISTER.
000332:    6312           12412                           TCF      TIX                                   #  07 - TRANSFER ON INDEX.
000333:
000334:    6313           12375                           TCF      XAD                                   #  10 - INDEX REGISTER ADD FROM ERASABLE.
000335:    6314           12406                           TCF      XSU                                   #  11 - INDEX SUBTRACT FROM ERASABLE.
000336:    6315           12464                           TCF      BZE/GOTO                              #  12 - BRANCH ZERO AND GOTO.
000337:    6316           12471                           TCF      BPL/BMN                               #  13 - BRANCH PLUS AND BRANCH MINUS.
000338:    6317           12444                           TCF      RTB/BHIZ                              #  14 - RETURN TO BASIC AND BRANCH HI ZERO.
000339:    6320           12504                           TCF      CALL/ITA                              #  15 - CALL AND STORE QPRET.
000340:    6321           12513                           TCF      SW/                                   #  16 - SWITCH INSTRUCTIONS AND AVAILABLE.
000341:    6322           12454                           TCF      BOV(B)                                #  17 - BRANCH ON OVERFLOW TO BASIC OR INT.
000342:


000344:                                                                                                  #  THE FOLLOWING JUMP TABLE APPIES TO UNARY INSTRUCTIONS.
000345:
000346: 00,2000                                           SETLOC   INTERB0
000347: 00,2000                                           BANK
000348:
000349: 00,2000                                           COUNT*   $$/INTER
000350: 00,2000           13206        UNAJUMP            TCF      SQRT                                  #  01 - SQUARE ROOT.
000351: 00,2001           13525                           TCF      SINE                                  #  02 - SIN.
000352: 00,2002           13514                           TCF      COSINE                                #  03 - COS.
000353: 00,2003           13605                           TCF      ARCSIN                                #  04 - ARC SIN.
000354: 00,2004           13607                           TCF      ARCCOS                                #  05 - ARC COS.
000355: 00,2005           13173                           TCF      DSQ                                   #  06 - DP SQUARE.
000356: 00,2006           12116                           TCF      ROUND                                 #  07 - ROUND TO DP.
000357:
000358: 00,2007           17624                           TCF      COMP                                  #  10 - COMPLEMENT VECTOR OR SCALAR.
000359: 00,2010           13231                           TCF      VDEF                                  #  11 - VECTOR DEFINE.
000360: 00,2011           13022                           TCF      UNIT                                  #  12 - UNIT VECTOR.
000361: 00,2012           13175                           TCF      ABVALABS                              #  13 - LENGTH OF VECTOR OR MAG OF SCALAR.
000362: 00,2013           13244                           TCF      VSQ                                   #  14 - SQUARE OF LENGTH OF VECTOR.
000363: 00,2014           16323                           TCF      STADR                                 #  15 - PUSH UP ON STORE CODE.
000364: 00,2015           13273                           TCF      RVQ                                   #  16 - RETURN VIA QPRET.
000365: 00,2016           13246                           TCF      PUSH                                  #  17 - PUSH MPAC DOWN.
000366:


000368:                                                                                                  #  SECTION 2     LOAD AND STORE PACKAGE.
000369:
000370:                                                                                                  #  A SET OF EIGHT STORE CODES IS PROVIDED AS THE PRIMARY METHOD OF STORING THE MULTI-PURPOSE
000371:                                                                                                  #  ACCUMULATOR (MPAC). IF IN THE DANZIG SECTION LOC REFERS TO AN ALGEBRAICALLY POSITIVE WORD, IT IS TAKEN AS A
000372:                                                                                                  #  STORE CODE WITH A CORRESPONDING ERASABLE ADDRESS. MOST OF THESE CODES ARE TWO ADDRESS, SPECIFYING THAT THE WORD
000373:                                                                                                  #  FOLLOWING THE STORE CODE IS TO BE USED AS AN ADDRESS FROM WHICH TO RE-LOAD MPAC. FOUR OPTIONS ARE AVAILABLE:
000374:
000375:                                                                                                  #        1. STORE        STORE MPAC. THE E ADDRESS MAY BE INDEXED.
000376:                                                                                                  #        2. STODL        STORE MPAC AND RE-LOAD IT IN DP WITH THE NEXT ADDRESS (THE LOAD MAY BE INDEXED).
000377:                                                                                                  #        3. STOVL        STORE MPAC AND RE-LOAD A VECTOR (AS ABOVE).
000378:                                                                                                  #        4. STCALL       STORE AND DO A CALL (BOTH ADDRESSES MUST BE DIRECT HERE).
000379:
000380:                                                                                                  #  STODL AND STOVL WILL TAKE FROM THE PUSH-DOWN LIST IF NO LOAD ADDRESS IS GIVEN.
000381:
000382:    6000                                           SETLOC   INTERF3
000383:    6000                                           BANK
000384:
000385:    6323                                           COUNT*   $$/INTER
000386:    6323           30165        STADR              CA       BANKSET                               #  THE STADR CODE (PUSHUP UP ON STORE
000387:    6324           54004                           TS       FBANK                                 #  ADDRESS) ENTERS HERE.
000388:    6325           24164                           INCR     LOC
000389:    6326           50164        ITR1               INDEX    LOC                                   #  THE STORECODE WAS STORED COMPLEMENTED TO
000390:    6327           40000                           CS       0                                     #  MAKE IT LOOK LIKE AN OPCODE PAIR.
000391:    6330           67702                           AD       NEGONE                                #  (YUL CANT REMOVE 1 BECAUSE OF EARLY CCS)
000392:
000393:    6331           54116        DOSTORE            TS       ADDRWD
000394:    6332           74347                           MASK     LOW11                                 #  ENTRY FROM DISPATCHER. SAVE THE ERASABLE
000395:    6333           56116                           XCH      ADDRWD                                #  ADDRESS AND JUMP ON THE STORE CODE NO.
000396:    6334           77656                           MASK     B12T14
000397:    6335           00006                           EXTEND
000398:    6336           74764                           MP       BIT5                                  #  EACH TRANSFER VECTOR ENTRY IS TWO WORDS.
000399:    6337           50000        ITR0               INDEX    A
000400:    6340           16341                           TCF      STORJUMP
000401:


000403:                                                                                                  #  STORE CODE JUMP TABLE. CALLS THE APPROPRIATE STORING ROUTINE AND EXITS TO DANZIG OR TO ADDRESS WITH
000404:                                                                                                  #  A SUPPLIED OPERATION CODE.
000405:
000406:                                                                                                  #  STORE STORE,1 AND STORE,2 RETURN TO DANZIG, THUS RESETTING THE EBANK TO ITS STATE AT INTPRET.
000407:
000408:    6341           06371        STORJUMP           TC       STORE                                 #  STORE.
000409:    6342           16030                           TCF      DANZIG                                #  PICK UP NEW OP CODE(S).
000410:    6343           06363                           TC       STORE,1
000411:    6344           16030                           TCF      DANZIG
000412:    6345           06366                           TC       STORE,2
000413:    6346           16030                           TCF      DANZIG
000414:
000415:    6347           06371                           TC       STORE                                 #  STODL.
000416:    6350           16427                           TCF      DODLOAD
000417:
000418:    6351           06371                           TC       STORE                                 #  STODL WITH INDEXED LOAD ADDRESS.
000419:    6352           16113                           TCF      DODLOAD*
000420:
000421:    6353           06371                           TC       STORE                                 #  STOVL.
000422:    6354           16432                           TCF      DOVLOAD
000423:
000424:    6355           06371                           TC       STORE                                 #  STOVL WITH INDEXED LOAD ADDRESS.
000425:    6356           16435                           TCF      DOVLOAD*
000426:    6357           06371                           TC       STORE                                 #  STOTC.
000427:    6360           35002                           CAF      CALLCODE
000428:    6361           54020                           TS       CYR
000429:    6362           16221                           TCF      15BITADR                              #  GET A 15 BIT ADDRESS.
000430:


000432:                                                                                                  #  STORE CODE ADDRESS PROCESSOR.
000433:
000434:    6363           50120        STORE,1            INDEX    FIXLOC
000435:    6364           40046                           CS       X1
000436:    6365           16370                           TCF      PRESTORE
000437:
000438:    6366           50120        STORE,2            INDEX    FIXLOC
000439:    6367           40047                           CS       X2
000440:    6370           26116        PRESTORE           ADS      ADDRWD                                #  RESULTANT ADDRESS IS IN ERASABLE.
000441:
000442:    6371           40116        STORE              CS       ADDRWD
000443:    6372           65006                           AD       DEC45
000444:    6373           10000                           CCS      A                                     #  DOES THE ADDRESS POINT TO THE WORK AREA?
000445:    6374           30120                           CA       FIXLOC                                #  YES.
000446:    6375           16402                           TCF      AHEAD5
000447:    6376           35024                           CA       OCT1400                               #  NO.  SET EBANK & MAKE UP SUBADDRESS.
000448:    6377           56116                           XCH      ADDRWD
000449:    6400           54003                           TS       EBANK
000450:    6401           74350                           MASK     LOW8
000451:    6402           26116        AHEAD5             ADS      ADDRWD
000452:


000454:                                                                                                  #  STORING ROUTINES. STORE DP, TP, OR VECTOR AS INDICATED BY MODE.
000455:
000456:    6403           00006        STARTSTO           EXTEND                                         #  MPAC,+1 MUST BE STORED IN ANY EVENT.
000457:                                                                                                  #  ITRACE (5) REFERS TO "STARTSTO".
000458:    6404           30155                           DCA      MPAC
000459:    6405           50116                           INDEX    ADDRWD
000460:    6406           52001                           DXCH     0
000461:
000462:    6407           10163                           CCS      MODE
000463:    6410           16423                           TCF      TSTORE
000464:    6411           00002                           TC       Q
000465:
000466:    6412           00006        VSTORE             EXTEND
000467:    6413           30160                           DCA      MPAC       +3
000468:    6414           50116                           INDEX    ADDRWD
000469:    6415           52003                           DXCH     2
000470:
000471:    6416           00006                           EXTEND
000472:    6417           30162                           DCA      MPAC       +5
000473:    6420           50116                           INDEX    ADDRWD
000474:    6421           52005                           DXCH     4
000475:    6422           00002                           TC       Q
000476:
000477:    6423           30156        TSTORE             CA       MPAC       +2
000478:    6424           50116                           INDEX    ADDRWD
000479:    6425           54002                           TS       2
000480:    6426           00002                           TC       Q
000481:


000483:                                                                                                  #  ROUTINES TO BEGIN PROCESSING OF THE SECOND ADDRESS ASSOCIATED WITH ALL STORE-TYPE CODES EXCEPT STORE
000484:                                                                                                  #  ITSELF.
000485:
000486:    6427           37665        DODLOAD            CAF      DLOADCOD
000487:    6430           54020                           TS       CYR
000488:    6431           16055                           TCF      DIRADRES                              #  GO GET A DIRECT ADDRESS.
000489:
000490:    6432           34752        DOVLOAD            CAF      VLOADCOD
000491:    6433           54020                           TS       CYR
000492:    6434           16055                           TCF      DIRADRES
000493:
000494:    6435           36056        DOVLOAD*           CAF      VLOAD*
000495:    6436           16114                           TCF      DODLOAD*   +1                         #  PROLOGUE TO INDEX ROUTINE.
000496:


000498:                                                                                                  #  THE FOLLOWING LOAD INSTRUCTIONS ARE PROVIDED FOR LOADING THE MULTI-PURPOSE ACCUMULATOR MPAC.
000499:
000500:    6437           50116        TLOAD              INDEX    ADDRWD
000501:    6440           30002                           CA       2                                     #  LOAD A TRIPLE PRECISION ARGUMENT INTO
000502:    6441           54156                           TS       MPAC       +2                         #  THE FIRST THREE MPAC REGISTERS, WITH THE
000503:    6442           00006                           EXTEND                                         #  CONTENTS OF THE OTHER FOUR IRRELEVANT.
000504:    6443           50116                           INDEX    ADDRWD
000505:    6444           30001                           DCA      0
000506:    6445           52155                           DXCH     MPAC
000507:    6446           34770        TMODE              CAF      ONE
000508:    6447           16027                           TCF      NEWMODE                               #  DECLARE TRIPLE PRECISION MODE.
000509:
000510:    6450           22007        SLOAD              ZL                                             #  LOAD A SINGLE PRECISION NUMBER INTO
000511:    6451           50116                           INDEX    ADDRWD                                #  MPAC, SETTING MPAC+1,2 TO ZERO. THE
000512:    6452           30000                           CA       0                                     #  CONTENTS OF THE REMAINING MPAC REGISTERS
000513:    6453           16024                           TCF      SLOAD2                                #  ARE IRRELEVANT.
000514:
000515:    6454           00006        VLOAD              EXTEND                                         #  LOAD A DOUBLE PRECISION VECTOR INTO
000516:    6455           50116                           INDEX    ADDRWD                                #  MPAC,+1, MPAC+3,4, AND MPAC+5,6. THE
000517:    6456           30001                           DCA      0                                     #  CONTENTS OF MPAC +2 ARE IRRELEVANT.
000518:    6457           52155                           DXCH     MPAC
000519:
000520:    6460           00006        ENDVLOAD           EXTEND                                         #  PDVL COMES HERE TO FINISH UP FOR DP, TP.
000521:    6461           50116                           INDEX    ADDRWD
000522:    6462           30003                           DCA      2
000523:    6463           52160                           DXCH     MPAC       +3
000524:
000525:    6464           00006                 +4        EXTEND                                         #  TPDVL FINISHES HERE.
000526:    6465           50116                           INDEX    ADDRWD
000527:    6466           30005                           DCA      4
000528:    6467           52162                           DXCH     MPAC       +5
000529:
000530:    6470           44770        VMODE              CS       ONE                                   #  DECLARE VECTOR MODE.
000531:    6471           16027                           TCF      NEWMODE
000532:


000534:                                                                                                  #  THE FOLLOWING INSTRUCTIONS ARE PROVIDED FOR STORING OPERANDS IN THE PUSHDOWN LIST:
000535:                                                                                                  #        1.      PUSH            PUSHDOWN AND NO LOAD.
000536:                                                                                                  #        2.      PDDL            PUSHDOWN AND DOUBLE PRECISION LOAD.
000537:                                                                                                  #        3.      PDVL            PUSHDOWN AND VECTOR LOAD.
000538:
000539:    6472           00006        PDDL               EXTEND
000540:    6473           50116                           INDEX    ADDRWD                                #  LOAD MPAC,+1, PUSHING THE FORMER
000541:    6474           30001                           DCA      0                                     #  CONTENTS DOWN.
000542:    6475           52155                           DXCH     MPAC
000543:    6476           50166                           INDEX    PUSHLOC
000544:    6477           52001                           DXCH     0
000545:
000546:    6500           50163                           INDEX    MODE                                  #  ADVANCE THE PUSHDOWN POINTER APPRO-
000547:    6501           36213                           CAF      NO.WDS                                #  PRIATELY.
000548:    6502           26166                           ADS      PUSHLOC
000549:
000550:    6503           10163                           CCS      MODE
000551:    6504           16521                           TCF      ENDTPUSH
000552:    6505           16517                           TCF      ENDDPUSH
000553:
000554:    6506           54163                           TS       MODE                                  #  NOW DP.
000555:    6507           54156        ENDVPUSH           TS       MPAC       +2
000556:    6510           52160                           DXCH     MPAC       +3                         #  PUSH DOWN THE REST OF THE VECTOR HERE.
000557:    6511           50166                           INDEX    PUSHLOC
000558:    6512           51775                           DXCH     0          -4
000559:
000560:    6513           52162                           DXCH     MPAC       +5
000561:    6514           50166                           INDEX    PUSHLOC
000562:    6515           51777                           DXCH     0          -2
000563:
000564:    6516           16030                           TCF      DANZIG
000565:
000566:    6517           54156        ENDDPUSH           TS       MPAC       +2                         #  SET MPAC +2 TO ZERO AND EXIT ON DP.
000567:    6520           16030                           TCF      DANZIG
000568:
000569:    6521           54163        ENDTPUSH           TS       MODE
000570:    6522           56156                           XCH      MPAC       +2                         #  ON TRIPLE, SET MPAC +2 TO ZERO, PUSHING
000571:    6523           50166                 +2        INDEX    PUSHLOC                               #  DOWN THE OLD CONTENTS
000572:    6524           53777                           TS       0          -1
000573:    6525           16030                           TCF      DANZIG
000574:


000576:                                                                                                  #  PDVL - PUSHDOWN AND VECTOR LOAD.
000577:
000578:    6526           00006        PDVL               EXTEND                                         #  RELOAD MPAC AND PUSH DOWN ITS CONTENTS.
000579:    6527           50116                           INDEX    ADDRWD
000580:    6530           30001                           DCA      0
000581:    6531           52155                           DXCH     MPAC
000582:    6532           50166                           INDEX    PUSHLOC
000583:    6533           52001                           DXCH     0
000584:
000585:    6534           50163                           INDEX    MODE                                  #  ADVANCE THE PUSHDOWN POINTER.
000586:    6535           36213                           CAF      NO.WDS
000587:    6536           26166                           ADS      PUSHLOC
000588:
000589:    6537           10163                           CCS      MODE                                  #  TEST PAST MODE.
000590:    6540           16557                           TCF      TPDVL
000591:    6541           16460                           TCF      ENDVLOAD                              #  JUST LOAD LAST FOUR REGISTERS ON DP.
000592:
000593:    6542           00006        VPDVL              EXTEND                                         #  PUSHDOWN AND RE-LOAD LAST TWO COMPONENTS
000594:    6543           50116                           INDEX    ADDRWD
000595:    6544           30003                           DCA      2
000596:    6545           52160                           DXCH     MPAC       +3
000597:    6546           50166                           INDEX    PUSHLOC
000598:    6547           51775                           DXCH     0          -4
000599:
000600:    6550           00006                           EXTEND
000601:    6551           50116                           INDEX    ADDRWD
000602:    6552           30005                           DCA      4
000603:    6553           52162                           DXCH     MPAC       +5
000604:    6554           50166                           INDEX    PUSHLOC
000605:    6555           51777                           DXCH     0          -2
000606:
000607:    6556           16030                           TCF      DANZIG
000608:
000609:    6557           00006        TPDVL              EXTEND                                         #  ON TP, WE MUST LOAD THE Y COMPONENT
000610:    6560           50116                           INDEX    ADDRWD                                #  BEFORE STORING MPAC +2 IN CASE THIS IS A
000611:    6561           30003                           DCA      2                                     #  PUSHUP.
000612:    6562           52160                           DXCH     MPAC       +3
000613:
000614:    6563           30156                           CA       MPAC       +2
000615:    6564           50166                           INDEX    PUSHLOC                               #  IN DP.
000616:    6565           53777                           TS       0          -1
000617:    6566           16464                           TCF      ENDVLOAD   +4
000618:
000619:                                                                                                  #  SSP (STORE SINGLE PRECISION) IS EXECUTED HERE.
000620:
000621:    6567           24164        SSP                INCR     LOC                                   #  PICK UP THE WORD FOLLOWING THE GIVEN
000622:    6570           50164                           INDEX    LOC                                   #  ADDRESS AND STORE IT AT X.
000623:    6571           30000                           CA       0
000624:    6572           50116        STORE1             INDEX    ADDRWD                                #  SOME INDEX AND MISCELLANEOUS OPS END
000625:    6573           54000                           TS       0                                     #  HERE.


000627:    6574           16030                           TCF      DANZIG
000628:


000630:                                                                                                  #  SEQUENCE CHANGING AND SUBROUTINE CALLING OPTIONS.
000631:
000632:                                                                                                  #  THE FOLLOWING OPERATIONS ARE AVAILABLE FOR SEQUENCING CHANGING, BRANCHING, AND CALLING SUBROUTINES:
000633:
000634:                                                                                                  #        1.      GOTO            GO TO.
000635:                                                                                                  #        2.      CALL            CALL SUBROUTINE SETTING QPRET.
000636:                                                                                                  #        3.      CGOTO           COMPUTED GO TO.
000637:                                                                                                  #        4.      CCALL           COMPUTED CALL.
000638:                                                                                                  #        7.      BPL             BRANCH IF MPAC POSITIVE OR ZERO.
000639:                                                                                                  #        8.      BZE             BRANCH IF MPAC ZERO.
000640:                                                                                                  #        9.      BMN             BRANCH IF MPAC NEGATIVE NON-ZERO.
000641:
000642:    6575           24164        CCALL              INCR     LOC                                   #  MAINTAIN LOC FOR QPRET COMPUTATION.
000643:    6576           50164                           INDEX    LOC
000644:    6577           30000                           CAF      0                                     #  GET BASE ADDRESS OF CADR LIST.
000645:    6600           50116                           INDEX    ADDRWD
000646:    6601           60000                           AD       0                                     #  ADD INCREMENT.
000647:    6602           54004                           TS       FBANK                                 #  SELECT DESIRED CADR.
000648:    6603           75041                           MASK     LOW10
000649:    6604           50000                           INDEX    A
000650:    6605           32000                           CAF      10000
000651:    6606           54117                           TS       POLISH
000652:
000653:    6607           30165        CALL               CA       BANKSET                               #  FOR ANY OF THE CALL OPTIONS, MAKE UP THE
000654:    6610           74344                           MASK     BANKMASK                              #  ADDRESS OF THE NEXT OP-CODE PAIR/STORE
000655:    6611           64344                           AD       BANKMASK                              #  CODE AND LEAVE IT IN QPRET.  NOTE THAT
000656:    6612           60164                           AD       LOC                                   #  BANKMASK = -(2000 - 1).
000657:    6613           50120                           INDEX    FIXLOC
000658:    6614           54052                           TS       QPRET
000659:
000660:    6615           30117        GOTO               CA       POLISH                                #  BASIC BRANCHING SEQUENCE.
000661:    6616           77675                 +1        MASK     HIGH4
000662:    6617           00006                           EXTEND
000663:    6620           16631                           BZF      GOTOERS                               #  SEE IF ADDRESS POINTS TO FIXED OR ERAS.
000664:    6621           30165                 +4        CA       BANKSET                               #  SET EBANK PART OF BBANK. NEXT, SET UP
000665:    6622           54006                           TS       BBANK                                 #  FBANK. THE COMBINATION IS PICKED UP &
000666:    6623           30117                           CA       POLISH                                #  PUT INTO BANKSET AT INTPRET +2.
000667:    6624           54004                           TS       FBANK
000668:    6625           75041                           MASK     LOW10
000669:    6626           64756                           AD       2K
000670:    6627           54164                           TS       LOC
000671:    6630           16011                           TCF      INTPRET    +3
000672:
000673:    6631  E3,1400                                  EBANK=   1400                                  #  SO YUL DOESN'T CUSS THE "CA 1400" BELOW.
000674:
000675:    6631           30117        GOTOERS            CA       POLISH                                #  THE GIVEN ADDRESS IS IN ERASABLE - SEE
000676:    6632           66220                           AD       -ENDVAC                               #  IF RELATIVE TO THE WORK AREA.
000677:    6633           10000                           CCS      A
000678:    6634           30117                           CA       POLISH                                #  GENERAL ERASABLE.
000679:    6635           16644                           TCF      GOTOGE


000681:    6636           30120                           CA       FIXLOC                                #  WORK AREA.
000682:    6637           60117                           AD       POLISH
000683:    6640           50000                           INDEX    A                                     #  USE THE GIVEN ADDRESS AS THE ADDRESS OF
000684:    6641           30000                           CA       0                                     #  THE BRANCH ADDRESS.
000685:    6642           54117                           TS       POLISH
000686:    6643           16616                           TCF      GOTO       +1                         #  ALLOWS ARBITRARY INDIRECTNESS LEVELS.
000687:
000688:    6644           54003        GOTOGE             TS       EBANK
000689:    6645           74350                           MASK     LOW8
000690:    6646           50000                           INDEX    A                                     #  USE THE GIVEN ADDRESS AS THE ADDRESS OF
000691:    6647           31400                           CA       1400                                  #  THE BRANCH ADDRESS.
000692:    6650           54117                           TS       POLISH
000693:    6651           16616                           TCF      GOTO       +1
000694:
000695:    6652           50164        CGOTO              INDEX    LOC                                   #  COMPUTED GO TO. PICK UP ADDRESS OF CADR
000696:    6653           30001                           CA       1                                     #  LIST.
000697:    6654           50116                           INDEX    ADDRWD                                #  ADD MODIFIER.
000698:    6655           60000                           AD       0
000699:    6656           54004                           TS       FBANK                                 #  SELECT GOTO ADDRESS.
000700:    6657           75041                           MASK     LOW10
000701:    6660           50000                           INDEX    A
000702:    6661           32000                           CA       10000
000703:    6662           54117                           TS       POLISH
000704:    6663           16616                           TCF      GOTO       +1                         #  WITH ADDRESS IN A.
000705:
000706:    6664           30165        SWBRANCH           CA       BANKSET                               #  SWITCH INSTRUCTIONS WHICH ELECT TO
000707:    6665           54004                           TS       FBANK                                 #  BRANCH COME HERE TO DO SO.
000708:    6666           50164                           INDEX    LOC
000709:    6667           30001                           CA       1
000710:    6670           54117                           TS       POLISH
000711:    6671           16616                           TCF      GOTO       +1
000712:


000714:                                                                                                  #  TRIPLE PRECISION BRANCHING ROUTINE. IF CALLING TC IS AT L, RETURN IS AS FOLLOWS:
000715:
000716:                                                                                                  #        L+1     IF MPAC IS GREATER THAN ZERO.
000717:                                                                                                  #        L+2     IF MPAC IS EQUAL TO +0 OR -0.
000718:                                                                                                  #        L+3     IF MPAC IS LESS THAN ZERO.
000719:
000720:    6672           10154        BRANCH             CCS      MPAC
000721:    6673           00002                           TC       Q
000722:    6674           16676                           TCF      +2                                    #  ON ZERO.
000723:    6675           16710                           TCF      NEG
000724:
000725:    6676           10155                           CCS      MPAC       +1
000726:    6677           00002                           TC       Q
000727:    6700           16702                           TCF      +2
000728:    6701           16710                           TCF      NEG
000729:
000730:    6702           10156                           CCS      MPAC       +2
000731:    6703           00002                           TC       Q
000732:    6704           16706                           TCF      +2
000733:    6705           16710                           TCF      NEG
000734:
000735:    6706           50002        Q+1                INDEX    Q
000736:    6707           00001                           TC       1
000737:
000738:    6710           50002        NEG                INDEX    Q                                     #  IF FIRST NON-ZERO REGISTER WAS NEGATIVE.
000739:    6711           00002        TCQ                TC       2
000740:
000741:    6712     6710               Q+2                =        NEG
000742:
000743:                                                                                                  #  ITRACE (3) REFERS TO "EXIT".
000744:
000745:    6712           30165        EXIT               CA       BANKSET                               #  RESTORE USER'S BANK SETTING, AND LEAVE
000746:    6713           54006                           TS       BBANK                                 #  INTERPRETIVE MODE.
000747:    6714           50164                           INDEX    LOC
000748:    6715           00001                           TC       1
000749:


000751:                                                                                                  #  SECTION 3 - ADD/SUBTRACT PACKAGE.
000752:
000753:                                                                                                  #  THE FOLLOWING OPERATIONS ARE PROVIDED FOR ADDING TO AND SUBTRACTING FROM THE MULTI-PURPOSE ACCUMULATOR
000754:                                                                                                  #  MPAC:
000755:
000756:                                                                                                  #        1.      DAD             DOUBLE PRECISION ADD.
000757:                                                                                                  #        2.      DSU             DOUBLE PRECISION SUBTRACT.
000758:                                                                                                  #        3.      BDSU            DOUBLE PRECISION SUBTRACT FROM.
000759:
000760:                                                                                                  #        4.      TAD             TRIPLE PRECISION ADD.
000761:
000762:                                                                                                  #        5.      VAD             VECTOR ADD.
000763:                                                                                                  #        6.      VSU             VECTOR SUBTRACT.
000764:                                                                                                  #        7.      BVSU            VECTOR SUBTRACT FROM.
000765:
000766:                                                                                                  #  THE INTERPRETIVE OVERFLOW INDICATOR OVFIND IS SET NON-ZERO IF OVERFLOW OCCURS IN ANY OF THE ABOVE.
000767:
000768:    6716           34752        VSU                CAF      BIT15                                 #  CHANGES 0 TO DCS.
000769:    6717           16721                           TCF      +2
000770:
000771:    6720           34346        VAD                CAF      PRIO30                                #  CHANGES 0 TO DCA.
000772:    6721           26116                           ADS      ADDRWD
000773:    6722           00006                           EXTEND
000774:    6723           50116                           INDEX    ADDRWD
000775:    6724           00003                           READ     HISCALAR                              #  DCA  2   OR   DCS  2
000776:    6725           20160                           DAS      MPAC       +3
000777:    6726           00006                           EXTEND                                         #  CHECK OVERFLOW.
000778:    6727           16731                           BZF      +2
000779:    6730           06763                           TC       OVERFLWY
000780:
000781:    6731           00006                           EXTEND
000782:    6732           50116                           INDEX    ADDRWD
000783:    6733           00005                           READ     CHAN5                                 #  DCA  4   OR   DCS  4
000784:    6734           20162                           DAS      MPAC       +5
000785:    6735           00006                           EXTEND
000786:    6736           16740                           BZF      +2
000787:    6737           06760                           TC       OVERFLWZ
000788:
000789:    6740           00006                           EXTEND
000790:    6741           50116                           INDEX    ADDRWD
000791:    6742           00001                           READ     LCHAN                                 #  DCA  0   OR   DCS  0
000792:    6743           16747                           TCF      ENDVXV
000793:
000794:    6744           00006        DAD                EXTEND
000795:    6745           50116                           INDEX    ADDRWD
000796:    6746           30001                           DCA      0
000797:    6747           20155        ENDVXV             DAS      MPAC                                  #  VXV FINISHES HERE.
000798:    6750           00006                           EXTEND
000799:    6751           16030                           BZF      DANZIG
000800:


000802:    6752           06766        SETOVF             TC       OVERFLOW
000803:    6753           16030                           TCF      DANZIG
000804:


000806:    6754           00006        DSU                EXTEND
000807:    6755           50116                           INDEX    ADDRWD
000808:    6756           40001                           DCS      0
000809:    6757           16747                           TCF      ENDVXV
000810:
000811:    6760           54001        OVERFLWZ           TS       L                                     #  ENTRY FOR THIRD COMPONENT.
000812:    6761           34773                           CAF      FIVE
000813:    6762           16765                           TCF      +3
000814:
000815:    6763           54001        OVERFLWY           TS       L                                     #  ENTRY FOR SECOND COMPONENT.
000816:    6764           36214                           CAF      THREE
000817:    6765           56001                           XCH      L
000818:
000819:    6766           50000        OVERFLOW           INDEX    A                                     #  ENTRY FOR 1ST COMP OR DP (L=0).
000820:    6767           44751                           CS       LIMITS                                #  PICK UP POSMAX OR NEGMAX.
000821:    6770           54130                           TS       BUF
000822:    6771           00006                           EXTEND
000823:    6772           24000                           AUG      A
000824:    6773           50001                           INDEX    L
000825:    6774           26155                           ADS      MPAC       +1
000826:    6775           54007                           TS       7
000827:    6776           34772                           CAF      ZERO
000828:    6777           60130                           AD       BUF
000829:    7000           50001                           INDEX    L
000830:    7001           26154                           ADS      MPAC
000831:    7002           54007                           TS       7
000832:    7003           00002                           TC       Q                                     #  NO OVERFLOW EXIT.
000833:    7004           17121                           TCF      SETOVF2                               #  SET OVFIND AND EXIT.
000834:
000835:    7005           00006        BVSU               EXTEND
000836:    7006           50116                           INDEX    ADDRWD
000837:    7007           30003                           DCA      2
000838:    7010           52160                           DXCH     MPAC       +3
000839:    7011           00006                           EXTEND
000840:    7012           40001                           DCOM
000841:    7013           20160                           DAS      MPAC       +3
000842:    7014           00006                           EXTEND
000843:    7015           17017                           BZF      +2
000844:    7016           06763                           TC       OVERFLWY
000845:
000846:    7017           00006                           EXTEND
000847:    7020           50116                           INDEX    ADDRWD
000848:    7021           30005                           DCA      4
000849:    7022           52162                           DXCH     MPAC       +5
000850:    7023           00006                           EXTEND
000851:    7024           40001                           DCOM
000852:    7025           20162                           DAS      MPAC       +5
000853:    7026           00006                           EXTEND
000854:    7027           17031                           BZF      +2
000855:    7030           06760                           TC       OVERFLWZ
000856:


000858:    7031           00006        BDSU               EXTEND
000859:    7032           50116                           INDEX    ADDRWD
000860:    7033           30001                           DCA      0
000861:    7034           52155                           DXCH     MPAC
000862:    7035           00006                           EXTEND
000863:    7036           40001                           DCOM
000864:    7037           16747                           TCF      ENDVXV
000865:


000867:                                                                                                  #  TRIPLE PRECISION ADD ROUTINE.
000868:
000869:    7040           00006        TAD                EXTEND
000870:    7041           50116                           INDEX    ADDRWD
000871:    7042           30002                           DCA      1                                     #  ADD MINOR PARTS FIRST.
000872:    7043           20156                           DAS      MPAC       +1
000873:    7044           50116                           INDEX    ADDRWD
000874:    7045           60000                           AD       0
000875:    7046           60154                           AD       MPAC
000876:    7047           54154                           TS       MPAC
000877:    7050           16030                           TCF      DANZIG
000878:
000879:    7051           16752                           TCF      SETOVF                                #  SET OVFIND IF SUCH OCCURS.
000880:


000882:                                                                                                  #  ARITHMETIC SUBROUTINES REQUIRED IN FIXED-FIXED.
000883:
000884:                                                                                                  #        1.  DMPSUB      DOUBLE PRECISION MULTIPLY. MULTIPLY THE CONTENTS OF MPAC,+1 BY THE DP WORD WHOSE ADDRESS
000885:                                                                                                  #                        IS IN ADDRWD AND LEAVE A TRIPLE PRECISION RESULT IN MPAC.
000886:                                                                                                  #        2.  ROUNDSUB    ROUND THE TRIPLE PRECISON CONTENTS OF MPAC TO DOUBLE PRECISION.
000887:                                                                                                  #        3.  DOTSUB      TAKE THE DOT PRODUCT OF THE VECTOR IN MPAC AND THE VECTOR WHOSE ADDRESS IS IN ADDRWD
000888:                                                                                                  #                        AND LEAVE THE TRIPLE PRECISION RESULT IN MPAC.
000889:                                                                                                  #        4.  POLY        USING THE CONTENTS OF MPAC AS A DP ARGUMENT, EVALUATE THE POLYNOMIAL WHOSE DEGREE AND
000890:                                                                                                  #                        COEFFICIENTS IMMEDIATELY FOLLOW THE TC POLY INSTRUCTION (SEE ROUTINE FOR DETAILS.)
000891:
000892:    7052           50002        DMP                INDEX    Q                                     #  BASIC SUBROUTINE FOR USE BY PINBALL, ETC
000893:    7053           30000                           CAF      0                                     #  ADRES OF ARGUMENT FOLLOWS  TC DMP  .
000894:    7054           24002                           INCR     Q
000895:    7055           54116                 -1        TS       ADDRWD                                #  (PROLOGUE FOR SETTING ADDRWD.)
000896:
000897:    7056           50116        DMPSUB             INDEX    ADDRWD                                #  GET MINOR PART OF OPERAND AT C(ADDRWD).
000898:    7057           30001                           CA       1
000899:    7060           54156                           TS       MPAC       +2                         #  THIS WORKS FOR SQUARING MPAC AS WELL.
000900:    7061           34772                           CAF      ZERO                                  #  SET MPAC +1 TO ZERO SO WE CAN ACCUMULATE
000901:    7062           56155                           XCH      MPAC       +1                         #  THE PARTIAL PRODUCTS WITH DAS
000902:    7063           54135                           TS       MPTEMP                                #  INSTRUCTIONS.
000903:    7064           00006                           EXTEND
000904:    7065           70156                           MP       MPAC       +2                         #  MINOR OF MPAC X MINOR OF C(ADDRWD).
000905:
000906:    7066           56156                           XCH      MPAC       +2                         #  DISCARD MINOR PART OF ABOVE RESULT AND
000907:    7067           00006                           EXTEND                                         #  FORM MAJOR OF MPAC X MINOR OF C(ADDRWD).
000908:    7070           70154                           MP       MPAC
000909:    7071           20156                           DAS      MPAC       +1                         #  GUARANTEED NO OVERFLOW.
000910:
000911:    7072           50116                           INDEX    ADDRWD                                #  GET MAJOR PART OF ARGUMENT AT C(ADDRWD).
000912:    7073           30000                           CA       0
000913:    7074           56135                           XCH      MPTEMP                                #  SAVE AND BRING OUT MINOR OF MPAC.
000914:    7075           00006        DMPSUB2            EXTEND
000915:    7076           70135                           MP       MPTEMP                                #  MAJOR OF C(ADDRWD) X MINOR OF MPAC.
000916:    7077           20156                           DAS      MPAC       +1                         #  ACCUMULATE, SETTING A TO NET OVERFLOW.
000917:
000918:    7100           56154                           XCH      MPAC                                  #  SETTING MPAC TO 0 OR +-1.
000919:    7101           00006                           EXTEND
000920:    7102           70135                           MP       MPTEMP                                #  MAJOR OF MPAC X MAJOR OF C(ADDRWD).
000921:    7103           20155                           DAS      MPAC                                  #  GUARANTEED NO OVERFLOW.
000922:    7104           00002                           TC       Q                                     #  49 MCT = .573 MS. INCLUDING RETURN.
000923:


000925:                                                                                                  #  ROUND MPAC TO DOUBLE PRECISION, SETTING OVFIND ON THE RARE EVENT OF OVERFLOW.
000926:
000927:    7105           34772        ROUNDSUB           CAF      ZERO                                  #  SET MPAC +2 = 0 FOR SCALARS AND CHANGE
000928:    7106           54163                 +1        TS       MODE                                  #  MODE TO DP.
000929:
000930:    7107           56156        VROUND             XCH      MPAC       +2                         #  BUT WE NEEDNT TAKE THE TIME FOR VECTORS.
000931:    7110           60000                           DOUBLE
000932:    7111           54001                           TS       L
000933:    7112           00002                           TC       Q
000934:
000935:    7113           60155                           AD       MPAC       +1                         #  ADD ROUNDING BIT IF MPAC +2 WAS GREATER
000936:    7114           54155                           TS       MPAC       +1                         #  THAN .5 IN MAGNITUDE.
000937:    7115           00002                           TC       Q
000938:
000939:    7116           60154                           AD       MPAC                                  #  PROPAGATE INTERFLOW.
000940:    7117           54154                           TS       MPAC
000941:    7120           00002                           TC       Q
000942:
000943:    7121           54121        SETOVF2            TS       OVFIND                                #  (RARE).
000944:    7122           00002                           TC       Q
000945:


000947:                                                                                                  #  THE DOT PRODUCT SUBROUTINE USUALLY FORMS THE DOT PRODUCT OF THE VECTOR IN MPAC WITH A STANDARD SIX
000948:                                                                                                  #  REGISTER VECTOR WHOSE ADDRESS IS IN ADDRWD. IN THIS CASE C(DOTINC) ARE SET TO 2. VXM, HOWEVER, SETS C(DOTINC) TO
000949:                                                                                                  #  6 SO THAT DOTSUB DOTS MPAC WITH A COLUMN VECTOR OF THE MATRIX IN QUESTION IN THIS CASE.
000950:
000951:    7123           34767        PREDOT             CAF      TWO                                   #  PROLOGUE TO SET DOTINC TO 2.
000952:    7124           54136                           TS       DOTINC
000953:
000954:    7125           00006        DOTSUB             EXTEND
000955:    7126           22137                           QXCH     DOTRET                                #  SAVE RETURN.
000956:    7127           07056                           TC       DMPSUB                                #  DOT X COMPONENTS.
000957:    7130           52160                           DXCH     MPAC       +3                         #  POSITION Y COMPONENT OF MPAC FOR
000958:    7131           52155                           DXCH     MPAC                                  #  MULTIPLICATION WHILE SAVING RESULT IN
000959:    7132           52131                           DXCH     BUF                                   #  THREE WORD BUFFER, BUF.
000960:    7133           30156                           CA       MPAC       +2
000961:    7134           54132                           TS       BUF        +2
000962:
000963:    7135           30136                           CA       DOTINC                                #  ADVANCE ADDRWD TO Y COMPONENT OF
000964:    7136           26116                           ADS      ADDRWD                                #  OTHER ARGUMENT.
000965:    7137           07056                           TC       DMPSUB
000966:    7140           52156                           DXCH     MPAC       +1                         #  ACCUMULATE PARTIAL PRODUCTS.
000967:    7141           20132                           DAS      BUF        +1
000968:    7142           60154                           AD       MPAC
000969:    7143           60130                           AD       BUF
000970:    7144           54130                           TS       BUF
000971:    7145           17147                           TCF      +2
000972:    7146           54121                           TS       OVFIND                                #  IF OVERFLOW OCCURS.
000973:
000974:    7147           52162                           DXCH     MPAC       +5                         #  MULTIPLY Z COMPONENTS.
000975:    7150           52155                           DXCH     MPAC
000976:    7151           30136                           CA       DOTINC
000977:    7152           26116                           ADS      ADDRWD
000978:    7153           07056                           TC       DMPSUB
000979:    7154           52132        ENDDOT             DXCH     BUF        +1                         #  LEAVE FINAL ACCUMULATION IN MPAC.
000980:    7155           20156                           DAS      MPAC       +1
000981:    7156           60154                           AD       MPAC
000982:    7157           60130                           AD       BUF
000983:    7160           54154                           TS       MPAC
000984:    7161           00137                           TC       DOTRET
000985:
000986:    7162           06766                           TC       OVERFLOW                              #  ON OVERFLOW HERE.
000987:    7163           00137                           TC       DOTRET
000988:


000990:                                                                                                  #  DOUBLE PRECISION POLYNOMIAL EVALUATOR
000991:
000992:                                                                                                  #                                  N        N-1
000993:                                                                                                  #        THIS ROUTINE EVALUATES A X  + A   X    + ... + A  X + A  LEAVING THE DP RESULT IN MPAC ON EXIT.
000994:                                                                                                  #                                N      N-1              1      0
000995:
000996:                                                                                                  #  THE ROUTINE HAS TWO ENTRIES
000997:
000998:                                                                                                  #        1. ENTRY THRU POWRSERS. THE COEFFICIENTS MAY BE EITHER IN FIXED OR ERASABLE, THE CALL IS BY
000999:                                                                                                  #           TC POWRSERS, AND THE RETURN IS TO LOC(TC POWRSERS)+1. THE ENTERING DATA MUST BE AS FOLLOWS
001000:
001001:                                                                                                  #                        A       SP      LOC-3           ADDRESS FOR REFERENCING COEF TABLE
001002:                                                                                                  #                        L       SP      N-1             N IS THE DEGREE OF THE POWER SERIES
001003:                                                                                                  #                        MPAC    DP      X               ARGUMENT
001004:
001005:                                                                                                  #                        LOC-2N  DP      A(0)
001006:                                                                                                  #                                ...
001007:                                                                                                  #                        LOC     DP      A(N)
001008:
001009:                                                                                                  #        2. ENTRY THRU POLY. THE CALL TO POLY AND THE ENTERING DATA MUST BE AS FOLLOWS
001010:
001011:                                                                                                  #                        MPAC            DP              X               ARGUMENT
001012:
001013:                                                                                                  #                        LOC             TC              POLY
001014:                                                                                                  #                        LOC+1           SP              N-1
001015:                                                                                                  #                        LOC+2           DP              A(0)
001016:                                                                                                  #                                        ...
001017:                                                                                                  #                        LOC+2N+2        DP              A(N)            RETURN IS TO LOC+2N+4
001018:
001019:    7164           00006        POWRSERS           EXTEND
001020:    7165           22141                           QXCH     POLYRET                               #  RETURN ADDRESS
001021:    7166           54117                           TS       POLISH                                #  POWER SERIES ADDRESS
001022:    7167           22140                           LXCH     POLYCNT                               #  N-1 TO COUNTER
001023:    7170           17201                           TCF      POLYCOM                               #  SKIP SET UP BY POLY
001024:
001025:    7171           50002        POLY               INDEX    Q
001026:    7172           30000                           CAF      0
001027:    7173           54140                           TS       POLYCNT                               #  N-1 TO COUNTER
001028:    7174           60000                           DOUBLE
001029:    7175           60002                           AD       Q
001030:    7176           54117                           TS       POLISH                                #  L(A(N))-3 TO POLISH
001031:    7177           64773                           AD       FIVE
001032:    7200           54141                           TS       POLYRET                               #  STORE RETURN ADDRESS
001033:
001034:    7201           36242        POLYCOM            CAF      LVBUF                                 #  INCOMING X WILL BE MOVED TO VBUF, SO
001035:    7202           54116                           TS       ADDRWD                                #  SET ADDRWD SO DMPSUB WILL MPY BY VBUF.
001036:
001037:    7203           00006                           EXTEND
001038:    7204           50117                           INDEX    POLISH
001039:    7205           30004                           DCA      3


001041:    7206           52155                           DXCH     MPAC                                  #  LOAD A(N) INTO MPAC,
001042:    7207           52123                           DXCH     VBUF                                  #  SAVING X IN VBUF
001043:    7210           17214                           TCF      POLY2
001044:
001045:    7211           54140        POLYLOOP           TS       POLYCNT                               #  SAVE DECREMENTED LOOP COUNTER
001046:    7212           44767                           CS       TWO
001047:    7213           26117                           ADS      POLISH                                #  REGRESS COEFFICIENT POINTER
001048:
001049:    7214           07056        POLY2              TC       DMPSUB                                #  MULTIPLY BY X
001050:    7215           00006                           EXTEND
001051:    7216           50117                           INDEX    POLISH
001052:    7217           30002                           DCA      1                                     #  ADD IN NEXT COEFFICIENT
001053:    7220           20155                           DAS      MPAC                                  #  USERS RESPONSIBILITY TO ASSURE NO OVFLOW
001054:
001055:    7221           10140                           CCS      POLYCNT
001056:    7222           17211                           TCF      POLYLOOP
001057:    7223           00141                           TC       POLYRET                               #  RETURN CALLER
001058:


001060:                                                                                                  #  MISCELLANEOUS MULTI-PRECISION ROUTINES REQUIRED IN FIXED-FIXED BUT NOT USED BY THE INTERPRETER.
001061:
001062:    7224           34772        DPAGREE            CAF      ZERO                                  #  DOUBLE PRECISION ENTRY -
001063:    7225           54156        BUFAGREE           TS       MPAC       +2                         #  ZERO LOW-ORDER WORD
001064:    7226           22002        TPAGREE            LXCH     Q                                     #  FORCE SIGN AGREEMENT AMONG THE TRIPLE
001065:    7227           06672                           TC       BRANCH                                #  PRECISION CONTENTS OF MPAC.  RETURNING
001066:    7230           17234                           TCF      ARG+                                  #  WITH SIGNUM OF THE INPUT IN A.
001067:    7231           17254                           TCF      ARGZERO
001068:
001069:    7232           44750                           CS       POSMAX                                #  IF NEGATIVE.
001070:    7233           17235                           TCF      +2
001071:
001072:    7234           34750        ARG+               CAF      POSMAX
001073:    7235           54002                           TS       Q
001074:    7236           00006                           EXTEND
001075:    7237           24000                           AUG      A                                     #  FORMS +-1.0.
001076:    7240           60156                           AD       MPAC       +2
001077:    7241           54156                           TS       MPAC       +2
001078:    7242           34772                           CAF      ZERO
001079:    7243           60002                           AD       Q
001080:    7244           60155                           AD       MPAC       +1
001081:    7245           54155                           TS       MPAC       +1
001082:    7246           34772                           CAF      ZERO
001083:    7247           60002                           AD       Q                                     #  Q STILL HAS POSMAX OR NEGMAX IN IT.
001084:    7250           60154                           AD       MPAC
001085:    7251           54154        ARGZERO2           TS       MPAC                                  #  ALWAYS SKIPPING UNLESS ARGZERO.
001086:    7252           54155                           TS       MPAC       +1
001087:    7253           00001                           TC       L                                     #  RETURN VIA L.
001088:
001089:    7254           54156        ARGZERO            TS       MPAC       +2                         #  SET ALL THREE MPAC REGISTERS TO ZERO.
001090:    7255           17251                           TCF      ARGZERO2
001091:
001092:                                                                                                  #  SHORTMP MULTIPLIES THE TP CONTENTS OF MPAC BY THE SINGLE PRECISION NUMBER ARRIVING IN A.
001093:
001094:    7256           54135        SHORTMP            TS       MPTEMP
001095:    7257           00006                 +1        EXTEND
001096:    7260           70156                           MP       MPAC       +2
001097:    7261           54156                           TS       MPAC       +2
001098:    7262           34772        SHORTMP2           CAF      ZERO                                  #  SO SUBSEQUENT DAS WILL WORK.
001099:    7263           56155                           XCH      MPAC       +1
001100:    7264           17075                           TCF      DMPSUB2
001101:


001103:                                                                                                  #  MISCELLANEOUS VECTOR OPERATIONS. INCLUDED HERE ARE THE FOLLOWING:
001104:
001105:                                                                                                  #        1.      DOT             DP VECTOR DOT PRODUCT.
001106:                                                                                                  #        2.      VXV             DP VECTOR CROSS PRODUCT.
001107:                                                                                                  #        3.      VXSC            DP VECTOR TIMES SCALAR.
001108:                                                                                                  #        4.      V/SC            DP VECTOR DIVIDED BY SCALAR.
001109:                                                                                                  #        5.      VPROJ           DP VECTOR PROJECTION. ( (MPAC.X)MPAC ).
001110:                                                                                                  #        6.      VXM             DP VECTOR POST-MULTIPLIED BY MATRIX.
001111:                                                                                                  #        7.      MXV             DP VECTOR PRE-MULTIPLIED BY MATRIX.
001112:
001113:    7265           07123        DOT                TC       PREDOT                                #  DO THE DOT PRODUCT AND EXIT, CHANGING
001114:    7266           34772        DMODE              CAF      ZERO                                  #  THE MODE TO DP SCALAR.
001115:    7267           16027                           TCF      NEWMODE
001116:
001117:    7270           34767        MXV                CAF      TWO                                   #  SET UP MATINC AND DOTINC FOR ROW
001118:    7271           54140                           TS       MATINC                                #  VECTORS.
001119:    7272           17276                           TCF      VXM/MXV                               #  GO TO COMMON PORTION.
001120:
001121:    7273           44355        VXM                CS       TEN                                   #  SET MATINC AND DOTINC TO REFER TO MATRIX
001122:    7274           54140                           TS       MATINC                                #  AS THREE COLUMN VECTORS.
001123:    7275           36211                           CAF      SIX
001124:


001126:                                                                                                  #  COMMON PORTION OF MXV AND VXM.
001127:
001128:    7276           54136        VXM/MXV            TS       DOTINC
001129:
001130:                                                                                                  #  ITRACE (2) REFERS TO "VXM/MXV".
001131:
001132:    7277           07466                           TC       MPACVBUF                              #  SAVE VECTOR IN MPAC FOR FURTHER USE.
001133:
001134:    7300           07125                           TC       DOTSUB                                #  GO DOT TO GET X COMPONENT OF ANSWER.
001135:    7301           00006                           EXTEND
001136:    7302           30123                           DCA      VBUF                                  #  MOVE MPAC VECTOR BACK INTO MPAC, SAVING
001137:    7303           52155                           DXCH     MPAC                                  #  NEW X COMPONENT IN BUF2.
001138:    7304           52134                           DXCH     BUF2
001139:    7305           00006                           EXTEND
001140:    7306           30125                           DCA      VBUF       +2
001141:    7307           52160                           DXCH     MPAC       +3
001142:    7310           00006                           EXTEND
001143:    7311           30127                           DCA      VBUF       +4
001144:    7312           52162                           DXCH     MPAC       +5
001145:    7313           30140                           CA       MATINC                                #  INITIALIZE ADDRWD FOR NEXT DOT PRODUCT.
001146:    7314           26116                           ADS      ADDRWD                                #  FORMS BASE ADDRESS OF NEXT COLUMN(ROW).
001147:
001148:    7315           07125                           TC       DOTSUB
001149:    7316           52123                           DXCH     VBUF                                  #  MOVE GIVEN VECTOR BACK TO MPAC, SAVING Y
001150:    7317           52155                           DXCH     MPAC                                  #  COMPONENT OF ANSWER IN VBUF +2.
001151:    7320           52125                           DXCH     VBUF       +2
001152:    7321           52160                           DXCH     MPAC       +3
001153:    7322           52127                           DXCH     VBUF       +4
001154:    7323           52162                           DXCH     MPAC       +5
001155:    7324           30140                           CA       MATINC                                #  FORM ADDRESS OF LAST COLUMN OR ROW.
001156:    7325           26116                           ADS      ADDRWD
001157:
001158:    7326           07125                           TC       DOTSUB
001159:    7327           52134                           DXCH     BUF2                                  #  ANSWER NOW COMPLETE. PUT COMPONENTS INTO
001160:    7330           52155                           DXCH     MPAC                                  #  PROPER MPAC REGISTERS.
001161:    7331           52162                           DXCH     MPAC       +5
001162:    7332           52125                           DXCH     VBUF       +2
001163:    7333           52160                           DXCH     MPAC       +3
001164:    7334           16030                           TCF      DANZIG                                #  EXIT.
001165:


001167:                                                                                                  #  VXSC - VECTOR TIMES SCALAR.
001168:
001169:    7335           10163        VXSC               CCS      MODE                                  #  TEST PRESENT MODE.
001170:    7336           17364                           TCF      DVXSC                                 #  SEPARATE ROUTINE WHEN SCALAR IS IN MPAC.
001171:    7337           17364                           TCF      DVXSC
001172:
001173:    7340           07056        VVXSC              TC       DMPSUB                                #  COMPUTE X COMPONENT
001174:    7341           07107                           TC       VROUND                                #  AND ROUND IT.
001175:    7342           52160                           DXCH     MPAC       +3                         #  PUT Y COMPONENT INTO MPAC SAVING MPAC IN
001176:    7343           52155                           DXCH     MPAC                                  #  MPAC +3.
001177:    7344           52160                           DXCH     MPAC       +3
001178:
001179:    7345           07056                           TC       DMPSUB                                #  DO SAME FOR Y AND Z COMPONENTS.
001180:    7346           07107                           TC       VROUND
001181:    7347           52162                           DXCH     MPAC       +5
001182:    7350           52155                           DXCH     MPAC
001183:    7351           52162                           DXCH     MPAC       +5
001184:
001185:    7352           07056                           TC       DMPSUB
001186:    7353           07107                           TC       VROUND
001187:    7354           52155        VROTATEX           DXCH     MPAC                                  #  EXIT USED TO RESTORE MPAC AFTER THIS
001188:    7355           52162                           DXCH     MPAC       +5                         #  TYPE OF ROTATION. CALLED BY VECTOR SHIFT
001189:    7356           52160                           DXCH     MPAC       +3                         #  RIGHT, V/SC, ETC.
001190:    7357           52155                           DXCH     MPAC
001191:    7360           16030                           TCF      DANZIG
001192:


001194:                                                                                                  #  DP VECTOR PROJECTION ROUTINE.
001195:
001196:    7361           07123        VPROJ              TC       PREDOT                                #  (MPAC.X)MPAC IS COMPUTED AND LEFT IN
001197:    7362           44766                           CS       FOUR                                  #  MPAC. DO DOT AND FALL INTO DVXSC.
001198:    7363           26116                           ADS      ADDRWD
001199:
001200:                                                                                                  #  VXSC WHEN SCALAR ARRIVES IN MPAC AND VECTOR IS AT X.
001201:
001202:    7364           00006        DVXSC              EXTEND                                         #  SAVE SCALAR IN MPAC +3 AND GET X
001203:    7365           30155                           DCA      MPAC                                  #  COMPONENT OF ANSWER.
001204:    7366           52160                           DXCH     MPAC       +3
001205:    7367           07056                           TC       DMPSUB
001206:    7370           07107                           TC       VROUND
001207:
001208:    7371           34767                           CAF      TWO                                   #  ADVANCE ADDRWD TO Y COMPONENT OF X.
001209:    7372           26116                           ADS      ADDRWD
001210:    7373           00006                           EXTEND
001211:    7374           30160                           DCA      MPAC       +3                         #  PUT SCALAR BACK INTO MPAC AND SAVE
001212:    7375           52155                           DXCH     MPAC                                  #  X RESULT IN MPAC +5.
001213:    7376           52162                           DXCH     MPAC       +5
001214:    7377           07056                           TC       DMPSUB
001215:    7400           07107                           TC       VROUND
001216:
001217:    7401           34767                           CAF      TWO
001218:    7402           26116                           ADS      ADDRWD                                #  TO Z COMPONENT.
001219:    7403           52160                           DXCH     MPAC       +3                         #  BRING SCALAR BACK, PUTTING Y RESULT IN
001220:    7404           52155                           DXCH     MPAC                                  #  THE PROPER PLACE.
001221:    7405           52160                           DXCH     MPAC       +3
001222:    7406           07056                           TC       DMPSUB
001223:    7407           07107                           TC       VROUND
001224:
001225:    7410           52155                           DXCH     MPAC                                  #  PUT Z COMPONENT IN PROPER PLACE, ALSO
001226:    7411           52162                           DXCH     MPAC       +5                         #  POSITIONING X.
001227:    7412           52155                           DXCH     MPAC
001228:
001229:    7413           16470                           TCF      VMODE                                 #  MODE HAS CHANGED TO VECTOR.
001230:


001232:                                                                                                  #  THE VECTOR CROSS PRODUCT ROUTINE CALCULATES (X M -X M ,X M -X M ,X M -X M ) WHERE M IS THE VECTOR IN
001233:                                                                                                  #                                                3 2  2 3  1 3  3 1  2 1  1 2
001234:                                                                                                  #  MPAC AND X THE VECTOR AT THE GIVEN ADDRESS.
001235:
001236:    7414           00006        VXV                EXTEND
001237:    7415           30162                           DCA      MPAC       +5                         #  FORM UP M3X1, LEAVING M1 IN VBUF.
001238:    7416           52155                           DXCH     MPAC
001239:    7417           52123                           DXCH     VBUF
001240:    7420           07056                           TC       DMPSUB                                #  BY X1.
001241:
001242:    7421           00006                           EXTEND
001243:    7422           40160                           DCS      MPAC       +3                         #  CALCULATE -X1M2, SAVING X1M3 IN VBUF +2.
001244:    7423           52155                           DXCH     MPAC
001245:    7424           52125                           DXCH     VBUF       +2
001246:    7425           07056                           TC       DMPSUB
001247:
001248:    7426           34767                           CAF      TWO                                   #  ADVANCE ADDRWD TO X2.
001249:    7427           26116                           ADS      ADDRWD
001250:    7430           00006                           EXTEND
001251:    7431           40162                           DCS      MPAC       +5                         #  PREPARE TO GET -X2M3, SAVING -X1M2 IN
001252:    7432           52155                           DXCH     MPAC                                  #  MPAC +5.
001253:    7433           52162                           DXCH     MPAC       +5
001254:    7434           07056                           TC       DMPSUB
001255:
001256:    7435           00006                           EXTEND
001257:    7436           30123                           DCA      VBUF                                  #  GET X2M1, SAVING -X2M3 IN VBUF +4.
001258:    7437           52155                           DXCH     MPAC
001259:    7440           52127                           DXCH     VBUF       +4
001260:    7441           07056                           TC       DMPSUB
001261:
001262:    7442           34767                           CAF      TWO                                   #  ADVANCE ADDRWD TO X3.
001263:    7443           26116                           ADS      ADDRWD
001264:    7444           00006                           EXTEND
001265:    7445           40123                           DCS      VBUF                                  #  GET -X3M1, ADDING X2M1 TO MPAC +5 TO
001266:    7446           52155                           DXCH     MPAC                                  #  COMPLETE THE Z COMPONENT OF THE ANSWER.
001267:    7447           20162                           DAS      MPAC       +5
001268:
001269:    7450           00006                           EXTEND
001270:    7451           17453                           BZF      +2
001271:    7452           06760                           TC       OVERFLWZ
001272:
001273:    7453           07056                           TC       DMPSUB
001274:    7454           52125                           DXCH     VBUF       +2                         #  MOVE X1M3 TO MPAC +3 SETTING UP FOR X3M2
001275:    7455           52160                           DXCH     MPAC       +3                         #  AND ADD -X3M1 TO MPAC +3 TO COMPLETE THE
001276:    7456           52155                           DXCH     MPAC                                  #  Y COMPONENT OF THE RESULT.
001277:    7457           20160                           DAS      MPAC       +3
001278:
001279:    7460           00006                           EXTEND
001280:    7461           17463                           BZF      +2


001282:    7462           06763                           TC       OVERFLWY
001283:
001284:    7463           07056                           TC       DMPSUB
001285:    7464           52127                           DXCH     VBUF       +4                         #  GO ADD -X2M3 TO X3M2 TO COMPLETE THE X
001286:    7465           16747                           TCF      ENDVXV                                #  COMPONENT (TAIL END OF DAD).
001287:
001288:                                                                                                  #  THE MPACVBUF SUBROUTINE SAVES THE VECTOR IN MPAC IN VBUF WITHOUT CLOBBERING MPAC.
001289:
001290:    7466           00006        MPACVBUF           EXTEND                                         #  CALLED BY MXV, VXM, AND UNIT.
001291:    7467           30155                           DCA      MPAC
001292:    7470           52123                           DXCH     VBUF
001293:    7471           00006                           EXTEND
001294:    7472           30160                           DCA      MPAC       +3
001295:    7473           52125                           DXCH     VBUF       +2
001296:    7474           00006                           EXTEND
001297:    7475           30162                           DCA      MPAC       +5
001298:    7476           52127                           DXCH     VBUF       +4
001299:    7477           00002                           TC       Q                                     #  RETURN TO CALLER.
001300:
001301:                                                                                                  #  DOUBLE PRECISION SIGN AGREE ROUTINE. ARRIVE WITH INPUT IN A+L. OUTPUT IS IN A + L.
001302:
001303:    7500           10000        ALSIGNAG           CCS      A                                     #  TEST UPPER PART.
001304:    7501           17505                           TCF      UPPOS                                 #  IT IS POSITIVE
001305:    7502           00002                           TC       Q                                     #  ZERO
001306:    7503           17515                           TCF      UPNEG                                 #  NEGATIVE
001307:    7504           00002                           TC       Q                                     #  ZERO
001308:
001309:    7505           56001        UPPOS              XCH      L                                     #  SAVE DECREMENTED UPPER PART.
001310:    7506           64753                           AD       HALF
001311:    7507           64753                           AD       HALF
001312:    7510           54000                           TS       A                                     #  SKIPS ON OVERFLOW
001313:    7511           17513                           TCF      +2
001314:    7512           24001                           INCR     L                                     #  RESTORE UPPER TO ROIGINAL VALUE
001315:    7513           56001                           XCH      L                                     #  SWAP A + L BACK.
001316:    7514           00002                           TC       Q
001317:
001318:    7515           56001        UPNEG              XCH      L                                     #  SAVE COMPLEMENTED + DECREMENTED UPPER PT
001319:    7516           64752                           AD       NEGMAX
001320:    7517           67702                           AD       NEGONE
001321:    7520           54000                           TS       A
001322:    7521           17523                           TCF      +2                                    #  DONT INCREMENT IF NO OVERFLOW.
001323:    7522           24001                           INCR     L
001324:    7523           56001                           XCH      L
001325:    7524           40000                           COM                                            #  MAKE NEGATIVE AGAIN.
001326:    7525           00002                           TC       Q
001327:


001329:                                                                                                  #  INTERPRETIVE INSTRUCTIONS WHOSE EXECUTION CONSISTS OF PRINCIPALLY CALLING SUBROUTINES.
001330:
001331:    7526           07056        DMP1               TC       DMPSUB                                #  DMP INSTRUCTION.
001332:    7527           16030                           TCF      DANZIG
001333:
001334:    7530           07056        DMPR               TC       DMPSUB
001335:    7531           07106                           TC       ROUNDSUB   +1                         #  (C(A) = +0).
001336:    7532           16030                           TCF      DANZIG
001337:
001338:    7533           00006        DDV                EXTEND
001339:    7534           50116                           INDEX    ADDRWD                                #  MOVE DIVIDEND INTO BUF.
001340:    7535           30001                           DCA      0
001341:    7536           17543                           TCF      BDDV       +4
001342:
001343:    7537           00006        BDDV               EXTEND                                         #  MOVE DIVISOR INTO MPAC SAVING MPAC, THE
001344:    7540           50116                           INDEX    ADDRWD                                #  DIVIDEND, IN BUF.
001345:    7541           30001                           DCA      0
001346:    7542           52155                           DXCH     MPAC
001347:    7543           52131                 +4        DXCH     BUF
001348:    7544           34772                           CAF      ZERO                                  #  DIVIDE ROUTINES IN BANK 0.
001349:    7545           54004                           TS       FBANK
001350:    7546           12353                           TCF      DDV/BDDV
001351:
001352:    7547           30116        SETPD              CA       ADDRWD                                #  MUST SET TO WORK AREA, OR EBANK TROUBLE.
001353:    7550           54166                           TS       PUSHLOC
001354:    7551           16032                           TCF      NOIBNKSW                              #  NO FBANK SWITCH REQUIRED.
001355:
001356:    7552           34772        TSLC               CAF      ZERO                                  #  SHIFTING ROUTINES LOCATED IN BANK 00.
001357:    7553           54004                           TS       FBANK
001358:    7554           12172                           TCF      TSLC2
001359:
001360:    7555           36043        GSHIFT             CAF      LOW7                                  #  USED AS MASK AT GENSHIFT. THIS PROCESSES
001361:    7556           54004                           TS       FBANK                                 #  ANY SHIFT INSTRUCTION (EXCEPT TSLC) WITH
001362:    7557           12214                           TCF      GENSHIFT                              #  AN ADDRESS (ROUTINES IN BANK 0).
001363:


001365:                                                                                                  #  THE FOLLOWING IS THE PROLOGUE TO V/SC. IF THE PRESENT MODE IS VECTOR, IT SAVES THE SCALAR AT X IN BUF
001366:                                                                                                  #  AND CALLS THE V/SC ROUTINE IN BANK 0. IF THE PRESENT MODE IS SCALAR, IT MOVES THE VECTOR AT X INTO MPAC, SAVING
001367:                                                                                                  #  THE SCALAR IN MPAC IN BUF BEFORE CALLING THE V/SC ROUTINE IN BANK 0.
001368:
001369:    7560           10163        V/SC               CCS      MODE
001370:    7561           17572                           TCF      DV/SC                                 #  MOVE VECTOR INTO MPAC.
001371:    7562           17572                           TCF      DV/SC
001372:
001373:    7563           00006        VV/SC              EXTEND
001374:    7564           50116                           INDEX    ADDRWD
001375:    7565           30001                           DCA      0
001376:    7566           52131        V/SC1              DXCH     BUF                                   #  IN BOTH CASES, VECTOR IS NOW IN MPAC AND
001377:    7567           34772                           CAF      ZERO                                  #  SCALAR IN BUF.
001378:    7570           54004                           TS       FBANK
001379:    7571           12653                           TCF      V/SC2
001380:
001381:    7572           00006        DV/SC              EXTEND
001382:    7573           50116                           INDEX    ADDRWD
001383:    7574           30003                           DCA      2
001384:    7575           52160                           DXCH     MPAC       +3
001385:    7576           00006                           EXTEND
001386:    7577           50116                           INDEX    ADDRWD
001387:    7600           30005                           DCA      4
001388:    7601           52162                           DXCH     MPAC       +5
001389:
001390:    7602           44770                           CS       ONE                                   #  CHANGE MODE TO VECTOR.
001391:    7603           54163                           TS       MODE
001392:
001393:    7604           00006                           EXTEND
001394:    7605           50116                           INDEX    ADDRWD
001395:    7606           30001                           DCA      0
001396:    7607           52155                           DXCH     MPAC
001397:    7610           17566                           TCF      V/SC1                                 #  FINISH PROLOGUE AT COMMON SECTION.
001398:


001400:                                                                                                  #  SIGN AND COMPLEMENT INSTRUCTIONS.
001401:
001402:    7611           50116        SIGN               INDEX    ADDRWD                                #  CALL COMP INSTRUCTION IF WORD AT X IS
001403:    7612           10000                           CCS      0                                     #  NEGATIVE NON-ZERO.
001404:    7613           16030                           TCF      DANZIG
001405:    7614           17616                           TCF      +2
001406:    7615           17624                           TCF      COMP                                  #  DO THE COMPLEMENT.
001407:
001408:    7616           50116                           INDEX    ADDRWD
001409:    7617           10001        CCSL               CCS      1
001410:    7620           16030                           TCF      DANZIG
001411:    7621           16030                           TCF      DANZIG
001412:    7622           17624                           TCF      COMP
001413:    7623           16030                           TCF      DANZIG
001414:    7624           00006        COMP               EXTEND                                         #  COMPLEMENT DP MPAC IN EVERY CASE.
001415:    7625           40155                           DCS      MPAC
001416:    7626           52155                           DXCH     MPAC
001417:
001418:    7627           10163                           CCS      MODE                                  #  EITHER COMPLEMENT MPAC +3 OR THE REST OF
001419:    7630           17641                           TCF      DCOMP                                 #  THE VECTOR ACCUMULATOR.
001420:    7631           17641                           TCF      DCOMP
001421:
001422:    7632           00006                           EXTEND                                         #  VECTOR COMPLEMENT.
001423:    7633           40160                           DCS      MPAC       +3
001424:    7634           52160                           DXCH     MPAC       +3
001425:    7635           00006                           EXTEND
001426:    7636           40162                           DCS      MPAC       +5
001427:    7637           52162                           DXCH     MPAC       +5
001428:    7640           16030                           TCF      DANZIG
001429:
001430:    7641           40156        DCOMP              CS       MPAC       +2
001431:    7642           54156                           TS       MPAC       +2
001432:    7643           16030                           TCF      DANZIG
001433:


001435:                                                                                                  #  THE FOLLOWING SHORT SHIFT CODES REQUIRE NO ADDRESS WORD:
001436:
001437:                                                                                                  #        1.      SR1 TO SR4      SCALAR SHIFT RIGHT.
001438:                                                                                                  #        2.      SR1R TO SR4R    SCALAR SHIFT RIGHT AND ROUND.
001439:                                                                                                  #        3.      SL1 TO SL4      SCALAR SHIFT LEFT.
001440:                                                                                                  #        4.      SL1R TO SL4R    SCALAR SHIFT LEFT AND ROUND.
001441:
001442:                                                                                                  #        5.      VSR1 TO VSR8    VECTOR SHIFT RIGHT (ALWAYS ROUNDS).
001443:                                                                                                  #        6.      VSL1 TO VSL8    VECTOR SHIFT LEFT (NEVER ROUNDS).
001444:
001445:                                                                                                  #  THE FOLLOWING CODES REQUIRE AN ADDRESS WHICH MAY BE INDEXED:*
001446:
001447:                                                                                                  #        1.      SR              SCALAR SHIFT RIGHT.
001448:                                                                                                  #        2.      SRR             SCALAR SHIFT RIGHT AND ROUND.
001449:                                                                                                  #        3.      SL              SCALAR SHIFT LEFT.
001450:                                                                                                  #        4.      SLR             SCALAR SHIFT LEFT AND ROUND.
001451:
001452:                                                                                                  #        5.      VSR             VECTOR SHIFT RIGHT.
001453:                                                                                                  #        6.      VSL             VECTOR SHIFT LEFT.
001454:
001455:                                                                                                  #  * IF THE ADDRESS IS INDEXED, AND THE INDEX MODIFICATION RESULTS IN A NEGATIVE SHIFT COUNT, A SHIFT OF THE
001456:                                                                                                  #  ABSOLUTE VALUE OF THE COUNT IS DONE IN THE OPPOSITE DIRECTION.
001457:
001458: 00,2000                                           SETLOC   INTERB0
001459: 00,2000                                           BANK
001460:
001461: 00,2017                                           COUNT*   $$/INTER
001462: 00,2017           36211        SHORTT             CAF      SIX                                   #  SCALAR SHORT SHIFTS COME HERE. THE SHIFT
001463: 00,2020           70020                           MASK     CYR                                   #  COUNT-1 IS NOW IN BITS 2-3 OF CYR. THE
001464: 00,2021           54021                           TS       SR                                    #  ROUNDING BIT IS IN BIT1 AT THIS POINT.
001465:
001466: 00,2022           10020                           CCS      CYR                                   #  SEE IF RIGHT OR LEFT SHIFT DESIRED.
001467: 00,2023           12101                           TCF      TSSL                                  #  SHIFT LEFT.
001468:
001469: 00,2024           00024        SRDDV              DEC      20         B-14                       #  MPTEMP SETTING FOR SR BEFORE DDV.
001470:
001471: 00,2025           50021        TSSR               INDEX    SR                                    #  GET SHIFTING BIT.
001472: 00,2026           34753                           CAF      BIT14
001473: 00,2027           54135                           TS       MPTEMP
001474:
001475: 00,2030           10020                           CCS      CYR                                   #  SEE IF A ROUND IS DESIRED.
001476: 00,2031           02050        RIGHTR             TC       MPACSRND                              #  YES - SHIFT RIGHT AND ROUND.
001477: 00,2032           16027                           TCF      NEWMODE                               #  SET MODE TO DP (C(A) = 0).
001478: 00,2033           30135        MPACSHR            CA       MPTEMP                                #  DO A TRIPLE PRECISION SHIFT RIGHT.
001479: 00,2034           00006                           EXTEND
001480: 00,2035           70156                           MP       MPAC       +2
001481: 00,2036           54156                 +3        TS       MPAC       +2                         #  (EXIT FROM SQRT AND ABVAL).
001482: 00,2037           30135                           CA       MPTEMP
001483: 00,2040           00006                           EXTEND


001485: 00,2041           70154                           MP       MPAC                                  #  SHIFT MAJOR PART INTO A,L AND PLACE IN
001486: 00,2042           52155                           DXCH     MPAC                                  #  MPAC,+1.
001487: 00,2043           30135                           CA       MPTEMP
001488: 00,2044           00006                           EXTEND
001489: 00,2045           70001                           MP       L                                     #  ORIGINAL C(MPAC +1).
001490: 00,2046           20156                           DAS      MPAC       +1                         #  GUARANTEED NO OVERFLOW.
001491: 00,2047           16030                           TCF      DANZIG
001492:
001493:                                                                                                  #  MPAC SHIFT RIGHT AND ROUND SUBROUTINES.
001494:
001495: 00,2050           30156        MPACSRND           CA       MPAC       +2                         #  WE HAVE TO DO ALL THREE MULTIPLIES SINCE
001496: 00,2051           00006                           EXTEND                                         #  MPAC +1 AND MPAC +2 MIGHT HAVE SIGN
001497: 00,2052           70135                           MP       MPTEMP                                #  DISAGREEMENT WITH A SHIFT RIGHT OF 1.
001498: 00,2053           56155                           XCH      MPAC       +1
001499: 00,2054           00006                           EXTEND
001500: 00,2055           70135                           MP       MPTEMP
001501: 00,2056           56155                           XCH      MPAC       +1                         #  TRIAL MINOR PART.
001502: 00,2057           60001                           AD       L
001503:
001504: 00,2060           60000        VSHR2              DOUBLE                                         #  (FINISH VECTOR COMPONENT SHIFT RIGHT
001505: 00,2061           54156                           TS       MPAC       +2                         #  AND ROUND.
001506: 00,2062           12064                           TCF      +2
001507: 00,2063           26155                           ADS      MPAC       +1                         #  GUARANTEED NO OVERFLOW.
001508:
001509: 00,2064           34772                           CAF      ZERO
001510: 00,2065           54156                           TS       MPAC       +2
001511: 00,2066           56154                           XCH      MPAC                                  #  SETTING TO ZERO SO FOLLOWING DAS WORKS.
001512: 00,2067           00006                           EXTEND
001513: 00,2070           70135                           MP       MPTEMP
001514: 00,2071           20155                           DAS      MPAC                                  #  AGAIN NO OVERFLOW.
001515: 00,2072           00002                           TC       Q
001516:
001517: 00,2073           30135        VSHRRND            CA       MPTEMP                                #  ENTRY TO SHIFT RIGHT AND ROUND MPAC WHEN
001518: 00,2074           00006                           EXTEND                                         #  MPAC CONTAINS A VECTOR COMPONENT.
001519: 00,2075           70155                           MP       MPAC       +1
001520: 00,2076           54155                           TS       MPAC       +1
001521: 00,2077           56001                           XCH      L
001522: 00,2100           12060                           TCF      VSHR2                                 #  GO ADD ONE IF NECESSARY AND FINISH.
001523:


001525:                                                                                                  #  ROUTINE FOR SHORT SCALAR SHIFT LEFT (AND MAYBE ROUND).
001526:
001527: 00,2101           30021        TSSL               CA       SR                                    #  GET SHIFT COUNT FOR SR.
001528: 00,2102           54135                 +1        TS       MPTEMP
001529:
001530: 00,2103           00006                 +2        EXTEND                                         #  ENTRY HERE FROM SL FOR SCALARS.
001531: 00,2104           30156                           DCA      MPAC       +1                         #  SHIFTING LEFT ONE PLACE AT A TIME IS
001532: 00,2105           20156                           DAS      MPAC       +1                         #  FASTER THAN DOING THE WHOLE SHIFT WITH
001533: 00,2106           60154                           AD       MPAC                                  #  MULTIPLIES ASSUMING THAT FREQUENCY OF
001534: 00,2107           60154                           AD       MPAC                                  #  SHIFT COUNTS GOES DOWN RAPIDLY AS A
001535: 00,2110           54154                           TS       MPAC                                  #  FUNCTION OF THEIR MAGNITUDE.
001536: 00,2111           12113                           TCF      +2
001537: 00,2112           54121                           TS       OVFIND                                #  OVERFLOW. (LEAVES OVERFLOW-CORRECTED
001538:                                                                                                  #  RESULT ANYWAY).
001539: 00,2113           10135                           CCS      MPTEMP                                #  LOOP ON DECREMENTED SHIFT COUNT.
001540: 00,2114           12102                           TCF      TSSL       +1
001541:
001542: 00,2115           10020                           CCS      CYR                                   #  SEE IF ROUND WANTED.
001543: 00,2116           07105        ROUND              TC       ROUNDSUB                              #  YES - ROUND AND EXIT.
001544: 00,2117           16030                           TCF      DANZIG                                #  SL LEAVES A ZERO IN CYR FOR NO ROUND.
001545: 00,2120           16030                           TCF      DANZIG                                #  NO - EXIT IMMEDIATL
001546:


001548:                                                                                                  #  VECTOR SHIFTING ROUTINES.
001549:
001550: 00,2121           34774        SHORTV             CAF      LOW3                                  #  SAVE 3 BIT SHIFT COUNT - 1 WITHOUT
001551: 00,2122           70020                           MASK     CYR                                   #  EDITING CYR.
001552: 00,2123           54135                           TS       MPTEMP
001553: 00,2124           10020                           CCS      CYR                                   #  SEE IF LEFT OR RIGHT SHIFT.
001554: 00,2125           12145                           TCF      VSSL                                  #  VECTOR SHIFT LEFT.
001555: 00,2126           00176        OCT176             OCT      176                                   #  USED IN PROCESSED SHIFTS WITH - COUNT.
001556:
001557: 00,2127           50135        VSSR               INDEX    MPTEMP                                #  (ENTRY FROM SR).  PICK UP SHIFTING BIT.
001558: 00,2130           34753                           CAF      BIT14                                 #  MPTEMP CONTAINS THE SHIFT COUNT - 1.
001559: 00,2131           54135                           TS       MPTEMP
001560: 00,2132           02073                           TC       VSHRRND                               #  SHIFT X COMPONENT.
001561:
001562: 00,2133           52155                           DXCH     MPAC                                  #  SWAP X AND Y COMPONENTS.
001563: 00,2134           52160                           DXCH     MPAC       +3
001564: 00,2135           52155                           DXCH     MPAC
001565: 00,2136           02073                           TC       VSHRRND                               #  SHIFT Y COMPONENT.
001566:
001567: 00,2137           52155                           DXCH     MPAC                                  #  SWAP Y AND Z COMPONENTS.
001568: 00,2140           52162                           DXCH     MPAC       +5
001569: 00,2141           52155                           DXCH     MPAC
001570: 00,2142           02073                           TC       VSHRRND                               #  SHIFT Z COMPONENT.
001571:
001572: 00,2143           17354                           TCF      VROTATEX                              #  RESTORE COMPONENTS TO PROPER PLACES.
001573:


001575:                                                                                                  #  VECTOR SHIFT LEFT - DONE ONE PLACE AT A TIME.
001576:
001577: 00,2144           54135                 -1        TS       MPTEMP                                #  SHIFTING LOOP.
001578:
001579: 00,2145           00006        VSSL               EXTEND
001580: 00,2146           30155                           DCA      MPAC
001581: 00,2147           20155                           DAS      MPAC
001582: 00,2150           00006                           EXTEND
001583: 00,2151           12153                           BZF      +2
001584: 00,2152           06766                           TC       OVERFLOW
001585:
001586: 00,2153           00006                           EXTEND
001587: 00,2154           30160                           DCA      MPAC       +3
001588: 00,2155           20160                           DAS      MPAC       +3
001589: 00,2156           00006                           EXTEND
001590: 00,2157           12161                           BZF      +2
001591: 00,2160           06763                           TC       OVERFLWY
001592:
001593: 00,2161           00006                           EXTEND
001594: 00,2162           30162                           DCA      MPAC       +5
001595: 00,2163           20162                           DAS      MPAC       +5
001596: 00,2164           00006                           EXTEND
001597: 00,2165           12167                           BZF      +2
001598: 00,2166           06760                           TC       OVERFLWZ
001599:
001600: 00,2167           10135                           CCS      MPTEMP                                #  LOOP ON DECREMENTED SHIFT COUNTER.
001601: 00,2170           12144                           TCF      VSSL       -1
001602: 00,2171           16030                           TCF      DANZIG                                #  EXIT.
001603:


001605:                                                                                                  #  TSLC - TRIPLE SHIFT LEFT AND COUNT. SHIFTS MPAC LEFT UNTIL GREATER THAN .5 IN MAGNITUDE, LEAVING
001606:                                                                                                  #  THE COMPLEMENT OF THE NUMBER OF SHIFTS REQUIRED IN X.
001607:
001608: 00,2172           54135        TSLC2              TS       MPTEMP                                #  START BY ZEROING SHIFT COUNT (IN A NOW).
001609: 00,2173           06672                           TC       BRANCH                                #  EXIT WITH NO SHIFTING IF ARGUMENT ZERO.
001610: 00,2174           12176                           TCF      +2
001611: 00,2175           12212                           TCF      ENDTSLC                               #  STORES ZERO SHIFT COUNT IN THIS CASE.
001612:
001613: 00,2176           07226                           TC       TPAGREE                               #  MAY CAUSE UPSHIFT OF ONE EXTRA PLACE.
001614:
001615: 00,2177           30154                           CA       MPAC                                  #  BEGIN NORMALIZATION LOOP.
001616: 00,2200           12207                           TCF      TSLCTEST
001617:
001618: 00,2201           24135        TSLCLOOP           INCR     MPTEMP                                #  INCREMENT SHIFT COUNTER.
001619: 00,2202           00006                           EXTEND
001620: 00,2203           30156                           DCA      MPAC       +1
001621: 00,2204           20156                           DAS      MPAC       +1
001622: 00,2205           60154                           AD       MPAC
001623: 00,2206           26154                           ADS      MPAC
001624: 00,2207           60000        TSLCTEST           DOUBLE                                         #  SEE IF (ANOTHER) SHIFT IS REQUIRED.
001625: 00,2210           54000                           OVSK
001626: 00,2211           12201                           TCF      TSLCLOOP                              #  YES - INCREMENT COUNT AND SHIFT AGAIN.
001627:
001628: 00,2212           40135        ENDTSLC            CS       MPTEMP
001629: 00,2213           16572                           TCF      STORE1                                #  STORE SHIFT COUNT AND RETURN TO DANZIG.
001630:


001632:                                                                                                  #           THE FOLLOWING ROUTINES PROCESSES THE GENERAL SHIFT INSTRUCTIONS SR, SRR, SL, AND SLR.
001633:                                                                                                  #  THE GIVEN ADDRESS IS DECODED AS FOLLOWS:
001634:
001635:                                                                                                  #        BITS 1-7        SHIFT COUNT (SUBADDRESS) LESS THAN 125 DECIMAL.
001636:                                                                                                  #        BIT 8           PSEUDO SIGN BIT (DETECTS CHANGE IN SIGN IN INDEXED SHIFTS).
001637:                                                                                                  #        BIT 9           0 FOR LEFT SHIFT, AND 1 FOR RIGHT SHIFT.
001638:                                                                                                  #        BIT 10          1 FOR TERMINAL ROUND ON SCALAR SHIFTS, 0 OTHERWISE.
001639:                                                                                                  #        BITS 11-13      0.
001640:                                                                                                  #        BIT 14          1.
001641:                                                                                                  #        BIT 15          0.
001642:
001643:                                                                                                  #  THE ABOVE ENCODING IS DONE BY THE YUL SYSTEM.
001644:
001645: 00,2214           70116        GENSHIFT           MASK     ADDRWD                                #  GET SHIFT COUNT, TESTING FOR ZERO.
001646: 00,2215           10000                           CCS      A                                     #  (ARRIVES WITH C(A) = LOW7).
001647: 00,2216           12224                           TCF      GENSHFT2                              #  IF NON-ZERO, PROCEED WITH DECREMENTED CT
001648:
001649: 00,2217           34757                           CAF      BIT10                                 #  ZERO SHIFT COUNT. NO SHIFTS NEEDED BUT
001650: 00,2220           70116                           MASK     ADDRWD                                #  WE MIGHT HAVE TO ROUND MPAC ON SLR AND
001651: 00,2221           10000                           CCS      A                                     #  SRR (SCALAR ONLY).
001652: 00,2222           07105                           TC       ROUNDSUB
001653: 00,2223           16030                           TCF      DANZIG
001654:
001655: 00,2224           54135        GENSHFT2           TS       MPTEMP                                #  DECREMENTED SHIFT COUNT TO MPTEMP.
001656: 00,2225           34761                           CAF      BIT8                                  #  TEST MEANING OF LOW SEVEN BIT COUNT IN
001657: 00,2226           00006                           EXTEND                                         #  MPTEMP NOW.
001658: 00,2227           70116                           MP       ADDRWD
001659: 00,2230           76214                           MASK     LOW2                                  #  JUMPS ON SHIFT DIRECTION (BIT8) AND
001660: 00,2231           50000                           INDEX    A
001661: 00,2232           12233                           TCF      +1                                    #  ORIGINAL SHIFT DIRECTION (BIT 9).
001662: 00,2233           12332                           TCF      RIGHT-                                #  NEGATIVE SHIFT COUNT FOR SL OR SLR.
001663: 00,2234           12342                           TCF      LEFT                                  #  SL OR SLR.
001664: 00,2235           12336                           TCF      LEFT-                                 #  NEGATIVE SHIFT COUNT WITH SR OR SRR.
001665:


001667:                                                                                                  #  GENERAL SHIFT RIGHT.
001668:
001669: 00,2236           10163        RIGHT              CCS      MODE                                  #  SEE IF VECTOR OR SCALAR.
001670: 00,2237           12277                           TCF      GENSCR
001671: 00,2240           12277                           TCF      GENSCR
001672:
001673: 00,2241           30135                           CA       MPTEMP                                #  SEE IF SHIFT COUNT LESS THAN 14D.
001674: 00,2242           63726        VRIGHT2            AD       NEG12
001675: 00,2243           00006                           EXTEND
001676: 00,2244           62127                           BZMF     VSSR                                  #  IF SO, BRANCH AND SHIFT IMMEDIATELY.
001677:
001678: 00,2245           67702                           AD       NEGONE                                #  IF NOT, REDUCE MPTEMP BY A TOTAL OF 14,
001679: 00,2246           54135                           TS       MPTEMP                                #  AND DO A SHIFT RIGHT AND ROUND BY 14.
001680: 00,2247           34772                           CAF      ZERO                                  #  THE ROUND AT THIS STAGE MAY INTRODUCE A
001681: 00,2250           54001                           TS       L                                     #  ONE BIT ERROR IN A SHIFT RIGHT 15D.
001682: 00,2251           56154                           XCH      MPAC
001683: 00,2252           56155                           XCH      MPAC       +1
001684: 00,2253           02272                           TC       SETROUND                              #  X COMPONENT NOW SHIFTED, SO MAKE UP THE
001685: 00,2254           20155                           DAS      MPAC                                  #  ROUNDING QUANTITY (0 IN A AND 0 OR +-1
001686:                                                                                                  #  IN L).
001687: 00,2255           56157                           XCH      MPAC       +3                         #  REPEAT THE ABOVE PROCESS FOR Y AND Z.
001688: 00,2256           56160                           XCH      MPAC       +4
001689: 00,2257           02272                           TC       SETROUND
001690: 00,2260           20160                           DAS      MPAC       +3                         #  NO OVERFLOW ON THESE ADDS.
001691:
001692: 00,2261           56161                           XCH      MPAC       +5
001693: 00,2262           56162                           XCH      MPAC       +6
001694: 00,2263           02272                           TC       SETROUND
001695: 00,2264           20162                           DAS      MPAC       +5
001696:
001697: 00,2265           10135                           CCS      MPTEMP                                #  SEE IF DONE, DOING FINAL DECREMENT.
001698: 00,2266           54135                           TS       MPTEMP
001699: 00,2267           12242                           TCF      VRIGHT2
001700: 00,2270           04604        BIASLO             DEC      .2974      B-1                        #  SQRT CONSTANT
001701:
001702: 00,2271           16030                           TCF      DANZIG
001703:
001704: 00,2272           60000        SETROUND           DOUBLE                                         #  MAKES UP ROUNDING QUANTITY FROM ARRIVING
001705: 00,2273           54156                           TS       MPAC       +2                         #  C(A). L IS ZERO INITIALLY.
001706: 00,2274           34772                           CAF      ZERO
001707: 00,2275           56001                           XCH      L
001708: 00,2276           00002                           TC       Q                                     #  RETURN AND DO THE DAS, RESETTING L TO 0.
001709:


001711:                                                                                                  #  PROCESS SR AND SRR FOR SCALARS.
001712:
001713: 00,2277           30135        GENSCR             CA       MPTEMP                                #  SEE IF THE ORIGINAL SHIFT COUNT WAS LESS
001714: 00,2300           63726                 +1        AD       NEG12                                 #  THAN 14D.
001715: 00,2301           00006                           EXTEND
001716: 00,2302           62322                           BZMF     DOSSHFT                               #  DO THE SHIFT IMMEDIATELY IF SO.
001717:
001718: 00,2303           67702                 +4        AD       NEGONE                                #  IF NOT, DECREMENT SHIFT COUNT BY 14D AND
001719: 00,2304           54135                           TS       MPTEMP                                #  SHIFT MPAC RIGHT 14 PLACES.
001720: 00,2305           34772                           CAF      ZERO
001721: 00,2306           56154                           XCH      MPAC
001722: 00,2307           56155                           XCH      MPAC       +1
001723: 00,2310           54156                           TS       MPAC       +2
001724: 00,2311           10135                           CCS      MPTEMP                                #  SEE IF FINISHED, DO FINAL DECREMENT.
001725: 00,2312           54135                           TS       MPTEMP
001726: 00,2313           02300                           TC       GENSCR     +1
001727: 00,2314           22650        SLOPEHI            DEC      .5884                                 #  SQRT CONSTANT.
001728: 00,2315           34757                           CAF      BIT10                                 #  FINISHED WITH SHIFT. SEE IF ROUND
001729: 00,2316           70116                           MASK     ADDRWD                                #  WANTED.
001730: 00,2317           10000                           CCS      A
001731: 00,2320           07105                           TC       ROUNDSUB
001732: 00,2321           16030                           TCF      DANZIG                                #  DO SO AND/OR EXIT.
001733:
001734: 00,2322           50135        DOSSHFT            INDEX    MPTEMP                                #  PICK UP SHIFTING BIT.
001735: 00,2323           34753                           CAF      BIT14
001736: 00,2324           54135                           TS       MPTEMP
001737: 00,2325           34757                           CAF      BIT10                                 #  SEE IF TERMINAL ROUND DESIRED.
001738: 00,2326           70116                           MASK     ADDRWD
001739: 00,2327           10000                           CCS      A
001740: 00,2330           12031                           TCF      RIGHTR                                #  YES.
001741: 00,2331           12033                           TCF      MPACSHR                               #  JUST SHIFT RIGHT.
001742:


001744:                                                                                                  #  PROCESS THE RIGHT- (SL(R) WITH A NEGATIVE COUNT), LEFT-, AND LEFT OPTIONS.
001745:
001746: 00,2332           40135        RIGHT-             CS       MPTEMP                                #  GET ABSOLUTE VALUE - 1 OF SHIFT COUNT
001747: 00,2333           62126                           AD       OCT176                                #  UNDERSTANDING THAT BIT8 (PSEUDO-SIGN)
001748: 00,2334           54135                           TS       MPTEMP                                #  WAS 1 INITIALLY.
001749: 00,2335           12236                           TCF      RIGHT                                 #  DO NORMAL SHIFT RIGHT.
001750:
001751: 00,2336           42126        LEFT-              CS       OCT176                                #  SAME PROLOGUE TO LEFT FOR INDEXED RIGHT
001752: 00,2337           60135                           AD       MPTEMP                                #  SHIFTS WHOSE NET SHIFT COUNT IS NEGATIVE
001753: 00,2340           40000                           COM
001754: 00,2341           54135                           TS       MPTEMP
001755:
001756: 00,2342           10163        LEFT               CCS      MODE                                  #  SINCE LEFT SHIFTING IS SONE ONE PLACE AT
001757: 00,2343           12346                           TCF      GENSCL                                #  A TIME, NO COMPARISON WITH 14 NEED BE
001758: 00,2344           12346                           TCF      GENSCL                                #  DONE. FOR SCALARS, SEE IF TERMINAL ROUND
001759: 00,2345           12145                           TCF      VSSL                                  #  DESIRED. FOR VECTORS, SHIFT IMMEDIATELY.
001760:
001761: 00,2346           40116        GENSCL             CS       ADDRWD                                #  PUT ROUNDING BIT (BIT 10 OF ADDRWD) INTO
001762: 00,2347           00006                           EXTEND                                         #  BIT 15 OF CYR WHERE THE ROUNDING BIT OF
001763: 00,2350           74763                           MP       BIT6                                  #  A SHORT SHIFT LEFT WOULD BE
001764: 00,2351           54020                           TS       CYR
001765: 00,2352           12103                           TCF      TSSL       +2                         #  DO THE SHIFT.
001766:


001768:                                                                                                  #           SCALAR DIVISION INSTRUCTIONS, DDV AND BDDV, ARE EXECUTED HERE. AT THIS POINT, THE DIVIDEND IS IN MPAC
001769:                                                                                                  #  AND THE DIVISOR IN BUF.
001770:
001771: 00,2353           44770        DDV/BDDV           CS       ONE                                   #  INITIALIZATION.
001772: 00,2354           54136                           TS       DVSIGN                                #  +-1 FOR POSITIVE QUOTIENT - -0 FOR NEG.
001773: 00,2355           54137                           TS       DVNORMCT                              #  DIVIDEND NORMALIZATION COUNT.
001774: 00,2356           54140                           TS       MAXDVSW                               #  NEAR-ONE DIVIDE FLAG.
001775:
001776: 00,2357           10130                           CCS      BUF                                   #  FORCE BUF POSITIVE WITH THE MAJOR PART
001777: 00,2360           12515                           TCF      BUFPOS                                #  NON-ZERO.
001778: 00,2361           12363                           TCF      +2
001779: 00,2362           12530                           TCF      BUFNEG
001780:
001781: 00,2363           07225        BUFZERO            TC       BUFAGREE
001782: 00,2364           10154                           CCS      MPAC                                  #  TEST TO SEE IF MPAC NON-ZERO.  (TOO BIG)
001783: 00,2365           12413                           TCF      OVF+                                  #  MAJOR PART OF DIVIDEND IS POSITIVE NON-0
001784: 00,2366           12370                           TCF      +2
001785: 00,2367           12412                           TCF      OVF+       -1                         #  MAJOR PART OF DIVIDEND IS NEG. NON-ZERO
001786:
001787: 00,2370           56131                           XCH      BUF        +1                         #  SHIFT DIVIDEND AND DIVISOR LEFT 14.
001788: 00,2371           56130                           XCH      BUF
001789: 00,2372           56155                           XCH      MPAC       +1
001790: 00,2373           56154                           XCH      MPAC
001791: 00,2374           10130                           CCS      BUF                                   #  TRY AGAIN ON FORMER MINOR PART.
001792: 00,2375           12421                           TCF      BUF+
001793: 00,2376           12400                           TCF      +2                                    #  OVERFLOW ON ZERO DIVISOR.
001794: 00,2377           12415                           TCF      BUF-
001795:
001796: 00,2400           40154                           CS       MPAC                                  #  SIGN OF MPAC DETERMINES SIGN OF RESULT.
001797: 00,2401           00006        SGNDVOVF           EXTEND
001798: 00,2402           62404                           BZMF     +2
001799: 00,2403           24136                           INCR     DVSIGN                                #  NEGMAX IN MPAC PERHAPS.
001800: 00,2404           34750        DVOVF              CAF      POSMAX                                #  ON DIVISION OVERFLOW OF ANY SORT, SET
001801: 00,2405           54154                           TS       MPAC                                  #  SET DP MPAC TO +-POSMAX.
001802: 00,2406           02627                           TC       FINALDV    +3
001803: 00,2407           34770                           CAF      ONE                                   #  SET OVERFLOW INDICATOR AND EXIT.
001804: 00,2410           54121                           TS       OVFIND
001805: 00,2411           06030                           TC       DANZIG
001806:
001807: 00,2412           24136                 -1        INCR     DVSIGN
001808: 00,2413           40131        OVF+               CS       BUF        +1                         #  LOAD LOWER ORDER PART OF DIVISOR.
001809: 00,2414           12401                           TCF      SGNDVOVF                              #  GET SIGN OF RESULT.
001810:
001811: 00,2415           00006        BUF-               EXTEND                                         #  IF BUF IS NEGATIVE, COMPLEMENT IT AND
001812: 00,2416           40131                           DCS      BUF                                   #  MAINTAIN DVSIGN FOR FINAL QUOTIENT SIGN.
001813: 00,2417           52131                           DXCH     BUF
001814: 00,2420           24136                           INCR     DVSIGN                                #  NOW -0.
001815: 00,2421           10154        BUF+               CCS      MPAC                                  #  FORCE MPAC POSITIVE, CHECKING FOR ZERO


001817: 00,2422           12436                           TCF      MPAC+                                 #  DIVIDEND IN THE PROCESS.
001818: 00,2423           12425                           TCF      +2
001819: 00,2424           12432                           TCF      MPAC-
001820: 00,2425           10155                           CCS      MPAC       +1
001821: 00,2426           12436                           TCF      MPAC+
001822: 00,2427           16030                           TCF      DANZIG                                #  EXIT IMMEDIATELY ON ZERO DIVIDEND.
001823: 00,2430           12432                           TCF      MPAC-
001824: 00,2431           16030                           TCF      DANZIG
001825:
001826: 00,2432           00006        MPAC-              EXTEND                                         #  FORCE MPAC POSITIVE AS BUF IN BUF-.
001827: 00,2433           40155                           DCS      MPAC
001828: 00,2434           52155                           DXCH     MPAC
001829: 00,2435           24136                           INCR     DVSIGN                                #  NOW +1 OR -0.
001830:


001832: 00,2436           40154        MPAC+              CS       MPAC                                  #  CHECK FOR DIVISION OVERFLOW. IF THE
001833: 00,2437           67702                           AD       NEGONE                                #  MAJOR PART OF THE DIVIDEND IS LESS THAN
001834: 00,2440           60130                           AD       BUF                                   #  THE MAJOR PART OF THE DIVISOR BY AT
001835: 00,2441           10000                           CCS      A                                     #  LEAST TWO, WE CAN PROCEED IMMEDIATELY
001836: 00,2442           12504                           TCF      DVNORM                                #  WITHOUT NORMALIZATION PRODUCING A DVMAX.
001837: 00,2443           60001        -1/2+2             OCT      60001                                 #  USED IN SQRTSUB.
001838:
001839: 00,2444           12445                           TCF      +1                                    #  IF THE ABOVE DOES NOT HOLD, FORCE SIGN
001840: 00,2445           34753                           CAF      HALF                                  #  AGREEMENT IN NUMERATOR AND DENOMINATOR
001841: 00,2446           60000                           DOUBLE                                         #  TO FACILITATE OVERFLOW AND NEAR-ONE
001842: 00,2447           60155                           AD       MPAC       +1                         #  CHECKING.
001843: 00,2450           54155                           TS       MPAC       +1
001844: 00,2451           34772                           CAF      ZERO
001845: 00,2452           64750                           AD       POSMAX
001846: 00,2453           26154                           ADS      MPAC
001847:
001848: 00,2454           34753                           CAF      HALF                                  #  SAME FOR BUF.
001849: 00,2455           60000                           DOUBLE
001850: 00,2456           60131                           AD       BUF        +1
001851: 00,2457           54131                           TS       BUF        +1
001852: 00,2460           34772                           CAF      ZERO
001853: 00,2461           64750                           AD       POSMAX
001854: 00,2462           26130                           ADS      BUF
001855:
001856: 00,2463           40154                           CS       MPAC                                  #  CHECK MAGNITUDE OF SIGN-CORRECTED
001857: 00,2464           60130                           AD       BUF                                   #  OPERANDS.
001858: 00,2465           10000                           CCS      A
001859: 00,2466           12504                           TCF      DVNORM                                #  DIVIDE OK - WILL NOT BECOME MAXOV CASE.
001860: 00,2467           00133        LBUF2              ADRES    BUF2
001861: 00,2470           12404                           TCF      DVOVF                                 #  DIVISOR NOT LESS THAN DIVIDEND - OVF.
001862:
001863: 00,2471           54140                           TS       MAXDVSW                               #  IF THE MAJOR PARTS OF THE DIVIDEND AND
001864: 00,2472           40155                           CS       MPAC       +1                         #  DIVISOR ARE EQUAL, A SPECIAL APPROXIMA-
001865: 00,2473           60131                           AD       BUF        +1                         #  TION IS USED (PROVIDED THE DIVISION IS
001866: 00,2474           00006                           EXTEND                                         #  POSSIBLE, OF COURSE).
001867: 00,2475           62404                           BZMF     DVOVF
001868: 00,2476           12504                           TCF      DVNORM                                #  IF NO OVERFLOW.
001869:


001871: 00,2477           00006        BUFNORM            EXTEND                                         #  ADD -1 TO AUGMENT SHIFT COUNT AND SHIFT
001872: 00,2500           24137                           AUG      DVNORMCT                              #  LEFT ONE PLACE.
001873: 00,2501           00006                           EXTEND
001874: 00,2502           30131                           DCA      BUF
001875: 00,2503           20131                           DAS      BUF
001876:
001877: 00,2504           30130        DVNORM             CA       BUF                                   #  SEE IF DIVISOR NORMALIZED YET.
001878: 00,2505           60000                           DOUBLE
001879: 00,2506           54000                           OVSK
001880: 00,2507           12477                           TCF      BUFNORM                               #  NO - SHIFT LEFT ONE AND TRY AGAIN.
001881:
001882: 00,2510           52155                           DXCH     MPAC                                  #  CALL DIVIDEND NORMALIZATION SEQUENCE
001883: 00,2511           50137                           INDEX    DVNORMCT                              #  PRIOR TO DOING THE DIVIDE.
001884: 00,2512           02564                           TC       MAXTEST
001885:
001886: 00,2513           54156                           TS       MPAC       +2                         #  RETURNS WITH DIVISION DONE AND C(A) = 0.
001887: 00,2514           16030                           TCF      DANZIG
001888:
001889: 00,2515           10000        BUFPOS             CCS      A
001890: 00,2516           12421                           TCF      BUF+                                  #  TO BUF+ IF BUF IS GREATER THAN +1.
001891:
001892: 00,2517           40131                           CS       BUF        +1                         #  IF BUF IS +1, FORCING SIGN AGREEMENT
001893: 00,2520           00006                           EXTEND                                         #  MAY CAUSE BUF TO BECOME ZERO.
001894: 00,2521           62421                           BZMF     BUF+                                  #  BRANCH IF SIGNS AGREE.
001895:
001896: 00,2522           34753                           CA       HALF                                  #  SIGNS DISAGREE.  FORCE AGREEMENT.
001897: 00,2523           60000                 +6        DOUBLE
001898: 00,2524           26131                           ADS      BUF        +1
001899: 00,2525           34772                           CA       ZERO
001900: 00,2526           54130                           TS       BUF
001901: 00,2527           12363                           TCF      BUFZERO
001902:
001903: 00,2530           10000        BUFNEG             CCS      A
001904: 00,2531           12415                           TCF      BUF-                                  #  TO BUF- IF BUF IS LESS THAN -1.
001905:
001906: 00,2532           30131                           CA       BUF        +1                         #  IF BUF IS -1, FORCING SIGN AGREEMENT
001907: 00,2533           00006                           EXTEND                                         #  MAY CAUSE BUF TO BECOME ZERO.
001908: 00,2534           62415                           BZMF     BUF-                                  #  BRANCH IF SIGNS AGREE.
001909:
001910: 00,2535           44753                           CS       HALF                                  #  SIGNS DISAGREE.  FORCE AGREEMENT.
001911: 00,2536           12523                           TCF      BUFPOS     +6
001912:


001914:                                                                                                  #  THE FOLLOWING ARE PROLOGUES TO SHIFT THE DIVIDEND ARRIVING IN A AND L BEFORE THE DIVIDE.
001915:
001916: 00,2537           22021                 -21D      LXCH     SR                                    #  SPECIAL PROLOGUE FOR UNIT WHEN THE
001917: 00,2540           00006                           EXTEND                                         #  LENGTH OF THE ARGUMENT WAS NOT LESS THAN
001918: 00,2541           74753                           MP       HALF                                  #  .5. IN THIS CASE, EACH COMPONENT MUST BE
001919: 00,2542           56001                           XCH      L                                     #  SHIFTED RIGHT ONE TO PRODUCE A HALF-UNIT
001920: 00,2543           60021                           AD       SR                                    #  VECTOR.
001921: 00,2544           56001                           XCH      L
001922: 00,2545           12570                           TCF      GENDDV     +1                         #  WITH DP DIVIDEND IN A,L.
001923:
001924: 00,2546           20001                           DDOUBL                                         #  PROLOGUE WHICH NORMALIZES THE DIVIDEND
001925: 00,2547           20001                           DDOUBL                                         #  WHEN IT IS KNOWN THAT NO DIVISION
001926: 00,2550           20001                           DDOUBL                                         #  OVERFLOW WILL OCCUR.
001927: 00,2551           20001                           DDOUBL
001928: 00,2552           20001                           DDOUBL
001929: 00,2553           20001                           DDOUBL
001930: 00,2554           20001                           DDOUBL
001931: 00,2555           20001                           DDOUBL
001932: 00,2556           20001                           DDOUBL
001933: 00,2557           20001                           DDOUBL
001934: 00,2560           20001                           DDOUBL
001935: 00,2561           20001                           DDOUBL
001936: 00,2562           20001                           DDOUBL
001937: 00,2563           52155                 -1        DXCH     MPAC
001938: 00,2564           10140        MAXTEST            CCS      MAXDVSW                               #  0 IF MAJORS MIGHT BE =, -1 OTHERWISE.
001939: 00,2565           06552        BIASHI             DEC      .4192      B-1                        #  SQRT CONSTANTS
001940:
001941: 00,2566           12641                           TCF      MAXDV                                 #  CHECK TO SEE IF THEY ARE NOW EQUAL.
001942:


001944:                                                                                                  #  THE FOLLOWING IS A GENERAL PURPOSE DOUBLE PRECISION DIVISION ROUTINE. IT DIVIDES MPAC BY BUF AND LEAVES
001945:                                                                                                  #  THE RESULT IN MPAC. THE FOLLOWING CONDITIONS MUST BE SATISFIED:
001946:
001947:                                                                                                  #        1.      THE DIVISOR (BUF) MUST BE POSITIVE AND NOT LESS THAN .5.
001948:
001949:                                                                                                  #        2.      THE DIVIDEND (MPAC) MUST BE POSITIVE WITH THE MAJOR PART OF MPAC STRICTLY LESS THAN THAT OF BUF
001950:                                                                                                  #                (A SPECIAL APPROXIMATION, MAXDV, IS USED WHEN THE MAJOR PARTS ARE EQUAL).
001951:
001952:                                                                                                  #  UNDERSTANDING THAT A/B = Q + S(R/B) WHERE S = 2(-14) AND Q AND R ARE QUOTIENT AND REMAINDER, RESPEC-
001953:                                                                                                  #  TIVELY, THE FOLLOWING APPROXIMATION IS OBTAINED BY MULTIPLYING ABOVE AND BELOW BY C - SD AND NEGLECTING TERMS OF
001954:                                                                                                  #  ORDER S-SQUARED (POSSIBLY INTRODUCING ERROR INTO THE LOW TWO BITS OF THE RESULT). SIGN AGREEMENT IS UNNECESSARY.
001955:
001956:                                                                                                  #        A + SB .      (R - QD)                                             A + SB
001957:                                                                                                  #        ------ = Q + S(------) WHERE Q AND R ARE QUOTIENT AND REMAINDER OF ------ RESPECTIVELY.
001958:                                                                                                  #        C + SD        (  C   )                                                C
001959:
001960: 00,2567           52155        GENDDV             DXCH     MPAC                                  #  WE NEED A AND B ONLY FOR FIRST DV.
001961: 00,2570           00006                 +1        EXTEND                                         #  (SPECIAL UNIT PROLOGUE ENTERS HERE).
001962: 00,2571           10130                           DV       BUF                                   #  A NOW CONTAINS Q AND L, R.
001963: 00,2572           52155                           DXCH     MPAC
001964:
001965: 00,2573           40154                           CS       MPAC                                  #  FORM DIVIDEND FOR MINOR PART OF RESULT.
001966: 00,2574           00006                           EXTEND
001967: 00,2575           70131                           MP       BUF        +1
001968: 00,2576           60155                           AD       MPAC       +1                         #  OVERFLOW AT THIS POINT IS POSITIVE SINCE
001969: 00,2577           54000                           OVSK                                           #  R IS POSITIVE IN EVERY CASE.
001970: 00,2600           12605                           TCF      +5
001971:
001972: 00,2601           00006                           EXTEND                                         #  OVERFLOW CAN BE REMOVED BY SUBTRACTING C
001973: 00,2602           60130                           SU       BUF                                   #  (BUF) ONCE SINCE R IS ALWAYS LESS THAN C
001974: 00,2603           24154                           INCR     MPAC                                  #  IN THIS CASE. INCR COMPENSATES SUBTRACT.
001975: 00,2604           12607                           TCF      +DOWN                                 #  (SINCE C(A) IS STILL POSITIVE).
001976:
001977: 00,2605           00006                 +5        EXTEND                                         #  C(A) CAN BE MADE LESS THAN C IN MAGNI-
001978: 00,2606           62617                           BZMF     -UP                                   #  TUDE BY DIMINISHING IT BY C (SINCE C IS
001979:                                                                                                  #  NOT LESS THAN .5) UNLESS C(A) = 0.
001980:


001982: 00,2607           00006        +DOWN              EXTEND
001983: 00,2610           60130                           SU       BUF                                   #  IF POSITIVE, REDUCE ONLY IF NECESSARY
001984: 00,2611           00006                           EXTEND                                         #  SINCE THE COMPENSATING INCR MIGHT CAUSE
001985: 00,2612           12615                           BZF      +3                                    #  OVERFLOW.
001986: 00,2613           00006                           EXTEND                                         #  DONT SUBTRACT UNLESS RESULT IS POSITIVE
001987: 00,2614           62623                           BZMF     ENDMAXDV                              #  OR ZERO.
001988:
001989: 00,2615           24154                 +3        INCR     MPAC                                  #  KEEP SUBTRACT HERE AND COMPENSATE.
001990: 00,2616           12624                           TCF      FINALDV
001991:
001992: 00,2617           00006        -UP                EXTEND                                         #  IF ZERO, SET MINOR PART OF RESULT TO
001993: 00,2620           12627                           BZF      FINALDV    +3                         #  ZERO.
001994:
001995: 00,2621           00006                           EXTEND                                         #  IF NEGATIVE, ADD C TO A, SUBTRACTING ONE
001996: 00,2622           26154                           DIM      MPAC                                  #  TO COMPENSATE. DIM IS OK HERE SINCE THE
001997: 00,2623           60130        ENDMAXDV           AD       BUF                                   #  MAJOR PART NEVER GOES NEGATIVE.
001998:


002000: 00,2624           22007        FINALDV            ZL                                             #  DO DV TO OBTAIN MINOR PART OF RESULT.
002001: 00,2625           00006                           EXTEND
002002: 00,2626           10130                           DV       BUF
002003: 00,2627           54155                 +3        TS       MPAC       +1
002004:
002005: 00,2630           10136                           CCS      DVSIGN                                #  LEAVE RESULT POSITIVE UNLESS C(DVSIGN)=
002006: 00,2631           00002                           TC       Q                                     #  -0.
002007: 00,2632           00002                           TC       Q
002008: 00,2633           00002                           TC       Q
002009:
002010: 00,2634           00006                           EXTEND
002011: 00,2635           40155                           DCS      MPAC
002012: 00,2636           52155                           DXCH     MPAC
002013: 00,2637           34772                           CAF      ZERO                                  #  SO WE ALWAYS RETURN WITH C(A) = 0.
002014: 00,2640           00002                           TC       Q
002015:


002017:                                                                                                  #  IF THE MAJOR PARTS OF THE DIVISOR AND DIVIDEND ARE EQUAL, BUT THE MINOR PARTS ARE SUCH THAT THE
002018:                                                                                                  #  DIVIDEND IS STRICTLY LESS THAN THE DIVISOR IN MAGNITUDE, THE FOLLOWING APPROXIMATION IS USED. THE ASSUMPTIONS
002019:                                                                                                  #  ARE THE SAME AS THE GENERAL ROUTINE WITH THE ADDITION THAT SIGN AGREEMENT IS NECESSARY (B, C, & D POSITIVE).
002020:
002021:                                                                                                  #        C + SB .          (C + B - D)
002022:                                                                                                  #        ------ = 37777 + S(---------)
002023:                                                                                                  #        C + SD            (    C    )
002024:
002025:                                                                                                  #  THE DIVISION MAY BE PERFORMED IMMEDIATELY SINCE B IS STRICTLY LESS THAN D AND C IS NOT LESS THAN .5.
002026:
002027: 00,2641           40154        MAXDV              CS       MPAC                                  #  SEE IF MAXDV CASE STILL HOLDS AFTER
002028: 00,2642           60130                           AD       BUF                                   #  NORMALIZATION.
002029: 00,2643           00006                           EXTEND
002030: 00,2644           12646                           BZF      +2
002031: 00,2645           12567                           TCF      GENDDV                                #  MPAC NOW LESS THAN BUF - DIVIDE AS USUAL
002032:
002033: 00,2646           34750                 +2        CAF      POSMAX                                #  SET MAJOR PART OF RESULT.
002034: 00,2647           54154                           TS       MPAC
002035:
002036: 00,2650           40131                           CS       BUF        +1                         #  FORM DIVIDEND OF MINOR PART OF RESULT.
002037: 00,2651           60155                           AD       MPAC       +1
002038: 00,2652           12623                           TCF      ENDMAXDV                              #  GO ADD C AND DO DIVIDE, ATTACHING SIGN
002039:                                                                                                  #  BEFORE EXITING.
002040:


002042:                                                                                                  #  VECTOR DIVIDED BY SCALAR, V/SC, IS EXECUTED HERE. THE VECTOR IS NOW IN MPAC WITH SCALAR IN BUF.
002043:
002044: 00,2653           44770        V/SC2              CS       ONE                                   #  INITIALIZE DIVIDEND NORMALIZATION COUNT
002045: 00,2654           54137                           TS       DVNORMCT                              #  AND DIVISION SIGN REGISTER.
002046: 00,2655           54127                           TS       VBUF       +5
002047:
002048: 00,2656           03007                           TC       VECAGREE                              #  FORCE SIGN AGREEMENT IN VECTOR
002049:
002050: 00,2657           52131                           DXCH     BUF
002051: 00,2660           07500                           TC       ALSIGNAG                              #  SIGN AGREE BUF
002052: 00,2661           52131                           DXCH     BUF
002053: 00,2662           10130                           CCS      BUF                                   #  FORCE DIVISOR POSITIVE WITH MAJOR PART
002054: 00,2663           12720                           TCF      /BUF+                                 #  NON-ZERO (IF POSSIBLE).
002055: 00,2664           12666                           TCF      +2
002056: 00,2665           12714                           TCF      /BUF-
002057:
002058: 00,2666           56131                           XCH      BUF        +1                         #  SHIFT VECTOR AND SCALAR LEFT 14.
002059: 00,2667           56130                           XCH      BUF
002060: 00,2670           56155                           XCH      MPAC       +1
002061: 00,2671           56154                           XCH      MPAC
002062: 00,2672           00006                           EXTEND                                         #  CHECK FOR OVERFLOW IN EACH CASE.
002063: 00,2673           12675                           BZF      +2
002064: 00,2674           12404                           TCF      DVOVF
002065:
002066: 00,2675           56160                           XCH      MPAC       +4
002067: 00,2676           56157                           XCH      MPAC       +3
002068: 00,2677           00006                           EXTEND
002069: 00,2700           12702                           BZF      +2
002070: 00,2701           12404                           TCF      DVOVF
002071:
002072: 00,2702           56162                           XCH      MPAC       +6
002073: 00,2703           56161                           XCH      MPAC       +5
002074: 00,2704           00006                           EXTEND
002075: 00,2705           12707                           BZF      +2
002076: 00,2706           12404                           TCF      DVOVF
002077:
002078: 00,2707           10130                           CCS      BUF
002079: 00,2710           12720                           TCF      /BUF+
002080: 00,2711           12404                           TCF      DVOVF                                 #  ZERO DIVISOR - OVERFLOW.
002081: 00,2712           12714                           TCF      /BUF-
002082: 00,2713           12404                           TCF      DVOVF
002083:
002084: 00,2714           00006        /BUF-              EXTEND                                         #  ON NEGATIVE, COMPLEMENT BUF AND MAINTAIN
002085: 00,2715           40131                           DCS      BUF                                   #  DVSIGN IN VBUF +5.
002086: 00,2716           52131                           DXCH     BUF
002087: 00,2717           24127                           INCR     VBUF       +5
002088:


002090: 00,2720           00006        /BUF+              EXTEND
002091: 00,2721           30131                           DCA      BUF                                   #  LEAVE ABS(ORIG DIVISOR) IN BUF2
002092: 00,2722           52134                           DXCH     BUF2                                  #  FOR OVERFLOW TESTING
002093: 00,2723           12731                           TCF      /NORM                                 #  NORMALIZE DIVISOR IN BUF.
002094:
002095: 00,2724           00006        /NORM2             EXTEND                                         #  IF LESS THAN .5, AUGMENT DVNORMCT AND
002096: 00,2725           24137                           AUG      DVNORMCT                              #  DOUBLE DIVISOR.
002097: 00,2726           00006                           EXTEND
002098: 00,2727           30131                           DCA      BUF
002099: 00,2730           20131                           DAS      BUF
002100:
002101: 00,2731           30130        /NORM              CA       BUF                                   #  SEE IF DIVISOR NORMALIZED.
002102: 00,2732           60000                           DOUBLE
002103: 00,2733           54000                           OVSK
002104: 00,2734           12724                           TCF      /NORM2                                #  DOUBLE AND TRY AGAIN IF NOT.
002105:
002106: 00,2735           02747                           TC       V/SCDV                                #  DO X COMPONENT DIVIDE.
002107: 00,2736           52160                           DXCH     MPAC       +3                         #  SUPPLY ARGUMENTS IN USUAL SEQUENCE.
002108: 00,2737           52155                           DXCH     MPAC
002109: 00,2740           52160                           DXCH     MPAC       +3
002110:
002111: 00,2741           02747                           TC       V/SCDV                                #  Y COMPONENT.
002112: 00,2742           52162                           DXCH     MPAC       +5
002113: 00,2743           52155                           DXCH     MPAC
002114: 00,2744           52162                           DXCH     MPAC       +5
002115:
002116: 00,2745           02747                           TC       V/SCDV                                #  Z COMPONENT.
002117: 00,2746           17354                           TCF      VROTATEX                              #  GO RE-ARRANGE COMPONENTS BEFORE EXIT.
002118:


002120:                                                                                                  #  SUBROUTINE USED BY V/SC TO DIVIDE VECTOR COMPONENT IN MPAC,+1 BY THE SCALAR GIVEN IN BUF.
002121:
002122: 00,2747           30127        V/SCDV             CA       VBUF       +5                         #  REFLECTS SIGN OF SCALAR.
002123: 00,2750           54136                           TS       DVSIGN
002124:
002125: 00,2751           10154                           CCS      MPAC                                  #  FORCE MPAC POSITIVE, EXITING ON ZERO.
002126: 00,2752           12766                           TCF      /MPAC+
002127: 00,2753           12755                           TCF      +2
002128: 00,2754           12762                           TCF      /MPAC-
002129:
002130: 00,2755           10155                           CCS      MPAC       +1
002131: 00,2756           12766                           TCF      /MPAC+
002132: 00,2757           00002                           TC       Q
002133: 00,2760           12762                           TCF      /MPAC-
002134: 00,2761           00002                           TC       Q
002135:
002136: 00,2762           00006        /MPAC-             EXTEND                                         #  USUAL COMPLEMENTING AND SETTING OF SIGN.
002137: 00,2763           40155                           DCS      MPAC
002138: 00,2764           52155                           DXCH     MPAC
002139: 00,2765           24136                           INCR     DVSIGN
002140:
002141: 00,2766           44770        /MPAC+             CS       ONE                                   #  INITIALIZE NEAR-ONE SWITCH.
002142: 00,2767           54140                           TS       MAXDVSW
002143:
002144: 00,2770           40154                           CS       MPAC                                  #  CHECK POSSIBLE OVERFLOW.
002145: 00,2771           60133                           AD       BUF2                                  #  UNNORMALIZED INPUT DIVISOR.
002146: 00,2772           10000                           CCS      A
002147: 00,2773           13003                           TCF      DDVCALL                               #  NOT NEAR-ONE
002148: 00,2774           12776                           TCF      +2                                    #  +0 IS JUST POSSIBLE
002149: 00,2775           12404                           TCF      DVOVF                                 #  NO HOPE
002150: 00,2776           54140                           TS       MAXDVSW                               #  SIGNAL POSSIBLE NEAR-ONE CASE
002151: 00,2777           40155                           CS       MPAC       +1                         #  SEE IF DIVISION CAN BE DONE
002152: 00,3000           60134                           AD       BUF2       +1
002153: 00,3001           00006                           EXTEND
002154: 00,3002           62404                           BZMF     DVOVF
002155:
002156: 00,3003           52155        DDVCALL            DXCH     MPAC                                  #  CALL PRE-DIVIDE NORMALIZATION.
002157: 00,3004           50137                           INDEX    DVNORMCT
002158: 00,3005           12564                           TCF      MAXTEST
002159:


002161: 00,3006           32506        SLOPELO            DEC      .8324
002162:
002163: 00,3007           56002        VECAGREE           XCH      Q                                     #  SAVE Q IN A
002164: 00,3010           52155                           DXCH     MPAC
002165: 00,3011           07500                           TC       ALSIGNAG                              #  SIGNAGREE MPAC
002166: 00,3012           52155                           DXCH     MPAC
002167: 00,3013           52160                           DXCH     MPAC       +3
002168: 00,3014           07500                           TC       ALSIGNAG                              #  SIGN AGREE MPAC +3
002169: 00,3015           52160                           DXCH     MPAC       +3
002170: 00,3016           52162                           DXCH     MPAC       +5
002171: 00,3017           07500                           TC       ALSIGNAG                              #  SIGNAGREE MPAC +5
002172: 00,3020           52162                           DXCH     MPAC       +5
002173: 00,3021           00000                           TC       A
002174:


002176:                                                                                                  #  THE FOLLOWING ROUTINE EXECUTES THE UNIT INSTRUCTION, WHICH TAKES THE UNIT OF THE VECTOR IN MPAC.
002177:
002178: 00,3022           03007        UNIT               TC       VECAGREE                              #  FORCE SIGN AGREEMENT IN VECTOR
002179: 00,3023           07466                           TC       MPACVBUF                              #  SAVE ARGUMENT IN VBUF
002180: 00,3024           34772                           CAF      ZERO                                  #  MUST SENSE OVERFLOW IN FOLLOWING DOT.
002181: 00,3025           56121                           XCH      OVFIND
002182: 00,3026           54141                           TS       TEM1
002183: 00,3027           03316                           TC       VSQSUB                                #  DOT MPAC WITH ITSELF.
002184: 00,3030           30141                           CA       TEM1
002185: 00,3031           56121                           XCH      OVFIND
002186: 00,3032           00006                           EXTEND
002187: 00,3033           13035                           BZF      +2
002188: 00,3034           12404                           TCF      DVOVF
002189: 00,3035           00006                           EXTEND
002190: 00,3036           30155                           DCA      MPAC                                  #  LEAVE THE SQUARE OF THE LENGTH OF THE
002191: 00,3037           50120                           INDEX    FIXLOC                                #  ARGUMENT IN LVSQUARE.
002192: 00,3040           52043                           DXCH     LVSQUARE
002193:
002194: 00,3041           03342                           TC       SQRTSUB                               #  GO TAKE THE NORMALIZED SQUARE ROOT.
002195:
002196: 00,3042           10154                           CCS      MPAC                                  #  CHECK FOR UNIT OVERFLOW.
002197: 00,3043           13050                           TCF      +5                                    #  MPAC IS NOT LESS THAN .5 UNLESS
002198: 00,3044           54001                           TS       L
002199: 00,3045           50120                           INDEX    FIXLOC
002200: 00,3046           52045                           DXCH     LV
002201: 00,3047           12404                           TCF      DVOVF                                 #  INPUT TO SQRTSUB WAS 0.
002202:
002203: 00,3050           44321                           CS       FOURTEEN                              #  SEE IF THE INPUT WAS SO SMALL THE THE
002204: 00,3051           60135                           AD       MPTEMP                                #  FIRST TWO REGISTERS OF THE SQUARE WERE 0
002205: 00,3052           10000                           CCS      A
002206: 00,3053           40000                           COM                                            #  IF SO, SAVE THE NEGATIVE OF THE SHIFT
002207: 00,3054           13132                           TCF      SMALL                                 #  COUNT -15D.
002208:
002209: 00,3055           13064                           TCF      LARGE                                 #  (THIS IS USUALLY THE CASE.)
002210:
002211: 00,3056           44776                           CS       THIRTEEN                              #  IF THE SHIFT COUNT WAS EXACTLY 14, SET
002212: 00,3057           54135                           TS       MPTEMP                                #  THE PRE-DIVIDE NORM COUNT TO -13D.
002213:
002214: 00,3060           30154                           CA       MPAC                                  #  SHIFT THE LENGTH RIGHT 14 BEFORE STORING
002215: 00,3061           54001        SMALL2             TS       L                                     #  (SMALL EXITS TO THIS POINT).
002216: 00,3062           34772                           CAF      ZERO
002217: 00,3063           13111                           TCF      LARGE2                                #  GO TO STORE LENGTH AND PROCEED.
002218:
002219: 00,3064           10135        LARGE              CCS      MPTEMP                                #  MOST ALL CASES COME HERE.
002220: 00,3065           13073                           TCF      LARGE3                                #  SEE IF NO NORMALIZATION WAS REQUIRED BY
002221: 00,3066           42024                           CS       SRDDV                                 #  SQRT, AND IF SO, SET UP FOR A SHIFT
002222: 00,3067           54135                           TS       MPTEMP                                #  RIGHT 1 BEFORE DIVIDING TO PRODUCE
002223: 00,3070           00006                           EXTEND                                         #  THE DESIRED HALF UNIT VECTOR.
002224: 00,3071           30155                           DCA      MPAC


002226: 00,3072           13111                           TCF      LARGE2
002227:


002229: 00,3073           40000        LARGE3             COM                                            #  LEAVE NEGATIVE OF SHIFT COUNT-1 FOR
002230: 00,3074           54135                           TS       MPTEMP                                #  PREDIVIDE LEFT SHIFT.
002231:
002232: 00,3075           40000                           COM                                            #  PICK UP REQUIRED SHIFTING BIT TO UNNORM-
002233: 00,3076           50000                           INDEX    A                                     #  ALIZE THE SQRT RESULT.
002234: 00,3077           34753                           CAF      BIT14
002235: 00,3100           54130                           TS       BUF
002236: 00,3101           00006                           EXTEND
002237: 00,3102           70155                           MP       MPAC       +1
002238: 00,3103           56130                           XCH      BUF
002239: 00,3104           00006                           EXTEND                                         #  (UNNORMALIZE THE SQRT FOR LV).
002240: 00,3105           70154                           MP       MPAC
002241: 00,3106           56001                           XCH      L
002242: 00,3107           60130                           AD       BUF
002243: 00,3110           56001                           XCH      L
002244:
002245: 00,3111           50120        LARGE2             INDEX    FIXLOC
002246: 00,3112           52045                           DXCH     LV                                    #  LENGTH NOW STORED IN WORK AREA.
002247:
002248: 00,3113           44770                           CS       ONE
002249: 00,3114           54140                           TS       MAXDVSW                               #  NO MAXDV CASES IN UNIT.
002250:
002251: 00,3115           52123                           DXCH     VBUF                                  #  PREPARE X COMPONENT FOR DIVIDE, SETTING
002252: 00,3116           52155                           DXCH     MPAC                                  #  LENGTH OF VECTOR AS DIVISOR IN BUF.
002253: 00,3117           52131                           DXCH     BUF
002254: 00,3120           03150                           TC       UNITDV
002255:
002256: 00,3121           52125                           DXCH     VBUF       +2                         #  DO Y AND Z IN USUAL FASHION SO WE CAN
002257: 00,3122           52155                           DXCH     MPAC                                  #  EXIT THROUGH VROTATEX.
002258: 00,3123           52160                           DXCH     MPAC       +3
002259: 00,3124           03150                           TC       UNITDV
002260:
002261: 00,3125           52127                           DXCH     VBUF       +4
002262: 00,3126           52155                           DXCH     MPAC
002263: 00,3127           52162                           DXCH     MPAC       +5
002264: 00,3130           03150                           TC       UNITDV
002265: 00,3131           17354                           TCF      VROTATEX                              #  AND EXIT.
002266:


002268:                                                                                                  #           IF THE LENGTH OF THE ARGUMENT VECTOR WAS LESS THAN 2(-28), EACH COMPONENT MUST BE SHIFTED LEFT AT LEAST
002269:                                                                                                  #  14 PLACES BEFORE THE DIVIDE. NOTE THAT IN THIS CASE, THE MAJOR PART OF EACH COMPONENT IS ZERO.
002270:
002271: 00,3132           54135        SMALL              TS       MPTEMP                                #  NEGATIVE OF PRE-DIVIDE SHIFT COUNT.
002272:
002273: 00,3133           34772                           CAF      ZERO                                  #  SHIFT EACH COMPONENT LEFT 14.
002274: 00,3134           56123                           XCH      VBUF       +1
002275: 00,3135           56122                           XCH      VBUF
002276: 00,3136           56125                           XCH      VBUF       +3
002277: 00,3137           56124                           XCH      VBUF       +2
002278: 00,3140           56127                           XCH      VBUF       +5
002279: 00,3141           56126                           XCH      VBUF       +4
002280:
002281: 00,3142           40135                           CS       MPTEMP
002282: 00,3143           50000                           INDEX    A
002283: 00,3144           34753                           CAF      BIT14
002284: 00,3145           00006                           EXTEND
002285: 00,3146           70154                           MP       MPAC
002286: 00,3147           13061                           TCF      SMALL2
002287:
002288: 00,3150     4776               THIRTEEN           =        OCT15
002289: 00,3150     4321               FOURTEEN           =        OCT16
002290: 00,3150     4321               OCT16              =        R1D1
002291:


002293:                                                                                                  #  THE FOLLOWING ROUTINE SETS UP THE CALL TO THE DIVIDE ROUTINES.
002294:
002295: 00,3150           10154        UNITDV             CCS      MPAC                                  #  FORCE MPAC POSITIVE IF POSSIBLE, SETTING
002296: 00,3151           13167                           TCF      UMPAC+                                #  DVSIGN ACCORDING TO THE SIGN OF MPAC
002297: 00,3152           13154                           TCF      +2                                    #  SINCE THE DIVISOR IS ALWAYS POSITIVE
002298: 00,3153           13161                           TCF      UMPAC-                                #  HERE.
002299:
002300: 00,3154           10155                           CCS      MPAC       +1
002301: 00,3155           13167                           TCF      UMPAC+
002302: 00,3156           00002                           TC       Q                                     #  EXIT IMMEDIATELY ON ZERO.
002303: 00,3157           13161                           TCF      UMPAC-
002304: 00,3160           00002                           TC       Q
002305:
002306: 00,3161           44772        UMPAC-             CS       ZERO                                  #  IF NEGATIVE, SET -0 IN DVSIGN FOR FINAL
002307: 00,3162           54136                           TS       DVSIGN                                #  COMPLEMENT.
002308: 00,3163           00006                           EXTEND
002309: 00,3164           40155                           DCS      MPAC                                  #  PICK UP ABSOLUTE VALUE OF ARG AND JUMP.
002310: 00,3165           50135                           INDEX    MPTEMP
002311: 00,3166           12563                           TCF      MAXTEST    -1
002312:
002313: 00,3167           54136        UMPAC+             TS       DVSIGN                                #  SET DVSIGN FOR POSITIVE QUOTIENT.
002314: 00,3170           52155                           DXCH     MPAC
002315: 00,3171           50135                           INDEX    MPTEMP
002316: 00,3172           12563                           TCF      MAXTEST    -1
002317:


002319:                                                                                                  #  MISCELLANEOUS UNARY OPERATIONS.
002320:
002321: 00,3173           03277        DSQ                TC       DSQSUB                                #  SQUARE THE DP CONTENTS OF MPAC.
002322: 00,3174           16030                           TCF      DANZIG
002323:
002324: 00,3175           10163        ABVALABS           CCS      MODE                                  #  ABVAL OR ABS INSTRUCTION.
002325: 00,3176           13225                           TCF      ABS                                   #  DO ABS ON SCALAR.
002326: 00,3177           13225                           TCF      ABS
002327:
002328: 00,3200           03316        ABVAL              TC       VSQSUB                                #  DOT MPAC WITH ITSELF.
002329: 00,3201           22163                           LXCH     MODE                                  #  MODE IS NOW DP (L ZERO AFTER DAS).
002330:
002331: 00,3202           00006                           EXTEND                                         #  STORE SQUARE OF LENGTH IN WORK AREA.
002332: 00,3203           30155                           DCA      MPAC
002333: 00,3204           50120                           INDEX    FIXLOC
002334: 00,3205           52043                           DXCH     LVSQUARE
002335:


002337:                                                                                                  #  PROGRAM DESCRIPTION - SUBROUTINE SQRT
002338:                                                                                                  #
002339:                                                                                                  #  FUNCTIONAL DESCRIPTION - DOUBLE PRECISION SQUARE ROOT ROUTINE
002340:                                                                                                  #
002341:                                                                                                  #        THIS PROGRAM TAKES THE SQUARE ROOT OF THE 27 OR 28 MOST SIGNIFICANT BITS IN THE TRIPLE PRECISION SET OF
002342:                                                                                                  #        NUMBERS - MPAC, MPAC+1, AND MPAC+2.  THE ROOT IS RETURNED DOUBLE PRECISION IN MPAC AND MPAC+1.
002343:                                                                                                  #
002344:                                                                                                  #  WARNING - THIS SUBROUTINE USES A TRIPLE PRECISION INPUT. THE PROGRAMMER MUST ASSURE THE CONTENTS OF MPAC+2
002345:                                                                                                  #        ESPECIALLY IF THE CONTENTS OF MPAC IS SMALL OR ZERO.  FOR DETAILS SEE STG MEMO NO.949.
002346:                                                                                                  #
002347:                                                                                                  #  CALLING SEQUENCE - IN INTERPRETIVE MODE I.E., FOLLOWING TC  INTPRET, SQRT   NO ADDRESS IS ALLOWED
002348:
002349:                                                                                                  #  INPUT SCALING  THE BINARY POINT IS ASSUMED TO THE RIGHT OF BIT 15. THE ANSWER IS RETURNED WITH THE SAME SCALING
002350:
002351:                                                                                                  #  SUBROUTINES - GENSCR, MPACSHR, SQRTSUB, ABORT
002352:
002353:                                                                                                  #  ABORT EXIT MODE - ABORTS ON NEGATIVE INPUT -1.2X10E-4 (77775  OCTAL) OR LESS.
002354:                                                                                                  #        DISPLAYS ERROR CODE 1302
002355:                                                                                                  #                TC      ABORT
002356:                                                                                                  #                OCT     1302
002357:
002358:                                                                                                  #  DEBRIS - LOCATIONS BUF, MPTEMP, ADDRWD ARE USED
002359:
002360: 00,3206           03342        SQRT               TC       SQRTSUB                               #  TAKE THE SQUARE ROOT OF MPAC.
002361: 00,3207           10135                           CCS      MPTEMP                                #  RETURNED NORMALIZED SQUARE ROOT. SEE IF
002362: 00,3210           13212                           TCF      +2                                    #  ANY UN-NORMALIZATION REQUIRED AND EXIT
002363: 00,3211           16030                           TCF      DANZIG                                #  IF NOT.
002364:
002365: 00,3212           63726                           AD       NEG12                                 #  A RIGHT SHIFT OF MORE THAN 13 COULD BE
002366: 00,3213           00006                           EXTEND                                         #  REQUIRED IF INPUT WAS ZERO IN MPAC,+1.
002367: 00,3214           63220                           BZMF     SQRTSHFT                              #  GOES HERE IN MOST CASES.
002368: 00,3215           22007                           ZL                                             #  IF A LONG SHIFT IS REQUIRED, GO TO
002369: 00,3216           22116                           LXCH     ADDRWD                                #  GENERAL RIGHT SHIFT ROUTINES.
002370: 00,3217           12303                           TCF      GENSCR     +4                         #  ADDRWD WAS ZERO TO PREVENT ROUND.
002371:
002372: 00,3220           50135        SQRTSHFT           INDEX    MPTEMP                                #  SELECT SHIFTING BIT AND EXIT THROUGH
002373: 00,3221           34752                           CAF      BIT15                                 #  SHIFT ROUTINES.
002374: 00,3222           54135                           TS       MPTEMP
002375: 00,3223           34772                           CAF      ZERO                                  #  TO ZERO MPAC +2 IN THE PROCESS.
002376: 00,3224           12036                           TCF      MPACSHR    +3
002377:
002378: 00,3225           06672        ABS                TC       BRANCH                                #  TEST SIGN OF MPAC AND COMPLEMENT IF
002379: 00,3226           16030                           TCF      DANZIG
002380: 00,3227           16030                           TCF      DANZIG
002381: 00,3230           17624                           TCF      COMP
002382:


002384: 00,3231           44766        VDEF               CS       FOUR                                  #  VECTOR DEFINE - ESSENTIALLY TREATS
002385: 00,3232           26166                           ADS      PUSHLOC                               #  SCALAR IN MPAC AS X COMPONENT, PUSHES UP
002386: 00,3233           00006                           EXTEND                                         #  FOR Y AND THEN AGAIN FOR Z.
002387: 00,3234           50000                           INDEX    A
002388: 00,3235           30003                           DCA      2
002389: 00,3236           52160                           DXCH     MPAC       +3
002390: 00,3237           00006                           EXTEND
002391: 00,3240           50166                           INDEX    PUSHLOC
002392: 00,3241           30001                           DCA      0
002393: 00,3242           52162                           DXCH     MPAC       +5
002394: 00,3243           16470                           TCF      VMODE                                 #  MODE IS NON VECTOR.
002395:
002396: 00,3244           03316        VSQ                TC       VSQSUB                                #  DOT MPAC WITH ITSELF.
002397: 00,3245           17266                           TCF      DMODE                                 #  MODE IS NOW DP.
002398:
002399: 00,3246           00006        PUSH               EXTEND                                         #  PUSH DOWN MPAC LEAVING IT LOADED.
002400: 00,3247           30155                           DCA      MPAC
002401: 00,3250           50166                           INDEX    PUSHLOC                               #  PUSH DOWN FIRST TWO REGISTERS IN EACH
002402: 00,3251           52001                           DXCH     0
002403:
002404: 00,3252           50163                           INDEX    MODE                                  #  INCREMENT PUSHDOWN POINTER.
002405: 00,3253           36213                           CAF      NO.WDS
002406: 00,3254           26166                           ADS      PUSHLOC
002407:
002408: 00,3255           10163                           CCS      MODE
002409: 00,3256           13271                           TCF      TPUSH                                 #  PUSH DOWN MPAC +2.
002410: 00,3257           16030                           TCF      DANZIG                                #  DONE FOR DP.
002411:
002412: 00,3260           00006                           EXTEND                                         #  ON VECTOR, PUSH DOWN Y AND Z COMPONENTS.
002413: 00,3261           30160                           DCA      MPAC       +3
002414: 00,3262           50166                           INDEX    PUSHLOC
002415: 00,3263           51775                           DXCH     0          -4
002416: 00,3264           00006                           EXTEND
002417: 00,3265           30162                           DCA      MPAC       +5
002418: 00,3266           50166                           INDEX    PUSHLOC
002419: 00,3267           51777                           DXCH     0          -2
002420: 00,3270           16030                           TCF      DANZIG
002421:
002422: 00,3271           30156        TPUSH              CA       MPAC       +2
002423: 00,3272           16523                           TCF      ENDTPUSH   +2
002424:
002425: 00,3273           50120        RVQ                INDEX    FIXLOC                                #  RVQ - RETURN IVA QPRET.
002426: 00,3274           30052                           CA       QPRET
002427: 00,3275           54117                           TS       POLISH
002428: 00,3276           16621                           TCF      GOTO       +4                         #  (ASSUME QPRET POINTS TO FIXED ONLY.)
002429:


002431:                                                                                                  #           THE FOLLOWING SUBROUTINES ARE USED IN SQUARING MPAC, IN BOTH THE SCALAR AND VECTOR SENSE. THEY ARE
002432:                                                                                                  #  SPECIAL CASES OF DMPSUB AND DOTSUB, PUT IN TO SAVE SOME TIME.
002433:
002434: 00,3277           30155        DSQSUB             CA       MPAC       +1                         #  SQUARES THE SCALAR CONTENTS OF MPAC.
002435: 00,3300           00006                           EXTEND
002436: 00,3301           70000                           SQUARE
002437: 00,3302           54156                           TS       MPAC       +2
002438: 00,3303           34772                           CAF      ZERO                                  #  FORM 2(CROSS TERM).
002439: 00,3304           56155                           XCH      MPAC       +1
002440: 00,3305           00006                           EXTEND
002441: 00,3306           70154                           MP       MPAC
002442: 00,3307           20001                           DDOUBL                                         #  AND MAYBE OVERFLOW.
002443: 00,3310           20156                           DAS      MPAC       +1                         #  AND SET A TO NET OVERFLOW.
002444: 00,3311           56154                           XCH      MPAC
002445: 00,3312           00006                           EXTEND
002446: 00,3313           70000                           SQUARE
002447: 00,3314           20155                           DAS      MPAC
002448: 00,3315           00002                           TC       Q
002449:
002450: 00,3316           00006        VSQSUB             EXTEND                                         #  DOTS THE VECTOR IN MPAC WITH ITSELF.
002451: 00,3317           22137                           QXCH     DOTRET
002452: 00,3320           03277                           TC       DSQSUB                                #  SQUARE THE X COMPONENT.
002453: 00,3321           52160                           DXCH     MPAC       +3
002454: 00,3322           52155                           DXCH     MPAC
002455: 00,3323           52131                           DXCH     BUF                                   #  SO WE CAN END IN DOTSUB.
002456: 00,3324           30156                           CA       MPAC       +2
002457: 00,3325           54132                           TS       BUF        +2
002458:
002459: 00,3326           03277                           TC       DSQSUB                                #  SQUARE Y COMPONENT.
002460: 00,3327           52156                           DXCH     MPAC       +1
002461: 00,3330           20132                           DAS      BUF        +1
002462: 00,3331           60154                           AD       MPAC
002463: 00,3332           60130                           AD       BUF
002464: 00,3333           54130                           TS       BUF
002465: 00,3334           13336                           TCF      +2
002466: 00,3335           54121                           TS       OVFIND                                #  IF OVERFLOW.
002467:
002468: 00,3336           52162                           DXCH     MPAC       +5
002469: 00,3337           52155                           DXCH     MPAC
002470: 00,3340           03277                           TC       DSQSUB                                #  SQUARE Z COMPONENT.
002471: 00,3341           17154                           TCF      ENDDOT                                #  END AS IN DOTSUB.
002472:


002474:                                                                                                  #  DOUBLE PRECISION SQUARE ROOT ROUTINE. TAKE THE SQUARE ROOT OF THE TRIPLE PRECISION (MPAC +2 USED ONLY
002475:                                                                                                  #  IN NORMALIZATION) CONTENTS OF MPAC AND LEAVE THE NORMALIZED RESULT IN MPAC (C(MPAC) GREATER THAN OR EQUAL TO
002476:                                                                                                  #  .5). THE RIGHT SHIFT COUNT (TO UNNORMALIZE) IS LEFT IN MPTEMP.
002477:
002478: 00,3342           34772        SQRTSUB            CAF      ZERO                                  #  START BY ZEROING RIGHT SHIFT COUNT.
002479: 00,3343           54135                           TS       MPTEMP
002480:
002481: 00,3344           10154                           CCS      MPAC                                  #  CHECK FOR POSITIVE ARGUMENT, SHIFTING
002482: 00,3345           13403                           TCF      SMPAC+                                #  FIRST SIGNIFICANT MPAC REGISTER INTO
002483: 00,3346           13350                           TCF      +2                                    #  MPAC ITSELF.
002484: 00,3347           13372                           TCF      SQRTNEG                               #  SEE IF MAG OF ARGUMENT LESS THAN 10(-4).
002485:
002486: 00,3350           56156                           XCH      MPAC       +2                         #  MPAC IS ZERO - SHIFT LEFT 14.
002487: 00,3351           56155                           XCH      MPAC       +1
002488: 00,3352           54154                           TS       MPAC
002489: 00,3353           34774                           CAF      SEVEN                                 #  AUGMENT RIGHT SHIFT COUNTER.
002490: 00,3354           54135                           TS       MPTEMP
002491:
002492: 00,3355           10154                           CCS      MPAC                                  #  SEE IF MPAC NOW PNZ.
002493: 00,3356           13403                           TCF      SMPAC+
002494: 00,3357           13361                           TCF      +2
002495: 00,3360           13375                           TCF      ZEROANS                               #  NEGATIVE BUT LESS THAN 10(-4) IN MAG.
002496:
002497: 00,3361           56155                           XCH      MPAC       +1                         #  ZERO - SHIFT LEFT 14 AGAIN.
002498: 00,3362           54154                           TS       MPAC
002499: 00,3363           34774                           CAF      SEVEN                                 #  AUGMENT RIGHT SHIFT COUNTER.
002500: 00,3364           26135                           ADS      MPTEMP
002501:
002502: 00,3365           10154                           CCS      MPAC
002503: 00,3366           13403                           TCF      SMPAC+
002504: 00,3367           00002                           TC       Q                                     #  SQRT(0) = 0.
002505: 00,3370           13375                           TCF      ZEROANS
002506: 00,3371           13450                           TCF      FIXROOT                               #  DO NOT LEAVE SQRTSUB WITH -0 IN MPAC.
002507:
002508: 00,3372           10000        SQRTNEG            CCS      A                                     #  ARGUMENT IS NEGATIVE, BUT SEE IF SIGN-
002509: 00,3373           13401                           TCF      SQRTABRT                              #  CORRECTED ARGUMENT IS LESS THAN 10(-4)
002510:
002511: 00,3374           10155                           CCS      MPAC       +1                         #  IN MAGNITUDE. IF SO, CALL ANSWER ZERO.
002512: 00,3375           34772        ZEROANS            CAF      ZERO                                  #  FORCE ANSWER TO ZERO HERE.
002513: 00,3376           13450                           TCF      FIXROOT
002514: 00,3377           13401                           TCF      SQRTABRT
002515: 00,3400           13450                           TCF      FIXROOT
002516:
002517: 00,3401           05726        SQRTABRT           TC       POODOO
002518: 00,3402           21302                           OCT      21302                                 #  SQRT CALLED WITH NEGATIVE ARGUMENT
002519:
002520: 00,3403           62443        SMPAC+             AD       -1/2+2                                #  SEE IF ARGUMENT GREATER THAN OR EQUAL TO
002521: 00,3404           00006                           EXTEND                                         #  .5.


002523: 00,3405           63453                           BZMF     SRTEST                                #  IF SO, SEE IF LESS THAN .25.
002524:
002525: 00,3406           52155                           DXCH     MPAC                                  #  WE WILL TAKE THE SQUARE ROOT OF MPAC/2.
002526: 00,3407           22021                           LXCH     SR                                    #  SHIFT RIGHT 1 AND GO TO THE SQRT ROUTINE
002527: 00,3410           00006                           EXTEND
002528: 00,3411           74753                           MP       HALF
002529: 00,3412           52155                           DXCH     MPAC
002530: 00,3413           56021                           XCH      SR
002531: 00,3414           26155                           ADS      MPAC       +1                         #  GUARANTEED NO OVERFLOW.
002532:
002533: 00,3415           32314        ARGHI              CAF      SLOPEHI                               #  ARGUMENT BETWEEN .25 AND .5. GET A
002534: 00,3416           00006                           EXTEND                                         #  LINEAR APPROXIMATION FOR THIS RANGE.
002535: 00,3417           70154                           MP       MPAC
002536: 00,3420           62565                           AD       BIASHI                                #  X0/2 = (MPAC/2)(SLOPEHI) + BIASHI/2.
002537:
002538: 00,3421           54130                 +4        TS       BUF                                   #  X0/2 (ARGLO ENTERS HERE).
002539: 00,3422           30154                           CA       MPAC                                  #  SINGLE-PRECISION THROUGHOUT.
002540: 00,3423           00006                           EXTEND
002541: 00,3424           74753                           MP       HALF                                  #  .5(MPAC/2)
002542: 00,3425           00006                           EXTEND
002543: 00,3426           10130                           DV       BUF                                   #  .5(MPAC/2)/(X0/2)
002544: 00,3427           26130                           ADS      BUF                                   #  X1 = X0/2 + .5(MPAC/2)/(X0/2).
002545:
002546: 00,3430           00006                           EXTEND
002547: 00,3431           74753                           MP       HALF                                  #  FORM UP X1/2.
002548: 00,3432           52155                           DXCH     MPAC                                  #  SAVE AND BRING OUT ARGUMENT.
002549: 00,3433           00006                           EXTEND                                         #  TAKE DP QUOTIENT WITH X1.
002550: 00,3434           10130                           DV       BUF
002551: 00,3435           54131                           TS       BUF        +1                         #  SAVE MAJOR PART OF QUOTIENT.
002552: 00,3436           34772                           CAF      ZERO                                  #  FORM MINOR PART OF QUOTIENT USING
002553: 00,3437           56001                           XCH      L                                     #  (REMAINDER,0).
002554: 00,3440           00006                           EXTEND
002555: 00,3441           10130                           DV       BUF
002556: 00,3442           54001                           TS       L                                     #  IN PREPARATION FOR DAS.
002557: 00,3443           30131                           CA       BUF        +1
002558: 00,3444           20155                           DAS      MPAC                                  #  X2 = X1/2 + (MPAC/2)X1
002559:
002560: 00,3445           00006                           EXTEND                                         #  OVERFLOWS IF ARG. NEAR POSMAX.
002561: 00,3446           13452                           BZF      TCQBNK00
002562: 00,3447           34750                           CAF      POSMAX
002563: 00,3450           54154        FIXROOT            TS       MPAC
002564: 00,3451           54155                           TS       MPAC       +1
002565: 00,3452           00002        TCQBNK00           TC       Q                                     #  RETURN TO CALLER TO UNNORMALIZE, ETC.
002566:


002568: 00,3453           64754        SRTEST             AD       QUARTER                               #  ARGUMENT WAS LESS THAN .5, SEE IF LESS
002569: 00,3454           00006                           EXTEND                                         #  THAN .25.
002570: 00,3455           63477                           BZMF     SQRTNORM                              #  IF SO, BEGIN NORMALIZATION.
002571:
002572: 00,3456           52155                           DXCH     MPAC                                  #  IF BETWEEN .5 AND .25, SHIFT RIGHT 1 AND
002573: 00,3457           22021                           LXCH     SR                                    #  START AT ARGLO.
002574: 00,3460           00006                           EXTEND
002575: 00,3461           74753                           MP       HALF
002576: 00,3462           52155                           DXCH     MPAC
002577: 00,3463           56021                           XCH      SR
002578: 00,3464           26155                           ADS      MPAC       +1                         #  NO OVERFLOW.
002579:
002580: 00,3465           33006        ARGLO              CAF      SLOPELO                               #  (NORMALIZED) ARGUMENT BETWEEN .125 AND
002581: 00,3466           00006                           EXTEND                                         #  .25
002582: 00,3467           70154                           MP       MPAC
002583: 00,3470           62270                           AD       BIASLO
002584: 00,3471           13421                           TCF      ARGHI      +4                         #  BEGIN SQUARE ROOT.
002585:
002586: 00,3472           00006        SQRTNM2            EXTEND                                         #  SHIFT LEFT 2 AND INCREMENT RIGHT SHIFT
002587: 00,3473           30156                           DCA      MPAC       +1                         #  COUNT (FOR TERMINAL UNNORMALIZATION).
002588: 00,3474           20156                           DAS      MPAC       +1
002589: 00,3475           60154                           AD       MPAC
002590: 00,3476           26154                           ADS      MPAC                                  #  (NO OVERFLOW).
002591:
002592: 00,3477           24135        SQRTNORM           INCR     MPTEMP                                #  FIRST TIME THROUGH, JUST SHIFT LEFT 1
002593: 00,3500           00006                           EXTEND                                         #  (PUTS IN EFFECTIVE RIGHT SHIFT SINCE
002594: 00,3501           30156                           DCA      MPAC       +1                         #  WE WANT MPAC/2).
002595: 00,3502           20156                           DAS      MPAC       +1
002596: 00,3503           60154                           AD       MPAC
002597: 00,3504           26154                           ADS      MPAC                                  #  (AGAIN NO OVERFLOW).
002598: 00,3505           60000                           DOUBLE
002599: 00,3506           54022                           TS       CYL
002600:
002601: 00,3507           10022        NORMTEST           CCS      CYL                                   #  SEE IF ARGUMENT NOW NORMALIZED AT
002602: 00,3510           10022                           CCS      CYL                                   #  GREATER THAN .125.
002603: 00,3511           13472                           TCF      SQRTNM2                               #  NO - SHIFT LEFT 2 MORE AND TRY AGAIN.
002604: 00,3512           13415                           TCF      ARGHI                                 #  YES - NOW BETWEEN .5 AND .25.
002605: 00,3513           13465                           TCF      ARGLO                                 #  ARGUMENT NOW BETWEEN .25 AND .125.
002606:


002608:                                                                                                  #  TRIGONOMETRIC FUNCTION PACKAGE.
002609:
002610:                                                                                                  #        THE FOLLOWING TRIGONOMETRIC FUNCTIONS ARE AVAILABLE AS INTERPRETIVE OPERATIONS:
002611:
002612:                                                                                                  #        1.      SIN             COMPUTES (1/2)SINE(2 PI MPAC).
002613:                                                                                                  #        2.      COS             COMPUTES (1/2)COSINE(2 PI MPAC).
002614:
002615:                                                                                                  #        3.      ASIN            COMPUTES (1/2PI)ARCSINE(2 MPAC).
002616:                                                                                                  #        4.      ACOS            COMPUTES (1/2PI)ARCCOSINE(2 MPAC).
002617:
002618:                                                                                                  #  SIN-ASIN AND COS-ACOS ARE MUTUALLY INVERSE, IE SIN(ASIN(X)) = X.
002619:
002620: 00,3514           06672        COSINE             TC       BRANCH                                #  FINDS COSINE USING THE IDENTITY
002621: 00,3515           13520                           TCF      +3                                    #  COS(X) = SIN(PI/2 - ABS(X)).
002622: 00,3516           13523                           TCF      PRESINE
002623: 00,3517           13523                           TCF      PRESINE
002624:
002625: 00,3520           00006                 +3        EXTEND
002626: 00,3521           40155                           DCS      MPAC
002627: 00,3522           52155                           DXCH     MPAC
002628:
002629: 00,3523           34754        PRESINE            CAF      QUARTER                               #  PI/2 SCALED.
002630: 00,3524           26154                           ADS      MPAC
002631:
002632: 00,3525           52155        SINE               DXCH     MPAC                                  #  DOUBLE ARGUMENT.
002633: 00,3526           20001                 +1        DDOUBL
002634: 00,3527           54000                           OVSK                                           #  SEE IF OVERFLOW PRESENT.
002635: 00,3530           13533                           TCF      +3                                    #  IF NOT, ARGUMENT OK AS IS.
002636:
002637: 00,3531           00006                           EXTEND                                         #  IF SO, WE LOST (OR GAINED) PI, SO
002638: 00,3532           40001                           DCOM                                           #  COMPLEMENT MPAC USING THE IDENTITY
002639:                                                                                                  #  SIN(X-(+)PI) = SIN(-X).
002640: 00,3533           52155                 +3        DXCH     MPAC
002641: 00,3534           30154                           CA       MPAC                                  #  SEE IF ARGUMENT GREATER THAN .5 IN
002642: 00,3535           60000                           DOUBLE                                         #  MAGNITUDE. IF SO, REDUCE IT TO LESS THAN
002643: 00,3536           54001                           TS       L                                     #  .5 (+-PI/2 SCALED) AS FOLLOWS:
002644: 00,3537           13550                           TCF      SN1
002645:
002646: 00,3540           50000                           INDEX    A                                     #  IF POSITIVE, FORM PI - X, IF NEGATIVE
002647: 00,3541           34752                           CAF      NEG1/2     +1                         #  USE -PI -X.
002648: 00,3542           60000                           DOUBLE
002649: 00,3543           00006                           EXTEND
002650: 00,3544           60154                           SU       MPAC                                  #  GUARANTEED NO OVERFLOW.
002651: 00,3545           54154                           TS       MPAC
002652: 00,3546           40155                           CS       MPAC       +1
002653: 00,3547           54155                           TS       MPAC       +1
002654:


002656: 00,3550           00006        SN1                EXTEND                                         #  SET UP TO EVALUATE HASTINGS POLYNOMIAL
002657: 00,3551           30155                           DCA      MPAC
002658: 00,3552           52134                           DXCH     BUF2
002659: 00,3553           03277                           TC       DSQSUB                                #  SQUARE MPAC.
002660:
002661: 00,3554           07171                           TC       POLY                                  #  EVALUATE FOURTH ORDER POLYNOMIAL.
002662: 00,3555           00003                           DEC      3          B-14
002663: 00,3556           14441 37325                     2DEC     +.3926990796
002664: 00,3560           53250 60764                     2DEC     -.6459637111
002665: 00,3562           12146 21276                     2DEC     +.318758717
002666: 00,3564           75466 71471                     2DEC     -.074780249
002667: 00,3566           00236 32757                     2DEC     +.009694988
002668:
002669: 00,3570           32467                           CAF      LBUF2                                 #  MULTIPLY BY ARGUMENT AND SHIFT LEFT 2.
002670: 00,3571           07055                           TC       DMPSUB     -1
002671:
002672: 00,3572           00006                           EXTEND
002673: 00,3573           30156                           DCA      MPAC       +1
002674: 00,3574           20156                           DAS      MPAC       +1
002675: 00,3575           60154                           AD       MPAC
002676: 00,3576           26154                           ADS      MPAC                                  #  NEITHER SHIFT OVERFLOWS.
002677: 00,3577           00006                           EXTEND
002678: 00,3600           30156                           DCA      MPAC       +1
002679: 00,3601           20156                           DAS      MPAC       +1
002680: 00,3602           60154                           AD       MPAC
002681: 00,3603           26154                           ADS      MPAC
002682: 00,3604           16030                           TCF      DANZIG
002683:


002685:                                                                                                  #  ARCSIN/ARCCOS ROUTINE.
002686:
002687: 00,3605           33626        ARCSIN             CAF      LASINEX                               #  COMPUTE ARCSIN BY USING THE IDENTITY
002688: 00,3606           13610                           TCF      +2                                    #  ARCSIN(X) = PI/2 - ARCCOS(X).
002689:
002690: 00,3607           33710        ARCCOS             CAF      LDANZIG                               #  (EXITS IMMEDIATELY).
002691: 00,3610           54136                           TS       ESCAPE
002692: 00,3611           06672                           TC       BRANCH                                #  TEST SIGN OF INPUT.
002693: 00,3612           13622                           TCF      ACOSST                                #  START IMMEDIATELY IF POSITIVE.
002694: 00,3613           13724                           TCF      ACOSZERO                              #  ARCCOS(0) = PI/2 = .25.
002695: 00,3614           00006                           EXTEND                                         #  IF NEGATIVE, USE THE IDENTITY
002696: 00,3615           40155                           DCS      MPAC                                  #  ARCCOS(X) = PI - ARCCOS(-X), FORCING
002697: 00,3616           52155                           DXCH     MPAC                                  #  ARGUMENT POSITIVE.
002698: 00,3617           33727                           CAF      TCSUBTR                               #  SET EXIT TO DO ABOVE BEFORE
002699: 00,3620           56136                           XCH      ESCAPE                                #  ARCSIN/ARCCOS CONSIDERATIONS.
002700: 00,3621           54137                           TS       ESCAPE2
002701:
002702: 00,3622           44753        ACOSST             CS       HALF                                  #  TEST MAGNITUDE OF INPUT.
002703: 00,3623           60154                           AD       MPAC
002704: 00,3624           10000                           CCS      A
002705: 00,3625           13716                           TCF      ACOSOVF                               #  THIS IS PROBABLY AN OVERFLOW CASE.
002706:
002707: 00,3626           13704        LASINEX            TCF      ASINEX
002708:
002709: 00,3627           13637                           TCF      ACOSST2                               #  NO OVERFLOW - PROCEED.
002710:
002711: 00,3630           10155                           CCS      MPAC       +1                         #  IF MAJOR PART IS .5, CALL ANSWER 0
002712: 00,3631           34772                           CAF      ZERO                                  #  UNLESS MINOR PART NEGATIVE.
002713: 00,3632           13634                           TCF      ACOS=0
002714:
002715: 00,3633           13637                           TCF      ACOSST2
002716:
002717: 00,3634           54155        ACOS=0             TS       MPAC       +1
002718: 00,3635           54154                 +1        TS       MPAC
002719: 00,3636           00136                           TC       ESCAPE
002720:
002721: 00,3637           00006        ACOSST2            EXTEND                                         #  NOW THAT ARGUMENT IS IN PROPER RANGE,
002722: 00,3640           40155                           DCS      MPAC                                  #  BEGIN COMPUTATION. USE HASTINGS
002723: 00,3641           64753                           AD       HALF                                  #  APPROXIMATION ARCCOS(X) = SQRT(1-X)P(X)
002724: 00,3642           52155                           DXCH     MPAC                                  #  IN A SCALED VERSION WHERE P(X) IS A
002725: 00,3643           52134                           DXCH     BUF2                                  #  SEVENTH ORDER POLYNOMIAL.
002726:
002727: 00,3644           03342                           TC       SQRTSUB                               #  RETURNS WITH NORMALIZED SQUARE ROOT.
002728:
002729: 00,3645           10135                           CCS      MPTEMP                                #  SEE IF UN-NORMALIZATION REQUIRED.
002730: 00,3646           13711                           TCF      ACOSSHR                               #  IF SO.
002731:


002733: 00,3647           52155        ACOS3              DXCH     MPAC                                  #  SET UP FOR POLYNOMIAL EVALUATION.
002734: 00,3650           52134                           DXCH     BUF2
002735: 00,3651           52155                           DXCH     MPAC
002736:
002737: 00,3652           07171                           TC       POLY
002738: 00,3653           00006                           DEC      6          B-14
002739: 00,3654           13240 23630                     2DEC     +.353553385                            #  COEFFICIENTS ARE C 2(+I)/PISQRT(2) WHERE
002740: 00,3656           74721 47775                     2DEC*    -.0483017006 B+1*                       #             I
002741: 00,3660           02440 20237                     2DEC*    +.0200273085 B+2*                       #  WHERE C STANDS FOR ORIGINAL COEFFS.
002742: 00,3662           75067 70742                     2DEC*    -.0112931863 B+3*
002743: 00,3664           03436 26756                     2DEC*    +.00695311612 B+4*
002744: 00,3666           74037 57640                     2DEC*    -.00384617957 B+5*
002745: 00,3670           03046 07143                     2DEC*    +.001501297736 B+6*
002746: 00,3672           76654 42244                     2DEC*    -.000284160334 B+7*
002747:
002748: 00,3674           32467                           CAF      LBUF2                                 #  DO FINAL MULTIPLY AND GO TO ANY
002749: 00,3675           07055                           TC       DMPSUB     -1                         #  EPILOGUE SEQUENCES.
002750: 00,3676           00136                           TC       ESCAPE
002751:
002752: 00,3677           00006        SUBTR              EXTEND                                         #  EPILOGUE FOR NEGATIVE INPUTS TO ARCCOS.
002753: 00,3700           40155                           DCS      MPAC
002754: 00,3701           64753                           AD       HALF                                  #  FORMS PI - ARCCOS(-X) = ARCCOS(X).
002755: 00,3702           52155                           DXCH     MPAC
002756: 00,3703           00137                           TC       ESCAPE2                               #  GO TO POSSIBLE ARCSIN EPILOGUE.
002757:
002758: 00,3704           00006        ASINEX             EXTEND
002759: 00,3705           40155                           DCS      MPAC                                  #  ARCSIN EPILOGUE - GET ARCSIN(X)
002760: 00,3706           64754                           AD       QUARTER                               #  = PI/2 - ARCCOS(X).
002761: 00,3707           52155                           DXCH     MPAC
002762: 00,3710           16030        LDANZIG            TCF      DANZIG
002763:


002765: 00,3711           50000        ACOSSHR            INDEX    A                                     #  THE SHIFT RIGHT IS LESS THAN 14 SINCE
002766: 00,3712           34753                           CAF      BIT14                                 #  THE INPUT WAS NON-ZERO DP.
002767: 00,3713           54135                           TS       MPTEMP
002768: 00,3714           02073                           TC       VSHRRND                               #  DP SHIFT RIGHT AND ROUND.
002769: 00,3715           13647                           TCF      ACOS3                                 #  PROCEED.
002770:
002771: 00,3716           00006        ACOSOVF            EXTEND                                         #  IF MAJOR PART WAS ONLY 1 MORE THAN .5,
002772: 00,3717           13634                           BZF      ACOS=0                                #  CALL ANSWER ZERO.
002773:
002774: 00,3720           05671        ACOSABRT           TC       ALARM                                 #  IF OVERFLOW, CALL ANSWER ZERO BUT
002775: 00,3721           01301                           OCT      1301                                  #  SOUND AN ALARM.
002776:
002777: 00,3722           34772                           CAF      ZERO
002778: 00,3723           13634                           TCF      ACOS=0
002779:
002780: 00,3724           34754        ACOSZERO           CAF      QUARTER                               #  ACOS(0) = PI/2.
002781: 00,3725           13635                           TCF      ACOS=0     +1                         #  SET MPAC AND EXIT VIA ESCAPE.
002782:
002783: 00,3726           77763        NEG12              DEC      -12        B-14
002784: 00,3727           13677        TCSUBTR            TCF      SUBTR
002785:


002787:                                                                                                  #  THE FOLLOWING INSTRUCTIONS ARE AVAILABLE FOR SETTING, MODIFYING, AND BRANCHING ON INDEX REGISTERS:
002788:
002789:                                                                                                  #         1.     AXT             ADDRESS TO INDEX TRUE.
002790:                                                                                                  #         1.     AXC             ADDRESS TO INDEX COMPLEMENTED.
002791:                                                                                                  #         3.     LXA             LOAD INDEX FROM ERASABLE.
002792:                                                                                                  #         4.     LXC             LOAD INDEX COMPLEMENTED FROM ERASABLE.
002793:                                                                                                  #         5.     SXA             STORE INDEX IN ERASABLE.
002794:                                                                                                  #         6.     XCHX            EXCHANGE INDEX REIGSTER WITH ERASABLE.
002795:
002796:                                                                                                  #         7.     INCR            INCREMENT INDEX REGISTER.
002797:                                                                                                  #         8.     XAD             ERASABLE ADD TO INDEX REGISTER.
002798:                                                                                                  #         9.     XSU             ERASABLE SUBTRACT FROM INDEX REGISTER.
002799:
002800:                                                                                                  #        10.     TIX             BRANCH ON INDEX REGISTER AND DECREMENT.
002801:
002802: 01,2000                                           SETLOC   INTERB1
002803: 01,2000                                           BANK
002804:
002805: 01,2341                                           COUNT*   $$/INTER
002806: 01,2341           02436        AXT                TC       TAGSUB                                #  SELECT APPROPRIATE INDEX REGISTER.
002807: 01,2342           30117                           CA       POLISH
002808: 01,2343           50130        XSTORE             INDEX    INDEXLOC                              #  CONTAINS C(FIXLOC) OR C(FIXLOC)+1.
002809: 01,2344           54046                           TS       X1
002810: 01,2345           16030                           TCF      DANZIG
002811:
002812: 01,2346           02436        AXC                TC       TAGSUB
002813: 01,2347           40117                           CS       POLISH
002814: 01,2350           02343                           TC       XSTORE
002815:
002816: 01,2351           02424        LXA                TC       15ADRERS                              #  LOAD INDEX REGISTER FROM ERASABLE.
002817: 01,2352           50117                           INDEX    POLISH
002818: 01,2353           30000                           CA       0
002819: 01,2354           12343                           TCF      XSTORE
002820:
002821: 01,2355           02424        LXC                TC       15ADRERS                              #  LOAD NDX REG FROM ERASABLE COMPLEMENTED.
002822: 01,2356           50117                           INDEX    POLISH
002823: 01,2357           40000                           CS       0
002824: 01,2360           12343                           TCF      XSTORE
002825:
002826: 01,2361           02424        SXA                TC       15ADRERS                              #  STORE INDEX REGISTER IN ERASABLE.
002827: 01,2362           50130                           INDEX    INDEXLOC
002828: 01,2363           30046                           CA       X1
002829: 01,2364           50117        MSTORE1            INDEX    POLISH
002830: 01,2365           54000                           TS       0
002831: 01,2366           16030                           TCF      DANZIG
002832:


002834: 01,2367           02424        XCHX               TC       15ADRERS                              #  EXCHANGE INDEX REGISTER WITH ERASABLE.
002835: 01,2370           50117                           INDEX    POLISH
002836: 01,2371           30000                           CA       0
002837: 01,2372           50130                           INDEX    INDEXLOC
002838: 01,2373           56046                           XCH      X1
002839: 01,2374           12364                           TCF      MSTORE1
002840:
002841: 01,2375           02424        XAD                TC       15ADRERS                              #  ADD ERASABLE TO INDEX REGISTER.
002842: 01,2376           50117                           INDEX    POLISH
002843: 01,2377           30000                           CA       0
002844: 01,2400           50130        XAD2               INDEX    INDEXLOC
002845: 01,2401           26046                           ADS      X1                                    #  IGNORING OVERFLOWS.
002846: 01,2402           16030                           TCF      DANZIG
002847:
002848: 01,2403           02436        INCR               TC       TAGSUB                                #  INCREMENT INDEX REGISTER.
002849: 01,2404           30117                           CA       POLISH
002850: 01,2405           12400                           TCF      XAD2
002851:
002852: 01,2406           02424        XSU                TC       15ADRERS                              #  SUBTRACT ERASABLE FROM INDEX REGISTER.
002853: 01,2407           50117                           INDEX    POLISH
002854: 01,2410           40000                           CS       0
002855: 01,2411           12400                           TCF      XAD2
002856:
002857: 01,2412           02436        TIX                TC       TAGSUB                                #  BRANCH AND DECREMENT ON INDEX.
002858: 01,2413           50130                           INDEX    INDEXLOC
002859: 01,2414           40050                           CS       S1
002860: 01,2415           50130                           INDEX    INDEXLOC
002861: 01,2416           60046                           AD       X1
002862: 01,2417           00006                           EXTEND                                         #  NO OPERATION IF DECREMENTED INDEX IS
002863: 01,2420           66030                           BZMF     DANZIG                                #  NEGATIVE OR ZERO.
002864:
002865: 01,2421           50130        DOTIXBR            INDEX    INDEXLOC
002866: 01,2422           56046                           XCH      X1                                    #  IGNORING OVERFLOWS.
002867:
002868: 01,2423           16615                           TCF      GOTO                                  #  DO THE BRANCH USING THE CADR IN POLISH.
002869:


002871:                                                                                                  #  SUBROUTINE TO CONVERT AN ERASABLE ADDRESS (11 BITS) TO AN EBANK SETTING AND SUBADDRESS.
002872:
002873: 01,2424           40117        15ADRERS           CS       POLISH
002874: 01,2425           65006                           AD       DEC45
002875: 01,2426           10000                           CCS      A                                     #  DOES THE ADDRESS POINT TO THE WORK AREA?
002876: 01,2427           30120                           CA       FIXLOC                                #  YES.  ADD FIXLOC.  EBANK OK AS IS.
002877: 01,2430           12435                           TCF      +5
002878:
002879: 01,2431           35024                           CA       OCT1400                               #  NO.  SET EBANK & MAKE UP SUBADDRESS.
002880: 01,2432           56117                           XCH      POLISH
002881: 01,2433           54003                           TS       EBANK
002882: 01,2434           74350                           MASK     LOW8
002883: 01,2435           26117                 +5        ADS      POLISH                                #  FALL INTO TAGSUB, AND RETURN VIA Q.
002884:
002885:                                                                                                  #  SUBROUTINE WHICH SETS THE ADDRESS OF THE SPECIFIED INDEX IN INDEXLOC. (ACTUALLY, THE ADDRESS -38D.)
002886:
002887: 01,2436           30120        TAGSUB             CA       FIXLOC
002888: 01,2437           54130                           TS       INDEXLOC
002889:
002890: 01,2440           10020                           CCS      CYR                                   #  BIT 15 SPECIFIES INDEX.
002891: 01,2441           24130                           INCR     INDEXLOC                              #  0 MEANS USE X2.
002892: 01,2442           00002                           TC       Q
002893: 01,2443           00002                           TC       Q                                     #  1 FOR X1.
002894:


002896:                                                                                                  #  MISCELLANEOUS OPERATION CODES WITH DIRECT ADDRESSES. INCLUDED HERE ARE:
002897:
002898:                                                                                                  #        1.      ITA             STORE QPRET (RETURN ADDRESS) IN ERASABLE.
002899:                                                                                                  #        2.      CALL            CALL A SUBROUTINE, LEAVING RETURN IN QPRET.
002900:                                                                                                  #        3.      RTB             RETURN TO BASIC LANGUAGE AT THE GIVEN ADDRESS.
002901:                                                                                                  #        4.      BHIZ            BRANCH IF THE HIGHORDER OF MPAC IS ZERO (SINGLE PRECISION).
002902:                                                                                                  #        5.      BOV             BRANCH ON OVERFLOW.
002903:                                                                                                  #        6.      GOTO            SIMPLE SEQUENCE CHANGE.
002904:
002905: 01,2444           10020        RTB/BHIZ           CCS      CYR
002906: 01,2445           30117        RTB                CA       POLISH
002907: 01,2446           04641                           TC       SWCALL     -1                         #  SO A "TC Q" FROM ROUTINE LEADS TO DANZIG
002908:
002909: 01,2447           10154        BHIZ               CCS      MPAC
002910: 01,2450           16030                           TCF      DANZIG
002911: 01,2451           16615                           TCF      GOTO
002912: 01,2452           16030                           TCF      DANZIG
002913: 01,2453           16615                           TCF      GOTO
002914:
002915: 01,2454           10121        BOV(B)             CCS      OVFIND                                #  BRANCH ON OVERFLOW TO BASIC OR INTERP.
002916: 01,2455           12457                           TCF      +2
002917: 01,2456           16030                           TCF      DANZIG
002918: 01,2457           54121                           TS       OVFIND
002919: 01,2460           10020                           CCS      CYR
002920: 01,2461           12445                           TCF      RTB                                   #  IF BASIC.
002921: 01,2462           00360        B5TOB8             OCT      360
002922: 01,2463           16615                           TCF      GOTO
002923:


002925: 01,2464           10020        BZE/GOTO           CCS      CYR                                   #  SEE WHICH OP-CODE IS DESIRED.
002926: 01,2465           06672                           TC       BRANCH                                #  DO BZE.
002927: 01,2466           16030                           TCF      DANZIG
002928: 01,2467           16615                           TCF      GOTO                                  #  DO GOTO.
002929: 01,2470           16030                           TCF      DANZIG
002930:
002931: 01,2471           10020        BPL/BMN            CCS      CYR
002932: 01,2472           12500                           TCF      BPL
002933: 01,2473           12000        5B10               DEC      5          B+10                       #  SHIFTS OP CODE IN SWITCH INSTRUCTION ADR
002934:
002935: 01,2474           06672                           TC       BRANCH                                #  DO BMN.
002936: 01,2475           16030                           TCF      DANZIG
002937: 01,2476           16030                           TCF      DANZIG
002938: 01,2477           16615                           TCF      GOTO                                  #  ONLY IF NNZ.
002939:
002940: 01,2500           06672        BPL                TC       BRANCH
002941: 01,2501           16615                           TCF      GOTO                                  #  IF POSITIVE OR ZERO.
002942: 01,2502           16615                           TCF      GOTO
002943: 01,2503           16030                           TCF      DANZIG
002944:
002945: 01,2504           10020        CALL/ITA           CCS      CYR
002946: 01,2505           16607                           TCF      CALL
002947:
002948: 01,2506           12507                           NOOP                                           #  CANNOT GET HERE
002949: 01,2507           02424                           TC       15ADRERS                              #  STORE QPRET. (TAGSUB AFTER 15ADRERS IS
002950: 01,2510           50120                           INDEX    FIXLOC                                #  SLOW IN THIS CASE, BUT SAVES STORAGE.)
002951: 01,2511           30052                           CA       QPRET
002952: 01,2512           12364                           TCF      MSTORE1
002953:


002955:                                                                                                  #  THE FOLLOWING OPERATIONS ARE AVAILABLE FOR ALTERING AND TESTING INTERPRETIVE SWITCHES:
002956:                                                                                                  #
002957:                                                                                                  #        00      BONSET          SET A SWITCH AND DO A GOTO IF IT WAS ON.
002958:                                                                                                  #        01      SETGO           SET A SWITCH AND DO A GOTO.
002959:                                                                                                  #        02      BOFSET          SET A SWITCH AND DO A GOTO IF IT WAS OFF
002960:                                                                                                  #        03      SET             SET A SWITCH.
002961:
002962:                                                                                                  #        04      BONINV          INVERT A SWITCH AND BRANCH IF IT WAS ON.
002963:                                                                                                  #        05      INVGO           INVERT A SWITCH AND DO A GOTO.
002964:                                                                                                  #        06      BOFINV          INVERT A SWITCH AND BRANCH IF IT WAS OFF
002965:                                                                                                  #        07      INVERT          INVERT A SWITCH.
002966:
002967:                                                                                                  #        10      BONCLR          CLEAR A SWITCH AND BRANCH IF IT WAS ON.
002968:                                                                                                  #        11      CLRGO           CLEAR A SWITCH AND DO A GOTO.
002969:                                                                                                  #        12      BOFCLR          CLEAR A SWITCH AND BRANCH IF IT WAS OFF.
002970:                                                                                                  #        13      CLEAR           CLEAR A SWITCH.
002971:
002972:                                                                                                  #        14      BON             BRANCH IF A SWITCH WAS ON.
002973:                                                                                                  #        16      BOFF            BRANCH IF A SWITCH WAS OFF.
002974:
002975:                                                                                                  #  THE ADDRESS SUPPLIED WITH THE SWITCH INSTRUCTION IS INTERPRETED AS FOLLOWS:
002976:
002977:                                                                                                  #        BITS 1-4        SWITCH BIT NUMBER (1-15).
002978:                                                                                                  #        BITS 5-8        SWITCH OPERATION NUMBER.
002979:                                                                                                  #        BITS 9-         SWITCH WORD NUMBER (UP TO 64 SWITCH WORDS).
002980:
002981:                                                                                                  #  THE ADDRESS ITSELF IS MADE UP BY THE YUL SYSTEM ASSEMBLER. THE BRANCH INSTRUCTIONS REQUIRE TWO
002982:                                                                                                  #  ADDRESSES, THE SECOND TAKEN AS THE DIRECT (OR INDIRECT IF IN ERASABLE) ADDRESS OF THE BRANCH.
002983:
002984: 01,2513           34777        SWITCHES           CAF      LOW4                                  #  LEAVE THE SWITCH BIT IN  SWBIT  .
002985: 01,2514           70117                           MASK     POLISH
002986: 01,2515           50000                           INDEX    A
002987: 01,2516           34752                           CAF      BIT15                                 #  (NUMBER FROM LEFT TO RIGHT.)
002988: 01,2517           54131                           TS       SWBIT
002989:
002990: 01,2520           34762                           CAF      BIT7                                  #  LEAVE THE SWITCH NUMBER IN SWWORD.
002991: 01,2521           00006                           EXTEND
002992: 01,2522           70117                           MP       POLISH
002993: 01,2523           54130                           TS       SWWORD
002994:
002995: 01,2524           00004                           INHINT                                         #  DURING SWITCH CHANGE SO RUPT CAN USE TOO
002996: 01,2525           50000                           INDEX    A                                     #  LEAVE THE SWITCH WORD ITSELF IN L.
002997: 01,2526           30074                           CA       STATE
002998: 01,2527           54002                           TS       Q                                     #  Q WILL BE USED AS A CHANNEL.


003000: 01,2530           34756                           CAF      BIT11
003001: 01,2531           00006                           EXTEND                                         #  DISPATCH SWITCH BIT OPERATION AS IN BITS
003002: 01,2532           70117                           MP       POLISH                                #  7-8 OF POLISH.
003003: 01,2533           73024                           MASK     B3TOB4                                #  GETS 4X2-BIT CODE.
003004: 01,2534           50000                           INDEX    A
003005: 01,2535           12536                           TCF      +1
003006:
003007: 01,2536           30131                 +1        CA       SWBIT                                 #  00 - SET SWITCH IN QUESTION.
003008: 01,2537           00006                           EXTEND
003009: 01,2540           04002                           ROR      QCHAN
003010: 01,2541           12550                           TCF      SWSTORE
003011:
003012: 01,2542           30131                 +5        CA       SWBIT                                 #  01 - INVERT SWITCH.
003013: 01,2543           00006                           EXTEND
003014: 01,2544           06002                           RXOR     QCHAN
003015: 01,2545           12550                           TCF      SWSTORE
003016:
003017: 01,2546           40131                 +9D       CS       SWBIT                                 #  10 - CLEAR.
003018: 01,2547           70002                           MASK     Q
003019: 01,2550           50130        SWSTORE            INDEX    SWWORD
003020: 01,2551           54074                           TS       STATE                                 #  NEW SWITCH WORD.


003022: 01,2552           00003                 +13D      RELINT                                         #  11 - NOOP.
003023: 01,2553           34754                           CAF      BIT13
003024: 01,2554           00006                           EXTEND                                         #  DISPATCH SEQUCE CHANGING OR BRANCHING
003025: 01,2555           70117                           MP       POLISH                                #  CODE.
003026: 01,2556           73024                           MASK     B3TOB4
003027: 01,2557           50000                           INDEX    A
003028: 01,2560           12561                           TCF      +1                                    #  ORIGINALLY STORED IN BITS 5-6.
003029:
003030: 01,2561           40002                 +1        CS       Q                                     #  00 - BRANCH IF ON.
003031: 01,2562           70131        TEST               MASK     SWBIT
003032: 01,2563           10000                           CCS      A
003033: 01,2564           12574                           TCF      SWSKIP
003034:
003035: 01,2565           16664                 +5        TCF      SWBRANCH                              #  01 - GO TO.
003036:
003037: 01,2566           12574                           TCF      SWSKIP                                #  HERE ONLY ON BIT 15.
003038:
003039: 01,2567           12570                           NOOP                                           #  CANNOT GET HERE
003040: 01,2570           12571                           NOOP                                           #  CANNOT GET HERE
003041: 01,2571           30002                 +9D       CA       Q                                     #  10 - BRANCH IF OFF.
003042: 01,2572           12562                           TCF      TEST
003043:
003044: 01,2573           12574                 +11D      NOOP                                           #  CANNOT GET HERE
003045: 01,2574           24164        SWSKIP             INCR     LOC
003046:
003047: 01,2575           16030                 +13D      TCF      DANZIG                                #  11 - NOOP.
003048:
003049: 01,2576  01,3024               B3TOB4             EQUALS   COREINC
003050: 01,2576  01,2513               SW/                EQUALS   SWITCHES

End of include-file INTERPRETER.agc.  Parent file is MAIN.agc


