
Source Code


000002:                                                                                                  #  Copyright:    Public domain.
000003:                                                                                                  #  Filename:     INTERRUPT_LEAD_INS.agc
000004:                                                                                                  #  Purpose:      Part of the source code for Artemis (i.e., Colossus 3),
000005:                                                                                                  #                build 072.  This is for the Command Module's (CM)
000006:                                                                                                  #                Apollo Guidance Computer (AGC), we believe for
000007:                                                                                                  #                Apollo 15-17.
000008:                                                                                                  #  Assembler:    yaYUL
000009:                                                                                                  #  Contact:      Jim Lawton <jim DOT lawton AT gmail DOT com>
000010:                                                                                                  #  Website:      www.ibiblio.org/apollo/index.html
000011:                                                                                                  #  Page scans:   www.ibiblio.org/apollo/ScansForConversion/Artemis072/
000012:                                                                                                  #  Mod history:  2009-07-25 JL   Adapted from corresponding Comanche 055 file.
000013:                                                                                                  #                2010-02-02 JL   Added missing RESUME.
000014:                                                                                                  #                2010-02-20 RSB  Un-##'d this header.
000015:
000016:                                                                                                  # # Page 139
000017:    4000                                           SETLOC   4000
000018:
000019:    4000                                           COUNT*   $$/RUPTS
000020:
000021:    4000           00004                           INHINT                                         #  GO
000022:    4001           34051                           CAF      GOBB
000023:    4002           56006                           XCH      BBANK
000024:    4003           12563                           TCF      GOPROG
000025:
000026:    4004           52011                           DXCH     ARUPT                                 #  T6RUPT
000027:    4005           00006                           EXTEND
000028:    4006           30111                           DCA      T6LOC
000029:    4007           52006                           DTCB
000030:
000031:    4010           52011                           DXCH     ARUPT                                 #  T5RUPT
000032:    4011           40030                           CS       TIME5
000033:    4012           65011                           AD       .5SEC
000034:    4013           14056                           TCF      T5RUPT
000035:
000036:    4014           52011                           DXCH     ARUPT                                 #  T3RUPT
000037:    4015           35254                           CAF      T3RPTBB
000038:    4016           56006                           XCH      BBANK
000039:    4017           13362                           TCF      T3RUPT
000040:
000041:    4020           52011                           DXCH     ARUPT                                 #  T4RUPT
000042:    4021           34054                           CAF      T4RPTBB
000043:    4022           56006                           XCH      BBANK
000044:    4023           12000                           TCF      T4RUPT
000045:
000046:    4024           52011                           DXCH     ARUPT                                 #  KEYRUPT1
000047:    4025           34052                           CAF      KEYRPTBB
000048:    4026           56006                           XCH      BBANK
000049:    4027           13666                           TCF      KEYRUPT1
000050:
000051:    4030           52011                           DXCH     ARUPT                                 #  KEYRUPT2
000052:    4031           34052                           CAF      MKRUPTBB
000053:    4032           56006                           XCH      BBANK
000054:    4033           12105                           TCF      MARKRUPT
000055:
000056:    4034           52011                           DXCH     ARUPT                                 #  UPRUPT
000057:    4035           34052                           CAF      UPRPTBB
000058:    4036           56006                           XCH      BBANK
000059:    4037           13710                           TCF      UPRUPT
000060:
000061:    4040           52011                           DXCH     ARUPT                                 #  DOWNRUPT
000062:    4041           34051                           CAF      DWNRPTBB
000063:    4042           56006                           XCH      BBANK
000064:    4043           14621                           TCF      DODOWNTM
000065:
000066:    4044           52011                           DXCH     ARUPT                                 #  RADAR RUPT
000067:    4045           34053                           CAF      RDRPTBB
000068:                                                                                                  # # Page 140
000069:    4046           56006                           XCH      BBANK
000070:    4047           12536                           TCF      VHFREAD
000071:
000072:    4050           50017                           RESUME
000073:
000074:    4051  E3,1400                                  EBANK=   LST1                                  #  RESTART USES E0,E3
000075:    4051           12063        GOBB               BBCON    GOPROG
000076:
000077:    4052  E3,1400                                  EBANK=   LST1
000078:    4052     5254               T3RPTBB            EQUALS   WAITBB
000079:    4052     4052               KEYRPTBB           =        MKRUPTBB
000080:
000081:    4052  E7,1722                                  EBANK=   MRKBUF1
000082:    4052           16067        MKRUPTBB           BBCON    MARKRUPT
000083:    4053     4052               UPRPTBB            =        KEYRPTBB
000084:    4053     4051               DWNRPTBB           =        GOBB
000085:
000086:    4053  E7,1703                                  EBANK=   RM
000087:    4053           56067        RDRPTBB            BBCON    VHFREAD
000088:    4054     1322                                  EBANK=   DSRUPTSW
000089:    4054           14062        T4RPTBB            BBCON    T4RUPT
000090:    4055     0025                                  EBANK=   TIME1
000091:    4055           04060        T5RPTBB            BBCON    T5RUPT
000092:
000093:    4056           00006        T5RUPT             EXTEND
000094:    4057           65327                           BZMF     NOQBRSM
000095:    4060           00006                           EXTEND
000096:    4061           30113                           DCA      T5LOC
000097:    4062           52006                           DTCB

End of include-file INTERRUPT_LEAD_INS.agc.  Parent file is MAIN.agc


