
Source Code


000002:                                                                                                  ## Copyright:   Public domain.
000003:                                                                                                  ## Filename:    KEYRUPT_UPRUPT.agc
000004:                                                                                                  ## Purpose:     Part of the source code for Artemis (i.e., Colossus 3),
000005:                                                                                                  ##              build 072.  This is for the Command Module's (CM)
000006:                                                                                                  ##              Apollo Guidance Computer (AGC), we believe for
000007:                                                                                                  ##              Apollo 15-17.
000008:                                                                                                  ## Assembler:   yaYUL
000009:                                                                                                  ## Contact:     Jim Lawton <jim DOT lawton AT gmail DOT com>
000010:                                                                                                  ## Website:     www.ibiblio.org/apollo/index.html
000011:                                                                                                  ## Page Scans:  www.ibiblio.org/apollo/ScansForConversion/Artemis072/
000012:                                                                                                  ## Mod history: 2009-08-18 JL   Adapted from corresponding Comanche 055 file.
000013:                                                                                                  ##              2009-09-03 JL   Fixed error in conversion.
000014:                                                                                                  ##              2010-02-20 RSB  Un-##'d this header.
000015:


000017:
000018: 07,2000                                           SETLOC   KEYRUPT
000019: 07,2000                                           BANK
000020: 07,3666                                           COUNT*   $$/KEYUP
000021:
000022: 07,3666           54016        KEYRUPT1           TS       BANKRUPT
000023: 07,3667           56002                           XCH      Q
000024: 07,3670           54012                           TS       QRUPT
000025: 07,3671           04366                           TC       LODSAMPT                              #  TIME IS SNATCHED IN RUPT FOR NOUN 65.
000026: 07,3672           34342                           CAF      LOW5
000027: 07,3673           00006                           EXTEND
000028: 07,3674           02015                           RAND     MNKEYIN                               #  CHECK IF KEYS 5M-1M ON
000029: 07,3675           54073        KEYCOM             TS       RUPTREG4
000030: 07,3676           40101                           CS       FLAGWRD5
000031: 07,3677           74752                           MASK     DSKYBIT
000032: 07,3700           26101                           ADS      FLAGWRD5
000033:
000034: 07,3701           05120        ACCEPTUP           TC       NOVAC30                               #  (NOTE: RUPTREG4 = KEYTEMP1)
000035: 07,3702     1202                                  EBANK=   DSPCOUNT
000036: 07,3702           02000 60102                     2CADR    CHARIN
000037:
000038: 07,3704           30073                           CA       RUPTREG4
000039: 07,3705           50064                           INDEX    LOCCTR
000040: 07,3706           54154                           TS       MPAC                                  #  LEAVE 5 BIT KEY CODE IN MPAC FOR CHARIN
000041: 07,3707           05323                           TC       RESUME
000042:


000044:
000045:                                                                                                  #  UPRUPT PROGRAM
000046:
000047: 07,3710           54016        UPRUPT             TS       BANKRUPT
000048: 07,3711           56002                           XCH      Q
000049: 07,3712           54012                           TS       QRUPT
000050: 07,3713           04366                           TC       LODSAMPT                              #  TIME IS SNATCHED IN RUPT FOR NOUN 65.
000051: 07,3714           34772                           CAF      ZERO
000052: 07,3715           56045                           XCH      INLINK
000053: 07,3716           54073                           TS       KEYTEMP1
000054: 07,3717           30075                           CA       FLAGWRD1
000055: 07,3720           74755                           MASK     NOP01BIT                              #  IF = , MISSION IS IN
000056: 07,3721           10000                           CCS      A                                     #  PRELAUNCH AND UPLINK DATA SUM IS ENABLED
000057: 07,3722           13726                           TCF      +4                                    #  IF FLGAWORD1 BIT 12 =1, IT IS NOT
000058: 07,3723           30073                           CA       KEYTEMP1                              #  ALLOWED.
000059: 07,3724           27116                           ADS      UPSUM
000060: 07,3725           25117                           INCR     UPSUM      +1
000061: 07,3726           34766                           CAF      BIT3                                  #  TURN ON UPACT LIGHT
000062: 07,3727           00006                           EXTEND                                         #  (BIT 3 OF CHANNEL 11)
000063: 07,3730           05011                           WOR      DSALMOUT
000064: 07,3731           34342        UPRPT1             CAF      LOW5                                  #  TEST FOR TRIPLE CHAR REDUNDANCY
000065: 07,3732           70073                           MASK     KEYTEMP1                              #  LOW5 OF WORD
000066: 07,3733           56073                           XCH      KEYTEMP1                              #  LOW5 INTO KEYTEMP1
000067: 07,3734           00006                           EXTEND
000068: 07,3735           74757                           MP       BIT10                                 #  SHIFT RIGHT 5
000069: 07,3736           55137                           TS       KEYTEMP2
000070: 07,3737           74342                           MASK     LOW5                                  #  MID 5
000071: 07,3740           63774                           AD       HI10
000072: 07,3741           03771                           TC       UPTEST
000073: 07,3742           34757                           CAF      BIT10
000074: 07,3743           00006                           EXTEND
000075: 07,3744           71137                           MP       KEYTEMP2                              #  SHIFT RIGHT 5
000076: 07,3745           74342                           MASK     LOW5                                  #  HIGH 5
000077: 07,3746           40000                           COM
000078: 07,3747           03771                           TC       UPTEST
000079:
000080: 07,3750           45000        UPOK               CS       ELRCODE                               #  CODE IS GOOD. IF CODE = 'ERROR RESET',
000081: 07,3751           60073                           AD       KEYTEMP1                              #  CLEAR UPLOCKFL (SET BIT4 OF FLAGWRD7 = 0)
000082: 07,3752           00006                           EXTEND                                         #  IF CODE DOES NOT = 'ERROR RESET', ACCEPT
000083: 07,3753           13761                           BZF      CLUPLOCK                              #  CODE ONLY IF UPLOCKFL IS CLEAR (=0).
000084:
000085: 07,3754           34765                           CAF      UPLOCBIT                              #  TEST UPLOCKFL FOR 0 OR 1
000086: 07,3755           70103                           MASK     FLAGWRD7
000087: 07,3756           10000                           CCS      A
000088: 07,3757           05323                           TC       RESUME                                #  UPLOCKFL = 1
000089: 07,3760           03701                           TC       ACCEPTUP                              #  UPLOCKFL = 0
000090:
000091: 07,3761           44765        CLUPLOCK           CS       UPLOCBIT                              #  CLEAR UPLOCKFL (I.E., SET BIT 4 OF
000092: 07,3762           70103                           MASK     FLAGWRD7                              #  FLAGWRD7 = 0)
000093: 07,3763           54103                           TS       FLAGWRD7
000094: 07,3764           03701                           TC       ACCEPTUP


000096:                                                                                                  #  CODE IS BAD
000097: 07,3765           40103        TMFAIL2            CS       FLAGWRD7                              #  LOCK OUT FURTHER UPLINK ACTIVITY
000098: 07,3766           74765                           MASK     UPLOCBIT                              #  (BY SETTING UPLOCKFL = 1) UNTIL
000099: 07,3767           26103                           ADS      FLAGWRD7                              #  'ERROR RESET' IS SENT VIA UPLINK.
000100: 07,3770           05323                           TC       RESUME
000101: 07,3771           60073        UPTEST             AD       KEYTEMP1
000102: 07,3772           10000                           CCS      A
000103: 07,3773           03765                           TC       TMFAIL2
000104: 07,3774           77740        HI10               OCT      77740
000105: 07,3775           03765                           TC       TMFAIL2
000106: 07,3776           00002                           TC       Q
000107:
000108: 07,3777     5000               ELRCODE            EQUALS   OCT22
000109:
000110:                                                                                                  #  'UPLINK ACTIVITY LIGHT' IS TURNED OFF BY .....
000111:                                                                                                  #        1.      VBRELDSP
000112:                                                                                                  #        2.      ERROR RESET
000113:                                                                                                  #        3.      UPDATE PROGRAM (P27) ENTERED BY V70,V71,V72, AND V73.
000114:
000115:                                                                                                  #                                      _
000116:                                                                                                  #  THE RECEPTION OF A BAD CODE (I.E., CCC FAILURE) LOCKS OUT FURTHER UPLINK ACTIVITY BY SETTING BIT4 OF FLAGWRD7 = 1.
000117:                                                                                                  #  THIS INDICATION WILL BE TRANSFERRED TO THE GROUND BY THE DOWNLINK WHICH DOWNLINKS ALL FLAGWORDS.
000118:                                                                                                  #  WHEN UPLINK ACTIVITY IS LOCKED OUT, IT CAN BE ALLOWED WHEN THE GROUND UPLINKS AN 'ERROR RESET' CODE.
000119:                                                                                                  #  (IT IS RECOMMENDED THAT THE 'ERROR LIGHT RESET' CODE IS PRECEEDED BY 16 BITS THE FIRST OF WHICH IS 1 FOLLOWED
000120:                                                                                                  #  BY 15 ZEROS. THIS WILL ELIMINATE EXTRANEOUS BITS FROM INLINK WHICH MAY HAVE BEEN LEFT OVER FROM THE ORIGINAL
000121:                                                                                                  #  FAILURE).
000122:
000123:                                                                                                  #  UPLINK ACTIVITY IS ALSO ALLOWED (UNLOCKED) DURING FRESH START WHEN FRESH START SETS BIT4 OF FLAGWRD7 = 0.

End of include-file KEYRUPT_UPRUPT.agc.  Parent file is MAIN.agc


