
Source Code


000002:                                                                                                  ## Copyright:   Public domain.
000003:                                                                                                  ## Filename:    LATITUDE_LONGITUDE_SUBROUTINES.agc
000004:                                                                                                  ## Purpose:     Part of the source code for Artemis (i.e., Colossus 3),
000005:                                                                                                  ##              build 072.  This is for the Command Module's (CM)
000006:                                                                                                  ##              Apollo Guidance Computer (AGC), for
000007:                                                                                                  ##              Apollo 15-17.
000008:                                                                                                  ## Assembler:   yaYUL
000009:                                                                                                  ## Contact:     Sergio Navarro <sergionavarrog@gmail.com>
000010:                                                                                                  ## Website:     www.ibiblio.org/apollo/index.html
000011:                                                                                                  ## Page Scans:  www.ibiblio.org/apollo/ScansForConversion/Artemis072/
000012:                                                                                                  ## Mod history: 2009-09-03 SN   Adapted from corresponding Comanche 055 file.
000013:                                                                                                  ##              2009-09-04 JL   Fixed typos.
000014:                                                                                                  ##              2010-02-20 RSB  Un-##'d this header.
000015:                                                                                                  ##              2010-04-13 JL   Fixed a typo (' instead of #).
000016:                                                                                                  ##              2010-08-15 JL   Fixed indentation.
000017:                                                                                                  ##              2017-02-05 RSB  Proofed comment text by diff'ing vs Comanche 55
000018:                                                                                                  ##                              and corrected errors found.
000019:


000021:                                                                                                  #  SUBROUTINE TO CONVERT RAD VECTOR AT GIVEN TIME TO LAT,LONG AND ALT
000022:
000023:                                                                                                  #  CALLING SEQUENCE
000024:
000025:                                                                                                  #        L-1     CALL
000026:                                                                                                  #        L               LAT-LONG
000027:
000028:                                                                                                  #  SUBROUTINES USED
000029:
000030:                                                                                                  #        R-TO-RP, ARCTAN, SETGAMMA, SETRE
000031:
000032:                                                                                                  #  ERASABLE INIT. REQ.
000033:
000034:                                                                                                  #        AXO, -AYO, AZO, TEPHEM (SET AT LAUNCH TIME)
000035:                                                                                                  #        ALPHAV = POSITION VECTOR METERS B-29
000036:                                                                                                  #        MPAC -- TIME (CSECS B-28)
000037:                                                                                                  #        ERADFLAG =1, TO COMPUTE EARTH RADIUS, =0 FOR FIXED EARTH RADIUS
000038:                                                                                                  #        LUNAFLAG=0 FOR EARTH, 1 FOR MOON
000039:
000040:                                                                                                  #  OUTPUT
000041:
000042:                                                                                                  #        LATITUDE IN LAT         (REVS. B-0)
000043:                                                                                                  #        LONGITUDE IN LONG       (REVS. B-0)
000044:                                                                                                  #        ALTITUDE IN ALT METERS B-29
000045:
000046: 13,2000                                           SETLOC   LATLONG
000047: 13,2000                                           BANK
000048:
000049: 13,2453                                           COUNT*   $$/LT-LG
000050: 13,2453  E4,1551                                  EBANK=   ALPHAV
000051: 13,2453           40220        LAT-LONG           STQ      SETPD
000052: 13,2454           02241                                    INCORPEX
000053: 13,2455           00001                                    0D
000054: 13,2456           24007                           STOVL    6D                                    #  SAVE TIME IN 6-7D FOR R-TO-RP
000055: 13,2457           02152                                    ALPHAV
000056: 13,2460           51406                           PUSH     ABVAL                                 #  0-5D= R FOR R-TO-RP
000057: 13,2461           16301                           STODL    ALPHAM                                #  ABS. VALUE OF R FOR ALT FORMULA BELOW
000058: 13,2462           11762                                    ZEROVEC                               #  SET MPAC=0 FOR EARTH, NON-ZERO FOR MOON
000059: 13,2463           71414                           BOFF     COS                                   #  USE COS(0) TO GET NON-ZERO IN MPAC
000060: 13,2464           01743                                    LUNAFLAG                              #  0=EARTH,1=MOON
000061: 13,2465           26466                                    CALLRTRP
000062: 13,2466           77624        CALLRTRP           CALL
000063: 13,2467           55370                                    R-TO-RP                               #  RP VECTOR CONVERTED FROM R B-29
000064: 13,2470           77656                           UNIT                                           #  UNIT RP B-1
000065: 13,2471           36152                           STCALL   ALPHAV                                #  U2= 1/2 SINL FOR SETRE SUBR BELOW
000066: 13,2472           35766                                    SETGAMMA                              #   SET GAMMA=B2/A2 FOR EARTH, =1 FOR MOON
000067: 13,2473           77624                           CALL                                           #   SCALED B-1
000068: 13,2474           26654                                    SETRE                                 #  CALC RE METERS B-29
000069: 13,2475           63545                           DLOAD    DSQ
000070: 13,2476           02152                                    ALPHAV
000071: 13,2477           63525                           PDDL     DSQ
000072: 13,2500           02154                                    ALPHAV     +2
000073: 13,2501           75415                           DAD      SQRT
000074: 13,2502           76405                           DMP      SL1R


000076: 13,2503           00011                                    GAMRP
000077: 13,2504           14021                           STODL    COSTH                                 #  COS(LAT) B-1
000078: 13,2505           02156                                    ALPHAV     +4
000079: 13,2506           34023                           STCALL   SINTH                                 #  SIN(LAT) B-1
000080: 13,2507           26614                                    ARCTAN
000081: 13,2510           14747                           STODL    LAT                                   #  LAT B0
000082: 13,2511           02152                                    ALPHAV
000083: 13,2512           14021                           STODL    COSTH                                 #  COS(LONG) B-1
000084: 13,2513           02154                                    ALPHAV     +2
000085: 13,2514           34023                           STCALL   SINTH                                 #  SIN(LONG) B-1
000086: 13,2515           26614                                    ARCTAN
000087: 13,2516           14751                           STODL    LONG                                  #  LONG. REVS B-0 IN RANGE -1/2 TO 1/2
000088: 13,2517           02301                                    ALPHAM
000089: 13,2520           77625                           DSU                                            #  ALT= R-RE METERS B-29
000090: 13,2521           02240                                    ERADM
000091: 13,2522           34753                           STCALL   ALT                                   #  EXIT WITH ALT METERS B-29
000092: 13,2523           02241                                    INCORPEX
000093:


000095:                                                                                                  #  SUBROUTINE TO CONVERT LAT,LONG.ALT AT GIVEN TIME TO RADIUS VECTOR
000096:
000097:                                                                                                  #  CALLING SEQUENCE
000098:
000099:                                                                                                  #        L-1     CALL
000100:                                                                                                  #        L               LALOTORV
000101:
000102:                                                                                                  #  SUBROUTINES USED
000103:
000104:                                                                                                  #        SETGAMMA, SETRE, RP-TO-R
000105:
000106:                                                                                                  #  ERASABLE INIT. REQ.
000107:
000108:                                                                                                  #        AXO, AYO, AZO, TEPHEM  SET AT LAUNCH TIME
000109:                                                                                                  #        LAT -- LATITUDE         (REVS B0)
000110:                                                                                                  #        LONG -- LONGITUDE       (REVS B0)
000111:                                                                                                  #        ALT -- ALTITUDE         (METERS) B-29
000112:                                                                                                  #        MPAC -- TIME            (CSECS B-28)
000113:                                                                                                  #        ERADFLAG =1 TO COMPUTE EARTH RADIUS, =0 FOR FIXED EARTH RADIUS
000114:                                                                                                  #        LUNAFLAG=0 FOR EARTH, 1 FOR MOON
000115:
000116:                                                                                                  #  OUTPUT
000117:
000118:                                                                                                  #        R-VECTOR IN ALPHAV (METERS B-29)
000119:
000120: 13,2524           40220        LALOTORV           STQ      SETPD                                 #  LAT,LONG,ALT TO R VECTOR
000121: 13,2525           02241                                    INCORPEX
000122: 13,2526           00001                                    0D
000123: 13,2527           34007                           STCALL   6D                                    #  6-7D = TIME FOR RP-TO-R
000124: 13,2530           35766                                    SETGAMMA                              #  GAMMA = B2/A2 FOR EARTH, 1 FOR MOON B-1
000125: 13,2531           73545                           DLOAD    SIN                                   #                   COS(LONG)COS(LAT) IN MPAC
000126: 13,2532           00747                                    LAT                                   #        UNIT  RP = SIN(LONG)COS(LAT)    2-3D
000127: 13,2533           65275                           DMPR     PDDL                                  #  PD 2             GAMMA*SIN(LAT)       0-1D
000128: 13,2534           00011                                    GAMRP
000129: 13,2535           00747                                    LAT                                   #            0-1D = GAMMA*SIN(LAT) B-2
000130: 13,2536           65346                           COS      PDDL                                  #  PD4       2-3D = COS(LAT) B-1 TEMPORARILY
000131: 13,2537           00751                                    LONG
000132: 13,2540           57356                           SIN      DMPR                                  #  PD 2
000133: 13,2541           71525                           PDDL     COS                                   #  PD 4      2-3D = SIN(LONG)COS(LAT) B-2
000134: 13,2542           00747                                    LAT
000135: 13,2543           71525                           PDDL     COS                                   #  PD 6      4-5D = COS(LAT) B-1 TEMPORARILY
000136: 13,2544           00751                                    LONG
000137: 13,2545           55475                           DMPR     VDEF                                  #  PD4       MPAC = COS(LONG)COS(LAT) B-2
000138: 13,2546           41456                           UNIT     PUSH                                  #  0-5D = UNIT RP FOR RP-TO-R SUBR.
000139: 13,2547           36152                           STCALL   ALPHAV                                #  ALPHAV +4= SINL FOR SETRE SUBR.
000140: 13,2550           26654                                    SETRE                                 #  RE METERS B-29
000141: 13,2551           43145                           DLOAD    BOFF                                  #  SET MPAC = 0 FOR EARTH, NON-ZERO FOR MOON
000142: 13,2552           11762                                    ZEROVEC
000143: 13,2553           01743                                    LUNAFLAG
000144: 13,2554           26556                                    CALLRPRT
000145: 13,2555           77746                           COS                                            #  USE COS(0) TO GET NON-ZERO IN MPAC
000146: 13,2556           77624        CALLRPRT           CALL
000147: 13,2557           55345                                    RP-TO-R                               #  EXIT WITH UNIT R VECTOR IN MPAC
000148: 13,2560           16152                           STODL    ALPHAV
000149: 13,2561           02240                                    ERADM


000151: 13,2562           74215                           DAD      VXSC                                  #  (RE + ALT)(UNIT R) METERS B-30
000152: 13,2563           00753                                    ALT
000153: 13,2564           02152                                    ALPHAV
000154: 13,2565           77772                           VSL1                                           #  R METERS B-29
000155: 13,2566           36152                           STCALL   ALPHAV                                #  EXIT WITH R IN METERS B-29
000156: 13,2567           02241                                    INCORPEX
000157:
000158:                                                                                                  #  SUBROUTINE TO COMPUTE EARTH RADIUS
000159:
000160:                                                                                                  #  INPUT
000161:
000162:                                                                                                  #        1/2 SIN LAT IN ALPHAV +4
000163:
000164:                                                                                                  #  OUTPUT
000165:
000166:                                                                                                  #        EARTH RADIUS IN ERADM AND MPAC  (METERS B-29)
000167:
000168: 13,2570           63545        GETERAD            DLOAD    DSQ
000169: 13,2571           02156                                    ALPHAV     +4                         #  SIN**2(L)
000170: 13,2572           44352                           SL1      BDSU
000171: 13,2573           11760                                    DP1/2                                 #  COS**2(L)
000172: 13,2574           44275                           DMPR     BDSU
000173: 13,2575           26611                                    EE
000174: 13,2576           11760                                    DP1/2
000175: 13,2577           75465                           BDDV     SQRT
000176: 13,2600           26605                                    B2XSC
000177: 13,2601           77622                           SR4R
000178: 13,2602           02240                           STORE    ERADM
000179: 13,2603           77616                           RVQ
000180:
000181:                                                                                                  #  THE FOLLOWING CONSTANTS WERE COMPUTED WITH A=6378166, B=6356784 METERS
000182:                                                                                                  #  B2XSC = B**2 SCALED B-51
000183:                                                                                                  #  B2/A2 = B**2/A**2  SCALED B-1
000184:                                                                                                  #  EE = (1-B**2/A**2) SCALED B-0
000185:
000186: 13,2604           00446 00305  B2XSC              2DEC     .0179450689                            #  B**2 SCALED B-51
000187: 13,2606  04,3757               DP1/2              =        XUNIT
000188: 13,2606           17711 05254  B2/A2              2DEC     .9933064884 B-1                        #  GAMMA= B**2/A**2 B-1
000189: 13,2610           00155 25250  EE                 2DEC     6.6935116  E-3                        #  (1-B**2/A**2) B-0
000190: 13,2612           00302 17755  ERAD               2DEC     6373338    B-29                       #  PAD RADIUS
000191:


000193:                                                                                                  #  ARCTAN SUBROUTINE
000194:
000195:                                                                                                  #  CALLING SEQUENCE
000196:
000197:                                                                                                  #        SIN THETA IN SINTH B-1
000198:                                                                                                  #        COS THETA IN COSTH B-1
000199:                                                                                                  #        CALL ARCTAN
000200:
000201:                                                                                                  #  OUTPUT
000202:                                                                                                  #        ARCTAN THETA IN MPAC AND THETA B-0 IN RANGE -1/2 TO +1/2
000203:
000204: 13,2614           77600        ARCTAN             BOV
000205: 13,2615           26616                                    CLROVFLW
000206: 13,2616           63545        CLROVFLW           DLOAD    DSQ
000207: 13,2617           00023                                    SINTH
000208: 13,2620           63525                           PDDL     DSQ
000209: 13,2621           00021                                    COSTH
000210: 13,2622           77615                           DAD
000211: 13,2623           75454                           BZE      SQRT
000212: 13,2624           26642                                    ARCTANXX                              #  ATAN=0/0  SET THETA=0
000213: 13,2625           40065                           BDDV     BOV
000214: 13,2626           00023                                    SINTH
000215: 13,2627           26647                                    ATAN=90
000216: 13,2630           67542                           SR1      ASIN
000217: 13,2631           00025                           STORE    THETA
000218: 13,2632           50125                           PDDL     BMN
000219: 13,2633           00021                                    COSTH
000220: 13,2634           26636                                    NEGCOS
000221: 13,2635           43545                           DLOAD    RVQ
000222: 13,2636           57545        NEGCOS             DLOAD    DCOMP
000223: 13,2637           43244                           BPL      DAD
000224: 13,2640           26644                                    NEGOUT
000225: 13,2641           11760                                    DP1/2
000226: 13,2642           00025        ARCTANXX           STORE    THETA
000227: 13,2643           77616                           RVQ
000228:
000229: 13,2644           52025        NEGOUT             DSU      GOTO
000230: 13,2645           11760                                    DP1/2
000231: 13,2646           26642                                    ARCTANXX
000232: 13,2647           75345        ATAN=90            DLOAD    SIGN
000233: 13,2650           33412                                    LODP1/4
000234: 13,2651           00023                                    SINTH
000235: 13,2652           00025                           STORE    THETA
000236: 13,2653           77616                           RVQ
000237:
000238: 13,2654  04,3761               2DZERO             =        DPZERO
000239:


000241:                                                                                                  #  ..... SETGAMMA SUBROUTINE .....
000242:                                                                                                  #  SUBROUTINE TO SET GAMMA FOR THE LAT-LONG AND LALOTORV SUBROUTINES
000243:
000244:                                                                                                  #  GAMMA = B**2/A**2 FOR EARTH (B-1)
000245:                                                                                                  #  GAMMA = 1 FOR MOON (B-1)
000246:
000247:                                                                                                  #  CALLING SEQUENCE
000248:                                                                                                  #        L       CALL
000249:                                                                                                  #        L+1             SETGAMMA
000250:
000251:                                                                                                  #  INPUT
000252:                                                                                                  #        LUNAFLAG=0 FOR EARTH, =1 FOR MOON
000253:
000254:                                                                                                  #  OUTPUT
000255:                                                                                                  #        GAMMA IN GAMRP  (B-1)
000256:
000257: 16,2000                                           SETLOC   LATLONG1
000258: 16,2000                                           BANK
000259: 16,3766                                           COUNT*   $$/LT-LG
000260:
000261: 16,3766           43145        SETGAMMA           DLOAD    BOFF                                  #  BRANCH FOR EARTH
000262: 16,3767           26607                                    B2/A2                                 #  EARTH GAMMA
000263: 16,3770           01743                                    LUNAFLAG
000264: 16,3771           35774                                    SETGMEX
000265: 16,3772           77735                           SLOAD
000266: 16,3773           11760                                    1B1                                   #  MOON GAMMA
000267: 16,3774           00011        SETGMEX            STORE    GAMRP
000268: 16,3775           77616                           RVQ
000269: 16,3776                        GAMRP              =        8D
000270: 13,2000                                           SETLOC   LATLONG
000271: 13,2000                                           BANK
000272:


000274:                                                                                                  #  ..... SETRE SUBROUTINE .....
000275:                                                                                                  #  SUBROUTINE TO SET RE (EARTH OR MOON RADIUS)
000276:
000277:                                                                                                  #   RE = RM FOR MOON
000278:                                                                                                  #   RE = RREF FOR FIXED EARTH RADIUS OR COMPUTED RF FOR FISCHER ELLIPSOID
000279:
000280:                                                                                                  #  CALLING SEQUENCE
000281:                                                                                                  #   L    CALL
000282:                                                                                                  #   L+1          SETRE
000283:
000284:                                                                                                  #  SUBROUTINES USED
000285:                                                                                                  #   GETERAD
000286:
000287:                                                                                                  #  INPUT
000288:                                                                                                  #   ERADFLAG = 0 FOR FIXED RE, 1 FOR COMPUTED RE
000289:                                                                                                  #   ALPHAV +4 = 1/2 SINL IF GETERAD IS CALLED
000290:                                                                                                  #   LUNAFLAG = 0 FOR EARTH, =1 FOR MOON
000291:
000292:                                                                                                  #  OUTPUT
000293:                                                                                                  #   ERADM = 504RM FOR MOON (METERS B-29)
000294:                                                                                                  #   ERADM = ERAD OR COMPUTED RE FOR EARTH (METERS B-29)
000295:
000296: 13,2654           71220        SETRE              STQ      DLOAD
000297: 13,2655           00051                                    SETREX
000298: 13,2656           26701                                    504RM
000299: 13,2657           71214                           BON      DLOAD                                 #  BRANCH FOR MOON
000300: 13,2660           01703                                    LUNAFLAG
000301: 13,2661           26671                                    TSTRLSRM
000302: 13,2662           26613                                    ERAD
000303: 13,2663           45014                           BOFF     CALL                                  #  ERADFLAG=0 FOR FIXED RE, 1 FOR COMPUTED
000304: 13,2664           00742                                    ERADFLAG
000305: 13,2665           26667                                    SETRXX
000306: 13,2666           26570                                    GETERAD
000307: 13,2667           36240        SETRXX             STCALL   ERADM                                 #  EXIT WITH RE OR RM METERS B-29
000308: 13,2670           00051                                    SETREX
000309: 13,2671           77214        TSTRLSRM           BON      VLOAD                                 #  ERADFLAG=0, SET R0=RLS
000310: 13,2672           00702                                    ERADFLAG                              #          =1      R0=RM
000311: 13,2673           26667                                    SETRXX
000312: 13,2674           02026                                    RLS
000313: 13,2675           64446                           ABVAL    SR2R                                  #  SCALE FROM B-27 TO B-29
000314: 13,2676           77650                           GOTO
000315: 13,2677           26667                                    SETRXX
000316: 13,2700  0000051               SETREX             =        S2
000317: 13,2700           00065 01265  504RM              2DEC     1738090    B-29                       #  METERS B-29 (MOON RADIUS)

End of include-file LATITUDE_LONGITUDE_SUBROUTINES.agc.  Parent file is MAIN.agc


