
Source Code


000002:                                                                                                  ## Copyright:   Public domain.
000003:                                                                                                  ## Filename:    LUNAR_AND_SOLAR_EPHEMERIDES_SUBROUTINES.agc
000004:                                                                                                  ## Purpose:     Part of the source code for Artemis (i.e., Colossus 3),
000005:                                                                                                  ##              build 072.  This is for the Command Module's (CM)
000006:                                                                                                  ##              Apollo Guidance Computer (AGC), for
000007:                                                                                                  ##              Apollo 15-17.
000008:                                                                                                  ## Assembler:   yaYUL
000009:                                                                                                  ## Contact:     Jim Lawton <jim DOT lawton AT gmail DOT com>
000010:                                                                                                  ## Website:     www.ibiblio.org/apollo/index.html
000011:                                                                                                  ## Page Scans:  www.ibiblio.org/apollo/ScansForConversion/Artemis072/
000012:                                                                                                  ## Mod history: 2009-08-11 JL   Adapted from corresponding Comanche 055 file.
000013:                                                                                                  ##              2010-02-20 RSB  Un-##'d this header.
000014:                                                                                                  ##              2017-02-05 RSB  Proofed comment text by diff'ing vs Comanche 55
000015:                                                                                                  ##                              and corrected errors found.
000016:


000018:
000019:                                                                                                  #  LUNAR AND SOLAR EPHEMERIDES SUBROUTINES
000020:
000021:                                                                                                  #  FUNCTIONAL DESCRIPTION
000022:
000023:                                                                                                  #        THESE SUBROUTINES ARE USED TO DETERMINE THE POSITION AND VELOCITY
000024:                                                                                                  #        VECTORS OF THE SUN AND THE MOON RELATIVE TO THE EARTH AT THE
000025:                                                                                                  #        SPECIFIED GROUND ELAPSED TIME INPUT BY THE USER.
000026:
000027:                                                                                                  #        THE POSITION OF THE MOON IS STORED IN THE COMPUTER IN THE FORM OF
000028:                                                                                                  #        A NINTH DEGREE POLYNOMIAL APPROXIMATION WHICH IS VALID OVER A 15
000029:                                                                                                  #        DAY INTERVAL BEGINNING SHORTLY BEFORE LAUNCH.  THEREFORE THE TIME
000030:                                                                                                  #        INPUT BY THE USER SHOULD FALL WITHIN THIS 15 DAY INTERVAL.
000031:                                                                                                  #


000039:
000040:                                                                                                  #        LSPOS COMPUTES THE POSITION VECTORS OF THE SUN AND THE MOON.
000041:
000042:                                                                                                  #        LUNPOS COMPUTES THE POSITION VECTOR OF THE MOON.
000043:
000044:                                                                                                  #        LUNVEL COMPUTES THE VELOCITY VECTOR OF THE MOON.
000045:
000046:                                                                                                  #  CALLING SEQUENCE
000047:
000048:                                                                                                  #        DLOAD   CALL
000049:                                                                                                  #                TIME            GROUND ELAPSED TIME
000050:                                                                                                  #                SUBROUTINE      LSPOS OR LUNPOS OR LUNVEL
000051:
000052:                                                                                                  #  INPUT
000053:
000054:                                                                                                  #        1) SPECIFIED GROUND ELAPSED TIME IN CS X B-28 LOADED IN MPAC.
000055:
000056:                                                                                                  #        2) TIMEMO - TIME AT THE CENTER OF THE RANGE OVER WHICH THE LUNAR
000057:                                                                                                  #           POSITION POLYNOMIAL IS VALID IN CS X B-42.
000058:
000059:                                                                                                  #        3) VECOEM - VECTOR COEFFICIENTS OF THE LUNAR POSITION POLYNOMIAL
000060:                                                                                                  #           LOADED IN DESCENDING SEQUENCE IN METERS/CS**N X B-2
000061:
000062:                                                                                                  #        4) RESO - POSITION VECTOR OF THE SUN RELATIVE TO THE EARTH AT
000063:                                                                                                  #           TIMEMO IN METERS X B-38.
000064:
000065:                                                                                                  #        5) VESO - VELOCITY VECTOR OF THE SUN RELATIVE TO THE EARTH AT
000066:                                                                                                  #           TIMEMO IN METERS/CS X B-9.
000067:                                                                                                  #
000068:                                                                                                  #        6) OMEGAES - ANGULAR VELOCITY OF THE VECTOR RESO AT TIMEMO IN
000069:                                                                                                  #           REV/CS X B+26.
000070:
000071:                                                                                                  #        ALL EXCEPT THE FIRST INPUT ARE INCLUDED IN THE PRE-LAUNCH
000072:                                                                                                  #        ERASABLE DATA LOAD.
000073:
000074:                                                                                                  #  OUTPUT - LSPOS
000075:
000076:                                                                                                  #        1) 2D OF VAC AREA CONTAINS THE POSITION VECTOR OF THE SUN RELATIVE


000078:                                                                                                  #           TO THE EARTH AT TIME INPUT BY THE USER IN METERS X B-38.
000079:
000080:                                                                                                  #        2) MPAC CONTAINS THE POSITION VECTOR OF THE MOON RELATIVE TO THE
000081:                                                                                                  #           EARTH AT TIME INPUT BY THE USER IN METERS X B-29.
000082:
000083:                                                                                                  #  OUTPUT - LUNPOS
000084:
000085:                                                                                                  #        MPAC CONTAINS THE POSITION VECTOR OF THE MOON RELATIVE TO THE
000086:                                                                                                  #        EARTH AT THE TIME INPUT BY USER IN METERS X B-29.
000087:
000088:                                                                                                  #  OUTPUT - LUNVEL
000089:
000090:                                                                                                  #        MPAC CONTAINS THE VELOCITY VECTOR OF THE MOON RELATIVE TO THE
000091:                                                                                                  #        EARTH AT TIME INPUT BY THE USER IN METERS/CS X B-7.
000092:
000093:                                                                                                  #  SUBROUTINES USED
000094:
000095:                                                                                                  #        NONE
000096:
000097:                                                                                                  #  REMARKS
000098:
000099:                                                                                                  #        THE VAC AREA IS USED FOR STORAGE OF INTERMEDIATE AND FINAL RESULTS
000100:                                                                                                  #        OF COMPUTATIONS.
000101:
000102:                                                                                                  #        S1, X1 AND X2 ARE USED BY THESE SUBROUTINES.
000103:                                                                                                  #        PRELAUNCH ERASABLE DATA LOAD ARE ONLY ERASABLE STORAGE USED BY
000104:                                                                                                  #        THESE SUBROUTINES.
000105:                                                                                                  #        RESTARTS DURING OPERATION OF THESE SUBROUTINES MUST BE HANDLED BY
000106:                                                                                                  #        THE USER.
000107:
000108: 26,2000                                           SETLOC   EPHEM
000109: 26,2000                                           BANK
000110:
000111: 26,2136                                           COUNT*   $$/EPHEM
000112: 26,2136  0003777                                  EBANK=   WHOCARES
000113: 26,2136           52170        LSPOS              AXT,1    GOTO
000114: 26,2137           54163                                    RES                                   #  AREA.  THE POSITION VECTOR OF THE MOON
000115: 26,2140           54146                                    LSTIME                                #  IS STORED IN MPAC.
000116: 26,2141           52170        LUNPOS             AXT,1    GOTO                                  #  COMPUTES THE POSITION VECTOR OF THE MOON
000117: 26,2142           54201                                    REM                                   #  AND STORES IT IN MPAC.
000118: 26,2143           54146                                    LSTIME
000119: 26,2144           77770        LUNVEL             AXT,1
000120: 26,2145           54212                                    VEM                                   #  AND STORES IT IN MPAC.
000121: 26,2146           54201        LSTIME             SETPD    SR
000122: 26,2147           00001                                    0D
000123: 26,2150           20617                                    14D
000124: 26,2151           57571                           TAD      DCOMP
000125: 26,2152           01707                                    TEPHEM
000126: 26,2153           57571                           TAD      DCOMP
000127: 26,2154           02034                                    TIMEMO


000129: 26,2155           66261                           SL       SSP
000130: 26,2156           20221                                    16D
000131: 26,2157           00051                                    S1
000132: 26,2160           00006                                    6D
000133: 26,2161           77650                           GOTO
000134: 26,2162           00046                                    X1
000135: 26,2163           41206        RES                PUSH     DMP                                   #                                        PD- 2
000136: 26,2164           02147                                    OMEGAES
000137: 26,2165           71406                           PUSH     COS                                   #                                        PD- 4
000138: 26,2166           65361                           VXSC     PDDL                                  #                                        PD- 8
000139: 26,2167           02133                                    RESO
000140: 26,2170           63356                           SIN      PDVL                                  #                                        PD-10
000141: 26,2171           02133                                    RESO
000142: 26,2172           53406                           PUSH     UNIT                                  #                                        PD-16
000143: 26,2173           53435                           VXV      UNIT
000144: 26,2174           02141                                    VESO
000145: 26,2175           76435                           VXV      VSL1                                  #                                        PD-10
000146: 26,2176           53361                           VXSC     VAD                                   #                                        PD-02
000147: 26,2177           77772                           VSL1
000148: 26,2200           14003        RESA               STODL    2D                                    #  RES IN METERS X B-38 IN 2D OF VAC.    PD- 0
000149: 26,2201           63370        REM                AXT,1    PDVL                                  #                                        PD- 2
000150: 26,2202           00066                                    54D
000151: 26,2203           02037                                    VECOEM
000152: 26,2204           52761        REMA               VXSC     VAD*
000153: 26,2205           00001                                    0D
000154: 26,2206           02133                                    VECOEM     +60D,1
000155: 26,2207           72500                           TIX,1    VSL2                                  #  REM IN METERS X B-29 IN MPAC.
000156: 26,2210           54204                                    REMA
000157: 26,2211           77616                           RVQ
000158: 26,2212           65370        VEM                AXT,1    PDDL                                  #                                        PD- 2
000159: 26,2213           00060                                    48D
000160: 26,2214           14233                                    NINEB4
000161: 26,2215           74206                           PUSH     VXSC                                  #                                        PD- 4
000162: 26,2216           02037                                    VECOEM
000163: 26,2217           77761        VEMA               VXSC
000164: 26,2220           00001                                    0D
000165: 26,2221           14005                           STODL    4D                                    #                                        PD- 2
000166: 26,2222           41425                           DSU      PUSH                                  #                                        PD- 4
000167: 26,2223           31771                                    ONEB4
000168: 26,2224           53357                           VXSC*    VAD
000169: 26,2225           02125                                    VECOEM     +54D,1
000170: 26,2226           00005                                    4D
000171: 26,2227           72500                           TIX,1    VSL2                                  #  VEM IN METERS/CS X B-7 IN MPAC.
000172: 26,2230           54217                                    VEMA
000173: 26,2231           77616                           RVQ
000174: 26,2232           22000 00000  NINEB4             2DEC     9.0        B-4
000175: 26,2234  34,3770               ONEB4              EQUALS   DP2(-4)                               #  1 B-4
000176:

End of include-file LUNAR_AND_SOLAR_EPHEMERIDES_SUBROUTINES.agc.  Parent file is MAIN.agc


