
Source Code


000002:                                                                                                  #  Copyright:    Public domain.
000003:                                                                                                  #  Filename:     LUNAR_AND_SOLAR_EPHEMERIDES_SUBROUTINES.agc
000004:                                                                                                  #  Purpose:      Part of the source code for Artemis (i.e., Colossus 3),
000005:                                                                                                  #                build 072.  This is for the Command Module's (CM)
000006:                                                                                                  #                Apollo Guidance Computer (AGC), we believe for
000007:                                                                                                  #                Apollo 15-17.
000008:                                                                                                  #  Assembler:    yaYUL
000009:                                                                                                  #  Contact:      Jim Lawton <jim DOT lawton AT gmail DOT com>
000010:                                                                                                  #  Website:      www.ibiblio.org/apollo/index.html
000011:                                                                                                  #  Page Scans:   www.ibiblio.org/apollo/ScansForConversion/Artemis072/
000012:                                                                                                  #  Mod history:  2009-08-11 JL   Adapted from corresponding Comanche 055 file.
000013:                                                                                                  #                2010-02-20 RSB  Un-##'d this header.
000014:


000016:
000017:                                                                                                  #  LUNAR AND SOLAR EPHEMERIDES SUBROUTINES
000018:
000019:                                                                                                  #  FUNCTIONAL DESCRIPTION
000020:
000021:                                                                                                  #        THESE SUBROUTINES ARE USED TO DETERMINE THE POSITION AND VELOCITY
000022:                                                                                                  #        VECTORS OF THE SUN AND THE MOON RELATIVE TO THE EARTH AT THE
000023:                                                                                                  #        SPECIFIED GROUND ELAPSED TIME INPUT BY THE USER.
000024:
000025:                                                                                                  #        THE POSITION OF THE MOON IS STORED IN THE COMPUTER IN THE FORM OF
000026:                                                                                                  #        A NINTH DEGREE POLYNOMIAL APPROXIMATION WHICH IS VALID OVER A 15
000027:                                                                                                  #        DAY INTERVAL BEGINNING SHORTLY BEFORE LAUNCH.  THEREFORE THE TIME
000028:                                                                                                  #        INPUT BY THE USER SHOULD FALL WITHIN THIS 15 DAY INTERVAL.
000029:                                                                                                  #


000037:
000038:                                                                                                  #        LSPOS COMPUTES THE POSITION VECTORS OF THE SUN AND THE MOON.
000039:
000040:                                                                                                  #        LUNPOS COMPUTES THE POSITION VECTOR OF THE MOON.
000041:
000042:                                                                                                  #        LUNVEL COMPUTES THE VELOCITY VECTOR OF THE MOON.
000043:
000044:                                                                                                  #  CALLING SEQUENCE
000045:
000046:                                                                                                  #        DLOAD   CALL
000047:                                                                                                  #                TIME            GROUND ELAPSED TIME
000048:                                                                                                  #                SUBROUTINE      LSPOS OR LUNPOS OR LUNVEL
000049:
000050:                                                                                                  #  INPUT
000051:
000052:                                                                                                  #        1) SPECIFIED GROUND ELAPSED TIME IN CS x B-28 LOADED IN MPAC.
000053:
000054:                                                                                                  #        2) TIMEMO - TIME AT THE CENTER OF THE RANGE OVER WHICH THE LUNAR
000055:                                                                                                  #           POSITION POLYNOMIAL IS VALID IN CS x B-42.
000056:
000057:                                                                                                  #        3) VECOEM - VECTOR COEFFICIENTS OF THE LUNAR POSITION POLYNOMIAL
000058:                                                                                                  #           LOADED IN DESCENDING SEQUENCE IN METERS/CS**N x B-2
000059:
000060:                                                                                                  #        4) RESO - POSITION VECTOR OF THE SUN RELATIVE TO THE EARTH AT
000061:                                                                                                  #           TIMEMO IN METERS x B-38
000062:
000063:                                                                                                  #        5) VESO - VELOCITY VECTOR OF THE SUN RELATIVE TO THE EARTH AT
000064:                                                                                                  #           TIMEMO IN METERS/CS x B-9
000065:                                                                                                  #
000066:                                                                                                  #        6) OMEGAES - ANGULAR VELOCITY OF THE VECTOR RESO AT TIMEMO IN
000067:                                                                                                  #           REV/CS x B+26.
000068:
000069:                                                                                                  #        ALL EXCEPT THE FIRST INPUT ARE INCLUDED IN THE PRE-LAUNCH
000070:                                                                                                  #        ERASABLE DATA LOAD.
000071:
000072:                                                                                                  #  OUTPUT - LSPOS
000073:
000074:                                                                                                  #        1) 2D OF VAC AREA CONTAINS THE POSITION VECTOR OF THE SUN RELATIVE


000076:                                                                                                  #           TO THE EARTH AT TIME INPUT BY THE USER IN METERS x B-38.
000077:
000078:                                                                                                  #        2) MPAC CONTAINS THE POSITION VECTOR OF THE MOON RELATIVE TO THE
000079:                                                                                                  #           EARTH AT TIME INPUT BY THE USER IN METERS x B-29.
000080:
000081:                                                                                                  #  OUTPUT - LUNPOS
000082:
000083:                                                                                                  #        MPAC CONTAINS THE POSITION VECTOR OF THE MOON RELATIVE TO THE
000084:                                                                                                  #        EARTH AT THE TIME INPUT BY USER IN METERS x B-29.
000085:
000086:                                                                                                  #  OUTPUT - LUNVEL
000087:
000088:                                                                                                  #        MPAC CONTAINS THE VELOCITY VECTOR OF THE MOON RELATIVE TO THE
000089:                                                                                                  #        EARTH AT THE TIME INPUT BY THE USER IN METERS/CS x B-7.
000090:
000091:                                                                                                  #  SUBROUTINES USED
000092:
000093:                                                                                                  #        NONE
000094:
000095:                                                                                                  #  REMARKS
000096:
000097:                                                                                                  #        THE VAC AREA IS USED FOR STORAGE OF INTERMEDIATE AND FINAL RESULTS
000098:                                                                                                  #        OF COMPUTATIONS.
000099:
000100:                                                                                                  #        S1, X1, AND X2 ARE USED BY THESE SUBROUTINES.
000101:                                                                                                  #        PRELAUNCH ERASABLE DATA LOAD ARE ONLY ERASABLE STORAGE USED BY
000102:                                                                                                  #        THESE SUBROUTINES.
000103:                                                                                                  #        RESTARTS DURING OPERATION OF THESE SUBROUTINES MUST BE HANDLED BY
000104:                                                                                                  #        THE USER.
000105:
000106: 26,2000                                           SETLOC   EPHEM
000107: 26,2000                                           BANK
000108:
000109: 26,2136                                           COUNT*   $$/EPHEM
000110: 26,2136  0003777                                  EBANK=   WHOCARES
000111: 26,2136           52170        LSPOS              AXT,1    GOTO
000112: 26,2137           54163                                    RES                                   #  AREA.  THE POSITION VECTOR OF THE MOON
000113: 26,2140           54146                                    LSTIME                                #  IS STORED IN MPAC.
000114: 26,2141           52170        LUNPOS             AXT,1    GOTO                                  #  COMPUTES THE POSITION VECTOR OF THE MOON
000115: 26,2142           54201                                    REM                                   #  AND STORES IT IN MPAC.
000116: 26,2143           54146                                    LSTIME
000117: 26,2144           77770        LUNVEL             AXT,1
000118: 26,2145           54212                                    VEM                                   #  AND STORES IT IN MPAC.
000119: 26,2146           54201        LSTIME             SETPD    SR
000120: 26,2147           00001                                    0D
000121: 26,2150           20617                                    14D
000122: 26,2151           57571                           TAD      DCOMP
000123: 26,2152           01707                                    TEPHEM
000124: 26,2153           57571                           TAD      DCOMP
000125: 26,2154           02034                                    TIMEMO


000127: 26,2155           66261                           SL       SSP
000128: 26,2156           20221                                    16D
000129: 26,2157           00051                                    S1
000130: 26,2160           00006                                    6D
000131: 26,2161           77650                           GOTO
000132: 26,2162           00046                                    X1
000133: 26,2163           41206        RES                PUSH     DMP                                   #                                        PD- 2
000134: 26,2164           02147                                    OMEGAES
000135: 26,2165           71406                           PUSH     COS                                   #                                        PD- 4
000136: 26,2166           65361                           VXSC     PDDL                                  #                                        PD- 8
000137: 26,2167           02133                                    RESO
000138: 26,2170           63356                           SIN      PDVL                                  #                                        PD-10
000139: 26,2171           02133                                    RESO
000140: 26,2172           53406                           PUSH     UNIT                                  #                                        PD-16
000141: 26,2173           53435                           VXV      UNIT
000142: 26,2174           02141                                    VESO
000143: 26,2175           76435                           VXV      VSL1                                  #                                        PD-10
000144: 26,2176           53361                           VXSC     VAD                                   #                                        PD-02
000145: 26,2177           77772                           VSL1
000146: 26,2200           14003        RESA               STODL    2D                                    #  RES IN METERS x B-38 IN 2D OF VAC.    PD- 0
000147: 26,2201           63370        REM                AXT,1    PDVL                                  #                                        PD- 2
000148: 26,2202           00066                                    54D
000149: 26,2203           02037                                    VECOEM
000150: 26,2204           52761        REMA               VXSC     VAD*
000151: 26,2205           00001                                    0D
000152: 26,2206           02133                                    VECOEM     +60D,1
000153: 26,2207           72500                           TIX,1    VSL2                                  #  REM IN METERS x B-29 IN MPAC.
000154: 26,2210           54204                                    REMA
000155: 26,2211           77616                           RVQ
000156: 26,2212           65370        VEM                AXT,1    PDDL                                  #                                        PD- 2
000157: 26,2213           00060                                    48D
000158: 26,2214           14233                                    NINEB4
000159: 26,2215           74206                           PUSH     VXSC                                  #                                        PD- 4
000160: 26,2216           02037                                    VECOEM
000161: 26,2217           77761        VEMA               VXSC
000162: 26,2220           00001                                    0D
000163: 26,2221           14005                           STODL    4D                                    #                                        PD- 2
000164: 26,2222           41425                           DSU      PUSH                                  #                                        PD- 4
000165: 26,2223           31771                                    ONEB4
000166: 26,2224           53357                           VXSC*    VAD
000167: 26,2225           02125                                    VECOEM     +54D,1
000168: 26,2226           00005                                    4D
000169: 26,2227           72500                           TIX,1    VSL2                                  #  VEM IN METERS/CS x B-7 IN MPAC.
000170: 26,2230           54217                                    VEMA
000171: 26,2231           77616                           RVQ
000172: 26,2232           22000 00000  NINEB4             2DEC     9.0        B-4
000173: 26,2234  34,3770               ONEB4              EQUALS   DP2(-4)                               #  1 B-4
000174:

End of include-file LUNAR_AND_SOLAR_EPHEMERIDES_SUBROUTINES.agc.  Parent file is MAIN.agc


