
Source Code


000002:                                                                                                 #  Copyright:     Public domain.
000003:                                                                                                 #  Filename:      MYSUBS.agc
000004:                                                                                                 #  Purpose:       Part of the source code for Artemis (i.e., Colossus 3),
000005:                                                                                                 #                 build 072.  This is for the Command Module's (CM)
000006:                                                                                                 #                 Apollo Guidance Computer (AGC), we believe for
000007:                                                                                                 #                 Apollo 15-17.
000008:                                                                                                 #  Assembler:     yaYUL
000009:                                                                                                 #  Contact:       Sergio Navarro <sergionavarrog@gmail.com>
000010:                                                                                                 #  Website:       www.ibiblio.org/apollo/index.html
000011:                                                                                                 #  Page scans:    www.ibiblio.org/apollo/ScansForConversion/Artemis072/
000012:                                                                                                 #  Mod history:   2009-08-27 SN   Adapted from corresponding Comanche 055 file.
000013:                                                                                                 #                 2009-09-04 JL   Fix typos.
000014:                                                                                                 #                 2010-02-20 RSB  Un-##'d this header.
000015:


000017:
000018: 21,2000                                          SETLOC   MYSUBS
000019: 21,2000                                          BANK
000020:
000021: 21,2060  E6,1510                                 EBANK=   KMPAC
000022: 21,2060     5060               SPCOS1            EQUALS   SPCOS
000023: 21,2060     5061               SPSIN1            EQUALS   SPSIN
000024: 21,2060     5060               SPCOS2            EQUALS   SPCOS
000025: 21,2060     5061               SPSIN2            EQUALS   SPSIN
000026:
000027: 21,2060                                          COUNT*   $$/DAPMS
000028:
000029:                                                                                                 #  ONE AND ONE HALF PRECISION MULTIPLICATION ROUTINE
000030:
000031: 21,2060           55512        SMALLMP           TS       KMPTEMP                               #  A(X+Y)
000032: 21,2061           00006                          EXTEND
000033: 21,2062           71511                          MP       KMPAC      +1
000034: 21,2063           55511                          TS       KMPAC      +1                         #  AY
000035: 21,2064           34772                          CAF      ZERO
000036: 21,2065           57510                          XCH      KMPAC
000037: 21,2066           00006                          EXTEND
000038: 21,2067           71512                          MP       KMPTEMP                               #  AX
000039: 21,2070           21511                          DAS      KMPAC                                 #  AX+AY
000040: 21,2071           00002                          TC       Q
000041:
000042:                                                                                                 #  SUBROUTINE FOR DOUBLE PRECISION ADDITIONS OF ANGLES
000043:                                                                                                 #  A AND L CONTAIN A DP(1S) ANGLE SCALED BY 180 DEGS TO BE ADDED TO KMPAC.
000044:                                                                                                 #  RESULT IS PLACED IN KMPAC.  TIMING = 6 MCT (22 MCT ON OVERFLOW)
000045:
000046: 21,2072           21511        DPADD             DAS      KMPAC
000047: 21,2073           00006                          EXTEND
000048: 21,2074           12111                          BZF      TSK        +1                         #  NO OVERFLOW
000049: 21,2075           11510                          CCS      KMPAC
000050: 21,2076           12112                          TCF      DPADD+                                #  + OVERFLOW
000051: 21,2077           12101                          TCF      +2
000052: 21,2100           12114                          TCF      DPADD-                                #  - OVERFLOW
000053: 21,2101           11511                          CCS      KMPAC      +1
000054: 21,2102           12117                          TCF      DPADD2+                               #  UPPER = 0, LOWER +
000055: 21,2103           12105                          TCF      +2
000056: 21,2104           40000                          COM                                            #  UPPER = 0, LOWER -
000057: 21,2105           64750                          AD       POSMAX                                #  LOWER = 0, A=0
000058: 21,2106           55511                          TS       KMPAC      +1                         #  CAN NOT OVERFLOW
000059: 21,2107           34750                          CA       POSMAX                                #  UPPER WAS = 0
000060: 21,2110           55510        TSK               TS       KMPAC
000061: 21,2111           00002                 +1       TC       Q
000062: 21,2112           64752        DPADD+            AD       NEGMAX                                #  KMPAC GREATER THAN 0
000063: 21,2113           12110                          TCF      TSK
000064:
000065: 21,2114           40000        DPADD-            COM
000066: 21,2115           64750                          AD       POSMAX                                #  KMPAC LESS THAN 0


000068: 21,2116           12110                          TCF      TSK
000069:
000070: 21,2117           64752        DPADD2+           AD       NEGMAX                                #  CAN NOT OVERFLOW
000071: 21,2120           55511                          TS       KMPAC      +1
000072: 21,2121           34752                          CA       NEGMAX                                #  UPPER WAS = 0
000073: 21,2122           12110                          TCF      TSK
000074:


End of include-file MYSUBS.agc.  Parent file is MAIN.agc


