
Source Code


000002:                                                                                                 #  Copyright:     Public domain.
000003:                                                                                                 #  Filename:     P11.agc
000004:                                                                                                 #  Purpose:       Part of the source code for Artemis (i.e., Colossus 3),
000005:                                                                                                 #                 build 072.  This is for the Command Module's (CM)
000006:                                                                                                 #                 Apollo Guidance Computer (AGC), we believe for
000007:                                                                                                 #                 Apollo 15-17.
000008:                                                                                                 #  Assembler:     yaYUL
000009:                                                                                                 #  Contact:       Jim Lawton <jim DOT lawton AT gmail DOT com>
000010:                                                                                                 #  Website:       www.ibiblio.org/apollo/index.html
000011:                                                                                                 #  Page scans:    www.ibiblio.org/apollo/ScansForConversion/Artemis072/
000012:                                                                                                 #  Mod history:   2010-01-26 JL   Started Artemis072 conversion based on Comanche055 module.
000013:                                                                                                 #                 2010-01-27 JL   Finished conversion.
000014:                                                                                                 #                 2010-02-02 JL   Removed extra line left over from Comanche055.
000015:                                                                                                 #                 2010-02-20 RSB  Un-##'d this header.
000016:


000018:
000019:                                                                                                 #  EARTH ORBIT INSERTION MONITOR PROGRAM
000020:                                                                                                 #  *************************************
000021:
000022:                                                                                                 #  PROGRAM DESCRIPTION -P11-
000023:
000024:                                                                                                 #         MOD NO. 1
000025:                                                                                                 #         MOD BY ELIASSEN
000026:
000027:                                                                                                 #  FUNCTIONAL DESCRIPTION
000028:
000029:                                                                                                 #         P11 IS INITIATED BY
000030:
000031:                                                                                                 #                 A) GYROCOMPASS PRG P02 WHEN LIFTOFF DISCRETE IS RECEIVED OR
000032:                                                                                                 #                 B) BACKUP THRU VERB 75 ENTER
000033:
000034:                                                                                                 #         PROGRAM WILL
000035:                                                                                                 #                 1. ZERO CMC CLOCK AT LIFTOFF (OR UPON RECEIPT OF BACKUP)
000036:                                                                                                 #                 2. UPDATE TEPHEM TO TIME CMC CLOCK WAS ZEROED
000037:                                                                                                 #                 3. INITIATE SERVICER AT PREREAD1
000038:                                                                                                 #                 4. CHANGE MAJOR MODE TO 11
000039:                                                                                                 #                 5. CLEAR DSKY IN CASE OF V 75
000040:                                                                                                 #                 6. STORE LIFTOFF IMU-CDU ANGLES FOR ATT. ERROR DISPLAY
000041:                                                                                                 #                 7. TERMINATE GYROCOMPASSING -   -
000042:                                                                                                 #                 8. COMPUTE INITIAL VECTORS  RN, VN                -  -  -
000043:                                                                                                 #                 9. COMPUTE REFSMMAT FOR PRELAUNCH ALIGNMENT WHERE U ,U ,U  ARE
000044:                                                                                                 #                         -         -                                X  Y  Z
000045:                                                                                                 #                         U =UNIT(-R) LOCAL VERTICAL AT TIME OF LIFTOFF
000046:                                                                                                 #                          Z
000047:                                                                                                 #                         -        -   -
000048:                                                                                                 #                         U =UNIT (A), A=HOR VECTOR AT LAUNCH AZIMUTH
000049:                                                                                                 #                          X
000050:                                                                                                 #                         -  -   -
000051:                                                                                                 #                         U =U * U
000052:                                                                                                 #                          U  Z   X
000053:                                                                                                 #
000054:                                                                                                 #                 10. SET REFSMMAT KNOWN FLAG
000055:                                                                                                 #                 11. SET AVGEXIT IN SERVICER TO VHHDOT TO
000056:                                                                                                 #                     COMPUTE AND DISPLAY NOUN 62 EVERY 2 SECONDS
000057:
000058:                                                                                                 #                     R1  V1   - INTERTIAL VELOCITY MAGNITUDE IN FPS
000059:                                                                                                 #                     R2  HDOT - RATE OF CHANGE OF VEHICLE VEL IN FPS
000060:                                                                                                 #                     R3  H    - VEHICLE ALTITUDE ABOVE PAD IN NM
000061:                                                                                                 #
000062:                                                                                                 #                 12. DISPLAY BODY AXES ATT. ERRORS ON FDAI NEEDLES
000063:
000064:                                                                                                 #                     A) FROM L.O. TO RPSTART (APPROX. 0 TO +10SECS AFTER L.O.)
000065:                                                                                                 #                        DESIRED ATTITUDE IS AS STORED AT L.O.
000066:                                                                                                 #                     B) FROM RPSTART TO POLYSTOP (APPROX.+10 TO +133SECS AFTER LO)
000067:                                                                                                 #                        DESIRED ATTITUDE IS SPECIFIED BY CMC PITCH AND ROLL
000068:                                                                                                 #                        POLYNOMIALS DURING SATURN ROLLOUT AND PITCHOVER


000070:                                                                                                 #                        THE DISPLAY IS RUN AS LOW PRIORITY JOB APPROX.
000071:                                                                                                 #                        EVERY 1/2 SEC OR LESS AND IS DISABLED UPON OVFLO OF TIME1
000072:
000073:                                                                                                 #  SUBROUTINES CALLED
000074:
000075:                                                                                                 #            2PHSCHNG  BANKCALL  CALCGRA   CDUTRIG   CLEANDSP  DANZIG
000076:                                                                                                 #            DELAYJOB  EARTHR    ENDOFJOB  FINDVAC   IBNKCALL
000077:                                                                                                 #            INTPRET   LALOTORV  NEEDLER   NEWMODEX  PHASCHNG
000078:                                                                                                 #            POSTJUMP  POWRSERS  PREREAD1  REGODSPR  S11.1
000079:                                                                                                 #            SERVEXIT  TASKOVER  TCDANZIG  V1STO2S   WAITLIST
000080:
000081:                                                                                                 #  ASTRONAUT REQUESTS (IF ALTITUDE ABOVE 300,000 FT)
000082:
000083:                                                                                                 #         DSKY -
000084:                                                                                                 #              MONITOR DISPLAY OF TIME TO PERIGEE R1 HOURS
000085:                                                                                                 #                                                 R2 MINUTES
000086:
000087:                                                                                                 #         DSKY -
000088:                                                                                                 #              MONITOR DISPLAY OF R1 APOGEE ALTITUDE IN NAUTICAL MILES
000089:                                                                                                 #                                 R2 PERIGEE ALTITUDE IN NAUTICAL MILES
000090:                                                                                                 #                                 R3 TFF IN MINUTES/SECS
000091:
000092:                                                                                                 #         IF ASTRONAUT HAS REQUESTED ANY OF THESE DISPLAYS HE MUST
000093:                                                                                                 #  HIT PROCEED TO RETURN TO NORMAL NOUN 62 DISPLAY.
000094:                                                                                                 #  NORMAL EXIT MODE
000095:
000096:                                                                                                 #         ASTRONAUT  VERB 37 ENTER 00 ENTER
000097:
000098:                                                                                                 #  ALARM MODES - NONE
000099:
000100:                                                                                                 #  ABORT EXIT MODES -
000101:
000102:                                                                                                 #  OUTPUT
000103:
000104:                                                                                                 #         TLIFTOFF (DP)  TEPHEM (TP)
000105:                                                                                                 #         REFSMMAT
000106:                                                                                                 #         DSKY DISPLAY
000107:                                                                                                 #         FDAI DISPLAY
000108:
000109:                                                                                                 #  ERASABLE INITIALIZATION
000110:
000111:                                                                                                 #         AZO, AXO, -AYO
000112:                                                                                                 #         LATITUDE
000113:                                                                                                 #         PADLONG
000114:                                                                                                 #         TEPHEM
000115:                                                                                                 #         PGNCSALT
000116:                                                                                                 #         POLYNUM THRU POLYNUM +14D)
000117:                                                                                                 #         RPSTART
000118:                                                                                                 #         POLYSTOP
000119:                                                                                                 #  FLAGS SET OR RESET


000121:                                                                                                 #         SET REFSMFLG
000122:                                                                                                 #         SET DVMON IDLE FLAG
000123:                                                                                                 #         CLEAR ERADFLAG
000124:
000125:                                                                                                 #  DEBRIS
000126:
000127:                                                                                                 #         LIFTTEMP
000128:                                                                                                 #         POLYNUM THRU POLYNUM +7
000129:                                                                                                 #         SPOLYARG
000130:                                                                                                 #         BODY1, BODY2, BODY3
000131:                                                                                                 #         VMAG2, ALTI, HDOT
000132:                                                                                                 #         CENTRALS, CORE SET, AND VAC AREAS
000133: ???????     5010               BITS5-6           =        SUPER011
000134: 34,2000                                          SETLOC   P11ONE
000135: 34,2000                                          BANK
000136:
000137: 34,2000                                          COUNT*   $$/P11
000138: 34,2000  E3,1706                                 EBANK=   TEPHEM
000139: 34,2000           35024        P11               CA       EBANK3
000140: 34,2001           54003                          TS       EBANK
000141:
000142: 34,2002           00006                          EXTEND
000143: 34,2003           32274                          DCA      REP11S                                #  DIRECT RESTARTS TO REP11
000144: 34,2004           53162                          DXCH     -PHASE3
000145: 34,2005  01,2071               3P11SPT1          =        3.11SPOT
000146: 34,2005           44772                          CS       ZERO
000147: 34,2006           22007                          ZL
000148: 34,2007           55126                          TS       LIFTTEMP
000149: 34,2010           53166                          DXCH     -PHASE5                               #  INACTIVE GROUP 5, PRELAUNCH PROTECTION
000150: 34,2011           00006        P11+7             EXTEND
000151: 34,2012           32276                          DCA      REP11SA
000152: 34,2013           53022                          DXCH     TLIFTOFF
000153:
000154: 34,2014           00006                          EXTEND
000155: 34,2015           30025        ZROCLOCK          DCA      TIME2
000156: 34,2016           53127                          DXCH     LIFTTEMP                              #  FOR RESTARTS
000157:
000158: 34,2017           34772                 -5       CAF      ZERO
000159: 34,2020           22007                          ZL
000160: 34,2021           52025                          DXCH     TIME2
000161: 34,2022           53022        REP11A-2          DXCH     TLIFTOFF
000162: 34,2023           53162        REP11A-1          DXCH     -PHASE3                               #  RESET PHASE
000163:
000164: 34,2024  01,2074               3P13SPT1          =        3.13SPOT
000165: 34,2024           00004        REP11A            INHINT
000166: 34,2025           00006                          EXTEND
000167: 34,2026           31710                          DCA      TEPHEM     +1
000168: 34,2027           53132                          DXCH     TEPHEM1    +1
000169: 34,2030           31706                          CA       TEPHEM


000171: 34,2031           57130                          XCH      TEPHEM1
000172:
000173: 34,2032           00006                          EXTEND
000174: 34,2033           31022                          DCA      TLIFTOFF
000175: 34,2034           21132                          DAS      TEPHEM1    +1
000176: 34,2035           27130                          ADS      TEPHEM1                               #  CORRECTOFOR OVERFLOW
000177:
000178: 34,2036           05402                          TC       PHASCHNG
000179: 34,2037           05023                          OCT      05023
000180: 34,2040           22000                          OCT      22000
000181:
000182: 34,2041           00004                          INHINT
000183: 34,2042           00006                          EXTEND
000184: 34,2043           31131                          DCA      TEPHEM1
000185: 34,2044           53707                          DXCH     TEPHEM
000186: 34,2045           31132                          CA       TEPHEM1    +2
000187: 34,2046           57710                          XCH      TEPHEM     +2
000188:
000189: 34,2047           35046                          CAF      EBANK7
000190: 34,2050           54003                          TS       EBANK
000191: 34,2051  E7,1425                                 EBANK=   DVTOTAL
000192: 34,2051           04714                          TC       IBNKCALL
000193: 34,2052           76630                          CADR     PREREAD1                              #  ZERO PIPS AND INITIALIZE AVERAGEG
000194:
000195: 34,2053           05402                          TC       PHASCHNG
000196: 34,2054           05023                          OCT      05023                                 #  CONTINUE HERE ON RESTART
000197: 34,2055           22000                          OCT      22000
000198:
000199: 34,2056           35011                          CAF      .5SEC                                 #  START ATT ERROR DISPLAY
000200: 34,2057           05233                          TC       WAITLIST                              #  IN .5 SEC
000201: 34,2060  E6,1704                                 EBANK=   SPOLYARG
000202: 34,2060           02315 70066                    2CADR    ATERTASK
000203:
000204: 34,2062           05344                          TC       NEWMODEX                              #  DISPLAY MM 11
000205: 34,2063           00013                          MM       11         B-14
000206:
000207: 34,2064           05547                          TC       UPFLAG
000208: 34,2065           00022                          ADRES    NODOP01
000209:
000210: 34,2066           36214                          CA       POWDNCOD                              #  SWITCH TO POWERED FLIGHT DOWNLIST
000211: 34,2067           54332                          TS       DNLSTCOD
000212:
000213: 34,2070           04636                          TC       BANKCALL
000214: 34,2071           20715                          CADR     CLEANDSP                              #  CLEAR DSKY IN CASE OF V75
000215:
000216: 34,2072           05362                          TC       2PHSCHNG
000217: 34,2073           40514                          OCT      40514                                 #  PROTECT ATERTASK
000218: 34,2074           00073                          OCT      00073
000219: 34,2075  01,2066               3P7SPT1           =        3.7SPOT


000221: 34,2075  01,2215               4P51SPT1          =        4.51SPOT
000222: 34,2075           35043                          CAF      EBANK5
000223: 34,2076           54003                          TS       EBANK
000224:
000225: 34,2077  E5,1426                                 EBANK=   QPLACES
000226: 34,2077           32277                          CA       P11XIT                                #  SET EXIT FROM PROUT IN EARTHR
000227: 34,2100           55426                          TS       QPLACES
000228: 34,2101           06006                          TC       INTPRET
000229: 34,2102           64375                          VLOAD    MXV
000230: 34,2103           02467                                   THETAN
000231: 34,2104           02672                                   XSM
000232: 34,2105           53372                          VSL1     VAD
000233: 34,2106           02650                                   ERCOMP
000234: 34,2107           16650                          STODL    ERCOMP
000235: 34,2110           01022                                   TLIFTOFF
000236: 34,2111           52131                          SSP      GOTO
000237: 34,2112           00052                                   S2
000238: 34,2113           66202                          CADR     PROUT                                 #  RETURN FROM EARTHR
000239: 34,2114           66151                                   EARTHR     +3
000240: 34,2115           22007        MATRXJOB          ZL                                             #  STORE DP GIMBAL ANGLES FOR ATTITUDE
000241: 34,2116           30032                          CA       CDUX                                  #        ERROR DISPLAY AFTER LIFTOFF
000242: 34,2117           53760                          DXCH     OGC
000243: 34,2120           22007                          ZL
000244: 34,2121           30033                          CA       CDUY
000245: 34,2122           53762                          DXCH     IGC
000246: 34,2123           22007                          ZL
000247: 34,2124           30034                          CA       CDUZ
000248: 34,2125           53764                          DXCH     MGC
000249: 34,2126           06006                          TC       INTPRET                               #        -
000250: 34,2127           74575                          VLOAD    VSR1                                  #  SCALE OGC  B-1
000251: 34,2130           02760                                   OGC
000252: 34,2131           02760                          STORE    OGC
000253: 34,2132           77731                          SSP                                            #  ZERO RTX2
000254: 34,2133           03747                                   RTX2                                  #  FOR
000255: 34,2134           00000                                   0                                     #  EARTH
000256: 34,2135           65345                          DLOAD    PDDL
000257: 34,2136           01134                                   PGNCSALT                              #  ALTITUDE OF PGNCS
000258: 34,2137           01136                                   PADLONG                               #  LONGITUDE
000259: 34,2140           55525                          PDDL     VDEF
000260: 34,2141           02403                                   LATITUDE                              #  GEODETIC LATITUDE
000261: 34,2142           14747                          STODL    LAT                                   #  LAT,LONG,ALT ARE CONSECUTIVE
000262: 34,2143           15336                                   HI6ZEROS                              #  TIME = 0
000263: 34,2144           45014                          CLEAR    CALL
000264: 34,2145           00662                                   ERADFLAG
000265: 34,2146           26524                                   LALOTORV                              #  CONVERT TO POSITION VECTOR IN REF.COORDS
000266:
000267: 34,2147           35071                          STCALL   RN1                                   #               -
000268: 34,2150           70331                                   GETDOWN                               #  RETURN WITH VECTOR FOR DOWN DIRECTION
000269: 34,2151           53476                          VCOMP    UNIT
000270: 34,2152           25750                          STOVL    REFSMMAT   +12D                       #  UNITZ = UNIT(GRAV)


000272: 34,2153           01071                                   RN1
000273: 34,2154           74235                          VXV      VXSC
000274: 34,2155           01712                                   UNITW                                 #  SCALED AT 1
000275: 34,2156           30301                                   -ERTHRAT                              #  V = EARTHRATE X R
000276: 34,2157           77712                          VSL4                                           #  SCALE TO 2(7) M/CS
000277: 34,2160           25077                          STOVL    VN1
000278: 34,2161           01750                                   REFSMMAT   +12D
000279: 34,2162           53435                          VXV      UNIT
000280: 34,2163           01712                                   UNITW                                 #  (REF3 X UNITW) = EAST
000281: 34,2164           47206                          PUSH     VXV
000282: 34,2165           01750                                   REFSMMAT   +12D                       #   (EAST X REF3) = -SOUTH
000283: 34,2166           65256                          UNIT     PDDL
000284: 34,2167           02634                                   LAUNCHAZ                              #   COS(AZ)*SOUTH
000285: 34,2170           74346                          COS      VXSC
000286: 34,2171           77626                          STADR
000287: 34,2172           62043                          STODL    REFSMMAT                              #  TEMPORARY STORAGE
000288: 34,2173           02634                                   LAUNCHAZ
000289: 34,2174           74356                          SIN      VXSC                                  #   SIN(AZ)*EAST
000290: 34,2175           53455                          VAD      UNIT                                  #   SIN(AZ)*EAST - COS(AZ)*SOUTH = REF1
000291: 34,2176           01734                                   REFSMMAT
000292: 34,2177           01734                          STORE    REFSMMAT
000293:
000294: 34,2200           53435                          VXV      UNIT                                  #  (REF1 X REF3) = -REF3
000295: 34,2201           01750                                   REFSMMAT   +12D
000296: 34,2202           77676                          VCOMP
000297: 34,2203           01742                          STORE    REFSMMAT   +6
000298: 34,2204           45345        TRNVNREF          DLOAD    DSU
000299: 34,2205           15334                                   DPHALF                                #  1/2 REV
000300: 34,2206           02634                                   LAUNCHAZ
000301: 34,2207           65215                          DAD      PDDL
000302: 34,2210           02401                                   AZIMUTH
000303: 34,2211           03301                                   SATRLRT                               #  SET  SATRLRT = -SATRLRT IF
000304: 34,2212           45565                          SIGN     STADR                                 #  (1/2REV -LAVNCHAZ +AZIMUTH) IS NEGATIVE
000305: 34,2213           74476                          STORE    SATRLRT                               #  FOR ROLL CALC IN FDAI ATT. ERROR DISPLAY
000306: 34,2214           77414                          SET      EXIT
000307: 34,2215           01462                                   REFSMFLG                              #  SET REFSMMAT KNOWN FLAG
000308:
000309: 34,2216           05402                          TC       PHASCHNG
000310: 34,2217           04023                          OCT      04023
000311:
000312: 34,2220           00006                          EXTEND
000313: 34,2221           32303                          DCA      P11SCADR
000314: 34,2222           53062                          DXCH     AVGEXIT                               #  SET AVGEXIT
000315:
000316: 34,2223           37652                          CA       PRIO31                                #  2 SECONDS AT 2(+8)
000317: 34,2224           55277                          TS       1/PIPADT
000318:
000319: 34,2225  E6,1501                                 EBANK=   RCSFLAGS
000320: 34,2225           04611                          TC       E6SETTER
000321:


000323: 34,2226           00004                          INHINT
000324: 34,2227           44772                          CS       ZERO
000325: 34,2230           55267                          TS       TBASE5                                #  RESTART READACCS 2 SECONDS AFTER LIFTOFF
000326:
000327: 34,2231           40025                          CS       TIME1
000328: 34,2232           65017                          AD       2SECS                                 #  DO READACCS 2 SECONDS AFTER LIFTOFF
000329:
000330: 34,2233           10000                          CCS      A                                     #  CHECK TO INSURE DT IS POSITIVE
000331: 34,2234           12237                          TCF      +3                                    #  TIME POSITIVE
000332: 34,2235           12237                          TCF      +2                                    #  CANNOT GET HERE
000333: 34,2236           34772                          CA       ZERO                                  #  TIME NEGATIVE - SET TO 1
000334: 34,2237           64770                          AD       ONE                                   #  RESTORE TIME  -  OR MAKE POSITIVE
000335:
000336: 34,2240           05233                          TC       WAITLIST
000337: 34,2241  E6,1661                                 EBANK=   AOG
000338: 34,2241           02652 76066                    2CADR    READACCS
000339: 34,2243           05362                          TC       2PHSCHNG
000340: 34,2244           00003                          OCT      00003                                 #  TURN OFF GROUP 3
000341: 34,2245           00025                          OCT      00025                                 #  PROTECT NORMLIZE AND READACCS
000342:
000343: 34,2246  01,2234               5P2SPT1           =        5.2SPOT
000344: 34,2246           04655                          TC       POSTJUMP
000345: 34,2247           77154                          CADR     NORMLIZE                              #  DO NORMLIZE AND ENDOFJOB
000346:
000347:
000348: 34,2250  E3,1706                                 EBANK=   TEPHEM
000349: 34,2250           00004        REP11             INHINT
000350: 34,2251           11166                          CCS      PHASE5
000351: 34,2252           05205                          TC       ENDOFJOB
000352:
000353: 34,2253           11126                          CCS      LIFTTEMP
000354: 34,2254           12260                          TCF      +4
000355: 34,2255           12260                          TCF      +3
000356: 34,2256           12260                          TCF      +2
000357: 34,2257           12011                          TCF      P11+7
000358:
000359: 34,2260           41021                          CS       TLIFTOFF
000360: 34,2261           00006                          EXTEND
000361: 34,2262           62270                          BZMF     ENDREP11
000362:
000363: 34,2263           10024                          CCS      TIME2                                 #  **TIME2 MUST BE NON-ZERO AT LIFTOFF**
000364: 34,2264           12017                          TCF      REP11A     -5                         #  T2,T1 NOT YET ZEROED, GO AND DO IT
000365:
000366: 34,2265           00006                          EXTEND                                         #  T2,T1 ZEROED, SET TLIFTOFF
000367: 34,2266           31127                          DCA      LIFTTEMP
000368: 34,2267           12022                          TCF      REP11A-2
000369:
000370: 34,2270           00006        ENDREP11          EXTEND
000371: 34,2271           32276                          DCA      REP11SA


000373: 34,2272           12023                          TCF      REP11A-1
000374:
000375:
000376: 34,2273           77766 00011  REP11S            2OCT     7776600011
000377: 34,2275           77764 00013  REP11SA           2OCT     7776400013
000378:
000379:
000380: 34,2277           02225        P11XIT            GENADR   P11OUT
000381: 34,2300           71704 41735  -ERTHRAT          2DEC*    -7.292115138 E-7        B18*            #  - EARTH RATE AT 2(18)
000382: 34,2302  E6,1704                                 EBANK=   SPOLYARG
000383: 34,2302           02304 70066  P11SCADR          2CADR    VHHDOT
000384: 34,2304     6214               POWDNCOD          EQUALS   THREE
000385:
000386:
000387: 34,2304  E6,1704                                 EBANK=   SPOLYARG
000388:                                                                                                 #  VHHDOT IS EXECUTED EVERY 2 SECONDS TO DISPLAY ON DSKY
000389:                                                                                                 #                       VI INERTIAL VELOCITY MAGNITUDE
000390:                                                                                                 #                       HDOT  RATE OF CHANGE OF ALT ABOVE L PAD RADIUS
000391:                                                                                                 #                       H   ALTITUDE ABOVE L PAD RADIUS
000392:
000393: 34,2304           06006        VHHDOT            TC       INTPRET
000394: 34,2305           77624                          CALL                                           #  LOAD VMAGI, ALTI,
000395: 34,2306           70537                                   S11.1                                 #  HDOT FOR DISPLAY
000396: 34,2307           77776                          EXIT
000397: 34,2310           05402                          TC       PHASCHNG
000398: 34,2311           00035                          OCT      00035
000399:
000400: 34,2312  01,2250               5P3SPT1           =        5.3SPOT
000401: 34,2312           32617                          CAF      V06N62                                #  DISPLAY IN R1   R2    R3
000402: 34,2313           04636                          TC       BANKCALL                              #             VI   HDOT  H
000403: 34,2314           20721                          CADR     REGODSP
000404:
000405: 34,2315           34757        ATERTASK          CAF      PRIO1                                 #  ESTABLISH JOB TO DISPLAY ATT ERRORS
000406: 34,2316           05135                          TC       FINDVAC                               #  COMES HERE AT L.O. + .33 SEC
000407: 34,2317  E6,1704                                 EBANK=   SPOLYARG
000408: 34,2317           02342 70066                    2CADR    ATERJOB
000409: 34,2321           41501                          CS       RCSFLAGS                              #  SET BIT3 FOR
000410: 34,2322           74766                          MASK     BIT3                                  #  NEEDLER
000411: 34,2323           27501                          ADS      RCSFLAGS                              #  INITIALIZATION PASS
000412: 34,2324           04714                          TC       IBNKCALL                              #  AND GO
000413: 34,2325           42425                          CADR     NEEDLER                               #  DO IT
000414: 34,2326           34770                          CA       BIT1                                  #  SET SW
000415: 34,2327           55714                          TS       SATSW                                 #  FOR DISPLAY
000416: 34,2330           05314                          TC       TASKOVER
000417: 34,2331           40220        GETDOWN           STQ      SETPD


000419: 34,2332           02241                                   INCORPEX
000420: 34,2333           00001                                   0D
000421: 34,2334           77745                          DLOAD
000422: 34,2335           15336                                   HI6ZEROS
000423: 34,2336           14007                          STODL    6D
000424: 34,2337           15334                                   DPHALF
000425: 34,2340           34011                          STCALL   8D
000426: 34,2341           26531                                   LALOTORV   +5
000427:                                                                                                 #  THIS SECTION PROVIDES ATTITUDE ERROR DISPLAYS TO THE FDAI DURING SONE BOOST
000428:
000429:                                                                                                 #                                           COMPUTE DESIRED PITCH W.R.T. PAD LOCAL VERTICAL AT LIFTOFF
000430:                                                                                                 #                                                    2    3    4    5    6
000431:                                                                                                 #                                           PITCH= A0+A1T+A2T +A3T +A4T +A5T +A6T
000432:                                                                                                 #                                                  SCALED TO 32 REVS.                                    -14
000433:                                                                                                 #                                           IF TL = TIME IN SECS FROM L.O., THEN    T = 100(TL-RPSTART0)2
000434:                                                                                                 #                                           WHERE    TL GE RPSTART
000435:                                                                                                 #                                                    TL LE (-POLYSTOP + RPSTART)
000436:                                                                                                 #                                           COMPUTE DESIRED ROLL WHERE ROLL EQUALS ANGLE FROM
000437:                                                                                                 #                                           LAUNCHAZ TO -Z(S/C) AS SEEN FROM X(S/C).
000438:                                                                                                 #                                           ROLL = LAUNCHAZ-AZIMUTH-.5 +SATRLRT*T      IN REV
000439:                                                                                                 #                                           SATRLRT = RATE OF ROLL IN REV/CENTI-SEC
000440:                                                                                                 #                                           T,IN CENTI-SEC,IS DEFINED AS ABOVE,INCLUSIVE OF TIME RESTRICTIONS
000441:
000442:                                                                                                 #                                           FOR SIMPLICITY, LET   P = 2*PI*PITCH
000443:                                                                                                 #                                                                 R = 2*PI*ROLL
000444:
000445:                                                                                                 #                                           CONSTRUCT THE TRANSFORMATION MATRIX, TSMV, GIVING DESIRED S/C AXES IN
000446:                                                                                                 #                                           TERMS OF SM COORDINATES. LET THE RESULTING ROWS EQUAL THE VECTORS XDC,
000447:                                                                                                 #                                           YDC, AND ZDC.
000448:
000449:                                                                                                 #                                            *     (    SIN(P)          0         -COS(P)    )   (XDC)
000450:                                                                                                 #                                           TSMV = (-SIN(R)*COS(P)   -COS(R)   -SIN(R)*SIN(P)) = (YDC)
000451:                                                                                                 #                                                  (-COS(R)*COS(P)    SIN(R)   -COS(R)*SIN(P))   (ZDC)
000452:
000453:                                                                                                 #                                           XDC,YDC,ZDC ARE USED AS INPUT TO CALCGTA FOR THE EXTRACTION OF THE
000454:                                                                                                 #                                           EULER SET OF ANGLES WHICH WILL BRING THE SM INTO THE DESIRED
000455:                                                                                                 #                                           ORIENTATION. THIS EULER SET, OGC, IGC, AND MGC, MAY BE IDENTIFIED
000456:                                                                                                 #                                           AS THE DESIRED CDU ANGLES.
000457:
000458:                                                                                                 #                                           (XDC)                   (OGC)
000459:                                                                                                 #                                           (YDC) ---) CALCGTA ---) (IGC)
000460:                                                                                                 #                                           (ZDC)                   (MGC)
000461:                                                                                                 #                                                              -
000462:                                                                                                 #                                           DEFINE THE VECTOR DELTACDU.
000463:
000464:                                                                                                 #                                            _         (OGC)   (CDUX)
000465:                                                                                                 #                                           DELTACDU = (IGC) - (CDUY)
000466:                                                                                                 #                                                      (MGC)   (CDUZ)


000468:                                                                                                 #                                                                    -          -    *    -
000469:                                                                                                 #                                           COMPUTE ATTITUDE ERRORS, A, WHERE   A = TGSC*DELTACDU
000470:
000471:                                                                                                 #                                            *     (1        SIN(CDUZ)            0    )   THE GIMBAL ANGLES
000472:                                                                                                 #                                           TGSC = (0   COS(CDUX)*COS(CDUZ)   SIN(CDUX)) = TO SPACECRAFT AXES
000473:                                                                                                 #                                                  (0  -SIN(CDUX)*COS(CDUZ)   COS(CDUX))   CONVERSION MATRIX
000474:
000475:                                                                                                 #                                                                -
000476:                                                                                                 #                                           THE ATTITUDE ERRORS, A, ARE STORED ONE HALF SINGLE PRECISION IN
000477:                                                                                                 #                                           THE REGISTERS AK, AK1, AK2 AS INPUT TO NEEDLER, THE FDAI ATTITUDE
000478:                                                                                                 #                                           ERROR DISPLAY ROUTINE.
000479:
000480: 34,2342           30102        ATERJOB           CAE      FLAGWRD6                              #  CHECK FLAGWRD6
000481: 34,2343           74076                          MASK     DPCONFIG                              #  BITS 14,15
000482: 34,2344           00006                          EXTEND
000483: 34,2345           12347                          BZF      +2                                    #  OK - CONTINUE
000484: 34,2346           05205                          TC       ENDOFJOB                              #  STAURN STICK ON - KILL JOB
000485: 34,2347           34757                          CAF      BIT10                                 #  CHECK IF S/C CONTROL
000486: 34,2350           00006                          EXTEND                                         #  OF SATURN PANEL
000487: 34,2351           02030                          RAND     CHAN30                                #  SWITCH IS ON
000488: 34,2352           00006                          EXTEND
000489: 34,2353           12505                          BZF      STRSAT                                #  IT IS - GO STEER
000490: 34,2354           11714                          CCS      SATSW                                 #  IT IS NOT - WAS IT ON LAST CYCLE
000491: 34,2355           12360        WASIU             TCF      ATTDISP                               #  NO - CONTINUE
000492: 34,2356           12510        WASINIT           TCF      ATRESET                               #  YES - REINITIALIZE NEEDLER (2ND PASS)
000493: 34,2357           12510        WASCMC            TCF      ATRESET                               #  YES - REINITIALIZE NEEDLER
000494:
000495: 34,2360           41702        ATTDISP           CS       RPSTART                               #  PITCH/ROLL START TIME
000496: 34,2361           60025                          AD       TIME1
000497: 34,2362           00006                          EXTEND
000498: 34,2363           62612                          BZMF     NOPOLY                                #  IF MINUS THEN ATTITUDE HOLD
000499: 34,2364           54154                          TS       MPAC                                  #  MPAC=TIME1-RPSTART
000500: 34,2365           55704                          TS       SPOLYARG                              #  SAVE FOR USE IN ROLL CALUCLATION
000501: 34,2366           61703                          AD       POLYSTOP                              #  NEG PITCHOVER TIME IN CSECS
000502: 34,2367           00006                          EXTEND
000503: 34,2370           62372                          BZMF     +2
000504: 34,2371           02612        POSTPOLY          TC       NOPOLY                                #  GO TO ATTITUDE HOLD
000505: 34,2372           30024                          CA       TIME2
000506: 34,2373           00006                          EXTEND
000507: 34,2374           62376                          BZMF     +2
000508: 34,2375           02612                          TC       NOPOLY                                #  GO TO ATTITUDE HOLD
000509: 34,2376           31661                          CAE      POLYNUM
000510: 34,2377           54001                          TS       L
000511: 34,2400           32616                          CAF      COEFPOLY                              #  EVALUATE PITCH POLYNOMIAL
000512: 34,2401           07164                          TC       POWRSERS                              #  SCALED TO 32 REVOLUTIONS
000513:
000514: 34,2402           34772                          CA       ZERO                                  #  RETURN WITH PITCH(32REV)
000515: 34,2403           54163                          TS       MODE                                  #  STORED IN MPAC, MPAC +1
000516: 34,2404           06006                          TC       INTPRET
000517: 34,2405           54201                          SETPD    SL                                    #  32(PITCH(32REV))=PITCH(REV)


000519: 34,2406           00001                                   0
000520: 34,2407           20206                                   5
000521: 34,2410           77606                          PUSH                                           #  LET P(RAD)=2.PI.PITCH(REV)
000522: 34,2411           77650                          GOTO
000523: 34,2412           67672                                   ATTDISP1                              #  AROUND SETLOC
000524:                                                                                                 #                                                                        *
000525:                                                                                                 #                                           CONSTRUCT SM TO S/C MATRIX, TSMV
000526:
000527: 33,2000                                          SETLOC   P11TWO
000528: 33,2000                                          BANK                                           #  36 IN COL., 34 IN DISK
000529:
000530:
000531: 33,3672                                          COUNT*   $$/P11
000532: 33,3672           57546        ATTDISP1          COS      DCOMP
000533: 33,3673           14017                          STODL    14D                                   #  -.5*COS(P)
000534: 33,3674           77756                          SIN
000535: 33,3675           14013                          STODL    10D                                   #  .5*SIN(P)
000536: 33,3676           15336                                   ZEROVECS
000537: 33,3677           00015                          STORE    12D                                   #  0
000538:
000539:                                                                                                 #                                           EVALUATE ROLL = LAUNCHAZ-AZIMUTH-.5+SATRLRT*T
000540: 33,3700           41335                          SLOAD    DMP
000541: 33,3701           03305                                   SPOLYARG                              #  TIME1 - RSPSTART ,CSECS B-14.
000542: 33,3702           03301                                   SATRLRT
000543: 33,3703           45261                          SL       DSU
000544: 33,3704           20217                                   14D
000545: 33,3705           15334                                   DPHALF
000546: 33,3706           45215                          DAD      DSU                                   #  ASSUMING X(SM) ALONG LAUNCH AZIMUTH,
000547: 33,3707           02634                                   LAUNCHAZ                              #  LAUNCHAZ = ANGLE FROM NORTH TO X(SM).
000548: 33,3710           02401                                   AZIMUTH                               #  AZIMUTH = -ANGLE FROM NORTH TO Z(S/C)
000549: 33,3711           77634                          RTB                                            #  DETERMINE IF ROLLOUT
000550: 33,3712           70601                                   RLTST                                 #  IS COMPLETED
000551: 33,3713           71406        ATTDISPR          PUSH     COS                                   #  CONTINUE COMPUTING TSMV
000552: 33,3714           77606                          PUSH                                           #  LET  R(RAD) = 2*PI*ROLL(REV)
000553: 33,3715           72405                          DMP      SL1
000554: 33,3716           00017                                   14D
000555: 33,3717           14027                          STODL    22D                                   #  -.5*COS(R)*COS(P)
000556: 33,3720           77676                          DCOMP
000557: 33,3721           00023                          STORE    18D                                   #  -.5*COS(R)
000558: 33,3722           72405                          DMP      SL1
000559: 33,3723           00013                                   10D
000560: 33,3724           14033                          STODL    26D                                   #  -.5*COS(R)*SIN(P)
000561: 33,3725           41556                          SIN      PUSH
000562: 33,3726           00031                          STORE    24D                                   #  .5*SIN(R)
000563: 33,3727           72405                          DMP      SL1
000564: 33,3730           00017                                   14D
000565: 33,3731           14021                          STODL    16D                                   #  -.5*SIN(R)*COS(P)
000566: 33,3732           77676                          DCOMP
000567: 33,3733           72405                          DMP      SL1
000568: 33,3734           00013                                   10D
000569: 33,3735           24025                          STOVL    20D                                   #  -.5*SIN(R)*SIN(P)


000571: 33,3736           00013                                   10D
000572:
000573:                                                                                                 #                                           FROM TSMV FIND THE HALF UNIT VECTORS  XDC,YDC,ZDC = INPUT TO CALCGTA
000574: 33,3737           77656                          UNIT
000575: 33,3740           26714                          STOVL    XDC                                   #  XDC = .5*UNIT(SIN(P),0,-COS(P))
000576: 33,3741           00021                                   16D
000577: 33,3742           77656                          UNIT
000578: 33,3743           26722                          STOVL    YDC                                   #  YDC = .5*UNIT(-SIN(R)*COS(P),-COS(R),
000579: 33,3744           00027                                   22D                                   #                            -SIN(R)*SIN(P))
000580: 33,3745           77656                          UNIT
000581: 33,3746           36730                          STCALL   ZDC                                   #  ZDC = .5*UNIT(-COS(R)*COS(P),SIN(R),
000582: 33,3747           47240                                   CALCGTA                               #                            -COS(R)*SIN(P))
000583:
000584:                                                                                                 #                                           CALL CALCGTA TO COMPUTE DESIRED SM ORIENTATION  OGC,IGC,AND MGC
000585:                                                                                                 #                                                                     -          -   -
000586:                                                                                                 #                                           FIND DIFFERENCE VECTOR   DELTACDU = OGC-CDUX
000587:
000588:                                                                                                 #                                           ENTER HERE IF ATTITUDE HOLD
000589:
000590: 33,3750           41575        NOPOLYM           VLOAD    PUSH                                  #         OGC      IGC
000591: 33,3751           02760                                   OGC                                   #  CHANGE IGC  TO  MGC FOR COMPATIBILITY
000592: 33,3752           45006                          PUSH     CALL                                  #         MGC      OGC
000593: 33,3753           47530                                   CDUTRIG                               #  WITH Y,Z,X ORDER OF CDUSPOT
000594: 33,3754           47175                          VLOAD    RTB                                   #   -         DPHI     OGC-CDUX ,PD4
000595: 33,3755           00003                                   2                                     #  DELTACDU = DTHETA = IGC-CDUY ,   0
000596: 33,3756           45644                                   V1STO2S                               #             DPSI     MGC-CDUZ ,   2
000597: 33,3757           27306                          STOVL    BOOSTEMP
000598: 33,3760           15336                                   ZEROVECS
000599: 33,3761           24001                          STOVL    0
000600: 33,3762           01172                                   CDUSPOT
000601: 33,3763           47034                          RTB      RTB
000602: 33,3764           45644                                   V1STO2S
000603: 33,3765           70561                                   DELSTOR
000604: 33,3766           14013                          STODL    10D
000605: 33,3767           01144                                   SINCDUZ
000606: 33,3770           72405                          DMP      SL1
000607: 33,3771           00001                                   0
000608: 33,3772           60415                          DAD      SR2                                   #  CHANGE SCALE OF AK TO 2REVS
000609: 33,3773           00005                                   4
000610: 33,3774           77650                          GOTO
000611: 33,3775           70413                                   ATTDISP2
000612:
000613: 34,2000                                          SETLOC   P11ONE
000614: 34,2000                                          BANK
000615: 34,2413                                          COUNT*   $$/P11
000616: 34,2413           14021        ATTDISP2          STODL    16D                                   #  16D,  .5(DPHI + DTHETA*SIN(CDUZ))
000617: 34,2414           01152                                   COSCDUZ
000618: 34,2415           41405                          DMP      PUSH
000619: 34,2416           00001                                   0


000621: 34,2417           72405                          DMP      SL1
000622: 34,2420           01154                                   COSCDUX
000623: 34,2421           41325                          PDDL     DMP
000624: 34,2422           01146                                   SINCDUX
000625: 34,2423           00003                                   2
000626: 34,2424           72415                          DAD      SL1
000627: 34,2425           77626                          STADR
000628: 34,2426           63755                          STODL    17D                                   #  17D,  .5(DTHETA*COS(CDUX)*COS(CDUZ)
000629: 34,2427           72405                          DMP      SL1                                   #                           +DPSI*SIN(CDUX))
000630: 34,2430           01146                                   SINCDUX
000631: 34,2431           41325                          PDDL     DMP
000632: 34,2432           01154                                   COSCDUX
000633: 34,2433           00003                                   2
000634: 34,2434           72425                          DSU      SL1
000635: 34,2435           77626                          STADR
000636: 34,2436           77754                          STORE    18D                                   #  18D,  .5(-DTHETA*SIN(CDUX)*COS(CDUZ)
000637: 34,2437           77751                          TLOAD                                          #                           +DPSI*COS(CDUX))
000638: 34,2440           00021                                   16D
000639: 34,2441           03077                          STORE    AK                                    #  STORE ATTITUDE ERRORS IN AK,AK1,AK2
000640: 34,2442           77776                          EXIT
000641:
000642: 34,2443           31714                          CA       SATSW
000643: 34,2444           10000                          CCS      A                                     #  CHK TAKEOVER STATUS
000644: 34,2445           02466                          TC       SATOUT                                #  POS - DISPLAY ONLY
000645: 34,2446           02474                          TC       AKLOAD                                #  0     STORE BIAS
000646: 34,2447           06006        STEERSAT          TC       INTPRET                               #  NEG   STEER L/V
000647: 34,2450           76351                          TLOAD    TAD
000648: 34,2451           03316                                   BIASAK
000649: 34,2452           03077                                   AK
000650: 34,2453           03077                          STORE    AK                                    #  AKS = AKS - STORED BIAS
000651: 34,2454           77776                          EXIT
000652: 34,2455           31476                          CA       AK
000653: 34,2456           02620                          TC       RESCALES
000654: 34,2457           55476                          TS       AK
000655: 34,2460           31477                          CA       AK1
000656: 34,2461           02620                          TC       RESCALES
000657: 34,2462           55477                          TS       AK1
000658: 34,2463           31500                          CA       AK2
000659: 34,2464           02620                          TC       RESCALES
000660: 34,2465           55500                          TS       AK2
000661:                                                                                                 #                                           DISPLAY ATTITUDE ERRORS ON FDAI VIA NEEDLER
000662:
000663: 34,2466           04636        SATOUT            TC       BANKCALL
000664: 34,2467           42425                          CADR     NEEDLER
000665: 34,2470           34125        ATERSET           CAF      OCT31                                 #  DELAY .25 SEC
000666: 34,2471           04636                          TC       BANKCALL                              #  EXECUTION + DELAY =.56SEC APPROX
000667: 34,2472           01731                          CADR     DELAYJOB
000668: 34,2473           02342                          TC       ATERJOB                               #  END OF ATT ERROR DISPLAY CYCLE
000669:
000670: 34,2474           41476        AKLOAD            CS       AK                                    #  STORE AKS


000672: 34,2475           55715                          TS       BIASAK                                #  INTO BIAS
000673: 34,2476           41477                          CS       AK1                                   #  COMPLEMENTED
000674: 34,2477           55716                          TS       BIASAK     +1
000675: 34,2500           41500                          CS       AK2
000676: 34,2501           55717                          TS       BIASAK     +2
000677: 34,2502           44770                          CS       BIT1                                  #  SET SW
000678: 34,2503           55714                          TS       SATSW                                 #  TO STEER
000679: 34,2504           02447                          TC       STEERSAT                              #  GO STEER
000680: 34,2505           31714        STRSAT            CA       SATSW                                 #  CHECK IF NEEDLER
000681: 34,2506           00006                          EXTEND                                         #  HAS BEEN INITIALIZED
000682: 34,2507           62360                          BZMF     ATTDISP                               #  YES - CONTINUE
000683: 34,2510           41501        ATRESET           CS       RCSFLAGS                              #  NO - SET
000684: 34,2511           74766                          MASK     BIT3                                  #  INITIALIZATION SW
000685: 34,2512           27501                          ADS      RCSFLAGS                              #  FOR NEEDLER
000686: 34,2513           04636                          TC       BANKCALL                              #  AND GO
000687: 34,2514           42425                          CADR     NEEDLER                               #  DO IT
000688: 34,2515           36211                          CAF      REVCNT                                #  OCT 6
000689: 34,2516           04636                          TC       BANKCALL                              #  DELAY JOB
000690: 34,2517           01731                          CADR     DELAYJOB                              #  60 MS -WAIT TILL IMUERRCNTR ZEROED
000691: 34,2520           11714                          CCS      SATSW                                 #  CHECK SW STATUS
000692: 34,2521           02531                          TC       TAKEON                                #  POS   STEER INIT.
000693: 34,2522           02523                          TC       +1                                    #  0     RETURN TO DISPLAY
000694: 34,2523           34770                          CA       BIT1                                  #  NEG   RETURN TO DISPLAY
000695: 34,2524           55714                          TS       SATSW                                 #  SW = DISPLAY ONLY
000696: 34,2525           44760                          CS       BIT9                                  #  DISABLE
000697: 34,2526           00006                          EXTEND                                         #  SIVB
000698: 34,2527           03012                          WAND     CHAN12                                #  TAKEOVER
000699: 34,2530           02466                          TC       SATOUT                                #  DISPLAY
000700: 34,2531           34760        TAKEON            CAF      BIT9                                  #  ENABLE
000701: 34,2532           00006                          EXTEND                                         #  SIVB
000702: 34,2533           05012                          WOR      CHAN12                                #  TAKEOVER
000703: 34,2534           34772                          CA       ZERO                                  #  INDICATE NEEDLER
000704: 34,2535           55714                          TS       SATSW                                 #  WAS INITIALIZED
000705: 34,2536           02466                          TC       SATOUT
000706: 34,2537           51575        S11.1             VLOAD    ABVAL
000707: 34,2540           01036                                   VN
000708: 34,2541           27723                          STOVL    VMAGI                                 #  VI      SCALED  2(7)  IN METERS/CSEC
000709: 34,2542           01030                                   RN
000710: 34,2543           50256                          UNIT     DOT
000711: 34,2544           01036                                   VN
000712: 34,2545           77752                          SL1
000713: 34,2546           17741                          STODL    HDOT
000714: 34,2547           05173                                   RPAD
000715: 34,2550           77214                          BOF      VLOAD
000716: 34,2551           00355                                   AMOONFLG
000717: 34,2552           70555                                   EARTHALT
000718: 34,2553           02026                                   RLS
000719: 34,2554           60446                          ABVAL    SR2
000720: 34,2555           77621        EARTHALT          BDSU
000721: 34,2556           00045                                   36D


000723: 34,2557           03737                          STORE    ALTI
000724: 34,2560           77616                          RVQ
000725: 34,2561           31705        DELSTOR           CA       BOOSTEMP
000726: 34,2562           00006                          EXTEND                                         #  STORE DELTACDU INTO PDL 0,2,4
000727: 34,2563           20154                          MSU      MPAC
000728: 34,2564           50120                          INDEX    FIXLOC
000729: 34,2565           54000                          TS       0
000730: 34,2566           31706                          CA       BOOSTEMP   +1
000731: 34,2567           00006                          EXTEND
000732: 34,2570           20155                          MSU      MPAC       +1
000733: 34,2571           50120                          INDEX    FIXLOC
000734: 34,2572           54002                          TS       2
000735: 34,2573           31707                          CA       BOOSTEMP   +2
000736: 34,2574           00006                          EXTEND
000737: 34,2575           20156                          MSU      MPAC       +2
000738: 34,2576           50120                          INDEX    FIXLOC
000739: 34,2577           54004                          TS       4
000740: 34,2600           16030                          TCF      DANZIG
000741: 34,2601           30154        RLTST             CA       MPAC                                  #  DETERMINE IF ROLLOUT
000742: 34,2602           00006                          EXTEND                                         #  IS COMPLETED
000743: 34,2603           71701                          MP       SATRLRT    +1
000744: 34,2604           00006                          EXTEND
000745: 34,2605           66030                          BZMF     DANZIG                                #  UNLIKE SIGNS  STILL ROLLING
000746: 34,2606           22007                          ZL                                             #  ROLLOUT COMPLETED
000747: 34,2607           34772                          CAF      ZERO                                  #  ZERO OUT ROLL CONTRIBUTION
000748: 34,2610           52155                          DXCH     MPAC
000749: 34,2611           06030                          TC       DANZIG
000750: 34,2612           06006        NOPOLY            TC       INTPRET                               #  COMES HERE IF
000751: 34,2613           52001                          SETPD    GOTO                                  #  ATTITUDE HOLD
000752: 34,2614           00001                                   0
000753: 34,2615           67750                                   NOPOLYM
000754: 34,2616           01673        COEFPOLY          ADRES    POLYLOC
000755: 34,2617           01476        V06N62            VN       0662
000756: 34,2620           00006        RESCALES          EXTEND                                         #  RESCALE AK S FOR
000757: 34,2621           71720                          MP       SATSCALE                              #  NEW HARDWARE
000758: 34,2622           20001                          DDOUBL                                         #  SCALING FOR
000759: 34,2623           20001                          DDOUBL                                         #  STEERING
000760: 34,2624           00002                          TC       Q                                     #  SATURN
000761:                                                                                                 #  SATURN TAKEOVER FUNCTION
000762:                                                                                                 #  ************************
000763:                                                                                                 #
000764:                                                                                                 #  PROGRAM DESCRIPTION
000765:
000766:                                                                                                 #         MOD NUMBER 1
000767:                                                                                                 #         MOD BY ELIASSEN
000768:
000769:                                                                                                 #  FUNCTIONAL DESCRIPTION
000770:
000771:                                                                                                 #         DURING THE COASTING PHASE OF SIVB ATTACHED, THE
000772:                                                                                                 #         ASTRONAUT MAY REQUEST SATURN TAKEOVER THROUGH


000774:                                                                                                 #         EXTENDED VERB 46 (BITS 13,14 OF DAPDATR1 SET ).
000775:                                                                                                 #         THE CMC REGARDS RHC COMMANDS AS BODY-AXES RATE
000776:                                                                                                 #         COMMANDS AND IT TRANSMITS THESE TO SATURN AS DC
000777:                                                                                                 #         VOLTAGES. THE VALUE OF THE CONSTANT RATE COMMAND
000778:                                                                                                 #         IS 0.5 DEG/SEC. AN ABSENCE OF RHC ACTIVITY RE-
000779:                                                                                                 #         SULTS IN A ZERO RATE COMMAND.
000780:
000781:                                                                                                 #         THE FDAI ERROR NEEDLES WILL INDICATE THE VALUE
000782:                                                                                                 #         OF THE RATE COMMAND.
000783:
000784:                                                                                                 #  CALLING SEQUENCE
000785:
000786:                                                                                                 #         DAPFIG +9D      TC      POSTJUMP
000787:                                                                                                 #                         CADR    SATSTKON
000788:
000789:                                                                                                 #  SUBROUTINES CALLED
000790:
000791:                                                                                                 #         ENDEXT
000792:                                                                                                 #         IBNKCALL
000793:                                                                                                 #         STICKCHK
000794:                                                                                                 #         NEEDLER
000795:                                                                                                 #         T5RUPT
000796:                                                                                                 #         RESUME
000797:
000798:                                                                                                 #  ASTRONAUT REQUESTS
000799:
000800:                                                                                                 #         ENTRY -  VERB 46 ENTER
000801:                                                                                                 #                  (CONDITION - BITS 13, 14 OF DAPDATR1 SET)
000802:
000803:                                                                                                 #         EXIT  -  VERB 48 ENTER  (FLASH V06N46)
000804:                                                                                                 #                  VERB 21 ENER   AXXXX ENTER WHERE  A=0 OR 1
000805:                                                                                                 #                  VERB 34 ENTER
000806:                                                                                                 #                  VERB 46 ENTER
000807:
000808:                                                                                                 #  NORMAL EXIT MODE
000809:
000810:                                                                                                 #                  VERB 46 ENTER  (SEE ASTRONAUT ABOVE)
000811:
000812:                                                                                                 #  ALARM OR ABORT EXIT MODES
000813:
000814:                                                                                                 #         NONE
000815:
000816:                                                                                                 #  OUTPUT
000817:
000818:                                                                                                 #         SATURN RATES IN  CDUXCMD, CDUYCMD, CDUZCMD
000819:
000820:                                                                                                 #  ERASABLE INITIALIZATION
000821:
000822:                                                                                                 #         DAPDATR1  (BITS 13,14 MUST BE SET)
000823:


000825:                                                                                                 #  DEBRIS
000826:
000827:                                                                                                 #         CENTRALS
000828:                                                                                                 #         CDUXCMD, CDUYCMD, CDUZCMD
000829:
000830: 26,2000                                          SETLOC   P11FOUR
000831: 26,2000                                          BANK
000832:
000833: 26,2000                                          COUNT*   $$/P11
000834: 26,2000           22016        REDOSAT           LXCH     BANKRUPT                              #  ALSO COMES HERE FOR RESTARTS
000835: 26,2001           00006                          EXTEND
000836: 26,2002           22012                          QXCH     QRUPT
000837: 26,2003           41501                          CS       RCSFLAGS                              #  TURN ON BIT3 OF RCSFLAGX
000838: 26,2004           74766                          MASK     BIT3                                  #  FOR
000839: 26,2005           27501                          ADS      RCSFLAGS                              #  NEEDLER INITIALIZATION
000840: 26,2006           04714                          TC       IBNKCALL
000841: 26,2007           42425                          CADR     NEEDLER                               #  DISABLE IMU ERR COUNTERS ETC.
000842: 26,2010           34760                          CAF      BIT9                                  #  SIVB
000843: 26,2011           00006                          EXTEND                                         #  TAKEOVER
000844: 26,2012           05012                          WOR      CHAN12                                #  ENABLE
000845: 26,2013           00006                          EXTEND                                         #  SET UP T5 CYCLE
000846: 26,2014           34541                          DCA      2SATSTCK
000847: 26,2015           52113                          DXCH     T5LOC
000848: 26,2016           37661                          CAF      100MST5                               #  IN 100 MSECS
000849: 26,2017           54030                          TS       TIME5
000850: 26,2020           15323                          TCF      RESUME                                #  END OF SATURN STICK INITIALIZATION
000851:
000852:                                                                                                 #                                           THIS SECTION IS EXECUTED EVERY 100 MSECS.
000853:
000854: 21,2000                                          SETLOC   P11THREE
000855: 21,2000                                          BANK
000856:
000857: 21,2000                                          COUNT*   $$/P11
000858: 21,2000           22016        SATSTICK          LXCH     BANKRUPT
000859: 21,2001           00006                          EXTEND
000860: 21,2002           22012                          QXCH     QRUPT
000861:
000862: 21,2003           34540                          CAF      2SATSTCK                              #  SET UP RUPT
000863: 21,2004           54112                          TS       T5LOC                                 #  LO ORDER LOC SET
000864: 21,2005           37661                          CAF      100MST5                               #  100 MSECS
000865: 21,2006           54030                          TS       TIME5
000866: 21,2007           32031                          CAF      STIKBITS
000867: 21,2010           00006                          EXTEND
000868: 21,2011           06031                          RXOR     CHAN31                                #  CHECK IF MAN ROT BITS SAME
000869: 21,2012           72031                          MASK     STIKBITS
000870: 21,2013           04714                          TC       IBNKCALL                              #  SET RATE INDICES
000871: 21,2014           43152                          CADR     STICKCHK                              #  FOR PITCH YAW AND ROLL
000872:
000873: 21,2015           51656                          INDEX    RMANNDX                               #  SET SATURN RATES
000874: 21,2016           31710                          CA       SATRATE


000876: 21,2017           55476                          TS       AK                                    #                    ROLL
000877: 21,2020           51657                          INDEX    PMANNDX
000878: 21,2021           31710                          CA       SATRATE
000879: 21,2022           55477                          TS       AK1                                   #                    PITCH
000880: 21,2023           51660                          INDEX    YMANNDX
000881: 21,2024           31710                          CA       SATRATE
000882: 21,2025           55500                          TS       AK2                                   #                    YAW
000883:
000884: 21,2026           04714                          TC       IBNKCALL                              #  FOR SATURN INTERFACE AND FDAI DISPLAY
000885: 21,2027           42425                          CADR     NEEDLER
000886: 21,2030           15323        STICKOUT          TCF      RESUME                                #  END OF SATURN STICK CONTROL
000887:
000888: 21,2031           00077        STIKBITS          OCT      00077
000889: 21,2032     7661               100MST5           =        OCT37766
000890:    4000                                          SETLOC   FFTAG2
000891:    4000                                          BANK
000892:
000893:    4540                                          COUNT*   $$/P11
000894:    4540  E6,1704                                 EBANK=   SPOLYARG
000895:    4540           02000 42066  2SATSTCK          2CADR    SATSTICK

End of include-file P11.agc.  Parent file is MAIN.agc


