
Source Code


000002:                                                                                                  #  Copyright:    Public domain.
000003:                                                                                                  #  Filename:     P30-P31.agc
000004:                                                                                                  #  Purpose:      Part of the source code for Artemis (i.e., Colossus 3),
000005:                                                                                                  #                build 072.  This is for the Command Module's (CM)
000006:                                                                                                  #                Apollo Guidance Computer (AGC), we believe for
000007:                                                                                                  #                Apollo 15-17.
000008:                                                                                                  #  Assembler:    yaYUL
000009:                                                                                                  #  Contact:      Jim Lawton <jim DOT lawton AT gmail DOT com>
000010:                                                                                                  #  Website:      www.ibiblio.org/apollo/index.html
000011:                                                                                                  #  Page scans:   www.ibiblio.org/apollo/ScansForConversion/Artemis072/
000012:                                                                                                  #  Mod history:  2009-08-11 JL   Adapted from corresponding Comanche 055 file.
000013:                                                                                                  #                2009-09-03 JL   Fixed symbol names.
000014:                                                                                                  #                2010-02-01 JL   Fixed build errors.
000015:                                                                                                  #                2010-02-20 RSB  Un-##'d this header.
000016:
000017:                                                                                                  # # Page 643
000018:
000019:                                                                                                  #  PROGRAM DESCRIPTION   P30     DATE 5-1-69
000020:
000021:                                                                                                  #  MOD.I BY S. ZELDIN:  TO ADD P31 AND ADAPT P30 FOR P31 USE.    22DEC67
000022:                                                                                                  #  MOD.II BY P.WOLFF TO REDUCE CODING AND DELETE RESTART PROTECTION      4-30-69
000023:                                                                                                  #  MOD.III BY C.BEALS TO DELETE P31      1NOV69
000024:
000025:                                                                                                  #  FUNCTIONAL DESCRIPTION
000026:                                                                                                  #        P30 (EXTERNAL DELTA-V TARGETING PROGRAM)
000027:                                                                                                  #                ACCEPTS ASTRONAUT INPUTS OF TIG,DELV(LV) AND COMPUTES, FOR DISPLAY,
000028:                                                                                                  #                APOGEE, PERIGEE, DELV(MAG), MGA ASSOCIATED WITH DESIRED MANEUVER
000029:
000030:                                                                                                  #  THE FOLLOWING SUBROUTINES ARE USED IN P30
000031:                                                                                                  #        S30/31.1  COMPUTES APOGEE AND PERIGEE ALTITUDE
000032:                                                                                                  #        P30/P31 - DISPLAYS TIG
000033:                                                                                                  #        CNTUP30 - DISPLAYS DELV(LV)
000034:                                                                                                  #        COMPTGO   CLOCKTASK COMPUTE TTOGO
000035:                                                                                                  #        LOMAT     COMPUTE X,Y,Z IN LV COORDS
000036:                                                                                                  #        PARAM30 - DISPLAYS APOGEE, PERIGEE, DELV(MAG), MGA, TIME FROM TIG,
000037:                                                                                                  #                  MARKS SINCE LAST THRUSTING MANEUVER
000038:
000039:                                                                                                  #  CALLING SEQUENCE VIA JOB FROM V37
000040:
000041:                                                                                                  #  EXIT VIA V37 OR GOTOPOOH
000042:
000043:                                                                                                  #  OUTPUT FOR POWERED FLIGHT
000044:                                                                                                  #        VTIG    X
000045:                                                                                                  #        RTIG
000046:                                                                                                  #        DELVSIN X
000047:
000048:                                                                                                  #  P30 CALCULATIONS
000049:
000050:                                                                                                  #  P30 CALC BASED ON STORED TARGET PARAMETERS (R OF IGNITION (RTIG), V OF
000051:                                                                                                  #  IGNITION (VTIG), TIME OF IGNITION (TIG), DELV(LV), COMPUTE PERIGEE ALTITUDE
000052:                                                                                                  #  APOGEE ALTITUDE AND DELTA-V REQUIRED IN REF. COORDS. (DELVSIN)
000053:                                                                                                  #
000054:                                                                                                  #  ERASABLE INITIALIZATION REQUIRED
000055:                                                                                                  #        TIG             TIME OF IGNITION                        DP      B28CS
000056:                                                                                                  #        DELVSLV         SPECIFIED DELTA-V IN LOCAL VERT.
000057:                                                                                                  #                        COORDS. OF ACTIVE VEHICLE AT
000058:                                                                                                  #                        TIME OF IGNITION                        VCT.    B+7M/CS
000059:
000060:                                                                                                  #  SUBROUTINES CALLED
000061:                                                                                                  #        THISPREC
000062:
000063:                                                                                                  #  OUTPUT
000064:                                                                                                  #        RTIG            POSITION AT TIG                         VCT.    B+29M
000065:                                                                                                  #        VTIG            VELOCITY AT TIG                         VCT.    B+7M
000066:                                                                                                  #        DELVSIN         DELVSLV IN REF COORDS                   VCT.    B+7M/CS
000067:
000068:                                                                                                  #  DEBRIS
000069:                                                                                                  #        QTEMP           TEMP. ERASABLE
000070:                                                                                                  #        QPRET, MPAC
000071:                                                                                                  #        PUSHLIST
000072:
000073: 35,2000                                           SETLOC   P30S1
000074: 35,2000                                           BANK
000075:
000076:                                                                                                  # # Page 644
000077: 35,3433  E7,1625                                  EBANK=   +MGA
000078:
000079: 35,3433                                           COUNT*   $$/P30
000080: 35,3433           05547        P30                TC       UPFLAG
000081: 35,3434           00027                           ADRES    UPDATFLG                              #  SET UPDATFLG
000082: 35,3435           05547                           TC       UPFLAG
000083: 35,3436           00031                           ADRES    TRACKFLG                              #  SET TRACKFLG
000084: 35,3437           35026        DSP0633            CAF      V06N33                                #  DISPLAY TIME OF IGNITION
000085: 35,3440           05535                           TC       VNFLASH
000086: 35,3441           34535                           CAF      V06N81
000087: 35,3442           05535                           TC       VNFLASH
000088: 35,3443           05547                           TC       UPFLAG
000089: 35,3444           00045                           ADRES    XDELVFLG                              #  BIT 8 FLAG 2
000090: 35,3445           06006                           TC       INTPRET
000091: 35,3446           71214                           CLEAR    DLOAD
000092: 35,3447           00670                                    UPDATFLG                              #  RESET UPDATFLG
000093: 35,3450           03413                                    TIG                                   #  TIME IGNITION SCALED AT 2(+28)CS
000094: 35,3451           34041                           STCALL   TDEC1
000095: 35,3452           27145                                    THISPREC                              #  ENCKE ROUTINE FOR
000096:
000097: 35,3453           67175                           VLOAD    SXA,2
000098: 35,3454           00007                                    VATT
000099: 35,3455           03746                                    RTX2
000100: 35,3456           27640                           STOVL    VTIG
000101: 35,3457           00001                                    RATT
000102: 35,3460           03632                           STORE    RTIG
000103: 35,3461           03540                           STORE    RACT3
000104: 35,3462           53435                           VXV      UNIT
000105: 35,3463           03640                                    VTIG
000106: 35,3464           36617                           STCALL   UNRM
000107: 35,3465           72721                                    LOMAT
000108: 35,3466           61375                           VLOAD    VXM
000109: 35,3467           03405                                    DELVSLV
000110: 35,3470           00001                                    0
000111: 35,3471           66172                           VSL1     SXA,1
000112: 35,3472           03745                                    RTX1
000113: 35,3473           03646                           STORE    DELVSIN
000114: 35,3474           77646                           ABVAL
000115: 35,3475           27763                           STOVL    VGDISP                                #  MAG DELV
000116: 35,3476           03632                                    RTIG
000117: 35,3477           53315                           PDVL     VAD
000118: 35,3500           03646                                    DELVSIN
000119: 35,3501           03640                                    VTIG
000120: 35,3502           77624                           CALL
000121: 35,3503           54021                                    S30/31.1
000122: 35,3504           77776                           EXIT
000123: 35,3505           33553        PARAM30            CAF      V06N42                                #  DISPLAY HAPO, HPER, DELTAV
000124: 35,3506           05535                           TC       VNFLASH
000125: 35,3507           06006        REFTEST            TC       INTPRET
000126: 35,3510           77214                           BOFF     VLOAD
000127:                                                                                                  # # Page 645
000128: 35,3511           01742                                    REFSMFLG                              #  TEST FOR REFSMFLAG ON
000129: 35,3512           73544                                    NOTSET
000130: 35,3513           03646                                    DELVSIN
000131: 35,3514           45006                           PUSH     CALL
000132: 35,3515           56444                                    GET+MGA
000133: 35,3516           77776                           EXIT
000134: 35,3517           03525        DISPMGA            TC       COMPTGO
000135:
000136: 35,3520           34536        DISP45             CAF      V16N45                                #  DISPLAY MARK CNT, TFI, +MGA
000137: 35,3521           05535                           TC       VNFLASH
000138: 35,3522           05561                           TC       DOWNFLAG
000139: 35,3523           00155                           ADRES    TIMRFLAG                              #  RESET TIMRFLAG
000140: 35,3524           14103                           TCF      GOTOPOOH
000141:
000142: 35,3525           00006        COMPTGO            EXTEND
000143: 35,3526           23272                           QXCH     PHSPRDT6
000144:
000145: 35,3527           05547                           TC       UPFLAG                                #  SET TIMRFLAG
000146: 35,3530           00155                           ADRES    TIMRFLAG
000147: 35,3531           34772                           CAF      ZERO
000148: 35,3532           54777                           TS       NVWORD1
000149:
000150: 35,3533           34770                           CAF      ONE
000151: 35,3534           05233                           TC       WAITLIST
000152: 35,3535  E7,1412                                  EBANK=   TIG
000153: 35,3535           03225 50067                     2CADR    CLOKTASK
000154:
000155: 35,3537           05362                           TC       2PHSCHNG
000156: 35,3540           40036                           OCT      40036                                 #  6.3SPOT FOR CLOKTASK
000157: 35,3541           05024                           OCT      05024                                 #  GROUP 4 CONTINUES HERE
000158: 35,3542           13000                           OCT      13000
000159:
000160: 35,3543  01,2325               6P3SPT1            =        6.3SPOT
000161: 35,3543           01272                           TC       PHSPRDT6
000162:
000163: 35,3544           57545        NOTSET             DLOAD    DCOMP
000164: 35,3545           33552                                    MARSDP
000165: 35,3546           03626                           STORE    +MGA
000166: 35,3547           77634                           RTB
000167: 35,3550           73517                                    DISPMGA
000168: 35,3551           00000        MARSDP             OCT      00000                                 #  (00000) (16440) = (+00001)
000169: 35,3552           35100                           OCT      35100
000170:                                                                                                  #  ( .01 ) DEGREES IN THE LOW ORDER REGISTER
000171:
000172: 35,3553           01452        V06N42             VN       0642
000173:
000174:                                                                                                  # # Page 646
000175:
000176:                                                                                                  #  S30/31.1      SUBROUTINE USED BY P30/P31 CALCULATIONS
000177:                                                                                                  #  MOD NO 1              LOG SECTION P30,P37
000178:
000179:                                                                                                  #  FUNCTIONAL DESCRIPTION
000180:                                                                                                  #        THROUGH A SERIES OF CALLS COMPUTES APOGEE AND PERIGEE ALTITUDE
000181:
000182:                                                                                                  #  SUBROUTINES CALLED
000183:                                                                                                  #        PERIAPO1
000184:                                                                                                  #        SHIFTR1
000185:                                                                                                  #        MAXCHK
000186:
000187:                                                                                                  #  CALLING SEQUENCE
000188:                                                                                                  #        L       CALL
000189:                                                                                                  #        L+1             S30/31.1
000190:
000191:                                                                                                  #  NORMAL EXIT MODE
000192:                                                                                                  #        AT L+2 OR CALLING SEQUENCE
000193:
000194:                                                                                                  #  ALARM OR ABORT EXIT MODES
000195:                                                                                                  #        NONE
000196:
000197:                                                                                                  #  OUTPUT
000198:                                                                                                  #        HAPO            APOGEE ALT.             DP      B+29 M
000199:                                                                                                  #        HPER            PERIGEE ALT.            DP      B+29 M
000200:
000201: 26,2000                                           SETLOC   P30S1A
000202: 26,2000                                           BANK
000203:
000204: 26,2021                                           COUNT*   $$/P30
000205: 26,2021           45020        S30/31.1           STQ      CALL
000206: 26,2022           03657                                    QTEMP
000207: 26,2023           45174                                    PERIAPO1
000208: 26,2024           77624                           CALL
000209: 26,2025           45330                                    SHIFTR1
000210: 26,2026           77624                           CALL
000211: 26,2027           46745                                    MAXCHK
000212: 26,2030           16357                           STODL    HPER                                  #  PERIGEE ALT B+29
000213: 26,2031           00005                                    4D
000214: 26,2032           77624                           CALL
000215: 26,2033           45330                                    SHIFTR1
000216: 26,2034           77624                           CALL
000217: 26,2035           46745                                    MAXCHK
000218: 26,2036           36355                           STCALL   HAPO                                  #  APOGEE ALT B+29
000219: 26,2037           03657                                    QTEMP
000220:
000221:                                                                                                  # # Page 647
000222:
000223:                                                                                                  #  SUBROUTINE NAME:      DELRSPL         (CONTINUATION OF V 82 IN CSM IF P11 ACTIVE)
000224:                                                                                                  #  TRANSFERRED COMPLETELY FROM SUNDISK, P30S REV 33. 9 SEPT 67.
000225:                                                                                                  #  MOD NO: 0     MOD BY: ZELDIN          DATE:
000226:                                                                                                  #  MOD NO: 1     MOD BY: RR BAIRNSFATHER DATE: 11 APR 67
000227:                                                                                                  #  MOD NO: 2     MOD BY: RR BAIRNSFATHER DATE: 12 MAY 67         ADD UR.RT CALC WHEN BELOW 300K FT
000228:                                                                                                  #  MOD NO: 2.1   MOD BY: RR BAIRNSFATHER DATE: 5 JULY 67         FIX ERROR IN MOD. 2
000229:                                                                                                  #  MOD NO: 3     MOD BY: RR BAIRNSFATHER DATE: 12 JUL 67         CHANGE SIGN OF DISPLAYED ERROR.
000230:                                                                                                  #  MOD 4         MOD BY  S.ZELDIN        DATE: 3 APRIL 68        CHANGE EQUATIONS FOR L/D=.18 WHICH REPLA
000231:
000232:                                                                                                  #  FUNCTION:     CALCULATE (FOR DISPLAY ON CALL) AN APPROXIMATE MEASURE OF IN-PLANE SPLASH DOWN
000233:                                                                                                  #                ERROR. IF THE FREE-FALL TRANSFER ANGLE TO 300K FT ABOVE PAD RADIUS IS POSITIVE:
000234:                                                                                                  #                SPLASH ERROR= -RANGE TO TARGET + FREE-FALL TRANSFER ANGLE + ESTIMATED ENTRY ANGLE.
000235:                                                                                                  #                THE TARGET LOCATION AT ESTIMATED TIME OF IMPACT IS USED.  IF THE FREE-FALL TRANSFER
000236:                                                                                                  #                ANGLE IS NEGATIVE:  SPASH ERROR= -RANGE TO TARGET.
000237:                                                                                                  #                THE PRESENT TARGET LOCATION IS USED.
000238:
000239:                                                                                                  #  CALLING SEQUENCE: CALLED AFTER SR30.1 IF IN CSM AND IF P11 OPERATING (UNDER CONTROL OF V82)
000240:
000241:                                                                                                  #  SUBROUTINES CALLED:  VGAMCALC, TFF/TRIG, LALOTORV.
000242:
000243:                                                                                                  #  EXIT:         RETURN DIRECTLY TO V 82 PROG. AT SPLRET
000244:
000245:                                                                                                  #  ERASABLE INITIALIZATION:  LEFT BY SR30.1 AND V82GON1
000246:
000247:                                                                                                  #  OUTPUT:       RSP-RREC  RANGE IN REVOLUTIONS.                 DSKY DISPLAY IN N. MI.
000248:
000249:                                                                                                  #  DEBRIS:       QPRET, PDL0 ... PDL7, PDL10.
000250:                                                                                                  #                THETA(1)
000251:
000252: 32,2000                                           SETLOC   DELRSPL1
000253: 32,2000                                           BANK
000254: 32,2027                                           COUNT*   $$/P30                                #  PROGRAMS: P30 EXTERNAL DELTA V
000255:
000256: 32,2027           00011        DELRSPL            STORE    8D
000257: 32,2030           45244                           BPL      DSU
000258: 32,2031           64077                                    CANTDO                                #  GONE PAST 300K FT ALT
000259: 32,2032           16425                                    1BITDP
000260: 32,2033           45000                           BOV      CALL
000261: 32,2034           64077                                    CANTDO                                #  POSMAX INDICATES NO 300K FT SOLUTION.
000262: 32,2035           55054                                    VGAMCALC                              #  +GAMMA(REV) IN PMAC,V300 MAG(B-7)=PDL 0
000263: 32,2036           45006                           PUSH     CALL
000264: 32,2037           57052                                    TFF/TRIG
000265: 32,2040           77624                           CALL
000266: 32,2041           64105                                    AUGEKUGL
000267: 32,2042           65525                           PDDL     ACOS                                  #  T ENTRY PDL 6
000268: 32,2043           00017                                    CDELF/2
000269: 32,2044           77615                           DAD
000270: 32,2045           00005                                    4
000271: 32,2046           26341        GETARG             STOVL    THETA(1)
000272: 32,2047           03401                                    LAT(SPL)
000273: 32,2050           14747                           STODL    LAT
000274: 32,2051           15336                                    HI6ZEROS
000275: 32,2052           14753                           STODL    ALT                                   #  ALT=0 = LAT +4
000276: 32,2053           01044                                    PIPTIME
000277: 32,2054           71214                           BON      DLOAD
000278:                                                                                                  # # Page 648
000279: 32,2055           03711                                    V37FLAG
000280: 32,2056           64060                                    +2
000281: 32,2057           02316                                    TSTART82
000282: 32,2060           43225                           DSU      DAD
000283: 32,2061           00011                                    8D
000284: 32,2062           45014                           CLEAR    CALL
000285: 32,2063           00662                                    ERADFLAG
000286: 32,2064           26524                                    LALOTORV                              #  R RECOV. IN ALPHAV AND MPAC
000287:
000288: 32,2065           63256                           UNIT     PDVL
000289: 32,2066           02320                                    RONE
000290: 32,2067           50256                           UNIT     DOT
000291: 32,2070           65552                           SL1      ARCCOS
000292: 32,2071           77621                           BDSU                                           #  ERROR = THETA EST - THETA TARG
000293:                                                                                                  #  NEGATIVE NUMBER SIGNIFIES THAT WILL FALL SHORT.
000294:                                                                                                  #  POSITIVE NUMBER SIGNIFIES THAT WILL OVERSHOOT.
000295: 32,2072           02341                                    THETA(1)
000296: 32,2073           36347        DELRDONE           STCALL   RSP-RREC                              #  DOWNRANGE RECOVERY RANGE ERROR        /360
000297: 32,2074           27525                                    INTWAKE0
000298: 32,2075           77624                           CALL
000299: 32,2076           46616                                    SPLRET
000300: 32,2077           65345        CANTDO             DLOAD    PDDL                                  #  INITIALIZE ERASE TO DOT TARGET AND UR
000301:                                                                                                  #  FOR RANGE ANGLE.
000302: 32,2100           15334                                    HIDPHALF                              #  TO PDL 0 FOR DEN IN DDV.
000303: 32,2101           15336                                    HI6ZEROS
000304: 32,2102           77606                           PUSH                                           #  ZERO TO PDL 2 FOR PHI ENTRY
000305: 32,2103           34011                           STCALL   8D
000306: 32,2104           64046                                    GETARG                                #  GO SET RSP-RREC =0
000307:
000308: 32,2105           77775        AUGEKUGL           VLOAD
000309: 32,2106           24266                                    X1CON      -2
000310: 32,2107           14045                           STODL    X1         -2
000311: 32,2110           00001                                    0
000312: 32,2111           50025                           DSU      BMN
000313: 32,2112           24260                                    V(21K)
000314: 32,2113           64140                                    LOOPSET
000315: 32,2114           65060                           XSU,1    XCHX,2
000316: 32,2115           00050                                    S1
000317: 32,2116           00046                                    X1
000318: 32,2117           45324                           XCHX,2   DSU
000319: 32,2120           00050                                    S1
000320: 32,2121           24246                                    V(3K)
000321: 32,2122           65040                           BMN      XCHX,2
000322: 32,2123           64140                                    LOOPSET
000323: 32,2124           00050                                    S1
000324: 32,2125           50025                           DSU      BMN
000325: 32,2126           24256                                    V(4K)
000326: 32,2127           64140                                    LOOPSET
000327: 32,2130           65124                           XCHX,2   XCHX,2
000328: 32,2131           00050                                    S1
000329:                                                                                                  # # Page 649
000330: 32,2132           00046                                    X1
000331: 32,2133           50025                           DSU      BMN
000332: 32,2134           24242                                    V(400)
000333: 32,2135           64140                                    LOOPSET
000334: 32,2136           77730                           SXA,1
000335: 32,2137           00050                                    S1
000336: 32,2140           52110        LOOPSET            INCR,1   GOTO
000337: 32,2141           00001                           DEC      1          B-14
000338: 32,2142           64145                                    K1K2LOOP
000339: 32,2143           77730        K2CALC             SXA,1
000340: 32,2144           00050                                    S1
000341: 32,2145           44745        K1K2LOOP           DLOAD    DSU*
000342: 32,2146           00001                                    0
000343: 32,2147           24255                                    V(32K)     +1,1
000344: 32,2150           42603                           DMP*     DAD*
000345: 32,2151           24241                                    YK1K2      +1,1
000346: 32,2152           24225                                    CK1K2      +1,1
000347: 32,2153           60125                           PDDL     TIX,1
000348: 32,2154           00003                                    2
000349: 32,2155           64143                                    K2CALC
000350: 32,2156           55225                           DSU      BDDV
000351: 32,2157           40006                           PUSH     BOV                                   #  PHI ENTRY PDL 4D
000352: 32,2160           64203                                    MAXPHI
000353: 32,2161           45240                           BMN      DSU
000354: 32,2162           64203                                    MAXPHI
000355: 32,2163           24210                                    MAXPHIC
000356: 32,2164           77644                           BPL
000357: 32,2165           64203                                    MAXPHI
000358: 32,2166           45345        PHICALC            DLOAD    DSU
000359: 32,2167           00001                                    0
000360: 32,2170           24266                                    V(26K)
000361: 32,2171           71244                           BPL      DLOAD
000362: 32,2172           64200                                    TGR26
000363: 32,2173           24262                                    TLESS26
000364: 32,2174           77671                           DDV
000365: 32,2175           00001                                    0
000366: 32,2176           43405        TENT               DMP      RVQ
000367: 32,2177           00005                                    4D
000368: 32,2200           52145        TGR26              DLOAD    GOTO
000369: 32,2201           24264                                    TGR26CON
000370: 32,2202           64176                                    TENT
000371:
000372: 32,2203           65345        MAXPHI             DLOAD    PDDL
000373: 32,2204           24210                                    MAXPHIC
000374: 32,2205           77650                           GOTO
000375: 32,2206           64166                                    PHICALC
000376: 32,2207           02755 01307  MAXPHIC            2DEC     .09259298                             #  2000 NM FOR MAXIMUM PHI ENTRY
000377:
000378: 32,2211                                           COUNT*   $$/P30
000379:                                                                                                  # # Page 650
000380:
000381:
000382:                                                                                                  #                BELOW
000383:                                                                                                  #  <<<< TABLE IS INDEXED. KEEP IN ORDER >>>
000384:
000385: 32,2211           00013 22652                     2DEC     7.07304526 E-4                        #  5500
000386:
000387: 32,2213           00005 01642                     2DEC     3.08641975 E-4                        #  2400
000388:
000389: 32,2215           00005 01642                     2DEC     3.08641975 E-4                        #  2400
000390:
000391: 32,2217           77556 53522                     2DEC     -8.8888888 E-3                        #  -3.2
000392:
000393: 32,2221           00055 20266                     2DEC     2.7777777  E-3                        #  1
000394:
000395: 32,2223           00155 07202  CK1K2              2DEC     6.6666666  E-3                        #  2.4
000396:
000397: 32,2225           00000 00000                     2DEC     0          B-28                       #  0
000398:
000399: 32,2227           77730 71525                     2DEC*    -1.86909989 E-5        B7*             #  -.443
000400:
000401: 32,2231           00000 00000                     2DEC     0          B-28
000402:
000403: 32,2233           04445 10102                     2DEC*    1.11639691 E-3        B7*             #  .001225
000404:
000405: 32,2235           03726 31201                     2DEC*    9.56911636 E-4        B7*             #  .00105
000406:
000407: 32,2237           01040 26313  YK1K2              2DEC*    2.59733157 E-4        B7*             #  .000285
000408:
000409: 32,2241           00234 01660  V(400)             2DEC     1.2192     B-7
000410:
000411: 32,2243           25254 01014  V(28K)             2DEC     85.344     B-7
000412:
000413: 32,2245           02222 15646  V(3K)              2DEC     9.144      B-7
000414:
000415: 32,2247           22223 16457  V(24K)             2DEC     73.152     B-7
000416:
000417: 32,2251           25254 01014                     2DEC     85.344     B-7
000418:
000419: 32,2253           30304 23351  V(32K)             2DEC     97.536     B-7
000420:
000421: 32,2255           03030 22335  V(4K)              2DEC     12.192     B-7
000422:
000423: 32,2257           20001 00611  V(21K)             2DEC     64.008     B-7
000424:
000425: 32,2261           00033 05763  TLESS26            2DEC*    5.70146688 E7         B-35*           #  8660PHI/V
000426:
000427: 32,2263           00053 36200  TGR26CON           2DEC     7.2        E5         B-28            #  PHI/3
000428:
000429: 32,2265           23637 27636  V(26K)             2DEC     79.248     B-7                        #  26000
000430:
000431: 32,2267           00012        X1CON              DEC      10         B-14
000432:
000433:                                                                                                  # # Page 651
000434:
000435: 32,2270           00010                           DEC      8          B-14
000436: 32,2271           00006                           DEC      6          B-14
000437:                                                                                                  #  <<<< TABLE IS INDEXED. KEEP IN ORDER >>>
000438:                                                                                                  #                ABOVE
000439:                                                                                                  # # Page 652
000440:
000441:                                                                                                  #  ***** AVFLAGA/P *****
000442:
000443:                                                                                                  #  SUBROUTINES USED
000444:
000445:                                                                                                  #        UPFLAG
000446:                                                                                                  #        DOWNFLAG
000447:
000448:    4000                                           SETLOC   P30SUBS
000449:    4000                                           BANK
000450:    4553                                           COUNT*   $$/P30
000451:    4553  E4,1760                                  EBANK=   SUBEXIT
000452:    4553           00006        AVFLAGA            EXTEND                                         #  AVFLAG = CSM
000453:    4554           23760                           QXCH     SUBEXIT
000454:    4555           05561                           TC       DOWNFLAG
000455:    4556           00050                           ADRES    AVFLAG                                #  BIT 5  FLAG 2
000456:    4557           04606                           TC       E7SETTER
000457:    4560  E7,1424                                  EBANK=   ECSTEER
000458:    4560           34754                           CAF      BIT13
000459:    4561           55424                           TS       ECSTEER                               #  SET ECSTEER = 1
000460:    4562           34756                           CAF      EBANK4
000461:    4563           54003                           TS       EBANK
000462:    4564  E4,1760                                  EBANK=   SUBEXIT
000463:    4564           01760                           TC       SUBEXIT
000464:    4565           00006        AVFLAGP            EXTEND                                         #  AVFLAG = LEM
000465:    4566           23760                           QXCH     SUBEXIT
000466:    4567           05547                           TC       UPFLAG
000467:    4570           00050                           ADRES    AVFLAG                                #  BIT 5  FLAG 2
000468:    4571           01760                           TC       SUBEXIT
000469:    4572           00006        P20FLGON           EXTEND
000470:    4573           23760                           QXCH     SUBEXIT
000471:    4574           05547                           TC       UPFLAG
000472:    4575           00031                           ADRES    TRACKFLG
000473:    4576           05547                           TC       UPFLAG
000474:    4577           00027                           ADRES    UPDATFLG
000475:    4600           05561                           TC       DOWNFLAG
000476:    4601           00244                           ADRES    PCFLAG
000477:    4602           01760                           TC       SUBEXIT
000478:
000479:                                                                                                  # # Page 653
000480:
000481: 04,2000                                           SETLOC   P31TAG
000482: 04,2000                                           BANK
000483:
000484: 04,3303                                           COUNT*   $$/P3136
000485: 04,3303           04553        P31                TC       AVFLAGA
000486: 04,3304           04572                           TC       P20FLGON                              #  SET TRACK,UPDATE, CLEAR FINAL FLAGS
000487: 04,3305           06006                           TC       INTPRET
000488: 04,3306           45014        P31ALMRT           CLEAR    CALL
000489: 04,3307           05671                                    CSISFLAG
000490: 04,3310           11546                                    INPUTDSP
000491: 04,3311           74014                           BOFF     AXC,1
000492: 04,3312           04343                                    CMOONFLG
000493: 04,3313           11315                                    COMPMU
000494: 04,3314           00012                                    10D
000495: 04,3315           51575        COMPMU             VLOAD    ABVAL
000496: 04,3316           01555                                    RRECTCSM
000497: 04,3317           62606                           PUSH     PDVL*                                 #                        PL AT 04D
000498: 04,3320           22301                                    MUTABLE,1                             #  RTX1=1/MU B+34,B+28, RTMU=SQRT(MU)
000499: 04,3321           27746                           STOVL    RTX1                                  #  B-18,B-15, RTSR1/MU=1/SQRT(MU)        B+17,B+14
000500: 04,3322           01563                                    VRECTCSM
000501: 04,3323           57236                           VSQ      DMPR
000502: 04,3324           03746                                    RTX1                                  #  VSQ/MU                                B+20,B+18
000503: 04,3325           52405                           DMP      SL3                                   #  R VSQ/MU              PL AT 02D       B-6
000504: 04,3326           74421                           BDSU     SR1R
000505: 04,3327           33416                                    D1/32                                 #  ( 2 - R VSQ/MU )                      B-7
000506: 04,3330           41471                           DDV      PUSH                                  #  ( 2 - R VSQ/MU )/R    PL AT 00D       B+22,B+20
000507: 04,3331           55366                           SQRT     BDDV                                  #  2 PI R/(2 - R VSQ/MU)                 B-15,B-14
000508: 04,3332           33430                                    2PISC
000509: 04,3333           65205                           DMP      PDDL
000510: 04,3334           03752                                    RTSR1/MU
000511: 04,3335           65301                           NORM     PDDL
000512: 04,3336           00047                                    X1
000513: 04,3337           56257                           SL*      DDV
000514: 04,3340           20172                                    0          -7D,1                      #  HAFPA1 = PERIOD/2                     B-28
000515: 04,3341           77621                           BDSU                                           #  TIG = ( TCSI - HAFPA1 )               B-28
000516: 04,3342           02463                                    TCSI
000517: 04,3343           03413                           STORE    TIG                                   #  TIG = ( TCSI - PERIOD/2 )             B-28
000518: 04,3344           77776                           EXIT
000519: 04,3345           35026                           CA       V06N33
000520: 04,3346           05535                           TC       VNFLASH
000521: 04,3347           06006                           TC       INTPRET
000522: 04,3350           77624        P31ONWRD           CALL
000523: 04,3351           11217                                    SELECTMU
000524: 04,3352           71214        P31RECYC           SET      DLOAD
000525: 04,3353           05470                                    HAFLAG
000526: 04,3354           02463                                    TCSI
000527: 04,3355           77624                           CALL
000528: 04,3356           11441                                    P31ENT
000529: 04,3357           77775        P31RT              VLOAD
000530:                                                                                                  # # Page 654
000531: 04,3360           11762                                    ZEROVEC
000532: 04,3361           17405                           STODL    DELVLVC
000533: 04,3362           02633                                    DIFFALT                               #  DELTA H AT CDH
000534: 04,3363           57215                           DAD      DMPR
000535: 04,3364           02370                                    HAMDELH                               #  METERS        B-29
000536: 04,3365           11376                                    25THOUS                               #  K = -.025                             B-0
000537: 04,3366           45061                           SL       CALL
000538: 04,3367           20206                                    5D
000539: 04,3370           24005                                    N90/N81
000540: 04,3371           77624                           CALL
000541: 04,3372           73027                                    VN1645                                #  S32/33.1, DISPLAYS AND COMPUTES DELVLVC
000542: 04,3373           77650                           GOTO                                           #  AND DELVSIN.
000543: 04,3374           11352                                    P31RECYC
000544: 04,3375           56574 47556  25THOUS            2DEC*    -.4114470842 E-5        B+17*           #                                B+17
000545:
000546: 04,3377           13434        130DEGLO           OCT      13434
000547: 04,3400           16163                           OCT      16163
000548: 04,3401           22407        208DEGLO           OCT      22407
000549: 04,3402           36673                           OCT      36673
000550: 22,2000                                           SETLOC   P36TAG
000551: 22,2000                                           BANK
000552:                                                                                                  # # Page 655
000553:
000554:                                                                                                  #  PLANE CHANGE TARGETING PROGRAM        P36
000555:                                                                                                  #
000556:                                                                                                  #  PURPOSE
000557:                                                                                                  #        TO COMPUTE PARAMETERS FOR PLANE CHANGE MANEUVER
000558:
000559:                                                                                                  #  INPUT
000560:                                                                                                  #        TCSI
000561:                                                                                                  #
000562:                                                                                                  #  OUTPUT
000563:                                                                                                  #        TIG             TIME OF PLANE CHANGE MANEUVER  COMPUTED TO BE
000564:                                                                                                  #                        TCSI + 90 DEG TRANSFER TIME
000565:                                                                                                  #        DELVLVC         DELTA VELOCITY AT PC - LOCAL VERTICAL
000566:                                                                                                  #        DELVSIN         DELTA VELOCITY AT PC - REFERENCE
000567:
000568: 22,3334                                           COUNT*   $$/P3136
000569: 22,3334           04553        P36                TC       AVFLAGA
000570: 22,3335           04572                           TC       P20FLGON                              #  SET TRACK,UPDATE - CLEAR PC FLAGS
000571: 22,3336           05547                           TC       UPFLAG
000572: 22,3337           00244                           ADRES    PCFLAG
000573:
000574: 22,3340           06006                           TC       INTPRET
000575: 22,3341           77624                           CALL
000576: 22,3342           11217                                    SELECTMU
000577: 22,3343           71214        P36A               SET      DLOAD
000578: 22,3344           01067                                    XDELVFLG
000579: 22,3345           02463                                    TCSI
000580: 22,3346           34041                           STCALL   TDEC1
000581: 22,3347           27170                                    CSMCONIC                              #  INTEGRATE STATES TO TCSI
000582: 22,3350           43145                           DLOAD    SET
000583: 22,3351           15336                                    ZEROVECS
000584: 22,3352           03466                                    RVSW
000585: 22,3353           16734                           STODL    CSTH                                  #  COS 90 DEGREES
000586: 22,3354           05547                                    CS359+
000587: 22,3355           26732                           STOVL    SNTH                                  #  SINE 90 DEGREES
000588: 22,3356           00001                                    RATT
000589: 22,3357           45115                           PDVL     CALL
000590: 22,3360           00007                                    VATT
000591: 22,3361           45320                                    VECSHIFT
000592: 22,3362           26746                           STOVL    VVEC
000593: 22,3363           77626                           STADR
000594: 22,3364           41120                           STCALL   RVEC                                  #  COMPUTE TRANSFER TIME OF 90 DEG
000595: 22,3365           25002                                    TIMETHET
000596: 22,3366           77615                           DAD
000597: 22,3367           02463                                    TCSI
000598: 22,3370           03413                           STORE    TIG
000599: 22,3371           77776                           EXIT
000600: 22,3372           35026                           CAF      V06N33
000601: 22,3373           05535                           TC       VNFLASH
000602: 22,3374           06006                           TC       INTPRET
000603: 22,3375           77624                           CALL
000604:                                                                                                  # # Page 656
000605: 22,3376           73027                                    VN1645
000606: 22,3377           45175        P36RECYC           VLOAD    CALL
000607: 22,3400           15336                                    ZEROVECS
000608: 22,3401           24005                                    N90/N81                               #  DISPLAY N90,N81 COMPUTE YDOT
000609: 22,3402           77624                           CALL
000610: 22,3403           73027                                    VN1645
000611: 22,3404           77650                           GOTO
000612: 22,3405           45377                                    P36RECYC
000613: 12,2000                                           SETLOC   N90TAG
000614: 12,2000                                           BANK
000615:                                                                                                  # # Page 657
000616:
000617:                                                                                                  #  ...... N90/N81 ....... COMPUTES YDOT, DISPLAYS N90 AND N81 FOR P31, P36
000618: 12,2005                                           COUNT*   $$/P3136
000619: 12,2005           77620        N90/N81            STQ
000620: 12,2006           02551                                    N90RET
000621: 12,2007           17405                           STODL    DELVLVC
000622: 12,2010           03413                                    TIG
000623: 12,2011           34041                           STCALL   TDEC1
000624: 12,2012           45236                                    PRECSET
000625: 12,2013           43014                           BON      SET
000626: 12,2014           01311                                    FINALFLG
000627: 12,2015           24017                                    +2
000628: 12,2016           00470                                    UPDATFLG
000629: 12,2017           77775                 +2        VLOAD
000630: 12,2020           03546                                    VACT3
000631: 12,2021           27640                           STOVL    VTIG
000632: 12,2022           03540                                    RACT3
000633: 12,2023           37632                           STCALL   RTIG
000634: 12,2024           15756                                    DISPN90
000635: 12,2025           77624                           CALL
000636: 12,2026           72721                                    LOMAT
000637: 12,2027           61375                           VLOAD    VXM
000638: 12,2030           03405                                    DELVLVC                               #  ROTATE DV (LV TO REF)
000639: 12,2031           00001                                    0D
000640: 12,2032           77772                           VSL1
000641: 12,2033           37646                           STCALL   DELVSIN
000642: 12,2034           02551                                    N90RET

End of include-file P30-P31.agc.  Parent file is MAIN.agc


