
Source Code


000002:                                                                                                  #  Copyright:    Public domain.
000003:                                                                                                  #  Filename:     P34-35_P74-75.agc
000004:                                                                                                  #  Purpose:      Part of the source code for Artemis (i.e., Colossus 3),
000005:                                                                                                  #                build 072.  This is for the Command Module's (CM)
000006:                                                                                                  #                Apollo Guidance Computer (AGC), we believe for
000007:                                                                                                  #                Apollo 15-17.
000008:                                                                                                  #  Assembler:    yaYUL
000009:                                                                                                  #  Contact:      Sergio Navarro <sergionavarrog@gmail.com>
000010:                                                                                                  #  Website:      www.ibiblio.org/apollo/index.html
000011:                                                                                                  #  Page scans:   www.ibiblio.org/apollo/ScansForConversion/Artemis072/
000012:                                                                                                  #  Mod history:  2009-08-19 SN   Adapted from corresponding Comanche 055 file.
000013:                                                                                                  #                2009-09-03 JL   Fixed symbol names.
000014:                                                                                                  #                2009-09-04 JL   Fixed a bunch of typos. Fixed page comments.
000015:                                                                                                  #                2009-09-07 JL   Fixed typos.
000016:                                                                                                  #                2010-01-31 JL   Fixed build errors.
000017:                                                                                                  #                2010-02-20 RSB  Un-##'d this header.
000018:                                                                                                  #                2011-05-07 JL   Removed workaround.
000019:
000020:                                                                                                  # # Page 463
000021:                                                                                                  #  TRANSFER PHASE INITITIATION (TPI) PROGRAMS (P34 AND P74)
000022:
000023:                                                                                                  #  MOD NO -1             LOG SECTION - P32-P35, P72-P75
000024:                                                                                                  #  MOD BY WHITE.P        DATE 1JUNE67
000025:
000026:                                                                                                  #  PURPOSE
000027:
000028:                                                                                                  #        (1) TO CALCULATE THE REQUIRED DELTA V AND OTHER INITIAL CONDITIONS
000029:                                                                                                  #            REQUIRED BY THE ACTIVE VEHICLE FOR EXECUTION OF THE TRANSFER
000030:                                                                                                  #            PHASE INITITATION (TPI) MANEUVER, GIVEN -
000031:
000032:                                                                                                  #            (A) TIME OF IGNITION TIG (TPI) OR THE ELEVATION ANGLE (E) OF
000033:                                                                                                  #                THE ACTIVE/PASSIVE VEHICLE LOS AT TIG (TPI).
000034:
000035:                                                                                                  #            (B) CENTRAL ANGLE OF TRANSFER (CENTANG) FROM TIG (TPI) TO
000036:                                                                                                  #                INTERCEPT TIME (TIG (TPF)).
000037:
000038:                                                                                                  #        (2) TO CALCULATE TIG (TPI) GIVEN E OR E GIVEN TIG (TPI).
000039:
000040:                                                                                                  #        (3) TO CALCULATE THESE PARAMETERS BASED UPON MANEUVER DATA
000041:                                                                                                  #            APPROVED AND KEYED INTO THE DSKY BY THE ASTRONAUT.
000042:
000043:                                                                                                  #        (4) TO DISPLAY TO THE ASTRONAUT AND THE GROUND CERTAIN DEPENDENT
000044:                                                                                                  #            VARIABLES ASSOCIATED WITH THE MANEUVER FOR APPROVAL BY THE
000045:                                                                                                  #            ASTRONAUT/GROUND.
000046:
000047:                                                                                                  #        (5) TO STORE THE TPI TARGET PARAMETERS FOR USE BY THE DESIRED
000048:                                                                                                  #            THRUSTING PROGRAM.
000049:
000050:                                                                                                  #  ASSUMPTIONS
000051:
000052:                                                                                                  #        (1) LM ONLY - THIS PROGRAM IS BASED UPON PREVIOUS COMPLETION OF
000053:                                                                                                  #            THE CONSTANT DELTA ALTITUDE (CDH) PROGRAM (P33/P73).
000054:                                                                                                  #            THEREFORE -
000055:
000056:                                                                                                  #            (A) AT A SELECTED TPI TIME (NOW IN STORAGE) THE LINE OF SIGHT
000057:                                                                                                  #                BETWEEN THE ACTIVE AND PASSIVE VEHICLES WAS SELECTED TO BE
000058:                                                                                                  #                A PRESCRIBED ANGLE (E) (NOW IN STORAGE) FROM THE
000059:                                                                                                  #                HORIZONTAL PLANE DEFINED BY THE ACTIVE VEHICLE POSITION.
000060:
000061:                                                                                                  #            (B) THE TIME BETWEEN CDH IGNITION AND TPI IGNITION WAS
000062:                                                                                                  #                COMPUTED TO BE GREATER THAN 10 MINUTES.
000063:
000064:                                                                                                  #            (C) THE VARIATION OF THE ALTITUDE DIFFERENCE BETWEEN THE
000065:                                                                                                  #                ORBITS WAS MINIMIZED.
000066:
000067:                                                                                                  #            (D) THE PERICENTER ALTITUDES OF ORBITS FOLLOWING CSI AND
000068:
000069:                                                                                                  #                CDH WERE COMPUTED TO BE GREATER THAN 35,000 FT FOR LUNAR
000070:                                                                                                  # # Page 464
000071:                                                                                                  #                ORBIT OR 85 NM FOR EARTH ORBIT.
000072:
000073:                                                                                                  #            (E) THE CSI AND CDH MANEUVERS WERE ASSUMED TO BE PARALLEL TO
000074:                                                                                                  #                THE PLANE OF THE PASSIVE VEHICLE ORBIT.  HOWEVER, CREW
000075:                                                                                                  #                MODIFICATION OF DELTA V (LV) COMPONENTS MAY HAVE RESULTED
000076:                                                                                                  #                IN AN OUT-OF-PLANE MANEUVER.
000077:
000078:                                                                                                  #        (2) STATE VECTOR UPDATED BY P27 ARE DISALLOWED DURING AUTOMATIC
000079:                                                                                                  #            STATE VECTOR UPDATING INITIATED BY P20 (SEE ASSUMPTION (4)).
000080:
000081:                                                                                                  #        (3) THIS PROGRAM MUST BE DONE OVER A TRACKING STATION FOR REAL
000082:                                                                                                  #            TIME GROUND PARTICIPATION IN DATA INPUT AND OUTPUT.  COMPUTED
000083:                                                                                                  #            VARIABLES MAY BE STORED FOR LATER VERIFICATION BY THE GROUND.
000084:                                                                                                  #            THESE STORAGE CAPABILITIES ARE LIMITED ONLY TO THE PARAMETERS
000085:                                                                                                  #            FOR ONE THRUSTING MANEUVER AT A TIME EXCEPT FOR CONCENTRIC
000086:                                                                                                  #            FLIGHT PLAN MANEUVER SEQUENCES.
000087:
000088:                                                                                                  #        (4) THE RENDEZVOUS RADAR MAY OR MAY NOT BE USED TO UPDATE THE LM
000089:                                                                                                  #            OR CSM STATE VECTORS FOR THIS PROGRAM.  IF RADAR USE IS
000090:                                                                                                  #            DESIRED THE RADAR WAS TURNED ON AND LOCKED ON THE CSM BY
000091:                                                                                                  #            PREVIOUS SELECTION OF P20.  RADAR SIGHTING MARKS WILL BE MADE
000092:                                                                                                  #            AUTOMATICALLY APPROXIMATELY ONCE A MINUTE WHEN ENABLED BY THE
000093:                                                                                                  #            TRACK AND UPDATE FLAGS (SEE P20).  THE RENDEZVOUS TRACKING
000094:                                                                                                  #            MARK COUNTER IS ZEROED BY THE SELECTION OF P20 AND AFTER EACH
000095:                                                                                                  #            THRUSTING MANEUVER.
000096:
000097:                                                                                                  #        (5) THE ISS NEED NOT BE ON TO COMPLETE THIS PROGRAM.
000098:
000099:                                                                                                  #        (6) THE OPERATION OF THE PROGRAM UTILIZES THE FOLLOWING FLAGS -
000100:
000101:                                                                                                  #                ACTIVE VEHICLE FLAG - DESIGNATES THE VEHICLE WHICH IS
000102:                                                                                                  #                DOING RENDEZVOUS THRUSTING MANEUVERS TO THE PROGRAM WHICH
000103:                                                                                                  #                CALCULATES THE MANEUVER PARAMETERS.  SET AT THE START OF
000104:                                                                                                  #                EACH RENDEZVOUS PRE-THRUSTING PROGRAM.
000105:
000106:                                                                                                  #                FINAL FLAG - SELECTS FINAL PROGRAM DISPLAYS AFTER CREW HAS
000107:                                                                                                  #                SELECTED THE FINAL MANEUVER COMPUTATION CYCLE.
000108:
000109:                                                                                                  #                EXTERNAL DELTA V FLAG - DESIGNATES THE TYPE OF STEERING
000110:                                                                                                  #                REQUIRED FOR EXECUTION OF THIS MANEUVER BY THE THRUSTING
000111:                                                                                                  #                PROGRAM SELECTED AFTER COMPLETION OF THIS PROGRAM.
000112:
000113:                                                                                                  #        (7) ONCE THE PARAMETERS REQUIRED FOR COMPUTATION OF THE MANEUVER
000114:                                                                                                  #            HAVE BEEN COMPLETELY SPECIFIED, THE VALUE OF THE ACTIVE
000115:                                                                                                  #            VEHICLE CENTRAL ANGLE OF TRANSFER IS COMPUTED AND STORED.
000116:                                                                                                  #            THIS NUMBER WILL BE AVAILABLE FOR DISPLAY TO THE ASTRONAUT
000117:                                                                                                  #            THROUGH THE USE OF V06N52.
000118:
000119:                                                                                                  #            THE ASTRONAUT WILL CALL THIS DISPLAY TO VERIFY THAT THE
000120:                                                                                                  #            CENTRAL ANGLE OF TRANSFER OF THE ACTIVE VEHICLE IS NOT WITHIN
000121:                                                                                                  # # Page 465
000122:                                                                                                  #            170 TO 190 DEGREES.  IF THE ANGLE IS WITHIN THIS ZONE THE
000123:                                                                                                  #            ASTRONAUT SHOULD REASSESS THE INPUT TARGETING PARAMETERS BASED
000124:                                                                                                  #            UPON DELTA V AND EXPECTED MANEUVER TIME.
000125:
000126:                                                                                                  #        (8) THIS PROGRAM IS SELECTED BY THE ASTRONAUT BY DSKY ENTRY -
000127:
000128:                                                                                                  #                P34 IF THIS VEHICLE IS ACTIVE VEHICLE.
000129:
000130:                                                                                                  #                P74 IF THIS VEHICLE IS PASSIVE VEHICLE.
000131:
000132:                                                                                                  #  INPUT
000133:
000134:                                                                                                  #        (1) TTPI        TIME OF THE TPI MANEUVER
000135:                                                                                                  #        (2) ELEV        DESIRED LOS ANGLE AT TPI
000136:                                                                                                  #        (3) CENTANG     ORBITAL CENTRAL ANGLE OF THE PASSIVE VEHICLE DURING
000137:                                                                                                  #                        TRANSFER FROM TPI TO TIME OF INTERCEPT
000138:
000139:                                                                                                  #  OUTPUT
000140:
000141:                                                                                                  #        (1) TRKMKCNT    NUMBER OF MARKS
000142:                                                                                                  #        (2) TTOGO       TIME TO GO
000143:                                                                                                  #        (3) +MGA        MIDDLE GIMBAL ANGLE
000144:                                                                                                  #        (4) TTPI        COMPUTED TIME OF TPI MANEUVER
000145:                                                                                                  #             OR
000146:                                                                                                  #            ELEV        COMPUTED LOS ANGLE AT TPI
000147:                                                                                                  #        (5) POSTTPI     PERIGEE ALTITUDE AFTER THE TPI MANEUVER
000148:                                                                                                  #        (6) DELVTPI     MAGNITUDE OF DELTA V AT TPI
000149:                                                                                                  #        (7) DELVTPF     MAGNITUDE OF DELTA V AT INTERCEPT
000150:                                                                                                  #        (8) DVLOS       DELTA VELOCITY AT TPI - LINE OF SIGHT
000151:                                                                                                  #        (9) DELVLVC     DELTA VELOCITY AT TPI - LOCAL VERTICAL COORDINATES
000152:
000153:                                                                                                  #  DOWNLINK
000154:
000155:                                                                                                  #        (1) TTPI        TIME OF THE TPI MANEUVER
000156:                                                                                                  #        (2) TIG         TIME OF THE TPI MANEUVER
000157:                                                                                                  #        (3) ELEV        DESIRED LOS ANGLE AT TPI
000158:                                                                                                  #        (4) CENTANG     ORBITAL CENTRAL ANGLE OF THE PASSIVE VEHICLE DURING
000159:                                                                                                  #                        TRANSFER FROM TPI TO TIME OF INTERCEPT
000160:                                                                                                  #        (5) DELVEET3    DELTA VELOCITY AT TPI - REFERENCE COORDINATES
000161:                                                                                                  #        (6) TPASS4      TIME OF INTERCEPT
000162:
000163:                                                                                                  #  COMMUNICATION TO THRUSTING PROGRAMS
000164:
000165:                                                                                                  #        (1) TIG         TIME OF THE TPI MANEUVER
000166:                                                                                                  #        (2) RTARG       OFFSET TARGET POSITION
000167:                                                                                                  #        (3) TPASS4      TIME OF INTERCEPT
000168:                                                                                                  #        (4) XDELVFLG    RESET TO INDICATE LAMBERT (AIMPOINT) VG COMPUTATION
000169:
000170:                                                                                                  #  SUBROUTINES USED
000171:
000172:                                                                                                  #        AVFLAGA
000173:                                                                                                  # # Page 466
000174:                                                                                                  #        AVFLAGP
000175:                                                                                                  #        VNPOOH
000176:                                                                                                  #        DISPLAYE
000177:                                                                                                  #        SELECTMU
000178:                                                                                                  #        PRECSET
000179:                                                                                                  #        S33/34.1
000180:                                                                                                  #        ALARM
000181:                                                                                                  #        BANKCALL
000182:                                                                                                  #        GOFLASH
000183:                                                                                                  #        GOTOPOOH
000184:                                                                                                  #        TIMETHET
000185:                                                                                                  #        S34/35.2
000186:                                                                                                  #        PERIAPO1
000187:                                                                                                  #        SHIFTR1
000188:                                                                                                  #        S34/35.5
000189:                                                                                                  #        VN1645
000190:
000191: 35,2000                                           SETLOC   CSI/CDH
000192: 35,2000                                           BANK
000193: 35,2000  E4,1760                                  EBANK=   SUBEXIT
000194: 35,2000                                           COUNT*   $$/P3474
000195: 35,2000           04553        P34                TC       AVFLAGA
000196: 35,2001           02003                           TC       P34/P74A
000197: 35,2002           04565        P74                TC       AVFLAGP
000198: 35,2003           04572        P34/P74A           TC       P20FLGON
000199: 35,2004           06006                           TC       INTPRET
000200: 35,2005           71214                           CLEAR    DLOAD
000201: 35,2006           05274                                    TPIMNFLG
000202: 35,2007           32205                                    130DEG
000203: 35,2010           17754                           STODL    CENTANG
000204: 35,2011           15336                                    ZEROVECS
000205: 35,2012           03744                           STORE    ELEV
000206: 35,2013           03766                           STORE    NN
000207: 35,2014           77776                           EXIT
000208:
000209: 35,2015           34532                           CAF      V06N37
000210: 35,2016           05535                           TC       VNFLASH
000211: 35,2017           34533                           CAF      V06N55
000212: 35,2020           05535                           TC       VNFLASH
000213: 35,2021           06006                           TC       INTPRET
000214: 35,2022           71214                           CLEAR    DLOAD
000215: 35,2023           01270                                    ETPIFLAG
000216: 35,2024           03663                                    TTPI
000217: 35,2025           17413                           STODL    TIG
000218: 35,2026           03744                                    ELEV
000219: 35,2027           43054                           BZE      SET
000220: 35,2030           72032                                    P34/P74B
000221: 35,2031           01070                                    ETPIFLAG
000222: 35,2032           77624        P34/P74B           CALL
000223: 35,2033           11217                                    SELECTMU
000224:                                                                                                  # # Page 467
000225: 35,2034                        DELELO             EQUALS   26D
000226: 35,2034           43145        P34/P74C           DLOAD    SET
000227: 35,2035           15336                                    ZEROVECS
000228: 35,2036           03461                                    ITSWICH
000229: 35,2037           43014                           BON      CLEAR
000230: 35,2040           01310                                    ETPIFLAG
000231: 35,2041           72043                                    SWCHSET
000232: 35,2042           03661                                    ITSWICH
000233: 35,2043           02355        SWCHSET            STORE    NOMTPI
000234: 35,2044           43345        INTLOOP            DLOAD    DAD
000235: 35,2045           03663                                    TTPI
000236: 35,2046           02355                                    NOMTPI
000237: 35,2047           34041                           STCALL   TDEC1
000238: 35,2050           45236                                    PRECSET
000239: 35,2051           77624                           CALL
000240: 35,2052           72251                                    S33/34.1
000241: 35,2053           77454                           BZE      EXIT
000242: 35,2054           72065                                    SWCHCLR
000243: 35,2055           05671        INTALM             TC       ALARM
000244: 35,2056           00611                           OCT      611
000245: 35,2057           35023                           CAF      V05N09
000246: 35,2060           04636                           TC       BANKCALL
000247: 35,2061           20743                           CADR     GOFLASH
000248: 35,2062           04103                           TC       GOTOPOOH
000249: 35,2063           02003                           TC       P34/P74A                              #  PROCEED
000250: 35,2064           02055                           TC       INTALM                                #  V32
000251: 35,2065           43014        SWCHCLR            BONCLR   BON
000252: 35,2066           03601                                    ITSWICH
000253: 35,2067           72044                                    INTLOOP
000254: 35,2070           01310                                    ETPIFLAG
000255: 35,2071           72100                                    P34/P74D                              #  DISPLAY TTPI
000256: 35,2072           77776                           EXIT
000257: 35,2073           34533                           CAF      V06N55
000258: 35,2074           05535                           TC       VNFLASH
000259: 35,2075           06006                           TC       INTPRET
000260: 35,2076           77650                           GOTO
000261: 35,2077           72120                                    P34/74E
000262: 35,2100           77776        P34/P74D           EXIT
000263: 35,2101           34532                           CAF      V06N37                                #  TTPI
000264: 35,2102           05535                           TC       VNFLASH
000265: 35,2103           06006        P34/P74E           TC       INTPRET
000266: 35,2104           43014                           BOFF     BOFF
000267: 35,2105           01351                                    FINALFLG
000268: 35,2106           72120                                    P34/74E                               #  LAST PASS
000269: 35,2107           05350                                    AUTOSEQ
000270: 35,2110           72120                                    P34/74E
000271: 35,2111           43145                           DLOAD    CLEAR                                 #  IT IS FINAL COMP IN MINKEY
000272: 35,2112           15336                                    ZEROVECS                              #    SET UP FOR TIG OPTION
000273: 35,2113           01270                                    ETPIFLAG
000274: 35,2114           17744                           STODL    ELEV
000275:                                                                                                  # # Page 468
000276: 35,2115           03663                                    TTPI
000277: 35,2116           37413                           STCALL   TIG
000278: 35,2117           72034                                    P34/P74C
000279: 35,2120           71201        P34/74E            SETPD    DLOAD
000280: 35,2121           00001                                    0D
000281: 35,2122           03746                                    RTX1
000282: 35,2123           14047                           STODL    X1
000283: 35,2124           03754                                    CENTANG
000284: 35,2125           71406                           PUSH     COS
000285: 35,2126           16734                           STODL    CSTH
000286: 35,2127           77756                           SIN
000287: 35,2130           26732                           STOVL    SNTH
000288: 35,2131           03554                                    RPASS3
000289: 35,2132           77657                           VSR*
000290: 35,2133           57176                                    0,2
000291: 35,2134           26657                           STOVL    RVEC
000292: 35,2135           03562                                    VPASS3
000293: 35,2136           43057                           VSR*     SET
000294: 35,2137           57176                                    0,2
000295: 35,2140           03466                                    RVSW
000296: 35,2141           36746                           STCALL   VVEC
000297: 35,2142           25002                                    TIMETHET
000298: 35,2143           77745                           DLOAD
000299: 35,2144           03663                                    TTPI
000300: 35,2145           03503                           STORE    INTIME                                #  FOR INITVEL
000301: 35,2146           77615                           DAD
000302: 35,2147           00037                                    T                                     #  RENDEZVOUS TIME
000303: 35,2150           37656                           STCALL   TPASS4                                #  FOR INITVEL
000304: 35,2151           72561                                    S34/35.2
000305: 35,2152           51575                           VLOAD    ABVAL
000306: 35,2153           03646                                    DELVEET3
000307: 35,2154           26635                           STOVL    DELVTPI
000308: 35,2155           03640                                    VPASS4
000309: 35,2156           51451                           VSU      ABVAL
000310: 35,2157           03620                                    VTPRIME
000311: 35,2160           26637                           STOVL    DELVTPF
000312: 35,2161           03540                                    RACT3
000313: 35,2162           45115                           PDVL     CALL
000314: 35,2163           03612                                    VIPRIME
000315: 35,2164           45174                                    PERIAPO1
000316: 35,2165           77624                           CALL
000317: 35,2166           45330                                    SHIFTR1
000318: 35,2167           16641                           STODL    POSTTPI
000319: 35,2170           03663                                    TTPI
000320: 35,2171           03413                           STORE    TIG
000321: 35,2172           77776                           EXIT
000322: 35,2173           34534                           CAF      V06N58
000323: 35,2174           05535                           TC       VNFLASH
000324: 35,2175           06006                           TC       INTPRET
000325: 35,2176           77624                           CALL
000326:                                                                                                  # # Page 469
000327: 35,2177           72774                                    S34/35.5
000328: 35,2200           77624                           CALL
000329: 35,2201           73027                                    VN1645
000330: 35,2202           77650                           GOTO
000331: 35,2203           72034                                    P34/P74C
000332: 35,2204           13434        130DEG             OCT      13434                                 #  13  DEG - CENTANG
000333: 35,2205           16163                           OCT      16163
000334:
000335:                                                                                                  # # Page 470
000336:                                                                                                  #  RENDEZVOUS MID-COURSE MANEUVER PROGRAMS (P35 AND P75)
000337:
000338:                                                                                                  #  MOD NO -1             LOG SECTION - P32-P35, P72-P75
000339:                                                                                                  #  MOD BY WHITE.P        DATE  1JUNE67
000340:
000341:                                                                                                  #  PURPOSE
000342:
000343:                                                                                                  #        (1) TO CALCULATE THE REQUIRED DELTA V AND OTHER INITIAL CONDITIONS
000344:                                                                                                  #            REQUIRED BY THE ACTIVE VEHICLE FOR EXECUTION OF THE NEXT
000345:                                                                                                  #            MID-COURSE CORRECTION OF THE TRANSFER PHASE OF AN ACTIVE
000346:                                                                                                  #            VEHICLE RENDEZVOUS.
000347:
000348:                                                                                                  #        (2) TO DISPLAY TO THE ASTRONAUT AND THE GROUND CERTAIN DEPENDENT
000349:                                                                                                  #            VARIABLES ASSOCIATED WITH THE MANEUVER FOR APPROVAL BY THE
000350:                                                                                                  #            ASTRONAUT/GROUND.
000351:
000352:                                                                                                  #        (3) TO STORE THE TPM TARGET PARAMETERS FOR USE BY THE DESIRED
000353:                                                                                                  #            THRUSTING PROGRAM.
000354:
000355:                                                                                                  #  ASSUMPTIONS
000356:
000357:                                                                                                  #        (1) THE ISS NEED NOT BE ON TO COMPLETE THIS PROGRAM.
000358:
000359:                                                                                                  #        (2) STATE VECTOR UPDATES BY P27 ARE DISALLOWED DURING AUTOMATIC
000360:                                                                                                  #            STATE VECTOR UPDATING INITIATED BY P20 (SEE ASSUMPTION (3)).
000361:
000362:                                                                                                  #        (3) THE RENDEZVOUS RADAR IS ON AND IS LOCKED ON THE CSM.  THIS WAS
000363:                                                                                                  #            DONE DURING PREVIOUS SELECTION OF P20.  RADAR SIGHTING MARKS
000364:                                                                                                  #            WILL BE MADE AUTOMATICALLY APPROXIMATELY ONCE A MINUTE WHEN
000365:                                                                                                  #            ENABLED BY THE TRACK AND UPDATE FLAGS (SEE P20). THE
000366:                                                                                                  #            RENDEZVOUS TRACKING MARK COUNTER IS ZEROED BY THE SELECTION OF
000367:                                                                                                  #            P20 AND AFTER EACH THRUSTING MANEUVER.
000368:
000369:                                                                                                  #        (4) THE OPERATION OF THE PROGRAM UTILIZES THE FOLLOWING FLAGS -
000370:
000371:                                                                                                  #                ACTIVE VEHICLE FLAG - DESIGNATES THE VEHICLE WHICH IS
000372:                                                                                                  #                DOING RENDEZVOUS THRUSTING MANEUVERS TO THE PROGRAM WHICH
000373:                                                                                                  #                CALCULATES THE MANEUVER PARAMETERS.  SET AT THE START OF
000374:                                                                                                  #                EACH RENDEZVOUS PRE-THRUSTING PROGRAM.
000375:
000376:                                                                                                  #                FINAL FLAG - SELECTS FINAL PROGRAM DISPLAYS AFTER CREW HAS
000377:                                                                                                  #                SELECTED THE FINAL MANEUVER COMPUTATION CYCLE.
000378:
000379:                                                                                                  #                EXTERNAL DELTA V FLAG - DESIGNATES THE TYPE OF STEERING
000380:                                                                                                  #                REQUIRED FOR EXECUTION OF THIS MANEUVER BY THE THRUSTING
000381:                                                                                                  #                PROGRAM SELECTED AFTER COMPLETION OF THIS PROGRAM.
000382:
000383:                                                                                                  #        (5) THE TIME OF INTERCEPT (T(INT)) WAS DEFINED BY PREVIOUS
000384:                                                                                                  #            COMPLETION OF THE TRANSFER PHASE INITIATION (TPI) PROGRAM
000385:                                                                                                  #            (P34/P74) AND IS PRESENTLY AVAILABLE IN STORAGE.
000386:
000387:                                                                                                  # # Page 471
000388:                                                                                                  #        (6) ONCE THE PARAMETERS REQUIRED FOR COMPUTATION OF THE MANEUVER
000389:                                                                                                  #            HAVE BEEN COMPLETELY SPECIFIED, THE VALUE OF THE ACTIVE
000390:                                                                                                  #            VEHICLE CENTRAL ANGLE OF TRANSFER IS COMPUTED AND STORED.
000391:                                                                                                  #            THIS NUMBER WILL BE AVAILABLE FOR DISPLAY TO THE ASTRONAUT
000392:                                                                                                  #            THROUGH THE USE OF V06N52.
000393:
000394:                                                                                                  #            THE ASTRONAUT WILL CALL THIS DISPLAY TO VERIFY THAT THE
000395:                                                                                                  #            CENTRAL ANGLE OF TRANSFER OF THE ACTIVE VEHICLE IS NOT WITHIN
000396:                                                                                                  #            170 TO 190 DEGREES.  IF THE ANGLE IS WITHIN THIS ZONE THE
000397:                                                                                                  #            ASTRONAUT SHOULD REASSESS THE INPUT TARGETING PARAMETERS BASED
000398:                                                                                                  #            UPON DELTA V AND EXPECTED MANEUVER TIME.
000399:
000400:                                                                                                  #        (7) THIS PROGRAM IS SELECTED BY THE ASTRONAUT BY DSKY ENTRY -
000401:
000402:                                                                                                  #                P35 IF THIS VEHICLE IS ACTIVE VEHICLE.
000403:
000404:                                                                                                  #                P75 IF THIS VEHICLE IS PASSIVE VEHICLE.
000405:
000406:                                                                                                  #  INPUT
000407:
000408:                                                                                                  #        (1) TPASS4      TIME OF INTERCEPT - SAVED FROM P34/P74
000409:
000410:                                                                                                  #  OUTPUT
000411:
000412:                                                                                                  #        (1) TRKMKCNT    NUMBER OF MARKS
000413:                                                                                                  #        (2) TTOGO       TIME TO GO
000414:                                                                                                  #        (3) +MGA        MIDDLE GIMBAL ANGLE
000415:                                                                                                  #        (4) DVLOS       DELTA VELOCITY AT MID - LINE OF SIGHT
000416:                                                                                                  #        (5) DELVLVC     DELTA VELOCITY AT MID - LOCAL VERTICAL COORDINATES
000417:
000418:                                                                                                  #  DOWNLINK
000419:
000420:                                                                                                  #        (1) TIG         TIME OF THE TPM MANEUVER
000421:                                                                                                  #        (2) DELVEET3    DELTA VELOCITY AT TPM - REFERENCE COORDINATES
000422:                                                                                                  #        (3) TPASS4      TIME OF INTERCEPT
000423:
000424:                                                                                                  #  COMMUNICATION TO THRUSTING PROGRAMS
000425:
000426:                                                                                                  #        (1) TIG         TIME OF THE TPM MANEUVER
000427:                                                                                                  #        (2) RTARG       OFFSET TARGET POSITION
000428:                                                                                                  #        (3) TPASS4      TIME OF INTERCEPT
000429:                                                                                                  #        (4) XDELVFLG    RESET TO INDICATE LAMBERT (AIMPOINT) VG COMPUTATION.
000430:
000431:                                                                                                  #  SUBROUTINES USED
000432:
000433:                                                                                                  #        AVFLAGA
000434:                                                                                                  #        AVFLAGP
000435:                                                                                                  #        LOADTIME
000436:                                                                                                  #        SELECTMU
000437:                                                                                                  #        PRECSET
000438:                                                                                                  #        S34/35.1
000439:                                                                                                  #        S34/35.2
000440:                                                                                                  # # Page 472
000441:                                                                                                  #        S34/35.5
000442:                                                                                                  #        VN1645
000443:
000444: 35,2206                                           COUNT*   $$/P3575
000445: 35,2206  E4,1754                                  EBANK=   KT
000446:
000447: 35,2206           04553        P35                TC       AVFLAGA
000448: 35,2207           00006                           EXTEND
000449: 35,2210           31422                           DCA      ATIGINC
000450: 35,2211           02215                           TC       P35/P75A
000451: 35,2212           04565        P75                TC       AVFLAGP
000452: 35,2213           00006                           EXTEND
000453: 35,2214           31424                           DCA      PTIGINC
000454: 35,2215           53755        P35/P75A           DXCH     KT
000455: 35,2216           04572                           TC       P20FLGON                              #  SET UPDATFLG, TRACKFLG
000456: 35,2217           06006                           TC       INTPRET
000457: 35,2220           77624                           CALL
000458: 35,2221           11217                                    SELECTMU
000459: 35,2222           77634        P35/P75B           RTB
000460: 35,2223           51751                                    LOADTIME
000461: 35,2224           03665                           STORE    TSTRT
000462: 35,2225           77615                           DAD
000463: 35,2226           02355                                    KT
000464: 35,2227           03413                           STORE    TIG
000465: 35,2230           03503                           STORE    INTIME                                #  FOR INITVEL
000466: 35,2231           34041                           STCALL   TDEC1
000467: 35,2232           45236                                    PRECSET                               #  ADVANCE BOTH VEHICLES
000468: 35,2233           77624                           CALL
000469: 35,2234           74000                                    S34/35.1                              #  GET NORM AND LOS FOR TRANSFORM
000470: 35,2235           77624                           CALL
000471: 35,2236           72561                                    S34/35.2                              #  GET DELTA V(LV)
000472: 35,2237           77624                           CALL
000473: 35,2240           72774                                    S34/35.5
000474: 35,2241           43014                           BOFF     SET
000475: 35,2242           01351                                    FINALFLG
000476: 35,2243           72245                                    +2
000477: 35,2244           05067                                    P35FLAG
000478: 35,2245           77624                           CALL
000479: 35,2246           73027                                    VN1645
000480: 35,2247           77650                           GOTO
000481: 35,2250           72222                                    P35/P75B
000482:                                                                                                  # # Page 473
000483:                                                                                                  #  ..... S33/34.1  .....
000484:
000485: 35,2251           66220        S33/34.1           STQ      SSP
000486: 35,2252           01023                                    NORMEX
000487: 35,2253           03665                                    TITER
000488: 35,2254           40000                           OCT      40000
000489: 35,2255           40345                           DLOAD    SETPD
000490: 35,2256           33145                                    MAX250
000491: 35,2257           00001                                    0D
000492: 35,2260           27454                           STOVL    SECMAX
000493: 35,2261           03540                                    RACT3
000494: 35,2262           27576                           STOVL    RAPREC
000495: 35,2263           03546                                    VACT3
000496: 35,2264           27570                           STOVL    VAPREC
000497: 35,2265           03554                                    RPASS3
000498: 35,2266           27620                           STOVL    RPPREC
000499: 35,2267           03562                                    VPASS3
000500: 35,2270           03612                           STORE    VPPREC
000501: 35,2271           77624        ELCALC             CALL
000502: 35,2272           74000                                    S34/35.1                              #  NORMAL AND LOS
000503: 35,2273           63235                           VXV      PDVL
000504: 35,2274           03540                                    RACT3                                 #  (RA*VA)*RA 0D
000505: 35,2275           53515                           PDVL     UNIT                                  #  ULOS AT 6D
000506: 35,2276           03540                                    RACT3
000507: 35,2277           46315                           PDVL     VPROJ                                 #  XCHNJ AND UP
000508: 35,2300           51352                           VSL2     BVSU
000509: 35,2301           02625                                    ULOS
000510: 35,2302           63256                           UNIT     PDVL                                  #  UP AT 0D
000511: 35,2303           63241                           DOT      PDVL                                  #  UP.UN*RA AT 0D
000512: 35,2304           00001                                    0D                                    #  UP IN MPAC
000513: 35,2305           75241                           DOT      SIGN
000514: 35,2306           02625                                    ULOS
000515: 35,2307           65552                           SL1      ACOS
000516: 35,2310           50315                           PDVL     DOT                                   #  EA AT 0D
000517: 35,2311           02625                                    ULOS
000518: 35,2312           03540                                    RACT3
000519: 35,2313           71244                           BPL      DLOAD
000520: 35,2314           72317                                    TESTY
000521: 35,2315           15344                                    DPPOSMAX
000522: 35,2316           41425                           DSU      PUSH
000523: 35,2317           71214        TESTY              BOFF     DLOAD
000524: 35,2320           03741                                    ITSWICH
000525: 35,2321           72546                                    ELEX
000526: 35,2322           03452                                    DELEL
000527: 35,2323           14033                           STODL    DELELO
000528: 35,2324           77625                           DSU
000529: 35,2325           03744                                    ELEV
000530: 35,2326           03452                           STORE    DELEL
000531: 35,2327           45246                           ABS      DSU
000532: 35,2330           33151                                    ELEPS
000533:                                                                                                  # # Page 474
000534: 35,2331           77640                           BMN
000535: 35,2332           72556                                    TIMEX                                 #  COMMERCIALS EVERYWHERE
000536: 35,2333           70535        FIGTIME            SLOAD    SR1
000537: 35,2334           03665                                    TITER
000538: 35,2335           72030                           BHIZ     LXA,1
000539: 35,2336           01023                                    NORMEX                                #  TOO MANY ITERATIONS
000540: 35,2337           00154                                    MPAC
000541: 35,2340           77330                           SXA,1    VLOAD
000542: 35,2341           03664                                    TITER
000543: 35,2342           03554                                    RPASS3
000544: 35,2343           65256                           UNIT     PDDL
000545: 35,2344           00045                                    36D
000546: 35,2345           53515                           PDVL     UNIT
000547: 35,2346           03540                                    RACT3
000548: 35,2347           77725                           PDDL
000549: 35,2350           41525                           PDDL     PUSH
000550: 35,2351           00045                                    36D
000551: 35,2352           77621                           BDSU
000552: 35,2353           00015                                    12D
000553: 35,2354           14037                           STODL    30D                                   #  RP - RA MAGNITUDES
000554: 35,2355           15334                                    DPHALF
000555: 35,2356           41425                           DSU      PUSH
000556: 35,2357           03744                                    ELEV
000557: 35,2360           50165                           SIGN     BMN
000558: 35,2361           00037                                    30D
000559: 35,2362           01023                                    NORMEX
000560: 35,2363           71545                           DLOAD    COS
000561: 35,2364           56205                           DMP      DDV
000562: 35,2365           00017                                    14D
000563: 35,2366           00015                                    12D
000564: 35,2367           77676                           DCOMP                                          #  SINCE COS(180-A)=-COS A
000565: 35,2370           00035                           STORE    28D
000566: 35,2371           44246                           ABS      BDSU
000567: 35,2372           15334                                    DPHALF
000568: 35,2373           77240                           BMN      VLOAD
000569: 35,2374           01023                                    NORMEX
000570: 35,2375           02617                                    UNRM
000571: 35,2376           53435                           VXV      UNIT
000572: 35,2377           00007                                    6D                                    #  UN*RA
000573: 35,2400           41241                           DOT      DMP
000574: 35,2401           03546                                    VACT3
000575: 35,2402           00015                                    12D
000576: 35,2403           47315                           PDVL     VXV
000577: 35,2404           00001                                    0D
000578: 35,2405           03562                                    VPASS3
000579: 35,2406           53435                           VXV      UNIT
000580: 35,2407           00001                                    0D                                    #  (RP*VP)*RP
000581: 35,2410           41241                           DOT      DMP
000582: 35,2411           03562                                    VPASS3
000583: 35,2412           00017                                    14D
000584:                                                                                                  # # Page 475
000585: 35,2413           77621                           BDSU
000586: 35,2414           63301                           NORM     PDVL                                  #  NORMALIZED WA - WP 12D
000587: 35,2415           00047                                    X1
000588: 35,2416           00007                                    6D
000589: 35,2417           50235                           VXV      DOT
000590: 35,2420           00001                                    0D
000591: 35,2421           02617                                    UNRM                                  #  RA*RP.UN 14D
000592: 35,2422           50315                           PDVL     DOT
000593: 35,2423           00001                                    0D
000594: 35,2424           00007                                    6D
000595: 35,2425           65552                           SL1      ACOS
000596: 35,2426           77765                           SIGN
000597: 35,2427           43225                           DSU      DAD                                   #    ALPHA   PI
000598: 35,2430           15334                                    DPHALF
000599: 35,2431           03744                                    ELEV
000600: 35,2432           65525                           PDDL     ACOS
000601: 35,2433           00035                                    28D
000602: 35,2434           75221                           BDSU     SIGN
000603: 35,2435           15334                                    DPHALF
000604: 35,2436           00037                                    30D                                   #  CONTAINS RP-RA
000605: 35,2437           77615                           DAD
000606: 35,2440           56205                           DMP      DDV
000607: 35,2441           33143                                    TWOPI
000608: 35,2442           77605                           DMP
000609: 35,2443           41257                           SL*      DMP
000610: 35,2444           20176                                    0          -3,1
000611: 35,2445           51406                           PUSH     ABS
000612: 35,2446           50025                           DSU      BMN
000613: 35,2447           03454                                    SECMAX
000614: 35,2450           72454                                    OKMAX
000615: 35,2451           75345                           DLOAD    SIGN                                  #  REPLACE TIME WITH MAX TIME SIGNED
000616: 35,2452           03454                                    SECMAX
000617: 35,2453           77606                           PUSH
000618: 35,2454           51135        OKMAX              SLOAD    BPL                                   #  TEST FIRST ITERATION
000619: 35,2455           03665                                    TITER
000620: 35,2456           72464                                    REPETE
000621: 35,2457           71331                           SSP      DLOAD
000622: 35,2460           03665                                    TITER
000623: 35,2461           37777                           OCT      37777
000624: 35,2462           77650                           GOTO
000625: 35,2463           72522                                    STORDELT
000626: 35,2464           41345        REPETE             DLOAD    DMP
000627: 35,2465           03452                                    DELEL
000628: 35,2466           00033                                    DELELO
000629: 35,2467           71244                           BPL      DLOAD
000630: 35,2470           72500                                    NEXTES
000631: 35,2471           03454                                    SECMAX
000632: 35,2472           77605                           DMP
000633: 35,2473           33147                                    THIRD
000634: 35,2474           17454                           STODL    SECMAX
000635:                                                                                                  # # Page 476
000636: 35,2475           70446                           ABS      SR1                                   #  CROSSED OVER SOLUTION
000637: 35,2476           52076                           DCOMP    GOTO                                  #  DT=(-SIGN(DTO)//DT//)/2
000638: 35,2477           72510                                    RESIGN
000639: 35,2500           51545        NEXTES             DLOAD    ABS
000640: 35,2501           03452                                    DELEL
000641: 35,2502           51525                           PDDL     ABS
000642: 35,2503           00033                                    DELELO
000643: 35,2504           77625                           DSU
000644: 35,2505           71240                           BMN      DLOAD
000645: 35,2506           72513                                    REVERS                                #  WRONG DIRECTION
000646: 35,2507           77646                           ABS
000647: 35,2510           52165        RESIGN             SIGN     GOTO
000648: 35,2511           03450                                    DELTEEO
000649: 35,2512           72522                                    STORDELT
000650: 35,2513           57545        REVERS             DLOAD    DCOMP
000651: 35,2514           03450                                    DELTEEO
000652: 35,2515           70406                           PUSH     SR1
000653: 35,2516           03450                           STORE    DELTEEO
000654: 35,2517           77615                           DAD
000655: 35,2520           77650                           GOTO
000656: 35,2521           72523                                    ADTIME
000657: 35,2522           03450        STORDELT           STORE    DELTEEO
000658: 35,2523           77615        ADTIME             DAD
000659: 35,2524           02355                                    NOMTPI                                #  SUM OF DELTA T'S
000660: 35,2525           02355                           STORE    NOMTPI
000661: 35,2526           63375                           VLOAD    PDVL
000662: 35,2527           03570                                    VAPREC
000663: 35,2530           03576                                    RAPREC
000664: 35,2531           77624                           CALL
000665: 35,2532           72734                                    GOINT
000666: 35,2533           77624                           CALL
000667: 35,2534           45304                                    ACTIVE                                #  STORE NEW RACT3 VACT3
000668: 35,2535           63375                           VLOAD    PDVL
000669: 35,2536           03612                                    VPPREC
000670: 35,2537           03620                                    RPPREC
000671: 35,2540           77624                           CALL
000672: 35,2541           72734                                    GOINT
000673: 35,2542           77624                           CALL
000674: 35,2543           45314                                    PASSIVE                               #  STORE NEW RPASS3 VPASS3
000675: 35,2544           77650                           GOTO
000676: 35,2545           72271                                    ELCALC
000677: 35,2546           43345        ELEX               DLOAD    DAD
000678: 35,2547           03663                                    TTPI
000679: 35,2550           02355                                    NOMTPI
000680: 35,2551           17663                           STODL    TTPI
000681: 35,2552           77614                           BON
000682: 35,2553           01310                                    ETPIFLAG
000683: 35,2554           72556                                    TIMEX
000684: 35,2555           03744                           STORE    ELEV
000685: 35,2556           52145        TIMEX              DLOAD    GOTO
000686:                                                                                                  # # Page 477
000687: 35,2557           15336                                    ZEROVECS
000688: 35,2560           01023                                    NORMEX
000689:
000690:                                                                                                  # # Page 478
000691:                                                                                                  #  ..... S34/35.1  .....
000692:
000693:                                                                                                  #  COMPUTE UNIT NORMAL AND LINE OF SIGHT VECTORS GIVEN THE ACTIVE AND
000694:                                                                                                  #  PASSIVE POS AND VEL AT TIME T3
000695:
000696: 36,2000                                           SETLOC   S3435LOC
000697: 36,2000                                           BANK
000698:
000699: 36,2000                                           COUNT*   $$/P3474
000700: 36,2000           52375        S34/35.1           VLOAD    VSU
000701: 36,2001           03554                                    RPASS3
000702: 36,2002           03540                                    RACT3
000703: 36,2003           41456                           UNIT     PUSH
000704: 36,2004           26625                           STOVL    ULOS
000705: 36,2005           03540                                    RACT3
000706: 36,2006           53435                           VXV      UNIT
000707: 36,2007           03546                                    VACT3
000708: 36,2010           02617                           STORE    UNRM
000709: 36,2011           77616                           RVQ
000710:
000711:                                                                                                  # # Page 479
000712:                                                                                                  #  ..... S34/35.2  .....
000713:
000714:                                                                                                  #  ADVANCE PASSIVE VEH TO RENDEZVOUS TIME AND GET REQ VEL FROM LAMBERT
000715:
000716: 35,2000                                           SETLOC   CSI/CDH
000717: 35,2000                                           BANK
000718:
000719: 35,2561                                           COUNT*   $$/P3474
000720: 35,2561           77220        S34/35.2           STQ      VLOAD
000721: 35,2562           02360                                    SUBEXIT
000722: 35,2563           03562                                    VPASS3
000723: 35,2564           65315                           PDVL     PDDL
000724: 35,2565           03554                                    RPASS3
000725: 35,2566           03503                                    INTIME
000726: 35,2567           65325                           PDDL     PDDL
000727: 35,2570           03656                                    TPASS4
000728: 35,2571           33143                                    TWOPI                                 #  CONIC
000729: 35,2572           46125                           PDDL     BHIZ
000730: 35,2573           03766                                    NN
000731: 35,2574           72577                                    S3435.23
000732: 35,2575           65345                           DLOAD    PDDL
000733: 35,2576           15336                                    ZEROVECS                              #  PRECISION
000734: 35,2577           77624        S3435.23           CALL
000735: 35,2600           72740                                    INTINT                                #  GET TARGET VECTOR
000736: 35,2601           27415        S3435.25           STOVL    RTARG
000737: 35,2602           00007                                    VATT
000738: 35,2603           27640                           STOVL    VPASS4
000739: 35,2604           03415                                    RTARG
000740:                                                                                                  #  COMPUTE PHI = PI + (ACOS(UNIT RA.UNIT RP)-PI)SIGN(RA*RP.U)
000741: 35,2605           63256                           UNIT     PDVL                                  #  UNIT RP
000742: 35,2606           03540                                    RACT3
000743: 35,2607           41456                           UNIT     PUSH                                  #  UNIT RA
000744: 35,2610           50235                           VXV      DOT
000745: 35,2611           00001                                    0D
000746: 35,2612           02617                                    UNRM                                  #  RA*RP.U
000747: 35,2613           77715                           PDVL
000748: 35,2614           72441                           DOT      SL1                                   #  UNIT RA.UNIT RP
000749: 35,2615           00001                                    0D
000750: 35,2616           75326                           ACOS     SIGN
000751: 35,2617           43244                           BPL      DAD
000752: 35,2620           72622                                    NOPIE
000753: 35,2621           15344                                    DPPOSMAX                              #  REASONABLE TWO PI
000754: 35,2622           16633        NOPIE              STODL    ACTCENT
000755: 35,2623           03656                                    TPASS4
000756: 35,2624           77625                           DSU
000757: 35,2625           03503                                    INTIME
000758: 35,2626           03423                           STORE    DELLT4
000759: 35,2627           40335                           SLOAD    SETPD
000760: 35,2630           03766                                    NN                                    #  NUMBER OF OFFSETS
000761: 35,2631           00001                                    0D
000762: 35,2632           63325                           PDDL     PDVL
000763:                                                                                                  # # Page 480
000764: 35,2633           33156                                    EPSFOUR
000765: 35,2634           03540                                    RACT3
000766: 35,2635           27570                           STOVL    RINIT
000767: 35,2636           03546                                    VACT3
000768: 35,2637           37576                           STCALL   VINIT
000769: 35,2640           22000                                    INITVEL
000770: 35,2641           77624                           CALL
000771: 35,2642           72721                                    LOMAT
000772: 35,2643           64375                           VLOAD    MXV
000773: 35,2644           03646                                    DELVEET3
000774: 35,2645           00001                                    0D
000775: 35,2646           77772                           VSL1
000776: 35,2647           37405                           STCALL   DELVLVC
000777: 35,2650           02360                                    SUBEXIT
000778:
000779:                                                                                                  # # Page 481
000780:                                                                                                  #  ..... S34/35.3  .....
000781:
000782: 35,2651           45020        S34/35.3           STQ      CALL
000783: 35,2652           01023                                    NORMEX
000784: 35,2653           72721                                    LOMAT                                 #  GET MATRIX IN PUSH LIST
000785: 35,2654           61375                           VLOAD    VXM
000786: 35,2655           03405                                    DELVLVC                               #  NEW DEL V TPI
000787: 35,2656           00001                                    0D
000788: 35,2657           77772                           VSL1
000789: 35,2660           03646                           STORE    DELVEET3                              #  SAVE FOR TRANSFORM
000790: 35,2661           63255                           VAD      PDVL
000791: 35,2662           03546                                    VACT3                                 #  NEW V REQ
000792: 35,2663           03540                                    RACT3
000793: 35,2664           65325                           PDDL     PDDL
000794: 35,2665           03413                                    TIG
000795: 35,2666           03656                                    TPASS4
000796: 35,2667           41525                           PDDL     PUSH
000797: 35,2670           15344                                    DPPOSMAX
000798: 35,2671           77624                           CALL                                           #  INTEG. FOR NEW TARGET VEC
000799: 35,2672           72740                                    INTINT
000800: 35,2673           77775                           VLOAD
000801: 35,2674           00001                                    RATT
000802: 35,2675           03415                           STORE    RTARG
000803: 35,2676           41575        NOVRWRT            VLOAD    PUSH
000804: 35,2677           02625                                    ULOS
000805: 35,2700           57435                           VXV      VCOMP
000806: 35,2701           02617                                    UNRM
000807: 35,2702           41456                           UNIT     PUSH
000808: 35,2703           76435                           VXV      VSL1
000809: 35,2704           02625                                    ULOS
000810: 35,2705           77715                           PDVL
000811: 35,2706           64315                           PDVL     MXV
000812: 35,2707           03646                                    DELVEET3
000813: 35,2710           00001                                    0D
000814: 35,2711           77772                           VSL1
000815: 35,2712           36611                           STCALL   DVLOS
000816: 35,2713           01023                                    NORMEX
000817:
000818:                                                                                                  # # Page 482
000819:                                                                                                  #  ..... S34/35.4  .....
000820:
000821: 35,2714           40220        S34/35.4           STQ      SETPD                                 #  NO ASTRONAUT OVERWRITE
000822: 35,2715           01023                                    NORMEX
000823: 35,2716           00001                                    0D
000824: 35,2717           77650                           GOTO
000825: 35,2720           72676                                    NOVRWRT
000826:
000827:                                                                                                  # # Page 483
000828:                                                                                                  #  ..... LOMAT     .....
000829:
000830: 35,2721           57575        LOMAT              VLOAD    VCOMP
000831: 35,2722           02617                                    UNRM
000832: 35,2723           24007                           STOVL    6D                                    #  Y
000833: 35,2724           03540                                    RACT3
000834: 35,2725           57456                           UNIT     VCOMP
000835: 35,2726           00015                           STORE    12D
000836: 35,2727           76435                           VXV      VSL1
000837: 35,2730           02617                                    UNRM                                  #  Z*-Y
000838: 35,2731           00001                           STORE    0D
000839: 35,2732           43401                           SETPD    RVQ
000840: 35,2733           00023                                    18D
000841: 35,2734           65325        GOINT              PDDL     PDDL                                  #  DO
000842: 35,2735           15336                                    ZEROVECS                              #    NOT
000843: 35,2736           02355                                    NOMTPI
000844: 35,2737           41406                           PUSH     PUSH                                  #                ORDER OR INSERT BEFORE INTINT
000845: 35,2740           45020        INTINT             STQ      CALL
000846: 35,2741           02357                                    RTRN
000847: 35,2742           27516                                    INTSTALL
000848: 35,2743           71214                           CLEAR    DLOAD
000849: 35,2744           01673                                    INTYPFLG
000850: 35,2745           43054                           BZE      SET
000851: 35,2746           72750                                    +2
000852: 35,2747           01473                                    INTYPFLG
000853: 35,2750           45545                           DLOAD    STADR
000854: 35,2751           63736                           STODL    TDEC1
000855: 35,2752           73014                           SET      LXA,2
000856: 35,2753           00063                                    MOONFLAG
000857: 35,2754           03746                                    RTX2
000858: 35,2755           43014                           BON      CLEAR
000859: 35,2756           04303                                    CMOONFLG
000860: 35,2757           72761                                    ALLSET
000861: 35,2760           00263                                    MOONFLAG
000862: 35,2761           25517        ALLSET             STOVL    TET
000863: 35,2762           77657                           VSR*
000864: 35,2763           57176                                    0,2
000865: 35,2764           25535                           STOVL    RCV
000866: 35,2765           77657                           VSR*
000867: 35,2766           57176                                    0,2
000868: 35,2767           35543                           STCALL   VCV
000869: 35,2770           27211                                    INTEGRVS
000870: 35,2771           52175                           VLOAD    GOTO
000871: 35,2772           00001                                    RATT
000872: 35,2773           02357                                    RTRN
000873:
000874:                                                                                                  # # Page 484
000875:                                                                                                  #  ..... S34/35.5  .....
000876:
000877:                                                                                                  #  SUBROUTINES USED
000878:
000879:                                                                                                  #        BANKCALL
000880:                                                                                                  #        GOFLASH
000881:                                                                                                  #        GOTOPOOH
000882:                                                                                                  #        S34/35.3
000883:                                                                                                  #        S34.35.4
000884:                                                                                                  #        VNPOOH
000885:
000886: 35,2774           43020        S34/35.5           STQ      BON
000887: 35,2775           02360                                    SUBEXIT
000888: 35,2776           01311                                    FINALFLG
000889: 35,2777           73003                                    FLAGON
000890: 35,3000           52014                           SET      GOTO
000891: 35,3001           00470                                    UPDATFLG
000892: 35,3002           73005                                    FLAGON     +2
000893: 35,3003           77614        FLAGON             SET
000894: 35,3004           05074                                    TPIMNFLG                              #  INDICATE TPI MANEUVER DONE
000895: 35,3005           77775                 +2        VLOAD
000896: 35,3006           03405                                    DELVLVC
000897: 35,3007           03620                           STORE    VTPRIME                               #  SAVE DELTA V BEFORE DISPLAY
000898: 35,3010           77776                           EXIT
000899: 35,3011           34535                           CAF      V06N81
000900: 35,3012           05535                           TC       VNFLASH
000901: 35,3013           06006                           TC       INTPRET
000902: 35,3014           52375                           VLOAD    VSU                                   #  TEST FOR OVERWRITE OF COMPUTED
000903: 35,3015           03405                                    DELVLVC                               #                       DELTA V
000904: 35,3016           03620                                    VTPRIME
000905: 35,3017           53046                           ABVAL    BZE
000906: 35,3020           73023                                    FLAGOFF
000907: 35,3021           77624                           CALL
000908: 35,3022           72651                                    S34/35.3                              #  COMPUTE NEW TARGET VECTOR
000909:                                                                                                  #  TRANSFER OF DELVEET3 TO DELVSIN OUT...THEY SHARE SAME ERASABLE.
000910: 35,3023           77624        FLAGOFF            CALL
000911: 35,3024           72714                                    S34/35.4
000912: 35,3025           77650        FLAGEND            GOTO
000913: 35,3026           02360                                    SUBEXIT
000914:
000915:                                                                                                  # # Page 485
000916:                                                                                                  #  ..... VN1645    .....
000917:
000918:                                                                                                  #  SUBROUTINES USED
000919:
000920:                                                                                                  #        P3XORP7X
000921:                                                                                                  #        GET+MGA
000922:                                                                                                  #        BANKCALL
000923:                                                                                                  #        DELAYJOB
000924:                                                                                                  #        COMPTGO
000925:                                                                                                  #        GOFLASHR
000926:                                                                                                  #        GOTOPOOH
000927:                                                                                                  #        FLAGUP
000928:
000929: 35,3027           71220        VN1645             STQ      DLOAD
000930: 35,3030           02360                                    SUBEXIT
000931: 35,3031           33154                                    DP-.01
000932: 35,3032           03626                           STORE    +MGA                                  #  MGA = -.01
000933: 35,3033           71214                           BOFF     DLOAD
000934: 35,3034           01351                                    FINALFLG
000935: 35,3035           73055                                    GET45
000936: 35,3036           33154                                    DP-.01
000937: 35,3037           77615                           DAD
000938: 35,3040           33154                                    DP-.01
000939: 35,3041           03626                           STORE    +MGA                                  #  MGA = -.02
000940: 35,3042           77414                           BOFF     EXIT
000941: 35,3043           01742                                    REFSMFLG
000942: 35,3044           73055                                    GET45
000943: 35,3045           03137                           TC       P3XORP7X
000944: 35,3046           03050                           TC       +2                                    #  P3X
000945: 35,3047           03056                           TC       GET45      +1                         #  P7X
000946: 35,3050           06006                           TC       INTPRET
000947: 35,3051           41575                           VLOAD    PUSH
000948: 35,3052           03646                                    DELVSIN
000949: 35,3053           77624                           CALL                                           #  COMPUTE MGA
000950: 35,3054           56444                                    GET+MGA
000951: 35,3055           77776        GET45              EXIT
000952: 35,3056           03525                 +1        TC       COMPTGO                               #  INITIATE TASK TO UPDATE TTOGO
000953: 35,3057           31760                           CA       SUBEXIT
000954: 35,3060           55756                           TS       QSAVED
000955: 35,3061           04636                           TC       BANKCALL
000956: 35,3062           01730                           CADR     1SECDELY
000957: 35,3063           34536                           CAF      V16N45                                #  TRKMKCNT, TTOGO, +MGA
000958: 35,3064           04636                           TC       BANKCALL
000959: 35,3065           20743                           CADR     GOFLASH
000960: 35,3066           04103                           TC       GOTOPOOH                              #  TERMINATE
000961: 35,3067           03071                           TC       N45PROC                               #  PROCEED
000962: 35,3070           03101                           TC       CLUPDATE                              #  RECYCLE - RETURN FOR INITIAL COMPUTATION
000963: 35,3071           40076        N45PROC            CS       FLAGWRD2
000964: 35,3072           74763                           MASK     FINALBIT
000965: 35,3073           00006                           EXTEND
000966:                                                                                                  # # Page 486
000967: 35,3074           13113                           BZF      N45ENAJ                               #  FINAL FLAG SET - FINAL PASS
000968: 35,3075           05402        N45NORM            TC       PHASCHNG
000969: 35,3076           04024                           OCT      04024
000970: 35,3077           05547                           TC       UPFLAG                                #  SET
000971: 35,3100           00047                           ADRES    FINALFLG                              #  FINALFLG
000972: 35,3101           05561        CLUPDATE           TC       DOWNFLAG
000973: 35,3102           00155                           ADRES    TIMRFLAG                              #  TERMINATE CLOKTASK
000974: 35,3103           33136                           CAF      VN1645AD                              #  CHANGE BACK TO 4.1 FOR
000975: 35,3104           54373                           TS       TEMPFLSH                              #  FUTURE DISPLAYS
000976: 35,3105           05402                           TC       PHASCHNG
000977: 35,3106           00014                           OCT      14
000978:
000979: 35,3107           06006        VN1645R            TC       INTPRET
000980: 35,3110           52014                           CLEAR    GOTO
000981: 35,3111           00670                                    UPDATFLG
000982: 35,3112           02356                 +3                 QSAVED
000983: 35,3113           05402        N45ENAJ            TC       PHASCHNG                              #  PROTECT MANEVFLG, WRENDPOS
000984: 35,3114           04024                           OCT      04024
000985: 35,3115           06006                           TC       INTPRET
000986: 35,3116           77745                           DLOAD
000987: 35,3117           03413                                    TIG
000988: 35,3120           03450                           STORE    NOMTIG
000989: 35,3121           43014                           BON      SET
000990: 35,3122           05316                                    PCFLAG
000991: 35,3123           73125                                    CHGRMS
000992: 35,3124           05072                                    MANEUFLG                              #  DONT SET FLAG IF PC MANEUVER
000993: 35,3125           71214        CHGRMS             BOFF     DLOAD
000994: 35,3126           05350                                    AUTOSEQ
000995: 35,3127           73132                                    SAMERMS
000996: 35,3130           33135                                    POSVEL2                               #  CHANGE RMS ONLY IN MINKEY
000997: 35,3131           02001                           STORE    WRENDPOS
000998: 35,3132           77776        SAMERMS            EXIT
000999: 35,3133           14105                           TCF      MNKGOPOO
001000: 35,3134           00023        POSVEL2            DEC      608        B-19                       #  2000 FT IN METERS
001001: 35,3135           00144        POSVEL3            DEC      .00608                                #  2 FT/SEC IN M/CS
001002: 35,3136           73112        VN1645AD           CADR     VN1645R    +3
001003:
001004:                                                                                                  # # Page 487
001005:                                                                                                  #  ..... P3XORP7X  .....
001006:
001007: 35,3137           37677        P3XORP7X           CAF      HIGH9
001008: 35,3140           71214                           MASK     MODREG
001009: 35,3141           15651                           TCF      INCRQCK
001010:    4000                                           SETLOC   P30SUBS
001011:    4000                                           BANK
001012:
001013:    4532                                           COUNT*   $$/P3474
001014:
001015:                                                                                                  # # Page 488
001016:                                                                                                  #  ..... CONSTANTS .....
001017:
001018:    4532           01445        V06N37             VN       0637
001019:    4533           01467        V06N55             VN       0655
001020:    4534           01472        V06N58             VN       0658
001021:    4535           01521        V06N81             VN       0681
001022:    4536           04055        V16N45             VN       1645
001023:    4537           01006        V04N06             VN       0406
001024:
001025: 35,2000                                           SETLOC   CSI/CDH
001026: 35,2000                                           BANK
001027:
001028: 35,3142                                           COUNT*   $$/P3474
001029: 35,3142           14441 37325  TWOPI              2DEC     6.283185307 B-4
001030: 35,3144           00001 20650  MAX250             2DEC     25         E3
001031: 35,3146           12525 12525  THIRD              2DEC     .333333333
001032: 35,3150           00004 21505  ELEPS              2DEC     .27777777  E-3
001033: 35,3152           00002        DECTWO             DEC      2          B-14
001034: 35,3153           77777        DP-.01             OCT      77777                                 #  CONSTANTS
001035: 35,3154           61337                           OCT      61337                                 #  ADJACENT      -.01 FOR MGA DSP
001036: 35,3155           01252 25253  EPSFOUR            2DEC     .0416666666
001037: 35,3157           01473        V06N59             VN       0659
001038:
001039:                                                                                                  # # Page 489
001040:                                                                                                  #  ..... INITVEL .....
001041:
001042:                                                                                                  #  MOD NO -1             LOG SECTION - P34-P35, P74-P75
001043:                                                                                                  #  MOD BY WHITE.P        DATE  21NOV67
001044:
001045:                                                                                                  #  FUNCTIONAL DESCRIPTION
001046:
001047:                                                                                                  #        THIS SUBROUTINE COMPUTES THE REQUIRED INITIAL VELOCITY VECTOR FOR
001048:                                                                                                  #        A TRAJECTORY OF SPECIFIC TRANSFER TIME BETWEEN SPECIFIED INITIAL
001049:                                                                                                  #        AND TARGET POSITIONS.  THE TRAJECTORY MAY BE EITHER CONIC OR
001050:                                                                                                  #        PRECISION DEPENDING ON AN INPUT PARAMETER (NAMELY, NUMBER OF
001051:                                                                                                  #        OFFSETS).  IN ADDITION, IN THE PRECISION TRAJECTORY CASE, THE
001052:                                                                                                  #        SUBROUTINE ALSO COMPUTES AN OFFSET TARGET VECTOR, TO BE USED
001053:                                                                                                  #        DURING PURE-CONIC CROSS-PRODUCT STEERING.  THE OFFSET TARGET
001054:                                                                                                  #        VECTOR IS THE TERMINAL POSITION VECTOR OF A CONIC TRAJECTORY WHICH
001055:                                                                                                  #        HAS THE SAME INITIAL STATE AS A PRECISION TRAJECTORY WHOSE
001056:                                                                                                  #        TERMINAL POSITION VECTOR IS THE SPECIFIED TARGET VECTOR.
001057:
001058:                                                                                                  #        IN ORDER TO AVOID THE INHERENT SINGULARITIES IN THE 180 DEGREE
001059:                                                                                                  #        TRANSFER CASE WHEN THE (TRUE OR OFFSET) TARGET VECTOR MAY BE
001060:                                                                                                  #        SLIGHTLYOUT OF THE ORBITAL PLANE, THIS SUBROUTINE ROTATES THIS
001061:                                                                                                  #        VECTOR INTO A PLANE DEFINED BY THE INPUT INITIAL POSITION VECTOR
001062:                                                                                                  #        AND ANOTHER INPUT VECTOR (USUALLY THE INITIAL VELOCITY VECTOR),
001063:                                                                                                  #        WHENEVER THE INPUT TARGET VECTOR LIES INSIDE A CONE WHOSE VERTEX
001064:                                                                                                  #        IS THE ORIGIN OF COORDINATES, WHOSE AXIS IS THE 180 DEGREE
001065:                                                                                                  #        TRANSFER DIRECTION, AND WHOSE CONE ANGLE IS SPECIFIED BY THE USER.
001066:
001067:                                                                                                  #        THE LAMBERT SUBROUTINE IS UTILIZED FOR THE CONIC COMUTATIONS AND
001068:                                                                                                  #        THE COASTING INTEGRATION SUBROUTINE IS UTILIZED FOR THE PRECISION
001069:                                                                                                  #        TRAJECTORY COMPUTATIONS.
001070:
001071:                                                                                                  #  CALLING SEQUENCE
001072:
001073:                                                                                                  #        L       CALL
001074:                                                                                                  #        L+1             INITVEL
001075:                                                                                                  #        L+2     (RETURN - ALWAYS)
001076:
001077:                                                                                                  #  INPUT
001078:
001079:                                                                                                  #        (1) RINIT       INITIAL POSITION RADIUS VECTOR
001080:                                                                                                  #        (2) VINIT       INITIAL POSITION VELOCITY VECTOR
001081:                                                                                                  #        (3) RTARG       TARGET POSITION RADIUS VECTOR
001082:                                                                                                  #        (4) DELLT4      DESIRED TIME OF FLIGHT FROM RINIT TO RTARG
001083:                                                                                                  #        (5) INTIME      TIME OF RINIT
001084:                                                                                                  #        (6) 0D          NUMBER OF ITERATIONS OF LAMBERT/INTEGRVS
001085:                                                                                                  #        (7) 2D          ANGLE TO 180 DEGREES WHEN ROTATION STARTS
001086:                                                                                                  #        (8) RTX1        -2 FOR EARTH, -10D FOR LUNAR
001087:                                                                                                  #        (9) RTX2        COORDINATE SYSTEM ORIGIN - 0 FOR EARTH, 2 FOR LUNAR
001088:                                                                                                  #        PUSHLOC SET AT 4D
001089:
001090:                                                                                                  # # Page 490
001091:                                                                                                  #  OUTPUT
001092:
001093:                                                                                                  #        (1) RTARG       OFFSET TARGET POSITION VECTOR
001094:                                                                                                  #        (2) VIPRIME     MANEUVER VELOCITY REQUIRED
001095:                                                                                                  #        (3) VTPRIME     VELOCITY AT TARGET AFTER MANEUVER
001096:                                                                                                  #        (4) DELVEET3    DELTA VELOCITY REQUIRED FOR MANEUVER
001097:
001098:                                                                                                  #  SUBROUTINES USED
001099:
001100:                                                                                                  #        LAMBERT
001101:                                                                                                  #        INTSTALL
001102:                                                                                                  #        INTEGRVS
001103:
001104: 11,2000                                           SETLOC   INTVEL
001105: 11,2000                                           BANK
001106:
001107: 11,2000                                           COUNT*   $$/INITV
001108: 11,2000           77614        INITVEL            SET                                            #  COGA GUESS NOT AVAILABLE
001109: 11,2001           00475                                    GUESSW
001110: 11,2002           44175        HAVEGUES           VLOAD    STQ
001111: 11,2003           03415                                    RTARG
001112: 11,2004           01023                                    NORMEX
001113: 11,2005           03604                           STORE    RTARG1
001114: 11,2006           46135                           SLOAD    BHIZ
001115: 11,2007           03747                                    RTX2
001116: 11,2010           22022                                    INITVEL1
001117: 11,2011           72575                           VLOAD    VSL2
001118: 11,2012           03570                                    RINIT                                 #  B29
001119: 11,2013           27570                           STOVL    RINIT                                 #  B27
001120: 11,2014           03576                                    VINIT                                 #  B7
001121: 11,2015           77752                           VSL2
001122: 11,2016           27576                           STOVL    VINIT                                 #  B5
001123: 11,2017           03604                                    RTARG1
001124: 11,2020           77752                           VSL2
001125: 11,2021           03604                           STORE    RTARG1
001126:
001127:                                                                                                  #  INITIALIZATION
001128:
001129: 11,2022           71331        INITVEL1           SSP      DLOAD                                 #  SET ITCTR TO -1,LOAD MPAC WITH E4(PL 2D)
001130: 11,2023           03505                                    ITCTR
001131: 11,2024           77776                                    0          -1
001132: 11,2025           70546                           COSINE   SR1                                   #  CALCULATE COSINE (E4) (+2)
001133: 11,2026           17630                           STODL    COZY4                                 #  SET COZY4 TO COSINE (E4)         (PL 0D)
001134: 11,2027           67154                           LXA,2    SXA,2
001135: 11,2030           00154                                    MPAC
001136: 11,2031           02703                                    VTARGTAG                              #  SET VTARGTAG TO 0D (SP)
001137: 11,2032           77775                           VLOAD
001138: 11,2033           03570                                    RINIT
001139: 11,2034           26657                           STOVL    R1VEC                                 #  R1VEC EQ RINIT
001140: 11,2035           03604                                    RTARG1
001141: 11,2036           16665                           STODL    R2VEC                                 #  R2VEC EQ RTARG
001142:                                                                                                  # # Page 491
001143: 11,2037           03423                                    DELLT4
001144: 11,2040           02673                           STORE    TDESIRED                              #  TDESIRED EQ DELLT4
001145: 11,2041           77201                           SETPD    VLOAD
001146: 11,2042           00001                                    0D                                    #  INITIALIZE PL TO 0D
001147: 11,2043           03570                                    RINIT                                 #  MPAC EQ RINIT (+29)
001148: 11,2044           41456                           UNIT     PUSH                                  #  UNIT(RI)  (+1)                   (PL 6D)
001149: 11,2045           53435                           VXV      UNIT
001150: 11,2046           03576                                    VINIT                                 #  MPAC EQ UNIT(RI) X VI   (+8)
001151: 11,2047           26676                           STOVL    UN
001152: 11,2050           03604                                    RTARG1
001153: 11,2051           50256                           UNIT     DOT                                   #  TEMP=URT.URI (+2)                (PL 0D)
001154: 11,2052           43015                           DAD      CLEAR
001155: 11,2053           03630                                    COZY4
001156: 11,2054           03665                                    NORMSW
001157: 11,2055           03630                           STORE    COZY4
001158: 11,2056           43044        INITVEL2           BPL      SET
001159: 11,2057           22101                                    INITVEL3                              #  UN CALCULATED IN LAMBERT
001160: 11,2060           03465                                    NORMSW
001161:
001162:                                                                                                  #  ROTATE RC INTO YC PLANE - SET UNIT NORMAL TO YC
001163:
001164: 11,2061           41575                           VLOAD    PUSH                                  #                                   (PL 6D)
001165: 11,2062           02665                                    R2VEC                                 #  RC TO 6D (+29)
001166: 11,2063           63246                           ABVAL    PDVL                                  #  RC TO MPAC, ABVAL(RC) (+29) TO OD(PL 2D)
001167: 11,2064           46206                           PUSH     VPROJ                                 #                                   (PL 8D)
001168: 11,2065           02676                                    UN
001169: 11,2066           51352                           VSL2     BVSU
001170: 11,2067           74256                           UNIT     VXSC                                  #                                   (PL 0D)
001171: 11,2070           77772                           VSL1
001172: 11,2071           02665                           STORE    R2VEC
001173: 11,2072           67351                           TLOAD    SLOAD
001174: 11,2073           11762                                    ZEROVEC
001175: 11,2074           03505                                    ITCTR
001176: 11,2075           77244                           BPL      VLOAD
001177: 11,2076           22101                                    INITVEL3
001178: 11,2077           02665                                    R2VEC
001179: 11,2100           03604                           STORE    RTARG1
001180: 11,2101           63345        INITVEL3           DLOAD    PDVL                                  #                                   (PL 2D)
001181: 11,2102           27740                                    MUEARTH                               #  POSITIVE VALUE
001182: 11,2103           02665                                    R2VEC
001183: 11,2104           63256                           UNIT     PDVL                                  #  2D = UNIT(R2VEC)                 (PL 8D)
001184: 11,2105           02657                                    R1VEC
001185: 11,2106           41456                           UNIT     PUSH                                  #  8D = UNIT(R1VEC)                 (PL14D)
001186: 11,2107           57435                           VXV      VCOMP                                 #  -N = UNIT(R2VEC) X UNIT(R1VEC)
001187: 11,2110           00003                                    2D
001188: 11,2111           77606                           PUSH                                           #                                   (PL20D)
001189: 11,2112           71350                           LXA,1    DLOAD
001190: 11,2113           03745                                    RTX1
001191: 11,2114           00023                                    18D
001192: 11,2115           62040                           BMN      INCR,1
001193: 11,2116           22120                                    +2
001194:                                                                                                  # # Page 492
001195: 11,2117           77767                           DEC      -8         B-14
001196: 11,2120           67310                           INCR,1   SLOAD
001197: 11,2121           00012                                    10D
001198: 11,2122           00047                                    X1
001199: 11,2123           77230                           BHIZ     VLOAD                                 #                                   (PL14D)
001200: 11,2124           22126                                    +2
001201: 11,2125           41476                           VCOMP    PUSH                                  #                                   (PL20D)
001202: 11,2126           77775                           VLOAD                                          #                                   (PL14D)
001203: 11,2127           50235                           VXV      DOT                                   #                                   (PL 2D)
001204: 11,2130           71244                           BPL      DLOAD                                 #                                   (PL 0D)
001205: 11,2131           22133                                    INITVEL4
001206: 11,2132           41476                           DCOMP    PUSH                                  #                                   (PL 2D)
001207: 11,2133           67154        INITVEL4           LXA,2    SXA,2
001208: 11,2134           00000                                    0D
001209: 11,2135           02674                                    GEOMSGN
001210:
001211:                                                                                                  #  SET INPUTS UP FOR LAMBERT
001212:
001213: 11,2136           45150                           LXA,1    CALL
001214: 11,2137           03745                                    RTX1
001215:
001216:                                                                                                  #   OPERATE THE LAMBERT CONIC ROUTINE (COASTFLT SUBROUTINE)
001217:
001218: 11,2140           25255                                    LAMBERT
001219:
001220: 11,2141           77214                           CLEAR    VLOAD
001221: 11,2142           00675                                    GUESSW
001222: 11,2143           02746                                    VVEC
001223:
001224:                                                                                                  #  STORE CALCULATED INITIAL VELOCITY REQUIRED IN VIPRIME
001225:
001226: 11,2144           17612                           STODL    VIPRIME                               #  INITIAL VELOCITY REQUIRED (+7)
001227:
001228:                                                                                                  #  IF NUMIT IS ZERO, CONTINUE AT INITVELB, OTHERWISE
001229:                                                                                                  #  SET UP INPUTS FOR ENCKE INTEGRATION (INTEGRVS).
001230:
001231: 11,2145           02704                                    VTARGTAG
001232: 11,2146           45030                           BHIZ     CALL
001233: 11,2147           34003                                    INITVEL7
001234: 11,2150           27516                                    INTSTALL
001235: 11,2151           43135                           SLOAD    CLEAR
001236: 11,2152           03747                                    RTX2
001237: 11,2153           00263                                    MOONFLAG
001238: 11,2154           43030                           BHIZ     SET
001239: 11,2155           22157                                    INITVEL5
001240: 11,2156           00063                                    MOONFLAG
001241: 11,2157           77775        INITVEL5           VLOAD
001242: 11,2160           03570                                    RINIT
001243: 11,2161           02657                           STORE    R1VEC
001244: 11,2162           25535                           STOVL    RCV
001245: 11,2163           03612                                    VIPRIME
001246: 11,2164           15543                           STODL    VCV
001247: 11,2165           03503                                    INTIME
001248:                                                                                                  # # Page 493
001249: 11,2166           01517                           STORE    TET
001250: 11,2167           43015                           DAD      CLEAR
001251: 11,2170           03423                                    DELLT4
001252: 11,2171           01673                                    INTYPFLG
001253: 11,2172           34041                           STCALL   TDEC1
001254: 11,2173           27211                                    INTEGRVS
001255: 11,2174           77775                           VLOAD
001256: 11,2175           00025                                    VATT1
001257: 11,2176           02705                           STORE    VTARGET
001258:
001259:                                                                                                  #  IF ITERATION COUNTER (ITCTR) EQ NO. ITERATIONS (NUMIT), CONTINUE AT
001260:                                                                                                  #  INITVELC, OTHERWISE REITERATE LAMBERT AND ENCKE
001261:
001262: 11,2177           63154                           LXA,2    INCR,2
001263: 11,2200           03504                                    ITCTR
001264: 11,2201           00001                                    1D                                    #  INCREMENT ITCTR
001265: 11,2202           55134                           SXA,2    XSU,2
001266: 11,2203           03504                                    ITCTR
001267: 11,2204           02703                                    VTARGTAG
001268: 11,2205           46135                           SLOAD    BHIZ                                  #  IF SP(MPAC) EQ 0, CONTINUE AT INITVELC
001269: 11,2206           00050                                    X2
001270: 11,2207           34000                                    INITVEL6
001271:
001272:                                                                                                  #  OFFSET CONIC TARGET VECTOR
001273:
001274: 11,2210           52375                           VLOAD    VSU
001275: 11,2211           03604                                    RTARG1
001276: 11,2212           00017                                    RATT1
001277: 11,2213           77655                           VAD
001278: 11,2214           02665                                    R2VEC
001279: 11,2215           16665                           STODL    R2VEC
001280: 11,2216           03630                                    COZY4
001281: 11,2217           77650                           GOTO
001282: 11,2220           22056                                    INITVEL2                              #  CONTINUE ITERATING AT INITVEL2
001283: 16,2000                                           SETLOC   INTVEL1
001284: 16,2000                                           BANK
001285:
001286: 16,2000                                           COUNT*   $$/INITV
001287:
001288:                                                                                                  #  COMPUTE THE DELTA VELOCITY
001289:
001290: 16,2000           77775        INITVEL6           VLOAD
001291: 16,2001           02665                                    R2VEC
001292: 16,2002           03604                           STORE    RTARG1
001293: 16,2003           52375        INITVEL7           VLOAD    VSU
001294: 16,2004           03612                                    VIPRIME
001295: 16,2005           03576                                    VINIT
001296: 16,2006           27646                           STOVL    DELVEET3                              #  DELVEET3 = VIPRIME-VINIT  (+7)
001297: 16,2007           02705                                    VTARGET
001298: 16,2010           37620                           STCALL   VTPRIME
001299: 16,2011           22221                                    INITVEL8
001300: 11,2000                                           SETLOC   INTVEL
001301:                                                                                                  # # Page 494
001302: 11,2000                                           BANK
001303:
001304: 11,2221                                           COUNT*   $$/INITV
001305: 11,2221           46135        INITVEL8           SLOAD    BHIZ
001306: 11,2222           03747                                    RTX2
001307: 11,2223           22240                                    INITVELX
001308: 11,2224           70575                           VLOAD    VSR2
001309: 11,2225           03620                                    VTPRIME
001310: 11,2226           27620                           STOVL    VTPRIME
001311: 11,2227           03612                                    VIPRIME
001312: 11,2230           77742                           VSR2
001313: 11,2231           27612                           STOVL    VIPRIME
001314: 11,2232           03604                                    RTARG1
001315: 11,2233           77742                           VSR2
001316: 11,2234           27604                           STOVL    RTARG1
001317: 11,2235           03646                                    DELVEET3
001318: 11,2236           77742                           VSR2
001319: 11,2237           03646                           STORE    DELVEET3
001320: 11,2240           77201        INITVELX           SETPD    VLOAD
001321: 11,2241           00001                                    0D
001322: 11,2242           03604                                    RTARG1
001323: 11,2243           03415                           STORE    RTARG
001324: 11,2244           77614                           CLRGO
001325: 11,2245           01227                                    XDELVFLG
001326: 11,2246           01023                                    NORMEX
001327:
001328:                                                                                                  #  ..... END OF INITVEL ROUTINE .....
001329:
001330:                                                                                                  # # Page 495
001331:
001332:                                                                                                  #  MIDDLE GIMBAL ANGLE COMPUTATION.
001333:
001334: 27,2000                                           SETLOC   MGIM
001335: 27,2000                                           BANK
001336:
001337: 27,2442                                           COUNT*   $$/MIDG
001338:
001339: 27,2442           20000 00000  HALFREV            2DEC     1          B-1
001340:
001341: 27,2444           53575        GET+MGA            VLOAD    UNIT                                  #  (PL 0D) V (+7) TO MPAC, UNITIZE  UV (+1)
001342: 27,2445           72441                           DOT      SL1                                   #  DOT UV WITH Y(STABLE MEMBER) AND RESCALE
001343: 27,2446           01742                                    REFSMMAT   +6                         #   FROM +2 TO +1 FOR ASIN ROUTINE
001344: 27,2447           51136                           ARCSIN   BPL
001345: 27,2450           56454                                    SETMGA
001346: 27,2451           43215                           DAD      DAD                                   #  CONVERT -MGA TO +MGA BY
001347: 27,2452           16443                                    HALFREV                               #  ADDING ONE REVOLUTION
001348: 27,2453           16443                                    HALFREV
001349: 27,2454           03626        SETMGA             STORE    +MGA
001350: 27,2455           77616                           RVQ
001351:
001352: 04,2000                                           SETLOC   MIDDGIM
001353: 04,2000                                           BANK
001354:
001355: 04,3200                                           COUNT*   $$/MIDG
001356:
001357:                                                                                                  #  TRANSFORM INPUT VECTOR INTO LOCAL VERTICAL COORDINATES.
001358:
001359: 04,3200           53575        GET.LVC            VLOAD    UNIT                                  #  (PL 6D)   R (+29) IN MPAC UNITZE  UR
001360: 04,3201           03570                                    RINIT
001361: 04,3202           77676                           VCOMP                                          #  U(-R)
001362: 04,3203           00023                           STORE    18D                                   #  U(-R) TO 18D
001363: 04,3204           53435                           VXV      UNIT                                  #  U(-R)*V EQ V*U(R), U(V*R)
001364: 04,3205           03576                                    VINIT
001365: 04,3206           00015                           STORE    12D                                   #  U(V*R) TO 12D
001366: 04,3207           53435                           VXV      UNIT                                  #  U(V*R)*U(-R), U((V*R)*(-R))
001367: 04,3210           00023                                    18D
001368: 04,3211           24007                           STOVL    6D                                    #  TRANSFORMATION MATRIX IS IN 6D (+1)
001369: 04,3212           00001                                    0D                                    #  DELTA V (+7) IN 0D
001370: 04,3213           76521                           MXV      VSL1                                  #  CONVERT FROM INER COOR TO LV COOR (+8)
001371: 04,3214           00007                                    6D                                    #   AND SCALE +7 IN MPAC
001372: 04,3215           03405                           STORE    DELVLVC                               #  STORE IN DELVLVC (+7)
001373: 04,3216           77616                           RVQ
001374:
001375:                                                                                                  # # Page 496
001376: 04,3217           77160        SELECTMU           AXC,1    AXT,2
001377: 04,3220           00002                                    2D
001378: 04,3221           00000                                    0D
001379: 04,3222           77614                           BOFF
001380: 04,3223           04343                                    CMOONFLG
001381: 04,3224           11230                                    SETMUER
001382: 04,3225           77160                           AXC,1    AXT,2
001383: 04,3226           00012                                    10D
001384: 04,3227           00002                                    2D
001385: 04,3230           66143        SETMUER            DLOAD*   SXA,1
001386: 04,3231           22305                                    MUTABLE    +4,1
001387: 04,3232           03745                                    RTX1
001388: 04,3233           23752                           STODL*   RTSR1/MU
001389: 04,3234           22277                                    MUTABLE    -2,1
001390: 04,3235           54214                           BOFF     SR
001391: 04,3236           04343                                    CMOONFLG
001392: 04,3237           11241                                    RTRNMU
001393: 04,3240           20607                                    6D
001394: 04,3241           03750        RTRNMU             STORE    RTMU
001395: 04,3242           43134                           SXA,2    CLEAR
001396: 04,3243           03746                                    RTX2
001397: 04,3244           01271                                    FINALFLG
001398: 04,3245           52014                           BON      GOTO
001399: 04,3246           05316                                    PCFLAG
001400: 04,3247           45343                                    P36A
001401: 04,3250           73027                                    VN1645
001402:
001403:                                                                                                  # # Page 497
001404:                                                                                                  #  ..... PERIAPO .....
001405:                                                                                                  #  MOD NO -1             LOG SECTION - P34-P35, P74-P75
001406:                                                                                                  #  MOD BY WHITE.P        DATE  18JAN68
001407:
001408:                                                                                                  #  FUNCTIONAL DESCRIPTION
001409:
001410:                                                                                                  #        THIS SUBROUTINE COMPUTES THE TWO BODY APOCENTER AND PERICENTER
001411:                                                                                                  #        ALTITUDES GIVEN THE POSITION AND VELOCITY VECTORS FOR A POINT ON
001412:                                                                                                  #        THE TRAJECTORY AND THE PRIMARY BODY.
001413:
001414:                                                                                                  #        SETRAD IS CALLED TO DETERMINE THE RADIUS OF THE PRIMARY BODY.
001415:
001416:                                                                                                  #        APSIDES IS CALLED TO SOVE FOR THE TWO BODY RADII OF APOCENTER AND
001417:                                                                                                  #        PERICENTER AND THE ECCENTRICITY OF THE TRAJECTORY.
001418:
001419:                                                                                                  #  CALLING SEQUENCE
001420:
001421:                                                                                                  #        L       CALL
001422:                                                                                                  #        L+1             PERIAPO
001423:                                                                                                  #        L+2     (RETURN - ALWAYS)
001424:
001425:                                                                                                  #  INPUT
001426:
001427:                                                                                                  #        (1) RVEC        POSITION VECTOR IN METERS
001428:                                                                                                  #                        SCALE FACTOR - EARTH +29, MOON +27
001429:                                                                                                  #        (2) VVEC        VELOCITY VECTOR IN METERS/CENTISECOND
001430:                                                                                                  #                        SCALE FACTOR - EARTH +7, MOON +5
001431:                                                                                                  #        (3) X1          PRIMARY BODY INDICATOR
001432:                                                                                                  #                        EARTH -2, MOON -10
001433:
001434:                                                                                                  #  OUTPUT
001435:
001436:                                                                                                  #        (1) 2D          APOCENTER RADIUS IN METERS
001437:                                                                                                  #                        SCALE FACTOR - EARTH +29, MOON +27
001438:                                                                                                  #        (2) 4D          APOCENTER ALTITUDE IN METERS
001439:                                                                                                  #                        SCALE FACTOR - EARTH +29, MOON P27
001440:                                                                                                  #        (3) 6D          PERICENTER RADIUS IN METERS
001441:                                                                                                  #                        SCALE FACTOR - EARTH +29, MOON +27
001442:                                                                                                  #        (4) 8D          PERICENTER ALTITUDE IN METERS
001443:                                                                                                  #                        SCALE FACTOR - EARTH +29, MOON +27
001444:                                                                                                  #        (5) ECC         ECCENTRICITY OF CONIC TRAJECTORY
001445:                                                                                                  #                        SCALE FACTOR - +3
001446:                                                                                                  #        (6) XXXALT      RADIUS OF THE PRIMARY BODY IN METERS
001447:                                                                                                  #                        SCALE FACTOR - EARTH +29, MOON +27
001448:                                                                                                  #        (7) PUSHLOC     EQUALS 10D
001449:
001450:                                                                                                  #  SUBROUTINES USED
001451:
001452:                                                                                                  #        SETRAD
001453:                                                                                                  # # Page 498
001454:                                                                                                  #        APSIDES
001455:
001456: 22,2000                                           SETLOC   APOPERI
001457: 22,2000                                           BANK
001458:
001459: 22,3172                                           COUNT*   $$/PERAP
001460:
001461: 22,3172           00302 17755  RPAD               2DEC     6373338    B-29                       #  STANDARD RADIUS  OF PAD 37-B.
001462:                                                                                                  #  = 20 909 901.57 FT
001463:
001464: 22,3174           53754        PERIAPO1           LXA,2    VSR*
001465: 22,3175           03746                                    RTX2
001466: 22,3176           57176                                    0,2
001467: 22,3177           26746                           STOVL    VVEC
001468: 22,3200           53750                           LXA,1    VSR*
001469: 22,3201           03745                                    RTX1
001470: 22,3202           57176                                    0,2
001471: 22,3203           02657                           STORE    RVEC
001472: 22,3204           45020        PERIAPO            STQ      CALL
001473: 22,3205           01023                                    NORMEX
001474: 22,3206           45222                                    SETRAD
001475: 22,3207           37456                           STCALL   XXXALT
001476: 22,3210           25717                                    APSIDES
001477: 22,3211           41401                           SETPD    PUSH                                  #  2D = APOCENTER RADIUS         B29 OR B27
001478: 22,3212           00003                                    2D
001479: 22,3213           65225                           DSU      PDDL                                  #  4D = APOGEE ALTITUDE          B29 OR B27
001480: 22,3214           03456                                    XXXALT
001481: 22,3215           00001                                    0D
001482: 22,3216           45206                           PUSH     DSU                                   #  6D = PERICENTER RADIUS        B29 OR B27
001483: 22,3217           03456                                    XXXALT
001484: 22,3220           52006                           PUSH     GOTO                                  #  8D = PERIGEE ALTITUDE         B29 OR B27
001485: 22,3221           01023                                    NORMEX
001486:                                                                                                  # # Page 499
001487:                                                                                                  #  SETRAD
001488: 22,3222           41545        SETRAD             DLOAD    PUSH
001489: 22,3223           05173                                    RPAD
001490: 22,3224           63130                           SXA,1    INCR,2
001491: 22,3225           00047                                    X2
001492: 22,3226           00002                                    2D
001493: 22,3227           46135                           SLOAD    BHIZ
001494: 22,3230           00050                                    X2
001495: 22,3231           45235                                    SETRADX
001496: 22,3232           51575                           VLOAD    ABVAL
001497: 22,3233           02026                                    RLS
001498: 22,3234           77725                           PDDL
001499: 22,3235           43545        SETRADX            DLOAD    RVQ
001500:
001501:                                                                                                  # # Page 500
001502:                                                                                                  #  PRECSET
001503: 22,3236           77620        PRECSET            STQ
001504: 22,3237           01023                                    NORMEX
001505: 22,3240           36635                           STCALL   TDEC2
001506: 22,3241           27202                                    LEMCONIC                              #  CONIC INTEG
001507: 22,3242           77624                           CALL
001508: 22,3243           45300                                    LEMSTORE
001509: 22,3244           77745                           DLOAD
001510: 22,3245           02635                                    TDEC2
001511: 22,3246           34041                           STCALL   TDEC1
001512: 22,3247           27170                                    CSMCONIC                              #  CONIC INTEG
001513: 22,3250           77624                           CALL
001514: 22,3251           45310                                    CSMSTORE
001515: 22,3252           53575                           VLOAD    UNIT
001516: 22,3253           03554                                    RPASS3
001517: 22,3254           53435                           VXV      UNIT
001518: 22,3255           03562                                    VPASS3
001519: 22,3256           26611                           STOVL    UP1                                   #  UNIT(RPASS3) X VPASS3
001520: 22,3257           03546                                    VACT3
001521: 22,3260           72441                           DOT      SL1
001522: 22,3261           02611                                    UP1
001523: 22,3262           26603                           STOVL    CMYDOT                                #  -YDOT (CSM)
001524: 22,3263           03540                                    RACT3
001525: 22,3264           72441                           DOT      SL1
001526: 22,3265           02611                                    UP1
001527: 22,3266           26601                           STOVL    AUTOY                                 #  -Y(CSM)
001528: 22,3267           03540                                    RACT3
001529: 22,3270           53435                           VXV      UNIT
001530: 22,3271           03546                                    VACT3
001531: 22,3272           26617                           STOVL    UNRM
001532: 22,3273           03562                                    VPASS3
001533: 22,3274           72441                           DOT      SL1
001534: 22,3275           02617                                    UNRM                                  #  RACT3 X VACT3
001535: 22,3276           36605                           STCALL   LMYDOT                                #  -YDOT(LM)
001536: 22,3277           01023                                    NORMEX
001537: 22,3300           43175        LEMSTORE           VLOAD    BOFF
001538: 22,3301           00001                                    RATT
001539: 22,3302           01352                                    AVFLAG
001540: 22,3303           45314                                    PASSIVE
001541: 22,3304           27540        ACTIVE             STOVL    RACT3
001542: 22,3305           00007                                    VATT
001543: 22,3306           03546                           STORE    VACT3
001544: 22,3307           77616                           RVQ
001545: 22,3310           43175        CSMSTORE           VLOAD    BOFF
001546: 22,3311           00001                                    RATT
001547: 22,3312           01352                                    AVFLAG
001548: 22,3313           45304                                    ACTIVE
001549: 22,3314           27554        PASSIVE            STOVL    RPASS3
001550: 22,3315           00007                                    VATT
001551: 22,3316           03562                           STORE    VPASS3
001552:                                                                                                  # # Page 501
001553: 22,3317           77616                           RVQ
001554:
001555:                                                                                                  # # Page 502
001556:
001557:                                                                                                  #  VECSHIFT
001558: 22,3320           53754        VECSHIFT           LXA,2    VSR*
001559: 22,3321           03746                                    RTX2
001560: 22,3322           57176                                    0,2
001561: 22,3323           63350                           LXA,1    PDVL
001562: 22,3324           03745                                    RTX1
001563: 22,3325           63257                           VSR*     PDVL
001564: 22,3326           57176                                    0,2
001565: 22,3327           77616                           RVQ
001566:
001567:                                                                                                  # # Page 503
001568:                                                                                                  #  SHIFTR1
001569: 22,3330           53754        SHIFTR1            LXA,2    SL*
001570: 22,3331           03746                                    RTX2
001571: 22,3332           57576                                    0,2
001572: 22,3333           77616                           RVQ
001573:
001574:                                                                                                  # # Page 504
001575:                                                                                                  #  PROGRAM DESCRIPTION
001576:                                                                                                  #  SUBROUTINE NAME       R36  OUT-OF-PLANE RENDEZVOUS ROUTINE
001577:                                                                                                  #  MOD NO.  3      DATE    18 NOVEMBER 1969
001578:                                                                                                  #  MOD BY   T.E.CROCKER
001579:
001580:                                                                                                  #  FUNCTIONAL DESCRIPTION
001581:
001582:                                                                                                  #  TO DISPLAY AT ASTRONAUT REQUEST LGC CALCULATED RENDEZVOUS
001583:                                                                                                  #        OUT-OF-PLANE PARAMETERS (YDOT CSM,YDOT LEM,Y).
001584:
001585:                                                                                                  #  CALLING SEQUENCE
001586:
001587:                                                                                                  #  ASTRONAUT REQUEST THROUGH DSKY  V 90 E
001588:
001589:                                                                                                  #  SUBROUTINES CALLED
001590:
001591:                                                                                                  #  EXDSPRET  TIMEOPT
001592:                                                                                                  #  GOMARKF   VEHOPT
001593:                                                                                                  #  CSMCONIC
001594:                                                                                                  #  LEMCONIC
001595:                                                                                                  #  LOADTIME
001596:
001597:                                                                                                  #  NORMAL EXIT MODES
001598:
001599:                                                                                                  #  ASTRONAUT REQUEST THROUGH DSKY TO TERMINATE PROGRAM V 34 E
001600:
001601:                                                                                                  #  ALARM OR ABORT EXIT MODES
001602:
001603:                                                                                                  #  NONE
001604:
001605:                                                                                                  #  OUTPUT
001606:                                                                                                  #
001607:                                                                                                  #  DECIMAL DISPLAY OF YDOT CSM, YDOT LEM, Y, TIME.
001608:                                                                                                  #  DISPLAYED VALUES YDOT, YDOT, Y ARE STORED IN ERASABLE
001609:                                                                                                  #  REGISTERS RRATE, RRATE2, RANGE RESPECTIVELY.
001610:
001611:                                                                                                  #  ERASABLE INITIALIZATION REQUIRED
001612:
001613:                                                                                                  #  CSM AND LEM STATE VECTORS
001614:
001615:                                                                                                  #  DEBRIS
001616:
001617:                                                                                                  #  CENTRALS A,Q,L
001618:
001619:                                                                                                  #  OTHER:  THOSE USED BY THE ABOVE LISTED SUBROUTINES
001620:
001621: 24,2000                                           SETLOC   R36CM
001622: 24,2000                                           BANK
001623:
001624: 24,2000  E7,1412                                  EBANK=   TIG
001625: 24,2000                                           COUNT*   $$/R36
001626:
001627: 24,2000           06006        R36                TC       INTPRET
001628:                                                                                                  # # Page 505
001629:
001630: 24,2001           45145                           DLOAD    CALL
001631: 24,2002           03413                                    TIG
001632: 24,2003           46424                                    TIMEOPT
001633: 24,2004           77624        R36A               CALL
001634: 24,2005           27202                                    LEMCONIC
001635: 24,2006           63375                           VLOAD    PDVL                                  #  VL TO PDLO
001636: 24,2007           00007                                    VATT
001637: 24,2010           00001                                    RATT
001638: 24,2011           63256                           UNIT     PDVL                                  #  UNIT RL TO PDL0, VL TO MPAC
001639: 24,2012           77626                           STADR
001640: 24,2013           75457                           STORE    VPASS36                               #  VL TO VPASS36
001641: 24,2014           53435                           VXV      UNIT                                  #  VL(MPAC) X RL(PDL0)
001642: 24,2015           77626                           STADR
001643: 24,2016           61451                           STODL    UNP36                                 #  UNIT(VL X RL) TO UNP36
001644: 24,2017           00015                                    TAT
001645: 24,2020           34041                           STCALL   TDEC1
001646: 24,2021           27170                                    CSMCONIC
001647: 24,2022           63375                           VLOAD    PDVL                                  #  VC TO PDL0
001648: 24,2023           00007                                    VATT
001649: 24,2024           00001                                    RATT
001650: 24,2025           00007                           STORE    6D                                    #  RC TO PDL6
001651: 24,2026           63256                           UNIT     PDVL                                  #  UNIT(RC) TO PDL0, VC TO MPAC
001652: 24,2027           77626                           STADR
001653: 24,2030           77762                           STORE    12D                                   #  VC TO PDL12
001654: 24,2031           53435                           VXV      UNIT                                  #  VC(MPAC) X RC(PDL0)
001655: 24,2032           77626                           STADR
001656: 24,2033           51443                           STOVL    UNA36                                 #  UNIT(VC X RC) TO UNA36
001657: 24,2034           00007                                    6D                                    #  RC TO MPAC
001658: 24,2035           72441                           DOT      SL1
001659: 24,2036           02326                                    UNP36                                 #  RC . UNIT(VL X RL)
001660: 24,2037           26312                           STOVL    RANGE                                 #   EQUALS RANGE
001661: 24,2040           00015                                    12D                                   #  VC TO MPAC
001662: 24,2041           72441                           DOT      SL1
001663: 24,2042           02326                                    UNP36                                 #  VC . UNIT(VL X RL)
001664: 24,2043           26314                           STOVL    RRATE                                 #   EQUALS R. RATE OF CSM
001665: 24,2044           02320                                    VPASS36                               #  VL TO MPAC
001666: 24,2045           72441                           DOT      SL1
001667: 24,2046           02334                                    UNA36
001668: 24,2047           02316                           STORE    RRATE2                                #  VL . UNIT(VC X RC)
001669: 24,2050           77776                           EXIT                                           #   EQUALS R. RATE OF LEM
001670: 24,2051           32103                           CAF      V06N96                                #  DISPLAY Y, YDOTCM,YDOTLM
001671: 24,2052           04636                           TC       BANKCALL
001672: 24,2053           20576                           CADR     GOMARKF
001673: 24,2054           15524                           TCF      ENDEXT                                #  T OR
001674: 24,2055           15524                           TCF      ENDEXT                                #   P....EXIT R36
001675:                                                                                                  #    R...DISPLAY TIME
001676: 24,2056           06006                           TC       INTPRET
001677: 24,2057           77624                           CALL
001678: 24,2060           46425                                    TIMEOPT    +1
001679: 24,2061           77650                           GOTO
001680:                                                                                                  # # Page 506
001681: 24,2062           50004                                    R36A
001682: 24,2063           01420        V06N16N            VN       0616
001683: 24,2064           77420        VEHOPT             STQ      EXIT                                  #  ALLOW VEHICLE OPTION
001684: 24,2065           00734                                    VEHRET
001685: 24,2066           00006                           EXTEND
001686: 24,2067           34770                           DCA      TWO
001687: 24,2070           53256                           DXCH     OPTIONX
001688: 24,2071           32102                           CAF      OPTIONVN
001689: 24,2072           04636                           TC       BANKCALL
001690: 24,2073           20576                           CADR     GOXDSPF
001691: 24,2074           05524                           TC       ENDEXT
001692: 24,2075           02077                           TC       +2
001693: 24,2076           02071                           TC       -5
001694:
001695: 24,2077           06006                           TC       INTPRET
001696: 24,2100           77650                           GOTO
001697: 24,2101           00734                                    VEHRET
001698: 24,2102           01014        OPTIONVN           VN       0412
001699: 24,2103           01540        V06N96             VN       0696
001700:
001701: 24,2104  30,2000                                  SBANK=   LOWSUPER

End of include-file P34-P35_P74-P75.agc.  Parent file is MAIN.agc


