
Source Code


000002:                                                                                                  ## Copyright:   Public domain.
000003:                                                                                                  ## Filename:    P37_P70.agc
000004:                                                                                                  ## Purpose:     Part of the source code for Artemis (i.e., Colossus 3),
000005:                                                                                                  ##              build 072.  This is for the Command Module's (CM)
000006:                                                                                                  ##              Apollo Guidance Computer (AGC), for
000007:                                                                                                  ##              Apollo 15-17.
000008:                                                                                                  ## Assembler:   yaYUL
000009:                                                                                                  ## Contact:     Steve Case <case1780@adelphia.net>
000010:                                                                                                  ## Website:     www.ibiblio.org/apollo/index.html
000011:                                                                                                  ## Page Scans:  www.ibiblio.org/apollo/ScansForConversion/Artemis072/
000012:                                                                                                  ## Mod history: 2009-09-01 SMC  Adapted from Comanche055 files.
000013:                                                                                                  ##              2009-09-03 JL   Fixed symbol names, page metadata.
000014:                                                                                                  ##              2009-09-04 JL   Fixed typo.
000015:                                                                                                  ##              2009-09-08 JL   Fixed typos.
000016:                                                                                                  ##              2010-02-01 JL   Fixed build errors.
000017:                                                                                                  ##              2010-02-13 JL   Fixed error on p905.
000018:                                                                                                  ##              2010-02-20 RSB  Un-##'d this header.
000019:                                                                                                  ##              2010-04-11 JL   Add missing comment characters.
000020:                                                                                                  ##              2017-01-28 RSB  WTIH -> WITH.
000021:                                                                                                  ##              2017-02-08 RSB  Proofed comment text by diff'ing vs Comanche 55
000022:                                                                                                  ##                              and corrected errors found.
000023:


000025: 36,2000                                           SETLOC   RTE1
000026: 36,2000                                           BANK
000027:
000028: 36,2476  E7,1631                                  EBANK=   RTEDVD
000029: 36,2476                                           COUNT*   $$/P37
000030:
000031:                                                                                                  #  PROGRAM DESCRIPTION - P37, RETURN TO EARTH
000032:
000033:                                                                                                  #  DESCRIPTION
000034:                                                                                                  #    A RETURN TO EARTH TRAJECTORY IS COMPUTED PROVIDED THE CSM IS OUTSIDE THE LUNAR SPHERE OF INFLUENCE AT THE
000035:                                                                                                  #  TIME OF IGNITION. INITIALLY A CONIC TRAJECTORY IS DETERMINED AND RESULTING IGNITION AND REENTRY PARAMETERS ARE
000036:                                                                                                  #  DISPLAYED TO THE ASTRONAUT. THEN IF THE ASTRONAUT SO DESIRES, A PRECISION TRAJECTORY IS DETERMINED WITH THE
000037:                                                                                                  #  RESULTING IGNITION AND REENTRY PARAMETERS DISPLAYED. UPON FINAL ACCEPTANCE BY THE ASTRONAUT, THE PROGRAM
000038:                                                                                                  #  COMPUTES AND STORES THE TARGET PARAMETERS FOR RETURN TO EARTH FOR USE BY SPS PROGRAM (P40) OR RCS PROGRAM (P41).
000039:
000040:                                                                                                  #  CALLING SEQUENCE
000041:                                                                                                  #    L   TC      P37
000042:
000043:                                                                                                  #  SUBROUTINES CALLED
000044:                                                                                                  #    PREC100
000045:                                                                                                  #      V2T100
000046:                                                                                                  #      RTENCK2
000047:                                                                                                  #      RTENCK3
000048:                                                                                                  #      TIMERAD
000049:                                                                                                  #      PARAM
000050:                                                                                                  #    V2T100
000051:                                                                                                  #      GAMDV10
000052:                                                                                                  #      XT1LIM
000053:                                                                                                  #      DVCALC
000054:                                                                                                  #    RTENCK1
000055:                                                                                                  #      INTSTALL
000056:                                                                                                  #      INTEGRVS
000057:                                                                                                  #    RTEVN
000058:                                                                                                  #      RTEDISP
000059:                                                                                                  #      TMRAD100
000060:                                                                                                  #      AUGEKUGL
000061:                                                                                                  #      LAT-LONG
000062:                                                                                                  #    TMRAD100
000063:                                                                                                  #      TIMERAD
000064:                                                                                                  #    INVC100
000065:                                                                                                  #      CSMPREC
000066:                                                                                                  #    GETERAD
000067:                                                                                                  #    TIMETHET
000068:                                                                                                  #    P370ALRM
000069:                                                                                                  #    VN1645
000070:                                                                                                  #    POLY
000071:
000072:                                                                                                  #  ERASABLE INITIALIZATION REQUIRED
000073:                                                                                                  #    CSM STATE VECTOR
000074:                                                                                                  #    NJETSFLG    NUMBER OF JETS IF THE RCS PROPULSION SYSTEM SELECTED    STATE FLAG      0=4 JETS  1=2 JETS
000075:


000077:                                                                                                  #  ASTRONAUT INPUT
000078:                                                                                                  #    SPRTETIG    TIME OF IGNITION (OVERLAYS TIG)                         DP      B28     CS
000079:                                                                                                  #    VPRED       DESIRED CHANGE IN VELOCITY AT TIG(PROGRM COMPUTED IF 0) DP      B7      METERS/CS
000080:                                                                                                  #    GAMMAEI     DESIRED FLIGHT PATH ANGLE AT REENTRY (COMPUTED IF 0)    DP      B0      REVS  + ABOVE HORIZ.
000081:                                                                                                  #    OPTION2     PROPULSION SYSTEM OPTION                                SP      B14     1=SPS, 2=RCS
000082:
000083:                                                                                                  #  OUTPUT
000084:                                                                                                  #    CONIC OR PRECISION TRAJECTORY DISPLAY
000085:                                                                                                  #      VPRED     VELOCITY MAGNITUDE AT 400,000 FT. ENTRY ALTITUDE        DP      B7      METERS/CS
000086:                                                                                                  #      T3TOT4    TRANSIT TIME TO 400,000 FT. ENTRY ALTITUDE              DP      B28     CS
000087:                                                                                                  #      GAMMAEI   FLIGHT PATH ANGLE AT 400,000 FT. ENTRY ALTITUDE         DP      B0      REVS  + ABOVE HORIZON
000088:                                                                                                  #      DELVLVC   INITIAL VELOCITY CHANGE VECTOR IN LOCAL VERTICAL COORD. VECTOR  B7      METERS/CS
000089:                                                                                                  #      LAT(SPL)  LATITUDE OF THE LANDING SITE                            DP      B0      REVS
000090:                                                                                                  #      LNG(SPL)  LONGITUDE OF THE LANDING SITE                           DP      B0      REVS
000091:                                                                                                  #    TARGETING COMPUTATION DISPLAY
000092:                                                                                                  #      TIG       RECOMPUTED TIG BASED ON THRUST OPTION                   DP      B28     CS
000093:                                                                                                  #      TTOGO     TIME FROM TIG                                           DP      B28     CS
000094:                                                                                                  #      +MGA      POSITIVE MIDDLE GIMBAL ANGLE                            DP      B0      REVS  -.02 IF REFSMFLG=0
000095:                                                                                                  #    THRUST PROGRAM COMMUNICATION
000096:                                                                                                  #      XDELVFLG  EXTERNAL DELTA V FLAG                                   STATE FLAG      SET 0 FOR LAMBERT AIMPT
000097:                                                                                                  #      NORMSW    LAMBERT AIMPT ROTATION SWITCH                           STATE FLAG      SET 0 FOR NO ROTATION
000098:                                                                                                  #      ECSTEER   CROSS PRODUCT STEERING CONSTANT                         SP      B2      SET 1
000099:                                                                                                  #      RTARG     CONICALLY INTEGRATED REENTRY POSITION VECTOR            VECTOR  B29     METERS
000100:                                                                                                  #      TPASS4    REENTRY TIME                                            DP      B28     CS
000101:
000102: 36,2476           05402        P37                TC       PHASCHNG                              #  P37 IS NOT RESTARTABLE.
000103: 36,2477           00004                           OCT      4
000104:
000105: 36,2500           06006                           TC       INTPRET
000106: 36,2501           66170                           AXT,1    SXA,1
000107: 36,2502           04000                           OCT      04000
000108: 36,2503           03424                                    ECSTEER
000109: 36,2504           77745                           DLOAD
000110: 36,2505           15336                                    ZEROVECS
000111: 36,2506           03757                           STORE    VPRED
000112: 36,2507           03761                           STORE    GAMMAEI
000113: 36,2510           77776                           EXIT
000114: 36,2511           35026                           CAF      V6N33RTE                              #  INPUT TIG     STORED IN SPRTETIG
000115: 36,2512           03246                           TCR      P370GOF                               #                   OVERLAYED WITH TIG
000116: 36,2513           12511                           TCF      -2                                    #  DESPLAY NEW DATA
000117: 36,2514           35033                           CAF      V6N60RTE                              #  INPUT REENTRY ANGLE IN GAMMAEI
000118: 36,2515           03222                           TCR      P37GFRB1                              #    AND DESIRED DELTA V IN RTEDVD
000119: 36,2516           12514                           TCF      -2                                    #  DISPLAY NEW DATA
000120: 36,2517           06006        RTE299             TC       INTPRET
000121: 36,2520           71331                           SSP      DLOAD
000122: 36,2521           00122                                    OVFIND
000123: 36,2522           00000                                    0
000124: 36,2523           03757                                    VPRED
000125: 36,2524           17632                           STODL    RTEDVD
000126: 36,2525           03761                                    GAMMAEI


000128: 36,2526           17634                           STODL    RTEGAM2D
000129: 36,2527           33572                                    1RTEB13
000130: 36,2530           17551                           STODL    CONICX1
000131: 36,2531           33662                                    C4RTE
000132: 36,2532           37652                           STCALL   MAMAX1
000133: 36,2533           64455                                    INVC100                               #  GET R(T1)/,V(T1)/,UR1/,UH/
000134: 36,2534           71214                           CLEAR    DLOAD
000135: 36,2535           02662                                    SLOWFLG
000136: 36,2536           03632                                    RTEDVD
000137: 36,2537           51444                           BPL      ABS
000138: 36,2540           74550                                    RTE317
000139: 36,2541           03632                           STORE    RTEDVD
000140: 36,2542           45345                           DLOAD    DSU
000141: 36,2543           03646                                    R(T1)
000142: 36,2544           33664                                    K1RTE
000143: 36,2545           43040                           BMN      SET
000144: 36,2546           74550                                    RTE317
000145: 36,2547           02462                                    SLOWFLG
000146: 36,2550           77545        RTE317             DLOAD    EXIT
000147: 36,2551           03646                                    R(T1)
000148: 36,2552           07171                           TC       POLY
000149: 36,2553           00002                           DEC      2          B-14
000150: 36,2554           02544 35436                     2DEC     181000434. B-31
000151: 36,2556           14040 05066                     2DEC     1.50785145 B-2
000152: 36,2560           44052 60030                     2DEC*    -6.49993057 E-9        B27*
000153: 36,2562           26415 25057                     2DEC*    9.76938926 E-18       B56*
000154: 36,2564           06006                           TC       INTPRET
000155: 36,2565           77752                           SL1
000156: 36,2566           17654                           STODL    MAMAX2                                #  C0+C1*R+C2*R**2+C3*R**3=MAMAX2 B30
000157: 36,2567           33614                                    M9RTEB28
000158: 36,2570           17730                           STODL    NN1A
000159: 36,2571           33666                                    K2RTE
000160: 36,2572           17636        RTE320             STODL    RCON                                  #  RCON=K2
000161: 36,2573           03634                                    RTEGAM2D
000162: 36,2574           44254                           BZE      BDSU
000163: 36,2575           74604                                    RTE340                                #  GOTORTE340 IF REENTRY ANGLE NOT INPUT
000164: 36,2576           15326                                    1RTEB2
000165: 36,2577           71406                           PUSH     COS                                   #                                    PL02D
000166: 36,2600           73525                           PDDL     SIN
000167: 36,2601           45465                           BDDV     STADR                                 #                                    PL00D
000168: 36,2602           40051                           STCALL   X(T2)                                 #  X(T2)=COT(GAM2D)               B0
000169: 36,2603           74617                                    RTE360
000170: 36,2604           45345        RTE340             DLOAD    DSU
000171: 36,2605           03646                                    R(T1)
000172: 36,2606           33664                                    K1RTE
000173: 36,2607           71240                           BMN      DLOAD


000175: 36,2610           74614                                    RTE350
000176: 36,2611           33672                                    K4RTE
000177: 36,2612           37726                           STCALL   X(T2)                                 #  X(T2)=K4
000178: 36,2613           74617                                    RTE360
000179: 36,2614           77745        RTE350             DLOAD
000180: 36,2615           33670                                    K3RTE
000181: 36,2616           03726                           STORE    X(T2)                                 #  X(T2)=K3
000182: 36,2617           77624        RTE360             CALL
000183: 36,2620           65102                                    V2T100
000184: 36,2621           52054                           BZE      GOTO
000185: 36,2622           74624                                    RTE367
000186: 36,2623           64272                                    RTEALRM
000187: 36,2624           77775        RTE367             VLOAD
000188: 36,2625           03640                                    R(T1)/
000189: 36,2626           16657                           STODL    RVEC
000190: 36,2627           03636                                    RCON
000191: 36,2630           26760                           STOVL    RDESIRED
000192: 36,2631           03700                                    V2(T1)/
000193: 36,2632           36746                           STCALL   VVEC
000194: 36,2633           64304                                    TMRAD100
000195: 36,2634           77615                           DAD
000196: 36,2635           03716                                    T1
000197: 36,2636           17552                           STODL    T2
000198: 36,2637           03634                                    RTEGAM2D
000199: 36,2640           52054                           BZE      GOTO
000200: 36,2641           74643                                    RTE369
000201: 36,2642           74665                                    RTE372
000202: 36,2643           51575        RTE369             VLOAD    ABVAL
000203: 36,2644           03710                                    V(T2)/
000204: 36,2645           77776                           EXIT
000205: 36,2646           07171                           TC       POLY
000206: 36,2647           00002                           DEC      2          B-14
000207: 36,2650           00000 00000                     2DEC     0          B-28
000208: 36,2652           47021 65002                     2DEC     -4.8760771 E-2        B4
000209: 36,2654           35610 07722                     2DEC     4.5419476  E-4        B11
000210: 36,2656           63772 63276                     2DEC     -1.4317675 E-6        B18
000211: 36,2660           06006                           TC       INTPRET
000212: 36,2661           77615                           DAD
000213: 36,2662           01343                                    RTED1
000214: 36,2663           52052                           SL3      GOTO                                  #  X(T2),=D1+D2V2+D3V2**2+D4V2**3
000215: 36,2664           74667                                    RTE373
000216: 36,2665           77745        RTE372             DLOAD                                          #  X(T2),=X(T2)
000217: 36,2666           03726                                    X(T2)
000218: 36,2667           41425        RTE373             DSU      PUSH                                  #  X(T2)ERR                       B0 PL02D
000219: 36,2670           03726                                    X(T2)
000220: 36,2671           53575                           VLOAD    UNIT


000222: 36,2672           03656                                    R(T2)/                                #                                B58
000223: 36,2673           36152                           STCALL   ALPHAV
000224: 36,2674           26570                                    GETERAD
000225: 36,2675           77615                           DAD
000226: 36,2676           33676                                    E3RTE
000227: 36,2677           45206                           PUSH     DSU                                   #  RCON,=(E1/(1+E2BETA11)**.5)+E3 B29 PL04D
000228: 36,2700           03636                                    RCON
000229: 36,2701           45246                           ABS      DSU
000230: 36,2702           33646                                    EPC2RTE
000231: 36,2703           52040                           BMN      GOTO
000232: 36,2704           74706                                    RTE374
000233: 36,2705           74713                                    RTE375
000234: 36,2706           51545        RTE374             DLOAD    ABS
000235: 36,2707           00001                                    00D
000236: 36,2710           50025                           DSU      BMN
000237: 36,2711           33650                                    EPC3RTE
000238: 36,2712           74763                                    P37E
000239: 36,2713           43345        RTE375             DLOAD    DAD
000240: 36,2714           03730                                    NN1A
000241: 36,2715           33600                                    1RTEB28
000242: 36,2716           67240                           BMN      SLOAD
000243: 36,2717           74723                                    RTE380
000244: 36,2720           33630                                    OCT605
000245: 36,2721           77650                           GOTO
000246: 36,2722           64272                                    RTEALRM                               #  TOO MANY ITERATIONS
000247: 36,2723           03730        RTE380             STORE    NN1A
000248: 36,2724           53025                           DSU      BZE
000249: 36,2725           33616                                    M8RTEB28
000250: 36,2726           74744                                    RTE385
000251: 36,2727           45345                           DLOAD    DSU
000252: 36,2730           00001                                    00D
000253: 36,2731           03666                                    DRCON
000254: 36,2732           65301                           NORM     PDDL                                  #  X(T2)ERR-X(T2)ERR,=Z1             PL06D
000255: 36,2733           00047                                    X1
000256: 36,2734           03670                                    RPRE,
000257: 36,2735           56225                           DSU      DDV                                   #  X(T2)PRI-X(T2)=Z2                 PL04D
000258: 36,2736           03726                                    X(T2)
000259: 36,2737           53605                           DMP      SL*                                   #  DX(T2)=X(T2)ERR(Z2/Z1)
000260: 36,2740           00001                                    00D
000261: 36,2741           20201                                    0,1
000262: 36,2742           77650                           GOTO
000263: 36,2743           74746                                    RTE390
000264: 36,2744           77745        RTE385             DLOAD                                          #  DX(T2)=X(T2)ERR
000265: 36,2745           00001                                    00D
000266: 36,2746           14021        RTE390             STODL    16D                                   #  DX(T2)                            PL02D
000267: 36,2747           77626                           STADR
000268: 36,2750           60141                           STODL    RCON                                  #  RCON=RCON,
000269: 36,2751           77600                           BOV
000270: 36,2752           74617                                    RTE360
000271: 36,2753           17666                           STODL    DRCON                                 #  X(T2)ERR,=X(T2)ERR


000273: 36,2754           03726                                    X(T2)
000274: 36,2755           17670                           STODL    RPRE,                                 #  X(T2)PRI=X(T2)
000275: 36,2756           00021                                    16D
000276: 36,2757           77615                           DAD
000277: 36,2760           03726                                    X(T2)
000278: 36,2761           37726                           STCALL   X(T2)                                 #  X(T2)=X(T2)+DX(T2)
000279: 36,2762           74617                                    RTE360                                #  REITERATE
000280: 36,2763           77624        P37E               CALL                                           #  DISPLAY CONIC SOLUTION
000281: 36,2764           75007                                    RTEVN
000282: 36,2765           41345        RTE505             DLOAD    DMP
000283: 36,2766           03720                                    PCON
000284: 36,2767           03744                                    BETA1
000285: 36,2770           53021                           BDSU     BZE
000286: 36,2771           03636                                    RCON
000287: 36,2772           75000                                    RTE510
000288: 36,2773           71240                           BMN      DLOAD
000289: 36,2774           75000                                    RTE510
000290: 36,2775           15326                                    1RTEB2
000291: 36,2776           77650                           GOTO                                           #  ENTRY NEAR APOGEE
000292: 36,2777           75002                                    RTE515
000293: 36,3000           57545        RTE510             DLOAD    DCOMP                                 #  ENTRY NEAR PERIGEE
000294: 36,3001           15326                                    1RTEB2
000295: 36,3002           37751        RTE515             STCALL   PHI2
000296: 36,3003           64546                                    PREC100                               #  PRECISION TRAJECTORY COMPUTATION
000297: 36,3004           52054        RTE625             BZE      GOTO
000298: 36,3005           75035                                    P37G
000299: 36,3006           64272                                    RTEALRM
000300:
000301:                                                                                                  #  RETURN TO EARTH DISPLAY SUBROUTINE
000302:
000303: 36,3007           45020        RTEVN              STQ      CALL
000304: 36,3010           03753                                    VNSTORE
000305: 36,3011           64323                                    RTEDISP                               #  DISPLAY PREPARATION
000306: 36,3012           77776                           EXIT
000307: 36,3013           35034                           CAF      V6N61RTE                              #  LATITUDE,LONGITUDE,BLANK
000308: 36,3014           03232                           TCR      P370GOFR                              #    IN LAT(SPL),LNG(SPL),-
000309: 36,3015           34766                           CAF      FOUR
000310: 36,3016           03226                           TCR      37BLANK    +1
000311: 36,3017           13024                           TCF      +5
000312: 36,3020           12476                           TCF      P37                                   #  RECYCLE
000313: 36,3021           33257                           CAF      V6N39RTE                              #  T21 HRS,MIN,SEC IN T3TOT4
000314: 36,3022           03246                           TCR      P370GOF
000315: 36,3023           12476                           TCF      P37                                   #  RECYCLE
000316: 36,3024           35033                           CAF      V6N60RTE                              #  DISPLAY BLANK,V(T2),FPA2
000317: 36,3025           03222                           TCR      P37GFRB1                              #    IN -,VPRED,GAMMAEI
000318: 36,3026           12476                           TCF      P37                                   #  RECYCLE
000319: 36,3027           34535                           CAF      V6N81RTE                              #  DISPLAY DELTA V (LV) IN DELVLVC
000320: 36,3030           03246                           TCR      P370GOF
000321: 36,3031           12476                           TCF      P37                                   #  RECYCLE
000322: 36,3032           06006                           TCR      INTPRET


000324: 36,3033           77650                           GOTO
000325: 36,3034           03753                                    VNSTORE
000326:
000327:                                                                                                  #  PRECISION DISPLAY, TARGETING COMPUTATION AND RTE END PROCESSING
000328:
000329: 36,3035           77624        P37G               CALL
000330: 36,3036           75007                                    RTEVN
000331: 36,3037           77776                           EXIT
000332: 36,3040           34774        P37N               CAF      SEVEN
000333: 36,3041           54775                           TS       OPTION1
000334: 36,3042           34770                           CAF      ONE
000335: 36,3043           54776                           TS       OPTION2
000336: 36,3044           34537                           CAF      V4N06RTE                              #  DISPLAY RCS OR SPS OPTION  SPS ASSUMED
000337: 36,3045           03246                           TCR      P370GOF
000338: 36,3046           13044                           TCF      -2                                    #  RECYCLE
000339: 36,3047           06006                           TC       INTPRET                               #  PROCEED
000340: 36,3050           67201                           SETPD    SLOAD
000341: 36,3051           00001                                    00D
000342: 36,3052           00777                                    OPTION2
000343: 36,3053           53025                           DSU      BZE
000344: 36,3054           33572                                    1RTEB13
000345: 36,3055           75064                                    P37Q
000346: 36,3056           60335                           SLOAD    NORM                                  #  SPS
000347: 36,3057           01351                                    EMDOT
000348: 36,3060           00047                                    X1
000349: 36,3061           52125                           PDDL     GOTO
000350: 36,3062           33622                                    VCSPS
000351: 36,3063           75075                                    P37T
000352: 36,3064           43145        P37Q               DLOAD    BON                                   #  RCS
000353: 36,3065           33626                                    MDOTRCS
000354: 36,3066           00700                                    NJETSFLG
000355: 36,3067           75071                                    P37R
000356: 36,3070           77752                           SL1
000357: 36,3071           77752        P37R               SL1
000358: 36,3072           65301                           NORM     PDDL
000359: 36,3073           00047                                    X1
000360: 36,3074           33624                                    VCRCS
000361: 36,3075           56325        P37T               PDDL     DDV                                   #  DV/VC                 B7 -B5 = B2 PL02D
000362: 36,3076           03706                                    DV
000363: 36,3077           77776                           EXIT
000364: 36,3100           07171                           TC       POLY
000365: 36,3101           00001                           DEC      1          B-14
000366: 36,3102           00001 05070                     2DEC     5.66240507 E-4        B-3
000367: 36,3104           17527 36700                     2DEC     9.79487897 E-1        B-1
000368: 36,3106           47114 70670                     2DEC     -.388281955 B1
000369: 36,3110           06006                           TC       INTPRET
000370: 36,3111           67206                           PUSH     SLOAD                                 #  (1-E)**(-DV/VC)=A              B3 PL04D


000372: 36,3112           03076                                    WEIGHT/G
000373: 36,3113           56205                           DMP      DDV                                   #  DTB=(M0/MDOT)A      B16+B3-B3=B16 PL00D
000374: 36,3114           41257                           SL*      DMP
000375: 36,3115           20165                                    0          -12D,1
000376: 36,3116           15334                                    CSUBT
000377: 36,3117           77621                           BDSU
000378: 36,3120           03716                                    T1
000379: 36,3121           03413                           STORE    TIG                                   #  TIG=T1-CT*DTB                 B28
000380: 36,3122           77776                           EXIT
000381: 36,3123           35026                           CAF      V6N33RTE                              #  DISPLAY BIASED TIG
000382: 36,3124           03246                           TCR      P370GOF
000383: 36,3125           13123                           TCF      -2
000384: 36,3126           34772                           CAF      ZERO
000385: 36,3127           54771                           TS       VHFCNT
000386: 36,3130           54772                           TS       TRKMKCNT
000387: 36,3131           06006                           TC       INTPRET
000388: 36,3132           77624                           CALL                                           #  CONICALLY INTEGRATE FROM R1,V1 OVER T12
000389: 36,3133           63624                                    RTENCK1
000390: 36,3134           53575                           VLOAD    UNIT                                  #                                    PL00D
000391: 36,3135           03656                                    R(T2)/
000392: 36,3136           74315                           PDVL     VXSC                                  #  UR2                            B1 PL06D
000393: 36,3137           03554                                    UR1/
000394: 36,3140           33632                                    MCOS7.5
000395: 36,3141           74315                           PDVL     VXSC                                  #  -UR1(COS7.5)                   B1 PL12D
000396: 36,3142           03562                                    UH/
000397: 36,3143           33634                                    MSIN7.5
000398: 36,3144           50255                           VAD      DOT                                   #  K/=-UR1(COS7.5)-UH(SIN7.5)     B2 PL00D
000399: 36,3145           50015                           DAD      BMN
000400: 36,3146           33636                                    MCOS22.5
000401: 36,3147           75174                                    P37W
000402: 36,3150           50375                           VLOAD    DOT                                   #  K/ . UR2 GR COS22.5
000403: 36,3151           03562                                    UH/
000404: 36,3152           03656                                    R(T2)/
000405: 36,3153           71240                           BMN      DLOAD
000406: 36,3154           75160                                    P37U
000407: 36,3155           33640                                    THETA165
000408: 36,3156           52006                           PUSH     GOTO
000409: 36,3157           75162                                    P37V
000410: 36,3160           41545        P37U               DLOAD    PUSH
000411: 36,3161           33642                                    THETA210
000412: 36,3162           77756        P37V               SIN
000413: 36,3163           16732                           STODL    SNTH
000414: 36,3164           43146                           COS      CLEAR
000415: 36,3165           03666                                    RVSW
000416: 36,3166           26734                           STOVL    CSTH
000417: 36,3167           03640                                    R(T1)/
000418: 36,3170           26657                           STOVL    RVEC
000419: 36,3171           03700                                    V2(T1)/
000420: 36,3172           36746                           STCALL   VVEC
000421: 36,3173           25002                                    TIMETHET


000423: 36,3174           43014        P37W               CLEAR    CLEAR
000424: 36,3175           01267                                    XDELVFLG
000425: 36,3176           03665                                    NORMSW
000426: 36,3177           77214                           SET      VLOAD
000427: 36,3200           01071                                    FINALFLG
000428: 36,3201           77626                           STADR
000429: 36,3202           60362                           STODL    RTARG
000430: 36,3203           00037                                    T
000431: 36,3204           77615                           DAD
000432: 36,3205           03716                                    T1
000433: 36,3206           27656                           STOVL    TPASS4
000434: 36,3207           03700                                    V2(T1)/
000435: 36,3210           77451                           VSU      EXIT
000436: 36,3211           03672                                    V(T1)/
000437: 36,3212           34756                           CAF      EBANK4
000438: 36,3213           54003                           TS       EBANK
000439: 36,3214           06006                           TC       INTPRET
000440: 36,3215           03646                           STORE    DELVSIN
000441: 36,3216           77624        P37WW              CALL
000442: 36,3217           73027                                    VN1645
000443: 36,3220           77650                           GOTO
000444: 36,3221           75216                                    P37WW
000445:
000446:                                                                                                  #  SUBROUTINE TO GO TO GOFLASHR AND BLANK R1
000447:
000448: 36,3222           00006        P37GFRB1           EXTEND
000449: 36,3223           23752                           QXCH     SPRTEX
000450: 36,3224           03232                           TCR      P370GOFR
000451: 36,3225           34770        37BLANK            CAF      ONE
000452: 36,3226           05516                 +1        TCR      BLANKET
000453: 36,3227           15205                           TCF      ENDOFJOB
000454: 36,3230           01752                           TC       SPRTEX                                #  RECYCLE
000455: 36,3231           13255                           TCF      P37PROC                               #  PROCEED
000456:
000457:                                                                                                  #  SUBROUTINE TO GO TO GOFLASHR
000458:
000459: 36,3232           00006        P370GOFR           EXTEND
000460: 36,3233           23547                           QXCH     RTENCKEX
000461: 36,3234           04636                           TCR      BANKCALL
000462: 36,3235           21101                           CADR     GOFLASHR
000463: 36,3236           14103                           TCF      GOTOPOOH                              #  TERMINATE
000464: 36,3237           13242                           TCF      +3
000465: 36,3240           13244                           TCF      +4
000466: 36,3241           01547                           TC       RTENCKEX                              #  IMMEDIATE RETURN
000467: 36,3242           51547                           INDEX    RTENCKEX                              #  PROCEED
000468: 36,3243           10004                           TCF      0          +4
000469: 36,3244           51547                           INDEX    RTENCKEX                              #  RECYCLE
000470: 36,3245           10003                           TCF      0          +3
000471:
000472:                                                                                                  #  SUBROUTINE TO GO TO GOFLASH
000473:


000475: 36,3246           00006        P370GOF            EXTEND
000476: 36,3247           23752                           QXCH     SPRTEX
000477: 36,3250           04636                           TCR      BANKCALL
000478: 36,3251           20743                           CADR     GOFLASH
000479: 36,3252           14103                           TCF      GOTOPOOH
000480: 36,3253           13255                           TCF      +2
000481: 36,3254           01752                           TC       SPRTEX
000482: 36,3255           51752        P37PROC            INDEX    SPRTEX
000483: 36,3256           10001                           TCF      0          +1
000484: 36,3257     5026               V6N33RTE           =        V06N33
000485: 36,3257     4537               V4N06RTE           =        V04N06
000486: 36,3257     5034               V6N61RTE           =        V06N61
000487: 36,3257           01447        V6N39RTE           VN       0639
000488: 36,3260     5033               V6N60RTE           =        V06N60
000489: 36,3260     4535               V6N81RTE           =        V06N81
000490: 32,2000                                           SETLOC   RTE
000491: 32,2000                                           BANK
000492: 32,2272                                           COUNT*   $$/P37


000494:                                                                                                  #  ALARM DISPLAY SUBROUTINE
000495: 32,2272           77776        RTEALRM            EXIT
000496: 32,2273           30154                           CA       MPAC
000497: 32,2274           05770                           TC       VARALARM
000498: 32,2275           35023                           CAF      V5N09RTE
000499: 32,2276           04636                           TC       BANKCALL
000500: 32,2277           20743                           CADR     GOFLASH
000501: 32,2300           14103                           TCF      GOTOPOOH
000502: 32,2301           12275                           TCF      -4
000503: 32,2302           04655                           TC       POSTJUMP
000504: 32,2303           74476                           CADR     P37
000505: 32,2304     5023               V5N09RTE           =        V05N09
000506:


000508:                                                                                                  #  TIME RADIUS CALLING SUBROUTINE
000509:
000510:                                                                                                  #  INPUT
000511:                                                                                                  #    RVEC        INITIAL POSITION VECTOR                                 VECTOR  B29     METERS
000512:                                                                                                  #    VVEC        INITIAL VELOCITY VECTOR                                 VECTOR  B7      METERS/CS
000513:                                                                                                  #    RDESIRED    FINAL RADIUS FOR WHICH TRANSFER TIME IS TO BE COMPUTED  DP      B29     METERS
000514:                                                                                                  #    CONICX1     X1 SETTING FOR CONIC SUBROUTINES  -2 = EARTH            SP      B14
000515:                                                                                                  #  OUTPUT
000516:                                                                                                  #    R(T2)/      FINAL POSITION VECTOR                                   VECTOR  B29     METERS
000517:                                                                                                  #    V(T2)/      FINAL VELOCITY VECTOR                                   VECTOR  B7      METERS/CS
000518:                                                                                                  #    T12         TRANSFER TIME TO FINAL RADIUS                           DP      B28     CS
000519:
000520: 32,2304           43020        TMRAD100           STQ      CLEAR
000521: 32,2305           03547                                    RTENCKEX
000522: 32,2306           03666                                    RVSW
000523: 32,2307           67164                           AXC,2    SXA,2
000524: 32,2310           20000                           OCT      20000
000525: 32,2311           02756                                    SGNRDOT
000526: 32,2312           45140                           LXC,1    CALL
000527: 32,2313           03550                                    CONICX1
000528: 32,2314           25607                                    TIMERAD
000529: 32,2315           27710                           STOVL    V(T2)/                                #                                    PL00D
000530: 32,2316           77626                           STADR
000531: 32,2317           60121                           STODL    R(T2)/
000532: 32,2320           00037                                    T
000533: 32,2321           37724                           STCALL   T12
000534: 32,2322           03547                                    RTENCKEX
000535:


000537:                                                                                                  #  DISPLAY CALCULATION SUBROUTINE
000538:
000539:                                                                                                  #  DESCRIPTION
000540:                                                                                                  #    OUTPUT FOR DISPLAY IS CONVERTED TO PROPER UNITS AND PLACED IN OUTPUT STORAGE REGISTERS. LANDING SITE
000541:                                                                                                  #  COMPUTATION FOR DETERMINING LANDING SITE LATITUDE AND LONGITUDE IS INCLUDED IN THE ROUTINE.
000542:
000543:                                                                                                  #  CALLING SEQUENCE
000544:                                                                                                  #    L   CALL
000545:                                                                                                  #    L+1         RTEDISP
000546:
000547:                                                                                                  #  SUBROUTINES CALLED
000548:                                                                                                  #    TMRAD100
000549:                                                                                                  #    AUGEKUGL
000550:                                                                                                  #    LAT-LONG
000551:
000552:                                                                                                  #  ERASABLE INITIALIZATION REQUIRED
000553:                                                                                                  #    PUSHLIST
000554:                                                                                                  #      NONE
000555:                                                                                                  #    MPAC
000556:                                                                                                  #      NONE
000557:                                                                                                  #    OTHER
000558:                                                                                                  #      R(T2)/            FINAL POSITION VECTOR                                   VECTOR  B29     METERS
000559:                                                                                                  #      V(T2)/            FINAL VELOCITY VECTOR                                   VECTOR  B7      METERS/CS
000560:                                                                                                  #      T2                FINAL TIME                                              DP      B28     CS
000561:                                                                                                  #      V2(T1)/           POST IMPULSE INITIAL VELOCITY VECTOR                    VECTOR  B7      METERS/CS
000562:                                                                                                  #      V(T1)/            INITIAL VELOCITY VECTOR                                 VECTOR  B7      METERS/CS
000563:                                                                                                  #      UR1/              UNIT INITIAL VECTOR                                     VECTOR  B1
000564:                                                                                                  #      UH/               UNIT HORIZONTAL VECTOR                                  VECTOR  B1
000565:
000566:                                                                                                  #  OUTPUT
000567:                                                                                                  #        VPRED           VELOCITY MAGNITUDE AT 400,000 FT. ENTRY ALTITUDE        DP      B7      METERS/CS
000568:                                                                                                  #        T3TOT4          TRANSIT TIME TO 400,000 FT. ENTRY ALTITUDE              DP      B28     CS
000569:                                                                                                  #        GAMMAEI         FLIGHT PATH ANGLE AT 400,000 FT. ENTRY ALTITUDE         DP      B0      REVS  + ABOVE HORIZ
000570:                                                                                                  #        DELVLVC         INITIAL VELOCITY CHANGE VECTOR IN LOCAL VERTICAL COORD. VECTOR  B7      METERS/CS
000571:                                                                                                  #        LAT(SPL)        LATITUDE OF THE LANDING SITE                            DP      B0      REVS
000572:                                                                                                  #        LNG(SPL)        LONGITUDE OF THE LANDING SITE                           DP      B0      REVS
000573:
000574: 32,2323           77220        RTEDISP            STQ      VLOAD                                 #  DISPLAY
000575: 32,2324           03752                                    SPRTEX
000576: 32,2325           03710                                    V(T2)/
000577: 32,2326           65256                           UNIT     PDDL
000578: 32,2327           00045                                    36D
000579: 32,2330           17757                           STODL    VPRED                                 #  V(T2)
000580: 32,2331           03552                                    T2
000581: 32,2332           77625                           DSU
000582: 32,2333           03413                                    SPRTETIG
000583: 32,2334           26641                           STOVL    T3TOT4                                #  T21
000584: 32,2335           03656                                    R(T2)/
000585: 32,2336           50256                           UNIT     DOT
000586: 32,2337           77752                           SL1


000588: 32,2340           44326                           ARCCOS   BDSU
000589: 32,2341           15326                                    1RTEB2
000590: 32,2342           27761                           STOVL    GAMMAEI                               #  FLIGHT PATH ANGLE T2
000591: 32,2343           03700                                    V2(T1)/
000592: 32,2344           41451                           VSU      PUSH
000593: 32,2345           03672                                    V(T1)/
000594: 32,2346           57441                           DOT      DCOMP
000595: 32,2347           03554                                    UR1/
000596: 32,2350           41515                           PDVL     PUSH
000597: 32,2351           63345                           DLOAD    PDVL
000598: 32,2352           15330                                    ZERORTE
000599: 32,2353           55441                           DOT      VDEF
000600: 32,2354           03562                                    UH/
000601: 32,2355           77772                           VSL1
000602: 32,2356           17405                           STODL    DELVLVC
000603: 32,2357           03405                                    DELVLVC
000604: 32,2360           57414                           BOFF     DCOMP
000605: 32,2361           02741                                    RETROFLG
000606: 32,2362           64364                                    RTD18
000607: 32,2363           03405                           STORE    DELVLVC                               #  NEGATE X COMPONENT, RETROGRADE
000608: 32,2364           51575        RTD18              VLOAD    ABVAL
000609: 32,2365           03405                                    DELVLVC
000610: 32,2366           27763                           STOVL    VGDISP
000611: 32,2367           03656                                    R(T2)/
000612: 32,2370           02657                           STORE    RVEC                                  #  *****  LANDING SITE COMPUTATION  *****
000613: 32,2371           45246                           ABVAL    DSU
000614: 32,2372           33620                                    30480RTE
000615: 32,2373           26760                           STOVL    RDESIRED
000616: 32,2374           03710                                    V(T2)/
000617: 32,2375           36746                           STCALL   VVEC
000618: 32,2376           64304                                    TMRAD100                              #  R3,V3,T23 FROM TIMERAD
000619: 32,2377           53575                           VLOAD    UNIT
000620: 32,2400           03656                                    R(T2)/
000621: 32,2401           53515                           PDVL     UNIT                                  #  UR3                               PL06D
000622: 32,2402           03710                                    V(T2)/
000623: 32,2403           72441                           DOT      SL1                                   #  GAMMAE=ARCSIN(UR3 . UV3)          PL00D
000624: 32,2404           65336                           ARCSIN   PDDL                                  #  V(T3)                             PL02D
000625: 32,2405           00045                                    36D
000626: 32,2406           51525                           PDDL     ABS
000627: 32,2407           45006                           PUSH     CALL                                  #  /GAMMAE/                          PL04D
000628: 32,2410           64105                                    AUGEKUGL                              #  PHIE                              PL06D
000629: 32,2411           43215                           DAD      DAD
000630: 32,2412           03724                                    T12                                   #  T23
000631: 32,2413           03552                                    T2
000632: 32,2414           00003                           STORE    02D                                   #  T(LS)=T2&T23&TE
000633: 32,2415           53135                           SLOAD    BZE
000634: 32,2416           03013                                    P37RANGE
000635: 32,2417           64421                                    RTD22
000636: 32,2420           00005                           STORE    04D                                   #  OVERRIDE RANGE (PCR 261)
000637: 32,2421           73545        RTD22              DLOAD    SIN


000639: 32,2422           00005                                    04D
000640: 32,2423           17403                           STODL    LNG(SPL)                              #  LNG(SPL)=SIN(PHIE)                PL04D
000641: 32,2424           77746                           COS
000642: 32,2425           03401                           STORE    LAT(SPL)                              #  LAT(SPL)=COS(PHIE)
000643: 32,2426           53575                           VLOAD    UNIT
000644: 32,2427           03656                                    R(T2)/
000645: 32,2430           41406                           PUSH     PUSH
000646: 32,2431           53515                           PDVL     UNIT                                  #                                    PL22D
000647: 32,2432           03710                                    V(T2)/
000648: 32,2433           47315                           PDVL     VXV
000649: 32,2434           53435                           VXV      UNIT                                  #  UH3=UNIT(UR3 X UV3 X UR3)         PL10D
000650: 32,2435           63361                           VXSC     PDVL
000651: 32,2436           03403                                    LNG(SPL)
000652: 32,2437           53361                           VXSC     VAD                                   #                                    PL04D
000653: 32,2440           03401                                    LAT(SPL)
000654: 32,2441           43014                           CLEAR    CLEAR                                 #  T(LS) IN MPAC
000655: 32,2442           00662                                    ERADFLAG
000656: 32,2443           01663                                    LUNAFLAG
000657: 32,2444           16152                           STODL    ALPHAV                                #  ALPHAV=UR3(COSPHIE)+UH3(SINPHIE)  PL02D
000658: 32,2445           77624                           CALL
000659: 32,2446           26453                                    LAT-LONG
000660: 32,2447           77745                           DLOAD
000661: 32,2450           00747                                    LAT
000662: 32,2451           17401                           STODL    LAT(SPL)                              #  LATITUDE LANDING SITE   *****
000663: 32,2452           00751                                    LONG
000664: 32,2453           37403                           STCALL   LNG(SPL)                              #  LONGITUDE LANDING SITE  *****
000665: 32,2454           03752                                    SPRTEX


000667:                                                                                                  #  INITIAL VECTOR SUBROUTINE
000668:
000669:                                                                                                  #  DESCRIPTION
000670:                                                                                                  #    A PRECISION INTEGRATION OF THE STATE VECTOR TO THE TIME OF IGNITION IS PERFORMED. PRECOMPUTATIONS OCCUR.
000671:
000672:                                                                                                  #  CALLING SEQUENCE
000673:                                                                                                  #    L   CALL
000674:                                                                                                  #    L+1         INVC100
000675:
000676:                                                                                                  #  NORMAL EXIT MODE
000677:                                                                                                  #    AT L+2 OF CALLING SEQUENCE WITH MPAC = 0
000678:
000679:                                                                                                  #  ALARM EXIT MODE
000680:                                                                                                  #    AT L+2 OF CALLING SEQUENCE WITH MPAC = OCTAL 612 FOR STATE VECTOR IN MOONS SPHERE OF INFLUENCE
000681:
000682:                                                                                                  #  SUBROUTINES CALLED
000683:                                                                                                  #    CSMPREC
000684:
000685:                                                                                                  #  ERASABLE INITIALIZATION REQUIRED
000686:                                                                                                  #    PUSHLIST
000687:                                                                                                  #      NONE
000688:                                                                                                  #    MPAC
000689:                                                                                                  #      NONE
000690:                                                                                                  #    OTHER
000691:                                                                                                  #      SPRTETIG          TIME OF IGNITION                                        DP      B28     CS
000692:                                                                                                  #      CSM STATE VECTOR
000693:
000694:                                                                                                  #  OUTPUT
000695:                                                                                                  #    R(T1)/              INITIAL POSITION VECTOR AT TIG                          VECTOR  B29     METERS
000696:                                                                                                  #    V(T1)/              INITIAL VELOCITY VECTOR AT TIG                          VECTOR  B7      METERS/CS
000697:                                                                                                  #    T1                  INITIAL VECTOR TIME (TIG)                               DP      B28     CS
000698:                                                                                                  #    UR1/                UNIT INITIAL VECTOR                                     VECTOR  B1
000699:                                                                                                  #    UH/                 UNIT HORIZONTAL VECTOR                                  VECTOR  B1
000700:                                                                                                  #    CFPA                COSINE OF INITIAL FLIGHT PATH ANGLE                     DP      B1
000701:
000702: 32,2455           71220        INVC100            STQ      DLOAD
000703: 32,2456           03752                                    SPRTEX
000704: 32,2457           03413                                    SPRTETIG
000705: 32,2460           34041                           STCALL   TDEC1
000706: 32,2461           27145                                    CSMPREC                               #  PRECISION INTEGRATION  R0,V0 TO R1,V1
000707: 32,2462           67175                           VLOAD    SXA,2
000708: 32,2463           00001                                    RATT
000709: 32,2464           03745                                    P(T1)
000710: 32,2465           27640                           STOVL    R(T1)/
000711: 32,2466           00007                                    VATT
000712: 32,2467           17672                           STODL    V(T1)/
000713: 32,2470           00015                                    TAT
000714: 32,2471           03716                           STORE    T1
000715: 32,2472           53135                           SLOAD    BZE
000716: 32,2473           03746                                    P(T1)


000718: 32,2474           64500                                    INVC109
000719: 32,2475           52135        INVC107            SLOAD    GOTO
000720: 32,2476           33631                                    OCT612
000721: 32,2477           64272                                    RTEALRM                               #  R1,V1 NOT IN PROPER SPHERE OF INFLUENCE
000722: 32,2500           53575        INVC109            VLOAD    UNIT
000723: 32,2501           03640                                    R(T1)/
000724: 32,2502           17554                           STODL    UR1/                                  #  UR1/                           B1
000725: 32,2503           00045                                    36D
000726: 32,2504           27646                           STOVL    R(T1)                                 #  R(T1)                         B29
000727: 32,2505           03672                                    V(T1)/
000728: 32,2506           77656                           UNIT
000729: 32,2507           03562                           STORE    UV1/
000730: 32,2510           72441                           DOT      SL1
000731: 32,2511           03554                                    UR1/
000732: 32,2512           03747                           STORE    CFPA                                  #  CFPA                           B1
000733: 32,2513           45246                           ABS      DSU
000734: 32,2514           33644                                    EPC1RTE
000735: 32,2515           71240                           BMN      DLOAD
000736: 32,2516           64525                                    INVC115                               #  NOT NEAR RECTILINEAR
000737: 32,2517           15326                                    1RTEB2
000738: 32,2520           41525                           PDDL     PUSH
000739: 32,2521           15330                                    ZERORTE
000740: 32,2522           41466                           VDEF     PUSH                                  #  N/ = (0,0,1)
000741: 32,2523           77650                           GOTO
000742: 32,2524           64531                                    INVC120
000743: 32,2525           47375        INVC115            VLOAD    VXV
000744: 32,2526           03554                                    UR1/
000745: 32,2527           03562                                    UV1/
000746: 32,2530           77606                           PUSH                                           #  N/ = UR X UV                   B2
000747: 32,2531           71214        INVC120            CLEAR    DLOAD
000748: 32,2532           02661                                    RETROFLG
000749: 32,2533           51006                           PUSH     BPL
000750: 32,2534           64540                                    INVC125
000751: 32,2535           57575                           VLOAD    VCOMP                                 #  RETROGRADE ORBIT
000752: 32,2536           43006                           PUSH     SET
000753: 32,2537           02461                                    RETROFLG
000754: 32,2540           77775        INVC125            VLOAD
000755: 32,2541           53435                           VXV      UNIT
000756: 32,2542           03554                                    UR1/
000757: 32,2543           03562                           STORE    UH/                                   #  UH/                            B1
000758: 32,2544           77650                           GOTO
000759: 32,2545           03752                                    SPRTEX
000760:


000762:                                                                                                  #  PRECISION TRAJECTORY COMPUTATION SUBROUTINE
000763:
000764:                                                                                                  #  DESCRIPTION
000765:                                                                                                  #    A NUMERICALLY INTEGRATED TRAJECTORY IS GENERATED WHICH FOR THE RETURN TO EARTH PROBLEM SATISFIES THE REENTRY
000766:                                                                                                  #  CONSTRAINTS (RCON AND X(T2)) ACHIEVED BY THE INITIAL CONIC TRAJECTORY AND MEETS THE DVD REQUIREMENT AS CLOSELY
000767:                                                                                                  #  AS POSSIBLE.
000768:
000769:                                                                                                  #  CALLING SEQUENCE
000770:                                                                                                  #    L   CALL
000771:                                                                                                  #    L+1         PREC100
000772:
000773:                                                                                                  #  NORMAL EXIT MODE
000774:                                                                                                  #    AT L+2 OF CALLING SEQUENCE WITH MPAC = 0
000775:
000776:                                                                                                  #  ALARM EXIT MODE
000777:                                                                                                  #    AT L+2 OF CALLING SEQUENCE WITH MPAC =
000778:                                                                                                  #        OCTAL 605       FOR EXCESS ITERATIONS
000779:                                                                                                  #        OCTAL 613       FOR REENTRY ANGLE OUT OF LIMITS
000780:
000781:                                                                                                  #  SUBROUTINES CALLED
000782:                                                                                                  #    INTSTALL
000783:                                                                                                  #    RTENCK2
000784:                                                                                                  #    RTENCK3
000785:                                                                                                  #    TIMERAD
000786:                                                                                                  #    PARAM
000787:                                                                                                  #    V2T100
000788:
000789:                                                                                                  #  ERASABLE INITIALIZATION REQUIRED
000790:                                                                                                  #    PUSHLIST
000791:                                                                                                  #      NONE
000792:                                                                                                  #    MPAC
000793:                                                                                                  #      NONE
000794:                                                                                                  #    OTHER
000795:                                                                                                  #      R(T1)/            INITIAL POSITION VECTOR                                 VECTOR  B29/B27 METERS
000796:                                                                                                  #      V2(T1)/           POST IMPULSE INITIAL VELOCITY VECTOR                    VECTOR  B7/B5   METERS/CS
000797:                                                                                                  #      V(T1)/            INITIAL VELOCITY VECTOR                                 VECTOR  B7/B5   METERS/CS
000798:                                                                                                  #      T1                INITIAL VECTOR TIME                                     DP      B28     CS
000799:                                                                                                  #      T12               INITIAL TO FINAL POSITION TIME                          DP      B28     CS
000800:                                                                                                  #      RCON              CONIC FINAL RADIUS                                      DP      B29/B27 METERS
000801:                                                                                                  #      R(T1)             MAGNITUDE OF INITIAL POSITION VECTOR                    DP      B29/B27 METERS
000802:                                                                                                  #      X(T2)             COTANGENT OF FINAL FLIGHT PATH ANGLE                    DP      B0
000803:                                                                                                  #      X(T1)             COTANGENT OF INITIAL FLIGHT PATH ANGLE                  DP      B5
000804:                                                                                                  #      RTEDVD            DELTA VELOCITY DESIRED                                  DP      B7/B5   METERS/CS
000805:                                                                                                  #      MAMAX1            MAJOR AXIS LIMIT FOR LOWER BOUND ON GAMDV ITERATOR      DP      B30/B28 METERS
000806:                                                                                                  #      MAMAX2            MAJOR AXIS LIMIT FOR UPPER BOUND ON GAMDV ITERATOR      DP      B30/B28 METERS
000807:                                                                                                  #      UR1/              UNIT INITIAL VECTOR                                     VECTOR  B1
000808:                                                                                                  #      UH/               UNIT HORIZONTAL VECTOR                                  VECTOR  B1
000809:                                                                                                  #      BETA1             1+X(T2)**2                                              DP      B1
000810:                                                                                                  #      PHI2              PERIGEE OR APOGEE INDICATOR                             DP      B2      -1 PERIGEE, +1 APOGEE
000811:


000813:                                                                                                  #  OUTPUT
000814:                                                                                                  #    V2(T1)/             POST IMPULSE INITIAL VELOCITY VECTOR                    VECTOR  B7      METERS/CS
000815:                                                                                                  #    R(T2)/              FINAL POSITION VECTOR                                   VECTOR  B29     METERS
000816:                                                                                                  #    V(T2)/              FINAL VELOCITY VECTOR                                   VECTOR  B7      METERS/CS
000817:                                                                                                  #    T2                  FINAL TIME                                              DP      B28     CENTISECONDS
000818:
000819:                                                                                                  #  DEBRIS
000820:                                                                                                  #    RD                  FINAL R DESIRED                                         DP      B29/B27 METERS
000821:                                                                                                  #    R/APRE              R/A                                                     DP      B6
000822:                                                                                                  #    P/RPRE              P/R                                                     DP      B4
000823:                                                                                                  #    RPRE                MAGNITUDE OF R(T2)/                                     DP      B29/B27 METERS
000824:                                                                                                  #    X(T2)PRE            COTANGENT OF GAMMA2                                     DP      B0
000825:                                                                                                  #    DT12                CORRECTION TO FINAL TIME T2                             DP      B28     CENTISECONDS
000826:                                                                                                  #    RCON                FINAL RADIUS                                            DP      B29/B27 METERS
000827:                                                                                                  #    DRCON               DELTA RCON                                              DP      B29/B27 METERS
000828:
000829: 32,2546           71220        PREC100            STQ      DLOAD
000830: 32,2547           03752                                    SPRTEX
000831: 32,2550           33606                                    10RTE
000832: 32,2551           17730                           STODL    NN1A
000833: 32,2552           03636                                    RCON
000834: 32,2553           03664                           STORE    RD
000835: 32,2554           77745        PREC120            DLOAD
000836: 32,2555           15344                                    2RTEB1
000837: 32,2556           17650                           STODL    DT21PR                                #  DT21PR = POSMAX
000838: 32,2557           33604                                    M15RTE
000839: 32,2560           37546                           STCALL   NN2
000840: 32,2561           63652                                    RTENCK3
000841: 32,2562           77624        PREC125            CALL
000842: 32,2563           37727                                    PARAM
000843: 32,2564           77745                           DLOAD
000844: 32,2565           02742                                    P
000845: 32,2566           14033                           STODL    P/RPRE
000846: 32,2567           02744                                    R1A
000847: 32,2570           14035                           STODL    R/APRE
000848: 32,2571           00041                                    R1
000849: 32,2572           14031                           STODL    RPRE
000850: 32,2573           03770                                    COGA
000851: 32,2574           77661                           SL
000852: 32,2575           20206                                    5
000853: 32,2576           03724                           STORE    X(T2)PRE
000854: 32,2577           43276                           DCOMP    DAD
000855: 32,2600           03726                                    X(T2)
000856: 32,2601           45246                           ABS      DSU
000857: 32,2602           33652                                    EPC4RTE
000858: 32,2603           50000                           BOV      BMN
000859: 32,2604           64606                                    PREC130
000860: 32,2605           64775                                    PREC175
000861:
000862:                                                                                                  #  DESIRED REENTRY ANGLE NOT ACHIEVED


000864: 32,2606           50145        PREC130            DLOAD    BMN
000865: 32,2607           03546                                    NN2
000866: 32,2610           64614                                    PREC140
000867: 32,2611           52135        PREC132            SLOAD    GOTO                                  #  TOO MANY ITERATIONS
000868: 32,2612           33630                                    OCT605                                #      EXIT WITH ALARM
000869: 32,2613           65100                                    PRECX
000870:
000871:                                                                                                  #  DETERMINE RADIUS AT WHICH THE DESIRED REENTRY ANGLE WILL BE ACHIEVED
000872:
000873: 32,2614           53145        PREC140            DLOAD    BZE
000874: 32,2615           03730                                    NN1A
000875: 32,2616           64654                                    PREC162
000876: 32,2617           62545        PREC150            DLOAD    SL2                                   #                                 B2
000877: 32,2620           00033                                    P/RPRE
000878: 32,2621           72405                           DMP      SL1                                   #  BETA2=BETA1*P/R                B2 PL02
000879: 32,2622           03744                                    BETA1
000880: 32,2623           71206                           PUSH     DLOAD
000881: 32,2624           00035                                    R/APRE
000882: 32,2625           41212                           SL4      DMP
000883: 32,2626           00001                                    00D
000884: 32,2627           50021                           BDSU     BMN                                   #  BETA3=1-BETA2*R/A
000885: 32,2630           31771                                    1RTEB4
000886: 32,2631           64644                                    PREC160
000887: 32,2632           75512        PREC155            SL2      SQRT
000888: 32,2633           44205                           DMP      BDSU
000889: 32,2634           03751                                    PHI2
000890: 32,2635           31767                                    1RTEB3
000891: 32,2636           65301                           NORM     PDDL
000892: 32,2637           00047                                    X1
000893: 32,2640           56342                           SR1      DDV                                   #  BETA4=BETA2/(1-PHI2*SQRT(BETA3))
000894: 32,2641           52057                           SL*      GOTO                                  #                                 B1
000895: 32,2642           20200                                    0          -1,1
000896: 32,2643           64662                                    PREC165
000897: 32,2644           60345        PREC160            DLOAD    NORM
000898: 32,2645           00035                                    R/APRE
000899: 32,2646           00047                                    X1
000900: 32,2647           53665                           BDDV     SL*                                   #                                 B1
000901: 32,2650           15334                                    1RTEB1
000902: 32,2651           20173                                    0          -6,1
000903: 32,2652           77650                           GOTO
000904: 32,2653           64662                                    PREC165
000905: 32,2654           60345        PREC162            DLOAD    NORM
000906: 32,2655           00031                                    RPRE
000907: 32,2656           00047                                    X1
000908: 32,2657           53665                           BDDV     SL*                                   #  BETA4=RD/RPRE                  B1
000909: 32,2660           03664                                    RD
000910: 32,2661           20200                                    0          -1,1
000911: 32,2662           41401        PREC165            SETPD    PUSH
000912: 32,2663           00001                                    0
000913: 32,2664           57425                           DSU      DCOMP


000915: 32,2665           15334                                    1RTEB1
000916: 32,2666           03755                           STORE    BETA12
000917: 32,2667           71240                           BMN      DLOAD
000918: 32,2670           64701                                    PREC168
000919: 32,2671           03724                                    X(T2)PRE
000920: 32,2672           71240                           BMN      DLOAD
000921: 32,2673           64677                                    PREC167
000922: 32,2674           03755                                    BETA12
000923: 32,2675           77676                           DCOMP
000924: 32,2676           03755                           STORE    BETA12
000925: 32,2677           77745        PREC167            DLOAD
000926: 32,2700           03755                                    BETA12
000927: 32,2701           45246        PREC168            ABS      DSU
000928: 32,2702           33654                                    EPC6RTE
000929: 32,2703           71240                           BMN      DLOAD
000930: 32,2704           64775                                    PREC175
000931: 32,2705           72405                           DMP      SL1
000932: 32,2706           00031                                    RPRE
000933: 32,2707           77606                           PUSH                                           #  RF = NEW RADIUS
000934: 32,2710           43345        PREC170            DLOAD    DAD
000935: 32,2711           03546                                    NN2
000936: 32,2712           33600                                    1RTEB28
000937: 32,2713           03546                           STORE    NN2
000938: 32,2714           43175                           VLOAD    SET
000939: 32,2715           03656                                    R(T2)/
000940: 32,2716           03466                                    RVSW
000941: 32,2717           26657                           STOVL    RVEC
000942: 32,2720           03710                                    V(T2)/
000943: 32,2721           77765                           SIGN
000944: 32,2722           03755                                    BETA12
000945: 32,2723           16746                           STODL    VVEC
000946: 32,2724           15334                                    1RTEB1
000947: 32,2725           57565                           SIGN     DCOMP
000948: 32,2726           03755                                    BETA12
000949: 32,2727           71354                           LXA,2    DLOAD
000950: 32,2730           00154                                    MPAC
000951: 32,2731           67140                           LXC,1    SXA,2
000952: 32,2732           03550                                    CONICX1
000953: 32,2733           02756                                    SGNRDOT
000954: 32,2734           36760                           STCALL   RDESIRED                              #  COMPUTE DT12 (CORRECTION TO TIME OF
000955: 32,2735           25607                                    TIMERAD                               #        NEW RADIUS)
000956: 32,2736           75345                           DLOAD    SIGN
000957: 32,2737           00037                                    T
000958: 32,2740           03755                                    BETA12
000959: 32,2741           60325                           PDDL     NORM                                  #  DT21=(PHI4)DT21                   PL02D
000960: 32,2742           03650                                    DT21PR
000961: 32,2743           00047                                    X1
000962: 32,2744           53665                           BDDV     SL*
000963: 32,2745           00001                                    00D
000964: 32,2746           20176                                    0          -3,1


000966: 32,2747           50006                           PUSH     BMN                                   #  BETA13=(DT21)/(DT21PR)         B3 PL04D
000967: 32,2750           64755                                    PREC172
000968: 32,2751           65345                           DLOAD    PDDL                                  #  BETA14=1                       B0 PL04D
000969: 32,2752           15344                                    2RTEB1
000970: 32,2753           77650                           GOTO
000971: 32,2754           64757                                    PREC173
000972: 32,2755           65345        PREC172            DLOAD    PDDL                                  #  BETA14=.6                      B0 PL04D
000973: 32,2756           33610                                    M.6RTE
000974: 32,2757           45271        PREC173            DDV      DSU
000975: 32,2760           00003                                    02D
000976: 32,2761           31767                                    1RTEB3
000977: 32,2762           71240                           BMN      DLOAD
000978: 32,2763           64767                                    PREC174
000979: 32,2764           77605                           DMP
000980: 32,2765           03650                                    DT21PR
000981: 32,2766           00001                           STORE    00D                                   #  DT21=(BETA14)DT21PR           B28
000982: 32,2767           41545        PREC174            DLOAD    PUSH
000983: 32,2770           00001                                    00D
000984: 32,2771           37650                           STCALL   DT21PR
000985: 32,2772           63634                                    RTENCK2
000986: 32,2773           77650                           GOTO
000987: 32,2774           64562                                    PREC125
000988: 32,2775           45345        PREC175            DLOAD    DSU
000989: 32,2776           00031                                    RPRE
000990: 32,2777           03664                                    RD
000991: 32,3000           51406                           PUSH     ABS                                   #  RPRE-RD = RERR
000992: 32,3001           50025                           DSU      BMN
000993: 32,3002           33656                                    EPC7RTE
000994: 32,3003           35022                                    PREC220
000995:
000996:                                                                                                  #  DESIRED RADIUS HAS NOT BEEN ACHIEVED
000997:
000998: 32,3004           53145                           DLOAD    BZE
000999: 32,3005           03730                                    NN1A
001000: 32,3006           64611                                    PREC132                               #  TOO MANY ITERATIONS
001001: 32,3007           53025                           DSU      BZE
001002: 32,3010           33606                                    10RTE
001003: 32,3011           65044                                    PREC207
001004: 32,3012           45345        PREC205            DLOAD    DSU                                   #  NOT FIRST PASS OF ITERATION
001005: 32,3013           03670                                    RPRE,
001006: 32,3014           00031                                    RPRE                                  #  RPRE,-RPRE                B29/B27
001007: 32,3015           55301                           NORM     BDDV
001008: 32,3016           00050                                    X2
001009: 32,3017           03666                                    DRCON
001010: 32,3020           41457                           SL*      PUSH                                  #  DRCON/(RPRE,-RPRE)=S           B2
001011: 32,3021           57600                                    0          -2,2
001012: 32,3022           40015                           DAD      BOV                                   #  S GR +4 OR LS -4
001013: 32,3023           15334                                    1RTEB1
001014: 32,3024           65031                                    PREC205M
001015: 32,3025           45246                           ABS      DSU


001017: 32,3026           15334                                    1RTEB1
001018: 32,3027           77640                           BMN
001019: 32,3030           65034                                    PREC206
001020: 32,3031           57545        PREC205M           DLOAD    DCOMP                                 #  S GR 0 OR LS -4
001021: 32,3032           15344                                    2RTEB1
001022: 32,3033           77725                           PDDL                                           #  S=-4                           B2
001023: 32,3034           41345        PREC206            DLOAD    DMP
001024: 32,3035           77712                           SL2
001025: 32,3036           03666                           STORE    DRCON                                 #  DRCON=S(RERR)                 B29
001026: 32,3037           77615                           DAD
001027: 32,3040           03636                                    RCON
001028: 32,3041           03636                           STORE    RCON                                  #  RCON+DRCON=RCON
001029: 32,3042           77650                           GOTO
001030: 32,3043           65063                                    PREC210
001031: 32,3044           63545        PREC207            DLOAD    DSQ                                   #  FIRST PASS OF ITERATION
001032: 32,3045           03664                                    RD
001033: 32,3046           70501                           NORM     SR1
001034: 32,3047           00047                                    X1
001035: 32,3050           60325                           PDDL     NORM
001036: 32,3051           00031                                    RPRE
001037: 32,3052           00050                                    X2
001038: 32,3053           55260                           XSU,1    BDDV
001039: 32,3054           00047                                    X2
001040: 32,3055           77657                           SR*
001041: 32,3056           20600                                    0          -1,1
001042: 32,3057           03636                           STORE    RCON                                  #  RD**2/RPRE=RCON
001043: 32,3060           77625                           DSU
001044: 32,3061           03664                                    RD
001045: 32,3062           03666                           STORE    DRCON                                 #  RCON-RD=DRCON
001046: 32,3063           77745        PREC210            DLOAD                                          #  PREPARE FOR NEXT ITERATION
001047: 32,3064           00031                                    RPRE
001048: 32,3065           17670                           STODL    RPRE,
001049: 32,3066           03730                                    NN1A
001050: 32,3067           77625                           DSU
001051: 32,3070           33600                                    1RTEB28
001052: 32,3071           37730                           STCALL   NN1A
001053: 32,3072           65102                                    V2T100
001054: 32,3073           52030                           BHIZ     GOTO
001055: 32,3074           64554                                    PREC120
001056: 32,3075           65100                                    PRECX
001057:
001058:                                                                                                  #  DESIRED RADIUS ACHIEVED
001059:
001060: 16,2000                                           SETLOC   RTE2
001061: 16,2000                                           BANK
001062: 16,3022           45345        PREC220            DLOAD    DSU
001063: 16,3023           03726                                    X(T2)
001064: 16,3024           03724                                    X(T2)PRE
001065: 16,3025           45246                           ABS      DSU


001067: 16,3026           35035                                    EPC8RTE
001068: 16,3027           67240                           BMN      SLOAD
001069: 16,3030           65076                                    PREC225
001070: 16,3031           35037                                    OCT613
001071: 16,3032           77650                           GOTO
001072: 16,3033           65100                                    PRECX                                 #  IF REENTRY ANGLE OUT OF LIMITS
001073:
001074: 16,3034           00040 30447  EPC8RTE            2DEC     .002
001075: 16,3036           00613        OCT613             OCT      613
001076:
001077:                                                                                                  #  DESIRED FINAL ANGLE HAS BEEN REACHED
001078:
001079: 32,2000                                           SETLOC   RTE
001080: 32,2000                                           BANK
001081: 32,3076                                           COUNT*   $$/P37
001082: 32,3076           77745        PREC225            DLOAD
001083: 32,3077           15330                                    ZERORTE
001084: 32,3100           77650        PRECX              GOTO
001085: 32,3101           03752                                    SPRTEX
001086:


001088:                                                                                                  #  INTEGRATION CALLING SUBROUTINE
001089:
001090:                                                                                                  #  DESCRIPTION
001091:                                                                                                  #    PERFORMS CONIC AND PRECISION INTEGRATIONS USING SUBROUTINE INTEGRVS. THERE ARE THREE ENTRANCES (RTENCK1,
001092:                                                                                                  #  RTENCK2 AND RTENCK3) FOR DIFFERENT SOURCES OF INPUT AND DIFFERENT OPTIONS. THERE IS A COMMON SET OF OUTPUT
001093:                                                                                                  #  WHICH INCLUDES SET UP OF INPUT FOR THE PARAM SUBROUTINE
001094:
001095:                                                                                                  #  RTENCK1 (CONIC INTEGRATION)
001096:
001097:                                                                                                  #    CALLING SEQUENCE
001098:                                                                                                  #        L       CALL
001099:                                                                                                  #        L+1             RTENCK1
001100:
001101:                                                                                                  #    ERASABLE INITIALIZATION REQUIRED
001102:                                                                                                  #        SAME AS FOR THE RTENCK3 ENTRANCE
001103:
001104:                                                                                                  #  RTENCK2 (PRECISION INTEGRATION)
001105:
001106:                                                                                                  #    CALLING SEQUENCE
001107:                                                                                                  #        L       CALL
001108:                                                                                                  #        L+1             RTENCK2
001109:
001110:                                                                                                  #    ERASABLE INITIALIZATION REQUIRED
001111:                                                                                                  #        PUSHLIST
001112:                                                                                                  #          PUSHLOC-2     INTEGRATION TIME DT12 (CORRECTION TO T2)                DP      B28     CS
001113:                                                                                                  #        OTHER
001114:                                                                                                  #          R(T2)/        FINAL POSITION VECTOR                                   VECTOR .B29     METERS
001115:                                                                                                  #          V(T2)/        FINAL VELOCITY VECTOR                                   VECTOR  B7      METERS/CS
001116:                                                                                                  #          T2            FINAL TIME                                              DP      B28     CS
001117:
001118:                                                                                                  #  RTENCK3 (PRECISION INTEGRATION)
001119:
001120:                                                                                                  #    CALLING SEQUENCE
001121:                                                                                                  #        L       CALL
001122:                                                                                                  #        L+1             RTENCK3
001123:
001124:                                                                                                  #    ERASABLE INITIALIZATION REQUIRED
001125:                                                                                                  #        R(T1)/          INITIAL POSITION VECTOR                                 VECTOR  B29     METERS
001126:                                                                                                  #        V2(T1)/         POST IMPULSE INITIAL VELOCITY VECTOR                    VECTOR  B7      M/CS
001127:                                                                                                  #        T1              INITIAL VECTOR TIME                                     DP      B28     CS
001128:                                                                                                  #        T2              FINAL TIME                                              DP      B28     CS
001129:
001130:                                                                                                  #  EXIT MODE
001131:                                                                                                  #    AT L+2 OF CALLING SEQUENCE
001132:                                                                                                  #  SUBROUTINES CALLED
001133:                                                                                                  #    INTSTALL
001134:                                                                                                  #    INTEGRVS
001135:
001136:                                                                                                  #  OUTPUT
001137:                                                                                                  #    PUSHLIST


001139:                                                                                                  #      PUSHLOC-6         FINAL POSITION VECTOR R(T2)/                            VECTOR  B29     METERS
001140:                                                                                                  #      X1                CONICS MUTABLE ENTRY FOR EARTH (-2)                     SP      B14
001141:                                                                                                  #    MPAC
001142:                                                                                                  #                        FINAL VELOCITY VECTOR V(T2)/                            VECTOR  B7      M/CS
001143:                                                                                                  #    OTHER
001144:                                                                                                  #        R(T2)/          AS IN PUSHLIST
001145:                                                                                                  #        V(T2)/          AS IN MPAC
001146:                                                                                                  #        T2              FINAL TIME                                              DP      B28     CS
001147:
001148: 31,2000                                           SETLOC   RTE3
001149: 31,2000                                           BANK
001150: 31,3624                                           COUNT*   $$/P37
001151: 31,3624           45020        RTENCK1            STQ      CALL
001152: 31,3625           03547                                    RTENCKEX
001153: 31,3626           27516                                    INTSTALL
001154: 31,3627           43175                           VLOAD    SET
001155: 31,3630           03640                                    R(T1)/
001156: 31,3631           01473                                    INTYPFLG
001157: 31,3632           77650                           GOTO
001158: 31,3633           63660                                    RTENCK3B
001159:
001160: 31,3634           45020        RTENCK2            STQ      CALL
001161: 31,3635           03547                                    RTENCKEX
001162: 31,3636           27516                                    INTSTALL
001163: 31,3637           77214                           CLEAR    VLOAD
001164: 31,3640           01673                                    INTYPFLG
001165: 31,3641           03656                                    R(T2)/
001166: 31,3642           25535                           STOVL    RCV
001167: 31,3643           03710                                    V(T2)/
001168: 31,3644           15543                           STODL    VCV
001169: 31,3645           03552                                    T2
001170: 31,3646           01517                           STORE    TET
001171: 31,3647           77615                           DAD
001172: 31,3650           77650                           GOTO
001173: 31,3651           63666                                    RTENCK3D
001174:
001175: 31,3652           45020        RTENCK3            STQ      CALL
001176: 31,3653           03547                                    RTENCKEX
001177: 31,3654           27516                                    INTSTALL
001178: 31,3655           43175        RTENCK3A           VLOAD    CLEAR
001179: 31,3656           03640                                    R(T1)/
001180: 31,3657           01673                                    INTYPFLG
001181: 31,3660           25535        RTENCK3B           STOVL    RCV
001182: 31,3661           03700                                    V2(T1)/
001183: 31,3662           15543                           STODL    VCV
001184: 31,3663           03716                                    T1
001185: 31,3664           15517                           STODL    TET


001187: 31,3665           03552                                    T2
001188: 31,3666           00041        RTENCK3D           STORE    TDEC1
001189: 31,3667           45014                           CLEAR    CALL
001190: 31,3670           00263                                    MOONFLAG
001191: 31,3671           27211                                    INTEGRVS
001192: 31,3672           77775                           VLOAD
001193: 31,3673           00001                                    RATT
001194: 31,3674           03656                           STORE    R(T2)/
001195: 31,3675           70125                           PDDL     LXC,1
001196: 31,3676           00015                                    TAT
001197: 31,3677           03550                                    CONICX1
001198: 31,3700           27552                           STOVL    T2
001199: 31,3701           00007                                    VATT
001200: 31,3702           03710                           STORE    V(T2)/
001201: 31,3703           77650                           GOTO
001202: 31,3704           03547                                    RTENCKEX
001203: 32,2000                                           SETLOC   RTE
001204: 32,2000                                           BANK
001205: 32,3102                                           COUNT*   $$/P37
001206:


001208:                                                                                                  #  V2(T1) COMPUTATION SUBROUTINE
001209:
001210:                                                                                                  #  DESCRIPTION
001211:                                                                                                  #  A POST IMPULSE VELOCITY VECTOR (V2(T1)) IS COMPUTED WHICH EITHER
001212:                                                                                                  #  (1) MEETS THE INPUT VELOCITY CHANGE DESIRED (RTEDVD) IN A MINIMUM TIME  OR
001213:                                                                                                  #  (2) IF A VELOCITY CHANGE ISN:T SPECIFIED (RTEDVD) = 0), A V2(T1) IS COMPUTED WHICH MINIMIZES THE IMPULSE (DV)
001214:                                                                                                  #  AND CONSEQUENTLY FUEL.
001215:
001216:                                                                                                  #  CALLING SEQUENCE
001217:                                                                                                  #    L   CALL
001218:                                                                                                  #    L+1         V2T100
001219:
001220:                                                                                                  #  NORMAL EXIT MODE
001221:                                                                                                  #    AT L+2 OF CALLING SEQUENCE WITH MPAC = 0
001222:
001223:                                                                                                  #  ALARM EXIT MODE
001224:                                                                                                  #    AT L+2 OF CALLING SEQUENCE WITH MPAC = OCTAL 605 FOR EXCESS ITERATIONS
001225:
001226:                                                                                                  #  SUBROUTINES CALLED
001227:                                                                                                  #    GAMDV10
001228:                                                                                                  #    XT1LIM
001229:                                                                                                  #    DVCALC
001230:
001231:                                                                                                  #  ERASABLE INITIALIZATION REQUIRED
001232:                                                                                                  #    PUSHLIST
001233:                                                                                                  #      NONE
001234:                                                                                                  #    MPAC
001235:                                                                                                  #      NONE
001236:                                                                                                  #    OTHER
001237:                                                                                                  #      R(T1)             MAGNITUDE OF INITIAL POSITION VECTOR                    DP      B29/B27 METERS
001238:                                                                                                  #      RCON              MAGNITUDE OF FINAL POSITION VECTOR                      DP      B29/B27 METERS
001239:                                                                                                  #      V(T1)/            INITIAL VELOCITY VECTOR                                 VECTOR  B7/B5   METERS/CS
001240:                                                                                                  #      RTEDVD            DELTA VELOCITY DESIRED                                  DP      B7/B5   METERS/CS
001241:                                                                                                  #      UR1/              UNIT INITIAL VECTOR                                     VECTOR  B1
001242:                                                                                                  #      UH/               UNIT HORIZONTAL VECTOR                                  VECTOR  B1
001243:                                                                                                  #      X(T2)             COTANGENT OF FINAL FLIGHT PATH ANGLE                    DP      B0
001244:                                                                                                  #      X(T1)             COTANGENT OF INITIAL FLIGHT PATH ANGLE(INPUT FOR PREC)  DP      B5
001245:                                                                                                  #      CFPA              COSINE OF INITIAL FLIGHT PATH ANGLE                     DP      B1
001246:                                                                                                  #      MAMAX1            MAJOR AXIS LIMIT FOR LOWER BOUND ON GAMDV ITERATOR      DP      B30/B28 METERS
001247:                                                                                                  #      MAMAX2            MAJOR AXIS LIMIT FOR UPPER BOUND ON GAMDV ITERATOR      DP      B30/B28 METERS
001248:                                                                                                  #      PHI2              REENTRY NEAR PERIGEE OR APOGEE INDICATE (RTE ONLY)      DP       B2     -1 PERIGEE, +1 APOGEE
001249:                                                                                                  #      N1                CONIC OR PRECISION ITERATION COUNTER                    DP      B28     NEGATIVE CONIC, PLUS PREC
001250:
001251:                                                                                                  #  OUTPUT
001252:                                                                                                  #    V2(T1)/             POST IMPULSE INITIAL VELOCITY VECTOR                    VECTOR  B7/B5   METERS/CS
001253:                                                                                                  #    DV                  INITIAL VELOCITY CHANGE                                 DP      B7/B5   METERS/CS
001254:                                                                                                  #    X(T1)               COTANGENT OF INITIAL FLIGHT PATH ANGLE (POST IMPULSE)   DP      B5
001255:                                                                                                  #    PCON                SEMI-LATUS RECTUM                                       DP      B28/B26 METERS
001256:                                                                                                  #    BETA1               1+X(T2)**2                                              DP      B1
001257:


001259:                                                                                                  #  DEBRIS
001260:                                                                                                  #    PUSHLIST
001261:                                                                                                  #      00D               X(T1),,=PREVIOUS PRECISION X(T1)                        DP      B5
001262:                                                                                                  #      02D               THETA1=BETA5*LAMBDA-1                                   TP      B17
001263:                                                                                                  #      05D               THETA2=2*R(T1)*(LAMBDA-1)                               TP      B38/B36
001264:                                                                                                  #      08D               THETA3=MU**.5/R(T1)                                     DP      B-4/B-5
001265:                                                                                                  #      10D               X(T1)MIN=LOWER BOUND ON X(T1) IN GAMDV ITERATOR         DP      B5
001266:                                                                                                  #      12D               DX(T1)MAX=MAXIMUM DELTA X(T1)                           DP      B5
001267:                                                                                                  #      14D               X(T1)MAX=UPPER BOUND ON X(T1) IN GAMDV ITERATOR         DP      B5
001268:                                                                                                  #      16D               DX(T1)=ITERATOR INCREMENT                               DP      B5
001269:                                                                                                  #      31D               GAMDV10 SUBROUTINE RETURN ADDRESS
001270:                                                                                                  #      32D               DVCALC SUBROUTINE RETURN ADDRESS
001271:                                                                                                  #      33D               V2T100 SUBROUTINE RETURN ADDRESS
001272:
001273: 32,3102           71220        V2T100             STQ      DLOAD
001274: 32,3103           00041                                    33D
001275: 32,3104           03636                                    RCON
001276: 32,3105           45240                           BMN      DSU                                   #  ABORT IF RCON NEGATIVE
001277: 32,3106           65112                                    V2TERROR
001278: 32,3107           03646                                    R(T1)
001279: 32,3110           77640                           BMN
001280: 32,3111           65115                                    V2T101
001281: 32,3112           77776        V2TERROR           EXIT                                           #     OR IF LAMBDA LESS THAN ONE
001282: 32,3113           05726                           TC       POODOO                                #  NO SOLUTION IF LAMBDA LESS THAN 1


001284: 32,3114           20610                           OCT      20610
001285:
001286: 32,3115           43001        V2T101             SETPD    CLEAR
001287: 32,3116           00001                                    0                                     #                                    PL00D
001288: 32,3117           00272                                    F2RTE
001289: 32,3120           60345                           DLOAD    NORM
001290: 32,3121           03636                                    RCON
001291: 32,3122           00047                                    X1
001292: 32,3123           60325                           PDDL     NORM
001293: 32,3124           03646                                    R(T1)
001294: 32,3125           00051                                    S1
001295: 32,3126           00013                           STORE    10D
001296: 32,3127           56342                           SR1      DDV                                   #  R1/RCON = LAMBDA               B1
001297: 32,3130           65260                           XSU,1    PDDL                                  #                                    PL02D
001298: 32,3131           00050                                    S1
001299: 32,3132           03726                                    X(T2)
001300: 32,3133           77716                           DSQ
001301: 32,3134           43342                           SR1      DAD
001302: 32,3135           15334                                    1RTEB1
001303: 32,3136           03744                           STORE    BETA1                                 #  1+X(T2)**2 = BETA1             B1
001304: 32,3137           77605                           DMP
001305: 32,3140           00001                                    00D
001306: 32,3141           00035                           STORE    28D                                   #  BETAI*LAMBDA = BETA5
001307: 32,3142           53605                           DMP      SL*
001308: 32,3143           00001                                    00D
001309: 32,3144           20172                                    0          -7,1


001311: 32,3145           45257                           SL*      DSU
001312: 32,3146           20172                                    0          -7,1
001313: 32,3147           33574                                    1RTEB17
001314: 32,3150           65234                           RTB      PDDL                                  #  BETA5*LAMBDA-1 = THETA1       B17 PL05D
001315: 32,3151           45657                                    TPMODE
001316: 32,3152           15334                                    1RTEB1
001317: 32,3153           57457                           SR*      DCOMP
001318: 32,3154           20601                                    0,1
001319: 32,3155           41215                           DAD      DMP
001320: 32,3156           00001                                    00D
001321: 32,3157           03646                                    R(T1)
001322: 32,3160           47057                           SL*      RTB
001323: 32,3161           20172                                    0          -7D,1
001324: 32,3162           45657                                    TPMODE
001325: 32,3163           77725                           PDDL                                           #  2*R(T1)*(LAMBDA-1)=THETA2 B38/B36 PL08D
001326: 32,3164           33674                                    RTMURTE
001327: 32,3165           70501                           NORM     SR1
001328: 32,3166           00050                                    X2
001329: 32,3167           56264                           XSU,2    DDV
001330: 32,3170           00050                                    S1
001331: 32,3171           00013                                    10D
001332: 32,3172           65257                           SR*      PDDL                                  #  MU**.5/R(T1)=THETA3       B-4/B-5 PL10D
001333: 32,3173           57170                                    6,2
001334: 32,3174           03652                                    MAMAX1
001335: 32,3175           41406                           PUSH     PUSH                                  #  MAMAX1=MA
001336: 32,3176           77624                           CALL
001337: 32,3177           65741                                    XT1LIM
001338: 32,3200           41476                           DCOMP    PUSH                                  #  X(T1)MIN                       B5 PL12D
001339: 32,3201           40476                           DCOMP    SR4
001340: 32,3202           41525                           PDDL     PUSH                                  #  DX(T1)MAX                      B5 PL14D
001341: 32,3203           03654                                    MAMAX2
001342: 32,3204           45006                           PUSH     CALL
001343: 32,3205           65741                                    XT1LIM
001344: 32,3206           50125                           PDDL     BMN                                   #  X(T1)MAX                       B5 PL16D
001345: 32,3207           03730                                    NN1A
001346: 32,3210           65213                                    V2T102
001347: 32,3211           77650                           GOTO
001348: 32,3212           65225                                    V2T110
001349:
001350:                                                                                                  #  PROCEED HERE IF NOT PRECISION COMPUTATION
001351:
001352: 32,3213           77745        V2T102             DLOAD
001353: 32,3214           03632                                    RTEDVD
001354: 32,3215           52054                           BZE      GOTO
001355: 32,3216           65220                                    V2T105
001356: 32,3217           65321                                    V2T140
001357: 32,3220           50145        V2T105             DLOAD    BMN
001358: 32,3221           03747                                    CFPA
001359: 32,3222           65321                                    V2T140
001360: 32,3223           77650                           GOTO


001362: 32,3224           65327                                    V2T145
001363:
001364:                                                                                                  #  DURING A PRECISION TRAJECTORY ITERATION CONSTRAIN THE INDEPENDENT
001365:                                                                                                  #  VARIABLE TO INSURE THAT ALL CONICS PASS THROUGH RCON ON THE SAME PASS
001366:                                                                                                  #  THROUGH X(T2)
001367:
001368: 32,3225           47145        V2T110             DLOAD    RTB
001369: 32,3226           33574                                    1RTEB17
001370: 32,3227           45657                                    TPMODE
001371: 32,3230           65276                           DCOMP    PDDL                                  #  -1                            B17 PL19D
001372: 32,3231           15344                                    2RTEB1
001373: 32,3232           45257                           SR*      DSU
001374: 32,3233           20601                                    0,1
001375: 32,3234           00001                                    00D
001376: 32,3235           53605                           DMP      SL*
001377: 32,3236           00035                                    28D
001378: 32,3237           20172                                    0          -7,1
001379: 32,3240           76257                           SL*      TAD
001380: 32,3241           20172                                    0          -7,1
001381: 32,3242           65234                           RTB      PDDL                                  #  BETA5(2-LAMBDA)-1=BETA6       B17 PL19D
001382: 32,3243           45657                                    TPMODE
001383: 32,3244           03722                                    X(T1)
001384: 32,3245           00001                           STORE    00D                                   #  X(T1),,                        B5
001385: 32,3246           77751                           TLOAD                                          #                                    PL16D
001386: 32,3247           53040                           BMN      BZE
001387: 32,3250           65255                                    V2T115
001388: 32,3251           65255                                    V2T115
001389: 32,3252           52061                           SL       GOTO
001390: 32,3253           20210                                    7
001391: 32,3254           65266                                    V2T120
001392: 32,3255           50145        V2T115             DLOAD    BMN
001393: 32,3256           03751                                    PHI2
001394: 32,3257           65277                                    V2T125
001395: 32,3260           77676                           DCOMP
001396: 32,3261           17751                           STODL    PHI2
001397: 32,3262           33606                                    10RTE
001398: 32,3263           03730                           STORE    NN1A
001399: 32,3264           77650                           GOTO
001400: 32,3265           65277                                    V2T125
001401: 32,3266           47166        V2T120             SQRT     RTB
001402: 32,3267           45765                                    DPMODE
001403: 32,3270           50125                           PDDL     BMN                                   #  BETA6**.5=X(T1)LIM             B5 PL18D
001404: 32,3271           03751                                    PHI2
001405: 32,3272           65305                                    V2T130
001406: 32,3273           45545                           DLOAD    STADR                                 #                                    PL16D
001407: 32,3274           77760                           STORE    14D                                   #  X(T1)LIM = X(T1)MAX
001408: 32,3275           77676                           DCOMP
001409: 32,3276           00013                           STORE    10D                                   #  -X(T1)LIM = X(T1)MIN
001410: 32,3277           53145        V2T125             DLOAD    BZE
001411: 32,3300           03722                                    X(T1)


001413: 32,3301           65321                                    V2T140
001414: 32,3302           52040                           BMN      GOTO
001415: 32,3303           65321                                    V2T140
001416: 32,3304           65327                                    V2T145
001417: 32,3305           53145        V2T130             DLOAD    BZE
001418: 32,3306           03722                                    X(T1)
001419: 32,3307           65316                                    V2T135
001420: 32,3310           71240                           BMN      DLOAD                                 #                                    PL16D
001421: 32,3311           65316                                    V2T135
001422: 32,3312           77626                           STADR
001423: 32,3313           77764                           STORE    10D                                   #  X(T1)LIM = X(T1)MIN
001424: 32,3314           77650                           GOTO
001425: 32,3315           65327                                    V2T145
001426: 32,3316           57545        V2T135             DLOAD    DCOMP                                 #                                    PL16D
001427: 32,3317           77626                           STADR
001428: 32,3320           77760                           STORE    14D                                   #  -X(T1)LIM = X(T1)MAX
001429: 32,3321           77745        V2T140             DLOAD
001430: 32,3322           00013                                    10D
001431: 32,3323           17722                           STODL    X(T1)                                 #  X(T1)MIN = X(T1)
001432: 32,3324           00015                                    12D
001433: 32,3325           52006                           PUSH     GOTO                                  #  DX(T1)MAX = DX(T1)                PL18D
001434: 32,3326           65334                                    V2T150
001435: 32,3327           77745        V2T145             DLOAD
001436: 32,3330           00017                                    14D
001437: 32,3331           17722                           STODL    X(T1)                                 #  X(T1)MAX = X(T1)
001438: 32,3332           00015                                    12D
001439: 32,3333           41476                           DCOMP    PUSH                                  #  -DX(T1)MAX = DX(T1)               PL18D
001440: 32,3334           77624        V2T150             CALL                                           #  GOTO X(T1)-DV ITERATOR
001441: 32,3335           65464                                    GAMDV10
001442: 32,3336           53145                           DLOAD    BZE                                   #  EXIT IF MINIMUM FUEL MODE
001443: 32,3337           03632                                    RTEDVD
001444: 32,3340           65462                                    V2T1X
001445:
001446:                                                                                                  #  CONTINUE IF TIME CRITICAL MODE
001447:
001448: 32,3341           50025                           DSU      BMN
001449: 32,3342           03706                                    DV
001450: 32,3343           65346                                    V2T155
001451: 32,3344           77650                           GOTO
001452: 32,3345           65401                                    V2T175
001453: 32,3346           50145        V2T155             DLOAD    BMN
001454: 32,3347           03730                                    NN1A
001455: 32,3350           65353                                    V2T160
001456: 32,3351           77650                           GOTO
001457: 32,3352           65423                                    V2T185
001458:
001459:                                                                                                  #  CONIC TRAJECTORY COMPUTATION
001460:
001461: 32,3353           53145        V2T160             DLOAD    BZE
001462: 32,3354           03722                                    X(T1)


001464: 32,3355           65361                                    V2T165
001465: 32,3356           52040                           BMN      GOTO
001466: 32,3357           65361                                    V2T165
001467: 32,3360           65460                                    V2T300
001468: 32,3361           53145        V2T165             DLOAD    BZE
001469: 32,3362           03747                                    CFPA
001470: 32,3363           65460                                    V2T300
001471: 32,3364           71240                           BMN      DLOAD
001472: 32,3365           65460                                    V2T300
001473: 32,3366           00017                                    14D
001474: 32,3367           17722                           STODL    X(T1)                                 #  X(T1)MAX=X(T1)
001475: 32,3370           00015                                    12D
001476: 32,3371           77676                           DCOMP
001477: 32,3372           34021                           STCALL   16D                                   #  -DX(T1)MAX=DX(T1)
001478: 32,3373           65464                                    GAMDV10
001479: 32,3374           45345                           DLOAD    DSU
001480: 32,3375           03632                                    RTEDVD
001481: 32,3376           03706                                    DV
001482: 32,3377           77640                           BMN
001483: 32,3400           65460                                    V2T300
001484: 32,3401           71214        V2T175             SET      DLOAD
001485: 32,3402           00072                                    F2RTE
001486: 32,3403           03722                                    X(T1)
001487: 32,3404           77614                           BOFF
001488: 32,3405           02742                                    SLOWFLG
001489: 32,3406           65413                                    V2T177
001490: 32,3407           14013                           STODL    10D                                   #   X(T1)MIN
001491: 32,3410           00015                                    12D                                   #  DX(T1)MAX
001492: 32,3411           77650                           GOTO
001493: 32,3412           65416                                    V2T179
001494: 32,3413           14017        V2T177             STODL    14D
001495: 32,3414           00015                                    12D
001496: 32,3415           77676                           DCOMP
001497: 32,3416           34021        V2T179             STCALL   16D                                   #  DX(T1)
001498: 32,3417           65464                                    GAMDV10
001499: 32,3420           50145                           DLOAD    BMN
001500: 32,3421           03730                                    NN1A
001501: 32,3422           65460                                    V2T300
001502:
001503:                                                                                                  #  PREVENT A LARGE CHANGE IN INDEPENDENT VARIABLE DURING AN ITERATION FOR A
001504:                                                                                                  #  PRECISION TRAJECTORY
001505:
001506: 32,3423           45345        V2T185             DLOAD    DSU
001507: 32,3424           03722                                    X(T1)
001508: 32,3425           00001                                    00D
001509: 32,3426           65246                           ABS      PDDL                                  #  /X(T1)-X(T1),,/ = BETA7
001510: 32,3427           00015                                    12D
001511: 32,3430           44352                           SL1      BDSU
001512: 32,3431           71240                           BMN      DLOAD
001513: 32,3432           65460                                    V2T300


001515: 32,3433           00001                                    00D                                   #  CONTINUE IF BETA7 LARGER THAN 2DX(T1)MAX
001516: 32,3434           03722                           STORE    X(T1)                                 #  X(T1),, = X(T1)
001517: 32,3435           50025                           DSU      BMN
001518: 32,3436           00017                                    14D
001519: 32,3437           65445                                    V2T195
001520: 32,3440           77745                           DLOAD
001521: 32,3441           00017                                    14D
001522: 32,3442           03722                           STORE    X(T1)                                 #  X(T1)MAX = X(T1)
001523: 32,3443           77650                           GOTO
001524: 32,3444           65456                                    V2T205
001525: 32,3445           45345        V2T195             DLOAD    DSU
001526: 32,3446           03722                                    X(T1)
001527: 32,3447           00013                                    10D
001528: 32,3450           52040                           BMN      GOTO
001529: 32,3451           65453                                    V2T200
001530: 32,3452           65456                                    V2T205
001531: 32,3453           77745        V2T200             DLOAD
001532: 32,3454           00013                                    10D
001533: 32,3455           03722                           STORE    X(T1)                                 #  X(T1)MIN = X(T1)
001534: 32,3456           77624        V2T205             CALL
001535: 32,3457           65665                                    DVCALC
001536: 32,3460           77745        V2T300             DLOAD
001537: 32,3461           15330                                    ZERORTE
001538: 32,3462           77650        V2T1X              GOTO
001539: 32,3463           00041                                    33D
001540:


001542:                                                                                                  #  X(T1)-DV ITERATOR SUBROUTINE
001543:
001544:                                                                                                  #  DESCRIPTION
001545:                                                                                                  #        COMPUTES A POST IMPULSE VELOCITY VECTOR (V2(T1)) WHICH REQUIRES A MINIMUM DV.
001546:
001547:                                                                                                  #  CALLING SEQUENCE
001548:                                                                                                  #    L   CALL
001549:                                                                                                  #    L+1         GAMDV10
001550:
001551:                                                                                                  #  NORMAL EXIT MODE
001552:                                                                                                  #    AT L+2 OF CALLING SEQUENCE
001553:
001554:                                                                                                  #  ALARM EXIT MODE
001555:                                                                                                  #    AT V2T1X WITH MPAC = OCTAL 605 FOR EXCESS ITERATIONS
001556:
001557:                                                                                                  #  SUBROUTINES CALLED
001558:                                                                                                  #    DVCALC
001559:
001560:                                                                                                  #  ERASABLE INITIALIZATION REQUIRED
001561:                                                                                                  #    PUSHLIST
001562:                                                                                                  #      02D               THETA1=BETA5*LAMBDA-1                                   TP      B17
001563:                                                                                                  #      05D               THETA2=2*R(T1)*(LAMBDA-1)                               TP      B38/B36
001564:                                                                                                  #      08D               THETA3=MU**.5/R(T1)                                     DP      B-4/B-5
001565:                                                                                                  #      10D               X(T1)MIN=LOWER BOUND ON INDEPENDENT VARIABLE X(T1)      DP      B5
001566:                                                                                                  #      12D               DX(T1)MAX=MAXIMUM DX(T1)                                DP      B5
001567:                                                                                                  #      14D               X(T1)MAX=UPPER BOUND ON INDEPENDENT VARIABLE X(T1)      DP      B5
001568:                                                                                                  #      16D               DX(T1)=ITERATOR INCREMENT                               DP      B5
001569:                                                                                                  #    MPAC
001570:                                                                                                  #      NONE
001571:                                                                                                  #    OTHER
001572:                                                                                                  #      V(T1)/            INITIAL VELOCITY VECTOR                                 VECTOR  B7/B5   METERS/CS
001573:                                                                                                  #      RTEDVD            DELTA VELOCITY DESIRED                                  DP      B7/B5   METERS/CS
001574:                                                                                                  #      UR1/              UNIT INITIAL VECTOR                                     VECTOR  B1
001575:                                                                                                  #      UH/               UNIT HORIZONTAL VECTOR                                  VECTOR  B1
001576:                                                                                                  #      X(T1)             COTANGENT OF INITIAL FLIGHT PATH ANGLE (FROM VERTICAL)  DP      B5
001577:                                                                                                  #      F2RTE             TIME CRITICAL OR MINIMUM FUEL MODE INDICATOR            STATE AREA      0 MIN. FUEL, 1 MIN. TIME
001578:
001579:                                                                                                  #  OUTPUT
001580:                                                                                                  #      V2(T1)/           POST IMPULSE INITIAL VELOCITY VECTOR                    VECTOR  B7/B5   METERS/CS
001581:                                                                                                  #      DV                INITIAL VELOCITY CHANGE                                 DP      B7/B5   METERS/CS
001582:                                                                                                  #      X(T1)             COTANGENT OF INITIAL FPA MEASURED FROM VERTICAL         DP      B5
001583:                                                                                                  #      PCON              SEMI-LATUS RECTUM                                       DP      B28/B26 METERS
001584:
001585:                                                                                                  #  DEBRIS
001586:                                                                                                  #    PUSHLIST
001587:                                                                                                  #      00D               X(T1),,
001588:                                                                                                  #      02D               THETA1
001589:                                                                                                  #      05D               THETA2
001590:                                                                                                  #      08D               THETA3
001591:                                                                                                  #      10D               X(T1)MIN
001592:                                                                                                  #      12D               DX(T1)MAX


001594:                                                                                                  #      14D               X(T1)MAX
001595:                                                                                                  #      16D               DX(T1)
001596:                                                                                                  #      22D               DV,=PREVIOUS DV                                         DP      B7/B5
001597:                                                                                                  #      24D               BETA9=X(T1)+1.1DX(T1)                                   DP      B5
001598:                                                                                                  #      31D               GAMDV10 SUBROUTINE RETURN ADDRESS
001599:                                                                                                  #      32D               DVCALC SUBROUTINE RETURN ADDRESS
001600:                                                                                                  #      33D               V2T100 SUBROUTINE RETURN ADDRESS
001601:
001602: 32,3464           77620        GAMDV10            STQ
001603: 32,3465           00037                                    31D
001604: 32,3466           45001                           SETPD    CALL
001605: 32,3467           00023                                    18D                                   #                                    PL18D
001606: 32,3470           65665                                    DVCALC
001607: 32,3471           45345                           DLOAD    DSU
001608: 32,3472           00017                                    14D
001609: 32,3473           00013                                    10D
001610: 32,3474           77600                           BOV
001611: 32,3475           65515                                    GAMDV20
001612: 32,3476           45206                           PUSH     DSU                                   #  X(T1)MAX-X(T1)MIN=BETA8        B5 PL20D
001613: 32,3477           33576                                    EPC9RTE
001614: 32,3500           71240                           BMN      DLOAD
001615: 32,3501           65663                                    GAMDVX                                #  BOUNDS CLOSE TOGETHER
001616: 32,3502           00023                                    18D
001617: 32,3503           50025                           DSU      BMN                                   #  BETA8-DX(T1)MAX
001618: 32,3504           00015                                    12D
001619: 32,3505           65511                                    GAMDV15
001620: 32,3506           52001                           SETPD    GOTO                                  #                                    PL18D
001621: 32,3507           00023                                    18D
001622: 32,3510           65515                                    GAMDV20
001623: 32,3511           77745        GAMDV15            DLOAD                                          #                                    PL18D
001624: 32,3512           70565                           SIGN     SR1
001625: 32,3513           00021                                    16D
001626: 32,3514           00021                           STORE    16D                                   #  BETA8(SIGNDX(T1))/2=DX(T1)
001627: 32,3515           77745        GAMDV20            DLOAD
001628: 32,3516           33602                                    M144RTE
001629: 32,3517           03546                           STORE    NN2
001630: 32,3520           43345        GAMDV25            DLOAD    DAD
001631: 32,3521           03546                                    NN2
001632: 32,3522           33600                                    1RTEB28
001633: 32,3523           67240                           BMN      SLOAD
001634: 32,3524           65530                                    GAMDV30
001635: 32,3525           33630                                    OCT605
001636: 32,3526           77650                           GOTO
001637: 32,3527           65462                                    V2T1X
001638: 32,3530           03546        GAMDV30            STORE    NN2                                   #  NN2=NN2+1
001639: 32,3531           65345                           DLOAD    PDDL                                  #  X(T1)=X(T1),                   B5 PL20D
001640: 32,3532           03722                                    X(T1)
001641: 32,3533           03706                                    DV
001642: 32,3534           43325                           PDDL     DAD                                   #  DV=DV,                      B7/B5 PL22D
001643: 32,3535           03722                                    X(T1)
001644: 32,3536           00021                                    16D


001646: 32,3537           37722                           STCALL   X(T1)                                 #  X(T1)+DX(T1)=X(T1)             B5
001647: 32,3540           65665                                    DVCALC
001648: 32,3541           71214                           BON      DLOAD
001649: 32,3542           00312                                    F2RTE
001650: 32,3543           65557                                    GAMDV35
001651: 32,3544           03706                                    DV
001652: 32,3545           50025                           DSU      BMN                                   #  CONTINUE IF FUEL CRITICAL MODE
001653: 32,3546           00025                                    20D
001654: 32,3547           65554                                    GAMDV33
001655: 32,3550           57545        GAMDV32            DLOAD    DCOMP
001656: 32,3551           00021                                    16D
001657: 32,3552           77742                           SR1
001658: 32,3553           00021                           STORE    16D
001659: 32,3554           52001        GAMDV33            SETPD    GOTO
001660: 32,3555           00023                                    18D                                   #                                    PL18D
001661: 32,3556           65622                                    GAMDV50
001662:
001663:                                                                                                  #  TIME CRITICAL MODE
001664:
001665: 32,3557           45345        GAMDV35            DLOAD    DSU
001666: 32,3560           03632                                    RTEDVD
001667: 32,3561           03706                                    DV
001668: 32,3562           41525                           PDDL     PUSH                                  #  DVD-DV=DVERR                B7/B5 PL22D
001669: 32,3563           51545        GAMDV40            DLOAD    ABS                                   #  DV,                               PL24D
001670: 32,3564           00025                                    20D
001671: 32,3565           50025                           DSU      BMN
001672: 32,3566           33660                                    EPC10RTE
001673: 32,3567           65663                                    GAMDVX
001674: 32,3570           71204        GAMDV45            BOVB     DLOAD
001675: 32,3571           57544                                    TCDANZIG                              #  ASSURE OVFIND IS 0
001676: 32,3572           60221                           BDSU     NORM
001677: 32,3573           03706                                    DV
001678: 32,3574           00050                                    X2
001679: 32,3575           77725                           PDDL                                           #  DV-DV,                   B7/B5-N2 PL22D
001680: 32,3576           70501                           NORM     SR1                                   #  DVERR                   B8/B6-N1
001681: 32,3577           00047                                    X1
001682: 32,3600           65271                           DDV      PDDL                                  #  DVERR/ DV - DV
001683: 32,3601           41221                           BDSU     DMP                                   #                                    PL18D
001684: 32,3602           03722                                    X(T1)
001685: 32,3603           77660                           XSU,1
001686: 32,3604           00047                                    X2
001687: 32,3605           00021                           STORE    16D                                   #  PRESERVE SIGN IF OVERFLOW
001688: 32,3606           40057                           SR*      BOV
001689: 32,3607           20600                                    0          -1,1
001690: 32,3610           65616                                    GAMDV47
001691: 32,3611           00021                           STORE    16D                                   #  (X(T1)-X(T1),)DVERR/(DV-DV,)=DX(T1)
001692: 32,3612           45246                           ABS      DSU
001693: 32,3613           00015                                    12D
001694: 32,3614           77640                           BMN
001695: 32,3615           65622                                    GAMDV50


001697: 32,3616           75345        GAMDV47            DLOAD    SIGN
001698: 32,3617           00015                                    12D
001699: 32,3620           00021                                    16D
001700: 32,3621           00021                           STORE    16D                                   #  DX(T1)MAX(SIGNDX(T1))=DX(T1)
001701:
001702:                                                                                                  #  CHECK TO KEEP INDEPENDENT VARIABLE IN BOUNDS
001703:
001704: 32,3622           41345        GAMDV50            DLOAD    DMP
001705: 32,3623           00021                                    16D
001706: 32,3624           33612                                    1.1RTEB1
001707: 32,3625           43352                           SL1      DAD
001708: 32,3626           03722                                    X(T1)
001709: 32,3627           00031                           STORE    24D                                   #  X(T1)+1.1DX(T1)=BETA9          B5
001710: 32,3630           50025                           DSU      BMN
001711: 32,3631           00017                                    14D
001712: 32,3632           65641                                    GAMDV55
001713: 32,3633           45345                           DLOAD    DSU
001714: 32,3634           00017                                    14D
001715: 32,3635           03722                                    X(T1)
001716: 32,3636           77742                           SR1
001717: 32,3637           34021                           STCALL   16D                                   #  (X(T1)MAX-X(T1))/2=DX(T1)      B5
001718: 32,3640           65654                                    GAMDV65
001719: 32,3641           45345        GAMDV55            DLOAD    DSU
001720: 32,3642           00031                                    24D
001721: 32,3643           00013                                    10D
001722: 32,3644           52040                           BMN      GOTO
001723: 32,3645           65647                                    GAMDV60
001724: 32,3646           65654                                    GAMDV65
001725: 32,3647           45345        GAMDV60            DLOAD    DSU
001726: 32,3650           00013                                    10D
001727: 32,3651           03722                                    X(T1)
001728: 32,3652           77742                           SR1
001729: 32,3653           00021                           STORE    16D                                   #  (X(T1)MIN-X(T1))/2=DX(T1)      B5
001730: 32,3654           51545        GAMDV65            DLOAD    ABS
001731: 32,3655           00021                                    16D
001732: 32,3656           50025                           DSU      BMN
001733: 32,3657           33576                                    EPC9RTE
001734: 32,3660           65663                                    GAMDVX
001735: 32,3661           77650                           GOTO
001736: 32,3662           65520                                    GAMDV25
001737: 32,3663           77650        GAMDVX             GOTO
001738: 32,3664           00037                                    31D
001739:


001741:                                                                                                  #  DV CALCULATION SUBROUTINE
001742:
001743:                                                                                                  #  INPUT
001744:                                                                                                  #    PUSHLIST
001745:                                                                                                  #      02D               THETA1=BETA5*LAMBDA-1                                   TP      B17
001746:                                                                                                  #      05D               THETA2=2*R(T1)*(LAMBDA-1)                               TP      B38/B36
001747:                                                                                                  #      08D               THETA3=MU**.5/R(T1)                                     DP      B-4/B-5
001748:                                                                                                  #    OTHER
001749:                                                                                                  #      X(T1)             COTANGENT OF POST IMPULSE INITIAL FLIGHT PATH ANGLE     DP      B5
001750:                                                                                                  #      V(T1)/            INITIAL VELOCITY VECTOR (PRE IMPULSE)                   VECTOR  B7/B5   METERS/CS
001751:                                                                                                  #      UR1/              UNIT INITIAL VECTOR                                     VECTOR  B1
001752:                                                                                                  #      UH/               UNIT HORIZONTAL VECTOR                                  VECTOR  B1
001753:
001754:                                                                                                  #  OUTPUT
001755:                                                                                                  #      V2(T1)/           POST IMPULSE INITIAL VELOCITY VECTOR                    VECTOR  B7/B5   METERS/CS
001756:                                                                                                  #      DV                INITIAL VELOCITY CHANGE                                 DP      B7/B5   METERS/CS
001757:                                                                                                  #      PCON              SEMI-LATUS RECTUM                                       DP      B28/B26 METERS
001758:
001759:                                                                                                  #  DEBRIS
001760:                                                                                                  #      28D               THETA3*PCON**.5                                         DP      B10/B8-N1
001761:                                                                                                  #      C(PUSLOC)         THETA3(PCON**.5)*X(T1)*UR1/                             VECTOR  B7/B5
001762:                                                                                                  #      32D               DVCALC SUBROUTINE RETURN ADDRESS
001763:                                                                                                  #      X1                NORMALIZATION FACTOR FOR VALUE IN 28D
001764:
001765:                                                                                                  #  PUSHLOC IS RESTORED TO ITS ENTRANCE VALUE UPON EXITING DVCALC
001766:
001767: 32,3665           71220        DVCALC             STQ      DLOAD
001768: 32,3666           00040                                    32D
001769: 32,3667           03722                                    X(T1)
001770: 32,3670           54316                           DSQ      SR
001771: 32,3671           20610                                    7
001772: 32,3672           76276                           DCOMP    TAD
001773: 32,3673           00003                                    02D
001774: 32,3674           41501                           NORM     PUSH
001775: 32,3675           00047                                    X1
001776: 32,3676           60351                           TLOAD    NORM
001777: 32,3677           00006                                    05D
001778: 32,3700           00050                                    X2
001779: 32,3701           70434                           RTB      SR1
001780: 32,3702           45765                                    DPMODE
001781: 32,3703           56264                           XSU,2    DDV
001782: 32,3704           00046                                    X1
001783: 32,3705           77657                           SR*
001784: 32,3706           57170                                    6,2
001785: 32,3707           03720                           STORE    PCON                                  #  THETA2/(THETA1-X(T1)**2)=PCON B28/26
001786: 32,3710           41366                           SQRT     DMP
001787: 32,3711           00011                                    08D
001788: 32,3712           77701                           NORM
001789: 32,3713           00047                                    X1
001790: 32,3714           14035                           STODL    28D                                   #  THETA3*PCON**.5        B10/B8 -N1


001792: 32,3715           03722                                    X(T1)
001793: 32,3716           74301                           NORM     VXSC
001794: 32,3717           00050                                    X2
001795: 32,3720           03554                                    UR1/                                  #  X(T1)*UR1/              B5+B1 -N2
001796: 32,3721           74274                           XAD,2    VXSC
001797: 32,3722           00046                                    X1
001798: 32,3723           00035                                    28D
001799: 32,3724           63257                           VSR*     PDVL                                  #  THETA3(PCON**.5)X(T1)*UR1/  B7/B5
001800: 32,3725           57207                                    0          -9D,2                      #             +
001801: 32,3726           03562                                    UH/
001802: 32,3727           53761                           VXSC     VSR*                                  #  THETA3(PCON**.5)UH/         B7/B5
001803: 32,3730           00035                                    28D
001804: 32,3731           20575                                    0          -4,1                       #             =
001805: 32,3732           45455                           VAD      STADR
001806: 32,3733           74077                           STORE    V2(T1)/                               #  V2(T1)/                     B7/B5
001807: 32,3734           51451                           VSU      ABVAL
001808: 32,3735           03672                                    V(T1)/
001809: 32,3736           03706                           STORE    DV                                    #  ABVAL(V2(T1)/-V1(T)/)=DV    B7/B5
001810: 32,3737           77650                           GOTO
001811: 32,3740           00040                                    32D
001812:


001814:                                                                                                  #  SUBROUTINE TO COMPUTE BOUNDS ON INDEPENDENT VARIABLE X(T1)
001815:
001816:                                                                                                  #  INPUT
001817:                                                                                                  #    PUSHLIST
001818:                                                                                                  #      PUSHLOC -4        MAJOR AXIS (MA)                                         DP      B30/B28
001819:                                                                                                  #      PUSHLOC -2        MAJOR AXIS (MA) AGAIN                                   DP      B30/B28
001820:                                                                                                  #      28D               BETA5=LAMBDA*BETA1                                      DP      B9
001821:                                                                                                  #    OTHER
001822:                                                                                                  #      RCON                                                                      DP      B29/B27
001823:                                                                                                  #      R(T1)                                                                     DP      B29/B27
001824:
001825:                                                                                                  #  OUTPUT
001826:                                                                                                  #    MPAC
001827:                                                                                                  #      X(T1)LIM          LIMIT ON INDEPENDENT VARIABLE X(T1)                     DP      B5
001828:
001829:                                                                                                  #  DEBRIS
001830:                                                                                                  #    PUSHLIST
001831:                                                                                                  #      C(PUSHLOC)        MA-RCON                                                 DP      (B30/28)-N1
001832:                                                                                                  #      C(PSHLOC)+2       MA                                                      DP      B30/B28
001833:                                                                                                  #      X1                NORMALIZATION FACTOR FOR MA-RCON
001834:                                                                                                  #      20D               XT1LIM SUBROUTINE RETURN ADDRESS
001835:                                                                                                  #  PUSHLOC IS RESTORED TO ITS ENTRANCE VALUE UPON EXITING XT1LIM
001836:
001837: 32,3741           71220        XT1LIM             STQ      DLOAD
001838: 32,3742           00024                                    20D
001839: 32,3743           03636                                    RCON
001840: 32,3744           44342                           SR1      BDSU
001841: 32,3745           65301                           NORM     PDDL                                  #  MA-RCON                    B30-N1
001842: 32,3746           00050                                    X2
001843: 32,3747           70525                           PDDL     SR1
001844: 32,3750           03646                                    R(T1)
001845: 32,3751           56221                           BDSU     DDV
001846: 32,3752           41257                           SL*      DMP
001847: 32,3753           57601                                    0          -3,2
001848: 32,3754           00035                                    28D
001849: 32,3755           45257                           SL*      DSU                                   #  BETA10=BETA5(MA-RT)/(MA-RC)-1 B11
001850: 32,3756           20173                                    0          -6,1
001851: 32,3757           33577                                    1RTEB25    +1                         #  1.0 B-11
001852: 32,3760           40152                           SL1      BOV                                   #                                B10
001853: 32,3761           65765                                    XT1LIM2
001854: 32,3762           52040                           BMN      GOTO
001855: 32,3763           65771                                    XT1LIM5
001856: 32,3764           65767                                    XT1LIM3
001857: 32,3765           77745        XT1LIM2            DLOAD                                          #  BETA10=POSMAX IF OVERFLOW
001858: 32,3766           15344                                    2RTEB1
001859: 32,3767           52166        XT1LIM3            SQRT     GOTO                                  #  X(T1)=SQRT(BETA10)             B5
001860: 32,3770           65773                                    XT1LIMX
001861: 32,3771           77745        XT1LIM5            DLOAD
001862: 32,3772           15330                                    ZERORTE
001863: 32,3773           77650        XT1LIMX            GOTO
001864: 32,3774           00024                                    20D
001865:


001867:                                                                                                  #  CONSTANTS FOR THE P37 AND P70 PROGRAMS AND SUBROUTINES
001868:
001869: 35,2000                                           SETLOC   RTECON1
001870: 35,2000                                           BANK
001871:
001872: 35,3571                                           COUNT*   $$/P37
001873: 35,3571  26,3333               1RTEB1             =        UNITX
001874: 35,3571  26,3325               1RTEB2             =        DP1/4TH
001875: 35,3571  34,3766               1RTEB3             =        DP2(-3)
001876: 35,3571  34,3770               1RTEB4             =        DP2(-4)
001877: 35,3571           00002 00000  1RTEB13            2DEC     1.         B-13
001878: 35,3573           00000 04000  1RTEB17            2DEC     1.         B-17
001879: 35,3575           00000 00010  1RTEB25            2DEC     1.         B-25
001880:                                                                                                  #  * * B25 AND B28 MUST BE CONSECUTIVE * *
001881: 35,3577           00000 00001  1RTEB28            2DEC     1.         B-28
001882: 35,3601  26,3327               ZERORTE            =        UNITZ
001883: 35,3601           77777 77557  M144RTE            2DEC     -144.      B-28
001884: 35,3603           77777 77760  M15RTE             2DEC     -15        B-28
001885: 35,3605           00000 00012  10RTE              2DEC     10         B-28
001886: 35,3607           54631 63145  M.6RTE             2DEC     -.6
001887: 35,3611           21463 06315  1.1RTEB1           2DEC     1.1        B-1
001888: 35,3613  26,3343               2RTEB1             =        DPPOSMAX
001889: 35,3613           77777 77766  M9RTEB28           2DEC     -9         B-28
001890: 35,3615           77777 77767  M8RTEB28           2DEC     -8         B-28
001891: 35,3617           00000 35610  30480RTE           2DEC     30480.     B-29
001892: 35,3621           37405 12250  VCSPS              2DEC     31.510396  B-5                        #  (SEE 2VEXHUST)
001893: 35,3623           33041 37714  VCRCS              2DEC     27.0664    B-5
001894: 35,3625           00003 13241  MDOTRCS            2DEC     .0016375   B-3
001895: 35,3627  26,3333               CSUBT              =        UNITX
001896: 35,3627           00605        OCT605             OCT      00605
001897: 35,3630           00612        OCT612             OCT      00612
001898: 35,3631           40214 45266  MCOS7.5            2DEC     -.99144486
001899: 35,3633           73645 56536  MSIN7.5            2DEC     -.13052619


001901: 35,3635           70467 71205  MCOS22.5           2DEC     -.92387953 B-2
001902: 35,3637           16525 12525  THETA165           2DEC     .458333333
001903: 35,3641           22525 12525  THETA210           2DEC     .583333333
001904: 35,3643           17775 06676  EPC1RTE            2DEC     .99966     B-1
001905: 35,3645           00000 00062  EPC2RTE            2DEC     100.       B-29
001906: 35,3647           00020 14223  EPC3RTE            2DEC     .001
001907: 35,3651           00000 05174  EPC4RTE            2DEC     .00001
001908: 35,3653           00000 01654  EPC6RTE            2DEC     .000007    B-1
001909: 35,3655           00000 00764  EPC7RTE            2DEC     1000.      B-29
001910: 35,3657  35,3575               EPC9RTE            =        1RTEB25
001911: 35,3657           00000 00322  EPC10RTE           2DEC     .0001      B-7
001912:
001913: 35,3661                                           BANK     35
001914: 35,2000                                           SETLOC   RTECON1
001915: 35,2000                                           BANK
001916: 35,3661                                           COUNT*   $$/P37
001917: 35,3661           75725 75417  C4RTE              2DEC     -6.986643  E7         B-30
001918: 35,3663           00325 23740  K1RTE              2DEC     7.         E6         B-29
001919: 35,3665           00306 06614  K2RTE              2DEC     6495000.   B-29
001920: 35,3667           76027 70156  K3RTE              2DEC     -.06105
001921: 35,3671           74517 54131  K4RTE              2DEC     -.10453
001922: 35,3673           30276 05001  RTMURTE            2DEC     199650.501 B-18
001923: 35,3675           00003 27040  E3RTE              2DEC     121920.    B-29

End of include-file P37,P70.agc.  Parent file is MAIN.agc


