
Source Code


000002:                                                                                                  ## Copyright:   Public domain.
000003:                                                                                                  ## Filename:    P40-P47.agc
000004:                                                                                                  ## Purpose:     Part of the source code for Artemis (i.e., Colossus 3),
000005:                                                                                                  ##              build 072.  This is for the Command Module's (CM)
000006:                                                                                                  ##              Apollo Guidance Computer (AGC), for
000007:                                                                                                  ##              Apollo 15-17.
000008:                                                                                                  ## Assembler:   yaYUL
000009:                                                                                                  ## Contact:     Jim Lawton <jim DOT lawton AT gmail DOT com>
000010:                                                                                                  ## Website:     www.ibiblio.org/apollo/index.html
000011:                                                                                                  ## Page Scans:  www.ibiblio.org/apollo/ScansForConversion/Artemis072/
000012:                                                                                                  ## Mod history: 2009-08-14 JL   Adapted from corresponding Comanche 055 file.
000013:                                                                                                  ##              2009-09-03 JL   Comment out MINDB declaration, it's a comment
000014:                                                                                                  ##                              line in the page scan.
000015:                                                                                                  ##              2010-01-31 JL   Fixed build errors.
000016:                                                                                                  ##              2010-02-01 JL   Fixed build errors.
000017:                                                                                                  ##              2010-02-02 JL   Fixed page number.
000018:                                                                                                  ##              2010-02-13 JL   Fix errors on pages 699 and 711.
000019:                                                                                                  ##              2010-02-14 JL   Fixed errors on pages 724 and 725.
000020:                                                                                                  ##              2010-02-20 RSB  Un-##'d this header.
000021:                                                                                                  ##              2017-02-08 RSB  Proofed comment text with octopus/ProoferComments
000022:                                                                                                  ##                              where the mismatch in the diff was too great.
000023:


000025:
000026:                                                                                                  #  NAME          P40 - TVC (SPS BURN)
000027:                                                                                                  #                MOD BY ALBERT, BEALS, AND DEMERY TO REORGANIZE
000028:                                                                                                  #                AND REDUCE CODING 15AUG69
000029:
000030:                                                                                                  #  FUNCTION      TO CONTROL THE SEQUENCE OF THE CMC DURING THE COUNTDOWN
000031:                                                                                                  #                AND THRUSTING MANEUVER OF AN SPS BURN
000032:
000033:                                                                                                  #                CLOKTASK        COMPUTE TIME-TO-GO TO IGNITION (FOR N35/40),
000034:                                                                                                  #                                RECALL CLOKTASK, AND AFTER S40.6 COMPLETION
000035:                                                                                                  #                                CALL CLOCKJOB TO DISPLAY V06N40
000036:
000037:                                                                                                  #                R02BOTH         CHECK STATUS OF IMU
000038:
000039:                                                                                                  #                S40.1           COMPUTE: INTIAL THRUST DIRECTION AND
000040:                                                                                                  #                                         INTIAL VALUE OF VELOCITY-TO-BE-
000041:                                                                                                  #                                         GAINED VECTOR (VGTIG)
000042:
000043:                                                                                                  #                S40.2,3         COMPUTE: GIMBAL ANGLES IF THRUSTING WILL
000044:                                                                                                  #                                         OCCUR WITH PRESENT IMU ORIENTATION,
000045:                                                                                                  #                                         XAXIS OF ENGINE BELL,
000046:                                                                                                  #                                         PREFERRED IMU ORIENTATION, AND
000047:                                                                                                  #                                         DESIRED THRUST DIRECTION IN SM COORDS
000048:
000049:                                                                                                  #                R60CSM          PERFORM ATTITUDE MANEUVER
000050:
000051:                                                                                                  #                S40.6           HANDLE GIMBAL TEST AND TRIM OR TRIM ONLY
000052:
000053:                                                                                                  #                MIDTOAV1        EXTRAPOLATE CSM STATE VECTOR TO TIG-29.96 SECS
000054:
000055:                                                                                                  #                TIGBLNK         BLANK DSKY AT TIG-35 SECS AND
000056:                                                                                                  #                                WAITLIST TIGAVEG IN 5 SECS
000057:
000058:                                                                                                  #                TIGAVEG         UNBLANK DSKY,
000059:                                                                                                  #                                WAITLIST TIG-5 IN 24.96 SECS, AND
000060:                                                                                                  #                                START SERVICER
000061:
000062:                                                                                                  #                TIG-5           DISPLAY FLASHING V99N40:
000063:                                                                                                  #                                ENGINE IGNITION ENABLE,
000064:                                                                                                  #                                WAITLIST TIG-0 IN 5 SECS, AND
000065:                                                                                                  #                                FINDVAC S40.13 TO DETERMINE IF THIS IS
000066:                                                                                                  #                                AN IMPULSIVE OR STEERING BURN
000067:
000068:                                                                                                  #                TIG-0           CHECK IF ASTRONAUT HAS O.K.ED IGNITION (PRIOR
000069:                                                                                                  #                                PROCEED TO V99N40) - IF NOT, IGNITION WILL BE
000070:                                                                                                  #                                ENTERED BY CLOCKJOB IN RESPONSE TO V99N40
000071:
000072:                                                                                                  #                CLOCKJOB        (CALLED EVERY SEC)
000073:                                                                                                  #                                DISPLAY V06N40 EXCEPT WHEN SIGNALED BY TIG-5
000074:                                                                                                  #                                TO FLASH V99N40 AND
000075:                                                                                                  #                                CALL IGNITION WHEN PROCEED RESPONSE TO V99N40
000076:                                                                                                  #                                HAS OCCURRED AND TIG HAS PASSED


000078:                                                                                                  #                IGNITION        TURN ON ENGINE,
000079:                                                                                                  #                                CHECK IF IMPULSIVE BURN, AND IF SO
000080:                                                                                                  #                                SET UP ENGINOFF COMMAND
000081:
000082:                                                                                                  #                S40.8           UPDATE VELOCITY TO-BE-GAINED VECTOR,
000083:                                                                                                  #                                GENERATE ANGULAR RATE STEERING COMMANDS
000084:                                                                                                  #                                FOR AUTO PILOT,
000085:                                                                                                  #                                UPDATE CSMMASS,
000086:                                                                                                  #                                ESTABLISH ENGINE CUT-OFF SIGNAL AT
000087:                                                                                                  #                                APPROPRIATE TIME, AND
000088:                                                                                                  #                                INITIATE R40, IF THRUST FAILS
000089:
000090:                                                                                                  #                S40.9           (AIMPOINT MANEUVERS ONLY)
000091:                                                                                                  #                                GENERATE REQUIRED VEL-TO-BE-GAINED VECTOR AND
000092:                                                                                                  #                                UPDATE B-VECTOR WHICH IS USED IN FINAL
000093:                                                                                                  #                                CALCULATION OF EXTRAPOLATING THE VG VECTOR
000094:
000095:                                                                                                  #                ENGINOFF        WIPE OUT TVC,
000096:                                                                                                  #                                TURN OFF CLOKTASK,
000097:                                                                                                  #                                SHUT DOWN ENGINE,
000098:                                                                                                  #                                ADJUST VEHICLE MASS PROPERTIES,
000099:                                                                                                  #                                TURN ON RCS DAP, AND
000100:                                                                                                  #                                UPDATE ENGINE TRIMS
000101:
000102:                                                                                                  #                POSTBURN        DISPLAY FLASHING V16N40,
000103:                                                                                                  #                                CLEAN UP AFTER ENGINE CUT-OFF, AND
000104:                                                                                                  #                                MAINTAIN VG COMP FOR POSSIBLE RCS TRIM
000105:
000106:                                                                                                  #                *************************************************
000107:                                                                                                  #                PROVIDE RESTART PROTECTION AT ALL CRITICAL POINTS
000108:                                                                                                  #                *************************************************
000109:
000110:                                                                                                  #  INPUT         XDELVFLG = 1 EXTERNAL DELTA V
000111:
000112:                                                                                                  #                    DELVSIN     CHANGE OF VELOCITY (VECTOR)
000113:                                                                                                  #                    RTIG        CSM POSITION AT TIG
000114:                                                                                                  #                    VTIG        CSM VELOCITY AT TIG
000115:                                                                                                  #                    TIG         IGNITION TIME
000116:                                                                                                  #                    CSTEER =    0
000117:
000118:                                                                                                  #                XDELVFLG = 0 LAMBERT (AIMPOINT)
000119:
000120:                                                                                                  #                    RTARG       AIMPOINT POSITION VECTOR
000121:                                                                                                  #                    TPASS4      TIME OF ARRIVAL AT AIMPOINT
000122:                                                                                                  #                    TIG         IGNITION TIME
000123:                                                                                                  #                    CSTEER =    1
000124:
000125:                                                                                                  #  ALARMS        1407            VG INCREASING
000126:                                                                                                  #                1703            INSUFFICIENT TIME FOR INTEGRATION
000127:                                                                                                  #                                TIG WAS SLIPPED
000128:


000130: 27,3032  E6,1465                                  EBANK=   DAPDATR1
000131: 24,2000                                           SETLOC   P40S
000132: 24,2000                                           BANK
000133: 24,2214                                           COUNT*   $$/P40
000134: 24,2214           06006        P40CSM             TC       INTPRET
000135: 24,2215           67214                           CLEAR    SLOAD
000136: 24,2216           00664                                    ENG2FLAG
000137: 24,2217           03425                                    ECSTEER
000138: 24,2220           71214                           BOFF     DLOAD
000139: 24,2221           01347                                    XDELVFLG                              #  EXTERNAL DELTA V ?
000140: 24,2222           50224                                    P40S/C                                #  NO CSTEER = ECSTEER
000141: 24,2223           15336                                    HI6ZEROS                              #  YES CSTEER = ZERO
000142: 24,2224           17703        P40S/C             STODL    CSTEER
000143: 24,2225           11532                                    FENG                                  #  SET UP THRUST FOR S40.1
000144: 24,2226           17727        P40S/F             STODL    F                                     #  P41 ENTERS HERE
000145: 24,2227           03413                                    TIG                                   #  ORIGINAL TIG MAY BE SLIPPED BY P40S/SV
000146: 24,2230           17450                           STODL    NOMTIG                                #  SET ORIGINAL TIME OF IGNITION FOR S40.9
000147: 24,2231           11530                                    SEC29.96
000148: 24,2232           03460                           STORE    AVEGDT                                #  START AVERAGEG AT TIG-29.96
000149: 24,2233           77414                           CLEAR    EXIT
000150: 24,2234           05265                                    BURNFLAG
000151:
000152: 24,2235           04655        TFIGINIT           TC       POSTJUMP                              #  START CLOKTASK TO
000153: 24,2236           73566                           CADR     STARTTGO                              #  CALCULATE TFI FOR N35/40
000154: 24,2237           04636                 +2        TC       BANKCALL
000155: 24,2240           03731                           CADR     R02BOTH                               #  IMU STATUS CHECK
000156:


000158:                                                                                                  #  NAME  S40.1
000159:
000160:                                                                                                  #  FUNCTIONAL DESCRIPTION
000161:                                                                                                  #        COMPUTE INITIAL THRUST DIRECTION (UT) AND INITIAL VALUE OF VG
000162:                                                                                                  #        VECTOR (VGTIG).
000163:
000164:                                                                                                  #  SUBROUTINES CALLED
000165:                                                                                                  #        CSMPREC
000166:                                                                                                  #        INITVEL
000167:                                                                                                  #        CALCGRAV
000168:                                                                                                  #        MIDGIM
000169:
000170:                                                                                                  #  ERASABLE INITIALIZATION REQUIRED
000171:                                                                                                  #        WEIGHT/G        ANTICIPATED MAG. OF VEHICLE MASS        SP      B16 KGM
000172:                                                                                                  #        XDELVFLG        1=DELTA-V MANEUVER, 0=AIMPT STEER
000173:                                                                                                  #    IF DELTA-V MANEUVER
000174:                                                                                                  #        DELVSIN         SPECIFIED DELTA-V REQUIRED IN
000175:                                                                                                  #                        INERTIAL COORDS. OF ACTIVE VEHICLE
000176:                                                                                                  #                        AT TIME OF IGNITION                     VECTOR  B7 M/CS
000177:                                                                                                  #        RTIG            POSITION AT TIME OF IGNITION            VECTOR  B29 M
000178:                                                                                                  #        VTIG            VELOCITY AT TIME OF IGNITION            VECTOR  B7 M/CS
000179:                                                                                                  #        CSTEER = 0                                              DP
000180:                                                                                                  #    IF AIMPOINT STEERING
000181:                                                                                                  #        TIG             TIME OF IGNITION                        DP      B28 CS
000182:                                                                                                  #        RTARG           POSITION TARGET TIME                    VECTOR  B29 M
000183:                                                                                                  #        TPASS4          TIME OF ARRIVAL AT AIMPOINT
000184:                                                                                                  #        CSTEER = ECSTEER (GR 0)                                 DP      B1
000185:
000186:                                                                                                  #  OUTPUT
000187:                                                                                                  #        UT              1/2 UNIT VECTOR ALIGNED WITH THRUST DIRECTION IN REF COOR
000188:                                                                                                  #        VGTIG           INITIAL VALUE OF VELOCITY
000189:                                                                                                  #                        TO BE GAINED (INERT. COORD.)            VECTOR  B7 M/CS
000190:                                                                                                  #        DELVLVC         VGTIG IN LOC. VERT. COORDS.
000191:                                                                                                  #        F               NOMINAL THRUST FOR ENGINE               DP      B7 M-NEWT
000192:                                                                                                  #        BDT             V REQUIRED AT TIG -V REQUIRED AT (TIG-2SEC)
000193:                                                                                                  #        -GDT            FOR S40.13                              VECT    B7 M/CS
000194:                                                                                                  #        RTIG            CALC IN S40.1B (AIMPT) FOR S40.2,3      VECTOR  B29M
000195:                                                                                                  #                        POSITION AT TIME OF IGNITION
000196:
000197: 24,2241                                           COUNT*   $$/S40.1
000198: 24,2241           06006        S40.1              TC       INTPRET
000199: 24,2242           77214                           SET      VLOAD
000200: 24,2243           01070                                    FIRSTFLG
000201: 24,2244           15336                                    HI6ZEROS
000202: 24,2245           03705                           STORE    BDT
000203: 24,2246           77614                           BOFF
000204: 24,2247           01347                                    XDELVFLG
000205: 24,2250           34065                                    S40.1B                                #  LAMBERT
000206: 24,2251           51575                           VLOAD    ABVAL                                 #  EXTERNAL DELTA-V
000207: 24,2252           03646                                    DELVSIN
000208: 24,2253           27654                           STOVL    DELVSAB
000209: 24,2254           03640                                    VTIG
000210: 24,2255           03576                           STORE    VINIT
000211: 24,2256           53435                           VXV      UNIT


000213: 24,2257           03632                                    RTIG
000214: 24,2260           27713                           STOVL    UT                                    #  UP IN UT
000215: 24,2261           03632                                    RTIG
000216: 24,2262           03570                           STORE    RINIT
000217: 24,2263           65236                           VSQ      PDDL
000218: 24,2264           00045                                    36D
000219: 24,2265           56275                           DMPR     DDV
000220: 24,2266           17051                                    THETACON
000221: 24,2267           41205                           DMP      DMP
000222: 24,2270           03654                                    DELVSAB
000223: 24,2271           03076                                    WEIGHT/G
000224: 24,2272           77671                           DDV
000225: 24,2273           03727                                    F
000226: 24,2274           24017                           STOVL    14D
000227: 24,2275           03646                                    DELVSIN
000228: 24,2276           74241                           DOT      VXSC
000229: 24,2277           03713                                    UT
000230: 24,2300           03713                                    UT
000231: 24,2301           41552                           VSL2     PUSH                                  #  (DELTAV.UP)UP SCALED AT 2(+7) P.D.L. 0
000232: 24,2302           65245                           BVSU     PDDL                                  #  DELTA VP SCALED AT 2(+7) P.D.L. 6
000233: 24,2303           03646                                    DELVSIN
000234: 24,2304           00017                                    14D
000235: 24,2305           63356                           SIN      PDVL
000236: 24,2306           00007                                    6D
000237: 24,2307           53435                           VXV      UNIT
000238: 24,2310           03713                                    UT
000239: 24,2311           45561                           VXSC     STADR
000240: 24,2312           50056                           STOVL    VGTIG                                 #  UNIT(VP X UP)SIN(THETAT) IN VGTIG
000241: 24,2313           65256                           UNIT     PDDL                                  #  UNIT(DELTA VP) IN P.D.L. 6
000242: 24,2314           00017                                    14D
000243: 24,2315           74346                           COS      VXSC
000244: 24,2316           74255                           VAD      VXSC
000245: 24,2317           03721                                    VGTIG
000246: 24,2320           00045                                    36D
000247: 24,2321           53352                           VSL2     VAD
000248: 24,2322           77626                           STADR
000249: 24,2323           74056                           STORE    VGTIG                                 #  VG IGNITION SCALED AT 2(+7) M/CS
000250: 24,2324           77656                           UNIT
000251: 24,2325           27713                           STOVL    UT                                    #  THRUST DIRECTION SCALED AT 2(+1)
000252: 24,2326           03721                                    VGTIG
000253: 24,2327           45006                           PUSH     CALL
000254: 24,2330           11200                                    GET.LVC                               #  VGTIG IN LV COOR AT 2(+7)M/CS IN DELVLVC
000255:


000257:                                                                                                  #  NAME  S40.2,3
000258:
000259:                                                                                                  #  FUNCTIONAL DESCRIPTION
000260:                                                                                                  #        COMPUTE GIMBAL ANGLES IF THRUSTING OCCURRED WITH PRESENT IMU
000261:                                                                                                  #        ORIENTATION, WINGS LEVEL SPACECRAFT, HEADS UP
000262:                                                                                                  #        COMPUTE X AXIS OF ENGINE BELL
000263:                                                                                                  #        COMPUTE PREFERRED IMU ORIENTATION (XSCREF)
000264:                                                                                                  #        FOR THIS CALCULATION, ASSUME X AXIS OF SC ALONG UT INITIALLY,
000265:                                                                                                  #        YSC=UNIT(XXR), ZSC=UNIT(XX(XXR)) AND ROTATE ENGINE BELL ALONG UT
000266:                                                                                                  #        NEW SC AXES WILL BE APPROX. WINGS LEVEL AND NEW SC AXES IN REF.
000267:                                                                                                  #        COORDS. WILL BE PREFERRED IMU ORIENTATION.
000268:                                                                                                  #        COMPUTE DESIRED THRUST DIRECTION IN SM COORDS.
000269:
000270:                                                                                                  #  SUBROUTINES CALLED
000271:                                                                                                  #        CALCGA
000272:
000273:                                                                                                  #  ERASABLE INITIALIZATION REQUIRED
000274:                                                                                                  #        PACTOFF         TOTAL PITCH TRIM ANGLE                  SP AT 1.0795111 REV.
000275:                                                                                                  #        YACTOFF         TOTAL YAW   TRIM ANGLE                  SP AT 1.0795111 REV.
000276:                                                                                                  #        UT              DESIRED THRUST DIRECTION                VECT.   B2 M/(CS.CS)
000277:                                                                                                  #        RTIG            POSITION AT TIME OF IGNITION            VECT.   B29 M
000278:                                                                                                  #        ENG2FLAG        ON=RCS OFF=SPS
000279:
000280:                                                                                                  #  OUTPUT
000281:                                                                                                  #        SCAXIS          UNIT VECT. ALIGNED WITH ENG BELL IN SC COOR     B1
000282:                                                                                                  #        XSCREF          UNIT VECTORS ALIGNED WITH PREFERRED IMU         B1
000283:                                                                                                  #        YSCREF
000284:                                                                                                  #        ZSCREF
000285:                                                                                                  #        GIMBAL ANGLES IN THETAD
000286:                                                                                                  #        POINTVSM        UNIT VECT ALONG DESIRED THRUST DIRECTION IN SM  B1
000287:
000288: 24,2331                                           COUNT*   $$/S40.2
000289: 24,2331           64375        S40.2,3            VLOAD    MXV
000290: 24,2332           03713                                    UT
000291: 24,2333           01734                                    REFSMMAT
000292: 24,2334           40372                           VSL1     SETPD
000293: 24,2335           00001                                    00D
000294: 24,2336           17357                           STODL    POINTVSM
000295: 24,2337           15336                                    HI6ZEROS
000296: 24,2340           41414                           BON      PUSH
000297: 24,2341           00704                                    ENG2FLAG
000298: 24,2342           34157                                    S40.2,3B
000299: 24,2343           41335                           SLOAD    DMP
000300: 24,2344           03025                                    YACTOFF
000301: 24,2345           11542                                    TRIMSCAL
000302: 24,2346           43352                           SL1      DAD
000303: 24,2347           11544                                    YBIAS
000304: 24,2350           71406                           PUSH     COS
000305: 24,2351           73525                           PDDL     SIN
000306: 24,2352           67206                           PUSH     SLOAD
000307: 24,2353           03024                                    PACTOFF
000308: 24,2354           72405                           DMP      SL1
000309: 24,2355           11542                                    TRIMSCAL
000310: 24,2356           41415                           DAD      PUSH


000312: 24,2357           11546                                    PBIAS
000313: 24,2360           65346                           COS      PDDL                                  #  COS(P +P0) PDL 6
000314: 24,2361           41556                           SIN      PUSH                                  #  SIN(P +P0) PDL 8D
000315: 24,2362           14323                           STODL    ZSCREF                                #  SIN(P +P0)
000316: 24,2363           00007                                    6
000317: 24,2364           72405                           DMP      SL1
000318: 24,2365           00005                                    4
000319: 24,2366           65276                           DCOMP    PDDL                                  #  -SIN(Y+Y0)COS(P+P0) PDL 10
000320: 24,2367           00007                                    6
000321: 24,2370           72405                           DMP      SL1
000322: 24,2371           00003                                    2
000323: 24,2372           77666                           VDEF
000324: 24,2373           14307                           STODL    XSCREF                                #  PD POINTER AT 6 NEW SC X AXIS SCALED AT
000325: 24,2374           00323                                    ZSCREF
000326: 24,2375           72405                           DMP      SL1
000327: 24,2376           00005                                    4
000328: 24,2377           41325                           PDDL     DMP
000329: 24,2400           00323                                    ZSCREF
000330: 24,2401           00003                                    2
000331: 24,2402           57552                           SL1      DCOMP
000332: 24,2403           77666                           VDEF
000333: 24,2404           14323                           STODL    ZSCREF                                #  PD POINTER AT 4 NEW SC Z AXIS SCALED AT 2
000334: 24,2405           77666                           VDEF
000335: 24,2406           14315                           STODL    YSCREF                                #  PD POINTER AT 0 NEW SC Y AXIS SCALED AT 2
000336: 24,2407           00323                                    ZSCREF
000337: 24,2410           65325                           PDDL     PDDL
000338: 24,2411           00315                                    YSCREF
000339: 24,2412           00307                                    XSCREF
000340: 24,2413           77666                           VDEF
000341: 24,2414           27351                           STOVL    SCAXIS                                #  ENGINE BELL SCALED AT 2
000342: 24,2415           03713                                    UT
000343: 24,2416           53515                           PDVL     UNIT
000344: 24,2417           03632                                    RTIG
000345: 24,2420           57435                           VXV      VCOMP
000346: 24,2421           00001                                    0
000347: 24,2422           41456                           UNIT     PUSH
000348: 24,2423           77624                           CALL
000349: 24,2424           61702                                    TSTRXUT
000350: 24,2425           57435                           VXV      VCOMP
000351: 24,2426           00001                                    0
000352: 24,2427           63372                           VSL1     PDVL                                  #  2 RF/SC IN PDL 12D
000353: 24,2430           00307                                    XSCREF
000354: 24,2431           76505                           VXM      VSL1
000355: 24,2432           00001                                    0
000356: 24,2433           24307                           STOVL    XSCREF                                #  X OF PREF IMU,X OF SC IN REF COOR. AT 2
000357: 24,2434           00315                                    YSCREF
000358: 24,2435           76505                           VXM      VSL1
000359: 24,2436           00001                                    0
000360: 24,2437           24315                           STOVL    YSCREF                                #  Y OF PREF.IMU,Y OF SC IN REF COOR. AT 2
000361: 24,2440           00323                                    ZSCREF


000363: 24,2441           76505                           VXM      VSL1
000364: 24,2442           00001                                    0
000365: 24,2443           00323                           STORE    ZSCREF                                #  Z OF PREF. IMU,Z OF SC IN REF COOR. AT 2
000366: 24,2444                                           COUNT*   $$/P40
000367:
000368: 24,2444           77414        P40SXTY            SET      EXIT
000369: 24,2445           01073                                    PFRATFLG
000370: 24,2446           03202                           TCR      SETMINDB   -1                         #  NARROW DEADBAND FOR MANEUVER (EBANK6)
000371: 24,2447           05561                           TC       DOWNFLAG
000372: 24,2450           00124                           ADRES    3AXISFLG
000373: 24,2451           04636                           TC       BANKCALL
000374: 24,2452           56074                           CADR     R60CSM                                #  ATTITUDE MANEUVER
000375: 24,2453           05402                           TC       PHASCHNG                              #  COMPTGO DESTROYS
000376: 24,2454           00014                           OCT      00014                                 #  4.1 RESTART SETUP
000377: 24,2455           44770                           CS       ONE                                   #  FOR UPDATEVG
000378: 24,2456           55724                           TS       NBRCYCLS
000379: 24,2457           06006                           TC       INTPRET
000380: 24,2460           77614                           BON
000381: 24,2461           00704                                    ENG2FLAG                              #  P40 OR P41 ?
000382: 24,2462           51626                                    P41/DSP
000383: 24,2463           51575                           VLOAD    ABVAL                                 #  FOR R2
000384: 24,2464           03721                                    VGTIG
000385: 24,2465           17763                           STODL    VGDISP
000386: 24,2466           15336                                    HI6ZEROS
000387: 24,2467           17426                           STODL    DVTOTAL
000388: 24,2470           11560                                    S40.8ADS
000389: 24,2471           01062                           STORE    AVEGEXIT
000390: 24,2472           77776                           EXIT
000391: 24,2473           33517        P40GMB             CAF      P40CKLS2                              #  (4.1 PROTECTION)
000392: 24,2474           04636                           TC       BANKCALL
000393: 24,2475           21067                           CADR     GOPERF1
000394: 24,2476           13403                           TCF      POST41                                #  V34
000395: 24,2477           12560                           TCF      TST,TRIM                              #  V33
000396: 24,2500           44770        TRIMONLY           CS       BIT1                                  #  SET MRKRTEMP FOR GIMBAL TRIM (-1)
000397: 24,2501           55444                 +1        TS       MRKRTMP                               #  ENTRY FROM TST,TRIM
000398: 24,2502           34772                           CAF      ZERO                                  #  SET CNTR  +0 FOR RESTART LOGIC IN S40.6
000399: 24,2503           55446                           TS       CNTR                                  #        +0 SAYS NORMAL ENTRY.
000400:                                                                                                  #        +1 (PRE40.6) SAYS RESTART ENTRY
000401: 24,2504           34770                           CAF      ONE
000402: 24,2505           05233                           TC       WAITLIST
000403: 24,2506  E6,1465                                  EBANK=   DAPDATR1
000404: 24,2506           02366 40066                     2CADR    S40.6
000405:
000406: 24,2510           11444                           CCS      MRKRTMP                               #  TEST TO FIND TIME TO WAIT FOR GIMBAL TEST
000407: 24,2511           33523                           CAF      18SEC                                 #  PLUS, DELAY FOR 18 SECONDS
000408: 24,2512           12514                           TCF      +2                                    #  HOLE
000409: 24,2513           33525                           CAF      5SEC                                  #  DELAY FOR TRIM ONLY TASK
000410: 24,2514           04636                           TC       BANKCALL
000411: 24,2515           01731                           CADR     DELAYJOB
000412: 24,2516           33514                           CAF      V06N40


000414: 24,2517           54777                           TS       NVWORD1                               #  FORCE CLOCKJOB
000415: 24,2520           05362                           TC       2PHSCHNG
000416: 24,2521           00026                           OCT      00026                                 #  6.2 = PRE40.6(-0CS), CLOKTASK(100CS)
000417: 24,2522           00234                           OCT      00234                                 #  4.23 = P40S/SV (PRIO12)
000418: 24,2523  01,2154               4P23SPT1           =        4.23SPOT
000419: 24,2523  01,2317               6P2SPT1            =        6.2SPOT
000420: 24,2523           04606        P40S/SV            TCR      E7SETTER                              #  JOB, 4.23 PROTECTS, PRIO12
000421: 24,2524  E7,1412                                  EBANK=   TIG
000422: 24,2524           06006                           TC       INTPRET
000423: 24,2525           45345                           DLOAD    DSU
000424: 24,2526           03413                                    TIG
000425: 24,2527           03460                                    AVEGDT                                #  29.96 SEC (P40) 100.00 SEC (P15)
000426: 24,2530           00041                           STORE    TDEC1
000427: 24,2531           77624                           CALRB                                          #  RETURN IN BASIC
000428: 24,2532           27576                                    MIDTOAV1
000429: 24,2533           02542                           TC       P40SET                                #  P15 INTEGRATION ALWAYS RETURNS HERE
000430: 24,2534           00006        P40SNEWM           EXTEND                                         #  INTEGRATION TIME GREATER THAN ALLOWED
000431: 24,2535           31105                           DCA      PIPTIME1
000432: 24,2536           53413                           DXCH     TIG
000433: 24,2537           00006                           EXTEND
000434: 24,2540           33530                           DCA      SEC29.96
000435: 24,2541           21413                           DAS      TIG                                   #  SET NEW TIG FOR V06N40
000436: 24,2542           00006        P40SET             EXTEND
000437: 24,2543           30155                           DCA      MPAC                                  #  DELTA TIME TO PREREAD
000438: 24,2544           53673                           DXCH     P40TMP
000439: 24,2545           00006                           EXTEND
000440: 24,2546           43525                           DCS      5SECDP                                #  FOR TIGBLNK
000441: 24,2547           21673                           DAS      P40TMP
000442: 24,2550           00006                           EXTEND
000443: 24,2551           31673                           DCA      P40TMP
000444: 24,2552           05332                           TC       LONGCALL
000445: 24,2553  E7,1412                                  EBANK=   TIG
000446: 24,2553           02565 50067                     2CADR    TIGBLNK
000447:
000448: 24,2555           05402                           TC       PHASCHNG
000449: 24,2556           20214                           OCT      20214                                 #  4.21 = TIGBLNK (P40TMP CS)
000450: 24,2557  01,2151               4P21SPT1           =        4.21SPOT
000451: 24,2557           15205                           TCF      ENDOFJOB
000452:
000453: 24,2560           34770        TST,TRIM           CAF      BIT1                                  #  SET UP FOR GIMB DRIVE TEST AND TRIM (+1)
000454: 24,2561           12501                           TCF      TRIMONLY   +1
000455:
000456: 24,2562           04636        P40BLNKR           TC       BANKCALL
000457: 24,2563           20715                           CADR     CLEANDSP                              #  REMOVE RESIDUE
000458: 24,2564           15205                           TCF      ENDOFJOB
000459:


000461: 24,2565           33525        TIGBLNK            CAF      5SEC                                  #  CALL TIGAVEG IN 5 SEC AT TIG - AVEGDT
000462: 24,2566           05223                           TC       TWIDDLE
000463: 24,2567           02602                           ADRES    TIGAVEG
000464: 24,2570           34772                           CAF      ZERO                                  #  DISABLE HERE, NOT IN P40BLNKR
000465: 24,2571           54777                           TS       NVWORD1
000466: 24,2572           35053                           CAF      PRIO14
000467: 24,2573           05121                           TC       NOVAC
000468: 24,2574  E7,1412                                  EBANK=   TIG
000469: 24,2574           02562 50067                     2CADR    P40BLNKR                              #  DONT PROTECT - RESTARTS BLANK DSKY
000470:
000471: 24,2576           44342                           CS       OCT37                                 #  4.37 = TIGAVEG (500CS)
000472: 24,2577           04126        P40TSK             TC       NEWPHASE
000473: 24,2600           00004                           OCT      4
000474: 24,2601  01,2176               4P37SPT1           =        4.37SPOT
000475: 24,2601           05314                           TC       TASKOVER
000476:
000477: 24,2602  E7,1412                                  EBANK=   TIG
000478: 24,2602           31214        TIGAVEG            CAE      MODREG                                #  TASK (4.37 PROTECTS)
000479: 24,2603           74763                           MASK     BIT6
000480: 24,2604           00006                           EXTEND                                         #  P15 OR P40/P41 ?
000481: 24,2605           12631                           BZF      P15AVEG                               #  P15
000482: 24,2606           44765                           CS       PFRATBIT                              #  P40/P41
000483: 24,2607           70076                           MASK     FLAGWRD2
000484: 24,2610           54076                           TS       FLAGWRD2
000485: 24,2611           30075                           CAE      FLAGWRD1
000486: 24,2612           74756                           MASK     ENG2BIT
000487: 24,2613           10000                           CCS      A                                     #  P40 OR P41 ?
000488: 24,2614           13642                           TCF      P41REDSP
000489: 24,2615           33514                           CAF      V06N40                                #  UNBLANK DISPLAY
000490: 24,2616           54777                           TS       NVWORD1
000491: 24,2617           33522                           CAF      SEC24.96
000492: 24,2620           05223                           TC       TWIDDLE
000493: 24,2621           02634                           ADRES    TIG-5
000494: 24,2622           46211                           CS       SIX                                   #  4.6 = TIG-5 (2496CS), PRECHECK (-0CS)
000495: 24,2623           04126        TTGPHS             TC       NEWPHASE                              #  ENTRY FROM P41REDSP (P41) WITH A=-4, OR
000496: 24,2624           00004                           OCT      4                                     #        FROM TIGON    (P47) WITH A=-2
000497: 24,2625  01,2102               4P2SPT1            =        4.2SPOT
000498: 24,2625  01,2110               4P4SPT1            =        4.4SPOT
000499: 24,2625  01,2116               4P6SPT1            =        4.6SPOT
000500: 24,2625           11166        PRECHECK           CCS      PHASE5                                #  HAS SERVICER BEEN RESTARTED
000501: 24,2626           15314                           TCF      TASKOVER                              #  YES, DONT START ANOTHER ONE
000502: 24,2627           04655                           TC       POSTJUMP
000503: 24,2630           76607                           CADR     PREREAD
000504:
000505: 24,2631           33513        P15AVEG            CAF      V06N95B
000506: 24,2632           54777                           TS       NVWORD1                               #  UNBLANK DISPLAY
000507: 24,2633           12625                           TCF      PRECHECK
000508:


000510:
000511: 24,2634  E7,1412                                  EBANK=   TIG
000512: 24,2634           33525        TIG-5              CAF      5SEC
000513: 24,2635           05233                           TC       WAITLIST
000514: 24,2636  E6,1465                                  EBANK=   DAPDATR1
000515: 24,2636           02651 50066                     2CADR    TIG-0
000516:
000517: 24,2640           44760                           CS       BIT9                                  #  WILL CAUSE V99 FLASH
000518: 24,2641           54777                           TS       NVWORD1
000519: 24,2642           05362                           TC       2PHSCHNG
000520: 24,2643           40074                           OCT      40074                                 #  A, 4.7 = TIG-0 (500CS)
000521: 24,2644           00033                           OCT      00033                                 #  A, 3.3 = S40.13 (PRIO20)
000522: 24,2645  01,2060               3P3SPT1            =        3.3SPOT
000523: 24,2645  01,2132               4P7SPT1            =        4.7SPOT
000524: 24,2645           05134                           TC       FINVAC20
000525: 24,2646  E7,1427                                  EBANK=   TGO
000526: 24,2646           02534 34067                     2CADR    S40.13
000527:
000528: 24,2650           15314                           TCF      TASKOVER
000529:


000531:
000532: 24,2651  E6,1465                                  EBANK=   DAPDATR1                              #  TASK, 4.7 PHASE OR 4.11 (-0 CS IN R40)
000533: 24,2651           40103        TIG-0              CS       FLAGWRD7                              #  SET IGN FLAG
000534: 24,2652           74754                           MASK     IGNFLBIT
000535: 24,2653           26103                           ADS      FLAGWRD7
000536: 24,2654           30103                           CAE      FLAGWRD7                              #  CHECK ASTN FLAG FOR V99 RESPONSE
000537: 24,2655           74755                           MASK     BIT12
000538: 24,2656           00006                           EXTEND
000539: 24,2657           15314                           BZF      TASKOVER                              #  WAIT FOR V99P
000540: 24,2660           33514                           CAF      V06N40                                #  CLEAR THE V99 (IN CASE OF A RESTART
000541: 24,2661           54777                           TS       NVWORD1                               #        DURING THE V99 SEQUENCE)
000542: 24,2662           05402                           TC       PHASCHNG                              #  V99P HAS COME ALREADY, DO IGNITION NOW
000543: 24,2663           00274                           OCT      00274                                 #  A, 4.27 = IGNITION (-0CS) TBASE OLD
000544: 24,2664  01,2162               4P27SPT1           =        4.27SPOT
000545: 24,2664           30032        IGNITION           CAE      CDUX                                  #  SAVE FOR ROLL DAP REFERENCE OGAD
000546: 24,2665           55447                           TS       OGAD                                  #        V99PJOB (CLOCKJOB) SETS UP IGNITION
000547: 24,2666           00006                           EXTEND                                         #        TASK (4.61 PROTECTION)
000548: 24,2667           30025                           DCA      TIME2                                 #        FOR RESTARTS
000549: 24,2670           53022                           DXCH     TEVENT
000550: 24,2671           40101                           CS       FLAGWRD5                              #  SET ENGONFLG
000551: 24,2672           74762                           MASK     ENGONBIT
000552: 24,2673           26101                           ADS      FLAGWRD5
000553: 24,2674           34754        SPSON              CAF      BIT13                                 #  TURN ON SPS ENGINE
000554: 24,2675           00006                           EXTEND
000555: 24,2676           05011                           WOR      DSALMOUT
000556: 24,2677           40106                           CS       FLGWRD10                              #  SET BURNFLAG TO INDICATE
000557: 24,2700           74757                           MASK     BURNBIT                               #  THAT THEN CSM DID THE BURN
000558: 24,2701           26106                           ADS      FLGWRD10
000559:
000560: 24,2702           34760        IMPULCHK           CAF      IMPULBIT                              #  CHECK FOR IMPULSIVE BURN
000561: 24,2703           70076                           MASK     FLAGWRD2
000562: 24,2704           10000                           CCS      A
000563: 24,2705           12773                           TCF      IMPLBURN                              #  IMPULSIVE
000564: 24,2706           40102                           CS       FLAGWRD6                              #  NON-IMPULSIVE, SET STRULLSW FOR STEERULL
000565: 24,2707           74754                           MASK     STRULBIT
000566: 24,2710           26102                           ADS      FLAGWRD6
000567: 24,2711           44076        PREPTVC            CS       DPCONFIG                              #  RESET T5 BITS
000568: 24,2712           70102                           MASK     FLAGWRD6
000569: 24,2713           54102                           TS       FLAGWRD6
000570: 24,2714           00006                           EXTEND                                         #  KILL RCS
000571: 24,2715           33550                           DCA      T5IDL24
000572: 24,2716           52113                           DXCH     T5LOC
000573: 24,2717           46214                           CS       THREE                                 #  4.3 = DOTVCON (40CS)
000574: 24,2720           04126                           TC       NEWPHASE
000575: 24,2721           00004                           OCT      4
000576: 24,2722  01,2124               4P3SPT1            =        4.3SPOT
000577: 24,2722           05255                           TC       FIXDELAY
000578: 24,2723           00050                           DEC      40         B-14                       #  0.4 SECOND DELAY FOR THRUST BUILDUP
000579: 24,2724           44770        DOTVCON            CS       BIT1                                  #  SET TVCPHASE = TVCDAPON CALL (FRESHDAP)
000580: 24,2725           55635                           TS       TVCPHASE


000582: 24,2726           34772                           CAF      ZERO                                  #  SET TVCEXECUTIVE PHASE
000583: 24,2727           55644                           TS       TVCEXPHS
000584: 24,2730           44076                           CS       DPCONFIG                              #  SET T5 BITS TO INDICATE TVC TAKEOVER....
000585: 24,2731           70102                           MASK     FLAGWRD6                              #        BITS 15,14 = 10
000586: 24,2732           64752                           AD       DAP1BIT
000587: 24,2733           54102                           TS       FLAGWRD6
000588: 24,2734           36214                           CAF      THREE                                 #  6.3 = CLOKTASK (100CS), DROPPING PRE40.6
000589: 24,2735           54001                           TS       L                                     #        WHICH IS HANDLED NOW BY REDOTVC
000590: 24,2736           40000                           COM
000591: 24,2737           53170                           DXCH     -PHASE6
000592: 24,2740  01,2325               6P3SPT2            =        6.3SPOT
000593: 24,2740           00006                           EXTEND                                         #  STORE RCS ATTITUDE ERRORS FOR USE IN
000594: 24,2741           41571                           DCS      ERRORY                                #  INITIALIZING TVC ATTITUDE ERRORS
000595: 24,2742           53665                           DXCH     ERRBTMP
000596: 24,2743           44773                           CS       FIVE                                  #  4.5 = DOSTRULL (160 CS)
000597: 24,2744           04126                           TC       NEWPHASE
000598: 24,2745           00004                           OCT      4
000599: 24,2746  01,2127               4P5SPT1            =        4.5SPOT
000600: 24,2746           34750                           CAF      POSMAX                                #  SET TIME5 FOR STARTING RIGHT AWAY
000601: 24,2747           54030                           TS       TIME5
000602: 24,2750           00006                           EXTEND
000603: 24,2751           33562                           DCA      TVCON2C                               #  (TVCDAPON)
000604: 24,2752           52113                           DXCH     T5LOC                                 #  (KILLS RCS DAP)
000605: 24,2753           05255                           TC       FIXDELAY                              #  0.4 + 1.6 = 2.0 SEC FOR ULLAGE-OFF AND
000606: 24,2754           00240                           DEC      160        B-14                       #        STEERING (IF NON-IMPULSIVE)
000607: 24,2755           40102        DOSTRULL           CS       FLAGWRD6                              #  CHECK STRULLSW FOR IMPULSIVE BURN
000608: 24,2756           74754                           MASK     STRULBIT
000609: 24,2757           10000                           CCS      A
000610: 24,2760           02764                           TC       ULAGEOFF                              #  ULLAGE OFF
000611: 24,2761           40076        STEERULL           CS       FLAGWRD2                              #  SET STEERSW
000612: 24,2762           74756                           MASK     STEERBIT
000613: 24,2763           26076                           ADS      FLAGWRD2
000614: 24,2764           34772        ULAGEOFF           CAF      ZERO
000615: 24,2765           00006                           EXTEND
000616: 24,2766           01005                           WRITE    CHAN5                                 #  ZERO CHANNEL 5
000617: 24,2767           00006                           EXTEND
000618: 24,2770           34772                           DCA      NEG0                                  #  KILL GROUP 4 (DP NEG0 = -0, +0)
000619: 24,2771           53164                           DXCH     -PHASE4
000620: 24,2772           15314        ENDIGN             TCF      TASKOVER
000621:
000622: 24,2773           44754        IMPLBURN           CS       STRULBIT                              #  RESET STRULLSW (COULD BE AN IMPULSIVE
000623: 24,2774           70102                           MASK     FLAGWRD6                              #        ENGINE FAIL)
000624: 24,2775           54102                           TS       FLAGWRD6
000625: 24,2776           04606                           TCR      E7SETTER
000626: 24,2777  E7,1412                                  EBANK=   TIG
000627: 24,2777           00006                           EXTEND                                         #  PREPARE FOR R1 OF V06N40 (CLOCKTASK)
000628: 24,3000           31430                           DCA      TGO
000629: 24,3001           53413                           DXCH     TIG
000630: 24,3002           00006                           EXTEND
000631: 24,3003           30025                           DCA      TIME2


000633: 24,3004           21413                           DAS      TIG
000634: 24,3005           05362                           TC       2PHSCHNG
000635: 24,3006           40053                           OCT      40053                                 #  A, 3.5 = ENGINOFF (TGO+1)....NOTE GROUP
000636: 24,3007           07014                           OCT      07014                                 #  C, DELTAT AND 2CADR FOLLOW FOR TASK BELO
000637: 24,3010  01,2063               3P5SPT1            =        3.5SPOT
000638: 24,3010           77777                           DEC      -0         B-14                       #  -0 CS
000639: 24,3011  E6,1465                                  EBANK=   DAPDATR1
000640: 24,3011           03016 50066                     2CADR    IMPLCONT
000641:
000642: 24,3013           31430                           CAE      TGO        +1                         #  (TPAGREE IN S40.13, LESS THAN 600CS)
000643: 24,3014           05223                           TC       TWIDDLE
000644: 24,3015           03023                           ADRES    ENGINOFF
000645: 24,3016           44760        IMPLCONT           CS       IMPULBIT                              #  RESET IMPULSW, ENGINOFF IS NOW SET UP
000646: 24,3017           70076                           MASK     FLAGWRD2
000647: 24,3020           54076                           TS       FLAGWRD2
000648: 24,3021           04611                           TCR      E6SETTER
000649: 24,3022  E6,1465                                  EBANK=   DAPDATR1
000650: 24,3022           12711                           TCF      PREPTVC
000651:
000652: 24,3023  E7,1427                                  EBANK=   TGO                                   #  E7 FORCED BY 3.15SPOT VARIABLE DELTA-T
000653: 24,3023           04611        ENGINOFF           TCR      E6SETTER                              #  TASK, 3.15 PHASE (TGO+1 CS)   GET E6
000654: 24,3024  E6,1465                                  EBANK=   DAPDATR1
000655: 24,3024           03045        DOSPSOFF           TCR      SPSOFF                                #  SHUT DOWN SPS
000656: 24,3025           05255                           TC       FIXDELAY                              #  2.5 SECOND DELAY FOR SPS TAILOFF
000657: 24,3026           00372                           DEC      250        B-14                       #  RESTART MAY DOUBLE THE DELAY, HIT TEVENT
000658: 24,3027           03217        DOTVCRCS           TCR      SETMAXDB                              #  WIDE DEADBAND FOR CUTOFF TRANSIENT
000659: 24,3030           04714                           TC       IBNKCALL                              #  SET UP RCS DAP (KILLS TVCDAPS, SETS T5
000660: 24,3031           42042                           CADR     RCSDAPON                              #        BITS, WAITS 0.6SEC FOR TVCEXEC DIE)
000661: 24,3032           04714                           TC       IBNKCALL                              #  UPDATE WEIGHT/G AND MASS-PROPERTIES FOR
000662: 24,3033           13313                           CADR     MASSPROP                              #        RCS DAP STARTUP IN 0.6 SECONDS
000663: 24,3034           03161                           TCR      TVCZAP                                #  WIPE OUT TVC, TURN OFF CLOKTASK
000664: 24,3035           05362                           TC       2PHSCHNG
000665: 24,3036           00003                           OCT      00003                                 #  KILL GROUP 3 PROTECTION OF ENGINOFF
000666: 24,3037           00354                           OCT      00354                                 #  A, 4.35 = POSTBURN (NOVAC, PRIO12)
000667: 24,3040  01,2173               4P35SPT1           =        4.35SPOT
000668: 24,3040           34664                           CAF      PRIO12                                #  SET UP POSTBURN V16N40 JOB
000669: 24,3041           05121                           TC       NOVAC
000670: 24,3042  E6,1465                                  EBANK=   DAPDATR1                              #  (SET MAXDB IN POST41)
000671: 24,3042           03174 50066                     2CADR    POSTBURN
000672:
000673: 24,3044           15314                           TCF      TASKOVER
000674:
000675: 24,3045  E6,1465                                  EBANK=   DAPDATR1
000676: 24,3045           00004        SPSOFF             INHINT
000677: 24,3046           00006                           EXTEND                                         #  ESTABLISH SPSOFF TEVENT
000678: 24,3047           30025                           DCA      TIME2
000679: 24,3050           53022                           DXCH     TEVENT
000680: 24,3051           44762                           CS       ENGONBIT                              #  RESET ENGONFLG
000681: 24,3052           70101                           MASK     FLAGWRD5
000682: 24,3053           54101                           TS       FLAGWRD5                              #  (RESTARTS WILL SHUT DOWN SPS NOW)


000684: 24,3054           44754                           CS       BIT13                                 #  SHUT DOWN SPS ENGINE
000685: 24,3055           00006                           EXTEND
000686: 24,3056           03011                           WAND     DSALMOUT
000687: 24,3057           34753                           CAF      BIT14                                 #  ISSUE SIV CUTOFF COMMAND
000688: 24,3060           00006                           EXTEND                                         #  FOR POSSIBLE BACK-UP USE
000689: 24,3061           05012                           WOR      CHAN12
000690: 24,3062           31635                           CA       TVCPHASE                              #  CHECK IF OK FOR TRIM UPDATE
000691: 24,3063           64770                           AD       ONE                                   #        THESE CHECKS ARE ONLY NEEDED
000692: 24,3064           00006                           EXTEND                                         #        FOR A LESS THAN 0.4 SEC BURN
000693: 24,3065           13101                           BZF      BTRIMR                                #  NO, INITIALIZATION NOT COMPLETE
000694: 24,3066           40102                           CS       FLAGWRD6                              #  YES, CHECK IF TVC
000695: 24,3067           74076                           MASK     DPCONFIG
000696: 24,3070           00006                           EXTEND
000697: 24,3071           63101                           BZMF     BTRIMR                                #  NO, NOT TVC YET
000698: 24,3072           31633                           CAE      REPFRAC                               #  NO TRIM UPDATES IF R40 (ENGFAIL) ACTIVE
000699: 24,3073           00006                           EXTEND                                         #       (LOTHRUST SETS REPFRAC = 77777)
000700: 24,3074           13101                           BZF      BTRIMR
000701: 24,3075           31601        BESTTRIM           CAE      DELPBAR                               #  UPDATE TRIMS WITH DELFILTER VALUES
000702: 24,3076           55423                           TS       PACTOFF
000703: 24,3077           31603                           CAE      DELYBAR
000704: 24,3100           55424                           TS       YACTOFF
000705: 24,3101           00002        BTRIMR             TC       Q
000706:


000708: 24,3102                                           COUNT*   $$/S40.8
000709: 24,3102  E6,1446                                  EBANK=   CNTR
000710: 24,3102           77775        S40.81             VLOAD                                          #  TGO LESS THAN 4 SECONDS
000711: 24,3103           15336                                    HI6ZEROS
000712: 24,3104           03126        RATEZRO            STORE    OMEGAC                                #  TVC TO ATTITUDE HOLD
000713: 24,3105           77776                           EXIT
000714: 24,3106           34750                           CAF      POSMAX                                #  INHIBIT SWITCHOVER/TVC EG TRACKING
000715: 24,3107           55446                           TS       CNTR
000716: 24,3110           04606                           TCR      E7SETTER
000717: 24,3111  E7,1412                                  EBANK=   TIG
000718: 24,3111           00004                           INHINT
000719: 24,3112           00006                           EXTEND
000720: 24,3113           31413                           DCA      TIG
000721: 24,3114           52155                           DXCH     MPAC
000722: 24,3115           00006                           EXTEND
000723: 24,3116           40025                           DCS      TIME2
000724: 24,3117           20155                           DAS      MPAC
000725: 24,3120           07224                           TCR      DPAGREE
000726: 24,3121           30155                           CAE      MPAC       +1                         #  (LESS THAN 6 (OR 4) SECONDS TO GO)
000727: 24,3122           00006                           EXTEND
000728: 24,3123           63125                           BZMF     +2
000729: 24,3124           13126                           TCF      +2
000730: 24,3125           34770                           CAF      ONE
000731: 24,3126           55430                           TS       TGO        +1
000732: 24,3127           05223                           TC       TWIDDLE
000733: 24,3130           03023                           ADRES    ENGINOFF
000734: 24,3131           05362                           TC       2PHSCHNG
000735: 24,3132           40053                           OCT      40053                                 #  A,3.5 = ENGINOFF (TGO+1)....NOTE GROUP
000736: 24,3133           10035                           OCT      10035                                 #  B, 5.3 = REREADAC, AND START BELOW
000737: 24,3134  01,2063               3P5SPT2            =        3.5SPOT
000738: 24,3134  01,2250               5P3SPT2            =        5.3SPOT
000739: 24,3134           05561        CLEARSTR           TC       DOWNFLAG                              #  CLEAR IMPULSW, ENGINOFF IS NOW SET UP
000740: 24,3135           00042                           ADRES    STEERSW                               #  RESTARTS OK
000741: 24,3136           13614                           TCF      SERVXT
000742:
000743: 24,3137           77776        INCRSVG            EXIT                                           #  ALARM INDICATING THAT THRUST IS POINTING
000744: 24,3140           05671                           TC       ALARM                                 #  IN WRONG DIRECTION.
000745: 24,3141           01407                           OCT      01407
000746: 24,3142           13614                           TCF      SERVXT
000747:
000748: 24,3143                                           COUNT*   $$/R40
000749: 24,3143           77614        LOTHRUST           BOFF
000750: 24,3144           01344                                    STEERSW
000751: 24,3145           51603                                    SERVXT1                               #  NO STEERING. EXIT
000752: 24,3146           77214        R40CHECK           BON      VLOAD                                 #  THRUST FAILURE (LO-OR-NO) INDICATED
000753: 24,3147           00711                                    IDLEFAIL                              #  SET BY V97P. ALLOWS 1 BYPASS IN CASE OF
000754: 24,3150           51603                                    SERVXT1                               #  UNFAVORABLE STEERING SYNCH
000755: 24,3151           15336        R40START                    HI6ZEROS                              #  START OF ENGINE-FAIL (R40) OPERATIONS
000756: 24,3152           03126                           STORE    OMEGAC                                #  PUT TVC IN ATTITUDE HOLD


000758: 24,3153           77776                           EXIT
000759: 24,3154  E6,1465                                  EBANK=   DAPDATR1
000760: 24,3154           44772                           CS       ZERO
000761: 24,3155           55633                           TS       REPFRAC                               #  KILL TVCDAP CG TRIM TRACKING
000762: 24,3156           54777                           TS       NVWORD1                               #  SET UP ENGINE-FAIL V97FLASH (CLOCKJOB)
000763: 24,3157           13134                           TCF      CLEARSTR
000764:


000766: 24,3160                                           COUNT*   $$/P40
000767: 24,3160           00004                 -1        INHINT
000768: 24,3161           43520        TVCZAP             CS       OCT02202                              #  DISABLE TVC AND OPT ERR CNTRS, REENGAGE
000769: 24,3162           00006                           EXTEND                                         #        OPTICS DAC
000770: 24,3163           03012                           WAND     CHAN12
000771: 24,3164           44770                           CS       BIT1                                  #  ENABLE T4RUPT OPTICS MONITOR....PERMIT
000772: 24,3165           55323                           TS       OPTIND                                #        OPTICS-ZERO BUT NOT OPTICS-DRIVE
000773: 24,3166           34772                           CAF      ZERO                                  #  CLEAR NVWORD1 IN CASE CLOCKJOB WAITING
000774: 24,3167           54777                           TS       NVWORD1
000775: 24,3170           44756                           CS       TIMRBIT                               #  CLEAR TIMRFLAG TO STOP CLOKTASK
000776: 24,3171           70103                           MASK     FLAGWRD7
000777: 24,3172           54103                           TS       FLAGWRD7
000778: 24,3173           00002                           TC       Q
000779:
000780: 24,3174  E6,1465                                  EBANK=   DAPDATR1
000781: 24,3174           33515        POSTBURN           CAF      V16N40                                #  NOVAC, PRIO 12
000782: 24,3175           04636                           TC       BANKCALL
000783: 24,3176           20716                           CADR     REFLASH
000784: 24,3177           13403                           TCF      POST41                                #  V34 GO FINISH
000785: 24,3200           13441                           TCF      P40RCS                                #  PROCEED
000786: 24,3201           13174                           TCF      POSTBURN                              #  RECYCLE
000787:
000788: 24,3202  E6,1465                                  EBANK=   DAPDATR1
000789: 24,3202           00004                 -1        INHINT
000790: 24,3203           30032        SETMINDB           CA       CDUX                                  #  ROUTINE FOR SETTING
000791: 24,3204           55572                           TS       THETADX                               #  THE MINIMUM DEADBAND
000792: 24,3205           00006                           EXTEND                                         #  IN AUTOPILOT
000793: 24,3206           30034                           DCA      CDUY
000794: 24,3207           53574                           DXCH     THETADY
000795: 24,3210           35007                           CA       MINDB                                 #  SHOULD BE CALLED UNDER
000796: 24,3211           55655                           TS       ADB                                   #  INTERRUPT INHIBITED
000797: 24,3212           44765                           CS       BIT4                                  #  EBANK = E6
000798: 24,3213           71465                           MASK     DAPDATR1
000799: 24,3214           55465                           TS       DAPDATR1
000800: 24,3215           00002                           TC       Q
000801:
000802: 24,3216  E6,1465                                  EBANK=   DAPDATR1
000803: 24,3216           00004                 -1        INHINT
000804: 24,3217           33521        SETMAXDB           CA       MAXDB                                 #  ROUTINE FOR SETTING
000805: 24,3220           55655                           TS       ADB                                   #  THE MAXIMUM DEADBAND IN AUTOPILOT
000806: 24,3221           41465                           CS       DAPDATR1
000807: 24,3222           74765                           MASK     BIT4                                  #  SHOULD BE CALLED UNDER
000808: 24,3223           27465                           ADS      DAPDATR1                              #  INTERRUPT INHIBITED
000809: 24,3224           00002                           TC       Q                                     #  EBANK = E6
000810:


000812: 24,3225  E7,1412                                  EBANK=   TIG
000813: 24,3225           34756        CLOKTASK           CAF      TIMRBIT                               #  IS TIMRFLAG SET
000814: 24,3226           70103                           MASK     FLAGWRD7
000815: 24,3227           10000                           CCS      A
000816: 24,3230           13234                           TCF      CLOCKON
000817: 24,3231           05402                           TC       PHASCHNG
000818: 24,3232           00006                           OCT      00006                                 #  KILL RESTART
000819: 24,3233           05314                           TC       TASKOVER
000820: 24,3234           00006        CLOCKON            EXTEND
000821: 24,3235           30025                           DCA      TIME2
000822: 24,3236           53661                           DXCH     TTOGO
000823: 24,3237           00006                           EXTEND
000824: 24,3240           41413                           DCS      TIG
000825: 24,3241           21661                           DAS      TTOGO
000826: 24,3242           35016        SETCLOCK           CAF      1SEC
000827: 24,3243           05223                           TC       TWIDDLE
000828: 24,3244           03225                           ADRES    CLOKTASK
000829: 24,3245           10777                           CCS      NVWORD1
000830: 24,3246           13251                           TCF      +3
000831: 24,3247           13261                           TCF      SETTB6
000832: 24,3250           13251                           TCF      +1
000833: 24,3251           43511                           CS       V06N85B                               #  CHECK FOR V06N85B (P41)
000834: 24,3252           60777                           AD       NVWORD1
000835: 24,3253           00006                           EXTEND
000836: 24,3254           13264                           BZF      SETUPDYN                              #  V06N85, SO UPDATE N85 FOR DYNAMIC DISP
000837: 24,3255           37651                           CAF      PRIO27
000838: 24,3256           05121                           TC       NOVAC
000839: 24,3257  E6,1465                                  EBANK=   DAPDATR1
000840: 24,3257           03276 50066                     2CADR    CLOCKJOB
000841:
000842: 24,3261           40025        SETTB6             CS       TIME1                                 #  SET GROUP6 TIMEBASE
000843: 24,3262           55271                           TS       TBASE6
000844: 24,3263           15314                           TCF      TASKOVER
000845:
000846: 24,3264           37651        SETUPDYN           CAF      PRIO27                                #  SET UP A JOB TO UPDATE N85 (FOR P41=V06)
000847: 24,3265           05135                           TC       FINDVAC
000848: 24,3266  E6,1465                                  EBANK=   DAPDATR1
000849: 24,3266           03271 50066                     2CADR    DYNDISP
000850:
000851: 24,3270           13261                           TCF      SETTB6                                #  CLOSE OUT CLOCKTASK
000852:
000853: 24,3271           06006        DYNDISP            TC       INTPRET                               #  UPDATE N85 FOR A DYNAMIC V06N85 IN P41.
000854: 24,3272           77624                           CALL                                           #        PRIOR TO BLANKING AND AVEG (V16N85)
000855: 24,3273           51651                                    P40CNV85
000856: 24,3274           77776                           EXIT
000857: 24,3275           13306                           TCF      CKNVWRD1
000858:


000860: 24,3276  E6,1465                                  EBANK=   DAPDATR1
000861: 24,3276           30032        CLOCKJOB           CA       CDUX                                  #  NOVAC, PRIO27
000862: 24,3277           55175                           TS       CDUSPOTX
000863: 24,3300           30033                           CA       CDUY
000864: 24,3301           55171                           TS       CDUSPOTY
000865: 24,3302           30034                           CA       CDUZ
000866: 24,3303           55173                           TS       CDUSPOTZ
000867: 24,3304           04636                           TC       BANKCALL
000868: 24,3305           47602                           CADR     QUICTRIG
000869: 24,3306           00004        CKNVWRD1           INHINT
000870: 24,3307           10777                           CCS      NVWORD1                               #  DETERMINE FUNCTION, INDICATED BY NVWORD1
000871: 24,3310           13466                           TCF      NOFLASH
000872: 24,3311           15205                           TCF      ENDOFJOB
000873: 24,3312           13427                           TCF      ENGREQST
000874: 24,3313           33514        FAILDSP            CAF      V06N40                                #  SPS ENGINE FAILED - FLASH V97
000875: 24,3314           04636                           TC       BANKCALL
000876: 24,3315           20727                           CADR     CLOCPLAY
000877: 24,3316           13363                           TCF      V97T                                  #  TERMINATE
000878: 24,3317           13407                           TCF      V97P                                  #  PROCEED
000879: 24,3320           05402        V97E               TC       PHASCHNG                              #  ENTER
000880: 24,3321           00534                           OCT      00534                                 #  A, 4.53 = V97EJOB (PRIO 30 NOVAC)
000881: 24,3322  01,2220               4P53SPT1           =        4.53SPOT
000882:                                                                                                  #  IF RESTART, FORCE V97EJOB BEFORE CLOCKJOB
000883: 24,3322           33514        V97EJOB            CAF      V06N40                                #  REDISPLAY V06N40
000884: 24,3323           54777                           TS       NVWORD1
000885: 24,3324           04606                           TCR      E7SETTER
000886: 24,3325  E7,1412                                  EBANK=   TIG
000887: 24,3325           44124                           CS       OCT24                                 #  FORCE R1 OF V06N40 TO READ  59X59
000888: 24,3326           55412                           TS       TIG
000889: 24,3327           04611                           TCR      E6SETTER
000890: 24,3330  E6,1473                                  EBANK=   CSMMASS
000891: 24,3330           03045        SPSOFF97           TCR      SPSOFF
000892: 24,3331           33526                           CAF      SEC2.5                                #  DELAY 2.5 SECS FOR POSSIBLE TAILOFF
000893: 24,3332           04636                           TC       BANKCALL
000894: 24,3333           01731                           CADR     DELAYJOB                              #  **** RESTART CAN DOUBLE DELAY ****
000895:                                                                                                  #  **** RESTART WILL ALTER TEVENT ****
000896: 24,3334           34770        V97E40.6           CAF      BIT1
000897: 24,3335           05233                           TC       WAITLIST
000898: 24,3336  E6,1446                                  EBANK=   CNTR
000899: 24,3336           02355 40066                     2CADR    PRE40.6                               #  USE S40.6 RESTART ENTRY TO TRIM ENGINE
000900:
000901: 24,3340           04714                           TC       IBNKCALL                              #  RCS DAP IN 0.6SEC, SETTING T5 BITS TO
000902: 24,3341           42042                           CADR     RCSDAPON                              #        KILL TVCEXEC/TVCROLLDAP STARTS.
000903:                                                                                                  #        LEAVE NARROW DEADBAND FOR REIGNITE
000904: 24,3342           05362                           TC       2PHSCHNG
000905: 24,3343           00026                           OCT      00026                                 #  A, 6.2 = PRE40.6 (-0 CS), CLOKTASK (1 SEC)
000906: 24,3344           05024                           OCT      05024                                 #  NOVAC BELOW, PRIO NEXT
000907: 24,3345           50777                           OCT      50777                                 #  PRIO 27 NOVAC


000909: 24,3346  01,2317               6P2SPT2            =        6.2SPOT
000910: 24,3346           05561        QUICKIGN           TC       DOWNFLAG                              #  CLEAR ASTNFLAG
000911: 24,3347           00154                           ADRES    ASTNFLAG
000912: 24,3350           05547                           TC       UPFLAG                                #  AND SET IGNFLAG
000913: 24,3351           00153                           ADRES    IGNFLAG                               #  FOR IMMEDIATE V99 RESPONSE
000914: 24,3352           44760        V99FLASH           CS       BIT9                                  #  CAUSE V99 TO FLASH
000915: 24,3353           54777                           TS       NVWORD1
000916: 24,3354           05362                           TC       2PHSCHNG
000917: 24,3355           40114                           OCT      40114                                 #  A, 4.11 = TIG-0 (-0 CS) TBASE FOR PREPTVC
000918: 24,3356           00033                           OCT      00033                                 #  A, 3.3 = S40.13 (PRIO 20)
000919: 24,3357  01,2060               3P3SPT2            =        3.3SPOT
000920: 24,3357  01,2135               4P11SPT1           =        4.11SPOT
000921: 24,3357           05134                           TC       FINVAC20                              #  SET UP TIMEBURN
000922: 24,3360  E7,1427                                  EBANK=   TGO
000923: 24,3360           02534 34067                     2CADR    S40.13
000924:
000925: 24,3362           15205        ENDV97E            TCF      ENDOFJOB                              #  WAIT FOR CLOCKJOB (IMMEDIATE) REACTION
000926:
000927: 24,3363  E6,1473                                  EBANK=   CSMMASS
000928: 24,3363           05402        V97T               TC       PHASCHNG                              #  KILL CLOKTASK
000929: 24,3364           00076                           OCT      00076                                 #  A, 6.7 = V97TJOB (PRIO 27 NOVAC)
000930: 24,3365  01,2333               6P7SPT1            =        6.7SPOT
000931: 24,3365           34772        V97TJOB            CAF      ZERO                                  #  DISABLE CLOCKJOB
000932: 24,3366           54777                           TS       NVWORD1
000933: 24,3367           03045                           TCR      SPSOFF                                #  SHUTDOWN SPS ENGINE
000934: 24,3370           33526                           CAF      SEC2.5                                #  DELAY 2.5 SECS FOR POSSIBLE TAILOFF :
000935: 24,3371           04636                           TC       BANKCALL                              #  FALSE THRUST LOSS
000936: 24,3372           01731                           CADR     DELAYJOB                              #  **** RESTART CAN DOUBLE DELAY ****
000937:                                                                                                  #  **** RESTART WILL ALTER TEVENT ****
000938: 24,3373           00004                           INHINT
000939: 24,3374           04714        V97TRCS            TC       IBNKCALL                              #  RCS DAP IN 0.6SEC, SETTING T5 BITS TO
000940: 24,3375           42042                           CADR     RCSDAPON                              #        KILL TVCEXEC/TVCROLLDAP STARTS
000941: 24,3376           05362        V99T               TC       2PHSCHNG                              #  (ENTRY FROM V97T FLOW TOO)
000942: 24,3377           00006                           OCT      00006                                 #  KILL PRE40.6/CLOKTASK PROTECTION
000943: 24,3400           05024                           OCT      05024                                 #  C, PRIORITY NEXT, JOB BELOW
000944: 24,3401           50777                           OCT      50777                                 #  PRIO 27 NOVAC
000945: 24,3402           03160        V99TJOB            TCR      TVCZAP     -1                         #  WIPE OUT TVC, CLOKTASK
000946: 24,3403           00006        POST41             EXTEND
000947: 24,3404           33554                           DCA      SERVCADR
000948: 24,3405           53062                           DXCH     AVEGEXIT
000949: 24,3406           14103                           TCF      GOTOPOOH
000950:
000951: 24,3407  E6,1473                                  EBANK=   CSMMASS
000952: 24,3407           05402        V97P               TC       PHASCHNG
000953: 24,3410           00134                           OCT      00134                                 #  A, 4.13 = V97PJOB (PRIO 30 NOVAC)
000954: 24,3411  01,2140               4P13SPT1           =        4.13SPOT
000955:                                                                                                  #  IF RESTART, FORCE V97PJOB BEFORE CLOCKJOB
000956: 24,3411           33514        V97PJOB            CAF      V06N40                                #  REDISPLAY V06N40
000957: 24,3412           54777                           TS       NVWORD1
000958: 24,3413           05547                           TC       UPFLAG                                #  SET IDLEFAIL TO ALLOW R40-BYPASS, IN


000960: 24,3414           00030                           ADRES    IDLEFAIL                              #        CASE OF UNFAVORABLE STEERING SYNCH
000961: 24,3415           05547                           TC       UPFLAG                                #  SET STEERSW TO RE-ENABLE STEERING
000962: 24,3416           00042                           ADRES    STEERSW
000963: 24,3417           35017                           CAF      2SECS
000964: 24,3420           04636                           TC       BANKCALL
000965: 24,3421           01731                           CADR     DELAYJOB                              #  WAIT 2 SECONDS
000966:                                                                                                  #  **** RESTART CAN DOUBLE DELAY ****
000967:                                                                                                  #  **** RESTART WILL ALTER TEVENT ****
000968: 24,3422           05561        R40ENABL           TC       DOWNFLAG                              #  THEN RE-ENABLE R40 BY CLEARING IDLEFLAIL
000969: 24,3423           00030                           ADRES    IDLEFAIL
000970: 24,3424           05402                           TC       PHASCHNG
000971: 24,3425           00004                           OCT      00004                                 #  KILL GROUP 4
000972: 24,3426           15205        ENDV97P            TCF      ENDOFJOB
000973:
000974:
000975: 24,3427           33514        ENGREQST           CAF      V06N40
000976: 24,3430           04636                           TC       BANKCALL
000977: 24,3431           20727                           CADR     CLOCPLAY
000978: 24,3432           13376                           TCF      V99T                                  #  TERMINATE
000979: 24,3433           13471                           TCF      V99P                                  #  PROCEED
000980: 24,3434           05362        V99E               TC       2PHSCHNG                              #  ENTER
000981: 24,3435           00006                           OCT      00006                                 #  KILL PRE40.6/CLOKTASK PROTECTION
000982: 24,3436           05024                           OCT      05024                                 #  C, PRIORITY NEXT, JOB BELOW
000983: 24,3437           50777                           OCT      50777                                 #  PRIO 27 NOVAC
000984: 24,3440           03160        V99EJOB            TCR      TVCZAP     -1                         #  WIPE OUT TVC, CLOKTASK
000985: 24,3441           00006        P40RCS             EXTEND                                         #  V16N40 ENTERS HERE
000986: 24,3442           33556                           DCA      ACADN85
000987: 24,3443           53062                           DXCH     AVEGEXIT
000988: 24,3444           35017                           CAF      2SECS
000989: 24,3445           04636                           TC       BANKCALL
000990: 24,3446           01731                           CADR     DELAYJOB
000991: 24,3447           03202        P40MINDB           TCR      SETMINDB   -1
000992: 24,3450           00003                           RELINT
000993: 24,3451           05402        TIGNOW             TC       PHASCHNG
000994: 24,3452           05024                           OCT      05024                                 #  TYPE C GROUP 4 BELOW FOR NOUN 85
000995: 24,3453           57777                           OCT      57777                                 #  PRIO 20 NOVAC
000996: 24,3454           33512                           CAF      V16N85B
000997: 24,3455           04636                           TC       BANKCALL
000998: 24,3456           20716                           CADR     REFLASH
000999: 24,3457           13403                           TCF      POST41                                #  FINISH P40/41
001000: 24,3460           13462                           TCF      MNKPST41
001001: 24,3461           13451                           TCF      TIGNOW                                #  V32 NOT GSOP RESPONSE BUT REDISPLAY N85
001002:
001003: 24,3462           00006        MNKPST41           EXTEND
001004: 24,3463           33554                           DCA      SERVCADR
001005: 24,3464           53062                           DXCH     AVEGEXIT
001006: 24,3465           14105                           TCF      MNKGOPOO
001007:
001008: 24,3466           30777        NOFLASH            CAE      NVWORD1                               #  DISPLAY NVWORD1 NORMALLY
001009: 24,3467           04636                           TC       BANKCALL


001011: 24,3470           20721                           CADR     REGODSP
001012:
001013:    4000                                           SETLOC   FFTAG12
001014:    4000                                           BANK
001015:
001016:    4606                                           COUNT*   $$/R40
001017:    4606           35046        E7SETTER           CAF      EBANK7
001018:    4607           56003                           XCH      EBANK
001019:    4610  E7,1412                                  EBANK=   TIG
001020:    4610           00002                           TC       Q
001021:
001022:    4611           35045        E6SETTER           CAF      EBANK6                                #  SET UP EBANK6
001023:    4612           56003                           XCH      EBANK
001024:    4613  E6,1465                                  EBANK=   DAPDATR1
001025:    4613           00002                           TC       Q
001026:
001027: 24,2000                                           SETLOC   P40S
001028: 24,2000                                           BANK
001029:
001030: 24,3471                                           COUNT*   $$/R40
001031: 24,3471  E6,1465                                  EBANK=   DAPDATR1
001032: 24,3471           00004        V99P               INHINT
001033: 24,3472           30103                           CAE      FLAGWRD7                              #  CHECK ASTN FLAG FOR PRIOR V99P
001034: 24,3473           74755                           MASK     ASTNBIT
001035: 24,3474           10000                           CCS      A
001036: 24,3475           13506                           TCF      V99P/TIG                              #  YES, THIS MUST BE A RESTART ENTRY
001037:
001038: 24,3476           34755        ASTNV99P           CAF      ASTNBIT                               #  SET ASTNFLAG
001039: 24,3477           26103                           ADS      FLAGWRD7
001040: 24,3500           30103                           CAE      FLAGWRD7                              #  CHECK IGN FLAG FOR TIG-0 ARRIVAL
001041: 24,3501           74754                           MASK     IGNFLBIT
001042: 24,3502           00006                           EXTEND
001043: 24,3503           13506                           BZF      V99P/TIG                              #  NO, CLEAR THE V99 AND WAIT FOR TIG-0
001044:
001045: 24,3504           05222        ENDV99P1           TC       TWIDBIT1                              #  TIG-0 HAS COME ALREADY SET UP IGNTN HERE
001046: 24,3505           02664                           ADRES    IGNITION
001047: 24,3506           33514        V99P/TIG           CAF      V06N40                                #  CLEAR THE V99 FLASH AND WAIT FOR TIG-0
001048: 24,3507           54777                           TS       NVWORD1
001049: 24,3510           15205        ENDV99P            TCF      ENDOFJOB
001050:
001051: 24,3511                                           COUNT*   $$/P40


001053: 24,3511           01525        V06N85B            VN       0685
001054: 24,3512           04125        V16N85B            VN       1685
001055: 24,3513           01537        V06N95B            VN       0695
001056: 24,3514           01450        V06N40             VN       0640
001057: 24,3515           04050        V16N40             VN       1640
001058: 24,3516           04123        V1683              VN       1683
001059: 24,3517     4355               OCT12              =        TEN
001060: 24,3517           00204        P40CKLS2           OCT      204
001061: 24,3520     4615               OCT27/24           =        VBSP3LD
001062: 24,3520           02202        OCT02202           OCT      02202                                 #  BITS 2,8,11 FOR CHANNEL 12 TVC/OPTICS
001063:                                                                                                  # MINDB          DEC     46
001064: 24,3521           00707        MAXDB              DEC      455        B-14
001065: 24,3522           04700        SEC24.96           DEC      2496       B-14
001066: 24,3523           03410        18SEC              DEC      1800       B-14
001067: 24,3524           00000        5SECDP             DEC      0          B-14                       #  MAKE DP 5SEC
001068: 24,3525           00764        5SEC               DEC      500        B-14
001069: 24,3526           00372        SEC2.5             DEC      250        B-14
001070: 24,3527           00000 05664  SEC29.96           2DEC     2996       B-28
001071: 24,3531           02217 06650  FENG               2DEC     9.1188544  B-7                        #  SPS THRUST (20500LBS), SC.AT B+7 NEWT/E4
001072:
001073: 24,3533           00013 06112  FRCS2              2DEC     .087437837 B-7                        #  RCS ULLAGE (199.6COS10 LBS), SC.AT
001074:                                                                                                  #        B+7 NEWTONS/E+4
001075: 24,3535           04000 00000  EP4(45)H           2DEC     .125
001076:
001077: 24,3537           00707 03434  EP4(10)H           2DEC     .027777777
001078:
001079: 24,3541           21215 12215  TRIMSCAL           2DEC     1.07975111 B-1
001080:
001081: 24,3543           00053 07423  YBIAS              2DEC     +.00263888889                            #  YAW   MECH BIAS (+0.95 DEG, THRUST ON)
001082:
001083: 24,3545           77636 44653  PBIAS              2DEC     -.00597222222                            #  PITCH MECH BIAS (-2.15 DEG, THRUST ON)
001084:
001085:                                                                                                  #  REFERENCE, TRW 68.6520.3.3-40 27FEB,1968
001086: 24,3547  E6,1465                                  EBANK=   DAPDATR1
001087: 24,3547           03226 12066  T5IDL24            2CADR    T5IDLOC
001088:
001089: 24,3551  E7,1412                                  EBANK=   TIG
001090: 24,3551           03706 50067  ACADN83            2CADR    CALCN83
001091:
001092: 24,3553  E7,1412                                  EBANK=   TIG
001093: 24,3553           03143 76067  SERVCADR           2CADR    SERVEXIT
001094:
001095: 24,3555  E6,1465                                  EBANK=   DAPDATR1
001096: 24,3555           03576 50066  ACADN85            2CADR    CALCN85
001097:
001098: 24,3557  E6,1465                                  EBANK=   DAPDATR1
001099: 24,3557           02176 34066  S40.8ADS           2CADR    S40.8
001100:


001102: 24,3561  E6,1465                                  EBANK=   DAPDATR1
001103: 24,3561           02163 36066  TVCON2C            2CADR    TVCDAPON
001104:


001106: 30,2000                                           SETLOC   P40S3
001107: 30,2000                                           BANK
001108: 30,3650                                           COUNT*   $$/P40
001109: 30,3650           45020        AGAIN              STQ      CALL
001110: 30,3651           03730                                    QTEMP1
001111: 30,3652           27145                                    THISPREC
001112: 30,3653           66134                           SXA,2    SXA,1
001113: 30,3654           03746                                    RTX2
001114: 30,3655           03745                                    RTX1
001115: 30,3656           40375                           VLOAD    SETPD
001116: 30,3657           00001                                    RATT
001117: 30,3660           00001                                    00D
001118: 30,3661           03632                           STORE    RTIG
001119: 30,3662           27570                           STOVL    RINIT
001120: 30,3663           00007                                    VATT
001121: 30,3664           03640                           STORE    VTIG
001122: 30,3665           03576                           STORE    VINIT
001123: 30,3666           65335                           SLOAD    PDDL
001124: 30,3667           15336                                    HI6ZEROS
001125: 30,3670           11536                                    EP4(45)H
001126: 30,3671           71214                           BON      DLOAD
001127: 30,3672           03705                                    NORMSW
001128: 30,3673           61675                                    +2
001129: 30,3674           11540                                    EP4(10)H
001130: 30,3675           45006                           PUSH     CALL
001131: 30,3676           22000                                    INITVEL
001132: 30,3677           52001                           SETPD    GOTO
001133: 30,3700           00001                                    0
001134: 30,3701           03730                                    QTEMP1
001135:
001136: 30,3702           46145        TSTRXUT            DLOAD    BHIZ
001137: 30,3703           00045                                    36D
001138: 30,3704           61707                                    BADVCTOR
001139: 30,3705           43575                           VLOAD    RVQ
001140: 30,3706           00007                                    6D
001141: 30,3707           53575        BADVCTOR           VLOAD    UNIT
001142: 30,3710           03632                                    RTIG
001143: 30,3711           53515                           PDVL     UNIT
001144: 30,3712           03640                                    VTIG
001145: 30,3713           53322                           VSR3     VAD
001146: 30,3714           53435                           VXV      UNIT
001147: 30,3715           03713                                    UT
001148: 30,3716           77676                           VCOMP
001149: 30,3717           00007                           STORE    6D
001150: 30,3720           77616                           RVQ
001151:


001153:
001154: 30,3721           67214        SETUP.9            BON      SLOAD
001155: 30,3722           01310                                    FIRSTFLG
001156: 30,3723           61736                                    SURELY.9
001157: 30,3724           03326                                    NBRCYCLP
001158: 30,3725           74301                           NORM     VXSC                                  #  (NORM HANDLES ZERO PROPERLY)
001159: 30,3726           00047                                    X1
001160: 30,3727           03705                                    BDT
001161: 30,3730           53257                           VSR*     VAD
001162: 30,3731           20563                                    0          -14D,1
001163: 30,3732           03646                                    VGTEMP
001164: 30,3733           77651                           VSU
001165: 30,3734           03327                                    DELVSUM
001166: 30,3735           03721                           STORE    VGPREV
001167: 30,3736           77776        SURELY.9           EXIT
001168: 30,3737           34754                           CAF      PRIO10
001169: 30,3740           05135                           TC       FINDVAC
001170: 30,3741  E6,1465                                  EBANK=   DAPDATR1
001171: 30,3741           02400 34066                     2CADR    S40.9
001172:
001173: 30,3743           05362                           TC       2PHSCHNG
001174: 30,3744           00051                           OCT      00051                                 #  A, 1.5 = REDO40.9, PRIO 10
001175: 30,3745           10035                           OCT      10035
001176: 30,3746  01,2017               1P5SPT1            =        1.5SPOT
001177: 30,3746  01,2250               5P3SPT3            =        5.3SPOT
001178: 30,3746           06006                           TC       INTPRET
001179: 30,3747           77775                           VLOAD
001180: 30,3750           01030                                    RN                                    #  ACTIVE VEHICLE RADIUS VECTOR AT T1
001181: 30,3751           27570                           STOVL    RINIT
001182: 30,3752           01036                                    VN                                    #  ACTIVE VEHICLE VELOCITY VECTOR AT T1
001183: 30,3753           17576                           STODL    VINIT
001184: 30,3754           01044                                    PIPTIME
001185: 30,3755           03474                           STORE    TNIT
001186: 30,3756           77621                           BDSU
001187: 30,3757           03656                                    TPASS4
001188: 30,3760           27423                           STOVL    DELLT4
001189: 30,3761           15336                                    HI6ZEROS
001190: 30,3762           17327                           STODL    DELVSUM
001191: 30,3763           15336                                    HI6ZEROS
001192: 30,3764           03325                           STORE    NBRCYCLS
001193: 30,3765           77650                           GOTO
001194: 30,3766           34360                                    VGCOMP
001195:


001197:                                                                                                  #  NAME          S40.6 GIMBAL DRIVE TEST AND/OR GIMBAL TRIM
001198:
001199:                                                                                                  #  FUNCTIONAL DESCRIPTION
001200:                                                                                                  #        GIMBAL DRIVE TEST....0,+2,-2,0 DEGREE ENGINE COMMANDS, AT 2 SECOND
001201:                                                                                                  #                INTERVALS, FIRST IN PITCH, THEN IN YAW. ASTRONAUT VERIFICATION
001202:                                                                                                  #                OF GIMBAL MOTION ON GPI
001203:                                                                                                  #        GIMBAL TRIM....AFTER A 4 SECOND DELAY, ENGINE COMMANDED TO
001204:                                                                                                  #                PRE-COMPUTED TRIM POSITION. ASTRONAUT VERIFICATION ON GPI.
001205:                                                                                                  #        PRE40.6....RESTART ENTRY TO RE-DO S40.6, ONLY IF RCS IS ON - IF TVC
001206:                                                                                                  #                IS NOT ON - PRIMARILY TO GET ACTUATORS TRIMMED FOR IGNITION.
001207:                                                                                                  #                BYPASS 4 SEC DELAY. SPEED IS CRITICAL NEAR IGNITION.
001208:                                                                                                  #                IF TVC IS ON (TVCDAPON OR LATER)  THEN REDOTVC WILL TAKE CARE
001209:                                                                                                  #                OF RESTARTING ACTUATORS.
001210:
001211:                                                                                                  #  CALLING SEQUENCE....
001212:                                                                                                  #        WAITLIST, WITH 2CADR FOR S40.6 (OR PRE40.6), WITH EBANK= CNTR
001213:
001214:                                                                                                  #  NORMAL EXIT MODE - FIXDELAY, TASKOVER
001215:
001216:                                                                                                  #  SUBROUTINES CALLED....
001217:                                                                                                  #        FIXDELAY
001218:
001219:                                                                                                  #  ERASEABLE INITIALIZATION REQUIRED
001220:                                                                                                  #        CNTR = +0, NORMALLY SET BY THE P40 CALL AT TST,TRIM
001221:                                                                                                  #        MRKRTMP...POSITIVE FOR GIMBAL DRIVE TEST AND GIMBAL TRIM (BOTH)
001222:                                                                                                  #                   NEGATIVE FOR GIMBAL TRIM ONLY
001223:                                                                                                  #        PACTOFF, YACTOFF SC.AT 85.41 ARCSEC/BIT (V48N48 P,YTRIM)
001224:                                                                                                  #        ..SC CONT.. SWITCH AT ..CMC.. (A/P CONTROL SWITCH AT ..GNC..)
001225:                                                                                                  #        ACTIVE SPS GIMBAL MOTOR POWER(S), PITCH, YAW
001226:
001227:                                                                                                  #  OUTPUT
001228:                                                                                                  #        TVCYAW, TVCPITCH (BITS RELEASED)
001229:                                                                                                  #        TVC ENABLE  AND  OPTICS ERROR COUNTER ENABLE
001230:
001231: 20,2000                                           SETLOC   DAPS6
001232: 20,2000                                           BANK
001233: 20,2355  E6,1446                                  EBANK=   CNTR
001234: 20,2355                                           COUNT*   $$/S40.6
001235: 20,2355           40102        PRE40.6            CS       FLAGWRD6                              #  RESTART ENTRY TO S40.6 (DO NOT PERMIT
001236: 20,2356           74076                           MASK     DPCONFIG                              #  IF TVC, BITS 15,14 = 1,0)
001237: 20,2357           00006                           EXTEND
001238: 20,2360           62362                           BZMF     +2
001239: 20,2361           15314                           TCF      TASKOVER                              #  TVC, REDOTVC WILL REESTABLISH INTERFACE
001240: 20,2362           44770                           CS       BIT1                                  #  RCS, SO DO S40.6, GIMTRIM ONLY
001241: 20,2363           55444                           TS       MRKRTMP
001242: 20,2364           34770                           CAF      BIT1                                  #  FOR REVISED S40.6 TIMING FOR RESTARTS...
001243: 20,2365           55446                           TS       CNTR                                  #  TO INDICATE A RESTART ENTRY (CNTR 1S
001244:                                                                                                  #        NORMALLY +0, BY S40.6)
001245: 20,2366  E6,1446                                  EBANK=   CNTR
001246: 20,2366           44772        S40.6              CS       ZERO                                  #  INHIBIT OPTICS ACTIVITY
001247: 20,2367           55323                           TS       OPTIND
001248: 20,2370           44767                           CS       BIT2                                  #  DISABLE OPTICS ERROR COUNTERS
001249: 20,2371           00006                           EXTEND
001250: 20,2372           03012                           WAND     CHAN12
001251:
001252: 20,2373           32460                           CAF      OCT02200                              #  TVC ENABLE (SPS SERVO AMPS SEE DAC


001254: 20,2374           00006                           EXTEND                                         #        VOLTAGES) AND DISENGAGE OPTICS/DAC
001255: 20,2375           05012                           WOR      CHAN12
001256: 20,2376           05255                           TC       FIXDELAY                              #  60MS PROCEDURAL DELAY (40MS MINIMUM) FOR
001257: 20,2377           00006                           DEC      6          B-14                       #        RELAY LATCHING
001258: 20,2400           34767                           CAF      BIT2                                  #  ENABLE OPTICS ERROR COUNTERS
001259: 20,2401           00006                           EXTEND
001260: 20,2402           05012                           WOR      CHAN12
001261: 20,2403           05255                           TC       FIXDELAY                              #  20MS PROCEDURAL DELAY (4MS MINIMUM) FOR
001262: 20,2404           00002                           DEC      2          B-14                       #        RELAY LATCHING
001263: 20,2405           11446        RSTRTST            CCS      CNTR                                  #  CHECK FOR RESTART ENTRY (PRE40.6)
001264: 20,2406           12446                           TCF      GIMTRIM    +2                         #  RESTART ENTRY....BYPASS 4 SECOND DELAY
001265:                                                                                                  #        TST,TRIM SETS +0 ON NORMAL ENTRY
001266: 20,2407           31444                           CAE      MRKRTMP                               #  CHECK FOR TEST/TRIM OR TRIM ONLY
001267: 20,2410           55446                           TS       CNTR                                  #        MRKRTMP SAVES CNTR FOR RESTARTS
001268: 20,2411           00006                           EXTEND
001269: 20,2412           62444                           BZMF     GIMTRIM                               #  (TRIM ONLY)
001270: 20,2413           44772        GDTSETUP           CS       ZERO                                  #  GIMBAL DRIVE TEST SETUP, FOR PITCH
001271: 20,2414           55446                           TS       CNTR
001272: 20,2415           32462        GIMDTEST           CAF      +2ACTDEG                              #  GIMBAL DRIVE TEST, 1ST INCREMENT
001273: 20,2416           02431                           TC       OUTPUT                                #        (LEAVES GIMBAL AT +2 DEG)
001274: 20,2417           32461                           CAF      -4ACTDEG                              #  2ND INCREMENT (LEAVES GIMBAL AT -2)
001275: 20,2420           02431                           TC       OUTPUT
001276: 20,2421           32462                           CAF      +2ACTDEG                              #  3RD INCREMENT (LEAVES GIMBAL AT -0)
001277: 20,2422           02431                           TC       OUTPUT
001278: 20,2423           41446                           CS       CNTR                                  #  CHECK FOR COMPLETION OF YAW TEST
001279: 20,2424           10000                           CCS      A
001280: 20,2425           12444                           TCF      GIMTRIM                               #  COMPLETED, GO TO GIMBAL TRIM ROUTINE
001281: 20,2426           44770                           CS       BIT1                                  #  SET UP YAW TEST
001282: 20,2427           55446                           TS       CNTR
001283: 20,2430           12415                           TCF      GIMDTEST                              #  FOR YAW TEST
001284: 20,2431           00006        OUTPUT             EXTEND                                         #  OUTPUT THE INCREMENT....SAVE Q
001285: 20,2432           23004                           QXCH     TEMPR60
001286: 20,2433           51446                           INDEX    CNTR
001287: 20,2434           54054                           TS       TVCPITCH
001288: 20,2435           51446                           INDEX    CNTR
001289: 20,2436           34756                           CAF      BIT11
001290: 20,2437           00006                           EXTEND
001291: 20,2440           05014                           WOR      CHAN14
001292: 20,2441           05255                           TC       FIXDELAY                              #  WAIT 2SEC, WHILE ASTRONAUT VERIFIES
001293: 20,2442           00310                           DEC      200        B-14                       #        GIMBAL MOTION ON GPI
001294: 20,2443           01004                           TC       TEMPR60
001295: 20,2444           05255        GIMTRIM            TC       FIXDELAY                              #  WAIT 4 SECONDS BEFORE GIMBAL TRIM
001296: 20,2445           00620                           DEC      400        B-14
001297: 20,2446           44772                 +2        CS       ZERO                                  #  PICK UP TRIM VALUES AND OUTPUT THEM
001298: 20,2447           61423                           AD       PACTOFF                               #        (AVOID +0) ENTRY POINT FROM RSTRTST
001299: 20,2450           54054                           TS       TVCPITCH                              #        ON A RESTART, TO AVOID 4SEC DELAY
001300: 20,2451           44772                           CS       ZERO
001301: 20,2452           61424                           AD       YACTOFF
001302: 20,2453           54053                           TS       TVCYAW
001303: 20,2454           35050                           CAF      PRIO6                                 #  RELEASE THE COUNTERS, BITS 11,12


001305: 20,2455           00006                           EXTEND
001306: 20,2456           05014                           WOR      CHAN14
001307: 20,2457           15314        ENDS40.6           TCF      TASKOVER
001308:
001309: 20,2460           02200        OCT02200           OCT      02200                                 #  BITS 8,11 FOR CHANNEL 12 TVC/OPTICS
001310: 20,2461           77527        -4ACTDEG           DEC      -168       B-14                       #  -2(+2ACTDEG), WHOLE BITS, NO ROUNDUP
001311: 20,2462           00124        +2ACTDEG           DEC      +84        B-14                       #  +2 DEG, SC.AT 85.41 ARCSEC/BIT (+84D)
001312:
001313:
001314: 27,2000                                           SETLOC   P40S5
001315: 27,2000                                           BANK
001316: 27,3032                                           COUNT*   $$/S41.1
001317: 27,3032           45020        S41.1              STQ      CALL
001318: 27,3033           03657                                    QTEMP
001319: 27,3034           47530                                    CDUTRIG
001320: 27,3035           77775                           VLOAD
001321: 27,3036           45121                           MXV      CALL
001322: 27,3037           01734                                    REFSMMAT
001323: 27,3040           47633                                    *SMNB*
001324: 27,3041           74321                           MXV      VXSC
001325: 27,3042           05014                                    QUADROT
001326: 27,3043           17047                                    TENBNK14                              #  VG IN CONTROL COORD IN MPAC SCALED AT
001327: 27,3044           52072                           VSL5     GOTO                                  #  VG IN CONTROL COORDS. IN MPAC AT 2(+7)
001328: 27,3045           03657                                    QTEMP
001329: 27,3046           24000 00000  TENBNK14           2DEC     10.        B-4
001330:
001331: 27,3050           00024 13714  THETACON           2DEC     .31830989  B-8
001332:
001333:
001334:                                                                                                  #  CALLED BY ..DONOUN46.. (VERB 48), OR DIRECTLY BY ..FRESHDAP.. (RCS DAP)
001335:
001336: 20,2000                                           SETLOC   DAPS6
001337: 20,2000                                           BANK                                           #  VIA IBNKCALL
001338: 20,2463                                           COUNT*   $$/S41.2
001339: 20,2463           31465        S41.2              CA       DAPDATR1
001340: 20,2464           76214                           MASK     THREE
001341: 20,2465           60000                           AD       A
001342: 20,2466           54774                           TS       RATEINDX
001343: 20,2467           00004                           INHINT
001344: 20,2470           31465                           CAE      DAPDATR1                              #  IS LEM ATTACHED (BITS 14,13 OF DAPDATR1
001345: 20,2471           74346                           MASK     PRIO30                                #                        =10)
001346: 20,2472           64751                           AD       -BIT14                                #  (OCT57777)
001347: 20,2473           00006                           EXTEND
001348: 20,2474           12501                           BZF      TOGETHER                              #  YES
001349: 20,2475           44767                           CS       ATTCHBIT                              #  NO, UNSET FLAG
001350: 20,2476           70103                           MASK     FLAGWRD7
001351: 20,2477           54103                           TS       FLAGWRD7
001352: 20,2500           12504                           TCF      +4
001353: 20,2501           40103        TOGETHER           CS       FLAGWRD7                              #  ATTACHED, SET FLAG FOR INTEGRATION
001354: 20,2502           74767                           MASK     ATTCHBIT


001356: 20,2503           26103                           ADS      FLAGWRD7
001357: 20,2504           00003                           RELINT
001358: 20,2505           31465                           CA       DAPDATR1
001359: 20,2506           74765                           MASK     BIT4
001360: 20,2507           00006                           EXTEND
001361: 20,2510           62512                           BZMF     +2                                    #  DEC 46 MEANS NARROW DB
001362: 20,2511           32612                           CA       DEC409
001363: 20,2512           62613                           AD       DEC46                                 #  DEC 455 MEANS WIDE DB
001364: 20,2513           55655                           TS       ADB
001365: 20,2514           31465                           CA       DAPDATR1
001366: 20,2515           74762                           MASK     BIT7                                  #  QUAD BD
001367: 20,2516           00006                           EXTEND
001368: 20,2517           62521                           BZMF     +2
001369: 20,2520           34770                           CA       ONE
001370: 20,2521           55631                           TS       XTRANS
001371: 20,2522           31465                           CA       DAPDATR1
001372: 20,2523           74757                           MASK     BIT10                                 #  QUAD AC
001373: 20,2524           00006                           EXTEND
001374: 20,2525           62527                           BZMF     +2
001375: 20,2526           44770                           CS       ONE
001376: 20,2527           27631                           ADS      XTRANS
001377: 20,2530           00004                           INHINT
001378: 20,2531           00006                           EXTEND
001379: 20,2532           12537                           BZF      +5                                    #  CLEAR NJETSFLG (4 JETS, OR NO JETS)
001380: 20,2533           40075                           CS       FLAGWRD1                              #  SET NJETSFLG   (2 JETS, AC OR BD QUADS)
001381: 20,2534           74752                           MASK     NJETSBIT                              #  NJETSFLG=1 FOR 2 JET ULLAGE (AC OR BD)
001382: 20,2535           26075                           ADS      FLAGWRD1
001383: 20,2536           12542                           TCF      +4
001384: 20,2537           44752                           CS       NJETSBIT                              #  NJETSFLG=0 FOR 4 JET (OR 0 JET) ULLAGE
001385: 20,2540           70075                           MASK     FLAGWRD1
001386: 20,2541           54075                           TS       FLAGWRD1
001387: 20,2542           00003                           RELINT
001388: 20,2543           31466                           CA       DAPDATR2
001389: 20,2544           74754                           MASK     BIT13
001390: 20,2545           00006                           EXTEND
001391: 20,2546           62550                           BZMF     +2
001392: 20,2547           12551                           TCF      +2
001393: 20,2550           44770                           CS       ONE
001394: 20,2551           40000                           COM
001395: 20,2552           55630                           TS       ACORBD                                #  MINUS FOR A-C, PLUS FOR B-D
001396: 20,2553           31466                           CA       DAPDATR2
001397: 20,2554           74757                           MASK     BIT10
001398: 20,2555           10000                           CCS      A
001399: 20,2556           12562                           TCF      +4
001400: 20,2557           34770                           CA       ONE
001401: 20,2560           55626                           TS       RACFAIL
001402: 20,2561           12572                           TCF      BDFAIL
001403: 20,2562           34772                           CA       ZERO
001404: 20,2563           55626                           TS       RACFAIL
001405: 20,2564           31466                           CA       DAPDATR2


001407: 20,2565           74765                           MASK     BIT4
001408: 20,2566           10000                           CCS      A
001409: 20,2567           12572                           TCF      BDFAIL
001410: 20,2570           44770                           CS       ONE
001411: 20,2571           55626                           TS       RACFAIL
001412: 20,2572           31466        BDFAIL             CA       DAPDATR2
001413: 20,2573           74762                           MASK     BIT7
001414: 20,2574           10000                           CCS      A
001415: 20,2575           12601                           TCF      +4
001416: 20,2576           34770                           CA       ONE
001417: 20,2577           55627                           TS       RBDFAIL
001418: 20,2600           00002                           TC       Q
001419: 20,2601           34772                           CA       ZERO
001420: 20,2602           55627                           TS       RBDFAIL
001421: 20,2603           31466                           CA       DAPDATR2
001422: 20,2604           74770                           MASK     BIT1
001423: 20,2605           10000                           CCS      A
001424: 20,2606           00002                           TC       Q
001425: 20,2607           44770                           CS       ONE
001426: 20,2610           55627                           TS       RBDFAIL
001427: 20,2611           00002                           TC       Q
001428:


001430: 16,2000                                           SETLOC   P40S1
001431: 16,2000                                           BANK
001432: 16,2065  E6,1724                                  EBANK=   NBRCYCLS
001433: 16,2065                                           COUNT*   $$/S40.1
001434: 16,2065           45345        S40.1B             DLOAD    DSU                                   #  LAMBERT
001435: 16,2066           03413                                    TIG
001436: 16,2067           34531                                    TWODT
001437: 16,2070           14041                           STODL    TDEC1
001438: 16,2071           03656                                    TPASS4
001439: 16,2072           77625                           DSU
001440: 16,2073           00041                                    TDEC1
001441: 16,2074           37423                           STCALL   DELLT4
001442: 16,2075           61650                                    AGAIN
001443: 16,2076           77775                           VLOAD
001444: 16,2077           03612                                    VIPRIME
001445: 16,2100           17713                           STODL    UT
001446: 16,2101           03413                                    TIG
001447: 16,2102           00041                           STORE    TDEC1
001448: 16,2103           77621                           BDSU
001449: 16,2104           03656                                    TPASS4
001450: 16,2105           37423                           STCALL   DELLT4
001451: 16,2106           61650                                    AGAIN
001452: 16,2107           41575                           VLOAD    PUSH
001453: 16,2110           03646                                    DELVEET3
001454: 16,2111           37721                           STCALL   VGTIG
001455: 16,2112           11200                                    GET.LVC
001456: 16,2113           77601                           SETPD
001457: 16,2114           00001                                    00D
001458: 16,2115           45175        CALCUT             VLOAD    CALL
001459: 16,2116           03632                                    RTIG
001460: 16,2117           77270                                    CALCGRAV                              #  GDELTAT IN MPAC AT 2(+7) M/CS
001461: 16,2120           70372                           VSL1     V/SC
001462: 16,2121           34523                                    200CS                                 #  G AT 2(-5) M/CS.CS
001463: 16,2122           52315                           PDVL     VSU
001464: 16,2123           03612                                    VIPRIME
001465: 16,2124           03713                                    UT
001466: 16,2125           52341                           V/SC     VSU
001467: 16,2126           34523                                    200CS
001468: 16,2127           72561                           VXSC     VSL2
001469: 16,2130           03703                                    CSTEER
001470: 16,2131           24015                           STOVL    12D                                   #  B.C SCALED AT 2(-5) PDL 12D
001471: 16,2132           03721                                    VGTIG
001472: 16,2133           41456                           UNIT     PUSH                                  #  UG PDL 0 SCALED AT 2(+1)
001473: 16,2134           74241                           DOT      VXSC
001474: 16,2135           00015                                    12D
001475: 16,2136           00001                                    0
001476: 16,2137           51352                           VSL2     BVSU
001477: 16,2140           00015                                    12D
001478: 16,2141           14015                           STODL    12D                                   #  Q PDL 12D SCALED AT 2(-5)


001480: 16,2142           03727                                    F
001481: 16,2143           56261                           SRR      DDV
001482: 16,2144           21605                                    4
001483: 16,2145           03076                                    WEIGHT/G
001484: 16,2146           63316                           DSQ      PDVL                                  #  F/MASS SQUARED PDL 6 AT 2(-10)M/(CS.CS)
001485: 16,2147           00015                                    12D
001486: 16,2150           77636                           VSQ
001487: 16,2151           75421                           BDSU     SQRT
001488: 16,2152           76561                           VXSC     VSL1
001489: 16,2153           53455                           VAD      UNIT
001490: 16,2154           00015                                    12D
001491: 16,2155           37713                           STCALL   UT
001492: 16,2156           50331                                    S40.2,3                               #  **** NO RETURN **** SAME AS GOTO S40.2,3
001493:
001494: 16,2157                                           COUNT*   $$/S40.2
001495: 16,2157           77775        S40.2,3B           VLOAD
001496: 16,2160           11760                                    XUNIT
001497: 16,2161           27351                           STOVL    SCAXIS
001498: 16,2162           03713                                    UT
001499: 16,2163           00307                           STORE    XSCREF
001500: 16,2164           53435                           VXV      UNIT
001501: 16,2165           03632                                    RTIG
001502: 16,2166           34007                           STCALL   6D
001503: 16,2167           61702                                    TSTRXUT
001504: 16,2170           00315                           STORE    YSCREF
001505: 16,2171           57435                           VXV      VCOMP
001506: 16,2172           00307                                    XSCREF
001507: 16,2173           77772                           VSL1
001508: 16,2174           34323                           STCALL   ZSCREF                                #  ZNB AXIS IN REF COOR
001509: 16,2175           50444                                    P40SXTY                               #  **** NO RETURN **** SAME AS GOTO P40SXTY
001510:


001512:
001513:                                                                                                  #  NAME          S40.8 - CROSS PRODUCT STEERING
001514:                                                                                                  #  FUNCTION      (1) UPDATES THE VELOCITY-TO-BE-GAINED VECTOR.
001515:                                                                                                  #                (2) GENERATES ANGULAR RATE STEERING COMMANDS FOR AUTOPILOT.
001516:                                                                                                  #                (3) ESTABLISHES ENGINE CUT-OFF SIGNALS AT APPROPRIATE TIMES.
001517:                                                                                                  #                (4) INITIATES THRUST-FAIL ROUTINE, R40
001518:                                                                                                  #                (5) UPDATES CSMMASS
001519:
001520:                                                                                                  #  INPUT         VGPREV  - LAST VALUE OF THE VELOCITY-TO-BE-GAINED VECTOR
001521:                                                                                                  #                          PRIOR TO UPDATING IN METERS/CS AT +7.
001522:                                                                                                  #                DELVREF - CHANGE IN VEHICLE VELOCITY SINCE LAST MEASUMEMENT
001523:                                                                                                  #                          IN METERS/CS AT +7.
001524:                                                                                                  #                BDT     - EFFECT OF RATE OF CHANGE OF REQUIRED VELOCITY AND
001525:                                                                                                  #                          GRAVITY DURING DT UPON VELOCITY-TO-BE-GAINED IN
001526:                                                                                                  #                          METERS/CS AT +7.
001527:                                                                                                  #                CSTEER  - A SCALAR OF THE STEERING LAW, SC.AT B+1, USED FOR
001528:                                                                                                  #                          SPS AIMPOINT STEERING MANEUVERS
001529:                                                                                                  #                IDLEFAIL- A FLAG TO INHIBIT (IDLE) THE THRUST-FAIL ROUTINE
001530:                                                                                                  #                STEERSW - A SWITCH TO PRECLUDE NEEDLESS CONDUCT OF STEERING
001531:                                                                                                  #                REFSMMAT, DAPDATR1, PIPTIME
001532:                                                                                                  #                EREPFRAC, ETDECAY, KPRIMEDT FOR TVC
001533:
001534:                                                                                                  #  OUTPUT        TTOGO   - TIME REMAINING FOR ENGINE BURN IN CS AT +28
001535:                                                                                                  #                OMEGAC  - DP VECTOR RATE COMMAND, SC.AT 1/(2TVCDT) REVS/SEC
001536:                                                                                                  #                VG, VGPREV, VGDISP, TGO, TIG, SCALED AS NOTED IN CODING
001537:                                                                                                  #                STEERSW, IMPULSW, NVWORD1
001538:                                                                                                  #                REPFRAC, CNTR, VCNTR, VCNTRTMP FOR TVC (R40 INTERFACING)
001539:
001540:                                                                                                  #  SUBROUTINES USED      - *SMNB*, ALARM
001541:
001542: 16,2176  E6,1465                                  EBANK=   DAPDATR1
001543: 16,2176                                           COUNT*   $$/S40.8
001544: 16,2176           06006        S40.8              TC       INTPRET
001545: 16,2177           45001                           SETPD    CALL
001546: 16,2200           00001                                    00D
001547: 16,2201           34331                                    UPDATEVG
001548: 16,2202           77745                           DLOAD
001549: 16,2203           03074                                    CSMMASS                               #                                KG      B-16
001550: 16,2204           03335                           STORE    MASSTMP
001551: 16,2205           77776                           EXIT
001552: 16,2206           05402                           TC       PHASCHNG
001553: 16,2207           10035                           OCT      10035                                 #  TYPE B RESTART BELOW AND 5.3 REREADAC
001554: 16,2210  01,2250               5P3SPT4            =        5.3SPOT
001555: 16,2210           06006                           TC       INTPRET
001556: 16,2211           51575                           VLOAD    ABVAL
001557: 16,2212           03432                                    DELVREF                               #  DELTA V                       M/CS    B-7
001558: 16,2213           67206                           PUSH     SLOAD                                 #  00D = DELTA V MAG             M/CS    B-7
001559: 16,2214           01345                                    DVTHRESH                              #                                M/CS    B+2
001560: 16,2215           44205                           DMP      BDSU
001561: 16,2216           34533                                    DPB-9                                 #  DVTHRESH                      M/CS    B-7
001562: 16,2217           67240        LOCHECK            BMN      SLOAD
001563: 16,2220           51143                                    LOTHRUST                              #  ** MAYBE THRUST BAD **
001564:                                                                                                  #  THRUST GOOD : UPDATE CSMMASS
001565: 16,2221           01351                                    EMDOT                                 #  FLOW RATE                     KG/CS   B-3


001567: 16,2222           44205                           DMP      BDSU
001568: 16,2223           34530                                    FOURSEC    +1                         #  20D B-13 : MPAC = 2 SECS MASS LOSS
001569: 16,2224           03335                                    MASSTMP
001570: 16,2225           03074        UPD8MASS           STORE    CSMMASS                               #  CSMMASS UPDATED FOR LAST 2 SECS
001571: 16,2226           77614                           BOFF
001572: 16,2227           01344                                    STEERSW                               #  NO STEERING :
001573: 16,2230           51603                                    SERVXT1                               #  BYPASS TGOCALC AND X-PRODUT
001574: 16,2231           77414        CGTRACK            BON      EXIT                                  #  ENABLE TVCDAP CG TRACKING
001575: 16,2232           04700                                    SWTOVER
001576: 16,2233           34325                                    FREPSET                               #  V46 SWITCHOVER HAS OCCURRED (CSM/LM)
001577: 16,2234           31465                           CAE      DAPDATR1                              #  ENABLE TVCDAP CG TRACKING
001578: 16,2235           74753                           MASK     BIT14
001579: 16,2236           10000                           CCS      A
001580: 16,2237           34770                           CAF      BIT1
001581: 16,2240           50000                           INDEX    A                                     #  LM-OFF, LM-ON VALUE
001582: 16,2241           31421                           CAE      EREPFRAC
001583: 16,2242           55633        REPFRACS           TS       REPFRAC
001584:
001585: 16,2243           06006                           TC       INTPRET
001586: 16,2244           51375        TGOCALC            VLOAD    BVSU                                  #  GET DELVG
001587: 16,2245           03432                                    DELVREF
001588: 16,2246           03705                                    BDT
001589: 16,2247           77656                           UNIT
001590: 16,2250           41441                           DOT      PUSH                                  #  (00D)
001591: 16,2251           03460                                    VG
001592: 16,2252           56244                           BPL      DDV                                   #  ANGLE SHOULD BE GREATER THAN PI/2
001593: 16,2253           51137                                    INCRSVG                               #        DISPLAY ALARM IF NOT
001594: 16,2254           34632                                    2VEXHUST
001595: 16,2255           41215                           DAD      DMP                                   #  (DOT PRODUCT UP FROM 00D)
001596: 16,2256           11760                                    LODPHALF
001597: 16,2257           70501                           NORM     SR1
001598: 16,2260           00047                                    X1
001599: 16,2261           60325                           PDDL     NORM
001600: 16,2262           00045                                    36D                                   #  (MAG DELVG)
001601: 16,2263           00050                                    X2
001602: 16,2264           77665                           BDDV
001603: 16,2265           53664                           XSU,2    SL*
001604: 16,2266           00046                                    X1
001605: 16,2267           57607                                    0          -9D,2
001606: 16,2270           41405                           DMP      PUSH                                  #  (00D)
001607: 16,2271           34525                                    -FOURDT
001608: 16,2272           54335                           SLOAD    SR
001609: 16,2273           03014                                    ETDECAY                               #  ETDECAY SC.AT B+14 CS
001610: 16,2274           20617                                    14D
001611: 16,2275           45421                           BDSU     STADR
001612: 16,2276           74347                           STORE    TGO                                   #  TIME TO GO IN CS. AT +28
001613: 16,2277           77615                           DAD
001614: 16,2300           01044                                    PIPTIME
001615: 16,2301           17413                           STODL    TIG
001616: 16,2302           03430                                    TGO


001618: 16,2303           50025                           DSU      BMN
001619: 16,2304           34527                                    FOURSEC
001620: 16,2305           51102                                    S40.81
001621:
001622: 16,2306           74375        XPRODUCT           VLOAD    VXSC
001623: 16,2307           03705        STEERING                    BDT
001624: 16,2310           03703                                    CSTEER
001625: 16,2311           52352                           VSL2     VSU
001626: 16,2312           03432                                    DELVREF
001627: 16,2313           63256                           UNIT     PDVL
001628: 16,2314           03460                                    VG
001629: 16,2315           47256                           UNIT     VXV
001630: 16,2316           45121                           MXV      CALL
001631: 16,2317           01734                                    REFSMMAT                              #  (REFSMMAT/2)
001632: 16,2320           47633                                    *SMNB*
001633: 16,2321           77761                           VXSC
001634: 16,2322           03227                                    KPRIMEDT                              #  (KPRIMEDT SCIAT PI/8 RAD)
001635: 16,2323           37126        OMEGACLC           STCALL   OMEGAC
001636: 16,2324           51603                                    SERVXT1
001637: 16,2325           77545        FREPSET            DLOAD    EXIT                                  #  POST-SQITCHOVER CSM/LM.  LOAD FROM LOW-
001638: 16,2326           36534                                    FREPFRAC                              #        BANDWIDTH PARAMETER IN FIXED MEMORY
001639: 16,2327           30154                           CAE      MPAC
001640: 16,2330           12242                           TCF      REPFRACS
001641:


001643:
001644: 16,2331           43020        UPDATEVG           STQ      BON
001645: 16,2332           03374                                    R61CNTR
001646: 16,2333           01307                                    XDELVFLG
001647: 16,2334           34360                                    VGCOMP
001648: 16,2335           50135                           SLOAD    BMN
001649: 16,2336           03325                                    NBRCYCLS
001650: 16,2337           61721                                    SETUP.9
001651: 16,2340           53375                           VLOAD    VAD
001652: 16,2341           03327                                    DELVSUM
001653: 16,2342           03432                                    DELVREF
001654: 16,2343           03335                           STORE    DELVSUMP
001655: 16,2344           77776                           EXIT
001656: 16,2345           34770                           CA       ONE
001657: 16,2346           61724                           AD       NBRCYCLS
001658: 16,2347           55725                           TS       NBRCYCLP
001659: 16,2350           05402                           TC       PHASCHNG                              #  TYPE B RESTART BELOW AND 5.3 REREADACCS
001660: 16,2351           10035                           OCT      10035
001661: 16,2352  01,2250               5P3SPT5            =        5.3SPOT
001662: 16,2352           31725                           CA       NBRCYCLP
001663: 16,2353           55724                           TS       NBRCYCLS
001664: 16,2354           06006                           TC       INTPRET
001665: 16,2355           77775                           VLOAD
001666: 16,2356           03335                                    DELVSUMP
001667: 16,2357           03327                           STORE    DELVSUM
001668: 16,2360           77775        VGCOMP             VLOAD
001669: 16,2361           03432                                    DELVREF                               #  CONSTRUCT DELVG, SC.AT B-7 M/CS
001670: 16,2362           53245                           BVSU     VAD
001671: 16,2363           03705                                    BDT
001672: 16,2364           03721                                    VGPREV
001673: 16,2365           03460                           STORE    VG                                    #  VELOCITY-TO-BE-GAINED, SC.AT B-7  M/CS
001674: 16,2366           77646                           ABVAL
001675: 16,2367           03763                           STORE    VGDISP                                #  FOR DISPLAY PURPOSES
001676: 16,2370           77776                           EXIT
001677: 16,2371           05402                           TC       PHASCHNG
001678: 16,2372           10035                           OCT      10035                                 #  TYPE B RESTART BELOW AND 5.3 REREADAC
001679: 16,2373  01,2250               5P3SPT6            =        5.3SPOT
001680: 16,2373           06006                           TC       INTPRET
001681: 16,2374           77775                           VLOAD
001682: 16,2375           03460                                    VG
001683: 16,2376           37721                           STCALL   VGPREV
001684: 16,2377           03374                                    R61CNTR
001685:


001687:
001688:                                                                                                  #  NAME          S40.9 - VTOGAIN (AIMPOINT MANEUVERS ONLY)
001689:
001690:                                                                                                  #  FUNCTION      (1) GENERATES REQUIRED VELOCITY AND VELOCITY-TO-BE-GAINED
001691:                                                                                                  #                VECTORS FOR USE DURING AIMPOINT MANEUVERS
001692:                                                                                                  #                (2) UPDATES THE B VECTOR WHICH IS USED IN THE FINAL
001693:                                                                                                  #                CALCULATION OF EXTRAPOLATING THE VELOCITY-TO-BE-GAINED
001694:
001695:                                                                                                  #  CALLING SEQ   VIA FINDVAC AS NEW JOB.
001696:
001697:                                                                                                  #  INPUT         RNIT    - ACTIVE VEHICLE RADIUS VECTOR IN METERS AT +29.
001698:                                                                                                  #                VNIT    - ACTIVE VEHICLE VELOCITY VECTOR IN METERS/CS AT +7
001699:                                                                                                  #                VRPREV  - LAST COMPUTED VELOCITY REQUIRED VECTOR IN
001700:                                                                                                  #                          METERS/CS AT +7.
001701:                                                                                                  #                NOMTIG  - TIME OF IGN. USED IN TARGETTING ROUTINES@+28"
001702:                                                                                                  #                DELLT4  - TRANSFER TIME FROM PIPTIME TO TARGET@+28"
001703:                                                                                                  #                TNIT    - TIME OF RNIT AND VNIT IN CS AT +28
001704:                                                                                                  #                GDT/2   - HALF OF VELOCITY GAINED IN DELTA T TIME DUE TO
001705:                                                                                                  #                          ACCELERATION OF GRAVITY IN METERS/CS AT +7.
001706:                                                                                                  #                DELVREF - CHANGE IN VELOCITY DURING LAST 2 SEC IN
001707:                                                                                                  #                          METERS/CS AT +7.
001708:                                                                                                  #                NORMSW  SET=CENTRAL ANGLE BETWEEN RTARG AND RTIG IS BETWEEN
001709:                                                                                                  #                        165 TO 195 DEGREES
001710:                                                                                                  #                        RESET=CENTRAL ANGLE OUTSIDE CONE DESCRIBED ABOVE
001711:
001712:                                                                                                  #  OUTPUT        VGTEMP  - VELOCITY TO BE GAINED VECTOR IN METERS/CS AT +7.
001713:                                                                                                  #                COGA    - INPUT OF INITIAL GUESS FOR LAMBERT FROM S40.1
001714:                                                                                                  #                          OR PREVIOUS PASS THRU S40.9
001715:                                                                                                  #                GOBL/2  - OBLATENESS TERM IN AVG GRAV CALC - GOBL*RSQ/MU
001716:                                                                                                  #                VRPREV  - VELOCITY REQUIRED VECTOR IN METERS/CS AT +7.
001717:                                                                                                  #                BDT     - B VECTOR IN METERS/CS AT +7.
001718:
001719:                                                                                                  #  SUBROUTINES USED  -  INITVEL
001720:
001721: 16,2400                                           COUNT*   $$/S40.9
001722: 16,2400           06006        S40.9              TC       INTPRET
001723: 16,2401           71201                           SETPD    DLOAD
001724: 16,2402           00001                                    00D
001725: 16,2403           11762                                    LO6ZEROS
001726: 16,2404           43125                           PDDL     BON
001727: 16,2405           34517                                    EP4(45)L
001728: 16,2406           03705                                    NORMSW
001729: 16,2407           34412                                    +3
001730: 16,2410           77745                           DLOAD
001731: 16,2411           34521                                    EP4(10)L
001732: 16,2412           77606                           PUSH
001733: 16,2413           45014                           CLEAR    CALL
001734: 16,2414           00675                                    GUESSW
001735: 16,2415           22002                                    HAVEGUES
001736: 16,2416           77776                           EXIT
001737: 16,2417           05402                           TC       PHASCHNG                              #  SAVE TIME BY NOT REDOING LAMBERT CALCS
001738: 16,2420           05021                           OCT      05021                                 #  C, PRIORITY NEXT, JOB BELOW
001739: 16,2421           10000                           OCT      10000
001740: 16,2422           06006                           TC       INTPRET
001741: 16,2423           77214        ENDLAMB            BON      VLOAD
001742: 16,2424           01310                                    FIRSTFLG


001744: 16,2425           34442                                    FIRSTTME
001745: 16,2426           03612                                    VIPRIME
001746: 16,2427           65251                           VSU      PDDL
001747: 16,2430           03466                                    VRPREV
001748: 16,2431           03474                                    TNIT
001749: 16,2432           54225                           DSU      SL
001750: 16,2433           03476                                    TNITPREV
001751: 16,2434           20222                                    17D
001752: 16,2435           74265                           BDDV     VXSC
001753: 16,2436           34523                                    200CS
001754: 16,2437           76451                           VSU      VSL1
001755: 16,2440           01046                                    GDT/2
001756: 16,2441           03705                           STORE    BDT
001757: 16,2442           57535        FIRSTTME           SLOAD    DCOMP
001758: 16,2443           03747                                    RTX2
001759: 16,2444           77640                           BMN
001760: 16,2445           34462                                    MOONCASE
001761: 16,2446           53575                           VLOAD    UNIT
001762: 16,2447           01030                                    RN
001763: 16,2450           45345                           DLOAD    DSU
001764: 16,2451           01044                                    PIPTIME
001765: 16,2452           03450                                    NOMTIG
001766: 16,2453           56205                           DMP      DDV
001767: 16,2454           34515                                    EARTHMU
001768: 16,2455           00043                                    34D
001769: 16,2456           53361                           VXSC     VAD
001770: 16,2457           01054                                    GOBL/2
001771: 16,2460           03646                                    VGTEMP                                #  NOTE  NO TEST IS MADE TO SUBTRACT GOBL
001772: 16,2461           03646                           STORE    VGTEMP                                #  INSIDE 165-195 DEGREE CONE AREA.
001773: 16,2462           77776        MOONCASE           EXIT
001774: 16,2463           05402                           TC       PHASCHNG
001775: 16,2464           04021                           OCT      04021                                 #  C, JOB BELOW
001776: 16,2465           06006        COPY40.9           TC       INTPRET
001777: 16,2466           77745                           DLOAD
001778: 16,2467           03474                                    TNIT
001779: 16,2470           27476                           STOVL    TNITPREV
001780: 16,2471           03612                                    VIPRIME
001781: 16,2472           03466                           STORE    VRPREV
001782: 16,2473           77414                           CLEAR    EXIT
001783: 16,2474           01270                                    FIRSTFLG
001784: 16,2475           44770                 -2        CS       ONE                                   #  REDO40.9 (RESTART) ENTRY TO END S40.9
001785: 16,2476           55724                           TS       NBRCYCLS
001786: 16,2477           05402        ENDS40.9           TC       PHASCHNG
001787: 16,2500           00001                           OCT      00001
001788: 16,2501           15205                           TCF      ENDOFJOB
001789:
001790: 16,2502           06006        REDO40.9           TC       INTPRET                               #  S40.9 RESTARTS COME HERE TO GRACEFULLY
001791: 16,2503           77775                           VLOAD                                          #        TERMINATE S40.9 SO THAT IT CAN BE
001792: 16,2504           11762                                    LO6ZEROS                              #        SET UP WITH LATEST R,V,T NEXT PASS
001793: 16,2505           17327                           STODL    DELVSUM                               #        (TYPE C PHASE POINTS '04021' WILL


001795: 16,2506           11762                                    LO6ZEROS                              #        FORCE NORMAL S40.9 TERMINATIONS,
001796: 16,2507           27325                           STOVL    NBRCYCLS                              #        RATHER THAN LOSE TIME OF BRAND NEW
001797: 16,2510           03721                                    VGPREV                                #        PASS -- QUICK OLD DATA BETTER THAN
001798: 16,2511           03646                           STORE    VGTEMP                                #        NONE) NOW CAN GO THRU SETUP.9
001799: 16,2512           77776                           EXIT                                           #        WITHOUT DISTURBING VGPREV
001800: 16,2513           12475                           TCF      ENDS40.9   -2                         #  STORE 0,0 COVERED NBRCYCLS,P -- FIX UP S
001801:
001802: 16,2514           55340 61710  EARTHMU            2DEC*    -3.986032  E10        B-36*
001803:
001804: 16,2516           04000 00000  EP4(45)L           2DEC     .125
001805:
001806: 16,2520           00707 03434  EP4(10)L           2DEC     .027777777
001807:
001808: 16,2522           01440 00000  200CS              2DEC     200        B-12
001809:
001810: 16,2524           77715 77777  -FOURDT            2DEC     -800       B-18                       #  -4(200CS), AT B+18CS (-4 FOR SCALING)
001811:
001812: 16,2526           00000 00620  FOURSEC            2DEC     400.0      B-28                       #  4 SEC
001813:
001814: 16,2530           00000 00310  TWODT              2DEC     200.0      B-28                       #  **** MUST FOLLOW 2DEC FOURSEC TO   ****
001815:                                                                                                  #  **** MAKE FOURSEC +1 2DEC 200 B-13 ****
001816:
001817: 16,2532           00040 00000  DPB-9              2DEC     1          B-9
001818:


001820:
001821:                                                                                                  #  NAME                  S40.13 - TIMEBURN
001822:
001823:                                                                                                  #  FUNCTION              TO DETERMINE
001824:                                                                                                  #                        (1) WHETHER A GIVEN COMBINATION OF VELOCITY-TO-
001825:                                                                                                  #                        BE-GAINED AND ENGINE CHOICE RESULT IN A BURN TIME SUFFICIENT
001826:                                                                                                  #                        TO ALLOW STEERING AT THE VEHICLE DURING THE BURN
001827:                                                                                                  #                        (2) THE MAGNITUDE OF THE RESULTING BURN TIME, AND
001828:                                                                                                  #                        (3) IF THE BURN TIME IS < 6 SECONDS,
001829:                                                                                                  #                        THE ASSOCIATED TIME OF THE ENGINE-OFF SIGNAL
001830:
001831:                                                                                                  #  CALLING SEQ           VIA FINDVAC AS NEW JOB.
001832:
001833:                                                                                                  #  INPUT                 VGDISP   - MAGNITUDE OF VGTIG IN M/CS AT +7
001834:                                                                                                  #                        WEIGHT/G - MASS OF VEHICLE IN KG AT TIG (+16)
001835:                                                                                                  #                        F        - ENGINE THRUST IN M.NEWTONS AT +7
001836:                                                                                                  #                        MDOT     - RATE OF DECREASE OF VEHICLE MASS DURING
001837:                                                                                                  #                                   BURN IN KG/CS AT +3
001838:
001839:                                                                                                  #  OUTPUT                IMPULSW  - ZERO FOR STEERING
001840:                                                                                                  #                                 - ONE FOR ATTITUDE HOLD
001841:                                                                                                  #                        TGO      - BURN TIME IN CS AT +28
001842:
001843:                                                                                                  #        THE QUANTITY M.NEWTON SHALL BE USED TO EXPRESS WEIGHT IN TERMS OF
001844:                                                                                                  #        (KILOGRAM*METER)/(CENTISECOND*CENTISECOND)
001845:                                                                                                  #        (1) M.NEWTON = (10000) NEWTONS
001846:
001847: 16,2534                                           COUNT*   $$/40.13
001848: 16,2534           34762        S40.13             CAF      BIT7                                  #  TEST +X TRANSLATION
001849: 16,2535           00006                           EXTEND
001850: 16,2536           06031                           RXOR     CHAN31
001851: 16,2537           74762                           MASK     BIT7
001852: 16,2540           54157                           TS       MPAC       +3
001853: 16,2541           06006                           TC       INTPRET
001854: 16,2542           41545                           DLOAD    PUSH                                  #  00D = |VGTIG| AT +7
001855: 16,2543           03763                                    VGDISP
001856: 16,2544           53135                           SLOAD    BZE
001857: 16,2545           00160                                    MPAC       +3                         #  BIT7 CHAN31
001858: 16,2546           34556                                    S40.130    +1                         #  DO NOT COMPENSATE FOR 7 SECS OF ULLAGE
001859: 16,2547           56345                           DLOAD    DDV
001860: 16,2550           34630                                    S40.135                               #  COMPENSATION FOR 2 JET ULLAGE AT +24
001861: 16,2551           03076                                    WEIGHT/G                              #  MASS IN KGMS AT +16
001862: 16,2552           72414                           BON      SL1                                   #  DOUBLE CORRECTION IF FOUR JETS
001863: 16,2553           00700                                    NJETSFLG
001864: 16,2554           34555                                    S40.130
001865: 16,2555           41421        S40.130            BDSU     PUSH                                  #  00D = MAG(VGTIG) @ B+7 M/CS, ADJUSTED
001866:                                                                                                  #        FOR ULLAGE.
001867: 16,2556           56345                 +1        DLOAD    DDV                                   #  ENTRY POINT IF ULLAGE OFF
001868: 16,2557           00001                                    00D                                   #  MAKE SURE MPAC CONTAINS MAG(VGTIG)
001869: 16,2560           34632                                    2VEXHUST                              #  2 VEXHAUST (=2G ISP) @ B+7 M/CS
001870: 16,2561           44342                           SR1      BDSU
001871: 16,2562           11760                                    LODPHALF                              #  0.5
001872: 16,2563           41205                           DMP      DMP
001873: 16,2564           03076                                    WEIGHT/G                              #  TOTAL MASS @ B+16 KG
001874: 16,2565           00001                                    00D                                   #  MAG(VGTIG) @ B+7 M/CS
001875: 16,2566           40061                           SL       BOV
001876: 16,2567           20213                                    10D                                   #  SCALING


001878: 16,2570           34617                                    S40.133                               #  LARGE VG : STEERING BURN INDICATED
001879: 16,2571           41225                           DSU      DMP
001880: 16,2572           01764                                    EIMP1SEC                              #  IMP BURN LOGIC B.P. @ E+2B+14 NEWT-SEC
001881: 16,2573           34624                                    100B-14                               #  1SEC @ B+14CS
001882: 16,2574           41471                           DDV      PUSH                                  #  02D=(DELTET-1SEC) @ B+14CS, FIMP16 SLOPE
001883: 16,2575           01766                                    EFIMP16                               #  IMP B.LOGIC 1-6SEC SLOPE @ E+2B+14 NEWT
001884: 16,2576           51025                           DSU      BPL
001885: 16,2577           34626                                    500B-14                               #  5SEC @ B+14CS
001886: 16,2600           34617                                    S40.133                               #  STEERING BURN INDICATED, DELTAT > 6 SEC
001887: 16,2601           51145                           DLOAD    BPL
001888: 16,2602           00003                                    02D                                   #  (DELTAT-1SEC) @ B+14CS, FIMP16 SLOPE
001889: 16,2603           34607                                    S40.132                               #  1<DELTAT<6SEC, SO FIMP16 SLOPE USE IS OK
001890: 16,2604           56205                           DMP      DDV                                   #  0<DELTAT<1SEC, SO USE FIMP01 NOT FIMP16
001891: 16,2605           01766                                    EFIMP16                               #  IMP B.LOGIC 1-6SEC SLOPE @ E+2B+14 NEWT
001892: 16,2606           01765                                    EFIMP01                               #  IMP B.LOGIC 0-1SEC SLOPE @ E+2B+14 NEWT
001893: 16,2607           77414        S40.132            SET      EXIT
001894: 16,2610           01066                                    IMPULSW                               #  IMPULSIVE BURN
001895: 16,2611           07224                           TC       DPAGREE
001896: 16,2612           06006                           TC       INTPRET
001897: 16,2613           54215                           DAD      SR                                    #  MPAC CONTAINS (DELTA-1SEC), GET DELTAT
001898: 16,2614           34624                                    100B-14                               #  1SEC @ B+14CS
001899: 16,2615           20617                                    14D                                   #  DELTAT @ B+28CS
001900: 16,2616           03430                           STORE    TGO
001901: 16,2617           77776        S40.133            EXIT
001902: 16,2620           05402                           TC       PHASCHNG
001903: 16,2621           00003                           OCT      3
001904: 16,2622           15205                           TCF      ENDOFJOB
001905:
001906: 16,2623                                           COUNT    17/40.13
001907:
001908: 16,2623           00144 00000  100B-14            2DEC     100.00     B-14                       #  1SEC @ B+14CS
001909:
001910: 16,2625  16,2623               1SEC2D             =        100B-14
001911:
001912: 16,2625           00764 00000  500B-14            2DEC     500.00     B-14                       #  5SEC @ B+14CS
001913: 16,2627  16,2625               5SECOND            =        500B-14
001914: 16,2627           00000 04263  S40.135            2DEC     69.6005183 B-23                       #  IMPULSE FROM 7.96 SECS OF 2-JET FIRING
001915:                                                                                                  #        7.96 (199.6)COS(10) LB-SEC, SC.AT
001916:                                                                                                  #        B+23 NEWTON-SEC/E+2 (7 SEC ULLAGE
001917:                                                                                                  #        TO GO, PLUS 0.96 SEC FROM PIPTIME)
001918:
001919: 16,2631           17602 25124  2VEXHUST           2DEC     63.020792  B-7                        #  2(10338.0564 FPS), AT B+7 M/CS
001920:
001921: 16,2633  30,2000                                  SBANK=   LOWSUPER
001922: 20,2000                                           SETLOC   DAPS6
001923: 20,2000                                           BANK
001924:
001925: 20,2612                                           COUNT*   $$/40.14
001926: 20,2612           00631        DEC409             DEC      409        B-14
001927: 20,2613           00056        DEC46              DEC      46         B-14
001928:


001930:
001931:                                                                                                  #  CALLED BY ..DONOUN47.. (VERB 48), OR DIRECTLY BY ..FRESHDAP.. (RCS DAP)
001932:
001933: 20,2614  E6,1465                                  EBANK=   DAPDATR1
001934: 20,2614           31467        S40.14             CAE      IXX                                   #  RCS ENTRY
001935: 20,2615           00006                           EXTEND
001936: 20,2616           72641                           MP       CONTONE
001937: 20,2617           55623                           TS       J/M
001938: 20,2620           31470                           CA       IAVG
001939: 20,2621           00006                           EXTEND
001940: 20,2622           72641                           MP       CONTONE
001941: 20,2623           55624                           TS       J/M1
001942: 20,2624           55625                           TS       J/M2
001943: 20,2625           00006                           EXTEND
001944: 20,2626           32643                           DCA      CONTTWO
001945: 20,2627           00006                           EXTEND
001946: 20,2630           11467                           DV       IXX
001947: 20,2631           55620                           TS       KMJ
001948: 20,2632           00006                           EXTEND
001949: 20,2633           32643                           DCA      CONTTWO
001950: 20,2634           00006                           EXTEND
001951: 20,2635           11470                           DV       IAVG
001952: 20,2636           55621                           TS       KMJ1
001953:
001954: 20,2637           55622                           TS       KMJ2
001955: 20,2640           00002                           TC       Q
001956:
001957: 20,2641           25137        CONTONE            DEC      .662034                               #  2PI/M
001958: 20,2642           00023 12522  CONTTWO            2DEC     .00118
001959:
001960: 21,2000                                           SETLOC   DAPS3
001961: 21,2000                                           BANK
001962: 21,2032                                           COUNT*   $$/RCSUP
001963: 21,2032           22016        RCSUP              LXCH     BANKRUPT
001964: 21,2033           00006                           EXTEND
001965: 21,2034           22012                           QXCH     QRUPT
001966: 21,2035           02042                           TCR      RCSDAPON                              #  ACTIVATE RCS DAP
001967: 21,2036           15323                           TCF      RESUME
001968:
001969: 21,2037  E6,1465                                  EBANK=   DAPDATR1
001970: 21,2037           02140 42066  RCSADDR            2CADR    RCSATT
001971:
001972: 21,2041           37704        0.6SECT5           OCT      37704
001973:
001974: 21,2042  E6,1465                                  EBANK=   DAPDATR1
001975:                                                                                                  #  RCSDAPON ENTRY MUST BE UNDER INT-INHIBIT
001976: 21,2042           32041        RCSDAPON           CAF      0.6SECT5                              #  0.6 SEC ALLOWS TVCEXEC/ROLLDAP TO DIE


001978: 21,2043           54030                 +1        TS       TIME5                                 #  ENTRY FROM ROOTOPOO
001979: 21,2044           55464                           TS       T5PHASE                               #  WILL CAUSE FRESHDAP (+1)
001980: 21,2045           41501                           CS       RCSFLAGS                              #  SET BIT3 TO REINITIALIZE FDAI ERROR
001981: 21,2046           74766                           MASK     BIT3                                  #        DISPLAY, IN CASE SC CONT SWITCH
001982: 21,2047           27501                           ADS      RCSFLAGS                              #        IN SCS NOT GNC (GUIDEMODE PRIMARY)
001983: 21,2050           00006                           EXTEND
001984: 21,2051           32040                           DCA      RCSADDR                               #  (RCSATT)
001985: 21,2052           52113                           DXCH     T5LOC
001986: 21,2053           44076                           CS       DPCONFIG                              #  SET BITS 15,14 TO 01 TO INDICATE
001987: 21,2054           70102                           MASK     FLAGWRD6                              #        T5 TAKEOVER BY RCSDAP
001988: 21,2055           64753                           AD       DAP2BIT
001989: 21,2056           54102                           TS       FLAGWRD6                              #  KILLS TVCEXEC AND ROLLDAP STARTS
001990: 21,2057           00002                           TC       Q                                     #  RETURN TO CALLER (TVCDAPOFF OR RCSDAPUP)
001991: 35,2000                                           SETLOC   P30S1
001992: 35,2000                                           BANK
001993: 35,3566                                           COUNT*   $$/P40
001994: 35,3566           03525        STARTTGO           TC       COMPTGO                               #  COMPTGO CAN NOT BE CALLED DIRECTLY
001995: 35,3567           04655                           TC       POSTJUMP                              #  VIA BANKCALL DUE TO RESTART PROBLEMS
001996: 35,3570           50237                           CADR     TFIGINIT   +2
001997:


001999:
002000:                                                                                                  #  NAME          P41 - RCS BURN
002001:
002002:                                                                                                  #  FUNCTION      TO CONTROL THE SEQUENCE OF THE CMC DURING THE COUNTDOWN
002003:                                                                                                  #                AND THRUSTING MANEUVER OF AN RCS BURN
002004:
002005:                                                                                                  #                        R02BOTH         CHECK STATUS OF IMU
002006:
002007:                                                                                                  #                        S40.1           COMPUTE: INTIAL THRUST DIRECTION AND
002008:                                                                                                  #                                                 INTIAL VALUE OF VELOCITY-TO-BE-
002009:                                                                                                  #                                                 GAINED VECTOR (VGTIG)
002010:
002011:                                                                                                  #                        S40.2,3         COMPUTE: GIMBAL ANGLES IF THRUSTING WILL
002012:                                                                                                  #                                                 OCCUR WITH PRESENT IMU ORIENTATION,
002013:                                                                                                  #                                                 PREFERRED IMU ORIENTATION, AND
002014:                                                                                                  #                                                 DESIRED THRUST DIRECTION IN SM COORDS
002015:
002016:                                                                                                  #                        R60CSM          PERFORM ATTITUDE MANEUVER
002017:
002018:                                                                                                  #                        MIDTOAV1        EXTRAPOLATE CSM STATE VECTOR TO TIG-29.96 SECS
002019:
002020:                                                                                                  #                        CLOKTASK        COMPUTE TIME-TO-GO TO IGNITION,
002021:                                                                                                  #                                        RECALL CLOKTASK,
002022:                                                                                                  #                                        UPDATE N 85, AND
002023:                                                                                                  #                                        CALL CLOCKJOB TO DISPLAY V06N85
002024:
002025:                                                                                                  #                        TIGBLNK         BLANK DSKY AT TIG-35 SECS AND
002026:                                                                                                  #                                        WAITLIST TIGAVEG IN 5 SECS
002027:
002028:                                                                                                  #                        TIGAVEG         UNBLANK DSKY,
002029:                                                                                                  #                                        CAUSE CLOCKJOB TO DISPLAY NON FLASH V16N85,
002030:                                                                                                  #                                        WAITLIST TTG/0 IN 29.96 SECS, AND
002031:                                                                                                  #                                        START SERVICER
002032:
002033:                                                                                                  #                        CLOCKJOB        (CALLED EVERY SEC)
002034:                                                                                                  #                                        DISPLAY NON FLASH V06N85 UNTIL TIG - 29.96:
002035:                                                                                                  #                                        THEN DISPLAY NON FLASH V16N85
002036:
002037:                                                                                                  #                        TTG/0           NOVAC TIGNOW
002038:
002039:                                                                                                  #                        TIGNOW          DISPLAY FLASHING V16N85
002040:
002041:                                                                                                  #                        POST41          CLEAN UP AFTER BURN
002042:
002043:                                                                                                  #                        *************************************************
002044:                                                                                                  #                        PROVIDE RESTART PROTECTION AT ALL CRITICAL POINTS
002045:                                                                                                  #                        *************************************************
002046:
002047:                                                                                                  #  INPUT         SAME AS P40
002048:
002049:                                                                                                  #  ALARMS        1703            INSUFFICIENT TIME FOR INTEGRATION
002050:                                                                                                  #                                TIG WAS SLIPPED
002051:


002053: 35,3571  E6,1465                                  EBANK=   DAPDATR1
002054: 24,2000                                           SETLOC   P40S
002055: 24,2000                                           BANK
002056: 24,3563                                           COUNT*   $$/P41
002057: 24,3563           06006        P41CSM             TC       INTPRET
002058: 24,3564           71214                           SET      DLOAD
002059: 24,3565           00464                                    ENG2FLAG                              #  SET FOR RCS
002060: 24,3566           15336                                    HI6ZEROS                              #  CSTEER = 0 FOR P41
002061: 24,3567           03703                           STORE    CSTEER
002062: 24,3570           43145                           DLOAD    BON
002063: 24,3571           11534                                    FRCS2                                 #  2JET THRUST FOR S40.1
002064: 24,3572           00700                                    NJETSFLG
002065: 24,3573           50226                                    P40S/F                                #  NJETS = 1 2-JET
002066: 24,3574           52152                           SL1      GOTO                                  #  NJETS = 0 4-JET
002067: 24,3575           50226                                    P40S/F
002068: 24,3576  E6,1465                                  EBANK=   DAPDATR1
002069: 24,3576           06006        CALCN85            TC       INTPRET
002070: 24,3577           77624                           CALL
002071: 24,3600           34331                                    UPDATEVG                              #  NEW VG FROM VGCOMP (+ MAYBE S40.9)
002072: 24,3601           77624                           CALL
002073: 24,3602           51651                                    P40CNV85                              #  COMPUTE VGBODY
002074: 24,3603           77776        SERVXT1            EXIT
002075: 24,3604           33616                           CAF      NEJETBTS
002076: 24,3605           00006                           EXTEND
002077: 24,3606           06031                           RXOR     CHAN31                                #  ARE ANY RCS JETS FIRING
002078: 24,3607           73616                           MASK     NEJETBTS                              #  NULLING OUT RESIDUAL VG'S FROM P40?
002079: 24,3610           00006                           EXTEND                                         #  OR PERFORMING P41?
002080: 24,3611           13614                           BZF      SERVXT                                #  NO
002081:
002082: 24,3612           05547                           TC       UPFLAG                                #  YES - SET BURNFLAG TO INDICATE
002083: 24,3613           00233                           ADRES    BURNFLAG                              #  THAT THE CSM DID THE BURN
002084:
002085: 24,3614           04655        SERVXT             TC       POSTJUMP
002086: 24,3615           77143                           CADR     SERVEXIT
002087:
002088: 24,3616           07700        NEJETBTS           OCT      07700
002089:
002090: 24,3617           34753        TTG/0              CAF      PRIO20                                #  TASK (4.4 PROTECTS IN P41)
002091: 24,3620           05121                           TC       NOVAC
002092: 24,3621  E6,1465                                  EBANK=   DAPDATR1
002093: 24,3621           03451 50066                     2CADR    TIGNOW
002094:
002095: 24,3623           05561        P40CLK             TC       DOWNFLAG
002096: 24,3624           00155                           ADRES    TIMRFLAG
002097: 24,3625           15314                           TCF      TASKOVER
002098:
002099: 24,3626           77624        P41/DSP            CALL                                           #  COMPUTE
002100: 24,3627           51651                                    P40CNV85                              #        VGTIG IN CTRL COORDS
002101: 24,3630           77776                           EXIT


002103: 24,3631           00006                           EXTEND                                         #  DO CONTROL COORD CALCULATION AFTER AVEG
002104: 24,3632           33556                           DCA      ACADN85
002105: 24,3633           53062                           DXCH     AVEGEXIT
002106: 24,3634           33511                           CAF      V06N85B
002107: 24,3635           54777                           TS       NVWORD1                               #  FORCE CLOCKJOB
002108: 24,3636           05362                           TC       2PHSCHNG
002109: 24,3637           40036                           OCT      40036                                 #  6.3=CLOKTASK(100CS)
002110: 24,3640           00234                           OCT      234                                   #  4.23=P40S/SV(PRIO12)
002111: 24,3641  01,2154               4P23SPT2           =        4.23SPOT
002112: 24,3641  01,2325               6P3SPT3            =        6.3SPOT
002113: 24,3641           12523                           TCF      P40S/SV
002114: 24,3642           33512        P41REDSP           CAF      V16N85B                               #  ENTER FROM P41 SIDE OF TIGAVEG
002115: 24,3643           54777                           TS       NVWORD1                               #  REDISPLAY NONFLASHING
002116: 24,3644           33530                           CAF      SEC29.96   +1
002117: 24,3645           05223                           TC       TWIDDLE
002118: 24,3646           03617                           ADRES    TTG/0
002119: 24,3647           44766                           CS       BIT3                                  #  4.4 = TTG/0(2996CS), PRECHECK(-0CS)
002120: 24,3650           12623                           TCF      TTGPHS
002121:
002122: 24,3651           40220        P40CNV85           STQ      SETPD
002123: 24,3652           03730                                    QTEMP1
002124: 24,3653           00001                                    0
002125: 24,3654           41575                           VLOAD    PUSH
002126: 24,3655           03721                                    VGPREV                                #  EQUALS VGTIG (TARGETTING INPUT)
002127: 24,3656           77624                           CALL
002128: 24,3657           57032                                    S41.1
002129: 24,3660           37665                           STCALL   VGBODY
002130: 24,3661           03730                                    QTEMP1
002131:


002133:
002134:                                                                                                  #  NAME          P47 - DELTA V MONITOR
002135:
002136:                                                                                                  #  FUNCTION      TO MONITOR VEHICLE ACCELERATION AND
002137:                                                                                                  #                DISPLAY ACCUMULATED VG IN CONTROL COORDINATES
002138:
002139:                                                                                                  #                        R02BOTH         CHECK STATUS OF IMU
002140:
002141:                                                                                                  #                        MIDTOAV2        EXTRAPOLATE STATE VECTOR TO CURRENT TIME
002142:                                                                                                  #                                        + INCREMENT OF TIMEDELT
002143:
002144:                                                                                                  #                        SETUPTIG        WAITLIST TIGON IN NO. OF CS FOUND
002145:                                                                                                  #                                        IN MPAC +1 AFTER MIDTOAV2 RETURN
002146:
002147:                                                                                                  #                        TIGON           SET CALCN83 INTO AVGGEXIT,
002148:                                                                                                  #                                        NOVAC P47BODY, AND
002149:                                                                                                  #                                        START SERVICER
002150:
002151:                                                                                                  #                        CALCN83         ADD PIPA CONTENTS TO ACCUMULATED DELTA V AND
002152:                                                                                                  #                                        CONVERT TO CONTROL COORDINATES AND
002153:                                                                                                  #                                        CALCULATE INERTIAL VELOCITY, R, AND
002154:                                                                                                  #                                        HDOT FOR NOUN 62
002155:
002156:                                                                                                  #                        P47BODY         ZERO DELVIMU INITIALLY AND
002157:                                                                                                  #                                        GENERATE MONITORING DISPLAY OF ACCUMULATED
002158:                                                                                                  #                                        DELTA V IN CONTROL COORDINATES
002159:
002160:                                                                                                  #                        *************************************************
002161:                                                                                                  #                        PROVIDE RESTART PROTECTION AT ALL CRITICAL POINTS
002162:                                                                                                  #                        *************************************************
002163:


002165: 24,3662                                           COUNT*   $$/P47
002166: 24,3662  E7,1412                                  EBANK=   TIG
002167: 24,3662           04636        P47CSM             TC       BANKCALL                              #  IMU STATUS CHECK
002168: 24,3663           03731                           CADR     R02BOTH
002169: 24,3664           06006                           TC       INTPRET
002170: 24,3665           77624                           CALRB
002171: 24,3666           27566                                    MIDTOAV2
002172: 24,3667           30155        SETUPTIG           CAE      MPAC       +1                         #  DELTA TIME TO RPEREAD (LESS THAN 100
002173: 24,3670           55672                           TS       P40TMP                                #        CS, WITH A TPAGREE, INT.INIT.)
002174: 24,3671           05223                           TC       TWIDDLE
002175: 24,3672           03676                           ADRES    TIGON
002176: 24,3673           05402                           TC       PHASCHNG
002177: 24,3674           40574                           OCT      40574                                 #  A, 4.57 = TIGON (P40TMP CS)
002178: 24,3675  01,2226               4P57SPT1           =        4.57SPOT
002179: 24,3675           15205                           TCF      ENDOFJOB
002180:
002181: 24,3676  E7,1672                                  EBANK=   P40TMP
002182: 24,3676           00006        TIGON              EXTEND
002183: 24,3677           33552                           DCA      ACADN83
002184: 24,3700           53062                           DXCH     AVEGEXIT
002185: 24,3701           05120                           TC       NOVAC30                               #  FORCE ZEROING OF N83 BEFORE SERVICER
002186: 24,3702  E7,1412                                  EBANK=   TIG
002187: 24,3702           03730 50067                     2CADR    P47BODY
002188:
002189: 24,3704           44767                           CS       BIT2                                  #  4.2 = PRECHECK (-0CS), P47BODY (PRIO30)
002190: 24,3705           12623                           TCF      TTGPHS
002191:
002192: 24,3706  E7,1412                                  EBANK=   TIG
002193: 24,3706           06006        CALCN83            TC       INTPRET
002194: 24,3707           77201                           SETPD    VLOAD
002195: 24,3710           00001                                    0
002196: 24,3711           03665                                    DELVCTL
002197: 24,3712           41455                           VAD      PUSH
002198: 24,3713           03432                                    DELVREF
002199: 24,3714           37460                           STCALL   DV47TEMP
002200: 24,3715           57032                                    S41.1
002201: 24,3716           37675                           STCALL   DELVIMU
002202: 24,3717           70537                                    S11.1                                 #  CALC. VI, H, HDOT FOR NOUN 62
002203: 24,3720           77776                           EXIT
002204: 24,3721           05402                           TC       PHASCHNG
002205: 24,3722           10035                           OCT      10035
002206: 24,3723  01,2250               5P3SPT7            =        5.3SPOT
002207: 24,3723           34773                           CAF      FIVE
002208: 24,3724           05607                           TC       GENTRAN
002209: 24,3725           01457                           ADRES    DV47TEMP
002210: 24,3726           01664                           ADRES    DELVCTL
002211: 24,3727           03614                           TC       SERVXT
002212:
002213: 24,3730           06006        P47BODY            TC       INTPRET


002215: 24,3731           77775                           VLOAD
002216: 24,3732           15336                                    HI6ZEROS
002217: 24,3733           03675                           STORE    DELVIMU                               #  CLEAR DISPLAY AND ACCUMULATOR STORAGE
002218: 24,3734           03665                           STORE    DELVCTL                               #  UPON INITIATION OR-ENTER-RESPONSE
002219: 24,3735           77776                           EXIT
002220: 24,3736           35054        P47BOD             CAF      PRIO15                                #  LOWER PRIO THAN CALCN83 (20)
002221: 24,3737           05176                           TC       PRIOCHNG                              #        TO PREVENT INTERRUPTION OF CALCN83
002222: 24,3740           05402                           TC       PHASCHNG
002223: 24,3741           05024                           OCT      05024                                 #  TYPE C GROUP 4 BELOW FOR NOUN 83
002224: 24,3742           62777                           OCT      62777                                 #  PRIO 15 NOVAC
002225: 24,3743           33516        P47/DSP            CAF      V1683
002226: 24,3744           04636                           TC       BANKCALL
002227: 24,3745           20743                           CADR     GOFLASH
002228: 24,3746           04103                           TC       GOTOPOOH
002229: 24,3747           04103                           TC       GOTOPOOH
002230: 24,3750           13730                           TCF      P47BODY                               #  RECYCLE - CLEAR ACCUMULATED VELOCITY

End of include-file P40-P47.agc.  Parent file is MAIN.agc


