
Source Code


000002:                                                                                                  ## Copyright:   Public domain.
000003:                                                                                                  ## Filename:    P51-P53.agc
000004:                                                                                                  ## Purpose:     Part of the source code for Artemis (i.e., Colossus 3),
000005:                                                                                                  ##              build 072.  This is for the Command Module's (CM)
000006:                                                                                                  ##              Apollo Guidance Computer (AGC), for
000007:                                                                                                  ##              Apollo 15-17.
000008:                                                                                                  ## Assembler:   yaYUL
000009:                                                                                                  ## Contact:     Jim Lawton <jim DOT lawton AT gmail DOT com>
000010:                                                                                                  ## Website:     www.ibiblio.org/apollo/index.html
000011:                                                                                                  ## Page Scans:  www.ibiblio.org/apollo/ScansForConversion/Artemis072/
000012:                                                                                                  ## Mod history: 2009-08-16 JL   Adapted from corresponding Comanche 055 file.
000013:                                                                                                  ##              2009-09-04 JL   Fixed typo, fixed error in conversion of some interpreter code.
000014:                                                                                                  ##              2010-01-31 JL   Fixed build errors.
000015:                                                                                                  ##              2010-02-01 JL   Fixed build errors.
000016:                                                                                                  ##              2010-02-02 JL   Fixed build errors.
000017:                                                                                                  ##              2010-02-11 JL   Fixed error on page 746.
000018:                                                                                                  ##              2010-02-14 JL   Fixed error on page 753.
000019:


000021:
000022:                                                                                                  #  PROGRAM NAME - PROG52                         DATE - AUGUST 1,1969
000023:                                                                                                  #  MODIFICATION BY ALBERT,BARNERT,HASLAM         LOG SECTION - P51-P53
000024:
000025:                                                                                                  #  FUNCTION -
000026:
000027:                                                                                                  #  ALIGNS THE IMU TO ONE OF THREE ORIENTATIONS SELECTED BY THE ASTRONAUT. THE PRESENT IMU ORIENTATION IS KNOWN
000028:                                                                                                  #  AND IS STORED IN REFSMMAT. THE THREE POSSIBLE ORIENTATIONS MAY BE:
000029:
000030:                                                                                                  #        (A) PREFERRED ORIENTATION
000031:
000032:                                                                                                  #        AN OPTIMUM ORIENTATION FOR A PREVIOUSLY CALCULATED MANEUVER. THIS ORIENTATION MUST BE CALCULATED AND
000033:                                                                                                  #        STORED BY A PREVIOUSLY SELECTED PROGRAM.
000034:
000035:                                                                                                  #        (B) NOMINAL (LOCAL VERTICAL) ORIENTATION
000036:
000037:                                                                                                  #                X   = UNIT ( Y   X Z   )
000038:                                                                                                  #                -SM          -SM   -SM
000039:
000040:                                                                                                  #                Y   = UNIT (V X R)
000041:                                                                                                  #                -SM         -   -
000042:
000043:                                                                                                  #                Z   = UNIT ( -R )
000044:                                                                                                  #                -SM           -
000045:
000046:                                                                                                  #                WHERE:
000047:
000048:                                                                                                  #                R = THE GEOMETRIC RADIUS VECTOR AT TIME T(ALIGN) SELECTED BY THE ASTRONAUT
000049:                                                                                                  #                -
000050:
000051:                                                                                                  #                V = THE INERTIAL VELOCITY VECTOR AT TIME T(ALIGN) SELECTED BY THE ASTRONAUT
000052:                                                                                                  #                -
000053:
000054:                                                                                                  #        (C) REFSMMAT ORIENTATION
000055:
000056:                                                                                                  #        THIS ORIENTATION IS SELECTED AUTOMATICALLY UNLESS THE ASTRONAUT KEYS IN A DIFFERENT OPTION CODE
000057:
000058:                                                                                                  #        THIS SELECTION CORRECTS THE PRESENT IMU ORIENTATION. THE PRESENT ORIENTATION DIFFERS FROM THAT TO WHICH IT
000059:                                                                                                  #        WAS LAST ALIGNED ONLY DUE TO GYRO DRIFT (I.E. NEITHER GIMBAL LOCK NOR IMU POWER INTERRUPT HAS OCCURRED
000060:                                                                                                  #        SINCE THE LAST ALIGNMENT).
000061:
000062:                                                                                                  #  AFTER A IMU ORIENTATION HAS BEEN SELECTED ROUTINE S52.2 IS OPERATED TO COMPUTE THE GIMBAL ANGLES USING THE
000063:                                                                                                  #  NEW ORIENTATION AND THE PRESENT VEHICLE ATTITUDE.  CAL52A THEN USES THESE ANGLES, STORED IN THETAD,+1,+2, TO
000064:                                                                                                  #  COARSE ALIGN THE IMU. THE STAR SELECTION ROUTINE, R56, IS THEN OPERATED. IF 2 STARS ARE NOT AVAILABLE AN ALARM
000065:                                                                                                  #  IS FLASHED TO NOTIFY THE ASTRONAUT. AT THIS POINT THE ASTRONAUT WILL MANEUVER THE VEHICLE AND SELECT 2 STARS
000066:                                                                                                  #  EITHER MANUALLY OR AUTOMATICALLY. AFTER 2 STARS HAVE BEEN SELECTED THE IMU IS FINE ALIGNED USING ROUTINE R51. IF
000067:                                                                                                  #  THE RENDEZVOUS NAVIGATION PROCESS IS OPERATING (INDICATED BY RNDVZFLG) P20 IS DISPLAYED. OTHERWISE P00 IS
000068:                                                                                                  #  REQUESTED.
000069:
000070:                                                                                                  #  CALLING SEQUENCE -
000071:
000072:                                                                                                  #        THE PROGRAM IS CALLED BY THE ASTRONAUT BY DSKY ENTRY.


000074:
000075:                                                                                                  #  SUBROUTINES CALLED -
000076:
000077:                                                                                                  #        1. FLAGDOWN              6. S52.2               11. GOPERF3
000078:                                                                                                  #        2. R02BOTH               7. CAL53A              12. NEWMODEX
000079:                                                                                                  #        3. GOPERF4               8. FLAGUP              13. PRIOLARM
000080:                                                                                                  #        4. MATMOVE               9. R56
000081:                                                                                                  #        5. GOFLASH              10. R51
000082:
000083:                                                                                                  #  NORMAL EXIT MODES -
000084:
000085:                                                                                                  #        EXITS TO ENDOFJOB
000086:
000087:                                                                                                  #  ALARM OR ABORT EXIT MODES -
000088:
000089:                                                                                                  #        NONE
000090:
000091:                                                                                                  #  OUTPUT -
000092:
000093:                                                                                                  #        THE FOLLOWING MAY BE FLASHED ON THE DSKY
000094:                                                                                                  #                1. IMU ORIENTATION CODE
000095:                                                                                                  #                2. ALARM CODE 215 - PREFERRED IMU ORIENTATION NOT SPECIFIED
000096:                                                                                                  #                3. TIME OF NEXT IGNITION
000097:                                                                                                  #                4. GIMBAL ANGLES
000098:                                                                                                  #                5. ALARM CODE 405 - TWO STARS NOT AVAILABLE
000099:                                                                                                  #                6. PLEASE PERFORM P00
000100:                                                                                                  #        THE MODE DISPLAY MAY BE CHANGED TO 20
000101:
000102:                                                                                                  #  ERASABLE INITIALIZATION REQUIRED -
000103:
000104:                                                                                                  #        PFRATFLG SHOULD BE SET IF A PREFERRED ORIENTATION HAS BEEN COMPUTED. IF IT HAS BEEN COMPUTED IT IS STORED IN
000105:                                                                                                  #        XSMD, YSMD, ZSMD.
000106:                                                                                                  #        RNDVZFLG INDICATES WHETHER THE RENDEZVOUS NAVIGATION PROCESS IS OPERATING.
000107:
000108:                                                                                                  #  DEBRIS -
000109:
000110:                                                                                                  #        WORK AREA
000111:
000112: 24,3751  14,2002               P54                =        PROG52
000113: 14,2000                                           SETLOC   P50S
000114: 14,2000                                           BANK
000115:
000116: 14,2002  30,2000                                  SBANK=   LOWSUPER
000117: 14,2002  E5,1773                                  EBANK=   SAC
000118: 14,2002                                           COUNT*   $$/P52
000119: 14,2002           05561        PROG52             TC       DOWNFLAG
000120: 14,2003           00027                           ADRES    UPDATFLG                              #  BIT 7 FLAG 1
000121: 14,2004           05561                           TC       DOWNFLAG
000122: 14,2005           00031                           ADRES    TRACKFLG                              #  BIT 5 FLAG 1
000123: 14,2006           04636                           TC       BANKCALL
000124: 14,2007           03731                           CADR     R02BOTH                               #  IMU STATUS CHECK
000125: 14,2010           06006                           TC       INTPRET


000127: 14,2011           77414                           BON      EXIT                                  #  MINKEY SEQUENCE?
000128: 14,2012           05310                                    AUTOSEQ
000129: 14,2013           30276                                    P52AUTO                               #  YES
000130:
000131: 14,2014           30104                           CA       FLAGWRD8
000132: 14,2015           74760                           MASK     UTBIT
000133: 14,2016           00006                           EXTEND
000134: 14,2017           12025                           BZF      +6
000135:
000136: 14,2020           11351                           CCS      OPTNTYPE
000137: 14,2021           12023                           TCF      +2
000138: 14,2022           12025                           TCF      +3
000139: 14,2023           05547                           TC       UPFLAG
000140: 14,2024           00031                           ADRES    TRACKFLG
000141:
000142: 14,2025           34765                           CAF      PFRATBIT
000143: 14,2026           70076                           MASK     FLAGWRD2                              #  PREFERRED ORIENTATION
000144: 14,2027           10000                           CCS      A
000145: 14,2030           02033                           TC       P52A
000146: 14,2031           36214                           CAF      THREE                                 #  ION
000147: 14,2032           02034                           TC       P52A       +1
000148: 14,2033           34770        P52A               CAF      BIT1                                  #  YES - SET OPTION 2 = 1
000149: 14,2034           54776                 +1        TS       OPTION2
000150: 14,2035           34770        P52B               CAF      BIT1
000151: 14,2036           04636                           TC       BANKCALL                              #  FLASH OPTION CODE AND ORIENTATION CODE
000152: 14,2037           21074                           CADR     GOPERF4
000153: 14,2040           04103                           TC       GOTOPOOH
000154: 14,2041           02043                           TC       +2
000155: 14,2042           02035                           TC       P52B                                  #  NEW CODE - NEW ORIENTATION CODE INPUT
000156: 14,2043           40776                           CS       OPTION2
000157: 14,2044           76214                           MASK     THREE
000158: 14,2045           00006                           EXTEND
000159: 14,2046           12407                           BZF      P52C                                  #  REFERENCE
000160: 14,2047           74770                           MASK     BIT1
000161: 14,2050           00006                           EXTEND
000162: 14,2051           12167                           BZF      P52J                                  #  PREFERRED
000163: 14,2052           00006                           EXTEND                                         #  NOMINAL (LOCAL VERTICAL), LANDING SIGHT
000164: 14,2053           34772                           DCA      NEG0
000165: 14,2054           53251                           DXCH     DSPTEM1
000166: 14,2055           35027                           CAF      V06N34                                #  PREFERRED
000167: 14,2056           05535                           TC       VNFLASH
000168: 14,2057           31250                           CA       DSPTEM1
000169: 14,2060           00006                           EXTEND
000170: 14,2061           12063                           BZF      +2
000171: 14,2062           12066                           TCF      +4
000172:
000173: 14,2063           00006                           EXTEND
000174: 14,2064           30025                           DCA      TIME2
000175: 14,2065           53251                           DXCH     DSPTEM1
000176: 14,2066           30776                           CA       OPTION2


000178: 14,2067           74767                           MASK     BIT2
000179: 14,2070           10000                           CCS      A
000180: 14,2071           12145                           TCF      S52.3                                 #  NOM - S52.3 - NOW IN-LINE
000181: 14,2072           06006                           TC       INTPRET                               #  LS - P52LS - NOW IN-LINE
000182:
000183:                                                                                                  #  NAME - P52LS
000184:
000185:                                                                                                  #  FUNCTION - TO DISPLAY THE LANDING SITE LATITUDE,
000186:                                                                                                  #  LONGITUDE AND ALTITUDE. TO ACCEPT NEW DATA VIA
000187:                                                                                                  #  THE KEYBOARD. TO COMPUTE THE LANDING SITE
000188:                                                                                                  #  ORIENTATION FOR P52 OR P54
000189:
000190:                                                                                                  #  LET:
000191:                                                                                                  #        RLS  = LANDING SITE VECTOR IN REF COORDINATES
000192:                                                                                                  #        R    = CSM POSITION VECTOR IN REF COORDINATES
000193:                                                                                                  #        V    = CSM VELOCITY VECTOR IN REF COORDINATES
000194:                                                                                                  #  THEN THE LANDING SITE ORIENTATION IS:
000195:                                                                                                  #        XSMD = UNIT(RLS)
000196:                                                                                                  #        YSMD = UNIT(ZSMD*XSMD)
000197:                                                                                                  #        ZSMD = UNIT((R*V)*RLS)
000198:
000199:                                                                                                  #  INPUTS:       DSPTEM1 = TIME OF ALIGNMENT
000200:                                                                                                  #                RLS = LANDING SITE VECTOR IN MOON FIXED COORDINATES
000201:
000202:                                                                                                  #  OUTPUTS:      XSMD, YSMD, ZSMD
000203:
000204:                                                                                                  #  SUBROUTINES:  RP-TO-R, LAT-LONG, LLASRD, LLASRDA, CSMPREC
000205:
000206:                                                                                                  #  DEBRIS:       VAC, SEE SUBROUTINES
000207:
000208: 14,2073           43014                           SET      SET
000209: 14,2074           01463                                    LUNAFLAG
000210: 14,2075           00462                                    ERADFLAG
000211: 14,2076           77775                           VLOAD
000212: 14,2077           02026                                    RLS
000213: 14,2100           14001                           STODL    0D
000214: 14,2101           01251                                    DSPTEM1
000215: 14,2102           02607                           STORE    TSIGHT
000216: 14,2103           34007                           STCALL   6D
000217: 14,2104           55345                                    RP-TO-R
000218: 14,2105           77742                           VSR2
000219: 14,2106           16152                           STODL    ALPHAV
000220: 14,2107           02607                                    TSIGHT
000221: 14,2110           77624                           CALL
000222: 14,2111           26453                                    LAT-LONG
000223: 14,2112           77624                           CALL
000224: 14,2113           62363                                    LLASRD
000225: 14,2114           77776                           EXIT
000226: 14,2115           35036        LSDISP             CAF      V06N89*
000227: 14,2116           05535                           TC       VNFLASH
000228: 14,2117           06006                           TC       INTPRET
000229: 14,2120           77624                           CALL
000230: 14,2121           62371                                    LLASRDA
000231: 14,2122           45145                           DLOAD    CALL
000232: 14,2123           02607                                    TSIGHT


000234: 14,2124           26524                                    LALOTORV
000235: 14,2125           53575                           VLOAD    UNIT
000236: 14,2126           02152                                    ALPHAV
000237: 14,2127           14307                           STODL    XSMD
000238: 14,2130           02607                                    TSIGHT
000239: 14,2131           34041                           STCALL   TDEC1
000240: 14,2132           27145                                    CSMPREC
000241: 14,2133           47375                           VLOAD    VXV
000242: 14,2134           00001                                    RATT
000243: 14,2135           00007                                    VATT
000244: 14,2136           53435                           VXV      UNIT
000245: 14,2137           00307                                    XSMD
000246: 14,2140           00323                           STORE    ZSMD
000247: 14,2141           53435                           VXV      UNIT
000248: 14,2142           00307                                    XSMD
000249: 14,2143           34315                           STCALL   YSMD
000250: 14,2144           30170                                    P52D
000251: 14,2145     5036               V06N89*            =        V06N89
000252:
000253:                                                                                                  #  NAME - S52.3
000254:                                                                                                  #  FUNCTION - TO COMPUTE AMD DISPLAY THE
000255:                                                                                                  #  GIMBAL ANGLES, ALLOW ASTRONAUT TO CHOOSE
000256:                                                                                                  #  BETWEEN FAST AND ACCURATE IMU REALIGNMENT.
000257:                                                                                                  #  NOMINAL (LOCAL VERTICAL) ORIENTATION IS:
000258:                                                                                                  #                XSMD= UNIT(YSMD x ZSMD)
000259:                                                                                                  #                YSMD= UNIT(V X R)
000260:                                                                                                  #                ZSMD= UNIT(-R)
000261:
000262:                                                                                                  #  INPUT -       TIME OF ALIGNMENT IN MPAC
000263:
000264:                                                                                                  #  OUTPUT -      X,Y,ZSMD
000265:
000266:                                                                                                  #  SUBROUTINES - CSMCONIC
000267:
000268: 14,2145           06006        S52.3              TC       INTPRET
000269: 14,2146           77745                           DLOAD
000270: 14,2147           01251                                    DSPTEM1
000271: 14,2150           34041                           STCALL   TDEC1
000272: 14,2151           27145                                    CSMPREC
000273: 14,2152           77201                           SETPD    VLOAD
000274: 14,2153           00001                                    0
000275: 14,2154           00001                                    RATT
000276: 14,2155           53476                           VCOMP    UNIT
000277: 14,2156           24323                           STOVL    ZSMD
000278: 14,2157           00007                                    VATT
000279: 14,2160           53435                           VXV      UNIT
000280: 14,2161           00001                                    RATT
000281: 14,2162           00315                           STORE    YSMD
000282: 14,2163           53435                           VXV      UNIT
000283: 14,2164           00323                                    ZSMD
000284: 14,2165           00307                           STORE    XSMD
000285: 14,2166           77776                           EXIT
000286: 14,2167           06006        P52J               TC       INTPRET
000287: 14,2170           77624        P52D               CALL                                           #  READ VEHICEL ATTITUDE AND
000288: 14,2171           22247                                    S52.2                                 #   COMPUTE GIMBAL ANGLES


000290: 14,2172           77776                           EXIT
000291: 14,2173           35025                           CAF      V06N22
000292: 14,2174           04636                           TC       BANKCALL                              #  DISPLAY GIMBAL ANGLES
000293: 14,2175           20743                           CADR     GOFLASH
000294: 14,2176           04103                           TC       GOTOPOOH
000295: 14,2177           02201                           TC       COARSTYP
000296: 14,2200           02167                           TC       P52J                                  #  RECYCLE - VEHICLE HAS BEEN MANEUVERED
000297: 14,2201           40106        COARSTYP           CS       FLGWRD10
000298: 14,2202           74762                           MASK     AUTSQBIT
000299: 14,2203           00006                           EXTEND
000300: 14,2204           12320                           BZF      PERF20                                #  IF MINKEY
000301: 14,2205           34775                           CAF      OCT13                                 #  PLEASE PERFORM NORMAL/GYRO TORQUE
000302: 14,2206           04636                           TC       BANKCALL
000303: 14,2207           21067                           CADR     GOPERF1
000304: 14,2210           14103                           TCF      GOTOPOOH                              #  V34
000305: 14,2211           12334                           TCF      P52K                                  #  NORMAL CASE
000306: 14,2212           06006        GYCRS              TC       INTPRET
000307: 14,2213           64375                           VLOAD    MXV
000308: 14,2214           00307                                    XSMD
000309: 14,2215           01734                                    REFSMMAT
000310: 14,2216           77656                           UNIT
000311: 14,2217           26714                           STOVL    XDC
000312: 14,2220           00315                                    YSMD
000313: 14,2221           53521                           MXV      UNIT
000314: 14,2222           01734                                    REFSMMAT
000315: 14,2223           26722                           STOVL    YDC
000316: 14,2224           00323                                    ZSMD
000317: 14,2225           53521                           MXV      UNIT
000318: 14,2226           01734                                    REFSMMAT
000319: 14,2227           36730                           STCALL   ZDC
000320: 14,2230           47240                                    CALCGTA
000321: 14,2231           43014                           CLEAR    CLEAR
000322: 14,2232           01260                                    DRIFTFLG
000323: 14,2233           01662                                    REFSMFLG
000324: 14,2234           77776                           EXIT
000325: 14,2235           32275                           CAF      V16N20
000326: 14,2236           04636                           TC       BANKCALL
000327: 14,2237           20710                           CADR     GODSPR
000328: 14,2240           33002                           CAF      R55CDR
000329: 14,2241           04636                           TC       BANKCALL
000330: 14,2242           17244                           CADR     IMUPULSE
000331: 14,2243           04636                           TC       BANKCALL
000332: 14,2244           17644                           CADR     IMUSTALL
000333: 14,2245           03766                           TC       217ALARM                              #  BAD END
000334: 14,2246           05402                           TC       PHASCHNG
000335: 14,2247           04024                           OCT      04024
000336: 14,2250           06006                           TC       INTPRET
000337: 14,2251           75160                           AXC,1    AXC,2
000338: 14,2252           00306                                    XSMD
000339: 14,2253           01733                                    REFSMMAT


000341: 14,2254           77624                           CALL
000342: 14,2255           34730                                    MATMOVE
000343: 14,2256           43014                           CLEAR    SET
000344: 14,2257           01273                                    PFRATFLG
000345: 14,2260           01462                                    REFSMFLG
000346: 14,2261           77234                           RTB      VLOAD
000347: 14,2262           31566                                    SET1/PDT
000348: 14,2263           11762                                    ZEROVEC
000349: 14,2264           01472                           STORE    GCOMP
000350: 14,2265           43014                           SET      BOF
000351: 14,2266           01060                                    DRIFTFLG
000352: 14,2267           05350                                    AUTOSEQ
000353: 14,2270           30757                                    R51K                                  #  CONTINUE FINE ALIGN IF NOT MINKEY
000354: 14,2271           77614                           CLEAR
000355: 14,2272           05276                                    PCFLAG
000356: 14,2273           77776        P50SEXIT           EXIT
000357: 14,2274           14105                           TCF      MNKGOPOO
000358: 14,2275           04024        V16N20             VN       1620
000359: 14,2276     4776               ALRM15             EQUALS   OCT15
000360: 14,2276           74575        P52AUTO            VLOAD    VSR1                                  #  XDES = UNIT(XREF COS45 + YERF SIN45) (1)
000361: 14,2277           01734                                    REFSMMAT                              #                         -             (2)
000362: 14,2300           74515                           PDVL     VSR1
000363: 14,2301           01742                                    REFSMMAT   +6                         #  (1) FOR 1ST, +45-DEGREE MANEUVER
000364: 14,2302           57414                           BON      VCOMP                                 #  (2)     2ND  -
000365: 14,2303           05316                                    PCFLAG                                #  IN EITHER CASE, COS45 = SIN45, AND
000366: 14,2304           30305                                    P52AUTOX                              #        'UNIT' OBVIATES NEED FOR THEN.
000367:
000368: 14,2305           53455        P52AUTOX           VAD      UNIT
000369: 14,2306           77626                           STADR
000370: 14,2307           53470                           STOVL    XSMD
000371: 14,2310           01750                                    REFSMMAT   +12D
000372: 14,2311           00323                           STORE    ZSMD                                  #  ZDES = ZREF
000373: 14,2312           53435                           VXV      UNIT
000374: 14,2313           00307                                    XSMD
000375: 14,2314           00315                           STORE    YSMD                                  #  YDES = UNIT(ZDES * ZDES)
000376: 14,2315           52014                           SET      GOTO
000377: 14,2316           01073                                    PFRATFLG
000378: 14,2317           30170                                    P52D
000379:
000380: 14,2320           34764        PERF20             CAF      BIT5                                  #  =OCT 20, PLEASE PERF MINKEY PC TORQUE
000381: 14,2321           04636                           TC       BANKCALL
000382: 14,2322           21067                           CADR     GOPERF1
000383: 14,2323           04103                           TC       GOTOPOOH                              #  V 34
000384: 14,2324           02212                           TC       GYCRS                                 #  PRO - DO IT
000385: 14,2325           06006                           TC       INTPRET                               #  ENTR
000386: 14,2326           77414                           BON      EXIT
000387: 14,2327           05316                                    PCFLAG
000388: 14,2330           30273                                    P50SEXIT                              #  OK TO FLUSH IT 1ST TIME ONLY
000389: 14,2331           05671                           TC       ALARM                                 #  BUT MAKE HIM DO 2ND
000390: 14,2332           00402                           OCT      00402


000392: 14,2333           02320                           TC       PERF20
000393:                                                                                                  #  NAME - CAL53A
000394:                                                                                                  #  FUNCTION - COARSE ALIGN THE IMU, IF NECESSARY,
000395:                                                                                                  #  INPUT - PRESENT GIMBAL ANGLES - CDUX, CDUY, CDUZ
000396:                                                                                                  #          DESIRED GIMBAL ANGLES - THETAD,+1,+2
000397:                                                                                                  #  OUTPUT - THE IMU COORDINATES ARE STORED IN REFSMMAT
000398:                                                                                                  #  SUBROUTINES - 1.IMUCOARS 2.IMUSTALL 3CURTAINS
000399:
000400: 14,2334                                           COUNT*   $$/R50
000401: 14,2334           06006        P52K               TC       INTPRET
000402: 14,2335           77624        CAL53A             CALL
000403: 14,2336           22247                                    S52.2                                 #  MAKE FINAL COMP OF GIMBAL ANGLES
000404: 14,2337           66234                           RTB      SSP
000405: 14,2340           34744                                    RDCDUS                                #  READ CDUS
000406: 14,2341           00051                                    S1
000407: 14,2342           00001                                    1
000408: 14,2343           40370                           AXT,1    SETPD
000409: 14,2344           00003                                    3
000410: 14,2345           00005                                    4
000411:
000412: 14,2346           70543        CALOOP             DLOAD*   SR1
000413: 14,2347           01313                                    THETAD     +3D,1
000414: 14,2350           70523                           PDDL*    SR1
000415: 14,2351           00005                                    4,1
000416: 14,2352           51425                           DSU      ABS
000417: 14,2353           45206                           PUSH     DSU
000418: 14,2354           34743                                    DEGREE1
000419: 14,2355           71240                           BMN      DLOAD
000420: 14,2356           30376                                    CALOOP1
000421: 14,2357           51025                           DSU      BPL
000422: 14,2360           34744                                    DEG359
000423: 14,2361           30376                                    CALOOP1
000424: 14,2362           77776        COARFINE           EXIT
000425: 14,2363           05402                           TC       PHASCHNG
000426: 14,2364           04024                           OCT      04024
000427: 14,2365           03742                           TC       COARSUB                               #  PERFORM ALIGNMENT
000428: 14,2366           06006                           TC       INTPRET
000429: 14,2367           77234                           RTB      VLOAD
000430: 14,2370           31566                                    SET1/PDT
000431: 14,2371           11762                                    ZEROVEC
000432: 14,2372           01472                           STORE    GCOMP
000433: 14,2373           52014                           SET      GOTO
000434: 14,2374           01060                                    DRIFTFLG
000435: 14,2375           30400                                    FINEONLY
000436: 14,2376           77700        CALOOP1            TIX,1
000437: 14,2377           30346                                    CALOOP
000438: 14,2400           75160        FINEONLY           AXC,1    AXC,2
000439: 14,2401           02671                                    XSM
000440: 14,2402           01733                                    REFSMMAT
000441: 14,2403           77624                           CALL
000442: 14,2404           34730                                    MATMOVE
000443: 14,2405           77414        CAL53RET           SET      EXIT


000445: 14,2406           01462                                    REFSMFLG
000446: 14,2407                                           COUNT*   $$/P52
000447: 14,2407           05402        P52C               TC       PHASCHNG
000448: 14,2410           04024                           OCT      04024
000449: 14,2411           34776                           CAF      ALRM15
000450: 14,2412           04636                           TC       BANKCALL
000451: 14,2413           21067                           CADR     GOPERF1
000452: 14,2414           04103                           TC       GOTOPOOH
000453: 14,2415           02417                           TC       +2                                    #  V33
000454: 14,2416           02622                           TC       R51                                   #  FINE ALIGN
000455: 14,2417           06006                           TC       INTPRET
000456: 14,2420           43234                           RTB      DAD
000457: 14,2421           51751                                    LOADTIME
000458: 14,2422           34652                                    TSIGHT1
000459: 14,2423           77624                           CALL
000460: 14,2424           26345                                    LOCSAM
000461: 14,2425                                           COUNT*   $$/PICAP
000462:
000463:                                                                                                  #  NAME - PICAPAR        NOW IN-LINE
000464:
000465:                                                                                                  #  FUNCTION -
000466:                                                                                                  #  THIS PROGRAM READS THE IMU-CDUS AND COMPUTES THE VEHICLE ORIENTATION
000467:                                                                                                  #  WITH RESPECT TO INERTIAL SPACE. IT THEN COMPUTES THE SHAFT AXIS (SAX)
000468:                                                                                                  #  WITH RESPECT TO REFERENCE INTERTIAL. EACH STAR IN THE CATALOG IS TESTED
000469:                                                                                                  #  TO DETERMINE IF IT IS OCCULTED BY EITHER EARTH, SUN OR MOON. IF A
000470:                                                                                                  #  STAR IS NOT OCCULTED THEN IT IS PAIRED WITH ALL STARS OF LOWER INDEX.
000471:                                                                                                  #  THE PAIRED STAR IS TESTED FOR OCCULTATION. PAIRS OF STARS THAT PASS
000472:                                                                                                  #  THE OCCULTATION TESTS ARE TESTED FOR GOOD SEPARATION. A PAIR OF STARS
000473:                                                                                                  #  HAVE GOOD SEPARATION IF THE ANGLE BETWEEN THEM IS LESS THAN 76 DEGREES
000474:                                                                                                  #  AND MORE THAN 30 DEGREES. THOSE PAIRS OF STARS WITH GOOD SEPARATION
000475:                                                                                                  #  ARE THEN TESTED TO SEE IF THEY LIE IN CURRENT FIELD OF VIEW. (WITHIN
000476:                                                                                                  #  33 DEGREES OF SAX). THE PAIR WITH MAXIMUM SEPARATION IS CHOSEN FROM
000477:                                                                                                  #  THOSE WITH GOOD SEPARATION, AND IN FIELD OF VIEW.
000478:
000479:                                                                                                  #  OUTPUT
000480:                                                                                                  #        BESTI, BESTJ - SINGLE PREC, INTEGERS, STAR NUMBERS TIMES 6
000481:                                                                                                  #        VFLAG - FLAG BIT  SET IMPLIES NO STARS IN FIELD OF VIEW
000482:
000483:                                                                                                  #  INITIALIZATION
000484:                                                                                                  #        1) A CALL TO LOCSAM MUST BE MADE
000485:                                                                                                  #        2) VEARTH = -UNIT(R) WHERE R HAS BEEN UPDATED TO APPROXIMATE TIME OF
000486:                                                                                                  #                SIGHTINGS.
000487:
000488:                                                                                                  #  DEBRIS
000489:                                                                                                  #        WORK AREA
000490:                                                                                                  #        X,Y,ZNB
000491:                                                                                                  #        SINCDU, COSCDU
000492:                                                                                                  #        STARAD - STAR +5
000493:
000494: 14,2425           77624                           CALL
000495: 14,2426           47530                                    CDUTRIG
000496: 14,2427           45001                           SETPD    CALL


000498: 14,2430           00001                                    0
000499: 14,2431           34756                                    CALCSMSC
000500: 14,2432           71214                           SET      DLOAD                                 #  VFLAG = 1
000501: 14,2433           01465                                    VFLAG
000502: 14,2434           11762                                    DPZERO
000503: 14,2435           24303                           STOVL    BESTI
000504: 14,2436           02714                                    XNB
000505: 14,2437           63361                           VXSC     PDVL
000506: 14,2440           30575                                    SIN33
000507: 14,2441           02730                                    ZNB
000508: 14,2442           74370                           AXT,1    VXSC
000509: 14,2443           00344                                    228D                                  #  X1 = 37 X 6 + 6
000510: 14,2444           30577                                    COS33
000511: 14,2445           77655                           VAD
000512: 14,2446           53505                           VXM      UNIT
000513: 14,2447           01734                                    REFSMMAT
000514: 14,2450           02760                           STORE    SAX                                   #  SAX = SHAFT AXIS
000515: 14,2451           66331                           SSP      SSP                                   #  S1 = S2 = 6
000516: 14,2452           00051                                    S1
000517: 14,2453           00006                                    6
000518: 14,2454           00052                                    S2
000519: 14,2455           00006                                    6
000520: 14,2456           52100        PIC1               TIX,1    GOTO                                  #  MAJOR STAR
000521: 14,2457           30461                                    PIC2
000522: 14,2460           30606                                    PICEND
000523: 14,2461           45173        PIC2               VLOAD*   CALL
000524: 14,2462           33776                                    CATLOG,1
000525: 14,2463           30552                                    OCCULT
000526: 14,2464           73014                           BON      LXA,2
000527: 14,2465           01710                                    CULTFLAG
000528: 14,2466           30456                                    PIC1
000529: 14,2467           00046                                    X1
000530: 14,2470           52104        PIC3               TIX,2    GOTO
000531: 14,2471           30473                                    PIC4
000532: 14,2472           30456                                    PIC1
000533: 14,2473           45173        PIC4               VLOAD*   CALL
000534: 14,2474           44001                                    CATLOG,2
000535: 14,2475           30552                                    OCCULT
000536: 14,2476           76614                           BON      VLOAD*
000537: 14,2477           01710                                    CULTFLAG
000538: 14,2500           30470                                    PIC3
000539: 14,2501           33776                                    CATLOG,1
000540: 14,2502           45237                           DOT*     DSU
000541: 14,2503           44001                                    CATLOG,2
000542: 14,2504           30601                                    CSS66                                 #  SEPARATION LESS THAN 76 DEG.
000543: 14,2505           43240                           BMN      DAD
000544: 14,2506           30470                                    PIC3
000545: 14,2507           30603                                    CSS6640                               #  SEPARATION MORE THAN 30 DEG.
000546: 14,2510           77644                           BPL
000547: 14,2511           30470                                    PIC3


000549: 14,2512           50373                           VLOAD*   DOT
000550: 14,2513           33776                                    CATLOG,1
000551: 14,2514           02760                                    SAX
000552: 14,2515           50025                           DSU      BMN                                   #  MAJOR STAR IN CONE
000553: 14,2516           30605                                    CSS33
000554: 14,2517           30456                                    PIC1
000555: 14,2520           50373                           VLOAD*   DOT
000556: 14,2521           44001                                    CATLOG,2
000557: 14,2522           02760                                    SAX
000558: 14,2523           50025                           DSU      BMN
000559: 14,2524           30605                                    CSS33
000560: 14,2525           30470                                    PIC3
000561: 14,2526           77614        STRATGY            BONCLR
000562: 14,2527           01605                                    VFLAG
000563: 14,2530           30545                                    NEWPAR
000564: 14,2531           65120                 -3        XCHX,1   XCHX,2
000565: 14,2532           00302                                    BESTI
000566: 14,2533           00303                                    BESTJ
000567: 14,2534           47773        STRAT              VLOAD*   DOT*
000568: 14,2535           33776                                    CATLOG,1
000569: 14,2536           44001                                    CATLOG,2
000570: 14,2537           43006                           PUSH     BOFINV
000571: 14,2540           01545                                    VFLAG
000572: 14,2541           30531                                    STRAT      -3
000573: 14,2542           45345                           DLOAD    DSU
000574: 14,2543           77644                           BPL
000575: 14,2544           30470                                    PIC3
000576: 14,2545           67130        NEWPAR             SXA,1    SXA,2
000577: 14,2546           00302                                    BESTI
000578: 14,2547           00303                                    BESTJ
000579: 14,2550           77650                           GOTO
000580: 14,2551           30470                                    PIC3
000581: 14,2552           51321        OCCULT             MXV      BVSU
000582: 14,2553           02736                                    CULTRIX
000583: 14,2554           00017                                    CSS
000584: 14,2555           77654                           BZE
000585: 14,2556           30571                                    CULTED
000586: 14,2557           75240                           BMN      SIGN
000587: 14,2560           30571                                    CULTED
000588: 14,2561           00160                                    MPAC       +3
000589: 14,2562           75240                           BMN      SIGN
000590: 14,2563           30571                                    CULTED
000591: 14,2564           00162                                    MPAC       +5
000592: 14,2565           43040                           BMN      CLRGO
000593: 14,2566           30571                                    CULTED
000594: 14,2567           01630                                    CULTFLAG
000595: 14,2570           00052                                    QPRET
000596: 14,2571           77614        CULTED             SETGO
000597: 14,2572           01430                                    CULTFLAG
000598: 14,2573           00052                                    QPRET


000600: 14,2574  0000016               CSS                =        CEARTH
000601: 14,2574           21150 25157  SIN33              2DEC     .5376381241
000602:
000603: 14,2576           32766 22713  COS33              2DEC     .8431756920
000604:
000605: 14,2600           01736 35137  CSS66              2DEC     .060480472                            #  (COS76)/4
000606:
000607: 14,2602           73003 65403  CSS6640            2DEC     -.15602587                            #  (COS76 - COS30)/4
000608:
000609: 14,2604           06233 26112  CSS33              2DEC     .197002688                            #  (COS(1/2(76))/4
000610:
000611:                                                                                                  # V1             =       12D
000612: 14,2606           77414        PICEND             BOF      EXIT
000613: 14,2607           01745                                    VFLAG
000614: 14,2610           30621                                    P52F
000615: 14,2611           05671        P52I               TC       ALARM
000616: 14,2612           00405                           OCT      405
000617: 14,2613           35023                           CAF      V05N09
000618: 14,2614           04636                           TC       BANKCALL
000619: 14,2615           20743                           CADR     GOFLASH
000620: 14,2616           04103                           TC       GOTOPOOH
000621: 14,2617           02622                           TC       R51                                   #  PROCEED - DO R51 FINE ALIGN
000622: 14,2620           02407                           TC       P52C                                  #  RECYCLE - VEHICLE HAS BEEN MANEUVERED
000623: 14,2621           77776        P52F               EXIT
000624:


000626:
000627:                                                                                                  #  NAME - R51    FINE ALIGN
000628:                                                                                                  #  FUNCTION - TO ALIGN THE STABLE MEMBER TO REFSSMAT
000629:                                                                                                  #  INPUT - BESTI, BESTJ (PAIR OF STAR NO)
000630:                                                                                                  #  OUTPUT - GYRO TORQUE PULSES
000631:                                                                                                  #  SUBROUTINES - R52, R54, R55 (SXTNB, NBSM, AXISGEN)
000632:
000633: 14,2622                                           COUNT*   $$/R51
000634: 14,2622           34770        R51                CAF      BIT1
000635: 14,2623           54304        R51.3              TS       STARIND
000636: 14,2624           05561                           TC       DOWNFLAG
000637: 14,2625           00025                           ADRES    TARG2FLG
000638:
000639: 14,2626           05402                           TC       PHASCHNG
000640: 14,2627           05024                           OCT      05024                                 #  RESTART  GR 4  FOR R52-R53
000641: 14,2630           13000                           OCT      13000
000642: 14,2631           50304                           INDEX    STARIND
000643: 14,2632           30302                           CA       BESTI
000644: 14,2633           00006                           EXTEND
000645: 14,2634           73004                           MP       1/6TH
000646: 14,2635           55140                           TS       STARCODE
000647: 14,2636           06006                           TC       INTPRET
000648: 14,2637           77624                           CALL
000649: 14,2640           30761                                    R51DSPA
000650: 14,2641           72131                           SSP      LXA,1
000651: 14,2642           00051                                    S1
000652: 14,2643           00000                                    0
000653: 14,2644           00304                                    STARIND
000654: 14,2645           77700                           TIX,1
000655: 14,2646           30651                                    R51ST
000656: 14,2647           36617                           STCALL   STARSAV2                              #  2ND STAR
000657: 14,2650           30652                                    R51ST      +1
000658: 14,2651           02611        R51ST              STORE    STARSAV1                              #  1ST STAR
000659: 14,2652           54335                 +1        SLOAD    SL                                    #  IS THIS P54
000660: 14,2653           01215                                    MODREG
000661: 14,2654           20215                                    12D
000662: 14,2655           45030                           BHIZ     CALL
000663: 14,2656           30753                                    R51A                                  #  NO
000664: 14,2657           36105                                    R56
000665: 14,2660           77624        R51B               CALL
000666: 14,2661           36052                                    SXTSM
000667: 14,2662           02617                           STORE    STARSAV2
000668: 14,2663           45145                           DLOAD    CALL
000669: 14,2664           02607                                    TSIGHT
000670: 14,2665           31651                                    PLANET
000671: 14,2666           53521                           MXV      UNIT
000672: 14,2667           01734                                    REFSMMAT
000673: 14,2670           77776                           EXIT
000674: 14,2671           10304                           CCS      STARIND
000675: 14,2672           02744                           TC       R51.4
000676: 14,2673           06006                           TC       INTPRET
000677: 14,2674           26736                           STOVL    STARAD


000679: 14,2675           02617                                    STARSAV2
000680: 14,2676           24007                           STOVL    6D
000681: 14,2677           02611                                    STARSAV1
000682: 14,2700           24015                           STOVL    12D
000683: 14,2701           02601                                    PLANVEC
000684: 14,2702           36744                           STCALL   STARAD     +6
000685: 14,2703           34657                                    R54                                   #  STAR DATA TEST
000686: 14,2704           45014                           BOFF     CALL
000687: 14,2705           00354                                    FREEFLAG
000688: 14,2706           30757                                    R51K
000689: 14,2707           47432                                    AXISGEN
000690:
000691:                                                                                                  #  NAME - R55    GYRO TORQUE
000692:                                                                                                  #  FUNCTION - COMPUTE AND SEND GYRO PULSES
000693:                                                                                                  #  INPUT - X,Y,ZDC - REFSMMAT WRT PRESENT STABLE MEMBER
000694:                                                                                                  #  OUTPUT - GYRO PULSES
000695:                                                                                                  #  SUBROUTINES - CALCGTA, GOFLASH, GODSPR, IMUFINE, IMUPULSE, GOPERF1
000696:
000697: 14,2710                                           COUNT*   $$/R55
000698: 14,2710           77624        R55                CALL                                           #  COMPUTE AND SEND GYRO PULSES
000699: 14,2711           47240                                    CALCGTA
000700: 14,2712           77776        PULSEM             EXIT
000701: 14,2713           35040        R55.1              CAF      V06N93
000702: 14,2714           04636                           TC       BANKCALL
000703: 14,2715           20743                           CADR     GOFLASH
000704: 14,2716           04103                           TC       GOTOPOOH
000705: 14,2717           02721                           TC       R55.2
000706: 14,2720           02734                           TC       R55RET
000707: 14,2721           05402        R55.2              TC       PHASCHNG
000708: 14,2722           00314                           OCT      00314
000709: 14,2723  01,2165               4P31SPT1           =        4.31SPOT
000710: 14,2723           33002                           CA       R55CDR
000711: 14,2724           04636                           TC       BANKCALL
000712: 14,2725           17244                           CADR     IMUPULSE
000713: 14,2726           04636                           TC       BANKCALL
000714: 14,2727           17644                           CADR     IMUSTALL
000715: 14,2730           03766                           TC       217ALARM                              #  BAD END
000716: 14,2731           05402                           TC       PHASCHNG
000717: 14,2732           05024                           OCT      05024
000718: 14,2733           13000                           OCT      13000
000719: 14,2734           05561        R55RET             TC       DOWNFLAG
000720: 14,2735           00051                           ADRES    PFRATFLG
000721: 14,2736                                           COUNT*   $$/R51
000722: 14,2736           35775        R51KA              CAF      OCT14
000723: 14,2737           04636                           TC       BANKCALL
000724: 14,2740           21067                           CADR     GOPERF1
000725: 14,2741           04103                           TC       GOTOPOOH
000726: 14,2742           02407                           TC       P52C                                  #  V33
000727: 14,2743           04103                           TC       GOTOPOOH
000728: 14,2744           06006        R51.4              TC       INTPRET
000729: 14,2745           26601                           STOVL    PLANVEC


000731: 14,2746           02617                                    STARSAV2
000732: 14,2747           02611                           STORE    STARSAV1
000733: 14,2750           77776                           EXIT
000734: 14,2751           34772                           CAF      ZERO
000735: 14,2752           12623                           TCF      R51.3                                 #  CLEAR STARIND
000736: 14,2753           77624        R51A               CALL
000737: 14,2754           31005                                    R52
000738: 14,2755           77650                           GOTO
000739: 14,2756           30660                                    R51B
000740: 14,2757           77776        R51K               EXIT
000741: 14,2760           02736                           TC       R51KA
000742: 14,2761           77420        R51DSPA            STQ      EXIT
000743: 14,2762           02657                                    SRTEMP
000744: 14,2763           33003        R51DSP             CAF      V01N70
000745: 14,2764           05540                           TC       VNFLASHR
000746: 14,2765           02771                           TC       +4
000747: 14,2766           36211                           CAF      SIX
000748: 14,2767           05516                           TC       BLANKET
000749: 14,2770           15205                           TCF      ENDOFJOB
000750: 14,2771           03636                           TC       CHKSCODE
000751: 14,2772           04362                           TC       FALTON
000752: 14,2773           02763                           TC       R51DSP
000753: 14,2774           06006                           TC       INTPRET
000754: 14,2775           45034                           RTB      CALL
000755: 14,2776           51751                                    LOADTIME
000756: 14,2777           31651                                    PLANET
000757: 14,3000           77650                           GOTO
000758: 14,3001           02657                                    SRTEMP
000759: 14,3002           02757        R55CDR             ECADR    OGC
000760: 14,3003           00306        V01N70             VN       0170
000761: 14,3004           05253        1/6TH              DEC      .1666667
000762:
000763:                                                                                                  #  NAME - R52    AUTOMATIC OPTICS POSITIONING ROUTINE
000764:
000765:                                                                                                  #  FUNCTION-  (1) TO POINT THE STAR LOS OF THE OPTICS AT A STAR OR LANDMARK DEFINED BY THE PROGRAM OR BY DSKY INPUT.
000766:                                                                                                  #             (2) TO POINT THE STAR LOS OF THE OPTICS AT THE LEM DURING RENDEZVOUS TRACKING OPERATIONS.
000767:
000768:                                                                                                  #  CALLING SEQUENCE- CALL R52
000769:
000770:                                                                                                  #  INPUT- 1. TARG1FLG AND TARG2FLG - PRESET BY CALLER
000771:                                                                                                  #         2. RNDVZFLG AND TRACKFLG - PRESET BY CALLER
000772:                                                                                                  #         3. STAR CODE - PRESET BY CALLER. ALSO INPUT THROUGH DSKY
000773:                                                                                                  #         4. LAT, LONG, AND ALT OF LANDMARK - INPUT THROUGH DSKY
000774:                                                                                                  #         5. NO. OF MARKS (MARKINDX) - PRESET BY CALLER
000775:
000776:                                                                                                  #  OUTPUT- DRIVE SHAFT AND TRUNNION CDUS.
000777:
000778:                                                                                                  #  SUBROUTINES:  1.  FIXDELAY            7.  CLEANDSP
000779:                                                                                                  #                2.  GOPERF1             8.  GODSPR
000780:                                                                                                  #                3.  GOFLASH             9.  REFLASHR
000781:                                                                                                  #                4.  R53                 10. R52.2


000783:                                                                                                  #                5.  ALARM               11. R52.3
000784:                                                                                                  #                6.  SR52.1
000785:
000786: 14,3005                                           COUNT*   $$/R52
000787: 14,3005           77614        R52                CLEAR
000788: 14,3006           04265                                    ADVTRK
000789: 14,3007           77420        R52VRB             STQ      EXIT
000790: 14,3010           02576                                    SAVQR52
000791: 14,3011           35043                           CAF      EBANK5                                #  CALLER NOT ALWAYS IN E5.
000792: 14,3012           56003                           XCH      EBANK
000793: 14,3013           55577                           TS       R52BNKSV
000794: 14,3014           00006                           EXTEND
000795: 14,3015           30036                           DCA      CDUT
000796: 14,3016           53313                           DXCH     DESOPTT
000797: 14,3017           00006                           EXTEND
000798: 14,3020           30025                           DCA      TIME2
000799: 14,3021           52364                           DXCH     AOPOLD
000800: 14,3022           06006                           TC       INTPRET
000801: 14,3023           43131                           SSP      CLEAR
000802: 14,3024           01324                                    OPTIND
000803: 14,3025           00000                                    0
000804: 14,3026           00271                                    R53FLAG
000805: 14,3027           43014                           BON      CLEAR
000806: 14,3030           00705                                    TARG1FLG
000807: 14,3031           31222                                    R52H
000808: 14,3032           03660                                    TERMIFLG
000809: 14,3033           77776                           EXIT
000810: 14,3034           31354        R52C               CA       SWSAMPLE                              #  IS OPTICS MODE IN AGC
000811: 14,3035           00006                           EXTEND
000812: 14,3036           63245                           BZMF     R52M                                  #  MANUAL
000813: 14,3037           06006        R52D               TC       INTPRET                               #  THIS IS SR52.1 - NOW IN-LINE
000814:                                                                                                  #  NAME - SR52.1
000815:
000816:                                                                                                  #  FUNCTION
000817:                                                                                                  #   TARG1 AND TARG2 FLAGS ARE LOOKED AT TO DETERMINE IF THE TARGET IS THE
000818:                                                                                                  #   LEM, STAR, OR LANDMARK. IN CASE OF LEM OR LMK, THE PRESENT TIME PLUS
000819:                                                                                                  #   2 SECONDS IS SAVED IN AOPTIME (ALIAS STARAD, +1). IF THE LEM IS
000820:                                                                                                  #   THE TARGET THEN CONIC UPDATES OF THE CSM AND LEM ARE MADE TO
000821:                                                                                                  #   THE TIME IN AOPTIME. THE UNIT OF THE DIFFERENCE OF LEM AND CSM
000822:                                                                                                  #   POSITION VECTORS BECOMES THE REFERENCE SIGHTING VECTOR USED IN THE
000823:                                                                                                  #   COMMON PART OF THE THIS PROGRAM.
000824:
000825:                                                                                                  #   IN THE CASE OF LANDMARK, THE CSM IS UPDATED CONICALLY. THE RADIUS
000826:                                                                                                  #   VECTOR FOR THE LANDMARK IS OBTAINED FROM LALOTORV. BOTH OF THESE ARE
000827:                                                                                                  #   FOUND FOR THE TIME IN AOPTIME. THE UNIT OF THE DIFFERENCE BETWEEN
000828:                                                                                                  #   THE LANDMARK AND CSM RADIUS VECTORS BECOMES THE REFERENCE SIGHTING
000829:                                                                                                  #   VECTOR FOR THE COMMON PART OF THIS ROUTINE.
000830:
000831:                                                                                                  #   IF A STAR IS THE TARGET, THE PROPER STAR IS OBTAINED FROM THE CATALOG
000832:                                                                                                  #   AND THIS VECTOR BECOMES THE REFERENCE SIGHTING VECTOR.
000833:
000834:                                                                                                  #   THE COMMON PART OF THIS PROGRAM TRANSFORMS THE REFERENCE SIGHTING


000836:                                                                                                  #   VECTOR INTO STABLE MEMBER COORDINATES. IT READS THE IMU-CDUS AND USES
000837:                                                                                                  #   THIS DATA IN A CALL TO CALCSXA. ON RETURN FROM CALCSXA A TEST IS
000838:                                                                                                  #   MADE TO SEE IF THE TRUNNION ANGLE IS GREATER THAN 90DEG. OR 50DEG.
000839:
000840:                                                                                                  #  OUTPUT
000841:                                                                                                  #   SAC - SINGLE PREC, 2S COMP, SCALED AT HALF REVS - SHAFT ANGLE DESIRED
000842:                                                                                                  #   PAC - SINGLE PREC, 2S COMP, SCALED AT EIGHTH REVS - TRUNNION ANGLE DESIRED
000843:
000844:                                                                                                  #  INITIALIZATION
000845:                                                                                                  #   IF TARG1FLG =1 THEN TARGET IS LEM - NO OTHER INPUT REQUIRED
000846:                                                                                                  #   IF TARG1FLG =0 AND TARG2FLG =0 THE TARGET IS STAR, STARIND SHOULD
000847:                                                                                                  #   0 OR 1 DENOTING BESTI OR BESTJ RESPECTIVELY AS STAR CODE. STAR CODES
000848:                                                                                                  #   ARE 6 TIMES STAR NUMBER.
000849:                                                                                                  #   IF TARG1FLG =0 AND TARG2FLG =1 THEN TARGET IS LANDMARK. SEE ROUTINE
000850:                                                                                                  #   LALOTORV FOR INPUT REQUIREMENTS. HERE FIXERAD=1 FOR CONSTANT EARTH
000851:                                                                                                  #   RADIUS
000852:
000853:                                                                                                  #  DEBRIS
000854:                                                                                                  #   WORK AREA
000855:                                                                                                  #   STARAD - STAR+5 (STAR IS DESIRED LOS IN STABLE MEMBER COORDINATES)
000856:
000857: 14,3040           43234                 +1        RTB      DAD
000858: 14,3041           51751                                    LOADTIME
000859: 14,3042           31271                                    2.4SECDP
000860: 14,3043           45214                           BOFF     DSU
000861: 14,3044           04741                                    P24FLAG
000862: 14,3045           31047                                    +2
000863: 14,3046           31273                                    .5SECDP
000864: 14,3047           02347                           STORE    AOPTIME
000865: 14,3050           43014                           BON      BON
000866: 14,3051           00705                                    TARG1FLG
000867: 14,3052           31066                                    LEM52
000868: 14,3053           00706                                    TARG2FLG
000869: 14,3054           31075                                    LMK52
000870: 14,3055           72131                           SSP      LXA,1
000871: 14,3056           00051                                    S1
000872: 14,3057           00000                                    0
000873: 14,3060           00304                                    STARIND
000874: 14,3061           77700                           TIX,1
000875: 14,3062           31116                                    ST52ST
000876: 14,3063           52175                           VLOAD    GOTO
000877: 14,3064           02617                                    STARSAV2
000878: 14,3065           31120                                    COM52
000879: 14,3066           77745        LEM52              DLOAD
000880: 14,3067           02347                                    AOPTIME
000881: 14,3070           34041                           STCALL   TDEC1
000882: 14,3071           27202                                    LEMCONIC
000883: 14,3072           52175                           VLOAD    GOTO
000884: 14,3073           00001                                    RATT
000885: 14,3074           31105                                    LMKLMCOM


000887: 14,3075           71214        LMK52              BON      DLOAD
000888: 14,3076           04305                                    ADVTRK
000889: 14,3077           54040                                    ADVTRACK
000890: 14,3100           02347                                    AOPTIME
000891: 14,3101           77624                           CALL
000892: 14,3102           26524                                    LALOTORV
000893: 14,3103           77775                           VLOAD
000894: 14,3104           02152                                    ALPHAV
000895: 14,3105           16766        LMKLMCOM           STODL    STAR
000896: 14,3106           02347                                    AOPTIME
000897: 14,3107           34041                           STCALL   TDEC1
000898: 14,3110           27170                                    CSMCONIC
000899: 14,3111           52375                           VLOAD    VSU
000900: 14,3112           02766                                    STAR
000901: 14,3113           00001                                    RATT
000902: 14,3114           52056                           UNIT     GOTO
000903: 14,3115           31120                                    COM52
000904: 14,3116           77775        ST52ST             VLOAD
000905: 14,3117           02611                                    STARSAV1
000906: 14,3120           53521        COM52              MXV      UNIT
000907: 14,3121           01734                                    REFSMMAT
000908: 14,3122           02766                           STORE    STAR
000909: 14,3123           45001                           SETPD    CALL
000910: 14,3124           00001                                    0
000911: 14,3125           47530                                    CDUTRIG                               #  COMPUTES SINES AND COSINES FOR CALCSXA
000912: 14,3126           77624                           CALL                                           #        NOW EXPECT TO SEE THE CDU ANGLES.
000913: 14,3127           46034                                    CALCSXA
000914: 14,3130           71214                           BON      DLOAD
000915: 14,3131           01710                                    CULTFLAG
000916: 14,3132           31276                                    R52L                                  #  GR 90 DEGREES
000917: 14,3133           02776                                    PAC
000918: 14,3134           51025                           DSU      BPL
000919: 14,3135           31267                                    38TRDEG
000920: 14,3136           31241                                    R52J                                  #  GR 50 DEGREES
000921: 14,3137           45345                           DLOAD    DSU
000922: 14,3140           02776                                    PAC
000923: 14,3141           31275                                    20DEGSMN
000924: 14,3142           77440                           BMN      EXIT
000925: 14,3143           31241                                    R52J
000926: 14,3144           31775                           CA       PAC
000927: 14,3145           54330                           TS       PACTEMP
000928: 14,3146           06006        R52JA              TC       INTPRET
000929: 14,3147           43014                           BON      BOFF
000930: 14,3150           00705                                    TARG1FLG
000931: 14,3151           31170                                    R52E
000932: 14,3152           04741                                    P24FLAG
000933: 14,3153           31161                                    R53CHK
000934: 14,3154           71214                           BOFCLR   DLOAD
000935: 14,3155           04241                                    NEWLMFLG
000936: 14,3156           16530                                    RATESUB


000938: 14,3157           02347                                    AOPTIME
000939: 14,3160           00364                           STORE    AOPOLD
000940: 14,3161           77414        R53CHK             BON      EXIT
000941: 14,3162           00311                                    R53FLAG
000942: 14,3163           31170                                    R52E
000943: 14,3164           33265                           CAF      V06N92                                #  NO
000944: 14,3165           04636                           TC       BANKCALL
000945: 14,3166           20710                           CADR     GODSPR
000946: 14,3167           06006                           TC       INTPRET
000947: 14,3170           77776        R52E               EXIT
000948: 14,3171           30330                           CA       PACTEMP
000949: 14,3172           55312                           TS       DESOPTT
000950: 14,3173           31773                           CA       SAC
000951: 14,3174           55313                           TS       DESOPTS
000952: 14,3175           05354        R52F               TC       CHECKMM
000953: 14,3176           00030                           MM       24         B-14
000954: 14,3177           13202                           TCF      R52FA                                 #  NO
000955: 14,3200           34773                           CAF      FIVE                                  #  YES DELAY .05 SEC
000956: 14,3201           13203                           TCF      R52FA      +1
000957: 14,3202           35011        R52FA              CAF      .5SEC                                 #  WAIT .5 SEC
000958: 14,3203           04636                 +1        TC       BANKCALL
000959: 14,3204           01731                           CADR     DELAYJOB
000960: 14,3205           34757                           CAF      TARG1BIT
000961: 14,3206           70075                           MASK     FLAGWRD1
000962: 14,3207           10000                           CCS      A
000963: 14,3210           03223                           TC       R52HA
000964:
000965: 14,3211           34752                           CAF      TERMIBIT
000966: 14,3212           70103                           MASK     FLAGWRD7
000967: 14,3213           00006                           EXTEND
000968: 14,3214           13034                           BZF      R52C
000969:
000970: 14,3215           31577        R52Q               CA       R52BNKSV
000971: 14,3216           54003                           TS       EBANK
000972:
000973: 14,3217           06006                           TC       INTPRET
000974: 14,3220           77650                           GOTO
000975: 14,3221           02576                                    SAVQR52
000976:
000977: 14,3222           77776        R52H               EXIT                                           #  LEM
000978: 14,3223           04636        R52HA              TC       BANKCALL
000979: 14,3224           76333                           CADR     R61CSM
000980: 14,3225           34764                           CAF      TRACKBIT
000981: 14,3226           70075                           MASK     FLAGWRD1
000982: 14,3227           00006                           EXTEND
000983: 14,3230           13215                           BZF      R52Q
000984: 14,3231           06006                           TC       INTPRET
000985: 14,3232           52014                           BOF      GOTO
000986: 14,3233           00750                                    UPDATFLG
000987: 14,3234           31236                                    R52SYNC


000989: 14,3235           31040                                    R52D       +1
000990: 14,3236           77776        R52SYNC            EXIT
000991: 14,3237           33311                           CAF      1.8SEC
000992: 14,3240           13203                           TCF      R52FA      +1
000993: 14,3241           77776        R52J               EXIT
000994: 14,3242           33266                           CA       38TRDEG
000995: 14,3243           54330                           TS       PACTEMP
000996: 14,3244           03146                           TC       R52JA
000997: 14,3245           34763        R52M               CAF      R53FLBIT                              #  IS R53FLAG SET
000998: 14,3246           70074                           MASK     FLAGWRD0
000999: 14,3247           10000                           CCS      A
001000: 14,3250           03316                           TC       R52G                                  #  YES
001001: 14,3251           00004                           INHINT                                         #  NO
001002: 14,3252           37645                           CAF      PRIO24
001003: 14,3253           05135                           TC       FINDVAC
001004: 14,3254  E7,1722                                  EBANK=   MRKBUF1
001005: 14,3254           03260 30067                     2CADR    R53JOB
001006:
001007: 14,3256           00003                           RELINT
001008: 14,3257           03316                           TC       R52G
001009: 14,3260           06006        R53JOB             TC       INTPRET
001010: 14,3261           77624                           CALL
001011: 14,3262           31571                                    R53
001012: 14,3263           77776        ENDPLAC            EXIT                                           #  INTERPRETER RETURN TO ENDOFJOB (R22 USES)
001013: 14,3264           05205                           TC       ENDOFJOB
001014: 14,3265           01534        V06N92             VN       00692
001015: 14,3266           25252 25254  38TRDEG            2DEC     .66666667                             #  CORRESPONDS TO 50 DEGS IN TRUNION
001016:
001017: 14,3270           00000 00360  2.4SECDP           2DEC     240        B-28
001018:
001019: 14,3272           00000 00062  .5SECDP            2DEC     50         B-28
001020:
001021: 14,3274           61740        20DEGSMN           DEC      -07199     B-14
001022: 14,3275           77777                           DEC      -0         B-14
001023: 14,3276           77414        R52L               BON      EXIT
001024: 14,3277           00705                                    TARG1FLG
001025: 14,3300           31241                                    R52J
001026: 14,3301           33310                           CAF      OCT404
001027: 14,3302           04636                           TC       BANKCALL
001028: 14,3303           21766                           CADR     PRIOLARM
001029: 14,3304           13312                           TCF      TERM52                                #  TERMINATE
001030: 14,3305           13175                           TCF      R52F                                  #  PROCEED
001031: 14,3306           13175                           TCF      R52F                                  #  NO PROVISION FOR NEW DATA
001032: 14,3307           15205                           TCF      ENDOFJOB
001033:
001034: 14,3310           00404        OCT404             OCT      404
001035:
001036: 14,3311           00264        1.8SEC             DEC      180        B-14
001037:
001038: 14,3312           04636        TERM52             TC       BANKCALL


001040: 14,3313           20575                           CADR     KLEENEX
001041:
001042: 14,3314           04655                           TC       POSTJUMP
001043: 14,3315           16031                           CADR     TERMSXT
001044:
001045: 14,3316           05354        R52G               TC       CHECKMM
001046: 14,3317           00030                           MM       24         B-14
001047: 14,3320           13202                           TCF      R52FA                                 #  NO
001048: 14,3321           11131                           CCS      PASSCNT                               #  IS THIS THE NTH (N = NO. PASS) TIME THRU
001049: 14,3322           13407                           TCF      NOT4TH                                #  NO
001050: 14,3323           40076                           CS       FLAGWRD2                              #  HAS A NEW MARK BEEN TAKEN
001051: 14,3324           74766                           MASK     P24MKBIT
001052: 14,3325           10000                           CCS      A
001053: 14,3326           13037                           TCF      R52D
001054: 14,3327           06006                           TC       INTPRET                               #  YES OBTAIN ADDRESS OF LAST MARK
001055: 14,3330           46135                           SLOAD    BHIZ
001056: 14,3331           03754                                    P22DEX
001057: 14,3332           31411                                    LSTMRK
001058: 14,3333           54160                           AXC,1    XSU,1
001059: 14,3334           03530                           ECADR    SVMRKDAT   -7
001060: 14,3335           03753                                    P22DEX
001061: 14,3336           70730        R52K               SXA,1    DLOAD*
001062: 14,3337           01077                                    MARKDATA
001063: 14,3340           00001                                    0,1
001064: 14,3341           47044                           BPL      RTB
001065: 14,3342           31344                                    +2
001066: 14,3343           31037                                    R52D
001067: 14,3344           03670                           STORE    S22TOFF
001068: 14,3345           34041                           STCALL   TDEC1                                 #  INT TO TIME OF MARK
001069: 14,3346           27170                                    CSMCONIC
001070: 14,3347           77775                           VLOAD
001071: 14,3350           00017                                    RATT1
001072: 14,3351           01046                           STORE    CSMPOS                                #  EARTH B29 MOON B27
001073: 14,3352           45150                           LXA,1    CALL
001074: 14,3353           01077                                    MARKDATA
001075: 14,3354           47017                                    GETUM
001076: 14,3355           25072                           STOVL    UM                                    #  UNIT TIME OF SIGHT VECTOR
001077: 14,3356           01046                                    CSMPOS
001078: 14,3357           77656                           UNIT
001079: 14,3360           36152                           STCALL   ALPHAV                                #  ALPHAV +4 = SINL FOR SETRE
001080: 14,3361           26654                                    SETRE
001081: 14,3362           43345                           DLOAD    DAD                                   #  CORRECT R0 FOR ALT OF LMK
001082: 14,3363           02240                                    ERADM
001083: 14,3364           00753                                    ALT
001084: 14,3365           02240                           STORE    ERADM
001085: 14,3366           77624                           CALL                                           #  COMPUTE LANDMARK VECTOR
001086: 14,3367           61331                                    S22F2410
001087: 14,3370           70414                           BOFF     VSR2
001088: 14,3371           04343                                    CMOONFLG
001089: 14,3372           31373                                    +1


001091: 14,3373           16152                           STODL    ALPHAV
001092: 14,3374           03670                                    S22TOFF
001093: 14,3375           77624                           CALL                                           #  COMPUTE LAT, LONG, ALT
001094: 14,3376           26453                                    LAT-LONG
001095: 14,3377           77624                           CALL
001096: 14,3400           62363                                    LLASRD
001097: 14,3401           77414                           SET      EXIT
001098: 14,3402           04061                                    NEWLMFLG
001099: 14,3403           05561                           TC       DOWNFLAG
001100: 14,3404           00052                           ADRES    P24MKFLG
001101: 14,3405           44770                           CS       ONE
001102: 14,3406           60737                           AD       NO.PASS
001103: 14,3407           55131        NOT4TH             TS       PASSCNT
001104: 14,3410           13037                           TCF      R52D
001105: 14,3411           52160        LSTMRK             AXC,1    GOTO
001106: 14,3412           03573                           ECADR    SVMRKDAT   +28D
001107: 14,3413           31336                                    R52K
001108: 07,2000                                           SETLOC   RATEBNK
001109: 07,2000                                           BANK
001110:
001111: 07,2530                                           COUNT*   $$/R52
001112: 07,2530           45345        RATESUB            DLOAD    DSU
001113: 07,2531           02347                                    AOPTIME
001114: 07,2532           00364                                    AOPOLD
001115: 07,2533           77634                           RTB
001116: 07,2534           45636                                    SGNAGREE
001117: 07,2535           77612                           SL4
001118: 07,2536           14772                           STODL    RATETEMP                              #  TIME DIF SCALLED B24
001119: 07,2537           02347                                    AOPTIME
001120: 07,2540           00364                           STORE    AOPOLD                                #  UPDATE OLD TIME REG
001121: 07,2541           77545                           DLOAD    EXIT                                  #  LOAD SHAFT AND TRUNNION SCALE FACTORS
001122: 07,2542           01771                                    TRUNSF
001123: 07,2543           30772                           CA       RATETEMP   +1
001124: 07,2544           56771                           XCH      RATETEMP                              #  TIME DIF SP SCALED B10
001125: 07,2545           22007                           ZL
001126: 07,2546           30155                           CA       MPAC       +1                         #  SHAFTSF b25
001127: 07,2547           00006                           EXTEND
001128: 07,2550           10771                           DV       RATETEMP                              #  B15
001129: 07,2551           56001                           XCH      L
001130: 07,2552           31773                           CA       SAC                                   #  SHAFT
001131: 07,2553           00006                           EXTEND
001132: 07,2554           21313                           MSU      DESOPTS                               #  B-1
001133: 07,2555           00006                           EXTEND
001134: 07,2556           70001                           MP       L                                     #  B14
001135: 07,2557           55657                           TS       SRTEMP
001136: 07,2560           22007                           ZL
001137: 07,2561           30154                           CA       MPAC                                  #  TRUNSF B27
001138: 07,2562           00006                           EXTEND
001139: 07,2563           10771                           DV       RATETEMP                              #  B17
001140: 07,2564           56001                           XCH      L


001142: 07,2565           30330                           CA       PACTEMP                               #  TRUNNION
001143: 07,2566           00006                           EXTEND
001144: 07,2567           21312                           MSU      DESOPTT                               #  B-3
001145: 07,2570           00006                           EXTEND
001146: 07,2571           70001                           MP       L                                     #  B14
001147: 07,2572           55656                           TS       TRTEMP
001148: 07,2573           34770                           CAF      ONE                                   #  INITIALIZE FOR SHAFT RATE
001149: 07,2574           54772        MAGCK              TS       RATETEMP   +1                         #  CHECK IF SHAFT,TRUN RATES GR THAN MAX
001150: 07,2575           50772                           INDEX    RATETEMP   +1
001151: 07,2576           31656                           CA       TRTEMP
001152: 07,2577           00006                           EXTEND
001153: 07,2600           62610                           BZMF     NEGRATE
001154: 07,2601           62626                           AD       -MAXSRT
001155: 07,2602           00006                           EXTEND
001156: 07,2603           62617                           BZMF     CMDCMP
001157: 07,2604           42626                           CS       -MAXSRT
001158: 07,2605           50772                           INDEX    RATETEMP   +1
001159: 07,2606           55656                           TS       TRTEMP                                #  SET RATE TO +MAX RATE
001160: 07,2607           12617                           TCF      CMDCMP
001161: 07,2610           40000        NEGRATE            COM
001162: 07,2611           62626                           AD       -MAXSRT
001163: 07,2612           00006                           EXTEND
001164: 07,2613           62617                           BZMF     CMDCMP
001165: 07,2614           32626                           CA       -MAXSRT
001166: 07,2615           50772                           INDEX    RATETEMP   +1
001167: 07,2616           55656                           TS       TRTEMP                                #  SET RATE TO -MAX RATE
001168: 07,2617           10772        CMDCMP             CCS      RATETEMP   +1
001169: 07,2620           12574                           TCF      MAGCK                                 #  GO DO TRUN RATE
001170: 07,2621           06006                           TC       INTPRET
001171: 07,2622           77745                           DLOAD
001172: 07,2623           02657                                    TRTEMP
001173: 07,2624           34736                           STCALL   TRATE
001174: 07,2625           31161                                    R53CHK
001175: 07,2626           77177        -MAXSRT            DEC      -384       B-14                       #  MAX PULSES
001176:


001178:                                                                                                  #  NAME - LOCSAM ALIAS S50
001179:
001180:                                                                                                  #  FUNCTION - TO COMPUTE QUATITIGS LISTED BELOW, USED IN THE
001181:                                                                                                  #             IMU ALIGNMENT PROGRAMS.
001182:
001183:                                                                                                  #  DEFINE:
001184:                                                                                                  #        RATT    = POSITION VECTOR OF CM  WRT PRIMARY BODY
001185:                                                                                                  #        VATT    = VELOCITY VECTOR OF CM  WRT PRIMARY BODY
001186:                                                                                                  #        RE      = RADIUS OF EARTH
001187:                                                                                                  #        RM      = RADIUS OF MOON
001188:                                                                                                  #        ECLIPOL = POLE OF ECLIPTIC SCALED BY TANGENTIAL VELOCITY OF EARTH
001189:                                                                                                  #                  WRT TO SUN  OVER  THE VELOCITY OF LIGHT
001190:                                                                                                  #        REM     = POSITION OF MOON  WRT  EARTH
001191:                                                                                                  #        RES     = POSITION OF SUN  WRT  EARTH
001192:                                                                                                  #        C       = VELOCITY OF LIGHT
001193:
001194:
001195:                                                                                                  #                EARTH IS PRIMARY                        MOON IS PRIMARY
001196:                                                                                                  #                        _                                       _
001197:                                                                                                  #                VEARTH=-1(RATT)                         VEARTH=-1(REM+RATT)
001198:                                                                                                  #                        _                                       _
001199:                                                                                                  #                VMOON = 1(REM-RATT)                     VMOON =-1(RATT)
001200:                                                                                                  #                        _                                       _
001201:                                                                                                  #                VSUN  = 1(RES)                          VSUN  = 1(RES-REM)
001202:                                                                                                  #                              -1
001203:                                                                                                  #                CEARTH=COS(SIN  (RE/RATT)+5)            CEARTH=COS 5
001204:                                                                                                  #                                                                      -1
001205:                                                                                                  #                CMOON =COS 5                            CMOON =COS(SIN  CRM/RATT)+5)
001206:
001207:                                                                                                  #                CSUN  =COS 15                           CSUN  =COS 15
001208:
001209:                                                                                                  #                            VEL/C = VSUN x ECLIPOL + VATT/C
001210:
001211:
001212:                                                                                                  #  CALL -        DLOAD   CALL
001213:                                                                                                  #                        DESIRED TIME
001214:                                                                                                  #                        LOCSAM
001215:
001216:                                                                                                  #  INPUTS - MPAC = TIME
001217:
001218:                                                                                                  #  OUTPUTS- VEARTH,VMOON,VSUN,CEARTH,CMOON,CSUN,VEL/C
001219:
001220:                                                                                                  #  SUBROUTINES- LSPOS,CSMCONIC
001221:
001222:                                                                                                  #  DEBRIS - VAC AREA, SEE SUBROUTINES
001223:


001225: 13,2000                                           SETLOC   SR52/1
001226: 13,2000                                           BANK
001227:
001228: 13,2345                                           COUNT*   $$/S50
001229:
001230: 13,2345  13,2345               LOCSAM             =        S50
001231: 13,2345           77620        S50                STQ
001232: 13,2346           00300                                    QMAJ
001233: 13,2347           36607                           STCALL   TSIGHT
001234: 13,2350           54136                                    LSPOS
001235: 13,2351           26752                           STOVL    VMOON
001236: 13,2352           00003                                    2D
001237: 13,2353           16744                           STODL    VSUN
001238: 13,2354           02607                                    TSIGHT
001239: 13,2355           34041                           STCALL   TDEC1
001240: 13,2356           27170                                    CSMCONIC
001241: 13,2357           61131                           SSP      TIX,2
001242: 13,2360           00052                                    S2
001243: 13,2361           00000                                    0
001244: 13,2362           26405                                    MOONCNTR
001245: 13,2363           52375        EARTCNTR           VLOAD    VSU
001246: 13,2364           02752                                    VMOON
001247: 13,2365           00001                                    RATT
001248: 13,2366           77656                           UNIT
001249: 13,2367           26752                           STOVL    VMOON
001250: 13,2370           00001                                    RATT
001251: 13,2371           57456                           UNIT     VCOMP
001252: 13,2372           16736                           STODL    VEARTH
001253: 13,2373           34636                                    RSUBE
001254: 13,2374           77624                           CALL
001255: 13,2375           26445                                    OCCOS
001256: 13,2376           14017                           STODL    CEARTH
001257: 13,2377           34654                                    CSS5
001258: 13,2400           24023                           STOVL    CMOON
001259: 13,2401           02744                                    VSUN
001260: 13,2402           77656                           UNIT
001261: 13,2403           36744                           STCALL   VSUN
001262: 13,2404           26432                                    ENDSAM
001263: 13,2405           40575        MOONCNTR           VLOAD    VSR8
001264: 13,2406           02752                                    VMOON
001265: 13,2407           51362                           VSR1     BVSU
001266: 13,2410           02744                                    VSUN
001267: 13,2411           77656                           UNIT
001268: 13,2412           26744                           STOVL    VSUN
001269: 13,2413           02752                                    VMOON
001270: 13,2414           53455                           VAD      UNIT
001271: 13,2415           00001                                    RATT
001272: 13,2416           77676                           VCOMP
001273: 13,2417           26736                           STOVL    VEARTH


001275: 13,2420           00001                                    RATT
001276: 13,2421           57456                           UNIT     VCOMP
001277: 13,2422           16752                           STODL    VMOON
001278: 13,2423           34634                                    RSUBM
001279: 13,2424           77624                           CALL
001280: 13,2425           26445                                    OCCOS
001281: 13,2426           14023                           STODL    CMOON
001282: 13,2427           34654                                    CSS5
001283: 13,2430           24017                           STOVL    CEARTH
001284: 13,2431           02744                                    VSUN
001285: 13,2432           77635        ENDSAM             VXV
001286: 13,2433           34644                                    ECLIPOL
001287: 13,2434           27452                           STOVL    VEL/C
001288: 13,2435           00007                                    VATT
001289: 13,2436           53361                           VXSC     VAD
001290: 13,2437           34642                                    1/C
001291: 13,2440           03452                                    VEL/C
001292: 13,2441           17452                           STODL    VEL/C
001293: 13,2442           34656                                    CSSUN
001294: 13,2443           34021                           STCALL   CSUN
001295: 13,2444           00300                                    QMAJ
001296: 13,2445           70471        OCCOS              DDV      SR1
001297: 13,2446           00045                                    36D
001298: 13,2447           43336                           ASIN     DAD
001299: 13,2450           34640                                    5DEGREES
001300: 13,2451           70546                           COS      SR1
001301: 13,2452           77616                           RVQ
001302: 16,2000                                           SETLOC   P50S2
001303: 16,2000                                           BANK
001304: 16,2633                                           COUNT*   $$/S50
001305: 16,2633           00065 01265  RSUBM              2DEC     1738090    B-29                       #  MOON RADIUS IN METERS
001306:
001307: 16,2635           00302 24533  RSUBE              2DEC     6378166    B-29
001308:
001309: 16,2637           00343 21616  5DEGREES           2DEC     .013888889                            #  SCALED IN REVS
001310:
001311: 16,2641           00000 13143  1/C                2DEC     .000042696 B-1                        #  1/(9835712 FT/CS) SCALED CSEC/M B+7
001312:
001313: 16,2643           00000 00000  ECLIPOL            2DEC     0          B-28                       #  POLE OF ECLIPTIC FOR B0=.409157363336 RAD
001314:
001315: 16,2645           77777 53213                     2DEC     -.0000395319722                            #  AND CONST.AB = 20.496 ARC-SEC
001316:
001317: 16,2647           00001 17630                     2DEC     +.0000911652662                            #  ECLIPOL = CONST.AB.(0, -SIN B0, COS B0)
001318:
001319: 16,2651           00001 16700  TSIGHT1            2DEC     24000      B-28
001320:
001321: 16,2653                        CEARTH             =        14D
001322: 16,2653                        CSUN               =        16D
001323: 16,2653                        CMOON              =        18D
001324: 16,2653           07760 14473  CSS5               2DEC     .2490475                              #  (COS 5)/4
001325:


001327: 16,2655           07564 15042  CSSUN              2DEC     .24148                                #  COS 15 /4
001328:
001329: 16,2657  16,2657               R54                =        CHKSDATA
001330:
001331:                                                                                                  #  NAME - CHKSDATA
001332:
001333:                                                                                                  #  FUNCTIONAL DESCRIPTION - CHECKS THE VALIDITY OF A PAIR OF STAR SIGHTINGS. WHEN A PAIR OF STAR SIGHTINGS ARE MADE
001334:                                                                                                  #  BY THE ASTRONAUT THIS ROUTINE OPERATES AND CHECKS THE OBSERVED SIGHTINGS AGAINST STORED STAR VECTORS IN THE
001335:                                                                                                  #  COMPUTER TO INSURE A PROPER SIGHTING WAS MADE. THE FOLLOWING COMPUTATIONS ARE PERFORMED -
001336:
001337:                                                                                                  #        OS1 = OBSERVED STAR 1 VECTOR
001338:                                                                                                  #        OS2 = OBSERVED STAR 2 VECTOR
001339:                                                                                                  #        SS1 = STORED STAR 1 VECTOR
001340:                                                                                                  #        SS2 = STORED STAR 2 VECTOR
001341:                                                                                                  #         A1 = ARCCOS(OS1 - OS2)
001342:                                                                                                  #         A2 = ARCCOS(SS1 - SS2)
001343:                                                                                                  #          A = ABS(2(A1 - A2))
001344:
001345:                                                                                                  #  THE ANGULAR DIFFERENCE IS DISPLAYED FOR ASTRONAUT ACCEPTANCE
001346:
001347:                                                                                                  #  EXIT MODE 1. FREEFLAG SET  IMPLIES ASTRONAUT WANTS TO PROCEED
001348:                                                                                                  #            2. FREEFLAG RESET IMPLIES ASTRONAUT WANTS TO RECYCLE
001349:
001350:                                                                                                  #  OUTPUT - 1. VERB 6,NOUN 3 - DISPLAYS ANGULAR DIFFERENCE BETWEEN 2 SETS OF STARS.
001351:                                                                                                  #           2. STAR VECTORS FROM STAR CATALOG ARE LEFT IN 6D AND 12D.
001352:
001353:                                                                                                  #  ERASABLE INITIALIZATION REQUIRED -
001354:                                                                                                  #        1. MARK VECTORS ARE STORED IN STARAD AND STARAD +6.
001355:                                                                                                  #        2. CATALOG VECTORS ARE STORED IN 6D AND 12D.
001356:
001357:                                                                                                  #  DEBRIS -
001358:
001359: 16,2657  0003777                                  EBANK=   WHOCARES
001360: 16,2657                                           COUNT*   $$/R54
001361: 16,2657           43020        CHKSDATA           STQ      SET
001362: 16,2660           02777                                    QMIN
001363: 16,2661           00074                                    FREEFLAG
001364: 16,2662           77760        CHKSAB             AXC,1                                          #  SET X1 TO STORE EPHEMERIS DATA
001365: 16,2663           02735                                    STARAD
001366:
001367: 16,2664           47773        CHKSB              VLOAD*   DOT*                                  #  CAL. ANGLE THETA
001368: 16,2665           00001                                    0,1
001369: 16,2666           00007                                    6,1
001370: 16,2667           65552                           SL1      ACOS
001371: 16,2670           00025                           STORE    THETA
001372: 16,2671           43014                           BOFF     INVERT                                #  BRANCH TO CHKSD IF THIS IS 2ND PASS
001373: 16,2672           00354                                    FREEFLAG
001374: 16,2673           34702                                    CHKSD
001375: 16,2674           00174                                    FREEFLAG                              #  CLEAR FREEFLAG
001376: 16,2675           71360                           AXC,1    DLOAD                                 #  SET X1 TO MARK ANGLES
001377: 16,2676           00006                                    6D
001378: 16,2677           00025                                    THETA
001379: 16,2700           34023                           STCALL   18D
001380: 16,2701           34664                                    CHKSB


001382: 16,2702           45345        CHKSD              DLOAD    DSU
001383: 16,2703           00025                                    THETA
001384: 16,2704           00023                                    18D                                   #  COMPUTE POS DIFF
001385: 16,2705           47046                           ABS      RTB
001386: 16,2706           45636                                    SGNAGREE
001387: 16,2707           01251                           STORE    NORMTEM1
001388: 16,2710           77414                           SET      EXIT
001389: 16,2711           00074                                    FREEFLAG
001390: 16,2712           34772                           CAF      ZERO
001391: 16,2713           04636                           TC       BANKCALL
001392: 16,2714           20715                           CADR     CLEANDSP
001393:
001394: 16,2715           32727                           CAF      VB6N5
001395: 16,2716           04636                           TC       BANKCALL
001396: 16,2717           20743                           CADR     GOFLASH
001397: 16,2720           14103                           TCF      GOTOPOOH
001398: 16,2721           02724                           TC       CHKSDA                                #  PROCEED
001399: 16,2722           05561                           TC       DOWNFLAG
001400: 16,2723           00014                           ADRES    FREEFLAG
001401: 16,2724           06006        CHKSDA             TC       INTPRET
001402: 16,2725           77650                           GOTO
001403: 16,2726           02777                                    QMIN
001404: 16,2727           01405        VB6N5              VN       605
001405:
001406: 16,2730                                           COUNT*   $$/R50
001407: 16,2730           77773        MATMOVE            VLOAD*                                         #  TRANSFER MATRIX
001408: 16,2731           00001                                    0,1
001409: 16,2732           10001                           STORE    0,2
001410: 16,2733           77773                           VLOAD*
001411: 16,2734           00007                                    6D,1
001412: 16,2735           10007                           STORE    6D,2
001413: 16,2736           77773                           VLOAD*
001414: 16,2737           00015                                    12D,1
001415: 16,2740           10015                           STORE    12D,2
001416: 16,2741           77616                           RVQ
001417: 16,2742           00056        DEGREE1            DEC      46         B-14
001418: 16,2743           37722        DEG359             DEC      16338      B-14
001419: 16,2744           00004        RDCDUS             INHINT                                         #  READ CDUS
001420: 16,2745           00006                           EXTEND
001421: 16,2746           30033                           DCA      CDUX
001422: 16,2747           50120                           INDEX    FIXLOC
001423: 16,2750           52002                           DXCH     1
001424: 16,2751           30034                           CA       CDUZ
001425: 16,2752           50120                           INDEX    FIXLOC
001426: 16,2753           54003                           TS       3
001427: 16,2754           00003                           RELINT
001428: 16,2755           06030                           TC       DANZIG
001429:
001430:                                                                                                  #  NAME - CALCSMSC
001431:
001432:                                                                                                  #  FUNCTION - DETERMINE AND COMPUTE THE DESIRED GIMBAL ANGLES TO BE USED FOR COARSE ALIGNMENT.


001434:
001435:                                                                                                  #  CALLING SEQUENCE - CALL CALCSMSC
001436:
001437:                                                                                                  #  INPUT - DESIRED IMU INERTIAL ORIENTATION VECTORS - XSMD, YSMD, ZSMD
001438:
001439:                                                                                                  #  OUTPUT - GIMBAL ANGLES LEFT IN THETAD, +1, +2
001440:
001441:                                                                                                  #  SUBROUTINES USED - 1.CDUTRIG 2.CALCSMSC 3.CALCGA
001442:
001443: 16,2000                                           SETLOC   P50S2
001444: 16,2000                                           BANK
001445: 16,2756                                           COUNT*   $$/R51
001446: 16,2756           41345        CALCSMSC           DLOAD    DMP
001447: 16,2757           01142                                    SINCDUY
001448: 16,2760           01152                                    COSCDUZ
001449: 16,2761           77676                           DCOMP
001450: 16,2762           70525                           PDDL     SR1
001451: 16,2763           01144                                    SINCDUZ
001452: 16,2764           41325                           PDDL     DMP
001453: 16,2765           01150                                    COSCDUY
001454: 16,2766           01152                                    COSCDUZ
001455: 16,2767           76466                           VDEF     VSL1
001456: 16,2770           16714                           STODL    XNB
001457: 16,2771           01146                                    SINCDUX
001458: 16,2772           72405                           DMP      SL1
001459: 16,2773           01144                                    SINCDUZ
001460: 16,2774           00033                           STORE    26D
001461: 16,2775           65205                           DMP      PDDL
001462: 16,2776           01142                                    SINCDUY
001463: 16,2777           01154                                    COSCDUX
001464: 16,3000           45205                           DMP      DSU
001465: 16,3001           01150                                    COSCDUY
001466: 16,3002           41325                           PDDL     DMP
001467: 16,3003           01146                                    SINCDUX
001468: 16,3004           01152                                    COSCDUZ
001469: 16,3005           65276                           DCOMP    PDDL
001470: 16,3006           01154                                    COSCDUX
001471: 16,3007           65205                           DMP      PDDL
001472: 16,3010           01142                                    SINCDUY
001473: 16,3011           01150                                    COSCDUY
001474: 16,3012           43205                           DMP      DAD
001475: 16,3013           00033                                    26D
001476: 16,3014           76466                           VDEF     VSL1
001477: 16,3015           02730                           STORE    ZNB
001478: 16,3016           76435                           VXV      VSL1
001479: 16,3017           02714                                    XNB
001480: 16,3020           02722                           STORE    YNB
001481: 16,3021           77616                           RVQ
001482:


001484:                                                                                                  #  PROGRAM NAME - P51 - IMU ORIENTATION DETERMINATION            DATE - AUGUST 1,1969
001485:                                                                                                  #  MODIFICATION BY ALBERT,BARNERT,HASLAM                         LOG SECTION - P51-P5
001486:
001487:                                                                                                  #  FUNCTION -
001488:
001489:                                                                                                  #  DETERMINES THE INERTIAL ORIENTATION OF THE IMU. THE PROGRAM IS SELECTED BY DSKY ENTRY. THE SIGHTING
001490:                                                                                                  #  ROUTINE IS CALLED TO COLLECT THE CDU COUNTERS AND SHAFT AND TRUNNION ANGLES FOR A SIGHTED STAR. THE DATA IS
001491:                                                                                                  #  THEN PROCESSED AS FOLLOWS.
001492:
001493:                                                                                                  #        1. SEXTANT ANGLES ARE COMPUTED IN TERMS OF NAVIGATIONAL BASE COORDINATES. LET SA AND TA BE THE SHAFT AND
001494:                                                                                                  #        TRUNNION ANGLES, RESPECTIVELY. THEN,
001495:                                                                                                  #                _
001496:                                                                                                  #                V  = (SIN(TA)*COS(SA), SIN(TA)*SIN(SA), COS(TA))        (A COLUMN VECTOR)
001497:                                                                                                  #                 NB
001498:                                                                                                  #        THE OUTPUT IS A HALF-UNIT VECTOR STORED IN STARM.
001499:
001500:                                                                                                  #        2. THIS VECTOR IN NAV. BASE COORDS. IS THEN TRANSFORMED TO ONE IN STABLE MEMBER COORDINATES.
001501:
001502:                                                                                                  #                _    T  T  T _
001503:                                                                                                  #                V = Q *Q *Q *V  , WHERE
001504:                                                                                                  #                     1  2  3  NB
001505:
001506:                                                                                                  #                     ( COS(IG)   0    -SIN(IG) )
001507:                                                                                                  #                     (                         )                                THE GIMBAL ANGLES ARE COMPUTED FROM
001508:                                                                                                  #                Q  = (   0       1       0     ), IG= INNER GIMBAL ANGLE        THE CDU COUNTERS AT NBSM (USING AXIS-
001509:                                                                                                  #                 1   (                         )                                ROT AND CDULOGIC)
001510:                                                                                                  #                     ( SIN(IG)   0     COS(IG) )
001511:
001512:
001513:                                                                                                  #                     ( COS(MG) SIN(MG)   0     )
001514:                                                                                                  #                     (                         )
001515:                                                                                                  #                Q  = (-SIN(MG) COS(MG)   0     ), MG= MIDDLE GIMBAL ANGLE
001516:                                                                                                  #                 2   (                         )
001517:                                                                                                  #                     (   0       0       1     )
001518:
001519:
001520:                                                                                                  #                     (   1       0       0     )
001521:                                                                                                  #                     (                         )
001522:                                                                                                  #                Q  = (   0     COS(OG) SIN(OG) ), OG= OUTER GIMBAL ANGLE
001523:                                                                                                  #                 3   (                         )
001524:                                                                                                  #                     (   0    -SIN(OG) COS(OG) )
001525:
001526:                                                                                                  #        3. THE STAR NUMBER IS SAVED AND THE SECOND STAR IS THEN SIMILARLY PROCESSED.
001527:
001528:                                                                                                  #        4. THE ANGLE BETWEEN THE TWO STARS IS THEN CHECKED AT CKSDATA.
001529:
001530:                                                                                                  #        5. REFSMMAT IS THEN COMPUTED AT AXISGEN AS FOLLOWS.
001531:                                                                                                  #                    _      _
001532:                                                                                                  #           LET S  AND S  BE TWO STAR VECTORS EXPRESSED IN TWO COORDINATE SYSTEMS, A AND B (BASIC AND STABLE MEMBER).


001534:                                                                                                  #                     1      2
001535:
001536:                                                                                                  #           DEFINE,
001537:                                                                                                  #                _    _
001538:                                                                                                  #                U  = S
001539:                                                                                                  #                 A    A1
001540:                                                                                                  #                _         _    _
001541:                                                                                                  #                V  = UNIT(S  x S  )
001542:                                                                                                  #                 A         A1   A2
001543:                                                                                                  #                _    _   _
001544:                                                                                                  #                W  = U x V
001545:                                                                                                  #                 A    A   A
001546:
001547:                                                                                                  #           AND,
001548:                                                                                                  #                _    _
001549:                                                                                                  #                U  = S
001550:                                                                                                  #                 B    B1
001551:                                                                                                  #                _         _    _
001552:                                                                                                  #                V  = UNIT(S  x S  )
001553:                                                                                                  #                 B         B1   B2
001554:                                                                                                  #                _    _   _
001555:                                                                                                  #                W  = U x V
001556:                                                                                                  #                 B    B   B
001557:
001558:                                                                                                  #           THEN
001559:                                                                                                  #                _        _       _       _
001560:                                                                                                  #                X  = U  *U + V  *V + W  *W
001561:                                                                                                  #                      B1  A   B1  A   B1  A
001562:                                                                                                  #                _        _       _       _
001563:                                                                                                  #                Y  = U  *U + V  *V + W  *W              (REFSMMAT)
001564:                                                                                                  #                      B2  A   B2  A   B2  A
001565:                                                                                                  #                _        _       _       _
001566:                                                                                                  #                Z  = U  *U + V  *V + W  *W
001567:                                                                                                  #                      B3  A   B3  A   B3  A
001568:
001569:                                                                                                  #           THE INPUTS CONSIST OF THE FOUR HALF-UNIT VECTORS STORED AS FOLLOWS
001570:                                                                                                  #                _
001571:                                                                                                  #                S   IN 6-11 OF THE VAC AREA
001572:                                                                                                  #                 A1
001573:                                                                                                  #                _
001574:                                                                                                  #                S   IN 12-17 OF THE VAC AREA
001575:                                                                                                  #                 A2
001576:                                                                                                  #                _
001577:                                                                                                  #                S   IN STARAD


001579:                                                                                                  #                 B1
001580:                                                                                                  #                _
001581:                                                                                                  #                S   IN STARAD +6
001582:                                                                                                  #                 B2
001583:
001584:                                                                                                  #  CALLING SEQUENCE
001585:
001586:                                                                                                  #        THE PROGRAM IS CALLED BY THE ASTRONAUT BY DSKY ENTRY.
001587:
001588:                                                                                                  #  SUBROUTINES CALLED.
001589:
001590:                                                                                                  #        GOPERF3
001591:                                                                                                  #        GOPERF1R
001592:                                                                                                  #        GODSPR
001593:                                                                                                  #        IMUCOARS
001594:                                                                                                  #        IMUFIN20
001595:                                                                                                  #        R53
001596:                                                                                                  #        SXTNB
001597:                                                                                                  #        NBSM
001598:                                                                                                  #        MKRELEAS
001599:                                                                                                  #        CHKSDATA
001600:                                                                                                  #        MATMOVE
001601:
001602:                                                                                                  #  ALARMS
001603:
001604:                                                                                                  #        NONE
001605:
001606:                                                                                                  #  ERASABLE INITIALIZATION
001607:
001608:                                                                                                  #        IMU ZERO FLAG SHOULD BE SET.
001609:
001610:                                                                                                  #  OUTPUT
001611:
001612:                                                                                                  #        REFSMMAT
001613:                                                                                                  #        REFSMFLG
001614:
001615:                                                                                                  #  DEBRIS
001616:
001617:                                                                                                  #        WORK AREA
001618:                                                                                                  #        STARAD
001619:                                                                                                  #        STARIND
001620:                                                                                                  #        BESTI
001621:                                                                                                  #        BESTJ
001622:
001623: 14,2000                                           SETLOC   P50S1
001624: 14,2000                                           BANK
001625: 14,3414                                           COUNT*   $$/P5153
001626: 14,3414  14,3414               P53                EQUALS   P51
001627: 14,3414           41333        P51                CS       IMODES30
001628: 14,3415           74760                           MASK     IMUOPBIT


001630: 14,3416           10000                           CCS      A
001631: 14,3417           03423                           TC       P51A
001632: 14,3420           05671                           TC       ALARM
001633: 14,3421           00210                           OCT      210
001634: 14,3422           04103                           TC       GOTOPOOH
001635: 14,3423           04636        P51A               TC       BANKCALL
001636: 14,3424           03745                           CADR     R02ZERO
001637:
001638: 14,3425           34776        P51AA              CAF      PRFMSTAQ
001639: 14,3426           04636                           TC       BANKCALL
001640: 14,3427           21067                           CADR     GOPERF1
001641: 14,3430           04103                           TC       GOTOPOOH                              #  TERM.
001642: 14,3431           03454                           TC       P51B                                  #  V 33
001643: 14,3432           05402                           TC       PHASCHNG
001644: 14,3433           05024                           OCT      05024
001645: 14,3434           13000                           OCT      13000
001646: 14,3435           34772                           CAF      P51ZERO
001647: 14,3436           55307                           TS       THETAD                                #  ZERO THE GIMBALS
001648: 14,3437           55310                           TS       THETAD     +1
001649: 14,3440           55311                           TS       THETAD     +2
001650: 14,3441           35025                           CAF      V06N22
001651: 14,3442           04636                           TC       BANKCALL
001652: 14,3443           20705                           CADR     GODSPRET
001653: 14,3444           33565                           CAF      V41K                                  #  NOW DISPLAY COARSE ALIGN VERB 41
001654: 14,3445           04636                           TC       BANKCALL
001655: 14,3446           20705                           CADR     GODSPRET
001656: 14,3447           03742                           TC       COARSUB                               #  PERFORM ALIGNMENT
001657: 14,3450           05402                           TC       PHASCHNG
001658: 14,3451           05024                           OCT      05024
001659: 14,3452           13000                           OCT      13000
001660: 14,3453           13425                           TCF      P51AA                                 #  COARSE ALIGN DONE - RECYCLE FOR FINE
001661:


001663:
001664:                                                                                                  #     DO STAR SIGHTING AND COMPUTE NEW REFSMMAT
001665:
001666: 14,3454           06006        P51B               TC       INTPRET
001667: 14,3455           40331                           SSP      SETPD
001668: 14,3456           00305                                    STARIND                               #  INDEX - STAR 1 OR 2
001669: 14,3457           00000                                    0
001670: 14,3460           00001                                    0
001671: 14,3461           77234                           RTB      VLOAD
001672: 14,3462           31566                                    SET1/PDT
001673: 14,3463           11762                                    ZEROVEC
001674: 14,3464           01472                           STORE    GCOMP
001675: 14,3465           43014                           SET      CLEAR
001676: 14,3466           01060                                    DRIFTFLG                              #  ENABLE T4 COMPENSATION
001677: 14,3467           00666                                    TARG2FLG                              #  SHOW MARK IS STAR - NOT LANDMARK
001678: 14,3470           77776                           EXIT
001679: 14,3471           05402        P51C               TC       PHASCHNG
001680: 14,3472           05024                           OCT      05024
001681: 14,3473           13000                           OCT      13000
001682: 14,3474           05354                           TC       CHECKMM
001683: 14,3475           00065                           MM       53         B-14                       #  BACKUP PROGRAM
001684: 14,3476           13504                           TCF      P51C.1                                #  NOT P53
001685: 14,3477           06006                           TC       INTPRET
001686: 14,3500           77624                           CALL
001687: 14,3501           36105                                    R56
001688: 14,3502           77650                           GOTO
001689: 14,3503           31507                                    P51C.2
001690: 14,3504           06006        P51C.1             TC       INTPRET
001691: 14,3505           77624                           CALL
001692: 14,3506           31571                                    R53                                   #  SIGHTING ROUTINE
001693: 14,3507           77624        P51C.2             CALL                                           #  COMPUTE LOS IN SM FROM MARK DATA
001694: 14,3510           36052                                    SXTSM
001695: 14,3511           77606                           PUSH
001696: 14,3512           53135                           SLOAD    BZE
001697: 14,3513           00305                                    STARIND
001698: 14,3514           31520                                    P51D
001699: 14,3515           45575                           VLOAD    STADR
001700: 14,3516           41160                           STCALL   STARSAV2                              #  DOWNLINK
001701: 14,3517           31526                                    P51E
001702: 14,3520           45575        P51D               VLOAD    STADR
001703: 14,3521           61166                           STODL    STARSAV1
001704: 14,3522           02607                                    TSIGHT
001705: 14,3523           77624                           CALL
001706: 14,3524           31651                                    PLANET
001707: 14,3525           02601                           STORE    PLANVEC
001708: 14,3526           77776        P51E               EXIT
001709: 14,3527           05402                           TC       PHASCHNG
001710: 14,3530           05024                           OCT      05024
001711: 14,3531           13000                           OCT      13000
001712: 14,3532           10304                           CCS      STARIND
001713: 14,3533           13542                           TCF      P51F                                  #  STAR 2


001715: 14,3534           05402                           TC       PHASCHNG
001716: 14,3535           05024                           OCT      05024
001717: 14,3536           13000                           OCT      13000
001718: 14,3537           34770                           CAF      BIT1
001719: 14,3540           54304                           TS       STARIND
001720: 14,3541           13471                           TCF      P51C                                  #  GO DO SECOND STAR
001721: 14,3542           05402        P51F               TC       PHASCHNG
001722: 14,3543           05024                           OCT      05024
001723: 14,3544           13000                           OCT      13000
001724: 14,3545           06006                           TC       INTPRET
001725: 14,3546           45145                           DLOAD    CALL
001726: 14,3547           02607                                    TSIGHT
001727: 14,3550           31651                                    PLANET
001728: 14,3551           24015                           STOVL    12D
001729: 14,3552           02601                                    PLANVEC
001730: 14,3553           24007                           STOVL    6D
001731: 14,3554           02611                                    STARSAV1
001732: 14,3555           26736                           STOVL    STARAD
001733: 14,3556           02617                                    STARSAV2
001734: 14,3557           36744                           STCALL   STARAD     +6
001735: 14,3560           34657                                    CHKSDATA                              #  CHECK STAR ANGLES IN STARAD AND
001736: 14,3561           77414                           BON      EXIT
001737: 14,3562           00314                                    FREEFLAG
001738: 14,3563           11716                                    P51G
001739: 14,3564           03425                           TC       P51AA
001740: 04,2000                                           SETLOC   P50S4
001741: 04,2000                                           BANK
001742:
001743: 04,3716                                           COUNT*   $$/P5153
001744: 04,3716           77624        P51G               CALL
001745: 04,3717           47432                                    AXISGEN                               #  COME BACK WITH REFSMMAT IN XDC
001746: 04,3720           75160                           AXC,1    AXC,2
001747: 04,3721           02713                                    XDC
001748: 04,3722           01733                                    REFSMMAT
001749: 04,3723           45014                           CLEAR    CALL
001750: 04,3724           01662                                    REFSMFLG
001751: 04,3725           34730                                    MATMOVE
001752: 04,3726           77414                           SET      EXIT
001753: 04,3727           01462                                    REFSMFLG
001754: 04,3730           04103                           TC       GOTOPOOH
001755: 14,2000                                           SETLOC   P50S1
001756: 14,2000                                           BANK
001757:
001758: 14,3565                                           COUNT*   $$/P5153
001759: 14,3565     4776               PRFMSTAQ           =        OCT15
001760: 14,3565     4772               P51ZERO            =        ZERO
001761: 14,3565     4773               P51FIVE            =        FIVE
001762: 14,3565           12200        V41K               VN       4100
001763: 14,3566           30025        SET1/PDT           CA       TIME1
001764: 14,3567           55277                           TS       1/PIPADT


001766: 14,3570           16030                           TCF      DANZIG
001767:


001769:                                                                                                  #  SXTSM COMPUTES AN LOS VECTOR IN SM COORD FROM OCDU AND ICDU MARK DATA
001770:
001771: 17,2000                                           SETLOC   P50S3
001772: 17,2000                                           BANK
001773: 17,2052                                           COUNT*   $$/R51
001774: 17,2052           77745        SXTSM              DLOAD
001775: 17,2053           03723                                    MRKBUF1
001776: 17,2054           02607                           STORE    TSIGHT
001777: 17,2055           77760                           AXC,1
001778: 17,2056           03722                                    MRKBUF1                               #  ADDRESS OF MARK DATA FOR P50'S
001779: 17,2057           77620        SXTSM1             STQ                                            #  CALLED HERE FROM GETUM (P20 AND P22)
001780: 17,2060           00300                                    QMAJ
001781: 17,2061           66744                           LXC,2    SLOAD*
001782: 17,2062           00304                                    STARIND
001783: 17,2063           41673                                    MKDNCDR,2
001784: 17,2064           76744                           LXC,2    VLOAD*
001785: 17,2065           00154                                    MPAC
001786: 17,2066           00001                                    0,1
001787: 17,2067           10001                           STORE    0,2
001788: 17,2070           77743                           DLOAD*
001789: 17,2071           00006                                    5,1
001790: 17,2072           10006                           STORE    5,2
001791: 17,2073           77773        SXTSM2             VLOAD*
001792: 17,2074           00003                                    2,1
001793: 17,2075           35172                           STCALL   CDUSPOT
001794: 17,2076           46000                                    SXTNB
001795: 17,2077           77624                           CALL
001796: 17,2100           47642                                    TRG*NBSM                              #  TRANSFER LOS TO SM
001797: 17,2101           34041                           STCALL   32D
001798: 17,2102           00300                                    QMAJ
001799: 17,2103           03674        MKDNCDR            ECADR    MARKDOWN
001800: 17,2104           03460                           ECADR    MARK2DWN
001801:


001803:                                                                                                  #  NAME - R53 - SIGHTING MARK ROUTINE


001805:
001806:                                                                                                  #  FUNCTION -
001807:                                                                                                  #   TO PERFORM A SATISFACTORY NUMBER OF SIGHTING MARKS FOR THE REQUESTING PROGRAM (OR ROUTINE). SIGHTINGS
001808:                                                                                                  #   CAN BE MADE ON A STAR OR LANDMARK. WHEN THE CMC ACCEPTS A MARK IT RECORDS AND STORES 5 ANGLES (3 ICDUS AND 2
001809:                                                                                                  #   OCDUS) AND THE TIME OF THE MARK.
001810:
001811:                                                                                                  #  CALLING SEQUENCE
001812:                                                                                                  #   R53 IS CALLED AND RETURNS IN INTERPRETIVE CODE. RETURN IS VIA QPRET.
001813:                                                                                                  #   THERE IS NO ERROR EXIT IN THIS ROUTINE ITSELF.
001814:
001815:                                                                                                  #  SUBROUTINES CALLED
001816:                                                                                                  #   SXTMARK
001817:                                                                                                  #   OPTSTALL
001818:                                                                                                  #   GOFLASH
001819:
001820:                                                                                                  #  ERASABLE INITIALIZATION
001821:                                                                                                  #   TARGET FLAG - STAR OR LANDMARK
001822:                                                                                                  #   MARKINDX - NUMBER OF MARKS WANTED
001823:                                                                                                  #   STARIND - INDEX TO BESTI OR BESTJ (STAR NUMBER)
001824:
001825:                                                                                                  #  OUTPUT
001826:                                                                                                  #   MARKSTAT CONTAINS INDEX TO VACANT AREA WEHRE MARK DATA IS STORED
001827:                                                                                                  #   BESTI (INDEXED BY STARIND) CONTAINS STAR NUMBER SIGHTED.
001828:
001829:                                                                                                  #  DEBRIS
001830:                                                                                                  #   MARKINDX CONTAINS NUMBER OF MARKS DESIRED
001831:
001832: 14,2000                                           SETLOC   RT53
001833: 14,2000                                           BANK
001834:
001835: 14,3571                                           COUNT*   $$/R53
001836: 14,3571           43020        R53                STQ      SET                                   #  SET SIGHTING MARK FLAG
001837: 14,3572           03457                                    R53EXIT
001838: 14,3573           00071                                    R53FLAG
001839: 14,3574           77776                           EXIT
001840: 14,3575           04636        R53A               TC       BANKCALL
001841: 14,3576           16000                           CADR     SXTMARK
001842: 14,3577           05354                           TC       CHECKMM
001843: 14,3600           00030                           MM       24         B-14
001844: 14,3601           13603                           TCF      +2
001845: 14,3602           13612                           TCF      R53A1
001846: 14,3603           05354                           TC       CHECKMM
001847: 14,3604           00026                           MM       22         B-14                       #  P22?
001848: 14,3605           34766                           CAF      FOUR                                  #  NO, IS MARKINDX = 1
001849: 14,3606           63650                           AD       MIN5                                  #  YES, IS MARKINDX = 5 (CHECKMM LEAVES 0)
001850: 14,3607           60301                           AD       MARKINDX
001851: 14,3610           00006                           EXTEND
001852: 14,3611           13575                           BZF      R53A                                  #  NO MARKS TAKEN.  DO AGAIN.
001853: 14,3612           04636        R53A1              TC       BANKCALL
001854: 14,3613           16073                           CADR     MKRELEAS
001855: 14,3614           34772        R53C1              CAF      ZERO
001856: 14,3615           04636                           TC       BANKCALL
001857: 14,3616           20715                           CADR     CLEANDSP


001859: 14,3617           44763        R53B               CS       BIT6                                  #  CUT BETWEEN P20S AND P50S
001860: 14,3620           61214                           AD       MODREG                                #  P22,P23 CALL
001861: 14,3621           00006                           EXTEND
001862: 14,3622           63631                           BZMF     R53D                                  #  YES
001863: 14,3623           33635        R53C               CAF      V01N71
001864: 14,3624           05535                           TC       VNFLASH
001865: 14,3625           03636        R53Z               TC       CHKSCODE
001866:                                                                                                  #  ROUTINE TO ALLOW ONLY +0 <= STARCODE <= +50, OTHERWISE 'OPERATOR ERROR'
001867: 14,3626           04362                           TC       FALTON
001868: 14,3627           03623                           TC       R53C
001869: 14,3630           03732                           TC       STORIJ                                #  SET BESTI(BESTJ) = 1ST(2ND) STARCODE
001870: 14,3631           06006        R53D               TC       INTPRET
001871: 14,3632           77614        R53OUT             SETGO
001872: 14,3633           03420                                    TERMIFLG                              #  SET TERMINATE FOR R52
001873: 14,3634           03457                                    R53EXIT
001874: 14,3635     6211               SIGHTSIX           =        SIX
001875: 14,3635           00307        V01N71             VN       0171
001876:
001877:                                                                                                  #  ****** KEEP IN SAME BANK AS R51 AND R53 ********
001878: 14,3636           11140        CHKSCODE           CCS      STARCODE
001879: 14,3637           13643                           TCF      SCPOS                                 #  > 0, CHECK IF <= 50
001880: 14,3640           16710                           TCF      Q+2                                   #  = +0, OK
001881: 14,3641           00002                           TC       Q                                     #  NEGATIVE STARCODE OF ANY
001882: 14,3642           00002                           TC       Q                                     #  MAGNITUDE IS IMPROPER
001883: 14,3643           63647        SCPOS              AD       NEG47
001884: 14,3644           00006                           EXTEND
001885: 14,3645           66710                           BZMF     Q+2                                   #  <= 50, OK
001886: 14,3646           00002                           TC       Q                                     #  > 50, IMPROPER
001887: 14,3647           77730        NEG47              OCT      77730
001888: 14,3650           77772        MIN5               DEC      -5         B-14
001889:


001891:                                                                                                  #  NAME - S52.2
001892:                                                                                                  #  FUNCTION - COMPUTE GIMBAL ANGLES FOR DESIRED SM AND PRESENT VEHICLE
001893:                                                                                                  #  CALL - CALL S52.2
001894:                                                                                                  #  INPUT - X,Y,ZSMD
001895:                                                                                                  #  OUTPUT - OGC,IGC,MGC,THETAD,+1,+2
001896:                                                                                                  #  SUBROUTINES - CDUTRIG, CALCSMSC, MATMOVE, CALCGA
001897:
001898: 11,2000                                           SETLOC   S52/2
001899: 11,2000                                           BANK
001900:
001901: 11,2247                                           COUNT*   $$/S52.2
001902: 11,2247           45020        S52.2              STQ      CALL
001903: 11,2250           00300                                    QMAJ
001904: 11,2251           47530                                    CDUTRIG
001905: 11,2252           77624                           CALL
001906: 11,2253           34756                                    CALCSMSC
001907: 11,2254           66370                           AXT,1    SSP
001908: 11,2255           00022                                    18D
001909: 11,2256           00051                                    S1
001910: 11,2257           00006                                    6D
001911: 11,2260           61373        S52.2A             VLOAD*   VXM
001912: 11,2261           02736                                    XNB        +18D,1
001913: 11,2262           01734                                    REFSMMAT
001914: 11,2263           77656                           UNIT
001915: 11,2264           06736                           STORE    XNB        +18D,1
001916: 11,2265           77700                           TIX,1
001917: 11,2266           22260                                    S52.2A
001918: 11,2267           75160        S52.2.1            AXC,1    AXC,2
001919: 11,2270           00306                                    XSMD
001920: 11,2271           02671                                    XSM
001921: 11,2272           77624                           CALL
001922: 11,2273           34730                                    MATMOVE
001923: 11,2274           77624                           CALL
001924: 11,2275           47344                                    CALCGA
001925: 11,2276           77650                           GOTO
001926: 11,2277           00300                                    QMAJ
001927:


001929:
001930:                                                                                                  #  THE ADVTRACK ROUTINE IS USED TO COMPUTE AN OPTICS LOS VECTOR TO
001931:                                                                                                  #  A POINT ON THE GROUND TRACK 60 DEGREES FORWARD OF THE LOCAL VERTICAL
001932:                                                                                                  #  OF AN ADVANCED ORBIT A SPECIFIED NUMBER OF REVOLUTIONS FROM NOW.
001933:
001934: 26,2000                                           SETLOC   26P50S
001935: 26,2000                                           BANK
001936: 26,2040                                           COUNT*   $$/R52
001937: 26,2040           77601        ADVTRACK           SETPD
001938: 26,2041           00001                                    0
001939: 26,2042           41575                           VLOAD    PUSH                                  #  INITIALIZE FOR RP-TO-R
001940: 26,2043           15330                                    UNITZ                                 #  UZ VEC IN PD 0-5
001941: 26,2044           41434                           RTB      PUSH                                  #  TIME IN PD 6-7
001942: 26,2045           51751                                    LOADTIME
001943: 26,2046           36347                           STCALL   AOPTIME                               #  TIME ALSO IN AOPTIME FOR CSMCONIC
001944: 26,2047           55345                                    RP-TO-R                               #  GET MOON ROTATION VEC IN REF
001945: 26,2050           16766                           STODL    STAR
001946: 26,2051           02347                                    AOPTIME                               #  PICK UP TIME
001947: 26,2052           34041                           STCALL   TDEC1                                 #  UPDATE STATE TO TIME
001948: 26,2053           27170                                    CSMCONIC
001949: 26,2054           47375                           VLOAD    VXV
001950: 26,2055           00007                                    VATT
001951: 26,2056           00001                                    RATT
001952: 26,2057           24031                           STOVL    24D                                   #  SAVE -UNIT(V x R) FOR 2ND ROTATION
001953: 26,2060           00001                                    RATT
001954: 26,2061           57456                           UNIT     VCOMP
001955: 26,2062           41401                           SETPD    PUSH                                  #  PUSH LOS=-UNIT(RVEC)  PD 0-5
001956: 26,2063           00001                                    0
001957: 26,2064           54335                           SLOAD    SL
001958: 26,2065           03752                                    LANDMARK
001959: 26,2066           20214                                    11D
001960: 26,2067           41342                           SR1      DMP
001961: 26,2070           14135                                    MPERIOD
001962: 26,2071           36347                           STCALL   AOPTIME                               #  ROTATE ANG ABOUT UR
001963: 26,2072           54105                                    ROTA
001964: 26,2073           53575                           VLOAD    UNIT
001965: 26,2074           00031                                    24D                                   #  PICK UP 2ND ROTATION AXIS
001966: 26,2075           16766                           STODL    STAR
001967: 26,2076           14133                                    DP1/6
001968: 26,2077           77625                           DSU
001969: 26,2100           02347                                    AOPTIME                               #  2ND RAT ANGLE = 60 - A
001970: 26,2101           36347                           STCALL   AOPTIME
001971: 26,2102           54105                                    ROTA                                  #  GO ROTATE 2ND TIME
001972: 26,2103           36766                           STCALL   STAR                                  #  STORE FINAL LOS IN STAR
001973: 26,2104           31120                                    COM52                                 #  RETURN TO SR52.1
001974:
001975: 26,2105           73545        ROTA               DLOAD    SIN
001976: 26,2106           02347                                    AOPTIME
001977: 26,2107           47315                           PDVL     VXV                                   #  PUSH 1/2SIN(A)  PD 6-7
001978: 26,2110           02766                                    STAR                                  #    UR VEC
001979: 26,2111           00001                                    0                                     #    LOS


001981: 26,2112           72561                           VXSC     VSL2                                  #  1/2SIN(A)(UR X LOS)  PD 6-11
001982: 26,2113           50315                           PDVL     DOT
001983: 26,2114           02766                                    STAR
001984: 26,2115           00001                                    0
001985: 26,2116           72561                           VXSC     VSL2
001986: 26,2117           02766                                    STAR
001987: 26,2120           71525                           PDDL     COS                                   #  1/2(UR . LOS)UR  12-17
001988: 26,2121           02347                                    AOPTIME
001989: 26,2122           51315                           PDVL     BVSU                                  #  PUSH 1/2COS(A)  18-19
001990: 26,2123           00015                                    12D
001991: 26,2124           00001                                    0
001992: 26,2125           76561                           VXSC     VSL1                                  #  UP 18-19
001993: 26,2126           53255                           VAD      VAD                                   #  UP 12-17  UP 6-11
001994: 26,2127           40256                           UNIT     SETPD
001995: 26,2130           00001                                    0
001996: 26,2131           43406                           PUSH     RVQ
001997:
001998: 26,2132           05252 25251  DP1/6              2DEC     .16666666
001999:
002000: 26,2134           01414 06044  MPERIOD            2DEC     .047619                               #  APPROX LUNAR ROT ANG IN 2HRS x 16
002001:


002003:
002004:                                                                                                  #  NAME - R56 - ALTERNATE LOS SIGHTING MARK ROUTINE
002005:
002006:                                                                                                  #  FUNCTIONAL DESCRIPTION
002007:                                                                                                  #  TO PERFORM SIGHTING MARKS FOR THE BACK-UP ALIGNMENT PROGRAMS (P53,P54).  THE ASTRONAUT KNOWS THE
002008:                                                                                                  #  COORDINATES (OPTICS) OF THE ALTERNATE LINE OF SIGHT HE MUST USE FOR THIS ROUTINE.  WHEN THE ASTRONAUT KEYS IN
002009:                                                                                                  #  ENTER IN RESPONSE TO THE FLASHING V50 N25 R1-XXXXX THE CMC STORES THE THREE ICDU ANGLES AND TWO ANGLES DISPLAYED
002010:                                                                                                  #  IN N92.
002011:
002012:                                                                                                  #  CALLING SEQUENCE
002013:                                                                                                  #        CALL
002014:                                                                                                  #                R56
002015:
002016:                                                                                                  #  SUBROUTINES CALLED
002017:                                                                                                  #        A PORTION OF SXTMARK (VAC.AREA SEARCH)
002018:                                                                                                  #        GOFLASH
002019:                                                                                                  #        GOPERF1
002020:
002021:                                                                                                  #  ERASABLE INITIALIZATION
002022:                                                                                                  #        STARIND - INDEX TO STAR NUMBER
002023:
002024:                                                                                                  #  OUTPUT
002025:                                                                                                  #        MARKSTAT - INDEX TO VAC.AREA WHERE OUTPUT IS STORED.
002026:                                                                                                  #        BESTI (INDEXED BY STARIND) CONTAINS STAR NUMBER.
002027:                                                                                                  #        ICDU AND OCDU ANGLES IN VAC. AREA AS FOLLOWS-
002028:                                                                                                  #                VAC +2  CDUY
002029:                                                                                                  #                VAC +3  CDUS
002030:                                                                                                  #                VAC +4  CDUZ
002031:                                                                                                  #                VAC +5  CDUT
002032:                                                                                                  #                VAC +6  CDUX
002033:
002034: 17,2000                                           SETLOC   P50S3
002035: 17,2000                                           BANK
002036: 17,2105                                           COUNT*   $$/R56
002037: 17,2105           77420        R56                STQ      EXIT
002038: 17,2106           03457                                    R53EXIT
002039: 17,2107           32162                           CAF      V06N94B
002040: 17,2110           05535                           TC       VNFLASH
002041: 17,2111           04636        R56A               TC       BANKCALL
002042: 17,2112           16062                           CADR     TESTMARK
002043:
002044: 17,2113           34772                           CAF      ZERO
002045: 17,2114           04636                           TC       BANKCALL
002046: 17,2115           20715                           CADR     CLEANDSP
002047:
002048: 17,2116           32161        R56A1              CAF      VB53                                  #  DISPLAY V53 REQUESTING ALTERNATE MARK
002049: 17,2117           04636                           TC       BANKCALL
002050: 17,2120           20601                           CADR     GOMARK2
002051: 17,2121           14103                           TCF      GOTOPOOH                              #  V34-TERMINATE
002052: 17,2122           12116                           TCF      R56A1                                 #  V33-DONT PROCEED-JUST ENTER TO MARK
002053: 17,2123           06006                           TC       INTPRET
002054: 17,2124           77745                           DLOAD


002056: 17,2125           03726                                    MRKBUF1    +3
002057: 17,2126           16774                           STODL    SAC
002058: 17,2127           03730                                    MRKBUF1    +5
002059: 17,2130           02776                           STORE    PAC
002060: 17,2131           77776                           EXIT
002061: 17,2132           00004                           INHINT
002062: 17,2133           04606                           TC       E7SETTER
002063:
002064: 17,2134  E7,1722                                  EBANK=   MRKBUF1
002065: 17,2134           00006                           EXTEND
002066: 17,2135           30025                           DCA      TIME2
002067: 17,2136           53723                           DXCH     MRKBUF1
002068: 17,2137           30033                           CA       CDUY                                  #  ENTER-THIS IS A BACKUP SYSTEM MARK
002069: 17,2140           55724                           TS       MRKBUF1    +2
002070: 17,2141           30034                           CA       CDUZ
002071: 17,2142           55726                           TS       MRKBUF1    +4
002072: 17,2143           30032                           CA       CDUX
002073: 17,2144           55730                           TS       MRKBUF1    +6
002074: 17,2145           00003                           RELINT
002075: 17,2146           35043                           CAF      EBANK5                                #  MAY NOT NEED TO DO THIS
002076: 17,2147           54003                           TS       EBANK
002077:
002078: 17,2150  E5,1777                                  EBANK=   QMIN
002079:
002080: 17,2150           05527                           TC       CLEARMRK                              #  ENABLE EXTENDED VERBS
002081: 17,2151           34321                           CAF      OCT16
002082: 17,2152           04636                           TC       BANKCALL
002083: 17,2153           21067                           CADR     GOPERF1
002084: 17,2154           04103                           TC       GOTOPOOH                              #  TERM.
002085: 17,2155           12157                           TCF      R56B                                  #  PROCEED-MARK COMPLETED
002086: 17,2156           12111                           TCF      R56A                                  #  RECYCLE - DO ANOTHER MARK - LIKE REJECT
002087: 17,2157           04636        R56B               TC       BANKCALL
002088: 17,2160           31614                           CADR     R53C1
002089: 17,2161           15200        VB53               VN       05300                                 #  ALTERNATE MARK VERB
002090: 17,2162           01536        V06N94B            VN       00694
002091: 14,2000                                           SETLOC   P50S1
002092: 14,2000                                           BANK
002093:
002094: 14,3651                                           COUNT*   $$/PLNET
002095: 14,3651           02607        PLANET             STORE    TSIGHT
002096: 14,3652           45020                           STQ      CALL
002097: 14,3653           02777                                    QMIN
002098: 14,3654           26345                                    LOCSAM
002099: 14,3655           77775                           VLOAD
002100: 14,3656           02736                                    VEARTH
002101: 14,3657           24001                           STOVL    0D
002102: 14,3660           02744                                    VSUN
002103: 14,3661           26736                           STOVL    VEARTH
002104: 14,3662           00001                                    0D
002105: 14,3663           02744                           STORE    VSUN


002107: 14,3664           77776        NOSAM              EXIT
002108: 14,3665           03732                           TC       STORIJ                                #  SET BESTI(BESTJ) = 1ST(2ND) STARCODE
002109: 14,3666           10000                           CCS      A
002110: 14,3667           13700                           TCF      NOTPLAN
002111: 14,3670           35035                           CAF      VNPLANV
002112: 14,3671           05535                           TC       VNFLASH
002113: 14,3672           06006                           TC       INTPRET
002114: 14,3673           74375                           VLOAD    VXSC
002115: 14,3674           03705                                    STARSAV3
002116: 14,3675           31731                                    1/SQR3
002117: 14,3676           52056                           UNIT     GOTO
002118: 14,3677           31723                                    CORPLAN
002119: 14,3700           40000        NOTPLAN            CS       A
002120: 14,3701           63727                           AD       DEC227
002121: 14,3702           00006                           EXTEND
002122: 14,3703           63714                           BZMF     CALSAM1
002123: 14,3704           50304                           INDEX    STARIND
002124: 14,3705           30302                           CA       BESTI
002125: 14,3706           50120                           INDEX    FIXLOC
002126: 14,3707           54046                           TS       X1
002127: 14,3710           06006                           TC       INTPRET
002128: 14,3711           52173                           VLOAD*   GOTO
002129: 14,3712           33776                                    CATLOG,1
002130: 14,3713           31723                                    CORPLAN
002131: 14,3714           06006        CALSAM1            TC       INTPRET
002132: 14,3715           70740                           LXC,1    DLOAD*
002133: 14,3716           00304                                    STARIND
002134: 14,3717           00303                                    BESTI,1
002135: 14,3720           76740                           LXC,1    VLOAD*
002136: 14,3721           00154                                    MPAC
002137: 14,3722           02372                                    STARAD     -228D,1
002138: 14,3723           53455        CORPLAN            VAD      UNIT
002139: 14,3724           03452                                    VEL/C
002140: 14,3725           77650                           GOTO
002141: 14,3726           02777                                    QMIN
002142: 14,3727           00343        DEC227             DEC      227        B-14
002143: 14,3730     5035               VNPLANV            =        V06N88
002144: 14,3730           22363 11623  1/SQR3             2DEC     .57735021
002145:
002146: 14,3732           47677        STORIJ             CS       HIGH9                                 #  CALLED AT R53Z, NOSAM(PLANET)
002147: 14,3733           71140                           MASK     STARCODE
002148: 14,3734           00006                           EXTEND
002149: 14,3735           76211                           MP       SIGHTSIX
002150: 14,3736           56001                           XCH      L
002151: 14,3737           50304                           INDEX    STARIND
002152: 14,3740           54302                           TS       BESTI
002153: 14,3741           00002                           TC       Q                                     #  RETURN TO CALLER
002154: 14,3742                                           COUNT*   $$/R50
002155: 14,3742           30002        COARSUB            CA       Q
002156: 14,3743           55777                           TS       QMIN


002158: 14,3744           31335        STALLOOP           CA       MODECADR                              #  IS IMU IN USE?
002159: 14,3745           00006                           EXTEND
002160: 14,3746           13753                           BZF      CORSCALL                              #  NO, GO AHEAD WITH COARSE ALIGN
002161: 14,3747           35016                           CAF      1SEC                                  #  YES, SO WAIT A SEC
002162: 14,3750           04636                           TC       BANKCALL
002163: 14,3751           01731                           CADR     DELAYJOB
002164: 14,3752           03744                           TC       STALLOOP                              #                        AND TRY AGAIN
002165: 14,3753           04636        CORSCALL           TC       BANKCALL
002166: 14,3754           16724                           CADR     IMUCOARS                              #  PERFORM COARSE ALIGN
002167: 14,3755           04636                           TC       BANKCALL
002168: 14,3756           17644                           CADR     IMUSTALL
002169: 14,3757           03766                           TC       217ALARM                              #  BAD END
002170: 14,3760           04636                           TC       BANKCALL
002171: 14,3761           17133                           CADR     IMUFIN20                              #  PERFORM FINE ALIGN
002172: 14,3762           04636                           TC       BANKCALL
002173: 14,3763           17644                           CADR     IMUSTALL
002174: 14,3764           03766                           TC       217ALARM                              #  BAD END
002175: 14,3765           01777                           TC       QMIN
002176: 14,3766           00004        217ALARM           INHINT                                         #  JUST LIKE 'CURTAINS', NOW DEPARTED
002177: 14,3767           30002                           CA       Q
002178: 14,3770           05673                           TC       ALARM2
002179: 14,3771           00217                           OCT      00217
002180: 14,3772           01363                           TC       ALMCADR                               #  RETURN TO USER

End of include-file P51-P53.agc.  Parent file is MAIN.agc


