
Source Code


000002:                                                                                                  #  Copyright:    Public domain.
000003:                                                                                                  #  Filename:     PHASE_TABLE_MAINTENANCE.agc
000004:                                                                                                  #  Purpose:      Part of the source code for Artemis (i.e., Colossus 3),
000005:                                                                                                  #                build 072.  This is for the Command Module's (CM)
000006:                                                                                                  #                Apollo Guidance Computer (AGC), we believe for
000007:                                                                                                  #                Apollo 15-17.
000008:                                                                                                  #  Assembler:    yaYUL
000009:                                                                                                  #  Contact:      Jim Lawton <jim DOT lawton AT gmail DOT com>
000010:                                                                                                  #  Website:      www.ibiblio.org/apollo/index.html
000011:                                                                                                  #  Page Scans:   www.ibiblio.org/apollo/ScansForConversion/Artemis072/
000012:                                                                                                  #  Mod history:  2009-08-18 JL   Adapted from corresponding Comanche 055 file.
000013:                                                                                                  #                2010-02-20 RSB  Un-##'d this header.
000014:


000016:
000017:                                                                                                  #  SUBROUTINE TO UPDATE THE PROGRAM NUMBER DISPLAY ON THE DSKY.
000018:
000019:    4000                                           SETLOC   FFTAG1
000020:    4000                                           BANK
000021:
000022:    5344                                           COUNT*   $$/PHASE
000023:    5344           50002        NEWMODEX           INDEX    Q                                     #  UPDATE MODREG. ENTRY FOR MODE IN FIXED.
000024:    5345           30000                           CAF      0
000025:    5346           24002                           INCR     Q
000026:
000027:    5347           55214        NEWMODEA           TS       MODREG                                #  ENTRY FOR MODE IN A.
000028:    5350           35353        MMDSPLAY           CAF      +3                                    #  DISPLAY MAJOR MODE.
000029:    5351           22006        PREBJUMP           LXCH     BBANK                                 #  PUTS BBANK IN L
000030:    5352           14660                           TCF      BANKJUMP                              #  PUTS Q INTO A
000031:    5353           20463                           CADR     SETUPDSP
000032:
000033:                                                                                                  #  RETURN TO CALLER +3 IF MODE = THAT AT CALLER +1. OTHERWISE RETURN TO CALLER +2.
000034:
000035:    5354           50002        CHECKMM            INDEX    Q
000036:    5355           40000                           CS       0
000037:    5356           61214                           AD       MODREG
000038:    5357           00006                           EXTEND
000039:    5360           16710                           BZF      Q+2
000040:    5361           16706                           TCF      Q+1                                   #  NO MATCH
000041:
000042: 10,2000                                           SETLOC   PHASETAB
000043: 10,2000                                           BANK
000044:
000045: 10,2463                                           COUNT*   $$/PHASE
000046: 10,2463           00004        SETUPDSP           INHINT
000047: 10,2464           52071                           DXCH     RUPTREG1                              #  SAVE CALLER'S RETURN 2CADR
000048: 10,2465           05120                           TC       NOVAC30                               #  EITHER A TASK OR JOB CAN COME TO NEWMODEX
000049: 10,2466     1214                                  EBANK=   MODREG
000050: 10,2466           03377 60102                     2CADR    DSPMMJOB
000051:
000052: 10,2470           52071                           DXCH     RUPTREG1
000053: 10,2471           00003                           RELINT
000054: 10,2472           52006                           DXCH     Z                                     #  RETURN
000055:
000056: 10,2473  40,3377               DSPMMJOB           EQUALS   DSPMMJB
000057:
000058:    4000                                           SETLOC   FFTAG1
000059:    4000                                           BANK


000061:
000062:                                                                                                  #  PHASCHNG IS THE MAIN WAY OF MAKING PHASE CHANGES FOR RESTARTS.  THERE ARE THREE FORMS OF PHASCHNG, KNOWN AS TYPE
000063:                                                                                                  #  A, TYPE B, AND TYPE C. THEY ARE ALL CALLED AS FOLLOWS, WHERE OCT XXXXX CONTAINS THE PHASE INFORMATION,
000064:
000065:                                                                                                  #                TC      PHASCHNG
000066:                                                                                                  #                OCT     XXXXX
000067:
000068:                                                                                                  #  TYPE A IS CONCERNED WITH FIXED PHASE CHANGES, THAT IS, PHASE INFORMATION THAT IS STORED PERMANENTLY.  THESE
000069:                                                                                                  #  OPTIONS ARE, WHERE G STANDS FOR A GROUP AND .X FOR THE PHASE,
000070:
000071:                                                                                                  #        G.0             INACTIVE, WILL NOT PERMIT A GROUP G RESTART
000072:                                                                                                  #        G.1             WILL CAUSE THE LAST DISPLAY TO BE REACTIVATED, USED MAINLY IN MANNED FLIGHTS
000073:                                                                                                  #        G.EVEN          A DOUBLE TABLE RESTART, CAN CAUSE ANY COMBINATION OF TWO JOBS, TASKS, AND/OR
000074:                                                                                                  #                        LONGCALL TO BE RESTARTED.
000075:                                                                                                  #        G.ODD NOT .1    A SINGLE TABLE RESTART, CAN CAUSE EITHER A JOB, TASK, OR LONGCALL RESTART
000076:
000077:                                                                                                  #  THIS INFORMATION IS PUT INTO THE OCTAL WORD AFTER TC PHASCHNG AS FOLLOWS
000078:
000079:                                                                                                  #        TL0 00P PPP PPP GGG
000080:
000081:                                                                                                  #  WHERE EACH LETTER OR NUMBER STANDS FOR A BIT.  THE G'S STAND FOR THE GROUP, OCTAL 1 - 7, THE P'S FOR THE PHASE,
000082:                                                                                                  #  OCTAL 0 - 127.  0'S MUST BE 0.              IF ONE WISHES TO HAVE THE TBASE OF GROUP G TO BE SET AT THIS TIME,
000083:                                                                                                  #  T IS SET TO 1, OTHERWISE IT IS SET TO 0.  SIMILARLY IF ONE WISHES TO SET LONGBASE, THEN L IS SET TO 1, OTHERWISE
000084:                                                                                                  #  IT IS SET TO 0.  SOME EXAMLES,
000085:
000086:                                                                                                  #                TC      PHASCHNG        # THIS WILL CAUSE GROUP 3 TO BE SET TO 0,
000087:                                                                                                  #                OCT     00003           # MAKING GROUP 3 INACTIVE
000088:
000089:                                                                                                  #                TC      PHASCHNG        # IF A RESTART OCCURS THIS WOULD CAUSE
000090:                                                                                                  #                OCT     00012           # GROUP 2 TO RESTART THE LAST DISPLAY
000091:
000092:                                                                                                  #                TC      PHASCHNG        # THIS SETS THE TBASE OF GROUP 4 AND IN
000093:                                                                                                  #                OCT     40064           # CASE OF A RESTART WOULD START UP THE TWO
000094:                                                                                                  #                                        # THINGS LOCATED IN THE DOUBLE 4.6 RESTART
000095:                                                                                                  #                                        # LOCATION.
000096:                                                                                                  #                TC      PHASCHNG        # THIS SETS LONGBASE AND UPON A RESTART
000097:                                                                                                  #                OCT     20135           # CAUSES 5.13 TO BE RESTARTED (SINCE
000098:                                                                                                  #                                        # LONGBASE WAS SET THIS SINGLE ENTRY
000099:                                                                                                  #                                        # SHOULD BE A LONGCALL)
000100:                                                                                                  #                TC      PHASCHNG        # SINCE BOTH TBASE4 AND LONGBASE ARE SET,
000101:                                                                                                  #                OCT     60124           # 4.12 SHOULD CONTAIN BOTH A TASK AND A
000102:                                                                                                  #                                        # LONGCALL TO BE RESTARTED
000103:
000104:                                                                                                  #  TYPE C PHASCHNG CONTAINS THE VARIABLE TYPE OF PHASCHNG INFORMATION.  INSTEAD OF THE INFORMATION BEING IN A
000105:                                                                                                  #  PERMANENT FORM, ONE STORES THE DESIRED RESTART INFORMATION IN A VARIABLE LOCATION. THE BITS ARE AS FOLLOWS,
000106:
000107:                                                                                                  #        TL0 1AD XXX CJW GGG
000108:
000109:                                                                                                  #  WHERE EACH LETTER OR NUMBER STANDS FOR A BIT.  THE G'S STAND FOR THE GROUP, OCTAL 1 - 7.  IF THE RESTART IS TO
000110:                                                                                                  #  BE BY WAITLIST, W IS SET TO 1, IF IT IS A JOB, J IS SET TO 1, IF IT IS A LONGCALL, C IS SET TO 1. ONLY ONE OF
000111:                                                                                                  #  THESE THREE BITS MAY BE SET.  X'S ARE IGNORED, 1 MUST BE 1, AND 0 MUST BE 0.  AGAIN T STANDS FOR THE TBASE,


000113:                                                                                                  #  AND L FOR LONGBASE.  THE BITS A AND D ARE CONCERNED WITH THE VARIABLE INFORMATION. IF D IS SET TO 1, A PRIORITY
000114:                                                                                                  #  OR DELTA TIME WILL BE READ FROM THE NEXT LOCATION AFTER THE OCTAL INFORMATION, IF THIS IS TO BE INDIRECT, THAT
000115:                                                                                                  #  IS, THE NAME OF A LOCATION CONTAINING THE INFORMATION (DELTA TIME ONLY), THEN THIS IS GIVEN AS THE -GENADR OF
000116:                                                                                                  #  THAT LOCATION WHICH CONTAINS THE DELTA TIME.  IF THE OLD PRIORITY OR DELTA TIME IS TO BE USED, THAT WHICH IS
000117:                                                                                                  #  ALREADY IN THE VARIABLE STORAGE, THEN D IS SET TO 0. NEXT THE A BIT IS USED.  IF IT IS SET TO 0, THE ADDRESS
000118:                                                                                                  #  THAT WOULD BE RESTARTED DURING A RESTART IS THE NEXT LOCATION AFTER THE PHASE INFORMATION, THAT IS, EITHER
000119:                                                                                                  #  (TC PHASCHNG) +2 OR +3, DEPENDING ON WHETHER D HAD BEEN SET OR NOT.  IF A IS SET TO 1, THEN THE ADDRESS THAT
000120:                                                                                                  #  WOULD BE RESTARTED IS THE 2CADR THAT IS READ FROM THE NEXT TWO LOCATION.  EXAMPLES,
000121:
000122:                                                                                                  #        AD      TC      PHASCHNG        # THIS WOULD CAUSE LOCATION AD +3 TO BE
000123:                                                                                                  #        AD+1    OCT     05023           # RESTARTED BY GROUP THREE WITH A PRIORITY
000124:                                                                                                  #        AD+2    OCT     23000           # OF 23.  NOTE UPON RETURNING IT WOULD
000125:                                                                                                  #        AD+3                            # ALSO GO TO AD+3
000126:
000127:                                                                                                  #        AD      TC      PHASCHNG        # GROUP  1 WOULD CAUSE CALLCALL TO BE
000128:                                                                                                  #        AD+1    OCT     27441           # BE STARTED AS A LONGCALL FROM THE TIME
000129:                                                                                                  #        AD+2   -GENADR  DELTIME         # STORED IN LONGBASE (LONGBASE WAS SET) BY
000130:                                                                                                  #        AD+3    2CADR   CALLCALL        # A DELTATIME STORED IN DELTIME.  THE
000131:                                                                                                  #        AD+4                            # BBCON OF THE 2CADR SHOULD CONTAIN THE E
000132:                                                                                                  #        AD+5                            # BANK OF DELTIME. PHASCHNG RETURNS TO
000133:                                                                                                  #                                        # LOCATION AD+5
000134:
000135:                                                                                                  #  NOTE THAT IF A VARIABLE PRIORITY IS GIVEN FOR A JOB, THE JOB WILL BE RESTARTED AS A NOVAC IF THE PRIORITY IS
000136:                                                                                                  #  NEGATIVE, AS A FINDVAC IF THE PRIORITY IS POSITIVE.
000137:
000138:                                                                                                  #  TYPE B PHASCHNG IS A COMBINATION OF VARIABLE AND FIXED PHASE CHANGES. IT WILL START UP A JOB AS INDICATED
000139:                                                                                                  #  BELOW AND ALSO START UP ONE FIXED RESTART, THAT IS EITHER AN G.1 OR A G.ODD OR THE FIRST ENTRY OF G.EVEN
000140:                                                                                                  #  DOUBLE ENTRY.  THE BIT INFORMATION IS AS FOLLOW,
000141:
000142:                                                                                                  #        TL1 DAP PPP PPP GGG
000143:
000144:                                                                                                  #  WHERE EACH LETTER OR NUMBER STANDS FOR A BIT.  THE G'S STAND FOR THE GROUP, OCTAL 1 - 7, THE P'S FOR THE FIXED
000145:                                                                                                  #  PHASE INFORMATION, OCTAL 0 - 127. 1 MUST BE 1.  AND AGAIN T STANDS FOR THE TBASE AND L FOR LONGBASE.  D THIS
000146:                                                                                                  #  TIME STANDS ONLY FOR PRIORITY SINCE THIS WILL BE CONSIDERED A JOB, AND IT MUST BE GIVEN DIRECTLY IF GIVEN.
000147:                                                                                                  #  AGAIN A STANDS FOR THE ADDRESS OF THE LOCATION TO BE RESTARTED, 1 IF THE 2CADR IS GIVEN, OR 0 IF IT IS TO BE
000148:                                                                                                  #  THE NEXT LOCATION.(THE RETURN LOCATION OF PHASCHNG) EXAMPLES,
000149:
000150:                                                                                                  #        AD      TC      PHASCHNG        # TBASE IS SET AND A RESTART CAUSE GROUP 3
000151:                                                                                                  #        AD+1    OCT     56043           # TO START THE JOB AJOBAJOB WITH PRIORITY
000152:                                                                                                  #        AD+2    OCT     31000           # 31 AND THE FIRST ENTRY OF 3.4SPOT (WE CAN
000153:                                                                                                  #        AD+3    2CADR   AJOBAJOB        # ASSUME IT IS A TASK SINCE WE SET TBASE3)
000154:                                                                                                  #        AD+4                            # UPON RETURN FROM PHASCHNG CONTROL WOULD
000155:                                                                                                  #        AD+5                            # GO TO AD+5
000156:
000157:                                                                                                  #        AD      TC      PHASCHNG        # UPON A RESTART THE LAST DISPLAY WOULD BE
000158:                                                                                                  #        AD+1    OCT     10015           # RESTARTED AND A JOB WITH THE PREVIOUSLY
000159:                                                                                                  #        AD+2                            # STORED PRIORITY WOULD BE BEGUN AT AD+2
000160:                                                                                                  #                                        # BY MEANS OF GROUP 5
000161:


000163:
000164:                                                                                                  #  THE NOVAC-FINDVAC CHOICE FOR JOBS HOLDS HERE ALSO - NEGATIVE PRIORITY CAUSES A NOVAC CALL, POSITIVE A FINDVAC.
000165:
000166:
000167:                                                                                                  #  SUMMARY OF BITS:
000168:
000169:                                                                                                  #  TYPE A                TL0 00P PPP PPP GGG
000170:
000171:                                                                                                  #  TYPE B                TL1 DAP PPP PPP GGG
000172:
000173:                                                                                                  #  TYPE C                TL0 1AD XXX CJW GGG
000174:
000175:


000177:
000178:                                                                                                  #  2PHSCHNG IS USED WHEN ONE WISHES TO START UP A GROUP OR CHANGE A GROUP WHILE UNDER THE CONTROL OF A DIFFERENT
000179:                                                                                                  #  GROUP. FOR EXAMPLE, CHANGE THE PHASE OF GROUP 3 WHILE THE PORTION OF THE PROGRAM IS UNDER GROUP 5. ALL 2PHSCHNG
000180:                                                                                                  #  CALLS ARE MADE IN THE FOLLOWING MANNER,
000181:
000182:                                                                                                  #                TC      2PHSCHNG
000183:                                                                                                  #                OCT     XXXXX
000184:                                                                                                  #                OCT     YYYYY
000185:
000186:                                                                                                  #  WHERE OCT XXXXX MUST BE OF TYPE A AND OCT YYYYY MAY BE OF EITHER TYPE A OR TYPE B OR TYPE C.  THERE IS ONE
000187:                                                                                                  #  DIFFERENCE --- NOTE- IF LONGBASE IS TO BE SET THIS INFORMATION IS GIVEN IN THE OCT YYYYY INFORMATION, IT WILL
000188:                                                                                                  #  BE DISREGARDED IF GIVEN WITH THE OCT XXXXX INFORMATION. A COUPLE OF EXAMPLES MAY HELP,
000189:
000190:                                                                                                  #        AD      TC      2PHACHNG        # SET TBASE3 AND IF A RESTART OCCURS START
000191:                                                                                                  #        AD+1    OCT     40083           # THE TWO ENTRIES IN 3.8 TABLE LOCATION
000192:                                                                                                  #        AD+2    OCT     05025           # THIS IS OF TYPE C, SET THE JOB TO BE
000193:                                                                                                  #        AD+3    OCT     18000           # TO BE LOCATION AD+4, WITH A PRIORITY 18,
000194:                                                                                                  #        AD+4                            # FOR GROUP 5 PHASE INFORMATION.
000195:
000196:    5362                                           COUNT*   $$/PHASE
000197:    5362           00004        2PHSCHNG           INHINT                                         #  THE ENTRY FOR A DOUBLE PHASE CHANGE
000198:    5363           50002                           NDX      Q
000199:    5364           30000                           CA       0
000200:    5365           24002                           INCR     Q
000201:    5366           54072                           TS       TEMPP2
000202:
000203:    5367           74774                           MASK     OCT7
000204:    5370           60000                           DOUBLE
000205:    5371           54071                           TS       TEMPG2
000206:
000207:    5372           30072                           CA       TEMPP2
000208:    5373           75056                           MASK     OCT17770                              #  NEED ONLY 1770, BUT WHY GET A NEW CONST.
000209:    5374           00006                           EXTEND
000210:    5375           74755                           MP       BIT12
000211:    5376           56072                           XCH      TEMPP2
000212:
000213:    5377           74752                           MASK     BIT15
000214:    5400           54066                           TS       TEMPSW2                               #  INDICATES WHETHER TO SET TBASE OR NOT
000215:
000216:    5401           15405                           TCF      PHASCHNG   +3
000217:
000218:    5402           00004        PHASCHNG           INHINT
000219:    5403           34770                           CA       ONE                                   #  INDICATES CAME FROM A PHASCHNG ENTRY
000220:    5404           54066                           TS       TEMPSW2
000221:
000222:    5405           50002                 +3        NDX      Q
000223:    5406           30000                           CA       0
000224:    5407           24002                           INCR     Q
000225:    5410           54065                           TS       TEMPSW


000227:    5411           00006                           EXTEND
000228:    5412           35415                           DCA      ADRPCHN2                              #  OFF TO SWITCHED BANK
000229:    5413           52006                           DTCB
000230:
000231:    5414  E3,1400                                  EBANK=   LST1
000232:    5414           02473 20063  ADRPCHN2           2CADR    PHSCHNG2
000233:
000234:
000235:    5416           22073        ONEORTWO           LXCH     TEMPBBCN
000236:    5417           22006                           LXCH     BBANK
000237:    5420           22073                           LXCH     TEMPBBCN
000238:
000239:    5421           75053                           MASK     OCT14000                              #  SEE WHAT KIND OF PHASE CHANGE IT IS
000240:    5422           10000                           CCS      A
000241:    5423           15464                           TCF      CHECKB                                #  IT IS OF TYPE 'B'.
000242:
000243:    5424           30062                           CA       TEMPP
000244:    5425           74762                           MASK     BIT7
000245:    5426           10000                           CCS      A                                     #  SHALL WE USE THE OLD PRIORITY
000246:    5427           15451                           TCF      GETPRIO                               #  NO GET A NEW PRIORITY (OR DELTA T)
000247:
000248:    5430           50061        OLDPRIO            NDX      TEMPG                                 #  USE THE OLD PRIORITY (OR DELTA T)
000249:    5431           31256                           CA       PHSPRDT1   -2
000250:    5432           54070                 -1        TS       TEMPPR
000251:
000252:    5433           30062        CON1               CA       TEMPP                                 #  SEE IF A 2CADR IS GIVEN
000253:    5434           74761                           MASK     BIT8
000254:    5435           10000                           CCS      A
000255:    5436           15455                           TCF      GETNEWNM
000256:
000257:    5437           30002                           CA       Q
000258:    5440           54063                           TS       TEMPNM
000259:    5441           30006                           CA       BB
000260:    5442           00006                           EXTEND                                         #  PICK UP USERS SUPERBANK
000261:    5443           04007                           ROR      SUPERBNK
000262:    5444           54064                           TS       TEMPBB
000263:
000264:    5445           35450        TOCON2             CA       CON2ADR                               #  BACK TO SWITCHED BANK
000265:    5446           22073                           LXCH     TEMPBBCN
000266:    5447           52006                           DTCB
000267:
000268:    5450           02561        CON2ADR            GENADR   CON2
000269:
000270:    5451           50002        GETPRIO            NDX      Q                                     #  DON'T CARE IF DIRECT OR INDIRECT
000271:    5452           30000                           CA       0                                     #  LEAVE THAT DECISION TO RESTARTS
000272:    5453           24002                           INCR     Q                                     #  OBTAIN RETURN ADDRESS
000273:    5454           15432                           TCF      CON1       -1
000274:
000275:    5455           00006        GETNEWNM           EXTEND


000277:    5456           50002                           INDEX    Q
000278:    5457           30001                           DCA      0
000279:    5460           52064                           DXCH     TEMPNM
000280:    5461           34767                           CA       TWO
000281:    5462           26002                           ADS      Q                                     #  OBTAIN RETURN ADDRESS
000282:
000283:    5463           15445                           TCF      TOCON2
000284:
000285:    5464     5053               OCT14000           EQUALS   PRIO14
000286:    5464     0061               TEMPG              EQUALS   ITEMP1
000287:    5464     0062               TEMPP              EQUALS   ITEMP2
000288:    5464     0063               TEMPNM             EQUALS   ITEMP3
000289:    5464     0064               TEMPBB             EQUALS   ITEMP4
000290:    5464     0065               TEMPSW             EQUALS   ITEMP5
000291:    5464     0066               TEMPSW2            EQUALS   ITEMP6
000292:    5464     0070               TEMPPR             EQUALS   RUPTREG1
000293:    5464     0071               TEMPG2             EQUALS   RUPTREG2
000294:    5464     0072               TEMPP2             EQUALS   RUPTREG3
000295:
000296:    5464     0073               TEMPBBCN           EQUALS   RUPTREG4
000297:    5464  0000006               BB                 EQUALS   BBANK
000298:
000299: 10,2000                                           SETLOC   PHASETAB
000300: 10,2000                                           BANK
000301:
000302: 10,2473  E3,1436                                  EBANK=   PHSNAME1
000303: 10,2473                                           COUNT*   $$/PHASE
000304: 10,2473           22073        PHSCHNG2           LXCH     TEMPBBCN
000305: 10,2474           30065                           CA       TEMPSW
000306: 10,2475           74774                           MASK     OCT7
000307: 10,2476           60000                           DOUBLE
000308: 10,2477           54061                           TS       TEMPG
000309:
000310: 10,2500           30065                           CA       TEMPSW
000311: 10,2501           75056                           MASK     OCT17770
000312: 10,2502           00006                           EXTEND
000313: 10,2503           74755                           MP       BIT12
000314: 10,2504           54062                           TS       TEMPP
000315:
000316: 10,2505           30065                           CA       TEMPSW
000317: 10,2506           74076                           MASK     OCT60000
000318: 10,2507           56065                           XCH      TEMPSW
000319: 10,2510           75053                           MASK     OCT14000
000320: 10,2511           10000                           CCS      A
000321:
000322: 10,2512           15416                           TCF      ONEORTWO
000323:
000324: 10,2513           30062                           CA       TEMPP                                 #  START STORING THE PHASE INFORMATION
000325: 10,2514           50061                           NDX      TEMPG


000327: 10,2515           55154                           TS       PHASE1     -2
000328:
000329: 10,2516           10066        BELOW1             CCS      TEMPSW2                               #  IS IT A PHASCHNG OR A 2PHSCHNG
000330: 10,2517           12533                           TCF      BELOW2                                #  IT'S A PHASCHNG
000331:
000332: 10,2520           12521                           TCF      +1                                    #  IT'S A 2PHSCHNG
000333: 10,2521           40072                           CS       TEMPP2
000334: 10,2522           22072                           LXCH     TEMPP2
000335: 10,2523           50071                           NDX      TEMPG2
000336: 10,2524           53154                           DXCH     -PHASE1    -2
000337:
000338: 10,2525           10066                           CCS      TEMPSW2
000339: 10,2526           12527                           NOOP                                           #  CAN'T GET HERE
000340: 10,2527           12533                           TCF      BELOW2
000341:
000342: 10,2530           40025                           CS       TIME1
000343: 10,2531           50071                           NDX      TEMPG2
000344: 10,2532           55255                           TS       TBASE1     -2
000345:
000346: 10,2533           10065        BELOW2             CCS      TEMPSW                                #  SEE IF WE SHOULD SET TBASE OR LONGBASE
000347: 10,2534           12547                           TCF      BELOW3                                #  SET LONGBASE ONLY
000348: 10,2535           12552                           TCF      BELOW4                                #  SET NEITHER
000349:
000350: 10,2536           40025                           CS       TIME1                                 #  SET TBASE TO BEGIN WITH
000351: 10,2537           50061                           NDX      TEMPG
000352: 10,2540           55255                           TS       TBASE1     -2
000353:
000354: 10,2541           30065                           CA       TEMPSW                                #  SHALL WE NOW SET LONGBASE
000355: 10,2542           62545                           AD       BIT14COM
000356: 10,2543           10000                           CCS      A
000357: 10,2544           12545                           NOOP                                           #  ***** CANT GET HERE *****
000358: 10,2545           17777        BIT14COM           OCT      17777                                 #  ***** CANT GET HERE *****
000359: 10,2546           12552                           TCF      BELOW4                                #  NO WE NEED ONLY SET TBASE
000360:
000361: 10,2547           00006        BELOW3             EXTEND                                         #  SET LONGBASE
000362: 10,2550           30025                           DCA      TIME2
000363: 10,2551           53303                           DXCH     LONGBASE
000364:
000365: 10,2552           40062        BELOW4             CS       TEMPP                                 #  AND STORE THE FINAL PART OF THE PHASE
000366: 10,2553           50061                           NDX      TEMPG
000367: 10,2554           55153                           TS       -PHASE1    -2
000368:
000369: 10,2555           30002                           CA       Q
000370: 10,2556           22073                           LXCH     TEMPBBCN
000371: 10,2557           00003                           RELINT
000372: 10,2560           52006                           DTCB
000373: 10,2561           22073        CON2               LXCH     TEMPBBCN
000374:
000375: 10,2562           30062                           CA       TEMPP
000376: 10,2563           50061                           NDX      TEMPG


000378: 10,2564           55154                           TS       PHASE1     -2
000379:
000380: 10,2565           30070                           CA       TEMPPR
000381: 10,2566           50061                           NDX      TEMPG
000382: 10,2567           55256                           TS       PHSPRDT1   -2
000383:
000384: 10,2570           00006                           EXTEND
000385: 10,2571           30064                           DCA      TEMPNM
000386: 10,2572           50061                           NDX      TEMPG
000387: 10,2573           53435                           DXCH     PHSNAME1   -2
000388:
000389: 10,2574           12516                           TCF      BELOW1
000390:
000391:    4000                                           SETLOC   FFTAG1
000392:    4000                                           BANK
000393:
000394:    5464                                           COUNT*   $$/PHASE
000395:    5464           74755        CHECKB             MASK     BIT12                                 #  SINCE THIS IS OF TYPE B, THIS BIT SHOULD
000396:    5465           10000                           CCS      A                                     #  BE HERE IF WE ARE TO GET A NEW PRIORITY
000397:    5466           15451                           TCF      GETPRIO                               #  IT IS, SO GET NEW PRIORITY
000398:
000399:    5467           15430                           TCF      OLDPRIO                               #  IT ISN'T, USE THE OLD PRIORITY.

End of include-file PHASE_TABLE_MAINTENANCE.agc.  Parent file is MAIN.agc


