
Source Code


000002:                                                                                                  ## Copyright:   Public domain.
000003:                                                                                                  ## Filename:    PHASE_TABLE_MAINTENANCE.agc
000004:                                                                                                  ## Purpose:     Part of the source code for Artemis (i.e., Colossus 3),
000005:                                                                                                  ##              build 072.  This is for the Command Module's (CM)
000006:                                                                                                  ##              Apollo Guidance Computer (AGC), for
000007:                                                                                                  ##              Apollo 15-17.
000008:                                                                                                  ## Assembler:   yaYUL
000009:                                                                                                  ## Contact:     Jim Lawton <jim DOT lawton AT gmail DOT com>
000010:                                                                                                  ## Website:     www.ibiblio.org/apollo/index.html
000011:                                                                                                  ## Page Scans:  www.ibiblio.org/apollo/ScansForConversion/Artemis072/
000012:                                                                                                  ## Mod history: 2009-08-18 JL   Adapted from corresponding Comanche 055 file.
000013:                                                                                                  ##              2010-02-20 RSB  Un-##'d this header.
000014:                                                                                                  ##              2017-02-08 RSB  Proofed comment text by using octopus/ProoferComments.
000015:


000017:
000018:                                                                                                  #  SUBROUTINE TO UPDATE THE PROGRAM NUMBER DISPLAY ON THE DSKY.
000019:
000020:    4000                                           SETLOC   FFTAG1
000021:    4000                                           BANK
000022:
000023:    5344                                           COUNT*   $$/PHASE
000024:    5344           50002        NEWMODEX           INDEX    Q                                     #  UPDATE MODREG. ENTRY FOR MODE IN FIXED.
000025:    5345           30000                           CAF      0
000026:    5346           24002                           INCR     Q
000027:
000028:    5347           55214        NEWMODEA           TS       MODREG                                #  ENTRY FOR MODE IN A.
000029:    5350           35353        MMDSPLAY           CAF      +3                                    #  DISPLAY MAJOR MODE.
000030:    5351           22006        PREBJUMP           LXCH     BBANK                                 #  PUTS BBANK IN L
000031:    5352           14660                           TCF      BANKJUMP                              #  PUTS Q INTO A
000032:    5353           20463                           CADR     SETUPDSP
000033:
000034:                                                                                                  #  RETURN TO CALLER +3 IF MODE = THAT AT CALLER +1. OTHERWISE RETURN TO CALLER +2.
000035:
000036:    5354           50002        CHECKMM            INDEX    Q
000037:    5355           40000                           CS       0
000038:    5356           61214                           AD       MODREG
000039:    5357           00006                           EXTEND
000040:    5360           16710                           BZF      Q+2
000041:    5361           16706                           TCF      Q+1                                   #  NO MATCH
000042:
000043: 10,2000                                           SETLOC   PHASETAB
000044: 10,2000                                           BANK
000045:
000046: 10,2463                                           COUNT*   $$/PHASE
000047: 10,2463           00004        SETUPDSP           INHINT
000048: 10,2464           52071                           DXCH     RUPTREG1                              #  SAVE CALLER'S RETURN 2CADR
000049: 10,2465           05120                           TC       NOVAC30                               #  EITHER A TASK OR JOB CAN COMETO NEWMODEX
000050: 10,2466     1214                                  EBANK=   MODREG
000051: 10,2466           03377 60102                     2CADR    DSPMMJOB
000052:
000053: 10,2470           52071                           DXCH     RUPTREG1
000054: 10,2471           00003                           RELINT
000055: 10,2472           52006                           DXCH     Z                                     #  RETURN
000056:
000057: 10,2473  40,3377               DSPMMJOB           EQUALS   DSPMMJB
000058:
000059:    4000                                           SETLOC   FFTAG1
000060:    4000                                           BANK


000062:
000063:                                                                                                  #  PHASCHNG IS THE MAIN WAY OF MAKING PHASE CHANGES FOR RESTARTS.  THERE ARE THREE FORMS OF PHASCHNG, KNOWN AS TYPE
000064:                                                                                                  #  A, TYPE B, AND TYPE C. THEY ARE ALL CALLED AS FOLLOWS, WHERE OCT XXXXX CONTAINS THE PHASE INFORMATION,
000065:
000066:                                                                                                  #                TC      PHASCHNG
000067:                                                                                                  #                OCT     XXXXX
000068:
000069:                                                                                                  #  TYPE A IS CONCERNED WITH FIXED PHASE CHANGES, THAT IS, PHASE INFORMATION THAT IS STORED PERMANENTLY.  THESE
000070:                                                                                                  #  OPTIONS ARE, WHERE G STANDS FOR A GROUP AND .X FOR THE PHASE,
000071:
000072:                                                                                                  #        G.0             INACTIVE, WILLNOT PERMIT A GROUP G RESTART
000073:                                                                                                  #        G.1             WILL CAUSE THE LAST DISPLAY TO BE REACTIVATED, USED MAINLY IN MANNED FLIGHTS
000074:                                                                                                  #        G.EVEN          A DOUBLE TABLE RESTART, CAN CAUSE ANY COMBINATION OF TWO JOBS, TASKS, AND/OR
000075:                                                                                                  #                        LONGCALL TO BE RESTARTED.
000076:                                                                                                  #        G.ODD NOT .1    A SINGLE TABLE RESTART, CAN CAUSE EITHER A JOB, TASK, OR LONGCALL RESTART
000077:
000078:                                                                                                  #  THIS INFORMATION IS PUT INTO THE OCTAL WORD AFTER TC PHASCHNG AS FOLLOWS
000079:
000080:                                                                                                  #        TL0 00P PPP PPP GGG                                               ,
000081:
000082:                                                                                                  #  WHERE EACH LETTER OR NUMBER STANDS FOR A BIT.  THE G'S STAND FOR THE GROUP, OCTAL 1 - 7, THE P'S FOR THE PHASE,
000083:                                                                                                  #  OCTAL 0 - 127.  0'S MUST BE 0.              IF ONE WISHES TO HAVE THE TBASE OF GROUP G TO BE SET AT THIS TIME,
000084:                                                                                                  #  T IS SET TO 1, OTHERWISE IT IS SET TO 0.  SIMIARLY IF ONE WISHES TO SET LONGBASE, THEN L IS SET TO 1, OTHERWISE
000085:                                                                                                  #  IT IS SET TO 0.  SOME EXAMPLES,
000086:
000087:                                                                                                  #                TC      PHASCHNG        THIS WILL CAUSE GROUP 3 TO BE SET TO 0,
000088:                                                                                                  #                OCT     00003           MAKING GROUP 3 INACTIVE
000089:
000090:                                                                                                  #                TC      PHASCHNG        IF A RESTART OCCURS THIS WOULD CAUSE
000091:                                                                                                  #                OCT     00012           GROUP 2 TO RESTART THE LAST DISPLAY
000092:
000093:                                                                                                  #                TC      PHASCHNG        THIS SETS THE TBASE OF GROUP 4 AND IN
000094:                                                                                                  #                OCT     40064           CASE OF A RESTART WOULD START UP THE TWO
000095:                                                                                                  #                                        THINGS LOCATED IN THE DOUBLE 4.6 RESTART
000096:                                                                                                  #                                        LOCATION
000097:                                                                                                  #                TC      PHASCHNG        THIS SETS LONGBASE AND UPON A RESTART
000098:                                                                                                  #                OCT     20135           CAUSES 5.13 TO BE RESTARTED (SINCE
000099:                                                                                                  #                                        LONGBASE WAS SET THIS SINGLE ENTRY
000100:                                                                                                  #                                        SHOULD BE A LONGCALL)
000101:                                                                                                  #                TC      PHASCHNG        SINCE BOTH TBASE4 AND LONGBASE ARE SET,
000102:                                                                                                  #                OCT     60124           4.12 SHOULD CONTAIN BOTH A TASK AND A
000103:                                                                                                  #                                        LONGCALL TO BE RESTARTED
000104:
000105:                                                                                                  #  TYPE C PHASCHNG CONTAINS THE VARIABLE TYPE OF PHASCHNG INFORMATION.  INSTEAD OF THE INFORMATION BEING IN A
000106:                                                                                                  #  PERMANENT FORM, ONE STORES THE DESIRED RESTART INFORMATION IN A VARIABLE LOCATION. THE BITS ARE AS FOLLOWS,
000107:
000108:                                                                                                  #        TL0 1AD XXX CJW GGG
000109:
000110:                                                                                                  #  WHERE EACH LETTER OR NUMBER STANDS FOR A BIT.  THE G'S STAND FOR THE GROUP, OCTAL 1 - 7.  IF THE RESTART IS TO
000111:                                                                                                  #  BE BY WAITLIST, W IS SET TO 1, IF IT IS A JOB, J IS SET TO 1, IF IT IS A LONGCALL, C IS SET TO 1. ONLY ONE OF
000112:                                                                                                  #  THESE THREE BITS MAY BE SET.  X'S ARE IGNORED  1 MUST BE 1, AND 0 MUST BE 0.  AGAIN T STANDS FOR THE TBASE,


000114:                                                                                                  #  AND L FOR LONGBASE.  THE BITS A AND D ARE CONCERNED WITH THE VARIABLE INFORMATION. IF D IS SET TO 1, A PRIORITY
000115:                                                                                                  #  OR DELTA TIME WILL BE READ FROM THE NEXT LOCATION AFTER THE OCTAL INFORMATION, IF THIS IS TO BE INDIRECT, THAT
000116:                                                                                                  #  IS, THE NAME OF A LOCATION COMT+INING THE INFORMATION (DELTA TIME ONLY), THEN THIS IS GIVEN AS THE -GENADR OF
000117:                                                                                                  #  THAT LOCATION WHICH CONTAINS THE DELTA TIME.  IF THE OLD PRIORITY OR DELTA TIME IS TO BE USED, THAT WHICH IS
000118:                                                                                                  #  ALREADY IN THE VARIABLE STORAGE, THEN D IS SET TO 0. NEXT THE A BIT IS USED.  IF IT IS SET TO 0, THE ADDRESS
000119:                                                                                                  #  THAT WOULD BE RESTARTED DURING A RESTART IS THE NEXT LOCATION AFTER THE PHASE INFORMATION, THAT IS, EITHER
000120:                                                                                                  #  (TC PHASCHNG) +2 OR +3, DEPENDING ON WHETHER D HAD BEEN SET OR NOT.  IF A IS SET TO 1, THEN THE ADDRESS THAT
000121:                                                                                                  #  WOULD BE RESTARTED IS THE 2CADR THAT IS READ FROM THE NEXT TWO LOCATIONS.  EXAMPLES,
000122:
000123:                                                                                                  #        AD      TC      PHASCHNG        THIS WOULD CAUSE LOCATION AD +3 TO
000124:                                                                                                  #        AD+1    OCT     05023           BE STARTED BY GROUP THREE WITH A PRIORITY
000125:                                                                                                  #        AD+2    OCT     23000           OF 23.  NOTE UPON RETURNING IT WOULD
000126:                                                                                                  #        AD+3                            ALSO GO TO AD+3
000127:
000128:                                                                                                  #        AD      TC      PHASCHNG        GROUP  1 WOULD CAUSE CAUSE CALLCALL TO BE
000129:                                                                                                  #        AD+1    OCT     27441           BE STARTED AS A LONGCALL FROM THE TIME
000130:                                                                                                  #        AD+2   -GENADR  DELTIME         STORED IN LONGBASE (LONGBASE WAS SET) BY
000131:                                                                                                  #        AD+3    2CADR   CALLCALL        A DELTATIME STORED IN DELTIME.  THE
000132:                                                                                                  #        AD+4                            BBCON OF THE 2CADR SHOULD CONTAIN THE E
000133:                                                                                                  #        AD+5                            BANK OF DELTIME. PHASCHNG RETURNS TO
000134:                                                                                                  #                                        LOCATION AD+5
000135:
000136:                                                                                                  #  NOTE THAT IF A VARIABLE PRIORITY IS GIVEN FOR A JOB, THE JOB WILL BE RESTARTED AS A NOVAC IF THE PRIORITY IS
000137:                                                                                                  #  NEGATIVE, AS A FINDVAC IF THE PRIORITY IS POSITIVE.
000138:
000139:                                                                                                  #  TYPE B PHASCHNG IS A COMBINATION OF VARIABLE AND FIXED PHASE CHANGES. IT WILL START UP A JOB AS INDICATED
000140:                                                                                                  #  BELOW AND ALSO START UP ONE FIXED RESTART, THAT IS EITHER AN G.1 OR A G.ODD OR THE FIRST ENTRY OF G.EVEN
000141:                                                                                                  #  DOUBLE ENTRY.  THE BIT INFORMATION IS AS FOLLOWS,
000142:
000143:                                                                                                  #        TL1 DAP PPP PPP GGG
000144:
000145:                                                                                                  #  WHERE EACH LETTER OR NUMBER STANDS FOR A BIT.  THE G:S STAND FOR THE GROUP, OCTAL 1 - 7, THE P:S FOR THE FIXED
000146:                                                                                                  #  PHASE INFORMATION, OCTAL 0 - 127. 1 MUST BE 1.  AND AGAIN T STANDS FOR THE TBASE AND L FOR LONGBASE.  D THIS
000147:                                                                                                  #  TIME STANDS ONLY FOR PRIORITY SINCE THIS WILL BE CONSIDERED A JOB, AND IT MUST BE GIVEN DIRECTLY IF GIVEN.
000148:                                                                                                  #  AGAIN A STANDS FOR THE ADDRESS OF THE LOCATION TO BE RESTARTED, 1 IF THE 2CADR IS GIVEN, OR 0 IF IT IS TO BE
000149:                                                                                                  #  THE NEXT LOCATION.(THE RETURN LOCATION OF PHASCHNG) EXAMPLES,
000150:
000151:                                                                                                  #        AD      TC      PHASCHNG        TBASE IS SET AND A RESTART CAUSE GROUP 3
000152:                                                                                                  #        AD+1    OCT     56043           TO START THE JOB AJOBAJOB WITH PRIORITY
000153:                                                                                                  #        AD+2    OCT     31000           31 AND THE FIRST ENTRY OF 3.4SPOT (WE CAN
000154:                                                                                                  #        AD+3    2CADR   AJOBAJOB        ASSUME IT IS A TASK SINCE WE SET TBASE3)
000155:                                                                                                  #        AD+4                            UPON RETURN FROM PHASCHNG CONTROL WOULD
000156:                                                                                                  #        AD+5                            GO TO AD+5
000157:
000158:                                                                                                  #        AD      TC      PHASCHNG        UPON A RESTART THE LAST DISPLAY WOULD BE
000159:                                                                                                  #        AD+1    OCT     10015           RESTARTED AND A JOB WITH THE PREVIOUSLY
000160:                                                                                                  #        AD+2                            STORED PRIORITY WOULD BE BEGUN AT AD+2
000161:                                                                                                  #                                        BY MEANS OF GROUP 5
000162:


000164:
000165:                                                                                                  #  THE NOVAC-FINDVAC CHOICE FOR JOBS HOLDS HERE ALSO - NEGATIVE PRIORITY CAUSES A NOVAC CALL, POSITIVE A FINDVAC
000166:
000167:
000168:                                                                                                  #  SUMMARY OF BITS
000169:
000170:                                                                                                  #  TYPE A                TL0 00P PPP PPP GGG
000171:
000172:                                                                                                  #  TYPE B                TL1 DAP PPP PPP GGG
000173:
000174:                                                                                                  #  TYPE C                TL0 1AD XXX CJW GGG
000175:
000176:


000178:
000179:                                                                                                  #  2PHSCHNG IS USED WHEN ONE WISHES TO START UP A GROUP OR CHANGE A GROUP WHILE UNDER THE CONTROL OF A DIFFERENT
000180:                                                                                                  #  GROUP. FOR EXAMPLE, CHANGE THE PHASE OF GROUP 3 WHILE THE PORTION OF THE PROGRAM IS UNDER GROUP 5. ALL 2PHSCHNG
000181:                                                                                                  #  CALLS ARE MADE IN THE FOLLOWING MANNER,
000182:
000183:                                                                                                  #                TC      2PHSCHNG
000184:                                                                                                  #                OCT     XXXXX
000185:                                                                                                  #                OCT     YYYYY
000186:
000187:                                                                                                  #  WHERE OCT XXXXX MUST BE OF TYPE A AND OCT YYYYY MAY BE OF EITHER TYPE A OR TYPE B OR TYPE C.  THERE IS ONE
000188:                                                                                                  #  DIFFERENCE --- NOTE- IF LONGBASE IS TO BE SET THIS INFORMATION IS GIVEN IN THE OCT YYYYY INFORMATION, IT WILL
000189:                                                                                                  #  BE DISREGARDED IF GIVEN WITH THE OCT XXXXX INFORMATION. A COUPLE OF EXAMPLES MAY HELP,
000190:
000191:                                                                                                  #        AD      TC      2PHSCHNG        SET TBASE3 AND IF A RESTART OCCURS START
000192:                                                                                                  #        AD+1    OCT     40083           THE TWO ENTRIES IN 3.8 TABLE LOCATION
000193:                                                                                                  #        AD+2    OCT     05025           THIS IS OF TYPE C, SET THE JOB TO BE
000194:                                                                                                  #        AD+3    OCT     18000           TO BE LOCATION AD+4, WITH A PRIORITY 18,
000195:                                                                                                  #        AD+4                            FOR GROUP 5 PHASE INFORMATION
000196:
000197:    5362                                           COUNT*   $$/PHASE
000198:    5362           00004        2PHSCHNG           INHINT                                         #  THE ENTRY FOR A DOUBLE PHASE CHANGE
000199:    5363           50002                           NDX      Q
000200:    5364           30000                           CA       0
000201:    5365           24002                           INCR     Q
000202:    5366           54072                           TS       TEMPP2
000203:
000204:    5367           74774                           MASK     OCT7
000205:    5370           60000                           DOUBLE
000206:    5371           54071                           TS       TEMPG2
000207:
000208:    5372           30072                           CA       TEMPP2
000209:    5373           75056                           MASK     OCT17770                              #  NEED ONLY 1770, BUT WHY GET A NEW CONST.
000210:    5374           00006                           EXTEND
000211:    5375           74755                           MP       BIT12
000212:    5376           56072                           XCH      TEMPP2
000213:
000214:    5377           74752                           MASK     BIT15
000215:    5400           54066                           TS       TEMPSW2                               #  INDICATES WHETHER TO SET TBASE OR NOT
000216:
000217:    5401           15405                           TCF      PHASCHNG   +3
000218:
000219:    5402           00004        PHASCHNG           INHINT
000220:    5403           34770                           CA       ONE                                   #  INDICATESWE CAME FROM A PHASCHNG ENTRY
000221:    5404           54066                           TS       TEMPSW2
000222:
000223:    5405           50002                 +3        NDX      Q
000224:    5406           30000                           CA       0
000225:    5407           24002                           INCR     Q
000226:    5410           54065                           TS       TEMPSW


000228:    5411           00006                           EXTEND
000229:    5412           35415                           DCA      ADRPCHN2                              #  OFF TO SWITCHED BANK
000230:    5413           52006                           DTCB
000231:
000232:    5414  E3,1400                                  EBANK=   LST1
000233:    5414           02473 20063  ADRPCHN2           2CADR    PHSCHNG2
000234:
000235:
000236:    5416           22073        ONEORTWO           LXCH     TEMPBBCN
000237:    5417           22006                           LXCH     BBANK
000238:    5420           22073                           LXCH     TEMPBBCN
000239:
000240:    5421           75053                           MASK     OCT14000                              #  SEE WHAT KIND OF PHASE CHANGE IT IS
000241:    5422           10000                           CCS      A
000242:    5423           15464                           TCF      CHECKB                                #  IT IS OF TYPE :B:
000243:
000244:    5424           30062                           CA       TEMPP
000245:    5425           74762                           MASK     BIT7
000246:    5426           10000                           CCS      A                                     #  SHALL WE USE THE OLD PRIORITY
000247:    5427           15451                           TCF      GETPRIO                               #  NO GET A NEW PRIORITY (OR DELTA T)
000248:
000249:    5430           50061        OLDPRIO            NDX      TEMPG                                 #  USE THE OLD PRIORITY (OR DELTA T)
000250:    5431           31256                           CA       PHSPRDT1   -2
000251:    5432           54070                 -1        TS       TEMPPR
000252:
000253:    5433           30062        CON1               CA       TEMPP                                 #  SEE IF A 2CADR IS GIVEN
000254:    5434           74761                           MASK     BIT8
000255:    5435           10000                           CCS      A
000256:    5436           15455                           TCF      GETNEWNM
000257:
000258:    5437           30002                           CA       Q
000259:    5440           54063                           TS       TEMPNM
000260:    5441           30006                           CA       BB
000261:    5442           00006                           EXTEND                                         #  PICK UP USERS SUPERBANK
000262:    5443           04007                           ROR      SUPERBNK
000263:    5444           54064                           TS       TEMPBB
000264:
000265:    5445           35450        TOCON2             CA       CON2ADR                               #  BACK TO SWITCHED BANK
000266:    5446           22073                           LXCH     TEMPBBCN
000267:    5447           52006                           DTCB
000268:
000269:    5450           02561        CON2ADR            GENADR   CON2
000270:
000271:    5451           50002        GETPRIO            NDX      Q                                     #  DON'T CARE IF DIRECT OR INDIRECT
000272:    5452           30000                           CA       0                                     #  LEAVE THAT DECISION TO RESTARTS
000273:    5453           24002                           INCR     Q                                     #  OBTAIN RETURN ADDRESS
000274:    5454           15432                           TCF      CON1       -1
000275:
000276:    5455           00006        GETNEWNM           EXTEND


000278:    5456           50002                           INDEX    Q
000279:    5457           30001                           DCA      0
000280:    5460           52064                           DXCH     TEMPNM
000281:    5461           34767                           CA       TWO
000282:    5462           26002                           ADS      Q                                     #  OBTAIN RETURN ADDRESS
000283:
000284:    5463           15445                           TCF      TOCON2
000285:
000286:    5464     5053               OCT14000           EQUALS   PRIO14
000287:    5464     0061               TEMPG              EQUALS   ITEMP1
000288:    5464     0062               TEMPP              EQUALS   ITEMP2
000289:    5464     0063               TEMPNM             EQUALS   ITEMP3
000290:    5464     0064               TEMPBB             EQUALS   ITEMP4
000291:    5464     0065               TEMPSW             EQUALS   ITEMP5
000292:    5464     0066               TEMPSW2            EQUALS   ITEMP6
000293:    5464     0070               TEMPPR             EQUALS   RUPTREG1
000294:    5464     0071               TEMPG2             EQUALS   RUPTREG2
000295:    5464     0072               TEMPP2             EQUALS   RUPTREG3
000296:
000297:    5464     0073               TEMPBBCN           EQUALS   RUPTREG4
000298:    5464  0000006               BB                 EQUALS   BBANK
000299:
000300: 10,2000                                           SETLOC   PHASETAB
000301: 10,2000                                           BANK
000302:
000303: 10,2473  E3,1436                                  EBANK=   PHSNAME1
000304: 10,2473                                           COUNT*   $$/PHASE
000305: 10,2473           22073        PHSCHNG2           LXCH     TEMPBBCN
000306: 10,2474           30065                           CA       TEMPSW
000307: 10,2475           74774                           MASK     OCT7
000308: 10,2476           60000                           DOUBLE
000309: 10,2477           54061                           TS       TEMPG
000310:
000311: 10,2500           30065                           CA       TEMPSW
000312: 10,2501           75056                           MASK     OCT17770
000313: 10,2502           00006                           EXTEND
000314: 10,2503           74755                           MP       BIT12
000315: 10,2504           54062                           TS       TEMPP
000316:
000317: 10,2505           30065                           CA       TEMPSW
000318: 10,2506           74076                           MASK     OCT60000
000319: 10,2507           56065                           XCH      TEMPSW
000320: 10,2510           75053                           MASK     OCT14000
000321: 10,2511           10000                           CCS      A
000322:
000323: 10,2512           15416                           TCF      ONEORTWO
000324:
000325: 10,2513           30062                           CA       TEMPP                                 #  START STORING THE PHASE INFORMATION
000326: 10,2514           50061                           NDX      TEMPG


000328: 10,2515           55154                           TS       PHASE1     -2
000329:
000330: 10,2516           10066        BELOW1             CCS      TEMPSW2                               #  IS IT A PHASCHNG OR A 2PHSCHNG
000331: 10,2517           12533                           TCF      BELOW2                                #  IT:S A PHASCHNG
000332:
000333: 10,2520           12521                           TCF      +1                                    #  IT:S A 2PHSCHNG
000334: 10,2521           40072                           CS       TEMPP2
000335: 10,2522           22072                           LXCH     TEMPP2
000336: 10,2523           50071                           NDX      TEMPG2
000337: 10,2524           53154                           DXCH     -PHASE1    -2
000338:
000339: 10,2525           10066                           CCS      TEMPSW2
000340: 10,2526           12527                           NOOP                                           #  CAN:T GET HERE
000341: 10,2527           12533                           TCF      BELOW2
000342:
000343: 10,2530           40025                           CS       TIME1
000344: 10,2531           50071                           NDX      TEMPG2
000345: 10,2532           55255                           TS       TBASE1     -2
000346:
000347: 10,2533           10065        BELOW2             CCS      TEMPSW                                #  SEE IF WE SHOULD SET TBASE OR LONGBASE
000348: 10,2534           12547                           TCF      BELOW3                                #  SET LONGBASE ONLY
000349: 10,2535           12552                           TCF      BELOW4                                #  SET NEITHER
000350:
000351: 10,2536           40025                           CS       TIME1                                 #  SET TBASE TO BEGIN WITH
000352: 10,2537           50061                           NDX      TEMPG
000353: 10,2540           55255                           TS       TBASE1     -2
000354:
000355: 10,2541           30065                           CA       TEMPSW                                #  SHALL WE NOW SET LONGBASE
000356: 10,2542           62545                           AD       BIT14COM
000357: 10,2543           10000                           CCS      A
000358: 10,2544           12545                           NOOP                                           #  ***** CANT GET HERE *****
000359: 10,2545           17777        BIT14COM           OCT      17777                                 #  ***** CANT GET HERE *****
000360: 10,2546           12552                           TCF      BELOW4                                #  NO WE NEED ONLY SET TBASE
000361:
000362: 10,2547           00006        BELOW3             EXTEND                                         #  SET LONGBASE
000363: 10,2550           30025                           DCA      TIME2
000364: 10,2551           53303                           DXCH     LONGBASE
000365:
000366: 10,2552           40062        BELOW4             CS       TEMPP                                 #  AND STORE THE FINAL PART OF THE PHASE
000367: 10,2553           50061                           NDX      TEMPG
000368: 10,2554           55153                           TS       -PHASE1    -2
000369:
000370: 10,2555           30002                           CA       Q
000371: 10,2556           22073                           LXCH     TEMPBBCN
000372: 10,2557           00003                           RELINT
000373: 10,2560           52006                           DTCB
000374: 10,2561           22073        CON2               LXCH     TEMPBBCN
000375:
000376: 10,2562           30062                           CA       TEMPP
000377: 10,2563           50061                           NDX      TEMPG


000379: 10,2564           55154                           TS       PHASE1     -2
000380:
000381: 10,2565           30070                           CA       TEMPPR
000382: 10,2566           50061                           NDX      TEMPG
000383: 10,2567           55256                           TS       PHSPRDT1   -2
000384:
000385: 10,2570           00006                           EXTEND
000386: 10,2571           30064                           DCA      TEMPNM
000387: 10,2572           50061                           NDX      TEMPG
000388: 10,2573           53435                           DXCH     PHSNAME1   -2
000389:
000390: 10,2574           12516                           TCF      BELOW1
000391:
000392:    4000                                           SETLOC   FFTAG1
000393:    4000                                           BANK
000394:
000395:    5464                                           COUNT*   $$/PHASE
000396:    5464           74755        CHECKB             MASK     BIT12                                 #  SINCE THIS IS OF TYPE B, THIS BIT SHOULD
000397:    5465           10000                           CCS      A                                     #  BE HERE IF WE ARE TO GET A NEW PRIORITY
000398:    5466           15451                           TCF      GETPRIO                               #  IT IS, SO GET NEW PRIORITY
000399:
000400:    5467           15430                           TCF      OLDPRIO                               #  IT ISN:T, USE THE OLD PRIORITY

End of include-file PHASE_TABLE_MAINTENANCE.agc.  Parent file is MAIN.agc


