
Source Code


000002:                                                                                                  ## Copyright:   Public domain.
000003:                                                                                                  ## Filename:    PINBALL_NOUN_TABLES.agc
000004:                                                                                                  ## Purpose:     Part of the source code for Artemis (i.e., Colossus 3),
000005:                                                                                                  ##              build 072.  This is for the Command Module's (CM)
000006:                                                                                                  ##              Apollo Guidance Computer (AGC), for
000007:                                                                                                  ##              Apollo 15-17.
000008:                                                                                                  ## Assembler:   yaYUL
000009:                                                                                                  ## Contact:     Jim Lawton <jim DOT lawton AT gmail DOT com>
000010:                                                                                                  ## Website:     www.ibiblio.org/apollo/index.html
000011:                                                                                                  ## Page Scans:  www.ibiblio.org/apollo/ScansForConversion/Artemis072/
000012:                                                                                                  ## Mod history: 2009-08-08 JL   Adapted from corresponding Comanche 055 file.
000013:                                                                                                  ##              2009-09-04 JL   Fix page number. VC/O should be an ECADR.
000014:                                                                                                  ##                              Fix some ECADRs that should have been OCTs.
000015:                                                                                                  ##              2009-09-26 JL   Move line comments to same column as all other modules.
000016:                                                                                                  ##              2010-01-31 JL   Fixed build errors.
000017:                                                                                                  ##              2010-02-20 RSB  Un-##'d this header.
000018:                                                                                                  ##              2017-01-28 RSB  WTIH -> WITH.
000019:                                                                                                  ##              2017-02-08 RSB  Proofed comment text by diff'ing vs Comanche 55.
000020:


000022:
000023:                                                                                                  #  THE FOLLOWING REFERS TO THE NOUN TABLES
000024:
000025:                                                                                                  #        COMPONENT CODE NUMBER   INTERPRETATION
000026:
000027:                                                                                                  #        00000                   1 COMPONENT
000028:                                                                                                  #        00001                   2 COMPONENT
000029:                                                                                                  #        00010                   3 COMPONENT
000030:                                                                                                  #        X1XXX                   BIT 4 = 1. DECIMAL ONLY
000031:                                                                                                  #        1XXXX                   BIT 5 = 1. NO LOAD
000032:
000033:                                                                                                  #        END OF COMPONENT CODE NUMBERS
000034:
000035:                                                                                                  #        SF ROUTINE CODE NUMBER  INTERPRETATION
000036:
000037:                                                                                                  #        00000                   OCTAL ONLY
000038:                                                                                                  #        00001                   STRAIGHT FRACTIONAL
000039:                                                                                                  #        00010                   CDU DEGREES (XXX.XX)
000040:                                                                                                  #        00011                   ARITHMETIC SF
000041:                                                                                                  #        00100                   ARITH DP1       OUT (MULT BY 2EXP14 AT END)     IN (STRAIGHT)
000042:                                                                                                  #        00101                   ARITH DP2       OUT (STRAIGHT)                  IN (SL 7 AT END)
000043:                                                                                                  #        00110                   Y OPTICS DEGREES (XX.XXX MAX 89.999)
000044:                                                                                                  #        00111                   ARITH DP3       OUT (SL 7 AT END)               IN ( STRAIGHT)
000045:                                                                                                  #        01000                   WHOLE HOURS IN R1, WHOLE MINUTES (MOD 60) IN R2,
000046:                                                                                                  #                                        SECONDS (MOD 60) 0XX.XX IN R3.  *** ALARMS IF USED WITH OCTAL
000047:                                                                                                  #        01001                   MINUTES (MOD 60) IN D1D2, D3 BLANK, SECONDS (MOD 60) IN D4D5
000048:                                                                                                  #                                        LIMITS TO 59B59 IF MAG EXCEEDS THIS VALUE.
000049:                                                                                                  #                                        ALARMS IF USED WITH OCTAL  ********  IN (ALARM)
000050:                                                                                                  #        01010                   ARITH DP4       OUT (STRAIGHT)                  IN (SL 3 AT END)
000051:                                                                                                  #        01011                   ARITH1 SF       OUT (MULT BY 2EXP14 AT END)     IN (STRAIGHT)
000052:                                                                                                  #        01100                   2 INTEGERS IN D1D2, D4D5, D3 BLANK.
000053:                                                                                                  #                                        ALARMS IF USED WITH OCTAL  ********  IN (ALARM)
000054:                                                                                                  #        01101                   DP STRAIGHT FRACTIONAL
000055:
000056:                                                                                                  #        END OF SF ROUTINE CODE NUMBERS
000057:
000058:                                                                                                  #        SF CONSTANT CODE NUMBER INTERPRETATION
000059:
000060:                                                                                                  #        00000                   WHOLE                           USE ARITH
000061:                                                                                                  #        00000                   DP TIME SEC (XXX.XX SEC)        USE ARITHDP1
000062:                                                                                                  #        00001                   SPARE
000063:                                                                                                  #        00010                   CDU DEGREES                     USE CDU DEGREES
000064:                                                                                                  #        00010                   Y OPTICS DEGREES                USE Y OPTICS DEGREES
000065:                                                                                                  #        00011                   DP DEGREES (90) XX.XXX DEG      USE ARITHDP3
000066:                                                                                                  #        00100                   DP DEGREES (360) XXX.XX DEG     USE ARITHDP4
000067:                                                                                                  #        00101                   DEGREES (180) XXX.XX DEG        USE ARITH
000068:                                                                                                  #        00110                   WEIGHT2 (XXXXX. LBS)            USE ARITH1
000069:                                                                                                  #        00111                   POSITION5 (XXX.XX NAUTICAL MILES)
000070:                                                                                                  #                                                                USE ARITHDP1
000071:                                                                                                  #        01000                   POSITION4 (XXXX.X NAUTICAL MILES)


000073:                                                                                                  #                                                                USE ARITHDP3
000074:                                                                                                  #        01001                   VELOCITY2 (XXXXX. FT/SEC)       USE ARITHDP4
000075:                                                                                                  #        01010                   VELOCITY3 (XXXX.X FT/SEC)       USE ARITHDP3
000076:                                                                                                  #        01011                   ELEVATION DEGREES (89.999 MAX)  USE ARITH
000077:                                                                                                  #        01100                   TRIM DEGREES (XXX.XX DEG)       USE ARITH
000078:                                                                                                  #        01101                   INERTIA (XXXXXBB. SLUG FT FT)   USE ARITH
000079:                                                                                                  #        01101                   THRUST MOMENT (XXXXXBB. FT LBS) USE ARITH
000080:                                                                                                  #        01110                   VELOCITY/2VS (XXXXX. FT/SEC)    USE ARITHDP4
000081:                                                                                                  #        01111                   POSITION6 (XXXX.X NAUT MI)      USE ARITHDP3
000082:                                                                                                  #        10000                   DRAG ACCELERATION (XXX.XX G)    USE ARITHDP2
000083:                                                                                                  #        10001                   POSITION8 (XXXX.X NAUT MI)      USE ARITHDP3
000084:                                                                                                  #        10010                   POSITION9 (XXXXX. FT)           USE ARITHDP3
000085:                                                                                                  #        10011                   VELOCITY4 (XXXX.X FT/SEC)       USE ARITHDP2
000086:
000087:                                                                                                  #        END OF SF CONSTANT CODE NUMBERS
000088:
000089:                                                                                                  #  FOR GREATER THAN SINGLE PRECISION SCALES, PUT ADDRESS OF MAJOR PART INTO
000090:                                                                                                  #  NOUN TABLES.
000091:
000092:                                                                                                  #  OCTAL LOADS PLACE +0 INTO MAJOR PART, DATA INTO MINOR PART.
000093:                                                                                                  #  OCTAL DISPLAYS SHOW MINOR PART ONLY.
000094:                                                                                                  #  TO GET AT BOTH MAJOR AND MINOR PARTS (IN OCTAL), USE NOUN 01.
000095:
000096:                                                                                                  #  A NOUN MAY BE DECLARED :DECIMAL ONLY: BY MAKING BIT4=1 OF ITS COMPONENT
000097:                                                                                                  #  CODE NUMBER. IF THIS NOUN IS USED WITH ANY OCTAL DISPLAY VERB, OR IF
000098:                                                                                                  #  DATA IS LOADED IN OCTAL, IT ALARMS.
000099:
000100:                                                                                                  #  IN LOADING AN :HOURS, MINUTES, SECONDS: NOUN, ALL 3 WORDS MUST BE
000101:                                                                                                  #  LOADED, OR ALARM.
000102:
000103:                                                                                                  #  ALARM IF AN ATTEMPT IS MADE TO LOAD :SPLIT MINUTES/SECONDS: (MMBSS).
000104:                                                                                                  #  THIS IS USED FOR DISPLAY ONLY.
000105:


000107:                                                                                                  #  THE FOLLOWING ROUTINES ARE FOR READING THE NOUN TABLES AND THE SF TABLES
000108:                                                                                                  #  (WHICH ARE IN A SEPARATE BANK FROM THE REST OF PINBALL). THESE READING
000109:                                                                                                  #  ROUTINES ARE IN THE SAME BANK AS THE TABLES. THEY ARE CALLED BY DXCH Z.
000110:
000111:                                                                                                  #  LODNNTAB LOADS NNADTEM WITH THE NNADTAB ENTRY, NNTYPTEM WITH THE
000112:                                                                                                  #  NNTYPTAB ENTRY. IF THE NOUN IS MIXED, IDAD1TEM IS LOADED WITH THE FIRST
000113:                                                                                                  #  IDADDTAB ENTRY, IDAD2TEM THE SECOND IDADDTAB ENTRY, IDAD3TEM THE THIRD
000114:                                                                                                  #  IDADDTAB ENTRY, RUTMXTEM WITH THE RUTMXTAB ENTRY. MIXBR IS SET FOR
000115:                                                                                                  #  MIXED OR NORMAL NOUN.
000116:
000117: 42,2000                                           SETLOC   PINBALL3
000118: 42,2000                                           BANK
000119:
000120: 42,2056                                           COUNT*   $$/NOUNS
000121: 42,2056           52152        LODNNTAB           DXCH     IDAD2TEM                              #  SAVE RETURN INFO IN IDAD2TEM, IDAD3TEM.
000122: 42,2057           51205                           INDEX    NOUNREG
000123: 42,2060           32127                           CAF      NNADTAB
000124: 42,2061           54146                           TS       NNADTEM
000125: 42,2062           51205                           INDEX    NOUNREG
000126: 42,2063           32273                           CAF      NNTYPTAB
000127: 42,2064           54147                           TS       NNTYPTEM
000128: 42,2065           41205                           CS       NOUNREG
000129: 42,2066           65004                           AD       MIXCON
000130: 42,2067           00006                           EXTEND
000131: 42,2070           62074                           BZMF     LODMIXNN                              #  NOUN NUMBER G/E FIRST MIXED NOUN
000132: 42,2071           34770                           CAF      ONE                                   #  NOUN NUMBER L/ FIRST MIXED NOUN
000133: 42,2072           54140                           TS       MIXBR                                 #  NORMAL.  +1 INTO MIXBR.
000134: 42,2073           02112                           TC       LODNLV
000135: 42,2074           34767        LODMIXNN           CAF      TWO                                   #  MIXED.  +2 INTO MIXBR.
000136: 42,2075           54140                           TS       MIXBR
000137: 42,2076           51205                           INDEX    NOUNREG
000138: 42,2077           32773                           CAF      RUTMXTAB   -40D                       #  FIRST MIXED NOUN = 40.
000139: 42,2100           54153                           TS       RUTMXTEM
000140: 42,2101           35041                           CAF      LOW10
000141: 42,2102           70146                           MASK     NNADTEM
000142: 42,2103           54002                           TS       Q                                     #  TEMP
000143: 42,2104           50000                           INDEX    A
000144: 42,2105           32557                           CAF      IDADDTAB
000145: 42,2106           54150                           TS       IDAD1TEM                              #  LOAD IDAD1TEM WITH FIRST IDADDTAB ENTRY
000146: 42,2107           00006                           EXTEND
000147: 42,2110           50002                           INDEX    Q                                     #  LOAD IDAD2TEM WITH 2ND IDADDTAB ENTRY
000148: 42,2111           32561                           DCA      IDADDTAB   +1                         #  LOAD IDAD3TEM WITH 3RD IDADDTAB ENTRY.
000149: 42,2112           52152        LODNLV             DXCH     IDAD2TEM                              #  PUT RETURN INFO INTO A, L.
000150: 42,2113           52006                           DXCH     Z
000151:
000152: 42,2114     5004               MIXCON             =        OCT50                                 #  FIRST MIXED NOUN =40.  (DEC 40)
000153:
000154:                                                                                                  #  GTSFOUT LOADS SFTEMP1, SFTEMP2 WITH THE DP SFOUTAB ENTRIES.
000155: 42,2114           52124        GTSFOUT            DXCH     SFTEMP1                               #  2X(SFCONUM) ARRIVES IN SFTEMP1.


000157: 42,2115           00006                           EXTEND
000158: 42,2116           50000                           INDEX    A
000159: 42,2117           32510                           DCA      SFOUTAB
000160: 42,2120           52124        SFCOM              DXCH     SFTEMP1
000161: 42,2121           52006                           DXCH     Z
000162:
000163:                                                                                                  #  GTSFIN LOADS SFTEMP1, SFTEMP2 WITH THE DP SFINTAB ENTRIES.
000164:
000165: 42,2122           52124        GTSFIN             DXCH     SFTEMP1                               #  2X(SFCONUM) ARRIVES IN SFTEMP1.
000166: 42,2123           00006                           EXTEND
000167: 42,2124           50000                           INDEX    A
000168: 42,2125           32440                           DCA      SFINTAB
000169: 42,2126           12120                           TCF      SFCOM
000170:
000171:                                                                                                  #  NN    NORMAL NOUNS
000172:
000173: 42,2127           00000        NNADTAB            OCT      00000                                 #  00    NOT IN USE
000174: 42,2130           40000                           OCT      40000                                 #  01    SPECIFY MACHINE ADDRESS (FRACTIONAL)
000175: 42,2131           40000                           OCT      40000                                 #  02    SPECIFY MACHINE ADDRESS (WHOLE)
000176: 42,2132           40000                           OCT      40000                                 #  03    SPECIFY MACHINE ADDRESS (DEGREES)
000177: 42,2133           00000                           OCT      0                                     #  04    SPARE
000178: 42,2134           01250                           ECADR    DSPTEM1                               #  05    ANGULAR ERROR/DIFFERENCE
000179: 42,2135           00775                           ECADR    OPTION1                               #  06    OPTION CODE
000180: 42,2136           01206                           ECADR    XREG                                  #  07    ECADR OF WORD TO BE MODIFIED
000181:                                                                                                  #        ONES FOR BITS TO BE MODIFIED
000182:                                                                                                  #        1 TO SET OR 0 TO RESET SELECTED BITS
000183: 42,2137           01363                           ECADR    ALMCADR                               #  08    ALARM DATA
000184: 42,2140           00375                           ECADR    FAILREG                               #  09    ALARM CODES
000185: 42,2141           77776                           OCT      77776                                 #  10    CHANNEL TO BE SPECIFIED
000186: 42,2142           02462                           ECADR    TCSI                                  #  11    TIG OF CSI (HRS,MIN,SEC)
000187: 42,2143           01255                           ECADR    OPTIONX                               #  12    OPTION CODE
000188:                                                                                                  #        (USED BY EXTENDED VERBS ONLY)
000189: 42,2144           02460                           ECADR    TCDH                                  #  13    TIG OF CDH (HRS,MIN,SEC)
000190: 42,2145           02355                           ECADR    VC/O                                  #  14    INERTIAL VEL MAG AT TLI CUTOFF
000191: 42,2146           77777                           OCT      77777                                 #  15    INCREMENT MACHINE ADDRESS
000192: 42,2147           01254                           ECADR    DSPTEMX                               #  16    TIME OF EVENT (HRS,MIN,SEC)
000193: 42,2150           01013                           ECADR    CPHIX                                 #  17    ASTRONAUT TOTAL ATTITUDE
000194: 42,2151           01307                           ECADR    THETAD                                #  18    AUTO MANEUVER BALL ANGLES
000195: 42,2152           00000                           OCT      0                                     #  19    SPARE
000196: 42,2153           00032                           ECADR    CDUX                                  #  20    ICDU ANGLES
000197: 42,2154           00037                           ECADR    PIPAX                                 #  21    PIPAS
000198: 42,2155           01307                           ECADR    THETAD                                #  22    NEW ICDU ANGLES
000199: 42,2156           00000                           OCT      00000                                 #  23    SPARE
000200: 42,2157           01254                           ECADR    DSPTEM2    +1                         #  24    DELTA TIME FOR AGC CLOCK (HRS,MIN,SEC)
000201: 42,2160           01250                           ECADR    DSPTEM1                               #  25    CHECKLIST
000202:                                                                                                  #           (USED WITH PLEASE PERFORM ONLY)
000203: 42,2161           01016                           ECADR    N26/PRI                               #  26    PRIO/DELAY, ADRES, BBCON
000204: 42,2162           01362                           ECADR    SMODE                                 #  27    SELF TEST ON/OFF SWITCH
000205: 42,2163           00000                           OCT      0                                     #  28    SPARE


000207: 42,2164           01250                           ECADR    DSPTEM1                               #  29    XSM LAUNCH AZIMUTH
000208: 42,2165           01250                           ECADR    DSPTEM1                               #  30    TARGET CODES
000209: 42,2166           03735                           ECADR    AGEOFW                                #  31    TIME OF W-MATRIX INIT (P20)
000210: 42,2167           02336                           ECADR    -TPER                                 #  32    TIME TO PERIGEE (HRS,MIN,SEC)
000211: 42,2170           03412                           ECADR    TIG                                   #  33    TIME OF IGNITION (HRS,MIN(SEC)
000212: 42,2171           01250                           ECADR    DSPTEM1                               #  34    TIME OF EVENT (HRS,MIN,SEC)
000213: 42,2172           03660                           ECADR    TTOGO                                 #  35    TIME TO GO TO EVENT (HRS,MIN,SEC)
000214: 42,2173           00024                           ECADR    TIME2                                 #  36    TIME OF AGC CLOCK (HRS,MIN,SEC)
000215: 42,2174           03662                           ECADR    TTPI                                  #  37    TIG OF TPI (HRS,MIN,SEC)
000216: 42,2175           01516                           ECADR    TET                                   #  38    TIME OF STATE VECTOR
000217: 42,2176           02640                           ECADR    T3TOT4                                #  39    DELTA TIME TO TRANSFER (HRS,MIN,SEC)
000218:
000219:                                                                                                  #  END OF NNADTAB FOR NORMAL NOUNS
000220:
000221:                                                                                                  #  NN    MIXED NOUNS
000222:
000223: 42,2177           64000                           OCT      64000                                 #  40    TIME TO IGNITION/CUTOFF
000224:                                                                                                  #        VG
000225:                                                                                                  #        DELTA V (ACCUMULATED)
000226: 42,2200           02003                           OCT      02003                                 #  41    TARGET  AZIMUTH
000227:                                                                                                  #                ELEVATION
000228: 42,2201           24006                           OCT      24006                                 #  42    APOGEE
000229:                                                                                                  #        PERIGEE
000230:                                                                                                  #        DELTA V (REQUIRED)
000231: 42,2202           24011                           OCT      24011                                 #  43    LATITUDE
000232:                                                                                                  #        LONGITUDE
000233:                                                                                                  #        ALTITUDE
000234: 42,2203           64014                           OCT      64014                                 #  44    APOGEE
000235:                                                                                                  #        PERIGEE
000236:                                                                                                  #        TFF
000237: 42,2204           64017                           OCT      64017                                 #  45    MARKS (VHF - OPTICS)
000238:                                                                                                  #        TTI OF NEXT BURN
000239:                                                                                                  #        MGA
000240: 42,2205           02022                           OCT      02022                                 #  46    AUTOPILOT CONFIGURATION
000241: 42,2206           22025                           OCT      22025                                 #  47    THIS VEHICLE WEIGHT
000242:                                                                                                  #        OTHER VEHICLE WEIGHT
000243: 42,2207           22030                           OCT      22030                                 #  48    PITCH TRIM
000244:                                                                                                  #        YAW TRIM
000245: 42,2210           24033                           OCT      24033                                 #  49    DELTA R
000246:                                                                                                  #        DELTA V
000247:                                                                                                  #        VHF OR OPTICS CODE
000248: 42,2211           64036                           OCT      64036                                 #  50    SPLASH ERROR
000249:                                                                                                  #        PERIGEE
000250:                                                                                                  #        TFF
000251: 42,2212           22041                           OCT      22041                                 #  51    S-BAND ANTENNA  PITCH
000252:                                                                                                  #                        YAW
000253: 42,2213           00044                           OCT      00044                                 #  52    CENTRAL ANGLE OF ACTIVE VEHICLE
000254: 42,2214           24047                           OCT      24047                                 #  53    RANGE
000255:                                                                                                  #        RANGE RATE
000256:                                                                                                  #        PHI
000257: 42,2215           24052                           OCT      24052                                 #  54    RANGE


000259:                                                                                                  #        RANGE RATE
000260:                                                                                                  #        THETA
000261: 42,2216           24055                           OCT      24055                                 #  55    PERIGEE CODE
000262:                                                                                                  #        ELEVATION ANGLE
000263:                                                                                                  #        CENTRAL ANGLE
000264: 42,2217           22060                           OCT      22060                                 #  56    REENTRY ANGLE,
000265:                                                                                                  #        DELTA V
000266: 42,2220           00000                           OCT      0                                     #  57    SPARE
000267: 42,2221           24066                           OCT      24066                                 #  58    PERIGEE ALT
000268:                                                                                                  #        DELTA V TPI
000269:                                                                                                  #        DELTA V TPF
000270: 42,2222           24071                           OCT      24071                                 #  59    DELTA VELOCITY LOS
000271: 42,2223           24074                           OCT      24074                                 #  60    GMAX
000272:                                                                                                  #        VPRED
000273:                                                                                                  #        GAMMA EI
000274: 42,2224           24077                           OCT      24077                                 #  61    IMPACT LATITUDE
000275:                                                                                                  #        IMPACT LONGITUDE
000276:                                                                                                  #        HEADS UP/DOWN
000277: 42,2225           24102                           OCT      24102                                 #  62    INERTIAL VEL MAG (VI)
000278:                                                                                                  #        ALT RATE CHANGE (HDOT)
000279:                                                                                                  #        ALT ABOVE PAD RADIUS (H)
000280: 42,2226           64105                           OCT      64105                                 #  63    RANGE  297,431 TO SPLASH (RTGO)
000281:                                                                                                  #        PREDICTED INERT VEL (VIO)
000282:                                                                                                  #        TIME TO GO TO 297,431 (TTE)
000283: 42,2227           24110                           OCT      24110                                 #  64    DRAG ACCELERATION
000284:                                                                                                  #        INERTIAL VELOCITY (VI)
000285:                                                                                                  #        RANGE TO SPLASH
000286: 42,2230           24113                           OCT      24113                                 #  65    SAMPLED AGC TIME (HRS,MIN,SEC)
000287:                                                                                                  #        (FETCHED IN INTERRUPT)
000288: 42,2231           24116                           OCT      24116                                 #  66    COMMAND BANK ANGLE (BETA)
000289:                                                                                                  #        CROSS RANGE ERROR
000290:                                                                                                  #        DOWN RANGE ERROR
000291: 42,2232           24121                           OCT      24121                                 #  67    RANGE TO TARGET
000292:                                                                                                  #        PRESENT LATITUDE
000293:                                                                                                  #        PRESENT LONGITUDE
000294: 42,2233           24124                           OCT      24124                                 #  68    COMMAND BANK ANGLE (BETA)
000295:                                                                                                  #        INERTIAL VELOCITY (VI)
000296:                                                                                                  #        ALT RATE CHANGE (RDOT)
000297: 42,2234           24127                           OCT      24127                                 #  69    BETA
000298:                                                                                                  #        DL
000299:                                                                                                  #        VL
000300: 42,2235           04132                           OCT      04132                                 #  70    STAR CODE
000301:                                                                                                  #        LANDMARK DATA
000302:                                                                                                  #        HORIZON DATA
000303: 42,2236           04135                           OCT      04135                                 #  71    STAR CODE
000304:                                                                                                  #        LANDMARK
000305:                                                                                                  #        HORIZON
000306: 42,2237           00000                           OCT      0                                     #  72    SPARE
000307: 42,2240           04143                           OCT      04143                                 #  73    ALTITUDE
000308:                                                                                                  #        VELOCITY


000310:                                                                                                  #        FLIGHT PATH ANGLE
000311: 42,2241           04146                           OCT      04146                                 #  74    COMMAND BANK ANGLE (BETA)
000312:                                                                                                  #        INERTIAL VELOCITY (VI)
000313:                                                                                                  #        DRAG ACCELERATION
000314: 42,2242           64151                           OCT      64151                                 #  75    DELTA ALTITUDE CDH
000315:                                                                                                  #        DELTA TIME (CDH-CSI OR TPI-CDH)
000316:                                                                                                  #        DELTA TIME (TPI-CDH OR TPI-NOMTPI)
000317: 42,2243           00000                           OCT      0                                     #  76    SPARE
000318: 42,2244           00000                           OCT      0                                     #  77    SPARE
000319: 42,2245           24162                           OCT      24162                                 #  78    YAW ANGLE FOR P20
000320:                                                                                                  #  78    PITCH ANGLE FOR P20
000321:                                                                                                  #  78    AZIMUTH CONSTRAINT FOR P20
000322: 42,2246           22165                           OCT      22165                                 #  79    ORBRATE OR PTC RATE
000323:                                                                                                  #        P20 ROTATION DEADBAND
000324: 42,2247           64170                           OCT      64170                                 #  80    TIME TO IGNITION/CUTOFF
000325:                                                                                                  #        VG
000326:                                                                                                  #        DELTA V (ACCUMULATED)
000327: 42,2250           24173                           OCT      24173                                 #  81    DELTA V (LV)
000328: 42,2251           24176                           OCT      24176                                 #  82    DELTA V (LV)
000329: 42,2252           24201                           OCT      24201                                 #  83    DELTA V (BODY)
000330: 42,2253           24204                           OCT      24204                                 #  84    DELTA V (OTHER VEHICLE)
000331: 42,2254           24207                           OCT      24207                                 #  85    VG (BODY)
000332: 42,2255           24212                           OCT      24212                                 #  86    DELTA V (LV)
000333: 42,2256           02215                           OCT      02215                                 #  87    MARK DATA       SHAFT
000334:                                                                                                  #                        TRUNION
000335: 42,2257           24220                           OCT      24220                                 #  88    HALF UNIT SUN OR PLANET VECTOR
000336: 42,2260           24223                           OCT      24223                                 #  89    LANDMARK        LATITUDE
000337:                                                                                                  #                        LONGITUDE/2
000338:                                                                                                  #                        ALTITUDE
000339: 42,2261           24226                           OCT      24226                                 #  90    Y       (ACT VEH)
000340:                                                                                                  #        YDOT    (ACT VEH)
000341:                                                                                                  #        YDOT    (PAS VEH)
000342: 42,2262           02231                           OCT      02231                                 #  91    OCDU ANGLES     SHAFT
000343:                                                                                                  #                        TRUNION
000344: 42,2263           02234                           OCT      02234                                 #  92    NEW OPTICS ANGLES  SHAFT
000345:                                                                                                  #                           TRUNION
000346: 42,2264           04237                           OCT      04237                                 #  93    DELTA GYRO ANGLES
000347: 42,2265           02242                           OCT      02242                                 #  94    NEW OPTICS ANGLES  SHAFT
000348:                                                                                                  #                           TRUNNION
000349: 42,2266           04245                           OCT      04245                                 #  95    TIME FROM IGNITION/CUTOFF
000350:                                                                                                  #        VG
000351:                                                                                                  #        INERTIAL VEL MAG
000352: 42,2267           24250                           OCT      24250                                 #  96    Y       (CM)
000353:                                                                                                  #        YDOT    (CM)
000354:                                                                                                  #        YDOT    (LM)
000355: 42,2270           04253                           OCT      04253                                 #  97    SYSTEM TEST INPUTS
000356: 42,2271           04256                           OCT      04256                                 #  98    SYSTEM TEST RESULTS
000357: 42,2272           24261                           OCT      24261                                 #  99    RMS IN POSITION
000358:                                                                                                  #        RMS IN VELOCITY
000359:                                                                                                  #        RMS OPTION


000361:                                                                                                  #  END OF NNADTAB FOR MIXED NOUNS
000362:
000363:                                                                                                  #  NN            NORMAL NOUNS
000364: 42,2273           00000        NNTYPTAB           OCT      00000                                 #  00            NOT IN USE
000365: 42,2274           04040                           OCT      04040                                 #  01    3COMP   FRACTIONAL
000366: 42,2275           04140                           OCT      04140                                 #  02    3COMP   WHOLE
000367: 42,2276           04102                           OCT      04102                                 #  03    3COMP   CDU DEGREES
000368: 42,2277           00000                           OCT      0                                     #  04            SPARE
000369: 42,2300           00504                           OCT      00504                                 #  05    1COMP   DPDEG(360)
000370: 42,2301           02000                           OCT      02000                                 #  06    2COMP   OCTAL ONLY
000371: 42,2302           04000                           OCT      04000                                 #  07    3COMP   OCTAL ONLY
000372: 42,2303           04000                           OCT      04000                                 #  08    3COMP   OCTAL ONLY
000373: 42,2304           04000                           OCT      04000                                 #  09    3COMP   OCTAL ONLY
000374: 42,2305           00000                           OCT      00000                                 #  10    1COMP   OCTAL ONLY
000375: 42,2306           24400                           OCT      24400                                 #  11    3COMP   HMS (DEC ONLY)
000376: 42,2307           02000                           OCT      02000                                 #  12    2COMP   OCTAL ONLY
000377: 42,2310           24400                           OCT      24400                                 #  13    3COMP   HMS (DEC ONLY)
000378: 42,2311           00511                           OCT      00511                                 #  14    1COMP   VEL2
000379: 42,2312           00000                           OCT      00000                                 #  15    1COMP   OCTAL ONLY
000380: 42,2313           24400                           OCT      24400                                 #  16    3COMP   HMS (DEC ONLY)
000381: 42,2314           04102                           OCT      04102                                 #  17    3COMP   CDU DEG
000382: 42,2315           04102                           OCT      04102                                 #  18    3COMP   CDU DEG
000383: 42,2316           00000                           OCT      0                                     #  19            SPARE
000384: 42,2317           04102                           OCT      04102                                 #  20    3COMP   CDU DEGREES
000385: 42,2320           04140                           OCT      04140                                 #  21    3COMP   WHOLE
000386: 42,2321           04102                           OCT      04102                                 #  22    3COMP   CDU DEGREES
000387: 42,2322           00000                           OCT      00000                                 #  23            SPARE
000388: 42,2323           24400                           OCT      24400                                 #  24    3COMP   HMS (DEC ONLY)
000389: 42,2324           04140                           OCT      04140                                 #  25    3COMP   WHOLE
000390: 42,2325           04000                           OCT      04000                                 #  26    3COMP   OCTAL ONLY
000391: 42,2326           00140                           OCT      00140                                 #  27    1COMP   WHOLE
000392: 42,2327           00000                           OCT      0                                     #  28            SPARE
000393: 42,2330           20102                           OCT      20102                                 #  29    1COMP   CDU DEG (DEC ONLY)
000394: 42,2331           04140                           OCT      04140                                 #  30    3COMP   WHOLE
000395: 42,2332           24400                           OCT      24400                                 #  31    3COMP   HMS (DEC ONLY)
000396: 42,2333           24400                           OCT      24400                                 #  32    3COMP   HMS (DEC ONLY)
000397: 42,2334           24400                           OCT      24400                                 #  33    3COMP   HMS (DEC ONLY)
000398: 42,2335           24400                           OCT      24400                                 #  34    3COMP   HMS (DEC ONLY)
000399: 42,2336           24400                           OCT      24400                                 #  35    3COMP   HMS (DEC ONLY)
000400: 42,2337           24400                           OCT      24400                                 #  36    3COMP   HMS (DEC ONLY)
000401: 42,2340           24400                           OCT      24400                                 #  37    3COMP   HMS (DEC ONLY)
000402: 42,2341           24400                           OCT      24400                                 #  38    3COMP   HMS (DEC ONLY)
000403: 42,2342           24400                           OCT      24400                                 #  39    3COMP   HMS (DEC ONLY)
000404:
000405:                                                                                                  #  END OF NNTYPTAB FOR NORMAL NOUNS
000406:
000407:                                                                                                  #  NN            MIXED NOUNS
000408:
000409: 42,2343           24500                           OCT      24500                                 #  40    3COMP   MIN/SEC, VEL3, VEL3
000410:                                                                                                  #                (NO LOAD, DEC ONLY)


000412: 42,2344           00542                           OCT      00542                                 #  41    2COMP   CDU DEG, ELEV DEG
000413: 42,2345           24410                           OCT      24410                                 #  42    3COMP   POS4, POS4, VEL3
000414:                                                                                                  #                (DEC ONLY)
000415: 42,2346           20204                           OCT      20204                                 #  43    3COMP   DPDEG(360), DPDEG(360), POS4
000416:                                                                                                  #                (DEC ONLY)
000417: 42,2347           00410                           OCT      00410                                 #  44    3COMP   POS4, POS4, MIN/SEC
000418:                                                                                                  #                (NO LOAD, DEC ONLY)
000419: 42,2350           10000                           OCT      10000                                 #  45    3COMP   2INT, MIN/SEC, DPDEG(360)
000420:                                                                                                  #                (NO LOAD, DEC ONLY)
000421: 42,2351           00000                           OCT      00000                                 #  46    2COMP   OCTAL ONLY FOR EACH
000422: 42,2352           00306                           OCT      00306                                 #  47    2COMP   WEIGHT2 FOR EACH
000423:                                                                                                  #                (DEC ONLY)
000424: 42,2353           00614                           OCT      00614                                 #  48    2COMP   TRIM DEG, TRIM DEG
000425:                                                                                                  #                (DEC ONLY)
000426: 42,2354           00507                           OCT      00507                                 #  49    3COMP   POS4, VEL3, WHOLE
000427:                                                                                                  #                (DEC ONLY)
000428: 42,2355           00417                           OCT      00417                                 #  50    3COMP   POS6, POS4, MIN/SEC
000429:                                                                                                  #                (NO LOAD, DEC ONLY)
000430: 42,2356           00204                           OCT      00204                                 #  51    2COMP   DPDEG(360), DPDEG(360)
000431:                                                                                                  #                (DEC ONLY)
000432: 42,2357           00004                           OCT      00004                                 #  52    1COMP   DPDEG(360)
000433: 42,2360           10507                           OCT      10507                                 #  53    3COMP   POS5, VEL3, DPDEG(360)
000434:                                                                                                  #                (DEC ONLY)
000435: 42,2361           10507                           OCT      10507                                 #  54    3COMP   POS5, VEL3, DPDEG(360)
000436:                                                                                                  #                (DEC ONLY)
000437: 42,2362           10200                           OCT      10200                                 #  55    3COMP   WHOLE, DPDEG(360), DPDEG(360)
000438:                                                                                                  #                (DEC ONLY)
000439: 42,2363           00444                           OCT      00444                                 #  56    2COMP   DPDEG(360), VEL2
000440:                                                                                                  #                (DEC ONLY)
000441: 42,2364           00000                           OCT      0                                     #  57            SPARE
000442: 42,2365           24510                           OCT      24510                                 #  58    3COMP   POS4, VEL3, VEL3
000443:                                                                                                  #                (DEC ONLY)
000444: 42,2366           24512                           OCT      24512                                 #  59    3COMP   VEL3 FOR EACH
000445:                                                                                                  #                (DEC ONLY)
000446: 42,2367           10440                           OCT      10440                                 #  60    3COMP   WHOLE, VEL2, DPDEG(360)
000447:                                                                                                  #                (DEC ONLY)
000448: 42,2370           00204                           OCT      00204                                 #  61    3COMP   DPDEG(360), DPDEG(360), WHOLE
000449:                                                                                                  #                (DEC ONLY)
000450: 42,2371           20451                           OCT      20451                                 #  62    3COMP   VEL2, VEL2, POS4
000451:                                                                                                  #                (DEC ONLY)
000452: 42,2372           00457                           OCT      00457                                 #  63    3COMP   POS6, VEL2, MIN/SEC
000453:                                                                                                  #                (NO LOAD, DEC ONLY)
000454: 42,2373           36460                           OCT      36460                                 #  64    3COMP   DRAG ACCEL, VEL2, POS6
000455:                                                                                                  #                (DEC ONLY)
000456: 42,2374           00000                           OCT      00000                                 #  65    3COMP   HMS (DEC ONLY)
000457: 42,2375           37044                           OCT      37044                                 #  66    3COMP   DPDEG(360), POS8, POS6
000458:                                                                                                  #                (DEC ONLY)
000459: 42,2376           10217                           OCT      10217                                 #  67    3COMP   POS6, DPDEG(360), DPDEG(360)
000460:                                                                                                  #                (DEC ONLY)
000461: 42,2377           34444                           OCT      34444                                 #  68    3COMP   DPDEG(360), VEL2, VEL/2VS


000463:                                                                                                  #                (DEC ONLY)
000464: 42,2400           35004                           OCT      35004                                 #  69    3COMP   DPDEG(360), DRAG ACCEL, VEL/2VS
000465:                                                                                                  #                (DEC ONLY)
000466: 42,2401           00000                           OCT      00000                                 #  70    3COMP   OCTAL ONLY FOR EACH
000467: 42,2402           00000                           OCT      0                                     #  71    3COMP   OCTAL ONLY FOR EACH
000468: 42,2403           00000                           OCT      0                                     #  72            SPARE
000469: 42,2404           10450                           OCT      10450                                 #  73    3COMP   POS4, VEL2, DPDEG(360)
000470: 42,2405           40444                           OCT      40444                                 #  74    3COMP   DPDEG(360), VEL2, DRAG ACCEL
000471: 42,2406           00010                           OCT      00010                                 #  75    3COMP   POS4, MIN/SEC, MIN/SEC
000472:                                                                                                  #                (NO LOAD, DEC ONLY)
000473: 42,2407           00000                           OCT      0                                     #  76    SPARE
000474: 42,2410           00000                           OCT      0                                     #  77    SPARE
000475: 42,2411           10204                           OCT      10204                                 #  78    3COMP   DPDEG(360) FOR EACH
000476: 42,2412           00113                           OCT      00113                                 #  79    2COMP   ELEVDEG, CDUDEG
000477: 42,2413           22440                           OCT      22440                                 #  80    3COMP   MIN/SEC, VEL2, VEL2
000478:                                                                                                  #                (NO LOAD, DEC ONLY)
000479: 42,2414           24512                           OCT      24512                                 #  81    3COMP   VEL3 FOR EACH
000480:                                                                                                  #                (DEC ONLY)
000481: 42,2415           24512                           OCT      24512                                 #  82    3COMP   VEL3 FOR EACH
000482:                                                                                                  #                (DEC ONLY)
000483: 42,2416           24512                           OCT      24512                                 #  83    3COMP   VEL3 FOR EACH
000484:                                                                                                  #                (DEC ONLY)
000485: 42,2417           24512                           OCT      24512                                 #  84    3COMP   VEL3 FOR EACH
000486:                                                                                                  #                (DEC ONLY)
000487: 42,2420           24512                           OCT      24512                                 #  85    3COMP   VEL3 FOR EACH
000488:                                                                                                  #                (DEC ONLY)
000489: 42,2421           22451                           OCT      22451                                 #  86    3COMP   VEL2 FOR EACH
000490:                                                                                                  #                (DEC ONLY)
000491: 42,2422           00102                           OCT      00102                                 #  87    2COMP   CDU DEG, Y OPTICS DEG
000492: 42,2423           00000                           OCT      0                                     #  88    3COMP   FRAC FOR EACH
000493:                                                                                                  #                (DEC ONLY)
000494: 42,2424           16143                           OCT      16143                                 #  89    3COMP   DPDEG(90), DPDEG(90), POS5
000495:                                                                                                  #                (DEC ONLY)
000496: 42,2425           24507                           OCT      24507                                 #  90    3COMP   POS5, VEL3, VEL3
000497:                                                                                                  #                (DEC ONLY)
000498: 42,2426           00102                           OCT      00102                                 #  91    2COMP   CDUDEG, Y OPTICS DEG
000499: 42,2427           00102                           OCT      00102                                 #  92    2COMP   CDUDEG, Y OPTICS DEG
000500: 42,2430           06143                           OCT      06143                                 #  93    3COMP   DPDEG(90) FOR EACH
000501: 42,2431           00102                           OCT      00102                                 #  94    2COMP   CDUDEG, Y OPTICS DEG
000502: 42,2432           22440                           OCT      22440                                 #  95    3COMP   MIN/SEC, VEL2, VEL2
000503: 42,2433           24507                           OCT      24507                                 #  96            POS5, VEL3, VEL3
000504:                                                                                                  #                (DEC ONLY)
000505: 42,2434           00000                           OCT      00000                                 #  97    3COMP   WHOLE FOR EACH
000506: 42,2435           00000                           OCT      00000                                 #  98    3COMP   WHOLE, FRAC, WHOLE
000507: 42,2436           01162                           OCT      01162                                 #  99    3COMP   POS9, VEL4, WHOLE
000508:                                                                                                  #                (DEC ONLY)
000509:
000510:                                                                                                  #  END OF NNTYPTAB FOR MIXED NOUNS
000511:
000512: 42,2437           00006        SFINTAB            OCT      00006                                 #  WHOLE, DP TIME (SEC)


000514: 42,2440           03240                           OCT      03240
000515: 42,2441           00000                           OCT      00000                                 #  SPARE
000516: 42,2442           00000                           OCT      00000
000517: 42,2443           00000                           OCT      00000                                 #  CDU DEGREES, Y OPTICS DEGREES
000518: 42,2444           00000                           OCT      00000                                 #        (SFCONS IN DEGINSF, OPTDEGIN)
000519: 42,2445           10707                           OCT      10707                                 #  DP DEGREES (90)
000520: 42,2446           03435                           OCT      03435                                 #        UPPED BY 1
000521: 42,2447           13070                           OCT      13070                                 #  DP DEGREES (360) (POINT BETWN BITS 11-12)
000522: 42,2450           34345                           OCT      34345                                 #        UPPED BY 1
000523: 42,2451           00005                           OCT      00005                                 #  DEGREES (180)
000524: 42,2452           21616                           OCT      21616
000525: 42,2453           26113                           OCT      26113                                 #  WEIGHT2
000526: 42,2454           31713                           OCT      31713
000527: 42,2455           00070                           OCT      00070                                 #  POSITION5
000528: 42,2456           20460                           OCT      20460
000529: 42,2457           01065                           OCT      01065                                 #  POSITION4
000530: 42,2460           05740                           OCT      05740
000531: 42,2461           11414                           OCT      11414                                 #  VELOCITY2     (POINT BETWN BITS 11-12)
000532: 42,2462           31463                           OCT      31463
000533: 42,2463           07475                           OCT      07475                                 #  VELOCITY3
000534: 42,2464           16051                           OCT      16051
000535: 42,2465           00001                           OCT      00001                                 #  ELEVATION DEGREES
000536: 42,2466           03434                           OCT      03434
000537: 42,2467           00002                           OCT      00002                                 #  TRIM DEGREES
000538: 42,2470           22245                           OCT      22245
000539: 42,2471           00014                           OCT      00014                                 #  INERTIA, THRUST MOMENT
000540: 42,2472           35607                           OCT      35607
000541: 42,2473           07606                           OCT      07606                                 #  VELOCITY/2VS
000542: 42,2474           06300                           OCT      06300
000543: 42,2475           16631                           OCT      16631                                 #  POSITION 6
000544: 42,2476           11307                           OCT      11307
000545: 42,2477           12000                           OCT      12000                                 #  DRAG ACCELERATION (POINT BETWN BITS 7-8)
000546: 42,2500           00000                           OCT      00000
000547: 42,2501           27176                           OCT      27176                                 #  POSITION 8
000548: 42,2502           14235                           OCT      14235
000549: 42,2503           01670 20000                     2DEC     30480      B-19                       #  POSITION 9
000550:
000551: 42,2505           07475 16051                     2DEC     30.48      B-7                        #  VELOCITY4
000552:
000553:                                                                                                  #  END OF SFINTAB
000554:
000555:
000556: 42,2507           05174        SFOUTAB            OCT      05174                                 #  WHOLE, DP TIME (SEC)
000557: 42,2510           13261                           OCT      13261
000558: 42,2511           00000                           OCT      00000                                 #  SPARE
000559: 42,2512           00000                           OCT      00000
000560: 42,2513           00000                           OCT      00000                                 #  CDU DEGREES, Y OPTICS DEGREES
000561: 42,2514           00000                           OCT      00000                                 #        (SFCONS IN DEGOUTSF, OPTDEGOUT)
000562: 42,2515           00714                           OCT      00714                                 #  DP DEGREES (90) (POINT BETWN BITS 7-8)
000563: 42,2516           31463                           OCT      31463


000565: 42,2517           13412                           OCT      13412                                 #  DP DEGREES (360)
000566: 42,2520           07534                           OCT      07534
000567: 42,2521           05605                           OCT      05605                                 #  DEGREES (180)
000568: 42,2522           03656                           OCT      03656
000569: 42,2523           00001                           OCT      00001                                 #  WEIGHT2
000570: 42,2524           16170                           OCT      16170
000571: 42,2525           00441                           OCT      00441                                 #  POSITION5
000572: 42,2526           34306                           OCT      34306
000573: 42,2527           07176                           OCT      07176                                 #  POSITION4
000574: 42,2530           21603                           OCT      21603
000575: 42,2531           15340                           OCT      15340                                 #  VELOCITY2
000576: 42,2532           15340                           OCT      15340
000577: 42,2533           01031                           OCT      01031                                 #  VELOCITY3     (POINT BETWN BITS 7-8)
000578: 42,2534           21032                           OCT      21032
000579: 42,2535           34631                           OCT      34631                                 #  ELEVATION DEGREES
000580: 42,2536           23146                           OCT      23146
000581: 42,2537           14340                           OCT      14340                                 #  TRIM DEGREES
000582: 42,2540           24145                           OCT      24145
000583: 42,2541           02363                           OCT      02363                                 #  INERTIA, THRUST MOMENT
000584: 42,2542           03721                           OCT      03721
000585: 42,2543           20373                           OCT      20373                                 #  VELOCITY/2VS
000586: 42,2544           02122                           OCT      02122
000587: 42,2545           00424                           OCT      00424                                 #  POSITION 6    (POINT BETWN BITS 7-8)
000588: 42,2546           30446                           OCT      30446
000589: 42,2547           00631                           OCT      00631                                 #  DRAG ACCELERATION
000590: 42,2550           23146                           OCT      23146
000591: 42,2551           00260                           OCT      00260                                 #  POSITION 8
000592: 42,2552           06213                           OCT      06213
000593: 42,2553           04231 27400                     2DEC     17.2010499 B-7                        #  POSITION 9
000594:
000595: 42,2555           01031 21032                     2DEC     .032808399                            #  VELOCITY4
000596:
000597:                                                                                                  #  END OF SFOUTAB
000598:
000599:
000600:                                                                                                  #  NN    SF CONSTANT             SF ROUTINE
000601:
000602: 42,2557           03660        IDADDTAB           ECADR    TTOGO                                 #  40    MIN/SEC                 M/S
000603: 42,2560           03762                           ECADR    VGDISP                                #  40    VEL3                    DP3
000604: 42,2561           03425                           ECADR    DVTOTAL                               #  40    VEL3                    DP3
000605: 42,2562           01250                           ECADR    DSPTEM1                               #  41    CDU DEG                 CDU
000606: 42,2563           01251                           ECADR    DSPTEM1    +1                         #  41    ELEV DEG                ARTH
000607: 42,2564           00000                           OCT      0                                     #  41    SPARE COMPONENT
000608: 42,2565           02354                           ECADR    HAPO                                  #  42    POS4                    DP3
000609: 42,2566           02356                           ECADR    HPER                                  #  42    POS4                    DP3
000610: 42,2567           03762                           ECADR    VGDISP                                #  42    VEL3                    DP3
000611: 42,2570           00746                           ECADR    LAT                                   #  43    DPDEG(360)              DP4
000612: 42,2571           00750                           ECADR    LONG                                  #  43    DPDEG(360)              DP4
000613: 42,2572           00752                           ECADR    ALT                                   #  43    POS4                    DP3
000614: 42,2573           02342                           ECADR    HAPOX                                 #  44    POS4                    DP3


000616: 42,2574           02344                           ECADR    HPERX                                 #  44    POS4                    DP3
000617: 42,2575           02334                           ECADR    TFF                                   #  44    MIN/SEC                 M/S
000618: 42,2576           00771                           ECADR    VHFCNT                                #  45    2INT                    2INT
000619: 42,2577           03660                           ECADR    TTOGO                                 #  45    MIN/SEC                 M/S
000620: 42,2600           03625                           ECADR    +MGA                                  #  45    DPDEG(360)              DP4
000621: 42,2601           03065                           ECADR    DAPDATR1                              #  46    OCTAL ONLY              OCT
000622: 42,2602           03066                           ECADR    DAPDATR2                              #  46    OCTAL ONLY              OCT
000623: 42,2603           00000                           OCT      0                                     #  46    SPARE COMPONENT
000624: 42,2604           03073                           ECADR    CSMMASS                               #  47    WEIGHT2                 ARTH1
000625: 42,2605           03072                           ECADR    LEMMASS                               #  47    WEIGHT2                 ARTH1
000626: 42,2606           00000                           OCT      00000                                 #  47    SPARE COMPONENT
000627: 42,2607           03023                           ECADR    PACTOFF                               #  48    TRIM DEG                ARTH
000628: 42,2610           03024                           ECADR    YACTOFF                               #  48    TRIM DEG                ARTH
000629: 42,2611           00000                           OCT      00000                                 #  48    SPARE COMPONENT
000630: 42,2612           03501                           ECADR    N49DISP                               #  49    POS5                    DP1
000631: 42,2613           03503                           ECADR    N49DISP    +2                         #  49    VEL3                    DP3
000632: 42,2614           03505                           ECADR    N49DISP    +4                         #  49    WHOLE                   ARTH
000633: 42,2615           02346                           ECADR    RSP-RREC                              #  50    POS6                    DP3
000634: 42,2616           02344                           ECADR    HPERX                                 #  50    POS4                    DP3
000635: 42,2617           02334                           ECADR    TFF                                   #  50    MIN/SEC                 M/S
000636: 42,2620           02311                           ECADR    RHOSB                                 #  51    DPDEG(360)
000637: 42,2621           02313                           ECADR    GAMMASB                               #  51    DPDEG(360)              DP4
000638: 42,2622           00000                           OCT      0                                     #  51    SPARE COMPONENT
000639: 42,2623           02632                           ECADR    ACTCENT                               #  52    DPDEG(360)              DP4
000640: 42,2624           00000                           OCT      00000                                 #  52    SPARE COMPONENT
000641: 42,2625           00000                           OCT      00000                                 #  52    SPARE COMPONENT
000642: 42,2626           02311                           ECADR    RANGE                                 #  53    POS5                    DP1
000643: 42,2627           02313                           ECADR    RRATE                                 #  53    VEL3                    DP3
000644: 42,2630           02315                           ECADR    RTHETA                                #  53    DPDEG(360)              DP4
000645: 42,2631           02311                           ECADR    RANGE                                 #  54    POS5                    DP1
000646: 42,2632           02313                           ECADR    RRATE                                 #  54    VEL3                    DP3
000647: 42,2633           02315                           ECADR    RTHETA                                #  54    DPDEG(360)              DP4
000648: 42,2634           03765                           ECADR    NN1                                   #  55    WHOLE                   ARTH
000649: 42,2635           03743                           ECADR    ELEV                                  #  55    DPDEG(360)              DP4
000650: 42,2636           03753                           ECADR    CENTANG                               #  55    DPDEG(360)              DP4
000651: 42,2637           03633                           ECADR    RTEGAM2D                              #  56    DPDEG(360)              DP4
000652: 42,2640           03631                           ECADR    RTEDVD                                #  56    VEL2                    DP4
000653: 42,2641           00000                           OCT      0                                     #  56    SPARE COMPONENT
000654: 42,2642           00000                           OCT      0                                     #  57    SPARE
000655: 42,2643           00000                           OCT      0                                     #  57    SPARE COMPONENT
000656: 42,2644           00000                           OCT      0                                     #  57    SPARE COMPONENT
000657: 42,2645           02640                           ECADR    POSTTPI                               #  58    POS4                    DP3
000658: 42,2646           02634                           ECADR    DELVTPI                               #  58    VEL3                    DP3
000659: 42,2647           02636                           ECADR    DELVTPF                               #  58    VEL3                    DP3
000660: 42,2650           02610                           ECADR    DVLOS                                 #  59    VEL3                    DP3
000661: 42,2651           02612                           ECADR    DVLOS      +2                         #  59    VEL3                    DP3
000662: 42,2652           02614                           ECADR    DVLOS      +4                         #  59    VEL3                    DP3
000663: 42,2653           03721                           ECADR    GMAX                                  #  60    WHOLE                   ARTH
000664: 42,2654           03756                           ECADR    VPRED                                 #  60    VEL2                    DP4
000665: 42,2655           03760                           ECADR    GAMMAEI                               #  60    DPDEG(360)              DP4


000667: 42,2656           03400                           ECADR    LAT(SPL)                              #  61    DPDEG(360)              DP4
000668: 42,2657           03402                           ECADR    LNG(SPL)                              #  61    DPDEG(360)              DP4
000669: 42,2660           03326                           ECADR    HEADSUP                               #  61    WHOLE                   ARTH
000670: 42,2661           03722                           ECADR    VMAGI                                 #  62    VEL2                    DP4
000671: 42,2662           03740                           ECADR    HDOT                                  #  62    VEL2                    DP4
000672: 42,2663           03736                           ECADR    ALTI                                  #  62    POS4                    DP3
000673: 42,2664           03713                           ECADR    RTGO                                  #  63    POS6                    DP3
000674: 42,2665           03724                           ECADR    VIO                                   #  63    VEL2                    DP4
000675: 42,2666           03726                           ECADR    TTE                                   #  63    MIN/SEC                 M/S
000676: 42,2667           03637                           ECADR    D                                     #  64    DRAG ACCEL              DP2
000677: 42,2670           03722                           ECADR    VMAGI                                 #  64    VEL2                    DP4
000678: 42,2671           03713                           ECADR    RTGON64                               #  64    POS6                    DP3
000679: 42,2672           00013                           ECADR    SAMPTIME                              #  65    HMS (MIXED ONLY TO KEEP CODE 65) HMS
000680: 42,2673           00013                           ECADR    SAMPTIME                              #  65    HMS                     HMS
000681: 42,2674           00013                           ECADR    SAMPTIME                              #  65    HMS                     HMS
000682: 42,2675           03315                           ECADR    ROLLC                                 #  66    DPDEG(360)              DP4
000683: 42,2676           03675                           ECADR    XRNGERR                               #  66    POS8                    DP3
000684: 42,2677           03715                           ECADR    DNRNGERR                              #  66    POS6                    DP3
000685: 42,2700           03713                           ECADR    RTGON67                               #  67    POS6                    DP3
000686: 42,2701           00746                           ECADR    LAT                                   #  67    DPDEG(360)              DP4
000687: 42,2702           00750                           ECADR    LONG                                  #  67    DPDEG(360)              DP4
000688: 42,2703           03315                           ECADR    ROLLC                                 #  68    DPDEG(360)              DP4
000689: 42,2704           03722                           ECADR    VMAGI                                 #  68    VEL2                    DP4
000690: 42,2705           03677                           ECADR    RDOT                                  #  68    VEL/2VS                 DP4
000691: 42,2706           03315                           ECADR    ROLLC                                 #  69    DPDEG(360)              DP4
000692: 42,2707           03174                           ECADR    Q7                                    #  69    DRAG ACCEL              DP2
000693: 42,2710           03756                           ECADR    VL                                    #  69    VEL/2VS                 DP4
000694: 42,2711           01140                           ECADR    STARCODE                              #  70    OCTAL ONLY              OCT
000695: 42,2712           03751                           ECADR    LANDMARK                              #  70    OCTAL ONLY              OCT
000696: 42,2713           03752                           ECADR    HORIZON                               #  70    OCTAL ONLY              OCT
000697: 42,2714           01140                           ECADR    STARCODE                              #  71    OCTAL ONLY              OCT
000698: 42,2715           03751                           ECADR    LANDMARK                              #  71    OCTAL ONLY              OCT
000699: 42,2716           03752                           ECADR    HORIZON                               #  71    OCTAL ONLY              OCT
000700: 42,2717           00000                           OCT      0                                     #  72    SPARE
000701: 42,2720           00000                           OCT      0                                     #  72    SPARE
000702: 42,2721           00000                           OCT      0                                     #  72    SPARE
000703: 42,2722           03620                           ECADR    P21ALT                                #  73    POS4                    DP3
000704: 42,2723           03622                           ECADR    P21VEL                                #  73    VEL2                    DP4
000705: 42,2724           03624                           ECADR    P21GAM                                #  73    DPDEG(360)              DP4
000706: 42,2725           03315                           ECADR    ROLLC                                 #  74    DPDEG(360)              DP4
000707: 42,2726           03722                           ECADR    VMAGI                                 #  74    VEL2                    DP4
000708: 42,2727           03637                           ECADR    D                                     #  74    DRAG ACCEL              DP2
000709: 42,2730           02632                           ECADR    DIFFALT                               #  75    POS4                    DP3
000710: 42,2731           02546                           ECADR    T1TOT2                                #  75    MIN/SEC                 M/S
000711: 42,2732           03655                           ECADR    T2TOT3                                #  75    MIN/SEC                 M/S
000712: 42,2733           00000                           OCT      0                                     #  76    SPARE
000713: 42,2734           00000                           OCT      0                                     #  76    SPARE
000714: 42,2735           00000                           OCT      0                                     #  76    SPARE
000715: 42,2736           00000                           OCT      0                                     #  77    SPARE
000716: 42,2737           00000                           OCT      0                                     #  77    SPARE


000718: 42,2740           00000                           OCT      0                                     #  77    SPARE
000719: 42,2741           03741                           ECADR    UTYAW                                 #  78    DPDEG(360)
000720: 42,2742           03737                           ECADR    UTPIT                                 #  78    DPDEG(360)
000721: 42,2743           01352                           ECADR    AZIMANGL                              #  78    DPDEG(360)
000722: 42,2744           03372                           ECADR    RATEPTC                               #  79    ELEV DEG                ARTH
000723: 42,2745           03373                           ECADR    DBPTC                                 #  79    CDU DEG                 CDU
000724: 42,2746           00000                           OCT      0                                     #  79    SPARE COMPONENT
000725: 42,2747           03660                           ECADR    TTOGO                                 #  80    MIN/SEC                 M/S
000726: 42,2750           03762                           ECADR    VGDISP                                #  80    VEL2                    DP4
000727: 42,2751           03425                           ECADR    DVTOTAL                               #  80    VEL2                    DP4
000728: 42,2752           03404                           ECADR    DELVLVC                               #  81    VEL3                    DP3
000729: 42,2753           03406                           ECADR    DELVLVC    +2                         #  81    VEL3                    DP3
000730: 42,2754           03410                           ECADR    DELVLVC    +4                         #  81    VEL3                    DP3
000731: 42,2755           03537                           ECADR    DELVOV                                #  82    VEL3                    DP3
000732: 42,2756           03541                           ECADR    DELVOV     +2                         #  82    VEL3                    DP3
000733: 42,2757           03543                           ECADR    DELVOV     +4                         #  82    VEL3                    DP3
000734: 42,2760           03674                           ECADR    DELVIMU                               #  83    VEL3                    DP3
000735: 42,2761           03676                           ECADR    DELVIMU    +2                         #  83    VEL3                    DP3
000736: 42,2762           03700                           ECADR    DELVIMU    +4                         #  83    VEL3                    DP3
000737: 42,2763           03537                           ECADR    DELVOV                                #  84    VEL3                    DP3
000738: 42,2764           03541                           ECADR    DELVOV     +2                         #  84    VEL3                    DP3
000739: 42,2765           03543                           ECADR    DELVOV     +4                         #  84    VEL3                    DP3
000740: 42,2766           03664                           ECADR    VGBODY                                #  85    VEL3                    DP3
000741: 42,2767           03666                           ECADR    VGBODY     +2                         #  85    VEL3                    DP3
000742: 42,2770           03670                           ECADR    VGBODY     +4                         #  85    VEL3                    DP3
000743: 42,2771           03404                           ECADR    DELVLVC                               #  86    VEL2                    DP4
000744: 42,2772           03406                           ECADR    DELVLVC    +2                         #  86    VEL2                    DP4
000745: 42,2773           03410                           ECADR    DELVLVC    +4                         #  86    VEL2                    DP4
000746: 42,2774           03725                           ECADR    MRKBUF1    +3                         #  87    CDU DEG                 CDU
000747: 42,2775           03727                           ECADR    MRKBUF1    +5                         #  87    Y OPTICS DEG            YOPT
000748: 42,2776           00000                           OCT      0                                     #  87    SPARE COMPONENT
000749: 42,2777           03704                           ECADR    STARSAV3                              #  88    DPFRAC                  DPFRAC
000750: 42,3000           03706                           ECADR    STARSAV3   +2                         #  88    DPFRAC                  DPFRAC
000751: 42,3001           03710                           ECADR    STARSAV3   +4                         #  88    DPFRAC                  DPFRAC
000752: 42,3002           00746                           ECADR    LANDLAT                               #  89    DPDEG(90)               DP3
000753: 42,3003           02350                           ECADR    LANDLONG                              #  89    DPDEG(90)               DP3
000754: 42,3004           02352                           ECADR    LANDALT                               #  89    POS5                    DP1
000755: 42,3005           01755                           ECADR    YCSM                                  #  90    POS5                    DP1
000756: 42,3006           01757                           ECADR    YDOTC                                 #  90    VEL3                    DP3
000757: 42,3007           01761                           ECADR    YDOTL                                 #  90    VEL3                    DP3
000758: 42,3010           00036                           ECADR    CDUS                                  #  91    CDU DEG                 CDU
000759: 42,3011           00035                           ECADR    CDUT                                  #  91    Y OPTICS DEG            YOPT
000760: 42,3012           00000                           OCT      0                                     #  91    SPARE COMPONENT
000761: 42,3013           02773                           ECADR    SAC                                   #  92    CDU DEG                 CDU
000762: 42,3014           02775                           ECADR    PAC                                   #  92    Y OPTICS DEG            YOPT
000763: 42,3015           00000                           OCT      0                                     #  92    SPARE COMPONENT
000764: 42,3016           02757                           ECADR    OGC                                   #  93    DPDEG(90)               DP3
000765: 42,3017           02761                           ECADR    OGC        +2                         #  93    DPDEG(90)               DP3
000766: 42,3020           02763                           ECADR    OGC        +4                         #  93    DPDEG(90)               DP3
000767: 42,3021           03725                           ECADR    MRKBUF1    +3                         #  94    CDU DEG                 CDU


000769: 42,3022           03727                           ECADR    MRKBUF1    +5                         #  94    Y OPTICS DEG            YOPT
000770: 42,3023           00000                           OCT      00000                                 #  94    SPARE
000771: 42,3024           03660                           ECADR    TTOGO                                 #  95    MIN/SEC                 M/S
000772: 42,3025           03724                           ECADR    VGTLI                                 #  95    VEL2                    DP4
000773: 42,3026           03722                           ECADR    VNOW                                  #  95    VEL2                    DP4
000774: 42,3027           02311                           ECADR    RANGE                                 #  96    POS5                    DP1
000775: 42,3030           02313                           ECADR    RRATE                                 #  96    VEL3                    DP3
000776: 42,3031           02315                           ECADR    RRATE2                                #  96    VEL3                    DP3
000777: 42,3032           01250                           ECADR    DSPTEM1                               #  97    WHOLE                   ARTH
000778: 42,3033           01251                           ECADR    DSPTEM1    +1                         #  97    WHOLE                   ARTH
000779: 42,3034           01252                           ECADR    DSPTEM1    +2                         #  97    WHOLE                   ARTH
000780: 42,3035           01253                           ECADR    DSPTEM2                               #  98    WHOLE                   ARTH
000781: 42,3036           01254                           ECADR    DSPTEM2    +1                         #  98    FRAC                    FRAC
000782: 42,3037           01255                           ECADR    DSPTEM2    +2                         #  98    WHOLE                   ARTH
000783: 42,3040           02311                           ECADR    WWPOS                                 #  99    POS9                    DP3
000784: 42,3041           02313                           ECADR    WWVEL                                 #  99    VEL4                    DP2
000785: 42,3042           02315                           ECADR    WWOPT                                 #  99    WHOLE                   ARTH
000786:
000787:                                                                                                  #  END OF IDADDTAB
000788:
000789:                                                                                                  #  NN    SF ROUTINES
000790:
000791: 42,3043           16351        RUTMXTAB           OCT      16351                                 #  40    M/S, DP3, DP3
000792: 42,3044           00142                           OCT      00142                                 #  41    CDU, ARTH
000793: 42,3045           16347                           OCT      16347                                 #  42    DP3, DP3, DP3
000794: 42,3046           16512                           OCT      16512                                 #  43    DP4, DP4, DP3
000795: 42,3047           22347                           OCT      22347                                 #  44    DP3, DP3, M/S
000796: 42,3050           24454                           OCT      24454                                 #  45    2INT, M/S, DP4
000797: 42,3051           00000                           OCT      00000                                 #  46    OCT, OCT
000798: 42,3052           00553                           OCT      00553                                 #  47    ARITH1, ARITH1
000799: 42,3053           00143                           OCT      00143                                 #  48    ARTH, ARTH
000800: 42,3054           06344                           OCT      06344                                 #  49    DP1, DP3, ARTH
000801: 42,3055           22347                           OCT      22347                                 #  50    DP3, DP3, M/S
000802: 42,3056           00512                           OCT      00512                                 #  51    DP4, DP4
000803: 42,3057           00012                           OCT      00012                                 #  52    DP4
000804: 42,3060           24344                           OCT      24344                                 #  53    DP1, DP3, DP4
000805: 42,3061           24344                           OCT      24344                                 #  54    DP1, DP3, DP4
000806: 42,3062           24503                           OCT      24503                                 #  55    ARTH, DP4, DP4
000807: 42,3063           00512                           OCT      00512                                 #  56    DP4, DP4
000808: 42,3064           00007                           OCT      00007                                 #  57    DP3
000809: 42,3065           16347                           OCT      16347                                 #  58    DP3, DP3, DP3
000810: 42,3066           16347                           OCT      16347                                 #  59    DP3, DP3, DP3
000811: 42,3067           24503                           OCT      24503                                 #  60    ARTH, DP4, DP4
000812: 42,3070           06512                           OCT      06512                                 #  61    DP4, DP4, ARTH
000813: 42,3071           16512                           OCT      16512                                 #  62    DP4, DP4, DP3
000814: 42,3072           22507                           OCT      22507                                 #  63    DP3, DP4, M/S
000815: 42,3073           16505                           OCT      16505                                 #  64    DP2, DP4, DP3
000816: 42,3074           20410                           OCT      20410                                 #  65    HMS, HMS, HMS
000817: 42,3075           16352                           OCT      16352                                 #  66    DP4, DP3, DP3
000818: 42,3076           24507                           OCT      24507                                 #  67    DP3, DP4, DP4


000820: 42,3077           24512                           OCT      24512                                 #  68    DP4, DP4, DP4
000821: 42,3100           24252                           OCT      24252                                 #  69    DP4, DP2, DP4
000822: 42,3101           00000                           OCT      00000                                 #  70    OCT, OCT, OCT
000823: 42,3102           00000                           OCT      0                                     #  71    OCT, OCT,OCT
000824: 42,3103           00000                           OCT      0                                     #  72    SPARE
000825: 42,3104           24507                           OCT      24507                                 #  73    DP3, DP4, DP4
000826: 42,3105           12512                           OCT      12512                                 #  74    DP4, DP4, DP2
000827: 42,3106           22447                           OCT      22447                                 #  75    DP3, M/S, M/S
000828: 42,3107           00000                           OCT      0                                     #  76    SPARE
000829: 42,3110           00000                           OCT      0                                     #  77    SPARE
000830: 42,3111           24512                           OCT      24512                                 #  78    DP4, DP4, DP4
000831: 42,3112           00103                           OCT      103                                   #  79    ARTH, CDU
000832: 42,3113           24511                           OCT      24511                                 #  80    M/S, DP4, DP4
000833: 42,3114           16347                           OCT      16347                                 #  81    DP3, DP3, DP3
000834: 42,3115           16347                           OCT      16347                                 #  82    DP3, DP3, DP3
000835: 42,3116           16347                           OCT      16347                                 #  83    DP3, DP3, DP3
000836: 42,3117           16347                           OCT      16347                                 #  84    DP3, DP3, DP3
000837: 42,3120           16347                           OCT      16347                                 #  85    DP3, DP3, DP3
000838: 42,3121           24512                           OCT      24512                                 #  86    DP4, DP4, DP4
000839: 42,3122           00302                           OCT      00302                                 #  87    CDU, YOPT
000840: 42,3123           32655                           OCT      32655                                 #  88    DPFRAC FOR EACH
000841: 42,3124           10347                           OCT      10347                                 #  89    DP3, DP3, DP1
000842: 42,3125           16344                           OCT      16344                                 #  90    DP1, DP3, DP3
000843: 42,3126           00302                           OCT      00302                                 #  91    CDU, YOPT
000844: 42,3127           00302                           OCT      00302                                 #  92    CDU, YOPT
000845: 42,3130           16347                           OCT      16347                                 #  93    DP3, DP3, DP3
000846: 42,3131           00302                           OCT      00302                                 #  94    CDU, YOPT
000847: 42,3132           24511                           OCT      24511                                 #  95    M/S, DP4, DP4
000848: 42,3133           16344                           OCT      16344                                 #  96    DP1, DP3, DP3
000849: 42,3134           06143                           OCT      06143                                 #  97    ARTH, ARTH, ARTH
000850: 42,3135           06043                           OCT      06043                                 #  98    ARTH, FRAC, ARTH
000851: 42,3136           06247                           OCT      06247                                 #  99    DP3, DP2, ARTH
000852:
000853:                                                                                                  #  END OF RUTMXTAB
000854:
000855: 42,3137  30,2000                                  SBANK=   LOWSUPER
000856:

End of include-file PINBALL_NOUN_TABLES.agc.  Parent file is MAIN.agc


