
Source Code


000002:                                                                                                  ## Copyright:   Public domain.
000003:                                                                                                  ## Filename:    R60_62.agc
000004:                                                                                                  ## Purpose:     Part of the source code for Artemis (i.e., Colossus 3),
000005:                                                                                                  ##              build 072.  This is for the Command Module's (CM)
000006:                                                                                                  ##              Apollo Guidance Computer (AGC), for
000007:                                                                                                  ##              Apollo 15-17.
000008:                                                                                                  ## Assembler:   yaYUL
000009:                                                                                                  ## Contact:     Sergio Navarro <sergionavarrog@gmail.com>
000010:                                                                                                  ## Website:     www.ibiblio.org/apollo/index.html
000011:                                                                                                  ## Page Scans:  www.ibiblio.org/apollo/ScansForConversion/Artemis072/
000012:                                                                                                  ## Mod history: 2009-08-19 SN   Adapted from corresponding Comanche 055 file.
000013:                                                                                                  ##              2009-09-03 JL   Fixed symbol names.
000014:                                                                                                  ##              2009-09-04 JL   Fixed typo in COUNT* directive. Minor fixes.
000015:                                                                                                  ##                              Removed a spurious SETPD in interpretive code.
000016:                                                                                                  ##              2010-01-31 JL   Fixed build errors.
000017:                                                                                                  ##              2010-02-01 JL   Fixed build errors.
000018:                                                                                                  ##              2010-02-20 RSB  Un-##'d this header.
000019:                                                                                                  ##              2017-01-27 RSB  Back-ported a comment-text fix identified in Luminary 69.
000020:                                                                                                  ##              2017-02-08 RSB  Proofed comment text by diff'ing vs Comanche 55
000021:                                                                                                  ##                              and/or octopus/ProoferComments as most-appropriate.
000022:


000024: 27,2000                                           SETLOC   MANUVER
000025: 27,2000                                           BANK
000026:
000027: 27,2074     1004                                  EBANK=   TEMPR60
000028:
000029: 27,2074                                           COUNT*   $$/R60
000030:
000031:                                                                                                  #  R60CSM
000032:                                                                                                  #  REV 13   CONFORMS TO GSOP CHAPTER FOUR REVISION LOGIC  09  JAN 18,1968
000033:
000034: 27,2074           04665        R60CSM             TC       MAKECADR
000035: 27,2075           55004                           TS       TEMPR60
000036:
000037: 27,2076           06006        REDOMANN           TC       INTPRET
000038: 27,2077           45014                           BON      CALL                                  #  IS 3-AXIS FLAG SET
000039: 27,2100           02711                                    3AXISFLG
000040: 27,2101           56104                                    TOBALL1                               #  YES
000041: 27,2102           56225                                    VECPOINT                              #  NO CALL VECPOINT
000042: 27,2103           01310                           STORE    CPHI
000043: 27,2104           77776        TOBALL1            EXIT
000044:
000045: 27,2105           35031        TOBALL             CAF      V06N18
000046: 27,2106           04636                           TC       BANKCALL
000047: 27,2107           21154                           CADR     GOPERF2R                              #  DISPLAY PLEASE PERFORM AUTO MANEUVER
000048: 27,2110           02215                           TC       R61TEST
000049: 27,2111           02115                           TC       REDOMANC   -1
000050: 27,2112           12150                           TCF      ENDMANU1                              #  ENTER I.E. FINISHED WITH R60
000051:
000052: 27,2113           02152                           TC       CHKLINUS                              #  TO CHECK FOR PRIORITY DISPLAYS
000053: 27,2114           05205                           TC       ENDOFJOB
000054:
000055: 27,2115           06006                 -1        TC       INTPRET
000056: 27,2116           45014        REDOMANC           BON      CALL                                  #  IS 3-AXIS FLAG SET
000057: 27,2117           02711                                    3AXISFLG
000058: 27,2120           56123                                    +3                                    #  YES
000059: 27,2121           56225                                    VECPOINT                              #  NO CALL VECPOINT
000060: 27,2122           01310                           STORE    CPHI                                  #  STORE ANGLES
000061: 27,2123           77776                           EXIT
000062:
000063: 27,2124           37673        TOBALLC            CAF      FURST3                                #  BITS 15,14,13 OF CHAN31 = 011
000064: 27,2125           05654                           TC       C31BTCHK                              #  FOR AUTO AND G&N CONTROL
000065: 27,2126           12127                           TCF      +1
000066: 27,2127           67671                           AD       NEG30000
000067: 27,2130           00006                           EXTEND
000068: 27,2131           12133                           BZF      +2                                    #  AUTO, NON-FLASH N18
000069: 27,2132           12105                           TCF      TOBALL                                #  NOT AUTO


000071: 27,2133           35031                           CAF      V06N18                                #  SET UP NON-FLASHING V06 N18
000072: 27,2134           04636                           TC       BANKCALL
000073: 27,2135           20710                           CADR     GODSPR
000074: 27,2136           02152                           TC       CHKLINUS
000075:
000076: 27,2137           04655        STARTMNV           TC       POSTJUMP
000077: 27,2140           44000                           CADR     KALCMAN3
000078:
000079: 27,2141           06006        ENDMANUV           TC       INTPRET
000080: 27,2142           43014                           BOFF     BOFF
000081: 27,2143           05350                                    AUTOSEQ
000082: 27,2144           56104                                    TOBALL1
000083: 27,2145           00752                                    TRACKFLG
000084: 27,2146           56104                                    TOBALL1
000085: 27,2147           77776                           EXIT
000086:
000087: 27,2150           31004        ENDMANU1           CA       TEMPR60
000088: 27,2151           04660                           TC       BANKJUMP                              #                                        -
000089:
000090: 27,2152           40100        CHKLINUS           CS       FLAGWRD4
000091: 27,2153           74755                           MASK     PDSPFBIT                              #  IS PRIORITY DISPLAY FLAG SET
000092: 27,2154           10000                           CCS      A                                     #                                        -
000093: 27,2155           00002                           TC       Q                                     #  NO - EXIT
000094: 27,2156           30002                           CA       Q
000095: 27,2157           54156                           TS       MPAC       +2                         #  SAVE RETURN
000096: 27,2160           46214                           CS       THREE                                 #  OBTAIN LOCATION FOR RESTART.
000097: 27,2161           60133                           AD       BUF2                                  #  HOLDS Q OF LAST DISPALY
000098: 27,2162           55257                           TS       TBASE1
000099:
000100: 27,2163           05402                           TC       PHASCHNG
000101: 27,2164           00071                           OCT      71                                    #  1.7SPOT FOR RELINUS
000102:
000103: 27,2165  01,2022               1P7SPT1            =        1.7SPOT
000104: 27,2165           34762                           CAF      BIT7
000105: 27,2166           05516                           TC       LINUS                                 #  GO SET BITS FOR PRIORITY DISPLAY      -
000106: 27,2167           00156                           TC       MPAC       +2
000107:
000108: 27,2170           34764        RELINUS            CAF      TRACKBIT                              #  IS TRACK FLAG ON
000109: 27,2171           70075                           MASK     FLAGWRD1
000110: 27,2172           00006                           EXTEND
000111: 27,2173           12213                           BZF      GOREDO20                              #  NO
000112:
000113: 27,2174           05547                           TC       UPFLAG
000114: 27,2175           00077                           ADRES    PDSPFLAG                              #  R60 PRIODSP FLAG
000115:
000116: 27,2176           30104                           CA       FLAGWRD8
000117: 27,2177           74760                           MASK     UTBIT
000118: 27,2200           10000                           CCS      A
000119: 27,2201           02210                           TC       RELINUSX                              #  UTFLAG SET,DO NOT SET TARG1FLG,OPTIND


000121: 27,2202           05547                           TC       UPFLAG
000122: 27,2203           00024                           ADRES    TARG1FLG                              #  FOR R52
000123:
000124: 27,2204           34772                           CAF      ZERO                                  #  RESET TO ZERO, SINCE
000125: 27,2205           55323                           TS       OPTIND                                #  OPTIND WAS SET TO -1 BY V379
000126:
000127: 27,2206           05547                           TC       UPFLAG
000128: 27,2207           00037                           ADRES    R21MARK                               #  ALLOW OPTICS MARKING DURING P2
000129:
000130: 27,2210           35053        RELINUSX           CAF      PRIO14                                #  RESTORE ORIGINAL PRIORITY
000131: 27,2211           05176                           TC       PRIOCHNG
000132:
000133: 27,2212           01257                           TC       TBASE1
000134:
000135: 27,2213           04655        GOREDO20           TC       POSTJUMP                              #  RESTORE R03 DEADBAND, DO STOPRATE,
000136: 27,2214           74416                           CADR     FIXDB                                 #   SET UP 1.11 RESTART, EOJ.
000137: 27,2215           31214        R61TEST            CA       MODREG                                #  ARE WE IN P00.  IF YES THIS MUST BE
000138: 27,2216           00006                           EXTEND                                         #      VERB49 OR VERB89 SO DO ENDEXT.
000139: 27,2217           12150                           BZF      ENDMANU1                              #  RESET 3-AXIS & RUTURN.  USER DOES ENDEXT
000140: 27,2220           30100                           CA       FLAGWRD4                              #  ARE WE IN R61 (P20)
000141: 27,2221           74755                           MASK     PDSPFBIT
000142: 27,2222           00006                           EXTEND
000143: 27,2223           14103                           BZF      GOTOPOOH                              #  NO
000144: 27,2224           04546                           TC       GOTOV56                               #  YES
000145:


000147:                                                                                                  #  PROGRAM DESCRIPTION - VECPOINT
000148:
000149:
000150:                                                                                                  #           THIS INTERPRETIVE SUBROUTINE MAY BE USED TO POINT A SPACECRAFT AXIS IN A DESIRED DIRECTION.  THE AXIS
000151:                                                                                                  #  TO BE POINTED MUST APPEAR AS A HALF UNIT DOUBLE PRECISION VECTOR IN SUCCESSIVE LOCATIONS OF ERASABLE MEMORY
000152:                                                                                                  #  BEGINNING WITH THE LOCATION CALLED SCAXIS.  THE COMPONENTS OF THIS VECTOR ARE GIVEN IN SPACECRAFT COORDINATES.
000153:                                                                                                  #  THE DIRECTION IN WHICH THIS AXIS IS TO BE POINTED MUST APPEAR AS A HALF UNIT DOUBLE PRECISION VECTOR IN
000154:                                                                                                  #  SUCCESSIVE LOCATIONS OF ERASABLE MEMORY BEGINNING WITH THE ADDRESS CALLED POINTVSM.  THE COMPONENTS OF THIS
000155:                                                                                                  #  VECTOR ARE GIVEN IN STABLE MEMBER COORDINATES.  WITH THIS INFORMATION VECPOINT COMPUTES A SET OF THREE GIMBAL
000156:                                                                                                  #  ANGLES (2S COMPLEMENT) CORRESPONDING TO THE CROSS-PRODUCT ROTATION BETWEEN SCAXIS AND POINTVSM AND STORES THEM
000157:                                                                                                  #  IN T(MPAC) BEFORE RETURNING TO THE CALLER.
000158:                                                                                                  #          THIS ROTATION, HOWEVER, MAY BRING THE S/C INTO GIMBAL LOCK.  WHEN POINTING A VECTOR IN THE Y-Z PLANE,
000159:                                                                                                  #  THE TRANSPONDER AXIS, OR THE AOT FOR THE LEM, THE PROGRAM WILL CORRECT THIS PROBLEM BY ROTATING THE CROSS-
000160:                                                                                                  #  PRODUCT ATTITUDE ABOUT POINTVSM BY A FIXED AMOUNT SUFFICIENT TO ROTATE THE DESIRED S/C ATTITUDE OUT OF GIMBAL
000161:                                                                                                  #  LOCK.  IF THE AXIS TO BE POINTED IS MORE THAN 40.6 DEGREES BUT LESS THAN 60.5 DEG FROM THE +X (OR -X) AXIS,
000162:                                                                                                  #  THE ADDITIONAL ROTATION TO AVOID GIMAL LOCK IS 35 DEGREES.  IF THE AXIS IS MORE THAN 60.5 DEGEES FROM +X (OR -X)
000163:                                                                                                  #  THE ADDITIONAL ROTATION IS 35 DEGREES.  THE GIMBAL ANGLES CORRESPONDING TO THIS ATTITUDE ARE THEN COMPUTED AND
000164:                                                                                                  #  STORED AS 2S COMPLIMENT ANGLES IN T(MPAC) BEFORE RETURNING TO THE CALLER.
000165:                                                                                                  #           WHEN POINTING THE X-AXIS, OR THE THRUST VECTOR, OR ANY VECTOR WITHIN 40.6 DEG OF THE X-AXIS, VECPOINT
000166:                                                                                                  #  CANNOT CORRECT FOR A CROSS-PRODUCT ROTATION INTO GIMBAL LOCK.  IN THIS CASE A PLATFORM REALIGNMENT WOULD BE
000167:                                                                                                  #  REQUIRED TO POINT THE VECTOR IN THE DESIRED DIRECTION.  AT PRESENT NO INDICATION IS GIVEN FOR THIS SITUATION
000168:                                                                                                  #  EXCEPT THAT THE FINAL MIDDLE GIMBAL ANGLE IN MPAC +2 IS GREATER THAN 59 DEGREES.
000169:
000170:                                                                                                  #  CALLING SEQUENCE -
000171:
000172:                                                                                                  #        1) LOAD SCAXIS, POINTVSM
000173:                                                                                                  #        2) CALL
000174:                                                                                                  #                VECPOINT
000175:
000176:                                                                                                  #  RETURNS WITH
000177:
000178:                                                                                                  #        1) DESIRED OUTER  GIMBAL ANGLE IN MPAC
000179:                                                                                                  #        2) DESIRED INNER  GIMBAL ANGLE IN MPAC +1
000180:                                                                                                  #        3) DESIRED MIDDLE GIMBAL ANGLE IN MPAC +2
000181:
000182:                                                                                                  #  ERASABLES USED -
000183:
000184:                                                                                                  #        1) SCAXIS                6
000185:                                                                                                  #        2) POINTVSM              6
000186:                                                                                                  #        3) MIS                  18
000187:                                                                                                  #        4) DEL                  18
000188:                                                                                                  #        5) COF                   6
000189:                                                                                                  #        6) VECQTEMP              1
000190:                                                                                                  #        7) ALL OF VAC AREA      43
000191:
000192:                                                                                                  #                        TOTAL   99
000193:
000194: 27,2000                                           SETLOC   VECPT
000195: 27,2000                                           BANK


000197: 27,2225  E6,1661                                  EBANK=   BCDU
000198:
000199: 27,2225                                           COUNT*   $$/VECPT
000200: 27,2225           40020        VECPOINT           STQ      BOV                                   #  SAVE RETURN ADDRESS
000201: 27,2226           03310                                    VECQTEMP
000202: 27,2227           56230                                    VECLEAR                               #  AND CLEAR OVFIND
000203: 27,2230           47164        VECLEAR            AXC,2    RTB
000204: 27,2231           03320                                    MIS                                   #  READ THE PRESENT CDU ANGLES AND
000205: 27,2232           44370                                    READCDUK                              #  STORE THEM IN PD25, 26, 27
000206: 27,2233           34032                           STCALL   25D
000207: 27,2234           44377                                    CDUTODCM                              #  S/C AXES TO STABLE MEMBER AXES (MIS)
000208: 27,2235           61375                           VLOAD    VXM
000209: 27,2236           03357                                    POINTVSM                              #  RESOLVE THE POINTING DIRECTION VF INTO
000210: 27,2237           03321                                    MIS                                   #  INITIAL S/C AXES (VF = POINTVSM)
000211: 27,2240           77656                           UNIT
000212: 27,2241           00035                           STORE    28D
000213:                                                                                                  #  PD 28 29 30 31 32 33
000214: 27,2242           53435                           VXV      UNIT                                  #  TAKE THE CROSS PRODUCT VF X VI
000215: 27,2243           03351                                    SCAXIS                                #  WHERE VI = SCAXIS
000216: 27,2244           57400                           BOV      VCOMP
000217: 27,2245           56355                                    PICKAXIS
000218: 27,2246           17343                           STODL    COF                                   #  CHECK MAGNITUDE
000219: 27,2247           00045                                    36D                                   #  OF CROSS PRODUCT
000220: 27,2250           50025                           DSU      BMN                                   #  VECTOR, IF LESS
000221: 27,2251           16426                                    DPB-14                                #  THAN B-14 ASSUME
000222: 27,2252           56355                                    PICKAXIS                              #  UNIT OPERATION
000223: 27,2253           50375                           VLOAD    DOT                                   #           INVALID.
000224: 27,2254           03351                                    SCAXIS
000225: 27,2255           00035                                    28D
000226: 27,2256           65552                           SL1      ARCCOS
000227: 27,2257           77624        COMPMATX           CALL                                           #  NOW COMPUTE THE TRANSFORMATION FROM
000228: 27,2260           44522                                    DELCOMP                               #  FINAL S/C AXES TO INITIAL S/C AXES    MFI
000229: 27,2261           75160                           AXC,1    AXC,2
000230: 27,2262           03320                                    MIS                                   #  COMPUTE THE TRANSFORMATION FROM FINAL
000231: 27,2263           03425                                    DEL                                   #  S/C AXES TO STABLE MEMBER AXES
000232: 27,2264           77624                           CALL                                           #  MFS = MIS MFI
000233: 27,2265           44304                                    MXM3                                  #  (IN PD LIST)
000234:
000235: 27,2266           51545                           DLOAD    ABS
000236: 27,2267           00007                                    6                                     #  MFS6 = SIN(CPSI)                      $2
000237: 27,2270           50025                           DSU      BMN
000238: 27,2271           16413                                    SINGIMLC                              #  = SIN(59 DEGS)                        $2
000239: 27,2272           56345                                    FINDGIMB                              #  /CPSI/ LESS THAN 59 DEGS
000240:                                                                                                  #  I.E. DESIRED ATTITUDE NOT IN GIMBAL LOCK
000241:
000242: 27,2273           51545                           DLOAD    ABS                                   #  CHECK TO SEE IF WE ARE POINTING
000243: 27,2274           03351                                    SCAXIS                                #  THE THRUST AXIS
000244: 27,2275           51025                           DSU      BPL
000245: 27,2276           16415                                    SINVEC1                               #  SIN 49.4 DEGS                         $2
000246: 27,2277           56345                                    FINDGIMB                              #  IF SO, WE ARE TRYING TO POINT IT INTO


000248: 27,2300           77775                           VLOAD                                          #  GIMBAL LOCK, ABORT COULD GO HERE
000249: 27,2301           77626                           STADR
000250: 27,2302           50442                           STOVL    MIS        +12D
000251: 27,2303           77626                           STADR                                          #  STORE MFS (IN PD LIST) IN MIS
000252: 27,2304           50450                           STOVL    MIS        +6
000253: 27,2305           77626                           STADR
000254: 27,2306           50456                           STOVL    MIS
000255: 27,2307           03327                                    MIS        +6                         #  INNER GIMBAL AXIS IN FINAL S/C AXES
000256: 27,2310           57444                           BPL      VCOMP                                 #  LOCATE THE IG AXIS DIRECTION CLOSEST TO
000257: 27,2311           56312                                    IGSAMEX                               #  FINAL X S/C AXIS
000258:
000259: 27,2312           50035        IGSAMEX            VXV      BMN                                   #  FIND THE SHORTEST WAY OF ROTATING THE
000260: 27,2313           03351                                    SCAXIS                                #  S/C OUT OF GIMBAL LOCK BY A ROTATION
000261: 27,2314           56321                                    U=SCAXIS                              #  ABOUT +- SCAXIS, I.E. IF  (IG (SGN MFS3)
000262:                                                                                                  #  X SCAXIS . XF) LESS THAN 0, U = SCAXIS
000263:                                                                                                  #  OTHERWISE U = -SCAXIS
000264:
000265: 27,2315           57575                           VLOAD    VCOMP
000266: 27,2316           03351                                    SCAXIS
000267: 27,2317           37343                           STCALL   COF                                   #  ROTATE ABOUT -SCAXIS
000268: 27,2320           56324                                    CHEKAXIS
000269: 27,2321           77775        U=SCAXIS           VLOAD
000270: 27,2322           03351                                    SCAXIS
000271: 27,2323           03343                           STORE    COF                                   #  ROTATE ABOUT + SCAXIS
000272: 27,2324           51545        CHEKAXIS           DLOAD    ABS
000273: 27,2325           03351                                    SCAXIS                                #  SEE IF WE ARE POINTING THE AOT
000274: 27,2326           51025                           DSU      BPL
000275: 27,2327           16417                                    SINVEC2                               #  SIN 29.5 DEGS                         $2
000276: 27,2330           56334                                    PICKANG1                              #  IF SO, ROTATE 50 DEGS ABOUT +- SCAXIS
000277: 27,2331           52145                           DLOAD    GOTO                                  #  IF NOT, MUST BE POINTING THE TRANSPONDER
000278: 27,2332           16423                                    VECANG2                               #  OR SOME VECTOR IN THE Y, OR Z PLANE
000279: 27,2333           56336                                    COMPMFSN                              #  IN THIS CASE ROTATE 35 DEGS TO GET OUT
000280:                                                                                                  #  OF GIMBAL LOCK (VECANG2  $360)
000281: 27,2334           77745        PICKANG1           DLOAD
000282: 27,2335           16421                                    VECANG1                               #  = 50 DEGS                           $ 360
000283: 27,2336           77624        COMPMFSN           CALL
000284: 27,2337           44522                                    DELCOMP                               #  COMPUTE THE ROTATION ABOUT SCAXIS TO
000285: 27,2340           75160                           AXC,1    AXC,2                                 #  BRING MFS OUT OF GIMBAL LOCK
000286: 27,2341           03320                                    MIS
000287: 27,2342           03425                                    DEL
000288: 27,2343           77624                           CALL                                           #  COMPUTE THE NEW TRANSFORMATION FROM
000289: 27,2344           44304                                    MXM3                                  #  DESIRED S/C AXES TO STABLE MEMBER AXES
000290:                                                                                                  #  WHICH WILL ALIGN VI WITH VF AND AVOID
000291:                                                                                                  #  GIMBAL LOCK
000292: 27,2345           45160        FINDGIMB           AXC,1    CALL
000293: 27,2346           00000                                    0                                     #  EXTRACT THE COMMANDED CDU ANGLES FROM
000294: 27,2347           44647                                    DCMTOCDU                              #  THIS MATRIX
000295: 27,2350           77634                           RTB
000296: 27,2351           45644                                    V1STO2S                               #  CONVERT TO 2:S COMPLEMENT
000297: 27,2352           52001        VECPTRET           SETPD    GOTO


000299: 27,2353           00001                                    0
000300: 27,2354           03310                                    VECQTEMP                              #  RETURN TO CALLER
000301:
000302: 27,2355           50375        PICKAXIS           VLOAD    DOT                                   #  IF VF X VI = 0, FIND VF . VI
000303: 27,2356           00035                                    28D
000304: 27,2357           03351                                    SCAXIS
000305: 27,2360           72240                           BMN      TLOAD
000306: 27,2361           56365                                    ROT180
000307: 27,2362           00032                                    25D
000308: 27,2363           77650                           GOTO                                           #  IF VF = VI, CDU DESIRED = PRESENT CDU
000309: 27,2364           56352                                    VECPTRET                              #  PRESENT CDU ANGLES
000310: 27,2365           47375        ROT180             VLOAD    VXV                                   #  IF VF, VI ANTIPARALLEL, 180 DEG ROTATION
000311: 27,2366           03327                                    MIS        +6                         #  IS REQUIRED. Y STABLE MEMBER AXIS IN
000312: 27,2367           15334                                    HIUNITX                               #  INITIAL S/C AXIS.
000313: 27,2370           47256                           UNIT     VXV                                   #  FIND Y(SM) X X(I)
000314: 27,2371           03351                                    SCAXIS                                #  FIND UNIT(VI X UNIT(Y(SM) X X(I)))
000315: 27,2372           40056                           UNIT     BOV                                   #  I.E. PICK A VECTOR IN THE PLANE OF X(I),
000316: 27,2373           56407                                    PICKX                                 #  Y(SM) PERPENDICULAR TO VI
000317: 27,2374           17343                           STODL    COF
000318: 27,2375           00045                                    36D                                   #  CHECK MAGNITUDE
000319: 27,2376           50025                           DSU      BMN                                   #  OF THIS VECTOR.
000320: 27,2377           16426                                    DPB-14                                #  IF LESS THAN B-14,
000321: 27,2400           56407                                    PICKX                                 #  PICK X-AXIS.
000322: 27,2401           77775                           VLOAD
000323: 27,2402           03343                                    COF
000324: 27,2403           17343        XROT               STODL    COF
000325: 27,2404           15334                                    HIDPHALF
000326: 27,2405           77650                           GOTO
000327: 27,2406           56257                                    COMPMATX
000328: 27,2407           52175        PICKX              VLOAD    GOTO                                  #  PICK THE XAXIS IN THIS CASE
000329: 27,2410           15334                                    HIUNITX
000330: 27,2411           56403                                    XROT
000331: 27,2000                                           SETLOC   MANUVER1
000332: 27,2000                                           BANK
000333:
000334: 27,2412                                           COUNT*   $$/VECPT
000335: 27,2412           15555 35172  SINGIMLC           2DEC     .4285836003                            #  = SIN(59)             $2
000336: 27,2414           14113 36326  SINVEC1            2DEC     .3796356537                            #  = SIN(49.4)           $2
000337: 27,2416           07701 35703  SINVEC2            2DEC     .2462117800                            #  = SIN(29.5)           $2
000338: 27,2420           04343 21616  VECANG1            2DEC     .1388888889                            #  = 50 DEGREES                        $360
000339: 27,2422           03070 34344  VECANG2            2DEC     .09722222222                            #  = 35 DEGREES                        $360
000340:
000341: 27,2424           00000        1BITDP             OCT      0                                     #  KEEP THIS BEFORE DPB(-14)      *********
000342: 27,2425           00001        DPB-14             OCT      00001
000343: 27,2426           00000                           OCT      00000
000344: 27,2000                                           SETLOC   MANUVER


000346: 27,2000                                           BANK
000347:


000349:                                                                                                  #  ROUTINE FOR INITIATING AUTOMATIC MANEUVER VIA KEYBOARD (V49)
000350:
000351: 27,2427     1307                                  EBANK=   CPHI
000352:
000353: 27,2427                                           COUNT*   $$/R62
000354: 27,2427           35025        R62DISP            CAF      V06N22                                #  DISPLAY COMMAND ICDUS CPHI, CTHETA, CPHI
000355: 27,2430           04636                           TC       BANKCALL
000356: 27,2431           20743                           CADR     GOFLASH
000357: 27,2432           15524                           TCF      ENDEXT
000358: 27,2433           12435                           TCF      GOMOVE                                #  PROCEED
000359: 27,2434           12427                           TCF      R62DISP                               #  ENTER
000360:
000361:                                                                                                  #  ASTRONAUT MAY LOAD NEW ICDUS AT THIS
000362:                                                                                                  #  POINT
000363: 27,2435           05547        GOMOVE             TC       UPFLAG                                #  SET 3-AXIS FLAG
000364: 27,2436           00124                           ADRES    3AXISFLG                              #  BIT 6  FLAG 5
000365: 27,2437           04636                           TC       BANKCALL
000366: 27,2440           56074                           CADR     R60CSM
000367:
000368: 27,2441           15524                           TCF      ENDEXT

End of include-file R60,R62.agc.  Parent file is MAIN.agc


