
Source Code


000002:                                                                                                  ## Copyright:   Public domain.
000003:                                                                                                  ## Filename:    RCS-CSM_DIGITAL_AUTOPILOT.agc
000004:                                                                                                  ## Purpose:     Part of the source code for Artemis (i.e., Colossus 3),
000005:                                                                                                  ##              build 072.  This is for the Command Module's (CM)
000006:                                                                                                  ##              Apollo Guidance Computer (AGC), for
000007:                                                                                                  ##              Apollo 15-17.
000008:                                                                                                  ## Assembler:   yaYUL
000009:                                                                                                  ## Contact:     Sergio Navarro <sergionavarrog@gmail.com>
000010:                                                                                                  ## Website:     www.ibiblio.org/apollo/index.html
000011:                                                                                                  ## Page Scans:  www.ibiblio.org/apollo/ScansForConversion/Artemis072/
000012:                                                                                                  ## Mod history: 2009-08-27 SN   Adapted from corresponding Comanche 055 file.
000013:                                                                                                  ##              2009-09-04 JL   Fixed typos. Fixed page comment.
000014:                                                                                                  ##              2009-09-10 JL   Fixed typos.
000015:                                                                                                  ##              2010-02-01 JL   Fixed build errors.
000016:                                                                                                  ##              2010-02-20 RSB  Un-##'d this header.
000017:                                                                                                  ##              2017-02-08 RSB  Proofed comment text by diff'ing vs Comanche 55
000018:                                                                                                  ##                              and/or octopus/ProoferComments as most-appropriate.
000019:


000021:
000022:                                                                                                  #  T5 INTERRUPT PROGRAM FOR THE RCS-CSM AUTOPILOT
000023:                                                                                                  #        START OF T5 INTERRUPT PROGRAM
000024:
000025: 21,2000                                           SETLOC   DAPS3
000026: 21,2000                                           BANK
000027:
000028: 21,2123                                           COUNT*   $$/DAPRC
000029: 21,2123  E6,1510                                  EBANK=   KMPAC
000030: 21,2123           22016        REDORCS            LXCH     BANKRUPT                              #  RESTART OF AUTOPILOT COMES HERE
000031: 21,2124           31464                           CA       T5PHASE                               #  ON A T5 RUPT.
000032: 21,2125           00006                           EXTEND
000033: 21,2126           62130                           BZMF     +2                                    #  IF T5PHASE +0, -0, OR -, RESET TO -
000034: 21,2127           12132                           TCF      +3                                    #  IF T5PHASE +, LEAVE IT +.  DO A FRESHDAP
000035: 21,2130           44770                           CS       ONE
000036: 21,2131           55464                           TS       T5PHASE
000037: 21,2132           00006                           EXTEND
000038: 21,2133           32137                           DCA      RCSLOC
000039: 21,2134           52113                           DXCH     T5LOC                                 #  HOOK UP T5RUPT TO AUTOPILOT
000040: 21,2135           12141                           TCF      RCSATT     +1
000041: 21,2136  E6,1510                                  EBANK=   KMPAC
000042: 21,2136           02140 42066  RCSLOC             2CADR    RCSATT
000043:
000044:
000045: 21,2140           22016        RCSATT             LXCH     BANKRUPT                              #  SAVE BB
000046: 21,2141           00006                 +1        EXTEND                                         #  SAVE Q
000047: 21,2142           22012                           QXCH     QRUPT
000048: 21,2143           34752                           CAF      BIT15                                 #  BIT15 CHAN31 = 0 IF IMU POWER IS ON AND
000049: 21,2144           05654                           TC       C31BTCHK                              #  S/C CONT SW IS IN CMC (I.E. IF G/C DAP
000050: 21,2145           12170                           TCF      SETT5                                 #  IS FULLY ENABLED).     IF SO8
000051:                                                                                                  #  GO TO SETT5
000052:
000053: 21,2146           41501                           CS       RCSFLAGS                              #  IF G/C AUTOPILOT IS NOT FULLY ENABLED,
000054: 21,2147           74753                           MASK     BIT14
000055: 21,2150           27501                           ADS      RCSFLAGS                              #  SET NORATE FLAG,
000056: 21,2151           34750                           CAF      POSMAX
000057: 21,2152           55340                           TS       HOLDFLAG                              #  SET HOLDFLAG +,
000058: 21,2153           34772                           CAF      ZERO                                  #  ZERO ERRORX, ERRORY, AND ERRORZ,
000059: 21,2154           55567                           TS       ERRORX
000060: 21,2155           55570                           TS       ERRORY
000061: 21,2156           55571                           TS       ERRORZ
000062: 21,2157           34753                           CAF      BIT14
000063: 21,2160           05654                           TC       C31BTCHK                              #  AND CHECK FREE FUNCTION (BIT14 CHAN31)
000064: 21,2161           12170                           TCF      SETT5
000065: 21,2162           55464                           TS       T5PHASE                               #  IF NOT IN FREE MODE,
000066: 21,2163           37661                           CAF      OCT37766                              #  SCHEDULE REINITIALIZATION (FRESHDAP)
000067: 21,2164           54030                           TS       TIME5                                 #  IN 100 MS VIA T5RUPT
000068:
000069: 21,2165           02642                           TCR      ZEROJET                               #  ZERO JET CHANNELS IN 14 MS VIA ZEROJET


000071: 21,2166           12355                           TCF      KMATRIX
000072: 21,2167           37770        DELTATT            OCT      37770                                 #  80MS (TIME5)
000073: 21,2170     7663               DELTATT2           =        OCT37776                              #  20 MS (TIME5)
000074:
000075:                                                                                                  #  CHECK PHASE OF T5 PROGRAM
000076:
000077:                                                                                                  #      BECAUSE OF THE LENGTH OF THE T5 PROGRAM, IT HAS BEEN DIVIDED INTO
000078:                                                                                                  #  THREE PARTS, T5PHASE1, T5PHASE2, AND THE JET SELECTION LOGIC,
000079:                                                                                                  #  TO ALLOW FOR THE EXECUTION OF OTHER
000080:                                                                                                  #  INTERRUPTS.  T5PHASE IS ALSO USED IN THE INITIALIZATION OF THE AUTOPILOT
000081:                                                                                                  #  VARIABLES AT TURN ON.
000082:                                                                                                  #  THE CODING OF T5PHASE IS...
000083:
000084:                                                                                                  #             + = INITIALIZE T5 RCS-CSM AUTOPILOT
000085:                                                                                                  #  T5PHASE = +0 = PHASE2 OF THE T5 PROGRAM
000086:                                                                                                  #             - = RESTART DAP
000087:                                                                                                  #            -0 = PHASE1 OF THE T5 PROGRAM
000088:
000089: 21,2170           11464        SETT5              CCS      T5PHASE
000090: 21,2171           12551                           TCF      FRESHDAP                              #  TURN ON AUTOPILOT
000091: 21,2172           12674                           TCF      T5PHASE2                              #  BRANCH TO PHASE2 OF PROGRAM
000092: 21,2173           12553                           TCF      REDAP                                 #  RESTART AUTOPILOT
000093:
000094: 21,2174           55464                           TS       T5PHASE                               #  PHASE 1  RESET  FOR PHASE 2
000095: 21,2175           30030                           CA       TIME5
000096: 21,2176           55634                           TS       T5TIME                                #  USED IN COMPENSATING FOR DELAYS IN T5
000097: 21,2177           37663                           CAF      DELTATT2                              #  RESET FOR T5RUPT IN 20MS FOR PHASE2
000098: 21,2200           54030                           TS       TIME5                                 #  OF PROGRAM
000099:


000101:
000102:                                                                                                  #  IMU STATUS CHECK
000103:
000104: 21,2201           41334                           CS       IMODES33                              #  CHECK IMU STATUS
000105: 21,2202           74763                           MASK     NOIMUDAP                              #  BIT6 = 0 IMU OK
000106: 21,2203           10000                           CCS      A                                     #  BIT6 = 1 NO IMU
000107: 21,2204           12215                           TCF      RATEFILT
000108: 21,2205           41501        FREECHK            CS       RCSFLAGS                              #  BIT14 INDICATES THAT RATES HAVE NOT BEEN
000109: 21,2206           74753                           MASK     BIT14                                 #  INITIALIZED
000110: 21,2207           27501                           ADS      RCSFLAGS
000111: 21,2210           34753                           CAF      BIT14                                 #  NO ATTITUDE REFERENCE
000112: 21,2211           55340                           TS       HOLDFLAG                              #  STOP ANY AUTOMATIC STEERING AND PREPARE
000113:                                                                                                  #  TO PICK UP CDU ANGLES UPON RESUMPTION OF
000114:                                                                                                  #  ATTITUDE HOLD
000115: 21,2212           05654                           TC       C31BTCHK                              #  CHECK FOR FREE MODE
000116: 21,2213           12424                           TCF      KRESUME1                              #  IN FREE, PROVIDE FREE CONTROL ONLY
000117: 21,2214           12541                           TCF      REINIT                                #  .....TILT...............................
000118: 21,2215     5001               BITS4,5            =        BITS4&5
000119:
000120: 21,2215           31501        RATEFILT           CA       RCSFLAGS                              #  SEE IF RATEFILTER HAS BEEN INITIALIZED
000121: 21,2216           74753                           MASK     BIT14
000122: 21,2217           00006                           EXTEND                                         #  IF SO, PROCEED WITH RATE DERIVATION
000123: 21,2220           12222                           BZF      +2
000124: 21,2221           12355                           TCF      KMATRIX                               #  IF NOT, SKIP RATE DERIVATION
000125:
000126:                                                                                                  #                RATE FILTER     TIMING = 7.72 MS
000127:
000128:                                                                                                  #  RATE FILTER EQUATIONS
000129:                                                                                                  #  DRHO = DELRHO - (.1)ADOT + (1 - GAIN1)DRHO
000130:                                                                                                  #                                            -1
000131:                                                                                                  #  ADOT = ADOT   + GAIN2 DRHO + KMJ DFT
000132:                                                                                                  #             -1
000133:                                                                                                  #        -        *     -     -
000134:                                                                                                  #  WHERE DELRHO = AMGB (CDU - CDU  )
000135:                                                                                                  #                                -1
000136:
000137: 21,2222           34767                 +2        CAF      TWO
000138: 21,2223           55506        DRHOLOOP           TS       SPNDX
000139: 21,2224           60000                           DOUBLE
000140: 21,2225           55507                           TS       DPNDX
000141: 21,2226           51507                           INDEX    DPNDX
000142: 21,2227           41552                           CS       DRHO                                  #  DRHO SCALED 180 DEGS
000143: 21,2230           00006                           EXTEND
000144: 21,2231           51617                           INDEX    ATTKALMN                              #  PICK UP DESIRED FILTER GAIN
000145: 21,2232           73121                           MP       GAIN1
000146: 21,2233           51507                           INDEX    DPNDX
000147: 21,2234           21553                           DAS      DRHO                                  #  (1 -.064) DRHO
000148: 21,2235           00006                           EXTEND
000149: 21,2236           51507                           INDEX    DPNDX
000150: 21,2237           41534                           DCS      ADOT


000152: 21,2240           53511                           DXCH     KMPAC                                 #  -(.1)ADOT
000153: 21,2241           34754                           CA       QUARTER
000154: 21,2242           02060                           TC       SMALLMP
000155: 21,2243           53511                           DXCH     KMPAC
000156: 21,2244           51507                           INDEX    DPNDX
000157: 21,2245           21553                           DAS      DRHO
000158: 21,2246           11506                           CCS      SPNDX
000159: 21,2247           12223                           TCF      DRHOLOOP
000160:
000161: 21,2250           30032                           CA       CDUX                                  #  MEASURED BODY RATES--
000162: 21,2251           57635                           XCH      RHO
000163: 21,2252           00006                           EXTEND
000164: 21,2253           21635                           MSU      RHO                                   #  -        *     -     -
000165: 21,2254           40000                           COM                                            #  DELRHO = AMGB (CDU - CDU  )
000166:                                                                                                  #                          -1
000167: 21,2255           22007                           ZL
000168: 21,2256           53516                           DXCH     DELTEMPX
000169: 21,2257           30033                           CA       CDUY
000170: 21,2260           57636                           XCH      RHO1
000171: 21,2261           00006                           EXTEND
000172: 21,2262           21636                           MSU      RHO1
000173: 21,2263           40000                           COM
000174: 21,2264           55502                           TS       T5TEMP                                #  (CDUY - RHO1)    SCALED 90 DEGS
000175: 21,2265           00006                           EXTEND
000176: 21,2266           71640                           MP       AMGB1
000177: 21,2267           21516                           DAS      DELTEMPX                              #  DELTEMPX = (CDUX-RHO) + AMGB1(CDUY-RHO1)
000178:                                                                                                  #  MUST BE DOUBLE PRECISION OR WILL LOSE
000179:                                                                                                  #  PULSES
000180: 21,2270           31641                           CA       AMGB4
000181: 21,2271           00006                           EXTEND
000182: 21,2272           71502                           MP       T5TEMP
000183: 21,2273           53520                           DXCH     DELTEMPY
000184: 21,2274           31643                           CA       AMGB7
000185: 21,2275           00006                           EXTEND
000186: 21,2276           71502                           MP       T5TEMP
000187: 21,2277           53522                           DXCH     DELTEMPZ
000188: 21,2300           30034                           CA       CDUZ
000189: 21,2301           57637                           XCH      RHO2
000190: 21,2302           00006                           EXTEND
000191: 21,2303           21637                           MSU      RHO2
000192: 21,2304           40000                           COM
000193: 21,2305           55502                           TS       T5TEMP                                #  (CDUZ - RHO2)    SCALED 90 DEGS
000194: 21,2306           00006                           EXTEND
000195: 21,2307           71642                           MP       AMGB5
000196: 21,2310           21520                           DAS      DELTEMPY                              #  DELTEMPY = AMGB4(CDUY-RHO1)
000197:                                                                                                  #                   + AMGB5(CDUZ-RHO2)
000198: 21,2311           31644                           CA       AMGB8
000199: 21,2312           00006                           EXTEND
000200: 21,2313           71502                           MP       T5TEMP
000201: 21,2314           21522                           DAS      DELTEMPZ                              #  DELTEMPZ = AMGB7(CDUY-RHO1)


000203:                                                                                                  #                  + AMGB8(CDUZ-RHO2)
000204: 21,2315           34767                           CAF      TWO
000205: 21,2316           55506        ADOTLOOP           TS       SPNDX
000206: 21,2317           60000                           DOUBLE
000207: 21,2320           55507                           TS       DPNDX
000208: 21,2321           00006                           EXTEND
000209: 21,2322           51507                           INDEX    DPNDX
000210: 21,2323           31516                           DCA      DELTEMPX
000211: 21,2324           51507                           INDEX    DPNDX
000212: 21,2325           21553                           DAS      DRHO
000213: 21,2326           00006                           EXTEND
000214: 21,2327           51507                           INDEX    DPNDX
000215: 21,2330           31516                           DCA      DELTEMPX
000216: 21,2331           51507                           INDEX    DPNDX
000217: 21,2332           21542                           DAS      MERRORX
000218: 21,2333           51507                           INDEX    DPNDX
000219: 21,2334           31552                           CA       DRHO
000220: 21,2335           60000                           DOUBLE                                         #  N.B.
000221: 21,2336           60000                           DOUBLE                                         #  N.B.
000222: 21,2337           00006                           EXTEND
000223: 21,2340           51617                           INDEX    ATTKALMN                              #  PICK UP DESIRED FILTER GAINS
000224: 21,2341           73137                           MP       GAIN2
000225: 21,2342           51507                           INDEX    DPNDX                                 #  ADOT   + (.16)(.1)DRHO
000226: 21,2343           21534                           DAS      ADOT                                  #      -1
000227: 21,2344           51506                           INDEX    SPNDX                                 #  S/C TORQUE TO INERTIA RATIO
000228: 21,2345           31620                           CA       KMJ                                   #  SCALED (450)(1600)/(57.3)(16384)=1/1.3
000229: 21,2346           00006                           EXTEND
000230: 21,2347           51506                           INDEX    SPNDX
000231: 21,2350           71547                           MP       DFT
000232: 21,2351           51507                           INDEX    DPNDX
000233: 21,2352           21534                           DAS      ADOT                                  #  KMJ(DFT)
000234: 21,2353           11506                           CCS      SPNDX
000235: 21,2354           12316                           TCF      ADOTLOOP                              #  END CALCULATION OF VEHICLE RATES
000236: 21,2355           31560        KMATRIX            CA       ATTSEC
000237: 21,2356           74777                           MASK     LOW4
000238: 21,2357           10000                           CCS      A
000239: 21,2360           12366                           TCF      TENTHSEK
000240: 21,2361           37656                           CAF      PRIO34                                #  CALL FOR 1 SEC UPDATE OF TRANSFORMATION
000241: 21,2362           05121                           TC       NOVAC                                 #  MATRIX FROM GIMBAL AXES TO BODY AXES
000242: 21,2363  E6,1510                                  EBANK=   KMPAC
000243: 21,2363           03560 44066                     2CADR    AMBGUPDT
000244:
000245: 21,2365           34322                           CAF      NINE
000246:
000247: 21,2366           55560        TENTHSEK           TS       ATTSEC
000248:


000250:                                                                                                  #  WHEN AUTOMATIC MANEUVERS ARE BEING PERFORMED, THE FOLLOWING ANGLE ADDITION MUST BE MADE TO PROVIDE A SMOOTH
000251:                                                                                                  #  SEQUENCE OF ANGULAR COMMANDS TO THE AUTOPILOT--
000252:
000253:                                                                                                  #        CDUXD = CDUXD + DELCDUX         (DOUBLE PRECISION)
000254:                                                                                                  #        CDUYD = CDUYD + DELCDUY         (DOUBLE PRECISION)
000255:                                                                                                  #        CDUZD = CDUZD + DELCDUZ         (DOUBLE PRECISION)
000256:
000257:                                                                                                  #  THE STEERING PROGRAMS-
000258:                                                                                                  #        1) ATTITUDE MANEUVER ROUTINE
000259:                                                                                                  #        2) LEM TRACKING
000260:
000261:                                                                                                  #  SHOULD GENERATE THE DESIRED ANGLES (CDUXD, CDUYD, CDUZD) AS WELL AS THE INCREMENTAL ANGLES (DELCDUX, DELCDUY,
000262:                                                                                                  #  DELCDUZ) SO THAT THE GIMBAL ANGLE COMMANDS CAN BE INTERPOLATED BETWEEN UPDATES.
000263:
000264:                                                                                                  #  HOLDFLAG CODING-
000265:
000266:                                                                                                  #      + = GRAB PRESENT CDU ANGLES AND STORE IN THETADX, THETADY, THETADZ
000267:                                                                                                  #          AND PERFORM ATTITUDE HOLD ABOUT THESE ANGLES
000268:                                                                                                  #          ALSO IGNORE AUTOMATIC STEERING
000269:                                                                                                  #          SET = + BY
000270:                                                                                                  #                 1) INITIALIZATION PHASE OF AUTOPILOT
000271:                                                                                                  #                 2) OCCURANCE OF RHC COMMANDS
000272:                                                                                                  #                 3) FREE MODE
000273:                                                                                                  #                 4) SWITCH OVER TO ATTITUDE HOLD FROM AUTO
000274:                                                                                                  #                    WHILE DOING AUTOMATIC STEERING (IN THIS CASE
000275:                                                                                                  #                    HOLDFLAG IS NOT ACTUALLY SET TO +, BUT THE LOGIC
000276:                                                                                                  #                    FUNCTIONS AS IF IT WERE.)
000277:                                                                                                  #                 5) S/C CONTROL SWITCH IN SCS
000278:                                                                                                  #                 6) IMU POWER OFF
000279:                                                                                                  #      +0 = IN ATTITUDE HOLD ABOUT A PREVIOUSLY ESTABLISHED REFERENCE
000280:                                                                                                  #       - = PERFORMING AUTOMATIC MANEUVER
000281:                                                                                                  #      -0 = NOT USED AT PRESENT
000282:
000283:                                                                                                  #        NOTE THAT THIS FLAG MUST BE  SET = -  BY THE STEERING PROGRAM IF IT IS TO COMMAND THE AUTOPILOT.
000284:                                                                                                  #  SINCE ASTRONAUT ACTION MAY CHANGE THE HOLDFLAG SETTING, IT SHOULD BE MONITORED BY THE STEERING PROGRAM TO
000285:                                                                                                  #  DETERMINE IF THE AUTOMATIC SEQUENCE HAS BEEN INTERRUPTED AND IF SO, TAKE APPROPRIATE ACTION.
000286:
000287:
000288: 21,2367           41340                           CS       HOLDFLAG
000289: 21,2370           00006                           EXTEND
000290: 21,2371           62416                           BZMF     DACNDLS                               #  IF HOLDFLAG +0,-0,+, BYPASS AUTOMATIC
000291:                                                                                                  #  COMMANDS
000292: 21,2372           34767        DCDUINCR           CAF      TWO
000293: 21,2373           55506        DELOOP             TS       SPNDX
000294: 21,2374           60000                           DOUBLE
000295: 21,2375           55507                           TS       DPNDX
000296: 21,2376           00006                           EXTEND
000297: 21,2377           50000                           INDEX    A
000298: 21,2400           31647                           DCA      CDUXD


000300: 21,2401           53511                           DXCH     KMPAC
000301: 21,2402           00006                           EXTEND
000302: 21,2403           51507                           INDEX    DPNDX
000303: 21,2404           31576                           DCA      DELCDUX
000304: 21,2405           02072                           TC       DPADD
000305: 21,2406           00006                           EXTEND
000306: 21,2407           31511                           DCA      KMPAC
000307: 21,2410           51506                           INDEX    SPNDX
000308: 21,2411           55572                           TS       THETADX
000309: 21,2412           51507                           INDEX    DPNDX
000310: 21,2413           53647                           DXCH     CDUXD
000311: 21,2414           11506                           CCS      SPNDX
000312: 21,2415           12373                           TCF      DELOOP
000313:


000315:
000316:                                                                                                  #  RCS-CSM AUTOPILOT ATTITUDE ERROR DISPLAY
000317:
000318:                                                                                                  #  THREE TYPES OF ATTITUDE ERRORS MAY BE DISPLAYED ON THE FDAI-
000319:
000320:                                                                                                  #                MODE 1) AUTOPILOT FOLLOWING ERRORS              SELECTED BY V61E
000321:                                                                                                  #                        GENERATED INTERNALLY BY THE AUTOPILOT
000322:
000323:                                                                                                  #                MODE 2) TOTAL ATTITUDE ERRORS                   SELECTED BY V62E
000324:                                                                                                  #                        WITH RESPECT TO THE CONTENTS OF N22
000325:
000326:                                                                                                  #                MODE 3) TOTAL ASTRONAUT ATTITUDE ERRORS         SELECTED BY V63E
000327:                                                                                                  #                        WITH RESPECT TO THE CONTENTS OF N17
000328:
000329:                                                                                                  #  MODE 1 IS PROVIDED AS A MONITOR OF THE RCS DAP AND ITS ABILITY TO TRACK AUTOMATIC STEERING COMMANDS.  IN THIS
000330:                                                                                                  #  MODE THE ATTITUDE ERRORS WILL BE ZEROED WHEN THE CMC MODE SWITCH IS IN FREE
000331:
000332:                                                                                                  #  MODE 2 IS PROVIDED TO ASSIST THE CREW IN MANUALLY MANEUVERING THE S/C TO THE ATTITUDE (GIMBAL ANGLES) SPECIFIED
000333:                                                                                                  #  IN N22.  THE ATTITUDE ERRORS WRT THESE ANGLES AND THE CURRENT CDU ANGLES ARE RESOLVED INTO S/C CONTROL AXES
000334:                                                                                                  #  AS A FLY-TO INDICATOR.
000335:
000336:                                                                                                  #  MODE 3 IS PROVIDED TO ASSIST THE CREW IN MANUALLY MANEUVERING THE S/C TO THE ATTITUDE (GIMBAL ANGLES) SPECIFIED
000337:                                                                                                  #  IN N17.  THE ATTITUDE ERRORS WRT THESE ANGLES AND THE CURRENT CDU ANGLES ARE RESOLVED INTO S/C CONTROL AXES
000338:                                                                                                  #  AS A FLY-TO INDICATOR.
000339:
000340:                                                                                                  #     V60 IS PROVIDED TO LOAD N17 WITH A SNAPSHOT OF THE CURRENT CDU ANGLES, THUS SYNCHRONIZING THE MODE 3 DISPLAY
000341:                                                                                                  #  WITH THE CURRENT S/C ATTITUDE.  THIS VERB MAY BE USED AT ANY TIME.
000342:
000343:                                                                                                  #     THESE DISPLAYS WILL BE AVAILIABLE IN ANY MODE (AUTO, HOLD, FREE, G+N, OR SCS) ONCE THE RCS DAP HAS BEEN
000344:                                                                                                  #  INITIATED VIA V46E.  MODE 1, HOWEVER, WILL BE MEANINGFUL ONLY IN G+N AUTO OR HOLD.  THE CREW MAY PRESET (VIA
000345:                                                                                                  #  V25N17) AN ATTITUDE REFERENCE (DESIRED GIMBAL ANGLES) INTO N17 AT ANY TIME.
000346:
000347: 21,2416           41501        DACNDLS            CS       RCSFLAGS                              #  ALTERNATE  BETWEEN FDAIDSP1 AND FDAIDSP2
000348: 21,2417           74765                           MASK     BIT4
000349: 21,2420           00006                           EXTEND
000350: 21,2421           13202                           BZF      FDAIDSP2
000351:
000352: 21,2422           27501        FDAIDSP1           ADS      RCSFLAGS
000353: 21,2423           02425                           TC       NEEDLER
000354: 21,2424           15323        KRESUME1           TCF      RESUME                                #  END PHASE 1
000355:


000357:
000358:                                                                                                  #  FDAI ATTITUDE ERROR DISPLAY SUBROUTINE
000359:
000360:                                                                                                  #  PROGRAM DESCRIPTION:    D. KEENE   5/24/67
000361:
000362:                                                                                                  #      THIS SUBROUTINE IS USED TO DISPLAY ATTITUDE ERRORS ON THE FDAI VIA THE DIGITAL TO ANALOG CONVERTERS (DACS)
000363:                                                                                                  #  IN THE CDUS.  CARE IS TAKEN TO METER OUT THE APPROPRIATE NUMBER OF PULSES TO THE IMU ERROR COUNTERS AND PREVENT
000364:                                                                                                  #  OVERFLOW, TO CONTROL THE RELAY SEQUENCING, AND TO AVOID INTERFERENCE WITH THE COARSE ALIGN LOOP WHICH ALSO USES
000365:                                                                                                  #  THE DACS.
000366:
000367:
000368:                                                                                                  #  CALLING SEQUENCE:
000369:
000370:                                                                                                  #      DURING THE INITIALIZATION SECTION OF THE USER'S PROGRAM, BIT3 OF RCSFLAGS SHOULD BE SET TO INITIATE THE
000371:                                                                                                  #  TURN-ON SEQUENCE WITHIN THE NEEDLES PROGRAM:
000372:
000373:                                                                                                  #                CS      RCSFLAGS        IN EBANK6
000374:                                                                                                  #                MASK    BIT3
000375:                                                                                                  #                ADS     RCSFLAGS
000376:
000377:                                                                                                  #  THEREAFTER, THE ATTITUDE ERRORS GENERATED BY THE USER SHOULD BE TRANSFERED TO THE FOLLOWING LOCATIONS IN EBANK6:
000378:
000379:                                                                                                  #                AK      SCALED 180 DEGREES  NOTE: THESE LOCATIONS ARE SUBJECT
000380:                                                                                                  #                AK1     SCALED 180 DEGREES        TO CHANGE
000381:                                                                                                  #                AK2     SCALED 180 DEGREES
000382:
000383:                                                                                                  #  FULL SCALED DEFLECTION CORRESPONDS TO 16 7/8 DEGREES OF ATTITUDE ERROR
000384:                                                                                                  #                (= 384 BITS IN IMU ERROR COUNTER)
000385:
000386:                                                                                                  #  A CALL TO NEEDLER WILL THEN UPDATE THE DISPLAY:
000387:
000388:                                                                                                  #                INHINT
000389:                                                                                                  #                TC      IBNKCALL        NOTE: EBANK SHOULD BE SET TO E6
000390:                                                                                                  #                CADR    NEEDLER
000391:                                                                                                  #                RELINT
000392:
000393:                                                                                                  #      THIS PROCESS SHOULD BE REPEATED EACH TIME THE ERRORS ARE UPDATED.  AT LEAST 3 PASSES THRU THE PROGRAM ARE
000394:                                                                                                  #  REQUIRED BEFORE ANYTHING IS ACTUALLY DISPLAYED ON THE ERROR METERS.
000395:                                                                                                  #  NOTE: EACH CALL TO NEEDLER MUST BE SEPARATED BY AT LEAST 50MS TO ASSURE PROPER RELAY SEQUENCING.
000396:
000397:                                                                                                  #  ERASABLE USED:
000398:                                                                                                  #                        AK              CDUXCMD
000399:                                                                                                  #                        AK1             CDUYCMD
000400:                                                                                                  #                        AK2             CDUZCMD
000401:                                                                                                  #                        EDRIVEX         A,L,Q
000402:                                                                                                  #                        EDRIVEY         T5TEMP
000403:                                                                                                  #                        EDRIVEZ         SPNDX
000404:
000405:                                                                                                  #  SWITCHES:             RCSFLAGS        BITS 3,2
000406:
000407:                                                                                                  #  I/O CHANNELS:         CHAN12          BIT 4 (COARSE ALIGN - READ ONLY)


000409:                                                                                                  #                        CHAN12          BIT 6 (IMU ERROR COUNTER ENABLE)
000410:                                                                                                  #                        CHAN14          BIT 13,14,15 (DAC ACTIVITY)
000411:
000412:                                                                                                  #  SIGN CONVENTION<      AK = THETAC - THETA
000413:                                                                                                  #            WHERE       THETAC = COMMAND ANGLE
000414:                                                                                                  #                        THETA = PRESENT ANGLE
000415:
000416: 21,2425           34765        NEEDLER            CAF      BIT4                                  #  CHECK FOR COARSE ALIGN ENABLE
000417: 21,2426           00006                           EXTEND                                         #  IF IN COARSE ALIGN DO NOT USE IMU
000418: 21,2427           02012                           RAND     CHAN12                                #  ERROR COUNTERS. DONT USE NEEDLES
000419: 21,2430           00006                           EXTEND
000420: 21,2431           12436                           BZF      NEEDLER1
000421: 21,2432           41501        RCSINT             CS       RCSFLAGS                              #  SET BIT3 FOR INITIALIZATION PASS
000422: 21,2433           74766                           MASK     BIT3
000423: 21,2434           27501                           ADS      RCSFLAGS
000424: 21,2435           00002                           TC       Q
000425:
000426: 21,2436           31501        NEEDLER1           CA       RCSFLAGS
000427: 21,2437           76211                           MASK     SIX
000428: 21,2440           00006                           EXTEND
000429: 21,2441           12476                           BZF      NEEDLES3
000430: 21,2442           74766                           MASK     BIT3
000431: 21,2443           00006                           EXTEND
000432: 21,2444           12467                           BZF      NEEDLER2                              #  BIT3 = 0, BIT2 = 1
000433:
000434: 21,2445           44763                           CS       BIT6                                  #  FIRST PASS BIT3 = 1
000435: 21,2446           00006                           EXTEND                                         #  DISABLE IMU ERROR COUNTER TO ZERO DACS
000436: 21,2447           03012                           WAND     CHAN12                                #  MUST WAIT AT LEAST 60 MS BEFORE
000437: 21,2450           44772        NEEDLE11           CS       ZERO                                  #  ENABLING COUNTERS.
000438: 21,2451           55476                           TS       AK                                    #  ZERO THE INPUTS ON FIRST PASS
000439: 21,2452           55477                           TS       AK1
000440: 21,2453           55500                           TS       AK2
000441: 21,2454           55503                           TS       EDRIVEX                               #  ZERO THE DISPLAY REGISTERS
000442: 21,2455           55504                           TS       EDRIVEY
000443: 21,2456           55505                           TS       EDRIVEZ
000444: 21,2457           54050                           TS       CDUXCMD                               #  ZERO THE OUT COUNTERS
000445: 21,2460           54051                           TS       CDUYCMD
000446: 21,2461           54052                           TS       CDUZCMD
000447: 21,2462           46211                           CS       SIX                                   #  RESET RCSFLAGS FOR PASS2
000448: 21,2463           71501                           MASK     RCSFLAGS
000449: 21,2464           64767                           AD       BIT2
000450: 21,2465           55501                           TS       RCSFLAGS
000451: 21,2466           00002                           TC       Q                                     #  END PASS1
000452:
000453: 21,2467           34763        NEEDLER2           CAF      BIT6                                  #  ENABLE IMU ERROR COUNTERS
000454: 21,2470           00006                           EXTEND
000455: 21,2471           05012                           WOR      CHAN12
000456: 21,2472           46211                           CS       SIX                                   #  RESET RCSFLAGS TO DISPLAY ATTITUDE


000458: 21,2473           71501                           MASK     RCSFLAGS                              #  ERRORS    WAIT AT LEAST 4 MS FOR
000459: 21,2474           55501                           TS       RCSFLAGS                              #  RELAY CLOSURE
000460: 21,2475           00002                           TC       Q
000461:
000462:
000463: 21,2476           34763        NEEDLES3           CAF      BIT6                                  #  CHECK TO SEE IF IMU ERROR COUNTER
000464: 21,2477           00006                           EXTEND                                         #  IS ENABLED
000465: 21,2500           02012                           RAND     CHAN12
000466: 21,2501           00006                           EXTEND                                         #  IF NOT RECYCLE NEEDLES
000467: 21,2502           12432                           BZF      RCSINT
000468: 21,2503           34767        NEEDLES            CAF      TWO
000469: 21,2504           55506        DACLOOP            TS       SPNDX
000470: 21,2505           44754                           CS       QUARTER
000471: 21,2506           00006                           EXTEND
000472: 21,2507           51506                           INDEX    SPNDX
000473: 21,2510           71476                           MP       AK
000474: 21,2511           54001                           TS       L
000475: 21,2512           10000                           CCS      A
000476: 21,2513           32547                           CA       DACLIMIT
000477: 21,2514           12516                           TCF      +2
000478: 21,2515           42547                           CS       DACLIMIT
000479: 21,2516           60001                           AD       L
000480: 21,2517           55502                           TS       T5TEMP                                #  OVFLO CHK
000481: 21,2520           12524                           TCF      OVSPOT
000482: 21,2521           50000                           INDEX    A                                     #  ON OVERFLOW LIMIT OUTPUT TO +-384
000483: 21,2522           32547                           CAF      DACLIMIT
000484: 21,2523           54001                           TS       L
000485: 21,2524           51506        OVSPOT             INDEX    SPNDX
000486: 21,2525           41503                           CS       EDRIVEX                               #  CURRENT VALUE OF DAC
000487: 21,2526           60001                           AD       L
000488: 21,2527           51506                           INDEX    SPNDX
000489: 21,2530           26050                           ADS      CDUXCMD
000490: 21,2531           51506                           INDEX    SPNDX
000491: 21,2532           23503                           LXCH     EDRIVEX
000492: 21,2533           11506                           CCS      SPNDX
000493: 21,2534           12504                           TCF      DACLOOP
000494: 21,2535           37673                           CAF      13,14,15
000495: 21,2536           00006                           EXTEND
000496: 21,2537           05014        DRIVEDAC           WOR      CHAN14                                #  SET DAC ACTIVITY BITS
000497: 21,2540           00002                           TC       Q
000498:
000499: 21,2541           32545        REINIT             CAF      DELAY200                              #  ........TILT LOGIC
000500: 21,2542           54030                           TS       TIME5                                 #  REINITIALIZE DAP IN 200MS
000501: 21,2543           55464                           TS       T5PHASE
000502: 21,2544           15323                           TCF      RESUME
000503: 21,2545           37754        DELAY200           DEC      16364      B-14                       #  200MS
000504:
000505:
000506: 21,2546           77177                           DEC      -384       B-14
000507: 21,2547           37200        DACLIMIT           DEC      16000      B-14


000509: 21,2550           00600                           DEC      384        B-14
000510:


000512:
000513:                                                                                                  #  INITIALIZATION PROGRAM FOR RCS-CSM AUTOPILOT
000514:
000515:                                                                                                  #  THE FOLLOWING QUANTITIES WILL BE ZEROED AND SHOULD APPEAR IN CONSECUTIVE LOCATIONS IN MEMORY AFTER WBODY
000516:
000517:                                                                                                  #  WBODY   (+1)    DFT             TAU2
000518:                                                                                                  #  WBODY1  (+1)    DFT1            BIAS
000519:                                                                                                  #  WBODY2  (+1)    DFT2            BIAS1
000520:                                                                                                  #  ADOT    (+1)    DRHO   (+1)     BIAS2
000521:                                                                                                  #  ADOT1   (+1)    DRHO1  (+1)     ERRORX
000522:                                                                                                  #  ADOT2   (+1)    DRHO2  (+1)     ERRORY
000523:                                                                                                  #  MERRORX (+1)    ATTSEC          ERRORZ
000524:                                                                                                  #  MERRORY (+1)    TAU
000525:                                                                                                  #  MERRORZ (+1)    TAU1
000526:
000527: 21,2551           34770        FRESHDAP           CAF      ONE                                   #  RESET HOLDFLAG TO STOP AUTOMATIC
000528: 21,2552           55340                           TS       HOLDFLAG                              #  STEERING AND PREPARE TO PICK UP AN
000529:                                                                                                  #  ATTITUDE HOLD REFERENCE
000530:
000531: 21,2553           04714        REDAP              TC       IBNKCALL                              #  DECODE DAPDATR1, DAPDATR2 FOR DEADBANDS
000532: 21,2554           40463                           CADR     S41.2                                 #  RATES, QUADFAILS, QUAD MANAGEMENT
000533:
000534: 21,2555           04714                           TC       IBNKCALL                              #  DECODE IXX, IAVG AND CONVERT
000535: 21,2556           40614                           CADR     S40.14                                #  TO AUTOPILOT GAINS
000536:
000537: 21,2557           32633                           CAF      NO.T5VAR                              #  NO. LOCATIONS TO BE ZEROED MINUS 2
000538:                                                                                                  #  NO.T5VAR MUST BE ODD *************
000539: 21,2560           10000        ZEROT5             CCS      A
000540: 21,2561           55506                           TS       SPNDX
000541: 21,2562           34772                           CAF      ZERO
000542: 21,2563           54001                           TS       L
000543: 21,2564           51506                           INDEX    SPNDX
000544: 21,2565           53527                           DXCH     WBODY      +1
000545: 21,2566           11506                           CCS      SPNDX
000546: 21,2567           12560                           TCF      ZEROT5
000547: 21,2570           55525                           TS       WBODY                                 #  ZERO LAST (FIRST) ONE
000548:
000549: 21,2571           02642                           TC       ZEROJET
000550: 21,2572           44772                           CS       ZERO
000551: 21,2573           55633                           TS       CHANTEMP                              #  INITIALIZE MINIMUM IMPULSE CONTROL
000552:
000553: 21,2574           55632                           TS       CH31TEMP                              #  INITIALIZE RHC POSITION MEMORY FOR
000554:                                                                                                  #  MANUAL RATE MODES
000555:
000556: 21,2575           32634                           CAF      =.24
000557: 21,2576           55654                           TS       SLOPE                                 #  INITIALIZE SWITCHING LOGIC SLOPE
000558:
000559: 21,2577           34766                           CAF      FOUR
000560: 21,2600           55634                           TS       T5TIME                                #  PHASE 0 RESETS FOR PHASE 2 INTERRUPT IN
000561:                                                                                                  #  60 MS. PHASE 2 RESETS FOR PHASE 1 RUPT
000562:                                                                                                  #  IN (80MS - T5TIME(40MS)). THEREFORE
000563:                                                                                                  #  PHASE 1 (RATEFILTER) BEGINS CYCLING 100
000564:                                                                                                  #  MS FROM NOW AND EVERY 100MS THEREAFTER


000566: 21,2601           34775                           CAF      ELEVEN
000567: 21,2602           55617                           TS       ATTKALMN                              #  RESET TO PICK UP KALMAN FILTER GAINS
000568:                                                                                                  #  TO INITIALIZE THE S/C ANGULAR RATES
000569: 21,2603           30032                           CA       CDUX
000570: 21,2604           55635                           TS       RHO
000571: 21,2605           30033                           CA       CDUY
000572: 21,2606           55636                           TS       RHO1
000573: 21,2607           30034                           CA       CDUZ
000574: 21,2610           55637                           TS       RHO2
000575: 21,2611           34772                           CAF      ZERO                                  #  RESET AUTOPILOT TO BEGIN EXECUTING
000576: 21,2612           55464                           TS       T5PHASE                               #  PHASE2 OF PROGRAM
000577:
000578: 21,2613           41334                           CS       IMODES33                              #  CHECK IMU STATUS
000579: 21,2614           74763                           MASK     NOIMUDAP                              #  IF BIT6 =0 IMU IN FINE ALIGN
000580: 21,2615           10000                           CCS      A                                     #  IF BIT6 = 1 IMU NOT READY
000581: 21,2616           12622                           TCF      IMUAOK
000582: 21,2617           55617                           TS       ATTKALMN                              #  CANNOT USE IMU
000583: 21,2620           32635                           CAF      RCSINITB                              #  PROVIDE FREE CONTROL ONLY
000584: 21,2621           12627                           TCF      RCSSWIT                               #  DONT START UP RATE FILTER
000585:                                                                                                  #  SIGNAL NO RATE FILTER
000586:
000587: 21,2622           37656        IMUAOK             CAF      PRIO34                                #  START MATRIX INITIALIZATION
000588: 21,2623           05121                           TC       NOVAC                                 #  BYPASS IF IMU NOT IN FINE ALIGN
000589: 21,2624  E6,1510                                  EBANK=   KMPAC
000590: 21,2624           03560 44066                     2CADR    AMBGUPDT
000591:
000592: 21,2626           34766                           CAF      RCSINIT                               #  CLEAR BIT14 -ASSUME WE HAVE A GOOD IMU
000593: 21,2627           55501        RCSSWIT            TS       RCSFLAGS                              #  CLEAR BIT1  -INITIALIZE T6 PROGRAM
000594:                                                                                                  #    SET BIT3  -INITIALIZE NEEDLES
000595:                                                                                                  #  CLEAR BIT4  -RESET FOR FDAIDSP1
000596: 21,2630           32636                           CAF      T5WAIT60                              #  NEXT T5RUPT 60 MS FROM NOW TO ALLOW IMU
000597:                                                                                                  #  ERROR COUNTER TO ZERO.
000598:                                                                                                  #  (MINIMUM DELAY = 15 MS)
000599: 21,2631           54030                           TS       TIME5                                 #  SINCE ATTKALMN IS +11, PROGRAM WILL THEN
000600: 21,2632           05323                           TC       RESUME                                #  PICK UP THE KALMAN FILTER GAINS. RATE
000601:                                                                                                  #  FILTER WILL BEGIN OPERATING ZOOMS FROM
000602:                                                                                                  #  NOW
000603:
000604:                                                                                                  #  CONSTANTS USED IN INITIALIZATION PROGRAM
000605:
000606:
000607: 21,2633           00043        NO.T5VAR           DEC      35         B-14                       #  NO. OF LOCATIONS TO BE ZEROED
000608:                                                                                                  #  MINUS 2...MUST BE ODD
000609:
000610:                                                                                                  #  FOR AN EVEN NUMBER OF VARIABLES TO BE ZEROED....
000611:                                                                                                  #   * SET NO.T5VAR EQUAL TO NUMBER OF VARIABLES MINUS 1
000612:                                                                                                  #   * DO DXCH WBODY INSTEAD OF WBODY + 1
000613:                                                                                                  #   * DELETE TS WBODY
000614:
000615: 21,2634           07534        =.24               DEC      .24                                   #  = SLOPE OF 0.6/SEC
000616: 21,2635     4766               RCSINIT            =        BIT3
000617: 21,2635           20004        RCSINITB           OCT      20004
000618:


000620:
000621: 21,2636           37772        T5WAIT60           DEC      16378      B-14                       #  = 6 CS
000622: 21,2637  E6,1510                                  EBANK=   KMPAC
000623: 21,2637           03606 36066  T6ADDR             2CADR    T6START
000624:
000625:
000626: 21,2641           62524        -75DEGS            DEC      -.41666                               #  -75 DEGS IN REVS * 2
000627: 21,2642           34775        ZEROJET            CAF      ELEVEN                                #  ZERO  BLAST2, BLAST1, BLAST, YWORD2,
000628: 21,2643           55506                 +1        TS       SPNDX                                 #  YWORD1,PWORD2,PWORD1,RWORD2,
000629: 21,2644           34772                           CAF      ZERO                                  #  AND RWORD1.
000630: 21,2645           51506                           INDEX    SPNDX
000631: 21,2646           55450                           TS       RWORD1
000632: 21,2647           11506                           CCS      SPNDX
000633: 21,2650           12643                           TCF      ZEROJET    +1
000634:
000635: 21,2651           34766                           CAF      FOUR
000636: 21,2652           55461                           TS       BLAST1     +1
000637: 21,2653           34775                           CAF      ELEVEN
000638: 21,2654           55463                           TS       BLAST2     +1
000639:
000640: 21,2655           44770                           CS       BIT1
000641: 21,2656           71501                           MASK     RCSFLAGS
000642: 21,2657           55501                           TS       RCSFLAGS                              #  RESET BIT1 OF RCSFLAGS TO 0
000643:
000644: 21,2660           00006                           EXTEND
000645: 21,2661           32640                           DCA      T6ADDR
000646: 21,2662           52111                           DXCH     T6LOC
000647: 21,2663           33075                           CAF      =+14MS                                #  ENABLE T6RUPT TO SHUT OFF JETS IN 14 MS.
000648: 21,2664           54031                           TS       TIME6
000649: 21,2665           00006                           EXTEND
000650: 21,2666           22070                           QXCH     RUPTREG1
000651: 21,2667           04542                           TC       C13STALL
000652: 21,2670           34752                           CAF      BIT15
000653: 21,2671           00006                           EXTEND
000654: 21,2672           05013                           WOR      CHAN13
000655:
000656: 21,2673           00070                           TC       RUPTREG1
000657:
000658: 21,2674           11617        T5PHASE2           CCS      ATTKALMN                              #  IF (+) INITIALIZE RATE ESTIMATE
000659: 21,2675           13170                           TCF      KALUPDT
000660:
000661:
000662: 21,2676           12700                           TCF      +2                                    #  ONLY IF ATTKALMN POSITIVE
000663: 21,2677           12700                           TCF      +1
000664: 21,2700           37663                           CA       DELTATT2                              #  RESET FOR PHASE3 IN 20 MS
000665: 21,2701           56030                           XCH      TIME5                                 #  (JET SELECTION LOGIC )
000666: 21,2702           27634                           ADS      T5TIME                                #  TO COMPENSATE FOR DELAYS IN T5RUPT
000667:
000668:
000669: 21,2703           10034                           CCS      CDUZ


000671: 21,2704           12710                           TCF      GIMBY                                 #  +(
000672: 21,2705           12717                           TCF      OKGIMB                                #  +0
000673: 21,2706           12710                           TCF      GIMBY                                 #  -N
000674: 21,2707           12717                           TCF      OKGIMB                                #  -0
000675: 21,2710           62641        GIMBY              AD       -75DEGS
000676: 21,2711           00006                           EXTEND
000677: 21,2712           62717                           BZMF     OKGIMB
000678:
000679: 21,2713           05547                           TC       UPFLAG                                #  ATTITUDE HOLD WHEN MIDDLE GIMBAL ANGLE
000680: 21,2714           00020                           ADRES    STIKFLAG                              #    GREATER THAN 75 DEGREES
000681: 21,2715           34772                           CAF      ZERO
000682: 21,2716           55340                           TS       HOLDFLAG
000683:
000684: 21,2717           31501        OKGIMB             CA       RCSFLAGS                              #  IF A HIGH RATE AUTO MANEUVER IS IN
000685: 21,2720           74752                           MASK     BIT15                                 #  PROGRESS (BIT 15 OF RCSFLAGS SET), SET
000686: 21,2721           00006                           EXTEND                                         #  ATTKALMN TO -1
000687: 21,2722           12724                           BZF      NOHIAUTO                              #  OTHERWISE SET ATTKALMN TO 0.
000688: 21,2723           44770                           CS       ONE
000689: 21,2724           55617        NOHIAUTO           TS       ATTKALMN
000690:


000692:
000693:                                                                                                  #        MANUAL ROTATION COMMANDS
000694:
000695: 21,2725           43057                           CS       OCT01760                              #  RESET FORCED FIRING BITS (BITS 10 TO 5
000696: 21,2726           71501                           MASK     RCSFLAGS                              #  OF RCSFLAGS) TO ZERO
000697: 21,2727           55501                           TS       RCSFLAGS
000698:
000699: 21,2730           00006                           EXTEND
000700: 21,2731           00031                           READ     CHAN31
000701: 21,2732           54001                           TS       L
000702: 21,2733           31632                           CA       CH31TEMP
000703: 21,2734           00006                           EXTEND
000704: 21,2735           06001                           RXOR     LCHAN
000705: 21,2736           73063                           MASK     MANROT                                #  = OCT00077
000706: 21,2737           00006                           EXTEND
000707: 21,2740           62753                           BZMF     NOCHANGE
000708:
000709: 21,2741           22000                           LXCH     A
000710: 21,2742           55632                           TS       CH31TEMP                              #  SAVE CONTENTS OF CHANNEL 31 IN CH31TEMP
000711:
000712: 21,2743           30001                           CA       L
000713: 21,2744           00006                           EXTEND
000714: 21,2745           74764                           MP       BIT5                                  #  PUT BITS 6-1 OF A IN BITS 10-5 OF L
000715: 21,2746           30001                           CA       L
000716: 21,2747           27501                           ADS      RCSFLAGS                              #  SET FORCED FIRING BITS FOR AXES WITH
000717:                                                                                                  #  WITH CHANGES IN COMMAND. BITS 10,9 FOR
000718:                                                                                                  #  ROLL, BITS 8,7 FOR YAW, BITS 6,5 FOR
000719:                                                                                                  #  PITCH
000720:
000721: 21,2750           41501                           CS       RCSFLAGS                              #  SET RATE DAMPING FLAGS (BITS 13,12,AND
000722: 21,2751           73064                           MASK     OCT16000                              #  11 OF RCSFLAGS)
000723: 21,2752           27501                           ADS      RCSFLAGS
000724:
000725: 21,2753           41632        NOCHANGE           CS       CH31TEMP
000726: 21,2754           73063                           MASK     MANROT
000727: 21,2755           00006                           EXTEND
000728: 21,2756           63272                           BZMF     AHFNOROT                              #  IF NO MANUAL COMMANDS, GO TO AHFNOROT
000729:
000730: 21,2757           55340                           TS       HOLDFLAG                              #  SET HOLDFLAG +
000731:
000732: 21,2760           03152                           TC       STICKCHK                              #  WHEN THE RHC IS OUT OF DETENT, PMANNDX,
000733:                                                                                                  #  YMANNDX, AND RMANNDX ARE ALL SET, BY
000734:                                                                                                  #  MEANS OF STICKCHK, TO 0, 1, OR 2 FOR NO,
000735:                                                                                                  #  +, OR - ROTATION RESPECTIVELY AS
000736:                                                                                                  #  COMMANDED BY THE RHC.
000737:
000738:                                                                                                  #  HOWEVER, IT IS WELL TO NOTE THAT AFTER
000739:                                                                                                  #  THE RHC IS RETURNED TO DETENT, THE
000740:                                                                                                  #  PROGRAM BRANCHES TO AHFNOROT AND AVOIDS
000741:                                                                                                  #  STICKCHK SO PMANNDX, YMANNDX, AND
000742:                                                                                                  #  RMANNDX ARE NOT RESET TO ZERO BUT RATHER
000743:                                                                                                  #  LEFT SET TO THEIR LAST OUT OF DETENT


000745:                                                                                                  #  VALUES.
000746:
000747: 21,2761           40075                           CS       FLAGWRD1                              #  SET STIKFLAG TO INFORM STEERING
000748: 21,2762           74753                           MASK     STIKBIT                               #  PROGRAMS (P20) THAT ASTRONAUT HAS
000749: 21,2763           26075                           ADS      FLAGWRD1                              #  ASSUMED ROTATIONAL CONTROL OF SPACECRAFT
000750:
000751: 21,2764           34753                           CAF      BIT14
000752: 21,2765           05654                           TC       C31BTCHK
000753: 21,2766           13076                           TCF      FREEFUNC
000754: 21,2767           31501                           CA       RCSFLAGS                              #  EXAMINE RCSFLAGS TO SEE IF RATE FILTER
000755: 21,2770           74753                           MASK     BIT14                                 #  HAS BEEN INITIALIZED
000756: 21,2771           10000                           CCS      A                                     #  IF SO, PROCEED WITH MANUAL RATE COMMANDS
000757: 21,2772           12541                           TCF      REINIT                                #  .....TILT, RECYCLE TO INITIALIZE FILTER
000758:
000759: 21,2773           44773                           CS       FIVE                                  #  IF MANUAL MANEUVER IS AT HIGH RATE, SET
000760: 21,2774           60774                           AD       RATEINDX                              #  ATTKALMN TO -1.
000761: 21,2775           00006                           EXTEND                                         #  OTHERWISE, LEAVE ATTKALMN ALONE.
000762: 21,2776           63001                           BZMF     +3
000763: 21,2777           44770                           CS       ONE
000764: 21,3000           55617                           TS       ATTKALMN
000765:
000766:
000767: 21,3001           34767                           CAF      TWO                                   #  AUTO-HOLD MANUAL ROTATION
000768: 21,3002           55506        SETWBODY           TS       SPNDX
000769: 21,3003           60000                           DOUBLE
000770: 21,3004           55507                           TS       DPNDX
000771: 21,3005           51506                           INDEX    SPNDX                                 #  RMANNDX = 0 NO ROTATION
000772: 21,3006           31656                           CA       RMANNDX                               #          = 1  + ROTATION
000773: 21,3007           00006                           EXTEND                                         #          = 2  - ROTATION
000774: 21,3010           13032                           BZF      NORATE                                #  IF NO ROTATION COMMAND ON THIS AXIS,
000775:                                                                                                  #  GO TO NORATE.
000776:
000777: 21,3011           60774                           AD       RATEINDX                              #  RATEINDX = 0  0.05 DEG/SEC
000778: 21,3012           54002                           TS       Q                                     #           = 2  0.2 DEG/SEC
000779: 21,3013           50002                           INDEX    Q                                     #           = 4  0.5 DEG/SEC
000780: 21,3014           33064                           CA       MANTABLE   -1                         #           = 6  2.0 DEG/SEC
000781: 21,3015           00006                           EXTEND
000782: 21,3016           74760                           MP       BIT9                                  #  MULTIPLY MANTABLE BY 2 TO THE -6
000783: 21,3017           51507                           INDEX    DPNDX                                 #  TO GET COMMANDED RATE.
000784: 21,3020           53526                           DXCH     WBODY                                 #  SET WBODY TO COMMANDED RATE.
000785:
000786: 21,3021           31501                           CA       RCSFLAGS
000787: 21,3022           73064                           MASK     OCT16000                              #  IS RATE DAMPING COMPLETED (BITS 13,12 AND
000788: 21,3023           00006                           EXTEND                                         #  11 OF RCSFLAGS ALL ZERO.)  IF SO, GO TO
000789: 21,3024           13042                           BZF      MERUPDAT                              #  MERUPDAT TO UPDATE CUMULATIVE ATTITUDE
000790:                                                                                                  #  ERROR.
000791:
000792: 21,3025           34772        ZEROER             CA       ZERO                                  #  ZEROER ZEROS MERRORS
000793: 21,3026           22007                           ZL
000794: 21,3027           51507                           INDEX    DPNDX


000796: 21,3030           53542                           DXCH     MERRORX
000797: 21,3031           13050                           TCF      SPNDXCHK
000798:
000799: 21,3032           22007        NORATE             ZL
000800: 21,3033           51507                           INDEX    DPNDX
000801: 21,3034           53526                           DXCH     WBODY                                 #  ZERO WBODY FOR THIS AXIS
000802: 21,3035           31501                           CA       RCSFLAGS
000803: 21,3036           73064                           MASK     OCT16000
000804: 21,3037           00006                           EXTEND                                         #  IS RATE DAMPING COMPLETED
000805: 21,3040           13050                           BZF      SPNDXCHK                              #  YES, KEEP CURRENT MERRORX GO TO SPNDXCHK
000806: 21,3041           13025                           TCF      ZEROER                                #  NO, GO TO ZEROER
000807:
000808: 21,3042           50002        MERUPDAT           INDEX    Q                                     #  MERRORX=MERRORX+MEASURED CHANGE IN ANGLE
000809: 21,3043           43064                           CS       MANTABLE   -1                         #  -COMMANDED CHANGE IN ANGLE
000810: 21,3044           00006                           EXTEND                                         #  THE ADDITION OF MEASURED CHANGE IN ANGLE
000811: 21,3045           74762                           MP       BIT7                                  #  HAS ALREADY BEEN DONE IN THE RATE FILTER
000812: 21,3046           51507                           INDEX    DPNDX                                 #  COMMANDED CHANGE IN ANGLE = WBODY TIMES
000813: 21,3047           21542                           DAS      MERRORX                               #  .1SEC = MANTABLE ENTRY TIMES 2 TO THE -8
000814:
000815: 21,3050           51507        SPNDXCHK           INDEX    DPNDX
000816: 21,3051           31541                           CA       MERRORX
000817: 21,3052           51506                           INDEX    SPNDX
000818: 21,3053           55567                           TS       ERRORX                                #  ERRORX = HIGH ORDER WORD OF MERRORX
000819: 21,3054           11506                           CCS      SPNDX
000820: 21,3055           13002                           TCF      SETWBODY
000821: 21,3056           13452                           TCF      JETS
000822:
000823:
000824: 21,3057           01760        OCT01760           OCT      01760                                 #  FORCED FIRING BITS MASK
000825:
000826: 21,3060           01400        OCT01400           OCT      01400                                 #  ROLL FORCED FIRING MASK       ORDER OF
000827: 21,3061           00060        OCT00060           OCT      00060                                 #  PITCH FORCED FIRING MASK      DEFINITION
000828: 21,3062           00300        OCT00300           OCT      00300                                 #  YAW FORCED FIRING MASK        MUST BE
000829:                                                                                                  #                                PRESERVED
000830:                                                                                                  #                              FOR INDEXING
000831: 21,3063           00077        MANROT             OCT      77
000832: 21,3064           16000        OCT16000           OCT      16000                                 #  RATE DAMPING FLAGS MASK
000833: 21,3065           00165        MANTABLE           DEC      .0071111
000834: 21,3066           77612                           DEC      -.0071111
000835: 21,3067           00722                           DEC      .028444
000836: 21,3070           77055                           DEC      -0.028444
000837: 21,3071           02215                           DEC      .071111
000838: 21,3072           75562                           DEC      -.071111
000839: 21,3073           11064                           DEC      .284444
000840: 21,3074           66713                           DEC      -.284444
000841: 21,3075           00027        =+14MS             DEC      23         B-14
000842: 21,3076           31501        FREEFUNC           CA       RCSFLAGS
000843: 21,3077           00006                           EXTEND
000844: 21,3100           74756                           MP       BIT11                                 #  SHIFT RIGHT 4 BITS
000845: 21,3101           55502                           TS       T5TEMP


000847: 21,3102           41632                           CS       CH31TEMP
000848: 21,3103           71502                           MASK     T5TEMP                                #  A= COMPLEMENT OF NEW CH 31 COMMANDS
000849: 21,3104           13320                           TCF      RHCMINP
000850: 21,3105           34772        T6PROGM            CAF      ZERO                                  #  FOR MANUAL ROTATIONS
000851: 21,3106           55567                           TS       ERRORX
000852: 21,3107           55570                           TS       ERRORY
000853: 21,3110           55571                           TS       ERRORZ
000854: 21,3111           13763                           TCF      T6PROG
000855:


000857:
000858: 21,3112           00000        FREETAU            DEC      0          B-14
000859: 21,3113           00740                           DEC      480        B-14
000860: 21,3114           77037                           DEC      -480       B-14
000861: 21,3115           00000                           DEC      0          B-14
000862:
000863:
000864: 21,3116           06604                           DEC      .2112                                 #  FILTER GAIN FOR TRANSLATION, LEM ON
000865: 21,3117           32703                           DEC      .8400                                 #  FILTER GAIN FOR TRANSLATION 2(ZETA)WN DT
000866: 21,3120           06604                           DEC      .2112                                 #  FILTER GAIN FOR 2 DEGREES/SEC MANEUVERS
000867: 21,3121           02031        GAIN1              DEC      .0640                                 #  KALMAN FILTER GAINS FOR INITIALIZATION
000868: 21,3122           12132                           DEC      .3180                                 #  OF ATTITUDE RATES
000869: 21,3123           13030                           DEC      .3452
000870: 21,3124           14047                           DEC      .3774
000871: 21,3125           15241                           DEC      .4161
000872: 21,3126           16650                           DEC      .4634
000873: 21,3127           20555                           DEC      .5223
000874: 21,3130           23065                           DEC      .5970
000875: 21,3131           26137                           DEC      .6933
000876: 21,3132           32053                           DEC      .8151
000877: 21,3133           35712                           DEC      .9342
000878:
000879: 21,3134           00435                           DEC      .0174                                 #  FILTER GAIN FOR TRANSLATION, LEM ON
000880: 21,3135           13412                           DEC      .3600                                 #  FILTER GAIN FOR TRANSLATION (WN)(WN)DT
000881: 21,3136           00435                           DEC      .0174                                 #  FILTER GAIN FOR 2 DEGREES/SEC MANEUVERS
000882: 21,3137           00032        GAIN2              DEC      .0016                                 #  SCALED 10
000883: 21,3140           01350                           DEC      .0454
000884: 21,3141           01575                           DEC      .0545
000885: 21,3142           02103                           DEC      .0666
000886: 21,3143           02523                           DEC      .0832
000887: 21,3144           03327                           DEC      .1069
000888: 21,3145           04432                           DEC      .1422
000889: 21,3146           06264                           DEC      .1985
000890: 21,3147           11351                           DEC      .2955
000891: 21,3150           17324                           DEC      .4817
000892: 21,3151           33622                           DEC      .8683
000893: 21,3152           55502        STICKCHK           TS       T5TEMP
000894: 21,3153           76214                           MASK     THREE                                 #  INDECES FOR MANUAL ROTATION
000895: 21,3154           55657                           TS       PMANNDX
000896: 21,3155           31502                           CA       T5TEMP
000897: 21,3156           00006                           EXTEND                                         #  MAN RATE 0   0 RATE (DP)
000898: 21,3157           74754                           MP       QUARTER                               #           +1   +RATE (DP)
000899: 21,3160           55502                           TS       T5TEMP                                #           +2   -RATE (DP)
000900: 21,3161           76214                           MASK     THREE                                 #          (+3)  0 RATE (DP)
000901: 21,3162           55660                           TS       YMANNDX
000902: 21,3163           31502                           CA       T5TEMP
000903: 21,3164           00006                           EXTEND
000904: 21,3165           74754                           MP       QUARTER
000905: 21,3166           55656                           TS       RMANNDX
000906: 21,3167           00002                           TC       Q


000908:
000909: 21,3170           55617        KALUPDT            TS       ATTKALMN                              #  INITIALIZATION OF ATTITUDE RATES USING
000910:                                                                                                  #  KALMAN FILTER TAKES 1.1 SEC
000911:
000912: 21,3171           32167                           CA       DELTATT                               #  =1SEC - 80MS
000913: 21,3172           61634                           AD       T5TIME                                #  + DELAYS
000914: 21,3173           54030                           TS       TIME5
000915: 21,3174           13177                           TCF      +3
000916: 21,3175           37663                           CAF      DELTATT2                              #  SAFETY PLAY TO ASSURE
000917: 21,3176           54030                           TS       TIME5                                 #  A T5RUPT
000918:
000919:
000920: 21,3177           44772        KRESUME2           CS       ZERO                                  #  RESET FOR PHASE1
000921: 21,3200           55464                           TS       T5PHASE                               #  RESUME INTERRUPTED PROGRAM
000922: 21,3201           15323                           TCF      RESUME
000923:
000924:
000925: 21,3202           44765        FDAIDSP2           CS       BIT4                                  #  RESET FOR FDAIDSP1
000926: 21,3203           71501                           MASK     RCSFLAGS
000927: 21,3204           55501                           TS       RCSFLAGS
000928:
000929: 21,3205           40074                           CS       FLAGWRD0                              #  ON - DISPLAY ONE OF THE TOTAL ATTITUDE
000930: 21,3206           74760                           MASK     NEEDLBIT                              #  ERRORS
000931: 21,3207           00006                           EXTEND
000932: 21,3210           13217                           BZF      FDAITOTL
000933: 21,3211           00006                           EXTEND
000934: 21,3212           41570                           DCS      ERRORX                                #  OFF - DISPLAY AUTOPILOT FOLLOWING ERROR
000935: 21,3213           53477                           DXCH     AK
000936: 21,3214           41571                           CS       ERRORZ
000937: 21,3215           55500                           TS       AK2
000938: 21,3216           15323                           TCF      RESUME                                #  END PHASE 1
000939:
000940:
000941: 21,3217           30105        FDAITOTL           CA       FLAGWRD9
000942: 21,3220           74763                           MASK     N2217BIT
000943: 21,3221           00006                           EXTEND
000944: 21,3222           13265                           BZF      WRTN17                                #  IS N22ORN17 (BIT6 OF FLAGWRD9) = 0
000945:                                                                                                  #  IF SO, GO TO WRTN17
000946: 21,3223           00006        WRTN22             EXTEND                                         #  OTHERWISE, CONTINUE ON TO WRTN22 AND
000947: 21,3224           31311                           DCA      CTHETA                                #  GET SET TO COMPUTE TOTAL ATTITUDE
000948: 21,3225           53514                           DXCH     WTEMP                                 #  ERROR WRT N22 BY PICKING UP THE THREE
000949: 21,3226           31307                           CA       CPHI                                  #  COMPONENTS OF N22
000950:
000951: 21,3227           00006        GETAKS             EXTEND                                         #  COMPUTE TOTAL ATTITUDE ERROR FOR
000952: 21,3230           20032                           MSU      CDUX                                  #  DISPLAY ON FDAI ERROR NEEDLES
000953: 21,3231           55476                           TS       AK
000954: 21,3232           31513                           CA       WTEMP
000955: 21,3233           00006                           EXTEND
000956: 21,3234           20033                           MSU      CDUY
000957: 21,3235           55502                           TS       T5TEMP
000958: 21,3236           00006                           EXTEND


000960: 21,3237           71640                           MP       AMGB1
000961: 21,3240           27476                           ADS      AK
000962: 21,3241           31502                           CA       T5TEMP
000963: 21,3242           00006                           EXTEND
000964: 21,3243           71641                           MP       AMGB4
000965: 21,3244           55477                           TS       AK1
000966: 21,3245           31502                           CA       T5TEMP
000967: 21,3246           00006                           EXTEND
000968: 21,3247           71643                           MP       AMGB7
000969: 21,3250           55500                           TS       AK2
000970: 21,3251           31514                           CA       WTEMP      +1
000971: 21,3252           00006                           EXTEND
000972: 21,3253           20034                           MSU      CDUZ
000973: 21,3254           55502                           TS       T5TEMP
000974: 21,3255           00006                           EXTEND
000975: 21,3256           71642                           MP       AMGB5
000976: 21,3257           27477                           ADS      AK1
000977: 21,3260           31502                           CA       T5TEMP
000978: 21,3261           00006                           EXTEND
000979: 21,3262           71644                           MP       AMGB8
000980: 21,3263           27500                           ADS      AK2
000981: 21,3264           15323                           TCF      RESUME                                #  END PHASE1 OF RCS DAP
000982:
000983: 21,3265           00006        WRTN17             EXTEND                                         #  GET SET TO COMPUTE TOTAL ASTRONAUT
000984: 21,3266           31015                           DCA      CPHIX      +1                         #  ATTITUDE ERROR WRT N17 BY PICKING UP
000985: 21,3267           53514                           DXCH     WTEMP                                 #  THE THREE COMPONENTS OF N17
000986: 21,3270           31013                           CA       CPHIX
000987: 21,3271           13227                           TCF      GETAKS
000988:


000991:

End of include-file RCS-CSM_DIGITAL_AUTOPILOT.agc.  Parent file is MAIN.agc


