
Source Code


000002:                                                                                                  ## Copyright:   Public domain.
000003:                                                                                                  ## Filename:    RCS-CSM_DAP_EXECUTIVE_PROGRAMS.agc
000004:                                                                                                  ## Purpose:     Part of the source code for Artemis (i.e., Colossus 3),
000005:                                                                                                  ##              build 072.  This is for the Command Module's (CM)
000006:                                                                                                  ##              Apollo Guidance Computer (AGC), for
000007:                                                                                                  ##              Apollo 15-17.
000008:                                                                                                  ## Assembler:   yaYUL
000009:                                                                                                  ## Contact:     Sergio Navarro <sergionavarrog@gmail.com>
000010:                                                                                                  ## Website:     www.ibiblio.org/apollo/index.html
000011:                                                                                                  ## Page Scans:  www.ibiblio.org/apollo/ScansForConversion/Artemis072/
000012:                                                                                                  ## Mod history: 2009-08-27 SN   Adapted from corresponding Comanche 055 file.
000013:                                                                                                  ##              2009-09-04 JL   Minor fixes.
000014:                                                                                                  ##              2010-02-20 RSB  Un-##'d this header.
000015:                                                                                                  ##              2017-02-08 RSB  Proofed comment text by diff'ing vs Comanche 55
000016:                                                                                                  ##                              and/or octopus/ProoferComments as most-appropriate.
000017:


000019:                                                                                                  #  CALCULATION OF  AMGB, AMBG     ONCE EVERY SECOND
000020:
000021:                                                                                                  #   AMGB =  1    SIN(PSI)                0
000022:                                                                                                  #           0    COS(PSI)COS(PHI)        SIN(PHI)
000023:                                                                                                  #           0    -COS(PSI)SIN(PHI)       COS(PHI)
000024:
000025:                                                                                                  #   AMBG =  1    -TAN(PSI)COS(PHI)       TAN(PSI)SIN(PHI)
000026:                                                                                                  #           0    COS(PHI)/COS(PSI)       -SIN(PHI)/COS(PSI)
000027:                                                                                                  #           0    SIN(PHI)                COS(PHI)
000028:
000029:                                                                                                  #   WHERE PHI AND PSI ARE CDU ANGLES
000030:
000031: 22,2000                                           SETLOC   DAPS8
000032: 22,2000                                           BANK
000033:
000034: 22,3560                                           COUNT*   $$/DAPEX
000035: 22,3560  E6,1510                                  EBANK=   KMPAC
000036: 22,3560           30102        AMBGUPDT           CA       FLAGWRD6                              #  CHECK FOR RCS AUTOPILOT
000037: 22,3561           74076                           MASK     DPCONFIG
000038: 22,3562           00006                           EXTEND
000039: 22,3563           65205                           BZMF     ENDOFJOB                              #  BIT15 = 0, BIT14 = 1
000040: 22,3564           74753                           MASK     DAP2BIT                               #  IF NOT RCS, EXIT
000041: 22,3565           00006                           EXTEND
000042: 22,3566           15205                           BZF      ENDOFJOB                              #  TO PROTECT TVC DAP ON SWITCHOVER
000043:
000044: 22,3567           30034                           CA       CDUZ
000045: 22,3570           05061                           TC       SPSIN2
000046: 22,3571           55640                           TS       AMGB1                                 #  CALCULATE AMGB
000047: 22,3572           30034                           CA       CDUZ
000048: 22,3573           05060                           TC       SPCOS2
000049: 22,3574           55645                           TS       CAPSI                                 #  MUST CHECK FOR GIMBAL LOCK
000050: 22,3575           34620                           CAF      QUADANGL                              #  = 7.25  DEGREES JET QUAD ANGULAR OFFSET
000051: 22,3576           00006                           EXTEND
000052: 22,3577           20032                           MSU      CDUX
000053: 22,3600           40000                           COM                                            #  CDUX - 7.25 DEG
000054: 22,3601           05060                           TC       SPCOS1
000055: 22,3602           55644                           TS       AMGB8
000056: 22,3603           00006                           EXTEND
000057: 22,3604           71645                           MP       CAPSI
000058: 22,3605           55641                           TS       AMGB4
000059: 22,3606           34620                           CAF      QUADANGL
000060: 22,3607           00006                           EXTEND
000061: 22,3610           20032                           MSU      CDUX
000062: 22,3611           40000                           COM                                            #  CDUX - 7.25 DEG
000063: 22,3612           05061                           TC       SPSIN1
000064: 22,3613           55642                           TS       AMGB5
000065: 22,3614           00006                           EXTEND
000066: 22,3615           71645                           MP       CAPSI
000067: 22,3616           40000                           COM


000069: 22,3617           55643                           TS       AMGB7
000070: 22,3620           15205                           TCF      ENDOFJOB
000071:    4000                                           SETLOC   FFTAG12
000072:    4000                                           BANK
000073:
000074:    4620                                           COUNT*   $$/DAPEX
000075:    4620           01224        QUADANGL           DEC      660        B-14                       #  = 7.25 DEGREES

End of include-file RCS-CSM_DAP_EXECUTIVE_PROGRAMS.agc.  Parent file is MAIN.agc


