
Source Code


000002:                                                                                                  ## Copyright:   Public domain.
000003:                                                                                                  ## Filename:    RESTARTS_ROUTINE.agc
000004:                                                                                                  ## Purpose:     Part of the source code for Artemis (i.e., Colossus 3),
000005:                                                                                                  ##              build 072.  This is for the Command Module's (CM)
000006:                                                                                                  ##              Apollo Guidance Computer (AGC), for
000007:                                                                                                  ##              Apollo 15-17.
000008:                                                                                                  ## Assembler:   yaYUL
000009:                                                                                                  ## Contact:     Jim Lawton <jim DOT lawton AT gmail DOT com>
000010:                                                                                                  ## Website:     www.ibiblio.org/apollo/index.html
000011:                                                                                                  ## Page Scans:  www.ibiblio.org/apollo/ScansForConversion/Artemis072/
000012:                                                                                                  ## Mod history: 2009-08-18 JL   Adapted from corresponding Comanche 055 file.
000013:                                                                                                  ##              2010-02-02 JL   Fixed page numbers.
000014:                                                                                                  ##              2010-02-20 RSB  Un-##'d this header.
000015:                                                                                                  ##              2010-04-04 JL   Added a missing # comment delimiter.
000016:                                                                                                  ##              2017-02-08 RSB  Proofed comment text by diff'ing vs Comanche 55
000017:                                                                                                  ##                              and/or octopus/ProoferComments as most-appropriate.
000018:                                                                                                  ##              2017-03-14 RSB  Comment-text fixes noted in proofing Luminary 116.
000019:


000021: 01,2000                                           SETLOC   RESTART
000022: 01,2000                                           BANK
000023:
000024: 01,3467  E3,1436                                  EBANK=   PHSNAME1                              #  GOPROG MUST SWITCH TO THIS EBANK
000025:
000026: 01,3467                                           COUNT*   $$/RSROU
000027: 01,3467           30161        RESTARTS           CA       MPAC       +5                         #  GET GROUP NUMBER -1
000028: 01,3470           60000                           DOUBLE                                         #  SAVE FOR INDEXING
000029: 01,3471           54155                           TS       TEMP2G
000030:
000031: 01,3472           33127                           CA       PHS2CADR                              #  SET UP EXIT IN CASE IT IS AN EVEN
000032: 01,3473           54157                           TS       TEMPSWCH                              #  TABLE PHASE
000033:
000034: 01,3474           33526                           CA       RTRNCADR                              #  TO SAVE TIME ASSUME IT WILL GET NEXT
000035: 01,3475           54707                           TS       GOLOC      +2                         #  GROUP AFTER THIS
000036:
000037: 01,3476           30154                           CA       TEMPPHS
000038: 01,3477           75024                           MASK     OCT1400
000039: 01,3500           10000                           CCS      A                                     #  IS IT A VARIABLE OR TABLE RESTART
000040: 01,3501           13512                           TCF      ITSAVAR                               #  IT:S A VARIABLE RESTART
000041:
000042: 01,3502           10154        GETPART2           CCS      TEMPPHS                               #  IS IT AN X.1 RESTART
000043: 01,3503           10000                           CCS      A
000044: 01,3504           13612                           TCF      ITSATBL                               #  NO, ITS A TABLE RESTART
000045:
000046: 01,3505           35053                           CA       PRIO14                                #  IT IS AN X.1 RESTART, THEREFORE START
000047: 01,3506           05135        FVACCADR           TC       FINDVAC                               #  THE DISPLAY RESTART ROUTINE (=GENADR)
000048: 01,3507  E3,1400                                  EBANK=   LST1
000049: 01,3507           03263 20063                     2CADR    INITDSP
000050:
000051:
000052: 01,3511           03526                           TC       RTRNCADR                              #  FINISHED WITH THIS GROUP, GET NEXT ONE
000053:
000054: 01,3512           75024        ITSAVAR            MASK     OCT1400                               #  IS IT TYPE B ?
000055: 01,3513           10000                           CCS      A
000056: 01,3514           13563                           TCF      ITSLIKEB                              #  YES, IT IS TYPE B
000057:
000058: 01,3515           00006                           EXTEND                                         #  STORE THE JOB (OR TASK) 2CADR FOR EXIT
000059: 01,3516           50155                           NDX      TEMP2G
000060: 01,3517           31437                           DCA      PHSNAME1
000061: 01,3520           52706                           DXCH     GOLOC
000062:
000063: 01,3521           30154                           CA       TEMPPHS                               #  SEE IF THIS IS A JOB, TASK, OR A LONGCAL
000064: 01,3522           74774                           MASK     OCT7
000065: 01,3523           67701                           AD       MINUS2
000066: 01,3524           10000                           CCS      A
000067: 01,3525           13675                           TCF      ITSLNGCL                              #  ITS A LONGCALL
000068:
000069: 01,3526           04651        RTRNCADR           TC       SWRETURN                              #  CANT GET HERE
000070: 01,3527           13531                           TCF      ITSAWAIT


000072: 01,3530           13576                           TCF      ITSAJOB                               #  ITS A JOB
000073:
000074: 01,3531           33463        ITSAWAIT           CA       WTLTCADR                              #  SET UP WAITLIST CALL
000075: 01,3532           54704                           TS       GOLOC      -1
000076:
000077: 01,3533           50155                           NDX      TEMP2G                                #  DIRECTLY STORED
000078: 01,3534           31260                           CA       PHSPRDT1
000079: 01,3535           10000        TIMETEST           CCS      A                                     #  IS IT AN IMMEDIATE RESTART
000080: 01,3536           24000                           INCR     A                                     #  NO,
000081: 01,3537           13542                           TCF      FINDTIME                              #  FIND OUT WHEN IT SHOULD BEGIN
000082:
000083: 01,3540           15470                           TCF      ITSINDIR                              #  STORED INDIRECTLY
000084:
000085: 01,3541           13561                           TCF      IMEDIATE                              #  IT WANTS AN IMMEDIATE RESTART
000086:
000087:                                                                                                  #  ***** THIS MUST BE IN FIXED FIXED *****
000088:
000089:    4000                                           SETLOC   FFTAG2
000090:    4000                                           BANK
000091:
000092:    5470                                           COUNT*   $$/RSROU
000093:    5470           22706        ITSINDIR           LXCH     GOLOC      +1                         #  GET THE CORRECT E BANK IN CASE THIS IS
000094:    5471           22006                           LXCH     BB                                    #  SWITCHED ERRASIBLE
000095:
000096:    5472           50000                           NDX      A                                     #  GET THE TIME INDIRECTLY
000097:    5473           30001                           CA       1
000098:
000099:    5474           22006                           LXCH     BB                                    #  RESTORE THE BB AND GOLOC
000100:    5475           22706                           LXCH     GOLOC      +1
000101:
000102:    5476           13542                           TCF      FINDTIME                              #  FIND OUT WHEN IT SHOULD BEGIN
000103:
000104:                                                                                                  #  ***** YOU MAY RETURN TO  SWITCHED FIXED *****
000105:
000106: 01,2000                                           SETLOC   RESTART
000107: 01,2000                                           BANK
000108:
000109: 01,3542                                           COUNT*   $$/RSROU
000110: 01,3542           40000        FINDTIME           COM                                            #  MAKE NEGITIVE SINCE IT WILL BE SUBTRACTD
000111: 01,3543           54001                           TS       L                                     #  AND SAVE
000112: 01,3544           50155                           NDX      TEMP2G
000113: 01,3545           41257                           CS       TBASE1
000114: 01,3546           00006                           EXTEND
000115: 01,3547           60025                           SU       TIME1
000116: 01,3550           10000                           CCS      A
000117: 01,3551           40000                           COM
000118: 01,3552           67663                           AD       OCT37776
000119: 01,3553           64770                           AD       ONE
000120: 01,3554           60001                           AD       L
000121: 01,3555           10000                           CCS      A


000123: 01,3556           34772                 -3        CAF      ZERO
000124: 01,3557           13561                           TCF      +2
000125: 01,3560           13561                           TCF      +1
000126: 01,3561           64770        IMEDIATE           AD       ONE
000127: 01,3562           00704                           TC       GOLOC      -1
000128: 01,3563           33526        ITSLIKEB           CA       RTRNCADR                              #  TYPE B, SO STORE RETURN IN
000129: 01,3564           54157                           TS       TEMPSWCH                              #  TEMPSWCH IN CASE OF AN EVEN PHASE
000130:
000131: 01,3565           33133                           CA       PRT2CADR                              #  SET UP EXIT TO GET TABLE PART OF THIS
000132: 01,3566           54707                           TS       GOLOC      +2                         #  VARIABLE TYPE OF PHASE
000133:
000134: 01,3567           30154                           CA       TEMPPHS                               #  MAKE THE PHASE LOOK RIGHT FOR THE TABLE
000135: 01,3570           76043                           MASK     OCT177                                #  PART OF THIS VARIABLE PHASE
000136: 01,3571           54154                           TS       TEMPPHS
000137:
000138: 01,3572           00006                           EXTEND
000139: 01,3573           50155                           NDX      TEMP2G                                #  OBTAIN THE JOB:S 2CADR
000140: 01,3574           31437                           DCA      PHSNAME1
000141: 01,3575           52706                           DXCH     GOLOC
000142:
000143: 01,3576           50155        ITSAJOB            NDX      TEMP2G                                #  NOW ADD THE PRIORITY AND LET:S GO
000144: 01,3577           31260                           CA       PHSPRDT1
000145: 01,3600           54704        CHKNOVAC           TS       GOLOC      -1                         #  SAVE PRIO UNTIL WE SEE IF ITS
000146: 01,3601           00006                           EXTEND                                         #  A FINDVAC OR A NOVAC
000147: 01,3602           63606                           BZMF     ITSNOVAC
000148:
000149: 01,3603           33506                           CAF      FVACCADR                              #  POSITIVE, SET UP FINDVAC CALL.
000150: 01,3604           56704                           XCH      GOLOC      -1                         #  PICK UP PRIO,
000151: 01,3605           00704                           TC       GOLOC      -1                         #  AND GO
000152:
000153: 01,3606           35310        ITSNOVAC           CAF      NOVACADR                              #  NEGATIVE,
000154: 01,3607           56704                           XCH      GOLOC      -1                         #  SET UP NOVAC CALL,
000155: 01,3610           40000                           COM                                            #  CORRECT PRIO,
000156: 01,3611           00704                           TC       GOLOC      -1                         #  AND GO
000157:
000158: 01,3612           54020        ITSATBL            TS       CYR                                   #  FIND OUT IF THE PHASE IS ODD OR EVEN
000159: 01,3613           10020                           CCS      CYR
000160: 01,3614           13615                           TCF      +1                                    #  IT:S EVEN
000161: 01,3615           13713                           TCF      ITSEVEN
000162:
000163: 01,3616           33526                           CA       RTRNCADR                              #  IN CASE THIS IS THE SECOND PART OF A
000164: 01,3617           54707                           TS       GOLOC      +2                         #  TYPE B RESTART, WE NEED PROPER EXIT
000165:
000166: 01,3620           30154                           CA       TEMPPHS                               #  SET UP POINTER FOR FINDING OUR PLACE IN
000167: 01,3621           54021                           TS       SR                                    #  THE RESTART TABLES
000168: 01,3622           60021                           AD       SR
000169: 01,3623           50155                           NDX      TEMP2G
000170: 01,3624           62001                           AD       SIZETAB    +1
000171: 01,3625           54156                           TS       POINTER


000173:
000174: 01,3626           00006        CONTBL2            EXTEND                                         #  FIND OUT WHAT:S IN THE TABLE
000175: 01,3627           50156                           NDX      POINTER
000176: 01,3630           32002                           DCA      CADRTAB                               #  GET THE 2CADR
000177:
000178: 01,3631           22706                           LXCH     GOLOC      +1                         #  STORE THE BB INFORMATION
000179:
000180: 01,3632           10000                           CCS      A                                     #  IS IT A JOB OR IS IT TIMED
000181: 01,3633           24000                           INCR     A                                     #  POSITIVE, MUST BE A JOB
000182: 01,3634           13707                           TCF      ITSAJOB2
000183:
000184: 01,3635           24000                           INCR     A                                     #  MUST BE EITHER A WAITLIST OR LONGCALL
000185: 01,3636           54705                           TS       GOLOC                                 #  LET-S STORE THE CORRECT CADR
000186:
000187: 01,3637           33463                           CA       WTLTCADR                              #  SET UP OUR EXIT TO WAITLIST
000188: 01,3640           54704                           TS       GOLOC      -1
000189:
000190: 01,3641           30706                           CA       GOLOC      +1                         #  NOW FIND OUT IF IT IS A WAITLIST CALL
000191: 01,3642           74757                           MASK     BIT10                                 #  THIS SHOULD BE ONE IF WE HAVE -BB
000192: 01,3643           10000                           CCS      A                                     #  FOR THAT MATTER SO SHOULD BE BITS 9,8,7,
000193:                                                                                                  #  6,5, AND LAST BUT NOT LEAST (PERHAPS NOT
000194:                                                                                                  #  IN IMPORTANCE ANYWAY. BIT 4
000195: 01,3644           13702                           TCF      ITSWTLST                              #  IT IS A WAITLIST CALL
000196:
000197: 01,3645           50156                           NDX      POINTER                               #  OBTAIN THE ORIGINAL DELTA T
000198: 01,3646           32000                           CA       PRDTTAB                               #  ADDRESS FOR THIS LONGCALL
000199:
000200: 01,3647           15477                           TCF      ITSLGCL1                              #  NOW GO GET THE DELTA TIME
000201:
000202:                                                                                                  #  ***** THIS MUST BE IN FIXED FIXED *****
000203:
000204:    4000                                           SETLOC   FFTAG2
000205:    4000                                           BANK
000206:
000207:    5477                                           COUNT*   $$/RSROU
000208:    5477           22706        ITSLGCL1           LXCH     GOLOC      +1                         #  OBTAIN THE CORRECT E BANK
000209:    5500           22006                           LXCH     BB
000210:    5501           22706                           LXCH     GOLOC      +1                         #  AND PRESERVE OUR E AND F BANKS
000211:
000212:    5502           00006                           EXTEND                                         #  GET THE DELTA TIME
000213:    5503           50000                           NDX      A
000214:    5504           30001                           DCA      0
000215:    5505           22706                           LXCH     GOLOC      +1                         #  RESTORE OUR E AND F BANK
000216:    5506           22006                           LXCH     BB                                    #  RESTORE THE TASKS E AND F BANKS
000217:    5507           22706                           LXCH     GOLOC      +1                         #  AND PRESERVE OUR L
000218:
000219:    5510           13650                           TCF      ITSLGCL2                              #  NOW LET:S PROCESS THIS LONGCALL
000220:
000221:                                                                                                  #  ***** YOU MAY RETURN TO  SWITCHED FIXED *****
000222:


000224: 01,2000                                           SETLOC   RESTART
000225: 01,2000                                           BANK
000226:
000227: 01,3650                                           COUNT*   $$/RSROU
000228: 01,3650           53305        ITSLGCL2           DXCH     LONGTIME
000229:
000230: 01,3651           00006                           EXTEND                                         #  CALCULATE TIME LEFT
000231: 01,3652           40025                           DCS      TIME2
000232: 01,3653           21305                           DAS      LONGTIME
000233: 01,3654           00006                           EXTEND
000234: 01,3655           31303                           DCA      LONGBASE
000235: 01,3656           21305                           DAS      LONGTIME
000236:
000237: 01,3657           11304                           CCS      LONGTIME                              #  FIND OUT HOW THIS SHOULD BE RESTARTED
000238: 01,3660           13670                           TCF      LONGCLCL
000239: 01,3661           13663                           TCF      +2
000240: 01,3662           13556                           TCF      IMEDIATE   -3
000241: 01,3663           11305                           CCS      LONGTIME   +1
000242: 01,3664           13670                           TCF      LONGCLCL
000243: 01,3665           13666                           NOOP                                           #  CAN:T GET HERE    *********
000244: 01,3666           13556                           TCF      IMEDIATE   -3
000245: 01,3667           13561                           TCF      IMEDIATE
000246:
000247: 01,3670           33137        LONGCLCL           CA       LGCLCADR                              #  WE WILL GO TO LONGCALL
000248: 01,3671           54704                           TS       GOLOC      -1
000249:
000250: 01,3672           00006                           EXTEND                                         #  PREPARE OUR ENTRY TO LONGCALL
000251: 01,3673           31305                           DCA      LONGTIME
000252: 01,3674           00704                           TC       GOLOC      -1
000253:
000254: 01,3675           33463        ITSLNGCL           CA       WTLTCADR                              #  ASSUME IT WILL GO TO WAITLIST
000255: 01,3676           54704                           TS       GOLOC      -1
000256:
000257: 01,3677           50155                           NDX      TEMP2G
000258: 01,3700           41260                           CS       PHSPRDT1                              #  GET THE DELTA T ADDRESS
000259:
000260: 01,3701           15477                           TCF      ITSLGCL1                              #  NOW GET THE DELTA TIME
000261:
000262: 01,3702           40706        ITSWTLST           CS       GOLOC      +1                         #  CORRECT THE BBCON INFORMATION
000263: 01,3703           54706                           TS       GOLOC      +1
000264:
000265: 01,3704           50156                           NDX      POINTER                               #  GET THE DT AND FIND OUT IF IT WAS STORED
000266: 01,3705           32000                           CA       PRDTTAB                               #  DIRECTLY OR INDIRECTLY
000267:
000268: 01,3706           13535                           TCF      TIMETEST                              #  FIND OUT HOW THE TIME IS STORED
000269:
000270: 01,3707           56705        ITSAJOB2           XCH      GOLOC                                 #  STORE THE CADR
000271:
000272: 01,3710           50156                           NDX      POINTER                               #  ADD THE PRIORITY AND LET:S GO
000273: 01,3711           32000                           CA       PRDTTAB
000274:


000276: 01,3712           13600                           TCF      CHKNOVAC
000277:
000278: 01,3713           30157        ITSEVEN            CA       TEMPSWCH                              #  SET UP FOR EITHER THE SECOND PART OF THE
000279: 01,3714           54707                           TS       GOLOC      +2                         #  TABLE, OR A RETURN FOR THE NEXT GROUP
000280:
000281: 01,3715           50155                           NDX      TEMP2G                                #  SET UP POINTER FOR OUR LOCATION WITHIN
000282: 01,3716           32000                           CA       SIZETAB                               #  THE TABLE
000283: 01,3717           60154                           AD       TEMPPHS                               #  THIS MAY LOOK BAD BUT LET:S SEE YOU DO
000284: 01,3720           60154                           AD       TEMPPHS                               #  BETTER IN TIME OR NUMBERR OF LOCATIONS
000285: 01,3721           60154                           AD       TEMPPHS
000286: 01,3722           54156                           TS       POINTER
000287:
000288: 01,3723           13626                           TCF      CONTBL2                               #  NOW PROCESS WHAT IS IN THE TABLE
000289:
000290: 01,3724           36214        PHSPART2           CA       THREE                                 #  SET THE POINTER FOR THE SECOND HALF OF
000291: 01,3725           26156                           ADS      POINTER                               #  THE TABLE
000292:
000293: 01,3726           33526                           CA       RTRNCADR                              #  THIS WILL BE OUR LAST TIME THROUGH THE
000294: 01,3727           54707                           TS       GOLOC      +2                         #  EVEN TABLE, SO AFTER IT GET THE NEXT
000295:                                                                                                  #  GROUP
000296: 01,3730           13626                           TCF      CONTBL2                               #  SO LET:S GET THE SECOND ENTRY IN THE TBL
000297:
000298: 01,3731     0154               TEMPPHS            EQUALS   MPAC
000299: 01,3731     0155               TEMP2G             EQUALS   MPAC       +1
000300: 01,3731     0156               POINTER            EQUALS   MPAC       +2
000301: 01,3731     0157               TEMPSWCH           EQUALS   MPAC       +3
000302: 01,3731     7701               MINUS2             EQUALS   NEG2
000303: 01,3731     6043               OCT177             EQUALS   LOW7
000304:

End of include-file RESTARTS_ROUTINE.agc.  Parent file is MAIN.agc


