
Source Code


000002:                                                                                                  ## Copyright:   Public domain.
000003:                                                                                                  ## Filename:    RTB_OP_CODES.agc
000004:                                                                                                  ## Purpose:     Part of the source code for Artemis (i.e., Colossus 3),
000005:                                                                                                  ##              build 072.  This is for the Command Module's (CM)
000006:                                                                                                  ##              Apollo Guidance Computer (AGC), for
000007:                                                                                                  ##              Apollo 15-17.
000008:                                                                                                  ## Assembler:   yaYUL
000009:                                                                                                  ## Contact:     Jim Lawton <jim DOT lawton AT gmail DOT com>
000010:                                                                                                  ## Website:     www.ibiblio.org/apollo/index.html
000011:                                                                                                  ## Page Scans:  www.ibiblio.org/apollo/ScansForConversion/Artemis072/
000012:                                                                                                  ## Mod history: 2009-08-17 JL   Adapted from corresponding Comanche 055 file.
000013:                                                                                                  ##              2009-09-29 JL   Fixed file name in header section.
000014:                                                                                                  ##              2010-02-20 RSB  Un-##'d this header.
000015:                                                                                                  ##              2017-02-08 RSB  Proofed comment text by diff'ing vs Comanche 55
000016:                                                                                                  ##                              and/or octopus/ProoferComments as most-appropriate.
000017:


000019:
000020: 24,2000                                           SETLOC   RTBCODE1
000021: 24,2000                                           BANK
000022:
000023: 24,3751  E5,1713                                  EBANK=   XNB
000024: 24,3751                                           COUNT*   $$/RTB
000025:
000026:                                                                                                  #  LOAD TIME2, TIME1 INTO MPAC:
000027:
000028: 24,3751           00006        LOADTIME           EXTEND
000029: 24,3752           30025                           DCA      TIME2
000030: 24,3753           16024                           TCF      SLOAD2
000031:
000032:                                                                                                  #  CONVERT THE SINGLE PRECISION 2'S COMPLEMENT NUMBER ARRIVING IN MPAC (SCALED IN HALF-REVOLUTIONS) TO A
000033:                                                                                                  #  DP 1'S COMPLEMENT NUMBER SCALED IN REVOLUTIONS.
000034:
000035: 24,3754           10154        CDULOGIC           CCS      MPAC
000036: 24,3755           34772                           CAF      ZERO
000037: 24,3756           13761                           TCF      +3
000038: 24,3757           13760                           NOOP
000039: 24,3760           44753                           CS       HALF
000040:
000041: 24,3761           54155                           TS       MPAC       +1
000042: 24,3762           34772                           CAF      ZERO
000043: 24,3763           56154                           XCH      MPAC
000044: 24,3764           00006                           EXTEND
000045: 24,3765           74753                           MP       HALF
000046: 24,3766           20155                           DAS      MPAC
000047: 24,3767           16030                           TCF      DANZIG                                #  MODE IS ALREADY AT DOUBLE-PRECISION
000048:
000049: 22,2000                                           SETLOC   RTBCODES
000050: 22,2000                                           BANK
000051:
000052: 22,3621                                           COUNT*   $$/RTB
000053:
000054:                                                                                                  #  READ THE PIPS INTO MPAC WITHOUT CHANGING THEM:
000055:
000056: 22,3621           00004        READPIPS           INHINT
000057: 22,3622           30037                           CA       PIPAX
000058: 22,3623           54154                           TS       MPAC
000059: 22,3624           30040                           CA       PIPAY
000060: 22,3625           54157                           TS       MPAC       +3
000061: 22,3626           30041                           CA       PIPAZ
000062: 22,3627           00003                           RELINT
000063: 22,3630           54161                           TS       MPAC       +5
000064:
000065: 22,3631           34772                           CAF      ZERO
000066: 22,3632           54155                           TS       MPAC       +1
000067: 22,3633           54160                           TS       MPAC       +4
000068: 22,3634           54162                           TS       MPAC       +6
000069: 22,3635           16470        VECMODE            TCF      VMODE
000070:


000072:
000073:                                                                                                  #  FORCE TP SIGN AGREEMENT IN MPAC:
000074:
000075: 22,3636           07226        SGNAGREE           TC       TPAGREE
000076: 22,3637           16030                           TCF      DANZIG
000077:
000078:                                                                                                  #  CONVERT THE DP 1'S COMPLEMENT ANGLE SCALED IN REVOLUTIONS TO A SINGLE PRECISION 2'S COMPLEMENT ANGLE
000079:                                                                                                  #  SCALED IN HALF-REVOLUTIONS.
000080:
000081: 22,3640           03661        1STO2S             TC       1TO2SUB
000082: 22,3641           34772                           CAF      ZERO
000083: 22,3642           54155                           TS       MPAC       +1
000084: 22,3643           16027                           TCF      NEWMODE
000085:
000086:                                                                                                  #  DO 1STO2S ON A VECTOR OF ANGLES:
000087:
000088: 22,3644           03661        V1STO2S            TC       1TO2SUB                               #  ANSWER ARRIVES IN A AND MPAC.
000089:
000090: 22,3645           52162                           DXCH     MPAC       +5
000091: 22,3646           52155                           DXCH     MPAC
000092: 22,3647           03661                           TC       1TO2SUB
000093: 22,3650           54156                           TS       MPAC       +2
000094:
000095: 22,3651           52160                           DXCH     MPAC       +3
000096: 22,3652           52155                           DXCH     MPAC
000097: 22,3653           03661                           TC       1TO2SUB
000098: 22,3654           54155                           TS       MPAC       +1
000099:
000100: 22,3655           30161                           CA       MPAC       +5
000101: 22,3656           54154                           TS       MPAC
000102:
000103: 22,3657           34770        TPMODE             CAF      ONE                                   #  MODE IS TP.
000104: 22,3660           16027                           TCF      NEWMODE
000105:
000106:                                                                                                  #  SUBROUTINE TO DO DOUBLING AND 1'S TO 2'S CONVERSION:
000107:
000108: 22,3661           52155        1TO2SUB            DXCH     MPAC                                  #  FINAL MPAC +1 UNSPECIFIED.
000109: 22,3662           20001                           DDOUBL
000110: 22,3663           10000                           CCS      A
000111: 22,3664           64770                           AD       ONE
000112: 22,3665           13667                           TCF      +2
000113: 22,3666           40000                           COM                                            #  THIS WAS REVERSE OF MSU.
000114:
000115: 22,3667           54154                           TS       MPAC                                  #  AND SKIP ON OVERFLOW.
000116: 22,3670           00002                           TC       Q
000117:
000118: 22,3671           50000                           INDEX    A                                     #  OVERFLOW UNCORRECT AND IN MSU.
000119: 22,3672           34751                           CAF      LIMITS
000120: 22,3673           26154                           ADS      MPAC
000121: 22,3674           00002                           TC       Q
000122:


000124:
000125:                                                                                                  #  THE FOLLOWING ROUTINE INCREMENTS IN 2S COMPLEMENT THE REGISTER WHOSE ADDRESS IS IN BUF BY THE 1S COMPL.
000126:                                                                                                  #  QUANTITY FOUND IN TEM2. THIS MAY BE USED TO INCREMENT DESIRED IMU AND OPTICS CDU ANGLES OR ANY OTHER 2S COMPL.
000127:                                                                                                  #  (+0 UNEQUAL TO -0) QUANTITY. MAY BE CALLED BY BANKCALL/SWCALL.
000128:
000129: 22,3675           54142        CDUINC             TS       TEM2                                  #  1S COMPL.QUANT. ARRIVES IN ACC. STORE IT
000130: 22,3676           50130                           INDEX    BUF
000131: 22,3677           10000                           CCS      0                                     #  CHANGE 2S COMPL. ANGLE(IN BUF)INTO 1S
000132: 22,3700           64770                           AD       ONE
000133: 22,3701           13705                           TCF      +4
000134: 22,3702           64770                           AD       ONE
000135: 22,3703           64770                           AD       ONE                                   #  OVERFLOW HERE IF 2S COMPL. IS 180 DEG.
000136: 22,3704           40000                           COM
000137:
000138: 22,3705           60142                           AD       TEM2                                  #  SULT MOVES FROM 2ND TO 3D QUAD. (OR BACK)
000139: 22,3706           10000                           CCS      A                                     #  BACK TO 2S COMPL.
000140: 22,3707           64770                           AD       ONE
000141: 22,3710           13712                           TCF      +2
000142: 22,3711           40000                           COM
000143: 22,3712           54142                           TS       TEM2                                  #  STORE 14BIT QUANTITY WITH PRESENT SIGN
000144: 22,3713           13717                           TCF      +4
000145: 22,3714           50000                           INDEX    A                                     #  SIGN.
000146: 22,3715           34751                           CAF      LIMITS                                #  FIX IT, BY ADDING IN 37777 OR 40000
000147: 22,3716           60142                           AD       TEM2
000148:
000149: 22,3717           50130                           INDEX    BUF
000150: 22,3720           54000                           TS       0                                     #  STORE NEW ANGLE IN 2S COMPLEMENT.
000151: 22,3721           00002                           TC       Q
000152:


000154:
000155:                                                                                                  #  RTB TO TORQUE GYROS, EXCEPT FOR THE CALL TO IMUSTALL. ECADR OF COMMANDS ARRIVES IN X1.
000156:
000157: 22,3722           50120        PULSEIMU           INDEX    FIXLOC                                #  ADDRESS OF GYRO COMMANDS SHOULD BE IN X1
000158: 22,3723           30046                           CA       X1
000159: 22,3724           04636                           TC       BANKCALL
000160: 22,3725           17244                           CADR     IMUPULSE
000161: 22,3726           16030                           TCF      DANZIG
000162:


000164:
000165:                                                                                                  #  EACH ROUTINE TAKES A 3X3 MATRIX STORED IN DOUBLE PRECISION IN A FIXED AREA OF ERASABLE MEMORY AND REPLACES IT
000166:                                                                                                  #  WITH THE TRANSPOSE MATRIX. TRANSP1 USES LOCATIONS XNB+0,+1 THROUGH XNB+16D, 17D AND TRANSP2 USES LOCATIONS
000167:                                                                                                  #  XNB1+0,+1 THROUGH XNB1+16D, 17D. EACH MATRIX IS STORED BY ROWS.
000168:
000169: 22,3727           02713        XNBEB              ECADR    XNB
000170: 22,3730           02554        XNB1EB             ECADR    XNB1
000171:
000172: 22,3731  E5,1713                                  EBANK=   XNB
000173:
000174: 22,3731           33727        TRANSP1            CAF      XNBEB
000175: 22,3732           54003                           TS       EBANK
000176: 22,3733           53716                           DXCH     XNB        +2
000177: 22,3734           53722                           DXCH     XNB        +6
000178: 22,3735           53716                           DXCH     XNB        +2
000179:
000180: 22,3736           53720                           DXCH     XNB        +4
000181: 22,3737           53730                           DXCH     XNB        +12D
000182: 22,3740           53720                           DXCH     XNB        +4
000183:
000184: 22,3741           53726                           DXCH     XNB        +10D
000185: 22,3742           53732                           DXCH     XNB        +14D
000186: 22,3743           53726                           DXCH     XNB        +10D
000187: 22,3744           16030                           TCF      DANZIG
000188:
000189: 22,3745  E5,1554                                  EBANK=   XNB1
000190:
000191: 22,3745           33730        TRANSP2            CAF      XNB1EB
000192: 22,3746           54003                           TS       EBANK
000193: 22,3747           53557                           DXCH     XNB1       +2
000194: 22,3750           53563                           DXCH     XNB1       +6
000195: 22,3751           53557                           DXCH     XNB1       +2
000196:
000197: 22,3752           53561                           DXCH     XNB1       +4
000198: 22,3753           53571                           DXCH     XNB1       +12D
000199: 22,3754           53561                           DXCH     XNB1       +4
000200:
000201: 22,3755           53567                           DXCH     XNB1       +10D
000202: 22,3756           53573                           DXCH     XNB1       +14D
000203: 22,3757           53567                           DXCH     XNB1       +10D
000204: 22,3760           16030                           TCF      DANZIG
000205:


000207:
000208:                                                                                                  #  THE SUBROUTINE  SIGNMPAC  SETS C(MPAC, MPAC +1) TO SIGN(MPAC).
000209:                                                                                                  #  FOR THIS, ONLY THE CONTENTS OF MPAC ARE EXAMINED. ALSO +0 YIELDS POSMAX AND -0 YIELDS NEGMAX.
000210:
000211:                                                                                                  #  ENTRY MAY BE BY EITHER OF THE FOLLOWING:
000212:
000213:                                                                                                  #        1.      LIMIT THE SIZE OF MPAC ON INTERPRETIVE OVERFLOW:
000214:                                                                                                  #        ENTRY:          BOVB
000215:                                                                                                  #                                SIGNMPAC
000216:                                                                                                  #        2.      GENERATE IN MPAC THE SIGNUM FUNCTION OF MPAC:
000217:                                                                                                  #        ENTRY:          RTB
000218:                                                                                                  #                                SIGNMPAC
000219:
000220:                                                                                                  #  IN EITHER CASE, RETURN IS TO THE NEXT INTERPRETIVE INSTRUCTION IN THE CALLING SEQUENCE.
000221:
000222: 22,3761           00006        SIGNMPAC           EXTEND
000223: 22,3762           34750                           DCA      DPOSMAX
000224: 22,3763           52155                           DXCH     MPAC
000225: 22,3764           10000                           CCS      A
000226: 22,3765           34772        DPMODE             CAF      ZERO                                  #  SETS MPAC +2 TO ZERO IN THE PROCESS
000227: 22,3766           16026                           TCF      SLOAD2     +2
000228: 22,3767           13770                           TCF      +1
000229: 22,3770           00006                           EXTEND
000230: 22,3771           44750                           DCS      DPOSMAX
000231: 22,3772           16024                           TCF      SLOAD2
000232:
000233:

End of include-file RTB_OP_CODES.agc.  Parent file is MAIN.agc


