
Source Code


000002:                                                                                                  #  Copyright:    Public domain.
000003:                                                                                                  #  Filename:     S-BAND_ANTENNA_FOR_CM.agc
000004:                                                                                                  #  Purpose:      Part of the source code for Artemis (i.e., Colossus 3),
000005:                                                                                                  #                build 072.  This is for the Command Module's (CM)
000006:                                                                                                  #                Apollo Guidance Computer (AGC), we believe for
000007:                                                                                                  #                Apollo 15-17.
000008:                                                                                                  #  Assembler:    yaYUL
000009:                                                                                                  #  Contact:      Steve Case <case.steve@gmail.com>
000010:                                                                                                  #  Website:      www.ibiblio.org/apollo/index.html
000011:                                                                                                  #  Page scans:   www.ibiblio.org/apollo/ScansForConversion/Artemis072/
000012:                                                                                                  #  Mod history:  2009-09-01 SMC  Adapted from Comanche055 files.
000013:                                                                                                  #                2009-09-04 JL   Fixed page comments. Fixed typos.
000014:                                                                                                  #                2010-02-20 RSB  Un-##'d this header.
000015:
000016:                                                                                                  # # Page 940
000017: 42,2000                                           SETLOC   SBAND
000018: 42,2000                                           BANK
000019:
000020: 42,3504                                           COUNT*   $$/R05
000021: 42,3504  E4,1417                                  EBANK=   EMSALT
000022:
000023: 42,3504           06006        SBANDANT           TC       INTPRET
000024: 42,3505           45034                           RTB      CALL
000025: 42,3506           51751                                    LOADTIME                              #  PICKUP CURRENT TIME SCALED B-28
000026: 42,3507           47530                                    CDUTRIG                               #  COMPUTE SINES AND COSINES OF CDU ANGLES
000027: 42,3510           34041                           STCALL   TDEC1                                 #  ADVANCE INTEGRATION TO TIME IN TDEC1
000028: 42,3511           27170                                    CSMCONIC                              #  USING CONIC INTEGRATION
000029: 42,3512           46135                           SLOAD    BHIZ                                  #  ORIGIN OF REFERENCE INERTIAL SYSTEM IS
000030: 42,3513           00050                                    X2                                    #  EARTH = 0, MOON = 2
000031: 42,3514           65527                                    EISOI
000032: 42,3515           77775                           VLOAD
000033: 42,3516           00001                                    RATT
000034: 42,3517           00003                           STORE    RCM                                   #  MOVE RATT TO PREVENT WIPEOUT
000035: 42,3520           45145                           DLOAD    CALL                                  #  MOON, PUSH ON
000036: 42,3521           00015                                    TAT                                   #  GET ORIGINAL TIME
000037: 42,3522           54141                                    LUNPOS                                #  COMPUTE POSITION VECTOR OF MOON
000038: 42,3523           57455                           VAD      VCOMP                                 #  R= -(REM+RCM) = NEG. OF S/C POS. VEC
000039: 42,3524           00003                                    RCM
000040: 42,3525           77650                           GOTO
000041: 42,3526           65531                                    EISOI      +2
000042: 42,3527           57575        EISOI              VLOAD    VCOMP                                 #  EARTH, R= -RCM
000043: 42,3530           00001                                    RATT
000044: 42,3531           64201                           SETPD    MXV                                   #  RCS TO STABLE MEMBER- B-1X B-29X B+1
000045: 42,3532           00003                                    2D                                    #  2D
000046: 42,3533           01734                                    REFSMMAT                              #  STABLE MEMBER.  B-1X B-29X B+1= B-29
000047: 42,3534           65372                           VSL1     PDDL                                  #  8D
000048: 42,3535           15336                                    HI6ZEROS
000049: 42,3536           24025                           STOVL    YAWANG                                #  ZERO OUT YAWANG, SET UP FOR SMNB
000050: 42,3537           00003                                    RCM                                   #  TRANSFORMATION. SM COORD. SCALED B-29
000051: 42,3540           77624                           CALL
000052: 42,3541           47633                                    *SMNB*
000053: 42,3542           00003                           STORE    R                                     #  SAVE NAV. BASE COORDINATES
000054: 42,3543           63256                           UNIT     PDVL                                  #  14D
000055: 42,3544           00003                                    R
000056: 42,3545           72431                           VPROJ    VSL2                                  #  COMPUTE PROJECTION OF VECTOR INTO CM
000057: 42,3546           15330                                    HIUNITZ                               #  XY-PLANE, R-(R.UZ)UZ
000058: 42,3547           40045                           BVSU     BOV                                   #  CLEAR OVERFLOW INDICATOR IF SET
000059: 42,3550           00003                                    R
000060: 42,3551           65552                                    COVCNV
000061: 42,3552           40056        COVCNV             UNIT     BOV                                   #  TEST OVERFLOW FOR INDICATION OF NULL
000062: 42,3553           65567                                    NOADJUST                              #  VECTOR
000063: 42,3554           50206                           PUSH     DOT                                   #  20D
000064: 42,3555           15334                                    HIUNITX                               #  COMPUTE YAW ANGLE = ACOS (URP.UX)
000065: 42,3556           65552                           SL1      ACOS                                  #  REVOLUTIONS SCALED B0
000066: 42,3557           50315                           PDVL     DOT                                   #  22D YAWANG
000067:                                                                                                  # # Page 941
000068: 42,3560           00017                                    URP
000069: 42,3561           15332                                    HIUNITY                               #  COMPUTE FOLLOWING- URP.UY
000070: 42,3562           51152                           SL1      BPL                                   #  POSITIVE
000071: 42,3563           65567                                    NOADJUST                              #  YES, 0- 180 DEGREES
000072: 42,3564           45345                           DLOAD    DSU                                   #  NO, 181-360 DEGREES 20D
000073: 42,3565           15344                                    DPPOSMAX                              #  COMPUTE 2 PI MINUS YAW ANGLE
000074: 42,3566           77606                           PUSH                                           #  22D YAWANG
000075: 42,3567           50375        NOADJUST           VLOAD    DOT                                   #  COMPUTE PITCH ANGLE
000076: 42,3570           00011                                    UR                                    #  ACOS (UR.UZ) - PI/2
000077: 42,3571           15330                                    HIUNITZ
000078: 42,3572           65552                           SL1      ACOS                                  #  REVOLUTIONS B0
000079: 42,3573           77625                           DSU
000080: 42,3574           15326                                    HIDP1/4
000081: 42,3575           16312                           STODL    RHOSB
000082: 42,3576           00025                                    YAWANG
000083: 42,3577           02314                           STORE    GAMMASB                               #  PATCH FOR CHECKOUT
000084: 42,3600           77776                           EXIT
000085: 42,3601           35047                           CAF      PRIO5
000086: 42,3602           05176                           TC       PRIOCHNG
000087:
000088: 42,3603           31247                           CA       EXTVBACT                              #  IS BIT 5 STILL ON
000089: 42,3604           74764                           MASK     BIT5
000090: 42,3605           00006                           EXTEND
000091: 42,3606           15524                           BZF      ENDEXT                                #  NO, WE HAVE BEEN ANSWERED
000092: 42,3607           33625                           CAF      V06N51                                #  DISPLAY ANGLES
000093: 42,3610           04636                           TC       BANKCALL
000094: 42,3611           20607                           CADR     GOMARKFR
000095: 42,3612           05626                           TC       B5OFF                                 #  TERMINATE
000096: 42,3613           05626                           TC       B5OFF
000097: 42,3614           05205                           TC       ENDOFJOB                              #  RECYCLE
000098: 42,3615           34766                           CAF      BIT3                                  #  IMMEDIATE RETURN
000099: 42,3616           05516                           TC       BLANKET                               #  BLANK R3
000100: 42,3617           34755                           CAF      PRIO4
000101: 42,3620           05176                           TC       PRIOCHNG
000102:
000103: 42,3621           34770                           CAF      BIT1                                  #  DELAY MINIMUM TIME TO ALLOW DISPLAY IN
000104: 42,3622           04636                           TC       BANKCALL
000105: 42,3623           01731                           CADR     DELAYJOB
000106: 42,3624           13504                           TCF      SBANDANT
000107: 42,3625           01463        V06N51             VN       0651
000108: 42,3626                        RCM                EQUALS   2D
000109: 42,3626                        UR                 EQUALS   8D
000110: 42,3626                        URP                EQUALS   14D
000111: 42,3626                        YAWANG             EQUALS   20D
000112: 42,3626                        PITCHANG           EQUALS   22D
000113: 42,3626  0000002               R                  EQUALS   RCM
000114: 42,3626  30,2000                                  SBANK=   LOWSUPER
000115:
000116:                                                                                                  # # Page 942
000117:                                                                                                  #  *** END OF MENELAUS.061 ***
000118:

End of include-file S-BAND_ANTENNA_FOR_CM.agc.  Parent file is MAIN.agc


