
Source Code


000002:                                                                                                 #  Copyright:     Public domain.
000003:                                                                                                 #  Filename:      SERVICE_ROUTINES.agc
000004:                                                                                                 #  Purpose:       Part of the source code for Artemis (i.e., Colossus 3),
000005:                                                                                                 #                 build 072.  This is for the Command Module's (CM)
000006:                                                                                                 #                 Apollo Guidance Computer (AGC), we believe for
000007:                                                                                                 #                 Apollo 15-17.
000008:                                                                                                 #  Assembler:     yaYUL
000009:                                                                                                 #  Contact:       Jim Lawton <jim DOT lawton AT gmail DOT com>
000010:                                                                                                 #  Website:       www.ibiblio.org/apollo/index.html
000011:                                                                                                 #  Page scans:    www.ibiblio.org/apollo/ScansForConversion/Artemis072/
000012:                                                                                                 #  Mod history:   2009-08-18 JL   Adapted from corresponding Comanche 055 file.
000013:                                                                                                 #                 2010-02-01 JL   Fixed build error: missing code at end.
000014:                                                                                                 #                 2010-02-07 JL   Removed spurious NDX instruction on p1478.
000015:                                                                                                 #                 2010-02-20 RSB  Un-##'d this header.
000016:


000018:
000019: 10,2000                                          SETLOC   DISPLAYS
000020: 10,2000                                          BANK
000021: 10,3755                                          COUNT*   $$/DSPLA
000022: 10,3755           54001        UPENT2            TS       L
000023: 10,3756           40100                          CS       FLAGWRD4
000024: 10,3757           70001                          MASK     L
000025: 10,3760           26100                          ADS      FLAGWRD4
000026: 10,3761           00002                          TC       Q                                     #  RETURN
000027:
000028: 10,3762           40000        DOWNENT2          COM                                            #  START TO PROCESS THE INFORMATION
000029: 10,3763           70100                          MASK     FLAGWRD4
000030: 10,3764           54100                          TS       FLAGWRD4
000031: 10,3765           00002                          TC       Q                                     #  RETURN
000032:
000033: 10,3766     4774               OCT7              EQUALS   SEVEN
000034:


000036:
000037:                                                                                                 #  UPFLAG AND DOWNFLAG ARE ENTIRELY GENERAL FLAG SETTING AND CLEARING SUBROUTINES.  USING THEM, WHETHER OR
000038:                                                                                                 #  NOT IN INTERRUPT, ONE MAY SET OR CLEAR ANY SINGLE, NAMED BIT IN ANY ERASABLE REGISTER, SUBJECT OF COURSE TO
000039:                                                                                                 #  EBANK SETTING.  A "NAMED" BIT, AS THE WORD IS USED HERE, IS ANY BIT WITH A NAME FORMALLY ASSIGNED BY THE YUL
000040:                                                                                                 #  ASSEMBLER.
000041:
000042:                                                                                                 #  AT PRESENT THE ONLY NAMED BITS ARE THOSE IN THE FLAGWORDS.  ASSEMBLER CHANGES WILL MAKE IT POSSIBLE TO
000043:                                                                                                 #  NAME ANY BIT IN ERASABLE MEMORY.
000044:
000045:                                                                                                 #  CALLING SEQUENCES ARE AS FOLLOWS:-
000046:                                                                                                 #                 TC      UPFLAG                  TC      DOWNFLAG
000047:                                                                                                 #                 ADRES   NAME OF FLAG            ADRES   NAME OF FLAG
000048:
000049:                                                                                                 #  RETURN IS TO THE LOCATION FOLLOWING THE "ADRES" ABOUT .58 MS AFTER THE "TC".
000050:                                                                                                 #  UPON RETURN A CONTAINS THE CURRENT FLAGWRD SETTING.
000051:
000052:    4000                                          SETLOC   FFTAG1
000053:    4000                                          BANK
000054:    5547                                          COUNT*   $$/FLAG
000055:
000056:    5547           30002        UPFLAG            CA       Q
000057:    5550           05565                          TC       DEBIT
000058:    5551           40000                          COM                                            #  +(15 - BIT)
000059:    5552           00006                          EXTEND
000060:    5553           04001                          ROR      LCHAN                                 #  SET BIT
000061:    5554           50061        COMFLAG           INDEX    ITEMP1
000062:    5555           54074                          TS       FLAGWRD0
000063:    5556           22063                          LXCH     ITEMP3
000064:    5557           00003                          RELINT
000065:    5560           00001                          TC       L
000066:
000067:    5561           30002        DOWNFLAG          CA       Q
000068:    5562           05565                          TC       DEBIT
000069:    5563           70001                          MASK     L                                     #  RESET BIT
000070:    5564           15554                          TCF      COMFLAG
000071:
000072:    5565           64770        DEBIT             AD       ONE                                   #  CET DE BITS
000073:    5566           00004                          INHINT
000074:    5567           54063                          TS       ITEMP3
000075:    5570           34777                          CA       LOW4                                  #  DEC15
000076:    5571           54061                          TS       ITEMP1
000077:    5572           50063                          INDEX    ITEMP3
000078:    5573           27777                          CA       0          -1                         #  ADRES
000079:    5574           54001                          TS       L
000080:    5575           34772                          CA       ZERO
000081:    5576           00006                          EXTEND


000083:    5577           10061                          DV       ITEMP1                                #  A = FLAGWRD, L = (15 - BIT)
000084:    5600           52062                          DXCH     ITEMP1
000085:    5601           50061                          INDEX    ITEMP1
000086:    5602           30074                          CA       FLAGWRD0
000087:    5603           54001                          TS       L                                     #  CURRENT STATE
000088:    5604           50062                          INDEX    ITEMP2
000089:    5605           44752                          CS       BIT15                                 #  -(15 - BIT)
000090:    5606           00002                          TC       Q
000091:


000093:
000094:                                                                                                 #  DELAYJOB - A GENERAL ROUTINE TO DELAY A JOB A SPECIFIC AMOUNT OF TIME BEFORE PICKING UP AGAIN.
000095:
000096:                                                                                                 #  ENTRANCE REQUIREMENTS ...
000097:                                                                                                 #                 CAF     DT              # DELAY JOB FOR DT CENTISECS
000098:                                                                                                 #                 TC      BANKCALL
000099:                                                                                                 #                 CADR    DELAYJOB
000100:
000101: 00,2000                                          SETLOC   DLAYJOB
000102: 00,2000                                          BANK
000103:
000104:                                                                                                 #  THIS MUST REMAIN IN BANK 0 ****************************************
000105: 00,3730                                          COUNT*   $$/DELAY
000106: 00,3730           35016        1SECDELY          CAF      1SEC
000107: 00,3731           00004        DELAYJOB          INHINT
000108: 00,3732           54002                          TS       Q                                     #  STORE DELAY DT IN Q FOR DLY -1 IN
000109:
000110: 00,3733           36214                          CAF      DELAYNUM                              #  WAITLIST
000111: 00,3734           54070        DELLOOP           TS       RUPTREG1
000112: 00,3735           50000                          INDEX    A
000113: 00,3736           31000                          CA       DELAYLOC                              #  IS THIS DELAYLOC AVAILABLE
000114: 00,3737           00006                          EXTEND
000115: 00,3740           13745                          BZF      OK2DELAY                              #  YES
000116:
000117: 00,3741           10070                          CCS      RUPTREG1                              #  NO, TRY NEXT DELAYLOC
000118: 00,3742           13734                          TCF      DELLOOP
000119:
000120: 00,3743           07706                          TC       BAILOUT                               #  NO AVAILABLE LOCS.
000121: 00,3744           31104                          OCT      31104
000122:
000123: 00,3745           33765        OK2DELAY          CA       TCSLEEP                               #  SET WAITLIST IMMEDIATE RETURN
000124: 00,3746           54061                          TS       WAITEXIT
000125:
000126: 00,3747           30004                          CA       FBANK
000127: 00,3750           60070                          AD       RUPTREG1                              #  STORE BBANK FOR TASK CALL
000128: 00,3751           54001                          TS       L
000129:
000130: 00,3752           33766                          CAF      WAKECAD                               #  STORE CADR FOR TASK CALL
000131: 00,3753           15243                          TCF      DLY2       -1                         #  DLY IS IN WAITLIST ROUTINE
000132:
000133: 00,3754           04665        TCGETCAD          TC       MAKECADR                              #  GET CALLERS FCADR
000134:
000135: 00,3755           50070                          INDEX    RUPTREG1
000136: 00,3756           55000                          TS       DELAYLOC                              #  SAVE DELAY CADRS
000137:
000138: 00,3757           05163                          TC       JOBSLEEP
000139:
000140: 00,3760           34772        WAKER             CAF      ZERO
000141: 00,3761           50006                          INDEX    BBANK
000142: 00,3762           57000                          XCH      DELAYLOC                              #  MAKE DELAYLOC AVAILABLE
000143: 00,3763           05167                          TC       JOBWAKE


000145: 00,3764           05314                          TC       TASKOVER
000146:
000147: 00,3765           03752        TCSLEEP           GENADR   TCGETCAD   -2
000148: 00,3766           03760        WAKECAD           GENADR   WAKER
000149:


000151:
000152:                                                                                                 #  GENTRAN, A BLOCK TRANSFER ROUTINE
000153:
000154:                                                                                                 #  WRITTEN BY D. EYLES
000155:                                                                                                 #  MOD 1 BY KERNAN                                                UTILITYM REV 17 11/18/67
000156:
000157:                                                                                                 #  MOD 2 BY SCHULENBERG   (REMOVE RELINT)   SKIPPER REV 4 2/28/68
000158:
000159:                                                                                                 #  THIS ROUTINE IS USEFUL FOR TRANSFERRING N CONSECUTIVE ERASABLE OR FIXED QUANTITIES TO SOME OTHER N
000160:                                                                                                 #  CONSECUTIVE ERASABLE LOCATIONS.  IF BOTH BLOCKS OF DATA ARE IN SWITCHABLE EBANKS, THEY MUST BE IN THE SAME ONE.
000161:
000162:                                                                                                 #  GENTRAN IS CALLABLE IN A JOB AS WELL AS A RUPT.  THE CALLING SEQUENCE IS:
000163:
000164:                                                                                                 #         I       CA      N-1             # # OF QUANTITIES MINUS ONE.
000165:                                                                                                 #         I +1    TC      GENTRAN         # IN FIXED-FIXED.
000166:                                                                                                 #         I +2    ADRES   L               # STARTING ADRES OF DATA TO BE MOVED.
000167:                                                                                                 #         I +3    ADRES   M               # STARTING ADRES OF DUPLICATION BLOCK.
000168:                                                                                                 #         I +4                            # RETURNS HERE.
000169:
000170:                                                                                                 #  GENTRAN TAKES 25 MCT'S (300 MICROSECONDS) PER ITEM + 5 MCT'S (60 MICS) FOR ENTERING AND EXITING.
000171:
000172:                                                                                                 #  A, L, AND ITEMP1 ARE NOT PRESERVED.
000173:
000174:    4000                                          SETLOC   FFTAG4
000175:    4000                                          BANK
000176:
000177:    5607     0061                                 EBANK=   ITEMP1
000178:
000179:    5607                                          COUNT*   $$/TRAN
000180:
000181:    5607           00004        GENTRAN           INHINT
000182:    5610           54061                 +1       TS       ITEMP1                                #  SAVE N-1
000183:    5611           50002                          INDEX    Q                                     #  C(Q) = ADRES L.
000184:    5612           60000                          AD       0                                     #  ADRES (L + N - 1).
000185:    5613           50000                          INDEX    A
000186:    5614           30000                          CA       0                                     #  C(ABOVE).
000187:    5615           54001                          TS       L                                     #  SAVE DATA.
000188:    5616           30061                          CA       ITEMP1
000189:    5617           50002                          INDEX    Q
000190:    5620           60001                          AD       1                                     #  ADRES (M + N - 1).
000191:    5621           50000                          INDEX    A
000192:    5622           22000                          LXCH     0                                     #  STUFF IT.
000193:    5623           10061                          CCS      ITEMP1                                #  LOOP UNTIL N-1 = 0.
000194:    5624           15610                          TCF      GENTRAN    +1
000195:    5625           16710                          TCF      Q+2                                   #  RETURN TO CALLER.
000196:


000198:
000199:                                                                                                 #  B5OFF          ZERO BIT 5 OF EXTVBACT, WHICH IS SET BY TESTXACT.
000200:                                                                                                 #  MAY BE USED AS NEEDED BY ANY EXTENDED VERB WHICH HAS DONE TESTXACT
000201:
000202:    5626                                          COUNT*   $$/EXTVB
000203:
000204:    5626           44764        B5OFF             CS       BIT5
000205:    5627           71247                          MASK     EXTVBACT
000206:    5630           55247                          TS       EXTVBACT
000207:    5631           05205                          TC       ENDOFJOB
000208:


000210:
000211:                                                                                                 #  SUBROUTINES TO TURN OFF AND TURN ON TRACKER FAIL LIGHT.
000212:
000213:    5632                                          COUNT*   $$/DSPLA
000214:    5632           00004        TRFAILOF          INHINT
000215:    5633           47670                          CS       OCT40200                              #  TURN OFF TRACKER LIGHT
000216:    5634           71241                          MASK     DSPTAB     +11D
000217:    5635           64752                          AD       BIT15
000218:    5636           55241                          TS       DSPTAB     +11D
000219:    5637           41337                          CS       OPTMODES                              #  TO INSURE THAT OCDU FAIL WILL GO ON
000220:    5640           74762                          MASK     OCDUFBIT                              #  AGAIN IF IT WAS ON IN ADDITION TO
000221:    5641           27337                          ADS      OPTMODES                              #  TRACKER FAIL.
000222:
000223:    5642           00003        REQ               RELINT
000224:    5643           00002                          TC       Q
000225:
000226:    5644           00004        TRFAILON          INHINT
000227:    5645           41241                          CS       DSPTAB     +11D                       #  TURN ON
000228:    5646           77670                          MASK     OCT40200
000229:    5647           27241                          ADS      DSPTAB     +11D
000230:    5650           15642                          TCF      REQ
000231:
000232:    5651           10000        INCRQCK           CCS      A
000233:    5652           24002                          INCR     Q
000234:    5653           00002                          TC       Q
000235:    5654                                          COUNT*   $$/CFAIL
000236:    5654           54001        C31BTCHK          TS       L                                     #  SAVE MASK
000237:    5655           30374                          CA       C31FLWRD
000238:    5656           74346                          MASK     FAILBIT
000239:    5657           10000                          CCS      A
000240:    5660           15667                          TCF      USEFLBTS
000241:    5661           00006                          EXTEND
000242:    5662           00031                          READ     CHAN31
000243:    5663           70001        C31CMCHK          MASK     L
000244:    5664           00006                          EXTEND
000245:    5665           16711                          BZF      TCQ                                   #  BITS SET
000246:    5666           16706                          TCF      Q+1                                   #  BITS NOT SET
000247:
000248:    5667           30374        USEFLBTS          CA       C31FLWRD
000249:    5670           15663                          TCF      C31CMCHK
000250:
000251:    5671     4346               FAILBIT           =        PRIO30
000252:

End of include-file SERVICE_ROUTINES.agc.  Parent file is MAIN.agc


