
Source Code


000002:                                                                                                  ## Copyright:   Public domain.
000003:                                                                                                  ## Filename:    SERVICE_ROUTINES.agc
000004:                                                                                                  ## Purpose:     Part of the source code for Artemis (i.e., Colossus 3),
000005:                                                                                                  ##              build 072.  This is for the Command Module's (CM)
000006:                                                                                                  ##              Apollo Guidance Computer (AGC), for
000007:                                                                                                  ##              Apollo 15-17.
000008:                                                                                                  ## Assembler:   yaYUL
000009:                                                                                                  ## Contact:     Jim Lawton <jim DOT lawton AT gmail DOT com>
000010:                                                                                                  ## Website:     www.ibiblio.org/apollo/index.html
000011:                                                                                                  ## Page Scans:  www.ibiblio.org/apollo/ScansForConversion/Artemis072/
000012:                                                                                                  ## Mod history: 2009-08-18 JL   Adapted from corresponding Comanche 055 file.
000013:                                                                                                  ##              2010-02-01 JL   Fixed build error: missing code at end.
000014:                                                                                                  ##              2010-02-07 JL   Removed spurious NDX instruction on p1478.
000015:                                                                                                  ##              2010-02-20 RSB  Un-##'d this header.
000016:                                                                                                  ##              2017-02-08 RSB  Proofed comment text by diff'ing vs Comanche 55
000017:                                                                                                  ##                              and/or octopus/ProoferComments as most-appropriate.
000018:


000020:
000021: 10,2000                                           SETLOC   DISPLAYS
000022: 10,2000                                           BANK
000023: 10,3755                                           COUNT*   $$/DSPLA
000024: 10,3755           54001        UPENT2             TS       L
000025: 10,3756           40100                           CS       FLAGWRD4
000026: 10,3757           70001                           MASK     L
000027: 10,3760           26100                           ADS      FLAGWRD4
000028: 10,3761           00002                           TC       Q                                     #  RETURN
000029:
000030: 10,3762           40000        DOWNENT2           COM                                            #  START TO PROCESS INFORMATION
000031: 10,3763           70100                           MASK     FLAGWRD4
000032: 10,3764           54100                           TS       FLAGWRD4
000033: 10,3765           00002                           TC       Q                                     #  RETURN
000034:
000035: 10,3766     4774               OCT7               EQUALS   SEVEN
000036:


000038:
000039:                                                                                                  #  UPFLAG AND DOWNFLAG ARE ENTIRELY GENERAL FLAG SETTING AND CLEARING SUBROUTINES.  USING THEM, WHETHER OR
000040:                                                                                                  #  NOT IN INTERRUPT, ONE MAY SET OR CLEAR ANY SINGLE, NAMED BIT IN ANY ERASABLE REGISTER, SUBJECT OF COURSE TO
000041:                                                                                                  #  EBANK SETTING.  A "NAMED" BIT, AS THE WORD IS USED HERE, IS ANY BIT WITH A NAME FORMALLY ASSIGNED BY THE YUL
000042:                                                                                                  #  ASSEMBLER.
000043:
000044:                                                                                                  #  AT PRESENT THE ONLY NAMED BITS ARE THOSE IN THE FLAGWORDS.  ASSEMBLER CHANGES WILL MAKE IT POSSIBLE TO
000045:                                                                                                  #  NAME ANY BIT IN ERASABLE MEMORY.
000046:
000047:                                                                                                  #  CALLING SEQUENCES ARE AS FOLLOWS:-
000048:                                                                                                  #                TC      UPFLAG                  TC      DOWNFLAG
000049:                                                                                                  #                ADRES   NAME OF FLAG            ADRES   NAME OF FLAG
000050:
000051:                                                                                                  #  RETURN IS TO THE LOCATION FOLLOWING THE "ADRES" ABOUT .58 MS AFTER THE "TC".
000052:                                                                                                  #  UPON RETURN A CONTAINS THE CURRENT FLAGWRD SETTING.
000053:
000054:    4000                                           SETLOC   FFTAG1
000055:    4000                                           BANK
000056:    5547                                           COUNT*   $$/FLAG
000057:
000058:    5547           30002        UPFLAG             CA       Q
000059:    5550           05565                           TC       DEBIT
000060:    5551           40000                           COM                                            #  +(15 - BIT)
000061:    5552           00006                           EXTEND
000062:    5553           04001                           ROR      LCHAN                                 #  SET BIT
000063:    5554           50061        COMFLAG            INDEX    ITEMP1
000064:    5555           54074                           TS       FLAGWRD0
000065:    5556           22063                           LXCH     ITEMP3
000066:    5557           00003                           RELINT
000067:    5560           00001                           TC       L
000068:
000069:    5561           30002        DOWNFLAG           CA       Q
000070:    5562           05565                           TC       DEBIT
000071:    5563           70001                           MASK     L                                     #  RESET BIT
000072:    5564           15554                           TCF      COMFLAG
000073:
000074:    5565           64770        DEBIT              AD       ONE                                   #  GET DE BITS
000075:    5566           00004                           INHINT
000076:    5567           54063                           TS       ITEMP3
000077:    5570           34777                           CA       LOW4                                  #  DEC15
000078:    5571           54061                           TS       ITEMP1
000079:    5572           50063                           INDEX    ITEMP3
000080:    5573           27777                           CA       0          -1                         #  ADRES
000081:    5574           54001                           TS       L
000082:    5575           34772                           CA       ZERO
000083:    5576           00006                           EXTEND


000085:    5577           10061                           DV       ITEMP1                                #  A = FLAGWRD, L = (15 - BIT)
000086:    5600           52062                           DXCH     ITEMP1
000087:    5601           50061                           INDEX    ITEMP1
000088:    5602           30074                           CA       FLAGWRD0
000089:    5603           54001                           TS       L                                     #  CURRENT STATE
000090:    5604           50062                           INDEX    ITEMP2
000091:    5605           44752                           CS       BIT15                                 #  -(15 - BIT)
000092:    5606           00002                           TC       Q
000093:


000095:
000096:                                                                                                  #  DELAYJOB - A GENERAL ROUTINE TO DELAY A JOB A SPECIFIC AMOUNT OF TIME BEFORE PICKING UP AGAIN.
000097:
000098:                                                                                                  #  ENTRANCE REQUIREMENTS ...
000099:                                                                                                  #                CAF     DT              DELAY JOB FOR DT CENTISECS
000100:                                                                                                  #                TC      BANKCALL
000101:                                                                                                  #                CADR    DELAYJOB
000102:
000103: 00,2000                                           SETLOC   DLAYJOB
000104: 00,2000                                           BANK
000105:
000106:                                                                                                  #  THIS MUST REMAIN IN BANK 0 *****************************************
000107: 00,3730                                           COUNT*   $$/DELAY
000108: 00,3730           35016        1SECDELY           CAF      1SEC
000109: 00,3731           00004        DELAYJOB           INHINT
000110: 00,3732           54002                           TS       Q                                     #  STORE DELAY DT IN Q FOR DLY -1 IN
000111:
000112: 00,3733           36214                           CAF      DELAYNUM                              #  WAITLIST
000113: 00,3734           54070        DELLOOP            TS       RUPTREG1
000114: 00,3735           50000                           INDEX    A
000115: 00,3736           31000                           CA       DELAYLOC                              #  IS THIS DELAYLOC AVAILABLE
000116: 00,3737           00006                           EXTEND
000117: 00,3740           13745                           BZF      OK2DELAY                              #  YES
000118:
000119: 00,3741           10070                           CCS      RUPTREG1                              #  NO, TRY NEXT DELAYLOC
000120: 00,3742           13734                           TCF      DELLOOP
000121:
000122: 00,3743           07706                           TC       BAILOUT                               #  NO AVAILABLE LOCS AVAILABLE.
000123: 00,3744           31104                           OCT      31104
000124:
000125: 00,3745           33765        OK2DELAY           CA       TCSLEEP                               #  SET WAITLIST IMMEDIATE RETURN
000126: 00,3746           54061                           TS       WAITEXIT
000127:
000128: 00,3747           30004                           CA       FBANK
000129: 00,3750           60070                           AD       RUPTREG1                              #  STORE BBANK FOR TASK CALL
000130: 00,3751           54001                           TS       L
000131:
000132: 00,3752           33766                           CAF      WAKECAD                               #  STORE CADR FOR TASK CALL
000133: 00,3753           15243                           TCF      DLY2       -1                         #  DLY IS IN WAITLIST ROUTINE
000134:
000135: 00,3754           04665        TCGETCAD           TC       MAKECADR                              #  GET CALLERS FCADR
000136:
000137: 00,3755           50070                           INDEX    RUPTREG1
000138: 00,3756           55000                           TS       DELAYLOC                              #  SAVE DELAY CADRS
000139:
000140: 00,3757           05163                           TC       JOBSLEEP
000141:
000142: 00,3760           34772        WAKER              CAF      ZERO
000143: 00,3761           50006                           INDEX    BBANK
000144: 00,3762           57000                           XCH      DELAYLOC                              #  MAKE DELAYLOC AVAILABLE
000145: 00,3763           05167                           TC       JOBWAKE


000147: 00,3764           05314                           TC       TASKOVER
000148:
000149: 00,3765           03752        TCSLEEP            GENADR   TCGETCAD   -2
000150: 00,3766           03760        WAKECAD            GENADR   WAKER
000151:


000153:
000154:                                                                                                  #  GENTRAN, A BLOCK TRANSFER ROUTINE.
000155:
000156:                                                                                                  #  WRITTEN BY D. EYLES
000157:                                                                                                  #  MOD 1 BY KERNAN                                               UTILITYM REV 17 11/18/67
000158:
000159:                                                                                                  #  MOD 2 BY SCHULENBERG  (REMOVE RELINT)   SKIPPER REV 4 2/28/68
000160:
000161:                                                                                                  #  THIS ROUTINE IS USEFULL FOR TRANSFERING N CONSECUTIVE ERASABLE OR FIXED QUANTITIES TO SOME OTHER N
000162:                                                                                                  #  CONSECUTIVE ERASABLE LOCATIONS.  IF BOTH BLOCKS OF DATA ARE IN SWITCHABLE EBANKS, THEY MUST BE IN THE SAME ONE.
000163:
000164:                                                                                                  #  GENTRAN IS CALLABLE IN A JOB AS WELL AS A RUPT.  THE CALLING SEQUENCE IS:
000165:
000166:                                                                                                  #        I       CA      N-1             # OF QUANTITIES MINUS ONE.
000167:                                                                                                  #        I +1    TC      GENTRAN         IN FIXED-FIXED.
000168:                                                                                                  #        I +2    ADRES   L               STARTING ADRES OF DATA TO BE MOVED.
000169:                                                                                                  #        I +3    ADRES   M               STARTING ADRES OF DUPLICATION BLOCK.
000170:                                                                                                  #        I +4                            RETURNS HERE.
000171:
000172:                                                                                                  #  GENTRAN TAKES 25 MCT'S (300 MICROSECONDS) PER ITEM + 5 MCT'S (60 MICS) FOR ENTERING AND EXITING.
000173:
000174:                                                                                                  #  A, L AND ITEMP1 ARE NOT PRESERVED.
000175:
000176:    4000                                           SETLOC   FFTAG4
000177:    4000                                           BANK
000178:
000179:    5607     0061                                  EBANK=   ITEMP1
000180:
000181:    5607                                           COUNT*   $$/TRAN
000182:
000183:    5607           00004        GENTRAN            INHINT
000184:    5610           54061                 +1        TS       ITEMP1                                #  SAVE N-1
000185:    5611           50002                           INDEX    Q                                     #  C(Q) = ADRES L.
000186:    5612           60000                           AD       0                                     #  ADRES (L + N - 1).
000187:    5613           50000                           INDEX    A
000188:    5614           30000                           CA       0                                     #  C(ABOVE).
000189:    5615           54001                           TS       L                                     #  SAVE DATA.
000190:    5616           30061                           CA       ITEMP1
000191:    5617           50002                           INDEX    Q
000192:    5620           60001                           AD       1                                     #  ADRES (M + N - 1).
000193:    5621           50000                           INDEX    A
000194:    5622           22000                           LXCH     0                                     #  STUFF IT.
000195:    5623           10061                           CCS      ITEMP1                                #  LOOP UNTIL N-1 = 0.
000196:    5624           15610                           TCF      GENTRAN    +1
000197:    5625           16710                           TCF      Q+2                                   #  RETURN TO CALLER.
000198:


000200:
000201:                                                                                                  #  B5OFF         ZERO BIT 5 OF EXTVBACT, WHICH IS SET BY TESTXACT.
000202:                                                                                                  #  MAY BE USED AS NEEDED BY ANY EXTENDED VERB WHICH HAS DONE TESTXACT
000203:
000204:    5626                                           COUNT*   $$/EXTVB
000205:
000206:    5626           44764        B5OFF              CS       BIT5
000207:    5627           71247                           MASK     EXTVBACT
000208:    5630           55247                           TS       EXTVBACT
000209:    5631           05205                           TC       ENDOFJOB
000210:


000212:
000213:                                                                                                  #  SUBROUTINES TO TURN OFF AND TURN ON TRACKER FAIL LIGHT.
000214:
000215:    5632                                           COUNT*   $$/DSPLA
000216:    5632           00004        TRFAILOF           INHINT
000217:    5633           47670                           CS       OCT40200                              #  TURN OFF TRACKER LIGHT
000218:    5634           71241                           MASK     DSPTAB     +11D
000219:    5635           64752                           AD       BIT15
000220:    5636           55241                           TS       DSPTAB     +11D
000221:    5637           41337                           CS       OPTMODES                              #  TO INSURE THAT OCDU FAIL WILL GO ON
000222:    5640           74762                           MASK     OCDUFBIT                              #  AGAIN IF IT WAS ON IN ADDITION TO
000223:    5641           27337                           ADS      OPTMODES                              #  TRACKER FAIL.
000224:
000225:    5642           00003        REQ                RELINT
000226:    5643           00002                           TC       Q
000227:
000228:    5644           00004        TRFAILON           INHINT
000229:    5645           41241                           CS       DSPTAB     +11D                       #  TURN ON
000230:    5646           77670                           MASK     OCT40200
000231:    5647           27241                           ADS      DSPTAB     +11D
000232:    5650           15642                           TCF      REQ
000233:
000234:    5651           10000        INCRQCK            CCS      A
000235:    5652           24002                           INCR     Q
000236:    5653           00002                           TC       Q
000237:    5654                                           COUNT*   $$/CFAIL
000238:    5654           54001        C31BTCHK           TS       L                                     #  SAVE MASK
000239:    5655           30374                           CA       C31FLWRD
000240:    5656           74346                           MASK     FAILBIT
000241:    5657           10000                           CCS      A
000242:    5660           15667                           TCF      USEFLBTS
000243:    5661           00006                           EXTEND
000244:    5662           00031                           READ     CHAN31
000245:    5663           70001        C31CMCHK           MASK     L
000246:    5664           00006                           EXTEND
000247:    5665           16711                           BZF      TCQ                                   #  BITS SET
000248:    5666           16706                           TCF      Q+1                                   #  BITS NOT SET
000249:
000250:    5667           30374        USEFLBTS           CA       C31FLWRD
000251:    5670           15663                           TCF      C31CMCHK
000252:
000253:    5671     4346               FAILBIT            =        PRIO30
000254:

End of include-file SERVICE_ROUTINES.agc.  Parent file is MAIN.agc


