
Source Code


000002:                                                                                                  ## Copyright:   Public domain.
000003:                                                                                                  ## Filename:    SINGLE_PRECISION_SUBROUTINES.agc
000004:                                                                                                  ## Purpose:     Part of the source code for Artemis (i.e., Colossus 3),
000005:                                                                                                  ##              build 072.  This is for the Command Module's (CM)
000006:                                                                                                  ##              Apollo Guidance Computer (AGC), for
000007:                                                                                                  ##              Apollo 15-17.
000008:                                                                                                  ## Assembler:   yaYUL
000009:                                                                                                  ## Contact:     Jim Lawton <jim DOT lawton AT gmail DOT com>
000010:                                                                                                  ## Website:     www.ibiblio.org/apollo/index.html
000011:                                                                                                  ## Page Scans:  www.ibiblio.org/apollo/ScansForConversion/Artemis072/
000012:                                                                                                  ## Mod history: 2009-08-22 JL   Adapted from corresponding Comanche 055 file.
000013:                                                                                                  ##              2010-02-20 RSB  Un-##'d this header.
000014:                                                                                                  ##              2017-02-08 RSB  Proofed comment text by diff'ing vs Comanche 55
000015:                                                                                                  ##                              and/or octopus/ProoferComments as most-appropriate.
000016:


000018:    4000                                           SETLOC   FFTAG1
000019:    4000                                           BANK
000020:
000021:                                                                                                  #  SINGLE PRECISION SINE AND COSINE
000022:
000023:    5060                                           COUNT*   $$/INTER
000024:    5060           64753        SPCOS              AD       HALF                                  #  ARGUMENTS SCALED AT PI
000025:    5061           54742        SPSIN              TS       TEMK
000026:    5062           15064                           TCF      SPT
000027:    5063           40742                           CS       TEMK
000028:    5064           60000        SPT                DOUBLE
000029:    5065           54742                           TS       TEMK
000030:    5066           15077                           TCF      POLLEY
000031:    5067           56742                           XCH      TEMK
000032:    5070           50742                           INDEX    TEMK
000033:    5071           64751                           AD       LIMITS
000034:    5072           40000                           COM
000035:    5073           60742                           AD       TEMK
000036:    5074           54742                           TS       TEMK
000037:    5075           15077                           TCF      POLLEY
000038:    5076           15115                           TCF      ARG90
000039:    5077           00006        POLLEY             EXTEND
000040:    5100           70742                           MP       TEMK
000041:    5101           54743                           TS       SQ
000042:    5102           00006                           EXTEND
000043:    5103           75022                           MP       C5/2
000044:    5104           67672                           AD       C3/2
000045:    5105           00006                           EXTEND
000046:    5106           70743                           MP       SQ
000047:    5107           67653                           AD       C1/2
000048:    5110           00006                           EXTEND
000049:    5111           70742                           MP       TEMK
000050:    5112           20001                           DDOUBL
000051:    5113           54742                           TS       TEMK
000052:    5114           00002                           TC       Q
000053:    5115           50000        ARG90              INDEX    A
000054:    5116           44751                           CS       LIMITS
000055:    5117           00002                           TC       Q                                     #  RESULT SCALED AT 1
000056:
000057:                                                                                                  #  SPROOT WAS DELETED IN REV 51 OF MASTER. ASS. CONT. HAS CARDS.

End of include-file SINGLE_PRECISION_SUBROUTINES.agc.  Parent file is MAIN.agc


