
Source Code


000002:                                                                                                 #  Copyright:     Public domain.
000003:                                                                                                 #  Filename:      SXTMARK.agc
000004:                                                                                                 #  Purpose:       Part of the source code for Artemis (i.e., Colossus 3),
000005:                                                                                                 #                 build 072.  This is for the Command Module's (CM)
000006:                                                                                                 #                 Apollo Guidance Computer (AGC), we believe for
000007:                                                                                                 #                 Apollo 15-17.
000008:                                                                                                 #  Assembler:     yaYUL
000009:                                                                                                 #  Contact:       Jim Lawton <jim DOT lawton AT gmail DOT com>
000010:                                                                                                 #  Website:       www.ibiblio.org/apollo/index.html
000011:                                                                                                 #  Page scans:    www.ibiblio.org/apollo/ScansForConversion/Artemis072/
000012:                                                                                                 #  Mod history:   2009-08-04 JL   Adapted from corresponding Comanche 055 file.
000013:                                                                                                 #                 2010-01-31 JL   Fixed build errors.
000014:                                                                                                 #                 2010-02-11 JL   Fixed error on p242.
000015:                                                                                                 #                 2010-02-20 RSB  Un-##'d this header.
000016:


000018:
000019:                                                                                                 #  PROGRAM NAME     -     SXTMARK
000020:
000021:                                                                                                 #  MOD. 1 8 AUG. 69       BY P.RYE
000022:
000023:                                                                                                 #  FUNCTIONAL DESCRIPTION:
000024:
000025:                                                                                                 #         SXTMARK IS CALLED BY P03 AND BY P22, P23, P51, and P52 VIA R53.
000026:                                                                                                 #         THE REGISTER MARKINDX IS SET TO 5 IF THE CALLING PROGRAM IS P22, OR TO 1 FOR OTHER USERS.
000027:                                                                                                 #            THIS REGISTER INDICATES THE NUMBER OF MARKS DESIRED.
000028:                                                                                                 #         THE REGISTER EXTVBACT IS CHECKED (SUBROUTINE TESTMARK) TO INSURE THAT THE MARK DISPLAY SYSTEM
000029:                                                                                                 #            IS FREE.  IF NOT, BAILOUT (31211) IS DONE.
000030:                                                                                                 #         BIT 2 OF THE REGISTER EXTVBACT IS SET BY SXTMARK, RESERVING THE MARKING AND EXTENDED VERB SYSTEM.
000031:                                                                                                 #         SXTMARK DISPLAYS A FLASHING VERB 51, CALLING FOR MARKS.  A PROCEED RESPONSE TO THIS DISPLAY
000032:                                                                                                 #            WILL RELEASE THE MARKING SYSTEM (SUBROUTINES MKRELEAS, CLEARMARK) AND RETURN TO THE
000033:                                                                                                 #            CALLING PROGRAM.
000034:
000035:                                                                                                 #         WHEN SUFFICIENT MARKS HAVE BEEN MADE (MARKINDX = 0) A FLASHING V50N25, R1 = 16, IS DISPLAYED.
000036:                                                                                                 #            A PROCEED RESPONSE TO THIS DISPLAY WILL RETURN TO THE CALLING PROGRAM AFTER RELEASING THE
000037:                                                                                                 #            MARKING SYSTEM.
000038:
000039:                                                                                                 #         MARKS ARE PROCESSED BY THE ROUTINE MARKRUPT AS FOLLOWS:
000040:                                                                                                 #                 IF NO MARKS ARE CALLED FOR, ALARM CODE 114 IS SENT AND THE MARKRUPT ROUTINE EXITS.
000041:                                                                                                 #                 IF A MARK IS ACCEPTED, MARKFLG IS SET TO ENABLE A REJECT.
000042:                                                                                                 #                 IF R21(P20) IS RUNNING, DATA IS MOVED FROM STORAGE MRKBUF1 INTO MRKBUF2.  NEW MARK DATA
000043:                                                                                                 #                         IS STORED INTO MRKBUF1.
000044:                                                                                                 #                 IF P22 IS RUNNING, MARK DATA IS STORED INTO SVMRKDAT, USING THE REGISTER P22DEX AS AN
000045:                                                                                                 #                         INDEX AND THE REGISTER 8NN AS A COUNTER.  MARKINDX IS DECREMENTED.
000046:                                                                                                 #                 IF R57 IS RUNNING, MARK DATA IS STORED INTO MARKDOWN FOR DOWNLINK, THEN PROCESSED AS FOR
000047:                                                                                                 #                         R21.  MARKRUPT THEN CALLS MARKDISP (IN R57).1DNADR
000048:                                                                                                 #                 FOR OTHER USERS, MARK DATA IS STORED INTO MRKBUF1 AND MARKINDX IS DECREMENTED.
000049:
000050:                                                                                                 #         MARK REJECTS ARE PROCESSED BY THE ROUTINE MARKRUPT AS FOLLOWS:
000051:                                                                                                 #                 IF MARKFLG IS CLEAR (I.E., NO MARK WAS TAKEN), ALARM CODE 110 IS SENT AND THE ROUTINE EXITS.
000052:                                                                                                 #                 OTHERWISE, MARKINDX IS INCREMENTED, THE P22 INDICATORS 8NN AND P22DEX ARE DECREMENTED
000053:                                                                                                 #                         (IF THE USER IS P22), AND THE V51FL DISPLAY IN SXTMARK IS REESTABLISHED.
000054:
000055:                                                                                                 #         IF THE ERASABLE REGISTER CDUCHKWD IS SET TO A NON-ZERO VALUE, VALIDITY OF THE MARKS IS CHECKED
000056:                                                                                                 #            BY THE MARKRUPT ROUTINE AS FOLLOWS:
000057:                                                                                                 #                 IF THE CDU'S CHANGE BY MORE THAN 3 BITS OVER THE TIME PERIOD INDICATED BY THE VALUE OF
000058:                                                                                                 #                         CDUCHKWD, ALARM CODE 121 IS SENT AND THE ROUTINE EXITS.
000059:
000060:                                                                                                 #  CALLING SEQUENCE -
000061:
000062:                                                                                                 #         TC      BANKCALL
000063:                                                                                                 #         CADR    SXTMARK
000064:
000065:


000067:
000068:                                                                                                 #  NORMAL EXIT MODE -
000069:
000070:                                                                                                 #         RETURN TO USER VIA BANKJUMP (RETURN ADDRESS IN OPTCADR).
000071:
000072:
000073:                                                                                                 #  ALARM OR ABORT EXIT MODES
000074:
000075:                                                                                                 #         1. ALARM 110 - MARK REJECT WITH NO MARK
000076:                                                                                                 #         2. ALARM 113 - NO INBITS
000077:                                                                                                 #         3. ALARM 121 - CDU'S NO GOOD AT MARK TIME
000078:                                                                                                 #         4. ALARM 114 - MARK MADE BUT NOT DESIRED
000079:                                                                                                 #         5. BAILOUT 31211 - MARK DISPLAY SYSTEM BUSY
000080:
000081:
000082:                                                                                                 #  ERASABLE INITIALIZATION REQUIRED -
000083:
000084:                                                                                                 #         NONE
000085:
000086:
000087:                                                                                                 #  OUTPUT -
000088:
000089:                                                                                                 #         FOR P22:
000090:                                                                                                 #                 MARK DATA IN SVMRKDAT
000091:                                                                                                 #                 MARKINDX DECREMENTED BY ONE FOR EACH MARK TAKEN
000092:                                                                                                 #                 NO. OF MARKS IN 8NN
000093:                                                                                                 #         FOR R57:
000094:                                                                                                 #                 MARK DATA IN MARKDOWN AND MRKBUF1
000095:                                                                                                 #         FOR OTHER USERS:
000096:                                                                                                 #                 MARKINDX DECREMENTED TO ZERO IF A MARK WAS TAKEN
000097:                                                                                                 #                 MARK DATA IN MRKBUF1
000098:
000099:
000100:                                                                                                 #  CONDITIONS AT EXIT -
000101:
000102:                                                                                                 #         MARKINDX = INITIAL VALUE - NO. MARKS TAKEN
000103:                                                                                                 #         MARKING SYSTEM IS RELEASED :
000104:                                                                                                 #                 EXTVBACT = 0
000105:                                                                                                 #                 BIT 9 OPTMODES = 0
000106:                                                                                                 #                 OPTIND = -1
000107:                                                                                                 #                 BIT 2 CHAN12 = 0
000108:                                                                                                 #         MARKFLG = 0
000109:                                                                                                 #         OPTCADR CONTAINS CADR OF SXTMARK CALLER
000110:
000111:


000113: 07,2000                                          SETLOC   SXTMARKE
000114: 07,2000                                          BANK
000115:
000116: 07,2000  E7,1722                                 EBANK=   MRKBUF1
000117: 07,2000                                          COUNT*   $$/SXTMK
000118: 07,2000           02062        SXTMARK           TC       TESTMARK
000119: 07,2001           05354                          TC       CHECKMM                               #  IS THIS P24
000120: 07,2002           00030                          MM       24         B-14
000121: 07,2003           12005                          TCF      +2                                    #  NO
000122: 07,2004           12010                          TCF      SXTMRKA                               #  YES
000123: 07,2005           05354                          TC       CHECKMM
000124: 07,2006           00026                          MM       22         B-14
000125: 07,2007           12015                          TCF      SETMRK
000126: 07,2010           34772        SXTMRKA           CAF      ZERO                                  #  INITIALIZE MARK COUNTER
000127: 07,2011           55747                          TS       8NN
000128:
000129: 07,2012           55753                          TS       P22DEX
000130: 07,2013           34773                          CAF      FIVE                                  #  5 MARKS FOR P22, ONE FOR ALL OTHERS
000131: 07,2014           12016                          TCF      SETMRK     +1
000132: 07,2015           34770        SETMRK            CAF      ONE
000133: 07,2016           54301                          TS       MARKINDX
000134:
000135: 07,2017           04665                          TC       MAKECADR                              #  STORE RETURN TO USER WHO CALLED
000136: 07,2020           55336                          TS       OPTCADR                               #     SXTMARK IN OPTCADR
000137:
000138: 07,2021           04636        MKVB51            TC       BANKCALL                              #  CLEAR DISPLAY FOR MARK VERB
000139: 07,2022           20575                          CADR     KLEENEX
000140: 07,2023           32061        MKVBDSP           CAF      VB51                                  #  DISPLAY MARK VERB 51
000141: 07,2024           04636                 +1       TC       BANKCALL
000142: 07,2025           20604                          CADR     GOMARK4
000143: 07,2026           12031                          TCF      TERMSXT                               #  VB34-TERMINATE
000144: 07,2027           12042                          TCF      ENTANSWR                              #  V33-PROCEED-MARKING DONE
000145: 07,2030           12052                          TCF      MKVB5X                                #  ENTER-RECYCLE TO INITIAL MARK DISPLAY
000146:
000147: 07,2031           05527        TERMSXT           TC       CLEARMRK                              #  CLEAR MARK ACTIVITY.
000148:
000149: 07,2032           02073                          TC       MKRLEES
000150:
000151: 07,2033           05354                          TC       CHECKMM
000152: 07,2034           00003                          MM       03         B-14
000153: 07,2035           12037                          TCF      +2
000154: 07,2036           02040                          TC       TERMP03
000155: 07,2037           04103                          TC       GOTOPOOH
000156:
000157: 07,2040           04655        TERMP03           TC       POSTJUMP
000158: 07,2041           67370                          CADR     GCOMP5
000159:
000160: 07,2042           37645        ENTANSWR          CAF      PRIO24
000161: 07,2043           05121                          TC       NOVAC


000163: 07,2044  E7,1777                                 EBANK=   WHOCARES
000164: 07,2044           05524 04067                    2CADR    ENDEXT
000165:
000166: 07,2046           35052                          CAF      PRIO13                                #  ALLOW LEFTOVER SLEEPING JOB IF ANY
000167: 07,2047           05176                          TC       PRIOCHNG
000168:
000169: 07,2050           31336        MKVRET            CA       OPTCADR                               #  OPTCADR HAS RETURNED CADR OF USER WHO
000170: 07,2051           04660                          TC       BANKJUMP                              #     CALLED SXTMARK
000171:
000172: 07,2052           10301        MKVB5X            CCS      MARKINDX                              #  REDISPLAY VB51 IF MORE MARKS WANTED
000173: 07,2053           12021                          TCF      MKVB51
000174: 07,2054           34321        MKVB50            CAF      R1D1                                  #  OCT 16
000175: 07,2055           55250                          TS       DSPTEM1
000176: 07,2056           32060                          CAF      V50N25                                #  DISPLAY V50N25 IF MARKING DONE.
000177: 07,2057           12024                          TCF      MKVBDSP    +1
000178: 07,2060           14431        V50N25            VN       5025
000179: 07,2061           14600        VB51              VN       5100
000180:
000181: 07,2062           36211        TESTMARK          CAF      SIX
000182: 07,2063           71247                          MASK     EXTVBACT
000183: 07,2064           10000                          CCS      A
000184: 07,2065           12071                          TCF      MKABORT
000185: 07,2066           34767                          CAF      BIT2
000186: 07,2067           27247                          ADS      EXTVBACT
000187: 07,2070           00002                          TC       Q
000188:
000189: 07,2071           07706        MKABORT           TC       BAILOUT
000190: 07,2072           31211                          OCT      31211
000191:
000192: 07,2073  07,2073               MKRELEAS          EQUALS   MKRLEES
000193:
000194: 07,2073           00004        MKRLEES           INHINT
000195: 07,2074           37702                          CA       NEGONE
000196: 07,2075           55323                          TS       OPTIND                                #  KILL COARS OPTICS
000197:
000198: 07,2076           34772                          CAF      ZERO
000199: 07,2077           54301                          TS       MARKINDX
000200:
000201: 07,2100           44765                          CS       MARKBIT
000202: 07,2101           70075                          MASK     FLAGWRD1
000203: 07,2102           54075                          TS       FLAGWRD1
000204:
000205: 07,2103           00003                          RELINT
000206:
000207: 07,2104           00002                          TC       Q
000208:


000210:
000211: 07,2105           54016        MARKRUPT          TS       BANKRUPT                              #  STORE CDUS AND OPTICS NOW
000212: 07,2106           30035                          CA       CDUT
000213: 07,2107           54361                          TS       MKCDUT
000214: 07,2110           30036                          CA       CDUS
000215: 07,2111           54357                          TS       MKCDUS
000216: 07,2112           30033                          CA       CDUY
000217: 07,2113           54356                          TS       MKCDUY
000218: 07,2114           30034                          CA       CDUZ
000219: 07,2115           54360                          TS       MKCDUZ
000220: 07,2116           30032                          CA       CDUX
000221: 07,2117           54362                          TS       MKCDUX
000222: 07,2120           00006                          EXTEND
000223: 07,2121           30025                          DCA      TIME2                                 #  GET TIME
000224: 07,2122           52355                          DXCH     MKT2T1
000225: 07,2123           00006                          EXTEND
000226: 07,2124           30355                          DCA      MKT2T1
000227: 07,2125           52014                          DXCH     SAMPTIME                              #  RUPT TIME FOR NOUN 65.
000228:
000229: 07,2126           56002                          XCH      Q
000230: 07,2127           54012                          TS       QRUPT
000231:
000232: 07,2130           34763                          CAF      BIT6                                  #  SEE IF MARK OR MKREJECT
000233: 07,2131           00006                          EXTEND
000234: 07,2132           02016                          RAND     NAVKEYIN
000235: 07,2133           10000                          CCS      A
000236: 07,2134           02154                          TC       MARKIT                                #  ITS A MARK
000237:
000238: 07,2135           34762                          CAF      BIT7                                  #  NOT A MARK, SEE IF MKREJECT
000239: 07,2136           00006                          EXTEND
000240: 07,2137           02016                          RAND     NAVKEYIN
000241: 07,2140           10000                          CCS      A
000242: 07,2141           02344                          TC       MKREJECT                              #  ITS A MARK REJECT
000243:
000244: 07,2142           34342        KEYCALL           CAF      OCT37                                 #  NOT MARK OR MKREJECT, SEE IF KEYCODE
000245: 07,2143           00006                          EXTEND
000246: 07,2144           02016                          RAND     NAVKEYIN
000247: 07,2145           00006                          EXTEND
000248: 07,2146           12151                          BZF      +3                                    #  IF NO INBITS
000249: 07,2147           04655                          TC       POSTJUMP
000250: 07,2150           17675                          CADR     KEYCOM                                #  IT'S A KEY CODE, NOT A MARK.
000251:
000252: 07,2151           05671                 +3       TC       ALARM                                 #  ALARM IF NO INBITS
000253: 07,2152           00113                          OCT      113
000254: 07,2153           05323                          TC       RESUME
000255:


000257:
000258:                                                                                                 #  PROGRAM NAME - MARKIT                                  DATE: 19 SEPT 1967
000259:
000260:                                                                                                 #  CALLING SEQUENCE
000261:                                                                                                 #         FROM MARKRUPT IF CHAN 16 BIT 6 = 1
000262:
000263:                                                                                                 #  EXIT
000264:                                                                                                 #         RESUME
000265:
000266:                                                                                                 #  INPUT
000267:                                                                                                 #         CDUCHKWD. ALSO ALL INITIALIZATION FOR MARKCONT
000268:
000269:                                                                                                 #  OUTPUT
000270:                                                                                                 #         MK22T1,MKCDUX,MKCDUY,MKCDUZ,MKCDUS,MKCDUT
000271:
000272:                                                                                                 #  ALARM EXIT
000273:                                                                                                 #         NONE
000274:
000275: 07,2154           11341        MARKIT            CCS      CDUCHKWD
000276: 07,2155           12160                          TCF      +3                                    #  DELAY OF CDUCHKWD CS IF PNZ
000277: 07,2156           12160                          TCF      +2
000278: 07,2157           34772                          CAF      ZERO
000279: 07,2160           64770                          AD       ONE                                   #  10 MS IF NO CHECK
000280: 07,2161           05233                          TC       WAITLIST
000281: 07,2162  E7,1722                                 EBANK=   MRKBUF1
000282: 07,2162           02165 16067                    2CADR    MARKDIF
000283:
000284: 07,2164           15323                          TCF      RESUME
000285:
000286: 07,2165           34753        MARKDIF           CAF      P24BIT                                #  IS THIS P24
000287: 07,2166           70105                          MASK     FLAGWRD9
000288: 07,2167           10000                          CCS      A
000289: 07,2170           12204                          TCF      MARKCONT                              #  YES ACCEPT MARK
000290: 07,2171           31341                          CA       CDUCHKWD                              #  IF DELAY CHECK IS ZERO OR NEG, ACP MARK
000291: 07,2172           00006                          EXTEND
000292: 07,2173           62204                          BZMF     MARKCONT
000293: 07,2174           44770                          CS       BIT1
000294: 07,2175           54353                          TS       MKNDX                                 #  SET INDEX -1
000295: 07,2176           30362                          CA       MKCDUX
000296: 07,2177           02325                          TC       DIFCHK                                #  SEE IF VEHICLE RATE TOO MUCH AT MARK
000297: 07,2200           30356                          CA       MKCDUY
000298: 07,2201           02325                          TC       DIFCHK
000299: 07,2202           30360                          CA       MKCDUZ
000300: 07,2203           02325                          TC       DIFCHK
000301:
000302: 07,2204           34753        MARKCONT          CAF      R21BIT                                #  R21 MARKING
000303: 07,2205           70076                          MASK     FLAGWRD2
000304: 07,2206           10000                          CCS      A
000305: 07,2207           12314                          TCF      PUTMARK                               #  YES
000306:
000307: 07,2210           34755                          CAF      V59FLBIT


000309: 07,2211           70101                          MASK     FLAGWRD5                              #  V59FLAG
000310: 07,2212           10000                          CCS      A
000311: 07,2213           12304                          TCF      DOWNMRK
000312:
000313: 07,2214           10301                          CCS      MARKINDX                              #  MARKS CALLED FOR
000314: 07,2215           12221                          TCF      MARK2                                 #  YES
000315:
000316: 07,2216           05671        114ALM            TC       ALARM
000317: 07,2217           00114                          OCT      114                                   #  MARKS NOT CALLED FOR
000318: 07,2220           05314                          TC       TASKOVER
000319:
000320: 07,2221           54301        MARK2             TS       MARKINDX                              #  DECREMENT NO. MARKS WANTED
000321:
000322: 07,2222           05547                          TC       UPFLAG
000323: 07,2223           00032                          ADRES    MARKFLG                               #  SET FLAG TO ENABLE REJECT
000324:
000325: 07,2224           05354                          TC       CHECKMM                               #  IS THIS P24
000326: 07,2225           00030                          MM       24         B-14
000327: 07,2226           12235                          TCF      MRKCHK22                              #  NO
000328: 07,2227           24301                          INCR     MARKINDX                              #  RESTORE THIS REGISTER
000329: 07,2230           05547                          TC       UPFLAG
000330: 07,2231           00061                          ADRES    P22MKFLG                              #  DOWNLINK CONTAINS P24 MARKS
000331: 07,2232           05547                          TC       UPFLAG
000332: 07,2233           00052                          ADRES    P24MKFLG                              #  NEW P24MARK TAKEN
000333: 07,2234           12240                          TCF      VACSTOR    -1
000334: 07,2235           05354        MRKCHK22          TC       CHECKMM
000335: 07,2236           00026                          MM       22         B-14
000336: 07,2237           12314                          TCF      PUTMARK
000337: 07,2240           25747                 -1       INCR     8NN                                   #  NO, MARKS TAKEN.
000338: 07,2241           00006        VACSTOR           EXTEND
000339: 07,2242           30355                          DCA      MKT2T1
000340: 07,2243           51753                          INDEX    P22DEX
000341: 07,2244           53540                          DXCH     SVMRKDAT
000342: 07,2245           00006                          EXTEND
000343: 07,2246           30357                          DCA      MKCDUY
000344: 07,2247           51753                          INDEX    P22DEX
000345: 07,2250           53542                          DXCH     SVMRKDAT   +2
000346: 07,2251           00006                          EXTEND
000347: 07,2252           30361                          DCA      MKCDUZ
000348: 07,2253           51753                          INDEX    P22DEX
000349: 07,2254           53544                          DXCH     SVMRKDAT   +4
000350: 07,2255           30362                          CA       MKCDUX
000351: 07,2256           51753                          INDEX    P22DEX
000352: 07,2257           55545                          TS       SVMRKDAT   +6
000353:
000354: 07,2260           05354                          TC       CHECKMM                               #  IS THIS P24
000355: 07,2261           00030                          MM       24         B-14
000356: 07,2262           12273                          TCF      INDINC                                #  NO
000357: 07,2263           44172                          CS       OCT34                                 #  YES DEC 28
000358: 07,2264           61753                          AD       P22DEX


000360: 07,2265           00006                          EXTEND                                         #  ARE THERE ANY MORE LOC LEFT IN MARK
000361: 07,2266           12270                          BZF      +2                                    #  DOWNLINK BUFFER
000362: 07,2267           12273                          TCF      INDINC                                #  YES
000363: 07,2270           34772                          CA       ZERO                                  #  REINITIALIZE INDEX FOR
000364: 07,2271           55753                          TS       P22DEX                                #  BEGINNING OF BUFFER
000365: 07,2272           12275                          TCF      MARKDONE
000366: 07,2273           34774        INDINC            CAF      SEVEN
000367: 07,2274           27753                          ADS      P22DEX
000368: 07,2275           10301        MARKDONE          CCS      MARKINDX                              #  ANY MORE MARKS TO BE TAKEN
000369: 07,2276           15314                          TCF      TASKOVER
000370: 07,2277           37644                          CAF      PRIO22
000371: 07,2300           05135                          TC       FINDVAC
000372: 07,2301  E7,1722                                 EBANK=   MRKBUF1
000373: 07,2301           02052 16067                    2CADR    MKVB5X
000374:
000375: 07,2303           15314                          TCF      TASKOVER
000376:
000377: 07,2304           36211        DOWNMRK           CAF      SIX                                   #  FOR CALIBRATION MARK
000378: 07,2305           05607                          TC       GENTRAN
000379: 07,2306           00354                          ADRES    MKT2T1
000380: 07,2307           01674                          ADRES    MARKDOWN
000381:
000382: 07,2310           35047                          CAF      PRIO5
000383: 07,2311           05121                          TC       NOVAC
000384: 07,2312  E7,1722                                 EBANK=   MRKBUF1
000385: 07,2312           02230 76067                    2CADR    MARKDISP
000386:
000387: 07,2314           36211        PUTMARK           CAF      SIX
000388: 07,2315           05607                          TC       GENTRAN
000389: 07,2316           00354                          ADRES    MKT2T1
000390: 07,2317           01722                          ADRES    MRKBUF1
000391:
000392: 07,2320           34753                          CAF      R21BIT                                #  DONT CALL VB50 DISPLAY FOR R21
000393: 07,2321           70076                          MASK     FLAGWRD2
000394: 07,2322           10000                          CCS      A
000395: 07,2323           15314                          TCF      TASKOVER
000396:
000397: 07,2324           12275                          TCF      MARKDONE
000398:
000399: 07,2325           24353        DIFCHK            INCR     MKNDX                                 #  INCREMENT INDEX
000400:
000401: 07,2326           00006                          EXTEND
000402: 07,2327           50353                          INDEX    MKNDX
000403: 07,2330           20032                          MSU      CDUX                                  #  GET MARK(ICDU) - CURRENT(ICDU)
000404: 07,2331           10000                          CCS      A
000405: 07,2332           12336                          TCF      +4
000406: 07,2333           00002                          TC       Q
000407: 07,2334           12336                          TCF      +2
000408: 07,2335           00002                          TC       Q


000410: 07,2336           67701                          AD       NEG2                                  #  SEE IF DIFFERENCE GREATER THAN 3 BITS
000411: 07,2337           00006                          EXTEND
000412: 07,2340           62335                          BZMF     -3                                    #  NOT GREATER
000413:
000414: 07,2341           05671                          TC       ALARM                                 #  COUPLED WITH PROGRAM ALARM
000415: 07,2342           00121                          OCT      00121
000416:
000417: 07,2343           15314                          TCF      TASKOVER                              #  DO NOT ACCEPT
000418:
000419: 07,2344           34753        MKREJECT          CAF      R21BIT
000420: 07,2345           70076                          MASK     FLAGWRD2                              #  R21 MARK (SPECIAL MARKING FOR R21)
000421: 07,2346           00006                          EXTEND
000422: 07,2347           12367                          BZF      MRKREJCT                              #  NOT SET THEREFORE REGULAR REJECT
000423: 07,2350           31722                          CA       MRKBUF1                               #  IS THERE A MARK IN THE BUFFER?
000424: 07,2351           00006                          EXTEND
000425: 07,2352           12355                          BZF      +3                                    #  YES - REJECT MARK IN BUFFER
000426:
000427: 07,2353           00006                          EXTEND
000428: 07,2354           62360                          BZMF     REJCTR22                              #  NO,SET FLAG TO REJECT MARK PRoCESSED-R22
000429:
000430: 07,2355           37702                          CA       NEGONE                                #  -1 (FOR R22)
000431: 07,2356           55722                          TS       MRKBUF1                               #  -0 IN TIME IS FLAG TO R22 SIGNIFYING A
000432: 07,2357           05323                          TC       RESUME
000433:
000434: 07,2360           34762        REJCTR22          CAF      R22CABIT                              #  IS R22 PROCESSING A MARK?
000435: 07,2361           70105                          MASK     FLAGWRD9
000436: 07,2362           00006                          EXTEND
000437: 07,2363           15323                          BZF      RESUME                                #  NO IGNORE MARK REJECT
000438:
000439: 07,2364           05547                          TC       UPFLAG
000440: 07,2365           00231                          ADRES    REJCTFLG                              #  YES - SET FLAG FOR R22
000441: 07,2366           05323                          TC       RESUME
000442:
000443: 07,2367           34765        MRKREJCT          CAF      MARKBIT
000444: 07,2370           70075                          MASK     FLAGWRD1
000445: 07,2371           10000                          CCS      A
000446: 07,2372           02376                          TC       REJECT3
000447:
000448: 07,2373           05671                          TC       ALARM                                 #  DONT ACCEPT TWO REJECTS TOGETHER
000449: 07,2374           00110                          OCT      110
000450: 07,2375           05323                          TC       RESUME
000451:
000452: 07,2376           05561        REJECT3           TC       DOWNFLAG
000453: 07,2377           00032                          ADRES    MARKFLG
000454:
000455: 07,2400           05354                          TC       CHECKMM                               #  IS THIS P24
000456: 07,2401           00030                          MM       24         B-14
000457: 07,2402           12422                          TCF      REJECT4                               #  NO
000458: 07,2403           05561                          TC       DOWNFLAG                              #  YES
000459: 07,2404           00052                          ADRES    P24MKFLG


000461: 07,2405           11753                          CCS      P22DEX                                #  IS MARK TO BE REJ, THE LAST MARK IN BUF
000462: 07,2406           12411                          TCF      +3                                    #  NO
000463: 07,2407           34172                          CA       OCT34                                 #  YES
000464: 07,2410           12413                          TCF      +3
000465: 07,2411           44774                          CS       SEVEN
000466: 07,2412           61753                          AD       P22DEX
000467: 07,2413           54070        REJECT5           TS       RUPTREG1
000468: 07,2414           00006                          EXTEND
000469: 07,2415           50070                          INDEX    RUPTREG1
000470: 07,2416           41540                          DCS      SVMRKDAT
000471: 07,2417           50070                          INDEX    RUPTREG1
000472: 07,2420           53540                          DXCH     SVMRKDAT
000473: 07,2421           12433                          TCF      REJEXIT
000474: 07,2422           24301        REJECT4           INCR     MARKINDX                              #  CALL FOR ANOTHER MARK
000475: 07,2423           05354                          TC       CHECKMM
000476: 07,2424           00026                          MM       22         B-14
000477: 07,2425           12433                          TCF      REJEXIT
000478:
000479: 07,2426           44770                          CS       ONE                                   #  FOR P22
000480: 07,2427           27747                          ADS      8NN
000481: 07,2430           44774                          CS       SEVEN
000482: 07,2431           27753                          ADS      P22DEX                                #  DECREMENT P22 INDEX
000483:
000484: 07,2432           12413                          TCF      REJECT5
000485:
000486: 07,2433           37644        REJEXIT           CAF      PRIO22
000487: 07,2434           05135                          TC       FINDVAC
000488: 07,2435  E7,1722                                 EBANK=   MRKBUF1
000489: 07,2435           02023 16067                    2CADR    MKVBDSP
000490:
000491: 07,2437           15323                          TCF      RESUME

End of include-file SXTMARK.agc.  Parent file is MAIN.agc


