
Source Code


000002:                                                                                                  ## Copyright:   Public domain.
000003:                                                                                                  ## Filename:    SXTMARK.agc
000004:                                                                                                  ## Purpose:     Part of the source code for Artemis (i.e., Colossus 3),
000005:                                                                                                  ##              build 072.  This is for the Command Module's (CM)
000006:                                                                                                  ##              Apollo Guidance Computer (AGC), for
000007:                                                                                                  ##              Apollo 15-17.
000008:                                                                                                  ## Assembler:   yaYUL
000009:                                                                                                  ## Contact:     Jim Lawton <jim DOT lawton AT gmail DOT com>
000010:                                                                                                  ## Website:     www.ibiblio.org/apollo/index.html
000011:                                                                                                  ## Page Scans:  www.ibiblio.org/apollo/ScansForConversion/Artemis072/
000012:                                                                                                  ## Mod history: 2009-08-04 JL   Adapted from corresponding Comanche 055 file.
000013:                                                                                                  ##              2010-01-31 JL   Fixed build errors.
000014:                                                                                                  ##              2010-02-11 JL   Fixed error on p242.
000015:                                                                                                  ##              2010-02-20 RSB  Un-##'d this header.
000016:                                                                                                  ##              2010-12-29 JL   Fixed indentation.
000017:                                                                                                  ##              2017-02-08 RSB  Proofed comment text by diff'ing vs Comanche 55
000018:                                                                                                  ##                              and/or octopus/ProoferComments as most-appropriate.
000019:


000021:
000022:                                                                                                  #  PROGRAM NAME     -     SXTMARK
000023:
000024:                                                                                                  #  MOD. 1        8 AUG. 69       BY P.RYE
000025:
000026:                                                                                                  #  FUNCTIONAL DESCRIPTION
000027:
000028:                                                                                                  #        SXTMARK IS CALLED BY P03 AND BY P22, P23, P51, AND P52 VIA R53.
000029:                                                                                                  #        THE REGISTER MARKINDX IS SET TO 5 IF THE CALLING PROGRAM IS P22, OR TO 1 FOR OTHER USERS.
000030:                                                                                                  #           THIS REGISTER INDICATES THE NUMBER OF MARKS DESIRED.
000031:                                                                                                  #        THE REGISTER EXTVBACT IS CHECKED (SUBROUTINE TESTMARK) TO INSURE THAT THE MARK DISPLAY SYSTEM
000032:                                                                                                  #           IS FREE.  IF NOT, BAILOUT (31211) IS DONE.
000033:                                                                                                  #        BIT 2 OF THE REGISTER EXTVBACT IS SET BY SXTMARK, RESERVING THE MARKING AND EXTENDED VERB SYSTEM.
000034:                                                                                                  #        SXTMARK DISPLAYS A FLASHING VERB 51, CALLING FOR MARKS.  A PROCEED RESPONSE TO THIS DISPLAY
000035:                                                                                                  #           WILL RELEASE THE MARKING SYSTEM (SUBROUTINES MKRELEAS, CLEARMARK) AND RETURN TO THE
000036:                                                                                                  #           CALLING PROGRAM.
000037:
000038:                                                                                                  #        WHEN SUFFICIENT MARKS HAVE BEEN MADE (MARKINDX = 0) A FLASHING V50N25, R1 = 16, IS DISPLAYED.
000039:                                                                                                  #           A PROCEED RESPONSE TO THIS DISPLAY WILL RETURN TO THE CALLING PROGRAM AFTER RELEASING THE
000040:                                                                                                  #           MARKING SYSTEM.
000041:
000042:                                                                                                  #        MARKS ARE PROCESSED BY THE ROUTINE MARKRUPT AS FOLLOWS:
000043:                                                                                                  #                IF NO MARKS ARE CALLED FOR, ALARM CODE 114 IS SENT AND THE MARKRUPT ROUTINE EXITS.
000044:                                                                                                  #                IF A MARK IS ACCEPTED, MARKFLG IS SET TO ENABLE A REJECT.
000045:                                                                                                  #                IF R21(P20) IS RUNNING, DATA IS MOVED FROM STORAGE MRKBUF1 INTO MRKBUF2.  NEW MARK DATA
000046:                                                                                                  #                        IS STORED INTO MRKBUF1.
000047:                                                                                                  #                IF P22 IS RUNNING, MARK DATA IS STORED INTO SVMRKDAT, USING THE REGISTER P22DEX AS AN
000048:                                                                                                  #                        INDEX AND THE REGISTER 8NN AS A COUNTER.  MARKINDX IS DECREMENTED.
000049:                                                                                                  #                IF R57 IS RUNNING, MARK DATA IS STORED INTO MARKDOWN FOR DOWNLINK, THEN PROCESSED AS FOR
000050:                                                                                                  #                        R21.  MARKRUPT THEN CALLS MARKDISP (IN R57).
000051:                                                                                                  #                FOR OTHER USERS, MARK DATA IS STORED INTO MRKBUF1 AND MARKINDX IS DECREMENTED.
000052:
000053:                                                                                                  #        MARK REJECTS ARE PROCESSED BY THE ROUTINE MARKRUPT AS FOLLOWS:
000054:                                                                                                  #                IF MARKFLG IS CLEAR (I.E., NO MARK WAS TAKEN), ALARM CODE 110 IS SENT AND THE ROUTINE EXITS.
000055:                                                                                                  #                OTHERWISE, MARKINDX IS INCREMENTED, THE P22 INDICATORS 8NN AND P22DEX ARE DECREMENTED
000056:                                                                                                  #                        (IF THE USER IS P22), AND THE V51FL DISPLAY IN SXTMARK IS REESTABLISHED.
000057:
000058:                                                                                                  #        IF THE ERASABLE REGISTER CDUCHKWD IS SET TO A NON-ZERO VALUE, VALIDITY OF THE MARKS IS CHECKED
000059:                                                                                                  #           BY THE MARKRUPT ROUTINE AS FOLLOWS:
000060:                                                                                                  #                IF THE CDU'S CHANGE BY MORE THAN 3 BITS OVER THE TIME PERIOD INDICATED BY THE VALUE OF
000061:                                                                                                  #                        CDUCHKWD, ALARM CODE 121 IS SENT AND THE ROUTINE EXITS.
000062:
000063:                                                                                                  #  CALLING SEQUENCE -
000064:
000065:                                                                                                  #        TC      BANKCALL
000066:                                                                                                  #        CADR    SXTMARK
000067:
000068:


000070:
000071:                                                                                                  #  NORMAL EXIT MODE -
000072:
000073:                                                                                                  #        RETURN TO USER VIA BANKJUMP (RETURN ADDRESS IN OPTCADR).
000074:
000075:
000076:                                                                                                  #  ALARM OR ABORT EXIT MODES
000077:
000078:                                                                                                  #        1. ALARM 110 - MARK REJECT WITH NO MARK
000079:                                                                                                  #        2. ALARM 113 - NO INBITS
000080:                                                                                                  #        3. ALARM 121 - CDU'S NO GOOD AT MARK TIME
000081:                                                                                                  #        4. ALARM 114 - MARK MADE BUT NOT DESIRED
000082:                                                                                                  #        5. BAILOUT 31211 - MARK DISPLAY SYSTEM BUSY
000083:
000084:
000085:                                                                                                  #  ERASABLE INITIALIZATION REQUIRED -
000086:
000087:                                                                                                  #        NONE
000088:
000089:
000090:                                                                                                  #  OUTPUT -
000091:
000092:                                                                                                  #        FOR P22:
000093:                                                                                                  #                MARK DATA IN SVMRKDAT
000094:                                                                                                  #                MARKINDX DECREMENTED BY ONE FOR EACH MARK TAKEN
000095:                                                                                                  #                NO. OF MARKS IN 8NN
000096:                                                                                                  #        FOR R57:
000097:                                                                                                  #                MARK DATA IN MARKDOWN AND MRKBUF1
000098:                                                                                                  #        FOR OTHER USERS:
000099:                                                                                                  #                MARKINDX DECREMENTED TO ZERO IF A MARK WAS TAKEN
000100:                                                                                                  #                MARK DATA IN MRKBUF1
000101:
000102:
000103:                                                                                                  #  CONDITIONS AT EXIT -
000104:
000105:                                                                                                  #        MARKINDX = INITIAL VALUE - NO. MARKS TAKEN
000106:                                                                                                  #        MARKING SYSTEM IS RELEASED :
000107:                                                                                                  #                EXTVBACT = 0
000108:                                                                                                  #                BIT 9 OPTMODES = 0
000109:                                                                                                  #                OPTIND = -1
000110:                                                                                                  #                BIT 2 CHAN12 = 0
000111:                                                                                                  #        MARKFLG = 0
000112:                                                                                                  #        OPTCADR CONTAINS CADR OF SXTMARK CALLER
000113:
000114:


000116: 07,2000                                           SETLOC   SXTMARKE
000117: 07,2000                                           BANK
000118:
000119: 07,2000  E7,1722                                  EBANK=   MRKBUF1
000120: 07,2000                                           COUNT*   $$/SXTMK
000121: 07,2000           02062        SXTMARK            TC       TESTMARK
000122: 07,2001           05354                           TC       CHECKMM                               #  IS THIS P24
000123: 07,2002           00030                           MM       24         B-14
000124: 07,2003           12005                           TCF      +2                                    #  NO
000125: 07,2004           12010                           TCF      SXTMRKA                               #  YES
000126: 07,2005           05354                           TC       CHECKMM
000127: 07,2006           00026                           MM       22         B-14
000128: 07,2007           12015                           TCF      SETMRK
000129: 07,2010           34772        SXTMRKA            CAF      ZERO                                  #  INITIALIZE MARK COUNTER
000130: 07,2011           55747                           TS       8NN
000131:
000132: 07,2012           55753                           TS       P22DEX
000133: 07,2013           34773                           CAF      FIVE                                  #  5 MARKS FOR P22, ONE FOR ALL OTHERS
000134: 07,2014           12016                           TCF      SETMRK     +1
000135: 07,2015           34770        SETMRK             CAF      ONE
000136: 07,2016           54301                           TS       MARKINDX
000137:
000138: 07,2017           04665                           TC       MAKECADR                              #  STORE RETURN TO USER WHO CALLED
000139: 07,2020           55336                           TS       OPTCADR                               #     SXTMARK IN OPTCADR
000140:
000141: 07,2021           04636        MKVB51             TC       BANKCALL                              #  CLEAR DISPLAY FOR MARK VERB
000142: 07,2022           20575                           CADR     KLEENEX
000143: 07,2023           32061        MKVBDSP            CAF      VB51                                  #  DISPLAY MARK VERB 51
000144: 07,2024           04636                 +1        TC       BANKCALL
000145: 07,2025           20604                           CADR     GOMARK4
000146: 07,2026           12031                           TCF      TERMSXT                               #  VB34-TERMINATE
000147: 07,2027           12042                           TCF      ENTANSWR                              #  V33-PROCEED-MARKING DONE
000148: 07,2030           12052                           TCF      MKVB5X                                #  ENTER-RECYCLE TO INITIAL MARK DISPLAY
000149:
000150: 07,2031           05527        TERMSXT            TC       CLEARMRK                              #  CLEAR MARK ACTIVITY.
000151:
000152: 07,2032           02073                           TC       MKRLEES
000153:
000154: 07,2033           05354                           TC       CHECKMM
000155: 07,2034           00003                           MM       03         B-14
000156: 07,2035           12037                           TCF      +2
000157: 07,2036           02040                           TC       TERMP03
000158: 07,2037           04103                           TC       GOTOPOOH
000159:
000160: 07,2040           04655        TERMP03            TC       POSTJUMP
000161: 07,2041           67370                           CADR     GCOMP5
000162:
000163: 07,2042           37645        ENTANSWR           CAF      PRIO24
000164: 07,2043           05121                           TC       NOVAC


000166: 07,2044  0003777                                  EBANK=   WHOCARES
000167: 07,2044           05524 04067                     2CADR    ENDEXT
000168:
000169: 07,2046           35052                           CAF      PRIO13                                #  ALLOW LEFTOVER SLEEPING JOB IF ANY
000170: 07,2047           05176                           TC       PRIOCHNG
000171:
000172: 07,2050           31336        MKVRET             CA       OPTCADR                               #  OPTCADR HAS RETURN CADR OF USER WHO
000173: 07,2051           04660                           TC       BANKJUMP                              #     CALLED SXTMARK
000174:
000175: 07,2052           10301        MKVB5X             CCS      MARKINDX                              #  REDISPLAY VB51 IF MORE MARKS WANTED
000176: 07,2053           12021                           TCF      MKVB51
000177: 07,2054           34321        MKVB50             CAF      R1D1                                  #  OCT 16
000178: 07,2055           55250                           TS       DSPTEM1
000179: 07,2056           32060                           CAF      V50N25                                #  DISPLAY V50N25 IF MARKING DONE.
000180: 07,2057           12024                           TCF      MKVBDSP    +1
000181: 07,2060           14431        V50N25             VN       5025
000182: 07,2061           14600        VB51               VN       5100
000183:
000184: 07,2062           36211        TESTMARK           CAF      SIX
000185: 07,2063           71247                           MASK     EXTVBACT
000186: 07,2064           10000                           CCS      A
000187: 07,2065           12071                           TCF      MKABORT
000188: 07,2066           34767                           CAF      BIT2
000189: 07,2067           27247                           ADS      EXTVBACT
000190: 07,2070           00002                           TC       Q
000191:
000192: 07,2071           07706        MKABORT            TC       BAILOUT
000193: 07,2072           31211                           OCT      31211
000194:
000195: 07,2073  07,2073               MKRELEAS           EQUALS   MKRLEES
000196:
000197: 07,2073           00004        MKRLEES            INHINT
000198: 07,2074           37702                           CA       NEGONE
000199: 07,2075           55323                           TS       OPTIND                                #  KILL COARS OPTICS
000200:
000201: 07,2076           34772                           CAF      ZERO
000202: 07,2077           54301                           TS       MARKINDX
000203:
000204: 07,2100           44765                           CS       MARKBIT
000205: 07,2101           70075                           MASK     FLAGWRD1
000206: 07,2102           54075                           TS       FLAGWRD1
000207:
000208: 07,2103           00003                           RELINT
000209:
000210: 07,2104           00002                           TC       Q
000211:


000213:
000214: 07,2105           54016        MARKRUPT           TS       BANKRUPT                              #  STORE CDUS AND OPTICS NOW
000215: 07,2106           30035                           CA       CDUT
000216: 07,2107           54361                           TS       MKCDUT
000217: 07,2110           30036                           CA       CDUS
000218: 07,2111           54357                           TS       MKCDUS
000219: 07,2112           30033                           CA       CDUY
000220: 07,2113           54356                           TS       MKCDUY
000221: 07,2114           30034                           CA       CDUZ
000222: 07,2115           54360                           TS       MKCDUZ
000223: 07,2116           30032                           CA       CDUX
000224: 07,2117           54362                           TS       MKCDUX
000225: 07,2120           00006                           EXTEND
000226: 07,2121           30025                           DCA      TIME2                                 #  GET TIME
000227: 07,2122           52355                           DXCH     MKT2T1
000228: 07,2123           00006                           EXTEND
000229: 07,2124           30355                           DCA      MKT2T1
000230: 07,2125           52014                           DXCH     SAMPTIME                              #  RUPT TIME FOR NOUN 65.
000231:
000232: 07,2126           56002                           XCH      Q
000233: 07,2127           54012                           TS       QRUPT
000234:
000235: 07,2130           34763                           CAF      BIT6                                  #  SEE IF MARK OR MKREJECT
000236: 07,2131           00006                           EXTEND
000237: 07,2132           02016                           RAND     NAVKEYIN
000238: 07,2133           10000                           CCS      A
000239: 07,2134           02154                           TC       MARKIT                                #  ITS A MARK
000240:
000241: 07,2135           34762                           CAF      BIT7                                  #  NOT A MARK, SEE IF MKREJECT
000242: 07,2136           00006                           EXTEND
000243: 07,2137           02016                           RAND     NAVKEYIN
000244: 07,2140           10000                           CCS      A
000245: 07,2141           02344                           TC       MKREJECT                              #  ITS A MARK REJECT
000246:
000247: 07,2142           34342        KEYCALL            CAF      OCT37                                 #  NOT MARK OR MKREJECT, SEE IF KEYCODE
000248: 07,2143           00006                           EXTEND
000249: 07,2144           02016                           RAND     NAVKEYIN
000250: 07,2145           00006                           EXTEND
000251: 07,2146           12151                           BZF      +3                                    #  IF NO INBITS
000252: 07,2147           04655                           TC       POSTJUMP
000253: 07,2150           17675                           CADR     KEYCOM                                #  IT,S A KEY CODE, NOT A MARK.
000254:
000255: 07,2151           05671                 +3        TC       ALARM                                 #  ALARM IF NO INBITS
000256: 07,2152           00113                           OCT      113
000257: 07,2153           05323                           TC       RESUME
000258:


000260:
000261:                                                                                                  #  PROGRAM NAME - MARKIT                                 DATE- 19 SEPT 1967
000262:
000263:                                                                                                  #  CALLING SEQUENCE
000264:                                                                                                  #        FROM MARKRUPT IF CHAN 16 BIT 6 = 1
000265:
000266:                                                                                                  #  EXIT
000267:                                                                                                  #        RESUME
000268:
000269:                                                                                                  #  INPUT
000270:                                                                                                  #        CDUCHKWD. ALSO ALL INITIALIZATION FOR MARKCONT
000271:
000272:                                                                                                  #  OUTPUT
000273:                                                                                                  #        MKT2T1,MKCDUX,MKCDUY,MKCDUZ,MKCDUS,MKCDUT
000274:
000275:                                                                                                  #  ALARM EXIT
000276:                                                                                                  #        NONE
000277:
000278: 07,2154           11341        MARKIT             CCS      CDUCHKWD
000279: 07,2155           12160                           TCF      +3                                    #  DELAY OF CDUCHKWD CS IF PNZ
000280: 07,2156           12160                           TCF      +2
000281: 07,2157           34772                           CAF      ZERO
000282: 07,2160           64770                           AD       ONE                                   #  10 MS IF NO CHECK
000283: 07,2161           05233                           TC       WAITLIST
000284: 07,2162  E7,1722                                  EBANK=   MRKBUF1
000285: 07,2162           02165 16067                     2CADR    MARKDIF
000286:
000287: 07,2164           15323                           TCF      RESUME
000288:
000289: 07,2165           34753        MARKDIF            CAF      P24BIT                                #  IS THIS P24
000290: 07,2166           70105                           MASK     FLAGWRD9
000291: 07,2167           10000                           CCS      A
000292: 07,2170           12204                           TCF      MARKCONT                              #  YES ACCEPT MARK
000293: 07,2171           31341                           CA       CDUCHKWD                              #  IF DELAY CHECK IS ZERO OR NEG, ACP MARK
000294: 07,2172           00006                           EXTEND
000295: 07,2173           62204                           BZMF     MARKCONT
000296: 07,2174           44770                           CS       BIT1
000297: 07,2175           54353                           TS       MKNDX                                 #  SET INDEX -1
000298: 07,2176           30362                           CA       MKCDUX
000299: 07,2177           02325                           TC       DIFCHK                                #  SEE IF VEHICLE RATE TO MUCH AT MARK
000300: 07,2200           30356                           CA       MKCDUY
000301: 07,2201           02325                           TC       DIFCHK
000302: 07,2202           30360                           CA       MKCDUZ
000303: 07,2203           02325                           TC       DIFCHK
000304:
000305: 07,2204           34753        MARKCONT           CAF      R21BIT                                #  R21 MARKING
000306: 07,2205           70076                           MASK     FLAGWRD2
000307: 07,2206           10000                           CCS      A
000308: 07,2207           12314                           TCF      PUTMARK                               #  YES
000309:
000310: 07,2210           34755                           CAF      V59FLBIT


000312: 07,2211           70101                           MASK     FLAGWRD5                              #  V59FLAG
000313: 07,2212           10000                           CCS      A
000314: 07,2213           12304                           TCF      DOWNMRK
000315:
000316: 07,2214           10301                           CCS      MARKINDX                              #  MARKS CALLED FOR
000317: 07,2215           12221                           TCF      MARK2                                 #  YES
000318:
000319: 07,2216           05671        114ALM             TC       ALARM
000320: 07,2217           00114                           OCT      114                                   #  MARKS NOT CALLED FOR
000321: 07,2220           05314                           TC       TASKOVER
000322:
000323: 07,2221           54301        MARK2              TS       MARKINDX                              #  DECREMENT NO. MARKS WANTED
000324:
000325: 07,2222           05547                           TC       UPFLAG
000326: 07,2223           00032                           ADRES    MARKFLG                               #  SET FLAG TO ENABLE REJECT
000327:
000328: 07,2224           05354                           TC       CHECKMM                               #  IS THIS P24
000329: 07,2225           00030                           MM       24         B-14
000330: 07,2226           12235                           TCF      MRKCHK22                              #  NO
000331: 07,2227           24301                           INCR     MARKINDX                              #  RESTORE THIS REGISTER
000332: 07,2230           05547                           TC       UPFLAG
000333: 07,2231           00061                           ADRES    P22MKFLG                              #  DOWNLINK CONTAINS P24 MARKS
000334: 07,2232           05547                           TC       UPFLAG
000335: 07,2233           00052                           ADRES    P24MKFLG                              #  NEW P24MARK TAKEN
000336: 07,2234           12240                           TCF      VACSTOR    -1
000337: 07,2235           05354        MRKCHK22           TC       CHECKMM
000338: 07,2236           00026                           MM       22         B-14
000339: 07,2237           12314                           TCF      PUTMARK
000340: 07,2240           25747                 -1        INCR     8NN                                   #  NO, MARKS TAKEN.
000341: 07,2241           00006        VACSTOR            EXTEND
000342: 07,2242           30355                           DCA      MKT2T1
000343: 07,2243           51753                           INDEX    P22DEX
000344: 07,2244           53540                           DXCH     SVMRKDAT
000345: 07,2245           00006                           EXTEND
000346: 07,2246           30357                           DCA      MKCDUY
000347: 07,2247           51753                           INDEX    P22DEX
000348: 07,2250           53542                           DXCH     SVMRKDAT   +2
000349: 07,2251           00006                           EXTEND
000350: 07,2252           30361                           DCA      MKCDUZ
000351: 07,2253           51753                           INDEX    P22DEX
000352: 07,2254           53544                           DXCH     SVMRKDAT   +4
000353: 07,2255           30362                           CA       MKCDUX
000354: 07,2256           51753                           INDEX    P22DEX
000355: 07,2257           55545                           TS       SVMRKDAT   +6
000356:
000357: 07,2260           05354                           TC       CHECKMM                               #  IS THIS P24
000358: 07,2261           00030                           MM       24         B-14
000359: 07,2262           12273                           TCF      INDINC                                #  NO
000360: 07,2263           44172                           CS       OCT34                                 #  YES DEC 28
000361: 07,2264           61753                           AD       P22DEX


000363: 07,2265           00006                           EXTEND                                         #  ARE THERE ANY MORE LOC LEFT IN MARK
000364: 07,2266           12270                           BZF      +2                                    #  DOWNLINK BUFFER
000365: 07,2267           12273                           TCF      INDINC                                #  YES
000366: 07,2270           34772                           CA       ZERO                                  #  REINITIALIZE INDEX FOR
000367: 07,2271           55753                           TS       P22DEX                                #  BEGINNING OF BUFFER
000368: 07,2272           12275                           TCF      MARKDONE
000369: 07,2273           34774        INDINC             CAF      SEVEN
000370: 07,2274           27753                           ADS      P22DEX
000371: 07,2275           10301        MARKDONE           CCS      MARKINDX                              #  ANY MORE MARKS TO BE TAKEN
000372: 07,2276           15314                           TCF      TASKOVER
000373: 07,2277           37644                           CAF      PRIO22
000374: 07,2300           05135                           TC       FINDVAC
000375: 07,2301  E7,1722                                  EBANK=   MRKBUF1
000376: 07,2301           02052 16067                     2CADR    MKVB5X
000377:
000378: 07,2303           15314                           TCF      TASKOVER
000379:
000380: 07,2304           36211        DOWNMRK            CAF      SIX                                   #  FOR CALIBRATION MARK
000381: 07,2305           05607                           TC       GENTRAN
000382: 07,2306           00354                           ADRES    MKT2T1
000383: 07,2307           01674                           ADRES    MARKDOWN
000384:
000385: 07,2310           35047                           CAF      PRIO5
000386: 07,2311           05121                           TC       NOVAC
000387: 07,2312  E7,1722                                  EBANK=   MRKBUF1
000388: 07,2312           02230 76067                     2CADR    MARKDISP
000389:
000390: 07,2314           36211        PUTMARK            CAF      SIX
000391: 07,2315           05607                           TC       GENTRAN
000392: 07,2316           00354                           ADRES    MKT2T1
000393: 07,2317           01722                           ADRES    MRKBUF1
000394:
000395: 07,2320           34753                           CAF      R21BIT                                #  DONT CALL VB50 DISPLAY FOR R21
000396: 07,2321           70076                           MASK     FLAGWRD2
000397: 07,2322           10000                           CCS      A
000398: 07,2323           15314                           TCF      TASKOVER
000399:
000400: 07,2324           12275                           TCF      MARKDONE
000401:
000402: 07,2325           24353        DIFCHK             INCR     MKNDX                                 #  INCREMENT INDEX
000403:
000404: 07,2326           00006                           EXTEND
000405: 07,2327           50353                           INDEX    MKNDX
000406: 07,2330           20032                           MSU      CDUX                                  #  GET MARK(ICDU) - CURRENT(ICDU)
000407: 07,2331           10000                           CCS      A
000408: 07,2332           12336                           TCF      +4
000409: 07,2333           00002                           TC       Q
000410: 07,2334           12336                           TCF      +2
000411: 07,2335           00002                           TC       Q


000413: 07,2336           67701                           AD       NEG2                                  #  SEE IF DIFFERENCE GREATER THAN 3 BITS
000414: 07,2337           00006                           EXTEND
000415: 07,2340           62335                           BZMF     -3                                    #  NOT GREATER
000416:
000417: 07,2341           05671                           TC       ALARM                                 #  COUPLED WITH PROGRAM ALARM
000418: 07,2342           00121                           OCT      00121
000419:
000420: 07,2343           15314                           TCF      TASKOVER                              #  DO NOT ACCEPT
000421:
000422: 07,2344           34753        MKREJECT           CAF      R21BIT
000423: 07,2345           70076                           MASK     FLAGWRD2                              #  R21 MARK (SPECIAL MARKING FOR R21)
000424: 07,2346           00006                           EXTEND
000425: 07,2347           12367                           BZF      MRKREJCT                              #  NOT SET THEREFORE REGULAR REJECT
000426: 07,2350           31722                           CA       MRKBUF1                               #  IS THERE A MARK IN THE BUFFER?
000427: 07,2351           00006                           EXTEND
000428: 07,2352           12355                           BZF      +3                                    #  YES - REJECT MARK IN BUFFER
000429:
000430: 07,2353           00006                           EXTEND
000431: 07,2354           62360                           BZMF     REJCTR22                              #  NO,SET FLAG TO REJECT MARK PROCESSED-R22
000432:
000433: 07,2355           37702                           CA       NEGONE                                #  -1 (FOR R22)
000434: 07,2356           55722                           TS       MRKBUF1                               #  -0 IN TIME IS FLAG TO R22 SIGNIFYING A
000435: 07,2357           05323                           TC       RESUME
000436:
000437: 07,2360           34762        REJCTR22           CAF      R22CABIT                              #  IS R22 PROCESSING A MARK?
000438: 07,2361           70105                           MASK     FLAGWRD9
000439: 07,2362           00006                           EXTEND
000440: 07,2363           15323                           BZF      RESUME                                #  NO IGNORE MARK REJECT
000441:
000442: 07,2364           05547                           TC       UPFLAG
000443: 07,2365           00231                           ADRES    REJCTFLG                              #  YES - SET FLAG FOR R22
000444: 07,2366           05323                           TC       RESUME
000445:
000446: 07,2367           34765        MRKREJCT           CAF      MARKBIT
000447: 07,2370           70075                           MASK     FLAGWRD1
000448: 07,2371           10000                           CCS      A
000449: 07,2372           02376                           TC       REJECT3
000450:
000451: 07,2373           05671                           TC       ALARM                                 #  DONT ACCEPT TWO REJECTS TOGETHER
000452: 07,2374           00110                           OCT      110
000453: 07,2375           05323                           TC       RESUME
000454:
000455: 07,2376           05561        REJECT3            TC       DOWNFLAG
000456: 07,2377           00032                           ADRES    MARKFLG
000457:
000458: 07,2400           05354                           TC       CHECKMM                               #  IS THIS P24
000459: 07,2401           00030                           MM       24         B-14
000460: 07,2402           12422                           TCF      REJECT4                               #  NO
000461: 07,2403           05561                           TC       DOWNFLAG                              #  YES
000462: 07,2404           00052                           ADRES    P24MKFLG


000464: 07,2405           11753                           CCS      P22DEX                                #  IS MARK TO BE REJ, THE LAST MARK IN BUF
000465: 07,2406           12411                           TCF      +3                                    #  NO
000466: 07,2407           34172                           CA       OCT34                                 #  YES
000467: 07,2410           12413                           TCF      +3
000468: 07,2411           44774                           CS       SEVEN
000469: 07,2412           61753                           AD       P22DEX
000470: 07,2413           54070        REJECT5            TS       RUPTREG1
000471: 07,2414           00006                           EXTEND
000472: 07,2415           50070                           INDEX    RUPTREG1
000473: 07,2416           41540                           DCS      SVMRKDAT
000474: 07,2417           50070                           INDEX    RUPTREG1
000475: 07,2420           53540                           DXCH     SVMRKDAT
000476: 07,2421           12433                           TCF      REJEXIT
000477: 07,2422           24301        REJECT4            INCR     MARKINDX                              #  CALL FOR ANOTHER MARK
000478: 07,2423           05354                           TC       CHECKMM
000479: 07,2424           00026                           MM       22         B-14
000480: 07,2425           12433                           TCF      REJEXIT
000481:
000482: 07,2426           44770                           CS       ONE                                   #  FOR P22
000483: 07,2427           27747                           ADS      8NN
000484: 07,2430           44774                           CS       SEVEN
000485: 07,2431           27753                           ADS      P22DEX                                #  DECREMENT P22 INDEX
000486:
000487: 07,2432           12413                           TCF      REJECT5
000488:
000489: 07,2433           37644        REJEXIT            CAF      PRIO22
000490: 07,2434           05135                           TC       FINDVAC
000491: 07,2435  E7,1722                                  EBANK=   MRKBUF1
000492: 07,2435           02023 16067                     2CADR    MKVBDSP
000493:
000494: 07,2437           15323                           TCF      RESUME

End of include-file SXTMARK.agc.  Parent file is MAIN.agc


