
Source Code


000002:                                                                                                  ## Copyright:   Public domain.
000003:                                                                                                  ## Filename:    SXTMARK.agc
000004:                                                                                                  ## Purpose:     Part of the source code for Artemis (i.e., Colossus 3),
000005:                                                                                                  ##              build 072.  This is for the Command Module's (CM)
000006:                                                                                                  ##              Apollo Guidance Computer (AGC), we believe for
000007:                                                                                                  ##              Apollo 15-17.
000008:                                                                                                  ## Assembler:   yaYUL
000009:                                                                                                  ## Contact:     Jim Lawton <jim DOT lawton AT gmail DOT com>
000010:                                                                                                  ## Website:     www.ibiblio.org/apollo/index.html
000011:                                                                                                  ## Page Scans:  www.ibiblio.org/apollo/ScansForConversion/Artemis072/
000012:                                                                                                  ## Mod history: 2009-08-04 JL   Adapted from corresponding Comanche 055 file.
000013:                                                                                                  ##              2010-01-31 JL   Fixed build errors.
000014:                                                                                                  ##              2010-02-11 JL   Fixed error on p242.
000015:                                                                                                  ##              2010-02-20 RSB  Un-##'d this header.
000016:                                                                                                  ##              2010-12-29 JL   Fixed indentation.
000017:


000019:
000020:                                                                                                  #  PROGRAM NAME     -     SXTMARK
000021:
000022:                                                                                                  #  MOD. 1        8 AUG. 69       BY P.RYE
000023:
000024:                                                                                                  #  FUNCTIONAL DESCRIPTION:
000025:
000026:                                                                                                  #        SXTMARK IS CALLED BY P03 AND BY P22, P23, P51, and P52 VIA R53.
000027:                                                                                                  #        THE REGISTER MARKINDX IS SET TO 5 IF THE CALLING PROGRAM IS P22, OR TO 1 FOR OTHER USERS.
000028:                                                                                                  #           THIS REGISTER INDICATES THE NUMBER OF MARKS DESIRED.
000029:                                                                                                  #        THE REGISTER EXTVBACT IS CHECKED (SUBROUTINE TESTMARK) TO INSURE THAT THE MARK DISPLAY SYSTEM
000030:                                                                                                  #           IS FREE.  IF NOT, BAILOUT (31211) IS DONE.
000031:                                                                                                  #        BIT 2 OF THE REGISTER EXTVBACT IS SET BY SXTMARK, RESERVING THE MARKING AND EXTENDED VERB SYSTEM.
000032:                                                                                                  #        SXTMARK DISPLAYS A FLASHING VERB 51, CALLING FOR MARKS.  A PROCEED RESPONSE TO THIS DISPLAY
000033:                                                                                                  #           WILL RELEASE THE MARKING SYSTEM (SUBROUTINES MKRELEAS, CLEARMARK) AND RETURN TO THE
000034:                                                                                                  #           CALLING PROGRAM.
000035:
000036:                                                                                                  #        WHEN SUFFICIENT MARKS HAVE BEEN MADE (MARKINDX = 0) A FLASHING V50N25, R1 = 16, IS DISPLAYED.
000037:                                                                                                  #           A PROCEED RESPONSE TO THIS DISPLAY WILL RETURN TO THE CALLING PROGRAM AFTER RELEASING THE
000038:                                                                                                  #           MARKING SYSTEM.
000039:
000040:                                                                                                  #        MARKS ARE PROCESSED BY THE ROUTINE MARKRUPT AS FOLLOWS:
000041:                                                                                                  #                IF NO MARKS ARE CALLED FOR, ALARM CODE 114 IS SENT AND THE MARKRUPT ROUTINE EXITS.
000042:                                                                                                  #                IF A MARK IS ACCEPTED, MARKFLG IS SET TO ENABLE A REJECT.
000043:                                                                                                  #                IF R21(P20) IS RUNNING, DATA IS MOVED FROM STORAGE MRKBUF1 INTO MRKBUF2.  NEW MARK DATA
000044:                                                                                                  #                        IS STORED INTO MRKBUF1.
000045:                                                                                                  #                IF P22 IS RUNNING, MARK DATA IS STORED INTO SVMRKDAT, USING THE REGISTER P22DEX AS AN
000046:                                                                                                  #                        INDEX AND THE REGISTER 8NN AS A COUNTER.  MARKINDX IS DECREMENTED.
000047:                                                                                                  #                IF R57 IS RUNNING, MARK DATA IS STORED INTO MARKDOWN FOR DOWNLINK, THEN PROCESSED AS FOR
000048:                                                                                                  #                        R21.  MARKRUPT THEN CALLS MARKDISP (IN R57).1DNADR
000049:                                                                                                  #                FOR OTHER USERS, MARK DATA IS STORED INTO MRKBUF1 AND MARKINDX IS DECREMENTED.
000050:
000051:                                                                                                  #        MARK REJECTS ARE PROCESSED BY THE ROUTINE MARKRUPT AS FOLLOWS:
000052:                                                                                                  #                IF MARKFLG IS CLEAR (I.E., NO MARK WAS TAKEN), ALARM CODE 110 IS SENT AND THE ROUTINE EXITS.
000053:                                                                                                  #                OTHERWISE, MARKINDX IS INCREMENTED, THE P22 INDICATORS 8NN AND P22DEX ARE DECREMENTED
000054:                                                                                                  #                        (IF THE USER IS P22), AND THE V51FL DISPLAY IN SXTMARK IS REESTABLISHED.
000055:
000056:                                                                                                  #        IF THE ERASABLE REGISTER CDUCHKWD IS SET TO A NON-ZERO VALUE, VALIDITY OF THE MARKS IS CHECKED
000057:                                                                                                  #           BY THE MARKRUPT ROUTINE AS FOLLOWS:
000058:                                                                                                  #                IF THE CDU'S CHANGE BY MORE THAN 3 BITS OVER THE TIME PERIOD INDICATED BY THE VALUE OF
000059:                                                                                                  #                        CDUCHKWD, ALARM CODE 121 IS SENT AND THE ROUTINE EXITS.
000060:
000061:                                                                                                  #  CALLING SEQUENCE -
000062:
000063:                                                                                                  #        TC      BANKCALL
000064:                                                                                                  #        CADR    SXTMARK
000065:
000066:


000068:
000069:                                                                                                  #  NORMAL EXIT MODE -
000070:
000071:                                                                                                  #        RETURN TO USER VIA BANKJUMP (RETURN ADDRESS IN OPTCADR).
000072:
000073:
000074:                                                                                                  #  ALARM OR ABORT EXIT MODES
000075:
000076:                                                                                                  #        1. ALARM 110 - MARK REJECT WITH NO MARK
000077:                                                                                                  #        2. ALARM 113 - NO INBITS
000078:                                                                                                  #        3. ALARM 121 - CDU'S NO GOOD AT MARK TIME
000079:                                                                                                  #        4. ALARM 114 - MARK MADE BUT NOT DESIRED
000080:                                                                                                  #        5. BAILOUT 31211 - MARK DISPLAY SYSTEM BUSY
000081:
000082:
000083:                                                                                                  #  ERASABLE INITIALIZATION REQUIRED -
000084:
000085:                                                                                                  #        NONE
000086:
000087:
000088:                                                                                                  #  OUTPUT -
000089:
000090:                                                                                                  #        FOR P22:
000091:                                                                                                  #                MARK DATA IN SVMRKDAT
000092:                                                                                                  #                MARKINDX DECREMENTED BY ONE FOR EACH MARK TAKEN
000093:                                                                                                  #                NO. OF MARKS IN 8NN
000094:                                                                                                  #        FOR R57:
000095:                                                                                                  #                MARK DATA IN MARKDOWN AND MRKBUF1
000096:                                                                                                  #        FOR OTHER USERS:
000097:                                                                                                  #                MARKINDX DECREMENTED TO ZERO IF A MARK WAS TAKEN
000098:                                                                                                  #                MARK DATA IN MRKBUF1
000099:
000100:
000101:                                                                                                  #  CONDITIONS AT EXIT -
000102:
000103:                                                                                                  #        MARKINDX = INITIAL VALUE - NO. MARKS TAKEN
000104:                                                                                                  #        MARKING SYSTEM IS RELEASED :
000105:                                                                                                  #                EXTVBACT = 0
000106:                                                                                                  #                BIT 9 OPTMODES = 0
000107:                                                                                                  #                OPTIND = -1
000108:                                                                                                  #                BIT 2 CHAN12 = 0
000109:                                                                                                  #        MARKFLG = 0
000110:                                                                                                  #        OPTCADR CONTAINS CADR OF SXTMARK CALLER
000111:
000112:


000114: 07,2000                                           SETLOC   SXTMARKE
000115: 07,2000                                           BANK
000116:
000117: 07,2000  E7,1722                                  EBANK=   MRKBUF1
000118: 07,2000                                           COUNT*   $$/SXTMK
000119: 07,2000           02062        SXTMARK            TC       TESTMARK
000120: 07,2001           05354                           TC       CHECKMM                               #  IS THIS P24
000121: 07,2002           00030                           MM       24         B-14
000122: 07,2003           12005                           TCF      +2                                    #  NO
000123: 07,2004           12010                           TCF      SXTMRKA                               #  YES
000124: 07,2005           05354                           TC       CHECKMM
000125: 07,2006           00026                           MM       22         B-14
000126: 07,2007           12015                           TCF      SETMRK
000127: 07,2010           34772        SXTMRKA            CAF      ZERO                                  #  INITIALIZE MARK COUNTER
000128: 07,2011           55747                           TS       8NN
000129:
000130: 07,2012           55753                           TS       P22DEX
000131: 07,2013           34773                           CAF      FIVE                                  #  5 MARKS FOR P22, ONE FOR ALL OTHERS
000132: 07,2014           12016                           TCF      SETMRK     +1
000133: 07,2015           34770        SETMRK             CAF      ONE
000134: 07,2016           54301                           TS       MARKINDX
000135:
000136: 07,2017           04665                           TC       MAKECADR                              #  STORE RETURN TO USER WHO CALLED
000137: 07,2020           55336                           TS       OPTCADR                               #     SXTMARK IN OPTCADR
000138:
000139: 07,2021           04636        MKVB51             TC       BANKCALL                              #  CLEAR DISPLAY FOR MARK VERB
000140: 07,2022           20575                           CADR     KLEENEX
000141: 07,2023           32061        MKVBDSP            CAF      VB51                                  #  DISPLAY MARK VERB 51
000142: 07,2024           04636                 +1        TC       BANKCALL
000143: 07,2025           20604                           CADR     GOMARK4
000144: 07,2026           12031                           TCF      TERMSXT                               #  VB34-TERMINATE
000145: 07,2027           12042                           TCF      ENTANSWR                              #  V33-PROCEED-MARKING DONE
000146: 07,2030           12052                           TCF      MKVB5X                                #  ENTER-RECYCLE TO INITIAL MARK DISPLAY
000147:
000148: 07,2031           05527        TERMSXT            TC       CLEARMRK                              #  CLEAR MARK ACTIVITY.
000149:
000150: 07,2032           02073                           TC       MKRLEES
000151:
000152: 07,2033           05354                           TC       CHECKMM
000153: 07,2034           00003                           MM       03         B-14
000154: 07,2035           12037                           TCF      +2
000155: 07,2036           02040                           TC       TERMP03
000156: 07,2037           04103                           TC       GOTOPOOH
000157:
000158: 07,2040           04655        TERMP03            TC       POSTJUMP
000159: 07,2041           67370                           CADR     GCOMP5
000160:
000161: 07,2042           37645        ENTANSWR           CAF      PRIO24
000162: 07,2043           05121                           TC       NOVAC


000164: 07,2044  0003777                                  EBANK=   WHOCARES
000165: 07,2044           05524 04067                     2CADR    ENDEXT
000166:
000167: 07,2046           35052                           CAF      PRIO13                                #  ALLOW LEFTOVER SLEEPING JOB IF ANY
000168: 07,2047           05176                           TC       PRIOCHNG
000169:
000170: 07,2050           31336        MKVRET             CA       OPTCADR                               #  OPTCADR HAS RETURNED CADR OF USER WHO
000171: 07,2051           04660                           TC       BANKJUMP                              #     CALLED SXTMARK
000172:
000173: 07,2052           10301        MKVB5X             CCS      MARKINDX                              #  REDISPLAY VB51 IF MORE MARKS WANTED
000174: 07,2053           12021                           TCF      MKVB51
000175: 07,2054           34321        MKVB50             CAF      R1D1                                  #  OCT 16
000176: 07,2055           55250                           TS       DSPTEM1
000177: 07,2056           32060                           CAF      V50N25                                #  DISPLAY V50N25 IF MARKING DONE.
000178: 07,2057           12024                           TCF      MKVBDSP    +1
000179: 07,2060           14431        V50N25             VN       5025
000180: 07,2061           14600        VB51               VN       5100
000181:
000182: 07,2062           36211        TESTMARK           CAF      SIX
000183: 07,2063           71247                           MASK     EXTVBACT
000184: 07,2064           10000                           CCS      A
000185: 07,2065           12071                           TCF      MKABORT
000186: 07,2066           34767                           CAF      BIT2
000187: 07,2067           27247                           ADS      EXTVBACT
000188: 07,2070           00002                           TC       Q
000189:
000190: 07,2071           07706        MKABORT            TC       BAILOUT
000191: 07,2072           31211                           OCT      31211
000192:
000193: 07,2073  07,2073               MKRELEAS           EQUALS   MKRLEES
000194:
000195: 07,2073           00004        MKRLEES            INHINT
000196: 07,2074           37702                           CA       NEGONE
000197: 07,2075           55323                           TS       OPTIND                                #  KILL COARS OPTICS
000198:
000199: 07,2076           34772                           CAF      ZERO
000200: 07,2077           54301                           TS       MARKINDX
000201:
000202: 07,2100           44765                           CS       MARKBIT
000203: 07,2101           70075                           MASK     FLAGWRD1
000204: 07,2102           54075                           TS       FLAGWRD1
000205:
000206: 07,2103           00003                           RELINT
000207:
000208: 07,2104           00002                           TC       Q
000209:


000211:
000212: 07,2105           54016        MARKRUPT           TS       BANKRUPT                              #  STORE CDUS AND OPTICS NOW
000213: 07,2106           30035                           CA       CDUT
000214: 07,2107           54361                           TS       MKCDUT
000215: 07,2110           30036                           CA       CDUS
000216: 07,2111           54357                           TS       MKCDUS
000217: 07,2112           30033                           CA       CDUY
000218: 07,2113           54356                           TS       MKCDUY
000219: 07,2114           30034                           CA       CDUZ
000220: 07,2115           54360                           TS       MKCDUZ
000221: 07,2116           30032                           CA       CDUX
000222: 07,2117           54362                           TS       MKCDUX
000223: 07,2120           00006                           EXTEND
000224: 07,2121           30025                           DCA      TIME2                                 #  GET TIME
000225: 07,2122           52355                           DXCH     MKT2T1
000226: 07,2123           00006                           EXTEND
000227: 07,2124           30355                           DCA      MKT2T1
000228: 07,2125           52014                           DXCH     SAMPTIME                              #  RUPT TIME FOR NOUN 65.
000229:
000230: 07,2126           56002                           XCH      Q
000231: 07,2127           54012                           TS       QRUPT
000232:
000233: 07,2130           34763                           CAF      BIT6                                  #  SEE IF MARK OR MKREJECT
000234: 07,2131           00006                           EXTEND
000235: 07,2132           02016                           RAND     NAVKEYIN
000236: 07,2133           10000                           CCS      A
000237: 07,2134           02154                           TC       MARKIT                                #  ITS A MARK
000238:
000239: 07,2135           34762                           CAF      BIT7                                  #  NOT A MARK, SEE IF MKREJECT
000240: 07,2136           00006                           EXTEND
000241: 07,2137           02016                           RAND     NAVKEYIN
000242: 07,2140           10000                           CCS      A
000243: 07,2141           02344                           TC       MKREJECT                              #  ITS A MARK REJECT
000244:
000245: 07,2142           34342        KEYCALL            CAF      OCT37                                 #  NOT MARK OR MKREJECT, SEE IF KEYCODE
000246: 07,2143           00006                           EXTEND
000247: 07,2144           02016                           RAND     NAVKEYIN
000248: 07,2145           00006                           EXTEND
000249: 07,2146           12151                           BZF      +3                                    #  IF NO INBITS
000250: 07,2147           04655                           TC       POSTJUMP
000251: 07,2150           17675                           CADR     KEYCOM                                #  IT'S A KEY CODE, NOT A MARK.
000252:
000253: 07,2151           05671                 +3        TC       ALARM                                 #  ALARM IF NO INBITS
000254: 07,2152           00113                           OCT      113
000255: 07,2153           05323                           TC       RESUME
000256:


000258:
000259:                                                                                                  #  PROGRAM NAME - MARKIT                                 DATE: 19 SEPT 1967
000260:
000261:                                                                                                  #  CALLING SEQUENCE
000262:                                                                                                  #        FROM MARKRUPT IF CHAN 16 BIT 6 = 1
000263:
000264:                                                                                                  #  EXIT
000265:                                                                                                  #        RESUME
000266:
000267:                                                                                                  #  INPUT
000268:                                                                                                  #        CDUCHKWD. ALSO ALL INITIALIZATION FOR MARKCONT
000269:
000270:                                                                                                  #  OUTPUT
000271:                                                                                                  #        MK22T1,MKCDUX,MKCDUY,MKCDUZ,MKCDUS,MKCDUT
000272:
000273:                                                                                                  #  ALARM EXIT
000274:                                                                                                  #        NONE
000275:
000276: 07,2154           11341        MARKIT             CCS      CDUCHKWD
000277: 07,2155           12160                           TCF      +3                                    #  DELAY OF CDUCHKWD CS IF PNZ
000278: 07,2156           12160                           TCF      +2
000279: 07,2157           34772                           CAF      ZERO
000280: 07,2160           64770                           AD       ONE                                   #  10 MS IF NO CHECK
000281: 07,2161           05233                           TC       WAITLIST
000282: 07,2162  E7,1722                                  EBANK=   MRKBUF1
000283: 07,2162           02165 16067                     2CADR    MARKDIF
000284:
000285: 07,2164           15323                           TCF      RESUME
000286:
000287: 07,2165           34753        MARKDIF            CAF      P24BIT                                #  IS THIS P24
000288: 07,2166           70105                           MASK     FLAGWRD9
000289: 07,2167           10000                           CCS      A
000290: 07,2170           12204                           TCF      MARKCONT                              #  YES ACCEPT MARK
000291: 07,2171           31341                           CA       CDUCHKWD                              #  IF DELAY CHECK IS ZERO OR NEG, ACP MARK
000292: 07,2172           00006                           EXTEND
000293: 07,2173           62204                           BZMF     MARKCONT
000294: 07,2174           44770                           CS       BIT1
000295: 07,2175           54353                           TS       MKNDX                                 #  SET INDEX -1
000296: 07,2176           30362                           CA       MKCDUX
000297: 07,2177           02325                           TC       DIFCHK                                #  SEE IF VEHICLE RATE TOO MUCH AT MARK
000298: 07,2200           30356                           CA       MKCDUY
000299: 07,2201           02325                           TC       DIFCHK
000300: 07,2202           30360                           CA       MKCDUZ
000301: 07,2203           02325                           TC       DIFCHK
000302:
000303: 07,2204           34753        MARKCONT           CAF      R21BIT                                #  R21 MARKING
000304: 07,2205           70076                           MASK     FLAGWRD2
000305: 07,2206           10000                           CCS      A
000306: 07,2207           12314                           TCF      PUTMARK                               #  YES
000307:
000308: 07,2210           34755                           CAF      V59FLBIT


000310: 07,2211           70101                           MASK     FLAGWRD5                              #  V59FLAG
000311: 07,2212           10000                           CCS      A
000312: 07,2213           12304                           TCF      DOWNMRK
000313:
000314: 07,2214           10301                           CCS      MARKINDX                              #  MARKS CALLED FOR
000315: 07,2215           12221                           TCF      MARK2                                 #  YES
000316:
000317: 07,2216           05671        114ALM             TC       ALARM
000318: 07,2217           00114                           OCT      114                                   #  MARKS NOT CALLED FOR
000319: 07,2220           05314                           TC       TASKOVER
000320:
000321: 07,2221           54301        MARK2              TS       MARKINDX                              #  DECREMENT NO. MARKS WANTED
000322:
000323: 07,2222           05547                           TC       UPFLAG
000324: 07,2223           00032                           ADRES    MARKFLG                               #  SET FLAG TO ENABLE REJECT
000325:
000326: 07,2224           05354                           TC       CHECKMM                               #  IS THIS P24
000327: 07,2225           00030                           MM       24         B-14
000328: 07,2226           12235                           TCF      MRKCHK22                              #  NO
000329: 07,2227           24301                           INCR     MARKINDX                              #  RESTORE THIS REGISTER
000330: 07,2230           05547                           TC       UPFLAG
000331: 07,2231           00061                           ADRES    P22MKFLG                              #  DOWNLINK CONTAINS P24 MARKS
000332: 07,2232           05547                           TC       UPFLAG
000333: 07,2233           00052                           ADRES    P24MKFLG                              #  NEW P24MARK TAKEN
000334: 07,2234           12240                           TCF      VACSTOR    -1
000335: 07,2235           05354        MRKCHK22           TC       CHECKMM
000336: 07,2236           00026                           MM       22         B-14
000337: 07,2237           12314                           TCF      PUTMARK
000338: 07,2240           25747                 -1        INCR     8NN                                   #  NO, MARKS TAKEN.
000339: 07,2241           00006        VACSTOR            EXTEND
000340: 07,2242           30355                           DCA      MKT2T1
000341: 07,2243           51753                           INDEX    P22DEX
000342: 07,2244           53540                           DXCH     SVMRKDAT
000343: 07,2245           00006                           EXTEND
000344: 07,2246           30357                           DCA      MKCDUY
000345: 07,2247           51753                           INDEX    P22DEX
000346: 07,2250           53542                           DXCH     SVMRKDAT   +2
000347: 07,2251           00006                           EXTEND
000348: 07,2252           30361                           DCA      MKCDUZ
000349: 07,2253           51753                           INDEX    P22DEX
000350: 07,2254           53544                           DXCH     SVMRKDAT   +4
000351: 07,2255           30362                           CA       MKCDUX
000352: 07,2256           51753                           INDEX    P22DEX
000353: 07,2257           55545                           TS       SVMRKDAT   +6
000354:
000355: 07,2260           05354                           TC       CHECKMM                               #  IS THIS P24
000356: 07,2261           00030                           MM       24         B-14
000357: 07,2262           12273                           TCF      INDINC                                #  NO
000358: 07,2263           44172                           CS       OCT34                                 #  YES DEC 28
000359: 07,2264           61753                           AD       P22DEX


000361: 07,2265           00006                           EXTEND                                         #  ARE THERE ANY MORE LOC LEFT IN MARK
000362: 07,2266           12270                           BZF      +2                                    #  DOWNLINK BUFFER
000363: 07,2267           12273                           TCF      INDINC                                #  YES
000364: 07,2270           34772                           CA       ZERO                                  #  REINITIALIZE INDEX FOR
000365: 07,2271           55753                           TS       P22DEX                                #  BEGINNING OF BUFFER
000366: 07,2272           12275                           TCF      MARKDONE
000367: 07,2273           34774        INDINC             CAF      SEVEN
000368: 07,2274           27753                           ADS      P22DEX
000369: 07,2275           10301        MARKDONE           CCS      MARKINDX                              #  ANY MORE MARKS TO BE TAKEN
000370: 07,2276           15314                           TCF      TASKOVER
000371: 07,2277           37644                           CAF      PRIO22
000372: 07,2300           05135                           TC       FINDVAC
000373: 07,2301  E7,1722                                  EBANK=   MRKBUF1
000374: 07,2301           02052 16067                     2CADR    MKVB5X
000375:
000376: 07,2303           15314                           TCF      TASKOVER
000377:
000378: 07,2304           36211        DOWNMRK            CAF      SIX                                   #  FOR CALIBRATION MARK
000379: 07,2305           05607                           TC       GENTRAN
000380: 07,2306           00354                           ADRES    MKT2T1
000381: 07,2307           01674                           ADRES    MARKDOWN
000382:
000383: 07,2310           35047                           CAF      PRIO5
000384: 07,2311           05121                           TC       NOVAC
000385: 07,2312  E7,1722                                  EBANK=   MRKBUF1
000386: 07,2312           02230 76067                     2CADR    MARKDISP
000387:
000388: 07,2314           36211        PUTMARK            CAF      SIX
000389: 07,2315           05607                           TC       GENTRAN
000390: 07,2316           00354                           ADRES    MKT2T1
000391: 07,2317           01722                           ADRES    MRKBUF1
000392:
000393: 07,2320           34753                           CAF      R21BIT                                #  DONT CALL VB50 DISPLAY FOR R21
000394: 07,2321           70076                           MASK     FLAGWRD2
000395: 07,2322           10000                           CCS      A
000396: 07,2323           15314                           TCF      TASKOVER
000397:
000398: 07,2324           12275                           TCF      MARKDONE
000399:
000400: 07,2325           24353        DIFCHK             INCR     MKNDX                                 #  INCREMENT INDEX
000401:
000402: 07,2326           00006                           EXTEND
000403: 07,2327           50353                           INDEX    MKNDX
000404: 07,2330           20032                           MSU      CDUX                                  #  GET MARK(ICDU) - CURRENT(ICDU)
000405: 07,2331           10000                           CCS      A
000406: 07,2332           12336                           TCF      +4
000407: 07,2333           00002                           TC       Q
000408: 07,2334           12336                           TCF      +2
000409: 07,2335           00002                           TC       Q


000411: 07,2336           67701                           AD       NEG2                                  #  SEE IF DIFFERENCE GREATER THAN 3 BITS
000412: 07,2337           00006                           EXTEND
000413: 07,2340           62335                           BZMF     -3                                    #  NOT GREATER
000414:
000415: 07,2341           05671                           TC       ALARM                                 #  COUPLED WITH PROGRAM ALARM
000416: 07,2342           00121                           OCT      00121
000417:
000418: 07,2343           15314                           TCF      TASKOVER                              #  DO NOT ACCEPT
000419:
000420: 07,2344           34753        MKREJECT           CAF      R21BIT
000421: 07,2345           70076                           MASK     FLAGWRD2                              #  R21 MARK (SPECIAL MARKING FOR R21)
000422: 07,2346           00006                           EXTEND
000423: 07,2347           12367                           BZF      MRKREJCT                              #  NOT SET THEREFORE REGULAR REJECT
000424: 07,2350           31722                           CA       MRKBUF1                               #  IS THERE A MARK IN THE BUFFER?
000425: 07,2351           00006                           EXTEND
000426: 07,2352           12355                           BZF      +3                                    #  YES - REJECT MARK IN BUFFER
000427:
000428: 07,2353           00006                           EXTEND
000429: 07,2354           62360                           BZMF     REJCTR22                              #  NO,SET FLAG TO REJECT MARK PRoCESSED-R22
000430:
000431: 07,2355           37702                           CA       NEGONE                                #  -1 (FOR R22)
000432: 07,2356           55722                           TS       MRKBUF1                               #  -0 IN TIME IS FLAG TO R22 SIGNIFYING A
000433: 07,2357           05323                           TC       RESUME
000434:
000435: 07,2360           34762        REJCTR22           CAF      R22CABIT                              #  IS R22 PROCESSING A MARK?
000436: 07,2361           70105                           MASK     FLAGWRD9
000437: 07,2362           00006                           EXTEND
000438: 07,2363           15323                           BZF      RESUME                                #  NO IGNORE MARK REJECT
000439:
000440: 07,2364           05547                           TC       UPFLAG
000441: 07,2365           00231                           ADRES    REJCTFLG                              #  YES - SET FLAG FOR R22
000442: 07,2366           05323                           TC       RESUME
000443:
000444: 07,2367           34765        MRKREJCT           CAF      MARKBIT
000445: 07,2370           70075                           MASK     FLAGWRD1
000446: 07,2371           10000                           CCS      A
000447: 07,2372           02376                           TC       REJECT3
000448:
000449: 07,2373           05671                           TC       ALARM                                 #  DONT ACCEPT TWO REJECTS TOGETHER
000450: 07,2374           00110                           OCT      110
000451: 07,2375           05323                           TC       RESUME
000452:
000453: 07,2376           05561        REJECT3            TC       DOWNFLAG
000454: 07,2377           00032                           ADRES    MARKFLG
000455:
000456: 07,2400           05354                           TC       CHECKMM                               #  IS THIS P24
000457: 07,2401           00030                           MM       24         B-14
000458: 07,2402           12422                           TCF      REJECT4                               #  NO
000459: 07,2403           05561                           TC       DOWNFLAG                              #  YES
000460: 07,2404           00052                           ADRES    P24MKFLG


000462: 07,2405           11753                           CCS      P22DEX                                #  IS MARK TO BE REJ, THE LAST MARK IN BUF
000463: 07,2406           12411                           TCF      +3                                    #  NO
000464: 07,2407           34172                           CA       OCT34                                 #  YES
000465: 07,2410           12413                           TCF      +3
000466: 07,2411           44774                           CS       SEVEN
000467: 07,2412           61753                           AD       P22DEX
000468: 07,2413           54070        REJECT5            TS       RUPTREG1
000469: 07,2414           00006                           EXTEND
000470: 07,2415           50070                           INDEX    RUPTREG1
000471: 07,2416           41540                           DCS      SVMRKDAT
000472: 07,2417           50070                           INDEX    RUPTREG1
000473: 07,2420           53540                           DXCH     SVMRKDAT
000474: 07,2421           12433                           TCF      REJEXIT
000475: 07,2422           24301        REJECT4            INCR     MARKINDX                              #  CALL FOR ANOTHER MARK
000476: 07,2423           05354                           TC       CHECKMM
000477: 07,2424           00026                           MM       22         B-14
000478: 07,2425           12433                           TCF      REJEXIT
000479:
000480: 07,2426           44770                           CS       ONE                                   #  FOR P22
000481: 07,2427           27747                           ADS      8NN
000482: 07,2430           44774                           CS       SEVEN
000483: 07,2431           27753                           ADS      P22DEX                                #  DECREMENT P22 INDEX
000484:
000485: 07,2432           12413                           TCF      REJECT5
000486:
000487: 07,2433           37644        REJEXIT            CAF      PRIO22
000488: 07,2434           05135                           TC       FINDVAC
000489: 07,2435  E7,1722                                  EBANK=   MRKBUF1
000490: 07,2435           02023 16067                     2CADR    MKVBDSP
000491:
000492: 07,2437           15323                           TCF      RESUME

End of include-file SXTMARK.agc.  Parent file is MAIN.agc


