
Source Code


000002:                                                                                                  #  Copyright:    Public domain.
000003:                                                                                                  #  Filename:     SYSTEM_TEST_STANDARD_LEAD_INS.agc
000004:                                                                                                  #  Purpose:      Part of the source code for Artemis (i.e., Colossus 3),
000005:                                                                                                  #                build 072.  This is for the Command Module's (CM)
000006:                                                                                                  #                Apollo Guidance Computer (AGC), we believe for
000007:                                                                                                  #                Apollo 15-17.
000008:                                                                                                  #  Assembler:    yaYUL
000009:                                                                                                  #  Contact:      Sergio Navarro <sergionavarrog@gmail.com>
000010:                                                                                                  #  Website:      www.ibiblio.org/apollo/index.html
000011:                                                                                                  #  Page scans:   www.ibiblio.org/apollo/ScansForConversion/Artemis072/
000012:                                                                                                  #  Mod history:  2009-08-19 SN   Adapted from corresponding Comanche 055 file.
000013:                                                                                                  #                2009-09-04 JL   Fix typos.
000014:                                                                                                  #                2010-02-20 RSB  Un-##'d this header.
000015:
000016:                                                                                                  # # Page 424
000017:
000018: ???????  0002671                                  EBANK=   XSM
000019:
000020: 13,2000                                           SETLOC   E/PROG1
000021: 13,2000                                           BANK
000022:
000023: 13,2036                                           COUNT*   $$/P07
000024:
000025:                                                                                                  #  SPECIAL PROGRAMS TO EASE THE PANGS OF ERASABLE MEMORY PROGRAMS.
000026:
000027:                                                                                                  #  E/BKCALL      FOR DOING BANKCALLS FROM AND RETURNING TO ERASABLE.
000028:
000029:                                                                                                  #  THIS ROUTINE IS CALLABLE FROM ERASABLE OR FIXED.  LIKE BANKCALL, HOWEVER, SWITCHING BETWEEN S3 AND S4
000030:                                                                                                  #  IS NOT POSSIBLE.
000031:
000032:                                                                                                  #  THE CALLING SEQUENCE IS:
000033:
000034:                                                                                                  #                TC      BANKCALL
000035:                                                                                                  #                CADR    E/BKCALL
000036:                                                                                                  #                CADR    ROUTINE         # WHERE TO WANT TO GO IN FIXED.
000037:                                                                                                  #                RETURN HERE FROM DISPLAY TERMINATE, BAD STALL OR TC Q.
000038:                                                                                                  #                RETURN HERE FROM DISPLAY PROCEED OR GOOD RETURN FROM STALL.
000039:                                                                                                  #                RETURN HERE FROM DISPLAY ENTER OR RECYCLE.
000040:
000041:                                                                                                  #  THIS ROUTINE REQUIRES TWO ERASABLES (EBUF2, +1) IN UNSWITCHED WHICH ARE UNSHARED BY INTERRUPTS AND
000042:                                                                                                  #  OTHER EMEMORY PROGRAMS.
000043:
000044:                                                                                                  #  A + L ARE PRESERVED THROUGH BANKCALL AND E/BKCALL.
000045:
000046: 13,2036           52134        E/BKCALL           DXCH     BUF2                                  #  SAVE A,L AND GET DP RETURN.
000047: 13,2037           53115                           DXCH     EBUF2                                 #  SAVE DP RETURN.
000048: 13,2040           25114                           INCR     EBUF2                                 #  RETURN +1 BECAUSE DOUBLE CADR.
000049: 13,2041           30006                           CA       BBANK
000050: 13,2042           75041                           MASK     LOW10                                 #  GET CURRENT EBANK.  (SBANK SOMEDAY)
000051: 13,2043           27115                           ADS      EBUF2      +1                         #  FORM BBCON.  (WAS FBANK)
000052: 13,2044           51114                           NDX      EBUF2
000053: 13,2045           27777                           CA       0          -1                         #  GET CADR OF ROUTINE.
000054: 13,2046           04642                           TC       SWCALL                                #  GO TO ROUTINE, SETTING Q TO SWRETURN
000055:                                                                                                  #  AND RESTORING A + L.
000056: 13,2047           02053                           TC       +4                                    #  TX Q, V34, OR BAD STALL RETURN.
000057: 13,2050           02052                           TC       +2                                    #  PROCEED OR GOOD STALL RETURN.
000058: 13,2051           25114                           INCR     EBUF2                                 #  ENTER OR RECYCLE RETURN.
000059: 13,2052           25114                           INCR     EBUF2
000060: 13,2053           53115        E/SWITCH           DXCH     EBUF2
000061: 13,2054           52006                           DTCB
000062:
000063:                                                                                                  # # Page 425
000064:                                                                                                  #  E/CALL        FOR CALLING A FIXED MEMORY INTERPRETIVE SUBROUTINE FROM ERASABLE AND RETURNING TO ERASABLE.
000065:
000066:                                                                                                  #  THE CALLING SEQUENCE IS...
000067:
000068:                                                                                                  #                RTB
000069:                                                                                                  #                        E/CALL
000070:                                                                                                  #                CADR    ROUTINE         # THE INTERPRETIVE SUBROUTINE YOU WANT.
000071:                                                                                                  #                                        # RETURNS HERE IN INTERPRETIVE.
000072:
000073: 13,2055           22164        E/CALL             LXCH     LOC                                   #  ADRES -1 OF CADR.
000074: 13,2056           50001                           INDEX    L
000075: 13,2057           30001                           CA       L                                     #  CADR IN A.
000076: 13,2060           24001                           INCR     L
000077: 13,2061           24001                           INCR     L                                     #  RETURN ADRES IN L.
000078: 13,2062           53115                           DXCH     EBUF2                                 #  STORE CADR AND RETURN.
000079: 13,2063           06006                           TC       INTPRET
000080: 13,2064           77624                           CALL
000081: 13,2065           01114                                    EBUF2                                 #  INDIRECTLY EXECUTE ROUTINE.  IT MUST
000082: 13,2066           77776                           EXIT                                           #  LEAVE VIA RVQ OR EQUIVALENT.
000083: 13,2067           23115                           LXCH     EBUF2      +1                         #  PICK UP RETURN.
000084: 13,2070           16010                           TCF      INTPRET    +2                         #  SET LOC AND RETURN TO CALLER
000085:
000086:                                                                                                  # # Page 426
000087:                                                                                                  #  E/JOBWAK      FOR WAKING UP ERASABLE MEMORY JOBS.
000088:
000089:                                                                                                  #  THIS ROUTINE MUST BE CALLED IN INTERRUPT OR WITH INTERRUPTS INHIBITED.
000090:
000091:                                                                                                  #  THE CALLING SEQUENCE IS:
000092:
000093:                                                                                                  #                INHINT
000094:                                                                                                  #                  .
000095:                                                                                                  #                  .
000096:                                                                                                  #                CA      WAKEADR         # ADDRESS OF SLEEPING JOB
000097:                                                                                                  #                TC      IBNKCALL
000098:                                                                                                  #                CADR    E/JOBWAK
000099:                                                                                                  #                  .                     # RETURNS HERE
000100:                                                                                                  #                  .
000101:                                                                                                  #                  .
000102:                                                                                                  #                RELINT                  # IF YOU DID AND INHINT.
000103:
000104: 12,2000                                           SETLOC   E/PROG
000105: 12,2000                                           BANK
000106:
000107: 12,2000                                           COUNT*   $$/P07
000108:
000109: 12,2000           05167        E/JOBWAK           TC       JOBWAKE                               #  ARRIVE WITH ADRES IN A.
000110: 12,2001           44756                           CS       BIT11
000111: 12,2002           50064                           NDX      LOCCTR
000112: 12,2003           26164                           ADS      LOC                                   #  KNOCK FIXED MEMORY BIT OUT OF ADRES
000113: 12,2004           00072                           TC       RUPTREG3                              #  RETURN
000114:
000115:
000116:                                                                                                  #  THESE PROGRAMS ARE PROVIDED TO ALLOW OVERLAY OF BANKS 30 THRU 33 OF THE 205 VERSIONS OF SYSTEM TESTS AND
000117:                                                                                                  #  PRELAUNCH ALIGN.  THE INTENT IS TO ALLOW THE STG AND HYBRID LABS TO RUN ALL THE TESTS WITH COLOSSUS.
000118:
000119:
000120: 33,2000                                           SETLOC   TESTLEAD
000121: 33,2000                                           BANK
000122:
000123: 33,2000                                           COUNT*   $$/COMST
000124: 33,2000  E5,1425                                  EBANK=   QPLACE
000125:
000126: 33,2000           03212        COMPVER            TC       GCOMPVER                              #  MUST BE 33,2000.
000127:
000128: 33,2001           02703        GTSCPSS1           TC       GTSCPSS                               #  MUST BE AT 33,2001

End of include-file SYSTEM_TEST_STANDARD_LEAD_INS.agc.  Parent file is MAIN.agc


