
Source Code


000002:                                                                                                  #  Copyright:    Public domain.
000003:                                                                                                  #  Filename:     T4RUPT_PROGRAM.agc
000004:                                                                                                  #  Purpose:      Part of the source code for Artemis (i.e., Colossus 3),
000005:                                                                                                  #                build 072.  This is for the Command Module's (CM)
000006:                                                                                                  #                Apollo Guidance Computer (AGC), we believe for
000007:                                                                                                  #                Apollo 15-17.
000008:                                                                                                  #  Assembler:    yaYUL
000009:                                                                                                  #  Contact:      Jim Lawton <jim DOT lawton AT gmail DOT com>
000010:                                                                                                  #  Website:      www.ibiblio.org/apollo/index.html
000011:                                                                                                  #  Page Scans:   www.ibiblio.org/apollo/ScansForConversion/Artemis072/
000012:                                                                                                  #  Mod history:  2009-08-03 JL   Adapted from corresponding Comanche 055 file.
000013:                                                                                                  #                2009-09-04 JL   OC40010 should be an EQUALS declaration.
000014:                                                                                                  #                2009-09-05 JL   Fixed typos.
000015:                                                                                                  #                2010-01-31 JL   Fixed build errors.
000016:                                                                                                  #                2010-02-02 JL   Fixed page numbers.
000017:                                                                                                  #                2010-02-11 JL   Fixed error on p157.
000018:                                                                                                  #                2010-02-20 RSB  Un-##'d this header.
000019:                                                                                                  #                2010-07-15 JL   Fixed indentation.
000020:                                                                                                  #                2010-12-29 JL   Fixed indentation.
000021:


000023:
000024: 06,2000                                           SETLOC   T4RUP
000025: 06,2000                                           BANK
000026:
000027: 06,2000                                           COUNT*   $$/T4RPT
000028: 06,2000           54016        T4RUPT             TS       BANKRUPT
000029: 06,2001           00006                           EXTEND
000030: 06,2002           22012                           QXCH     QRUPT
000031:
000032: 06,2003           11322                           CCS      DSRUPTSW                              #  GOES 3(-1)0 AROUND AND AROUND
000033: 06,2004           12010                           TCF      NORMT4     +1
000034: 06,2005           12007                           TCF      NORMT4
000035:
000036: 06,2006           12132                           TCF      QUIKDSP
000037:
000038: 06,2007           36214        NORMT4             CAF      THREE
000039: 06,2010           54070                           TS       RUPTREG1
000040: 06,2011           55322                           TS       DSRUPTSW
000041:
000042: 06,2012     7675               74K                =        HIGH4
000043:
000044:                                                                                                  #  RELTAB IS A PACKED TABLE. RELAYWORD CODE IN UPPER 4 BITS, RELAY CODE
000045:                                                                                                  #  IN LOWER 5 BITS.
000046:
000047:    4000                                           SETLOC   FFTAG12
000048:    4000                                           BANK
000049:    4063                                           COUNT*   $$/PIN
000050:    4063           04025        RELTAB             OCT      04025
000051:    4064           10003                           OCT      10003
000052:    4065           14031                           OCT      14031
000053:    4066           20033                           OCT      20033
000054:    4067           24017                           OCT      24017
000055:    4070           30036                           OCT      30036
000056:    4071           34034                           OCT      34034
000057:    4072           40023                           OCT      40023
000058:    4073           44035                           OCT      44035
000059:    4074           50037                           OCT      50037
000060:    4075           54000                           OCT      54000
000061:    4076           60000        RELTAB11           OCT      60000
000062:


000064:
000065:                                                                                                  #  SWITCHED-BANK PORTION.
000066:
000067: 06,2000                                           SETLOC   T4RUP
000068: 06,2000                                           BANK
000069:
000070: 06,2012                                           COUNT*   $$/T4RPT
000071: 06,2012           11241        CDRVE              CCS      DSPTAB     +11D
000072: 06,2013           02063                           TC       DSPOUT
000073: 06,2014           02063                           TC       DSPOUT
000074:
000075: 06,2015           57241                           XCH      DSPTAB     +11D
000076: 06,2016           74347                           MASK     LOW11
000077: 06,2017           55241                           TS       DSPTAB     +11D
000078: 06,2020           64076                           AD       RELTAB11
000079: 06,2021           00006                           EXTEND
000080: 06,2022           01010                           WRITE    OUT0
000081: 06,2023           02072                           TC       HANG20
000082:


000084:
000085:                                                                                                  #  DSPOUT PROGRAM. PUTS OUT DISPLAYS.
000086:
000087: 06,2024           55221        DSPOUTSB           TS       NOUT
000088: 06,2025           44772                           CS       ZERO
000089: 06,2026           54073                           TS       DSRUPTEM                              #  SET TO -0 FOR 1ST PASS THRU DSPTAB
000090: 06,2027           57201                           XCH      DSPCNT
000091: 06,2030           64771                           AD       NEG0                                  #  TO PREVENT +0
000092: 06,2031           55201                           TS       DSPCNT
000093: 06,2032           51201        DSPSCAN            INDEX    DSPCNT
000094: 06,2033           11226                           CCS      DSPTAB
000095: 06,2034           11201                           CCS      DSPCNT                                #  IF DSPTAB ENTRY +, SKIP
000096: 06,2035           12030                           TCF      DSPSCAN    -2                         #  IF DSPCNT +, AGAIN
000097: 06,2036           12047                           TCF      DSPLAY                                #  IF DSPTAB ENTRY -, DISPLAY
000098: 06,2037           22400        11,14,9            OCT      22400                                 #  CANNOT GET HERE
000099: 06,2040           10073                           CCS      DSRUPTEM                              #  IF DSRUPTEM=+0, 2ND PASS THRU DSPTAB
000100: 06,2041           37764        120MRUPT           DEC      16372      B-14                       #  (DSPCNT = 0). +0 INTO NOUT.
000101: 06,2042           55221                           TS       NOUT
000102: 06,2043           00002                           TC       Q
000103: 06,2044           54073                           TS       DSRUPTEM                              #  IF DSRUPTEM=-0, 1ST PASS THRU DSPTAB
000104: 06,2045           34355                           CAF      TABLNTH                               #  (DSPCNT=0). +0 INTO DSRUPTEM. PASS AGAIN
000105: 06,2046           12031                           TCF      DSPSCAN    -1
000106:
000107: 06,2047           64770        DSPLAY             AD       ONE
000108: 06,2050           51201                           INDEX    DSPCNT
000109: 06,2051           55226                           TS       DSPTAB                                #  REPLACE POSITIVELY
000110: 06,2052           74347                           MASK     LOW11                                 #  REMOVE BITS 12 TO 15
000111: 06,2053           54073                           TS       DSRUPTEM
000112: 06,2054           34344                           CAF      HI5
000113: 06,2055           51201                           INDEX    DSPCNT
000114: 06,2056           74063                           MASK     RELTAB                                #  PICK UP BITS 12 TO 15 OF RELTAB ENTRY
000115: 06,2057           60073                           AD       DSRUPTEM
000116: 06,2060           00006                           EXTEND
000117: 06,2061           01010                           WRITE    OUT0                                  #  WRITE CHANNEL 10
000118: 06,2062           16706                           TCF      Q+1                                   #  *** NORMAL RETURN SKIPS ONE
000119:
000120: 06,2063     5005               OCT54              EQUALS   LTHVACA
000121: 06,2063     4355               TABLNTH            EQUALS   BINCON                                #  DEC 10 LENGTH OF DSPTAB
000122: 06,2063           30101        DSPOUT             CA       FLAGWRD5
000123: 06,2064           74752                           MASK     DSKYBIT
000124: 06,2065           00006                           EXTEND
000125: 06,2066           12126                           BZF      NODSPOUT
000126: 06,2067           11221                           CCS      NOUT
000127: 06,2070           02024                           TC       DSPOUTSB
000128: 06,2071           12126                           TCF      NODSPOUT                              #  NO DISPLAY REQUESTS
000129: 06,2072           42037        HANG20             CS       11,14,9
000130: 06,2073           27322                           ADS      DSRUPTSW
000131:
000132: 06,2074           37663                           CAF      20MRUPT
000133: 06,2075           54027        SETTIME4           TS       TIME4
000134:


000136:                                                                                                  #  THE STATUS OF THE PROCEED PUSHBUTTON IS MONITORED EVERY 120 MILLISECONDS VIA THE CHANNEL 32 BIT 14 INBIT.
000137:                                                                                                  #  THE STATE OF THIS INBIT IS COMPARED WITH ITS STATE DURING THE PREVIOUS T4RUPT AND IS PROCESSED AS FOLLOWS.
000138:                                                                                                  #        IF PREV ON AND NOW ON    -   BYPASS
000139:                                                                                                  #        IF PREV ON AND NOW OFF   -   UPDATE IMODES33
000140:                                                                                                  #        IF PREV OFF AND NOW ON   -   UPDATE IMODES33 AND PROCESS VIA PINBALL
000141:                                                                                                  #        IF PREV OFF AND NOW OFF  -   BYPASS
000142:                                                                                                  #  THE LOGIC EMPLOYED REQUIRES ONLY 9 MCT (APPROX. 108 MICROSECONDS) OF COMPUTER TIME WHEN NO CHANGES OCCUR.
000143:
000144: 06,2076           31334        PROCEEDE           CA       IMODES33                              #  MONITOR FOR PROCEED BUTTON
000145: 06,2077           00006                           EXTEND
000146: 06,2100           06032                           RXOR     CHAN32                                #  CHECK IF BIT 14 DIFFERENT
000147: 06,2101           74753                           MASK     PROCDBIT
000148: 06,2102           00006                           EXTEND
000149: 06,2103           12116                           BZF      T4JUMP                                #  NO CHANGE
000150:
000151: 06,2104           23334                           LXCH     IMODES33
000152: 06,2105           00006                           EXTEND
000153: 06,2106           06001                           RXOR     LCHAN
000154: 06,2107           55334                           TS       IMODES33                              #  UPDATE IMODES33
000155: 06,2110           74753                           MASK     PROCDBIT
000156: 06,2111           10000                           CCS      A
000157: 06,2112           12116                           TCF      T4JUMP                                #  WAS ON - NOW OFF
000158:
000159: 06,2113           05120                           TC       NOVAC30                               #  WAS OFF - NOW ON
000160: 06,2114     1202                                  EBANK=   DSPCOUNT
000161: 06,2114           03311 60102                     2CADR    PROCKEY
000162:


000164:                                                                                                  #  JUMP TO APPROPRIATE ONCE-PER SECOND (0.96 SEC ACTUALLY) ACTIVITY
000165:
000166: 06,2116           50070        T4JUMP             INDEX    RUPTREG1
000167: 06,2117           12120                           TCF      +1
000168:
000169: 06,2120           12124                           TCF      OPTTEST
000170: 06,2121           13001                           TCF      OPTMON
000171: 06,2122           12124                           TCF      OPTTEST
000172: 06,2123           12167                           TCF      IMUMON
000173: 06,2124           04714        OPTTEST            TC       IBNKCALL
000174: 06,2125           20000                           CADR     OPTDRIVE
000175:
000176: 06,2126     7663               20MRUPT            =        OCT37776                              #  (DEC 16382)
000177: 06,2126           00006        NODSPOUT           EXTEND                                         #  TURN OFF RELAYS
000178: 06,2127           01010                           WRITE    OUT0
000179:
000180: 06,2130           32041                           CAF      120MRUPT                              #  SET FOR NEXT CDRVE
000181: 06,2131           12075                           TCF      SETTIME4
000182:
000183: 06,2132           34753        QUIKDSP            CAF      BIT14
000184: 06,2133           71322                           MASK     DSRUPTSW
000185: 06,2134           00006                           EXTEND
000186: 06,2135           12163                           BZF      QUIKOFF                               #  WROTE LAST TIME, NOW TURN OFF RELAYS.
000187:
000188: 06,2136           11221                           CCS      NOUT
000189: 06,2137           02024                           TC       DSPOUTSB
000190: 06,2140           12150                           TCF      NODSPY                                #  NOUT=0 OR BAD RETURN FROM DSPOUTSB
000191: 06,2141           44753                           CS       BIT14                                 #  GOOD RETURN (WE DISPLAYED SOMETHING)
000192: 06,2142           27322        QUIKRUPT           ADS      DSRUPTSW
000193:
000194: 06,2143           37663                           CAF      20MRUPT
000195: 06,2144           54027                           TS       TIME4
000196:
000197: 06,2145           34760                           CAF      BIT9
000198: 06,2146           27322                           ADS      DSRUPTSW
000199:
000200: 06,2147           05323                           TC       RESUME
000201:
000202: 06,2150           00006        NODSPY             EXTEND
000203: 06,2151           01010                           WRITE    OUT0
000204:
000205: 06,2152           37663        SYNCT4             CAF      20MRUPT
000206: 06,2153           26027                           ADS      TIME4
000207:
000208: 06,2154           34760                           CAF      BIT9
000209: 06,2155           27322                           ADS      DSRUPTSW
000210: 06,2156           11322                           CCS      DSRUPTSW
000211: 06,2157           05323                           TC       RESUME
000212: 06,2160           37737        OCT37737           OCT      37737
000213: 06,2161           02152                           TC       SYNCT4


000215: 06,2162           05323                           TC       RESUME
000216:
000217: 06,2163           00006        QUIKOFF            EXTEND
000218: 06,2164           01010                           WRITE    OUT0
000219: 06,2165           34753                           CAF      BIT14                                 #  RESET DSRUPTSW TO SEND DISPLAY NEXT PASS
000220: 06,2166           12142                           TCF      QUIKRUPT
000221:


000223:                                                                                                  #  PROGRAM NAME:  IMUMON
000224:
000225:                                                                                                  #  FUNCTIONAL DESCRIPTION:  THIS PROGRAM IS ENTERED EVERY 480 MS.  IT DETECTS CHANGES OF THE IMU STATUS BITS IN
000226:                                                                                                  #  CHANNEL 30 AND CALLS THE APPROPRIATE SUBROUTINES.  THE BITS PROCESSED AND THEIR RELEVANT SUROUTINES ARE:
000227:
000228:                                                                                                  #        FUNCTION                BIT     SUBROUTINE CALLED
000229:                                                                                                  #        --------                ---     -----------------
000230:                                                                                                  #        TEMP IN LIMITS           15     TLIM
000231:                                                                                                  #        ISS TURN-ON REQUEST      14     ITURNON
000232:                                                                                                  #        IMU FAIL                 13     IMUFAIL (SETISSW)
000233:                                                                                                  #        IMU CDU FAIL             12     ICDUFAIL (SETISSW)
000234:                                                                                                  #        IMU CAGE                 11     IMUCAGE
000235:                                                                                                  #        IMU OPERATE               9     IMUOP
000236:
000237:                                                                                                  #  THE LAST SAMPLED STATE OF THESE BITS IS LEFT IN IMODES30.  ALSO, EACH SUBROUTINE CALLED FINDS THE NEW
000238:                                                                                                  #  VALUE OF THE BIT IN A, WITH Q SET TO THE PROPER RETURN LOCATION, NXTIFAIL.
000239:
000240:                                                                                                  #  CALLING SEQUENCE:  T4RUPT EVERY 480 MILLISECONDS.
000241:
000242:                                                                                                  #  JOBS OR TASKS INITIATED:  NONE.
000243:
000244:                                                                                                  #  SUBROUTINES CALLED:  TLIM, ITURNON, SETISSW, IMUCAGE, IMUOP.
000245:
000246:                                                                                                  #  ERASABLE INITIALIZATION:
000247:                                                                                                  #        FRESH START OR RESTART WITH NO GROUPS ACTIVE:  C(IMODES30) = OCT 37411.
000248:                                                                                                  #        RESTART WITH ACTIVE GROUPS:     C(IMODES30) = (B(IMODES30)AND(OCT 00035)) PLUS OCT 37400.
000249:                                                                                                  #                                        THIS LEAVES IMU FAIL BITS INTACT.
000250:
000251:                                                                                                  #  ALARMS:  NONE.
000252:
000253:                                                                                                  #  EXIT:  TNONTEST.
000254:
000255:                                                                                                  #  OUTPUT:  UPDATED IMODES30 WITH CHANGES PROCESSED BY APPROPRIATE SUBROUTINE.
000256:
000257: 06,2167           31333        IMUMON             CA       IMODES30                              #  SEE IF THERE HAS BEEN A CHANGE IN THE
000258: 06,2170           00006                           EXTEND                                         #  RELEVANT BITS OF CHAN 30.
000259: 06,2171           06030                           RXOR     CHAN30                                #  CHECK IF BITS 9,11-15 CHANGED
000260: 06,2172           72764                           MASK     30RDMSK
000261: 06,2173           00006                           EXTEND
000262: 06,2174           12224                           BZF      TNONTEST                              #  NO CHANGE IN STATUS.
000263:
000264: 06,2175           54070                           TS       RUPTREG1                              #  SAVE BITS WHICH HAVE CHANGED.
000265: 06,2176           23333                           LXCH     IMODES30                              #  UPDATE IMODES30.
000266: 06,2177           00006                           EXTEND
000267: 06,2200           06001                           RXOR     LCHAN
000268: 06,2201           55333                           TS       IMODES30
000269:
000270: 06,2202           44770                           CS       ONE
000271: 06,2203           56070                           XCH      RUPTREG1
000272: 06,2204           00006                           EXTEND


000274: 06,2205           62517                           BZMF     TLIM                                  #  CHANGE IN IMU TEMP.
000275: 06,2206           12210                           TCF      NXTIFBIT                              #  BEGIN BIT SCAN.
000276:
000277: 06,2207           64770                 -1        AD       ONE                                   #  (RE-ENTERS HERE FROM NXTIFAIL.)
000278: 06,2210           24070        NXTIFBIT           INCR     RUPTREG1                              #  ADVANCE BIT POSITION NUMBER.
000279: 06,2211           60000                 +1        DOUBLE
000280: 06,2212           54000                           TS       A                                     #  SKIP IF OVERFLOW.
000281: 06,2213           12210                           TCF      NXTIFBIT                              #  LOOK FOR BIT.
000282:
000283: 06,2214           56071                           XCH      RUPTREG2                              #  SAVE OVERFLOW-CORRECTED DATA.
000284: 06,2215           50070                           INDEX    RUPTREG1                              #  SELECT NEW VALUE OF THIS BIT.
000285: 06,2216           34753                           CAF      TONISSBT
000286: 06,2217           71333                           MASK     IMODES30
000287: 06,2220           50070                           INDEX    RUPTREG1
000288: 06,2221           02760                           TC       IFAILJMP
000289:
000290: 06,2222           10071        NXTIFAIL           CCS      RUPTREG2                              #  PROCESS ANY ADDITIONAL CHANGES.
000291: 06,2223           12207                           TCF      NXTIFBIT   -1
000292:


000294:                                                                                                  #  PROGRAM NAME:  TNONTEST.
000295:
000296:                                                                                                  #  FUNCTIONAL DESCRIPTION:  THIS PROGRAM HONORS REQUESTS FOR ISS INITIALIZATION.  ISS TURN-ON (CHANNEL 30 BIT 14)
000297:                                                                                                  #  AND ISS OPERATE (CHANNEL 30 BIT 9) REQUESTS ARE TREATED AS A PAIR AND PROCESSING TAKES PLACE .480 SECONDS
000298:                                                                                                  #  AFTER EITHER ONE APPEARS.  THIS INITIALIZATION TAKES ON ONE OF THE FOLLOWING THREE FORMS:
000299:
000300:                                                                                                  #        1) ISS TURN-ON:  IN THIS SITUATION THE COMPUTER IS OPERATING WHEN THE ISS IS TURNED ON.  NOMINALLY,
000301:                                                                                                  #        BOTH ISS TURN-ON AND ISS OPERATE APPEAR.  THE PLATFORM IS CAGED FOR 90 SECONDS AND THE ICDU'S ZEROED
000302:                                                                                                  #        SO THAT AT THE END OF THE PROCESS THE GIMBAL LOCK MONITOR WILL FUNCTION PROPERLY.
000303:
000304:                                                                                                  #        2) ICDU INITIALIZATION:  IN THIS CASE THE COMPUTER WAS PROBABLY TURNED ON WITH THE ISS IN OPERATE OR
000305:                                                                                                  #        A FRESH START WAS DONE WIT THE ISS IN OPERATE.  IN THIS CASE ONLY ISS OPERATE IS ON.  THE ICDU'S ARE
000306:                                                                                                  #        ZEROED SO THE GIMBAL LOCK MONITOR WILL FUNCTION.  AN EXCEPTION IS IF THE ISS IS IN GIMBAL LOCK AFTER
000307:                                                                                                  #        A RESTART, THE ICDU'S WILL NOT BE ZEROED.
000308:
000309:                                                                                                  #        3) RESTART WITH RESTARTABLE PROGRAM USING THE IMU:  IN THIS CASE, NO INITIALIZATION TAKES PLACE SINCE
000310:                                                                                                  #        IT IS ASSUMED THAT THE USING PROGRAM DID THE INITIALIZATION AND THEREFORE T4RUPT SHOULD NOT INTERFERE.
000311:
000312:                                                                                                  #  IMODES30 BIT 7 IS SET = 1 BY THE FIRST BIT (CHANNEL 30 BIT 14 OR 9) WHICH ARRIVES.  FOLLOWING THIS, TNONTEST IS
000313:                                                                                                  #  ENTERED, FINDS BIT 7 = 1 BUT BIT 8 = 0, SO IT SETS BIT 8 = 1 AND EXITS.  THE NEXT TIME IT FINDS BIT 8 = 1 AND
000314:                                                                                                  #  PROCEEDS, SETTING BITS 8 AND 7 = 0.  AT PROCTNON, IF ISS TURN-ON REQUEST IS PRESENT, THE ISS IS CAGED (ZERO +
000315:                                                                                                  #  COARSE).  IF ISS OPERATE IS NOT PRESENT PROGRAM ALARM 00213 IS ISSUED.  AT THE END OF A 90 SECOND CAGE, BIT 2
000316:                                                                                                  #  OF IMODES30 IS TESTED.  IF IT IS = 1, ISS TURN-ON WAS NOT PRESENT FOR THE ENTIRE 90 SECONDS.  IN THAT CASE, IF
000317:                                                                                                  #  THE ISS TURN-ON REQUEST IS PRESENT THE 90 SECOND WAIT IS REPEATED,  OTHERWISE NO ACTION OCCURS UNLESS A PROGRAM
000318:                                                                                                  #  WAS WAITING FOR THE INITIALIZATION IN WHICH CASE THE PROGRAM IS GIVEN AN IMUSTALL ERROR RETURN.  IF THE DELAY
000319:                                                                                                  #  WENT PROPERLY, THE ISS DELAY OUTBIT IS SENT AND THE ICDU'S ZEROED.  A TASK IS INITIATED TO REMOVE THE PIPA FAIL
000320:                                                                                                  #  INHIBIT BIT IN 10.24 SECONDS.  IF A MISSION PROGRAM WAS WAITING IT IS INFORMED VIA ENDIMU.
000321:
000322:                                                                                                  #  AT PROCTNON, IF ONLY ISS OPERATE IS PRESENT (OPONLY), THE CDU'S ARE ZEROED UNLESS THE PLATFORM IS IN COARSE
000323:                                                                                                  #  ALIGN (= GIMBAL LOCK HERE) OR A MISSION PROGRAM IS USING THE IMU (INUSEFLG = 1).
000324:
000325:                                                                                                  #  CALLING SEQUENCE:  T4RUPT EVERY 480 MILLISECONDS AFTER IMUMON.
000326:
000327:                                                                                                  #  JOBS OR TASKS INITIATED:  1) ENDTNON, 90 SECONDS AFTER CAGING STARTED.  2) ISSUP, 4 SECONDS AFTER CAGING DONE.
000328:                                                                                                  #        3) PFAILOK, 10.24 SECONDS AFTER INITIALIZATION COMPLETED.  4) UNZ2, 320 MILLISECONDS AFTER ZEROING
000329:                                                                                                  #        STARTED.
000330:
000331:                                                                                                  #  SUBROUTINES CALLED: CAGESUB, CAGESUB2, ZEROICDU, ENDIMU, IMUBAD, NOATTOFF, SETISSW, VARDELAY.
000332:
000333:                                                                                                  #  ERASABLE INITIALIZATION:  SEE IMUMON.
000334:
000335:                                                                                                  #  ALARMS:  PROGRAM ALARM 00213 IF ISS TURN-ON REQUESTED WITHOUT ISS OPERATE.
000336:
000337:                                                                                                  #  EXIT:  ENDTNON EXITS TO C33TEST.  TASKS HAVING TO DO WITH INITIALIZATION EXIT AS FOLLOWS:  MISSION PROGRAM
000338:                                                                                                  #  WAITING AND INITIALIZATION COMPLETE, EXIT TO ENDIMU, MISSION PROGRAM WAITING AND INITIALIZATION FAILED, EXIT TO
000339:                                                                                                  #  IMUBAD, IMU NOT IN USE, EXIT TO TASKOVER.
000340:
000341:                                                                                                  #  OUTPUT:  ISS INITIALIZED.
000342:
000343: 06,2224           41333        TNONTEST           CS       IMODES30                              #  AFTER PROCESSING ALL CHANGES, SEE IF IT


000345: 06,2225           74762                           MASK     ITNON1BT                              #  IS TIME TO ACT ON TURN-ON REQUEST
000346: 06,2226           10000                           CCS      A
000347: 06,2227           12366                           TCF      C33TEST                               #  NO - EXAMINE CHANNEL 33.
000348:
000349: 06,2230           34761                           CAF      ITNON2BT                              #  SEE IF FIRST OR 2ND SAMPLE
000350: 06,2231           71333                           MASK     IMODES30
000351: 06,2232           10000                           CCS      A
000352: 06,2233           12237                           TCF      PROCTNON                              #  REACT AFTER SECOND SAMPLE.
000353:
000354: 06,2234           34761                           CAF      ITNON2BT                              #  IF FIRST SAMPLE, SET BIT TO REACT
000355: 06,2235           27333                           ADS      IMODES30                              #  TIME.
000356: 06,2236           12366                           TCF      C33TEST
000357:
000358:                                                                                                  #  PROCESS IMU TURN-ON REQUESTS AFTER WAITING 1 SAMPLE FOR ALL SIGNALS TO ARRIVE.
000359:
000360: 06,2237           34761        PROCTNON           CA       ITNON2BT
000361: 06,2240           64762                           AD       ITNON1BT
000362: 06,2241           40000                           COM
000363: 06,2242           71333                           MASK     IMODES30
000364: 06,2243           55333                           TS       IMODES30
000365: 06,2244           74753                           MASK     TONISSBT                              #  SEE IF TURN-ON REQUEST
000366: 06,2245           10000                           CCS      A
000367: 06,2246           12342                           TCF      OPONLY                                #  OPERATE ON ONLY.
000368:
000369: 06,2247           41333                           CS       IMODES30                              #  IF TURN-ON REQUEST, WE SHOULD HAVE IMU
000370: 06,2250           74760                           MASK     IMUOPBIT                              #  OPERATE.
000371: 06,2251           10000                           CCS      A
000372: 06,2252           12255                           TCF      +3
000373:
000374: 06,2253           05671                           TC       ALARM                                 #  ALARM IF NOT.
000375: 06,2254           00213                           OCT      213
000376:
000377: 06,2255           02740                 +3        TC       CAGESUB
000378:
000379: 06,2256           33670                           CAF      90SECS
000380: 06,2257           05233                           TC       WAITLIST
000381: 06,2260  E3,1474                                  EBANK=   CDUIND
000382: 06,2260           02265 14063                     2CADR    ENDTNON
000383:
000384: 06,2262           12366                           TCF      C33TEST
000385:
000386: 06,2263           33670        RETNON             CAF      90SECS
000387: 06,2264           05260                           TC       VARDELAY
000388:
000389: 06,2265           44767        ENDTNON            CS       DLAYFAIL                              #  RESET TURN-ON REQUEST FAILBIT
000390: 06,2266           71333                           MASK     IMODES30
000391: 06,2267           57333                           XCH      IMODES30
000392: 06,2270           74767                           MASK     DLAYFAIL                              #  IF IT WAS OFF, SEND ISS DELAY COMPLETE.
000393: 06,2271           00006                           EXTEND


000395: 06,2272           12305                           BZF      ENDTNON2
000396: 06,2273           34753                           CAF      TONISSBT                              #  IF IT WAS ON AND TURN-ON REQUEST NOW
000397: 06,2274           71333                           MASK     IMODES30                              #  PRESENT, RE-ENTER 90 SEC DELAY IN WL.
000398: 06,2275           00006                           EXTEND
000399: 06,2276           12263                           BZF      RETNON
000400:
000401: 06,2277           40074                           CS       FLAGWRD0                              #  IF IT IS NOT ON NOW, SEE IF A PROG WAS
000402: 06,2300           74761                           MASK     IMUSEFLG                              #  WAITING.
000403: 06,2301           10000                           CCS      A
000404: 06,2302           15314                           TCF      TASKOVER
000405: 06,2303           04655                           TC       POSTJUMP
000406: 06,2304           17625                           CADR     IMUBAD                                #  UNSUCCESSFUL TURN-ON.
000407:
000408: 06,2305           34752        ENDTNON2           CAF      BIT15                                 #  SEND ISS DELAY COMPLETE.
000409: 06,2306           00006                           EXTEND
000410: 06,2307           05012                           WOR      CHAN12                                #  TURN OFF ISS DELAY COUNTER
000411: 06,2310           04714                           TC       IBNKCALL                              #  TURN OFF NO ATT LAMP.
000412: 06,2311           17207                           CADR     NOATTOFF
000413:
000414: 06,2312           05511        UNZ2               TC       ZEROICDU
000415:
000416: 06,2313           45001                           CS       BITS4&5                               #  REMOVE ZERO AND COARSE.
000417: 06,2314           00006                           EXTEND
000418: 06,2315           03012                           WAND     CHAN12
000419:
000420: 06,2316           35025                           CAF      7.9SEC                                #  WAIT 7.9 SEC FOR CTRS TO FIND GIMBALS
000421: 06,2317           05260                           TC       VARDELAY
000422:
000423: 06,2320           34763        ISSUP              CA       IMUNITBT
000424: 06,2321           64765                           AD       IMUFINHT
000425: 06,2322           64766                           AD       ICDUINHT
000426: 06,2323           40000                           COM                                            #  REMOVE CAGING, IMUFAIL INHIBIT, AND
000427: 06,2324           71333                           MASK     IMODES30                              #  ICDUFAIL INHIBIT FLAGS.
000428: 06,2325           55333                           TS       IMODES30
000429:
000430: 06,2326           44763                           CS       NOIMUDAP                              #  ENABLE DAP
000431: 06,2327           71334                           MASK     IMODES33
000432: 06,2330           55334                           TS       IMODES33
000433:
000434: 06,2331           02706                           TC       SETISSW                               #  ISS WARNING MIGHT HAVE BEEN INHIBITED.
000435:
000436: 06,2332           44752                           CS       BIT15                                 #  REMOVE IMU DELAY COMPLETE DISCRETE.
000437: 06,2333           00006                           EXTEND
000438: 06,2334           03012                           WAND     CHAN12
000439:
000440: 06,2335           35020                           CAF      4SECS                                 #  DONT ENABLE PROG ALARM ON PIP FAIL FOR
000441: 06,2336           05233                           TC       WAITLIST                              #  ANOTHER 4 SECS.
000442: 06,2337  E3,1474                                  EBANK=   CDUIND
000443: 06,2337           03175 16063                     2CADR    PFAILOK


000445: 06,2341           15314                           TCF      TASKOVER
000446:
000447: 06,2342           34765        OPONLY             CAF      BIT4
000448: 06,2343           00006                           EXTEND                                         #  IF OPERATE ON ONLY AND WE ARE IN COARSE
000449: 06,2344           02012                           RAND     CHAN12                                #  ALIGN, DONT ZERO THE CDUS BECAUSE WE
000450: 06,2345           10000                           CCS      A                                     #  MIGHT BE IN GIMBAL LOCK. USE V41N20 TO
000451: 06,2346           12366                           TCF      C33TEST                               #  RECOVER.
000452:
000453: 06,2347           34761                           CAF      IMUSEFLG                              #  OTHERWISE, ZERO THE COUNTERS
000454: 06,2350           70074                           MASK     STATE                                 #  UNLESS SOMEONE IS USING THE IMU.
000455: 06,2351           10000                           CCS      A
000456: 06,2352           12366                           TCF      C33TEST
000457:
000458: 06,2353           02751                           TC       CAGESUB2                              #  SET TURNON FLAGS.
000459:
000460: 06,2354           04714        ISSZERO            TC       IBNKCALL                              #  TURN OFF NO ATT LAMP.
000461: 06,2355           17207                           CADR     NOATTOFF                              #      IMU CAGE OFF ENTRY.
000462:
000463: 06,2356           34764                           CAF      BIT5                                  #  ISS CDU ZERO
000464: 06,2357           00006                           EXTEND
000465: 06,2360           05012                           WOR      CHAN12
000466:
000467: 06,2361           05511                           TC       ZEROICDU
000468: 06,2362           34763                           CAF      BIT6                                  #  WAIT 300 MS FOR AGS TO RECEIVE SIGNAL.
000469: 06,2363           05223                           TC       TWIDDLE
000470: 06,2364           02312                           ADRES    UNZ2
000471: 06,2365           12366                           TCF      C33TEST
000472:


000474:                                                                                                  #  PROGRAM NAME:  C33TEST
000475:
000476:                                                                                                  #  FUNCTIONAL DESCRIPTION:  THIS PROGRAM MONITORS THREE FLIP-FLOP INBITS OF CHANNEL 33 AND CALLS THE APPROPRIATE
000477:                                                                                                  #  SUBROUTINE TO PROCESS A CHANGE.  IT IS ANALOGOUS TO IMUMON, WHICH MONITORS CHANNEL 30, EXCEPT THAT IT READS
000478:                                                                                                  #  CHANNEL 33 WITH A WAND INSTRUCTION BECAUSE A 'WRITE' PULSE IS REQUIRED TO RESET THE FLIP-FLOPS.  THE BITS
000479:                                                                                                  #  PROCESSED AND THE SUBROUTINES CALLED ARE:
000480:
000481:                                                                                                  #        BIT     FUNCTION                SUBROUTINE
000482:                                                                                                  #        ---     --------                ----------
000483:                                                                                                  #         13     PIPA FAIL               PIPFAIL
000484:                                                                                                  #         12     DOWNLINK TOO FAST       DNTMFAST
000485:                                                                                                  #         11     UPLINK TOO FAST         UPTMFAST
000486:
000487:                                                                                                  #  UPON ENTRY TO THE SUBROUTINE, THE NEW BIT STATE IS IN A.
000488:
000489:                                                                                                  #  CALLING SEQUENCE:  EVERY 480 MILLISECONDS AFTER TNONTEST.
000490:
000491:                                                                                                  #  JOBS OR TASKS INITIATED:  NONE.
000492:
000493:                                                                                                  #  SUBROUTINES CALLED:  PIPFAIL, DNTMFAST AND UPTMFAST ON BIT CHANGES.
000494:
000495:                                                                                                  #  ERASABLE INITIALIZATION:  C(IMODES33) = OCT 16000 ON A FRESH START OR RESTART, THEREFORE, THESE ALARMS WILL
000496:                                                                                                  #  REAPPEAR IF THE CONDITIONS PERSIST.
000497:
000498:                                                                                                  #  ALARMS:  NONE.
000499:
000500:                                                                                                  #  EXIT:  GLOCKMON.
000501:
000502:                                                                                                  #  OUTPUT:  UPDATED BITS 13, 12, AND 11 OF IMODES33 WITH CHANGES PROCESSED.
000503:
000504: 06,2366           31334        C33TEST            CA       IMODES33                              #  SEE IF RELEVANT CHAN33 BITS HAVE
000505: 06,2367           75055                           MASK     33RDMSK
000506: 06,2370           54001                           TS       L                                     #  CHANGED.
000507: 06,2371           35055                           CAF      33RDMSK
000508: 06,2372           00006                           EXTEND
000509: 06,2373           03033                           WAND     CHAN33                                #  RESETS FLIP-FLOP INPUTS.
000510: 06,2374           00006                           EXTEND
000511: 06,2375           06001                           RXOR     LCHAN
000512: 06,2376           00006                           EXTEND
000513: 06,2377           12426                           BZF      GLOCKMON                              #  ON NO CHANGE.
000514:
000515: 06,2400           54070                           TS       RUPTREG1                              #  SAVE BITS WHICH HAVE CHANGED
000516: 06,2401           23334                           LXCH     IMODES33
000517: 06,2402           00006                           EXTEND
000518: 06,2403           06001                           RXOR     LCHAN
000519: 06,2404           55334                           TS       IMODES33                              #  UPDATED IMODES33.
000520:
000521: 06,2405           34772                           CAF      ZERO
000522: 06,2406           56070                           XCH      RUPTREG1
000523: 06,2407           60000                           DOUBLE


000525: 06,2410           12413                           TCF      NXTIBT     +1                         #  SCAN FOR BIT CHANGES.
000526:
000527: 06,2411           64770                 -1        AD       ONE
000528: 06,2412           24070        NXTIBT             INCR     RUPTREG1
000529: 06,2413           60000                 +1        DOUBLE
000530: 06,2414           54000                           TS       A                                     #  (CODING IDENTICAL TO CHAN 30).
000531: 06,2415           12412                           TCF      NXTIBT
000532:
000533: 06,2416           56071                           XCH      RUPTREG2
000534: 06,2417           50070                           INDEX    RUPTREG1                              #  GET NEW VALUE OF BIT WHICH CHANGED.
000535: 06,2420           34754                           CAF      PIP2FLBT
000536: 06,2421           71334                           MASK     IMODES33
000537: 06,2422           50070                           INDEX    RUPTREG1
000538: 06,2423           02766                           TC       C33JMP
000539:
000540: 06,2424           10071        NXTFL33            CCS      RUPTREG2                              #  PROCESS POSSIBLE ADDITIONAL CHANGES.
000541: 06,2425           12411                           TCF      NXTIBT     -1
000542:


000544:                                                                                                  #  PROGRAM NAME:  GLOCKMON
000545:
000546:                                                                                                  #  FUNCTIONAL DESCRIPTION:  THIS PROGRAM MONITORS THE CDUZ COUNTER TO DETERMINE WHETHER THE ISS IS IN GIMBAL LOCK
000547:                                                                                                  #  AND TAKES ACTION IF IT IS.  THREE REGIONS OF MIDDLE GIMBAL ANGLE (MGA) ARE USED:
000548:
000549:                                                                                                  #        1) ABS(MGA) LESS THAN OR EQUAL TO 70 DEGREES - NORMAL MODE.
000550:                                                                                                  #        2) ABS(MGA) GREATER THAN 70 DEGREES AND LESS THAN OR EQUAL TO 85 DEGREES - GIMBAL LOCK LAMP TURNED ON.
000551:                                                                                                  #        3) ABS(MGA) GREATER THAN 85 DEGREES - ISS PUT IN COARSE ALIGN AND NO ATT LAMP TURNED ON.
000552:
000553:                                                                                                  #  CALLING SEQUENCE:  EVERY 480 MILLISECONDS AFTER C33TEST.
000554:
000555:                                                                                                  #  JOBS OR TASKS INITIATED:  NONE.
000556:
000557:                                                                                                  #  SUBROUTINES CALLED:   1) SETCOARS WHEN ABS(MGA) GREATER THEN 85 DEGREES AND ISS NOT IN COARSE ALIGN.
000558:                                                                                                  #                        2) LAMPTEST BEFORE TURNING OFF GIMBAL LOCK LAMP.
000559:
000560:                                                                                                  #  ERASABLE INITIALIZATION:
000561:                                                                                                  #                1) FRESH START OR RESTART WITH NO GROUPS ACTIVE:  C(CDUZ) = 0, IMODES30 BIT 6 = 0, IMODES33 BIT 1 = 0.
000562:                                                                                                  #                2) RESTART WTIH GROUPS ACTIVE:  SAME AS FRESH START EXCEPT C(CDUZ) NOT CHANGED SO GIMBAL MONITOR
000563:                                                                                                  #                                                PROCEEDS AS BEFORE.
000564:
000565:                                                                                                  #  ALARMS:       1) MGA REGION (2) CAUSES GIMBAL LOCK LAMP TO BE LIT.
000566:                                                                                                  #                2) MGA REGION (3) CAUSES THE ISS TO BE PUT IN COARSE ALIGN AND THE NO ATT LAMP TO BE LIT IF EITHER NOT
000567:                                                                                                  #                   SO ALREADY.
000568:
000569: 06,2426           10034        GLOCKMON           CCS      CDUZ
000570: 06,2427           12433                           TCF      GLOCKCHK                              #  SEE IF MAGNITUDE OF MGA IS GREATER THAN
000571: 06,2430           12471                           TCF      SETGLOCK                              #  70 DEGREES.
000572: 06,2431           12433                           TCF      GLOCKCHK
000573: 06,2432           12471                           TCF      SETGLOCK
000574:
000575: 06,2433           62516        GLOCKCHK           AD       -70DEGS
000576: 06,2434           00006                           EXTEND
000577: 06,2435           62470                           BZMF     SETGLOCK   -1                         #  NO LOCK.
000578:
000579: 06,2436           63557                           AD       -15DEGS                               #  SEE IF ABS(MGA) GREATER THAN 85 DEGS.
000580: 06,2437           00006                           EXTEND
000581: 06,2440           62466                           BZMF     NOGIMRUN
000582:
000583: 06,2441           34765                           CAF      BIT4                                  #  IF SO, SYSTEM SHOULD BE IN COARSE ALIGN
000584: 06,2442           00006                           EXTEND                                         #  TO PREVENT GIMBAL RUN-AWAY.
000585: 06,2443           02012                           RAND     CHAN12
000586: 06,2444           10000                           CCS      A
000587: 06,2445           12466                           TCF      NOGIMRUN
000588:
000589: 06,2446  E6,1465                                  EBANK=   DAPDATR1
000590: 06,2446           35045                           CAF      EBANK6
000591: 06,2447           54003                           TS       EBANK
000592: 06,2450           41465                           CS       DAPDATR1
000593: 06,2451           74346                           MASK     PRIO30


000595: 06,2452           10000                           CCS      A
000596: 06,2453           12460                           TCF      CALLCRS                               #  NO
000597:
000598: 06,2454           34770                           CAF      AVEGBIT                               #  YES, IS AVEG ON
000599: 06,2455           70075                           MASK     FLAGWRD1
000600: 06,2456           10000                           CCS      A
000601: 06,2457           12466                           TCF      NOGIMRUN                              #  YES, DON'T COARSE ALIGN
000602:
000603: 06,2460           04714        CALLCRS            TC       IBNKCALL                              #  GO INTO COARSE ALIGN.
000604: 06,2461           17070                           CADR     SETCOARS
000605:
000606: 06,2462           36211                           CAF      SIX                                   #  ENABLE ISS ERROR COUNTERS IN 60 MS
000607: 06,2463           05233                           TC       WAITLIST
000608: 06,2464  E3,1474                                  EBANK=   CDUIND
000609: 06,2464           03064 16063                     2CADR    CA+ECE
000610:
000611: 06,2466           34763        NOGIMRUN           CAF      BIT6                                  #  TURN ON GIMBAL LOCK LAMP.
000612: 06,2467           12471                           TCF      SETGLOCK
000613:
000614: 06,2470           34772                 -1        CAF      ZERO
000615: 06,2471           61241        SETGLOCK           AD       DSPTAB     +11D                       #  SEE IF PRESENT STATE OF GIMBAL LOCK LAMP
000616: 06,2472           74763                           MASK     BIT6                                  #  AGREES WITH DESIRED STATE BY HALF ADDING
000617: 06,2473           00006                           EXTEND                                         #  THE TWO.
000618: 06,2474           15323                           BZF      GLOCKOK                               #  OK AS IS.
000619:
000620: 06,2475           71241                           MASK     DSPTAB     +11D                       #  IF OFF, DON'T TURN ON IF IMU BEING CAGED.
000621: 06,2476           10000                           CCS      A
000622: 06,2477           12513                           TCF      GLAMPTST                              #  TURN OFF UNLESS LAMP TEST IN PROGRESS.
000623:
000624: 06,2500           34763                           CAF      IMUNITBT
000625: 06,2501           71333                           MASK     IMODES30
000626: 06,2502           10000                           CCS      A
000627: 06,2503           15323                           TCF      GLOCKOK
000628:
000629: 06,2504           41241        GLINVERT           CS       DSPTAB     +11D                       #  INVERT GIMBAL LOCK LAMP.
000630: 06,2505           74763                           MASK     BIT6
000631: 06,2506           64752                           AD       BIT15                                 #  TO INDICATE CHANGE IN DSPTAB +11D.
000632: 06,2507           57241                           XCH      DSPTAB     +11D
000633: 06,2510           72160                           MASK     OCT37737
000634: 06,2511           27241                           ADS      DSPTAB     +11D
000635: 06,2512           15323                           TCF      GLOCKOK
000636:
000637: 06,2513           02771        GLAMPTST           TC       LAMPTEST                              #  TURN OFF UNLESS LAMP TEST IN PROGRESS.
000638: 06,2514           15323                           TCF      GLOCKOK
000639: 06,2515           12504                           TCF      GLINVERT
000640:
000641: 06,2516           63434        -70DEGS            DEC      -.38888                               #  -70 DEGREES SCALED IN HALF-REVOLUTIONS.
000642: 06,2517  06,3557               -15DEGS            EQUALS   OCT75252                              #  SAME AS -.083333 DEC
000643:


000645:                                                                                                  #  PROGRAM NAME:  TLIM.
000646:
000647:                                                                                                  #  FUNCTIONAL DESCRIPTION:  THIS PROGRAM MAINTAINS THE TEMP LAMP (BIT 4 OF CHANNEL 11) ON THE DSKY TO AGREE WITH
000648:                                                                                                  #  THE TEMP SIGNAL FROM THE ISS (BIT 15 OF CHANNEL 30).  HOWEVER, THE LIGHT WILL NOT BE TURNED OFF IF A LAMP TEST
000649:                                                                                                  #  IS IN PROGRESS.
000650:
000651:                                                                                                  #  CALLING SEQUENCE:  CALLED BY IMUMON ON A CHANGE OF BIT 15 OF CHANNEL 30.
000652:
000653:                                                                                                  #  JOBS OR TASKS INITIATED:  NONE.
000654:
000655:                                                                                                  #  SUBROUTINES CALLED:  LAMPTEST.
000656:
000657:                                                                                                  #  ERASABLE INITIALIZATION:  FRESH START AND RESTART TURN THE TEMP LAMP OFF.
000658:
000659:                                                                                                  #  ALARMS:  TEMP LAMP TURNED ON WHEN THE IMU TEMP GOES OUT OF LIMITS.
000660:
000661:                                                                                                  #  EXIT:  NXTIFAIL.
000662:
000663:                                                                                                  #  OUTPUT:  SERVICE OF TEMP LAMP.                  IN A, EXCEPT FOR TLIM.
000664:
000665: 06,2517           74750        TLIM               MASK     POSMAX                                #  REMOVE BIT FROM WORD OF CHANGES AND SET
000666: 06,2520           54071                           TS       RUPTREG2                              #  DSKY TEMP LAMP ACCORDINGLY.
000667:
000668: 06,2521           31333                           CA       IMODES30
000669: 06,2522           74752                           MASK     TLIMBIT
000670: 06,2523           00006                           EXTEND
000671: 06,2524           12531                           BZF      TEMPOK
000672:
000673: 06,2525           34765                           CAF      BIT4                                  #  TURN ON LAMP.
000674: 06,2526           00006                           EXTEND
000675: 06,2527           05011                           WOR      DSALMOUT
000676: 06,2530           12222                           TCF      NXTIFAIL
000677:
000678: 06,2531           02771        TEMPOK             TC       LAMPTEST                              #  IF TEMP NOW OK, DONT TURN OFF LAMP IF
000679: 06,2532           12222                           TCF      NXTIFAIL                              #  LAMP TEST IN PROGRESS.
000680:
000681: 06,2533           44765                           CS       BIT4
000682: 06,2534           00006                           EXTEND
000683: 06,2535           03011                           WAND     DSALMOUT                              #  TURN OFF TEMP CAUTION
000684: 06,2536           12222                           TCF      NXTIFAIL
000685:


000687:                                                                                                  #  PROGRAM NAME:  ITURNON.
000688:
000689:                                                                                                  #  FUNCTIONAL DESCRIPTION:  THIS PROGRAM IS CALLED BY IMUMON WHEN A CHANGE OF BIT 14 OF CHANNEL 30 (ISS TURN-ON
000690:                                                                                                  #  REQUEST) IS DETECTED.  UPON ENTRY, ITURNON CHECKS IF A TURN-ON DELAY SEQUENCE HAS FAILED, AND IF SO, IT EXITS.
000691:                                                                                                  #  IF NOT, IT CHECKS WHETHER THE TURN-ON REQUEST CHANGE IS TO ON OR OFF.  IF ON, IT SETS BIT 7 OF IMODES30 TO 1 SO
000692:                                                                                                  #  THAT TNONTEST WILL INITIATE THE ISS INITIALIZATION SEQUENCE.  IF OFF, THE TURN-ON DELAY SIGNAL, CHANNEL 12 BIT
000693:                                                                                                  #  15, IS CHECKED AND IF IT IS ON, ITURNON EXITS.  IF THE DELAY SIGNAL IS OFF, PROGRAM ALARM 00207 IS ISSUED, BIT 2
000694:                                                                                                  #  OF IMODES30 IS SET TO 1 AND THE PROGRAM EXITS.
000695:
000696:                                                                                                  #  THE SETTING OF BIT 2 OF IMODES30 (ISS DELAY SEQUENCE FAIL) INHIBITS THIS ROUTINE AND IMUOP FROM
000697:                                                                                                  #  PROCESSING ANY CHANGES.  THIS BIT WILL BE RESET BY THE ENDTNON ROUTINE WHEN THE CURRENT 90 SECOND DELAY PERIOD
000698:                                                                                                  #  ENDS.
000699:
000700:                                                                                                  #  CALLING SEQUENCE:  FROM IMUMON WHEN ISS TURN-ON REQUEST CHANGES STATE.
000701:
000702:                                                                                                  #  JOBS OR TASKS INITIATED:  NONE.
000703:
000704:                                                                                                  #  SUBROUTINES CALLED:  ALARM, IF THE ISS TURN-ON REQUEST IS NOT PRESENT FOR 90 SECONDS.
000705:
000706:                                                                                                  #  ERASABLE INITIALIZATION:  FRESH START AND RESTART SET BIT 15 OF CHANNEL 12 AND BITS 2 AND 7 OF IMODES30 TO 0,
000707:                                                                                                  #  AND BIT 14 OF IMODES30 TO 1.
000708:
000709:                                                                                                  #  ALARMS: PROGRAM ALARM 00207 IS ISSUED IF THE ISS TURN-ON REQUEST SIGNAL IS NOT PRESENT FOR 90 SECONDS.
000710:
000711:                                                                                                  #  EXIT:  NXTIFAIL.
000712:
000713:                                                                                                  #  OUTPUT:  BIT 7 OF IMODES30 TO START ISS INITIALIZATION, OR BIT 2 OF IMODES30 AND PROGRAM ALARM 00207 TO INDICATE
000714:                                                                                                  #  A FAILED TURN-ON SEQUENCE.
000715:
000716: 06,2537           34767        ITURNON            CAF      DLAYFAIL                              #  IF DELAY REQUEST HAS GONE OFF
000717: 06,2540           71333                           MASK     IMODES30                              #  PREMATURELY, DO NOT PROCESS ANY CHANGES
000718: 06,2541           10000                           CCS      A                                     #  UNTIL THE CURRENT 90 SEC WAIT EXPIRES.
000719: 06,2542           12222                           TCF      NXTIFAIL
000720:
000721: 06,2543           34753                           CAF      TONISSBT                              #  SEE IF JUST ON OR OFF.
000722: 06,2544           71333                           MASK     IMODES30
000723: 06,2545           00006                           EXTEND
000724: 06,2546           12562                           BZF      ITURNON2                              #  IF JUST ON.
000725:
000726: 06,2547           34752                           CAF      BIT15
000727: 06,2550           00006                           EXTEND                                         #  SEE IF DELAY PRESENT DISCRETE HAS BEEN
000728: 06,2551           02012                           RAND     CHAN12                                #  SENT. IF SO, ACTION COMPLETE.
000729: 06,2552           00006                           EXTEND
000730: 06,2553           12555                           BZF      +2
000731: 06,2554           12222                           TCF      NXTIFAIL
000732:
000733: 06,2555           34767                           CAF      DLAYFAIL                              #  IF NOT, SET BIT TO INDICATE REQUEST NOT
000734: 06,2556           27333                           ADS      IMODES30                              #  PRESENT FOR FULL DURATION.
000735: 06,2557           05671                           TC       ALARM
000736: 06,2560           00207                           OCT      207
000737: 06,2561           12222                           TCF      NXTIFAIL
000738:


000740: 06,2562           41333        ITURNON2           CS       IMODES30                              #  SET BIT7 TO INDICATE WAIT OF 1 SAMPLE
000741: 06,2563           74762                           MASK     ITNON1BT
000742: 06,2564           27333                           ADS      IMODES30
000743: 06,2565           12222                           TCF      NXTIFAIL
000744:


000746:                                                                                                  #  PROGRAM NAME:  IMUCAGE.
000747:
000748:                                                                                                  #  FUNCTIONAL DESCRIPTION:  THIS PROGRAM PROCESSES CHANGES OF THE IMUCAGE INBIT, CHANNEL 30 BITS 11.  IF THE BIT
000749:                                                                                                  #  CHANGES TO 0 (CAGE BUTTON PRESSED), THE ISS IS CAGED (ICDU ZERO + COARSE ALIGN + NO ATT LAMP) UNTIL THE
000750:                                                                                                  #  ASTRONAUT SELECTS ANOTHER PROGRAM TO ALIGN THE ISS.  ANY PULSE TRAINS TO THE ICDU'S AND GYRO'S ARE TERMINATED,
000751:                                                                                                  #  THE ASSOCIATE OUTCOUNTERS ARE ZEROED AND THE GYRO'S ARE DE-SELECTED.  NO ACTION OCCURS WHEN THE BUTTON IS
000752:                                                                                                  #  RELEASED (INBIT CHANGES TO 1).
000753:
000754:                                                                                                  #  CALLING SEQUENCE:  BY IMUMON WHEN IMU CAGE BIT CHANGES.
000755:
000756:                                                                                                  #  JOBS OR TASKS INITIATED:  NONE.
000757:
000758:                                                                                                  #  SUBROUTINES CALLED:  CAGESUB.
000759:
000760:                                                                                                  #  ERASABLE INITIALZATION:  FRESH START AND RESTART SET BIT 11 OF IMODES30 TO 1.
000761:
000762:                                                                                                  #  ALARMS: NONE.
000763:
000764:                                                                                                  #  EXIT:  NXTIFAIL.
000765:
000766:                                                                                                  #  OUTPUT:  ISS CAGED, COUNTERS ZEROED, PULSE TRAINS TERMINATED AND NO ATT LAMP LIT.
000767:
000768: 06,2566           10000        IMUCAGE            CCS      A                                     #  NO ACTION IF GOING OFF.
000769: 06,2567           12354                           TCF      ISSZERO
000770: 06,2570           35021                           CA       LOW9                                  #  TERMINATE ICDU, OPTICS, GYRO PULSE TRAINS
000771: 06,2571           00006                           EXTEND
000772: 06,2572           03014                           WAND     CHAN14
000773:
000774: 06,2573           42774                           CS       OCT272                                #  KNOCK DOWN TVC ENABLE, IMU ERROR COUNTER
000775: 06,2574           00006                           EXTEND                                         #    ENABLE, ZERO ICDU, COARSE ALIGN
000776: 06,2575           03012                           WAND     CHAN12                                #    ENABLE, OPTICS ERR CNTR ENABLE
000777:
000778: 06,2576           44762                           CS       ENGONBIT                              #  CLEAR ENGINE ON FLAG
000779: 06,2577           70101                           MASK     FLAGWRD5
000780: 06,2600           54101                           TS       FLAGWRD5
000781: 06,2601           44754                           CS       BIT13                                 #  TURN OFF ENGINE
000782: 06,2602           00006                           EXTEND
000783: 06,2603           03011                           WAND     DSALMOUT
000784:
000785: 06,2604           02746                           TC       CAGESUB1
000786:
000787: 06,2605           04714                           TC       IBNKCALL                              #  KNOCK DOWN TRACK, REFSMMAT, DRIFT FLAGS
000788: 06,2606           17121                           CADR     RNDREFDR
000789:
000790: 06,2607           44772                           CS       ZERO                                  #  ZERO COMMAND OUT-COUNTERS
000791: 06,2610           54050                           TS       CDUXCMD
000792: 06,2611           54051                           TS       CDUYCMD
000793: 06,2612           54052                           TS       CDUZCMD
000794: 06,2613           54047                           TS       GYROCMD


000796: 06,2614           42777                           CS       OCT740                                #  HAVING WAITED AT LEAST 27 MCT FROM
000797: 06,2615           00006                           EXTEND                                         #  GYRO PULSE TRAIN TERMINATION, WE CAN
000798: 06,2616           03014                           WAND     CHAN14                                #  DE-SELECT THE GYROS.
000799: 06,2617           12222                           TCF      NXTIFAIL
000800:


000802:                                                                                                  #  PROGRAM NAME:  IMUOP.
000803:
000804:                                                                                                  #  FUNCTIONAL DESCRIPTION:  THIS PROGRAM PROCESSES CHANGES IN THE ISS OPERATE DISCRETE, BIT 9 OF CHANNEL 30.
000805:                                                                                                  #  IF THE INBIT CHANGES TO 0, INDICATING ISS ON, IMUOP GENERALLY SETS BIT 7 OF IMODES30 TO 1 TO REQUEST ISS
000806:                                                                                                  #  INITIALIZATION VIA TNONTEST.  AN EXCEPTION IS DURING A FAILED ISS DELAY DURING WHICH BIT 2 OF IMODES30 IS SET
000807:                                                                                                  #  TO 1 AND NO FURTHER INITIALIZATION IS REQUIRED.  WHEN THE INBIT CHANGES TO 1, INDICATING ISS OFF, IMUSEFLG IS
000808:                                                                                                  #  TESTED TO SEE IF ANY PROGRAM WAS USING THE ISS.  IF SO, PROGRAM ALARM 00214 IS ISSUED.
000809:
000810:                                                                                                  #  CALLING SEQUENCE:  BY IMUMON WHEN BIT 9 OF CHANNEL 30 CHANGES.
000811:
000812:                                                                                                  #  JOBS OR TASKS INITIATED:  NONE.
000813:
000814:                                                                                                  #  SUBROUTINES CALLED:  ALARM, IF ISS IS TURNED OFF WHILE IN USE.
000815:
000816:                                                                                                  #  ERASABLE INITIALIZATION:  ON FRESH START AND RESTART, BIT 9 OF IMODES30 IS SET TO 1 EXCEPT WHEN THE GIMBAL LOCK
000817:                                                                                                  #  LAMP IS ON, IN WHICH CASE IT IS SET TO 0.  THIS PREVENTS ICDU ZERO BY TNONTEST WITH THE ISS IN GIMBAL LOCK.
000818:
000819:                                                                                                  #  ALARMS:  PROGRAM ALARM 00214 IF THE ISS IS TURNED OFF WHILE IN USE.
000820:
000821:                                                                                                  #  EXIT:  NXTIFAIL.
000822:
000823:                                                                                                  #  OUTPUT:  ISS INITIALIZATION REQUEST (IMODES30 BIT 7) OR PROGRAM ALARM 00214.
000824:
000825: 06,2620           00006        IMUOP              EXTEND                                         #  IF OPERATE JUST ON, WAIT 1 SAMPLE.
000826: 06,2621           12646                           BZF      IMUOP2
000827:
000828: 06,2622           41334                           CS       IMODES33                              #  DISABLE DAP
000829: 06,2623           74763                           MASK     NOIMUDAP
000830: 06,2624           27334                           ADS      IMODES33
000831:
000832: 06,2625           04714                           TC       IBNKCALL                              #  KNOCK DOWN TRACK, REFSMMAT, DRIFT FLAGS
000833: 06,2626           17121                           CADR     RNDREFDR
000834:
000835: 06,2627           44760                           CS       UTBIT
000836: 06,2630           70104                           MASK     FLAGWRD8
000837: 06,2631           54104                           TS       FLAGWRD8
000838:
000839: 06,2632           34762                           CA       RNDVZBIT                              #  TURN OFF FLAGS
000840: 06,2633           64761                           AD       IMUSEBIT
000841: 06,2634           40000                           COM
000842: 06,2635           70074                           MASK     FLAGWRD0
000843: 06,2636           56074                           XCH      FLAGWRD0                              #  IF GOING OFF, ALARM IF PROG USING IMU
000844: 06,2637           40000                           COM
000845: 06,2640           74761                           MASK     IMUSEFLG
000846: 06,2641           10000                           CCS      A
000847: 06,2642           12222                           TCF      NXTIFAIL
000848:
000849: 06,2643           05671                           TC       ALARM
000850: 06,2644           00214                           OCT      214
000851: 06,2645           12222                           TCF      NXTIFAIL
000852:


000854: 06,2646           34767        IMUOP2             CAF      DLAYFAIL
000855: 06,2647           71333                           MASK     IMODES30
000856: 06,2650           10000                           CCS      A
000857: 06,2651           12222                           TCF      NXTIFAIL                              #  IF SO, DON'T PROCESS UNTIL PRESENT 90
000858: 06,2652           12562                           TCF      ITURNON2                              #  SECONDS EXPIRES.
000859:


000861:                                                                                                  #  PROGRAM NAME:  PIPFAIL
000862:
000863:                                                                                                  #  FUNCTIONAL DESCRIPTION:  THIS PROGRAM PROCESSES CHANGES OF BIT 13 OF CHANNEL 33, PIPA FAIL.  IT SETS BIT 10 OF
000864:                                                                                                  #  IMODES30 TO AGREE.  IT CALLS SETISSW IN CASE A PIPA FAIL NECESSITATES AN ISS WARNING.  IF NOT, I.E., IMODES30
000865:                                                                                                  #  BIT 1 = 1, AND A PIPA FAIL IS PRESENT AND THE ISS NOT BEING INITIALIZED, PROGRAM ALARM 0212 IS ISSUED.
000866:
000867:                                                                                                  #  CALLING SEQUENCE:  BY C33TEST ON CHANGES OF CHANNEL 33 BIT 13.
000868:
000869:                                                                                                  #  JOBS OR TASKS INITIATED:  NONE.
000870:
000871:                                                                                                  #  SUBROUTINES CALLED:  1) SETISSW, AND 2) ALARM (SEE FUNCITONAL DESCRIPTION).
000872:
000873:                                                                                                  #  ERASABLE INITIALIZATION:  SEE IMUMON FOR INITIALIZATION OF IMODES30.  THE RELEVANT BITS ARE 5, 7, 8, 9, AND 10.
000874:
000875:                                                                                                  #  ALARMS:  PROGRAM ALARM 00212 IF PIPA FAIL IS PRESENT BUT NEITHER ISS WARNING IS TO BE ISSUED NOR THE ISS IS
000876:                                                                                                  #  BEING INITIALIZED.
000877:
000878:                                                                                                  #  EXIT:  NXTFL33.
000879:
000880:                                                                                                  #  OUTPUT:  PROGRAM ALARM 00212 AND ISS WARNING MAINTENANCE.
000881:
000882: 06,2653           10000        PIPFAIL            CCS      A                                     #  SET BIT10 IN IMODES30 SO ALL ISS WARNING
000883: 06,2654           34757                           CAF      PIPAFLBT                              #  INFO IS IN ONE REGISTER.
000884: 06,2655           57333                           XCH      IMODES30
000885: 06,2656           73000                           MASK     -BIT10
000886: 06,2657           27333                           ADS      IMODES30
000887:
000888: 06,2660           02706                           TC       SETISSW
000889:
000890: 06,2661           41333                           CS       IMODES30                              #  IF PIP FAIL DOESNT LIGHT ISS WARNING, DO
000891: 06,2662           74770                           MASK     ACCFINHT                              #  A PROGRAM ALARM IF IMU OPERATING BUT NOT
000892: 06,2663           10000                           CCS      A                                     #  CAGED OR BEING TURNED ON.
000893: 06,2664           12424                           TCF      NXTFL33
000894:
000895: 06,2665           31333                           CA       IMODES30
000896: 06,2666           72776                           MASK     OCT1720
000897: 06,2667           10000                           CCS      A
000898: 06,2670           12424                           TCF      NXTFL33                               #  ABOVE CONDITION NOT MET.
000899:
000900: 06,2671           05671                           TC       ALARM
000901: 06,2672           00212                           OCT      212
000902: 06,2673           12424                           TCF      NXTFL33
000903:


000905:                                                                                                  #  PROGRAM NAMES:  DNTMFAST, UPTMFAST
000906:
000907:                                                                                                  #  FUNCTIONAL DESCRIPTION:  THESE PROGRAMS PROCESS CHANGES OF BITS 12 AND 11 OF CHANNEL 33.  IF A BIT CHANGES TO A
000908:                                                                                                  #  0, A PROGRAM ALARM IS ISSUED.  THE ALARMS ARE:
000909:
000910:                                                                                                  #        BIT     ALARM   CAUSE
000911:                                                                                                  #        ---     -----   -----
000912:                                                                                                  #         12     01105   DOWNLINK TOO FAST
000913:                                                                                                  #         11     01106   UPLINK TOO FAST
000914:
000915:                                                                                                  #  CALLING SEQUENCE:  BY C33TEST ON A BIT CHANGE.
000916:
000917:                                                                                                  #  SUBROUTINES CALLED:  ALARM, IF A BIT CHANGES TO A 0.
000918:
000919:                                                                                                  #  ERASABLE INITIALIZATION:  FRESH START OR RESTART, BITS 12 AND 11 OF IMODES33 ARE SET TO 1.
000920:
000921:                                                                                                  #  ALARMS:  SEE FUNCTIONAL DESCRIPTION.
000922:
000923:                                                                                                  #  EXIT:  NXTFL33.
000924:
000925:                                                                                                  #  OUTPUT:  PROGRAM ALARM ON A BIT CHANGE TO 0.
000926:
000927: 06,2674           10000        DNTMFAST           CCS      A                                     #  DO PROG ALARM IF TM TOO FAST.
000928: 06,2675           12424                           TCF      NXTFL33
000929:
000930: 06,2676           05671                           TC       ALARM
000931: 06,2677           01105                           OCT      1105
000932: 06,2700           12424                           TCF      NXTFL33
000933:
000934: 06,2701           10000        UPTMFAST           CCS      A                                     #  SAME AS DNLINK TOO FAST WITH DIFFERENT
000935: 06,2702           12424                           TCF      NXTFL33                               #  ALARM CODE.
000936:
000937: 06,2703           05671                           TC       ALARM
000938: 06,2704           01106                           OCT      1106
000939: 06,2705           12424                           TCF      NXTFL33
000940:


000942:                                                                                                  #  PROGRAM NAME:  SETISSW
000943:
000944:                                                                                                  #  FUNCTIONAL DESCRIPTION:  THIS PROGRAM TURNS THE ISS WARNING LAMP ON AND OFF (CHANNEL 11 BIT 1 = 1 FOR ON,
000945:                                                                                                  #  0 FOR OFF) DEPENDING ON THE STATUS OF IMODES30 BITS 13 (IMU FAIL) AND 4 (INHIBIT IMU FAIL), 12 (ICDU FAIL) AND
000946:                                                                                                  #  3 (INHIBIT ICDU FAIL), AND 10 (PIPA FAIL) AND 1 (INHIBIT PIPA FAIL).  THE LAMP IS LEFT ON IF A LAMP TEST IS IN
000947:                                                                                                  #  PROGRESS.
000948:
000949:                                                                                                  #  CALLING SEQUENCE:  CALLED BY IMUMON ON CHANGES TO IMU FAIL AND ICDU FAIL.  CALLED BY IFAILOK AND PFAILOK UPON
000950:                                                                                                  #  REMOVAL OF THE FAIL INHIBITS.  CALLED BY PIPFAIL WHEN THE PIPA FAIL DISCRETE CHANGES.  IT IS CALLED BY PIPUSE
000951:                                                                                                  #  SINCE THE PIPA FAIL PROGRAM ALARM MAY NECESSITATE AN ISS WARNING, AND LIKEWISE BY PIPFREE WHEN THE ALARM DEPARTS
000952:                                                                                                  #  AND IT IS CALLED BY IMUZERO3 AND ISSUP AFTER THE FAIL INHIBITS HAVE BEEN REMOVED.
000953:
000954:                                                                                                  #  JOBS OR TASKS INITIATED:  NONE.
000955:
000956:                                                                                                  #  SUBROUTINES CALLED:  NONE.
000957:
000958:                                                                                                  #  ERASABLE INITIALIZATION:
000959:
000960:                                                                                                  #        1) IMODES30 - SEE IMUMON.
000961:                                                                                                  #        2) IMODES33 BIT 1 = 0 (LAMP TEST NOT IN PROGRESS).
000962:
000963:                                                                                                  #  ALARMS:  ISS WARNING.
000964:
000965:                                                                                                  #  EXIT: VIA Q.
000966:
000967:                                                                                                  #  OUTPUT: ISS WARNING LAMP SET PROPERLY.
000968:
000969: 06,2706           34776        SETISSW            CAF      OCT15                                 #  SET ISS WARNING USING THE FAIL BITS IN
000970: 06,2707           71333                           MASK     IMODES30                              #  BITS 13, 12, AND 10 OF IMODES30 AND THE
000971: 06,2710           00006                           EXTEND                                         #  FAILURE INHIBIT BITS IN POSITIONS
000972: 06,2711           74757                           MP       BIT10                                 #  4, 3, AND 1.
000973: 06,2712           31333                           CA       IMODES30
000974: 06,2713           00006                           EXTEND
000975: 06,2714           04001                           ROR      LCHAN                                 #  0 INDICATES FAILURE
000976: 06,2715           40000                           COM
000977: 06,2716           75054                           MASK     OCT15000
000978: 06,2717           10000                           CCS      A
000979: 06,2720           12731                           TCF      ISSWON                                #  FAILURE.
000980:
000981: 06,2721           34770        ISSWOFF            CAF      LMPTSTBT                              #  DONT TURN OFF ISS WARNING IF LAMP TEST
000982: 06,2722           71334                           MASK     IMODES33                              #  IN PROGRESS.
000983: 06,2723           10000                           CCS      A
000984: 06,2724           00002                           TC       Q
000985:
000986: 06,2725           44770                           CS       BIT1
000987: 06,2726           00006                           EXTEND
000988: 06,2727           03011                           WAND     DSALMOUT                              #  TURN OFF ISS WARNING
000989: 06,2730           00002                           TC       Q
000990:
000991: 06,2731           00006        ISSWON             EXTEND


000993: 06,2732           22066                           QXCH     ITEMP6
000994: 06,2733           05770                           TC       VARALARM                              #  TELL EVERYONE WHAT CAUSED THE ISS WARNING
000995: 06,2734           34770                           CAF      BIT1
000996: 06,2735           00006                           EXTEND
000997: 06,2736           05011                           WOR      DSALMOUT                              #  TURN ON ISS WARNING
000998: 06,2737           00066                           TC       ITEMP6
000999: 06,2740           47667        CAGESUB            CS       BIT15+6                               #  SET OUTBITS + INTERNAL FLAGS FOR
001000: 06,2741           00006                           EXTEND                                         #  SYSTEM TURN-ON OR CAGE. DISABLE THE
001001: 06,2742           03012                           WAND     CHAN12                                #  ERROR COUNTER AND REMOVE IMU DELAY COMP.
001002: 06,2743           35001                           CAF      BITS4&5                               #  SEND ZERO AND COARSE.
001003: 06,2744           00006                           EXTEND
001004: 06,2745           05012                           WOR      CHAN12
001005:
001006: 06,2746           41241        CAGESUB1           CS       DSPTAB     +11D                       #  TURN ON NO ATT LAMP
001007: 06,2747           77664                           MASK     OC40010
001008: 06,2750           27241                           ADS      DSPTAB     +11D
001009:
001010: 06,2751           41333        CAGESUB2           CS       IMODES30                              #  SET FLAGS TO INDICATE CAGING OR TURN-ON
001011: 06,2752           75012                           MASK     OCT75                                 #  AND INHIBIT ALL ISS WARNING INFO
001012: 06,2753           27333                           ADS      IMODES30
001013:
001014: 06,2754           41334                           CS       IMODES33                              #  DISABLE DAP AUTO AND HOLD MODES
001015: 06,2755           74763                           MASK     NOIMUDAP
001016: 06,2756           27334                           ADS      IMODES33
001017:
001018: 06,2757           00002                           TC       Q
001019:
001020: 06,2760  06,2706               IMUFAIL            EQUALS   SETISSW
001021: 06,2760  06,2706               ICDUFAIL           EQUALS   SETISSW
001022:


001024:                                                                                                  #  JUMP TABLES AND CONSTANTS.
001025:
001026: 06,2760           12537        IFAILJMP           TCF      ITURNON                               #  CHANNEL 30 DISPATCH.
001027: 06,2761           12706                           TCF      IMUFAIL
001028: 06,2762           12706                           TCF      ICDUFAIL
001029: 06,2763           12566                           TCF      IMUCAGE
001030: 06,2764           76400        30RDMSK            OCT      76400                                 #  (BIT 10 NOT SAMPLED HERE).
001031: 06,2765           12620                           TCF      IMUOP
001032:
001033: 06,2766           12653        C33JMP             TCF      PIPFAIL                               #  CHANNEL 33 DISPATCH.
001034: 06,2767           12674                           TCF      DNTMFAST
001035: 06,2770           12701                           TCF      UPTMFAST
001036:
001037:                                                                                                  #  SUBROUTINE TO SKIP IF LAMP TEST NOT IN PROGRESS.
001038:
001039: 06,2771           41334        LAMPTEST           CS       IMODES33                              #  BIT 1 OF IMODES33 = 1 IF LAMP TEST IN
001040: 06,2772           74770                           MASK     LMPTSTBT                              #  PROGRESS.
001041: 06,2773           15651                           TCF      INCRQCK
001042: 06,2774     5055               33RDMSK            EQUALS   PRIO16
001043: 06,2774     7664               OC40010            EQUALS   OT40010
001044: 06,2774           00272        OCT272             OCT      00272
001045: 06,2775           00300        BITS7&8            OCT      300
001046: 06,2776           01720        OCT1720            OCT      1720
001047: 06,2777           00740        OCT740             OCT      00740
001048: 06,3000     5054               OCT15000           EQUALS   PRIO15
001049: 06,3000           76777        -BIT10             OCT      -1000
001050:
001051: 06,3001     5775               120MS              =        OCT14                                 #  (DEC 12)
001052: 06,3001     5323               GLOCKOK            EQUALS   RESUME
001053:


001055:                                                                                                  #  OPTICS MONITORING AND ZERO ROUTINES
001056: 06,3001           31337        OPTMON             CA       OPTMODES                              #  MONITOR OPTICS INBITS IN CHAN 30 AND 33
001057: 06,3002           00006                           EXTEND
001058: 06,3003           06030                           RXOR     CHAN30                                #  LOOK FOR OCDU FAIL BIT CHANGE
001059: 06,3004           74762                           MASK     OCDUFBIT
001060: 06,3005           54070                           TS       RUPTREG1                              #  STORE CHANGE BIT
001061: 06,3006           10000                           CCS      A
001062: 06,3007           03221                           TC       OCDUFTST                              #  PROCESS OCDUFAIL BIT CHANGE
001063:
001064: 06,3010           11323        33OPTMON           CCS      OPTIND                                #  BYPASS IF TVC TAKEOVER
001065: 06,3011           13015                           TCF      +4
001066: 06,3012           13015                           TCF      +3
001067: 06,3013           03256                           TC       OPDISAB                               #  DISABLE OPTICS ERR CNTRS
001068: 06,3014           15323                           TCF      RESUME
001069:
001070: 06,3015           31337                           CA       OPTMODES                              #  LOOK FOR OPTICS MODE SWITCH CHANGE
001071: 06,3016           00006                           EXTEND
001072: 06,3017           06033                           RXOR     CHAN33
001073: 06,3020           75001                           MASK     OCTHIRTY
001074: 06,3021           26070                           ADS      RUPTREG1                              #  STORE INBIT CHANGES
001075: 06,3022           23337                           LXCH     OPTMODES
001076: 06,3023           00006                           EXTEND
001077: 06,3024           06001                           RXOR     LCHAN
001078: 06,3025           55337                           TS       OPTMODES                              #  UPDATE OPTMODES TO SHOW BIT CHANGES
001079:
001080: 06,3026           30374                           CA       C31FLWRD
001081: 06,3027           75001                           MASK     OCTHIRTY
001082: 06,3030           00006                           EXTEND
001083: 06,3031           13037                           BZF      +6
001084: 06,3032           54001                           TS       L                                     #  USE FAILWORD INDICATORS
001085: 06,3033           45001                           CS       OCTHIRTY
001086: 06,3034           71337                           MASK     OPTMODES
001087: 06,3035           60001                           AD       L
001088: 06,3036           55337                           TS       OPTMODES
001089: 06,3037           41337                           CS       OPTMODES                              #  SAMPLE CURRENT SWITCH SETTING
001090: 06,3040           75001                           MASK     OCTHIRTY
001091: 06,3041           00006                           EXTEND
001092: 06,3042           13047                           BZF      SETSAMP                               #  MANUAL-SET ZERO IN SWSAMPLE
001093:
001094: 06,3043           74764                           MASK     OPMD1BIT                              #  SEE IF CSC
001095: 06,3044           10000                           CCS      A
001096: 06,3045           03047                           TC       +2                                    #  CSC-SET SWSAMPLE POS
001097: 06,3046           37702                           CAF      NEGONE                                #  ZOPTICS-SET SWSAMPLE (-1)
001098: 06,3047           55354        SETSAMP            TS       SWSAMPLE                              #  CURRENT OPTICS SWITCH SETTING
001099:
001100: 06,3050           11330        PROCESSW           CCS      DESOPMOD                              #  BRANCH ON PREVIOUS SETTING
001101: 06,3051           03143                           TC       CSCDES                                #  CSC
001102: 06,3052           03115                           TC       MANUDES                               #  MANUAL
001103: 06,3053           11354        ZOPTDES            CCS      SWSAMPLE                              #  IS SWITCH STILL AT ZOPTICS
001104: 06,3054           03132                           TC       ZTOCSC                                #  NOW AT CSC


001106: 06,3055           03071                           TC       ZTOMAN                                #  MANUAL
001107: 06,3056           03101                           TC       ZOPFINI                               #  ZOPTICS-SEE IF ZOPT PROCESSING
001108: 06,3057           03124                           TC       SETDESMD                              #  ZOPT NOT PROCESSING-NO ACTION
001109:
001110: 06,3060           11332                           CCS      ZOPTCNT                               #  ZOPT PROCESSING-CHECK COUNTER
001111: 06,3061           03123                           TC       SETCNT                                #  32 SAMPLE NOT FINISHED-SET COUNTER
001112: 06,3062           34770        SETZOEND           CAF      BIT1                                  #  32 SAMPLE WAIT COMPLETED-SET UP ENDZOPT
001113: 06,3063           00006                           EXTEND
001114: 06,3064           05012                           WOR      CHAN12                                #  SEND OCDU ZERO
001115: 06,3065           34124                           CAF      200MS                                 #  HOLD FOR 200MS
001116: 06,3066           05223                           TC       TWIDDLE
001117: 06,3067           03171                           ADRES    ENDZOPT
001118: 06,3070           03124                           TC       SETDESMD
001119: 06,3071           03101        ZTOMAN             TC       ZOPFINI                               #  ZOP TO MANUAL-IS ZOPT DONE
001120: 06,3072           03154                           TC       CSCTOMAN                              #  YES
001121: 06,3073           05671        ZOPALARM           TC       ALARM                                 #  ALARM-SWITCHED ALTERED WHILE ZOPTICS
001122: 06,3074           00116                           OCT      00116
001123: 06,3075           34775                           CAF      OCT13                                 #  PROCESSING-SET RETURN OPTION
001124: 06,3076           55331                           TS       WTOPTION
001125:
001126: 06,3077           03104                           TC       CANZOPT                               #  CANCEL ZOPT
001127:
001128: 06,3100           03154                           TC       CSCTOMAN
001129:                                                                                                  #  BIT 1 OF OPTMODES HAS BEEN ELIMINATED.
001130:                                                                                                  #  IF T4RUPT TIMING IS REDUCED, IT WILL
001131:                                                                                                  #  BE NECESSARY TO REINSTATE THE BIT AS
001132:                                                                                                  #  BEFORE, BUT PREVENT OPTICS LOCKOUT.
001133: 06,3101           34766        ZOPFINI            CAF      ZOPTCS
001134: 06,3102           71337        ZOPFIN2            MASK     OPTMODES                              #  RETURNS TO L+1 PROCESSING AND
001135: 06,3103           15651                           TCF      INCRQCK                               #  L+2 IF NOT
001136: 06,3104           34766        CANZOPT            CAF      ZOPTCS                                #  CANCEL ZERO OPTICS
001137: 06,3105           64767                           AD       OCDUINHT
001138: 06,3106           40000                           COM
001139: 06,3107           71337                           MASK     OPTMODES                              #  ZERO ZOPT PROCESSING BIT-ENABLE OCDUFAIL
001140: 06,3110           55337                           TS       OPTMODES
001141: 06,3111           44770                           CS       BIT1                                  #  MAKE SURE ZERO OCDU IS OFF
001142: 06,3112           00006                           EXTEND
001143: 06,3113           03012                           WAND     CHAN12
001144: 06,3114           00002                           TC       Q
001145:


001147: 06,3115           11354        MANUDES            CCS      SWSAMPLE                              #  SEE IF SWITCH STILL IN MANUAL MODE
001148: 06,3116           03137                           TC       MANTOCSC                              #  NOW AT CSC
001149: 06,3117           03127                           TC       MANTOMAN                              #  STILL MANUAL
001150: 06,3120           11331                           CCS      WTOPTION                              #  ZOPTICS-LOOK AT ZOPTICS RETURN OPTION
001151: 06,3121           03150                           TC       CSCTOZOP   +2                         #  5 SEC RETURN GOOD- CONTINUE ZOPTICS
001152: 06,3122           03146                           TC       CSCTOZOP
001153: 06,3123           55332        SETCNT             TS       ZOPTCNT
001154: 06,3124           31354        SETDESMD           CA       SWSAMPLE                              #  SET CURRENT SWITCH INDICATOR- RESUME
001155: 06,3125           55330                           TS       DESOPMOD
001156: 06,3126           05323                           TC       RESUME
001157: 06,3127           11331        MANTOMAN           CCS      WTOPTION                              #  DECREMENT RETURN OPTION TIME
001158: 06,3130           55331                           TS       WTOPTION
001159: 06,3131           03124                           TC       SETDESMD
001160:
001161: 06,3132           03101        ZTOCSC             TC       ZOPFINI                               #  SEE IF ZOPT PROCESSING
001162: 06,3133           03142                           TC       MANTOCSC   +3                         #  NO- RETURN TO COARS OPT
001163: 06,3134           05671                           TC       ALARM                                 #  ZOPT PROCESSING- ALARM
001164: 06,3135           00116                           OCT      00116
001165: 06,3136           03104                           TC       CANZOPT                               #  CANCEL ZOPT
001166: 06,3137           34772        MANTOCSC           CAF      ZERO                                  #  CANCEL ZOPT RETURN OPTION IF SET
001167: 06,3140           55331                           TS       WTOPTION
001168: 06,3141           55332                           TS       ZOPTCNT
001169:
001170: 06,3142           03154                 +3        TC       CSCTOMAN
001171: 06,3143           11354        CSCDES             CCS      SWSAMPLE                              #  SEE IF SWITCH STILL AT CSC
001172: 06,3144           03124                           TC       SETDESMD                              #  STILL AT CSC
001173: 06,3145           03154                           TC       CSCTOMAN                              #  MANUAL
001174: 06,3146           34763        CSCTOZOP           CAF      OCT40                                 #  ZOPTICS-INITIALIZE FOR ZOPT
001175: 06,3147           55332                           TS       ZOPTCNT
001176: 06,3150           03213                 +2        TC       INITZOPT
001177: 06,3151           04077                           TC       NOOPRATE
001178: 06,3152           03257                           TC       ECDISAB
001179: 06,3153           03124                           TC       SETDESMD
001180: 06,3154           11323        CSCTOMAN           CCS      OPTIND                                #  IS THE OPTICS IN USE
001181: 06,3155           03161                           TC       CANCOARS                              #  YES DISABLE OPTICS ERR CNTRS, SET TVC
001182: 06,3156           03161                           TC       CANCOARS                              #  ENABLE BIT IF IN MANUAL AND REENABLE
001183: 06,3157           03160                           TC       +1                                    #  OPTICS ERR CNTRS
001184: 06,3160           03124                           TC       SETDESMD                              #  NO NORMAL EXIT
001185: 06,3161           34772        CANCOARS           CAF      ZERO
001186: 06,3162           54740                           TS       TOLD
001187: 06,3163           54741                           TS       SOLD
001188: 06,3164           03257                           TC       ECDISAB                               #  DISABLE OP ERR CNTRS
001189: 06,3165           36211                           CA       SIX                                   #  ENABLE ERR CNTRS AFTER 60 MS
001190: 06,3166           05223                           TC       TWIDDLE
001191: 06,3167           03263                           ADRES    ECENAB
001192: 06,3170           03124                           TC       SETDESMD
001193: 06,3171           34772        ENDZOPT            CA       ZERO
001194: 06,3172           54036                           TS       CDUS                                  #  ZERO IN CDUS, -20 IN CDUT
001195: 06,3173           55327                           TS       ZONE                                  #  INITIALIZE SHAFT MONITOR ZONE
001196: 06,3174           43671                           CS       20DEGS


001198: 06,3175           54035                           TS       CDUT
001199: 06,3176           44770                           CS       BIT1                                  #  TURN OFF ZERO OCDU
001200: 06,3177           00006                           EXTEND
001201: 06,3200           03012                           WAND     CHAN12
001202: 06,3201           34124                           CAF      200MS                                 #  DELAY 200MS FOR CDUS TO RESYNCHRONIZE
001203: 06,3202           05260                           TC       VARDELAY
001204:
001205: 06,3203           41337                           CS       OPTMODES                              #  SHOW ZOPTICS SINCE LAST FRESH START
001206: 06,3204           74757                           MASK     ZROPTFIN                              #  OR RESTART
001207: 06,3205           27337                           ADS      OPTMODES
001208:
001209: 06,3206           46211                           CS       SIX
001210: 06,3207           71337                           MASK     OPTMODES
001211: 06,3210           55337                           TS       OPTMODES
001212:
001213: 06,3211           03221                           TC       OCDUFTST                              #  CHECK OCDU FAIL BIT AFTER ENABLE
001214:
001215: 06,3212           05314                           TC       TASKOVER
001216:
001217: 06,3213           34772        INITZOPT           CAF      ZERO                                  #  INITIALIZE ZOPTICS-INHIBIT OCDUFAIL
001218: 06,3214           55331                           TS       WTOPTION                              #  AND SHOW OPTICS PROCESSING
001219: 06,3215           41337                           CS       OPTMODES                              #  SET ZERO OPTICS PROCESSING
001220: 06,3216           76211                           MASK     SIX                                   #      OPTICS CDU FAIL INHIBITED
001221: 06,3217           27337                           ADS      OPTMODES
001222: 06,3220           00002                           TC       Q
001223:


001225: 06,3221           34762        OCDUFTST           CAF      BIT7                                  #  SEE IF OCDUFAIL ON OR OFF
001226: 06,3222           00006                           EXTEND
001227: 06,3223           02030                           RAND     CHAN30
001228: 06,3224           10000                           CCS      A
001229: 06,3225           13247                           TCF      OPFAILOF                              #  OCDUFAIL LIGHT OFF
001230:
001231: 06,3226           34767                           CAF      OCDUINHT                              #  OCDUFAIL LIGHT ON UNLESS INHIBITED
001232: 06,3227           71337                           MASK     OPTMODES
001233: 06,3230           10000                           CCS      A
001234: 06,3231           00002                           TC       Q                                     #  OCDUFAIL INHIBITED
001235:
001236: 06,3232           34761        OPFAILON           CAF      BIT8                                  #  ON BIT
001237: 06,3233           61241                           AD       DSPTAB     +11D
001238: 06,3234           74761                           MASK     BIT8
001239: 06,3235           00006        SETOFF             EXTEND
001240: 06,3236           16711                           BZF      TCQ                                   #  NO CHANGE
001241:
001242: 06,3237           54001                           TS       L
001243: 06,3240           31241                           CA       DSPTAB     +11D
001244: 06,3241           00006                           EXTEND
001245: 06,3242           06001                           RXOR     LCHAN
001246: 06,3243           74750                           MASK     POSMAX
001247: 06,3244           64752                           AD       BIT15                                 #  SHOW ACTION WANTED
001248: 06,3245           55241                           TS       DSPTAB     +11D
001249: 06,3246           00002                           TC       Q
001250:
001251: 06,3247           34770        OPFAILOF           CAF      LMPTSTBT                              #  DONT TURN OFF IF LAMP TEST
001252: 06,3250           71334                           MASK     IMODES33
001253: 06,3251           10000                           CCS      A
001254: 06,3252           00002                           TC       Q                                     #  LAMP TEST IN PROGRESS
001255:
001256: 06,3253           34761                           CAF      BIT8                                  #  TURN OFF OCDUFAIL LIGHT
001257: 06,3254           71241                           MASK     DSPTAB     +11D
001258: 06,3255           13235                           TCF      SETOFF
001259:
001260: 06,3256           24002        OPDISAB            INCR     Q
001261: 06,3257           44767        ECDISAB            CS       BIT2
001262: 06,3260           00006                           EXTEND
001263: 06,3261           03012                           WAND     CHAN12
001264: 06,3262           00002                           TC       Q
001265: 06,3263           31354        ECENAB             CA       SWSAMPLE
001266: 06,3264           00006                           EXTEND
001267: 06,3265           13267                           BZF      +2                                    #  MANUAL SET TVC ENABLE
001268: 06,3266           13272                           TCF      ECENAB1
001269: 06,3267           34761                           CAF      BIT8
001270: 06,3270           00006                           EXTEND
001271: 06,3271           05012                           WOR      CHAN12
001272: 06,3272           34767        ECENAB1            CAF      BIT2
001273: 06,3273           00006                           EXTEND
001274: 06,3274           05012                           WOR      CHAN12


001276: 06,3275           05314                           TC       TASKOVER
001277: 06,3276     4775               OCT13              =        ELEVEN
001278: 06,3276     5001               OCTHIRTY           EQUALS   BITS4&5
001279: 06,3276     4763               OCT40              EQUALS   BIT6
001280: 06,3276     4124               200MS              EQUALS   OCT24
001281:


001283:                                                                                                  #  OPTICS CDU DRIVING PROGRAM
001284:
001285: 10,2000                                           SETLOC   OPTDRV
001286: 10,2000                                           BANK
001287: 10,2000                                           COUNT*   $$/SXT
001288:
001289:                                                                                                  #  SHAFT STOP MONITOR-ZONE UPDATE
001290:
001291: 10,2000           30036        OPTDRIVE           CA       CDUS                                  #  GRAB OPTIC SHAFT CDU
001292: 10,2001           54001                           TS       L
001293: 10,2002           10000                           CCS      A                                     #  GET ABS(CDUS)
001294: 10,2003           67673                           AD       13,14,15
001295: 10,2004           12006                           TCF      +2                                    #  ABS(CDUS) - 45 DEG
001296: 10,2005           12003                           TCF      -2
001297: 10,2006           00006                           EXTEND
001298: 10,2007           62016                           BZMF     OZONE                                 #  LESS THAN 45 DEG-SET ZONE 0
001299: 10,2010           31327                           CA       ZONE                                  #  IF ZONE ZERO, CHANGE TO + OR - OTHERWISE
001300: 10,2011           00006                           EXTEND                                         #  DON'T MESS WITH ZONE
001301: 10,2012           12014                           BZF      +2
001302: 10,2013           12020                           TCF      CONTDRVE                              #  JUST CONTINUE
001303: 10,2014           56001                           XCH      L                                     #  GREATER THAN 45 DEG-SET ZONE TO SIGN CDU
001304: 10,2015           12017                           TCF      OZONE      +1
001305: 10,2016           34772        OZONE              CAF      ZERO                                  #  ABS(CDUS) LESS THAN 90 DEG-ZONE ZERO
001306: 10,2017           55327                           TS       ZONE
001307: 10,2020                                           COUNT*   $$/T4RPT
001308: 10,2020           11323        CONTDRVE           CCS      OPTIND
001309: 10,2021           02025                           TC       +4                                    #  WORK COARS OPTICS
001310: 10,2022           02025                           TC       +3                                    #  WORK COARS OPTICS
001311: 10,2023           04077                           TC       NOOPRATE                              #  NO OPT  DISABLE   TVC
001312: 10,2024           05323                           TC       RESUME                                #  NO OPT
001313:
001314: 10,2025           31354                           CA       SWSAMPLE                              #  SEE IF SWITCH AT CMC
001315: 10,2026           00006                           EXTEND
001316: 10,2027           12226                           BZF      TVCBCK
001317: 10,2030           00006                           EXTEND
001318: 10,2031           65323                           BZMF     RESUME
001319: 10,2032           34757        RATEDRV1           CAF      ZROPTFIN                              #  SEE IF OCDUS ZEROED SINCE LAST FSTART
001320: 10,2033           71337                           MASK     OPTMODES
001321: 10,2034           10000                           CCS      A
001322: 10,2035           02040                           TC       +3
001323: 10,2036           05671                           TC       ALARM                                 #  OPTICS NOT ZEROED
001324: 10,2037           00120                           OCT      00120
001325:
001326: 10,2040           34767                           CA       BIT2                                  #  SEE IF ERR CNTS ENABLED
001327: 10,2041           00006                           EXTEND
001328: 10,2042           02012                           RAND     CHAN12
001329: 10,2043           00006                           EXTEND
001330: 10,2044           12204                           BZF      SETBIT                                #  CNTS NOT ENABLED-DO IT AND RESUME
001331:
001332: 10,2045           34770                           CAF      ONE                                   #  INITIALIZE OPTIND


001334: 10,2046           55323        OPT2               TS       OPTIND
001335: 10,2047           51323        GETOPCMD           INDEX    OPTIND
001336: 10,2050           31312                           CA       DESOPTT                               #  PICK UP DESIRED OPT ANGLE
001337: 10,2051           00006                           EXTEND
001338: 10,2052           51323                           INDEX    OPTIND
001339: 10,2053           20035                           MSU      CDUT                                  #  GET DIFFERENCE
001340: 10,2054           00006                           EXTEND
001341: 10,2055           74754                           MP       BIT13
001342: 10,2056           56001                           XCH      L
001343: 10,2057           60000                           DOUBLE
001344: 10,2060           54061                           TS       ITEMP1
001345: 10,2061           12063                           TCF      +2                                    #  NO OVFL
001346:
001347: 10,2062           26001                           ADS      L                                     #  WITH OVFL
001348: 10,2063           51323        STORCMD            INDEX    OPTIND
001349: 10,2064           23325                           LXCH     COMMANDO                              #  STORE COMMAND
001350: 10,2065           11323                           CCS      OPTIND
001351: 10,2066           12140                           TCF      TRUNCMD                               #  GET TRUN COMMAND
001352: 10,2067           54061                           TS       ITEMP1                                #  INITIALIZE SEND INDICATOR TO ZERO
001353: 10,2070                                           COUNT*   $$/SXT
001354:
001355:                                                                                                  #  SHAFT STOP AVOIDANCE
001356:
001357: 10,2070           10036                           CCS      CDUS                                  #  IF CDUS GREATER THAN + OR - 90 DEG CHECK
001358: 10,2071           64751                           AD       NEG1/2                                #  FOR POSSIBLE STOP PROBLEM
001359: 10,2072           12074                           TCF      +2
001360: 10,2073           12071                           TCF      -2
001361: 10,2074           00006                           EXTEND
001362: 10,2075           62124                           BZMF     CMDSETUP                              #  CDU LESS THAN 90 DEG, NO PROBLEMS
001363:
001364: 10,2076           31327                           CA       ZONE
001365: 10,2077           00006                           EXTEND
001366: 10,2100           12124                           BZF      CMDSETUP                              #  ZONE=3, NORMAL COMMAND
001367: 10,2101           74752                           MASK     BIT15                                 #  GRAB SIGN OF ZONE
001368: 10,2102           54001                           TS       L
001369: 10,2103           31326                           CA       COMMANDO   +1
001370: 10,2104           74752                           MASK     BIT15                                 #  GRAB SIGN OF SHAFT COMMAND
001371: 10,2105           00006                           EXTEND
001372: 10,2106           06001                           RXOR     LCHAN
001373: 10,2107           10000                           CCS      A
001374: 10,2110           12124                           TCF      CMDSETUP                              #  SIGN ZONE NOT EQUAL TO SIGN COMMAND
001375: 10,2111           11313                           CCS      DESOPTS                               #  SEE IF DESOPTS BETWEEN -90 AND +90
001376: 10,2112           64751                           AD       NEG1/2
001377: 10,2113           12115                           TCF      +2                                    #  ABS(DESOPTS) - 90 DEG
001378: 10,2114           12112                           TCF      -2
001379: 10,2115           00006                           EXTEND
001380: 10,2116           62120                           BZMF     +2                                    #  DESOPTS IN FIRST OR FOURTH QUAD
001381: 10,2117           12124                           TCF      CMDSETUP
001382: 10,2120           41326                           CS       COMMANDO   +1                         #  REVERSE REGULAR COMMAND
001383: 10,2121           55326                           TS       COMMANDO   +1


001385: 10,2122           34772                           CAF      ZERO                                  #  ZERO DESIRED SHAFT RATE
001386: 10,2123           54736                           TS       SRATE
001387: 10,2124                                           COUNT*   $$/T4RPT
001388:
001389: 10,2124           31354        CMDSETUP           CA       SWSAMPLE
001390: 10,2125           00006                           EXTEND
001391: 10,2126           12212                           BZF      RATEDRV2
001392: 10,2127           04077                           TC       NOOPRATE                              #  DISABLE   TVC DAP BIT
001393: 10,2130           34770                           CAF      ONE                                   #  SET OPTIND
001394: 10,2131           55323        CMDSET             TS       OPTIND
001395: 10,2132           50000                           INDEX    A
001396: 10,2133           11325                           CCS      COMMANDO                              #  GET SIGN OF COMMAND
001397: 10,2134           02153                           TC       POSOPCMD
001398: 10,2135           02160                           TC       NEXTOPT    +1                         #  ZERO COMMAND-SKIP SEND INDICATOR
001399: 10,2136           02170                           TC       NEGOPCMD
001400: 10,2137           02160                           TC       NEXTOPT    +1                         #  ZERO COMMAND
001401:
001402: 10,2140           55323        TRUNCMD            TS       OPTIND
001403: 10,2141           40035                           CS       CDUT                                  #  IF COMMAND GREATER THAN 45 DEG-COMMAND
001404: 10,2142           61312                           AD       DESOPTT                               #  45 DEG
001405: 10,2143           54002                           TS       Q
001406: 10,2144           02047                           TC       GETOPCMD                              #  LESS THAN 45 DEG-NORMAL OPERATION
001407:
001408: 10,2145           10000                           CCS      A                                     #  GREATER THAN 45 DEG-USE OPSMAX WITH
001409: 10,2146           34750                           CA       POSMAX                                #  CORRECT SIGN
001410: 10,2147           02151                           TC       +2
001411: 10,2150           44750                           CS       POSMAX
001412: 10,2151           54001                           TS       L
001413: 10,2152           02063                           TC       STORCMD
001414: 10,2153           62211        POSOPCMD           AD       MAXPLS1
001415: 10,2154           00006                           EXTEND
001416: 10,2155           62175                           BZMF     DELOPCMD                              #  COMMAND LESS THAN MAX PULSE
001417: 10,2156           42210                           CS       MAXPLS                                #  GREATER THAN MAX PULSE-USE MAX PULSE
001418:
001419: 10,2157           24061        NEXTOPT            INCR     ITEMP1                                #  SET SEND INDICATOR
001420: 10,2160           64771                 +1        AD       NEG0                                  #  MAKE SURE ZERO COMMAND IS -ZERO
001421: 10,2161           51323                           INDEX    OPTIND
001422: 10,2162           54053                           TS       CDUTCMD                               #  STORE PULSE IN SEND REG
001423:
001424: 10,2163           11323                           CCS      OPTIND
001425: 10,2164           02131                           TC       CMDSET                                #  GET NEXT OPT
001426: 10,2165           10061                           CCS      ITEMP1                                #  ARE ANY PULSES TO GO
001427: 10,2166           12200                           TCF      SENDOCMD                              #  YES-SEND EM
001428: 10,2167           05323                           TC       RESUME                                #  NO
001429:
001430: 10,2170           62211        NEGOPCMD           AD       MAXPLS1
001431: 10,2171           00006                           EXTEND
001432: 10,2172           62175                           BZMF     DELOPCMD                              #  LESS THAN MAX PULSE
001433: 10,2173           32210                           CA       MAXPLS                                #  MAX PULSES
001434: 10,2174           12157                           TCF      NEXTOPT


001436: 10,2175           51323        DELOPCMD           INDEX    OPTIND
001437: 10,2176           57325                           XCH      COMMANDO                              #  SET UP SMALL COMMAND
001438: 10,2177           12157                           TCF      NEXTOPT
001439:
001440: 10,2200           35050        SENDOCMD           CAF      11,12                                 #  SEND OCDU DRIVE COMMANDS
001441: 10,2201           00006                           EXTEND
001442: 10,2202           05014                           WOR      CHAN14
001443: 10,2203           05323                           TC       RESUME
001444:
001445: 10,2204           34767        SETBIT             CAF      BIT2                                  #  ENABLE OCDU ERR CNTS
001446: 10,2205           00006                           EXTEND
001447: 10,2206           05012                           WOR      CHAN12
001448: 10,2207           05323                           TC       RESUME                                #  START COARS NEXT TIME AROUND
001449:
001450: 10,2210           77654        MAXPLS             DEC      -83        B-14                       #  WAS -165
001451: 10,2211           77655        MAXPLS1            DEC      -82        B-14                       #  WAS -164
001452: 10,2212     5050               11,12              EQUALS   PRIO6
001453: 10,2212           40741        RATEDRV2           CS       SOLD
001454: 10,2213           60736                           AD       SRATE
001455: 10,2214           64771                           AD       NEG0
001456: 10,2215           54001                           TS       L
001457: 10,2216           40740                           CS       TOLD
001458: 10,2217           60735                           AD       TRATE
001459: 10,2220           64771                           AD       NEG0
001460: 10,2221           52054                           DXCH     CDUTCMD
001461: 10,2222           00006                           EXTEND
001462: 10,2223           30736                           DCA      TRATE
001463: 10,2224           52741                           DXCH     TOLD
001464: 10,2225           02200                           TC       SENDOCMD
001465: 10,2226           34761        TVCBCK             CAF      BIT8                                  #  IS TVC BIT ENABLED
001466: 10,2227           00006                           EXTEND
001467: 10,2230           02012                           RAND     CHAN12
001468: 10,2231           00006                           EXTEND
001469: 10,2232           12234                           BZF      +2
001470: 10,2233           02032                           TC       RATEDRV1
001471: 10,2234           34761                           CAF      BIT8                                  #  NO TURN IT ON
001472: 10,2235           00006                           EXTEND
001473: 10,2236           05012                           WOR      CHAN12
001474: 10,2237           05323                           TC       RESUME
001475:    4000                                           SETLOC   STOPRAT
001476:    4000                                           BANK
001477:    4077                                           COUNT*   $$/T4RPT
001478:    4077           44761        NOOPRATE           CS       BIT8
001479:    4100           00006                           EXTEND
001480:    4101           03012                           WAND     CHAN12
001481:    4102           00002                           TC       Q

End of include-file T4RUPT_PROGRAM.agc.  Parent file is MAIN.agc


