
Source Code


000002:                                                                                                  ## Copyright:   Public domain.
000003:                                                                                                  ## Filename:    ABSOLUTE_LOCATIONS_FOR_UPDATES.agc
000004:                                                                                                  ## Purpose:     Part of the source code for Artemis (i.e., Colossus 3),
000005:                                                                                                  ##              build 072.  This is for the Command Module's (CM)
000006:                                                                                                  ##              Apollo Guidance Computer (AGC), for
000007:                                                                                                  ##              Apollo 15-17.
000008:                                                                                                  ## Assembler:   yaYUL
000009:                                                                                                  ## Contact:     Onno Hommes <ohommes@alumni.cmu.edu>
000010:                                                                                                  ## Website:     www.ibiblio.org/apollo/index.html
000011:                                                                                                  ## Page Scans:  www.ibiblio.org/apollo/ScansForConversion/Artemis072/
000012:                                                                                                  ## Mod history: 2009-07-29 OH   Adapted from corresponding Comanche 055 file.
000013:                                                                                                  ##              2009-09-04 JL   Fixed typo: COHTAGS should be CDHTAGS.
000014:                                                                                                  ##              2009-09-04 JL   Added missing LATLONG1 declaration in bank 16. Fix typos. Remove P23S and SXTMARK1.
000015:                                                                                                  ##              2010-02-20 RSB  Un-##'d this header.
000016:                                                                                                  ##              2017-01-04 RSB  Proofed comment text using octopus/ProoferComments
000017:                                                                                                  ##                              and fixed errors found.
000018:


000020: ???????                        FIXED              MEMORY   120000     -          167777
000021: ???????                                           COUNT    BANKSUM
000022:
000023:                                                                                                  #  MODULE 1 CONTAINS BANKS 0 THROUGH 5
000024:
000025:    4000                                           BLOCK    02
000026:    4000                        FFTAG1             EQUALS
000027:    4000                        FFTAG2             EQUALS
000028:    4000                        FFTAG3             EQUALS
000029:    4000                        FFTAG4             EQUALS
000030:    4000                        FFTAG7             EQUALS
000031:    4000                        FFTAG8             EQUALS
000032:    4000                        EXECF2             EQUALS
000033:    4000                        WAITF2             EQUALS
000034:    4000                        FFTAG10            EQUALS
000035:    4000                        FFTAG12            EQUALS
000036:    4000                        P30SUBS            EQUALS
000037:    4000                        STOPRAT            EQUALS
000038:    4000                                           BNKSUM   02
000039:
000040:    6000                                           BLOCK    03
000041:    6000                        INTERF3            EQUALS
000042:    6000                        FFTAG6             EQUALS
000043:    6000                        FFTAG13            EQUALS
000044:    6000                                           BNKSUM   03
000045:
000046: 00,2000                                           BANK     00
000047: 00,2000                        DLAYJOB            EQUALS
000048: 00,2000                        INTERB0            EQUALS
000049: 00,2000                                           BNKSUM   00
000050:
000051: 01,2000                                           BANK     01
000052: 01,2000                        RESTART            EQUALS
000053: 01,2000                        R02                EQUALS
000054: 01,2000                                           BNKSUM   01
000055:
000056:
000057: 01,2000                        INTERB1            EQUALS
000058: 01,2000                        EXECB1             EQUALS
000059: 04,2000                                           BANK     4
000060: 04,2000                        VERB37             EQUALS
000061: 04,2000                        P50S4              EQUALS
000062: 04,2000                        CSI/CDH1           EQUALS
000063: 04,2000                        INTPRET2           EQUALS
000064:


000066: 04,2000                        MIDDGIM            EQUALS
000067: 04,2000                        P31TAG             EQUALS
000068: 04,2000                        C13BANK            EQUALS                                         #  C13STALL - CHANGE CODE IF THIS IS MOVED
000069: 04,2000                        P60S6              EQUALS
000070: 04,2000                                           BNKSUM   04
000071:
000072: 05,2000                                           BANK     5
000073: 05,2000                        FRANDRES           EQUALS
000074: 05,2000                        DOWNTELM           EQUALS
000075: 05,2000                        DAPMASS            EQUALS
000076: 05,2000                        CONICS4            EQUALS
000077: 05,2000                        CSITAG1            EQUALS
000078: 05,2000                        INTINIT3           EQUALS
000079: 05,2000                                           BNKSUM   05
000080:
000081:                                                                                                  #  MODULE 2 CONTAINS BANKS 6 THROUGH 13
000082:
000083: 06,2000                                           BANK     6
000084: 06,2000                        IMUCOMP            EQUALS
000085: 06,2000                        T4RUP              EQUALS
000086: 06,2000                        CSIPROG            EQUALS
000087: 06,2000                        P60S7              EQUALS
000088: 06,2000                                           BNKSUM   06
000089:
000090: 07,2000                                           BANK     7
000091: 07,2000                        SXTMARKE           EQUALS
000092: 07,2000                        MODESW             EQUALS
000093: 07,2000                        KEYRUPT            EQUALS
000094: 07,2000                        CSIPROG6           EQUALS
000095: 07,2000                        RATEBNK            EQUALS
000096: 07,2000                                           BNKSUM   07
000097:
000098: 10,2000                                           BANK     10
000099: 10,2000                        DISPLAYS           EQUALS
000100: 10,2000                        PHASETAB           EQUALS
000101: 10,2000                        COMGEOM2           EQUALS
000102: 10,2000                        P60S4              EQUALS
000103: 10,2000                        OPTDRV             EQUALS
000104: 10,2000                        CSIPROG8           EQUALS
000105: 10,2000                        KALCMON3           EQUALS
000106: 10,2000                        CONICS5            EQUALS
000107: 10,2000                                           BNKSUM   10
000108:
000109: 11,2000                                           BANK     11


000111: 11,2000                        ORBITAL            EQUALS
000112: 11,2000                        ORBITAL1           EQUALS                                         #  CONSTANTS
000113: 11,2000                        INTVEL             EQUALS
000114: 11,2000                        S52/2              EQUALS
000115: 11,2000                        CONICS3            EQUALS
000116: 11,2000                        INTINIT1           EQUALS
000117: 11,2000                                           BNKSUM   11
000118:
000119: 12,2000                                           BANK     12
000120: 12,2000                        CONICS             EQUALS
000121: 12,2000                        E/PROG             EQUALS
000122: 12,2000                        CSIPROG2           EQUALS
000123: 12,2000                        CSI/CDH2           EQUALS
000124: 12,2000                        N90TAG             EQUALS
000125: 12,2000                                           BNKSUM   12
000126:
000127: 13,2000                                           BANK     13
000128: 13,2000                        P76LOC             EQUALS
000129: 13,2000                        LATLONG            EQUALS
000130: 13,2000                        INTINIT            EQUALS
000131: 13,2000                        SR52/1             EQUALS
000132: 13,2000                        ORBITAL2           EQUALS
000133: 13,2000                        E/PROG1            EQUALS
000134: 13,2000                        P24PROG            EQUALS
000135: 13,2000                                           BNKSUM   13
000136:
000137:                                                                                                  #  SPACER
000138:
000139:                                                                                                  #           MODULE 3 CONTAINS BANKS 14 THROUGH 21
000140:
000141: 14,2000                                           BANK     14
000142: 14,2000                        P50S               EQUALS
000143: 14,2000                        RT53               EQUALS
000144: 14,2000                        P50S1              EQUALS
000145: 14,2000                                           BNKSUM   14
000146:
000147: 15,2000                                           BANK     15
000148: 15,2000                        STARTAB            EQUALS
000149: 15,2000                        ETRYDAP            EQUALS
000150: 15,2000                        CDHTAGS            EQUALS
000151: 15,2000                        CONICS1            EQUALS
000152: 15,2000                                           BNKSUM   15
000153:


000155: 16,2000                                           BANK     16
000156: 16,2000                        P40S1              EQUALS
000157: 16,2000                        DAPROLL            EQUALS
000158: 16,2000                        P50S2              EQUALS
000159: 16,2000                        INTVEL1            EQUALS
000160: 16,2000                        RTE2               EQUALS
000161: 16,2000                        CSIPROG5           EQUALS
000162: 16,2000                        LATLONG1           EQUALS
000163: 16,2000                                           BNKSUM   16
000164:
000165: 17,2000                                           BANK     17
000166: 17,2000                        EXTVRBS1           EQUALS
000167: 17,2000                        DAPS4              EQUALS
000168: 17,2000                        DAPS5              EQUALS
000169: 17,2000                        DAPS7              EQUALS
000170: 17,2000                        P50S3              EQUALS
000171: 17,2000                        CONICS2            EQUALS
000172: 17,2000                                           BNKSUM   17
000173:
000174: 20,2000                                           BANK     20
000175: 20,2000                        DAPS6              EQUALS
000176: 20,2000                        DAPS1              EQUALS
000177: 20,2000                        DAPS2              EQUALS
000178: 20,2000                        MANUSTUF           EQUALS
000179: 20,2000                        VAC5LOC            EQUALS
000180: 20,2000                        P15LOC             EQUALS
000181: 20,2000                        P29TAG2            EQUALS
000182: 20,2000                                           BNKSUM   20
000183:
000184: 21,2000                                           BANK     21
000185: 21,2000                        DAPS3              EQUALS
000186: 21,2000                        MYSUBS             EQUALS
000187: 21,2000                        P11THREE           EQUALS
000188: 21,2000                                           BNKSUM   21
000189:
000190:                                                                                                  #  MODULE 4 CONTAINS BANKS 22 THROUGH 27
000191:
000192: 22,2000                                           BANK     22
000193: 22,2000                        RTBCODES           EQUALS
000194: 22,2000                        DAPS8              EQUALS
000195: 22,2000                        APOPERI            EQUALS
000196: 22,2000                        KALCMON2           EQUALS
000197: 22,2000                        KALCMON1           EQUALS


000199: 22,2000                        CSIPROG3           EQUALS
000200: 22,2000                        P36TAG             EQUALS
000201: 22,2000                                           BNKSUM   22
000202:
000203: 23,2000                                           BANK     23
000204: 23,2000                        P20S2              EQUALS
000205: 23,2000                        INFLIGHT           EQUALS
000206: 23,2000                        COMGEOM1           EQUALS
000207: 23,2000                        POWFLITE           EQUALS
000208: 23,2000                        POWFLIT1           EQUALS
000209: 23,2000                        POWFLIT2           EQUALS
000210: 23,2000                        R30LOC             EQUALS
000211: 23,2000                        CSIPROG4           EQUALS
000212: 23,2000                                           BNKSUM   23
000213:
000214: 24,2000                                           BANK     24
000215: 24,2000                        RTBCODE1           EQUALS
000216: 24,2000                        P40S               EQUALS
000217: 24,2000                        CSIPROG7           EQUALS
000218: 24,2000                        R36CM              EQUALS
000219: 24,2000                        P20S5              EQUALS
000220: 24,2000                                           BNKSUM   24
000221:
000222: 25,2000                                           BANK     25
000223: 25,2000                        REENTRY            EQUALS
000224: 25,2000                                           BNKSUM   25
000225:
000226: 26,2000                                           BANK     26
000227: 26,2000                        INTPRET1           EQUALS
000228: 26,2000                        REENTRY1           EQUALS
000229: 26,2000                        P60S               EQUALS
000230: 26,2000                        P60S1              EQUALS
000231: 26,2000                        P60S2              EQUALS
000232: 26,2000                        P60S3              EQUALS
000233: 26,2000                        PLANTIN            EQUALS                                         #  LUNAR ROT
000234: 26,2000                        EPHEM              EQUALS
000235: 26,2000                        P05P06             EQUALS
000236: 26,2000                        26P50S             EQUALS
000237: 26,2000                        P30S1A             EQUALS
000238: 26,2000                        P11FOUR            EQUALS
000239: 26,2000                                           BNKSUM   26
000240:


000242: 27,2000                                           BANK     27
000243: 27,2000                        TOF-FF             EQUALS
000244: 27,2000                        MANUVER            EQUALS
000245: 27,2000                        MANUVER1           EQUALS
000246: 27,2000                        P40S5              EQUALS
000247: 27,2000                        VECPT              EQUALS
000248: 27,2000                        MGIM               EQUALS
000249: 27,2000                        UPDATE2            EQUALS
000250: 27,2000                        R22S1              EQUALS
000251: 27,2000                        P60S5              EQUALS
000252: 27,2000                        CDHTAG             EQUALS
000253: 27,2000                        JANESUB            EQUALS
000254: 27,2000                                           BNKSUM   27
000255:
000256:                                                                                                  #  MODULE 5 CONTAINS BANKS 30 THROUGH 35
000257:
000258: 30,2000                                           BANK     30
000259: 30,2000                        LOWSUPER           EQUALS
000260: 30,2000                        P20S1              EQUALS
000261: 30,2000                        P20S6              EQUALS
000262: 30,2000                        P40S3              EQUALS
000263: 30,2000                        P29TAG1            EQUALS
000264: 30,2000                                           BNKSUM   30
000265:
000266: 31,2000                                           BANK     31
000267: 31,2000                        RT23               EQUALS
000268: 31,2000                        R34                EQUALS
000269: 31,2000                        CDHTAG2            EQUALS
000270: 31,2000                        CSIPROG9           EQUALS
000271: 31,2000                        R31                EQUALS
000272: 31,2000                        P22S               EQUALS
000273: 31,2000                        RTE3               EQUALS
000274: 31,2000                        MEASINC3           EQUALS
000275: 31,2000                        V89TAG             EQUALS
000276: 31,2000                                           BNKSUM   31
000277:
000278: 32,2000                                           BANK     32
000279: 32,2000                        P20S9              EQUALS
000280: 32,2000                        RTE                EQUALS
000281: 32,2000                        DELRSPL1           EQUALS
000282: 32,2000                        IMUCAL3            EQUALS
000283: 32,2000                                           BNKSUM   32
000284:


000286: 33,2000                                           BANK     33
000287: 33,2000                        TESTLEAD           EQUALS
000288: 33,2000                        IMUCAL             EQUALS
000289: 33,2000                        P11TWO             EQUALS
000290: 33,2000                        P15LOC1            EQUALS
000291: 33,2000                                           BNKSUM   33
000292:
000293: 34,2000                                           BANK     34
000294: 34,2000                        P11ONE             EQUALS
000295: 34,2000                        P20S3              EQUALS
000296: 34,2000                        P20S4              EQUALS
000297: 34,2000                        TOF-FF1            EQUALS
000298: 34,2000                                           BNKSUM   34
000299:
000300: 35,2000                                           BANK     35
000301: 35,2000                        RTECON1            EQUALS
000302: 35,2000                        CSI/CDH            EQUALS
000303: 35,2000                        P30S1              EQUALS
000304: 35,2000                        P20S8              EQUALS
000305: 35,2000                        INTINIT2           EQUALS
000306: 35,2000                                           BNKSUM   35
000307:
000308:                                                                                                  #  MODULE 6 CONTAINS BANKS 36 THROUGH 43
000309:
000310: 36,2000                                           BANK     36
000311: 36,2000                        MEASINC            EQUALS
000312: 36,2000                        MEASINC1           EQUALS
000313: 36,2000                        P15LOC2            EQUALS
000314: 36,2000                        P20S7              EQUALS
000315: 36,2000                        RTE1               EQUALS
000316: 36,2000                        S3435LOC           EQUALS
000317: 36,2000                                           BNKSUM   36
000318:
000319: 37,2000                                           BANK     37
000320: 37,2000                        P20S               EQUALS
000321: 37,2000                        BODYATT            EQUALS
000322: 37,2000                        RENDEZ             EQUALS
000323: 37,2000                        SERVICES           EQUALS
000324: 37,2000                        CDHTAG3            EQUALS
000325: 37,2000                                           BNKSUM   37
000326:


000328: 40,2000                                           BANK     40
000329: 40,2000                        PINSUPER           EQUALS
000330: 40,2000                        PINBALL1           EQUALS
000331: 40,2000                                           BNKSUM   40
000332:
000333: 41,2000                                           BANK     41
000334: 41,2000                        PINBALL2           EQUALS
000335: 41,2000                                           BNKSUM   41
000336:
000337: 42,2000                                           BANK     42
000338: 42,2000                        SBAND              EQUALS
000339: 42,2000                        PINBALL3           EQUALS
000340: 42,2000                        EXTVBS             EQUALS
000341: 42,2000                        UPDATE3            EQUALS
000342: 42,2000                                           BNKSUM   42
000343:
000344: 43,2000                                           BANK     43
000345: 43,2000                        SELFCHEC           EQUALS
000346: 43,2000                        EXTVERBS           EQUALS
000347: 43,2000                                           BNKSUM   43
000348:
000349: 43,2000  26,3335               HI6ZEROS           EQUALS   ZEROVECS                              #  ZERO VECTOR ALWAYS IN HIGH MEMORY
000350: 43,2000  04,3761               LO6ZEROS           EQUALS   ZEROVEC                               #  ZERO VECTOR ALWAYS IN LOW MEMORY
000351: 43,2000  26,3333               HIDPHALF           EQUALS   UNITX
000352: 43,2000  04,3757               LODPHALF           EQUALS   XUNIT
000353: 43,2000  26,3325               HIDP1/4            EQUALS   DP1/4TH
000354: 43,2000  15,3411               LODP1/4            EQUALS   D1/4                                  #  2DEC .25
000355: 43,2000  26,3333               HIUNITX            EQUALS   UNITX
000356: 43,2000  26,3331               HIUNITY            EQUALS   UNITY
000357: 43,2000  26,3327               HIUNITZ            EQUALS   UNITZ
000358: 43,2000  04,3757               LOUNITX            EQUALS   XUNIT                                 #  2DEC .5
000359: 43,2000  04,3755               LOUNITY            EQUALS   YUNIT                                 #  2DEC 0
000360: 43,2000  04,3753               LOUNITZ            EQUALS   ZUNIT                                 #  2DEC 0
000361: 43,2000  11,3760               3/4LOWDP           EQUALS   3/4                                   #  2DEC 3.0 B-2
000362: 43,2000  30,2000                                  SBANK=   LOWSUPER
000363:
000364:                                                                                                  #  ROPE SPECIFIC ASSIGNS OBVIATING NEED TO CHECK COMPUTER FLAG IN DETVRUZVING INTEGRATION AREA ENTRIES
000365: 43,2000  13,3161               OTHPREC            EQUALS   LEMPREC
000366: 43,2000  13,3034               ATOPOTH            EQUALS   ATOPLEM
000367: 43,2000  13,2761               ATOPTHIS           EQUALS   ATOPCSM
000368: 43,2000  0000173               MOONTHIS           EQUALS   CMOONFLG
000369:


000371:
000372: 43,2000  0000174               MOONOTH            EQUALS   LMOONFLG
000373: 43,2000  13,2774               MOVATHIS           EQUALS   MOVEACSM
000374: 43,2000  31,2031               STATEST            EQUALS   V83CALL                               #  * TEMPORARY
000375: 43,2000  13,3145               THISPREC           EQUALS   CSMPREC
000376: 43,2000  26,3333               THISAXIS           =        UNITX
000377: 43,2000     5041               ERASID             EQUALS   LOW10                                 #  DOWNLINK ERASABLE DUMP ID
000378: 43,2000     6214               DELAYNUM           EQUALS   THREE
000379:
000380:                                                                                                  #  ****************************************************************************************************************

End of include-file TAGS_FOR_RELATIVE_SETLOC_AND_BLANK_BANK_CARDS.agc.  Parent file is MAIN.agc


