
Source Code


000002:                                                                                                  ## Copyright:   Public domain.
000003:                                                                                                  ## Filename:    TIME_OF_FREE_FALL.agc
000004:                                                                                                  ## Purpose:     Part of the source code for Artemis (i.e., Colossus 3),
000005:                                                                                                  ##              build 072.  This is for the Command Module's (CM)
000006:                                                                                                  ##              Apollo Guidance Computer (AGC), for
000007:                                                                                                  ##              Apollo 15-17.
000008:                                                                                                  ## Assembler:   yaYUL
000009:                                                                                                  ## Contact:     Jim Lawton <jim DOT lawton AT gmail DOT com>
000010:                                                                                                  ## Website:     www.ibiblio.org/apollo/index.html
000011:                                                                                                  ## Page Scans:  www.ibiblio.org/apollo/ScansForConversion/Artemis072/
000012:                                                                                                  ## Mod history: 2009-08-20 JL   Adapted from corresponding Comanche 055 file.
000013:                                                                                                  ##              2009-08-21 JL   Added a note about a problem with the page scan on p.1386.
000014:                                                                                                  ##              2010-02-20 RSB  Un-##'d this header.
000015:                                                                                                  ##              2017-02-08 RSB  Proofed comment text by diff'ing vs Comanche 55
000016:                                                                                                  ##                              and/or octopus/ProoferComments as most-appropriate.
000017:


000019:
000020:                                                                                                  #  THE TFF SUBROUTINES MAY BE USED IN EITHER EARTH OR MOON CENTERED COORDINATES. THE TFF ROUTINES NEVER
000021:                                                                                                  #  KNOW WHICH ORIGIN APPLIES. IT IS THE USER WHO KNOWS, AND WHO SUPPLIES  RONE, VONE AND 1/SQRT(MU)  AT THE
000022:                                                                                                  #  APPROPRIATE SCALE LEVEL FOR THE PROPER PRIMARY BODY.
000023:
000024:                                                                                                  #        EARTH ORIGIN    POSITION        -29     METERS
000025:                                                                                                  #                        VELOCITY        -7      METERS/CENTISECOND
000026:                                                                                                  #                        1/SQRT(MU)      +17     SQRT(CS SQ/METERS CUBED)
000027:
000028:                                                                                                  #        MOON ORIGIN     POSITION        -27     METERS
000029:                                                                                                  #                        VELOCITY        -5      METERS/CENTISECONDS
000030:                                                                                                  #                        1/SQRT(MU)      +14     SQRT(CS SQ/METERS CUBED)
000031:
000032:                                                                                                  #  ALL DATA PROVIDED TO AND RECEIVED FROM ANY TFF SUBROUTINE WILL BE AT ONE OF THE LEVELS ABOVE. IN ALL CASES,
000033:                                                                                                  #  THE FREE FALL TIME IS RETURNED IN CENTISECONDS AT (-28). PROGRAM TFF/CONIC WILL GENERATE VONE/RTMU AND
000034:                                                                                                  #  LEAVE IT IN VONE' AT (+10) IF EARTH ORIGIN AND (+9) IF MOON ORIGIN.
000035:
000036:                                                                                                  #  THE USER MUST STORE THE STATE VECTOR IN  RONE, VONE  AND MU  IN THE FORM 1/SQRT(MU) IN TFF/RTMU
000037:                                                                                                  #  AT THE PROPER SCALE BEFORE CALLING TFF/CONIC. SINCE  RONE, VONE  ARE IN THE EXTENDED VERB STORAGE AREA,
000038:                                                                                                  #  THE USER MUST ALSO LOCK OUT THE EXTENDED VERBS, AND RELEASE THEM WHEN FINISHED.
000039:
000040:                                                                                                  #  PROGRAMS CALC/TFF AND CALC/TPER ASSUME THAT THE TERMINAL RADIUS IS LESS THAN THE PRESENT
000041:                                                                                                  #  RADIUS. THIS RESTRICTION CAN BE REMOVED BY A 15 W CODING CHANGE, BUT AT PRESENT IT IS NOT DEEMED NECESSARY.
000042:
000043:                                                                                                  #  THE FOLLOWING ERASABLE QUANTITIES ARE USED BY THE TFF ROUTINES, AND ARE LOCATED IN THE PUSH LIST.
000044:
000045:                                                                                                  #                                        BELOW   E:  IS USED FOR EARTH ORIGIN SCALE
000046:                                                                                                  #                                                M:  IS USED FOR MOON  ORIGIN SCALE
000047:
000048:                                                                                                  # TFFSW          =       119D    BIT1    0 = CALCTFF             1 = CALCTPER
000049: 23,3773                        TFFDELQ            =        10D                                   #        Q2-Q1                   E: (-16)  M: (-15)
000050: 23,3773                        RMAG1              =        12D                                   #        ABVAL(RN)  M            E: (-29)  M: (-27)
000051:                                                                                                  # RPER           =       14D             PERIGEE RADIUS  M       E: (-29)  M: (-27)
000052: 23,3773                        TFFQ1              =        14D                                   #        R.V / SQRT(MUE)         E: (-16)  M: (-15)
000053:                                                                                                  # SDELF/2                                SIN(THETA) /2
000054: 23,3773                        CDELF/2            =        14D                                   #        COS(THETA) /2
000055:                                                                                                  # RAPO           =       16D             APOGEE RADIUS  M        E: (-29)  M: (-27)
000056: 23,3773                        NRTERM             =        16D                                   #        TERMINAL RADIUS M       E: (-29+NR)
000057:                                                                                                  #                                M: (-27+NR)
000058: 23,3773                        RTERM              =        18D                                   #        TERMINAL RADIUS  M      E: (-29)  M: (-27)
000059: 23,3773                        TFFVSQ             =        20D                                   #        -(V SQUARED/MU)  1/M    E: (20)   M: (18)
000060: 23,3773                        TFF1/ALF           =        22D                                   #        SEMI MAJ AXIS  M        E: (-22-2 NA)
000061:                                                                                                  #                                M: (-20-2 NA)
000062: 23,3773                        TFFRTALF           =        24D                                   #        SQRT(ALFA)              E: (10+NA) M: (9+NA)
000063: 23,3773                        TFFALFA            =        26D                                   #        ALFA  1/M               E: (26-NR) M: (24-NR)
000064: 23,3773                        TFFNP              =        28D                                   #        SEMI LATUS RECTUM  M    E: (-38+2 NR)
000065:                                                                                                  #                                M: (-36+2 NR)
000066: 23,3773                        TFF/RTMU           =        30D                                   #        1/SQRT(MU)              E: (17)   M: (14)
000067: 23,3773                        NRMAG              =        32D                                   #        PRESENT RADIUS  M       E: (-29+NR)
000068:                                                                                                  #                                M: (-27+NR)
000069: 23,3773                        TFFX               =        34D
000070: 23,3773                        TFFTEM             =        36D                                   #        TEMPORARY
000071:


000073:                                                                                                  #                REGISTERS S1, S2 ARE UNTOUCHED BY ANY TFF SUBROUTINE
000074:                                                                                                  #                INDEX REGISTERS X1, X2 ARE USED BY ALL TFF SUBROUTINES. THEY ARE ESTAB-
000075:                                                                                                  #                LISHED IN TFF/CONIC AND MUST BE PRESERVED BETWEEN CALLS TO SUBSEQUENT
000076:                                                                                                  #                SUBROUTINES.
000077:                                                                                                  #                -NR                             C(X1) = NORM COUNT OF RMAG
000078:                                                                                                  #                -NA                             C(X2) = NORM COUNT OF SQRT(ABS(ALFA))
000079:


000081:
000082:                                                                                                  #  SUBROUTINE NAME:      TFFCONIC                                        DATE:  01.29.67
000083:                                                                                                  #  MOD NO:  0                                                            LOG SECTION:  TIME OF FREE FALL
000084:                                                                                                  #  MOD BY:  RR BAIRNSFATHER
000085:                                                                                                  #  MOD NO:  1    MOD BY:  RR BAIRNSFATHER        DATE: 11 APR 67
000086:                                                                                                  #  MOD NO:  2    MOD BY:  RR BAIRNSFATHER        DATE: 21 NOV 67         ADD MOON MU.
000087:                                                                                                  #  MOD NO:  3    MOD BY:  RR BAIRNSFATHER        DATE: 21 MAR 68         ACCEPT DIFFERENT EARTH/MOON SCALES
000088:
000089:                                                                                                  #  FUNCTIONAL DESCRIPTION:       THIS SUBROUTINE IS CALLED TO COMPUTE THOSE CONIC PARAMETERS REQUIRED BY THE TFF
000090:                                                                                                  #        SUBROUTINES AND TO ESTABLISH THEM IN THE PUSH LIST AREA. THE PARAMETERS ARE LISTED UNDER OUTPUT.
000091:                                                                                                  #        THE EQUATIONS ARE
000092:                                                                                                  #                -   -  -
000093:                                                                                                  #                H = RN*VN                       ANGULAR MOMENTUM
000094:                                                                                                  #                      - -
000095:                                                                                                  #                LCP = H.H / MU                  SEMI LATUS RECTUM
000096:                                                                                                  #                              -  -
000097:                                                                                                  #                ALFA = 2/RN - VN.VN / MU        RECIPROCAL SEMI MAJ AXIS, SIGNED
000098:
000099:                                                                                                  #        AND ALFA IS POS FOR ELLIPTIC ORBITS
000100:                                                                                                  #                     0  FOR PARABOLIC ORBITS
000101:                                                                                                  #                    NEG FOR HYPERBOLIC ORBITS.
000102:                                                                                                  #        SUBROUTINE ALSO COMPUTES AND SAVES RMAG.
000103:
000104:                                                                                                  #  CALLING SEQUENCE:
000105:                                                                                                  #        TFFCONIC  EXPECTS CALLER TO ENTER WITH CORRECT GRAVITATIONAL CONSTANT IN MPAC, IN THE FORM
000106:                                                                                                  #        1/SQRT(MU). PROGRAM WILL SAVE IN  TFF/RTMU  . THE SCALE IS DETERMINED BY WHETHER EARTH OR MOON
000107:                                                                                                  #        ORIGIN IS USED. THE CALLER MUST LOCK OUT THE EXTENDED VERBS BEFORE PROVIDING STATE VECTOR IN RONE,
000108:                                                                                                  #        VONE  AT PROPER SCALE. THE EXTENDED VERBS MUST BE RESTORED WHEN THE CALLER IS FINISHED USING THE
000109:                                                                                                  #        TFF ROUTINES.
000110:
000111:                                                                                                  #        ENTRY POINT  TFFCONMU  EXPECTS THAT  TFF/RTMU  IS ALREADY LOADED.
000112:
000113:                                                                                                  #        TO SPECIFY MU:  DLOAD   CALL                    IF MU ALREADY STORED:   CALL
000114:                                                                                                  #                                YOURMU          1/RTMU  E: (17)  M: (14)                TFFCONMU
000115:                                                                                                  #                                TFFCONIC
000116:
000117:                                                                                                  #        PUSHLOC = PDL+0, ARBITRARY IF LEQ 18D
000118:
000119:                                                                                                  #  SUBROUTINES CALLED:  NONE
000120:
000121:                                                                                                  #  NORMAL EXIT MODES:  RVQ
000122:
000123:                                                                                                  #  ALARMS:  NONE
000124:
000125:                                                                                                  #  OUTPUT:       THE FOLLOWING ARE STORED IN THE PUSH LIST AREA.
000126:                                                                                                  #                RMAG1           E:(-29) M:(-27) M  RN, PRESENT RADIUS LENGTH.
000127:                                                                                                  #                NRMAG           E: (-29+NR)     M  RMAG, NORMALIZED
000128:                                                                                                  #                                M: (-27+NR)
000129:                                                                                                  #                X1                              -NR, NORM COUNT
000130:                                                                                                  #                TFFNP           E: (-38+2NR)    M  LCP, SEMI LATUS RECTUM, WEIGHTED BY NR.      FOR VGAMCALC
000131:                                                                                                  #                                M: (-36+2NR)
000132:                                                                                                  #                TFF/RTMU        E:(17)  M:(14)  1/SQRT(MU)
000133:                                                                                                  #                TFFVSQ          E:(20)  M:(18)  1/M  -(V SQ/MU):  PRESENT VELOCITY, NORMLIZED.  FOR VGAMCALC
000134:                                                                                                  #                TFFALFA         E: (26-NR)      1/M  ALFA, WEIGHTED BY NR
000135:                                                                                                  #                                M: (24-NR)
000136:                                                                                                  #                TFFRTALF        E: (10+NA)      SQRT(ALFA), NORMALIZED
000137:                                                                                                  #                                M: (9+NA)


000139:                                                                                                  #                X2                              -NA, NORM COUNT
000140:                                                                                                  #                TFF1/ALF        E: (-22-2NA)    SIGNED SEMI MAJ AXIS, WEIGHTED BY NA
000141:                                                                                                  #                                M: (-20-2NA)
000142:                                                                                                  #                PUSHLOC AT PDL+0
000143:                                                                                                  #                THE FOLLOWING IS STORED IN GENERAL ERASABLE
000144:                                                                                                  #                VONE'           E:(10)  M:(9)   V/RT(MU), NORMALIZED VELOCITY
000145:
000146:                                                                                                  #  ERASABLE INITIALIZATION REQUIRED:
000147:                                                                                                  #                RONE            E:(-29) M:(-27) M       STATE VECTOR    LEFT BY CALLER
000148:                                                                                                  #                VONE            E:(-7)  M:(-5)  M/CS    STATE VECTOR    LEFT BY CALLER
000149:                                                                                                  #                TFF/RTMU        E:(17)  M:(14)  1/RT(CS SQ/M CUBE)      IF ENTER VIA  TFFCONMU.
000150:
000151:                                                                                                  #  DEBRIS:       QPRET,          PDL+0 ... PDL+3
000152:
000153: 27,2000                                           SETLOC   TOF-FF
000154: 27,2000                                           BANK
000155:
000156: 27,3151                                           COUNT*   $$/TFF
000157:
000158: 27,3151           00037        TFFCONIC           STORE    TFF/RTMU                              #  1/SQRT(MU)            E: (17)  M: (14)
000159:
000160: 27,3152           53575        TFFCONMU           VLOAD    UNIT                                  #  COME HERE WITH TFFRTMU LOADED.
000161: 27,3153           02320                                    RONE                                  #  SAVED RN.  M          E: (-29)  M: (-27)
000162: 27,3154           77725                           PDDL                                           #  UR/2 TO PDL+0, +5
000163: 27,3155           00045                                    36D                                   #  MAGNITUDE
000164: 27,3156           00015                           STORE    RMAG1                                 #  M     E: (-29)  M: (-27)
000165:
000166: 27,3157           77701                           NORM
000167: 27,3160           00047                                    X1                                    #  -NR
000168: 27,3161           24041                           STOVL    NRMAG                                 #  RMAG  M       E: (-29+NR)  M: (-27+NR)
000169: 27,3162           02326                                    VONE                                  #  SAVED VN.  M/CS       E: (-7)  M: (-5)
000170: 27,3163           77761                           VXSC
000171: 27,3164           00037                                    TFF/RTMU                              #  E: (17)  M: (14)
000172: 27,3165           02362                           STORE    VONE'                                 #  VN/SQRT(MU)  E:(10)  M:(9)
000173:
000174: 27,3166           47361                           VXSC     VXV
000175: 27,3167           00041                                    NRMAG                                 #  E: (-29+NR)  M: (-27+NR)
000176:                                                                                                  #  UR/2 FROM PDL
000177: 27,3170           47572                           VSL1     VSQ                                   #  BEFORE:  E:(-19+NR)  M:(-18+NR)
000178: 27,3171           14035                           STODL    TFFNP                                 #  LC P  M  E:(-38+2NR)  M:(-36+2NR)
000179:                                                                                                  #  SAVE ALSO FOR VGAMCALC
000180: 27,3172           15326                                    TFF1/4
000181: 27,3173           63271                           DDV      PDVL                                  #  (2/RMAG)  1/M  E:(26-NR)  M:(24-NR)
000182: 27,3174           00041                                    NRMAG                                 #  RMAG  M   E:(-29+NR)  M:(-27+NR)
000183: 27,3175           02362                                    VONE'                                 #  SAVED VN.   E: (10)   M: (9)
000184: 27,3176           57436                           VSQ      DCOMP                                 #  KEEP MPAC+2 HONEST FOR SQRT.
000185: 27,3177           00025                           STORE    TFFVSQ                                #  -(V SQ/MU)  E:(20)  M:(18)
000186:                                                                                                  #  SAVE FOR VGAMCALC
000187: 27,3200           43257                           SR*      DAD
000188: 27,3201           20573                                    0          -6,1                       #  GET -VSQ/MU  E:(26-NR)  M:(24-NR)


000190: 27,3202           77626                           STADR
000191:                                                                                                  #  2/RMAG  FROM PDL+2
000192: 27,3203           77744                           STORE    TFFALFA                               #  ALFA  1/M  E:(26-NR)  M:(24-NR)
000193: 27,3204           41457                           SL*      PUSH                                  #  TEMP SAVE ALFA  E:(20)  M:(18)
000194: 27,3205           20173                                    0          -6,1
000195: 27,3206           75446                           ABS      SQRT                                  #  E:(10)  M:(9)
000196: 27,3207           77701                           NORM
000197: 27,3210           00050                                    X2                                    #  X2 = -NA
000198: 27,3211           00031                           STORE    TFFRTALF                              #  SQRT( ABS(ALFA) )  E:(10+NA)  M:(9+NA)
000199: 27,3212           75316                           DSQ      SIGN                                  #  NOT SO ACCURATE, BUT OK
000200:                                                                                                  #  ALFA FROM PDL+2  E:(20)  M:(18)
000201: 27,3213           55254                           BZE      BDDV                                  #  SET 1/ALFA =0, TO SHOW SMALL ALFA
000202: 27,3214           57216                                    +2
000203: 27,3215           15326                                    TFF1/4
000204: 27,3216           00027                 +2        STORE    TFF1/ALF                              #  1/ALFA  E:(-22-2 NA)  M:(-20-2 NA)
000205: 27,3217           77616        DUMPCNIC           RVQ
000206:
000207:                                                                                                  #                        39 W
000208:


000210:
000211:                                                                                                  #  SUBROUTINE NAME:      TFFRP/RA                                        DATE: 01.17.67
000212:                                                                                                  #  MOD NO:  0                                                            LOG SECTION:  TIME OF FREE FALL
000213:                                                                                                  #  MOD BY:  RR BAIRNSFATHER
000214:                                                                                                  #  MOD NO:  1    MOD BY:  RR BAIRNSFATHER        DATE: 11 APR 67
000215:                                                                                                  #  MOD NO:  2    MOD BY:  RR BAIRNSFATHER        DATE: 21 MAR 68         ACCEPT DIFFERENT EARTH/MOON SCALES
000216:                                                                                                  #                                                                        ALSO IMPROVE ACCURACY OF RAPO.
000217:
000218:                                                                                                  #  FUNCTIONAL DESCRIPTION:       USED BY CALCTPER AND TFF DISPLAYS TO CALCULATE PERIGEE RADIUS AND ALSO
000219:                                                                                                  #        APOGEE RADIUS FOR A GENERAL CONIC.
000220:                                                                                                  #        PROGRAM GIVES PERIGEE RADIUS AS         APOGEE RADIUS IS GIVEN BY
000221:                                                                                                  #                RP = P /(1+E)                           RA = (1+E) / ALFA
000222:                                                                                                  #        WHERE    2
000223:                                                                                                  #                E  = 1 - P ALFA
000224:                                                                                                  #        IF RA IS NEGATIVE OR SHOWS DIVIDE OVERFLOW, THEN RA = POSMAX BECAUSE
000225:                                                                                                  #                1. APOGEE RADIUS IS NOT MEANINGFUL FOR HYPERBOLA
000226:                                                                                                  #                2. APOGEE RADIUS IS NOT DEFINED FOR PARABOLA
000227:                                                                                                  #                3. APOGEE RADIUS EXCEEDS THE SCALING FOR ELLIPSE.
000228:
000229:                                                                                                  #        THIS SUBROUTINE REQUIRES THE SIGNED RECIPROCAL SEMI MAJ AXIS, ALFA, AND SEMI LATUS RECTUM AS DATA.
000230:
000231:                                                                                                  #  CALLING SEQUENCE:     CALL
000232:                                                                                                  #                                TFFRP/RA
000233:
000234:                                                                                                  #        PUSHLOC = PDL+0, ARBITRARY IF LEQ 10D
000235:                                                                                                  #        C(MPAC) UNSPECIFIED
000236:
000237:                                                                                                  #  SUBROUTINES CALLED:   NONE
000238:
000239:                                                                                                  #  NORMAL EXIT MODE:     RVQ
000240:                                                                                                  #        IF ELLIPSE, WITHIN NORMAL SCALING, RAPO IS CORRECT.
000241:                                                                                                  #        OTHERWISE, RAPO = POSMAX.
000242:
000243:                                                                                                  #  ALARMS:       NONE
000244:
000245:                                                                                                  #  OUTPUT:       STORED IN PUSH LIST AREA. SCALE OF OUTPUT AGREES WITH DATA SUPPLIED TO  TFF/CONIC.
000246:                                                                                                  #        RPER    E:(-29)  M:(-27)        M       PERIGEE RADIUS                  DESTROYED BY CALCTFF/CALCTPER, TFFTRIG.
000247:                                                                                                  #        RAPO    E:(-29)  M:(-27)        M       APOGEE RADIUS                   WILL BE DESTROYED BY CALCTFF/CALCTPER
000248:                                                                                                  #        PUSHLOC AT PDL+0
000249:
000250:                                                                                                  #  ERASABLE INITIALIZATION REQUIRED:
000251:                                                                                                  #        TFFALFA E:(26-NR)               M       1/SEMI MAJ AXIS                 LEFT BY TFFCONIC
000252:                                                                                                  #                M:(24-NR)
000253:                                                                                                  #        TFFNP   E:(-38+2NR)             M       LC P, SEMI LATUS RECTUM         LEFT BY TFFCONIC
000254:                                                                                                  #                M:(-36+2NR)
000255:                                                                                                  #        X1                              -NR, NORM COUNT OF RMAG                 LEFT BY TFFCONIC
000256:                                                                                                  #        X2                              -NA, NORM COUNT OF ALFA                 LEFT BY TFFCONIC
000257:
000258:                                                                                                  #  DEBRIS:       QPRET, PDL+0 ... PDL+1
000259:


000261: 27,3220                        RAPO               =        16D                                   #  APOGEE RADIUS  M  E:(-29)  M:(-27)
000262: 27,3220                        RPER               =        14D                                   #  PERIGEE RADIUS  M  E:(-29)  M:(-27)
000263:
000264: 27,3220           41345        TFFRP/RA           DLOAD    DMP
000265: 27,3221           00033                                    TFFALFA                               #  ALFA  1/M     E:(26-NR)  M:(24-NR)
000266: 27,3222           00035                                    TFFNP                                 #  LC P  M       E:(-38+2NR)  M:(-36+2NR)
000267: 27,3223           57457                           SR*      DCOMP                                 #  ALFA P (-12+NR)
000268: 27,3224           20571                                    0          -8D,1                      #  ALFA P (-4)
000269: 27,3225           51415                           DAD      ABS                                   #  (DCOMP GIVES VALID TP RESULT FOR SQRT)
000270:                                                                                                  #  (ABS PROTECTS SQRT IF E IS VERY NEAR 0)
000271: 27,3226           31771                                    DP2(-4)
000272: 27,3227           43366                           SQRT     DAD                                   #  E SQ = (1- P ALFA)    (-4)
000273: 27,3230           15326                                    TFF1/4
000274: 27,3231           55206                           PUSH     BDDV                                  #  (1+E)  (-2)  TO PDL+0
000275: 27,3232           00035                                    TFFNP                                 #  LCP  M        E:(-38+2NR)  M:(-36+2NR)
000276: 27,3233           53657                           SR*      SR*                                   #  (DOES SR THEN SL TO AVOID OVFL)
000277: 27,3234           20601                                    0,1                                   #  X1=-NR
000278: 27,3235           20572                                    0          -7,1                       #  (EFFECTIVE SL)
000279: 27,3236           14017                           STODL    RPER                                  #  PERIGEE RADIUS  M     E:(-29)  M:(-27)
000280:                                                                                                  #  (1+E)  (-2)  FROM PDL+0
000281: 27,3237           41005                           DMP      BOVB
000282: 27,3240           00027                                    TFF1/ALF                              #  E:(-22-2NA)  M:(-20-2NA)
000283: 27,3241           57544                                    TCDANZIG                              #  CLEAR OVFIND, IF ON.
000284: 27,3242           53654                           BZE      SL*
000285: 27,3243           57252                                    MAXRA                                 #  SET POSMAX, IF ALFA=0
000286: 27,3244           57603                                    0          -5,2                       #  -5+NA
000287: 27,3245           40057                           SL*      BOV
000288: 27,3246           57576                                    0,2
000289: 27,3247           57252                                    MAXRA                                 #  SET POSMAX IF OVFL.
000290: 27,3250           77644                           BPL                                            #  CONTINUE WITH VALID RAPO.
000291: 27,3251           57254                                    +3
000292: 27,3252           77745        MAXRA              DLOAD                                          #  RAPO CALC IS NOT VALID. SET RAPO =
000293: 27,3253           15344                                    NEARONE                               #  POSMAX AS A TAG.
000294: 27,3254           00021                 +3        STORE    RAPO                                  #  APOGEE RADIUS  M  E:(-29)  M:(-27)
000295: 27,3255           77616        DUMPRPRA           RVQ
000296:
000297:                                                                                                  #                        30 W
000298:


000300:
000301:                                                                                                  #  SUBROUTINE NAME:      CALCTPER / CALCTFF                              DATE:  01.29.67
000302:                                                                                                  #  MOD NO:  0                                                            LOG SECTION:  TIME OF FREE FALL
000303:                                                                                                  #  MOD BY:  RR BAIRNSFATHER
000304:                                                                                                  #  MOD NO:  1    MOD BY:  RR BAIRNSFATHER        DATE: 21 MAR 67
000305:                                                                                                  #  MOD NO:  2    MOD BY:  RR BAIRNSFATHER        DATE: 14 APR 67
000306:                                                                                                  #  MOD NO:  3    MOD BY:  RR BAIRNSFATHER        DATE: 8 JUL 67          NEAR EARTH MUE AND NEG TFF (GONEPAST)
000307:                                                                                                  #  MOD NO:  4    MOD BY:  RR BAIRNSFATHER        DATE: 21 NOV 67         ADD VARIABLE MU.
000308:                                                                                                  #  MOD NO:  5    MOD BY:  RR BAIRNSFATHER        DATE: 21 MAR 68         ACCEPT DIFFERENT EARTH/MOON SCALES
000309:
000310:                                                                                                  #  FUNCTIONAL DESCRIPTION:       PROGRAM CALCULATES THE FREE-FALL TIME OF FLIGHT FROM PRESENT POSITION  RN  AND
000311:                                                                                                  #        VELOCITY  VN  TO A RADIUS LENGTH SPECIFIED BY  RTERM  , SUPPLIED BY THE USER. THE POSITION VECTOR
000312:                                                                                                  #        RN  MAY BE ON EITHER SIDE OF THE CONIC, BUT  RTERM  IS CONSIDERED ON THE INBOUND SIDE.
000313:                                                                                                  #        THE EQUATIONS ARE
000314:
000315:                                                                                                  #                Q2 = -SQRT(RTERM (2-RTERM ALFA) - LCP)  (INBOUND SIDE)) LEQ +- LCE/SQRT(ALFA)
000316:                                                                                                  #                     -  -
000317:                                                                                                  #                Q1 = RN.VN / SQRT(MU)                                   LEQ +- LCE/SQRT(ALFA)
000318:
000319:                                                                                                  #                Z = NUM / DEN                                           LEQ +- 1/SQRT(ALFA)
000320:
000321:                                                                                                  #        WHERE, IF INBOUND
000322:                                                                                                  #                NUM = RTERM - RN                                        LEQ +- 2 LCE/ALFA
000323:                                                                                                  #                DEN = Q2+Q1                                             LEQ +- 2 LCE/SQRT(ALFA)
000324:
000325:                                                                                                  #        AND, IF OUTBOUND
000326:                                                                                                  #                NUM = Q2-Q1                                             LEQ +- 2 LCE/SQRT(ALFA)
000327:                                                                                                  #                DEN = 2 - ALFA (RTERM + RN) .                           LEQ +- 2 LCE
000328:
000329:                                                                                                  #        IF      ALFA ZZ < 1.0           (FOR ALL CONICS EXCEPT ELLIPSES HAVING ABS(DEL ECC ANOM) G 90 DEG)
000330:
000331:                                                                                                  #        THEN    X = ALFA Z Z
000332:                                                                                                  #        AND     TFF = (RTERM +RN -2 ZZ T(X) ) Z/SQRT(MU)
000333:
000334:                                                                                                  #                EXCEPT  IF ALFA PNZ, AND IF TFF NEG,
000335:                                                                                                  #                THEN    TFF = 2 PI /(ALFA SQRT(ALFA)) + TFF
000336:
000337:                                                                                                  #        OR      IF ALFA ZZ GEQ 1.0      (FOR ELLIPSES HAVING ABS(DEL ECC ANOM) GEQ 90 DEG)
000338:
000339:                                                                                                  #        THEN    X = 1/ALFA Z Z
000340:                                                                                                  #        AND     TFF = (PI/SQRT(ALFA) -Q2 +Q1 +2(X T(X) -1) /ALFA Z) /ALFA SQRT(MU)
000341:
000342:                                                                                                  #        WHERE   T(X) IS A POLYNOMIAL APPROXIMATION TO THE SERIES
000343:                                                                                                  #                             2      3             2
000344:                                                                                                  #                1/3 - X/5 + X /7 - X /9 ...     (X  < 1.0)
000345:
000346:                                                                                                  #  CALLING SEQUENCE:     TIME TO RTERM                   TIME TO PERIGEE
000347:                                                                                                  #                        CALL                            CALL
000348:                                                                                                  #                                CALCTFF                         CALCTPER
000349:                                                                                                  #                        C(MPAC) = TERMNL RAD M          C(MPAC) = PERIGEE RAD M
000350:                                                                                                  #        FOR EITHER, E: (-29)    M: (-27)
000351:                                                                                                  #        FOR EITHER, PUSHLOC = PDL+0 , ARBITRARY IF LEQ 8D.


000353:
000354:                                                                                                  #  SUBROUTINES CALLED:   T(X), VIA RTB
000355:
000356:                                                                                                  #  NORMAL EXIT MODE:     RVQ
000357:                                                                                                  #        HOWEVER, PROGRAM EXITS WITH ONE OF THE FOLLOWING VALUES FOR TFF (-28) CS IN MPAC. USER MUST STORE.
000358:                                                                                                  #                A. TFF = FLIGHT TIME. NORMAL CASE FOR POSITIVE FLIGHT TIME LESS THAN ONE ORBITAL PERIOD.
000359:                                                                                                  #                B. (THIS OPTION IS NO LONGER USED.)
000360:                                                                                                  #                C. TFF = POSMAX.  THIS INDICATES THAT THE CONIC FROM THE PRESENT POSITION WILL NOT RETURN TO
000361:                                                                                                  #                   THE SPECIFIED ALTITUDE.  ALSO INDICATES OUTBOUND PARABOLA OR HYPERBOLA.
000362:
000363:                                                                                                  #  OUTPUT:       C(MPAC)         (-28) CS        TIME OF FLIGHT, OR TIME TO PERIGEE
000364:                                                                                                  #                TFFX            (0)             X,                                      LEFT FOR ENTRY DISPLAY TFF ROUTINES
000365:                                                                                                  #                NRTERM          E: (-29+NR)     M  RTERM, WEIGHTED BY NR                LEFT FOR ENTRY DISPLAY TFF ROUTINES
000366:                                                                                                  #                                M: (-27+NR)
000367:                                                                                                  #                TFFTEM          E: (-59+2NR)    LCP Z Z SGN(SDELF)                      LEFT FOR ENTRY DISPLAY TFF ROUTINES
000368:                                                                                                  #                                M: (-55+2NR)    LCP /ALFA SGN(SDELF)                    LEFT FOR ENTRY DISPLAY TFF ROUTINES
000369:                                                                                                  #                NOTE:   TFFTEM = PDL 36D AND WILL BE DESTROYED BY .:UNIT:.
000370:                                                                                                  #                RMAG1           E:(-29) M:(-27) PDL 12 NOT TOUCHED.
000371:                                                                                                  #                TFFQ1           E:(-16) M:(-15) PDL 14D
000372:                                                                                                  #                TFFDELQ         E:(-16) M:(-15) PDL 10D
000373:                                                                                                  #                PUSHLOC AT PDL+0
000374:
000375:                                                                                                  #  ERASABLE INITIALIZATION REQUIRED:
000376:                                                                                                  #                RONE            E:(-29) M:(-27) M  STATE VECTOR                         LEFT BY USER
000377:                                                                                                  #                VONE'           E:(+10) M:(+9)  VN/SQRT(NU)                             LEFT BY TFF/CONIC
000378:                                                                                                  #                RMAG1           E:(-29) M:(-27) PRESENT RADIUS, M                       LEFT BY TFFCONIC
000379:                                                                                                  #                C(MPAC)         E:(-29) M:(-27) RTERM, TERMINAL RADIUS LENGTH, M        LEFT BY USER
000380:
000381:                                                                                                  #                THE FOLLOWING ARE STORED IN THE PUSH LIST AREA.
000382:                                                                                                  #                TFF/RTMU        E:(17) M:(14)   1/SQRT(MU)                              LEFT BY TFFCONIC.
000383:                                                                                                  #                NRMAG           E: (-29+NR)     M  RMAG, NORMALIZED                     LEFT BY TFFCONIC
000384:                                                                                                  #                                M: (-27+NR)
000385:                                                                                                  #                X1                              -NR, NORM COUNT                         LEFT BY TFFCONIC
000386:                                                                                                  #                TFFNP           E: (-38+2NR)    M  LCP, SEMI LATUS RECTUM, WEIGHT NR    LEFT BY TFFCONIC
000387:                                                                                                  #                                M: (-36+2NR)
000388:                                                                                                  #                TFFALFA         E: (26-NR)      1/M  ALFA, WEIGHT NR                    LEFT BY TFFCONIC
000389:                                                                                                  #                                M: (24-NR)
000390:                                                                                                  #                TFFRTALF        E:(10+NA)       SQRT(ALFA), NORMALIZED                  LEFT BY TFFCONIC
000391:                                                                                                  #                                M:(9+NA)
000392:                                                                                                  #                X2                              -NA, NORM COUNT                         LEFT BY TFFCONIC
000393:                                                                                                  #                TFF1/ALF        E: (-22-2NA)    SIGNED SEMIMAJ AXIS, WEIGHTED BY NA     LEFT BY TFFCONIC
000394:                                                                                                  #                                M: (-20-2NA)
000395:
000396:                                                                                                  #  DEBRIS:       QPRET, PDL+0 ... PDL+3
000397:                                                                                                  #                RTERM           E:(-29) M:(-27) RTERM, TERMINAL RADIUS LENGTH
000398:                                                                                                  #                RAPO            E:(-29) M:(-27) PDL 16D (=NRTERM)
000399:                                                                                                  #                RPER            E:(-29) M:(-27) PDL 14D (=TFFQ1)
000400:


000402: 27,3256           77614        CALCTPER           SETGO                                          #  ENTER WITH RPER IN MPAC
000403: 27,3257           03436                                    TFFSW
000404: 27,3260           57263                                    +3
000405: 27,3261           77614        CALCTFF            CLEAR                                          #  ENTER WITH RTERM IN MPAC
000406: 27,3262           03676                                    TFFSW
000407: 27,3263           00023                 +3        STORE    RTERM                                 #  E: (-29)  M: (-27)
000408: 27,3264           77657                           SL*
000409: 27,3265           20201                                    0,1                                   #  X1=-NR
000410: 27,3266           00021                           STORE    NRTERM                                #  RTERM  E: (-29+NR)  M: (-27+NR)
000411: 27,3267           44205                           DMP      BDSU
000412: 27,3270           00033                                    TFFALFA                               #  ALFA  E: (26-NR)  M: (24-NR)
000413: 27,3271           15326                                    TFF1/4
000414: 27,3272           41206                           PUSH     DMP                                   #  (2-ALFA RTERM)  (-3)  TO PDL+0
000415: 27,3273           00021                                    NRTERM                                #  E: (-29+NR)  M: (-27+NR)
000416: 27,3274           53725                           PDDL     SR*                                   #  RTERM(2-ALFA RTERM) TO PDL+2
000417:                                                                                                  #  E: (-32+NR)  M: (-30+NR)
000418: 27,3275           00035                                    TFFNP                                 #  LC P  E:(-38+2NR)  M:(-36+2NR)
000419: 27,3276           20573                                    0          -6,1                       #  X1 = -NR
000420: 27,3277           43276                           DCOMP    DAD                                   #  DUE TO SHIFTS, KEEP PRECISION FOR SQRT
000421:                                                                                                  #  RTERM(2-ALFA RTERM) FROM PDL +2
000422:                                                                                                  #  E: (-32+NR)  M: (-30+NR)
000423: 27,3300           77657                           SR*                                            #  LEAVE  E: (-32)  M: (-30)
000424: 27,3301           20601                                    0,1                                   #  X1 = -NR
000425: 27,3302           71214                           BOFF     DLOAD                                 #  CHECK TFF /TPER SWITCH
000426: 27,3303           03756                                    TFFSW
000427: 27,3304           57306                                    +2                                    #  IF TFF, CONTINUE
000428: 27,3305           15336                                    TFFZEROS                              #  IF TPER, SET Q2 = 0
000429: 27,3306           75440                 +2        BMN      SQRT                                  #  E: (-16)  M: (-15)
000430:
000431: 27,3307           57441                                    MAXTFF1                               #  NO FREE FALL CONIC TO RTERM FROM HERE
000432:                                                                                                  #  RESET PDL, SET TFF=POSMAX, AND EXIT.
000433:
000434: 27,3310           41076                           DCOMP    BOVB                                  #  RT IS ON INBOUND SIDE.  ASSURE OVFIND=0
000435: 27,3311           57544                                    TCDANZIG                              #  ANY PORT IN A STORM.
000436: 27,3312           24045                           STOVL    TFFTEM                                #  Q2  E: (-16)  M: (-15)
000437: 27,3313           02362                                    VONE'                                 #  VN/SQRT(MU)  E: (10)  M: (9)
000438: 27,3314           52441                           DOT      SL3
000439: 27,3315           02320                                    RONE                                  #  SAVED RN.  E: (-29)  M: (-27)
000440: 27,3316           00017                           STORE    TFFQ1                                 #  Q1, SAVE FOR GONEPAST TEST.
000441:                                                                                                  #  E: (-16)  M: (-15)
000442: 27,3317           44240                           BMN      BDSU
000443: 27,3320           57341                                    INBOUND                               #  USE ALTERNATE Z
000444: 27,3321           00045                                    TFFTEM                                #  Q2  E: (-16)  M: (-15)
000445:
000446:                                                                                                  #  OUTBOUND Z CALC CONTINUES HERE
000447:
000448: 27,3322           14043                           STODL    TFFX                                  #  NUM=Q2-Q1  E: (-16)  M: (-15)
000449: 27,3323           00033                                    TFFALFA                               #  ALFA  E: (26-NR)  M: (24-NR)
000450: 27,3324           44205                           DMP      BDSU


000452: 27,3325           00041                                    NRMAG                                 #  RMAG  E: (-29+NR) M: (-27+NR)
000453:                                                                                                  #  (2-RTERM ALFA)  (-3) FROM PDL+0
000454: 27,3326           51406        SAVEDEN            PUSH     ABS                                   #  DEN TO PDL+0  E: (-3) OR (-16)
000455:                                                                                                  #                M: (-3) OR (-15)
000456: 27,3327           40015                           DAD      BOV                                   #  INDETERMINANCY TEST
000457: 27,3330           31763                                    LIM(-22)                              #  =1.0-B(-22)
000458: 27,3331           57352                                    TFFXTEST                              #  GO IF DEN >/= B(-22)
000459: 27,3332           65345                           DLOAD    PDDL                                  #  SET DEN=0 OTHERWISE
000460: 27,3333           15336                                    TFFZEROS
000461:                                                                                                  #  XCH ZERO WITH PDL+0
000462: 27,3334           57545                           DLOAD    DCOMP
000463: 27,3335           00033                                    TFFALFA                               #  ALFA  E: (26-NR)  M: (24-NR)
000464: 27,3336           71240                           BMN      DLOAD                                 #  FOR TPER:  Z INDET AT DELE/2=0 AND 90.
000465: 27,3337           57446                                    TFFEL1                                #  ASSUME 90, AND LEAVE 0 IN PDL: 1/Z=D/N
000466:
000467:                                                                                                  #  Z INDET. AT PERIGEE FOR PARAB OR HYPERB.
000468: 27,3340           77616        DUMPTFF1           RVQ                                            #  RETURN TFF =0
000469:
000470:                                                                                                  #  INBOUND Z CALC CONTINUES HERE
000471: 27,3341           77745        INBOUND            DLOAD                                          #  RESET PDL+0
000472: 27,3342           45345                           DLOAD    DSU                                   #  ALTERNATE Z CALC
000473: 27,3343           00023                                    RTERM                                 #  E: (-29)  M: (-27)
000474: 27,3344           00015                                    RMAG1                                 #  E: (-29)  M: (-27)
000475: 27,3345           14043                           STODL    TFFX                                  #  NUM=RTERM-RN  E: (-29)  M: (-27)
000476: 27,3346           00045                                    TFFTEM                                #  Q2  E: (-16)  M: (-15)
000477: 27,3347           52015                           DAD      GOTO
000478: 27,3350           00017                                    TFFQ1                                 #  Q1  E: (-16)  M:(-15)
000479: 27,3351           57326                                    SAVEDEN                               #  DEN = Q2+Q1  E: (-16)  M: (-15)
000480:
000481: 27,3352           65215        TFFXTEST           DAD      PDDL                                  #   (ABS(DEN) TO PDL+2)) E: (-3) OR (-16)
000482:                                                                                                  #                        M: (-3) OR (-15)
000483: 27,3353           31765                                    DP(-22)                               #  RESTORE ABS(DEN) TO MPAC
000484: 27,3354           00043                                    TFFX                                  #  NUM  E:(-16) OR (-29)  M:(-15) OR (-27)
000485: 27,3355           53605                           DMP      SR*
000486: 27,3356           00031                                    TFFRTALF                              #  SQRT(ALFA)  E: (10+NA)  M: (9+NA)
000487: 27,3357           57201                                    0          -3,2                       #  X2=-NA
000488: 27,3360           77671                           DDV                                            #  C(MPAC) =NUM SQRT(ALFA)       E:(-3) OR (-16)
000489:                                                                                                  #                                M:(-3) OR (-15)
000490:                                                                                                  #  ABS(DEN) FROM PDL+2   E:(-3) OR (-16)
000491:                                                                                                  #                        M:(-3) OR (-15)
000492: 27,3361           40145                           DLOAD    BOV                                   #  (THE DLOAD IS SHARED WITH TFFELL)
000493: 27,3362           00043                                    TFFX                                  #  NUM  E: (-16) OR (-29)  M:(-15) OR (-27)
000494: 27,3363           57444                                    TFFELL                                #  USE EQN FOR DELE GEQ 90, LEQ -90
000495:
000496:                                                                                                  #  OTHERWISE, CONTINUE FOR GENERAL CONIC FOR TFF EQN
000497:
000498: 27,3364           45471                           DDV      STADR
000499:                                                                                                  #  DEN FROM PDL+0        E: (-3) OR (-16)
000500:                                                                                                  #                        M: (-3) OR (-15)
000501: 27,3365           77732                           STORE    TFFTEM                                #  Z  SAVE FOR SIGN OF SDELF.


000503:                                                                                                  #  E: (-13)  M: (-12)
000504: 27,3366           63406                           PUSH     DSQ                                   #  Z TO PDL+0
000505: 27,3367           41206                           PUSH     DMP                                   #  Z SQ TO PDL+2  E: (-26)  M: (-24)
000506: 27,3370           00035                                    TFFNP                                 #  LC P  E: (-38+2NR)  M: (-36+2NR)
000507: 27,3371           75261                           SL       SIGN
000508: 27,3372           20206                                    5
000509: 27,3373           00045                                    TFFTEM                                #  AFFIX SIGN FOR SDELF (ENTRY DISPLAY)
000510: 27,3374           14045                           STODL    TFFTEM                                #  P ZSQ  E: (-59+2NR)  M: (-55+2NR)
000511:                                                                                                  #  (ARG IS USED IN TFF/TRIG)
000512:                                                                                                  #  ZSQ FROM PDL+2  E: (-26)  M: (-24)
000513: 27,3375           41206                           PUSH     DMP                                   #  RESTORE PUSH LOC
000514: 27,3376           00033                                    TFFALFA                               #  ALFA  E: (26-NR)  M: (24-NR)
000515: 27,3377           77657                           SL*
000516: 27,3400           20201                                    0,1                                   #  X1=-NR
000517: 27,3401           00043                           STORE    TFFX                                  #  X
000518: 27,3402           41234                           RTB      DMP
000519: 27,3403           57526                                    T(X)                                  #   POLY
000520:                                                                                                  #  ZSQ FROM PDL+2  E: (-26)  M: (-24)
000521: 27,3404           44302                           SR2      BDSU                                  #  2 ZSQ T(X)  E: (-29)  M: (-27)
000522: 27,3405           00023                                    RTERM                                 #  RTERM  E: (-29)  M: (-27)
000523: 27,3406           41215                           DAD      DMP
000524: 27,3407           00015                                    RMAG1                                 #  E: (-29)  M: (-27)
000525:                                                                                                  #  Z FROM PDL+0  E: (-13)  M: (-12)
000526: 27,3410           51042                           SR3      BPL                                   #  TFF SQRT(MU)  E: (-45)  M: (-42)
000527: 27,3411           57432                                    ENDTFF                                #  (NO PUSH UP)
000528: 27,3412           75206                           PUSH     SIGN                                  #  TFF SQRT(MU)  TO PDL+0
000529: 27,3413           00017                                    TFFQ1                                 #  Q1 FOR GONEPAST TEST
000530: 27,3414           71244                           BPL      DLOAD                                 #  GONE PAST ?
000531: 27,3415           57436                                    NEGTFF                                #  YES. TFF < 0.
000532: 27,3416           00027                                    TFF1/ALF                              #  1/ALFA  E: (-22-2NA)  M: (-20-2NA)
000533: 27,3417           51076                           DCOMP    BPL                                   #  ALFA > 0 ?
000534: 27,3420           57436                                    NEGTFF                                #  NO. TFF IS NEGATIVE.
000535:
000536:                                                                                                  #  CORRECT FOR ORBITAL PERIOD.
000537:
000538: 27,3421           77676                           DCOMP                                          #  YES.  CORRECT FOR ORB PERIOD.
000539: 27,3422           56205                           DMP      DDV
000540: 27,3423           31761                                    PI/16                                 #  2 PI (-5)
000541: 27,3424           00031                                    TFFRTALF                              #  SQRT(ALFA)  E: (10+NA)  M: (9+NA)
000542: 27,3425           53657                           SL*      SL*
000543: 27,3426           57602                                    0          -4,2                       #  X2=-NA
000544: 27,3427           57602                                    0          -4,2
000545: 27,3430           43257                           SL*      DAD
000546: 27,3431           57576                                    0,2
000547:                                                                                                  #  TFF SQRT(MU) FROM PDL+0       E:(-45) M:(-42)
000548: 27,3432           40005        ENDTFF             DMP      BOV                                   #  TFF SQRT(MU) IN MPAC          E:(-45) M:(-42)
000549: 27,3433           00037                                    TFF/RTMU                              #  E: (17)  M: (14)
000550: 27,3434           57442                                    MAXTFF                                #  SET POSMAX IF OVFL.
000551:
000552: 27,3435           77616        DUMPTFF2           RVQ                                            #  RETURN TFF    (-28) CS IN MPAC.
000553:


000555: 27,3436           77745        NEGTFF             DLOAD
000556:                                                                                                  #  TFF SQRT(MU) FROM PDL+0, NEGATIVE.
000557: 27,3437           77650                           GOTO
000558: 27,3440           57432                                    ENDTFF
000559:
000560: 27,3441           77745        MAXTFF1            DLOAD                                          #  RESET PDL
000561: 27,3442           43545        MAXTFF             DLOAD    RVQ
000562: 27,3443           15344                                    NEARONE
000563:
000564:                                                                                                  #  TIME OF FLIGHT ELLIPSE WHEN DEL (ECCENTRIC ANOM) GEQ 90 AND LEQ -90.
000565:
000566:                                                                                                  #  NUM FROM TFFX.        E: (-16) OR (-29)
000567:                                                                                                  #                        M: (-15) OR (-27)
000568: 27,3444           77712        TFFELL             SL2                                            #  NUM  E:(-14) OR (-27)  M:(-13) OR (-25)
000569: 27,3445           41465                           BDDV     PUSH                                  #  TEMP SAVE D/N IN PDL+0
000570:                                                                                                  #  DEN FROM PDL+0  E:(-3)/( 16)  M:(-3)/(-15)
000571:                                                                                                  #  N/D TO PDL+0  E: (11)  M: (10)
000572: 27,3446           45345        TFFEL1             DLOAD    DSU                                   #  (ENTER WITH D/N=0 IN PDL+0)
000573: 27,3447           00045                                    TFFTEM                                #  Q2  E: (-16)  M: (-15)
000574: 27,3450           00017                                    TFFQ1                                 #  Q1  E: (-16)  M: (-15)
000575: 27,3451           14013                           STODL    TFFDELQ                               #  Q2-Q1  E: (-16)  M: (-15)
000576:                                                                                                  #  D/N FROM PDL+0
000577: 27,3452           77626                           STADR
000578: 27,3453           77732                           STORE    TFFTEM                                #  D/N  E: (11)  M: (10)
000579: 27,3454           53605                           DMP      SL*
000580: 27,3455           00027                                    TFF1/ALF                              #  1/ALFA  E: (-22-2NA)  M: (-20-2NA)
000581: 27,3456           57576                                    0,2                                   #  1/ALFA Z  E: (-11-NA)  M: (-10-NA)
000582: 27,3457           41206                           PUSH     DMP                                   #  TO PDL+0
000583: 27,3460           00045                                    TFFTEM                                #  1/Z  E: (11)  M: (10)
000584: 27,3461           41057                           SL*      BOVB
000585: 27,3462           57576                                    0,2                                   #  X2= -NA
000586: 27,3463           45761                                    SIGNMPAC                              #  IN CASE X= 1.0, CONTINUE
000587: 27,3464           00043                           STORE    TFFX                                  #  X=1/ALFA ZSQ
000588: 27,3465           41234                           RTB      DMP
000589: 27,3466           57526                                    T(X)                                  #  POLY
000590: 27,3467           00043                                    TFFX
000591: 27,3470           45242                           SR3      DSU
000592: 27,3471           31767                                    DP2(-3)
000593: 27,3472           41405                           DMP      PUSH                                  #  2(X T(X)-1) /Z ALFA   E: (-15-NA)
000594:                                                                                                  #                        M: (-14-NA)
000595:                                                                                                  #  1/ALFA Z FROM PDL+0   E: (-11-NA)
000596:                                                                                                  #                        M: (-10-NA)
000597: 27,3473           41345                           DLOAD    DMP                                   #  GET SIGN FOR SDELF
000598: 27,3474           00045                                    TFFTEM                                #  1/Z  E: (11)  M: (10)
000599: 27,3475           00015                                    RMAG1                                 #  E: (-29)  M: (-27)
000600: 27,3476           43312                           SL2      DAD
000601: 27,3477           00017                                    TFFQ1                                 #  Q1  E: (-16)  M: (-15)
000602: 27,3500           14045                           STODL    TFFTEM                                #  (Q1+R 1/Z) =SGN OF SDELF  E:(-16) M:(-15
000603: 27,3501           00035                                    TFFNP                                 #  LC P  E: (-38+2NR)  M: (-36+2NR)
000604: 27,3502           53605                           DMP      SL*                                   #  CALC FOR ARG FOR TFF/TRIG.


000606: 27,3503           00027                                    TFF1/ALF                              #  1/ALFA  E:(-22-2NA)  M:(-20-2NA)
000607: 27,3504           57575                                    1,2                                   #  X2=-NA
000608: 27,3505           53765                           SIGN     SL*
000609: 27,3506           00045                                    TFFTEM                                #  AFFIX SIGN FOR SDELF
000610: 27,3507           57576                                    0,2
000611: 27,3510           14045                           STODL    TFFTEM                                #  P/ALFA  E:(-59+2NR)  M:(-55+2NR)
000612:                                                                                                  #  (ARG FOR USE IN TFF/TRIG)
000613: 27,3511           00027                                    TFF1/ALF                              #  1/ALFA  E:(-22-2NA)  M:(-20-2NA)
000614: 27,3512           41366                           SQRT     DMP
000615: 27,3513           31761                                    PI/16                                 #  PI (-4)
000616: 27,3514           77615                           DAD
000617:                                                                                                  #  2(XT(X)-1)/Z ALFA FROM PDL    E:(-15-NA)
000618:                                                                                                  #                                M:(-14-NA)
000619: 27,3515           45257                           SL*      DSU
000620: 27,3516           57577                                    0          -1,2
000621: 27,3517           00013                                    TFFDELQ                               #  Q2-Q1  E: (-16)  M: (-15)
000622: 27,3520           53605                           DMP      SL*
000623: 27,3521           00027                                    TFF1/ALF                              #  1/ALFA  E:(-22-2NA)  M:(-20-2NA)
000624: 27,3522           57601                                    0          -3,2
000625: 27,3523           52057                           SL*      GOTO
000626: 27,3524           57602                                    0          -4,2
000627: 27,3525           57432                                    ENDTFF                                #  TFF SQRT(MU) IN MPAC E:(-45) M:(-42)
000628:


000630:
000631:                                                                                                  #  PROGRAM NAME:         T(X)                                            DATE:  01.17.67
000632:                                                                                                  #  MOD NO:  0                                                            LOG SECTION:  TIME OF FREE FALL
000633:                                                                                                  #  MOD BY:  RR BAIRNSFATHER
000634:
000635:                                                                                                  #  FUNCTIONAL DESCRIPTION:       THE POLYNOMIAL T(X) IS USED BY TIME OF FLIGHT SUBROUTINES  CALCTFF AND
000636:                                                                                                  #        CALCTPER TO APPROXIMATE THE SERIES
000637:                                                                                                  #                           2     3
000638:                                                                                                  #                1/3 -X/5 +X /7 -X /9 ...
000639:
000640:                                                                                                  #        WHERE   X = ALFA Z Z            IF ALFA Z Z LEQ 1
000641:                                                                                                  #                X = 1/(ALFA Z Z)        IF ALFA Z Z  G  1
000642:
000643:                                                                                                  #        ALSO    X IS NEG FOR HYPERBOLIC ORBITS
000644:                                                                                                  #                X = 0 FOR PARABOLIC ORBITS
000645:                                                                                                  #                X IS POSITIVE FOR ELLIPTIC ORBITS
000646:                                                                                                  #        FOR FLIGHT 278, THE POLYNOMIAL T(X) IS FITTED OVER THE RANGE  (0,+1)  AND HAS A MAXIMUM
000647:                                                                                                  #        DEVIATION FROM THE SERIES OF  2 E-5   (T(X) IS A CHEBYCHEV TYPE FIT AND WAS OBTAINED USING
000648:                                                                                                  #        MAC PROGRAM AUTCURFIT294RRB AND IS VALID TO THE SAME TOLERANCE OVER THE RANGE  (-.08,+1). )
000649:
000650:                                                                                                  #  CALLING SEQUENCE:     RTB
000651:                                                                                                  #                                T(X)
000652:                                                                                                  #        C(MPAC) = X
000653:
000654:                                                                                                  #  SUBROUTINES CALLED:  NONE
000655:
000656:                                                                                                  #  NORMAL EXIT MODE:    TC DANZIG
000657:
000658:                                                                                                  #  ALARMS:  NONE
000659:
000660:                                                                                                  #  OUTPUT:  C(MPAC) = T(X)
000661:
000662:                                                                                                  #  ERASABLE INITIALIZATION REQUIRED:
000663:                                                                                                  #        C(MPAC) = X
000664:
000665:                                                                                                  #  DEBRIS:  NONE
000666:
000667: 27,3526           07171        T(X)               TC       POLY
000668: 27,3527           00004                           DEC      4          B-14                       #  N-1
000669: 27,3530           12525 12525                     2DEC     3.333333333 E-1
000670: 27,3532           71463 57703                     2DEC*    -1.999819135 E-1*
000671: 27,3534           04423 17645                     2DEC*    1.418148467 E-1*
000672: 27,3536           74604 43667                     2DEC*    -1.01310997 E-1*
000673: 27,3540           01626 37256                     2DEC*    5.609004986 E-2*
000674: 27,3542           77404 52071                     2DEC*    -1.536156925 E-2*
000675:
000676: 27,3544           06030        ENDT(X)            TC       DANZIG
000677:
000678: 27,3545  27,3544               TCDANZIG           =        ENDT(X)
000679:


000681:                                                                                                  #  TFF CONSTANTS
000682:
000683: 34,2000                                           SETLOC   TOF-FF1
000684: 34,2000                                           BANK
000685:
000686: 34,3756                                           COUNT*   $$/TFF
000687:                                                                                                  #                                                NOTE _  NOTE _ ADJUSTED MUE FOR NEAR EARTH TRAJ.
000688:


000693:
000694:                                                                                                  # MUE            =       3.990815471 E10         M CUBE/CS SQ
000695:                                                                                                  # RTMUE          =       1.997702549 E5 B-18*    MODIFIED EARTH MU
000696:
000697: 34,3756           24775 30424  1/RTMU             2DEC*    .5005750271 E-5        B17*            #  MODIFIED EARTH MU
000698:


000700:
000701:                                                                                                  #                                                NOTE _  NOTE _ ADJUSTED MUE FOR NEAR EARTH TRAJ.
000702:                                                                                                  # MUM            =       4.902778 E8             M CUBE/CS SQ
000703:                                                                                                  # RTMUM          2DEC*   2.21422176 E4 B-18*
000704: 34,3760           06220 37553  PI/16              2DEC     3.141592653 B-4
000705: 34,3762           37777 37700  LIM(-22)           2OCT     3777737700                            #  1.0 -B(-22)
000706: 34,3764           00000 00100  DP(-22)            2OCT     0000000100                            #  B(-22)
000707: 34,3766           04000 00000  DP2(-3)            2DEC     1          B-3
000708: 34,3770           02000 00000  DP2(-4)            2DEC     1          B-4                        #  1/16
000709:
000710:                                                                                                  #  RPAD1         2DEC    6373338 B-29            M (-29) = 20 909 901.57 FT
000711: 34,3772  22,3172               RPAD1              =        RPAD
000712: 34,3772  26,3343               NEARONE            EQUALS   DPPOSMAX
000713: 34,3772  26,3335               TFFZEROS           EQUALS   HI6ZEROS
000714: 34,3772  26,3325               TFF1/4             EQUALS   HIDP1/4

End of include-file TIME_OF_FREE_FALL.agc.  Parent file is MAIN.agc


