
Source Code


000002:                                                                                                  ## Copyright:   Public domain.
000003:                                                                                                  ## Filename:    TIME_OF_FREE_FALL.agc
000004:                                                                                                  ## Purpose:     Part of the source code for Artemis (i.e., Colossus 3),
000005:                                                                                                  ##              build 072.  This is for the Command Module's (CM)
000006:                                                                                                  ##              Apollo Guidance Computer (AGC), for
000007:                                                                                                  ##              Apollo 15-17.
000008:                                                                                                  ## Assembler:   yaYUL
000009:                                                                                                  ## Contact:     Jim Lawton <jim DOT lawton AT gmail DOT com>
000010:                                                                                                  ## Website:     www.ibiblio.org/apollo/index.html
000011:                                                                                                  ## Page Scans:  www.ibiblio.org/apollo/ScansForConversion/Artemis072/
000012:                                                                                                  ## Mod history: 2009-08-20 JL   Adapted from corresponding Comanche 055 file.
000013:                                                                                                  ##              2009-08-21 JL   Added a note about a problem with the page scan on p.1386.
000014:                                                                                                  ##              2010-02-20 RSB  Un-##'d this header.
000015:                                                                                                  ##              2017-02-08 RSB  Proofed comment text by diff'ing vs Comanche 55
000016:                                                                                                  ##                              and/or octopus/ProoferComments as most-appropriate.
000017:                                                                                                  ##              2017-03-14 RSB  Comment-text fixes noted in proofing Luminary 116.
000018:


000020:
000021:                                                                                                  #  THE TFF SUBROUTINES MAY BE USED IN EITHER EARTH OR MOON CENTERED COORDINATES. THE TFF ROUTINES NEVER
000022:                                                                                                  #  KNOW WHICH ORIGIN APPLIES. IT IS THE USER WHO KNOWS, AND WHO SUPPLIES  RONE, VONE AND 1/SQRT(MU)  AT THE
000023:                                                                                                  #  APPROPRIATE SCALE LEVEL FOR THE PROPER PRIMARY BODY.
000024:
000025:                                                                                                  #        EARTH ORIGIN    POSITION        -29     METERS
000026:                                                                                                  #                        VELOCITY        -7      METERS/CENTISECOND
000027:                                                                                                  #                        1/SQRT(MU)      +17     SQRT(CS SQ/METERS CUBED)
000028:
000029:                                                                                                  #        MOON ORIGIN     POSITION        -27     METERS
000030:                                                                                                  #                        VELOCITY        -5      METERS/CENTISECONDS
000031:                                                                                                  #                        1/SQRT(MU)      +14     SQRT(CS SQ/METERS CUBED)
000032:
000033:                                                                                                  #  ALL DATA PROVIDED TO AND RECEIVED FROM ANY TFF SUBROUTINE WILL BE AT ONE OF THE LEVELS ABOVE. IN ALL CASES,
000034:                                                                                                  #  THE FREE FALL TIME IS RETURNED IN CENTISECONDS AT (-28). PROGRAM TFF/CONIC WILL GENERATE VONE/RTMU AND
000035:                                                                                                  #  LEAVE IT IN VONE' AT (+10) IF EARTH ORIGIN AND (+9) IF MOON ORIGIN.
000036:
000037:                                                                                                  #  THE USER MUST STORE THE STATE VECTOR IN  RONE, VONE  AND MU  IN THE FORM 1/SQRT(MU) IN TFF/RTMU
000038:                                                                                                  #  AT THE PROPER SCALE BEFORE CALLING TFF/CONIC. SINCE  RONE, VONE  ARE IN THE EXTENDED VERB STORAGE AREA,
000039:                                                                                                  #  THE USER MUST ALSO LOCK OUT THE EXTENDED VERBS, AND RELEASE THEM WHEN FINISHED.
000040:
000041:                                                                                                  #  PROGRAMS CALC/TFF AND CALC/TPER ASSUME THAT THE TERMINAL RADIUS IS LESS THAN THE PRESENT
000042:                                                                                                  #  RADIUS. THIS RESTRICTION CAN BE REMOVED BY A 15 W CODING CHANGE, BUT AT PRESENT IT IS NOT DEEMED NECESSARY.
000043:
000044:                                                                                                  #  THE FOLLOWING ERASABLE QUANTITIES ARE USED BY THE TFF ROUTINES, AND ARE LOCATED IN THE PUSH LIST.
000045:
000046:                                                                                                  #                                        BELOW   E:  IS USED FOR EARTH ORIGIN SCALE
000047:                                                                                                  #                                                M:  IS USED FOR MOON  ORIGIN SCALE
000048:
000049:                                                                                                  # TFFSW          =       119D    BIT1    0 = CALCTFF             1 = CALCTPER
000050: 23,3773                        TFFDELQ            =        10D                                   #        Q2-Q1                   E: (-16)  M: (-15)
000051: 23,3773                        RMAG1              =        12D                                   #        ABVAL(RN)  M            E: (-29)  M: (-27)
000052:                                                                                                  # RPER           =       14D             PERIGEE RADIUS  M       E: (-29)  M: (-27)
000053: 23,3773                        TFFQ1              =        14D                                   #        R.V / SQRT(MUE)         E: (-16)  M: (-15)
000054:                                                                                                  # SDELF/2                                SIN(THETA) /2
000055: 23,3773                        CDELF/2            =        14D                                   #        COS(THETA) /2
000056:                                                                                                  # RAPO           =       16D             APOGEE RADIUS  M        E: (-29)  M: (-27)
000057: 23,3773                        NRTERM             =        16D                                   #        TERMINAL RADIUS M       E: (-29+NR)
000058:                                                                                                  #                                M: (-27+NR)
000059: 23,3773                        RTERM              =        18D                                   #        TERMINAL RADIUS  M      E: (-29)  M: (-27)
000060: 23,3773                        TFFVSQ             =        20D                                   #        -(V SQUARED/MU)  1/M    E: (20)   M: (18)
000061: 23,3773                        TFF1/ALF           =        22D                                   #        SEMI MAJ AXIS  M        E: (-22-2 NA)
000062:                                                                                                  #                                M: (-20-2 NA)
000063: 23,3773                        TFFRTALF           =        24D                                   #        SQRT(ALFA)              E: (10+NA) M: (9+NA)
000064: 23,3773                        TFFALFA            =        26D                                   #        ALFA  1/M               E: (26-NR) M: (24-NR)
000065: 23,3773                        TFFNP              =        28D                                   #        SEMI LATUS RECTUM  M    E: (-38+2 NR)
000066:                                                                                                  #                                M: (-36+2 NR)
000067: 23,3773                        TFF/RTMU           =        30D                                   #        1/SQRT(MU)              E: (17)   M: (14)
000068: 23,3773                        NRMAG              =        32D                                   #        PRESENT RADIUS  M       E: (-29+NR)
000069:                                                                                                  #                                M: (-27+NR)
000070: 23,3773                        TFFX               =        34D
000071: 23,3773                        TFFTEM             =        36D                                   #        TEMPORARY
000072:


000074:                                                                                                  #                REGISTERS S1, S2 ARE UNTOUCHED BY ANY TFF SUBROUTINE
000075:                                                                                                  #                INDEX REGISTERS X1, X2 ARE USED BY ALL TFF SUBROUTINES. THEY ARE ESTAB-
000076:                                                                                                  #                LISHED IN TFF/CONIC AND MUST BE PRESERVED BETWEEN CALLS TO SUBSEQUENT
000077:                                                                                                  #                SUBROUTINES.
000078:                                                                                                  #                -NR                             C(X1) = NORM COUNT OF RMAG
000079:                                                                                                  #                -NA                             C(X2) = NORM COUNT OF SQRT(ABS(ALFA))
000080:


000082:
000083:                                                                                                  #  SUBROUTINE NAME:      TFFCONIC                                        DATE:  01.29.67
000084:                                                                                                  #  MOD NO:  0                                                            LOG SECTION:  TIME OF FREE FALL
000085:                                                                                                  #  MOD BY:  RR BAIRNSFATHER
000086:                                                                                                  #  MOD NO:  1    MOD BY:  RR BAIRNSFATHER        DATE: 11 APR 67
000087:                                                                                                  #  MOD NO:  2    MOD BY:  RR BAIRNSFATHER        DATE: 21 NOV 67         ADD MOON MU.
000088:                                                                                                  #  MOD NO:  3    MOD BY:  RR BAIRNSFATHER        DATE: 21 MAR 68         ACCEPT DIFFERENT EARTH/MOON SCALES
000089:
000090:                                                                                                  #  FUNCTIONAL DESCRIPTION:       THIS SUBROUTINE IS CALLED TO COMPUTE THOSE CONIC PARAMETERS REQUIRED BY THE TFF
000091:                                                                                                  #        SUBROUTINES AND TO ESTABLISH THEM IN THE PUSH LIST AREA. THE PARAMETERS ARE LISTED UNDER OUTPUT.
000092:                                                                                                  #        THE EQUATIONS ARE
000093:                                                                                                  #                -   -  -
000094:                                                                                                  #                H = RN*VN                       ANGULAR MOMENTUM
000095:                                                                                                  #                      - -
000096:                                                                                                  #                LCP = H.H / MU                  SEMI LATUS RECTUM
000097:                                                                                                  #                              -  -
000098:                                                                                                  #                ALFA = 2/RN - VN.VN / MU        RECIPROCAL SEMI MAJ AXIS, SIGNED
000099:
000100:                                                                                                  #        AND ALFA IS POS FOR ELLIPTIC ORBITS
000101:                                                                                                  #                     0  FOR PARABOLIC ORBITS
000102:                                                                                                  #                    NEG FOR HYPERBOLIC ORBITS.
000103:                                                                                                  #        SUBROUTINE ALSO COMPUTES AND SAVES RMAG.
000104:
000105:                                                                                                  #  CALLING SEQUENCE:
000106:                                                                                                  #        TFFCONIC  EXPECTS CALLER TO ENTER WITH CORRECT GRAVITATIONAL CONSTANT IN MPAC, IN THE FORM
000107:                                                                                                  #        1/SQRT(MU). PROGRAM WILL SAVE IN  TFF/RTMU  . THE SCALE IS DETERMINED BY WHETHER EARTH OR MOON
000108:                                                                                                  #        ORIGIN IS USED. THE CALLER MUST LOCK OUT THE EXTENDED VERBS BEFORE PROVIDING STATE VECTOR IN RONE,
000109:                                                                                                  #        VONE  AT PROPER SCALE. THE EXTENDED VERBS MUST BE RESTORED WHEN THE CALLER IS FINISHED USING THE
000110:                                                                                                  #        TFF ROUTINES.
000111:
000112:                                                                                                  #        ENTRY POINT  TFFCONMU  EXPECTS THAT  TFF/RTMU  IS ALREADY LOADED.
000113:
000114:                                                                                                  #        TO SPECIFY MU:  DLOAD   CALL                    IF MU ALREADY STORED:   CALL
000115:                                                                                                  #                                YOURMU          1/RTMU  E: (17)  M: (14)                TFFCONMU
000116:                                                                                                  #                                TFFCONIC
000117:
000118:                                                                                                  #        PUSHLOC = PDL+0, ARBITRARY IF LEQ 18D
000119:
000120:                                                                                                  #  SUBROUTINES CALLED:  NONE
000121:
000122:                                                                                                  #  NORMAL EXIT MODES:  RVQ
000123:
000124:                                                                                                  #  ALARMS:  NONE
000125:
000126:                                                                                                  #  OUTPUT:       THE FOLLOWING ARE STORED IN THE PUSH LIST AREA.
000127:                                                                                                  #                RMAG1           E:(-29) M:(-27) M  RN, PRESENT RADIUS LENGTH.
000128:                                                                                                  #                NRMAG           E: (-29+NR)     M  RMAG, NORMALIZED
000129:                                                                                                  #                                M: (-27+NR)
000130:                                                                                                  #                X1                              -NR, NORM COUNT
000131:                                                                                                  #                TFFNP           E: (-38+2NR)    M  LCP, SEMI LATUS RECTUM, WEIGHTED BY NR.      FOR VGAMCALC
000132:                                                                                                  #                                M: (-36+2NR)
000133:                                                                                                  #                TFF/RTMU        E:(17)  M:(14)  1/SQRT(MU)
000134:                                                                                                  #                TFFVSQ          E:(20)  M:(18)  1/M  -(V SQ/MU):  PRESENT VELOCITY, NORMLIZED.  FOR VGAMCALC
000135:                                                                                                  #                TFFALFA         E: (26-NR)      1/M  ALFA, WEIGHTED BY NR
000136:                                                                                                  #                                M: (24-NR)
000137:                                                                                                  #                TFFRTALF        E: (10+NA)      SQRT(ALFA), NORMALIZED
000138:                                                                                                  #                                M: (9+NA)


000140:                                                                                                  #                X2                              -NA, NORM COUNT
000141:                                                                                                  #                TFF1/ALF        E: (-22-2NA)    SIGNED SEMI MAJ AXIS, WEIGHTED BY NA
000142:                                                                                                  #                                M: (-20-2NA)
000143:                                                                                                  #                PUSHLOC AT PDL+0
000144:                                                                                                  #                THE FOLLOWING IS STORED IN GENERAL ERASABLE
000145:                                                                                                  #                VONE'           E:(10)  M:(9)   V/RT(MU), NORMALIZED VELOCITY
000146:
000147:                                                                                                  #  ERASABLE INITIALIZATION REQUIRED:
000148:                                                                                                  #                RONE            E:(-29) M:(-27) M       STATE VECTOR    LEFT BY CALLER
000149:                                                                                                  #                VONE            E:(-7)  M:(-5)  M/CS    STATE VECTOR    LEFT BY CALLER
000150:                                                                                                  #                TFF/RTMU        E:(17)  M:(14)  1/RT(CS SQ/M CUBE)      IF ENTER VIA  TFFCONMU.
000151:
000152:                                                                                                  #  DEBRIS:       QPRET,          PDL+0 ... PDL+3
000153:
000154: 27,2000                                           SETLOC   TOF-FF
000155: 27,2000                                           BANK
000156:
000157: 27,3151                                           COUNT*   $$/TFF
000158:
000159: 27,3151           00037        TFFCONIC           STORE    TFF/RTMU                              #  1/SQRT(MU)            E: (17)  M: (14)
000160:
000161: 27,3152           53575        TFFCONMU           VLOAD    UNIT                                  #  COME HERE WITH TFFRTMU LOADED.
000162: 27,3153           02320                                    RONE                                  #  SAVED RN.  M          E: (-29)  M: (-27)
000163: 27,3154           77725                           PDDL                                           #  UR/2 TO PDL+0, +5
000164: 27,3155           00045                                    36D                                   #  MAGNITUDE
000165: 27,3156           00015                           STORE    RMAG1                                 #  M     E: (-29)  M: (-27)
000166:
000167: 27,3157           77701                           NORM
000168: 27,3160           00047                                    X1                                    #  -NR
000169: 27,3161           24041                           STOVL    NRMAG                                 #  RMAG  M       E: (-29+NR)  M: (-27+NR)
000170: 27,3162           02326                                    VONE                                  #  SAVED VN.  M/CS       E: (-7)  M: (-5)
000171: 27,3163           77761                           VXSC
000172: 27,3164           00037                                    TFF/RTMU                              #  E: (17)  M: (14)
000173: 27,3165           02362                           STORE    VONE'                                 #  VN/SQRT(MU)  E:(10)  M:(9)
000174:
000175: 27,3166           47361                           VXSC     VXV
000176: 27,3167           00041                                    NRMAG                                 #  E: (-29+NR)  M: (-27+NR)
000177:                                                                                                  #  UR/2 FROM PDL
000178: 27,3170           47572                           VSL1     VSQ                                   #  BEFORE:  E:(-19+NR)  M:(-18+NR)
000179: 27,3171           14035                           STODL    TFFNP                                 #  LC P  M  E:(-38+2NR)  M:(-36+2NR)
000180:                                                                                                  #  SAVE ALSO FOR VGAMCALC
000181: 27,3172           15326                                    TFF1/4
000182: 27,3173           63271                           DDV      PDVL                                  #  (2/RMAG)  1/M  E:(26-NR)  M:(24-NR)
000183: 27,3174           00041                                    NRMAG                                 #  RMAG  M   E:(-29+NR)  M:(-27+NR)
000184: 27,3175           02362                                    VONE'                                 #  SAVED VN.   E: (10)   M: (9)
000185: 27,3176           57436                           VSQ      DCOMP                                 #  KEEP MPAC+2 HONEST FOR SQRT.
000186: 27,3177           00025                           STORE    TFFVSQ                                #  -(V SQ/MU)  E:(20)  M:(18)
000187:                                                                                                  #  SAVE FOR VGAMCALC
000188: 27,3200           43257                           SR*      DAD
000189: 27,3201           20573                                    0          -6,1                       #  GET -VSQ/MU  E:(26-NR)  M:(24-NR)


000191: 27,3202           77626                           STADR
000192:                                                                                                  #  2/RMAG  FROM PDL+2
000193: 27,3203           77744                           STORE    TFFALFA                               #  ALFA  1/M  E:(26-NR)  M:(24-NR)
000194: 27,3204           41457                           SL*      PUSH                                  #  TEMP SAVE ALFA  E:(20)  M:(18)
000195: 27,3205           20173                                    0          -6,1
000196: 27,3206           75446                           ABS      SQRT                                  #  E:(10)  M:(9)
000197: 27,3207           77701                           NORM
000198: 27,3210           00050                                    X2                                    #  X2 = -NA
000199: 27,3211           00031                           STORE    TFFRTALF                              #  SQRT( ABS(ALFA) )  E:(10+NA)  M:(9+NA)
000200: 27,3212           75316                           DSQ      SIGN                                  #  NOT SO ACCURATE, BUT OK
000201:                                                                                                  #  ALFA FROM PDL+2  E:(20)  M:(18)
000202: 27,3213           55254                           BZE      BDDV                                  #  SET 1/ALFA =0, TO SHOW SMALL ALFA
000203: 27,3214           57216                                    +2
000204: 27,3215           15326                                    TFF1/4
000205: 27,3216           00027                 +2        STORE    TFF1/ALF                              #  1/ALFA  E:(-22-2 NA)  M:(-20-2 NA)
000206: 27,3217           77616        DUMPCNIC           RVQ
000207:
000208:                                                                                                  #                        39 W
000209:


000211:
000212:                                                                                                  #  SUBROUTINE NAME:      TFFRP/RA                                        DATE: 01.17.67
000213:                                                                                                  #  MOD NO:  0                                                            LOG SECTION:  TIME OF FREE FALL
000214:                                                                                                  #  MOD BY:  RR BAIRNSFATHER
000215:                                                                                                  #  MOD NO:  1    MOD BY:  RR BAIRNSFATHER        DATE: 11 APR 67
000216:                                                                                                  #  MOD NO:  2    MOD BY:  RR BAIRNSFATHER        DATE: 21 MAR 68         ACCEPT DIFFERENT EARTH/MOON SCALES
000217:                                                                                                  #                                                                        ALSO IMPROVE ACCURACY OF RAPO.
000218:
000219:                                                                                                  #  FUNCTIONAL DESCRIPTION:       USED BY CALCTPER AND TFF DISPLAYS TO CALCULATE PERIGEE RADIUS AND ALSO
000220:                                                                                                  #        APOGEE RADIUS FOR A GENERAL CONIC.
000221:                                                                                                  #        PROGRAM GIVES PERIGEE RADIUS AS         APOGEE RADIUS IS GIVEN BY
000222:                                                                                                  #                RP = P /(1+E)                           RA = (1+E) / ALFA
000223:                                                                                                  #        WHERE    2
000224:                                                                                                  #                E  = 1 - P ALFA
000225:                                                                                                  #        IF RA IS NEGATIVE OR SHOWS DIVIDE OVERFLOW, THEN RA = POSMAX BECAUSE
000226:                                                                                                  #                1. APOGEE RADIUS IS NOT MEANINGFUL FOR HYPERBOLA
000227:                                                                                                  #                2. APOGEE RADIUS IS NOT DEFINED FOR PARABOLA
000228:                                                                                                  #                3. APOGEE RADIUS EXCEEDS THE SCALING FOR ELLIPSE.
000229:
000230:                                                                                                  #        THIS SUBROUTINE REQUIRES THE SIGNED RECIPROCAL SEMI MAJ AXIS, ALFA, AND SEMI LATUS RECTUM AS DATA.
000231:
000232:                                                                                                  #  CALLING SEQUENCE:     CALL
000233:                                                                                                  #                                TFFRP/RA
000234:
000235:                                                                                                  #        PUSHLOC = PDL+0, ARBITRARY IF LEQ 10D
000236:                                                                                                  #        C(MPAC) UNSPECIFIED
000237:
000238:                                                                                                  #  SUBROUTINES CALLED:   NONE
000239:
000240:                                                                                                  #  NORMAL EXIT MODE:     RVQ
000241:                                                                                                  #        IF ELLIPSE, WITHIN NORMAL SCALING, RAPO IS CORRECT.
000242:                                                                                                  #        OTHERWISE, RAPO = POSMAX.
000243:
000244:                                                                                                  #  ALARMS:       NONE
000245:
000246:                                                                                                  #  OUTPUT:       STORED IN PUSH LIST AREA. SCALE OF OUTPUT AGREES WITH DATA SUPPLIED TO  TFF/CONIC.
000247:                                                                                                  #        RPER    E:(-29)  M:(-27)        M       PERIGEE RADIUS                  DESTROYED BY CALCTFF/CALCTPER, TFFTRIG.
000248:                                                                                                  #        RAPO    E:(-29)  M:(-27)        M       APOGEE RADIUS                   WILL BE DESTROYED BY CALCTFF/CALCTPER
000249:                                                                                                  #        PUSHLOC AT PDL+0
000250:
000251:                                                                                                  #  ERASABLE INITIALIZATION REQUIRED:
000252:                                                                                                  #        TFFALFA E:(26-NR)               M       1/SEMI MAJ AXIS                 LEFT BY TFFCONIC
000253:                                                                                                  #                M:(24-NR)
000254:                                                                                                  #        TFFNP   E:(-38+2NR)             M       LC P, SEMI LATUS RECTUM         LEFT BY TFFCONIC
000255:                                                                                                  #                M:(-36+2NR)
000256:                                                                                                  #        X1                              -NR, NORM COUNT OF RMAG                 LEFT BY TFFCONIC
000257:                                                                                                  #        X2                              -NA, NORM COUNT OF ALFA                 LEFT BY TFFCONIC
000258:
000259:                                                                                                  #  DEBRIS:       QPRET, PDL+0 ... PDL+1
000260:


000262: 27,3220                        RAPO               =        16D                                   #  APOGEE RADIUS  M  E:(-29)  M:(-27)
000263: 27,3220                        RPER               =        14D                                   #  PERIGEE RADIUS  M  E:(-29)  M:(-27)
000264:
000265: 27,3220           41345        TFFRP/RA           DLOAD    DMP
000266: 27,3221           00033                                    TFFALFA                               #  ALFA  1/M     E:(26-NR)  M:(24-NR)
000267: 27,3222           00035                                    TFFNP                                 #  LC P  M       E:(-38+2NR)  M:(-36+2NR)
000268: 27,3223           57457                           SR*      DCOMP                                 #  ALFA P (-12+NR)
000269: 27,3224           20571                                    0          -8D,1                      #  ALFA P (-4)
000270: 27,3225           51415                           DAD      ABS                                   #  (DCOMP GIVES VALID TP RESULT FOR SQRT)
000271:                                                                                                  #  (ABS PROTECTS SQRT IF E IS VERY NEAR 0)
000272: 27,3226           31771                                    DP2(-4)
000273: 27,3227           43366                           SQRT     DAD                                   #  E SQ = (1- P ALFA)    (-4)
000274: 27,3230           15326                                    TFF1/4
000275: 27,3231           55206                           PUSH     BDDV                                  #  (1+E)  (-2)  TO PDL+0
000276: 27,3232           00035                                    TFFNP                                 #  LCP  M        E:(-38+2NR)  M:(-36+2NR)
000277: 27,3233           53657                           SR*      SR*                                   #  (DOES SR THEN SL TO AVOID OVFL)
000278: 27,3234           20601                                    0,1                                   #  X1=-NR
000279: 27,3235           20572                                    0          -7,1                       #  (EFFECTIVE SL)
000280: 27,3236           14017                           STODL    RPER                                  #  PERIGEE RADIUS  M     E:(-29)  M:(-27)
000281:                                                                                                  #  (1+E)  (-2)  FROM PDL+0
000282: 27,3237           41005                           DMP      BOVB
000283: 27,3240           00027                                    TFF1/ALF                              #  E:(-22-2NA)  M:(-20-2NA)
000284: 27,3241           57544                                    TCDANZIG                              #  CLEAR OVFIND, IF ON.
000285: 27,3242           53654                           BZE      SL*
000286: 27,3243           57252                                    MAXRA                                 #  SET POSMAX, IF ALFA=0
000287: 27,3244           57603                                    0          -5,2                       #  -5+NA
000288: 27,3245           40057                           SL*      BOV
000289: 27,3246           57576                                    0,2
000290: 27,3247           57252                                    MAXRA                                 #  SET POSMAX IF OVFL.
000291: 27,3250           77644                           BPL                                            #  CONTINUE WITH VALID RAPO.
000292: 27,3251           57254                                    +3
000293: 27,3252           77745        MAXRA              DLOAD                                          #  RAPO CALC IS NOT VALID. SET RAPO =
000294: 27,3253           15344                                    NEARONE                               #  POSMAX AS A TAG.
000295: 27,3254           00021                 +3        STORE    RAPO                                  #  APOGEE RADIUS  M  E:(-29)  M:(-27)
000296: 27,3255           77616        DUMPRPRA           RVQ
000297:
000298:                                                                                                  #                        30 W
000299:


000301:
000302:                                                                                                  #  SUBROUTINE NAME:      CALCTPER / CALCTFF                              DATE:  01.29.67
000303:                                                                                                  #  MOD NO:  0                                                            LOG SECTION:  TIME OF FREE FALL
000304:                                                                                                  #  MOD BY:  RR BAIRNSFATHER
000305:                                                                                                  #  MOD NO:  1    MOD BY:  RR BAIRNSFATHER        DATE: 21 MAR 67
000306:                                                                                                  #  MOD NO:  2    MOD BY:  RR BAIRNSFATHER        DATE: 14 APR 67
000307:                                                                                                  #  MOD NO:  3    MOD BY:  RR BAIRNSFATHER        DATE: 8 JUL 67          NEAR EARTH MUE AND NEG TFF (GONEPAST)
000308:                                                                                                  #  MOD NO:  4    MOD BY:  RR BAIRNSFATHER        DATE: 21 NOV 67         ADD VARIABLE MU.
000309:                                                                                                  #  MOD NO:  5    MOD BY:  RR BAIRNSFATHER        DATE: 21 MAR 68         ACCEPT DIFFERENT EARTH/MOON SCALES
000310:
000311:                                                                                                  #  FUNCTIONAL DESCRIPTION:       PROGRAM CALCULATES THE FREE-FALL TIME OF FLIGHT FROM PRESENT POSITION  RN  AND
000312:                                                                                                  #        VELOCITY  VN  TO A RADIUS LENGTH SPECIFIED BY  RTERM  , SUPPLIED BY THE USER. THE POSITION VECTOR
000313:                                                                                                  #        RN  MAY BE ON EITHER SIDE OF THE CONIC, BUT  RTERM  IS CONSIDERED ON THE INBOUND SIDE.
000314:                                                                                                  #        THE EQUATIONS ARE
000315:
000316:                                                                                                  #                Q2 = -SQRT(RTERM (2-RTERM ALFA) - LCP)  (INBOUND SIDE)) LEQ +- LCE/SQRT(ALFA)
000317:                                                                                                  #                     -  -
000318:                                                                                                  #                Q1 = RN.VN / SQRT(MU)                                   LEQ +- LCE/SQRT(ALFA)
000319:
000320:                                                                                                  #                Z = NUM / DEN                                           LEQ +- 1/SQRT(ALFA)
000321:
000322:                                                                                                  #        WHERE, IF INBOUND
000323:                                                                                                  #                NUM = RTERM - RN                                        LEQ +- 2 LCE/ALFA
000324:                                                                                                  #                DEN = Q2+Q1                                             LEQ +- 2 LCE/SQRT(ALFA)
000325:
000326:                                                                                                  #        AND, IF OUTBOUND
000327:                                                                                                  #                NUM = Q2-Q1                                             LEQ +- 2 LCE/SQRT(ALFA)
000328:                                                                                                  #                DEN = 2 - ALFA (RTERM + RN) .                           LEQ +- 2 LCE
000329:
000330:                                                                                                  #        IF      ALFA ZZ < 1.0           (FOR ALL CONICS EXCEPT ELLIPSES HAVING ABS(DEL ECC ANOM) G 90 DEG)
000331:
000332:                                                                                                  #        THEN    X = ALFA Z Z
000333:                                                                                                  #        AND     TFF = (RTERM +RN -2 ZZ T(X) ) Z/SQRT(MU)
000334:
000335:                                                                                                  #                EXCEPT  IF ALFA PNZ, AND IF TFF NEG,
000336:                                                                                                  #                THEN    TFF = 2 PI /(ALFA SQRT(ALFA)) + TFF
000337:
000338:                                                                                                  #        OR      IF ALFA ZZ GEQ 1.0      (FOR ELLIPSES HAVING ABS(DEL ECC ANOM) GEQ 90 DEG)
000339:
000340:                                                                                                  #        THEN    X = 1/ALFA Z Z
000341:                                                                                                  #        AND     TFF = (PI/SQRT(ALFA) -Q2 +Q1 +2(X T(X) -1) /ALFA Z) /ALFA SQRT(MU)
000342:
000343:                                                                                                  #        WHERE   T(X) IS A POLYNOMIAL APPROXIMATION TO THE SERIES
000344:                                                                                                  #                             2      3             2
000345:                                                                                                  #                1/3 - X/5 + X /7 - X /9 ...     (X  < 1.0)
000346:
000347:                                                                                                  #  CALLING SEQUENCE:     TIME TO RTERM                   TIME TO PERIGEE
000348:                                                                                                  #                        CALL                            CALL
000349:                                                                                                  #                                CALCTFF                         CALCTPER
000350:                                                                                                  #                        C(MPAC) = TERMNL RAD M          C(MPAC) = PERIGEE RAD M
000351:                                                                                                  #        FOR EITHER, E: (-29)    M: (-27)
000352:                                                                                                  #        FOR EITHER, PUSHLOC = PDL+0 , ARBITRARY IF LEQ 8D.


000354:
000355:                                                                                                  #  SUBROUTINES CALLED:   T(X), VIA RTB
000356:
000357:                                                                                                  #  NORMAL EXIT MODE:     RVQ
000358:                                                                                                  #        HOWEVER, PROGRAM EXITS WITH ONE OF THE FOLLOWING VALUES FOR TFF (-28) CS IN MPAC. USER MUST STORE.
000359:                                                                                                  #                A. TFF = FLIGHT TIME. NORMAL CASE FOR POSITIVE FLIGHT TIME LESS THAN ONE ORBITAL PERIOD.
000360:                                                                                                  #                B. (THIS OPTION IS NO LONGER USED.)
000361:                                                                                                  #                C. TFF = POSMAX.  THIS INDICATES THAT THE CONIC FROM THE PRESENT POSITION WILL NOT RETURN TO
000362:                                                                                                  #                   THE SPECIFIED ALTITUDE.  ALSO INDICATES OUTBOUND PARABOLA OR HYPERBOLA.
000363:
000364:                                                                                                  #  OUTPUT:       C(MPAC)         (-28) CS        TIME OF FLIGHT, OR TIME TO PERIGEE
000365:                                                                                                  #                TFFX            (0)             X,                                      LEFT FOR ENTRY DISPLAY TFF ROUTINES
000366:                                                                                                  #                NRTERM          E: (-29+NR)     M  RTERM, WEIGHTED BY NR                LEFT FOR ENTRY DISPLAY TFF ROUTINES
000367:                                                                                                  #                                M: (-27+NR)
000368:                                                                                                  #                TFFTEM          E: (-59+2NR)    LCP Z Z SGN(SDELF)                      LEFT FOR ENTRY DISPLAY TFF ROUTINES
000369:                                                                                                  #                                M: (-55+2NR)    LCP /ALFA SGN(SDELF)                    LEFT FOR ENTRY DISPLAY TFF ROUTINES
000370:                                                                                                  #                NOTE:   TFFTEM = PDL 36D AND WILL BE DESTROYED BY .:UNIT:.
000371:                                                                                                  #                RMAG1           E:(-29) M:(-27) PDL 12 NOT TOUCHED.
000372:                                                                                                  #                TFFQ1           E:(-16) M:(-15) PDL 14D
000373:                                                                                                  #                TFFDELQ         E:(-16) M:(-15) PDL 10D
000374:                                                                                                  #                PUSHLOC AT PDL+0
000375:
000376:                                                                                                  #  ERASABLE INITIALIZATION REQUIRED:
000377:                                                                                                  #                RONE            E:(-29) M:(-27) M  STATE VECTOR                         LEFT BY USER
000378:                                                                                                  #                VONE'           E:(+10) M:(+9)  VN/SQRT(MU)                             LEFT BY TFF/CONIC
000379:                                                                                                  #                RMAG1           E:(-29) M:(-27) PRESENT RADIUS, M                       LEFT BY TFFCONIC
000380:                                                                                                  #                C(MPAC)         E:(-29) M:(-27) RTERM, TERMINAL RADIUS LENGTH, M        LEFT BY USER
000381:
000382:                                                                                                  #                THE FOLLOWING ARE STORED IN THE PUSH LIST AREA.
000383:                                                                                                  #                TFF/RTMU        E:(17) M:(14)   1/SQRT(MU)                              LEFT BY TFFCONIC.
000384:                                                                                                  #                NRMAG           E: (-29+NR)     M  RMAG, NORMALIZED                     LEFT BY TFFCONIC
000385:                                                                                                  #                                M: (-27+NR)
000386:                                                                                                  #                X1                              -NR, NORM COUNT                         LEFT BY TFFCONIC
000387:                                                                                                  #                TFFNP           E: (-38+2NR)    M  LCP, SEMI LATUS RECTUM, WEIGHT NR    LEFT BY TFFCONIC
000388:                                                                                                  #                                M: (-36+2NR)
000389:                                                                                                  #                TFFALFA         E: (26-NR)      1/M  ALFA, WEIGHT NR                    LEFT BY TFFCONIC
000390:                                                                                                  #                                M: (24-NR)
000391:                                                                                                  #                TFFRTALF        E:(10+NA)       SQRT(ALFA), NORMALIZED                  LEFT BY TFFCONIC
000392:                                                                                                  #                                M:(9+NA)
000393:                                                                                                  #                X2                              -NA, NORM COUNT                         LEFT BY TFFCONIC
000394:                                                                                                  #                TFF1/ALF        E: (-22-2NA)    SIGNED SEMIMAJ AXIS, WEIGHTED BY NA     LEFT BY TFFCONIC
000395:                                                                                                  #                                M: (-20-2NA)
000396:
000397:                                                                                                  #  DEBRIS:       QPRET, PDL+0 ... PDL+3
000398:                                                                                                  #                RTERM           E:(-29) M:(-27) RTERM, TERMINAL RADIUS LENGTH
000399:                                                                                                  #                RAPO            E:(-29) M:(-27) PDL 16D (=NRTERM)
000400:                                                                                                  #                RPER            E:(-29) M:(-27) PDL 14D (=TFFQ1)
000401:


000403: 27,3256           77614        CALCTPER           SETGO                                          #  ENTER WITH RPER IN MPAC
000404: 27,3257           03436                                    TFFSW
000405: 27,3260           57263                                    +3
000406: 27,3261           77614        CALCTFF            CLEAR                                          #  ENTER WITH RTERM IN MPAC
000407: 27,3262           03676                                    TFFSW
000408: 27,3263           00023                 +3        STORE    RTERM                                 #  E: (-29)  M: (-27)
000409: 27,3264           77657                           SL*
000410: 27,3265           20201                                    0,1                                   #  X1=-NR
000411: 27,3266           00021                           STORE    NRTERM                                #  RTERM  E: (-29+NR)  M: (-27+NR)
000412: 27,3267           44205                           DMP      BDSU
000413: 27,3270           00033                                    TFFALFA                               #  ALFA  E: (26-NR)  M: (24-NR)
000414: 27,3271           15326                                    TFF1/4
000415: 27,3272           41206                           PUSH     DMP                                   #  (2-ALFA RTERM)  (-3)  TO PDL+0
000416: 27,3273           00021                                    NRTERM                                #  E: (-29+NR)  M: (-27+NR)
000417: 27,3274           53725                           PDDL     SR*                                   #  RTERM(2-ALFA RTERM) TO PDL+2
000418:                                                                                                  #  E: (-32+NR)  M: (-30+NR)
000419: 27,3275           00035                                    TFFNP                                 #  LC P  E:(-38+2NR)  M:(-36+2NR)
000420: 27,3276           20573                                    0          -6,1                       #  X1 = -NR
000421: 27,3277           43276                           DCOMP    DAD                                   #  DUE TO SHIFTS, KEEP PRECISION FOR SQRT
000422:                                                                                                  #  RTERM(2-ALFA RTERM) FROM PDL +2
000423:                                                                                                  #  E: (-32+NR)  M: (-30+NR)
000424: 27,3300           77657                           SR*                                            #  LEAVE  E: (-32)  M: (-30)
000425: 27,3301           20601                                    0,1                                   #  X1 = -NR
000426: 27,3302           71214                           BOFF     DLOAD                                 #  CHECK TFF /TPER SWITCH
000427: 27,3303           03756                                    TFFSW
000428: 27,3304           57306                                    +2                                    #  IF TFF, CONTINUE
000429: 27,3305           15336                                    TFFZEROS                              #  IF TPER, SET Q2 = 0
000430: 27,3306           75440                 +2        BMN      SQRT                                  #  E: (-16)  M: (-15)
000431:
000432: 27,3307           57441                                    MAXTFF1                               #  NO FREE FALL CONIC TO RTERM FROM HERE
000433:                                                                                                  #  RESET PDL, SET TFF=POSMAX, AND EXIT.
000434:
000435: 27,3310           41076                           DCOMP    BOVB                                  #  RT IS ON INBOUND SIDE.  ASSURE OVFIND=0
000436: 27,3311           57544                                    TCDANZIG                              #  ANY PORT IN A STORM.
000437: 27,3312           24045                           STOVL    TFFTEM                                #  Q2  E: (-16)  M: (-15)
000438: 27,3313           02362                                    VONE'                                 #  VN/SQRT(MU)  E: (10)  M: (9)
000439: 27,3314           52441                           DOT      SL3
000440: 27,3315           02320                                    RONE                                  #  SAVED RN.  E: (-29)  M: (-27)
000441: 27,3316           00017                           STORE    TFFQ1                                 #  Q1, SAVE FOR GONEPAST TEST.
000442:                                                                                                  #  E: (-16)  M: (-15)
000443: 27,3317           44240                           BMN      BDSU
000444: 27,3320           57341                                    INBOUND                               #  USE ALTERNATE Z
000445: 27,3321           00045                                    TFFTEM                                #  Q2  E: (-16)  M: (-15)
000446:
000447:                                                                                                  #  OUTBOUND Z CALC CONTINUES HERE
000448:
000449: 27,3322           14043                           STODL    TFFX                                  #  NUM=Q2-Q1  E: (-16)  M: (-15)
000450: 27,3323           00033                                    TFFALFA                               #  ALFA  E: (26-NR)  M: (24-NR)
000451: 27,3324           44205                           DMP      BDSU


000453: 27,3325           00041                                    NRMAG                                 #  RMAG  E: (-29+NR) M: (-27+NR)
000454:                                                                                                  #  (2-RTERM ALFA)  (-3) FROM PDL+0
000455: 27,3326           51406        SAVEDEN            PUSH     ABS                                   #  DEN TO PDL+0  E: (-3) OR (-16)
000456:                                                                                                  #                M: (-3) OR (-15)
000457: 27,3327           40015                           DAD      BOV                                   #  INDETERMINANCY TEST
000458: 27,3330           31763                                    LIM(-22)                              #  =1.0-B(-22)
000459: 27,3331           57352                                    TFFXTEST                              #  GO IF DEN >/= B(-22)
000460: 27,3332           65345                           DLOAD    PDDL                                  #  SET DEN=0 OTHERWISE
000461: 27,3333           15336                                    TFFZEROS
000462:                                                                                                  #  XCH ZERO WITH PDL+0
000463: 27,3334           57545                           DLOAD    DCOMP
000464: 27,3335           00033                                    TFFALFA                               #  ALFA  E: (26-NR)  M: (24-NR)
000465: 27,3336           71240                           BMN      DLOAD                                 #  FOR TPER:  Z INDET AT DELE/2=0 AND 90.
000466: 27,3337           57446                                    TFFEL1                                #  ASSUME 90, AND LEAVE 0 IN PDL: 1/Z=D/N
000467:
000468:                                                                                                  #  Z INDET. AT PERIGEE FOR PARAB OR HYPERB.
000469: 27,3340           77616        DUMPTFF1           RVQ                                            #  RETURN TFF =0
000470:
000471:                                                                                                  #  INBOUND Z CALC CONTINUES HERE
000472: 27,3341           77745        INBOUND            DLOAD                                          #  RESET PDL+0
000473: 27,3342           45345                           DLOAD    DSU                                   #  ALTERNATE Z CALC
000474: 27,3343           00023                                    RTERM                                 #  E: (-29)  M: (-27)
000475: 27,3344           00015                                    RMAG1                                 #  E: (-29)  M: (-27)
000476: 27,3345           14043                           STODL    TFFX                                  #  NUM=RTERM-RN  E: (-29)  M: (-27)
000477: 27,3346           00045                                    TFFTEM                                #  Q2  E: (-16)  M: (-15)
000478: 27,3347           52015                           DAD      GOTO
000479: 27,3350           00017                                    TFFQ1                                 #  Q1  E: (-16)  M:(-15)
000480: 27,3351           57326                                    SAVEDEN                               #  DEN = Q2+Q1  E: (-16)  M: (-15)
000481:
000482: 27,3352           65215        TFFXTEST           DAD      PDDL                                  #   (ABS(DEN) TO PDL+2)) E: (-3) OR (-16)
000483:                                                                                                  #                        M: (-3) OR (-15)
000484: 27,3353           31765                                    DP(-22)                               #  RESTORE ABS(DEN) TO MPAC
000485: 27,3354           00043                                    TFFX                                  #  NUM  E:(-16) OR (-29)  M:(-15) OR (-27)
000486: 27,3355           53605                           DMP      SR*
000487: 27,3356           00031                                    TFFRTALF                              #  SQRT(ALFA)  E: (10+NA)  M: (9+NA)
000488: 27,3357           57201                                    0          -3,2                       #  X2=-NA
000489: 27,3360           77671                           DDV                                            #  C(MPAC) =NUM SQRT(ALFA)       E:(-3) OR (-16)
000490:                                                                                                  #                                M:(-3) OR (-15)
000491:                                                                                                  #  ABS(DEN) FROM PDL+2   E:(-3) OR (-16)
000492:                                                                                                  #                        M:(-3) OR (-15)
000493: 27,3361           40145                           DLOAD    BOV                                   #  (THE DLOAD IS SHARED WITH TFFELL)
000494: 27,3362           00043                                    TFFX                                  #  NUM  E: (-16) OR (-29)  M:(-15) OR (-27)
000495: 27,3363           57444                                    TFFELL                                #  USE EQN FOR DELE GEQ 90, LEQ -90
000496:
000497:                                                                                                  #  OTHERWISE, CONTINUE FOR GENERAL CONIC FOR TFF EQN
000498:
000499: 27,3364           45471                           DDV      STADR
000500:                                                                                                  #  DEN FROM PDL+0        E: (-3) OR (-16)
000501:                                                                                                  #                        M: (-3) OR (-15)
000502: 27,3365           77732                           STORE    TFFTEM                                #  Z  SAVE FOR SIGN OF SDELF.


000504:                                                                                                  #  E: (-13)  M: (-12)
000505: 27,3366           63406                           PUSH     DSQ                                   #  Z TO PDL+0
000506: 27,3367           41206                           PUSH     DMP                                   #  Z SQ TO PDL+2  E: (-26)  M: (-24)
000507: 27,3370           00035                                    TFFNP                                 #  LC P  E: (-38+2NR)  M: (-36+2NR)
000508: 27,3371           75261                           SL       SIGN
000509: 27,3372           20206                                    5
000510: 27,3373           00045                                    TFFTEM                                #  AFFIX SIGN FOR SDELF (ENTRY DISPLAY)
000511: 27,3374           14045                           STODL    TFFTEM                                #  P ZSQ  E: (-59+2NR)  M: (-55+2NR)
000512:                                                                                                  #  (ARG IS USED IN TFF/TRIG)
000513:                                                                                                  #  ZSQ FROM PDL+2  E: (-26)  M: (-24)
000514: 27,3375           41206                           PUSH     DMP                                   #  RESTORE PUSH LOC
000515: 27,3376           00033                                    TFFALFA                               #  ALFA  E: (26-NR)  M: (24-NR)
000516: 27,3377           77657                           SL*
000517: 27,3400           20201                                    0,1                                   #  X1=-NR
000518: 27,3401           00043                           STORE    TFFX                                  #  X
000519: 27,3402           41234                           RTB      DMP
000520: 27,3403           57526                                    T(X)                                  #   POLY
000521:                                                                                                  #  ZSQ FROM PDL+2  E: (-26)  M: (-24)
000522: 27,3404           44302                           SR2      BDSU                                  #  2 ZSQ T(X)  E: (-29)  M: (-27)
000523: 27,3405           00023                                    RTERM                                 #  RTERM  E: (-29)  M: (-27)
000524: 27,3406           41215                           DAD      DMP
000525: 27,3407           00015                                    RMAG1                                 #  E: (-29)  M: (-27)
000526:                                                                                                  #  Z FROM PDL+0  E: (-13)  M: (-12)
000527: 27,3410           51042                           SR3      BPL                                   #  TFF SQRT(MU)  E: (-45)  M: (-42)
000528: 27,3411           57432                                    ENDTFF                                #  (NO PUSH UP)
000529: 27,3412           75206                           PUSH     SIGN                                  #  TFF SQRT(MU)  TO PDL+0
000530: 27,3413           00017                                    TFFQ1                                 #  Q1 FOR GONEPAST TEST
000531: 27,3414           71244                           BPL      DLOAD                                 #  GONE PAST ?
000532: 27,3415           57436                                    NEGTFF                                #  YES. TFF < 0.
000533: 27,3416           00027                                    TFF1/ALF                              #  1/ALFA  E: (-22-2NA)  M: (-20-2NA)
000534: 27,3417           51076                           DCOMP    BPL                                   #  ALFA > 0 ?
000535: 27,3420           57436                                    NEGTFF                                #  NO. TFF IS NEGATIVE.
000536:
000537:                                                                                                  #  CORRECT FOR ORBITAL PERIOD.
000538:
000539: 27,3421           77676                           DCOMP                                          #  YES.  CORRECT FOR ORB PERIOD.
000540: 27,3422           56205                           DMP      DDV
000541: 27,3423           31761                                    PI/16                                 #  2 PI (-5)
000542: 27,3424           00031                                    TFFRTALF                              #  SQRT(ALFA)  E: (10+NA)  M: (9+NA)
000543: 27,3425           53657                           SL*      SL*
000544: 27,3426           57602                                    0          -4,2                       #  X2=-NA
000545: 27,3427           57602                                    0          -4,2
000546: 27,3430           43257                           SL*      DAD
000547: 27,3431           57576                                    0,2
000548:                                                                                                  #  TFF SQRT(MU) FROM PDL+0       E:(-45) M:(-42)
000549: 27,3432           40005        ENDTFF             DMP      BOV                                   #  TFF SQRT(MU) IN MPAC          E:(-45) M:(-42)
000550: 27,3433           00037                                    TFF/RTMU                              #  E: (17)  M: (14)
000551: 27,3434           57442                                    MAXTFF                                #  SET POSMAX IF OVFL.
000552:
000553: 27,3435           77616        DUMPTFF2           RVQ                                            #  RETURN TFF    (-28) CS IN MPAC.
000554:


000556: 27,3436           77745        NEGTFF             DLOAD
000557:                                                                                                  #  TFF SQRT(MU) FROM PDL+0, NEGATIVE.
000558: 27,3437           77650                           GOTO
000559: 27,3440           57432                                    ENDTFF
000560:
000561: 27,3441           77745        MAXTFF1            DLOAD                                          #  RESET PDL
000562: 27,3442           43545        MAXTFF             DLOAD    RVQ
000563: 27,3443           15344                                    NEARONE
000564:
000565:                                                                                                  #  TIME OF FLIGHT ELLIPSE WHEN DEL (ECCENTRIC ANOM) GEQ 90 AND LEQ -90.
000566:
000567:                                                                                                  #  NUM FROM TFFX.        E: (-16) OR (-29)
000568:                                                                                                  #                        M: (-15) OR (-27)
000569: 27,3444           77712        TFFELL             SL2                                            #  NUM  E:(-14) OR (-27)  M:(-13) OR (-25)
000570: 27,3445           41465                           BDDV     PUSH                                  #  TEMP SAVE D/N IN PDL+0
000571:                                                                                                  #  DEN FROM PDL+0  E:(-3)/( 16)  M:(-3)/(-15)
000572:                                                                                                  #  N/D TO PDL+0  E: (11)  M: (10)
000573: 27,3446           45345        TFFEL1             DLOAD    DSU                                   #  (ENTER WITH D/N=0 IN PDL+0)
000574: 27,3447           00045                                    TFFTEM                                #  Q2  E: (-16)  M: (-15)
000575: 27,3450           00017                                    TFFQ1                                 #  Q1  E: (-16)  M: (-15)
000576: 27,3451           14013                           STODL    TFFDELQ                               #  Q2-Q1  E: (-16)  M: (-15)
000577:                                                                                                  #  D/N FROM PDL+0
000578: 27,3452           77626                           STADR
000579: 27,3453           77732                           STORE    TFFTEM                                #  D/N  E: (11)  M: (10)
000580: 27,3454           53605                           DMP      SL*
000581: 27,3455           00027                                    TFF1/ALF                              #  1/ALFA  E: (-22-2NA)  M: (-20-2NA)
000582: 27,3456           57576                                    0,2                                   #  1/ALFA Z  E: (-11-NA)  M: (-10-NA)
000583: 27,3457           41206                           PUSH     DMP                                   #  TO PDL+0
000584: 27,3460           00045                                    TFFTEM                                #  1/Z  E: (11)  M: (10)
000585: 27,3461           41057                           SL*      BOVB
000586: 27,3462           57576                                    0,2                                   #  X2= -NA
000587: 27,3463           45761                                    SIGNMPAC                              #  IN CASE X= 1.0, CONTINUE
000588: 27,3464           00043                           STORE    TFFX                                  #  X=1/ALFA ZSQ
000589: 27,3465           41234                           RTB      DMP
000590: 27,3466           57526                                    T(X)                                  #  POLY
000591: 27,3467           00043                                    TFFX
000592: 27,3470           45242                           SR3      DSU
000593: 27,3471           31767                                    DP2(-3)
000594: 27,3472           41405                           DMP      PUSH                                  #  2(X T(X)-1) /Z ALFA   E: (-15-NA)
000595:                                                                                                  #                        M: (-14-NA)
000596:                                                                                                  #  1/ALFA Z FROM PDL+0   E: (-11-NA)
000597:                                                                                                  #                        M: (-10-NA)
000598: 27,3473           41345                           DLOAD    DMP                                   #  GET SIGN FOR SDELF
000599: 27,3474           00045                                    TFFTEM                                #  1/Z  E: (11)  M: (10)
000600: 27,3475           00015                                    RMAG1                                 #  E: (-29)  M: (-27)
000601: 27,3476           43312                           SL2      DAD
000602: 27,3477           00017                                    TFFQ1                                 #  Q1  E: (-16)  M: (-15)
000603: 27,3500           14045                           STODL    TFFTEM                                #  (Q1+R 1/Z) =SGN OF SDELF  E:(-16) M:(-15
000604: 27,3501           00035                                    TFFNP                                 #  LC P  E: (-38+2NR)  M: (-36+2NR)
000605: 27,3502           53605                           DMP      SL*                                   #  CALC FOR ARG FOR TFF/TRIG.


000607: 27,3503           00027                                    TFF1/ALF                              #  1/ALFA  E:(-22-2NA)  M:(-20-2NA)
000608: 27,3504           57575                                    1,2                                   #  X2=-NA
000609: 27,3505           53765                           SIGN     SL*
000610: 27,3506           00045                                    TFFTEM                                #  AFFIX SIGN FOR SDELF
000611: 27,3507           57576                                    0,2
000612: 27,3510           14045                           STODL    TFFTEM                                #  P/ALFA  E:(-59+2NR)  M:(-55+2NR)
000613:                                                                                                  #  (ARG FOR USE IN TFF/TRIG)
000614: 27,3511           00027                                    TFF1/ALF                              #  1/ALFA  E:(-22-2NA)  M:(-20-2NA)
000615: 27,3512           41366                           SQRT     DMP
000616: 27,3513           31761                                    PI/16                                 #  PI (-4)
000617: 27,3514           77615                           DAD
000618:                                                                                                  #  2(XT(X)-1)/Z ALFA FROM PDL    E:(-15-NA)
000619:                                                                                                  #                                M:(-14-NA)
000620: 27,3515           45257                           SL*      DSU
000621: 27,3516           57577                                    0          -1,2
000622: 27,3517           00013                                    TFFDELQ                               #  Q2-Q1  E: (-16)  M: (-15)
000623: 27,3520           53605                           DMP      SL*
000624: 27,3521           00027                                    TFF1/ALF                              #  1/ALFA  E:(-22-2NA)  M:(-20-2NA)
000625: 27,3522           57601                                    0          -3,2
000626: 27,3523           52057                           SL*      GOTO
000627: 27,3524           57602                                    0          -4,2
000628: 27,3525           57432                                    ENDTFF                                #  TFF SQRT(MU) IN MPAC E:(-45) M:(-42)
000629:


000631:
000632:                                                                                                  #  PROGRAM NAME:         T(X)                                            DATE:  01.17.67
000633:                                                                                                  #  MOD NO:  0                                                            LOG SECTION:  TIME OF FREE FALL
000634:                                                                                                  #  MOD BY:  RR BAIRNSFATHER
000635:
000636:                                                                                                  #  FUNCTIONAL DESCRIPTION:       THE POLYNOMIAL T(X) IS USED BY TIME OF FLIGHT SUBROUTINES  CALCTFF AND
000637:                                                                                                  #        CALCTPER TO APPROXIMATE THE SERIES
000638:                                                                                                  #                           2     3
000639:                                                                                                  #                1/3 -X/5 +X /7 -X /9 ...
000640:
000641:                                                                                                  #        WHERE   X = ALFA Z Z            IF ALFA Z Z LEQ 1
000642:                                                                                                  #                X = 1/(ALFA Z Z)        IF ALFA Z Z  G  1
000643:
000644:                                                                                                  #        ALSO    X IS NEG FOR HYPERBOLIC ORBITS
000645:                                                                                                  #                X = 0 FOR PARABOLIC ORBITS
000646:                                                                                                  #                X IS POSITIVE FOR ELLIPTIC ORBITS
000647:                                                                                                  #        FOR FLIGHT 278, THE POLYNOMIAL T(X) IS FITTED OVER THE RANGE  (0,+1)  AND HAS A MAXIMUM
000648:                                                                                                  #        DEVIATION FROM THE SERIES OF  2 E-5   (T(X) IS A CHEBYCHEV TYPE FIT AND WAS OBTAINED USING
000649:                                                                                                  #        MAC PROGRAM AUTCURFIT294RRB AND IS VALID TO THE SAME TOLERANCE OVER THE RANGE  (-.08,+1). )
000650:
000651:                                                                                                  #  CALLING SEQUENCE:     RTB
000652:                                                                                                  #                                T(X)
000653:                                                                                                  #        C(MPAC) = X
000654:
000655:                                                                                                  #  SUBROUTINES CALLED:  NONE
000656:
000657:                                                                                                  #  NORMAL EXIT MODE:    TC DANZIG
000658:
000659:                                                                                                  #  ALARMS:  NONE
000660:
000661:                                                                                                  #  OUTPUT:  C(MPAC) = T(X)
000662:
000663:                                                                                                  #  ERASABLE INITIALIZATION REQUIRED:
000664:                                                                                                  #        C(MPAC) = X
000665:
000666:                                                                                                  #  DEBRIS:  NONE
000667:
000668: 27,3526           07171        T(X)               TC       POLY
000669: 27,3527           00004                           DEC      4          B-14                       #  N-1
000670: 27,3530           12525 12525                     2DEC     3.333333333 E-1
000671: 27,3532           71463 57703                     2DEC*    -1.999819135 E-1*
000672: 27,3534           04423 17645                     2DEC*    1.418148467 E-1*
000673: 27,3536           74604 43667                     2DEC*    -1.01310997 E-1*
000674: 27,3540           01626 37256                     2DEC*    5.609004986 E-2*
000675: 27,3542           77404 52071                     2DEC*    -1.536156925 E-2*
000676:
000677: 27,3544           06030        ENDT(X)            TC       DANZIG
000678:
000679: 27,3545  27,3544               TCDANZIG           =        ENDT(X)
000680:


000682:                                                                                                  #  TFF CONSTANTS
000683:
000684: 34,2000                                           SETLOC   TOF-FF1
000685: 34,2000                                           BANK
000686:
000687: 34,3756                                           COUNT*   $$/TFF
000688:                                                                                                  #                                                NOTE _  NOTE _ ADJUSTED MUE FOR NEAR EARTH TRAJ.
000689:


000694:
000695:                                                                                                  # MUE            =       3.990815471 E10         M CUBE/CS SQ
000696:                                                                                                  # RTMUE          =       1.997702549 E5 B-18*    MODIFIED EARTH MU
000697:
000698: 34,3756           24775 30424  1/RTMU             2DEC*    .5005750271 E-5        B17*            #  MODIFIED EARTH MU
000699:


000701:
000702:                                                                                                  #                                                NOTE _  NOTE _ ADJUSTED MUE FOR NEAR EARTH TRAJ.
000703:                                                                                                  # MUM            =       4.902778 E8             M CUBE/CS SQ
000704:                                                                                                  # RTMUM          2DEC*   2.21422176 E4 B-18*
000705: 34,3760           06220 37553  PI/16              2DEC     3.141592653 B-4
000706: 34,3762           37777 37700  LIM(-22)           2OCT     3777737700                            #  1.0 -B(-22)
000707: 34,3764           00000 00100  DP(-22)            2OCT     0000000100                            #  B(-22)
000708: 34,3766           04000 00000  DP2(-3)            2DEC     1          B-3
000709: 34,3770           02000 00000  DP2(-4)            2DEC     1          B-4                        #  1/16
000710:
000711:                                                                                                  #  RPAD1         2DEC    6373338 B-29            M (-29) = 20 909 901.57 FT
000712: 34,3772  22,3172               RPAD1              =        RPAD
000713: 34,3772  26,3343               NEARONE            EQUALS   DPPOSMAX
000714: 34,3772  26,3335               TFFZEROS           EQUALS   HI6ZEROS
000715: 34,3772  26,3325               TFF1/4             EQUALS   HIDP1/4

End of include-file TIME_OF_FREE_FALL.agc.  Parent file is MAIN.agc


