
Source Code


000002:                                                                                                  ## Copyright:   Public domain.
000003:                                                                                                  ## Filename:    TVCDAPS.agc
000004:                                                                                                  ## Purpose:     Part of the source code for Artemis (i.e., Colossus 3),
000005:                                                                                                  ##              build 072.  This is for the Command Module's (CM)
000006:                                                                                                  ##              Apollo Guidance Computer (AGC), for
000007:                                                                                                  ##              Apollo 15-17.
000008:                                                                                                  ## Assembler:   yaYUL
000009:                                                                                                  ## Contact:     Steve Case <case1780@adelphia.net>
000010:                                                                                                  ## Website:     www.ibiblio.org/apollo/index.html
000011:                                                                                                  ## Page Scans:  www.ibiblio.org/apollo/ScansForConversion/Artemis072/
000012:                                                                                                  ## Mod history: 2009-09-13 SMC  Adapted from Comanche055 files.
000013:                                                                                                  ##              2009-09-14 JL   Fix typos. Fix page numbers. Remove change comments. Restore hard tabs.
000014:                                                                                                  ##              2010-02-20 RSB  Un-##'d this header.
000015:                                                                                                  ##              2017-02-09 RSB  Proofed comment text by diff'ing vs Comanche 55
000016:                                                                                                  ##                              and/or octopus/ProoferComments as most-appropriate.
000017:


000019:                                                                                                  #  PROGRAM NAME....TVCDAP, CONSISTING OF PITCHDAP, YAWDAP, ETC.
000020:                                                                                                  #  LOG SECTION...TVCDAPS                         SUBROUTINE...DAPCSM
000021:                                                                                                  #  MODIFIED BY SCHLUNDT                          21 OCTOBER 1968
000022:                                                                                                  #  FUNCTIONAL DESCRIPTION....
000023:
000024:                                                                                                  #        SELF-PERPETUATING T5 TASKS WHICH GENERATE THE COMMAND SIGNALS
000025:                                                                                                  #        FOR THE PITCH AND YAW SPS GIMBAL ACTUATORS DURING TVC (SPS) BURNS,
000026:                                                                                                  #        IN RESPONSE TO BODY-AXIS RATE COMMANDS FROM CROSS-PRODUCT STEERING
000027:                                                                                                  #        (S40.8).  IF NO STEERING (IMPULSIVE BURNS) MAINTAINS ATTITUDE-HOLD
000028:                                                                                                  #        ABOUT THE REFERENCE (INITIAL) DIRECTIONS (ZERO RATE COMMANDS).
000029:
000030:                                                                                                  #        THE PITCH AND YAW LOOPS ARE SEPARATE, BUT STRUCTURED IDENTICALLY.
000031:                                                                                                  #        EACH ATTITUDE-RATE LOOP INCLUDES GIMBAL ANGLE RATE DERIVATION,
000032:                                                                                                  #        GIMBAL/BODY AXIS TRANSFORMATION, BODY-AXIS ATTITUDE ERROR
000033:                                                                                                  #        INTEGRATION WITH ERROR LIMITING, THE GENERALIZED 6TH-ORDER FILTER
000034:                                                                                                  #        FOR CSM OR CSM/LM OPERATION, A FILTER OUTPUT LIMITER,
000035:                                                                                                  #        CG-OFFSET TRACKER FILTER, AND THE CG-TRACKER MINOR LOOP.
000036:
000037:                                                                                                  #        THE DAPS ARE CYCLIC, CALLING EACH OTHER AT 1/2 THE DAP SAMPLE
000038:                                                                                                  #        TIME, AS DETERMINED BY T5TVCDT. THE ACTUATOR COMMANDS ARE
000039:                                                                                                  #        REGENERATED AS ANALOG VOLTAGES BY THE OPTICS ERROR COUNTERS, WHICH
000040:                                                                                                  #        TRANSMIT THE SIGNAL TO THE ACTUATOR SERVOS WHEN THERE IS PROPER CDU
000041:                                                                                                  #        MODING.
000042:
000043:                                                                                                  #  CALLING SEQUENCE.... (TYPICALLY)
000044:
000045:                                                                                                  #        T5 CALL OF TVCDAPON (TVCINITIALIZE) BY DOTVCON (P40)
000046:                                                                                                  #        T5 CALL OF DAPINIT (TVCDAPS) BY TVCINIT4 (TVCINITIALIZE)
000047:                                                                                                  #        T5 CALL OF PITCHDAP BY DAPINIT
000048:                                                                                                  #        T5 CALL OF YAWDAP BY PITCHDAP
000049:                                                                                                  #        T5 CALL OF PITCHDAP BY YAWDAP
000050:                                                                                                  #                ETC.
000051:                                                                                                  #        (AUTOMATIC SEQUENCING FROM TVCDAPON)
000052:
000053:                                                                                                  #  NORMAL EXIT MODE....RESUME
000054:
000055:                                                                                                  #  ALARM OR ABORT EXIT MODES....NONE
000056:
000057:                                                                                                  #  SUBROUTINES CALLED....
000058:
000059:                                                                                                  #        HACK FOR STROKE TEST (V68) WAVEFORM GENERATION
000060:                                                                                                  #        PCOPY, YCOPY FOR COPY-CYCLES (USED ALSO BY TVC RESTART PACKAGE)
000061:                                                                                                  #        DAPINIT FOR INITIAL CDUS FOR RATE MEASUREMENTS
000062:                                                                                                  #        ERRORLIM, ACTLIM FOR INPUT (ATTITUDE-ERROR INTEGRATION) AND
000063:                                                                                                  #                OUTPUT (ACTUATOR COMMAND) LIMITING, COMMON TO PITCH AND
000064:                                                                                                  #                YAW DAPS
000065:                                                                                                  #        FWDFLTR (INCLUDING OPTVARK) AND PRECOMP, TO COMPUTE FILTER
000066:                                                                                                  #                OUTPUTS AND STORAGE VALUES
000067:                                                                                                  #        RESUME
000068:


000070:                                                                                                  #  OTHER INTERFACES....
000071:
000072:                                                                                                  #        S40.8 CROSS-PRODUCT STEERING FOR BODY AXIS RATE  COMMANDS OMEGAY,ZC
000073:                                                                                                  #        S40.15 FOR THE INITIAL DAP GAINS VARK AND 1/CONACC
000074:                                                                                                  #        TVCEXECUTIVE FOR DAP GAIN UPDATES AND TMC LOOP OPERATIONS
000075:                                                                                                  #        TVCRESTART PACKAGE FOR TVC RESTART PROTECTION.
000076:
000077:                                                                                                  #  ERASABLE INITIALIZATION REQUIRED....
000078:
000079:                                                                                                  #        PAD-LOAD ERASABLES ( SEE ERASABLE ASSIGNMENTS )
000080:                                                                                                  #        CONFIGURATION BITS  (14, 13)  OF DAPDATR1 AS IN R03
000081:                                                                                                  #        ENGINE-ON BIT (11.13) FOR RESTARTS
000082:                                                                                                  #        TVCPHASE FOR RESTARTS ( SEE DOTVCON, AND TVCINIT4 )
000083:                                                                                                  #        T5 BITS (15,14 OF FLAGWRD6) FOR RESTARTS
000084:                                                                                                  #        MISCELLANEOUS VARIABLES SET UP OR COMPUTED BY TVCDAPON....TVCINIT4,
000085:                                                                                                  #                INCLUDING THE ZEROING OF TEMPORARIES BY  MRCLEAN
000086:                                                                                                  #        CDUX,Y,Z AND SINCDUX....COSCDUZ AS PREPARED BY QUICTRIG (WITH
000087:                                                                                                  #                UPDATES EVERY 1/2 SECOND)
000088:                                                                                                  #        ALSO G+N PRIMARY, TVC ENABLE, AND OPTICS ERROR COUNTER ENABLE
000089:                                                                                                  #                UNLESS BENCH-TESTING.
000090:
000091:                                                                                                  #  OUTPUT....
000092:
000093:                                                                                                  #        TVCPITCH AND TVCYAW WITH COUNTER RELEASE (11.14 AND 11.13 INCREMEN-
000094:                                                                                                  #                TAL  COMMANDS TO OPTICS ERROR COUNTERS), FILTER NODES, BODY-
000095:                                                                                                  #                AXIS ATTITUDE ERROR INTEGRATOR, TOTAL ACTUATOR COMMANDS,
000096:                                                                                                  #                OFFSET-TRACKER-FILTER OUTPUTS, ETC.
000097:                                                                                                  #  DEBRIS....
000098:
000099:                                                                                                  #        MUCH, SHAREABLE WITH RCS/ENTRY, IN EBANK6 ONLY
000100:
000101: 20,2000                                           SETLOC   DAPS2
000102: 20,2000                                           BANK
000103:
000104: 20,2644  E6,1446                                  EBANK=   CNTR
000105:
000106:
000107: 20,2644                                           COUNT*   $$/DAPS
000108:


000110:
000111:                                                                                                  #  PITCH TVCDAP STARTS HERE....(INCORPORATES CSM/LEM DAP FILTER,  MODOR DESIGN)
000112:
000113:
000114: 20,2644           22016        PITCHDAP           LXCH     BANKRUPT                              #  T5 ENTRY, NORMAL OR VIA DAPINIT
000115: 20,2645           00006                           EXTEND
000116: 20,2646           22012                           QXCH     QRUPT
000117:
000118: 20,2647           33620                           CAF      YAWT5                                 #  SET UP T5 CALL FOR YAW AUTOPILOT (LOW-
000119: 20,2650           54112                           TS       T5LOC                                 #        ORDER PART OF 2CADR ALREADY THERE)
000120: 20,2651           31625                           CAE      T5TVCDT
000121: 20,2652           54030                           TS       TIME5
000122:
000123: 20,2653           30033        PCDUDOTS           CAE      CDUY                                  #  COMPUTE CDUYDOT
000124: 20,2654           57636                           XCH      PCDUYPST
000125: 20,2655           00006                           EXTEND
000126: 20,2656           21636                           MSU      PCDUYPST
000127: 20,2657           02670                           TCR      RLIMTEST                              #        RATE TEST
000128: 20,2660           55642                           TS       MCDUYDOT                              #        (MINUS,  SC.AT  1/2TVCDT REVS/SEC)
000129:
000130: 20,2661           30034                           CAE      CDUZ                                  #  COMPUTE CDUZDOT
000131: 20,2662           57637                           XCH      PCDUZPST
000132: 20,2663           00006                           EXTEND
000133: 20,2664           21637                           MSU      PCDUZPST
000134: 20,2665           02670                           TCR      RLIMTEST                              #        RATE TEST
000135: 20,2666           55643                           TS       MCDUZDOT                              #        (MINUS,  SC.AT  1/2TVCDT REVS/SEC)
000136: 20,2667           12701                           TCF      PINTEGRL
000137:
000138: 20,2670           55611        RLIMTEST           TS       TTMP1                                 #  TEST FOR EXCESSIVE CDU RATES (GREATER
000139: 20,2671           00006                           EXTEND                                         #        THAN 2.33 DEG IN ONE SAMPLE PERIOD)
000140: 20,2672           73621                           MP       1/RTLIM                               #        (USED BY PITCH AND YAW PASSES)
000141: 20,2673           00006                           EXTEND
000142: 20,2674           12677                           BZF      +3
000143: 20,2675           34772                           CAF      ZERO
000144: 20,2676           55611                           TS       TTMP1
000145: 20,2677           31611                           CAE      TTMP1
000146: 20,2700           00002                           TC       Q
000147:
000148: 20,2701           00006        PINTEGRL           EXTEND                                         #  COMPUTE INTEGRAL OF BODY-AXIS PITCH-RATE
000149: 20,2702           31576                           DCA      PERRB                                 #        ERROR, SC.AT B-1 REVS
000150: 20,2703           53665                           DXCH     ERRBTMP
000151:
000152: 20,2704           00006                           EXTEND
000153: 20,2705           31530                           DCA      OMEGAYC
000154: 20,2706           21665                           DAS      ERRBTMP
000155:
000156: 20,2707           41151                           CS       COSCDUZ                               #  PREPARE BODY-AXIS PITCH RATE, OMEGAYB
000157: 20,2710           00006                           EXTEND
000158: 20,2711           71153                           MP       COSCDUX
000159: 20,2712           20001                           DDOUBL
000160: 20,2713           00006                           EXTEND


000162: 20,2714           71642                           MP       MCDUYDOT
000163: 20,2715           20001                           DDOUBL
000164: 20,2716           53536                           DXCH     OMEGAYB
000165:
000166: 20,2717           41643                           CS       MCDUZDOT
000167: 20,2720           00006                           EXTEND
000168: 20,2721           71145                           MP       SINCDUX
000169: 20,2722           20001                           DDOUBL
000170: 20,2723           21536                           DAS      OMEGAYB                               #  OMEGAYB, SCALED (B-1)/TVCDT  REVS/SEC
000171:
000172: 20,2724           00006                           EXTEND                                         #  PICK UP -OMEGAYB (SIGN CHNG, INTEGRATE)
000173: 20,2725           41536                           DCS      OMEGAYB
000174: 20,2726           21665                           DAS      ERRBTMP
000175:
000176: 20,2727           03246        PERORLIM           TCR      ERRORLIM                              #  PITCH BODY-AXIS-ERROR  INPUT LIMITER
000177:
000178: 20,2730           00006        PFORWARD           EXTEND                                         #        PREPARE THE FILTER STORAGE LOCATIONS
000179: 20,2731           31542                           DCA      PTMP1                                 #        FOR THE PITCH CHANNEL
000180: 20,2732           53671                           DXCH     TMP1
000181: 20,2733           00006                           EXTEND
000182: 20,2734           31546                           DCA      PTMP3
000183: 20,2735           53675                           DXCH     TMP3
000184: 20,2736           00006                           EXTEND
000185: 20,2737           31552                           DCA      PTMP5
000186: 20,2740           53701                           DXCH     TMP5
000187:
000188: 20,2741           03300                           TCR      FWDFLTR                               #  GO COMPUTE PRESENT OUTPUT
000189:                                                                                                  #  (INCLUDES VARIABLE GAIN PACKAGE)
000190:
000191: 20,2742           00006        POFFSET            EXTEND
000192: 20,2743           31606                           DCA      PDELOFF
000193: 20,2744           21667                           DAS      CMDTMP                                #  NOW SCALED AT B+0 ASCREV
000194:
000195: 20,2745           03261        PACLIM             TCR      ACTLIM                                #  ROUND OFF & LIMIT PITCH ACTUATOR COMMAND
000196:
000197: 20,2746           41623        POUT               CS       PCMD                                  #  INCREMENTAL PITCH COMMAND
000198: 20,2747           61666                           AD       CMDTMP
000199: 20,2750           26054                           ADS      TVCPITCH                              #  UPDATE THE ERROR COUNTER (NO RESTART-
000200:                                                                                                  #        PROTECT, SINCE ERROR CNTR ZEROED)
000201:
000202: 20,2751           34756                           CAF      BIT11                                 #  BIT FOR TVCPITCH COUNT RELEASE
000203: 20,2752           00006                           EXTEND
000204: 20,2753           05014                           WOR      CHAN14
000205:
000206: 20,2754           00006        PPRECOMP           EXTEND                                         #        PREPARE THE FILTER STORAGE FOR PITCH
000207: 20,2755           31544                           DCA      PTMP2
000208: 20,2756           53673                           DXCH     TMP2
000209: 20,2757           00006                           EXTEND
000210: 20,2760           31550                           DCA      PTMP4
000211: 20,2761           53677                           DXCH     TMP4


000213: 20,2762           00006                           EXTEND
000214: 20,2763           31554                           DCA      PTMP6
000215: 20,2764           53703                           DXCH     TMP6
000216:
000217: 20,2765           03372                           TCR      PRECOMP                               #        TO THE FILTER FOR PRECOMPUTATION
000218:
000219: 20,2766           31602        DELBARP            CAE      DELPBAR    +1                         #  UPDATE PITCH OFFSET-TRACKER-FILTER
000220: 20,2767           00006                           EXTEND
000221: 20,2770           73623                           MP       E(-AT)
000222: 20,2771           55663                           TS       DELBRTMP   +1
000223: 20,2772           31601                           CAE      DELPBAR
000224: 20,2773           00006                           EXTEND
000225: 20,2774           73623                           MP       E(-AT)
000226: 20,2775           21663                           DAS      DELBRTMP
000227: 20,2776           31666                           CAE      CMDTMP
000228: 20,2777           00006                           EXTEND
000229: 20,3000           73622                           MP       1-E(-AT)
000230: 20,3001           21663                           DAS      DELBRTMP
000231:
000232: 20,3002           03004        PCOPYCYC           TCR      PCOPY                                 #  PITCH COPYCYCLE
000233:
000234: 20,3003           15323        PDAPEND            TCF      RESUME                                #  PITCH DAP COMPLETED
000235:


000237:
000238:                                                                                                  #  PITCH TVCDAP COPYCYCLE SUBROUTINE (CALLED VIA PITCH TVCDAP OR TVC RESTART PACKAGE)
000239:
000240: 20,3004           25635        PCOPY              INCR     TVCPHASE                              #  RESTART-PROTECT THE COPYCYCLE.        (1)
000241:                                                                                                  #        NOTE POSSIBLE RE-ENTRY FROM RESTART
000242:                                                                                                  #        PACKAGE, SHOULD A RESTART OCCUR
000243:                                                                                                  #        DURING PITCH COPYCYCLE.
000244:
000245: 20,3005           00006                           EXTEND
000246: 20,3006           31671                           DCA      TMP1
000247: 20,3007           53542                           DXCH     PTMP1
000248: 20,3010           00006                           EXTEND
000249: 20,3011           31673                           DCA      TMP2
000250: 20,3012           53544                           DXCH     PTMP2
000251: 20,3013           00006                           EXTEND
000252: 20,3014           31675                           DCA      TMP3
000253: 20,3015           53546                           DXCH     PTMP3
000254: 20,3016           00006                           EXTEND
000255: 20,3017           31677                           DCA      TMP4
000256: 20,3020           53550                           DXCH     PTMP4
000257: 20,3021           00006                           EXTEND
000258: 20,3022           31701                           DCA      TMP5
000259: 20,3023           53552                           DXCH     PTMP5
000260: 20,3024           00006                           EXTEND
000261: 20,3025           31703                           DCA      TMP6
000262: 20,3026           53554                           DXCH     PTMP6
000263:
000264: 20,3027           00006        PMISC              EXTEND                                         #  MISC....PITCH-RATE-ERROR INTEGRATOR
000265: 20,3030           31665                           DCA      ERRBTMP
000266: 20,3031           55477                           TS       AK1                                   #        FOR PITCH NEEDLES, SC.AT B-1 REVS
000267: 20,3032           53576                           DXCH     PERRB
000268:
000269: 20,3033           31666                           CAE      CMDTMP                                #        PITCH ACTUATOR COMMAND
000270: 20,3034           55623                           TS       PCMD
000271:
000272: 20,3035           00006                           EXTEND                                         #        PITCH OFFSET-TRACKER-FILTER
000273: 20,3036           31663                           DCA      DELBRTMP
000274: 20,3037           53602                           DXCH     DELPBAR
000275:
000276: 20,3040           25635                           INCR     TVCPHASE                              #  PITCH COPYCYCLE COMPLETED             (2)
000277:
000278: 20,3041           00002                           TC       Q
000279:


000281:
000282:                                                                                                  #  YAW TVCDAP STARTS HERE....(INCORPORATES CSM/LEM DAP FILTER,  MODOR DESIGN)
000283:
000284:
000285: 20,3042           22016        YAWDAP             LXCH     BANKRUPT                              #  T5 ENTRY,  NORMAL
000286: 20,3043           00006                           EXTEND
000287: 20,3044           22012                           QXCH     QRUPT
000288:
000289: 20,3045           33616                           CAF      PITCHT5                               #  SET UP T5 CALL FOR PITCH AUTOPILOT (LOW-
000290: 20,3046           54112                           TS       T5LOC                                 #        ORDER PART OF 2CADR ALREADY THERE)
000291: 20,3047           31625                           CAE      T5TVCDT
000292: 20,3050           54030                           TS       TIME5
000293:
000294: 20,3051           30033        YCDUDOTS           CAE      CDUY                                  #  COMPUTE CDUYDOT
000295: 20,3052           57640                           XCH      YCDUYPST
000296: 20,3053           00006                           EXTEND
000297: 20,3054           21640                           MSU      YCDUYPST
000298: 20,3055           02670                           TCR      RLIMTEST                              #        RATE TEST
000299: 20,3056           55642                           TS       MCDUYDOT                              #        (MINUS, SCALED 1/2TVCDT REV/SEC)
000300:
000301: 20,3057           30034                           CAE      CDUZ                                  #  COMPUTE CDUZDOT
000302: 20,3060           57641                           XCH      YCDUZPST
000303: 20,3061           00006                           EXTEND
000304: 20,3062           21641                           MSU      YCDUZPST
000305: 20,3063           02670                           TCR      RLIMTEST                              #        RATE TEST
000306: 20,3064           55643                           TS       MCDUZDOT                              #        (MINUS, SCALED 1/2TVCDT REV/SEC)
000307:
000308: 20,3065           00006        YINTEGRL           EXTEND                                         #  COMPUTE INTEGRAL OF BODY-AXIS YAW-RATE
000309: 20,3066           31600                           DCA      YERRB                                 #        ERROR, SC.AT B-1 REVS
000310: 20,3067           53665                           DXCH     ERRBTMP
000311:
000312: 20,3070           00006                           EXTEND
000313: 20,3071           31532                           DCA      OMEGAZC
000314: 20,3072           21665                           DAS      ERRBTMP
000315:
000316: 20,3073           31151                           CAE      COSCDUZ                               #  PREPARE BODY-AXIS YAW-RATE, OMEGAZB
000317: 20,3074           00006                           EXTEND
000318: 20,3075           71145                           MP       SINCDUX
000319: 20,3076           20001                           DDOUBL
000320: 20,3077           00006                           EXTEND
000321: 20,3100           71642                           MP       MCDUYDOT
000322: 20,3101           20001                           DDOUBL
000323: 20,3102           53540                           DXCH     OMEGAZB
000324:
000325: 20,3103           41643                           CS       MCDUZDOT
000326: 20,3104           00006                           EXTEND
000327: 20,3105           71153                           MP       COSCDUX
000328: 20,3106           20001                           DDOUBL
000329: 20,3107           21540                           DAS      OMEGAZB                               #  OMEGAZB, SCALED (B-1)/TVCDT  REVS/SEC
000330:
000331: 20,3110           00006                           EXTEND                                         #  PICK UP -OMEGAZB (SIGN CHNG, INTEGRATE)


000333: 20,3111           41540                           DCS      OMEGAZB
000334: 20,3112           21665                           DAS      ERRBTMP
000335:
000336: 20,3113           03246        YERORLIM           TCR      ERRORLIM                              #  YAW   BODY-AXIS-ERROR  INPUT LIMITER
000337:
000338: 20,3114           00006        YFORWARD           EXTEND                                         #        PREPARE THE FILTER STORAGE LOCATIONS
000339: 20,3115           31556                           DCA      YTMP1                                 #        FOR THE YAW CHANNEL
000340: 20,3116           53671                           DXCH     TMP1
000341: 20,3117           00006                           EXTEND
000342: 20,3120           31562                           DCA      YTMP3
000343: 20,3121           53675                           DXCH     TMP3
000344: 20,3122           00006                           EXTEND
000345: 20,3123           31566                           DCA      YTMP5
000346: 20,3124           53701                           DXCH     TMP5
000347:
000348: 20,3125           03300                           TCR      FWDFLTR                               #  GO COMPUTE PRESENT OUTPUT
000349:                                                                                                  #  (INCLUDES VARIABLE GAIN PACKAGE)
000350:
000351: 20,3126           00006        YOFFSET            EXTEND
000352: 20,3127           31610                           DCA      YDELOFF
000353: 20,3130           21667                           DAS      CMDTMP                                #  NOW SCALED AT B+0 ASCREV
000354:
000355: 20,3131           03261        YACLIM             TCR      ACTLIM                                #  ROUND OFF & LIMIT YAW ACTUATOR COMMAND
000356:
000357: 20,3132           41624        YOUT               CS       YCMD                                  #  INCREMENTAL YAW   COMMAND
000358: 20,3133           61666                           AD       CMDTMP
000359: 20,3134           26053                           ADS      TVCYAW                                #  UPDATE THE ERROR COUNTER (NO RESTART-
000360:                                                                                                  #        PROTECT, SINCE ERROR CNTR ZEROED)
000361:
000362: 20,3135           34755                           CAF      BIT12                                 #  BIT FOR TVCYAW COUNT RELEASE
000363: 20,3136           00006                           EXTEND
000364: 20,3137           05014                           WOR      CHAN14
000365:
000366: 20,3140           00006        YPRECOMP           EXTEND                                         #        PREPARE THE FILTER STORAGE FOR YAW
000367: 20,3141           31560                           DCA      YTMP2
000368: 20,3142           53673                           DXCH     TMP2
000369: 20,3143           00006                           EXTEND
000370: 20,3144           31564                           DCA      YTMP4
000371: 20,3145           53677                           DXCH     TMP4
000372: 20,3146           00006                           EXTEND
000373: 20,3147           31570                           DCA      YTMP6
000374: 20,3150           53703                           DXCH     TMP6
000375:
000376: 20,3151           03372                           TCR      PRECOMP                               #        TO THE FILTER FOR PRECOMPUTATION
000377:
000378: 20,3152           31604        DELBARY            CAE      DELYBAR    +1                         #  UPDATE YAW   OFFSET-TRACKER-FILTER
000379: 20,3153           00006                           EXTEND
000380: 20,3154           73623                           MP       E(-AT)
000381: 20,3155           55663                           TS       DELBRTMP   +1
000382: 20,3156           31603                           CAE      DELYBAR


000384: 20,3157           00006                           EXTEND
000385: 20,3160           73623                           MP       E(-AT)
000386: 20,3161           21663                           DAS      DELBRTMP
000387: 20,3162           31666                           CAE      CMDTMP
000388: 20,3163           00006                           EXTEND
000389: 20,3164           73622                           MP       1-E(-AT)
000390: 20,3165           21663                           DAS      DELBRTMP
000391:
000392: 20,3166           03170        YCOPYCYC           TCR      YCOPY                                 #  YAW   COPYCYCLE
000393:
000394: 20,3167           15323        YDAPEND            TCF      RESUME                                #  YAW   DAP COMPLETED
000395:


000397:
000398:                                                                                                  #  YAW   TVCDAP COPYCYCLE SUBROUTINE (CALLED VIA YAW   TVCDAP OR TVC RESTART PACKAGE)
000399:
000400: 20,3170           25635        YCOPY              INCR     TVCPHASE                              #  RESTART-PROTECT THE COPYCYCLE.        (3)
000401:                                                                                                  #        NOTE POSSIBLE RE-ENTRY FROM RESTART
000402:                                                                                                  #        PACKAGE, SHOULD A RESTART OCCUR
000403:                                                                                                  #        DURING YAW   COPYCYCLE.
000404:
000405: 20,3171           00006                           EXTEND
000406: 20,3172           31671                           DCA      TMP1
000407: 20,3173           53556                           DXCH     YTMP1
000408: 20,3174           00006                           EXTEND
000409: 20,3175           31673                           DCA      TMP2
000410: 20,3176           53560                           DXCH     YTMP2
000411: 20,3177           00006                           EXTEND
000412: 20,3200           31675                           DCA      TMP3
000413: 20,3201           53562                           DXCH     YTMP3
000414: 20,3202           00006                           EXTEND
000415: 20,3203           31677                           DCA      TMP4
000416: 20,3204           53564                           DXCH     YTMP4
000417: 20,3205           00006                           EXTEND
000418: 20,3206           31701                           DCA      TMP5
000419: 20,3207           53566                           DXCH     YTMP5
000420: 20,3210           00006                           EXTEND
000421: 20,3211           31703                           DCA      TMP6
000422: 20,3212           53570                           DXCH     YTMP6
000423:
000424: 20,3213           00006        YMISC              EXTEND                                         #  MISC....YAW-RATE-ERROR INTEGRATOR
000425: 20,3214           31665                           DCA      ERRBTMP
000426: 20,3215           55500                           TS       AK2                                   #        FOR YAW   NEEDLES, SC.AT B-1 REVS
000427: 20,3216           53600                           DXCH     YERRB
000428:
000429: 20,3217           31666                           CAE      CMDTMP
000430: 20,3220           55624                           TS       YCMD
000431:
000432: 20,3221           00006                           EXTEND
000433: 20,3222           31663                           DCA      DELBRTMP
000434: 20,3223           53604                           DXCH     DELYBAR
000435:
000436: 20,3224           34772                           CAF      ZERO                                  #  YAW   COPYCYCLE COMPLETED
000437: 20,3225           55635                           TS       TVCPHASE                              #        RESET TVCPHASE
000438:
000439: 20,3226           00002                           TC       Q
000440:


000442:
000443:                                                                                                  #  SUBROUTINES COMMON TO BOTH PITCH AND YAW DAPS....
000444:
000445:
000446:                                                                                                  #  INITIALIZATION PACKAGE FOR CDURATES....
000447:
000448: 20,3227           22016        DAPINIT            LXCH     BANKRUPT                              #  T5 RUPT ENTRY (CALLED BY TVCINT4)
000449:
000450: 20,3230           37702                           CAF      NEGONE                                #        SET UP
000451: 20,3231           61625                           AD       T5TVCDT                               #        T5 CALL FOR PITCHDAP IN TVCDT SECS
000452: 20,3232           64752                           AD       NEGMAX                                #        (T5TVCDT = POSMAX - TVCDT/2 +1)
000453: 20,3233           61625                           AD       T5TVCDT
000454: 20,3234           54030                           TS       TIME5
000455: 20,3235           33616                           CAF      PITCHT5                               #        (BBCON ALREADY THERE)
000456: 20,3236           54112                           TS       T5LOC
000457:
000458: 20,3237           30033                           CAE      CDUY                                  #  READ AND STORE CDUS FOR DIFFERENTIATOR
000459: 20,3240           55636                           TS       PCDUYPST                              #        PAST-VALUES
000460: 20,3241           55640                           TS       YCDUYPST
000461: 20,3242           30034                           CAE      CDUZ
000462: 20,3243           55637                           TS       PCDUZPST
000463: 20,3244           55641                           TS       YCDUZPST
000464:
000465: 20,3245           15325                           TCF      NOQRSM
000466:
000467:
000468:                                                                                                  #  BODY-AXIS-ERROR  INPUT LIMITER PACKAGE....
000469:
000470: 20,3246           31664        ERRORLIM           CAE      ERRBTMP                               #  CHECK FOR INPUT-ERROR LIMIT
000471: 20,3247           00006                           EXTEND                                         #        CHECKS UPPER WORD ONLY
000472: 20,3250           74766                           MP       1/ERRLIM
000473: 20,3251           00006                           EXTEND
000474: 20,3252           13260                           BZF      +6
000475: 20,3253           11664                           CCS      ERRBTMP
000476: 20,3254           34754                           CAF      ERRLIM
000477: 20,3255           13257                           TCF      +2
000478: 20,3256           44754                           CS       ERRLIM
000479: 20,3257           55664                           TS       ERRBTMP                               #  LIMIT WRITES OVER UPPER WORD ONLY
000480:
000481: 20,3260           00002                           TC       Q
000482:
000483:
000484:                                                                                                  #  ACTUATOR-COMMAND LIMITER PACKAGE....
000485:
000486: 20,3261           31667        ACTLIM             CAE      CMDTMP     +1                         #  ROUND UP FOR OUTPUT
000487: 20,3262           60000                           DOUBLE
000488: 20,3263           54001                           TS       L
000489: 20,3264           34772                           CAF      ZERO
000490: 20,3265           61666                           AD       CMDTMP
000491:
000492: 20,3266           00006                           EXTEND                                         #  CHECK FOR ACTUATOR COMMAND LIMIT


000494: 20,3267           73615                           MP       1/ACTSAT
000495: 20,3270           00006                           EXTEND
000496: 20,3271           13277                           BZF      +6
000497: 20,3272           11666                           CCS      CMDTMP                                #  APPLY LIMITS
000498: 20,3273           33614                           CAF      ACTSAT
000499: 20,3274           13276                           TCF      +2
000500: 20,3275           43614                           CS       ACTSAT
000501: 20,3276           55666                           TS       CMDTMP                                #  LIMITS WRITE OVER CMDTMP
000502:
000503: 20,3277           00002                           TC       Q
000504:
000505:                                                                                                  #  FILTER COMPUTATIONS FOR PRESENT OUTPUT................
000506:
000507: 20,3300           34772        FWDFLTR            CAF      ZERO
000508: 20,3301           55615                           TS       DAP1
000509: 20,3302           55617                           TS       DAP2
000510: 20,3303           55621                           TS       DAP3
000511: 20,3304           55666                           TS       CMDTMP
000512:
000513: 20,3305           55662                           TS       DELBRTMP
000514:
000515: 20,3306           31665        1DAPCAS            CAE      ERRBTMP    +1                         #  FIRST DAP CASCADE
000516: 20,3307           00006                           EXTEND
000517: 20,3310           71705                           MP       N10                                   #        N10
000518: 20,3311           55616                           TS       DAP1       +1
000519: 20,3312           31664                           CA       ERRBTMP
000520: 20,3313           00006                           EXTEND
000521: 20,3314           71705                           MP       N10                                   #        N10
000522: 20,3315           21616                           DAS      DAP1
000523: 20,3316           53671                           DXCH     TMP1
000524: 20,3317           21616                           DAS      DAP1
000525:
000526: 20,3320           31616        2DAPCAS            CAE      DAP1       +1                         #  SECOND DAP CASCADE
000527: 20,3321           00006                           EXTEND
000528: 20,3322           71712                           MP       N10        +5                         #        N20
000529: 20,3323           55620                           TS       DAP2       +1
000530: 20,3324           31615                           CA       DAP1
000531: 20,3325           00006                           EXTEND
000532: 20,3326           71712                           MP       N10        +5                         #        N20
000533: 20,3327           21620                           DAS      DAP2
000534: 20,3330           53675                           DXCH     TMP3
000535: 20,3331           21620                           DAS      DAP2
000536:
000537: 20,3332           31465                           CAE      DAPDATR1                              #  TEST FOR LEM ON OR OFF
000538: 20,3333           74753                           MASK     BIT14
000539: 20,3334           10000                           CCS      A
000540: 20,3335           13344                           TCF      3DAPCAS                               #  LEM ON
000541: 20,3336           00006                           EXTEND                                         #  LEM OFF
000542: 20,3337           31620                           DCA      DAP2


000544: 20,3340           20001                           DDOUBL
000545: 20,3341           20001                           DDOUBL
000546: 20,3342           53622                           DXCH     DAP3
000547: 20,3343           13356                           TCF      OPTVARK
000548:
000549: 20,3344           31620        3DAPCAS            CAE      DAP2       +1                         #  THIRD DAP CASCADE
000550: 20,3345           00006                           EXTEND
000551: 20,3346           71717                           MP       N10        +10D                       #        N30
000552: 20,3347           55622                           TS       DAP3       +1
000553: 20,3350           31617                           CA       DAP2
000554: 20,3351           00006                           EXTEND
000555: 20,3352           71717                           MP       N10        +10D                       #        N30
000556: 20,3353           21622                           DAS      DAP3
000557: 20,3354           53701                           DXCH     TMP5
000558: 20,3355           21622                           DAS      DAP3
000559:
000560: 20,3356           41622        OPTVARK            CS       DAP3       +1                         #  VARIABLE GAIN PACKAGE
000561: 20,3357           00006                           EXTEND                                         #  (ALSO, SIGN CHANGE IN FORWARD LOOP)
000562: 20,3360           71632                           MP       VARK                                  #        SCALED (1.08 B+2)   CSM/LM
000563: 20,3361           55667                           TS       CMDTMP     +1                         #               (  "  B+4)   CSM
000564: 20,3362           41621                           CS       DAP3
000565: 20,3363           00006                           EXTEND
000566: 20,3364           71632                           MP       VARK
000567: 20,3365           21667                           DAS      CMDTMP
000568:
000569: 20,3366           53667                           DXCH     CMDTMP                                #  FIX UP SCALING - SCALED B+1 ASCREV
000570: 20,3367           20001                           DDOUBL
000571: 20,3370           53667                           DXCH     CMDTMP                                #                 - SCALED B+0 ASCREV
000572:                                                                                                  #  NOTE - THERE IS AN INHERANT GAIN OF
000573:                                                                                                  #  (B+1 ASCREV/REV) ON THE OUTPUT DACS.
000574:
000575: 20,3371           00002                           TC       Q
000576:
000577:
000578:                                                                                                  #  FILTER PRECOMPUTATIONS FOR NEXT PASS...................
000579:
000580: 20,3372           34772        PRECOMP            CAF      ZERO                                  #  *****  FIRST CASCADE FILTER  **********
000581: 20,3373           55611                           TS       TTMP1
000582: 20,3374           55613                           TS       TTMP2
000583:
000584: 20,3375           31665                           CA       ERRBTMP    +1                         #  MULTIPLY INPUT BY
000585: 20,3376           00006                           EXTEND
000586: 20,3377           71706                           MP       N10        +1                         #        N11/2
000587: 20,3400           55612                           TS       TTMP1      +1
000588: 20,3401           31664                           CA       ERRBTMP
000589: 20,3402           00006                           EXTEND
000590: 20,3403           71706                           MP       N10        +1                         #        N11/2
000591: 20,3404           21612                           DAS      TTMP1
000592:
000593: 20,3405           41616                           CS       DAP1       +1                         #  MULTIPLY OUTPUT BY


000595: 20,3406           00006                           EXTEND
000596: 20,3407           71710                           MP       N10        +3                         #        D11/2
000597: 20,3410           55614                           TS       TTMP2      +1
000598: 20,3411           41615                           CS       DAP1
000599: 20,3412           00006                           EXTEND
000600: 20,3413           71710                           MP       N10        +3                         #        D11/2
000601: 20,3414           21614                           DAS      TTMP2
000602:
000603: 20,3415           53614                           DXCH     TTMP2
000604: 20,3416           21612                           DAS      TTMP1
000605: 20,3417           53612                           DXCH     TTMP1
000606: 20,3420           20001                           DDOUBL
000607: 20,3421           21673                           DAS      TMP2
000608:
000609: 20,3422           53673                           DXCH     TMP2
000610: 20,3423           53671                           DXCH     TMP1
000611:
000612: 20,3424           34772                           CAF      ZERO
000613: 20,3425           55611                           TS       TTMP1
000614: 20,3426           55672                           TS       TMP2
000615:
000616: 20,3427           31665                           CA       ERRBTMP    +1                         #  MULTIPLY INPUT  BY
000617: 20,3430           00006                           EXTEND                                         #  SECOND-ORDER NUMERATOR COEFF.
000618: 20,3431           71707                           MP       N10        +2                         #        N12
000619: 20,3432           55612                           TS       TTMP1      +1
000620: 20,3433           31664                           CA       ERRBTMP
000621: 20,3434           00006                           EXTEND
000622: 20,3435           71707                           MP       N10        +2                         #        N12
000623: 20,3436           21612                           DAS      TTMP1
000624:
000625: 20,3437           41616                           CS       DAP1       +1                         #  MULTIPLY OUTPUT BY
000626: 20,3440           00006                           EXTEND
000627: 20,3441           71711                           MP       N10        +4                         #        D12
000628: 20,3442           55673                           TS       TMP2       +1
000629: 20,3443           41615                           CS       DAP1
000630: 20,3444           00006                           EXTEND
000631: 20,3445           71711                           MP       N10        +4                         #        D12
000632: 20,3446           21673                           DAS      TMP2
000633:
000634: 20,3447           53612                           DXCH     TTMP1
000635: 20,3450           21673                           DAS      TMP2
000636:
000637: 20,3451           34772        2CASFLTR           CAF      ZERO                                  #  *****SECOND CASCADE FILTER*****
000638: 20,3452           55611                           TS       TTMP1
000639: 20,3453           55613                           TS       TTMP2
000640:
000641: 20,3454           31616                           CA       DAP1       +1                         #  MULTIPLY INPUT BY
000642: 20,3455           00006                           EXTEND
000643: 20,3456           71713                           MP       N10        +6                         #        N21/2


000645: 20,3457           55612                           TS       TTMP1      +1
000646: 20,3460           31615                           CA       DAP1
000647: 20,3461           00006                           EXTEND
000648: 20,3462           71713                           MP       N10        +6                         #        N21/2
000649: 20,3463           21612                           DAS      TTMP1
000650:
000651: 20,3464           41620                           CS       DAP2       +1                         #  MULTIPLY OUTPUT BY
000652: 20,3465           00006                           EXTEND
000653: 20,3466           71715                           MP       N10        +8D                        #        D21/2
000654: 20,3467           55614                           TS       TTMP2      +1
000655: 20,3470           41617                           CS       DAP2
000656: 20,3471           00006                           EXTEND
000657: 20,3472           71715                           MP       N10        +8D                        #        D21/2
000658: 20,3473           21614                           DAS      TTMP2
000659:
000660: 20,3474           53614                           DXCH     TTMP2
000661: 20,3475           21612                           DAS      TTMP1
000662: 20,3476           53612                           DXCH     TTMP1
000663: 20,3477           20001                           DDOUBL
000664: 20,3500           21677                           DAS      TMP4
000665:
000666: 20,3501           53677                           DXCH     TMP4
000667: 20,3502           53675                           DXCH     TMP3
000668:
000669: 20,3503           34772                           CAF      ZERO
000670: 20,3504           55611                           TS       TTMP1
000671: 20,3505           55676                           TS       TMP4
000672:
000673: 20,3506           31616                           CA       DAP1       +1                         #  MULTIPLY INPUT  BY
000674: 20,3507           00006                           EXTEND
000675: 20,3510           71714                           MP       N10        +7                         #        N22
000676: 20,3511           55612                           TS       TTMP1      +1
000677: 20,3512           31615                           CA       DAP1
000678: 20,3513           00006                           EXTEND
000679: 20,3514           71714                           MP       N10        +7                         #        N22
000680: 20,3515           21612                           DAS      TTMP1
000681:
000682: 20,3516           41620                           CS       DAP2       +1                         #  MULTIPLY OUTPUT BY
000683: 20,3517           00006                           EXTEND
000684: 20,3520           71716                           MP       N10        +9D                        #        D22
000685: 20,3521           55677                           TS       TMP4       +1
000686: 20,3522           41617                           CS       DAP2
000687: 20,3523           00006                           EXTEND
000688: 20,3524           71716                           MP       N10        +9D                        #        D22
000689: 20,3525           21677                           DAS      TMP4
000690:
000691: 20,3526           53612                           DXCH     TTMP1
000692: 20,3527           21677                           DAS      TMP4


000694: 20,3530           31465                           CAE      DAPDATR1                              #  TEST FOR LEM ON OR OFF
000695: 20,3531           74754                           MASK     BIT13
000696: 20,3532           10000                           CCS      A
000697: 20,3533           00002                           TC       Q                                     #  EXIT IF LEM OFF
000698:
000699: 20,3534           34772        3CASFLTR           CAF      ZERO                                  #  *****THIRD CASCADE FILTER*****
000700: 20,3535           55611                           TS       TTMP1
000701: 20,3536           55613                           TS       TTMP2
000702:
000703: 20,3537           31620                           CA       DAP2       +1                         #  MULTIPLY INPUT  BY (1/2)
000704: 20,3540           00006                           EXTEND
000705: 20,3541           71720                           MP       N10        +11D                       #        N31/2
000706: 20,3542           55612                           TS       TTMP1      +1
000707: 20,3543           31617                           CA       DAP2
000708: 20,3544           00006                           EXTEND
000709: 20,3545           71720                           MP       N10        +11D                       #        N31/2
000710: 20,3546           21612                           DAS      TTMP1
000711:
000712: 20,3547           41622                           CS       DAP3       +1
000713: 20,3550           00006                           EXTEND
000714: 20,3551           71722                           MP       N10        +13D                       #        D31/2
000715: 20,3552           55614                           TS       TTMP2      +1
000716: 20,3553           41621                           CS       DAP3
000717: 20,3554           00006                           EXTEND
000718: 20,3555           71722                           MP       N10        +13D                       #        D31/2
000719: 20,3556           21614                           DAS      TTMP2
000720:
000721: 20,3557           53614                           DXCH     TTMP2
000722: 20,3560           21612                           DAS      TTMP1
000723: 20,3561           53612                           DXCH     TTMP1
000724: 20,3562           20001                           DDOUBL
000725: 20,3563           21703                           DAS      TMP6
000726:
000727: 20,3564           53703                           DXCH     TMP6
000728: 20,3565           53701                           DXCH     TMP5
000729:
000730: 20,3566           34772                           CAF      ZERO
000731: 20,3567           55611                           TS       TTMP1
000732: 20,3570           55702                           TS       TMP6
000733:
000734: 20,3571           31620                           CA       DAP2       +1                         #  MULTIPLY INPUT  BY
000735: 20,3572           00006                           EXTEND
000736: 20,3573           71721                           MP       N10        +12D                       #        N32
000737: 20,3574           55612                           TS       TTMP1      +1
000738: 20,3575           31617                           CA       DAP2
000739: 20,3576           00006                           EXTEND
000740: 20,3577           71721                           MP       N10        +12D                       #        N32
000741: 20,3600           21612                           DAS      TTMP1
000742:
000743: 20,3601           41622                           CS       DAP3       +1


000745: 20,3602           00006                           EXTEND
000746: 20,3603           71723                           MP       N10        +14D                       #        D32
000747: 20,3604           55703                           TS       TMP6       +1
000748: 20,3605           41621                           CS       DAP3
000749: 20,3606           00006                           EXTEND
000750:
000751: 20,3607           71723                           MP       N10        +14D                       #        D32
000752: 20,3610           21703                           DAS      TMP6
000753:
000754: 20,3611           53612                           DXCH     TTMP1
000755: 20,3612           21703                           DAS      TMP6
000756:
000757: 20,3613           00002                           TC       Q
000758:


000760:
000761:                                                                                                  #  CONSTANTS FOR AUTOPILOTS
000762:
000763:                                                                                                  #  NOTE....1 ASCREV (ACTUATOR CMD SCALING) = 85.41 ARCSEC/BIT OR 1.07975111 REVS (85.41X16384/3600/360)
000764:
000765:                                                                                                  #          1 SPASCREV (SPECIAL ACTUATOR CMD SCALING) = 1.04620942 REVS
000766:
000767: 20,3614           00375        ACTSAT             DEC      253        B-14                       #  ACTUATOR LIMIT (6 DEG),  SC.AT 1ASCREV
000768: 20,3615           00101        1/ACTSAT           DEC      .0039525692                            #  RECIPROCAL (1/253)
000769:
000770: 20,3616     4754               ERRLIM             EQUALS   BIT13                                 #  FILTER INPUT LIMIT....B-3 REVS (45DEG),
000771: 20,3616     4766               1/ERRLIM           EQUALS   BIT3                                  #        SC.AT B-1 REV, AND ITS RECIPROCAL
000772:
000773: 20,3616           02644        PITCHT5            GENADR   PITCHDAP                              #  UPPER WORDS OF T5 2CADRS, LOWER WORDS
000774: 20,3617           03227        DAPT5              GENADR   DAPINIT                               #        (BBCON) ALREADY THERE.  ORDER IS
000775: 20,3620           03042        YAWT5              GENADR   YAWDAP                                #        REQUIRED.
000776:
000777:
000778: 20,3621           00115        1/RTLIM            DEC      0.004715                              #  .004715(CDUDIF) = 0 IF CDUDIF < 2.33 DEG
000779: 20,3622           00243        1-E(-AT)           OCT      00243                                 #  AT = .01SEC....EITHER(1/A=4SEC, T=40MS),
000780: 20,3623           37535        E(-AT)             OCT      37535                                 #                     OR(1/A=8SEC, T=80MS)

End of include-file TVCDAPS.agc.  Parent file is MAIN.agc


