
Source Code


000002:                                                                                                 #  Copyright:     Public domain.
000003:                                                                                                 #  Filename:      TVCEXECUTIVE.agc
000004:                                                                                                 #  Purpose:       Part of the source code for Artemis (i.e., Colossus 3),
000005:                                                                                                 #                 build 072.  This is for the Command Module's (CM)
000006:                                                                                                 #                 Apollo Guidance Computer (AGC), we believe for
000007:                                                                                                 #                 Apollo 15-17.
000008:                                                                                                 #  Assembler:     yaYUL
000009:                                                                                                 #  Contact:       Steve Case <case1780@adelphia.net>
000010:                                                                                                 #  Website:       www.ibiblio.org/apollo/index.html
000011:                                                                                                 #  Page scans:    www.ibiblio.org/apollo/ScansForConversion/Artemis072/
000012:                                                                                                 #  Mod history:   2009-09-13 SMC  Adapted from Comanche055 files.
000013:                                                                                                 #                 2009-09-14 JL   Fix typos. Fix page numbers. Remove change comments. Restore hard tabs.
000014:                                                                                                 #                 2010-02-20 RSB  Un-##'d this header.
000015:


000017:                                                                                                 #  PROGRAM NAME.... TVCEXECUTIVE, CONSISTING OF TVCEXEC, NEEDLEUP, VARGAINS
000018:                                                                                                 #                    1SHOTCHK, REPCHEK, CG.CORR, COPYCYCLES, ETC.
000019:                                                                                                 #  LOG SECTION...TVCEXECUTIVE                     SUBROUTINE...DAPCSM
000020:                                                                                                 #  MODIFIED BY SCHLUNDT                           21 OCTOBER 1968
000021:                                                                                                 #  MODIFIED BY BEALS TO ELIMINATE CSMMASS UPDATE LOGIC (NOW DONE IN S40.8)
000022:                                                                                                 #  FUNCTIONAL DESCRIPTION....
000023:
000024:                                                                                                 #       *A SELF-PERPETUATING WAITLIST TASK AT 1/2 SECOND INTERVALS WHICH:
000025:                                                                                                 #         PREPARES THE ROLL WITH OGA (CDUX)
000026:                                                                                                 #         PREPARES THE ROLL FDAI NEEDLE (FLY-TO  OGA ERROR)
000027:                                                                                                 #         PREPARES THE ROLL PHASE PLANE  OGAERR  (FLY-FROM  OGA ERROR)
000028:                                                                                                 #         PREPARES THE TVC ROLLDAP TASK WAITLIST CALL (3 CS DELAY)
000029:                                                                                                 #         UPDATES THE NEEDLES DISPLAY
000030:                                                                                                 #         CALLS MASSPROP TO UPDATE INERTIA DATA
000031:                                                                                                 #         UPDATES PITCH, YAW, AND ROLL DAP GAINS FROM MASSPROP DATA
000032:                                                                                                 #         PERFORMS ONE-SHOT CORRECTION FOR TMC LOOP 0-3 SEC AFTER IGNITION
000033:                                                                                                 #         PERFORMS REPETITIVE UPDATES FOR THE TMC LOOP AFTER THE ONE-SHOT CORR.
000034:
000035:                                                                                                 #  CALLING SEQUENCE....
000036:
000037:                                                                                                 #       *TVCEXEC CALLED AS A WAITLIST TASK, IN PARTICULAR BY TVCINIT4 AND BY
000038:                                                                                                 #         ITSELF, BOTH AT 1/2 SECOND INTERVALS
000039:
000040:                                                                                                 #  NORMAL EXIT MODE.... TASKOVER
000041:
000042:                                                                                                 #  ALARM OR ABORT EXIT MODES.... NONE
000043:
000044:                                                                                                 #  SUBROUTINES CALLED....NEEDLER, S40.15, MASSPROP, TASKOVER, IBNKCALL
000045:
000046:                                                                                                 #  OTHER INTERFACES....
000047:
000048:                                                                                                 #       *TVCRESTART PACKAGE FOR RESTARTS
000049:                                                                                                 #       *PITCHDAP, YAWDAP FOR VARIABLE GAINS AND ENGINE TRIM ANGLES
000050:                                                                                                 #  ERASABLE INITIALIZATION REQUIRED....
000051:
000052:                                                                                                 #       *SEE TVCDAPON....TVCINIT4
000053:                                                                                                 #       *VARK AND 1/CONACC (S40.15 OF TVCINITIALIZE)
000054:                                                                                                 #       *PAD LOAD EREPFRAC
000055:                                                                                                 #       *BITS 15,14 OF FLAGWRD6 (T5 BITS)
000056:                                                                                                 #       *TVCEXPHS FOR RESTARTS
000057:                                                                                                 #       *ENGINE-ON BIT (11.13) FOR RESTARTS
000058:                                                                                                 #       *CDUX, OGAD
000059:
000060:                                                                                                 #  OUTPUT....
000061:
000062:                                                                                                 #       *ROLL DAP OGANOW, FDAI NEEDLE= (AK). AND PHASE PLANE OGAERR
000063:                                                                                                 #       *VARIABLE GAINS FOR PITCH/YAW AND ROLL TVC DAPS
000064:                                                                                                 #       *SINGLE-SHOT AND REPETITIVE CORRECTIONS TO ENGINE TRIM ANGLES
000065:                                                                                                 #         PACTOFF AND YACTOFF
000066:                                                                                                 #  DEBRIS.... MUCH, BUT SHAREABLE WITH RCS/ENTRY, ALL IN EBANK6
000067:


000069: 16,2000                                          SETLOC   DAPROLL
000070: 16,2000                                          BANK
000071: 16,3037  E6,1446                                 EBANK=   CNTR
000072: 16,3037                                          COUNT*   $$/TVCX
000073:
000074:
000075: 16,3037           40102        TVCEXEC           CS       FLAGWRD6                              #  CHECK FOR TERMINATION (BITS 15,14 READ
000076: 16,3040           74076                          MASK     DPCONFIG                              #  10 FROM TVCDAPON TO RCSDAPON)
000077: 16,3041           00006                          EXTEND
000078: 16,3042           63217                          BZMF     TVCEXFIN                              #  TERMINATE
000079:
000080: 16,3043           35011                          CAF      .5SEC                                 #  W.L. CALL TO PERPETUATE TVCEXEC
000081: 16,3044           05223                          TC       TWIDDLE
000082: 16,3045           03037                          ADRES    TVCEXEC
000083: 16,3046           30032        ROLLPREP          CAE      CDUX                                  #  UPDATE ROLL LADDERS (NO NEED TO RESTART-
000084: 16,3047           57645                          XCH      OGANOW                                #         PROTECT, SINCE ROLL DAPS RE-START)
000085: 16,3050           57646                          XCH      OGAPAST
000086:
000087: 16,3051           31447                          CAE      OGAD                                  #  PREPARE ROLL FDAI NEEDLE  WTIH FLY-TO
000088: 16,3052           00006                          EXTEND                                         #         ERROR (COMMAND - MEASURED)
000089: 16,3053           21645                          MSU      OGANOW
000090: 16,3054           55476                          TS       AK                                    #  FLY-TO OGA ERROR, SC.AT B-1 REVS
000091:
000092: 16,3055           00006                          EXTEND                                         #  PREPARE ROLL DAP PHASE PLANE  OGAERR
000093: 16,3056           74751                          MP       -BIT14
000094: 16,3057           55647                          TS       OGAERR                                #  PHASE-PLANE (FLY-FROM) OGAERROR,
000095:                                                                                                 #         SC.AT B+0 REVS
000096:
000097: 16,3060           36214                          CAF      THREE                                 #  SET UP ROLL DAP TASK (ALLOW SOME TIME)
000098: 16,3061           05223                          TC       TWIDDLE
000099: 16,3062           03342                          ADRES    ROLLDAP
000100: 16,3063           04714        NEEDLEUP          TC       IBNKCALL                              #  DO A NEEDLES UPDATE (RETURNS AFTER CADR)
000101: 16,3064           42425                          CADR     NEEDLER                               #         (NEEDLES RESTARTS ITSELF)
000102:
000103: 16,3065           11634        VARGAINS          CCS      VCNTR                                 #  TEST FOR GAIN UPDATE TIME
000104: 16,3066           13074                          TCF      EXECCOPY                              #  NOT YET
000105: 16,3067           04714        GAINCHNG          TC       IBNKCALL                              #  UPDATE IXX, IAVG, IAVG/TLX
000106: 16,3070           13347                          CADR     FIXCW                                 #  MASSPROP ENTRY  (ALREADY INITIALIZED)
000107: 16,3071           04714                          TC       IBNKCALL                              #  UPDATE 1/CONACC, VARK
000108: 16,3072           36452                          CADR     S40.15                                #         (S40.15 IS IN TVCINITIALIZE)
000109: 16,3073           34351                          CAF      NINETEEN                              #  RESET THE VARIABLE-GAIN UPDATE COUNTER
000110: 16,3074           55634        EXECCOPY          TS       VCNTR
000111: 16,3075           11446        1SHOTCHK          CCS      CNTR                                  #  CHECK FOR ONE-SHOT OR REPCORR
000112: 16,3076           13102                          TCF      +4                                    #         NOT YET
000113: 16,3077           13115                          TCF      1SHOTOK                               #         NOW
000114: 16,3100           13106                          TCF      REPCHEK                               #         ONE-SHOT OVER, ON TO REPCORR
000115: 16,3101           13115                          TCF      1SHOTOK                               #         NOW  (ONE-SHOT ONLY, NO REPCORR)
000116:
000117: 16,3102           55661                 +4       TS       CNTRTMP                               #  COUNT DOWN
000118: 16,3103           34766                          CAF      FOUR                                  #  SET UP TVCEXPHS FOR ENTRY AT CNTRCOPY


000120: 16,3104           55644                          TS       TVCEXPHS
000121: 16,3105           13215                          TCF      CNTRCOPY
000122:
000123: 16,3106           31633        REPCHEK           CAE      REPFRAC                               #  CHECK FOR REPETITIVE UPDATES
000124: 16,3107           00006                          EXTEND
000125: 16,3110           63217                          BZMF     TVCEXFIN                              #         NO, OVER-AND-OUT
000126: 16,3111           55445                          TS       TEMPDAP    +1                         #         YES, SET UP CORRECTION FRACTION
000127: 16,3112           34767                          CAF      TWO                                   #  SET UP TVCEXPHS FOR ENTRY AT CORSETUP
000128: 16,3113           55644                          TS       TVCEXPHS
000129: 16,3114           13126                          TCF      CORSETUP
000130:
000131: 16,3115           34762        1SHOTOK           CAF      ENGONBIT
000132: 16,3116           70101                          MASK     FLAGWRD5
000133: 16,3117           10000                          CCS      A
000134: 16,3120           13122                          TCF      +2                                    #         ONE-SHOT OK
000135: 16,3121           13217                          TCF      TVCEXFIN                              #         NO, TERMINATE
000136:
000137: 16,3122           25644                          INCR     TVCEXPHS                              #                                         (1)
000138: 16,3123           34754        TEMPSET           CAF      FCORFRAC                              #         SET UP CORRECTION FRACTION
000139: 16,3124           55445                          TS       TEMPDAP    +1
000140:
000141: 16,3125           25644                          INCR     TVCEXPHS                              #  ENTRY FROM REPCHECK AT NEXT LOCATION   (2)
000142: 16,3126           31465        CORSETUP          CAE      DAPDATR1                              #  CHECK FOR LEM-OFF/ON
000143: 16,3127           74754                          MASK     BIT13                                 #  (NOTE, SHOWS LEM-OFF)
000144: 16,3130           00006                          EXTEND
000145: 16,3131           13133                          BZF      +2                                    #  LEM IS ON,  PICK UP   TEMPDAP+1
000146: 16,3132           31445                          CAE      TEMPDAP    +1                         #  LEM IS OFF, PICK UP 2(TEMPDAP+1)
000147: 16,3133           61445                          AD       TEMPDAP    +1
000148: 16,3134           55444                          TS       TEMPDAP                               #  CG.CORR USES TEMPDAP
000149:
000150: 16,3135           37702                          CAF      NEGONE                                #  SET UP FOR CNTR = -1 (ONE-SHOT DONE)
000151: 16,3136           55661                          TS       CNTRTMP                               #         (COPYCYCLE AT 'CNTRCOPY')
000152:
000153: 16,3137           00006        CG.CORR           EXTEND                                         #  PITCH TMC LOOP
000154: 16,3140           31606                          DCA      PDELOFF
000155: 16,3141           53656                          DXCH     PACTTMP
000156: 16,3142           00006                          EXTEND
000157: 16,3143           41606                          DCS      PDELOFF
000158: 16,3144           20001                          DDOUBL
000159: 16,3145           20001                          DDOUBL
000160: 16,3146           53612                          DXCH     TTMP1
000161: 16,3147           00006                          EXTEND
000162: 16,3150           31602                          DCA      DELPBAR
000163: 16,3151           20001                          DDOUBL
000164: 16,3152           20001                          DDOUBL
000165: 16,3153           21612                          DAS      TTMP1
000166: 16,3154           00006                          EXTEND
000167: 16,3155           31612                          DCA      TTMP1
000168: 16,3156           00006                          EXTEND
000169: 16,3157           71444                          MP       TEMPDAP


000171: 16,3160           21656                          DAS      PACTTMP
000172:
000173: 16,3161           00006                          EXTEND                                         #  YAW TMC LOOP
000174: 16,3162           31610                          DCA      YDELOFF
000175: 16,3163           53660                          DXCH     YACTTMP
000176: 16,3164           00006                          EXTEND
000177: 16,3165           41610                          DCS      YDELOFF
000178: 16,3166           20001                          DDOUBL
000179: 16,3167           20001                          DDOUBL
000180: 16,3170           53612                          DXCH     TTMP1
000181: 16,3171           00006                          EXTEND
000182: 16,3172           31604                          DCA      DELYBAR
000183: 16,3173           20001                          DDOUBL
000184: 16,3174           20001                          DDOUBL
000185: 16,3175           21612                          DAS      TTMP1
000186: 16,3176           00006                          EXTEND
000187: 16,3177           31612                          DCA      TTMP1
000188: 16,3200           00006                          EXTEND
000189: 16,3201           71444                          MP       TEMPDAP
000190: 16,3202           21660                          DAS      YACTTMP
000191:
000192: 16,3203           25644        CORCOPY           INCR     TVCEXPHS                              #  RESTART-PROTECT THE COPYCYCLE          (3)
000193: 16,3204           00006                          EXTEND                                         #  TRIM-ESTIMATES, AND
000194: 16,3205           31656                          DCA      PACTTMP
000195: 16,3206           55423                          TS       PACTOFF                               #         TRIMS
000196: 16,3207           53606                          DXCH     PDELOFF
000197:
000198: 16,3210           00006                          EXTEND
000199: 16,3211           31660                          DCA      YACTTMP
000200: 16,3212           55424                          TS       YACTOFF
000201: 16,3213           53610                          DXCH     YDELOFF
000202:
000203: 16,3214           25644                          INCR     TVCEXPHS                              #  ENTRY FROM 1SHOTCHK AT NEXT LOCATION   (4)
000204: 16,3215           31661        CNTRCOPY          CAE      CNTRTMP                               #  UPDATE CNTR (RESTARTS OK, FOLLOWS CPYCY)
000205: 16,3216           55446                          TS       CNTR
000206:
000207: 16,3217           34772        TVCEXFIN          CAF      ZERO                                  #  RESET TVCEXPHS
000208: 16,3220           55644                          TS       TVCEXPHS
000209: 16,3221           15314                          TCF      TASKOVER                              #  TVCEXECUTIVE FINISHED
000210:
000211:
000212: 16,3222     4754               FCORFRAC          =        BIT13                                 #  ONE-SHOT CORRECTION FRACTION

End of include-file TVCEXECUTIVE.agc.  Parent file is MAIN.agc


