
Source Code


000002:                                                                                                  ## Copyright:   Public domain.
000003:                                                                                                  ## Filename:    TVCEXECUTIVE.agc
000004:                                                                                                  ## Purpose:     Part of the source code for Artemis (i.e., Colossus 3),
000005:                                                                                                  ##              build 072.  This is for the Command Module's (CM)
000006:                                                                                                  ##              Apollo Guidance Computer (AGC), for
000007:                                                                                                  ##              Apollo 15-17.
000008:                                                                                                  ## Assembler:   yaYUL
000009:                                                                                                  ## Contact:     Steve Case <case1780@adelphia.net>
000010:                                                                                                  ## Website:     www.ibiblio.org/apollo/index.html
000011:                                                                                                  ## Page Scans:  www.ibiblio.org/apollo/ScansForConversion/Artemis072/
000012:                                                                                                  ## Mod history: 2009-09-13 SMC  Adapted from Comanche055 files.
000013:                                                                                                  ##              2009-09-14 JL   Fix typos. Fix page numbers. Remove change comments. Restore hard tabs.
000014:                                                                                                  ##              2010-02-20 RSB  Un-##'d this header.
000015:                                                                                                  ##              2017-01-28 RSB  WTIH -> WITH.
000016:


000018:                                                                                                  #  PROGRAM NAME.... TVCEXECUTIVE, CONSISTING OF TVCEXEC, NEEDLEUP, VARGAINS
000019:                                                                                                  #                   1SHOTCHK, REPCHEK, CG.CORR, COPYCYCLES, ETC.
000020:                                                                                                  #  LOG SECTION...TVCEXECUTIVE                    SUBROUTINE...DAPCSM
000021:                                                                                                  #  MODIFIED BY SCHLUNDT                          21 OCTOBER 1968
000022:                                                                                                  #  MODIFIED BY BEALS TO ELIMINATE CSMMASS UPDATE LOGIC (NOW DONE IN S40.8)
000023:                                                                                                  #  FUNCTIONAL DESCRIPTION....
000024:
000025:                                                                                                  #       *A SELF-PERPETUATING WAITLIST TASK AT 1/2 SECOND INTERVALS WHICH:
000026:                                                                                                  #        PREPARES THE ROLL WITH OGA (CDUX)
000027:                                                                                                  #        PREPARES THE ROLL FDAI NEEDLE (FLY-TO  OGA ERROR)
000028:                                                                                                  #        PREPARES THE ROLL PHASE PLANE  OGAERR  (FLY-FROM  OGA ERROR)
000029:                                                                                                  #        PREPARES THE TVC ROLLDAP TASK WAITLIST CALL (3 CS DELAY)
000030:                                                                                                  #        UPDATES THE NEEDLES DISPLAY
000031:                                                                                                  #        CALLS MASSPROP TO UPDATE INERTIA DATA
000032:                                                                                                  #        UPDATES PITCH, YAW, AND ROLL DAP GAINS FROM MASSPROP DATA
000033:                                                                                                  #        PERFORMS ONE-SHOT CORRECTION FOR TMC LOOP 0-3 SEC AFTER IGNITION
000034:                                                                                                  #        PERFORMS REPETITIVE UPDATES FOR THE TMC LOOP AFTER THE ONE-SHOT CORR.
000035:
000036:                                                                                                  #  CALLING SEQUENCE....
000037:
000038:                                                                                                  #       *TVCEXEC CALLED AS A WAITLIST TASK, IN PARTICULAR BY TVCINIT4 AND BY
000039:                                                                                                  #        ITSELF, BOTH AT 1/2 SECOND INTERVALS
000040:
000041:                                                                                                  #  NORMAL EXIT MODE.... TASKOVER
000042:
000043:                                                                                                  #  ALARM OR ABORT EXIT MODES.... NONE
000044:
000045:                                                                                                  #  SUBROUTINES CALLED....NEEDLER, S40.15, MASSPROP, TASKOVER, IBNKCALL
000046:
000047:                                                                                                  #  OTHER INTERFACES....
000048:
000049:                                                                                                  #       *TVCRESTART PACKAGE FOR RESTARTS
000050:                                                                                                  #       *PITCHDAP, YAWDAP FOR VARIABLE GAINS AND ENGINE TRIM ANGLES
000051:                                                                                                  #  ERASABLE INITIALIZATION REQUIRED....
000052:
000053:                                                                                                  #       *SEE TVCDAPON....TVCINIT4
000054:                                                                                                  #       *VARK AND 1/CONACC (S40.15 OF TVCINITIALIZE)
000055:                                                                                                  #       *PAD LOAD EREPFRAC
000056:                                                                                                  #       *BITS 15,14 OF FLAGWRD6 (T5 BITS)
000057:                                                                                                  #       *TVCEXPHS FOR RESTARTS
000058:                                                                                                  #       *ENGINE-ON BIT (11.13) FOR RESTARTS
000059:                                                                                                  #       *CDUX, OGAD
000060:
000061:                                                                                                  #  OUTPUT....
000062:
000063:                                                                                                  #       *ROLL DAP OGANOW, FDAI NEEDLE= (AK). AND PHASE PLANE OGAERR
000064:                                                                                                  #       *VARIABLE GAINS FOR PITCH/YAW AND ROLL TVC DAPS
000065:                                                                                                  #       *SINGLE-SHOT AND REPETITIVE CORRECTIONS TO ENGINE TRIM ANGLES
000066:                                                                                                  #        PACTOFF AND YACTOFF
000067:                                                                                                  #  DEBRIS.... MUCH, BUT SHAREABLE WITH RCS/ENTRY, ALL IN EBANK6
000068:


000070: 16,2000                                           SETLOC   DAPROLL
000071: 16,2000                                           BANK
000072: 16,3037  E6,1446                                  EBANK=   CNTR
000073: 16,3037                                           COUNT*   $$/TVCX
000074:
000075:
000076: 16,3037           40102        TVCEXEC            CS       FLAGWRD6                              #  CHECK FOR TERMINATION (BITS 15,14 READ
000077: 16,3040           74076                           MASK     DPCONFIG                              #  10 FROM TVCDAPON TO RCSDAPON)
000078: 16,3041           00006                           EXTEND
000079: 16,3042           63217                           BZMF     TVCEXFIN                              #  TERMINATE
000080:
000081: 16,3043           35011                           CAF      .5SEC                                 #  W.L. CALL TO PERPETUATE TVCEXEC
000082: 16,3044           05223                           TC       TWIDDLE
000083: 16,3045           03037                           ADRES    TVCEXEC
000084: 16,3046           30032        ROLLPREP           CAE      CDUX                                  #  UPDATE ROLL LADDERS (NO NEED TO RESTART-
000085: 16,3047           57645                           XCH      OGANOW                                #        PROTECT, SINCE ROLL DAPS RE-START)
000086: 16,3050           57646                           XCH      OGAPAST
000087:
000088: 16,3051           31447                           CAE      OGAD                                  #  PREPARE ROLL FDAI NEEDLE  WITH FLY-TO
000089: 16,3052           00006                           EXTEND                                         #        ERROR (COMMAND - MEASURED)
000090: 16,3053           21645                           MSU      OGANOW
000091: 16,3054           55476                           TS       AK                                    #  FLY-TO OGA ERROR, SC.AT B-1 REVS
000092:
000093: 16,3055           00006                           EXTEND                                         #  PREPARE ROLL DAP PHASE PLANE  OGAERR
000094: 16,3056           74751                           MP       -BIT14
000095: 16,3057           55647                           TS       OGAERR                                #  PHASE-PLANE (FLY-FROM) OGAERROR,
000096:                                                                                                  #        SC.AT B+0 REVS
000097:
000098: 16,3060           36214                           CAF      THREE                                 #  SET UP ROLL DAP TASK (ALLOW SOME TIME)
000099: 16,3061           05223                           TC       TWIDDLE
000100: 16,3062           03342                           ADRES    ROLLDAP
000101: 16,3063           04714        NEEDLEUP           TC       IBNKCALL                              #  DO A NEEDLES UPDATE (RETURNS AFTER CADR)
000102: 16,3064           42425                           CADR     NEEDLER                               #        (NEEDLES RESTARTS ITSELF)
000103:
000104: 16,3065           11634        VARGAINS           CCS      VCNTR                                 #  TEST FOR GAIN UPDATE TIME
000105: 16,3066           13074                           TCF      EXECCOPY                              #  NOT YET
000106: 16,3067           04714        GAINCHNG           TC       IBNKCALL                              #  UPDATE IXX, IAVG, IAVG/TLX
000107: 16,3070           13347                           CADR     FIXCW                                 #  MASSPROP ENTRY  (ALREADY INITIALIZED)
000108: 16,3071           04714                           TC       IBNKCALL                              #  UPDATE 1/CONACC, VARK
000109: 16,3072           36452                           CADR     S40.15                                #        (S40.15 IS IN TVCINITIALIZE)
000110: 16,3073           34351                           CAF      NINETEEN                              #  RESET THE VARIABLE-GAIN UPDATE COUNTER
000111: 16,3074           55634        EXECCOPY           TS       VCNTR
000112: 16,3075           11446        1SHOTCHK           CCS      CNTR                                  #  CHECK FOR ONE-SHOT OR REPCORR
000113: 16,3076           13102                           TCF      +4                                    #        NOT YET
000114: 16,3077           13115                           TCF      1SHOTOK                               #        NOW
000115: 16,3100           13106                           TCF      REPCHEK                               #        ONE-SHOT OVER, ON TO REPCORR
000116: 16,3101           13115                           TCF      1SHOTOK                               #        NOW  (ONE-SHOT ONLY, NO REPCORR)
000117:
000118: 16,3102           55661                 +4        TS       CNTRTMP                               #  COUNT DOWN
000119: 16,3103           34766                           CAF      FOUR                                  #  SET UP TVCEXPHS FOR ENTRY AT CNTRCOPY


000121: 16,3104           55644                           TS       TVCEXPHS
000122: 16,3105           13215                           TCF      CNTRCOPY
000123:
000124: 16,3106           31633        REPCHEK            CAE      REPFRAC                               #  CHECK FOR REPETITIVE UPDATES
000125: 16,3107           00006                           EXTEND
000126: 16,3110           63217                           BZMF     TVCEXFIN                              #        NO, OVER-AND-OUT
000127: 16,3111           55445                           TS       TEMPDAP    +1                         #        YES, SET UP CORRECTION FRACTION
000128: 16,3112           34767                           CAF      TWO                                   #  SET UP TVCEXPHS FOR ENTRY AT CORSETUP
000129: 16,3113           55644                           TS       TVCEXPHS
000130: 16,3114           13126                           TCF      CORSETUP
000131:
000132: 16,3115           34762        1SHOTOK            CAF      ENGONBIT
000133: 16,3116           70101                           MASK     FLAGWRD5
000134: 16,3117           10000                           CCS      A
000135: 16,3120           13122                           TCF      +2                                    #        ONE-SHOT OK
000136: 16,3121           13217                           TCF      TVCEXFIN                              #        NO, TERMINATE
000137:
000138: 16,3122           25644                           INCR     TVCEXPHS                              #                                        (1)
000139: 16,3123           34754        TEMPSET            CAF      FCORFRAC                              #        SET UP CORRECTION FRACTION
000140: 16,3124           55445                           TS       TEMPDAP    +1
000141:
000142: 16,3125           25644                           INCR     TVCEXPHS                              #  ENTRY FROM REPCHECK AT NEXT LOCATION  (2)
000143: 16,3126           31465        CORSETUP           CAE      DAPDATR1                              #  CHECK FOR LEM-OFF/ON
000144: 16,3127           74754                           MASK     BIT13                                 #  (NOTE, SHOWS LEM-OFF)
000145: 16,3130           00006                           EXTEND
000146: 16,3131           13133                           BZF      +2                                    #  LEM IS ON,  PICK UP   TEMPDAP+1
000147: 16,3132           31445                           CAE      TEMPDAP    +1                         #  LEM IS OFF, PICK UP 2(TEMPDAP+1)
000148: 16,3133           61445                           AD       TEMPDAP    +1
000149: 16,3134           55444                           TS       TEMPDAP                               #  CG.CORR USES TEMPDAP
000150:
000151: 16,3135           37702                           CAF      NEGONE                                #  SET UP FOR CNTR = -1 (ONE-SHOT DONE)
000152: 16,3136           55661                           TS       CNTRTMP                               #        (COPYCYCLE AT 'CNTRCOPY')
000153:
000154: 16,3137           00006        CG.CORR            EXTEND                                         #  PITCH TMC LOOP
000155: 16,3140           31606                           DCA      PDELOFF
000156: 16,3141           53656                           DXCH     PACTTMP
000157: 16,3142           00006                           EXTEND
000158: 16,3143           41606                           DCS      PDELOFF
000159: 16,3144           20001                           DDOUBL
000160: 16,3145           20001                           DDOUBL
000161: 16,3146           53612                           DXCH     TTMP1
000162: 16,3147           00006                           EXTEND
000163: 16,3150           31602                           DCA      DELPBAR
000164: 16,3151           20001                           DDOUBL
000165: 16,3152           20001                           DDOUBL
000166: 16,3153           21612                           DAS      TTMP1
000167: 16,3154           00006                           EXTEND
000168: 16,3155           31612                           DCA      TTMP1
000169: 16,3156           00006                           EXTEND
000170: 16,3157           71444                           MP       TEMPDAP


000172: 16,3160           21656                           DAS      PACTTMP
000173:
000174: 16,3161           00006                           EXTEND                                         #  YAW TMC LOOP
000175: 16,3162           31610                           DCA      YDELOFF
000176: 16,3163           53660                           DXCH     YACTTMP
000177: 16,3164           00006                           EXTEND
000178: 16,3165           41610                           DCS      YDELOFF
000179: 16,3166           20001                           DDOUBL
000180: 16,3167           20001                           DDOUBL
000181: 16,3170           53612                           DXCH     TTMP1
000182: 16,3171           00006                           EXTEND
000183: 16,3172           31604                           DCA      DELYBAR
000184: 16,3173           20001                           DDOUBL
000185: 16,3174           20001                           DDOUBL
000186: 16,3175           21612                           DAS      TTMP1
000187: 16,3176           00006                           EXTEND
000188: 16,3177           31612                           DCA      TTMP1
000189: 16,3200           00006                           EXTEND
000190: 16,3201           71444                           MP       TEMPDAP
000191: 16,3202           21660                           DAS      YACTTMP
000192:
000193: 16,3203           25644        CORCOPY            INCR     TVCEXPHS                              #  RESTART-PROTECT THE COPYCYCLE         (3)
000194: 16,3204           00006                           EXTEND                                         #  TRIM-ESTIMATES, AND
000195: 16,3205           31656                           DCA      PACTTMP
000196: 16,3206           55423                           TS       PACTOFF                               #        TRIMS
000197: 16,3207           53606                           DXCH     PDELOFF
000198:
000199: 16,3210           00006                           EXTEND
000200: 16,3211           31660                           DCA      YACTTMP
000201: 16,3212           55424                           TS       YACTOFF
000202: 16,3213           53610                           DXCH     YDELOFF
000203:
000204: 16,3214           25644                           INCR     TVCEXPHS                              #  ENTRY FROM 1SHOTCHK AT NEXT LOCATION  (4)
000205: 16,3215           31661        CNTRCOPY           CAE      CNTRTMP                               #  UPDATE CNTR (RESTARTS OK, FOLLOWS CPYCY)
000206: 16,3216           55446                           TS       CNTR
000207:
000208: 16,3217           34772        TVCEXFIN           CAF      ZERO                                  #  RESET TVCEXPHS
000209: 16,3220           55644                           TS       TVCEXPHS
000210: 16,3221           15314                           TCF      TASKOVER                              #  TVCEXECUTIVE FINISHED
000211:
000212:
000213: 16,3222     4754               FCORFRAC           =        BIT13                                 #  ONE-SHOT CORRECTION FRACTION

End of include-file TVCEXECUTIVE.agc.  Parent file is MAIN.agc


