
Source Code


000002:                                                                                                  #  Copyright:    Public domain.
000003:                                                                                                  #  Filename:     UPDATE_PROGRAM.agc
000004:                                                                                                  #  Purpose:      Part of the source code for Artemis (i.e., Colossus 3),
000005:                                                                                                  #                build 072.  This is for the Command Module's (CM)
000006:                                                                                                  #                Apollo Guidance Computer (AGC), we believe for
000007:                                                                                                  #                Apollo 15-17.
000008:                                                                                                  #  Assembler:    yaYUL
000009:                                                                                                  #  Contact:      Jim Lawton <jim DOT lawton AT gmail DOT com>
000010:                                                                                                  #  Website:      www.ibiblio.org/apollo/index.html
000011:                                                                                                  #  Page scans:   www.ibiblio.org/apollo/ScansForConversion/Artemis072/
000012:                                                                                                  #  Mod history:  2009-08-18 JL   Adapted from corresponding Comanche 055 file.
000013:                                                                                                  #                2009-09-05 JL   Fixed typos.
000014:                                                                                                  #                2010-02-16 JL   Added SBANK= directive on page 1493.
000015:                                                                                                  #                2010-02-20 RSB  Un-##'d this header.
000016:                                                                                                  #                2010-07-18 JL   Fixed indentation.
000017:                                                                                                  #                2011-05-07 JL   Flagged SBANK= workarounds for future removal.
000018:                                                                                                  #                2011-05-17 JL   Removed all SBANK= workarounds.
000019:
000020:                                                                                                  # # Page 1490
000021:
000022:                                                                                                  #  PROGRAM NAME:         P27
000023:                                                                                                  #  WRITTEN BY:           KILROY/ DE WOLF
000024:
000025:                                                                                                  #  MOD NO:               6
000026:                                                                                                  #  MOD BY:               KILROY
000027:                                                                                                  #  DATE:                 01DEC67
000028:
000029:                                                                                                  #  LOG SECTION:          UPDATE PROGRAM.
000030:
000031:                                                                                                  #  FUNCT. DESCR:         P27 (THE UPDATE PROGRAM) PROCESSES COMMANDS AND DATA
000032:                                                                                                  #                            INSERTIONS REQUESTED BY THE GROUND VIA UPLINK.
000033:                                                                                                  #                            THE P27 PROGRAM WILL ACCEPT UPDATES
000034:                                                                                                  #                            ONLY DURING P00 FOR THE LM, AND ONLY DURING P00,
000035:                                                                                                  #                        P02, AND FRESH START FOR THE CSM.
000036:
000037:                                                                                                  #  CALLING SEQ:          PROGRAM IS INITIATED BY UPLINK ENTRY OF VERBS 70, 71, 72, AND 73.
000038:
000039:                                                                                                  #  SUBROUTINES:          TESTXACT, NEWMODEX, NEWMODEX +3, GOXDSPF, BANKCALL, FINDVAC, INTPRET, INTSTALL, TPAGREE,
000040:                                                                                                  #                        INTWAKEU, ENDEXT, POSTJUMP, FALTON, NEWPHASE, PHASCHNG
000041:
000042:                                                                                                  #  NORMAL EXIT:          TC ENDEXT
000043:
000044:                                                                                                  #  ALARM/ABORT:          TC FALTON FOLLOWED BY TC ENDEXT
000045:
000046:                                                                                                  #  RESTARTS:             P27 IS RESTART PROTECTED IN TWO WAYS...
000047:                                                                                                  #                        1. PRIOR TO VERIFLAG INVERSION (WHICH IS CAUSED BY THE GROUND/ASTRONAUT'S VERIFICATION OF UPDATE
000048:                                                                                                  #                           DATA BY SENDING A V33E WHEN V21N02 IS FLASHING)---
000049:                                                                                                  #                           NO PROTECTION EXCEPT PRE-P27 MODE IS RESTORED, COAST + ALIGN DOWNLIST IS SELECTED AND UPLINE
000050:                                                                                                  #                           ACTIVITY LIGHT IS TURNED OFF. (JUST AS IF A V34E WAS SENT DURING P27 DATA LOADS).
000051:                                                                                                  #                           V70,V71,V72, OR V73 WILL HAVE TO BE COMPLETELY RESENT BY USER.
000052:                                                                                                  #                        2. AFTER VERIFLAG INVERSION (WHEN UPDATE OF THE SPECIFIED ERASABLES IS BEING PERFORMED)---
000053:                                                                                                  #                           PROTECTED AGAINST RESTARTS.
000054:
000055:                                                                                                  #  DEBRIS:               UPBUFF  (20D)   TEMP STORAGE FOR ADDRESSES AND CONTENTS.
000056:                                                                                                  #                        UPVERB  (1)     VERB NUMBER MINUS 70D (E.G., FOR V72, UPVERB = 72D - 70D = 2)
000057:                                                                                                  #                        UPOLDMOD(1)     FOR MAJOR MODE INTERRUPTED BY P27.
000058:                                                                                                  #                        COMPNUMB(1)     TOTAL NUMBER OF COMPONENTS TO BE TRANSMITTED.
000059:                                                                                                  #                        UPCOUNT (1)     ACTUAL NUMBER OF COMPONENTS RECEIVED.
000060:                                                                                                  #                        UPTEMP  (1)     SCRATCH, BUT USUALLY CONTAINS COMPONENT NUMBER TO BE CHANGED DURING VERIFY CYCLE.
000061:
000062:                                                                                                  #  INPUT:
000063:
000064:                                                                                                  #        ENTRY                   DESCRIPTION
000065:
000066:                                                                                                  #        V70EXXXXXEXXXXXE        (LIFTOFF TIME INCREMENT) DOUBLE PRECISION OCTAL TIME INCREMENT, XXXXX XXXXX,
000067:                                                                                                  #                                IS ADDED TO TEPHEM, SUBTRACTED FROM AGC CLOCK(TIME2,TIME1), SUBTRACTED FROM CSM STATE
000068:                                                                                                  #                                VECTOR TIME(TETCSM) AND SUBTRACTED FROM LEM STATE VECTOR TIME (TETLEM).
000069:                                                                                                  #                                THE DP OCTAL TIME INCREMENT IS SCALED AT 2(28).
000070:                                                                                                  # # Page 1491
000071:
000072:                                                                                                  #        V71EIIEAAAAE            (CONTIGUOUS BLOCK UPDATE) II-2 OCTAL COMPONENTS, XXXXX,
000073:                                                                                                  #        XXXXXE                  ARE LOADED INTO ERASABLE STARTING AT ECADR, AAAA.
000074:                                                                                                  #        XXXXXE                  II IS .GE. 3 .AND. .LE. 20D.,
000075:                                                                                                  #                                AND (AAAA + II - 3) DOES NOT PRODUCE AN ADDRESS IN THE
000076:                                                                                                  #        9 NEXT BANK
000077:                                                                                                  #                                SCALING IS SAME AS INTERNAL REGISTERS.
000078:
000079:                                                                                                  #        V72EIIE                 (SCATTER UPDATE) (II-1)/2 OCTAL COMPONENTS, XXXXX, ARE
000080:                                                                                                  #        AAAAEXXXXXE             LOADED INTO ERASABLE LOCATIONS, AAAA.
000081:                                                                                                  #        AAAAEXXXXXE             II IS .GE. 3 .AND. .LE. 19D, AND MUST BE ODD.
000082:                                                                                                  #                                SCALING IS SAME AS INTERNAL REGISTERS.
000083:
000084:                                                                                                  #        V73EXXXXXEXXXXXE        (OCTAL CLOCK INCREMENT) DOUBLE PRECISION OCTAL TIME
000085:                                                                                                  #                                INCREMENT XXXXX XXXXX, IS ADDED TO THE AGC CLOCK, IN
000086:                                                                                                  #                                CENTISECONDS SCALED AT (2)28.
000087:                                                                                                  #                                THIS LOAD IS THE OCTAL EQUIVALENT OF V55.
000088:
000089:                                                                                                  #  OUTPUT:               IN ADDITION TO THE ABOVE REGISTER LOADS, ALL UPDATES
000090:                                                                                                  #                        COMPLEMENT BIT3 OF FLAGWORD7.
000091:
000092:                                                                                                  #  ADDITIONAL NOTES:     VERB 71, JUST DEFINED ABOVE WILL BE USED TO PERFORM BUT NOT LIMITED TO THE FOLLOWING UPDATES --
000093:                                                                                                  #                        1. CSM/LM STATE VECTOR UPDATE
000094:                                                                                                  #                        2. REFSMMAT UPDATE
000095:
000096:
000097:                                                                                                  #        THE FOLLOWING COMMENTS DELINEATE EACH SPECIAL UPDATE----
000098:
000099:                                                                                                  #  1. CSM/LM STATE VECTOR UPDATE (ALL DATA ENTRIES IN OCTAL)
000100:
000101:                                                                                                  #  ENTRIES:      DATA DEFINITION:                                SCALE FACTORS:
000102:                                                                                                  #  V71E          CONTIGUOUS BLOCK UPDATE VERB
000103:                                                                                                  #     21E        NUMBER OF COMPONENTS FOR STATE VECTOR UPDATE
000104:                                                                                                  #   AAAAE        ECADR OF 'UPSVFLAG'
000105:                                                                                                  #  XXXXXE        STATE VECTOR IDENTIFIER: 00001 FOR CSM, 77776 FOR LEM - EARTH SPHERE OF INFLUENCE SCALING
000106:                                                                                                  #                                         00002 FOR CSM, 77775 FOR LEM - LUNAR SPHERE OF INFLUENCE SCALING
000107:                                                                                                  #  XXXXXEXXXXXE  X POSITION
000108:                                                                                                  #  XXXXXEXXXXXE  Y POSITION
000109:                                                                                                  #  XXXXXEXXXXXE  Z POSITION
000110:                                                                                                  #  XXXXXEXXXXXE  X VELOCITY
000111:                                                                                                  #  XXXXXEXXXXXE  Y VELOCITY
000112:                                                                                                  #  XXXXXEXXXXXE  Z VELOCITY
000113:                                                                                                  #  XXXXXEXXXXXE  TIME FROM AGC CLOCK ZERO
000114:                                                                                                  #  V33E          VERB 33 TO SIGNAL THAT THE STATE VECTOR IS READY TO BE STORED.
000115:
000116:
000117:                                                                                                  #  2. REFSMMAT (ALL DATA ENTRIES IN OCTAL)
000118:                                                                                                  #  ENTRIES       DATA DEFINITITIONS                              SCALE FACTORS:
000119:                                                                                                  # # Page 1492
000120:                                                                                                  #  V71E          CONTIGUOUS BLOCK UPDATE VERB
000121:                                                                                                  #     24E        NUMBER OF COMPONENTS FOR REFSMMAT UPDATE
000122:                                                                                                  #   AAAAE        ECADR OF 'REFSMMAT'
000123:                                                                                                  #  XXXXXEXXXXXE  ROW 1 COLUMN 1                                  2(-1)
000124:                                                                                                  #  XXXXXEXXXXXE  ROW 1 COLUMN 2                                  2(-1)
000125:                                                                                                  #  XXXXXEXXXXXE  ROW 1 COLUMN 3                                  2(-1)
000126:                                                                                                  #  XXXXXEXXXXXE  ROW 2 COLUMN 1                                  2(-1)
000127:                                                                                                  #  XXXXXEXXXXXE  ROW 2 COLUMN 2                                  2(-1)
000128:                                                                                                  #  XXXXXEXXXXXE  ROW 2 COLUMN 3                                  2(-1)
000129:                                                                                                  #  XXXXXEXXXXXE  ROW 3 COLUMN 1                                  2(-1)
000130:                                                                                                  #  XXXXXEXXXXXE  ROW 3 COLUMN 2                                  2(-1)
000131:                                                                                                  #  XXXXXEXXXXXE  ROW 3 COLUMN 3                                  2(-1)
000132:                                                                                                  #  V33E          VERB 33 TO SIGNAL THAT REFSMMAT IS READY TO BE STORED.
000133:
000134: 43,2000                                           SETLOC   EXTVERBS
000135: 43,2000                                           BANK
000136:
000137: 43,3656  E3,1706                                  EBANK=   TEPHEM
000138:
000139: 43,3656                                           COUNT*   $$/P27
000140: 43,3656           34772        V70UPDAT           CAF      UP70                                  #  COMES HERE ON V70E
000141: 43,3657           13665                           TCF      V73UPDAT   +1
000142:
000143: 43,3660           34770        V71UPDAT           CAF      UP71                                  #  COMES HERE ON V71E
000144: 43,3661           13665                           TCF      V73UPDAT   +1
000145:
000146: 43,3662           34767        V72UPDAT           CAF      UP72                                  #  COMES HERE ON V72E
000147: 43,3663           13665                           TCF      V73UPDAT   +1
000148:
000149: 43,3664           36214        V73UPDAT           CAF      UP73                                  #  COMES HERE ON V73E
000150:
000151: 43,3665           54331                 +1        TS       UPVERBSV                              #  SAVE UPVERB UNTIL IT'S OK TO ENTER P27
000152:
000153: 43,3666           02076                           TC       TESTXACT                              #  GRAB DISPLAY IF AVAILABLE, OTHERWISE
000154:                                                                                                  #  TURN *OPERATOR ERROR* ON AND TERMINATE JOB
000155:
000156: 43,3667           31214                           CA       MODREG                                #  CHECK IF UPDATE ALLOWED
000157: 43,3670           00006                           EXTEND                                         #  FIRST CHECK FOR MODREG = +0, -0
000158: 43,3671           13707                           BZF      UPDATEOK                              #  FRESH START OR P00
000159: 43,3672           40104                           CS       FLAGWRD8
000160: 43,3673           74760                           MASK     UTBIT
000161: 43,3674           10000                           CCS      A
000162: 43,3675           13702                           TCF      +5
000163:
000164: 43,3676           41214                           CS       MODREG
000165: 43,3677           64124                           AD       OCT24
000166:                                                                                                  # # Page 1493
000167: 43,3700           00006                           EXTEND                                         #  FIRST CHECK FOR MODREG = +0, -0
000168: 43,3701           13707                           BZF      UPDATEOK                              #  FRESH START OR P00
000169:
000170: 43,3702           44767                           CS       TWO
000171: 43,3703           71214                           MASK     MODREG
000172: 43,3704           00006                           EXTEND
000173: 43,3705           13707                           BZF      +2                                    #  P02
000174: 43,3706           13717                           TCF      UPERROR
000175: 43,3707           31214        UPDATEOK           CAE      MODREG                                #  UPDATE ALLOWED.
000176: 43,3710           54301                           TS       UPOLDMOD                              #  SAVE CURRENT MAJOR MODE
000177:
000178: 43,3711           30331                           CAE      UPVERBSV                              #  SET UPVERB TO INDICATE TO P27
000179: 43,3712           54302                           TS       UPVERB                                #  WHICH EXTENDED VERB CALLED IT.
000180:
000181: 43,3713           34770                           CAF      ONE
000182: 43,3714           54303                           TS       UPCOUNT                               #  INITIALIZE UPCOUNT TO 1
000183:
000184: 43,3715           04655                           TC       POSTJUMP                              #  LEAVE EXTENDED VERB BANK AND
000185: 43,3716           65626                           CADR     UPPART2                               #  GO TO UPDATE PROGRAM (P27) BANK.
000186:
000187: 43,3717           04362        UPERROR            TC       FALTON                                #  TURN ON OP. ERROR
000188: 43,3720           04415                           TC       UPACTOFF                              #  TURN OFF UPLINK ACT LITE
000189: 43,3721           15524                           TCF      ENDEXT                                #  (RESTART GROUP NOT ESTABLISHED YET)
000190:
000191: 43,3722     4772               UP70               EQUALS   ZERO
000192: 43,3722     4770               UP71               EQUALS   ONE
000193: 43,3722     4767               UP72               EQUALS   TWO
000194: 43,3722     6214               UP73               EQUALS   THREE
000195:
000196: 42,2000                                           SETLOC   UPDATE3
000197: 42,2000                                           BANK
000198:
000199: 42,3626                                           COUNT*   $$/P27
000200:
000201: 42,3626                        UPPART2            EQUALS                                         #  UPDATE PROGRAM - PART 2
000202:
000203: 42,3626           05402                           TC       PHASCHNG                              #  SET RESTART GROUP 6 TO RESTORE OLD MODE
000204: 42,3627           07026                           OCT      07026                                 #  AND DOWNLIST AND EXIT IF RESTART OCCURS.
000205: 42,3630           30000                           OCT      30000                                 #  PRIORITY SAME AS CHRPRIO
000206: 42,3631     0304                                  EBANK=   UPBUFF
000207: 42,3631           03706 56100                     2CADR    UPOUT      +1
000208:
000209: 42,3633           34770                           CAF      ONE
000210: 42,3634           54332                           TS       DNLSTCOD                              #  DOWNLIST
000211:
000212: 42,3635           05344                           TC       NEWMODEX                              #  SET MAJOR MODE = 27
000213: 42,3636           00033                           DEC      27         B-14
000214:                                                                                                  # # Page 1494
000215:
000216: 42,3637           50302                           INDEX    UPVERB                                #  BRANCH DEPENDING ON WHETHER THE UPDATE
000217: 42,3640           13641                           TCF      +1                                    #  VERB REQUIRES A FIXED OR VARIABLE NUMBER
000218: 42,3641           13644                           TCF      +3                                    #  V70 FIXED                (OF COMPONENTS.
000219: 42,3642           13647                           TCF      OHWELL1                               #  V71 VARIABLE - GO GET NO. OF COMPONENTS
000220: 42,3643           13647                           TCF      OHWELL1                               #  V72 VARIABLE - GO GET NO. OF COMPONENTS
000221: 42,3644           34767                           CA       TWO                                   #  V73 (AND V70) FIXED
000222: 42,3645           54300                           TS       COMPNUMB                              #  SET NUMBER OF COMPONENTS TO 2.
000223: 42,3646           13672                           TCF      OHWELL2                               #  GO GET THE TWO UPDATE COMPONENTS
000224:
000225: 42,3647           33744        OHWELL1            CAF      ADUPBUFF                              #  * REQUEST USER TO SEND NUMBER *
000226: 42,3650           54156                           TS       MPAC       +2                         #  * OF COMPONENTS PARAMETER(II) *
000227: 42,3651           33746                 +2        CAF      UPLOADNV                              #  (CKV432 RETURNS HERE IF V32 ENCOUNTERED)
000228: 42,3652           04636                           TC       BANKCALL                              #  DISPLAY A FLASHING V21N01
000229: 42,3653           20576                           CADR     GOXDSPF                               #  TO REQUEST II.
000230: 42,3654           13733                           TCF      UPOUT4                                #  V32 TERMINATE UPDATE (P27) RETURN
000231: 42,3655           13651                           TCF      OHWELL1    +2
000232: 42,3656           03735                           TC       CK4V32                                #  DATA OR V32 RETURN
000233: 42,3657           44767                           CS       BIT2
000234: 42,3660           60304                           AD       UPBUFF                                #  IS II (NUMBER OF COMPONENTS PARAMETER)
000235: 42,3661           00006                           EXTEND                                         #  .GE. 3 AND .LE. 20D.
000236: 42,3662           63651                           BZMF     OHWELL1    +2
000237: 42,3663           40304                           CS       UPBUFF
000238: 42,3664           64353                           AD       UP21
000239: 42,3665           00006                           EXTEND
000240: 42,3666           63651                           BZMF     OHWELL1    +2
000241: 42,3667           30304                           CAE      UPBUFF
000242: 42,3670           54300                           TS       COMPNUMB                              #  SAVE II IN COMPNUMB
000243:
000244:                                                                                                  #  UPBUFF LOADING SEQUENCE
000245:
000246: 42,3671           24303                 -1        INCR     UPCOUNT                               #  INCREMENT COUNT OF COMPONENTS RECEIVED
000247: 42,3672           33745        OHWELL2            CAF      ADUPBFM1                              #  CALCULATE LOCATION (ECADR) IN UPBUFF
000248: 42,3673           60303                           AD       UPCOUNT                               #  WHERE NEXT COMPONENT SHOULD BE STORED.
000249: 42,3674           54156                 +2        TS       MPAC       +2                         #  PLACE ECADR INTO R3.
000250: 42,3675           33746                 +3        CAF      UPLOADNV                              #  (CK4V32 RETURNS HERE IF V32 ENCOUNTERED)
000251: 42,3676           04636                           TC       BANKCALL                              #  DISPLAY A FLASHING V21N01
000252: 42,3677           20576                           CADR     GOXDSPF                               #  TO REQUEST DATA.
000253: 42,3700           13733                           TCF      UPOUT4                                #  V34 TERMINATE UPDATE (P27) RETURN.
000254: 42,3701           13675                           TCF      OHWELL2    +3                         #  V33 PROCEED RETURN
000255: 42,3702           03735                           TC       CK4V32                                #  DATA OR V32 RETURN
000256: 42,3703           40303                           CS       UPCOUNT                               #  HAVE WE FINISHED RECEIVING ALL
000257: 42,3704           60300                           AD       COMPNUMB                              #  THE DATA WE EXPECTED.
000258: 42,3705           00006                           EXTEND
000259: 42,3706           63710                           BZMF     UPVERIFY                              #  YES - GO TO VERIFICATION SEQUENCE
000260: 42,3707           13671                           TCF      OHWELL2    -1                         #  NO - REQUEST ADDITIONAL DATA.
000261:
000262:                                                                                                  #  VERIFY SEQUENCE
000263:                                                                                                  # # Page 1495
000264: 42,3710           33743        UPVERIFY           CAF      ADUPTEMP                              #  PLACE ECADR WHERE COMPONENT NO. INDEX
000265: 42,3711           54156                           TS       MPAC       +2                         #  IS TO BE STORED INTO R3.
000266: 42,3712           33747                           CAF      UPVRFYNV                              #  (CK4V32 RETURNS HERE IF V32 ENCOUNTERED)
000267: 42,3713           04636                           TC       BANKCALL                              #  DISPLAY A FLASHING V21N02 TO REQUEXT
000268: 42,3714           20576                           CADR     GOXDSPF                               #  DATA CORRECTION OR VERIFICATION.
000269: 42,3715           13733                           TCF      UPOUT4                                #  V34 TERMINATE UPDATE (P27) RETURN
000270: 42,3716           13750                           TCF      UPSTORE                               #  V33 DATA SENT IS GOOD. GO STORE IT.
000271: 42,3717           03735                           TC       CK4V32                                #  COMPONENT NO. INDEX OR V32 RETURN
000272: 42,3720           30330                           CA       UPTEMP                                #  DOES THE COMPONENT NO. INDEX JUST SENT
000273: 42,3721           00006                           EXTEND                                         #  SPECIFY A LEGAL COMPONENT NUMBER?
000274: 42,3722           63710                           BZMF     UPVERIFY                              #  NO, IT IS NOT POSITIVE NONZERO
000275: 42,3723           40330                           CS       UPTEMP
000276: 42,3724           60300                           AD       COMPNUMB
000277: 42,3725           64770                           AD       BIT1
000278: 42,3726           00006                           EXTEND
000279: 42,3727           63710                           BZMF     UPVERIFY                              #  NO
000280: 42,3730           33745                           CAF      ADUPBFM1                              #  YES - BASED ON THE COMPONENT NO. INDEX
000281: 42,3731           60330                           AD       UPTEMP                                #  CALCULATE THE ECADR OF LOCATION IN
000282: 42,3732           13674                           TCF      OHWELL2    +2                         #  UPBUFF WHICH USER WANTS TO CHANGE.
000283:
000284: 42,3733           04655        UPOUT4             TC       POSTJUMP                              #  COMES HERE ON V34 TC TERMINATE UPDATE.
000285: 42,3734           57706                           CADR     UPOUT      +1
000286:
000287:                                                                                                  #  CHECK FOR VERB 32 SEQUENCE
000288:
000289: 42,3735           40154        CK4V32             CS       MPAC                                  #  ON DATA RETURN FROM 'GOXDSPF'
000290: 42,3736           74763                           MASK     BIT6                                  #  ON DATA RETURN FROM "GOXDSP" & THE CON-
000291: 42,3737           10000                           CCS      A                                     #  TENTS OF MPAC = VERB.  SO TEST FOR V32.
000292: 42,3740           00002                           TC       Q                                     #  IT'S NOT A V32, IT'S DATA.  PROCEED.
000293: 42,3741           50002                           INDEX    Q
000294: 42,3742           77771                           TC       0          -6                         #  V32 ENCOUNTERED - GO BACK AND GET DATA
000295:
000296: 42,3743           00330        ADUPTEMP           ADRES    UPTEMP                                #  ADDRESS OF TEMP STORAGE FOR CORRECTIONS
000297: 42,3744           00304        ADUPBUFF           ADRES    UPBUFF                                #  ADDRESS OF UPDATE DATA STORAGE BUFFER
000298: 42,3745           00303        ADUPBFM1           ADRES    UPBUFF     -1                         #  SAME AS ADUPBUFF BUT LESS ONE
000299: 42,3746           05201        UPLOADNV           VN       2101                                  #  VERB 21 NOUN 01
000300: 42,3747           05202        UPVRFYNV           VN       2102                                  #  VERB 21 NOUN 02
000301: 42,3750     4353               UP21               =        MD1                                   #  DEC 21 = MAX NO OF COMPONENTS +1
000302: 42,3750     4773               UPDTPHAS           EQUALS   FIVE
000303:
000304:                                                                                                  #  PRE-STORE AND FAN TO APPROPRIATE BRANCH SEQUENCE
000305:
000306: 42,3750                        UPSTORE            EQUALS                                         #  GROUND HAS VERIFIED UPDATE. STORE DATA.
000307:
000308: 42,3750           00004                           INHINT
000309:
000310: 42,3751           30103                           CAE      FLAGWRD7                              #  INVERT VERIFLAG (BIT 3 OF FLAGWRD7) TO
000311: 42,3752           56001                           XCH      L                                     #  INDICATE TO THE GROUND (VIA DOWNLINK)
000312: 42,3753           34766                           CAF      VERIFBIT                              #  THAT THE V33 (WHICH THE GROUND SENT TO
000313: 42,3754           00006                           EXTEND                                         #  VERIFY THE UPDATE) HAS BEEN SUCCESSFULLY
000314:                                                                                                  # # Page 1496
000315: 42,3755           06001                           RXOR     LCHAN                                 #  RECEIVED BY THE UPDATE PROGRAM
000316: 42,3756           54103                           TS       FLAGWRD7
000317:
000318: 42,3757           05402                           TC       PHASCHNG                              #  SET RESTART GROUP 6 TO REDO THE UPDATE
000319: 42,3760           04026                           OCT      04026                                 #  DATA STORE IF A RESTART OCCURS.
000320: 42,3761           00004                           INHINT                                         #  (BECAUSE PHASCHNG DID A RELINT)
000321:
000322: 42,3762           44767                           CS       TWO                                   #  GO TO UPFNDVAC IF INSTALL IS REQUIRED.
000323: 42,3763           60302                           AD       UPVERB                                #  THAT IS, IF IT'S A V70 - V72.
000324: 42,3764           00006                           EXTEND                                         #  GO TO UPEND73 IF IT'S A V73.
000325: 42,3765           63770                           BZMF     UPFNDVAC
000326:
000327: 42,3766           04655                           TC       POSTJUMP
000328: 42,3767           57757                           CADR     UPEND73
000329:
000330: 42,3770           34346        UPFNDVAC           CAF      CHRPRIO                               #  (USE EXTENDED VERB PRIORITY)
000331: 42,3771           05135                           TC       FINDVAC                               #  GET VAC AREA FOR 'CALL INTSTALL'
000332: 42,3772  E3,1706                                  EBANK=   TEPHEM
000333: 42,3772           03545 56103                     2CADR    UPJOB                                 #  (NOTE:  THIS WILL ALSO SET EBANK FOR
000334:
000335: 42,3774           05205                           TC       ENDOFJOB                              #  'TEPHEM' UPDATE BY V70)
000336:
000337: 27,2000                                           SETLOC   UPDATE2
000338: 27,2000                                           BANK
000339:
000340: 27,3545                                           COUNT*   $$/P27
000341: 27,3545           06006        UPJOB              TC       INTPRET                               #  THIS COULD BE A STATE VECTOR UPDATE -- SO
000342: 27,3546           77624                           CALL                                           #  WAIT (PUT JOB TO SLEEP) IF ORBIT INT(OI)
000343: 27,3547           27516                                    INTSTALL                              #  IS IN PROGRESS -- OR -- GRAB OI AND RETURN
000344:                                                                                                  #  TO UPWAKE IF OI IS NOT IN PROGRESS.
000345:
000346: 27,3550           77776        UPWAKE             EXIT
000347:
000348: 27,3551           05402                           TC       PHASCHNG                              #  RESTART PROTECT (GROUP 6)
000349: 27,3552           04026                           OCT      04026
000350:
000351: 27,3553           05547                           TC       UPFLAG                                #  SET INTEGRATION RESTART BIT
000352: 27,3554           00230                           ADRES    REINTFLG
000353: 27,3555           00004                           INHINT
000354: 27,3556                        UPPART3            EQUALS
000355:
000356: 27,3556           50302                           INDEX    UPVERB                                #  BRANCH TO THE APPROPRIATE UPDATE VERB
000357: 27,3557           13560                           TCF      +1                                    #  ROUTINE TO ACTUALLY PERFORM THE UPDATE
000358: 27,3560           13722                           TCF      UPEND70                               #  V70
000359: 27,3561           13626                           TCF      UPEND71                               #  V71
000360: 27,3562           13660                           TCF      UPEND72                               #  V72
000361:
000362:                                                                                                  #  ROUTINE TO INCREMENT CLOCK (TIME2,TIME1) WITH CONTENTS OF DP WORD AT UPBUFF.
000363:                                                                                                  # # Page 1497
000364: 27,3563           00006        TIMEDIDL           EXTEND
000365: 27,3564           22330                           QXCH     UPTEMP                                #  SAVE Q FOR RETURN
000366: 27,3565           34772                           CAF      ZERO                                  #  ZERO AND SAVE TIME2,TIME1
000367: 27,3566           22007                           ZL
000368: 27,3567           52025                           DXCH     TIME2
000369: 27,3570           52327                           DXCH     UPBUFF     +18D                       #  STORE IN CASE OF OVERFLOW
000370:
000371: 27,3571           34773                           CAF      UPDTPHAS                              #  DO
000372: 27,3572           54001                           TS       L                                     #  A
000373: 27,3573           40000                           COM                                            #  QUICK
000374: 27,3574           53170                           DXCH     -PHASE6                               #  PHASCHNG
000375:
000376: 27,3575  01,2330               6P5SPT1            =        6.5SPOT
000377: 27,3575           00004        TIMEDIDR           INHINT
000378: 27,3576           34772                           CAF      ZERO
000379: 27,3577           22007                           ZL                                             #  PICK UP INCRMENTER (AND ZERO
000380: 27,3600           54156                           TS       MPAC       +2                         #  IT IN CASE OF RESTARTS) AND
000381: 27,3601           52315                           DXCH     UPBUFF     +8D                        #  STORE IT
000382: 27,3602           52155                           DXCH     MPAC                                  #  INTO MPAC FOR TPAGREE.
000383:
000384: 27,3603           00006                           EXTEND
000385: 27,3604           30327                           DCA      UPBUFF     +18D
000386: 27,3605           20155                           DAS      MPAC                                  #  FORM SUM IN MPAC
000387: 27,3606           00006                           EXTEND
000388: 27,3607           13616                           BZF      DELTATOK                              #  TEST FOR OVERFLOW
000389: 27,3610           34772                           CAF      ZERO
000390: 27,3611           52327                           DXCH     UPBUFF     +18D                       #  OVERFLOW, RESTORE OLD VALUE OF CLOCK
000391: 27,3612           20025                           DAS      TIME2                                 #  AND TURN ON OPERATOR ERROR
000392:
000393: 27,3613           05402                           TC       PHASCHNG                              #  RESTART PROTECT (GROUP 6)
000394: 27,3614           04026                           OCT      04026
000395:
000396: 27,3615           00330                           TC       UPTEMP                                #  GO TO ERROR EXIT
000397:
000398: 27,3616           07226        DELTATOK           TC       TPAGREE                               #  FORCE SIGN AGREEMENT
000399: 27,3617           52155                           DXCH     MPAC
000400: 27,3620           20025                           DAS      TIME2                                 #  INCREMENT TIME2,TIME1
000401:
000402: 27,3621           05402                           TC       PHASCHNG                              #  RESTART PROTECT (GROUP 6)
000403: 27,3622           04026                           OCT      04026
000404:
000405: 27,3623           00004                           INHINT
000406: 27,3624           50330                           INDEX    UPTEMP                                #  (CODED THIS WAY FOR RESTART PROTECTION)
000407: 27,3625           00001                           TC       1                                     #  NORMAL RETURN
000408:
000409:                                                                                                  #  VERB 71 BRANCH
000410:
000411: 27,3626           30305        UPEND71            CAE      UPBUFF     +1                         #  SET EBANK
000412: 27,3627           54003                           TS       EBANK                                 #     AND
000413: 27,3630           74350                           MASK     LOW8                                  #  CALCULATE
000414:                                                                                                  # # Page 1498
000415: 27,3631           54330                           TS       UPTEMP                                #  S-REG VALUE OF RECEIVING AREA
000416:
000417: 27,3632           67700                           AD       NEG3                                  #  IN THE PROCESS OF
000418: 27,3633           60300                           AD       COMPNUMB                              #  PERFORMING
000419: 27,3634           00006                           EXTEND                                         #  THIS UPDATE
000420: 27,3635           13643                           BZF      STORLP71                              #  WILL WE
000421: 27,3636           74760                           MASK     BIT9                                  #  OVERFLOW
000422: 27,3637           10000                           CCS      A                                     #  INTO THE NEXT EBANK....
000423: 27,3640           13656                           TCF      UPERROUT                              #  YES
000424:
000425: 27,3641           37700                           CA       NEG3                                  #  NO - CALCULATE NUMBER OF
000426: 27,3642           60300                           AD       COMPNUMB                              #  WORDS TO BE STORED MINUS ONE
000427: 27,3643           54154        STORLP71           TS       MPAC                                  #  SAVE NO. OF WORDS REMAINING MINUS ONE
000428: 27,3644           50000                           INDEX    A                                     #  TAKE NEXT UPDATE WORD FROM
000429: 27,3645           30306                           CA       UPBUFF     +2                         #  UPBUFF AND
000430: 27,3646           54001                           TS       L                                     #  SAVE IT IN L
000431: 27,3647           30154                           CA       MPAC                                  #  CALCULATE NEXT
000432: 27,3650           60330                           AD       UPTEMP                                #  RECEIVING ADDRESS
000433: 27,3651           50000                           INDEX    A
000434: 27,3652  E3,1400                                  EBANK=   1400
000435: 27,3652           23400                           LXCH     1400                                  #  UPDATE THE REGISTER BY CONTENTS OF L
000436: 27,3653  E3,1706                                  EBANK=   TEPHEM
000437: 27,3653           10154                           CCS      MPAC                                  #  ARE THERE ANY WORDS LEFT TO BE STORED
000438: 27,3654           13643                           TCF      STORLP71                              #  YES
000439: 27,3655           13705                           TCF      UPOUT                                 #  NO - THEN EXIT UPDATE PROGRAM
000440: 27,3656           04362        UPERROUT           TC       FALTON                                #  TURN ON OP ERROR, CCS CANT GET HERE
000441: 27,3657           13705                           TCF      UPOUT                                 #  NO - EXIT UPDATE (HERE WHEN COMPNUMB = 3)
000442:
000443:                                                                                                  #  VERB 72 BRANCH
000444:
000445: 27,3660           34770        UPEND72            CAF      BIT1                                  #  HAVE AN ODD NO. OF COMPONENTS
000446: 27,3661           70300                           MASK     COMPNUMB                              #  BEEN SENT FOR A V72 UPDATE...
000447: 27,3662           10000                           CCS      A
000448: 27,3663           13665                           TCF      +2                                    #  YES
000449: 27,3664           13656                           TCF      UPERROUT                              #  ERROR - SHOULD BE ODD NO. OF COMPONENTS
000450: 27,3665           44767                           CS       BIT2
000451: 27,3666           60300                           AD       COMPNUMB
000452: 27,3667           54154        LDLOOP72           TS       MPAC                                  #  NOW PERFORM THE UPDATE
000453: 27,3670           50000                           INDEX    A
000454: 27,3671           30305                           CAE      UPBUFF     +1                         #  PICK UP NEXT UPDATE WORD
000455: 27,3672           22000                           LXCH     A
000456: 27,3673           10154                           CCS      MPAC                                  #  SET POINTER TO ECADR (MUST BE CCS)
000457: 27,3674           54154                           TS       MPAC
000458: 27,3675           50000                           INDEX    A
000459: 27,3676           30305                           CAE      UPBUFF     +1                         #  PICK UP NEXT ECADR OF REG TO BE UPDATED
000460: 27,3677           54003                           TS       EBANK                                 #  SET EBANK
000461: 27,3700           74350                           MASK     LOW8                                  #  ISOLATE RELATIVE ADDRESS
000462: 27,3701           50000                           INDEX    A
000463: 27,3702  E3,1400                                  EBANK=   1400
000464:                                                                                                  # # Page 1499
000465: 27,3702           23400                           LXCH     1400                                  #  UPDATE THE REGISTER BY CONTENTS OF L
000466: 27,3703  E3,1706                                  EBANK=   TEPHEM
000467: 27,3703           10154                           CCS      MPAC                                  #  ARE WE THORUGH THE V72 UPDATE...
000468: 27,3704           13667                           TCF      LDLOOP72                              #  NO
000469:
000470:                                                                                                  #  NORMAL FINISH OF P27
000471:
000472: 27,3705                        UPOUT              EQUALS
000473: 27,3705           03072                           TC       INTWAKEU                              #  RELEASE  GRAB  OF ORBITAL INTEGRATION
000474: 27,3706           30301                 +1        CAE      UPOLDMOD                              #  RESTORE PRIOR P27 MODE
000475: 27,3707           05347                           TC       NEWMODEA
000476: 27,3710           44770                           CS       BIT1
000477: 27,3711           61214                           AD       MODREG
000478: 27,3712           10000                           CCS      A
000479: 27,3713           10000                           CCS      A
000480: 27,3714           34767                           CAF      TWO
000481: 27,3715           54332                           TS       DNLSTCOD
000482: 27,3716           04415                           TC       UPACTOFF                              #  TURN OFF 'UPLINK ACTIVITY' LIGHT
000483: 27,3717           04636                           TC       BANKCALL                              #  KILL GROUP 6
000484: 27,3720           12556                           CADR     UPKLEAN
000485:
000486: 27,3721           05524                           TC       ENDEXT                                #  EXTENDED VERB EXIT
000487:
000488:                                                                                                  #  VERB TO BRANCH
000489:
000490: 27,3722           00006        UPEND70            EXTEND                                         #  V70 DOES THE FOLLOWING WITH DP DELTA
000491: 27,3723           40305                           DCS      UPBUFF                                #  TIME IN UPBUFF
000492: 27,3724           52315                           DXCH     UPBUFF     +8D
000493: 27,3725           03563                           TC       TIMEDIDL                              #  DECREMENT AGC CLOCK
000494:
000495: 27,3726           03656                           TC       UPERROUT                              #  ERROR WHILE DECREMENTING CLOCK -- EXIT
000496:
000497: 27,3727  E3,1706                                  EBANK=   TEPHEM
000498: 27,3727           00006                           EXTEND
000499: 27,3730           40305                           DCS      UPBUFF                                #  COPY DECREMENTERS FOR
000500: 27,3731           52317                           DXCH     UPBUFF     +10D                       #  RESTART PROTECTION
000501: 27,3732           00006                           EXTEND
000502: 27,3733           40305                           DCS      UPBUFF
000503: 27,3734           52321                           DXCH     UPBUFF     +12D
000504:
000505: 27,3735           05402                           TC       PHASCHNG                              #  RESTART PROTECT (GROUP 6)
000506: 27,3736           04026                           OCT      04026
000507:
000508: 27,3737           34772                           CAF      ZERO
000509: 27,3740           22007                           ZL
000510: 27,3741           52317                           DXCH     UPBUFF     +10D                       #  DECREMENT CSM STATE VECTOR TIME
000511: 27,3742           21571                           DAS      TETCSM
000512:
000513:                                                                                                  # # Page 1500
000514: 27,3743           34772                           CAF      ZERO
000515: 27,3744           22007                           ZL
000516: 27,3745           52321                           DXCH     UPBUFF     +12D                       #  DECREMENT LEM STATE VECTOR TIME
000517: 27,3746           21643                           DAS      TETLEM
000518:
000519: 27,3747           34772                           CAF      ZERO
000520: 27,3750           22007                           ZL
000521: 27,3751           52305                           DXCH     UPBUFF
000522: 27,3752           21710                           DAS      TEPHEM     +1                         #  INCREMENT TP TEPHEM
000523: 27,3753           27706                           ADS      TEPHEM
000524:
000525: 27,3754           05402                           TC       PHASCHNG                              #  RESTART PROTECT (GROUP 6)
000526: 27,3755           04026                           OCT      04026
000527:
000528: 27,3756     0304                                  EBANK=   UPBUFF
000529:
000530: 27,3756           03705                           TC       UPOUT                                 #  GO TO STANDARD UPDATE PROGRAM EXIT
000531:
000532:                                                                                                  #  VERB 73 BRANCH
000533:
000534: 27,3757           00006        UPEND73            EXTEND                                         #  V73 -- PERFORM DP OCTAL AGC CLOCK INCREMENT
000535: 27,3760           30305                           DCA      UPBUFF
000536: 27,3761           52315                           DXCH     UPBUFF     +8D
000537: 27,3762           03563                           TC       TIMEDIDL
000538: 27,3763           04362                           TC       FALTON                                #  ERROR -- TURN ON *OPERATOR ERROR* LIGHT
000539: 27,3764           03706                           TC       UPOUT      +1                         #  GO TO COMMON UPDATE PROGRAM EXIT
000540:
000541:                                                                                                  #  ERROR SEQUENCE
000542:
000543: 27,3765  30,2000                                  SBANK=   LOWSUPER

End of include-file UPDATE_PROGRAM.agc.  Parent file is MAIN.agc


