
Source Code


000002:                                                                                                  ## Copyright:   Public domain.
000003:                                                                                                  ## Filename:    WAITLIST.agc
000004:                                                                                                  ## Purpose:     Part of the source code for Artemis (i.e., Colossus 3),
000005:                                                                                                  ##              build 072.  This is for the Command Module's (CM)
000006:                                                                                                  ##              Apollo Guidance Computer (AGC), for
000007:                                                                                                  ##              Apollo 15-17.
000008:                                                                                                  ## Assembler:   yaYUL
000009:                                                                                                  ## Contact:     Jim Lawton <jim DOT lawton AT gmail DOT com>
000010:                                                                                                  ## Website:     www.ibiblio.org/apollo/index.html
000011:                                                                                                  ## Page Scans:  www.ibiblio.org/apollo/ScansForConversion/Artemis072/
000012:                                                                                                  ## Mod history: 2009-08-29 JL   Adapted from corresponding Comanche 055 file.
000013:                                                                                                  ##              2010-02-20 RSB  Un-##'d this header.
000014:                                                                                                  ##              2010-04-04 JL   Added missing # comment delimitera.
000015:                                                                                                  ##              2011-05-07 JL   Removed workarounds.
000016:                                                                                                  ##              2017-02-09 RSB  Proofed comment text by diff'ing vs Comanche 55
000017:                                                                                                  ##                              and/or octopus/ProoferComments as most-appropriate.
000018:                                                                                                  ##              2017-03-16 RSB  Comment-text fixes identified in 5-way
000019:                                                                                                  ##                              side-by-side diff of Luminary 69/99/116/131/210.
000020:                                                                                                  ##              2021-05-30 ABS  Added SUPERRSM location symbol.
000021:


000023:
000024:                                                                                                  #  PROGRAM DESCRIPTION                                                           DATE - 10 OCTOBER 1966
000025:                                                                                                  #  MOD NO - 2                                                                    LOG SECTION - WAITLIST
000026:                                                                                                  #  MOD BY - MILLER       (DTMAX INCREASED TO 162.5 SEC)                          ASSEMBLY SUNBURST REV 5
000027:                                                                                                  #  MOD 3 BY KERNAN       (INHINT INSERTED AT WAITLIST) 2/28/68 SKIPPER REV 4
000028:                                                                                                  #  MOD 4 BY KERNAN       (TWIDDLE IN 54) 3/28/68 SKIPPER REV 13.
000029:
000030:                                                                                                  #  FUNCTIONAL DESCRIPTION-
000031:                                                                                                  #        PART OF A SECTION OF PROGRAMS,-WAITLIST, TASKOVER, T3RUPT, USED TO CALL A PROGRAM, (CALLED A TASK),
000032:                                                                                                  #        WHICH IS TO BEGIN IN C(A) CENTISECONDS.  WAITLIST UPDATES TIME3, LST1 AND LST2. THE MEANING OF THESE LISTS
000033:                                                                                                  #        FOLLOW.
000034:
000035:                                                                                                  #                C(TIME3) = 16384 -(T1-T) CENTISECONDS, (T=PRESENT TIME, T1-TIME FOR TASK1)
000036:
000037:                                                                                                  #                        C(LST1)         =       -(T2-T1)+1
000038:                                                                                                  #                        C(LST1 +1)      =       -(T3-T2)+1
000039:                                                                                                  #                        C(LST1 +2)      =       -(T4-T3)+1
000040:                                                                                                  #                                        .
000041:                                                                                                  #                                        .
000042:                                                                                                  #                        C(LST1 +6)      =       -(T8-T7)+1
000043:                                                                                                  #                        C(LST1 +7)      =       -(T9-T8)+1
000044:
000045:                                                                                                  #                        C(LST2)         =       2CADR OF TASK1
000046:                                                                                                  #                        C(LST2 +2)      =       2CADR OF TASK2
000047:                                                                                                  #                                        .
000048:                                                                                                  #                                        .
000049:                                                                                                  #                        C(LST2 +14)     =       2CADR OF TASK8
000050:                                                                                                  #                        C(LST2 +16)     =       2CADR OF TASK9
000051:
000052:                                                                                                  #  WARNINGS-
000053:                                                                                                  #  --------
000054:                                                                                                  #                1) 1 <= C(A) <= 16250D (1 CENTISECOND TO 162.5 SEC)
000055:                                                                                                  #                2) 9 TASKS MAXIMUM
000056:                                                                                                  #                3) TASKS CALLED UNDER INTERRUPT INHIBITED
000057:                                                                                                  #                4) TASKS END BY TC TASKOVER
000058:
000059:                                                                                                  #  CALLING SEQUENCE-
000060:                                                                                                  #
000061:                                                                                                  #                L-1     CA      DELTAT  (TIME IN CENTISECONDS TO TASK START)
000062:                                                                                                  #                L       TC      WAITLIST
000063:                                                                                                  #                L+1     2CADR   DESIRED TASK
000064:                                                                                                  #                L+2     (MINOR OF 2CADR)
000065:                                                                                                  #                L+3     RELINT          (RETURNS HERE)
000066:
000067:                                                                                                  #  TWIDDLE-
000068:                                                                                                  #  -------
000069:                                                                                                  #        TWIDDLE IS FOR USE WHEN THE TASK BEING SET UP IS IN THE SAME EBANK AND FBANK AS THE USER.  IN
000070:                                                                                                  #        SUCH CASES, IT IMPROVES UPON WAITLIST BY ELIMINATING THE NEED FOR THE BBCON HALF OF THE 2CADR,


000072:                                                                                                  #        SAVING A WORD.  TWIDDLE IS LIKE WAITLIST IN EVERY RESPECT EXCEPT CALLING SEQUENCE, TO WIT-
000073:
000074:                                                                                                  #                L-1     CA      DELTAT
000075:                                                                                                  #                L       TC      TWIDDLE
000076:                                                                                                  #                L+1     ADRES   DESIRED TASK
000077:                                                                                                  #                L+2     RELINT                  (RETURNS HERE)
000078:
000079:                                                                                                  #  NORMAL EXIT MODES-
000080:
000081:                                                                                                  #                AT L+3 OF CALLING SEQUENCE
000082:
000083:                                                                                                  #  ALARM OR ABORT EXIT MODES-
000084:
000085:                                                                                                  #                TC      ABORT
000086:                                                                                                  #                OCT     1203    (WAITLIST OVERFLOW - TOO MANY TASKS)
000087:
000088:                                                                                                  #  ERASABLE INITIALIZATION REQUIRED-
000089:
000090:                                                                                                  #                ACCOMPLISHED BY FRESH START,--LST2,...,LST2 +16 = ENDTASK
000091:                                                                                                  #                                              LST1,...,LST1 +7  = NEG1/2
000092:
000093:                                                                                                  #  OUTPUT--
000094:                                                                                                  #                LST1 AND LST2 UPDATED WITH NEW TASK AND ASSOCIATED TIME.
000095:
000096:                                                                                                  #  DEBRIS-
000097:
000098:                                                                                                  #                CENTRALS - A,Q,L
000099:                                                                                                  #                OTHER    - WAITEXIT, WAITADR, WAITTEMP, WAITBANK
000100:
000101:                                                                                                  #  DETAILED ANALYSIS OF TIMING-
000102:
000103:                                                                                                  #        CONTROL WILL NOT BE RETURNED TO THE SPECIFIED ADDRESS (2CADR) IN EXACTLY DELTA T CENTISECONDS.
000104:                                                                                                  #        THE APPROXIMATE TIME MAY BE CALCULATED AS FOLLOWS
000105:                                                                                                  #                        LET TO = THE TIME OF THE TC WAITLIST
000106:                                                                                                  #                        LET TS = TO +147U + COUNTER INCREMENTS (SET UP TIME)
000107:                                                                                                  #                        LET X  = TS -(100TS)/100  (VARIANCE FROM COUNTERS)
000108:                                                                                                  #                        LET Y  = LENGTH OF TIME OF INHIBIT INTERRUPT AFTER T3RUPT
000109:                                                                                                  #                        LET Z  = LENGTH OF TIME TO PROCESS TASKS WHICH ARE DUE THIS T3RUPT BUT DISPATCHED EARLIER.
000110:                                                                                                  #        (Z=0, USUALLY)
000111:                                                                                                  #                        LET DELTD = THE ACTUAL TIME TAKEN TO GIVE CONTROL TO 2CADR
000112:                                                                                                  #                THEN DELTD = TS+DELTA T -X +Y +Z +1.05MS* +COUNTERS*
000113:                                                                                                  #        *-THE TIME TAKEN BY WAITLIST ITSELF AND THE COUNTER TICKING DURING THIS WAITLIST TIME.
000114:
000115:                                                                                                  #        IN SHORT, THE ACTUAL TIME TO RETURN CONTROL TO A 2CADR IS AUGMENTED BY THE TIME TO SET UP THE TASK:S
000116:                                                                                                  #        INTERRUPT, ALL COUNTERS TICKING, THE T3RUPT PROCESSING TIME, THE WAITLIST PROCESSING TIME AND THE POSSIBILITY
000117:                                                                                                  #        OF OTHER TASKS INHIBITING THE INTERRUPT.
000118:
000119:    4000                                           SETLOC   WAITF2


000121:    4000                                           BANK
000122:
000123:    5222  E3,1400                                  EBANK=   LST1                                  #  TASK LISTS IN SWITCHED E BANK.
000124:
000125:    5222                                           COUNT*   $$/WAIT
000126:    5222           34770        TWIDBIT1           CAF      ONE
000127:    5223           00004        TWIDDLE            INHINT
000128:    5224           54001                           TS       L                                     #  SAVE DELAY TIME IN L
000129:    5225           34750                           CA       POSMAX
000130:    5226           26002                           ADS      Q                                     #  CREATING OVERFLOW AND Q-1 IN Q
000131:    5227           30006                           CA       BBANK
000132:    5230           00006                           EXTEND
000133:    5231           04007                           ROR      SUPERBNK
000134:    5232           56001                           XCH      L
000135:
000136:    5233           00004        WAITLIST           INHINT
000137:    5234           00006                           EXTEND
000138:    5235           65247                           BZMF     WATLST0-
000139:    5236           56002                           XCH      Q                                     #  SAVE DELTA T IN Q AND RETURN IN
000140:    5237           54061                           TS       WAITEXIT                              #  WAITEXIT.
000141:    5240           00006                           EXTEND
000142:    5241           50061                           INDEX    WAITEXIT                              #  IF TWIDDLING, THE TS SKIPS TO HERE
000143:    5242           30001                           DCA      0                                     #  PICK UP 2CADR OF TASK.
000144:    5243           54063                 -1        TS       WAITADR                               #  BBCON WILL REMAIN IN L
000145:    5244           35254        DLY2               CAF      WAITBB                                #  ENTRY FROM FIXDELAY AND VARDELAY.
000146:    5245           56006                           XCH      BBANK
000147:    5246           13213                           TCF      WAIT2
000148:
000149:    5247           05726        WATLST0-           TC       POODOO
000150:    5250           21204                           OCT      21204
000151:
000152:                                                                                                  #  RETURN TO CALLER AFTER TASK INSERTION:
000153:
000154:    5251           52062        LVWTLIST           DXCH     WAITEXIT
000155:    5252           64767                           AD       TWO
000156:    5253           52006                           DTCB
000157:
000158:    5254  E3,1400                                  EBANK=   LST1
000159:    5254           02063        WAITBB             BBCON    WAIT2
000160:
000161:                                                                                                  #  RETURN TO CALLER +2 AFTER WAITING DT SPECIFIED AT CALLER +1.
000162:
000163:    5255           50002        FIXDELAY           INDEX    Q                                     #  BOTH ROUTINES MUST BE CALLED UNDER
000164:    5256           30000                           CAF      0                                     #  WAITLIST CONTROL AND TERMINATE THE TASK
000165:    5257           24002                           INCR     Q                                     #  IN WHICH THEY WERE CALLED.
000166:
000167:                                                                                                  #  RETURN TO CALLER +1 AFTER WAITING THE DT AS ARRIVING IN A.
000168:
000169:    5260           00006        VARDELAY           EXTEND
000170:    5261           65247                           BZMF     WATLST0-


000172:    5262           56002                           XCH      Q
000173:    5263           54063                           TS       WAITADR
000174:    5264           30006                           CA       BBANK                                 #  BBANK IS SAVED DURING DELAY.
000175:    5265           00006                           EXTEND
000176:    5266           04007                           ROR      SUPERBNK                              #  ADD SBANK TO BBCON.
000177:    5267           54001                           TS       L
000178:    5270           35273                           CAF      DELAYEX
000179:    5271           54061                           TS       WAITEXIT                              #  GO TO TASKOVER AFTER TASK ENTRY.
000180:    5272           15244                           TCF      DLY2
000181:
000182:    5273           15312        DELAYEX            TCF      TASKOVER   -2                         #  RETURNS TO TASKOVER
000183:


000185:                                                                                                  #  ENDTASK MUST BE ENTERED IN FIXED-FIXED SO IT IS DISTINGUISHABLE BY ITS ADRES ALONE.
000186:
000187:    5274  E3,1400                                  EBANK=   LST1
000188:    5274           72501 73714  ENDTASK            -2CADR   SVCT3
000189:
000190:    5276           30076        SVCT3              CA       FLAGWRD2
000191:    5277           74752                           MASK     DRFTBIT
000192:    5300           00006                           EXTEND
000193:    5301           15314                           BZF      TASKOVER
000194:    5302           11335                           CCS      IMUCADR                               #  DON'T DO NBDONLY IF SOMEONE ELSE IS IN
000195:    5303           17703                           TCF      SVCT3X
000196:    5304           15307                           TCF      +3
000197:    5305           17703                           TCF      SVCT3X
000198:    5306           17703                           TCF      SVCT3X
000199:    5307           37657                 +3        CAF      PRIO35                                #  COMPENSATE FOR NBD COEFFICIENTS ONLY.
000200:    5310           05121        NOVACADR           TC       NOVAC                                 #  ENABLE EVERY 81.93 SECONDS (=GENADR)
000201:    5311  E3,1460                                  EBANK=   NBDX
000202:    5311           03561 14063                     2CADR    NBDONLY
000203:
000204:    5313           05314        TSKOVCDR           TC       TASKOVER                              #  (=GENADR)
000205:    6000                                           SETLOC   FFTAG6
000206:    6000                                           BANK
000207:
000208:    7703                                           COUNT*   $$/WAIT
000209:    7703           05255        SVCT3X             TC       FIXDELAY                              #  DELAY MAX OF 2 TIMES FOR IMU ZERO
000210:    7704           00764        DEC500             DEC      500        B-14                       #  MUST COME AFTER SVCT3X
000211:    7705           05276                           TC       SVCT3                                 #  CHECK DRIFT FLAG AGAIN
000212:


000214:                                                                                                  #  BEGIN TASK INSERTION.
000215:
000216: 01,2000                                           SETLOC   EXECB1
000217: 01,2000                                           BANK
000218:
000219: 01,3213                                           COUNT*   $$/WAIT
000220: 01,3213           54062        WAIT2              TS       WAITBANK                              #  BBANK OF CALLING PROGRAM.
000221: 01,3214           40026                           CS       TIME3
000222: 01,3215           64761                           AD       BIT8                                  #  BIT 8 = OCT 200
000223: 01,3216           10000                           CCS      A                                     #  TEST 200 - C(TIME3).  IF POSITIVE,
000224:                                                                                                  #  IT MEANS THAT TIME3 OVERFLOW HAS OCCURRED PRIOR TO CS TIME3 AND THAT
000225:                                                                                                  #  C(TIME3) = T - T1, INSTEAD OF 1.0 - (T1 - T).  THE FOLLOWING FOUR
000226:                                                                                                  #  ORDERS SET C(A) = TD - T1 + 1 IN EITHER CASE.
000227:
000228: 01,3217           66056                           AD       OCT40001                              #  OVERFLOW HAS OCCURRED.  SET C(A) =
000229: 01,3220           40000                           CS       A                                     #  T - T1 + 1.0 - 201
000230:
000231:                                                                                                  #  NORMAL CASE (C(A) NNZ) YIELDS SAME C(A):  -( -(1.0-(T1-T)) + 200) - 1
000232:
000233: 01,3221           63117                           AD       OCT40201
000234: 01,3222           60002                           AD       Q                                     #  RESULT = TD - T1 + 1.
000235:
000236: 01,3223           10000                           CCS      A                                     #  TEST TD - T1 + 1
000237:
000238: 01,3224           61400                           AD       LST1                                  #  IF TD - T1 POS, GO TO WTLST5 WITH
000239: 01,3225           13267                           TCF      WTLST5                                #  C(A) = (TD - T1) + C(LST1) = TD-T2+1
000240:
000241: 01,3226           13227                           NOOP
000242: 01,3227           40002                           CS       Q
000243:
000244:                                                                                                  #  NOTE THAT THIS PROGRAM SECTION IS NEVER ENTERED WHEN T-T1 G/E -1,
000245:                                                                                                  #  SINCE TD-T1+1 = (TD-T) + (T-T1+1), AND DELTA T = TD-T G/E +1.  (G/E
000246:                                                                                                  #  SYMBOL MEANS GREATER THAN OR EQUAL TO).  THUS THERE NEED BE NO CON-
000247:                                                                                                  #  CERN OVER A PREVIOUS OR IMMINENT OVERFLOW OF TIME3 HERE.
000248:
000249: 01,3230           64753                           AD       POS1/2                                #  WHEN TD IS NEXT, FORM QUANTITY
000250: 01,3231           64753                           AD       POS1/2                                #    1.0 - DELTA T = 1.0 - (TD - T)
000251: 01,3232           56026                           XCH      TIME3
000252: 01,3233           64752                           AD       NEGMAX
000253: 01,3234           60002                           AD       Q                                     #  1.0 - DELTAT T NOW COMPLETE.
000254: 01,3235           00006                           EXTEND                                         #  ZERO INDEX Q.
000255: 01,3236           22007                           QXCH     7                                     #  (ZQ)
000256:


000258: 01,3237           57400        WTLST4             XCH      LST1
000259: 01,3240           57401                           XCH      LST1       +1
000260: 01,3241           57402                           XCH      LST1       +2
000261: 01,3242           57403                           XCH      LST1       +3
000262: 01,3243           57404                           XCH      LST1       +4
000263: 01,3244           57405                           XCH      LST1       +5
000264: 01,3245           57406                           XCH      LST1       +6
000265: 01,3246           57407                           XCH      LST1       +7
000266:
000267: 01,3247           30063                           CA       WAITADR                               #  (MINOR PART OF TASK CADR HAS BEEN IN L.)
000268: 01,3250           50002                           INDEX    Q
000269: 01,3251           13252                           TCF      +1
000270:
000271: 01,3252           53411                           DXCH     LST2
000272: 01,3253           53413                           DXCH     LST2       +2
000273: 01,3254           53415                           DXCH     LST2       +4
000274: 01,3255           53417                           DXCH     LST2       +6
000275: 01,3256           53421                           DXCH     LST2       +8D
000276: 01,3257           53423                           DXCH     LST2       +10D                       #  AT END, CHECK THAT C(LST2+10) IS STD
000277: 01,3260           53425                           DXCH     LST2       +12D
000278: 01,3261           53427                           DXCH     LST2       +14D
000279: 01,3262           53431                           DXCH     LST2       +16D
000280: 01,3263           65274                           AD       ENDTASK                               #    END ITEM, AS CHECK FOR EXCEEDING
000281:                                                                                                  #    THE LENGTH OF THE LIST.
000282: 01,3264           00006                           EXTEND                                         #  DUMMY TASK ADRES SHOULD BE IN FIXED-
000283: 01,3265           15251                           BZF      LVWTLIST                              #  FIXED SO ITS ADRES ALONE DISTINGUISHES
000284: 01,3266           13342                           TCF      WTABORT                               #  IT.
000285:


000287: 01,3267           10000        WTLST5             CCS      A                                     #  TEST TD - T2 + 1
000288: 01,3270           61401                           AD       LST1       +1
000289: 01,3271           13275                           TCF      +4
000290: 01,3272           64770                           AD       ONE
000291: 01,3273           03347                           TC       WTLST2
000292: 01,3274           00001                           OCT      1
000293:
000294: 01,3275           10000                 +4        CCS      A                                     #  TEST TD - T3 + 1
000295: 01,3276           61402                           AD       LST1       +2
000296: 01,3277           13303                           TCF      +4
000297: 01,3300           64770                           AD       ONE
000298: 01,3301           03347                           TC       WTLST2
000299: 01,3302           00002                           OCT      2
000300:
000301: 01,3303           10000                 +4        CCS      A                                     #  TEST TD - T4 + 1
000302: 01,3304           61403                           AD       LST1       +3
000303: 01,3305           13311                           TCF      +4
000304: 01,3306           64770                           AD       ONE
000305: 01,3307           03347                           TC       WTLST2
000306: 01,3310           00003                           OCT      3
000307:
000308: 01,3311           10000                 +4        CCS      A                                     #  TEST TD - T5 + 1
000309: 01,3312           61404                           AD       LST1       +4
000310: 01,3313           13317                           TCF      +4
000311: 01,3314           64770                           AD       ONE
000312: 01,3315           03347                           TC       WTLST2
000313: 01,3316           00004                           OCT      4
000314:
000315: 01,3317           10000                 +4        CCS      A                                     #  TEST TD - T6 + 1
000316: 01,3320           61405                           AD       LST1       +5
000317: 01,3321           13325                           TCF      +4
000318: 01,3322           64770                           AD       ONE
000319: 01,3323           03347                           TC       WTLST2
000320: 01,3324           00005                           OCT      5
000321:
000322: 01,3325           10000                 +4        CCS      A                                     #  TEST TD - T7 + 1
000323: 01,3326           61406                           AD       LST1       +6
000324: 01,3327           13333                           TCF      +4
000325: 01,3330           64770                           AD       ONE
000326: 01,3331           03347                           TC       WTLST2
000327: 01,3332           00006                           OCT      6
000328:


000330: 01,3333           10000                 +4        CCS      A
000331: 01,3334           61407                           AD       LST1       +7
000332: 01,3335           13341                           TCF      +4
000333: 01,3336           64770                           AD       ONE
000334: 01,3337           03347                           TC       WTLST2
000335: 01,3340           00007                           OCT      7
000336:
000337: 01,3341           10000                 +4        CCS      A
000338: 01,3342           07706        WTABORT            TC       BAILOUT                               #  NO ROOM IN THE INN.
000339: 01,3343           31203                           OCT      31203
000340:
000341: 01,3344           64770                           AD       ONE
000342: 01,3345           03347                           TC       WTLST2
000343: 01,3346           00010                           OCT      10
000344:


000346:                                                                                                  #  THE ENTRY TO WTLST2 JUST PRECEDING OCT  N  IS FOR T  LE TD LE T   -1.
000347:                                                                                                  #                                                     N           N+1
000348:
000349:                                                                                                  #  (LE MEANS LESS THAN OR EQUAL TO).  AT ENTRY, C(A) = -(TD - T   + 1)
000350:                                                                                                  #                                                              N+1
000351:
000352:                                                                                                  #  THE LST1 ENTRY -(T   -T +1) IS TO BE REPLACED BY -(TD - T + 1), AND
000353:                                                                                                  #                    N+1  N                                 N
000354:
000355:                                                                                                  #  THE ENTRY -(T   - TD + 1) IS TO BE INSERTED IMMEDIATELY FOLLOWING.
000356:                                                                                                  #               N+1
000357:
000358: 01,3347           54064        WTLST2             TS       WAITTEMP                              #  C(A) = -(TD - T + 1)
000359: 01,3350           50002                           INDEX    Q
000360: 01,3351           30000                           CAF      0
000361: 01,3352           54002                           TS       Q                                     #  INDEX VALUE INTO Q.
000362:
000363: 01,3353           34770                           CAF      ONE
000364: 01,3354           60064                           AD       WAITTEMP
000365: 01,3355           50002                           INDEX    Q                                     #  C(A) = -(TD - T ) + 1.
000366: 01,3356           27377                           ADS      LST1       -1                         #                 N
000367:
000368: 01,3357           40064                           CS       WAITTEMP
000369: 01,3360           50002                           INDEX    Q
000370: 01,3361           13237                           TCF      WTLST4
000371:
000372:                                                                                                  #  C(TIME3) = 1.0 - (T1 - T)
000373:
000374:                                                                                                  #  C(LST1  ) = - (T2 - T1) + 1
000375:                                                                                                  #  C(LST1+1) = - (T3 - T2) + 1
000376:                                                                                                  #  C(LST1+2) = - (T4 - T3) + 1
000377:                                                                                                  #  C(LST1+3) = - (T5 - T4) + 1
000378:                                                                                                  #  C(LST1+4) = - (T6 - T5) + 1
000379:
000380:                                                                                                  #  C(LST2   ) = 2CADR    TASK1
000381:                                                                                                  #  C(LST2+2 ) = 2CADR    TASK2
000382:                                                                                                  #  C(LST2+4 ) = 2CADR    TASK3
000383:                                                                                                  #  C(LST2+6 ) = 2CADR    TASK4
000384:                                                                                                  #  C(LST2+8 ) = 2CADR    TASK5
000385:                                                                                                  #  C(LST2+10) = 2CADR    TASK6
000386:


000388:                                                                                                  #  ENTERS HERE ON T3 RUPT TO DISPATCH WAITLISTED TASK.
000389:
000390: 01,3362           00006        T3RUPT             EXTEND
000391: 01,3363           04007                           ROR      SUPERBNK                              #  READ CURRENT SUPERBANK VALUE AND
000392: 01,3364           54016                           TS       BANKRUPT                              #  SAVE WITH E AND F BANK VALUES.
000393: 01,3365           00006                           EXTEND
000394: 01,3366           22012                           QXCH     QRUPT
000395:
000396: 01,3367           34751        T3RUPT2            CAF      NEG1/2                                #  DISPATCH WAITLIST TASK.
000397: 01,3370           57407                           XCH      LST1       +7
000398: 01,3371           57406                           XCH      LST1       +6
000399: 01,3372           57405                           XCH      LST1       +5
000400: 01,3373           57404                           XCH      LST1       +4                         #  1.  MOVE UP LST1 CONTENTS, ENTERING
000401: 01,3374           57403                           XCH      LST1       +3                         #      A VALUE OF 1/2 +1 AT THE BOTTOM
000402: 01,3375           57402                           XCH      LST1       +2                         #      FOR T6-T5, CORRESPONDING TO THE
000403: 01,3376           57401                           XCH      LST1       +1                         #      INTERVAL 81.91 SEC FOR ENDTASK.
000404: 01,3377           57400                           XCH      LST1
000405: 01,3400           64750                           AD       POSMAX                                #  2. SET T3 = 1.0 - T2 - T USING LIST 1.
000406: 01,3401           26026                           ADS      TIME3                                 #  SO T3 WONT TICK DURING UPDATE.
000407: 01,3402           55137                           TS       RUPTAGN
000408: 01,3403           44772                           CS       ZERO
000409: 01,3404           55137                           TS       RUPTAGN                               #  SETS RUPTAGN TO +1 ON OVERFLOW.
000410:
000411: 01,3405           00006                           EXTEND                                         #  DISPATCH TASK.
000412: 01,3406           45275                           DCS      ENDTASK
000413: 01,3407           53431                           DXCH     LST2       +16D
000414: 01,3410           53427                           DXCH     LST2       +14D
000415: 01,3411           53425                           DXCH     LST2       +12D
000416: 01,3412           53423                           DXCH     LST2       +10D
000417: 01,3413           53421                           DXCH     LST2       +8D
000418: 01,3414           53417                           DXCH     LST2       +6
000419: 01,3415           53415                           DXCH     LST2       +4
000420: 01,3416           53413                           DXCH     LST2       +2
000421: 01,3417           53411                           DXCH     LST2
000422:
000423: 01,3420           56001                           XCH      L
000424: 01,3421           00006                           EXTEND
000425: 01,3422           01007                           WRITE    SUPERBNK                              #  SET SUPERBANK FROM BBCON OF 2CADR
000426: 01,3423           56001                           XCH      L                                     #  RESTORE TO L FOR DXCH Z.
000427: 01,3424           52006                           DTCB
000428:


000430:                                                                                                  #  RETURN, AFTER EXECUTION OF T3 OVERFLOW TASK:
000431:
000432:    4000                                           SETLOC   WAITF2
000433:    4000                                           BANK
000434:
000435:    5314                                           COUNT*   $$/WAIT
000436:    5314           11137        TASKOVER           CCS      RUPTAGN                               #  IF +1 RETURN TO T3RUPT, IF -0 RESUME.
000437:    5315           35254                           CAF      WAITBB
000438:    5316           54006                           TS       BBANK
000439:    5317           13367                           TCF      T3RUPT2                               #  DISPATCH NEXT TASK IF IT WAS DUE.
000440:
000441:    5320           30016        SUPERRSM           CA       BANKRUPT
000442:    5321           00006                           EXTEND
000443:    5322           01007                           WRITE    SUPERBNK                              #  RESTORE SUPERBANK BEFORE RESUME IS DONE
000444:
000445:    5323           00006        RESUME             EXTEND
000446:    5324           22012                           QXCH     QRUPT
000447:    5325           30016        NOQRSM             CA       BANKRUPT
000448:    5326           56006                 +1        XCH      BBANK
000449:    5327           52011        NOQBRSM            DXCH     ARUPT
000450:    5330           00003                           RELINT
000451:    5331           50017                           RESUME
000452:


000454:                                                                                                  #  LONGCALL
000455:                                                                                                  #  PROGRAM DESCRIPTION                                         DATE- 17 MARCH 1967
000456:                                                                                                  #  PROGRAM WRITTEN BY W.H. VANDEVER                           LOG SECTION WAITLIST
000457:                                                                                                  #  MOD BY- R. MELANSON TO ADD DOCUMENTATION              ASSEMBLY SUNDISK REV. 100
000458:
000459:                                                                                                  #  FUNCTIONAL DESCRIPTION-
000460:                                                                                                  #  LONGCALL IS CALLED WITH THE DELTA TIME ARRIVING IN A,L SCALED AS TIME2,TIME1 WITH THE 2CADR OF THE TASK
000461:                                                                                                  #  IMMEDIATELY FOLLOWING THE TC LONGCALL.  FOR EXAMPLE, IT MIGHT BE DONE AS FOLLOWS WHERE TIMELOC IS THE NAME OF
000462:                                                                                                  #  A DP REGISTER CONTAINING A DELTA TIME AND WHERE TASKTODO IS THE NAME OF THE LOCATION AT WHICH LONGCALL IS TO
000463:                                                                                                  #  START
000464:
000465:                                                                                                  #  CALLING SEQUENCE-
000466:                                                                                                  #                                EXTEND
000467:                                                                                                  #                                DCA     TIMELOC
000468:                                                                                                  #                                TC      LONGCALL
000469:                                                                                                  #                                2CADR   TASKTODO
000470:
000471:                                                                                                  #  NORMAL EXIT MODE-
000472:                                                                                                  #        1). TC    WAITLIST
000473:                                                                                                  #        2). DTCB  (TO L+3 OF CALLING ROUTINE 1ST PASS THRU LONGCYCL)
000474:                                                                                                  #        3). DTCB  (TO TASKOVER ON SUBSEQUENT PASSES THRU LONGCYCL)
000475:
000476:                                                                                                  #  ALARM OR ABORT EXIT MODE-
000477:                                                                                                  #        NONE
000478:
000479:                                                                                                  #  OUTPUT-
000480:                                                                                                  #        LONGTIME AND LONGTIME+1 = DELTA TIME
000481:                                                                                                  #        LONGEXIT AND LONGEXIT+1 = RETURN 2CADR
000482:                                                                                                  #        LONGCADR AND LONGCADR+1 = TASK 2CADR
000483:                                                                                                  #        A = SINGLE PRECISION TIME FOR WAITLIST
000484:
000485:                                                                                                  #  ERASABLE INITIALIZATION-
000486:                                                                                                  #        A = MOST SIGNIFICANT PART OF DELTA TIME
000487:                                                                                                  #        L = LEAST SIGNIFICANT PART OF DELTA TIME
000488:                                                                                                  #        Q = ADDRESS OF 2CADR TASK VALUE
000489:
000490:                                                                                                  #  DEBRIS-
000491:                                                                                                  #        A,Q,L
000492:                                                                                                  #        LONGCADR AND LONGCADR+1
000493:                                                                                                  #        LONGEXIT AND LONGEXIT+1
000494:                                                                                                  #        LONGTIME AND LONGTIME+1
000495:
000496:                                                                                                  #  *** THE FOLLOWING IS TO BE IN FIXED-FIXED AND UNSWITCHED ERRASIBLE ***
000497:
000498:    4000                                           SETLOC   WAITF2
000499:    4000                                           BANK
000500:
000501:    5332                                           COUNT*   $$/WAIT
000502:    5332  E3,1400                                  EBANK=   LST1


000504:    5332           53305        LONGCALL           DXCH     LONGTIME                              #  OBTAIN THE DELTA TIME
000505:
000506:    5333           00006                           EXTEND                                         #  OBTAIN THE 2CADR
000507:    5334           50002                           NDX      Q
000508:    5335           30001                           DCA      0
000509:    5336           53301                           DXCH     LONGCADR
000510:
000511:    5337           00006                           EXTEND                                         #  NOW GO TO THE APPROPRIATE SWITCHED BANK
000512:    5340           35343                           DCA      LGCL2CDR                              #  FOR THE REST OF LONGCALL
000513:    5341           52006                           DTCB
000514:
000515:    5342  E3,1400                                  EBANK=   LST1
000516:    5342           03425 02063  LGCL2CDR           2CADR    LNGCALL2
000517:
000518:                                                                                                  #  *** THE FOLLOWING MAY BE IN A SWITCHED BANK, INCLUDING ITS ERASABLE ***
000519:
000520: 01,2000                                           SETLOC   EXECB1
000521: 01,2000                                           BANK
000522:
000523: 01,3425                                           COUNT*   $$/WAIT
000524: 01,3425           23435        LNGCALL2           LXCH     LONGEXIT   +1                         #  SAVE THE CORRECT BB FOR RETURN
000525: 01,3426           34767                           CA       TWO                                   #  OBTAIN THE RETURN ADDRESS
000526: 01,3427           26002                           ADS      Q
000527: 01,3430           55434                           TS       LONGEXIT
000528:
000529: 01,3431           11304        LGCLNGTM           CCS      LONGTIME                              #  TEST FOR NEG. TIME
000530: 01,3432           13440                           TCF      LONGCYCL                              #  HI-ORDER POS...OK
000531: 01,3433           13435                           TCF      +2                                    #           ZERO..TEST LO-ORDER
000532: 01,3434           15247                           TCF      WATLST0-                              #           NEG...POODOO
000533: 01,3435           31305                           CA       LONGTIME   +1                         #           ZERO..TEST LO-ORDER
000534: 01,3436           00006                           EXTEND
000535: 01,3437           65247                           BZMF     WATLST0-                              #  LO-ORDER ZERO/NEG...POODOO
000536:
000537:                                                                                                  #  *** WAITLIST TASK LONGCYCL ***
000538:
000539: 01,3440           00006        LONGCYCL           EXTEND                                         #  CAN WE SUCCESFULLY TAKE ABOUT 1.25
000540: 01,3441           43452                           DCS      DPBIT14                               #  MINUTES OFF OF LONGTIME
000541: 01,3442           21305                           DAS      LONGTIME
000542:
000543: 01,3443           11305                           CCS      LONGTIME   +1                         #  THE REASONIBG BEHIND THIS PART IS
000544: 01,3444           13462                           TCF      MUCHTIME                              #  INVOLVED, TAKING INTO ACCOUNT THAT THE
000545:                                                                                                  #  WORDS MAY NOT BE SIGNED CORRECTED (DP
000546:                                                                                                  #  BASIC INSTRUCTIONS
000547:                                                                                                  #  DO NOT SIGN CORRECT) AND THAT WE SUBTRAC
000548:                                                                                                  #  TED BIT14 (1 OVER HALF THE POS. VALUE
000549:                                                                                                  #  REPRESENTIBLE IN SINGLE WORD)
000550: 01,3445           13446                           NOOP                                           #  CAN:T GET HERE        **********
000551: 01,3446           13447                           TCF      +1
000552: 01,3447           11304                           CCS      LONGTIME
000553: 01,3450           13462                           TCF      MUCHTIME


000555: 01,3451           00000        DPBIT14            OCT      00000
000556: 01,3452           20000                           OCT      20000
000557:
000558:                                                                                                  #  LONGCALL
000559: 01,3453           34753        LASTTIME           CA       BIT14                                 #  GET BACK THE CORRECT DELTA T FOR WAITLIST
000560: 01,3454           27305                           ADS      LONGTIME   +1
000561: 01,3455           05223                           TC       TWIDDLE
000562: 01,3456           03142                           ADRES    GETCADR                               #  THE ENTRY TO OUR LONGCADR
000563: 01,3457           35313        LONGRTRN           CA       TSKOVCDR                              #  SET IT UP SO THAT ONLY THE FIRST EXIT IS
000564: 01,3460           53435                           DXCH     LONGEXIT                              #  TO THE CALLER OF LONGCALL
000565: 01,3461           52006                           DTCB                                           #  THE REST ARE TO TASKOVER
000566:
000567: 01,3462           34753        MUCHTIME           CA       BIT14                                 #  WE HAVE OVER OUR ABOUT 1.25 MINUTES
000568: 01,3463           05233        WTLTCADR           TC       WAITLIST                              #  SET UP ANOTHER CYCLE THRU HERE (=GENADR)
000569: 01,3464  E3,1400                                  EBANK=   LST1
000570: 01,3464           03440 02063                     2CADR    LONGCYCL
000571:
000572: 01,3466           13457                           TCF      LONGRTRN                              #  NOW EXIT PROPERLY

End of include-file WAITLIST.agc.  Parent file is MAIN.agc


