
Source Code


000002:                                                                                                 #  Copyright:     Public domain.
000003:                                                                                                 #  Filename:      WAITLIST.agc
000004:                                                                                                 #  Purpose:       Part of the source code for Artemis (i.e., Colossus 3),
000005:                                                                                                 #                 build 072.  This is for the Command Module's (CM)
000006:                                                                                                 #                 Apollo Guidance Computer (AGC), we believe for
000007:                                                                                                 #                 Apollo 15-17.
000008:                                                                                                 #  Assembler:     yaYUL
000009:                                                                                                 #  Contact:       Jim Lawton <jim DOT lawton AT gmail DOT com>
000010:                                                                                                 #  Website:       www.ibiblio.org/apollo/index.html
000011:                                                                                                 #  Page scans:    www.ibiblio.org/apollo/ScansForConversion/Artemis072/
000012:                                                                                                 #  Mod history:   2009-08-29 JL   Adapted from corresponding Comanche 055 file.
000013:                                                                                                 #                 2010-02-20 RSB  Un-##'d this header.
000014:


000016:
000017:                                                                                                 #  PROGRAM DESCRIPTION                                                            DATE - 10 OCTOBER 1966
000018:                                                                                                 #  MOD NO - 2                                                                     LOG SECTION - WAITLIST
000019:                                                                                                 #  MOD BY - MILLER        (DTMAX INCREASED TO 162.5 SEC)                          ASSEMBLY SUNBURST REV 5
000020:                                                                                                 #  MOD 3 BY KERNAN        (INHINT INSERTED AT WAITLIST) 2/28/68 SKIPPER REV 4
000021:                                                                                                 #  MOD 4 BY KERNAN        (TWIDDLE IN 54) 3/28/68 SKIPPER REV 13.
000022:
000023:                                                                                                 #  FUNCTIONAL DESCRIPTION-
000024:                                                                                                 #         PART OF A SECTION OF PROGRAMS,-WAITLIST, TASKOVER, T3RUPT, USED TO CALL A PROGRAM, (CALLED A TASK),
000025:                                                                                                 #         WHICH IS TO BEGIN IN C(A) CENTISECONDS.  WAITLIST UPDATES TIME3, LST1, AND LST2. THE MEANING OF THESE LISTS
000026:                                                                                                 #         FOLLOW.
000027:
000028:                                                                                                 #                 C(TIME3) = 16384 -(T1-T) CENTISECONDS, (T=PRESENT TIME, T1-TIME FOR TASK1)
000029:
000030:                                                                                                 #                         C(LST1)         =       -(T2-T1)+1
000031:                                                                                                 #                         C(LST1 +1)      =       -(T3-T2)+1
000032:                                                                                                 #                         C(LST1 +2)      =       -(T4-T3)+1
000033:                                                                                                 #                                         .
000034:                                                                                                 #                                         .
000035:                                                                                                 #                         C(LST1 +6)      =       -(T8-T7)+1
000036:                                                                                                 #                         C(LST1 +7)      =       -(T9-T8)+1
000037:
000038:                                                                                                 #                         C(LST2)         =       2CADR OF TASK1
000039:                                                                                                 #                         C(LST2 +2)      =       2CADR OF TASK2
000040:                                                                                                 #                                         .
000041:                                                                                                 #                                         .
000042:                                                                                                 #                         C(LST2 +14)     =       2CADR OF TASK8
000043:                                                                                                 #                         C(LST2 +16)     =       2CADR OF TASK9
000044:
000045:                                                                                                 #  WARNINGS-
000046:                                                                                                 #  --------
000047:                                                                                                 #                 1) 1 <= C(A) <= 16250D (1 CENTISCOND TO 162.5 SEC)
000048:                                                                                                 #                 2) 9 TASKS MAXIMUM
000049:                                                                                                 #                 3) TASKS CALLED UNDER INTERRUPT INHIBITED
000050:                                                                                                 #                 4) TASKS END BY TC TASKOVER
000051:
000052:                                                                                                 #  CALLING SEQUENCE-
000053:                                                                                                 #
000054:                                                                                                 #                 L-1     CA      DELTAT  (TIME IN CENTISECONDS TO TASK START)
000055:                                                                                                 #                 L       TC      WAITLIST
000056:                                                                                                 #                 L+1     2CADR   DESIRED TASK
000057:                                                                                                 #                 L+2     (MINOR OF 2CADR)
000058:                                                                                                 #                 L+3     RELINT          (RETURNS HERE)
000059:
000060:                                                                                                 #  TWIDDLE-
000061:                                                                                                 #         TWIDDLE IS FOR USE WHEN THE TASK BEING SET UP IS IN THE SAME EBANK AND FBANK AS THE USER.  IN
000062:                                                                                                 #         SUCH CASES, IT IMPROVES UPON WAITLIST BY ELIMINATING THE NEED FOR THE BBCON HALF OF THE 2CADR,


000064:                                                                                                 #         SAVING A WORD.  TWIDDLE IS LIKE WAITLIST IN EVERY RESPECT EXCEPT CALLING SEQUENCE, TO WIT-
000065:
000066:                                                                                                 #                 L-1     CA      DELTAT
000067:                                                                                                 #                 L       TC      TWIDDLE
000068:                                                                                                 #                 L+1     ADRES   DESIRED TASK
000069:                                                                                                 #                 L+2     RELINT                  (RETURNS HERE)
000070:
000071:                                                                                                 #  NORMAL EXIT MODES-
000072:
000073:                                                                                                 #                 AT L+3 OF CALLING SEQUENCE.
000074:
000075:                                                                                                 #  ALARM OR ABORT EXIT MODES-
000076:
000077:                                                                                                 #                 TC      ABORT
000078:                                                                                                 #                 OCT     1203    (WAITLIST OVERFLOW - TOO MANY TASKS)
000079:
000080:                                                                                                 #  ERASABLE INITIALIZATION REQUIRED
000081:                                                                                                 # -
000082:                                                                                                 #                 ACCOMPLISHED BY FRESH START,--LST2,...,LST2 +16 = ENDTASK
000083:                                                                                                 #                                               LST1,...,LST1 +7  = NEG1/2
000084:
000085:                                                                                                 #  OUTPUT--
000086:                                                                                                 #                 LST1 AND LST2 UPDATED WITH NEW TASK AND ASSOCIATED TIME.
000087:
000088:                                                                                                 #  DEBRIS-
000089:
000090:                                                                                                 #                 CENTRALS - A,Q,L
000091:                                                                                                 #                 OTHER    - WAITEXIT, WAITADR, WAITTEMP, WAITBANK
000092:
000093:                                                                                                 #  DETAILED ANALYSIS OF TIMING-
000094:
000095:                                                                                                 #         CONTROL WILL NOT BE RETURNED TO THE SPECIFIED ADDRESS (2CADR) IN EXACTLY DELTA T CENTISECONDS.
000096:                                                                                                 #         THE APPROXIMATE TIME MAY BE CALCULATED AS FOLLOWS:
000097:                                                                                                 #                         LET T0 = THE TIME OF THE TC WAITLIST
000098:                                                                                                 #                         LET TS = T0 +147U + COUNTER INCREMENTS (SET UP TIME)
000099:                                                                                                 #                         LET X  = TS -(100TS)/100  (VARIANCE FROM COUNTERS)
000100:                                                                                                 #                         LET Y  = LENGTH OF TIME OF INHIBIT INTERRUPT AFTER T3RUPT
000101:                                                                                                 #                         LET Z  = LENGTH OF TIME TO PROCESS TASKS WHICH ARE DUE THIS T3RUPT BUT DISPATCHED EARLIER.
000102:                                                                                                 #         (Z=0, USUALLY).
000103:                                                                                                 #                         LET DELTD = THE ACTUAL TIME TAKEN TO GIVE CONTROL TO 2CADR
000104:                                                                                                 #                 THEN DELTD = TS+DELTA T -X +Y +Z +1.05MS* +COUNTERS*
000105:                                                                                                 #         *-THE TIME TAKEN BY WAITLIST ITSELF AND THE COUNTER TICKING DURING THIS WAITLIST TIME.
000106:
000107:                                                                                                 #         IN SHORT, THE ACTUAL TIME TO RETURN CONTROL TO A 2CADR IS AUGMENTED BY THE TIME TO SET UP THE TASK'S
000108:                                                                                                 #         INTERRUPT, ALL COUNTERS TICKING, THE T3RUPT PROCESSING TIME, THE WAITLIST PROCESSING TIME AND THE POSSIBILITY
000109:                                                                                                 #         OF OTHER TASKS INHIBITING THE INTERRUPT.
000110:
000111:    4000                                          SETLOC   WAITF2


000113:    4000                                          BANK
000114:
000115:    5222  E3,1400                                 EBANK=   LST1                                  #  TASK LISTS IN SWITCHED E BANK.
000116:
000117:    5222                                          COUNT*   $$/WAIT
000118:    5222           34770        TWIDBIT1          CAF      ONE
000119:    5223           00004        TWIDDLE           INHINT
000120:    5224           54001                          TS       L                                     #  SAVE DELAY TIME IN L
000121:    5225           34750                          CA       POSMAX
000122:    5226           26002                          ADS      Q                                     #  CREATING OVERFLOW AND Q-1 IN Q
000123:    5227           30006                          CA       BBANK
000124:    5230           00006                          EXTEND
000125:    5231           04007                          ROR      SUPERBNK
000126:    5232           56001                          XCH      L
000127:
000128:    5233           00004        WAITLIST          INHINT
000129:    5234           00006                          EXTEND
000130:    5235           65247                          BZMF     WATLST0-
000131:    5236           56002                          XCH      Q          SAVE       DELTA
000132:    5237           54061                          TS       WAITEXIT   WAITEXIT.
000133:    5240           00006                          EXTEND
000134:    5241           50061                          INDEX    WAITEXIT                              #  IF TWIDDLING, THE TS SKIPS TO HERE
000135:    5242           30001                          DCA      0                                     #  PICK UP 2CADR OF TASK.
000136:    5243           54063                 -1       TS       WAITADR                               #  BBCON WILL REMAIN IN L
000137:    5244           35254        DLY2              CAF      WAITBB                                #  ENTRY FROM FIXDELAY AND VARDELAY.
000138:    5245           56006                          XCH      BBANK
000139:    5246           13213                          TCF      WAIT2
000140:
000141:    5247           05726        WATLST0-          TC       POODOO
000142:    5250           21204                          OCT      21204
000143:
000144:                                                                                                 #  RETURN TO CALLER AFTER TASK INSERTION:
000145:
000146:    5251           52062        LVWTLIST          DXCH     WAITEXIT
000147:    5252           64767                          AD       TWO
000148:    5253           52006                          DTCB
000149:
000150:    5254  E3,1400                                 EBANK=   LST1
000151:    5254           02063        WAITBB            BBCON    WAIT2
000152:
000153:                                                                                                 #  RETURN TO CALLER +2 AFTER WAITING DT SPECIFIED AT CALLER +1.
000154:
000155:    5255           50002        FIXDELAY          INDEX    Q                                     #  BOTH ROUTINES MUST BE CALLED UNDER


000157:    5256           30000                          CA       0                                     #  WAITLIST CONTROL AND TERMINATE THE TASK
000158:    5257           24002                          INCR     Q                                     #  IN WHICH THEY WERE CALLED.
000159:
000160:                                                                                                 #  RETURN TO CALLER +1 AFTER WAITING THE DT AS ARRIVING IN A.
000161:
000162:    5260           00006        VARDELAY          EXTEND
000163:    5261           65247                          BZMF     WATLST0-


000165:    5262           56002                          XCH      Q
000166:    5263           54063                          TS       WAITADR
000167:    5264           30006                          CA       BBANK                                 #  BBANK IS SAVED DURING DELAY.
000168:    5265           00006                          EXTEND
000169:    5266           04007                          ROR      SUPERBNK                              #  ADD SBANK TO BBCON.
000170:    5267           54001                          TS       L
000171:    5270           35273                          CAF      DELAYEX
000172:    5271           54061                          TS       WAITEXIT                              #  GO TO TASKOVER AFTER TASK ENTRY.
000173:    5272           15244                          TCF      DLY2
000174:
000175:    5273           15312        DELAYEX           TCF      TASKOVER   -2                         #  RETURNS TO TASKOVER
000176:


000178:                                                                                                 #  ENDTASK MUST BE ENTERED IN FIXED-FIXED SO IT IS DISTINGUISHABLE BY ITS ADRES ALONE.
000179:
000180:    5274  E3,1400                                 EBANK=   LST1
000181:    5274           72501 73714  ENDTASK           -2CADR   SVCT3
000182:
000183:    5276           30076        SVCT3             CA       FLAGWRD2
000184:    5277           74752                          MASK     DRFTBIT
000185:    5300           00006                          EXTEND
000186:    5301           15314                          BZF      TASKOVER
000187:    5302           11335                          CCS      IMUCADR                               #  DON'T DO NBDONLY IF SOMEONE ELSE IS IN
000188:    5303           17703                          TCF      SVCT3X
000189:    5304           15307                          TCF      +3
000190:    5305           17703                          TCF      SVCT3X
000191:    5306           17703                          TCF      SVCT3X
000192:    5307           37657                 +3       CAF      PRIO35                                #  COMPENSATE FOR NBD COEFFICIENTS ONLY.
000193:    5310           05121        NOVACADR          TC       NOVAC                                 #  ENABLE EVERY 81.93 SECONDS (=GENADR)
000194:    5311  E3,1460                                 EBANK=   NBDX
000195:    5311           03561 14063                    2CADR    NBDONLY
000196:
000197:    5313           05314        TSKOVCDR          TC       TASKOVER   (=GENADR)
000198:    6000                                          SETLOC   FFTAG6
000199:    6000                                          BANK
000200:
000201:    7703                                          COUNT*   $$/WAIT
000202:    7703           05255        SVCT3X            TC       FIXDELAY                              #  DELAY MAX OF 2 TIMES FOR IMU ZERO
000203:    7704           00764        DEC500            DEC      500        B-14                       #  MUST COME AFTER SVCT3X
000204:    7705           05276                          TC       SVCT3                                 #  CHECK DRIFT FLAG AGAIN
000205:


000207:                                                                                                 #  BEGIN TASK INSERTION.
000208:
000209: 01,2000                                          SETLOC   EXECB1
000210: 01,2000                                          BANK
000211:
000212: 01,3213                                          COUNT*   $$/WAIT
000213: 01,3213           54062        WAIT2             TS       WAITBANK                              #  BBANK OF CALLING PROGRAM.
000214: 01,3214           40026                          CS       TIME3
000215: 01,3215           64761                          AD       BIT8                                  #  BIT 8 = OCT 200
000216: 01,3216           10000                          CCS      A                                     #  TEST 200 - C(TIME3).  IF POSITIVE,
000217:                                                                                                 #  IT MEANS THAT TIME3 OVERFLOW HAS OCCURRED PRIOR TO CS TIME3 AND THAT
000218:                                                                                                 #  C(TIME3) = T - T1, INSTEAD OF 1.0 - (T1 - T).  THE FOLLOWING FOUR
000219:                                                                                                 #  ORDERS SET C(A) = TD - T1 + 1 IN EITHER CASE.
000220:
000221: 01,3217           66056                          AD       OCT40001                              #  OVERFLOW HAS OCCURRED.  SET C(A) =
000222: 01,3220           40000                          CS       A                                     #  T - T1 + 1.0 - 201
000223:
000224:                                                                                                 #  NORMAL CASE (C(A) NNZ) YIELDS SAME C(A):  -( -(1.0-(T1-T)) + 200) - 1
000225:
000226: 01,3221           63117                          AD       OCT40201
000227: 01,3222           60002                          AD       Q                                     #  RESULT = TD - T1 + 1.
000228:
000229: 01,3223           10000                          CCS      A                                     #  TEST TD - T1 + 1.
000230:
000231: 01,3224           61400                          AD       LST1                                  #  IF TD - T1 POS, GO TO WTLST5 WITH
000232: 01,3225           13267                          TCF      WTLST5                                #  C(A) = (TD - T1) + C(LST1) = TD-T2+1
000233:
000234: 01,3226           13227                          NOOP
000235: 01,3227           40002                          CS       Q
000236:
000237:                                                                                                 #  NOTE THAT THIS PROGRAM SECTION IS NEVER ENTERED WHEN T-T1 G/E -1,
000238:                                                                                                 #  SINCE TD-T1+1 = (TD-T) + (T-T1+1), AND DELTA T = TD-T G/E +1.  (G/E
000239:                                                                                                 #  SYMBOL MEANS GREATER THAN OR EQUAL TO).  THUS THERE NEED BE NO CON-
000240:                                                                                                 #  CERN OVER A PREVIOUS OR IMMINENT OVEFLOW OF TIME3 HERE.
000241:
000242: 01,3230           64753                          AD       POS1/2                                #  WHEN TD IS NEXT, FORM QUANTITY
000243: 01,3231           64753                          AD       POS1/2                                #    1.0 - DELTA T = 1.0 - (TD - T)
000244: 01,3232           56026                          XCH      TIME3
000245: 01,3233           64752                          AD       NEGMAX
000246: 01,3234           60002                          AD       Q                                     #  1.0 - DELTAT T NOW COMPLETE.
000247: 01,3235           00006                          EXTEND                                         #  ZERO INDEX Q.
000248: 01,3236           22007                          QXCH     7                                     #  (ZQ)
000249:


000251: 01,3237           57400        WTLST4            XCH      LST1
000252: 01,3240           57401                          XCH      LST1       +1
000253: 01,3241           57402                          XCH      LST1       +2
000254: 01,3242           57403                          XCH      LST1       +3
000255: 01,3243           57404                          XCH      LST1       +4
000256: 01,3244           57405                          XCH      LST1       +5
000257: 01,3245           57406                          XCH      LST1       +6
000258: 01,3246           57407                          XCH      LST1       +7
000259:
000260: 01,3247           30063                          CA       WAITADR                               #  (MINOR PART OF TASK CADR HAS BEEN IN L.)
000261: 01,3250           50002                          INDEX    Q
000262: 01,3251           13252                          TCF      +1
000263:
000264: 01,3252           53411                          DXCH     LST2
000265: 01,3253           53413                          DXCH     LST2       +2
000266: 01,3254           53415                          DXCH     LST2       +4
000267: 01,3255           53417                          DXCH     LST2       +6
000268: 01,3256           53421                          DXCH     LST2       +8D
000269: 01,3257           53423                          DXCH     LST2       +10D                       #  AT END, CHECK THAT C(LST2+10) IS STD
000270: 01,3260           53425                          DXCH     LST2       +12D
000271: 01,3261           53427                          DXCH     LST2       +14D
000272: 01,3262           53431                          DXCH     LST2       +16D
000273: 01,3263           65274                          AD       ENDTASK                               #    END ITEM, AS CHECK FOR EXCEEDING
000274:                                                                                                 #    THE LENGTH OF THE LIST.
000275: 01,3264           00006                          EXTEND                                         #  DUMMY TASK ADRES SHOULD BE IN FIXED-
000276: 01,3265           15251                          BZF      LVWTLIST                              #  FIXED SO ITS ADRES ALONE DISTINGUISHES
000277: 01,3266           13342                          TCF      WTABORT                               #  IT.
000278:


000280: 01,3267           10000        WTLST5            CCS      A                                     #  TEST TD - T2 + 1
000281: 01,3270           61401                          AD       LST1       +1
000282: 01,3271           13275                          TCF      +4
000283: 01,3272           64770                          AD       ONE
000284: 01,3273           03347                          TC       WTLST2
000285: 01,3274           00001                          OCT      1
000286:
000287: 01,3275           10000                 +4       CCS      A                                     #  TEST TD - T3 + 1
000288: 01,3276           61402                          AD       LST1       +2
000289: 01,3277           13303                          TCF      +4
000290: 01,3300           64770                          AD       ONE
000291: 01,3301           03347                          TC       WTLST2
000292: 01,3302           00002                          OCT      2
000293:
000294: 01,3303           10000                 +4       CCS      A                                     #  TEST TD - T4 + 1
000295: 01,3304           61403                          AD       LST1       +3
000296: 01,3305           13311                          TCF      +4
000297: 01,3306           64770                          AD       ONE
000298: 01,3307           03347                          TC       WTLST2
000299: 01,3310           00003                          OCT      3
000300:
000301: 01,3311           10000                 +4       CCS      A                                     #  TEST TD - T5 + 1
000302: 01,3312           61404                          AD       LST1       +4
000303: 01,3313           13317                          TCF      +4
000304: 01,3314           64770                          AD       ONE
000305: 01,3315           03347                          TC       WTLST2
000306: 01,3316           00004                          OCT      4
000307:
000308: 01,3317           10000                 +4       CCS      A                                     #  TEST TD - T6 + 1
000309: 01,3320           61405                          AD       LST1       +5
000310: 01,3321           13325                          TCF      +4
000311: 01,3322           64770                          AD       ONE
000312: 01,3323           03347                          TC       WTLST2
000313: 01,3324           00005                          OCT      5
000314:
000315: 01,3325           10000                 +4       CCS      A                                     #  TEST TD - T7 + 1
000316: 01,3326           61406                          AD       LST1       +6
000317: 01,3327           13333                          TCF      +4
000318: 01,3330           64770                          AD       ONE
000319: 01,3331           03347                          TC       WTLST2
000320: 01,3332           00006                          OCT      6
000321:


000323: 01,3333           10000                 +4       CCS      A
000324: 01,3334           61407                          AD       LST1       +7
000325: 01,3335           13341                          TCF      +4
000326: 01,3336           64770                          AD       ONE
000327: 01,3337           03347                          TC       WTLST2
000328: 01,3340           00007                          OCT      7
000329:
000330: 01,3341           10000                 +4       CCS      A
000331: 01,3342           07706        WTABORT           TC       BAILOUT                               #  NO ROOM IN THE INN.
000332: 01,3343           31203                          OCT      31203
000333:
000334: 01,3344           64770                          AD       ONE
000335: 01,3345           03347                          TC       WTLST2
000336: 01,3346           00010                          OCT      10
000337:


000339:                                                                                                 #  THE ENTRY TO WTLST2 JUST PRECEDING OCT  N  IS FOR T  LE TD LE T   -1.
000340:                                                                                                 #                                                     N           N+1
000341:
000342:                                                                                                 #  (LE MEANS LESS THAN OR EQUAL TO).  AT ENTRY, C(A) = -(TD - T   + 1)
000343:                                                                                                 #                                                              N+1
000344:
000345:                                                                                                 #  THE LST1 ENTRY -(T   -T +1) IS TO BE REPLACED BY -(TD - T + 1), AND
000346:                                                                                                 #                    N+1  N                                 N
000347:
000348:                                                                                                 #  THE ENTRY -(T   - TD + 1) IS TO BE INSERTED IMMEDIATELY FOLLOWING.
000349:                                                                                                 #               N+1
000350:
000351: 01,3347           54064        WTLST2            TS       WAITTEMP                              #  C(A) = -(TD - T + 1)
000352: 01,3350           50002                          INDEX    Q


000354: 01,3351           30000                          CA       0
000355: 01,3352           54002                          TS       Q                                     #  INDEX VALUE INTO Q.
000356:
000357: 01,3353           34770                          CAF      ONE
000358: 01,3354           60064                          AD       WAITTEMP
000359: 01,3355           50002                          INDEX    Q                                     #  C(A) = -(TD - T ) + 1.
000360: 01,3356           27377                          ADS      LST1       -1                         #                 N
000361:
000362: 01,3357           40064                          CS       WAITTEMP
000363: 01,3360           50002                          INDEX    Q
000364: 01,3361           13237                          TCF      WTLST4
000365:
000366:                                                                                                 #  C(LST1  ) = - (T2 - T1) + 1
000367:                                                                                                 #  C(LST1+1) = - (T3 - T2) + 1
000368:                                                                                                 #  C(LST1+2) = - (T4 - T3) + 1
000369:                                                                                                 #  C(LST1+3) = - (T5 - T4) + 1
000370:                                                                                                 #  C(LST1+4) = - (T6 - T5) + 1
000371:
000372:                                                                                                 #  C(LST2   ) = 2CADR     TASK1
000373:                                                                                                 #  C(LST2+2 ) = 2CADR     TASK2
000374:                                                                                                 #  C(LST2+4 ) = 2CADR     TASK3
000375:                                                                                                 #  C(LST2+6 ) = 2CADR     TASK4
000376:                                                                                                 #  C(LST2+8 ) = 2CADR     TASK5
000377:                                                                                                 #  C(LST2+10) = 2CADR     TASK6
000378:


000380:                                                                                                 #  ENTERS HERE ON T3 RUPT TO DISPATCH WAITLISTED TASK.
000381:
000382: 01,3362           00006        T3RUPT            EXTEND
000383: 01,3363           04007                          ROR      SUPERBNK                              #  READ CURRENT SUPERBANK VALUE AND
000384: 01,3364           54016                          TS       BANKRUPT                              #  SAVE WITH E AND F BANK VALUES.
000385: 01,3365           00006                          EXTEND
000386: 01,3366           22012                          QXCH     QRUPT
000387:
000388: 01,3367           34751        T3RUPT2           CAF      NEG1/2                                #  DISPATCH WAITLIST TASK.
000389: 01,3370           57407                          XCH      LST1       +7
000390: 01,3371           57406                          XCH      LST1       +6
000391: 01,3372           57405                          XCH      LST1       +5
000392: 01,3373           57404                          XCH      LST1       +4                         #  1.  MOVE UP LST1 CONTENTS, ENTERING
000393: 01,3374           57403                          XCH      LST1       +3                         #      A VALUE OF 1/2 +1 AT THE BOTTOM
000394: 01,3375           57402                          XCH      LST1       +2                         #      FOR T6-T5, CORRESPONDING TO THE
000395: 01,3376           57401                          XCH      LST1       +1                         #      INTERVAL 81.91 SEC FOR ENDTASK.
000396: 01,3377           57400                          XCH      LST1
000397: 01,3400           64750                          AD       POSMAX                                #  2. SET T3 = 1.0 - T2 - T USING LIST 1.
000398: 01,3401           26026                          ADS      TIME3                                 #  SO T3 WON'T TICK DURING UPDATE.
000399: 01,3402           55137                          TS       RUPTAGN
000400: 01,3403           44772                          CS       ZERO
000401: 01,3404           55137                          TS       RUPTAGN                               #  SETS RUPTAGN TO +1 ON OVERFLOW.
000402:
000403: 01,3405           00006                          EXTEND                                         #  DISPATCH TASK.
000404: 01,3406           45275                          DCS      ENDTASK
000405: 01,3407           53431                          DXCH     LST2       +16D
000406: 01,3410           53427                          DXCH     LST2       +14D
000407: 01,3411           53425                          DXCH     LST2       +12D
000408: 01,3412           53423                          DXCH     LST2       +10D
000409: 01,3413           53421                          DXCH     LST2       +8D
000410: 01,3414           53417                          DXCH     LST2       +6
000411: 01,3415           53415                          DXCH     LST2       +4
000412: 01,3416           53413                          DXCH     LST2       +2
000413: 01,3417           53411                          DXCH     LST2
000414:
000415: 01,3420           56001                          XCH      L
000416: 01,3421           00006                          EXTEND
000417: 01,3422           01007                          WRITE    SUPERBNK                              #  SET SUPERBANK FROM BBCON OF 2CADR
000418: 01,3423           56001                          XCH      L                                     #  RESTORE TO L FOR DXCH Z.
000419: 01,3424           52006                          DTCB
000420:


000422:                                                                                                 #  RETURN, AFTER EXECUTION OF T3 OVERFLOW TASK:
000423:
000424:    4000                                          SETLOC   WAITF2
000425:    4000                                          BANK
000426:
000427:    5314                                          COUNT*   $$/WAIT
000428:    5314           11137        TASKOVER          CCS      RUPTAGN                               #  IF +1 RETURN TO T3RUPT, IF -0 RESUME.
000429:    5315           35254                          CAF      WAITBB
000430:    5316           54006                          TS       BBANK
000431:    5317           13367                          TCF      T3RUPT2                               #  DISPATCH NEXT TASK IF IT WAS DUE.
000432:
000433:    5320           30016                          CA       BANKRUPT
000434:    5321           00006                          EXTEND
000435:    5322           01007                          WRITE    SUPERBNK                              #  RESTORE SUPERBANK BEFORE RESUME IS DONE
000436:
000437:    5323           00006        RESUME            EXTEND
000438:    5324           22012                          QXCH     QRUPT
000439:    5325           30016        NOQRSM            CA       BANKRUPT
000440:    5326           56006                 +1       XCH      BBANK
000441:    5327           52011        NOQBRSM           DXCH     ARUPT
000442:    5330           00003                          RELINT
000443:    5331           50017                          RESUME
000444:


000446:                                                                                                 #  LONGCALL
000447:                                                                                                 #  PROGRAM DESCRIPTION                                          DATE- 17 MARCH 1967
000448:                                                                                                 #  PROGRAM WRITTEN BY W.H. VANDEVER                            LOG SECTION WAITLIST
000449:                                                                                                 #  MOD BY- R. MELANSON TO ADD DOCUMENTATION               ASSEMBLY SUNDISK REV. 100
000450:
000451:                                                                                                 #  FUNCTIONAL DESCRIPTION-
000452:                                                                                                 #  LONGCALL IS CALLED WITH THE DELTA TIME ARRIVING IN A,L SCALED AS TIME2,TIME1 WITH THE 2CADR OF THE TASK
000453:                                                                                                 #  IMMEDIATELY FOLLOWING THE TC LONGCALL.  FOR EXAMPLE, IT MIGHT BE DONE AS FOLLOWS WHERE TIMELOC IS THE NAME OF
000454:                                                                                                 #  A DP REGISTER CONTAINING A DELTA TIME AND WHERE TASKTODO IS THE NAME OF THE LOCATION AT WHICH LONGCALL IS TO
000455:                                                                                                 #  START
000456:
000457:                                                                                                 #  CALLING SEQUENCE-
000458:                                                                                                 #                                 EXTEND
000459:                                                                                                 #                                 DCA     TIMELOC
000460:                                                                                                 #                                 TC      LONGCALL
000461:                                                                                                 #                                 2CADR   TASKTODO
000462:
000463:                                                                                                 #  NORMAL EXIT MODE-
000464:                                                                                                 #         1). TC    WAITLIST
000465:                                                                                                 #         2). DTCB  (TC L+3 OF CALLING ROUTINE 1ST PASS THRU LONGCYCL)
000466:                                                                                                 #         3). DTCB  (TO TASKOVER ON SUBSEQUENT PASSES THRU LONGCYCL)
000467:
000468:                                                                                                 #  ALARM OR ABORT EXIT MODE-
000469:                                                                                                 #         NONE
000470:
000471:                                                                                                 #  OUTPUT-
000472:                                                                                                 #         LONGTIME AND LONGTIME+1 = DELTA TIME
000473:                                                                                                 #         LONGEXIT AND LONGEXIT+1 = RETURN 2CADR
000474:                                                                                                 #         LONGCADR AND LONGCADR+1 = TASK 2CADR
000475:                                                                                                 #         A = SINGLE PRECISION TIME FOR WAITLIST
000476:
000477:                                                                                                 #  ERASABLE INITIALIZATION-
000478:                                                                                                 #         A = MOST SIGNIFICANT PART OF DELTA TIME
000479:                                                                                                 #         L = LEAST SIGNIFICANT PART OF DELTA TIME
000480:                                                                                                 #         Q = ADDRESS OF 2CADR TASK VALUE
000481:
000482:                                                                                                 #  DEBRIS-
000483:                                                                                                 #         A,Q,L
000484:                                                                                                 #         LONGCADR AND LONGCADR+1
000485:                                                                                                 #         LONGEXIT AND LONGEXIT+1
000486:                                                                                                 #         LONGTIME AND LONGTIME+1
000487:
000488:                                                                                                 #  *** THE FOLLOWING IS TO BE IN FIXED-FIXED AND UNSWITCHED ERRASIBLE ***
000489:
000490:    4000                                          SETLOC   WAITF2
000491:    4000                                          BANK
000492:
000493:    5332                                          COUNT*   $$/WAIT
000494:    5332  E3,1400                                 EBANK=   LST1


000496:    5332           53305        LONGCALL          DXCH     LONGTIME                              #  OBTAIN THE DELTA TIME
000497:
000498:    5333           00006                          EXTEND                                         #  OBTAIN THE 2CADR
000499:    5334           50002                          NDX      Q
000500:    5335           30001                          DCA      0
000501:    5336           53301                          DXCH     LONGCADR
000502:
000503:    5337           00006                          EXTEND                                         #  NOW GO TO THE APPROPRIATE SWITCHED BANK
000504:    5340           35343                          DCA      LGCL2CDR                              #  FOR THE REST OF LONGCALL
000505:    5341           52006                          DTCB
000506:
000507:    5342  E3,1400                                 EBANK=   LST1
000508:    5342           03425 02063  LGCL2CDR          2CADR    LNGCALL2
000509:
000510:                                                                                                 #  *** THE FOLLOWING MAY BE IN A SWITCHED BANK, INCLUDING ITS ERASABLE ***
000511:
000512: 01,2000                                          SETLOC   EXECB1
000513: 01,2000                                          BANK
000514:
000515: 01,3425                                          COUNT*   $$/WAIT
000516: 01,3425           23435        LNGCALL2          LXCH     LONGEXIT   +1                         #  SAVE THE CORRECT BB FOR RETURN
000517: 01,3426           34767                          CA       TWO                                   #  OBTAIN THE RETURN ADDRESS
000518: 01,3427           26002                          ADS      Q
000519: 01,3430           55434                          TS       LONGEXIT
000520:
000521: 01,3431           11304        LGCLNGTM          CCS      LONGTIME                              #  TEST FOR NEG. TIME
000522: 01,3432           13440                          TCF      LONGCYCL                              #  HI-ORDER POS...OK
000523: 01,3433           13435                          TCF      +2                                    #            ZERO...TEST LO-ORDER
000524: 01,3434           15247                          TCF      WATLST0-                              #            NEG...POODOO
000525: 01,3435           31305                          CA       LONGTIME   +1                         #            ZERO...TEST LO-ORDER
000526: 01,3436           00006                          EXTEND
000527: 01,3437           65247                          BZMF     WATLST0-                              #  LO-ORDER ZERO/NEG...POODOO
000528:
000529:                                                                                                 #  *** WAITLIST TASK LONGCYCL ***
000530:
000531: 01,3440           00006        LONGCYCL          EXTEND                                         #  CAN WE SUCCESFULLY TAKE ABOUT 1.25
000532: 01,3441           43452                          DCS      DPBIT14                               #  MINUTES OFF OF LONGTIME
000533: 01,3442           21305                          DAS      LONGTIME
000534:
000535: 01,3443           11305                          CCS      LONGTIME   +1                         #  THE REASONING BEHIND THIS PART IS
000536: 01,3444           13462                          TCF      MUCHTIME                              #  INVOLVED, TAKING INTO ACCOUNT THAT THE
000537:                                                                                                 #  WORDS MAY NOT BE SIGNED CORRECTED (DP
000538:                                                                                                 #  BASIC INSTRUCTIONS
000539:                                                                                                 #  DO NOT SIGN CORRECT) AND THAT WE SUBTRAC-
000540:                                                                                                 #  TED BIT14 (1 OVER HALF THE POS. VALUE
000541:                                                                                                 #  REPRESENTABLE IN SINGLE WORD)
000542: 01,3445           13446                          NOOP                                           #  CAN'T GET HERE **********
000543: 01,3446           13447                          TCF      +1
000544: 01,3447           11304                          CCS      LONGTIME
000545: 01,3450           13462                          TCF      MUCHTIME


000547: 01,3451           00000        DPBIT14           OCT      00000
000548: 01,3452           20000                          OCT      20000
000549:
000550:                                                                                                 #  LONGCALL
000551: 01,3453           34753        LASTTIME          CA       BIT14                                 #  GET BACK THE CORRECT DELTA T FOR WAITLIST
000552: 01,3454           27305                          ADS      LONGTIME   +1
000553: 01,3455           05223                          TC       TWIDDLE
000554: 01,3456           03142                          ADRES    GETCADR                               #  THE ENTRY TO OUR LONGCADR
000555: 01,3457           35313        LONGRTRN          CA       TSKOVCDR                              #  SET IT UP SO THAT ONLY THE FIRST EXIT IS
000556: 01,3460           53435                          DXCH     LONGEXIT                              #  TO THE CALLER OF LONGCALL
000557: 01,3461           52006                          DTCB                                           #  THE REST ARE TO TASKOVER
000558:
000559: 01,3462           34753        MUCHTIME          CA       BIT14                                 #  WE HAVE OVER OUR ABOUT 1.25 MINUTES
000560: 01,3463           05233        WTLTCADR          TC       WAITLIST                              #  SO SET UP FOR ANOTHER CYCLE THRU HERE (=GENADR)
000561: 01,3464  E3,1400                                 EBANK=   LST1
000562: 01,3464           03440 02063                    2CADR    LONGCYCL
000563:
000564: 01,3466           13457                          TCF      LONGRTRN                              #  NOW EXIT PROPERLY

End of include-file WAITLIST.agc.  Parent file is MAIN.agc


