
Source Code
000001:                                                                                                 #  Copyright:     Public domain.
000002:                                                                                                 #  Filename:      AGC_BLOCK_TWO_SELF-CHECK.agc
000003:                                                                                                 #  Purpose:       Part of the source code for Colossus 2A, AKA Comanche 055.
000004:                                                                                                 #                 It is part of the source code for the Command Module's (CM)
000005:                                                                                                 #                 Apollo Guidance Computer (AGC), for Apollo 11.
000006:                                                                                                 #  Assembler:     yaYUL
000007:                                                                                                 #  Contact:       Ron Burkey <info@sandroid.org>.
000008:                                                                                                 #  Website:       www.ibiblio.org/apollo.
000009:                                                                                                 #  Pages: 1394-1403
000010:                                                                                                 #  Mod history:  2009-05-10 SN   (Sergio Navarro).  Started adapting
000011:                                                                                                 #                                 from the Colossus249/ file of the same
000012:                                                                                                 #                                 name, using Comanche055 page images.
000013:
000014:                                                                                                 #  This source code has been transcribed or otherwise adapted from digitized
000015:                                                                                                 #  images of a hardcopy from the MIT Museum.  The digitization was performed
000016:                                                                                                 #  by Paul Fjeld, and arranged for by Deborah Douglas of the Museum.  Many
000017:                                                                                                 #  thanks to both.  The images (with suitable reduction in storage size and
000018:                                                                                                 #  consequent reduction in image quality as well) are available online at
000019:                                                                                                 #  www.ibiblio.org/apollo.  If for some reason you find that the images are
000020:                                                                                                 #  illegible, contact me at info@sandroid.org about getting access to the
000021:                                                                                                 #  (much) higher-quality images which Paul actually created.
000022:
000023:                                                                                                 #  Notations on the hardcopy document read, in part:
000024:
000025:                                                                                                 #     Assemble revision 055 of AGC program Comanche by NASA
000026:                                                                                                 #     2021113-051.  10:28 APR. 1, 1969
000027:
000028:                                                                                                 #     This AGC program shall also be referred to as
000029:                                                                                                 #             Colossus 2A
000030:
000031:                                                                                                 #  Page 1394
000032:                                                                                                 #  PROGRAM DESCRIPTION                            DATE:  20 DECEMBER 1967
000033:                                                                                                 #  PROGRAM NAME -- SELF-CHECK                     LOG SECTION:  AGC BLOCK TWO SELF-CHECK
000034:                                                                                                 #  MOD NO -- 1                                    ASSEMBLY SUBROUTINE UTILITYM REV 25
000035:                                                                                                 #  MOD BY -- GAUNTT
000036:
000037:                                                                                                 #  FUNCTIONAL DESCRIPTION
000038:                                                                                                 #         PROGRAM HAS TWO MAIN PARTS.  THE FIRST IS SELF-CHECK WHICH RUNS AS A ZERO PRIORITY JOB WITH NO CORE SET, AS
000039:                                                                                                 #         PART OF THE BACK-UP IDLE LOOP.  THE SECOND IS SHOW-BANKSUM WHICH RUNS AS A REGULAR EXECUTIVE JOB WITH ITS OWN
000040:                                                                                                 #         STARTING VERB.
000041:
000042:                                                                                                 #         THE PURPOSE OF SELF-CHECK IS TO CHECK OUT VARIOUS PARTS OF THE COMPUTER AS OUTLINED BELOW IN THE OPTIONS.
000043:
000044:                                                                                                 #         THE PURPOSE OF SHOW-BANKSUM IS TO DISPLAY THE SUM OF EACH BANK, ONE AT A TIME.
000045:
000046:                                                                                                 #         IN ALL THERE ARE 7 POSSIBLE OPTIONS IN THIS BLOCK II VERSION OF SELF-CHECK.  MORE DETAIL DESCRIPTION MAY BE
000047:                                                                                                 #         FOUND IN E-2065 BLOCK II AGC SELF-CHECK AND SHOW BANKSUM BY EDWIN D. SMALLY DECEMBER 1966, AND ADDENDA 2 AND 3.
000048:
000049:                                                                                                 #         THE DIFFERENT OPTIONS ARE CONTROLLED BY PUTTING DIFFERENT NUMBERS IN THE SMODE REGISTER (NOUN 27).  BELOW IS
000050:                                                                                                 #         A DESCRIPTION OF WHAT PARTS OF THE COMPUTER THAT ARE CHECKED BY THE OPTIONS, AND THE CORRESPONDING NUMBER, IN
000051:                                                                                                 #         OCTAL, TO LOAD INTO SMODE.
000052:                                                                                                 #                 +-4             ERASABLE MEMORY
000053:                                                                                                 #                 +-5             FIXED MEMORY
000054:                                                                                                 #                 +-1,2,3,6,7,10  EVERYTHING IN OPTIONS 4 AND 5.
000055:                                                                                                 #                 -0              SAME AS +-10 UNTIL AN ERROR IS DETECTED.
000056:                                                                                                 #                 +0              NO CHECK, PUTS COMPUTER INTO THE BACKUP IDLE LOOP.
000057:
000058:                                                                                                 #  WARNINGS
000059:                                                                                                 #         USE OF E MEMORY RESERVED FOR SELF-CHECK (EVEN IN IDLE LOOP) AS TEMP STORAGE BY OTHER PROGRAMS IS DANGEROUS.
000060:                                                                                                 #         SMODE SET GREATER THAN OCT 10 PUTS COMPUTER INTO BACKUP IDLE LOOP.
000061:
000062:                                                                                                 #  CALLING SEQUENCE
000063:                                                                                                 #         TO CALL SELF-CHECK KEY IN
000064:                                                                                                 #                 V 21 N 27 E     OPTION NUMBER E
000065:                                                                                                 #         TO CALL SHOW-BANKSUM KEY IN
000066:                                                                                                 #                 V 91 E          DISPLAYS FIRST BANK
000067:                                                                                                 #                 V 33 E          PROCEED, DISPLAYS NEXT BANK
000068:
000069:                                                                                                 #  EXIT MODES, NORMAL AND ALARM
000070:                                                                                                 #         SELF-CHECK NORMALLY CONTINUES INDEFINITELY UNLESS THERE IS AN ERROR DETECTED.  IF SO + OPTION NUMBERS PUT
000071:                                                                                                 #         COMPUTER INTO BACKUP IDLE LOOP, - OPTION NUMBERS RESTART THE OPTION.
000072:
000073:                                                                                                 #         THE -0 OPTION PROCEEDS FROM THE LINE FOLLOWING THE LINE WHERE THE ERROR WAS DETECTED.
000074:
000075:                                                                                                 #         SHOW-BANKSUM PROCEEDS UNTIL A TERMINATE IS KEYED IN (V 34 E).  THE COMPUTER IS PUT INTO THE BACKUP IDLE LOOP.
000076:
000077:                                                                                                 #  OUTPUT
000078:                                                                                                 #  Page 1395
000079:                                                                                                 #         SELF-CHECK UPON DETECTING AN ERROR LOADS THE SELF-CHECK ALARM CONSTANT (01102) INTO THE FAILREG SET AND
000080:                                                                                                 #         TURNS ON THE ALARM LIGHT.  THE OPERATOR MAY THEN DISPLAY THE THREE FAILREGS BY KEYING IN V 05 N 09 E.  FOR FURTHER
000081:                                                                                                 #         INFORMATION HE MAY KEY IN V 05 N 08 E, THE DSKY DISPLAY IN R1 WILL BE ADDRESS+1 OF WHERE THE ERROR WAS DETECTED,
000082:                                                                                                 #         IN R2 THE BBCON OF SELF-CHECK, AND IN R3 THE TOTAL NUMBER OF ERRORS DETECTED BY SELF-CHECK SINCE THE LAST MAN
000083:                                                                                                 #         INITIATED FRESH START (SLAP1).
000084:
000085:                                                                                                 #         SHOW-BANKSUM STARTING WTIH BANK 0 DISPLAYS IN R1 THE BANK SUM (A +-NUMBER EQUAL TO THE BANK NUMBER), IN R2
000086:                                                                                                 #         THE BANK NUMBER, AND IN R3 THE BUGGER WORD.
000087:
000088:                                                                                                 #  ERASABLE INITIALIZATION REQUIRED
000089:                                                                                                 #         ACCOMPLISHED BY FRESH START
000090:                                                                                                 #                 SMODE SET TO +0
000091:
000092:                                                                                                 #  DEBRIS
000093:                                                                                                 #         ALL EXITS FROM THE CHECK OF ERASABLE (ERASCHK) RESTORE ORIGINAL CONTENTS TO REGISTERS UNDER CHECK.
000094:                                                                                                 #         EXCEPTION IS A RESTART.  RESTART THAT OCCURS DURING ERASCHK RESTORES ERASABLE, UNLESS THERE IS EVIDENCE TO DOUBT
000095:                                                                                                 #         E MEMORY, IN WHICH CASE PROGRAM THEN DOES A FRESH START (DOFSTART).
000096:
000097: 25,3774                                          BANK     25
000098: 43,2000                                          SETLOC   SELFCHEC
000099: 43,2000                                          BANK
000100:
000101: 43,3234                                          COUNT    43/SELF
000102:
000103: 43,3234     5017               SBIT1             EQUALS   BIT1
000104: 43,3234     5016               SBIT2             EQUALS   BIT2
000105: 43,3234     5015               SBIT3             EQUALS   BIT3
000106: 43,3234     5014               SBIT4             EQUALS   BIT4
000107: 43,3234     5013               SBIT5             EQUALS   BIT5
000108: 43,3234     5012               SBIT6             EQUALS   BIT6
000109: 43,3234     5011               SBIT7             EQUALS   BIT7
000110: 43,3234     5010               SBIT8             EQUALS   BIT8
000111: 43,3234     5007               SBIT9             EQUALS   BIT9
000112: 43,3234     5006               SBIT10            EQUALS   BIT10
000113: 43,3234     5005               SBIT11            EQUALS   BIT11
000114: 43,3234     5004               SBIT12            EQUALS   BIT12
000115: 43,3234     5003               SBIT13            EQUALS   BIT13
000116: 43,3234     5002               SBIT14            EQUALS   BIT14
000117: 43,3234     5001               SBIT15            EQUALS   BIT15
000118:
000119: 43,3234     5021               S+ZERO            EQUALS   ZERO
000120: 43,3234     5017               S+1               EQUALS   BIT1
000121: 43,3234     5016               S+2               EQUALS   BIT2
000122: 43,3234     6214               S+3               EQUALS   THREE
000123: 43,3234     5015               S+4               EQUALS   FOUR
000124: 43,3234     5022               S+5               EQUALS   FIVE
000125:                                                                                                 #  Page 1396
000126: 43,3234     6211               S+6               EQUALS   SIX
000127: 43,3234     5023               S+7               EQUALS   SEVEN
000128: 43,3234     4373               S8BITS            EQUALS   LOW8                                  #  00377
000129: 43,3234     5033               CNTRCON           =        OCT50                                 #  USED IN CNTRCHK
000130: 43,3234           00061        ERASCON1          OCTAL    00061                                 #  USED IN ERASCHK
000131: 43,3235           01373        ERASCON2          OCTAL    01373                                 #  USED IN ERASCHK
000132: 43,3236     5051               ERASCON6          =        OCT1400                               #  USED IN ERASCHK
000133: 43,3236           01461        ERASCON3          OCTAL    01461                                 #  USED IN ERASCHK
000134: 43,3237           01773        ERASCON4          OCTAL    01773                                 #  USED IN ERASCHK
000135: 43,3240     5054               S10BITS           EQUALS   LOW10                                 #  01777, USED IN ERASCHK
000136: 43,3240     5062               SBNK03            EQUALS   PRIO6                                 #  06000, USED IN ROPECHK
000137: 43,3240     4364               -MAXADRS          =        HI5                                   #  FOR ROPECHK
000138: 43,3240           00060        SIXTY             OCTAL    00060
000139: 43,3241           60017        SUPRCON           OCTAL    60017                                 #  USED IN ROPECHK
000140: 43,3242           17777        S13BITS           OCTAL    17777
000141: 43,3243           25252        CONC+S1           OCTAL    25252                                 #  USED IN CYCLSHFT
000142: 43,3244           52400        CONC+S2           OCTAL    52400                                 #  USED IN CYCLSHFT
000143: 43,3245           76777        ERASCON5          OCTAL    76777
000144: 43,3246     5731               S-7               =        OCT77770
000145: 43,3246     6061               S-4               EQUALS   NEG4
000146: 43,3246     7714               S-3               EQUALS   NEG3
000147: 43,3246     7715               S-2               EQUALS   NEG2
000148: 43,3246     7716               S-1               EQUALS   NEGONE
000149: 43,3246     5020               S-ZERO            EQUALS   NEG0
000150:
000151: 43,3246  E3,1400                                 EBANK=   LST1
000152: 43,3246           01371        ADRS1             ADRES    SKEEP1
000153: 43,3247           03340        SELFADRS          ADRES    SELFCHK                               #  SELFCHK RETURN ADDRESS.  SHOULD BE PUT
000154:                                                                                                 #  IN SELFRET WHEN GOING FROM SELFCHK TO
000155:                                                                                                 #  SHOWSUM AND PUT IN SKEEP1 WHEN GOING
000156:                                                                                                 #  FROM SHOWSUM TO SELF-CHECK.
000157:
000158: 43,3250           31360        PRERRORS          CA       ERESTORE                              #  IS IT NECESSARY TO RESTORE ERASABLE
000159: 43,3251           00006                          EXTEND
000160: 43,3252           13261                          BZF      ERRORS                                #  NO
000161: 43,3253           00006                          EXTEND
000162: 43,3254           31376                          DCA      SKEEP5
000163: 43,3255           51377                          INDEX    SKEEP7
000164: 43,3256           52001                          DXCH     0000                                  #  RESTORE THE TWO ERASABLE REGISTERS
000165: 43,3257           35021                          CA       S+ZERO
000166: 43,3260           55360                          TS       ERESTORE
000167: 43,3261           00004        ERRORS            INHINT
000168: 43,3262           30002                          CA       Q
000169: 43,3263           55357                          TS       SFAIL                                 #  SAVE Q FOR FAILURE LOCATION
000170: 43,3264           55363                          TS       ALMCADR                               #  FOR DISPLAY WITH BBANK AND ERCOUNT
000171: 43,3265           25365                          INCR     ERCOUNT                               #  KEEP TRACK OF NUMBER OF MALFUNCTIONS.
000172: 43,3266           05652        TCALARM2          TC       ALARM2
000173: 43,3267           01102                          OCT      01102                                 #  SELF-CHECK MALFUNCTION INDICATOR
000174: 43,3270           11362                          CCS      SMODE
000175: 43,3271           35021        SIDLOOP           CA       S+ZERO
000176:                                                                                                 #  Page 1397
000177: 43,3272           55362                          TS       SMODE
000178: 43,3273           03340                          TC       SELFCHK                               #  GO TO IDLE LOOP
000179: 43,3274           01357                          TC       SFAIL                                 #  CONTINUE WITH SELF-CHECK
000180:
000181: 43,3275           10000        -1CHK             CCS      A
000182: 43,3276           13250                          TCF      PRERRORS
000183: 43,3277           13250                          TCF      PRERRORS
000184: 43,3300           10000                          CCS      A
000185: 43,3301           13250                          TCF      PRERRORS
000186: 43,3302           00002                          TC       Q
000187:
000188: 43,3303           00006        SMODECHK          EXTEND
000189: 43,3304           23371                          QXCH     SKEEP1
000190: 43,3305           03334                          TC       CHECKNJ                               #  CHECK FOR NEW JOB
000191: 43,3306           11362                          CCS      SMODE
000192: 43,3307           03314                          TC       SOPTIONS
000193: 43,3310           03305                          TC       SMODECHK   +2                         #  TO BACKUP IDLE LOOP
000194: 43,3311           03314                          TC       SOPTIONS
000195: 43,3312           25366                          INCR     SCOUNT
000196: 43,3313           01371                          TC       SKEEP1                                #  CONTINUE WITH SELF-CHECK
000197:
000198: 43,3314           65731        SOPTIONS          AD       S-7
000199: 43,3315           00006                          EXTEND
000200: 43,3316           63320                          BZMF     +2                                    #  FOR OPTIONS BELOW NINE.
000201: 43,3317           03271        BNKOPTN           TC       SIDLOOP                               #  ILLEGAL OPTION.  GO TO IDLE LOOP.
000202: 43,3320           25366                          INCR     SCOUNT                                #  FOR OPTIONS BELOW NINE.
000203: 43,3321           65023                          AD       S+7
000204:
000205: 43,3322           50000                          INDEX    A
000206: 43,3323           03324                          TC       SOPTION1
000207: 43,3324           01371        SOPTION1          TC       SKEEP1                                #  WAS TC+TCF
000208: 43,3325           01371        SOPTION2          TC       SKEEP1                                #  WAS IN:OUT1
000209: 43,3326           01371        SOPTION3          TC       SKEEP1                                #  WAS COUNTCHK
000210: 43,3327           03341        SOPTION4          TC       ERASCHK
000211: 43,3330           03522        SOPTION5          TC       ROPECHK
000212: 43,3331           01371        SOPTION6          TC       SKEEP1
000213: 43,3332           01371        SOPTION7          TC       SKEEP1
000214: 43,3333           01371        SOPTON10          TC       SKEEP1                                #  CONTINUE WITH SELF-CHECK
000215:
000216: 43,3334           00006        CHECKNJ           EXTEND
000217: 43,3335           23361                          QXCH     SELFRET                               #  SAVE RETURN ADDRESS WHILE TESTING NEWJOB
000218: 43,3336           04701                          TC       POSTJUMP                              #  TO SEE IF ANY JOBS HAVE BECOME ACTIVE.
000219: 43,3337           03231                          CADR     ADVAN
000220:
000221: 43,3340           03303        SELFCHK           TC       SMODECHK                              #  ** CHARLEY, COME IN HERE
000222:
000223:                                                                                                 #  SKEEP7 HOLDS LOWEST OF TWO ADDRESSES BEING CHECKED.
000224:                                                                                                 #  SKEEP6 HOLDS B(X+1).
000225:                                                                                                 #  SKEEP5 HOLDS B(X).
000226:                                                                                                 #  SKEEP4 HOLDS C(EBANK) DURING ERASLOOP AND CHECKNJ
000227:                                                                                                 #  Page 1398
000228:                                                                                                 #  SKEEP3 HOLDS LAST ADDRESS BEING CHECKED (HIGHEST ADDRESS).
000229:                                                                                                 #  SKEEP2 CONTROLS CHECKING OF NON-SWITCHABLE ERASABLE MEMORY WITH BANK NUMBERS IN EB.
000230:
000231:                                                                                                 #  ERASCHK TAKES APPROXIMATELY 7 SECONDS.
000232:
000233: 43,3341           35017        ERASCHK           CA       S+1
000234: 43,3342           55372                          TS       SKEEP2
000235: 43,3343           35021        0EBANK            CA       S+ZERO
000236: 43,3344           54003                          TS       EBANK
000237: 43,3345           33236                          CA       ERASCON3                              #  01461
000238: 43,3346           55377                          TS       SKEEP7                                #  STARTING ADDRESS
000239: 43,3347           35054                          CA       S10BITS                               #  01777
000240: 43,3350           55373                          TS       SKEEP3                                #  LAST ADDRESS CHECKED
000241: 43,3351           03371                          TC       ERASLOOP
000242:
000243: 43,3352           35051        E134567B          CA       ERASCON6                              #  01400
000244: 43,3353           55377                          TS       SKEEP7                                #  STARTING ADDRESS
000245: 43,3354           35054                          CA       S10BITS                               #  01777
000246: 43,3355           55373                          TS       SKEEP3                                #  LAST ADDRESS CHECKED
000247: 43,3356           03371                          TC       ERASLOOP
000248:
000249: 43,3357           35051        2EBANK            CA       ERASCON6                              #  01400
000250: 43,3360           55377                          TS       SKEEP7                                #  STARTING ADDRESS
000251: 43,3361           33237                          CA       ERASCON4                              #  01773
000252: 43,3362           55373                          TS       SKEEP3                                #  LAST ADDRESS CHECKED
000253: 43,3363           03371                          TC       ERASLOOP
000254:
000255: 43,3364           55372        NOEBANK           TS       SKEEP2                                #  +0
000256: 43,3365           33234                          CA       ERASCON1                              #  00061
000257: 43,3366           55377                          TS       SKEEP7                                #  STARTING ADDRESS
000258: 43,3367           33235                          CA       ERASCON2                              #  01373
000259: 43,3370           55373                          TS       SKEEP3                                #  LAST ADDRESS CHECKED
000260:
000261: 43,3371           00004        ERASLOOP          INHINT
000262: 43,3372           30003                          CA       EBANK                                 #  STORES C(EBANK)
000263: 43,3373           55374                          TS       SKEEP4
000264: 43,3374           00006                          EXTEND
000265: 43,3375           51377                          NDX      SKEEP7
000266: 43,3376           30001                          DCA      0000
000267: 43,3377           53376                          DXCH     SKEEP5                                #  STORES C(X) AND C(X+1) IN SKEEP6 AND 5.
000268: 43,3400           31377                          CA       SKEEP7
000269: 43,3401           55360                          TS       ERESTORE                              #  IF RESTART, RESTORE C(X) AND C(X+1)
000270: 43,3402           54001                          TS       L
000271: 43,3403           24001                          INCR     L
000272: 43,3404           50000                          NDX      A
000273: 43,3405           52001                          DXCH     0000                                  #  PUTS OWN ADDRESS IN X AND X +1
000274: 43,3406           51377                          NDX      SKEEP7
000275: 43,3407           40001                          CS       0001                                  #  CS X+1
000276: 43,3410           51377                          NDX      SKEEP7
000277: 43,3411           60000                          AD       0000                                  #  AD X
000278: 43,3412           03275                          TC       -1CHK
000279: 43,3413           31360                          CA       ERESTORE                              #  HAS ERASABLE BEEN RESTORED
000280:                                                                                                 #  Page 1399
000281: 43,3414           00006                          EXTEND
000282: 43,3415           13441                          BZF      ELOOPFIN                              #  YES, EXIT ERASLOOP.
000283: 43,3416           00006                          EXTEND
000284: 43,3417           51377                          NDX      SKEEP7
000285: 43,3420           40001                          DCS      0000                                  #  COMPLEMENT OF ADDRESS OF X AND X+1
000286: 43,3421           51377                          NDX      SKEEP7
000287: 43,3422           52001                          DXCH     0000                                  #  PUT COMPLEMENT OF ADDRESS OF X AND X+1
000288: 43,3423           51377                          NDX      SKEEP7
000289: 43,3424           40000                          CS       0000                                  #  CS X
000290: 43,3425           51377                          NDX      SKEEP7
000291: 43,3426           60001                          AD       0001                                  #  AD X+1
000292: 43,3427           03275                          TC       -1CHK
000293: 43,3430           31360                          CA       ERESTORE                              #  HAS ERASABLE BEEN RESTORED
000294: 43,3431           00006                          EXTEND
000295: 43,3432           13441                          BZF      ELOOPFIN                              #  YES, EXIT ERASLOOP.
000296: 43,3433           00006                          EXTEND
000297: 43,3434           31376                          DCA      SKEEP5
000298: 43,3435           51377                          NDX      SKEEP7
000299: 43,3436           52001                          DXCH     0000                                  #  PUT B(X) AND B(X+1) BACK INTO X AND X+1
000300: 43,3437           35021                          CA       S+ZERO
000301: 43,3440           55360                          TS       ERESTORE                              #  IF RESTART, DO NOT RESTORE C(X), C(X+1)
000302: 43,3441           00003        ELOOPFIN          RELINT
000303: 43,3442           03334                          TC       CHECKNJ                               #  CHECK FOR NEW JOB
000304: 43,3443           31374                          CA       SKEEP4                                #  REPLACES B(EBANK)
000305: 43,3444           54003                          TS       EBANK
000306: 43,3445           25377                          INCR     SKEEP7
000307: 43,3446           41377                          CS       SKEEP7
000308: 43,3447           61373                          AD       SKEEP3
000309: 43,3450           00006                          EXTEND
000310: 43,3451           13453                          BZF      +2
000311: 43,3452           03371                          TC       ERASLOOP                              #  GO TO NEXT ADDRESS IN SAME BANK
000312: 43,3453           11372                          CCS      SKEEP2
000313: 43,3454           03364                          TC       NOEBANK
000314: 43,3455           25372                          INCR     SKEEP2                                #  PUT +1 IN SKEEP2.
000315: 43,3456           30003                          CA       EBANK
000316: 43,3457           65007                          AD       SBIT9
000317: 43,3460           54003                          TS       EBANK
000318: 43,3461           63245                          AD       ERASCON5                              #  76777, CHECK FOR BANK E2
000319: 43,3462           00006                          EXTEND
000320: 43,3463           13357                          BZF      2EBANK
000321: 43,3464           10003                          CCS      EBANK
000322: 43,3465           03352                          TC       E134567B                              #  GO TO EBANKS 1,3,4,5,6, AND 7
000323: 43,3466           35051                          CA       ERASCON6                              #  END OF ERASCHK
000324: 43,3467           54003                          TS       EBANK
000325:
000326:                                                                                                 #  CNTRCHK PERFORMS A CS OF ALL REGISTERS FROM OCT. 60 THROUGH OCT. 10.
000327:                                                                                                 #  INCLUDED ARE ALL COUNTERS, T6-1, CYCLE AND SHIFT, AND ALL RUPT REGISTERS
000328:
000329: 43,3470           35033        CNTRCHK           CA       CNTRCON                               #  00050
000330: 43,3471           55372        CNTRLOOP          TS       SKEEP2
000331: 43,3472           65014                          AD       SBIT4                                 #  +10 OCTAL
000332: 43,3473           50000                          INDEX    A
000333:                                                                                                 #  Page 1400
000334: 43,3474           40000                          CS       0000
000335: 43,3475           11372                          CCS      SKEEP2
000336: 43,3476           03471                          TC       CNTRLOOP
000337:
000338:                                                                                                 #  CYCLSHFT CHECKS THE CYCLE AND SHIFT REGISTERS
000339:
000340: 43,3477           33243        CYCLSHFT          CA       CONC+S1                               #  25252
000341: 43,3500           54020                          TS       CYR                                   #  C(CYR) = 12525
000342: 43,3501           54022                          TS       CYL                                   #  C(CYL) = 52524
000343: 43,3502           54021                          TS       SR                                    #  C(SR) = 12525
000344: 43,3503           54023                          TS       EDOP                                  #  C(EDOP) = 00125
000345: 43,3504           60020                          AD       CYR                                   #  37777          C(CYR) = 45252
000346: 43,3505           60022                          AD       CYL                                   #  00-12524       C(CYL) = 25251
000347: 43,3506           60021                          AD       SR                                    #  00-25251       C(SR) = 05252
000348: 43,3507           60023                          AD       EDOP                                  #  00-25376       C(EDOP) = +0
000349: 43,3510           63244                          AD       CONC+S2                               #  C(CONC+S2) = 52400
000350: 43,3511           03275                          TC       -1CHK
000351: 43,3512           60020                          AD       CYR                                   #  45252
000352: 43,3513           60022                          AD       CYL                                   #  72523
000353: 43,3514           60021                          AD       SR                                    #  77775
000354: 43,3515           60023                          AD       EDOP                                  #  77775
000355: 43,3516           65017                          AD       S+1                                   #  77776
000356: 43,3517           03275                          TC       -1CHK
000357:
000358: 43,3520           25367                          INCR     SCOUNT     +1
000359: 43,3521           03303                          TC       SMODECHK
000360:
000361:                                                                                                 #  SKEEP1 HOLDS SUM
000362:                                                                                                 #  SKEEP2 HOLDS PRESENT CONTENTS OF ADDRESS IN ROPECHK AND SHOWSUM ROUTINES
000363:                                                                                                 #  SKEEP2 HOLDS BANK NUMBER IN LOW ORDER BITS DURING SHOWSUM DISPLAY
000364:                                                                                                 #  SKEEP3 HOLDS PRESENT ADDRESS (00000 TO 01777 IN COMMON FIXED BANKS)
000365:                                                                                                 #                                (04000 TO 07777 IN FXFX BANKS)
000366:                                                                                                 #  SKEEP3 HOLDS BUGGER WORD DURING SHOWSUM DISPLAY
000367:                                                                                                 #  SKEEP4 HOLDS BANK NUMBER AND SUPER BANK NUMBER
000368:                                                                                                 #  SKEEP5 COUNTS 2 SUCCESSIVE TC SELF WORDS
000369:                                                                                                 #  SKEEP6 CONTROLS ROPECHK OR SHOWSUM OPTION
000370:                                                                                                 #  SKEEP7 CONTROLS WHEN ROUTINE IS IN COMMON FIXED OR FIXED FIXED BANKS
000371:
000372: 43,3522           35020        ROPECHK           CA       S-ZERO                                #  *
000373: 43,3523           55376                          TS       SKEEP6                                #  * -0 FOR ROPECHK
000374: 43,3524           35021        STSHOSUM          CA       S+ZERO                                #  * SHOULD BE ROPECHK
000375:
000376: 43,3525           55374                          TS       SKEEP4                                #  BANK NUMBER
000377: 43,3526           35017                          CA       S+1
000378: 43,3527           55377        COMMFX            TS       SKEEP7
000379: 43,3530           35021                          CA       S+ZERO
000380: 43,3531           55371                          TS       SKEEP1
000381: 43,3532           55373                          TS       SKEEP3
000382: 43,3533           35017                          CA       S+1
000383: 43,3534           55375                          TS       SKEEP5                                #  COUNTS DOWN 2 TC SELF WORDS
000384: 43,3535           31374        COMADRS           CA       SKEEP4
000385: 43,3536           54001                          TS       L                                     #  TO SET SUPER BANK
000386:                                                                                                 #  Page 1401
000387: 43,3537           74364                          MASK     HI5
000388: 43,3540           61373                          AD       SKEEP3
000389: 43,3541           04715                          TC       SUPDACAL                              #  SUPER DATA CALL
000390: 43,3542           03565                          TC       ADSUM
000391: 43,3543           65005                          AD       SBIT11                                #  02000
000392: 43,3544           03576                          TC       ADRSCHK
000393:
000394: 43,3545           40000        FXFX              CS       A
000395: 43,3546           55377                          TS       SKEEP7
000396: 43,3547           00006                          EXTEND
000397: 43,3550           13553                          BZF      +3
000398: 43,3551           35004                          CA       SBIT12                                #  04000, STARTING ADDRESS OF BANK 02
000399: 43,3552           03554                          TC       +2
000400: 43,3553           35062                          CA       SBNK03                                #  06000, STARTING ADDRESS OF BANK 03
000401: 43,3554           55373                          TS       SKEEP3
000402: 43,3555           35021                          CA       S+ZERO
000403: 43,3556           55371                          TS       SKEEP1
000404: 43,3557           35017                          CA       S+1
000405: 43,3560           55375                          TS       SKEEP5                                #  COUNTS DOWN 2 TC SELF WORDS
000406: 43,3561           51373        FXADRS            INDEX    SKEEP3
000407: 43,3562           30000                          CA       0000
000408: 43,3563           03565                          TC       ADSUM
000409: 43,3564           03576                          TC       ADRSCHK
000410:
000411: 43,3565           55372        ADSUM             TS       SKEEP2
000412: 43,3566           61371                          AD       SKEEP1
000413: 43,3567           55371                          TS       SKEEP1
000414: 43,3570           35021                          CAF      S+ZERO
000415: 43,3571           61371                          AD       SKEEP1
000416: 43,3572           55371                          TS       SKEEP1
000417: 43,3573           41372                          CS       SKEEP2
000418: 43,3574           61373                          AD       SKEEP3
000419: 43,3575           00002                          TC       Q
000420:
000421: 43,3576           22000        ADRSCHK           LXCH     A
000422: 43,3577           31373                          CA       SKEEP3
000423: 43,3600           75054                          MASK     LOW10                                 #  RELATIVE ADDRESS
000424: 43,3601           64364                          AD       -MAXADRS                              #  SUBTRACT MAX RELATIVE ADDRESS = 1777.
000425: 43,3602           00006                          EXTEND
000426: 43,3603           13672                          BZF      SOPTION                               #  CHECKSUM FINISHED IF LAST ADDRESS.
000427: 43,3604           11375                          CCS      SKEEP5                                #  IS CHECKSUM FINISHED
000428: 43,3605           03610                          TC       +3                                    #  NO
000429: 43,3606           03610                          TC       +2                                    #  NO
000430: 43,3607           03672                          TC       SOPTION                               #  GO TO ROPECHK SHOWSUM OPTION
000431: 43,3610           10001                          CCS      L                                     #  -0 MEANS A TC SELF WORD.
000432: 43,3611           03620                          TC       CONTINU
000433: 43,3612           03620                          TC       CONTINU
000434: 43,3613           03620                          TC       CONTINU
000435: 43,3614           11375                          CCS      SKEEP5
000436: 43,3615           03621                          TC       CONTINU    +1
000437:                                                                                                 #  Page 1402
000438: 43,3616           37716                          CA       S-1
000439: 43,3617           03621                          TC       CONTINU    +1                         #  AD IN THE BUGGER WORD
000440: 43,3620           35017        CONTINU           CA       S+1                                   #  MAKE SURE TWO CONSECUTIVE TC SELF WORDS
000441: 43,3621           55375                          TS       SKEEP5
000442: 43,3622           11376                          CCS      SKEEP6                                #  *
000443: 43,3623           10067                          CCS      NEWJOB                                #  * +1, SHOWSUM
000444: 43,3624           05164                          TC       CHANG1                                #  *
000445: 43,3625           03627                          TC       +2                                    #  *
000446: 43,3626           03334                          TC       CHECKNJ                               #  -0 IN SKEEP6 FOR ROPECHK
000447:
000448: 43,3627           25373        ADRS+1            INCR     SKEEP3
000449: 43,3630           11377                          CCS      SKEEP7
000450: 43,3631           03535                          TC       COMADRS
000451: 43,3632           03535                          TC       COMADRS
000452: 43,3633           03561                          TC       FXADRS
000453: 43,3634           03561                          TC       FXADRS
000454:
000455: 43,3635           41374        NXTBNK            CS       SKEEP4
000456: 43,3636           63725                          AD       LSTBNKCH                              #  LAST BANK TO BE CHECKED
000457: 43,3637           00006                          EXTEND
000458: 43,3640           13011                          BZF      ENDSUMS                               #  END OF SUMMING OF BANKS.
000459: 43,3641           31374                          CA       SKEEP4
000460: 43,3642           65005                          AD       SBIT11
000461: 43,3643           55374                          TS       SKEEP4                                #  37 TO 40 INCRMTS SKEEP4 BY END RND CARRY
000462: 43,3644           03650                          TC       CHKSUPR
000463: 43,3645           35001        17TO20            CA       SBIT15
000464: 43,3646           27374                          ADS      SKEEP4                                #  SET FOR BANK 20
000465: 43,3647           03664                          TC       GONXTBNK
000466: 43,3650           74364        CHKSUPR           MASK     HI5
000467: 43,3651           00006                          EXTEND
000468: 43,3652           13662                          BZF      NXTSUPR                               #  INCREMENT SUPER BANK
000469: 43,3653           63242        27TO30            AD       S13BITS
000470: 43,3654           00006                          EXTEND
000471: 43,3655           13657                          BZF      +2                                    #  BANK SET FOR 30
000472: 43,3656           03664                          TC       GONXTBNK
000473: 43,3657           33240                          CA       SIXTY                                 #  FIRST SUPER BANK
000474: 43,3660           27374                          ADS      SKEEP4
000475: 43,3661           03664                          TC       GONXTBNK
000476: 43,3662           63241        NXTSUPR           AD       SUPRCON                               #  SET BNK 30 + INCR SUPR BNK AND CANCEL
000477: 43,3663           27374                          ADS      SKEEP4                                #  ERC BIT OF THE 37 TO 40 ADVANCE.
000478: 43,3664           11377        GONXTBNK          CCS      SKEEP7
000479: 43,3665           03527                          TC       COMMFX
000480: 43,3666           35017                          CA       S+1
000481: 43,3667           03545                          TC       FXFX
000482: 43,3670           35011                          CA       SBIT7                                 #  HAS TO BE LARGER THAN NO OF FXSW BANKS.
000483: 43,3671           03527                          TC       COMMFX
000484:
000485: 43,3672           31374        SOPTION           CA       SKEEP4
000486: 43,3673           74364                          MASK     HI5                                   #  = BANK BITS
000487: 43,3674           04345                          TC       LEFT5
000488:                                                                                                 #  Page 1403
000489: 43,3675           54001                          TS       L                                     #  BANK NUMBER BEFORE SUPER BANK
000490: 43,3676           31374                          CA       SKEEP4
000491: 43,3677           74373                          MASK     S8BITS                                #  = SUPER BANK BITS
000492: 43,3700           00006                          EXTEND
000493: 43,3701           13707                          BZF      SOPT                                  #  BEFORE SUPER BANK
000494: 43,3702           54021                          TS       SR                                    #  SUPER BANK NECESSARY
000495: 43,3703           30001                          CA       L
000496: 43,3704           75023                          MASK     SEVEN
000497: 43,3705           60021                          AD       SR
000498: 43,3706           54001                          TS       L                                     #  BANK NUMBER WITH SUPER BANK
000499: 43,3707           31376        SOPT              CA       SKEEP6                                #  *
000500: 43,3710           00006                          EXTEND                                         #  *
000501: 43,3711           13713                          BZF      +2                                    #  * ON -0 CONTINUE WITH ROPE CHECK.
000502: 43,3712           02773                          TC       SDISPLAY                              #  * ON +1 GO TO DISPLAY OF SUM.
000503: 43,3713           11371                          CCS      SKEEP1                                #  FORCE SUM TO ABSOLUTE VALUE.
000504: 43,3714           03716                          TC       +2
000505: 43,3715           03717                          TC       +2
000506: 43,3716           65017                          AD       S+1
000507: 43,3717           55371                          TS       SKEEP1
000508: 43,3720           40001        BNKCHK            CS       L                                     #  = - BANK NUMBER
000509: 43,3721           61371                          AD       SKEEP1
000510: 43,3722           67716                          AD       S-1
000511: 43,3723           03275                          TC       -1CHK                                 #  CHECK SUM
000512: 43,3724           03635                          TC       NXTBNK
000513:
000514: 43,3725     0067                                 EBANK=   NEWJOB
000515: 43,3725           66100        LSTBNKCH          BBCON*                                         #  * CONSTANT, LAST BANK.
000516: 43,3726  30,2000                                 SBANK=   LOWSUPER
000517:
000518:

End of include-file AGC_BLOCK_TWO_SELF-CHECK.agc.  Parent file is MAIN.agc


