
Source Code


000002:                                                                                                  ## Copyright:    Public domain.
000003:                                                                                                  ## Filename:     ALARM_AND_ABORT.agc
000004:                                                                                                  ## Purpose:      Part of the source code for Comanche, build 055. It
000005:                                                                                                  ##               is part of the source code for the Command Module's
000006:                                                                                                  ##               (CM) Apollo Guidance Computer (AGC), Apollo 11.
000007:                                                                                                  ## Assembler:    yaYUL
000008:                                                                                                  ## Reference:    pp. 1493-1496
000009:                                                                                                  ## Contact:      Ron Burkey <info@sandroid.org>
000010:                                                                                                  ## Website:      http://www.ibiblio.org/apollo.
000011:                                                                                                  ## Mod history:  2009-05-07 RSB Adapted from Colossus249 file of the same
000012:                                                                                                  ##                              name, and page images. Corrected various
000013:                                                                                                  ##                              typos in the transcription of program
000014:                                                                                                  ##                              comments, and these should be back-ported
000015:                                                                                                  ##                              to Colossus249.
000016:                                                                                                  ##              2010-08-24 JL   Fixed page numbers and some indents.
000017:                                                                                                  ##              2016-12-22 RSB  Proofed comment text using octopus/ProoferComments
000018:                                                                                                  ##                              and corrected the errors found.
000019:                                                                                                  ##
000020:                                                                                                  ## The contents of the "Comanche055" files, in general, are transcribed
000021:                                                                                                  ## from scanned documents.
000022:                                                                                                  ##
000023:                                                                                                  ##       Assemble revision 055 of AGC program Comanche by NASA
000024:                                                                                                  ##       2021113-051.  April 1, 1969.
000025:                                                                                                  ##
000026:                                                                                                  ##       This AGC program shall also be referred to as Colossus 2A
000027:                                                                                                  ##
000028:                                                                                                  ##       Prepared by
000029:                                                                                                  ##                       Massachusetts Institute of Technology
000030:                                                                                                  ##                       75 Cambridge Parkway
000031:                                                                                                  ##                       Cambridge, Massachusetts
000032:                                                                                                  ##
000033:                                                                                                  ##       under NASA contract NAS 9-4065.
000034:                                                                                                  ##
000035:                                                                                                  ## Refer directly to the online document mentioned above for further
000036:                                                                                                  ## information.  Please report any errors to info@sandroid.org.
000037:


000039:                                                                                                  #  THE FOLLOWING SUBROUTINE MAY BE CALLED TO DISPLAY A NON-ABORTIVE ALARM CONDITION.  IT MAY BE CALLED
000040:                                                                                                  #  EITHER IN INTERRUPT OR UNDER EXECUTIVE CONTROL.
000041:
000042:                                                                                                  #  CALLING SEQUENCE IS AS FOLLOWS:
000043:                                                                                                  #                TC      ALARM
000044:                                                                                                  #                OCT     NNNNN
000045:                                                                                                  #                                        (RETURNS HERE)
000046:
000047:    5650                                           BLOCK    02
000048:    4000                                           SETLOC   FFTAG7
000049:    4000                                           BANK
000050:
000051:    5650     0375                                  EBANK=   FAILREG
000052:
000053:    5650                                           COUNT    02/ALARM
000054:
000055:                                                                                                  #  ALARM TURNS ON THE PROGRAM ALARM LIGHT, BUT DOES NOT DISPLAY.
000056:
000057:    5650           00004        ALARM              INHINT
000058:
000059:    5651           30002                           CA       Q
000060:    5652           55363        ALARM2             TS       ALMCADR
000061:    5653           50002                           INDEX    Q
000062:    5654           30000                           CA       0
000063:    5655           54001        BORTENT            TS       L
000064:
000065:    5656           30006        PRIOENT            CA       BBANK
000066:    5657           00006                 +1        EXTEND
000067:    5660           04007                           ROR      SUPERBNK                              #  ADD SUPER BITS.
000068:    5661           55364                           TS       ALMCADR    +1
000069:
000070:    5662           30002        LARMENT            CA       Q                                     #  STORE RETURN FOR ALARM
000071:    5663           54061                           TS       ITEMP1
000072:
000073:    5664           30164                           CA       LOC
000074:    5665           54057                           TS       LOCALARM
000075:    5666           30165                           CA       BANKSET
000076:    5667           54060                           TS       BANKALRM
000077:
000078:    5670           10375        CHKFAIL1           CCS      FAILREG                               #  IS ANYTHING IN FAILREG
000079:    5671           15674                           TCF      CHKFAIL2                              #  YES TRY NEXT REG
000080:    5672           22375                           LXCH     FAILREG
000081:    5673           15706                           TCF      PROGLARM                              #  TURN ALARM LIGHT ON FOR FIRST ALARM
000082:
000083:    5674           10376        CHKFAIL2           CCS      FAILREG    +1
000084:    5675           15700                           TCF      FAIL3
000085:    5676           22376                           LXCH     FAILREG    +1
000086:    5677           15711                           TCF      MULTEXIT
000087:
000088:    5700           30377        FAIL3              CA       FAILREG    +2


000090:    5701           74777                           MASK     POSMAX
000091:    5702           10000                           CCS      A
000092:    5703           15715                           TCF      MULTFAIL
000093:    5704           22377                           LXCH     FAILREG    +2
000094:    5705           15711                           TCF      MULTEXIT
000095:
000096:    5706           41036        PROGLARM           CS       DSPTAB     +11D
000097:    5707           77765                           MASK     OCT40400
000098:    5710           27036                           ADS      DSPTAB     +11D
000099:
000100:    5711           56061        MULTEXIT           XCH      ITEMP1                                #  OBTAIN RETURN ADDRESS IN A
000101:    5712           00003                           RELINT
000102:    5713           50000                           INDEX    A
000103:    5714           00001                           TC       1
000104:
000105:    5715           30001        MULTFAIL           CA       L
000106:    5716           65001                           AD       BIT15
000107:    5717           54377                           TS       FAILREG    +2
000108:
000109:    5720           15711                           TCF      MULTEXIT
000110:
000111:                                                                                                  #  PRIOLARM DISPLAYS V05N09 VIA PRIODSPR WITH 3 RETURNS TO THE USER FROM THE ASTRONAUT AT CALL LOC +1,+2,+3 AND
000112:                                                                                                  #  AN IMMEDIATE RETURN TO THE USER AT CALL LOC +4.  EXAMPLE FOLLOWS,
000113:                                                                                                  #                CAF     OCTXX           ALARM CODE
000114:                                                                                                  #                TC      BANKCALL
000115:                                                                                                  #                CADR    PRIOLARM
000116:
000117:                                                                                                  #                ...     ...
000118:                                                                                                  #                ...     ...
000119:                                                                                                  #                ...     ...             ASTRONAUT RETURN
000120:                                                                                                  #                TC      PHASCHNG        IMMEDIATE RETURN TO USER.  RESTART
000121:                                                                                                  #                OCT     X.1             PHASE CHANGE FOR PRIO DISPLAY
000122:
000123: 10,3766                                           BANK     10
000124: 10,2000                                           SETLOC   DISPLAYS
000125: 10,2000                                           BANK
000126:
000127: 10,3766                                           COUNT    10/DSPLA
000128: 10,3766           00004        PRIOLARM           INHINT                                         #  * * * KEEP IN DISPLAY ROUTINES BANK
000129: 10,3767           54001                           TS       L                                     #  SAVE ALARM CODE
000130:
000131: 10,3770           30133                           CA       BUF2                                  #  2 CADR OF PRIOLARM USER
000132: 10,3771           55363                           TS       ALMCADR
000133: 10,3772           30134                           CA       BUF2       +1
000134: 10,3773           05657                           TC       PRIOENT    +1                         #  * LEAVE L ALONE
000135: 10,3774           77467        -2SEC              DEC      -200       B-14                       #  *** DONT MOVE
000136: 10,3775           35050                           CAF      V05N09
000137: 10,3776           12726                           TCF      PRIODSPR
000138:


000140:
000141:    5721                                           BLOCK    02
000142:    6000                                           SETLOC   FFTAG13
000143:    6000                                           BANK
000144:
000145:    7755                                           COUNT    02/ALARM
000146:
000147:    7755           00004        BAILOUT            INHINT
000148:    7756           30002                           CA       Q
000149:    7757           55363                           TS       ALMCADR
000150:
000151:    7760           04662                           TC       BANKCALL
000152:    7761           40000                           CADR     VAC5STOR
000153:
000154:    7762           51363                           INDEX    ALMCADR
000155:    7763           30000                           CAF      0
000156:    7764           05655                           TC       BORTENT
000157:    7765           40400        OCT40400           OCT      40400
000158:
000159:    7766           00004                           INHINT
000160:    7767           35016        WHIMPER            CA       TWO
000161:    7770           60005                           AD       Z
000162:    7771           54017                           TS       BRUPT
000163:    7772           50017                           RESUME
000164:    7773           04701                           TC       POSTJUMP                              #  RESUME SENDS CONTROL HERE
000165:    7774           12651                           CADR     ENEMA
000166:
000167:    4000                                           SETLOC   FFTAG7
000168:    4000                                           BANK
000169:
000170:    5721           00004        POODOO             INHINT
000171:    5722           30002                           CA       Q
000172:    5723           55363                           TS       ALMCADR
000173:
000174:    5724           04662                           TC       BANKCALL
000175:    5725           40000                           CADR     VAC5STOR                              #  STORE ERASABLES FOR DEBUGGING PURPOSES.
000176:
000177:    5726           51363                           INDEX    ALMCADR
000178:    5727           30000                           CAF      0
000179:    5730           05655        ABORT2             TC       BORTENT
000180:    5731           77770        OCT77770           OCT      77770                                 #  DONT MOVE
000181:    5732           35012                           CA       V37FLBIT                              #  IS AVERAGE G ON
000182:    5733           70103                           MASK     FLAGWRD7
000183:    5734           10000                           CCS      A
000184:    5735           07766                           TC       WHIMPER    -1                         #  YES.  DONT DO POODOO.  DO BAILOUT.
000185:
000186:    5736           05560                           TC       DOWNFLAG
000187:    5737           00067                           ADRES    STATEFLG
000188:
000189:    5740           05560                           TC       DOWNFLAG
000190:


000192:    5741           00236                           ADRES    REINTFLG
000193:
000194:    5742           05560                           TC       DOWNFLAG
000195:    5743           00054                           ADRES    NODOFLAG
000196:
000197:    5744           04662                           TC       BANKCALL
000198:    5745           12501                           CADR     MR.KLEAN
000199:    5746           07767                           TC       WHIMPER
000200:
000201:    5747           00004        CCSHOLE            INHINT
000202:    5750           30002                           CA       Q
000203:    5751           55363                           TS       ALMCADR
000204:    5752           04662                           TC       BANKCALL
000205:    5753           40000                           CADR     VAC5STOR
000206:    5754           35756                           CA       OCT1103
000207:    5755           05730                           TC       ABORT2
000208:    5756           01103        OCT1103            OCT      1103
000209:    5757           00004        CURTAINS           INHINT
000210:    5760           30002                           CA       Q
000211:    5761           05652                           TC       ALARM2
000212:    5762           00217        OCT217             OCT      00217
000213:    5763           01363                           TC       ALMCADR                               #  RETURN TO USER
000214:
000215:    5764     5217               DOALARM            EQUALS   ENDOFJOB
000216:
000217:                                                                                                  #  CALLING SEQUENCE FOR VARALARM
000218:
000219:                                                                                                  #                CAF     (ALARM)
000220:                                                                                                  #                TC      VARALARM
000221:
000222:                                                                                                  #  VARALARM TURNS ON PROGRAM ALARM LIGHT BUT DOES NOT DISPLAY
000223:
000224:    5764           00004        VARALARM           INHINT
000225:
000226:    5765           54001                           TS       L                                     #  SAVE USERS ALARM CODE
000227:
000228:    5766           30002                           CA       Q                                     #  SAVE USERS Q
000229:    5767           55363                           TS       ALMCADR
000230:
000231:    5770           05656                           TC       PRIOENT
000232:    5771           00014        OCT14              OCT      14                                    #  DONT MOVE
000233:
000234:    5772           01363                           TC       ALMCADR                               #  RETURN TO USER
000235:
000236:    5773     7755               ABORT              EQUALS   BAILOUT                               #  *** TEMPORARY UNTIL ABORT CALLS OUT

End of include-file ALARM_AND_ABORT.agc.  Parent file is MAIN.agc


