
Source Code
000001:                                                                                                 #  Copyright:    Public domain.
000002:                                                                                                 #  Filename:     ALARM_AND_ABORT.agc
000003:                                                                                                 #  Purpose:      Part of the source code for Comanche, build 055. It
000004:                                                                                                 #                is part of the source code for the Command Module's
000005:                                                                                                 #                (CM) Apollo Guidance Computer (AGC), Apollo 11.
000006:                                                                                                 #  Assembler:    yaYUL
000007:                                                                                                 #  Reference:    pp. 1493-1496
000008:                                                                                                 #  Contact:      Ron Burkey <info@sandroid.org>
000009:                                                                                                 #  Website:      http://www.ibiblio.org/apollo.
000010:                                                                                                 #  Mod history:  2009-05-07 RSB   Adapted from Colossus249 file of the same
000011:                                                                                                 #                                 name, and page images. Corrected various
000012:                                                                                                 #                                 typos in the transcription of program
000013:                                                                                                 #                                 comments, and these should be back-ported
000014:                                                                                                 #                                 to Colossus249.
000015:
000016:                                                                                                 #  The contents of the "Comanche055" files, in general, are transcribed
000017:                                                                                                 #  from scanned documents.
000018:
000019:                                                                                                 #        Assemble revision 055 of AGC program Comanche by NASA
000020:                                                                                                 #        2021113-051.  April 1, 1969.
000021:
000022:                                                                                                 #        This AGC program shall also be referred to as Colossus 2A
000023:
000024:                                                                                                 #        Prepared by
000025:                                                                                                 #                        Massachussets Institute of Technology
000026:                                                                                                 #                        75 Cambridge Parkway
000027:                                                                                                 #                        Cambridge, Massachusetts
000028:
000029:                                                                                                 #        under NASA contract NAS 9-4065.
000030:
000031:                                                                                                 #  Refer directly to the online document mentioned above for further
000032:                                                                                                 #  information.  Please report any errors to info@sandroid.org.
000033:
000034:                                                                                                 #  Page 1483
000035:                                                                                                 #  THE FOLLOWING SUBROUTINE MAY BE CALLED TO DISPLAY A NON-ABORTIVE ALARM CONDITION.  IT MAY BE CALLED
000036:                                                                                                 #  EITHER IN INTERRUPT OR UNDER EXECUTIVE CONTROL.
000037:
000038:                                                                                                 #  THE CALLING SEQUENCE IS AS FOLLOWS:
000039:                                                                                                 #                 TC      ALARM
000040:                                                                                                 #                 OCT     NNNNN
000041:                                                                                                 #                                         # (RETURNS HERE)
000042:
000043:    5650                                          BLOCK    02
000044:    4000                                          SETLOC   FFTAG7
000045:    4000                                          BANK
000046:
000047:    5650     0375                                 EBANK=   FAILREG
000048:
000049:    5650                                          COUNT    02/ALARM
000050:
000051:                                                                                                 #  ALARM TURNS ON THE PROGRAM ALARM LIGHT, BUT DOES NOT DISPLAY.
000052:
000053:    5650           00004        ALARM             INHINT
000054:
000055:    5651           30002                          CA       Q
000056:    5652           55363        ALARM2            TS       ALMCADR
000057:    5653           50002                          INDEX    Q
000058:    5654           30000                          CA       0
000059:    5655           54001        BORTENT           TS       L
000060:
000061:    5656           30006        PRIOENT           CA       BBANK
000062:    5657           00006                 +1       EXTEND
000063:    5660           04007                          ROR      SUPERBNK                              #  ADD SUPER BITS.
000064:    5661           55364                          TS       ALMCADR    +1
000065:
000066:    5662           30002        LARMENT           CA       Q                                     #  STORE RETURN FOR ALARM
000067:    5663           54061                          TS       ITEMP1
000068:
000069:    5664           30164                          CA       LOC
000070:    5665           54057                          TS       LOCALARM
000071:    5666           30165                          CA       BANKSET
000072:    5667           54060                          TS       BANKALRM
000073:
000074:    5670           10375        CHKFAIL1          CCS      FAILREG                               #  IS ANYTHING IN FAILREG
000075:    5671           15674                          TCF      CHKFAIL2                              #  YES TRY NEXT REG
000076:    5672           22375                          LXCH     FAILREG
000077:    5673           15706                          TCF      PROGLARM                              #  TURN ALARM LIGHT ON FOR FIRST ALARM
000078:
000079:    5674           10376        CHKFAIL2          CCS      FAILREG    +1
000080:    5675           15700                          TCF      FAIL3
000081:    5676           22376                          LXCH     FAILREG    +1
000082:    5677           15711                          TCF      MULTEXIT
000083:
000084:    5700           30377        FAIL3             CA       FAILREG    +2
000085:                                                                                                 #  Page 1494
000086:    5701           74777                          MASK     POSMAX
000087:    5702           10000                          CCS      A
000088:    5703           15715                          TCF      MULTFAIL
000089:    5704           22377                          LXCH     FAILREG    +2
000090:    5705           15711                          TCF      MULTEXIT
000091:
000092:    5706           41036        PROGLARM          CS       DSPTAB     +11D
000093:    5707           77765                          MASK     OCT40400
000094:    5710           27036                          ADS      DSPTAB     +11D
000095:
000096:    5711           56061        MULTEXIT          XCH      ITEMP1                                #  OBTAIN RETURN ADDRESS IN A
000097:    5712           00003                          RELINT
000098:    5713           50000                          INDEX    A
000099:    5714           00001                          TC       1
000100:
000101:    5715           30001        MULTFAIL          CA       L
000102:    5716           65001                          AD       BIT15
000103:    5717           54377                          TS       FAILREG    +2
000104:
000105:    5720           15711                          TCF      MULTEXIT
000106:
000107:                                                                                                 #  PRIOLARM DISPLAYS V05N09 VIA PRIODSPR WITH 3 RETURNS TO THE USER FROM THE ASTRONAUT AT CALL LOC +1,+2,+3 AND
000108:                                                                                                 #  AN IMMEDIATE RETURN TO THE USER AT CALL LOC +4.  EXAMPLE FOLLOWS,
000109:                                                                                                 #                 CAF     OCTXX           # ALARM CODE
000110:                                                                                                 #                 TC      BANKCALL
000111:                                                                                                 #                 CADR    PRIOLARM
000112:                                                                                                 #                 ...     ...
000113:                                                                                                 #                 ...     ...
000114:                                                                                                 #                 ...     ...             # ASTRONAUT RETURN
000115:                                                                                                 #                 TC      PHASCHNG        # IMMEDIATE RETURN TO USER.  RESTART
000116:                                                                                                 #                 OCT     X.1             # PHASE CHANGE FOR PRIO DISPLAY
000117:
000118: 10,3766                                          BANK     10
000119: 10,2000                                          SETLOC   DISPLAYS
000120: 10,2000                                          BANK
000121:
000122: 10,3766                                          COUNT    10/DSPLA
000123: 10,3766           00004        PRIOLARM          INHINT                                         #  * * * KEEP IN DISPLAY ROUTINE'S BANK
000124: 10,3767           54001                          TS       L                                     #  SAVE ALARM CODE
000125:
000126: 10,3770           30133                          CA       BUF2                                  #  2 CADR OF PRIOLARM USER
000127: 10,3771           55363                          TS       ALMCADR
000128: 10,3772           30134                          CA       BUF2       +1
000129: 10,3773           05657                          TC       PRIOENT    +1                         #  * LEAVE L ALONE
000130: 10,3774           77467        -2SEC             DEC      -200       B-14                       #  *** DON'T MOVE
000131: 10,3775           35050                          CAF      V05N09
000132: 10,3776           12726                          TCF      PRIODSPR
000133:
000134:                                                                                                 #  Page 1495
000135:
000136:    5721                                          BLOCK    02
000137:    6000                                          SETLOC   FFTAG13
000138:    6000                                          BANK
000139:
000140:    7755                                          COUNT    02/ALARM
000141:
000142:    7755           00004        BAILOUT           INHINT
000143:    7756           30002                          CA       Q
000144:    7757           55363                          TS       ALMCADR
000145:
000146:    7760           04662                          TC       BANKCALL
000147:    7761           40000                          CADR     VAC5STOR
000148:
000149:    7762           51363                          INDEX    ALMCADR
000150:    7763           30000                          CAF      0
000151:    7764           05655                          TC       BORTENT
000152:    7765           40400        OCT40400          OCT      40400
000153:
000154:    7766           00004                          INHINT
000155:    7767           35016        WHIMPER           CA       TWO
000156:    7770           60005                          AD       Z
000157:    7771           54017                          TS       BRUPT
000158:    7772           50017                          RESUME
000159:    7773           04701                          TC       POSTJUMP                              #  RESUME SENDS CONTROL HERE
000160:    7774           12651                          CADR     ENEMA
000161:
000162:    4000                                          SETLOC   FFTAG7
000163:    4000                                          BANK
000164:
000165:    5721           00004        P00DOO            INHINT
000166:    5722           30002                          CA       Q
000167:    5723           55363                          TS       ALMCADR
000168:
000169:    5724           04662                          TC       BANKCALL
000170:    5725           40000                          CADR     VAC5STOR                              #  STORE ERASABLES FOR DEBUGGING PURPOSES.
000171:
000172:    5726           51363                          INDEX    ALMCADR
000173:    5727           30000                          CAF      0
000174:    5730           05655        ABORT2            TC       BORTENT
000175:    5731           77770        OCT77770          OCT      77770                                 #  DON'T MOVE
000176:    5732           35012                          CA       V37FLBIT                              #  IS AVERAGE G ON
000177:    5733           70103                          MASK     FLAGWRD7
000178:    5734           10000                          CCS      A
000179:    5735           07766                          TC       WHIMPER    -1                         #  YES.  DON'T DO POODOO.  DO BAILOUT.
000180:
000181:    5736           05560                          TC       DOWNFLAG
000182:    5737           00067                          ADRES    STATEFLG
000183:
000184:    5740           05560                          TC       DOWNFLAG
000185:
000186:                                                                                                 #  Page 1496
000187:    5741           00236                          ADRES    REINTFLG
000188:
000189:    5742           05560                          TC       DOWNFLAG
000190:    5743           00054                          ADRES    NODOFLAG
000191:
000192:    5744           04662                          TC       BANKCALL
000193:    5745           12501                          CADR     MR.KLEAN
000194:    5746           07767                          TC       WHIMPER
000195:
000196:    5747           00004        CCSHOLE           INHINT
000197:    5750           30002                          CA       Q
000198:    5751           55363                          TS       ALMCADR
000199:    5752           04662                          TC       BANKCALL
000200:    5753           40000                          CADR     VAC5STOR
000201:    5754           35756                          CA       OCT1103
000202:    5755           05730                          TC       ABORT2
000203:    5756           01103        OCT1103           OCT      1103
000204:    5757           00004        CURTAINS          INHINT
000205:    5760           30002                          CA       Q
000206:    5761           05652                          TC       ALARM2
000207:    5762           00217        OCT217            OCT      00217
000208:    5763           01363                          TC       ALMCADR                               #  RETURN TO USER
000209:
000210:    5764     5217               DOALARM           EQUALS   ENDOFJOB
000211:
000212:                                                                                                 #  CALLING SEQUENCE FOR VARALARM
000213:                                                                                                 #                 CAF     (ALARM)
000214:                                                                                                 #                 TC      VARALARM
000215:                                                                                                 #  Page 1486
000216:
000217:                                                                                                 #  VARALARM TURNS ON PROGRAM ALARM LIGHT BUT DOES NOT DISPLAY
000218:
000219:    5764           00004        VARALARM          INHINT
000220:
000221:    5765           54001                          TS       L                                     #  SAVE USER'S ALARM CODE
000222:
000223:    5766           30002                          CA       Q                                     #  SAVE USER'S Q
000224:    5767           55363                          TS       ALMCADR
000225:
000226:    5770           05656                          TC       PRIOENT
000227:    5771           00014        OCT14             OCT      14                                    #  DON'T MOVE
000228:
000229:    5772           01363                          TC       ALMCADR                               #  RETURN TO USER
000230:
000231:    5773     7755               ABORT             EQUALS   BAILOUT                               #  *** TEMPORARY UNTIL ABORT CALLS OUT

End of include-file ALARM_AND_ABORT.agc.  Parent file is MAIN.agc


