
Source Code


000002:                                                                                                  ## Copyright:    Public domain.
000003:                                                                                                  ## Filename:     ALARM_AND_ABORT.agc
000004:                                                                                                  ## Purpose:      Part of the source code for Comanche, build 055. It
000005:                                                                                                  ##               is part of the source code for the Command Module's
000006:                                                                                                  ##               (CM) Apollo Guidance Computer (AGC), Apollo 11.
000007:                                                                                                  ## Assembler:    yaYUL
000008:                                                                                                  ## Reference:    pp. 1493-1496
000009:                                                                                                  ## Contact:      Ron Burkey <info@sandroid.org>
000010:                                                                                                  ## Website:      http://www.ibiblio.org/apollo.
000011:                                                                                                  ## Mod history:  2009-05-07 RSB Adapted from Colossus249 file of the same
000012:                                                                                                  ##                              name, and page images. Corrected various
000013:                                                                                                  ##                              typos in the transcription of program
000014:                                                                                                  ##                              comments, and these should be back-ported
000015:                                                                                                  ##                              to Colossus249.
000016:                                                                                                  ##              2010-08-24 JL   Fixed page numbers and some indents.
000017:                                                                                                  ##
000018:                                                                                                  ## The contents of the "Comanche055" files, in general, are transcribed
000019:                                                                                                  ## from scanned documents.
000020:                                                                                                  ##
000021:                                                                                                  ##       Assemble revision 055 of AGC program Comanche by NASA
000022:                                                                                                  ##       2021113-051.  April 1, 1969.
000023:                                                                                                  ##
000024:                                                                                                  ##       This AGC program shall also be referred to as Colossus 2A
000025:                                                                                                  ##
000026:                                                                                                  ##       Prepared by
000027:                                                                                                  ##                       Massachusetts Institute of Technology
000028:                                                                                                  ##                       75 Cambridge Parkway
000029:                                                                                                  ##                       Cambridge, Massachusetts
000030:                                                                                                  ##
000031:                                                                                                  ##       under NASA contract NAS 9-4065.
000032:                                                                                                  ##
000033:                                                                                                  ## Refer directly to the online document mentioned above for further
000034:                                                                                                  ## information.  Please report any errors to info@sandroid.org.
000035:


000037:                                                                                                  #  THE FOLLOWING SUBROUTINE MAY BE CALLED TO DISPLAY A NON-ABORTIVE ALARM CONDITION.  IT MAY BE CALLED
000038:                                                                                                  #  EITHER IN INTERRUPT OR UNDER EXECUTIVE CONTROL.
000039:
000040:                                                                                                  #  THE CALLING SEQUENCE IS AS FOLLOWS:
000041:                                                                                                  #                TC      ALARM
000042:                                                                                                  #                OCT     NNNNN
000043:                                                                                                  #                                        # (RETURNS HERE)
000044:
000045:    5650                                           BLOCK    02
000046:    4000                                           SETLOC   FFTAG7
000047:    4000                                           BANK
000048:
000049:    5650     0375                                  EBANK=   FAILREG
000050:
000051:    5650                                           COUNT    02/ALARM
000052:
000053:                                                                                                  #  ALARM TURNS ON THE PROGRAM ALARM LIGHT, BUT DOES NOT DISPLAY.
000054:
000055:    5650           00004        ALARM              INHINT
000056:
000057:    5651           30002                           CA       Q
000058:    5652           55363        ALARM2             TS       ALMCADR
000059:    5653           50002                           INDEX    Q
000060:    5654           30000                           CA       0
000061:    5655           54001        BORTENT            TS       L
000062:
000063:    5656           30006        PRIOENT            CA       BBANK
000064:    5657           00006                 +1        EXTEND
000065:    5660           04007                           ROR      SUPERBNK                              #  ADD SUPER BITS.
000066:    5661           55364                           TS       ALMCADR    +1
000067:
000068:    5662           30002        LARMENT            CA       Q                                     #  STORE RETURN FOR ALARM
000069:    5663           54061                           TS       ITEMP1
000070:
000071:    5664           30164                           CA       LOC
000072:    5665           54057                           TS       LOCALARM
000073:    5666           30165                           CA       BANKSET
000074:    5667           54060                           TS       BANKALRM
000075:
000076:    5670           10375        CHKFAIL1           CCS      FAILREG                               #  IS ANYTHING IN FAILREG
000077:    5671           15674                           TCF      CHKFAIL2                              #  YES TRY NEXT REG
000078:    5672           22375                           LXCH     FAILREG
000079:    5673           15706                           TCF      PROGLARM                              #  TURN ALARM LIGHT ON FOR FIRST ALARM
000080:
000081:    5674           10376        CHKFAIL2           CCS      FAILREG    +1
000082:    5675           15700                           TCF      FAIL3
000083:    5676           22376                           LXCH     FAILREG    +1
000084:    5677           15711                           TCF      MULTEXIT
000085:
000086:    5700           30377        FAIL3              CA       FAILREG    +2


000088:    5701           74777                           MASK     POSMAX
000089:    5702           10000                           CCS      A
000090:    5703           15715                           TCF      MULTFAIL
000091:    5704           22377                           LXCH     FAILREG    +2
000092:    5705           15711                           TCF      MULTEXIT
000093:
000094:    5706           41036        PROGLARM           CS       DSPTAB     +11D
000095:    5707           77765                           MASK     OCT40400
000096:    5710           27036                           ADS      DSPTAB     +11D
000097:
000098:    5711           56061        MULTEXIT           XCH      ITEMP1                                #  OBTAIN RETURN ADDRESS IN A
000099:    5712           00003                           RELINT
000100:    5713           50000                           INDEX    A
000101:    5714           00001                           TC       1
000102:
000103:    5715           30001        MULTFAIL           CA       L
000104:    5716           65001                           AD       BIT15
000105:    5717           54377                           TS       FAILREG    +2
000106:
000107:    5720           15711                           TCF      MULTEXIT
000108:
000109:                                                                                                  #  PRIOLARM DISPLAYS V05N09 VIA PRIODSPR WITH 3 RETURNS TO THE USER FROM THE ASTRONAUT AT CALL LOC +1,+2,+3 AND
000110:                                                                                                  #  AN IMMEDIATE RETURN TO THE USER AT CALL LOC +4.  EXAMPLE FOLLOWS,
000111:                                                                                                  #                CAF     OCTXX           # ALARM CODE
000112:                                                                                                  #                TC      BANKCALL
000113:                                                                                                  #                CADR    PRIOLARM
000114:                                                                                                  #                ...     ...
000115:                                                                                                  #                ...     ...
000116:                                                                                                  #                ...     ...             # ASTRONAUT RETURN
000117:                                                                                                  #                TC      PHASCHNG        # IMMEDIATE RETURN TO USER.  RESTART
000118:                                                                                                  #                OCT     X.1             # PHASE CHANGE FOR PRIO DISPLAY
000119:
000120: 10,3766                                           BANK     10
000121: 10,2000                                           SETLOC   DISPLAYS
000122: 10,2000                                           BANK
000123:
000124: 10,3766                                           COUNT    10/DSPLA
000125: 10,3766           00004        PRIOLARM           INHINT                                         #  * * * KEEP IN DISPLAY ROUTINE'S BANK
000126: 10,3767           54001                           TS       L                                     #  SAVE ALARM CODE
000127:
000128: 10,3770           30133                           CA       BUF2                                  #  2 CADR OF PRIOLARM USER
000129: 10,3771           55363                           TS       ALMCADR
000130: 10,3772           30134                           CA       BUF2       +1
000131: 10,3773           05657                           TC       PRIOENT    +1                         #  * LEAVE L ALONE
000132: 10,3774           77467        -2SEC              DEC      -200       B-14                       #  *** DON'T MOVE
000133: 10,3775           35050                           CAF      V05N09
000134: 10,3776           12726                           TCF      PRIODSPR
000135:


000137:
000138:    5721                                           BLOCK    02
000139:    6000                                           SETLOC   FFTAG13
000140:    6000                                           BANK
000141:
000142:    7755                                           COUNT    02/ALARM
000143:
000144:    7755           00004        BAILOUT            INHINT
000145:    7756           30002                           CA       Q
000146:    7757           55363                           TS       ALMCADR
000147:
000148:    7760           04662                           TC       BANKCALL
000149:    7761           40000                           CADR     VAC5STOR
000150:
000151:    7762           51363                           INDEX    ALMCADR
000152:    7763           30000                           CAF      0
000153:    7764           05655                           TC       BORTENT
000154:    7765           40400        OCT40400           OCT      40400
000155:
000156:    7766           00004                           INHINT
000157:    7767           35016        WHIMPER            CA       TWO
000158:    7770           60005                           AD       Z
000159:    7771           54017                           TS       BRUPT
000160:    7772           50017                           RESUME
000161:    7773           04701                           TC       POSTJUMP                              #  RESUME SENDS CONTROL HERE
000162:    7774           12651                           CADR     ENEMA
000163:
000164:    4000                                           SETLOC   FFTAG7
000165:    4000                                           BANK
000166:
000167:    5721           00004        P00DOO             INHINT
000168:    5722           30002                           CA       Q
000169:    5723           55363                           TS       ALMCADR
000170:
000171:    5724           04662                           TC       BANKCALL
000172:    5725           40000                           CADR     VAC5STOR                              #  STORE ERASABLES FOR DEBUGGING PURPOSES.
000173:
000174:    5726           51363                           INDEX    ALMCADR
000175:    5727           30000                           CAF      0
000176:    5730           05655        ABORT2             TC       BORTENT
000177:    5731           77770        OCT77770           OCT      77770                                 #  DON'T MOVE
000178:    5732           35012                           CA       V37FLBIT                              #  IS AVERAGE G ON
000179:    5733           70103                           MASK     FLAGWRD7
000180:    5734           10000                           CCS      A
000181:    5735           07766                           TC       WHIMPER    -1                         #  YES.  DON'T DO POODOO.  DO BAILOUT.
000182:
000183:    5736           05560                           TC       DOWNFLAG
000184:    5737           00067                           ADRES    STATEFLG
000185:
000186:    5740           05560                           TC       DOWNFLAG
000187:


000189:    5741           00236                           ADRES    REINTFLG
000190:
000191:    5742           05560                           TC       DOWNFLAG
000192:    5743           00054                           ADRES    NODOFLAG
000193:
000194:    5744           04662                           TC       BANKCALL
000195:    5745           12501                           CADR     MR.KLEAN
000196:    5746           07767                           TC       WHIMPER
000197:
000198:    5747           00004        CCSHOLE            INHINT
000199:    5750           30002                           CA       Q
000200:    5751           55363                           TS       ALMCADR
000201:    5752           04662                           TC       BANKCALL
000202:    5753           40000                           CADR     VAC5STOR
000203:    5754           35756                           CA       OCT1103
000204:    5755           05730                           TC       ABORT2
000205:    5756           01103        OCT1103            OCT      1103
000206:    5757           00004        CURTAINS           INHINT
000207:    5760           30002                           CA       Q
000208:    5761           05652                           TC       ALARM2
000209:    5762           00217        OCT217             OCT      00217
000210:    5763           01363                           TC       ALMCADR                               #  RETURN TO USER
000211:
000212:    5764     5217               DOALARM            EQUALS   ENDOFJOB
000213:
000214:                                                                                                  #  CALLING SEQUENCE FOR VARALARM
000215:
000216:                                                                                                  #                CAF     (ALARM)
000217:                                                                                                  #                TC      VARALARM
000218:
000219:                                                                                                  #  VARALARM TURNS ON PROGRAM ALARM LIGHT BUT DOES NOT DISPLAY
000220:
000221:    5764           00004        VARALARM           INHINT
000222:
000223:    5765           54001                           TS       L                                     #  SAVE USER'S ALARM CODE
000224:
000225:    5766           30002                           CA       Q                                     #  SAVE USER'S Q
000226:    5767           55363                           TS       ALMCADR
000227:
000228:    5770           05656                           TC       PRIOENT
000229:    5771           00014        OCT14              OCT      14                                    #  DON'T MOVE
000230:
000231:    5772           01363                           TC       ALMCADR                               #  RETURN TO USER
000232:
000233:    5773     7755               ABORT              EQUALS   BAILOUT                               #  *** TEMPORARY UNTIL ABORT CALLS OUT

End of include-file ALARM_AND_ABORT.agc.  Parent file is MAIN.agc


