
Source Code


000002:                                                                                                  #  Copyright:    Public domain.
000003:                                                                                                  #  Filename:     AUTOMATIC_MANEUVERS.agc
000004:                                                                                                  #  Purpose:      Part of the source code for Colossus 2A, AKA Comanche 055.
000005:                                                                                                  #                It is part of the source code for the Command Module's (CM)
000006:                                                                                                  #                Apollo Guidance Computer (AGC), for Apollo 11.
000007:                                                                                                  #  Assembler:    yaYUL
000008:                                                                                                  #  Contact:      Ron Burkey <info@sandroid.org>.
000009:                                                                                                  #  Website:      www.ibiblio.org/apollo.
000010:                                                                                                  #  Pages:        1025-1036
000011:                                                                                                  #  Mod history:  2009-05-13 RSB  Adapted from the Colossus249/ file of the
000012:                                                                                                  #                                same name, using Comanche055 page images.
000013:
000014:                                                                                                  #  This source code has been transcribed or otherwise adapted from digitized
000015:                                                                                                  #  images of a hardcopy from the MIT Museum.  The digitization was performed
000016:                                                                                                  #  by Paul Fjeld, and arranged for by Deborah Douglas of the Museum.  Many
000017:                                                                                                  #  thanks to both.  The images (with suitable reduction in storage size and
000018:                                                                                                  #  consequent reduction in image quality as well) are available online at
000019:                                                                                                  #  www.ibiblio.org/apollo.  If for some reason you find that the images are
000020:                                                                                                  #  illegible, contact me at info@sandroid.org about getting access to the
000021:                                                                                                  #  (much) higher-quality images which Paul actually created.
000022:
000023:                                                                                                  #  Notations on the hardcopy document read, in part:
000024:
000025:                                                                                                  #        Assemble revision 055 of AGC program Comanche by NASA
000026:                                                                                                  #        2021113-051.  10:28 APR. 1, 1969
000027:
000028:                                                                                                  #        This AGC program shall also be referred to as
000029:                                                                                                  #                        Colossus 2A
000030:


000032: 21,3250                                           BANK     21
000033: 21,2000                                           SETLOC   DAPS3
000034: 21,2000                                           BANK
000035:
000036: 21,3250                                           COUNT    21/DAPAM
000037:
000038: 21,3250  E6,1510                                  EBANK=   KMPAC
000039: 21,3250           00006        AHFNOROT           EXTEND
000040: 21,3251           00031                           READ     CHAN31
000041: 21,3252           75002                           MASK     BIT14
000042: 21,3253           00006                           EXTEND
000043: 21,3254           63272                           BZMF     FREECONT
000044: 21,3255           31501                           CA       RCSFLAGS                              #  SEE IF RATE FILTER HAS BEEN INITIALIZED
000045: 21,3256           75002                           MASK     BIT14
000046: 21,3257           10000                           CCS      A                                     #  IF SO, PROCEED WITH ATTITUDE CONTROL
000047: 21,3260           12534                           TCF      REINIT                                #  IF NOT, RECYCLE TO INITIALIZE FILTER
000048:                                                                                                  #  AUTOMATIC CONTROL YET
000049: 21,3261           00006                           EXTEND
000050: 21,3262           00031                           READ     CHAN31
000051: 21,3263           75003                           MASK     BIT13
000052: 21,3264           00006                           EXTEND
000053: 21,3265           63372                           BZMF     HOLDFUNC
000054:
000055: 21,3266           31332        AUTOCONT           CA       HOLDFLAG                              #  IF HOLDFLAG IS +, GO TO GRABANG.
000056: 21,3267           00006                           EXTEND                                         #  OTHERWISE, GO TO ATTHOLD.
000057: 21,3270           63322                           BZMF     ATTHOLD
000058: 21,3271           13376                           TCF      GRABANG
000059:
000060:                                                                                                  #  MINIMUM IMPULSE CONTROL
000061:
000062: 21,3272           35017        FREECONT           CAF      ONE
000063: 21,3273           55332                           TS       HOLDFLAG                              #  RESET HOLDFLAG
000064:                                                                                                  #  INHIBIT AUTOMATIC STEERING
000065: 21,3274           00006                           EXTEND
000066: 21,3275           00032                           READ     CHAN32
000067: 21,3276           54001                           TS       L
000068: 21,3277           40000                           COM
000069: 21,3300           73036                           MASK     MANROT
000070: 21,3301           71633                           MASK     CHANTEMP
000071: 21,3302           23633                           LXCH     CHANTEMP
000072: 21,3303           03130                           TC       STICKCHK
000073: 21,3304           51656                           INDEX    RMANNDX
000074: 21,3305           33316                           CA       MINTAU                                #  MINTAU        +0
000075: 21,3306           55561                           TS       TAU                                   #                +1      +14MS MINIMUM IMPULSE
000076: 21,3307           51657                           INDEX    PMANNDX                               #                +2      -14MS TIME
000077: 21,3310           33316                           CA       MINTAU                                #                +3      +0
000078: 21,3311           55562                           TS       TAU1
000079: 21,3312           51660                           INDEX    YMANNDX
000080: 21,3313           33316                           CA       MINTAU


000082: 21,3314           55563                           TS       TAU2
000083: 21,3315           13067                           TCF      T6PROGM
000084:
000085: 21,3316           00000        MINTAU             DEC      0          B-14
000086: 21,3317           00027                           DEC      23         B-14                       #  = 14MS
000087: 21,3320           77750                           DEC      -23        B-14                       #  = -14MS
000088: 21,3321           00000                           DEC      0          B-14
000089:


000091:                                                                                                  #  CALCULATION OF ATTITUDE ERRORS:
000092:                                                                                                  #        _    *     _      _          _
000093:                                                                                                  #        AK = AMGB (CDUX - THETADX) + BIAS
000094:
000095:                                                                                                  #  I.E., *AK *   * 1        SIN(PSI)        0    ** CDUX - THETADX *    *BIAS *
000096:                                                                                                  #        *   *   *                               **                *    *     *
000097:                                                                                                  #        *AK1* = * 0   COS(PSI)COS(PHI)  SIN(PHI)** CDUY - THETADY *  + *BIAS1*
000098:                                                                                                  #        *   *   *                               **                *    *     *
000099:                                                                                                  #        *AK2*   * 0  -COS(PSI)SIN(PHI)  COS(PHI)** CDUZ - THETADZ *    *BIAS2*
000100:
000101:                                                                                                  #  THE BIASES ARE ADDED ONLY WHILE PERFORMING AUTOMATIC MANEUVERS (ESP KALCMANU) TO PROVIDE ADDITIONAL LEAD
000102:                                                                                                  #  AND PREVENT OVERSHOOT WHEN STARTING AN AUTOMATIC MANEUVER.  NORMALLY THE REQUIRED LEAD IS ONLY 1-2 DEGREES.
000103:                                                                                                  #  BUT DURING HIGH RATE MANEUVERS IT CAN BE AS MUCH AS 7 DEGREES.  THE BIASES ARE COMPUTED BY KALCMANU AND REMAIN
000104:                                                                                                  #  FIXED UNTIL THE MANEUVER IS COMPLETED AT WHICH TIME THEY ARE RESET TO ZERO.
000105:
000106: 21,3322           30032        ATTHOLD            CA       CDUX
000107: 21,3323           00006                           EXTEND
000108: 21,3324           21572                           MSU      THETADX
000109: 21,3325           55567                           TS       ERRORX
000110: 21,3326           30033                           CA       CDUY
000111: 21,3327           00006                           EXTEND
000112: 21,3330           21573                           MSU      THETADY
000113: 21,3331           55502                           TS       T5TEMP
000114: 21,3332           00006                           EXTEND
000115: 21,3333           71640                           MP       AMGB1
000116: 21,3334           27567                           ADS      ERRORX
000117: 21,3335           31502                           CA       T5TEMP
000118: 21,3336           00006                           EXTEND
000119: 21,3337           71641                           MP       AMGB4
000120: 21,3340           55570                           TS       ERRORY
000121: 21,3341           31502                           CA       T5TEMP
000122: 21,3342           00006                           EXTEND
000123: 21,3343           71643                           MP       AMGB7
000124: 21,3344           55571                           TS       ERRORZ
000125: 21,3345           30034                           CA       CDUZ
000126: 21,3346           00006                           EXTEND
000127: 21,3347           21574                           MSU      THETADZ
000128: 21,3350           55502                           TS       T5TEMP
000129: 21,3351           00006                           EXTEND
000130: 21,3352           71642                           MP       AMGB5
000131: 21,3353           27570                           ADS      ERRORY
000132: 21,3354           31502                           CA       T5TEMP
000133: 21,3355           00006                           EXTEND
000134: 21,3356           71644                           MP       AMGB8
000135: 21,3357           27571                           ADS      ERRORZ
000136: 21,3360           41332                           CS       HOLDFLAG
000137: 21,3361           00006                           EXTEND


000139: 21,3362           63441                           BZMF     JETS
000140: 21,3363           31564                           CA       BIAS                                  #  AD BIASES ONLY IF PERFORMING AUTOMATIC
000141: 21,3364           27567                           ADS      ERRORX
000142: 21,3365           31565                           CA       BIAS1
000143: 21,3366           27570                           ADS      ERRORY
000144: 21,3367           31566                           CA       BIAS2
000145: 21,3370           27571                           ADS      ERRORZ
000146: 21,3371           13441                           TCF      JETS
000147:
000148: 21,3372           11332        HOLDFUNC           CCS      HOLDFLAG
000149: 21,3373           13376                           TCF      +3
000150: 21,3374           13322                           TCF      ATTHOLD
000151: 21,3375           13376                           TCF      +1
000152: 21,3376           35021        GRABANG            CAF      ZERO                                  #  ZERO WBODYS AND BIASES
000153: 21,3377           55525                           TS       WBODY
000154: 21,3400           55526                           TS       WBODY      +1
000155: 21,3401           55527                           TS       WBODY1
000156: 21,3402           55530                           TS       WBODY1     +1
000157: 21,3403           55531                           TS       WBODY2
000158: 21,3404           55532                           TS       WBODY2     +1
000159: 21,3405           55564                           TS       BIAS
000160: 21,3406           55565                           TS       BIAS1
000161: 21,3407           55566                           TS       BIAS2
000162:
000163: 21,3410           31501                           CA       RCSFLAGS
000164: 21,3411           73037                           MASK     OCT16000
000165: 21,3412           00006                           EXTEND                                         #  IS RATE DAMPING COMPLETED
000166: 21,3413           13421                           BZF      ENDDAMP                               #  IF SO, GO TO ENDDAMP
000167: 21,3414           35021                           CAF      ZERO                                  #  OTHERWISE, ZERO ERRORS
000168: 21,3415           55567                           TS       ERRORX
000169: 21,3416           55570                           TS       ERRORY
000170: 21,3417           55571                           TS       ERRORZ
000171: 21,3420           13441                           TCF      JETS
000172:
000173: 21,3421           55332        ENDDAMP            TS       HOLDFLAG                              #  SET HOLDFLAG +0
000174: 21,3422           00006                           EXTEND
000175: 21,3423           30033                           DCA      CDUX                                  #  PICK UP CDU ANGLES FOR ATTITUDE HOLD
000176: 21,3424           53573                           DXCH     THETADX                               #  REFERENCES
000177: 21,3425           30034                           CA       CDUZ
000178: 21,3426           55574                           TS       THETADZ
000179: 21,3427           13322                           TCF      ATTHOLD
000180:


000182:                                                                                                  #  JET SWITCHING LOGIC AND CALCULATION OF REQUIRED ROTATION COMMANDS
000183:
000184:                                                                                                  #  DETERMINE THE LOCATION OF THE RATE ERROR AND THE ATTITUDE ERROR RELATIVE TO THE SWITCHING LOGIC IN THE PHASE
000185:                                                                                                  #  PLANE.
000186:
000187:                                                                                                  #  COMPUTE THE CHANGE IN RATE CORRESPONDING TO THE ATTITUDE ERROR NECESSARY TO DRIVE THE S/C INTO THE
000188:                                                                                                  #  APPROPRIATE DEADZONE.
000189:
000190:                                                                                                  #                                      .
000191:                                                                                                  #    R22                          RATE . ERROR
000192:                                                                                                  #         WL+H                         .
000193:                                                                                                  #  *********************************   .                                 ***** SWITCH LINES ENCLOSING DEADZONES
000194:                                                                                                  #    R23  WL                        *  .
000195:                                                                                                  #  ----------------------------------* .                                 ----- DESIRED RATE LINES
000196:                                                                                                  #    R23  WL-H       -                *.
000197:                                                                                                  #  ****************** -                .                                 R20, R21, R22, ETC REGIONS IN PHASE
000198:                                                                                                  #                    * -               .* R18      R20       R21         PLANE FOF COMPUTING DESIRED RESPONSE
000199:                                                                                                  #                     *                . *
000200:                                                                                                  #                      *-              .  *
000201:                                                                                                  #    R22             R24*-    R23      .   *
000202:                                                                                                  #                        *             .    *
000203:                                                                                                  #                         *            .     *
000204:                                                                                                  #                          + -ADB      .      * AF              ATTITUDE
000205:                                                                                                  #   ........................+--+---------------+--+........................
000206:                                                                                                  #                            AF *      .     +ADB  +             ERROR
000207:                                                                                                  #                                *     .            *
000208:                                                                                                  #                                 *    .            -*
000209:                                                                                                  #                                  *   .             -*
000210:                                                                                                  #                                   *  .              -*
000211:                                                                                                  #                                    * .                *
000212:                                                                                                  #                                     *.               - *
000213:                                                                                                  #                                      .                - *****************
000214:                                                                                                  #                                      .*-
000215:                                                                                                  #                                      . * --------------------------------
000216:                                                                                                  #                                      .
000217:                                                                                                  #                                      .
000218:                                                                                                  #                        FIG. 1  PHASE PLANE SWITCHING LOGIC
000219:
000220:                                                                                                  #  CONSTANTS FOR JET SWITCHING LOGIC
000221:
000222: 21,3430           00114        WLH/SLOP           DEC      .00463                                #  = WL+H/SLOPE = .83333 DEG     $180
000223: 21,3431           00055        WL-H/SLP           DEC      .00277                                #  = WL-H/SLOPE = .5 DEG         $180
000224: 21,3432           00022 06426  WLH                2DEC     .0011111111                            #  = WL+H = 0.5 DEG/SEC          $450
000225:
000226: 21,3434           00012 35415  WLMH               2DEC     .0006666666                            #  = WL-H = 0.3 DEG/SEC          $450
000227:
000228: 21,3436           00016 22021  WL                 2DEC     .0008888888                            #  = WL   = 0.4 DEG/SEC          $450
000229:


000231: 21,3440           12173        SLOPE2             DEC      .32                                   #  = 0.8 DEG/SEC/DEG             $450/180
000232: 21,3441           31655        JETS               CA       ADB
000233: 21,3442           65015                           AD       FOUR                                  #  AF = FLAT REGION = .044 DEG
000234: 21,3443           55502                           TS       T5TEMP                                #  ADB+AF
000235: 21,3444           35016                           CAF      TWO
000236: 21,3445           55506        JLOOP              TS       SPNDX
000237: 21,3446           60000                           DOUBLE
000238: 21,3447           55507                           TS       DPNDX
000239: 21,3450           00006                           EXTEND
000240: 21,3451           50000                           INDEX    A
000241: 21,3452           31534                           DCA      ADOT
000242: 21,3453           53516                           DXCH     EDOT
000243: 21,3454           31332                           CA       HOLDFLAG                              #  HOLDFLAG = +0 MEANS THAT DAP IS IN
000244: 21,3455           00006                           EXTEND                                         #  ATTITUDE HOLD AND RATE DAMPING IS OVER.
000245: 21,3456           13463                           BZF      INHOLD                                #  IF THIS IS THE CASE, BYPASS ADDITION
000246:                                                                                                  #  OF WBODY AND GO TO INHOLD
000247: 21,3457           00006                           EXTEND
000248: 21,3460           51507                           INDEX    DPNDX
000249: 21,3461           41526                           DCS      WBODY
000250: 21,3462           21516                           DAS      EDOT                                  #  = ADOT-WBODY
000251: 21,3463           51506        INHOLD             INDEX    SPNDX
000252: 21,3464           31567                           CA       ERRORX
000253: 21,3465           55517                           TS       AERR                                  #  AERR = BIAS + AK
000254:
000255: 21,3466           11515                           CCS      EDOT
000256: 21,3467           13477                           TCF      POSVEL
000257: 21,3470           13472                           TCF      SIGNCK1
000258: 21,3471           13507                           TCF      NEGVEL
000259: 21,3472           11516        SIGNCK1            CCS      EDOT       +1
000260: 21,3473           13477                           TCF      POSVEL
000261: 21,3474           13477                           TCF      POSVEL
000262: 21,3475           13507                           TCF      NEGVEL
000263: 21,3476           13507                           TCF      NEGVEL
000264: 21,3477           00006        POSVEL             EXTEND
000265: 21,3500           31516                           DCA      EDOT
000266: 21,3501           53521                           DXCH     EDOTVEL
000267: 21,3502           31502                           CA       T5TEMP
000268: 21,3503           55523                           TS       ADBVEL                                #  +(ADB+AF)
000269: 21,3504           31517                           CA       AERR
000270: 21,3505           55522                           TS       AERRVEL
000271: 21,3506           03516                           TC       J6.
000272: 21,3507           00006        NEGVEL             EXTEND
000273: 21,3510           41516                           DCS      EDOT
000274: 21,3511           53521                           DXCH     EDOTVEL
000275: 21,3512           41502                           CS       T5TEMP
000276: 21,3513           55523                           TS       ADBVEL                                #  -(ADB+AF)
000277: 21,3514           41517                           CS       AERR
000278: 21,3515           55522                           TS       AERRVEL
000279:
000280: 21,3516           00006        J6.                EXTEND


000282: 21,3517           61655                           SU       ADB
000283: 21,3520           63430                           AD       WLH/SLOP
000284: 21,3521           00006                           EXTEND
000285: 21,3522           63551                           BZMF     J8
000286:
000287: 21,3523           41502                           CS       T5TEMP                                #  (ADB+AF)
000288: 21,3524           61522                           AD       AERRVEL
000289: 21,3525           00006                           EXTEND
000290: 21,3526           63530                           BZMF     +2
000291: 21,3527           13542                           TCF      J7
000292: 21,3530           00006                           EXTEND
000293: 21,3531           41521                           DCS      EDOTVEL
000294: 21,3532           00006                           EXTEND
000295: 21,3533           11654                           DV       SLOPE
000296: 21,3534           00006                           EXTEND
000297: 21,3535           61522                           SU       AERRVEL
000298: 21,3536           61655                           AD       ADB
000299: 21,3537           00006                           EXTEND
000300: 21,3540           63630                           BZMF     J18
000301: 21,3541           13704                           TCF      J23
000302:
000303: 21,3542           43431        J7                 CS       WL-H/SLP
000304: 21,3543           00006                           EXTEND
000305: 21,3544           61502                           SU       T5TEMP                                #  (ADB+AF)
000306: 21,3545           61522                           AD       AERRVEL
000307: 21,3546           00006                           EXTEND
000308: 21,3547           63634                           BZMF     J20
000309: 21,3550           13645                           TCF      J21
000310:
000311: 21,3551           00006        J8                 EXTEND
000312: 21,3552           43433                           DCS      WLH
000313: 21,3553           53514                           DXCH     WTEMP
000314: 21,3554           00006                           EXTEND
000315: 21,3555           31521                           DCA      EDOTVEL
000316: 21,3556           21514                           DAS      WTEMP
000317: 21,3557           11513                           CCS      WTEMP
000318: 21,3560           13673                           TCF      J22
000319: 21,3561           13563                           TCF      SIGNCK2
000320: 21,3562           13567                           TCF      NJ22
000321: 21,3563           11514        SIGNCK2            CCS      WTEMP      +1
000322: 21,3564           13673                           TCF      J22
000323: 21,3565           13673                           TCF      J22
000324: 21,3566           13567                           TCF      NJ22
000325:
000326: 21,3567           00006        NJ22               EXTEND
000327: 21,3570           31521                           DCA      EDOTVEL
000328: 21,3571           00006                           EXTEND
000329: 21,3572           11654                           DV       SLOPE
000330: 21,3573           61502                           AD       T5TEMP                                #  (ADB+AF)
000331: 21,3574           61522                           AD       AERRVEL


000333: 21,3575           10000                           CCS      A
000334: 21,3576           13704                           TCF      J23
000335: 21,3577           13704                           TCF      J23
000336: 21,3600           13602                           TCF      +2
000337: 21,3601           13704                           TCF      J23
000338:
000339: 21,3602           00006                           EXTEND
000340: 21,3603           43435                           DCS      WLMH                                  #  WL - H
000341: 21,3604           53514                           DXCH     WTEMP
000342: 21,3605           00006                           EXTEND
000343: 21,3606           31521                           DCA      EDOTVEL
000344: 21,3607           21514                           DAS      WTEMP
000345: 21,3610           11513                           CCS      WTEMP
000346: 21,3611           13704                           TCF      J23
000347: 21,3612           13614                           TCF      SIGNCK3
000348: 21,3613           13620                           TCF      NJ23
000349: 21,3614           11514        SIGNCK3            CCS      WTEMP      +1
000350: 21,3615           13704                           TCF      J23
000351: 21,3616           13704                           TCF      J23
000352: 21,3617           13620                           TCF      NJ23
000353:
000354: 21,3620           31522        NJ23               CA       AERRVEL
000355: 21,3621           61502                           AD       T5TEMP                                #  (ADB+AF)
000356: 21,3622           63431                           AD       WL-H/SLP
000357: 21,3623           10000                           CCS      A
000358: 21,3624           13716                           TCF      J24
000359: 21,3625           13716                           TCF      J24
000360: 21,3626           13673                           TCF      J22
000361: 21,3627           13673                           TCF      J22
000362:
000363: 21,3630           00006        J18                EXTEND
000364: 21,3631           41516                           DCS      EDOT
000365: 21,3632           53511                           DXCH     KMPAC
000366: 21,3633           13727                           TCF      JTIME
000367:
000368: 21,3634           41517        J20                CS       AERR
000369: 21,3635           61523                           AD       ADBVEL
000370: 21,3636           00006                           EXTEND
000371: 21,3637           73440                           MP       SLOPE2                                #  (HYSTERESIS SLOPE)
000372: 21,3640           53511                           DXCH     KMPAC
000373: 21,3641           00006                           EXTEND
000374: 21,3642           41516                           DCS      EDOT
000375: 21,3643           21511                           DAS      KMPAC
000376: 21,3644           13727                           TCF      JTIME
000377:
000378: 21,3645           11515        J21                CCS      EDOT
000379: 21,3646           13664                           TCF      JP
000380: 21,3647           13651                           TCF      SIGNCK4
000381: 21,3650           13655                           TCF      JN
000382: 21,3651           11516        SIGNCK4            CCS      EDOT       +1


000384: 21,3652           13664                           TCF      JP
000385: 21,3653           13664                           TCF      JP
000386: 21,3654           13655                           TCF      JN
000387: 21,3655           00006        JN                 EXTEND
000388: 21,3656           41516                           DCS      EDOT
000389: 21,3657           53511                           DXCH     KMPAC
000390: 21,3660           00006                           EXTEND
000391: 21,3661           33437                           DCA      WL
000392: 21,3662           21511                           DAS      KMPAC
000393: 21,3663           13727                           TCF      JTIME
000394:
000395: 21,3664           00006        JP                 EXTEND
000396: 21,3665           41516                           DCS      EDOT
000397: 21,3666           53511                           DXCH     KMPAC
000398: 21,3667           00006                           EXTEND
000399: 21,3670           43437                           DCS      WL
000400: 21,3671           21511                           DAS      KMPAC
000401: 21,3672           13727                           TCF      JTIME
000402:
000403: 21,3673           11515        J22                CCS      EDOT
000404: 21,3674           13655                           TCF      JN
000405: 21,3675           13677                           TCF      SIGNCK5
000406: 21,3676           13664                           TCF      JP
000407: 21,3677           11516        SIGNCK5            CCS      EDOT       +1
000408: 21,3700           13655                           TCF      JN
000409: 21,3701           13655                           TCF      JN
000410: 21,3702           13664                           TCF      JP
000411: 21,3703           13664                           TCF      JP
000412:
000413: 21,3704           51506        J23                INDEX    SPNDX
000414: 21,3705           45003                           CS       BIT13                                 #  RESET RATE DAMPING FLAG
000415: 21,3706           71501                           MASK     RCSFLAGS                              #  BIT13 FOR ROLL  (SPNDX = 0)
000416: 21,3707           55501                           TS       RCSFLAGS                              #  BIT12 FOR PITCH (SPNDX = 1)
000417:                                                                                                  #  BIT11 FOR YAW   (SPNDX = 2)
000418:
000419: 21,3710           51506                           INDEX    SPNDX
000420: 21,3711           33033                           CAF      OCT01400                              #  IS THERE TO BE A FORCED FIRING ON THIS
000421: 21,3712           71501                           MASK     RCSFLAGS                              #  AXIS
000422: 21,3713           00006                           EXTEND
000423: 21,3714           13750                           BZF      DOJET      +2                         #  NO, GO TO DOJET +2 AND DO NOTHING
000424:
000425: 21,3715           13630                           TCF      J18                                   #  YES, GO TO J18 AND FORCE A FIRING
000426:
000427: 21,3716           41517        J24                CS       AERR
000428: 21,3717           00006                           EXTEND
000429: 21,3720           61523                           SU       ADBVEL
000430: 21,3721           00006                           EXTEND
000431: 21,3722           73440                           MP       SLOPE2                                #  (HYSTERESIS SLOPE)
000432: 21,3723           53511                           DXCH     KMPAC
000433: 21,3724           00006                           EXTEND


000435: 21,3725           41516                           DCS      EDOT
000436: 21,3726           21511                           DAS      KMPAC
000437:


000439:                                                                                                  #  COMPUTE THE JET ON TIME NECESSARY TO ACCOMPLISH THE DESIRED CHANGE IN RATE, I.E.,
000440:
000441:                                                                                                  #             T  = J/M(DELTA W)
000442:                                                                                                  #              J
000443:
000444:                                                                                                  #        DELTA W = DESIRED CHANGE IN S/C ANGULAR RATE AS DETERMINED BY THE
000445:                                                                                                  #                  SWITCHING LOGIC, AT THIS POINT STORED IN KMPAC.
000446:
000447:                                                                                                  #            J/M = S/C INERTIA TO TORQUE RATIO SCALED BY
000448:                                                                                                  #                        (57.3/450)(B24/1600)(1/.8)
000449:                                                                                                  #                  FOR 1 JET OPERATION  (M = 700 FT-LB).
000450:                                                                                                  #                  I.E., J/M = J(SLUG-FTFT) x 0.00000085601606
000451:
000452:                                                                                                  #                  THE CORRESPONDING COMPUTER VARIABLES ESTABLISHED BY
000453:                                                                                                  #                  KEYBOARD ENTRY ARE
000454:                                                                                                  #                        J/M  (ROLL)
000455:                                                                                                  #                        J/M1 (PITCH)
000456:                                                                                                  #                        J/M2 (YAW)
000457:
000458:                                                                                                  #             T  = JET-ON TIME    SCALED 16384/1600 SEC
000459:                                                                                                  #              J
000460:
000461:                                                                                                  #                  THE COMPUTER VARIABLES ARE
000462:                                                                                                  #                        TAU  (ROLL)
000463:                                                                                                  #                        TAU1 (PITCH)
000464:                                                                                                  #                        TAU2 (YAW)
000465:
000466: 21,3727           51506        JTIME              INDEX    SPNDX                                 #  PICK UP S/C INERTIA/TORQUE RATIO
000467: 21,3730           31623                           CA       J/M                                   #  SCALED (57.3/450)(B24/1600)
000468: 21,3731           02042                           TC       SMALLMP                               #  FOR 1-JET OPERATION
000469: 21,3732           35005                           CA       BIT11
000470: 21,3733           02042                           TC       SMALLMP
000471: 21,3734           11510                           CCS      KMPAC
000472: 21,3735           13741                           TCF      +4
000473: 21,3736           13745                           TCF      TAUNORM
000474: 21,3737           13743                           TCF      +4
000475: 21,3740           13745                           TCF      TAUNORM
000476: 21,3741           34777                           CA       POSMAX
000477: 21,3742           13746                           TCF      DOJET
000478: 21,3743           35001                           CA       NEGMAX
000479: 21,3744           13746                           TCF      DOJET
000480:
000481: 21,3745           31511        TAUNORM            CA       KMPAC      +1
000482: 21,3746           51506        DOJET              INDEX    SPNDX
000483: 21,3747           55561                           TS       TAU
000484: 21,3750           11506                           CCS      SPNDX
000485: 21,3751           13445                           TCF      JLOOP
000486: 21,3752           13757                           TCF      T6PROG
000487:


000489: 21,3753           35021        ZEROCMDS           CAF      ZERO
000490: 21,3754           55561                           TS       TAU
000491: 21,3755           55562                           TS       TAU1
000492: 21,3756           55563                           TS       TAU2
000493: 21,3757           00006        T6PROG             EXTEND                                         #  WHEN THE ROTATION COMMANDS (TAUS)
000494: 21,3760           33764                           DCA      JETADDR                               #  HAVE BEEN DETERINED
000495: 21,3761           53313                           DXCH     T5LOC                                 #  RESET T5LOC FOR PHASE3
000496: 21,3762           15333                           TCF      RESUME
000497:
000498: 21,3763  E6,1510                                  EBANK=   KMPAC
000499: 21,3763           02552 36066  JETADDR            2CADR    JETSLECT
000500:

End of include-file AUTOMATIC_MANEUVERS.agc.  Parent file is MAIN.agc


