
Source Code


000002:                                                                                                  ## Copyright:   Public domain.
000003:                                                                                                  ## Filename:    AUTOMATIC_MANEUVERS.agc
000004:                                                                                                  ## Purpose:     Part of the source code for Colossus 2A, AKA Comanche 055.
000005:                                                                                                  ##              It is part of the source code for the Command Module's (CM)
000006:                                                                                                  ##              Apollo Guidance Computer (AGC), for Apollo 11.
000007:                                                                                                  ## Assembler:   yaYUL
000008:                                                                                                  ## Contact:     Ron Burkey <info@sandroid.org>.
000009:                                                                                                  ## Website:     www.ibiblio.org/apollo.
000010:                                                                                                  ## Pages:       1025-1036
000011:                                                                                                  ## Mod history: 2009-05-13 RSB  Adapted from the Colossus249/ file of the
000012:                                                                                                  ##                              same name, using Comanche055 page images.
000013:                                                                                                  ##              2016-12-21 RSB  Proofed comment text using octopus/ProoferComments
000014:                                                                                                  ##                              and corrected the errors found.
000015:                                                                                                  ##              2017-01-07 RSB  Fixed comment errors detected in cross-diff vs
000016:                                                                                                  ##                              Colossus 237 and Colossus 249.
000017:                                                                                                  ##
000018:                                                                                                  ## This source code has been transcribed or otherwise adapted from digitized
000019:                                                                                                  ## images of a hardcopy from the MIT Museum.  The digitization was performed
000020:                                                                                                  ## by Paul Fjeld, and arranged for by Deborah Douglas of the Museum.  Many
000021:                                                                                                  ## thanks to both.  The images (with suitable reduction in storage size and
000022:                                                                                                  ## consequent reduction in image quality as well) are available online at
000023:                                                                                                  ## www.ibiblio.org/apollo.  If for some reason you find that the images are
000024:                                                                                                  ## illegible, contact me at info@sandroid.org about getting access to the
000025:                                                                                                  ## (much) higher-quality images which Paul actually created.
000026:                                                                                                  ##
000027:                                                                                                  ## Notations on the hardcopy document read, in part:
000028:                                                                                                  ##
000029:                                                                                                  ##      Assemble revision 055 of AGC program Comanche by NASA
000030:                                                                                                  ##      2021113-051.  10:28 APR. 1, 1969
000031:                                                                                                  ##
000032:                                                                                                  ##      This AGC program shall also be referred to as
000033:                                                                                                  ##                      Colossus 2A
000034:


000036: 21,3250                                           BANK     21
000037: 21,2000                                           SETLOC   DAPS3
000038: 21,2000                                           BANK
000039:
000040: 21,3250                                           COUNT    21/DAPAM
000041:
000042: 21,3250  E6,1510                                  EBANK=   KMPAC
000043: 21,3250           00006        AHFNOROT           EXTEND
000044: 21,3251           00031                           READ     CHAN31
000045: 21,3252           75002                           MASK     BIT14
000046: 21,3253           00006                           EXTEND
000047: 21,3254           63272                           BZMF     FREECONT
000048: 21,3255           31501                           CA       RCSFLAGS                              #  SEE IF RATE FILTER HAS BEEN INITIALIZED
000049: 21,3256           75002                           MASK     BIT14
000050: 21,3257           10000                           CCS      A                                     #  IF SO, PROCEED WITH ATTITUDE CONTROL
000051: 21,3260           12534                           TCF      REINIT                                #  IF NOT, RECYCLE TO INITIALIZE FILTER
000052:                                                                                                  #  AUTOMATIC CONTROL YET
000053: 21,3261           00006                           EXTEND
000054: 21,3262           00031                           READ     CHAN31
000055: 21,3263           75003                           MASK     BIT13
000056: 21,3264           00006                           EXTEND
000057: 21,3265           63372                           BZMF     HOLDFUNC
000058:
000059: 21,3266           31332        AUTOCONT           CA       HOLDFLAG                              #  IF HOLDFLAG IS +, GO TO GRABANG.
000060: 21,3267           00006                           EXTEND                                         #  OTHERWISE, GO TO ATTHOLD.
000061: 21,3270           63322                           BZMF     ATTHOLD
000062: 21,3271           13376                           TCF      GRABANG
000063:
000064:                                                                                                  #  MINIMUM IMPULSE CONTROL
000065:
000066: 21,3272           35017        FREECONT           CAF      ONE
000067: 21,3273           55332                           TS       HOLDFLAG                              #  RESET HOLDFLAG
000068:                                                                                                  #  INHIBIT AUTOMATIC STEERING
000069: 21,3274           00006                           EXTEND
000070: 21,3275           00032                           READ     CHAN32
000071: 21,3276           54001                           TS       L
000072: 21,3277           40000                           COM
000073: 21,3300           73036                           MASK     MANROT
000074: 21,3301           71633                           MASK     CHANTEMP
000075: 21,3302           23633                           LXCH     CHANTEMP
000076: 21,3303           03130                           TC       STICKCHK
000077: 21,3304           51656                           INDEX    RMANNDX
000078: 21,3305           33316                           CA       MINTAU                                #  MINTAU        +0
000079: 21,3306           55561                           TS       TAU                                   #                +1      +14MS MINIMUM IMPULSE
000080: 21,3307           51657                           INDEX    PMANNDX                               #                +2      -14MS TIME
000081: 21,3310           33316                           CA       MINTAU                                #                +3      +0
000082: 21,3311           55562                           TS       TAU1
000083: 21,3312           51660                           INDEX    YMANNDX
000084: 21,3313           33316                           CA       MINTAU


000086: 21,3314           55563                           TS       TAU2
000087: 21,3315           13067                           TCF      T6PROGM
000088:
000089: 21,3316           00000        MINTAU             DEC      0          B-14
000090: 21,3317           00027                           DEC      23         B-14                       #  = 14MS
000091: 21,3320           77750                           DEC      -23        B-14                       #  = -14MS
000092: 21,3321           00000                           DEC      0          B-14
000093:


000095:                                                                                                  #  CALCULATION OF ATTITUDE ERRORS-
000096:                                                                                                  #        -    *     -      -          -
000097:                                                                                                  #        AK = AMGB (CDUX - THETADX) + BIAS
000098:
000099:                                                                                                  #  IE    *AK *   * 1        SIN(PSI)        0    ** CDUX - THETADX *    *BIAS *
000100:                                                                                                  #        *   *   *                               **                *    *     *
000101:                                                                                                  #        *AK1* = * 0   COS(PSI)COS(PHI)  SIN(PHI)** CDUY - THETADY *  + *BIAS1*
000102:                                                                                                  #        *   *   *                               **                *    *     *
000103:                                                                                                  #        *AK2*   * 0  -COS(PSI)SIN(PHI)  COS(PHI)** CDUZ - THETADZ *    *BIAS2*
000104:
000105:                                                                                                  #  THE BIASES ARE ADDED ONLY WHILE PERFORMING AUTOMATIC MANEUVERS (ESP KALCMANU) TO PROVIDE ADDITIONAL LEAD
000106:                                                                                                  #  AND PREVENT OVERSHOOT WHEN STARTING AN AUTOMATIC MANEUVER.  NORMALLY THE REQUIRED LEAD IS ONLY 1-2 DEGREES.
000107:                                                                                                  #  BUT DURING HIGH RATE MANEUVERS IT CAN BE AS MUCH AS 7 DEGREES.  THE BIASES ARE COMPUTED BY KALCMANU AND REMAIN
000108:                                                                                                  #  FIXED UNTIL THE MANEUVER IS COMPLETED AT WHICH TIME THEY ARE RESET TO ZERO.
000109:
000110: 21,3322           30032        ATTHOLD            CA       CDUX
000111: 21,3323           00006                           EXTEND
000112: 21,3324           21572                           MSU      THETADX
000113: 21,3325           55567                           TS       ERRORX
000114: 21,3326           30033                           CA       CDUY
000115: 21,3327           00006                           EXTEND
000116: 21,3330           21573                           MSU      THETADY
000117: 21,3331           55502                           TS       T5TEMP
000118: 21,3332           00006                           EXTEND
000119: 21,3333           71640                           MP       AMGB1
000120: 21,3334           27567                           ADS      ERRORX
000121: 21,3335           31502                           CA       T5TEMP
000122: 21,3336           00006                           EXTEND
000123: 21,3337           71641                           MP       AMGB4
000124: 21,3340           55570                           TS       ERRORY
000125: 21,3341           31502                           CA       T5TEMP
000126: 21,3342           00006                           EXTEND
000127: 21,3343           71643                           MP       AMGB7
000128: 21,3344           55571                           TS       ERRORZ
000129: 21,3345           30034                           CA       CDUZ
000130: 21,3346           00006                           EXTEND
000131: 21,3347           21574                           MSU      THETADZ
000132: 21,3350           55502                           TS       T5TEMP
000133: 21,3351           00006                           EXTEND
000134: 21,3352           71642                           MP       AMGB5
000135: 21,3353           27570                           ADS      ERRORY
000136: 21,3354           31502                           CA       T5TEMP
000137: 21,3355           00006                           EXTEND
000138: 21,3356           71644                           MP       AMGB8
000139: 21,3357           27571                           ADS      ERRORZ
000140: 21,3360           41332                           CS       HOLDFLAG
000141: 21,3361           00006                           EXTEND


000143: 21,3362           63441                           BZMF     JETS
000144: 21,3363           31564                           CA       BIAS                                  #  AD BIASES ONLY IF PERFORMING AUTOMATIC
000145: 21,3364           27567                           ADS      ERRORX
000146: 21,3365           31565                           CA       BIAS1
000147: 21,3366           27570                           ADS      ERRORY
000148: 21,3367           31566                           CA       BIAS2
000149: 21,3370           27571                           ADS      ERRORZ
000150: 21,3371           13441                           TCF      JETS
000151:
000152: 21,3372           11332        HOLDFUNC           CCS      HOLDFLAG
000153: 21,3373           13376                           TCF      +3
000154: 21,3374           13322                           TCF      ATTHOLD
000155: 21,3375           13376                           TCF      +1
000156: 21,3376           35021        GRABANG            CAF      ZERO                                  #  ZERO WBODYS AND BIASES
000157: 21,3377           55525                           TS       WBODY
000158: 21,3400           55526                           TS       WBODY      +1
000159: 21,3401           55527                           TS       WBODY1
000160: 21,3402           55530                           TS       WBODY1     +1
000161: 21,3403           55531                           TS       WBODY2
000162: 21,3404           55532                           TS       WBODY2     +1
000163: 21,3405           55564                           TS       BIAS
000164: 21,3406           55565                           TS       BIAS1
000165: 21,3407           55566                           TS       BIAS2
000166:
000167: 21,3410           31501                           CA       RCSFLAGS
000168: 21,3411           73037                           MASK     OCT16000
000169: 21,3412           00006                           EXTEND                                         #  IS RATE DAMPING COMPLETED
000170: 21,3413           13421                           BZF      ENDDAMP                               #  IF SO, GO TO ENDDAMP
000171: 21,3414           35021                           CAF      ZERO                                  #  OTHERWISE, ZERO ERRORS
000172: 21,3415           55567                           TS       ERRORX
000173: 21,3416           55570                           TS       ERRORY
000174: 21,3417           55571                           TS       ERRORZ
000175: 21,3420           13441                           TCF      JETS
000176:
000177: 21,3421           55332        ENDDAMP            TS       HOLDFLAG                              #  SET HOLDFLAG +0
000178: 21,3422           00006                           EXTEND
000179: 21,3423           30033                           DCA      CDUX                                  #  PICK UP CDU ANGLES FOR ATTITUDE HOLD
000180: 21,3424           53573                           DXCH     THETADX                               #  REFERENCES
000181: 21,3425           30034                           CA       CDUZ
000182: 21,3426           55574                           TS       THETADZ
000183: 21,3427           13322                           TCF      ATTHOLD
000184:


000186:                                                                                                  #  JET SWITCHING LOGIC AND CALCULATION OF REQUIRED ROTATION COMMANDS
000187:
000188:                                                                                                  #  DETERMINE THE LOCATION OF THE RATE ERROR AND THE ATTITUDE ERROR RELATIVE TO THE SWITCHING LOGIC IN THE PHASE
000189:                                                                                                  #  PLANE.
000190:
000191:                                                                                                  #  COMPUTE THE CHANGE IN RATE CORRESPONDING TO THE ATTITUDE ERROR NECESSARY TO DRIVE THE THE S/C INTO THE
000192:                                                                                                  #  APPROPRIATE DEADZONE.
000193:
000194:                                                                                                  #                                      .
000195:                                                                                                  #    R22                          RATE . ERROR
000196:                                                                                                  #         WL+H                         .
000197:                                                                                                  #  *********************************   .                                 ***** SWITCH LINES ENCLOSING DEADZONES
000198:                                                                                                  #    R23  WL                        *  .
000199:                                                                                                  #  --------------------------------- * .                                 ----- DESIRED RATE LINES
000200:                                                                                                  #    R23  WL-H       -                *.
000201:                                                                                                  #  ****************** -                .                                 R20, R21, R22, ETC REGIONS IN PHASE
000202:                                                                                                  #                    * -               .* R18      R20       R21         PLANE FOF COMPUTING DESIRED RESPONSE
000203:                                                                                                  #                     *                . *
000204:                                                                                                  #                      *-              .  *
000205:                                                                                                  #    R22             R24*-    R23      .   *
000206:                                                                                                  #                        *-            .    *
000207:                                                                                                  #                         *            .     *
000208:                                                                                                  #                          + -ADB      .      * AF              ATTITUDE
000209:                                                                                                  #  .........................+--+---------------+--+........................
000210:                                                                                                  #                            AF *      .     +ADB  +             ERROR
000211:                                                                                                  #                                *     .            *
000212:                                                                                                  #                                 *    .            -*
000213:                                                                                                  #                                  *   .             -*
000214:                                                                                                  #                                   *  .              -*
000215:                                                                                                  #                                    * .                *
000216:                                                                                                  #                                     *.               - *
000217:                                                                                                  #                                      .                - *****************
000218:                                                                                                  #                                      .*                -
000219:                                                                                                  #                                      . * --------------------------------
000220:                                                                                                  #                                      .  *
000221:                                                                                                  #                                      .   ********************************
000222:                                                                                                  #                                      .
000223:                                                                                                  #                        FIG. 1  PHASE PLANE SWITCHING LOGIC
000224:
000225:                                                                                                  #  CONSTANTS FOR JET SWITCHING LOGIC
000226:
000227: 21,3430           00114        WLH/SLOP           DEC      .00463                                #  = WL+H/SLOPE = .83333 DEG     $180
000228: 21,3431           00055        WL-H/SLP           DEC      .00277                                #  = WL-H/SLOPE = .5 DEG         $180
000229: 21,3432           00022 06426  WLH                2DEC     .0011111111                            #  = WL+H = 0.5 DEG/SEC          $450
000230:
000231: 21,3434           00012 35415  WLMH               2DEC     .0006666666                            #  = WL-H = 0.3 DEG/SEC          $450
000232:
000233: 21,3436           00016 22021  WL                 2DEC     .0008888888                            #  = WL   = 0.4 DEG/SEC          $450
000234:


000236: 21,3440           12173        SLOPE2             DEC      .32                                   #  = 0.8 DEG/SEC/DEG             $450/180
000237: 21,3441           31655        JETS               CA       ADB
000238: 21,3442           65015                           AD       FOUR                                  #  AF = FLAT REGION = .044 DEG
000239: 21,3443           55502                           TS       T5TEMP                                #  ADB+AF
000240: 21,3444           35016                           CAF      TWO
000241: 21,3445           55506        JLOOP              TS       SPNDX
000242: 21,3446           60000                           DOUBLE
000243: 21,3447           55507                           TS       DPNDX
000244: 21,3450           00006                           EXTEND
000245: 21,3451           50000                           INDEX    A
000246: 21,3452           31534                           DCA      ADOT
000247: 21,3453           53516                           DXCH     EDOT
000248: 21,3454           31332                           CA       HOLDFLAG                              #  HOLDFLAG = +0 MEANS THAT DAP IS IN
000249: 21,3455           00006                           EXTEND                                         #  ATTITUDE HOLD AND RATE DAMPING IS OVER.
000250: 21,3456           13463                           BZF      INHOLD                                #  IF THIS IS THE CASE, BYPASS ADDITION
000251:                                                                                                  #  OF WBODY AND GO TO INHOLD
000252: 21,3457           00006                           EXTEND
000253: 21,3460           51507                           INDEX    DPNDX
000254: 21,3461           41526                           DCS      WBODY
000255: 21,3462           21516                           DAS      EDOT                                  #  = ADOT-WBODY
000256: 21,3463           51506        INHOLD             INDEX    SPNDX
000257: 21,3464           31567                           CA       ERRORX
000258: 21,3465           55517                           TS       AERR                                  #  AERR = BIAS + AK
000259:
000260: 21,3466           11515                           CCS      EDOT
000261: 21,3467           13477                           TCF      POSVEL
000262: 21,3470           13472                           TCF      SIGNCK1
000263: 21,3471           13507                           TCF      NEGVEL
000264: 21,3472           11516        SIGNCK1            CCS      EDOT       +1
000265: 21,3473           13477                           TCF      POSVEL
000266: 21,3474           13477                           TCF      POSVEL
000267: 21,3475           13507                           TCF      NEGVEL
000268: 21,3476           13507                           TCF      NEGVEL
000269: 21,3477           00006        POSVEL             EXTEND
000270: 21,3500           31516                           DCA      EDOT
000271: 21,3501           53521                           DXCH     EDOTVEL
000272: 21,3502           31502                           CA       T5TEMP
000273: 21,3503           55523                           TS       ADBVEL                                #  +(ADB+AF)
000274: 21,3504           31517                           CA       AERR
000275: 21,3505           55522                           TS       AERRVEL
000276: 21,3506           03516                           TC       J6.
000277: 21,3507           00006        NEGVEL             EXTEND
000278: 21,3510           41516                           DCS      EDOT
000279: 21,3511           53521                           DXCH     EDOTVEL
000280: 21,3512           41502                           CS       T5TEMP
000281: 21,3513           55523                           TS       ADBVEL                                #  -(ADB+AF)
000282: 21,3514           41517                           CS       AERR
000283: 21,3515           55522                           TS       AERRVEL
000284:
000285: 21,3516           00006        J6.                EXTEND


000287: 21,3517           61655                           SU       ADB
000288: 21,3520           63430                           AD       WLH/SLOP
000289: 21,3521           00006                           EXTEND
000290: 21,3522           63551                           BZMF     J8
000291:
000292: 21,3523           41502                           CS       T5TEMP                                #  (ADB+AF)
000293: 21,3524           61522                           AD       AERRVEL
000294: 21,3525           00006                           EXTEND
000295: 21,3526           63530                           BZMF     +2
000296: 21,3527           13542                           TCF      J7
000297: 21,3530           00006                           EXTEND
000298: 21,3531           41521                           DCS      EDOTVEL
000299: 21,3532           00006                           EXTEND
000300: 21,3533           11654                           DV       SLOPE
000301: 21,3534           00006                           EXTEND
000302: 21,3535           61522                           SU       AERRVEL
000303: 21,3536           61655                           AD       ADB
000304: 21,3537           00006                           EXTEND
000305: 21,3540           63630                           BZMF     J18
000306: 21,3541           13704                           TCF      J23
000307:
000308: 21,3542           43431        J7                 CS       WL-H/SLP
000309: 21,3543           00006                           EXTEND
000310: 21,3544           61502                           SU       T5TEMP                                #  (ADB+AF)
000311: 21,3545           61522                           AD       AERRVEL
000312: 21,3546           00006                           EXTEND
000313: 21,3547           63634                           BZMF     J20
000314: 21,3550           13645                           TCF      J21
000315:
000316: 21,3551           00006        J8                 EXTEND
000317: 21,3552           43433                           DCS      WLH
000318: 21,3553           53514                           DXCH     WTEMP
000319: 21,3554           00006                           EXTEND
000320: 21,3555           31521                           DCA      EDOTVEL
000321: 21,3556           21514                           DAS      WTEMP
000322: 21,3557           11513                           CCS      WTEMP
000323: 21,3560           13673                           TCF      J22
000324: 21,3561           13563                           TCF      SIGNCK2
000325: 21,3562           13567                           TCF      NJ22
000326: 21,3563           11514        SIGNCK2            CCS      WTEMP      +1
000327: 21,3564           13673                           TCF      J22
000328: 21,3565           13673                           TCF      J22
000329: 21,3566           13567                           TCF      NJ22
000330:
000331: 21,3567           00006        NJ22               EXTEND
000332: 21,3570           31521                           DCA      EDOTVEL
000333: 21,3571           00006                           EXTEND
000334: 21,3572           11654                           DV       SLOPE
000335: 21,3573           61502                           AD       T5TEMP                                #  (ADB+AF)
000336: 21,3574           61522                           AD       AERRVEL


000338: 21,3575           10000                           CCS      A
000339: 21,3576           13704                           TCF      J23
000340: 21,3577           13704                           TCF      J23
000341: 21,3600           13602                           TCF      +2
000342: 21,3601           13704                           TCF      J23
000343:
000344: 21,3602           00006                           EXTEND
000345: 21,3603           43435                           DCS      WLMH                                  #  WL - H
000346: 21,3604           53514                           DXCH     WTEMP
000347: 21,3605           00006                           EXTEND
000348: 21,3606           31521                           DCA      EDOTVEL
000349: 21,3607           21514                           DAS      WTEMP
000350: 21,3610           11513                           CCS      WTEMP
000351: 21,3611           13704                           TCF      J23
000352: 21,3612           13614                           TCF      SIGNCK3
000353: 21,3613           13620                           TCF      NJ23
000354: 21,3614           11514        SIGNCK3            CCS      WTEMP      +1
000355: 21,3615           13704                           TCF      J23
000356: 21,3616           13704                           TCF      J23
000357: 21,3617           13620                           TCF      NJ23
000358:
000359: 21,3620           31522        NJ23               CA       AERRVEL
000360: 21,3621           61502                           AD       T5TEMP                                #  (ADB+AF)
000361: 21,3622           63431                           AD       WL-H/SLP
000362: 21,3623           10000                           CCS      A
000363: 21,3624           13716                           TCF      J24
000364: 21,3625           13716                           TCF      J24
000365: 21,3626           13673                           TCF      J22
000366: 21,3627           13673                           TCF      J22
000367:
000368: 21,3630           00006        J18                EXTEND
000369: 21,3631           41516                           DCS      EDOT
000370: 21,3632           53511                           DXCH     KMPAC
000371: 21,3633           13727                           TCF      JTIME
000372:
000373: 21,3634           41517        J20                CS       AERR
000374: 21,3635           61523                           AD       ADBVEL
000375: 21,3636           00006                           EXTEND
000376: 21,3637           73440                           MP       SLOPE2                                #  (HYSTERESIS SLOPE)
000377: 21,3640           53511                           DXCH     KMPAC
000378: 21,3641           00006                           EXTEND
000379: 21,3642           41516                           DCS      EDOT
000380: 21,3643           21511                           DAS      KMPAC
000381: 21,3644           13727                           TCF      JTIME
000382:
000383: 21,3645           11515        J21                CCS      EDOT
000384: 21,3646           13664                           TCF      JP
000385: 21,3647           13651                           TCF      SIGNCK4
000386: 21,3650           13655                           TCF      JN
000387: 21,3651           11516        SIGNCK4            CCS      EDOT       +1


000389: 21,3652           13664                           TCF      JP
000390: 21,3653           13664                           TCF      JP
000391: 21,3654           13655                           TCF      JN
000392: 21,3655           00006        JN                 EXTEND
000393: 21,3656           41516                           DCS      EDOT
000394: 21,3657           53511                           DXCH     KMPAC
000395: 21,3660           00006                           EXTEND
000396: 21,3661           33437                           DCA      WL
000397: 21,3662           21511                           DAS      KMPAC
000398: 21,3663           13727                           TCF      JTIME
000399:
000400: 21,3664           00006        JP                 EXTEND
000401: 21,3665           41516                           DCS      EDOT
000402: 21,3666           53511                           DXCH     KMPAC
000403: 21,3667           00006                           EXTEND
000404: 21,3670           43437                           DCS      WL
000405: 21,3671           21511                           DAS      KMPAC
000406: 21,3672           13727                           TCF      JTIME
000407:
000408: 21,3673           11515        J22                CCS      EDOT
000409: 21,3674           13655                           TCF      JN
000410: 21,3675           13677                           TCF      SIGNCK5
000411: 21,3676           13664                           TCF      JP
000412: 21,3677           11516        SIGNCK5            CCS      EDOT       +1
000413: 21,3700           13655                           TCF      JN
000414: 21,3701           13655                           TCF      JN
000415: 21,3702           13664                           TCF      JP
000416: 21,3703           13664                           TCF      JP
000417:
000418: 21,3704           51506        J23                INDEX    SPNDX
000419: 21,3705           45003                           CS       BIT13                                 #  RESET RATE DAMPING FLAG
000420: 21,3706           71501                           MASK     RCSFLAGS                              #  BIT13 FOR ROLL  (SPNDX = 0)
000421: 21,3707           55501                           TS       RCSFLAGS                              #  BIT12 FOR PITCH (SPNDX = 1)
000422:                                                                                                  #  BIT11 FOR YAW   (SPNDX = 2)
000423:
000424: 21,3710           51506                           INDEX    SPNDX
000425: 21,3711           33033                           CAF      OCT01400                              #  IS THERE TO BE A FORCED FIRING ON THIS
000426: 21,3712           71501                           MASK     RCSFLAGS                              #  AXIS
000427: 21,3713           00006                           EXTEND
000428: 21,3714           13750                           BZF      DOJET      +2                         #  NO, GO TO DOJET +2 AND DO NOTHING
000429:
000430: 21,3715           13630                           TCF      J18                                   #  YES, GO TO J18 AND FORCE A FIRING
000431:
000432: 21,3716           41517        J24                CS       AERR
000433: 21,3717           00006                           EXTEND
000434: 21,3720           61523                           SU       ADBVEL
000435: 21,3721           00006                           EXTEND
000436: 21,3722           73440                           MP       SLOPE2                                #  (HYSTERESIS SLOPE)
000437: 21,3723           53511                           DXCH     KMPAC
000438: 21,3724           00006                           EXTEND


000440: 21,3725           41516                           DCS      EDOT
000441: 21,3726           21511                           DAS      KMPAC
000442:


000444:                                                                                                  #  COMPUTE THE JET ON TIME NECESSARY TO ACCOMPLISH THE DESIRED CHANGE IN RATE, IE
000445:
000446:                                                                                                  #             T  = J/M(DELTA W)
000447:                                                                                                  #              J
000448:
000449:                                                                                                  #        DELTA W = DESIRED CHANGE IN S/C ANGULAR RATE AS DETERMINED BY THE
000450:                                                                                                  #                  SWITCHING LOGIC, AT THIS POINT STORED IN KMPAC.
000451:
000452:                                                                                                  #            J/M = S/C INERTIA TO TORQUE 9ATIO SCALED BY
000453:                                                                                                  #                        (57.3/450)(B24/1600)(1/.8)
000454:                                                                                                  #                  FOR 1 JET OPERATION  (M = 700 FT-LB).
000455:                                                                                                  #                  IE J/M = J(SLUG-FTFT) X 0.00000085601606
000456:
000457:                                                                                                  #                  THE CORRESPONDING COMPUTER VARIABLES ESTABLISHED BY
000458:                                                                                                  #                  KEYBOARD ENTRY ARE
000459:                                                                                                  #                        J/M  (ROLL)
000460:                                                                                                  #                        J/M1 (PITCH)
000461:                                                                                                  #                        J/M2 (YAW)
000462:
000463:                                                                                                  #             T  = JET ON-TIME    SCALED 16384/1600 SEC
000464:                                                                                                  #              J
000465:
000466:                                                                                                  #                  THE COMPUTER VARIABLES ARE
000467:                                                                                                  #                        TAU  (ROLL)
000468:                                                                                                  #                        TAU1 (PITCH)
000469:                                                                                                  #                        TAU2 (YAW)
000470:
000471: 21,3727           51506        JTIME              INDEX    SPNDX                                 #  PICK UP S/C INERTIA/TORQUE RATIO
000472: 21,3730           31623                           CA       J/M                                   #  SCALED (57.3/450)(B24/1600)
000473: 21,3731           02042                           TC       SMALLMP                               #  FOR 1-JET OPERATION
000474: 21,3732           35005                           CA       BIT11
000475: 21,3733           02042                           TC       SMALLMP
000476: 21,3734           11510                           CCS      KMPAC
000477: 21,3735           13741                           TCF      +4
000478: 21,3736           13745                           TCF      TAUNORM
000479: 21,3737           13743                           TCF      +4
000480: 21,3740           13745                           TCF      TAUNORM
000481: 21,3741           34777                           CA       POSMAX
000482: 21,3742           13746                           TCF      DOJET
000483: 21,3743           35001                           CA       NEGMAX
000484: 21,3744           13746                           TCF      DOJET
000485:
000486: 21,3745           31511        TAUNORM            CA       KMPAC      +1
000487: 21,3746           51506        DOJET              INDEX    SPNDX
000488: 21,3747           55561                           TS       TAU
000489: 21,3750           11506                           CCS      SPNDX
000490: 21,3751           13445                           TCF      JLOOP
000491: 21,3752           13757                           TCF      T6PROG
000492:


000494: 21,3753           35021        ZEROCMDS           CAF      ZERO
000495: 21,3754           55561                           TS       TAU
000496: 21,3755           55562                           TS       TAU1
000497: 21,3756           55563                           TS       TAU2
000498: 21,3757           00006        T6PROG             EXTEND                                         #  WHEN THE ROTATION COMMANDS (TAUS)
000499: 21,3760           33764                           DCA      JETADDR                               #  HAVE BEEN DETERMINED
000500: 21,3761           53313                           DXCH     T5LOC                                 #  RESET T5LOC FOR PHASE3
000501: 21,3762           15333                           TCF      RESUME
000502:
000503: 21,3763  E6,1510                                  EBANK=   KMPAC
000504: 21,3763           02552 36066  JETADDR            2CADR    JETSLECT
000505:

End of include-file AUTOMATIC_MANEUVERS.agc.  Parent file is MAIN.agc


