
Source Code


000002:                                                                                                  #  Copyright:    Public domain.
000003:                                                                                                  #  Filename:     CM_BODY_ATTITUDE.agc
000004:                                                                                                  #  Purpose:      Part of the source code for Comanche, build 055. It
000005:                                                                                                  #                is part of the source code for the Command Module's
000006:                                                                                                  #                (CM) Apollo Guidance Computer (AGC), Apollo 11.
000007:                                                                                                  #  Assembler:    yaYUL
000008:                                                                                                  #  Reference:    pp. 883-889
000009:                                                                                                  #  Contact:      Ron Burkey <info@sandroid.org>
000010:                                                                                                  #  Website:      http://www.ibiblio.org/apollo.
000011:                                                                                                  #  Mod history:  2009-05-12 RSB  Adapted from Colossus249 file of the same
000012:                                                                                                  #                                name and Comanche 055 page images.
000013:
000014:                                                                                                  #  The contents of the "Comanche055" files, in general, are transcribed
000015:                                                                                                  #  from scanned documents.
000016:
000017:                                                                                                  #        Assemble revision 055 of AGC program Comanche by NASA
000018:                                                                                                  #        2021113-051.  April 1, 1969.
000019:
000020:                                                                                                  #        This AGC program shall also be referred to as Colossus 2A
000021:
000022:                                                                                                  #        Prepared by
000023:                                                                                                  #                        Massachusetts Institute of Technology
000024:                                                                                                  #                        75 Cambridge Parkway
000025:                                                                                                  #                        Cambridge, Massachusetts
000026:
000027:                                                                                                  #        under NASA contract NAS 9-4065.
000028:
000029:                                                                                                  #  Refer directly to the online document mentioned above for further
000030:                                                                                                  #  information.  Please report any errors to info@sandroid.org.
000031:


000033: 35,3477                                           BANK     35
000034:
000035: 37,2000                                           SETLOC   BODYATT
000036: 37,2000                                           BANK
000037:
000038: 37,3470                                           COUNT    37/CMBAT
000039:
000040:                                                                                                  #  PDL 12D - 15D SAFE.
000041:
000042:                                                                                                  #  VALUE OF GIMBAL AND BODY ANGLES VALID AT PIP TIME ARE SAVED DURING  READACCS.
000043:
000044: 37,3470  E7,1451                                  EBANK=   RTINIT                                #  LET INTERPRETER SET EB
000045:
000046: 37,3470           06006        CM/POSE            TC       INTPRET                               #  COME HERE VIA AVEGEXIT.
000047:
000048: 37,3471           77201                           SETPD    VLOAD
000049: 37,3472           00001                                    0
000050: 37,3473           01177                                    VN                                    #  KVSCALE = (12800/ .3048) /2VS
000051: 37,3474           63361                           VXSC     PDVL
000052: 37,3475           37767                                    -KVSCALE                              #  KVSCALE = .81491944
000053: 37,3476           01714                                    UNITW                                 #  FULL UNIT VECTOR
000054: 37,3477           74235                           VXV      VXSC                                  #  VREL = V - WE*R
000055: 37,3500           01760                                    UNITR
000056: 37,3501           15245                                    KWE
000057: 37,3502           45455                           VAD      STADR
000058: 37,3503           74251                           STORE    -VREL                                 #  SAVE FOR ENTRY GUIDANCE.      REF COORDS
000059:
000060: 37,3504           72056                           UNIT     LXA,1
000061: 37,3505           00044                                    36D                                   #  ABVAL( -VREL) TO X1
000062: 37,3506           03542                           STORE    UXA/2                                 #  -UVREL                        REF COORDS
000063:
000064: 37,3507           57435                           VXV      VCOMP
000065: 37,3510           01760                                    UNITR                                 #  .5 UNIT                       REF COORDS
000066: 37,3511           66256                           UNIT     SSP                                   #  THE FOLLOWING IS TO PROVIDE A STABLE
000067: 37,3512           00051                                    S1                                    #  UN FOR THE END OF THE TERMINAL PHASE.
000068: 37,3513           00476        SPVQUIT            DEC      .019405                               #  1000/ 2 VS
000069: 37,3514           77300                           TIX,1    VLOAD                                 #  IF V-VQUIT POS, BRANCH.
000070: 37,3515           77517                                    CM/POSE2                              #  SAME UYA IN OLDUYA
000071: 37,3516           03534                                    OLDUYA                                #  OTHERWISE CONTINUE TO USE OLDUYA
000072: 37,3517           03550        CM/POSE2           STORE    UYA/2                                 #                                REF COORDS
000073:
000074: 37,3520           03534                           STORE    OLDUYA                                #  RESTORE, OR SAVE AS CASE MAY BE.
000075:
000076: 37,3521           57435                           VXV      VCOMP
000077: 37,3522           03542                                    UXA/2                                 #  FINISH OBTAINING TRAJECTORY TRIAD.
000078: 37,3523           77772                           VSL1
000079: 37,3524           03556                           STORE    UZA/2                                 #                                REF COORDS


000081: 37,3525           77751                           TLOAD                                          #  PICK UP CDUX, CDUY, CDUZ CORRESPONDING
000082: 37,3526           03270                                    AOG/PIP                               #  TO PIPUP TIME IN 2'S C AND SAVE.
000083: 37,3527           14031        CM/TRIO            STODL    24D
000084: 37,3530           00032                                    25D                                   #  AIG/PIP
000085:
000086: 37,3531           41434                           RTB      PUSH                                  #  TO PDL0
000087: 37,3532           45513                                    CDULOGIC
000088: 37,3533           77746                           COS
000089: 37,3534           17564                           STODL    UBX/2                                 #  CI /2
000090:                                                                                                  #  AIG/PIP FROM PDL 0
000091: 37,3535           57556                           SIN      DCOMP
000092: 37,3536           17570                           STODL    UBX/2      +4                         #  -SI /2
000093: 37,3537           00033                                    26D                                   #  AMG/PIP
000094: 37,3540           41434                           RTB      PUSH                                  #  TO PDL 0
000095: 37,3541           45513                                    CDULOGIC
000096: 37,3542           65356                           SIN      PDDL                                  #  XCH PDL 0.  SAVE SM /2
000097: 37,3543           65346                           COS      PDDL                                  #  CM /2 TO PDL 2
000098: 37,3544           00001                                    0                                     #  SM /2
000099: 37,3545           74276                           DCOMP    VXSC
000100: 37,3546           03564                                    UBX/2
000101: 37,3547           77772                           VSL1                                           #  NOISE WON'T OVFL
000102: 37,3550           17572                           STODL    UBY/2                                 #  =(-SMCI, NOISE, SMSI)/2
000103: 37,3551           00003                                    2                                     #  CM /2 REPLACES NOISE
000104: 37,3552           17574                           STODL    UBY/2      +2                         #  UBY/2=(-SMCI, CM, SMSI)/2
000105: 37,3553           00031                                    24D                                   #  AOG/PIP
000106: 37,3554           41434                           RTB      PUSH                                  #  TO PDL 4
000107: 37,3555           45513                                    CDULOGIC
000108: 37,3556           65356                           SIN      PDDL                                  #  XCH PDL 4.  SAVE SO /2
000109: 37,3557           74346                           COS      VXSC                                  #  CO /2
000110: 37,3560           03572                                    UBY/2
000111: 37,3561           17572                           STODL    UBY/2                                 #  UBY/2=(-COSMCI, COCM, COSMSI)/4
000112: 37,3562           00005                                    4D                                    #  SO /2
000113: 37,3563           57405                           DMP      DCOMP
000114: 37,3564           03570                                    UBX/2      +4                         #  -SI /2
000115: 37,3565           77615                           DAD
000116: 37,3566           03572                                    UBY/2                                 #  INCREMENT BY (SOSI /4)
000117: 37,3567           17572                           STODL    UBY/2
000118:                                                                                                  #  SO /2 FROM PDL 4
000119: 37,3570           43205                           DMP      DAD
000120: 37,3571           03564                                    UBX/2                                 #  CI /2
000121: 37,3572           03576                                    UBY/2      +4
000122: 37,3573           27576                           STOVL    UBY/2      +4                         #  YB/4                          PLATFORM COORDS
000123:
000124:                                                                                                  #  YB = (-COSMCI + SOSI , COCM , COSMSI + SOCI )
000125:
000126: 37,3574           03572                                    UBY/2
000127: 37,3575           72505                           VXM      VSL2
000128: 37,3576           01736                                    REFSMMAT                              #  .5 UNIT
000129: 37,3577           17572                           STODL    UBY/2                                 #  YB/2 DONE                     REF COORDS


000131:                                                                                                  #  CM /2 FROM PDL 2
000132: 37,3600           76561                           VXSC     VSL1
000133: 37,3601           03564                                    UBX/2
000134: 37,3602           17564                           STODL    UBX/2                                 #  =( CMCI, NOISE, -CMSI)/2
000135: 37,3603           77626                           STADR                                          #  SM /2 FROM PDL 0
000136: 37,3604           50211                           STOVL    UBX/2      +2                         #  SM /2 REPLACES NOISE
000137: 37,3605           03564                                    UBX/2                                 #  XB/2                          PLATFORM COORDS
000138:
000139:                                                                                                  #  XB = ( CMCI , SM , -CMSI )
000140:
000141: 37,3606           76505                           VXM      VSL1
000142: 37,3607           01736                                    REFSMMAT                              #  .5 UNIT
000143: 37,3610           03564                           STORE    UBX/2                                 #  XB/2 DONE                     REF COORDS
000144:
000145: 37,3611           76435                           VXV      VSL1
000146: 37,3612           03572                                    UBY/2
000147: 37,3613           27600                           STOVL    UBZ/2                                 #  ZB/2 DONE                     REF COORDS
000148:
000149:                                                                                                  #  EQUIVALENT TO
000150:                                                                                                  #  ZB = ( SOSMCI + COSI , -SOCM , -SOSMSI + COCI )
000151:
000152: 37,3614           03542                                    UXA/2                                 #  -UVREL/2 = -UVA/2
000153: 37,3615           53435                           VXV      UNIT                                  #  GET UNIT(-UVREL*UBY)/2 = UL/2
000154: 37,3616           03572                                    UBY/2                                 #  YB/2
000155: 37,3617           50206                           PUSH     DOT                                   #  UL/2 TO PDL 0,5
000156: 37,3620           03556                                    UZA/2                                 #  UNA/2
000157: 37,3621           24021                           STOVL    COSTH                                 #  COS(ROLL)/4
000158: 37,3622           00001                                    0                                     #  UL/2
000159:
000160: 37,3623           77641                           DOT
000161: 37,3624           03550                                    UYA/2
000162: 37,3625           34023                           STCALL   SINTH                                 #  -SIN(ROLL)/4
000163: 37,3626           47256                                    ARCTRIG
000164: 37,3627           24007                           STOVL    6D                                    #  -(ROLL/180) /2
000165: 37,3630           03572                                    UBY/2
000166: 37,3631           72441                           DOT      SL1                                   #  -UVA.UBY = -SIN(BETA)
000167: 37,3632           03542                                    UXA/2                                 #  -UVREL/2
000168: 37,3633           77736                           ARCSIN
000169: 37,3634           24010                           STOVL    7D                                    #  -(BETA/180) /2
000170: 37,3635           03564                                    UBX/2                                 #  XB/2
000171: 37,3636           77641                           DOT                                            #  UL.UBX = -SIN(ALFA)
000172: 37,3637           00001                                    0                                     #  UL/2
000173: 37,3640           24023                           STOVL    SINTH                                 #  -SIN(ALFA)/4
000174: 37,3641           77641                           DOT                                            #  UL/2 FROM PDL 0
000175: 37,3642           03600                                    UBZ/2
000176: 37,3643           34021                           STCALL   COSTH                                 #  COS(ALFA)/2
000177: 37,3644           47256                                    ARCTRIG
000178: 37,3645           24011                           STOVL    8D                                    #  -(ALFA/180) /2
000179: 37,3646           01760                                    UNITR                                 #  UR/2                          REF COORDS
000180: 37,3647           72441                           DOT      SL1


000182: 37,3650           03556                                    UZA/2                                 #  MORE ACCURATE AT LARGE ARG.
000183: 37,3651           77726                           ARCCOS
000184: 37,3652           00013                           STORE    10D                                   #  (-GAMA/180)/2
000185:
000186: 37,3653           77551                           TLOAD    EXIT                                  #  ANGLES IN MPAC IN THE ORDER
000187:                                                                                                  #  -( (ROLL, BETA, ALFA) /180)/2
000188: 37,3654           00007                                    6D                                    #  THESE VALUES CORRECT AT PIPUP TIME.
000189:


000191:                                                                                                  #  BASIC SUBROUTINE TO UPDATE ATTITUDE ANGLES
000192:
000193: 37,3655  E6,1661                                  EBANK=   AOG
000194:
000195: 37,3655           35057        CM/ATUP            CA       EBAOG
000196: 37,3656           54003                           TS       EBANK
000197: 37,3657           50120        CMTR1              INDEX    FIXLOC
000198: 37,3660           40012                           CS       10D                                   #  (GAMA/180)/2
000199: 37,3661           57722                           XCH      GAMA
000200: 37,3662           54001                           TS       L
000201:
000202: 37,3663           00004                           INHINT
000203:                                                                                                  #  MUST REMAIN INHINTED UNTIL UPDATE OF BODY
000204:                                                                                                  #  ANGLES, SO THAT GAMDIFSW IS VALID FIRST PASS
000205:                                                                                                  #  INDICATOR.
000206:
000207: 37,3664           40102                           CS       CM/FLAGS
000208: 37,3665           75005                           MASK     BIT11                                 #  GAMDIFSW=94D BIT11    INITLY=0
000209: 37,3666           00006                           EXTEND                                         #  DON'T CALC GAMA DOT UNTIL HAVE FORMD
000210:                                                                                                  #  ONE DIFFERENCE.
000211: 37,3667           13672                           BZF      DOGAMDOT                              #  IS OK, GO ON.
000212: 37,3670           26102                           ADS      CM/FLAGS                              #  KNOW BIT IS 0
000213: 37,3671           03705                           TC       NOGAMDOT                              #  SET GAMDOT = 0
000214:
000215: 37,3672           40001        DOGAMDOT           CS       L
000216: 37,3673           61722                           AD       GAMA                                  #  DEL GAMA/360= T GAMDOT/360
000217: 37,3674           00006                           EXTEND
000218: 37,3675           73770                           MP       TCDU                                  #  TCDU = .1 SEC, T = 2 SEC.
000219: 37,3676           55723                           TS       GAMDOT                                #  GAMA DOT TCDU / 180
000220:
000221: 37,3677           00006                           EXTEND                                         #  IGNORE GAMDOT IF LEQ .5 DEG/SEC
000222: 37,3700           63702                           BZMF     +2
000223: 37,3701           40000                           COM
000224: 37,3702           65022                           AD       FIVE
000225: 37,3703           00006                           EXTEND
000226: 37,3704           63707                           BZMF     +3                                    #  SET GAMDOT=+0 AS TAG IF TOO SMALL.
000227:
000228: 37,3705           35021        NOGAMDOT           CA       ZERO                                  #  COME HERE INHINTED
000229: 37,3706           55723                           TS       GAMDOT
000230:                                                                                                  #  FOR NOW LEAVE IN 2'S C
000231:                                                                                                  #  UPDATE ANGLES BY CORRECTING EULER ANG
000232:                                                                                                  #  FOR ACCRUED INCREMENT SINCE PIPUP
000233:                                                                                                  #  R = R EUIL + R(NOW) - R(PIPUP)
000234: 37,3707           40154                           CS       MPAC                                  #  GET (R EUL/180) /2
000235: 37,3710           60000                           DOUBLE                                         #  POSSIBLE OVERFLOW
000236: 37,3711           03760                           TC       CORANGOV                              #  CORRECT FOR OVFL IF ANY
000237: 37,3712           00006                           EXTEND
000238: 37,3713           61672                           SU       ROLL/PIP                              #  GET INCR SINCE PIPUP
000239: 37,3714           61664                           AD       ROLL/180                              #  ONLY SINGLE OVFL POSSIBLE.
000240: 37,3715           03760                           TC       CORANGOV                              #  CORRECT FOR OVFL IF ANY


000242: 37,3716           55770                           TS       TEMPROLL
000243:
000244: 37,3717           40156                           CS       MPAC       +2                         #  GET (ALFA EUL/180) /2
000245: 37,3720           60000                           DOUBLE                                         #  SAME AS FOR ROLL.  NEEDED FOR EXT ATM DAP
000246: 37,3721           03760                           TC       CORANGOV                              #  CORRECT FOR OVFL IF ANY
000247: 37,3722           00006                           EXTEND
000248: 37,3723           61673                           SU       ALFA/PIP
000249: 37,3724           61665                           AD       ALFA/180
000250: 37,3725           03760                           TC       CORANGOV                              #  CORRECT FOR OVFL IF ANY
000251: 37,3726           55771                           TS       TEMPALFA
000252:
000253: 37,3727           40155                           CS       MPAC       +1                         #  GET (BETA EUL/180) /2
000254: 37,3730           60000        CMTR2              DOUBLE
000255: 37,3731           00006                           EXTEND
000256: 37,3732           61674                           SU       BETA/PIP
000257: 37,3733           61666                           AD       BETA/180
000258: 37,3734           57772                           XCH      TEMPBETA                              #  OVFL NOT EXPECTED.
000259:
000260: 37,3735           35051                           CA       EBANK3
000261: 37,3736           54003                           TS       EBANK
000262:
000263: 37,3737  E3,1446                                  EBANK=   PHSNAME5
000264: 37,3737           00006                           EXTEND
000265: 37,3740           33772                           DCA      REPOSADR                              #  THIS ASSUMES THAT THE         TC  PHASCHNG
000266: 37,3741           53447                           DXCH     PHSNAME5                              #  IS NOT CHANGED IN             OCT 10035
000267:                                                                                                  #  SERVICER.
000268:
000269: 37,3742           35057                           CA       EBAOG
000270: 37,3743           54003                           TS       EBANK
000271:
000272: 37,3744  E6,1661                                  EBANK=   AOG
000273: 37,3744           00006        REDOPOSE           EXTEND                                         #  RE-STARTS COME HERE
000274: 37,3745           31771                           DCA      TEMPROLL
000275: 37,3746           53665                           DXCH     ROLL/180
000276: 37,3747           31772                           CA       TEMPBETA
000277: 37,3750           55666                           TS       BETA/180
000278:
000279: 37,3751           00003                           RELINT
000280:
000281: 37,3752           06006                           TC       INTPRET                               #  CAN'T TC DANZIG AFTER PHASCHNG.
000282: 37,3753           51575        CM/POSE3           VLOAD    ABVAL                                 #  RETURN FROM CM/ATUP.  (RESTART)
000283: 37,3754           01177                                    VN                                    #  2(-7) M/CS
000284: 37,3755           03723                           STORE    VMAGI                                 #  FOR DISPLAY ON CALL.
000285:
000286: 37,3756           77650                           GOTO
000287: 37,3757           03324                                    POSEXIT                               #  ENDEXIT, STARTENT, OR SCALEPOP.
000288:
000289: 37,3760           54001        CORANGOV           TS       L
000290: 37,3761           00002                           TC       Q
000291: 37,3762           50000                           INDEX    A


000293: 37,3763           35000                           CA       LIMITS
000294: 37,3764           26001                           ADS      L
000295: 37,3765           00002                           TC       Q                                     #  COSTS 2 MCT TO USE.  SEE ANGOVCOR.
000296:
000297: 37,3766           45730 53410  -KVSCALE           2DEC     -.81491944                            #  -12800/(2 VS .3048)
000298:
000299: 37,3770           03146        TCDU               DEC      .1                                    #  TCDU = .1 SEC.
000300:
000301: 37,3771  E6,1661                                  EBANK=   AOG
000302: 37,3771           03744 76066  REPOSADR           2CADR    REDOPOSE
000303:

End of include-file CM_BODY_ATTITUDE.agc.  Parent file is MAIN.agc


