
Source Code


000002:                                                                                                  ## Copyright:   Public domain.
000003:                                                                                                  ## Filename:    CONIC_SUBROUTINES.agc
000004:                                                                                                  ## Purpose:     Part of the source code for Colossus 2A, AKA Comanche 055.
000005:                                                                                                  ##              It is part of the source code for the Command Module's (CM)
000006:                                                                                                  ##              Apollo Guidance Computer (AGC), for Apollo 11.
000007:                                                                                                  ## Assembler:   yaYUL
000008:                                                                                                  ## Contact:     Ron Burkey <info@sandroid.org>.
000009:                                                                                                  ## Website:     www.ibiblio.org/apollo.
000010:                                                                                                  ## Pages:       1262-1308
000011:                                                                                                  ## Mod history: 2009-05-08 RSB  Adapted from the Colossus249/ file of the
000012:                                                                                                  ##                              same name, using Comanche055 page images.
000013:                                                                                                  ##              2009-05-20 RSB  Corrected:  Fixed four interpreter
000014:                                                                                                  ##                              instructions.
000015:                                                                                                  ##              2016-12-22 RSB  Proofed comment text using octopus/ProoferComments
000016:                                                                                                  ##                              and corrected the errors found.
000017:                                                                                                  ##              2017-01-07 RSB  Fixed comment errors detected in cross-diff vs
000018:                                                                                                  ##                              Colossus 249.
000019:                                                                                                  ##              2017-01-21 RSB  Comment-text error fixes detected in diff'ing
000020:                                                                                                  ##                              vs Artemis 72.
000021:                                                                                                  ##              2017-01-28 RSB  WTIH -> WITH and WHCIH -> WHICH.
000022:                                                                                                  ##              2017-03-14 RSB  Comment-text fixes noted in proofing Luminary 116.
000023:                                                                                                  ##              2017-03-15 RSB  Comment-text fixes identified in 5-way
000024:                                                                                                  ##                              side-by-side diff of Luminary 69/99/116/131/210.
000025:
000026:                                                                                                  ## This source code has been transcribed or otherwise adapted from digitized
000027:                                                                                                  ## images of a hardcopy from the MIT Museum.  The digitization was performed
000028:                                                                                                  ## by Paul Fjeld, and arranged for by Deborah Douglas of the Museum.  Many
000029:                                                                                                  ## thanks to both.  The images (with suitable reduction in storage size and
000030:                                                                                                  ## consequent reduction in image quality as well) are available online at
000031:                                                                                                  ## www.ibiblio.org/apollo.  If for some reason you find that the images are
000032:                                                                                                  ## illegible, contact me at info@sandroid.org about getting access to the
000033:                                                                                                  ## (much) higher-quality images which Paul actually created.
000034:                                                                                                  ##
000035:                                                                                                  ## Notations on the hardcopy document read, in part:
000036:                                                                                                  ##
000037:                                                                                                  ##      Assemble revision 055 of AGC program Comanche by NASA
000038:                                                                                                  ##      2021113-051.  10:28 APR. 1, 1969
000039:                                                                                                  ##
000040:                                                                                                  ##      This AGC program shall also be referred to as
000041:                                                                                                  ##                      Colossus 2A
000042:


000044:                                                                                                  #  PROGRAM DESCRIPTION - ENTIRE CONIC SUBROUTINE LOG SECTION     DATE - 1 SEPTEMBER 1967
000045:                                                                                                  #  MOD NO. - 0                                                   LOG SECTION - CONIC SUBROUTINES
000046:                                                                                                  #  MOD BY KRAUSE                                                 ASSEMBLY - COLOSSUS REVISION 88
000047:
000048:                                                                                                  #  FUNCTIONAL DESCRIPTION -
000049:                                                                                                  #        THE FOLLOWING SET OF SUBROUTINES SOLVE VARIOUS PROBLEMS INVOLVING THE TRAJECTORY PRODUCED BY A CENTRAL
000050:                                                                                                  #        INVERSE-SQUARE FORCE ACTING ON A POINT MASS, AS OUTLINED IN THE CMC AND LGC LUNAR LANDING MISSION GSOP, SECTION
000051:                                                                                                  #        5.5.1.2.  A GENERAL USAGE POINT-OF-VIEW WAS TAKEN IN FORMULATING, MECHANIZING, AND SCALING THE SUBROUTINES,
000052:                                                                                                  #        RATHER THAN OPTIMIZING EACH FOR A PARTICULAR USE.  THEREFORE, MULTIPLE USAGE CAN BE MADE OF THE SUBROUTINES
000053:                                                                                                  #        INVOLVING ANY REALISTIC SET OF CONSTRAINTS.  IT SHOULD BE NOTED THAT ONLY ONE SET OF CODING IS USED, WHETHER THE
000054:                                                                                                  #        EARTH, MOON, OR ANY OTHER CELESTIAL BODY IS SPECIFIED AS THE CENTRAL BODY OF THE PROBLEM, PROVIDED ONE OBSERVES
000055:                                                                                                  #        THE INHERENT SCALE CHANGE REQUIRED IN POSITION, VELOCITY, MU, AND TIME, AS OUTLINED IN MISSION PROGRAMMING
000056:                                                                                                  #        DEFINITION MEMO NO. 10.  THIS CAN BE ACCOMPLISHED BY SIMPLY ADDING TO THE MUTABLE AND INITIALIZING THE SUBROU-
000057:                                                                                                  #        TINES APPROPRIATELY.
000058:
000059:                                                                                                  #        DUE TO THE UNIFORMITY OF THE EQUATIONS INVOLVED, CODING WAS MINIMIZED BY TREATING INDIVIDUAL EQUATIONS AND
000060:                                                                                                  #        BLOCKS OF EQUATIONS AS SUBROUTINES OF LOWER RANK WHENEVER POSSIBLE.  AS A RESULT, THREE BY-PRODUCTS SUBROUTINES,
000061:                                                                                                  #        DIRECTLY USABLE AS INDEPENDENT SUBROUTINES, WERE GENERATED.
000062:
000063:                                                                                                  #  RESTRICTIONS -
000064:                                                                                                  #        THE ONLY LIMITATION IN THE SCOPE OF PROBLEM WHICH CAN BE SOLVED BY A PARTICULAR SUBROUTINE IS THE SCALING
000065:                                                                                                  #        LIMIT OF EACH PARAMETER AS SPECIFIED IN THE GSOP.  THESE SCALING LIMITS WERE CHOSEN SO THAT ALL FEASIBLE TRAJEC-
000066:                                                                                                  #        TORIES COULD BE HANDLED.
000067:
000068:                                                                                                  #        SINCE THE SUBROUTINES (EXCEPT KEPLER) USE COMMON SUBROUTINES OF LOWER RANK WHICH USE ERASABLE OTHER THAN
000069:                                                                                                  #        THE PUSHLIST (DUE TO ITS LIMITED SIZE) AND COMMON INTERPRETIVE SWITCHES, THE CONIC SUBROUTINES CANNOT BE ALLOWED
000070:                                                                                                  #        TO INTERRUPT EACH OTHER.  IT IS UP TO THE USER TO GUARANTEE THIS CONDITION.
000071:


000073:                                                                                                  #  PROGRAM DESCRIPTION - KEPLER SUBROUTINE                       DATE - 11 OCTOBER 1967
000074:                                                                                                  #  MOD NO. - 1                                                   LOG SECTION - CONIC SUBROUTINES
000075:                                                                                                  #  MOD BY KRAUSE                                                 ASSEMBLY - COLOSSUS 103 AND SUNDANCE 222
000076:                                                                                                  #  MOD NO. - 2 (AUGUST 1968) BY ROBERTSON: TO PERMIT BACKDATING BY MORE THAN ONE ORBITAL PERIOD.
000077:                                                                                                  #  MOD NO. - 3 (DEC 1968) BY ROBERTSON: SUPPRESSION OF X-MODULO-ING
000078:                                                                                                  #  MOD. NO. - 4 (JAN 1969) BY ROBERTSON: CLEAR OVFIND AT KEPLER ENTRY
000079:
000080:                                                                                                  #  FUNCTIONAL DESCRIPTION -
000081:                                                                                                  #        THIS SUBROUTINE, GIVEN AN INITIAL STATE VECTOR AND THE DESIRED TRANSFER TIME THROUGH WHICH THE STATE IS TO
000082:                                                                                                  #        BE UPDATED ALONG A CONIC TRAJECTORY, COMPUTES THE NEW, UPDATED STATE VECTOR.  THE TRAJECTORY MAY BE ANY CONIC
000083:                                                                                                  #        SECTION - CIRCULAR, ELLIPTIC, PARABOLIC, HYPERBOLIC, OR RECTILINEAR WITH RESPECT TO THE EARTH OR THE MOON. THE
000084:                                                                                                  #        USE OF THE SUBROUTINE CAN BE EXTENDED USING OTHER PRIMARY BODIES BY SIMPLE ADDITIONS TO THE MUTABLE WITHOUT
000085:                                                                                                  #        INTRODUCING ANY CODING CHANGES, ACCEPTING THE INHERENT SCALE FACTOR CHANGES IN POSITION AND VELOCITY.  AN ITERA-
000086:                                                                                                  #        TION TECHNIQUE IS UTILIZED IN THE COMPUTATION.
000087:
000088:                                                                                                  #        IF A NEGATIVE TIME-OF-FLIGHT IS INPUT, THE PROGRAM WILL SOLVE FOR THE STATE WHICH WOULD BE PRODUCED BY
000089:                                                                                                  #        EXTRAPOLATING THE POSITION BACKWARD IN TIME.
000090:
000091:                                                                                                  #        IF THE ABSOLUTE VALUE OF THE DESIRED TRANSFER TIME EXCEEDS THE ORBITAL PERIOD, THE SUBROUTINE, THROUGH A
000092:                                                                                                  #        MODULAR TECHNIQUE, WILL COMPUTE THE STATE CORRESPONDING TO THE DESIRED TIME (WHETHER POSITIVE OR NEGATIVE).
000093:
000094:                                                                                                  #  THE RESTRICTIONS ARE -
000095:                                                                                                  #        1.      (PREVIOUS RESTRICTION ON THE NEGATIVE DESIRED TRANSFER TIME IS NOW DELETED.)
000096:                                                                                                  #        2.      THE PARAMETERS IN THE PROBLEM CANNOT EXCEED THEIR SCALING LIMITS AS SPECIFIED IN THE GSOP.  IF
000097:                                                                                                  #                ANY OF THESE LIMITS ARE EXCEEDED, THE RESULTING SOLUTION WILL BE MEANINGLESS.
000098:
000099:                                                                                                  #        THE NUMBER OF ITERATIONS AND, THEREFORE, THE COMPUTATION SPEED IS DEPENDENT ON THE ACCURACY OF THE
000100:                                                                                                  #        GUESS, XKFPNEW.  THE AGC COMPUTATION TIME IS APPROXIMATELY .061 SECONDS FOR INITIALIZATION, .065 SECONDS FOR THE
000101:                                                                                                  #        FINAL COMPUTATIONS, PLUS .083 SECONDS FOR EACH ITERATION.
000102:
000103:                                                                                                  #  REFERENCES -
000104:                                                                                                  #        R-479, MISSION PROGRAMMING DEFINITION MEMO NO. 10, LUNAR LANDING MISSION GSOP, SECTION 5.5, SGA
000105:                                                                                                  #        MEMO 67-4.
000106:
000107:                                                                                                  #  INPUT - ERASABLE INITIALIZATION REQUIRED
000108:                                                                                                  #                * SCALE FACTOR *
000109:                                                                                                  #        VARIABLE*IN POWERS OF 2*                         DESCRIPTION AND REMARKS
000110:                                                                                                  #        --------*--------------*                         -----------------------
000111:                                                                                                  #        RRECT   * +29 FOR EARTH*DP INITIAL POSITION VECTOR IN METERS
000112:                                                                                                  #                * +27 FOR MOON *


000114:                                                                                                  #        VRECT   * +7 FOR EARTH *DP INITIAL VELOCITY VECTOR IN METERS/CENTISECOND
000115:                                                                                                  #                * +5 FOR MOON  *
000116:                                                                                                  #        X1 (38D)* NONE         *INDEX REGISTER SET TO -2D OR -10D ACCORDING TO WHETHER THE EARTH OR MOON,
000117:                                                                                                  #                *              *RESPECTIVELY, IS THE CENTRAL BODY
000118:                                                                                                  #        TAU.    * +28          *DESIRED TRANSFER TIME IN CENTISECONDS (DP)
000119:                                                                                                  #                *              *    MAY BE POS OR NEG AND ABSOLUTE VALUE MAY BE GREATER OR LESS THAN ONE ORBITAL PERIOD.
000120:                                                                                                  #        XKEPNEW * +17 FOR EARTH*DP GUESS OF ROOT X OF KEPLERS EQN IN SQRT(METERS).SIGN SHOULD AGREE WITH THAT OF TAU.
000121:                                                                                                  #                * +16 FOR MOON *    AND ABS VALUE SHOULD BE LESS THAN THAT CORRESPONDING TO A PERIOD, VIZ, 2PI SQRT(SEMI-
000122:                                                                                                  #                *              *    MAJOR AXIS), FOR SPEED OF CONVERGENCE, BUT IF EITHER CONDITION FAILS, XKEPNEW IS RESET
000123:                                                                                                  #                *              *    BY KEPLER TO A POOR BUT VALID GUESS.
000124:                                                                                                  #        TC      * +28          *DP PREV. VALUE OF TIME IN CENTISECS. MUST BE LESS THAN ONE ORBITAL PERIOD.
000125:                                                                                                  #        XPREV   * +17 FOR EARTH*DP PREV. VALUE OF X IN SQRT(METERS).  MUST BE LESS THAN AN X CORRESPONDING TO ONE
000126:                                                                                                  #                * +16 FOR MOON *    ORBITAL PERIOD, VIZ, 2PI SQRT(SEMI-MAJOR AXIS)
000127:
000128:                                                                                                  #  SUBROUTINES CALLED -
000129:                                                                                                  #        DELTIME
000130:
000131:                                                                                                  #  CALLING SEQUENCE AND NORMAL EXIT MODES -
000132:                                                                                                  #        KEPRTN-2        GOTO                    MUST BE IN INTERPRETIVE MODE BUT OVFIND ARBITRARY.
000133:                                                                                                  #        KEPRTN-1                KEPLER          RETURNS WITH XPREV IN MPAC.  PL IS AT 0.
000134:                                                                                                  #        KEPRTN          ...                     CONTINUE
000135:
000136:                                                                                                  #        KEPLER MUST NOT BE CALLED DIRECTLY SINCE AN INTERRUPTION OF IT WOULD DESTROY THE ERASABLES IT NEEDS TO COMPLETE
000137:                                                                                                  #        THE INTERRUPTED JOB.  THEREFORE THE USER MUST CALL CSMCONIC OR LEMCONIC WHICH GUARANTEES NO INTERRUPTS AND WHICH
000138:                                                                                                  #        ALSO CALLS KEPPREP TO COMPUTE A GUESS OF XKEPNEW.
000139:
000140:                                                                                                  #  ABORT EXIT MODES -
000141:                                                                                                  #        NONE
000142:
000143:                                                                                                  #  OUTPUT -
000144:                                                                                                  #                * SCALE FACTOR *
000145:                                                                                                  #        VARIABLE*IN POWERS OF 2*                         DESCRIPTION AND REMARKS
000146:                                                                                                  #        --------*--------------*                         -----------------------
000147:                                                                                                  #        RCV     * +29 FOR EARTH*DP TERMINAL POSITION VECTOR IN METERS
000148:                                                                                                  #                * +27 FOR MOON *
000149:                                                                                                  #        VCV     * +7 FOR EARTH *DP TERMINAL VELOCITY VECTOR IN METERS/CENTISEC
000150:                                                                                                  #                * +5 FOR MOON  *
000151:                                                                                                  #        TC      * +28          *DP TRANSFER TIME IN CENTISECS TO WHICH KEPLER CONVERGED.  ALWAYS LESS THAN ONE PERIOD.
000152:                                                                                                  #        XPREV   * +17 FOR EARTH*DP VALUE OF X IN SQRT(METERS) TO WHCIH KEPLER CONVERGED. ALWAYS LESS THAN THE X
000153:                                                                                                  #                * +16 FOR MOON *    CORRESPONDING TO ONE PERIOD.


000155:                                                                                                  #        FOR OTHER OUTPUT WHICH MAY BE OF USE, SEE DEBRIS.
000156:
000157:                                                                                                  #  DEBRIS -
000158:                                                                                                  #        PARAMETERS WHICH MAY BE OF USE -
000159:                                                                                                  #                * SCALE FACTOR *
000160:                                                                                                  #        VARIABLE*IN POWERS OF 2*                         DESCRIPTION AND REMARKS
000161:                                                                                                  #        --------*--------------*                         -----------------------
000162:                                                                                                  #        URRECT  * +1           *DP UNIT VECTOR OF INITIAL POSITION
000163:                                                                                                  #        R1      * +29 FOR EARTH*DP MAGNITUDE OF INITIAL POSITION IN METERS
000164:                                                                                                  #                * +27 FOR MOON *
000165:                                                                                                  #        ALPHA   * -22 FOR EARTH*DP INVERSE OF SEMIMAJOR AXIS IN 1/METERS
000166:                                                                                                  #                * -20 FOR MOON *
000167:                                                                                                  #        TMODULO * +28          *DP INTEGRAL NUMBER OF PERIODS IN CENTISECS. WHICH WAS SUBTRACTED FROM TAU. TO PRODUCE A
000168:                                                                                                  #                *              *TAU. OF LESS THAN ONE PERIOD.
000169:
000170:                                                                                                  #  PARAMETERS OF NO USE -
000171:                                                                                                  #        DP PARAMETERS - EPSILONT, DELX, DELT, RCNORM, XMODULO, PLUS PUSHLIST REGISTERS 0 THROUGH 39D.
000172:


000174:                                                                                                  #  PROGRAM DESCRIPTION - LAMBERT SUBROUTINE                      DATE - 1 SEPTEMBER 1967
000175:                                                                                                  #  MOD NO. - 0                                                   LOG SECTION - CONIC SUBROUTINES
000176:                                                                                                  #  MOD BY KRAUSE                                                 ASSEMBLY - COLOSSUS REVISION 88
000177:
000178:                                                                                                  #  FUNCTIONAL DESCRIPTION -
000179:                                                                                                  #        THIS SUBROUTINE CALCULATES THE INITIAL VELOCITY REQUIRED TO TRANSFER A POINT-MASS ALONG A CONIC TRAJECTORY
000180:                                                                                                  #        FROM AN INITIAL POSITION TO A TERMINAL POSITION IN A PRESCRIBED TIME INTERVAL.  THE RESULTING TRAJECTORY MAY BE
000181:                                                                                                  #        A SECTION OF A CIRCLE, ELLIPSE, PARABOLA, OR HYPERBOLA WITH RESPECT TO THE EARTH OR THE MOON.  THE USE OF THE
000182:                                                                                                  #        SUBROUTINE CAN BE EXTENDED USING OTHER PRIMARY BODIES BY SIMPLE ADDITIONS TO THE MUTABLE WITHOUT INTRODUCING ANY
000183:                                                                                                  #        CODING CHANGES, ACCEPTING THE INHERENT SCALE FACTOR CHANGES IN POSITION AND VELOCITY.  AN ITERATION TECHNIQUE IS
000184:                                                                                                  #        UTILIZED IN THE COMPUTATION.
000185:
000186:                                                                                                  #  THE RESTRICTIONS ARE -
000187:                                                                                                  #        1. RECTILINEAR TRAJECTORIES CANNOT BE COMPUTED.
000188:                                                                                                  #        2. AN ACCURACY DEGRADATION OCCURS AS THE COSINE OF THE TRUE ANOMALY DIFFERENCE APPROACHES +1.0.
000189:                                                                                                  #        3. THE ANGLE BETWEEN ANY POSITION VECTOR AND ITS VELOCITY VECTOR MUST BE GREATER THAN 1 DEGREE 47.5 MINUTES
000190:                                                                                                  #           AND LESS THAN 178 DEGREES 12.5 MINUTES.
000191:                                                                                                  #        4. NEGATIVE TRANSFER TIME IS AMBIGUOUS AND WILL RESULT IN NO SOLUTION.
000192:                                                                                                  #        5. THE PARAMETERS IN THE PROBLEM MUST NOT EXCEED THEIR SCALING LIMITS SPECIFIED IN THE GSOP.  IF THE
000193:                                                                                                  #           LIMITS ARE EXCEEDED, THE RESULTING SOLUTION WILL BE MEANINGLESS.
000194:
000195:                                                                                                  #        THE NUMBER OF ITERATIONS AND, THEREFORE, THE COMPUTATIONS SPEED IS DEPENDENT ON THE ACCURACY OF THE FIRST
000196:                                                                                                  #        GUESS OF THE INDEPENDENT VARIABLE, COGA.                           THE AGC COMPUTATION TIME IS APPROXIMATE-
000197:                                                                                                  #        LY .105 SECONDS FOR INITIALIZATION, .069 SECONDS FOR FINAL COMPUTATIONS, PLUS .205 SECONDS FOR EACH ITERATION.
000198:
000199:                                                                                                  #  REFERENCES -
000200:                                                                                                  #        R-479, MISSION PROGRAMMING DEFINITION MEMO NO. 10, LUNAR LANDING MISSION GSOP - SECTION 5.5, SGA MEMO 67-8,
000201:                                                                                                  #        SGA MEMO 67-4.
000202:
000203:                                                                                                  #  INPUT - ERASABLE INITIALIZATION REQUIRED
000204:                                                                                                  #                * SCALE FACTOR *
000205:                                                                                                  #        VARIABLE*IN POWERS OF 2*                         DESCRIPTION AND REMARKS
000206:                                                                                                  #        --------*--------------*                         -----------------------
000207:                                                                                                  #        R1VEC   * +29 FOR EARTH*DP INITIAL POSITION VECTOR IN METERS
000208:                                                                                                  #                * +27 FOR MOON *
000209:                                                                                                  #        R2VEC   * +29 FOR EARTH*DP TARGET OR TERMINAL POSITION VECTOR IN METERS
000210:                                                                                                  #                * +27 FOR MOON *
000211:                                                                                                  #        TDESIRED* +28          *DP DESIRED TRANSFER TIME IN CENTISECONDS
000212:                                                                                                  #        X1 (38D)* NONE         *INDEX REGISTER SET TO -2D OR -10D ACCORDING TO WHETHER THE EARTH OR MOON,
000213:                                                                                                  #                *              *RESPECTIVELY, IS THE CENTRAL BODY
000214:                                                                                                  #        GEOMSGN * NONE         *SP +.5 IF DESIRED TRANSFER ANGLE IS LESS THAN 180 DEGREES, -.5 IF GREATER THAN 180 DEG.
000215:                                                                                                  #        GUESSW  * NONE         *AN INTERPRETER SWITCH TO BE SET IF NO GUESS OF COGA IS AVAILABLE, CLEAR IF A GUESS OF


000217:                                                                                                  #                *              *COGA IS TO BE USED BY LAMBERT
000218:                                                                                                  #        COGA    * +5           *DP GUESS OF COTANGNT OF FLIGHT PATH ANGLE (MEASURED FROM VERTICAL).  THIS WILL BE
000219:                                                                                                  #                               *IGNORED IF GUESSW IS SET.
000220:                                                                                                  #        NORMSW  * NONE         *AN INTERPRETER SWITCH TO BE SET IF UN IS TO BE AN INPUT TO THE SUBROUTINE, CLEAR IF
000221:                                                                                                  #                *              *LAMBERT IS TO COMPUTE ITS OWN NORMAL (UN).
000222:                                                                                                  #        UN      * +1           *DP UNIT NORMAL TO THE DESIRED ORBIT PLANE IN THE DIRECTION OF THE RESULTING ANGULAR
000223:                                                                                                  #                *              *MOMENTUM VECTOR.  THIS WILL BE IGNORED IF NORMSW IS CLEAR.
000224:                                                                                                  #        VTARGTAG* NONE         *A S.P. TAG TO BE SET TO ZERO IF LAMBERT IS TO COMPUTE THE VELOCITY AT R2VEC AS WELL AS
000225:                                                                                                  #                *              *AT R1VEC.
000226:
000227:                                                                                                  #  SUBROUTINES CALLED -
000228:                                                                                                  #        GEOM, GETX, DELTIME, ITERATOR, LAMENTER (PART OF NEWSTATE)
000229:
000230:                                                                                                  #  CALLING SEQUENCE AND NORMAL EXIT MODES -
000231:                                                                                                  #        L       CALL                    MUST BE IN INTERPRETIVE MODE BUT OVFIND ARBITRARY.
000232:                                                                                                  #        L+1             LAMBERT         RETURNS WITH PL AT 0 AND WITH VVEC IN MPAC IF VTARGTAG WAS NON-ZERO OR VTARGET
000233:                                                                                                  #                                        IN MPAC IF VTARGTAG WAS ZERO
000234:                                                                                                  #        L+2     BON                     CONTINUE IF SOLNSW CLEAR SINCE SOLUTION IS ACCEPTABLE
000235:                                                                                                  #        L+3             SOLNSW
000236:                                                                                                  #        L+4             LAMABORT
000237:
000238:                                                                                                  #        IF A LAMBERT RESULT IS TO BE A FIRST GUESS FOR THE NEXT LAMBERT CALCULATION, COGA MUST BE PRESERVED AND
000239:                                                                                                  #        GUESSW MUST BE CLEAR FOR EACH SUCCEEDING LAMBERT CALL.
000240:
000241:                                                                                                  #  ABORT EXIT MODES -
000242:                                                                                                  #        IF SOLNSW WAS SET UPON EXITING, EITHER LAMBERT WAS ASKED TO COMPUTE A TRANSFER TOO NEAR 0 OR 360 DEG, OR T
000243:                                                                                                  #        WAS TOO SMALL TO PRODUCE A REALISTIC TRANSFER BETWEEN R1VEC AND R2VEC.  IN EITHER CASE THE FIX MUST BE MADE
000244:                                                                                                  #        ACCORDING TO THE NEEDS OF THE PARTICULAR USER.  THE ABORT EXIT MODE MAY BE CODED AS ...
000245:                                                                                                  #        LAMABORT        DLOAD   ABS             A MEASURE OF PROXIMITY TO 0 OR
000246:                                                                                                  #                                1-CSTH          360 DEGREES.
000247:                                                                                                  #                        DSU     BMN
000248:                                                                                                  #                                ONEBIT
000249:                                                                                                  #                                CHANGER2        CHANGE R2VEC DIRECTION SLIGHTLY.
000250:                                                                                                  #                        DLOAD   DAD
000251:                                                                                                  #                                TDESIRED
000252:                                                                                                  #                                SOMETIME
000253:                                                                                                  #                        STCALL  TDESIRED        INCREASE TDESIRED
000254:                                                                                                  #                                LAMBERT
000255:
000256:                                                                                                  #  OUTPUT -
000257:                                                                                                  #                * SCALE FACTOR *
000258:                                                                                                  #        VARIABLE*IN POWERS OF 2*                         DESCRIPTION AND REMARKS


000260:                                                                                                  #        --------*--------------*                         -----------------------
000261:                                                                                                  #        VVEC    * +7 FOR EARTH *DP INITIAL VELOCITY VECTOR IN METERS/CENTISECOND REQUIRED TO SATISFY THE BOUNDARY VALUE
000262:                                                                                                  #                * +5 FOR MOON  *PROBLEM.
000263:                                                                                                  #        VTARGET * +7 FOR EARTH *DP RESULTANT VELOCITY VECTOR AT R2VEC IN METERS/CENTISECOND.
000264:                                                                                                  #                * +5 FOR MOON  *
000265:                                                                                                  #        SOLNSW  * NONE         *INTERPRETER SWITCH WHICH IS SET IF THE SUBROUTINE CANNOT SOLVE THE PROBLEM, CLEAR IF THE
000266:                                                                                                  #                *              *SOLUTION EXISTS.
000267:
000268:                                                                                                  #        FOR OTHER OUTPUT WHICH MAY BE OF USE, SEE DEBRIS.
000269:
000270:                                                                                                  #  DEBRIS -
000271:                                                                                                  #        PARAMETERS WHICH MAY BE OF USE -
000272:                                                                                                  #                * SCALE FACTOR *
000273:                                                                                                  #        VARIABLE*IN POWERS OF 2*                         DESCRIPTION AND REMARKS
000274:                                                                                                  #        --------*--------------*                         -----------------------
000275:                                                                                                  #        SNTH    * +1           *DP SIN OF ANGLE BETWEEN R1VEC AND R2VEC
000276:                                                                                                  #        CSTH    * +1           *DP COSINE OF ANGLE
000277:                                                                                                  #        1-CSTH  * +2           *DP 1-CSTH
000278:                                                                                                  #        COGA    * +5           *DP COTAN OF INITIAL REQUIRED FLIGHT PATH ANGLE MEASURED FROM VERTICAL
000279:                                                                                                  #        P       * +4           *DP RATIO OF SEMILATUS RECTUM TO INITIAL RADIUS
000280:                                                                                                  #        R1A     * +6           *DP RATIO OF INITIAL RADIUS TO SEMIMAJOR AXIS
000281:                                                                                                  #        R1 (32D)* +29 FOR EARTH*DP INITIAL RADIUS IN METERS
000282:                                                                                                  #                * +27 FOR MOON *
000283:                                                                                                  #        UR1     * +1           *DP UNIT VECTOR OF R1VEC
000284:                                                                                                  #        U2      * +1           *DP UNIT VECTOR OF R2VEC
000285:
000286:                                                                                                  #        PARAMETERS OF NO USE
000287:                                                                                                  #                DP PARAMETERS - EPSILONL, CSTH-RHO, TPREV, TERRLAMB, R2, RTNLAMB (SP), PLUS PUSHLIST REGISTER 0 THROUGH 41D
000288:                                                                                                  #                ADDITIONAL INTERPRETIVE SWITCHES USED - INFINFLG, 360SW, SLOPESW, ORDERSW
000289:


000291:                                                                                                  #  PROGRAM DESCRIPTION - TIME-THETA SUBROUTINE                   DATE - 1 SEPTEMBER 1967
000292:                                                                                                  #  MOD NO. - 0                                                   LOG SECTION - CONIC SUBROUTINES
000293:                                                                                                  #  MOD BY KRAUSE                                                 ASSEMBLY - COLOSSUS REVISION 88
000294:
000295:                                                                                                  #  FUNCTIONAL DESCRIPTION -
000296:                                                                                                  #        THIS SUBROUTINE, GIVEN AN INITIAL STATE VECTOR AND A DESIRED TRUE-ANOMALY-DIFFERENCE THROUGH WHICH THE
000297:                                                                                                  #        STATE IS TO BE UPDATED ALONG A CONIC TRAJECTORY, CALCULATES THE CORRESPONDING TIME-OF-FLIGHT AND, IN ADDITION,
000298:                                                                                                  #        PROVIDES THE OPTION OF COMPUTING THE NEW UPDATED STATE VECTOR.  THE RESULTING TRAJECTORY MAY BE A SECTION OF A
000299:                                                                                                  #        CIRCLE, ELLIPSE, PARABOLA, OR HYPERBOLA WITH RESPECT TO THE EARTH OR THE MOON.  THE USE OF THE SUBROUTINE CAN BE
000300:                                                                                                  #        EXTENDED USING OTHER PRIMARY BODIES BY SIMPLE ADDITIONS TO THE MUTABLE WITHOUT INTRODUCING ANY CODING CHANGES,
000301:                                                                                                  #        ACCEPTING THE INHERENT SCALE FACTOR CHANGES IN POSITION AND VELOCITY.
000302:
000303:                                                                                                  #  THE RESTRICTIONS ARE -
000304:                                                                                                  #        1. THE ANGLE BETWEEN ANY POSITION VECTOR AND ITS VELOCITY VECTOR MUST BE GREATER THAN 1 DEGREE 47.5 MINUTES
000305:                                                                                                  #           AND LESS THAN 178 DEGREES 12.5 MINUTES.
000306:                                                                                                  #        2. THE PARAMETERS IN THE PROBLEM MUST NOT EXCEED THEIR SCALING LIMITS SPECIFIED IN THE GSOP.  IF THE LIMITS
000307:                                                                                                  #           ARE EXCEEDED, THE RESULTING SOLUTION WILL BE MEANINGLESS.
000308:
000309:                                                                                                  #        THE AGC COMPUTATION TIME IS APPROXIMATELY .292 SECONDS.
000310:
000311:                                                                                                  #  REFERENCES -
000312:                                                                                                  #        R-479, MISSION PROGRAMMING DEFINITION MEMO NO. 10, LUNAR LANDING MISSION GSOP-SECTION 5.5, SGA MEMO 67-8.
000313:
000314:                                                                                                  #  INPUT - ERASABLE INITIALIZATION REQUIRED
000315:                                                                                                  #                * SCALE FACTOR *
000316:                                                                                                  #        VARIABLE*IN POWERS OF 2*                         DESCRIPTION AND REMARKS
000317:                                                                                                  #        --------*--------------*                         -----------------------
000318:                                                                                                  #        RVEC    * +29 FOR EARTH*DP INITIAL POSITION VECTOR IN METERS
000319:                                                                                                  #                * +27 FOR MOON *
000320:                                                                                                  #        VVEC    * +7 FOR EARTH *DP INITIAL VELOCITY VECTOR IN METERS/CENTISECOND
000321:                                                                                                  #                * +5 FOR MOON  *
000322:                                                                                                  #        SNTH    * +1           *DP SINE OF TRUE-ANOMALY-DIFFERENCE THROUGH WHICH THE STATE IS TO BE UPDATED
000323:                                                                                                  #        CSTH    * +1           *DP COSINE OF THE ANGLE
000324:                                                                                                  #        RVSW    * NONE         *AN INTERPRETIVE SWITCH TO BE SET IF ONLY TIME IS TO BE AN OUTPUT, CLEAR IF THE NEW STATE
000325:                                                                                                  #                *              *IS TO BE COMPUTED ALSO.
000326:                                                                                                  #        X1 (38D)* NONE         *INDEX REGISTER TO BE SET TO -2D OR -10D ACCORDING TO WHETHER THE EARTH OR MOON,
000327:                                                                                                  #                *              *RESPECTIVELY, IS THE CENTRAL BODY.
000328:
000329:                                                                                                  #  SUBROUTINES CALLED -


000331:                                                                                                  #        PARAM, GEOM, GETX, DELTIME, NEWSTATE
000332:
000333:                                                                                                  #  CALLING SEQUENCE AND NORMAL EXIT MODES -
000334:                                                                                                  #        IF ONLY TIME IS DESIRED AS OUTPUT -
000335:                                                                                                  #        L       SET     CALL            MUST BE IN INTERPRETIVE MODE BUT OVFIND ARBITRARY.
000336:                                                                                                  #        L+1             RVSW
000337:                                                                                                  #        L+2             TIMETHET        RETURN WITH PL AT 0 AND T IN MPAC
000338:                                                                                                  #        L+3     ...                     CONTINUE
000339:
000340:                                                                                                  #        IF THE UPDATE STATE VECTOR IS DESIRED AS WELL -
000341:                                                                                                  #        L       CLEAR   CALL            MUST BE IN INTERPRETIVE MODE BUT OVFIND ARBITRARY.
000342:                                                                                                  #        L+1             RVSW
000343:                                                                                                  #        L+2             TIMETHET        RETURNS WITH PL AT 6.  THE INITIAL POSITION VECTOR IS IN 0D OF THE PUSHLIST AND
000344:                                                                                                  #                                        THE INITIAL VELOCITY VECTOR IN MPAC.
000345:                                                                                                  #        L+3     STOVL   NEWVVEC
000346:                                                                                                  #        L+4     STADR
000347:                                                                                                  #        L+5     STORE   NEWRVEC         NEWVVEC AND NEWRVEC ARE SYMBOLIC REPRESENTATIONS OF THE USERS LOCATIONS.
000348:                                                                                                  #        L+6     ...                     CONTINUE
000349:
000350:                                                                                                  #  ABORT EXIT MODES -
000351:                                                                                                  #        IF COGAFLAG AND/OR INFINFLG IS SET AT THE EXIT TO TIME-THETA, TIME-THETA WILL TRANSFER TO POODOO WITH
000352:                                                                                                  #        AN ALARM CODE (ORIGINALLY 00607), AND NOT RETURN TO THE CALLING PROGRAM.  (PCR 692 AND 721).
000353:
000354:                                                                                                  #  OUTPUT -
000355:                                                                                                  #                * SCALE FACTOR *
000356:                                                                                                  #        VARIABLE*IN POWERS OF 2*                         DESCRIPTION AND REMARKS
000357:                                                                                                  #        --------*--------------*                         -----------------------
000358:                                                                                                  #        T(30D)  * +28          *DP TRANSFER TIME IN CENTISECONDS
000359:                                                                                                  #        INFINFLG* NONE         *AN INTERPRETIVE SWITCH WHICH IS SET IF THE TRANSFER ANGLE REQUIRES CLOSURE THROUGH
000360:                                                                                                  #                *              *INFINITY (NO SOLUTION), CLEAR IF A PHYSICAL SOLUTION IS POSSIBLE.
000361:                                                                                                  #        COGAFLAG* NONE         *AN INTERPRETIVE SWITCH WHICH IS SET IF RESTRICTION 1 HAS BEEN VIOLATED (NO SOLUTION),
000362:                                                                                                  #                *              *CLEAR IF NOT.
000363:
000364:                                                                                                  #        IN ADDITION, IF RVSW IS CLEAR, THE FOLLOWING ARE OUTPUT -
000365:                                                                                                  #        MPAC -  * +7 FOR EARTH *DP TERMINAL VELOCITY VECTOR IN METERS/CENTISEC.
000366:                                                                                                  #         MPAC +5* +5 FOR MOON  *
000367:                                                                                                  #        0D - 5D * +29 FOR EARTH*DP TERMINAL POSITION VECTOR IN METERS (PL AT 6D)
000368:                                                                                                  #                * +27 FOR MOON *
000369:
000370:                                                                                                  #        FOR OTHER OUTPUT WHICH MAY BE OF USE, SEE DEBRIS.


000372:
000373:                                                                                                  #  DEBRIS -
000374:                                                                                                  #        PARAMETERS WHICH MAY BE OF USE -
000375:                                                                                                  #                * SCALE FACTOR *
000376:                                                                                                  #        VARIABLE*IN POWERS OF 2*                         DESCRIPTION AND REMARKS
000377:                                                                                                  #        --------*--------------*                         -----------------------
000378:                                                                                                  #        R1 (32D)* +29 FOR EARTH*DP MAGNITUDE OF INITIAL POSITION VECTOR, RVEC, IN METERS
000379:                                                                                                  #                * +27 FOR MOON *
000380:                                                                                                  #        R1A     * +6           *DP RATIO OF R1 TO SEMIMAJOR AXIS (NEG. FOR HYPERBOLIC TRAJECTORIES)
000381:                                                                                                  #        P       * +4           *DP RATIO OF SEMILATUS RECTUM TO R1
000382:                                                                                                  #        COGA    * +5           *DP COTAN OF ANGLE BETWEEN RVEC AND VVEC
000383:                                                                                                  #        UR1     * +1           *DP UNIT VECTOR OF RVEC
000384:                                                                                                  #        U2      * +1           *DP UNIT VECTOR OF VVEC
000385:                                                                                                  #        UN      * +1           *DP UNIT VECTOR OF UR1*U2
000386:
000387:                                                                                                  #  PARAMETERS OF NO USE -
000388:                                                                                                  #        SP PARAMETERS - RTNTT, GEOMSGN, RTNPRM, MAGVEC2=R2 (DP), PLUS PUSHLIST LOCATIONS 0-11D, 14D-21D, 24D-39D, 41D
000389:                                                                                                  #        ADDITIONAL INTERPRETIVE SWITCHES USED - NORMSW, 360SW
000390:


000392:                                                                                                  #  PROGRAM DESCRIPTION - TIME-RADIUS SUBROUTINE          DATE - 11 OCTOBER 1967
000393:                                                                                                  #  MOD NO. -1                                            LOG SECTION - CONIC SUBROUTINES
000394:                                                                                                  #  MOD BY KRAUSE                                         ASSEMBLY - COLOSSUS REVISION 88
000395:
000396:                                                                                                  #  FUNCTIONAL DESCRIPTION -
000397:                                                                                                  #        THIS SUBROUTINE, GIVEN AN INITIAL STATE VECTOR AND A DESIRED RADIUS TO WHICH THE
000398:                                                                                                  #        STATE IS TO BE UPDATED ALONG A CONIC TRAJECTORY, CALCULATES THE CORRESPONDING TIME-OF-FLIGHT AND, IN ADDITION,
000399:                                                                                                  #        PROVIDES THE OPTION OF COMPUTING THE NEW UPDATED STATE VECTOR.  THE RESULTING TRAJECTORY MAY BE A SECTION OF A
000400:                                                                                                  #        CIRCLE, ELLIPSE, PARABOLA, OR HYPERBOLA WITH RESPECT TO THE EARTH OR THE MOON.  THE USE OF THE SUBROUTINE CAN BE
000401:                                                                                                  #        EXTENDED USING OTHER PRIMARY BODIES BY SIMPLE ADDITIONS TO THE MUTABLE WITHOUT INTRODUCING ANY CODING CHANGES,
000402:                                                                                                  #        ACCEPTING THE INHERENT SCALE FACTOR CHANGES IN POSITION AND VELOCITY.
000403:
000404:                                                                                                  #        IF THE DESIRED RADIUS IS BEYOND THE RADIUS OF APOCENTER OF THE CONIC OR BELOW THE RADIUS OF PERICENTER,
000405:                                                                                                  #        APSESW WILL BE SET AND THE SUBROUTINE WILL RETURN THE APOCENTER OR PERICENTER SOLUTION, RESPECTIVELY.
000406:
000407:                                                                                                  #  THE RESTRICTIONS ARE -
000408:                                                                                                  #        1. THE ANGLE BETWEEN ANY POSITION VECTOR AND ITS VELOCITY VECTOR MUST BE GREATER THAN 1 DEGREE 47.5 MINUTES
000409:                                                                                                  #           AND LESS THAN 178 DEGREES 12.5 MINUTES.
000410:                                                                                                  #        2. THE PARAMETERS IN THE PROBLEM MUST NOT EXCEED THEIR SCALING LIMITS SPECIFIED IN THE GSOP.  IF THE LIMITS
000411:                                                                                                  #           ARE EXCEEDED, THE RESULTING SOLUTION WILL BE MEANINGLESS.
000412:                                                                                                  #        3. AN ACCURACY DEGRADATION OCCURS AS THE SENSITIVITIES OF TIME AND UPDATED STATE VECTOR TO CHANGES IN
000413:                                                                                                  #           RDESIRED INCREASE.  THIS WILL OCCUR NEAR EITHER APSIS OF THE CONIC AND WHEN THE CONIC IS NEARLY CIRCULAR.  IN
000414:                                                                                                  #           PARTICULAR, IF THE CONIC IS AN EXACT CIRCLE, THE PROBLEM IS UNDEFINED AND THE SUBROUTINE WILL ABORT.
000415:
000416:                                                                                                  #        THE AGC COMPUTATION TIME IS APPROXIMATELY .363 SECONDS
000417:
000418:                                                                                                  #  REFERENCES -
000419:                                                                                                  #        R-479, MISSION PROGRAMMING DEFINITION MEMO NO. 10, LUNAR LANDING MISSION GSOP-SECTION 5.5, SGA MEMO 67-8.
000420:
000421:                                                                                                  #  INPUT - ERASABLE INITIALIZATION REQUIRED
000422:                                                                                                  #                * SCALE FACTOR *
000423:                                                                                                  #        VARIABLE*IN POWERS OF 2*                         DESCRIPTION AND REMARKS
000424:                                                                                                  #        --------*--------------*                         -----------------------
000425:                                                                                                  #        RVEC    * +29 FOR EARTH*DP INITIAL POSITION VECTOR IN METERS
000426:                                                                                                  #                * +27 FOR MOON *
000427:                                                                                                  #        VVEC    * +7 FOR EARTH *DP INITIAL VELOCITY VECTOR IN METERS/CENTISECOND
000428:                                                                                                  #                * +5 FOR MOON  *
000429:                                                                                                  #        RDESIRED* +29 FOR EARTH*DP TERMINAL RADIAL DISTANCE ON CONIC TRAJECTORY FOR WHICH TRANSFER TIME IS TO BE
000430:                                                                                                  #                * +27 FOR MOON *COMPUTED.
000431:                                                                                                  #        SGNRDOT * NONE         *SP TAG SET TO +.5 OR -.5 ACCORDING TO WHETHER THE RADIAL VELOCITY AT RDESIRED IS TO BE
000432:                                                                                                  #                *              *POSITIVE OR NEGATIVE, RESPECTIVELY.   THIS TAG REDUCES THE DOUBLE-VALUED PROBLEM TO A


000434:                                                                                                  #                *              *SINGLE-VALUED PROBLEM.
000435:                                                                                                  #        X1 (38D)* NONE         *INDEX REGISTER TO BE SET TO -2D OR -10D ACCORDING TO WHETHER THE EARTH OR MOON,
000436:                                                                                                  #                *              *RESPECTIVELY, IS THE CENTRAL BODY.
000437:                                                                                                  #        RVSW    * NONE         *AN INTERPRETIVE SWITCH TO BE SET IF ONLY TIME IS TO BE AN OUTPUT, CLEAR IF THE NEW STATE
000438:                                                                                                  #                *              *IS TO BE COMPUTED ALSO.
000439:
000440:                                                                                                  #  SUBROUTINES CALLED -
000441:                                                                                                  #        PARAM, GEOM, GETX, DELTIME, NEWSTATE
000442:
000443:                                                                                                  #  CALLING SEQUENCE AND NORMAL EXIT MODES -
000444:                                                                                                  #        IF ONLY TIME IS DESIRED AS OUTPUT -
000445:                                                                                                  #        L       SET     CALL            MUST BE IN INTERPRETIVE MODE BUT OVFIND ARBITRARY.
000446:                                                                                                  #        L+1             RVSW
000447:                                                                                                  #        L+2             TIMERAD         RETURN WITH PL AT 0 AND T IN MPAC
000448:                                                                                                  #        L+3     ...                     CONTINUE
000449:
000450:                                                                                                  #        IF THE UPDATE STATE VECTOR IS DESIRED AS WELL -
000451:                                                                                                  #        L       CLEAR   CALL            MUST BE IN INTERPRETIVE MODE BUT OVFIND ARBITRARY.
000452:                                                                                                  #        L+1             RVSW
000453:                                                                                                  #        L+2             TIMERAD         RETURNS WITH PL AT 6.  THE INITIAL POSITION VECTOR IS IN 0D OF THE PUSHLIST AND
000454:                                                                                                  #                                        THE INITIAL VELOCITY VECTOR IN MPAC.
000455:                                                                                                  #        L+3     STOVL   NEWVVEC
000456:                                                                                                  #        L+4     STADR
000457:                                                                                                  #        L+5     STORE   NEWRVEC         NEWVVEC AND NEWRVEC ARE SYMBOLIC REPRESENTATIONS OF THE USERS LOCATIONS.
000458:                                                                                                  #        L+6     ...                     CONTINUE
000459:
000460:                                                                                                  #  ABORT EXIT MODES -
000461:                                                                                                  #        IF SOLNSW AND/OR COGAFLAG AND/OR INFINFLG IS SET AT THE EXIT TO TIME-RADIUS, TIME-RADIUS WILL TRANSFER
000462:                                                                                                  #        TO POODOO WITH AN ALARM CODE (ORIGINALLY 00607), AND NOT RETURN TO THE CALLING PROGRAM.  (PCR 692 & 721)
000463:
000464:                                                                                                  #  OUTPUT -
000465:                                                                                                  #                * SCALE FACTOR *
000466:                                                                                                  #        VARIABLE*IN POWERS OF 2*                         DESCRIPTION AND REMARKS
000467:                                                                                                  #        --------*--------------*                         -----------------------
000468:                                                                                                  #        T (30D) * +28          *DP TRANSFER TIME IN CENTISECONDS
000469:                                                                                                  #        INFINFLG* NONE         *AN INTERPRETIVE SWITCH WHICH IS SET IF RDESIRED AND SGNRDOT REQUIRE CLOSURE THROUGH
000470:                                                                                                  #                *              *INFINITY (NO SOLUTION), CLEAR IF A PHYSICAL SOLUTION IS POSSIBLE.
000471:                                                                                                  #        COGAFLAG* NONE         *AN INTERPRETIVE SWITCH WHICH IS SET IF RESTRICTION 1 HAS BEEN VIOLATED (NO SOLUTION),
000472:                                                                                                  #                *              *CLEAR IF NOT.
000473:                                                                                                  #        APSESW  * NONE         *AN INTERPRETIVE SWITCH WHICH IS SET IF RDESIRED WAS GREATER THAN RADIUS OF APOCENTER OR


000475:                                                                                                  #                *              *LESS THAN RADIUS OF PERICENTER.  THE APOCENTER OR PERICENTER SOLUTION, RESPECTIVELY,
000476:                                                                                                  #                *              *WILL THEN BE RETURNED.  THE SWITCH IS CLEAR IF RDESIRED WAS BETWEEN PERICENTER AND
000477:                                                                                                  #                *              *APOCENTER.
000478:                                                                                                  #        SOLNSW  * NONE         *AN INTERPRETIVE SWITCH WHICH IS SET IF THE CONIC IS SO CLOSE TO A CIRCLE THAT THE TERMIN
000479:                                                                                                  #                               *POINT IS AMBIGUOUS, VIOLATING RESTRICTION 3.  IF ECCENTRICITY IS GREATER THAN 2-TO-THE-
000480:                                                                                                  #                               *MINUS-18, THE SWITCH IS CLEAR.
000481:
000482:                                                                                                  #        IN ADDITION, IF RVSW IS CLEAR, THE FOLLOWING ARE OUTPUT -
000483:                                                                                                  #        MPAC -  * +7 FOR EARTH *DP TERMINAL VELOCITY VECTOR IN METERS/CENTISEC.
000484:                                                                                                  #         MPAC +5* +5 FOR MOON  *
000485:                                                                                                  #        0D - 5D * +29 FOR EARTH*DP TERMINAL POSITION VECTOR IN METERS (PL AT 6D)
000486:                                                                                                  #                * +27 FOR MOON *
000487:
000488:                                                                                                  #        FOR OTHER OUTPUT WHICH MAY BE OF USE, SEE DEBRIS.
000489:
000490:                                                                                                  #  DEBRIS -
000491:                                                                                                  #        PARAMETERS WHICH MAY BE OF USE -
000492:                                                                                                  #                * SCALE FACTOR *
000493:                                                                                                  #        VARIABLE*IN POWERS OF 2*                         DESCRIPTION AND REMARKS
000494:                                                                                                  #        --------*--------------*                         -----------------------
000495:                                                                                                  #        R1 (32D)* +29 FOR EARTH*DP MAGNITUDE OF INITIAL POSITION VECTOR, RVEC, IN METERS
000496:                                                                                                  #                * +27 FOR MOON *
000497:                                                                                                  #        R1A     * +6           *DP RATIO OF R1 TO SEMIMAJOR AXIS (NEG. FOR HYPERBOLIC TRAJECTORIES)
000498:                                                                                                  #        P       * +4           *DP RATIO OF SEMILATUS RECTUM TO R1
000499:                                                                                                  #        COGA    * +5           *DP COTAN OF ANGLE BETWEEN RVEC AND VVEC
000500:                                                                                                  #        UR1     * +1           *DP UNIT VECTOR OF RVEC
000501:                                                                                                  #        U2      * +1           *DP UNIT VECTOR OF VVEC
000502:                                                                                                  #        UN      * +1           *DP UNIT VECTOR OF UR1*U2
000503:                                                                                                  #        CSTH    * +1           *DP COSINE OF TRUE ANOMALY DIFFERENCE BETWEEN RVEC AND RDESIRED.
000504:                                                                                                  #        SNTH    * +1           *DP SINE OF TRUE ANOMALY DIFFERENCE.
000505:
000506:                                                                                                  #        PARAMETERS OF NO USE -
000507:                                                                                                  #                SP PARAMETERS - RTNTT, GEOMSGN, RTNPRM, MAGVEC2=R2 (DP), PLUS PUSHLIST LOCATIONS 0-11D, 14D-21D, 24D-39D, 41D
000508:                                                                                                  #                ADDITIONAL INTERPRETIVE SWITCHES USED - NORMSW, 360SW
000509:
000510:


000512:                                                                                                  #  PROGRAM DESCRIPTION - APSIDES SUBROUTINE              DATE - 1 SEPTEMBER 1967
000513:                                                                                                  #  MOD NO. - 0                                           LOG SECTION - CONIC SUBROUTINES
000514:                                                                                                  #  MOD BY KRAUSE                                         ASSEMBLY - COLOSSUS REVISION 88
000515:
000516:                                                                                                  #  FUNCTIONAL DESCRIPTION -
000517:                                                                                                  #        THIS SUBROUTINE, GIVEN AN INITIAL STATE VECTOR CALCULATES THE RADIUS OF PERICENTER AND OF APOCENTER AND THE
000518:                                                                                                  #        ECCENTRICITY OF THE RESULTING CONIC TRAJECTORY, WHICH MAY BE A STRAIGHT LINE,
000519:                                                                                                  #        CIRCLE, ELLIPSE, PARABOLA, OR HYPERBOLA WITH RESPECT TO THE EARTH OR THE MOON.  THE USE OF THE SUBROUTINE CAN BE
000520:                                                                                                  #        EXTENDED USING OTHER PRIMARY BODIES BY SIMPLE ADDITIONS TO THE MUTABLE WITHOUT INTRODUCING ANY CODING CHANGES,
000521:                                                                                                  #        ACCEPTING THE INHERENT SCALE FACTOR CHANGES IN POSITION AND VELOCITY.
000522:
000523:                                                                                                  #  THE RESTRICTIONS ARE -
000524:                                                                                                  #        1. IF APOCENTER IS BEYOND THE SCALING OF POSITION, THE SCALE FACTOR LIMIT (536,870,910 METERS WITH RESPECT
000525:                                                                                                  #           TO THE EARTH OR 134,217,727.5 METERS WITH RESPECT TO THE MOON) WILL BE RETURNED.
000526:                                                                                                  #        2. THE PARAMETERS IN THE PROBLEM MUST NOT EXCEED THEIR SCALING LIMITS SPECIFIED IN THE GSOP.  IF THE LIMITS
000527:                                                                                                  #           ARE EXCEEDED, THE RESULTING SOLUTION WILL BE MEANINGLESS.
000528:
000529:                                                                                                  #        THE AGC COMPUTATION TIME IS APPROXIMATELY .103 SECONDS.
000530:
000531:                                                                                                  #  REFERENCES -
000532:                                                                                                  #        MISSION PROGRAMMING DEFINITION MEMO NO. 10, LUNAR LANDING MISSION GSOP-SECTION 5.5
000533:
000534:                                                                                                  #  INPUT - ERASABLE INITIALIZATION REQUIRED
000535:                                                                                                  #                * SCALE FACTOR *
000536:                                                                                                  #        VARIABLE*IN POWERS OF 2*                         DESCRIPTION AND REMARKS
000537:                                                                                                  #        --------*--------------*                         -----------------------
000538:                                                                                                  #        RVEC    * +29 FOR EARTH*DP INITIAL POSITION VECTOR IN METERS
000539:                                                                                                  #                * +27 FOR MOON *
000540:                                                                                                  #        VVEC    * +7 FOR EARTH *DP INITIAL VELOCITY VECTOR IN METERS/CENTISECOND
000541:                                                                                                  #                * +5 FOR MOON  *
000542:                                                                                                  #        X1 (38D)* NONE         *INDEX REGISTER TO BE SET TO -2D OR -10D ACCORDING TO WHETHER THE EARTH OR MOON,
000543:                                                                                                  #                *              *RESPECTIVELY, IS THE CENTRAL BODY.
000544:
000545:                                                                                                  #  SUBROUTINES CALLED -
000546:                                                                                                  #        PARAM, GEOM
000547:
000548:                                                                                                  #  CALLING SEQUENCE AND NORMAL EXIT MODES -


000550:                                                                                                  #        IF ONLY TIME IS DESIRED AS OUTPUT -
000551:                                                                                                  #        L       CALL                    MUST BE IN INTERPRETIVE MODE BUT OVFIND ARBITRARY.
000552:                                                                                                  #        L+1             APSIDES         RETURNS WITH PL AT 0, RADIUS OF APOCENTER IN MPAC AND RADIUS OF PERICENTER IN 0D
000553:                                                                                                  #        L+2     STODL   APOAPSE
000554:                                                                                                  #        L+3             0D
000555:                                                                                                  #        L+4     STORE   PERIAPSE        APOAPSE AND PERIAPSE ARE SYMBOLIC REPRESENTATIONS OF THE USERS LOCATIONS
000556:                                                                                                  #        L+5     ...                     CONTINUE
000557:
000558:                                                                                                  #  OUTPUT -
000559:                                                                                                  #                * SCALE FACTOR *
000560:                                                                                                  #        VARIABLE*IN POWERS OF 2*                         DESCRIPTION AND REMARKS
000561:                                                                                                  #        --------*--------------*                         -----------------------
000562:                                                                                                  #        MPAC    * +29 FOR EARTH*DP RADIUS OF APOCENTER IN METERS
000563:                                                                                                  #                * +27 FOR MOON *
000564:                                                                                                  #        0D-1D   * +29 FOR EARTH*DP RADIUS OF PERICENTER IN METERS
000565:                                                                                                  #                * +27 FOR MOON *
000566:                                                                                                  #        ECC     * +3           *DP ECCENTRICITY OF CONIC TRAJECTORY.
000567:
000568:                                                                                                  #        FOR OTHER OUTPUT WHICH MAY BE OF USE, SEE DEBRIS.
000569:
000570:                                                                                                  #  DEBRIS -
000571:                                                                                                  #        PARAMETERS WHICH MAY BE OF USE -
000572:                                                                                                  #                * SCALE FACTOR *
000573:                                                                                                  #        VARIABLE*IN POWERS OF 2*                         DESCRIPTION AND REMARKS
000574:                                                                                                  #        --------*--------------*                         -----------------------
000575:                                                                                                  #        R1 (32D)* +29 FOR EARTH*DP MAGNITUDE OF INITIAL POSITION VECTOR, RVEC, IN METERS
000576:                                                                                                  #                * +27 FOR MOON *
000577:                                                                                                  #        R1A     * +6           *DP RATIO OF R1 TO SEMIMAJOR AXIS (NEG. FOR HYPERBOLIC TRAJECTORIES)
000578:                                                                                                  #        P       * +4           *DP RATIO OF SEMILATUS RECTUM TO R1
000579:                                                                                                  #        COGA    * +5           *DP COTAN OF ANGLE BETWEEN RVEC AND VVEC
000580:                                                                                                  #        UR1     * +1           *DP UNIT VECTOR OF RVEC
000581:                                                                                                  #        U2      * +1           *DP UNIT VECTOR OF VVEC
000582:                                                                                                  #        UN      * +1           *DP UNIT VECTOR OF UR1*U2
000583:                                                                                                  #        MAGVEC2 * +7 FOR EARTH *DP MAGNITUDE OF VVEC
000584:                                                                                                  #                * +5 FOR MOON  *
000585:
000586:                                                                                                  #        PARAMETERS OF NO USE -
000587:                                                                                                  #                SP PARAMETERS - RTNAPSE, GEOMSGN, RTNPRM, PLUS PUSHLIST LOCATIONS 0-5, 10D-11D, 14D-21D, 31D-38D.
000588:                                                                                                  #                ADDITIONAL INTERPRETIVE SWITCHES USED - NORMSW
000589:
000590: 12,2000                                           SETLOC   CONICS


000592: 12,2000                                           BANK
000593:
000594: 12,2042                                           COUNT    12/CONIC
000595:
000596: 12,2042  E5,1723                                  EBANK=   UR1
000597: 12,2042           40001        KEPLERN            SETPD    BOV
000598: 12,2043           00001                                    0
000599: 12,2044           24045                                    +1
000600: 12,2045           77773                           VLOAD*
000601: 12,2046           11740                                    MUTABLE,1
000602: 12,2047           24017                           STOVL    14D
000603: 12,2050           01503                                    RRECT
000604: 12,2051           66256                           UNIT     SSP
000605: 12,2052           00027                                    ITERCTR
000606: 12,2053           00024                                    20D
000607: 12,2054           16647                           STODL    URRECT
000608: 12,2055           00045                                    36D
000609: 12,2056           24041                           STOVL    R1
000610: 12,2057           01503                                    RRECT
000611: 12,2060           76441                           DOT      SL1R
000612: 12,2061           01511                                    VRECT
000613: 12,2062           76405                           DMP      SL1R
000614: 12,2063           00023                                    1/ROOTMU                              #  1/ROOTMU (-17 OR -14)
000615: 12,2064           24043                           STOVL    KEPC1                                 #  C1=R.V/ROOTMU (+17 OR +16)
000616:
000617: 12,2065           01511                                    VRECT
000618: 12,2066           57236                           VSQ      DMPR
000619: 12,2067           00017                                    1/MU                                  #  1/MU (-34 OR -28)
000620: 12,2070           52405                           DMP      SL3
000621: 12,2071           00041                                    R1
000622: 12,2072           61425                           DSU      ROUND
000623: 12,2073           11610                                    D1/64
000624: 12,2074           00045                           STORE    KEPC2                                 #  C2=RV.V/MU -1 (+6)
000625:
000626: 12,2075           74421                           BDSU     SR1R
000627: 12,2076           11610                                    D1/64
000628: 12,2077           77671                           DDV
000629: 12,2100           00041                                    R1
000630: 12,2101           00011                           STORE    ALPHA                                 #  ALPHA=(1-C2)/R1 (-22 OR -20)
000631:
000632: 12,2102           71244                           BPL      DLOAD                                 #  MAXIMUM X DEPENDS ON TYPE OF CONIC
000633: 12,2103           24112                                    1REV
000634: 12,2104           11626                                    -50SC                                 #  -50SC (+12)
000635: 12,2105           40071                           DDV      BOV
000636: 12,2106           00011                                    ALPHA
000637: 12,2107           24116                                    STOREMAX
000638: 12,2110           52166                           SQRT     GOTO
000639: 12,2111           24116                                    STOREMAX


000641: 12,2112           55366        1REV               SQRT     BDDV
000642: 12,2113           11630                                    2PISC                                 #  2PISC (+6)
000643: 12,2114           77600                           BOV
000644: 12,2115           24116                                    STOREMAX
000645: 12,2116           00013        STOREMAX           STORE    XMAX
000646: 12,2117           65205                           DMP      PDDL
000647: 12,2120           00023                                    1/ROOTMU
000648: 12,2121           00011                                    ALPHA
000649: 12,2122           65301                           NORM     PDDL
000650: 12,2123           00047                                    X1
000651: 12,2124           56257                           SL*      DDV
000652: 12,2125           20173                                    0          -6,1
000653: 12,2126           50000                           BOV      BMN
000654: 12,2127           24143                                    MODDONE
000655: 12,2130           24143                                    MODDONE                               #  MPAC=PERIOD
000656: 12,2131           51525        PERIODCH           PDDL     ABS                                   #  0D=PERIOD
000657: 12,2132           02312                                    TAU.
000658: 12,2133           50025                           DSU      BMN
000659: 12,2134           00001                                    0D
000660: 12,2135           24143                                    MODDONE
000661: 12,2136           77765                           SIGN
000662: 12,2137           02312                                    TAU.
000663: 12,2140           16312                           STODL    TAU.
000664: 12,2141           77650                           GOTO
000665: 12,2142           24131                                    PERIODCH
000666: 12,2143           71201        MODDONE            SETPD    DLOAD
000667: 12,2144           00001                                    0
000668: 12,2145           02306                                    XKEPNEW
000669: 12,2146           00025                           STORE    X
000670: 12,2147           53165                           SIGN     BZE
000671: 12,2150           02312                                    TAU.
000672: 12,2151           24320                                    BADX
000673: 12,2152           51440                           BMN      ABS
000674: 12,2153           24320                                    BADX
000675: 12,2154           51025                           DSU      BPL
000676: 12,2155           00013                                    XMAX
000677: 12,2156           24320                                    BADX
000678: 12,2157           51145        STORBNDS           DLOAD    BPL
000679: 12,2160           02312                                    TAU.
000680: 12,2161           24170                                    STOREMIN
000681: 12,2162           57545                           DLOAD    DCOMP
000682: 12,2163           00013                                    XMAX
000683: 12,2164           14015                           STODL    XMIN
000684: 12,2165           11566                                    KEPZERO
000685: 12,2166           34013                           STCALL   XMAX
000686: 12,2167           24173                                    DXCOMP
000687: 12,2170           77745        STOREMIN           DLOAD
000688: 12,2171           11566                                    KEPZERO
000689: 12,2172           00015                           STORE    XMIN
000690: 12,2173           57345        DXCOMP             DLOAD    DMPR


000692: 12,2174           02312                                    TAU.
000693: 12,2175           11621                                    BEE22
000694: 12,2176           77646                           ABS
000695: 12,2177           15350                           STODL    EPSILONT
000696: 12,2200           01553                                    XPREV
000697: 12,2201           77621        XDIFF              BDSU
000698: 12,2202           00025                                    X
000699: 12,2203           02643                           STORE    DELX
000700:
000701: 12,2204           63545        KEPLOOP            DLOAD    DSQ
000702: 12,2205           00025                                    X                                     #  X=XKEP
000703: 12,2206           41501                           NORM     PUSH                                  #  0D=XSQ (+34 OR +32 -N1)       PL AT 2
000704: 12,2207           00047                                    X1
000705: 12,2210           53605                           DMP      SRR*
000706: 12,2211           00011                                    ALPHA
000707: 12,2212           21573                                    0          -6,1
000708: 12,2213           34031                           STCALL   XI                                    #  XI=ALPHA XSQ (+6)
000709: 12,2214           24433                                    DELTIME
000710: 12,2215           44200                           BOV      BDSU
000711: 12,2216           24326                                    TIMEOVFL                              #  UNLIKELY
000712: 12,2217           02312                                    TAU.
000713: 12,2220           02645                           STORE    DELT                                  #  DELT=DELINDEP
000714: 12,2221           44246                           ABS      BDSU
000715: 12,2222           01350                                    EPSILONT
000716: 12,2223           71244                           BPL      DLOAD
000717: 12,2224           24346                                    KEPCONVG
000718: 12,2225           00037                                    T
000719: 12,2226           60225                           DSU      NORM
000720: 12,2227           01551                                    TC
000721: 12,2230           00047                                    X1
000722: 12,2231           60325                           PDDL     NORM
000723: 12,2232           02643                                    DELX
000724: 12,2233           00050                                    X2
000725: 12,2234           41260                           XSU,1    DMP
000726: 12,2235           00047                                    X2
000727: 12,2236           02645                                    DELT
000728: 12,2237           56257                           SLR*     DDV
000729: 12,2240           21202                                    1,1
000730: 12,2241           41542                           SR1      PUSH                                  #  0D=TRIAL DELX         PL AT 2
000731: 12,2242           71244                           BPL      DLOAD
000732: 12,2243           24264                                    POSDELX
000733: 12,2244           00025                                    X
000734: 12,2245           00013                           STORE    XMAX                                  #  MOVE MAX BOUND IN
000735: 12,2246           45221                           BDSU     DSU                                   #                        PL AT 0
000736: 12,2247           00015                                    XMIN
000737: 12,2250           51000                           BOV      BPL
000738: 12,2251           24256                                    NDXCHNGE
000739: 12,2252           24256                                    NDXCHNGE
000740: 12,2253           52145                           DLOAD    GOTO


000742: 12,2254           00001                                    0D
000743: 12,2255           24276                                    NEWDELX
000744:
000745: 12,2256           45345        NDXCHNGE           DLOAD    DSU
000746: 12,2257           00015                                    XMIN
000747: 12,2260           00025                                    X
000748: 12,2261           52075                           DMPR     GOTO                                  #  TO FORCE MPAC +2 TO ZERO
000749: 12,2262           11624                                    DP9/10
000750: 12,2263           24276                                    NEWDELX
000751:
000752: 12,2264           77745        POSDELX            DLOAD
000753: 12,2265           00025                                    X
000754: 12,2266           00015                           STORE    XMIN                                  #  MOVE MIN BOUND IN
000755: 12,2267           45221                           BDSU     DSU                                   #                        PL AT 0
000756: 12,2270           00013                                    XMAX
000757: 12,2271           50000                           BOV      BMN
000758: 12,2272           24312                                    PDXCHNGE
000759: 12,2273           24312                                    PDXCHNGE
000760: 12,2274           77745                           DLOAD
000761: 12,2275           00001                                    0D
000762: 12,2276           02643        NEWDELX            STORE    DELX
000763: 12,2277           43254                           BZE      DAD
000764: 12,2300           24346                                    KEPCONVG
000765: 12,2301           00025                                    X
000766: 12,2302           14025                           STODL    X
000767: 12,2303           00037                                    T
000768: 12,2304           01551                           STORE    TC
000769: 12,2305           46034        BRNCHCTR           RTB      BHIZ
000770: 12,2306           24656                                    CHECKCTR
000771: 12,2307           24346                                    KEPCONVG
000772: 12,2310           77650                           GOTO
000773: 12,2311           24204                                    KEPLOOP                               #  ITERATE
000774:
000775: 12,2312           45345        PDXCHNGE           DLOAD    DSU
000776: 12,2313           00013                                    XMAX
000777: 12,2314           00025                                    X
000778: 12,2315           52075                           DMPR     GOTO                                  #  TO FORCE MPAC +2 TO ZERO
000779: 12,2316           11624                                    DP9/10
000780: 12,2317           24276                                    NEWDELX
000781:
000782: 12,2320           70545        BADX               DLOAD    SR1
000783: 12,2321           00013                                    XMAX
000784: 12,2322           77765                           SIGN
000785: 12,2323           02312                                    TAU.
000786: 12,2324           34025                           STCALL   X
000787: 12,2325           24157                                    STORBNDS


000789: 12,2326           50145        TIMEOVFL           DLOAD    BMN                                   #  X WAS TOO BIG
000790: 12,2327           00025                                    X
000791: 12,2330           24344                                    NEGTOVFL
000792: 12,2331           00013                           STORE    XMAX
000793: 12,2332           70545        CMNTOVFL           DLOAD    SR1
000794: 12,2333           02643                                    DELX
000795: 12,2334           02643                           STORE    DELX
000796: 12,2335           44254                           BZE      BDSU
000797: 12,2336           02270                                    KEPRTN
000798: 12,2337           00025                                    X
000799: 12,2340           14025                           STODL    X
000800: 12,2341           01551                                    TC
000801: 12,2342           34037                           STCALL   T
000802: 12,2343           24305                                    BRNCHCTR
000803: 12,2344           34015        NEGTOVFL           STCALL   XMIN
000804: 12,2345           24332                                    CMNTOVFL
000805: 12,2346           44545        KEPCONVG           DLOAD    SR4R
000806: 12,2347           00041                                    R1
000807: 12,2350           74225                           DSU      VXSC
000808: 12,2351           00035                                    XSQC(XI)
000809: 12,2352           02647                                    URRECT
000810: 12,2353           65372                           VSL1     PDDL                                  #  0D=(R1-XSQC(XI))URRECT (+33 OR +31)
000811: 12,2354           00025                                    X
000812: 12,2355           60316                           DSQ      NORM
000813: 12,2356           00047                                    X1
000814: 12,2357           57275                           DMPR     DMPR
000815: 12,2360           00023                                    1/ROOTMU
000816: 12,2361           00025                                    X
000817: 12,2362           53605                           DMP      SRR*
000818: 12,2363           00033                                    S(XI)
000819: 12,2364           21572                                    0          -7,1
000820: 12,2365           77621                           BDSU
000821: 12,2366           00037                                    T
000822: 12,2367           74352                           SL1      VXSC
000823: 12,2370           01511                                    VRECT
000824: 12,2371           53372                           VSL1     VAD                                   #                                PL AT 0
000825: 12,2372           77712                           VSL4
000826: 12,2373           01535                           STORE    RCV                                   #  RCV (+29 OR +27)
000827:
000828: 12,2374           60246                           ABVAL    NORM
000829: 12,2375           00050                                    X2
000830: 12,2376           16655                           STODL    RCNORM
000831: 12,2377           00031                                    XI
000832: 12,2400           45275                           DMPR     DSU
000833: 12,2401           00033                                    S(XI)
000834: 12,2402           11606                                    D1/128
000835: 12,2403           76405                           DMP      SL1R
000836: 12,2404           00021                                    ROOTMU
000837: 12,2405           53605                           DMP      SLR*


000839: 12,2406           00025                                    X
000840: 12,2407           56601                                    0          -3,2
000841: 12,2410           74271                           DDV      VXSC
000842: 12,2411           02655                                    RCNORM
000843: 12,2412           02647                                    URRECT
000844: 12,2413           65372                           VSL1     PDDL                                  #  0D=URRECT(XI S(XI)-1)X ROOTMU/RCV (+15
000845: 12,2414           00035                                    XSQC(XI)                              #  OR +13)                       PL AT 6
000846: 12,2415           56257                           SLR*     DDV
000847: 12,2416           56602                                    0          -4,2
000848: 12,2417           02655                                    RCNORM
000849: 12,2420           74221                           BDSU     VXSC
000850: 12,2421           11622                                    D1/256
000851: 12,2422           01511                                    VRECT
000852: 12,2423           42455                           VAD      VSL8
000853: 12,2424           77626                           STADR                                          #                                PL AT 0
000854: 12,2425           62234                           STODL    VCV                                   #  VCV (+7 OR +5)
000855: 12,2426           00037                                    T
000856: 12,2427           15551                           STODL    TC
000857: 12,2430           00025                                    X
000858: 12,2431           35553                           STCALL   XPREV
000859: 12,2432           02270                                    KEPRTN
000860:


000862: 12,2433           77776        DELTIME            EXIT                                           #  MPAC=XI (+6), 0D=XSQ (+34 OR +32 -N1)
000863: 12,2434           07171                           TC       POLY
000864: 12,2435           00010                           DEC      8          B-14
000865: 12,2436           02525 12526                     2DEC     .083333334
000866:
000867: 12,2440           67356 75666                     2DEC     -.266666684
000868:
000869: 12,2442           15001 23771                     2DEC     .406349155
000870:
000871: 12,2444           64342 43674                     2DEC     -.361198675
000872:
000873: 12,2446           06563 04645                     2DEC     .210153242
000874:
000875: 12,2450           75173 52672                     2DEC     -.086221951
000876:
000877: 12,2452           00656 14331                     2DEC     .026268812
000878:
000879: 12,2454           77633 40512                     2DEC     -.006163316
000880:
000881: 12,2456           00023 11210                     2DEC     .001177342
000882:
000883: 12,2460           77774 67506                     2DEC     -.000199055
000884:
000885: 12,2462           06006                           TC       INTPRET
000886: 12,2463           14033                           STODL    S(XI)
000887: 12,2464           00031                                    XI
000888: 12,2465           77776                           EXIT
000889: 12,2466           07171                           TC       POLY
000890: 12,2467           00010                           DEC      8          B-14
000891: 12,2470           01000 00000                     2DEC     .031250001
000892:
000893: 12,2472           72525 52506                     2DEC     -.166666719
000894:
000895: 12,2474           13301 15337                     2DEC     .355555413
000896:
000897: 12,2476           62776 54733                     2DEC     -.406347410
000898:
000899: 12,2500           11176 13267                     2DEC     .288962094
000900:
000901: 12,2502           73410 51674                     2DEC     -.140117894
000902:
000903: 12,2504           01446 33641                     2DEC     .049247387
000904:
000905: 12,2506           77451 65233                     2DEC     -.013081923
000906:
000907: 12,2510           00055 37266                     2DEC     .002806389
000908:
000909: 12,2512           77767 52336                     2DEC     -.000529414
000910:
000911: 12,2514           06006                           TC       INTPRET


000913: 12,2515           53605                           DMP      SRR*                                  #                                PL AT 0
000914: 12,2516           00001                                    0D
000915: 12,2517           21574                                    0          -5,1
000916: 12,2520           00035                           STORE    XSQC(XI)                              #  XSQC(XI) (+33 OR +31)
000917: 12,2521           72405                           DMP      SL1
000918: 12,2522           00043                                    KEPC1
000919: 12,2523           65234                           RTB      PDDL                                  #  XCH WITH PL. 0D=C1 XSQ C(XI) (+49 OR +46
000920: 12,2524           45565                                    TPMODE                                #                                PL AT 0,3
000921: 12,2525           53605                           DMP      SRR*
000922: 12,2526           00033                                    S(XI)
000923: 12,2527           21574                                    0          -5,1
000924: 12,2530           72405                           DMP      SL1
000925: 12,2531           00045                                    KEPC2
000926: 12,2532           65234                           RTB      PDDL                                  #  3D=C2 XSQ S(XI) (+35 OR +33)  PL AT 6
000927: 12,2533           45565                                    TPMODE
000928: 12,2534           00041                                    R1
000929: 12,2535           76261                           SR       TAD                                   #                                PL AT 3
000930: 12,2536           20607                                    6
000931: 12,2537           41301                           NORM     DMP                                   #  TO PRESERVE SIGNIF.
000932: 12,2540           00047                                    X1
000933: 12,2541           00025                                    X
000934: 12,2542           76257                           SR*      TAD                                   #  X(C2 XSQ S(XI) +R1) (+49 OR +46)  PL AT 0
000935: 12,2543           20576                                    0          -3,1
000936: 12,2544           57232                           SL4R     DMPR
000937: 12,2545           00023                                    1/ROOTMU
000938: 12,2546           00037                           STORE    T
000939: 12,2547           77616                           RVQ
000940:


000942: 12,2550           71214        ITERATOR           BONCLR   DLOAD
000943: 12,2551           00614                                    SLOPESW
000944: 12,2552           24620                                    FIRSTIME
000945: 12,2553           00037                                    DEP
000946: 12,2554           60225                           DSU      NORM
000947: 12,2555           02764                                    DEPREV
000948: 12,2556           00047                                    X1
000949: 12,2557           60325                           PDDL     NORM
000950: 12,2560           00015                                    DELINDEP
000951: 12,2561           00050                                    X2
000952: 12,2562           41260                           XSU,1    DMP
000953: 12,2563           00047                                    X2
000954: 12,2564           02762                                    DELDEP
000955: 12,2565           56257                           SLR*     DDV                                   #                                PL UP 2
000956: 12,2566           21202                                    1,1
000957: 12,2567           43142                           SR1      BOFF
000958: 12,2570           04351                                    ORDERSW
000959: 12,2571           24574                                    SGNCHECK
000960: 12,2572           75246                           ABS      SIGN                                  #  IN CASE 2ND DERIV. CHANGED SIGN, MUST
000961: 12,2573           02762                                    DELDEP                                #  DISREGARD IT TO FIND MIN.
000962:
000963: 12,2574           51006        SGNCHECK           PUSH     BPL                                   #  TRIAL DELINDEP                PL DOWN 2
000964: 12,2575           24632                                    POSDEL
000965: 12,2576           43145                           DLOAD    BON
000966: 12,2577           03775                                    INDEP
000967: 12,2600           04311                                    ORDERSW
000968: 12,2601           24603                                    MINCHECK
000969: 12,2602           00017                           STORE    MAX                                   #  IF NOT 2ND ORDER, CAN MOVE MAX BOUND IN.
000970:
000971: 12,2603           45221        MINCHECK           BDSU     DSU
000972: 12,2604           00011                                    MIN
000973: 12,2605           51000                           BOV      BPL
000974: 12,2606           24612                                    MODNGDEL
000975: 12,2607           24612                                    MODNGDEL
000976: 12,2610           77650                           GOTO
000977: 12,2611           24644                                    DELOK
000978:
000979: 12,2612           45345        MODNGDEL           DLOAD    DSU                                   #  TRIAL DELINDEP WOULD EXCEED MIN BOUND
000980: 12,2613           00011                                    MIN
000981: 12,2614           03775                                    INDEP
000982: 12,2615           52005                           DMP      GOTO
000983: 12,2616           11624                                    DP9/10
000984: 12,2617           24646                                    NEWDEL
000985:
000986: 12,2620           41345        FIRSTIME           DLOAD    DMP
000987: 12,2621           00011                                    MIN
000988: 12,2622           00051                                    TWEEKIT                               #  DLOAD TWEEKIT(40D) SENSITIVE TO CHANGE.
000989: 12,2623           41325                           PDDL     DMP                                   #  S2(41D) SHOULDNT CONTAIN HI ORDER ONES


000991: 12,2624           00017                                    MAX
000992: 12,2625           00051                                    TWEEKIT
000993: 12,2626           77625                           DSU
000994: 12,2627           52165                           SIGN     GOTO
000995: 12,2630           02762                                    DELDEP
000996: 12,2631           24574                                    SGNCHECK
000997:
000998: 12,2632           43145        POSDEL             DLOAD    BON
000999: 12,2633           03775                                    INDEP
001000: 12,2634           04311                                    ORDERSW
001001: 12,2635           24637                                    MAXCHECK
001002: 12,2636           00011                           STORE    MIN                                   #  IF NOT 2ND ORDER, CAN MOVE MIN BOUND IN.
001003:
001004: 12,2637           45221        MAXCHECK           BDSU     DSU
001005: 12,2640           00017                                    MAX
001006: 12,2641           50000                           BOV      BMN
001007: 12,2642           24650                                    MODPSDEL
001008: 12,2643           24650                                    MODPSDEL
001009: 12,2644           77745        DELOK              DLOAD
001010: 12,2645           00001                                    0D
001011: 12,2646           00015        NEWDEL             STORE    DELINDEP
001012: 12,2647           77616                           RVQ
001013:
001014: 12,2650           45345        MODPSDEL           DLOAD    DSU
001015: 12,2651           00017                                    MAX
001016: 12,2652           03775                                    INDEP
001017: 12,2653           52005                           DMP      GOTO
001018: 12,2654           11624                                    DP9/10
001019: 12,2655           24646                                    NEWDEL
001020:
001021: 12,2656           45017        CHECKCTR           CS       ONE
001022: 12,2657           50120                           INDEX    FIXLOC
001023: 12,2660           60026                           AD       ITERCTR
001024: 12,2661           50120                           INDEX    FIXLOC
001025: 12,2662           54026                           TS       ITERCTR
001026: 12,2663           54154                           TS       MPAC
001027: 12,2664           06030                           TC       DANZIG
001028:


001030: 12,2665           44545        NEWSTATE           DLOAD    SR4R
001031: 12,2666           00041                                    R1
001032: 12,2667           74225                           DSU      VXSC
001033: 12,2670           00035                                    XSQC(XI)
001034: 12,2671           02724                                    UR1
001035: 12,2672           65372                           VSL1     PDDL                                  #  0D=(R1-XSQC(XI))UR1 (+33 OR 31) PL AT 6
001036: 12,2673           00025                                    X
001037: 12,2674           60316                           DSQ      NORM
001038: 12,2675           00047                                    X1
001039: 12,2676           57275                           DMPR     DMPR
001040: 12,2677           00023                                    1/ROOTMU
001041: 12,2700           00025                                    X
001042: 12,2701           53605                           DMP      SRR*
001043: 12,2702           00033                                    S(XI)
001044: 12,2703           21572                                    0          -7,1
001045: 12,2704           77621                           BDSU
001046: 12,2705           00037                                    T
001047: 12,2706           74352                           SL1      VXSC
001048: 12,2707           02746                                    VVEC
001049: 12,2710           53372                           VSL1     VAD                                   #                                PL AT 0
001050: 12,2711           41512                           VSL4     PUSH
001051: 12,2712           77646                           ABVAL
001052: 12,2713           77701        LAMENTER           NORM
001053: 12,2714           00047                                    X1
001054: 12,2715           16722                           STODL    R2
001055: 12,2716           00031                                    XI
001056: 12,2717           45205                           DMP      DSU
001057: 12,2720           00033                                    S(XI)
001058: 12,2721           11606                                    D1/128
001059: 12,2722           76405                           DMP      SL1R
001060: 12,2723           00021                                    ROOTMU
001061: 12,2724           53605                           DMP      SLR*
001062: 12,2725           00025                                    X
001063: 12,2726           21176                                    0          -3,1
001064: 12,2727           74271                           DDV      VXSC
001065: 12,2730           02722                                    R2
001066: 12,2731           02724                                    UR1
001067: 12,2732           65372                           VSL1     PDDL                                  #  6D=V2VEC PART (+15 OR 13)     PL AT 12
001068: 12,2733           00035                                    XSQC(XI)
001069: 12,2734           56257                           SLR*     DDV
001070: 12,2735           21175                                    0          -4,1
001071: 12,2736           02722                                    R2
001072: 12,2737           77621                           BDSU
001073: 12,2740           11622                                    D1/256
001074: 12,2741           53361                           VXSC     VAD
001075: 12,2742           02746                                    VVEC                                  #                                PL AT 6
001076: 12,2743           43412                           VSL8     RVQ
001077:


001079: 04,2000                                           SETLOC   CONICS1
001080: 04,2000                                           BANK
001081:
001082: 04,3602                                           COUNT    04/CONIC
001083:                                                                                                  #  DO NOT DISTURB THE ORDER OF THESE CDS, OVERLAYS HAVE BEEN MADE.
001084: 04,3602           00000        BEE17              DEC      0          B-14                       #  KEEP WITH D1/8 2DEC 1.0B-17 (0000004000)
001085: 04,3603           04000 00000  D1/8               2DEC     1.0        B-3
001086:
001087: 04,3605           00200 00000  D1/128             2DEC     1.0        B-7
001088:
001089: 04,3607           00400 00000  D1/64              2DEC     1.0        B-6
001090:
001091: 04,3611           10000 00000  D1/4               2DEC     1.0        B-2
001092:
001093: 04,3613           02000 00000  D1/16              2DEC     1.0        B-4
001094:
001095: 04,3615           01000 00000  D1/32              2DEC     1.0        B-5
001096:
001097: 04,3617           00020 00000  D1/1024            2DEC     1.0        B-10
001098:
001099: 04,3621           00100 00000  D1/256             2DEC     1.0        B-8
001100:
001101: 04,3623           34631 23146  DP9/10             2DEC     .9
001102:
001103: 04,3625  04,3565               KEPZERO            EQUALS   LO6ZEROS
001104: 04,3625           77467 77777  -50SC              2DEC     -50.0      B-12
001105:
001106: 04,3627           03110 17665  2PISC              2DEC     6.28318530 B-6
001107:
001108: 04,3631  04,3614               BEE19              EQUALS   D1/32      -1                         #  2DEC 1.0 B-19 (00000 01000)
001109: 04,3631  04,3620               BEE22              EQUALS   D1/256     -1                         #  2DEC 1.0 B-22 (00000 00100)
001110: 04,3631           00000 00001  ONEBIT             2DEC     1.0        B-28
001111:
001112: 04,3633           37767 37737  COGUPLIM           2DEC     .999511597
001113:
001114: 04,3635           40010 40040  COGLOLIM           2DEC     -.999511597
001115:


001117: 12,2000                                           SETLOC   CONICS
001118: 12,2000                                           BANK
001119:
001120: 12,2744                                           COUNT    12/CONIC
001121:
001122: 12,2744           40220        TIMETHET           STQ      SETPD                                 #                                PL AT 0
001123: 12,2745           02712                                    RTNTT
001124: 12,2746           00001                                    0
001125: 12,2747           77600                           BOV
001126: 12,2750           24751                                    +1
001127: 12,2751           63375                           VLOAD    PDVL                                  #  SETUP FOR PARAM CALL          PL AT 6
001128: 12,2752           02657                                    RVEC
001129: 12,2753           02746                                    VVEC
001130: 12,2754           77624                           CALL
001131: 12,2755           11637                                    PARAM
001132: 12,2756           45000                           BOV      CALL
001133: 12,2757           24776                                    COGAOVFL                              #                                PL AT 0
001134: 12,2760           25001                                    GETX
001135: 12,2761           43145        COMMNOUT           DLOAD    BON
001136: 12,2762           00031                                    XI
001137: 12,2763           04310                                    INFINFLG
001138: 12,2764           25751                                    ABTCONIC
001139: 12,2765           45014                           CLEAR    CALL
001140: 12,2766           04273                                    COGAFLAG
001141: 12,2767           24433                                    DELTIME
001142: 12,2770           45014                           BON      CALL
001143: 12,2771           03706                                    RVSW
001144: 12,2772           02712                                    RTNTT
001145: 12,2773           24665                                    NEWSTATE
001146: 12,2774           77650                           GOTO
001147: 12,2775           02712                                    RTNTT
001148:
001149: 12,2776           77614        COGAOVFL           SETGO
001150: 12,2777           04033                                    COGAFLAG
001151: 12,3000           25751                                    ABTCONIC
001152: 04,3637                                           BANK     4
001153: 04,2000                                           SETLOC   CONICS1
001154: 04,2000                                           BANK
001155: 04,3637                                           COUNT*   $$/CONIC
001156: 04,3637           43020        PARAM              STQ      CLEAR                                 #  MPAC=V1VEC, 0D=R1VEC          PL AT 6
001157: 04,3640           02755                                    RTNPRM
001158: 04,3641           03665                                    NORMSW
001159: 04,3642           77614                           CLEAR
001160: 04,3643           04273                                    COGAFLAG
001161: 04,3644           45131                           SSP      CALL
001162: 04,3645           02675                                    GEOMSGN
001163: 04,3646           27777                                    37777                                 #  GAMMA ALWAYS LESS THAN 180DEG
001164: 04,3647           11702                                    GEOM                                  #  MPAC=SNGA (+1), 0D=CSGA (+1)  PL AT 2
001165: 04,3650           14045                           STODL    36D                                   #  36D=SIN GAMMA (+1)            PL AT 0


001167: 04,3651           56261                           SR       DDV
001168: 04,3652           20606                                    5
001169:
001170: 04,3653           00045                                    36D
001171: 04,3654           33775                           STOVL*   COGA
001172: 04,3655           11740                                    MUTABLE,1
001173: 04,3656           14017                           STODL    1/MU
001174: 04,3657           02722                                    MAGVEC2
001175: 04,3660           60316                           DSQ      NORM
001176: 04,3661           00047                                    X1
001177: 04,3662           41275                           DMPR     DMP
001178: 04,3663           00017                                    1/MU
001179: 04,3664           00041                                    R1
001180: 04,3665           77657                           SRR*
001181: 04,3666           21576                                    0          -3,1
001182: 04,3667           44206                           PUSH     BDSU                                  #  0D=R1 V1SQ/MU (+6)            PL AT 2
001183: 04,3670           11616                                    D1/32
001184: 04,3671           16744                           STODL    R1A                                   #  R1A (+6)                      PL AT 0
001185:
001186: 04,3672           60205                           DMP      NORM
001187: 04,3673           00045                                    36D
001188: 04,3674           00047                                    X1
001189: 04,3675           53605                           DMP      SR*
001190: 04,3676           00045                                    36D
001191: 04,3677           20575                                    0          -4,1
001192: 04,3700           36742                           STCALL   P                                     #  P (+4)
001193: 04,3701           02755                                    RTNPRM
001194:


001196: 04,3702           77656        GEOM               UNIT                                           #  MPAC=V2VEC, 0D=R1VEC          PL AT 6
001197: 04,3703           16714                           STODL    U2                                    #  U2 (+1)
001198: 04,3704           00045                                    36D
001199: 04,3705           26722                           STOVL    MAGVEC2                               #                                PL AT 0
001200: 04,3706           77656                           UNIT
001201: 04,3707           02724                           STORE    UR1                                   #  UR1 (+1)
001202: 04,3710           72441                           DOT      SL1
001203: 04,3711           02714                                    U2
001204: 04,3712           77725                           PDDL                                           #  OD=CSTH (+1)                  PL AT 2
001205: 04,3713           00045                                    36D
001206: 04,3714           24041                           STOVL    R1                                    #  R1 (+29 OR +27)
001207: 04,3715           02724                                    UR1
001208: 04,3716           76435                           VXV      VSL1
001209: 04,3717           02714                                    U2
001210: 04,3720           75214                           BON      SIGN
001211: 04,3721           03705                                    NORMSW
001212: 04,3722           11734                                    HAVENORM
001213: 04,3723           02675                                    GEOMSGN
001214: 04,3724           40056                           UNIT     BOV
001215: 04,3725           11732                                    COLINEAR
001216: 04,3726           16676        UNITNORM           STODL    UN                                    #  UN (+1)
001217: 04,3727           00045                                    36D
001218: 04,3730           43565                           SIGN     RVQ                                   #  MPAC=SNTH (+1), 34D=SNTH.SNTH (+2)
001219: 04,3731           02675                                    GEOMSGN
001220:
001221: 04,3732           52162        COLINEAR           VSR1     GOTO
001222: 04,3733           11726                                    UNITNORM
001223:
001224: 04,3734           75246        HAVENORM           ABVAL    SIGN
001225: 04,3735           02675                                    GEOMSGN
001226: 04,3736           77616                           RVQ                                            #  MPAC=SNTH (+1), 34D=SNTH.SNTH (+2)
001227:


001229: 12,3001                                           BANK     12
001230: 12,2000                                           SETLOC   CONICS
001231: 12,2000                                           BANK
001232:
001233: 12,3001                                           COUNT    12/CONIC
001234:
001235: 12,3001           66374        GETX               AXT,2    SSP                                   #  ASSUMES P (+4) IN MPAC
001236: 12,3002           00003                                    3
001237: 12,3003           00052                                    S2
001238: 12,3004           00001                                    1
001239: 12,3005           77614                           CLEAR
001240: 12,3006           04276                                    360SW
001241: 12,3007           65366                           SQRT     PDDL                                  #  0D=SQRT(P)                    PL AT 2
001242: 12,3010           02734                                    CSTH
001243: 12,3011           44342                           SR1      BDSU
001244: 12,3012           11612                                    D1/4
001245: 12,3013           54325                           PDDL     SRR                                   #                                PL AT 4D
001246: 12,3014           02732                                    SNTH
001247: 12,3015           21607                                    6
001248: 12,3016           77671                           DDV                                            #                                PL AT 2
001249: 12,3017           77600                           BOV
001250: 12,3020           25134                                    360CHECK
001251: 12,3021           41225                           DSU      DMP
001252: 12,3022           03775                                    COGA                                  #                                PL AT 0
001253: 12,3023           40132                           SL2R     BOV
001254: 12,3024           25134                                    360CHECK
001255: 12,3025           63406        WLOOP              PUSH     DSQ                                   #  0D=W (+5)                     PL AT 2
001256: 12,3026           65351                           TLOAD    PDDL                                  #  2D=WSQ (+10)                  PL AT 5
001257: 12,3027           00155                                    MPAC
001258: 12,3030           02744                                    R1A
001259: 12,3031           76202                           SR4      TAD                                   #                                PL AT 2
001260: 12,3032           75440                           BMN      SQRT
001261: 12,3033           25217                                    INFINITY
001262: 12,3034           43306                           ROUND    DAD                                   #                                PL AT 0D
001263: 12,3035           61000                           BOV      TIX,2
001264: 12,3036           25132                                    RESETX2
001265: 12,3037           25025                                    WLOOP
001266:
001267: 12,3040           40065                           BDDV     BOV
001268: 12,3041           11606                                    D1/128
001269: 12,3042           25217                                    INFINITY
001270: 12,3043           41440        POLYCOEF           BMN      PUSH                                  #  0D=1/W (+2) OR 16/W (+6)      PL AT 2
001271: 12,3044           25217                                    INFINITY
001272: 12,3045           77716                           DSQ
001273: 12,3046           41301                           NORM     DMP
001274: 12,3047           00047                                    X1
001275: 12,3050           02744                                    R1A
001276: 12,3051           77457                           SRR*     EXIT
001277: 12,3052           21567                                    0          -10D,1


001279: 12,3053           07171                           TC       POLY
001280: 12,3054           00005                           DEC      5          B-14
001281: 12,3055           20000 00000                     2DEC     .5
001282:
001283: 12,3057           72525 52471                     2DEC     -.166666770
001284:
001285: 12,3061           03146 15003                     2DEC     .100000392
001286:
001287: 12,3063           75556 45210                     2DEC     -.071401086
001288:
001289: 12,3065           01615 13553                     2DEC     .055503292
001290:
001291: 12,3067           76371 63777                     2DEC     -.047264098
001292:
001293: 12,3071           01232 27367                     2DEC     .040694204
001294:
001295: 12,3073           06006                           TC       INTPRET
001296: 12,3074           76405                           DMP      SL1R                                  #                                PL AT 0D
001297: 12,3075           43006                           PUSH     BON
001298: 12,3076           04316                                    360SW
001299: 12,3077           25204                                    TRUE360X
001300: 12,3100           60316        XCOMMON            DSQ      NORM
001301: 12,3101           00047                                    X1
001302: 12,3102           53605                           DMP      SRR*
001303: 12,3103           02744                                    R1A
001304: 12,3104           21565                                    0          -12D,1
001305: 12,3105           14031                           STODL    XI                                    #  XI (+6)
001306:
001307: 12,3106           00041                                    R1
001308: 12,3107           75542                           SR1      SQRT
001309: 12,3110           41306                           ROUND    DMP
001310: 12,3111           77632                           SL4R                                           #                                PL AT 0
001311: 12,3112           00025                           STORE    X                                     #  X (+17 OR +16)
001312:
001313: 12,3113           60316                           DSQ      NORM
001314: 12,3114           00047                                    X1
001315: 12,3115           41325                           PDDL     DMP                                   #  0D=XSQ (+34 OR +32 -N1)       PL AT 2
001316: 12,3116           02742                                    P
001317: 12,3117           00041                                    R1
001318: 12,3120           75452                           SL3      SQRT
001319: 12,3121           56405                           DMP      SL3R
001320: 12,3122           03775                                    COGA
001321: 12,3123           14043                           STODL    KEPC1
001322: 12,3124           02744                                    R1A
001323: 12,3125           43021                           BDSU     CLEAR
001324: 12,3126           11610                                    D1/64
001325: 12,3127           04270                                    INFINFLG
001326: 12,3130           00045                           STORE    KEPC2


001328: 12,3131           77616                           RVQ
001329:
001330: 12,3132           77774        RESETX2            AXT,2
001331: 12,3133           00003                                    3
001332:
001333: 12,3134           51001        360CHECK           SETPD    BPL
001334: 12,3135           00001                                    0D
001335: 12,3136           25141                                    INVRSEQN
001336: 12,3137           77614                           SET
001337: 12,3140           04076                                    360SW
001338:
001339: 12,3141           75545        INVRSEQN           DLOAD    SQRT
001340: 12,3142           02742                                    P
001341: 12,3143           41325                           PDDL     DMP                                   #  0D=SQRT(P) (+2)               PL AT 2
001342: 12,3144           02732                                    SNTH
001343: 12,3145           03775                                    COGA
001344: 12,3146           65352                           SL1      PDDL                                  #  2D=SNTH COGA (+5)             PL AT 4
001345: 12,3147           02734                                    CSTH
001346: 12,3150           43202                           SR4      DAD
001347: 12,3151           11616                                    D1/32
001348: 12,3152           41225                           DSU      DMP                                   #                                PL AT 2,0
001349: 12,3153           55301                           NORM     BDDV
001350: 12,3154           00047                                    X1
001351: 12,3155           02732                                    SNTH
001352: 12,3156           51457                           SLR*     ABS                                   #  NOTE: NEAR 360 CASE TREATED DIFFERENTLY
001353: 12,3157           21174                                    0          -5,1
001354: 12,3160           63406                           PUSH     DSQ                                   #  0D=1/W (-1)                   PL AT 2
001355: 12,3161           14043                           STODL    34D
001356: 12,3162           11614                                    D1/16
001357: 12,3163           63406        1/WLOOP            PUSH     DSQ                                   #  2D=G (+4)                     PL AT 4
001358: 12,3164           65234                           RTB      PDDL                                  #                                PL AT 7
001359: 12,3165           45565                                    TPMODE
001360: 12,3166           02744                                    R1A
001361: 12,3167           40405                           DMP      SR4
001362: 12,3170           00043                                    34D
001363: 12,3171           77771                           TAD
001364: 12,3172           75440                           BMN      SQRT                                  #                                PL AT 4
001365: 12,3173           25217                                    INFINITY
001366: 12,3174           77615                           DAD                                            #                                PL AT 2
001367: 12,3175           60304                           TIX,2    NORM
001368: 12,3176           25163                                    1/WLOOP
001369: 12,3177           00047                                    X1
001370: 12,3200           77665                           BDDV
001371: 12,3201           52057                           SLR*     GOTO                                  #                                PL AT 0
001372: 12,3202           21172                                    0          -7,1
001373: 12,3203           25043                                    POLYCOEF
001374:


001376: 12,3204           50145        TRUE360X           DLOAD    BMN
001377: 12,3205           02744                                    R1A
001378: 12,3206           25217                                    INFINITY
001379: 12,3207           60366                           SQRT     NORM
001380: 12,3210           00047                                    X1
001381: 12,3211           53665                           BDDV     SL*
001382: 12,3212           11630                                    2PISC
001383: 12,3213           20176                                    0          -3,1
001384: 12,3214           41425                           DSU      PUSH                                  #  0D=2PI/SQRT(R1A) -X           PL AT 0,2
001385: 12,3215           77650                           GOTO
001386: 12,3216           25100                                    XCOMMON
001387: 12,3217           40001        INFINITY           SETPD    BOV                                   #  NO SOLUTION EXISTS SINCE CLOSURE THROUGH
001388: 12,3220           00001                                    0                                     #  INFINITY IS REQUIRED
001389: 12,3221           25222                                    OVFLCLR
001390: 12,3222           43414        OVFLCLR            SET      RVQ
001391: 12,3223           04070                                    INFINFLG
001392:


001394: 12,3224           40220        LAMBERT            STQ      SETPD
001395: 12,3225           02712                                    RTNLAMB
001396: 12,3226           00001                                    0D
001397: 12,3227           77600                           BOV
001398: 12,3230           25231                                    +1
001399: 12,3231           76731                           SSP      VLOAD*
001400: 12,3232           00027                                    ITERCTR
001401: 12,3233           00024                                    20D
001402: 12,3234           11740                                    MUTABLE,1
001403: 12,3235           14017                           STODL    1/MU
001404: 12,3236           02673                                    TDESIRED
001405: 12,3237           77675                           DMPR
001406: 12,3240           11615                                    BEE19
001407: 12,3241           03777                           STORE    EPSILONL
001408: 12,3242           77214                           SET      VLOAD
001409: 12,3243           00474                                    SLOPESW
001410: 12,3244           02657                                    R1VEC
001411: 12,3245           45115                           PDVL     CALL                                  #  0D=R1VEC (+29 OR +27)         PL AT 6
001412: 12,3246           02665                                    R2VEC                                 #  MPAC=R2VEC (+29 OR +27)
001413: 12,3247           11702                                    GEOM
001414: 12,3250           16732                           STODL    SNTH                                  #  0D=CSTH (+1)                  PL AT 2
001415: 12,3251           02722                                    MAGVEC2
001416: 12,3252           65301                           NORM     PDDL                                  #                                PL AT 4
001417: 12,3253           00047                                    X1
001418: 12,3254           00041                                    R1
001419: 12,3255           56342                           SR1      DDV                                   #                                PL AT 2
001420: 12,3256           65257                           SL*      PDDL                                  #  DXCH WITH 0D, 0D=R1/R2 (+7)   PL AT 0,2
001421: 12,3257           20173                                    0          -6,1
001422: 12,3260           77626                           STADR
001423: 12,3261           75043                           STORE    CSTH                                  #  CSTH (+1)
001424: 12,3262           44342                           SR1      BDSU
001425: 12,3263           11612                                    D1/4
001426: 12,3264           02736                           STORE    1-CSTH                                #  1-CSTH (+2)
001427:
001428: 12,3265           53106                           ROUND    BZE
001429: 12,3266           25473                                    360LAMB
001430: 12,3267           65301                           NORM     PDDL                                  #                                PL AT 4
001431: 12,3270           00047                                    X1
001432: 12,3271           00001                                    0D
001433: 12,3272           56342                           SR1      DDV                                   #                                PL AT 2
001434: 12,3273           75457                           SL*      SQRT
001435: 12,3274           20176                                    0          -3,1
001436: 12,3275           54325                           PDDL     SR                                    #  2D=SQRT(2R1/R2(1-CSTH)) (+5)  PL AT 4
001437: 12,3276           02732                                    SNTH
001438: 12,3277           20607                                    6
001439: 12,3300           43271                           DDV      DAD                                   #                                PL AT 2
001440: 12,3301           02736                                    1-CSTH
001441: 12,3302           77626                           STADR
001442: 12,3303           77760                           STORE    COGAMAX
001443: 12,3304           50000                           BOV      BMN                                   #  IF OVFL, COGAMAX=COGUPLIM


001445: 12,3305           25312                                    UPLIM                                 #  IF NEG, USE EVEN IF LT COGLOLIM, SINCE
001446: 12,3306           25315                                    MAXCOGA                               #        THIS WOULD BE RESET IN LAMBLOOP
001447: 12,3307           50025                           DSU      BMN                                   #  IF COGAMAX GT COGUPLIM, COGAMAX=COGUPLIM
001448: 12,3310           11634                                    COGUPLIM
001449: 12,3311           25315                                    MAXCOGA                               #  OTHERWISE OK, SO GO TO MAXCOGA
001450: 12,3312           77745        UPLIM              DLOAD
001451: 12,3313           11634                                    COGUPLIM                              #  COGUPLIM=.999511597 = MAX VALUE OF COGA
001452: 12,3314           00017                           STORE    COGAMAX                               #        NOT CAUSING OVFL IN R1A CALCULATION
001453: 12,3315           77745        MAXCOGA            DLOAD
001454: 12,3316           02734                                    CSTH
001455: 12,3317           45261                           SR       DSU                                   #                                PL AT 0
001456: 12,3320           20607                                    6
001457: 12,3321           77626                           STADR
001458: 12,3322           61037                           STODL    CSTH-RHO
001459: 12,3323           02675                                    GEOMSGN
001460: 12,3324           71240                           BMN      DLOAD
001461: 12,3325           25512                                    LOLIM
001462: 12,3326           02740                                    CSTH-RHO
001463: 12,3327           56352                           SL1      DDV
001464: 12,3330           02732                                    SNTH
001465: 12,3331           77600                           BOV
001466: 12,3332           25512                                    LOLIM
001467: 12,3333           00011        MINCOGA            STORE    COGAMIN                               #  COGAMIN (+5)
001468: 12,3334           66214                           BON      SSP
001469: 12,3335           00715                                    GUESSW
001470: 12,3336           25477                                    NOGUESS
001471: 12,3337           00051                                    TWEEKIT
001472: 12,3340           00001                                    00001
001473: 12,3341           77745                           DLOAD
001474: 12,3342           03775                                    COGA
001475:
001476: 12,3343           77605        LAMBLOOP           DMP
001477: 12,3344           02732                                    SNTH
001478: 12,3345           45342                           SR1      DSU
001479: 12,3346           02740                                    CSTH-RHO
001480: 12,3347           65301                           NORM     PDDL                                  #  0D=SNTH COGA-(CSTH-RHO) (+7+C(X1)) PL=2
001481: 12,3350           00047                                    X1
001482: 12,3351           02736                                    1-CSTH
001483: 12,3352           56257                           SL*      DDV                                   #  1-CSTH (+2)                   PL AT 0
001484: 12,3353           20170                                    0          -9D,1
001485: 12,3354           53040                           BMN      BZE
001486: 12,3355           25431                                    NEGP
001487: 12,3356           25431                                    NEGP
001488: 12,3357           16742                           STODL    P                                     #  P=(1-CSTH)/(SNTH COGA-(CSTH-RHO)) (+4)
001489: 12,3360           03775                                    COGA
001490: 12,3361           43316                           DSQ      DAD
001491: 12,3362           11620                                    D1/1024
001492: 12,3363           41301                           NORM     DMP
001493: 12,3364           00047                                    X1


001495: 12,3365           02742                                    P
001496: 12,3366           44257                           SR*      BDSU
001497: 12,3367           20571                                    0          -8D,1
001498: 12,3370           11616                                    D1/32
001499: 12,3371           16744                           STODL    R1A                                   #  R1A=2-P(1+COGA COGA) (+6)
001500:
001501: 12,3372           02742                                    P
001502: 12,3373           45000                           BOV      CALL
001503: 12,3374           25434                                    HIENERGY
001504: 12,3375           25001                                    GETX
001505: 12,3376           77745                           DLOAD
001506: 12,3377           00037                                    T
001507: 12,3400           16764                           STODL    TPREV
001508: 12,3401           00031                                    XI
001509: 12,3402           45014                           BON      CALL
001510: 12,3403           04310                                    INFINFLG
001511: 12,3404           25431                                    NEGP                                  #  HAVE EXCEEDED THEORETICAL BOUNDS
001512: 12,3405           24433                                    DELTIME
001513: 12,3406           44200                           BOV      BDSU
001514: 12,3407           25450                                    BIGTIME
001515: 12,3410           02673                                    TDESIRED
001516: 12,3411           02762                           STORE    TERRLAMB
001517: 12,3412           44246                           ABS      BDSU
001518: 12,3413           03777                                    EPSILONL
001519: 12,3414           47044                           BPL      RTB
001520: 12,3415           25515                                    INITV
001521: 12,3416           24656                                    CHECKCTR
001522: 12,3417           45030                           BHIZ     CALL
001523: 12,3420           25460                                    SUFFCHEK
001524: 12,3421           24550                                    ITERATOR
001525: 12,3422           53145                           DLOAD    BZE
001526: 12,3423           00155                                    MPAC
001527: 12,3424           25460                                    SUFFCHEK
001528: 12,3425           77615                           DAD
001529: 12,3426           03775                                    COGA
001530: 12,3427           37775                           STCALL   COGA
001531: 12,3430           25343                                    LAMBLOOP
001532:
001533: 12,3431           51145        NEGP               DLOAD    BPL                                   #  IMPOSSIBLE TRAJECTORY DUE TO INACCURATE
001534: 12,3432           00015                                    DCOGA                                 #  BOUND CALCULATION.  TRY NEW COGA.
001535: 12,3433           25453                                    LOENERGY
001536:
001537: 12,3434           71201        HIENERGY           SETPD    DLOAD                                 #  HIGH ENERGY TRAJECTORY RESULTED
001538: 12,3435           00001                                    0
001539: 12,3436           03775                                    COGA                                  #  IN OVFL OF P OR R1A, OR XI EXCEEDING 50.
001540: 12,3437           00011                           STORE    COGAMIN                               #  THIS IS THE NEW BOUND.
001541: 12,3440           70545        COMMONLM           DLOAD    SR1
001542: 12,3441           00015                                    DCOGA


001544: 12,3442           00015                           STORE    DCOGA                                 #  USE DCOGA/2 AS DECREMENT
001545: 12,3443           44254                           BZE      BDSU
001546: 12,3444           25460                                    SUFFCHEK
001547: 12,3445           03775                                    COGA
001548: 12,3446           37775                           STCALL   COGA
001549: 12,3447           25343                                    LAMBLOOP
001550:
001551: 12,3450           77745        BIGTIME            DLOAD
001552: 12,3451           02764                                    TPREV
001553: 12,3452           00037                           STORE    T
001554:
001555: 12,3453           71201        LOENERGY           SETPD    DLOAD                                 #  LOW ENERGY TRAJECTORY RESULTED
001556: 12,3454           00001                                    0
001557: 12,3455           03775                                    COGA                                  #  IN OVERFLOW OF TIME.
001558: 12,3456           34017                           STCALL   COGAMAX                               #  THIS IS THE NEW BOUND.
001559: 12,3457           25440                                    COMMONLM
001560:
001561: 12,3460           51545        SUFFCHEK           DLOAD    ABS
001562: 12,3461           02762                                    TERRLAMB
001563: 12,3462           41325                           PDDL     DMP
001564: 12,3463           02673                                    TDESIRED                              #                                PL AT 2D
001565: 12,3464           11612                                    D1/4
001566: 12,3465           45215                           DAD      DSU                                   #                                PL AT 0D
001567: 12,3466           11632                                    ONEBIT
001568: 12,3467           43044                           BPL      SETGO
001569: 12,3470           25515                                    INITV
001570: 12,3471           02434                                    SOLNSW
001571: 12,3472           02712                                    RTNLAMB
001572:
001573: 12,3473           43001        360LAMB            SETPD    SETGO                                 #  LAMBERT CANNOT HANDLE CSTH=1
001574: 12,3474           00001                                    0
001575: 12,3475           02434                                    SOLNSW
001576: 12,3476           02712                                    RTNLAMB
001577:
001578: 12,3477           71331        NOGUESS            SSP      DLOAD
001579: 12,3500           00051                                    TWEEKIT
001580: 12,3501           10000                                    20000
001581: 12,3502           00011                                    COGAMIN
001582: 12,3503           65342                           SR1      PDDL                                  #                                PL AT 2
001583: 12,3504           00017                                    COGAMAX
001584: 12,3505           43342                           SR1      DAD
001585: 12,3506           77626                           STADR                                          #                                PL AT 0
001586: 12,3507           74002                           STORE    COGA
001587: 12,3510           34015                           STCALL   DCOGA
001588: 12,3511           25343                                    LAMBLOOP


001590: 12,3512           52145        LOLIM              DLOAD    GOTO
001591: 12,3513           11636                                    COGLOLIM                              #  COGLOLIM=-.999511597
001592: 12,3514           25333                                    MINCOGA
001593:
001594: 12,3515           60345        INITV              DLOAD    NORM
001595: 12,3516           00041                                    R1
001596: 12,3517           00047                                    X1
001597: 12,3520           70525                           PDDL     SR1                                   #                                PL AT 2
001598: 12,3521           02742                                    P
001599: 12,3522           77671                           DDV                                            #                                PL AT 0
001600: 12,3523           75457                           SL*      SQRT
001601: 12,3524           20175                                    0          -4,1
001602: 12,3525           72405                           DMP      SL1
001603: 12,3526           00021                                    ROOTMU
001604: 12,3527           41206                           PUSH     DMP                                   #  0D=VTAN (+7)                  PL AT 2
001605: 12,3530           03775                                    COGA
001606: 12,3531           74261                           SL       VXSC
001607: 12,3532           20206                                    5
001608: 12,3533           02724                                    UR1
001609: 12,3534           77725                           PDDL                                           #  XCH WITH 0D                   PL AT 0,6
001610: 12,3535           76561                           VXSC     VSL1
001611: 12,3536           02676                                    UN
001612: 12,3537           53235                           VXV      VAD
001613: 12,3540           02724                                    UR1                                   #                                PL AT 0
001614: 12,3541           43172                           VSL1     CLEAR
001615: 12,3542           02674                                    SOLNSW
001616: 12,3543           02746                           STORE    VVEC
001617: 12,3544           53135                           SLOAD    BZE
001618: 12,3545           02704                                    VTARGTAG
001619: 12,3546           25551                                    TARGETV
001620: 12,3547           77650                           GOTO
001621: 12,3550           02712                                    RTNLAMB
001622:
001623: 12,3551           45145        TARGETV            DLOAD    CALL
001624: 12,3552           02722                                    MAGVEC2
001625: 12,3553           24713                                    LAMENTER
001626: 12,3554           36705                           STCALL   VTARGET
001627: 12,3555           02712                                    RTNLAMB
001628:


001630: 12,3556           40220        TIMERAD            STQ      SETPD                                 #                                PL AT 0
001631: 12,3557           02712                                    RTNTR
001632: 12,3560           00001                                    0
001633: 12,3561           77600                           BOV
001634: 12,3562           25563                                    +1
001635: 12,3563           63375                           VLOAD    PDVL                                  #                                PL AT 6
001636: 12,3564           02657                                    RVEC
001637: 12,3565           02746                                    VVEC
001638: 12,3566           77624                           CALL
001639: 12,3567           11637                                    PARAM
001640: 12,3570           71200                           BOV      DLOAD
001641: 12,3571           24776                                    COGAOVFL                              #                                PL AT 0
001642: 12,3572           11616                                    D1/32
001643: 12,3573           41225                           DSU      DMP
001644: 12,3574           02744                                    R1A
001645: 12,3575           02742                                    P
001646: 12,3576           41366                           SQRT     DMP
001647: 12,3577           03775                                    COGA
001648: 12,3600           74212                           SL4      VXSC
001649: 12,3601           02714                                    U2
001650: 12,3602           45325                           PDDL     DSU                                   #                                PL AT 6
001651: 12,3603           11610                                    D1/64
001652: 12,3604           02744                                    R1A
001653: 12,3605           52361                           VXSC     VSU                                   #                                PL AT 0
001654: 12,3606           02724                                    UR1
001655: 12,3607           53512                           VSL4     UNIT
001656: 12,3610           77600                           BOV
001657: 12,3611           25667                                    CIRCULAR
001658: 12,3612           60325                           PDDL     NORM                                  #  0D=UNIT(ECC) (+3)             PL AT 6
001659: 12,3613           02760                                    RDESIRED                              #  36D=ECC (+3)
001660: 12,3614           00047                                    X1
001661: 12,3615           41325                           PDDL     DMP                                   #                                PL AT 8
001662: 12,3616           00041                                    R1
001663: 12,3617           02742                                    P
001664: 12,3620           56257                           SL*      DDV                                   #                                PL AT 6
001665: 12,3621           20201                                    0,1
001666: 12,3622           56225                           DSU      DDV
001667: 12,3623           11614                                    D1/16
001668: 12,3624           00045                                    36D                                   #  36D=ECC (+3)
001669: 12,3625           00031                           STORE    COSF
001670: 12,3626           63400                           BOV      DSQ
001671: 12,3627           25673                                    BADR2
001672: 12,3630           50021                           BDSU     BMN
001673: 12,3631           11612                                    D1/4
001674: 12,3632           25673                                    BADR2
001675: 12,3633           75366                           SQRT     SIGN
001676: 12,3634           02757                                    SGNRDOT
001677: 12,3635           77614                           CLEAR
001678: 12,3636           04272                                    APSESW
001679:


001681: 12,3637           76561        TERMNVEC           VXSC     VSL1
001682: 12,3640           02676                                    UN
001683: 12,3641           63235                           VXV      PDVL                                  #  VXCH WITH 0D          PL AT 0,6
001684: 12,3642           00001                                    0D
001685: 12,3643           53361                           VXSC     VAD                                   #                        PL AT 0
001686: 12,3644           00031                                    COSF
001687: 12,3645           41572                           VSL1     PUSH                                  #  0D=U2                 PL AT 6
001688:
001689: 12,3646           56241                           DOT      DDV                                   #  LIMITS RESULT TO POSMAX OR NEGMAX
001690: 12,3647           02724                                    UR1
001691: 12,3650           23756                                    DP1/4
001692: 12,3651           40142                           SR1      BOV                                   #  SCALE BACK DOWN TO NORMAL
001693: 12,3652           25653                                    +1                                    #  CLEAR OVFIND IF SET
001694: 12,3653           26734                           STOVL    CSTH                                  #  CSTH (+1)
001695: 12,3654           02724                                    UR1
001696: 12,3655           76435                           VXV      VSL1
001697: 12,3656           72441                           DOT      SL1
001698: 12,3657           02676                                    UN
001699: 12,3660           16732                           STODL    SNTH                                  #  SNTH (+1)
001700: 12,3661           02742                                    P
001701: 12,3662           77624                           CALL
001702: 12,3663           25001                                    GETX
001703: 12,3664           77614                           CLRGO
001704: 12,3665           02634                                    SOLNSW
001705: 12,3666           24761                                    COMMNOUT
001706:
001707: 12,3667           43001        CIRCULAR           SETPD    SETGO
001708: 12,3670           00001                                    0
001709: 12,3671           02434                                    SOLNSW
001710: 12,3672           25751                                    ABTCONIC
001711:
001712: 12,3673           75345        BADR2              DLOAD    SIGN
001713: 12,3674           11564                                    LODPHALF
001714: 12,3675           00031                                    COSF
001715: 12,3676           14031                           STODL    COSF
001716: 12,3677           11566                                    KEPZERO
001717: 12,3700           77614                           SETGO
001718: 12,3701           04032                                    APSESW
001719: 12,3702           25637                                    TERMNVEC
001720:


001722: 12,3703           40220        APSIDES            STQ      SETPD                                 #                        PL AT 0
001723: 12,3704           02712                                    RTNAPSE
001724: 12,3705           00001                                    0D
001725: 12,3706           77600                           BOV
001726: 12,3707           25710                                    +1
001727: 12,3710           63375                           VLOAD    PDVL                                  #                        PL AT 6
001728: 12,3711           02657                                    RVEC
001729: 12,3712           02746                                    VVEC
001730: 12,3713           77624                           CALL
001731: 12,3714           11637                                    PARAM
001732: 12,3715           77600                           BOV                                            #                        PL AT 0
001733: 12,3716           25717                                    GETECC
001734: 12,3717           42405        GETECC             DMP      SL4
001735: 12,3720           02744                                    R1A
001736: 12,3721           75421                           BDSU     SQRT
001737: 12,3722           11610                                    D1/64
001738: 12,3723           02754                           STORE    ECC
001739: 12,3724           65215                           DAD      PDDL                                  #                        PL AT 2
001740: 12,3725           11604                                    D1/8
001741: 12,3726           00041                                    R1
001742: 12,3727           72405                           DMP      SL1
001743: 12,3730           02742                                    P
001744: 12,3731           77671                           DDV                                            #                        PL AT 0
001745: 12,3732           60325                           PDDL     NORM                                  #  0D=RP (+29 OR +27)    PL AT 2
001746: 12,3733           02744                                    R1A
001747: 12,3734           00047                                    X1
001748: 12,3735           53725                           PDDL     SL*                                   #                        PL AT 4
001749: 12,3736           00041                                    R1
001750: 12,3737           20174                                    0          -5,1
001751: 12,3740           45271                           DDV      DSU                                   #                        PL AT 2,0
001752: 12,3741           50000                           BOV      BMN
001753: 12,3742           25746                                    INFINAPO
001754: 12,3743           25746                                    INFINAPO
001755: 12,3744           77650                           GOTO
001756: 12,3745           02712                                    RTNAPSE
001757: 12,3746           52145        INFINAPO           DLOAD    GOTO                                  #  RETURNS WITH APOAPSIS IN MPAC, PERIAPSIS
001758: 12,3747           11577                                    LDPOSMAX
001759: 12,3750           02712                                    RTNAPSE                               #  THAT PL IS AT 0.
001760:


001762: 12,3751           77776        ABTCONIC           EXIT
001763: 12,3752           05721                           TC       POODOO
001764: 12,3753           00607                           OCT      00607
001765:


001767: 04,2000                                           SETLOC   CONICS1
001768: 04,2000                                           BANK
001769:
001770: 04,3737                                           COUNT    04/CONIC
001771:
001772: 04,3737           22437 16067  MUTABLE            2DEC*    3.986032   E10        B-36*           #  MUE
001773:
001774: 04,3741           15625 21042                     2DEC*    .25087606  E-10       B+34*           #  1/MUE
001775:
001776: 04,3743           30276 04773                     2DEC*    1.99650495 E5         B-18*           #  SQRT(MUE)
001777:
001778: 04,3745           25004 06702                     2DEC*    .50087529  E-5        B+17*           #  1/SQRT(MUE)
001779:
001780: 04,3747           16471 01352                     2DEC     4.902778   E8         B-30            #  MUM
001781:
001782: 04,3751           21412 20500                     2DEC     .203966    E-8        B+28            #  1/MUM
001783:
001784: 04,3753           25477 03367                     2DEC*    2.21422176 E4         B-15*           #  SQRT(MUM)
001785:
001786: 04,3755           27533 07571                     2DEC*    .45162595  E-4        B+14*           #  1/SQRT(MUM)
001787:
001788: 04,3757  04,3576               LDPOSMAX           EQUALS   LODPMAX                               #  DPPOSMAX IN LOW MEMORY.
001789:
001790:                                                                                                  #  ERASABLE ASSIGNMENTS
001791:
001792:                                                                                                  #  KEPLER SUBROUTINE
001793:
001794:                                                                                                  #  INPUT -
001795:                                                                                                  #  RRECT         ERASE   +5
001796:                                                                                                  #  VRECT         ERASE   +5
001797:                                                                                                  #  TAU.          ERASE   +1
001798:                                                                                                  #  XKEP          ERASE   +1
001799:                                                                                                  #  TC            ERASE   +1
001800:                                                                                                  #  XPREV         ERASE   +1
001801: 04,3757                        1/MU               EQUALS   14D
001802: 04,3757                        ROOTMU             EQUALS   16D
001803: 04,3757                        1/ROOTMU           EQUALS   18D
001804:
001805:                                                                                                  #  OUTPUT -
001806:                                                                                                  #  RCV           ERASE   +5
001807:                                                                                                  #  VCV           ERASE   +5
001808:                                                                                                  #  RC            ERASE   +1
001809:                                                                                                  #  XPREV         ERASE   +1
001810:
001811:                                                                                                  #  DEBRIS -
001812: 04,3757                        ALPHA              EQUALS   8D
001813: 04,3757                        XMAX               EQUALS   10D


001815: 04,3757                        XMIN               EQUALS   12D
001816: 04,3757                        X                  EQUALS   20D
001817: 04,3757                        XI                 EQUALS   24D
001818: 04,3757                        S(XI)              EQUALS   26D
001819: 04,3757                        XSQC(XI)           EQUALS   28D
001820: 04,3757                        T                  EQUALS   30D
001821: 04,3757                        R1                 EQUALS   32D
001822: 04,3757                        KEPC1              EQUALS   34D
001823: 04,3757                        KEPC2              EQUALS   36D
001824:
001825:                                                                                                  #  DELX          ERASE   +1
001826:                                                                                                  #  DELT          ERASE   +1
001827:                                                                                                  #  URRECT        ERASE   +5
001828:                                                                                                  #  RCNORM        ERASE   +1
001829:                                                                                                  #  XPREV         EQUALS  XKEP
001830:
001831:
001832:                                                                                                  #  LAMBERT SUBROUTINE
001833:
001834:                                                                                                  #  INPUT -
001835:                                                                                                  #  R1VEC         ERASE   +5
001836:                                                                                                  #  R2VEC         ERASE   +5
001837:                                                                                                  #  TDESIRED      ERASE   +1
001838:                                                                                                  #  GEOMSGN       ERASE   +0
001839:                                                                                                  #  GUESSW                        0 IF COGA GUESS AVAILABLE, 1 IF NOT
001840:                                                                                                  #  COGA          ERASE   +1      INPUT ONLY IF GUESSW IS ZERO.
001841:                                                                                                  #  NORMSW                        0 IF UN TO BE COMPUTED, 1 IF UN INPUT
001842:                                                                                                  #  UN            ERASE   +5      ONLY USED IF NORMSW IS 1
001843:                                                                                                  #  VTARGTAG      ERASE   +0
001844:                                                                                                  #  TWEEKIT       EQUALS  40D     ONLY USED IF GUESSW IS 0
001845:
001846:                                                                                                  #  OUTPUT -
001847:                                                                                                  #  VTARGET       ERASE   +5      AVAILABLE ONLY IF VTARGTAG IS ZERO.
001848:                                                                                                  #  V1VEC         EQUALS  MPAC
001849:
001850:                                                                                                  #  DEBRIS -
001851:                                                                                                  #  RTNLAMB       ERASE   +0
001852:                                                                                                  #  U2            ERASE   +5
001853:                                                                                                  #  MAGVEC2       ERASE   +1
001854:                                                                                                  #  UR1           ERASE   +5
001855:                                                                                                  #  R1            EQUALS  31D
001856:                                                                                                  #  UN            ERASE   +5
001857:                                                                                                  #  SNTH          ERASE   +1
001858:                                                                                                  #  CSTH          ERASE   +1
001859:                                                                                                  #  1-CSTH        ERASE   +1
001860:                                                                                                  #  CSTH-RHO      ERASE   +1
001861:
001862: 04,3757                        COGAMAX            EQUALS   14D                                   #  CLOBBERS 1/MU
001863: 04,3757                        COGAMIN            EQUALS   8D
001864: 04,3757                        DCOGA              EQUALS   12D
001865:
001866:                                                                                                  #  TWEEKIT       EQUALS  40D
001867:                                                                                                  #  P             ERASE   +1


001869:                                                                                                  #  COGA          ERASE   +1
001870:                                                                                                  #  R1A           ERASE   +1
001871:                                                                                                  #  X             EQUALS  20D
001872:                                                                                                  #  XSQ           EQUALS  22D
001873:                                                                                                  #  XI            EQUALS  24D
001874:                                                                                                  #  S(XI)         EQUALS  26D
001875:                                                                                                  #  XSQC(XI)      EQUALS  28D
001876:                                                                                                  #  T             EQUALS  30D
001877:                                                                                                  #  KEPC1         EQUALS  34D
001878:                                                                                                  #  KEPC2         EQUALS  36D
001879:                                                                                                  #  SLOPESW
001880:                                                                                                  #  SOLNSW
001881:
001882:                                                                                                  #  OTHERS -
001883:                                                                                                  #  RVEC          EQUALS  R1VEC
001884:                                                                                                  #  VVEC          ERASE   +5
001885:                                                                                                  #  COGAFLAG
001886:                                                                                                  #  RVSW
001887:                                                                                                  #  INFINFLG
001888:                                                                                                  #  APSESW
001889:                                                                                                  #  360SW
001890:                                                                                                  #  RTNTT         EQUALS  RTNLAMB
001891:                                                                                                  #  ECC           ERASE   +1
001892:                                                                                                  #  RTNTR         EQUALS  RTNLAMB
001893:                                                                                                  #  RTNAPSE       EQUALS  RTNLAMB
001894:                                                                                                  #  R2            EQUALS  MAGVEC2
001895:
001896: 04,3757                        COSF               EQUALS   24D
001897:
001898:                                                                                                  #  RTNPRM        ERASE   +0
001899:                                                                                                  #  SGNRDOT       ERASE   +0
001900:                                                                                                  #  RDESIRED      ERASE   +1
001901:
001902:
001903:                                                                                                  #  ITERATOR SUBROUTINE
001904:
001905:                                                                                                  #  ORDERSW
001906: 04,3757                        MAX                EQUALS   14D                                   #  CLOBBERS 1/MU
001907: 04,3757                        MIN                EQUALS   8D
001908:
001909:                                                                                                  #  INDEP         ERASE   +1
001910:
001911: 04,3757                        DELINDEP           EQUALS   12D
001912: 04,3757                        ITERCTR            EQUALS   22D
001913: 04,3757                        DEP                EQUALS   30D
001914:
001915:                                                                                                  #  DELDEP        ERASE   +1
001916:                                                                                                  #  DEPREV        ERASE   +1
001917:
001918: 04,3757                        TWEEKIT            EQUALS   40D
001919:
001920:
001921:                                                                                                  #  MORE KEPLER
001922:
001923:                                                                                                  #  EPSILONT      ERASE   +1
001924:


001926:                                                                                                  #  MORE LAMBERT
001927:
001928:                                                                                                  #  TERRLAMB      EQUALS  DELDEP
001929:                                                                                                  #  TPREV         EQUALS  DEPREV
001930:
001931:                                                                                                  #  EPSILONL      EQUALS  EPSILONT +2     DOUBLE PRECISION WORD
001932:
001933:

End of include-file CONIC_SUBROUTINES.agc.  Parent file is MAIN.agc


