
Source Code
000001:                                                                                                 #  Copyright:     Public domain.
000002:                                                                                                 #  Filename:      CSM_GEOMETRY.agc
000003:                                                                                                 #  Purpose:       Part of the source code for Colossus 2A, AKA Comanche 055.
000004:                                                                                                 #                 It is part of the source code for the Command Module's (CM)
000005:                                                                                                 #                 Apollo Guidance Computer (AGC), for Apollo 11.
000006:                                                                                                 #  Assembler:     yaYUL
000007:                                                                                                 #  Contact:       Ron Burkey <info@sandroid.org>.
000008:                                                                                                 #  Website:       www.ibiblio.org/apollo.
000009:                                                                                                 #  Pages: 285-296
000010:                                                                                                 #  Mod history:   2009-05-08 RSB  Adapted from the Colossus249/ file of the
000011:                                                                                                 #                                 same name, using Comanche055 page images.
000012:
000013:                                                                                                 #  This source code has been transcribed or otherwise adapted from digitized
000014:                                                                                                 #  images of a hardcopy from the MIT Museum.  The digitization was performed
000015:                                                                                                 #  by Paul Fjeld, and arranged for by Deborah Douglas of the Museum.  Many
000016:                                                                                                 #  thanks to both.  The images (with suitable reduction in storage size and
000017:                                                                                                 #  consequent reduction in image quality as well) are available online at
000018:                                                                                                 #  www.ibiblio.org/apollo.  If for some reason you find that the images are
000019:                                                                                                 #  illegible, contact me at info@sandroid.org about getting access to the
000020:                                                                                                 #  (much) higher-quality images which Paul actually created.
000021:
000022:                                                                                                 #  Notations on the hardcopy document read, in part:
000023:
000024:                                                                                                 #         Assemble revision 055 of AGC program Comanche by NASA
000025:                                                                                                 #         2021113-051.  10:28 APR. 1, 1969
000026:
000027:                                                                                                 #         This AGC program shall also be referred to as
000028:                                                                                                 #                         Colossus 2A
000029:
000030:                                                                                                 #  Page 285
000031: 22,2000                                          BANK     22
000032: 23,2000                                          SETLOC   COMGEOM1
000033: 23,2000                                          BANK
000034:
000035:                                                                                                 #  THIS ROUTINE TAKES THE SHAFT AND TRUNNION ANGLES AS READ BY THE CM OPTICAL SYSTEM AND CONVERTS THEM INTO A UNIT
000036:                                                                                                 #  VECTOR REFERENCED TO THE NAVIGATION BASE COORDINATE SYSTEM AND COINCIDENT WTIH THE SEXTANT LINE OF SIGHT.
000037:
000038:                                                                                                 #  THE INPUTS ARE:  1) THE SEXTAND SHAFT AND TRUNNION ANGLES ARE STORED SP IN LOCATIONS 3 AND 5 RESPECTIVELY OF THE
000039:                                                                                                 #  MARK VAC AREA.  2) THE COMPLEMENT OF THE BASE ADDRESS OF THE MARK VAC AREA IS STORED SP AT LOCATION X1 OF YOUR
000040:                                                                                                 #  JOB VAC AREA.
000041:
000042:                                                                                                 #  THE OUTPUT IS A HALF-UNIT VECTOR IN NAVIGATION BASE COORDINATES AND STORED AT LOCATION 32D OF THE VAC AREA. THE
000043:                                                                                                 #  OUTPUT IS ALSO AVAILABLE AT MPAC.
000044:
000045: 23,2000                                          COUNT    23/GEOM
000046:
000047: 23,2000           47133        SXTNB             SLOAD*   RTB                                   #  PUSHDOWN 00,02,04,(17D-19D),32D-36D
000048: 23,2001           00006                                   5,1                                   #  TRUNNION = TA
000049: 23,2002           45513                                   CDULOGIC
000050: 23,2003           41434                          RTB      PUSH
000051: 23,2004           46027                                   SXTLOGIC
000052: 23,2005           72556                          SIN      SL1
000053: 23,2006           66606                          PUSH     SLOAD*                                #  PD2 = SIN(TA)
000054: 23,2007           00004                                   3,1                                   #  SHAFT = SA
000055: 23,2010           41434                          RTB      PUSH                                  #  PD4 = SA
000056: 23,2011           45513                                   CDULOGIC
000057:
000058: 23,2012           41346                          COS      DMP
000059: 23,2013           00003                                   2
000060: 23,2014           14041                          STODL    STARM                                 #  COS(SA)SIN(TA)
000061:
000062: 23,2015           41356                          SIN      DMP
000063: 23,2016           77626                          STADR
000064: 23,2017           63734                          STODL    STARM      +2                         #  SIN(SA)SIN(TA)
000065:
000066: 23,2020           77746                          COS
000067: 23,2021           24045                          STOVL    STARM      +4
000068: 23,2022           00041                                   STARM                                 #  STARM = 32D
000069: 23,2023           76521                          MXV      VSL1
000070: 23,2024           06302                                   NB1NB2
000071: 23,2025           00041                          STORE    32D
000072: 23,2026           77616                          RVQ
000073:
000074: 23,2027           32323        SXTLOGIC          CAF      10DEGS-                               #  CORRECT FOR 19.775 DEGREE OFFSET
000075: 23,2030           26154                          ADS      MPAC
000076: 23,2031           35003                          CAF      QUARTER
000077: 23,2032           07256                          TC       SHORTMP
000078: 23,2033           06030                          TC       DANZIG
000079:
000080:                                                                                                 #  Page 286
000081:                                                                                                 #  CALCSXA COMPUTES THE SEXTANT SHAFT AND TRUNNION ANGLES REQUIRED TO POSITION THE OPTICS SUCH THAT A STAR LINE-
000082:                                                                                                 #  OF-SIGHT LIES ALONG THE STAR VECTOR.  THE ROUTINE TAKES THE GIVEN STAR VECTOR AND EXPRESSES IT AS A VECTOR REF-
000083:                                                                                                 #  ERENECED TO THE OPTICS COORDINATE SYSTEM.  IN ADDITION IT SETS UP THREE UNIT VECTORS DEFINING THE X, Y, AND Z AXES
000084:                                                                                                 #  REFERENCED TO THE OPTICS COORDINATE SYSTEM.
000085:
000086:                                                                                                 #  THE INPUTS ARE:  1) THE STAR VECTOR REFERRED TO THE PRESENT STABLE MEMMBER COORDINATES STORED AT STAR.  2) SAME ANGLE
000087:                                                                                                 #  INPUT AS *SMNB*, I.E., SINES AND COSINES OF THE CDU ANGLES, IN THE ORDER Y Z X, AT SINCDU AND COSCDU.  A CALL
000088:                                                                                                 #  TO CDUTRIG WILL PROVIDE THIS INPUT.
000089:
000090:                                                                                                 #  THE OUTPUT ARE THE SEXTANT SHAFT AND TRUNNION ANGLES STORED DP AT SAC AND PAC RESPECTIVELY.  (LOW ORDER PART
000091:                                                                                                 #  EQUAL TO ZERO).
000092:
000093: 23,2034           77220        CALCSXA           ITA      VLOAD                                 #  PUSHDOWN 00-26D, 28D, 30D, 32D-36D
000094: 23,2035           00034                                   28D
000095: 23,2036           02766                                   STAR
000096: 23,2037           77624                          CALL
000097: 23,2040           47644                                   *SMNB*
000098: 23,2041           76521                          MXV      VSL1
000099: 23,2042           06260                                   NB2NB1
000100: 23,2043           26766                          STOVL    STAR
000101: 23,2044           15333                                   HIUNITX
000102: 23,2045           26555                          STOVL    XNB1
000103: 23,2046           15331                                   HIUNITY
000104: 23,2047           26563                          STOVL    YNB1
000105: 23,2050           15327                                   HIUNITZ
000106: 23,2051           36571                          STCALL   ZNB1
000107: 23,2052           46076                                   SXTANG1
000108:
000109:                                                                                                 #  Page 287
000110:                                                                                                 #  SXTANG COMPUTES THE SEXTANT SHAFT AND TRUNNION ANGLES REQUIRED TO POSITION THE OPTICS SUCH THAT A STAR LINE-OF-
000111:                                                                                                 #  SIGHT LIES ALONG THE STAR VECTOR.
000112:
000113:                                                                                                 #  THE INPUTS ARE:  1) THE STAR VECTOR REFERRED TO ANY COORDINATE SYSTEM STORED AT STAR.  2) THE NAVIGATION BASE
000114:                                                                                                 #  COORDINATES REFERRED TO THE SAME COORDINATE SYSTEM.  THESE THREE HALF-UNIT VECTORS ARE STROED AT XNB, YNB,AND
000115:                                                                                                 #  ZNB.
000116:
000117:                                                                                                 #  THE OUTPUTS ARE THE SEXTANT SHAFT AND TRUNNION ANGLES STORED DP AT SAC AND PAC RESPECTIVELY.  (LOW ORDER PART
000118:                                                                                                 #  EQUAL TO ZERO).
000119:
000120: 23,2053           47020        SXTANG            ITA      RTB                                   #  PUSHDOWN 16D,18D,22D-26D,28D
000121: 23,2054           00034                                   28D
000122: 23,2055           45662                                   TRANSP1                               #  EREF WRT NB2
000123: 23,2056           64375                          VLOAD    MXV
000124: 23,2057           02714                                   XNB
000125: 23,2060           06260                                   NB2NB1
000126: 23,2061           77772                          VSL1
000127: 23,2062           26555                          STOVL    XNB1
000128: 23,2063           02722                                   YNB
000129: 23,2064           76521                          MXV      VSL1
000130: 23,2065           06260                                   NB2NB1
000131: 23,2066           26563                          STOVL    YNB1
000132: 23,2067           02730                                   ZNB
000133: 23,2070           76521                          MXV      VSL1
000134: 23,2071           06260                                   NB2NB1
000135: 23,2072           02571                          STORE    ZNB1
000136:
000137: 23,2073           47034                          RTB      RTB
000138: 23,2074           45662                                   TRANSP1
000139: 23,2075           45676                                   TRANSP2
000140:
000141: 23,2076           47375        SXTANG1           VLOAD    VXV
000142: 23,2077           02571                                   ZNB1
000143: 23,2100           02766                                   STAR
000144: 23,2101           77600                          BOV
000145: 23,2102           46103                                   +1
000146: 23,2103           40056                          UNIT     BOV
000147: 23,2104           46145                                   ZNB=S1
000148: 23,2105           00027                          STORE    PDA                                   #  PDA = UNIT(ZNB X S)
000149:
000150: 23,2106           57441                          DOT      DCOMP
000151: 23,2107           02555                                   XNB1
000152: 23,2110           24023                          STOVL    SINTH                                 #  SIN(SA) = PDA . -XNB
000153: 23,2111           00027                                   PDA
000154:
000155: 23,2112           77641                          DOT
000156: 23,2113           02563                                   YNB1
000157: 23,2114           34021                          STCALL   COSTH                                 #  COS(SA) = PDA . YNB
000158: 23,2115           47256                                   ARCTRIG
000159:                                                                                                 #  Page 288
000160: 23,2116           77634                          RTB
000161: 23,2117           45546                                   1STO2S
000162: 23,2120           26774                          STOVL    SAC
000163: 23,2121           02766                                   STAR
000164: 23,2122           77600                          BOV
000165: 23,2123           46124                                   +1
000166: 23,2124           72441                          DOT      SL1
000167: 23,2125           02571                                   ZNB1
000168: 23,2126           77726                          ACOS
000169: 23,2127           62440                          BMN      SL2
000170: 23,2130           46142                                   SXTALARM                              #  TRUNNION ANGLE NEGATIVE
000171: 23,2131           45200                          BOV      DSU
000172: 23,2132           46142                                   SXTALARM                              #  TRUNNION ANGLE GREATER THAN 90 DEGREES
000173: 23,2133           06331                                   20DEG-
000174: 23,2134           77634                          RTB
000175: 23,2135           45546                                   1STO2S
000176: 23,2136           02776                          STORE    PAC                                   #  FOR FLIGHT USE, CULTFLAG IS ON IF
000177: 23,2137           77614                          CLRGO                                          #  TRUNION IS GREATER THAN 90 DEG
000178: 23,2140           01630                                   CULTFLAG
000179: 23,2141           00034                                   28D
000180: 23,2142           77614        SXTALARM          SETGO                                          #  ALARM HAS BEEN REMOVED FROM THIS
000181: 23,2143           01430                                   CULTFLAG
000182: 23,2144           00034                                   28D                                   #  SUBROUTINE, ALARM WILL BE SET BY MPI
000183: 23,2145           77745        ZNB=S1            DLOAD
000184: 23,2146           06325                                   270DEG
000185: 23,2147           16774                          STODL    SAC
000186: 23,2150           06327                                   20DEGS-
000187: 23,2151           02776                          STORE    PAC
000188: 23,2152           77614                          CLRGO
000189: 23,2153           01630                                   CULTFLAG
000190: 23,2154           00034                                   28D
000191:
000192:                                                                                                 #  Page 289
000193:                                                                                                 #  THESE TWO ROUTINES COMPUTE THE ACTUAL STATE VECTOR FOR LM, CSM BY ADDING
000194:                                                                                                 #  THE CONIC R,V AND THE DEVIATIONS R,V.  THE STATE VECTORS ARE CONVERTED TO
000195:                                                                                                 #  METERS B-29 AND METERS/CSEC B-7 AND STORED APPROPRIATELY IN RN,VN OR
000196:                                                                                                 #  R-OTHER, V-OTHER FOR DOWNLINK.  THE ROUTINES NAMES ARE SWITCHED IN THE
000197:                                                                                                 #  OTHER VEHICLES COMPUTER.
000198:
000199:                                                                                                 #  INPUT
000200:                                                                                                 #         STATE VECTOR IN TEMPORARY STORAGE AREA
000201:                                                                                                 #         IF STATE VECTOR IS SCALED POS B27 AND VEL B5
000202:                                                                                                 #                 SET X2 TO +2
000203:                                                                                                 #         IF STATE VECTOR IS SCALED POS B29 AND VEL B7
000204:                                                                                                 #                 SET X2 TO 0
000205:
000206:                                                                                                 #  OUTPUT
000207:                                                                                                 #         R(T) IN RN, V(T) IN VN, T IN PIPTIME
000208:                                                                                                 #                 OR
000209:                                                                                                 #         R(T) IN R-OTHER, V(T) IN V-OTHER        (T IS DEFINED BY T-OTHER)
000210:
000211: 23,2155                                          BANK     23
000212: 10,2000                                          SETLOC   COMGEOM2
000213: 10,2000                                          BANK
000214: 10,2237                                          COUNT    10/GEOM
000215: 10,2237           43414        SVDWN1            BOF      RVQ                                   #  SW=1=AVETOMID DOING W-MATRIX INTEG
000216: 10,2240           04756                                   AVEMIDSW
000217: 10,2241           20242                                   +1
000218: 10,2242           53775                          VLOAD    VSL*
000219: 10,2243           01521                                   TDELTAV
000220: 10,2244           57605                                   0          -7,2
000221: 10,2245           53655                          VAD      VSL*
000222: 10,2246           01535                                   RCV
000223: 10,2247           57576                                   0,2
000224: 10,2250           25171                          STOVL    RN
000225: 10,2251           01527                                   TNUV
000226: 10,2252           53257                          VSL*     VAD
000227: 10,2253           57602                                   0          -4,2
000228: 10,2254           01543                                   VCV
000229: 10,2255           77657                          VSL*
000230: 10,2256           57576                                   0,2
000231: 10,2257           15177                          STODL    VN
000232: 10,2260           01517                                   TET
000233: 10,2261           01205                          STORE    PIPTIME
000234: 10,2262           77616                          RVQ
000235:
000236: 10,2263           53775        SVDWN2            VLOAD    VSL*
000237: 10,2264           01521                                   TDELTAV
000238: 10,2265           57605                                   0          -7,2
000239: 10,2266           53655                          VAD      VSL*
000240: 10,2267           01535                                   RCV
000241:                                                                                                 #  Page 290
000242: 10,2270           57576                                   0,2
000243: 10,2271           25722                          STOVL    R-OTHER
000244: 10,2272           01527                                   TNUV
000245: 10,2273           53257                          VSL*     VAD
000246: 10,2274           57602                                   0          -4,2
000247: 10,2275           01543                                   VCV
000248: 10,2276           77657                          VSL*
000249: 10,2277           57576                                   0,2
000250: 10,2300           01730                          STORE    V-OTHER
000251: 10,2301           77616                          RVQ
000252:
000253:                                                                                                 #  Page 291
000254:                                                                                                 #  SUBROUTINE TO COMPUTE THE NATURAL LOG OF C(MPAC, MPAC +1).
000255:
000256:                                                                                                 #         ENTRY:  CALL
000257:                                                                                                 #                         LOG
000258:
000259:                                                                                                 #  SUBROUTINE RETURNS WITH -LOG IN DP MPAC.
000260:
000261:                                                                                                 #  EBANK IS ARBITRARY.
000262:
000263: 14,2000                                          BANK     14
000264: 23,2000                                          SETLOC   POWFLIT2
000265: 23,2000                                          BANK
000266: 23,2155                                          COUNT    23/GEOM
000267:
000268: 23,2155           44301        LOG               NORM     BDSU                                  #  GENERATES LOG BY SHIFTING ARG
000269: 23,2156           00160                                   MPAC       +3                         #  UNTIL IT LIES BETWEEN .5 AND 1.
000270: 23,2157           06212                                   NEARLY1                               #  THE LOG OF THIS PART IS FOUND AND THE
000271: 23,2160           77776                          EXIT                                           #  LOG OF THE SHIFTED PART IS COMPUTED
000272: 23,2161           07171                          TC       POLY                                  #  AND ADDED IN.  SHIFT COUNT STORED
000273: 23,2162           00002                          DEC      2          B-14                       #  (N-1, SUPPLIED BY SMERZH)
000274: 23,2163           00000 00000                    2DEC     0          B-28                       #  IN MPAC +3.
000275: 23,2165           01001 14636                    2DEC     .031335467
000276: 23,2167           00325 07310                    2DEC     .0130145859
000277: 23,2171           00541 16735                    2DEC     .0215738898
000278:
000279: 23,2173           35021                          CAF      ZERO
000280: 23,2174           54156                          TS       MPAC       +2
000281: 23,2175           00006                          EXTEND
000282: 23,2176           32214                          DCA      CLOG2/32
000283: 23,2177           52155                          DXCH     MPAC
000284: 23,2200           52160                          DXCH     MPAC       +3
000285: 23,2201           40000                          COM                                            #  LOAD POSITIVE SHIFT COUNT IN A.
000286: 23,2202           07256                          TC       SHORTMP                               #  MULTIPLY BY SHIFT COUNT.
000287:
000288: 23,2203           52156                          DXCH     MPAC       +1
000289: 23,2204           52155                          DXCH     MPAC
000290: 23,2205           52160                          DXCH     MPAC       +3
000291: 23,2206           20155                          DAS      MPAC
000292: 23,2207           06006                          TC       INTPRET                               #  RESULT IN MPAC, MPAC +1
000293:
000294: 23,2210           77616                          RVQ
000295:
000296: 23,2211           37777 37777  NEARLY1           2DEC     .999999999
000297:
000298:                                                                                                 #  Page 292
000299: 23,2213           00542 34414  CLOG2/32          2DEC     .0216608494
000300:
000301:                                                                                                 #  Page 293
000302:                                                                                                 #  SUBROUTINE NAME:  EARTH ROTATOR        (EARROT1 OR EARROT2)            DATE:  15 FEB 67
000303:                                                                                                 #  MOD NO:  N +1                                                          LOG SECTION:  POWERED FLIGHT SUBROS
000304:                                                                                                 #  MOD BY:  ENTRY GROUP (BAIRNSFATHER)
000305:
000306:                                                                                                 #  FUNCTIONAL DESCRIPTION:  THIS ROUTINE PROJECTS THE INITIAL EARTH TARGET VECTOR RTINIT AHEAD THROUGH
000307:                                                                                                 #         THE ESTIMATED TIME OF FLIGHT.  INITIAL CALL RESOLVES THE INITIAL TARGET VECTOR RTINIT INTO EASTERLY
000308:                                                                                                 #         AND NORMAL COMPONENTS RTEAST AND RTNORM.  INITIAL AND SUBSEQUENT CALLS ROTATE THIS VECTOR
000309:                                                                                                 #         ABOUT THE (FULL) UNIT POLAR AXIS UNITW THROUGH THE ANGLE  WIE DTEAROT  TO OBTAIN THE ROTATED
000310:                                                                                                 #         TARGET VECTOR RT.  ALL VECTORS EXCEPT UNITW ARE HALF UNIT.
000311:                                                                                                 #         THE EQUATIONS ARE:
000312:                                                                                                 #                 _    _        _                      _
000313:                                                                                                 #                 RT = RTINIT + RTNORM (COS(WT) - 1) + RTEAST SIN(WT)
000314:
000315:                                                                                                 #         WHERE   WT = WIE DTEAROT
000316:
000317:                                                                                                 #                 RTINIT = INITIAL TARGET VECTOR
000318:                                                                                                 #                 _        _       _
000319:                                                                                                 #                 RTEAST = UNITW * RTINIT
000320:                                                                                                 #                 _        _        _
000321:                                                                                                 #                 RTNORM = RTEAST * UNITW
000322:
000323:                                                                                                 #         FOR CONTINUOUS UPDATING, ONLY ONE ENTRY TO EARROT1 IS REQUIRED, WITH SUBSEQUENT ENTRIES AT EARROT2.
000324:                                                                                                 #
000325:                                                                                                 #  CALLING SEQUENCE:      FIRST CALL                      SUBSEQUENT CALL
000326:                                                                                                 #                         STCALL  DTEAROT                 STCALL  DTEAROT
000327:                                                                                                 #                                 EARROT1                         EARROT2
000328:                                                                                                 #                         C(MPAC) UNSPECIFIED             C(MPAC) = DTEAROT
000329:                                                                                                 #         PUSHLOC = PDL+0, ARBITRARY.  6 LOCATIONS USED.
000330:
000331:                                                                                                 #  SUBROUTINES USED:  NONE
000332:
000333:                                                                                                 #  NORMAL EXIT MODES:  RVQ
000334:
000335:                                                                                                 #  ALARMS:  NONE
000336:
000337:                                                                                                 #  OUTPUT:        RTEAST  (-1)            .5 UNIT VECTOR EAST, COMPNT OF RTINIT   LEFT BY FIRST CALL
000338:                                                                                                 #                 RTNORM  (-1)            .5 UNIT VECTOR NORML, COMPNT OF RTINIT  LEFT BY FIRST CALL
000339:                                                                                                 #                 RT      (-1)            .5 UNIT TARGET VECTOR, ROTATED          LEFT BY ALL CALLS
000340:                                                                                                 #                 DTEAROT (-28) CS        MAY BE CHANGED BY EARROT2, IF OVER 1 DAY
000341:
000342:                                                                                                 #  ERASABLE INITIALIZATION REQUIRED:
000343:                                                                                                 #                 UNITW   (0)             UNIT POLAR VECTOR                       PAD LOADED
000344:                                                                                                 #                 RTINIT  (-1)            .5 UNIT INITIAL TARGET VECTOR           LEFT BY ENTRY
000345:                                                                                                 #                 DTEAROT (-28) CS        TIME OF FLIGHT                          LEFT BY CALLER
000346:
000347:                                                                                                 #  DEBRIS:  QPRET, PDL+0 ... PDL+5
000348:                                                                                                 #  Page 294
000349: 23,2215  E7,1451                                 EBANK=   RTINIT
000350:
000351: 23,2215           47375        EARROT1           VLOAD    VXV
000352: 23,2216           01714                                   UNITW                                 #  FULL UNIT VECTOR
000353: 23,2217           03452                                   RTINIT                                #  .5 UNIT
000354: 23,2220           03460                          STORE    RTEAST                                #  .5 UNIT
000355:
000356: 23,2221           77635                          VXV
000357: 23,2222           01714                                   UNITW                                 #  FULL UNIT
000358: 23,2223           17466                          STODL    RTNORM                                #  .5 UNIT
000359: 23,2224           03606                                   DTEAROT                               #  (-28) CS
000360:
000361: 23,2225           56204        EARROT2           BOVB     DDV
000362: 23,2226           57352                                   TCDANZIG                              #  RESET OVFIND, IF ON
000363: 23,2227           06256                                   1/WIE
000364: 23,2230           41400                          BOV      PUSH
000365: 23,2231           46245                                   OVERADAY
000366: 23,2232           45346                          COS      DSU
000367: 23,2233           15333                                   HIDPHALF
000368: 23,2234           65361                          VXSC     PDDL                                  #  XCH W PUSH LIST
000369: 23,2235           03466                                   RTNORM                                #  .5 UNIT
000370: 23,2236           74356                          SIN      VXSC
000371: 23,2237           03460                                   RTEAST                                #  .5 UNIT
000372: 23,2240           76455                          VAD      VSL1
000373: 23,2241           53455                          VAD      UNIT                                  #  INSURE THAT RT IS "UNIT".
000374: 23,2242           03452                                   RTINIT                                #  .5 UNIT
000375: 23,2243           03474                          STORE    RT                                    #  .5 UNIT TARGET VECTOR
000376:
000377: 23,2244           77616                          RVQ
000378:
000379: 23,2245           75345        OVERADAY          DLOAD    SIGN
000380: 23,2246           06256                                   1/WIE
000381: 23,2247           03606                                   DTEAROT
000382: 23,2250           77621                          BDSU
000383: 23,2251           03606                                   DTEAROT
000384: 23,2252           03606                          STORE    DTEAROT
000385:
000386: 23,2253           77650                          GOTO
000387: 23,2254           46225                                   EARROT2
000388:
000389:                                                                                                 # WIE             2DEC    .1901487997
000390: 23,2255           01015 34732  1/WIE             2DEC     8616410    B-28
000391: 23,2257           15373 11346  NB2NB1            2DEC     +.8431756920 B-1
000392: 23,2261           00000 00000                    2DEC     0          B-28
000393: 23,2263           67313 65307                    2DEC     -.5376381241 B-1
000394:                                                                                                 #  Page 295
000395: 23,2265           00000 00000  ZERINFLT          2DEC     0          B-28
000396: 23,2267           20000 00000  HALFNFLT          2DEC     .5
000397: 23,2271           00000 00000                    2DEC     0          B-28
000398: 23,2273           10464 12470                    2DEC     +.5376381241 B-1
000399: 23,2275           00000 00000                    2DEC     0          B-28
000400: 23,2277           15373 11346                    2DEC     +.8431756920 B-1
000401: 23,2301           15373 11346  NB1NB2            2DEC     +.8431756920 B-1
000402: 23,2303           00000 00000                    2DEC     0          B-28
000403: 23,2305           10464 12470                    2DEC     +.5376381241 B-1
000404: 23,2307           00000 00000                    2DEC     0          B-28
000405: 23,2311           20000 00000                    2DEC     .5
000406: 23,2313           00000 00000                    2DEC     0          B-28
000407: 23,2315           67313 65307                    2DEC     -.5376381241 B-1
000408: 23,2317           00000 00000                    2DEC     0          B-28
000409: 23,2321           15373 11346                    2DEC     +.8431756920 B-1
000410:                                                                                                 #  Page 296
000411: 23,2323           07020        10DEGS-           DEC      3600       B-14
000412: 23,2324           60000        270DEG            OCT      60000                                 #  SHAFT 270 DEGREES      25 COMP.
000413: 23,2325           00000                          OCT      00000
000414: 23,2326           61740        20DEGS-           DEC      -07199     B-14
000415: 23,2327           77777                          DEC      -00000     B-14
000416: 23,2330           07020        20DEG-            DEC      03600      B-14
000417: 23,2331           00000                          DEC      00000      B-14
000418:

End of include-file CSM_GEOMETRY.agc.  Parent file is MAIN.agc


