
Source Code
000001:                                                                                                 #  Copyright:    Public domain.
000002:                                                                                                 #  Filename:     DISPLAY_INTERFACE_ROUTINES.agc
000003:                                                                                                 #  Purpose:      Part of the source code for Comanche, build 055. It
000004:                                                                                                 #                is part of the source code for the Command Module's
000005:                                                                                                 #                (CM) Apollo Guidance Computer (AGC), Apollo 11.
000006:                                                                                                 #  Assembler:    yaYUL
000007:                                                                                                 #  Reference:    pp. 1452-1484
000008:                                                                                                 #  Contact:      Ron Burkey <info@sandroid.org>
000009:                                                                                                 #  Website:      http://www.ibiblio.org/apollo.
000010:                                                                                                 #  Mod history:  2009-05-07 RSB   Adapted from Colossus249 file of the same
000011:                                                                                                 #                                 name, and page images. Corrected various
000012:                                                                                                 #                                 typos in the transcription of program
000013:                                                                                                 #                                 comments, and these should be back-ported
000014:                                                                                                 #                                 to Colossus249.
000015:
000016:                                                                                                 #  The contents of the "Comanche055" files, in general, are transcribed
000017:                                                                                                 #  from scanned documents.
000018:
000019:                                                                                                 #        Assemble revision 055 of AGC program Comanche by NASA
000020:                                                                                                 #        2021113-051.  April 1, 1969.
000021:
000022:                                                                                                 #        This AGC program shall also be referred to as Colossus 2A
000023:
000024:                                                                                                 #        Prepared by
000025:                                                                                                 #                        Massachussets Institute of Technology
000026:                                                                                                 #                        75 Cambridge Parkway
000027:                                                                                                 #                        Cambridge, Massachusetts
000028:
000029:                                                                                                 #        under NASA contract NAS 9-4065.
000030:
000031:                                                                                                 #  Refer directly to the online document mentioned above for further
000032:                                                                                                 #  information.  Please report any errors to info@sandroid.org.
000033:
000034:                                                                                                 #  Page 1452
000035:                                                                                                 #  DISPLAYS CAN BE CLASSIFIED INTO THE FOLLOWING CATEGORIES --
000036:                                                                                                 #         1.  PRIORITY DISPLAYS -- DISPLAYS WHICH TAKE PRIORITY OVER ALL OTHER DISPLAYS.  USUALLY THESE DISPLAYS ARE SENT
000037:                                                                                                 #             OUT UNDER CRITICAL ALARM CONDITIONS.
000038:                                                                                                 #         2.  EXTENDED VERB DISPLAYS -- ALL EXTENDED VERBS AND MARK ROUTINES SHOULD USE EXTENDED VERB (MARK) DISPLAYS.
000039:                                                                                                 #         3.  NORMAL DISPLAYS -- ALL MISSION PROGRAM DISPLAYS WHICH INTERFACE WITH THE ASTRONAUT DURING THE NORMAL
000040:                                                                                                 #             SEQUENCE OF EVENTS.
000041:                                                                                                 #         4.  MISC. DISPLAYS -- ALL DISPLAYS NOT HANDLED BY THE DISPLAY INTERFACE ROUTINES.  THESE INCLUDE SUCH DISPLAYS AS
000042:                                                                                                 #             MM DISPLAYS AND SPECIAL PURPOSE DISPLAYS HANDLED BY PINBALL.
000043:                                                                                                 #         5.  ASTRONAUT INITIATED DISPLAYS -- ALL DISPLAYS INITIATED EXTERNALLY.
000044:
000045:                                                                                                 #  THE FOLLOWING TERMS ARE USED TO DESCRIBE THE STATUS OF DISPLAYS --
000046:                                                                                                 #         1.  ACTIVE -- THE DISPLAY WHICH IS (1) BEING DISPLAYED TO THE ASTRONAUT AND WAITING FOR A RESPONSE OR
000047:                                                                                                 #             (2) WAITING FIRST IN LINE FOR THE ASTRONAUT TO FINISH USING THE DSKY OR (3) BEING DISPLAYED ON THE DSKY
000048:                                                                                                 #             BUT NOT WAITING FOR A RESPONSE.
000049:                                                                                                 #         2.  INACTIVE -- A DISPLAY WHICH HAS (1) BEEN ACTIVE BUT WAS INTERRUPTED BY A DISPLAY OF HIGHER PRIORITY,
000050:                                                                                                 #             (2) BEEN PUT INTO THE WAITING LIST AT TIME IT WAS REQUESTED DUE TO THE FACT A HIGHER PRIORITY DISPLAY
000051:                                                                                                 #             WAS ALREADY DOING, (3) BEEN INTERRUPTED BY THE ASTRONAUT (CALLED A PINBRANCH CONDITION, SINCE THIS TYPE
000052:                                                                                                 #             OF INACTIVE DISPLAY IS USUALLY REACTIVATED ONLY BY PINBALL) OR (4) A DISPLAY WHICH HAS FINISHED BUT STILL
000053:                                                                                                 #             HAS INFO SAVED FOR RESTART PURPOSES.
000054:
000055:                                                                                                 #  DISPLAY PRIORITIES WORK AS FOLLOWS --
000056:                                                                                                 #         INTERRUPTS --
000057:                                                                                                 #                 1.  THE ASTRONAUT CAN INTERRUPT ANY DISPLAY WITH AN EXTERNAL DISPLAY REQUEST.
000058:                                                                                                 #                 2.  INTERNAL DISPLAYS CAN NOT BE SENT OUT WHEN THE ASTRONAUT IS USING THE DSKY.
000059:                                                                                                 #                 3.  PRIORITY DISPLAYS INTERRUPT ALL OTHER TYPES OF INTERNAL DISPLAYS.  A PRIORITY DISPLAY INTERRUPTING ANOTHER
000060:                                                                                                 #                     PRIORITY DISPLAY WILL CAUSE AN ABORT UNLESS BIT14 IS SET FOR THE LINUS ROUTINE.
000061:                                                                                                 #                 4.  A MARK DISPLAY INTERRUPTS ANY NORMAL DISPLAY.
000062:                                                                                                 #                 5.  A MARK THAT INTERRUPTS A MARK COMPLETELY REPLACES IT.
000063:
000064:                                                                                                 #         ORDER OF WAITING DISPLAYS --
000065:                                                                                                 #                 1.  ASTRONAUT
000066:                                                                                                 #                 2.  PRIORITY
000067:                                                                                                 #                 3.  INTERRUPTED MARK
000068:                                                                                                 #                 4.  INTERRUPTED NORMAL
000069:                                                                                                 #                 5.  MARK TO BE REQUESTED (SEE DESCRIPTION OF ENDMARK)
000070:                                                                                                 #                 6.  MARK WAITING
000071:                                                                                                 #                 7.  NORMAL WAITING
000072:
000073:                                                                                                 #  Page 1453
000074:                                                                                                 #  THE DISPLAY ROUTINES ARE INTENDED TO SERVE AS AN INTERFACE BETWEEN THE USER AND PINBALL.  THE
000075:                                                                                                 #  FOLLOWING STATEMENTS CAN BE MADE ABOUT NORMAL DISPLAYS AND PRIORITY DISPLAYS (A DESCRIPTION OF MARK ROUTINES
000076:                                                                                                 #  WILL FOLLOW LATER):
000077:                                                                                                 #         1.  ALL ROUTINES THAT END IN R HAVE AN IMMEDIATE RETURN TO THE USER.  FOR ALL FLASHING DISPLAYS THIS RETURN
000078:                                                                                                 #             IS TO THE USER'S CALL CADR +4.  FOR THE ONLY NON-FLASHING IMMEDIATE RETURN DISPLAY (GODSPR) THIS RETURN
000079:                                                                                                 #             IS TO THE USER'S CALLING LOC +1.
000080:                                                                                                 #         2.  ALL ROUTINES NOT ENDING IN R DO NOT DO AN IMMEDIATE RETURN TO THE USER.
000081:                                                                                                 #         3.  ALL ROUTINES THAT END IN R START A SEPARATE JOB (MAKEPLAY) WITH USER'S JOB PRIORITY.
000082:                                                                                                 #         4.  ALL ROUTIENS NOT ENDING IN R BRANCH DIRECTLY TO MAKEPLAY WHICH MAKES THESE DISPLAYS A PART OF THE
000083:                                                                                                 #             USER'S JOB.
000084:                                                                                                 #         5.  ALL DISPLAY ROUTIENS ARE CALLED VIA BANKCALL.
000085:                                                                                                 #         6.  TO RESTART A DISPLAY THE USER WILL GENERALLY USE A PHASE OF ONE WITH DESIRED RESTART GROUP (SEE
000086:                                                                                                 #             DESCRIPTION OF RESTARTS).
000087:                                                                                                 #         7.  ALL FLASHING DISPLAYS HAVE 3 RETURNS TO THE USER FROM ASTRONAUT RESPOSES.  A TERMINATE (V34) BRANCHES
000088:                                                                                                 #             TO THE USER'S CALL CADR +1.  A PROCEED (V33) BRANCHES TO THE USER'S CALL CADR +2.  AN ENTER OR RECYCLE
000089:                                                                                                 #             (V32) BRANCHES TO THE USER'S CALL CADR +3.
000090:                                                                                                 #         8.  ALL ROUTINES MUST BE USED UNDER EXECUTIVE CONTROL
000091:
000092:                                                                                                 #  A DESCRIPTION OF EACH ROUTINE WITH AN EXAMPLE FOLLOWS:
000093:
000094:                                                                                                 #         GODSP IS USED TO DISPLAY A VERB NOUN ARRIVING IN A.  NO RETURN IS MADE TO THE USER.
000095:                                                                                                 #                 1.  GODSP IS NOT RESTARTABLE
000096:                                                                                                 #                 2.  A VERB PASTE WITH GODSP ALWAYS TURNS ON THE FLASH.
000097:                                                                                                 #                                 CAF     VXXNYY
000098:                                                                                                 #                                 TC      BANKCALL
000099:                                                                                                 #                                 CADR    GODSP
000100:                                                                                                 #                         VXXNYY  OCT     OXXYY
000101:
000102:                                                                                                 #         GODSPR IS THE SAME AS GODSP ONLY RETURN IS TO THE USER.
000103:                                                                                                 #                                 CAF     VXXNYY
000104:                                                                                                 #                                 TC      BANKCALL
000105:                                                                                                 #                                 CADR    GODSPR
000106:                                                                                                 #                                 ...     ...             # IMMEDIATE RETURN OF GODSPR
000107:
000108:                                                                                                 #         GOFLASH DISPLAYS A FLASHING VERB NOUN WITH NO IMMEDIATE RETURN TO THE USER.  3 RETURNS ARE POSSIBLE FORM
000109:                                                                                                 #         THE ASTRONAUT (SEE NO. 7 ABOVE).
000110:                                                                                                 #                                 CAF     VXXNYY          # VXX NYY WILL BE A FLASHING VERB NOUN.
000111:                                                                                                 #                                 TC      BANKCALL
000112:                                                                                                 #                                 CADR    GOFLASH
000113:                                                                                                 #                                 ...     ...             # TERMINATE RETURN
000114:                                                                                                 #                                 ...     ...             # PROCEED RETURN
000115:                                                                                                 #                                 ...     ...             # ENTER OR RECYCLE RETURN
000116:
000117:                                                                                                 #         GOPERF1 IS ENTERED WITH DESIRED CHECKLIST VALUE IN A.  GOPERF1 WILL DISPLAY THIS VALUE IN R1 BY MEANS OF A
000118:                                                                                                 #  Page 1454
000119:                                                                                                 #         V01 N25.  A FLASHING PLEASE PERFORM ON CHECKLIST (V50 N25) IS THEN DISPLAYED.  NO IMMEDIATE RETURN IS MADE TO
000120:                                                                                                 #         USER (SEE NO. 7 ABOVE).
000121:                                                                                                 #         GOPERF1 BLANKS REGISTERS R2 AND R3
000122:                                                                                                 #                                 CAF     OCTXX           # CODE FOR CHECKLIST VALUE XX
000123:                                                                                                 #                                 TC      BANKCALL
000124:                                                                                                 #                                 CADR    GOPERF1
000125:                                                                                                 #                                 ...     ...             # TERMINATE RETURN
000126:                                                                                                 #                                 ...     ...             # PROCEED RETURN
000127:                                                                                                 #                                 ...     ...             # ENTER RETURN
000128:                                                                                                 #         GOPERF2 IS ENTERED WITH A VARIABLE NOUN AND V01 (V00 FOR N10 OR N11) IN A.  GOPERF2 WILL FIRST DISPLAY THE
000129:                                                                                                 #         REQUESTED NOUN BY MEANS OF A V01NYY OR A V00NYY.  PLEASE PERFORM ON NOUN (V50 NYY) THEN BECOMES A FLASHING
000130:                                                                                                 #         DISPLAY.  NO IMMEDIATE RETURN IS MADE TO THE USER (SEE NO. 7 ABOVE).
000131:                                                                                                 #         GOPERF2 DOES NOT BLANK ANY REGISTERS
000132:                                                                                                 #                                 CAF     VXXNYY          # VARIABLE NOUN YY. XX=0 OR 01.
000133:                                                                                                 #                                 TC      BANKCALL
000134:                                                                                                 #                                 CADR    GOPERF2
000135:                                                                                                 #                                 ...     ...             # TERMINATE RETURN
000136:                                                                                                 #                                 ...     ...             # PROCEED RETURN
000137:                                                                                                 #                                 ...     ...             # ENTER RETURN
000138:                                                                                                 #         GOPERF3 IS USED FOR A PLEASE PERFORM ON A PROGRAM NUMBER.  THE DESIRED PROGRAM NO. IS ENTERED IN A.  GOPERF3
000139:                                                                                                 #         DISPLAYS THE NO. BY MEANS OF A V06 N07 FOLLOWED BY A FLASHING V50 N07 FOR A PLEASE PERFORM.  NO IMMEDIATE RETURN
000140:                                                                                                 #         IS MADE TO THE USER (SEE NO. 7 ABOVE).
000141:                                                                                                 #         GOPERF3 BLANKS REGISTERS R2 AND R3
000142:                                                                                                 #                                 CAF     DECXX           # REQUEST PERFORM ON PXX
000143:                                                                                                 #                                 TC      BANKCALL
000144:                                                                                                 #                                 CADR    GOPERF3
000145:                                                                                                 #                                 ...     ...             # TERMINATE RETURN
000146:                                                                                                 #                                 ...     ...             # PROCEED RETURN
000147:                                                                                                 #                                 ...     ...             # ENTER RETURN
000148:
000149:                                                                                                 #         GOPERF4 IS USED FOR A PLEASE PERFORM ON AN OPTION.  THE DESIRED OPTION IS ENTERED IN A AND STORED IN OPTION1.
000150:                                                                                                 #         GOPERF4 DISPLAYS R1 AND R2 BY MEANS OF A V04N06 FOLLOWED BY A FLASHING V50N06 FOR A PLEASE PERFORM.  NO
000151:                                                                                                 #         IMMEDIATE RETURN IS MADE TO THE USER (SEE NO. 7 ABOVE).
000152:                                                                                                 #                                 CAF     OCTXX           # REQUEST PERFORM ON OPTION XX
000153:                                                                                                 #                                 TC      BANKCALL
000154:                                                                                                 #                                 CADR    GOPERF4
000155:                                                                                                 #                                 ...     ...             # TERMINATE RETURN
000156:                                                                                                 #                                 ...     ...             # PROCEED RETURN
000157:                                                                                                 #                                 ...     ...             # ENTER RETURN
000158:                                                                                                 #         GOPERF4 BLANKS REGISTER R3.
000159:
000160:                                                                                                 #  Page 1455
000161:                                                                                                 #         GODSPRET IS USED TO DISPLAY A VERB NOUN ARRIVING IN A WITH A RETURN TO THE USER AFTER THE DISPLAY HAS BEEN SENT
000162:                                                                                                 #         OUT.
000163:                                                                                                 #                                 CAF     VXXXNYY
000164:                                                                                                 #                                 TC      BANKCALL
000165:                                                                                                 #                                 CADR    GODSPRET
000166:                                                                                                 #                                 ...     ...             # RETURN TO USER.
000167:
000168:                                                                                                 #         REGODSP IS USED TO DISPLAY A VERB NOUN ARRIVING IN A.  REGODSP IS THE SAME AS GODSP ONLY REGODSP REPLACES AND
000169:                                                                                                 #         ACTIVE NORMAL DISPLAY IF ONE WAS ACTIVE.
000170:                                                                                                 #                                 CAF     VXXNYY
000171:                                                                                                 #                                 TC      BANKCALL
000172:                                                                                                 #                                 CADR    REGODSP
000173:
000174:                                                                                                 #         REFLASH IS THE SAME AS GOFLASH ONLY REFLASH REPLACES ANY ACTIVE NORMAL DISPLAY IF ONE WAS ACTIVE.
000175:                                                                                                 #                                 CAF     VXXNYY          # VXX NYY WILL BE A FLASHING VERB NOUN
000176:                                                                                                 #                                 TC      BANKCALL
000177:                                                                                                 #                                 CADR    REFLASH
000178:                                                                                                 #                                 ...     ...             # TERMINATE RETURN
000179:                                                                                                 #                                 ...     ...             # PROCEED RETURN
000180:                                                                                                 #                                 ...     ...             # ENTER RETURN
000181:
000182:                                                                                                 #         GOFLASHR IF SAME AS GOFLASH ONLY AN IMMEDIATE RETURN IS MADE TO THE USER'S CALL CADR +4.
000183:                                                                                                 #                                 CAF     VXXNYY
000184:                                                                                                 #                                 TC      BANKCALL
000185:                                                                                                 #                                 CADR    GOFLASHR
000186:                                                                                                 #                                 ...     ...             # TERMINATE RETURN
000187:                                                                                                 #                                 ...     ...             # PROCEED RETURN
000188:                                                                                                 #                                 ...     ...             # ENTER OR RECYCLE RETURN
000189:                                                                                                 #                                 ...     ...             # IMMEDIATE RETURN FROM GOFLASHR
000190:
000191:                                                                                                 #         GOPERF1R IS THE SAME AS GOPERF1 ONLY GOPERF1R HAS AN IMMEDIATE RETURN TO USER'S CALL CADR +4.
000192:                                                                                                 #         GOPERF1R BLANKS REGISTERS R2 AND R3
000193:                                                                                                 #                                 CAF     OCTXX           # CODE FOR CHECKLIST VALUE XX.
000194:                                                                                                 #                                 TC      BANKCALL
000195:                                                                                                 #                                 CADR    GOPERF1R
000196:                                                                                                 #                                 ...     ...             # TERMINATE RETURN
000197:                                                                                                 #                                 ...     ...             # PROCEED RETURN
000198:                                                                                                 #                                 ...     ...             # ENTER RETURN
000199:                                                                                                 #                                 ...     ...             # IMMEDIATE RETURN FROM GOPERF1R
000200:
000201:                                                                                                 #         GOPERF2R IS THE SAME AS GOPERF2 ONLY AN IMMEDIATE RETURN IS MADE TO USER'S CALL CADR +4.
000202:                                                                                                 #  Page 1456
000203:                                                                                                 #         GOPERF2R DOES NOT BLANK ANY REGISTERS
000204:                                                                                                 #                                 CAF     VXXXNYY         # VARIABLE NOUN YY REQUESTED.  XX=00 OR 01
000205:                                                                                                 #                                 TC      BANKCALL
000206:                                                                                                 #                                 CADR    GOPERF2R
000207:                                                                                                 #                                 ...     ...             # TERMINATE RETURN
000208:                                                                                                 #                                 ...     ...             # PROCEED RETURN
000209:                                                                                                 #                                 ...     ...             # ENTER RETURN
000210:                                                                                                 #                                 ...     ...             # IMMEDIATE RETURN HERE FROM GOPERF2R
000211:
000212:                                                                                                 #         GOPERF3R IS THE SAME AS GOPERF3 ONLY AN IMMEDIATE RETURN IS MADE TO USER'S CALL CADR +4.
000213:                                                                                                 #         GOPERF3R BLANKS REGISTERS R2 AND R3
000214:                                                                                                 #                                 CAF     PROGXX          # PERFORM PROGRAM XX
000215:                                                                                                 #                                 TC      BANKCALL
000216:                                                                                                 #                                 CADR    GOPERF3R
000217:                                                                                                 #                                 ...     ...             # TERMINATE RETURN
000218:                                                                                                 #                                 ...     ...             # PROCEED RETURN
000219:                                                                                                 #                                 ...     ...             # ENTER RETURN
000220:                                                                                                 #                                 ...     ...             # GOPERF3R IMMEDIATELY RETURNS HERE
000221:
000222:                                                                                                 #         GOPERF4R IS THE SAME AS GOPERF4 ONLY AN IMMEDIATE RETURN IS MADE TO USER'S CALL CADR +4.
000223:                                                                                                 #                                 CAF     OCTXX           # REQUEST PERFORM ON OPTIONXX
000224:                                                                                                 #                                 TC      BANKCALL
000225:                                                                                                 #                                 CADR    GOPERF4R
000226:                                                                                                 #                                 ...     ...             # TERMINATE RETURN
000227:                                                                                                 #                                 ...     ...             # PROCEED RETURN
000228:                                                                                                 #                                 ...     ...             # ENTER RETURN
000229:                                                                                                 #                                 ...     ...             # IMMEDIATE RETURN TO USER
000230:                                                                                                 #         GOPERF4R BLANKS REGISTER R3.
000231:
000232:                                                                                                 #         REFLASHR IS THE SAME AS REFLASH ONLY AN IMMEDIATE RETURN IS MADE TO THE USER'S CALL CADR +4.
000233:                                                                                                 #                                 CAF     VXXNYY          # VXX NYY WILL BE A FLASHING VERB NOUN
000234:                                                                                                 #                                 TC      BANKCALL
000235:                                                                                                 #                                 CADR    REFLASHR
000236:                                                                                                 #                                 ...     ...             # TERMINATE RETURN
000237:                                                                                                 #                                 ...     ...             # PROCEED RETURN
000238:                                                                                                 #                                 ...     ...             # ENTER RETURN
000239:                                                                                                 #                                 ...     ...             # IMMEDIATE RETURN TO USER
000240:
000241:                                                                                                 #         REGODSPR IS THE SAME AS REGODSP ONLY A RETURN (IMMEDIATE) IS MADE TO THE USER.
000242:                                                                                                 #  Page 1457
000243:                                                                                                 #                                 CAF     VXXNYY
000244:                                                                                                 #                                 TC      BANKCALL
000245:                                                                                                 #                                 CADR    REGODSPR
000246:                                                                                                 #                                 ...     ...             # IMMEDIATE RETURN TO USER
000247:
000248:                                                                                                 #  Page 1458
000249:                                                                                                 #         GOMARK IS USED TO DISPLAY A MARK VERB NOUN ARRIVING IN A.  NO RETURN IS MADE TO THE USER.
000250:                                                                                                 #         GOXDSP = GOMARK
000251:                                                                                                 #                                 CAF     VXXNYY          # VXXNYY CONTAINS VERB AND NOUN
000252:                                                                                                 #                                 TC      BANKCALL
000253:                                                                                                 #                                 CADR    GOMARK          # OTHER EXTENDED VERBS USE CADR GOXDSP
000254:
000255:                                                                                                 #         GOMARKR IS THE SAME AS GOMARK ONLY RETURN IS TO THE USER.
000256:                                                                                                 #         GOXDSPR = GOMARKR
000257:                                                                                                 #                                 CAF     VXXNYY
000258:                                                                                                 #                                 TC      BANKCALL
000259:                                                                                                 #                                 CADR    GOMARKR         # OTHER EXTENDED VERBS USE CADR GOXDSPR
000260:                                                                                                 #                                 ...     ...             # IMMEDIATE RETURN OF GOMARKR
000261:
000262:                                                                                                 #         GOMARKF DISPLAYS A FLASHING MARK VERB NOUN WITH NO IMMEDIATE RETURN TO THE USER.  3 RETURNS ARE POSSIBLE FORM
000263:                                                                                                 #         THE ASTRONAUT (SEE NO. 7 ABOVE).
000264:                                                                                                 #         GOXDSPF = GOMARKF
000265:                                                                                                 #                                 CAF     VXXNYY          # VXXNYY WILL BE A FLASHING MARK VERB NOUN
000266:                                                                                                 #                                 TC      BANKCALL
000267:                                                                                                 #                                 CADR    GOMARKFR        # OTHER EXTENDED VERBS USE CADR GOXDSPFR
000268:                                                                                                 #                                 ...     ...             # TERMINATE RETURN
000269:                                                                                                 #                                 ...     ...             # PROCEED RETURN
000270:                                                                                                 #                                 ...     ...             # ENTER OR RECYCLE RETURN
000271:                                                                                                 #                                 ...     ...             # IMMEDIATE RETURN TO THE USER
000272:
000273:                                                                                                 #         GOMARKFR IS THE SAME AS GOMARKF ONLY AN IMMEDIATE RETURN IS MADE TO THE USER CALL CADR +4.
000274:                                                                                                 #         GOXDSPFR = GOMARKFR
000275:                                                                                                 #                                 CAF     VXXNYY          # FLASHING MARK VERB NOUN
000276:                                                                                                 #                                 TCF     BANKCALL
000277:                                                                                                 #                                 CADR    GOMARKFR        # OTHER EXTENDED VERBS USE CADR GOXDSPFR
000278:                                                                                                 #                                 ...     ...             # TERMINATE RETURN
000279:                                                                                                 #                                 ...     ...             # PROCEED RETURN
000280:                                                                                                 #                                 ...     ...             # ENTER OR RECYCLE RETURN
000281:                                                                                                 #
000282:                                                                                                 #                                 ...     ...             # IMMEDIATE RETURN TO THE USER
000283:
000284:                                                                                                 #         GOMARK1 IS USED FOR A PLEASE PERFORM ON A MARK REQUEST WITH ONLY 1 ASTRONAUT RETURN TO THE USER.  NO IMMEDIATE
000285:                                                                                                 #         RETURN IS MADE.  THE DESIRED MARK PLEASE PERFORM VERB AND DESIRED NOUN IS ENTERED IN A.  GOMARK1 DISPLAYS R1, R2, R
000286:                                                                                                 #         MEANS OF A V05NYY FOLLOWED BY A FLASHING V5XNYY FOR A PLEASE PERFORM.  THE ASTRONAUT WILL RESPOND WITH A MARK
000287:                                                                                                 #         OR MARK REJECT OR AN ENTER.  THE ENTER IS THE ONLY ASTRONAUT RESPONSE THAT WILL COME BACK TO THE USER.
000288:                                                                                                 #                                 CAF     V5XNYY          # X=1,2,3,4     YY=NOUN
000289:                                                                                                 #                                 TC      BANKCALL
000290:                                                                                                 #  Page 1459
000291:                                                                                                 #                                 CADR    GOMARK1
000292:                                                                                                 #                                 ...     ...             # ENTER RETURN
000293:
000294:                                                                                                 #         *** IF BLANKING DESIRED ON NON-R ROUTINES, NOTIFY DISPLAYER.
000295:
000296:                                                                                                 #         GOMARK1R IS THE SAME AS A GOMARK1 ONLY AN IMMEDIATE RETURN IS MADE TO THE USER'S CALL CADR +2.
000297:                                                                                                 #                                 CAF     V5XNYY          # X=1,2,3,4     YY=NOUN
000298:                                                                                                 #                                 TC      BANKCALL
000299:                                                                                                 #                                 CADR    GOMARK1R
000300:                                                                                                 #                                 ...     ...             # ASTRONAUT ENTER RETURN
000301:                                                                                                 #                                 ...     ...             # IMMEDIATE RETURN TO USER
000302:
000303:                                                                                                 #         GOMARK2 IS THE SAME AS GOMARK1 ONLY 3 RETURNS ARE MADE TO THE USER FROM THE ASTRONAUT.
000304:                                                                                                 #                                 CAF     V5XNYY          # X=1,2,3,4     YY=NOUN
000305:                                                                                                 #                                 TC      BANKCALL
000306:                                                                                                 #                                 CADR    GOMARK2
000307:                                                                                                 #                                 ...     ...             # TERMINATE RETURN
000308:                                                                                                 #                                 ...     ...             # PROCEED RETURN
000309:                                                                                                 #                                 ...     ...             # ENTER RETURN
000310:
000311:                                                                                                 #         GOMARK2R IS THE SAME AS GOMARK1R ONLY 3 ASTRONAUT RETURNS ARE MADE TO THE USER.
000312:                                                                                                 #                                 CAF     V5XNYY          # X=0,1,2,3,4   YY=NOUN
000313:                                                                                                 #                                 TCF     BANKCALL
000314:                                                                                                 #                                 CADR    GOMARK24
000315:                                                                                                 #                                 ...     ...             # TERMINATE RETURN
000316:                                                                                                 #                                 ...     ...             # PROCEED RETURN
000317:                                                                                                 #                                 ...     ...             # ENTER RETURN
000318:                                                                                                 #                                 ...     ...             # IMMEDIATE RETURN TO THE USER.
000319:
000320:                                                                                                 #         GOMARK3 IS USED FOR A PLEASE PERFORM ON A MARK REQUEST WITH A 3 COMP. DEC DISPLAY.  THE DESIRED MARK PLEASE
000321:                                                                                                 #         PERFORM VERB AND NOUN ARE ENTERED IN A.  GOMARK3 DISPLAYS R1, R2, R3 BY MEANS OF A V06NYY FOLLOWED BY A FLASHING
000322:                                                                                                 #         V5XNYY FOR A PLEASE PERFORM.  GOMARK3 HAS 3 ASTRONAUT RETURNS TO THE USER WITH NO IMMEDIATE RETURN.
000323:                                                                                                 #                                 CAF     V5XNYY          # X=1,2,3,4     YY=NOUN
000324:                                                                                                 #                                 TC      BANKCALL
000325:                                                                                                 #                                 CADR    GOMARK3
000326:                                                                                                 #                                 ...     ...             # TERMINATE RETURN
000327:                                                                                                 #                                 ...     ...             # PROCEED RETURN
000328:                                                                                                 #                                 ...     ...             # ENTER RETURN
000329:
000330:                                                                                                 #         GOMARK4 IS THE SAME AS GOMARK3 ONLY R2 AND R3 ARE BLANKED AND R1 IS DISPLAYED IN OCTAL.
000331:                                                                                                 #                                 CAF     V5XNYY          # X=1,2,3,4     YY=NOUN
000332:                                                                                                 #                                 TC      BANKCALL
000333:                                                                                                 #                                 CADR    GOMARK4
000334:                                                                                                 #                                 ...     ...             # TERMINATE RETURN
000335:                                                                                                 #                                 ...     ...             # PROCEED RETURN
000336:                                                                                                 #  Page 1460
000337:                                                                                                 #                         ...     ...                     # ENTER RETURN
000338:                                                                                                 #         EXDSPRET IS USED TO DISPLAY A VERB NOUN ARRIVING IN A WITH A RETURN MADE TO THE USER AFTER THE DISPLAY HAS BEEN
000339:                                                                                                 #         SENT OUT.
000340:                                                                                                 #                                 CAF     VXNYY
000341:                                                                                                 #                                 TC      BANKCALL
000342:                                                                                                 #                                 CADR    EXDSPRET
000343:                                                                                                 #                                 ...     ...             # RETURN TO USER
000344:
000345:                                                                                                 #         KLEENEX CLEANS OUT ALL MARK DISPLAYS (ACTIVE AND INACTIVE). A RETURN IS MADE TO THE USER AFTER THE MARK DISPLAYS
000346:                                                                                                 #         HAVE BEEN CLEANED OUT.
000347:                                                                                                 #                                 TC      BANKCALL
000348:                                                                                                 #                                 CADR    KLEENEX
000349:                                                                                                 #                                 ...     ...             # RETURN TO USER
000350:
000351:                                                                                                 #         MARKBRAN IS A SPECIAL PURPOSE ROUTINE USED FOR SAVING JOB VAC AREAS (SEE DESCRIPTION OF MARKBRAN BELOW).
000352:                                                                                                 #                                 TC      BANKCALL
000353:                                                                                                 #                                 CADR    MARKBRAN
000354:                                                                                                 #                                 ...     ...             # BAD RETURN IF MARK DISPLAY NOT ACTIVE
000355:                                                                                                 #                                                         # (GOOD RETURN TO IMMEDIATE RETURN LOC OF
000356:                                                                                                 #                                                         # LAST FLASHING MARK R ROUTINE)
000357:
000358:                                                                                                 #         PINBRNCH REESTABLISHES THE LAST ACTIVE FLASHING DISPLAY.  IF THERE IS NO ACTIVE FLASHING DISPLAY, THE DSKY IS
000359:                                                                                                 #         BLANKED AND CONTROL IS SENT TO ENDOFJOB.
000360:                                                                                                 #                                 TC      POSTJUMP
000361:                                                                                                 #                                 CADR    PINBRNCH
000362:
000363:                                                                                                 #         PRIODSP IS USED AS A PRIORITY DISPLAY.  IT WILL DISPLAY A GOFLASH TYPE DISPLAY WITH THREE POSSIBLE RETURNS FROM
000364:                                                                                                 #         THE ASTRONAUT (SEE NO. 7 ABOVE).
000365:
000366:                                                                                                 #         THE MAIN PURPOSE OF PRIODSP IS TO REPLACE THE PRESENT DISPLAY WITH A DISPLAY OF HIGHER PRIORITY AND TO
000367:                                                                                                 #         PROVIDE A MEANS FOR RESTORING THE OLD DISPLAY WHEN THE PRIORITY DISPLAY
000368:                                                                                                 #         IS RESPONDED TO BY THE ASTRONAUT.
000369:
000370:                                                                                                 #         THE FORMER DISPLAY IS RESTORED BY AN AUTOMATIC BRANCH TO WAKE UP THE DISPLAY THAT WAS INTERRUPTED BY THE
000371:                                                                                                 #         PRIO DISPLAY
000372:                                                                                                 #                                 CAF     VXXNYY          # VXXNYY WILL BE A FLASHING VERB NOUN
000373:                                                                                                 #                                 TC      BANKCALL
000374:                                                                                                 #                                 CADR    PRIODSP
000375:                                                                                                 #                                 ...     ...             # TERMINATE RETURN
000376:                                                                                                 #                                 ...     ...             # PROCEED RETURN
000377:                                                                                                 #  Page 1461
000378:                                                                                                 #                                 ...     ...             # ENTER OR RECYCLE RETURN
000379:
000380:                                                                                                 #         PRIODSPR IS THE SAME AS PRIODSP ONLY AN IMMEDIATE RETURN IS MADE TO THE USER'S CALL CADR +4.
000381:                                                                                                 #                                 CAF     VXXNYY          # VXXNYY WILL BE A FLASHING VERB NOUN
000382:                                                                                                 #                                 TC      BANKCALL
000383:                                                                                                 #                                 CADR    PRIODSPR
000384:                                                                                                 #                                 ...     ...             # TERMINATE ACTION
000385:                                                                                                 #                                 ...     ...             # PROCEED RETURN
000386:                                                                                                 #                                 ...     ...             # ENTER OR RECYCLE RETURN
000387:                                                                                                 #                                 ...     ...             # IMMEDIATE RETURN
000388:
000389:                                                                                                 #         PRIOLARM DOES A V05N09 PRIODSPR.
000390:
000391:                                                                                                 #         CLEANDSP CLEANS OUT ALL NORMAL DISPLAYS (ACTIVE AND INACTIVE).  A RETURN IS MADE TO THE USER AFTER NORMAL
000392:                                                                                                 #         DISPLAYS ARE CLEANED OUT.
000393:                                                                                                 #                                 TC      BANKCALL
000394:                                                                                                 #                                 CADR    CLEANDSP
000395:                                                                                                 #                                 ...     ...             # RETURN TO USER
000396:                                                                                                 #  Page 1462
000397:
000398:                                                                                                 #  GENERAL INFORMATION
000399:                                                                                                 #  -------------------
000400:
000401:                                                                                                 #  ALARM OR ABORT EXIT MODE --
000402:                                                                                                 #         PRIOBORT        TC      ABORT
000403:                                                                                                 #                         OCT     1502
000404:
000405:                                                                                                 #         PRIOBORT IS BRANCHED TO WHEN (1) A NORMAL DISPLAY IS REQUESTED AND ANOTHER NORMAL DISPLAY IS ALREADY ACTIVE
000406:                                                                                                 #         (REFLASH AND REGODSP ARE EXCEPTIONS) OR (2) A PRIORITY DISPLAY IS REQUESTED WHEN ANOTHER PRIORITY DISPLAY IS
000407:                                                                                                 #         ALREADY ACTIVE (A PRIORITY WITH LINUS BIT14 IS AN EXCEPTION).
000408:
000409:                                                                                                 #  ERASABLE INITIALIZATION REQUIRED --
000410:                                                                                                 #         ACCOMPLISHED BY FRESH START --  1.  FLAGWRD4 (USED EXCLUSIVELY BY DISPLAY INTERFACE ROUTINES)
000411:                                                                                                 #                                         2.  NVSAVE = NORMAL VERB AND NOUN REGISTER.
000412:                                                                                                 #                                         3.  EBANKTEM = NORMAL INACTIVE FLAGWORD (ALSO CONTAINS NORMALS EBANK).
000413:                                                                                                 #                                         5.  R1SAVE = MARKBRAN CONTROL WORD
000414:                                                                                                 #                                         4.  RESTREG = PRIORITY 30 AND SUPERBANK 3.
000415:
000416:                                                                                                 #  OUTPUT --
000417:                                                                                                 #         NVWORD = PRIO VERB AND NOUN
000418:                                                                                                 #         NVWORD +1 (MARKNV) = MARK VERB AND NOUN
000419:                                                                                                 #         NVWORD +2 (NVSAVE) = NORMAL VERB AND NOUN
000420:                                                                                                 #         DSPFLG (EBANKSAV) = PRIO FLAGWORD (INCLUDING EBANK)
000421:                                                                                                 #         DSPFLG +1 (MARKEBAN) = MARK FLAGWORD (INCLUDING EBANK)
000422:                                                                                                 #         DSPFLG +2 (EBANKTEM) = NORMAL FLAGWORD (INCLUDING EBANK)
000423:                                                                                                 #         CADRFLSH = PRIO USER'S CALL CADR +1 LOCATION
000424:                                                                                                 #         CADRFLSH +1 (MARKFLSH) = MARK USER'S CALL CADR +1 LOCATION
000425:                                                                                                 #         CADRFLSH +2 (TEMPFLSH) = NORMAL USER'S CALL CADR +1 LOCATION
000426:                                                                                                 #         PRIOTIME = TIME EACH PRIO REQUEST FIRST SENT OUT
000427:                                                                                                 #         OPTION1 = DESIRED OPTION FROM GOPERF4
000428:                                                                                                 #         FLAGWRD4 = BIT INFO FOR CONTROL OF ALL DISPLAY ROUTINES
000429:                                                                                                 #         DSPTEM1 = R1 INFO FOR ASTRONAUT FROM PERFORM DISPLAYS (NORMAL)
000430:
000431:                                                                                                 #  SUBROUTINES USED -- NVSUB, FLAGUP, FLAGDOWN, ENDOFJOB, BLANKSUB, ABORT, JOBWAKE, JOBSLEEP, FINDVAC, PRIOCHNG,
000432:                                                                                                 #         JAMTERM, NVSUBUSY, FLASHON, ENDIDLE, CHANG1, BANKJUMP, MAKECADR, NOVAC
000433:
000434:                                                                                                 #  DEBRIS -- (STORED INTO)
000435:                                                                                                 #         TEMPORARY TEMPORARIES -- A, Q, L, MPAC +2, MPAC +3, MPAC +4, MPAC +5, MPAC +6, RUPREG2, RUPTREG3, CYL,
000436:                                                                                                 #                 EBANK, RUPTREG4, LOC, BANKSET, MODE, MPAC, MPAC +1, FACEREG
000437:                                                                                                 #         ERASABLES (SHARED AND USED WITH OTHER PROGRAMS) -- CADRSTOR, DSPLIST, LOC, DSPTEM1, OPTION1
000438:                                                                                                 #         ERASABLES (USED ONLY BY DISPLAY ROUTINES) -- NVWORD,+1,+2, DSPFLAG,+1,+2, CADRFLSH,+1,+2, PRIOTIME, FLAGWRD4,
000439:                                                                                                 #  Page 1463
000440:                                                                                                 #                 R1SAVE, MARK2PAC
000441:
000442:                                                                                                 #  DEBRIS -- (USED BUT NOT STORED INTO) -- NOUNREG, VERBREG, LOCCTR, MONSAVE1
000443:
000444:                                                                                                 #  FLAGWORD DESCRIPTIONS --
000445:                                                                                                 #         FLAGWRD4 -- SEE DESCRIPTION UNDER LOG SECTION ERASABLE ASSIGNMENTS
000446:
000447:                                                                                                 #         DSPFLG, DSPFLG+1, DSPFLG+2
000448:                                                                                                 #         --------------------------
000449:                                                                                                 #         BITS 1  BLANK R1
000450:                                                                                                 #              2  BLANK R2
000451:                                                                                                 #              3  BLANK R3
000452:                                                                                                 #              4  FLASHING DISPLAY REQUESTED
000453:                                                                                                 #              5  PERFORM DISPLAY REQUESTED
000454:                                                                                                 #              6  -----                   EXDSPRET                GODSPRET
000455:                                                                                                 #              7  PRIO DISPLAY            -----                   -----
000456:                                                                                                 #              8  -----                   DEC MARK PERFORM        -----
000457:                                                                                                 #              9  EBANK
000458:                                                                                                 #             10  EBANK
000459:                                                                                                 #             11  EBANK
000460:                                                                                                 #             12  -----                   -----                   V99PASTE
000461:                                                                                                 #             13  2ND PART OF PERFORM
000462:                                                                                                 #             14  REFLASH OR REDO         -----                   REFLASH OR REDO
000463:                                                                                                 #             15  -----                   MARK REQUEST            -----
000464:
000465:                                                                                                 #  RESTARTING DISPLAYS --
000466:
000467:                                                                                                 #  RULES FOR THE DSKY OPERATOR --
000468:                                                                                                 #         1.  PROCEED AND TERMINATE SERVE AS RESPONSES TO REQUESTS FOR OPERATOR RESPONSE (FLASHING Y/N).  AS LONG
000469:                                                                                                 #             AS THERE IS ANY REQUEST AWAITING OPERATOR RESPONSE, ANY USE OF PROCEED OR TERMINATE WILL SERVE AS
000470:                                                                                                 #             RESPONSES TO THAT REQUEST.  CARE SHOULD BE EXERCISED IN ATTEMPTING TO KILL AN OPERATOR INITIATED MONITOR
000471:                                                                                                 #             WITH PROCEED AND TERMINATE FOR THIS REASON.
000472:                                                                                                 #         2.  THE ASTRONAUT MUST RESPOND TO A PRIORITY DISPLAY NO SOONER THAN 2 SECONDS FROM THE TIME THE
000473:                                                                                                 #             PROGRAM SENT OUT THE REQUEST FOR OPERATOR RESPONSE (THE ASTRONAUT WOULD SEE THIS DISPLAY FOR LESS TIME
000474:                                                                                                 #             DUE TO TIME IT TAKES TO GET DISPLAY SENT OUT.)  IF THE ASTRONAUT RESPONDS TOO SOON, THE PRIORITY DISPLAY
000475:                                                                                                 #             IS SENT OUT AGAIN -- AND AGAIN UNTIL AN ACCUMULATED 2 SECS FROM THE TIME THE FIRST PRIORITY DISPLAY
000476:                                                                                                 #             OUT.  THE SAME 2 SEC. DELAY WILL OCCUR AT 163.84 SECS OR IN ANY MULTIPLE OF THAT TIME DUE TO PROGRAM
000477:                                                                                                 #             CONSIDERATION.
000478:                                                                                                 #         3.  KEY RELEASE BUTTON --
000479:                                                                                                 #             A)  IF THE KEY RELEASE LIGHT IS ON, IT SIMPLY RELEASES THE KEYBOARD AND DISPLAY FOR INTERNAL USE.
000480:                                                                                                 #             B)  IF THE KEY RELEASE LIGHT IS OFF, AND IF SOME REQUEST FOR OPERATOR RESPONSE (FLASHING V/N) IS STILL
000481:                                                                                                 #                 AWAITING RESPONSE THEN IT RE-ESTABLISHES THE DISPLAYS THAT ORIGINALLY REQUESTED RESPONSE.
000482:                                                                                                 #             IF AN OPERATOR WANTS THEREFORE TO RE-ESTABLISH BUT CONDITION (A) IS ENCOUNTERED, A SECOND DEPRESSION OF
000483:                                                                                                 #             KEY RELEASE BUTTON MAY BE NECESSARY.
000484:                                                                                                 #         4.  IT IS IMPORTANT TO ANSWER ALL REQUESTS FOR OPERATOR RESPONSE.
000485:                                                                                                 #         5.  IT IS ALWAYS GOOD PRACTICE TO TERMINATE AN EXTENDED VERB BEFORE ASKING FOR ANOTHER ONE OR THE SAME ONE
000486:                                                                                                 #             OVER AGAIN.
000487:
000488:                                                                                                 #  SPECIAL CONSIDERATONS --
000489:                                                                                                 #  Page 1464
000490:                                                                                                 #         1.  MPAC +2 SAVED ONLY IN MARK DISPLAYS
000491:                                                                                                 #         2.  GODSP(R), REGODSP(R), GOMARK(R) ALWAYS TURN ON THE FLASH IF ENTERED WITH A PASTE VERB REQUEST.
000492:                                                                                                 #         3.  ALL NORMAL DISPLAYS ARE RESTARTABLE EXCEPT GODSP(R), REGODSP(R)
000493:                                                                                                 #         4.  ALL EXTENDED VERBS WITH DISPLAYS SHOULD START WITH A TC TESTXACT AND FINISH WITH A TC ENDEXT.
000494:                                                                                                 #         5.  GODSP(R) AND REGODSP(R) MUST BE IN THE SAME EBANK AND SUPERBANK AS THE LAST NORMAL DISPLAY RESTARTED
000495:                                                                                                 #             BY A .1 RESTART PHASE CHANGE.
000496:                                                                                                 #         6.  IN ORDER TO SET UP A NON DISPLAY .1 RESTART POINT, THE USER MUST MAKE CERTAIN THAT RESTREG CONTAINS THE
000497:                                                                                                 #             CORRECT PRIORITY AND SUPERBANK AND THAT EBANKTEM CONTAINS THE CO
000498:                                                                                                 #         7.  IF CLEANDSP IS RESTARTED VIA A .1 PHASE CHANGE, CAF ZERO SHOULD BE EXECUTED BEFORE THE TC BANKCALL.
000499:
000500:                                                                                                 #  Page 1465
000501:                                                                                                 #  CALLING SEQUENCE FOR BLANKING
000502:                                                                                                 #                 CAF     BITX            # X=1,2,3 BLANK R1,R2,R3 RESPECTIVELY
000503:                                                                                                 #                 TC      BLANKET
000504:                                                                                                 #                 ...     ...             # RETURN TO USER HERE
000505:                                                                                                 #  IN ORDER TO USE BLANKET CORRECTLY, THE USER MUST USE A DISPLAY ROUTINE THAT ENDS IN R FIRST FOLLOWED BY THE CALL
000506:                                                                                                 #  TO BLANKET AT THE IMMEDIATE RETURN LOC.
000507:    5526                                          BLOCK    02
000508:    4000                                          SETLOC   FFTAG4
000509:    4000                                          BANK
000510:
000511:    5526                                          COUNT    02/DSPLA
000512:
000513:    5526           54162        BLANKET           TS       MPAC       +6
000514:    5527           40160                          CS       PLAYTEM4
000515:    5530           70162                          MASK     MPAC       +6
000516:    5531           50161                          INDEX    MPAC       +5
000517:    5532           26160                          ADS      PLAYTEM4
000518:
000519:    5533           00002                          TC       Q
000520:
000521:    5534           04701        ENDMARK           TC       POSTJUMP
000522:    5535           20553                          CADR     MARKEND
000523:
000524:    5536           35021        CLEARMRK          CAF      ZERO
000525:    5537           55044                          TS       EXTVBACT
000526:
000527:    5540           00004                          INHINT
000528:    5541           45017                          CS       BIT1
000529:    5542           70100                          MASK     FLAGWRD4
000530:    5543           54100                          TS       FLAGWRD4
000531:
000532:    5544           00003                          RELINT
000533:    5545           00002                          TC       Q
000534:
000535:                                                                                                 #  *** ALL EXTENDED VERB ROUTINES THAT HAVE AT LEAST ONE FLASHING DISPLAY MUST TCF ENDMARK OR TCF ENDEXT WHEN
000536:                                                                                                 #  FINISHED.
000537:
000538: 10,2553                                          BANK     10
000539: 10,2000                                          SETLOC   DISPLAYS
000540: 10,2000                                          BANK
000541:
000542: 10,2553                                          COUNT    10/DSPLA
000543:
000544:                                                                                                 #  NTERONLY IS USED TO DIFFERENTIATE THE MARK ROUTINE WITH ONLY ONE RETURN TO THE USER FROM THE MARKING ROUTINE WITH
000545:                                                                                                 #  3 RETURNS TO THE USER.  THIS ROUTINE IS ONLY USED BY GOMARK1 AND GOMARK1R.
000546:
000547: 10,2553           05536        MARKEND           TC       CLEARMRK
000548: 10,2554           13643                          TCF      MARKOVER
000549:
000550:                                                                                                 #  Page 1466
000551: 10,2555           54155        GOMARK            TS       PLAYTEM1                              #  ENTRANCE FOR MARK GODSP
000552:
000553: 10,2556           35001        GOMARS            CAF      BIT15                                 #  BIT15 SET FOR ALL MARK REQUESTS
000554: 10,2557           12722                          TCF      GOFLASH2
000555:
000556: 10,2560           35021        KLEENEX           CAF      ZERO                                  #  CLEAN OUT EXTENDED VERBS
000557: 10,2561           54155        GOMARKF           TS       PLAYTEM1                              #  ENTRANCE FOR MARK GOFLASH
000558:
000559: 10,2562           33253                          CAF      MARKFMSK                              #  MARK, FLASH
000560: 10,2563           12722                          TCF      GOFLASH2
000561:
000562: 10,2564           54155        GOMARK2           TS       PLAYTEM1                              #  MARK GOPERFS-3 AST. RETURNS
000563: 10,2565           33742        MARKFORM          CAF      MPERFMSK                              #  MARK, PERFORM, FLASH
000564: 10,2566           12722                          TCF      GOFLASH2
000565:
000566: 10,2567           54155        GOMARK3           TS       PLAYTEM1                              #  USED FOR 3COMP DECIMAL PERFORM
000567: 10,2570           33727                          CAF      MARK3MSK
000568: 10,2571           12722                          TCF      GOFLASH2
000569:
000570: 10,2572           54155        GOMARK4           TS       PLAYTEM1
000571: 10,2573           33730                          CAF      MARK4MSK                              #  MARK,PERFORM,FLASH,BLANK
000572: 10,2574           12722                          TCF      GOFLASH2
000573:
000574: 10,2575           54155        GOMARKR           TS       PLAYTEM1                              #  ENTRANCE FOR MARK GODSPR
000575:
000576: 10,2576           35001                          CAF      BIT15
000577: 10,2577           12700                          TCF      GODSPR2
000578:
000579: 10,2600           54155        GOMARKFR          TS       PLAYTEM1                              #  ENTRANCE FOR MARK GOFLASHR
000580:
000581: 10,2601           33253                          CAF      MARKFMSK
000582: 10,2602           13061                          TCF      GODSPRS
000583:
000584: 10,2603           54155        GOMARK2R          TS       PLAYTEM1                              #  MARK GOPERFS-3 AST. RETS+ IMMEDIATE RET.
000585: 10,2604           33742                          CAF      MPERFMSK                              #  MARK, PERFORM, FLASH
000586: 10,2605           13061                          TCF      GODSPRS
000587:
000588: 10,2606           54155        GOMARK3R          TS       PLAYTEM1
000589: 10,2607           33727                          CAF      MARK3MSK
000590: 10,2610           13061                          TCF      GODSPRS
000591:
000592: 10,2611           35017        MAKEMARK          CAF      ONE
000593: 10,2612           03157                          TC       COPIES
000594:
000595: 10,2613           30100                          CA       FLAGWRD4                              #  IS NORM OR PRIO BUSY OR WAITING
000596: 10,2614           73743                          MASK     OCT34300
000597: 10,2615           10000                          CCS      A
000598: 10,2616           12654                          TCF      CHKPRIO
000599:
000600: 10,2617           30100                          CA       FLAGWRD4                              #  IS MARK SLEEPING DUE TO ASTRO BUSY?
000601:                                                                                                 #  Page 1467
000602: 10,2620           75007                          MASK     BIT9
000603:
000604: 10,2621           00006                          EXTEND
000605: 10,2622           12624                          BZF      MARKPLAY                              #  NO
000606:
000607: 10,2623           15217                          TCF      ENDOFJOB
000608:
000609: 10,2624           00004        MARKPLAY          INHINT
000610: 10,2625           45022                          CS       FIVE                                  #  RESET MARK OVER NORM, SET MARK
000611: 10,2626           70100                          MASK     FLAGWRD4
000612: 10,2627           65017                          AD       ONE
000613: 10,2630           54100                          TS       FLAGWRD4
000614: 10,2631           00003                          RELINT
000615:
000616: 10,2632           41070        GOGOMARK          CS       MARKFLAG                              #  PERFORM
000617: 10,2633           75013                          MASK     BIT5
000618: 10,2634           10000                          CCS      A
000619: 10,2635           12640                          TCF      MARKCOP
000620: 10,2636           40370                          CS       MARKNV
000621: 10,2637           54370                          TS       MARKNV
000622:
000623: 10,2640           35017        MARKCOP           CAF      ONE                                   #  MARK INDEX
000624: 10,2641           13040                          TCF      PRIOPLAY
000625:
000626: 10,2642           30165        COPYTOGO          CA       MPAC2SAV
000627: 10,2643           54156                          TS       MPAC       +2
000628:
000629: 10,2644           50164        COPYPACS          INDEX    COPINDEX
000630: 10,2645           33753                          CAF      PRIOOCT
000631: 10,2646           54162                          TS       GENMASK
000632:
000633: 10,2647           50164                          INDEX    COPINDEX
000634: 10,2650           31067                          CA       EBANKSAV                              #  Was CAF --- RSB 2004.
000635: 10,2651           54160                          TS       TEMPOR2                               #  ACTIVE EBANK AND FLAG
000636:
000637: 10,2652           54003                          TS       EBANK
000638:
000639: 10,2653           00002                          TC       Q
000640:
000641:                                                                                                 #  PINCHEK CHECKS TO SEE IF THE CURRENT MARK REQUEST IS MADE BY THE ASTRONAUT WHILE INTERUPTING A GOPLAY DISPLAY
000642:                                                                                                 #  (A NORMAL OR A PRIO).  IF THE ASTRONAUT TRIES TO MARK DURING A PRIO, THE CHECK FAIL LIGHT GOES ON AND THE MARK
000643:                                                                                                 #  REQUEST IS ENDED.  IF HE TRIES TO MARK DURING A NORM, THE MARK IS ALLOWED.  IN THIS CASE THE NORM IS PUT TO SLEEP
000644:                                                                                                 #  UNTIL ALL MARKING IS FINISHED.
000645:
000646:                                                                                                 #  IF THE MARK REQUEST COMES FROM THE PROGRAM DURING A TIME THE ASTRONAUT IS NOT INTERRUPTING A NORMAL OR A
000647:                                                                                                 #  PRIO, THE MARK REQUEST IS PUT TO SLEEP UNTIL THE PRESENT ACTIVE DISPLAY IS RESPONDED TO BY THE ASTRONAUT.
000648:
000649: 10,2654           30100        CHKPRIO           CA       FLAGWRD4                              #  MARK ATTEMPT DURING PRIO
000650: 10,2655           73476                          MASK     OCT24100
000651: 10,2656           10000                          CCS      A
000652: 10,2657           13676                          TCF      MARSLEEP
000653:
000654:                                                                                                 #  Page 1468
000655: 10,2660           40100                          CS       FLAGWRD4
000656: 10,2661           75015                          MASK     BIT3                                  #  SET MARK OVER NORM
000657: 10,2662           00004                          INHINT
000658: 10,2663           26100                          ADS      FLAGWRD4
000659:
000660: 10,2664           12756                          TCF      SETNORM
000661:
000662: 10,2665           30370        MARKPERF          CA       MARKNV
000663: 10,2666           74160                          MASK     VERBMASK
000664: 10,2667           13342                          TCF      NV50DSP
000665:
000666: 10,2670           54155        GODSP             TS       PLAYTEM1
000667:
000668: 10,2671           35021        GODSP2            CAF      ZERO
000669: 10,2672           12722                          TCF      GOFLASH2
000670:
000671: 10,2673           54155        GODSPRET          TS       PLAYTEM1                              #  ENTRANCE FOR A GODSP WITH A PASTE
000672:
000673: 10,2674           35012                          CAF      BIT6                                  #  SET BIT6 TO GO BACK TO USER AFTER NVSUB
000674: 10,2675           12722                          TCF      GOFLASH2
000675:
000676: 10,2676           54155        GODSPR            TS       PLAYTEM1
000677:
000678: 10,2677           35021        GODSPR1           CAF      ZERO
000679: 10,2700           54160        GODSPR2           TS       PLAYTEM4
000680:
000681: 10,2701           35021                          CAF      ZERO                                  #  * DON'T MOVE
000682: 10,2702           13063                          TCF      GODSPRS1
000683:
000684:                                                                                                 #  CLEANDSP IS USED FOR CLEARING OUT A NORMAL DISPLAY THAT IS PRESENTLY ACTIVE OR A NORMAL DISPLAY THAT IS
000685:                                                                                                 #  SET UP TO BE STARTED OR RESTARTED.
000686:
000687:                                                                                                 #  NORMALLY THE USER WILL NOT NEED TO USE THIS ROUTINE SINCE A NEW NORMAL DISPLAY AUTOMATICALLY CLEARS OUT AN
000688:                                                                                                 #  OLD DISPLAY.
000689:
000690:                                                                                                 #  CALLING SEQUENCE FOR CLEANDSP --
000691:
000692:                                                                                                 #                 TC      BANKCALL
000693:                                                                                                 #                 CADR    CLEANDSP
000694:
000695: 10,2703           35021        CLEANDSP          CAF      ZERO
000696: 10,2704           54155        REFLASH           TS       PLAYTEM1
000697:
000698: 10,2705           33726                          CAF      REDOMASK                              #  FLASH AND PERMIT
000699: 10,2706           12722                          TCF      GOFLASH2
000700:
000701: 10,2707           54155        REGODSP           TS       PLAYTEM1
000702:
000703: 10,2710           35002                          CAF      BIT14
000704: 10,2711           12722                          TCF      GOFLASH2
000705:
000706:                                                                                                 #  Page 1469
000707:
000708: 10,2712           54155        REGODSPR          TS       PLAYTEM1
000709: 10,2713           35002                          CAF      BIT14
000710: 10,2714           12700                          TCF      GODSPR2
000711:
000712: 10,2715           54155        CLOCPLAY          TS       PLAYTEM1
000713: 10,2716           33765                          CAF      CLOCKCON
000714: 10,2717           12722                          TCF      GOFLASH2
000715: 10,2720           54155        GOFLASH           TS       PLAYTEM1
000716:
000717: 10,2721           35014                          CAF      BIT4                                  #  LEAVE ONLY FLASH BIT SET
000718: 10,2722           54160        GOFLASH2          TS       PLAYTEM4
000719:
000720: 10,2723           03144                          TC       SAVELOCS
000721:
000722: 10,2724           00003                          RELINT
000723:
000724: 10,2725           12770                          TCF      MAKEPLAY                              #  BRANCH DIRECT WITH NO SEPARATE JOB CALL
000725:
000726: 10,2726           54155        PRIODSPR          TS       PLAYTEM1
000727:
000728: 10,2727           33745                          CAF      BITS7+4
000729: 10,2730           13061                          TCF      GODSPRS
000730:
000731: 10,2731           54155        PRIODSP           TS       PLAYTEM1
000732:
000733: 10,2732           33745        SETPRIO           CAF      BITS7+4
000734: 10,2733           12722                          TCF      GOFLASH2
000735:
000736: 10,2734           35021        MAKEPRIO          CAF      ZERO
000737: 10,2735           54164                          TS       COPINDEX
000738:
000739: 10,2736           03616                          TC       LINUSCHR
000740: 10,2737           12744                          TCF      HIPRIO                                #  LINUS RETURN
000741: 10,2740           30100                          CA       FLAGWRD4
000742: 10,2741           73764                          MASK     OCT20100                              #  IS PRIO IN ENDIDLE OR BUSY
000743: 10,2742           10000                          CCS      A
000744: 10,2743           13017                          TCF      PRIOBORT                              #  YES, ABORT
000745:
000746: 10,2744           30100        HIPRIO            CA       FLAGWRD4                              #  MARK ACTIVE
000747: 10,2745           77765                          MASK     OCT40400
000748: 10,2746           00006                          EXTEND
000749: 10,2747           12752                          BZF      ASKIFNRM                              #  NO
000750:
000751: 10,2750           35021        SETMARK           CAF      ZERO
000752: 10,2751           13216                          TCF      JOBXCHS
000753:
000754: 10,2752           30100        ASKIFNRM          CA       FLAGWRD4                              #  NORMAL ACTIVE
000755: 10,2753           73762                          MASK     OCT10200                              #  BITS 13+8
000756: 10,2754           00006                          EXTEND
000757:                                                                                                 #  Page 1470
000758: 10,2755           12760                          BZF      OKTOCOPY                              #  NO
000759:
000760: 10,2756           35017        SETNORM           CAF      ONE
000761: 10,2757           13216                          TCF      JOBXCHS
000762:
000763: 10,2760           03156        OKTOCOPY          TC       COPYNORM
000764: 10,2761           03427                          TC       WITCHONE
000765:
000766: 10,2762           05201                          TC       JOBWAKE
000767:
000768: 10,2763           03444                          TC       XCHTOEND
000769:
000770: 10,2764           30025        REDOPRIO          CA       TIME1                                 #  SAVE TIME PRIODSP SENT OUT
000771: 10,2765           55147                          TS       PRIOTIME
000772:
000773: 10,2766           35021        KEEPPRIO          CAF      ZERO                                  #  START UP PRIO DISPLAY
000774: 10,2767           13040                          TCF      PRIOPLAY
000775:
000776: 10,2770           30167        MAKEPLAY          CA       PRIORITY                              #  SAVE USER'S PRIORITY
000777: 10,2771           77674                          MASK     PRIO37
000778: 10,2772           54163                          TS       USERPRIO
000779:
000780: 10,2773           37670                          CAF      PRIO33                                #  RAISE PRIORITY FOR FAST JOBS AFTER WAKE
000781: 10,2774           05210                          TC       PRIOCHNG
000782:
000783: 10,2775           30160                          CA       PLAYTEM4                              #  IS IT MARK OR PRIO OR NORM
000784: 10,2776           73744                          MASK     BITS15+7
000785: 10,2777           10000                          CCS      A
000786: 10,3000           12734                          TCF      MAKEPRIO                              #  ITS PRIO
000787: 10,3001           13003                          TCF      IFLEGAL
000788: 10,3002           12611                          TCF      MAKEMARK                              #  ITS MARK
000789:
000790: 10,3003           35016        IFLEGAL           CAF      TWO
000791: 10,3004           54164                          TS       COPINDEX
000792:
000793: 10,3005           03616                          TC       LINUSCHR
000794:
000795: 10,3006           13021                          TCF      OKTOPLAY                              #  LINUS RETURN
000796: 10,3007           41071                          CS       EBANKTEM
000797: 10,3010           75014                          MASK     BIT4
000798: 10,3011           10000                          CCS      A
000799: 10,3012           13021                          TCF      OKTOPLAY                              #  NO
000800:
000801: 10,3013           30100                          CA       FLAGWRD4                              #  WAS NORM ASLEEP
000802: 10,3014           73735                          MASK     NBUSMASK                              #  ARE ANY NORMS ASLEEP
000803: 10,3015           00006                          EXTEND
000804: 10,3016           13021                          BZF      OKTOPLAY                              #  NO
000805:
000806: 10,3017           05721        PRIOBORT          TC       P00DOO
000807: 10,3020           01502                          OCT      1502
000808:                                                                                                 #  Page 1471
000809:
000810: 10,3021           03160        OKTOPLAY          TC       COPIES2
000811:
000812: 10,3022           30163                          CA       USERPRIO
000813: 10,3023           00006                          EXTEND
000814: 10,3024           04007                          ROR      SUPERBNK
000815: 10,3025           54366                          TS       RESTREG
000816:
000817: 10,3026           30100                          CA       FLAGWRD4                              #  PRIO OR MARK GOING
000818: 10,3027           73736                          MASK     PMMASK
000819: 10,3030           10000                          CCS      A
000820: 10,3031           13176                          TCF      GOSLEEPS                              #  MARK GOING
000821:
000822: 10,3032           13034                          TCF      +2
000823: 10,3033           13176                          TCF      GOSLEEPS
000824:
000825:                                                                                                 #  COULD PUT NORM BUSY CHECK HERE TO SAVE TIME
000826:
000827: 10,3034           03427                          TC       WITCHONE                              #  IS IT NVSUB BUSY, ENDIDLE OR NOONE
000828: 10,3035           05201                          TC       JOBWAKE
000829:
000830: 10,3036           03444                          TC       XCHTOEND
000831:
000832: 10,3037           35016        PLAYJUM1          CAF      TWO
000833: 10,3040           54164        PRIOPLAY          TS       COPINDEX
000834:
000835: 10,3041           13312                          TCF      GOPLAY
000836:
000837: 10,3042           54155        EXDSPRET          TS       PLAYTEM1
000838:
000839: 10,3043           37703                          CAF      BIT15+6
000840: 10,3044           12722                          TCF      GOFLASH2
000841:
000842: 10,3045           55045        GOPERF1           TS       NORMTEM1                              #  STORE DESIRED CHECKLIST VALUE
000843: 10,3046           33720                          CAF      V01N25                                #  USED TO DISPLAY CHECKLIST VALUE IN R1
000844:
000845: 10,3047           54155        GOPERFS           TS       PLAYTEM1
000846:
000847: 10,3050           33717                          CAF      PERFMASK                              #  LEAVE ONLY FLASH, PERFORM, BLANKING
000848: 10,3051           12722                          TCF      GOFLASH2
000849:
000850: 10,3052           54155        GOPERF2           TS       PLAYTEM1                              #  DESIRED VERB-NOUN TO DISPLAY R1,R2,R3
000851:
000852: 10,3053           33723                          CAF      PERF2MSK
000853: 10,3054           12722                          TCF      GOFLASH2
000854:
000855: 10,3055           03137        GOPERF4           TC       PURRS4
000856:
000857: 10,3056           12722                          TCF      GOFLASH2
000858:
000859: 10,3057           54155        GOFLASHR          TS       PLAYTEM1
000860:                                                                                                 #  Page 1472
000861: 10,3060           35014                          CAF      BIT4                                  #  LEAVE ONLY FLASH BIT SET
000862: 10,3061           54160        GODSPRS           TS       PLAYTEM4
000863:
000864: 10,3062           36214                          CAF      THREE
000865:
000866: 10,3063           00004        GODSPRS1          INHINT                                         #  IMMEDIATE RETURN IS CALL CADR +4
000867: 10,3064           54072                          TS       RUPTREG3
000868:
000869: 10,3065           30167                          CA       PRIORITY                              #  MAKE DISPLAY ONE HIGHER THAN USER
000870: 10,3066           77674                          MASK     PRIO37
000871: 10,3067           54063                          TS       NEWPRIO
000872:
000873: 10,3070           30160                          CA       PLAYTEM4                              #  IS THIS A FLASHING R DISPLAY
000874: 10,3071           75014                          MASK     BIT4
000875: 10,3072           10000                          CCS      A
000876: 10,3073           13101                          TCF      VACDSP                                #  YES, MAKE DSPLAY JOB A VAC
000877: 10,3074           30063                          CA       NEWPRIO                               #  NO, MAKE DSPLAY JOB A NOVAC
000878: 10,3075           05134                          TC       NOVAC
000879: 10,3076  E7,1777                                 EBANK=   WHOCARES
000880: 10,3076           02770 20067                    2CADR    MAKEPLAY
000881:
000882: 10,3100           13107                          TCF      BOTHJOBS
000883:
000884: 10,3101           30006        VACDSP            CA       BBANK
000885: 10,3102           00006                          EXTEND
000886: 10,3103           04007                          ROR      SUPERBNK
000887: 10,3104           54001                          TS       L
000888: 10,3105           33761                          CAF      MAKEGEN
000889: 10,3106           05160                          TC       SPVAC
000890:
000891: 10,3107           03144        BOTHJOBS          TC       SAVELOCS                              #  COPY TEMPS INTO PERMANENT REGISTERS
000892:
000893: 10,3110           00006                          EXTEND                                         #  SAVE NVWORD AND USER'S MPAC +2
000894: 10,3111           30156                          DCA      MPAC       +1
000895: 10,3112           50064                          INDEX    LOCCTR
000896: 10,3113           52156                          DXCH     MPAC       +1
000897:
000898: 10,3114           00006                          EXTEND                                         #  SAVE USER'S CADR, FLAGS AND EBANK
000899: 10,3115           30160                          DCA      MPAC       +3
000900: 10,3116           50064                          INDEX    LOCCTR
000901: 10,3117           52160                          DXCH     MPAC       +3
000902:
000903: 10,3120           30064                          CA       LOCCTR
000904: 10,3121           54161                          TS       MPAC       +5
000905: 10,3122           03151                          TC       SAVELOCR
000906: 10,3123           00003                          RELINT
000907: 10,3124           14704                          TCF      BANKJUMP                              #  CALL CADR +4
000908:
000909:                                                                                                 #  Page 1473
000910: 10,3125           55045        GOPERF1R          TS       NORMTEM1                              #  DESIRED CHECKLIST VALUE
000911:
000912: 10,3126           33720                          CAF      V01N25                                #  DISPLAYS CHECKLIST VALUE IN R1
000913:
000914: 10,3127           54155        GOPERFRS          TS       PLAYTEM1
000915:
000916: 10,3130           33717                          CAF      PERFMASK                              #  LEAVE ONLY FLASH, PERFORM, BLANKING
000917: 10,3131           13061                          TCF      GODSPRS
000918:
000919: 10,3132           54155        GOPERF2R          TS       PLAYTEM1                              #  DESIRED VERB-NOUN TO DISPLAY R1,R2,R3
000920:
000921: 10,3133           33723                          CAF      PERF2MSK
000922: 10,3134           13061                          TCF      GODSPRS
000923:
000924: 10,3135           03137        GOPERF4R          TC       PURRS4
000925:
000926: 10,3136           13061                          TCF      GODSPRS
000927:
000928: 10,3137           55131        PURRS4            TS       OPTION1                               #  DESIRED OPTION CODE
000929:
000930: 10,3140           33724                          CAF      V04N06
000931: 10,3141           54155                          TS       PLAYTEM1
000932:
000933: 10,3142           33725                          CAF      PERF4MSK                              #  FLASH, PERFORM AND EBANK R3
000934: 10,3143           00002                          TC       Q
000935:
000936: 10,3144           00004        SAVELOCS          INHINT
000937:
000938: 10,3145           43734                          CS       OCT3400                               #  EBANK BITS
000939: 10,3146           70160                          MASK     PLAYTEM4
000940: 10,3147           60003                          AD       EBANK
000941: 10,3150           54160                          TS       PLAYTEM4
000942:
000943: 10,3151           22002        SAVELOCR          LXCH     Q
000944:
000945: 10,3152           04711                          TC       MAKECADR
000946: 10,3153           54157                          TS       PLAYTEM3
000947:
000948: 10,3154           60072                          AD       RUPTREG3                              #  NOT USED FOR NON R ROUTINES
000949: 10,3155           00001                          TC       L
000950:
000951: 10,3156           35021        COPYNORM          CAF      ZERO
000952: 10,3157           54164        COPIES            TS       COPINDEX
000953: 10,3160           00004        COPIES2           INHINT
000954: 10,3161           30160                          CA       PLAYTEM4                              #  FLAGWORD
000955:
000956: 10,3162           50164                          INDEX    COPINDEX
000957: 10,3163           55067                          TS       EBANKSAV                              #  EQUIV TO DSPFLG
000958: 10,3164           73752                          MASK     CADRMASK                              #  FLASH AND GODSPRET
000959: 10,3165           00006                          EXTEND
000960:                                                                                                 #  Page 1474
000961: 10,3166           13172                          BZF      SKIPADD
000962:
000963: 10,3167           30157                          CA       PLAYTEM3
000964: 10,3170           50164                          INDEX    COPINDEX
000965: 10,3171           54372                          TS       CADRFLSH
000966:
000967: 10,3172           30155        SKIPADD           CA       PLAYTEM1                              #  VERB NOUN
000968: 10,3173           50164                          INDEX    COPINDEX
000969: 10,3174           54367                          TS       NVWORD
000970:
000971: 10,3175           13453                          TCF      RELINTQ
000972:
000973: 10,3176           50164        GOSLEEPS          INDEX    COPINDEX
000974: 10,3177           33753                          CA       PRIOOCT
000975: 10,3200           73202                          MASK     WAITMASK
000976: 10,3201           07722                          TC       UPENT2
000977: 10,3202           03004        WAITMASK          OCT      3004
000978: 10,3203           45017                          CS       ONE
000979: 10,3204           60164                          AD       COPINDEX
000980: 10,3205           54154                          TS       FACEREG
000981:
000982: 10,3206           50154        XCHSLEEP          INDEX    FACEREG
000983: 10,3207           33732                          CAF      WAKECADR
000984: 10,3210           00004                          INHINT
000985: 10,3211           05201                          TC       JOBWAKE                               #  FIND CADR IN JOB AREA
000986:
000987: 10,3212           03444                          TC       XCHTOEND                              #  CAUSES AWAKENED JOB TO GO TO ENDOFJOB
000988:
000989: 10,3213           50154                          INDEX    FACEREG                               #  REPLACE SAME CADR BUT NEW JOB AREA
000990: 10,3214           33732                          CAF      WAKECADR
000991: 10,3215           15175                          TCF      JOBSLEEP
000992:
000993: 10,3216           54154        JOBXCHS           TS       FACEREG                               #  CONTROLS TYPE OF DISPLAY PUT TO SLEEP
000994: 10,3217           03427                          TC       WITCHONE
000995: 10,3220           05201                          TC       JOBWAKE
000996: 10,3221           30154                          CA       FACEREG
000997: 10,3222           50064                          INDEX    LOCCTR
000998: 10,3223           54154                          TS       FACEREG
000999:
001000: 10,3224           33237                          CAF      XCHQADD
001001: 10,3225           03445                          TC       XCHNYLOC
001002:
001003: 10,3226           50154                          INDEX    FACEREG
001004: 10,3227           33754                          CA       MARKOCT
001005: 10,3230           73756                          MASK     IDLESLEP
001006:
001007: 10,3231           07740                          TC       DOWNENT2
001008: 10,3232           74004        IDLEMASK          OCT      74004                                 #  * DON'T MOVE
001009: 10,3233           50154                          INDEX    FACEREG                               #  BIT SHOWS PRIO INTERRUPTED NORM OR MARK
001010: 10,3234           35013                          CA       BIT5                                  #  BIT5 FOR MARK, BIT4 FOR NORMAL
001011:                                                                                                 #  Page 1475
001012: 10,3235           65015                          AD       FOUR
001013: 10,3236           07722                          TC       UPENT2                                #  FLAG ROUTINE DOES RELINT
001014: 10,3237           03206        XCHQADD           GENADR   XCHSLEEP                              #  * DON'T MOVE
001015: 10,3240           30100                          CA       FLAGWRD4
001016: 10,3241           75015                          MASK     BIT3                                  #  MARK OVER NORM?
001017: 10,3242           10000                          CCS      A
001018: 10,3243           02624        GENMARK           TC       MARKPLAY                              #  USED AS GENADR FOR JOBWAKE
001019: 10,3244           12760                          TCF      OKTOCOPY
001020:
001021: 10,3245           35021        MARKWAKE          CAF      ZERO
001022: 10,3246           54160        WAKEPLAY          TS       TEMPOR2
001023:
001024: 10,3247           50160                          INDEX    TEMPOR2
001025: 10,3250           33746                          CA       BITS5+11
001026: 10,3251           65015                          AD       FOUR
001027: 10,3252           07740                          TC       DOWNENT2
001028: 10,3253           40010        MARKFMSK          OCT      40010                                 #  *** DON'T MOVE
001029:
001030: 10,3254           50160                          INDEX    TEMPOR2
001031: 10,3255           33732                          CAF      WAKECADR
001032: 10,3256           00004                          INHINT
001033: 10,3257           05201                          TC       JOBWAKE
001034:
001035: 10,3260           13557                          TCF      ENDRET
001036:
001037:                                                                                                 #  ALL .1 RESTARTS BRANCH DIRECTLY TO INITDSP.  NORMAL DISPLAYS ARE THE ONLY DISPLAYS ALLOWED TO USE .1 RESTARTS
001038:                                                                                                 #  INITDSP FIRST RESTORES THE EBANK AND THE SUPERBANK TO THE MOST RECENT NORMAL EBANK AND SUPERBANK.
001039:
001040:                                                                                                 #  IF THE MOST RECENT NORMAL DISPLAY REQUEST WAS NOT FINISHED, CONTROL IS SENT BACK TO THE LAST NORMAL USER.
001041:                                                                                                 #  OTHERWISE THE NORMAL DISPLAY SET UP IN THE NORMAL DISPLAY REGS IS STARTED UP IMMEDIATELY.
001042:
001043: 10,3261           31071        INITDSP           CA       EBANKTEM                              #  RESTORE MOST RECENT NORMAL EBANK
001044: 10,3262           54003                          TS       EBANK
001045:
001046: 10,3263           30366                          CA       RESTREG                               #  SUPERBANK AND JOB PRIORITY
001047: 10,3264           04773                          TC       SUPERSW                               #  RESTORE SUPERBANK
001048:
001049: 10,3265           77674                          MASK     PRIO37
001050: 10,3266           05210                          TC       PRIOCHNG
001051:
001052: 10,3267           46214                          CS       THREE
001053: 10,3270           60374                          AD       TEMPFLSH
001054: 10,3271           14704                          TCF      BANKJUMP
001055:
001056: 10,3272           00003        PINBRNCH          RELINT                                         #  FOR GOPIN USERS
001057: 10,3273           31072                          CA       MARK2PAC                              #  NEEDED TO SAVE MPAC +2 FOR MARK USERS
001058: 10,3274           54156                          TS       MPAC       +2                         #  ONLY
001059:
001060: 10,3275           30100                          CA       FLAGWRD4                              #  PINBRANCH CONDITION
001061: 10,3276           77707                          MASK     PINMASK
001062: 10,3277           10000                          CCS      A
001063:                                                                                                 #  Page 1476
001064: 10,3300           13303                          TCF      +3
001065: 10,3301           13713                          TCF      ERASER                                #  ** NOTHING IN ENDIDLE
001066: 10,3302           12624                          TCF      MARKPLAY
001067:
001068: 10,3303           05546        NORMBNCH          TC       UPFLAG                                #  SET PINBRANCH BIT
001069: 10,3304           00105                          ADRES    PINBRFLG
001070:
001071: 10,3305           35002                          CAF      BIT14                                 #  PRIO INTERRUPTED
001072: 10,3306           70100                          MASK     FLAGWRD4
001073: 10,3307           10000                          CCS      A
001074: 10,3310           12766                          TCF      KEEPPRIO
001075:
001076: 10,3311           13037                          TCF      PLAYJUM1
001077:
001078: 10,3312           02644        NVDSP             TC       COPYPACS
001079:
001080: 10,3313           30160                          CA       TEMPOR2                               #  SET UP BLANK BITS FOR NVMONOPT IN CASE
001081: 10,3314           75023                          MASK     SEVEN                                 #  USER REQUESTS BLANKING MONITOR
001082: 10,3315           54001                          TS       L
001083:
001084: 10,3316           45003                          CS       BIT13
001085: 10,3317           50164                          INDEX    COPINDEX
001086: 10,3320           71067                          MASK     DSPFLG
001087: 10,3321           50164                          INDEX    COPINDEX
001088: 10,3322           55067                          TS       DSPFLG
001089:
001090: 10,3323           75010                          MASK     BIT8                                  #  BIT8 SET IF DEC MARK PERFORM DISPLAY
001091: 10,3324           54141                          TS       TEM1
001092:
001093: 10,3325           30156                          CA       MPAC       +2
001094: 10,3326           54165                          TS       MPAC2SAV
001095:
001096: 10,3327           55072                          TS       MARK2PAC                              #  * FOR DISK ONLY *
001097: 10,3330           50164                          INDEX    COPINDEX
001098: 10,3331           10367                          CCS      NVWORD
001099: 10,3332           13341                          TCF      NVDSP1
001100: 10,3333           13455                          TCF      CLEANEND
001101: 10,3334           40370                          CS       MARKNV
001102: 10,3335           54370                          TS       MARKNV                                #  IN CASE MARKPLAY AWAKENED AFTER SLEEPING
001103: 10,3336           76043                          MASK     LOW7
001104: 10,3337           63737                          AD       V05N00M1
001105: 10,3340           60141                          AD       TEM1
001106: 10,3341           65017        NVDSP1            AD       ONE
001107: 10,3342           04171        NV50DSP           TC       NVMONOPT
001108: 10,3343           13467                          TCF      REST                                  #  IF BUSY
001109:
001110: 10,3344           04447                          TC       FLASHOFF                              #  IN CASE OF EXTENDED VERB NON-FLASH
001111:
001112: 10,3345           02642                          TC       COPYTOGO                              #  MPACS DESTROYED BY NVSUB
001113: 10,3346           05560                          TC       DOWNFLAG                              #  UNSET SLEEPING BITS
001114: 10,3347           00102                          ADRES    MRKNVFLG
001115:                                                                                                 #  Page 1477
001116: 10,3350           05560                          TC       DOWNFLAG
001117: 10,3351           00103                          ADRES    NRMNVFLG
001118: 10,3352           05560                          TC       DOWNFLAG
001119: 10,3353           00104                          ADRES    PRONVFLG
001120: 10,3354           30160        BLANKCHK          CA       TEMPOR2                               #  BLANK BITS 1,2,3 IF SET
001121: 10,3355           04271                          TC       BLANKSUB
001122: 10,3356           13312                          TCF      NVDSP
001123: 10,3357           35013        PERFCHEK          CAF      BIT5                                  #  BIT 5 FOR PERFORM
001124: 10,3360           70160                          MASK     TEMPOR2
001125: 10,3361           10000                          CCS      A                                     #  IS THIS A GOPERF DISPLAY
001126: 10,3362           13405                          TCF      1STOR2ND                              #  YES
001127:
001128: 10,3363           35014        GOANIDLE          CAF      BIT4
001129: 10,3364           70160                          MASK     TEMPOR2
001130: 10,3365           10000                          CCS      A
001131: 10,3366           13502                          TCF      FLASHSUB                              #  IT IS
001132:
001133: 10,3367           40160                          CS       TEMPOR2                               #  IS THIS A GODSPRET
001134: 10,3370           75012                          MASK     BIT6
001135: 10,3371           10000                          CCS      A
001136: 10,3372           13377                          TCF      ISITN00
001137:
001138: 10,3373           50164                          INDEX    COPINDEX
001139: 10,3374           30372                          CA       CADRFLSH
001140: 10,3375           54157                          TS       MPAC       +3
001141: 10,3376           13575                          TCF      ENDIT
001142:
001143: 10,3377           50164        ISITN00           INDEX    COPINDEX                              #  IS THIS A PASTE
001144: 10,3400           30367                          CA       NVWORD
001145: 10,3401           76043                          MASK     LOW7                                  #  CHECK MADE FOR PINBRNCH AND PRIO ON MARK
001146: 10,3402           00006                          EXTEND
001147: 10,3403           13502                          BZF      FLASHSUB                              #  YES, ASSUME PASTE ALWAYS ON FLASH
001148:
001149: 10,3404           15217                          TCF      ENDOFJOB                              #  NOT FLASH, NOT GOPERF, THEREFORE EXIT
001150:
001151: 10,3405           30160        1STOR2ND          CA       TEMPOR2
001152: 10,3406           75003                          MASK     BIT13
001153: 10,3407           10000                          CCS      A
001154: 10,3410           13363                          TCF      GOANIDLE                              #  SECOND
001155:
001156: 10,3411           35003                          CA       BIT13
001157: 10,3412           50164                          INDEX    COPINDEX
001158: 10,3413           27067                          ADS      DSPFLG
001159:
001160: 10,3414           22007                          ZL
001161: 10,3415           00006                          EXTEND                                         #  IS IT MARK
001162: 10,3416           62665                          BZMF     MARKPERF                              #  YES
001163: 10,3417           75004                          MASK     BIT12
001164: 10,3420           00006                          EXTEND
001165:                                                                                                 #  Page 1478
001166: 10,3421           13425                          BZF      V50PASTE
001167: 10,3422           41145                          CS       NVWORD1                               #  NVOWRD1= -0 IS V97.  NVWORD1= -400 IS V99
001168: 10,3423           63763                          AD       V97N00
001169: 10,3424           13342                          TCF      NV50DSP
001170: 10,3425           33722        V50PASTE          CAF      V50N00
001171: 10,3426           13342                          TCF      NV50DSP                               #  DISPLAY SECOND PART OF GOPERF
001172:
001173: 10,3427           45013        WITCHONE          CS       BIT5                                  #  TURN OFF KEY RELEASE LIGHT
001174: 10,3430           00006                          EXTEND
001175: 10,3431           03011                          WAND     DSALMOUT
001176:
001177: 10,3432           30100                          CA       FLAGWRD4
001178: 10,3433           73740                          MASK     NVBUSMSK                              #  IS IT NVSUB ALEEP
001179: 10,3434           10000                          CCS      A
001180: 10,3435           35017                          CAF      ONE
001181: 10,3436           54001                          TS       L
001182: 10,3437           35021                          CAF      ZERO
001183: 10,3440           50001                          INDEX    L
001184: 10,3441           57042                          XCH      CADRSTOR
001185:
001186: 10,3442           00004                          INHINT
001187: 10,3443           00002                          TC       Q
001188:
001189: 10,3444           34233        XCHTOEND          CAF      ENDINST                               #  TC ENDOFJOB REPLACES GENADR IN LOC FOR
001190: 10,3445           56064        XCHNYLOC          XCH      LOCCTR                                #  WAS THIS ADDRESS SLEEPING
001191: 10,3446           00006                          EXTEND
001192: 10,3447           63453                          BZMF     RELINTQ                               #  NO
001193: 10,3450           56064                          XCH      LOCCTR                                #  YES
001194: 10,3451           50064                          INDEX    LOCCTR
001195: 10,3452           54164                          TS       LOC
001196:
001197: 10,3453           00003        RELINTQ           RELINT
001198: 10,3454           00002                          TC       Q                                     #  BACK TO USER
001199:
001200: 10,3455           37667        CLEANEND          CAF      PRIO32                                #  ONE LOWER THAN DISPLAYS SLEEPING
001201: 10,3456           05147                          TC       FINDVAC
001202: 10,3457     0371                                 EBANK=   NVSAVE
001203: 10,3457           04245 04060                    2CADR    JAMTERM
001204:
001205: 10,3461           13503                          TCF      FLASHSUB   +1
001206:
001207: 10,3462           30100        ISITPRIO          CA       FLAGWRD4
001208: 10,3463           73510                          MASK     ITISMASK                              #  IS PINBRFLG, MARKIDFLG SET
001209: 10,3464           00006                          EXTEND
001210: 10,3465           13017                          BZF      PRIOBORT
001211: 10,3466           15217                          TCF      ENDOFJOB
001212: 10,3467           11042        REST              CCS      CADRSTOR                              #  IS SOMEONE IN ENDIDLE
001213: 10,3470           15217                          TCF      ENDOFJOB                              #  YES
001214:                                                                                                 #  Page 1479
001215: 10,3471           13473                          TCF      RESTSLEP
001216:
001217: 10,3472           15217                          TCF      ENDOFJOB
001218:
001219: 10,3473           30162        RESTSLEP          CA       GENMASK                               #  SET NVSLEEP BITS
001220: 10,3474           73741                          MASK     ASTROMSK
001221: 10,3475           07722                          TC       UPENT2
001222: 10,3476           24100        OCT24100          OCT      24100                                 #  *** DON'T MOVE
001223:
001224: 10,3477           50164                          INDEX    COPINDEX
001225: 10,3500           33731                          CAF      NVCADR
001226: 10,3501           04456                          TC       NVSUBUSY                              #  BUSY OR ABORT IF ILLEGAL
001227:
001228: 10,3502           04443        FLASHSUB          TC       FLASHON
001229:
001230: 10,3503           30164                          CA       COPINDEX                              #  COPINDEX DESTROYED BY ENDIDLE
001231: 10,3504           54157                          TS       COPMPAC
001232:
001233: 10,3505           30162                          CA       GENMASK
001234: 10,3506           73232                          MASK     IDLEMASK
001235: 10,3507           07722                          TC       UPENT2
001236: 10,3510           40040        ITISMASK          OCT      40040                                 #  *** ENDIDLE ALLOW *** DON'T MOVE
001237:
001238: 10,3511           31073                          CA       R1SAVE                                #  IS THIS A REPEAT AND RETURN DISPLAY
001239: 10,3512           50164                          INDEX    COPINDEX
001240: 10,3513           75015                          MASK     BIT3
001241: 10,3514           10000                          CCS      A
001242: 10,3515           13602                          TCF      UNSETR1                               #  YES
001243:
001244: 10,3516           11042                          CCS      CADRSTOR                              #  SEE IF SOMEONE ALREADY IN ENDIDLE
001245: 10,3517           13462                          TCF      ISITPRIO
001246: 10,3520           13522                          TCF      +2
001247: 10,3521           13462                          TCF      ISITPRIO
001248:
001249: 10,3522           04223                          TC       ENDIDLE
001250: 10,3523           13614        IDLERET1          TCF      TERMATE
001251:
001252: 10,3524           13633                          TCF      PROCEED                               #  ENDIDLE RETURNS HERE ON PROCEED
001253:
001254: 10,3525           43750                          CS       LOWLOAD
001255: 10,3526           60154                          AD       MPAC                                  #  VERBREG
001256: 10,3527           00006                          EXTEND
001257: 10,3530           26000                          DIM      A
001258: 10,3531           00006                          EXTEND
001259: 10,3532           13703                          BZF      LOADITIS                              #  V21 OR V22 OR V23 ON DSKY
001260:
001261: 10,3533           35016        OKTOENT           CAF      TWO
001262: 10,3534           54161        ENDOUT            TS       OUTHERE
001263: 10,3535           30100                          CA       FLAGWRD4                              #  CHECK NATURE OF ENDIDLE RETURN
001264: 10,3536           74105                          MASK     OCT60000
001265:                                                                                                 #  Page 1480
001266: 10,3537           10000                          CCS      A
001267: 10,3540           13543                          TCF      TIMECHEK                              #  PRIO ENDIDLE RETURN
001268: 10,3541           13651                          TCF      NORMRET                               #  NORMAL ENDIDLE RETURN
001269: 10,3542           13635                          TCF      MARKRET                               #  MARK ENDIDLE RETURN
001270:
001271: 10,3543           40025        TIMECHEK          CS       TIME1
001272: 10,3544           61147                          AD       PRIOTIME
001273: 10,3545           10000                          CCS      A
001274: 10,3546           40000                          COM
001275: 10,3547           67700                          AD       OCT37776
001276: 10,3550           65017                          AD       ONE
001277: 10,3551           63774                          AD       -2SEC
001278: 10,3552           00006                          EXTEND
001279: 10,3553           62766                          BZMF     KEEPPRIO
001280:
001281: 10,3554           13651                          TCF      NORMRET
001282:
001283: 10,3555           35017        NORMWAKE          CAF      ONE
001284: 10,3556           13246                          TCF      WAKEPLAY
001285:
001286: 10,3557           10161        ENDRET            CCS      OUTHERE
001287: 10,3560           65017                          AD       ONE
001288: 10,3561           13563                          TCF      +2                                    #  NORMAL ENDIDLE EXIT
001289: 10,3562           15217                          TCF      ENDOFJOB
001290: 10,3563           50157                          INDEX    COPMPAC
001291: 10,3564           60372                          AD       CADRFLSH
001292: 10,3565           54157                          TS       MPAC       +3
001293:
001294: 10,3566           30162                          CA       GENMASK                               #  REMOVE ENDIDLE AND PINBRANCH BITS
001295: 10,3567           73571                          MASK     PINIDMSK
001296: 10,3570           07740                          TC       DOWNENT2
001297: 10,3571           74044        PINIDMSK          OCT      74044                                 #  *** DON'T MOVE
001298:
001299: 10,3572           46214                          CS       THREE                                 #  BLANK EVERYTHING EXCEPT MM
001300: 10,3573           04170                          TC       NVSUB
001301: 10,3574           13575                          TCF      +1
001302:
001303: 10,3575           30163        ENDIT             CA       USERPRIO                              #  RETURN TO USER'S PRIORITY
001304: 10,3576           77674                          MASK     PRIO37
001305: 10,3577           05210                          TC       PRIOCHNG
001306: 10,3600           30157                          CA       MPAC       +3
001307: 10,3601           14704                          TCF      BANKJUMP
001308:
001309: 10,3602           50164        UNSETR1           INDEX    COPINDEX                              #  RESET REPEAT AND RETURN REQUEST
001310: 10,3603           45015                          CS       BIT3
001311: 10,3604           71073                          MASK     R1SAVE
001312: 10,3605           55073                          TS       R1SAVE
001313: 10,3606           35021                          CAF      ZERO                                  #  *** 205 ONLY MARKBRAN USERS IN
001314: 10,3607           04773                          TC       SUPERSW                               #  SUPERBANK 0
001315:                                                                                                 #  Page 1481
001316:
001317: 10,3610           36214                 -1       CAF      THREE                                 #  RETURN TO USER'S IMMEDIATE RETURN LOC
001318: 10,3611           50164        IMMEDRET          INDEX    COPINDEX
001319: 10,3612           60372                          AD       CADRFLSH
001320: 10,3613           14704                          TCF      BANKJUMP
001321:
001322: 10,3614           35021        TERMATE           CAF      ZERO                                  #  ASTRONAUT TERMINATE (V34) RETURNS TO
001323: 10,3615           13534                          TCF      ENDOUT
001324:
001325: 10,3616           40160        LINUSCHR          CS       PLAYTEM4                              #  IS THIS A LINUS
001326: 10,3617           75002                          MASK     BIT14
001327: 10,3620           10000                          CCS      A
001328: 10,3621           16706                          TCF      Q+1                                   #  NO
001329: 10,3622           40157                          CS       PLAYTEM3                              #  YES, IS IT ALREADY IN ENDIDLE
001330: 10,3623           50164                          INDEX    COPINDEX
001331: 10,3624           60372                          AD       CADRFLSH
001332: 10,3625           00006                          EXTEND
001333: 10,3626           13630                          BZF      +2                                    #  YES
001334:
001335: 10,3627           00002                          TC       Q                                     #  NO
001336: 10,3630           11012                          CCS      DSPLOCK                               #  IS THE ASTRONAUT BUSY
001337: 10,3631           05217                          TC       ENDOFJOB                              #  END THE NEW DISPLAY, IT'S ALREADY ACTIVE
001338: 10,3632           00002                          TC       Q
001339:
001340:                                                                                                 #  MORE LOGIC COULD BE INCORPORATED HERE TO MAKE SURE A RECYCLE IS A RECYCLE AND CONVERSELY THAT A LOAD IS A LOAD
001341:
001342: 10,3633           35017        PROCEED           CAF      ONE                                   #  ASTRONAUT PROCEED (V33) RETURNS
001343: 10,3634           13534                          TCF      ENDOUT
001344:
001345:                                                                                                 #  LASTPLAY CHECKS TO SEE IF (1) THE LAST NORMAL DISPLAY WAS EITHER INTERRUPTED BY A PRIO OR A MARK (MARK
001346:                                                                                                 #  COULD ONLY HAPPEN DURING PINBRANCH) OR IF (2) THE LAST NORMAL DISPLAY WAS REQUESTED WHILE A HIGHER PRIORITY
001347:                                                                                                 #  DISPLAY WAS GOING, RESULTING IN THE NORMAL BEING PUT TO SLEEP.
001348:
001349:                                                                                                 #  IF EITHER OF THE ABOVE 2 CONDITIONS EXISTS, THE NORMAL DISPLAY IS AWAKENED TO GO TO PLAYJUM1 WHICH STARTS
001350:                                                                                                 #  UP THE MOST RECENT VALID NORMAL DISPLAY.  IF THESE 2 CONDITIONS DO NOT EXIST, CONTROL GOES TO PLAYJUM1 WHICH IS
001351:                                                                                                 #  STARTED IMMEDIATELY WITH THE ASSUMPTION THAT THE MOST RECENT NORMAL DISPLAY IS ALREADY IN ENDIDLE (DURING A
001352:                                                                                                 #  PINBRNCH) OR THAT A RESTART HAS OCCURRED AND THE DISPLAY CAN BE STARTED AS A .1 RESTART.
001353:
001354: 10,3635           46211        MARKRET           CS       SIX
001355: 10,3636           70100                          MASK     FLAGWRD4
001356: 10,3637           00004                          INHINT                                         #  *** MAY MOVE DISPLAY FLAGWORD OUT OF
001357: 10,3640           54100                          TS       FLAGWRD4
001358:
001359: 10,3641           00003                          RELINT                                         #  INHINT REALM
001360: 10,3642           13557                          TCF      ENDRET
001361:
001362: 10,3643           37716        MARKOVER          CAF      MINUS1                                #  RUPTREG2 IS - MEANS ENDOFJOB TO ENDRET
001363: 10,3644           54161                          TS       OUTHERE
001364: 10,3645           30100                          CA       FLAGWRD4                              #  IS ENDIDFLG SET
001365: 10,3646           74371                          MASK     PRIO30                                #  IS NORMAL OR PRIO IN ENDIDLE
001366: 10,3647           10000                          CCS      A
001367:                                                                                                 #  Page 1482
001368: 10,3650           13303                          TCF      NORMBNCH
001369:
001370: 10,3651           30100        NORMRET           CA       FLAGWRD4                              #  IS MARK SLEEPING
001371: 10,3652           73746                          MASK     BITS5+11                              #  OR WAITING
001372: 10,3653           10000                          CCS      A
001373: 10,3654           13245                          TCF      MARKWAKE
001374:
001375: 10,3655           30100                          CA       FLAGWRD4                              #  NO
001376: 10,3656           73747                          MASK     BITS4+10                              #  IS NORMAL INTERRUPTED OR WAITING
001377: 10,3657           10000                          CCS      A
001378: 10,3660           13555                          TCF      NORMWAKE                              #  YES
001379:
001380: 10,3661           31071                          CA       EBANKTEM                              #  NO, WAS IT A FLASH REQUEST
001381: 10,3662           75033                          MASK     OCT50                                 #  OR A GODSPRET
001382: 10,3663           10000                          CCS      A
001383: 10,3664           13557                          TCF      ENDRET                                #  YES
001384: 10,3665           30371                          CA       NVSAVE
001385: 10,3666           00006                          EXTEND
001386: 10,3667           13557                          BZF      ENDRET
001387:
001388: 10,3670           35067                          CAF      PRIO15
001389: 10,3671           00004                          INHINT
001390: 10,3672           05134                          TC       NOVAC
001391: 10,3673     0367                                 EBANK=   NVWORD
001392: 10,3673           03037 20060                    2CADR    PLAYJUM1
001393:
001394: 10,3675           13557                          TCF      ENDRET
001395:
001396: 10,3676           30100        MARSLEEP          CA       FLAGWRD4                              #  IS MARK ALREADY ON
001397: 10,3677           73746                          MASK     BITS5+11
001398: 10,3700           10000                          CCS      A
001399: 10,3701           15217                          TCF      ENDOFJOB                              #  YES
001400: 10,3702           13176                          TCF      GOSLEEPS
001401:
001402: 10,3703           50157        LOADITIS          INDEX    COPMPAC
001403: 10,3704           30367                          CA       NVWORD
001404: 10,3705           76043                          MASK     LOW7
001405: 10,3706           40000                          COM
001406: 10,3707           60155                          AD       MPAC       +1                         #  NOUNREG
001407: 10,3710           00006                          EXTEND
001408: 10,3711           13533                          BZF      OKTOENT                               #  NO, THEN LOAD IS VALID
001409: 10,3712           13272                          TCF      PINBRNCH                              #  YES, ACCEPT LOAD BUT ASK FOR LAST AGAIN
001410:
001411: 10,3713           46214        ERASER            CS       THREE                                 #  BLANK EVERYTHING EXCEPT MM
001412: 10,3714           04170                          TC       NVSUB
001413: 10,3715           15217                          TCF      ENDOFJOB
001414: 10,3716           15217                          TCF      ENDOFJOB
001415:
001416: 10,3717           00036        PERFMASK          OCT      0036                                  #  FLASH, PERFORM, BLANK R2 AND R3
001417:                                                                                                 #  Page 1483
001418: 10,3720           00231        V01N25            VN       00125
001419: 10,3721           01407        V06N07            VN       00607                                 #  GOPERF3 VN DISPLAY BEFORE V50
001420: 10,3722           14400        V50N00            VN       5000
001421: 10,3723           00030        PERF2MSK          OCT      00030                                 #  FLASH, PERFORM
001422: 10,3724           01006        V04N06            VN       00406
001423: 10,3725           00014        PERF4MSK          OCT      14                                    #  FLASH, BLANK R3
001424: 10,3726  10,3272               GOAGIN            EQUALS   PINBRNCH
001425: 10,3726           20010        REDOMASK          OCT      20010                                 #  BITS 4 AND 14
001426: 10,3727           40230        MARK3MSK          OCT      40230                                 #  MARK, DECIMAL NOUN, PERFORM, FLASH
001427: 10,3730           40036        MARK4MSK          OCT      40036                                 #  MARK, PERFORM, FLASH, BLANK 2 AND 3
001428: 10,3731           20764        NVCADR            CADR     REDOPRIO
001429: 10,3732           20624        WAKECADR          CADR     MARKPLAY
001430: 10,3733           21037                          CADR     PLAYJUM1
001431:
001432: 10,3734           03400        OCT3400           OCT      3400                                  #  EBANK MASK
001433: 10,3735           11210        NBUSMASK          OCT      11210
001434: 10,3736           66521        PMMASK            OCT      66521
001435: 10,3737     4160               VERBMASK          =        MID7                                  #  (OCT 37600)
001436: 10,3737           01177        V05N00M1          OCT      1177                                  #  V05 MINUS ONE
001437: 10,3740  10,2555               GOXDSP            EQUALS   GOMARK
001438: 10,3740  10,2575               GOXDSPR           EQUALS   GOMARKR
001439: 10,3740  10,2561               GOXDSPF           EQUALS   GOMARKF
001440: 10,3740  10,2600               GOXDSPFR          EQUALS   GOMARKFR
001441: 10,3740     5534               ENDEXT            EQUALS   ENDMARK
001442: 10,3740     0165               MPAC2SAV          EQUALS   BANKSET
001443: 10,3740           00700        NVBUSMSK          OCT      700
001444: 10,3741           00704        ASTROMSK          OCT      704
001445: 10,3742           40030        MPERFMSK          OCT      40030                                 #  BIT 15,5,4 FOR MARK,PERFORM,FLASH
001446: 10,3743           34300        OCT34300          OCT      34300
001447: 10,3744           40100        BITS15+7          OCT      40100
001448: 10,3745           00110        BITS7+4           OCT      110
001449: 10,3746     1067               DSPFLG            EQUALS   EBANKSAV
001450: 10,3746     1070               MARKFLAG          EQUALS   MARKEBAN
001451: 10,3746     1071               SAVEFLAG          EQUALS   EBANKTEM
001452: 10,3746           02020        BITS5+11          OCT      2020                                  #  * DON'T MOVE
001453: 10,3747           01010        BITS4+10          OCT      1010                                  #  * DON'T MOVE
001454: 10,3750           00026        LOWLOAD           DEC      22         B-14
001455: 10,3751           77730        BUSYMASK          OCT      77730
001456: 10,3752           00050        CADRMASK          OCT      50
001457: 10,3753     7707               PINMASK           EQUALS   13,14,15
001458: 10,3753  10,3312               GOPLAY            EQUALS   NVDSP
001459: 10,3753     1073               PRIOSAVE          EQUALS   R1SAVE
001460: 10,3753     0157               COPMPAC           EQUALS   MPAC       +3
001461: 10,3753     0160               TEMPOR2           EQUALS   MPAC       +4
001462: 10,3753     0161               OUTHERE           EQUALS   MPAC       +5
001463: 10,3753     0164               COPINDEX          EQUALS   LOC
001464: 10,3753     0163               USERPRIO          EQUALS   MODE
001465: 10,3753     0162               GENMASK           EQUALS   MPAC       +6
001466: 10,3753           20144        PRIOOCT           OCT      20144                                 #  PRIO
001467: 10,3754           42424        MARKOCT           OCT      42424                                 #  MARK
001468:                                                                                                 #  Page 1484
001469: 10,3755           11254                          OCT      11254                                 #  NORM
001470:
001471: 10,3756           74704        IDLESLEP          OCT      74704
001472: 10,3757           67777        OCT67777          OCT      67777
001473: 10,3760     5526               LINUS             EQUALS   BLANKET
001474: 10,3760     0154               FACEREG           EQUALS   MPAC
001475: 10,3760     0155               PLAYTEM1          EQUALS   MPAC       +1
001476: 10,3760     0157               PLAYTEM3          EQUALS   MPAC       +3
001477: 10,3760     0160               PLAYTEM4          EQUALS   MPAC       +4
001478: 10,3760           40420        OCT40420          OCT      40420
001479: 10,3761           02770        MAKEGEN           GENADR   MAKEPLAY
001480: 10,3762           10200        OCT10200          OCT      10200
001481: 10,3763           30200        V97N00            VN       09700                                 #  PASTE FOR V97 OR V99
001482: 10,3764           20100        OCT20100          OCT      20100
001483: 10,3765           24030        CLOCKCON          OCT      24030
001484:
001485:

End of include-file DISPLAY_INTERFACE_ROUTINES.agc.  Parent file is MAIN.agc


