
Source Code


000002:                                                                                                  ## Copyright:    Public domain.
000003:                                                                                                  ## Filename:     DISPLAY_INTERFACE_ROUTINES.agc
000004:                                                                                                  ## Purpose:      Part of the source code for Comanche, build 055. It
000005:                                                                                                  ##               is part of the source code for the Command Module's
000006:                                                                                                  ##               (CM) Apollo Guidance Computer (AGC), Apollo 11.
000007:                                                                                                  ## Assembler:    yaYUL
000008:                                                                                                  ## Reference:    pp. 1452-1484
000009:                                                                                                  ## Contact:      Ron Burkey <info@sandroid.org>
000010:                                                                                                  ## Website:      http://www.ibiblio.org/apollo.
000011:                                                                                                  ## Mod history:  2009-05-07 RSB Adapted from Colossus249 file of the same
000012:                                                                                                  ##                              name, and page images. Corrected various
000013:                                                                                                  ##                              typos in the transcription of program
000014:                                                                                                  ##                              comments, and these should be back-ported
000015:                                                                                                  ##                              to Colossus249.
000016:                                                                                                  ##              2010-08-29 JL   Fixed indentation, whitespace.
000017:                                                                                                  ##              2016-12-22 RSB  Proofed comment text using octopus/ProoferComments
000018:                                                                                                  ##                              and corrected the errors found.
000019:                                                                                                  ##              2017-01-08 RSB  Fixed comment errors detected in cross-diff vs
000020:                                                                                                  ##                              Colossus 249.
000021:                                                                                                  ##              2017-03-13 RSB  Comment-text fixes noted in proofing Luminary 116.
000022:                                                                                                  ##              2017-03-15 RSB  Comment-text fixes identified in 5-way
000023:                                                                                                  ##                              side-by-side diff of Luminary 69/99/116/131/210.
000024:
000025:                                                                                                  ## The contents of the "Comanche055" files, in general, are transcribed
000026:                                                                                                  ## from scanned documents.
000027:                                                                                                  ##
000028:                                                                                                  ##       Assemble revision 055 of AGC program Comanche by NASA
000029:                                                                                                  ##       2021113-051.  April 1, 1969.
000030:                                                                                                  ##
000031:                                                                                                  ##       This AGC program shall also be referred to as Colossus 2A
000032:                                                                                                  ##
000033:                                                                                                  ##       Prepared by
000034:                                                                                                  ##                       Massachusetts Institute of Technology
000035:                                                                                                  ##                       75 Cambridge Parkway
000036:                                                                                                  ##                       Cambridge, Massachusetts
000037:                                                                                                  ##
000038:                                                                                                  ##       under NASA contract NAS 9-4065.
000039:                                                                                                  ##
000040:                                                                                                  ## Refer directly to the online document mentioned above for further
000041:                                                                                                  ## information.  Please report any errors to info@sandroid.org.
000042:


000044:                                                                                                  #  DISPLAYS CAN BE CLASSIFIED INTO THE FOLLOWING CATEGORIES-
000045:                                                                                                  #        1.  PRIORITY DISPLAYS - DISPLAYS WHICH TAKE PRIORITY OVER ALL OTHER DISPLAYS.  USUALLY THESE DISPLAYS ARE SENT
000046:                                                                                                  #            OUT UNDER CRITICAL ALARM CONDITIONS.
000047:                                                                                                  #        2.  EXTENDED VERB DISPLAYS - ALL EXTENDED VERBS AND MARK ROUTINES SHOULD USE EXTENDED VERB (MARK) DISPLAYS.
000048:                                                                                                  #        3.  NORMAL DISPLAYS - ALL MISSION PROGRAM DISPLAYS WHICH INTERFACE WITH THE ASTRONAUT DURING THE NORMAL
000049:                                                                                                  #            SEQUENCE OF EVENTS.
000050:                                                                                                  #        4.  MISC. DISPLAYS - ALL DISPLAYS NOT HANDLED BY THE DISPLAY INTERFACE ROUTINES.  THESE INCLUDE SUCH DISPLAYS AS
000051:                                                                                                  #            MM DISPLAYS AND SPECIAL PURPOSE DISPLAYS HANDLED BY PINBALL.
000052:                                                                                                  #        5.  ASTRONAUT INITIATED DISPLAYS - ALL DISPLAYS INITIATED EXTERNALLY.
000053:
000054:                                                                                                  #  THE FOLLOWING TERMS ARE USED TO DESCRIBE THE STATUS OF DISPLAYS-
000055:                                                                                                  #        1.  ACTIVE - THE DISPLAY WHICH IS (1) BEING DISPLAYED TO THE ASTRONAUT AND WAITING FOR A RESPONSE OR
000056:                                                                                                  #            (2) WAITING FIRST IN LINE FOR THE ASTRONAUT TO FINISH USING THE DSKY OR (3) BEING DISPLAYED ON THE DSKY
000057:                                                                                                  #            BUT NOT WAITING FOR A RESPONSE.
000058:                                                                                                  #        2.  INACTIVE - A DISPLAY WHICH HAS (1) BEEN ACTIVE BUT WAS INTERRUPTED BY A DISPLAY OF HIGHER PRIORITY,
000059:                                                                                                  #            (2) BEEN PUT INTO THE WAITING LIST AT TIME IT WAS REQUESTED DUE TO THE FACT A HIGHER PRIORITY DISPLAY
000060:                                                                                                  #            WAS ALREADY GOING, (3) BEEN INTERRUPTED BY THE ASTRONAUT (CALLED A PINBRANCH CONDITION, SINCE THIS TYPE
000061:                                                                                                  #            OF INACTIVE DISPLAY IS USUALLY REACTIVATED ONLY BY PINBALL) OR (4) A DISPLAY WHICH HAS FINISHED BUT STILL
000062:                                                                                                  #            HAS INFO SAVED FOR RESTART PURPOSES.
000063:
000064:                                                                                                  #  DISPLAY PRIORITIES WORK AS FOLLOWS-
000065:                                                                                                  #        INTERRUPTS -
000066:                                                                                                  #                1.  THE ASTRONAUT CAN INTERRUPT ANY DISPLAY WITH AN EXTERNAL DISPLAY REQUEST.
000067:                                                                                                  #                2.  INTERNAL DISPLAYS CAN NOT BE SENT OUT WHEN THE ASTRONAUT IS USING THE DSKY.
000068:                                                                                                  #                3.  PRIORITY DISPLAYS INTERRUPT ALL OTHER TYPES OF INTERNAL DISPLAYS.  A PRIORITY DISPLAY INTERRUPTING ANOTHER
000069:                                                                                                  #                    PRIORITY DISPLAY WILL CAUSE AN ABORT UNLESS BIT14 IS SET FOR THE LINUS ROUTINE.
000070:                                                                                                  #                4.  A MARK DISPLAY INTERRUPTS ANY NORMAL DISPLAY.
000071:                                                                                                  #                5.  A MARK THAT INTERRUPTS A MARK COMPLETELY REPLACES IT.
000072:
000073:                                                                                                  #        ORDER OF WAITING DISPLAYS-
000074:                                                                                                  #                1.  ASTRONAUT EXTERNAL USE
000075:                                                                                                  #                2.  PRIORITY
000076:                                                                                                  #                3.  INTERRUPTED MARK
000077:                                                                                                  #                4.  INTERRUPTED NORMAL
000078:                                                                                                  #                5.  MARK TO BE REQUESTED (SEE DESCRIPTION OF ENDMARK)
000079:                                                                                                  #                6.  MARK WAITING
000080:                                                                                                  #                7.  NORMAL WAITING
000081:


000083:                                                                                                  #  THE DISPLAY ROUTINES ARE INTENDED TO SERVE AS AN INTERFACE BETWEEN THE USER AND PINBALL.  THE
000084:                                                                                                  #  FOLLOWING STATEMENTS CAN BE MADE ABOUT NORMAL DISPLAYS AND PRIORITY DISPLAYS (A DESCRIPTION OF MARK ROUTINES
000085:                                                                                                  #  WILL FOLLOW LATER):
000086:                                                                                                  #        1.  ALL ROUTINES THAT END IN R HAVE AN IMMEDIATE RETURN TO THE USER.  FOR ALL FLASHING DISPLAYS THIS RETURN
000087:                                                                                                  #            IS TO THE USERS CALL CADR +4.  FOR THE ONLY NON FLASHING IMMEDIATE RETURN DISPLAY (GODSPR) THIS RETURN
000088:                                                                                                  #            IS TO THE USERS CALLING LOC +1.
000089:                                                                                                  #        2.  ALL ROUTINES NOT ENDING IN R DO NOT DO AN IMMEDIATE RETURN TO THE USER.
000090:                                                                                                  #        3.  ALL ROUTINES THAT END IN R START A SEPARATE JOB (MAKEPLAY) WITH USERS JOB PRIORITY.
000091:                                                                                                  #        4.  ALL ROUTINES NOT ENDING IN R BRANCH DIRECTLY TO MAKEPLAY WHICH MAKES THESE DISPLAYS A PART OF THE
000092:                                                                                                  #            USERS JOB.
000093:                                                                                                  #        5.  ALL DISPLAY ROUTINES ARE CALLED VIA BANKCALL.
000094:                                                                                                  #        6.  TO RESTART A DISPLAY THE USER WILL GENERALLY USE A PHASE OF ONE WITH DESIRED RESTART GROUP (SEE
000095:                                                                                                  #            DESCRIPTION OF RESTARTS).
000096:                                                                                                  #        7.  ALL FLASHING DISPLAYS HAVE 3 RETURNS TO THE USER FROM ASTRONAUT RESPONSES.  A TERMINATE (V34) BRANCHES
000097:                                                                                                  #            TO THE USERS CALL CADR +1.  A PROCEED (V33) BRANCHES TO THE USERS CALL CADR +2.  AN ENTER OR RECYCLE
000098:                                                                                                  #            (V32) BRANCHES TO THE USERS CALL CADR +3.
000099:                                                                                                  #        8.  ALL ROUTINES MUST BE USED UNDER EXECUTIVE CONTROL.
000100:
000101:                                                                                                  #  A DESCRIPTION OF EACH ROUTINE WITH AN EXAMPLE FOLLOWS:
000102:
000103:                                                                                                  #        GODSP IS USED TO DISPLAY A VERB NOUN ARRIVING IN A.  NO RETURN IS MADE TO THE USER.
000104:                                                                                                  #                1.  GODSP IS NOT RESTARTABLE
000105:                                                                                                  #                2.  A VERB PASTE WITH GODSP ALWAYS TURNS ON THE FLASH.
000106:                                                                                                  #                                CAF     VXXNYY
000107:                                                                                                  #                                TC      BANKCALL
000108:                                                                                                  #                                CADR    GODSP
000109:                                                                                                  #                        VXXNYY  OCT     0XXYY
000110:
000111:                                                                                                  #        GODSPR IS THE SAME AS GODSP ONLY RETURN IS TO THE USER.
000112:                                                                                                  #                                CAF     VXXNYY
000113:                                                                                                  #                                TC      BANKCALL
000114:                                                                                                  #                                CADR    GODSPR
000115:                                                                                                  #                                ...     ...             IMMEDIATE RETURN OF GODSPR
000116:
000117:                                                                                                  #        GOFLASH DISPLAYS A FLASHING VERB NOUN WITH NO IMMEDIATE RETURN TO THE USER.  3 RETURNS ARE POSSIBLE FROM
000118:                                                                                                  #        THE ASTRONAUT (SEE NO. 7 ABOVE).
000119:                                                                                                  #                                CAF     VXXNYY          VXX NYY WILL BE A FLASHING VERB NOUN.
000120:                                                                                                  #                                TC      BANKCALL
000121:                                                                                                  #                                CADR    GOFLASH
000122:                                                                                                  #                                ...     ...             TERMINATE RETURN
000123:                                                                                                  #                                ...     ...             PROCEED RETURN
000124:                                                                                                  #                                ...     ...             ENTER OR RECYCLE RETURN
000125:
000126:                                                                                                  #        GOPERF1 IS ENTERED WITH DESIRED CHECKLIST VALUE IN A.  GOPERF1 WILL DISPLAY THIS VALUE IN R1 BY MEANS OF A


000128:                                                                                                  #        V01 N25.  A FLASHING PLEASE PERFORM ON CHECKLIST (V50 N25) IS THEN DISPLAYED.  NO IMMEDIATE RETURN IS MADE TO
000129:                                                                                                  #        USER (SEE NO. 7 ABOVE).
000130:                                                                                                  #        GOPERF1 BLANKS REGISTERS R2 AND R3
000131:                                                                                                  #                                CAF     OCTXX           CODE FOR CHECKLIST VALUE XX
000132:                                                                                                  #                                TC      BANKCALL
000133:                                                                                                  #                                CADR    GOPERF1
000134:                                                                                                  #                                ...     ...             TERMINATE RETURN
000135:                                                                                                  #                                ...     ...             PROCEED RETURN
000136:                                                                                                  #                                ...     ...             ENTER RETURN
000137:                                                                                                  #        GOPERF2 IS ENTERED WITH A VARIABLE NOUN AND V01 (V00 FOR N10 OR N11) IN A.  GOPERF2 WILL FIRST DISPLAY THE
000138:                                                                                                  #        REQUESTED NOUN BY MEANS OF A V01NYY OR A V00NYY.  PLEASE PERFORM ON NOUN (V50 NYY) THEN BECOMES A FLASHING
000139:                                                                                                  #        DISPLAY.  NO IMMEDIATE RETURN IS MADE TO THE USER (SEE NO. 7 ABOVE).
000140:                                                                                                  #        GOPERF2 DOES NOT BLANK ANY REGISTERS
000141:                                                                                                  #                                CAF     VXXNYY          VARIABLE NOUN YY. XX=00 OR 01.
000142:                                                                                                  #                                TC      BANKCALL
000143:                                                                                                  #                                CADR    GOPERF2
000144:                                                                                                  #                                ...     ...             TERMINATE RETURN
000145:                                                                                                  #                                ...     ...             PROCEED RETURN
000146:                                                                                                  #                                ...     ...             ENTER RETURN
000147:                                                                                                  #        GOPERF3 IS USED FOR A PLEASE PERFORM ON A PROGRAM NUMBER.  THE DESIRED PROGRAM NO. IS ENTERED IN A.  GOPERF3
000148:                                                                                                  #        DISPLAYS THE NO. BY MEANS OF A V06 N07 FOLLOWED BY A FLASHING V50 N07 FOR A PLEASE PERFORM.  NO IMMEDIATE RETURN
000149:                                                                                                  #        IS MADE TO THE USER (SEE NO. 7 ABOVE).
000150:                                                                                                  #        GOPERF3 BLANKS REGISTERS R2 AND R3
000151:                                                                                                  #                                CAF     DECXX           REQUEST PERFORM ON PXX
000152:                                                                                                  #                                TC      BANKCALL
000153:                                                                                                  #                                CADR    GOPERF3
000154:                                                                                                  #                                ...     ...             TERMINATE RETURN
000155:                                                                                                  #                                ...     ...             PROCEED RETURN
000156:                                                                                                  #                                ...     ...             ENTER RETURN
000157:
000158:                                                                                                  #        GOPERF4 IS USED FOR A PLEASE PERFORM ON AN OPTION.  THE DESIRED OPTION IS ENTERED IN A AND STORED IN OPTION1.
000159:                                                                                                  #        GOPERF4 DISPLAYS R1 AND R2 BY MEANS OF A V04N06 FOLLOWED BY A FLASHING V50N06 FOR A PLEASE PERFORM.  NO
000160:                                                                                                  #        IMMEDIATE RETURN IS MADE TO THE USER (SEE NO. 7 ABOVE).
000161:                                                                                                  #                                CAF     OCTXX           REQUEST PERFORM ON OPTION XX
000162:                                                                                                  #                                TC      BANKCALL
000163:                                                                                                  #                                CADR    GOPERF4
000164:                                                                                                  #                                ...     ...             TERMINATE RETURN
000165:                                                                                                  #                                ...     ...             PROCEED RETURN
000166:                                                                                                  #                                ...     ...             ENTER RETURN
000167:                                                                                                  #        GOPERF4 BLANKS REGISTER R3
000168:


000170:                                                                                                  #        GODSPRET IS USED TO DISPLAY A VERB NOUN ARRIVING IN A WITH A RETURN TO THE USER AFTER THE DISPLAY HAS BEEN SENT
000171:                                                                                                  #        OUT.
000172:                                                                                                  #                                CAF     VXXNYY
000173:                                                                                                  #                                TC      BANKCALL
000174:                                                                                                  #                                CADR    GODSPRET
000175:                                                                                                  #                                ...     ...             RETURN TO USER
000176:
000177:                                                                                                  #        REGODSP IS USED TO DISPLAY A VERB NOUN ARRIVING IN A.  REGODSP IS THE SAME AS GODSP ONLY REGODSP REPLACES ANY
000178:                                                                                                  #        ACTIVE NORMAL DISPLAY IF ONE WAS ACTIVE.
000179:                                                                                                  #                                CAF     VXXNYY
000180:                                                                                                  #                                TC      BANKCALL
000181:                                                                                                  #                                CADR    REGODSP
000182:
000183:                                                                                                  #        REFLASH IS THE SAME AS GOFLASH ONLY REFLASH REPLACES ANY ACTIVE NORMAL DISPLAY IF ONE WAS ACTIVE.
000184:                                                                                                  #                                CAF     VXXNYY          VXX NYY WILL BE A FLASHING VERB NOUN
000185:                                                                                                  #                                TC      BANKCALL
000186:                                                                                                  #                                CADR    REFLASH
000187:                                                                                                  #                                ...     ...             TERMINATE RETURN
000188:                                                                                                  #                                ...     ...             PROCEED RETURN
000189:                                                                                                  #                                ...     ...             ENTER RETURN
000190:
000191:                                                                                                  #        GOFLASHR IS SAME AS GOFLASH ONLY AN IMMEDIATE RETURN IS MADE TO THE USERS CALL CADR +4.
000192:                                                                                                  #                                CAF     VXXNYY
000193:                                                                                                  #                                TC      BANKCALL
000194:                                                                                                  #                                CADR    GOFLASHR
000195:                                                                                                  #                                ...     ...             TERMINATE RETURN
000196:                                                                                                  #                                ...     ...             PROCEED RETURN
000197:                                                                                                  #                                ...     ...             ENTER OR RECYCLE RETURN
000198:                                                                                                  #                                ...     ...             IMMEDIATE RETURN FROM GOFLASHR
000199:
000200:                                                                                                  #        GOPERF1R IS THE SAME AS GOPERF1 ONLY GOPERF1R HAS AN IMMEDIATE RETURN TO USERS CALL CADR +4.
000201:                                                                                                  #        GOPERF1R BLANKS REGISTERS R2 AND R3
000202:                                                                                                  #                                CAF     OCTXX           CODE FOR CHECKLIST VALUE XX.
000203:                                                                                                  #                                TC      BANKCALL
000204:                                                                                                  #                                CADR    GOPERF1R
000205:                                                                                                  #                                ...     ...             TERMINATE RETURN
000206:                                                                                                  #                                ...     ...             PROCEED RETURN
000207:                                                                                                  #                                ...     ...             ENTER RETURN
000208:                                                                                                  #                                ...     ...             IMMEDIATE RETURN FROM GOPERF1R
000209:
000210:                                                                                                  #        GOPERF2R IS THE SAME AS GOPERF2 ONLY AN IMMEDIATE RETURN IS MADE TO USERS CALL CADR +4.


000212:                                                                                                  #        GOPERF2R DOES NOT BLANK ANY REGISTERS
000213:                                                                                                  #                                CAF     VXXNYY          VARIABLE NOUN YY REQUESTED.  XX=00 OR 01
000214:                                                                                                  #                                TC      BANKCALL
000215:                                                                                                  #                                CADR    GOPERF2R
000216:                                                                                                  #                                ...     ...             TERMINATE RETURN
000217:                                                                                                  #                                ...     ...             PROCEED RETURN
000218:                                                                                                  #                                ...     ...             ENTER RETURN
000219:                                                                                                  #                                ...     ...             IMMEDIATE RETURN HERE FROM GOPERF2R
000220:
000221:                                                                                                  #        GOPERF3R IS THE SAME AS GOPERF3 ONLY AN IMMEDIATE RETURN IS MADE TO USERS CALL CADR +4.
000222:                                                                                                  #        GOPERF3R BLANKS REGISTERS R2 AND R3
000223:                                                                                                  #                                CAF     PROGXX          PERFORM PROGRAM XX
000224:                                                                                                  #                                TC      BANKCALL
000225:                                                                                                  #                                CADR    GOPERF3R
000226:                                                                                                  #                                ...     ...             TERMINATE RETURN
000227:                                                                                                  #                                ...     ...             PROCEED RETURN
000228:                                                                                                  #                                ...     ...             ENTER RETURN
000229:                                                                                                  #                                ...     ...             GOPERF3R IMMEDIATELY RETURNS HERE
000230:
000231:                                                                                                  #        GOPERF4R IS THE SAME AS GOPERF4 ONLY AN IMMEDIATE RETURN IS MADE TO USERS CALL CADR +4.
000232:                                                                                                  #                                CAF     OCTXX           REQUEST PERFORM ON OPTIONXX
000233:                                                                                                  #                                TC      BANKCALL
000234:                                                                                                  #                                CADR    GOPERF4R
000235:                                                                                                  #                                ...     ...             TERMINATE RETURN
000236:                                                                                                  #                                ...     ...             PROCEED RETURN
000237:                                                                                                  #                                ...     ...             ENTER RETURN
000238:                                                                                                  #                                ...     ...             IMMEDIATE RETURN TO USER
000239:                                                                                                  #        GOPERF4R BLANKS REGISTER R3
000240:
000241:                                                                                                  #        REFLASHR IS THE SAME AS REFLASH ONLY AN IMMEDIATE RETURN IS MADE TO THE USERS CALL CADR +4.
000242:                                                                                                  #                                CAF     VXXNYY          VXX NYY WILL BE A FLASHING VERB NOUN
000243:                                                                                                  #                                TC      BANKCALL
000244:                                                                                                  #                                CADR    REFLASHR
000245:                                                                                                  #                                ...     ...             TERMINATE RETURN
000246:                                                                                                  #                                ...     ...             PROCEED RETURN
000247:                                                                                                  #                                ...     ...             ENTER RETURN
000248:                                                                                                  #                                ...     ...             IMMEDIATE RETURN TO USER
000249:
000250:                                                                                                  #        REGODSPR IS THE SAME AS REGODSP ONLY A RETURN (IMMEDIATE) IS MADE TO THE USER.


000252:                                                                                                  #                                CAF     VXXNYY
000253:                                                                                                  #                                TC      BANKCALL
000254:                                                                                                  #                                CADR    REGODSPR
000255:                                                                                                  #                                ...     ...             IMMEDIATE RETURN TO USER
000256:


000258:                                                                                                  #        GOMARK IS USED TO DISPLAY A MARK VERB NOUN ARRIVING IN A.  NO RETURN IS MADE TO THE USER.
000259:                                                                                                  #        GOXDSP = GOMARK
000260:                                                                                                  #                                CAF     VXXNYY          VXXNYY CONTAINS VERB AND NOUN
000261:                                                                                                  #                                TC      BANKCALL
000262:                                                                                                  #                                CADR    GOMARK          OTHER EXTENDED VERBS USE CADR GOXDSP
000263:
000264:                                                                                                  #        GOMARKR IS THE SAME AS GOMARK ONLY RETURN IS TO THE USER.
000265:                                                                                                  #        GOXDSPR = GOMARKR
000266:                                                                                                  #                                CAF     VXXNYY
000267:                                                                                                  #                                TC      BANKCALL
000268:                                                                                                  #                                CADR    GOMARKR         OTHER EXTENDED VERBS USE CADR GOXDSPR
000269:
000270:                                                                                                  #                                ...     ...             IMMEDIATE RETURN OF GOMARKR
000271:
000272:                                                                                                  #        GOMARKF DISPLAYS A FLASHING MARK VERB NOUN WITH NO IMMEDIATE RETURN TO THE USER.  3 RETURNS ARE POSSIBLE FROM
000273:                                                                                                  #        THE ASTRONAUT (SEE NO. 7 ABOVE).
000274:
000275:                                                                                                  #        GOXDSPF = GOMARKF
000276:
000277:                                                                                                  #                                CAF     VXXNYY          VXXNYY WILL BE A FLASHING MARK VERB NOUN
000278:                                                                                                  #                                TC      BANKCALL
000279:                                                                                                  #                                CADR    GOMARKF         OTHER EXTENDED VERBS USE CADR GOXDSPF
000280:                                                                                                  #                                ...     ...             TERMINATE RETURN
000281:                                                                                                  #                                ...     ...             PROCEED RETURN
000282:                                                                                                  #                                ...     ...             ENTER OR RECYCLE RETURN
000283:
000284:                                                                                                  #        GOMARKFR IS THE SAME AS GOMARKF ONLY AN IMMEDIATE RETURN IS MADE TO THE USER CALL CADR +4.
000285:                                                                                                  #        GOXDSPFR = GOMARKFR
000286:                                                                                                  #                                CAF     VXXNYY          FLASHING MARK VERB NOUN
000287:                                                                                                  #                                TC      BANKCALL
000288:                                                                                                  #                                CADR    GOMARKFR        OTHER EXTENDED VERBS USE CADR GOXDSPFR
000289:                                                                                                  #                                ...     ...             TERMINATE RETURN
000290:                                                                                                  #                                ...     ...             PROCEED RETURN
000291:                                                                                                  #                                ...     ...             ENTER OR RECYCLE RETURN
000292:                                                                                                  #
000293:                                                                                                  #                                ...     ...             IMMEDIATE RETURN TO THE USER
000294:
000295:                                                                                                  #        GOMARK1 IS USED FOR A PLEASE PERFORM ON A MARK REQUEST WITH ONLY 1 ASTRONAUT RETURN TO THE USER.  NO IMMEDIATE
000296:                                                                                                  #        RETURN IS MADE.  THE DESIRED MARK PLEASE PERFORM VERB AND DESIRED NOUN IS ENTERED IN A.  GOMARK1 DISPLAYS R1, R2, R
000297:                                                                                                  #        MEANS OF A V05NYY FOLLOWED BY A FLASHING V5XNYY FOR A PLEASE PERFORM.  THE ASTRONAUT WILL RESPOND WITH A MARK
000298:                                                                                                  #        OR MARK REJECT OR AN ENTER.  THE ENTER IS THE ONLY ASTRONAUT RESPONSE THAT WILL COME BACK TO THE USER.
000299:
000300:                                                                                                  #                                CAF     V5XNYY          X=1,2,3,4       Y=NOUN
000301:                                                                                                  #                                TC      BANKCALL


000303:                                                                                                  #                                CADR    GOMARK1
000304:                                                                                                  #                                ...     ...             ENTER RETURN
000305:
000306:                                                                                                  #        *** IF BLANKING DESIRED ON NON R ROUTINES, NOTIFY DISPLAYER.
000307:
000308:                                                                                                  #        GOMARK1R IS THE SAME AS A GOMARK1 ONLY AN IMMEDIATE RETURN IS MADE TO THE USERS CALL CADR +2.
000309:                                                                                                  #                                CAF     V5XNYY          X=1,2,3,4       YY=NOUN
000310:                                                                                                  #                                TC      BANKCALL
000311:                                                                                                  #                                CADR    GOMARK1R
000312:                                                                                                  #                                ...     ...             ASTRONAUT ENTER RETURN
000313:                                                                                                  #                                ...     ...             IMMEDIATE RETURN TO USER
000314:
000315:                                                                                                  #        GOMARK2 IS THE SAME AS GOMARK1 ONLY 3 RETURNS ARE MADE TO THE USER FROM THE ASTRONAUT.
000316:                                                                                                  #                                CAF     V5XNYY          X=1,2,3,4       YY=NOUN
000317:                                                                                                  #                                TC      BANKCALL
000318:                                                                                                  #                                CADR    GOMARK2
000319:                                                                                                  #                                ...     ...             TERMINATE RETURN
000320:                                                                                                  #                                ...     ...             PROCEED RETURN
000321:                                                                                                  #                                ...     ...             ENTER RETURN
000322:
000323:                                                                                                  #        GOMARK2R IS THE SAME AS GOMARK1R ONLY 3 ASTRONAUT RETURNS ARE MADE TO THE USER.
000324:                                                                                                  #                                CAF     V5XNYY          X=0,1,2,3,4     YY=NOUN
000325:                                                                                                  #                                TC      BANKCALL
000326:                                                                                                  #                                CADR    GOMARK2R
000327:                                                                                                  #                                ...     ...             TERMINATE RETURN
000328:                                                                                                  #                                ...     ...             PROCEED RETURN
000329:                                                                                                  #                                ...     ...             ENTER RETURN
000330:                                                                                                  #                                ...     ...             IMMEDIATE RETURN TO THE USER
000331:
000332:                                                                                                  #        GOMARK3 IS USED FOR A PLEASE PERFORM ON A MARK REQUEST WITH A 3 COMP. DEC DISPLAY.  THE DESIRED MARK PLEASE
000333:                                                                                                  #        PERFORM VERB AND NOUN ARE ENTERED IN A.  GOMARK3 DISPLAYS R1, R2, R3 BY MEANS OF A V06NYY FOLLOWED BY A FLASHING
000334:                                                                                                  #        V5XNYY FOR A PLEASE PERFORM.  GOMARK3 HAS 3 ASTRONAUT RETURNS TO THE USER WITH NO IMMEDIATE RETURN.
000335:                                                                                                  #                                CAF     V5XNYY          X=1,2,3,4       YY=NOUN
000336:                                                                                                  #                                TC      BANKCALL
000337:                                                                                                  #                                CADR    GOMARK3
000338:                                                                                                  #                                ...     ...             TERMINATE RETURN
000339:                                                                                                  #                                ...     ...             PROCEED RETURN
000340:                                                                                                  #                                ...     ...             ENTER RETURN
000341:
000342:                                                                                                  #        GOMARK4 IS THE SAME AS GOMARK3 ONLY R2 AND R3 ARE BLANKED AND R1 IS DISPLAYED IN OCTAL.
000343:                                                                                                  #                                CAF     V5XNYY          X=1,2,3,4       YY=NOUN
000344:                                                                                                  #                                TC      BANKCALL
000345:                                                                                                  #                                CADR    GOMARK4
000346:                                                                                                  #                                ...     ...             TERMINATE RETURN
000347:                                                                                                  #                                ...     ...             PROCEED RETURN


000349:                                                                                                  #                        ...     ...                     ENTER RETURN
000350:                                                                                                  #        EXDSPRET IS USED TO DISPLAY A VERB NOUN ARRIVING IN A WITH A RETURN MADE TO THE USER AFTER THE DISPLAY HAS BEEN
000351:                                                                                                  #        SENT OUT.
000352:                                                                                                  #                                CAF     VXXNYY
000353:                                                                                                  #                                TC      BANKCALL
000354:                                                                                                  #                                CADR    EXDSPRET
000355:                                                                                                  #                                ...     ...             RETURN TO USER
000356:
000357:                                                                                                  #        KLEENEX CLEANS OUT ALL MARK DISPLAYS (ACTIVE AND INACTIVE). A RETURN IS MADE TO THE USER AFTER THE MARK DISPLAYS
000358:                                                                                                  #        HAVE BEEN CLEANED OUT.
000359:                                                                                                  #                                TC      BANKCALL
000360:                                                                                                  #                                CADR    KLEENEX
000361:                                                                                                  #                                ...     ...             RETURN TO USER
000362:
000363:                                                                                                  #        MARKBRAN IS A SPECIAL PURPOSE ROUTINE USED FOR SAVING JOB VAC AREAS (SEE DESCRIPTION OF MARKBRAN BELOW).
000364:                                                                                                  #                                TC      BANKCALL
000365:                                                                                                  #                                CADR    MARKBRAN
000366:                                                                                                  #                                ...     ...             BAD RETURN IF MARK DISPLAY NOT ACTIVE
000367:                                                                                                  #                                                        (GOOD RETURN TO IMMEDIATE RETURN LOC OF
000368:                                                                                                  #                                                        LAST FLASHING MARK R ROUTINE)
000369:
000370:                                                                                                  #        PINBRNCH REESTABLISHES THE LAST ACTIVE FLASHING DISPLAY.  IF THERE IS NO ACTIVE FLASHING DISPLAY, THE DSKY IS
000371:                                                                                                  #        BLANKED AND CONTROL IS SENT TO ENDOFJOB.
000372:                                                                                                  #                                TC      POSTJUMP
000373:                                                                                                  #                                CADR    PINBRNCH
000374:
000375:                                                                                                  #        PRIODSP IS USED AS A PRIORITY DISPLAY.  IT WILL DISPLAY A GOFLASH TYPE DISPLAY WITH THREE POSSIBLE RETURNS FROM
000376:                                                                                                  #        THE ASTRONAUT (SEE NO. 7 ABOVE).
000377:
000378:                                                                                                  #        THE MAIN PURPOSE OF PRIODSP IS TO REPLACE THE PRESENT DISPLAY WITH A DISPLAY OF HIGHER PRIORITY AND TO
000379:                                                                                                  #        PROVIDE A MEANS FOR RESTORING THE OLD DISPLAY WHEN THE PRIORITY DISPLAY
000380:                                                                                                  #        IS RESPONDED TO BY THE ASTRONAUT.
000381:
000382:                                                                                                  #        THE FORMER DISPLAY IS RESTORED BY AN AUTOMATIC BRANCH TO WAKE UP THE DISPLAY THAT WAS INTERRUPTED BY THE
000383:                                                                                                  #        PRIO DISPLAY.
000384:                                                                                                  #                                CAF     VXXNYY          VXXNYY WILL BE A FLASHING VERB NOUN
000385:                                                                                                  #                                TC      BANKCALL
000386:                                                                                                  #                                CADR    PRIODSP
000387:                                                                                                  #                                ...     ...             TERMINATE RETURN
000388:                                                                                                  #                                ...     ...             PROCEED RETURN


000390:                                                                                                  #                                ...     ...             ENTER OR RECYCLE RETURN
000391:
000392:                                                                                                  #        PRIODSPR IS THE SAME AS PRIODSP ONLY AN IMMEDIATE RETURN IS MADE TO THE USERS CALL CADR +4.
000393:                                                                                                  #                                CAF     VXXNYY          VXXNYY WILL BE A FLASHING VERB NOUN
000394:                                                                                                  #                                TC      BANKCALL
000395:                                                                                                  #                                CADR    PRIODSPR
000396:                                                                                                  #                                ...     ...             TERMINATE RETURN
000397:                                                                                                  #                                ...     ...             PROCEED RETURN
000398:                                                                                                  #                                ...     ...             ENTER OR RECYCLE RETURN
000399:                                                                                                  #                                ...     ...             IMMEDIATE RETURN
000400:
000401:                                                                                                  #        PRIOLARM DOES A V05N09 PRIODSPR.
000402:
000403:                                                                                                  #        CLEANDSP CLEANS OUT ALL NORMAL DISPLAYS (ACTIVE AND INACTIVE).  A RETURN IS MADE TO THE USER AFTER NORMAL
000404:                                                                                                  #        DISPLAYS ARE CLEANED OUT.
000405:                                                                                                  #                                TC      BANKCALL
000406:                                                                                                  #                                CADR    CLEANDSP
000407:                                                                                                  #                                ...     ...             RETURN TO USER


000409:
000410:                                                                                                  #  GENERAL INFORMATION
000411:                                                                                                  #  ------- -----------
000412:
000413:                                                                                                  #  ALARM OR ABORT EXIT MODES--
000414:                                                                                                  #        PRIOBORT        TC      ABORT
000415:                                                                                                  #                        OCT     1502
000416:
000417:                                                                                                  #        PRIOBORT IS BRANCED TO WHEN (1) A NORMAL DISPLAY IS REQUESTED AND ANOTHER NORMAL DISPLAY IS ALREADY ACTIVE
000418:                                                                                                  #        (REFLASH AND REGODSP ARE EXCEPTIONS) OR (2) A PRIORITY DISPLAY IS REQUESTED WHEN ANOTHER PRIORITY DISPLAY IS
000419:                                                                                                  #        ALREADY ACTIVE (A PRIORITY WITH LINUS BIT14 IS AN EXCEPTION).
000420:
000421:                                                                                                  #  ERASABLE INITIALIZATION REQUIRED--
000422:                                                                                                  #        ACCOMPLISHED BY FRESH START-    1.  FLAGWRD4 (USED EXCLUSIVELY BY DISPLAY INTERFACE ROUTINES)
000423:                                                                                                  #                                        2.  NVSAVE = NORMAL VERB AND NOUN REGISTER.
000424:                                                                                                  #                                        3.  EBANKTEM = NORMAL INACTIVE FLAGWORD (ALSO CONTAINS NORMALS EBANK).
000425:                                                                                                  #                                        5.  R1SAVE = MARKBRAN CONTROL WORD
000426:                                                                                                  #                                        4.  RESTREG = PRIORITY 30 AND SUPERBANK 3.
000427:
000428:                                                                                                  #  OUTPUT--
000429:                                                                                                  #        NVWORD = PRIO VERB AND NOUN
000430:                                                                                                  #        NVWORD +1(MARKNV) = MARK VERB AND NOUN
000431:                                                                                                  #        NVWORD +2(NVSAVE) = NORMAL VERB AND NOUN
000432:
000433:                                                                                                  #        DSPFLG (EBANKSAV) = PRIO FLAGWORD (INCLUDING EBANK)
000434:                                                                                                  #        DSPFLG +1(MARKEBAN) = MARK FLAGWORD (INCLUDING EBANK)
000435:                                                                                                  #        DSPFLG +2(EBANKTEM) = NORMAL FLAGWORD (INCLUDIG EBANK)
000436:
000437:                                                                                                  #        CADRFLSH = PRIO USERS CALL CADR +1 LOCATION
000438:                                                                                                  #        CADRFLSH +1(MARKFLSH) = MARK USERS CALL CADR +1 LOCATION
000439:                                                                                                  #        CADRFLSH +2(TEMPFLSH) = NORMAL USERS CALL CADR +1 LOCATION
000440:
000441:                                                                                                  #        PRIOTIME = TIME EACH PRIO REQUEST FIRST SENT OUT
000442:                                                                                                  #        OPTION1 = DESIRED OPTION FROM GOPERF4
000443:                                                                                                  #        FLAGWRD4 = BIT INFO FOR CONTROL OF ALL DISPLAY ROUTINES
000444:                                                                                                  #        DSPTEM1 = R1 INFO FOR ASTRONAUT FROM PERFORM DISPLAYS (NORMAL)
000445:
000446:                                                                                                  #  SUBROUTINES USED-- NVSUB, FLAGUP, FLAGDOWN, ENDOFJOB, BLANKSUB, ABORT, JOBWAKE, JOBSLEEP, FINDVAC, PRIOCHNG,
000447:                                                                                                  #        JAMTERM, NVSUBUSY, FLASHON, ENDIDLE, CHANG1, BANKJUMP, MAKECADR, NOVAC,
000448:
000449:                                                                                                  #  DEBRIS-- (STORED INTO)
000450:                                                                                                  #        TEMPORARY TEMPORARIES - A, Q, L, MPAC +2, MPAC +3, MPAC +4, MPAC +5, MPAC +6, RUPTREG2, RUPTREG3, CYL,
000451:                                                                                                  #  EBANK, RUPTREG4, LOC, BANKSET, MODE, MPAC, MPAC +1                        4, FACEREG
000452:                                                                                                  #        ERASABES (SHARED AND USED WITH OTHER PROGRAMS) CADRSTOR, DSPLIST, LOC, DSPTEM1, OPTION1
000453:                                                                                                  #        ERASABLES (USED ONLY BY DISPLAY ROUTINES) - NVWORD,+1,+2, DSPFLG,+1,+2, CADRFLSH,+1,+2, PRIOTIME, FLAGWRD4,


000455:                                                                                                  #                R1SAVE, MARK2PAC,
000456:
000457:                                                                                                  #  DEBRIS-- (USED BUT NOT STORED INTO) - NOUNREG, VERBREG, LOCCTR, MONSAVE1
000458:
000459:                                                                                                  #  FLAGWORD DESCRIPTIONS--
000460:                                                                                                  #        FLAGWRD4 - SEE DESCRIPTION UNDER LOG SECTION ERASABLE ASSIGNMENTS
000461:
000462:                                                                                                  #        DSPFLG, DSPFLG+1, DSPFLG +2-
000463:                                                                                                  #        ----------------------------
000464:                                                                                                  #        BITS 1  BLANK R1
000465:                                                                                                  #             2  BLANK R2
000466:                                                                                                  #             3  BLANK R3
000467:                                                                                                  #             4  FLASHING DISPLAY REQUESTED
000468:                                                                                                  #             5  PERFORM DISPLAY REQUESTED
000469:                                                                                                  #             6  -----                   EXDSPRET                GODSPRET
000470:                                                                                                  #             7  PRIO DISPLAY            -----                   -----
000471:                                                                                                  #             8  -----                   DEC MARK PERFORM        -----
000472:                                                                                                  #             9  EBANK
000473:                                                                                                  #            10  EBANK
000474:                                                                                                  #            11  EBANK
000475:                                                                                                  #            12  -----                   -----                   V99PASTE
000476:                                                                                                  #            13  2ND PART OF PERFORM
000477:                                                                                                  #            15  REFLASH OR REDO         -----                   REFLASH OR REDO
000478:                                                                                                  #            15  -----                   MARK REQUEST            -----
000479:
000480:                                                                                                  #  RESTARTING DISPLAYS--
000481:
000482:                                                                                                  #  RULES FOR THE DSKY OPERATOR --
000483:                                                                                                  #        1.  PROCEED AND TERMINATE SERVE AS RESPONSES TO REQUESTS FOR OPERATOR RESPONSE (FLASHING V/N).  AS LONG
000484:                                                                                                  #            AS THERE IS ANY REQUEST AWAITING OPERATOR RESPONSE, ANY USE OF PROCEED OR TERMINATE WILL SERVE AS
000485:                                                                                                  #            RESPONSES TO THAT REQUEST.  CARE SHOULD BE EXERCISED IN ATTEMPTING TO KILL AN OPERATOR INITIATED MONITOR
000486:                                                                                                  #            WITH PROCEED AND TERMINATE FOR THIS REASON.
000487:                                                                                                  #        2.  THE ASTRONAUT MUST RESPOND TO A PRIORITY DISPLAY NO SOONER THAN 5 SECS FROM THE TIME THE MISSION
000488:                                                                                                  #            PROGRAM SENT OUT THE REQUEST FOR OPERATOR RESPONSE (THE ASTRONAUT WOULD SEE THIS DISPLAY FOR LESS TIME
000489:                                                                                                  #            DUE TO TIME IT TAKES TO GET DISPLAY SENT OUT.)  IF THE ASTRONAUT RESPONDS TOO SOON, THE PRIORITY DISPLAY
000490:                                                                                                  #            IS SENT OUT AGAIN---AND AGAIN UNTIL AN ACCUMULATED 5 SECS FROM TIME THE FIRST PRIORITY DISPLAY WAS SENT
000491:                                                                                                  #            OUT.  THE SAME 5 SEC. DELAY WILL OCCUR AT 163.84 SECS OR IN ANY MULTIPLE OF THAT TIME DUE TO PROGRAM
000492:                                                                                                  #            CONSIDERATION.
000493:                                                                                                  #        3.  KEY RELEASE BUTTON -
000494:                                                                                                  #            A)  IF THE KEY RELEASE LIGHT IS ON, IT SIMPLY RELEASES THE KEYBOARD AND DISPLAY FOR INTERNAL USE.
000495:                                                                                                  #            B)  IF THE KEY RELEASE LIGHT IS OFF, AND IF SOME REQUEST FOR OPERATOR RESPONSE (FLASHING V/N) IS STILL
000496:                                                                                                  #                AWAITING RESPONSE THEN IT RE-ESTABLISHES THE DISPLAYS THAT ORIGINALLY REQUESTED RESPONSE.
000497:                                                                                                  #            IF AN OPERATOR WANTS THEREFORE TO RE-ESTABLISH BUT CONDITION (A) IS ENCOUNTERED, A SECOND DEPRESSION OF
000498:                                                                                                  #            KEY RELEASE BUTTON MAY BE NECESSARY.
000499:                                                                                                  #        4.  IT IS IMPORTANT TO ANSWER ALL REQUESTS FOR OPERATOR RESPONSE.
000500:                                                                                                  #        5.  IT IS ALWAYS GOOD PRACTICE TO TERMINATE AN EXTENDED VERB BEFORE ASKING FOR ANOTHER ONE OR THE SAME ONE
000501:                                                                                                  #            OVER AGAIN.
000502:
000503:                                                                                                  #  SPECIAL CONSIDERATIONS--


000505:                                                                                                  #        1.  MPAC +2 SAVED ONLY IN MARK DISPLAYS
000506:                                                                                                  #        2.  GODSP(R), REGODSP(R), GOMARK(R) ALWAYS TURN ON THE FLASH IF ENTERED WITH A PASTE VERB REQUEST.
000507:                                                                                                  #        3.  ALL NORMAL DISPLAYS ARE RESTARTABLE EXCEPT GODSP(R), REGODSP(R)
000508:                                                                                                  #        4.  ALL EXTENDED VERBS WITH DISPLAYS SHOULD START WITH A TC TESTXACT AND FINISH WITH A TC ENDEXT.
000509:                                                                                                  #        5.  GODSP(R) AND REGODSP(R) MUST BE IN THE SAME EBANK AND SUPERBANK AS THE LAST NORMAL DISPLAY RESTARTED
000510:                                                                                                  #            BY A .1 RESTART PHASE CHANGE.
000511:                                                                                                  #        6.  IN ORDER TO SET UP A NON DISPLAY .1 RESTART POINT, THE USER MUST MAKE CERTAIN THAT RESTREG CONTAINS THE
000512:                                                                                                  #            CORRECT PRIORITY AND SUPERBANK AND THAT EBANKTEM CONTAINS THE CO
000513:                                                                                                  #        7.  IF CLEANDSP IS RESTARTED VIA A .1 PHASE CHANGE, CAF ZERO SHOULD BE EXECUTED BEFORE THE TC BANKCALL.
000514:


000516:                                                                                                  #  CALLING SEQUENCE FOR BLANKING
000517:                                                                                                  #                CAF     BITX            X=1,2,3 BLANK R1,R2,R3 RESPECTIVELY
000518:                                                                                                  #                TC      BLANKET
000519:                                                                                                  #                ...     ...             RETURN TO USER HERE
000520:                                                                                                  #  IN ORDER TO USE BLANKET CORRECTLY THE USER MUST USE A DISPLAY ROUTINE THAT ENDS IN R FIRST FOLLOWED BY THE CALL
000521:                                                                                                  #  TO BLANKET AT THE IMMEDIATE RETURN LOC.
000522:    5526                                           BLOCK    02
000523:    4000                                           SETLOC   FFTAG4
000524:    4000                                           BANK
000525:
000526:    5526                                           COUNT    02/DSPLA
000527:
000528:    5526           54162        BLANKET            TS       MPAC       +6
000529:    5527           40160                           CS       PLAYTEM4
000530:    5530           70162                           MASK     MPAC       +6
000531:    5531           50161                           INDEX    MPAC       +5
000532:    5532           26160                           ADS      PLAYTEM4
000533:
000534:    5533           00002                           TC       Q
000535:
000536:    5534           04701        ENDMARK            TC       POSTJUMP
000537:    5535           20553                           CADR     MARKEND
000538:
000539:    5536           35021        CLEARMRK           CAF      ZERO
000540:    5537           55044                           TS       EXTVBACT
000541:
000542:    5540           00004                           INHINT
000543:    5541           45017                           CS       BIT1
000544:    5542           70100                           MASK     FLAGWRD4
000545:    5543           54100                           TS       FLAGWRD4
000546:
000547:    5544           00003                           RELINT
000548:    5545           00002                           TC       Q
000549:
000550:                                                                                                  #  *** ALL EXTENDED VERB ROUTINES THAT HAVE AT LEAST ONE FLASHING DISPLAY MUST TCF ENDMARK OR TCF ENDEXT WHEN
000551:                                                                                                  #  FINISHED.
000552:
000553: 10,2553                                           BANK     10
000554: 10,2000                                           SETLOC   DISPLAYS
000555: 10,2000                                           BANK
000556:
000557: 10,2553                                           COUNT    10/DSPLA
000558:
000559:                                                                                                  #  NTERONLY IS USED TO DIFFERENTIATE THE MARK ROUTINE WITH ONLY ONE RETURN TO THE USER FROM THE MARKING ROUTINE WIT
000560:                                                                                                  #  3 RETURNS TO THE USER.  THIS ROUTINE IS ONLY USED BY GOMARK1 AND GOMARK1R.
000561:
000562: 10,2553           05536        MARKEND            TC       CLEARMRK
000563: 10,2554           13643                           TCF      MARKOVER
000564:


000566: 10,2555           54155        GOMARK             TS       PLAYTEM1                              #  ENTRANCE FOR MARK GODSP
000567:
000568: 10,2556           35001        GOMARS             CAF      BIT15                                 #  BIT15 SET FOR ALL MARK REQUESTS
000569: 10,2557           12722                           TCF      GOFLASH2
000570:
000571: 10,2560           35021        KLEENEX            CAF      ZERO                                  #  CLEAN OUT EXTENDED VERBS
000572: 10,2561           54155        GOMARKF            TS       PLAYTEM1                              #  ENTRANCE FOR MARK GOFLASH
000573:
000574: 10,2562           33253                           CAF      MARKFMSK                              #  MARK, FLASH
000575: 10,2563           12722                           TCF      GOFLASH2
000576:
000577: 10,2564           54155        GOMARK2            TS       PLAYTEM1                              #  MARK GOPERFS-3 AST. RETURNS
000578: 10,2565           33742        MARKFORM           CAF      MPERFMSK                              #  MARK, PERFORM, FLASH
000579: 10,2566           12722                           TCF      GOFLASH2
000580:
000581: 10,2567           54155        GOMARK3            TS       PLAYTEM1                              #  USED FOR 3COMP DECIMAL PERFORM
000582: 10,2570           33727                           CAF      MARK3MSK
000583: 10,2571           12722                           TCF      GOFLASH2
000584:
000585: 10,2572           54155        GOMARK4            TS       PLAYTEM1
000586: 10,2573           33730                           CAF      MARK4MSK                              #  MARK,PERFORM,FLASH,BLANK
000587: 10,2574           12722                           TCF      GOFLASH2
000588:
000589: 10,2575           54155        GOMARKR            TS       PLAYTEM1                              #  ENTR+NCE FOR MARK GODSPR
000590:
000591: 10,2576           35001                           CAF      BIT15
000592: 10,2577           12700                           TCF      GODSPR2
000593:
000594: 10,2600           54155        GOMARKFR           TS       PLAYTEM1                              #  ENTRANCE FOR MARK GOFLASHR
000595:
000596: 10,2601           33253                           CAF      MARKFMSK
000597: 10,2602           13061                           TCF      GODSPRS
000598:
000599: 10,2603           54155        GOMARK2R           TS       PLAYTEM1                              #  MARK GOPERFS-3 AST. RETS+ IMMEDIATE RET.
000600: 10,2604           33742                           CAF      MPERFMSK                              #  MARK, PERFORM, FLASH
000601: 10,2605           13061                           TCF      GODSPRS
000602:
000603: 10,2606           54155        GOMARK3R           TS       PLAYTEM1
000604: 10,2607           33727                           CAF      MARK3MSK
000605: 10,2610           13061                           TCF      GODSPRS
000606:
000607: 10,2611           35017        MAKEMARK           CAF      ONE
000608: 10,2612           03157                           TC       COPIES
000609:
000610: 10,2613           30100                           CA       FLAGWRD4                              #  IS NORM OR PRIO BUSY OR WAITING
000611: 10,2614           73743                           MASK     OCT34300
000612: 10,2615           10000                           CCS      A
000613: 10,2616           12654                           TCF      CHKPRIO
000614:
000615: 10,2617           30100                           CA       FLAGWRD4                              #  IS MARK SLEEPING DUE TO ASTRO BUSY


000617: 10,2620           75007                           MASK     BIT9
000618:
000619: 10,2621           00006                           EXTEND
000620: 10,2622           12624                           BZF      MARKPLAY                              #  NO
000621:
000622: 10,2623           15217                           TCF      ENDOFJOB
000623:
000624: 10,2624           00004        MARKPLAY           INHINT
000625: 10,2625           45022                           CS       FIVE                                  #  RESET MARK OVER NORM, SET MARK
000626: 10,2626           70100                           MASK     FLAGWRD4
000627: 10,2627           65017                           AD       ONE
000628: 10,2630           54100                           TS       FLAGWRD4
000629: 10,2631           00003                           RELINT
000630:
000631: 10,2632           41070        GOGOMARK           CS       MARKFLAG                              #  PERFORM
000632: 10,2633           75013                           MASK     BIT5
000633: 10,2634           10000                           CCS      A
000634: 10,2635           12640                           TCF      MARKCOP
000635: 10,2636           40370                           CS       MARKNV
000636: 10,2637           54370                           TS       MARKNV
000637:
000638: 10,2640           35017        MARKCOP            CAF      ONE                                   #  MARK INDEX
000639: 10,2641           13040                           TCF      PRIOPLAY
000640:
000641: 10,2642           30165        COPYTOGO           CA       MPAC2SAV
000642: 10,2643           54156                           TS       MPAC       +2
000643:
000644: 10,2644           50164        COPYPACS           INDEX    COPINDEX
000645: 10,2645           33753                           CAF      PRIOOCT
000646: 10,2646           54162                           TS       GENMASK
000647:
000648: 10,2647           50164                           INDEX    COPINDEX


000650: 10,2650           31067                           CA       EBANKSAV
000651: 10,2651           54160                           TS       TEMPOR2                               #  ACTIVE EBANK AND FLAG
000652:
000653: 10,2652           54003                           TS       EBANK
000654:
000655: 10,2653           00002                           TC       Q
000656:
000657:                                                                                                  #  PINCHEK CHECKS TO SEE IF THE CURRENT MARK REQUEST IS MADE BY THE ASTRONAUT WHILE INTERRUPTING A GOPLAY DISPLAY
000658:                                                                                                  #  (A NORMAL OR A PRIO).  IF THE ASTRONAUT TRIES TO MARK DURING A PRIO, THE CHECK FAIL LIGHT GOES ON AND THE MARK
000659:                                                                                                  #  REQUEST IS ENDED.  IF HE TRIES TO MARK DURING A NORM, THE MARK IS ALLOWED.  IN THIS CASE THE NORM IS PUT TO SLEEP
000660:                                                                                                  #  UNTIL ALL MARKING IS FINISHED.
000661:
000662:                                                                                                  #  IF THE MARK REQUEST COMES FROM THE PROGRAM DURING A TIME THE ASTRONAUT IS NOT INTERRUPTING A NORMAL OR A
000663:                                                                                                  #  PRIO, THE MARK REQUEST IS PUT TO SLEEP UNTIL THE +RESENT ACTIVE DISPLAY IS RESPONDED TO BY THE ASTRONAUT.
000664:
000665: 10,2654           30100        CHKPRIO            CA       FLAGWRD4                              #  MARK ATTEMPT DURING PRIO
000666: 10,2655           73476                           MASK     OCT24100
000667: 10,2656           10000                           CCS      A
000668: 10,2657           13676                           TCF      MARSLEEP
000669:


000671: 10,2660           40100                           CS       FLAGWRD4
000672: 10,2661           75015                           MASK     BIT3                                  #  SET MARK OVER NORM
000673: 10,2662           00004                           INHINT
000674: 10,2663           26100                           ADS      FLAGWRD4
000675:
000676: 10,2664           12756                           TCF      SETNORM
000677:
000678: 10,2665           30370        MARKPERF           CA       MARKNV
000679: 10,2666           74160                           MASK     VERBMASK
000680: 10,2667           13342                           TCF      NV50DSP
000681:
000682: 10,2670           54155        GODSP              TS       PLAYTEM1
000683:
000684: 10,2671           35021        GODSP2             CAF      ZERO
000685: 10,2672           12722                           TCF      GOFLASH2
000686:
000687: 10,2673           54155        GODSPRET           TS       PLAYTEM1                              #  ENTRANCE FOR A GODSP WITH A PASTE
000688:
000689: 10,2674           35012                           CAF      BIT6                                  #  SET BIT6 TO GO BACK TO USER AFTER NVSUB
000690: 10,2675           12722                           TCF      GOFLASH2
000691:
000692: 10,2676           54155        GODSPR             TS       PLAYTEM1
000693:
000694: 10,2677           35021        GODSPR1            CAF      ZERO
000695: 10,2700           54160        GODSPR2            TS       PLAYTEM4
000696:
000697: 10,2701           35021                           CAF      ZERO                                  #  * DONT MOVE
000698: 10,2702           13063                           TCF      GODSPRS1
000699:
000700:                                                                                                  #  CLEANDSP IS USED FOR CLEARING OUT A NORMAL DISPLAY THAT IS PRESENTLY ACTIVE OR A NORMAL DISPLAY THAT IS
000701:                                                                                                  #  SET UP TO BE STARTED OR RESTARTED.
000702:
000703:                                                                                                  #  NORMALLY THE USER WILL NOT NEED TO USE THIS ROUTINE SINCE A NEW NORMAL DISPLAY AUTOMATICALLY CLEARS OUT AN
000704:                                                                                                  #  OLD DISPLAY.
000705:
000706:                                                                                                  #  CALLING SEQUENCE FOR CLEANDSP -
000707:
000708:                                                                                                  #                TC      BANKCALL
000709:                                                                                                  #                CADR    CLEANDSP
000710:
000711: 10,2703           35021        CLEANDSP           CAF      ZERO
000712: 10,2704           54155        REFLASH            TS       PLAYTEM1
000713:
000714: 10,2705           33726                           CAF      REDOMASK                              #  FLASH AND PERMIT
000715: 10,2706           12722                           TCF      GOFLASH2
000716:
000717: 10,2707           54155        REGODSP            TS       PLAYTEM1
000718:
000719: 10,2710           35002                           CAF      BIT14
000720: 10,2711           12722                           TCF      GOFLASH2
000721:


000723:
000724: 10,2712           54155        REGODSPR           TS       PLAYTEM1
000725: 10,2713           35002                           CAF      BIT14
000726: 10,2714           12700                           TCF      GODSPR2
000727:
000728: 10,2715           54155        CLOCPLAY           TS       PLAYTEM1
000729: 10,2716           33765                           CAF      CLOCKCON
000730: 10,2717           12722                           TCF      GOFLASH2
000731: 10,2720           54155        GOFLASH            TS       PLAYTEM1
000732:
000733: 10,2721           35014                           CAF      BIT4                                  #  LEAVE ONLY FLASH BIT SET
000734: 10,2722           54160        GOFLASH2           TS       PLAYTEM4
000735:
000736: 10,2723           03144                           TC       SAVELOCS
000737:
000738: 10,2724           00003                           RELINT
000739:
000740: 10,2725           12770                           TCF      MAKEPLAY                              #  BRANCH DIRECT WITH NO SEPARATE JOB CALL
000741:
000742: 10,2726           54155        PRIODSPR           TS       PLAYTEM1
000743:
000744: 10,2727           33745                           CAF      BITS7+4
000745: 10,2730           13061                           TCF      GODSPRS
000746:
000747: 10,2731           54155        PRIODSP            TS       PLAYTEM1
000748:
000749: 10,2732           33745        SETPRIO            CAF      BITS7+4
000750: 10,2733           12722                           TCF      GOFLASH2
000751:
000752: 10,2734           35021        MAKEPRIO           CAF      ZERO
000753: 10,2735           54164                           TS       COPINDEX
000754:
000755: 10,2736           03616                           TC       LINUSCHR
000756: 10,2737           12744                           TCF      HIPRIO                                #  LINUS RETURN
000757: 10,2740           30100                           CA       FLAGWRD4
000758: 10,2741           73764                           MASK     OCT20100                              #  IS PRIO IN ENDIDLE OR BUSY
000759: 10,2742           10000                           CCS      A
000760: 10,2743           13017                           TCF      PRIOBORT                              #  YES, ABORT
000761:
000762: 10,2744           30100        HIPRIO             CA       FLAGWRD4                              #  MARK ACTIVE
000763: 10,2745           77765                           MASK     OCT40400
000764: 10,2746           00006                           EXTEND
000765: 10,2747           12752                           BZF      ASKIFNRM                              #  NO
000766:
000767: 10,2750           35021        SETMARK            CAF      ZERO
000768: 10,2751           13216                           TCF      JOBXCHS
000769:
000770: 10,2752           30100        ASKIFNRM           CA       FLAGWRD4                              #  NORMAL ACTIVE
000771: 10,2753           73762                           MASK     OCT10200                              #  BITS 13+8
000772: 10,2754           00006                           EXTEND


000774: 10,2755           12760                           BZF      OKTOCOPY                              #  NO
000775:
000776: 10,2756           35017        SETNORM            CAF      ONE
000777: 10,2757           13216                           TCF      JOBXCHS
000778:
000779: 10,2760           03156        OKTOCOPY           TC       COPYNORM
000780: 10,2761           03427                           TC       WITCHONE
000781:
000782: 10,2762           05201                           TC       JOBWAKE
000783:
000784: 10,2763           03444                           TC       XCHTOEND
000785:
000786: 10,2764           30025        REDOPRIO           CA       TIME1                                 #  SAVE TIME PRIODSP SENT OUT
000787: 10,2765           55147                           TS       PRIOTIME
000788:
000789: 10,2766           35021        KEEPPRIO           CAF      ZERO                                  #  START UP PRIO DISPLAY
000790: 10,2767           13040                           TCF      PRIOPLAY
000791:
000792: 10,2770           30167        MAKEPLAY           CA       PRIORITY                              #  SAVE USERS PRIORITY
000793: 10,2771           77674                           MASK     PRIO37
000794: 10,2772           54163                           TS       USERPRIO
000795:
000796: 10,2773           37670                           CAF      PRIO33                                #  RAISE PRIORITY FOR FAST JOBS AFTER WAKE
000797: 10,2774           05210                           TC       PRIOCHNG
000798:
000799: 10,2775           30160                           CA       PLAYTEM4                              #  IS IT MARK OR PRIO OR NORM
000800: 10,2776           73744                           MASK     BITS15+7
000801: 10,2777           10000                           CCS      A
000802: 10,3000           12734                           TCF      MAKEPRIO                              #  ITS PRIO
000803: 10,3001           13003                           TCF      IFLEGAL
000804: 10,3002           12611                           TCF      MAKEMARK                              #  ITS MARK
000805:
000806: 10,3003           35016        IFLEGAL            CAF      TWO
000807: 10,3004           54164                           TS       COPINDEX
000808:
000809: 10,3005           03616                           TC       LINUSCHR
000810:
000811: 10,3006           13021                           TCF      OKTOPLAY                              #  LINUS RETURN
000812: 10,3007           41071                           CS       EBANKTEM
000813: 10,3010           75014                           MASK     BIT4
000814: 10,3011           10000                           CCS      A
000815: 10,3012           13021                           TCF      OKTOPLAY                              #  NO
000816:
000817: 10,3013           30100                           CA       FLAGWRD4                              #  WAS NORM ASLEEP
000818: 10,3014           73735                           MASK     NBUSMASK                              #  ARE ANY NORMS ASLEEP
000819: 10,3015           00006                           EXTEND
000820: 10,3016           13021                           BZF      OKTOPLAY                              #  NO
000821:
000822: 10,3017           05721        PRIOBORT           TC       POODOO
000823: 10,3020           01502                           OCT      1502


000825:
000826: 10,3021           03160        OKTOPLAY           TC       COPIES2
000827:
000828: 10,3022           30163                           CA       USERPRIO
000829: 10,3023           00006                           EXTEND
000830: 10,3024           04007                           ROR      SUPERBNK
000831: 10,3025           54366                           TS       RESTREG
000832:
000833: 10,3026           30100                           CA       FLAGWRD4                              #  PRIO OR MARK GOING
000834: 10,3027           73736                           MASK     PMMASK
000835: 10,3030           10000                           CCS      A
000836: 10,3031           13176                           TCF      GOSLEEPS                              #  YES
000837:
000838: 10,3032           13034                           TCF      +2
000839: 10,3033           13176                           TCF      GOSLEEPS                              #  MARK GOING
000840:
000841:                                                                                                  #  COULD PUT NORM BUSY CHECK HERE TO SAVE TIME
000842:
000843: 10,3034           03427                           TC       WITCHONE                              #  IS IT NVSUB BUSY, ENDIDLE OR NOONE
000844: 10,3035           05201                           TC       JOBWAKE
000845:
000846: 10,3036           03444                           TC       XCHTOEND
000847:
000848: 10,3037           35016        PLAYJUM1           CAF      TWO
000849: 10,3040           54164        PRIOPLAY           TS       COPINDEX
000850:
000851: 10,3041           13312                           TCF      GOPLAY
000852:
000853: 10,3042           54155        EXDSPRET           TS       PLAYTEM1
000854:
000855: 10,3043           37703                           CAF      BIT15+6
000856: 10,3044           12722                           TCF      GOFLASH2
000857:
000858: 10,3045           55045        GOPERF1            TS       NORMTEM1                              #  STORE DESIRED CHECKLIST VALUE
000859: 10,3046           33720                           CAF      V01N25                                #  USED TO DISPLAY CHECKLIST VALUE IN R1
000860:
000861: 10,3047           54155        GOPERFS            TS       PLAYTEM1
000862:
000863: 10,3050           33717                           CAF      PERFMASK                              #  LEAVE ONLY FLASH, PERFORM, BLANKING
000864: 10,3051           12722                           TCF      GOFLASH2
000865:
000866: 10,3052           54155        GOPERF2            TS       PLAYTEM1                              #  DESIRED VERB-NOUN TO DISPLAY R1,R2,R3
000867:
000868: 10,3053           33723                           CAF      PERF2MSK
000869: 10,3054           12722                           TCF      GOFLASH2
000870:
000871: 10,3055           03137        GOPERF4            TC       PURRS4
000872:
000873: 10,3056           12722                           TCF      GOFLASH2
000874:
000875: 10,3057           54155        GOFLASHR           TS       PLAYTEM1


000877: 10,3060           35014                           CAF      BIT4                                  #  LEAVE ONLY FLASH BIT SET
000878: 10,3061           54160        GODSPRS            TS       PLAYTEM4
000879:
000880: 10,3062           36214                           CAF      THREE
000881:
000882: 10,3063           00004        GODSPRS1           INHINT                                         #  IMMEDIATE RETURN IS CALL CADR +4
000883: 10,3064           54072                           TS       RUPTREG3
000884:
000885: 10,3065           30167                           CA       PRIORITY                              #  MAKE DISPLAY ONE HIGHER THAN USER
000886: 10,3066           77674                           MASK     PRIO37
000887: 10,3067           54063                           TS       NEWPRIO
000888:
000889: 10,3070           30160                           CA       PLAYTEM4                              #  IS THIS A FLASHING R DISPLAY
000890: 10,3071           75014                           MASK     BIT4
000891: 10,3072           10000                           CCS      A
000892: 10,3073           13101                           TCF      VACDSP                                #  YES, MAKE DSPLAY JOB A VAC
000893: 10,3074           30063                           CA       NEWPRIO                               #  NO, MAKE DSPLAY JOB A NOVAC
000894: 10,3075           05134                           TC       NOVAC
000895: 10,3076  E7,1777                                  EBANK=   WHOCARES
000896: 10,3076           02770 20067                     2CADR    MAKEPLAY
000897:
000898: 10,3100           13107                           TCF      BOTHJOBS
000899:
000900: 10,3101           30006        VACDSP             CA       BBANK
000901: 10,3102           00006                           EXTEND
000902: 10,3103           04007                           ROR      SUPERBNK
000903: 10,3104           54001                           TS       L
000904: 10,3105           33761                           CAF      MAKEGEN
000905: 10,3106           05160                           TC       SPVAC
000906:
000907: 10,3107           03144        BOTHJOBS           TC       SAVELOCS                              #  COPY TEMPS INTO PERMANENT REGISTERS
000908:
000909: 10,3110           00006                           EXTEND                                         #  SAVE NVWORD AND USERS MPAC +2
000910: 10,3111           30156                           DCA      MPAC       +1
000911: 10,3112           50064                           INDEX    LOCCTR
000912: 10,3113           52156                           DXCH     MPAC       +1
000913:
000914: 10,3114           00006                           EXTEND                                         #  SAVE USERS CADR, FLAGS AND EBANK
000915: 10,3115           30160                           DCA      MPAC       +3
000916: 10,3116           50064                           INDEX    LOCCTR
000917: 10,3117           52160                           DXCH     MPAC       +3
000918:
000919: 10,3120           30064                           CA       LOCCTR
000920: 10,3121           54161                           TS       MPAC       +5
000921: 10,3122           03151                           TC       SAVELOCR
000922: 10,3123           00003                           RELINT
000923: 10,3124           14704                           TCF      BANKJUMP                              #  CALL CADR +4
000924:


000926: 10,3125           55045        GOPERF1R           TS       NORMTEM1                              #  DESIRED CHECKLIST VALUE
000927:
000928: 10,3126           33720                           CAF      V01N25                                #  DISPLAYS CHECKLIST VALUE IN R1
000929:
000930: 10,3127           54155        GOPERFRS           TS       PLAYTEM1
000931:
000932: 10,3130           33717                           CAF      PERFMASK                              #  LEAVE ONLY FLASH, PERFORM, BLANKING
000933: 10,3131           13061                           TCF      GODSPRS
000934:
000935: 10,3132           54155        GOPERF2R           TS       PLAYTEM1                              #  DESIRED VERB-NOUN TO DISPLAY R1,R2,R3
000936:
000937: 10,3133           33723                           CAF      PERF2MSK
000938: 10,3134           13061                           TCF      GODSPRS
000939:
000940: 10,3135           03137        GOPERF4R           TC       PURRS4
000941:
000942: 10,3136           13061                           TCF      GODSPRS
000943:
000944: 10,3137           55131        PURRS4             TS       OPTION1                               #  DESIRED OPTION CODE
000945:
000946: 10,3140           33724                           CAF      V04N06
000947: 10,3141           54155                           TS       PLAYTEM1
000948:
000949: 10,3142           33725                           CAF      PERF4MSK                              #  FLASH, PERFORM AND BLANK R3
000950: 10,3143           00002                           TC       Q
000951:
000952: 10,3144           00004        SAVELOCS           INHINT
000953:
000954: 10,3145           43734                           CS       OCT3400                               #  EBANK BITS
000955: 10,3146           70160                           MASK     PLAYTEM4
000956: 10,3147           60003                           AD       EBANK
000957: 10,3150           54160                           TS       PLAYTEM4
000958:
000959: 10,3151           22002        SAVELOCR           LXCH     Q
000960:
000961: 10,3152           04711                           TC       MAKECADR
000962: 10,3153           54157                           TS       PLAYTEM3
000963:
000964: 10,3154           60072                           AD       RUPTREG3                              #  NOT USED FOR NON R ROUTINES
000965: 10,3155           00001                           TC       L
000966:
000967: 10,3156           35021        COPYNORM           CAF      ZERO
000968: 10,3157           54164        COPIES             TS       COPINDEX
000969: 10,3160           00004        COPIES2            INHINT
000970: 10,3161           30160                           CA       PLAYTEM4                              #  FLAGWORD
000971:
000972: 10,3162           50164                           INDEX    COPINDEX
000973: 10,3163           55067                           TS       EBANKSAV                              #  EQUIV TO DSPFLG
000974: 10,3164           73752                           MASK     CADRMASK                              #  FLASH AND GODSPRET
000975: 10,3165           00006                           EXTEND


000977: 10,3166           13172                           BZF      SKIPADD
000978:
000979: 10,3167           30157                           CA       PLAYTEM3
000980: 10,3170           50164                           INDEX    COPINDEX
000981: 10,3171           54372                           TS       CADRFLSH
000982:
000983: 10,3172           30155        SKIPADD            CA       PLAYTEM1                              #  VERB NOUN
000984: 10,3173           50164                           INDEX    COPINDEX
000985: 10,3174           54367                           TS       NVWORD
000986:
000987: 10,3175           13453                           TCF      RELINTQ
000988:
000989: 10,3176           50164        GOSLEEPS           INDEX    COPINDEX
000990: 10,3177           33753                           CA       PRIOOCT
000991: 10,3200           73202                           MASK     WAITMASK
000992: 10,3201           07722                           TC       UPENT2
000993: 10,3202           03004        WAITMASK           OCT      3004
000994: 10,3203           45017                           CS       ONE
000995: 10,3204           60164                           AD       COPINDEX
000996: 10,3205           54154                           TS       FACEREG
000997:
000998: 10,3206           50154        XCHSLEEP           INDEX    FACEREG
000999: 10,3207           33732                           CAF      WAKECADR
001000: 10,3210           00004                           INHINT
001001: 10,3211           05201                           TC       JOBWAKE                               #  FIND CADR IN JOB AREA
001002:
001003: 10,3212           03444                           TC       XCHTOEND                              #  CAUSES AWAKENED JOB TO GO TO ENDOFJOB
001004:
001005: 10,3213           50154                           INDEX    FACEREG                               #  REPLACE SAME CADR BUT NEW JOB AREA
001006: 10,3214           33732                           CAF      WAKECADR
001007: 10,3215           15175                           TCF      JOBSLEEP
001008:
001009: 10,3216           54154        JOBXCHS            TS       FACEREG                               #  CONTROLS TYPE OF DISPLAY PUT TO SLEEP
001010: 10,3217           03427                           TC       WITCHONE
001011: 10,3220           05201                           TC       JOBWAKE
001012: 10,3221           30154                           CA       FACEREG
001013: 10,3222           50064                           INDEX    LOCCTR
001014: 10,3223           54154                           TS       FACEREG
001015:
001016: 10,3224           33237                           CAF      XCHQADD
001017: 10,3225           03445                           TC       XCHNYLOC
001018:
001019: 10,3226           50154                           INDEX    FACEREG
001020: 10,3227           33754                           CA       MARKOCT
001021: 10,3230           73756                           MASK     IDLESLEP
001022:
001023: 10,3231           07740                           TC       DOWNENT2
001024: 10,3232           74004        IDLEMASK           OCT      74004                                 #  * DONT MOVE
001025: 10,3233           50154                           INDEX    FACEREG                               #  BIT SHOWS PRIO INTERRUPTED NORM OR MARK
001026: 10,3234           35013                           CA       BIT5                                  #  BIT5 FOR MARK, BIT4 FOR NORMAL


001028: 10,3235           65015                           AD       FOUR
001029: 10,3236           07722                           TC       UPENT2                                #  FLAG ROUTINE DOES RELINT
001030: 10,3237           03206        XCHQADD            GENADR   XCHSLEEP                              #  * DONT MOVE
001031: 10,3240           30100                           CA       FLAGWRD4
001032: 10,3241           75015                           MASK     BIT3                                  #  IF BIT3 THEN MARK OVER NORM
001033: 10,3242           10000                           CCS      A
001034: 10,3243           02624        GENMARK            TC       MARKPLAY                              #  USED AS GENADR FOR JOBWAKE
001035: 10,3244           12760                           TCF      OKTOCOPY
001036:
001037: 10,3245           35021        MARKWAKE           CAF      ZERO
001038: 10,3246           54160        WAKEPLAY           TS       TEMPOR2
001039:
001040: 10,3247           50160                           INDEX    TEMPOR2
001041: 10,3250           33746                           CA       BITS5+11
001042: 10,3251           65015                           AD       FOUR
001043: 10,3252           07740                           TC       DOWNENT2
001044: 10,3253           40010        MARKFMSK           OCT      40010                                 #  *** DONT MOVE
001045:
001046: 10,3254           50160                           INDEX    TEMPOR2
001047: 10,3255           33732                           CAF      WAKECADR
001048: 10,3256           00004                           INHINT
001049: 10,3257           05201                           TC       JOBWAKE
001050:
001051: 10,3260           13557                           TCF      ENDRET
001052:
001053:                                                                                                  #  ALL .1 RESTARTS BRANCH DIRECTLY TO INITDSP.  NORMAL DISPLAYS ARE THE ONLY DISPLAYS ALLOWED TO USE .1 RESTARTS
001054:                                                                                                  #  INITDSP FIRST RESTORES THE EBANK AND THE SUPERBANK TO THE MOST RECENT NORMAL EBANK AND SUPERBANK.
001055:
001056:                                                                                                  #  IF THE MOST RECENT NORMAL DISPLAY REQUEST WAS NOT FINISHED, CONTROL IS SENT BACK TO THE LAST NORMAL USER.
001057:                                                                                                  #  OTHERWISE THE NORMAL DISPLAY SET UP IN THE NORMAL DISPLAY REGS IS STARTED UP IMMEDIATELY.
001058:
001059: 10,3261           31071        INITDSP            CA       EBANKTEM                              #  RESTORE MOST RECECT NORMAL EBANK
001060: 10,3262           54003                           TS       EBANK
001061:
001062: 10,3263           30366                           CA       RESTREG                               #  SUPERBANK AND JOB PRIORITY
001063: 10,3264           04773                           TC       SUPERSW                               #  RESTORE SUPERBANK
001064:
001065: 10,3265           77674                           MASK     PRIO37
001066: 10,3266           05210                           TC       PRIOCHNG
001067:
001068: 10,3267           46214                           CS       THREE
001069: 10,3270           60374                           AD       TEMPFLSH
001070: 10,3271           14704                           TCF      BANKJUMP
001071:
001072: 10,3272           00003        PINBRNCH           RELINT                                         #  FOR GOPIN USERS
001073: 10,3273           31072                           CA       MARK2PAC                              #  NEEDED TO SAVE MPAC +2 FOR MARK USERS
001074: 10,3274           54156                           TS       MPAC       +2                         #  ONLY
001075:
001076: 10,3275           30100                           CA       FLAGWRD4                              #  PINBRANCH CONDITION
001077: 10,3276           77707                           MASK     PINMASK
001078: 10,3277           10000                           CCS      A


001080: 10,3300           13303                           TCF      +3
001081: 10,3301           13713                           TCF      ERASER                                #  ** NOTHING IN ENDIDLE
001082: 10,3302           12624                           TCF      MARKPLAY
001083:
001084: 10,3303           05546        NORMBNCH           TC       UPFLAG                                #  SET PINBRANCH BIT
001085: 10,3304           00105                           ADRES    PINBRFLG
001086:
001087: 10,3305           35002                           CAF      BIT14                                 #  PRIO INTERRUPTED
001088: 10,3306           70100                           MASK     FLAGWRD4
001089: 10,3307           10000                           CCS      A
001090: 10,3310           12766                           TCF      KEEPPRIO
001091:
001092: 10,3311           13037                           TCF      PLAYJUM1
001093:
001094: 10,3312           02644        NVDSP              TC       COPYPACS
001095:
001096: 10,3313           30160                           CA       TEMPOR2                               #  SET UP BLANK BITS FOR NVMONOPT IN CASE
001097: 10,3314           75023                           MASK     SEVEN                                 #  USER REQUESTS BLANKING MONITOR
001098: 10,3315           54001                           TS       L
001099:
001100: 10,3316           45003                           CS       BIT13
001101: 10,3317           50164                           INDEX    COPINDEX
001102: 10,3320           71067                           MASK     DSPFLG
001103: 10,3321           50164                           INDEX    COPINDEX
001104: 10,3322           55067                           TS       DSPFLG
001105:
001106: 10,3323           75010                           MASK     BIT8                                  #  BIT8 SET IF DEC MARK PERFORM DISPLAY
001107: 10,3324           54141                           TS       TEM1
001108:
001109: 10,3325           30156                           CA       MPAC       +2
001110: 10,3326           54165                           TS       MPAC2SAV
001111:
001112: 10,3327           55072                           TS       MARK2PAC                              #  * FOR DISK ONLY *
001113: 10,3330           50164                           INDEX    COPINDEX
001114: 10,3331           10367                           CCS      NVWORD
001115: 10,3332           13341                           TCF      NVDSP1
001116: 10,3333           13455                           TCF      CLEANEND
001117: 10,3334           40370                           CS       MARKNV
001118: 10,3335           54370                           TS       MARKNV                                #  IN CASE MARKPLAY AWAKENED AFTER SLEEPING
001119: 10,3336           76043                           MASK     LOW7
001120: 10,3337           63737                           AD       V05N00M1
001121: 10,3340           60141                           AD       TEM1
001122: 10,3341           65017        NVDSP1             AD       ONE
001123: 10,3342           04171        NV50DSP            TC       NVMONOPT
001124: 10,3343           13467                           TCF      REST                                  #  IF BUSY
001125:
001126: 10,3344           04447                           TC       FLASHOFF                              #  IN CASE OF EXTENDED VERB NON FLASH
001127:
001128: 10,3345           02642                           TC       COPYTOGO                              #  MPACS DESTROYED BY NVSUB
001129: 10,3346           05560                           TC       DOWNFLAG                              #  UNSET SLEEPING BITS
001130: 10,3347           00102                           ADRES    MRKNVFLG


001132: 10,3350           05560                           TC       DOWNFLAG
001133: 10,3351           00103                           ADRES    NRMNVFLG
001134: 10,3352           05560                           TC       DOWNFLAG
001135: 10,3353           00104                           ADRES    PRONVFLG
001136: 10,3354           30160        BLANKCHK           CA       TEMPOR2                               #  BLANK BITS 1,2,3 IF SET
001137: 10,3355           04271                           TC       BLANKSUB
001138: 10,3356           13312                           TCF      NVDSP
001139: 10,3357           35013        PERFCHEK           CAF      BIT5                                  #  BIT 5 FOR PERFORM
001140: 10,3360           70160                           MASK     TEMPOR2
001141: 10,3361           10000                           CCS      A                                     #  IS THIS A GOPERF DISPLAY
001142: 10,3362           13405                           TCF      1STOR2ND                              #  YES
001143:
001144: 10,3363           35014        GOANIDLE           CAF      BIT4
001145: 10,3364           70160                           MASK     TEMPOR2
001146: 10,3365           10000                           CCS      A
001147: 10,3366           13502                           TCF      FLASHSUB                              #  IT IS
001148:
001149: 10,3367           40160                           CS       TEMPOR2                               #  IS THIS A GODSPRET
001150: 10,3370           75012                           MASK     BIT6
001151: 10,3371           10000                           CCS      A
001152: 10,3372           13377                           TCF      ISITN00
001153:
001154: 10,3373           50164                           INDEX    COPINDEX
001155: 10,3374           30372                           CA       CADRFLSH
001156: 10,3375           54157                           TS       MPAC       +3
001157: 10,3376           13575                           TCF      ENDIT
001158:
001159: 10,3377           50164        ISITN00            INDEX    COPINDEX                              #  IS THIS A PASTE
001160: 10,3400           30367                           CA       NVWORD
001161: 10,3401           76043                           MASK     LOW7                                  #  CHECK MADE FOR PINBRNCH AND PRIO ON MARK
001162: 10,3402           00006                           EXTEND
001163: 10,3403           13502                           BZF      FLASHSUB                              #  YES, ASSUME PASTE ALWAYS ON FLASH
001164:
001165: 10,3404           15217                           TCF      ENDOFJOB                              #  NOT FLASH, NOT GOPERF, THERFORE EXIT
001166:
001167: 10,3405           30160        1STOR2ND           CA       TEMPOR2
001168: 10,3406           75003                           MASK     BIT13
001169: 10,3407           10000                           CCS      A
001170: 10,3410           13363                           TCF      GOANIDLE                              #  SECOND
001171:
001172: 10,3411           35003                           CA       BIT13
001173: 10,3412           50164                           INDEX    COPINDEX
001174: 10,3413           27067                           ADS      DSPFLG
001175:
001176: 10,3414           22007                           ZL
001177: 10,3415           00006                           EXTEND                                         #  IS IT MARK
001178: 10,3416           62665                           BZMF     MARKPERF                              #  YES
001179: 10,3417           75004                           MASK     BIT12
001180: 10,3420           00006                           EXTEND


001182: 10,3421           13425                           BZF      V50PASTE
001183: 10,3422           41145                           CS       NVWORD1                               #  NVOWRD1= -0 IS V97.  NVWORD1= -400 IS V99
001184: 10,3423           63763                           AD       V97N00
001185: 10,3424           13342                           TCF      NV50DSP
001186: 10,3425           33722        V50PASTE           CAF      V50N00
001187: 10,3426           13342                           TCF      NV50DSP                               #  DISPLAY SECOND PART OF GOPERF
001188:
001189: 10,3427           45013        WITCHONE           CS       BIT5                                  #  TURN OFF KEY RELEASE LIGHT
001190: 10,3430           00006                           EXTEND
001191: 10,3431           03011                           WAND     DSALMOUT
001192:
001193: 10,3432           30100                           CA       FLAGWRD4
001194: 10,3433           73740                           MASK     NVBUSMSK                              #  IS IT NVSUB ASLEEP
001195: 10,3434           10000                           CCS      A
001196: 10,3435           35017                           CAF      ONE
001197: 10,3436           54001                           TS       L
001198: 10,3437           35021                           CAF      ZERO
001199: 10,3440           50001                           INDEX    L
001200: 10,3441           57042                           XCH      CADRSTOR
001201:
001202: 10,3442           00004                           INHINT
001203: 10,3443           00002                           TC       Q
001204:
001205: 10,3444           34233        XCHTOEND           CAF      ENDINST                               #  TC ENDOFJOB REPLACES GENADR IN LOC FOR
001206: 10,3445           56064        XCHNYLOC           XCH      LOCCTR                                #  WAS THIS ADDRESS SLEEPING
001207: 10,3446           00006                           EXTEND
001208: 10,3447           63453                           BZMF     RELINTQ                               #  NO
001209: 10,3450           56064                           XCH      LOCCTR                                #  YES
001210: 10,3451           50064                           INDEX    LOCCTR
001211: 10,3452           54164                           TS       LOC
001212:
001213: 10,3453           00003        RELINTQ            RELINT
001214: 10,3454           00002                           TC       Q                                     #  BACK TO USER
001215:
001216: 10,3455           37667        CLEANEND           CAF      PRIO32                                #  ONE LOWER THAN DISPLAYS SLEEPING
001217: 10,3456           05147                           TC       FINDVAC
001218: 10,3457     0371                                  EBANK=   NVSAVE
001219: 10,3457           04245 04060                     2CADR    JAMTERM
001220:
001221: 10,3461           13503                           TCF      FLASHSUB   +1
001222:
001223: 10,3462           30100        ISITPRIO           CA       FLAGWRD4
001224: 10,3463           73510                           MASK     ITISMASK                              #  IS PINBRFLG, MARKIDFLG SET
001225: 10,3464           00006                           EXTEND
001226: 10,3465           13017                           BZF      PRIOBORT
001227: 10,3466           15217                           TCF      ENDOFJOB
001228: 10,3467           11042        REST               CCS      CADRSTOR                              #  IS SOMEONE IN ENDIDLE
001229: 10,3470           15217                           TCF      ENDOFJOB                              #  YES


001231: 10,3471           13473                           TCF      RESTSLEP
001232:
001233: 10,3472           15217                           TCF      ENDOFJOB
001234:
001235: 10,3473           30162        RESTSLEP           CA       GENMASK                               #  SET NVSLEEP BITS
001236: 10,3474           73741                           MASK     ASTROMSK
001237: 10,3475           07722                           TC       UPENT2
001238: 10,3476           24100        OCT24100           OCT      24100                                 #  *** DONT MOVE
001239:
001240: 10,3477           50164                           INDEX    COPINDEX
001241: 10,3500           33731                           CAF      NVCADR
001242: 10,3501           04456                           TC       NVSUBUSY                              #  BUSY OR ABORT IF ILLEGAL
001243:
001244: 10,3502           04443        FLASHSUB           TC       FLASHON
001245:
001246: 10,3503           30164                           CA       COPINDEX                              #  COPINDEX DESTROYED BY ENDIDLE
001247: 10,3504           54157                           TS       COPMPAC
001248:
001249: 10,3505           30162                           CA       GENMASK
001250: 10,3506           73232                           MASK     IDLEMASK
001251: 10,3507           07722                           TC       UPENT2
001252: 10,3510           40040        ITISMASK           OCT      40040                                 #  *** ENDIDLE ALLOW *** DONT MOVE
001253:
001254: 10,3511           31073                           CA       R1SAVE                                #  IS THIS A REPEAT AND RETURN DISPLAY
001255: 10,3512           50164                           INDEX    COPINDEX
001256: 10,3513           75015                           MASK     BIT3
001257: 10,3514           10000                           CCS      A
001258: 10,3515           13602                           TCF      UNSETR1                               #  YES
001259:
001260: 10,3516           11042                           CCS      CADRSTOR                              #  SEE IF SOMEONE ALREADY IN ENDIDLE
001261: 10,3517           13462                           TCF      ISITPRIO
001262: 10,3520           13522                           TCF      +2
001263: 10,3521           13462                           TCF      ISITPRIO
001264:
001265: 10,3522           04223                           TC       ENDIDLE
001266: 10,3523           13614        IDLERET1           TCF      TERMATE
001267:
001268: 10,3524           13633                           TCF      PROCEED                               #  ENDIDLE RETURNS HERE ON PROCEED
001269:
001270: 10,3525           43750                           CS       LOWLOAD
001271: 10,3526           60154                           AD       MPAC                                  #  VERBREG
001272: 10,3527           00006                           EXTEND
001273: 10,3530           26000                           DIM      A
001274: 10,3531           00006                           EXTEND
001275: 10,3532           13703                           BZF      LOADITIS                              #  V21 OR V22 OR V23 ON DSKY
001276:
001277: 10,3533           35016        OKTOENT            CAF      TWO
001278: 10,3534           54161        ENDOUT             TS       OUTHERE
001279: 10,3535           30100                           CA       FLAGWRD4                              #  CHECK NATURE OF ENDIDLE RETURN
001280: 10,3536           74105                           MASK     OCT60000


001282: 10,3537           10000                           CCS      A
001283: 10,3540           13543                           TCF      TIMECHEK                              #  PRIO ENDIDLE RETURN
001284: 10,3541           13651                           TCF      NORMRET                               #  NORMAL ENDIDLE RETURN
001285: 10,3542           13635                           TCF      MARKRET                               #  MARK ENDIDLE RETURN
001286:
001287: 10,3543           40025        TIMECHEK           CS       TIME1
001288: 10,3544           61147                           AD       PRIOTIME
001289: 10,3545           10000                           CCS      A
001290: 10,3546           40000                           COM
001291: 10,3547           67700                           AD       OCT37776
001292: 10,3550           65017                           AD       ONE
001293: 10,3551           63774                           AD       -2SEC
001294: 10,3552           00006                           EXTEND
001295: 10,3553           62766                           BZMF     KEEPPRIO
001296:
001297: 10,3554           13651                           TCF      NORMRET
001298:
001299: 10,3555           35017        NORMWAKE           CAF      ONE
001300: 10,3556           13246                           TCF      WAKEPLAY
001301:
001302: 10,3557           10161        ENDRET             CCS      OUTHERE
001303: 10,3560           65017                           AD       ONE
001304: 10,3561           13563                           TCF      +2                                    #  NORMAL ENDIDLE EXIT
001305: 10,3562           15217                           TCF      ENDOFJOB
001306: 10,3563           50157                           INDEX    COPMPAC
001307: 10,3564           60372                           AD       CADRFLSH
001308: 10,3565           54157                           TS       MPAC       +3
001309:
001310: 10,3566           30162                           CA       GENMASK                               #  REMOVE ENDIDLE AND PINBRANCH BITS
001311: 10,3567           73571                           MASK     PINIDMSK
001312: 10,3570           07740                           TC       DOWNENT2
001313: 10,3571           74044        PINIDMSK           OCT      74044                                 #  *** DONT MOVE
001314:
001315: 10,3572           46214                           CS       THREE                                 #  BLANK EVERYTHING EXCEPT MM
001316: 10,3573           04170                           TC       NVSUB
001317: 10,3574           13575                           TCF      +1
001318:
001319: 10,3575           30163        ENDIT              CA       USERPRIO                              #  RETURN TO USERS PRIORITY
001320: 10,3576           77674                           MASK     PRIO37
001321: 10,3577           05210                           TC       PRIOCHNG
001322: 10,3600           30157                           CA       MPAC       +3
001323: 10,3601           14704                           TCF      BANKJUMP
001324:
001325: 10,3602           50164        UNSETR1            INDEX    COPINDEX                              #  RESET REPEAT AND RETURN REQUEST
001326: 10,3603           45015                           CS       BIT3
001327: 10,3604           71073                           MASK     R1SAVE
001328: 10,3605           55073                           TS       R1SAVE
001329: 10,3606           35021                           CAF      ZERO                                  #  *** 205 ONLY MARKBRAN USERS IN
001330: 10,3607           04773                           TC       SUPERSW                               #  SUPERBANK 0


001332:
001333: 10,3610           36214                 -1        CAF      THREE                                 #  RETURN TO USERS IMMEDIATE RETURN LOC
001334: 10,3611           50164        IMMEDRET           INDEX    COPINDEX
001335: 10,3612           60372                           AD       CADRFLSH
001336: 10,3613           14704                           TCF      BANKJUMP
001337:
001338: 10,3614           35021        TERMATE            CAF      ZERO                                  #  ASTRONAUT TERMINATE (V34) RETURNS TO
001339: 10,3615           13534                           TCF      ENDOUT
001340:
001341: 10,3616           40160        LINUSCHR           CS       PLAYTEM4                              #  IS THIS A LINUS
001342: 10,3617           75002                           MASK     BIT14
001343: 10,3620           10000                           CCS      A
001344: 10,3621           16706                           TCF      Q+1                                   #  NO
001345: 10,3622           40157                           CS       PLAYTEM3                              #  YES, IS IT ALREADY IN ENDIDLE
001346: 10,3623           50164                           INDEX    COPINDEX
001347: 10,3624           60372                           AD       CADRFLSH
001348: 10,3625           00006                           EXTEND
001349: 10,3626           13630                           BZF      +2                                    #  YES
001350:
001351: 10,3627           00002                           TC       Q                                     #  NO
001352: 10,3630           11012                           CCS      DSPLOCK                               #  IS THE ASTRONAUT BUSY
001353: 10,3631           05217                           TC       ENDOFJOB                              #  END THE NEW DISPLAY, ITS ALREADY ACTIVE
001354: 10,3632           00002                           TC       Q
001355:
001356:                                                                                                  #  MORE LOGIC COULD BE INCORPORATED HERE TO MAKE SURE A RECYCLE IS A RECYCLAND CONVERSLY THAT A LOAD IS A LOAD.
001357:
001358: 10,3633           35017        PROCEED            CAF      ONE                                   #  ASTRONAUT PROCEED (V33) RETURNS
001359: 10,3634           13534                           TCF      ENDOUT
001360:
001361:                                                                                                  #  LASTPLAY CHECKS TO SEE IF (1) THE LAST NORMAL DISPLAY WAS EITHER INTERRUPTED BY A PRIO OR A MARK (MARK
001362:                                                                                                  #  COULD ONLY HAPPEN DURING PINBRANCH) OR IF (2) THE LAST NORMAL DISPLAY WAS REQUESTED WHILE A HIGHER PRIORITY
001363:                                                                                                  #  DISPLAY WAS GOING RESULTING IN THE NORMAL BEING PUT TO SLEEP.
001364:
001365:                                                                                                  #  IF EITHER OF THE ABOVE 2 CONDITIONS EXISTS, THE NORMAL DISPLAY IS AWAKENED TO GO TO PLAYJUM1 WHICH STARTS
001366:                                                                                                  #  UP THE MOST RECENT VALID NORMAL DISPLAY.  IF THESE 2 CONDITIONS DO NOT EXIST, CONTROL GOES TO PLAYJUM1 WHICH IS
001367:                                                                                                  #  STARTED IMMEDIATELY WITH THE ASSUMPTION THAT THE MOST RECENT NORMAL DISPLAY IS ALREADY IN-ENDIDLE(DURING A
001368:                                                                                                  #  PINBRANCH) OR THAT A RESTART HAS OCCURRED AND THE DISPLAY CAN BE STARTED AS A .1 RESTART.
001369:
001370: 10,3635           46211        MARKRET            CS       SIX
001371: 10,3636           70100                           MASK     FLAGWRD4
001372: 10,3637           00004                           INHINT                                         #  *** MAY MOVE DISPLAY FLAGWORD OUT OF
001373: 10,3640           54100                           TS       FLAGWRD4
001374:
001375: 10,3641           00003                           RELINT                                         #  INHINT REALM
001376: 10,3642           13557                           TCF      ENDRET
001377:
001378: 10,3643           37716        MARKOVER           CAF      MINUS1                                #  RUPTREG2 IS - MEANS ENDOFJOB TO ENDRET
001379: 10,3644           54161                           TS       OUTHERE
001380: 10,3645           30100                           CA       FLAGWRD4                              #  IS ENDIDFLG SET
001381: 10,3646           74371                           MASK     PRIO30                                #  IS NORMAL OR PRIO IN ENDIDLE
001382: 10,3647           10000                           CCS      A


001384: 10,3650           13303                           TCF      NORMBNCH
001385:
001386: 10,3651           30100        NORMRET            CA       FLAGWRD4                              #  IS MARK SLEEPING
001387: 10,3652           73746                           MASK     BITS5+11                              #  OR WAITING
001388: 10,3653           10000                           CCS      A
001389: 10,3654           13245                           TCF      MARKWAKE
001390:
001391: 10,3655           30100                           CA       FLAGWRD4                              #  NO
001392: 10,3656           73747                           MASK     BITS4+10                              #  IS NORMAL INTERRUPTED OR WAITING
001393: 10,3657           10000                           CCS      A
001394: 10,3660           13555                           TCF      NORMWAKE                              #  YES
001395:
001396: 10,3661           31071                           CA       EBANKTEM                              #  NO, WAS IT A FLASH REQUEST
001397: 10,3662           75033                           MASK     OCT50                                 #  OR A GODSPRET
001398: 10,3663           10000                           CCS      A
001399: 10,3664           13557                           TCF      ENDRET                                #  YES
001400: 10,3665           30371                           CA       NVSAVE
001401: 10,3666           00006                           EXTEND
001402: 10,3667           13557                           BZF      ENDRET
001403:
001404: 10,3670           35067                           CAF      PRIO15
001405: 10,3671           00004                           INHINT
001406: 10,3672           05134                           TC       NOVAC
001407: 10,3673     0367                                  EBANK=   NVWORD
001408: 10,3673           03037 20060                     2CADR    PLAYJUM1
001409:
001410: 10,3675           13557                           TCF      ENDRET
001411:
001412: 10,3676           30100        MARSLEEP           CA       FLAGWRD4                              #  IS MARK ALREADY IN
001413: 10,3677           73746                           MASK     BITS5+11
001414: 10,3700           10000                           CCS      A
001415: 10,3701           15217                           TCF      ENDOFJOB                              #  YES
001416: 10,3702           13176                           TCF      GOSLEEPS
001417:
001418: 10,3703           50157        LOADITIS           INDEX    COPMPAC
001419: 10,3704           30367                           CA       NVWORD
001420: 10,3705           76043                           MASK     LOW7
001421: 10,3706           40000                           COM
001422: 10,3707           60155                           AD       MPAC       +1                         #  NOUNREG
001423: 10,3710           00006                           EXTEND
001424: 10,3711           13533                           BZF      OKTOENT                               #  NO, THEN LOAD IS VALID
001425: 10,3712           13272                           TCF      PINBRNCH                              #  YES, ACCEPT LOAD BUT ASK FOR LAST AGAIN
001426:
001427: 10,3713           46214        ERASER             CS       THREE                                 #  BLANK EVERYTHING EXCEPT MM
001428: 10,3714           04170                           TC       NVSUB
001429: 10,3715           15217                           TCF      ENDOFJOB
001430: 10,3716           15217                           TCF      ENDOFJOB
001431:
001432: 10,3717           00036        PERFMASK           OCT      0036                                  #  FLASH, PERFORM, BLANK R2 AND R3


001434: 10,3720           00231        V01N25             VN       00125
001435: 10,3721           01407        V06N07             VN       00607                                 #  GOPERF3 VN DISPLAY BEFORE V50
001436: 10,3722           14400        V50N00             VN       5000
001437: 10,3723           00030        PERF2MSK           OCT      00030                                 #  FLASH, PERFORM
001438: 10,3724           01006        V04N06             VN       00406
001439: 10,3725           00014        PERF4MSK           OCT      14                                    #  FLASH, BLANK R3
001440: 10,3726  10,3272               GOAGIN             EQUALS   PINBRNCH
001441: 10,3726           20010        REDOMASK           OCT      20010                                 #  BITS 4 AND 14
001442: 10,3727           40230        MARK3MSK           OCT      40230                                 #  MARK, DECIMAL NOUN, PERFORM, FLASH
001443: 10,3730           40036        MARK4MSK           OCT      40036                                 #  MARK, PERFORM, FLASH, BLANK 2 AND 3
001444: 10,3731           20764        NVCADR             CADR     REDOPRIO
001445: 10,3732           20624        WAKECADR           CADR     MARKPLAY
001446: 10,3733           21037                           CADR     PLAYJUM1
001447:
001448: 10,3734           03400        OCT3400            OCT      3400                                  #  EBANK MASK
001449: 10,3735           11210        NBUSMASK           OCT      11210
001450: 10,3736           66521        PMMASK             OCT      66521
001451: 10,3737     4160               VERBMASK           =        MID7                                  #  (OCT 37600)
001452: 10,3737           01177        V05N00M1           OCT      1177                                  #  V05 MINUS ONE
001453: 10,3740  10,2555               GOXDSP             EQUALS   GOMARK
001454: 10,3740  10,2575               GOXDSPR            EQUALS   GOMARKR
001455: 10,3740  10,2561               GOXDSPF            EQUALS   GOMARKF
001456: 10,3740  10,2600               GOXDSPFR           EQUALS   GOMARKFR
001457: 10,3740     5534               ENDEXT             EQUALS   ENDMARK
001458: 10,3740     0165               MPAC2SAV           EQUALS   BANKSET
001459: 10,3740           00700        NVBUSMSK           OCT      700
001460: 10,3741           00704        ASTROMSK           OCT      704
001461: 10,3742           40030        MPERFMSK           OCT      40030                                 #  BIT 15,5,4 FOR MARK,PERFORM,FLASH
001462: 10,3743           34300        OCT34300           OCT      34300
001463: 10,3744           40100        BITS15+7           OCT      40100
001464: 10,3745           00110        BITS7+4            OCT      110
001465: 10,3746     1067               DSPFLG             EQUALS   EBANKSAV
001466: 10,3746     1070               MARKFLAG           EQUALS   MARKEBAN
001467: 10,3746     1071               SAVEFLAG           EQUALS   EBANKTEM
001468: 10,3746           02020        BITS5+11           OCT      2020                                  #  * DONT MOVE
001469: 10,3747           01010        BITS4+10           OCT      1010                                  #  * DONT MOVE
001470: 10,3750           00026        LOWLOAD            DEC      22         B-14
001471: 10,3751           77730        BUSYMASK           OCT      77730
001472: 10,3752           00050        CADRMASK           OCT      50
001473: 10,3753     7707               PINMASK            EQUALS   13,14,15
001474: 10,3753  10,3312               GOPLAY             EQUALS   NVDSP
001475:                                                                                                  #  PRIOSAVE      EQUALS  R1SAVE
001476: 10,3753     0157               COPMPAC            EQUALS   MPAC       +3
001477: 10,3753     0160               TEMPOR2            EQUALS   MPAC       +4
001478: 10,3753     0161               OUTHERE            EQUALS   MPAC       +5
001479: 10,3753     0164               COPINDEX           EQUALS   LOC
001480: 10,3753     0163               USERPRIO           EQUALS   MODE
001481: 10,3753     0162               GENMASK            EQUALS   MPAC       +6
001482: 10,3753           20144        PRIOOCT            OCT      20144                                 #  PRIO
001483: 10,3754           42424        MARKOCT            OCT      42424                                 #  MARK


001485: 10,3755           11254                           OCT      11254                                 #  NORM
001486:
001487: 10,3756           74704        IDLESLEP           OCT      74704
001488: 10,3757           67777        OCT67777           OCT      67777
001489: 10,3760     5526               LINUS              EQUALS   BLANKET
001490: 10,3760     0154               FACEREG            EQUALS   MPAC
001491: 10,3760     0155               PLAYTEM1           EQUALS   MPAC       +1
001492: 10,3760     0157               PLAYTEM3           EQUALS   MPAC       +3
001493: 10,3760     0160               PLAYTEM4           EQUALS   MPAC       +4
001494: 10,3760           40420        OCT40420           OCT      40420
001495: 10,3761           02770        MAKEGEN            GENADR   MAKEPLAY
001496: 10,3762           10200        OCT10200           OCT      10200
001497: 10,3763           30200        V97N00             VN       09700                                 #  PASTE FOR V97 OR V99
001498: 10,3764           20100        OCT20100           OCT      20100
001499: 10,3765           24030        CLOCKCON           OCT      24030                                 #  FLASH, PERFORM, V99 OR V97 PASTE,REFLASH

End of include-file DISPLAY_INTERFACE_ROUTINES.agc.  Parent file is MAIN.agc


