
Source Code


000002:                                                                                                  #  Copyright:    Public domain.
000003:                                                                                                  #  Filename:     DISPLAY_INTERFACE_ROUTINES.agc
000004:                                                                                                  #  Purpose:      Part of the source code for Comanche, build 055. It
000005:                                                                                                  #                is part of the source code for the Command Module's
000006:                                                                                                  #                (CM) Apollo Guidance Computer (AGC), Apollo 11.
000007:                                                                                                  #  Assembler:    yaYUL
000008:                                                                                                  #  Reference:    pp. 1452-1484
000009:                                                                                                  #  Contact:      Ron Burkey <info@sandroid.org>
000010:                                                                                                  #  Website:      http://www.ibiblio.org/apollo.
000011:                                                                                                  #  Mod history:  2009-05-07 RSB  Adapted from Colossus249 file of the same
000012:                                                                                                  #                                name, and page images. Corrected various
000013:                                                                                                  #                                typos in the transcription of program
000014:                                                                                                  #                                comments, and these should be back-ported
000015:                                                                                                  #                                to Colossus249.
000016:                                                                                                  #                2010-08-29 JL   Fixed indentation, whitespace.
000017:
000018:                                                                                                  #  The contents of the "Comanche055" files, in general, are transcribed
000019:                                                                                                  #  from scanned documents.
000020:
000021:                                                                                                  #        Assemble revision 055 of AGC program Comanche by NASA
000022:                                                                                                  #        2021113-051.  April 1, 1969.
000023:
000024:                                                                                                  #        This AGC program shall also be referred to as Colossus 2A
000025:
000026:                                                                                                  #        Prepared by
000027:                                                                                                  #                        Massachusetts Institute of Technology
000028:                                                                                                  #                        75 Cambridge Parkway
000029:                                                                                                  #                        Cambridge, Massachusetts
000030:
000031:                                                                                                  #        under NASA contract NAS 9-4065.
000032:
000033:                                                                                                  #  Refer directly to the online document mentioned above for further
000034:                                                                                                  #  information.  Please report any errors to info@sandroid.org.
000035:
000036:                                                                                                  #  Page 1452
000037:                                                                                                  #  DISPLAYS CAN BE CLASSIFIED INTO THE FOLLOWING CATEGORIES --
000038:                                                                                                  #        1.  PRIORITY DISPLAYS -- DISPLAYS WHICH TAKE PRIORITY OVER ALL OTHER DISPLAYS.  USUALLY THESE DISPLAYS ARE SENT
000039:                                                                                                  #            OUT UNDER CRITICAL ALARM CONDITIONS.
000040:                                                                                                  #        2.  EXTENDED VERB DISPLAYS -- ALL EXTENDED VERBS AND MARK ROUTINES SHOULD USE EXTENDED VERB (MARK) DISPLAYS.
000041:                                                                                                  #        3.  NORMAL DISPLAYS -- ALL MISSION PROGRAM DISPLAYS WHICH INTERFACE WITH THE ASTRONAUT DURING THE NORMAL
000042:                                                                                                  #            SEQUENCE OF EVENTS.
000043:                                                                                                  #        4.  MISC. DISPLAYS -- ALL DISPLAYS NOT HANDLED BY THE DISPLAY INTERFACE ROUTINES.  THESE INCLUDE SUCH DISPLAYS AS
000044:                                                                                                  #            MM DISPLAYS AND SPECIAL PURPOSE DISPLAYS HANDLED BY PINBALL.
000045:                                                                                                  #        5.  ASTRONAUT INITIATED DISPLAYS -- ALL DISPLAYS INITIATED EXTERNALLY.
000046:
000047:                                                                                                  #  THE FOLLOWING TERMS ARE USED TO DESCRIBE THE STATUS OF DISPLAYS --
000048:                                                                                                  #        1.  ACTIVE -- THE DISPLAY WHICH IS (1) BEING DISPLAYED TO THE ASTRONAUT AND WAITING FOR A RESPONSE OR
000049:                                                                                                  #            (2) WAITING FIRST IN LINE FOR THE ASTRONAUT TO FINISH USING THE DSKY OR (3) BEING DISPLAYED ON THE DSKY
000050:                                                                                                  #            BUT NOT WAITING FOR A RESPONSE.
000051:                                                                                                  #        2.  INACTIVE -- A DISPLAY WHICH HAS (1) BEEN ACTIVE BUT WAS INTERRUPTED BY A DISPLAY OF HIGHER PRIORITY,
000052:                                                                                                  #            (2) BEEN PUT INTO THE WAITING LIST AT TIME IT WAS REQUESTED DUE TO THE FACT A HIGHER PRIORITY DISPLAY
000053:                                                                                                  #            WAS ALREADY DOING, (3) BEEN INTERRUPTED BY THE ASTRONAUT (CALLED A PINBRANCH CONDITION, SINCE THIS TYPE
000054:                                                                                                  #            OF INACTIVE DISPLAY IS USUALLY REACTIVATED ONLY BY PINBALL) OR (4) A DISPLAY WHICH HAS FINISHED BUT STILL
000055:                                                                                                  #            HAS INFO SAVED FOR RESTART PURPOSES.
000056:
000057:                                                                                                  #  DISPLAY PRIORITIES WORK AS FOLLOWS --
000058:                                                                                                  #        INTERRUPTS --
000059:                                                                                                  #                1.  THE ASTRONAUT CAN INTERRUPT ANY DISPLAY WITH AN EXTERNAL DISPLAY REQUEST.
000060:                                                                                                  #                2.  INTERNAL DISPLAYS CAN NOT BE SENT OUT WHEN THE ASTRONAUT IS USING THE DSKY.
000061:                                                                                                  #                3.  PRIORITY DISPLAYS INTERRUPT ALL OTHER TYPES OF INTERNAL DISPLAYS.  A PRIORITY DISPLAY INTERRUPTING ANOTHER
000062:                                                                                                  #                    PRIORITY DISPLAY WILL CAUSE AN ABORT UNLESS BIT14 IS SET FOR THE LINUS ROUTINE.
000063:                                                                                                  #                4.  A MARK DISPLAY INTERRUPTS ANY NORMAL DISPLAY.
000064:                                                                                                  #                5.  A MARK THAT INTERRUPTS A MARK COMPLETELY REPLACES IT.
000065:
000066:                                                                                                  #        ORDER OF WAITING DISPLAYS --
000067:                                                                                                  #                1.  ASTRONAUT
000068:                                                                                                  #                2.  PRIORITY
000069:                                                                                                  #                3.  INTERRUPTED MARK
000070:                                                                                                  #                4.  INTERRUPTED NORMAL
000071:                                                                                                  #                5.  MARK TO BE REQUESTED (SEE DESCRIPTION OF ENDMARK)
000072:                                                                                                  #                6.  MARK WAITING
000073:                                                                                                  #                7.  NORMAL WAITING
000074:
000075:                                                                                                  #  Page 1453
000076:                                                                                                  #  THE DISPLAY ROUTINES ARE INTENDED TO SERVE AS AN INTERFACE BETWEEN THE USER AND PINBALL.  THE
000077:                                                                                                  #  FOLLOWING STATEMENTS CAN BE MADE ABOUT NORMAL DISPLAYS AND PRIORITY DISPLAYS (A DESCRIPTION OF MARK ROUTINES
000078:                                                                                                  #  WILL FOLLOW LATER):
000079:                                                                                                  #        1.  ALL ROUTINES THAT END IN R HAVE AN IMMEDIATE RETURN TO THE USER.  FOR ALL FLASHING DISPLAYS THIS RETURN
000080:                                                                                                  #            IS TO THE USER'S CALL CADR +4.  FOR THE ONLY NON-FLASHING IMMEDIATE RETURN DISPLAY (GODSPR) THIS RETURN
000081:                                                                                                  #            IS TO THE USER'S CALLING LOC +1.
000082:                                                                                                  #        2.  ALL ROUTINES NOT ENDING IN R DO NOT DO AN IMMEDIATE RETURN TO THE USER.
000083:                                                                                                  #        3.  ALL ROUTINES THAT END IN R START A SEPARATE JOB (MAKEPLAY) WITH USER'S JOB PRIORITY.
000084:                                                                                                  #        4.  ALL ROUTIENS NOT ENDING IN R BRANCH DIRECTLY TO MAKEPLAY WHICH MAKES THESE DISPLAYS A PART OF THE
000085:                                                                                                  #            USER'S JOB.
000086:                                                                                                  #        5.  ALL DISPLAY ROUTIENS ARE CALLED VIA BANKCALL.
000087:                                                                                                  #        6.  TO RESTART A DISPLAY THE USER WILL GENERALLY USE A PHASE OF ONE WITH DESIRED RESTART GROUP (SEE
000088:                                                                                                  #            DESCRIPTION OF RESTARTS).
000089:                                                                                                  #        7.  ALL FLASHING DISPLAYS HAVE 3 RETURNS TO THE USER FROM ASTRONAUT RESPOSES.  A TERMINATE (V34) BRANCHES
000090:                                                                                                  #            TO THE USER'S CALL CADR +1.  A PROCEED (V33) BRANCHES TO THE USER'S CALL CADR +2.  AN ENTER OR RECYCLE
000091:                                                                                                  #            (V32) BRANCHES TO THE USER'S CALL CADR +3.
000092:                                                                                                  #        8.  ALL ROUTINES MUST BE USED UNDER EXECUTIVE CONTROL
000093:
000094:                                                                                                  #  A DESCRIPTION OF EACH ROUTINE WITH AN EXAMPLE FOLLOWS:
000095:
000096:                                                                                                  #        GODSP IS USED TO DISPLAY A VERB NOUN ARRIVING IN A.  NO RETURN IS MADE TO THE USER.
000097:                                                                                                  #                1.  GODSP IS NOT RESTARTABLE
000098:                                                                                                  #                2.  A VERB PASTE WITH GODSP ALWAYS TURNS ON THE FLASH.
000099:                                                                                                  #                                CAF     VXXNYY
000100:                                                                                                  #                                TC      BANKCALL
000101:                                                                                                  #                                CADR    GODSP
000102:                                                                                                  #                        VXXNYY  OCT     OXXYY
000103:
000104:                                                                                                  #        GODSPR IS THE SAME AS GODSP ONLY RETURN IS TO THE USER.
000105:                                                                                                  #                                CAF     VXXNYY
000106:                                                                                                  #                                TC      BANKCALL
000107:                                                                                                  #                                CADR    GODSPR
000108:                                                                                                  #                                ...     ...             # IMMEDIATE RETURN OF GODSPR
000109:
000110:                                                                                                  #        GOFLASH DISPLAYS A FLASHING VERB NOUN WITH NO IMMEDIATE RETURN TO THE USER.  3 RETURNS ARE POSSIBLE FORM
000111:                                                                                                  #        THE ASTRONAUT (SEE NO. 7 ABOVE).
000112:                                                                                                  #                                CAF     VXXNYY          # VXX NYY WILL BE A FLASHING VERB NOUN.
000113:                                                                                                  #                                TC      BANKCALL
000114:                                                                                                  #                                CADR    GOFLASH
000115:                                                                                                  #                                ...     ...             # TERMINATE RETURN
000116:                                                                                                  #                                ...     ...             # PROCEED RETURN
000117:                                                                                                  #                                ...     ...             # ENTER OR RECYCLE RETURN
000118:
000119:                                                                                                  #        GOPERF1 IS ENTERED WITH DESIRED CHECKLIST VALUE IN A.  GOPERF1 WILL DISPLAY THIS VALUE IN R1 BY MEANS OF A
000120:                                                                                                  #  Page 1454
000121:                                                                                                  #        V01 N25.  A FLASHING PLEASE PERFORM ON CHECKLIST (V50 N25) IS THEN DISPLAYED.  NO IMMEDIATE RETURN IS MADE TO
000122:                                                                                                  #        USER (SEE NO. 7 ABOVE).
000123:                                                                                                  #        GOPERF1 BLANKS REGISTERS R2 AND R3
000124:                                                                                                  #                                CAF     OCTXX           # CODE FOR CHECKLIST VALUE XX
000125:                                                                                                  #                                TC      BANKCALL
000126:                                                                                                  #                                CADR    GOPERF1
000127:                                                                                                  #                                ...     ...             # TERMINATE RETURN
000128:                                                                                                  #                                ...     ...             # PROCEED RETURN
000129:                                                                                                  #                                ...     ...             # ENTER RETURN
000130:                                                                                                  #        GOPERF2 IS ENTERED WITH A VARIABLE NOUN AND V01 (V00 FOR N10 OR N11) IN A.  GOPERF2 WILL FIRST DISPLAY THE
000131:                                                                                                  #        REQUESTED NOUN BY MEANS OF A V01NYY OR A V00NYY.  PLEASE PERFORM ON NOUN (V50 NYY) THEN BECOMES A FLASHING
000132:                                                                                                  #        DISPLAY.  NO IMMEDIATE RETURN IS MADE TO THE USER (SEE NO. 7 ABOVE).
000133:                                                                                                  #        GOPERF2 DOES NOT BLANK ANY REGISTERS
000134:                                                                                                  #                                CAF     VXXNYY          # VARIABLE NOUN YY. XX=0 OR 01.
000135:                                                                                                  #                                TC      BANKCALL
000136:                                                                                                  #                                CADR    GOPERF2
000137:                                                                                                  #                                ...     ...             # TERMINATE RETURN
000138:                                                                                                  #                                ...     ...             # PROCEED RETURN
000139:                                                                                                  #                                ...     ...             # ENTER RETURN
000140:                                                                                                  #        GOPERF3 IS USED FOR A PLEASE PERFORM ON A PROGRAM NUMBER.  THE DESIRED PROGRAM NO. IS ENTERED IN A.  GOPERF3
000141:                                                                                                  #        DISPLAYS THE NO. BY MEANS OF A V06 N07 FOLLOWED BY A FLASHING V50 N07 FOR A PLEASE PERFORM.  NO IMMEDIATE RETURN
000142:                                                                                                  #        IS MADE TO THE USER (SEE NO. 7 ABOVE).
000143:                                                                                                  #        GOPERF3 BLANKS REGISTERS R2 AND R3
000144:                                                                                                  #                                CAF     DECXX           # REQUEST PERFORM ON PXX
000145:                                                                                                  #                                TC      BANKCALL
000146:                                                                                                  #                                CADR    GOPERF3
000147:                                                                                                  #                                ...     ...             # TERMINATE RETURN
000148:                                                                                                  #                                ...     ...             # PROCEED RETURN
000149:                                                                                                  #                                ...     ...             # ENTER RETURN
000150:
000151:                                                                                                  #        GOPERF4 IS USED FOR A PLEASE PERFORM ON AN OPTION.  THE DESIRED OPTION IS ENTERED IN A AND STORED IN OPTION1.
000152:                                                                                                  #        GOPERF4 DISPLAYS R1 AND R2 BY MEANS OF A V04N06 FOLLOWED BY A FLASHING V50N06 FOR A PLEASE PERFORM.  NO
000153:                                                                                                  #        IMMEDIATE RETURN IS MADE TO THE USER (SEE NO. 7 ABOVE).
000154:                                                                                                  #                                CAF     OCTXX           # REQUEST PERFORM ON OPTION XX
000155:                                                                                                  #                                TC      BANKCALL
000156:                                                                                                  #                                CADR    GOPERF4
000157:                                                                                                  #                                ...     ...             # TERMINATE RETURN
000158:                                                                                                  #                                ...     ...             # PROCEED RETURN
000159:                                                                                                  #                                ...     ...             # ENTER RETURN
000160:                                                                                                  #        GOPERF4 BLANKS REGISTER R3.
000161:
000162:                                                                                                  #  Page 1455
000163:                                                                                                  #        GODSPRET IS USED TO DISPLAY A VERB NOUN ARRIVING IN A WITH A RETURN TO THE USER AFTER THE DISPLAY HAS BEEN SENT
000164:                                                                                                  #        OUT.
000165:                                                                                                  #                                CAF     VXXXNYY
000166:                                                                                                  #                                TC      BANKCALL
000167:                                                                                                  #                                CADR    GODSPRET
000168:                                                                                                  #                                ...     ...             # RETURN TO USER.
000169:
000170:                                                                                                  #        REGODSP IS USED TO DISPLAY A VERB NOUN ARRIVING IN A.  REGODSP IS THE SAME AS GODSP ONLY REGODSP REPLACES AND
000171:                                                                                                  #        ACTIVE NORMAL DISPLAY IF ONE WAS ACTIVE.
000172:                                                                                                  #                                CAF     VXXNYY
000173:                                                                                                  #                                TC      BANKCALL
000174:                                                                                                  #                                CADR    REGODSP
000175:
000176:                                                                                                  #        REFLASH IS THE SAME AS GOFLASH ONLY REFLASH REPLACES ANY ACTIVE NORMAL DISPLAY IF ONE WAS ACTIVE.
000177:                                                                                                  #                                CAF     VXXNYY          # VXX NYY WILL BE A FLASHING VERB NOUN
000178:                                                                                                  #                                TC      BANKCALL
000179:                                                                                                  #                                CADR    REFLASH
000180:                                                                                                  #                                ...     ...             # TERMINATE RETURN
000181:                                                                                                  #                                ...     ...             # PROCEED RETURN
000182:                                                                                                  #                                ...     ...             # ENTER RETURN
000183:
000184:                                                                                                  #        GOFLASHR IF SAME AS GOFLASH ONLY AN IMMEDIATE RETURN IS MADE TO THE USER'S CALL CADR +4.
000185:                                                                                                  #                                CAF     VXXNYY
000186:                                                                                                  #                                TC      BANKCALL
000187:                                                                                                  #                                CADR    GOFLASHR
000188:                                                                                                  #                                ...     ...             # TERMINATE RETURN
000189:                                                                                                  #                                ...     ...             # PROCEED RETURN
000190:                                                                                                  #                                ...     ...             # ENTER OR RECYCLE RETURN
000191:                                                                                                  #                                ...     ...             # IMMEDIATE RETURN FROM GOFLASHR
000192:
000193:                                                                                                  #        GOPERF1R IS THE SAME AS GOPERF1 ONLY GOPERF1R HAS AN IMMEDIATE RETURN TO USER'S CALL CADR +4.
000194:                                                                                                  #        GOPERF1R BLANKS REGISTERS R2 AND R3
000195:                                                                                                  #                                CAF     OCTXX           # CODE FOR CHECKLIST VALUE XX.
000196:                                                                                                  #                                TC      BANKCALL
000197:                                                                                                  #                                CADR    GOPERF1R
000198:                                                                                                  #                                ...     ...             # TERMINATE RETURN
000199:                                                                                                  #                                ...     ...             # PROCEED RETURN
000200:                                                                                                  #                                ...     ...             # ENTER RETURN
000201:                                                                                                  #                                ...     ...             # IMMEDIATE RETURN FROM GOPERF1R
000202:
000203:                                                                                                  #        GOPERF2R IS THE SAME AS GOPERF2 ONLY AN IMMEDIATE RETURN IS MADE TO USER'S CALL CADR +4.
000204:                                                                                                  #  Page 1456
000205:                                                                                                  #        GOPERF2R DOES NOT BLANK ANY REGISTERS
000206:                                                                                                  #                                CAF     VXXXNYY         # VARIABLE NOUN YY REQUESTED.  XX=00 OR 01
000207:                                                                                                  #                                TC      BANKCALL
000208:                                                                                                  #                                CADR    GOPERF2R
000209:                                                                                                  #                                ...     ...             # TERMINATE RETURN
000210:                                                                                                  #                                ...     ...             # PROCEED RETURN
000211:                                                                                                  #                                ...     ...             # ENTER RETURN
000212:                                                                                                  #                                ...     ...             # IMMEDIATE RETURN HERE FROM GOPERF2R
000213:
000214:                                                                                                  #        GOPERF3R IS THE SAME AS GOPERF3 ONLY AN IMMEDIATE RETURN IS MADE TO USER'S CALL CADR +4.
000215:                                                                                                  #        GOPERF3R BLANKS REGISTERS R2 AND R3
000216:                                                                                                  #                                CAF     PROGXX          # PERFORM PROGRAM XX
000217:                                                                                                  #                                TC      BANKCALL
000218:                                                                                                  #                                CADR    GOPERF3R
000219:                                                                                                  #                                ...     ...             # TERMINATE RETURN
000220:                                                                                                  #                                ...     ...             # PROCEED RETURN
000221:                                                                                                  #                                ...     ...             # ENTER RETURN
000222:                                                                                                  #                                ...     ...             # GOPERF3R IMMEDIATELY RETURNS HERE
000223:
000224:                                                                                                  #        GOPERF4R IS THE SAME AS GOPERF4 ONLY AN IMMEDIATE RETURN IS MADE TO USER'S CALL CADR +4.
000225:                                                                                                  #                                CAF     OCTXX           # REQUEST PERFORM ON OPTIONXX
000226:                                                                                                  #                                TC      BANKCALL
000227:                                                                                                  #                                CADR    GOPERF4R
000228:                                                                                                  #                                ...     ...             # TERMINATE RETURN
000229:                                                                                                  #                                ...     ...             # PROCEED RETURN
000230:                                                                                                  #                                ...     ...             # ENTER RETURN
000231:                                                                                                  #                                ...     ...             # IMMEDIATE RETURN TO USER
000232:                                                                                                  #        GOPERF4R BLANKS REGISTER R3.
000233:
000234:                                                                                                  #        REFLASHR IS THE SAME AS REFLASH ONLY AN IMMEDIATE RETURN IS MADE TO THE USER'S CALL CADR +4.
000235:                                                                                                  #                                CAF     VXXNYY          # VXX NYY WILL BE A FLASHING VERB NOUN
000236:                                                                                                  #                                TC      BANKCALL
000237:                                                                                                  #                                CADR    REFLASHR
000238:                                                                                                  #                                ...     ...             # TERMINATE RETURN
000239:                                                                                                  #                                ...     ...             # PROCEED RETURN
000240:                                                                                                  #                                ...     ...             # ENTER RETURN
000241:                                                                                                  #                                ...     ...             # IMMEDIATE RETURN TO USER
000242:
000243:                                                                                                  #        REGODSPR IS THE SAME AS REGODSP ONLY A RETURN (IMMEDIATE) IS MADE TO THE USER.
000244:                                                                                                  #  Page 1457
000245:                                                                                                  #                                CAF     VXXNYY
000246:                                                                                                  #                                TC      BANKCALL
000247:                                                                                                  #                                CADR    REGODSPR
000248:                                                                                                  #                                ...     ...             # IMMEDIATE RETURN TO USER
000249:
000250:                                                                                                  #  Page 1458
000251:                                                                                                  #        GOMARK IS USED TO DISPLAY A MARK VERB NOUN ARRIVING IN A.  NO RETURN IS MADE TO THE USER.
000252:                                                                                                  #        GOXDSP = GOMARK
000253:                                                                                                  #                                CAF     VXXNYY          # VXXNYY CONTAINS VERB AND NOUN
000254:                                                                                                  #                                TC      BANKCALL
000255:                                                                                                  #                                CADR    GOMARK          # OTHER EXTENDED VERBS USE CADR GOXDSP
000256:
000257:                                                                                                  #        GOMARKR IS THE SAME AS GOMARK ONLY RETURN IS TO THE USER.
000258:                                                                                                  #        GOXDSPR = GOMARKR
000259:                                                                                                  #                                CAF     VXXNYY
000260:                                                                                                  #                                TC      BANKCALL
000261:                                                                                                  #                                CADR    GOMARKR         # OTHER EXTENDED VERBS USE CADR GOXDSPR
000262:                                                                                                  #                                ...     ...             # IMMEDIATE RETURN OF GOMARKR
000263:
000264:                                                                                                  #        GOMARKF DISPLAYS A FLASHING MARK VERB NOUN WITH NO IMMEDIATE RETURN TO THE USER.  3 RETURNS ARE POSSIBLE FORM
000265:                                                                                                  #        THE ASTRONAUT (SEE NO. 7 ABOVE).
000266:                                                                                                  #        GOXDSPF = GOMARKF
000267:                                                                                                  #                                CAF     VXXNYY          # VXXNYY WILL BE A FLASHING MARK VERB NOUN
000268:                                                                                                  #                                TC      BANKCALL
000269:                                                                                                  #                                CADR    GOMARKFR        # OTHER EXTENDED VERBS USE CADR GOXDSPFR
000270:                                                                                                  #                                ...     ...             # TERMINATE RETURN
000271:                                                                                                  #                                ...     ...             # PROCEED RETURN
000272:                                                                                                  #                                ...     ...             # ENTER OR RECYCLE RETURN
000273:                                                                                                  #                                ...     ...             # IMMEDIATE RETURN TO THE USER
000274:
000275:                                                                                                  #        GOMARKFR IS THE SAME AS GOMARKF ONLY AN IMMEDIATE RETURN IS MADE TO THE USER CALL CADR +4.
000276:                                                                                                  #        GOXDSPFR = GOMARKFR
000277:                                                                                                  #                                CAF     VXXNYY          # FLASHING MARK VERB NOUN
000278:                                                                                                  #                                TCF     BANKCALL
000279:                                                                                                  #                                CADR    GOMARKFR        # OTHER EXTENDED VERBS USE CADR GOXDSPFR
000280:                                                                                                  #                                ...     ...             # TERMINATE RETURN
000281:                                                                                                  #                                ...     ...             # PROCEED RETURN
000282:                                                                                                  #                                ...     ...             # ENTER OR RECYCLE RETURN
000283:                                                                                                  #
000284:                                                                                                  #                                ...     ...             # IMMEDIATE RETURN TO THE USER
000285:
000286:                                                                                                  #        GOMARK1 IS USED FOR A PLEASE PERFORM ON A MARK REQUEST WITH ONLY 1 ASTRONAUT RETURN TO THE USER.  NO IMMEDIATE
000287:                                                                                                  #        RETURN IS MADE.  THE DESIRED MARK PLEASE PERFORM VERB AND DESIRED NOUN IS ENTERED IN A.  GOMARK1 DISPLAYS R1, R2, R
000288:                                                                                                  #        MEANS OF A V05NYY FOLLOWED BY A FLASHING V5XNYY FOR A PLEASE PERFORM.  THE ASTRONAUT WILL RESPOND WITH A MARK
000289:                                                                                                  #        OR MARK REJECT OR AN ENTER.  THE ENTER IS THE ONLY ASTRONAUT RESPONSE THAT WILL COME BACK TO THE USER.
000290:                                                                                                  #                                CAF     V5XNYY          # X=1,2,3,4     YY=NOUN
000291:                                                                                                  #                                TC      BANKCALL
000292:                                                                                                  #  Page 1459
000293:                                                                                                  #                                CADR    GOMARK1
000294:                                                                                                  #                                ...     ...             # ENTER RETURN
000295:
000296:                                                                                                  #        *** IF BLANKING DESIRED ON NON-R ROUTINES, NOTIFY DISPLAYER.
000297:
000298:                                                                                                  #        GOMARK1R IS THE SAME AS A GOMARK1 ONLY AN IMMEDIATE RETURN IS MADE TO THE USER'S CALL CADR +2.
000299:                                                                                                  #                                CAF     V5XNYY          # X=1,2,3,4     YY=NOUN
000300:                                                                                                  #                                TC      BANKCALL
000301:                                                                                                  #                                CADR    GOMARK1R
000302:                                                                                                  #                                ...     ...             # ASTRONAUT ENTER RETURN
000303:                                                                                                  #                                ...     ...             # IMMEDIATE RETURN TO USER
000304:
000305:                                                                                                  #        GOMARK2 IS THE SAME AS GOMARK1 ONLY 3 RETURNS ARE MADE TO THE USER FROM THE ASTRONAUT.
000306:                                                                                                  #                                CAF     V5XNYY          # X=1,2,3,4     YY=NOUN
000307:                                                                                                  #                                TC      BANKCALL
000308:                                                                                                  #                                CADR    GOMARK2
000309:                                                                                                  #                                ...     ...             # TERMINATE RETURN
000310:                                                                                                  #                                ...     ...             # PROCEED RETURN
000311:                                                                                                  #                                ...     ...             # ENTER RETURN
000312:
000313:                                                                                                  #        GOMARK2R IS THE SAME AS GOMARK1R ONLY 3 ASTRONAUT RETURNS ARE MADE TO THE USER.
000314:                                                                                                  #                                CAF     V5XNYY          # X=0,1,2,3,4   YY=NOUN
000315:                                                                                                  #                                TCF     BANKCALL
000316:                                                                                                  #                                CADR    GOMARK24
000317:                                                                                                  #                                ...     ...             # TERMINATE RETURN
000318:                                                                                                  #                                ...     ...             # PROCEED RETURN
000319:                                                                                                  #                                ...     ...             # ENTER RETURN
000320:                                                                                                  #                                ...     ...             # IMMEDIATE RETURN TO THE USER.
000321:
000322:                                                                                                  #        GOMARK3 IS USED FOR A PLEASE PERFORM ON A MARK REQUEST WITH A 3 COMP. DEC DISPLAY.  THE DESIRED MARK PLEASE
000323:                                                                                                  #        PERFORM VERB AND NOUN ARE ENTERED IN A.  GOMARK3 DISPLAYS R1, R2, R3 BY MEANS OF A V06NYY FOLLOWED BY A FLASHING
000324:                                                                                                  #        V5XNYY FOR A PLEASE PERFORM.  GOMARK3 HAS 3 ASTRONAUT RETURNS TO THE USER WITH NO IMMEDIATE RETURN.
000325:                                                                                                  #                                CAF     V5XNYY          # X=1,2,3,4     YY=NOUN
000326:                                                                                                  #                                TC      BANKCALL
000327:                                                                                                  #                                CADR    GOMARK3
000328:                                                                                                  #                                ...     ...             # TERMINATE RETURN
000329:                                                                                                  #                                ...     ...             # PROCEED RETURN
000330:                                                                                                  #                                ...     ...             # ENTER RETURN
000331:
000332:                                                                                                  #        GOMARK4 IS THE SAME AS GOMARK3 ONLY R2 AND R3 ARE BLANKED AND R1 IS DISPLAYED IN OCTAL.
000333:                                                                                                  #                                CAF     V5XNYY          # X=1,2,3,4     YY=NOUN
000334:                                                                                                  #                                TC      BANKCALL
000335:                                                                                                  #                                CADR    GOMARK4
000336:                                                                                                  #                                ...     ...             # TERMINATE RETURN
000337:                                                                                                  #                                ...     ...             # PROCEED RETURN
000338:                                                                                                  #  Page 1460
000339:                                                                                                  #                        ...     ...                     # ENTER RETURN
000340:                                                                                                  #        EXDSPRET IS USED TO DISPLAY A VERB NOUN ARRIVING IN A WITH A RETURN MADE TO THE USER AFTER THE DISPLAY HAS BEEN
000341:                                                                                                  #        SENT OUT.
000342:                                                                                                  #                                CAF     VXNYY
000343:                                                                                                  #                                TC      BANKCALL
000344:                                                                                                  #                                CADR    EXDSPRET
000345:                                                                                                  #                                ...     ...             # RETURN TO USER
000346:
000347:                                                                                                  #        KLEENEX CLEANS OUT ALL MARK DISPLAYS (ACTIVE AND INACTIVE). A RETURN IS MADE TO THE USER AFTER THE MARK DISPLAYS
000348:                                                                                                  #        HAVE BEEN CLEANED OUT.
000349:                                                                                                  #                                TC      BANKCALL
000350:                                                                                                  #                                CADR    KLEENEX
000351:                                                                                                  #                                ...     ...             # RETURN TO USER
000352:
000353:                                                                                                  #        MARKBRAN IS A SPECIAL PURPOSE ROUTINE USED FOR SAVING JOB VAC AREAS (SEE DESCRIPTION OF MARKBRAN BELOW).
000354:                                                                                                  #                                TC      BANKCALL
000355:                                                                                                  #                                CADR    MARKBRAN
000356:                                                                                                  #                                ...     ...             # BAD RETURN IF MARK DISPLAY NOT ACTIVE
000357:                                                                                                  #                                                        # (GOOD RETURN TO IMMEDIATE RETURN LOC OF
000358:                                                                                                  #                                                        # LAST FLASHING MARK R ROUTINE)
000359:
000360:                                                                                                  #        PINBRNCH REESTABLISHES THE LAST ACTIVE FLASHING DISPLAY.  IF THERE IS NO ACTIVE FLASHING DISPLAY, THE DSKY IS
000361:                                                                                                  #        BLANKED AND CONTROL IS SENT TO ENDOFJOB.
000362:                                                                                                  #                                TC      POSTJUMP
000363:                                                                                                  #                                CADR    PINBRNCH
000364:
000365:                                                                                                  #        PRIODSP IS USED AS A PRIORITY DISPLAY.  IT WILL DISPLAY A GOFLASH TYPE DISPLAY WITH THREE POSSIBLE RETURNS FROM
000366:                                                                                                  #        THE ASTRONAUT (SEE NO. 7 ABOVE).
000367:
000368:                                                                                                  #        THE MAIN PURPOSE OF PRIODSP IS TO REPLACE THE PRESENT DISPLAY WITH A DISPLAY OF HIGHER PRIORITY AND TO
000369:                                                                                                  #        PROVIDE A MEANS FOR RESTORING THE OLD DISPLAY WHEN THE PRIORITY DISPLAY
000370:                                                                                                  #        IS RESPONDED TO BY THE ASTRONAUT.
000371:
000372:                                                                                                  #        THE FORMER DISPLAY IS RESTORED BY AN AUTOMATIC BRANCH TO WAKE UP THE DISPLAY THAT WAS INTERRUPTED BY THE
000373:                                                                                                  #        PRIO DISPLAY
000374:                                                                                                  #                                CAF     VXXNYY          # VXXNYY WILL BE A FLASHING VERB NOUN
000375:                                                                                                  #                                TC      BANKCALL
000376:                                                                                                  #                                CADR    PRIODSP
000377:                                                                                                  #                                ...     ...             # TERMINATE RETURN
000378:                                                                                                  #                                ...     ...             # PROCEED RETURN
000379:                                                                                                  #  Page 1461
000380:                                                                                                  #                                ...     ...             # ENTER OR RECYCLE RETURN
000381:
000382:                                                                                                  #        PRIODSPR IS THE SAME AS PRIODSP ONLY AN IMMEDIATE RETURN IS MADE TO THE USER'S CALL CADR +4.
000383:                                                                                                  #                                CAF     VXXNYY          # VXXNYY WILL BE A FLASHING VERB NOUN
000384:                                                                                                  #                                TC      BANKCALL
000385:                                                                                                  #                                CADR    PRIODSPR
000386:                                                                                                  #                                ...     ...             # TERMINATE ACTION
000387:                                                                                                  #                                ...     ...             # PROCEED RETURN
000388:                                                                                                  #                                ...     ...             # ENTER OR RECYCLE RETURN
000389:                                                                                                  #                                ...     ...             # IMMEDIATE RETURN
000390:
000391:                                                                                                  #        PRIOLARM DOES A V05N09 PRIODSPR.
000392:
000393:                                                                                                  #        CLEANDSP CLEANS OUT ALL NORMAL DISPLAYS (ACTIVE AND INACTIVE).  A RETURN IS MADE TO THE USER AFTER NORMAL
000394:                                                                                                  #        DISPLAYS ARE CLEANED OUT.
000395:                                                                                                  #                                TC      BANKCALL
000396:                                                                                                  #                                CADR    CLEANDSP
000397:                                                                                                  #                                ...     ...             # RETURN TO USER
000398:                                                                                                  #  Page 1462
000399:
000400:                                                                                                  #  GENERAL INFORMATION
000401:                                                                                                  #  -------------------
000402:
000403:                                                                                                  #  ALARM OR ABORT EXIT MODE --
000404:                                                                                                  #        PRIOBORT        TC      ABORT
000405:                                                                                                  #                        OCT     1502
000406:
000407:                                                                                                  #        PRIOBORT IS BRANCHED TO WHEN (1) A NORMAL DISPLAY IS REQUESTED AND ANOTHER NORMAL DISPLAY IS ALREADY ACTIVE
000408:                                                                                                  #        (REFLASH AND REGODSP ARE EXCEPTIONS) OR (2) A PRIORITY DISPLAY IS REQUESTED WHEN ANOTHER PRIORITY DISPLAY IS
000409:                                                                                                  #        ALREADY ACTIVE (A PRIORITY WITH LINUS BIT14 IS AN EXCEPTION).
000410:
000411:                                                                                                  #  ERASABLE INITIALIZATION REQUIRED --
000412:                                                                                                  #        ACCOMPLISHED BY FRESH START --  1.  FLAGWRD4 (USED EXCLUSIVELY BY DISPLAY INTERFACE ROUTINES)
000413:                                                                                                  #                                        2.  NVSAVE = NORMAL VERB AND NOUN REGISTER.
000414:                                                                                                  #                                        3.  EBANKTEM = NORMAL INACTIVE FLAGWORD (ALSO CONTAINS NORMALS EBANK).
000415:                                                                                                  #                                        5.  R1SAVE = MARKBRAN CONTROL WORD
000416:                                                                                                  #                                        4.  RESTREG = PRIORITY 30 AND SUPERBANK 3.
000417:
000418:                                                                                                  #  OUTPUT --
000419:                                                                                                  #        NVWORD = PRIO VERB AND NOUN
000420:                                                                                                  #        NVWORD +1 (MARKNV) = MARK VERB AND NOUN
000421:                                                                                                  #        NVWORD +2 (NVSAVE) = NORMAL VERB AND NOUN
000422:                                                                                                  #        DSPFLG (EBANKSAV) = PRIO FLAGWORD (INCLUDING EBANK)
000423:                                                                                                  #        DSPFLG +1 (MARKEBAN) = MARK FLAGWORD (INCLUDING EBANK)
000424:                                                                                                  #        DSPFLG +2 (EBANKTEM) = NORMAL FLAGWORD (INCLUDING EBANK)
000425:                                                                                                  #        CADRFLSH = PRIO USER'S CALL CADR +1 LOCATION
000426:                                                                                                  #        CADRFLSH +1 (MARKFLSH) = MARK USER'S CALL CADR +1 LOCATION
000427:                                                                                                  #        CADRFLSH +2 (TEMPFLSH) = NORMAL USER'S CALL CADR +1 LOCATION
000428:                                                                                                  #        PRIOTIME = TIME EACH PRIO REQUEST FIRST SENT OUT
000429:                                                                                                  #        OPTION1 = DESIRED OPTION FROM GOPERF4
000430:                                                                                                  #        FLAGWRD4 = BIT INFO FOR CONTROL OF ALL DISPLAY ROUTINES
000431:                                                                                                  #        DSPTEM1 = R1 INFO FOR ASTRONAUT FROM PERFORM DISPLAYS (NORMAL)
000432:
000433:                                                                                                  #  SUBROUTINES USED -- NVSUB, FLAGUP, FLAGDOWN, ENDOFJOB, BLANKSUB, ABORT, JOBWAKE, JOBSLEEP, FINDVAC, PRIOCHNG,
000434:                                                                                                  #        JAMTERM, NVSUBUSY, FLASHON, ENDIDLE, CHANG1, BANKJUMP, MAKECADR, NOVAC
000435:
000436:                                                                                                  #  DEBRIS -- (STORED INTO)
000437:                                                                                                  #        TEMPORARY TEMPORARIES -- A, Q, L, MPAC +2, MPAC +3, MPAC +4, MPAC +5, MPAC +6, RUPREG2, RUPTREG3, CYL,
000438:                                                                                                  #                EBANK, RUPTREG4, LOC, BANKSET, MODE, MPAC, MPAC +1, FACEREG
000439:                                                                                                  #        ERASABLES (SHARED AND USED WITH OTHER PROGRAMS) -- CADRSTOR, DSPLIST, LOC, DSPTEM1, OPTION1
000440:                                                                                                  #        ERASABLES (USED ONLY BY DISPLAY ROUTINES) -- NVWORD,+1,+2, DSPFLAG,+1,+2, CADRFLSH,+1,+2, PRIOTIME, FLAGWRD4,
000441:                                                                                                  #  Page 1463
000442:                                                                                                  #                R1SAVE, MARK2PAC
000443:
000444:                                                                                                  #  DEBRIS -- (USED BUT NOT STORED INTO) -- NOUNREG, VERBREG, LOCCTR, MONSAVE1
000445:
000446:                                                                                                  #  FLAGWORD DESCRIPTIONS --
000447:                                                                                                  #        FLAGWRD4 -- SEE DESCRIPTION UNDER LOG SECTION ERASABLE ASSIGNMENTS
000448:
000449:                                                                                                  #        DSPFLG, DSPFLG+1, DSPFLG+2
000450:                                                                                                  #        --------------------------
000451:                                                                                                  #        BITS 1  BLANK R1
000452:                                                                                                  #             2  BLANK R2
000453:                                                                                                  #             3  BLANK R3
000454:                                                                                                  #             4  FLASHING DISPLAY REQUESTED
000455:                                                                                                  #             5  PERFORM DISPLAY REQUESTED
000456:                                                                                                  #             6  -----                   EXDSPRET                GODSPRET
000457:                                                                                                  #             7  PRIO DISPLAY            -----                   -----
000458:                                                                                                  #             8  -----                   DEC MARK PERFORM        -----
000459:                                                                                                  #             9  EBANK
000460:                                                                                                  #            10  EBANK
000461:                                                                                                  #            11  EBANK
000462:                                                                                                  #            12  -----                   -----                   V99PASTE
000463:                                                                                                  #            13  2ND PART OF PERFORM
000464:                                                                                                  #            14  REFLASH OR REDO         -----                   REFLASH OR REDO
000465:                                                                                                  #            15  -----                   MARK REQUEST            -----
000466:
000467:                                                                                                  #  RESTARTING DISPLAYS --
000468:
000469:                                                                                                  #  RULES FOR THE DSKY OPERATOR --
000470:                                                                                                  #        1.  PROCEED AND TERMINATE SERVE AS RESPONSES TO REQUESTS FOR OPERATOR RESPONSE (FLASHING Y/N).  AS LONG
000471:                                                                                                  #            AS THERE IS ANY REQUEST AWAITING OPERATOR RESPONSE, ANY USE OF PROCEED OR TERMINATE WILL SERVE AS
000472:                                                                                                  #            RESPONSES TO THAT REQUEST.  CARE SHOULD BE EXERCISED IN ATTEMPTING TO KILL AN OPERATOR INITIATED MONITOR
000473:                                                                                                  #            WITH PROCEED AND TERMINATE FOR THIS REASON.
000474:                                                                                                  #        2.  THE ASTRONAUT MUST RESPOND TO A PRIORITY DISPLAY NO SOONER THAN 2 SECONDS FROM THE TIME THE
000475:                                                                                                  #            PROGRAM SENT OUT THE REQUEST FOR OPERATOR RESPONSE (THE ASTRONAUT WOULD SEE THIS DISPLAY FOR LESS TIME
000476:                                                                                                  #            DUE TO TIME IT TAKES TO GET DISPLAY SENT OUT.)  IF THE ASTRONAUT RESPONDS TOO SOON, THE PRIORITY DISPLAY
000477:                                                                                                  #            IS SENT OUT AGAIN -- AND AGAIN UNTIL AN ACCUMULATED 2 SECS FROM THE TIME THE FIRST PRIORITY DISPLAY
000478:                                                                                                  #            OUT.  THE SAME 2 SEC. DELAY WILL OCCUR AT 163.84 SECS OR IN ANY MULTIPLE OF THAT TIME DUE TO PROGRAM
000479:                                                                                                  #            CONSIDERATION.
000480:                                                                                                  #        3.  KEY RELEASE BUTTON --
000481:                                                                                                  #            A)  IF THE KEY RELEASE LIGHT IS ON, IT SIMPLY RELEASES THE KEYBOARD AND DISPLAY FOR INTERNAL USE.
000482:                                                                                                  #            B)  IF THE KEY RELEASE LIGHT IS OFF, AND IF SOME REQUEST FOR OPERATOR RESPONSE (FLASHING V/N) IS STILL
000483:                                                                                                  #                AWAITING RESPONSE THEN IT RE-ESTABLISHES THE DISPLAYS THAT ORIGINALLY REQUESTED RESPONSE.
000484:                                                                                                  #            IF AN OPERATOR WANTS THEREFORE TO RE-ESTABLISH BUT CONDITION (A) IS ENCOUNTERED, A SECOND DEPRESSION OF
000485:                                                                                                  #            KEY RELEASE BUTTON MAY BE NECESSARY.
000486:                                                                                                  #        4.  IT IS IMPORTANT TO ANSWER ALL REQUESTS FOR OPERATOR RESPONSE.
000487:                                                                                                  #        5.  IT IS ALWAYS GOOD PRACTICE TO TERMINATE AN EXTENDED VERB BEFORE ASKING FOR ANOTHER ONE OR THE SAME ONE
000488:                                                                                                  #            OVER AGAIN.
000489:
000490:                                                                                                  #  SPECIAL CONSIDERATONS --
000491:                                                                                                  #  Page 1464
000492:                                                                                                  #        1.  MPAC +2 SAVED ONLY IN MARK DISPLAYS
000493:                                                                                                  #        2.  GODSP(R), REGODSP(R), GOMARK(R) ALWAYS TURN ON THE FLASH IF ENTERED WITH A PASTE VERB REQUEST.
000494:                                                                                                  #        3.  ALL NORMAL DISPLAYS ARE RESTARTABLE EXCEPT GODSP(R), REGODSP(R)
000495:                                                                                                  #        4.  ALL EXTENDED VERBS WITH DISPLAYS SHOULD START WITH A TC TESTXACT AND FINISH WITH A TC ENDEXT.
000496:                                                                                                  #        5.  GODSP(R) AND REGODSP(R) MUST BE IN THE SAME EBANK AND SUPERBANK AS THE LAST NORMAL DISPLAY RESTARTED
000497:                                                                                                  #            BY A .1 RESTART PHASE CHANGE.
000498:                                                                                                  #        6.  IN ORDER TO SET UP A NON DISPLAY .1 RESTART POINT, THE USER MUST MAKE CERTAIN THAT RESTREG CONTAINS THE
000499:                                                                                                  #            CORRECT PRIORITY AND SUPERBANK AND THAT EBANKTEM CONTAINS THE CO
000500:                                                                                                  #        7.  IF CLEANDSP IS RESTARTED VIA A .1 PHASE CHANGE, CAF ZERO SHOULD BE EXECUTED BEFORE THE TC BANKCALL.
000501:
000502:                                                                                                  #  Page 1465
000503:                                                                                                  #  CALLING SEQUENCE FOR BLANKING
000504:                                                                                                  #                CAF     BITX            # X=1,2,3 BLANK R1,R2,R3 RESPECTIVELY
000505:                                                                                                  #                TC      BLANKET
000506:                                                                                                  #                ...     ...             # RETURN TO USER HERE
000507:                                                                                                  #  IN ORDER TO USE BLANKET CORRECTLY, THE USER MUST USE A DISPLAY ROUTINE THAT ENDS IN R FIRST FOLLOWED BY THE CALL
000508:                                                                                                  #  TO BLANKET AT THE IMMEDIATE RETURN LOC.
000509:    5526                                           BLOCK    02
000510:    4000                                           SETLOC   FFTAG4
000511:    4000                                           BANK
000512:
000513:    5526                                           COUNT    02/DSPLA
000514:
000515:    5526           54162        BLANKET            TS       MPAC       +6
000516:    5527           40160                           CS       PLAYTEM4
000517:    5530           70162                           MASK     MPAC       +6
000518:    5531           50161                           INDEX    MPAC       +5
000519:    5532           26160                           ADS      PLAYTEM4
000520:
000521:    5533           00002                           TC       Q
000522:
000523:    5534           04701        ENDMARK            TC       POSTJUMP
000524:    5535           20553                           CADR     MARKEND
000525:
000526:    5536           35021        CLEARMRK           CAF      ZERO
000527:    5537           55044                           TS       EXTVBACT
000528:
000529:    5540           00004                           INHINT
000530:    5541           45017                           CS       BIT1
000531:    5542           70100                           MASK     FLAGWRD4
000532:    5543           54100                           TS       FLAGWRD4
000533:
000534:    5544           00003                           RELINT
000535:    5545           00002                           TC       Q
000536:
000537:                                                                                                  #  *** ALL EXTENDED VERB ROUTINES THAT HAVE AT LEAST ONE FLASHING DISPLAY MUST TCF ENDMARK OR TCF ENDEXT WHEN
000538:                                                                                                  #  FINISHED.
000539:
000540: 10,2553                                           BANK     10
000541: 10,2000                                           SETLOC   DISPLAYS
000542: 10,2000                                           BANK
000543:
000544: 10,2553                                           COUNT    10/DSPLA
000545:
000546:                                                                                                  #  NTERONLY IS USED TO DIFFERENTIATE THE MARK ROUTINE WITH ONLY ONE RETURN TO THE USER FROM THE MARKING ROUTINE WITH
000547:                                                                                                  #  3 RETURNS TO THE USER.  THIS ROUTINE IS ONLY USED BY GOMARK1 AND GOMARK1R.
000548:
000549: 10,2553           05536        MARKEND            TC       CLEARMRK
000550: 10,2554           13643                           TCF      MARKOVER
000551:
000552:                                                                                                  #  Page 1466
000553: 10,2555           54155        GOMARK             TS       PLAYTEM1                              #  ENTRANCE FOR MARK GODSP
000554:
000555: 10,2556           35001        GOMARS             CAF      BIT15                                 #  BIT15 SET FOR ALL MARK REQUESTS
000556: 10,2557           12722                           TCF      GOFLASH2
000557:
000558: 10,2560           35021        KLEENEX            CAF      ZERO                                  #  CLEAN OUT EXTENDED VERBS
000559: 10,2561           54155        GOMARKF            TS       PLAYTEM1                              #  ENTRANCE FOR MARK GOFLASH
000560:
000561: 10,2562           33253                           CAF      MARKFMSK                              #  MARK, FLASH
000562: 10,2563           12722                           TCF      GOFLASH2
000563:
000564: 10,2564           54155        GOMARK2            TS       PLAYTEM1                              #  MARK GOPERFS-3 AST. RETURNS
000565: 10,2565           33742        MARKFORM           CAF      MPERFMSK                              #  MARK, PERFORM, FLASH
000566: 10,2566           12722                           TCF      GOFLASH2
000567:
000568: 10,2567           54155        GOMARK3            TS       PLAYTEM1                              #  USED FOR 3COMP DECIMAL PERFORM
000569: 10,2570           33727                           CAF      MARK3MSK
000570: 10,2571           12722                           TCF      GOFLASH2
000571:
000572: 10,2572           54155        GOMARK4            TS       PLAYTEM1
000573: 10,2573           33730                           CAF      MARK4MSK                              #  MARK,PERFORM,FLASH,BLANK
000574: 10,2574           12722                           TCF      GOFLASH2
000575:
000576: 10,2575           54155        GOMARKR            TS       PLAYTEM1                              #  ENTRANCE FOR MARK GODSPR
000577:
000578: 10,2576           35001                           CAF      BIT15
000579: 10,2577           12700                           TCF      GODSPR2
000580:
000581: 10,2600           54155        GOMARKFR           TS       PLAYTEM1                              #  ENTRANCE FOR MARK GOFLASHR
000582:
000583: 10,2601           33253                           CAF      MARKFMSK
000584: 10,2602           13061                           TCF      GODSPRS
000585:
000586: 10,2603           54155        GOMARK2R           TS       PLAYTEM1                              #  MARK GOPERFS-3 AST. RETS+ IMMEDIATE RET.
000587: 10,2604           33742                           CAF      MPERFMSK                              #  MARK, PERFORM, FLASH
000588: 10,2605           13061                           TCF      GODSPRS
000589:
000590: 10,2606           54155        GOMARK3R           TS       PLAYTEM1
000591: 10,2607           33727                           CAF      MARK3MSK
000592: 10,2610           13061                           TCF      GODSPRS
000593:
000594: 10,2611           35017        MAKEMARK           CAF      ONE
000595: 10,2612           03157                           TC       COPIES
000596:
000597: 10,2613           30100                           CA       FLAGWRD4                              #  IS NORM OR PRIO BUSY OR WAITING
000598: 10,2614           73743                           MASK     OCT34300
000599: 10,2615           10000                           CCS      A
000600: 10,2616           12654                           TCF      CHKPRIO
000601:
000602: 10,2617           30100                           CA       FLAGWRD4                              #  IS MARK SLEEPING DUE TO ASTRO BUSY?
000603:                                                                                                  #  Page 1467
000604: 10,2620           75007                           MASK     BIT9
000605:
000606: 10,2621           00006                           EXTEND
000607: 10,2622           12624                           BZF      MARKPLAY                              #  NO
000608:
000609: 10,2623           15217                           TCF      ENDOFJOB
000610:
000611: 10,2624           00004        MARKPLAY           INHINT
000612: 10,2625           45022                           CS       FIVE                                  #  RESET MARK OVER NORM, SET MARK
000613: 10,2626           70100                           MASK     FLAGWRD4
000614: 10,2627           65017                           AD       ONE
000615: 10,2630           54100                           TS       FLAGWRD4
000616: 10,2631           00003                           RELINT
000617:
000618: 10,2632           41070        GOGOMARK           CS       MARKFLAG                              #  PERFORM
000619: 10,2633           75013                           MASK     BIT5
000620: 10,2634           10000                           CCS      A
000621: 10,2635           12640                           TCF      MARKCOP
000622: 10,2636           40370                           CS       MARKNV
000623: 10,2637           54370                           TS       MARKNV
000624:
000625: 10,2640           35017        MARKCOP            CAF      ONE                                   #  MARK INDEX
000626: 10,2641           13040                           TCF      PRIOPLAY
000627:
000628: 10,2642           30165        COPYTOGO           CA       MPAC2SAV
000629: 10,2643           54156                           TS       MPAC       +2
000630:
000631: 10,2644           50164        COPYPACS           INDEX    COPINDEX
000632: 10,2645           33753                           CAF      PRIOOCT
000633: 10,2646           54162                           TS       GENMASK
000634:
000635: 10,2647           50164                           INDEX    COPINDEX
000636: 10,2650           31067                           CA       EBANKSAV                              #  Was CAF --- RSB 2004.
000637: 10,2651           54160                           TS       TEMPOR2                               #  ACTIVE EBANK AND FLAG
000638:
000639: 10,2652           54003                           TS       EBANK
000640:
000641: 10,2653           00002                           TC       Q
000642:
000643:                                                                                                  #  PINCHEK CHECKS TO SEE IF THE CURRENT MARK REQUEST IS MADE BY THE ASTRONAUT WHILE INTERUPTING A GOPLAY DISPLAY
000644:                                                                                                  #  (A NORMAL OR A PRIO).  IF THE ASTRONAUT TRIES TO MARK DURING A PRIO, THE CHECK FAIL LIGHT GOES ON AND THE MARK
000645:                                                                                                  #  REQUEST IS ENDED.  IF HE TRIES TO MARK DURING A NORM, THE MARK IS ALLOWED.  IN THIS CASE THE NORM IS PUT TO SLEEP
000646:                                                                                                  #  UNTIL ALL MARKING IS FINISHED.
000647:
000648:                                                                                                  #  IF THE MARK REQUEST COMES FROM THE PROGRAM DURING A TIME THE ASTRONAUT IS NOT INTERRUPTING A NORMAL OR A
000649:                                                                                                  #  PRIO, THE MARK REQUEST IS PUT TO SLEEP UNTIL THE PRESENT ACTIVE DISPLAY IS RESPONDED TO BY THE ASTRONAUT.
000650:
000651: 10,2654           30100        CHKPRIO            CA       FLAGWRD4                              #  MARK ATTEMPT DURING PRIO
000652: 10,2655           73476                           MASK     OCT24100
000653: 10,2656           10000                           CCS      A
000654: 10,2657           13676                           TCF      MARSLEEP
000655:
000656:                                                                                                  #  Page 1468
000657: 10,2660           40100                           CS       FLAGWRD4
000658: 10,2661           75015                           MASK     BIT3                                  #  SET MARK OVER NORM
000659: 10,2662           00004                           INHINT
000660: 10,2663           26100                           ADS      FLAGWRD4
000661:
000662: 10,2664           12756                           TCF      SETNORM
000663:
000664: 10,2665           30370        MARKPERF           CA       MARKNV
000665: 10,2666           74160                           MASK     VERBMASK
000666: 10,2667           13342                           TCF      NV50DSP
000667:
000668: 10,2670           54155        GODSP              TS       PLAYTEM1
000669:
000670: 10,2671           35021        GODSP2             CAF      ZERO
000671: 10,2672           12722                           TCF      GOFLASH2
000672:
000673: 10,2673           54155        GODSPRET           TS       PLAYTEM1                              #  ENTRANCE FOR A GODSP WITH A PASTE
000674:
000675: 10,2674           35012                           CAF      BIT6                                  #  SET BIT6 TO GO BACK TO USER AFTER NVSUB
000676: 10,2675           12722                           TCF      GOFLASH2
000677:
000678: 10,2676           54155        GODSPR             TS       PLAYTEM1
000679:
000680: 10,2677           35021        GODSPR1            CAF      ZERO
000681: 10,2700           54160        GODSPR2            TS       PLAYTEM4
000682:
000683: 10,2701           35021                           CAF      ZERO                                  #  * DON'T MOVE
000684: 10,2702           13063                           TCF      GODSPRS1
000685:
000686:                                                                                                  #  CLEANDSP IS USED FOR CLEARING OUT A NORMAL DISPLAY THAT IS PRESENTLY ACTIVE OR A NORMAL DISPLAY THAT IS
000687:                                                                                                  #  SET UP TO BE STARTED OR RESTARTED.
000688:
000689:                                                                                                  #  NORMALLY THE USER WILL NOT NEED TO USE THIS ROUTINE SINCE A NEW NORMAL DISPLAY AUTOMATICALLY CLEARS OUT AN
000690:                                                                                                  #  OLD DISPLAY.
000691:
000692:                                                                                                  #  CALLING SEQUENCE FOR CLEANDSP --
000693:
000694:                                                                                                  #                TC      BANKCALL
000695:                                                                                                  #                CADR    CLEANDSP
000696:
000697: 10,2703           35021        CLEANDSP           CAF      ZERO
000698: 10,2704           54155        REFLASH            TS       PLAYTEM1
000699:
000700: 10,2705           33726                           CAF      REDOMASK                              #  FLASH AND PERMIT
000701: 10,2706           12722                           TCF      GOFLASH2
000702:
000703: 10,2707           54155        REGODSP            TS       PLAYTEM1
000704:
000705: 10,2710           35002                           CAF      BIT14
000706: 10,2711           12722                           TCF      GOFLASH2
000707:
000708:                                                                                                  #  Page 1469
000709:
000710: 10,2712           54155        REGODSPR           TS       PLAYTEM1
000711: 10,2713           35002                           CAF      BIT14
000712: 10,2714           12700                           TCF      GODSPR2
000713:
000714: 10,2715           54155        CLOCPLAY           TS       PLAYTEM1
000715: 10,2716           33765                           CAF      CLOCKCON
000716: 10,2717           12722                           TCF      GOFLASH2
000717: 10,2720           54155        GOFLASH            TS       PLAYTEM1
000718:
000719: 10,2721           35014                           CAF      BIT4                                  #  LEAVE ONLY FLASH BIT SET
000720: 10,2722           54160        GOFLASH2           TS       PLAYTEM4
000721:
000722: 10,2723           03144                           TC       SAVELOCS
000723:
000724: 10,2724           00003                           RELINT
000725:
000726: 10,2725           12770                           TCF      MAKEPLAY                              #  BRANCH DIRECT WITH NO SEPARATE JOB CALL
000727:
000728: 10,2726           54155        PRIODSPR           TS       PLAYTEM1
000729:
000730: 10,2727           33745                           CAF      BITS7+4
000731: 10,2730           13061                           TCF      GODSPRS
000732:
000733: 10,2731           54155        PRIODSP            TS       PLAYTEM1
000734:
000735: 10,2732           33745        SETPRIO            CAF      BITS7+4
000736: 10,2733           12722                           TCF      GOFLASH2
000737:
000738: 10,2734           35021        MAKEPRIO           CAF      ZERO
000739: 10,2735           54164                           TS       COPINDEX
000740:
000741: 10,2736           03616                           TC       LINUSCHR
000742: 10,2737           12744                           TCF      HIPRIO                                #  LINUS RETURN
000743: 10,2740           30100                           CA       FLAGWRD4
000744: 10,2741           73764                           MASK     OCT20100                              #  IS PRIO IN ENDIDLE OR BUSY
000745: 10,2742           10000                           CCS      A
000746: 10,2743           13017                           TCF      PRIOBORT                              #  YES, ABORT
000747:
000748: 10,2744           30100        HIPRIO             CA       FLAGWRD4                              #  MARK ACTIVE
000749: 10,2745           77765                           MASK     OCT40400
000750: 10,2746           00006                           EXTEND
000751: 10,2747           12752                           BZF      ASKIFNRM                              #  NO
000752:
000753: 10,2750           35021        SETMARK            CAF      ZERO
000754: 10,2751           13216                           TCF      JOBXCHS
000755:
000756: 10,2752           30100        ASKIFNRM           CA       FLAGWRD4                              #  NORMAL ACTIVE
000757: 10,2753           73762                           MASK     OCT10200                              #  BITS 13+8
000758: 10,2754           00006                           EXTEND
000759:                                                                                                  #  Page 1470
000760: 10,2755           12760                           BZF      OKTOCOPY                              #  NO
000761:
000762: 10,2756           35017        SETNORM            CAF      ONE
000763: 10,2757           13216                           TCF      JOBXCHS
000764:
000765: 10,2760           03156        OKTOCOPY           TC       COPYNORM
000766: 10,2761           03427                           TC       WITCHONE
000767:
000768: 10,2762           05201                           TC       JOBWAKE
000769:
000770: 10,2763           03444                           TC       XCHTOEND
000771:
000772: 10,2764           30025        REDOPRIO           CA       TIME1                                 #  SAVE TIME PRIODSP SENT OUT
000773: 10,2765           55147                           TS       PRIOTIME
000774:
000775: 10,2766           35021        KEEPPRIO           CAF      ZERO                                  #  START UP PRIO DISPLAY
000776: 10,2767           13040                           TCF      PRIOPLAY
000777:
000778: 10,2770           30167        MAKEPLAY           CA       PRIORITY                              #  SAVE USER'S PRIORITY
000779: 10,2771           77674                           MASK     PRIO37
000780: 10,2772           54163                           TS       USERPRIO
000781:
000782: 10,2773           37670                           CAF      PRIO33                                #  RAISE PRIORITY FOR FAST JOBS AFTER WAKE
000783: 10,2774           05210                           TC       PRIOCHNG
000784:
000785: 10,2775           30160                           CA       PLAYTEM4                              #  IS IT MARK OR PRIO OR NORM
000786: 10,2776           73744                           MASK     BITS15+7
000787: 10,2777           10000                           CCS      A
000788: 10,3000           12734                           TCF      MAKEPRIO                              #  ITS PRIO
000789: 10,3001           13003                           TCF      IFLEGAL
000790: 10,3002           12611                           TCF      MAKEMARK                              #  ITS MARK
000791:
000792: 10,3003           35016        IFLEGAL            CAF      TWO
000793: 10,3004           54164                           TS       COPINDEX
000794:
000795: 10,3005           03616                           TC       LINUSCHR
000796:
000797: 10,3006           13021                           TCF      OKTOPLAY                              #  LINUS RETURN
000798: 10,3007           41071                           CS       EBANKTEM
000799: 10,3010           75014                           MASK     BIT4
000800: 10,3011           10000                           CCS      A
000801: 10,3012           13021                           TCF      OKTOPLAY                              #  NO
000802:
000803: 10,3013           30100                           CA       FLAGWRD4                              #  WAS NORM ASLEEP
000804: 10,3014           73735                           MASK     NBUSMASK                              #  ARE ANY NORMS ASLEEP
000805: 10,3015           00006                           EXTEND
000806: 10,3016           13021                           BZF      OKTOPLAY                              #  NO
000807:
000808: 10,3017           05721        PRIOBORT           TC       P00DOO
000809: 10,3020           01502                           OCT      1502
000810:                                                                                                  #  Page 1471
000811:
000812: 10,3021           03160        OKTOPLAY           TC       COPIES2
000813:
000814: 10,3022           30163                           CA       USERPRIO
000815: 10,3023           00006                           EXTEND
000816: 10,3024           04007                           ROR      SUPERBNK
000817: 10,3025           54366                           TS       RESTREG
000818:
000819: 10,3026           30100                           CA       FLAGWRD4                              #  PRIO OR MARK GOING
000820: 10,3027           73736                           MASK     PMMASK
000821: 10,3030           10000                           CCS      A
000822: 10,3031           13176                           TCF      GOSLEEPS                              #  MARK GOING
000823:
000824: 10,3032           13034                           TCF      +2
000825: 10,3033           13176                           TCF      GOSLEEPS
000826:
000827:                                                                                                  #  COULD PUT NORM BUSY CHECK HERE TO SAVE TIME
000828:
000829: 10,3034           03427                           TC       WITCHONE                              #  IS IT NVSUB BUSY, ENDIDLE OR NOONE
000830: 10,3035           05201                           TC       JOBWAKE
000831:
000832: 10,3036           03444                           TC       XCHTOEND
000833:
000834: 10,3037           35016        PLAYJUM1           CAF      TWO
000835: 10,3040           54164        PRIOPLAY           TS       COPINDEX
000836:
000837: 10,3041           13312                           TCF      GOPLAY
000838:
000839: 10,3042           54155        EXDSPRET           TS       PLAYTEM1
000840:
000841: 10,3043           37703                           CAF      BIT15+6
000842: 10,3044           12722                           TCF      GOFLASH2
000843:
000844: 10,3045           55045        GOPERF1            TS       NORMTEM1                              #  STORE DESIRED CHECKLIST VALUE
000845: 10,3046           33720                           CAF      V01N25                                #  USED TO DISPLAY CHECKLIST VALUE IN R1
000846:
000847: 10,3047           54155        GOPERFS            TS       PLAYTEM1
000848:
000849: 10,3050           33717                           CAF      PERFMASK                              #  LEAVE ONLY FLASH, PERFORM, BLANKING
000850: 10,3051           12722                           TCF      GOFLASH2
000851:
000852: 10,3052           54155        GOPERF2            TS       PLAYTEM1                              #  DESIRED VERB-NOUN TO DISPLAY R1,R2,R3
000853:
000854: 10,3053           33723                           CAF      PERF2MSK
000855: 10,3054           12722                           TCF      GOFLASH2
000856:
000857: 10,3055           03137        GOPERF4            TC       PURRS4
000858:
000859: 10,3056           12722                           TCF      GOFLASH2
000860:
000861: 10,3057           54155        GOFLASHR           TS       PLAYTEM1
000862:                                                                                                  #  Page 1472
000863: 10,3060           35014                           CAF      BIT4                                  #  LEAVE ONLY FLASH BIT SET
000864: 10,3061           54160        GODSPRS            TS       PLAYTEM4
000865:
000866: 10,3062           36214                           CAF      THREE
000867:
000868: 10,3063           00004        GODSPRS1           INHINT                                         #  IMMEDIATE RETURN IS CALL CADR +4
000869: 10,3064           54072                           TS       RUPTREG3
000870:
000871: 10,3065           30167                           CA       PRIORITY                              #  MAKE DISPLAY ONE HIGHER THAN USER
000872: 10,3066           77674                           MASK     PRIO37
000873: 10,3067           54063                           TS       NEWPRIO
000874:
000875: 10,3070           30160                           CA       PLAYTEM4                              #  IS THIS A FLASHING R DISPLAY
000876: 10,3071           75014                           MASK     BIT4
000877: 10,3072           10000                           CCS      A
000878: 10,3073           13101                           TCF      VACDSP                                #  YES, MAKE DSPLAY JOB A VAC
000879: 10,3074           30063                           CA       NEWPRIO                               #  NO, MAKE DSPLAY JOB A NOVAC
000880: 10,3075           05134                           TC       NOVAC
000881: 10,3076  0003777                                  EBANK=   WHOCARES
000882: 10,3076           02770 20067                     2CADR    MAKEPLAY
000883:
000884: 10,3100           13107                           TCF      BOTHJOBS
000885:
000886: 10,3101           30006        VACDSP             CA       BBANK
000887: 10,3102           00006                           EXTEND
000888: 10,3103           04007                           ROR      SUPERBNK
000889: 10,3104           54001                           TS       L
000890: 10,3105           33761                           CAF      MAKEGEN
000891: 10,3106           05160                           TC       SPVAC
000892:
000893: 10,3107           03144        BOTHJOBS           TC       SAVELOCS                              #  COPY TEMPS INTO PERMANENT REGISTERS
000894:
000895: 10,3110           00006                           EXTEND                                         #  SAVE NVWORD AND USER'S MPAC +2
000896: 10,3111           30156                           DCA      MPAC       +1
000897: 10,3112           50064                           INDEX    LOCCTR
000898: 10,3113           52156                           DXCH     MPAC       +1
000899:
000900: 10,3114           00006                           EXTEND                                         #  SAVE USER'S CADR, FLAGS AND EBANK
000901: 10,3115           30160                           DCA      MPAC       +3
000902: 10,3116           50064                           INDEX    LOCCTR
000903: 10,3117           52160                           DXCH     MPAC       +3
000904:
000905: 10,3120           30064                           CA       LOCCTR
000906: 10,3121           54161                           TS       MPAC       +5
000907: 10,3122           03151                           TC       SAVELOCR
000908: 10,3123           00003                           RELINT
000909: 10,3124           14704                           TCF      BANKJUMP                              #  CALL CADR +4
000910:
000911:                                                                                                  #  Page 1473
000912: 10,3125           55045        GOPERF1R           TS       NORMTEM1                              #  DESIRED CHECKLIST VALUE
000913:
000914: 10,3126           33720                           CAF      V01N25                                #  DISPLAYS CHECKLIST VALUE IN R1
000915:
000916: 10,3127           54155        GOPERFRS           TS       PLAYTEM1
000917:
000918: 10,3130           33717                           CAF      PERFMASK                              #  LEAVE ONLY FLASH, PERFORM, BLANKING
000919: 10,3131           13061                           TCF      GODSPRS
000920:
000921: 10,3132           54155        GOPERF2R           TS       PLAYTEM1                              #  DESIRED VERB-NOUN TO DISPLAY R1,R2,R3
000922:
000923: 10,3133           33723                           CAF      PERF2MSK
000924: 10,3134           13061                           TCF      GODSPRS
000925:
000926: 10,3135           03137        GOPERF4R           TC       PURRS4
000927:
000928: 10,3136           13061                           TCF      GODSPRS
000929:
000930: 10,3137           55131        PURRS4             TS       OPTION1                               #  DESIRED OPTION CODE
000931:
000932: 10,3140           33724                           CAF      V04N06
000933: 10,3141           54155                           TS       PLAYTEM1
000934:
000935: 10,3142           33725                           CAF      PERF4MSK                              #  FLASH, PERFORM AND EBANK R3
000936: 10,3143           00002                           TC       Q
000937:
000938: 10,3144           00004        SAVELOCS           INHINT
000939:
000940: 10,3145           43734                           CS       OCT3400                               #  EBANK BITS
000941: 10,3146           70160                           MASK     PLAYTEM4
000942: 10,3147           60003                           AD       EBANK
000943: 10,3150           54160                           TS       PLAYTEM4
000944:
000945: 10,3151           22002        SAVELOCR           LXCH     Q
000946:
000947: 10,3152           04711                           TC       MAKECADR
000948: 10,3153           54157                           TS       PLAYTEM3
000949:
000950: 10,3154           60072                           AD       RUPTREG3                              #  NOT USED FOR NON R ROUTINES
000951: 10,3155           00001                           TC       L
000952:
000953: 10,3156           35021        COPYNORM           CAF      ZERO
000954: 10,3157           54164        COPIES             TS       COPINDEX
000955: 10,3160           00004        COPIES2            INHINT
000956: 10,3161           30160                           CA       PLAYTEM4                              #  FLAGWORD
000957:
000958: 10,3162           50164                           INDEX    COPINDEX
000959: 10,3163           55067                           TS       EBANKSAV                              #  EQUIV TO DSPFLG
000960: 10,3164           73752                           MASK     CADRMASK                              #  FLASH AND GODSPRET
000961: 10,3165           00006                           EXTEND
000962:                                                                                                  #  Page 1474
000963: 10,3166           13172                           BZF      SKIPADD
000964:
000965: 10,3167           30157                           CA       PLAYTEM3
000966: 10,3170           50164                           INDEX    COPINDEX
000967: 10,3171           54372                           TS       CADRFLSH
000968:
000969: 10,3172           30155        SKIPADD            CA       PLAYTEM1                              #  VERB NOUN
000970: 10,3173           50164                           INDEX    COPINDEX
000971: 10,3174           54367                           TS       NVWORD
000972:
000973: 10,3175           13453                           TCF      RELINTQ
000974:
000975: 10,3176           50164        GOSLEEPS           INDEX    COPINDEX
000976: 10,3177           33753                           CA       PRIOOCT
000977: 10,3200           73202                           MASK     WAITMASK
000978: 10,3201           07722                           TC       UPENT2
000979: 10,3202           03004        WAITMASK           OCT      3004
000980: 10,3203           45017                           CS       ONE
000981: 10,3204           60164                           AD       COPINDEX
000982: 10,3205           54154                           TS       FACEREG
000983:
000984: 10,3206           50154        XCHSLEEP           INDEX    FACEREG
000985: 10,3207           33732                           CAF      WAKECADR
000986: 10,3210           00004                           INHINT
000987: 10,3211           05201                           TC       JOBWAKE                               #  FIND CADR IN JOB AREA
000988:
000989: 10,3212           03444                           TC       XCHTOEND                              #  CAUSES AWAKENED JOB TO GO TO ENDOFJOB
000990:
000991: 10,3213           50154                           INDEX    FACEREG                               #  REPLACE SAME CADR BUT NEW JOB AREA
000992: 10,3214           33732                           CAF      WAKECADR
000993: 10,3215           15175                           TCF      JOBSLEEP
000994:
000995: 10,3216           54154        JOBXCHS            TS       FACEREG                               #  CONTROLS TYPE OF DISPLAY PUT TO SLEEP
000996: 10,3217           03427                           TC       WITCHONE
000997: 10,3220           05201                           TC       JOBWAKE
000998: 10,3221           30154                           CA       FACEREG
000999: 10,3222           50064                           INDEX    LOCCTR
001000: 10,3223           54154                           TS       FACEREG
001001:
001002: 10,3224           33237                           CAF      XCHQADD
001003: 10,3225           03445                           TC       XCHNYLOC
001004:
001005: 10,3226           50154                           INDEX    FACEREG
001006: 10,3227           33754                           CA       MARKOCT
001007: 10,3230           73756                           MASK     IDLESLEP
001008:
001009: 10,3231           07740                           TC       DOWNENT2
001010: 10,3232           74004        IDLEMASK           OCT      74004                                 #  * DON'T MOVE
001011: 10,3233           50154                           INDEX    FACEREG                               #  BIT SHOWS PRIO INTERRUPTED NORM OR MARK
001012: 10,3234           35013                           CA       BIT5                                  #  BIT5 FOR MARK, BIT4 FOR NORMAL
001013:                                                                                                  #  Page 1475
001014: 10,3235           65015                           AD       FOUR
001015: 10,3236           07722                           TC       UPENT2                                #  FLAG ROUTINE DOES RELINT
001016: 10,3237           03206        XCHQADD            GENADR   XCHSLEEP                              #  * DON'T MOVE
001017: 10,3240           30100                           CA       FLAGWRD4
001018: 10,3241           75015                           MASK     BIT3                                  #  MARK OVER NORM?
001019: 10,3242           10000                           CCS      A
001020: 10,3243           02624        GENMARK            TC       MARKPLAY                              #  USED AS GENADR FOR JOBWAKE
001021: 10,3244           12760                           TCF      OKTOCOPY
001022:
001023: 10,3245           35021        MARKWAKE           CAF      ZERO
001024: 10,3246           54160        WAKEPLAY           TS       TEMPOR2
001025:
001026: 10,3247           50160                           INDEX    TEMPOR2
001027: 10,3250           33746                           CA       BITS5+11
001028: 10,3251           65015                           AD       FOUR
001029: 10,3252           07740                           TC       DOWNENT2
001030: 10,3253           40010        MARKFMSK           OCT      40010                                 #  *** DON'T MOVE
001031:
001032: 10,3254           50160                           INDEX    TEMPOR2
001033: 10,3255           33732                           CAF      WAKECADR
001034: 10,3256           00004                           INHINT
001035: 10,3257           05201                           TC       JOBWAKE
001036:
001037: 10,3260           13557                           TCF      ENDRET
001038:
001039:                                                                                                  #  ALL .1 RESTARTS BRANCH DIRECTLY TO INITDSP.  NORMAL DISPLAYS ARE THE ONLY DISPLAYS ALLOWED TO USE .1 RESTARTS
001040:                                                                                                  #  INITDSP FIRST RESTORES THE EBANK AND THE SUPERBANK TO THE MOST RECENT NORMAL EBANK AND SUPERBANK.
001041:
001042:                                                                                                  #  IF THE MOST RECENT NORMAL DISPLAY REQUEST WAS NOT FINISHED, CONTROL IS SENT BACK TO THE LAST NORMAL USER.
001043:                                                                                                  #  OTHERWISE THE NORMAL DISPLAY SET UP IN THE NORMAL DISPLAY REGS IS STARTED UP IMMEDIATELY.
001044:
001045: 10,3261           31071        INITDSP            CA       EBANKTEM                              #  RESTORE MOST RECENT NORMAL EBANK
001046: 10,3262           54003                           TS       EBANK
001047:
001048: 10,3263           30366                           CA       RESTREG                               #  SUPERBANK AND JOB PRIORITY
001049: 10,3264           04773                           TC       SUPERSW                               #  RESTORE SUPERBANK
001050:
001051: 10,3265           77674                           MASK     PRIO37
001052: 10,3266           05210                           TC       PRIOCHNG
001053:
001054: 10,3267           46214                           CS       THREE
001055: 10,3270           60374                           AD       TEMPFLSH
001056: 10,3271           14704                           TCF      BANKJUMP
001057:
001058: 10,3272           00003        PINBRNCH           RELINT                                         #  FOR GOPIN USERS
001059: 10,3273           31072                           CA       MARK2PAC                              #  NEEDED TO SAVE MPAC +2 FOR MARK USERS
001060: 10,3274           54156                           TS       MPAC       +2                         #  ONLY
001061:
001062: 10,3275           30100                           CA       FLAGWRD4                              #  PINBRANCH CONDITION
001063: 10,3276           77707                           MASK     PINMASK
001064: 10,3277           10000                           CCS      A
001065:                                                                                                  #  Page 1476
001066: 10,3300           13303                           TCF      +3
001067: 10,3301           13713                           TCF      ERASER                                #  ** NOTHING IN ENDIDLE
001068: 10,3302           12624                           TCF      MARKPLAY
001069:
001070: 10,3303           05546        NORMBNCH           TC       UPFLAG                                #  SET PINBRANCH BIT
001071: 10,3304           00105                           ADRES    PINBRFLG
001072:
001073: 10,3305           35002                           CAF      BIT14                                 #  PRIO INTERRUPTED
001074: 10,3306           70100                           MASK     FLAGWRD4
001075: 10,3307           10000                           CCS      A
001076: 10,3310           12766                           TCF      KEEPPRIO
001077:
001078: 10,3311           13037                           TCF      PLAYJUM1
001079:
001080: 10,3312           02644        NVDSP              TC       COPYPACS
001081:
001082: 10,3313           30160                           CA       TEMPOR2                               #  SET UP BLANK BITS FOR NVMONOPT IN CASE
001083: 10,3314           75023                           MASK     SEVEN                                 #  USER REQUESTS BLANKING MONITOR
001084: 10,3315           54001                           TS       L
001085:
001086: 10,3316           45003                           CS       BIT13
001087: 10,3317           50164                           INDEX    COPINDEX
001088: 10,3320           71067                           MASK     DSPFLG
001089: 10,3321           50164                           INDEX    COPINDEX
001090: 10,3322           55067                           TS       DSPFLG
001091:
001092: 10,3323           75010                           MASK     BIT8                                  #  BIT8 SET IF DEC MARK PERFORM DISPLAY
001093: 10,3324           54141                           TS       TEM1
001094:
001095: 10,3325           30156                           CA       MPAC       +2
001096: 10,3326           54165                           TS       MPAC2SAV
001097:
001098: 10,3327           55072                           TS       MARK2PAC                              #  * FOR DISK ONLY *
001099: 10,3330           50164                           INDEX    COPINDEX
001100: 10,3331           10367                           CCS      NVWORD
001101: 10,3332           13341                           TCF      NVDSP1
001102: 10,3333           13455                           TCF      CLEANEND
001103: 10,3334           40370                           CS       MARKNV
001104: 10,3335           54370                           TS       MARKNV                                #  IN CASE MARKPLAY AWAKENED AFTER SLEEPING
001105: 10,3336           76043                           MASK     LOW7
001106: 10,3337           63737                           AD       V05N00M1
001107: 10,3340           60141                           AD       TEM1
001108: 10,3341           65017        NVDSP1             AD       ONE
001109: 10,3342           04171        NV50DSP            TC       NVMONOPT
001110: 10,3343           13467                           TCF      REST                                  #  IF BUSY
001111:
001112: 10,3344           04447                           TC       FLASHOFF                              #  IN CASE OF EXTENDED VERB NON-FLASH
001113:
001114: 10,3345           02642                           TC       COPYTOGO                              #  MPACS DESTROYED BY NVSUB
001115: 10,3346           05560                           TC       DOWNFLAG                              #  UNSET SLEEPING BITS
001116: 10,3347           00102                           ADRES    MRKNVFLG
001117:                                                                                                  #  Page 1477
001118: 10,3350           05560                           TC       DOWNFLAG
001119: 10,3351           00103                           ADRES    NRMNVFLG
001120: 10,3352           05560                           TC       DOWNFLAG
001121: 10,3353           00104                           ADRES    PRONVFLG
001122: 10,3354           30160        BLANKCHK           CA       TEMPOR2                               #  BLANK BITS 1,2,3 IF SET
001123: 10,3355           04271                           TC       BLANKSUB
001124: 10,3356           13312                           TCF      NVDSP
001125: 10,3357           35013        PERFCHEK           CAF      BIT5                                  #  BIT 5 FOR PERFORM
001126: 10,3360           70160                           MASK     TEMPOR2
001127: 10,3361           10000                           CCS      A                                     #  IS THIS A GOPERF DISPLAY
001128: 10,3362           13405                           TCF      1STOR2ND                              #  YES
001129:
001130: 10,3363           35014        GOANIDLE           CAF      BIT4
001131: 10,3364           70160                           MASK     TEMPOR2
001132: 10,3365           10000                           CCS      A
001133: 10,3366           13502                           TCF      FLASHSUB                              #  IT IS
001134:
001135: 10,3367           40160                           CS       TEMPOR2                               #  IS THIS A GODSPRET
001136: 10,3370           75012                           MASK     BIT6
001137: 10,3371           10000                           CCS      A
001138: 10,3372           13377                           TCF      ISITN00
001139:
001140: 10,3373           50164                           INDEX    COPINDEX
001141: 10,3374           30372                           CA       CADRFLSH
001142: 10,3375           54157                           TS       MPAC       +3
001143: 10,3376           13575                           TCF      ENDIT
001144:
001145: 10,3377           50164        ISITN00            INDEX    COPINDEX                              #  IS THIS A PASTE
001146: 10,3400           30367                           CA       NVWORD
001147: 10,3401           76043                           MASK     LOW7                                  #  CHECK MADE FOR PINBRNCH AND PRIO ON MARK
001148: 10,3402           00006                           EXTEND
001149: 10,3403           13502                           BZF      FLASHSUB                              #  YES, ASSUME PASTE ALWAYS ON FLASH
001150:
001151: 10,3404           15217                           TCF      ENDOFJOB                              #  NOT FLASH, NOT GOPERF, THEREFORE EXIT
001152:
001153: 10,3405           30160        1STOR2ND           CA       TEMPOR2
001154: 10,3406           75003                           MASK     BIT13
001155: 10,3407           10000                           CCS      A
001156: 10,3410           13363                           TCF      GOANIDLE                              #  SECOND
001157:
001158: 10,3411           35003                           CA       BIT13
001159: 10,3412           50164                           INDEX    COPINDEX
001160: 10,3413           27067                           ADS      DSPFLG
001161:
001162: 10,3414           22007                           ZL
001163: 10,3415           00006                           EXTEND                                         #  IS IT MARK
001164: 10,3416           62665                           BZMF     MARKPERF                              #  YES
001165: 10,3417           75004                           MASK     BIT12
001166: 10,3420           00006                           EXTEND
001167:                                                                                                  #  Page 1478
001168: 10,3421           13425                           BZF      V50PASTE
001169: 10,3422           41145                           CS       NVWORD1                               #  NVOWRD1= -0 IS V97.  NVWORD1= -400 IS V99
001170: 10,3423           63763                           AD       V97N00
001171: 10,3424           13342                           TCF      NV50DSP
001172: 10,3425           33722        V50PASTE           CAF      V50N00
001173: 10,3426           13342                           TCF      NV50DSP                               #  DISPLAY SECOND PART OF GOPERF
001174:
001175: 10,3427           45013        WITCHONE           CS       BIT5                                  #  TURN OFF KEY RELEASE LIGHT
001176: 10,3430           00006                           EXTEND
001177: 10,3431           03011                           WAND     DSALMOUT
001178:
001179: 10,3432           30100                           CA       FLAGWRD4
001180: 10,3433           73740                           MASK     NVBUSMSK                              #  IS IT NVSUB ALEEP
001181: 10,3434           10000                           CCS      A
001182: 10,3435           35017                           CAF      ONE
001183: 10,3436           54001                           TS       L
001184: 10,3437           35021                           CAF      ZERO
001185: 10,3440           50001                           INDEX    L
001186: 10,3441           57042                           XCH      CADRSTOR
001187:
001188: 10,3442           00004                           INHINT
001189: 10,3443           00002                           TC       Q
001190:
001191: 10,3444           34233        XCHTOEND           CAF      ENDINST                               #  TC ENDOFJOB REPLACES GENADR IN LOC FOR
001192: 10,3445           56064        XCHNYLOC           XCH      LOCCTR                                #  WAS THIS ADDRESS SLEEPING
001193: 10,3446           00006                           EXTEND
001194: 10,3447           63453                           BZMF     RELINTQ                               #  NO
001195: 10,3450           56064                           XCH      LOCCTR                                #  YES
001196: 10,3451           50064                           INDEX    LOCCTR
001197: 10,3452           54164                           TS       LOC
001198:
001199: 10,3453           00003        RELINTQ            RELINT
001200: 10,3454           00002                           TC       Q                                     #  BACK TO USER
001201:
001202: 10,3455           37667        CLEANEND           CAF      PRIO32                                #  ONE LOWER THAN DISPLAYS SLEEPING
001203: 10,3456           05147                           TC       FINDVAC
001204: 10,3457     0371                                  EBANK=   NVSAVE
001205: 10,3457           04245 04060                     2CADR    JAMTERM
001206:
001207: 10,3461           13503                           TCF      FLASHSUB   +1
001208:
001209: 10,3462           30100        ISITPRIO           CA       FLAGWRD4
001210: 10,3463           73510                           MASK     ITISMASK                              #  IS PINBRFLG, MARKIDFLG SET
001211: 10,3464           00006                           EXTEND
001212: 10,3465           13017                           BZF      PRIOBORT
001213: 10,3466           15217                           TCF      ENDOFJOB
001214: 10,3467           11042        REST               CCS      CADRSTOR                              #  IS SOMEONE IN ENDIDLE
001215: 10,3470           15217                           TCF      ENDOFJOB                              #  YES
001216:                                                                                                  #  Page 1479
001217: 10,3471           13473                           TCF      RESTSLEP
001218:
001219: 10,3472           15217                           TCF      ENDOFJOB
001220:
001221: 10,3473           30162        RESTSLEP           CA       GENMASK                               #  SET NVSLEEP BITS
001222: 10,3474           73741                           MASK     ASTROMSK
001223: 10,3475           07722                           TC       UPENT2
001224: 10,3476           24100        OCT24100           OCT      24100                                 #  *** DON'T MOVE
001225:
001226: 10,3477           50164                           INDEX    COPINDEX
001227: 10,3500           33731                           CAF      NVCADR
001228: 10,3501           04456                           TC       NVSUBUSY                              #  BUSY OR ABORT IF ILLEGAL
001229:
001230: 10,3502           04443        FLASHSUB           TC       FLASHON
001231:
001232: 10,3503           30164                           CA       COPINDEX                              #  COPINDEX DESTROYED BY ENDIDLE
001233: 10,3504           54157                           TS       COPMPAC
001234:
001235: 10,3505           30162                           CA       GENMASK
001236: 10,3506           73232                           MASK     IDLEMASK
001237: 10,3507           07722                           TC       UPENT2
001238: 10,3510           40040        ITISMASK           OCT      40040                                 #  *** ENDIDLE ALLOW *** DON'T MOVE
001239:
001240: 10,3511           31073                           CA       R1SAVE                                #  IS THIS A REPEAT AND RETURN DISPLAY
001241: 10,3512           50164                           INDEX    COPINDEX
001242: 10,3513           75015                           MASK     BIT3
001243: 10,3514           10000                           CCS      A
001244: 10,3515           13602                           TCF      UNSETR1                               #  YES
001245:
001246: 10,3516           11042                           CCS      CADRSTOR                              #  SEE IF SOMEONE ALREADY IN ENDIDLE
001247: 10,3517           13462                           TCF      ISITPRIO
001248: 10,3520           13522                           TCF      +2
001249: 10,3521           13462                           TCF      ISITPRIO
001250:
001251: 10,3522           04223                           TC       ENDIDLE
001252: 10,3523           13614        IDLERET1           TCF      TERMATE
001253:
001254: 10,3524           13633                           TCF      PROCEED                               #  ENDIDLE RETURNS HERE ON PROCEED
001255:
001256: 10,3525           43750                           CS       LOWLOAD
001257: 10,3526           60154                           AD       MPAC                                  #  VERBREG
001258: 10,3527           00006                           EXTEND
001259: 10,3530           26000                           DIM      A
001260: 10,3531           00006                           EXTEND
001261: 10,3532           13703                           BZF      LOADITIS                              #  V21 OR V22 OR V23 ON DSKY
001262:
001263: 10,3533           35016        OKTOENT            CAF      TWO
001264: 10,3534           54161        ENDOUT             TS       OUTHERE
001265: 10,3535           30100                           CA       FLAGWRD4                              #  CHECK NATURE OF ENDIDLE RETURN
001266: 10,3536           74105                           MASK     OCT60000
001267:                                                                                                  #  Page 1480
001268: 10,3537           10000                           CCS      A
001269: 10,3540           13543                           TCF      TIMECHEK                              #  PRIO ENDIDLE RETURN
001270: 10,3541           13651                           TCF      NORMRET                               #  NORMAL ENDIDLE RETURN
001271: 10,3542           13635                           TCF      MARKRET                               #  MARK ENDIDLE RETURN
001272:
001273: 10,3543           40025        TIMECHEK           CS       TIME1
001274: 10,3544           61147                           AD       PRIOTIME
001275: 10,3545           10000                           CCS      A
001276: 10,3546           40000                           COM
001277: 10,3547           67700                           AD       OCT37776
001278: 10,3550           65017                           AD       ONE
001279: 10,3551           63774                           AD       -2SEC
001280: 10,3552           00006                           EXTEND
001281: 10,3553           62766                           BZMF     KEEPPRIO
001282:
001283: 10,3554           13651                           TCF      NORMRET
001284:
001285: 10,3555           35017        NORMWAKE           CAF      ONE
001286: 10,3556           13246                           TCF      WAKEPLAY
001287:
001288: 10,3557           10161        ENDRET             CCS      OUTHERE
001289: 10,3560           65017                           AD       ONE
001290: 10,3561           13563                           TCF      +2                                    #  NORMAL ENDIDLE EXIT
001291: 10,3562           15217                           TCF      ENDOFJOB
001292: 10,3563           50157                           INDEX    COPMPAC
001293: 10,3564           60372                           AD       CADRFLSH
001294: 10,3565           54157                           TS       MPAC       +3
001295:
001296: 10,3566           30162                           CA       GENMASK                               #  REMOVE ENDIDLE AND PINBRANCH BITS
001297: 10,3567           73571                           MASK     PINIDMSK
001298: 10,3570           07740                           TC       DOWNENT2
001299: 10,3571           74044        PINIDMSK           OCT      74044                                 #  *** DON'T MOVE
001300:
001301: 10,3572           46214                           CS       THREE                                 #  BLANK EVERYTHING EXCEPT MM
001302: 10,3573           04170                           TC       NVSUB
001303: 10,3574           13575                           TCF      +1
001304:
001305: 10,3575           30163        ENDIT              CA       USERPRIO                              #  RETURN TO USER'S PRIORITY
001306: 10,3576           77674                           MASK     PRIO37
001307: 10,3577           05210                           TC       PRIOCHNG
001308: 10,3600           30157                           CA       MPAC       +3
001309: 10,3601           14704                           TCF      BANKJUMP
001310:
001311: 10,3602           50164        UNSETR1            INDEX    COPINDEX                              #  RESET REPEAT AND RETURN REQUEST
001312: 10,3603           45015                           CS       BIT3
001313: 10,3604           71073                           MASK     R1SAVE
001314: 10,3605           55073                           TS       R1SAVE
001315: 10,3606           35021                           CAF      ZERO                                  #  *** 205 ONLY MARKBRAN USERS IN
001316: 10,3607           04773                           TC       SUPERSW                               #  SUPERBANK 0
001317:                                                                                                  #  Page 1481
001318:
001319: 10,3610           36214                 -1        CAF      THREE                                 #  RETURN TO USER'S IMMEDIATE RETURN LOC
001320: 10,3611           50164        IMMEDRET           INDEX    COPINDEX
001321: 10,3612           60372                           AD       CADRFLSH
001322: 10,3613           14704                           TCF      BANKJUMP
001323:
001324: 10,3614           35021        TERMATE            CAF      ZERO                                  #  ASTRONAUT TERMINATE (V34) RETURNS TO
001325: 10,3615           13534                           TCF      ENDOUT
001326:
001327: 10,3616           40160        LINUSCHR           CS       PLAYTEM4                              #  IS THIS A LINUS
001328: 10,3617           75002                           MASK     BIT14
001329: 10,3620           10000                           CCS      A
001330: 10,3621           16706                           TCF      Q+1                                   #  NO
001331: 10,3622           40157                           CS       PLAYTEM3                              #  YES, IS IT ALREADY IN ENDIDLE
001332: 10,3623           50164                           INDEX    COPINDEX
001333: 10,3624           60372                           AD       CADRFLSH
001334: 10,3625           00006                           EXTEND
001335: 10,3626           13630                           BZF      +2                                    #  YES
001336:
001337: 10,3627           00002                           TC       Q                                     #  NO
001338: 10,3630           11012                           CCS      DSPLOCK                               #  IS THE ASTRONAUT BUSY
001339: 10,3631           05217                           TC       ENDOFJOB                              #  END THE NEW DISPLAY, IT'S ALREADY ACTIVE
001340: 10,3632           00002                           TC       Q
001341:
001342:                                                                                                  #  MORE LOGIC COULD BE INCORPORATED HERE TO MAKE SURE A RECYCLE IS A RECYCLE AND CONVERSELY THAT A LOAD IS A LOAD
001343:
001344: 10,3633           35017        PROCEED            CAF      ONE                                   #  ASTRONAUT PROCEED (V33) RETURNS
001345: 10,3634           13534                           TCF      ENDOUT
001346:
001347:                                                                                                  #  LASTPLAY CHECKS TO SEE IF (1) THE LAST NORMAL DISPLAY WAS EITHER INTERRUPTED BY A PRIO OR A MARK (MARK
001348:                                                                                                  #  COULD ONLY HAPPEN DURING PINBRANCH) OR IF (2) THE LAST NORMAL DISPLAY WAS REQUESTED WHILE A HIGHER PRIORITY
001349:                                                                                                  #  DISPLAY WAS GOING, RESULTING IN THE NORMAL BEING PUT TO SLEEP.
001350:
001351:                                                                                                  #  IF EITHER OF THE ABOVE 2 CONDITIONS EXISTS, THE NORMAL DISPLAY IS AWAKENED TO GO TO PLAYJUM1 WHICH STARTS
001352:                                                                                                  #  UP THE MOST RECENT VALID NORMAL DISPLAY.  IF THESE 2 CONDITIONS DO NOT EXIST, CONTROL GOES TO PLAYJUM1 WHICH IS
001353:                                                                                                  #  STARTED IMMEDIATELY WITH THE ASSUMPTION THAT THE MOST RECENT NORMAL DISPLAY IS ALREADY IN ENDIDLE (DURING A
001354:                                                                                                  #  PINBRNCH) OR THAT A RESTART HAS OCCURRED AND THE DISPLAY CAN BE STARTED AS A .1 RESTART.
001355:
001356: 10,3635           46211        MARKRET            CS       SIX
001357: 10,3636           70100                           MASK     FLAGWRD4
001358: 10,3637           00004                           INHINT                                         #  *** MAY MOVE DISPLAY FLAGWORD OUT OF
001359: 10,3640           54100                           TS       FLAGWRD4
001360:
001361: 10,3641           00003                           RELINT                                         #  INHINT REALM
001362: 10,3642           13557                           TCF      ENDRET
001363:
001364: 10,3643           37716        MARKOVER           CAF      MINUS1                                #  RUPTREG2 IS - MEANS ENDOFJOB TO ENDRET
001365: 10,3644           54161                           TS       OUTHERE
001366: 10,3645           30100                           CA       FLAGWRD4                              #  IS ENDIDFLG SET
001367: 10,3646           74371                           MASK     PRIO30                                #  IS NORMAL OR PRIO IN ENDIDLE
001368: 10,3647           10000                           CCS      A
001369:                                                                                                  #  Page 1482
001370: 10,3650           13303                           TCF      NORMBNCH
001371:
001372: 10,3651           30100        NORMRET            CA       FLAGWRD4                              #  IS MARK SLEEPING
001373: 10,3652           73746                           MASK     BITS5+11                              #  OR WAITING
001374: 10,3653           10000                           CCS      A
001375: 10,3654           13245                           TCF      MARKWAKE
001376:
001377: 10,3655           30100                           CA       FLAGWRD4                              #  NO
001378: 10,3656           73747                           MASK     BITS4+10                              #  IS NORMAL INTERRUPTED OR WAITING
001379: 10,3657           10000                           CCS      A
001380: 10,3660           13555                           TCF      NORMWAKE                              #  YES
001381:
001382: 10,3661           31071                           CA       EBANKTEM                              #  NO, WAS IT A FLASH REQUEST
001383: 10,3662           75033                           MASK     OCT50                                 #  OR A GODSPRET
001384: 10,3663           10000                           CCS      A
001385: 10,3664           13557                           TCF      ENDRET                                #  YES
001386: 10,3665           30371                           CA       NVSAVE
001387: 10,3666           00006                           EXTEND
001388: 10,3667           13557                           BZF      ENDRET
001389:
001390: 10,3670           35067                           CAF      PRIO15
001391: 10,3671           00004                           INHINT
001392: 10,3672           05134                           TC       NOVAC
001393: 10,3673     0367                                  EBANK=   NVWORD
001394: 10,3673           03037 20060                     2CADR    PLAYJUM1
001395:
001396: 10,3675           13557                           TCF      ENDRET
001397:
001398: 10,3676           30100        MARSLEEP           CA       FLAGWRD4                              #  IS MARK ALREADY ON
001399: 10,3677           73746                           MASK     BITS5+11
001400: 10,3700           10000                           CCS      A
001401: 10,3701           15217                           TCF      ENDOFJOB                              #  YES
001402: 10,3702           13176                           TCF      GOSLEEPS
001403:
001404: 10,3703           50157        LOADITIS           INDEX    COPMPAC
001405: 10,3704           30367                           CA       NVWORD
001406: 10,3705           76043                           MASK     LOW7
001407: 10,3706           40000                           COM
001408: 10,3707           60155                           AD       MPAC       +1                         #  NOUNREG
001409: 10,3710           00006                           EXTEND
001410: 10,3711           13533                           BZF      OKTOENT                               #  NO, THEN LOAD IS VALID
001411: 10,3712           13272                           TCF      PINBRNCH                              #  YES, ACCEPT LOAD BUT ASK FOR LAST AGAIN
001412:
001413: 10,3713           46214        ERASER             CS       THREE                                 #  BLANK EVERYTHING EXCEPT MM
001414: 10,3714           04170                           TC       NVSUB
001415: 10,3715           15217                           TCF      ENDOFJOB
001416: 10,3716           15217                           TCF      ENDOFJOB
001417:
001418: 10,3717           00036        PERFMASK           OCT      0036                                  #  FLASH, PERFORM, BLANK R2 AND R3
001419:                                                                                                  #  Page 1483
001420: 10,3720           00231        V01N25             VN       00125
001421: 10,3721           01407        V06N07             VN       00607                                 #  GOPERF3 VN DISPLAY BEFORE V50
001422: 10,3722           14400        V50N00             VN       5000
001423: 10,3723           00030        PERF2MSK           OCT      00030                                 #  FLASH, PERFORM
001424: 10,3724           01006        V04N06             VN       00406
001425: 10,3725           00014        PERF4MSK           OCT      14                                    #  FLASH, BLANK R3
001426: 10,3726  10,3272               GOAGIN             EQUALS   PINBRNCH
001427: 10,3726           20010        REDOMASK           OCT      20010                                 #  BITS 4 AND 14
001428: 10,3727           40230        MARK3MSK           OCT      40230                                 #  MARK, DECIMAL NOUN, PERFORM, FLASH
001429: 10,3730           40036        MARK4MSK           OCT      40036                                 #  MARK, PERFORM, FLASH, BLANK 2 AND 3
001430: 10,3731           20764        NVCADR             CADR     REDOPRIO
001431: 10,3732           20624        WAKECADR           CADR     MARKPLAY
001432: 10,3733           21037                           CADR     PLAYJUM1
001433:
001434: 10,3734           03400        OCT3400            OCT      3400                                  #  EBANK MASK
001435: 10,3735           11210        NBUSMASK           OCT      11210
001436: 10,3736           66521        PMMASK             OCT      66521
001437: 10,3737     4160               VERBMASK           =        MID7                                  #  (OCT 37600)
001438: 10,3737           01177        V05N00M1           OCT      1177                                  #  V05 MINUS ONE
001439: 10,3740  10,2555               GOXDSP             EQUALS   GOMARK
001440: 10,3740  10,2575               GOXDSPR            EQUALS   GOMARKR
001441: 10,3740  10,2561               GOXDSPF            EQUALS   GOMARKF
001442: 10,3740  10,2600               GOXDSPFR           EQUALS   GOMARKFR
001443: 10,3740     5534               ENDEXT             EQUALS   ENDMARK
001444: 10,3740     0165               MPAC2SAV           EQUALS   BANKSET
001445: 10,3740           00700        NVBUSMSK           OCT      700
001446: 10,3741           00704        ASTROMSK           OCT      704
001447: 10,3742           40030        MPERFMSK           OCT      40030                                 #  BIT 15,5,4 FOR MARK,PERFORM,FLASH
001448: 10,3743           34300        OCT34300           OCT      34300
001449: 10,3744           40100        BITS15+7           OCT      40100
001450: 10,3745           00110        BITS7+4            OCT      110
001451: 10,3746     1067               DSPFLG             EQUALS   EBANKSAV
001452: 10,3746     1070               MARKFLAG           EQUALS   MARKEBAN
001453: 10,3746     1071               SAVEFLAG           EQUALS   EBANKTEM
001454: 10,3746           02020        BITS5+11           OCT      2020                                  #  * DON'T MOVE
001455: 10,3747           01010        BITS4+10           OCT      1010                                  #  * DON'T MOVE
001456: 10,3750           00026        LOWLOAD            DEC      22         B-14
001457: 10,3751           77730        BUSYMASK           OCT      77730
001458: 10,3752           00050        CADRMASK           OCT      50
001459: 10,3753     7707               PINMASK            EQUALS   13,14,15
001460: 10,3753  10,3312               GOPLAY             EQUALS   NVDSP
001461: 10,3753     1073               PRIOSAVE           EQUALS   R1SAVE
001462: 10,3753     0157               COPMPAC            EQUALS   MPAC       +3
001463: 10,3753     0160               TEMPOR2            EQUALS   MPAC       +4
001464: 10,3753     0161               OUTHERE            EQUALS   MPAC       +5
001465: 10,3753     0164               COPINDEX           EQUALS   LOC
001466: 10,3753     0163               USERPRIO           EQUALS   MODE
001467: 10,3753     0162               GENMASK            EQUALS   MPAC       +6
001468: 10,3753           20144        PRIOOCT            OCT      20144                                 #  PRIO
001469: 10,3754           42424        MARKOCT            OCT      42424                                 #  MARK
001470:                                                                                                  #  Page 1484
001471: 10,3755           11254                           OCT      11254                                 #  NORM
001472:
001473: 10,3756           74704        IDLESLEP           OCT      74704
001474: 10,3757           67777        OCT67777           OCT      67777
001475: 10,3760     5526               LINUS              EQUALS   BLANKET
001476: 10,3760     0154               FACEREG            EQUALS   MPAC
001477: 10,3760     0155               PLAYTEM1           EQUALS   MPAC       +1
001478: 10,3760     0157               PLAYTEM3           EQUALS   MPAC       +3
001479: 10,3760     0160               PLAYTEM4           EQUALS   MPAC       +4
001480: 10,3760           40420        OCT40420           OCT      40420
001481: 10,3761           02770        MAKEGEN            GENADR   MAKEPLAY
001482: 10,3762           10200        OCT10200           OCT      10200
001483: 10,3763           30200        V97N00             VN       09700                                 #  PASTE FOR V97 OR V99
001484: 10,3764           20100        OCT20100           OCT      20100
001485: 10,3765           24030        CLOCKCON           OCT      24030

End of include-file DISPLAY_INTERFACE_ROUTINES.agc.  Parent file is MAIN.agc


