
Source Code


000002:                                                                                                  ## Copyright:   Public domain.
000003:                                                                                                  ## Filename:    DOWNLINK_LISTS.agc
000004:                                                                                                  ## Purpose:     Part of the source code for Comanche, build 055. It
000005:                                                                                                  ##              is part of the source code for the Command Module's
000006:                                                                                                  ##              (CM) Apollo Guidance Computer (AGC), Apollo 11.
000007:                                                                                                  ## Assembler:   yaYUL
000008:                                                                                                  ## Reference:   pp. 170-180
000009:                                                                                                  ## Contact:     Ron Burkey <info@sandroid.org>,
000010:                                                                                                  ##              Fabrizio Bernardini <fabrizio@spacecraft.it>
000011:                                                                                                  ## Website:     http://www.ibiblio.org/apollo.
000012:                                                                                                  ## Mod history: 10/05/09 FB     Transcription of Batch FB-1 Assignment.
000013:                                                                                                  ##              2016-12-10 RSB  Proofed comments with octopus/ProoferComments
000014:                                                                                                  ##                              and fixed the errors found.
000015:                                                                                                  ##              2017-01-08 RSB  Fixed comment errors detected in cross-diff vs
000016:                                                                                                  ##                              Colossus 249.
000017:                                                                                                  ##              2017-01-21 RSB  Comment-text error fixes detected in diff'ing
000018:                                                                                                  ##                              vs Artemis 72.
000019:                                                                                                  ##
000020:                                                                                                  ## The contents of the "Comanche055" files, in general, are transcribed
000021:                                                                                                  ## from scanned documents.
000022:                                                                                                  ##
000023:                                                                                                  ##      Assemble revision 055 of AGC program Comanche by NASA
000024:                                                                                                  ##      2021113-051.  April 1, 1969.
000025:                                                                                                  ##
000026:                                                                                                  ##      This AGC program shall also be referred to as Colossus 2A
000027:                                                                                                  ##
000028:                                                                                                  ##      Prepared by
000029:                                                                                                  ##                      Massachusetts Institute of Technology
000030:                                                                                                  ##                      75 Cambridge Parkway
000031:                                                                                                  ##                      Cambridge, Massachusetts
000032:                                                                                                  ##
000033:                                                                                                  ##      under NASA contract NAS 9-4065.
000034:                                                                                                  ##
000035:                                                                                                  ## Refer directly to the online document mentioned above for further
000036:                                                                                                  ## information.  Please report any errors to info@sandroid.org.
000037:


000039: 22,2000                                           BANK     22
000040: 05,2000                                           SETLOC   DOWNTELM
000041: 05,2000                                           BANK
000042:
000043: 05,2000     0340                                  EBANK=   DNTMBUFF
000044:
000045:                                                                                                  #  SPECIAL DOWNLINK OP CODES
000046:                                                                                                  #        OP CODE         ADDRESS(EXAMPLE)          SENDS..               BIT 15          BITS 14-12      BITS 11
000047:                                                                                                  #                                                                                                             -0
000048:                                                                                                  #        ------         ----------               ----------              ------          ----------      -------
000049:                                                                                                  #                                                                                                             --
000050:                                                                                                  #        1DNADR          TIME2                   (2 AGC WDS)             0               0               ECADR
000051:                                                                                                  #        2DNADR          TEPHEM                  (4 AGC WDS)             0               1               ECADR
000052:                                                                                                  #        3DNADR          VGBODY                  (6 AGC WDS)             0               2               ECADR
000053:                                                                                                  #        4DNADR          STATE                   (8 AGC WDS)             0               3               ECADR
000054:                                                                                                  #        5DNADR          UPBUFF                  (10 AGC WDS)            0               4               ECADR
000055:                                                                                                  #        6DNADR          DSPTAB                  (12 AGC WDS)            0               5               ECADR
000056:                                                                                                  #        DNCHAN          30                      CHANNELS                0               7               CHANNEL
000057:                                                                                                  #                                                                                                        ADDRESS
000058:                                                                                                  #        DNPTR           NEXTLIST                POINTS TO NEXT          0               6               ADRES
000059:                                                                                                  #                                                LIST.
000060:
000061:                                                                                                  #  DOWNLIST FORMAT DEFINITIONS AND RULES-
000062:                                                                                                  #  1. END OF A LIST = -XDNADR (X = 1 TO 6), -DNPTR, OR -DNCHAN.
000063:                                                                                                  #  2. SNAPSHOT SUBLIST = LIST WHICH STARTS WITH A -1DNADR.
000064:                                                                                                  #  3. SNAPSHOT SUBLIST CAN ONLY CONTAIN 1DNADRS.
000065:                                                                                                  #  4. TIME2 1DNADR MUST BE LOCATED IN THE CONTROL LIST OF A DOWNLIST.
000066:                                                                                                  #  5. ERASABLE DOWN TELEMETRY WORDS SHOULD BE GROUPED IN SEQUENTIAL
000067:                                                                                                  #     LOCATIONS AS MUCH AS POSSIBLE TO SAVE STORAGE USED BY DOWNLINK LISTS.
000068:                                                                                                  #  6. THE DOWNLINK LISTS (INCLUDING SUBLISTS) ARE ORGANIZED SUCH THAT THE ITEMS LISTED FIRST (IN FRONT OF FBANK) ARE
000069:                                                                                                  #     SENT FIRST.  EXCEPTION--- SNAPSHOT SUBLISTS.  IN THE SNAPSHOT SUBLISTS THE DATA REPRESENTED BY THE FIRST
000070:                                                                                                  #     11 1DNADRS IS PRESERVED (IN ORDER) IN DNTMBUFF AND SENT BY THE NEXT 11 DOWNRUPTS.  THE DATA REPRESENTED BY THE
000071:                                                                                                  #     LIST IS SENT IMMEDIATELY.
000072:
000073: 05,2000                                           COUNT    05/DLIST
000074: 05,2000                        ERASZERO           EQUALS   7
000075: 05,2000  0000007               SPARE              EQUALS   ERASZERO                              #  USE SPARE TO INDICATE AVAILABLE SPACE
000076: 05,2000           77340        LOWIDCOD           OCT      77340                                 #  LOW ID CODE
000077:
000078: 05,2001  05,2107               NOMDNLST           EQUALS   CMCSTADL                              #  FRESH START AND POST P27 DOWNLIST
000079: 05,2001  05,2207               UPDNLIST           EQUALS   CMENTRDL                              #  UPDATE PROGRAM (P27) DOWNLIST
000080:


000082:                                                                                                  #  CSM POWERED FLIGHT DOWNLIST
000083:
000084:                                                                                                  #  --------------------------CONTROL LIST----------------------------------
000085:
000086: 05,2001                        CMPOWEDL           EQUALS
000087: 05,2001           32043                           DNPTR    CMPOWE01                              #  COLLECT SNAPSHOT
000088: 05,2002           24340                           6DNADR   DNTMBUFF                              #  SEND SNAPSHOT
000089: 05,2003           32052                           DNPTR    CMPOWE02                              #  COLLECT SECOND SNAPSHOT
000090: 05,2004           14340                           4DNADR   DNTMBUFF                              #  SEND SNAPSHOT
000091: 05,2005           32057                           DNPTR    CMPOWE03                              #  COMMON DATA
000092: 05,2006           03412                           1DNADR   TIG                                   #  TIG,+1
000093: 05,2007           03422                           1DNADR   DELLT4                                #  DELLT4,+1
000094: 05,2010           13414                           3DNADR   RTARG                                 #  RTARG,+1,+2,...+5
000095: 05,2011           03427                           1DNADR   TGO                                   #  TGO,+1
000096: 05,2012           01245                           1DNADR   PIPTIME1                              #  PIPTIME1,+1
000097: 05,2013           11162                           3DNADR   DELV                                  #  DELV,+1,...+4,+5
000098: 05,2014           03023                           1DNADR   PACTOFF                               #  PACTOFF,YACTOFF
000099: 05,2015           03223                           1DNADR   PCMD                                  #  PCMD,YCMD
000100: 05,2016           03702                           1DNADR   CSTEER                                #  CSTEER,+1
000101: 05,2017           12444                           3DNADR   DELVEET1                              #  CSI DELTA VELOCITY COMPONENTS   (31-33)
000102: 05,2020           25735                           6DNADR   REFSMMAT                              #  REFSMMAT,+1,...+10,+11
000103: 05,2021           32061                           DNPTR    CMPOWE04                              #  COMMON DATA
000104: 05,2022           00024                           1DNADR   TIME2                                 #  TIME2,TIME1
000105: 05,2023           32063                           DNPTR    CMPOWE05                              #  COLLECT SNAPSHOT
000106: 05,2024           24340                           6DNADR   DNTMBUFF                              #  SEND SNAPSHOT
000107: 05,2025           32052                           DNPTR    CMPOWE02                              #  COLLECT SNAPSHOT
000108: 05,2026           14340                           4DNADR   DNTMBUFF                              #  SEND SNAPSHOT
000109: 05,2027           32057                           DNPTR    CMPOWE03
000110: 05,2030           32072                           DNPTR    CMPOWE06                              #  COMMON DATA
000111: 05,2031           03743                           1DNADR   ELEV                                  #  ELEV,+1
000112: 05,2032           03753                           1DNADR   CENTANG                               #  CENTANG,+1
000113: 05,2033           02610                           1DNADR   DELTAR                                #  DELTAR,+1
000114: 05,2034           00106                           1DNADR   STATE      +10D                       #  FALGWRDS 10 AND 11
000115: 05,2035           01336                           1DNADR   TEVENT                                #  TEVENT,+1
000116: 05,2036           03223                           1DNADR   PCMD                                  #  PCMD,YCMD
000117: 05,2037           01331                           1DNADR   OPTMODES                              #  OPTMODES,HOLDFLAG
000118: 05,2040           32075                           DNPTR    CMPOWE07                              #  COMMON DATA
000119: 05,2041           13720                           3DNADR   VGTIG                                 #  VGTIG,+1,...+4,+5
000120: 05,2042           64111                           -3DNADR  DELVEET2                              #  CDH DELTA VELOCITY COMPONENTS   (98-100)
000121:
000122:                                                                                                  #  ---------------------------SUB LISTS------------------------------------
000123:
000124: 05,2043           76605        CMPOWE01           -1DNADR  RN         +2                         #  RN +2,+3                      SNAPSHOT DATA
000125: 05,2044           01174                           1DNADR   RN         +4                         #  RN +4,+5
000126: 05,2045           01176                           1DNADR   VN                                    #  VN, +1
000127: 05,2046           01200                           1DNADR   VN         +2                         #  VN +2,+3
000128: 05,2047           01202                           1DNADR   VN         +4                         #  VN +4,+5
000129: 05,2050           01204                           1DNADR   PIPTIME                               #  PIPTIME, +1
000130: 05,2051           76607                           -1DNADR  RN                                    #  RN, +1
000131:
000132: 05,2052           77743        CMPOWE02           -1DNADR  CDUZ                                  #  CDUZ,CDUT                     SNAPSHOT DATA


000134: 05,2053           03133                           1DNADR   ADOT                                  #  ADOT,+1/OGARATE,+1
000135: 05,2054           03135                           1DNADR   ADOT       +2                         #  ADOT+2,+3/OMEGAB+2,+3
000136: 05,2055           03137                           1DNADR   ADOT       +4                         #  ADOT+4,+5/OMEGAB+4,+5
000137: 05,2056           77745                           -1DNADR  CDUX                                  #  CDUX,CDUY
000138:
000139: 05,2057           07076        CMPOWE03           2DNADR   AK                                    #  AK,AK1,AK2,RCSFLAGS           COMMON DATA
000140: 05,2060           70605                           -2DNADR  THETADX                               #  THETADX,THETADY,THETADZ,GARBAGE
000141:
000142: 05,2061           20074        CMPOWE04           5DNADR   STATE                                 #  FLAGWRD0 THRU FLAGWRD9        COMMON DATA
000143: 05,2062           52754                           -6DNADR  DSPTAB                                #  DISPLAY TABLES
000144:
000145: 05,2063           76054        CMPOWE05           -1DNADR  R-OTHER    +2                         #  R-OTHER+2,+3                  SNAPSHOT DATA
000146: 05,2064           01725                           1DNADR   R-OTHER    +4                         #  R-OTHER+4,+5
000147: 05,2065           01727                           1DNADR   V-OTHER                               #  V-OTHER,+1
000148: 05,2066           01731                           1DNADR   V-OTHER    +2                         #  V-OTHER+2,+3
000149: 05,2067           01733                           1DNADR   V-OTHER    +4                         #  V-OTHER+4,+5
000150: 05,2070           01642                           1DNADR   T-OTHER                               #  T-OTHER,+1
000151: 05,2071           76056                           -1DNADR  R-OTHER                               #  R-OTHER,+1
000152:
000153: 05,2072           01432        CMPOWE06           1DNADR   RSBBQ                                 #  RSBBQ,+1                      COMMON DATA
000154: 05,2073           10372                           3DNADR   CADRFLSH                              #  CADRFLSH,+1,+2,FAILREG,+1,+2
000155: 05,2074           73741                           -2DNADR  CDUS                                  #  CDUS,PIPAX,PIPAY,PIPAZ
000156:
000157: 05,2075           03073        CMPOWE07           1DNADR   LEMMASS                               #  LEMMASS,CSMMASS               COMMON DATA
000158: 05,2076           03066                           1DNADR   DAPDATR1                              #  DAPDATR1,DAPDATR2
000159: 05,2077           07167                           2DNADR   ERRORX                                #  ERRORX,ERRORY,ERRORZ,GARBAGE
000160: 05,2100           13125                           3DNADR   WBODY                                 #  WBODY,...+5/OMEGAC,...+5
000161: 05,2101           05154                           2DNADR   REDOCTR                               #  REDOCTR,THETAD,+1,+2
000162: 05,2102           01320                           1DNADR   IMODES30                              #  IMODES30,IMODES33
000163: 05,2103           34011                           DNCHAN   11                                    #  CHANNELS 11,12
000164: 05,2104           34013                           DNCHAN   13                                    #  CHANNELS 13,14
000165: 05,2105           34030                           DNCHAN   30                                    #  CHANNELS 30,31
000166: 05,2106           43745                           -DNCHAN  32                                    #  CHANNELS 32,33
000167:
000168:                                                                                                  #  ------------------------------------------------------------------------


000170:                                                                                                  #  CSM COAST AND ALIGNMENT DOWNLIST
000171:
000172:                                                                                                  #  ------------------------------CONTROL LIST------------------------------
000173:
000174: 05,2107                        CMCSTADL           EQUALS                                         #  SEND ID BY SPECIAL CODING
000175: 05,2107           32043                           DNPTR    CMCSTA01                              #  COLLECT SNAPSHOT
000176: 05,2110           24340                           6DNADR   DNTMBUFF                              #  SEND SNAPSHOT
000177: 05,2111           32052                           DNPTR    CMCSTA02                              #  COLLECT SECOND SNAPSHOT
000178: 05,2112           14340                           4DNADR   DNTMBUFF                              #  SEND SNAPSHOT
000179: 05,2113           32057                           DNPTR    CMCSTA03                              #  COMMON DATA
000180: 05,2114           03412                           1DNADR   TIG                                   #  TIG,+1
000181: 05,2115           00302                           1DNADR   BESTI                                 #  BESTI,BESTJ
000182: 05,2116           17674                           4DNADR   MARKDOWN                              #  MARKDOWN,+1...+5,+6,GARBAGE
000183: 05,2117           17502                           4DNADR   MARK2DWN                              #  MARK2DWN,+1...+5,+6
000184: 05,2120           06351                           2DNADR   HAPOX                                 #  APOGEE AND PERIGEE FROM R30   (28-29)
000185: 05,2121           03023                           1DNADR   PACTOFF                               #  PACTOFF, YACTOFF                 (30)
000186: 05,2122           13720                           3DNADR   VGTIG                                 #  VGTIG,...+5
000187: 05,2123           25735                           6DNADR   REFSMMAT                              #  REFSMMAT,+1,...+10,+11
000188: 05,2124           32061                           DNPTR    CMCSTA04                              #  COMMON DATA
000189: 05,2125           00024                           1DNADR   TIME2                                 #  TIME2,TIME1
000190: 05,2126           32063                           DNPTR    CMCSTA05                              #  COLLECT SNAPSHOT
000191: 05,2127           24340                           6DNADR   DNTMBUFF                              #  SEND SNAPSHOT
000192: 05,2130           32052                           DNPTR    CMCSTA02                              #  COLLECT SNAPSHOT
000193: 05,2131           14340                           4DNADR   DNTMBUFF                              #  SEND SNAPSHOT
000194: 05,2132           32057                           DNPTR    CMCSTA03                              #  COMMON DATA
000195: 05,2133           32072                           DNPTR    CMCSTA06                              #  COMMON DATA
000196: 05,2134           12757                           3DNADR   OGC                                   #  OGC,+1,IGC,+1,MGC,+1
000197: 05,2135           00106                           1DNADR   STATE      +10D                       #  FALGWRDS 10 AND 11
000198: 05,2136           01336                           1DNADR   TEVENT                                #  TEVENT,+1
000199: 05,2137           02633                           1DNADR   LAUNCHAZ                              #  LAUNCHAZ,+1
000200: 05,2140           01331                           1DNADR   OPTMODES                              #  OPTMODES,HOLDFLAG
000201: 05,2141           32075                           DNPTR    CMCSTA07                              #  COMMON DATA
000202: 05,2142           52754                           -6DNADR  DSPTAB                                #  DISPLAY TABLES
000203:
000204:                                                                                                  #  --------------------------SUB LISTS-------------------------------------
000205:
000206: 05,2143  05,2043               CMCSTA01           EQUALS   CMPOWE01                              #  COMMON DOWNLIST DATA
000207:
000208: 05,2143  05,2052               CMCSTA02           EQUALS   CMPOWE02                              #  COMMON DOWNLIST DATA
000209:
000210: 05,2143  05,2057               CMCSTA03           EQUALS   CMPOWE03                              #  COMMON DOWNLIST DATA
000211:
000212: 05,2143  05,2061               CMCSTA04           EQUALS   CMPOWE04                              #  COMMON DOWNLIST DATA
000213:
000214: 05,2143  05,2063               CMCSTA05           EQUALS   CMPOWE05                              #  COMMON DOWNLIST DATA
000215:
000216: 05,2143  05,2072               CMCSTA06           EQUALS   CMPOWE06                              #  COMMON DOWNLIST DATA
000217:
000218: 05,2143  05,2075               CMCSTA07           EQUALS   CMPOWE07                              #  COMMON DOWNLIST DATA
000219:


000221:                                                                                                  #  ------------------------------------------------------------------------


000223:                                                                                                  #  CSM RENDEZVOUS AND PRETHRUST LIST
000224:
000225:                                                                                                  #  ----------------------------CONTROL LIST--------------------------------
000226:
000227: 05,2143                        CMRENDDL           EQUALS                                         #  SEND ID BY SPECIAL CODING
000228: 05,2143           32043                           DNPTR    CMREND01                              #  COLLECT SNAPSHOT
000229: 05,2144           24340                           6DNADR   DNTMBUFF                              #  SEND SNAPSHOT
000230: 05,2145           32052                           DNPTR    CMREND02                              #  COLLECT SECOND SNAPSHOT
000231: 05,2146           14340                           4DNADR   DNTMBUFF                              #  SEND SNAPSHOT
000232: 05,2147           32057                           DNPTR    CMREND03                              #  COMMON DATA
000233: 05,2150           03412                           1DNADR   TIG                                   #  TIG,+1
000234: 05,2151           03422                           1DNADR   DELLT4                                #  DELLT4,+1
000235: 05,2152           13414                           3DNADR   RTARG                                 #  RTARG,+1...+4,+5
000236: 05,2153           01151                           1DNADR   VHFTIME                               #  VHFTIME,+1
000237: 05,2154           17674                           4DNADR   MARKDOWN                              #  MARKTIME(DP),YCDU,SCDU,ZCDU,TCDU,XCDU,RM
000238: 05,2155           01125                           1DNADR   VHFCNT                                #  VHFCNT,+1
000239: 05,2156           03662                           1DNADR   TTPI                                  #  TTPI,+1
000240: 05,2157           03424                           1DNADR   ECSTEER                               #  ECSTEER,+1
000241: 05,2160           02636                           1DNADR   DELVTPF                               #  DELVTPF,+1
000242: 05,2161           06634                           2DNADR   TCDH                                  #  CDH AND CSI TIME                      (32-33)
000243: 05,2162           03655                           1DNADR   TPASS4                                #  TPASS4,+1
000244: 05,2163           13404                           3DNADR   DELVSLV                               #  DELVSLV,+1...+4,+5
000245: 05,2164           06320                           2DNADR   RANGE                                 #  RANGE,+1,RRATE,+1
000246: 05,2165           32061                           DNPTR    CMREND04                              #  COMMON DATA
000247: 05,2166           00024                           1DNADR   TIME2                                 #  TIME2,TIME1
000248: 05,2167           32063                           DNPTR    CMREND05                              #  COLLECT SNAPSHOT
000249: 05,2170           24340                           6DNADR   DNTMBUFF                              #  SEND SNAPSHOT
000250: 05,2171           32052                           DNPTR    CMREND02                              #  COLLECT SNAPSHOT
000251: 05,2172           14340                           4DNADR   DNTMBUFF                              #  SEND SNAPSHOT
000252: 05,2173           32057                           DNPTR    CMREND03                              #  COMMON DATA
000253: 05,2174           32072                           DNPTR    CMREND06                              #  COMMON DATA
000254: 05,2175           02632                           1DNADR   DIFFALT                               #  CDH DELTA ALTITUDE                    (74)
000255: 05,2176           03753                           1DNADR   CENTANG                               #  CENTANG,+1
000256: 05,2177           02610                           1DNADR   DELTAR                                #  DELTAR,+1
000257: 05,2200           13645                           3DNADR   DELVEET3                              #  DELVEET3,+1,...+4,+5
000258: 05,2201           01331                           1DNADR   OPTMODES                              #  OPTMODES,HOLDFLAG
000259: 05,2202           32075                           DNPTR    CMREND07                              #  COMMON DATA
000260: 05,2203           02324                           1DNADR   RTHETA                                #  RTHETA,+1
000261: 05,2204           07400                           2DNADR   LAT(SPL)                              #  LAT(SPL),LNG(SPL),+1
000262: 05,2205           07766                           2DNADR   VPRED                                 #  VPRED,+1,GAMMAEI,+1
000263: 05,2206           77671                           -1DNADR  STATE      +10D                       #  FALGWRDS 10 AND 11
000264:
000265:                                                                                                  #  ----------------------------SUB LISTS-----------------------------------
000266:
000267: 05,2207  05,2043               CMREND01           EQUALS   CMPOWE01                              #  COMMON DOWNLIST DATA
000268:
000269: 05,2207  05,2052               CMREND02           EQUALS   CMPOWE02                              #  COMMON DOWNLIST DATA
000270:
000271: 05,2207  05,2057               CMREND03           EQUALS   CMPOWE03                              #  COMMON DOWNLIST DATA
000272:
000273: 05,2207  05,2061               CMREND04           EQUALS   CMPOWE04                              #  COMMON DOWNLIST DATA


000275: 05,2207  05,2063               CMREND05           EQUALS   CMPOWE05                              #  COMMON DOWNLIST DATA
000276:
000277: 05,2207  05,2072               CMREND06           EQUALS   CMPOWE06                              #  COMMON DOWNLIST DATA
000278:
000279: 05,2207  05,2075               CMREND07           EQUALS   CMPOWE07                              #  COMMON DOWNLIST DATA
000280:
000281:                                                                                                  #  ------------------------------------------------------------------------
000282:


000284:                                                                                                  #  CSM ENTRY AND UPDATE DOWNLIST
000285:                                                                                                  #  ---------------------------CONTROL LIST---------------------------------
000286:
000287: 05,2207                        CMENTRDL           EQUALS                                         #  SEND ID BY SPECIAL CODING
000288: 05,2207           32043                           DNPTR    CMENTR01                              #  COLLECT SNAPSHOT
000289: 05,2210           24340                           6DNADR   DNTMBUFF                              #  SEND SNAPSHOT
000290: 05,2211           32052                           DNPTR    CMENTR02                              #  COLLECT SECOND SNAPSHOT
000291: 05,2212           14340                           4DNADR   DNTMBUFF                              #  SEND SNAPSHOT
000292: 05,2213           32057                           DNPTR    CMENTR03                              #  COMMON DATA
000293: 05,2214           07300                           2DNADR   CMDAPMOD                              #  CMDAPMOD,PREL,QREL,RREL
000294: 05,2215           03635                           1DNADR   L/D1                                  #  L/D1,+1
000295: 05,2216           24304                           6DNADR   UPBUFF                                #  UPBUFF,+1...+10,+11
000296: 05,2217           14320                           4DNADR   UPBUFF     +12D                       #  UPBUFF+12,13...+18,19D
000297: 05,2220           04300                           2DNADR   COMPNUMB                              #  COMPNUMB,UPOLDMOD,UPVERB,UPCOUNT
000298: 05,2221           03313                           1DNADR   PAXERR1                               #  PAXERR1,ROLLTM
000299: 05,2222           13675                           3DNADR   LATANG                                #  LATANG,+1,RDOT,+1,THETAH,+1
000300: 05,2223           07400                           2DNADR   LAT(SPL)                              #  LAT(SPL),+1,LNG(SPL),+1
000301: 05,2224           03265                           1DNADR   ALFA/180                              #  ALFA/180,BETA/180
000302: 05,2225           32061                           DNPTR    CMENTR04                              #  COMMON DATA
000303: 05,2226           00024                           1DNADR   TIME2                                 #  TIME2,TIME1
000304: 05,2227           32257                           DNPTR    CMENTR05                              #  COLLECT SNAPSHOT
000305: 05,2230           24340                           6DNADR   DNTMBUFF                              #  SEND SNAPSHOT
000306: 05,2231           32052                           DNPTR    CMENTR02                              #  COLLECT SNAPSHOT
000307: 05,2232           14340                           4DNADR   DNTMBUFF                              #  SEND SNAPSHOT
000308: 05,2233           07076                           2DNADR   AK                                    #  AK,AK1,AK2,RCSFLAGS
000309: 05,2234           13167                           3DNADR   ERRORX                                #  ERRORX/Y/Z,THETADX/Y/Z
000310: 05,2235           07300                           2DNADR   CMDAPMOD                              #  CMDAPMOD,PREL,QREL,RREL
000311: 05,2236           24304                           6DNADR   UPBUFF                                #  UPBUFF+0,+1...+10,+11D
000312: 05,2237           14320                           4DNADR   UPBUFF     +12D                       #  UPBUFF+12,+13...+18,+19D
000313: 05,2240           03073                           1DNADR   LEMMASS                               #  LEMMASS,CSMMASS
000314: 05,2241           03066                           1DNADR   DAPDATR1                              #  DAPDATR1,DAPDATR2
000315: 05,2242           03314                           1DNADR   ROLLTM                                #  ROLLTM,ROLLC
000316: 05,2243           01331                           1DNADR   OPTMODES                              #  OPTMODES,HOLDFLAG
000317: 05,2244           13125                           3DNADR   WBODY                                 #  WBODY,...+5/OMEGAC,...+5
000318: 05,2245           05154                           2DNADR   REDOCTR                               #  REDOCTR,THETAD+0,+1,+2
000319: 05,2246           01320                           1DNADR   IMODES30                              #  IMODES30,IMODES33
000320: 05,2247           34011                           DNCHAN   11                                    #  CHANNELS 11,12
000321: 05,2250           34013                           DNCHAN   13                                    #  CHANNELS 13,14
000322: 05,2251           34030                           DNCHAN   30                                    #  CHANNELS 30,31
000323: 05,2252           34032                           DNCHAN   32                                    #  CHANNELS 32,33
000324: 05,2253           01432                           1DNADR   RSBBQ                                 #  RSBBQ,+1
000325: 05,2254           10372                           3DNADR   CADRFLSH                              #  CADRFLSH,+1,+2,FAILREG,+1,+2
000326: 05,2255           00106                           1DNADR   STATE      +10D                       #  FALGWRDS 10 AND 11
000327: 05,2256           74007                           -1DNADR  GAMMAEI                               #  GAMMAEI,+1
000328:
000329:                                                                                                  #  ----------------------------SUB LISTS-----------------------------------
000330:
000331: 05,2257  05,2043               CMENTR01           EQUALS   CMPOWE01                              #  COMMON DOWNLIST DATA


000333: 05,2257  05,2052               CMENTR02           EQUALS   CMPOWE02                              #  COMMON DOWNLIST DATA
000334:
000335: 05,2257  05,2057               CMENTR03           EQUALS   CMPOWE03                              #  COMMON DOWNLIST DATA
000336:
000337: 05,2257  05,2061               CMENTR04           EQUALS   CMPOWE04                              #  COMMON DOWNLIST DATA
000338:
000339: 05,2257           76615        CMENTR05           -1DNADR  DELV                                  #  DELV,+1                       SNAPSHOT DATA
000340: 05,2260           01164                           1DNADR   DELV       +2                         #  DELV+2,+3
000341: 05,2261           01166                           1DNADR   DELV       +4                         #  DELV+4,+5
000342: 05,2262           03726                           1DNADR   TTE                                   #  TTE,+1
000343: 05,2263           03724                           1DNADR   VIO                                   #  VIO,+1
000344: 05,2264           03766                           1DNADR   VPRED                                 #  VPRED,+1
000345: 05,2265           76532                           -1DNADR  PIPTIME1                              #  PIPTIME1,+1
000346:
000347: 05,2266  05,2075               CMENTR07           EQUALS   CMPOWE07                              #  COMMON DOWNLIST DATA
000348:
000349:                                                                                                  #  ------------------------------------------------------------------------
000350:


000352:                                                                                                  #  P22 DOWNLISTS
000353:
000354:                                                                                                  #  ----------------------------CONTROL LIST--------------------------------
000355:
000356: 05,2266                        CMPG22DL           EQUALS                                         #  SEND ID BY SPECIAL CODING
000357: 05,2266           32043                           DNPTR    CMPG2201                              #  COLLECT SNAPSHOT
000358: 05,2267           24340                           6DNADR   DNTMBUFF                              #  SEND SNAPSHOT
000359: 05,2270           32052                           DNPTR    CMPG2202                              #  COLLECT SNAPSHOT
000360: 05,2271           14340                           4DNADR   DNTMBUFF                              #  SEND SNAPSHOT
000361: 05,2272           32057                           DNPTR    CMPG2203                              #  COMMON DATA
000362: 05,2273           27537                           6DNADR   SVMRKDAT                              #  LANDING SITE MARK DATA
000363: 05,2274           27553                           6DNADR   SVMRKDAT   +12D                       #  SVMRKDAT+0...+34
000364: 05,2275           27567                           6DNADR   SVMRKDAT   +24D                       #  LANDING SITE MARK DATA
000365: 05,2276           02751                           1DNADR   LANDMARK                              #  LANDMARK,GARBAGE
000366: 05,2277           00007                           1DNADR   SPARE
000367: 05,2300           00007                           1DNADR   SPARE
000368: 05,2301           00007                           1DNADR   SPARE
000369: 05,2302           32061                           DNPTR    CMPG2204                              #  COMMON DATA
000370: 05,2303           00024                           1DNADR   TIME2                                 #  TIME2,TIME1
000371: 05,2304           32332                           DNPTR    CMPG2205                              #  COLLECT SNAPSHOT
000372: 05,2305           04340                           2DNADR   DNTMBUFF                              #  SEND SNAPSHOT
000373: 05,2306           00007                           1DNADR   SPARE
000374: 05,2307           00007                           1DNADR   SPARE
000375: 05,2310           00007                           1DNADR   SPARE
000376: 05,2311           00007                           1DNADR   SPARE
000377: 05,2312           32052                           DNPTR    CMPG2202                              #  COLLECT SNAPSHOT
000378: 05,2313           14340                           4DNADR   DNTMBUFF                              #  SEND SNAPSHOT
000379: 05,2314           32057                           DNPTR    CMPG2203                              #  COMMON DATA
000380: 05,2315           32072                           DNPTR    CMPG2206                              #  COMMON DATA
000381: 05,2316           02747                           1DNADR   8NN                                   #  8NN,GARBAGE
000382: 05,2317           00106                           1DNADR   STATE      +10D                       #  FALGWRDS 10 AND 11
000383: 05,2320           12025                           3DNADR   RLS                                   #  RLS,+1,...+4,+5
000384: 05,2321           00007                           1DNADR   SPARE
000385: 05,2322           01331                           1DNADR   OPTMODES                              #  OPTMODES,HOLDFLAG
000386: 05,2323           32075                           DNPTR    CMPG2207                              #  COMMON DATA
000387: 05,2324           00007                           1DNADR   SPARE
000388: 05,2325           00007                           1DNADR   SPARE
000389: 05,2326           00007                           1DNADR   SPARE
000390: 05,2327           00007                           1DNADR   SPARE
000391: 05,2330           00007                           1DNADR   SPARE
000392: 05,2331           77770                           -1DNADR  SPARE
000393:
000394:                                                                                                  #  -----------------------------SUB LISTS----------------------------------
000395:
000396: 05,2332  05,2043               CMPG2201           EQUALS   CMPOWE01                              #  COMMON DOWNLIST DATA
000397:
000398: 05,2332  05,2052               CMPG2202           EQUALS   CMPOWE02                              #  COMMON DOWNLIST DATA
000399:
000400: 05,2332  05,2057               CMPG2203           EQUALS   CMPOWE03                              #  COMMON DOWNLIST DATA


000402: 05,2332  05,2061               CMPG2204           EQUALS   CMPOWE04                              #  COMMON DOWNLIST DATA
000403:
000404: 05,2332           76672        CMPG2205           -1DNADR  LONG                                  #  LONG,+1                       SNAPSHOT DATA
000405: 05,2333           01107                           1DNADR   ALT                                   #  ALT,+1
000406: 05,2334           76674                           -1DNADR  LAT                                   #  LAT,+1
000407:
000408: 05,2335  05,2072               CMPG2206           EQUALS   CMPOWE06                              #  COMMON DOWNLIST DATA
000409:
000410: 05,2335  05,2075               CMPG2207           EQUALS   CMPOWE07                              #  COMMON DOWNLIST DATA
000411:
000412:                                                                                                  #  ------------------------------------------------------------------------
000413:
000414: 05,2335           02107        DNTABLE            GENADR   CMCSTADL
000415: 05,2336           02207                           GENADR   CMENTRDL
000416: 05,2337           02143                           GENADR   CMRENDDL
000417: 05,2340           02001                           GENADR   CMPOWEDL
000418: 05,2341           02266                           GENADR   CMPG22DL
000419:
000420:                                                                                                  #  ------------------------------------------------------------------------
000421:

End of include-file DOWNLINK_LISTS.agc.  Parent file is MAIN.agc


