
Source Code


000002:                                                                                                  #  Copyright:    Public domain.
000003:                                                                                                  #  Filename:     ERASABLE_ASSIGNMENTS.agc
000004:                                                                                                  #  Purpose:      Part of the source code for Colossus 2A, AKA Comanche 055.
000005:                                                                                                  #                It is part of the source code for the Command Module's (CM)
000006:                                                                                                  #                Apollo Guidance Computer (AGC), for Apollo 11.
000007:                                                                                                  #  Assembler:    yaYUL
000008:                                                                                                  #  Contact:      Ron Burkey <info@sandroid.org>.
000009:                                                                                                  #  Website:      www.ibiblio.org/apollo.
000010:                                                                                                  #  Mod history:  2009-05-06 RSB  Started adapting from the Colossus249/ file
000011:                                                                                                  #                                of the same name, using Comanche055 page
000012:                                                                                                  #                                images. Only through page 51 so far.
000013:                                                                                                  #                2009-05-07 RSB  Through page 92 so far.
000014:                                                                                                  #                2009-05-07 RSB  (Again!) First draft completed.
000015:                                                                                                  #                2009-05-20 RSB  Fixed some bugs uncovered in trial assemblies:
000016:                                                                                                  #                                EMDOT, STATEXIT, VGDISP, DVPREV, POSTCDH,
000017:                                                                                                  #                                RETROFLG not defined correctly, changed the
000018:                                                                                                  #                                typing of labels 9X9LOC1 and 9X9LOC2,
000019:                                                                                                  #                                R32FLBIT -> R31FLBIT.
000020:                                                                                                  #                2009-05-21 RSB  Corrected definition of DELBRTMP, which
000021:                                                                                                  #                                chained to quite a lot of off-by-one errors.
000022:                                                                                                  #                                Changed a +8 to a +8D.
000023:                                                                                                  #                2010-08-24 JL   Fixed page numbers. Added missing comment character. Fixed page number comment.
000024:                                                                                                  #                2011-05-08 JL   Removed workarounds.
000025:
000026:                                                                                                  #  This source code has been transcribed or otherwise adapted from digitized
000027:                                                                                                  #  images of a hardcopy from the MIT Museum.  The digitization was performed
000028:                                                                                                  #  by Paul Fjeld, and arranged for by Deborah Douglas of the Museum.  Many
000029:                                                                                                  #  thanks to both.  The images (with suitable reduction in storage size and
000030:                                                                                                  #  consequent reduction in image quality as well) are available online at
000031:                                                                                                  #  www.ibiblio.org/apollo.  If for some reason you find that the images are
000032:                                                                                                  #  illegible, contact me at info@sandroid.org about getting access to the
000033:                                                                                                  #  (much) higher-quality images which Paul actually created.
000034:
000035:                                                                                                  #  Notations on the hardcopy document read, in part:
000036:
000037:                                                                                                  #        Assemble revision 055 of AGC program Comanche by NASA
000038:                                                                                                  #        2021113-051.  10:28 APR. 1, 1969
000039:
000040:                                                                                                  #        This AGC program shall also be referred to as
000041:                                                                                                  #                        Colossus 2A
000042:
000043:
000044:                                                                                                  #  Page 37
000045:                                                                                                  #  CONVENTIONS AND NOTATIONS UTILIZED FOR ERASABLE ASSIGNMENTS.
000046:
000047:                                                                                                  #        EQUALS  IS USED IN TWO WAYS.  IT IS OFTEN USED TO CHAIN A GROUP
000048:                                                                                                  #                OF ASSIGNMENTS SO THAT THE GROUP MAY BE MOVED WITH THE
000049:                                                                                                  #                CHANGING OF ONLY ONE CARD.  EXAMPLE:
000050:
000051:                                                                                                  #                        X       EQUALS  START
000052:                                                                                                  #                        Y       EQUALS  X       +SIZE.X
000053:                                                                                                  #                        Z       EQUALS  Y       +SIZE.Y
000054:
000055:                                                                                                  #                (X, Y, AND Z ARE CONSECUTIVE AND BEGIN AT START.
000056:                                                                                                  #                SIZE.X AND SIZE.Y ARE THE RESPECTIVE SIZES OF X AND Y.
000057:                                                                                                  #                USUALLY NUMERIC, IE. 1, 2, 6, 18D, ETC.)
000058:
000059:                                                                                                  #        EQUALS  OFTEN IMPLIES THE SHARING OF REGISTERS (DIFFERENT NAMES
000060:                                                                                                  #                AND DIFFERENT DATA).  EXAMPLE:
000061:
000062:                                                                                                  #                        X       EQUALS  Y
000063:
000064:                                                                                                  #        =       MEANS THAT MULTIPLE NAMES HAVE BEEN GIVEN TO THE SAME DATA.
000065:                                                                                                  #                (THIS IS LOGICAL EQUIVALENCE, NOT SHARING.)  EXAMPLE:
000066:
000067:                                                                                                  #                        X       =       Y
000068:
000069:                                                                                                  #        THE SIE AND UTILIZATION OF AN ERASABLE ARE OFTEN INCLUDED IN
000070:                                                                                                  #        THE COMMENTS IN THE FOLLOWING FORM:  M(SIZE)N.
000071:
000072:                                                                                                  #                M       REFERS TO THE MOBILITY OF THE ASSIGNMENT.
000073:                                                                                                  #                        B       MEANS THAT THE SYMBOL IS REFERENCED BY BASIC
000074:                                                                                                  #                                INSTRUCTIONS AND THUS IS E-BANK SENSITIVE.
000075:                                                                                                  #                        I       MEANS THAT THE SYMBOL IS REFERENCED ONLY BY
000076:                                                                                                  #                                INTERPRETIVE INSTRUCTIONS, AND IS THUS E-BANK
000077:                                                                                                  #                                INSENSITIVE AND MAY APPEAR IN ANY E-BANK.
000078:
000079:                                                                                                  #                SIZE    IS THE NUMBER OF REGISTERS INCLUDED BY THE SYMBOL.
000080:
000081:                                                                                                  #                N       INDICATES THE NATURE OF PERMANENCE OF THE CONTENTS.
000082:                                                                                                  #                        PL      MEANS THAT THE CONTENTS ARE PAD LOADED.
000083:                                                                                                  #                        DSP     MEANS THAT THE REGISTER IS USED FOR A DISPLAY.
000084:                                                                                                  #                        PRM     MEANS THAT THE REGISTER IS PERMANENT.  IE., IT
000085:                                                                                                  #                                IS USED DURING THE ENTIRE MISSION FOR ONE
000086:                                                                                                  #                                PURPOSE AND CANNOT BE SHARED.
000087:                                                                                                  #                        TMP     MEANS THAT THE REGISTER IS USED TEMPORARILY OR
000088:                                                                                                  #                                IS A SCRATCH REGISTER FOR THE ROUTINE TO WHICH
000089:                                                                                                  #                                IT IS ASSIGNED.  THAT IS, IT NEED NOT BE SET
000090:                                                                                                  #                                PRIOR TO INVOCATION OF THE ROUTINE NOR DOES IT
000091:                                                                                                  #                                CONTAIN USEFUL OUTPUT TO ANOTHER ROUTINE.  THUS
000092:                                                                                                  #  Page 38
000093:                                                                                                  #                                IT MAY BE SHARED WITHANY OTHER ROUTINE WHICH
000094:                                                                                                  #                                IS NOT ACTIVE IN PARALLEL
000095:                                                                                                  #                        IN      MEANS INPUT TO THE ROUTINE AND IT IS PROBABLY
000096:                                                                                                  #                                TEMPORARY FOR A HIGHER-LEVEL ROUTINE/PROGRAM.
000097:                                                                                                  #                        OUT     MEANS OUTPUT FROM THE ROUTINE, PROBABLY
000098:                                                                                                  #                                TEMPORARY FOR A HIGHER-LEVEL ROUTINE/PROGRAM.
000099:
000100:                                                                                                  #  Page 39
000101:
000102:                                                                                                  #  SPECIAL REGISTERS.
000103:
000104: 37,2001                        A                  EQUALS   0
000105: 37,2001                        L                  EQUALS   1                                     #  L AND Q ARE BOTH CHANNELS AND REGISTERS
000106: 37,2001                        Q                  EQUALS   2
000107: 37,2001                        EBANK              EQUALS   3
000108: 37,2001                        FBANK              EQUALS   4
000109: 37,2001                        Z                  EQUALS   5                                     #  ADJACENT TO FBANK AND BBANK FOR DXCH Z
000110: 37,2001                        BBANK              EQUALS   6                                     #  (DTCB) AND DXCH FBANK (DTCF).
000111:                                                                                                  #  REGISTER 7 IS A ZERO-SOURCE, USED BY ZL.
000112:
000113: 37,2001                        ARUPT              EQUALS   10                                    #  INTERRUPT STORAGE
000114: 37,2001                        LRUPT              EQUALS   11
000115: 37,2001                        QRUPT              EQUALS   12
000116: 37,2001                        SAMPTIME           EQUALS   13                                    #  SAMPLED TIME 1 & 2.
000117: 37,2001                        ZRUPT              EQUALS   15                                    #  (13 AND 14 ARE SPARES.)
000118: 37,2001                        BANKRUPT           EQUALS   16                                    #  USUALLY HOLDS FBANK OR BBANK.
000119: 37,2001                        BRUPT              EQUALS   17                                    #  RESUME ADDRESS AS WELL.
000120:
000121: 37,2001                        CYR                EQUALS   20
000122: 37,2001                        SR                 EQUALS   21
000123: 37,2001                        CYL                EQUALS   22
000124: 37,2001                        EDOP               EQUALS   23                                    #  EDITS INTERPRETIVE OPERATION CODE PAIRS.
000125:
000126: 37,2001                        TIME2              EQUALS   24
000127: 37,2001                        TIME1              EQUALS   25
000128: 37,2001                        TIME3              EQUALS   26
000129: 37,2001                        TIME4              EQUALS   27
000130: 37,2001                        TIME5              EQUALS   30
000131: 37,2001                        TIME6              EQUALS   31
000132: 37,2001                        CDUX               EQUALS   32
000133: 37,2001                        CDUY               EQUALS   33
000134: 37,2001                        CDUZ               EQUALS   34
000135: 37,2001                        CDUT               EQUALS   35                                    #  OPTICS TRUNNION CDU (WAS OPTY).
000136: 37,2001  0000035               OPTY               =        CDUT
000137: 37,2001                        CDUS               EQUALS   36                                    #  OPTICS SHAFT CDU (WAS OPTX).
000138: 37,2001  0000036               OPTX               =        CDUS
000139: 37,2001                        PIPAX              EQUALS   37
000140: 37,2001                        PIPAY              EQUALS   40
000141: 37,2001                        PIPAZ              EQUALS   41
000142: 37,2001                        BMAGX              EQUALS   42
000143: 37,2001                        BMAGY              EQUALS   43
000144: 37,2001                        BMAGZ              EQUALS   44
000145: 37,2001                        INLINK             EQUALS   45
000146: 37,2001                        RNRAD              EQUALS   46
000147: 37,2001                        GYROCTR            EQUALS   47
000148: 37,2001                        GYROCMD            EQUALS   47
000149: 37,2001                        CDUXCMD            EQUALS   50
000150: 37,2001                        CDUYCMD            EQUALS   51
000151:
000152:                                                                                                  #  Page 40
000153:
000154: 37,2001                        CDUZCMD            EQUALS   52
000155: 37,2001                        CDUTCMD            EQUALS   53                                    #  OPTICS TRUNNION COMMAND (WAS OPTYCMD)
000156: 37,2001  0000053               OPTYCMD            =        CDUTCMD
000157: 37,2001  0000053               TVCYAW             EQUALS   CDUTCMD                               #  SPS YAW COMMAND IN TVC MODE
000158: 37,2001                        CDUSCMD            EQUALS   54                                    #  OPTICS SHAFT COMMAND (WAS OPTXCMD).
000159: 37,2001  0000054               TVCPITCH           EQUALS   CDUSCMD                               #  SPS PITCH COMMAND IN TVC MODE
000160: 37,2001  0000054               OPTXCMD            =        CDUSCMD
000161: 37,2001                        EMSD               EQUALS   55
000162: 37,2001                        THRUST             EQUALS   55
000163: 37,2001                        LEMONM             EQUALS   56
000164: 37,2001                        LOCALARM           EQUALS   57
000165: 37,2001                        BANKALRM           EQUALS   60
000166:
000167:                                                                                                  #  INTERPRETIVE REGISTERS ADDRESSED RELATIVE TO VAC AREA.
000168:
000169: 37,2001                        LVSQUARE           EQUALS   34D                                   #  SQUARE OF VECTOR INPUT TO ABVAL AND UNIT
000170: 37,2001                        LV                 EQUALS   36D                                   #  LENGTH OF VECTOR INPUT TO UNIT.
000171: 37,2001                        X1                 EQUALS   38D                                   #  INTERPRETIVE SPECIAL REGISTER RELATIVE
000172: 37,2001                        X2                 EQUALS   39D                                   #  TO THE WORK AREA.
000173: 37,2001                        S1                 EQUALS   40D
000174: 37,2001                        S2                 EQUALS   41D
000175: 37,2001                        QPRET              EQUALS   42D
000176:
000177:                                                                                                  #  Page 41
000178:
000179:                                                                                                  #  INPUT/OUTPUT CHANNELS
000180:
000181:                                                                                                  #  *** CHANNEL ZERO IS TO BE USED IN AN INDEXED OPERATION ONLY. ***
000182: 37,2001  0000001               LCHAN              EQUALS   L
000183: 37,2001  0000002               QCHAN              EQUALS   Q
000184: 37,2001                        HISCALAR           EQUALS   3
000185: 37,2001                        LOSCALAR           EQUALS   4
000186: 37,2001                        PYJETS             EQUALS   5
000187: 37,2001                        ROLLJETS           EQUALS   6
000188: 37,2001                        SUPERBNK           EQUALS   7
000189: 37,2001                        OUT0               EQUALS   10
000190: 37,2001                        DSALMOUT           EQUALS   11
000191: 37,2001                        CHAN12             EQUALS   12
000192: 37,2001                        CHAN13             EQUALS   13
000193: 37,2001                        CHAN14             EQUALS   14
000194: 37,2001                        MNKEYIN            EQUALS   15
000195: 37,2001                        NAVKEYIN           EQUALS   16
000196: 37,2001                        CHAN30             EQUALS   30
000197: 37,2001                        CHAN31             EQUALS   31
000198: 37,2001                        CHAN32             EQUALS   32
000199: 37,2001                        CHAN33             EQUALS   33
000200: 37,2001                        DNTM1              EQUALS   34
000201: 37,2001                        DNTM2              EQUALS   35
000202:
000203:                                                                                                  #  END OF CHANNEL ASSIGNMENTS
000204:
000205:                                                                                                  #  Page 42
000206:
000207:                                                                                                  #  FLAGWORDS
000208:
000209:                                                                                                  #  FLAGWRD0      STATE +0        (000-014)
000210:                                                                                                  #  FLAGWRD1      STATE +1        (015-029)
000211:                                                                                                  #  FLAGWRD2      STATE +2        (030-044)
000212:                                                                                                  #  FLAGWRD3      STATE +3        (045-059)
000213:                                                                                                  #  FLAGWRD4      STATE +4        (060-074)
000214:                                                                                                  #  FLAGWRD5      STATE +5        (075-089)
000215:                                                                                                  #  FLAGWRD6      STATE +6        (090-104)
000216:                                                                                                  #  FLAGWRD7      STATE +7        (105-119)
000217:                                                                                                  #  FLAGWRD8      STATE +8D       (120-134)
000218:                                                                                                  #  FLAGWRD9      STATE +9D       (135-149)
000219:
000220:                                                                                                  #        SORTED LIST OF
000221:                                                                                                  #        INTERPRETIVE SWITCH BIT ASSIGNMENTS
000222:
000223:                                                                                                  #  INTERPRETIVE SWITCH BIT ASSIGNMENTS
000224:
000225:                                                                                                  #  FLAGWORD      DEC NUM         BIT & FLAG      EQUIVALENT FLAGWORDS
000226:
000227:                                                                                                  #  22DSPFLG      032D            BIT 13 FLAG 2
000228:                                                                                                  #  360SW         134D            BIT 1 FLAG 8
000229:                                                                                                  #  3AXISFLG      084D            BIT 6 FLAG 5
000230:                                                                                                  #  ADVTRK        125D            BIT 10 FLAG 8
000231:                                                                                                  #  AMOONFLG      13D             BIT 2 FLAG 0
000232:                                                                                                  #  APSESW        130D            BIT 5 FLAG 8
000233:                                                                                                  #  ASTNFLAG      108D            BIT 12 FLAG 7
000234:                                                                                                  #  ATTCHFLG      118D            BIT 2 FLAG 7
000235:                                                                                                  #  AVEGFLAG      029D            BIT 1 FLAG 1
000236:                                                                                                  #  AVEMIDSW      149D            BIT 1 FLAG 9
000237:                                                                                                  #  AVFLAG        040D            BIT 5 FLAG 2
000238:                                                                                                  #  CALCMAN2      043D            BIT 2 FLAG 2
000239:                                                                                                  #  CMDAPARM      093D            BIT 12 FLAG 6
000240:                                                                                                  #  CMOONFLG      123D            BIT 12 FLAG 8
000241:                                                                                                  #  CM/DSTBY      103D            BIT 2 FLAG 6
000242:                                                                                                  #  COGAFLAG      131D            BIT 4 FLAG 8
000243:                                                                                                  #  COMPUTER      082D            BIT 8 FLAG 5
000244:                                                                                                  #  CPHIFLAG      000D            BIT 15 FLAG 0
000245:                                                                                                  #  CULTFLAG      053D            BIT 7 FLAG 3
000246:                                                                                                  #  D6OR9FLG      058D            BIT 2 FLAG 3
000247:                                                                                                  #  DAPBIT1       090D            BIT 15 FLAG 6
000248:                                                                                                  #  DAPBIT2       091D            BIT 14 FLAG 6
000249:                                                                                                  #  DIM0FLAG      059D            BIT 1 FLAG 3
000250:                                                                                                  #  DMENFLAG      081D            BIT 9 FLAG 5
000251:                                                                                                  #  DRIFTFLG      030D            BIT 15 FLAG 2
000252:                                                                                                  #  DSKYFLAG      075D            BIT 15 FLAG 5
000253:                                                                                                  #  EGSW          097D            BIT 8 FLAG 6    KNOTNFLG R57FLAG
000254:
000255:                                                                                                  #  Page 43
000256:
000257:                                                                                                  #  ENG1FLAG      018D            BIT 12 FLAG 1
000258:                                                                                                  #  ENG2FLAG      019D            BIT 11 FLAG 1
000259:                                                                                                  #  ENGONFLG      083D            BIT 7 FLAG 5
000260:                                                                                                  #  ERADFLAG      017D            BIT 13 FLAG 1
000261:                                                                                                  #  ETPIFLAG      038D            BIT 7 FLAG 2    FIRSTFLG OPTNSW
000262:                                                                                                  #  F2RTE         010D            BIT 5 FLAG 0
000263:                                                                                                  #  FINALFLG      039D            BIT 6 FLAG 2
000264:                                                                                                  #  FIRSTFLG      038D            BIT 7 FLAG 2    ETPIFLAG OPTNSW
000265:                                                                                                  #  FREEFLAG      012D            BIT 3 FLAG 0
000266:                                                                                                  #  GAMDIFSW      094D            BIT 11 FLAG 6
000267:                                                                                                  #  GLOKFAIL      046D            BIT 14 FLAG 3
000268:                                                                                                  #  GONEBY        112D            BIT 8 FLAG 7
000269:                                                                                                  #  GONEPAST      095D            BIT 10 FLAG 6
000270:                                                                                                  #  GRRBKFLG      085D            BIT 5 FLAG 5
000271:                                                                                                  #  GUESSW        028D            BIT 2 FLAG 1
000272:                                                                                                  #  GYMDIFSW      104D            BIT 1 FLAG 6
000273:                                                                                                  #  .05GSW        102D            BIT 3 FLAG 6
000274:                                                                                                  #  HIND          099D            BIT 6 FLAG 6
000275:                                                                                                  #  IDLEFAIL      024D            BIT 6 FLAG 1
000276:                                                                                                  #  IDLEFLAG      113D            BIT 7 FLAG 7
000277:                                                                                                  #  IGNFLAG       107D            BIT 13 FLAG 7
000278:                                                                                                  #  IMPULSW       036D            BIT 9 FLAG 2
000279:                                                                                                  #  IMUSE         007D            BIT 8 FLAG 0
000280:                                                                                                  #  INCORFLG      079D            BIT 11 FLAG 5
000281:                                                                                                  #  INFINFLG      128D            BIT 7 FLAG 8
000282:                                                                                                  #  INRLSW        100D            BIT 5 FLAG 6
000283:                                                                                                  #  INTFLAG       151D            BIT 14 FLAG 10
000284:                                                                                                  #  INTYPFLG      056D            BIT 4 FLAG 3
000285:                                                                                                  #  ITSWICH       106D            BIT 14 FLAG 7
000286:                                                                                                  #  KFLAG         014D            BIT 1 FLAG 0
000287:                                                                                                  #  KNOWNFLG      097D            BIT 8 FLAG 6    EGSW R57FLAG
000288:                                                                                                  #  LATSW         101D            BIT 4 FLAG 6
000289:                                                                                                  #  LMOONFLG      124D            BIT 11 FLAG 8
000290:                                                                                                  #  LUNAFLAG      048D            BIT 12 FLAG 3
000291:                                                                                                  #  MAXDBFLG      138D            BIT 12 FLAG 9
000292:                                                                                                  #  MGLVFLAG      088D            BIT 2 FLAG 5
000293:                                                                                                  #  MID1FLAG      147D            BIT 3 FLAG 9
000294:                                                                                                  #  MIDAVFLG      148D            BIT 2 FLAG 9
000295:                                                                                                  #  MIDFLAG       002D            BIT 13 FLAG 0
000296:                                                                                                  #  MKOVFLAG      072D            BIT 3 FLAG 4
000297:                                                                                                  #  MOONFLAG      003D            BIT 12 FLAG 0
000298:                                                                                                  #  MRKIDFLG      060D            BIT 15 FLAG 4
000299:                                                                                                  #  MRKNVFLG      066D            BIT 9 FLAG 4
000300:                                                                                                  #  MRUPTFLG      070D            BIT 5 FLAG 4
000301:                                                                                                  #  MWAITFLG      064D            BIT 11 FLAG 4
000302:                                                                                                  #  N22ORN17      144D            BIT 6 FLAG 9
000303:                                                                                                  #  NEEDLFLG      006D            BIT 9 FLAG 0
000304:                                                                                                  #  NEWIFLG       122D            BIT 13 FLAG 8
000305:                                                                                                  #  NJETSFLG      015D            BIT 15 FLAG 1
000306:                                                                                                  #  NODOFLAG      044D            BIT 1 FLAG 2
000307:
000308:                                                                                                  #  Page 44
000309:
000310:                                                                                                  #  NODOP01       018D            BIT 12 FLAG 1
000311:                                                                                                  #  NORFHOR       004D            BIT 11 FLAG 0
000312:                                                                                                  #  NORMSW        110D            BIT 10 FLAG 7
000313:                                                                                                  #  NOSWITCH      098D            BIT 7 FLAG 6
000314:                                                                                                  #  NRMIDFLG      062D            BIT 13 FLAG 4
000315:                                                                                                  #  NRMNVFLG      067D            BIT 8 FLAG 4
000316:                                                                                                  #  NRUPTFLG      071D            BIT 4 FLAG 4
000317:                                                                                                  #  NWAITFLG      065D            BIT 10 FLAG 4
000318:                                                                                                  #  OPTNSW        038D            BIT 7 FLAG 2    ETPIFLAG FIRSTFLG
000319:                                                                                                  #  ORBWFLAG      054D            BIT 6 FLAG 3
000320:                                                                                                  #  ORDERSW       129D            BIT 6 FLAG 8
000321:                                                                                                  #  P21FLAG       033D            BIT 12 FLAG 2
000322:                                                                                                  #  P22MKFLG      049D            BIT 11 FLAG 3
000323:                                                                                                  #  P39/79SW      126D            BIT 9 FLAG 8
000324:                                                                                                  #  PDSPFLAG      063D            BIT 12 FLAG 4
000325:                                                                                                  #  PFRATFLG      041D            BIT 4 FLAG 2
000326:                                                                                                  #  PINBRFLG      069D            BIT 6 FLAG 4
000327:                                                                                                  #  PRECIFLG      052D            BIT 8 FLAG 3
000328:                                                                                                  #  PRFTRKAT      060D            BIT 10 FLAG 5
000329:                                                                                                  #  PRIODFLG      061D            BIT 14 FLAG 4
000330:                                                                                                  #  PRONVFLG      068D            BIT 7 FLAG 4
000331:                                                                                                  #  QUITFLAG      145D            BIT 5 FLAG 9
000332:                                                                                                  #  R21MARK       031D            BIT 14 FLAG 2
000333:                                                                                                  #  R22CAFLG      143D            BIT 7 FLAG 9
000334:                                                                                                  #  R23FLG        021D            BIT 9 FLAG 1
000335:                                                                                                  #  R31FLAG       146D            BIT 4 FLAG 9
000336:                                                                                                  #  R53FLAG       009D            BIT 6 FLAG 0
000337:                                                                                                  #  R57FLAG       097D            BIT 8 FLAG 6    KNOWNFLG EGSW
000338:                                                                                                  #  R60FLAG       086D            BIT 4 FLAG 5
000339:                                                                                                  #  REFSMFLG      047D            BIT 13 FLAG 3
000340:                                                                                                  #  REINTFLG      158D            BIT 7 FLAG 10
000341:                                                                                                  #  RELVELSW      096D            BIT 9 FLAG 6
000342:                                                                                                  #  RENDWFLG      089D            BIT 1 FLAG 5
000343:                                                                                                  #  RNDVZFLG      008D            BIT 7 FLAG 0
000344:                                                                                                  #  RPQFLAG       120D            BIT 15 FLAG 6
000345:                                                                                                  #  RVSW          111D            BIT 9 FLAG 7
000346:                                                                                                  #  SAVECFLG      140D            BIT 10 FLAG 9
000347:                                                                                                  #  SKIPVHF       035D            BIT 10 FLAG 2
000348:                                                                                                  #  SLOPESW       027D            BIT 3 FLAG 1
000349:                                                                                                  #  SOLNSW        087D            BIT 3 FLAG 5
000350:                                                                                                  #  SOURCFLG      142D            BIT 8 FLAG 9
000351:                                                                                                  #  STATEFLG      055D            BIT 5 FLAG 3
000352:                                                                                                  #  STEERSW       034D            BIT 11 FLAG 2
000353:                                                                                                  #  STIKFLAG      016D            BIT 14 FLAG 1
000354:                                                                                                  #  STRULLSW      092D            BIT 13 FLAG 6
000355:                                                                                                  #  SURFFLAG      127D            BIT 8 FLAG 8
000356:                                                                                                  #  SWTOVER       135D            BIT 15 FLAG 9
000357:                                                                                                  #  TARG1FLG      020D            BIT 10 FLAG 1
000358:
000359:                                                                                                  #  Page 45
000360:
000361:                                                                                                  #  TARG2FLG      021D            BIT 9 FLAG 1
000362:                                                                                                  #  TERMIFLG      105D            BIT 15 FLAG 7
000363:                                                                                                  #  TFFSW         119D            BIT 1 FLAG 7
000364:                                                                                                  #  TIMRFLAG      109D            BIT 11 FLAG 7
000365:                                                                                                  #  TRACKFLG      025D            BIT 5 FLAG 1
000366:                                                                                                  #  TRM03FLG      026D            BIT 4 FLAG 1
000367:                                                                                                  #  TRUNFLAG      011D            BIT 4 FLAG 0
000368:                                                                                                  #  UPDATFLG      023D            BIT 7 FLAG 1
000369:                                                                                                  #  UPLOCKFL      116D            BIT 4 FLAG 7
000370:                                                                                                  #  V37FLAG       114D            BIT 6 FLAG 7
000371:                                                                                                  #  V59FLAG       078D            BIT 12 FLAG 5
000372:                                                                                                  #  V67FLAG       136D            BIT 14 FLAG 9
000373:                                                                                                  #  V82EMFLG      137D            BIT 13 FLAG 9
000374:                                                                                                  #  V94FLAG       139D            BIT 11 FLAG 9
000375:                                                                                                  #  V96ONFLG      132D            BIT 3 FLAG 8
000376:                                                                                                  #  VEHUPFLG      022D            BIT 8 FLAG 1
000377:                                                                                                  #  VERIFLAG      117D            BIT 3 FLAG 7
000378:                                                                                                  #  VFLAG         050D            BIT 10 FLAG 3
000379:                                                                                                  #  VHFRFLAG      141D            BIT 9 FLAG 9
000380:                                                                                                  #  VINTFLAG      057D            BIT 3 FLAG 3
000381:                                                                                                  #  XDELVFLG      037D            BIT 8 FLAG 2
000382:                                                                                                  #  XDSPFLAG      074D            BIT 1 FLAG 4
000383:
000384:                                                                                                  #  Page 46
000385:
000386:                                                                                                  #  INTERPRETIVE SWITCH BIT ASSIGNMENTS
000387: 37,2001     0074               FLAGWRD0           =        STATE      +0                         #  (000-014)
000388:                                                                                                  #  (SET)                 (RESET)
000389:                                                                                                  #  BIT 15 FLAG 0
000390: 37,2001                        CPHIFLAG           =        000D                                  #  OUTPUT OF CALCGA IS   OUTPUT OF CALCGA IS
000391:                                                                                                  #  CPHIX                 THETAD
000392: 37,2001     5001               CPHIBIT            =        BIT15
000393:
000394:                                                                                                  #  BIT 14 FLAG 0
000395: 37,2001                        JSWITCH            =        001D                                  #  INTEGRATION OF W      INTEGRATION OF STATE
000396:                                                                                                  #  MATRIX                VECTOR
000397: 37,2001     5002               JSWCHBIT           =        BIT14
000398:
000399:                                                                                                  #  BIT 13 FLAG 0
000400: 37,2001                        MIDFLAG            =        002D                                  #  INTEGRATION WITH      INTEGRATION WITHOUT
000401:                                                                                                  #  SOLAR PERTURBATIONS   SOLAR PERTURBATIONS
000402:
000403: 37,2001     5003               MIDFLBIT           =        BIT13
000404:
000405:                                                                                                  #  BIT 12 FLAG 0
000406: 37,2001                        MOONFLAG           =        003D                                  #  MOON IS SPHERE OF     EARTH IS SPHERE OF
000407:                                                                                                  #  INFLUENCE             INFLUENCE
000408:
000409: 37,2001     5004               MOONBIT            =        BIT12
000410:
000411:                                                                                                  #  BIT 11 FLAG 0
000412: 37,2001                        NORFHOR            =        004D                                  #  FAR HORIZON           NEAR HORIZON
000413:
000414: 37,2001     5005               NORFBIT            =        BIT11
000415:
000416:                                                                                                  #  BIT 10 FLAG 0
000417: 37,2001                        ZMEASURE           =        005D                                  #  MEASUREMENT PLANET    MEASUREMENT PLANET
000418:                                                                                                  #  AND PRIMARY PLANET    AND PRIMARY PLANET
000419:                                                                                                  #  DIFFERENT             SAME
000420:
000421: 37,2001     5006               ZMEASBIT           =        BIT10
000422:
000423:                                                                                                  #  BIT 9 FLAG 0
000424: 37,2001                        NEEDLFLG           =        006D                                  #  TOTAL ATTITUDE        A/P FOLLOWING ERROR
000425:                                                                                                  #  ERROR DISPLAYED       DISPLAYED
000426:
000427: 37,2001     5007               NEEDLBIT           =        BIT9
000428:
000429:                                                                                                  #  BIT 8 FLAG 0
000430: 37,2001                        IMUSE              =        007D                                  #  IMU IN USE            IMU NOT IN USE
000431:
000432:                                                                                                  #  Page 47
000433:
000434: 37,2001     5010               IMUSEBIT           =        BIT8
000435:
000436:                                                                                                  #  BIT 7 FLAG 0
000437: 37,2001                        RNDVZFLG           =        008D                                  #  P20 RUNNING           P20 NOT RUNNING
000438:
000439: 37,2001     5011               RNDVZBIT           =        BIT7
000440:
000441:                                                                                                  #  BIT 6 FLAG 0
000442: 37,2001                        R53FLAG            =        009D                                  #  V51 INITIATED         V51 NOT INITIATED
000443:
000444: 37,2001     5010               R53FLBIT           =        BIT8
000445:
000446:                                                                                                  #  BIT 5 FLAG 0
000447: 37,2001                        F2RTE              =        010D                                  #  IN TIME CRITICAL      NOT IN TIME CRITICAL
000448:                                                                                                  #  MODE                  MODE
000449:
000450: 37,2001     5013               F2RTEBIT           =        BIT5
000451:
000452:                                                                                                  #  BIT 4 FLAG 0
000453: 37,2001                        TRUNFLAG           =        011D                                  #  DRIVING OF TRUNNION   DRIVING OF TRUNNION
000454:                                                                                                  #  ALLOWED               NOT ALLOWED
000455:
000456: 37,2001     5014               TRUNBIT            =        BIT4
000457:
000458:                                                                                                  #  BIT 3 FLAG 0
000459: 37,2001                        FREEFLAG           =        012D                                  #  (TEMPORARY FLAG USED IN MANY ROUTINES)
000460:
000461: 37,2001     5015               FREEFBIT           =        BIT3
000462:
000463:                                                                                                  #  BIT 2 FLAG 0
000464: 37,2001                        AMOONFLG           =        13D                                   #  STATE VECTOR IN       STATE VECTOR IN
000465: 37,2001     5016               AMOONBIT           =        BIT2                                  #  LUNAR SPHERE AT       EARTH SPHERE AT
000466:                                                                                                  #  MIDTOAVE              MIDTOAVE
000467:
000468:                                                                                                  #  BIT 1 FLAG 0
000469: 37,2001                        KFLAG              =        014D                                  #  SEARCH SECTOR MORE    SEARCH SECTOR LESS
000470:                                                                                                  #  THAN 180 DEGREES      THAN 180 DEGREES
000471:
000472: 37,2001     5017               KBIT               =        BIT1
000473:
000474: 37,2001     0075               FLAGWRD1           =        STATE      +1                         #  (015-029)
000475:                                                                                                  #  (SET)                 (RESET)
000476:
000477:                                                                                                  #  BIT 15 FLAG 1
000478: 37,2001                        NJETSFLG           =        015D                                  #  TWO JET RCS BURN      FOUR JET RCS BURN
000479:
000480: 37,2001     5001               NJETSBIT           =        BIT15
000481:
000482:                                                                                                  #  Page 48
000483:
000484:                                                                                                  #  BIT 14 FLAG 1
000485: 37,2001                        STIKFLAG           =        016D                                  #  RHC CONTROL           CMC CONTROL
000486: 37,2001     5002               STIKBIT            =        BIT14
000487:
000488:                                                                                                  #  BIT 13 FLAG 1
000489: 37,2001                        ERADFLAG           =        017D                                  #  EARTH, COMPUTE        EARTH, USED FIXED
000490:                                                                                                  #    FISCHER ELLIPSOID     RADIUS
000491:                                                                                                  #    RADIUS
000492:                                                                                                  #  MOON, USE FIXED       MOON, USE RLS FOR
000493:                                                                                                  #    RADIUS                LUNAR RADIUS
000494:
000495: 37,2001     5003               ERADFBIT           =        BIT13
000496:
000497:                                                                                                  #  BIT 12 FLAG 1
000498: 37,2001                        NODOP01            =        018D                                  #  P01 NOT ALLOWED       P01 ALLOWD
000499: 37,2001     5004               NOP01BIT           =        BIT12
000500:
000501:                                                                                                  #  BIT 11 FLAG 1
000502: 37,2001                        ENG2FLAG           =        019D                                  #  RCS BURN              SPS BURN
000503:
000504: 37,2001     5005               ENG2BIT            =        BIT11
000505:
000506:                                                                                                  #  BIT 10 FLAG 1
000507: 37,2001                        TARG1FLG           =        020D                                  #  SIGHTING LEM          NOT SIGHTING LEM
000508:
000509: 37,2001     5006               TARG1BIT           =        BIT10
000510:
000511:                                                                                                  #  BIT 9 FLAG 1
000512: 37,2001                        TARG2FLG           =        021D                                  #  SIGHTING LANDMARK     SIGHTING STAR
000513:
000514: 37,2001     5007               TARG2BIT           =        BIT9
000515:
000516:                                                                                                  #  BIT 9 FLAG 1
000517: 37,2001                        R23FLG             =        021D                                  #  R23 MARKING
000518:
000519: 37,2001     5007               R23BIT             =        BIT9
000520:
000521:                                                                                                  #  BIT 8 FLAG 1
000522: 37,2001                        VEHUPFLG           =        022D                                  #  CSM STATE VECTOR      LEM STATE VECTOR
000523:                                                                                                  #  BEING UPDATED         BEING UPDATED
000524:
000525: 37,2001     5010               VEHUPBIT           =        BIT8
000526:
000527:                                                                                                  #  BIT 7 FLAG 1
000528: 37,2001                        UPDATFLG           =        023D                                  #  UPDATING BY MARKS     UPDATING BY MARKS
000529:                                                                                                  #  ALLOWED               NOT ALLOWED
000530:                                                                                                  #  Page 49
000531:
000532: 37,2001     5011               UPDATBIT           =        BIT7
000533:
000534:                                                                                                  #  BIT 6 FLAG 1
000535: 37,2001                        IDLEFAIL           =        024D                                  #  INHIBIT R41           ENABLE R41 (ENGFAIL)
000536:
000537: 37,2001     5012               IDLEBIT            =        BIT6
000538:
000539:                                                                                                  #  BIT 5 FLAG 1
000540: 37,2001                        TRACKFLG           =        025D                                  #  TRACKING ALLOWED      TRACKING NOT ALLOWED
000541:
000542: 37,2001     5013               TRACKBIT           =        BIT5
000543:
000544:                                                                                                  #  BIT 4 FLAG 1
000545: 37,2001                        TRM03FLG           =        026D                                  #  REQUEST TO            NO REQUEST TO
000546:                                                                                                  #  TERMINATE P03 HAS     TERMINATE P03 HAS
000547:                                                                                                  #  BEEN ENTERED          BEEN ENTERED
000548:
000549: 37,2001     5014               TRM03BIT           =        BIT4
000550:
000551:                                                                                                  #  BIT 3 FLAG 1
000552: 37,2001                        SLOPESW            =        027D                                  #  ITERATE WITH BIAS     ITERATE WITH REGULA
000553:                                                                                                  #  METHOD IN ITERATOR    FALSI METHOD IN
000554:                                                                                                  #                        ITERATOR
000555:
000556: 37,2001     5015               SLOPEBIT           =        BIT3
000557:
000558:                                                                                                  #  BIT 2 FLAG 1
000559: 37,2001                        GUESSW             =        028D                                  #  NO STARTING VALUE     STARTING VALUE FOR
000560:                                                                                                  #  FOR ITERATION         ITERATION EXISTS
000561:
000562: 37,2001     5016               GUESSBIT           =        BIT2
000563:
000564:                                                                                                  #  BIT 1 FLAG 1
000565: 37,2001                        AVEGFLAG           =        029D                                  #  AVERAGEG (SERVICER)   AVERAGEG (SERVICER)
000566:                                                                                                  #  TO CONTINUE           TO CEASE
000567:
000568: 37,2001     5017               AVEGBIT            =        BIT1
000569:
000570: 37,2001     0076               FLAGWRD2           =        STATE      +2                         #  (030-044)
000571:
000572:                                                                                                  #  (SET)                 (RESET)
000573:
000574:                                                                                                  #  BIT 15 FLAG 2
000575: 37,2001                        DRIFTFLG           =        030D                                  #  T3RUPT CALLS GYRO     T3RUPT DOES NO GYRO
000576:                                                                                                  #  COMPENSATION          COMPENSATION
000577:
000578: 37,2001     5001               DRFTBIT            =        BIT15
000579:
000580:                                                                                                  #  Page 50
000581:
000582:                                                                                                  #  BIT 14 FLAG 2
000583: 37,2001                        R21MARK            =        031D                                  #  OPTION ONE FOR        OPTION TWO FOR
000584:                                                                                                  #  MARKRUPT              MARKRUPT
000585:
000586: 37,2001     5002               R21BIT             =        BIT14
000587:
000588:                                                                                                  #  BIT 13 FLAG 2
000589: 37,2001                        22DSPFLG           =        032D                                  #  DISPLAY DR,DV         DO NOT DISPLAY DR,DV
000590:
000591: 37,2001     5003               22DSPBIT           =        BIT13
000592:
000593:                                                                                                  #  BIT 12 FLAG 2
000594: 37,2001                        P21FLAG            =        033D                                  #  SUCCEEDING PASS       1ST PASS THRU P21,
000595:                                                                                                  #  THRU P21, USE BASE    CALCULATE BASE
000596: 37,2001     5004               P21BIT             =        BIT12                                 #  VECTOR FOR CALC.      VECTOR
000597:
000598: 37,2001                        STEERSW            =        034D                                  #  STEERING TO BE DONE   STEERING OMITTED
000599:
000600: 37,2001     5005               STEERBIT           =        BIT11
000601:
000602:                                                                                                  #  BIT 10 FLAG 2
000603: 37,2001                        SKIPVHF            =        035D                                  #  DISREGARD RADAR       RADAR READ TO
000604:                                                                                                  #  READ BECAUSE OF       PROCEED NORMALLY
000605: 37,2001     5006               SKIPVBIT           =        BIT10                                 #  SFTWRE OR HDWRE
000606:                                                                                                  #  RESTART
000607:
000608:                                                                                                  #  BIT 9 FLAG 2
000609: 37,2001                        IMPULSW            =        036D                                  #  MINIMUM IMPULSE       STEERING BURN (NO
000610:                                                                                                  #  BURN (CUTOFF TIME     CUTOFF TIME YET
000611:                                                                                                  #  SPECIFIED)            AVAILABLE)
000612:
000613: 37,2001     5007               IMPULBIT           =        BIT9
000614:
000615:                                                                                                  #  BIT 8 FLAG 2
000616: 37,2001                        XDELVFLG           =        037D                                  #  EXTERNAL DELTAV VG    LAMBERT (AIMPOINT)
000617:                                                                                                  #  COMPUTATION           VG COMPUTATION
000618:
000619: 37,2001     5010               XDELVBIT           =        BIT8
000620:
000621:                                                                                                  #  BIT 7 FLAG 2
000622: 37,2001                        ETPIFLAG           =        038D                                  #  ELEVATION ANGLE       TPI TIME SUPPLIED
000623:                                                                                                  #  SUPPLIED FOR P34,74   FOR P34,74
000624:
000625:                                                                                                  #  BIT 7 FLAG 2
000626: 37,2001  0000046               FIRSTFLG           =        ETPIFLAG                              #  FIRST PASS            SUCCEEDING PASS THRU
000627:                                                                                                  #  THRU S40.9            S40.9
000628:
000629: 37,2001     5011               FIRSTBIT           =        BIT7
000630:
000631:                                                                                                  #  BIT 7 FLAG 2
000632:                                                                                                  #  Page 51
000633: 37,2001  0000046               OPTNSW             =        ETPIFLAG                              #  SOI PHASE P38/P78     SOR PHASE OF P38/P78
000634:
000635: 37,2001     5012               FINALBIT           =        BIT6
000636:
000637:                                                                                                  #  BIT 6 FLAG 2
000638: 37,2001                        FINALFLG           =        039D                                  #  LAST PASS THROUGH     INTERIM PASS THROUGH
000639:                                                                                                  #  RENDEZVOUS PROGRAM    RENDEZVOUS PROGRAM
000640:                                                                                                  #  COMPUTATIONS          COMPUTATIONS
000641:
000642: 37,2001     5013               AVFLBIT            =        BIT5
000643:
000644:                                                                                                  #  BIT 5 FLAG 2
000645: 37,2001                        AVFLAG             =        040D                                  #  LEM IS ACTIVE         CSM IS ACTIVE
000646:                                                                                                  #  VEHICLE               VEHICLE
000647:
000648:                                                                                                  #  BIT 4 FLAG 2
000649: 37,2001                        PFRATFLG           =        041D                                  #  PREFERRED ATTITUDE    PREFERRED ATTITUDE
000650:                                                                                                  #  COMPUTED              NOT COMPUTED
000651:
000652: 37,2001     5014               PFRATBIT           =        BIT4
000653:
000654:                                                                                                  #  BIT 3 FLAG 2
000655: 37,2001                                           =        042D
000656:
000657:                                                                                                  #  BIT 2 FLAG 2
000658: 37,2001                        CALCMAN2           =        043D                                  #  PERFORM MANEUVER      BYPASS STARTING
000659:                                                                                                  #  STARTING PROCEDURE    PROCEDURE
000660:
000661: 37,2001     5016               CALC2BIT           =        BIT2
000662:
000663:                                                                                                  #  BIT 1 FLAG 2
000664: 37,2001                        NODOFLAG           =        044D                                  #  V37 NOT PERMITTED     V37 PERMITTED
000665:
000666: 37,2001     5017               NODOBIT            =        BIT1
000667:
000668: 37,2001     0077               FLAGWRD3           =        STATE      +3                         #  (045-059)
000669:                                                                                                  #  (SET)                 (RESET)
000670:
000671:                                                                                                  #  BIT 15 FLAG 3
000672: 37,2001                                           =        045D
000673:
000674:                                                                                                  #  BIT 14 FLAG 3
000675: 37,2001                        GLOKFAIL           =        046D                                  #  GIMBAL LOCK HAS       NOT IN GIMBAL LOCK
000676:                                                                                                  #  OCCURRED
000677:
000678: 37,2001     5002               GLOKFBIT           =        BIT14
000679:
000680:                                                                                                  #  Page 52
000681:
000682:                                                                                                  #  BIT 13 FLAG 3
000683: 37,2001                        REFSMFLG           =        047D                                  #  REFSMMAT GOOD         REFSMMAT NO GOOD
000684:
000685: 37,2001     5003               REFSMBIT           =        BIT13
000686:
000687:                                                                                                  #  BIT 12 FLAG 3
000688: 37,2001                        LUNAFLAG           =        048D                                  #  LUNAR LAT-LONG        EARTH LAT-LONG
000689:
000690: 37,2001     5004               LUNABIT            =        BIT12
000691:
000692:                                                                                                  #  BIT 11 FLAG 3
000693: 37,2001                        P22MKFLG           =        049D                                  #  P22 DOWNLINKED MARK   P22 DOWNLINK MARK
000694:                                                                                                  #  DATA WAS JUST TAKEN   DATA NOT JUST TAKEN
000695:
000696: 37,2001     5005               P22MKBIT           =        BIT11
000697:
000698:                                                                                                  #  BIT 10 FLAG 3
000699: 37,2001                        VFLAG              =        050D                                  #  LESS THAN TWO STARS   TWO STARS IN FIELD
000700:                                                                                                  #  IN FIELD OF VIEW      OF VIEW
000701:
000702: 37,2001     5006               VFLAGBIT           =        BIT10
000703:
000704:                                                                                                  #  BIT 9 FLAG 3
000705: 37,2001                                           =        051D
000706:
000707:                                                                                                  #  BIT 8 FLAG 3
000708: 37,2001                        PRECIFLG           =        052D                                  #  CSMPREC OR LEMPREC    INTEGRV
000709:                                                                                                  #  OR INTEGRVS CALLED    CALLED
000710:
000711: 37,2001     5010               PRECIBIT           =        BIT8
000712:
000713:                                                                                                  #  BIT 7 FLAG 3
000714: 37,2001                        CULTFLAG           =        053D                                  #  STAR OCCULTED         STAR NOT OCCULTED
000715:
000716: 37,2001     5011               CULTBIT            =        BIT7
000717:
000718:                                                                                                  #  BIT 6 FLAG 3
000719: 37,2001                        ORBWFLAG           =        054D                                  #  W MATRIX VALID FOR    W MATRIX INVALID FOR
000720:                                                                                                  #  ORBITAL NAVIGATION    ORBITAL NAVIGATION
000721:
000722: 37,2001     5012               ORBWFBIT           =        BIT6
000723:
000724:                                                                                                  #  BIT 5 FLAG 3
000725: 37,2001                        STATEFLG           =        055D                                  #  PERMANENT STATE       PERMANENT STATE
000726:                                                                                                  #  VECTOR UPDATED        VECTOR NOT UPDATED
000727:
000728: 37,2001     5013               STATEBIT           =        BIT5
000729:
000730:                                                                                                  #  BIT 4 FLAG 3
000731: 37,2001                        INTYPFLG           =        056D                                  #  CONIC INTEGRATION     ENCKE INTEGRATION
000732:                                                                                                  #  Page 53
000733: 37,2001     5014               INTYBIT            =        BIT4
000734:
000735:                                                                                                  #  BIT 3 FLAG 3
000736: 37,2001                        VINTFLAG           =        057D                                  #  CSM STATE VECTOR      LEM STATE VECTOR
000737:                                                                                                  #  BEING INTEGRATED      BEING INTEGRATED
000738:
000739: 37,2001     5015               VINTFBIT           =        BIT3
000740:
000741:                                                                                                  #  BIT 2 FLAG 3
000742: 37,2001                        D6OR9FLG           =        058D                                  #  DIMENSION OF W IS 9   DIMENSION OF W IS 6
000743:                                                                                                  #  FOR INTEGRATION       FOR INTEGRATION
000744:
000745: 37,2001     5016               D6OR9BIT           =        BIT2
000746:
000747:                                                                                                  #  BIT 1 FLAG 3
000748: 37,2001                        DIM0FLAG           =        059D                                  #  W MATRIX IS TO BE     W MATRIX IS NOT TO
000749:                                                                                                  #  USED                  BE USED
000750:
000751: 37,2001     0100               FLAGWRD4           =        STATE      +4                         #  (060-074)
000752:                                                                                                  #  (SET)                 (RESET)
000753:
000754: 37,2001     5017               DIM0BIT            =        BIT1
000755:
000756:                                                                                                  #  BIT 15 FLAG 4
000757: 37,2001                        MRKIDFLG           =        060D                                  #  MARK DISPLAY IN       NO MARK DISPLAY IN
000758:                                                                                                  #  ENDIDLE               ENDIDLE
000759:
000760: 37,2001     5001               MRKIDBIT           =        BIT15
000761:
000762:                                                                                                  #  BIT 14 FLAG 4
000763: 37,2001                        PRIODFLG           =        061D                                  #  PRIORITY DISPLAY IN   NO PRIORITY DISPLAY
000764:                                                                                                  #  ENDIDLE               IN ENDIDLE
000765:
000766: 37,2001     5002               PRIODBIT           =        BIT14
000767:
000768:                                                                                                  #  BIT 13 FLAG 4
000769: 37,2001                        NRMIDFLG           =        062D                                  #  NORMAL DISPLAY IN     NO NORMAL DISPLAY
000770:                                                                                                  #  ENDIDLE               IN ENDIDLE
000771:
000772: 37,2001     5003               NRMIDBIT           =        BIT13
000773:
000774:                                                                                                  #  BIT 12 FLAG 4
000775: 37,2001                        PDSPFLAG           =        063D                                  #  CAN'T INTERRUPT       SEE M. HAMILTON
000776:                                                                                                  #  PRIORITY DISPLAY
000777:
000778: 37,2001     5004               PDSPFBIT           =        BIT12
000779:
000780:                                                                                                  #  BIT 11 FLAG 4
000781: 37,2001                        MWAITFLG           =        064D                                  #  HIGHER PRIORITY       NO HIGHER PRIORITY
000782:                                                                                                  #  Page 54
000783:                                                                                                  #  DISPLAY OPERATING     DISPLAY OPERATING
000784:                                                                                                  #  WHEN MARK DISPLAY     WHEN MARK DISPLAY
000785:                                                                                                  #  INITIATED             INITIATED
000786: 37,2001     5005               MWAITBIT           =        BIT11
000787:
000788:                                                                                                  #  BIT 10 FLAG 4
000789: 37,2001                        NWAITFLG           =        065D                                  #  HIGHER PRIORITY       NO HIGHER PRIORITY
000790:                                                                                                  #  DISPLAY OPERATING     DISPLAY OPERATING
000791:                                                                                                  #  WHEN NORMAL           WHEN NORMAL DISPLAY
000792:                                                                                                  #  DISPLAY INITIATED     INITIATED
000793:
000794: 37,2001     5006               NWAITBIT           =        BIT10
000795:
000796:                                                                                                  #  BIT 9 FLAG 4
000797: 37,2001                        MRKNVFLG           =        066D                                  #  ASTRONAUT USING       ASTRONAUT NOT USING
000798:                                                                                                  #  KEYBOARD WHEN MARK    KEYBOARD WHEN MARK
000799:                                                                                                  #  DISPLAY INITIATED     DISPLAY INITIATED
000800:
000801: 37,2001     5007               MRKNVBIT           =        BIT9
000802:
000803:                                                                                                  #  BIT 8 FLAG 4
000804: 37,2001                        NRMNVFLG           =        067D                                  #  ASTRONAUT USING       ASTRONAUT NOT USING
000805:                                                                                                  #  KEYBOARD WHEN         KEYBOARD WHEN
000806:                                                                                                  #  NORMAL DISPLAY        NORMAL DISPLAY
000807:                                                                                                  #  INITIATED             INITIATED
000808:
000809: 37,2001     5010               NRMNVBIT           =        BIT8
000810:
000811:                                                                                                  #  BIT 7 FLAG 4
000812: 37,2001                        PRONVFLG           =        068D                                  #  ASTRONAUT USING       ASTRONAUT NOT USING
000813:                                                                                                  #  KEYBOARD WHEN         KEYBOARD WHEN
000814:                                                                                                  #  PRIORITY DISPLAY      PRIORITY DISPLAY
000815:                                                                                                  #  INITIATED             INITIATED
000816:
000817: 37,2001     5011               PRONVBIT           =        BIT7
000818:
000819:                                                                                                  #  BIT 6 FLAG 4
000820: 37,2001                        PINBRFLG           =        069D                                  #  ASTRONAUT HAS         ASTRONAUT HAS NOT
000821:                                                                                                  #  INTERFERED WITH       INTERFERED WITH
000822:                                                                                                  #  EXISTING DISPLAY      EXISTING DISPLAY
000823:
000824: 37,2001     5012               PINBRBIT           =        BIT6
000825:
000826:                                                                                                  #  BIT 5 FLAG 4
000827: 37,2001                        MRUPTFLG           =        070D                                  #  MARK DISPLAY          MARK DISPLAY NOT
000828:                                                                                                  #  INTERRUPTED BY        INTERRUPTED BY
000829:                                                                                                  #  PRIORITY DISPLAY      PRIORITY DISPLAY
000830:
000831: 37,2001     5013               MRUPTBIT           =        BIT5
000832:                                                                                                  #  Page 55
000833:
000834:                                                                                                  #  BIT 4 FLAG 4
000835: 37,2001                        NRUPTFLG           =        071D                                  #  NORMAL DISPLAY        NORMAL DISPLAY NOT
000836:                                                                                                  #  INTERRUPTED BY        INTERRUPTED BY
000837:                                                                                                  #  PRIORITY OR MARK      PRIORITY OR MARK
000838:                                                                                                  #  DISPLAY               DISPLAY
000839:
000840: 37,2001     5014               NRUPTBIT           =        BIT4
000841:
000842:                                                                                                  #  BIT 3 FLAG 4
000843: 37,2001                        MKOVFLAG           =        072D                                  #  MARK DISPLAY OVER     NO MARK DISPLAY OVER
000844:                                                                                                  #  NORMAL                NORMAL
000845:
000846: 37,2001     5015               MKOVBIT            =        BIT3
000847:
000848:                                                                                                  #  BIT 2 FLAG 4                          # DISPLAY BIT
000849: 37,2001                                           =        073D                                  #  CLEARED AT INTERVALS
000850:
000851:                                                                                                  #  BIT 1 FLAG 4
000852: 37,2001                        XDSPFLAG           =        074D                                  #  MARK DISPLAY NOT TO   NO SPECIAL MARK
000853:                                                                                                  #  BE INTERRUPTED        INFORMATION
000854:
000855: 37,2001     5017               XDSPBIT            =        BIT1
000856:
000857: 37,2001     0101               FLAGWRD5           =        STATE      +5                         #  (075-099)
000858:                                                                                                  #  (SET)                 (RESET)
000859:
000860:                                                                                                  #  BIT 15 FLAG 5
000861: 37,2001                        DSKYFLAG           =        075D                                  #  DISPLAYS SENT TO      NO DISPLAYS TO DSKY
000862:                                                                                                  #  DSKY
000863: 37,2001     5001               DSKYBIT            =        BIT15
000864:
000865:                                                                                                  #  BIT 14 FLAG 5
000866: 37,2001                        RETROFLG           =        076D                                  #  P37 PREMANEUVER       ORBIT NOT RETROGRADE
000867: 37,2001     5002               RETROBIT           =        BIT14                                 #  ORBIT IS RETROGRADE
000868:
000869:                                                                                                  #  BIT 13 FLAG 5
000870: 37,2001                        SLOWFLG            =        077D                                  #  P37 TRANSEARTH        SLOW DOWN IS NOT
000871: 37,2001     5003               SLOWBIT            =        BIT13                                 #  COAST SLOW DOWN       DESIRED
000872:                                                                                                  #  IS DESIRED
000873:
000874:                                                                                                  #  BIT 12 FLAG 5
000875: 37,2001                        V59FLAG            =        078D                                  #  CALIBRATING FOR       NORMAL MARKING FOR
000876:                                                                                                  #  P23                   P23
000877:
000878: 37,2001     5004               V59FLBIT           =        BIT12
000879:
000880:                                                                                                  #  BIT 11 FLAG 5
000881:                                                                                                  #  Page 56
000882: 37,2001                        INCORFLG           =        079D                                  #  FIRST INCORPORATION   SECOND INCORPORATION
000883:
000884: 37,2001     5005               INCORBIT           =        BIT11
000885:
000886:                                                                                                  #  BIT 10 FLAG 5
000887: 37,2001                        RNGSCFLG           =        080D                                  #  ANOTHER TAG FOR PRFTRKAT
000888:
000889:                                                                                                  #  BIT 10 FLAG 5
000890: 37,2001  0000120               PRFTRKAT           =        RNGSCFLG                              #  PREF TRACK ATT        +K AXIS TRACK ATT
000891:
000892: 37,2001     5006               PRFTRBIT           =        BIT10
000893:
000894:                                                                                                  #  BIT 9 FLAG 5
000895: 37,2001                        DMENFLG            =        081D                                  #  DIMENSION OF W IS 9   DIMENSION OF W IS 6
000896:                                                                                                  #  FOR INCORPORATION     FOR INCORPORATION
000897:
000898: 37,2001     5007               DMENFBIT           =        BIT9
000899:
000900:                                                                                                  #  BIT 8 FLAG 5
000901: 37,2001                        COMPUTER           =        082D                                  #  COMPUTER IS CMC       COMPUTER IS LGC
000902:
000903: 37,2001     5010               COMPTBIT           =        BIT8
000904:
000905:                                                                                                  #  BIT 7 FLAG 5
000906: 37,2001                        ENGONFLG           =        083D                                  #  ENGINE TURNED ON      ENGINE TURNED OFF
000907:
000908: 37,2001     5011               ENGONBIT           =        BIT7
000909:
000910:                                                                                                  #  BIT 6 FLAG 5
000911: 37,2001                        3AXISFLG           =        084D                                  #  MANEUVER SPECIFIED    MANEUVER SPECIFIED
000912:                                                                                                  #  BY THREE AXES         BY ONE AXIS
000913:
000914: 37,2001     5012               3AXISBIT           =        BIT6
000915:
000916:                                                                                                  #  BIT 5 FLAG 5
000917: 37,2001                        GRRBKFLG           =        085D                                  #  BACKUP GRR RECEIVED   BACKUP GRR NOT
000918:                                                                                                  #                        RECEIVED
000919:
000920: 37,2001     5013               GRRBKBIT           =        BIT5
000921:
000922:                                                                                                  #  BIT 4 FLAG 5
000923: 37,2001                        R60FLAG            =        086D                                  #  R61 MUST USE R60      NORMAL R61
000924:
000925: 37,2001     5014               R60FLBIT           =        BIT4
000926:
000927:                                                                                                  #  BIT 3 FLAG 5
000928: 37,2001                        SOLNSW             =        087D                                  #  LAMBERT DOES NOT      LAMBERT CONVERGES OR
000929:                                                                                                  #  Page 57
000930:                                                                                                  #  CONVERGE, OR TIME-    TIME-RADIUS NON
000931:                                                                                                  #  RADIUS NEARLY CIRC.   CIRCULAR.
000932: 37,2001     5015               SOLNSBIT           =        BIT3
000933:
000934:                                                                                                  #  BIT 2 FLAG 5
000935: 37,2001                        MGLVFLAG           =        088D                                  #  LOCAL VERTICAL        MIDDLE GIMBAL ANGLE
000936:                                                                                                  #  COORDINATES           COMPUTED
000937:                                                                                                  #  COMPUTED
000938:
000939: 37,2001     5016               MGLVFBIT           =        BIT2
000940:
000941:                                                                                                  #  BIT 1 FLAG 5
000942: 37,2001                        RENDWFLG           =        089D                                  #  W MATRIX VALID        W MATRIX INVALID
000943:                                                                                                  #  FOR RENDEZVOUS        FOR RENDEZVOUS
000944:                                                                                                  #  NAVIGATION            NAVIGATION
000945:
000946: 37,2001     5017               RENDWBIT           =        BIT1
000947:
000948: 37,2001     0102               FLAGWRD6           =        STATE      +6                         #  (090-104)
000949:                                                                                                  #  (SET)                 (RESET)
000950:
000951:                                                                                                  #  BIT 15 FLAG 6
000952: 37,2001                        DAPBIT1            =        090D                                  #  1 SATURN 1 TVC        0 RCS   0 NO
000953:
000954: 37,2001     5001               DAP1BIT            =        BIT15
000955:
000956:                                                                                                  #  BIT 14 FLAG 6
000957: 37,2001                        DAPBIT2            =        091D                                  #  1 A/P    0 A/P        1 A/P   0 A/P
000958:
000959: 37,2001     5002               DAP2BIT            =        BIT14
000960:
000961:                                                                                                  #  BIT 13 FLAG 6
000962: 37,2001                        STRULLSW           =        092D                                  #  DO STEERULL           DO ULAGEOFF ONLY
000963:
000964: 37,2001     5003               STRULBIT           =        BIT13
000965:
000966:                                                                                                  #  BIT 13 FLAG 6
000967: 37,2001  0000134               ENTRYDSP           =        STRULLSW                              #  DO ENTRY DISPLAY      OMIT ENTRY DISPLAY
000968:                                                                                                  #  VIA ENTRYVN.
000969:
000970: 37,2001     5003               ENDSPBIT           =        BIT13
000971:
000972:                                                                                                  #  BIT 12 FLAG 6
000973: 37,2001                        CMDAPARM           =        093D                                  #  ALLOW ENTRY FIRINGS   INHIBIT ENTRY FIRING
000974:                                                                                                  #  AND CALCULATIONS      AND CONTROL FUNCTION
000975:                                                                                                  #  Page 58
000976: 37,2001     5004               CMDARMBIT           =        BIT12
000977:
000978:                                                                                                  #  BIT 11 FLAG 6
000979: 37,2001                        GAMDIFSW           =        094D                                  #  CALCULATE GAMDOT      GAMDOT NOT TO BE
000980:                                                                                                  #                        CALCULATED
000981:
000982: 37,2001     5005               GMDIFBIT           =        BIT11
000983:
000984:                                                                                                  #  BIT 10 FLAG 6
000985: 37,2001                        GONEPAST           =        095D                                  #  LATERAL CONTROL       LATERAL CONTROL
000986:                                                                                                  #  CALCULATIONS TO BE    CALCULATIONS TO BE
000987:                                                                                                  #  OMITTED               DONE
000988:
000989: 37,2001     5006               GONEBIT            =        BIT10
000990:
000991:                                                                                                  #  BIT 9 FLAG 6
000992: 37,2001                        RELVELSW           =        096D                                  #  TARGETING USES        TARGETING USES
000993:                                                                                                  #  EARTH-RELATIVE        INERTIAL VELOCITY
000994:                                                                                                  #  VELOCITY.
000995:
000996: 37,2001     5007               RELVBIT            =        BIT9
000997:
000998:                                                                                                  #  BIT 8 FLAG 6
000999: 37,2001                        EGSW               =        097D                                  #  IN FINAL PHASE        NOT IN FINAL PHASE
001000:
001001: 37,2001     5010               EGFLGBIT           =        BIT8
001002:
001003:                                                                                                  #  BIT 8 FLAG 6
001004: 37,2001  0000141               KNOWNFLG           =        EGSW                                  #  LANDMARK KNOWN        LANDMARK UNKNOWN
001005:
001006: 37,2001     5010               KNOWNBIT           =        BIT8
001007:
001008:                                                                                                  #  BIT 8 FLAG 6
001009: 37,2001  0000141               R57FLAG            =        KNOWNFLG                              #  DO NOT DO R57         DO R57, TRUNION
001010:                                                                                                  #  TRUNION BIAS HAS      BIAS NEEDED
001011:                                                                                                  #  BEEN OBTAINED.
001012:
001013: 37,2001     5010               R57BIT             =        BIT8
001014:
001015:                                                                                                  #  BIT 7 FLAG 6
001016: 37,2001                        NOSWITCH           =        098D                                  #  LATERAL ROLL          LATERAL ROLL MANEUVER
001017:                                                                                                  #  MANEUVER INHIBITED    PERMITTED IN ENTRY
001018:                                                                                                  #  IN ENTRY
001019:
001020: 37,2001     5011               NOSWBIT            =        BIT7
001021:
001022:                                                                                                  #  BIT 6 FLAG 6
001023: 37,2001                        HIND               =        099D                                  #  ITERATING HUNTEST     ITERATING OF HUNTEST
001024:                                                                                                  #  CALCULATIONS TO BE    CALCULATIONS TO BE
001025:                                                                                                  #  DONE AFTER RANGE      OMITTED AFTER RANGE
001026:                                                                                                  #  PREDICTION            PREDICTION
001027:                                                                                                  #  Page 59
001028:
001029: 37,2001     5012               HINDBIT            =        BIT6
001030:
001031:                                                                                                  #  BIT 5 FLAG 6
001032: 37,2001                        INRLSW             =        100D                                  #  INITIAL ROLL          INITIAL ROLL
001033:                                                                                                  #  V(LV)                 V(LV)
001034:
001035: 37,2001     5013               INRLBIT            =        BIT5
001036:
001037:                                                                                                  #  ATTITUDE NOT HELD     ATTITUDE HELD
001038:
001039:                                                                                                  #  BIT 4 FLAG 6
001040: 37,2001                        LATSW              =        101D                                  #  DOWNLIFT NOT          DOWNLIFT INHIBITED
001041:                                                                                                  #  INHIBITED
001042:
001043: 37,2001     5014               LATSWBIT           =        BIT4
001044:
001045:                                                                                                  #  BIT 3 FLAG 6
001046: 37,2001                        .05GSW             =        102D                                  #  DRAG OVER .05G        DRAG LESS THAN .05G
001047:
001048: 37,2001     5015               .05GBIT            =        BIT3
001049:
001050:                                                                                                  #  BIT 3 FLAG 6
001051: 37,2001                                           =        102D
001052:
001053:                                                                                                  #  BIT 2 FLAG 6
001054: 37,2001                        CM/DSTBY           =        103D                                  #  ENTRY DAP ACTIVATED   ENTRY DAP NOT
001055:                                                                                                  #                        ACTIVATED
001056:
001057: 37,2001     5016               CM/DSBIT           =        BIT2
001058:
001059:                                                                                                  #  BIT 1 FLAG 6
001060: 37,2001                        GYMDIFSW           =        104D                                  #  CDU DIFFERENCES AND   CDU DIFFERENCES AND
001061:                                                                                                  #  BODY RATES COMPUTED   BODY RATES NOT
001062:                                                                                                  #                        COMPUTED
001063:
001064: 37,2001     5017               GYMDIBIT           =        BIT1
001065:
001066: 37,2001     0103               FLAGWRD7           =        STATE      +7                         #  (105-119)
001067:                                                                                                  #  (SET)                 (RESET)
001068:
001069:                                                                                                  #  BIT 15 FLAG 7
001070: 37,2001                        TERMIFLG           =        105D                                  #  TERMINATE R52         DO NOT TERMINATE R52
001071:
001072: 37,2001     5001               TERMIBIT           =        BIT15
001073:
001074:                                                                                                  #  BIT 14 FLAG 7
001075: 37,2001                        ITSWICH            =        106D                                  #  ACCEPT NEXT LAMBERT   TEST LAMBERT ANSWER
001076:                                                                                                  #  TPI SEARCH SOLUTION   AGAINST LIMITS
001077:                                                                                                  #  Page 60
001078:
001079: 37,2001     5002               ITSWBIT            =        BIT14
001080:
001081:                                                                                                  #  BIT 13 FLAG 7
001082: 37,2001                        IGNFLAG            =        107D                                  #  TIG HAS ARRIVED       TIG HAS NOT ARRIVED
001083:
001084: 37,2001     5003               IGNFLBIT           =        BIT13
001085:
001086:                                                                                                  #  BIT 12 FLAG 7
001087: 37,2001                        ASTNFLAG           =        108D                                  #  ASTRONAUT HAS         ASTRONAUT HAS NOT
001088:                                                                                                  #  OKAYED IGNITION       OKAYED IGNITION
001089:
001090: 37,2001     5004               ASTNBIT            =        BIT12
001091:
001092:                                                                                                  #  BIT 11 FLAG 7
001093: 37,2001                        TIMRFLAG           =        109D                                  #  CLOKTASK OPERATING    CLOKTASK INOPERATIVE
001094:
001095: 37,2001     5005               TIMRBIT            =        BIT11
001096:
001097:                                                                                                  #  BIT 10 FLAG 7
001098: 37,2001                        NORMSW             =        110D                                  #  UNIT NORMAL INPUT     LAMBERT COMPUTE ITS
001099:                                                                                                  #  TO LAMBERT.           OWN UNIT NORMAL.
001100:
001101: 37,2001     5006               NORMSBIT           =        BIT10
001102:
001103:                                                                                                  #  BIT 9 FLAG 7
001104: 37,2001                        RVSW               =        111D                                  #  DO NOT COMPUTE FINAL  COMPUTE FINAL STATE
001105:                                                                                                  #  STATE VECTOR IN       VECTOR IN TIME-THETA
001106:                                                                                                  #  TIME-THETA
001107:
001108: 37,2001     5007               RVSWBIT            =        BIT9
001109:
001110:                                                                                                  #  BIT 8 FLAG 7
001111: 37,2001                        GONEBY             =        112D                                  #  PASSED TARGET         APPROACHING TARGET
001112:
001113: 37,2001     5010               GONBYBIT           =        BIT8
001114:
001115:                                                                                                  #  BIT 7 FLAG 7
001116: 37,2001                                           =        113D
001117:
001118:                                                                                                  #  BIT 6 FLAG 7
001119: 37,2001                        V37FLAG            =        114D                                  #  AVERAGEG (SERVICER)   AVERAGEG (SERVICER)
001120:                                                                                                  #  RUNNING               OFF
001121:
001122: 37,2001     5012               V37FLBIT           =        BIT6
001123:
001124:                                                                                                  #  BIT 5 FLAG 7
001125: 37,2001                                           =        115D
001126:                                                                                                  #  Page 61
001127: 37,2001                                           =        BIT5
001128:
001129:                                                                                                  #  BIT 4 FLAG 7
001130: 37,2001                        UPLOCKFL           =        116D                                  #  K-KBAR-K FAIL         NO K-KBAR-K FAIL
001131:
001132: 37,2001     5014               UPLOCBIT           =        BIT4
001133:
001134:                                                                                                  #  BIT 3 FLAG 7
001135: 37,2001                        VERIFLAG           =        117D                                  #  CHANGED WHEN V33E OCCURS AT END OF P27
001136:
001137: 37,2001     5015               VERIFBIT           =        BIT3
001138:
001139:                                                                                                  #  BIT 2 FLAG 7
001140: 37,2001                        ATTCHFLG           =        118D                                  #  LM,CM ATTACHED        LM,CM NOT ATTACHED
001141:
001142: 37,2001     5016               ATTCHBIT           =        BIT2
001143:
001144:                                                                                                  #  BIT 1 FLAG 7
001145: 37,2001                        TFFSW              =        119D                                  #  CALCULATE TPERIGEE    CALCULATE TFF
001146:
001147: 37,2001     5017               TFFSWBIT           =        BIT1
001148:
001149: 37,2001     0104               FLAGWRD8           =        STATE      +8D                        #  (120-134)
001150:                                                                                                  #  (SET)                 (RESET)
001151:
001152:                                                                                                  #  BIT 15 FLAG 8
001153: 37,2001                        RPQFLAG            =        120D                                  #  RPQ NOT COMPUTED      RPQ COMPUTED
001154:
001155: 37,2001     5001               RPQFLBIT           =        BIT15
001156:
001157:                                                                                                  #  BIT 14 FLAG 8
001158: 37,2001                                           =        121D
001159:
001160:                                                                                                  #  BIT 13 FLAG 8
001161: 37,2001                        NEWIFLG            =        122D                                  #  FIRST PASS THROUGH    SUCCEEDING ITERATION
001162:                                                                                                  #  INTEGRATION           OF INTEGRATION
001163:
001164: 37,2001     5003               NEWIBIT            =        BIT13
001165:
001166:                                                                                                  #  BIT 12 FLAG 8
001167: 37,2001                        CMOONFLG           =        123D                                  #  PERMANENT CSM STATE   PERMANENT CSM STATE
001168:                                                                                                  #  IN LUNAR SPHERE       IN EARTH SPHERE
001169:
001170: 37,2001     5004               CMOONBIT           =        BIT12
001171:
001172:                                                                                                  #  BIT 11 FLAG 8
001173: 37,2001                        LMOONFLG           =        124D                                  #  PERMANENT LM STATE    PERMANENT LM STATE
001174:                                                                                                  #  IN LUNAR SPHERE       IN EARTH SPHERE
001175:
001176: 37,2001     5005               LMOONBIT           =        BIT11
001177:
001178:                                                                                                  #  Page 62
001179:
001180:                                                                                                  #  BIT 10 FLAG 8
001181: 37,2001                        ADVTRK             =        125D                                  #  ADVANCE GROUND TRACK  NOT ADVANCED
001182:                                                                                                  #  SIGHTING WANTED       GROUND TRACK
001183:
001184: 37,2001     5006               ADVTKBIT           =        BIT10
001185:
001186:                                                                                                  #  BIT 9 FLAG 8
001187: 37,2001                        P39/79SW           =        126D                                  #  P39/79 OPERATING      P38/78 OPERATING
001188:
001189: 37,2001     5007               P39SWBIT           =        BIT9
001190:
001191:                                                                                                  #  BIT 8 FLAG 8
001192: 37,2001                        SURFFLAG           =        127D                                  #  LM ON LUNAR SURFACE   LM NOT ON LUNAR
001193:                                                                                                  #                        SURFACE
001194:
001195: 37,2001     5010               SURFFBIT           =        BIT8
001196:
001197:                                                                                                  #  BIT 7 FLAG 8
001198: 37,2001                        INFINFLG           =        128D                                  #  NO CONIC SOLUTION     CONIC SOLUTION
001199:                                                                                                  #  (CLOSURE THROUGH      EXISTS.
001200:                                                                                                  #  INFINITY REQUIRED).
001201:
001202: 37,2001     5011               INFINBIT           =        BIT7
001203:
001204:                                                                                                  #  BIT 6 FLAG 8
001205: 37,2001                        ORDERSW            =        129D                                  #  ITERATOR USES 2ND     ITERATOR USES 1ST
001206:                                                                                                  #  ORDER MINIMUM MODE    ORDER STANDARD MODE
001207:
001208: 37,2001     5012               ORDERBIT           =        BIT6
001209:
001210:                                                                                                  #  BIT 5 FLAG 8
001211: 37,2001                        APSESW             =        130D                                  #  RDESIRED OUTSIDE      RDESIRED INSIDE
001212:                                                                                                  #  PERICENTER-APOCENTER  PERICENTER-APOCENTER
001213:                                                                                                  #  RANGE IN TIME-RAD     RANGE IN TIME-RADIUS
001214:
001215: 37,2001     5013               APSESBIT           =        BIT5
001216:
001217:                                                                                                  #  BIT 4 FLAG 8
001218: 37,2001                        COGAFLAG           =        131D                                  #  NO CONIC SOLUTION     CONIC SOLUTION
001219:                                                                                                  #  TOO CLOSE TO          EXISTS (COGA DOES
001220:                                                                                                  #  RECTILINEAR (COGA     NOT OVERFLOW).
001221:                                                                                                  #  OVERFLOWS).
001222: 37,2001     5014               COGAFBIT           =        BIT4
001223:
001224:                                                                                                  #  Page 63
001225:
001226:                                                                                                  #  BIT 3 FLAG 8
001227: 37,2001                        V96ONFLG           =        132D                                  #  P00 INTEGRATION HAS   P00 INTEGRATION IS
001228:                                                                                                  #  BEEN INHIBITED BY     PROCEEDING REGULARLY
001229:                                                                                                  #  V96
001230:
001231:                                                                                                  #  BIT 2 FLAG 8
001232: 37,2001                                           =        133D
001233:
001234:                                                                                                  #  BIT 1 FLAG 8
001235: 37,2001                        360SW              =        134D                                  #  TRANSFER ANGLE NEAR   TRANSFER ANGLE NOT
001236:                                                                                                  #  360 DEGREES           NEAR 360 DEGREES
001237:
001238: 37,2001     5017               360SWBIT           =        BIT1
001239:
001240: 37,2001     0105               FLAGWRD9           =        STATE      +9D                        #  (135-149)
001241:                                                                                                  #  (SET)                 (RESET)
001242:
001243:                                                                                                  #  BIT 15 FLAG 9
001244: 37,2001                        SWTOVER            =        135D                                  #  SWITCHOVER HAS        NO SWITCHOVER YET
001245:                                                                                                  #  OCCURRED.
001246:
001247: 37,2001     5001               SWTOVBIT           =        BIT15
001248:
001249:                                                                                                  #  BIT 14 FLAG 9
001250: 37,2001                                           =        136D
001251:
001252: 37,2001     5002               V67FLBIT           =        BIT14
001253:
001254:                                                                                                  #  BIT 13 FLAG 9
001255: 37,2001                        V82EMFLG           =        137D                                  #  MOON VICINITY         EARTH VICINITY
001256:
001257: 37,2001     5003               V82EMBIT           =        BIT13
001258:
001259:                                                                                                  #  BIT 12 FLAG 9
001260: 37,2001                        MAXDBFLG           =        138D                                  #  MAX DB SELECTED       MIN DB SELECTED
001261:
001262: 37,2001     5004               MAXDBBIT           =        BIT12
001263:
001264:                                                                                                  #  BIT 11 FLAG 9
001265: 37,2001                        V94FLAG            =        139D                                  #  V94 ALLOWED DURING    V94 NOT ALLOWED
001266:                                                                                                  #  P23
001267:
001268: 37,2001     5005               V94FLBIT           =        BIT11
001269:
001270:                                                                                                  #  BIT 10 FLAG 9
001271: 37,2001                        SAVECFLG           =        140D                                  #  P23 DISPLAY AND       P23 DISPLAY AND
001272:                                                                                                  #  DATA STORAGE AFTER    DATA STORAGE BEFORE
001273:                                                                                                  #  Page 64
001274:                                                                                                  #  MARK IS DONE          MARK IS DONE
001275:
001276: 37,2001     5006               SAVECBIT           =        BIT10
001277:
001278:                                                                                                  #  BIT 9 FLAG 9
001279: 37,2001                        VHFRFLAG           =        141D                                  #  ALLOW R22 TO          STOP ACCEPTANCE
001280:                                                                                                  #  ACCEPT RANGE          OF RANGE DATA
001281:                                                                                                  #  DATA
001282:
001283: 37,2001     5007               VHFRBIT            =        BIT9
001284:
001285:                                                                                                  #  BIT 8 FLAG 9
001286: 37,2001                        SOURCFLG           =        142D                                  #  SOURCE OF INPUT       SOURCE OF INPUT
001287:                                                                                                  #  DATA IS FROM          DATA IS FROM
001288:                                                                                                  #  VHF RADAR             OPTICS MARK
001289:
001290: 37,2001     5010               SOURCBIT           =        BIT8
001291:
001292:                                                                                                  #  BIT 7 FLAG 9
001293: 37,2001                        R22CAFLG           =        143D                                  #  R-22 CALCULATIONS     R-22 CALCULATIONS
001294:                                                                                                  #  ARE GOING ON          ARE NOT GOING ON
001295:
001296: 37,2001     5011               R22CABIT           =        BIT7
001297:
001298:                                                                                                  #  BIT 6 FLAG 9
001299: 37,2001                        N22ORN17           =        144D                                  #  COMPUTE TOTAL         COMPUTE TOTAL
001300:                                                                                                  #  ATTITUDE ERRORS       ATTITUDE ERRORS
001301:                                                                                                  #  W.R.T. N22 (V62)      W.R.T. N17 (V63)
001302:
001303: 37,2001     5012               N2217BIT           =        BIT6
001304:
001305:                                                                                                  #  BIT 5 FLAG 9
001306: 37,2001                        QUITFLAG           =        145D                                  #  TERMINATE AND EXIT    CONTINUE INTEGRATION
001307: 37,2001     5013               QUITBIT            =        BIT5                                  #  FROM INTEGRATION
001308:
001309:                                                                                                  #  BIT 4 FLAG 9
001310: 37,2001                        R31FLAG            =        146D                                  #  R31 SELECTED (V63)    R34 SELECTED (V65)
001311:
001312: 37,2001     5014               R31FLBIT           =        BIT4
001313:
001314:                                                                                                  #  BIT 3 FLAG 9
001315: 37,2001                        MID1FLAG           =        147D                                  #  INTEGRATE TO TDEC     INTEGRATE TO THE
001316:                                                                                                  #                        THEN-PRESENT TIME
001317:
001318: 37,2001     5015               MID1FBIT           =        BIT3
001319:
001320:                                                                                                  #  BIT 2 FLAG 9
001321: 37,2001                        MIDAVFLG           =        148D                                  #  INTEGRATION ENTERED   INTEGRATION WAS
001322:                                                                                                  #  FROM ONE OF MIDTOAV   NOT ENTERED VIA
001323:                                                                                                  #  PORTALS               MIDTOAV
001324:                                                                                                  #  Page 65
001325:
001326: 37,2001     5016               MIDAVBIT           =        BIT2
001327:
001328:                                                                                                  #  BIT 1 FLAG 9
001329: 37,2001                        AVEMIDSW           =        149D                                  #  AVETOMID CALLING      NO AVETOMID W INTEGER
001330:                                                                                                  #  FOR W MATRIX INTEGR   ALLOW SET UP RN,VN,
001331:                                                                                                  #  DON'T WRITE OVER RN,  PIPTIME
001332:                                                                                                  #  VN,PIPTIME
001333:
001334: 37,2001     5017               AVEMDBIT           =        BIT1
001335:
001336: 37,2001     0106               FLGWRD10           =        STATE      +10D                       #  (150-164)
001337:                                                                                                  #  (SET)                 (RESET)
001338:
001339: 37,2001     0106               RASFLAG            =        STATE      +10D
001340:
001341:                                                                                                  #  BIT 15 FLAG 10
001342: 37,2001                                           =        150D
001343:
001344:                                                                                                  #  BIT 14 FLAG 10
001345: 37,2001                        INTFLAG            =        151D                                  #  INTEGRATION IN        INTEGRATION NOT IN
001346:                                                                                                  #  PROGRESS              PROGRESS
001347:
001348: 37,2001     5002               INTFLBIT           =        BIT14
001349:
001350:                                                                                                  #  BIT 13 FLAG 10
001351: 37,2001                                           =        152D
001352:
001353:                                                                                                  #  BIT 12 FLAG 10
001354: 37,2001                                           =        153D
001355:
001356:                                                                                                  #  BIT 11 FLAG 10
001357: 37,2001                                           =        154D
001358:
001359:                                                                                                  #  BIT 10 FLAG 10
001360: 37,2001                                           =        155D
001361:
001362:                                                                                                  #  BIT 9 FLAG 10
001363: 37,2001                                           =        156D
001364:
001365:                                                                                                  #  BIT 8 FLAG 10
001366: 37,2001                                           =        157D
001367:                                                                                                  #  Page 66
001368:
001369:                                                                                                  #  BIT 7 FLAG 10
001370: 37,2001                        REINTFLG           =        158D                                  #  INTEGRATION ROUTINE   INTEGRATION ROUTINE
001371:                                                                                                  #  TO BE RESTARTED       NOT TO BE RESTARTED
001372: 37,2001     5011               REINTBIT           =        BIT7
001373:
001374:                                                                                                  #  BIT 6 FLAG 10
001375: 37,2001                                           =        159D
001376:
001377:                                                                                                  #  BIT 5 FLAG 10
001378: 37,2001                                           =        160D
001379:
001380:                                                                                                  #  BIT 4 FLAG 10
001381: 37,2001                                           =        161D
001382:
001383:                                                                                                  #  BIT 3 FLAG 10
001384: 37,2001                                           =        162D
001385:
001386:                                                                                                  #  BIT 2 FLAG 10
001387: 37,2001                                           =        163D
001388:
001389:                                                                                                  #  BIT 1 FLAG 10
001390: 37,2001                                           =        164D
001391:
001392: 37,2001     0107               FLGWRD11           =        STATE      +11D                       #  (165-179)
001393:                                                                                                  #  (SET)                 (RESET)
001394:
001395:                                                                                                  #  BIT 15 FLAG 11
001396: 37,2001                        S32.1F1            =        165D                                  #  DELTAN AT CSI TIME    DVT1 LESS THAN MAX
001397: 37,2001     5001               S32BIT1            =        BIT15                                 #  ONE EXCEEDS MAX
001398:
001399:                                                                                                  #  BIT 14 FLAG 11
001400: 37,2001                        S32.1F2            =        166D                                  #  FIRST PASS OF         REITERATION OF
001401: 37,2001     5002               S32BIT2            =        BIT14                                 #  NEWTON INTEGRATION    NEWTON
001402:
001403:                                                                                                  #  BIT 13 FLAG 11
001404: 37,2001                        S32.1F3A           =        167D                                  #  BIT 13 AND BIT 12 FUNCTION AS AN ORDERED
001405: 37,2001     5003               S32BIT3A           =        BIT13                                 #  PAIR (13,12) INDICATING THE POSSIBLE OC-
001406:                                                                                                  #  CURRENCE OF 2NEWTON ITERATIONS FOR S32.1
001407:                                                                                                  #  BIT 12 FLAG 11                        # IN THE PROGRAM IN THE FOLLOWING ORDER:
001408: 37,2001                        S32.1F3B           =        168D                                  #  (0,1) (I.E. BIT 13 RESET, BIT 12 SET)
001409:                                                                                                  #  Page 67
001410: 37,2001     5004               S3229T3B           =        BIT12                                 #       = FIRST NEWTON ITERATION BEING DONE
001411:                                                                                                  #  (0,0)= FIRST PASS OF 2ND NEWTON ITER.
001412:                                                                                                  #  (1,1)= 50 FPS STAGE OF 2ND NEWT ITER.
001413:                                                                                                  #  (1,0)= REMAINDER OF 2ND NEWT ITER.
001414:
001415:                                                                                                  #  BIT 11 FLAG 11
001416: 37,2001                                           =        169D
001417:
001418:                                                                                                  #  BIT 10 FLAG 11
001419: 37,2001                                           =        170D
001420:
001421:                                                                                                  #  BIT 9 FLAG 11
001422: 37,2001                                           =        171D
001423:
001424:                                                                                                  #  BIT 8 FLAG 11
001425: 37,2001                                           =        172D
001426:
001427:                                                                                                  #  BIT 7 FLAG 11
001428: 37,2001                                           =        173D
001429:
001430:                                                                                                  #  BIT 6 FLAG 11
001431: 37,2001                                           =        174D
001432:
001433:                                                                                                  #  BIT 5 FLAG 11
001434: 37,2001                                           =        175D
001435:
001436:                                                                                                  #  BIT 4 FLAG 11
001437: 37,2001                                           =        176D
001438:
001439:                                                                                                  #  BIT 3 FLAG 11
001440: 37,2001                                           =        177D
001441:
001442:                                                                                                  #  BIT 2 FLAG 11
001443: 37,2001                                           =        178D
001444:
001445:                                                                                                  #  BIT 1 FLAG 11
001446: 37,2001                                           =        179D
001447:
001448:                                                                                                  #  Page 68
001449:                                                                                                  #  GENERAL ERASABLE ASSIGNMENTS
001450:
001451:    0061                                           SETLOC   61
001452:                                                                                                  #  INTERRUPT TEMPORARY STORAGE POOL.     (11D)
001453:
001454:                                                                                                  #  (ITEMP1 THROUGH RUPTREG4)
001455:
001456:                                                                                                  #  ANY OF THESE MAY BE USED AS TEMPORARIES DURING INTERRUPT OR WITH INTERRUPT INHIBITED. THE ITEMP SERIES
001457:                                                                                                  #  IS USED DURING CALLS TO THE EXECUTIVE AND WAITLIST -- THE RUPTREGS ARE NOT.
001458:
001459:    0061                        ITEMP1             ERASE
001460:    0062     0061               WAITEXIT           EQUALS   ITEMP1
001461:    0062     0061               EXECTEM1           EQUALS   ITEMP1
001462:
001463:    0062                        ITEMP2             ERASE
001464:    0063     0062               WAITBANK           EQUALS   ITEMP2
001465:    0063     0062               EXECTEM2           EQUALS   ITEMP2
001466:
001467:    0063                        ITEMP3             ERASE
001468:    0064     0063               RUPTSTOR           EQUALS   ITEMP3
001469:    0064     0063               WAITADR            EQUALS   ITEMP3
001470:    0064     0063               NEWPRIO            EQUALS   ITEMP3
001471:
001472:    0064                        ITEMP4             ERASE
001473:    0065     0064               LOCCTR             EQUALS   ITEMP4
001474:    0065     0064               WAITTEMP           EQUALS   ITEMP4
001475:
001476:    0065                        ITEMP5             ERASE
001477:    0066     0065               NEWLOC             EQUALS   ITEMP5
001478:
001479:    0066                        ITEMP6             ERASE
001480:    0067     0066               NEWLOC+1           EQUALS   ITEMP6                                #  DP ADDRESS.
001481:
001482:    0067                                           SETLOC   67
001483:    0067                        NEWJOB             ERASE                                          #  MUST BE AT LOC 67 DUE TO WIRING.
001484:
001485:    0070                        RUPTREG1           ERASE
001486:    0071                        RUPTREG2           ERASE
001487:    0072                        RUPTREG3           ERASE
001488:    0073                        RUPTREG4           ERASE
001489:    0074     0073               KEYTEMP1           EQUALS   RUPTREG4
001490:    0074     0073               DSRUPTEM           EQUALS   RUPTREG4
001491:
001492:                                                                                                  #  FLAGWORD RESERVATIONS.                (12D)
001493:
001494:    0074                        STATE              ERASE    +11D
001495:
001496:                                                                                                  #  PAD LOAD FOR DAPS
001497:    0110                        EMDOT              ERASE                                          #  I(1)PL (SPS FLOW RATE, SC AT B+3 KG/CS)
001498:
001499:                                                                                                  #  Page 69
001500:
001501:                                                                                                  #  EXIT FOR V83
001502:    0111                        STATEXIT           ERASE                                          #  I(1) STQ ADDRESS FOR STATEXIT
001503:
001504:                                                                                                  #  UNUSED ERASABLES ********(2)
001505:    0112                        ERASFILL           ERASE    +1
001506:
001507:                                                                                                  #  EXEC TEMPORARIES WHICH MAY BE USED BETWEEN CCS NEWJOBS
001508:                                                                                                  #  (INTB15+ THROUGH RUPTMXTM)            (32D)
001509:    0114                        INTB15+            ERASE                                          #  REFLECTS 15TH BIT OF INDEXABLE ADDRESSES
001510:    0115     0114               DSEXIT             EQUALS   INTB15+                               #  RETURN FOR DSPIN
001511:    0115     0114               EXITEM             EQUALS   INTB15+                               #  RETURN FOR SCALE FACTOR ROUTINE SELECT
001512:    0115     0114               BLANKRET           EQUALS   INTB15+                               #  RETURN FOR 2BLANK
001513:
001514:    0115                        INTBIT15           ERASE                                          #  SIMILAR TO ABOVE.
001515:    0116     0115               WRDRET             EQUALS   INTBIT15                              #  RETURN FOR 5BLANK.
001516:    0116     0115               WDRET              EQUALS   INTBIT15                              #  RETURN FOR DSPWD
001517:    0116     0115               DECRET             EQUALS   INTBIT15                              #  RETURN FOR PUTCOM(DEC LOAD)
001518:    0116     0115               21/22REG           EQUALS   INTBIT15                              #  TEMP FOR CHARIN
001519:
001520:                                                                                                  #  THE REGISTERS BETWEEN ADDRWD AND PRIORITY MUST STAY IN THE FOLLOWING ORDER FOR INTERPRETIVE TRACE.
001521:
001522:    0116                        ADDRWD             ERASE                                          #  12 BIT INTERPRETIVE OPERAND SUB-ADDRESS.
001523:    0117                        POLISH             ERASE                                          #  HOLDS CADR MADE FROM POLISH ADDRESSE.
001524:    0120     0117               UPDATRET           EQUALS   POLISH                                #  RETURN FOR UPDATNN, UPDATVB
001525:    0120     0117               CHAR               EQUALS   POLISH                                #  TEMP FOR CHARIN
001526:    0120     0117               ERCNT              EQUALS   POLISH                                #  COUNTER FOR ERROR LIGHT RESET
001527:    0120     0117               DECOUNT            EQUALS   POLISH                                #  COUNTER FOR SCALING AND DISPLAY (DEC)
001528:
001529:    0120                        FIXLOC             ERASE                                          #  WORK AREA ADDRESS
001530:    0121                        OVFIND             ERASE                                          #  SET NON-ZERO ON OVERFLOW.
001531:
001532:    0122                        VBUF               ERASE    +5                                    #  TEMPORARY STORAGE USED FOR VECTORS.
001533:    0130     0122               SGNON              EQUALS   VBUF                                  #  TEMP FOR +,- ON
001534:    0130     0122               NOUNTEM            EQUALS   VBUF                                  #  COUNTER FOR MIXNOUN FETCH
001535:    0130     0122               DISTEM             EQUALS   VBUF                                  #  COUNTER FOR OCTAL DISPLAY VERB
001536:    0130     0122               DECTEM             EQUALS   VBUF                                  #  COUNTER FOR FETCH (DEC DISPLAY VERBS)
001537:
001538:    0130     0123               SGNOFF             EQUALS   VBUF       +1                         #  TEMP FOR +,- ON
001539:    0130     0123               NVTEMP             EQUALS   VBUF       +1                         #  TEMP FOR NVSUB
001540:    0130     0123               SFTEMP1            EQUALS   VBUF       +1                         #  STORAGE FOR SF CONST HI PART (=SFTEMP2-1)
001541:    0130     0123               HITEMIN            EQUALS   VBUF       +1                         #  TEMP FOR LOAD OF HRS,MIN,SEC
001542:                                                                                                  #  MUST = LOTEMIN-1.
001543:
001544:    0130     0124               CODE               EQUALS   VBUF       +2                         #  FOR DSPIN
001545:    0130     0124               SFTEMP2            EQUALS   VBUF       +2                         #  STORAGE FOR SF CONST LO PART (=SFTEMP1+1)
001546:    0130     0124               LOTEMIN            EQUALS   VBUF       +2                         #  TEMP FOR LOAD OF HRS,MIN,SEC
001547:                                                                                                  #  Page 70
001548:                                                                                                  #        MUST = HITEMIN+1
001549:    0130     0125               MIXTEMP            EQUALS   VBUF       +3                         #  FOR MIXNOUN DATA
001550:    0130     0125               SIGNRET            EQUALS   VBUF       +3                         #  RETURN FOR +,- ON
001551:
001552:                                                                                                  #  ALSO MIXTEMP+1 = VBUF+4, MIXTEMP+2 = VBUF+5
001553:
001554:    0130                        BUF                ERASE    +2                                    #  TEMPORARY SCALAR STORAGE
001555:    0133                        BUF2               ERASE    +1
001556:    0135     0130               INDEXLOC           EQUALS   BUF                                   #  CONTAINS ADDRESS OF SPECIFIED INDEX.
001557:    0135     0130               SWWORD             EQUALS   BUF                                   #  ADDRESS OF SWITCH WORD
001558:    0135     0131               SWBIT              EQUALS   BUF        +1                         #  SWITCH BIT WITHIN THE SWITCH WORD
001559:    0135                        MPTEMP             ERASE                                          #  TEMPORARY USED IN MULTIPLY AND SHIFT
001560:    0136     0135               DMPNTEMP           EQUALS   MPTEMP                                #  DMPSUB TEMPORARY
001561:    0136                        DOTINC             ERASE                                          #  COMPONENT INCREMENT FOR DOT SUBROUTINE
001562:    0137     0136               DVSIGN             EQUALS   DOTINC                                #  DETERMINES SIGN OF DDV RESULT
001563:    0137     0136               ESCAPE             EQUALS   DOTINC                                #  USED IN ARCSIN/ARCCOS.
001564:    0137     0136               ENTRET             EQUALS   DOTINC                                #  EXIT FROM ENTER
001565:
001566:    0137                        DOTRET             ERASE                                          #  RETURN FROM DOT SUBROUTINE
001567:    0140     0137               DVNORMCT           EQUALS   DOTRET                                #  DIVIDENT NORMALIZATION COUNT IN DDV.
001568:    0140     0137               ESCAPE2            EQUALS   DOTRET                                #  ALTERNATE ARCSIN/ARCCOS SWITCH
001569:    0140     0137               WDCNT              EQUALS   DOTRET                                #  CHAR COUNTER FOR DSPWD
001570:    0140     0137               INREL              EQUALS   DOTRET                                #  INPUT BUFFER SELECTIOR ( X,Y,Z, REG )
001571:
001572:    0140                        MATINC             ERASE                                          #  VECTOR INCREMENT IN MXV AND VXM
001573:    0141     0140               MAXDVSW            EQUALS   MATINC                                #  +0 IF DP QUOTIENT IS NEAR ONE -- ELSE -1.
001574:    0141     0140               POLYCNT            EQUALS   MATINC                                #  POLYNOMIAL LOOP COUNTER
001575:    0141     0140               DSPMMTEM           EQUALS   MATINC                                #  DSPCOUNT SAVE FOR DSPMM
001576:    0141     0140               MIXBR              EQUALS   MATINC                                #  INDICATOR FOR MIXED OR NORMAL NOUN
001577:
001578:    0141                        TEM1               ERASE                                          #  EXEC TEMP
001579:    0142     0141               POLYRET            EQUALS   TEM1
001580:    0142     0141               DSREL              EQUALS   TEM1                                  #  REL ADDRESS FOR DSPIN
001581:
001582:    0142                        TEM2               ERASE                                          #  EXEC TEMP
001583:    0143     0142               DSMAG              EQUALS   TEM2                                  #  MAGNITUDE STORE FOR DSPIN
001584:    0143     0142               IDADDTEM           EQUALS   TEM2                                  #  MIXNOUN INDIRECT ADDRESS STORAGE
001585:
001586:    0143                        TEM3               ERASE                                          #  EXEC TEMP
001587:    0144     0143               COUNT              EQUALS   TEM3                                  #  FOR DSPIN
001588:
001589:    0144                        TEM4               ERASE                                          #  EXEC TEMP
001590:    0145     0144               LSTPTR             EQUALS   TEM4                                  #  LIST POINTER FOR GRABUSY
001591:    0145     0144               RELRET             EQUALS   TEM4                                  #  RETURN FOR RELDSP
001592:    0145     0144               FREERET            EQUALS   TEM4                                  #  RETURN FOR FREEDSP
001593:    0145     0144               DSPWDRET           EQUALS   TEM4                                  #  RETURN FOR DSPSIGN
001594:    0145     0144               SEPSCRET           EQUALS   TEM4                                  #  RETURN FOR SEPSEC
001595:    0145     0144               SEPMNRET           EQUALS   TEM4                                  #  RETURN FOR SEPMIN
001596:
001597:    0145                        TEM5               ERASE                                          #  EXEC TEMP
001598:                                                                                                  #  Page 71
001599:    0146     0145               NOUNADD            EQUALS   TEM5                                  #  TEMP STORAGE FOR NOUN ADDRESS
001600:
001601:    0146                        NNADTEM            ERASE                                          #  TEMP FOR NOUN ADDRESS TABLE ENTRY
001602:    0147                        NNTYPTEM           ERASE                                          #  TEMP FOR NOUN TYPE TABLE ENTRY
001603:    0150                        IDAD1TEM           ERASE                                          #  TEMP FOR INDIR ADDRESS TABLE ENTRY (MIXNN)
001604:                                                                                                  #  MUST = IDAD2TEM-1, = IDAD3TEM-2
001605:    0151                        IDAD2TEM           ERASE                                          #  TEMP FOR INDIR ADDRESS TABLE ENTRY (MIXNN)
001606:                                                                                                  #  MUST = IDAD1TEM+1, IDAD3TEM-1.
001607:    0152                        IDAD3TEM           ERASE                                          #  TEMP FOR INDIR ADDRESS TABLE ENTRY (MIXNN)
001608:                                                                                                  #  MUST = IDAD1TEM+2, IDAD2TEM+1.
001609:    0153                        RUTMXTEM           ERASE                                          #  TEMP FOR SF ROUT TABLE ENTRY (MIXNN ONLY)
001610:
001611:                                                                                                  #  AX*SR*T STORAGE.                      (6D)
001612:    0154     0142               DEXDEX             EQUALS   TEM2                                  #  B(1)TMP
001613:    0154     0143               DEX1               EQUALS   TEM3                                  #  B(1)TMP
001614:    0154     0144               DEX2               EQUALS   TEM4                                  #  B(1)TMP
001615:    0154     0145               RTNSAVER           EQUALS   TEM5                                  #  B(1)TMP
001616:    0154     0133               TERM1TMP           EQUALS   BUF2                                  #  B(2)TMP
001617:
001618:    0154     0143               DEXI               =        DEX1
001619:
001620:                                                                                                  #  Page 72
001621:                                                                                                  #  DYNAMICALLY ALLOCATED CORE SETS FOR JOBS      (84D)
001622:
001623:    0154                        MPAC               ERASE    +6                                    #  MULTI-PURPOSE ACCUMULATOR.
001624:    0163                        MODE               ERASE                                          #  +1 FOR TP, +0 FOR DP, OR -1 FOR VECTOR.
001625:    0164                        LOC                ERASE                                          #  LOCATION ASSOCIATED WITH JOB.
001626:    0165                        BANKSET            ERASE                                          #  USUALLY CONTAINS BBANK SETTING.
001627:    0166                        PUSHLOC            ERASE                                          #  WORD OF PACKED INTERPRETIVE PARAMETERS.
001628:    0167                        PRIORITY           ERASE                                          #  PRIORITY OF PRESENT JOB AND WORK AREA.
001629:
001630:    0170                                           ERASE    +71D                                  #  SEVEN SETS OF 12 REGISTERS EACH
001631:
001632:                                                                                                  #  SPECIAL DOWNLINK BUFFER. -- OVERLAYED BY P27 STORAGE --
001633:
001634:                                                                                                  #  P27 (UPDATE PROGRAM) STORAGE. -- OVERLAYS SPEC DNLNK BUFF -- (24D)
001635:
001636:    0300                        COMPNUMB           ERASE    +23D                                  #  B(1)TMP NUMBER OF ITEMS TO BE UPLINKED.
001637:    0330     0301               UPOLDMOD           EQUALS   COMPNUMB   +1                         #  B(1)TMP HOLDS INTERRUPTED PROGRAM NUMBER
001638:    0330     0302               UPVERB             EQUALS   UPOLDMOD   +1                         #  B(1)TMP VERB NUMBER
001639:    0330     0303               UPCOUNT            EQUALS   UPVERB     +1                         #  B(1)TMP UPBUFF INDEX
001640:    0330     0304               UPBUFF             EQUALS   UPCOUNT    +1                         #  B(20D)
001641:
001642:                                                                                                  #  MORE P27 STORAGE.                     (2D)
001643:
001644:    0330                        UPTEMP             ERASE                                          #  B(1)TMP SCRATCH
001645:    0331                        UPVERBSV           ERASE                                          #  B(1)TMP
001646:    0332     0330               INTWAK1Q           EQUALS   UPTEMP                                #  (06D)
001647:                                                                                                  #  (20 REGISTERS OF ENTRY DOWNLINK WILL GO HERE.)
001648:
001649:                                                                                                  #  THE FOLLOWING ARE INDEXED FOR TM. IN ENTRY DAP.
001650:
001651:    0332     0304               CMTMTIME           =        UPBUFF                                #  B(1) (VEHICLE BODY RATE INFO IS
001652:    0332     0305               SW/NDX             =        CMTMTIME   +1                         #  B(1)  TELEMETERED EACH 0.2 SEC. DURING
001653:    0332     0324               ENDBUF             =        CMTMTIME   +16D                       #  B(1)  ENTRY.)
001654:
001655:    0332     0325               V1                 =        ENDBUF     +1                         #  I(2) REENTRY, P64-P65
001656:    0332     0327               A0                 =        V1         +2                         #  I(2) REENTRY, P64-P65
001657:                                                                                                  #  HI-ORDER WORD ONLY ON DNLNK.
001658:
001659:                                                                                                  #  ALIGNMENT STORAGE.                    (5D)
001660:                                                                                                  #  (CANNOT SHARE WITH PRECISION INTEGRATION OR KEPLER STORAGE.)
001661:
001662:    0332     0300               QMAJ               EQUALS   COMPNUMB                              #  B(1)TMP
001663:    0332     0301               MARKINDX           EQUALS   QMAJ       +1                         #  B(1)TMP
001664:    0332     0302               BESTI              EQUALS   MARKINDX   +1                         #  I(1)TMP
001665:    0332     0303               BESTJ              EQUALS   BESTI      +1                         #  I(1)TMP
001666:    0332     0304               STARIND            EQUALS   BESTJ      +1                         #  I(1)TMP
001667:
001668:                                                                                                  #  Page 73
001669:                                                                                                  #  ALIGNMENT/S40.2,3 COMMON STORAGE.     (18D)
001670:
001671:    0332     0306               XSMD               EQUALS   UPBUFF     +2                         #  I(6)TMP
001672:    0332     0314               YSMD               EQUALS   XSMD       +6                         #  I(6)TMP
001673:    0332     0322               ZSMD               EQUALS   YSMD       +6                         #  I(6)TMP
001674:
001675:    0332     0306               XSCREF             =        XSMD                                  #  SPACE CRAFT AXES IN REF COORDS.
001676:    0332     0314               YSCREF             =        YSMD
001677:    0332     0322               ZSCREF             =        ZSMD
001678:    0332                        ZPRIME             =        22D
001679:    0332                        PDA                =        22D
001680:    0332                        COSTH              =        16D
001681:    0332                        SINTH              =        18D
001682:    0332                        THETA              =        20D
001683:    0332                        STARM              =        32D
001684:
001685:                                                                                                  #  DOWNLINK STORAGE                      (18D)
001686:
001687:    0332     0332               DNLSTADR           EQUALS   DNLSTCOD                              #  CONTENTS NO LONGER AN ADDR BUT A CODE
001688:
001689:    0332                        DNLSTCOD           ERASE                                          #  B(1)PRM ID CODE OF DOWNLIST
001690:    0333                        DUMPCNT            ERASE                                          #  B(1)PRM
001691:    0334                        LDATALST           ERASE                                          #  B(1)
001692:    0335                        DNTMGOTO           ERASE                                          #  B(1)
001693:    0336                        TMINDEX            ERASE                                          #  B(1)
001694:    0337     0336               DUMPLOC            EQUALS   TMINDEX                               #  CONTAINS ECADR OF AGC DP WORD BEING DUMPED
001695:                                                                                                  #  AND COUNT OF COMPLETE DUMPS ALREADY
001696:                                                                                                  #  SENT.
001697:    0337                        DNQ                ERASE                                          #  B(1)
001698:    0340                        DNTMBUFF           ERASE    +11D                                  #  B(12)PRM DOWNLINK SNAPSHOT BUFFER
001699:
001700:                                                                                                  #  OPTICS MARKING, UNSHARED.             (8D)
001701:
001702:    0354                        MKNDX              ERASE
001703:    0355                        MKT2T1             ERASE    +1
001704:    0357                        MKCDUY             ERASE
001705:    0360                        MKCDUS             ERASE
001706:    0361                        MKCDUZ             ERASE
001707:    0362                        MKCDUT             ERASE
001708:    0363                        MKCDUX             ERASE
001709:
001710:                                                                                                  #  FOR EXCLUSIVE USE OF SYS TEST STANDARD LEAD INS       (2)
001711:    0364                        EBUF2              ERASE    +1                                    #  B(2) UNSHARED
001712:
001713:                                                                                                  #  Page 74
001714:                                                                                                  #  UNSWITCHED FOR DISPLAY INTERFACE ROUTINES.    (10D)
001715:
001716:    0366                        RESTREG            ERASE                                          #  B(1)PRM FOR DISPLAY RESTARTS.
001717:    0367                        NVWORD             ERASE
001718:    0370                        MARKNV             ERASE
001719:    0371                        NVSAVE             ERASE
001720:                                                                                                  #  (RETAIN THE ORDER OF CADRFLSH TO FAILREG +2 FOR DOWNLINK PURPOSES)
001721:    0372                        CADRFLSH           ERASE                                          #  B(1)TMP
001722:    0373                        CADRMARK           ERASE                                          #  B(1)TMP
001723:    0374                        TEMPFLSH           ERASE                                          #  B(1)TMP
001724:    0375                        FAILREG            ERASE    +2                                    #  B(3)PRM 3 ALARM CODE REGISTERS
001725:
001726:    0400                                           SETLOC   400
001727:
001728:                                                                                                  #  VAC AREAS. -- BE CAREFUL OF PLACEMENT --      (220D)
001729:
001730:    0400                        VAC1USE            ERASE                                          #  B(1)PRM
001731:    0401                        VAC1               ERASE    +42D                                  #  B(43)PRM
001732:    0454                        VAC2USE            ERASE                                          #  B(1)PRM
001733:    0455                        VAC2               ERASE    +42D                                  #  B(43)PRM
001734:    0530                        VAC3USE            ERASE                                          #  B(1)PRM
001735:    0531                        VAC3               ERASE    +42D                                  #  B(43)PRM
001736:    0604                        VAC4USE            ERASE                                          #  B(1)PRM
001737:    0605                        VAC4               ERASE    +42D                                  #  B(43)PRM
001738:    0660                        VAC5USE            ERASE                                          #  B(1)PRM
001739:    0661                        VAC5               ERASE    +42D                                  #  B(43)PRM
001740:
001741:                                                                                                  #  WAITLIST REPEAT FLAG.                 (1D)
001742:    0734                        RUPTAGN            ERASE                                          #  B(1)PRM
001743:    0735     0734               KEYTEMP2           =        RUPTAGN
001744:
001745:                                                                                                  #  STARALIGN ERASABLES.                          (13D)
001746:
001747:    0735                        STARCODE           ERASE                                          #  B(1)DSP NOUN 70 FOR P22,51 AND R52,53
001748:    0736                        STARALGN           ERASE    +11D
001749:    0752     0736               SINCDU             =        STARALGN
001750:    0752     0744               COSCDU             =        STARALGN   +6
001751:
001752:    0752     0742               SINCDUX            =        SINCDU     +4
001753:    0752     0736               SINCDUY            =        SINCDU
001754:    0752     0740               SINCDUZ            =        SINCDU     +2
001755:    0752     0750               COSCDUX            =        COSCDU     +4
001756:    0752     0744               COSCDUY            =        COSCDU
001757:    0752     0746               COSCDUZ            =        COSCDU     +2
001758:
001759:                                                                                                  #  PHASE TABLE AND RESTART COUNTERS              (12D)
001760:                                                                                                  #  Page 75
001761:
001762:    0752                        -PHASE1            ERASE                                          #  B(1)PRM
001763:    0753                        PHASE1             ERASE                                          #  B(1)PRM
001764:    0754                        -PHASE2            ERASE                                          #  B(1)PRM
001765:    0755                        PHASE2             ERASE                                          #  B(1)PRM
001766:    0756                        -PHASE3            ERASE                                          #  B(1)PRM
001767:    0757                        PHASE3             ERASE                                          #  B(1)PRM
001768:    0760                        -PHASE4            ERASE                                          #  B(1)PRM
001769:    0761                        PHASE4             ERASE                                          #  B(1)PRM
001770:    0762                        -PHASE5            ERASE                                          #  B(1)PRM
001771:    0763                        PHASE5             ERASE                                          #  B(1)PRM
001772:    0764                        -PHASE6            ERASE                                          #  B(1)PRM
001773:    0765                        PHASE6             ERASE                                          #  B(1)PRM
001774:
001775:                                                                                                  #  A**SR*T STORAGE                       (6D)
001776:
001777:    0766                        CDUSPOT            ERASE    +5                                    #  B(6)
001778:
001779:    0774     0766               CDUSPOTY           =        CDUSPOT
001780:    0774     0770               CDUSPOTZ           =        CDUSPOT    +2
001781:    0774     0772               CDUSPOTX           =        CDUSPOT    +4
001782:
001783:                                                                                                  #  VERB 37 STORAGE                       (2D)
001784:
001785:    0774                        MINDEX             ERASE                                          #  B(1)TMP INDEX FOR MAJOR MODE
001786:    0775                        MMNUMBER           ERASE                                          #  B(1)TMP MAJOR MODE REQUESTED BY V37
001787:
001788:                                                                                                  #  PINBALL INTERRUPT ACTION              (1D)
001789:
001790:    0776                        DSPCNT             ERASE                                          #  B(1)PRM COUNTER FOR DSPOUT
001791:
001792:                                                                                                  #  PINBALL EXECUTIVE ACTION              (44D)
001793:
001794:    0777                        DSPCOUNT           ERASE                                          #  DISPLAY POSITION INDICATOR
001795:    1000                        DECBRNCH           ERASE                                          #  +DEC, -DEC, OCT INDICATOR
001796:    1001                        VERBREG            ERASE                                          #  VERB CODE
001797:    1002                        NOUNREG            ERASE                                          #  NOUN CODE
001798:    1003                        XREG               ERASE                                          #  R1 INPUT BUFFER
001799:    1004                        YREG               ERASE                                          #  R2 INPUT BUFFER
001800:    1005                        ZREG               ERASE                                          #  R3 INPUT BUFFER
001801:    1006                        XREGLP             ERASE                                          #  LO PART OF XREG (FOR DEC CONV ONLY)
001802:    1007                        YREGLP             ERASE                                          #  LO PART OF YREG (FOR DEC CONV ONLY)
001803:    1010     1007               HITEMOUT           =        YREGLP                                #  TEMP FOR DISPLAY OF HRS,MIN,SEC
001804:                                                                                                  #        MUST = LOTEMOUT-1.
001805:    1010                        ZREGLP             ERASE                                          #  LO PART OF ZREG (FOR DEC CONV ONLY)
001806:    1011     1010               LOTEMOUT           =        ZREGLP                                #  TEMP FOR DISPLAY OF HRS,MIN,SEC
001807:                                                                                                  #        MUST = HITEMOUT+1
001808:                                                                                                  #  Page 76
001809:    1011                        MODREG             ERASE                                          #  MODE CODE
001810:    1012                        DSPLOCK            ERASE                                          #  KEYBOARD/SUBROUTINE CALL INTERLOCK
001811:    1013                        REQRET             ERASE                                          #  RETURN REGISTER FOR LOAD
001812:    1014                        LOADSTAT           ERASE                                          #  STATUS INDICATOR FOR LOADTST
001813:    1015                        CLPASS             ERASE                                          #  PASS INDICATOR FOR CLEAR
001814:    1016                        NOUT               ERASE                                          #  ACTIVITY COUNTER FOR DSPTAB
001815:    1017                        NOUNCADR           ERASE                                          #  MACHINE CADR FOR NOUN
001816:    1020                        MONSAVE            ERASE                                          #  N/V CODE FOR MONITOR. (= MONSAVE1-1)
001817:    1021                        MONSAVE1           ERASE                                          #  NOUNCADR FOR MONITOR (MATBS) = MONSAVE+1
001818:    1022                        MONSAVE2           ERASE                                          #  B(1)PRM NVMONOPT OPTIONS
001819:    1023                        DSPTAB             ERASE    +11D                                  #  0-100, DISPLAY PANEL BUFF.  11D, C/S LTS.
001820:    1037                        NVQTEM             ERASE                                          #  NVSUB STORAGE FOR CALLING ADDRESS
001821:                                                                                                  #  MUST = NVBNKTEM-1.
001822:    1040                        NVBNKTEM           ERASE                                          #  NVSUB STORAGE FOR CALLING BANK
001823:                                                                                                  #  MUST = NVQTEM+1
001824:    1041                        VERBSAVE           ERASE                                          #  NEEDED FOR RECYCLE
001825:    1042                        CADRSTOR           ERASE                                          #  ENDIDLE STORAGE
001826:    1043                        DSPLIST            ERASE                                          #  WAITING REG FOR DSP SYST INTERNAL USE
001827:    1044                        EXTVBACT           ERASE                                          #  EXTENDED VERB ACTIVITY INTERLOCK
001828:    1045                        DSPTEM1            ERASE    +2                                    #  BUFFER STORAGE AREA 1 (MOSTLY FOR TIME)
001829:    1050                        DSPTEM2            ERASE    +2                                    #  BUFFER STORAGE AREA 2 (MOSTLY FOR DEG)
001830:
001831:    1053     1051               DSPTEMX            EQUALS   DSPTEM2    +1                         #  B(2) S-S DISPLAY BUFFER FOR EXT. VERBS
001832:    1053     1045               NORMTEM1           EQUALS   DSPTEM1                               #  B(3)DSP NORMAL DISPLAY REGISTERS.
001833:
001834:                                                                                                  #  DISPLAY FOR EXTENDED VERBS            (2D)
001835:
001836:    1053     1051               OPTIONX            EQUALS   DSPTEMX                               #  B(2) EXTENDED VERB OPTION CODE  N12(V82)
001837:
001838:                                                                                                  #  TBASE'S AND PHSPRDT'S.                (12D)
001839:
001840:    1053                        TBASE1             ERASE                                          #  B(1)PRM
001841:    1054                        PHSPRDT1           ERASE                                          #  B(1)PRM
001842:    1055                        TBASE2             ERASE                                          #  B(1)PRM
001843:    1056                        PHSPRDT2           ERASE                                          #  B(1)PRM
001844:    1057                        TBASE3             ERASE                                          #  B(1)PRM
001845:    1060                        PHSPRDT3           ERASE                                          #  B(1)PRM
001846:    1061                        TBASE4             ERASE                                          #  B(1)PRM
001847:    1062                        PHSPRDT4           ERASE                                          #  B(1)PRM
001848:    1063                        TBASE5             ERASE                                          #  B(1)PRM
001849:    1064                        PHSPRDT5           ERASE                                          #  B(1)PRM
001850:    1065                        TBASE6             ERASE                                          #  B(1)PRM
001851:    1066                        PHSPRDT6           ERASE                                          #  B(1)PRM
001852:
001853:                                                                                                  #  UNSWITCHED FOR DISPLAY INTERFACE ROUTINES.    (5D)
001854:                                                                                                  #  Page 77
001855:    1067                        EBANKSAV           ERASE
001856:    1070                        MARKEBAN           ERASE
001857:    1071                        EBANKTEM           ERASE
001858:    1072                        MARK2PAC           ERASE
001859:    1073                        R1SAVE             ERASE
001860:
001861:                                                                                                  #  IMU COMPENSATION UNSWITCHED ERASABLE. (1D)
001862:
001863:    1074                        1/PIPADT           ERASE                                          #  B(1)PRM
001864:    1075     1074               OLDBT1             =        1/PIPADT
001865:
001866:                                                                                                  #  SINGLE PRECISION SUBROUTINE TEMPORARIES       (3D)
001867:                                                                                                  #  SPSIN, SPCOS, SPROOT VARIABLES.
001868:                                                                                                  #  DO NOT SHARE.  THESE ARE USED BY DAPS IN INTERRUPT
001869:                                                                                                  #  AND CURRENTLY ARE NOT PROTECTED.  IF OTHER USERS
001870:                                                                                                  #  MATERIALIZE, THEN THIS CAN BE CHANGED.
001871:
001872:    1075                        HALFY              ERASE
001873:    1076                        ROOTRET            ERASE
001874:    1077                        SQRARG             ERASE
001875:    1100     1075               TEMK               EQUALS   HALFY
001876:    1100     1076               SQ                 EQUALS   ROOTRET
001877:
001878:                                                                                                  #  Page 78
001879:                                                                                                  #  UNSWITCHED FOR ORBIT INTEGRATION      (21D)
001880:
001881:    1100                        TDEC               ERASE    +20D                                  #  I(2)
001882:    1125     1102               COLREG             EQUALS   TDEC       +2                         #  I(1)
001883:    1125     1103               LAT                EQUALS   COLREG     +1                         #  I(2)DSP NOUN 43,67 FOR P20,22,51 R52,53.
001884:    1125     1103               LANDLAT            =        LAT                                   #          NOUN 89    FOR P22.
001885:    1125     1105               LONG               EQUALS   LAT        +2                         #  I(2)DSP NOUN 43,67 FOR P20,22,51 R52,53
001886:    1125     1107               ALT                EQUALS   LONG       +2                         #  I(2)DSP NOUN 43    FOR P20,22,51 R52,53.
001887:    1125     1111               YV                 EQUALS   ALT        +2                         #  I(6)
001888:    1125     1117               ZV                 EQUALS   YV         +6                         #  I(6)
001889:
001890:                                                                                                  #  MARK STORAGE.                         (2)
001891:
001892:    1125                        VHFCNT             ERASE                                          #  B(1)PRM NO. OF VHF MARKS (P20 (R22)).
001893:    1126                        TRKMKCNT           ERASE                                          #  B(1)PRM NO. OF VHF MARKS (P20 (R22)).
001894:
001895:    1127     1126               MARKCTR            =        TRKMKCNT                              #  B(1) MARK COUNTER USED BY R32
001896:
001897:                                                                                                  #  MISCELLANEOUS UNSWITCHED.             (16D)
001898:
001899:    1127                        IRETURN1           ERASE                                          #  B(1) RET ADDR USED BY MIDTOAV1 AND 2
001900:                                                                                                  #  CALLED BY P40,P41,P42, P61,P62
001901:    1130                        RATEINDX           ERASE                                          #   (1) USED BY KALCMANU
001902:    1131                        OPTION1            ERASE                                          #  B(1) NOUN 06 USES THIS.
001903:    1132                        OPTION2            ERASE                                          #  B(1) NOUN 06 USES THIS.
001904:    1133                        LONGCADR           ERASE    +1                                    #  B(2) LONGCALL REGISTER.
001905:    1135                        LONGBASE           ERASE    +1                                    #  B(2) LONGCALL REGISTER.
001906:    1137                        LONGTIME           ERASE    +1                                    #  B(2) LONGCALL REGISTER.
001907:    1141                        DELAYLOC           ERASE    +3
001908:    1145                        NVWORD1            ERASE                                          #  B(1)
001909:    1146                        TEMPR60            ERASE                                          #  B(1)
001910:    1147                        PRIOTIME           ERASE                                          #  B(1)
001911:    1150     1127               P30/RET            EQUALS   IRETURN1
001912:
001913:                                                                                                  #  MISC. INCLUDING RESTART COUNTER, GIMBAL ANGLE SAVE AND
001914:                                                                                                  #  STANDBY VERB ERASABLES.  REDOCTR BEFORE THETAD (DWNLNK)       (16D)
001915:
001916:    1150                        TIME2SAV           ERASE    +1                                    #  B(2)TMP
001917:    1152                        SCALSAVE           ERASE    +1                                    #  B(2)TMP
001918:    1154                        REDOCTR            ERASE                                          #  B(1)PRM CONTAINS NUMBER OF RESTARTS
001919:    1155                        THETAD             ERASE    +2                                    #  B(3)PRM DESIRED GIM ANGLES FOR MANEUVER
001920:    1160     1155               CPHI               =        THETAD                                #        (OUTER)
001921:    1160     1156               CTHETA             =        THETAD     +1                         #        (INNER)
001922:    1160     1157               CPSI               =        THETAD     +2                         #        (MIDDLE)
001923:                                                                                                  #  Page 79
001924:                                                                                                  #  ENTRY VARIABLES SHARED FOR TM.
001925:    1160     1155               RDOTREF            =        THETAD                                #  I(2)  P65
001926:    1160     1157               VREF               =        RDOTREF    +2                         #  I(2)  P65     HI-ORDER WORD ONLY DNLNK'D
001927:    1160                        DESOPTT            ERASE                                          #  B(1)DSP NOUN 92 FOR P20,22,52, R52.
001928:    1161                        DESOPTS            ERASE                                          #  B(1)DSP NOUN 92 FOR P20,22,52, R52.
001929:
001930:    1162                        DELV               ERASE    +5                                    #  I(6)
001931:    1170     1162               DELVX              =        DELV
001932:    1170     1164               DELVY              =        DELV       +2
001933:    1170     1166               DELVZ              =        DELV       +4
001934:
001935:                                                                                                  #  P20, CONICS   (SHARING WITH TIME 2 SAV AND SCAL SAV ONLY)     (3D)
001936:    1170     1150               POINTEX            EQUALS   TIME2SAV                              #  I(1) POINT AXS EXIT
001937:    1170     1151               VHFTIME            EQUALS   POINTEX    +1                         #  I(2) DOWNLINK OF VHF RANGE TIME +1M
001938:
001939:                                                                                                  #  PERM STATE VECTORS FOR BOOST AND DOWNLINK -- WHOLE MISSION -- (14D)
001940:
001941:    1170                        RN                 ERASE    +5                                    #  B(6)PRM
001942:    1176                        VN                 ERASE    +5                                    #  B(6)PRM
001943:    1204                        PIPTIME            ERASE    +1                                    #  B(2)PRM (MUST BE FOLLOWED BY GDT/2)
001944:
001945:                                                                                                  #  SERVICER STORAGE.                             (45D)
001946:
001947:                                                                                                  #  (SERVICER STORAGE AND P11 STORAGE IN UNSWITCHED SHOULD NOT
001948:                                                                                                  #  OVERLAY EACH OTHER AND THE TOTAL ERASABLE REQUIRED SHOULD NOT
001949:                                                                                                  #  EXCEED THE ERASABLE STORAGE REQUIRED BY RENDEZVOUS GUIDANCE.)
001950:
001951:    1206     1206               GDT/2              EQUALS   PIPTIME    +2                         #  B(6)TMP       ** MUST FOLLOW PIPTIME **
001952:    1206     1214               GOBL/2             EQUALS   GDT/2      +6                         #  B(6)TMP
001953:    1206     1222               AVEGEXIT           EQUALS   GOBL/2     +6                         #  B(2)TMP
001954:    1206     1222               AVGEXIT            =        AVEGEXIT
001955:    1206     1224               TEMX               EQUALS   AVEGEXIT   +2                         #  B(1)TMP
001956:    1206     1225               TEMY               EQUALS   TEMX       +1                         #  B(1)TMP
001957:    1206     1226               TEMZ               EQUALS   TEMY       +1                         #  B(1)TMP
001958:    1206     1227               PIPCTR             EQUALS   TEMZ       +1                         #  B(1)TMP
001959:    1206     1230               PIPAGE             EQUALS   PIPCTR     +1                         #  B(1)TMP
001960:    1206     1231               RN1                EQUALS   PIPAGE     +1                         #  B(6)TMP
001961:    1206     1237               VN1                EQUALS   RN1        +6                         #  B(6)TMP
001962:    1206     1245               PIPTIME1           EQUALS   VN1        +6                         #  B(2)TMP
001963:    1206     1247               GDT1/2             EQUALS   PIPTIME1   +2                         #  B(6)TMP
001964:    1206     1255               GOBL1/2            EQUALS   GDT1/2     +6                         #  B(6)TMP
001965:
001966:                                                                                                  #  Page 80
001967:                                                                                                  #  ENTRY STORAGE                         (1D)
001968:    1206     1263               ENTRYVN            EQUALS   GOBL1/2    +6                         #  B(1)TMP VN CODE FOR ENTRY DISPLAYS P60'S.
001969:
001970:                                                                                                  #  P11 STORAGE.                          (9D)
001971:    1206     1263               PADLONG            EQUALS   ENTRYVN                               #  (2)PL LONGITUDE OF LAUNCH PAD.
001972:    1206     1265               LIFTTEMP           EQUALS   PADLONG    +2                         #  (2)TMP
001973:    1206     1267               TEPHEM1            EQUALS   LIFTTEMP   +2                         #  (3)TMP
001974:    1206     1272               PGNCSALT           EQUALS   TEPHEM1    +3                         #  (2)PL ALTITUDE
001975:
001976:                                                                                                  #  RENDEZVOUS NAVIGATION STORAGE.  (SEE COMMENT IN SERVICER STORAGE)     (58D)
001977:    1206                        CSMPOS             ERASE    +57D                                  #  I(6)TMP
001978:    1300     1214               LEMPOS             EQUALS   CSMPOS     +6                         #  I(6)TMP
001979:    1300     1222               RCL                EQUALS   LEMPOS     +6                         #  I(2)TMP
001980:    1300     1224               MARKTIME           EQUALS   RCL        +2                         #  B(2)TMP
001981:    1300     1226               VTEMP              EQUALS   MARKTIME   +2                         #  B(6)TMP
001982:    1300     1234               UM                 EQUALS   VTEMP      +6                         #  I(6)TMP
001983:    1300     1242               MARKDATA           EQUALS   UM         +6                         #  B(2)TMP
001984:    1300     1244               USTAR              EQUALS   MARKDATA   +2                         #  I(6)TMP
001985:    1300     1252               WIXA               EQUALS   USTAR      +6                         #  B(1)TMP
001986:    1300     1253               WIXB               EQUALS   WIXA       +1                         #  B(1)TMP
001987:    1300     1254               ZIXA               EQUALS   WIXB       +1                         #  B(1)TMP
001988:    1300     1255               ZIXB               EQUALS   ZIXA       +1                         #  B(1)TMP
001989:    1300     1256               DELTAX             EQUALS   ZIXB       +1                         #  I(18)TMP
001990:
001991:    1300     1256               VHFRANGE           EQUALS   DELTAX                                #  (2)
001992:    1300     1272               UCL                EQUALS   DELTAX     +12D                       #  (6)   LM-CSM LINE OF SIGHT 1/2 UNIT V
001993:
001994:                                                                                                  #  **** CONICSEX (MEAS INC) ****
001995:    1300     1256               TRIPA              EQUALS   DELTAX
001996:    1300     1261               TEMPVAR            EQUALS   DELTAX     +3
001997:
001998:    1300                        TEMPOR1            ERASE    +1                                    #  B(2)TMP
001999:
002000:                                                                                                  #  T4RUPT ERASABLE                       (6D)
002001:
002002:    1302                        DSRUPTSW           ERASE
002003:    1303                        OPTIND             ERASE
002004:    1304                        LGYRO              ERASE
002005:    1305                        COMMANDO           ERASE    +1
002006:
002007:                                                                                                  #  Page 81
002008:    1307                        ZONE               ERASE                                          #  B(1)PRM USED IN SHAFT STOP MONITOR
002009:    1310  0000035               LASTYCMD           =        OPTY                                  #  DUMMY TO MAKE RR BENCH TEST ASSEMBLE
002010:    1310  0000035               LASTXCMD           =        OPTY                                  #  DUMMY TO MAKE RR BENCH TEST ASSEMBLE
002011:
002012:                                                                                                  #  UNSWITCHED DAP ERASABLE.              (4D)
002013:    1310                        T6LOC              ERASE
002014:    1311                        T6ADR              ERASE
002015:    1312                        T5LOC              ERASE    +1
002016:
002017:                                                                                                  #  MODE SWITCHING ERASABLE               (14D)
002018:    1314                        SWSAMPLE           ERASE                                          #  B(1)PRM
002019:    1315                        DESOPMOD           ERASE                                          #  B(1)PRM
002020:    1316                        WTOPTION           ERASE                                          #  B(1)PRM
002021:    1317                        ZOPTCNT            ERASE                                          #  B(1)PRM
002022:    1320                        IMODES30           ERASE                                          #  B(1)PRM
002023:    1321                        IMODES33           ERASE                                          #  B(1)PRM
002024:    1322                        MODECADR           ERASE    +2                                    #  B(3)TMP
002025:    1325     1322               IMUCADR            =        MODECADR
002026:    1325     1323               OPTCADR            =        MODECADR   +1
002027:    1325     1324               RADCADR            =        MODECADR   +2
002028:    1325                        ATTCADR            ERASE    +2                                    #  B(3)PRM
002029:    1330     1327               ATTPRIO            =        ATTCADR    +2
002030:    1330                        MARKSTAT           ERASE                                          #  B(1)PRM
002031:    1331                        OPTMODES           ERASE                                          #  B(1)PRM
002032:
002033:                                                                                                  #  RCSDAP ERASABLE                       (1D)
002034:    1332                        HOLDFLAG           ERASE                                          #  B(1)PRM
002035:
002036:                                                                                                  #  CRS61.1 STORAGE.  -- USED IN R63 (VERB 89) -- (5D)
002037:    1333                        CPHIX              ERASE    +2                                    #  B(3)DSP NOUN 95 CALCULATED BY CRS61.1
002038:
002039:    1336                        TEVENT             ERASE    +1                                    #  B(2) TIME OF EVENT FOR DOWNLIST
002040:    1340     1336               TLIFTOFF           =        TEVENT
002041:
002042:                                                                                                  #  Page 82
002043:                                                                                                  #  P34-P35 STORAGE                       (1D)
002044:    1340                        NORMEX             ERASE
002045:
002046:                                                                                                  #  SELF-CHECK ASSIGNMENTS                (17D)
002047:
002048:    1341                        SELFERAS           ERASE    1357       -          1377            #  *** MUST NOT BE MOVED *** #
002049:    1341     1357               SFAIL              EQUALS   SELFERAS                              #  B(1)
002050:    1341     1360               ERESTORE           EQUALS   SFAIL      +1                         #  B(1)
002051:    1341     1361               SELFRET            EQUALS   ERESTORE   +1                         #  B(1) RETURN
002052:    1341     1362               SMODE              EQUALS   SELFRET    +1                         #  B(1)
002053:    1341     1363               ALMCADR            EQUALS   SMODE      +1                         #  B(2) ALARM ABORD USER'S 2CADR
002054:    1341     1365               ERCOUNT            EQUALS   ALMCADR    +2                         #  B(1)
002055:    1341     1366               SCOUNT             EQUALS   ERCOUNT    +1                         #  B(3)
002056:    1341     1371               SKEEP1             EQUALS   SCOUNT     +3                         #  B(1)
002057:    1341     1372               SKEEP2             EQUALS   SKEEP1     +1                         #  B(1)
002058:    1341     1373               SKEEP3             EQUALS   SKEEP2     +1                         #  B(1)
002059:    1341     1374               SKEEP4             EQUALS   SKEEP3     +1                         #  B(1)
002060:    1341     1375               SKEEP5             EQUALS   SKEEP4     +1                         #  B(1)
002061:    1341     1376               SKEEP6             EQUALS   SKEEP5     +1                         #  B(1)
002062:    1341     1377               SKEEP7             EQUALS   SKEEP6     +1                         #  B(1)
002063:
002064:                                                                                                  #  USED BY P30 ROUTINES TO WRITE ONLY NEVER READ IN COLOSSUS
002065:
002066:    1341  0000000               DISPDEX            EQUALS   A
002067:
002068:                                                                                                  #  ERASABLE FOR SXTMARK CDU CHECK DELAY.  -- PAD LOADED --       (1D)
002069:
002070:    1341                        CDUCHKWD           ERASE                                          #  B(1)PL
002071:
002072:                                                                                                  #  R57 STORAGE. -- MUST BE UNSHARED EXCEPT IN BOOST OR ENTRY --  (1D)
002073:
002074:    1342                        TRUNBIAS           ERASE                                          #  B(1)PRM RESULT OF R57 CALIBR OF TRUNION
002075:
002076:                                                                                                  #  KEPLER STORAGE                                (6D)
002077:
002078:    1343                        XMODULO            ERASE    +1                                    #  I(2) GREATER 2PI KEPLER
002079:    1345                        TMODULO            ERASE    +1                                    #  I(2) GREATER 2 KEPLER
002080:    1347                        EPSILONT           ERASE    +1                                    #  I(2)TMP
002081:
002082:                                                                                                  #  Page 83
002083:                                                                                                  #  P37   ** RETURN TO EARTH (PAD LOAD ****       (2D)
002084:
002085:    1351                        RTED1              ERASE    +1                                    #  I(2)PL VGAMMA POLY COEF               B-3
002086:
002087:                                                                                                  #  P40   *** STEERING ROUTINE *** PAD LOAD       (1D)
002088:
002089:    1353                        DVTHRESH           ERASE                                          #  I(1)PL DELTA VTHRESHOLD FOR LOW THRUST
002090:                                                                                                  #         ROUTINE                        B-2
002091:
002092:                                                                                                  #  P23   *** PAD LOAD ****               (2D)
002093:
002094:    1354                        HORIZALT           ERASE    +1                                    #  I(2)PL HORIZON ALTITUDE            M B-29
002095:
002096:                                                                                                  #  P20   ALTERNATE LOS VARIANCE  PAD LOAD ****   (1D)
002097:                                                                                                  #                                                                          -16
002098:    1356                        ALTVAR             ERASE                                          #  I(2)PL MILLARD, SQUARED SCALED 2
002099:    1357     1377               END-UE             EQUALS   SELFERAS   +16D                       #  LAST USED UNSWITCHED ERASABLE
002100:
002101:                                                                                                  #  Page 84
002102:                                                                                                  #  EBANK-3 ASSIGNMENTS
002103:
002104: E3,1400                                           SETLOC   1400
002105:
002106:                                                                                                  #  WAITLIST TASK LISTS.                  (26D)
002107:
002108: E3,1400                        LST1               ERASE    +7                                    #  B(8D)PRM DELTA T'S.
002109: E3,1410                        LST2               ERASE    +17D                                  #  B(18D)PRM TASK 2CADR ADDRESSES.
002110:
002111:                                                                                                  #  RESTART STORAGE.                      (2D)
002112:
002113: E3,1432                        RSBBQ              ERASE    +1                                    #  B(2)PRM SAVE BB AND Q FOR RESTARTS
002114:
002115:                                                                                                  #  MORE LONGCALL STORAGE.  (MUST BE IN LST1'S BANK.      (2D)
002116:
002117: E3,1434                        LONGEXIT           ERASE    +1                                    #  B(2)TMP MAY BE SELDOM OVERLAYED
002118:
002119:                                                                                                  #  PHASE-CHANGE LISTS PART II.           (12D)
002120:
002121:
002122: E3,1436                        PHSNAME1           ERASE                                          #  B(1)PRM
002123: E3,1437                        PHSBB1             ERASE                                          #  B(1)PRM
002124: E3,1440                        PHSNAME2           ERASE                                          #  B(1)PRM
002125: E3,1441                        PHSBB2             ERASE                                          #  B(1)PRM
002126: E3,1442                        PHSNAME3           ERASE                                          #  B(1)PRM
002127: E3,1443                        PHSBB3             ERASE                                          #  B(1)PRM
002128: E3,1444                        PHSNAME4           ERASE                                          #  B(1)PRM
002129: E3,1445                        PHSBB4             ERASE                                          #  B(1)PRM
002130: E3,1446                        PHSNAME5           ERASE                                          #  B(1)PRM
002131: E3,1447                        PHSBB5             ERASE                                          #  B(1)PRM
002132: E3,1450                        PHSNAME6           ERASE                                          #  B(1)PRM
002133: E3,1451                        PHSBB6             ERASE                                          #  B(1)PRM
002134:
002135:                                                                                                  #  IMU COMPENSATION PARAMETERS           (22D)
002136:
002137: E3,1452                        PBIASX             ERASE                                          #  B(1)  PIPA BIAS, PIPA SCALE FACTOR TERMS
002138: E3,1453  E3,1452               PIPABIAS           =        PBIASX                                #        INTERMIXED.
002139: E3,1453                        PIPASCFX           ERASE
002140: E3,1454  E3,1453               PIPASCF            =        PIPASCFX
002141: E3,1454                        PBIASY             ERASE
002142: E3,1455                        PIPASCFY           ERASE
002143: E3,1456                        PBIASZ             ERASE
002144: E3,1457                        PIPASCFZ           ERASE
002145:
002146: E3,1460                        NBDX               ERASE                                          #  GYRO BIAS DRIFT
002147: E3,1461  E3,1460               GBIASX             =        NBDX
002148: E3,1461                        NBDY               ERASE
002149:                                                                                                  #  Page 85
002150: E3,1462                        NBDZ               ERASE
002151:
002152: E3,1463                        ADIAX              ERASE                                          #  ACCELERATION SENSITIVE DRIFT ALONG THE
002153: E3,1464                        ADIAY              ERASE                                          #  INPUT AXIS
002154: E3,1465                        ADIAZ              ERASE
002155:
002156: E3,1466                        ADSRAX             ERASE                                          #  ACCELERATION SENSITIVE DRIFT ALONG THE
002157: E3,1467                        ADSRAY             ERASE                                          #  SPIN REFERENCE AXIS
002158: E3,1470                        ADSRAZ             ERASE
002159:
002160: E3,1471                        GCOMP              ERASE    +5                                    #  CONTAINS COMPENSATING TORQUES
002161:
002162: E3,1477                        GCOMPSW            ERASE
002163: E3,1500  E3,1471               COMMAND            EQUALS   GCOMP
002164: E3,1500  E3,1474               CDUIND             EQUALS   GCOMP      +3
002165:
002166:                                                                                                  #  STATE VECTORS FOR ORBIT INTEGRATION.  (44D)
002167:
002168:                                                                                                  #                (DIFEQCNT THUR XKEP MUST BE IN THE SAME
002169:                                                                                                  #                EBANK AS RRECTCSM, RRECTLEM ETC
002170:                                                                                                  #                BECAUSE THE COPY CYCLES (ATOPCSM,
002171:                                                                                                  #                PTOACSM ETC) ARE EXECUTED IN BASIC.
002172:                                                                                                  #                ALL OTHER REFERENCES TO THIS GROUP
002173:                                                                                                  #                ARE BY INTERPRETIVE INSTRUCTIONS.)
002174:
002175:
002176: E3,1500                        DIFEQCNT           ERASE    +43D                                  #  B(1)TMP
002177:                                                                                                  #  (UPSVFLAG...XKEP MUST BE KEPT IN ORDER).
002178:
002179: E3,1554  E3,1501               UPSVFLAG           EQUALS   DIFEQCNT   +1                         #  B(1)PRM UPDATE FLAG
002180: E3,1554  E3,1502               RRECT              EQUALS   UPSVFLAG   +1                         #  B(6)TMP POS AT RECT           KM*2(-14)
002181: E3,1554  E3,1510               VRECT              EQUALS   RRECT      +6                         #  B(6)TMP VEL AT RECT           KM(-1/2)*2(6)
002182: E3,1554  E3,1516               TET                EQUALS   VRECT      +6                         #  B(2)TMP TIME OF STATE VECT    CSPCS*2(-28)
002183: E3,1554  E3,1520               TDELTAV            EQUALS   TET        +2                         #  B(6)TMP POSITION DEVIATION    KM*2(14)
002184: E3,1554  E3,1526               TNUV               EQUALS   TDELTAV    +6                         #  B(6)TMP VEL DEVIATION         KM(-1/2)*2(14)
002185: E3,1554  E3,1534               RCV                EQUALS   TNUV       +6                         #  B(6)TMP CONIC POSITION        KM*2(-14)
002186: E3,1554  E3,1542               VCV                EQUALS   RCV        +6                         #  B(6)TMP CONIC VELOCITY        KM(-1/2)*2(6)
002187: E3,1554  E3,1550               TC                 EQUALS   VCV        +6                         #  B(2)TMP TIME SINCE RECITIFICATION
002188: E3,1554  E3,1552               XKEP               EQUALS   TC         +2                         #  B(2)TMP ROOT OF KEPLER EQ     KM(1/2)*2(-10)
002189:
002190:                                                                                                  #  **** TEMP -- IN VAC AREA ****
002191: E3,1554                        RRECT1             EQUALS   18D
002192: E3,1554                        VRECT1             EQUALS   24D
002193: E3,1554                        TET1               EQUALS   30D
002194:
002195:                                                                                                  #  PERMANENT STATE VECTORS AND TIMES.    (101D)
002196:
002197:                                                                                                  #  (DO NOT OVERLAY WITH ANYTHING AFTER BOOST)
002198:
002199:                                                                                                  #  Page 86
002200:                                                                                                  #  (RRECTCSM...XKEPCSM MUST BE KEPT IN THIS ORDER)
002201:
002202: E3,1554                        RRECTCSM           ERASE    +5                                    #  B(6)PRM CSM VARIABLES
002203: E3,1562  E3,1554               RRECTHIS           =        RRECTCSM
002204: E3,1562                        VRECTCSM           ERASE    +5                                    #  B(6)PRM
002205: E3,1570                        TETCSM             ERASE    +1                                    #  B(2)PRM
002206: E3,1572  E3,1570               TETTHIS            =        TETCSM
002207: E3,1572                        DELTACSM           ERASE    +5                                    #  B(6)PRM
002208: E3,1600                        NUVCSM             ERASE    +5                                    #  B(6)PRM
002209: E3,1606                        RCVCSM             ERASE    +5                                    #  B(6)PRM
002210: E3,1614                        VCVCSM             ERASE    +5                                    #  B(6)PRM
002211: E3,1622                        TCCSM              ERASE    +1                                    #  B(2)PRM
002212: E3,1624                        XKEPCSM            ERASE    +1                                    #  B(2)PRM
002213:
002214:                                                                                                  #  (RRECTLEM...XKEPLEM MUST BE KEPT IN THIS ORDER)
002215:
002216: E3,1626                        RRECTLEM           ERASE    +5                                    #  B(6)PRM LEM VARIABLES
002217: E3,1634  E3,1626               RRECTOTH           =        RRECTLEM
002218: E3,1634                        VRECTLEM           ERASE    +5                                    #  B(6)PRM
002219: E3,1642                        TETLEM             ERASE    +1                                    #  B(2)PRM
002220: E3,1644  E3,1642               TETOTHER           =        TETLEM
002221: E3,1644                        DELTALEM           ERASE    +5                                    #  B(6)PRM
002222: E3,1652                        NUVLEM             ERASE    +5                                    #  B(6)PRM
002223: E3,1660                        RCVLEM             ERASE    +5                                    #  B(6)PRM
002224: E3,1666                        VCVLEM             ERASE    +5                                    #  B(6)PRM
002225: E3,1674                        TCLEM              ERASE    +1                                    #  B(2)PRM
002226: E3,1676                        XKEPLEM            ERASE    +1                                    #  B(2)PRM
002227:
002228: E3,1700                        X789               ERASE    +5
002229: E3,1706                        TEPHEM             ERASE    +2
002230: E3,1711                        AZO                ERASE    +1
002231: E3,1713                        UNITW              ERASE    +5
002232: E3,1721  E3,1713               -AYO               EQUALS   UNITW                                 #  (2)
002233: E3,1721  E3,1715               AXO                EQUALS   UNITW      +2                         #  (2)
002234:
002235:                                                                                                  #  STATE VECTORS FOR DOWNLINK            (12D)
002236:
002237: E3,1721                        R-OTHER            ERASE    +5                                    #  B(6)PRM POS VECT (OTHER VECH) FOR DNLINK
002238: E3,1727                        V-OTHER            ERASE    +5                                    #  B(6)PRM VEL VECT (OTHER VECH) FOR DNLINK
002239:
002240: E3,1735  E3,1642               T-OTHER            =        TETLEM                                #              TIME (OTHER VECH) FOR DNLINK
002241:
002242:                                                                                                  #  REFSMMAT.                             (18D)
002243:
002244: E3,1735                        REFSMMAT           ERASE    +17D                                  #  I(18D)PRM
002245:
002246:                                                                                                  #  Page 87
002247:                                                                                                  #  AVERAGEG INTEGRATOR STORAGE.          (8D)
002248: E3,1757                        UNITR              ERASE    +5
002249: E3,1765                        RMAG               ERASE    +1
002250:
002251:                                                                                                  #  P40 PAD LOADS                         (6D)
002252: E3,1767                        EK1VAL             ERASE    +1                                    #  I(2)PL 1-SEC SPS IMPULSE NEWTSEC/100/B23
002253: E3,1771                        EK2VAL             ERASE    +1                                    #  I(2)PL  B+23 NEWTON-SEC/E+2
002254: E3,1773                        EK3VAL             ERASE                                          #  I(1)PL  B+09 NEWTONS/E+4
002255: E3,1774                        FANG               ERASE                                          #  I(1)PL SPS THRUST USED BY IMPULSIVE BURN
002256:
002257:                                                                                                  #  **********LUNAR MODULE CHANGE  ***********
002258: E3,1775  E3,1776               E3J22R2M           EQUALS   FANG       +2
002259: E3,1775  E3,1777               E32C31RM           EQUALS   E3J22R2M   +1
002260:
002261:                                                                                                  #  **** CONICSEX (PLANETARY INERT. ORIEN.) ****
002262: E3,1775  E3,1706               TIMSUBO            EQUALS   TEPHEM                                #  CSEC B-14 (TRIPLE PREC)
002263: E3,1775  E3,1777               END-E3             EQUALS   E32C31RM                              #  NEXT UNUSED E3 ADDRESS
002264:
002265:                                                                                                  #  Page 88
002266:                                                                                                  #  EBANK-4 ASSIGNMENTS
002267:
002268: E4,1400                                           SETLOC   2000
002269:
002270:                                                                                                  #  P20 STORAGE.  -- PAD LOADED --        (4D)
002271:
002272: E4,1400                        WRENDPOS           ERASE                                          #  B(1)PL        M B-14
002273: E4,1401                        WRENDVEL           ERASE                                          #  B(1)PL        M/CSECB0
002274: E4,1402                        RMAX               ERASE                                          #  B(1)PL        METERS*2(-19)
002275: E4,1403                        VMAX               ERASE                                          #  B(1)PL        M/CSEC*2(-7)
002276:
002277:                                                                                                  #  P22 STORAGE.  -- PAD LOADED --        (5D)
002278: E4,1404                        WORBPOS            ERASE                                          #  B(1)PL        M B-14
002279: E4,1405                        WORBVEL            ERASE                                          #  B(1)PL        M/CSECB0
002280: E4,1406                        S22WSUBL           ERASE                                          #  B(1)PL        M B-14
002281: E4,1407                        RPVAR              ERASE    +1                                    #  B(2)PL
002282:
002283:                                                                                                  #  CONISEX STORAGE.  -- PAD LOADED --    (6D)
002284:
002285: E4,1411                        504LM              ERASE    +5                                    #  I(6) MOON LIBRATION VECTOR
002286:
002287:                                                                                                  #  ENTRY STORAGE     -- PAD LOADED --    (2D)
002288: E4,1417                        EMSALT             ERASE    +1                                    #  I(2)PL
002289:
002290:                                                                                                  #  P35 CONSTANTS.    -- PAD LOADED --    (4D)
002291: E4,1421                        ATIGINC            ERASE    +1                                    #  B(2)PL
002292: E4,1423                        PTIGINC            ERASE    +1                                    #  B(2)PL
002293:
002294:                                                                                                  #  LUNAR LANDING SIGHT DATA.  -- PAD LOADED --   (6D)
002295:                                                                                                  #  (USED BY INTEGRATION INITIALIZATION, LAT-LONG SUBROUTINES, P30'S)
002296:
002297: E4,1425                        RLS                ERASE    +5                                    #  I(6) LANDING SIGHT VECTOR
002298:
002299:                                                                                                  #  CONISEX (LUNAR AND SOLAR EPHEM) STORAGE.  -- PAD LOADED --    (77D)
002300: E4,1433                        TIMEMO             ERASE    +76D
002301: E4,1550  E4,1436               VECOEM             EQUALS   TIMEMO     +3
002302: E4,1550  E4,1532               RESO               EQUALS   VECOEM     +60D
002303:                                                                                                  #  Page 89
002304: E4,1550  E4,1540               VESO               EQUALS   RESO       +6
002305: E4,1550  E4,1546               OMEGAES            EQUALS   VESO       +6
002306:
002307:                                                                                                  #  INTEGRATION STORAGE.                  (95D)
002308:
002309: E4,1550                        PBODY              ERASE                                          #  I(1)
002310: E4,1551  E4,1551               ALPHAV             EQUALS   PBODY      +1                         #  I(6)TMP
002311: E4,1551  E4,1557               BETAV              EQUALS   ALPHAV     +6                         #  I(6)TMP
002312: E4,1551  E4,1565               PHIV               EQUALS   BETAV      +6                         #  I(6)TMP
002313: E4,1551  E4,1573               PSIV               EQUALS   PHIV       +6                         #  I(6)TMP
002314: E4,1551  E4,1601               FV                 EQUALS   PSIV       +6                         #  I(6)TMP
002315: E4,1551  E4,1607               BETAM              EQUALS   FV         +6                         #  I(6)TMP
002316: E4,1551  E4,1611               H                  EQUALS   BETAM      +2                         #  I(2)TMP
002317: E4,1551  E4,1613               GMODE              EQUALS   H          +2                         #  I(1)TMP
002318: E4,1551  E4,1614               IRETURN            EQUALS   GMODE      +1                         #  I(1)TMP
002319: E4,1551  E4,1615               NORMGAM            EQUALS   IRETURN    +1                         #  I(1)TMP
002320: E4,1551  E4,1616               VECTAB             EQUALS   NORMGAM    +1                         #  I(36)TMP
002321: E4,1551  E4,1662               RPQV               EQUALS   VECTAB     +36D                       #   (6)TMP VECTOR PRIMARY TO SECONDARY BODY
002322: E4,1551  E4,1670               ORIGEX             EQUALS   RPQV       +6                         #  B(1)TMP QSAVE FOR COORD. SWITCH ROUTINE
002323: E4,1551  E4,1670               KEPRTN             EQUALS   ORIGEX                                #          QSAVE FOR KEPLER
002324: E4,1551  E4,1671               RQVV               EQUALS   ORIGEX     +1                         #   (6)    SEC. BODY TO VEH.VETOR (USED P23)
002325: E4,1551  E4,1677               RPSV               EQUALS   RQVV       +6                         #   (6)TMP SUN TO PRIMARY BODY VECTOR
002326: E4,1551  E4,1705               XKEPNEW            EQUALS   RPSV       +6                         #   (2)TMP ROOT OF KEPLER'S EQU FOR TIME TAU
002327:
002328:                                                                                                  #  THESE PROBABLY CAN SHARE INTEGRATION VARIABLES        (9D)
002329:
002330: E4,1551  E4,1624               VACX               EQUALS   VECTAB     +6                         #  I(2)TMP
002331: E4,1551  E4,1626               VACY               EQUALS   VACX       +2                         #  I(2)TMP
002332: E4,1551  E4,1630               VACZ               EQUALS   VACY       +2                         #  I(2)TMP
002333:
002334: E4,1551  E4,1640               ERADM              EQUALS   VECTAB     +18D                       #  I(2)TMP
002335: E4,1551  E4,1642               INCORPEX           EQUALS   ERADM      +2                         #  I(1)TMP
002336:
002337:                                                                                                  #  R31 (V83) STORAGE. -- SHARES WITH INTEGRATION STORAGE --      (24D)
002338:
002339: E4,1551  E4,1624               BASEOTP            EQUALS   VECTAB     +6                         #  I(6) BASE POS VECTOR OTHER VEH
002340: E4,1551  E4,1640               BASEOTV            EQUALS   VECTAB     +18D                       #  I(6) BASE VEL VECTOR OTHER VEH
002341: E4,1551  E4,1654               BASETHP            EQUALS   VECTAB     +30D                       #  I(6) BASE POS VECTOR THIS VEH
002342: E4,1551  E4,1662               BASETHV            EQUALS   RPQV                                  #  I(6) BASE VEL VECTOR THIS VEH
002343:
002344:                                                                                                  #  CONIC INTEGRATION STORAGE. -- MAY NOT SHARE WITH SERVICER --  (6D)
002345: E4,1551  E4,1707               ALPHAM             EQUALS   XKEPNEW    +2                         #  I(2)TMP
002346: E4,1551  E4,1711               TAU.               EQUALS   ALPHAM     +2                         #  I(2)TMP
002347: E4,1551  E4,1713               DT/2               EQUALS   TAU.       +2                         #  I(2)TMP
002348:
002349:                                                                                                  #  Page 90
002350:
002351:                                                                                                  #  P21, R61 STORAGE.                     (2D)
002352: E4,1551  E4,1715               P21TIME            EQUALS   DT/2       +2                         #  B(2)TMP
002353:
002354:                                                                                                  #  INTEGRATION STORAGE                   (1D)
002355: E4,1551  E4,1717               EGRESS             EQUALS   P21TIME    +2                         #  I(1)TMP SAVES RETURNS.
002356:
002357:                                                                                                  #  VERB 83 STORAGE.                      (20D)
002358:
002359: E4,1551  E4,1720               RANGE              EQUALS   EGRESS     +1                         #  I(2)DSP NOUN 54 DISTANCE TO OPTICAL SUBJ
002360: E4,1551  E4,1722               RRATE              EQUALS   RANGE      +2                         #  I(2)DSP NOUN 54 RATE OF APPROACH
002361: E4,1551  E4,1724               RTHETA             EQUALS   RRATE      +2                         #  I(2)DSP NOUN 54.
002362: E4,1551  E4,1726               RONE               EQUALS   RTHETA     +2                         #  I(6)TMP VECTOR STORAGE.  (SCRATCH)
002363: E4,1551  E4,1734               VONE               EQUALS   RONE       +6                         #  I(6)TMP VECTOR STORAGE.  (SCRATCH)
002364: E4,1551  E4,1742               BASETIME           EQUALS   VONE       +6                         #  I(2)    BASE TIME ASSOC WITH BASE VECS
002365:
002366:                                                                                                  #  S-BAND ANTENNA GIMBAL ANGLES.  DISPLAYED BY R05 (V64).        (4D)
002367:                                                                                                  #                        (OPERATES DURING P00 ONLY)
002368: E4,1551  E4,1720               RHOSB              EQUALS   RANGE                                 #  B(2)DSP NOUN 51. PITCH ANGLE
002369: E4,1551  E4,1722               GAMMASB            EQUALS   RHOSB      +2                         #  B(2)DSP NOUN 51. YAWANGLE
002370:
002371:                                                                                                  #  R36 SCRATCHPAD STORAGE                (13D)
002372: E4,1551  E4,1726               RPASS36            EQUALS   RONE                                  #  I(6) S-S
002373: E4,1551  E4,1734               UNP36              EQUALS   RPASS36    +6                         #  I(6) S-S
002374: E4,1551  E4,1742               OPTIONY            EQUALS   UNP36      +6                         #  I(1)TMP VEHICLE CODE
002375:
002376:                                                                                                  #  EXTENDED VERB 82 STORAGE.             (6D)
002377:
002378: E4,1551  E4,1720               HPERMIN            EQUALS   RANGE                                 #  I(2) SET TO 300KFT OR 35KFT FOR SR30.1
002379: E4,1551  E4,1722               RPADTEM            EQUALS   HPERMIN    +2                         #  I(2) PAD OR LANDING RADIUS FOR SR30.1
002380: E4,1551  E4,1724               TSTART82           EQUALS   RPADTEM    +2                         #  I(2) TEMP TIME STORAGE VOR V82.
002381:
002382:                                                                                                  #  MORE VERB 82 NOT SHARING WITH VERB 83 (9D)
002383: E4,1551  E4,1742               V82FLAGS           EQUALS   VONE       +6                         #   (1) FOR V 82 BITS
002384: E4,1551  E4,1743               TFF                EQUALS   V82FLAGS   +1                         #  I(2)DSP NOUN 50,44
002385: E4,1551  E4,1745               -TPER              EQUALS   TFF        +2                         #  I(2)DSP NOUN 32
002386: E4,1551  E4,1747               THETA(1)           EQUALS   -TPER      +2                         #  I(2)TMP SET AT END OF V82
002387:                                                                                                  #  Page 91
002388: E4,1551  E4,1755               RSP-RREC           EQUALS   AOPTIME                               #  DSP NOUN 50 FOR V82 DURING P00 AND P11
002389:
002390:                                                                                                  #  REENTRY CONICS                        (6D)
002391: E4,1551  E4,1742               URONE              EQUALS   V82FLAGS                              #  I(6) SAVE ACTUAL FOR CALCULATIONS
002392:
002393:                                                                                                  #  V82 DISPLAY                           (4D)
002394: E4,1551  E4,1751               HAPOX              EQUALS   THETA(1)   +2                         #  I(2)DSP NOUN 44
002395: E4,1551  E4,1753               HPERX              EQUALS   HAPOX      +2                         #  I(2)DSP NOUN 44
002396:
002397:                                                                                                  #  P22 DISPLAY REGISTERS                 (06D)
002398: E4,1551  E4,1755               AOPTIME            EQUALS   HPERX      +2                         #  I(2)TMP FOR SR52.1.ADVTRACK
002399: E4,1551  E4,1757               LANDLONG           EQUALS   AOPTIME    +2                         #  I(2)DSP NOUN 89 FOR P22
002400: E4,1551  E4,1761               LANDALT            EQUALS   LANDLONG   +2                         #  I(2)DSP NOUN 89 FOR P22
002401:
002402:                                                                                                  #  S34/35.5,P34-P35 STORAGE.             (6D)
002403: E4,1551  E4,1763               KT                 EQUALS   LANDALT    +2                         #  B(2)
002404: E4,1551  E4,1765               VERBNOUN           EQUALS   KT         +2                         #  B(1)TMP
002405: E4,1551  E4,1766               QSAVED             EQUALS   VERBNOUN   +1                         #  B(1)TMP HOLDS RETURN
002406: E4,1551  E4,1767               RTRN               EQUALS   QSAVED     +1                         #  B(1) RETURN
002407: E4,1551  E4,1770               SUBEXIT            EQUALS   RTRN       +1                         #  B(1)TMP
002408:                                                                                                  #  RGEXIT CAN'T SHARE WITH HPER,HAPO
002409: E4,1551  E4,1770               RGEXIT             EQUALS   SUBEXIT                               #  I(1)TMP Q SAVE MODE 1 AND 2 TO RTRN MAIN
002410:
002411:                                                                                                  #  P30 DISPLAY                           (4D)
002412: E4,1551  E4,1763               HAPO               EQUALS   KT                                    #  I(2)DSP NOUN 42, FOR P30.
002413: E4,1551  E4,1765               HPER               EQUALS   HAPO       +2                         #  I(2)DSP NOUN 42, FOR P30.
002414:
002415:                                                                                                  #  SOME P34 STORAGE.     (OVERLAYS P35.1 STORAGE)        (2D)
002416: E4,1551  E4,1763               NOMTPI             EQUALS   KT                                    #  I(2)TMP NOMINAL TPI TIME FOR RECYCLE.
002417:
002418:                                                                                                  #  THE FOLLOWING ARE ERASABLES USED BY THE SYSTEM TESTS.  205 USES TRANSM1.  G'S ARE NOT USED IN 205 NOR ARE THEY
002419:                                                                                                  #  WHILE 504 USES TRANSM1 AND ALFDK.
002420:                                                                                                  #  Page 92
002421: E4,1551                        TRANSM1            EQUALS   2000                                  #  (18) INITIALIZATION FOR IMU TESTS
002422: E4,1551  0002022               ALFDK              =        TRANSM1    +18D                       #  (144) ERASABLE LOAD IN 504
002423:
002424:                                                                                                  #  END OF PERF. TEST ERASABLE IN BANK 4
002425:
002426:                                                                                                  #  *-*-* V82 *-*-*                       (6D)
002427:
002428: E4,1551  E4,1771               VONE'              EQUALS   RGEXIT     +1                         #  I(6)TMP NORMAL VELOCITY VONE/ SQ RT MU
002429:
002430:                                                                                                  #  PAD LOAD INTEGRATION ERROR INCLUDED IN VARIANCE BY P20        (1D)
002431:
002432: E4,1551  E4,1777               INTVAR             EQUALS   VONE'      +6                         #  I(1)PL        SQUARE OF EXPECTED INTEGRATION
002433:                                                                                                  #                POSITION EXTRAPOLATION ERROR.
002434:                                                                                                  #                SCALED METERS(2) 2(15)
002435: E4,1551  E4,1777               END-E4             EQUALS   INTVAR                                #  LAST USED ERASABLE IN E4.
002436:
002437:                                                                                                  #  Page 93
002438:                                                                                                  #  EBANK-5 ASSIGNMENTS
002439:
002440: E5,1400                                           SETLOC   2400
002441:
002442:                                                                                                  #  *-*-*-*- OVERLAY 1 IN EBANK 5 -*-*-*-*
002443:
002444:                                                                                                  #  W-MATRIX STORAGE.                     (162D)
002445:
002446: E5,1400                        W                  EQUALS   2400                                  #  B(162)
002447: E5,1400                        9X9LOC1            EQUALS   2444
002448: E5,1400                        9X9LOC2            EQUALS   2532
002449:
002450: E5,1400  0002570               EMATRIX            =        W          +120D                      #  B(42) USED TO CONVERT W TO 6X6
002451: E5,1400  0002642               END-W              EQUALS   W          +162D                      #  **NEXT AVAILABLE LOC AFTER W MATRIX**
002452:
002453:                                                                                                  #  AUTO-OPTICS STORAGE -R52-
002454:
002455:                                                                                                  #  DO NOT MOVE FROM E5,1554.  A DELICATE BALANCE EXISTS BETWEEN THIS AND P03
002456: E5,1400  0002554               XNB1               EQUALS   W          +108D                      #  B(6D)TMP
002457: E5,1400  0002562               YNB1               EQUALS   XNB1       +6                         #  B(6)TMP
002458: E5,1400  0002570               ZNB1               EQUALS   YNB1       +6                         #  B(6)TMP
002459: E5,1400  0002576               SAVQR52            EQUALS   ZNB1       +6                         #  I(2)TMP
002460: E5,1400  0002600               PLANVEC            EQUALS   SAVQR52    +2                         #  B(6) S-S SIGHTING VECTOR IN REF. COOR.
002461: E5,1400  0002606               TSIGHT             EQUALS   PLANVEC    +6                         #  B(2) S-S TIME OF SIGHTING
002462:
002463:                                                                                                  #  RENDEZVOUS -P34-35                    (26D)
002464: E5,1400  0002610               DVLOS              EQUALS   TSIGHT     +2                         #  I(6) S-S DELTA VELOCITY, LOS COORD-DISPLAY
002465: E5,1400  0002610               DELTAR             EQUALS   DVLOS                                 #  I(2)
002466: E5,1400  0002610               TINTSOI            EQUALS   DELTAR                                #  I(2) INTERCEPT TIME FOR SOI MANEUVER
002467: E5,1400  0002612               DELTTIME           EQUALS   DVLOS      +2                         #  I(2)
002468: E5,1400  0002614               TARGTIME           EQUALS   DVLOS      +4                         #  I(2)
002469: E5,1400  0002616               UNRM               EQUALS   DVLOS      +6                         #  I(6) S-S
002470: E5,1400  0002624               ULOS               EQUALS   UNRM       +6                         #  I(6) S-S UNIT LINE OF SIGHT VECTOR
002471: E5,1400  0002632               ACTCENT            EQUALS   ULOS       +6                         #  I(2) S-S CENTRAL ANGLE BETWEEN ACTIVE
002472:                                                                                                  #       VEH AT TPI IGNITION TIME AND
002473:                                                                                                  #       TARGET VECTOR.
002474: E5,1400  0002634               DELVTPI            EQUALS   ACTCENT    +2                         #  I(2) NOUN 58 FOR P34
002475: E5,1400  0002636               DELVTPF            EQUALS   DELVTPI    +2                         #  I(2) NOUN 58,59 FOR P34,35
002476: E5,1400  0002640               POSTTPI            EQUALS   DELVTPF    +2                         #  I(2) NOUN 58 FOR P34.
002477: E5,1400  0002634               TDEC2              EQUALS   DELVTPI                               #   (2)
002478:
002479:                                                                                                  #  ALIGNMENT                             (12D)
002480:                                                                                                  #  Page 94
002481: E5,1400  0002610               STARSAV1           EQUALS   DVLOS                                 #  I(6)TMP RESTART STAR SAVE.
002482: E5,1400  0002616               STARSAV2           EQUALS   STARSAV1   +6                         #  I(6)TMP RESTART STAR SAVE.
002483: E5,1400  0002616               US                 =        STARSAV2                              #          (CISLUNAR TAG FOR STARSAV2).
002484:
002485:                                                                                                  #  TPI SEARCH                            (26D)
002486: E5,1400  0002610               IT                 EQUALS   DVLOS                                 #   (6)
002487: E5,1400  0002616               THETZERO           EQUALS   IT         +6                         #   (2)
002488: E5,1400  0002620               TFI                EQUALS   THETZERO   +2                         #   (2)
002489: E5,1400  0002622               DELVEE             EQUALS   TFI        +2                         #   (2)
002490: E5,1400  0002624               HP                 EQUALS   DELVEE     +2                         #   (2)
002491: E5,1400  0002626               TFO                EQUALS   HP         +2                         #   (2)
002492: E5,1400  0002630               HPO                EQUALS   TFO        +2                         #   (2)
002493: E5,1400  0002632               DELVEO             EQUALS   HPO        +2                         #   (2)
002494: E5,1400  0002634               MAGVTPI            EQUALS   DELVEO     +2                         #  I(2)TMP MAG OF DELTAVTPI OR VMID
002495: E5,1400  0002636               RELDELV            EQUALS   MAGVTPI    +2                         #  I(2)TMP MAG OF DELTAVTPF
002496: E5,1400  0002640               T3TOT4             EQUALS   RELDELV    +2                         #  I(2)DSP NOUN 39 FOR P34,35.  TPI TO TINT
002497:                                                                                                  #  (CANNOT SHARE WITH RETURN TO EARTH)
002498:                                                                                                  #  Page 95
002499:                                                                                                  #  ALIGNMENT/SYSTEST/CALCSMSC/CRS61.1 COMMON STORAGE     (36D)
002500:                                                                                                  #  (CALCSMSC IS A SUBSET OF S41.1 AT LEAST)
002501:                                                                                                  #  (CRS61.1 IS A SUBSET OF P20)
002502:
002503: E5,1400  0002671               XSM                EQUALS   END-W      +23D                       #  B(6)
002504: E5,1400  0002677               YSM                EQUALS   XSM        +6                         #  B(6)TMP
002505: E5,1400  0002705               ZSM                EQUALS   YSM        +6                         #  B(6)TMP
002506:
002507: E5,1400  0002713               XDC                EQUALS   ZSM        +6                         #  B(6)TMP
002508: E5,1400  0002721               YDC                EQUALS   XDC        +6                         #  B(6)TMP
002509: E5,1400  0002727               ZDC                EQUALS   YDC        +6                         #  B(6)TMP
002510:
002511: E5,1400  0002713               XNB                =        XDC
002512: E5,1400  0002721               YNB                =        YDC
002513: E5,1400  0002727               ZNB                =        ZDC
002514:
002515:                                                                                                  #  OVERLAYS WITHIN ALIGNMENT/SYSTEST/CALCSMSC COMMON STORAGE
002516:
002517: E5,1400  0002673               -COSB              EQUALS   XSM        +2                         #  (2)TMP
002518: E5,1400  0002675               SINB               EQUALS   -COSB      +2                         #  (2)TMP
002519:
002520:                                                                                                  #  ALIGNMENT/SYSTEST COMMON STORAGE      (18D)
002521:
002522: E5,1400  0002735               STARAD             EQUALS   ZDC        +6                         #  I(18D)TMP
002523:
002524:                                                                                                  #  ALIGNMENT/SYSTEST/AUTO OPTICS COMMON STORAGE. (17D)
002525:
002526: E5,1400  0002757               OGC                EQUALS   STARAD     +18D                       #  I(2)TMP
002527: E5,1400  0002761               IGC                EQUALS   OGC        +2                         #  I(2)TMP
002528: E5,1400  0002763               MGC                EQUALS   IGC        +2                         #  I(2)TMP
002529: E5,1400  0002765               STAR               EQUALS   MGC        +2                         #  I(6)TMP
002530: E5,1400  0002773               SAC                EQUALS   STAR       +6                         #  I(2)TMP
002531: E5,1400  0002775               PAC                EQUALS   SAC        +2                         #  I(2)TMP
002532: E5,1400  0002777               QMIN               EQUALS   PAC        +2                         #  B(1)TMP
002533:
002534:                                                                                                  #  **** COLP50'S ****                    (1D)
002535: E5,1400  0002735               CULTRIX            EQUALS   VEARTH                                #  VEARTH, VSUN, VMOON
002536:
002537:                                                                                                  #  OVERLAYS WITHIN ALIGNMENT/SYSTEST COMMON STORAGE      (24D)
002538:
002539: E5,1400  0002735               VEARTH             EQUALS   STARAD                                #  (6)TMP
002540: E5,1400  0002743               VSUN               EQUALS   VEARTH     +6                         #  (6)TMP
002541: E5,1400  0002751               VMOON              EQUALS   VSUN       +6                         #  (6)TMP
002542: E5,1400  0002757               SAX                EQUALS   VMOON      +6                         #  (6)TMP
002543:
002544:                                                                                                  #  Page 96
002545:                                                                                                  #  *-*-*-*- OVERLAY NUMBER 2 IN EBANK 5 -*-*-*-*
002546:
002547:                                                                                                  #  CONICS ROUTINE STORAGE.                       (87D)
002548:
002549: E5,1400  0002642               DELX               EQUALS   END-W                                 #  I(2)TMP
002550: E5,1400  0002644               DELT               EQUALS   DELX       +2                         #  I(2)TMP
002551: E5,1400  0002646               URRECT             EQUALS   DELT       +2                         #  I(6)TMP
002552: E5,1400  0002654               RCNORM             EQUALS   URRECT     +6                         #  I(2)TMP
002553: E5,1400  E3,1552               XPREV              EQUALS   XKEP                                  #  I(2)TMP
002554: E5,1400  0002656               R1VEC              EQUALS   RCNORM     +2                         #  I(6)TMP
002555: E5,1400  0002664               R2VEC              EQUALS   R1VEC      +6                         #  I(6)TMP
002556: E5,1400  0002672               TDESIRED           EQUALS   R2VEC      +6                         #  I(2)TMP
002557: E5,1400  0002674               GEOMSGN            EQUALS   TDESIRED   +2                         #  I(1)TMP
002558: E5,1400  0002675               UN                 EQUALS   GEOMSGN    +1                         #  I(6)TMP
002559: E5,1400  0002703               VTARGTAG           EQUALS   UN         +6                         #  I(1)TMP
002560: E5,1400  0002704               VTARGET            EQUALS   VTARGTAG   +1                         #  I(6)TMP
002561: E5,1400  0002712               RTNLAMB            EQUALS   VTARGET    +6                         #  I(1)TMP
002562: E5,1400  0002713               U2                 EQUALS   RTNLAMB    +1                         #  I(6)TMP
002563: E5,1400  0002721               MAGVEC2            EQUALS   U2         +6                         #  I(2)TMP
002564: E5,1400  0002723               UR1                EQUALS   MAGVEC2    +2                         #  I(6)TMP
002565: E5,1400  0002731               SNTH               EQUALS   UR1        +6                         #  I(2)TMP
002566: E5,1400  0002733               CSTH               EQUALS   SNTH       +2                         #  I(2)TMP
002567: E5,1400  0002735               1-CSTH             EQUALS   CSTH       +2                         #  I(2)TMP
002568: E5,1400  0002737               CSTH-RHO           EQUALS   1-CSTH     +2                         #  I(2)TMP
002569: E5,1400  0002741               P                  EQUALS   CSTH-RHO   +2                         #  I(2)TMP
002570: E5,1400  0002743               R1A                EQUALS   P          +2                         #  I(2)TMP
002571: E5,1400  0002656               RVEC               EQUALS   R1VEC                                 #  I(6)TMP
002572: E5,1400  0002745               VVEC               EQUALS   R1A        +2                         #  I(6)TMP
002573: E5,1400  0002712               RTNTT              EQUALS   RTNLAMB                               #  I(1)TMP
002574: E5,1400  0002753               ECC                EQUALS   VVEC       +6                         #  I(2)TMP
002575: E5,1400  0002712               RTNTR              EQUALS   RTNLAMB                               #  I(1)TMP
002576: E5,1400  0002712               RTNAPSE            EQUALS   RTNLAMB                               #  I(1)TMP
002577: E5,1400  0002721               R2                 EQUALS   MAGVEC2                               #  I(2)TMP
002578: E5,1400  0002755               RTNPRM             EQUALS   ECC        +2                         #  I(1)TMP
002579: E5,1400  0002756               SGNRDOT            EQUALS   RTNPRM     +1                         #  I(1)TMP
002580: E5,1400  0002757               RDESIRED           EQUALS   SGNRDOT    +1                         #  I(2)TMP
002581: E5,1400  0002761               DELDEP             EQUALS   RDESIRED   +2                         #  I(2)TMP
002582: E5,1400  0002763               DEPREV             EQUALS   DELDEP     +2                         #  I(2)TMP
002583: E5,1400  0002761               TERRLAMB           EQUALS   DELDEP                                #  I(2)TMP
002584: E5,1400  0002763               TPREV              EQUALS   DEPREV                                #  I(2)TMP
002585:
002586:                                                                                                  #  Page 97
002587:                                                                                                  #  *-*-*-*- OVERLAY NUMBER 3 IN EBANK 5 -*-*-*-*
002588:
002589:                                                                                                  #  MEASUREMENT INCORPORATION STORAGE.    (66D)
002590:                                                                                                  #  (CALLED BY P20, P22, P23)
002591:
002592: E5,1400  0002642               OMEGAM1            EQUALS   END-W                                 #  I(6)TMP
002593: E5,1400  0002650               OMEGAM2            EQUALS   OMEGAM1    +6                         #  I(6)TMP
002594: E5,1400  0002656               OMEGAM3            EQUALS   OMEGAM2    +6                         #  I(6)TMP
002595: E5,1400  0002664               HOLDW              EQUALS   OMEGAM3    +6                         #  I(18)TMP
002596: E5,1400  0002706               TDPOS              EQUALS   HOLDW      +18D                       #  I(6)TMP
002597: E5,1400  0002714               TDVEL              EQUALS   TDPOS      +6                         #  I(6)TMP
002598:
002599: E5,1400  0002722               ZI                 EQUALS   TDVEL      +6                         #  I(18)
002600:
002601:                                                                                                  #  P22-P23 STORAGE.                      (8D)
002602:
002603: E5,1400  0002744               22SUBSCL           EQUALS   ZI         +18D                       #  DE OF ABCDE LANDMARK ID NO.
002604: E5,1400  0002745               CXOFF              EQUALS   22SUBSCL   +1                         #  B OF ABCDE OFFSET INDICATOR
002605: E5,1400  0002746               8KK                EQUALS   CXOFF      +1                         #  B(1)TMP INDEX OF PRESENT MARK
002606: E5,1400  0002747               8NN                EQUALS   8KK        +1                         #  B(1)TMP
002607: E5,1400  0002750               S22LOC             EQUALS   8NN        +1                         #  I(1)TMP MARK DATA LOC
002608: E5,1400  0002751               LANDMARK           EQUALS   S22LOC     +1                         #  B(1)DSP NOUN 70 FOR P22,51, R52,53
002609: E5,1400  0002752               HORIZON            EQUALS   LANDMARK   +1                         #  B(1)DSP NOUN 70 FOR P22,51, R52,53
002610: E5,1400  0002753               IDOFLMK            EQUALS   HORIZON    +1                         #  B(1)
002611:
002612:                                                                                                  #  ******P23***                          (1D)
002613: E5,1400  0002754               TRUNION            EQUALS   IDOFLMK    +1                         #  B(1)
002614:
002615:                                                                                                  #  Page 98
002616:
002617:                                                                                                  #  *-*-*-*- OVERLAY NUMBER 0 IN EBANK 5 -*-*-*-*
002618:
002619:                                                                                                  #  SYSTEM TEST STORAGE.                          (174)
002620:
002621: E5,1400                        AZIMUTH            ERASE    +1
002622: E5,1402                        LATITUDE           ERASE    +1
002623:
002624: E5,1404     1160               TRUNA              EQUALS   DESOPTT
002625: E5,1404     1161               SHAFTA             EQUALS   DESOPTS
002626:
002627: E5,1404                        ERVECTOR           ERASE    +5
002628: E5,1412                        LENGTHOT           ERASE
002629: E5,1413                        LOSVEC             ERASE    +5
002630:
002631: E5,1421  E5,1413               SXTOPTN            =        LOSVEC
002632: E5,1421                        NDXCTR             ERASE
002633: E5,1422                        PIPINDEX           ERASE
002634: E5,1423                        POSITON            ERASE
002635: E5,1424                        QPLAC              ERASE
002636: E5,1425                        QPLACE             ERASE
002637: E5,1426                        QPLACES            ERASE
002638: E5,1427                        RUN                ERASE
002639: E5,1430                        STOREPL            ERASE
002640: E5,1431                        SOUTHDR            ERASE
002641: E5,1432  E5,1431               TARG1/2            =        SOUTHDR
002642: E5,1432                        TAZEL1             ERASE    +5
002643: E5,1440                        TEMPTIME           ERASE    +1
002644: E5,1442                        TMARK              ERASE    +1
002645: E5,1444                        GENPL              ERASE    +134D
002646: E5,1653  E5,1444               CDUTIMEI           =        GENPL
002647: E5,1653  E5,1446               CDUTIMEF           =        GENPL      +2
002648: E5,1653  E5,1450               IMU/OPT            =        GENPL      +4
002649: E5,1653  E5,1451               CDUREADF           =        GENPL      +5
002650: E5,1653  E5,1452               CDUREADI           =        GENPL      +6
002651: E5,1653  E5,1453               CDULIMIT           =        GENPL      +7
002652:
002653: E5,1653  E5,1450               TEMPADD            =        GENPL      +4
002654: E5,1653  E5,1451               TEMP               =        GENPL      +5
002655: E5,1653  E5,1452               NOBITS             =        GENPL      +6
002656: E5,1653  E5,1453               CHAN               =        GENPL      +7
002657:
002658: E5,1653  E5,1454               LOS1               =        GENPL      +8D
002659: E5,1653  E5,1462               LOS2               =        GENPL      +14D
002660:
002661: E5,1653  E5,1470               CALCDIR            EQUALS   GENPL      +20D
002662: E5,1653  E5,1471               CDUFLAG            EQUALS   GENPL      +21D
002663: E5,1653  E5,1472               GYTOBETQ           EQUALS   GENPL      +22D
002664: E5,1653  E5,1473               OPTNREG            EQUALS   GENPL      +23D
002665: E5,1653  E5,1474               SAVE               EQUALS   GENPL      +24D                       #  THREE CONSEC LOC
002666: E5,1653  E5,1477               SFCONST1           EQUALS   GENPL      +27D
002667:                                                                                                  #  Page 99
002668: E5,1653  E5,1500               TIMER              EQUALS   GENPL      +28D
002669:
002670: E5,1653  E5,1502               DATAPL             EQUALS   GENPL      +30D
002671: E5,1653  E5,1444               RDSP               EQUALS   GENPL                                 #  FIX LATER     POSSIBLY KEEP1
002672: E5,1653  E5,1544               MASKREG            EQUALS   GENPL      +64D
002673: E5,1653  E5,1546               CDUNDX             EQUALS   GENPL      +66D
002674: E5,1653  E5,1547               RESULTCT           EQUALS   GENPL      +67D
002675: E5,1653  E5,1552               COUNTPL            EQUALS   GENPL      +70D
002676:
002677: E5,1653  E5,1553               CDUANG             EQUALS   GENPL      +71D
002678: E5,1653  E5,1444               AINLA              =        GENPL                                 #  OPTIMUM CALIB. AND ALIGNMENT
002679: E5,1653  E5,1444               WANGO              EQUALS   AINLA
002680: E5,1653  E5,1446               WANGI              EQUALS   AINLA      +2D
002681: E5,1653  E5,1450               WANGT              EQUALS   AINLA      +4D
002682: E5,1653  E5,1450               TORQNDX            =        WANGT
002683: E5,1653  E5,1452               DRIFTT             EQUALS   AINLA      +6D
002684: E5,1653  E5,1454               ALX1S              EQUALS   AINLA      +8D
002685: E5,1653  E5,1455               CMPX1              EQUALS   AINLA      +9D
002686: E5,1653  E5,1456               ALK                EQUALS   AINLA      +10D
002687: E5,1653  E5,1472               VLAUNS             EQUALS   AINLA      +22D
002688: E5,1653  E5,1460               THETAX             =        ALK        +2
002689: E5,1653  E5,1474               WPLATO             EQUALS   AINLA      +24D
002690: E5,1653  E5,1500               INTY               EQUALS   AINLA      +28D
002691: E5,1653  E5,1466               THETAN             =        THETAX     +6
002692: E5,1653  E5,1502               ANGZ               EQUALS   AINLA      +30D
002693: E5,1653  E5,1504               INTZ               EQUALS   AINLA      +32D
002694: E5,1653  E5,1506               ANGY               EQUALS   AINLA      +34D
002695: E5,1653  E5,1510               ANGX               EQUALS   AINLA      +36D
002696: E5,1653  E5,1512               DRIFTO             EQUALS   AINLA      +38D
002697: E5,1653  E5,1514               DRIFTI             EQUALS   AINLA      +40D
002698: E5,1653  E5,1520               VLAUN              EQUALS   AINLA      +44D
002699: E5,1653  E5,1474               FILDELV            =        THETAN     +6
002700: E5,1653  E5,1522               ACCWD              EQUALS   AINLA      +46D
002701: E5,1653  E5,1476               INTVEC             =        FILDELV    +2
002702: E5,1653  E5,1530               POSNV              EQUALS   AINLA      +52D
002703: E5,1653  E5,1532               DPIPAY             EQUALS   AINLA      +54D
002704: E5,1653  E5,1536               DPIPAZ             EQUALS   AINLA      +58D
002705: E5,1653  E5,1540               ALTIM              EQUALS   AINLA      +60D
002706: E5,1653  E5,1541               ALTIMS             EQUALS   AINLA      +61D
002707: E5,1653  E5,1542               ALDK               EQUALS   AINLA      +62D
002708: E5,1653  E5,1560               DELM               EQUALS   AINLA      +76D
002709: E5,1653  E5,1570               WPLATI             EQUALS   AINLA      +84D
002710: E5,1653  E5,1577               RESTARPT           =        AINLA      +91D
002711: E5,1653  E5,1631               GEOSAVED           =        AINLA      +117D
002712: E5,1653  E5,1632               PREMTRXC           =        AINLA      +118D
002713: E5,1653  E5,1633               LAUNCHAZ           =        AINLA      +119D
002714: E5,1653  E5,1635               NEWAZMTH           =        AINLA      +121D
002715: E5,1653  E5,1637               OLDAZMTH           =        AINLA      +123D
002716:                                                                                                  #  Page 100
002717: E5,1653  E5,1641               TOLDAZMT           =        AINLA      +125D
002718: E5,1653  E5,1643               GEOCOMPS           =        AINLA      +127D
002719: E5,1653  E5,1644               1SECXT             =        AINLA      +128D
002720: E5,1653  E5,1645               GTSXTLST           =        AINLA      +129D
002721: E5,1653  E5,1646               ERECTIME           =        AINLA      +130D
002722: E5,1653  E5,1647               ERCOMP             =        AINLA      +131D
002723: E5,1653  E5,1655               ZERONDX            =        AINLA      +137D
002724: E5,1653  E5,1655               GTSOPNDZ           =        ZERONDX
002725:
002726:                                                                                                  #  THE FOLLOWING TAGS ARE USED BY THE 504 IMU CALIBRATION AND ALIGNMENT PROGRAM ONLY.
002727:
002728: E5,1653  E5,1460               THETAX1            EQUALS   ALK        +2
002729: E5,1653  E5,1466               THETAN1            EQUALS   THETAX1    +6
002730: E5,1653  E5,1474               FILDELV1           EQUALS   THETAN1    +6
002731: E5,1653  E5,1476               INTVEC1            EQUALS   FILDELV1   +2
002732: E5,1653  E5,1631               GEOSAVE1           EQUALS   AINLA      +117D
002733: E5,1653  E5,1632               PREMTRX1           EQUALS   AINLA      +118D
002734: E5,1653  E5,1633               LUNCHAZ1           EQUALS   AINLA      +119D
002735: E5,1653  E5,1635               NEWAZ1             EQUALS   LUNCHAZ1   +2
002736: E5,1653  E5,1637               OLDAZ1             EQUALS   LUNCHAZ1   +4
002737: E5,1653  E5,1641               TOLDAZ1            EQUALS   LUNCHAZ1   +6
002738: E5,1653  E5,1643               GEOCOMP1           EQUALS   AINLA      +127D
002739: E5,1653  E5,1644               1SECXT1            EQUALS   AINLA      +128D
002740: E5,1653  E5,1645               GTSWTLT1           EQUALS   AINLA      +129D
002741: E5,1653  E5,1646               ERECTIM1           EQUALS   AINLA      +130D
002742: E5,1653  E5,1647               ERCOMP1            EQUALS   AINLA      +131D                      #  I(6)
002743: E5,1653  E5,1655               ZERONDX1           EQUALS   AINLA      +137D
002744: E5,1653  E5,1656               PERFDLAY           EQUALS   AINLA      +138D                      #  B(2)..........
002745:
002746:                                                                                                  #  END OF 504 + ALIGN ERASE.
002747:
002748:                                                                                                  #  Page 101
002749:
002750:                                                                                                  #  *-*-*-*-  OVERLAY 4 IN EBANK 5  -*-*-*-*
002751:
002752:                                                                                                  #  P32 --- P33                           (26D)
002753: E5,1653  0002610               UP1                EQUALS   DVLOS                                 #  I(6)
002754: E5,1653  0002616               VPASS2             EQUALS   UP1        +6                         #  I(6)
002755: E5,1653  0002624               RPASS2             EQUALS   VPASS2     +6                         #  I(6)
002756: E5,1653  0002632               DIFFALT            EQUALS   RPASS2     +6                         #  I(2)
002757: E5,1653  0002634               TCDH               EQUALS   DIFFALT    +2                         #  I(2)
002758: E5,1653  0002636               TCSI               EQUALS   TCDH       +2                         #  I(2)
002759: E5,1653  0002640               TTPIO              EQUALS   TCSI       +2                         #  I(2)
002760:
002761:                                                                                                  #  P32,P33 STORAGE OVERLAYING 9X9 W-MATRIX LOCATIONS     (26D)
002762: E5,1653  0002444               DELVEET1           EQUALS   9X9LOC1                               #  I(6) DELV FOR CSI
002763: E5,1653  0002452               RACT2              EQUALS   DELVEET1   +6                         #  I(6) POS. ACTIVE VEH. AT CDH TIME
002764: E5,1653  0002532               VACT2              EQUALS   9X9LOC2                               #  I(6) VEL. ACTIVE VEH. AT CDH TIME
002765: E5,1653  0002540               RACT1              EQUALS   VACT2      +6                         #  I(6) POS. ACTIVE VEH. AT CSI TIME
002766: E5,1653  0002546               T1TOT2             EQUALS   RACT1      +6                         #  I(2) TCDH - TCSI
002767: E5,1653  0002777               END-E5             EQUALS   QMIN                                  #  LAST USED E5 ADDRESS
002768:
002769:                                                                                                  #  Page 102
002770:
002771:                                                                                                  #  EBANK-6 ASSIGNMENTS.
002772:
002773: E6,1400                                           SETLOC   3000
002774:                                                                                                  #  P23   PAD LOADS ***                   (2D).
002775: E6,1400                        WMIDPOS            ERASE                                          #  I(1)PL INITIAL VALUES FOR W-MATRIX IN
002776: E6,1401                        WMIDVEL            ERASE                                          #  I(1)PL CISLUNAR (P23) NAVIGATION
002777:
002778:                                                                                                  #  R22   PAD LOADS                       (5D).
002779: E6,1402                        RVAR               ERASE    +1                                    #  I(2)PL VHF RADAR
002780: E6,1404                        RVARMIN            ERASE    +2                                    #  I(3)PL VHF RADAR
002781:
002782:                                                                                                  #  ***** PAD LOADED ENTRY DAP STEERING VARIABLES *****   (3D)
002783: E6,1407                        LADPAD             ERASE                                          #  I(1)PL FOR ENTRY. HOLDS CM NOMINAL L/D
002784: E6,1410                        LODPAD             ERASE                                          #  I(1)PL FOR ENTRY. HOLDS CM NOMINAL LOD
002785: E6,1411                        ALFAPAD            ERASE                                          #  B(1)PL ALFA TRIM / 180
002786:
002787:                                                                                                  #  ***** PAD LOADED TVC DAP VARIABLES ****************   (26D)
002788: E6,1412                        ETDECAY            ERASE                                          #  I(1)PL
002789: E6,1413                        ESTROKER           ERASE                                          #  B(1)PL
002790: E6,1414                        EKPRIME            ERASE    +1                                    #  B(2)PL
002791: E6,1416                        EKTLX/I            ERASE    +2                                    #  B(3)PL
002792: E6,1421                        EREPFRAC           ERASE    +1                                    #  B(2)PL
002793: E6,1423                        PACTOFF            ERASE                                          #  B(1)PL, DSP N48 R01 = PTRIM, R02 = YTRIM
002794: E6,1424                        YACTOFF            ERASE                                          #  B(1)PL, CONSECUTIVE WITH PACTOFF
002795: E6,1425                        HBN10              ERASE                                          #  B(1)
002796: E6,1426                        HBN11/2            ERASE                                          #  B(1)
002797: E6,1427                        HBN12              ERASE                                          #  B(1)
002798: E6,1430                        HBD11/2            ERASE                                          #  B(1)
002799: E6,1431                        HBD12              ERASE                                          #  B(1)
002800: E6,1432                        HBN20              ERASE                                          #  B(1)
002801: E6,1433                        HBN21/2            ERASE                                          #  B(1)
002802: E6,1434                        HBN22              ERASE                                          #  B(1)
002803: E6,1435                        HBD21/2            ERASE                                          #  B(1)
002804: E6,1436                        HBD22              ERASE                                          #  B(1)
002805: E6,1437                        HBN30              ERASE                                          #  B(1)
002806: E6,1440                        HBN31/2            ERASE                                          #  B(1)
002807: E6,1441                        HBN32              ERASE                                          #  B(1)
002808:                                                                                                  #  Page 103
002809: E6,1442                        HBD31/2            ERASE                                          #  B(1)
002810: E6,1443                        HBD32              ERASE                                          #  B(1)
002811:
002812:                                                                                                  #  **** EXCLUSIVE TVC DAP VARIABLES. *****************   (5D)
002813: E6,1444                        V97VCNTR           ERASE                                          #  B(1)
002814: E6,1445                        TEMPDAP            ERASE    +1                                    #  B(2)
002815: E6,1447  E6,1445               MRKRTMP            =        TEMPDAP                               #        ((B(1)))
002816: E6,1447                        CNTR               ERASE                                          #  B(1)
002817: E6,1450                        OGAD               ERASE                                          #  B(1)
002818:
002819:                                                                                                  #  **** EXCLUSIVE RCS DAP VARIABLES ******************   (13D)
002820: E6,1451                        RWORD1             ERASE    +12D                                  #  B(1)
002821: E6,1466  E6,1452               RWORD2             EQUALS   RWORD1     +1                         #  B(1)
002822: E6,1466  E6,1453               PWORD1             EQUALS   RWORD2     +1                         #  B(1)
002823: E6,1466  E6,1454               PWORD2             EQUALS   PWORD1     +1                         #  B(1)
002824: E6,1466  E6,1455               YWORD1             EQUALS   PWORD2     +1                         #  B(1)
002825: E6,1466  E6,1456               YWORD2             EQUALS   YWORD1     +1                         #  B(1)
002826: E6,1466  E6,1457               BLAST              EQUALS   YWORD2     +1                         #  B(2)
002827: E6,1466  E6,1461               BLAST1             EQUALS   BLAST      +2                         #  B(2)
002828: E6,1466  E6,1463               BLAST2             EQUALS   BLAST1     +2                         #  B(2)
002829: E6,1466  E6,1465               T5PHASE            EQUALS   BLAST2     +2                         #  B(1)
002830:
002831:                                                                                                  #  **** RCS/TVC DAP COMMON STORAGE. ******************   (16D)
002832: E6,1466                        DAPDATR1           ERASE                                          #  B(1)DSP NOUN 46(R1)
002833: E6,1467                        DAPDATR2           ERASE                                          #  B(1)DSP NOUN 46(R2)
002834:
002835: E6,1470                        IXX                ERASE                                          #  B(1) CONSECUTIVE WITH IAVG, IAVG/TLX FOR
002836: E6,1471                        IAVG               ERASE                                          #  B(1)                            MASSPROP
002837: E6,1472                        IAVG/TLX           ERASE                                          #  B(1)
002838:
002839: E6,1473                        LEMMASS            ERASE                                          #  B(1)DSP NOUN 47 (R2)
002840: E6,1474                        CSMMASS            ERASE                                          #  B(1)DSP NOUN 47 (R1)
002841: E6,1475                        WEIGHT/G           ERASE                                          #  B(1)
002842: E6,1476  E6,1475               MASS               =        WEIGHT/G
002843:
002844: E6,1476                        AK                 ERASE
002845: E6,1477                        AK1                ERASE
002846: E6,1500                        AK2                ERASE
002847:
002848: E6,1501                        RCSFLAGS           ERASE                                          #  B(1) CONSECUTIVE WITH AK2 DOWNLINK
002849: E6,1502                        T5TEMP             ERASE                                          #  B(1)
002850: E6,1503                        EDRIVEX            ERASE
002851: E6,1504                        EDRIVEY            ERASE
002852:                                                                                                  #  Page 104
002853: E6,1505                        EDRIVEZ            ERASE
002854:
002855:                                                                                                  #  INTEMP THRU INTEMP+14D ARE RESERVED FOR OVERLAYED TVC/RCS INTERUP TRUE TEMPORARIES
002856: E6,1506                        INTTEMP            ERASE    +14D                                  #  (15)
002857:
002858:                                                                                                  #  TVC/RCS THRU TVCRCS +11D RESERVED FOR DOWNLINKED VARIABLES
002859: E6,1525                        TVCRCS             ERASE    +11D                                  #  (12)
002860:                                                                                                  #  RCS (WBODYS,ADOTS)
002861:                                                                                                  #  TVC(OMEGACS,OMEGABS)
002862:
002863:                                                                                                  #  TVC DAP TEMPORARY VARIABLES*********************************
002864:
002865:                                                                                                  #  TVC DAP INTERRUPT TRUE TEMPORARIES**************************
002866:
002867: E6,1541  E6,1506               PHI333             EQUALS   INTTEMP                               #  B(1) TEMPORARY REGISTER
002868: E6,1541  E6,1507               PSI333             EQUALS   PHI333     +1                         #  B(1) COUNTING REGISTER
002869: E6,1541  E6,1510               TEMP333            EQUALS   PSI333     +1                         #  B(1) COUNTING REGISTER
002870: E6,1541  E6,1511               VARST0             EQUALS   TEMP333    +1                         #  B(8) BREAKPOINTS AND SLOPES
002871: E6,1541  E6,1516               VARST5             =        VARST0     +5
002872: E6,1541  E6,1522               LASTMASP           EQUALS   VARST0     +9D                        #  LAST VARST0 WORD
002873: E6,1541  E6,1523               TVCTMP1            EQUALS   LASTMASP   +1                         #  B(1)
002874:
002875:                                                                                                  #  *******REGULAR TVC TEMPORARIES*************
002876:
002877:                                                                                                  #  TVC ZEROING STARTS HERE
002878:
002879: E6,1541  E6,1525               OMEGAC             EQUALS   TVCRCS                                #  I(6)
002880: E6,1541  E6,1525               OMEGAXC            =        OMEGAC
002881: E6,1541  E6,1527               OMEGAYC            =        OMEGAC     +2
002882: E6,1541  E6,1531               OMEGAZC            =        OMEGAC     +4
002883:
002884: E6,1541  E6,1533               OMEGAB             EQUALS   TVCRCS     +6                         #  B(6)
002885: E6,1541  E6,1533               OMEGAXB            =        OMEGAB
002886: E6,1541  E6,1535               OMEGAYB            =        OMEGAB     +2
002887: E6,1541  E6,1537               OMEGAZB            =        OMEGAB     +4
002888:
002889: E6,1541  E6,1541               PTMP1              EQUALS   OMEGAC     +12D                       #  B(2)
002890: E6,1541  E6,1543               PTMP2              EQUALS   PTMP1      +2                         #  B(2)
002891: E6,1541  E6,1545               PTMP3              EQUALS   PTMP2      +2                         #  B(2)
002892: E6,1541  E6,1547               PTMP4              EQUALS   PTMP3      +2                         #  B(2)
002893: E6,1541  E6,1551               PTMP5              EQUALS   PTMP4      +2                         #  B(2)
002894:                                                                                                  #  Page 105
002895: E6,1541  E6,1553               PTMP6              EQUALS   PTMP5      +2                         #  B(2)
002896:
002897: E6,1541  E6,1555               YTMP1              EQUALS   PTMP6      +2                         #  B(2)
002898: E6,1541  E6,1557               YTMP2              EQUALS   YTMP1      +2                         #  B(2)
002899: E6,1541  E6,1561               YTMP3              EQUALS   YTMP2      +2                         #  B(2)
002900: E6,1541  E6,1563               YTMP4              EQUALS   YTMP3      +2                         #  B(2)
002901: E6,1541  E6,1565               YTMP5              EQUALS   YTMP4      +2                         #  B(2)
002902: E6,1541  E6,1567               YTMP6              EQUALS   YTMP5      +2                         #  B(2)
002903:
002904: E6,1541  E6,1571               ROLLFIRE           EQUALS   YTMP6      +2                         #  B(1)
002905: E6,1541  E6,1572               ROLLWORD           EQUALS   ROLLFIRE   +1                         #  B(1)
002906: E6,1541  E6,1573               TEMREG             EQUALS   ROLLWORD   +1                         #  B(1)
002907:
002908: E6,1541  E6,1574               STROKER            EQUALS   TEMREG     +1                         #  B(1)
002909:
002910: E6,1541  E6,1575               PERRB              EQUALS   STROKER    +1                         #  B(2)
002911: E6,1541  E6,1577               YERRB              EQUALS   PERRB      +2                         #  B(2)
002912:
002913: E6,1541  E6,1601               DELPBAR            EQUALS   YERRB      +2                         #  B(2)
002914: E6,1541  E6,1603               DELYBAR            EQUALS   DELPBAR    +2                         #  B(2)
002915:
002916: E6,1541  E6,1605               PDELOFF            EQUALS   DELYBAR    +2                         #  B(2)
002917: E6,1541  E6,1607               YDELOFF            EQUALS   PDELOFF    +2                         #  B(2)
002918:
002919:                                                                                                  #  TVC ZEROING LOOP ENDS HERE
002920: E6,1541  E6,1611               TTMP1              EQUALS   YDELOFF    +2                         #  B(2)
002921: E6,1541  E6,1613               TTMP2              EQUALS   TTMP1      +2                         #  B(2)
002922: E6,1541  E6,1615               DAP1               EQUALS   TTMP2      +2                         #  B(2)
002923: E6,1541  E6,1617               DAP2               EQUALS   DAP1       +2                         #  B(2)
002924: E6,1541  E6,1621               DAP3               EQUALS   DAP2       +2                         #  B(2)
002925:
002926: E6,1541  E6,1623               PCMD               EQUALS   DAP3       +2                         #  B(1)
002927: E6,1541  E6,1624               YCMD               EQUALS   PCMD       +1                         #  B(1), CONSECUTIVE WITH PCMD
002928: E6,1541  E6,1625               T5TVCDT            EQUALS   YCMD       +1                         #  B(1)
002929: E6,1541  E6,1626               MDT                EQUALS   T5TVCDT    +1                         #  I(6)
002930: E6,1541  E6,1634               KPRIMEDT           EQUALS   MDT        +6                         #  I(2)
002931: E6,1541  E6,1636               KTLX/I             EQUALS   KPRIMEDT   +2                         #  B(1)
002932: E6,1541  E6,1637               TENMDOT            EQUALS   KTLX/I     +1                         #  B(1)
002933: E6,1541  E6,1640               1/CONACC           EQUALS   TENMDOT    +1                         #  B(1)
002934: E6,1541  E6,1641               VARK               EQUALS   1/CONACC   +1                         #  B(1)
002935: E6,1541  E6,1642               REPFRAC            EQUALS   VARK       +1                         #  B(1)
002936: E6,1541  E6,1643               VCNTR              EQUALS   REPFRAC    +1                         #  B(1)
002937: E6,1541  E6,1644               TVCPHASE           EQUALS   VCNTR      +1                         #  B(1)
002938: E6,1541  E6,1645               PCDUYPST           EQUALS   TVCPHASE   +1                         #  B(1)
002939: E6,1541  E6,1646               PCDUZPST           EQUALS   PCDUYPST   +1                         #  B(1)
002940: E6,1541  E6,1647               MCDUYDOT           EQUALS   PCDUZPST   +1                         #  B(1)
002941: E6,1541  E6,1650               MCDUZDOT           EQUALS   MCDUYDOT   +1                         #  B(1)
002942:                                                                                                  #  Page 106
002943: E6,1541  E6,1651               TVCEXPHS           EQUALS   MCDUZDOT   +1                         #  B(1)
002944: E6,1541  E6,1652               MASSTMP            EQUALS   TVCEXPHS   +1                         #  B(1)  PROTECT
002945: E6,1541  E6,1653               VCNTRTMP           EQUALS   MASSTMP    +1                         #  B(1)    *PROTECT***
002946:
002947:                                                                                                  #  STROKE TEST VARIABLES
002948: E6,1541  E6,1654               STRKTIME           EQUALS   VCNTRTMP   +1                         #  B(1)
002949: E6,1541  E6,1655               CADDY              EQUALS   STRKTIME   +1                         #  B(1)
002950: E6,1541  E6,1656               N                  EQUALS   CADDY      +1                         #  B(1)
002951: E6,1541  E6,1657               BUNKER             EQUALS   N          +1                         #  B(1)
002952: E6,1541  E6,1660               REVS               EQUALS   BUNKER     +1                         #  B(1)
002953: E6,1541  E6,1661               CARD               EQUALS   REVS       +1                         #  B(1)
002954:
002955:                                                                                                  #  TVC ROLL DAP VARIABLES
002956: E6,1541  E6,1662               OGANOW             EQUALS   CARD       +1                         #  B(1)
002957: E6,1541  E6,1663               OGAPAST            EQUALS   OGANOW     +1                         #  B(1)
002958: E6,1541  E6,1664               OGA                EQUALS   OGAPAST    +1                         #  B(1)TMP
002959: E6,1541  E6,1664               OGAERR             =        OGA                                   #  (ROLL DAP USES OGA, MEANS OGAERROR)
002960: E6,1541  E6,1665               DELOGART           EQUALS   OGA        +1                         #  B(1)TMP
002961: E6,1541  E6,1666               SGNRT              EQUALS   DELOGART   +1                         #  SIGN OF CGA RATE
002962: E6,1541  E6,1667               DELOGA             EQUALS   SGNRT      +1                         #  USED IN ROLL LOGIC
002963: E6,1541  E6,1670               I                  EQUALS   DELOGA     +1                         #  USED IN ROLL LOGIC
002964: E6,1541  E6,1671               IOGARATE           EQUALS   I          +1                         #  USED IN ROLL LOGIC
002965:
002966:                                                                                                  #  TVC DAP RESTART TEMPORARIES.
002967: E6,1541  E6,1672               PACTTMP            EQUALS   IOGARATE   +1                         #  B(2)
002968: E6,1541  E6,1674               YACTTMP            EQUALS   PACTTMP    +2                         #  B(2)
002969: E6,1541  E6,1676               CNTRTMP            EQUALS   YACTTMP    +2                         #  B(1)
002970: E6,1541  E6,1677               STRKTTMP           EQUALS   CNTRTMP    +1                         #  B(1)
002971: E6,1541  E6,1700               DELBRTMP           EQUALS   STRKTTMP   +1                         #  B(2)
002972: E6,1541  E6,1702               ERRBTMP            EQUALS   DELBRTMP   +2                         #  B(2)
002973: E6,1541  E6,1704               CMDTMP             EQUALS   ERRBTMP    +2                         #  B(2)
002974:
002975: E6,1541  E6,1706               TMP1               EQUALS   CMDTMP     +2                         #  B(2)
002976: E6,1541  E6,1710               TMP2               EQUALS   TMP1       +2                         #  B(2)
002977: E6,1541  E6,1712               TMP3               EQUALS   TMP2       +2                         #  B(2)
002978: E6,1541  E6,1714               TMP4               EQUALS   TMP3       +2                         #  B(2)
002979: E6,1541  E6,1716               TMP5               EQUALS   TMP4       +2                         #  B(2)
002980: E6,1541  E6,1720               TMP6               EQUALS   TMP5       +2                         #  B(2)
002981:
002982:                                                                                                  #  TVC DAP FILTER COEFFICIENTS TEMPORARIES
002983: E6,1541  E6,1722               COEFFADR           EQUALS   TMP6       +2                         #  B(1)
002984: E6,1541  E6,1723               N10                EQUALS   COEFFADR   +1                         #  I(15)
002985:                                                                                                  #  Page 107
002986:
002987:                                                                                                  #  OVERLAYS WITHIN TVC DAP
002988:
002989: E6,1541  E6,1533               OGARATE            =        OMEGAB                                #  B(2)
002990:
002991: E6,1541  E6,1611               PHASETMP           =        TTMP1                                 #  B(1) RESTART FOR CSM/LM V46 SWITCH-OVER
002992: E6,1541  E6,1613               RTRNLOC            =        TTMP2                                 #  B(1) RESTART FOR CSM/LM V46 SWITCH-OVER
002993: E6,1541  E6,1702               BZERO              =        ERRBTMP
002994: E6,1541  E6,1702               CZERO              =        ERRBTMP
002995: E6,1541  E6,1704               JZERO              =        CMDTMP
002996: E6,1541  E6,1704               YZERO              =        CMDTMP
002997:
002998:                                                                                                  #  540.9 STORAGE .............
002999:
003000: E6,1541  E6,1742               NBRCYCLS           EQUALS   N10        +15D                       #  B(1) COUNTER FOR P40,41 STEERING
003001: E6,1541  E6,1743               NBRCYCLP           EQUALS   NBRCYCLS   +1                         #  B(1) MAINTAIN ORDER
003002: E6,1541  E6,1744               DELVSUM            EQUALS   NBRCYCLP   +1                         #  I(6) P40,P41
003003: E6,1541  E6,1752               DELVSUMP           EQUALS   DELVSUM    +6                         #  I(6) P40,P41
003004:
003005:                                                                                                  #  Page 108
003006:                                                                                                  #  **** RCS DAP TEMPORARY VARIABLES. ********************        (95D)
003007:
003008:                                                                                                  #  ** RCS INTERRUPT TRUE TEMPS ***************   (15D)
003009: E6,1541  E6,1506               SPNDX              EQUALS   INTTEMP                               #  B(1)
003010: E6,1541  E6,1507               DPNDX              EQUALS   SPNDX      +1                         #  B(1)TMP
003011: E6,1541  E6,1510               KMPAC              EQUALS   DPNDX      +1                         #  B(2)TMP
003012: E6,1541  E6,1512               KMPTEMP            EQUALS   KMPAC      +2                         #  B(1)TMP
003013:
003014: E6,1541  E6,1513               XNDX1              EQUALS   KMPTEMP    +1                         #  B(1)TMP XNDX1 THRU NYJETS ARE OVERLAYED
003015: E6,1541  E6,1514               XNDX2              EQUALS   XNDX1      +1                         #  B(1)TMP BY OTHER DAP ERASABLES SO
003016: E6,1541  E6,1515               YNDX               EQUALS   XNDX2      +1                         #  B(1)TMP SHOULD ALWAYS BE DEFINED IN
003017: E6,1541  E6,1516               ZNDX               EQUALS   YNDX       +1                         #  B(1)TMP A BLOCK
003018: E6,1541  E6,1517               RINDEX             EQUALS   ZNDX       +1                         #  B(1)TMP
003019: E6,1541  E6,1520               PINDEX             EQUALS   RINDEX     +1                         #  B(1)TMP
003020: E6,1541  E6,1521               YINDEX             EQUALS   PINDEX     +1                         #  B(1)TMP
003021: E6,1541  E6,1522               NRJETS             EQUALS   YINDEX     +1                         #  B(1)TMP
003022: E6,1541  E6,1523               NPJETS             EQUALS   NRJETS     +1                         #  B(1)TMP
003023: E6,1541  E6,1524               NYJETS             EQUALS   NPJETS     +1                         #  B(1)TMP
003024:
003025: E6,1541  E6,1513               WTEMP              EQUALS   XNDX1                                 #  B(2)TMP WTEMP THRU DELTEMPZ OVERLAY
003026: E6,1541  E6,1515               DELTEMPX           EQUALS   WTEMP      +2                         #  B(2)TMP XNDX1 THRU NRJETS AND EDOT THRU
003027: E6,1541  E6,1517               DELTEMPY           EQUALS   DELTEMPX   +2                         #  B(2)TMP ADBVEL
003028: E6,1541  E6,1521               DELTEMPZ           EQUALS   DELTEMPY   +2                         #  B(2)TMP
003029:
003030: E6,1541  E6,1515               EDOT               EQUALS   YNDX                                  #  B(2)TMP EDOT THRU ADBVEL OVERLAY
003031: E6,1541  E6,1517               AERR               EQUALS   EDOT       +2                         #  B(1)TMP YNDX THRU NPJETS AND DELTEMPX
003032: E6,1541  E6,1520               EDOTVEL            EQUALS   AERR       +1                         #  B(2)TMP THRU DELTEMPZ
003033: E6,1541  E6,1522               AERRVEL            EQUALS   EDOTVEL    +2                         #  B(1)TMP
003034: E6,1541  E6,1523               ADBVEL             EQUALS   AERRVEL    +1                         #  B(1)TMP
003035:
003036:                                                                                                  #  *** REGULAR RCS TEMPS *********************   (   ).
003037:
003038:                                                                                                  #  *** RCS ZEROING LOOP STARTS HERE **********   (37)
003039: E6,1541  E6,1525               WBODY              EQUALS   TVCRCS                                #  B(2)TMP
003040: E6,1541  E6,1527               WBODY1             EQUALS   WBODY      +2                         #  B(2)TMP
003041: E6,1541  E6,1531               WBODY2             EQUALS   WBODY      +4                         #  B(2)TMP
003042: E6,1541  E6,1533               ADOT               EQUALS   WBODY2     +2                         #  B(2)TMP
003043: E6,1541  E6,1535               ADOT1              EQUALS   ADOT       +2                         #  B(2)TMP
003044: E6,1541  E6,1537               ADOT2              EQUALS   ADOT1      +2                         #  B(2)TMP
003045:
003046: E6,1541  E6,1541               MERRORX            EQUALS   ADOT2      +2                         #   (2)
003047: E6,1541  E6,1543               MERRORY            EQUALS   MERRORX    +2                         #   (2)
003048: E6,1541  E6,1545               MERRORZ            EQUALS   MERRORY    +2                         #   (2)
003049: E6,1541  E6,1547               DFT                EQUALS   MERRORZ    +2                         #  B(1)TMP
003050: E6,1541  E6,1550               DFT1               EQUALS   DFT        +1                         #  B(1)TMP
003051: E6,1541  E6,1551               DFT2               EQUALS   DFT1       +1                         #  B(1)TMP
003052: E6,1541  E6,1552               DRHO               EQUALS   DFT2       +1                         #  B(2)TMP
003053: E6,1541  E6,1554               DRHO1              EQUALS   DRHO       +2                         #  B(2)TMP
003054:                                                                                                  #  Page 109
003055: E6,1541  E6,1556               DRHO2              EQUALS   DRHO1      +2                         #  B(2)TMP
003056: E6,1541  E6,1560               ATTSEC             EQUALS   DRHO2      +2                         #  B(1)TMP
003057: E6,1541  E6,1561               TAU                EQUALS   ATTSEC     +1                         #  B(1)TMP
003058: E6,1541  E6,1562               TAU1               EQUALS   TAU        +1                         #  B(1)TMP
003059: E6,1541  E6,1563               TAU2               EQUALS   TAU1       +1                         #  B(1)TMP
003060: E6,1541  E6,1564               BIAS               EQUALS   TAU2       +1                         #  B(1)TMP
003061: E6,1541  E6,1565               BIAS1              EQUALS   BIAS       +1                         #  B(1)TMP
003062: E6,1541  E6,1566               BIAS2              EQUALS   BIAS1      +1                         #  B(1)TMP
003063: E6,1541  E6,1567               ERRORX             EQUALS   BIAS2      +1                         #  B(1)TMP
003064: E6,1541  E6,1570               ERRORY             EQUALS   ERRORX     +1                         #  B(1)TMP
003065: E6,1541  E6,1571               ERRORZ             EQUALS   ERRORY     +1                         #  B(1)TMP
003066:
003067:                                                                                                  #  RCS ZERO LOOP ENDS HERE
003068:                                                                                                  #        MORE RCS                        (69D)
003069: E6,1541  E6,1572               THETADX            EQUALS   ERRORZ     +1                         #  B(1)TMP MUST BE CONSECUTIVE WITH ERRORZ
003070: E6,1541  E6,1573               THETADY            EQUALS   THETADX    +1                         #  B(1)TMP
003071: E6,1541  E6,1574               THETADZ            EQUALS   THETADY    +1                         #  B(1)TMP
003072:
003073: E6,1541  E6,1575               DELCDUX            EQUALS   THETADZ    +1                         #  B(2)TMP
003074: E6,1541  E6,1577               DELCDUY            EQUALS   DELCDUX    +2                         #  B(2)TMP
003075: E6,1541  E6,1601               DELCDUZ            EQUALS   DELCDUY    +2                         #  B(2)TMP
003076:
003077: E6,1541  E6,1603               DCDU               EQUALS   DELCDUZ    +2                         #  B(6)TMP USED DURING P20
003078: E6,1541  E6,1611               DTHETASM           EQUALS   DCDU       +6                         #  B(6)TMP STEER LOW OUTPUT.
003079:
003080: E6,1541  E6,1617               ATTKALMN           EQUALS   DTHETASM   +6                         #  B(1)TMP
003081: E6,1541  E6,1620               KMJ                EQUALS   ATTKALMN   +1                         #  B(1)TMP
003082: E6,1541  E6,1621               KMJ1               EQUALS   KMJ        +1                         #  B(1)TMP
003083: E6,1541  E6,1622               KMJ2               EQUALS   KMJ1       +1                         #  B(1)TMP
003084: E6,1541  E6,1623               J/M                EQUALS   KMJ2       +1                         #  B(1)TMP
003085: E6,1541  E6,1624               J/M1               EQUALS   J/M        +1                         #  B(1)TMP
003086: E6,1541  E6,1625               J/M2               EQUALS   J/M1       +1                         #  B(1)TMP
003087: E6,1541  E6,1626               RACFAIL            EQUALS   J/M2       +1                         #  B(1)TMP
003088: E6,1541  E6,1627               RBDFAIL            EQUALS   RACFAIL    +1                         #  B(1)TMP
003089: E6,1541  E6,1630               ACORBD             EQUALS   RBDFAIL    +1                         #  B(1)TMP
003090: E6,1541  E6,1631               XTRANS             EQUALS   ACORBD     +1                         #  B(1)TMP
003091: E6,1541  E6,1632               CH31TEMP           EQUALS   XTRANS     +1                         #  B(1)TMP
003092: E6,1541  E6,1633               CHANTEMP           EQUALS   CH31TEMP   +1                         #  B(1)TMP
003093: E6,1541  E6,1634               T5TIME             EQUALS   CHANTEMP   +1                         #  B(1)TMP
003094: E6,1541  E6,1635               RHO                EQUALS   T5TIME     +1                         #  B(1)TMP
003095: E6,1541  E6,1636               RHO1               EQUALS   RHO        +1                         #  B(1)TMP
003096: E6,1541  E6,1637               RHO2               EQUALS   RHO1       +1                         #  B(1)TMP
003097: E6,1541  E6,1640               AMGB1              EQUALS   RHO2       +1                         #  B(1)TMP
003098: E6,1541  E6,1641               AMGB4              EQUALS   AMGB1      +1                         #  B(1)TMP
003099:                                                                                                  #  Page 110
003100: E6,1541  E6,1642               AMGB5              EQUALS   AMGB4      +1                         #  B(1)TMP
003101: E6,1541  E6,1643               AMGB7              EQUALS   AMGB5      +1                         #  B(1)TMP
003102: E6,1541  E6,1644               AMGB8              EQUALS   AMGB7      +1                         #  B(1)TMP
003103: E6,1541  E6,1645               CAPSI              EQUALS   AMGB8      +1                         #  B(1)TMP
003104: E6,1541  E6,1646               CDUXD              EQUALS   CAPSI      +1                         #  B(2)TMP
003105: E6,1541  E6,1650               CDUYD              EQUALS   CDUXD      +2                         #  B(2)TMP
003106: E6,1541  E6,1652               CDUZD              EQUALS   CDUYD      +2                         #  B(2)TMP
003107: E6,1541  E6,1654               SLOPE              EQUALS   CDUZD      +2                         #  B(1)TMP
003108: E6,1541  E6,1655               ADB                EQUALS   SLOPE      +1                         #  B(1)TMP
003109: E6,1541  E6,1656               RMANNDX            EQUALS   ADB        +1                         #  B(1)TMP
003110: E6,1541  E6,1657               PMANNDX            EQUALS   RMANNDX    +1                         #  B(1)TMP
003111: E6,1541  E6,1660               YMANNDX            EQUALS   PMANNDX    +1                         #  B(1)TMP MUST BE LAST VARIABLE IN RCS
003112:
003113:                                                                                                  #  Page 111
003114:                                                                                                  #  ********** ENTRY DAP TEMPORARY VARIABLES. *********************       (69D)
003115:
003116:                                                                                                  #  ANGLE REGISTERS FOR ENTRY DAPS
003117: E6,1541  E6,1661               AOG                EQUALS   BCDU                                  #  1P
003118: E6,1541  E6,1662               AIG                EQUALS   AOG        +1                         #  1P
003119: E6,1541  E6,1663               AMG                EQUALS   AIG        +1                         #  1P
003120: E6,1541  E6,1664               ROLL/180           EQUALS   AMG        +1                         #  1P
003121: E6,1541  E6,1665               ALFA/180           EQUALS   ROLL/180   +1                         #  1P
003122: E6,1541  E6,1666               BETA/180           EQUALS   ALFA/180   +1                         #  1P
003123: E6,1541  E6,1667               AOG/PIP            EQUALS   BETA/180   +1                         #  1P
003124: E6,1541  E6,1670               AIG/PIP            EQUALS   AOG/PIP    +1                         #  1P
003125: E6,1541  E6,1671               AMG/PIP            EQUALS   AIG/PIP    +1                         #  1P
003126: E6,1541  E6,1672               ROLL/PIP           EQUALS   AMG/PIP    +1                         #  1P
003127: E6,1541  E6,1673               ALFA/PIP           EQUALS   ROLL/PIP   +1                         #  1P
003128: E6,1541  E6,1674               BETA/PIP           EQUALS   ALFA/PIP   +1                         #  1P
003129:
003130:                                                                                                  #  GYMBAL DIFFERENCES OVER INTERNAL TCDU = .1 SEC.
003131: E6,1541  E6,1675               -DELAOG            EQUALS   BETA/PIP   +1                         #  1P
003132: E6,1541  E6,1676               -DELAIG            EQUALS   -DELAOG    +1                         #  1P
003133: E6,1541  E6,1677               -DELAMG            EQUALS   -DELAIG    +1                         #  1P
003134:
003135:                                                                                                  #  ESTIMATED BODY RATES
003136: E6,1541  E6,1700               CMDAPMOD           EQUALS   -DELAMG    +1                         #  1P GOES BEFORE PREL FOR TM.
003137:
003138: E6,1541  E6,1701               PREL               EQUALS   CMDAPMOD   +1                         #  1P P TCDU/180         (ROLLDOT)
003139: E6,1541  E6,1702               QREL               EQUALS   PREL       +1                         #  1P Q TCDU/180         (PITCHDOT)
003140: E6,1541  E6,1703               RREL               EQUALS   QREL       +1                         #  1P R TCDU/180         (YAWDOT)
003141:
003142: E6,1541  E6,1704               BETADOT            EQUALS   RREL       +1                         #  1P MUST FOLLOW RREL. BETADOT TCDU/180
003143: E6,1541  E6,1705               PHIDOT             EQUALS   BETADOT    +1                         #  1P
003144:
003145:                                                                                                  #  OLD (UNAVERAGED) BODY RATE MEASURE
003146: E6,1541  E6,1706               OLDELP             EQUALS   PHIDOT     +1                         #  1P
003147: E6,1541  E6,1707               OLDELQ             EQUALS   OLDELP     +1                         #  1P
003148: E6,1541  E6,1710               OLDELR             EQUALS   OLDELQ     +1                         #  1P
003149:
003150: E6,1541  E6,1711               JETAG              EQUALS   OLDELR     +1                         #  1P
003151: E6,1541  E6,1712               TUSED              EQUALS   JETAG      +1                         #  1P ELAPSED TIME SINCE NOMINAL UPDATE.
003152:
003153:                                                                                                  #  FOLLOWING 3 SP WORDS IN DOWNLINK.  ROLLTM SENT EACH 1 SEC.
003154: E6,1541  E6,1713               PAXERR1            EQUALS   TUSED      +1                         #  1P INTEGRATED ROLL ERROR/360.
003155: E6,1541  E6,1714               ROLLTM             EQUALS   PAXERR1    +1                         #  1P ROLL/180 FOR TM.
003156: E6,1541  E6,1715               ROLLC              EQUALS   ROLLTM     +1                         #  2P ROLLCOM/360 FROM ENTRY (FOR TM)
003157:                                                                                                  #  KEEP ROLLC & ROLLHOLD ADJACENT FOR TP
003158:                                                                                                  #  Page 112
003159: E6,1541  E6,1717               ROLLHOLD           EQUALS   ROLLC      +2                         #  1P FOR ATTITUDE HOLD IN CMDAPMOD = +1
003160:
003161:                                                                                                  #  ENTRY DAP QUANTITIES THAT SHARE WITH RCS DAP.
003162: E6,1541  E6,1603               ALFACOM            EQUALS   DCDU                                  #  1P KEEP ADJACENT TO BETACOM. <<
003163: E6,1541  E6,1604               BETACOM            EQUALS   ALFACOM    +1                         #  1P
003164:
003165:                                                                                                  #  JET LIST.  DT, JETBITS IN THIS ORDER.
003166: E6,1541  E6,1605               TOFF               EQUALS   BETACOM    +1                         #  1P DP PAIR
003167: E6,1541  E6,1606               TBITS              EQUALS   TOFF       +1                         #  1P
003168: E6,1541  E6,1607               TON2               EQUALS   TBITS      +1                         #  1P DP PAIR
003169: E6,1541  E6,1610               T2BITS             EQUALS   TON2       +1                         #  1P
003170:
003171:                                                                                                  #  MISCELLANEOUS PERMANENT ERASABLE.
003172: E6,1541  E6,1611               OUTTAG             EQUALS   T2BITS     +1                         #  1P
003173: E6,1541  E6,1612               NUJET              EQUALS   OUTTAG     +1                         #  1P
003174:
003175:                                                                                                  #  MORE ENTRY DAP QUANTITIES THAT DO NOT SHARE WITH RCS DAP.
003176: E6,1541  E6,1720               JETEM              EQUALS   ROLLHOLD   +1                         #  2P THIS DP USED IN RATEAVG
003177: E6,1541  E6,1722               GAMA               EQUALS   JETEM      +2                         #  1P
003178: E6,1541  E6,1723               GAMDOT             EQUALS   GAMA       +1                         #  1P
003179: E6,1541  E6,1724               POSEXIT            EQUALS   GAMDOT     +1                         #  1P
003180: E6,1541  E6,1725               CM/GYMDT           EQUALS   POSEXIT    +1                         #  1P
003181: E6,1541  E6,1726               HEADSUP            EQUALS   CM/GYMDT   +1                         #  1P DSP NOUN 61 FOR P62,63,64,67.
003182: E6,1541  E6,1727               P63FLAG            EQUALS   HEADSUP    +1                         #  1P INTERLOCK FOR WAKEP62
003183:
003184:                                                                                                  # >> SHARE BELOW WITH RCS RUPT TEMPS (< 15D) <<<
003185: E6,1541  E6,1506               CALFA              EQUALS   SPNDX                                 #  1P
003186: E6,1541  E6,1507               SALFA              EQUALS   CALFA      +1                         #  1P
003187:
003188: E6,1541  E6,1510               SINM               EQUALS   SALFA      +1                         #  1P
003189: E6,1541  E6,1511               COSM               EQUALS   SINM       +1                         #  1P
003190: E6,1541  E6,1512               SINO               EQUALS   COSM       +1                         #  1P
003191: E6,1541  E6,1513               COSO               EQUALS   SINO       +1                         #  1P
003192: E6,1541  E6,1514               SINOCOSM           EQUALS   COSO       +1                         #  1P
003193: E6,1541  E6,1515               COSOCOSM           EQUALS   SINOCOSM   +1                         #  1P
003194:                                                                                                  # >> SHARE ABOVE WITH RCS RUPT TEMPS <<<
003195:
003196:                                                                                                  #  THE FOLLOWING FEW REGISTERS USED ONCE EACH 2 SEC
003197: E6,1541  E6,1613               -VT/180            EQUALS   NUJET      +1                         #  1P
003198: E6,1541  E6,1614               LCX/360            EQUALS   -VT/180    +1                         #  1P
003199: E6,1541  E6,1615               XD/360             EQUALS   LCX/360    +1                         #  1P
003200: E6,1541  E6,1616               VSQ/4API           EQUALS   XD/360     +1                         #  1P
003201: E6,1541  E6,1617               JNDX               EQUALS   VSQ/4API   +1                         #  1P
003202: E6,1541  E6,1620               JNDX1              EQUALS   JNDX       +1                         #  1P
003203:                                                                                                  #  Page 113
003204: E6,1541  E6,1621               TON1               EQUALS   JNDX1      +1                         #  1P DP PAIR
003205: E6,1541  E6,1622               T1BITS             EQUALS   TON1       +1                         #  1P
003206:
003207:                                                                                                  #  MISCELLANEOUS REGISTERS USED EACH UPDATE.
003208: E6,1541  E6,1623               CM/SAVE            EQUALS   T1BITS     +1                         #  1P
003209: E6,1541  E6,1624               JETEM2             EQUALS   CM/SAVE    +1                         #  1P TEMPORARY STORAGE
003210:
003211:                                                                                                  #  DAP QUANTITIES SHARED WITH RCS DAP FOR TM & FLIGHT RECORDER.
003212: E6,1541  E6,1567               VDT/180            =        ERRORX                                #  1P (EDIT)
003213: E6,1541  E6,1570               -VT/180E           =        ERRORY                                #  1P (EDIT)
003214:
003215: E6,1541  E6,1476               PAXERR             EQUALS   AK                                    #  1P ROLL ERROR FOR NEEDLES
003216: E6,1541  E6,1572               QAXERR             =        THETADX                               #  1P SINCE AK1 IS ZEROED IN ATM DAP.
003217: E6,1541  E6,1573               RAXERR             =        QAXERR     +1                         #  1P SINCE AK2 IS ZEROED IN TM DAP.
003218:
003219:                                                                                                  #  *** COLMANU (R60,R62) ****
003220: E6,1541  E6,1710               VECQTEMP           EQUALS   COFSKEW
003221:
003222:                                                                                                  #  Page 114
003223:                                                                                                  #  ******** KALCMANU VARIABLES. (71D) *******************************
003224: E6,1541  E6,1661               BCDU               EQUALS   YMANNDX    +1                         #  B(3)TMP
003225: E6,1541  E6,1664               KSPNDX             EQUALS   BCDU       +3                         #  B(1)TMP
003226: E6,1541  E6,1665               KDPNDX             EQUALS   KSPNDX     +1                         #  B(1)TMP
003227:
003228: E6,1541  E6,1666               TMIS               EQUALS   KDPNDX     +1                         #  I(18) MUST BE IN THE SAME BANK AS RCS DAP
003229: E6,1541  E6,1710               COFSKEW            EQUALS   TMIS       +18D                       #  I(6) MUST BE IN THE SAME BANK AS RCS DAP
003230: E6,1541  E6,1716               CAM                EQUALS   COFSKEW    +6                         #  I(2) MUST BE IN THE SAME BANK AS RCS DAP
003231:
003232: E6,1541  E6,1720               MIS                EQUALS   CAM        +2                         #  I(18) (THE REST MAY GO ANYWHERE)
003233: E6,1541  E6,1742               COF                EQUALS   MIS        +18D                       #  I(6)TMP
003234: E6,1541  E6,1750               SCAXIS             EQUALS   COF        +6                         #  I(6)TMP
003235: E6,1541  E6,1756               POINTVSM           EQUALS   SCAXIS     +6                         #  I(6)TMP
003236: E6,1541  E6,1764               AM                 EQUALS   POINTVSM   +6                         #  I(2)TMP
003237: E6,1541  E6,1766               RAD                EQUALS   AM         +2                         #  I(2)TMP
003238:
003239:                                                                                                  #  FIRST-ORDER OVERLAYS IN KALCMANU
003240: E6,1541  E6,1666               KV1                EQUALS   TMIS                                  #  I(6)TMP
003241: E6,1541  E6,1666               MFISYM             EQUALS   TMIS                                  #  I   TMP
003242: E6,1541  E6,1666               TMFI               EQUALS   TMIS                                  #  I   TMP
003243: E6,1541  E6,1666               NCDU               EQUALS   TMIS                                  #  B   TMP
003244: E6,1541  E6,1671               NEXTIME            EQUALS   TMIS       +3                         #  B   TMP
003245: E6,1541  E6,1672               TTEMP              EQUALS   TMIS       +4                         #  B   TMP
003246: E6,1541  E6,1674               KV2                EQUALS   TMIS       +6                         #  I(6)TMP
003247: E6,1541  E6,1674               BIASTEMP           EQUALS   TMIS       +6                         #  B   TMP
003248: E6,1541  E6,1702               KV3                EQUALS   TMIS       +12D                       #  I(6)TMP
003249: E6,1541  E6,1702               CGF                EQUALS   TMIS       +12D                       #  I   TMP
003250:
003251: E6,1541  E6,1710               BRATE              EQUALS   COFSKEW                               #  B   TMP
003252: E6,1541  E6,1716               TM                 EQUALS   CAM                                   #  B   TMP
003253:
003254:                                                                                                  #  SECOND-ORDER OVERLAYS IN KALCMANU
003255: E6,1541  E6,1666               P21                EQUALS   KV1                                   #  I(2)TMP
003256: E6,1541  E6,1670               D21                EQUALS   KV1        +2                         #  I(2)TMP
003257: E6,1541  E6,1672               G21                EQUALS   KV1        +4                         #  I(2)TMP
003258:
003259:                                                                                                  #  SATURN BOOST STORAGE.  SAVE TILL RCS DAP OPERATION.   (17D)
003260: E6,1541  E6,1661               POLYNUM            EQUALS   BCDU                                  #  B(15) PAD LOADED
003261: E6,1541  E6,1673               POLYLOC            =        POLYNUM    +10D
003262: E6,1541  E6,1700               SATRLRT            EQUALS   POLYNUM    +15D                       #  B(2)  PAD LOADED
003263:
003264:                                                                                                  #  MORE P11 STORAGE --PAD LOADED--       (2D)
003265:                                                                                                  #  Page 115
003266:                                                                                                  #  (NOTE:  THIS PAD LOAD WILL NOT BE PRESERVED THROUGHOUT THE MISSION AS IT SHARES STORAGE WITH KALCMANU,
003267:                                                                                                  #  ENTRY DAP AND TVC DAP)
003268: E6,1541  E6,1702               RPSTART            EQUALS   SATRLRT    +2                         #  B(1) PITCH ROLL START TIME
003269: E6,1541  E6,1703               POLYSTOP           EQUALS   RPSTART    +1                         #  B(1) POLYCUT OFF MINUS RPSTART SEC
003270:
003271:                                                                                                  #  STORAGE FOR VHHDOT AND ATTDSP
003272: E6,1541  E6,1704               BODY3              EQUALS   POLYSTOP   +1                         #  B(1)OUT
003273: E6,1541  E6,1705               BODY2              EQUALS   BODY3      +1                         #  B(1)OUT
003274: E6,1541  E6,1706               BODY1              EQUALS   BODY2      +1                         #  B(1)OUT
003275: E6,1541  E6,1707               SPOLYARG           EQUALS   BODY1      +1                         #  B(1)TMP ARGUMENT FOR POLLY
003276:
003277: E6,1541  E6,1503               OLDBODY1           =        EDRIVEX                               #  1 PULSE = 0.0432 DEGREES
003278: E6,1541  E6,1504               OLDBODY2           =        EDRIVEY
003279: E6,1541  E6,1505               OLDBODY3           =        EDRIVEZ
003280:
003281:                                                                                                  #  STORAGE FOR S11.1
003282: E6,1541  E6,1710               VDISP              EQUALS   SPOLYARG   +1                         #  I(2)OUT       2(7) M/CS
003283: E6,1541  E6,1712               HDISP              EQUALS   VDISP      +2                         #  I(2)OUT       2(29) M
003284: E6,1541  E6,1714               HDOTDISP           EQUALS   HDISP      +2                         #  I(2)OUT       2(7) M/CS
003285: E6,1541  E6,1716               BOOSTEMP           EQUALS   HDOTDISP   +2                         #  B(3)TEMP
003286:
003287:                                                                                                  #  P11 SATURN I/F                        (9D)
003288: E6,1541  E6,1721               SATRATE            EQUALS   BOOSTEMP   +3                         #  B(4)PL MANEUVER RATES FOR SATURN STICK
003289: E6,1541  E6,1725               SATSW              EQUALS   SATRATE    +4                         #  B(1)TEM STATUS SW FOR BOOST TAKEOVER
003290: E6,1541  E6,1726               BIASAK             EQUALS   SATSW      +1                         #  B(3)TEM STOR AKBIAS FOR BOOST TAKEOVER
003291: E6,1541  E6,1731               SATSCALE           EQUALS   BIASAK     +3                         #  B(1) SCALE FACTOR FOR SATURN STEERING
003292:
003293:                                                                                                  #  P21 STORAGE.                          (1D)
003294: E6,1541  E6,1770               GENRET             EQUALS   RAD        +2                         #  B(1)TMP
003295:
003296:                                                                                                  #  R61CSM STORAGE.                       (1D)
003297: E6,1541  E6,1771               SAVBNK             EQUALS   GENRET     +1                         #  B(1) S-S SAVE EBANK FOR R61 SUBROUTINE
003298:
003299:                                                                                                  #  CRS61.1 STORAGE FOR AUTOPILOT BANK.   (3D)
003300: E6,1541  E6,1772               SAVEDCDU           EQUALS   SAVBNK     +1                         #  B(3)TMP
003301:
003302:                                                                                                  #  R61 STORAGE.                          (1D)
003303:                                                                                                  #  Page 116
003304: E6,1541  E6,1775               R61CNTR            EQUALS   SAVEDCDU   +3                         #   (1)TMP
003305:
003306:                                                                                                  #  ENTRY RESTART PROTECTION STORAGE.  --KEEP TEMPS IN ORDER--    (12D)
003307: E6,1541  E6,1770               TEMPROLL           EQUALS   GENRET                                #  B(1)TMP COPY CYCLE REGISTER
003308: E6,1541  E6,1771               TEMPALFA           EQUALS   TEMPROLL   +1                         #  B(1)TMP COPY CYCLE REGISTER
003309: E6,1541  E6,1772               TEMPBETA           EQUALS   TEMPALFA   +1                         #  B(1)TMP COPY CYCLE REGISTER
003310: E6,1541  E6,1773               60GENRET           EQUALS   TEMPBETA   +1                         #  B(1)TMP QSAVE FOR S61.1 AND ENTRY.
003311: E6,1541  E6,1774               S61DT              EQUALS   60GENRET   +1                         #  B(1)TMP VARIABLE DT FOR S61.1 RESTART.
003312:
003313:                                                                                                  #  ENTRY TM SHARING FOR ACCELERATION PROFILE.
003314: E6,1541  E6,1533               XPIPBUF            EQUALS   ADOT                                  #  B(1) PIPA BUFFER FOR TM DURING ENTRY.
003315: E6,1541  E6,1534               YPIPBUF            EQUALS   XPIPBUF    +1                         #  B(1) PIPS FILED HERE EACH .5 SEC APPEAR
003316: E6,1541  E6,1535               ZPIPBUF            EQUALS   YPIPBUF    +1                         #  B(1) ON DOWNLIST ONCE PER SECOND DURING
003317: E6,1541  E6,1536               XOLDBUF            EQUALS   ZPIPBUF    +1                         #  B(1) ENTRY AFTER RCS DAP HAS BEEN DIS-
003318: E6,1541  E6,1537               YOLDBUF            EQUALS   XOLDBUF    +1                         #  B(1) ABLED.  NEWEST PIP VALUE REPLACES
003319: E6,1541  E6,1540               ZOLDBUF            EQUALS   YOLDBUF    +1                         #  B(1) PIPBUF, WHICH IS MOVED INTO OLDBUF.
003320:
003321:                                                                                                  #  REENTRY VARIABLES SHARED WITH RCS DAP FOR TM & FLIGHT RECORDER.
003322: E6,1541  E6,1574               Q7                 =        THETADZ                               #  I(2) HI-WORD ONLY ON DNLIST.
003323: E6,1541  E6,1525               ASPS(TM)           =        WBODY                                 #  I(6)DWN
003324:                                                                                                  #        ASKEP, ASP1, ASPUP, ASPDN, ASP3, ASP3+1
003325:
003326:                                                                                                  #  P37 PAD LOADS                         (1)
003327: E6,1541  E6,1776               P37RANGE           EQUALS   R61CNTR    +1                         #  I(1)PL        *****
003328:
003329: E6,1541  E6,1777               END-E6             =        P37RANGE   +1                         #  FIRST UNUSED ERASABLE LOCATION IN E6
003330:
003331:                                                                                                  #  Page 117
003332:                                                                                                  #  EBANK-7 ASSIGNMENTS
003333:
003334: E7,1400                                           SETLOC   3400
003335:
003336:                                                                                                  #  *-*-*-*- OVERLAY NUMBER 0 IN EBANK 7 -*-*-*-*
003337:
003338:                                                                                                  #  EXTERNAL DELTA-V UPDATE.              (21D)
003339:                                                                                                  #  (MUST BE IN ORDER FOR UPDATE PROGRAM.  ALSO ENTRY PROGRAM PICK UP 'LAT(SPL' WITH A VLOAD.)
003340:
003341: E7,1400                        LAT(SPL)           ERASE    +20D                                  #  I(2)DSP NOUN 61 FOR P62,63,64,67
003342: E7,1425  E7,1402               LNG(SPL)           EQUALS   LAT(SPL)   +2                         #  I(2)DSP NOUN 61 FOR P62,63,64,67
003343:
003344: E7,1425  E7,1404               DELVSLV            EQUALS   LNG(SPL)   +2                         #  I(6)TMP DELTA VEL VECT, LOC VER COORDS
003345: E7,1425  E7,1412               TIG                EQUALS   DELVSLV    +6                         #  B(2)DSP NOUN 33 FOR X-V84(R32),P30,40.
003346: E7,1425  E7,1414               RTARG              EQUALS   TIG        +2                         #  I(6)IN DESIRED VEHICLE RADIUS VECTOR
003347: E7,1425  E7,1422               DELLT4             EQUALS   RTARG      +6                         #  I(2)IN TIME DIFFERENCE FOR INITVEL
003348: E7,1425  E7,1424               ECSTEER            EQUALS   DELLT4     +2                         #  I(1)PL FOR P40'S
003349: E7,1425  E7,1404               DELVLVC            =        DELVSLV
003350: E7,1425                        END-DELV           ERASE                                          #  *NEXT AVAIL LOC AFTER UNSHARED E7*
003351:
003352:                                                                                                  #  SERVICER STORAGE.                     (13D)
003353: E7,1426  E7,1425               DVTOTAL            EQUALS   END-DELV                              #  B(2)DSP NOUN 40,99 FOR P30,34,35,40
003354: E7,1426  E7,1427               TGO                EQUALS   DVTOTAL    +2                         #  B(2)
003355: E7,1426  E7,1431               DVCNTR             EQUALS   TGO        +2                         #  B(1)TMP
003356: E7,1426  E7,1432               DELVREF            EQUALS   DVCNTR     +1                         #  I(6)TMP
003357:
003358: E7,1426  E7,1447               NOMTIG             EQUALS   END-KALC                              #  I(2) (CANNOT SHARE WITH KALCMANU
003359:                                                                                                  #        OR DELVREF)
003360: E7,1426  E7,1451               END-SVCR           EQUALS   NOMTIG     +2                         #  ***NEXT AVAILABLE AFTER SERVICER
003361:
003362:                                                                                                  #  ALIGNMENT STORAGE.                    (25D)
003363: E7,1426  E7,1451               XSCD               EQUALS   END-SVCR                              #  I(6)TMP
003364: E7,1426  E7,1457               YSCD               EQUALS   XSCD       +6                         #  I(6)TMP
003365: E7,1426  E7,1465               ZSCD               EQUALS   YSCD       +6                         #  I(6)TMP
003366: E7,1426  E7,1473               VEL/C              EQUALS   ZSCD       +6                         #  I(6)TMP
003367: E7,1426  E7,1501               R53EXIT            EQUALS   VEL/C      +6                         #  I(1)TMP
003368:
003369:                                                                                                  #  ALIGNMENT MARKDATA (DOWNLINK) ******* (7D)
003370: E7,1426  E7,1502               MARK2DWN           EQUALS   R53EXIT    +1                         #   (7) USED BY ALIGNMENT P50'S
003371:
003372:                                                                                                  #  Page 118
003373:                                                                                                  #  *-*-*-*- OVERLAY NUMBER 1 IN EBANK 7 -*-*-*-*
003374:
003375:                                                                                                  #  REENTRY ERASABLES.                    (206D)
003376: E7,1426  E7,1451               RTINIT             EQUALS   END-SVCR                              #  6P
003377: E7,1426  E7,1457               RTEAST             EQUALS   RTINIT     +6                         #  6P
003378: E7,1426  E7,1465               RTNORM             EQUALS   RTEAST     +6                         #  6P
003379: E7,1426  E7,1473               RT                 EQUALS   RTNORM     +6                         #  6P
003380: E7,1426  E7,1501               UNI                EQUALS   RT         +6                         #  6P
003381: E7,1426  E7,1507               UNITV              EQUALS   UNI        +6                         #  6P
003382: E7,1426  E7,1515               VEL                EQUALS   UNITV      +6                         #  6P
003383:
003384: E7,1426  E7,1523               TIME/RTO           EQUALS   VEL        +6                         #  2P TIME OF INITIAL TARGET, RTO.
003385: E7,1426  E7,1525               -VREL              EQUALS   TIME/RTO   +2                         #  6P
003386: E7,1426  E7,1533               OLDUYA             EQUALS   -VREL      +6                         #  6P USED BY CM/POSE    (ENTRY DAP)
003387: E7,1426  E7,1541               UXA/2              EQUALS   OLDUYA     +6                         #  6P USED BY CM/POSE    (ENTRY DAP) -UVA
003388: E7,1426  E7,1541               URH                =        UXA/2                                 #        P67 DISPLAY NOUN
003389: E7,1426  E7,1547               UYA/2              EQUALS   UXA/2      +6                         #  6P USED BY CM/POSE    (ENTRY DAP) UYA
003390: E7,1426  E7,1555               UZA/2              EQUALS   UYA/2      +6                         #  6P USED BY CM/POSE    (ENTRY DAP) UNA
003391: E7,1426  E7,1563               UBX/2              EQUALS   UZA/2      +6                         #  6P USED BY CM/POSE    (ENTRY DAP)
003392: E7,1426  E7,1571               UBY/2              EQUALS   UBX/2      +6                         #  6P USED BY CM/POSE    (ENTRY DAP)
003393: E7,1426  E7,1577               UBZ/2              EQUALS   UBY/2      +6                         #  6P USED BY CM/POSE    (ENTRY DAP)
003394:
003395: E7,1426  E7,1605               DTEAROT            EQUALS   UBZ/2      +6                         #  2P
003396: E7,1426  E7,1607               DIFF               EQUALS   DTEAROT    +2                         #  2P
003397: E7,1426  E7,1611               DIFFOLD            EQUALS   DIFF       +2                         #  2P
003398: E7,1426  E7,1613               FACTOR             EQUALS   DIFFOLD    +2                         #  2P
003399: E7,1426  E7,1615               FACT1              EQUALS   FACTOR     +2                         #  2P
003400: E7,1426  E7,1617               FACT2              EQUALS   FACT1      +2                         #  2P
003401:                                                                                                  # Q7             =       THETAD2         # 2P SHARED FOR TM.  P64-P66
003402: E7,1426  E7,1621               VSQUARE            EQUALS   FACT2      +2                         #  2P
003403: E7,1426  E7,1623               LAD                EQUALS   VSQUARE    +2                         #  2P
003404: E7,1426  E7,1625               LOD                EQUALS   LAD        +2                         #  2P
003405: E7,1426  E7,1627               L/DCMINR           EQUALS   LOD        +2                         #  2P
003406: E7,1426  E7,1631               KLAT               EQUALS   L/DCMINR   +2                         #  2P
003407: E7,1426  E7,1633               L/D                EQUALS   KLAT       +2                         #  2P
003408: E7,1426  E7,1635               L/D1               EQUALS   L/D        +2                         #  2P
003409: E7,1426  E7,1724               LEWD               =        VIO                                   #  2P SHARED FOR TM.  P64-P65
003410: E7,1426  E7,1637               D                  EQUALS   L/D1       +2                         #  2P DSP NOUN 64,66,68 FOR P63,64,67
003411:                                                                                                  # V1             =       ENDBUF  +1      # 2P SHARED FOR TM. P64-P65
003412: E7,1426  E7,1641               DLEWD              EQUALS   D          +2                         #  2P
003413: E7,1426  E7,1643               K2ROLL             EQUALS   DLEWD      +2                         #  2P
003414: E7,1426  E7,1645               GOTOADDR           EQUALS   K2ROLL     +2                         #  1P
003415: E7,1426  E7,1646               TEM1B              EQUALS   GOTOADDR   +1                         #  2P
003416: E7,1426  E7,1650               MM                 EQUALS   TEM1B      +2                         #  2P
003417: E7,1426  E7,1651               GRAD               EQUALS   MM         +1                         #  2P
003418: E7,1426  E7,1652               FX                 EQUALS   GRAD       +1                         #  1P OVERWRITES NEXT 5 LOCS IN P67
003419: E7,1426  E7,1653               LEQ                EQUALS   FX         +1                         #  2P
003420: E7,1426  E7,1655               DHOOK              EQUALS   LEQ        +2                         #  2P
003421: E7,1426  E7,1657               AHOOKDV            EQUALS   DHOOK      +2                         #  2P
003422:                                                                                                  #  Page 119
003423: E7,1426  E7,1661               DVL                EQUALS   AHOOKDV    +2                         #  2P
003424:                                                                                                  # A0             =       ENDBUF  +3      # 2P SHARED FOR TM. (HI-WD) P84-P85
003425: E7,1426  E7,1663               A1                 EQUALS   DVL        +2                         #  2P
003426: E7,1426  E7,1665               VBARS              EQUALS   A1         +2                         #  2P
003427: E7,1426  E7,1667               COSG/2             EQUALS   VBARS      +2                         #  2P
003428:                                                                                                  # GAMMAL         =       GAMMAEI         # 2P SHARED FOR TM.  P64
003429: E7,1426                        GAMMAL1            =        22D                                   #  2P
003430: E7,1426  E7,1671               VS1                EQUALS   COSG/2     +2                         #  2P
003431: E7,1426  E7,1766               VL                 =        VPRED                                 #  2P SHARED FOR TM.  P64-P65
003432: E7,1426  E7,1673               V                  EQUALS   VS1        +2                         #  2P
003433:                                                                                                  # VREF           =       THETAD  +2      # 2P SHARED FOR TM.  P65
003434: E7,1426  E7,1675               LATANG             EQUALS   V          +2                         #  2P ADJACENT FOR TM.
003435: E7,1426  E7,1677               RDOT               EQUALS   LATANG     +2                         #  2P ADJACENT FOR TM.
003436: E7,1426  E7,1701               THETAH             EQUALS   RDOT       +2                         #  2P DSP NOUN 64,67 FOR P63,64,67
003437:                                                                                                  # RDOTREF        =       THETAD          # 2P SHARED FOR TM.  P65
003438: E7,1426  E7,1703               ALP                EQUALS   THETAH     +2                         #  2P
003439:
003440: E7,1426  E7,1730               ASKEP              =        ASPS                                  #  2P)                THESE ARE STORED IN
003441: E7,1426  E7,1731               ASP1               =        ASPS       +1                         #  2P)                SEQUENCE, OVERLAPPING
003442: E7,1426  E7,1732               ASPUP              =        ASPS       +2                         #  2P)>HI-WD OF EACH< HI-WORD ONLY APPEARING
003443: E7,1426  E7,1733               ASPDWN             =        ASPS       +3                         #  2P)                ON DOWNLIST, EXCEPT
003444: E7,1426  E7,1734               ASP3               =        ASPS       +4                         #  2P)                ASP3 IS COMPLETE.
003445:
003446: E7,1426  E7,1705               C/D0               EQUALS   ALP        +2                         #  2P    -1/D0
003447: E7,1426  E7,1707               D0                 EQUALS   C/D0       +2                         #  I(2)  CONSTANT DRAG
003448: E7,1426  E7,1711               Q2                 EQUALS   D0         +2                         #  2P
003449:
003450:                                                                                                  #  ROLLC IS LOCATED IN EBANK= AOG TO AID ENTRY DAP.
003451: E7,1426  E7,1713               RTGO               EQUALS   Q2         +2                         #  2P DSP NOUN 66 FOR P64,P67
003452: E7,1426  E7,1715               DNRNGERR           EQUALS   RTGO       +2                         #  2P DSP NOUN 66 FOR P64,67
003453: E7,1426  E7,1675               XRNGERR            =        LATANG                                #        FOR DISKY DISPLAY
003454: E7,1426  E7,1717               KAT                EQUALS   DNRNGERR   +2                         #  2P
003455: E7,1426  E7,1721               GMAX               EQUALS   KAT        +2                         #  1P DSP NOUN 60 FOR P61,62,63
003456:                                                                                                  #  GMAX IS LOADED IN DOUBLE PRECISION.
003457: E7,1426  E7,1726               L/DCALC            =        TTE                                   #  2P CALCULATED L/D FOR TM: P64-P67.
003458: E7,1426  E7,1770               GAMMAL             =        GAMMAEI                               #  2P SHARED FOR TM.  P64.
003459: E7,1426  E7,1770               PREDANG            =        GAMMAEI                               #        FOR TM IN P67.
003460: E7,1426  E7,1771               JJ                 =        PREDANG    +1                         #        FOR TM IN P67.
003461: E7,1426  E7,1722               VMAGI              EQUALS   GMAX       +1                         #  2P DSP NOUN 62,64,66 FOR P11,63,64.
003462: E7,1426  E7,1724               VIO                EQUALS   VMAGI      +2                         #  2P DSP NOUN 63 FOR P61.
003463: E7,1426  E7,1726               TTE                EQUALS   VIO        +2                         #  2P DSP NOUN 63 FOR P61.
003464: E7,1426  E7,1730               ASPS               EQUALS   TTE        +2                         #  I(2) HI-WORD ONLY ON DNLIST FOR TEMP
003465: E7,1426  E7,1732               TTE1               EQUALS   ASPS       +2                         #  I(2)TMP HOLDS UNDECREMENTED TTE VALUE
003466:
003467:                                                                                                  #  **** P6O'S ****
003468: E7,1426  E7,1713               RTGON64            EQUALS   RTGO                                  #  RANGE ERRORS NEGATIVE IF FALLS SHORT
003469:                                                                                                  #  Page 120
003470: E7,1426  E7,1713               RTGON67            EQUALS   RTGO                                  #  DSP NOUN 67
003471:
003472:                                                                                                  #  REENTRY, RETURN TO EARTH COMMON DISPLAY       (4D)
003473: E7,1426  E7,1766               VPRED              EQUALS   BETA12     +2                         #  DSP NOUN 60 FOR P61,62,63
003474: E7,1426  E7,1770               GAMMAEI            EQUALS   VPRED      +2                         #  DSP NOUN 60 FOR P61,62,63
003475:
003476:                                                                                                  #  DISPLAY REGISTER FOR VG               (2D)
003477: E7,1426  E7,1772               VGDISP             EQUALS   GAMMAEI    +2                         #  B(2)DSP N.40,42,99 FOR P30,34,35,37,40,
003478:                                                                                                  #            41 VG DISPLAY
003479:
003480:                                                                                                  #  SOME P11 DISPLAY REGISTERS            (6D)
003481: E7,1426  E7,1734               ALTI               EQUALS   TTE1       +2                         #  2P DSP NOUN 62 FOR P11.
003482: E7,1426  E7,1736               HDOT               EQUALS   ALTI       +2                         #  2P DSP NOUN 62 FOR P11.
003483:
003484:                                                                                                  #  Page 121
003485:                                                                                                  #  *-*-*-*- OVERLAY NUMBER 2 IN EBANK 7 -*-*-*-*
003486:
003487:                                                                                                  #  KALCMANU STORAGE.                             (18D)
003488: E7,1426  E7,1425               MFS                EQUALS   END-DELV                              #  I(18)
003489: E7,1426  E7,1425               MFI                EQUALS   MFS                                   #  I    TMP
003490: E7,1426  E7,1425               DEL                EQUALS   MFS                                   #  I    TMP
003491: E7,1426  E7,1447               END-KALC           EQUALS   MFS        +18D                       #  **NEXT AVAIL LOC AFTER KALCMANU**
003492:
003493:                                                                                                  #  MEASUREMENT INCORPORATION STORAGE (R22) STORAGE.      (56D)
003494:
003495: E7,1426  E7,1447               TX789              EQUALS   END-KALC                              #  I(6)TMP
003496: E7,1426  E7,1455               GAMMA              EQUALS   TX789      +6                         #  I(3)TMP
003497: E7,1426  E7,1457               OMEGA              EQUALS   GAMMA      +2                         #  I(18)TMP
003498: E7,1426  E7,1501               BVECTOR            EQUALS   OMEGA      +18D                       #  I(18)TMP
003499: E7,1426  E7,1523               DELTAQ             EQUALS   BVECTOR    +18D                       #  I(2)TMP
003500: E7,1426  E7,1525               VARIANCE           EQUALS   DELTAQ     +2                         #  I(3)TMP
003501: E7,1426  E7,1530               RCLP               EQUALS   VARIANCE   +3                         #  I(6)TMP
003502: E7,1426  E7,1536               GRP2SVQ            EQUALS   RCLP       +6                         #  I(1)TMP QSAVE FOR RESTARTS
003503:
003504:                                                                                                  #  P20, P22, P23 DSP NOUN                (5D)
003505: E7,1426  E7,1501               N49DISP            EQUALS   BVECTOR                               #  B(5)TMP
003506:
003507:                                                                                                  #  S22.1 STORAGE.                        (36D)
003508: E7,1426  E7,1537               SVMRKDAT           EQUALS   GRP2SVQ    +1                         #  I(36)TMP 5 SETS OF MARK DATA +PAD OF ONE
003509:
003510:                                                                                                  #  **** CISLUNAR NAV.  ERAS.  (P20'S) ****       (45D)
003511: E7,1426  E7,1603               TRUNX              EQUALS   SVMRKDAT   +36D
003512: E7,1426  E7,1603               DATATEST           EQUALS   TRUNX                                 #   (1)
003513: E7,1426  E7,1604               UBAR0              EQUALS   TRUNX      +1
003514: E7,1426  E7,1612               UBAR1              EQUALS   UBAR0      +6
003515: E7,1426  E7,1620               UBAR2              EQUALS   UBAR1      +6
003516: E7,1426  E7,1626               RZC                EQUALS   UBAR2      +6
003517: E7,1426  E7,1634               VZC                EQUALS   RZC        +6
003518: E7,1426  E7,1642               UCLSTAR            EQUALS   VZC        +6
003519: E7,1426  E7,1650               USSTAR             EQUALS   UCLSTAR    +6
003520: E7,1426  E7,1656               SRRETURN           EQUALS   USSTAR     +6
003521:
003522:                                                                                                  #  Page 122
003523:                                                                                                  #  *-*-*-*- OVERLAY NUMBER 3 IN EBANK 7 -*-*-*-*
003524:
003525:                                                                                                  #  RENDEZVOUS GUIDANCE STORAGE. -- P32 ... P35 --        (8D)
003526: E7,1426  E7,1447               DELTEEO            EQUALS   END-KALC                              #  I(2) S-S BACK VALUES OF DELTA TIME
003527: E7,1426  E7,1451               DELEL              EQUALS   DELTEEO    +2                         #  I(2) S-S
003528: E7,1426  E7,1453               SECMAX             EQUALS   DELEL      +2                         #  I(2) S-S MAX STOP SIZE FOR ROUTINE
003529: E7,1426  E7,1455               XXXALT             EQUALS   SECMAX     +2                         #  I(2)
003530:
003531:                                                                                                  #  S40.9 STORAGE                         (16D)
003532: E7,1426  E7,1457               VG                 EQUALS   XXXALT     +2                         #  I(6)TMP
003533: E7,1426  E7,1465               VRPREV             EQUALS   VG         +6                         #  I(6)
003534: E7,1426  E7,1473               TNIT               EQUALS   VRPREV     +6                         #  I(2)
003535: E7,1426  E7,1475               TNITPREV           EQUALS   TNIT       +2                         #  I(2)
003536:
003537:                                                                                                  #  S40.2,3 STORAGE.                      (1D)
003538: E7,1426  E7,1477               AXISCODE           EQUALS   TNITPREV   +2                         #  I(1)IN
003539:
003540:                                                                                                  #  P30'S-P17 COMMON STORAGE.             (24D)
003541: E7,1426  E7,1537               RACT3              EQUALS   GRP2SVQ    +1                         #  I(6)TMP POSITION OF ACTIE AT TPI TIME.
003542: E7,1426  E7,1545               VACT3              EQUALS   RACT3      +6                         #  I(6)TMP VELOCITY OF ACTIVE AT TPI TIME.
003543: E7,1426  E7,1553               RPASS3             EQUALS   VACT3      +6                         #  I(6)TMP POSITION OF PASSIVE AT TPI TIME.
003544: E7,1426  E7,1561               VPASS3             EQUALS   RPASS3     +6                         #  I(6)TMP VELOCITY OF PASSIVE AT TPI TIME.
003545:
003546:                                                                                                  #  P76, N84 DISPLAY                      (6D)
003547: E7,1426  E7,1537               DELVOV             EQUALS   RACT3                                 #  I(6)DSP NOUN 84 FOR X-V84, P34-35
003548:
003549:                                                                                                  #  INITVEL/MIDGIM STORAGE.               (34D)
003550:                                                                                                  #        (CALLED BY S34.1,2, S35.1,2, AND S40.9)
003551:                                                                                                  #        (CALLS LAMBERT, CONIC SUBROUTINES)
003552: E7,1426  E7,1567               RINIT              EQUALS   VPASS3     +6                         #  I(6)IN ACTIVE VEHICLE RADIUS VECTOR
003553: E7,1426  E7,1575               VINIT              EQUALS   RINIT      +6                         #  I(6)IN ACTIVE VEHICLE VELOCITY VECTOR
003554: E7,1426  E7,1603               RTARG1             EQUALS   VINIT      +6                         #  I(6)TMP SHIFTED RTARG
003555: E7,1426  E7,1611               VIPRIME            EQUALS   RTARG1     +6                         #  I(6)OUT NEW VEL REQ AT INITIAL RADIUS
003556: E7,1426  E7,1617               VTPRIME            EQUALS   VIPRIME    +6                         #  I(6)OUT TOTAL VELOCITY AT DESIRED RADIUS
003557: E7,1426  E7,1625               +MGA               EQUALS   VTPRIME    +6                         #  I(2)DSP NOUN 45 FOR P30,34,35.  +MID GIM.
003558: E7,1426  E7,1627               COZY4              EQUALS   +MGA       +2                         #  I(2)TMP COSINE OF ANGLE WHEN ROT STARTS
003559:
003560:                                                                                                  #  THE FOLLOWING OVERLAYS MEASUREMENT INCORP AND CANNOT SHARE WITH TPI
003561:                                                                                                  #  Page 123
003562: E7,1426  E7,1502               INTIME             EQUALS   AXISCODE   +3
003563: E7,1426  E7,1504               ITCTR              EQUALS   INTIME     +2                         #  I(1)TMP ITERATION COUNTER
003564: E7,1426  E7,1631               END-IN/M           EQUALS   COZY4      +2                         #  ** NEXT AVAIL LOC AFTER INITVEL/MIDGIM **
003565:
003566:                                                                                                  #  P34 AND P33 STORAGE.  (OVERLAYS INITVEL/MIDGIM)       (24D)
003567: E7,1426  E7,1567               VAPREC             EQUALS   RINIT                                 #  I(6) S-S PREC VEC FOR NOM TPI TIME (ACT V)
003568: E7,1426  E7,1575               RAPREC             EQUALS   VINIT                                 #  I(6) S-S PREC VEC FOR NOM TPI TIME (ACT V)
003569: E7,1426  E7,1611               VPPREC             EQUALS   VIPRIME                               #  I(6) S-S PREC VEC FOR NOM TPI TIME (PASS)
003570: E7,1426  E7,1617               RPPREC             EQUALS   VTPRIME                               #  I(6) S-S PREC VEC FOR NOM TPI TIME (PASS)
003571:
003572:                                                                                                  #  P30, P40 INTERFACE.                   (20D)
003573: E7,1426  E7,1631               RTIG               EQUALS   END-IN/M                              #  I(6)TMP
003574: E7,1426  E7,1637               VTIG               EQUALS   RTIG       +6                         #  I(6)TMP
003575: E7,1426  E7,1645               DELVSIN            EQUALS   VTIG       +6                         #  I(6)TMP
003576: E7,1426  E7,1645               DELVEET3           EQUALS   DELVSIN                               #      TMP DELTA VEL VECT INERTIAL COORDS.
003577: E7,1426  E7,1645               VGTEMP             EQUALS   DELVEET3
003578: E7,1426  E7,1653               DELVSAB            EQUALS   DELVSIN    +6                         #  I(2)TMP
003579:
003580:                                                                                                  #  P35-P40 INTERFACE STORAGE.  (OVERLAYS P30-P40 I/F STORAGE)    (12D)
003581: E7,1426  E7,1631               RPASS4             EQUALS   RTIG                                  #  I(6)TMP POSITION OF PASSIVE AT INTERCEPT
003582: E7,1426  E7,1637               VPASS4             EQUALS   RPASS4     +6                         #  I(6)TMP VELOCITY OF PASSIVE AT INTERCEPT
003583:
003584:                                                                                                  #  TPI SEARCH (P17)                      (6D)
003585: E7,1426  E7,1645               E2                 EQUALS   VPASS4     +6                         #  I(6)TMP
003586:
003587:                                                                                                  #  P30-P40 COMMON STORAGE.               (3D)
003588: E7,1426  E7,1655               TPASS4             EQUALS   DELVSAB    +2                         #  I(2)TMP
003589: E7,1426  E7,1655               TINT               =        TPASS4                                #  I(2)
003590: E7,1426  E7,1657               QTEMP              EQUALS   TPASS4     +2                         #  I(1)TMP
003591:
003592:                                                                                                  #  P30-P40 STORAGE.                      (4D)
003593: E7,1426  E7,1660               TTOGO              EQUALS   QTEMP      +1                         #  B(2)DSP NOUN 35,40,45,59,99
003594:                                                                                                  #          FOR P30,34,35,40,41,47, R30.
003595: E7,1426  E7,1662               TTPI               EQUALS   TTOGO      +2                         #  B(2)DSP NOUN 37 FOR P34 TPI TIME, CSECS.
003596:                                                                                                  #  Page 124
003597: E7,1426  E7,1664               END-P30S           EQUALS   TTPI       +2                         #  ** NEXT AVAIL LOC AFTER P30-40 STORAGE. **
003598:
003599:                                                                                                  #  P40 STORAGE.                          (8D)
003600: E7,1426  E7,1664               VGBODY             EQUALS   END-P30S                              #  B(6)DSP NOUN 85 FOR P40,41,42 VG-SC COOR
003601: E7,1426  E7,1664               DELVCTL            =        VGBODY
003602: E7,1426  E7,1672               P40TMP             EQUALS   VGBODY     +6                         #  B(2)TMP
003603:
003604:                                                                                                  #  P47 STORAGE.
003605: E7,1426  E7,1457               DV47TEMP           EQUALS   VG
003606: E7,1426  E7,1674               DELVIMU            EQUALS   P40TMP     +2                         #  I(6)DSP NOUN 83 FOR P47 DELTAV(IMU).
003607:
003608:                                                                                                  #  S40.1 STORAGE.                        (23D)
003609: E7,1426  E7,1702               CSTEER             EQUALS   DELVIMU    +6                         #  I(2)IN
003610: E7,1426  E7,1704               BDT                EQUALS   CSTEER     +2                         #  I(6)IN
003611: E7,1426  E7,1712               UT                 EQUALS   BDT        +6                         #  I(6)OUT THRUST DIRECTION
003612: E7,1426  E7,1720               VGTIG              EQUALS   UT         +6                         #  I(6)OUT
003613: E7,1426  E7,1720               VGPREV             =        VGTIG
003614: E7,1426  E7,1726               F                  EQUALS   VGTIG      +6                         #  I(2)OUT S40.3 NEEDS THIS
003615:
003616: E7,1426  E7,1730               QTEMP1             EQUALS   F          +2                         #  I(1)TMP HOLDS RETURN
003617:
003618:                                                                                                  #  R41                                   (2D)
003619: E7,1426  E7,1731               T-TO-ADD           EQUALS   QTEMP1     +1                         #  I(1D) FOR MIDTOAVE
003620:
003621:                                                                                                  #  Page 125
003622:                                                                                                  #  *-*-*-*- OVERLAY NUMBER 4 IN EBANK 7 -*-*-*-*
003623:
003624:                                                                                                  #  S35.1 STORAGE.                        (2D)
003625: E7,1426  E7,1664               TSTRT              EQUALS   END-P30S                              #  I(2)IN MIDCOURSE START TIME
003626:
003627:                                                                                                  #  S34.1 STORAGE.  (OVERLAYS S35.1 STORAGE)      (1)
003628: E7,1426  E7,1664               TITER              EQUALS   TSTRT                                 #  I(1)TMP ITERATION COUNTER
003629:
003630:                                                                                                  #  (P30-31 Q-SAVES)                      (1)
003631: E7,1426  E7,1664               P30/31RT           EQUALS   TITER                                 #  B(1) RETURN POINT
003632:
003633:                                                                                                  #  P22 STORAGE.                          (6D)
003634: E7,1426  E7,1666               S22WUNL            EQUALS   TSTRT      +2                         #  1     WUNL W8 UNKNOWN INIT VALUE.
003635: E7,1426  E7,1667               S22TOFF            EQUALS   S22WUNL    +1                         #  2     T SUB OFF
003636: E7,1426  E7,1671               S22TPRIM           EQUALS   S22TOFF    +2                         #  2     SAVE TF
003637: E7,1426  E7,1673               S22EORM            EQUALS   S22TPRIM   +2                         #  0 = EARTH -- NON-ZERO = MOON
003638:
003639:                                                                                                  #  DOWNLINK ERASABLES FOR P22, P20 MARK DATA.    (8D)
003640: E7,1426  E7,1674               MARKDOWN           EQUALS   S22EORM    +1                         #  B(1)
003641: E7,1426  E7,1703               RM                 EQUALS   S22RTNEX                              #  DOWNLINK OF VHF RANGE
003642:
003643:                                                                                                  #  S22.1                                 (1D)
003644: E7,1426  E7,1703               S22RTNEX           EQUALS   MARKDOWN   +7                         #  B(1)
003645:
003646:                                                                                                  #  P22 STORAGE                           (6D)
003647: E7,1426  E7,1704               STARSAV3           EQUALS   S22RTNEX   +1                         #  I(6)TMP
003648:
003649:                                                                                                  #  CRS61.1 STORAGE.  --A SUBSET OF P20-- (14D)
003650: E7,1426  E7,1704               Q611               EQUALS   RM         +1                         #  I(1)TMP QSAVE
003651: E7,1426  E7,1705               Q6111              EQUALS   Q611       +1                         #  I(1)TMP QSAVE
003652: E7,1426  E7,1706               SAVEPOS            EQUALS   Q6111      +1                         #  I(6)TMP LEM POSITION VECTOR
003653:                                                                                                  #  Page 126
003654: E7,1426  E7,1714               SAVEVEL            EQUALS   SAVEPOS    +6                         #  I(6)TMP LEM VELOCITY VECTOR
003655:
003656:                                                                                                  #  ATTITUDE MANEUVER -- CALLED BY P20,R61,R63,CRS61.1    (3D)
003657: E7,1426  E7,1722               PRAXIS             EQUALS   SAVEVEL    +6                         #  B(3) S-S DISP RES FOR PREF AXIS N95.
003658:
003659:                                                                                                  #  MARK ROUTINE (R21) STORAGE.  -- IS SUBSET OF R22 --   (14D)
003660: E7,1426  E7,1725               MRKBUF1            EQUALS   PRAXIS     +3                         #  B(7)TMP R21 MARK BUFFER.
003661: E7,1426  E7,1734               MRKBUF2            EQUALS   MRKBUF1    +7                         #  B(7)TMP R21 MARK BUFFER.
003662:
003663:                                                                                                  #  MORE CONICS STORAGE.                  (4)
003664: E7,1426                        COGA               EQUALS   3774                                  #  I(2) COTAN OF INITIAL FLIGHT PATH ANGLE
003665: E7,1426  0003774               INDEP              EQUALS   COGA                                  #  I(1) USED BY SUBROUTINE 'ITERATOR'
003666: E7,1426  0003776               EPSILONL           EQUALS   COGA       +2                         #  I(2)TMP
003667:
003668:                                                                                                  #  RENDEZVOUS GUIDANCE STORAGE.  -- P32...P35 -- (10D)
003669: E7,1426  E7,1743               ELEV               EQUALS   MRKBUF2    +7                         #  I(2)TMP
003670: E7,1426  E7,1745               RTX1               EQUALS   ELEV       +2                         #   (1)
003671: E7,1426  E7,1746               RTX2               EQUALS   RTX1       +1                         #   (1)
003672: E7,1426  E7,1747               RTMU               EQUALS   RTX2       +1                         #   (2)
003673: E7,1426  E7,1751               RTSR1/MU           EQUALS   RTMU       +2                         #   (2)
003674: E7,1426  E7,1753               CENTANG            EQUALS   RTSR1/MU   +2                         #  I(2) S-S CENTRAL ANGLE COVERED (TPI-TFF)
003675:
003676:                                                                                                  #  TPI SEARCH (S17.1, S17.2) P17 STORAGE.(10D)
003677: E7,1426  E7,1743               DELTEE             EQUALS   MRKBUF2    +7                         #  I(2)
003678: E7,1426  E7,1745               XRS                EQUALS   DELTEE     +2                         #  I(2)
003679: E7,1426  E7,1747               THETL              EQUALS   XRS        +2                         #  I(2)
003680: E7,1426  E7,1751               TF                 EQUALS   THETL      +2                         #  I(2)
003681: E7,1426  E7,1753               DELHITE            EQUALS   TF         +2                         #   (2)
003682:
003683:                                                                                                  #  Page 127
003684:                                                                                                  #  *-*-*-*- OVERLAY NUMBER 5 IN EBANK 7 -*-*-*-*
003685:
003686:                                                                                                  #  P17,P34                               (2D)
003687: E7,1426  E7,1765               NN1                =        NN                                    #  I(2)DSP NOUN 55,R1
003688:
003689:                                                                                                  #  ********* THE FOLLOWING ARE FOR FLIGHT 504 ONLY *************
003690:
003691:                                                                                                  #  RETURN-TO-EARTH STORAGE.              (93D)
003692: E7,1426  E7,1631               RTEDVD             EQUALS   END-IN/M                              #  I(2)IN DELTA VELOCITY DESIRED         M/CS B7
003693: E7,1426  E7,1633               RTEGAM2D           EQUALS   RTEDVD     +2                         #  I(2)IN REENTRY ANGLE DESIRED          REVS B0
003694: E7,1426  E7,1635               RCON               EQUALS   RTEGAM2D   +2                         #  I(2)TMP CONIC R2 RADIUS               M B29
003695: E7,1426  E7,1637               R(T1)/             EQUALS   RCON       +2                         #  I(6)TMP POSITION VECTOR AT TIG        M B29/B27
003696: E7,1426  E7,1645               R(T1)              EQUALS   R(T1)/     +6                         #  I(2)TMP MAGNITUDE OF R(T1)/           M B29/B27
003697: E7,1426  E7,1647               DT21PR             EQUALS   R(T1)      +2                         #  I(2)TMP PREVIOUS DT21                 CS B30
003698: E7,1426  E7,1651               MAMAX1             EQUALS   DT21PR     +2                         #  I(2)TMP MAJ AXIS LOW BOUND LMT        M B30
003699: E7,1426  E7,1653               MAMAX2             EQUALS   MAMAX1     +2                         #  I(2)TMP MAJ AXIS UP BOUND LMT         M B30
003700: E7,1426  E7,1655               R(T2)/             EQUALS   MAMAX2     +2                         #  I(6)TMP FINAL POSITION VECTOR         M B29/B27
003701: E7,1426  E7,1663               RD                 EQUALS   R(T2)/     +6                         #  I(2)TMP FINAL R DESIRED               M B29/B27
003702: E7,1426  E7,1665               DRCON              EQUALS   RD         +2                         #  I(2)TMP RCON SLOPE ITERATOR           M B29/B27
003703: E7,1426  E7,1667               RPRE'              EQUALS   DRCON      +2                         #  I(2)TMP PREVIOUS RPRE                 M B29/B27
003704: E7,1426  E7,1671               V(T1)/             EQUALS   RPRE'      +2                         #  I(6)TMP VEL VECTOR AT TIG             M/CS B7/B5
003705: E7,1426  E7,1677               V2(T1)/            EQUALS   V(T1)/     +6                         #  I(6)TMP POST IMP VEL AT TIG           M/CS B7/B5
003706: E7,1426  E7,1705               DV                 EQUALS   V2(T1)/    +6                         #  I(2)TMP DELTA VELOCITY AT TIG         M/CS B7/B5
003707: E7,1426  E7,1707               V(T2)/             EQUALS   DV         +2                         #  I(6)TMP FINAL VELOCITY VECTOR         M/CS B7/B5
003708: E7,1426  E7,1715               T1                 EQUALS   V(T2)/     +6                         #  I(2)TMP INITIAL VECTOR TIME           CS B28
003709: E7,1426  E7,1717               PCON               EQUALS   T1         +2                         #  I(2)TMP SEMI-LATUS RECTUM             M B29
003710: E7,1426  E7,1721               X(T1)              EQUALS   PCON       +2                         #  I(2)TMP COTANGENT GAMMA1              B5
003711: E7,1426  E7,1723               T12                EQUALS   X(T1)      +2                         #  I(2)TMP INIT TO FINAL POSIT TIME      CS B28
003712: E7,1426  E7,1725               DELTAT             EQUALS   T12        +2                         #  I(2)TMP DELTA T IN SAVE PERILUNE      CS B28
003713: E7,1426  E7,1727               NN1A               EQUALS   DELTAT     +2                         #  I(2)TMP ITERATION COUNTER 1
003714: E7,1426  E7,1731               NN2                EQUALS   NN1A       +2                         #  I(2)TMP ITERATION COUNTER 2
003715: E7,1426  E7,1733               RTENCKEX           EQUALS   NN2        +2                         #  I(1)TMP RTENCK RETURN ADDRESS
003716: E7,1426  E7,1734               CONICX1            EQUALS   RTENCKEX   +1                         #  I(1)TMP CONICS MU TABLE INDEX
003717: E7,1426  E7,1735               T2                 EQUALS   CONICX1    +1                         #  I(2)TMP FINAL TIME                    CS B28
003718: E7,1426  E7,1737               UR1/               EQUALS   T2         +2                         #  I(6)TMP UNIT R(T1)/                   B1
003719: E7,1426  E7,1745               UV1/               EQUALS   UR1/       +6                         #  I(6)TMP UNIT V(T1)/                   B1
003720: E7,1426  E7,1753               BETA1              EQUALS   UV1/       +6                         #  I(2)TMP 1+X(T2)**2                    B1
003721: E7,1426  E7,1755               P(T1)              EQUALS   BETA1      +2                         #  I(1)TMP PRIMARY BODY STATE TIME 1     B14
003722: E7,1426  E7,1756               CFPA               EQUALS   P(T1)      +1                         #  I(2)TMP COSINE FLIGHT PATH ANGLE      B1
003723: E7,1426  E7,1760               PHI2               EQUALS   CFPA       +2                         #  I(2)TMP PERI OR APO INDICATOR         B2
003724: E7,1426  E7,1762               SPRTEX             EQUALS   PHI2       +2                         #  I(1)TMP ROUTINE RETURN ADDRESS
003725: E7,1426  E7,1763               VNSTORE            EQUALS   SPRTEX     +1                         #  I(1)TMP VERBNOUN STORAGE
003726: E7,1426  E7,1764               BETA12             EQUALS   VNSTORE    +1                         #  I(2)TMP SIGN FOR TIMERAD
003727:
003728:                                                                                                  #  OVERLAYS WITHIN RETURN-TO-EARTH STORAGE.
003729:                                                                                                  #  Page 128
003730: E7,1426                        RPRE               EQUALS   24D                                   #  I(2)TMP COMPUTED PREC RADIUS          M B29/B27
003731: E7,1426                        P/RPRE             EQUALS   26D                                   #  I(2)TMP P/R                           B4
003732: E7,1426                        R/APRE             EQUALS   28D                                   #  I(2)TMP R/A                           B6
003733: E7,1426  E7,1723               X(T2)PRE           EQUALS   T12                                   #  I(2)TMP PREC COTAN GAMMA2             B0
003734: E7,1426  E7,1725               X(T2)              EQUALS   DELTAT                                #  I(2)TMP COTAN GAMMA2                  B0
003735: E7,1426  E7,1745               UH/                EQUALS   UV1/                                  #  I(2)TMP UNIT HORIZONTAL VECTOR.       B1
003736: E7,1426  E7,1412               SPRTETIG           EQUALS   TIG                                   #  I(2)IN TIME OF IGNITION               CS B28
003737:
003738:                                                                                                  #  Page 129
003739:                                                                                                  #  *-*-*-*- OVERLAY 6 IN EBANK 7 -*-*-*-*
003740:                                                                                                  #  P32,P33
003741:
003742:                                                                                                  #  THE FOLLOWING OVERLAY MEAS. INCORP. ARE AND IN USE ONLY WHEN (32D)
003743: E7,1426  E7,1457               POSTCSI            EQUALS   VG                                    #  I(2)
003744: E7,1426  E7,1461               DELVCSI            EQUALS   POSTCSI    +2                         #  I(2)
003745: E7,1426  E7,1463               DELDV              EQUALS   DELVCSI    +2                         #  I(2)
003746: E7,1426  E7,1465               GAMPREV            EQUALS   DELDV      +2                         #  I(2)
003747: E7,1426  E7,1467               DVPREV             EQUALS   GAMPREV    +2                         #  I(2)
003748: E7,1426  E7,1471               POSTCDH            EQUALS   DVPREV     +2                         #  I(2)
003749: E7,1426  E7,1471               HAFPA1             EQUALS   POSTCDH
003750: E7,1426  E7,1473               VACT4              EQUALS   POSTCDH    +2                         #  I(6)
003751: E7,1426  E7,1501               RDOTV              EQUALS   VACT4      +6                         #  I(2)
003752: E7,1426  E7,1503               VACT1              EQUALS   RDOTV      +2                         #  I(6)
003753: E7,1426  E7,1511               VPASS1             EQUALS   VACT1      +6                         #  I(6) VEL. PASSIVE VEH. AT CSI TIME
003754:
003755: E7,1426  E7,1545               UNVEC              EQUALS   VACT3
003756:
003757: E7,1426  E7,1655               T2TOT3             EQUALS   TPASS4                                #  I(2) TPI - TCDH
003758:
003759: E7,1426  E7,1664               CSIALRM            EQUALS   TITER                                 #  I(2) ALARM INDEX
003760:
003761: E7,1426  E7,1666               DELVEET2           EQUALS   S22WUNL                               #  I(6) VACT3 - VACT2 = DVCDH REF. COORD.
003762:
003763:                                                                                                  #  ADDITIONAL CSI - CDH STORAGE.         (10D)
003764: E7,1426  E7,1755               RPASS1             EQUALS   CENTANG    +2                         #  I(6) POS. PASSIVE VEH. AT CSI TIME.
003765: E7,1426  E7,1763               LOOPCT             EQUALS   RPASS1     +6                         #  I(2) ITERATION COUNTER
003766: E7,1426  E7,1765               NN                 EQUALS   LOOPCT     +2                         #  I(2)
003767:
003768:                                                                                                  #  P21 STORAGE                           (19D)
003769: E7,1426  E7,1603               P21ORIG            EQUALS   TRUNX                                 #  I(1)
003770: E7,1426  E7,1604               P21BASER           EQUALS   P21ORIG    +1                         #  I(6)
003771: E7,1426  E7,1612               P21BASEV           EQUALS   P21BASER   +6                         #  I(6)
003772: E7,1426  E7,1620               P21ALT             EQUALS   P21BASEV   +6                         #  I(2) NOUN 73 R1 ALTITUDE
003773: E7,1426  E7,1622               P21VEL             EQUALS   P21ALT     +2                         #  I(2) NOUN 73 R2 VELOCITY
003774: E7,1426  E7,1624               P21GAM             EQUALS   P21VEL     +2                         #  I(2) NOUN 73 R3 FLIGHT PATH ANGLE
003775:
003776: E7,1426                        WHOCARES           EQUALS   3777                                  #  A DUMMY FOR E-BANK INSENSITIVE 2CADRS.
003777: E7,1426  0003777               END-E7             EQUALS   WHOCARES                              #  ***** LAST LOCATION IN E7
003778:
003779:                                                                                                  #  Page 130 ... is empty.
003780:

End of include-file ERASABLE_ASSIGNMENTS.agc.  Parent file is MAIN.agc


