
Source Code


000002:                                                                                                  #  Copyright:    Public domain.
000003:                                                                                                  #  Filename:     EXECUTIVE.agc
000004:                                                                                                  #  Purpose:      Part of the source code for Colossus 2A, AKA Comanche 055.
000005:                                                                                                  #                It is part of the source code for the Command Module's (CM)
000006:                                                                                                  #                Apollo Guidance Computer (AGC), for Apollo 11.
000007:                                                                                                  #  Assembler:    yaYUL
000008:                                                                                                  #  Contact:      Ron Burkey <info@sandroid.org>.
000009:                                                                                                  #  Website:      www.ibiblio.org/apollo.
000010:                                                                                                  #  Pages:        1208-1220
000011:                                                                                                  #  Mod history:  2009-05-14 RSB  Adapted from the Colossus249/ file of the
000012:                                                                                                  #                                same name, using Comanche055 page images.
000013:                                                                                                  #                2010-08-29 JL   Fixed indentation.
000014:                                                                                                  #                2011-05-08 JL   Removed workaround.
000015:
000016:                                                                                                  #  This source code has been transcribed or otherwise adapted from digitized
000017:                                                                                                  #  images of a hardcopy from the MIT Museum.  The digitization was performed
000018:                                                                                                  #  by Paul Fjeld, and arranged for by Deborah Douglas of the Museum.  Many
000019:                                                                                                  #  thanks to both.  The images (with suitable reduction in storage size and
000020:                                                                                                  #  consequent reduction in image quality as well) are available online at
000021:                                                                                                  #  www.ibiblio.org/apollo.  If for some reason you find that the images are
000022:                                                                                                  #  illegible, contact me at info@sandroid.org about getting access to the
000023:                                                                                                  #  (much) higher-quality images which Paul actually created.
000024:
000025:                                                                                                  #  Notations on the hardcopy document read, in part:
000026:
000027:                                                                                                  #        Assemble revision 055 of AGC program Comanche by NASA
000028:                                                                                                  #        2021113-051.  10:28 APR. 1, 1969
000029:
000030:                                                                                                  #        This AGC program shall also be referred to as
000031:                                                                                                  #                        Colossus 2A
000032:
000033:                                                                                                  #  Page 1208
000034:    5134                                           BLOCK    02
000035:
000036:                                                                                                  #  TO ENTER A JOB REQUEST REQUIRING NO VAC AREA:
000037:
000038:    5134                                           COUNT    02/EXEC
000039:
000040:    5134           00004        NOVAC              INHINT
000041:    5135           65226                           AD       FAKEPRET                              #  LOC(MPAC +6) - LOC(QPRET)
000042:    5136           54063                           TS       NEWPRIO                               #  PRIORITY OF NEW JOB + NOVAC C(FIXLOC)
000043:
000044:    5137           00006                           EXTEND
000045:    5140           50002                           INDEX    Q                                     #  Q WILL BE UNDISTURBED THROUGHOUT.
000046:    5141           30001                           DCA      0                                     #  2CADR OF JOB ENTERED.
000047:    5142           52066                           DXCH     NEWLOC
000048:    5143           35225                           CAF      EXECBANK
000049:    5144           56004                           XCH      FBANK
000050:    5145           54061                           TS       EXECTEM1
000051:    5146           12650                           TCF      NOVAC2                                #  ENTER EXECUTIVE BANK.
000052:
000053:                                                                                                  #  TO ENTER A JOB REQUEST REQUIREING A VAC AREA -- E.G., ALL (PARTIALLY) INTERPRETIVE JOBS.
000054:
000055:    5147           00004        FINDVAC            INHINT
000056:    5150           54063                           TS       NEWPRIO
000057:    5151           00006                           EXTEND
000058:    5152           50002                           INDEX    Q
000059:    5153           30001                           DCA      0
000060:    5154           52066        SPVACIN            DXCH     NEWLOC
000061:    5155           35225                           CAF      EXECBANK
000062:    5156           56004                           XCH      FBANK
000063:    5157           12626                           TCF      FINDVAC2                              #  OFF TO EXECUTIVE SWITCHED-BANK.
000064:
000065:                                                                                                  #  TO ENTER A FINDVAC WITH THE PRIORITY IN NEWPRIO TO THE 2CADR ARRIVING IN A AND L:
000066:                                                                                                  #  USERS OF SPVAC MUST INHINT BEFORE STORING IN NEWPRIO.
000067:
000068:    5160           56002        SPVAC              XCH      Q
000069:    5161           67715                           AD       NEG2
000070:    5162           56002                           XCH      Q
000071:    5163           15154                           TCF      SPVACIN
000072:
000073:                                                                                                  #  TO SUSPEND A BASIC JOB SO A HIGHER PRIORITY JOB MAY BE SERVICED:
000074:
000075:    5164           22002        CHANG1             LXCH     Q
000076:    5165           35225                           CAF      EXECBANK
000077:    5166           56006                           XCH      BBANK
000078:    5167           12727                           TCF      CHANJOB
000079:
000080:                                                                                                  #  TO SUSPEND AN INTERPRETIVE JOB:
000081:
000082:    5170           40164        CHANG2             CS       LOC                                   #  NEGATIVE LOC SHOWS JOB = INTERPRETIVE.
000083:                                                                                                  #  ITRACE (4) REFERS TO "CHANG2"
000084:                                                                                                  #  Page 1209
000085:    5171           54001                           TS       L
000086:    5172           35225                 +2        CAF      EXECBANK
000087:    5173           54006                           TS       BBANK
000088:    5174           12726                           TCF      CHANJOB    -1
000089:
000090:                                                                                                  #  Page 1210
000091:                                                                                                  #  TO VOLUNTARILY SUSPEND A JOB UNTIL THE COMPLETION OF SOME ANTICIPATED EVENT (I/O EVENT ETC.):
000092:
000093:    5175           54164        JOBSLEEP           TS       LOC
000094:    5176           35225                           CAF      EXECBANK
000095:    5177           54004                           TS       FBANK
000096:    5200           13017                           TCF      JOBSLP1
000097:
000098:                                                                                                  #  TO AWAKEN A JOB PUT TO SLEEP IN THE ABOVE FASHION:
000099:
000100:    5201           00004        JOBWAKE            INHINT
000101:    5202           54065                           TS       NEWLOC
000102:    5203           45016                           CS       TWO                                   #  EXIT IS VIA FINDVAC/NOVAC PROCEDURES.
000103:    5204           26002                           ADS      Q
000104:    5205           35225                           CAF      EXECBANK
000105:    5206           56004                           XCH      FBANK
000106:    5207           13044                           TCF      JOBWAKE2
000107:
000108:                                                                                                  #  TO CHANGE THE PRIORITY OF A JOB CURRENTLY UNDER EXECUTION:
000109:
000110:    5210           00004        PRIOCHNG           INHINT                                         #  NEW PRIORITY ARRIVES IN A.  RETURNS TO
000111:    5211           54063                           TS       NEWPRIO                               #  CALLER AS SOON AS NEW JOB PRIORITY IS
000112:    5212           35225                           CAF      EXECBANK                              #  HIGHEST.  PREPARE FOR POSSIBLE BASIC-
000113:    5213           56006                           XCH      BBANK                                 #  STYLE CHANGE-JOB.
000114:    5214           54165                           TS       BANKSET
000115:    5215           30002                           CA       Q
000116:    5216           13113                           TCF      PRIOCH2
000117:
000118:                                                                                                  #  TO REMOVE A JOB FROM EXECUTIVE CONSIDERATIONS:
000119:
000120:    5217           35225        ENDOFJOB           CAF      EXECBANK
000121:    5220           54004                           TS       FBANK
000122:    5221           13124                           TCF      ENDJOB1
000123:
000124:    5222           30061        ENDFIND            CA       EXECTEM1                              #  RETURN TO CALLER AFTER JOB ENTRY
000125:    5223           54004                           TS       FBANK                                 #  COMPLETE.
000126:    5224           16710                           TCF      Q+2
000127:    5225           02626        EXECBANK           CADR     FINDVAC2
000128:
000129:    5226           00110        FAKEPRET           ADRES    MPAC       -36D                       #  LOC(MPAC +6) - LOC(QPRET)
000130:
000131:                                                                                                  #  Page 1211
000132:                                                                                                  #  LOCATE AN AVAILABLE VAC AREA
000133:
000134: 01,2626                                           BANK     01
000135: 01,2626                                           COUNT    01/EXEC
000136:
000137: 01,2626           54061        FINDVAC2           TS       EXECTEM1                              #  (SAVE CALLER'S BANK FIRST.)
000138: 01,2627           10400                           CCS      VAC1USE
000139: 01,2630           12643                           TCF      VACFOUND
000140: 01,2631           10454                           CCS      VAC2USE
000141: 01,2632           12643                           TCF      VACFOUND
000142: 01,2633           10530                           CCS      VAC3USE
000143: 01,2634           12643                           TCF      VACFOUND
000144: 01,2635           10604                           CCS      VAC4USE
000145: 01,2636           12643                           TCF      VACFOUND
000146: 01,2637           10660                           CCS      VAC5USE
000147: 01,2640           12643                           TCF      VACFOUND
000148: 01,2641           07755                           TC       BAILOUT
000149: 01,2642           01201                           OCT      1201                                  #  NO VAC AREAS.
000150:
000151: 01,2643           65016        VACFOUND           AD       TWO                                   #  RESERVE THIS VAC AREA BY STORING A ZERO
000152: 01,2644           22007                           ZL                                             #  IN ITS VAC USE REGISTER AND STORE THE
000153: 01,2645           50000                           INDEX    A                                     #  ADDRESS OF THE FIRST WORD OF IT IN THE
000154: 01,2646           21777                           LXCH     0          -1                         #  LOW NINE BITS OF THE PRIORITY WORD.
000155: 01,2647           26063                           ADS      NEWPRIO
000156:
000157: 01,2650           35021        NOVAC2             CAF      ZERO                                  #  NOVAC ENTERS HERE.  FIND A CORE SET.
000158: 01,2651           54064                           TS       LOCCTR
000159: 01,2652           32657                           CAF      NO.CORES                              #  SEVEN SETS OF ELEVEN REGISTERS EACH.
000160: 01,2653           54062        NOVAC3             TS       EXECTEM2
000161: 01,2654           50064                           INDEX    LOCCTR
000162: 01,2655           10167                           CCS      PRIORITY                              #  EACH PRIORITY REGISTER CONTAINS -0 IF
000163: 01,2656           12717                           TCF      NEXTCORE                              #  THE CORESPONDING CORE SET IS AVAILABLE.
000164: 01,2657           00006        NO.CORES           DEC      6          B-14
000165: 01,2660           12717                           TCF      NEXTCORE                              #  AN ACTIVE JOB HAS A POSITIVE PRIORITY
000166:                                                                                                  #  BUT A DORMANT JOB'S PRIORITY IS NEGATIVE
000167:
000168:                                                                                                  #  Page 1212
000169: 01,2661           30063        CORFOUND           CA       NEWPRIO                               #  SET THE PRIORITY OF THIS JOB IN THE CORE
000170: 01,2662           50064                           INDEX    LOCCTR                                #  SET'S PRIORITY REGISTER AND SET THE
000171: 01,2663           54167                           TS       PRIORITY                              #  JOB'S PUSH-DOWN POINTER AT THE BEGINNING
000172: 01,2664           75046                           MASK     LOW9                                  #  OF THE WORK AREA AND OVERFLOW INDICATOR.
000173: 01,2665           50064                           INDEX    LOCCTR
000174: 01,2666           54166                           TS       PUSHLOC                               #  OFF TO PREPARE FOR INTERPRETIVE PROGRAMS.
000175:
000176: 01,2667           10064                           CCS      LOCCTR                                #  IF CORE SET ZERO IS BEING LOADED, SET UP
000177: 01,2670           12704                           TCF      SETLOC                                #  OVFIND AND FIXLOC IMMEDIATELY.
000178: 01,2671           54121                           TS       OVFIND
000179: 01,2672           30166                           CA       PUSHLOC
000180: 01,2673           54120                           TS       FIXLOC
000181:
000182: 01,2674           10067        SPECTEST           CCS      NEWJOB                                #  SEE IF ANY ACTIVE JOBS WAITING (RARE).
000183: 01,2675           12704                           TCF      SETLOC                                #  MUST BE AWAKENED OUT UNCHANGED JOB.
000184: 01,2676           05747                           TC       CCSHOLE
000185: 01,2677           05747                           TC       CCSHOLE
000186: 01,2700           54067                           TS       NEWJOB                                #  +0 SHOWS ACTIVE JOB ALREADY SET.
000187: 01,2701           52066                           DXCH     NEWLOC
000188: 01,2702           52165                           DXCH     LOC
000189: 01,2703           15222                           TCF      ENDFIND
000190:
000191: 01,2704           52066        SETLOC             DXCH     NEWLOC                                #  SET UP THE LOCATION REGISTERS FOR THIS
000192: 01,2705           50064                           INDEX    LOCCTR
000193: 01,2706           52165                           DXCH     LOC
000194: 01,2707           50067                           INDEX    NEWJOB                                #  THIS INDEX INSTRUCTION INSURES THAT THE
000195: 01,2710           40167                           CS       PRIORITY                              #  HIGHEST ACTIVE PRIORITY WILL BE COMPARED
000196: 01,2711           60063                           AD       NEWPRIO                               #  WITH THE NEW PRIORITY TO SEE IF NEWJOB
000197: 01,2712           00006                           EXTEND                                         #  SHOULD BE SET TO SIGNAL A SWITCH.
000198: 01,2713           65222                           BZMF     ENDFIND
000199: 01,2714           30064                           CA       LOCCTR                                #  LOCCTR IS LEFT SET AT THIS CORE SET IF
000200: 01,2715           54067                           TS       NEWJOB                                #  THE CALLER WANTS TO LOAD ANY MPAC
000201: 01,2716           15222                           TCF      ENDFIND                               #  REGISTERS, ETC.
000202:
000203: 01,2717           33054        NEXTCORE           CAF      COREINC
000204: 01,2720           26064                           ADS      LOCCTR
000205: 01,2721           10062                           CCS      EXECTEM2
000206: 01,2722           12653                           TCF      NOVAC3
000207: 01,2723           07755                           TC       BAILOUT                               #  NO CORE SETS.
000208: 01,2724           01202                           OCT      1202
000209:                                                                                                  #  Page 1213
000210:                                                                                                  #  THE FOLLOWING ROUTINE SWAPS CORE SET 0 WITH THAT WHOSE RELATIVE ADDRESS IS IN NEWJOB.
000211:
000212: 01,2725           22164                 -2        LXCH     LOC
000213: 01,2726           30165                 -1        CAE      BANKSET                               #  BANKSET, NOT BBANK, HAS RIGHT CONTENTS.
000214: 01,2727           00004        CHANJOB            INHINT
000215: 01,2730           00006                           EXTEND
000216: 01,2731           04007                           ROR      SUPERBNK                              #  PICK UP CURRENT SBANK FOR BBCON
000217: 01,2732           56001                           XCH      L                                     #  LOC IN A AND BBCON IN L.
000218: 01,2733           50067                 +4        INDEX    NEWJOB                                #  SWAP LOC AND BANKSET.
000219: 01,2734           52165                           DXCH     LOC
000220: 01,2735           52165                           DXCH     LOC
000221:
000222: 01,2736           30165                           CAE      BANKSET
000223: 01,2737           00006                           EXTEND
000224: 01,2740           01007                           WRITE    SUPERBNK                              #  SET SBANK FOR NEW JOB.
000225: 01,2741           52155                           DXCH     MPAC                                  #  SWAP MULTI-PURPOSE ACCUMULATOR AREAS.
000226: 01,2742           50067                           INDEX    NEWJOB
000227: 01,2743           52155                           DXCH     MPAC
000228: 01,2744           52155                           DXCH     MPAC
000229: 01,2745           52157                           DXCH     MPAC       +2
000230: 01,2746           50067                           INDEX    NEWJOB
000231: 01,2747           52157                           DXCH     MPAC       +2
000232: 01,2750           52157                           DXCH     MPAC       +2
000233: 01,2751           52161                           DXCH     MPAC       +4
000234: 01,2752           50067                           INDEX    NEWJOB
000235: 01,2753           52161                           DXCH     MPAC       +4
000236: 01,2754           52161                           DXCH     MPAC       +4
000237: 01,2755           52163                           DXCH     MPAC       +6
000238: 01,2756           50067                           INDEX    NEWJOB
000239: 01,2757           52163                           DXCH     MPAC       +6
000240: 01,2760           52163                           DXCH     MPAC       +6
000241:
000242: 01,2761           35021                           CAF      ZERO
000243: 01,2762           56121                           XCH      OVFIND                                #  MAKE PUSHLOC NEGATIVE IF OVFIND NZ.
000244: 01,2763           00006                           EXTEND
000245: 01,2764           12767                           BZF      +3
000246: 01,2765           40166                           CS       PUSHLOC
000247: 01,2766           54166                           TS       PUSHLOC
000248:
000249: 01,2767           52167                           DXCH     PUSHLOC
000250: 01,2770           50067                           INDEX    NEWJOB
000251: 01,2771           52167                           DXCH     PUSHLOC
000252: 01,2772           52167                           DXCH     PUSHLOC                               #  SWAPS PUSHLOC AND PRIORITY.
000253: 01,2773           35046                           CAF      LOW9                                  #  SET FIXLOC TO BASE OF VAC AREA.
000254: 01,2774           70167                           MASK     PRIORITY
000255: 01,2775           54120                           TS       FIXLOC
000256:
000257: 01,2776           10166                           CCS      PUSHLOC                               #  SET OVERFLOW INDICATOR ACCORDING TO
000258: 01,2777           35021                           CAF      ZERO
000259: 01,3000           13005                           TCF      ENDPRCHG   -1
000260:
000261:                                                                                                  #  Page 1214
000262: 01,3001           40166                           CS       PUSHLOC
000263: 01,3002           54166                           TS       PUSHLOC
000264: 01,3003           35017                           CAF      ONE
000265: 01,3004           56121                           XCH      OVFIND
000266: 01,3005           54067                           TS       NEWJOB
000267:
000268: 01,3006           00003        ENDPRCHG           RELINT
000269: 01,3007           52165                           DXCH     LOC                                   #  BASIC JOBS HAVE POSITIVE ADDRESSES, SO
000270: 01,3010           00006                           EXTEND                                         #  DISPATCH WITH A DTCB.
000271: 01,3011           63013                           BZMF     +2                                    #  IF INTERPRETIVE, SET UP EBANK, ETC.
000272: 01,3012           52006                           DTCB
000273:                                                                                                  #  Page 1215
000274: 01,3013           40000                           COM                                            #  EPILOGUE TO JOB CHANGE FOR INTERPRETIVE
000275: 01,3014           65017                           AD       ONE
000276: 01,3015           54164                           TS       LOC                                   #  RESUME
000277: 01,3016           16017                           TCF      INTRSM
000278:
000279:                                                                                                  #  COMPLETE JOBSLEEP PREPARATIONS.
000280:
000281: 01,3017           00004        JOBSLP1            INHINT
000282: 01,3020           40167                           CS       PRIORITY                              #  NNZ PRIORITY SHOWS JOB ASLEEP.
000283: 01,3021           54167                           TS       PRIORITY
000284: 01,3022           36043                           CAF      LOW7
000285: 01,3023           70006                           MASK     BBANK
000286: 01,3024           00006                           EXTEND
000287: 01,3025           04007                           ROR      SUPERBNK                              #  SAVE OLD SUPERBANK VALUE.
000288: 01,3026           54165                           TS       BANKSET
000289: 01,3027           45021                           CS       ZERO
000290: 01,3030           54131        JOBSLP2            TS       BUF        +1                         #  HOLDS -- HIGHEST PRIORITY.
000291: 01,3031           13141                           TCF      EJSCAN                                #  SCAN FOR HIGHEST PRIORITY ALA ENDOFJOB.
000292:
000293: 01,3032           00004        NUCHANG2           INHINT                                         #  QUICK... DON'T LET NEWJOB CHANGE TO +0.
000294: 01,3033           10067                           CCS      NEWJOB
000295: 01,3034           13037                           TCF      +3                                    #  NEWJOB STILL PNZ
000296: 01,3035           00003                           RELINT                                         #  NEW JOB HAS CHANGED TO +0.  WAKE UP JOB
000297: 01,3036           13233                           TCF      ADVAN      +2                         #  VIA NUDIRECT.  (VERY RARE CASE.)
000298:
000299: 01,3037           35016                           CAF      TWO
000300: 01,3040           00006                           EXTEND
000301: 01,3041           05011                           WOR      DSALMOUT                              #  TURN ON ACTIVITY LIGHT
000302: 01,3042           52165                           DXCH     LOC                                   #  AND SAVE ADDRESS INFO FOR BENEFIT OF
000303: 01,3043           12733                           TCF      CHANJOB    +4                         #        POSSIBLE SLEEPING JOB.
000304:
000305:                                                                                                  #  Page 1216
000306:                                                                                                  #  TO WAKE UP A JOB, EACH CORE SET IS FOUND TO LOCATE ALL JOBS WHICH ARE ASLEEP.  IF THE FCADR IN THE
000307:                                                                                                  #  LOC REGISTER OF ANY SUCH JOB MATCHES THAT SUPPLIED BY THE CALLER, THAT JOB IS AWAKENED.  IF NO JOB IS FOUND,
000308:                                                                                                  #  LOCCTR IS SET TO -1 AND NO FURTHER ACTION TAKES PLACE.
000309:
000310: 01,3044           54061        JOBWAKE2           TS       EXECTEM1
000311: 01,3045           35021                           CAF      ZERO                                  #  BEGIN CORE SET SCAN
000312: 01,3046           54064                           TS       LOCCTR
000313: 01,3047           32657                           CAF      NO.CORES
000314: 01,3050           54062        JOBWAKE4           TS       EXECTEM2
000315: 01,3051           50064                           INDEX    LOCCTR
000316: 01,3052           10167                           CCS      PRIORITY
000317: 01,3053           13056                           TCF      JOBWAKE3                              #  ACTIVE JOB -- CHECK NEXT CORE SET.
000318: 01,3054           00014        COREINC            DEC      12         B-14                       #  12 REGISTERS PER CORE SET.
000319: 01,3055           13065                           TCF      WAKETEST                              #  SLEEPING JOB -- SEE IF CADR MATCHES.
000320:
000321: 01,3056           33054        JOBWAKE3           CAF      COREINC
000322: 01,3057           26064                           ADS      LOCCTR
000323: 01,3060           10062                           CCS      EXECTEM2
000324: 01,3061           13050                           TCF      JOBWAKE4
000325: 01,3062           45017                           CS       ONE                                   #  EXIT IF SLEEPIG JOB NOT FOUND.
000326: 01,3063           54064                           TS       LOCCTR
000327: 01,3064           15222                           TCF      ENDFIND
000328:
000329: 01,3065           40065        WAKETEST           CS       NEWLOC
000330: 01,3066           50064                           INDEX    LOCCTR
000331: 01,3067           60164                           AD       LOC
000332: 01,3070           00006                           EXTEND
000333: 01,3071           13073                           BZF      +2                                    #  IF MATCH.
000334: 01,3072           13056                           TCF      JOBWAKE3                              #  EXAMINE NEXT CORE SET IF NO MATCH.
000335:
000336: 01,3073           50064                           INDEX    LOCCTR                                #  RE-COMPLEMENT PRIORITY TO SHOW JOB AWAKE
000337: 01,3074           40167                           CS       PRIORITY
000338: 01,3075           54063                           TS       NEWPRIO
000339: 01,3076           50064                           INDEX    LOCCTR
000340: 01,3077           54167                           TS       PRIORITY
000341:
000342: 01,3100           44364                           CS       FBANKMSK                              #  MASK UP THE 2CADR OF THE WAKE ADDRESS
000343: 01,3101           70065                           MASK     NEWLOC                                #  USING THE CADR IN NEWLOC AND THE EBANK
000344: 01,3102           65005                           AD       2K                                    #  HALF OF BBANK SAVED IN BANKSET.
000345: 01,3103           56065                           XCH      NEWLOC
000346: 01,3104           74364                           MASK     FBANKMSK
000347: 01,3105           50064                           INDEX    LOCCTR
000348: 01,3106           60165                           AD       BANKSET
000349: 01,3107           54066                           TS       NEWLOC     +1
000350:
000351: 01,3110           10064                           CCS      LOCCTR                                #  SPECIAL TREATMENT IF THIS JOB WAS
000352: 01,3111           12704                           TCF      SETLOC                                #  ALREADY IN THE RUN (0) POSITION.
000353: 01,3112           12674                           TCF      SPECTEST
000354:
000355:                                                                                                  #  Page 1217
000356:                                                                                                  #  PRIORITY CHANGE.  CHANGE THE CONTENTS OF PRIORITY AND SCAN FOR THE JOB OF HIGHEST PRIORITY.
000357:
000358: 01,3113           54164        PRIOCH2            TS       LOC
000359: 01,3114           35021                           CAF      ZERO                                  #  SET FLAG TO TELL ENDJOB SCANNER IF THIS
000360: 01,3115           54130                           TS       BUF                                   #  JOB IS STILL HIGHEST PRIORITY.
000361: 01,3116           35046                           CAF      LOW9
000362: 01,3117           70167                           MASK     PRIORITY
000363: 01,3120           60063                           AD       NEWPRIO
000364: 01,3121           54167                           TS       PRIORITY
000365: 01,3122           40000                           COM
000366: 01,3123           13030                           TCF      JOBSLP2                               #  AND TO EJSCAN.
000367:
000368:                                                                                                  #  Page 1218
000369:                                                                                                  #  RELEASE THIS CORE SET AND VAC AREA AND SCAN FOR THE JOB OF HIGHEST ACTIVE PRIORITY.
000370:
000371: 01,3124           00004        ENDJOB1            INHINT
000372: 01,3125           45021                           CS       ZERO
000373: 01,3126           54131                           TS       BUF        +1
000374: 01,3127           56167                           XCH      PRIORITY
000375: 01,3130           75046                           MASK     LOW9
000376: 01,3131           54001                           TS       L
000377:
000378: 01,3132           45226                           CS       FAKEPRET
000379: 01,3133           60001                           AD       L
000380:
000381: 01,3134           00006                           EXTEND
000382: 01,3135           63141                           BZMF     EJSCAN                                #  NOVAC ENDOFJOB
000383:
000384: 01,3136           10001                           CCS      L
000385: 01,3137           50000                           INDEX    A
000386: 01,3140           54000                           TS       0
000387:
000388: 01,3141           10203        EJSCAN             CCS      PRIORITY   +12D
000389: 01,3142           03206                           TC       EJ1
000390: 01,3143           05747                           TC       CCSHOLE
000391: 01,3144           13145                           TCF      +1
000392:
000393: 01,3145           10217                           CCS      PRIORITY   +24D                       #  EXAMINE EACH PRIORITY REGISTER TO FIND
000394: 01,3146           03206                           TC       EJ1                                   #  THE JOB OF HIGHEST ACTIVE PRIORITY.
000395: 01,3147           05747                           TC       CCSHOLE
000396: 01,3150           13151                           TCF      +1
000397:
000398: 01,3151           10233                           CCS      PRIORITY   +36D
000399: 01,3152           03206                           TC       EJ1
000400: 01,3153           67610        -CCSPR             -CCS     PRIORITY
000401: 01,3154           13155                           TCF      +1
000402:
000403: 01,3155           10247                           CCS      PRIORITY   +48D
000404: 01,3156           03206                           TC       EJ1
000405: 01,3157           05747                           TC       CCSHOLE
000406: 01,3160           13161                           TCF      +1
000407:
000408: 01,3161           10263                           CCS      PRIORITY   +60D
000409: 01,3162           03206                           TC       EJ1
000410: 01,3163           05747                           TC       CCSHOLE
000411: 01,3164           13165                           TCF      +1
000412:
000413: 01,3165           10277                           CCS      PRIORITY   +72D
000414: 01,3166           03206                           TC       EJ1
000415: 01,3167           05747                           TC       CCSHOLE
000416: 01,3170           13171                           TCF      +1
000417:
000418:                                                                                                  #  Page 1219
000419:                                                                                                  #  EVALUATE THE RESULTS OF THE SCAN.
000420:
000421: 01,3171           10131                           CCS      BUF        +1                         #  SEE IF THERE ARE ANY ACTIVE JOBS WAITING
000422: 01,3172           05747                           TC       CCSHOLE
000423: 01,3173           05747                           TC       CCSHOLE
000424:
000425: 01,3174           13176                           TCF      +2
000426: 01,3175           13223                           TCF      DUMMYJOB
000427: 01,3176           10130                           CCS      BUF                                   #  BUF IS ZERO IS THIS IS A PRIOCHNG AND
000428: 01,3177           13201                           TCF      +2                                    #  CHANGED PRIORITY IS STILL HIGHEST.
000429: 01,3200           13005                           TCF      ENDPRCHG   -1
000430:
000431: 01,3201           50000                           INDEX    A                                     #  OTHERWISE, SET NEWJOB TO THE RELATIVE
000432: 01,3202           27777                           CAF      0          -1                         #  ADDRESS OF THE NEW JOB'S CORE SET.
000433: 01,3203           63153                           AD       -CCSPR
000434: 01,3204           54067                           TS       NEWJOB
000435: 01,3205           12725                           TCF      CHANJOB    -2
000436:
000437: 01,3206           54132        EJ1                TS       BUF        +2
000438: 01,3207           60131                           AD       BUF        +1                         #  - OLD HIGH PRIORITY.
000439: 01,3210           10000                           CCS      A
000440: 01,3211           40132                           CS       BUF        +2
000441: 01,3212           13216                           TCF      EJ2                                   #  NEW HIGH PRIORITY.
000442: 01,3213           13214                           NOOP
000443: 01,3214           50002                           INDEX    Q
000444: 01,3215           00002                           TC       2                                     #  PROCEED WITH SEARCH.
000445:
000446: 01,3216           54131        EJ2                TS       BUF        +1
000447: 01,3217           00006                           EXTEND
000448: 01,3220           22130                           QXCH     BUF                                   #  FOR LOCATING CCS PRIORITY + X INSTR.
000449: 01,3221           50130                           INDEX    BUF
000450: 01,3222           00002                           TC       2
000451:
000452:                                                                                                  #  Page 1220
000453:                                                                                                  #  IDLING AND COMPUTER ACTIVITY (GREEN) LIGHT MAINTENANCE. THE IDLING ROUTIEN IS NOT A JOB IN ITSELF,
000454:                                                                                                  #  BUT RATHER A SUBROUTINE OF THE EXECUTIVE.
000455:
000456: 01,3223     1361                                  EBANK=   SELFRET                               #  SELF-CHECK STORAGE IN EBANK.
000457:
000458: 01,3223           45021        DUMMYJOB           CS       ZERO                                  #  SET NEWJOB TO -0 FOR IDLING.
000459: 01,3224           54067                           TS       NEWJOB
000460: 01,3225           00003                           RELINT
000461: 01,3226           45016                           CS       TWO                                   #  TURN OFF THE ACTIVITY LIGHT.
000462: 01,3227           00006                           EXTEND
000463: 01,3230           03011                           WAND     DSALMOUT
000464: 01,3231           10067        ADVAN              CCS      NEWJOB                                #  IS THE NEWJOB ACTIVE?
000465: 01,3232           13032                           TCF      NUCHANG2                              #  YES... ONE REQUIRING A CHANGE JOB.
000466: 01,3233           35016                           CAF      TWO                                   #  NEW JOB ALREADY IN POSITION FOR
000467: 01,3234           13242                           TCF      NUDIRECT                              #  EXECUTION
000468:
000469: 01,3235           31361                           CA       SELFRET
000470: 01,3236           54001                           TS       L                                     #  PUT RETURN ADDRESS IN L.
000471: 01,3237           33241                           CAF      SELFBANK
000472: 01,3240           15230                           TCF      SUPDXCHZ   +1                         #  AND DISPATCH JOB.
000473:
000474: 01,3241     1361                                  EBANK=   SELFRET
000475: 01,3241           66102        SELFBANK           BBCON    SELFCHK
000476:
000477: 01,3242           00006        NUDIRECT           EXTEND                                         #  TURN THE GREEN LIGHT BACK ON.
000478: 01,3243           05011                           WOR      DSALMOUT
000479: 01,3244           52165                           DXCH     LOC                                   #  JOBS STARTED IN THIS FASHION MUST BE
000480: 01,3245           15227                           TCF      SUPDXCHZ
000481:
000482:    5227                                           BLOCK    2                                     #  IN FIXED-FIXED SO OTHERS MAY USE.
000483:
000484:    5227                                           COUNT    02/EXEC
000485:
000486:                                                                                                  #  SUPDXCHZ -- ROUTINE TO TRANSFER TO SUPERBANK.
000487:                                                                                                  #  CALLING SEQUENCE:
000488:                                                                                                  #                TCF     SUPDXCHZ        # WITH 2CADR OF DESIRED LOCATION IN A + l.
000489:
000490:    5227           56001        SUPDXCHZ           XCH      L                                     #  BASIC.
000491:    5230           00006                 +1        EXTEND
000492:    5231           01007                           WRITE    SUPERBNK
000493:    5232           54006                           TS       BBANK
000494:    5233           00001                           TC       L
000495:
000496:    5234           77677        NEG100             OCT      77677
000497:
000498:
000499:

End of include-file EXECUTIVE.agc.  Parent file is MAIN.agc


