
Source Code


000002:                                                                                                  ## Copyright:   Public domain.
000003:                                                                                                  ## Filename:    EXTENDED_VERBS.agc
000004:                                                                                                  ## Purpose:     Part of the source code for Comanche, build 055. It
000005:                                                                                                  ##              is part of the source code for the Command Module's
000006:                                                                                                  ##              (CM) Apollo Guidance Computer (AGC), Apollo 11.
000007:                                                                                                  ## Assembler:   yaYUL
000008:                                                                                                  ## Reference:   pp. 236-267
000009:                                                                                                  ## Contact:     Ron Burkey <info@sandroid.org>,
000010:                                                                                                  ##              Fabrizio Bernardini <fabrizio@spacecraft.it>
000011:                                                                                                  ## Website:     http://www.ibiblio.org/apollo.
000012:                                                                                                  ## Mod history: 2009-05-18 FB   Transcription Batch 3 Assignment.
000013:                                                                                                  ##              2009-05-20 RSB  Corrections:  POODOO -> P00DOO,
000014:                                                                                                  ##                              GOTOPOOH -> GOTOP00H, added a couple of
000015:                                                                                                  ##                              missing instructions in Verb 96.
000016:                                                                                                  ##              2009-05-23 RSB  In SYSTEST, corrected TC FLAGWRD1 to
000017:                                                                                                  ##                              CA FLAGWRD1.  Added a variety of SBANK=
000018:                                                                                                  ##                              statements prior to 2CADRs.  One day I'll
000019:                                                                                                  ##                              have to figure out what yaYUL is doing
000020:                                                                                                  ##                              wrong with those ....
000021:                                                                                                  ##              2010-08-29 JL   Fixed +3 and +8 pseudo-labels which were accidentally symbols.
000022:                                                                                                  ##              2011-05-08 JL   Flagged SBANK= workarounds for future removal.
000023:                                                                                                  ##              2011-05-17 JL   Removed all SBANK= workarounds.
000024:
000025:                                                                                                  ## The contents of the "Comanche055" files, in general, are transcribed
000026:                                                                                                  ## from scanned documents.
000027:                                                                                                  ##
000028:                                                                                                  ##      Assemble revision 055 of AGC program Comanche by NASA
000029:                                                                                                  ##      2021113-051.  April 1, 1969.
000030:                                                                                                  ##
000031:                                                                                                  ##      This AGC program shall also be referred to as Colossus 2A
000032:                                                                                                  ##
000033:                                                                                                  ##      Prepared by
000034:                                                                                                  ##                      Massachusetts Institute of Technology
000035:                                                                                                  ##                      75 Cambridge Parkway
000036:                                                                                                  ##                      Cambridge, Massachusetts
000037:                                                                                                  ##
000038:                                                                                                  ##      under NASA contract NAS 9-4065.
000039:                                                                                                  ##
000040:                                                                                                  ## Refer directly to the online document mentioned above for further
000041:                                                                                                  ## information.  Please report any errors to info@sandroid.org.
000042:


000044: 07,2441                                           BANK     7
000045: 43,2000                                           SETLOC   EXTVERBS
000046: 43,2000                                           BANK
000047:
000048: 43,2000  E5,1757                                  EBANK=   OGC
000049:
000050: 43,2000                                           COUNT*   $$/EXTVB
000051:
000052:                                                                                                  #  FAN-OUT
000053:
000054: 43,2000           50154        GOEXTVB            INDEX    MPAC                                  #  VERB-40 IS IN MPAC
000055: 43,2001           02002                           TC       LST2FAN                               #  FAN AS BEFROE.
000056:
000057: 43,2002           02124        LST2FAN            TC       VBZERO                                #  VB40 ZERO (USED WITH NOUN 20 ONLY)
000058: 43,2003           02150                           TC       VBCOARK                               #  VB41 COARSE ALIGN (USED WITH NOUN 20 OR
000059:                                                                                                  #                                91 ONLY)
000060: 43,2004           02240                           TC       IMUFINEK                              #  VB42 FINE ALIGN IMU
000061: 43,2005           02420                           TC       IMUATTCK                              #  VB43 LOAD IMU ATTITUDE ERROR METERS.
000062: 43,2006           03207                           TC       SETSURF                               #  VB44 SET SURFACE FLAG
000063: 43,2007           03212                           TC       RESTSRF                               #  VB45 RESET SURFACE FLAG
000064: 43,2010           02524                           TC       STABLISH                              #  VB46 ESTABLISH G+C CONTROL
000065: 43,2011           03102                           TC       LMTOCMSV                              #  VB47 MOVE LM STATE VECTOR INTO CM
000066: 43,2012           02552                           TC       DAPDISP                               #  VB48 LOAD A/P DATA
000067: 43,2013           12543                           TCF      CREWMANU                              #  VB49 START AUTOMATIC ATTITUDE MANEUVER
000068: 43,2014           02275                           TC       GOLOADLV                              #  VB50 PLEASE PERFORM
000069: 43,2015           02275                           TC       GOLOADLV                              #  VB51 PLEASE MARK
000070: 43,2016           03157                           TC       V52                                   #  VB52 SET OFFSET NO. FOR P22
000071: 43,2017           02275                           TC       GOLOADLV                              #  VB53 PLEASE PERFORM COAS MARK
000072: 43,2020           02612                           TC       GOTOR23                               #  VB54 PLEASE MARK (R-21 BACKUP)
000073: 43,2021           02326                           TC       ALINTIME                              #  VB55 ALIGN TIME
000074: 43,2022           02653                           TC       TRACKTRM                              #  VB56 TERMINATE TRACKING (P20 + P25)
000075: 43,2023           02607                           TC       GOTOR21                               #  VB57 START R21 REND TRACK SIGHT MARK ROUT
000076: 43,2024           02510                           TC       ENATMA                                #  VB58 ENABLE AUTOMATIC ATTITUDE MANEUVER
000077: 43,2025           02275                           TC       GOLOADLV                              #  VB59 PLEASE CALIBRATE
000078: 43,2026           02303                           TC       V60                                   #  VB60 SET CPHIX (N17) EQUAL TO CDU
000079: 43,2027           02311                           TC       V61                                   #  VB61 SELECT MODE I
000080: 43,2030           02314                           TC       V62                                   #  VB62 SELECT MODE II, ERROR WRT N22
000081: 43,2031           02321                           TC       V63                                   #  VB63 SELECT MODE III, ERROR WRT N17
000082: 43,2032           02500                           TC       VB64                                  #  VB64 CALCULATE, DISPLAY S-BAND ANT ANGLES
000083: 43,2033           02375                           TC       CKOPTVB                               #  V 65 E OPTICAL VERIFICATION FOR PRELAUNC
000084: 43,2034           03034                           TC       ATTACHED                              #  VB66 ATTACHED. MOVE THIS TO OTHER STATE
000085: 43,2035           03201                           TC       V67                                   #  VB67 W MATRIX MONITOR
000086: 43,2036           02513                           TC       STROKON                               #  VB68 CSM STROKE TEST ON.
000087: 43,2037           02037        VERB69             TC       VERB69                                #  VB69 CAUSE RESTART
000088: 43,2040           03726                           TC       V70UPDAT                              #  VB70 UPDATE LIFTOFF TIME.
000089: 43,2041           03730                           TC       V71UPDAT                              #  VB71 UNIVERSAL UPDATE -- BLOCK ADDRESS
000090: 43,2042           03732                           TC       V72UPDAT                              #  VB72 UNIVERSAL UPDATE -- SINGLE ADDRESS
000091: 43,2043           03734                           TC       V73UPDAT                              #  VB73 UPDATE AGC TIME (OCTAL)
000092: 43,2044           02721                           TC       DNEDUMP                               #  VB74 INITIALIZE DOWN-TELEMETRY PROGRAM
000093:                                                                                                  #        FOR ERASABLE DUMP.
000094: 43,2045           02725                           TC       LFTFLGON                              #  VB75 SET LIFTOFF FLAG.


000096: 43,2046           03015                           TC       SETPRFLG                              #  VB76 SET PREFERRED ATTITUDE FLAG
000097: 43,2047           03020                           TC       RESETPRF                              #  VB77 RESET PREFERRED ATT. FLAG
000098: 43,2050           02406                           TC       CHAZFOGC                              #  CHANGE GYROCOMPASS LAUNCH AZIMUTH V78
000099: 43,2051           02120                           TC       ALM/END                               #  V79 SPARE
000100: 43,2052           02713                           TC       LEMVEC                                #  VB80 UPDATE LEM STATE VECTOR
000101: 43,2053           02716                           TC       CSMVEC                                #  VB81 UPDATE CSM STATE VECTOR
000102: 43,2054           02562                           TC       V82PERF                               #  VB82 REQUEST ORBIT PARAM DISPLAY (R30)
000103: 43,2055           02567                           TC       V83PERF                               #  VB83 RANGE, RANGE RATE, +X AXIS  (R31)
000104: 43,2056           02120                           TC       ALM/END                               #  V84  SPARE
000105: 43,2057           02601                           TC       V85PERF                               #  VB85 RANGE, RANGE RATE, SLOS     (R32)
000106: 43,2060           02646                           TC       V86PERF                               #  VB86 BACKUP MARK REJECT
000107: 43,2061           03023                           TC       SETVHFLG                              #  VB87 SET VHF RANGE FLAG
000108: 43,2062           03027                           TC       RESETVHF                              #  VB88 RESET VHF RANGE FLAG
000109: 43,2063           02745                           TC       V89PERF                               #  V89-ALIGN X OR PRF CSM AXIS TO LOS (R63)
000110: 43,2064           03142                           TC       V90PERF                               #  VB90-OUT OF PLAN PARAMETERS      (R36)
000111: 43,2065           02762                           TC       GOSHOSUM                              #  VB91 TEMP FOR HYBRID AND STG.
000112: 43,2066           02360                           TC       SYSTEST                               #  VB92 OPERATE IMU PERFORMANCE TEST
000113: 43,2067           02755                           TC       WMATRXNG                              #  VB93 CLEAR RENDWFLG
000114: 43,2070           03126                           TC       VERB94                                #  VB94 DO R64
000115: 43,2071           02120                           TC       ALM/END                               #  VB95 SPARE
000116: 43,2072           13150                           TCF      VERB96                                #  VB96 SET QUITFLAG TO STOP INTEGRATION
000117: 43,2073           02275                           TC       GOLOADLV                              #  VB97 PLEASE PERFORM ENGINE-FAIL (R41)
000118: 43,2074           02120                           TC       ALM/END                               #  VB98 SPARE
000119: 43,2075           02275                           TC       GOLOADLV                              #  VB99 PLEASE ENABLE ENGINE
000120:
000121:                                                                                                  #  END OF EXTENDED VERB FAN
000122:
000123: 43,2076           11044        TESTXACT           CCS      EXTVBACT
000124: 43,2077           02120                           TC       ALM/END                               #  YES, TURN ON OPERATOR ERROR LIGHT
000125: 43,2100           30100                           CA       FLAGWRD4                              #  ARE PRIOS USING DSKY
000126: 43,2101           72123                           MASK     OC24100
000127: 43,2102           10000                           CCS      A
000128: 43,2103           02120                           TC       ALM/END
000129:
000130: 43,2104           34112                           CAF      OCT24                                 #  SET BITS 3 AND 5
000131: 43,2105           55044        SETXTACT           TS       EXTVBACT                              #  NO. SET FLAG TO SHOW EXT VERB DISPLAY
000132:                                                                                                  #  SYSTEM BUSY
000133:
000134: 43,2106           30002                           CA       Q
000135: 43,2107           54155                           TS       MPAC       +1
000136:
000137: 43,2110           45016                           CS       TWO                                   #  BLANK EVERYTHING EXCEPT MM AND VERB
000138: 43,2111           04170                           TC       NVSUB
000139: 43,2112           02113                           TC       +1
000140: 43,2113           00155                           TC       MPAC       +1
000141:
000142: 43,2114           04400        XACTALM            TC       FALTON                                #  TURN ON OPERATOR ERROR LIGHT.
000143: 43,2115           05534                           TC       ENDEXT                                #  RELEASE MARK AND EXT. VERB DISPLAY SYS.


000145: 43,2116     5534               TERMEXTV           EQUALS   ENDEXT
000146: 43,2116     5534               ENDEXTVB           EQUALS   ENDEXT
000147:
000148: 43,2116           35021        XACT0              CAF      ZERO                                  #  RELEASE MARK AND EXT. VERB DISPLAY SYS.
000149: 43,2117           02105                           TC       SETXTACT
000150:
000151: 43,2120           04400        ALM/END            TC       FALTON                                #  TURN ON OPERATOR ERROR LIGHT
000152: 43,2121           04701        GOPIN              TC       POSTJUMP
000153: 43,2122           21272                           CADR     PINBRNCH
000154:
000155: 43,2123           24100        OC24100            OCT      24100
000156:


000158:                                                                                                  #  VBZERO        VERB 40         DESCRIPTION
000159:
000160:                                                                                                  #        1.      REQUIRE NOUN 20 (ICDU ANGLES)
000161:                                                                                                  #        2.      REQUIRE AVAILABILITY OF EXT VERB DISPLAY SYSTEM
000162:                                                                                                  #        3.      IF EITHER OF ABOVE CONDITIONS NOT PRESENT, TURN ON OPERATOR ERROR LIGHT AND GO TO PINBRNCH.
000163:                                                                                                  #        4.      SET EXT VERB DISPLAY ACTIVE FLAG.
000164:                                                                                                  #        5.      EXECUTE IMUZERO (ZERO IMU CDU ANGLES).
000165:                                                                                                  #        6.      EXECUTE IMUSTALL (ALLOW TIME FOR DATA TRANSFER).
000166:                                                                                                  #        7.      RELEASE EXT. VERB DISPLAY SYSTEM.
000167:
000168: 43,2124           02136        VBZERO             TC       OP/INERT
000169: 43,2125           02127                           TC       IMUZEROK                              #  RETURN HERE IF NOUN = ICDU(20)
000170: 43,2126           02120                           TC       ALM/END                               #  RETURN HERE IF NOUN = OCDU(91)
000171:                                                                                                  #        (NOT IN USE YET)
000172:
000173: 43,2127           02271        IMUZEROK           TC       CKMODCAD                              #  KEYBOARD REQUEST FOR ISS CDUZERO
000174: 43,2130           04662                           TC       BANKCALL
000175: 43,2131           16577                           CADR     IMUZERO
000176:
000177: 43,2132           04662                           TC       BANKCALL                              #  STALL
000178: 43,2133           17577                           CADR     IMUSTALL
000179: 43,2134           02135                           TC       +1
000180:
000181: 43,2135           02121                           TC       GOPIN
000182:
000183: 43,2136           44112        OP/INERT           CS       OCT24
000184: 43,2137           61002                           AD       NOUNREG
000185: 43,2140           00006                           EXTEND
000186: 43,2141           12476                           BZF      XACT0Q                                #  IF = 20.
000187:
000188: 43,2142           24002                           INCR     Q
000189: 43,2143           62147                           AD       OPIMDIFF                              #  -71
000190: 43,2144           00006                           EXTEND
000191: 43,2145           12476                           BZF      XACT0Q
000192:
000193: 43,2146           02120                           TC       ALM/END                               #  ILLEGAL.
000194:
000195: 43,2147           77670        OPIMDIFF           DEC      -71        B-14
000196:


000198:                                                                                                  #  VBCOARK       VERB 41         DESCRIPTION
000199:                                                                                                  #        COARSE ALIGN IMU OR RADAR
000200:
000201:                                                                                                  #        1.      REQUIRE NOUN 20 OR NOUN 91 OR TURN ON OPERATOR ERROR.
000202:                                                                                                  #        2.      REQUIRE EXT VERB DISPLAY SYS AVAILABLE OR TURN ON OPERATOR ERROR LIGHT AND GO TO PINBRNCH.
000203:
000204:                                                                                                  #        CASE 1  NOUN 20 (ICDU ANGLES)
000205:                                                                                                  #        3.      SET EXT VERB DISPLAY ACTIVE FLAG.
000206:                                                                                                  #        4.      DISPLAY FLASHING V25,N22 (LOAD NEW ICDU ANGLES).
000207:                                                                                                  #                RESPONSES
000208:                                                                                                  #                A.      TERMINATE
000209:                                                                                                  #                        1.      RELEASE EXT VERB DISPLAY SYSTEM.
000210:                                                                                                  #                B.      PROCEED
000211:                                                                                                  #                        1.      DISPLAY FLASHING V25,N23 (LOAD DELTA ICDU ANGLES).
000212:                                                                                                  #                                RESPONSES:
000213:                                                                                                  #                                A.      TERMINATE
000214:                                                                                                  #                                        1.      RELEASE EXT VERB DISPLAY SYSTEM.
000215:                                                                                                  #                                B.      PROCEED
000216:                                                                                                  #                                        1.      EXECUTE ICORK2.
000217:                                                                                                  #                                C.      ENTER
000218:                                                                                                  #                                        1.      INCREMENT CDU ANGLES
000219:                                                                                                  #                                        2.      EXECUTE ICORK2
000220:                                                                                                  #                C.      ENTER
000221:                                                                                                  #                        1.      EXECUTE ICORK2
000222:                                                                                                  #  ICORK2
000223:                                                                                                  #        1.      RE-DISPLAY VERB 41.
000224:                                                                                                  #        2.      EXECUTE IMUCCARS (IMU COARSE ALIGN).
000225:                                                                                                  #        3.      EXECUTE IMUSTALL (ALLOW TIME FOR DATA TRANSFER).
000226:                                                                                                  #        4.      RELEASE EXT VERB DISPLAY SYSTEM.
000227:
000228:                                                                                                  #        CASE 2  NOUN 91 (OCDU ANGLES)
000229:                                                                                                  #        5.      (REQUIRE OPTICS SWITCH TO BE AT COMUTER OR TURN ON OPERATOR ERROR AND ALARM 115) AND (REQUIRE
000230:                                                                                                  #                OPTICS AVAILABLE AND DISPLAY FLASHING V24,N92....LOAD NEW OPTICS ANGLES....OR TURN ON ALARM 117
000231:                                                                                                  #                AND RELEASE EXT VERB DISPLAY SYSTEM).
000232:                                                                                                  #        6.      RESPONSES TO V29,N92
000233:                                                                                                  #                A.      TERMINATE
000234:                                                                                                  #                        RELEASE EXT VERB DISPLAY SYS.
000235:                                                                                                  #                B.      PROCEED OR ENTER
000236:                                                                                                  #                        RE-DISPLAY VERB 41,     SET SWITCH TO INDICATE COURSE ALIGN OPTICS WORKING.
000237:                                                                                                  #                        RELEASE EXT VERB DISPLAY SYSTEM.
000238:
000239: 43,2150           02136        VBCOARK            TC       OP/INERT
000240: 43,2151           02153                           TC       IMUCOARK                              #  RETURN HERE IF NOUN = ICDU (20)
000241: 43,2152           02175                           TC       OPTCOARK                              #  RETURN HERE IF NOUN = OCDU (91)
000242:
000243:                                                                                                  #  RETURNS TO L+1 IF NOUN 20 -- TO L+2 IF NOUN 91.
000244:
000245: 43,2153           02271        IMUCOARK           TC       CKMODCAD                              #  COARSE ALIGN FROM KEYBOARD
000246: 43,2154           02076                           TC       TESTXACT
000247: 43,2155           32173                           CAF      VNLODCDU                              #  CALL FOR THETAD LOAD
000248: 43,2156           04662                           TC       BANKCALL
000249: 43,2157           20561                           CADR     GOXDSPF
000250: 43,2160           05534                           TC       TERMEXTV
000251: 43,2161           12162                           TCF      +1


000253:
000254: 43,2162           32174        ICORK2             CAF      IMUCOARV                              #  RE-DISPLAY COARSE ALIGN VERB.
000255: 43,2163           04662                           TC       BANKCALL
000256: 43,2164           21042                           CADR     EXDSPRET
000257:
000258: 43,2165           04662                           TC       BANKCALL                              #  CALL MODE SWITCHING PROG
000259: 43,2166           16663                           CADR     IMUCOARS
000260:
000261: 43,2167           04662                           TC       BANKCALL                              #  STALL
000262: 43,2170           17577                           CADR     IMUSTALL
000263: 43,2171           05534                           TC       ENDEXTVB
000264: 43,2172           05534                           TC       ENDEXTVB
000265:
000266: 43,2173           06226        VNLODCDU           VN       2522
000267: 43,2174           12200        IMUCOARV           VN       4100
000268:


000270:                                                                                                  #  TEMPORARY ROUTINE TO RUN THE OPTICS CDUS FROM THE KEYBOARD
000271:
000272: 43,2175           31323        OPTCOARK           CA       OPTCADR
000273: 43,2176           02272                           TC       CKMODCAD   +1
000274: 43,2177           02076                           TC       TESTXACT
000275: 43,2200           35056                           CAF      EBANK5
000276: 43,2201           54003                           TS       EBANK
000277:
000278: 43,2202           11314                           CCS      SWSAMPLE                              #  SEE IF SWITCH AT COMPUTER
000279: 43,2203           02210                           TC       +5                                    #  SWITCH AT COMPUTER
000280: 43,2204           02205                           TC       +1                                    #  NOT ON COMPUTER
000281: 43,2205           04400                           TC       FALTON                                #  TURN ON OPERATOR ERR
000282: 43,2206           05650                           TC       ALARM                                 #  AND ALARM
000283: 43,2207           00115                           OCT      00115
000284:
000285: 43,2210           11303                           CCS      OPTIND                                #  SEE IF OPTICS AVAILABLE
000286: 43,2211           02217                           TC       OPTC1                                 #  IN USE
000287: 43,2212           02217                           TC       OPTC1                                 #  IN USE
000288: 43,2213           02217                           TC       OPTC1                                 #  IN USE
000289:
000290: 43,2214           05650                           TC       ALARM                                 #  OPTICS RESERVED (OPTIND=-0)
000291: 43,2215           00117                           OCT      00117
000292: 43,2216           05534                           TC       ENDEXT
000293:
000294: 43,2217           32237        OPTC1              CAF      VNLD0CDU                              #  VERB-NOUN TO LOAD OPTICS CDUS
000295: 43,2220           04662                           TC       BANKCALL
000296: 43,2221           20561                           CADR     GOXDSPF
000297: 43,2222           05534                           TC       TERMEXTV
000298: 43,2223           02224                           TC       +1                                    #  PROCEED
000299:
000300: 43,2224           31773                           CA       SAC
000301: 43,2225           55161                           TS       DESOPTS
000302: 43,2226           31775                           CA       PAC
000303: 43,2227           55160                           TS       DESOPTT
000304: 43,2230           32174                           CAF      OPTCOARV                              #  RE-DISPLAY OUR OWN VERB
000305: 43,2231           04662                           TC       BANKCALL
000306: 43,2232           21042                           CADR     EXDSPRET
000307:
000308: 43,2233           35017                           CAF      ONE
000309: 43,2234           55303                           TS       OPTIND                                #  SET COARS WORKING
000310:
000311: 43,2235           05534                           TC       ENDEXTVB
000312: 43,2236           05534                           TC       ENDEXTVB
000313:
000314: 43,2237           06134        VNLD0CDU           VN       2492
000315: 43,2240  43,2174               OPTCOARV           EQUALS   IMUCOARV                              #  DIFFERENT NOUNS.
000316:


000318:                                                                                                  #  IMUFINEK      VERB 42         DESCRIPTION
000319:                                                                                                  #        FINE ALIGN IMU
000320:
000321:                                                                                                  #        1.      REQUIRE EXT VERB DISPLAY AVAILABLE AND SET BUSY FLAG OR TURN ON OPER ERROR AND GO TO PINBRNCH.
000322:                                                                                                  #        2.      DISPLAY FLASHING V25,N93....LOAD DELTA GYRO ANGLES....
000323:                                                                                                  #                RESPONSES
000324:                                                                                                  #                A.      TERMINATE
000325:                                                                                                  #                        1.      RELEASE EXT VERB DISPLAY SYSTEM.
000326:                                                                                                  #                B.      PROCEED OR ENTER
000327:                                                                                                  #                        1.      RE-DISPLAY VERB 42
000328:                                                                                                  #                        2.      EXECUTE IMUFINE (IMU FIVE ALIGN MODE SWITCHING).
000329:                                                                                                  #                        3.      EXECUTE IMUSTALL (ALLOW FOR DATA TRANSFER)
000330:                                                                                                  #                                A.      FAILED
000331:                                                                                                  #                                        1.      RELEASE EXT VERB DISPLAY SYSTEM.
000332:                                                                                                  #                                B.      GOOD
000333:                                                                                                  #                                        1.      EXECUTE IMUPULSE (TORQUE IRIGS).
000334:                                                                                                  #                                        2.      EXECUTE IMUSTALL AND RELEASE EXT VERB DISPLAY SYSTEM.
000335:
000336: 43,2240           02271        IMUFINEK           TC       CKMODCAD                              #  FINE ALIGN WITH GYRO TORQUING.
000337: 43,2241           02076                           TC       TESTXACT
000338: 43,2242           32267                           CAF      VNLODGYR                              #  CALL FOR LOAD OF GYRO COMMANDS
000339: 43,2243           04662                           TC       BANKCALL
000340: 43,2244           20561                           CADR     GOXDSPF
000341: 43,2245           05534                           TC       TERMEXTV
000342: 43,2246           02247                           TC       +1                                    #  PROCEED WITHOUT A LOAD
000343:
000344: 43,2247           32270                           CAF      IMUFINEV                              #  RE-DISPLAY OUR OWN VERB
000345: 43,2250           04662                           TC       BANKCALL
000346: 43,2251           21042                           CADR     EXDSPRET
000347:
000348: 43,2252           04662                           TC       BANKCALL                              #  CALL MODE SWITCH PROG
000349: 43,2253           17073                           CADR     IMUFINE
000350:
000351: 43,2254           04662                           TC       BANKCALL                              #  HIBERNATION
000352: 43,2255           17577                           CADR     IMUSTALL
000353: 43,2256           05534                           TC       ENDEXTVB
000354:
000355: 43,2257           32266        FINEK2             CAF      LGYROBIN                              #  PINBALL LEFT COMMANDS IN OGC REGISTERS
000356: 43,2260           04662                           TC       BANKCALL
000357: 43,2261           17206                           CADR     IMUPULSE
000358:
000359: 43,2262           04662                           TC       BANKCALL                              #  WAIT FOR PULSES TO GET OUT.
000360: 43,2263           17577                           CADR     IMUSTALL
000361: 43,2264           05534                           TC       ENDEXTVB
000362: 43,2265           05534                           TC       ENDEXTVB
000363:
000364: 43,2266           02757        LGYROBIN           ECADR    OGC
000365: 43,2267           06335        VNLODGYR           VN       2593
000366: 43,2270           12400        IMUFINEV           VN       4200                                  #  FINE ALIGN VERB
000367:
000368: 43,2271           31322        CKMODCAD           CA       MODECADR


000370: 43,2272           00006                           EXTEND
000371: 43,2273           16711                           BZF      TCQ
000372: 43,2274           02120                           TC       ALM/END                               #  SOMEBODY IS USING MODECADR SO EXIT
000373:
000374:                                                                                                  #  GOLOADLV      VERB 50         DESCRIPTION
000375:                                                                                                  #        AND OTHER PLEASE
000376:                                                                                                  #        DO SOMETHING VERBS
000377:
000378:                                                                                                  #  PLEASE PERFORM, MARK, CALIBRATE, ETC.
000379:
000380:                                                                                                  #        1.      PRESSING ENTER ON DSKY INDICATES REQUESTED ACTION HAS BEEN PERFORMED, AND THE PROGRAM DOES THE
000381:                                                                                                  #                SAME RECALL AS A COMPLETED LOAD.
000382:                                                                                                  #        2.      THE EXECUTION OF A VERB 33 (PROCEED WITHOUT DATA) INDICATES THE REQUESTED ACTION IS NOT DESIRED.
000383:
000384: 43,2275           04447        GOLOADLV           TC       FLASHOFF
000385: 43,2276           34215                           CAF      PINSUPBT
000386: 43,2277           00006                           EXTEND
000387: 43,2300           01007                           WRITE    SUPERBNK                              #  TURN ON FE7
000388: 43,2301           04701                           TC       POSTJUMP
000389: 43,2302  40,2000                                  SBANK=   PINSUPER
000390: 43,2302           62001                           CADR     LOADLV1
000391:
000392:                                                                                                  #  V60   VERB 60
000393: 43,2303           00006        V60                EXTEND                                         #  SET ASTRONAUT TOTAL ATTITUDE (N17) EQUAL
000394: 43,2304           30033                           DCA      CDUX                                  #  TO PRESENT ATTITUDE
000395: 43,2305           53334                           DXCH     CPHIX
000396: 43,2306           30034                           CA       CDUZ
000397: 43,2307           55335                           TS       CPHIX      +2
000398: 43,2310           02121                           TC       GOPIN
000399:
000400:                                                                                                  #  V61   VERB 61
000401: 43,2311           05560        V61                TC       DOWNFLAG                              #  SET NEEDLFLG TO 0 (FLAGWRD0,BIT9), PHASE
000402: 43,2312           00006                           ADRES    NEEDLFLG                              #  PLANE A/P FOLLOWING ERROR DISPLAYED
000403: 43,2313           02121                           TC       GOPIN
000404:
000405:                                                                                                  #  V62   VERB 62
000406: 43,2314           05546        V62                TC       UPFLAG                                #  SET NEEDLFLG TO 1 (FLAGWRD0,BIT9),
000407: 43,2315           00006                           ADRES    NEEDLFLG                              #  TOTAL ATTITUDE ERROR DISPLAYED
000408:
000409: 43,2316           05546                           TC       UPFLAG                                #  SET N22ORN17 TO 1 (FLAGWRD9,BIT6),
000410: 43,2317           00220                           ADRES    N22ORN17                              #  COMPUTE TOTAL ATTITUDE ERROR WRT N22
000411: 43,2320           02121                           TC       GOPIN
000412:
000413:                                                                                                  #  V63   VERB 63
000414: 43,2321           05546        V63                TC       UPFLAG                                #  SET NEEDLFLG TO 1 (FLAGWRD0,BIT9),
000415: 43,2322           00006                           ADRES    NEEDLFLG                              #  TOTAL ATTITUDE ERROR DISPLAYED
000416:
000417: 43,2323           05560                           TC       DOWNFLAG                              #  SET N22ORN17 TO 0 (FLAGWRD9,BIT6),


000419: 43,2324           00220                           ADRES    N22ORN17                              #  COMPUTE TOAL ASTRONAUT ATTITUDE ERROR
000420: 43,2325           02121                           TC       GOPIN
000421:


000423:                                                                                                  #  ALINTIME      VERB 55         DESCRIPTION
000424:
000425:                                                                                                  #        1.      SET EXT VERB DISPLAY BUSY FLAG.
000426:                                                                                                  #        2.      DISPLAY FLASHING V25,N24 (LOAD DELTA TIME FOR AGC CLOCK.
000427:                                                                                                  #        3.      REQUIRE EXECUTION OF VERB 23.
000428:                                                                                                  #        4.      ADD DELTA TIME, RECEIVED FROM INPUT REGISTER, TO THE COMPUTER TIME.
000429:                                                                                                  #        5.      RELEASE EXT VERB DISPLAY SYSTEM.
000430:
000431: 43,2326                                           COUNT    04/R33
000432:
000433: 43,2326           02076        ALINTIME           TC       TESTXACT
000434:
000435: 43,2327           32357                           CAF      VNLODDT
000436: 43,2330           04662                           TC       BANKCALL
000437: 43,2331           20561                           CADR     GOMARKF
000438: 43,2332           05534                           TC       ENDEXT                                #  TERMINATE
000439: 43,2333           05534                           TC       ENDEXT                                #  PROCEED
000440: 43,2334           42356                           CS       DEC23                                 #  DATA IN OR RESEQUENCE (UNLIKELY)
000441: 43,2335           60154                           AD       MPAC                                  #  RECALL LEFT VERB IN MPAC
000442: 43,2336           00006                           EXTEND
000443: 43,2337           12341                           BZF      UPDATIME                              #  GO AHEAD WITH UPDATE ONLY IF RECALL
000444: 43,2340           05534                           TC       ENDEXT                                #        WITH V23 (DATA IN).
000445:
000446: 43,2341           00004        UPDATIME           INHINT                                         #  DELTA TIME IS IN DSPTEM1, +1.
000447: 43,2342           35021                           CAF      ZERO
000448: 43,2343           54156                           TS       MPAC       +2                         #  NEEDED FOR TP AGREE
000449: 43,2344           54001                           TS       L                                     #  ZERO T1 + 2 WHILE ALIGNING.
000450: 43,2345           52025                           DXCH     TIME2
000451: 43,2346           52155                           DXCH     MPAC
000452: 43,2347           53052                           DXCH     DSPTEM2    +1                         #  INCREMENT
000453: 43,2350           20155                           DAS      MPAC
000454:
000455: 43,2351           07226                           TC       TPAGREE                               #  FORCE SIGN AGREEMENT.
000456: 43,2352           52155                           DXCH     MPAC                                  #  NEW CLOCK.
000457: 43,2353           20025                           DAS      TIME2
000458: 43,2354           00003                           RELINT
000459: 43,2355           05534        UPDTMEND           TC       ENDEXT
000460: 43,2356           00027        DEC23              DEC      23         B-14                       #  V 23
000461:
000462: 43,2357           06230        VNLODDT            VN       2524                                  #  V25N24 FOR LOAD DELTA TIME
000463:


000465:                                                                                                  #  SYSTEST       VERB 92         DESCRIPTION
000466:                                                                                                  #        OPERATE SELECTED SYSTEM TEST.
000467:
000468:                                                                                                  #        1.      REQUIRE P00 OR P00- OR TURN ON OPERATOR ERROR.
000469:                                                                                                  #        2.      TURN OFF DAP IF IT IS ON.
000470:                                                                                                  #        3.      DISPLAY FLASHING V21,N01 (LOAD TEST NUMBER 1 THRU 17).
000471:                                                                                                  #        4.      UPON ENTRY OF TEST NUMBER, SCHEDULE TSELECT WITH PRIORITY 20.
000472:
000473:                                                                                                  #        TSELECT
000474:                                                                                                  #        1.      IF LOADED TEST NUMBER IS VALID, GO TO THAT TEST ROUTINE, OTHERWISE TURN ON OPERATOR ERROR AND
000475:                                                                                                  #                REPEAT LOAD REQUEST DISPLAY.  (NO. 3 ABOVE)
000476:
000477: 43,2360  E5,1425                                  EBANK=   QPLACE
000478:
000479: 43,2360                                           COUNT    04/EXTVB
000480:
000481: 43,2360           02730        SYSTEST            TC       CHKP00H
000482: 43,2361           30075                           CA       FLAGWRD1                              #  IS NODOP01 FLAGBIT ON? (SET BY P11)
000483: 43,2362           75004                           MASK     NOP01BIT
000484: 43,2363           00006                           EXTEND
000485: 43,2364           12367                           BZF      V92CONT                               #  IF IT'S NOT YET SET, CONTINUE
000486: 43,2365           05721                           TC       P00DOO                                #  IT'S ON. SEND NODO ALARM FOR P07
000487: 43,2366           01521                           OCT      1521
000488: 43,2367           02734        V92CONT            TC       EXDAPOFF                              #  TURN DAP OFF IF IT'S ON
000489: 43,2370           35002                           CAF      PRIO20
000490: 43,2371           05147                           TC       FINDVAC
000491: 43,2372  E5,1425                                  EBANK=   QPLACE
000492: 43,2372  30,2000                                  SBANK=   IMUSUPER
000493: 43,2372           02002 66065                     2CADR    REDO
000494:
000495: 43,2374           02121                           TC       GOPIN
000496:
000497:                                                                                                  #  REDO AND TSELECT ARE NOW IN SYSTEM TEST.
000498:
000499: 43,2375                                           COUNT*   $$/EXTVB
000500:                                                                                                  #  CKOPTVB       VERB 65         DESCRIPTION
000501:                                                                                                  #        OPTICAL VERIFICATION FOR PRELAUNCH.
000502:                                                                                                  #        1.      SCHEDULE GCOMPVER, OPTICAL VERIFICATION SUBPROGRAM, WITH PRIORITY 17.
000503:
000504: 43,2375           05364        CKOPTVB            TC       CHECKMM
000505: 43,2376           00002                           MM       02         B-14                       #  I WONDER IF PRELAUNCH IS RUNNING
000506: 43,2377           02120                           TC       ALM/END                               #  NOT RUNNING OPERATOR ERROR
000507: 43,2400           00004                           INHINT
000508: 43,2401           35070                           CAF      PRIO16                                #  PRELAUNCH OPTICAL VERIFICATION
000509: 43,2402           05147                           TC       FINDVAC
000510: 43,2403  E5,1425                                  EBANK=   QPLACE
000511: 43,2403           02000 66065                     2CADR    COMPVER                               #  STANDARD LEADIN TO GCOMPVER.
000512:
000513: 43,2405           02121                           TC       GOPIN
000514:


000516:                                                                                                  #  V 78 ....     TO CHANGE GYROCOMPASS AZIMUTH
000517:
000518: 43,2406           05364        CHAZFOGC           TC       CHECKMM                               #  IS IT PRELAUNCH
000519: 43,2407           00002                           MM       02         B-14
000520: 43,2410           02120                           TC       ALM/END                               #  NO -- OPERATOR ERROR
000521:
000522: 43,2411           35070                           CAF      PRIO16                                #  PRELAUNCH AZIMUTH CHANGE
000523: 43,2412           05147                           TC       FINDVAC
000524: 43,2413  E5,1671                                  EBANK=   XSM
000525: 43,2413           03742 66065                     2CADR    AZMTHCG1
000526:
000527: 43,2415           05412                           TC       PHASCHNG
000528: 43,2416           00174                           OCT      00174
000529: 43,2417           02121                           TC       GOPIN


000531:                                                                                                  #  IMUATTCK      VERB 43         DESCRIPTION
000532:                                                                                                  #        LOAD IMU ATTITUDE ERROR METERS
000533:
000534:                                                                                                  #        1.      REQUIRE PROGRAM 00 ACTIVE, COARSE ALIGN ENABLE BIT OFF AND ZERO ICDU BIT OFF.
000535:                                                                                                  #        2.      IF GUID REF RELEASE OR LIFTOFF HAS OCCURRED REQUIRE EXT VERB DISPLAY AVAILABLE AND SET BUSY
000536:                                                                                                  #                FLAG, OTHERWISE ALLOW CURRENT EXT VERB DISPLAY TO BE OVER-RIDDEN.
000537:                                                                                                  #        3.      REMOVE COARSE ALIGN ENABLE AND IMU ERROR COUNTER ENABLE.
000538:                                                                                                  #        4.      DISPLAY FLASHING V25,N22 (LOAD NEW ICDU ANGLES).
000539:                                                                                                  #        5.      UPON PROCEED OR ENTER RESPONSE, INITIALIZE CURRENT DAC AND COMMAND VALUES, ENABLE ERROR COUNTERS
000540:                                                                                                  #                TRANSFER LOADED VALUES TO REGISTERS, AND SEND COMMANDS.
000541:                                                                                                  #        6.      IF BUSY FLAG SET, RESET IT TO RELEASE EXT VERB DISPLAY.
000542:
000543: 43,2420           02730        IMUATTCK           TC       CHKP00H
000544:
000545: 43,2421           32477                           CAF      OCTAL30                               #  SEE IF IMU ZERO AND IMU COARSE ARE ON
000546: 43,2422           00006                           EXTEND
000547: 43,2423           02012                           RAND     CHAN12
000548: 43,2424           10000                           CCS      A
000549: 43,2425           12120                           TCF      ALM/END                               #  NOT ALLOWED IF IMU COARSE OR IMU ZERO ON
000550:
000551: 43,2426           02465                           TC       CKLFTBTS                              #  IS IT BEFORE OR AFTER LIFTOFF
000552: 43,2427           02076                           TC       TESTXACT                              #  AFTER
000553: 43,2430           45033                           CS       OCT50                                 #  REMOVE COARSE AND ECTR ENABLE
000554: 43,2431           00006                           EXTEND
000555: 43,2432           03012                           WAND     CHAN12
000556:
000557: 43,2433           32173                           CAF      VNLODCDU
000558: 43,2434           04662                           TC       BANKCALL
000559: 43,2435           20561                           CADR     GOXDSPF
000560: 43,2436           12452                           TCF      TRMATTCK
000561: 43,2437           02440                           TC       +1
000562: 43,2440           35057                           CAF      EBANK6
000563: 43,2441           54003                           TS       EBANK                                 #  SET E6 FOR NEEDLES.
000564:
000565: 43,2442  E6,1476                                  EBANK=   AK
000566:
000567: 43,2442           04662                           TC       BANKCALL                              #  INITIALIZE CURRENT DAC AND
000568: 43,2443           42443                           CADR     NEEDLE11                              #  COMMAND VALUES.
000569:
000570: 43,2444           04662                           TC       BANKCALL                              #  ENABLE ERROR COUNTERS.
000571: 43,2445           42462                           CADR     NEEDLER2
000572:
000573: 43,2446           35016                           CAF      TWO                                   #  4 MS MIN.
000574: 43,2447           05245                           TC       WAITLIST
000575: 43,2450  E6,1476                                  EBANK=   AK
000576: 43,2450           02455 66106                     2CADR    ATTCK1
000577:
000578: 43,2452           02465        TRMATTCK           TC       CKLFTBTS                              #  IS IT BEFORE OR AFTER LIFTOFF
000579: 43,2453           15534                           TCF      ENDEXT                                #  AFTER
000580: 43,2454           02121                           TC       GOPIN


000582: 43,2455           00006        ATTCK1             EXTEND                                         #  TRANSFER LOADED VALUES TO DESIRED REQS.
000583: 43,2456           31156                           DCA      THETAD
000584: 43,2457           53477                           DXCH     AK
000585: 43,2460           31157                           CAE      THETAD     +2
000586: 43,2461           55500                           TS       AK         +2
000587:
000588: 43,2462           04740                           TC       IBNKCALL                              #  SENDS COMMANDS LIMITED TO +,- 384 PULSES
000589: 43,2463           42476                           CADR     NEEDLES                               #  AND LEAVES ERROR COUNTERS ENABLED.
000590:
000591: 43,2464           05324                           TC       TASKOVER
000592:
000593: 43,2465           35013        CKLFTBTS           CAF      GRRBKBIT                              #  HAS LIFTOFF OCCURRED
000594: 43,2466           70101                           MASK     FLAGWRD5
000595: 43,2467           10000                           CCS      A
000596: 43,2470           00002                           TC       Q                                     #  YES
000597: 43,2471           35013                           CAF      BIT5
000598: 43,2472           00006                           EXTEND
000599: 43,2473           02030                           RAND     CHAN30
000600: 43,2474           10000                           CCS      A
000601: 43,2475           16706                           TCF      Q+1
000602: 43,2476           00002        XACT0Q             TC       Q                                     #  YES
000603:
000604: 43,2477           00030        OCTAL30            OCT      30
000605: 43,2500           02730        VB64               TC       CHKP00H                               #  DEMAND PROGRAM 00.
000606: 43,2501           02076                           TC       TESTXACT                              #  IF DISPLAY SYS. NOT BUSY, MAKE IT BUSY.
000607: 43,2502           00004                           INHINT
000608: 43,2503           35004                           CAF      PRIO4
000609: 43,2504           05147                           TC       FINDVAC
000610: 43,2505  E4,1720                                  EBANK=   RHOSB
000611: 43,2505           03652 64104                     2CADR    SBANDANT                              #  CALC.,DISPLAY S-BAND ANTENNA ANGLES.
000612:
000613: 43,2507           05217                           TC       ENDOFJOB
000614:
000615:                                                                                                  #  ENATMA        VERB 58         DESCRIPTION
000616:                                                                                                  #        ENABLE AUTOMATIC ATTITUDE MANEUVER
000617:
000618:                                                                                                  #  VERB58 RESETS STIKFLAG TO ENABLE R61 TO PERFORM AUTOMATIC TRACKING MANEUVERS, AFTER INTERRUPTS BY THE RHC
000619:                                                                                                  #  ACTIVITY.
000620:
000621: 43,2510           05560        ENATMA             TC       DOWNFLAG                              #  RESET STIKFLAG.
000622: 43,2511           00020                           ADRES    STIKFLAG                              #  BIT 14 FLAG 1
000623: 43,2512           02121                           TC       GOPIN
000624:


000626:                                                                                                  #  STROKON       VERB 68         DESCRIPTION
000627:                                                                                                  #        STROKE TEST SETUP/ENABLE
000628:                                                                                                  #        1.      SET EXT VERB DISPLAY BUSY FLAG
000629:                                                                                                  #        2.      SCHEDULE STRKTST1 WITH PRIORITY 30.
000630:                                                                                                  #        3.      RELEASE EXT VERB DISPLAY.
000631:
000632: 43,2513  E6,1625                                  EBANK=   T5TVCDT
000633: 43,2513           40102        STROKON            CS       FLAGWRD6                              #  V68   PERMITTED ONLY DURING TVC
000634: 43,2514           74105                           MASK     OCT60000
000635: 43,2515           00006                           EXTEND
000636: 43,2516           62120                           BZMF     ALM/END                               #  NOT TVC....FLASH OP ERROR LIGHT
000637: 43,2517           34371                           CAF      PRIO30                                #  JOB REQUEST, TO SET UP STROKE TEST,
000638: 43,2520           05134                           TC       NOVAC                                 #        INCLUDING INITIALIZATIONS
000639: 43,2521  E6,1574                                  EBANK=   STROKER
000640: 43,2521           03501 40106                     2CADR    STRKTSTI
000641:
000642: 43,2523           02121                           TC       GOPIN
000643:
000644:                                                                                                  #  STABLISH      VERB 46         DESCRIPTION
000645:                                                                                                  #        ESTABLISH G AND N AUTOPILOT CONTROL
000646:                                                                                                  #        1.      SETS UP EITHER RCS, ENTRY, OR SATURN
000647:                                                                                                  #        2.      IF TVC IS ON, SETS UP CSM/LM SWITCH-OVER
000648:                                                                                                  #                        FROM HIGH BW TO LOW BW
000649:
000650:
000651: 43,2524           35057        STABLISH           CAF      EBANK6                                #  V46 - SET EBANK TO E6
000652: 43,2525           54003                           TS       EBANK
000653:
000654: 43,2526           40102                           CS       FLAGWRD6                              #  TEST FOR TVC
000655: 43,2527           74105                           MASK     OCT60000
000656: 43,2530           00006                           EXTEND


000659: 43,2531           62541                           BZMF     +8D
000660:
000661: 43,2532           31466                           CAE      DAPDATR1                              #  TET FOR CSM/LM
000662: 43,2533           75002                           MASK     BIT14
000663: 43,2534           00006                           EXTEND
000664: 43,2535           62540                           BZMF     +3
000665:
000666: 43,2536           04701                           TC       POSTJUMP                              #  CSM/LM, SO PERFORM HB TO LB SWITCH-OVER
000667: 43,2537           36351                           CADR     PRESWTCH
000668:
000669: 43,2540           02120                 +3        TC       ALM/END
000670:
000671: 43,2541           04701                 +8        TC       POSTJUMP                              #  SET UP RCS, ENTRY, OR SATURN-STICK DAP
000672: 43,2542           65606                           CADR     DAPFIG


000674:                                                                                                  #  CREMANU       VERB 49         DESCRIPTION
000675:                                                                                                  #        START AUTOMATIC ATTITUDE MANEUVER
000676:
000677:                                                                                                  #        1.      REQUIRE PROGRAM 00 ACTIVE.
000678:                                                                                                  #        2.      SET EXT VERB DISPLAY BUSY FLAG.
000679:                                                                                                  #        3.      SCHEDULE R62DISP WITH PRIORITY 10.
000680:                                                                                                  #        4.      RELEASE EXT VERB DISPLAY.
000681:
000682:                                                                                                  #        R62DISP
000683:                                                                                                  #        1.      DISPLAY FLASHING V06,N22 (DECIMAL DISPLAY NEW ICDU ANGLES).  UPON IMMEDIATE RETURN, SET-UP GROUP
000684:                                                                                                  #                4 FOR RESTART OF DISPLAY SEQUENCE.
000685:                                                                                                  #                RESPONSES
000686:                                                                                                  #                A.      TERMINATE
000687:                                                                                                  #                        1.      GOTOP00H
000688:                                                                                                  #                B.      PROCEED
000689:                                                                                                  #                        1.      SET 3AXISFLG TO INDICATE MANEUVER IS SPECIFIED BY 3 AXIS.
000690:                                                                                                  #                        2.      EXECUTE R60CSM (ATTITUDE MANEUVER).
000691:                                                                                                  #                        3.      ZERO GROUP 4 (END R62).
000692:                                                                                                  #                C.      ENTER
000693:                                                                                                  #                        1.      REPEAT FLASHING V06,N22.
000694:
000695: 43,2543           02730        CREWMANU           TC       CHKP00H                               #  DEMAND P00
000696:
000697: 43,2544           02076                           TC       TESTXACT
000698:
000699: 43,2545           35003                           CAF      PRIO10
000700: 43,2546           05147                           TC       FINDVAC
000701: 43,2547     1155                                  EBANK=   CPHI
000702: 43,2547           02330 56102                     2CADR    R62DISP
000703:
000704: 43,2551           05217                           TC       ENDOFJOB
000705:


000707:                                                                                                  #  DAPDISP       VERB 48         DESCRIPTION
000708:                                                                                                  #        LOAD AUTOPILOT DATA (ROUTINE R03)
000709:
000710:                                                                                                  #        0.      CHECKFAIL AND RETURN IF TVC.
000711:                                                                                                  #        1.      REQUIRE EXT VERB DISPLAY AVAILABLE AND SET BUSY FLAG.
000712:                                                                                                  #        2.      LOWER PRIORITY TO 10.
000713:                                                                                                  #        3.      DISPLAY FLASHING V04,N46 (DISPLAY AUTOPILOT CONFIGURATION).
000714:                                                                                                  #        4.      UPON PROCEED RESPONSE, EXECUTE S41.2.
000715:                                                                                                  #        5.      DISPLAY FLASHING V06,N47 (DISPLAY CSM WGT., LEM WGT.)
000716:                                                                                                  #        6.      UPON PROCEED RESPONSE EXECUTE S40.14.
000717:                                                                                                  #        7.      DISPLAY FLASHING V06,N48 (DISPLAY PITCH TRIM, YAW TRIM)
000718:                                                                                                  #        8.      UPON PROCEED RESPONSE, RELEASE EXTENDED VERB DISPLAY SYSTEM.
000719:
000720: 43,2552                                           COUNT*   $$/EXTVB
000721:
000722: 43,2552           40102        DAPDISP            CS       FLAGWRD6
000723: 43,2553           74105                           MASK     OCT60000
000724: 43,2554           00006                           EXTEND
000725: 43,2555           62557                           BZMF     +2                                    #  TVC = 10, CS YIELDS 01, BZMF TO CONTINUE
000726: 43,2556           02120                           TC       ALM/END                               #  RETURN IF TVC
000727:
000728: 43,2557           02076                           TC       TESTXACT
000729: 43,2560           04662                           TC       BANKCALL
000730: 43,2561           64000                           CADR     DAPDISP1
000731: 42,2000                                           BANK     42
000732: 42,2000                                           SETLOC   EXTVBS
000733: 42,2000                                           BANK
000734: 42,2000                                           COUNT    24/R03
000735:
000736: 42,2000           35057        DAPDISP1           CAF      EBANK6
000737: 42,2001           54003                           TS       EBANK
000738:
000739: 42,2002           35003                           CAF      PRIO10
000740: 42,2003           05210                           TC       PRIOCHNG
000741:
000742: 42,2004           32061        DONOUN46           CAF      V04N46                                #        R1              R2
000743: 42,2005           04662                           TC       BANKCALL                              #        DAPDATR1        DAPDATR2
000744: 42,2006           20561                           CADR     GOXDSPF                               #  GOXDSP ROUTINES USED FOR EXTENDED VERBS.
000745:
000746: 42,2007           05534                           TC       ENDEXT                                #  EXT. VBS GO TO ENDEXT, NOT ENDOFJOB.
000747: 42,2010           02012                           TC       +2
000748: 42,2011           02004                           TC       DONOUN46
000749:
000750: 42,2012           31466                           CA       DAPDATR1
000751: 42,2013           75014                           MASK     BIT4
000752: 42,2014           10000                           CCS      A
000753: 42,2015           12054                           TCF      MAXIN
000754: 42,2016           05560                           TC       DOWNFLAG
000755: 42,2017           00212                           ADRES    MAXDBFLG
000756: 42,2020           04662        MAXOUT             TC       BANKCALL
000757: 42,2021           40347                           CADR     S41.2
000758:
000759: 42,2022           32060        DONOUN47           CAF      V06N47                                #        R1              R2              R3


000761: 42,2023           04662                           TC       BANKCALL                              #        CSM WGT.        LEM WGT.        BLANK
000762: 42,2024           20561                           CADR     GOXDSPF
000763:
000764: 42,2025           05534                           TC       ENDEXT
000765: 42,2026           02030                           TC       +2
000766: 42,2027           02022                           TC       DONOUN47
000767: 42,2030           31466                           CAE      DAPDATR1                              #  DO MASS PROPERTIES CALCULATION ONLY IF
000768: 42,2031           74371                           MASK     PRIO30                                #  CONFIG = 1(CSM), 2 (CSM/LM), 6(CSM/LMA)
000769: 42,2032           00006                           EXTEND
000770: 42,2033           12046                           BZF      DONOUN48                              #  SKIP IF 0,4
000771: 42,2034           40000                           COM
000772: 42,2035           74371                           MASK     PRIO30
000773: 42,2036           00006                           EXTEND
000774: 42,2037           12046                           BZF      DONOUN48                              #  SKIP IF 3,7
000775: 42,2040           00004                           INHINT
000776: 42,2041           04740                           TC       IBNKCALL
000777: 42,2042           13366                           CADR     MASSPROP                              #  UPDATE IXX, IAVG, IAVG/TLX
000778:
000779: 42,2043           00003                           RELINT
000780: 42,2044           04662                           TC       BANKCALL
000781: 42,2045           40500                           CADR     S40.14                                #  COMPUTE RCS DAP STUFF
000782:
000783: 42,2046           32057        DONOUN48           CAF      V0648                                 #        R1              R2              R3
000784: 42,2047           04662                           TC       BANKCALL                              #        PTRIM           YTRIM           BLANK
000785: 42,2050           20561                           CADR     GOXDSPF
000786:
000787: 42,2051           05534                           TC       ENDEXT
000788: 42,2052           05534                           TC       ENDEXT
000789: 42,2053           02046                           TC       DONOUN48
000790:
000791: 42,2054           05546        MAXIN              TC       UPFLAG
000792: 42,2055           00212                           ADRES    MAXDBFLG
000793: 42,2056           02020                           TC       MAXOUT
000794:
000795: 42,2057           01460        V0648              VN       0648
000796: 42,2060           01457        V06N47             VN       0647
000797: 42,2061           01056        V04N46             VN       0446
000798: 43,2562                                           BANK     43
000799: 43,2000                                           SETLOC   EXTVERBS
000800: 43,2000                                           BANK
000801:
000802: 43,2562                                           COUNT*   $$/EXTVB
000803:
000804:                                                                                                  #  V82PERF       VERB82          DESCRIPTION
000805:                                                                                                  #        REQUEST ORBIT PARAMETERS DISPLAY (R30)
000806:
000807:                                                                                                  #        1.      IF AVERAGE G IS OFF:
000808:                                                                                                  #                        FLASH DISPLAY V04N06.  R2 INDICATES WHICH SHIP'S STATE VECTOR IS
000809:                                                                                                  #                         TO BE UPDATED.  INITIAL CHOICE IS THIS SHIP (R2=1).  ASTRONAUT
000810:                                                                                                  #                         CAN CHANGE TO OTHER SHIP BY V22EXE, WHERE X NOT EQ I.
000811:                                                                                                  #                        SELECTED STATE VECTOR UPDATED BY THISPREC (OTHPREC).
000812:                                                                                                  #                        CALLS SR30.1 (WHICH CALLS TFFCONMU + TFFRP/RA) TO CALCULATE


000814:                                                                                                  #                         RPER (PERIGEE RADIUS), RAP0 (APOGEE RADIUS), HPER (PERIGEE
000815:                                                                                                  #                         HEIGHT ABOVE LAUNCH PAD OR LUNAR LANDING SITE), HAPO (APOGEE
000816:                                                                                                  #                         HEIGHT AS ABOVE), TPER (TIME TO PERIGEE), TFF (TIME TO
000817:                                                                                                  #                         INTERSECT 300 KFT ABOVE PAD OR 35KFT ABOVE LANDING SITE).
000818:                                                                                                  #                        FLASH MONITOR V16N44 (HAPO, HPER, TFF).  TFF IS -59M59S IF IT WAS
000819:                                                                                                  #                         NOT COMPUTABLE, OTHERWISE IT INCREMENTS ONCE PER SECOND.
000820:                                                                                                  #                         ASTRONAUT HAS OPTION TO MONITOR TPER BY KEYING IN N 32 E.
000821:                                                                                                  #                         DISPLAY IS IN HMS, IS NEGATIVE (AS WAS TFF), AND INCREMENTS
000822:                                                                                                  #                         ONCE PER SECOND ONLY IF TFF DISPLAY WAS -59M59S.
000823:
000824:                                                                                                  #        2.      IF AVERAGE G IS ON:
000825:                                                                                                  #                        CALLS SR30.1 APPROX EVERY TWO SECS.  STATE VECTOR IS ALWAYS
000826:                                                                                                  #                         FOR THIS VEHICLE.  V82 DOES NOT DISTURB STATE VECTOR.  RESULTS
000827:                                                                                                  #                         OF SR30.1 ARE RAPO, RPER, HAPO, HPER, TPER, TFF.
000828:                                                                                                  #                        FLASH MONITOR V16N44 (HAPO, HPER, TFF).
000829:                                                                                                  #                         IF MODE IS P11, THEN CALL DELRSPL SO ASTRONAUT CAN MONITOR
000830:                                                                                                  #                         RESULTS BY N50E.  SPLASH COMPUTATION DONE ONCE PER TWO SECS.
000831:
000832:                                                                                                  #  ADDENDUM:     HAPO AND HPER SHOULD BE CHANGED TO READ HAPOX AND HPERX IN THE
000833:                                                                                                  #                ABOVE REMARKS.
000834:
000835: 43,2562           02076        V82PERF            TC       TESTXACT
000836:
000837: 43,2563           35063                           CAF      PRIO7
000838: 43,2564           05210                           TC       PRIOCHNG
000839: 43,2565           04701                           TC       POSTJUMP
000840: 43,2566           46332                           CADR     V82CALL                               #  ***** V82CALL MUST NOT BE A FINDVAC JOB.
000841:
000842:                                                                                                  #  VB83PERF      VERB 83         DESCRIPTION
000843:                                                                                                  #        REQUEST RENDEZVOUS PARAMETER DISPLAY (R31)
000844:
000845:                                                                                                  #        1.      SET EXT VERB DISPLAY BUSY FLAG.
000846:                                                                                                  #        2.      SCHEDULE V83CALL WITH PRIORITY 10.
000847:                                                                                                  #                A.      DISPLAY
000848:                                                                                                  #                        R1      RANGE
000849:                                                                                                  #                        R2      RANGE RATE
000850:                                                                                                  #                        R3      THETA
000851:
000852: 43,2567           02076        V83PERF            TC       TESTXACT
000853: 43,2570           00004                           INHINT
000854: 43,2571           40105                           CS       FLAGWRD9                              #  SET R31 FLAG-BIT 4 FLAGWRD9
000855: 43,2572           75014                           MASK     R31FLBIT
000856: 43,2573           26105                           ADS      FLAGWRD9
000857: 43,2574           35061                           CAF      PRIO5
000858: 43,2575           05134                           TC       NOVAC
000859: 43,2576  E4,1770                                  EBANK=   SUBEXIT
000860: 43,2576           02000 62064                     2CADR    R31CALL
000861:
000862: 43,2600           05217                           TC       ENDOFJOB
000863:


000865: 43,2601           02076        V85PERF            TC       TESTXACT
000866: 43,2602           00004                           INHINT
000867: 43,2603           45014                           CS       R31FLBIT                              #  RESET R31 FLAG TO INDICATE R34
000868: 43,2604           70105                           MASK     FLAGWRD9
000869: 43,2605           54105                           TS       FLAGWRD9
000870: 43,2606           02574                           TC       V83PERF    +5


000872:                                                                                                  #        GOTOR21         VERB 57
000873:                                                                                                  #        GOTOR23-        VERB 54         DESCRIPTION
000874:                                                                                                  #  SET UP MARKING FOR R22 (REND TRACK DATA PROC)
000875:                                                                                                  #  1.    SET EXT VERB DISPLAY BUSY FLAG
000876:                                                                                                  #  2.    IF REND (P20 RUNNING) + TRACK (TRACKING ALLOWED) FLAGS ARE SET,
000877:                                                                                                  #        SCHEDULE R21 OR R23 WITH PRIORITY 16, OTHERWISE TURN ON ALARM 406
000878:                                                                                                  #  3.    RELEASE EXT VERB DISPLAY SYSTEM
000879:
000880: 43,2607           05560        GOTOR21            TC       DOWNFLAG                              #  CLEAR R23FLG
000881: 43,2610           00025                           ADRES    R23FLG                                #  BIT 9 FLAG 1
000882: 43,2611           02614                           TC       +3
000883: 43,2612           05546        GOTOR23            TC       UPFLAG                                #  SET R23FLG
000884: 43,2613           00025                           ADRES    R23FLG                                #  BIT 9 FLAG 1
000885: 43,2614           02076                           TC       TESTXACT
000886: 43,2615           30074                           CA       FLAGWRD0                              #  VB 57 UNACCEPTABLE UNLESS BOTH
000887: 43,2616           75011                           MASK     RNDVZBIT                              #        RENDEZVOUS AND TRACK FLAGS ON
000888: 43,2617           00006                           EXTEND
000889: 43,2620           12643                           BZF      R22ALARM
000890:
000891: 43,2621           30075                           CA       FLAGWRD1
000892: 43,2622           75013                           MASK     TRACKBIT
000893: 43,2623           00006                           EXTEND
000894: 43,2624           12643                           BZF      R22ALARM
000895:
000896: 43,2625           30075                           CA       FLAGWRD1                              #  TEST R23FLG
000897: 43,2626           75007                           MASK     R23BIT
000898: 43,2627           00006                           EXTEND
000899: 43,2630           12636                           BZF      REGR21                                #  R21
000900: 43,2631           35070                           CAF      PRIO16
000901: 43,2632           05134                           TC       NOVAC
000902: 43,2633  E7,1725                                  EBANK=   MRKBUF1
000903: 43,2633           02470 76067                     2CADR    R23CSM
000904:
000905: 43,2635           05217                           TC       ENDOFJOB
000906: 43,2636           35070        REGR21             CAF      PRIO16
000907: 43,2637           05134                           TC       NOVAC
000908: 43,2640  E7,1725                                  EBANK=   MRKBUF1
000909: 43,2640           02466 76067                     2CADR    R21CSM
000910:
000911: 43,2642           05217                           TC       ENDOFJOB
000912: 43,2643           05650        R22ALARM           TC       ALARM                                 #  VERB 57 WAS SELECTED AND NEITHER REND
000913: 43,2644           00406                           OCT      00406                                 #        NOR TRACK FLAG WERE ON.
000914: 43,2645           05534                           TC       ENDEXT
000915:


000917:                                                                                                  #  VERB 86       DESCRIPTION
000918:                                                                                                  #        V86 IS TO R23 AS MARK REJECT IS TO R21
000919:                                                                                                  #        V86 IS THE MARK REJECT FOR R23 (THE BACKUP MARKING ROUTINE)
000920:
000921: 43,2646  E7,1725                                  EBANK=   MRKBUF1
000922: 43,2646           35060        V86PERF            CAF      EBANK7                                #  BACKUP MARK REJECT (R23)
000923: 43,2647           56003                           XCH      EBANK
000924: 43,2650           37716                           CA       NEGONE
000925: 43,2651           55725                           TS       MRKBUF1
000926: 43,2652           02121                           TC       GOPIN
000927:


000929:                                                                                                  #  TRACKTRM      VERB 56         DESCRIPTION
000930:                                                                                                  #        TERMINATE TRACKING (P20)
000931:                                                                                                  #        1.      KNOCK DOWN RENDEZVOUS, TRACK, AND UPDATE FLAGS.
000932:                                                                                                  #        2.      REQUIRE P20 NOT RUNNING ALONE OR GO TO GOTOP00H (REQUEST PROGRAM 00).
000933:                                                                                                  #        3.      REQUIRE R22 RUNNING OR GO TO PINBRNCH.
000934:                                                                                                  #        4.      IF INTEGRATION RUNNING, STALL UNTIL IT IS COMPLETED, THEN ZERO GROUPS 2 AND 3 TO KILL R21 + R22
000935:                                                                                                  #        3.      KNOCK DOWN RENDEZFOUS, R22, R21, TRACK, UPDATE, AND TARG1 FLAGS.
000936:                                                                                                  #        4.      GO TO ENEMA (SOFTWARE RESTART).
000937:                                                                                                  #        REFERENCE
000938:                                                                                                  #                P20     RENDEZVOUS      NAVIGATION
000939:                                                                                                  #                R21     RENDEZVOUS      TRACKING SIGHTING MARK.
000940:                                                                                                  #                R22     RENDEZVOUS      TRACKING DATA PROCESSING.
000941:
000942: 43,2653           35011        TRACKTRM           CA       RNDVZBIT                              #  IS REND FLAG ON
000943: 43,2654           70074                           MASK     FLAGWRD0
000944: 43,2655           00006                           EXTEND
000945: 43,2656           12121                           BZF      GOPIN                                 #  NO
000946:
000947: 43,2657           05560                           TC       DOWNFLAG
000948: 43,2660           00010                           ADRES    RNDVZFLG
000949:
000950: 43,2661           35013                           CA       TRACKBIT                              #  IS TRACK FLAG ON
000951: 43,2662           70075                           MASK     FLAGWRD1
000952: 43,2663           00006                           EXTEND
000953: 43,2664           12121                           BZF      GOPIN                                 #  NO
000954:
000955: 43,2665           05560                           TC       DOWNFLAG
000956: 43,2666           00031                           ADRES    TRACKFLG
000957:
000958: 43,2667           05560                           TC       DOWNFLAG
000959: 43,2670           00027                           ADRES    UPDATFLG
000960:
000961: 43,2671           05560                           TC       DOWNFLAG
000962: 43,2672           00007                           ADRES    IMUSE
000963:
000964: 43,2673           35057                           CAF      EBANK6
000965: 43,2674           54003                           TS       EBANK
000966:
000967: 43,2675           00004                           INHINT
000968: 43,2676           04526                           TC       STOPRATE
000969:
000970: 43,2677           37716                           CAF      NEGONE
000971: 43,2700           55303                           TS       OPTIND
000972:
000973: 43,2701           06006                           TC       INTPRET
000974: 43,2702           77624                           CALL
000975: 43,2703           27442                                    INTSTALL                              #  DON'T INTERRUPT INTEGRATION
000976: 43,2704           77776                           EXIT
000977:
000978: 43,2705           05372                           TC       2PHSCHNG


000980: 43,2706           00002                           OCT      2                                     #  KILL GROUP 2 TO HALT P20 ACTIVITY
000981: 43,2707           00001                           OCT      1                                     #  ALSO KILL GROUP 1
000982:
000983: 43,2710           00004        CLEANOUT           INHINT
000984: 43,2711           04701                           TC       POSTJUMP
000985: 43,2712           12651                           CADR     ENEMA                                 #  CAUSE RESTART
000986:
000987:                                                                                                  #  LEMVEC        VERB 80         DESCRIPTION
000988:                                                                                                  #        UPDATE LEM STATE VECTOR
000989:                                                                                                  #                RESET VEHUPFLG TO 0
000990:
000991: 43,2713           05560        LEMVEC             TC       DOWNFLAG
000992: 43,2714           00026                           ADRES    VEHUPFLG                              #  VEHUPFLG DOWN INDICATES LEM
000993:
000994: 43,2715           12121                           TCF      GOPIN
000995:
000996:                                                                                                  #  CSMVEC        VERB 81         DESCRIPTION
000997:                                                                                                  #        UPDATE CSM STATE VECTOR
000998:                                                                                                  #                SET VEHUPFLG TO 1
000999:
001000: 43,2716           05546        CSMVEC             TC       UPFLAG
001001: 43,2717           00026                           ADRES    VEHUPFLG                              #  VEHUPFLG UP INDICATES CM
001002:
001003: 43,2720           12121                           TCF      GOPIN
001004:
001005:                                                                                                  #  DNEDUMP       VERB 74         DESCRIPTION
001006:                                                                                                  #        INITIALZE DOWN-TELEMETRY PROGRAM FOR ERASABLE MEMORY DUMP.
001007:
001008:                                                                                                  #        1.      SET EXT VERB DISPLAY BUSY FLAG.
001009:                                                                                                  #        2.      REPLACE CURRENT DOWNLIST WITH ERASABLE MEMORY.
001010:                                                                                                  #        3.      RELEASE EXT VERB DISPLAY.
001011:
001012: 43,2721     0010                                  EBANK=   10
001013: 43,2721           32724        DNEDUMP            CAF      LDNDUMPI
001014: 43,2722           54335                           TS       DNTMGOTO
001015: 43,2723           02121                           TC       GOPIN
001016:
001017: 43,2724  43,2721               V74                EQUALS   DNEDUMP
001018: 43,2724           03722        LDNDUMPI           REMADR   DNDUMPI
001019:
001020:                                                                                                  #  LFTFLGON      VERB 75         DESCRIPTION
001021:                                                                                                  #        SET LIFT-OFF FLAG
001022:                                                                                                  #        1.      SETUP GRRBKFLG, GUIDANCE REFERENCE RELEASE BACK-UP FLAG.
001023:                                                                                                  #        2.      RETURN VIA PINBRNCH
001024:
001025: 43,2725           05546        LFTFLGON           TC       UPFLAG                                #  VB 75 -- SET LIFTOFF FLAG BIT
001026: 43,2726           00125                           ADRES    GRRBKFLG                              #  BIT 5 FLAG 5
001027: 43,2727           02121                           TC       GOPIN
001028:


001030: 43,2730           31011        CHKP00H            CA       MODREG
001031: 43,2731           00006                           EXTEND
001032: 43,2732           16711                           BZF      TCQ
001033: 43,2733           12120                           TCF      ALM/END
001034:
001035: 43,2734           00006        EXDAPOFF           EXTEND
001036: 43,2735           32744                           DCA      IDLECADR                              #  SET T5 TO IDLE.
001037: 43,2736           53313                           DXCH     T5LOC
001038: 43,2737           44105                           CS       OCT60000
001039: 43,2740           70102                           MASK     FLAGWRD6                              #  RESET DAPBITS 1 AND 2.
001040: 43,2741           54102                           TS       FLAGWRD6
001041: 43,2742           00002                           TC       Q
001042:
001043: 43,2743  E6,1423                                  EBANK=   PACTOFF
001044: 43,2743           03153 12106  IDLECADR           2CADR    T5IDLOC
001045:


001047:                                                                                                  #  VERB 89       DESCRIPTION     RENDEZVOUS FINAL ATTITUDE ROUTINE (R63)
001048:                                                                                                  #
001049:                                                                                                  #  CALLED BY VERB 89 ENTER DURING P00.  PRIO 10 IS USED.  CALCULATES AND
001050:                                                                                                  #  DISPLAYS FINAL GIMBAL ANGLES TO POINT CSM +X AXIS OR PREFERRED AXIS
001051:                                                                                                  #  (UNIT(Z)COS55 DEG + UNIT(X)SIN55 DEG) AT LM.
001052:
001053:                                                                                                  #  1. KEY IN V 89 E ONLY IF IN PROG 00.  IF NOT IN P00, OPERATOR ERROR AND
001054:                                                                                                  #  EXIT R63, OTHERWISE CONTINUE.
001055:
001056:                                                                                                  #  2. IF IN P00, DO IMU STATUS CHECK ROUTINE (R02BOTH).  IF IMU ON AND ITS
001057:                                                                                                  #  ORIENTATION KNOWN TO CGC, CONTINUE.
001058:
001059:                                                                                                  #  3. FLASH DISPLAY V 04 N 06.  R2 INDICATES WHICH SPACECRAFT AXIS IS TO
001060:                                                                                                  #  BE POINTED AT LM.  INITIAL CHOICE IS PREFERRED AXIS (R2=1).
001061:                                                                                                  #  ASTRONAUT CAN CHANGE TO (+X) AXIS (R2 NOT = 1) BY V 22 E 2 E.  CONTINUE
001062:                                                                                                  #  AFTER KEYING IN PROCEED.
001063:
001064:                                                                                                  #  4. SET PREFERRED ATTITUDE FLAG ACCORDING TO OPTION DESIRED.  SET FLAG
001065:                                                                                                  #  FOR PREFERRED AXIS.  RESET FLAG FOR X AXIS.
001066:
001067:                                                                                                  #  5. CURRENT TIME IS STORED AND R63COMP IS CALLED
001068:
001069:                                                                                                  #        R63COMP JOB:
001070:
001071:                                                                                                  #                UPDATES CSM AND LM STATE VECTORS USING CONIC EQUATIONS.
001072:
001073:                                                                                                  #                CALCULATES BOTH PREFERRED AND X AXIS TRACKING ATT FROM CSM TO LM.
001074:
001075:                                                                                                  #                DESIRED GIMBAL ANGLES AS INDICATED BY PREFERRED ATTITUDE FLAG
001076:                                                                                                  #                ARE STORED FOR LATER R60CSM CALL.
001077:
001078:                                                                                                  #  6.  FLASH DISPLAY V 06 N18 AND AWAIT RESPONSE.
001079:
001080:                                                                                                  #  7.  RECYCLE:  RETURN TO STEP 5.
001081:                                                                                                  #      TERMINATE:  EXIT R63 ROUTINE
001082:                                                                                                  #      PROCEED:  RESET 3AXISFLG AND CALL R60CSM FOR ATTITUDE MANEUVER.
001083:
001084: 43,2745           02730        V89PERF            TC       CHKP00H                               #  DEMAND P00
001085: 43,2746           02076                           TC       TESTXACT
001086: 43,2747           00004                           INHINT
001087: 43,2750           35003                           CAF      PRIO10
001088: 43,2751           05147                           TC       FINDVAC
001089: 43,2752  E4,1715                                  EBANK=   P21TIME
001090: 43,2752           03712 70064                     2CADR    V89CALL
001091:
001092: 43,2754           15217                           TCF      ENDOFJOB
001093:
001094: 43,2755           05560        WMATRXNG           TC       DOWNFLAG                              #  RESET RENDWFLAG
001095: 43,2756           00131                           ADRES    RENDWFLG


001097:
001098: 43,2757           05560                           TC       DOWNFLAG                              #  RESET ORBWFLAG
001099: 43,2760           00066                           ADRES    ORBWFLAG
001100: 43,2761           02121                           TC       GOPIN
001101:
001102: 43,2762  43,2762               GOSHOSUM           EQUALS   SHOWSUM
001103:
001104: 43,2762           02730        SHOWSUM            TC       CHKP00H
001105: 43,2763           02076                           TC       TESTXACT                              #  *
001106: 43,2764           35017                           CAF      S+1                                   #  *
001107: 43,2765           55376                           TS       SKEEP6                                #  * SHOWSUM OPTION
001108: 43,2766           35021                           CAF      S+ZERO                                #  *
001109: 43,2767           55362                           TS       SMODE                                 #  * TURN OFF SELF-CHECK
001110: 43,2770           33247                           CA       SELFADRS                              #  *
001111: 43,2771           55361                           TS       SELFRET                               #  *
001112: 43,2772           03524                           TC       STSHOSUM                              #  * ENTER ROPECHK
001113:
001114: 43,2773           23372        SDISPLAY           LXCH     SKEEP2                                #  * BNK NO FOR DSP
001115: 43,2774           23373                           LXCH     SKEEP3                                #  * BUGGER WORD FOR DSP
001116: 43,2775           33246        NOKILL             CA       ADRS1                                 #  *
001117: 43,2776           54156                           TS       MPAC       +2                         #  *
001118: 43,2777           33010                           CA       VNCON                                 #  * 0501
001119: 43,3000           04662                           TC       BANKCALL                              #  *
001120: 43,3001           20561                           CADR     GOXDSPF                               #  *
001121: 43,3002           03005                           TC       +3                                    #  *
001122: 43,3003           03635                           TC       NXTBNK                                #  *
001123: 43,3004           02775                           TC       NOKILL                                #  *
001124: 43,3005           33247                           CA       SELFADRS
001125: 43,3006           55371                           TS       SKEEP1
001126:
001127: 43,3007           05534                           TC       ENDEXT                                #  *
001128:
001129: 43,3010           01201        VNCON              VN       501                                   #  *
001130:
001131: 43,3011           31376        ENDSUMS            CA       SKEEP6                                #  *
001132: 43,3012           00006                           EXTEND                                         #  *
001133: 43,3013           13340                           BZF      SELFCHK                               #  * ROPECHK, START SELFCHK AGAIN.
001134: 43,3014           03524                           TC       STSHOSUM                              #  * START SHOWSUM AGAIN.
001135:
001136:
001137:                                                                                                  #  VB 76 --- SET PREFERRED ATTITUDE FLAG --- DRIVE TO PREFERRED.
001138:
001139: 43,3015           05546        SETPRFLG           TC       UPFLAG
001140: 43,3016           00120                           ADRES    PRFTRKAT                              #  BIT 10 FLAG 5
001141: 43,3017           02121                           TC       GOPIN
001142:
001143:                                                                                                  #  VB 77 --- RESET PREFERRED ATTITUDE FLAG --- DRIVE TO +X-AXIS ATT.
001144:
001145: 43,3020           05560        RESETPRF           TC       DOWNFLAG
001146: 43,3021           00120                           ADRES    PRFTRKAT                              #  BIT 10 FLAG 5
001147: 43,3022           02121                           TC       GOPIN
001148:


001150:                                                                                                  #  VB 87 --- SET VHF RANGE FLAG --- ALLOWS R22 TO ACCEPT RANGE DATA.
001151:
001152: 43,3023           06006        SETVHFLG           TC       INTPRET
001153: 43,3024           77414                           SET      EXIT
001154: 43,3025           04466                                    VHFRFLAG
001155: 43,3026           02121                           TC       GOPIN
001156:
001157:                                                                                                  #  VB 88 --- RESET VHF RANGE FLAG --- STOPS ACCEPTANCE OF RANGE DATA.
001158:
001159: 43,3027           06006        RESETVHF           TC       INTPRET
001160: 43,3030           77414                           CLEAR    EXIT
001161: 43,3031           04666                                    VHFRFLAG
001162: 43,3032           05631                           TC       TRFAILOF                              #  TRACKER FAIL LIGHT
001163:
001164: 43,3033           02121                           TC       GOPIN
001165:
001166:                                                                                                  #  VERB 66.      VEHICLES ARE ATTACHED. --- MOVE THIS VEHICLE STATE VECTOR TO
001167:                                                                                                  #                OTHER VEHICLE STATE VECTOR.
001168:
001169:                                                                                                  #  USE SUBROUTINE GENTRAN.
001170:
001171: 43,3034  E3,1554                                  EBANK=   RRECTHIS
001172: 43,3034           35003        ATTACHED           CAF      PRIO10
001173: 43,3035           05147                           TC       FINDVAC
001174: 43,3036  E3,1554                                  EBANK=   RRECTHIS
001175: 43,3036           03041 66103                     2CADR    ATTACHIT
001176:
001177: 43,3040           05217                           TC       ENDOFJOB
001178:
001179: 43,3041           06006        ATTACHIT           TC       INTPRET
001180: 43,3042           77624                           CALL
001181: 43,3043           27442                                    INTSTALL
001182: 43,3044           43014                           SET      BON
001183: 43,3045           04064                                    MOONOTH
001184: 43,3046           04303                                    MOONTHIS
001185: 43,3047           67052                                    +3
001186: 43,3050           77614                           CLEAR
001187: 43,3051           04264                                    MOONOTH
001188: 43,3052           77776                           EXIT
001189: 43,3053           33100                           CAF      OCT51
001190: 43,3054           05606                           TC       GENTRAN
001191: 43,3055           01554                           ADRES    RRECTHIS                              #  OUR STATE VECTOR INTO OTHER VIA GENTRAN
001192: 43,3056           01626                           ADRES    RRECTOTH
001193:
001194: 43,3057           00003        TACHEXIT           RELINT
001195: 43,3060           06006                           TC       INTPRET
001196: 43,3061           77624                           CALL                                           #  UPDATE RN, VN, R-OTHER, V-OTHER
001197: 43,3062           26731                                    PTOACSM


001199: 43,3063           45154                           LXA,2    CALL
001200: 43,3064           02150                                    PBODY
001201: 43,3065           20237                                    SVDWN1
001202: 43,3066           77624                           CALL
001203: 43,3067           20263                                    SVDWN2
001204: 43,3070           77776                           EXIT
001205:
001206: 43,3071           33101                           CAF      TCPINAD
001207: 43,3072           50120                           INDEX    FIXLOC
001208: 43,3073           54052                           TS       QPRET
001209: 43,3074           04701                           TC       POSTJUMP
001210: 43,3075           27457                           CADR     INTWAKE
001211:
001212: 43,3076           77634        TCPIN              RTB
001213: 43,3077           21272                                    PINBRNCH
001214:
001215: 43,3100           00051        OCT51              OCT      51
001216: 43,3101           67076        TCPINAD            CADR     TCPIN
001217:
001218:                                                                                                  #  VERB 47.  MOVE LM STATE VECTOR INTO CSM STATE VECTOR
001219:
001220: 43,3102           35003        LMTOCMSV           CAF      PRIO10
001221: 43,3103           05147                           TC       FINDVAC
001222: 43,3104  E3,1554                                  EBANK=   RRECTHIS
001223: 43,3104           03107 66103                     2CADR    LMTOCM
001224:
001225: 43,3106           05217                           TC       ENDOFJOB
001226:
001227: 43,3107           06006        LMTOCM             TC       INTPRET
001228: 43,3110           77624                           CALL
001229: 43,3111           27442                                    INTSTALL
001230: 43,3112           43014                           SET      BON
001231: 43,3113           04063                                    MOONTHIS
001232: 43,3114           04304                                    MOONOTH
001233: 43,3115           67120                                    +3
001234: 43,3116           77614                           CLEAR
001235: 43,3117           04263                                    MOONTHIS
001236: 43,3120           77776                           EXIT
001237:
001238: 43,3121           33100                           CAF      OCT51
001239: 43,3122           05606                           TC       GENTRAN
001240: 43,3123           01626                           ADRES    RRECTOTH                              #  LM STATE VECTOR INTO CM VIA GENTRAN
001241: 43,3124           01554                           ADRES    RRECTHIS
001242:
001243: 43,3125           13057                           TCF      TACHEXIT
001244:
001245:                                                                                                  #  VERB 94 --- DO R64 VIA ENEMA TO PICK UP IN P23.
001246:
001247: 43,3126           35005        VERB94             CAF      V94FLBIT
001248: 43,3127           70105                           MASK     FLAGWRD9                              #  IS V94FLAG SET


001250: 43,3130           00006                           EXTEND
001251: 43,3131           12120                           BZF      ALM/END                               #  NO --- OPERATOR ERROR
001252:
001253: 43,3132           05560                           TC       DOWNFLAG
001254: 43,3133           00213                           ADRES    V94FLAG
001255:
001256: 43,3134           05364                           TC       CHECKMM                               #  IS IT P23
001257: 43,3135           00027                           MM       23         B-14
001258: 43,3136           02120                           TC       ALM/END                               #  NO -- OPERATOR ERROR
001259: 43,3137           05412                           TC       PHASCHNG
001260: 43,3140           00112                           OCT      112                                   #  SET GROUP 2 TO DO R64
001261:
001262: 43,3141           02710                           TC       CLEANOUT                              #  CAUSE RESTART
001263:
001264:                                                                                                  #  V90PERF       VERB 90         DESCRIPTION
001265:                                                                                                  #        REQUEST RENDEZVOUS OUT-OF-PLANE DISPLAY (R36)
001266:
001267:                                                                                                  #        1.      SET EXT VERB DISPLAY BUSY FLAG.
001268:                                                                                                  #        2.      SCHEDULE R36 CALL WITH PRIORITY 10
001269:                                                                                                  #                A.      DISPLAY
001270:                                                                                                  #                        TIME OF EVENT -- HOURS, MINUTES, SECONDS
001271:                                                                                                  #                        Y       OUT-OF-PLANE POSITION -- NAUTICAL MILES
001272:                                                                                                  #                        YDOT    OUT-OF-PLANE VELOCITY -- FEET/SECOND
001273:                                                                                                  #                        PSI     ANGLE BTW LINE OF SIGHT AND FORWARD
001274:                                                                                                  #                                DIRECTION VECTOR IN HORIZONTAL PLANE -- DEGREES
001275:
001276: 43,3142           02076        V90PERF            TC       TESTXACT
001277: 43,3143           35063                           CAF      PRIO7                                 #  R36,V90
001278: 43,3144           05147                           TC       FINDVAC
001279: 43,3145  E4,1726                                  EBANK=   RPASS36
001280: 43,3145           02164 40104                     2CADR    R36
001281:
001282: 43,3147           15217                           TCF      ENDOFJOB
001283:
001284:                                                                                                  #  VERB 96  SET QUITFLAG TO STOP INTEGRATION
001285:
001286: 43,3150           05546        VERB96             TC       UPFLAG                                #  QUITFLAG WILL CAUSE INTEGRATION TO EXIT
001287: 43,3151           00221                           ADRES    QUITFLAG                              #        AT NEXT TIMESTEP
001288:
001289: 43,3152           05546                           TC       UPFLAG
001290: 43,3153           00204                           ADRES    V96ONFLG
001291: 43,3154           35021                           CAF      ZERO
001292: 43,3155           04701                           TC       POSTJUMP
001293: 43,3156           10011                           CADR     V37                                   #  GO TO P00
001294:
001295: 43,3157  E5,1751                                  EBANK=   LANDMARK
001296: 43,3157           05364        V52                TC       CHECKMM                               #  IS P22 OPERATING
001297: 43,3160           00026                           MM       22         B-14
001298: 43,3161           02120                           TC       ALM/END                               #  NO
001299: 43,3162           33200                           CAF      LANDBANK
001300: 43,3163           54003                           TS       EBANK
001301:


001303: 43,3164           45063                           CS       PRIO7                                 #  YES   SET BITS 12,11,10 OF LANDMARK =
001304: 43,3165           71751                           MASK     LANDMARK                              #        BITS 14,13,12 OF MARKSTAT AFTER
001305: 43,3166           55751                           TS       LANDMARK                              #        SUBT. THEM FROM 5 TO GET OFFSET
001306: 43,3167           31330                           CA       MARKSTAT                              #        MARK NO.
001307: 43,3170           54021                           TS       SR
001308: 43,3171           30021                           CA       SR
001309: 43,3172           30021                           CA       SR
001310: 43,3173           75063                           MASK     PRIO7
001311: 43,3174           40000                           CS       A
001312: 43,3175           65061                           AD       PRIO5
001313: 43,3176           27751                           ADS      LANDMARK
001314: 43,3177           02121                           TC       GOPIN
001315: 43,3200           02751        LANDBANK           ECADR    LANDMARK
001316:
001317:                                                                                                  #  VERB 67  ASTRONAUT DISPLAY OF W MATRIX
001318:
001319: 43,3201           02076        V67                TC       TESTXACT
001320: 43,3202           35061                           CAF      PRIO5
001321: 43,3203           05147                           TC       FINDVAC
001322: 43,3204  E5,1400                                  EBANK=   W
001323: 43,3204           03624 60105                     2CADR    V67CALL
001324:
001325: 43,3206           05217                           TC       ENDOFJOB
001326:
001327:                                                                                                  #  VB 44. SET SURFACE FLAG.
001328:
001329: 43,3207           05546        SETSURF            TC       UPFLAG
001330: 43,3210           00177                           ADRES    SURFFLAG
001331: 43,3211           12121                           TCF      GOPIN
001332:
001333:                                                                                                  #  VB 45. RESET SURFACE FLAG
001334:
001335: 43,3212           05560        RESTSRF            TC       DOWNFLAG
001336: 43,3213           00177                           ADRES    SURFFLAG
001337: 43,3214           12121                           TCF      GOPIN

End of include-file EXTENDED_VERBS.agc.  Parent file is MAIN.agc


