
Source Code
000001:                                                                                                 #  Copyright:     Public domain.
000002:                                                                                                 #  Filename:      GIMBAL_LOCK_AVOIDANCE.agc
000003:                                                                                                 #  Purpose:       Part of the source code for Comanche, build 055.
000004:                                                                                                 #                 It is part of the source code for the Command Module's (CM)
000005:                                                                                                 #                 Apollo Guidance Computer (AGC), Apollo 11.
000006:                                                                                                 #  Assembler:     yaYUL
000007:                                                                                                 #  Reference:     pp. 412-413
000008:                                                                                                 #  Contact:       Onno Hommes <ohommes@cmu.edu>.
000009:                                                                                                 #  Website:       www.ibiblio.org/apollo.
000010:                                                                                                 #  Mod history:   05/07/09 OH     Transcription Batch 1 Assignment
000011:
000012:                                                                                                 #  The contents of the "Comanche055" files, in general, are transcribed
000013:                                                                                                 #  from scanned documents.
000014:
000015:                                                                                                 #         Assemble revision 055 of AGC program Comanche by NASA
000016:                                                                                                 #         2021113-051.  April 1, 1969.
000017:
000018:                                                                                                 #         This AGC program shall also be referred to as Colossus 2A
000019:
000020:                                                                                                 #         Prepared by
000021:                                                                                                 #                         Massachussets Institute of Technology
000022:                                                                                                 #                         75 Cambridge Parkway
000023:                                                                                                 #                         Cambridge, Massachusetts
000024:
000025:                                                                                                 #         under NASA contract NAS 9-4065.
000026:
000027:                                                                                                 #  Refer directly to the online document mentioned above for further information.
000028:                                                                                                 #  Please report any errors to info@sandroid.org.
000029:
000030:
000031:                                                                                                 #  Page 412
000032: 15,2000                                          BANK     15
000033: 22,2000                                          SETLOC   KALCMON1
000034: 22,2000                                          BANK
000035:
000036: 22,2737  E6,1661                                 EBANK=   BCDU
000037:
000038:                                                                                                 #  DETECTING GIMBAL LOCK
000039: 22,2737  22,2737               LOCSKIRT          EQUALS   WCALC
000040: 22,2737           70740        WCALC             LXC,1    DLOAD*
000041: 22,2740           01130                                   RATEINDX
000042: 22,2741           04771                                   ARATE,1
000043: 22,2742           45002                          SR4      CALL                                  #  COMPUTE THE INCREMENTAL ROTATION MATRIX
000044: 22,2743           44530                                   DELCOMP                               #  DEL CORRESPONDING TO A 1 SEC ROTATION
000045:                                                                                                 #  ABOUT COF
000046: 22,2744           74343                          DLOAD*   VXSC
000047: 22,2745           04771                                   ARATE,1
000048: 22,2746           03343                                   COF
000049: 22,2747           77721                          MXV
000050: 22,2750           05003                                   QUADROT
000051: 22,2751           17311                          STODL    BRATE
000052: 22,2752           03365                                   AM
000053: 22,2753           55605                          DMP      DDV*
000054: 22,2754           05001                                   ANGLTIME
000055: 22,2755           04771                                   ARATE,1
000056: 22,2756           77661                          SR
000057: 22,2757           20606                                   5
000058: 22,2760           27317                          STOVL    TM
000059: 22,2761           03311                                   BRATE
000060: 22,2762           77761                          VXSC
000061: 22,2763           05025                                   BIASCALE
000062: 22,2764           03275                          STORE    BIASTEMP                              #  ATTITUDE ERROR BIAS TO PREVENT OVERSHOOT
000063:                                                                                                 #  IN SYSTEM
000064: 22,2765           77614                          SETGO                                          #  STATE SWITCH CALCMAN2 (43D)
000065: 22,2766           01035                                   CALCMAN2                              #  0(OFF) = BYPASS STARTING PROCEDURE
000066: 22,2767           45032                                   NEWANGL    +1                         #  1(ON) = START MANEUVER
000067:
000068:
000069: 22,2770           00044 15053  ARATE             2DEC     .0022222222                            #  = .05 DEG/SEC
000070:
000071: 22,2772           00221 24255                    2DEC     .0088888889                            #  = .2 DEG/SEC
000072:
000073: 22,2774           00554 02660                    2DEC     .0222222222                            #  = .5 DEG/SEC
000074:
000075: 22,2776           02660 13301                    2DEC     .0888888889                            #  = 2 DEG/SEC                $22.5 DEG/SEC
000076:
000077: 22,3000           00003 04000  ANGLTIME          2DEC     .000190735                            #  = 100B - 19
000078:
000079:                                                                                                 #  MANEUVER ANGLE TO MANEUVER TIME
000080: 22,3002           03146 14632  QUADROT           2DEC     .1                                    #  ROTATION MATRIX FROM S/C AXES TO CONTROL
000081:
000082:                                                                                                 #  Page 413
000083: 22,3004           00000 00000                    2DEC     0          B-28                       #  AXES (X ROT = -7.25 DEG)
000084:
000085: 22,3006           00000 00000                    2DEC     0          B-28
000086:
000087: 22,3010           00000 00000                    2DEC     0          B-28
000088:
000089: 22,3012           03131 11275                    2DEC     .099200                               #  =(.1)COS7.25
000090:
000091: 22,3014           77461 47370                    2DEC     -.012620                              #  =-(.1)SIN7.25
000092:
000093: 22,3016           00000 00000                    2DEC     0          B-28
000094:
000095: 22,3020           00316 30407                    2DEC     .012620                               #  (.1)SIN7.25
000096:
000097: 22,3022           03131 11275                    2DEC     .099200                               #  (.1)COS7.25
000098:
000099: 22,3024           00004 05253  BIASCALE          2DEC     .0002543132                            #  = (450/180)(1/0.6)(1/16384)

End of include-file GIMBAL_LOCK_AVOIDANCE.agc.  Parent file is MAIN.agc


