
Source Code


000002:                                                                                                  ## Copyright:   Public domain.
000003:                                                                                                  ## Filename:    GROUND_TRACKING_DETERMINATION_PROGRAM.agc
000004:                                                                                                  ## Purpose:     Part of the source code for Comanche, build 055.
000005:                                                                                                  ##              It is part of the source code for the Command Module's (CM)
000006:                                                                                                  ##              Apollo Guidance Computer (AGC), Apollo 11.
000007:                                                                                                  ## Assembler:   yaYUL
000008:                                                                                                  ## Reference:   pp. 456-459
000009:                                                                                                  ## Contact:     Onno Hommes <ohommes@cmu.edu>.
000010:                                                                                                  ## Website:     www.ibiblio.org/apollo.
000011:                                                                                                  ## Mod history: 2009-05-07 OH   Transcription Batch 1 Assignment
000012:                                                                                                  ##              2009-05-20 RSB  Corrected a couple of DIMOFLAG to DIM0FLAG.
000013:                                                                                                  ##
000014:                                                                                                  ## The contents of the "Comanche055" files, in general, are transcribed
000015:                                                                                                  ## from scanned documents.
000016:                                                                                                  ##
000017:                                                                                                  ##      Assemble revision 055 of AGC program Comanche by NASA
000018:                                                                                                  ##      2021113-051.  April 1, 1969.
000019:                                                                                                  ##
000020:                                                                                                  ##      This AGC program shall also be referred to as Colossus 2A
000021:                                                                                                  ##
000022:                                                                                                  ##      Prepared by
000023:                                                                                                  ##                      Massachusetts Institute of Technology
000024:                                                                                                  ##                      75 Cambridge Parkway
000025:                                                                                                  ##                      Cambridge, Massachusetts
000026:                                                                                                  ##
000027:                                                                                                  ##      under NASA contract NAS 9-4065.
000028:                                                                                                  ##
000029:                                                                                                  ## Refer directly to the online document mentioned above for further information.
000030:                                                                                                  ## Please report any errors to info@sandroid.org.
000031:


000033:                                                                                                  #  GROUND TRACKING DETERMINATION PROGRAM -- P21
000034:
000035:                                                                                                  #  PROGRAM DESCRIPTION
000036:                                                                                                  #        MOD NO -- 1
000037:                                                                                                  #        MOD BY -- N. M. NEVILLE
000038:
000039:                                                                                                  #  FUNCTIONAL DESCRIPTION --
000040:                                                                                                  #        TO PROVIDE THE ASTRONAUT DETAILS OF THE LM OR CSM GROUND TRACK WITHOUT
000041:                                                                                                  #        THE NEED FOR GROUND COMMUNICATION (REQUESTED BY DSKY).
000042:
000043:                                                                                                  #  CALLING SEQUENCE --
000044:                                                                                                  #        ASTRONAUT REQUEST THROUGH DSKY V37E21E
000045:
000046:                                                                                                  #  SUBROUTINES CALLED --
000047:                                                                                                  #        GOPERF4
000048:                                                                                                  #        GOFLASH
000049:                                                                                                  #        THISPREC
000050:                                                                                                  #        OTHPREC
000051:                                                                                                  #        LAT-LONG
000052:
000053:                                                                                                  #  NORMAL EXIT MODES --
000054:                                                                                                  #        ASTRONAUT REQUEST THROUGH DSKY TO TERMINATE PROGRAM V34E
000055:
000056:                                                                                                  #  ALARM OR ABORT EXIT MODES --
000057:                                                                                                  #        NONE
000058:
000059:                                                                                                  #  OUTPUT --
000060:                                                                                                  #        OCTAL DISPLAY OF OPTION CODE AND VEHICLE WHOSE GROUND TRACK IS TO BE
000061:                                                                                                  #        COMPUTED
000062:                                                                                                  #                OPTION CODE     00002
000063:                                                                                                  #                THIS            00001
000064:                                                                                                  #                OTHER           00002
000065:                                                                                                  #        DECIMAL DISPLAY OF TIME TO BE INTEGRATED TO HOURS , MINUTES , SECONDS
000066:                                                                                                  #        DECIMAL DISPLAY OF LAT,LONG,ALT
000067:
000068:                                                                                                  #  ERASABLE INITIALIZATION REQUIRED
000069:                                                                                                  #        AX0      2DEC   4.652459653 E-5   RADIANS       "68-69 CONSTANTS"
000070:                                                                                                  #        -AY0     2DEC   2.147535898 E-5   RADIANS
000071:                                                                                                  #        AZ0      2DEC   .7753206164       REVOLUTIONS
000072:                                                                                                  #        FOR LUNAR ORBITS 504LM VECTOR IS NEEDED
000073:                                                                                                  #        504LM    2DEC   -2.700340600 E-5  RADIANS
000074:                                                                                                  #        504LM _2 2DEC   -7.514128400 E-4  RADIANS
000075:                                                                                                  #        504LM _4 2DEC   _2.553198641 E-4  RADIANS
000076:
000077:                                                                                                  #        NONE
000078:
000079:                                                                                                  #  DEBRIS
000080:


000082:                                                                                                  #        CENTRALS -- A,Q,L
000083:                                                                                                  #        OTHER -- THOSE USED BY THE ABOVE LISTED SUBROUTINES
000084:                                                                                                  #        SEE LEMPREC, LAT-LONG
000085:
000086: 33,3776  30,2000                                  SBANK=   LOWSUPER                              #  FOR LOW 2CADR'S.
000087:
000088: 33,3776                                           BANK     33
000089: 37,2000                                           SETLOC   P20S
000090: 37,2000                                           BANK
000091:
000092: 37,2001  E4,1715                                  EBANK=   P21TIME
000093: 37,2001                                           COUNT    24/P21
000094:
000095: 37,2001           35017        PROG21             CAF      ONE
000096: 37,2002           55132                           TS       OPTION2                               #  ASSUMED VEHICLE IS LM, R2 = 00001
000097: 37,2003           35016                           CAF      BIT2                                  #   OPTION 2
000098: 37,2004           04662                           TC       BANKCALL
000099: 37,2005           21055                           CADR     GOPERF4
000100: 37,2006           04106                           TC       GOTOP00H                              #  TERMINATE
000101: 37,2007           02011                           TC       +2                                    #  PROCEED VALUE OF ASSUMED VEHICLE OK
000102: 37,2010           02003                           TC       -5                                    #  R2 LOADED THROUGH DSKY
000103: 37,2011           32152        P21PROG1           CAF      V6N34                                 #  LOAD DESIRED TIME OF LAT-LONG.
000104: 37,2012           04662                           TC       BANKCALL
000105: 37,2013           20720                           CADR     GOFLASH
000106: 37,2014           04106                           TC       GOTOP00H                              #  TERM
000107: 37,2015           02017                           TC       +2                                    #  PROCEED VALUES OK
000108: 37,2016           02011                           TC       -5                                    #  TIME LOADED THROUGH DSKY
000109: 37,2017           06006                           TC       INTPRET
000110: 37,2020           77745                           DLOAD
000111: 37,2021           01046                                    DSPTEM1
000112: 37,2022           34041                           STCALL   TDEC1                                 #  INTEG TO TIME SPECIFIED IN TDEC
000113: 37,2023           27442                                    INTSTALL
000114: 37,2024           43014                           BON      SET
000115: 37,2025           01303                                    P21FLAG
000116: 37,2026           76044                                    P21CONT                               #  ON...RECYCLE USING BASE VECTOR
000117: 37,2027           01474                                    VINTFLAG                              #  OFF..1ST PASS CALC BASE VECTOR
000118: 37,2030           70535                           SLOAD    SR1
000119: 37,2031           01133                                    OPTION2
000120: 37,2032           43030                           BHIZ     CLEAR
000121: 37,2033           76035                                    +2                                    #  ZERO..THIS VEHICLE (CM)
000122: 37,2034           01674                                    VINTFLAG                              #  ONE...OTHER VEHICLE(LM)
000123: 37,2035           43014                           CLEAR    CLEAR
000124: 37,2036           01676                                    DIM0FLAG
000125: 37,2037           01673                                    INTYPFLG                              #  PRECISION
000126: 37,2040           77624                           CALL
000127: 37,2041           27162                                    INTEGRV                               #  CALCULATE
000128: 37,2042           77650                           GOTO                                           #  .AND
000129: 37,2043           76065                                    P21VSAVE                              #  ..SAVE BASE VECTOR
000130: 37,2044           77775        P21CONT            VLOAD                                          #  RECYCLE..INTEG FROM BASE VECTOR
000131: 37,2045           03605                                    P21BASER


000133: 37,2046           25535                           STOVL    RCV                                   #  ..POS
000134: 37,2047           03613                                    P21BASEV
000135: 37,2050           15543                           STODL    VCV                                   #  ..VEL
000136: 37,2051           02316                                    P21TIME
000137: 37,2052           01517                           STORE    TET                                   #  ..TIME
000138: 37,2053           43014                           CLEAR    CLEAR
000139: 37,2054           01676                                    DIM0FLAG
000140: 37,2055           00263                                    MOONFLAG
000141: 37,2056           53135                           SLOAD    BZE
000142: 37,2057           03604                                    P21ORIG
000143: 37,2060           76063                                    +3                                    #  ZERO = EARTH
000144: 37,2061           77614                           SET                                            #  ...2 = MOON
000145: 37,2062           00063                                    MOONFLAG
000146: 37,2063           77624                           CALL
000147: 37,2064           27135                                    INTEGRVS
000148: 37,2065           77745        P21VSAVE           DLOAD                                          #  SAVE CURRENT BASE VECTOR
000149: 37,2066           00015                                    TAT
000150: 37,2067           26316                           STOVL    P21TIME                               #  ..TIME
000151: 37,2070           00017                                    RATT1
000152: 37,2071           27605                           STOVL    P21BASER                              #  ..POS B-29 OR B-27
000153: 37,2072           00025                                    VATT1
000154: 37,2073           03613                           STORE    P21BASEV                              #  ..VEL B-7  OR B-5
000155: 37,2074           53646                           ABVAL    SL*
000156: 37,2075           57576                                    0,2
000157: 37,2076           27623                           STOVL    P21VEL                                #  /VEL/ FOR N73 DSP
000158: 37,2077           00001                                    RATT
000159: 37,2100           50256                           UNIT     DOT
000160: 37,2101           00007                                    VATT                                  #  U(R).(V)
000161: 37,2102           67471                           DDV      ASIN                                  #  U(R).U(V)
000162: 37,2103           03623                                    P21VEL
000163: 37,2104           03625                           STORE    P21GAM                                #  SIN-1 U(R).U(V), -90 TO +90
000164: 37,2105           43134                           SXA,2    SET
000165: 37,2106           03603                                    P21ORIG                               #  0 = EARTH  2 = MOON
000166: 37,2107           01063                                    P21FLAG
000167: 37,2110           67214        P21DSP             CLEAR    SLOAD                                 #  GENERATE DISPLAY DATA
000168: 37,2111           01663                                    LUNAFLAG
000169: 37,2112           00050                                    X2
000170: 37,2113           43054                           BZE      SET
000171: 37,2114           76116                                    +2                                    #  0 = EARTH
000172: 37,2115           01463                                    LUNAFLAG
000173: 37,2116           77775                           VLOAD
000174: 37,2117           00001                                    RATT
000175: 37,2120           16152                           STODL    ALPHAV
000176: 37,2121           00015                                    TAT
000177: 37,2122           45014                           CLEAR    CALL
000178: 37,2123           00662                                    ERADFLAG
000179: 37,2124           26370                                    LAT-LONG
000180: 37,2125           77605                           DMP                                            #  MPAC = ALT, METERS B-29
000181: 37,2126           36154                                    K.01
000182: 37,2127           03621                           STORE    P21ALT                                #  ALT/100 FOR N73 DSP


000184: 37,2130           77776                           EXIT
000185: 37,2131           32151                           CAF      V06N43                                #  DISPLAY LAT,LONG,ALT
000186: 37,2132           04662                           TC       BANKCALL                              #  LAT,LONG = REVS B0 BOTH EARTH/MOON
000187: 37,2133           20720                           CADR     GOFLASH                               #  ALT = METERS B-29  BOTH EARTH/MOON
000188: 37,2134           04106                           TC       GOTOP00H                              #  TERM
000189: 37,2135           04106                           TC       GOTOP00H
000190: 37,2136           06006                           TC       INTPRET                               #  V32E RECYCLE
000191: 37,2137           43345                           DLOAD    DAD
000192: 37,2140           02316                                    P21TIME
000193: 37,2141           36146                                    600SEC                                #  600 SECONDS OR 10 MIN
000194: 37,2142           01046                           STORE    DSPTEM1
000195: 37,2143           77634                           RTB
000196: 37,2144           76011                                    P21PROG1
000197:
000198: 37,2145           00003 25140  600SEC             2DEC     60000      B-28                       #  10 MIN
000199:
000200: 37,2147           00001        P21ONENN           OCT      00001                                 #  NEEDED TO DETERMINE VEHICLE
000201: 37,2150           00000                           OCT      00000                                 #  TO BE INTEGRATED
000202: 37,2151           01453        V06N43             VN       00643
000203: 37,2152           01442        V6N34              VN       00634
000204: 37,2153           00243 32703  K.01               2DEC     .01
000205:

End of include-file GROUND_TRACKING_DETERMINATION_PROGRAM.agc.  Parent file is MAIN.agc


