
Source Code


000002:                                                                                                  ## Copyright:   Public domain.
000003:                                                                                                  ## Filename:    IMU_MODE_SWITCHING_ROUTINES.agc
000004:                                                                                                  ## Purpose:     Part of the source code for Colossus 2A, AKA Comanche 055.
000005:                                                                                                  ##              It is part of the source code for the Command Module's (CM)
000006:                                                                                                  ##              Apollo Guidance Computer (AGC), for Apollo 11.
000007:                                                                                                  ## Assembler:   yaYUL
000008:                                                                                                  ## Contact:     Ron Burkey <info@sandroid.org>.
000009:                                                                                                  ## Website:     www.ibiblio.org/apollo.
000010:                                                                                                  ## Pages:       1420-1448
000011:                                                                                                  ## Mod history: 2009-05-10 SN   (Sergio Navarro).  Started adapting from
000012:                                                                                                  ##                              the Colossus249/ file of the same name,
000013:                                                                                                  ##                              using Comanche055 page images.
000014:                                                                                                  ##              2010-08-20 JL   Fixed page number comment (p1447).
000015:                                                                                                  ##                              Fixed some pseudo-label indents.
000016:                                                                                                  ##              2016-12-10 RSB  All of the GOTOPOOH's should have been
000017:                                                                                                  ##                              GOTOPOOH, and I've changed them back.
000018:                                                                                                  ##              2016-12-22 RSB  Proofed comment text using octopus/ProoferComments
000019:                                                                                                  ##                              and corrected the errors found.
000020:                                                                                                  ##              2017-03-15 RSB  Comment-text fixes identified in 6-way
000021:                                                                                                  ##                              side-by-side diff of Sunburst 120 and Luminary
000022:                                                                                                  ##                              69/99/116/131/210.
000023:
000024:                                                                                                  ## This source code has been transcribed or otherwise adapted from digitized
000025:                                                                                                  ## images of a hardcopy from the MIT Museum.  The digitization was performed
000026:                                                                                                  ## by Paul Fjeld, and arranged for by Deborah Douglas of the Museum.  Many
000027:                                                                                                  ## thanks to both.  The images (with suitable reduction in storage size and
000028:                                                                                                  ## consequent reduction in image quality as well) are available online at
000029:                                                                                                  ## www.ibiblio.org/apollo.  If for some reason you find that the images are
000030:                                                                                                  ## illegible, contact me at info@sandroid.org about getting access to the
000031:                                                                                                  ## (much) higher-quality images which Paul actually created.
000032:                                                                                                  ##
000033:                                                                                                  ## Notations on the hardcopy document read, in part:
000034:                                                                                                  ##
000035:                                                                                                  ##    Assemble revision 055 of AGC program Comanche by NASA
000036:                                                                                                  ##    2021113-051.  10:28 APR. 1, 1969
000037:                                                                                                  ##
000038:                                                                                                  ##    This AGC program shall also be referred to as
000039:                                                                                                  ##            Colossus 2A
000040:


000042:    5521                                           BLOCK    02
000043:    4000                                           SETLOC   FFTAG3
000044:    4000                                           BANK
000045:
000046:    5521  E3,1471                                  EBANK=   COMMAND
000047:
000048:                                                                                                  #  FIXED-FIXED ROUTINES.
000049:
000050:    5521                                           COUNT    02/IMODE
000051:
000052:    5521           35021        ZEROICDU           CAF      ZERO                                  #  ZERO ICDU COUNTERS.
000053:    5522           54032                           TS       CDUX
000054:    5523           54033                           TS       CDUY
000055:    5524           54034                           TS       CDUZ
000056:    5525           00002                           TC       Q
000057:
000058:    5526     5007               SPSCODE            =        BIT9
000059:


000061:                                                                                                  #  IMU ZEROING ROUTINE.
000062:
000063: 11,3776                                           BANK     11
000064: 07,2000                                           SETLOC   MODESW
000065: 07,2000                                           BANK
000066:
000067: 07,2577                                           COUNT    07/IMODE
000068:
000069: 07,2577           00004        IMUZERO            INHINT                                         #  ROUTINE TO ZERO ICDUS.
000070: 07,2600           41036                           CS       DSPTAB     +11D                       #  DONT ZERO CDUS IF IMU IN GIMBAL LOCK AND
000071: 07,2601           75033                           MASK     BITS4&6                               #  COARSE ALIGN (GIMBAL RUNAWAY PROTECTION)
000072: 07,2602           10000                           CCS      A
000073: 07,2603           12607                           TCF      IMUZEROA
000074:
000075: 07,2604           05650                           TC       ALARM                                 #  IF SO.
000076: 07,2605           00206                           OCT      00206
000077:
000078: 07,2606           13542                           TCF      CAGETSTJ   +4                         #  IMMEDIATE FAILURE.
000079:
000080: 07,2607           03536        IMUZEROA           TC       CAGETSTJ
000081:
000082:                                                                                                  #  DO ALL THE WORK.
000083:
000084: 07,2610           41321                           CS       IMODES33                              #  DISABLE DAP AUTO AND HOLD MODES
000085: 07,2611           75035                           MASK     SUPER011                              #        BIT5 FOR GROUND
000086: 07,2612           27321                           ADS      IMODES33
000087:
000088: 07,2613           41320                           CS       IMODES30                              #  INHIBIT ICDUFAIL AND IMUFAIL (IN CASE WE
000089: 07,2614           75771                           MASK     BITS3&4                               #  JUST CAME OUT OF COARSE ALIGN).
000090: 07,2615           27320                           ADS      IMODES30
000091:
000092: 07,2616           45033                           CS       BITS4&6                               #  SEND ZERO ENCODE WITH COARSE AND ERROR
000093: 07,2617           00006                           EXTEND                                         #  COUNTER DISABLED.
000094: 07,2620           03012                           WAND     CHAN12
000095:
000096: 07,2621           03151                           TC       NOATTOFF                              #  TURN OFF NO ATT LAMP.
000097:
000098: 07,2622           35013                           CAF      BIT5
000099: 07,2623           00006                           EXTEND
000100: 07,2624           05012                           WOR      CHAN12
000101:
000102: 07,2625           05521                           TC       ZEROICDU
000103: 07,2626           35012                           CAF      BIT6                                  #  WAIT 320 MS TO GIVE AGS ADEQUATE TIME TO
000104: 07,2627           05245                           TC       WAITLIST                              #  RECEIVE ITS PULSE TRAIN.
000105: 07,2630  E3,1474                                  EBANK=   CDUIND
000106: 07,2630           02642 16063                     2CADR    IMUZERO2
000107:
000108: 07,2632           41320                           CS       IMODES30                              #  SEE IF IMU OPERATING AND ALARM IF NOT.
000109: 07,2633           75007                           MASK     BIT9
000110: 07,2634           10000                           CCS      A
000111: 07,2635           12640                           TCF      MODEEXIT


000113: 07,2636           05650                           TC       ALARM
000114: 07,2637           00210                           OCT      210
000115:
000116: 07,2640           00003        MODEEXIT           RELINT                                         #  GENERAL MODE-SWITCHING EXIT.
000117: 07,2641           14675                           TCF      SWRETURN
000118:
000119: 07,2642           03524        IMUZERO2           TC       CAGETEST
000120: 07,2643           05521                           TC       ZEROICDU                              #  ZERO CDUX, CDUY, CDUZ
000121:
000122: 07,2644           45013                           CS       BIT5                                  #  REMOVE ZERO DISCRETE.
000123: 07,2645           00006                           EXTEND
000124: 07,2646           03012                           WAND     CHAN12
000125:
000126: 07,2647           35005                           CAF      BIT11                                 #  WAIT 10 SECS FOR CTRS TO FIND GIMBALS
000127: 07,2650           05272                           TC       VARDELAY
000128:
000129: 07,2651           03524        IMUZERO3           TC       CAGETEST
000130: 07,2652           45771                           CS       BITS3&4                               #  REMOVE IMUFAIL AND ICDUFAIL INHIBIT.
000131: 07,2653           71320                           MASK     IMODES30
000132: 07,2654           55320                           TS       IMODES30
000133:
000134: 07,2655           45035                           CS       SUPER011                              #  ENABLE DAP AUTO AND HOLD MODES
000135: 07,2656           71321                           MASK     IMODES33                              #        BIT5 FOR GROUND
000136: 07,2657           55321                           TS       IMODES33
000137:
000138: 07,2660           04740                           TC       IBNKCALL                              #  SET ISS WARNING IF EITHER OF ABOVE ARE
000139: 07,2661           14665                           CADR     SETISSW                               #  PRESENT.
000140:
000141: 07,2662           13514                           TCF      ENDIMU
000142:


000144:                                                                                                  #  IMU COARSE ALIGN MODE.
000145:
000146: 07,2663           00004        IMUCOARS           INHINT
000147: 07,2664           03536                           TC       CAGETSTJ
000148: 07,2665           03027                           TC       SETCOARS
000149:
000150: 07,2666           36211                           CAF      SIX
000151: 07,2667           05245                           TC       WAITLIST
000152: 07,2670  E3,1474                                  EBANK=   CDUIND
000153: 07,2670           02673 16063                     2CADR    COARS
000154:
000155: 07,2672           12640                           TCF      MODEEXIT
000156:
000157: 07,2673           03524        COARS              TC       CAGETEST
000158: 07,2674           35012                           CAF      BIT6                                  #  ENABLE ALL THREE ISS CDU ERROR COUNTERS
000159: 07,2675           00006                           EXTEND
000160: 07,2676           05012                           WOR      CHAN12
000161:
000162: 07,2677           35016                           CAF      TWO                                   #  SET CDU INDICATOR
000163: 07,2700           55474        COARS1             TS       CDUIND
000164:
000165: 07,2701           51474                           INDEX    CDUIND                                #  COMPUTE THETAD - THETAA IN 1:S
000166: 07,2702           31155                           CA       THETAD                                #        COMPLEMENT FORM
000167: 07,2703           00006                           EXTEND
000168: 07,2704           51474                           INDEX    CDUIND
000169: 07,2705           20032                           MSU      CDUX
000170: 07,2706           00006                           EXTEND
000171: 07,2707           75003                           MP       BIT13                                 #  SHIFT RIGHT 2
000172: 07,2710           56001                           XCH      L                                     #  ROUND
000173: 07,2711           60000                           DOUBLE
000174: 07,2712           54061                           TS       ITEMP1
000175: 07,2713           12715                           TCF      +2
000176: 07,2714           26001                           ADS      L
000177:
000178: 07,2715           51474                           INDEX    CDUIND                                #  DIFFERENCE TO BE COMPUTED
000179: 07,2716           23471                           LXCH     COMMAND
000180: 07,2717           11474                           CCS      CDUIND
000181: 07,2720           02700                           TC       COARS1
000182:
000183: 07,2721           35016                           CAF      TWO                                   #  MINIMUM OF 4 MS WAIT
000184: 07,2722           05272                           TC       VARDELAY
000185:


000187: 07,2723           03524        COARS2             TC       CAGETEST                              #  DONT CONTINUE IF CAGED.
000188: 07,2724           54061                           TS       ITEMP1                                #  SETS TO +0.
000189: 07,2725           35016                           CAF      TWO                                   #  SET CDU INDICATOR
000190: 07,2726           55474                 +3        TS       CDUIND
000191:
000192: 07,2727           51474                           INDEX    CDUIND
000193: 07,2730           11471                           CCS      COMMAND                               #  NUMBER OF PULSES REQUIRED
000194: 07,2731           02735                           TC       COMPOS                                #  GREATER THAN MAX ALLOWED
000195: 07,2732           02744                           TC       NEXTCDU    +1
000196: 07,2733           03002                           TC       COMNEG
000197: 07,2734           02744                           TC       NEXTCDU    +1
000198:
000199: 07,2735           63624        COMPOS             AD       -COMMAX                               #  COMMAX = MAX NUMBER OF PULSES ALLOWED
000200: 07,2736           00006                           EXTEND                                         #        MINUS ONE
000201: 07,2737           63012                           BZMF     COMZERO
000202: 07,2740           51474                           INDEX    CDUIND
000203: 07,2741           55471                           TS       COMMAND                               #  REDUCE COMMAND BY MAX NUMBER OF PULSES
000204: 07,2742           43625                           CS       -COMMAX-                              #        ALLOWED
000205:
000206: 07,2743           24061        NEXTCDU            INCR     ITEMP1
000207: 07,2744           65020                           AD       NEG0
000208: 07,2745           51474                           INDEX    CDUIND
000209: 07,2746           54050                           TS       CDUXCMD                               #  SET UP COMMAND REGISTER.
000210:
000211: 07,2747           11474                           CCS      CDUIND
000212: 07,2750           02726                           TC       COARS2     +3
000213:
000214: 07,2751           10061                           CCS      ITEMP1                                #  SEE IF ANY PULSES TO GO OUT.
000215: 07,2752           13016                           TCF      SENDPULS
000216:
000217: 07,2753           05267                           TC       FIXDELAY                              #  WAIT FOR GIMBALS TO SETTLE.
000218: 07,2754           00226                           DEC      150        B-14
000219:
000220: 07,2755           35016                           CAF      TWO                                   #  AT END OF COMMAND, CHECK TO SEE THAT
000221: 07,2756           54061        CHKCORS            TS       ITEMP1                                #  GIMBALS ARE WITHIN 2 DEGREES OF THETAD.
000222: 07,2757           50000                           INDEX    A
000223: 07,2760           30032                           CA       CDUX
000224: 07,2761           00006                           EXTEND
000225: 07,2762           50061                           INDEX    ITEMP1
000226: 07,2763           21155                           MSU      THETAD
000227: 07,2764           10000                           CCS      A
000228: 07,2765           12773                           TCF      COARSERR
000229: 07,2766           12770                           TCF      CORSCHK2
000230: 07,2767           12773                           TCF      COARSERR
000231:


000233: 07,2770           10061        CORSCHK2           CCS      ITEMP1
000234: 07,2771           12756                           TCF      CHKCORS
000235: 07,2772           13514                           TCF      ENDIMU                                #  END OF COARSE ALIGNMENT.
000236:
000237: 07,2773           63001        COARSERR           AD       COARSTOL                              #  2 DEGREES.
000238: 07,2774           00006                           EXTEND
000239: 07,2775           62770                           BZMF     CORSCHK2
000240:
000241: 07,2776           05650                           TC       ALARM                                 #  COARSE ALIGN ERROR.
000242: 07,2777           00211                           OCT      211
000243:
000244: 07,3000           13522                           TCF      IMUBAD
000245:
000246: 07,3001           77511        COARSTOL           DEC      -.01111                               #  2 DEGREES SCALED AT HALF-REVOLUTIONS
000247:
000248: 07,3002           63624        COMNEG             AD       -COMMAX
000249: 07,3003           00006                           EXTEND
000250: 07,3004           63012                           BZMF     COMZERO
000251: 07,3005           40000                           COM
000252: 07,3006           51474                           INDEX    CDUIND
000253: 07,3007           55471                           TS       COMMAND
000254: 07,3010           33625                           CA       -COMMAX-
000255: 07,3011           02743                           TC       NEXTCDU
000256:
000257: 07,3012           35021        COMZERO            CAF      ZERO
000258: 07,3013           51474                           INDEX    CDUIND
000259: 07,3014           57471                           XCH      COMMAND
000260: 07,3015           02743                           TC       NEXTCDU
000261:
000262: 07,3016           37707        SENDPULS           CAF      13,14,15
000263: 07,3017           00006                           EXTEND
000264: 07,3020           05014                           WOR      CHAN14
000265: 07,3021           33626                           CAF      600MS
000266: 07,3022           12722                           TCF      COARS2     -1                         #  THEN TO VARDELAY
000267:
000268: 07,3023           35012        CA+ECE             CAF      BIT6                                  #  ENABLE ALL THREE ISS CDU ERROR COUNTERS
000269: 07,3024           00006                           EXTEND
000270: 07,3025           05012                           WOR      CHAN12
000271: 07,3026           05324                           TC       TASKOVER
000272:


000274: 07,3027           35014        SETCOARS           CAF      BIT4                                  #  BYPASS IF ALREADY IN COARSE ALIGN
000275: 07,3030           00006                           EXTEND
000276: 07,3031           02012                           RAND     CHAN12
000277: 07,3032           10000                           CCS      A
000278: 07,3033           00002                           TC       Q
000279:
000280: 07,3034           45012                           CS       BIT6                                  #  CLEAR ISS ERROR COUNTERS
000281: 07,3035           00006                           EXTEND
000282: 07,3036           03012                           WAND     CHAN12
000283:
000284: 07,3037           45006                           CS       BIT10                                 #  KNOCK DOWN GYRO ACTIVITY
000285: 07,3040           00006                           EXTEND
000286: 07,3041           03014                           WAND     CHAN14
000287: 07,3042           45021                           CS       ZERO
000288: 07,3043           54047                           TS       GYROCMD
000289:
000290: 07,3044           35014                           CAF      BIT4                                  #  PUT ISS IN COARSE ALIGN
000291: 07,3045           00006                           EXTEND
000292: 07,3046           05012                           WOR      CHAN12
000293:
000294: 07,3047           41036                           CS       DSPTAB     +11D                       #  TURN ON NO ATT LAMP
000295: 07,3050           73072                           MASK     OCT40010
000296: 07,3051           27036                           ADS      DSPTAB     +11D
000297:
000298: 07,3052           41321                           CS       IMODES33                              #  DISABLE DAP AUTO AND HOLD MODES
000299: 07,3053           75012                           MASK     BIT6
000300: 07,3054           27321                           ADS      IMODES33
000301:
000302: 07,3055           41320                           CS       IMODES30                              #  DISABLE IMUFAIL
000303: 07,3056           75014                           MASK     BIT4
000304: 07,3057           27320                           ADS      IMODES30
000305:
000306: 07,3060           45013        RNDREFDR           CS       BIT5                                  #  KNOCK DOWN TRACK FLAG
000307: 07,3061           70075                           MASK     FLAGWRD1
000308: 07,3062           54075                           TS       FLAGWRD1
000309:
000310: 07,3063           45001                           CS       BIT15                                 #  KNOCK DOWN DRIFT FLAG
000311: 07,3064           70076                           MASK     FLAGWRD2
000312: 07,3065           54076                           TS       FLAGWRD2
000313:
000314: 07,3066           45003                           CS       BIT13                                 #  KNOCK DOWN REFSMMAT FLAG
000315: 07,3067           70077                           MASK     FLAGWRD3
000316: 07,3070           54077                           TS       FLAGWRD3
000317:
000318: 07,3071           00002                           TC       Q
000319:
000320: 07,3072           40010        OCT40010           OCT      40010
000321:


000323:                                                                                                  #  IMU FINE ALIGN MODE SWITCH.
000324:
000325: 07,3073           00004        IMUFINE            INHINT
000326: 07,3074           03536                           TC       CAGETSTJ                              #  SEE IF IMU BEING CAGED.
000327:
000328: 07,3075           45027                           CS       BITS4-5                               #  RESET ZERO AND COARSE
000329: 07,3076           00006                           EXTEND
000330: 07,3077           03012                           WAND     CHAN12
000331:
000332: 07,3100           45012                           CS       BIT6                                  #  INSURE DAP AUTO AND HOLD MODES ENABLED
000333: 07,3101           71321                           MASK     IMODES33
000334: 07,3102           55321                           TS       IMODES33
000335:
000336: 07,3103           03151                           TC       NOATTOFF
000337:
000338: 07,3104           35006                           CAF      BIT10                                 #  IMU FAIL WAS INHIBITED DURING THE
000339: 07,3105           05245                           TC       WAITLIST                              #  PRESUMABLY PRECEDING COARSE ALIGN.  LEAVE
000340: 07,3106  E3,1474                                  EBANK=   CDUIND
000341: 07,3106           03117 16063                     2CADR    IFAILOK                               #  IT ON FOR THE FIRST 5 SECS OF FINE ALIGN
000342:
000343: 07,3110           35042                           CAF      2SECS
000344: 07,3111           05245                           TC       WAITLIST
000345: 07,3112  E3,1474                                  EBANK=   CDUIND
000346: 07,3112           03115 16063                     2CADR    IMUFINED
000347:
000348: 07,3114           12640                           TCF      MODEEXIT
000349:
000350: 07,3115           03524        IMUFINED           TC       CAGETEST                              #  SEE THAT NO ONE HAS CAGED THE IMU.
000351: 07,3116           13514                           TCF      ENDIMU
000352:


000354: 07,3117           03531        IFAILOK            TC       CAGETSTQ                              #  ENABLE IMU FIAL UNLESS IMU BEING CAGED.
000355: 07,3120           15324                           TCF      TASKOVER                              #  IT IS.
000356:
000357: 07,3121           35014                           CAF      BIT4                                  #  DONT RESET IMU FAIL INHIBIT IF SOMEONE
000358: 07,3122           00006                           EXTEND                                         #  HAS GONE INTO COARSE ALIGN.
000359: 07,3123           02012                           RAND     CHAN12
000360: 07,3124           10000                           CCS      A
000361: 07,3125           15324                           TCF      TASKOVER
000362:
000363: 07,3126           41320                           CS       IMODES30                              #  RESET IMUFAIL.
000364: 07,3127           75003                           MASK     BIT13
000365: 07,3130           27320                           ADS      IMODES30
000366: 07,3131           45014                           CS       BIT4
000367: 07,3132           71320        PFAILOK2           MASK     IMODES30
000368: 07,3133           55320                           TS       IMODES30
000369: 07,3134           04740                           TC       IBNKCALL                              #  THE ISS WARNING LIGHT MAY COME ON NOW
000370: 07,3135           14665                           CADR     SETISSW                               #  THAT THE INHIBIT HAS BEEN REMOVED.
000371: 07,3136           15324                           TCF      TASKOVER
000372:
000373: 07,3137           03531        PFAILOK            TC       CAGETSTQ                              #  ENABLE PIP FAIL PROG ALARM.
000374: 07,3140           15324                           TCF      TASKOVER
000375:
000376: 07,3141           41320                           CS       IMODES30                              #  RESET IMU AND PIPA FAIL BITS.
000377: 07,3142           75006                           MASK     BIT10
000378: 07,3143           27320                           ADS      IMODES30
000379:
000380: 07,3144           41321                           CS       IMODES33
000381: 07,3145           75003                           MASK     BIT13
000382: 07,3146           27321                           ADS      IMODES33
000383:
000384: 07,3147           45013                           CS       BIT5
000385: 07,3150           13132                           TCF      PFAILOK2
000386:
000387: 07,3151           43072        NOATTOFF           CS       OCT40010                              #  SUBROUTINE TO TURN OFF NO ATT LAMP.
000388: 07,3152           71036                           MASK     DSPTAB     +11D
000389: 07,3153           65001                           AD       BIT15
000390: 07,3154           55036                           TS       DSPTAB     +11D
000391: 07,3155           00002                           TC       Q
000392:


000394:                                                                                                  #  ROUITNES TO INITIATE AND TERMINATE PROGRAM USE OF THE PIPAS.  NO IMUSTALL REQUIRED IN EITHER CASE.
000395:
000396: 07,3156           45021        PIPUSE             CS       ZERO
000397: 07,3157           54037                           TS       PIPAX
000398: 07,3160           54040                           TS       PIPAY
000399: 07,3161           54041                           TS       PIPAZ
000400:
000401: 07,3162           03531        PIPUSE1            TC       CAGETSTQ                              #  DO NOT ENABLE PIPA FAIL IF IMU IS CAGED
000402: 07,3163           14675                           TCF      SWRETURN
000403:
000404: 07,3164           00004                           INHINT
000405: 07,3165           45017                           CS       BIT1                                  #  IF PIPA FAILS FROM NOW ON (UNTIL
000406: 07,3166           71320                           MASK     IMODES30                              #  PIPFREE), LIGHT ISS WARNING.
000407: 07,3167           55320                           TS       IMODES30
000408:
000409: 07,3170           04740        PIPFREE2           TC       IBNKCALL                              #  ISS WARNING MIGHT COME ON NOW.
000410: 07,3171           14665                           CADR     SETISSW                               #  (OR GO OFF ON PIPFREE).
000411:
000412: 07,3172           12640                           TCF      MODEEXIT
000413:
000414: 07,3173           00004        PIPFREE            INHINT                                         #  PROGRAM DONE WITH PIPAS.  DONT LIGHT
000415: 07,3174           41320                           CS       IMODES30                              #  ISS WARNING.
000416: 07,3175           75017                           MASK     BIT1
000417: 07,3176           27320                           ADS      IMODES30
000418:
000419: 07,3177           75006                           MASK     BIT10                                 #  IF PIP FAIL ON, DO PROG ALSRM AND RESET
000420: 07,3200           10000                           CCS      A                                     #  ISS WARNING.
000421: 07,3201           12640                           TCF      MODEEXIT
000422:
000423: 07,3202           05650                           TC       ALARM
000424: 07,3203           00212                           OCT      212
000425:
000426: 07,3204           00004                           INHINT
000427:
000428: 07,3205           13170                           TCF      PIPFREE2
000429:


000431:                                                                                                  #  THE FOLLOWING ROUTINE TORQUES THE IRIGS ACCORDING TO DOUBLE PRECISION INPUTS IN THE SIX REGISTERS
000432:                                                                                                  #  BEGINNING AT THE ECADR ARRIVING IN A.  THE MINIMUM SIZE OF ANY PULSE TRAIN IS 16 PULSES (.25 CDU COUNTS).  THE
000433:                                                                                                  #  UNSENT PORTION OF THE COMMAND IS LEFT INTACT IN THE INPUT COMMAND REGISTERS.
000434:
000435: 07,3206  E3,1400                                  EBANK=   1400                                  #  VARIABLE, ACTUALLY.
000436:
000437: 07,3206           54161        IMUPULSE           TS       MPAC       +5                         #  SAVE ARRIVING ECADR.
000438: 07,3207           03536                           TC       CAGETSTJ                              #  DONT PROCEED IF IMU BEING CAGED.
000439:
000440: 07,3210           11304                           CCS      LGYRO                                 #  SEE IF GYROS BUSY.
000441: 07,3211           03252                           TC       GYROBUSY                              #  SLEEP.
000442:
000443: 07,3212           54156                           TS       MPAC       +2
000444: 07,3213           35012                           CAF      BIT6                                  #  ENABLE THE POWER SUPPLY.
000445: 07,3214           00006                           EXTEND
000446: 07,3215           05014                           WOR      CHAN14
000447:
000448: 07,3216           35015                           CAF      FOUR
000449: 07,3217           05245        GWAKE2             TC       WAITLIST                              #  (IF A JOB WAS PUT TO SLEEP, THE POWER
000450: 07,3220  E3,1474                                  EBANK=   CDUIND                                #  SUPPLY IS LEFT ON BY THE WAKING JOB).
000451: 07,3220           03270 16063                     2CADR    STRTGYRO
000452:
000453: 07,3222           30161                           CA       MPAC       +5                         #  SET UP EBANK, SAVING CALLER'S EBANK FOR
000454: 07,3223           56003                           XCH      EBANK                                 #  RESTORATION ON RETURN.
000455: 07,3224           56161                           XCH      MPAC       +5
000456: 07,3225           55304                           TS       LGYRO                                 #  RESERVES GYROS.
000457: 07,3226           74373                           MASK     LOW8
000458: 07,3227           54061                           TS       ITEMP1
000459:
000460: 07,3230           35016                           CAF      TWO                                   #  FORCE SIGN AGREEMENT ON INPUTS.
000461: 07,3231           54157        GYROAGRE           TS       MPAC       +3
000462: 07,3232           60000                           DOUBLE
000463: 07,3233           60061                           AD       ITEMP1
000464: 07,3234           54160                           TS       MPAC       +4
000465: 07,3235           00006                           EXTEND
000466: 07,3236           50000                           INDEX    A
000467: 07,3237           31401                           DCA      1400
000468: 07,3240           52155                           DXCH     MPAC
000469: 07,3241           07226                           TC       TPAGREE
000470: 07,3242           52155                           DXCH     MPAC
000471: 07,3243           50160                           INDEX    MPAC       +4
000472: 07,3244           53401                           DXCH     1400
000473:
000474: 07,3245           10157                           CCS      MPAC       +3
000475: 07,3246           13231                           TCF      GYROAGRE
000476:
000477: 07,3247           30161                           CA       MPAC       +5                         #  RESTORE CALLER'S EBANK.
000478: 07,3250           54003                           TS       EBANK
000479: 07,3251           12640                           TCF      MODEEXIT
000480:


000482:                                                                                                  #  ROUTINES TO ALLOW TORQUING BY ONLY ONE JOB AT A TIME.
000483:
000484: 07,3252           00006        GYROBUSY           EXTEND                                         #  SAVE RETURN 2FCADR.
000485: 07,3253           30134                           DCA      BUF2
000486: 07,3254           52155                           DXCH     MPAC
000487: 07,3255           33267        REGSLEEP           CAF      LGWAKE
000488: 07,3256           15175                           TCF      JOBSLEEP
000489:
000490: 07,3257           11304        GWAKE              CCS      LGYRO                                 #  WHEN AWAKENED, SEE IF GYROS STILL BUSY.
000491: 07,3260           13255                           TCF      REGSLEEP                              #  IF SO, SLEEP SOME MORE.
000492:
000493: 07,3261           54156                           TS       MPAC       +2
000494: 07,3262           00006                           EXTEND
000495: 07,3263           30155                           DCA      MPAC
000496: 07,3264           52134                           DXCH     BUF2                                  #  RESTORE SWRETURN INFO.
000497: 07,3265           35017                           CAF      ONE
000498: 07,3266           13217                           TCF      GWAKE2
000499:
000500: 07,3267           17257        LGWAKE             CADR     GWAKE
000501:


000503:                                                                                                  #  GYRO-TORQUING WAITLIST TASKS.
000504:
000505: 07,3270           43511        STRTGYRO           CS       GDESELCT                              #  DE-SELECT LAST GYRO.
000506: 07,3271           00006                           EXTEND
000507: 07,3272           03014                           WAND     CHAN14
000508:
000509: 07,3273           03524                           TC       CAGETEST
000510:
000511: 07,3274           31304        STRTGYR2           CA       LGYRO                                 #  JUMP ON PHASE COUNTER IN BITS 13-14.
000512: 07,3275           00006                           EXTEND
000513: 07,3276           75014                           MP       BIT4
000514: 07,3277           50000                           INDEX    A
000515: 07,3300           13301                           TCF      +1
000516: 07,3301           03316                           TC       GSELECT                               #  =0.  DO Y GYRO.
000517: 07,3302           00202                           OCT      00202
000518:
000519: 07,3303           03316                           TC       GSELECT                               #  =1.  DO Z GYRO.
000520: 07,3304           00302                           OCT      00302
000521:
000522: 07,3305           03314                           TC       GSELECT    -2                         #  =2.  DO X GYRO.
000523: 07,3306           00100                           OCT      00100
000524:
000525: 07,3307           35021                           CAF      ZERO                                  #  =3.  DONE
000526: 07,3310           55304                           TS       LGYRO
000527: 07,3311           33267                           CAF      LGWAKE                                #  WAKE A POSSIBLE SLEEPING JOB.
000528: 07,3312           05201                           TC       JOBWAKE
000529:
000530: 07,3313           13115        NORESET            TCF      IMUFINED                              #  DO NOT RESET POWER SUPPLY


000532: 07,3314           45015                 -2        CS       FOUR                                  #  SPECIAL ENTRY TO REGRESS LGYRO FOR X.
000533: 07,3315           27304                           ADS      LGYRO
000534:
000535: 07,3316           50002        GSELECT            INDEX    Q                                     #  SELECT GYRO.
000536: 07,3317           30000                           CAF      0                                     #  PACKED WORD CONTAINS GYRO SELECT BITS
000537: 07,3320           54064                           TS       ITEMP4                                #  AND INCREMENT TO LGYRO.
000538: 07,3321           75023                           MASK     SEVEN
000539: 07,3322           65003                           AD       BIT13
000540: 07,3323           27304                           ADS      LGYRO
000541: 07,3324           54003                           TS       EBANK
000542: 07,3325           74373                           MASK     LOW8
000543: 07,3326           54061                           TS       ITEMP1
000544:
000545: 07,3327           45023                           CS       SEVEN
000546: 07,3330           70064                           MASK     ITEMP4
000547: 07,3331           54064                           TS       ITEMP4
000548:
000549: 07,3332           00006                           EXTEND                                         #  MOVE DP COMMAND TO RUPTREGS FOR TESTING.
000550: 07,3333           50061                           INDEX    ITEMP1
000551: 07,3334           31401                           DCA      1400
000552: 07,3335           52071                           DXCH     RUPTREG1
000553:
000554: 07,3336           10070                           CCS      RUPTREG1
000555: 07,3337           13352                           TCF      MAJ+
000556: 07,3340           13342                           TCF      +2
000557: 07,3341           13472                           TCF      MAJ-
000558:
000559: 07,3342           10071                           CCS      RUPTREG2
000560: 07,3343           13347                           TCF      MIN+
000561: 07,3344           13274                           TCF      STRTGYR2
000562: 07,3345           13467                           TCF      MIN-
000563: 07,3346           13274                           TCF      STRTGYR2
000564:


000566: 07,3347           63403        MIN+               AD       -GYROMIN                              #  SMALL POSITIVE COMMAND.  SEE IF AT LEAST
000567: 07,3350           00006                           EXTEND                                         #  16 GYRO PULSES.
000568: 07,3351           63274                           BZMF     STRTGYR2
000569:
000570: 07,3352           00006        MAJ+               EXTEND                                         #  DEFINITE POSITIVE OUTPUT.
000571: 07,3353           33513                           DCA      GYROFRAC
000572: 07,3354           20071                           DAS      RUPTREG1
000573:
000574: 07,3355           30064                           CA       ITEMP4                                #  SELECT POSITIVE TORQUING FOR THIS GYRO.
000575: 07,3356           00006                           EXTEND
000576: 07,3357           05014                           WOR      CHAN14
000577:
000578: 07,3360           36043                           CAF      LOW7                                  #  LEAVE NUMBER OF POSSIBLE 8192 AUGMENTS
000579: 07,3361           70071                           MASK     RUPTREG2                              #  TO INITIAL COMMAND IN MAJOR PART OF LONG
000580: 07,3362           56071                           XCH      RUPTREG2                              #  TERM STORAGE AND TRUNCATED FRACTION
000581: 07,3363           00006        GMERGE             EXTEND                                         #  IN MINOR PART.  THE MAJOR PART WILL BE
000582: 07,3364           75010                           MP       BIT8                                  #  COUNTED DOWN TO ZERO IN THE COURSE OF
000583: 07,3365           54062                           TS       ITEMP2                                #  PUTTING OUT THE ENTIRE COMMAND.
000584: 07,3366           30070                           CA       RUPTREG1
000585: 07,3367           00006                           EXTEND
000586: 07,3370           75007                           MP       BIT9
000587: 07,3371           54070                           TS       RUPTREG1
000588: 07,3372           30001                           CA       L
000589: 07,3373           00006                           EXTEND
000590: 07,3374           75002                           MP       BIT14
000591: 07,3375           26062                           ADS      ITEMP2                                #  INITIAL COMMAND.
000592:
000593: 07,3376           00006                           EXTEND                                         #  SEE IF MORE THAN ONE PULSE TRAIN NEEDED
000594: 07,3377           30071                           DCA      RUPTREG1                              #  (MORE THAN 16383 PULSES).
000595: 07,3400           67716                           AD       MINUS1
000596: 07,3401           10000                           CCS      A
000597: 07,3402           13426                           TCF      LONGGYRO
000598: 07,3403           77601        -GYROMIN           OCT      -176                                  #  MAY BE ADJUSTED TO SPECIFY MINIMUM CMD
000599: 07,3404           13410                           TCF      +4
000600:
000601: 07,3405           35002                           CAF      BIT14
000602: 07,3406           26062                           ADS      ITEMP2
000603: 07,3407           35021                           CAF      ZERO
000604:
000605: 07,3410           50061                 +4        INDEX    ITEMP1
000606: 07,3411           53401                           DXCH     1400


000608: 07,3412           30062                           CA       ITEMP2                                #  ENTIRE COMMAND.
000609: 07,3413           54047        LASTSEG            TS       GYROCMD
000610: 07,3414           00006                           EXTEND
000611: 07,3415           75006                           MP       BIT10                                 #  WAITLIST DT
000612: 07,3416           66214                           AD       THREE                                 #  TRUNCATION AND PHASE UNCERTAINTIES.
000613: 07,3417           05245                           TC       WAITLIST
000614: 07,3420  E3,1474                                  EBANK=   CDUIND
000615: 07,3420           03270 16063                     2CADR    STRTGYRO
000616:
000617: 07,3422           35006        GYROEXIT           CAF      BIT10
000618: 07,3423           00006                           EXTEND
000619: 07,3424           05014                           WOR      CHAN14
000620: 07,3425           15324                           TCF      TASKOVER
000621:
000622: 07,3426           50061        LONGGYRO           INDEX    ITEMP1
000623: 07,3427           53401                           DXCH     1400                                  #  INITIAL COMMAND OUT PLUS N AUGMENTS OF
000624: 07,3430           35002                           CAF      BIT14                                 #  8192.  INITIAL COMMAND IS AT LEAST 8192.
000625: 07,3431           60062                           AD       ITEMP2
000626: 07,3432           54047                           TS       GYROCMD
000627:
000628: 07,3433           00006        AUG3               EXTEND                                         #  GET WAITLIST DT TO TIME WHEN TRAIN IS
000629: 07,3434           75006                           MP       BIT10                                 #  ALMOST OUT.
000630: 07,3435           67714                           AD       NEG3
000631: 07,3436           05245                           TC       WAITLIST
000632: 07,3437  E3,1474                                  EBANK=   CDUIND
000633: 07,3437           03442 16063                     2CADR    8192AUG
000634:
000635: 07,3441           13422                           TCF      GYROEXIT
000636:
000637: 07,3442           03524        8192AUG            TC       CAGETEST
000638:
000639: 07,3443           35014                           CAF      BIT4
000640: 07,3444           00006                           EXTEND
000641: 07,3445           02012                           RAND     CHAN12
000642: 07,3446           10000                           CCS      A
000643: 07,3447           13522                           TCF      IMUBAD
000644: 07,3450           31304                           CA       LGYRO                                 #  ADD 8192 PULSES TO GYROCMD
000645: 07,3451           54003                           TS       EBANK
000646: 07,3452           74373                           MASK     LOW8
000647: 07,3453           54061                           TS       ITEMP1
000648:
000649: 07,3454           50061                           INDEX    ITEMP1                                #  SEE IF THIS IS THE LAST AUG.
000650: 07,3455           11400                           CCS      1400
000651: 07,3456           13462                           TCF      AUG2                                  #  MORE TO COME.
000652:
000653: 07,3457           35002                           CAF      BIT14
000654: 07,3460           26047                           ADS      GYROCMD
000655: 07,3461           13414                           TCF      LASTSEG    +1
000656:


000658: 07,3462           50061        AUG2               INDEX    ITEMP1
000659: 07,3463           55400                           TS       1400
000660: 07,3464           35002                           CAF      BIT14
000661: 07,3465           26047                           ADS      GYROCMD
000662: 07,3466           13433                           TCF      AUG3                                  #  COMPUTE DT.
000663:


000665: 07,3467           63403        MIN-               AD       -GYROMIN                              #  POSSIBLE NEGATIVE OUTPUT.
000666: 07,3470           00006                           EXTEND
000667: 07,3471           63274                           BZMF     STRTGYR2
000668:
000669: 07,3472           00006        MAJ-               EXTEND                                         #  DEFINITE NEGATIVE OUTPUT.
000670: 07,3473           43513                           DCS      GYROFRAC
000671: 07,3474           20071                           DAS      RUPTREG1
000672:
000673: 07,3475           30064                           CA       ITEMP4                                #  SELECT NEGATIVE TORQUING FOR THIS GYRO.
000674: 07,3476           65007                           AD       BIT9
000675: 07,3477           00006                           EXTEND
000676: 07,3500           05014                           WOR      CHAN14
000677:
000678: 07,3501           40070                           CS       RUPTREG1                              #  SET UP RUPTREGS TO FALL INTO GMERGE.
000679: 07,3502           54070                           TS       RUPTREG1                              #  ALL NUMBERS PUT INTO GYROCMD ARE
000680: 07,3503           40071                           CS       RUPTREG2                              #  POSITIVE - BIT9 OF CHAN 14 DETERMINES
000681: 07,3504           76043                           MASK     LOW7                                  #  THE SIGN OF THE COMMAND.
000682: 07,3505           40000                           COM
000683: 07,3506           56071                           XCH      RUPTREG2
000684: 07,3507           40000                           COM
000685: 07,3510           13363                           TCF      GMERGE
000686:
000687: 07,3511           01700        GDESELCT           OCT      1700                                  #  TURN OFF SELECT AND ACTIVITY BITS.
000688:
000689: 07,3512           00000 00034  GYROFRAC           2DEC     .215       B-21
000690:


000692:                                                                                                  #  IMU MODE SWITCHING ROUTINES COME HERE WHEN ACTION COMPLETE.
000693:
000694: 07,3514           00006        ENDIMU             EXTEND                                         #  MODE IS BAD IF CAGE HAS OCCURED OR IF
000695: 07,3515           00011                           READ     DSALMOUT                              #  ISS WARNING IS ON.
000696: 07,3516           75017                           MASK     BIT1
000697: 07,3517           10000                           CCS      A
000698: 07,3520           13522                           TCF      IMUBAD
000699:
000700: 07,3521           13550        IMUGOOD            TCF      GOODEND                               #  WITH C(A) = 0.
000701:
000702: 07,3522           35021        IMUBAD             CAF      ZERO
000703: 07,3523           13545                           TCF      BADEND
000704:
000705: 07,3524           35012        CAGETEST           CAF      BIT6                                  #  SUBROUTINE TO TERMINATE IMU MODE
000706: 07,3525           71320                           MASK     IMODES30                              #  SWITCH IF IMU HAS BEEN CAGED.
000707: 07,3526           10000                           CCS      A
000708: 07,3527           13522                           TCF      IMUBAD                                #  DIRECTLY.
000709: 07,3530           00002                           TC       Q                                     #  WITH C(A) = +0.
000710:
000711: 07,3531           41320        CAGETSTQ           CS       IMODES30                              #  SKIP IF IMU NOT BEING CAGED.
000712: 07,3532           75012                           MASK     BIT6
000713: 07,3533           10000                           CCS      A
000714: 07,3534           24002                           INCR     Q
000715: 07,3535           00002                           TC       Q
000716:
000717: 07,3536           41320        CAGETSTJ           CS       IMODES30                              #  IF DURING MODE SWITCH INITIALIZATION
000718: 07,3537           75012                           MASK     BIT6                                  #  IT IS FOUND THAT THE IMU IS BEING CAGED,
000719: 07,3540           10000                           CCS      A                                     #  SET IMUCADR TO -0 TO INDICATE OPERATION
000720: 07,3541           00002                           TC       Q                                     #  COMPLETE BUT FAILED.  RETURN IMMEDIATELY
000721: 07,3542           45021                           CS       ZERO                                  #  TO SWRETURN.
000722: 07,3543           55322                           TS       IMUCADR
000723: 07,3544           12640                           TCF      MODEEXIT
000724:


000726:                                                                                                  #  GENERALIZED MODE SWITCHING TERMINATION.  ENTER AT GOODEND FOR SUCCESSFUL COMPLETION OF AN I/O OPERATION
000727:                                                                                                  #  OR AT BADEND FOR AN UNSUCCESSFUL ONE.  C(A) OR ARRIVAL =0 FOR IMU, 1 FOR OPTICS.
000728:
000729: 07,3545           54071        BADEND             TS       RUPTREG2                              #  DEVICE INDEX.
000730: 07,3546           45021                           CS       ZERO                                  #  FOR FAILURE.
000731: 07,3547           13552                           TCF      GOODEND    +2
000732:
000733: 07,3550           54071        GOODEND            TS       RUPTREG2
000734: 07,3551           45017                           CS       ONE                                   #  FOR SUCCESS.
000735:
000736: 07,3552           54072                           TS       RUPTREG3
000737: 07,3553           50071                           INDEX    RUPTREG2                              #  SEE IF USING PROGRAM ASLEEP.
000738: 07,3554           11322                           CCS      MODECADR
000739: 07,3555           13557                           TCF      +2                                    #  YES - WAKE IT UP.
000740: 07,3556           13567                           TCF      ENDMODE                               #  IF 0, PROGRAM NOT IN YET.
000741:
000742: 07,3557           35021                           CAF      ZERO                                  #  WAKE SLEEPING PROGRAM.
000743: 07,3560           50071                           INDEX    RUPTREG2
000744: 07,3561           57322                           XCH      MODECADR
000745: 07,3562           05201                           TC       JOBWAKE
000746:
000747: 07,3563           40072                           CS       RUPTREG3                              #  ADVANCE LOC IF SUCCESSFUL.
000748: 07,3564           50064                           INDEX    LOCCTR
000749: 07,3565           26164                           ADS      LOC
000750:
000751: 07,3566           15324                           TCF      TASKOVER
000752:
000753: 07,3567           30072        ENDMODE            CA       RUPTREG3                              #  -0 INDICATES OPERATION COMPLETE BUT
000754: 07,3570           50071                           INDEX    RUPTREG2                              #  UNSUCCESSFUL - -1 INDICATES COMPLETE AND
000755: 07,3571           55322                           TS       MODECADR                              #  SUCCESSFUL.
000756: 07,3572           15324                           TCF      TASKOVER
000757:


000759:                                                                                                  #  GENERAL STALLING ROUTINE.  USING PROGRAMS COME HERE TO WAIT FOR I/O COMPLETION.
000760:
000761:                                                                                                  #  PROGRAM DESCRIPTION                           DATE - 21 FEB 1967
000762:                                                                                                  #                                                LOG SECTION IMU MODE SWITCHING
000763:                                                                                                  #  MOD BY - R. MELANSON TO ADD DOCUMENTATION     ASSEMBLY SUNDISK REV. 82
000764:
000765:                                                                                                  #  FUNCTIONAL DESCRIPTION -
000766:                                                                                                  #        TO DELAY FURTHER EXECUTION OF THE CALLING ROUTINE UNTIL ITS SELECTED
000767:                                                                                                  #        I/O FUNCTION IS COMPLETE.  THE FOLLOWING CHECKS ON THE CALLING ROUTINE:S
000768:                                                                                                  #        MODECADR ARE MADE AND ACTED UPON.
000769:                                                                                                  #        1) +0 INDICATES INCOMPLETE I/O OPERATION.  CALLING ROUTINE IS PUT TO
000770:                                                                                                  #           SLEEP.
000771:                                                                                                  #        2) -1 INDICATES COMPLETED I/O OPERATION.  STALL BYPASSES JOBSLEEP
000772:                                                                                                  #           CALL AND RETURNS TO CALLING ROUTINE AT L+3
000773:                                                                                                  #        3) -0 INDICATES COMPLETED I/O WITH FAILURE.  STALL CLEARS MODECADR
000774:                                                                                                  #           AND RETURNS TO CALLING ROUTINE AT L+2.
000775:                                                                                                  #        4) VALUE GREATER THAN 0 INDICATES TWO ROUTINES CALLING FOR USE OF
000776:                                                                                                  #           SAME DEVICE.  STALL EXITS TO ABORT WHICH EXECUTES A PROGRAM
000777:                                                                                                  #           RESTART WHICH IN TURN CLEARS ALL MODECADR REGISTERS.
000778:
000779:                                                                                                  #  CALLING SEQUENCE -
000780:                                                                                                  #        L       TC      BANKCALL
000781:                                                                                                  #        L+1     CADR    (ONE OF 5 STALL ADDRESSES  I.E. IMUSTALL, OPTSTALL, RADSTALL,
000782:                                                                                                  #                        AOTSTALL, OR ATTSTALL)
000783:
000784:                                                                                                  #  NORMAL-EXIT MODE -
000785:                                                                                                  #        TCF JOBSLEEP    OR      TCF MODEXIT
000786:
000787:                                                                                                  #  ALARM OR ABORT EXIT MODE -
000788:                                                                                                  #        TC      ABORT
000789:
000790:                                                                                                  #  OUTPUT -
000791:                                                                                                  #        MODECADR=CADR   IF JOBSLEEP
000792:                                                                                                  #        MODECADR=+0     IF I/O COMPLETE
000793:                                                                                                  #        BUF2=L+3        IF I/O COMPLETE AND GOOD.
000794:                                                                                                  #        BUF2=L+2        IF I/O COMPLETE BUT FAILED.
000795:
000796:                                                                                                  #  ERASABLE INITIALIZATION -
000797:                                                                                                  #        BUF2 CONTAINS RETURN ADDRESS PLUS 1,(L+2)
000798:                                                                                                  #        BUF2+1 CONTAINS FBANK VALUE OF CALLING ROUTINE.
000799:                                                                                                  #        MODECADR OF CALLING ROUTINE CONTAINS +0,-1,-0 OR CADR RETURN ADDRESS.
000800:
000801:                                                                                                  #  DEBRIS -
000802:                                                                                                  #        RUPTREG2 AND CALLING ROUTINE MODECADR.
000803:
000804: 07,3573           35017        AOTSTALL           CAF      ONE                                   #  AOT.
000805: 07,3574           03600                           TC       STALL
000806:
000807: 07,3575           35016        RADSTALL           CAF      TWO
000808: 07,3576           13600                           TCF      STALL
000809:


000811: 07,3577  07,3573               OPTSTALL           EQUALS   AOTSTALL
000812:
000813: 07,3577           35021        IMUSTALL           CAF      ZERO                                  #  IMU.
000814:
000815: 07,3600           00004        STALL              INHINT
000816: 07,3601           54071                           TS       RUPTREG2                              #  SAVE DEVICE INDEX.
000817: 07,3602           50000                           INDEX    A                                     #  SEE IF OPERATION COMPLETE.
000818: 07,3603           11322                           CCS      MODECADR
000819: 07,3604           13622                           TCF      MODABORT                              #  ALLOWABLE STATES ARE +0, -1, AND -0.
000820: 07,3605           13616                           TCF      MODESLP                               #  OPERATION INCOMPLETE.
000821: 07,3606           13612                           TCF      MODEGOOD                              #  COMPLETE AND GOOD IF = -1.
000822:
000823: 07,3607           50071        MG2                INDEX    RUPTREG2                              #  COMPLETE AND FAILED IF -0.  RESET TO +0.
000824: 07,3610           55322                           TS       MODECADR                              #  RETURN TO CALLER.
000825: 07,3611           12640                           TCF      MODEEXIT
000826:
000827: 07,3612           10000        MODEGOOD           CCS      A                                     #  MAKE SURE INITIAL STATE -1.
000828: 07,3613           13622                           TCF      MODABORT
000829:
000830: 07,3614           24133                           INCR     BUF2                                  #  IF SO, INCREMENT RETURN ADDRESS AND
000831: 07,3615           13607                           TCF      MG2                                   #  RETURN IMMEDIATELY, SETTING CADR = +0.
000832:
000833: 07,3616           04711        MODESLP            TC       MAKECADR                              #  CALL FROM SWITCHABLE FIXED ONLY.
000834: 07,3617           50071                           INDEX    RUPTREG2
000835: 07,3620           55322                           TS       MODECADR
000836: 07,3621           15175                           TCF      JOBSLEEP
000837:
000838: 07,3622           05721        MODABORT           TC       POODOO                                #  TWO PROGRAMS USING SAME DEVICE.
000839: 07,3623           01210                           OCT      1210
000840:


000842:                                                                                                  #  CONSTANTS FOR MODE SWITCHING ROUTINES
000843:
000844: 07,3624     5771               BITS3&4            =        OCT14
000845: 07,3624     5033               BITS4&6            =        OCT50
000846: 07,3624     5027               BITS4-5            EQUALS   BITS4&5
000847: 07,3624     5010               IMUSEFLG           EQUALS   BIT8                                  #  INTERPRETER SWITCH 7.
000848: 07,3624           77500        -COMMAX            DEC      -191       B-14
000849: 07,3625           77477        -COMMAX-           DEC      -192       B-14
000850: 07,3626           00074        600MS              DEC      60         B-14
000851: 07,3627  07,3073               IMUFIN20           =        IMUFINE
000852: 07,3627           31325        GOMANUR            CA       ATTCADR                               #  IS KALCMANU FREE
000853: 07,3630           00006                           EXTEND
000854: 07,3631           13634                           BZF      +3
000855: 07,3632           05721                           TC       POODOO                                #  NO
000856: 07,3633           01210                           OCT      1210                                  #  2 TRYING TO USE SAME DEVICE
000857:
000858: 07,3634           00006                 +3        EXTEND
000859: 07,3635           30134                           DCA      BUF2
000860: 07,3636           53326                           DXCH     ATTCADR                               #  SAVE FINAL RETURN FOR KALCMAN3
000861:
000862: 07,3637           30006                           CA       BBANK
000863: 07,3640           75023                           MASK     SEVEN
000864: 07,3641           27326                           ADS      ATTCADR    +1
000865:
000866: 07,3642           30167                           CA       PRIORITY
000867: 07,3643           77674                           MASK     PRIO37
000868: 07,3644           55327                           TS       ATTPRIO                               #  SAVE USERS PRIO
000869:
000870: 07,3645           33651                           CAF      KALEBCON                              #  SET EBANK FOR KALCMAN3
000871: 07,3646           54003                           TS       EBANK
000872: 07,3647           04701                           TC       POSTJUMP
000873: 07,3650           44000                           CADR     KALCMAN3
000874: 07,3651           03261        KALEBCON           ECADR    BCDU
000875:


000877:                                                                                                  #  PROGRAM DESCRIPTION
000878:                                                                                                  #  IMU STATUS CHECK ROUTINE R02 (SUBROUTINE UTILITY)
000879:                                                                                                  #  MOD NO - 1
000880:                                                                                                  #  MOD BY - N.BRODEUR
000881:
000882:                                                                                                  #  FUNCTIONAL DESCRIPTION
000883:                                                                                                  #        TO CHECK WHETHER IMU IS ON AND IF ON WHETHER IT IS ALIGNED TO AN
000884:                                                                                                  #        ORIENTATION KNOWN BY THE CMC.  TO REQUEST SELECTION OF THE APPROPRIATE
000885:                                                                                                  #        PROGRAM IF THE IMU IS OFF OR NOT ALIGNED TO AN ORIENTATION KNOWN BY THE
000886:                                                                                                  #        CMC.  CALLED THROUGH BANKCALL
000887:
000888:                                                                                                  #  CALLING SEQUENCE -
000889:                                                                                                  #        L       TC      BANKCALL
000890:                                                                                                  #        L+1     CADR    R02BOTH
000891:
000892:                                                                                                  #  SUBROUTINES CALLED
000893:                                                                                                  #        VARALARM
000894:                                                                                                  #        FLAGUP
000895:
000896:                                                                                                  #  NORMAL EXIT MODES
000897:                                                                                                  #        AT L+2 OF CALLING SEQUENCE
000898:
000899:                                                                                                  #  ALARM OR ABORT EXIT MODES
000900:                                                                                                  #        GOTOPOOH, WITH ALARM
000901:
000902:                                                                                                  #  ERASABLE INITIALIZATION REQUIRED
000903:                                                                                                  #        NONE
000904:
000905:                                                                                                  #  DEBRIS
000906:                                                                                                  #        CENTRALS - A,Q,L
000907:
000908: 34,3763                                           BANK     34
000909: 07,2000                                           SETLOC   R02
000910: 07,2000                                           BANK
000911: 07,3652                                           COUNT    04/R02                                #  COUNT*
000912:
000913: 07,3652           00063        DEC51              DEC      51         B-14
000914: 07,3653           35003        R02BOTH            CAF      BIT13
000915: 07,3654           70077                           MASK     STATE      +3                         #  REFSMFLG
000916: 07,3655           10000                           CCS      A
000917: 07,3656           03667                           TC       R02ZERO                               #  ZERO IMUS
000918:
000919: 07,3657           31320                           CA       IMODES30
000920: 07,3660           75007                           MASK     BIT9                                  #  IS ISS INITIALIZED
000921: 07,3661           00006                           EXTEND
000922: 07,3662           13664                           BZF      +2
000923: 07,3663           45014                           CS       BIT4                                  #  SEND IMU ALARM CODE 210
000924: 07,3664           63672                           AD       OCT220                                #  SEND REFSMM ALARM
000925: 07,3665           05764                           TC       VARALARM
000926:
000927: 07,3666           04106                           TC       GOTOPOOH
000928:


000930: 07,3667           05546        R02ZERO            TC       UPFLAG
000931: 07,3670           00007                           ADRES    IMUSE
000932: 07,3671           14675                           TCF      SWRETURN
000933: 07,3672           00220        OCT220             OCT      220
000934:


000936:                                                                                                  #  PROGRAM DESCRIPTION   P06             10FEB67
000937:
000938:                                                                                                  #  TRANSFER THE ISS/CMC FROM THE OPERATE TO THE STANDBY CONDITION.
000939:
000940:                                                                                                  #  THE NORMAL CONDITION OF READINESS OF THE GNCS WHEN NOT IN USE IS STANDBY.  IN THIS CONDITION THE IMU
000941:                                                                                                  #  HEATER POWER IS ON.  THE IMU OPERATE POWER IS OFF.  THE COMPUTER POWER IS ON.  THE OPTICS POWER IS OFF.  THE
000942:                                                                                                  #  CMC STANDBY ON THE MAIN AND LEB DISKYS IS ON.
000943:
000944:                                                                                                  #  CALLING SEQUENCE:
000945:                                                                                                  #        ASTRONAUT REQUEST THROUGH DSKY  V37E 06E.
000946:
000947:                                                                                                  #  SUBROUTINES CALLED:
000948:                                                                                                  #        GOPERF1
000949:                                                                                                  #        BANKCALL
000950:                                                                                                  #        FLAGDOWN
000951:


000953:                                                                                                  #  PRESTAND PREPARES FOR STANDBY BY SNAPSHOTTING THE SCALER AND TIME1 TIME2
000954:                                                                                                  #  THE LOW 5 BITS OF THE SCALER ARE INSPECTED TO INSURE COMPATABILITY
000955:                                                                                                  #  BETWEEN THE SCALER READING AND THE TIME1 TIME2 READING.
000956:
000957: 26,2000                                           SETLOC   P05P06
000958: 26,2000                                           BANK
000959:
000960: 26,3660     1150                                  EBANK=   TIME2SAV
000961: 26,3660                                           COUNT*   $$/P06
000962:
000963: 26,3660           05546        P06                TC       UPFLAG                                #  SET NODOV37 BIT
000964: 26,3661           00054                           ADRES    NODOFLAG
000965:
000966: 26,3662           00004        PRESTAND           INHINT
000967: 26,3663           00006                           EXTEND
000968: 26,3664           30025                           DCA      TIME2                                 #  SNAPSHOT TIME1 TIME2
000969: 26,3665           53151                           DXCH     TIME2SAV
000970: 26,3666           03717                           TC       SCALPREP
000971: 26,3667           03662                           TC       PRESTAND                              #  T1,T2,SCALER NOT COMPATIBLE
000972: 26,3670           52155                           DXCH     MPAC                                  #  T1,T2 AND SCALER OK
000973: 26,3671           53153                           DXCH     SCALSAVE                              #  STORE SCALER
000974: 26,3672           00004                           INHINT
000975: 26,3673           04662                           TC       BANKCALL
000976: 26,3674           17060                           CADR     RNDREFDR                              #  REFSMM, DRIFT, TRACK FLAGS DOWN
000977:
000978: 26,3675           05560                           TC       DOWNFLAG
000979: 26,3676           00007                           ADRES    IMUSE                                 #  IMUSE DOWN
000980: 26,3677           05560                           TC       DOWNFLAG
000981: 26,3700           00010                           ADRES    RNDVZFLG                              #  RNDVZFLG DOWN
000982:
000983: 26,3701           35005                           CAF      BIT11
000984: 26,3702           00006                           EXTEND
000985: 26,3703           05013                           WOR      CHAN13                                #  SET STANDBY ENABLE BIT
000986:
000987: 26,3704           05412                           TC       PHASCHNG                              #  SET RESTART TO POSTAND WHEN STANDBY
000988: 26,3705           07024                           OCT      07024                                 #        RECOVERS
000989: 26,3706           20000                           OCT      20000
000990: 26,3707     1152                                  EBANK=   SCALSAVE
000991: 26,3707           03737 54062                     2CADR    POSTAND
000992:
000993: 26,3711           35036                           CAF      OCT62
000994: 26,3712           04662                           TC       BANKCALL
000995: 26,3713           21045                           CADR     GOPERF1
000996: 26,3714           13711                           TCF      -3
000997: 26,3715           13711                           TCF      -4
000998: 26,3716           13711                           TCF      -5
000999:
001000: 26,3717     5036               OCT62              EQUALS   .5SEC                                 #  DEC 50 = OCT 62
001001:
001002:                                                                                                  #  THE LOW 5 BITS OF THE SCALER READS 10000 FOR THE FIRST INTERVAL AFTER A


001004:                                                                                                  #  T1 INCREMENT.  IF SCALPREP DETECTS THIS INTERVAL THE T1,T2 AND SCALER
001005:                                                                                                  #  DATA ARE NOT COMPATABLE AND RETURN IS TO L+1 FOR ANOTHER READING OF THE
001006:                                                                                                  #  DATA.  OTHERWISE, THE RETURN IS TO L+2 TO PROCEED.  ROUTINE ALSO PREPARES
001007:                                                                                                  #  THE SCALER READING FOR COMPUTATION OF THE INCREMENT TO UPDATE T1T2.  (THE
001008:                                                                                                  #  10 MS BIT (BIT 6) OF THE SCALER IS INCREMENTED 5 MS OUT OF PHASE FROM
001009:                                                                                                  #  T1.) ADDITION OF 5 MS (BIT 5) TO THE SCALER READING HAS THE EFFECT OF
001010:                                                                                                  #  ADJUSTING BIT 6 IN THE SCALER TO BE IN PHASE WITH BIT 1 OF T1.  THE LOW 5
001011:                                                                                                  #  BITS OF THE SCALER READING ARE THEN SET TO ZERO, TO TRUNCATE THE SCALER
001012:                                                                                                  #  DATA TO 10 MS.  RESULTS ARE STORED IN MPAC, +1.
001013:
001014: 26,3717           00006        SCALPREP           EXTEND
001015: 26,3720           22156                           QXCH     MPAC       +2
001016: 26,3721           04554                           TC       FINETIME   +1
001017: 26,3722           00003                           RELINT
001018: 26,3723           52155                           DXCH     MPAC
001019: 26,3724           35013                           CA       BIT5                                  #  ADD 5 MS TO THE SCALER READING.
001020: 26,3725           54001                           TS       L
001021: 26,3726           35021                           CA       ZERO
001022: 26,3727           20155                           DAS      MPAC
001023: 26,3730           44362                           CS       LOW5                                  #  SET LOW 5 BITS OF (SCALER+5MS) TO ZERO
001024: 26,3731           70155                           MASK     MPAC       +1                         #  AND STORE RESULTS IN MPAC,+1.
001025: 26,3732           56155                           XCH      MPAC       +1
001026: 26,3733           74362                           MASK     LOW5                                  #  TEST LOW 5 BITS OF SCALER FOR THE FIRST
001027:                                                                                                  #  INTERVAL AFTER THE T1 INCREMENT
001028:                                                                                                  #  (NOW = 00000, SINCE BIT 5 ADDED).
001029: 26,3734           10000                           CCS      A                                     #  IS IT 1ST INTERVAL AFTER T1 INCREMENT
001030: 26,3735           24156                           INCR     MPAC       +2                         #  NO
001031: 26,3736           00156                           TC       MPAC       +2                         #  YES
001032:
001033:                                                                                                  #  POSTAND RECOVERS TIME AFTER STANDBY.  THE SCALER IS SNAPSHOTTED AND THE
001034:                                                                                                  #  TIME1 TIME2 COUNTER IS SET TO ZERO.  THE LOW 5 BITS OF THE SCALER ARE
001035:                                                                                                  #  INSPECTED TO INSURE COMPATABILITY BETWEEN THE SCALER READING AND THE
001036:                                                                                                  #  CLEARING OF THE TIME COUNTER.  IT THEN COMPUTES THE DIFFERENCE IN SCALER
001037:                                                                                                  #  VALUES (IN DP) AND ADDS THIS TO THE PREVIOUSLY SNAPSHOTTED VALUES OF
001038:                                                                                                  #  TIME1 TIME2 AND PLACES THIS NEW TIME INTO THE TIME1 TIME2 COUNTER.
001039:
001040: 26,3737                                           COUNT*   $$/P05
001041:
001042: 26,3737           45005        POSTAND            CS       BIT11                                 #  RECOVER TIME AFTER STANDBY.
001043: 26,3740           00006                           EXTEND
001044: 26,3741           03013                           WAND     CHAN13                                #  CLEAR STANDBY ENABLE BIT
001045: 26,3742           00004                           INHINT
001046: 26,3743           35021                           CA       ZERO
001047: 26,3744           54001                           TS       L
001048: 26,3745           52025                           DXCH     TIME2                                 #  CLEAR TIME1 TIME2
001049: 26,3746           03717                           TC       SCALPREP                              #  STORE SCALER IN MPAC, MPAC+1
001050: 26,3747           03742                           TC       POSTAND    +3                         #  T1,T2,SCALER NOT COMPATIBLE
001051: 26,3750           00006                           EXTEND                                         #  T1,T2 AND SCALER OK
001052: 26,3751           41153                           DCS      SCALSAVE
001053: 26,3752           20155                           DAS      MPAC                                  #  FORM DP DIFFERENCE OF POSTSTANDBY SCALER


001055: 26,3753           35006                           CAF      BIT10                                 #  MINUS PRESTANDBY SCALER AND SHIFT RIGHT
001056: 26,3754           07256                           TC       SHORTMP                               #  5 TO ALIGN BITS WITH TIME1 TIME2.
001057: 26,3755           35021                           CAF      ZERO
001058: 26,3756           54156                           TS       MPAC       +2                         #  NEEDED FOR TP AGREE
001059: 26,3757           07226                           TC       TPAGREE                               #  MAKE DP DIFF AGREE
001060: 26,3760           10154                           CCS      MPAC
001061: 26,3761           03766                           TC       POSTCOM                               #  IF DP DIFF NET +, NO SCALER OVERFLOW
001062: 26,3762           03766                           TC       POSTCOM                               #  BETWEEN PRE AND POST STANDBY.
001063: 26,3763           03764                           TC       +1                                    #  IF DP DIFF NET -, SCALER OVERFLOWED.  ADD
001064: 26,3764           35006                           CAF      BIT10                                 #  BIT 10 TO HIGH DIFF TO CORRECT.
001065: 26,3765           26154                           ADS      MPAC
001066: 26,3766           00006        POSTCOM            EXTEND                                         #  C(MPAC,+1) IS MAGNITUDE OF DELTA SCALER.
001067: 26,3767           31151                           DCA      TIME2SAV                              #  PRESTANDBY TIME1 TIME2
001068: 26,3770           20155                           DAS      MPAC
001069: 26,3771           07226                           TC       TPAGREE                               #  FORCE SIGN AGREEMENT
001070: 26,3772           52155                           DXCH     MPAC                                  #  UPDATED VALUE FOR T1,T2.
001071: 26,3773           20025                           DAS      TIME2                                 #  LOAD UPDATED VALUE INTO T1,T2, WITH
001072: 26,3774           05560                           TC       DOWNFLAG                              #  CLEAR NODOFLAG
001073: 26,3775           00054                           ADRES    NODOFLAG
001074:
001075: 26,3776           04106                           TC       GOTOPOOH
001076:
001077:
001078:

End of include-file IMU_MODE_SWITCHING_ROUTINES.agc.  Parent file is MAIN.agc


