
Source Code


000002:                                                                                                  ## Copyright:   Public domain.
000003:                                                                                                  ## Filename:    INFLIGHT_ALIGNMENT_ROUTINES.agc
000004:                                                                                                  ## Purpose:     Part of the source code for Colossus 2A, AKA Comanche 055.
000005:                                                                                                  ##              It is part of the source code for the Command Module's (CM)
000006:                                                                                                  ##              Apollo Guidance Computer (AGC), for Apollo 11.
000007:                                                                                                  ## Assembler:   yaYUL
000008:                                                                                                  ## Contact:     Ron Burkey <info@sandroid.org>.
000009:                                                                                                  ## Website:     www.ibiblio.org/apollo.
000010:                                                                                                  ## Pages:       1355-1364
000011:                                                                                                  ## Mod history: 2009-05-14 RSB  Adapted from the Colossus249/ file of the
000012:                                                                                                  ##                              same name, using Comanche055 page images.
000013:                                                                                                  ##              2016-12-22 RSB  Proofed comment text using octopus/ProoferComments
000014:                                                                                                  ##                              and corrected the errors found.
000015:                                                                                                  ##
000016:                                                                                                  ## This source code has been transcribed or otherwise adapted from digitized
000017:                                                                                                  ## images of a hardcopy from the MIT Museum.  The digitization was performed
000018:                                                                                                  ## by Paul Fjeld, and arranged for by Deborah Douglas of the Museum.  Many
000019:                                                                                                  ## thanks to both.  The images (with suitable reduction in storage size and
000020:                                                                                                  ## consequent reduction in image quality as well) are available online at
000021:                                                                                                  ## www.ibiblio.org/apollo.  If for some reason you find that the images are
000022:                                                                                                  ## illegible, contact me at info@sandroid.org about getting access to the
000023:                                                                                                  ## (much) higher-quality images which Paul actually created.
000024:                                                                                                  ##
000025:                                                                                                  ## Notations on the hardcopy document read, in part:
000026:                                                                                                  ##
000027:                                                                                                  ##      Assemble revision 055 of AGC program Comanche by NASA
000028:                                                                                                  ##      2021113-051.  10:28 APR. 1, 1969
000029:                                                                                                  ##
000030:                                                                                                  ##      This AGC program shall also be referred to as
000031:                                                                                                  ##                      Colossus 2A
000032:


000034: 22,3510                                           BANK     22
000035: 23,2000                                           SETLOC   INFLIGHT
000036: 23,2000                                           BANK
000037:
000038: 23,3205  E5,1671                                  EBANK=   XSM
000039:
000040:                                                                                                  #  CALCGTA COMPUTES THE GYRO TORQUE ANGLES REQUIRED TO BRING THE STABLE MEMBER INTO THE DESIRED ORIENTATION.
000041:
000042:                                                                                                  #  THE INPUT IS THE DESIRED STABLE MEMBER COORDINATES REFERRED TO PRESENT STABLE MEMBER COORDINATES.  THE THREE
000043:                                                                                                  #  HALF-UNIT VECTORS ARE STORED AT XDC, YDC, AND ZDC.
000044:
000045:                                                                                                  #  THE OUTPUTS ARE THE THREE GYRO TORQUING ANGLES TO BE APPLIED TO THE Y, Z, AND X GYROS AND ARE STORED DP AT IGC,
000046:                                                                                                  #  MGC, AND OGC RESPECTIVELY.
000047:
000048: 23,3205                                           COUNT    23/INFLT
000049:
000050: 23,3205           71220        CALCGTA            ITA      DLOAD                                 #  PUSHDOWN 00-03, 16D-27D, 34D-37D
000051: 23,3206           00051                                    S2                                    #  XDC = (XD1 XD2 XD3)
000052: 23,3207           02714                                    XDC                                   #  YDC = (YD1 YD2 YD3)
000053: 23,3210           65325                           PDDL     PDDL                                  #  ZDC = (ZD1 ZD2 ZD3)
000054: 23,3211           15335                                    HI6ZEROS
000055: 23,3212           02720                                    XDC        +4
000056: 23,3213           55476                           DCOMP    VDEF
000057: 23,3214           77656                           UNIT
000058: 23,3215           14027                           STODL    ZPRIME                                #  ZP = UNIT(-XD3 0 XD1) = (ZP1 ZP2 ZP3)
000059: 23,3216           00027                                    ZPRIME
000060:
000061: 23,3217           77742                           SR1
000062: 23,3220           14023                           STODL    SINTH                                 #  SIN(IGC) = ZP1
000063: 23,3221           00033                                    ZPRIME     +4
000064: 23,3222           77742                           SR1
000065: 23,3223           34021                           STCALL   COSTH                                 #  COS(IGC) = ZP3
000066: 23,3224           47256                                    ARCTRIG
000067:
000068: 23,3225           16762                           STODL    IGC                                   #  Y GYRO TORQUING ANGLE   FRACTION OF REV.
000069: 23,3226           02716                                    XDC        +2
000070: 23,3227           77742                           SR1
000071: 23,3230           14023                           STODL    SINTH                                 #  SIN(MGC) = XD2
000072: 23,3231           00027                                    ZPRIME
000073:
000074: 23,3232           65205                           DMP      PDDL
000075: 23,3233           02720                                    XDC        +4                         #  PD00 = (ZP1)(XD3)
000076: 23,3234           00033                                    ZPRIME     +4
000077:
000078: 23,3235           45205                           DMP      DSU
000079: 23,3236           02714                                    XDC                                   #  MPAC = (ZP3)(XD1)
000080: 23,3237           77626                           STADR
000081: 23,3240           43756                           STCALL   COSTH                                 #  COS(MGC) = MPAC - PD00
000082: 23,3241           47256                                    ARCTRIG


000084: 23,3242           26764                           STOVL    MGC                                   #  Z GYRO TORQUING ANGLE   FRACTION OF REV.
000085: 23,3243           00027                                    ZPRIME
000086: 23,3244           77641                           DOT
000087: 23,3245           02730                                    ZDC
000088: 23,3246           24021                           STOVL    COSTH                                 #  COS(OGC) = ZP . ZDC
000089: 23,3247           00027                                    ZPRIME
000090: 23,3250           77641                           DOT
000091: 23,3251           02722                                    YDC
000092: 23,3252           34023                           STCALL   SINTH                                 #  SIN(OGC) = ZP . YDC
000093: 23,3253           47256                                    ARCTRIG
000094:
000095: 23,3254           36760                           STCALL   OGC                                   #  X GYRO TORQUING ANGLE   FRACTION OF REV.
000096: 23,3255           00051                                    S2
000097:


000099:                                                                                                  #  ARCTRIG COMPUTES AN ANGLE GIVEN THE SINE AND COSINE OF THIS ANGLE.
000100:
000101:                                                                                                  #  THE INPUTS ARE SIN/4 AND COS/4 STORED DP AT SINTH AND COSTH.
000102:
000103:                                                                                                  #  THE OUTPUT IS THE CALCULATED ANGLE BETWEEN +.5 AND -.5 REVOLUTIONS AND STORED AT THETA.  THE OUTPUT IS ALSO
000104:                                                                                                  #  AVAILABLE AT MPAC.
000105:
000106: 23,3256           51545        ARCTRIG            DLOAD    ABS                                   #  PUSHDOWN  16D-21D
000107: 23,3257           00023                                    SINTH
000108: 23,3260           50025                           DSU      BMN
000109: 23,3261           07474                                    QTSN45                                #  ABS(SIN/4) - SIN(45)/4
000110: 23,3262           47271                                    TRIG1                                 #  IF (-45,45) OR (135,-135)
000111:
000112: 23,3263           72545                           DLOAD    SL1                                   #  (45,135) OR (-135,-45)
000113: 23,3264           00021                                    COSTH
000114: 23,3265           75326                           ACOS     SIGN
000115: 23,3266           00023                                    SINTH
000116: 23,3267           00025                           STORE    THETA                                 #  X = ARCCOS(COS) WITH SIGN(SIN)
000117: 23,3270           77616                           RVQ
000118:
000119: 23,3271           72545        TRIG1              DLOAD    SL1                                   #  (-45,45) OR (135,-135)
000120: 23,3272           00023                                    SINTH
000121: 23,3273           77736                           ASIN
000122: 23,3274           14025                           STODL    THETA                                 #  X = ARCSIN(SIN) WITH SIGN(SIN)
000123: 23,3275           00021                                    COSTH
000124: 23,3276           77640                           BMN
000125: 23,3277           47302                                    TRIG2                                 #  IF (135,-135)
000126:
000127: 23,3300           43545                           DLOAD    RVQ
000128: 23,3301           00025                                    THETA                                 #  X = ARCSIN(SIN)   (-45,45)
000129:
000130: 23,3302           75345        TRIG2              DLOAD    SIGN                                  #  (135,-135)
000131: 23,3303           15333                                    HIDPHALF
000132: 23,3304           00023                                    SINTH
000133: 23,3305           77625                           DSU
000134: 23,3306           00025                                    THETA
000135: 23,3307           00025                           STORE    THETA                                 #  X = .5 WITH SIGN(SIN) - ARCSIN(SIN)
000136: 23,3310           77616                           RVQ                                            #        (+) - (+) OR (-) - (-)
000137:


000139:                                                                                                  #  SMNB, NBSM, AND AXISROT, WHICH USED TO APPEAR HERE, HAVE BEEN
000140:                                                                                                  #  COMBINED IN A ROUTINE CALLED AX*SR*T, WHICH APPEARS AMONG THE POWERED
000141:                                                                                                  #  FLIGHT SUBROUTINES.
000142:


000144:                                                                                                  #  CALCGA COMPUTES THE CDU DRIVING ANGLES REQUIRED TO BRING THE STABLE MEMBER INTO THE DESIRED ORIENTATION.
000145:
000146:                                                                                                  #  THE INPUTS ARE  1) THE NAVIGATION BASE COORDINATES REFERRED TO ANY COORDINATE SYSTEM.  THE THREE HALF-UNIT
000147:                                                                                                  #  VECTORS ARE STORED AT XNB, YNB, AND ZNB.  2) THE DESIRED STABLE MEMBER COORDINATES REFERRED TO THE SAME
000148:                                                                                                  #  COORDINATE SYSTEM ARE STORED AT XSM, YSM, AND ZSM.
000149:
000150:                                                                                                  #  THE OUTPUTS ARE THE THREE CDU DRIVING ANGLES AND ARE STORED SP AT THETAD, THETAD +1, AND THETAD +2.
000151:
000152: 23,3311           77601        CALCGA             SETPD                                          #  PUSHDOWN 00-05, 16D-21D, 34D-37D
000153: 23,3312           00001                                    0
000154: 23,3313           47375                           VLOAD    VXV
000155: 23,3314           02714                                    XNB                                   #  XNB = OGA (OUTER GIMBAL AXIS)
000156: 23,3315           02700                                    YSM                                   #  YSM = IGA (INNER GIMBAL AXIS)
000157: 23,3316           41456                           UNIT     PUSH                                  #  PD0 = UNIT(OGA X IGA) = MGA
000158:
000159: 23,3317           44041                           DOT      ITA
000160: 23,3320           02730                                    ZNB
000161: 23,3321           00051                                    S2
000162: 23,3322           24021                           STOVL    COSTH                                 #  COS(OG) = MGA . ZNB
000163: 23,3323           00001                                    0
000164: 23,3324           77641                           DOT
000165: 23,3325           02722                                    YNB
000166: 23,3326           34023                           STCALL   SINTH                                 #  SIN(OG) = MGA . YNB
000167: 23,3327           47256                                    ARCTRIG
000168: 23,3330           26760                           STOVL    OGC
000169: 23,3331           00001                                    0
000170:
000171: 23,3332           50235                           VXV      DOT                                   #  PROVISION FOR MG ANGLE OF 90 DEGREES
000172: 23,3333           02714                                    XNB
000173: 23,3334           02700                                    YSM
000174: 23,3335           77752                           SL1
000175: 23,3336           24021                           STOVL    COSTH                                 #  COS(MG) = IGA . (MGA X OGA)
000176: 23,3337           02700                                    YSM
000177: 23,3340           77641                           DOT
000178: 23,3341           02714                                    XNB
000179: 23,3342           34023                           STCALL   SINTH                                 #  SIN(MG) = IGA . OGA
000180: 23,3343           47256                                    ARCTRIG
000181: 23,3344           02764                           STORE    MGC
000182:
000183: 23,3345           45246                           ABS      DSU
000184: 23,3346           07476                                    .166...
000185: 23,3347           77644                           BPL
000186: 23,3350           47371                                    GIMLOCK1                              #  IF ANGLE GREATER THAN 60 DEGREES
000187:
000188: 23,3351           50375        CALCGA1            VLOAD    DOT
000189: 23,3352           02706                                    ZSM
000190: 23,3353           00001                                    0
000191: 23,3354           24021                           STOVL    COSTH                                 #  COS(IG) = ZSM . MGA
000192: 23,3355           02672                                    XSM


000194: 23,3356           45441                           DOT      STADR
000195: 23,3357           43754                           STCALL   SINTH                                 #  SIN(IG) = XSM . MGA
000196: 23,3360           47256                                    ARCTRIG
000197:
000198: 23,3361           26762                           STOVL    IGC
000199: 23,3362           02760                                    OGC
000200: 23,3363           43034                           RTB      BONCLR
000201: 23,3364           45552                                    V1STO2S
000202: 23,3365           00200                                    CPHIFLAG
000203: 23,3366           00051                                    S2
000204: 23,3367           35156                           STCALL   THETAD
000205: 23,3370           00051                                    S2
000206:
000207: 23,3371           77776        GIMLOCK1           EXIT
000208: 23,3372           05650                           TC       ALARM
000209: 23,3373           00401                           OCT      00401
000210: 23,3374           05546                           TC       UPFLAG                                #  GIMBAL LOCK HAS OCCURED
000211: 23,3375           00056                           ADRES    GLOKFAIL
000212:
000213: 23,3376           06006                           TC       INTPRET
000214: 23,3377           77650                           GOTO
000215: 23,3400           47351                                    CALCGA1
000216:


000218:                                                                                                  #  AXISGEN COMPUTES THE COORDINATES OF ONE COORDINATE SYSTEM REFERRED TO ANOTHER COORDINATE SYSTEM.
000219:
000220:                                                                                                  #  THE INPUTS ARE  1) THE STAR1 VECTOR REFERRED TO COORDINATE SYSTEM A STORED AT STARAD.  2) THE STAR2 VECTOR
000221:                                                                                                  #  REFERRED TO COORDINATE SYSTEM A STORED AT STARAD +6.  3) THE STAR1 VECTOR REFERRED TO COORDINATE SYSTEM B STORED
000222:                                                                                                  #  AT LOCATION 6 OF THE VAC AREA.  4) THE STAR2 VECTOR REFERRED TO COORDINATE SYSTEM B STORED AT LOCATION 12D OF
000223:                                                                                                  #  THE VAC AREA.
000224:
000225:                                                                                                  #  THE OUTPUT DEFINES COORDINATE SYSTEM A REFERRED TO COORDINATE SYSTEM B.  THE THREE HALF-UNIT VECTORS ARE STORED
000226:                                                                                                  #  AT LOCATIONS XDC, XDC +6, XDC +12D, AND STARAD, STARAD +6, STARAD +12D.
000227:
000228: 23,3401           66370        AXISGEN            AXT,1    SSP                                   #  PUSHDOWN 00-30D, 34D-37D
000229: 23,3402           02743                                    STARAD     +6
000230: 23,3403           00051                                    S1
000231: 23,3404           02727                                    STARAD     -6
000232:
000233: 23,3405           77601                           SETPD
000234: 23,3406           00001                                    0
000235: 23,3407           46773        AXISGEN1           VLOAD*   VXV*                                  #  06D   UA = S1
000236: 23,3410           02752                                    STARAD     +12D,1                     #        STARAD +00D     UB = S1
000237: 23,3411           02760                                    STARAD     +18D,1
000238: 23,3412           77656                           UNIT                                           #  12D   VA = UNIT(S1 X S2)
000239: 23,3413           06760                           STORE    STARAD     +18D,1                     #        STARAD +06D     VB = UNIT(S1 X S2)
000240: 23,3414           77773                           VLOAD*
000241: 23,3415           02752                                    STARAD     +12D,1
000242:
000243: 23,3416           76433                           VXV*     VSL1
000244: 23,3417           02760                                    STARAD     +18D,1                     #  18D   WA = UA X VA
000245: 23,3420           06766                           STORE    STARAD     +24D,1                     #        STARAD +12D     WB = UB X VB
000246:
000247: 23,3421           77700                           TIX,1
000248: 23,3422           47407                                    AXISGEN1
000249:
000250: 23,3423           66160                           AXC,1    SXA,1
000251: 23,3424           00006                                    6
000252: 23,3425           00036                                    30D
000253:
000254: 23,3426           66370                           AXT,1    SSP
000255: 23,3427           00022                                    18D
000256: 23,3430           00051                                    S1
000257: 23,3431           00006                                    6
000258:
000259: 23,3432           66374                           AXT,2    SSP
000260: 23,3433           00006                                    6
000261: 23,3434           00052                                    S2
000262: 23,3435           00002                                    2
000263:
000264: 23,3436           76720        AXISGEN2           XCHX,1   VLOAD*
000265: 23,3437           00036                                    30D                                   #  X1=-6 X2=+6   X1=-6 X2=+4     X1=-6 X2=+2
000266: 23,3440           00001                                    0,1
000267:


000269: 23,3441           62757                           VXSC*    PDVL*                                 #  J=(UA)(UB1)   J=(UA)(UB2)     J=(UA)(UB3)
000270: 23,3442           75033                                    STARAD     +6,2
000271: 23,3443           00007                                    6,1
000272: 23,3444           77757                           VXSC*
000273: 23,3445           75025                                    STARAD     +12D,2
000274: 23,3446           30031                           STOVL*   24D                                   #  K=(VA)(VB1)   J=(VA)(VB2)     J=(VA)(VB3)
000275: 23,3447           00015                                    12D,1
000276:
000277: 23,3450           53357                           VXSC*    VAD
000278: 23,3451           75017                                    STARAD     +18D,2                     #  L=(WA)(WB1)   J=(WA)(WB2)     J=(WA)(WB3)
000279: 23,3452           76455                           VAD      VSL1
000280: 23,3453           00031                                    24D
000281: 23,3454           53520                           XCHX,1   UNIT
000282: 23,3455           00036                                    30D
000283: 23,3456           06736                           STORE    XDC        +18D,1                     #  XDC = L+J+K   YDC = L+J+K     ZDC = L+J+K
000284:
000285: 23,3457           77700                           TIX,1
000286: 23,3460           47461                                    AXISGEN3
000287:
000288: 23,3461           77704        AXISGEN3           TIX,2
000289: 23,3462           47436                                    AXISGEN2
000290:
000291: 23,3463           77775                           VLOAD
000292: 23,3464           02714                                    XDC
000293: 23,3465           26736                           STOVL    STARAD
000294: 23,3466           02722                                    YDC
000295: 23,3467           26744                           STOVL    STARAD     +6
000296: 23,3470           02730                                    ZDC
000297: 23,3471           02752                           STORE    STARAD     +12D
000298:
000299: 23,3472           77616                           RVQ
000300:


000302: 23,3473           05520 26075  QTSN45             2DEC     .1768
000303: 23,3475           05252 25253  .166...            2DEC     .1666666667
000304:


000307:
000308:
000309:

End of include-file INFLIGHT_ALIGNMENT_ROUTINES.agc.  Parent file is MAIN.agc


