
Source Code


000002:                                                                                                  ## Copyright:   Public domain.
000003:                                                                                                  ## Filename:    INTEGRATION_INITIALIZATION.agc
000004:                                                                                                  ## Purpose:     Part of the source code for Colossus 2A, AKA Comanche 055.
000005:                                                                                                  ##              It is part of the source code for the Command Module's (CM)
000006:                                                                                                  ##              Apollo Guidance Computer (AGC), for Apollo 11.
000007:                                                                                                  ## Assembler:   yaYUL
000008:                                                                                                  ## Contact:     Ron Burkey <info@sandroid.org>.
000009:                                                                                                  ## Website:     www.ibiblio.org/apollo.
000010:                                                                                                  ## Pages:       1309-1333
000011:                                                                                                  ## Mod history: 2009-05-15 RSB  Adapted from the Colossus249/ file of the
000012:                                                                                                  ##                              same name, using Comanche055 page images.
000013:                                                                                                  ##              2009-05-20 RSB  Corrections:  fixed an interpreter instruction,
000014:                                                                                                  ##                              fixed a SETLOC.
000015:                                                                                                  ##              2009-05-23 RSB  In SETCOAST, corrected MOONTHIS to AMOONFLG.
000016:                                                                                                  ##              2010-08-29 JL   Fixed indentation.
000017:                                                                                                  ##              2016-12-22 RSB  Proofed comment text using octopus/ProoferComments
000018:                                                                                                  ##                              and corrected the errors found.
000019:                                                                                                  ##              2017-01-14 RSB  Fixed comment-text errors located by diff'ing
000020:                                                                                                  ##                              against Colossus 249.
000021:                                                                                                  ##              2017-02-05 RSB  Back-ported a pair of comment corrections
000022:                                                                                                  ##                              identified while proofing Artemis 072.
000023:                                                                                                  ##
000024:                                                                                                  ## This source code has been transcribed or otherwise adapted from digitized
000025:                                                                                                  ## images of a hardcopy from the MIT Museum.  The digitization was performed
000026:                                                                                                  ## by Paul Fjeld, and arranged for by Deborah Douglas of the Museum.  Many
000027:                                                                                                  ## thanks to both.  The images (with suitable reduction in storage size and
000028:                                                                                                  ## consequent reduction in image quality as well) are available online at
000029:                                                                                                  ## www.ibiblio.org/apollo.  If for some reason you find that the images are
000030:                                                                                                  ## illegible, contact me at info@sandroid.org about getting access to the
000031:                                                                                                  ## (much) higher-quality images which Paul actually created.
000032:                                                                                                  ##
000033:                                                                                                  ## Notations on the hardcopy document read, in part:
000034:                                                                                                  ##
000035:                                                                                                  ##      Assemble revision 055 of AGC program Comanche by NASA
000036:                                                                                                  ##      2021113-051.  10:28 APR. 1, 1969
000037:                                                                                                  ##
000038:                                                                                                  ##      This AGC program shall also be referred to as
000039:                                                                                                  ##                      Colossus 2A
000040:


000042:                                                                                                  #  1.0 INTRODUCTION
000043:                                                                                                  #  ----------------
000044:
000045:                                                                                                  #  FROM A USERS POINT OF VIEW, ORBITAL INTEGRATION IS ESSENTIALLY THE SAME AS THE 278 INTEGRATION
000046:                                                                                                  #  PROGRAM.  THE SAME ENTRANCES TO THE PROGRAM WILL BE MAINTAINED, THE SAME STALLING ROUTINE WILL BE USED AND
000047:                                                                                                  #  OUTPUT WILL STILL BE VIA THE PUSHLIST.  THE PRIMARY DIFFERENCES TO A USER INVOLVE THE ADDED CAPABILITY OF
000048:                                                                                                  #  TERMINATING INTEGRATION AT A SPECIFIC FINAL RADIUS AND THE DIFFERENCE IN STATE VECTOR SCALING INSIDE AND OUT-
000049:                                                                                                  #  SIDE THE LUNAR SPHERE OF INFLUENCE.
000050:
000051:                                                                                                  #  IN ORDER TO MAKE THE CSM(LEM)PREC AND CSM(LEM)CONIC ENTRANCES SIMILAR TO FLIGHT 278, THE INTEGRATION PROGRAM
000052:                                                                                                  #  WILL ITSELF SET THE FINAL RADIUS (RFINAL) TO 0 SO THAT REACHING THE DESIRED TIME ONLY WILL TERMINATE
000053:                                                                                                  #  INTEGRATION.  THE DP REGISTER RFINAL MUST BE SET BY USERS OF INTEGRVS AND INTEGRV, AND MUST BE DONE AFTER THE
000054:                                                                                                  #  CALL TC INTSTALL.
000055:
000056:                                                                                                  #  WHEN THE LM IS ON THE LUNAR SURFACE (INDICATED BY LUNAR SURFACE FLAG SET) CALLS TO LEMCONIC, LEMPREC, AND
000057:                                                                                                  #  INTEGRV WITH VINFLAG = 0 WILL RESULT IN THE USE OF THE PLANETARY INERTIAL ORIENTATION SUBROUTINES TO PROVIDE
000058:                                                                                                  #  BOTH THE LMS POSITION AND VELOCITY IN THE REFERENCE COORDINATE SYSTEM.
000059:                                                                                                  #  THE PROGRAM WILL PROVIDE OUTPUT AS IF INTEGRATION WAS USED.  THAT IS, THE PUSHLIST WILL BE SET AS NOTED BELOW AND
000060:                                                                                                  #  THE PERMANENT STATE VECTOR UPDATED WHEN SPECIFIED BY AN INTEGRV CALL.
000061:
000062:                                                                                                  #  USERS OF INTEGRVS DESIRING INTEGRATION (INTYPFLG = 0) SHOULD NOTE THAT THE OBLATENESS PERTURBATION COMPUTATION
000063:                                                                                                  #  IN LUNAR ORBIT IS TIME DEPENDENT.  THEREFORE, THE USER SHOULD SUPPLY AN INITIAL STATE VECTOR VALID AT SOME REAL
000064:                                                                                                  #  TIME AND THE DESIRED TIME (TDEC1) ALSO AT SOME REAL TIME.  FOR CONIC ,,INTEGRATION,, THE USER MAY STILL USE ZERO
000065:                                                                                                  #  AS THE INITIAL TIME AND DELTA TIME AS THE DESIRED TIME.
000066:
000067:                                                                                                  #  2.0 GENERAL DESCRIPTION
000068:                                                                                                  #  -----------------------
000069:
000070:                                                                                                  #  THE INTEGRATION PROGRAM OPERATES AS A CLOSED INTERPRETIVE SUBROUTINE AND PERFORMS THESE FUNCTIONS ---
000071:                                                                                                  #        1) INTEGRATES (PRECISION OR CONIC) EITHER CSM OR LM STATE VECTOR
000072:                                                                                                  #        2) INTEGRATES THE W-MATRIX
000073:                                                                                                  #        3) PERMANENT OR TEMPORARY UPDATE OF THE STATE VECTOR
000074:
000075:                                                                                                  #  THERE ARE SIX ENTRANCES TO THE INTEGRATION PROGRAM.  FOUR OF THESE (CSMPREC, LEMPREC, CSMCONIC, LEMCONIC) SET
000076:                                                                                                  #  ALL THE FLAGS REQUIRED IN THE INTEGRATION PROGRAM ITSELF TO CAUSE THE PRECISION OR CONIC INTEGRATION (KEPLER) OF
000077:                                                                                                  #  THE LM OR CSM STATE VECTOR, AS THE NAMES SUGGEST.  ONE ENTRANCE (INTEGRVS) PERMITS THE CALLING PROGRAM TO
000078:                                                                                                  #  PROVIDE A STATE VECTOR TO BE INTEGRATED.  THE CALLING PROGRAM MUST SET THE FLAGS INDICATING (1) PRECISION OR
000079:                                                                                                  #  CONIC INTEGRATION, (2) IN OR OUT OF LUNAR SPHERE, (3) MIDCOURSE OR NOT, AND THE INTEGRATION PROGRAM COMPLETES
000080:                                                                                                  #  THE FLAG SETTING TO BYPASS W-MATRIX INTEGRATION.  THE LAST ENTRANCE (INTEGRV, USED IN GENERAL BY THE
000081:                                                                                                  #  NAVIGATION PROGRAMS) PERMITS THE CALLER TO SET FIVE FLAGS (NOT MOONFLAG OR MIDFLAG) BUT NOT TO INPUT A STATE
000082:                                                                                                  #  VECTOR.  ANY PROGRAM WHICH CALLS INTEGRVS OR INTEGRV MUST CALL INTSTALL BEFORE IT SETS THE INTEGRATION FLAGS
000083:                                                                                                  #  AND/OR STATE VECTOR.
000084:
000085:                                                                                                  #  THREE SETS OF 42 REGISTERS AND 2 FLAGS ARE USED FOR THE STATE VECTORS.  TWO SETS, WHICH MAY NOT BE OVERLAYED, ARE
000086:                                                                                                  #  USED FOR THE PERMANENT STATE VECTORS FOR THE CSM AND LM.  THE THIRD SET, WHICH MAY BE OVERLAYED WHEN INTEGRATION
000087:                                                                                                  #  IS NOT BEING DONE, IS USED IN THE COMPUTATIONS.
000088:
000089:                                                                                                  #  THE PERMANENT STATE VECTORS WILL BE PERIODICALLY UPDATED SO THAT THE VECTORS WILL NOT BE OLDER THAN 4 TIMESTEPS.
000090:                                                                                                  #  THE PERMANENT STATE VECTORS WILL ALSO BE UPDATED WHENEVER THE W-MATRIX IS INTEGRATED OR WHEN A CALLER OF INTEGRV
000091:                                                                                                  #  SETS STATEFLG (THE NAVIGATION PROGRAMS P20, P22.)
000092:


000094:                                                                                                  #  APPENDIX B OF THE USERS GUIDE LISTS THE STATE VECTOR QUANTITIES.
000095:
000096:                                                                                                  #  2.1 RESTARTS
000097:
000098:                                                                                                  #  PHASE CHANGES WILL BE MADE IN THE INTEGRATION PROGRAM ONLY FOR THE INTEGRV ENTRANCE (I.E., WHEN THE W-MATRIX IS
000099:                                                                                                  #  INTEGRATED OR PERMANENT STATE VECTOR IS UPDATED.)  THE GROUP NUMBER USED WILL BE THAT FOR THE P20-25 PROGRAMS
000100:                                                                                                  #  (I.E., GROUP2) SINCE THE INTEGRV ENTRANCE WILL ONLY BE USED BY THESE PROGRAMS.  IF A RESTART OCCURS DURING AN
000101:                                                                                                  #  INTEGRATION OF THE STATE VECTOR ONLY, THE RECOVERY WILL BE TO THE LAST PHASE IN THE CALLING PROGRAM.  CALLING
000102:                                                                                                  #  PROGRAMS WHICH USE THE INTEGRV OR INTEGRVS ENTRANCE OF INTEGRATION SHOULD ENSURE THAT IF PHASE CHANGING IS DONE
000103:                                                                                                  #  THAT IT IS PRIOR TO SETTING THE INTEGRATION INPUTS IN THE PUSHLIST.
000104:                                                                                                  #  THIS IS BECAUSE THE PUSHLIST IS LOST DURING A RESTART.
000105:
000106:                                                                                                  #  2.2 SCALING
000107:
000108:                                                                                                  #  THE INTEGRATION ROUTINE WILL MAINTAIN THE PERMANENT MEMORY STATE VECTORS IN THE SCALING AND UNITS DEFINED IN
000109:                                                                                                  #  APPENDIX B OF THE USERS GUIDE.  THE SCALING OF THE OUTPUT POSITION VECTOR DEPENDS ON THE ORIGIN OF THE COORDINATE
000110:                                                                                                  #  SYSTEM AT THE DESIRED INTEGRATION TIME.  THE COORDINATE SYSTEM TRANSFORMATION WILL BE DONE AUTOMATICALLY ON
000111:                                                                                                  #  MULTIPLE TIMESTEP ENCKE INTEGRATION ONLY.  THUS IT IS POSSIBLE TO HAVE OUTPUT FROM SUCCESSIVE INTEGRATIONS IN
000112:                                                                                                  #  DIFFERENT SCALING.
000113:                                                                                                  #  HOWEVER, RATT, VATT WILL ALWAYS BE SCALED THE SAME.
000114:
000115:                                                                                                  #  3.0 INPUT/OUTPUT
000116:                                                                                                  #  ----------------
000117:
000118:                                                                                                  #  PROGRAM INPUTS ARE THE FLAGS DESCRIBED IN APPENDIX A AND THE PERMANENT STATE VECTOR QUANTITIES DESCRIBED IN AP-
000119:                                                                                                  #  PENDIX B OF THE USERS GUIDE, PLUS THE DESIRED TIME TO INTEGRATE TO IN TDEC1 (A PUSH LIST LOCATION).
000120:                                                                                                  #  FOR INTEGRVS, THE RCV,VCV,TET OF THE TEMPORARY STATE VECTOR MUST BE SET, PLUS MOONFLAG AND MIDFLAG
000121:
000122:                                                                                                  #  FOR SIMULATION THE FOLLOWING QUANTITIES MUST BE PRESET ---
000123:                                                                                                  #                                                                                EARTH   MOON
000124:                                                                                                  #                                                                                 29      27
000125:                                                                                                  #        RRECTCSM(LEM)   -       RECTIFIED POSITION VECTOR       METERS          2       2
000126:
000127:                                                                                                  #                                                                                 7       5
000128:                                                                                                  #        VRECTCSM(LEM)   -       RECTIFIED VELOCITY VECTOR       M/CSEC          2       2
000129:
000130:                                                                                                  #                                                                                 28      28
000131:                                                                                                  #        TETCSM(LEM)     -       TIME STATE VECTOR IS VALID      CSEC            2       2
000132:                                                                                                  #                                CUSTOMARILY 0, BUT NOTE LUNAR
000133:                                                                                                  #                                ORBIT DEPENDENCE ON REAL TIME.
000134:
000135:                                                                                                  #                                                                                 22      18
000136:                                                                                                  #        DELTAVCSM(LEM)  -       POSITION DEVIATION              METERS          2       2
000137:                                                                                                  #                                0 IF TCCSM(LEM) = 0
000138:
000139:                                                                                                  #                                                                                 3       -1
000140:                                                                                                  #        NUVCSM(LEM)     -       VELOCITY DEVIATION              M/CSEC          2       2
000141:                                                                                                  #                                0 IF TCCSM(LEM) = 0


000143:                                                                                                  #                                                                                 29      27
000144:                                                                                                  #        RCVCSM(LEM)     -       CONIC POSITION                  METERS          2       2
000145:                                                                                                  #                                EQUALS RRECTCSM(LEM) IF
000146:                                                                                                  #                                TCCSM(LEM) = 0
000147:
000148:                                                                                                  #                                                                                 7       5
000149:                                                                                                  #        VCVCSM(LEM)     -       CONIC VELOCITY                  M/CSEC          2       2
000150:                                                                                                  #                                EQUALS VRECTCSM(LEM) IF
000151:                                                                                                  #                                TCCSM(LEM) = 0
000152:
000153:                                                                                                  #                                                                                 28      28
000154:                                                                                                  #        TCCSM(LEM)      -       TIME SINCE RECTIFICATION        CSECS           2       2
000155:                                                                                                  #                                CUSTOMARILY 0
000156:
000157:                                                                                                  #                                                                 1/2             17      16
000158:                                                                                                  #        XKEPCSM(LEM)    -       ROOT OF KEPLERS EQUATION        M               2       2
000159:                                                                                                  #                                0 IF TCCSM(LEM) = 0
000160:
000161:                                                                                                  #        CMOONFLG        -       PERMANENT FLAGS CORRESPONDING                   0       0
000162:                                                                                                  #        CMIDFLAG                TO MOONFLAG AND MIDFLAG                         0,1     0,1
000163:                                                                                                  #        LMOONFLG                C = CSM, L = LM                                 0       0
000164:                                                                                                  #        LMIDFLG                                                                 0,1     0,1
000165:
000166:                                                                                                  #        SURFFLAG        -       LUNAR SURFACE FLAG                              0,1     0,1
000167:
000168:                                                                                                  #  IN ADDITION, IF (L)CMIDFLAG IS SET, THE INITIAL INPUT VALUES FOR LUNAR
000169:                                                                                                  #  SOLAR EPHEMERIDES SUBROUTINE AND PLANETARY INERTIAL ORIENTATION SUB-
000170:                                                                                                  #  ROUTINE MUST BE PRESET.
000171:
000172:                                                                                                  #  OUTPUT
000173:                                                                                                  #        AFTER EVERY CALL TO INTEGRATION
000174:                                                                                                  #                                                                        EARTH   MOON
000175:                                                                                                  #                                                                         29      29
000176:                                                                                                  #        0D      RATT    POSITION                        METERS          2       2
000177:
000178:                                                                                                  #                                                                         7       7
000179:                                                                                                  #        6D      VATT    VELOCITY                        M/CSEC          2       2
000180:
000181:                                                                                                  #                                                                         28      28
000182:                                                                                                  #        12D     TAT     TIME                                            2       2
000183:
000184:                                                                                                  #                                                                         29      27
000185:                                                                                                  #        14D     RATT1   POSITION                        METERS          2       2
000186:
000187:                                                                                                  #                                                                         7       5
000188:                                                                                                  #        20D     VATT1   VELOCITY                        M/CSEC          2       2
000189:
000190:                                                                                                  #                                                         3   2           36      30
000191:                                                                                                  #        26D     MU(P)   MU                              M /CS           2       2
000192:
000193:                                                                                                  #        X1              MUTABLE ENTRY                                   -2      -10D
000194:
000195:                                                                                                  #        X2              COORDINT
000196:                                                                                                  #        X2              COORDINATE SYSTEM ORIGEN                        0       2
000197:                                                                                                  #                        (THIS, NOT MOONFLAG, SHOULD BE


000199:                                                                                                  #                        USED TO DETERMINE ORIGIN.)
000200:
000201:                                                                                                  #  IN ADDITION TO THE ABOVE, THE PERMANENT STATE VECTOR IS UPDATED WHENEVER
000202:                                                                                                  #  STATEFLG WAS SET AND WHENEVER A W-MATRIX IS TO BE INTEGRATED.  THE PUSH
000203:                                                                                                  #  COUNTER IS SET TO 0 AND OVERFLOW IS CLEARED BEFORE RETURNING TO THE
000204:                                                                                                  #  CALLING PROGRAM.
000205:
000206:                                                                                                  #  4.0 CALLING SEQUENCES AND SAMPLE CODE
000207:                                                                                                  #  -------------------------------------
000208:
000209:                                                                                                  #        A) PRECISION ORBITAL INTEGRATION.  CSMPREC, LEMPREC ENTRANCES
000210:                                                                                                  #                L-X     STORE TIME TO 95T5791T5 T 95 PUS L9ST (T4531)
000211:                                                                                                  #                L       CALL
000212:                                                                                                  #                L+1             CSMPREC (OR LEMPREC)
000213:                                                                                                  #                L+2     RETURN
000214:                                                                                                  #           INPUT                                                           28
000215:                                                                                                  #                TDEC1 (PD 32D) TIME TO INTEGRATE TO...CENTISECONDS SCALED 2
000216:                                                                                                  #           OUTPUT
000217:                                                                                                  #                THE DATA LISTED IN SECTION 3.0 PLUS
000218:                                                                                                  #                RQVV    POSITION VECTOR OF VEHICLE WITH RESPECT TO SECONDARY
000219:                                                                                                  #                BODY... METERS B-29 ONLY IF MIDFLAG = DIM0FLAG = 1
000220:                                                                                                  #        B) CONIC INTEGRATION.  CSMCONIC, LEMCONIC ENTRANCES
000221:                                                                                                  #                L-X     STORE TIME IN PUSH LIST (TDEC1)
000222:                                                                                                  #                L       CALL
000223:                                                                                                  #                L+1             CSMCONIC (OR LEMCONIC)
000224:                                                                                                  #           INPUT/OUTPUT
000225:                                                                                                  #                SAME AS PRECISION INTEGRATION, EXCEPT RQVV NOT SET
000226:                                                                                                  #        C) INTEGRATE GIVEN STATE VECTOR.  INTEGRVS ENTRANCE
000227:                                                                                                  #                CALL
000228:                                                                                                  #                                INTSTALL
000229:                                                                                                  #                VLOAD
000230:                                                                                                  #                                POSITION VECTOR
000231:                                                                                                  #                STOVL           RCV
000232:                                                                                                  #                                VELOCITY VECTOR
000233:                                                                                                  #                STODL           VCV
000234:                                                                                                  #                                TIME STATE VECTOR VALID
000235:                                                                                                  #                STODL           TET
000236:                                                                                                  #                                FINAL RADIUS
000237:                                                                                                  #                STORE           RFINAL
000238:                                                                                                  #                SET(CLEAR)      SET(CLEAR)
000239:                                                                                                  #                                INTYPFLAG
000240:                                                                                                  #                                MOONFLAG
000241:                                                                                                  #                SET(CLEAR)      DLOAD
000242:                                                                                                  #                                DESIRED TIME
000243:                                                                                                  #                STCALL          TDEC1
000244:                                                                                                  #                                INTEGRVS
000245:                                                                                                  #          INPUT
000246:                                                                                                  #                RCV     POSITION VECTOR                 METERS
000247:                                                                                                  #                VCV     VELOCITY VECTOR                 M/CSEC
000248:                                                                                                  #                TET     TIME OF STATE VECTOR (MAY = 0)  CSEC B-28


000250:                                                                                                  #                TDEC1   TIME TO INTEGRATE TO            CSEC B-28 (PD 32D)
000251:                                                                                                  #                        (MAY BE INCREMENT IF TET=0)
000252:                                                                                                  #          OUTPUT
000253:                                                                                                  #                SAME AS FOR PRECISION OR CONIC INTEGRATION,
000254:                                                                                                  #                DEPENDING ON INTYPFLG.
000255:                                                                                                  #        D) INTEGRATE STATE VECTOR.  INTGRV ENTRANCE
000256:                                                                                                  #                L-X     STORE TIME IN PUSH LIST (TDEC1) (MAY BE DONE AFTER CALL TO INTSTALL)
000257:                                                                                                  #                L-8     CALL
000258:                                                                                                  #                L-7
000259:                                                                                                  #                L-6     SET(CLEAR)      SET(CLEAR)
000260:                                                                                                  #                L-5                     VINTFLAG        1=CSM, 0=LM
000261:                                                                                                  #                L-4                     INTYPFLAG       1=CONIC, 0=PRECISION
000262:                                                                                                  #                L-3     SET(CLEAR)      SET(CLEAR)
000263:                                                                                                  #                L-2                     DIM0FLAG        1=W-MATRIX, 0=NO W-MATRIX
000264:                                                                                                  #                L-1                     D6OR9FLG        1=9X9, 0=6X6
000265:                                                                                                  #                L       SET             DLOAD
000266:                                                                                                  #                L+1                     STATEFLG        DESIRE PERMANENT UPDATE
000267:                                                                                                  #                L+2                     FINAL RAD.      OF STATE VECTOR
000268:                                                                                                  #                L+3     STCALL          RFINAL
000269:                                                                                                  #                L+4                     INTEGRV
000270:                                                                                                  #                L       CALL                            NORMAL USE -- WILL UPDATE STATE
000271:                                                                                                  #                L+1                     INTEGRV         VECTOR IF DIM0FLAG=1. (STATEFLG IS
000272:                                                                                                  #                L+2     RETURN                          ALWAYS RESET IN INTEGRATION AFTER
000273:                                                                                                  #                                                        IT IS USED.)
000274:                                                                                                  #          INPUT
000275:                                                                                                  #                TDEC1 (PD 32D) TIME TO INTEGRATE TO     CSEC B-28
000276:                                                                                                  #          OUTPUT
000277:                                                                                                  #                SAME AS FOR PRECISION OR CONIC INTEGRATION
000278:                                                                                                  #          THE PROGRAM WILL SET MOONFLAG, MIDFLAG DEPENDING ON
000279:                                                                                                  #          THE PERMANENT STATE VECTOR REPRESENTATION.
000280:
000281: 11,2363                                           BANK     11
000282: 13,2000                                           SETLOC   INTINIT
000283: 13,2000                                           BANK
000284: 13,2627  E3,1554                                  EBANK=   RRECTCSM
000285: 13,2627                                           COUNT    13/INTIN
000286:
000287: 13,2627           05412        STATEINT           TC       PHASCHNG
000288: 13,2630           00052                           OCT      00052
000289: 13,2631           35061                           CAF      PRIO5
000290: 13,2632           05147                           TC       FINDVAC
000291: 13,2633  E3,1554                                  EBANK=   RRECTCSM
000292: 13,2633           02636 26063                     2CADR    STATINT1
000293:
000294: 13,2635           05324                           TC       TASKOVER
000295: 13,2636           06006        STATINT1           TC       INTPRET
000296: 13,2637           47014                           BON      RTB
000297: 13,2640           04712                                    QUITFLAG
000298: 13,2641           26677                                    NOINT                                 #  NO STATEINT IF V96
000299: 13,2642           45510                                    LOADTIME


000301: 13,2643           00041                           STORE    TDEC1
000302: 13,2644           45014                           CLEAR    CALL
000303: 13,2645           04274                                    V96ONFLG
000304: 13,2646           27442                                    INTSTALL
000305: 13,2647           45014                           SET      CALL
000306: 13,2650           01076                                    NODOFLAG
000307: 13,2651           26670                                    SETIFLGS
000308: 13,2652           77650                           GOTO
000309: 13,2653           26000                                    STATEUP
000310: 13,2654           00003 25140  600SECS            2DEC     60000      B-28
000311:
000312: 13,2656           77414        ENDINT             CLEAR    EXIT
000313: 13,2657           01672                                    STATEFLG
000314: 13,2660           05412                           TC       PHASCHNG
000315: 13,2661           20032                           OCT      20032
000316: 13,2662           00006                           EXTEND
000317: 13,2663           32655                           DCA      600SECS
000318: 13,2664           05342                           TC       LONGCALL
000319: 13,2665  E3,1554                                  EBANK=   RRECTHIS
000320: 13,2665           02627 26063                     2CADR    STATEINT
000321:
000322: 13,2667           05217                           TC       ENDOFJOB
000323: 13,2670           43014        SETIFLGS           SET      CLEAR
000324: 13,2671           01472                                    STATEFLG
000325: 13,2672           01673                                    INTYPFLG
000326: 13,2673           43014                           CLEAR    CLEAR
000327: 13,2674           01676                                    DIM0FLAG
000328: 13,2675           01675                                    D6OR9FLG
000329: 13,2676           77616                           RVQ
000330: 13,2677           77776        NOINT              EXIT
000331: 13,2700           05412                           TC       PHASCHNG
000332: 13,2701           00002                           OCT      2
000333:
000334: 13,2702           05560                           TC       DOWNFLAG
000335: 13,2703           00221                           ADRES    QUITFLAG
000336:
000337: 13,2704           05217                           TC       ENDOFJOB
000338:
000339:                                                                                                  #  ATOPCSM TRANSFERS RRECT TO RRECT +41 TO RRECTCSM TO RRECTCSM +41
000340:
000341:                                                                                                  #  CALLING SEQUENCE
000342:                                                                                                  #        L       CALL
000343:                                                                                                  #        L+1             ATOPCSM
000344:
000345:                                                                                                  #  NORMAL EXIT AT L+2
000346:
000347: 13,2705           47020        ATOPCSM            STQ      RTB
000348: 13,2706           00051                                    S2
000349: 13,2707           26720                                    MOVEACSM
000350: 13,2710           45014                           SET      CALL


000352: 13,2711           04063                                    CMOONFLG
000353: 13,2712           20237                                    SVDWN1
000354: 13,2713           43014                           BON      CLRGO
000355: 13,2714           00303                                    MOONFLAG
000356: 13,2715           00051                                    S2
000357: 13,2716           04223                                    CMOONFLG
000358: 13,2717           00051                                    S2
000359: 13,2720           03064        MOVEACSM           TC       SETBANK
000360: 13,2721           55500                           TS       DIFEQCNT                              #  INITIALIZE INDEX
000361: 13,2722           51500                           INDEX    DIFEQCNT
000362: 13,2723           31502                           CA       RRECT
000363: 13,2724           51500                           INDEX    DIFEQCNT
000364: 13,2725           55554                           TS       RRECTCSM
000365: 13,2726           11500                           CCS      DIFEQCNT                              #  IS TRANSFER COMPLETE
000366: 13,2727           12721                           TCF      MOVEACSM   +1                         #  NO-LOOP
000367: 13,2730           06030                           TC       DANZIG                                #  COMPLETE - RETURN
000368:
000369:                                                                                                  #  PTOACSM TRANSFERS RRECTCSM TO RRECTCSM +41 TO RRECT TO RRECT +41
000370:
000371:                                                                                                  #  CALLING SEQUENCE
000372:                                                                                                  #        L       CALL
000373:                                                                                                  #                        PTOACSM
000374:
000375:                                                                                                  #  NORMAL EXIT AT L+2
000376:
000377: 13,2731           43034        PTOACSM            RTB      BON
000378: 13,2732           26747                                    MOVEPCSM
000379: 13,2733           04303                                    CMOONFLG
000380: 13,2734           26742                                    SETMOON
000381: 13,2735           66214        CLRMOON            CLEAR    SSP
000382: 13,2736           00263                                    MOONFLAG
000383: 13,2737           02151                                    PBODY
000384: 13,2740           00000                                    0
000385: 13,2741           77616                           RVQ
000386: 13,2742           66214        SETMOON            SET      SSP
000387: 13,2743           00063                                    MOONFLAG
000388: 13,2744           02151                                    PBODY
000389: 13,2745           00002                                    2
000390: 13,2746           77616                           RVQ
000391: 13,2747           03064        MOVEPCSM           TC       SETBANK
000392: 13,2750           55500                           TS       DIFEQCNT
000393: 13,2751           51500                           INDEX    DIFEQCNT
000394: 13,2752           31554                           CA       RRECTCSM
000395: 13,2753           51500                           INDEX    DIFEQCNT
000396: 13,2754           55502                           TS       RRECT
000397: 13,2755           11500                           CCS      DIFEQCNT
000398: 13,2756           12750                           TCF      MOVEPCSM   +1
000399: 13,2757           06030                           TC       DANZIG
000400:


000402:                                                                                                  #  ATOPLEM TRANSFERS RRECT TO RRECT +41 TO RRECTLEM TO RRECTLEM +41
000403: 13,2760           47020        ATOPLEM            STQ      RTB
000404: 13,2761           00051                                    S2
000405: 13,2762           26773                                    MOVEALEM
000406: 13,2763           45014                           SET      CALL
000407: 13,2764           04064                                    LMOONFLG
000408: 13,2765           20263                                    SVDWN2
000409: 13,2766           43014                           BON      CLRGO
000410: 13,2767           00303                                    MOONFLAG
000411: 13,2770           00051                                    S2
000412: 13,2771           04224                                    LMOONFLG
000413: 13,2772           00051                                    S2
000414: 13,2773           03064        MOVEALEM           TC       SETBANK
000415: 13,2774           55500                           TS       DIFEQCNT
000416: 13,2775           51500                           INDEX    DIFEQCNT
000417: 13,2776           31502                           CA       RRECT
000418: 13,2777           51500                           INDEX    DIFEQCNT
000419: 13,3000           55626                           TS       RRECTLEM
000420: 13,3001           11500                           CCS      DIFEQCNT
000421: 13,3002           12774                           TCF      MOVEALEM   +1
000422: 13,3003           06030                           TC       DANZIG
000423:
000424:                                                                                                  #  PTOALEM TRANSFERS RRECTLEM TO RRECTLEM +41 TO RRECT TO RRECT +41
000425:
000426: 13,3004           47014        PTOALEM            BON      RTB
000427: 13,3005           04307                                    SURFFLAG
000428: 13,3006           27025                                    USEPIOS
000429: 13,3007           27014                                    MOVEPLEM
000430: 13,3010           52014                           BON      GOTO
000431: 13,3011           04304                                    LMOONFLG
000432: 13,3012           26742                                    SETMOON
000433: 13,3013           26735                                    CLRMOON
000434: 13,3014           03064        MOVEPLEM           TC       SETBANK
000435: 13,3015           55500                           TS       DIFEQCNT
000436: 13,3016           51500                           INDEX    DIFEQCNT
000437: 13,3017           31626                           CA       RRECTLEM
000438: 13,3020           51500                           INDEX    DIFEQCNT
000439: 13,3021           55502                           TS       RRECT
000440: 13,3022           11500                           CCS      DIFEQCNT
000441: 13,3023           13015                           TCF      MOVEPLEM   +1
000442: 13,3024           06030                           TC       DANZIG
000443:
000444: 13,3025           77201        USEPIOS            SETPD    VLOAD
000445: 13,3026           00001                                    0
000446: 13,3027           02026                                    RLS
000447: 13,3030           41525                           PDDL     PUSH
000448: 13,3031           00041                                    TDEC1


000450: 13,3032           15517                           STODL    TET
000451: 13,3033           27755                                    5/8
000452: 13,3034           77624                           CALL
000453: 13,3035           55344                                    RP-TO-R
000454: 13,3036           25535                           STOVL    RCV
000455: 13,3037           11560                                    ZUNIT
000456: 13,3040           14001                           STODL    0D
000457: 13,3041           01517                                    TET
000458: 13,3042           14007                           STODL    6D
000459: 13,3043           27755                                    5/8
000460: 13,3044           45014                           SET      CALL                                  #  NEEDED FOR SETTING X1 ON EXIT
000461: 13,3045           00063                                    MOONFLAG
000462: 13,3046           55344                                    RP-TO-R
000463: 13,3047           74235                           VXV      VXSC
000464: 13,3050           01535                                    RCV
000465: 13,3051           27063                                    OMEGMOON
000466: 13,3052           25543                           STOVL    VCV
000467: 13,3053           11566                                    ZEROVEC
000468: 13,3054           01521                           STORE    TDELTAV
000469: 13,3055           67174                           AXT,2    SXA,2
000470: 13,3056           00002                                    2
000471: 13,3057           02150                                    PBODY
000472: 13,3060           35527                           STCALL   TNUV
000473: 13,3061           27176                                    A-PCHK
000474: 13,3062           07112 06620  OMEGMOON           2DEC*    2.66169947 E-8        B+23*
000475:
000476: 13,3064           33070        SETBANK            CAF      INTBANK
000477: 13,3065           54006                           TS       BBANK
000478: 13,3066           33507                           CAF      FORTYONE
000479: 13,3067           00002                           TC       Q
000480: 13,3070  E3,1554                                  EBANK=   RRECTCSM
000481: 13,3070           26063        INTBANK            BBCON    INTEGRV
000482:
000483:                                                                                                  #  SPECIAL PURPOSE ENTRIES TO ORBITAL INTEGRATION.  THESE ROUTINES PROVIDE ENTRANCES TO INTEGRATION WITH
000484:                                                                                                  #  APPROPRIATE SWITCHES SET OR CLEARED FOR THE DESIRED INTEGRATION.
000485:
000486:                                                                                                  #  CSMPREC AND LEMPREC PERFORM ORBIT INTEGRATION BY THE ENCKE METHOD TO THE TIME INDICATED IN TDEC1
000487:                                                                                                  #  ACCELERATIONS DUE TO OBLATENESS ARE INCLUDED.  NO W-MATRIX INT. IS DONE.
000488:                                                                                                  #  THE PERMANENT STATE VECTOR IS NOT UPDATED.
000489:                                                                                                  #  CSMCONIC AND LEMCONIC PERFORM ORBIT INTEG. BY KEPLERS METHOD TO THE TIME INDICATED IN TDEC1
000490:                                                                                                  #  NO DISTURBING ACCELERATIONS ARE INCLUDED.  IN THE PROGRAM FLOW THE GIVEN
000491:                                                                                                  #  STATE VECTOR IS RECTIFIED BEFORE SOLUTION OF KEPLERS EQUATION
000492:
000493:                                                                                                  #  THE ROUTINES ASSUME THAT THE CSM (LEM) STATE VECTOR IN P-MEM IS VALID.
000494:                                                                                                  #  SWITCHES SET PRIOR TO ENTRY TO THE MAIN INTEG. PROG ARE AS FOLLOWS
000495:                                                                                                  #                        CSMPREC         CSMCONIC        LEMPREC         LEMCONIC
000496:                                                                                                  #        VINTFLAG        SET             SET             CLEAR           CLEAR
000497:                                                                                                  #        INTYPFLG        CLEAR           SET             CLEAR           SET
000498:                                                                                                  #        DIM0FLAG        CLEAR           CLEAR           CLEAR           CLEAR


000500:
000501:                                                                                                  #  CALLING SEQUENCE
000502:                                                                                                  #        L-X     STORE   TDEC1
000503:                                                                                                  #        L       CALL                    (STCALL TDEC1)
000504:                                                                                                  #        L+1             CSMPREC         (CSMCONIC, LEMPREC, LEMCONIC)
000505:
000506:                                                                                                  #  NORMAL EXIT TO L+2
000507:
000508:                                                                                                  #  SUBROUTINES CALLED
000509:                                                                                                  #        INTEGRV1
000510:                                                                                                  #        PRECOUT FOR CSMPREC AND LEMPREC
000511:                                                                                                  #        CONICOUT FOR CSMCONIC AND LEMCONIC
000512:
000513:                                                                                                  #  OUTPUT - SEE PAGE 2 OF THIS LOG SECTION
000514:
000515:                                                                                                  #  INPUT
000516:                                                                                                  #        TDEC1           TIME TO INTEGRATE TO.  CSECS B-28
000517:
000518: 13,3071           45020        CSMPREC            STQ      CALL
000519: 13,3072           00046                                    X1
000520: 13,3073           27442                                    INTSTALL
000521: 13,3074           43130                           SXA,1    SET
000522: 13,3075           02214                                    IRETURN
000523: 13,3076           01474                                    VINTFLAG
000524:
000525: 13,3077           43014        IFLAGP             SET      CLEAR
000526: 13,3100           01467                                    PRECIFLG
000527: 13,3101           01676                                    DIM0FLAG
000528: 13,3102           77614                           CLRGO
000529: 13,3103           01633                                    INTYPFLG
000530: 13,3104           27164                                    INTEGRV1
000531: 13,3105           45020        LEMPREC            STQ      CALL
000532: 13,3106           00046                                    X1
000533: 13,3107           27442                                    INTSTALL
000534: 13,3110           43130                           SXA,1    CLRGO
000535: 13,3111           02214                                    IRETURN
000536: 13,3112           01634                                    VINTFLAG
000537: 13,3113           27077                                    IFLAGP
000538:
000539: 13,3114           45020        CSMCONIC           STQ      CALL
000540: 13,3115           00046                                    X1
000541: 13,3116           27442                                    INTSTALL
000542: 13,3117           43130                           SXA,1    SET
000543: 13,3120           02214                                    IRETURN
000544: 13,3121           01474                                    VINTFLAG
000545: 13,3122           43014        IFLAGC             CLEAR    SETGO
000546: 13,3123           01676                                    DIM0FLAG
000547: 13,3124           01433                                    INTYPFLG
000548: 13,3125           27164                                    INTEGRV1
000549: 13,3126           45020        LEMCONIC           STQ      CALL
000550: 13,3127           00046                                    X1


000552: 13,3130           27442                                    INTSTALL
000553: 13,3131           43130                           SXA,1    CLRGO
000554: 13,3132           02214                                    IRETURN
000555: 13,3133           01634                                    VINTFLAG
000556: 13,3134           27122                                    IFLAGC
000557:
000558: 13,3135           66214        INTEGRVS           SET      SSP
000559: 13,3136           01467                                    PRECIFLG
000560: 13,3137           02151                                    PBODY
000561: 13,3140           00000                                    0
000562: 13,3141           66214                           BOF      SSP
000563: 13,3142           00343                                    MOONFLAG
000564: 13,3143           27146                                    +3
000565: 13,3144           02151                                    PBODY
000566: 13,3145           00002                                    2
000567: 13,3146           77220                           STQ      VLOAD
000568: 13,3147           02214                                    IRETURN
000569: 13,3150           11566                                    ZEROVEC
000570: 13,3151           01521                           STORE    TDELTAV
000571: 13,3152           35527                           STCALL   TNUV
000572: 13,3153           23421                                    RECTIFY
000573: 13,3154           43014                           CLEAR    SET
000574: 13,3155           01676                                    DIM0FLAG
000575: 13,3156           04062                                    NEWIFLG
000576: 13,3157           77614                           SETGO
000577: 13,3160           04020                                    RPQFLAG
000578: 13,3161           22363                                    ALOADED
000579:
000580:                                                                                                  #  INTEGRV IS AN ENTRY TO ORBIT INTEGRATION WHICH PERMITS THE CALLER,
000581:                                                                                                  #  NORMALLY THE NAVIGATION PROGRAM, TO SET THE INTEG. FLAGS.  THE ROUTINE
000582:                                                                                                  #  IS ENTERED AT INTEGRV1 BY CSMPREC ET. AL. AND AT ALOADED BY INTEGRVS.
000583:                                                                                                  #  THE ROUTINE SETS UP A-MEMORY IF ENTERED AT INTEGRV,1 AND SETS THE INTEG.
000584:                                                                                                  #  PROGRAM FOR PRECISION OR CONIC
000585:
000586:                                                                                                  #  THE CALLER MUST FIRST CALL INTSTALL TO CHECK IF INTEG. IS IN USE BEFORE
000587:                                                                                                  #  SETTING ANY FLAGS.
000588:
000589:                                                                                                  #  THE FLAGS WHICH SHOULD BE SET OR CLEARED ARE
000590:                                                                                                  #        VINTFLAG        (IGNORED WHEN ENTERED FROM INTEGRVS)
000591:                                                                                                  #        INTYPFLG
000592:                                                                                                  #        DIM0FLAG
000593:                                                                                                  #        D6OR9FLG
000594:
000595:                                                                                                  #  CALLING SEQUENCE
000596:                                                                                                  #        L-X     CALL
000597:                                                                                                  #        L-Y             INTSTALL
000598:                                                                                                  #        L-1     SET OR CLEAR ALL FOUR FLAGS.  ALSO CAN SET STATEFLG IF DESIRED
000599:                                                                                                  #                AND DIM0FLAG IS CLEAR.
000600:                                                                                                  #        L       CALL
000601:                                                                                                  #        L+1             INTEGRV
000602:
000603:                                                                                                  #  INITIALIZATION
000604:                                                                                                  #        FLAGS AS ABOVE
000605:                                                                                                  #        STORE TIME TO INTEGRATE TO IN TDEC1
000606:


000608:                                                                                                  #  OUTPUT
000609:                                                                                                  #        RATT    AS
000610:                                                                                                  #        VATT          DEFINED
000611:                                                                                                  #        TAT                     BEFORE
000612:
000613: 13,3162           77620        INTEGRV            STQ
000614: 13,3163           02214                                    IRETURN
000615: 13,3164           43014        INTEGRV1           SET      SET
000616: 13,3165           04060                                    RPQFLAG
000617: 13,3166           04062                                    NEWIFLG
000618: 13,3167           77731        INTEGRV2           SSP
000619: 13,3170           00053                                    QPRET
000620: 13,3171           22363                                    ALOADED
000621: 13,3172           52014                           BON      GOTO
000622: 13,3173           01714                                    VINTFLAG
000623: 13,3174           26731                                    PTOACSM
000624: 13,3175           27004                                    PTOALEM
000625: 11,2000                                           SETLOC   INTINIT1
000626: 11,2000                                           BANK
000627: 11,2363           77745        ALOADED            DLOAD
000628: 11,2364           00041                                    TDEC1
000629: 11,2365           01101                           STORE    TDEC
000630: 11,2366           52014                           BOFF     GOTO
000631: 11,2367           01753                                    INTYPFLG
000632: 11,2370           27305                                    TESTLOOP
000633: 11,2371           27271                                    RVCON
000634: 13,2000                                           SETLOC   INTINIT
000635: 13,2000                                           BANK
000636: 13,3176           45014        A-PCHK             BOF      CALL
000637: 13,3177           00342                                    MIDFLAG
000638: 13,3200           27205                                    ANDOUT                                #  DONT MAKE ORIGIN CHANGE CHECK
000639: 13,3201           23320                                    CHKSWTCH
000640: 13,3202           45044                           BPL      CALL
000641: 13,3203           27205                                    ANDOUT                                #  NO ORIGIN CHANGE
000642: 13,3204           23361                                    ORIGCHNG                              #  MAKE THE SWITCH
000643: 13,3205           77414        ANDOUT             BOFCLR   EXIT
000644: 13,3206           01652                                    STATEFLG
000645: 13,3207           27226                                    RECTOUT
000646: 13,3210           05412                           TC       PHASCHNG
000647: 13,3211           04022                           OCT      04022
000648: 13,3212           05546                           TC       UPFLAG                                #  PHASE CHANGE HAS OCCURRED BETWEEN
000649: 13,3213           00236                           ADRES    REINTFLG                              #  INTSTALL AND INTWAKE
000650: 13,3214           06006                           TC       INTPRET
000651: 13,3215           77731                           SSP
000652: 13,3216           00053                                    QPRET
000653: 13,3217           27224                                    PHEXIT
000654: 13,3220           52014                           BON      GOTO
000655: 13,3221           01714                                    VINTFLAG
000656: 13,3222           26705                                    ATOPCSM


000658: 13,3223           26760                                    ATOPLEM
000659: 13,3224           77624        PHEXIT             CALL
000660: 13,3225           56750                                    GRP2PC
000661: 13,3226           45001        RECTOUT            SETPD    CALL
000662: 13,3227           00001                                    0
000663: 13,3230           23421                                    RECTIFY
000664: 13,3231           53775                           VLOAD    VSL*
000665: 13,3232           01503                                    RRECT
000666: 13,3233           57576                                    0,2
000667: 13,3234           53715                           PDVL     VSL*                                  #  RATT TO PD0
000668: 13,3235           01511                                    VRECT
000669: 13,3236           57576                                    0,2
000670: 13,3237           63325                           PDDL     PDVL                                  #  VATT TO PD6   TAT TO PD12
000671: 13,3240           01517                                    TET
000672: 13,3241           01503                                    RRECT
000673: 13,3242           64715                           PDVL     PDDL*
000674: 13,3243           01511                                    VRECT
000675: 13,3244           50042                                    MUEARTH,2
000676: 13,3245           76006                           PUSH     AXT,1
000677: 13,3246           77765                           DEC      -10        B-14
000678: 13,3247           76014                           BON      AXT,1
000679: 13,3250           00303                                    MOONFLAG
000680: 13,3251           27253                                    +2
000681: 13,3252           77775                           DEC      -2         B-14
000682: 13,3253           40001        INTEXIT            SETPD    BOV
000683: 13,3254           00001                                    0
000684: 13,3255           27256                                    +1
000685: 13,3256           77614                           CLEAR
000686: 13,3257           04675                                    MIDAVFLG
000687: 13,3260           43014                           CLEAR    CLEAR
000688: 13,3261           04676                                    AVEMIDSW                              #  ALLOW UPDATE OF DOWNLINK STATE VECTOR
000689: 13,3262           01667                                    PRECIFLG
000690: 13,3263           77535                           SLOAD    EXIT
000691: 13,3264           02215                                    IRETURN
000692: 13,3265           30154                           CA       MPAC
000693: 13,3266           50120                           INDEX    FIXLOC
000694: 13,3267           54052                           TS       QPRET
000695: 13,3270           03457                           TC       INTWAKE
000696:
000697:                                                                                                  #  RVCON SETS UP ORBIT INTEGRATION TO DO A CONIC SOLUTION FOR POSITION AND
000698:                                                                                                  #  VELOCITY FOR THE INTERVAL (TET-TDEC)
000699:
000700: 13,3271           45345        RVCON              DLOAD    DSU
000701: 13,3272           01101                                    TDEC
000702: 13,3273           01517                                    TET
000703: 13,3274           36312                           STCALL   TAU.
000704: 13,3275           23421                                    RECTIFY
000705: 13,3276           77624                           CALL
000706: 13,3277           22372                                    KEPPREP
000707: 13,3300           43345                           DLOAD    DAD
000708: 13,3301           01551                                    TC


000710: 13,3302           01517                                    TET
000711: 13,3303           35517                           STCALL   TET
000712: 13,3304           27226                                    RECTOUT
000713:


000715:                                                                                                  #  TESTLOOP
000716:
000717: 13,3305           43014        TESTLOOP           BOF      CLRGO
000718: 13,3306           04752                                    QUITFLAG
000719: 13,3307           27312                                    +3
000720: 13,3310           01632                                    STATEFLG
000721: 13,3311           27253                                    INTEXIT                               #  STOP INTEGRATION
000722: 13,3312           73001                 +3        SETPD    LXA,2
000723: 13,3313           00013                                    10D
000724: 13,3314           02150                                    PBODY
000725: 13,3315           51575                           VLOAD    ABVAL
000726: 13,3316           01535                                    RCV
000727: 13,3317           43006                           PUSH     CLEAR                                 #  RC TO 10D
000728: 13,3320           00262                                    MIDFLAG
000729: 13,3321           50023                           DSU*     BMN                                   #  MIDFLAG=0 IF R G.T. RMP
000730: 13,3322           67212                                    RME,2
000731: 13,3323           27326                                    +3
000732: 13,3324           77614                           SET
000733: 13,3325           00062                                    MIDFLAG
000734: 13,3326           41345        NORFINAL           DLOAD    DMP
000735: 13,3327           00013                                    10D
000736: 13,3330           00043                                    34D
000737: 13,3331           55762                           SR1R     DDV*
000738: 13,3332           50042                                    MUEARTH,2
000739: 13,3333           41366                           SQRT     DMP
000740: 13,3334           23752                                    .3D
000741: 13,3335           40442                           SR3      SR4                                   #  DT IS TRUNCATED TO A MULTIPLE
000742: 13,3336           54345                           DLOAD    SL
000743: 13,3337           00155                                    MPAC
000744: 13,3340           20220                                    15D                                   #        OF 128 CSECS.
000745: 13,3341           40006                           PUSH     BOV
000746: 13,3342           27367                                    MAXDT
000747: 13,3343           50021                           BDSU     BMN
000748: 13,3344           27441                                    DT/2MAX
000749: 13,3345           27367                                    MAXDT
000750: 13,3346           45345        DT/2COMP           DLOAD    DSU
000751: 13,3347           01101                                    TDEC
000752: 13,3350           01517                                    TET
000753: 13,3351           54234                           RTB      SL
000754: 13,3352           45544                                    SGNAGREE
000755: 13,3353           20211                                    8D
000756: 13,3354           02314                           STORE    DT/2                                  #  B-19
000757: 13,3355           51400                           BOV      ABS
000758: 13,3356           27373                                    GETMAXDT
000759: 13,3357           50025                           DSU      BMN                                   #  IS TIME TO INTEG. TO GR THAN MAXTIME
000760: 13,3360           00015                                    12D
000761: 13,3361           27377                                    P00HCHK
000762: 13,3362           75345        USEMAXDT           DLOAD    SIGN
000763: 13,3363           00015                                    12D
000764: 13,3364           02314                                    DT/2


000766: 13,3365           36314                           STCALL   DT/2
000767: 13,3366           27377                                    P00HCHK
000768: 13,3367           65345        MAXDT              DLOAD    PDDL                                  #  EXCHANGE DT/2MAX WITH COMPUTED MAX.
000769: 13,3370           27441                                    DT/2MAX
000770: 13,3371           77650                           GOTO
000771: 13,3372           27346                                    DT/2COMP
000772: 13,3373           77634        GETMAXDT           RTB
000773: 13,3374           45712                                    SIGNMPAC
000774: 13,3375           36314                           STCALL   DT/2
000775: 13,3376           27362                                    USEMAXDT
000776: 13,3377           51545        P00HCHK            DLOAD    ABS
000777: 13,3400           02314                                    DT/2
000778: 13,3401           50025                           DSU      BMN
000779: 13,3402           27437                                    DT/2MIN
000780: 13,3403           27176                                    A-PCHK
000781: 13,3404           46135                           SLOAD    BHIZ
000782: 13,3405           01012                                    MODREG
000783: 13,3406           27411                                    +3
000784: 13,3407           77650                           GOTO
000785: 13,3410           23240                                    TIMESTEP
000786: 13,3411           77614                           BON                                            #  WAS THIS CALL VIA CSM(LEM)PREC
000787: 13,3412           01707                                    PRECIFLG
000788: 13,3413           23240                                    TIMESTEP                              #  YES
000789: 13,3414           45345                           DLOAD    DSU
000790: 13,3415           02314                                    DT/2
000791: 13,3416           00015                                    12D
000792: 13,3417           43040                           BMN      BOFCLR
000793: 13,3420           27176                                    A-PCHK
000794: 13,3421           04242                                    NEWIFLG
000795: 13,3422           23240                                    TIMESTEP
000796: 13,3423           45345                           DLOAD    DSU
000797: 13,3424           01101                                    TDEC
000798: 13,3425           01517                                    TET
000799: 13,3426           77640                           BMN                                            #  NO BACKWARD INTEGRATION
000800: 13,3427           27253                                    INTEXIT
000801: 13,3430           40525                           PDDL     SR4
000802: 13,3431           02314                                    DT/2                                  #  IS 4(DT) LS (TDEC - TET)
000803: 13,3432           44322                           SR2R     BDSU                                  #  NO
000804: 13,3433           52040                           BMN      GOTO
000805: 13,3434           27253                                    INTEXIT
000806: 13,3435           23240                                    TIMESTEP
000807: 13,3436           00000 01400  DT/2MIN            2DEC     3          B-20
000808:
000809: 13,3440           14152 00000  DT/2MAX            2DEC     4000       E2         B-20
000810:
000811: 13,3442           77776        INTSTALL           EXIT
000812: 13,3443           35021                           CAF      ZERO
000813: 13,3444           54001        ALLSTALL           TS       L
000814: 13,3445           30106                           CA       RASFLAG
000815: 13,3446           50001                           INDEX    L


000817: 13,3447           73540                           MASK     INTBITAB                              #  IS THIS STALL AREA FREE
000818: 13,3450           00006                           EXTEND
000819: 13,3451           13516                           BZF      OKTOGRAB                              #  YES
000820: 13,3452           50001                           INDEX    L
000821: 13,3453           33535                           CAF      WAKESTAL
000822: 13,3454           05175                           TC       JOBSLEEP
000823: 13,3455           77776        INTWAKE0           EXIT
000824: 13,3456           13477                           TCF      INTWAKE1
000825:
000826: 13,3457           40106        INTWAKE            CS       RASFLAG                               #  IS THIS INTSTALLED ROUTINE TO BE
000827: 13,3460           75011                           MASK     REINTBIT                              #        RESTARTED
000828: 13,3461           10000                           CCS      A
000829: 13,3462           03477                           TC       INTWAKE1                              #  NO
000830:
000831: 13,3463           50120                           INDEX    FIXLOC
000832: 13,3464           30052                           CA       QPRET
000833: 13,3465           55055                           TS       TBASE2                                #  YES, DONT RESTART WITH SOMEONE ELSES Q
000834:
000835: 13,3466           05412                           TC       PHASCHNG
000836: 13,3467           04022                           OCT      04022
000837:
000838: 13,3470           31055                           CA       TBASE2
000839: 13,3471           50120                           INDEX    FIXLOC
000840: 13,3472           54052                           TS       QPRET
000841:
000842: 13,3473           35011                           CAF      REINTBIT
000843: 13,3474           70106                           MASK     RASFLAG
000844: 13,3475           00006                           EXTEND
000845: 13,3476           13521                           BZF      GOBAC                                 #  DONT INTWAKE IF WE CAME HERE VIA RESTART
000846:
000847: 13,3477           35021        INTWAKE1           CAF      ZERO
000848: 13,3500           54154        WAKE               TS       STALTEM                               #  INDEX OF ANY STALL USER
000849: 13,3501           50154        WAKE1              INDEX    STALTEM
000850: 13,3502           33535                           CAF      WAKESTAL
000851: 13,3503           00004                           INHINT
000852: 13,3504           05201                           TC       JOBWAKE
000853: 13,3505           10064                           CCS      LOCCTR
000854: 13,3506           13501                           TCF      WAKE1                                 #  MAY BE MORE TO WAKE UP
000855: 13,3507           00051        FORTYONE           DEC      41         B-14
000856: 13,3510           50154                           INDEX    STALTEM
000857: 13,3511           43540                           CS       INTBITAB
000858: 13,3512           70106                           MASK     RASFLAG
000859: 13,3513           54106                           TS       RASFLAG                               #  RELEASE STALL AREA
000860: 13,3514           00003                           RELINT
000861: 13,3515           13521                           TCF      GOBAC
000862: 13,3516           50001        OKTOGRAB           INDEX    L                                     #  NO, WAIT UNTIL AVAILABLE
000863: 13,3517           35002                           CAF      INTFLBIT
000864: 13,3520           26106                           ADS      RASFLAG
000865: 13,3521           06006        GOBAC              TC       INTPRET
000866: 13,3522           77616                           RVQ


000868: 13,3523           77776        ERASTAL1           EXIT
000869: 13,3524           35017                           CAF      ONE
000870: 13,3525           13444                           TCF      ALLSTALL
000871: 13,3526           77776        ERASTAL2           EXIT
000872: 13,3527           35016                           CAF      TWO
000873: 13,3530           13444                           TCF      ALLSTALL
000874: 13,3531           35017        ERASWAK1           CAF      ONE
000875: 13,3532           13500                           TCF      WAKE
000876: 13,3533           35016        ERASWAK2           CAF      TWO
000877: 13,3534           13500                           TCF      WAKE
000878: 13,3535           27443        WAKESTAL           CADR     INTSTALL   +1
000879: 13,3536           27524                           CADR     ERASTAL1   +1
000880: 13,3537           27527                           CADR     ERASTAL2   +1
000881: 13,3540     0154               STALTEM            EQUALS   MPAC
000882: 13,3540           20100        INTBITAB           OCT      20100
000883: 13,3541           10040                           OCT      10040
000884: 13,3542           04020                           OCT      04020
000885:


000887:                                                                                                  #  AVETOMID
000888:
000889:                                                                                                  #  THIS ROUTINE PERFORMS THE TRANSITION FROM A THRUSTING PHASE TO THE COAST
000890:                                                                                                  #  PHASE BY INITIALIZING THIS VEHICLES PERMANENT STATE VECTOR WITH THE
000891:                                                                                                  #  VALUES LEFT BY THE AVERAGEG ROUTINE IN RN,VN,PIPTIME.
000892:
000893:                                                                                                  #  BEFORE THIS IS DONE THE W-MATRIX, IF ITS VALID (ORWFLAG OR RENDWFLG IS
000894:                                                                                                  #  SET) IS INTEGRATED FORWARD TO PIPTIME WITH THE PRE-THRUST STATE VECTOR.
000895:
000896:                                                                                                  #  IN ADDITION, THE OTHER VEHICLE IS INTEGRATED (PERMANENT) TO PIPTIME.
000897:
000898:                                                                                                  #  FINALLY TRKMKCNT IS ZEROED
000899:
000900: 35,2000                                           SETLOC   INTINIT2
000901: 35,2000                                           BANK
000902:
000903: 35,3675                                           COUNT*   $$/INTIN
000904: 35,3675           43020        AVETOMID           STQ      BON
000905: 35,3676           02317                                    EGRESS
000906: 35,3677           02716                                    RENDWFLG
000907: 35,3700           73753                                    INT/W                                 #  W-MATRIX VALID, GO INTEGRATE IT
000908: 35,3701           77614                           BON
000909: 35,3702           01711                                    ORBWFLAG
000910: 35,3703           73753                                    INT/W                                 #  W-MATRIX VALID, GO INTEGRATE IT
000911:
000912: 35,3704           45174        SETCOAST           AXT,2    CALL                                  #  NOW MOVE PROPERLY SCALED RN,VN AND
000913: 35,3705           00002                                    2                                     #  PIPTIME TO INTEGRATION ERASABLES.
000914: 35,3706           27442                                    INTSTALL
000915: 35,3707           77014                           BON      AXT,2
000916: 35,3710           00315                                    AMOONFLG
000917: 35,3711           73713                                    +2
000918: 35,3712           00000                                    0
000919: 35,3713           53775                           VLOAD    VSR*
000920: 35,3714           01171                                    RN
000921: 35,3715           57176                                    0,2
000922: 35,3716           01503                           STORE    RRECT
000923: 35,3717           15535                           STODL    RCV
000924: 35,3720           01205                                    PIPTIME
000925: 35,3721           25517                           STOVL    TET
000926: 35,3722           01177                                    VN
000927: 35,3723           45057                           VSR*     CALL
000928: 35,3724           57176                                    0,2
000929: 35,3725           23435                                    MINIRECT                              #  FINISH SETTING UP STATE VECTOR
000930: 35,3726           66234                           RTB      SSP
000931: 35,3727           26720                                    MOVATHIS                              #  PUT TEMP STATE VECTOR INTO PERMANENT
000932: 35,3730           01127                                    TRKMKCNT
000933: 35,3731           00000                                    0
000934: 35,3732           43014                           SET      BON
000935: 35,3733           04063                                    CMOONFLG


000937: 35,3734           00315                                    AMOONFLG
000938: 35,3735           73740                                    +3
000939: 35,3736           77614                           CLEAR
000940: 35,3737           04263                                    CMOONFLG
000941:
000942: 35,3740           71214                           BON      DLOAD                                 #  NOW DO LM
000943: 35,3741           04307                                    SURFFLAG
000944: 35,3742           75751                                    FAZAB5                                #  NO COASTING LM
000945: 35,3743           01205                                    PIPTIME
000946: 35,3744           34041                           STCALL   TDEC1
000947: 35,3745           26670                                    SETIFLGS
000948: 35,3746           45014                           CLEAR    CALL
000949: 35,3747           01674                                    VINTFLAG
000950: 35,3750           27162                                    INTEGRV
000951: 35,3751           77650                           GOTO
000952: 35,3752           02317                                    EGRESS
000953: 35,3753           45145        INT/W              DLOAD    CALL
000954: 35,3754           01205                                    PIPTIME                               #  INTEGRATE W THRU BURN
000955: 35,3755           27442                                    INTSTALL
000956: 35,3756           43014                           SET      SET
000957: 35,3757           01476                                    DIM0FLAG                              #  DO W-MATRIX
000958: 35,3760           04476                                    AVEMIDSW                              #  SO WONT CLOBBER RN,VN,PIPTIME
000959: 35,3761           43014                           CLEAR    SET
000960: 35,3762           01675                                    D6OR9FLG
000961: 35,3763           01474                                    VINTFLAG
000962: 35,3764           34041                           STCALL   TDEC1
000963: 35,3765           27162                                    INTEGRV
000964: 35,3766           77650                           GOTO
000965: 35,3767           73704                                    SETCOAST
000966:


000968:                                                                                                  #  MIDTOAV1
000969:
000970:                                                                                                  #  THIS ROUTINE INTEGRATES (PRECISION) TO THE TIME SPECIFIED IN TDEC1.
000971:                                                                                                  #  IF, AT THE END OF AN INTEGRATION TIME STEP, CURRENT TIME PLUS A DELTA
000972:                                                                                                  #  TIME (SEE TIMEDELT.....BASED ON THE COMPUTATUON TIME FOR ONE TIME STEP)
000973:                                                                                                  #  IS GREATER THAN THE DESIRED TIME, ALARM 1703 IS SET AND THE INTEGRATION
000974:                                                                                                  #  IS DONE AS IT IS FOR MIDTOAV2.
000975:                                                                                                  #  RETURN IS IN BASIC TO THE RETURN ADDRESS PLUS ONE.
000976:
000977:                                                                                                  #  IF THE INTEGRATION IS FINISHED TO THE DESIRED TIME, RETURN IS IN BASIC
000978:                                                                                                  #  TO THE RETURN ADDRESS
000979:
000980:                                                                                                  #  IN EITHER CASE, BEFORE RETURNING, THE EXTRAPOLATED STATE VECTOR IS TRAN
000981:                                                                                                  #  FERRED FROM R,VATT TO R,VN1-PIPTIME1 IS SET TO THE FINISHING INTEGRA-
000982:                                                                                                  #  TION TIME AND MPAC IS SET TO THE DELTA TIME---
000983:                                                                                                  #                                    TAT MINUS CURRENT TIME.
000984:
000985:                                                                                                  #  MIDTOAV2
000986:
000987:                                                                                                  #  THIS ROUTINE INTEGRATES THE CSM STATE VECTOR TO CURRENT TIME PLUS
000988:                                                                                                  #  INCREMENTS OF TIMEDELT SUCH THAT THE DIFFERENCE BETWEEN CURRENT TIME
000989:                                                                                                  #  AND THE STATE VECTOR TIME AT THE END OF THE LAST STEP IS AT LEAST 5.6
000990:                                                                                                  #  SECS.
000991:                                                                                                  #  NO INPUTS ARE REQUIRED OF THE CALLER.  RETURN IS IN BASIC TO THE RETURN
000992:                                                                                                  #  ADDRESS WITH THE ABOVE TRANSFERS TO R,VN1-PIPTIME1-AND MPAC DONE
000993:
000994: 13,2000                                           SETLOC   INTINIT
000995: 13,2000                                           BANK
000996: 13,3543     1127                                  EBANK=   IRETURN1
000997: 13,3543           45020        MIDTOAV2           STQ      CALL
000998: 13,3544           01127                                    IRETURN1
000999: 13,3545           27442                                    INTSTALL
001000: 13,3546           43145                           DLOAD    CLEAR
001001: 13,3547           27711                                    TIMEDELT
001002: 13,3550           04674                                    MID1FLAG
001003: 13,3551           37732                           STCALL   T-TO-ADD
001004: 13,3552           27567                                    ENTMID2
001005:
001006: 13,3553           45020        MIDTOAV1           STQ      CALL
001007: 13,3554           01127                                    IRETURN1
001008: 13,3555           27442                                    INTSTALL
001009: 13,3556           47014                           SET      RTB
001010: 13,3557           04474                                    MID1FLAG
001011: 13,3560           45510                                    LOADTIME
001012: 13,3561           44215                           DAD      BDSU                                  #  INITIAL CHECK, IS TDEC1 IN THE FUTURE.
001013: 13,3562           27711                                    TIMEDELT
001014: 13,3563           00041                                    TDEC1
001015: 13,3564           45044                           BPL      CALL
001016: 13,3565           27573                                    ENTMID1


001018: 13,3566           27674                                    NOTIME                                #  NO SET ALARM.SWITCH TO MIDTOAV2
001019:
001020: 13,3567           43234        ENTMID2            RTB      DAD
001021: 13,3570           45510                                    LOADTIME
001022: 13,3571           03732                                    T-TO-ADD
001023: 13,3572           00041                           STORE    TDEC1
001024:
001025: 13,3573           45014        ENTMID1            CLEAR    CALL
001026: 13,3574           01676                                    DIM0FLAG                              #  NO W-MATRIX
001027: 13,3575           26034                                    THISVINT
001028: 13,3576           43014                           CLEAR    SET
001029: 13,3577           01673                                    INTYPFLG
001030: 13,3600           04475                                    MIDAVFLG                              #  LET INTEG. KNOW THE CALL IS FOR MIDTOAV.
001031: 13,3601           77624                           CALL
001032: 13,3602           27162                                    INTEGRV                               #  GO INTEGRATE
001033: 13,3603           66134                           SXA,2    SXA,1
001034: 13,3604           03746                                    RTX2
001035: 13,3605           03745                                    RTX1
001036: 13,3606           67214                           CLEAR    SLOAD
001037: 13,3607           00275                                    AMOONFLG
001038: 13,3610           03747                                    RTX2
001039: 13,3611           43054                           BZE      SET
001040: 13,3612           27614                                    +2
001041: 13,3613           00075                                    AMOONFLG
001042: 13,3614           77775                           VLOAD
001043: 13,3615           00001                                    RATT
001044: 13,3616           25232                           STOVL    RN1
001045: 13,3617           00007                                    VATT
001046: 13,3620           15240                           STODL    VN1
001047: 13,3621           00015                                    TAT
001048: 13,3622           01246                           STORE    PIPTIME1
001049: 13,3623           77776                           EXIT
001050:
001051: 13,3624           00004                           INHINT
001052: 13,3625           00006                           EXTEND
001053: 13,3626           40025                           DCS      TIME2
001054: 13,3627           20155                           DAS      MPAC
001055: 13,3630           07226                           TC       TPAGREE
001056:
001057: 13,3631           31127                           CA       IRETURN1
001058: 13,3632           04704                           TC       BANKJUMP
001059: 13,3633           47014        CKMID2             BOF      RTB
001060: 13,3634           04754                                    MID1FLAG
001061: 13,3635           27652                                    MID2
001062: 13,3636           45510                                    LOADTIME
001063: 13,3637           44215                           DAD      BDSU
001064: 13,3640           27711                                    TIMEDELT
001065: 13,3641           01101                                    TDEC
001066: 13,3642           45044                           BPL      CALL
001067: 13,3643           27305                                    TESTLOOP                              #  YES


001069: 13,3644           27674                                    NOTIME
001070:
001071: 13,3645           43234        TIMEINC            RTB      DAD
001072: 13,3646           45510                                    LOADTIME
001073: 13,3647           03732                                    T-TO-ADD
001074: 13,3650           35101                           STCALL   TDEC
001075: 13,3651           27305                                    TESTLOOP
001076:
001077: 13,3652           45345        MID2               DLOAD    DSU
001078: 13,3653           01101                                    TDEC
001079: 13,3654           01517                                    TET
001080: 13,3655           45246                           ABS      DSU
001081: 13,3656           27707                                    3CSECS
001082: 13,3657           77644                           BPL
001083: 13,3660           27645                                    TIMEINC
001084:
001085: 13,3661           44234                           RTB      BDSU                                  #  SEE IF 5.6 SECS. AVAILABLE TO CALLER.
001086: 13,3662           45510                                    LOADTIME
001087: 13,3663           01517                                    TET
001088: 13,3664           51025                           DSU      BPL
001089: 13,3665           27713                                    5.6SECS
001090: 13,3666           27176                                    A-PCHK                                #  YES,GET OUT.
001091:
001092: 13,3667           43345                           DLOAD    DAD                                   #  NO,ADD TIMEDELT TO T-TO-ADD AND TRY
001093: 13,3670           03732                                    T-TO-ADD                              #  AGAIN.
001094: 13,3671           27711                                    TIMEDELT
001095: 13,3672           37732                           STCALL   T-TO-ADD
001096: 13,3673           27645                                    TIMEINC
001097: 13,3674           77414        NOTIME             CLEAR    EXIT                                  #  TOO LATE
001098: 13,3675           04674                                    MID1FLAG
001099: 13,3676           25127                           INCR     IRETURN1                              #  SET ERROR EXIT (CALLOC +2)
001100: 13,3677           05650                           TC       ALARM                                 #  INSUFFICIENT TIME FOR INTEGRATION --
001101: 13,3700           01703                           OCT      1703                                  #        TIG WILL BE SLIPPED...
001102: 13,3701           06006                           TC       INTPRET
001103: 13,3702           77745                           DLOAD
001104: 13,3703           27711                                    TIMEDELT
001105: 13,3704           03732                           STORE    T-TO-ADD
001106: 13,3705           77616                           RVQ
001107:
001108: 13,3706           00000 00003  3CSECS             2DEC     3          B-28
001109:
001110: 13,3710           00000 02342  TIMEDELT           2DEC     1250       B-28
001111:
001112: 13,3712           00000 01060  5.6SECS            2DEC     560        B-28
001113:
001114: 27,2671                                           BANK     27
001115: 27,2000                                           SETLOC   UPDATE2
001116: 27,2000                                           BANK
001117: 27,2671     0330                                  EBANK=   INTWAKUQ
001118:


001120: 27,2671                                           COUNT*   $$/INTIN
001121:
001122: 27,2671     0330               INTWAKUQ           =        INTWAK1Q                              #  TEMPORARY UNTIL NAME OF INTWAK1Q IS CHNG
001123:
001124: 27,2671           00003        INTWAKEU           RELINT
001125: 27,2672           00006                           EXTEND
001126: 27,2673           22330                           QXCH     INTWAKUQ                              #  SAVE Q FOR RETURN
001127:
001128: 27,2674           06006                           TC       INTPRET
001129:
001130: 27,2675           53135                           SLOAD    BZE                                   #  IS THIS A CSM/LEM STATE VECTOR UPDATE
001131: 27,2676           01502                                    UPSVFLAG                              #  REQUEST.  IF NOT GO TO INTWAKUP.
001132: 27,2677           56736                                    INTWAKUP
001133:
001134: 27,2700           77775                           VLOAD                                          #  MOVE RRECT(6) AND VRECT(6) INTO
001135: 27,2701           01503                                    RRECT                                 #        RCV(6) AND VCV(6) RESPECTIVELY.
001136: 27,2702           25535                           STOVL    RCV
001137: 27,2703           01511                                    VRECT                                 #  NOW GO TO 'RECTIFY +13D' TO
001138: 27,2704           77624                           CALL                                           #  STORE VRECT INTO VCV AND ZERO OUT
001139: 27,2705           23436                                    RECTIFY    +13D                       #  TDELTAV(6),TNUV(6),TC(2) AND XKEP(2)
001140: 27,2706           51535                           SLOAD    ABS                                   #  COMPARE ABSOLUTE VALUE OF 'UPSVFLAG'
001141: 27,2707           01502                                    UPSVFLAG                              #  TO 'UPDATE MOON STATE VECTOR CODE'
001142: 27,2710           53025                           DSU      BZE                                   #  TO DETERMINE WHETHER THE STATE VECTOR TO
001143: 27,2711           16747                                    UPMNSVCD                              #  BE UPDATED IS IN THE EARTH OR LUNAR
001144: 27,2712           56717                                    INTWAKEM                              #  SPHERE OF INFLUENCE.........
001145: 27,2713           43174                           AXT,2    CLRGO                                 #  EARTH SPHERE OF INFLUENCE.
001146: 27,2714           00000                           DEC      0          B-14
001147: 27,2715           00223                                    MOONFLAG
001148: 27,2716           56722                                    INTWAKEC
001149: 27,2717           43174        INTWAKEM           AXT,2    SET                                   #  LUNAR SPHERE OF INFLUENCE.
001150: 27,2720           00002                           DEC      2          B-14
001151: 27,2721           00063                                    MOONFLAG
001152: 27,2722           50135        INTWAKEC           SLOAD    BMN                                   #  COMMON CODING AFTER X2 INITIALIZED AND
001153:                                                                                                  #  MOONFLAG SET (OR CLEARED).
001154: 27,2723           01502                                    UPSVFLAG                              #  IS THIS A REQUEST FOR A LEM OR CSM
001155: 27,2724           56732                                    INTWAKLM                              #        STATE VECTOR UPDATE......
001156: 27,2725           77624                           CALL                                           #  UPDATE CSM STATE VECTOR
001157: 27,2726           26705                                    ATOPCSM
001158:
001159: 27,2727           52014                           CLEAR    GOTO
001160: 27,2730           01671                                    ORBWFLAG
001161: 27,2731           56734                                    INTWAKEX
001162:
001163: 27,2732           77624        INTWAKLM           CALL                                           #  UPDATE LM STATE VECTOR
001164: 27,2733           26760                                    ATOPLEM
001165:
001166: 27,2734           77614        INTWAKEX           CLEAR
001167: 27,2735           02676                                    RENDWFLG
001168:
001169: 27,2736           45131        INTWAKUP           SSP      CALL                                  #  REMOVE :UPDATE STATE VECTOR INDICATOR:


001171: 27,2737           01502                                    UPSVFLAG
001172: 27,2740           00000                                    0
001173: 27,2741           27455                                    INTWAKE0                              #  RELEASE :GRAB: OF ORBIT INTEG
001174: 27,2742           77776                           EXIT
001175:
001176: 27,2743           05412                           TC       PHASCHNG
001177: 27,2744           04026                           OCT      04026
001178: 27,2745           00330                           TC       INTWAKUQ
001179:
001180: 27,2746           00002        UPMNSVCD           OCT      2
001181: 27,2747           00000                           OCT      0
001182:
001183: 27,2750           77420        GRP2PC             STQ      EXIT
001184: 27,2751           03536                                    GRP2SVQ
001185: 27,2752           05412                           TC       PHASCHNG
001186: 27,2753           04022                           OCT      04022
001187: 27,2754           06006                           TC       INTPRET
001188: 27,2755           77650                           GOTO
001189: 27,2756           03536                                    GRP2SVQ
001190:
001191:
001192:

End of include-file INTEGRATION_INITIALIZATION.agc.  Parent file is MAIN.agc


