
Source Code
000001:                                                                                                 #  Copyright:    Public domain.
000002:                                                                                                 #  Filename:     INTER-BANK_COMMUNICATION.agc
000003:                                                                                                 #  Purpose:      Part of the source code for Comanche, build 055. It
000004:                                                                                                 #                is part of the source code for the Command Module's
000005:                                                                                                 #                (CM) Apollo Guidance Computer (AGC), Apollo 11.
000006:                                                                                                 #  Assembler:    yaYUL
000007:                                                                                                 #  Reference:    pp. 1103-1106
000008:                                                                                                 #  Contact:      Ron Burkey <info@sandroid.org>
000009:                                                                                                 #  Website:      http://www.ibiblio.org/apollo.
000010:                                                                                                 #  Mod history:  2009-05-08 RSB   Adapted from Colossus249/ file of same name
000011:                                                                                                 #                                 and page images. Corrected various typos
000012:                                                                                                 #                                 in the transcription of program comments,
000013:                                                                                                 #                                 and these should be back-ported to
000014:                                                                                                 #                                 Colossus249.
000015:
000016:                                                                                                 #  The contents of the "Comanche055" files, in general, are transcribed
000017:                                                                                                 #  from scanned documents.
000018:
000019:                                                                                                 #        Assemble revision 055 of AGC program Comanche by NASA
000020:                                                                                                 #        2021113-051.  April 1, 1969.
000021:
000022:                                                                                                 #        This AGC program shall also be referred to as Colossus 2A
000023:
000024:                                                                                                 #        Prepared by
000025:                                                                                                 #                        Massachussets Institute of Technology
000026:                                                                                                 #                        75 Cambridge Parkway
000027:                                                                                                 #                        Cambridge, Massachusetts
000028:
000029:                                                                                                 #        under NASA contract NAS 9-4065.
000030:
000031:                                                                                                 #  Refer directly to the online document mentioned above for further
000032:                                                                                                 #  information.  Please report any errors to info@sandroid.org.
000033:
000034:                                                                                                 #  Page 1103
000035:                                                                                                 #  THE FOLLOWING ROUTINE CAN BE USED TO CALL A SUBROUTINE IN ANOTHER BANK. IN THE BANKCALL VERSION, THE
000036:                                                                                                 #  CADR OF THE SUBROUTINE IMMEDIATELY FOLLOWS THE TC BANKCALL INSTRUCTION, WITH C(A) AND C(L) PRESERVED.
000037:
000038:    4662                                          BLOCK    02
000039:    4662                                          COUNT    02/BANK
000040:
000041:    4662           52134        BANKCALL          DXCH     BUF2                                  #  SAVE INCOMING A,L.
000042:    4663           50002                          INDEX    Q                                     #  PICK UP CADR.
000043:    4664           30000                          CA       0
000044:    4665           24002                          INCR     Q                                     #  SO WE RETURN TO THE LOC. AFTER THE CADR.
000045:
000046:                                                                                                 #  SWCALL IS  IDENTICAL TO BANKCALL, EXCEPT THAT THE CADR ARRIVES IN A.
000047:
000048:    4666           54001        SWCALL            TS       L
000049:    4667           22004                          LXCH     FBANK                                 #  SWITCH BANKS, SAVING RETURN.
000050:    4670           75054                          MASK     LOW10                                 #  GET SUB-ADDRESS OF CADR.
000051:    4671           56002                          XCH      Q                                     #  A,L NOW CONTAINS DP RETURN.
000052:    4672           52134                          DXCH     BUF2                                  #  RESTORING INPUTS IF THIS IS A BANKCALL.
000053:    4673           50002                          INDEX    Q
000054:    4674           02000                          TC       10000                                 #  SETTING Q TO SWRETURN
000055:
000056:    4675           56134        SWRETURN          XCH      BUF2       +1                         #  COMES HERE TO RETURN TO CALLER. C(A,L)
000057:    4676           56004                          XCH      FBANK                                 #  ARE PRESERVED FOR RETURN.
000058:    4677           56134                          XCH      BUF2       +1
000059:    4700           00133                          TC       BUF2
000060:
000061:                                                                                                 #  THE FOLLOWING ROUTINE CAN BE USED AS A UNILATERAL JUMP WITH C(A,L) PRESERVED AND THE CADR IMMEDIATELY
000062:                                                                                                 #  FOLLOWING THE TC POSTJUMP INSTRUCTION.
000063:
000064:    4701           56002        POSTJUMP          XCH      Q                                     #  SAVE INCOMING C(A).
000065:    4702           50000                          INDEX    A                                     #  GET CADR.
000066:    4703           30000                          CA       0
000067:
000068:                                                                                                 #  BANKJUMP IS THE SAME AS POSTJUMP, EXCEPT THAT THE CADR ARRIVES IN A.
000069:
000070:    4704           54004        BANKJUMP          TS       FBANK
000071:    4705           75054                          MASK     LOW10
000072:    4706           56002                          XCH      Q                                     #  RESTORING INPUT C(A) IF THIS WAS A
000073:    4707           50002        Q+10000           INDEX    Q                                     #  POSTJUMP.
000074:    4710           12000        PRIO12            TCF      10000                                 #  PRIO12 = TCF   10000 = 12000
000075:
000076:                                                                                                 #  Page 1104
000077:                                                                                                 #  THE FOLLOWING ROUTINE GETS THE RETURN CADR SAVED BY SWCALL OR BANKCALL AND LEAVES IT IN A.
000078:
000079:    4711           35054        MAKECADR          CAF      LOW10
000080:    4712           70133                          MASK     BUF2
000081:    4713           60134                          AD       BUF2       +1
000082:    4714           00002                          TC       Q
000083:
000084:    4715           54135        SUPDACAL          TS       MPTEMP
000085:    4716           56004                          XCH      FBANK                                 #  SET FBANK FOR DATA.
000086:    4717           00006                          EXTEND
000087:    4720           04007                          ROR      SUPERBNK                              #  SAVE FBANK IN BITS 15-11, AND
000088:    4721           56135                          XCH      MPTEMP                                #  SUPERBANK IN BITS 7-5.
000089:    4722           75054                          MASK     LOW10
000090:    4723           56001                          XCH      L                                     #  SAVE REL. ADR. IN BANK, FETCH SUPERBITS
000091:    4724           00004                          INHINT                                         #  BECAUSE RUPT DOES NOT SAVE SUPERBANK.
000092:    4725           00006                          EXTEND
000093:    4726           01007                          WRITE    SUPERBNK                              #  SET SUPERBANK FOR DATA.
000094:    4727           50001                          INDEX    L
000095:    4730           32000                          CA       10000                                 #  PINBALL (FIX MEM DISP) PREVENTS DCA HERE
000096:    4731           56135                          XCH      MPTEMP                                #  SAVE 1ST WD, FETCH OLD FBANK AND SBANK.
000097:    4732           00006                          EXTEND
000098:    4733           01007                          WRITE    SUPERBNK                              #  RESTORE SUPERBANK.
000099:    4734           00003                          RELINT
000100:    4735           54004                          TS       FBANK                                 #  RESTORE FBANK.
000101:    4736           30135                          CA       MPTEMP                                #  RECOVER FIRST WORD OF DATA.
000102:    4737           00002                          RETURN                                         #  24 WDS. DATACALL 516 MU, SUPDACAL 432 MU
000103:
000104:                                                                                                 #  Page 1105
000105:                                                                                                 #  THE FOLLOWING ROUTINES ARE IDENTICAL TO BANKCALL AND SWCALL EXCEPT THAT THEY ARE USED IN INTERRUPT.
000106:
000107:    4740           52073        IBNKCALL          DXCH     RUPTREG3                              #  USES RUPTREG3,4 FOR DP RETURN ADDRESS.
000108:    4741           50002                          INDEX    Q
000109:                                                                                                 #  Was CAF --- RSB 2009
000110:    4742           30000                          CA       0
000111:    4743           24002                          INCR     Q
000112:
000113:    4744           54001        ISWCALL           TS       L
000114:    4745           22004                          LXCH     FBANK
000115:    4746           75054                          MASK     LOW10
000116:    4747           56002                          XCH      Q
000117:    4750           52073                          DXCH     RUPTREG3
000118:    4751           50002                          INDEX    Q
000119:    4752           02000                          TC       10000
000120:
000121:    4753           56073        ISWRETRN          XCH      RUPTREG4
000122:    4754           56004                          XCH      FBANK
000123:    4755           56073                          XCH      RUPTREG4
000124:    4756           00072                          TC       RUPTREG3
000125:
000126:                                                                                                 #  2. USPRCADR ACCESSES INTERPRETIVE CODING IN OTHER THAN THE USER'S FBANK.  THE CALLING SEQUENCE IS AS FOLLOWS:
000127:                                                                                                 #         L       TC      USPRCADR
000128:                                                                                                 #         L+1     CADR    INTPRETX        # INTPRETX IS THE INTERPRETIVE CODING
000129:                                                                                                 #                                         # RETURN IS TO L+2
000130:
000131:    4757           54164        USPRCADR          TS       LOC                                   #  SAVE A
000132:    4760           35010                          CA       BIT8
000133:    4761           54023                          TS       EDOP                                  #  EXIT INSTRUCTION TO EDOP
000134:    4762           30006                          CA       BBANK
000135:    4763           54165                          TS       BANKSET                               #  USER'S BBANK TO BANKSET
000136:    4764           50002                          INDEX    Q
000137:    4765           30000                          CA       0
000138:    4766           54004                          TS       FBANK                                 #  INTERPRETIVE BANK TO FBANK
000139:    4767           75054                          MASK     LOW10                                 #  YIELDS INTERPRETIVE RELATIVE ADDRESS
000140:    4770           56002                          XCH      Q                                     #  INTERPRETIVE ADDRESS TO Q, FETCHING L+1
000141:    4771           56164                          XCH      LOC                                   #  L+1 TO LOC, RETRIEVING ORIGINAL A
000142:    4772           14707                          TCF      Q+10000
000143:
000144:                                                                                                 #  Page 1106
000145:                                                                                                 #  THERE ARE FOUR POSSIBLE SETTINGS FOR CHANNEL 07.  (CHANNEL 07 CONTAINS SUPERBANK SETTING.)
000146:
000147:                                                                                                 #                                         PSEUDO-FIXED     OCTAL PSEUDO
000148:                                                                                                 #  SUPERBANK      SETTING S-REG. VALUE    BANK NUMBERS       ADDRESSES
000149:                                                                                                 #  ---------      ------- ------------    ------------       ---------
000150:                                                                                                 #  SUPERBANK 3      OXX    2000 - 3777       30 - 37       70000 - 107777         (WHERE XX CAN BE ANYTHING AND
000151:                                                                                                 #                                                                                 WILL USUALLY BE SEEN AS 11)
000152:                                                                                                 #  SUPERBANK 4      100    2000 - 3777       40 - 47      110000 - 127777         (AS FAR AS IT CAN BE SEEN,
000153:                                                                                                 #                                                                                 ONLY BANKS 40-43 WILL EVER BE
000154:                                                                                                 #                                                                                 AND ARE PRESENTLY AVAILABLE)
000155:                                                                                                 #  SUPERBANK 5      101    2000 - 3777       50 - 57      130000 - 147777         (PRESENTLY NOT AVAILABLE TO
000156:                                                                                                 #                                                                                 THE USER)
000157:                                                                                                 #  SUPERBANK 6      110    2000 - 3777       60 - 67      150000 - 167777         (PRESENTLY NOT AVAILABLE TO
000158:                                                                                                 #                                                                                 THE USER)
000159:                                                                                                 #  *** THIS ROUTINE MAY BE CALLED BY ANY PROGRAM LOCATED IN BANKS 00 - 27.  I.E., NO PROGRAM LIVING IN ANY
000160:                                                                                                 #  SUPERBANK SHOULD USE SUPERSW. ***
000161:
000162:                                                                                                 #  SUPERSW MAY BE CALLED IN THIS FASHION:
000163:                                                                                                 #         CAF     ABBCON          WHERE -- ABBCON  BBCON  SOMETHING --
000164:                                                                                                 #         TCR     SUPERSW         (THE SUPERBNK BITS ARE IN THE BBCON)
000165:                                                                                                 #         ...       ...
000166:                                                                                                 #          .         .
000167:                                                                                                 #          .         .
000168:                                                                                                 #  OR IN THIS FASHION:
000169:                                                                                                 #         CAF     SUPERSET        WHERE SUPERSET IS ONE OF THE FOUR AVAILABLE
000170:                                                                                                 #         TCR     SUPERSW         SUPERBANK BIT CONSTANTS:
000171:                                                                                                 #         ...       ...                   SUPER011 OCTAL  60
000172:                                                                                                 #          .         .                    SUPER100 OCTAL 100
000173:                                                                                                 #          .         .                    SUPER101 OCTAL 120
000174:                                                                                                 #                                         SUPER110 OCTAL 140
000175:
000176:    4773           00006        SUPERSW           EXTEND
000177:    4774           01007                          WRITE    SUPERBNK                              #  WRITE BITS 7-6-5 OF THE ACCUMULATOR INTO
000178:                                                                                                 #  CHANNEL 07
000179:    4775           00002                          TC       Q                                     #  TC TO INSTRUCTION FOLLOWING
000180:                                                                                                 #         TC SUPERSW
000181:
000182:
000183:

End of include-file INTER-BANK_COMMUNICATION.agc.  Parent file is MAIN.agc


