
Source Code


000002:                                                                                                  #  Copyright:    Public domain.
000003:                                                                                                  #  Filename:     INTER-BANK_COMMUNICATION.agc
000004:                                                                                                  #  Purpose:      Part of the source code for Comanche, build 055. It
000005:                                                                                                  #                is part of the source code for the Command Module's
000006:                                                                                                  #                (CM) Apollo Guidance Computer (AGC), Apollo 11.
000007:                                                                                                  #  Assembler:    yaYUL
000008:                                                                                                  #  Reference:    pp. 1103-1106
000009:                                                                                                  #  Contact:      Ron Burkey <info@sandroid.org>
000010:                                                                                                  #  Website:      http://www.ibiblio.org/apollo.
000011:                                                                                                  #  Mod history:  2009-05-08 RSB  Adapted from Colossus249/ file of same name
000012:                                                                                                  #                                and page images. Corrected various typos
000013:                                                                                                  #                                in the transcription of program comments,
000014:                                                                                                  #                                and these should be back-ported to
000015:                                                                                                  #                                Colossus249.
000016:                                                                                                  #                2011-05-08 JL   Removed workaround.
000017:
000018:                                                                                                  #  The contents of the "Comanche055" files, in general, are transcribed
000019:                                                                                                  #  from scanned documents.
000020:
000021:                                                                                                  #        Assemble revision 055 of AGC program Comanche by NASA
000022:                                                                                                  #        2021113-051.  April 1, 1969.
000023:
000024:                                                                                                  #        This AGC program shall also be referred to as Colossus 2A
000025:
000026:                                                                                                  #        Prepared by
000027:                                                                                                  #                        Massachusetts Institute of Technology
000028:                                                                                                  #                        75 Cambridge Parkway
000029:                                                                                                  #                        Cambridge, Massachusetts
000030:
000031:                                                                                                  #        under NASA contract NAS 9-4065.
000032:
000033:                                                                                                  #  Refer directly to the online document mentioned above for further
000034:                                                                                                  #  information.  Please report any errors to info@sandroid.org.
000035:


000037:                                                                                                  #  THE FOLLOWING ROUTINE CAN BE USED TO CALL A SUBROUTINE IN ANOTHER BANK. IN THE BANKCALL VERSION, THE
000038:                                                                                                  #  CADR OF THE SUBROUTINE IMMEDIATELY FOLLOWS THE TC BANKCALL INSTRUCTION, WITH C(A) AND C(L) PRESERVED.
000039:
000040:    4662                                           BLOCK    02
000041:    4662                                           COUNT    02/BANK
000042:
000043:    4662           52134        BANKCALL           DXCH     BUF2                                  #  SAVE INCOMING A,L.
000044:    4663           50002                           INDEX    Q                                     #  PICK UP CADR.
000045:    4664           30000                           CA       0
000046:    4665           24002                           INCR     Q                                     #  SO WE RETURN TO THE LOC. AFTER THE CADR.
000047:
000048:                                                                                                  #  SWCALL IS  IDENTICAL TO BANKCALL, EXCEPT THAT THE CADR ARRIVES IN A.
000049:
000050:    4666           54001        SWCALL             TS       L
000051:    4667           22004                           LXCH     FBANK                                 #  SWITCH BANKS, SAVING RETURN.
000052:    4670           75054                           MASK     LOW10                                 #  GET SUB-ADDRESS OF CADR.
000053:    4671           56002                           XCH      Q                                     #  A,L NOW CONTAINS DP RETURN.
000054:    4672           52134                           DXCH     BUF2                                  #  RESTORING INPUTS IF THIS IS A BANKCALL.
000055:    4673           50002                           INDEX    Q
000056:    4674           02000                           TC       10000                                 #  SETTING Q TO SWRETURN
000057:
000058:    4675           56134        SWRETURN           XCH      BUF2       +1                         #  COMES HERE TO RETURN TO CALLER. C(A,L)
000059:    4676           56004                           XCH      FBANK                                 #  ARE PRESERVED FOR RETURN.
000060:    4677           56134                           XCH      BUF2       +1
000061:    4700           00133                           TC       BUF2
000062:
000063:                                                                                                  #  THE FOLLOWING ROUTINE CAN BE USED AS A UNILATERAL JUMP WITH C(A,L) PRESERVED AND THE CADR IMMEDIATELY
000064:                                                                                                  #  FOLLOWING THE TC POSTJUMP INSTRUCTION.
000065:
000066:    4701           56002        POSTJUMP           XCH      Q                                     #  SAVE INCOMING C(A).
000067:    4702           50000                           INDEX    A                                     #  GET CADR.
000068:    4703           30000                           CA       0
000069:
000070:                                                                                                  #  BANKJUMP IS THE SAME AS POSTJUMP, EXCEPT THAT THE CADR ARRIVES IN A.
000071:
000072:    4704           54004        BANKJUMP           TS       FBANK
000073:    4705           75054                           MASK     LOW10
000074:    4706           56002                           XCH      Q                                     #  RESTORING INPUT C(A) IF THIS WAS A
000075:    4707           50002        Q+10000            INDEX    Q                                     #  POSTJUMP.
000076:    4710           12000        PRIO12             TCF      10000                                 #  PRIO12 = TCF  10000 = 12000
000077:


000079:                                                                                                  #  THE FOLLOWING ROUTINE GETS THE RETURN CADR SAVED BY SWCALL OR BANKCALL AND LEAVES IT IN A.
000080:
000081:    4711           35054        MAKECADR           CAF      LOW10
000082:    4712           70133                           MASK     BUF2
000083:    4713           60134                           AD       BUF2       +1
000084:    4714           00002                           TC       Q
000085:
000086:    4715           54135        SUPDACAL           TS       MPTEMP
000087:    4716           56004                           XCH      FBANK                                 #  SET FBANK FOR DATA.
000088:    4717           00006                           EXTEND
000089:    4720           04007                           ROR      SUPERBNK                              #  SAVE FBANK IN BITS 15-11, AND
000090:    4721           56135                           XCH      MPTEMP                                #  SUPERBANK IN BITS 7-5.
000091:    4722           75054                           MASK     LOW10
000092:    4723           56001                           XCH      L                                     #  SAVE REL. ADR. IN BANK, FETCH SUPERBITS
000093:    4724           00004                           INHINT                                         #  BECAUSE RUPT DOES NOT SAVE SUPERBANK.
000094:    4725           00006                           EXTEND
000095:    4726           01007                           WRITE    SUPERBNK                              #  SET SUPERBANK FOR DATA.
000096:    4727           50001                           INDEX    L
000097:    4730           32000                           CA       10000                                 #  PINBALL (FIX MEM DISP) PREVENTS DCA HERE
000098:    4731           56135                           XCH      MPTEMP                                #  SAVE 1ST WD, FETCH OLD FBANK AND SBANK.
000099:    4732           00006                           EXTEND
000100:    4733           01007                           WRITE    SUPERBNK                              #  RESTORE SUPERBANK.
000101:    4734           00003                           RELINT
000102:    4735           54004                           TS       FBANK                                 #  RESTORE FBANK.
000103:    4736           30135                           CA       MPTEMP                                #  RECOVER FIRST WORD OF DATA.
000104:    4737           00002                           RETURN                                         #  24 WDS. DATACALL 516 MU, SUPDACAL 432 MU
000105:


000107:                                                                                                  #  THE FOLLOWING ROUTINES ARE IDENTICAL TO BANKCALL AND SWCALL EXCEPT THAT THEY ARE USED IN INTERRUPT.
000108:
000109:    4740           52073        IBNKCALL           DXCH     RUPTREG3                              #  USES RUPTREG3,4 FOR DP RETURN ADDRESS.
000110:    4741           50002                           INDEX    Q
000111:    4742           30000                           CAF      0
000112:    4743           24002                           INCR     Q
000113:
000114:    4744           54001        ISWCALL            TS       L
000115:    4745           22004                           LXCH     FBANK
000116:    4746           75054                           MASK     LOW10
000117:    4747           56002                           XCH      Q
000118:    4750           52073                           DXCH     RUPTREG3
000119:    4751           50002                           INDEX    Q
000120:    4752           02000                           TC       10000
000121:
000122:    4753           56073        ISWRETRN           XCH      RUPTREG4
000123:    4754           56004                           XCH      FBANK
000124:    4755           56073                           XCH      RUPTREG4
000125:    4756           00072                           TC       RUPTREG3
000126:
000127:                                                                                                  #  2. USPRCADR ACCESSES INTERPRETIVE CODING IN OTHER THAN THE USER'S FBANK.  THE CALLING SEQUENCE IS AS FOLLOWS:
000128:                                                                                                  #        L       TC      USPRCADR
000129:                                                                                                  #        L+1     CADR    INTPRETX        # INTPRETX IS THE INTERPRETIVE CODING
000130:                                                                                                  #                                        # RETURN IS TO L+2
000131:
000132:    4757           54164        USPRCADR           TS       LOC                                   #  SAVE A
000133:    4760           35010                           CA       BIT8
000134:    4761           54023                           TS       EDOP                                  #  EXIT INSTRUCTION TO EDOP
000135:    4762           30006                           CA       BBANK
000136:    4763           54165                           TS       BANKSET                               #  USER'S BBANK TO BANKSET
000137:    4764           50002                           INDEX    Q
000138:    4765           30000                           CA       0
000139:    4766           54004                           TS       FBANK                                 #  INTERPRETIVE BANK TO FBANK
000140:    4767           75054                           MASK     LOW10                                 #  YIELDS INTERPRETIVE RELATIVE ADDRESS
000141:    4770           56002                           XCH      Q                                     #  INTERPRETIVE ADDRESS TO Q, FETCHING L+1
000142:    4771           56164                           XCH      LOC                                   #  L+1 TO LOC, RETRIEVING ORIGINAL A
000143:    4772           14707                           TCF      Q+10000
000144:


000146:                                                                                                  #  THERE ARE FOUR POSSIBLE SETTINGS FOR CHANNEL 07.  (CHANNEL 07 CONTAINS SUPERBANK SETTING.)
000147:
000148:                                                                                                  #                                        PSEUDO-FIXED     OCTAL PSEUDO
000149:                                                                                                  #  SUPERBANK     SETTING S-REG. VALUE    BANK NUMBERS       ADDRESSES
000150:                                                                                                  #  ---------     ------- ------------    ------------       ---------
000151:                                                                                                  #  SUPERBANK 3     OXX    2000 - 3777       30 - 37       70000 - 107777         (WHERE XX CAN BE ANYTHING AND
000152:                                                                                                  #                                                                                WILL USUALLY BE SEEN AS 11)
000153:                                                                                                  #  SUPERBANK 4     100    2000 - 3777       40 - 47      110000 - 127777         (AS FAR AS IT CAN BE SEEN,
000154:                                                                                                  #                                                                                ONLY BANKS 40-43 WILL EVER BE
000155:                                                                                                  #                                                                                AND ARE PRESENTLY AVAILABLE)
000156:                                                                                                  #  SUPERBANK 5     101    2000 - 3777       50 - 57      130000 - 147777         (PRESENTLY NOT AVAILABLE TO
000157:                                                                                                  #                                                                                THE USER)
000158:                                                                                                  #  SUPERBANK 6     110    2000 - 3777       60 - 67      150000 - 167777         (PRESENTLY NOT AVAILABLE TO
000159:                                                                                                  #                                                                                THE USER)
000160:                                                                                                  #  *** THIS ROUTINE MAY BE CALLED BY ANY PROGRAM LOCATED IN BANKS 00 - 27.  I.E., NO PROGRAM LIVING IN ANY
000161:                                                                                                  #  SUPERBANK SHOULD USE SUPERSW. ***
000162:
000163:                                                                                                  #  SUPERSW MAY BE CALLED IN THIS FASHION:
000164:                                                                                                  #        CAF     ABBCON          WHERE -- ABBCON  BBCON  SOMETHING --
000165:                                                                                                  #        TCR     SUPERSW         (THE SUPERBNK BITS ARE IN THE BBCON)
000166:                                                                                                  #        ...       ...
000167:                                                                                                  #         .         .
000168:                                                                                                  #         .         .
000169:                                                                                                  #  OR IN THIS FASHION:
000170:                                                                                                  #        CAF     SUPERSET        WHERE SUPERSET IS ONE OF THE FOUR AVAILABLE
000171:                                                                                                  #        TCR     SUPERSW         SUPERBANK BIT CONSTANTS:
000172:                                                                                                  #        ...       ...                   SUPER011 OCTAL  60
000173:                                                                                                  #         .         .                    SUPER100 OCTAL 100
000174:                                                                                                  #         .         .                    SUPER101 OCTAL 120
000175:                                                                                                  #                                        SUPER110 OCTAL 140
000176:
000177:    4773           00006        SUPERSW            EXTEND
000178:    4774           01007                           WRITE    SUPERBNK                              #  WRITE BITS 7-6-5 OF THE ACCUMULATOR INTO
000179:                                                                                                  #  CHANNEL 07
000180:    4775           00002                           TC       Q                                     #  TC TO INSTRUCTION FOLLOWING
000181:                                                                                                  #        TC SUPERSW
000182:
000183:
000184:

End of include-file INTER-BANK_COMMUNICATION.agc.  Parent file is MAIN.agc


