
Source Code


000002:                                                                                                  ## Copyright:   Public domain.
000003:                                                                                                  ## Filename:    INTERRUPT_LEAD_INS.agc
000004:                                                                                                  ## Purpose:     Part of the source code for Comanche, build 055.
000005:                                                                                                  ##              It is part of the source code for the Command Module's (CM)
000006:                                                                                                  ##              Apollo Guidance Computer (AGC), Apollo 11.
000007:                                                                                                  ## Assembler:   yaYUL
000008:                                                                                                  ## Reference:   pp. 131-132
000009:                                                                                                  ## Contact:     Ron Burkey <info@sandroid.org>,
000010:                                                                                                  ##              Fabrizio Bernardini <fabrizio@spacecraft.it>
000011:                                                                                                  ## Website:     http://www.ibiblio.org/apollo.
000012:                                                                                                  ## Mod history: 09/05/09 FB     Transcription of Batch FB-1 Assignment.
000013:                                                                                                  ##              2016-12-10 RSB  Proofed comments with octopus/ProoferComments
000014:                                                                                                  ##                              and fixed the errors found.
000015:                                                                                                  ##
000016:                                                                                                  ## The contents of the "Comanche055" files, in general, are transcribed
000017:                                                                                                  ## from scanned documents.
000018:                                                                                                  ##
000019:                                                                                                  ##      Assemble revision 055 of AGC program Comanche by NASA
000020:                                                                                                  ##      2021113-051.  April 1, 1969.
000021:                                                                                                  ##
000022:                                                                                                  ##      This AGC program shall also be referred to as Colossus 2A
000023:                                                                                                  ##
000024:                                                                                                  ##      Prepared by
000025:                                                                                                  ##                      Massachusetts Institute of Technology
000026:                                                                                                  ##                      75 Cambridge Parkway
000027:                                                                                                  ##                      Cambridge, Massachusetts
000028:                                                                                                  ##
000029:                                                                                                  ##      under NASA contract NAS 9-4065.
000030:                                                                                                  ##
000031:                                                                                                  ## Refer directly to the online document mentioned above for further
000032:                                                                                                  ## information.  Please report any errors to info@sandroid.org.
000033:


000035:    4000                                           SETLOC   4000
000036:
000037:    4000                                           COUNT    02/RUPTS
000038:
000039:    4000           00004                           INHINT                                         #  GO
000040:    4001           34054                           CAF      GOBB
000041:    4002           56006                           XCH      BBANK
000042:    4003           12526                           TCF      GOPROG
000043:
000044:    4004           52011                           DXCH     ARUPT                                 #  T6RUPT
000045:    4005           00006                           EXTEND
000046:    4006           31311                           DCA      T6LOC
000047:    4007           52006                           DTCB
000048:
000049:    4010           52011                           DXCH     ARUPT                                 #  T5RUPT
000050:    4011           40030                           CS       TIME5
000051:    4012           65036                           AD       .5SEC
000052:    4013           14065                           TCF      T5RUPT
000053:
000054:    4014           52011                           DXCH     ARUPT                                 #  T3RUPT
000055:    4015           34055                           CAF      T3RPTBB
000056:    4016           56006                           XCH      BBANK
000057:    4017           13416                           TCF      T3RUPT
000058:
000059:    4020           52011                           DXCH     ARUPT                                 #  T4RUPT
000060:    4021           34063                           CAF      T4RPTBB
000061:    4022           56006                           XCH      BBANK
000062:    4023           12000                           TCF      T4RUPT
000063:
000064:    4024           52011                           DXCH     ARUPT                                 #  KEYRUPT1
000065:    4025           34056                           CAF      KEYRPTBB
000066:    4026           56006                           XCH      BBANK
000067:    4027           13673                           TCF      KEYRUPT1
000068:
000069:    4030           52011                           DXCH     ARUPT                                 #  KEYRUPT2
000070:    4031           34057                           CAF      MKRUPTBB
000071:    4032           56006                           XCH      BBANK
000072:    4033           12104                           TCF      MARKRUPT
000073:
000074:    4034           52011                           DXCH     ARUPT                                 #  UPRUPT
000075:    4035           34056                           CAF      UPRPTBB
000076:    4036           56006                           XCH      BBANK
000077:    4037           13716                           TCF      UPRUPT
000078:
000079:    4040           52011                           DXCH     ARUPT                                 #  DOWNRUPT
000080:    4041           34060                           CAF      DWNRPTBB
000081:    4042           56006                           XCH      BBANK
000082:    4043           13521                           TCF      DODOWNTM
000083:
000084:    4044           52011                           DXCH     ARUPT                                 #  RADAR RUPT


000086:    4045           34061                           CAF      RDRPTBB
000087:    4046           56006                           XCH      BBANK
000088:    4047           12504                           TCF      VHFREAD
000089:
000090:    4050           52011                           DXCH     ARUPT                                 #  HAND CONTROL RUPT
000091:    4051           34062                           CAF      HCRUPTBB
000092:    4052           56006                           XCH      BBANK
000093:    4053           15336                           TCF      RESUME     +3                         #  NOT USED
000094:
000095:    4054  E3,1400                                  EBANK=   LST1                                  #  RESTART USES E0,E3
000096:    4054           12063        GOBB               BBCON    GOPROG
000097:
000098:    4055  E3,1400                                  EBANK=   LST1
000099:    4055           02063        T3RPTBB            BBCON    T3RUPT
000100:
000101:    4056     0073                                  EBANK=   KEYTEMP1
000102:    4056           16060        KEYRPTBB           BBCON    KEYRUPT1
000103:
000104:    4057  E7,1725                                  EBANK=   MRKBUF1
000105:    4057           16067        MKRUPTBB           BBCON    MARKRUPT
000106:
000107:    4060     4056               UPRPTBB            =        KEYRPTBB
000108:
000109:    4060     0340                                  EBANK=   DNTMBUFF
000110:    4060           12060        DWNRPTBB           BBCON    DODOWNTM
000111:
000112:    4061  E7,1603                                  EBANK=   DATATEST
000113:    4061           56067        RDRPTBB            BBCON    VHFREAD
000114:
000115:    4062     0025                                  EBANK=   TIME1
000116:    4062           04060        HCRUPTBB           BBCON    RESUME                                #  NOT USED
000117:
000118:    4063     1302                                  EBANK=   DSRUPTSW
000119:    4063           14062        T4RPTBB            BBCON    T4RUPT
000120:
000121:    4064     0025                                  EBANK=   TIME1
000122:    4064           04060        T5RPTBB            BBCON    T5RUPT
000123:
000124:    4065           00006        T5RUPT             EXTEND
000125:    4066           65337                           BZMF     NOQBRSM
000126:    4067           00006                           EXTEND
000127:    4070           31313                           DCA      T5LOC
000128:    4071           52006                           DTCB
000129:
000130:
000131:

End of include-file INTERRUPT_LEAD_INS.agc.  Parent file is MAIN.agc


