
Source Code


000002:                                                                                                  ## Copyright:   Public domain.
000003:                                                                                                  ## Filename:    INTEGRATION_INITIALIZATION.agc
000004:                                                                                                  ## Purpose:     Part of the source code for Colossus 2A, AKA Comanche 055.
000005:                                                                                                  ##              It is part of the source code for the Command Module's (CM)
000006:                                                                                                  ##              Apollo Guidance Computer (AGC), for Apollo 11.
000007:                                                                                                  ## Assembler:   yaYUL
000008:                                                                                                  ## Contact:     Ron Burkey <info@sandroid.org>.
000009:                                                                                                  ## Website:     www.ibiblio.org/apollo.
000010:                                                                                                  ## Pages:       1309-1333
000011:                                                                                                  ## Mod history: 2009-05-15 RSB  Adapted from the Colossus249/ file of the
000012:                                                                                                  ##                              same name, using Comanche055 page images.
000013:                                                                                                  ##              2009-05-20 RSB  Corrections:  fixed an interpreter instruction,
000014:                                                                                                  ##                              fixed a SETLOC.
000015:                                                                                                  ##              2009-05-23 RSB  In SETCOAST, corrected MOONTHIS to AMOONFLG.
000016:                                                                                                  ##              2010-08-29 JL   Fixed indentation.
000017:                                                                                                  ##              2016-12-22 RSB  Proofed comment text using octopus/ProoferComments
000018:                                                                                                  ##                              and corrected the errors found.
000019:                                                                                                  ##              2017-01-14 RSB  Fixed comment-text errors located by diff'ing
000020:                                                                                                  ##                              against Colossus 249.
000021:                                                                                                  ##
000022:                                                                                                  ## This source code has been transcribed or otherwise adapted from digitized
000023:                                                                                                  ## images of a hardcopy from the MIT Museum.  The digitization was performed
000024:                                                                                                  ## by Paul Fjeld, and arranged for by Deborah Douglas of the Museum.  Many
000025:                                                                                                  ## thanks to both.  The images (with suitable reduction in storage size and
000026:                                                                                                  ## consequent reduction in image quality as well) are available online at
000027:                                                                                                  ## www.ibiblio.org/apollo.  If for some reason you find that the images are
000028:                                                                                                  ## illegible, contact me at info@sandroid.org about getting access to the
000029:                                                                                                  ## (much) higher-quality images which Paul actually created.
000030:                                                                                                  ##
000031:                                                                                                  ## Notations on the hardcopy document read, in part:
000032:                                                                                                  ##
000033:                                                                                                  ##      Assemble revision 055 of AGC program Comanche by NASA
000034:                                                                                                  ##      2021113-051.  10:28 APR. 1, 1969
000035:                                                                                                  ##
000036:                                                                                                  ##      This AGC program shall also be referred to as
000037:                                                                                                  ##                      Colossus 2A
000038:


000040:                                                                                                  #  1.0 INTRODUCTION
000041:                                                                                                  #  ----------------
000042:
000043:                                                                                                  #  FROM A USERS POINT OF VIEW, ORBITAL INTEGRATION IS ESSENTIALLY THE SAME AS THE 278 INTEGRATION
000044:                                                                                                  #  PROGRAM.  THE SAME ENTRANCES TO THE PROGRAM WILL BE MAINTAINED, THE SAME STALLING ROUTINE WILL BE USED AND
000045:                                                                                                  #  OUTPUT WILL STILL BE VIA THE PUSHLIST.  THE PRIMARY DIFFERENCES TO A USER INVOLVE THE ADDED CAPABILITY OF
000046:                                                                                                  #  TERMINATING INTEGRATION AT A SPECIFIC FINAL RADIUS AND THE DIFFERENCE IN STATE VECTOR SCALING INSIDE AND OUT-
000047:                                                                                                  #  SIDE THE LUNAR SPHERE OF INFLUENCE.
000048:
000049:                                                                                                  #  IN ORDER TO MAKE THE CSM(LEM)PREC AND CSM(LEM)CONIC ENTRANCES SIMILAR TO FLIGHT 278, THE INTEGRATION PROGRAM
000050:                                                                                                  #  WILL ITSELF SET THE FINAL RADIUS (RFINAL) TO 0 SO THAT REACHING THE DESIRED TIME ONLY WILL TERMINATE
000051:                                                                                                  #  INTEGRATION.  THE DP REGISTER RFINAL MUST BE SET BY USERS OF INTEGRVS AND INTEGRV, AND MUST BE DONE AFTER THE
000052:                                                                                                  #  CALL TC INTSTALL.
000053:
000054:                                                                                                  #  WHEN THE LM IS ON THE LUNAR SURFACE (INDICATED BY LUNAR SURFACE FLAG SET) CALLS TO LEMCONIC, LEMPREC, AND
000055:                                                                                                  #  INTEGRV WITH VINFLAG = 0 WILL RESULT IN THE USE OF THE PLANETARY INERTIAL ORIENTATION SUBROUTINES TO PROVIDE
000056:                                                                                                  #  BOTH THE LMS POSITION AND VELOCITY IN THE REFERENCE COORDINATE SYSTEM.
000057:                                                                                                  #  THE PROGRAM WILL PROVIDE OUTPUT AS IF INTEGRATION WAS USED.  THAT IS, THE PUSHLIST WILL BE SET AS NOTED BELOW AND
000058:                                                                                                  #  THE PERMANENT STATE VECTOR UPDATED WHEN SPECIFIED BY AN INTEGRV CALL.
000059:
000060:                                                                                                  #  USERS OF INTEGRVS DESIRING INTEGRATION (INTYPFLG = 0) SHOULD NOTE THAT THE OBLATENESS PERTURBATION COMPUTATION
000061:                                                                                                  #  IN LUNAR ORBIT IS TIME DEPENDENT.  THEREFORE, THE USER SHOULD SUPPLY AN INITIAL STATE VECTOR VALID AT SOME REAL
000062:                                                                                                  #  TIME AND THE DESIRED TIME (TDEC1) ALSO AT SOME REAL TIME.  FOR CONIC ,,INTEGRATION,, THE USER MAY STILL USE ZERO
000063:                                                                                                  #  AS THE INITIAL TIME AND DELTA TIME AS THE DESIRED TIME.
000064:
000065:                                                                                                  #  2.0 GENERAL DESCRIPTION
000066:                                                                                                  #  -----------------------
000067:
000068:                                                                                                  #  THE INTEGRATION PROGRAM OPERATES AS A CLOSED INTERPRETIVE SUBROUTINE AND PERFORMS THESE FUNCTIONS ---
000069:                                                                                                  #        1) INTEGRATES (PRECISION OR CONIC) EITHER CSM OR LM STATE VECTOR
000070:                                                                                                  #        2) INTEGRATES THE W-MATRIX
000071:                                                                                                  #        3) PERMANENT OR TEMPORARY UPDATE OF THE STATE VECTOR
000072:
000073:                                                                                                  #  THERE ARE SIX ENTRANCES TO THE INTEGRATION PROGRAM.  FOUR OF THESE (CSMPREC, LEMPREC, CSMCONIC, LEMCONIC) SET
000074:                                                                                                  #  ALL THE FLAGS REQUIRED IN THE INTEGRATION PROGRAM ITSELF TO CAUSE THE PRECISION OR CONIC INTEGRATION (KEPLER) OF
000075:                                                                                                  #  THE LM OR CSM STATE VECTOR, AS THE NAMES SUGGEST.  ONE ENTRANCE (INTEGRVS) PERMITS THE CALLING PROGRAM TO
000076:                                                                                                  #  PROVIDE A STATE VECTOR TO BE INTEGRATED.  THE CALLING PROGRAM MUST SET THE FLAGS INDICATING (1) PRECISION OR
000077:                                                                                                  #  CONIC INTEGRATION, (2) IN OR OUT OF LUNAR SPHERE, (3) MIDCOURSE OR NOT, AND THE INTEGRATION PROGRAM COMPLETES
000078:                                                                                                  #  THE FLAG SETTING TO BYPASS W-MATRIX INTEGRATION.  THE LAST ENTRANCE (INTEGRV, USED IN GENERAL BY THE
000079:                                                                                                  #  NAVIGATION PROGRAMS) PERMITS THE CALLER TO SET FIVE FLAGS (NOT MOONFLAG OR MIDFLAG) BUT NOT TO INPUT A STATE
000080:                                                                                                  #  VECTOR.  ANY PROGRAM WHICH CALLS INTEGRVS OR INTEGRV MUST CALL INTSTALL BEFORE IT SETS THE INTEGRATION FLAGS
000081:                                                                                                  #  AND/OR STATE VECTOR.
000082:
000083:                                                                                                  #  THREE SETS OF 42 REGISTERS AND 2 FLAGS ARE USED FOR THE STATE VECTORS.  TWO SETS, WHICH MAY NOT BE OVERLAYED, ARE
000084:                                                                                                  #  USED FOR THE PERMANENT STATE VECTORS FOR THE CSM AND LM.  THE THIRD SET, WHICH MAY BE OVERLAYED WHEN INTEGRATION
000085:                                                                                                  #  IS NOT BEING DONE, IS USED IN THE COMPUTATIONS.
000086:
000087:                                                                                                  #  THE PERMANENT STATE VECTORS WILL BE PERIODICALLY UPDATED SO THAT THE VECTORS WILL NOT BE OLDER THAN 4 TIMESTEPS.
000088:                                                                                                  #  THE PERMANENT STATE VECTORS WILL ALSO BE UPDATED WHENEVER THE W-MATRIX IS INTEGRATED OR WHEN A CALLER OF INTEGRV
000089:                                                                                                  #  SETS STATEFLG (THE NAVIGATION PROGRAMS P20, P22.)
000090:


000092:                                                                                                  #  APPENDIX B OF THE USERS GUIDE LISTS THE STATE VECTOR QUANTITIES.
000093:
000094:                                                                                                  #  2.1 RESTARTS
000095:
000096:                                                                                                  #  PHASE CHANGES WILL BE MADE IN THE INTEGRATION PROGRAM ONLY FOR THE INTEGRV ENTRANCE (I.E., WHEN THE W-MATRIX IS
000097:                                                                                                  #  INTEGRATED OR PERMANENT STATE VECTOR IS UPDATED.)  THE GROUP NUMBER USED WILL BE THAT FOR THE P20-25 PROGRAMS
000098:                                                                                                  #  (I.E., GROUP2) SINCE THE INTEGRV ENTRANCE WILL ONLY BE USED BY THESE PROGRAMS.  IF A RESTART OCCURS DURING AN
000099:                                                                                                  #  INTEGRATION OF THE STATE VECTOR ONLY, THE RECOVERY WILL BE TO THE LAST PHASE IN THE CALLING PROGRAM.  CALLING
000100:                                                                                                  #  PROGRAMS WHICH USE THE INTEGRV OR INTEGRVS ENTRANCE OF INTEGRATION SHOULD ENSURE THAT IF PHASE CHANGING IS DONE
000101:                                                                                                  #  THAT IT IS PRIOR TO SETTING THE INTEGRATION INPUTS IN THE PUSHLIST.
000102:                                                                                                  #  THIS IS BECAUSE THE PUSHLIST IS LOST DURING A RESTART.
000103:
000104:                                                                                                  #  2.2 SCALING
000105:
000106:                                                                                                  #  THE INTEGRATION ROUTINE WILL MAINTAIN THE PERMANENT MEMORY STATE VECTORS IN THE SCALING AND UNITS DEFINED IN
000107:                                                                                                  #  APPENDIX B OF THE USERS GUIDE.  THE SCALING OF THE OUTPUT POSITION VECTOR DEPENDS ON THE ORIGIN OF THE COORDINATE
000108:                                                                                                  #  SYSTEM AT THE DESIRED INTEGRATION TIME.  THE COORDINATE SYSTEM TRANSFORMATION WILL BE DONE AUTOMATICALLY ON
000109:                                                                                                  #  MULTIPLE TIMESTEP ENCKE INTEGRATION ONLY.  THUS IT IS POSSIBLE TO HAVE OUTPUT FROM SUCCESSIVE INTEGRATIONS IN
000110:                                                                                                  #  DIFFERENT SCALING.
000111:                                                                                                  #  HOWEVER, RATT, VATT WILL ALWAYS BE SCALED THE SAME.
000112:
000113:                                                                                                  #  3.0 INPUT/OUTPUT
000114:                                                                                                  #  ----------------
000115:
000116:                                                                                                  #  PROGRAM INPUTS ARE THE FLAGS DESCRIBED IN APPENDIX A AND THE PERMANENT STATE VECTOR QUANTITIES DESCRIBED IN AP-
000117:                                                                                                  #  PENDIX B OF THE USERS GUIDE, PLUS THE DESIRED TIME TO INTEGRATE TO IN TDEC1 (A PUSH LIST LOCATION).
000118:                                                                                                  #  FOR INTEGRVS, THE RCV,VCV,TET OF THE TEMPORARY STATE VECTOR MUST BE SET, PLUS MOONFLAG AND MIDFLAG
000119:
000120:                                                                                                  #  FOR SIMULATION THE FOLLOWING QUANTITIES MUST BE PRESET ---
000121:                                                                                                  #                                                                                EARTH   MOON
000122:                                                                                                  #                                                                                 29      27
000123:                                                                                                  #        RRECTCSM(LEM)   -       RECTIFIED POSITION VECTOR       METERS          2       2
000124:
000125:                                                                                                  #                                                                                 7       5
000126:                                                                                                  #        VRECTCSM(LEM)   -       RECTIFIED VELOCITY VECTOR       M/CSEC          2       2
000127:
000128:                                                                                                  #                                                                                 28      28
000129:                                                                                                  #        TETCSM(LEM)     -       TIME STATE VECTOR IS VALID      CSEC            2       2
000130:                                                                                                  #                                CUSTOMARILY 0, BUT NOTE LUNAR
000131:                                                                                                  #                                ORBIT DEPENDENCE ON REAL TIME.
000132:
000133:                                                                                                  #                                                                                 22      18
000134:                                                                                                  #        DELTAVCSM(LEM)  -       POSITION DEVIATION              METERS          2       2
000135:                                                                                                  #                                0 IF TCCSM(LEM) = 0
000136:
000137:                                                                                                  #                                                                                 3       -1
000138:                                                                                                  #        NUVCSM(LEM)     -       VELOCITY DEVIATION              M/CSEC          2       2
000139:                                                                                                  #                                0 IF TCCSM(LEM) = 0


000141:                                                                                                  #                                                                                 29      27
000142:                                                                                                  #        RCVCSM(LEM)     -       CONIC POSITION                  METERS          2       2
000143:                                                                                                  #                                EQUALS RRECTCSM(LEM) IF
000144:                                                                                                  #                                TCCSM(LEM) = 0
000145:
000146:                                                                                                  #                                                                                 7       5
000147:                                                                                                  #        VCVCSM(LEM)     -       CONIC VELOCITY                  M/CSEC          2       2
000148:                                                                                                  #                                EQUALS VRECTCSM(LEM) IF
000149:                                                                                                  #                                TCCSM(LEM) = 0
000150:
000151:                                                                                                  #                                                                                 28      28
000152:                                                                                                  #        TCCSM(LEM)      -       TIME SINCE RECTIFICATION        CSECS           2       2
000153:                                                                                                  #                                CUSTOMARILY 0
000154:
000155:                                                                                                  #                                                                 1/2             17      16
000156:                                                                                                  #        XKEPCSM(LEM)    -       ROOT OF KEPLERS EQUATION        M               2       2
000157:                                                                                                  #                                0 IF TCCSM(LEM) = 0
000158:
000159:                                                                                                  #        CMOONFLG        -       PERMANENT FLAGS CORRESPONDING                   0       0
000160:                                                                                                  #        CMIDFLAG                TO MOONFLAG AND MIDFLAG                         0,1     0,1
000161:                                                                                                  #        LMOONFLG                C = CSM, L = LM                                 0       0
000162:                                                                                                  #        LMIDFLG                                                                 0,1     0,1
000163:
000164:                                                                                                  #        SURFFLAG        -       LUNAR SURFACE FLAG                              0,1     0,1
000165:
000166:                                                                                                  #  IN ADDITION, IF (L)CMIDFLAG IS SET, THE INITIAL INPUT VALUES FOR LUNAR
000167:                                                                                                  #  SOLAR EPHEMERIDES SUBROUTINE AND PLANETARY INERTIAL ORIENTATION SUB-
000168:                                                                                                  #  ROUTINE MUST BE PRESET.
000169:
000170:                                                                                                  #  OUTPUT
000171:                                                                                                  #        AFTER EVERY CALL TO INTEGRATION
000172:                                                                                                  #                                                                        EARTH   MOON
000173:                                                                                                  #                                                                         29      29
000174:                                                                                                  #        0D      RATT    POSITION                        METERS          2       2
000175:
000176:                                                                                                  #                                                                         7       7
000177:                                                                                                  #        6D      VATT    VELOCITY                        M/CSEC          2       2
000178:
000179:                                                                                                  #                                                                         28      28
000180:                                                                                                  #        12D     TAT     TIME                                            2       2
000181:
000182:                                                                                                  #                                                                         29      27
000183:                                                                                                  #        14D     RATT1   POSITION                        METERS          2       2
000184:
000185:                                                                                                  #                                                                         7       5
000186:                                                                                                  #        20D     VATT1   VELOCITY                        M/CSEC          2       2
000187:
000188:                                                                                                  #                                                         3   2           36      30
000189:                                                                                                  #        26D     MU(P)   MU                              M /CS           2       2
000190:
000191:                                                                                                  #        X1              MUTABLE ENTRY                                   -2      -10D
000192:
000193:                                                                                                  #        X2              COORDINT
000194:                                                                                                  #        X2              COORDINATE SYSTEM ORIGEN                        0       2
000195:                                                                                                  #                        (THIS, NOT MOONFLAG, SHOULD BE


000197:                                                                                                  #                        USED TO DETERMINE ORIGIN.)
000198:
000199:                                                                                                  #  IN ADDITION TO THE ABOVE, THE PERMANENT STATE VECTOR IS UPDATED WHENEVER
000200:                                                                                                  #  STATEFLG WAS SET AND WHENEVER A W-MATRIX IS TO BE INTEGRATED.  THE PUSH
000201:                                                                                                  #  COUNTER IS SET TO 0 AND OVERFLOW IS CLEARED BEFORE RETURNING TO THE
000202:                                                                                                  #  CALLING PROGRAM.
000203:
000204:                                                                                                  #  4.0 CALLING SEQUENCES AND SAMPLE CODE
000205:                                                                                                  #  -------------------------------------
000206:
000207:                                                                                                  #        A) PRECISION ORBITAL INTEGRATION.  CSMPREC, LEMPREC ENTRANCES
000208:                                                                                                  #                L-X     STORE TIME TO 95T5791T5 T 95 PUS L9ST (T4531)
000209:                                                                                                  #                L       CALL
000210:                                                                                                  #                L+1             CSMPREC (OR LEMPREC)
000211:                                                                                                  #                L+2     RETURN
000212:                                                                                                  #           INPUT                                                           28
000213:                                                                                                  #                TDEC1 (PD 32D) TIME TO INTEGRATE TO...CENTISECONDS SCALED 2
000214:                                                                                                  #           OUTPUT
000215:                                                                                                  #                THE DATA LISTED IN SECTION 3.0 PLUS
000216:                                                                                                  #                RQVV    POSITION VECTOR OF VEHICLE WITH RESPECT TO SECONDARY
000217:                                                                                                  #                BODY... METERS B-29 ONLY IF MIDFLAG = DIM0FLAG = 1
000218:                                                                                                  #        B) CONIC INTEGRATION.  CSMCONIC, LEMCONIC ENTRANCES
000219:                                                                                                  #                L-X     STORE TIME IN PUSH LIST (TDEC1)
000220:                                                                                                  #                L       CALL
000221:                                                                                                  #                L+1             CSMCONIC (OR LEMCONIC)
000222:                                                                                                  #           INPUT/OUTPUT
000223:                                                                                                  #                SAME AS PRECISION INTEGRATION, EXCEPT RQVV NOT SET
000224:                                                                                                  #        C) INTEGRATE GIVEN STATE VECTOR.  INTEGRVS ENTRANCE
000225:                                                                                                  #                CALL
000226:                                                                                                  #                                INTSTALL
000227:                                                                                                  #                VLOAD
000228:                                                                                                  #                                POSITION VECTOR
000229:                                                                                                  #                STOVL           RCV
000230:                                                                                                  #                                VELOCITY VECTOR
000231:                                                                                                  #                STODL           VCV
000232:                                                                                                  #                                TIME STATE VECTOR VALID
000233:                                                                                                  #                STODL           TET
000234:                                                                                                  #                                FINAL RADIUS
000235:                                                                                                  #                STORE           RFINAL
000236:                                                                                                  #                SET(CLEAR)      SET(CLEAR)
000237:                                                                                                  #                                INTYPFLAG
000238:                                                                                                  #                                MOONFLAG
000239:                                                                                                  #                SET(CLEAR)      DLOAD
000240:                                                                                                  #                                DESIRED TIME
000241:                                                                                                  #                STCALL          TDEC1
000242:                                                                                                  #                                INTEGRVS
000243:                                                                                                  #          INPUT
000244:                                                                                                  #                RCV     POSITION VECTOR                 METERS
000245:                                                                                                  #                VCV     VELOCITY VECTOR                 M/CSEC
000246:                                                                                                  #                TET     TIME OF STATE VECTOR (MAY = 0)  CSEC B-28


000248:                                                                                                  #                TDEC1   TIME TO INTEGRATE TO            CSEC B-28 (PD 32D)
000249:                                                                                                  #                        (MAY BE INCREMENT IF TET=0)
000250:                                                                                                  #          OUTPUT
000251:                                                                                                  #                SAME AS FOR PRECISION OR CONIC INTEGRATION,
000252:                                                                                                  #                DEPENDING ON INTYPFLG.
000253:                                                                                                  #        D) INTEGRATE STATE VECTOR.  INTGRV ENTRANCE
000254:                                                                                                  #                L-X     STORE TIME IN PUSH LIST (TDEC1) (MAY BE DONE AFTER CALL TO INTSTALL)
000255:                                                                                                  #                L-8     CALL
000256:                                                                                                  #                L-7
000257:                                                                                                  #                L-6     SET(CLEAR)      SET(CLEAR)
000258:                                                                                                  #                L-5                     VINTFLAG        1=CSM, 0=LM
000259:                                                                                                  #                L-4                     INTYPFLAG       1=CONIC, 0=PRECISION
000260:                                                                                                  #                L-3     SET(CLEAR)      SET(CLEAR)
000261:                                                                                                  #                L-2                     DIM0FLAG        1=W-MATRIX, 0=NO W-MATRIX
000262:                                                                                                  #                L-1                     D6OR9FLG        1=9X9, 0=6X6
000263:                                                                                                  #                L       SET             DLOAD
000264:                                                                                                  #                L+1                     STATEFLG        DESIRE PERMANENT UPDATE
000265:                                                                                                  #                L+2                     FINAL RAD.      OF STATE VECTOR
000266:                                                                                                  #                L+3     STCALL          RFINAL
000267:                                                                                                  #                L+4                     INTEGRV
000268:                                                                                                  #                L       CALL                            NORMAL USE -- WILL UPDATE STATE
000269:                                                                                                  #                L+1                     INTEGRV         VECTOR IF DIM0FLAG=1. (STATEFLG IS
000270:                                                                                                  #                L+2     RETURN                          ALWAYS RESET IN INTEGRATION AFTER
000271:                                                                                                  #                                                        IT IS USED.)
000272:                                                                                                  #          INPUT
000273:                                                                                                  #                TDEC1 (PD 32D) TIME TO INTEGRATE TO     CSEC B-28
000274:                                                                                                  #          OUTPUT
000275:                                                                                                  #                SAME AS FOR PRECISION OR CONIC INTEGRATION
000276:                                                                                                  #          THE PROGRAM WILL SET MOONFLAG, MIDFLAG DEPENDING ON
000277:                                                                                                  #          THE PERMANENT STATE VECTOR REPRESENTATION.
000278:
000279: 11,2363                                           BANK     11
000280: 13,2000                                           SETLOC   INTINIT
000281: 13,2000                                           BANK
000282: 13,2627  E3,1554                                  EBANK=   RRECTCSM
000283: 13,2627                                           COUNT    13/INTIN
000284:
000285: 13,2627           05412        STATEINT           TC       PHASCHNG
000286: 13,2630           00052                           OCT      00052
000287: 13,2631           35061                           CAF      PRIO5
000288: 13,2632           05147                           TC       FINDVAC
000289: 13,2633  E3,1554                                  EBANK=   RRECTCSM
000290: 13,2633           02636 26063                     2CADR    STATINT1
000291:
000292: 13,2635           05324                           TC       TASKOVER
000293: 13,2636           06006        STATINT1           TC       INTPRET
000294: 13,2637           47014                           BON      RTB
000295: 13,2640           04712                                    QUITFLAG
000296: 13,2641           26677                                    NOINT                                 #  NO STATEINT IF V96
000297: 13,2642           45510                                    LOADTIME


000299: 13,2643           00041                           STORE    TDEC1
000300: 13,2644           45014                           CLEAR    CALL
000301: 13,2645           04274                                    V96ONFLG
000302: 13,2646           27442                                    INTSTALL
000303: 13,2647           45014                           SET      CALL
000304: 13,2650           01076                                    NODOFLAG
000305: 13,2651           26670                                    SETIFLGS
000306: 13,2652           77650                           GOTO
000307: 13,2653           26000                                    STATEUP
000308: 13,2654           00003 25140  600SECS            2DEC     60000      B-28
000309:
000310: 13,2656           77414        ENDINT             CLEAR    EXIT
000311: 13,2657           01672                                    STATEFLG
000312: 13,2660           05412                           TC       PHASCHNG
000313: 13,2661           20032                           OCT      20032
000314: 13,2662           00006                           EXTEND
000315: 13,2663           32655                           DCA      600SECS
000316: 13,2664           05342                           TC       LONGCALL
000317: 13,2665  E3,1554                                  EBANK=   RRECTHIS
000318: 13,2665           02627 26063                     2CADR    STATEINT
000319:
000320: 13,2667           05217                           TC       ENDOFJOB
000321: 13,2670           43014        SETIFLGS           SET      CLEAR
000322: 13,2671           01472                                    STATEFLG
000323: 13,2672           01673                                    INTYPFLG
000324: 13,2673           43014                           CLEAR    CLEAR
000325: 13,2674           01676                                    DIM0FLAG
000326: 13,2675           01675                                    D6OR9FLG
000327: 13,2676           77616                           RVQ
000328: 13,2677           77776        NOINT              EXIT
000329: 13,2700           05412                           TC       PHASCHNG
000330: 13,2701           00002                           OCT      2
000331:
000332: 13,2702           05560                           TC       DOWNFLAG
000333: 13,2703           00221                           ADRES    QUITFLAG
000334:
000335: 13,2704           05217                           TC       ENDOFJOB
000336:
000337:                                                                                                  #  ATOPCSM TRANSFERS RRECT TO RRECT +41 TO RRECTCSM TO RRECTCSM +41
000338:
000339:                                                                                                  #  CALLING SEQUENCE
000340:                                                                                                  #        L       CALL
000341:                                                                                                  #        L+1             ATOPCSM
000342:
000343:                                                                                                  #  NORMAL EXIT AT L+2
000344:
000345: 13,2705           47020        ATOPCSM            STQ      RTB
000346: 13,2706           00051                                    S2
000347: 13,2707           26720                                    MOVEACSM
000348: 13,2710           45014                           SET      CALL


000350: 13,2711           04063                                    CMOONFLG
000351: 13,2712           20237                                    SVDWN1
000352: 13,2713           43014                           BON      CLRGO
000353: 13,2714           00303                                    MOONFLAG
000354: 13,2715           00051                                    S2
000355: 13,2716           04223                                    CMOONFLG
000356: 13,2717           00051                                    S2
000357: 13,2720           03064        MOVEACSM           TC       SETBANK
000358: 13,2721           55500                           TS       DIFEQCNT                              #  INITIALIZE INDEX
000359: 13,2722           51500                           INDEX    DIFEQCNT
000360: 13,2723           31502                           CA       RRECT
000361: 13,2724           51500                           INDEX    DIFEQCNT
000362: 13,2725           55554                           TS       RRECTCSM
000363: 13,2726           11500                           CCS      DIFEQCNT                              #  IS TRANSFER COMPLETE
000364: 13,2727           12721                           TCF      MOVEACSM   +1                         #  NO-LOOP
000365: 13,2730           06030                           TC       DANZIG                                #  COMPLETE - RETURN
000366:
000367:                                                                                                  #  PTOACSM TRANSFERS RRECTCSM TO RRECTCSM +41 TO RRECT TO RRECT +41
000368:
000369:                                                                                                  #  CALLING SEQUENCE
000370:                                                                                                  #        L       CALL
000371:                                                                                                  #                        PTOACSM
000372:
000373:                                                                                                  #  NORMAL EXIT AT L+2
000374:
000375: 13,2731           43034        PTOACSM            RTB      BON
000376: 13,2732           26747                                    MOVEPCSM
000377: 13,2733           04303                                    CMOONFLG
000378: 13,2734           26742                                    SETMOON
000379: 13,2735           66214        CLRMOON            CLEAR    SSP
000380: 13,2736           00263                                    MOONFLAG
000381: 13,2737           02151                                    PBODY
000382: 13,2740           00000                                    0
000383: 13,2741           77616                           RVQ
000384: 13,2742           66214        SETMOON            SET      SSP
000385: 13,2743           00063                                    MOONFLAG
000386: 13,2744           02151                                    PBODY
000387: 13,2745           00002                                    2
000388: 13,2746           77616                           RVQ
000389: 13,2747           03064        MOVEPCSM           TC       SETBANK
000390: 13,2750           55500                           TS       DIFEQCNT
000391: 13,2751           51500                           INDEX    DIFEQCNT
000392: 13,2752           31554                           CA       RRECTCSM
000393: 13,2753           51500                           INDEX    DIFEQCNT
000394: 13,2754           55502                           TS       RRECT
000395: 13,2755           11500                           CCS      DIFEQCNT
000396: 13,2756           12750                           TCF      MOVEPCSM   +1
000397: 13,2757           06030                           TC       DANZIG
000398:


000400:                                                                                                  #  ATOPLEM TRANSFERS RRECT TO RRECT +41 TO RRECTLEM TO RRECTLEM +41
000401: 13,2760           47020        ATOPLEM            STQ      RTB
000402: 13,2761           00051                                    S2
000403: 13,2762           26773                                    MOVEALEM
000404: 13,2763           45014                           SET      CALL
000405: 13,2764           04064                                    LMOONFLG
000406: 13,2765           20263                                    SVDWN2
000407: 13,2766           43014                           BON      CLRGO
000408: 13,2767           00303                                    MOONFLAG
000409: 13,2770           00051                                    S2
000410: 13,2771           04224                                    LMOONFLG
000411: 13,2772           00051                                    S2
000412: 13,2773           03064        MOVEALEM           TC       SETBANK
000413: 13,2774           55500                           TS       DIFEQCNT
000414: 13,2775           51500                           INDEX    DIFEQCNT
000415: 13,2776           31502                           CA       RRECT
000416: 13,2777           51500                           INDEX    DIFEQCNT
000417: 13,3000           55626                           TS       RRECTLEM
000418: 13,3001           11500                           CCS      DIFEQCNT
000419: 13,3002           12774                           TCF      MOVEALEM   +1
000420: 13,3003           06030                           TC       DANZIG
000421:
000422:                                                                                                  #  PTOALEM TRANSFERS RRECTLEM TO RRECTLEM +41 TO RRECT TO RRECT +41
000423:
000424: 13,3004           47014        PTOALEM            BON      RTB
000425: 13,3005           04307                                    SURFFLAG
000426: 13,3006           27025                                    USEPIOS
000427: 13,3007           27014                                    MOVEPLEM
000428: 13,3010           52014                           BON      GOTO
000429: 13,3011           04304                                    LMOONFLG
000430: 13,3012           26742                                    SETMOON
000431: 13,3013           26735                                    CLRMOON
000432: 13,3014           03064        MOVEPLEM           TC       SETBANK
000433: 13,3015           55500                           TS       DIFEQCNT
000434: 13,3016           51500                           INDEX    DIFEQCNT
000435: 13,3017           31626                           CA       RRECTLEM
000436: 13,3020           51500                           INDEX    DIFEQCNT
000437: 13,3021           55502                           TS       RRECT
000438: 13,3022           11500                           CCS      DIFEQCNT
000439: 13,3023           13015                           TCF      MOVEPLEM   +1
000440: 13,3024           06030                           TC       DANZIG
000441:
000442: 13,3025           77201        USEPIOS            SETPD    VLOAD
000443: 13,3026           00001                                    0
000444: 13,3027           02026                                    RLS
000445: 13,3030           41525                           PDDL     PUSH
000446: 13,3031           00041                                    TDEC1


000448: 13,3032           15517                           STODL    TET
000449: 13,3033           27755                                    5/8
000450: 13,3034           77624                           CALL
000451: 13,3035           55344                                    RP-TO-R
000452: 13,3036           25535                           STOVL    RCV
000453: 13,3037           11560                                    ZUNIT
000454: 13,3040           14001                           STODL    0D
000455: 13,3041           01517                                    TET
000456: 13,3042           14007                           STODL    6D
000457: 13,3043           27755                                    5/8
000458: 13,3044           45014                           SET      CALL                                  #  NEEDED FOR SETTING X1 ON EXIT
000459: 13,3045           00063                                    MOONFLAG
000460: 13,3046           55344                                    RP-TO-R
000461: 13,3047           74235                           VXV      VXSC
000462: 13,3050           01535                                    RCV
000463: 13,3051           27063                                    OMEGMOON
000464: 13,3052           25543                           STOVL    VCV
000465: 13,3053           11566                                    ZEROVEC
000466: 13,3054           01521                           STORE    TDELTAV
000467: 13,3055           67174                           AXT,2    SXA,2
000468: 13,3056           00002                                    2
000469: 13,3057           02150                                    PBODY
000470: 13,3060           35527                           STCALL   TNUV
000471: 13,3061           27176                                    A-PCHK
000472: 13,3062           07112 06620  OMEGMOON           2DEC*    2.66169947 E-8        B+23*
000473:
000474: 13,3064           33070        SETBANK            CAF      INTBANK
000475: 13,3065           54006                           TS       BBANK
000476: 13,3066           33507                           CAF      FORTYONE
000477: 13,3067           00002                           TC       Q
000478: 13,3070  E3,1554                                  EBANK=   RRECTCSM
000479: 13,3070           26063        INTBANK            BBCON    INTEGRV
000480:
000481:                                                                                                  #  SPECIAL PURPOSE ENTRIES TO ORBITAL INTEGRATION.  THESE ROUTINES PROVIDE ENTRANCES TO INTEGRATION WITH
000482:                                                                                                  #  APPROPRIATE SWITCHES SET OR CLEARED FOR THE DESIRED INTEGRATION.
000483:
000484:                                                                                                  #  CSMPREC AND LEMPREC PERFORM ORBIT INTEGRATION BY THE ENCKE METHOD TO THE TIME INDICATED IN TDEC1
000485:                                                                                                  #  ACCELERATIONS DUE TO OBLATENESS ARE INCLUDED.  NO W-MATRIX INT. IS DONE.
000486:                                                                                                  #  THE PERMANENT STATE VECTOR IS NOT UPDATED.
000487:                                                                                                  #  CSMCONIC AND LEMCONIC PERFORM ORBIT INTEG. BY KEPLERS METHOD TO THE TIME INDICATED IN TDEC1
000488:                                                                                                  #  NO DISTURBING ACCELERATIONS ARE INCLUDED.  IN THE PROGRAM FLOW THE GIVEN
000489:                                                                                                  #  STATE VECTOR IS RECTIFIED BEFORE SOLUTION OF KEPLERS EQUATION
000490:
000491:                                                                                                  #  THE ROUTINES ASSUME THAT THE CSM (LEM) STATE VECTOR IN P-MEM IS VALID.
000492:                                                                                                  #  SWITCHES SET PRIOR TO ENTRY TO THE MAIN INTEG. PROG ARE AS FOLLOWS
000493:                                                                                                  #                        CSMPREC         CSMCONIC        LEMPREC         LEMCONIC
000494:                                                                                                  #        VINTFLAG        SET             SET             CLEAR           CLEAR
000495:                                                                                                  #        INTYPFLG        CLEAR           SET             CLEAR           SET
000496:                                                                                                  #        DIM0FLAG        CLEAR           CLEAR           CLEAR           CLEAR


000498:
000499:                                                                                                  #  CALLING SEQUENCE
000500:                                                                                                  #        L-X     STORE   TDEC1
000501:                                                                                                  #        L       CALL                    (STCALL TDEC1)
000502:                                                                                                  #        L+1             CSMPREC         (CSMCONIC, LEMPREC, LEMCONIC)
000503:
000504:                                                                                                  #  NORMAL EXIT TO L+2
000505:
000506:                                                                                                  #  SUBROUTINES CALLED
000507:                                                                                                  #        INTEGRV1
000508:                                                                                                  #        PRECOUT FOR CSMPREC AND LEMPREC
000509:                                                                                                  #        CONICOUT FOR CSMCONIC AND LEMCONIC
000510:
000511:                                                                                                  #  OUTPUT - SEE PAGE 2 OF THIS LOG SECTION
000512:
000513:                                                                                                  #  INPUT
000514:                                                                                                  #        TDEC1           TIME TO INTEGRATE TO.  CSECS B-28
000515:
000516: 13,3071           45020        CSMPREC            STQ      CALL
000517: 13,3072           00046                                    X1
000518: 13,3073           27442                                    INTSTALL
000519: 13,3074           43130                           SXA,1    SET
000520: 13,3075           02214                                    IRETURN
000521: 13,3076           01474                                    VINTFLAG
000522:
000523: 13,3077           43014        IFLAGP             SET      CLEAR
000524: 13,3100           01467                                    PRECIFLG
000525: 13,3101           01676                                    DIM0FLAG
000526: 13,3102           77614                           CLRGO
000527: 13,3103           01633                                    INTYPFLG
000528: 13,3104           27164                                    INTEGRV1
000529: 13,3105           45020        LEMPREC            STQ      CALL
000530: 13,3106           00046                                    X1
000531: 13,3107           27442                                    INTSTALL
000532: 13,3110           43130                           SXA,1    CLRGO
000533: 13,3111           02214                                    IRETURN
000534: 13,3112           01634                                    VINTFLAG
000535: 13,3113           27077                                    IFLAGP
000536:
000537: 13,3114           45020        CSMCONIC           STQ      CALL
000538: 13,3115           00046                                    X1
000539: 13,3116           27442                                    INTSTALL
000540: 13,3117           43130                           SXA,1    SET
000541: 13,3120           02214                                    IRETURN
000542: 13,3121           01474                                    VINTFLAG
000543: 13,3122           43014        IFLAGC             CLEAR    SETGO
000544: 13,3123           01676                                    DIM0FLAG
000545: 13,3124           01433                                    INTYPFLG
000546: 13,3125           27164                                    INTEGRV1
000547: 13,3126           45020        LEMCONIC           STQ      CALL
000548: 13,3127           00046                                    X1


000550: 13,3130           27442                                    INTSTALL
000551: 13,3131           43130                           SXA,1    CLRGO
000552: 13,3132           02214                                    IRETURN
000553: 13,3133           01634                                    VINTFLAG
000554: 13,3134           27122                                    IFLAGC
000555:
000556: 13,3135           66214        INTEGRVS           SET      SSP
000557: 13,3136           01467                                    PRECIFLG
000558: 13,3137           02151                                    PBODY
000559: 13,3140           00000                                    0
000560: 13,3141           66214                           BOF      SSP
000561: 13,3142           00343                                    MOONFLAG
000562: 13,3143           27146                                    +3
000563: 13,3144           02151                                    PBODY
000564: 13,3145           00002                                    2
000565: 13,3146           77220                           STQ      VLOAD
000566: 13,3147           02214                                    IRETURN
000567: 13,3150           11566                                    ZEROVEC
000568: 13,3151           01521                           STORE    TDELTAV
000569: 13,3152           35527                           STCALL   TNUV
000570: 13,3153           23421                                    RECTIFY
000571: 13,3154           43014                           CLEAR    SET
000572: 13,3155           01676                                    DIM0FLAG
000573: 13,3156           04062                                    NEWIFLG
000574: 13,3157           77614                           SETGO
000575: 13,3160           04020                                    RPQFLAG
000576: 13,3161           22363                                    ALOADED
000577:
000578:                                                                                                  #  INTEGRV IS AN ENTRY TO ORBIT INTEGRATION WHICH PERMITS THE CALLER,
000579:                                                                                                  #  NORMALLY THE NAVIGATION PROGRAM, TO SET THE INTEG. FLAGS.  THE ROUTINE
000580:                                                                                                  #  IS ENTERED AT INTEGRV1 BY CSMPREC ET. AL. AND AT ALOADED BY INTEGRVS.
000581:                                                                                                  #  THE ROUTINE SETS UP A-MEMORY IF ENTERED AT INTEGRV,1 AND SETS THE INTEG.
000582:                                                                                                  #  PROGRAM FOR PRECISION OR CONIC
000583:
000584:                                                                                                  #  THE CALLER MUST FIRST CALL INTSTALL TO CHECK IF INTEG. IS IN USE BEFORE
000585:                                                                                                  #  SETTING ANY FLAGS.
000586:
000587:                                                                                                  #  THE FLAGS WHICH SHOULD BE SET OR CLEARED ARE
000588:                                                                                                  #        VINTFLAG        (IGNORED WHEN ENTERED FROM INTEGRVS)
000589:                                                                                                  #        INTYPFLG
000590:                                                                                                  #        DIM0FLAG
000591:                                                                                                  #        D6OR9FLG
000592:
000593:                                                                                                  #  CALLING SEQUENCE
000594:                                                                                                  #        L-X     CALL
000595:                                                                                                  #        L-Y             INTSTALL
000596:                                                                                                  #        L-1     SET OR CLEAR ALL FOUR FLAGS.  ALSO CAN SET STATEFLG IF DESIRED
000597:                                                                                                  #                AND DIM0FLAG IS CLEAR.
000598:                                                                                                  #        L       CALL
000599:                                                                                                  #        L+1             INTEGRV
000600:
000601:                                                                                                  #  INITIALIZATION
000602:                                                                                                  #        FLAGS AS ABOVE
000603:                                                                                                  #        STORE TIME TO INTEGRATE TO IN TDEC1
000604:


000606:                                                                                                  #  OUTPUT
000607:                                                                                                  #        RATT    AS
000608:                                                                                                  #        VATT          DEFINED
000609:                                                                                                  #        TAT                     BEFORE
000610:
000611: 13,3162           77620        INTEGRV            STQ
000612: 13,3163           02214                                    IRETURN
000613: 13,3164           43014        INTEGRV1           SET      SET
000614: 13,3165           04060                                    RPQFLAG
000615: 13,3166           04062                                    NEWIFLG
000616: 13,3167           77731        INTEGRV2           SSP
000617: 13,3170           00053                                    QPRET
000618: 13,3171           22363                                    ALOADED
000619: 13,3172           52014                           BON      GOTO
000620: 13,3173           01714                                    VINTFLAG
000621: 13,3174           26731                                    PTOACSM
000622: 13,3175           27004                                    PTOALEM
000623: 11,2000                                           SETLOC   INTINIT1
000624: 11,2000                                           BANK
000625: 11,2363           77745        ALOADED            DLOAD
000626: 11,2364           00041                                    TDEC1
000627: 11,2365           01101                           STORE    TDEC
000628: 11,2366           52014                           BOFF     GOTO
000629: 11,2367           01753                                    INTYPFLG
000630: 11,2370           27305                                    TESTLOOP
000631: 11,2371           27271                                    RVCON
000632: 13,2000                                           SETLOC   INTINIT
000633: 13,2000                                           BANK
000634: 13,3176           45014        A-PCHK             BOF      CALL
000635: 13,3177           00342                                    MIDFLAG
000636: 13,3200           27205                                    ANDOUT                                #  DONT MAKE ORIGIN CHANGE CHECK
000637: 13,3201           23320                                    CHKSWTCH
000638: 13,3202           45044                           BPL      CALL
000639: 13,3203           27205                                    ANDOUT                                #  NO ORIGIN CHANGE
000640: 13,3204           23361                                    ORIGCHNG                              #  MAKE THE SWITCH
000641: 13,3205           77414        ANDOUT             BOFCLR   EXIT
000642: 13,3206           01652                                    STATEFLG
000643: 13,3207           27226                                    RECTOUT
000644: 13,3210           05412                           TC       PHASCHNG
000645: 13,3211           04022                           OCT      04022
000646: 13,3212           05546                           TC       UPFLAG                                #  PHASE CHANGE HAS OCCURRED BETWEEN
000647: 13,3213           00236                           ADRES    REINTFLG                              #  INTSTALL AND INTWAKE
000648: 13,3214           06006                           TC       INTPRET
000649: 13,3215           77731                           SSP
000650: 13,3216           00053                                    QPRET
000651: 13,3217           27224                                    PHEXIT
000652: 13,3220           52014                           BON      GOTO
000653: 13,3221           01714                                    VINTFLAG
000654: 13,3222           26705                                    ATOPCSM


000656: 13,3223           26760                                    ATOPLEM
000657: 13,3224           77624        PHEXIT             CALL
000658: 13,3225           56750                                    GRP2PC
000659: 13,3226           45001        RECTOUT            SETPD    CALL
000660: 13,3227           00001                                    0
000661: 13,3230           23421                                    RECTIFY
000662: 13,3231           53775                           VLOAD    VSL*
000663: 13,3232           01503                                    RRECT
000664: 13,3233           57576                                    0,2
000665: 13,3234           53715                           PDVL     VSL*                                  #  RATT TO PD0
000666: 13,3235           01511                                    VRECT
000667: 13,3236           57576                                    0,2
000668: 13,3237           63325                           PDDL     PDVL                                  #  VATT TO PD6   TAT TO PD12
000669: 13,3240           01517                                    TET
000670: 13,3241           01503                                    RRECT
000671: 13,3242           64715                           PDVL     PDDL*
000672: 13,3243           01511                                    VRECT
000673: 13,3244           50042                                    MUEARTH,2
000674: 13,3245           76006                           PUSH     AXT,1
000675: 13,3246           77765                           DEC      -10        B-14
000676: 13,3247           76014                           BON      AXT,1
000677: 13,3250           00303                                    MOONFLAG
000678: 13,3251           27253                                    +2
000679: 13,3252           77775                           DEC      -2         B-14
000680: 13,3253           40001        INTEXIT            SETPD    BOV
000681: 13,3254           00001                                    0
000682: 13,3255           27256                                    +1
000683: 13,3256           77614                           CLEAR
000684: 13,3257           04675                                    MIDAVFLG
000685: 13,3260           43014                           CLEAR    CLEAR
000686: 13,3261           04676                                    AVEMIDSW                              #  ALLOW UPDATE OF DOWNLINK STATE VECTOR
000687: 13,3262           01667                                    PRECIFLG
000688: 13,3263           77535                           SLOAD    EXIT
000689: 13,3264           02215                                    IRETURN
000690: 13,3265           30154                           CA       MPAC
000691: 13,3266           50120                           INDEX    FIXLOC
000692: 13,3267           54052                           TS       QPRET
000693: 13,3270           03457                           TC       INTWAKE
000694:
000695:                                                                                                  #  RVCON SETS UP ORBIT INTEGRATION TO DO A CONIC SOLUTION FOR POSITION AND
000696:                                                                                                  #  VELOCITY FOR THE INTERVAL (TET-TDEC)
000697:
000698: 13,3271           45345        RVCON              DLOAD    DSU
000699: 13,3272           01101                                    TDEC
000700: 13,3273           01517                                    TET
000701: 13,3274           36312                           STCALL   TAU.
000702: 13,3275           23421                                    RECTIFY
000703: 13,3276           77624                           CALL
000704: 13,3277           22372                                    KEPPREP
000705: 13,3300           43345                           DLOAD    DAD
000706: 13,3301           01551                                    TC


000708: 13,3302           01517                                    TET
000709: 13,3303           35517                           STCALL   TET
000710: 13,3304           27226                                    RECTOUT
000711:


000713:                                                                                                  #  TESTLOOP
000714:
000715: 13,3305           43014        TESTLOOP           BOF      CLRGO
000716: 13,3306           04752                                    QUITFLAG
000717: 13,3307           27312                                    +3
000718: 13,3310           01632                                    STATEFLG
000719: 13,3311           27253                                    INTEXIT                               #  STOP INTEGRATION
000720: 13,3312           73001                 +3        SETPD    LXA,2
000721: 13,3313           00013                                    10D
000722: 13,3314           02150                                    PBODY
000723: 13,3315           51575                           VLOAD    ABVAL
000724: 13,3316           01535                                    RCV
000725: 13,3317           43006                           PUSH     CLEAR                                 #  RC TO 10D
000726: 13,3320           00262                                    MIDFLAG
000727: 13,3321           50023                           DSU*     BMN                                   #  MIDFLAG=0 IF R G.T. RMP
000728: 13,3322           67212                                    RME,2
000729: 13,3323           27326                                    +3
000730: 13,3324           77614                           SET
000731: 13,3325           00062                                    MIDFLAG
000732: 13,3326           41345        NORFINAL           DLOAD    DMP
000733: 13,3327           00013                                    10D
000734: 13,3330           00043                                    34D
000735: 13,3331           55762                           SR1R     DDV*
000736: 13,3332           50042                                    MUEARTH,2
000737: 13,3333           41366                           SQRT     DMP
000738: 13,3334           23752                                    .3D
000739: 13,3335           40442                           SR3      SR4                                   #  DT IS TRUNCATED TO A MULTIPLE
000740: 13,3336           54345                           DLOAD    SL
000741: 13,3337           00155                                    MPAC
000742: 13,3340           20220                                    15D                                   #        OF 128 CSECS.
000743: 13,3341           40006                           PUSH     BOV
000744: 13,3342           27367                                    MAXDT
000745: 13,3343           50021                           BDSU     BMN
000746: 13,3344           27441                                    DT/2MAX
000747: 13,3345           27367                                    MAXDT
000748: 13,3346           45345        DT/2COMP           DLOAD    DSU
000749: 13,3347           01101                                    TDEC
000750: 13,3350           01517                                    TET
000751: 13,3351           54234                           RTB      SL
000752: 13,3352           45544                                    SGNAGREE
000753: 13,3353           20211                                    8D
000754: 13,3354           02314                           STORE    DT/2                                  #  B-19
000755: 13,3355           51400                           BOV      ABS
000756: 13,3356           27373                                    GETMAXDT
000757: 13,3357           50025                           DSU      BMN                                   #  IS TIME TO INTEG. TO GR THAN MAXTIME
000758: 13,3360           00015                                    12D
000759: 13,3361           27377                                    P00HCHK
000760: 13,3362           75345        USEMAXDT           DLOAD    SIGN
000761: 13,3363           00015                                    12D
000762: 13,3364           02314                                    DT/2


000764: 13,3365           36314                           STCALL   DT/2
000765: 13,3366           27377                                    P00HCHK
000766: 13,3367           65345        MAXDT              DLOAD    PDDL                                  #  EXCHANGE DT/2MAX WITH COMPUTED MAX.
000767: 13,3370           27441                                    DT/2MAX
000768: 13,3371           77650                           GOTO
000769: 13,3372           27346                                    DT/2COMP
000770: 13,3373           77634        GETMAXDT           RTB
000771: 13,3374           45712                                    SIGNMPAC
000772: 13,3375           36314                           STCALL   DT/2
000773: 13,3376           27362                                    USEMAXDT
000774: 13,3377           51545        P00HCHK            DLOAD    ABS
000775: 13,3400           02314                                    DT/2
000776: 13,3401           50025                           DSU      BMN
000777: 13,3402           27437                                    DT/2MIN
000778: 13,3403           27176                                    A-PCHK
000779: 13,3404           46135                           SLOAD    BHIZ
000780: 13,3405           01012                                    MODREG
000781: 13,3406           27411                                    +3
000782: 13,3407           77650                           GOTO
000783: 13,3410           23240                                    TIMESTEP
000784: 13,3411           77614                           BON                                            #  WAS THIS CALL VIA CSM(LEM)PREC
000785: 13,3412           01707                                    PRECIFLG
000786: 13,3413           23240                                    TIMESTEP                              #  YES
000787: 13,3414           45345                           DLOAD    DSU
000788: 13,3415           02314                                    DT/2
000789: 13,3416           00015                                    12D
000790: 13,3417           43040                           BMN      BOFCLR
000791: 13,3420           27176                                    A-PCHK
000792: 13,3421           04242                                    NEWIFLG
000793: 13,3422           23240                                    TIMESTEP
000794: 13,3423           45345                           DLOAD    DSU
000795: 13,3424           01101                                    TDEC
000796: 13,3425           01517                                    TET
000797: 13,3426           77640                           BMN                                            #  NO BACKWARD INTEGRATION
000798: 13,3427           27253                                    INTEXIT
000799: 13,3430           40525                           PDDL     SR4
000800: 13,3431           02314                                    DT/2                                  #  IS 4(DT) LS (TDEC - TET)
000801: 13,3432           44322                           SR2R     BDSU                                  #  NO
000802: 13,3433           52040                           BMN      GOTO
000803: 13,3434           27253                                    INTEXIT
000804: 13,3435           23240                                    TIMESTEP
000805: 13,3436           00000 01400  DT/2MIN            2DEC     3          B-20
000806:
000807: 13,3440           14152 00000  DT/2MAX            2DEC     4000       E2         B-20
000808:
000809: 13,3442           77776        INTSTALL           EXIT
000810: 13,3443           35021                           CAF      ZERO
000811: 13,3444           54001        ALLSTALL           TS       L
000812: 13,3445           30106                           CA       RASFLAG
000813: 13,3446           50001                           INDEX    L


000815: 13,3447           73540                           MASK     INTBITAB                              #  IS THIS STALL AREA FREE
000816: 13,3450           00006                           EXTEND
000817: 13,3451           13516                           BZF      OKTOGRAB                              #  YES
000818: 13,3452           50001                           INDEX    L
000819: 13,3453           33535                           CAF      WAKESTAL
000820: 13,3454           05175                           TC       JOBSLEEP
000821: 13,3455           77776        INTWAKE0           EXIT
000822: 13,3456           13477                           TCF      INTWAKE1
000823:
000824: 13,3457           40106        INTWAKE            CS       RASFLAG                               #  IS THIS INTSTALLED ROUTINE TO BE
000825: 13,3460           75011                           MASK     REINTBIT                              #        RESTARTED
000826: 13,3461           10000                           CCS      A
000827: 13,3462           03477                           TC       INTWAKE1                              #  NO
000828:
000829: 13,3463           50120                           INDEX    FIXLOC
000830: 13,3464           30052                           CA       QPRET
000831: 13,3465           55055                           TS       TBASE2                                #  YES, DONT RESTART WITH SOMEONE ELSES Q
000832:
000833: 13,3466           05412                           TC       PHASCHNG
000834: 13,3467           04022                           OCT      04022
000835:
000836: 13,3470           31055                           CA       TBASE2
000837: 13,3471           50120                           INDEX    FIXLOC
000838: 13,3472           54052                           TS       QPRET
000839:
000840: 13,3473           35011                           CAF      REINTBIT
000841: 13,3474           70106                           MASK     RASFLAG
000842: 13,3475           00006                           EXTEND
000843: 13,3476           13521                           BZF      GOBAC                                 #  DONT INTWAKE IF WE CAME HERE VIA RESTART
000844:
000845: 13,3477           35021        INTWAKE1           CAF      ZERO
000846: 13,3500           54154        WAKE               TS       STALTEM                               #  INDEX OF ANY STALL USER
000847: 13,3501           50154        WAKE1              INDEX    STALTEM
000848: 13,3502           33535                           CAF      WAKESTAL
000849: 13,3503           00004                           INHINT
000850: 13,3504           05201                           TC       JOBWAKE
000851: 13,3505           10064                           CCS      LOCCTR
000852: 13,3506           13501                           TCF      WAKE1                                 #  MAY BE MORE TO WAKE UP
000853: 13,3507           00051        FORTYONE           DEC      41         B-14
000854: 13,3510           50154                           INDEX    STALTEM
000855: 13,3511           43540                           CS       INTBITAB
000856: 13,3512           70106                           MASK     RASFLAG
000857: 13,3513           54106                           TS       RASFLAG                               #  RELEASE STALL AREA
000858: 13,3514           00003                           RELINT
000859: 13,3515           13521                           TCF      GOBAC
000860: 13,3516           50001        OKTOGRAB           INDEX    L                                     #  NO, WAIT UNTIL AVAILABLE
000861: 13,3517           35002                           CAF      INTFLBIT
000862: 13,3520           26106                           ADS      RASFLAG
000863: 13,3521           06006        GOBAC              TC       INTPRET
000864: 13,3522           77616                           RVQ


000866: 13,3523           77776        ERASTAL1           EXIT
000867: 13,3524           35017                           CAF      ONE
000868: 13,3525           13444                           TCF      ALLSTALL
000869: 13,3526           77776        ERASTAL2           EXIT
000870: 13,3527           35016                           CAF      TWO
000871: 13,3530           13444                           TCF      ALLSTALL
000872: 13,3531           35017        ERASWAK1           CAF      ONE
000873: 13,3532           13500                           TCF      WAKE
000874: 13,3533           35016        ERASWAK2           CAF      TWO
000875: 13,3534           13500                           TCF      WAKE
000876: 13,3535           27443        WAKESTAL           CADR     INTSTALL   +1
000877: 13,3536           27524                           CADR     ERASTAL1   +1
000878: 13,3537           27527                           CADR     ERASTAL2   +1
000879: 13,3540     0154               STALTEM            EQUALS   MPAC
000880: 13,3540           20100        INTBITAB           OCT      20100
000881: 13,3541           10040                           OCT      10040
000882: 13,3542           04020                           OCT      04020
000883:


000885:                                                                                                  #  AVETOMID
000886:
000887:                                                                                                  #  THIS ROUTINE PERFORMS THE TRANSITION FROM A THRUSTING PHASE TO THE COAST
000888:                                                                                                  #  PHASE BY INITIALIZING THIS VEHICLES PERMANENT STATE VECTOR WITH THE
000889:                                                                                                  #  VALUES LEFT BY THE AVERAGEG ROUTINE IN RN,VN,PIPTIME.
000890:
000891:                                                                                                  #  BEFORE THIS IS DONE THE W-MATRIX, IF ITS VALID (ORWFLAG OR RENDWFLG IS
000892:                                                                                                  #  SET) IS INTEGRATED FORWARD TO PIPTIME WITH THE PRE-THRUST STATE VECTOR.
000893:
000894:                                                                                                  #  IN ADDITION, THE OTHER VEHICLE IS INTEGRATED (PERMANENT) TO PIPTIME.
000895:
000896:                                                                                                  #  FINALLY TRKMKCNT IS ZEROED
000897:
000898: 35,2000                                           SETLOC   INTINIT2
000899: 35,2000                                           BANK
000900:
000901: 35,3675                                           COUNT*   $$/INTIN
000902: 35,3675           43020        AVETOMID           STQ      BON
000903: 35,3676           02317                                    EGRESS
000904: 35,3677           02716                                    RENDWFLG
000905: 35,3700           73753                                    INT/W                                 #  W-MATRIX VALID, GO INTEGRATE IT
000906: 35,3701           77614                           BON
000907: 35,3702           01711                                    ORBWFLAG
000908: 35,3703           73753                                    INT/W                                 #  W-MATRIX VALID, GO INTEGRATE IT
000909:
000910: 35,3704           45174        SETCOAST           AXT,2    CALL                                  #  NOW MOVE PROPERLY SCALED RN,VN AND
000911: 35,3705           00002                                    2                                     #  PIPTIME TO INTEGRATION ERASABLES.
000912: 35,3706           27442                                    INTSTALL
000913: 35,3707           77014                           BON      AXT,2
000914: 35,3710           00315                                    AMOONFLG
000915: 35,3711           73713                                    +2
000916: 35,3712           00000                                    0
000917: 35,3713           53775                           VLOAD    VSR*
000918: 35,3714           01171                                    RN
000919: 35,3715           57176                                    0,2
000920: 35,3716           01503                           STORE    RRECT
000921: 35,3717           15535                           STODL    RCV
000922: 35,3720           01205                                    PIPTIME
000923: 35,3721           25517                           STOVL    TET
000924: 35,3722           01177                                    VN
000925: 35,3723           45057                           VSR*     CALL
000926: 35,3724           57176                                    0,2
000927: 35,3725           23435                                    MINIRECT                              #  FINISH SETTING UP STATE VECTOR
000928: 35,3726           66234                           RTB      SSP
000929: 35,3727           26720                                    MOVATHIS                              #  PUT TEMP STATE VECTOR INTO PERMANENT
000930: 35,3730           01127                                    TRKMKCNT
000931: 35,3731           00000                                    0
000932: 35,3732           43014                           SET      BON
000933: 35,3733           04063                                    CMOONFLG


000935: 35,3734           00315                                    AMOONFLG
000936: 35,3735           73740                                    +3
000937: 35,3736           77614                           CLEAR
000938: 35,3737           04263                                    CMOONFLG
000939:
000940: 35,3740           71214                           BON      DLOAD                                 #  NOW DO LM
000941: 35,3741           04307                                    SURFFLAG
000942: 35,3742           75751                                    FAZAB5                                #  NO COASTING LM
000943: 35,3743           01205                                    PIPTIME
000944: 35,3744           34041                           STCALL   TDEC1
000945: 35,3745           26670                                    SETIFLGS
000946: 35,3746           45014                           CLEAR    CALL
000947: 35,3747           01674                                    VINTFLAG
000948: 35,3750           27162                                    INTEGRV
000949: 35,3751           77650                           GOTO
000950: 35,3752           02317                                    EGRESS
000951: 35,3753           45145        INT/W              DLOAD    CALL
000952: 35,3754           01205                                    PIPTIME                               #  INTEGRATE W THRU BURN
000953: 35,3755           27442                                    INTSTALL
000954: 35,3756           43014                           SET      SET
000955: 35,3757           01476                                    DIM0FLAG                              #  DO W-MATRIX
000956: 35,3760           04476                                    AVEMIDSW                              #  SO WONT CLOBBER RN,VN,PIPTIME
000957: 35,3761           43014                           CLEAR    SET
000958: 35,3762           01675                                    D6OR9FLG
000959: 35,3763           01474                                    VINTFLAG
000960: 35,3764           34041                           STCALL   TDEC1
000961: 35,3765           27162                                    INTEGRV
000962: 35,3766           77650                           GOTO
000963: 35,3767           73704                                    SETCOAST
000964:


000966:                                                                                                  #  MIDTOAV1
000967:
000968:                                                                                                  #  THIS ROUTINE INTEGRATES (PRECISION) TO THE TIME SPECIFIED IN TDEC1.
000969:                                                                                                  #  IF, AT THE END OF AN INTEGRATION TIME STEP, CURRENT TIME PLUS A DELTA
000970:                                                                                                  #  TIME (SEE TIMEDELT.....BASED ON THE COMPUTATUON TIME FOR ONE TIME STEP)
000971:                                                                                                  #  IS GREATER THAN THE DESIRED TIME, ALARM 1703 IS SET AND THE INTEGRATION
000972:                                                                                                  #  IS DONE AS IT IS FOR MIDTOAV2.
000973:                                                                                                  #  RETURN IS IN BASIC TO THE RETURN ADDRESS PLUS ONE.
000974:
000975:                                                                                                  #  IF THE INTEGRATION IS FINISHED TO THE DESIRED TIME, RETURN IS IN BASIC
000976:                                                                                                  #  TO THE RETURN ADDRESS
000977:
000978:                                                                                                  #  IN EITHER CASE, BEFORE RETURNING, THE EXTRAPOLATED STATE VECTOR IS TRAN
000979:                                                                                                  #  FERRED FROM R,VATT TO R,VN1-PIPTIME1 IS SET TO THE FINISHING INTEGRA-
000980:                                                                                                  #  TION TIME AND MPAC IS SET TO THE DELTA TIME---
000981:                                                                                                  #                                    TAT MINUS CURRENT TIME.
000982:
000983:                                                                                                  #  MIDTOAV2
000984:
000985:                                                                                                  #  THIS ROUTINE INTEGRATES THE CSM STATE VECTOR TO CURRENT TIME PLUS
000986:                                                                                                  #  INCREMENTS OF TIMEDELT SUCH THAT THE DIFFERENCE BETWEEN CURRENT TIME
000987:                                                                                                  #  AND THE STATE VECTOR TIME AT THE END OF THE LAST STEP IS AT LEAST 5.6
000988:                                                                                                  #  SECS.
000989:                                                                                                  #  NO INPUTS ARE REQUIRED OF THE CALLER.  RETURN IS IN BASIC TO THE RETURN
000990:                                                                                                  #  ADDRESS WITH THE ABOVE TRANSFERS TO R,VN1-PIPTIME1-AND MPAC DONE
000991:
000992: 13,2000                                           SETLOC   INTINIT
000993: 13,2000                                           BANK
000994: 13,3543     1127                                  EBANK=   IRETURN1
000995: 13,3543           45020        MIDTOAV2           STQ      CALL
000996: 13,3544           01127                                    IRETURN1
000997: 13,3545           27442                                    INTSTALL
000998: 13,3546           43145                           DLOAD    CLEAR
000999: 13,3547           27711                                    TIMEDELT
001000: 13,3550           04674                                    MID1FLAG
001001: 13,3551           37732                           STCALL   T-TO-ADD
001002: 13,3552           27567                                    ENTMID2
001003:
001004: 13,3553           45020        MIDTOAV1           STQ      CALL
001005: 13,3554           01127                                    IRETURN1
001006: 13,3555           27442                                    INTSTALL
001007: 13,3556           47014                           SET      RTB
001008: 13,3557           04474                                    MID1FLAG
001009: 13,3560           45510                                    LOADTIME
001010: 13,3561           44215                           DAD      BDSU                                  #  INITIAL CHECK, IS TDEC1 IN THE FUTURE.
001011: 13,3562           27711                                    TIMEDELT
001012: 13,3563           00041                                    TDEC1
001013: 13,3564           45044                           BPL      CALL
001014: 13,3565           27573                                    ENTMID1


001016: 13,3566           27674                                    NOTIME                                #  NO SET ALARM.SWITCH TO MIDTOAV2
001017:
001018: 13,3567           43234        ENTMID2            RTB      DAD
001019: 13,3570           45510                                    LOADTIME
001020: 13,3571           03732                                    T-TO-ADD
001021: 13,3572           00041                           STORE    TDEC1
001022:
001023: 13,3573           45014        ENTMID1            CLEAR    CALL
001024: 13,3574           01676                                    DIM0FLAG                              #  NO W-MATRIX
001025: 13,3575           26034                                    THISVINT
001026: 13,3576           43014                           CLEAR    SET
001027: 13,3577           01673                                    INTYPFLG
001028: 13,3600           04475                                    MIDAVFLG                              #  LET INTEG. KNOW THE CALL IS FOR MIDTOAV.
001029: 13,3601           77624                           CALL
001030: 13,3602           27162                                    INTEGRV                               #  GO INTEGRATE
001031: 13,3603           66134                           SXA,2    SXA,1
001032: 13,3604           03746                                    RTX2
001033: 13,3605           03745                                    RTX1
001034: 13,3606           67214                           CLEAR    SLOAD
001035: 13,3607           00275                                    AMOONFLG
001036: 13,3610           03747                                    RTX2
001037: 13,3611           43054                           BZE      SET
001038: 13,3612           27614                                    +2
001039: 13,3613           00075                                    AMOONFLG
001040: 13,3614           77775                           VLOAD
001041: 13,3615           00001                                    RATT
001042: 13,3616           25232                           STOVL    RN1
001043: 13,3617           00007                                    VATT
001044: 13,3620           15240                           STODL    VN1
001045: 13,3621           00015                                    TAT
001046: 13,3622           01246                           STORE    PIPTIME1
001047: 13,3623           77776                           EXIT
001048:
001049: 13,3624           00004                           INHINT
001050: 13,3625           00006                           EXTEND
001051: 13,3626           40025                           DCS      TIME2
001052: 13,3627           20155                           DAS      MPAC
001053: 13,3630           07226                           TC       TPAGREE
001054:
001055: 13,3631           31127                           CA       IRETURN1
001056: 13,3632           04704                           TC       BANKJUMP
001057: 13,3633           47014        CKMID2             BOF      RTB
001058: 13,3634           04754                                    MID1FLAG
001059: 13,3635           27652                                    MID2
001060: 13,3636           45510                                    LOADTIME
001061: 13,3637           44215                           DAD      BDSU
001062: 13,3640           27711                                    TIMEDELT
001063: 13,3641           01101                                    TDEC
001064: 13,3642           45044                           BPL      CALL
001065: 13,3643           27305                                    TESTLOOP                              #  YES


001067: 13,3644           27674                                    NOTIME
001068:
001069: 13,3645           43234        TIMEINC            RTB      DAD
001070: 13,3646           45510                                    LOADTIME
001071: 13,3647           03732                                    T-TO-ADD
001072: 13,3650           35101                           STCALL   TDEC
001073: 13,3651           27305                                    TESTLOOP
001074:
001075: 13,3652           45345        MID2               DLOAD    DSU
001076: 13,3653           01101                                    TDEC
001077: 13,3654           01517                                    TET
001078: 13,3655           45246                           ABS      DSU
001079: 13,3656           27707                                    3CSECS
001080: 13,3657           77644                           BPL
001081: 13,3660           27645                                    TIMEINC
001082:
001083: 13,3661           44234                           RTB      BDSU                                  #  SEE IF 5.6 SECS. AVAILABLE TO CALLER.
001084: 13,3662           45510                                    LOADTIME
001085: 13,3663           01517                                    TET
001086: 13,3664           51025                           DSU      BPL
001087: 13,3665           27713                                    5.6SECS
001088: 13,3666           27176                                    A-PCHK                                #  YES. GET OUT.
001089:
001090: 13,3667           43345                           DLOAD    DAD                                   #  NO. ADD TIMEDELT TO T-TO-ADD AND TRY
001091: 13,3670           03732                                    T-TO-ADD                              #  AGAIN.
001092: 13,3671           27711                                    TIMEDELT
001093: 13,3672           37732                           STCALL   T-TO-ADD
001094: 13,3673           27645                                    TIMEINC
001095: 13,3674           77414        NOTIME             CLEAR    EXIT                                  #  TOO LATE
001096: 13,3675           04674                                    MID1FLAG
001097: 13,3676           25127                           INCR     IRETURN1                              #  SET ERROR EXIT (CALLOC +2)
001098: 13,3677           05650                           TC       ALARM                                 #  INSUFFICIENT TIME FOR INTEGRATION --
001099: 13,3700           01703                           OCT      1703                                  #        TIG WILL BE SLIPPED...
001100: 13,3701           06006                           TC       INTPRET
001101: 13,3702           77745                           DLOAD
001102: 13,3703           27711                                    TIMEDELT
001103: 13,3704           03732                           STORE    T-TO-ADD
001104: 13,3705           77616                           RVQ
001105:
001106: 13,3706           00000 00003  3CSECS             2DEC     3          B-28
001107:
001108: 13,3710           00000 02342  TIMEDELT           2DEC     1250       B-28
001109:
001110: 13,3712           00000 01060  5.6SECS            2DEC     560        B-28
001111:
001112: 27,2671                                           BANK     27
001113: 27,2000                                           SETLOC   UPDATE2
001114: 27,2000                                           BANK
001115: 27,2671     0330                                  EBANK=   INTWAKUQ
001116:


001118: 27,2671                                           COUNT*   $$/INTIN
001119:
001120: 27,2671     0330               INTWAKUQ           =        INTWAK1Q                              #  TEMPORARY UNTIL NAME OF INTWAK1Q IS CHNG
001121:
001122: 27,2671           00003        INTWAKEU           RELINT
001123: 27,2672           00006                           EXTEND
001124: 27,2673           22330                           QXCH     INTWAKUQ                              #  SAVE Q FOR RETURN
001125:
001126: 27,2674           06006                           TC       INTPRET
001127:
001128: 27,2675           53135                           SLOAD    BZE                                   #  IS THIS A CSM/LEM STATE VECTOR UPDATE
001129: 27,2676           01502                                    UPSVFLAG                              #  REQUEST.  IF NOT GO TO INTWAKUP.
001130: 27,2677           56736                                    INTWAKUP
001131:
001132: 27,2700           77775                           VLOAD                                          #  MOVE RRECT(6) AND VRECT(6) INTO
001133: 27,2701           01503                                    RRECT                                 #        RCV(6) AND VCV(6) RESPECTIVELY.
001134: 27,2702           25535                           STOVL    RCV
001135: 27,2703           01511                                    VRECT                                 #  NOW GO TO 'RECTIFY +13D' TO
001136: 27,2704           77624                           CALL                                           #  STORE VRECT INTO VCV AND ZERO OUT
001137: 27,2705           23436                                    RECTIFY    +13D                       #  TDELTAV(6),TNUV(6),TC(2) AND XKEP(2)
001138: 27,2706           51535                           SLOAD    ABS                                   #  COMPARE ABSOLUTE VALUE OF 'UPSVFLAG'
001139: 27,2707           01502                                    UPSVFLAG                              #  TO 'UPDATE MOON STATE VECTOR CODE'
001140: 27,2710           53025                           DSU      BZE                                   #  TO DETERMINE WHETHER THE STATE VECTOR TO
001141: 27,2711           16747                                    UPMNSVCD                              #  BE UPDATED IS IN THE EARTH OR LUNAR
001142: 27,2712           56717                                    INTWAKEM                              #  SPHERE OF INFLUENCE.........
001143: 27,2713           43174                           AXT,2    CLRGO                                 #  EARTH SPHERE OF INFLUENCE.
001144: 27,2714           00000                           DEC      0          B-14
001145: 27,2715           00223                                    MOONFLAG
001146: 27,2716           56722                                    INTWAKEC
001147: 27,2717           43174        INTWAKEM           AXT,2    SET                                   #  LUNAR SPHERE OF INFLUENCE.
001148: 27,2720           00002                           DEC      2          B-14
001149: 27,2721           00063                                    MOONFLAG
001150: 27,2722           50135        INTWAKEC           SLOAD    BMN                                   #  COMMON CODING AFTER X2 INITIALIZED AND
001151:                                                                                                  #  MOONFLAG SET (OR CLEARED).
001152: 27,2723           01502                                    UPSVFLAG                              #  IS THIS A REQUEST FOR A LEM OR CSM
001153: 27,2724           56732                                    INTWAKLM                              #        STATE VECTOR UPDATE......
001154: 27,2725           77624                           CALL                                           #  UPDATE CSM STATE VECTOR
001155: 27,2726           26705                                    ATOPCSM
001156:
001157: 27,2727           52014                           CLEAR    GOTO
001158: 27,2730           01671                                    ORBWFLAG
001159: 27,2731           56734                                    INTWAKEX
001160:
001161: 27,2732           77624        INTWAKLM           CALL                                           #  UPDATE LM STATE VECTOR
001162: 27,2733           26760                                    ATOPLEM
001163:
001164: 27,2734           77614        INTWAKEX           CLEAR
001165: 27,2735           02676                                    RENDWFLG
001166:
001167: 27,2736           45131        INTWAKUP           SSP      CALL                                  #  REMOVE :UPDATE STATE VECTOR INDICATOR:


001169: 27,2737           01502                                    UPSVFLAG
001170: 27,2740           00000                                    0
001171: 27,2741           27455                                    INTWAKE0                              #  RELEASE :GRAB: OF ORBIT INTEG
001172: 27,2742           77776                           EXIT
001173:
001174: 27,2743           05412                           TC       PHASCHNG
001175: 27,2744           04026                           OCT      04026
001176: 27,2745           00330                           TC       INTWAKUQ
001177:
001178: 27,2746           00002        UPMNSVCD           OCT      2
001179: 27,2747           00000                           OCT      0
001180:
001181: 27,2750           77420        GRP2PC             STQ      EXIT
001182: 27,2751           03536                                    GRP2SVQ
001183: 27,2752           05412                           TC       PHASCHNG
001184: 27,2753           04022                           OCT      04022
001185: 27,2754           06006                           TC       INTPRET
001186: 27,2755           77650                           GOTO
001187: 27,2756           03536                                    GRP2SVQ
001188:
001189:
001190:

End of include-file INTEGRATION_INITIALIZATION.agc.  Parent file is MAIN.agc


