
Source Code


000002:                                                                                                  ## Copyright:   Public domain.
000003:                                                                                                  ## Filename:    INTER-BANK_COMMUNICATION.agc
000004:                                                                                                  ## Purpose:     Part of the source code for Comanche, build 055. It
000005:                                                                                                  ##              is part of the source code for the Command Module's
000006:                                                                                                  ##              (CM) Apollo Guidance Computer (AGC), Apollo 11.
000007:                                                                                                  ## Assembler:   yaYUL
000008:                                                                                                  ## Reference:   pp. 1103-1106
000009:                                                                                                  ## Contact:     Ron Burkey <info@sandroid.org>
000010:                                                                                                  ## Website:     http://www.ibiblio.org/apollo.
000011:                                                                                                  ## Mod history: 2009-05-08 RSB  Adapted from Colossus249/ file of same name
000012:                                                                                                  ##                              and page images. Corrected various typos
000013:                                                                                                  ##                              in the transcription of program comments,
000014:                                                                                                  ##                              and these should be back-ported to
000015:                                                                                                  ##                              Colossus249.
000016:                                                                                                  ##              2011-05-08 JL   Removed workaround.
000017:                                                                                                  ##              2016-12-21 RSB  Proofed comment text using octopus/ProoferComments
000018:                                                                                                  ##                              and corrected the errors found.
000019:                                                                                                  ##              2017-01-14 RSB  Corrected comment-text errors located while diff'ing
000020:                                                                                                  ##                              against Colossus 249.
000021:
000022:                                                                                                  ## The contents of the "Comanche055" files, in general, are transcribed
000023:                                                                                                  ## from scanned documents.
000024:                                                                                                  ##
000025:                                                                                                  ##       Assemble revision 055 of AGC program Comanche by NASA
000026:                                                                                                  ##       2021113-051.  April 1, 1969.
000027:                                                                                                  ##
000028:                                                                                                  ##       This AGC program shall also be referred to as Colossus 2A
000029:                                                                                                  ##
000030:                                                                                                  ##       Prepared by
000031:                                                                                                  ##                       Massachusetts Institute of Technology
000032:                                                                                                  ##                       75 Cambridge Parkway
000033:                                                                                                  ##                       Cambridge, Massachusetts
000034:                                                                                                  ##
000035:                                                                                                  ##       under NASA contract NAS 9-4065.
000036:                                                                                                  ##
000037:                                                                                                  ## Refer directly to the online document mentioned above for further
000038:                                                                                                  ## information.  Please report any errors to info@sandroid.org.
000039:


000041:                                                                                                  #  THE FOLLOWING ROUTINE CAN BE USED TO CALL A SUBROUTINE IN ANOTHER BANK. IN THE BANKCALL VERSION, THE
000042:                                                                                                  #  CADR OF THE SUBROUTINE IMMEDIATELY FOLLOWS THE TC BANKCALL INSTRUCTION, WITH C(A) AND C(L) PRESERVED.
000043:
000044:    4662                                           BLOCK    02
000045:    4662                                           COUNT    02/BANK
000046:
000047:    4662           52134        BANKCALL           DXCH     BUF2                                  #  SAVE INCOMING A,L.
000048:    4663           50002                           INDEX    Q                                     #  PICK UP CADR.
000049:    4664           30000                           CA       0
000050:    4665           24002                           INCR     Q                                     #  SO WE RETURN TO THE LOC. AFTER THE CADR.
000051:
000052:                                                                                                  #  SWCALL IS  IDENTICAL TO BANKCALL, EXCEPT THAT THE CADR ARRIVES IN A.
000053:
000054:    4666           54001        SWCALL             TS       L
000055:    4667           22004                           LXCH     FBANK                                 #  SWITCH BANKS, SAVING RETURN.
000056:    4670           75054                           MASK     LOW10                                 #  GET SUB-ADDRESS OF CADR.
000057:    4671           56002                           XCH      Q                                     #  A,L NOW CONTAINS DP RETURN.
000058:    4672           52134                           DXCH     BUF2                                  #  RESTORING INPUTS IF THIS IS A BANKCALL.
000059:    4673           50002                           INDEX    Q
000060:    4674           02000                           TC       10000                                 #  SETTING Q TO SWRETURN.
000061:
000062:    4675           56134        SWRETURN           XCH      BUF2       +1                         #  COMES HERE TO RETURN TO CALLER. C(A,L)
000063:    4676           56004                           XCH      FBANK                                 #  ARE PRESERVED FOR RETURN.
000064:    4677           56134                           XCH      BUF2       +1
000065:    4700           00133                           TC       BUF2
000066:
000067:                                                                                                  #  THE FOLLOWING ROUTINE CAN BE USED AS A UNILATERAL JUMP WITH C(A,L) PRESERVED AND THE CADR IMMEDIATELY
000068:                                                                                                  #  FOLLOWING THE TC POSTJUMP INSTRUCTION.
000069:
000070:    4701           56002        POSTJUMP           XCH      Q                                     #  SAVE INCOMING C(A).
000071:    4702           50000                           INDEX    A                                     #  GET CADR.
000072:    4703           30000                           CA       0
000073:
000074:                                                                                                  #  BANKJUMP IS THE SAME AS POSTJUMP, EXCEPT THAT THE CADR ARRIVES IN A.
000075:
000076:    4704           54004        BANKJUMP           TS       FBANK
000077:    4705           75054                           MASK     LOW10
000078:    4706           56002                           XCH      Q                                     #  RESTORING INPUT C(A) IF THIS WAS A
000079:    4707           50002        Q+10000            INDEX    Q                                     #  POSTJUMP.
000080:    4710           12000        PRIO12             TCF      10000                                 #  PRIO12 = TCF  10000 = 12000
000081:


000083:                                                                                                  #  THE FOLLOWING ROUTINE GETS THE RETURN CADR SAVED BY SWCALL OR BANKCALL AND LEAVES IT IN A.
000084:
000085:    4711           35054        MAKECADR           CAF      LOW10
000086:    4712           70133                           MASK     BUF2
000087:    4713           60134                           AD       BUF2       +1
000088:    4714           00002                           TC       Q
000089:
000090:    4715           54135        SUPDACAL           TS       MPTEMP
000091:    4716           56004                           XCH      FBANK                                 #  SET FBANK FOR DATA.
000092:    4717           00006                           EXTEND
000093:    4720           04007                           ROR      SUPERBNK                              #  SAVE FBANK IN BITS 15-11, AND
000094:    4721           56135                           XCH      MPTEMP                                #  SUPERBANK IN BITS 7-5.
000095:    4722           75054                           MASK     LOW10
000096:    4723           56001                           XCH      L                                     #  SAVE REL. ADR. IN BANK, FETCH SUPERBITS.
000097:    4724           00004                           INHINT                                         #  BECAUSE RUPT DOES NOT SAVE SUPERBANK.
000098:    4725           00006                           EXTEND
000099:    4726           01007                           WRITE    SUPERBNK                              #  SET SUPERBANK FOR DATA.
000100:    4727           50001                           INDEX    L
000101:    4730           32000                           CA       10000                                 #  PINBALL (FIX MEM DISP) PREVENTS DCA HERE
000102:    4731           56135                           XCH      MPTEMP                                #  SAVE 1ST WD, FETCH OLD FBANK AND SBANK.
000103:    4732           00006                           EXTEND
000104:    4733           01007                           WRITE    SUPERBNK                              #  RESTORE SUPERBANK.
000105:    4734           00003                           RELINT
000106:    4735           54004                           TS       FBANK                                 #  RESTORE FBANK.
000107:    4736           30135                           CA       MPTEMP                                #  RECOVER FIRST WORD OF DATA.
000108:    4737           00002                           RETURN                                         #  24 WDS. DATACALL 516 MU, SUPDACAL 432 MU
000109:


000111:                                                                                                  #  THE FOLLOWING ROUTINES ARE IDENTICAL TO BANKCALL AND SWCALL EXCEPT THAT THEY ARE USED IN INTERRUPT.
000112:
000113:    4740           52073        IBNKCALL           DXCH     RUPTREG3                              #  USES RUPTREG3,4 FOR DP RETURN ADDRESS.
000114:    4741           50002                           INDEX    Q
000115:    4742           30000                           CAF      0
000116:    4743           24002                           INCR     Q
000117:
000118:    4744           54001        ISWCALL            TS       L
000119:    4745           22004                           LXCH     FBANK
000120:    4746           75054                           MASK     LOW10
000121:    4747           56002                           XCH      Q
000122:    4750           52073                           DXCH     RUPTREG3
000123:    4751           50002                           INDEX    Q
000124:    4752           02000                           TC       10000
000125:
000126:    4753           56073        ISWRETRN           XCH      RUPTREG4
000127:    4754           56004                           XCH      FBANK
000128:    4755           56073                           XCH      RUPTREG4
000129:    4756           00072                           TC       RUPTREG3
000130:
000131:                                                                                                  #  2. USPRCADR ACCESSES INTERPRETIVE CODING IN OTHER THAN THE USER'S FBANK.  THE CALLING SEQUENCE IS AS FOLLOWS:
000132:                                                                                                  #        L       TC      USPRCADR
000133:                                                                                                  #        L+1     CADR    INTPRETX        INTPRETX IS THE INTERPRETIVE CODING
000134:                                                                                                  #                                        RETURN IS TO L+2
000135:
000136:    4757           54164        USPRCADR           TS       LOC                                   #  SAVE A
000137:    4760           35010                           CA       BIT8
000138:    4761           54023                           TS       EDOP                                  #  EXIT INSTRUCTION TO EDOP
000139:    4762           30006                           CA       BBANK
000140:    4763           54165                           TS       BANKSET                               #  USER'S BBANK TO BANKSET
000141:    4764           50002                           INDEX    Q
000142:    4765           30000                           CA       0
000143:    4766           54004                           TS       FBANK                                 #  INTERPRETIVE BANK TO FBANK
000144:    4767           75054                           MASK     LOW10                                 #  YIELDS INTERPRETIVE RELATIVE ADDRESS
000145:    4770           56002                           XCH      Q                                     #  INTERPRETIVE ADDRESS TO Q, FETCHING L+1
000146:    4771           56164                           XCH      LOC                                   #  L+1 TO LOC, RETRIEVING ORIGINAL A
000147:    4772           14707                           TCF      Q+10000
000148:


000150:                                                                                                  #  THERE ARE FOUR POSSIBLE SETTINGS FOR CHANNEL 07.  (CHANNEL 07 CONTAINS THE SUPERBANK SETTING.)
000151:
000152:                                                                                                  #                                        PSEUDO-FIXED     OCTAL PSEUDO
000153:                                                                                                  #  SUPERBANK     SETTING S-REG. VALUE    BANK NUMBERS     ADDRESSES
000154:                                                                                                  #  ----------    ------- ------------     ------------     ------------
000155:                                                                                                  #  SUPERBANK 3     0XX    2000 - 3777       30 - 37       70000 - 107777         (WHERE XX CAN BE ANYTHING AND
000156:                                                                                                  #                                                                                WILL USUALLY BE SEEN AS 11)
000157:                                                                                                  #  SUPERBANK 4     100    2000 - 3777       40 - 47      110000 - 127777         (AS FAR AS IT CAN BE SEEN,
000158:                                                                                                  #                                                                                ONLY BANKS 40-43 WILL EVER BE
000159:                                                                                                  #                                                                                AND ARE PRESENTLY AVAILABLE)
000160:                                                                                                  #  SUPERBANK 5     101    2000 - 3777       50 - 57      130000 - 147777         (PRESENTLY NOT AVAILABLE TO
000161:                                                                                                  #                                                                                THE USER)
000162:                                                                                                  #  SUPERBANK 6     110    2000 - 3777       60 - 67      150000 - 167777         (PRESENTLY NOT AVAILABLE TO
000163:                                                                                                  #                                                                                THE USER)
000164:                                                                                                  #  *** THIS ROUTINE MAY BE CALLED BY ANY PROGRAM LOCATED IN BANKS 00 - 27.  I.E., NO PROGRAM LIVING IN ANY
000165:                                                                                                  #  SUPERBANK SHOULD USE SUPERSW. ***
000166:
000167:                                                                                                  #  SUPERSW MAY BE CALLED IN THIS FASHION:
000168:                                                                                                  #        CAF     ABBCON          WHERE -- ABBCON  BBCON  SOMETHIN --
000169:                                                                                                  #        TCR     SUPERSW         (THE SUPERBNK BITS ARE IN THE BBCON)
000170:                                                                                                  #        ...       ...
000171:                                                                                                  #         .         .
000172:                                                                                                  #         .         .
000173:                                                                                                  #  OR IN THIS FASHION:
000174:                                                                                                  #        CAF     SUPERSET        WHERE SUPERSET IS ONE OF THE FOUR AVAILABLE
000175:                                                                                                  #        TCR     SUPERSW         SUPERBANK BIT CONSTANTS:
000176:                                                                                                  #        ...       ...                   SUPER011 OCTAL  60
000177:                                                                                                  #         .         .                    SUPER100 OCTAL 100
000178:                                                                                                  #         .         .                    SUPER101 OCTAL 120
000179:                                                                                                  #                                        SUPER110 OCTAL 140
000180:
000181:    4773           00006        SUPERSW            EXTEND
000182:    4774           01007                           WRITE    SUPERBNK                              #  WRITE BITS 7-6-5 OF THE ACCUMULATOR INTO
000183:                                                                                                  #  CHANNEL 07
000184:    4775           00002                           TC       Q                                     #  TC TO INSTRUCTION FOLLOWING
000185:                                                                                                  #        TC SUPERSW
000186:
000187:
000188:

End of include-file INTER-BANK_COMMUNICATION.agc.  Parent file is MAIN.agc


