
Source Code


000002:                                                                                                  ## Copyright:   Public domain.
000003:                                                                                                  ## Filename:    INTERRUPT_LEAD_INS.agc
000004:                                                                                                  ## Purpose:     Part of the source code for Comanche, build 055.
000005:                                                                                                  ##              It is part of the source code for the Command Module's (CM)
000006:                                                                                                  ##              Apollo Guidance Computer (AGC), Apollo 11.
000007:                                                                                                  ## Assembler:   yaYUL
000008:                                                                                                  ## Reference:   pp. 131-132
000009:                                                                                                  ## Contact:     Ron Burkey <info@sandroid.org>,
000010:                                                                                                  ##              Fabrizio Bernardini <fabrizio@spacecraft.it>
000011:                                                                                                  ## Website:     http://www.ibiblio.org/apollo.
000012:                                                                                                  ## Mod history: 09/05/09 FB     Transcription of Batch FB-1 Assignment.
000013:                                                                                                  ##
000014:                                                                                                  ## The contents of the "Comanche055" files, in general, are transcribed
000015:                                                                                                  ## from scanned documents.
000016:                                                                                                  ##
000017:                                                                                                  ##      Assemble revision 055 of AGC program Comanche by NASA
000018:                                                                                                  ##      2021113-051.  April 1, 1969.
000019:                                                                                                  ##
000020:                                                                                                  ##      This AGC program shall also be referred to as Colossus 2A
000021:                                                                                                  ##
000022:                                                                                                  ##      Prepared by
000023:                                                                                                  ##                      Massachusetts Institute of Technology
000024:                                                                                                  ##                      75 Cambridge Parkway
000025:                                                                                                  ##                      Cambridge, Massachusetts
000026:                                                                                                  ##
000027:                                                                                                  ##      under NASA contract NAS 9-4065.
000028:                                                                                                  ##
000029:                                                                                                  ## Refer directly to the online document mentioned above for further
000030:                                                                                                  ## information.  Please report any errors to info@sandroid.org.
000031:


000033:    4000                                           SETLOC   4000
000034:
000035:    4000                                           COUNT    02/RUPTS
000036:
000037:    4000           00004                           INHINT                                         #  GO
000038:    4001           34054                           CAF      GOBB
000039:    4002           56006                           XCH      BBANK
000040:    4003           12526                           TCF      GOPROG
000041:
000042:    4004           52011                           DXCH     ARUPT                                 #  T6RUPT
000043:    4005           00006                           EXTEND
000044:    4006           31311                           DCA      T6LOC
000045:    4007           52006                           DTCB
000046:
000047:    4010           52011                           DXCH     ARUPT                                 #  T5RUPT
000048:    4011           40030                           CS       TIME5
000049:    4012           65036                           AD       .5SEC
000050:    4013           14065                           TCF      T5RUPT
000051:
000052:    4014           52011                           DXCH     ARUPT                                 #  T3RUPT
000053:    4015           34055                           CAF      T3RPTBB
000054:    4016           56006                           XCH      BBANK
000055:    4017           13416                           TCF      T3RUPT
000056:
000057:    4020           52011                           DXCH     ARUPT                                 #  T4RUPT
000058:    4021           34063                           CAF      T4RPTBB
000059:    4022           56006                           XCH      BBANK
000060:    4023           12000                           TCF      T4RUPT
000061:
000062:    4024           52011                           DXCH     ARUPT                                 #  KEYRUPT1
000063:    4025           34056                           CAF      KEYRPTBB
000064:    4026           56006                           XCH      BBANK
000065:    4027           13673                           TCF      KEYRUPT1
000066:
000067:    4030           52011                           DXCH     ARUPT                                 #  KEYRUPT2
000068:    4031           34057                           CAF      MKRUPTBB
000069:    4032           56006                           XCH      BBANK
000070:    4033           12104                           TCF      MARKRUPT
000071:
000072:    4034           52011                           DXCH     ARUPT                                 #  UPRUPT
000073:    4035           34056                           CAF      UPRPTBB
000074:    4036           56006                           XCH      BBANK
000075:    4037           13716                           TCF      UPRUPT
000076:
000077:    4040           52011                           DXCH     ARUPT                                 #  DOWNRUPT
000078:    4041           34060                           CAF      DWNRPTBB
000079:    4042           56006                           XCH      BBANK
000080:    4043           13521                           TCF      DODOWNTM
000081:
000082:    4044           52011                           DXCH     ARUPT                                 #  RADAR RUPT


000084:    4045           34061                           CAF      RDRPTBB
000085:    4046           56006                           XCH      BBANK
000086:    4047           12504                           TCF      VHFREAD
000087:
000088:    4050           52011                           DXCH     ARUPT                                 #  HAND CONTROL RUPT
000089:    4051           34062                           CAF      HCRUPTBB
000090:    4052           56006                           XCH      BBANK
000091:    4053           15336                           TCF      RESUME     +3                         #  NOT USED
000092:
000093:    4054  E3,1400                                  EBANK=   LST1                                  #  RESTART USES E0,E3
000094:    4054           12063        GOBB               BBCON    GOPROG
000095:
000096:    4055  E3,1400                                  EBANK=   LST1
000097:    4055           02063        T3RPTBB            BBCON    T3RUPT
000098:
000099:    4056     0073                                  EBANK=   KEYTEMP1
000100:    4056           16060        KEYRPTBB           BBCON    KEYRUPT1
000101:
000102:    4057  E7,1725                                  EBANK=   MRKBUF1
000103:    4057           16067        MKRUPTBB           BBCON    MARKRUPT
000104:
000105:    4060     4056               UPRPTBB            =        KEYRPTBB
000106:
000107:    4060     0340                                  EBANK=   DNTMBUFF
000108:    4060           12060        DWNRPTBB           BBCON    DODOWNTM
000109:
000110:    4061  E7,1603                                  EBANK=   DATATEST
000111:    4061           56067        RDRPTBB            BBCON    VHFREAD
000112:
000113:    4062     0025                                  EBANK=   TIME1
000114:    4062           04060        HCRUPTBB           BBCON    RESUME                                #  NOT USED
000115:
000116:    4063     1302                                  EBANK=   DSRUPTSW
000117:    4063           14062        T4RPTBB            BBCON    T4RUPT
000118:
000119:    4064     0025                                  EBANK=   TIME1
000120:    4064           04060        T5RPTBB            BBCON    T5RUPT
000121:
000122:    4065           00006        T5RUPT             EXTEND
000123:    4066           65337                           BZMF     NOQBRSM
000124:    4067           00006                           EXTEND
000125:    4070           31313                           DCA      T5LOC
000126:    4071           52006                           DTCB
000127:
000128:
000129:

End of include-file INTERRUPT_LEAD_INS.agc.  Parent file is MAIN.agc


