
Source Code
000001:                                                                                                 #  Copyright:     Public domain.
000002:                                                                                                 #  Filename:      INTEGRATION_INITIALIZATION.agc
000003:                                                                                                 #  Purpose:       Part of the source code for Colossus 2A, AKA Comanche 055.
000004:                                                                                                 #                 It is part of the source code for the Command Module's (CM)
000005:                                                                                                 #                 Apollo Guidance Computer (AGC), for Apollo 11.
000006:                                                                                                 #  Assembler:     yaYUL
000007:                                                                                                 #  Contact:       Ron Burkey <info@sandroid.org>.
000008:                                                                                                 #  Website:       www.ibiblio.org/apollo.
000009:                                                                                                 #  Pages: 1309-1333
000010:                                                                                                 #  Mod history:   2009-05-15 RSB  Adapted from the Colossus249/ file of the
000011:                                                                                                 #                                 same name, using Comanche055 page images.
000012:                                                                                                 #                 2009-05-20 RSB  Corrections:  fixed an interpreter instruction,
000013:                                                                                                 #                                 fixed a SETLOC.
000014:                                                                                                 #                 2009-05-23 RSB  In SETCOAST, corrected MOONTHIS to AMOONFLG.
000015:
000016:                                                                                                 #  This source code has been transcribed or otherwise adapted from digitized
000017:                                                                                                 #  images of a hardcopy from the MIT Museum.  The digitization was performed
000018:                                                                                                 #  by Paul Fjeld, and arranged for by Deborah Douglas of the Museum.  Many
000019:                                                                                                 #  thanks to both.  The images (with suitable reduction in storage size and
000020:                                                                                                 #  consequent reduction in image quality as well) are available online at
000021:                                                                                                 #  www.ibiblio.org/apollo.  If for some reason you find that the images are
000022:                                                                                                 #  illegible, contact me at info@sandroid.org about getting access to the
000023:                                                                                                 #  (much) higher-quality images which Paul actually created.
000024:
000025:                                                                                                 #  Notations on the hardcopy document read, in part:
000026:
000027:                                                                                                 #         Assemble revision 055 of AGC program Comanche by NASA
000028:                                                                                                 #         2021113-051.  10:28 APR. 1, 1969
000029:
000030:                                                                                                 #         This AGC program shall also be referred to as
000031:                                                                                                 #                         Colossus 2A
000032:
000033:                                                                                                 #  Page 1309
000034:                                                                                                 #  1.0 INTRODUCTION
000035:                                                                                                 #  ----------------
000036:
000037:                                                                                                 #  FROM A USER'S POINT OF VIEW, ORBITAL INTEGRATION IS ESSENTIALLY THE SAME AS THE 278 INTEGRATION
000038:                                                                                                 #  PROGRAM.  THE SAME ENTRANCES TO THE PROGRAM WILL BE MAINTAINED, THE SAME STALLING ROUTINE WILL BE USED AND
000039:                                                                                                 #  OUTPUT WILL STILL BE VIA THE PUSHLIST.  THE PRIMARY DIFFERENCES TO A USER INVOLVE THE ADDED CAPABILITY OF
000040:                                                                                                 #  TERMINATING INTEGRATION AT A SPECIFIC FINAL RADIUS AND THE DIFFERENCE IN STATE VECTOR SCALING INSIDE AND OUTSIDE
000041:                                                                                                 #  THE LUNAR SPHERE OF INFLUENCE.
000042:
000043:                                                                                                 #  IN ORDER TO MAKE THE CSM(LEM)PREC AND CSM(LEM)CONIC ENTRANCES SIMILAR TO FLIGHT 278, THE INTEGRATION PROGRAM
000044:                                                                                                 #  WILL ITSELF SET THE FINAL RADIUS (RFINAL) TO 0 SO THAT REACHING THE DESIRED TIME ONLY WILL TERMINATE
000045:                                                                                                 #  INTEGRATION.  THE DP REGISTER RFINAL MUST BE SET BY USERS OF INTEGRVS AND INTEGRV, AND MUST BE DONE AFTER THE
000046:                                                                                                 #  CALL TC INTSTALL.
000047:
000048:                                                                                                 #  WHEN THE LM IS ON THE LUNAR SURFACE (INDICATED BY LUNAR SURFACE FLAG SET) CALLS TO LEMCONIC, LEMPREC, AND
000049:                                                                                                 #  INTEGRV WITH VINFLAG = 0 WILL RESULT IN THE USE OF THE PLANETARY INERTIAL ORIENTATION SUBROUTINES TO PROVIDE
000050:                                                                                                 #  BOTH THE LM'S POSITION AND VELOCITY IN THE REFERENCE COORDINATE SYSTEM.
000051:                                                                                                 #  THE PROGRAM WILL PROVIDE OUTPUT AS IF INTEGRATION WAS USED.  THAT IS, THE PUSHLIST WILL BE SET AS NOTED BELOW AND
000052:                                                                                                 #  THE PERMANENT STATE VECTOR UPDATED WHEN SPECIFIED BY AN INTEGRV CALL.
000053:
000054:                                                                                                 #  USERS OF INTEGRVS DESIRING INTEGRATION (INTYPFLG = 0) SHOULD NOTE THAT THE OBLATENESS PERTURBATION COMPUTATION
000055:                                                                                                 #  IN LUNAR ORBIT IS TIME DEPENDENT.  THEREFORE, THE USER SHOULD SUPPLY AN INITIAL STATE VECTOR VALID AT SOME REAL
000056:                                                                                                 #  TIME AND THE DESIRED TIME (TDEC1) ALSO AT SOME REAL TIME.  FOR CONIC "INTEGRATION" THE USER MAY STILL USE ZERO
000057:                                                                                                 #  AS THE INITIAL TIME AND DELTA TIME AS THE DESIRED TIME.
000058:
000059:                                                                                                 #  2.0 CENTRAL DESCRIPTION
000060:                                                                                                 #  -----------------------
000061:
000062:                                                                                                 #  THE INTEGRATION PROGRAM OPERATES AS A CLOSED INTERPRETIVE SUBROUTINE AND PERFORMS THESE FUNCTIONS --
000063:                                                                                                 #         1) INTEGRATES (PRECISION OR CONIC) EITHER CSM OR LM STATE VECTOR
000064:                                                                                                 #         2) INTEGRATES THE W-MATRIX
000065:                                                                                                 #         3) PERMANENT OR TEMPORARY UPDATE OF THE STATE VECTOR
000066:
000067:                                                                                                 #  THERE ARE SIX ENTRANCES TO THE INTEGRATION PROGRAM.  FOUR OF THESE (CSMPREC, LEMPREC, CSMCONIC, LEMCONIC) SET
000068:                                                                                                 #  ALL THE FLAGS REQUIRED IN THE INTEGRATION PROGRAM ITSELF TO CAUSE THE PRECISION OR CONIC INTEGRATION (KEPLER) OF
000069:                                                                                                 #  THE LM OR CSM STATE VECTOR, AS THE NAMES SUGGEST.  ONE ENTRANCE (INTEGRVS) PERMITS THE CALLING PROGRAM TO
000070:                                                                                                 #  PROVIDE A STATE VECTOR TO BE INTEGRATED.  THE CALLING PROGRAM MUST SET THE FLAGS INDICATING (1) PRECISION OR
000071:                                                                                                 #  CONIC INTEGRATION, (2) IN OR OUT OF LUNAR SPHERE, (3) MIDCOURSE OR NOT, AND THE INTEGRATION PROGRAM COMPLETES
000072:                                                                                                 #  THE FLAG SETTING TO BYPASS W-MATRIX INTEGRATION.  THE LAST ENTRANCE (INTEGRV, USED IN GENERAL BY THE
000073:                                                                                                 #  NAVIGATION PROGRAMS) PERMITS THE CALLER TO SET FIVE FLAGS (NOT MOONFLAG OR MIDFLAG) BUT NOT TO INPUT A STATE
000074:                                                                                                 #  VECTOR.  ANY PROGRAM WHICH CALLS INTEGRVS OR INTEGRV MUST CALL INTSTALL BEFORE IT SETS THE INTEGRATION FLAGS
000075:                                                                                                 #  AND/OR STATE VECTOR.
000076:
000077:                                                                                                 #  THREE SETS OF 42 REGISTERS AND 2 FLAGS ARE USED FOR THE STATE VECTORS.  TWO SETS, WHICH MAY NOT BE OVERLAYED, ARE
000078:                                                                                                 #  USED FOR THE PERMANENT STATE VECTORS FOR THE CSM AND LM.  THE THIRD SET, WHICH MAY BE OVERLAYED WHEN INTEGRATION
000079:                                                                                                 #  IS NOT BEING DONE, IS USED IN THE COMPUTATIONS.
000080:
000081:                                                                                                 #  THE PERMANENT STATE VECTORS WILL BE PERIODICALLY UPDATED SO THAT THE VECTORS WILL NOT BE OLDER THAN 4 TIMESTEPS.
000082:                                                                                                 #  THE PERMANENT STATE VECTORS WILL ALSO BE UPDATED WHENEVER THE W-MATRIX IS INTEGRATED OR WHEN A CALLER OF INTEGRV
000083:                                                                                                 #  SETS STATEFLG (THE NAVIGATION PROGRAMS P20, P22.)
000084:
000085:                                                                                                 #  Page 1310
000086:                                                                                                 #  APPENDIX B OF THE USERS' GUIDE LISTS THE STATE VECTOR QUANTITIES.
000087:
000088:                                                                                                 #  2.1 RESTARTS
000089:
000090:                                                                                                 #  PHASE CHANGES WILL BE MADE IN THE INTEGRATION PROGRAM ONLY FOR THE INTEGRV ENTRANCE (I.E., WHEN THE W-MATRIX IS
000091:                                                                                                 #  INTEGRATED OR PERMANENT STATE VECTOR IS UPDATED.)  THE GROUP NUMBER USED WILL BE THAT FOR THE P20-25 PROGRAMS
000092:                                                                                                 #  (I.E., GROUP2) WINCE THE INTEGRV ENTRANCE WILL ONLY BE USED BY THESE PROGRAMS.  IF A RESTART OCCURS DURING AN
000093:                                                                                                 #  INTEGRATION OF THE STATE VECTOR ONLY, THE RECOVERY WILL BE TO THE LAST PHASE IN THE CALLING PROGRAM.  CALLING
000094:                                                                                                 #  PROGRAMS WHICH USE THE INTEGRV OR INTEGRVS ENTRANCE OF INTEGRATION WHOULD ENSURE THAT IF PHASE CHANGING IS DONE
000095:                                                                                                 #  THAT IT IS PRIOR TO SETTING THE INTEGRATION INPUTS IN THE PUSHLIST.
000096:                                                                                                 #  THIS IS BECAUSE THE PUSHLIST IS LOST DURING A RESTART.
000097:
000098:                                                                                                 #  2.2 SCALING
000099:
000100:                                                                                                 #  THE INTEGRATION ROUTIEN WILL MAINTAIN THE PERMANENT MEMORY STATE VECTORS IN THE SCALING AND UNITS DEFINED IN
000101:                                                                                                 #  APPENDIX B OF THE USERS' GUIDE.  THE SCALING OF THE OUTPUT POSITION VECTOR DEPENDS ON THE ORIGIN OF THE COORDINATE
000102:                                                                                                 #  SYSTEM AT THE DESIRED INTEGRATION TIME.  THE COORDINATE SYSTEM TRANSFORMATION WILL BE DONE AUTOMATICALLY ON
000103:                                                                                                 #  MULTIPLE TIMESTEP ENCKE INTEGRATION ONLY.  THUS IT IS POSSIBLE TO HAVE OUTPUT FROM SUCCESSIVE INTEGRATIONS IN
000104:                                                                                                 #  DIFFERENT SCALING.
000105:                                                                                                 #  HOWEVER, RATT, VATT WILL ALWAYS BE SCALED THE SAME.
000106:
000107:                                                                                                 #  3.0 INPUT/OUTPUT
000108:                                                                                                 #  ----------------
000109:
000110:                                                                                                 #  PROGRAM INPUTS ARE THE FLAGS DESCRIBED IN APPENDIX A AND THE PERMANENT STATE VECTOR QUANTITIES DESCRIBED IN
000111:                                                                                                 #  APPENDIX B OF THE USERS' GUIDE, PLUS THE DESIRED TIME TO INTEGRATE TO IN TDEC1 (A PUSH LIST LOCATION).
000112:                                                                                                 #  FOR INTEGRVS, THE RCV,VCV,TET OR THE TEMPORARY STATE VECTOR MUST BE SET, PLUS MOONFLAG AND MIDFLAG
000113:
000114:                                                                                                 #  FOR SIMULATION THE FOLLOWING QUANTITIES MUST BE PRESET ---
000115:                                                                                                 #                                                                                 EARTH   MOON
000116:                                                                                                 #                                                                                  29      27
000117:                                                                                                 #         RRECTCSM(LEM)           RECTIFIED POSITION VECTOR       METERS          2       2
000118:
000119:                                                                                                 #                                                                                  7       5
000120:                                                                                                 #         VRECTCSM(LEM)           RECTIFIED VELOCITY VECTOR       M/CSEC          2       2
000121:
000122:                                                                                                 #                                                                                  28      28
000123:                                                                                                 #         TETCSM(LEM)             TIME STATE VECTOR IS VALID      CSEC            2       2
000124:                                                                                                 #                                 CUSTOMARILY 0, BUT NOTE LUNAR
000125:                                                                                                 #                                 ORBIT DEPENDENCE ON REAL TIME.
000126:
000127:                                                                                                 #                                                                                  22      18
000128:                                                                                                 #         DELTAVCSM(LEM)          POSITION DEVIATION              METERS          2       2
000129:                                                                                                 #                                 0 IF TCCSM(LEM) = 0
000130:
000131:                                                                                                 #                                                                                  3       -1
000132:                                                                                                 #         NUVCSM(LEM)             VELOCITY DEVIATION              M/CSEC          2       2
000133:                                                                                                 #                                 0 IF TCCSM(LEM) = 0
000134:                                                                                                 #  Page 1311
000135:                                                                                                 #                                                                                  29      27
000136:                                                                                                 #         RCVSM(LEM)              CONIC POSITION                  METERS          2       2
000137:                                                                                                 #                                 EQUALS RRECTCSM(LEM) IF
000138:                                                                                                 #                                 TCCSM(LEM) = 0
000139:
000140:                                                                                                 #                                                                                  7       5
000141:                                                                                                 #         VCVCSM(LEM)             CONIC VELOCITY                  M/CSEC          2       2
000142:                                                                                                 #                                 EQUALS VRECTCSM(LEM) IF
000143:                                                                                                 #                                 TCCSM(LEM) = 0
000144:
000145:                                                                                                 #                                                                                  28      28
000146:                                                                                                 #         TCCSM(LEM)              TIME SINCE RECTIFICATION        CSECS           2       2
000147:                                                                                                 #                                 CUSTOMARILY 0
000148:
000149:                                                                                                 #                                                                  1/2             17      16
000150:                                                                                                 #         XKEPCSM(LEM)            RDOT OF KEPLER'S EQUATION       M               2       2
000151:                                                                                                 #                                 0 IF TCCSM(LEM) = 0
000152:
000153:                                                                                                 #         CMOONFLG                PERMANENT FLAGS CORRESPONDING                   0       0
000154:                                                                                                 #         CMIDFLAG                TO MOONFLAG AND MIDFLAG                         0,1     0,1
000155:                                                                                                 #         LMOONFLG                C = CSM, L = LM                                 0       0
000156:                                                                                                 #         LMIDFLG                                                                 0,1     0,1
000157:
000158:                                                                                                 #         SURFFLAG                LUNAR SURFACE FLAG                              0,1     0,1
000159:
000160:                                                                                                 #  IN ADDITION, IF (L)CMIDFLAG IS SET, THE INITIAL INPUT VALUES FOR LUNAR
000161:                                                                                                 #  SOLAR EPHEMERIDES SUBROUTINE AND PLANETARY INERTIAL ORIENTATION SUB-
000162:                                                                                                 #  ROUTINE MUST BE PRESET.
000163:
000164:                                                                                                 #  OUTPUT
000165:                                                                                                 #         AFTER EVERY CALL TO INTEGRATION
000166:                                                                                                 #                                                                         EARTH   MOON
000167:                                                                                                 #                                                                          29      29
000168:                                                                                                 #         0D      RATT    POSITION                        METERS          2       2
000169:
000170:                                                                                                 #                                                                          7       7
000171:                                                                                                 #         6D      VATT    VELOCITY                        M/CSEC          2       2
000172:
000173:                                                                                                 #                                                                          28      28
000174:                                                                                                 #         12D     TAT     TIME                                            2       2
000175:
000176:                                                                                                 #                                                                          29      27
000177:                                                                                                 #         14D     RATT1   POSITION                        METERS          2       2
000178:
000179:                                                                                                 #                                                                          7       5
000180:                                                                                                 #         20D     VATT1   VELOCITY                        M/CSEC          2       2
000181:
000182:                                                                                                 #                                                          3   2           36      30
000183:                                                                                                 #         26D     MU(P)   MU                              M /CS           2       2
000184:
000185:                                                                                                 #         X1              MUTABLE ENTRY                                   -2      -10D
000186:
000187:                                                                                                 #         X2              COORDINT
000188:                                                                                                 #         X2              COORDINATE SYSTEM ORIGIN                        0       2
000189:                                                                                                 #                         (THIS, NOT MOONFLAG, SHOULD BE
000190:                                                                                                 #  Page 1312
000191:                                                                                                 #                         USED TO DETERMINE ORIGIN.)
000192:
000193:                                                                                                 #  IN ADDITION TO THE ABOVE, THE PERMANENT STATE VECTOR IS UPDATED WHENEVER
000194:                                                                                                 #  STATEFLG WAS SET AND WHENEVER A W-MATRIX IS TO BE INTEGRATED.  THE PUSH
000195:                                                                                                 #  COUNTER IS SET TO 0 AND OVERFLOW IS CLEARED BEFORE RETURNING TO THE
000196:                                                                                                 #  CALLING PROGRAM.
000197:
000198:                                                                                                 #  4.0 CALLING SEQUENCES AND SAMPLE CODE
000199:                                                                                                 #  -------------------------------------
000200:
000201:                                                                                                 #         A) PRECISION ORBITAL INTEGRATION.  CSMPREC, LEMPREC ENTRANCES
000202:                                                                                                 #                 L-X     STORE TIME TO 96T5791T5 T 95 PUS L9ST (T4531)
000203:                                                                                                 #                 L       CALL
000204:                                                                                                 #                 L+1             CSMPREC (OR LEMPREC)
000205:                                                                                                 #                 L+2     RETURN
000206:                                                                                                 #            INPUT                                                           28
000207:                                                                                                 #                 TDEC1 (PD 32D) TIME TO INTEGRATE TO...CENTISECONDS SCALED 2
000208:                                                                                                 #            OUTPUT
000209:                                                                                                 #                 THE DATA LISTED IN SECTION 3.2 PLUS
000210:                                                                                                 #                 RQVV    POSITION VECTOR OF VEHICLE WITH RESPECT TO SECONDARY
000211:                                                                                                 #                 BODY... METERS B-29 ONLY IF MIDFLAG = DIM0FLAG = 1
000212:                                                                                                 #         B) CONIC INTEGRATION.  CSMCONIC, LEMCONIC ENTRANCES
000213:                                                                                                 #                 L-X     STORE TIME IN PUSH LIST (TDEC1)
000214:                                                                                                 #                 L       CALL
000215:                                                                                                 #                 L+1             CSMCONIC (OR LEMCONIC)
000216:                                                                                                 #            INPUT/OUTPUT
000217:                                                                                                 #                 SAME AS PRECISION INTEGRATION, EXCEPT RQVV NOT SET
000218:                                                                                                 #         C) INTEGRATE GIVEN STATE VECTOR.  INTEGRVS ENTRANCE
000219:                                                                                                 #                 CALL
000220:                                                                                                 #                                 INTSTALL
000221:                                                                                                 #                 VLOAD
000222:                                                                                                 #                                 POSITION VECTOR
000223:                                                                                                 #                 STOVL           RCV
000224:                                                                                                 #                                 VELOCITY VECTOR
000225:                                                                                                 #                 STODL           VCV
000226:                                                                                                 #                                 TIME STATE VECTOR VALID
000227:                                                                                                 #                 STODL           TET
000228:                                                                                                 #                                 FINAL RADIUS
000229:                                                                                                 #                 STORE           RFINAL
000230:                                                                                                 #                 SET(CLEAR)      SET(CLEAR)
000231:                                                                                                 #                                 INTYPFLAG
000232:                                                                                                 #                                 MOONFLAG
000233:                                                                                                 #                 SET(CLEAR)      DLOAD
000234:                                                                                                 #                                 DESIRED TIME
000235:                                                                                                 #                 STCALL          TDEC1
000236:                                                                                                 #                                 INTEGRVS
000237:                                                                                                 #           INPUT
000238:                                                                                                 #                 RCV     POSITION VECTOR                 METERS
000239:                                                                                                 #                 VCV     VELOCITY VECTOR                 M/CSEC
000240:                                                                                                 #                 TET     TIME OF STATE VECTOR (MAY = 0)  CSEC B-28
000241:                                                                                                 #  Page 1313
000242:                                                                                                 #                 TDEC1   TIME TO INTEGRATE TO            CSEC B-28 (PD 32D)
000243:                                                                                                 #                         (MAY BE INCREMENT IF TET=0)
000244:                                                                                                 #           OUTPUT
000245:                                                                                                 #                 SAME AS FOR PRECISION OR CONIC INTEGRATION,
000246:                                                                                                 #                 DEPENDING ON INTYPFLG.
000247:                                                                                                 #         D) INTEGRATE STATE VECTOR.  INTGRV ENTRANCE
000248:                                                                                                 #                 L-X     STORE TIME IN PUSH LIST (TDEC1) (MAY BE DONE AFTER CALL TO INTSTALL)
000249:                                                                                                 #                 L-8     CALL
000250:                                                                                                 #                 L-7
000251:                                                                                                 #                 L-6     SET(CLEAR)      SET(CLEAR)
000252:                                                                                                 #                 L-5                     VINTFLAG        1=CSM, 0=LM
000253:                                                                                                 #                 L-4                     INTYPFLAG       1=CONIC, 0=PRECISION
000254:                                                                                                 #                 L-3     SET(CLEAR)      SET(CLEAR)
000255:                                                                                                 #                 L-2                     DIM0FLAG        1=W-MATRIX, 0=NO W-MATRIX
000256:                                                                                                 #                 L-1                     D6OR9FLG        1=9X9, 0=6X6
000257:                                                                                                 #                 L       SET             DLOAD
000258:                                                                                                 #                 L+1                     STATEFLG        DESIRE PERMANENT UPDATE
000259:                                                                                                 #                 L+2                     FINAL RAD.      OF STATE VECTOR
000260:                                                                                                 #                 L+3     STCALL          RFINAL
000261:                                                                                                 #                 L+4                     INTEGRV
000262:                                                                                                 #                 L       CALL                            NORMAL USE -- WILL UPDATE STATE
000263:                                                                                                 #                 L+1                     INTEGRV         VECTOR IF DIM0FLAG=1. (STATEFLG IS
000264:                                                                                                 #                 L+2     RETURN                          ALWAYS RESET IN INTEGRATION AFTER
000265:                                                                                                 #                                                         IT USED.)
000266:                                                                                                 #           INPUT
000267:                                                                                                 #                 TDEC1 (PD 32D) TIME TO INTEGRATE TO     CSEC B-28
000268:                                                                                                 #           OUTPUT
000269:                                                                                                 #                 SAME AS FOR PRECISION OR CONIC INTEGRATION
000270:                                                                                                 #           THE PROGRAM WILL SET MOONFLAG, MIDFLAG DEPENDING ON
000271:                                                                                                 #           THE PERMANENT STATE VECTOR REPRESENTATION.
000272:
000273: 11,2363                                          BANK     11
000274: 13,2000                                          SETLOC   INTINIT
000275: 13,2000                                          BANK
000276: 13,2627  E3,1554                                 EBANK=   RRECTCSM
000277: 13,2627                                          COUNT    13/INTIN
000278:
000279: 13,2627           05412        STATEINT          TC       PHASCHNG
000280: 13,2630           00052                          OCT      00052
000281: 13,2631           35061                          CAF      PRIO5
000282: 13,2632           05147                          TC       FINDVAC
000283: 13,2633  E3,1554                                 EBANK=   RRECTCSM
000284: 13,2633           02636 26063                    2CADR    STATINT1
000285:
000286: 13,2635           05324                          TC       TASKOVER
000287: 13,2636           06006        STATINT1          TC       INTPRET
000288: 13,2637           47014                          BON      RTB
000289: 13,2640           04712                                   QUITFLAG
000290: 13,2641           26677                                   NOINT                                 #  NO STATEINT IF V96
000291: 13,2642           45510                                   LOADTIME
000292:                                                                                                 #  Page 1314
000293: 13,2643           00041                          STORE    TDEC1
000294: 13,2644           45014                          CLEAR    CALL
000295: 13,2645           04274                                   V96ONFLG
000296: 13,2646           27442                                   INTSTALL
000297: 13,2647           45014                          SET      CALL
000298: 13,2650           01076                                   NODOFLAG
000299: 13,2651           26670                                   SETIFLGS
000300: 13,2652           77650                          GOTO
000301: 13,2653           26000                                   STATEUP
000302: 13,2654           00003 25140  600SECS           2DEC     60000      B-28
000303:
000304: 13,2656           77414        ENDINT            CLEAR    EXIT
000305: 13,2657           01672                                   STATEFLG
000306: 13,2660           05412                          TC       PHASCHNG
000307: 13,2661           20032                          OCT      20032
000308: 13,2662           00006                          EXTEND
000309: 13,2663           32655                          DCA      600SECS
000310: 13,2664           05342                          TC       LONGCALL
000311: 13,2665  E3,1554                                 EBANK=   RRECTHIS
000312: 13,2665           02627 26063                    2CADR    STATEINT
000313:
000314: 13,2667           05217                          TC       ENDOFJOB
000315: 13,2670           43014        SETIFLGS          SET      CLEAR
000316: 13,2671           01472                                   STATEFLG
000317: 13,2672           01673                                   INTYPFLG
000318: 13,2673           43014                          CLEAR    CLEAR
000319: 13,2674           01676                                   DIM0FLAG
000320: 13,2675           01675                                   D6OR9FLG
000321: 13,2676           77616                          RVQ
000322: 13,2677           77776        NOINT             EXIT
000323: 13,2700           05412                          TC       PHASCHNG
000324: 13,2701           00002                          OCT      2
000325:
000326: 13,2702           05560                          TC       DOWNFLAG
000327: 13,2703           00221                          ADRES    QUITFLAG
000328:
000329: 13,2704           05217                          TC       ENDOFJOB
000330:
000331:                                                                                                 #  ATOPCSM TRANSFERS RRECT TO RRECT +41 TO RRECTCSM TO RRECTCSM +41
000332:
000333:                                                                                                 #  CALLING SEQUENCE
000334:                                                                                                 #         L       CALL
000335:                                                                                                 #         L+1             ATOPCSM
000336:
000337:                                                                                                 #  NORMAL EXIT AT L+2
000338:
000339: 13,2705           47020        ATOPCSM           STQ      RTB
000340: 13,2706           00051                                   S2
000341: 13,2707           26720                                   MOVEACSM
000342: 13,2710           45014                          SET      CALL
000343:                                                                                                 #  Page 1315
000344: 13,2711           04063                                   CMOONFLG
000345: 13,2712           20237                                   SVDWN1
000346: 13,2713           43014                          BON      CLRGO
000347: 13,2714           00303                                   MOONFLAG
000348: 13,2715           00051                                   S2
000349: 13,2716           04223                                   CMOONFLG
000350: 13,2717           00051                                   S2
000351: 13,2720           03064        MOVEACSM          TC       SETBANK
000352: 13,2721           55500                          TS       DIFEQCNT                              #  INITIALIZE INDEX
000353: 13,2722           51500                          INDEX    DIFEQCNT
000354: 13,2723           31502                          CA       RRECT
000355: 13,2724           51500                          INDEX    DIFEQCNT
000356: 13,2725           55554                          TS       RRECTCSM
000357: 13,2726           11500                          CCS      DIFEQCNT                              #  IS TRANSFER COMPLETE
000358: 13,2727           12721                          TCF      MOVEACSM   +1                         #  NO-LOOP
000359: 13,2730           06030                          TC       DANZIG                                #  COMPLETE -- RETURN
000360:
000361:                                                                                                 #  PTOACSM TRANSFERS RRECTCSM TO RRECTCSM +41 TO RRECT TO RRECT +41
000362:
000363:                                                                                                 #  CALLING SEQUENCE
000364:                                                                                                 #         L       CALL
000365:                                                                                                 #                         PTOACSM
000366:
000367:                                                                                                 #  NORMAL EXIT AT L+2
000368:
000369: 13,2731           43034        PTOACSM           RTB      BON
000370: 13,2732           26747                                   MOVEPCSM
000371: 13,2733           04303                                   CMOONFLG
000372: 13,2734           26742                                   SETMOON
000373: 13,2735           66214        CLRMOON           CLEAR    SSP
000374: 13,2736           00263                                   MOONFLAG
000375: 13,2737           02151                                   PBODY
000376: 13,2740           00000                                   0
000377: 13,2741           77616                          RVQ
000378: 13,2742           66214        SETMOON           SET      SSP
000379: 13,2743           00063                                   MOONFLAG
000380: 13,2744           02151                                   PBODY
000381: 13,2745           00002                                   2
000382: 13,2746           77616                          RVQ
000383: 13,2747           03064        MOVEPCSM          TC       SETBANK
000384: 13,2750           55500                          TS       DIFEQCNT
000385: 13,2751           51500                          INDEX    DIFEQCNT
000386: 13,2752           31554                          CA       RRECTCSM
000387: 13,2753           51500                          INDEX    DIFEQCNT
000388: 13,2754           55502                          TS       RRECT
000389: 13,2755           11500                          CCS      DIFEQCNT
000390: 13,2756           12750                          TCF      MOVEPCSM   +1
000391: 13,2757           06030                          TC       DANZIG
000392:
000393:                                                                                                 #  Page 1316
000394:                                                                                                 #  ATOPLEM TRANSFERS RRECT TO RRECT +41 TO RRECTLEM TO RRECTLEM +41
000395: 13,2760           47020        ATOPLEM           STQ      RTB
000396: 13,2761           00051                                   S2
000397: 13,2762           26773                                   MOVEALEM
000398: 13,2763           45014                          SET      CALL
000399: 13,2764           04064                                   LMOONFLG
000400: 13,2765           20263                                   SVDWN2
000401: 13,2766           43014                          BON      CLRGO
000402: 13,2767           00303                                   MOONFLAG
000403: 13,2770           00051                                   S2
000404: 13,2771           04224                                   LMOONFLG
000405: 13,2772           00051                                   S2
000406: 13,2773           03064        MOVEALEM          TC       SETBANK
000407: 13,2774           55500                          TS       DIFEQCNT
000408: 13,2775           51500                          INDEX    DIFEQCNT
000409: 13,2776           31502                          CA       RRECT
000410: 13,2777           51500                          INDEX    DIFEQCNT
000411: 13,3000           55626                          TS       RRECTLEM
000412: 13,3001           11500                          CCS      DIFEQCNT
000413: 13,3002           12774                          TCF      MOVEALEM   +1
000414: 13,3003           06030                          TC       DANZIG
000415:
000416:                                                                                                 #  PTOALEM TRANSFERS RRECTLEM TO RRECTLEM +41 TO RRECT TO RRECT +41
000417:
000418: 13,3004           47014        PTOALEM           BON      RTB
000419: 13,3005           04307                                   SURFFLAG
000420: 13,3006           27025                                   USEPIOS
000421: 13,3007           27014                                   MOVEPLEM
000422: 13,3010           52014                          BON      GOTO
000423: 13,3011           04304                                   LMOONFLG
000424: 13,3012           26742                                   SETMOON
000425: 13,3013           26735                                   CLRMOON
000426: 13,3014           03064        MOVEPLEM          TC       SETBANK
000427: 13,3015           55500                          TS       DIFEQCNT
000428: 13,3016           51500                          INDEX    DIFEQCNT
000429: 13,3017           31626                          CA       RRECTLEM
000430: 13,3020           51500                          INDEX    DIFEQCNT
000431: 13,3021           55502                          TS       RRECT
000432: 13,3022           11500                          CCS      DIFEQCNT
000433: 13,3023           13015                          TCF      MOVEPLEM   +1
000434: 13,3024           06030                          TC       DANZIG
000435:
000436: 13,3025           77201        USEPIOS           SETPD    VLOAD
000437: 13,3026           00001                                   0
000438: 13,3027           02026                                   RLS
000439: 13,3030           41525                          PDDL     PUSH
000440: 13,3031           00041                                   TDEC1
000441:                                                                                                 #  Page 1317
000442: 13,3032           15517                          STODL    TET
000443: 13,3033           27755                                   5/8
000444: 13,3034           77624                          CALL
000445: 13,3035           55344                                   RP-TO-R
000446: 13,3036           25535                          STOVL    RCV
000447: 13,3037           11560                                   ZUNIT
000448: 13,3040           14001                          STODL    0D
000449: 13,3041           01517                                   TET
000450: 13,3042           14007                          STODL    6D
000451: 13,3043           27755                                   5/8
000452: 13,3044           45014                          SET      CALL                                  #  NEEDED FOR SETTING X1 ON EXIT
000453: 13,3045           00063                                   MOONFLAG
000454: 13,3046           55344                                   RP-TO-R
000455: 13,3047           74235                          VXV      VXSC
000456: 13,3050           01535                                   RCV
000457: 13,3051           27063                                   OMEGMOON
000458: 13,3052           25543                          STOVL    VCV
000459: 13,3053           11566                                   ZEROVEC
000460: 13,3054           01521                          STORE    TDELTAV
000461: 13,3055           67174                          AXT,2    SXA,2
000462: 13,3056           00002                                   2
000463: 13,3057           02150                                   PBODY
000464: 13,3060           35527                          STCALL   TNUV
000465: 13,3061           27176                                   A-PCHK
000466: 13,3062           07112 06620  OMEGMOON          2DEC*    2.66169947 E-8        B+23*
000467:
000468: 13,3064           33070        SETBANK           CAF      INTBANK
000469: 13,3065           54006                          TS       BBANK
000470: 13,3066           33507                          CAF      FORTYONE
000471: 13,3067           00002                          TC       Q
000472: 13,3070  E3,1554                                 EBANK=   RRECTCSM
000473: 13,3070           26063        INTBANK           BBCON    INTEGRV
000474:
000475:                                                                                                 #  SPECIAL PURPOSE ENTRIES TO ORBITAL INTEGRATION.  THESE ROUTINES PROVIDE ENTRANCES TO INTEGRATION WITH
000476:                                                                                                 #  APPROPRIATE SWITCHES SET OR CLEARED FOR THE DESIRED INTEGRATION.
000477:
000478:                                                                                                 #  CSMPREC AND LEMPREC PERFORM ORBIT INTEGRATION BY THE ENCKE METHOD TO THE TIME INDICATED IN TDEC1.
000479:                                                                                                 #  ACCELERATIONS DUE TO OBLATENESS ARE INCLUDED.  NO W-MATRIX INT. IS DONE.
000480:                                                                                                 #  THE PERMANENT STATE VECTOR IS NOT UPDATED.
000481:                                                                                                 #  CSMCONIC AND LEMCONIC PERFORM ORBIT INTEG. BY KEPLER'S METHOD TO THE TIME INDICATED IN TDEC1.
000482:                                                                                                 #  NO DISTURBING ACCELERATIONS ARE INCLUDED.  IN THE PROGRAM FLOW THE GIVEN
000483:                                                                                                 #  STATE VECTOR IS RECTIFIED BEFORE SOLUTION OF KEPLER'S EQUATION.
000484:
000485:                                                                                                 #  THE ROUTINES ASSUME THAT THE CSM (LEM) STATE VECTOR IN P-MEM IS VALID.
000486:                                                                                                 #  SWITCHES SET PRIOR TO ENTRY TO THE MAIN INTEG. PROG ARE AS FOLLOWS:
000487:                                                                                                 #                         CSMPREC         CSMCONIC        LEMPREC         LEMCONIC
000488:                                                                                                 #         VINTFLAG        SET             SET             CLEAR           CLEAR
000489:                                                                                                 #         INTYPFLG        CLEAR           SET             CLEAR           SET
000490:                                                                                                 #         DIM0FLAG        CLEAR           CLEAR           CLEAR           CLEAR
000491:                                                                                                 #  Page 1318
000492:
000493:                                                                                                 #  CALLING SEQUENCE
000494:                                                                                                 #         L-X     STORE   TDEC1
000495:                                                                                                 #         L       CALL                    (STCALL TDEC1)
000496:                                                                                                 #         L+1             CSMPREC         (CSMCONIC, LEMPREC, LEMCONIC)
000497:
000498:                                                                                                 #  NORMAL EXIT TO L+2
000499:
000500:                                                                                                 #  SUBROUTINES CALLED
000501:                                                                                                 #         INTEGRV1
000502:                                                                                                 #         PRECOUT FOR CSMPREC AND LEMPREC
000503:                                                                                                 #         CONICOUT FOR CSMCONIC AND LEMCONIC
000504:
000505:                                                                                                 #  OUTPUT -- SEE PAGE 2 OF THIS LOG SECTION
000506:
000507:                                                                                                 #  INPUT
000508:                                                                                                 #         TDEC1           TIME TO INTEGRATE TO.  CSECS B-28
000509:
000510: 13,3071           45020        CSMPREC           STQ      CALL
000511: 13,3072           00046                                   X1
000512: 13,3073           27442                                   INTSTALL
000513: 13,3074           43130                          SXA,1    SET
000514: 13,3075           02214                                   IRETURN
000515: 13,3076           01474                                   VINTFLAG
000516:
000517: 13,3077           43014        IFLAGP            SET      CLEAR
000518: 13,3100           01467                                   PRECIFLG
000519: 13,3101           01676                                   DIM0FLAG
000520: 13,3102           77614                          CLRGO
000521: 13,3103           01633                                   INTYPFLG
000522: 13,3104           27164                                   INTEGRV1
000523: 13,3105           45020        LEMPREC           STQ      CALL
000524: 13,3106           00046                                   X1
000525: 13,3107           27442                                   INTSTALL
000526: 13,3110           43130                          SXA,1    CLRGO
000527: 13,3111           02214                                   IRETURN
000528: 13,3112           01634                                   VINTFLAG
000529: 13,3113           27077                                   IFLAGP
000530:
000531: 13,3114           45020        CSMCONIC          STQ      CALL
000532: 13,3115           00046                                   X1
000533: 13,3116           27442                                   INTSTALL
000534: 13,3117           43130                          SXA,1    SET
000535: 13,3120           02214                                   IRETURN
000536: 13,3121           01474                                   VINTFLAG
000537: 13,3122           43014        IFLAGC            CLEAR    SETGO
000538: 13,3123           01676                                   DIM0FLAG
000539: 13,3124           01433                                   INTYPFLG
000540: 13,3125           27164                                   INTEGRV1
000541: 13,3126           45020        LEMCONIC          STQ      CALL
000542: 13,3127           00046                                   X1
000543:                                                                                                 #  Page 1319
000544: 13,3130           27442                                   INTSTALL
000545: 13,3131           43130                          SXA,1    CLRGO
000546: 13,3132           02214                                   IRETURN
000547: 13,3133           01634                                   VINTFLAG
000548: 13,3134           27122                                   IFLAGC
000549:
000550: 13,3135           66214        INTEGRVS          SET      SSP
000551: 13,3136           01467                                   PRECIFLG
000552: 13,3137           02151                                   PBODY
000553: 13,3140           00000                                   0
000554: 13,3141           66214                          BOF      SSP
000555: 13,3142           00343                                   MOONFLAG
000556: 13,3143           27146                                   +3
000557: 13,3144           02151                                   PBODY
000558: 13,3145           00002                                   2
000559: 13,3146           77220                          STQ      VLOAD
000560: 13,3147           02214                                   IRETURN
000561: 13,3150           11566                                   ZEROVEC
000562: 13,3151           01521                          STORE    TDELTAV
000563: 13,3152           35527                          STCALL   TNUV
000564: 13,3153           23421                                   RECTIFY
000565: 13,3154           43014                          CLEAR    SET
000566: 13,3155           01676                                   DIM0FLAG
000567: 13,3156           04062                                   NEWIFLG
000568: 13,3157           77614                          SETGO
000569: 13,3160           04020                                   RPQFLAG
000570: 13,3161           22363                                   ALOADED
000571:
000572:                                                                                                 #  INTEGRV IS AN ENTRY TO ORBIT INTEGRATION WHICH PERMITS THE CALLER,
000573:                                                                                                 #  NORMALLY THE NAVIGATION PROGRAM, TO SET THE INTEG. FLAGS.  THE ROUTINE
000574:                                                                                                 #  IS ENTERED AT INTEGRV1 BY CSMPREC ET. AL. AND AT ALOADED BY INTEGRVS.
000575:                                                                                                 #  THE ROUTINE SETS UP A-MEMORY IF ENTERED AT INTEGRV,1 AND SETS THE INTEG.
000576:                                                                                                 #  PROGRAM FOR PRECISION OR CONIC.
000577:
000578:                                                                                                 #  THE CALLER MUST FIRST CALL INTSTALL TO CHECK IF INTEG. IS IN USE BEFORE
000579:                                                                                                 #  SETTING ANY FLAGS.
000580:
000581:                                                                                                 #  THE FLAGS WHICH SHOULD BE SET OR CLEARED ARE
000582:                                                                                                 #         VINTFLAG        (IGNORED WHEN ENTERED FROM INTEGRVS)
000583:                                                                                                 #         INTYPFLG
000584:                                                                                                 #         DIM0FLAG
000585:                                                                                                 #         D6OR9FLG
000586:
000587:                                                                                                 #  CALLING SEQUENCE
000588:                                                                                                 #         L-X     CALL
000589:                                                                                                 #         L-Y             INTSTALL
000590:                                                                                                 #         L-1     SET OR CLEAR ALL FOUR FLAGS.  ALSO CAN SET STATEFLG IF DESIRED
000591:                                                                                                 #                 AND DIM0FLAG IS CLEAR.
000592:                                                                                                 #         L       CALL
000593:                                                                                                 #         L+1             INTEGRV
000594:
000595:                                                                                                 #  INITIALIZATION
000596:                                                                                                 #         FLAGS AS ABOVE
000597:                                                                                                 #         STORE TIME TO INTEGRATE TO IN TDEC1
000598:
000599:                                                                                                 #  Page 1320
000600:                                                                                                 #  OUTPUT
000601:                                                                                                 #         RATT    AS
000602:                                                                                                 #         VATT          DEFINED
000603:                                                                                                 #         TAT                     BEFORE
000604:
000605: 13,3162           77620        INTEGRV           STQ
000606: 13,3163           02214                                   IRETURN
000607: 13,3164           43014        INTEGRV1          SET      SET
000608: 13,3165           04060                                   RPQFLAG
000609: 13,3166           04062                                   NEWIFLG
000610: 13,3167           77731        INTEGRV2          SSP
000611: 13,3170           00053                                   QPRET
000612: 13,3171           22363                                   ALOADED
000613: 13,3172           52014                          BON      GOTO
000614: 13,3173           01714                                   VINTFLAG
000615: 13,3174           26731                                   PTOACSM
000616: 13,3175           27004                                   PTOALEM
000617: 11,2000                                          SETLOC   INTINIT1
000618: 11,2000                                          BANK
000619: 11,2363           77745        ALOADED           DLOAD
000620: 11,2364           00041                                   TDEC1
000621: 11,2365           01101                          STORE    TDEC
000622: 11,2366           52014                          BOFF     GOTO
000623: 11,2367           01753                                   INTYPFLG
000624: 11,2370           27305                                   TESTLOOP
000625: 11,2371           27271                                   RVCON
000626: 13,2000                                          SETLOC   INTINIT
000627: 13,2000                                          BANK
000628: 13,3176           45014        A-PCHK            BOF      CALL
000629: 13,3177           00342                                   MIDFLAG
000630: 13,3200           27205                                   ANDOUT                                #  DON'T MAKE ORIGIN CHANGE CHECK
000631: 13,3201           23320                                   CHKSWTCH
000632: 13,3202           45044                          BPL      CALL
000633: 13,3203           27205                                   ANDOUT                                #  NO ORIGIN CHANGE
000634: 13,3204           23361                                   ORIGCHNG                              #  MAKE THE SWITCH
000635: 13,3205           77414        ANDOUT            BOFCLR   EXIT
000636: 13,3206           01652                                   STATEFLG
000637: 13,3207           27226                                   RECTOUT
000638: 13,3210           05412                          TC       PHASCHNG
000639: 13,3211           04022                          OCT      04022
000640: 13,3212           05546                          TC       UPFLAG                                #  PHASE CHANGE HAS OCCURRED BETWEEN
000641: 13,3213           00236                          ADRES    REINTFLG                              #  INTSTALL AND INTWAKE
000642: 13,3214           06006                          TC       INTPRET
000643: 13,3215           77731                          SSP
000644: 13,3216           00053                                   QPRET
000645: 13,3217           27224                                   PHEXIT
000646: 13,3220           52014                          BON      GOTO
000647: 13,3221           01714                                   VINTFLAG
000648: 13,3222           26705                                   ATOPCSM
000649:                                                                                                 #  Page 1321
000650: 13,3223           26760                                   ATOPLEM
000651: 13,3224           77624        PHEXIT            CALL
000652: 13,3225           56750                                   GRP2PC
000653: 13,3226           45001        RECTOUT           SETPD    CALL
000654: 13,3227           00001                                   0
000655: 13,3230           23421                                   RECTIFY
000656: 13,3231           53775                          VLOAD    VSL*
000657: 13,3232           01503                                   RRECT
000658: 13,3233           57576                                   0,2
000659: 13,3234           53715                          PDVL     VSL*                                  #  RATT TO PD0
000660: 13,3235           01511                                   VRECT
000661: 13,3236           57576                                   0,2
000662: 13,3237           63325                          PDDL     PDVL                                  #  VATT TO PD6    TAT TO PD12
000663: 13,3240           01517                                   TET
000664: 13,3241           01503                                   RRECT
000665: 13,3242           64715                          PDVL     PDDL*
000666: 13,3243           01511                                   VRECT
000667: 13,3244           50042                                   MUEARTH,2
000668: 13,3245           76006                          PUSH     AXT,1
000669: 13,3246           77765                          DEC      -10        B-14
000670: 13,3247           76014                          BON      AXT,1
000671: 13,3250           00303                                   MOONFLAG
000672: 13,3251           27253                                   +2
000673: 13,3252           77775                          DEC      -2         B-14
000674: 13,3253           40001        INTEXIT           SETPD    BOV
000675: 13,3254           00001                                   0
000676: 13,3255           27256                                   +1
000677: 13,3256           77614                          CLEAR
000678: 13,3257           04675                                   MIDAVFLG
000679: 13,3260           43014                          CLEAR    CLEAR
000680: 13,3261           04676                                   AVEMIDSW                              #  ALLOW UPDATE OF DOWNLINK STATE VECTOR
000681: 13,3262           01667                                   PRECIFLG
000682: 13,3263           77535                          SLOAD    EXIT
000683: 13,3264           02215                                   IRETURN
000684: 13,3265           30154                          CA       MPAC
000685: 13,3266           50120                          INDEX    FIXLOC
000686: 13,3267           54052                          TS       QPRET
000687: 13,3270           03457                          TC       INTWAKE
000688:
000689:                                                                                                 #  RVCON SETS UP ORBIT INTEGRATION TO DO A CONIC SOLUTION FOR POSITION AND
000690:                                                                                                 #  VELOCITY FOR THE INTERVAL (TET-TDEC)
000691:
000692: 13,3271           45345        RVCON             DLOAD    DSU
000693: 13,3272           01101                                   TDEC
000694: 13,3273           01517                                   TET
000695: 13,3274           36312                          STCALL   TAU.
000696: 13,3275           23421                                   RECTIFY
000697: 13,3276           77624                          CALL
000698: 13,3277           22372                                   KEPPREP
000699: 13,3300           43345                          DLOAD    DAD
000700: 13,3301           01551                                   TC
000701:                                                                                                 #  Page 1322
000702: 13,3302           01517                                   TET
000703: 13,3303           35517                          STCALL   TET
000704: 13,3304           27226                                   RECTOUT
000705:
000706:                                                                                                 #  Page 1323
000707: 13,3305           43014        TESTLOOP          BOF      CLRGO
000708: 13,3306           04752                                   QUITFLAG
000709: 13,3307           27312                                   +3
000710: 13,3310           01632                                   STATEFLG
000711: 13,3311           27253                                   INTEXIT                               #  STOP INTEGRATION
000712: 13,3312           73001                 +3       SETPD    LXA,2
000713: 13,3313           00013                                   10D
000714: 13,3314           02150                                   PBODY
000715: 13,3315           51575                          VLOAD    ABVAL
000716: 13,3316           01535                                   RCV
000717: 13,3317           43006                          PUSH     CLEAR                                 #  RC TO 10D
000718: 13,3320           00262                                   MIDFLAG
000719: 13,3321           50023                          DSU*     BMN                                   #  MIDFLAG=0 IF R G.T. RMP
000720: 13,3322           67212                                   RME,2
000721: 13,3323           27326                                   +3
000722: 13,3324           77614                          SET
000723: 13,3325           00062                                   MIDFLAG
000724: 13,3326           41345        NORFINAL          DLOAD    DMP
000725: 13,3327           00013                                   10D
000726: 13,3330           00043                                   34D
000727: 13,3331           55762                          SR1R     DDV*
000728: 13,3332           50042                                   MUEARTH,2
000729: 13,3333           41366                          SQRT     DMP
000730: 13,3334           23752                                   .3D
000731: 13,3335           40442                          SR3      SR4                                   #  DT IS TRUNCATED TO A MULTIPLE
000732: 13,3336           54345                          DLOAD    SL
000733: 13,3337           00155                                   MPAC
000734: 13,3340           20220                                   15D                                   #         OF 128 CSECS.
000735: 13,3341           40006                          PUSH     BOV
000736: 13,3342           27367                                   MAXDT
000737: 13,3343           50021                          BDSU     BMN
000738: 13,3344           27441                                   DT/2MAX
000739: 13,3345           27367                                   MAXDT
000740: 13,3346           45345        DT/2COMP          DLOAD    DSU
000741: 13,3347           01101                                   TDEC
000742: 13,3350           01517                                   TET
000743: 13,3351           54234                          RTB      SL
000744: 13,3352           45544                                   SGNAGREE
000745: 13,3353           20211                                   8D
000746: 13,3354           02314                          STORE    DT/2                                  #  B-19
000747: 13,3355           51400                          BOV      ABS
000748: 13,3356           27373                                   GETMAXDT
000749: 13,3357           50025                          DSU      BMN                                   #  IS TIME TO INTEG. TO GR THAN MAXTIME
000750: 13,3360           00015                                   12D
000751: 13,3361           27377                                   P00HCHK
000752: 13,3362           75345        USEMAXDT          DLOAD    SIGN
000753: 13,3363           00015                                   12D
000754: 13,3364           02314                                   DT/2
000755:                                                                                                 #  Page 1324
000756: 13,3365           36314                          STCALL   DT/2
000757: 13,3366           27377                                   P00HCHK
000758: 13,3367           65345        MAXDT             DLOAD    PDDL                                  #  EXCHANGE DT/2MAX WITH COMPUTED MAX.
000759: 13,3370           27441                                   DT/2MAX
000760: 13,3371           77650                          GOTO
000761: 13,3372           27346                                   DT/2COMP
000762: 13,3373           77634        GETMAXDT          RTB
000763: 13,3374           45712                                   SIGNMPAC
000764: 13,3375           36314                          STCALL   DT/2
000765: 13,3376           27362                                   USEMAXDT
000766: 13,3377           51545        P00HCHK           DLOAD    ABS
000767: 13,3400           02314                                   DT/2
000768: 13,3401           50025                          DSU      BMN
000769: 13,3402           27437                                   DT/2MIN
000770: 13,3403           27176                                   A-PCHK
000771: 13,3404           46135                          SLOAD    BHIZ
000772: 13,3405           01012                                   MODREG
000773: 13,3406           27411                                   +3
000774: 13,3407           77650                          GOTO
000775: 13,3410           23240                                   TIMESTEP
000776: 13,3411           77614                          BON                                            #  WAS THIS CALL VIA CSM(LEM)PREC
000777: 13,3412           01707                                   PRECIFLG
000778: 13,3413           23240                                   TIMESTEP                              #  YES
000779: 13,3414           45345                          DLOAD    DSU
000780: 13,3415           02314                                   DT/2
000781: 13,3416           00015                                   12D
000782: 13,3417           43040                          BMN      BOFCLR
000783: 13,3420           27176                                   A-PCHK
000784: 13,3421           04242                                   NEWIFLG
000785: 13,3422           23240                                   TIMESTEP
000786: 13,3423           45345                          DLOAD    DSU
000787: 13,3424           01101                                   TDEC
000788: 13,3425           01517                                   TET
000789: 13,3426           77640                          BMN                                            #  NO BACKWARD INTEGRATION
000790: 13,3427           27253                                   INTEXIT
000791: 13,3430           40525                          PDDL     SR4
000792: 13,3431           02314                                   DT/2                                  #  IS 4(DT) LS (TDEC - TET)
000793: 13,3432           44322                          SR2R     BDSU
000794: 13,3433           52040                          BMN      GOTO
000795: 13,3434           27253                                   INTEXIT
000796: 13,3435           23240                                   TIMESTEP
000797: 13,3436           00000 01400  DT/2MIN           2DEC     3          B-20
000798:
000799: 13,3440           14152 00000  DT/2MAX           2DEC     4000       E2         B-20
000800:
000801: 13,3442           77776        INTSTALL          EXIT
000802: 13,3443           35021                          CAF      ZERO
000803: 13,3444           54001        ALLSTALL          TS       L
000804: 13,3445           30106                          CA       RASFLAG
000805: 13,3446           50001                          INDEX    L
000806:                                                                                                 #  Page 1325
000807: 13,3447           73540                          MASK     INTBITAB                              #  IS THIS STALL AREA FREE
000808: 13,3450           00006                          EXTEND
000809: 13,3451           13516                          BZF      OKTOGRAB                              #  YES
000810: 13,3452           50001                          INDEX    L
000811: 13,3453           33535                          CAF      WAKESTAL
000812: 13,3454           05175                          TC       JOBSLEEP
000813: 13,3455           77776        INTWAKE0          EXIT
000814: 13,3456           13477                          TCF      INTWAKE1
000815:
000816: 13,3457           40106        INTWAKE           CS       RASFLAG                               #  IS THIS INTSTALLED ROUTINE TO BE
000817: 13,3460           75011                          MASK     REINTBIT                              #         RESTARTED
000818: 13,3461           10000                          CCS      A
000819: 13,3462           03477                          TC       INTWAKE1                              #  NO
000820:
000821: 13,3463           50120                          INDEX    FIXLOC
000822: 13,3464           30052                          CA       QPRET
000823: 13,3465           55055                          TS       TBASE2                                #  YES, DON'T RESTART WITH SOMEONE ELSE'S Q
000824:
000825: 13,3466           05412                          TC       PHASCHNG
000826: 13,3467           04022                          OCT      04022
000827:
000828: 13,3470           31055                          CA       TBASE2
000829: 13,3471           50120                          INDEX    FIXLOC
000830: 13,3472           54052                          TS       QPRET
000831:
000832: 13,3473           35011                          CAF      REINTBIT
000833: 13,3474           70106                          MASK     RASFLAG
000834: 13,3475           00006                          EXTEND
000835: 13,3476           13521                          BZF      GOBAC                                 #  DON'T INTWAKE IF WE CAME HERE VIA RESTART
000836:
000837: 13,3477           35021        INTWAKE1          CAF      ZERO
000838: 13,3500           54154        WAKE              TS       STALTEM                               #  INDEX OF ANY STALL USER
000839: 13,3501           50154        WAKE1             INDEX    STALTEM
000840: 13,3502           33535                          CAF      WAKESTAL
000841: 13,3503           00004                          INHINT
000842: 13,3504           05201                          TC       JOBWAKE
000843: 13,3505           10064                          CCS      LOCCTR
000844: 13,3506           13501                          TCF      WAKE1                                 #  MAY BE MORE TO WAKE UP
000845: 13,3507           00051        FORTYONE          DEC      41         B-14
000846: 13,3510           50154                          INDEX    STALTEM
000847: 13,3511           43540                          CS       INTBITAB
000848: 13,3512           70106                          MASK     RASFLAG
000849: 13,3513           54106                          TS       RASFLAG                               #  RELEASE STALL AREA
000850: 13,3514           00003                          RELINT
000851: 13,3515           13521                          TCF      GOBAC
000852: 13,3516           50001        OKTOGRAB          INDEX    L                                     #  NO, WAIT UNTIL AVAILABLE
000853: 13,3517           35002                          CAF      INTFLBIT
000854: 13,3520           26106                          ADS      RASFLAG
000855: 13,3521           06006        GOBAC             TC       INTPRET
000856: 13,3522           77616                          RVQ
000857:                                                                                                 #  Page 1326
000858: 13,3523           77776        ERASTAL1          EXIT
000859: 13,3524           35017                          CAF      ONE
000860: 13,3525           13444                          TCF      ALLSTALL
000861: 13,3526           77776        ERASTAL2          EXIT
000862: 13,3527           35016                          CAF      TWO
000863: 13,3530           13444                          TCF      ALLSTALL
000864: 13,3531           35017        ERASWAK1          CAF      ONE
000865: 13,3532           13500                          TCF      WAKE
000866: 13,3533           35016        ERASWAK2          CAF      TWO
000867: 13,3534           13500                          TCF      WAKE
000868: 13,3535           27443        WAKESTAL          CADR     INTSTALL   +1
000869: 13,3536           27524                          CADR     ERASTAL1   +1
000870: 13,3537           27527                          CADR     ERASTAL2   +1
000871: 13,3540     0154               STALTEM           EQUALS   MPAC
000872: 13,3540           20100        INTBITAB          OCT      20100
000873: 13,3541           10040                          OCT      10040
000874: 13,3542           04020                          OCT      04020
000875:
000876:                                                                                                 #  Page 1327
000877:                                                                                                 #  AVETOMID
000878:
000879:                                                                                                 #  THIS ROUTINE PERFORMS THE TRANSITION FROM A THRUSTING PHASE TO THE COAST
000880:                                                                                                 #  PHASE BY INITIALIZING THIS VEHICLE'S PERMANENT STATE VECTOR WITH THE
000881:                                                                                                 #  VALUES LEFT BY THE AVERAGEG ROUTINE IN RN,VN,PIPTIME.
000882:
000883:                                                                                                 #  BEFORE THIS IS DONE THE W-MATRIX, IF IT'S VALID (OR WFLAG OR RENDWFLT IS
000884:                                                                                                 #  SET) IS INTEGRATED FORWARD TO PIPTIME WITH THE PRE-THRUST STATE VECTOR.
000885:
000886:                                                                                                 #  IN ADDITION, THE OTHER VEHICLE IS INTEGRATED (PERMANENT) TO PIPTIME.
000887:
000888:                                                                                                 #  FINALLY TRKMKCNT IS ZEROED.
000889:
000890: 35,2000                                          SETLOC   INTINIT2
000891: 35,2000                                          BANK
000892:
000893: 35,3675                                          COUNT*   $$/INTIN
000894: 35,3675           43020        AVETOMID          STQ      BON
000895: 35,3676           02317                                   EGRESS
000896: 35,3677           02716                                   RENDWFLG
000897: 35,3700           73753                                   INT/W                                 #  W-MATRIX VALID, GO INTEGRATE IT
000898: 35,3701           77614                          BON
000899: 35,3702           01711                                   ORBWFLAG
000900: 35,3703           73753                                   INT/W                                 #  W-MATRIX VALID, GO INTEGRATE IT.
000901:
000902: 35,3704           45174        SETCOAST          AXT,2    CALL                                  #  NOW MOVE PROPERLY SCALED RN,UN AS WELL AS
000903: 35,3705           00002                                   2                                     #  PIPTIME TO INTEGRATION ERASABLES.
000904: 35,3706           27442                                   INTSTALL
000905: 35,3707           77014                          BON      AXT,2
000906: 35,3710           00315                                   AMOONFLG
000907: 35,3711           73713                                   +2
000908: 35,3712           00000                                   0
000909: 35,3713           53775                          VLOAD    VSR*
000910: 35,3714           01171                                   RN
000911: 35,3715           57176                                   0,2
000912: 35,3716           01503                          STORE    RRECT
000913: 35,3717           15535                          STODL    RCV
000914: 35,3720           01205                                   PIPTIME
000915: 35,3721           25517                          STOVL    TET
000916: 35,3722           01177                                   VN
000917: 35,3723           45057                          VSR*     CALL
000918: 35,3724           57176                                   0,2
000919: 35,3725           23435                                   MINIRECT                              #  FINISH SETTING UP STATE VECTOR
000920: 35,3726           66234                          RTB      SSP
000921: 35,3727           26720                                   MOVATHIS                              #  PUT TEMP STATE VECTOR INTO PERMANENT
000922: 35,3730           01127                                   TRKMKCNT
000923: 35,3731           00000                                   0
000924: 35,3732           43014                          SET      BON
000925: 35,3733           04063                                   CMOONFLG
000926:                                                                                                 #  Page 1328
000927: 35,3734           00315                                   AMOONFLG
000928: 35,3735           73740                                   +3
000929: 35,3736           77614                          CLEAR
000930: 35,3737           04263                                   CMOONFLG
000931:
000932: 35,3740           71214                          BON      DLOAD                                 #  NOW DO LM
000933: 35,3741           04307                                   SURFFLAG
000934: 35,3742           75751                                   FAZAB5                                #  NO COASTING LM
000935: 35,3743           01205                                   PIPTIME
000936: 35,3744           34041                          STCALL   TDEC1
000937: 35,3745           26670                                   SETIFLGS
000938: 35,3746           45014                          CLEAR    CALL
000939: 35,3747           01674                                   VINTFLAG
000940: 35,3750           27162                                   INTEGRV
000941: 35,3751           77650                          GOTO
000942: 35,3752           02317                                   EGRESS
000943: 35,3753           45145        INT/W             DLOAD    CALL
000944: 35,3754           01205                                   PIPTIME                               #  INTEGRATE W THRU BURN
000945: 35,3755           27442                                   INTSTALL
000946: 35,3756           43014                          SET      SET
000947: 35,3757           01476                                   DIM0FLAG                              #  DO W-MATRIX
000948: 35,3760           04476                                   AVEMIDSW                              #  SO WON'T CLOBBER RN,VN,PIPTIME
000949: 35,3761           43014                          CLEAR    SET
000950: 35,3762           01675                                   D6OR9FLG
000951: 35,3763           01474                                   VINTFLAG
000952: 35,3764           34041                          STCALL   TDEC1
000953: 35,3765           27162                                   INTEGRV
000954: 35,3766           77650                          GOTO
000955: 35,3767           73704                                   SETCOAST
000956:
000957:                                                                                                 #  Page 1329
000958:                                                                                                 #  MIDTOAV1
000959:
000960:                                                                                                 #  THIS ROUTINE INTEGRATES (PRECISION) TO THE TIME SPECIFIED IN TDEC1.
000961:                                                                                                 #  IF, AT THE END OF AN INTEGRATION TIME STEP, CURRENT TIME PLUS A DELTA
000962:                                                                                                 #  TIME (SEE TIMEDELT.....BASED ON THE COMPUTATION TIME FOR ONE TIME STEP)
000963:                                                                                                 #  IS GREATER THAN THE DESIRED TIME, ALARM 1703 IS SET AND THE INTEGRATION
000964:                                                                                                 #  IS DONE TO THE CURRENT TIME.
000965:                                                                                                 #  RETURN IS IN BASIC TO THE RETURN ADDRESS PLUS ONE.
000966:
000967:                                                                                                 #  IF THE INTEGRATION IS FINISHED TO THE DESIRED TIME, RETURN IS IN BASIC
000968:                                                                                                 #  TO THE RETURN ADDRESS.
000969:
000970:                                                                                                 #  IN EITHER CASE, BEFORE RETURNING, THE EXTRAPOLATED STATE VECTOR IS TRANSFERRED
000971:                                                                                                 #  FROM R,VATT TO R,VN1 -- PIPTIME1 IS SET TO THE FINISHING INTEGRATION
000972:                                                                                                 #  TIME AND MPAC IS SET TO THE DELTA TIME --
000973:                                                                                                 #                         TAT MINUS CURRENT TIME
000974:
000975:                                                                                                 #  MIDTOAV2
000976:
000977:                                                                                                 #  THIS ROUTINE INTEGRATES THIS VEHICLE'S STATE VECTOR TO THE CURRENT TIME PLUS
000978:                                                                                                 #  INCREMENTS OF TIMEDELT SUCH THAT THE DIFFERENCE BETWEEN CURRENT TIME
000979:                                                                                                 #  AND THE STATE VECTOR TIME AT THE END OF THE LAST STEP IS AT LEAST 5.6
000980:                                                                                                 #  SECS.
000981:                                                                                                 #  NO INPUTS ARE REQUIRED OF THE CALLER.  RETURN IS IN BASIC TO THE RETURN
000982:                                                                                                 #  ADDRESS WITH THE ABOVE TRANSFERS TO R,VN1 -- PIPTIME1 -- AND MPAC DONE
000983:
000984: 13,2000                                          SETLOC   INTINIT
000985: 13,2000                                          BANK
000986: 13,3543     1127                                 EBANK=   IRETURN1
000987: 13,3543           45020        MIDTOAV2          STQ      CALL
000988: 13,3544           01127                                   IRETURN1
000989: 13,3545           27442                                   INTSTALL
000990: 13,3546           43145                          DLOAD    CLEAR
000991: 13,3547           27711                                   TIMEDELT
000992: 13,3550           04674                                   MID1FLAG
000993: 13,3551           37732                          STCALL   T-TO-ADD
000994: 13,3552           27567                                   ENTMID2
000995:
000996: 13,3553           45020        MIDTOAV1          STQ      CALL
000997: 13,3554           01127                                   IRETURN1
000998: 13,3555           27442                                   INTSTALL
000999: 13,3556           47014                          SET      RTB
001000: 13,3557           04474                                   MID1FLAG
001001: 13,3560           45510                                   LOADTIME
001002: 13,3561           44215                          DAD      BDSU                                  #  INITIAL CHECK, IS TDEC1 IN THE FUTURE
001003: 13,3562           27711                                   TIMEDELT
001004: 13,3563           00041                                   TDEC1
001005: 13,3564           45044                          BPL      CALL
001006: 13,3565           27573                                   ENTMID1
001007:                                                                                                 #  Page 1330
001008: 13,3566           27674                                   NOTIME                                #  NO, SET ALARM, SWITCH TO MIDTOAV2
001009:
001010: 13,3567           43234        ENTMID2           RTB      DAD
001011: 13,3570           45510                                   LOADTIME
001012: 13,3571           03732                                   T-TO-ADD
001013: 13,3572           00041                          STORE    TDEC1
001014:
001015: 13,3573           45014        ENTMID1           CLEAR    CALL
001016: 13,3574           01676                                   DIM0FLAG                              #  NO W-MATRIX
001017: 13,3575           26034                                   THISVINT
001018: 13,3576           43014                          CLEAR    SET
001019: 13,3577           01673                                   INTYPFLG
001020: 13,3600           04475                                   MIDAVFLG                              #  LET INTEG. KNOW THE CALL IS FOR MIDTOAV.
001021: 13,3601           77624                          CALL
001022: 13,3602           27162                                   INTEGRV                               #  GO INTEGRATE
001023: 13,3603           66134                          SXA,2    SXA,1
001024: 13,3604           03746                                   RTX2
001025: 13,3605           03745                                   RTX1
001026: 13,3606           67214                          CLEAR    SLOAD
001027: 13,3607           00275                                   AMOONFLG
001028: 13,3610           03747                                   RTX2
001029: 13,3611           43054                          BZE      SET
001030: 13,3612           27614                                   +2
001031: 13,3613           00075                                   AMOONFLG
001032: 13,3614           77775                          VLOAD
001033: 13,3615           00001                                   RATT
001034: 13,3616           25232                          STOVL    RN1
001035: 13,3617           00007                                   VATT
001036: 13,3620           15240                          STODL    VN1
001037: 13,3621           00015                                   TAT
001038: 13,3622           01246                          STORE    PIPTIME1
001039: 13,3623           77776                          EXIT
001040:
001041: 13,3624           00004                          INHINT
001042: 13,3625           00006                          EXTEND
001043: 13,3626           40025                          DCS      TIME2
001044: 13,3627           20155                          DAS      MPAC
001045: 13,3630           07226                          TC       TPAGREE
001046:
001047: 13,3631           31127                          CA       IRETURN1
001048: 13,3632           04704                          TC       BANKJUMP
001049: 13,3633           47014        CKMID2            BOF      RTB
001050: 13,3634           04754                                   MID1FLAG
001051: 13,3635           27652                                   MID2
001052: 13,3636           45510                                   LOADTIME
001053: 13,3637           44215                          DAD      BDSU
001054: 13,3640           27711                                   TIMEDELT
001055: 13,3641           01101                                   TDEC
001056: 13,3642           45044                          BPL      CALL
001057: 13,3643           27305                                   TESTLOOP                              #  YES
001058:                                                                                                 #  Page 1331
001059: 13,3644           27674                                   NOTIME
001060:
001061: 13,3645           43234        TIMEINC           RTB      DAD
001062: 13,3646           45510                                   LOADTIME
001063: 13,3647           03732                                   T-TO-ADD
001064: 13,3650           35101                          STCALL   TDEC
001065: 13,3651           27305                                   TESTLOOP
001066:
001067: 13,3652           45345        MID2              DLOAD    DSU
001068: 13,3653           01101                                   TDEC
001069: 13,3654           01517                                   TET
001070: 13,3655           45246                          ABS      DSU
001071: 13,3656           27707                                   3CSECS
001072: 13,3657           77644                          BPL
001073: 13,3660           27645                                   TIMEINC
001074:
001075: 13,3661           44234                          RTB      BDSU                                  #  SEE IF 5.6 SECS. AVAILABLE TO CALLER
001076: 13,3662           45510                                   LOADTIME
001077: 13,3663           01517                                   TET
001078: 13,3664           51025                          DSU      BPL
001079: 13,3665           27713                                   5.6SECS
001080: 13,3666           27176                                   A-PCHK                                #  YES. GET OUT.
001081:
001082: 13,3667           43345                          DLOAD    DAD                                   #  NO. ADD TIMEDELT TO T-TO-ADD AND TRY
001083: 13,3670           03732                                   T-TO-ADD                              #  AGAIN.
001084: 13,3671           27711                                   TIMEDELT
001085: 13,3672           37732                          STCALL   T-TO-ADD
001086: 13,3673           27645                                   TIMEINC
001087: 13,3674           77414        NOTIME            CLEAR    EXIT                                  #  TOO LATE
001088: 13,3675           04674                                   MID1FLAG
001089: 13,3676           25127                          INCR     IRETURN1                              #  SET ERROR EXIT (CALLOC +2)
001090: 13,3677           05650                          TC       ALARM                                 #  INSUFFICIENT TIME FOR INTEGRATION --
001091: 13,3700           01703                          OCT      1703                                  #         TIG WILL BE SLIPPED...
001092: 13,3701           06006                          TC       INTPRET
001093: 13,3702           77745                          DLOAD
001094: 13,3703           27711                                   TIMEDELT
001095: 13,3704           03732                          STORE    T-TO-ADD
001096: 13,3705           77616                          RVQ
001097:
001098: 13,3706           00000 00003  3CSECS            2DEC     3          B-28
001099:
001100: 13,3710           00000 02342  TIMEDELT          2DEC     1250       B-28
001101:
001102: 13,3712           00000 01060  5.6SECS           2DEC     560        B-28
001103:
001104: 27,2671                                          BANK     27
001105: 27,2000                                          SETLOC   UPDATE2
001106: 27,2000                                          BANK
001107: 27,2671     0330                                 EBANK=   INTWAKUQ
001108:
001109:                                                                                                 #  Page 1332
001110: 27,2671                                          COUNT*   $$/INTIN
001111:
001112: 27,2671     0330               INTWAKUQ          =        INTWAK1Q                              #  TEMPORARY UNTIL NAME OF INTWAK1Q IS CHNG
001113:
001114: 27,2671           00003        INTWAKEU          RELINT
001115: 27,2672           00006                          EXTEND
001116: 27,2673           22330                          QXCH     INTWAKUQ                              #  SAVE Q FOR RETURN
001117:
001118: 27,2674           06006                          TC       INTPRET
001119:
001120: 27,2675           53135                          SLOAD    BZE                                   #  IS THIS A CSM/LEM STATE VECTOR UPDATE
001121: 27,2676           01502                                   UPSVFLAG                              #  REQUEST.  IF NOT GO TO INTWAKUP.
001122: 27,2677           56736                                   INTWAKUP
001123:
001124: 27,2700           77775                          VLOAD                                          #  MOVE PRECT(6) AND VRECT(6) INTO
001125: 27,2701           01503                                   RRECT                                 #         RCV(6) AND VCV(6) RESPECTIVELY.
001126: 27,2702           25535                          STOVL    RCV
001127: 27,2703           01511                                   VRECT                                 #  NOW GO TO `RECTIFY +13D' TO
001128: 27,2704           77624                          CALL                                           #  STORE VRECT INTO VCV AND ZERO OUT
001129: 27,2705           23436                                   RECTIFY    +13D                       #  TDELTAV(6),TNUV(6),TC(2), AND XKEP(2)
001130: 27,2706           51535                          SLOAD    ABS                                   #  COMPARE ABSOLUTE VALUE OF `UPSVFLAG'
001131: 27,2707           01502                                   UPSVFLAG                              #  TO `UPDATE MOON STATE VECTOR CODE'
001132: 27,2710           53025                          DSU      BZE                                   #  TO DETERMINE WHETHER THE STATE VECTOR TO
001133: 27,2711           16747                                   UPMNSVCD                              #  BE UPDATED IS IN THE EARTH OR LUNAR
001134: 27,2712           56717                                   INTWAKEM                              #  SPHERE OF INFLUENCE........
001135: 27,2713           43174                          AXT,2    CLRGO                                 #  EARTH SPHERE OF INFLUENCE.
001136: 27,2714           00000                          DEC      0          B-14
001137: 27,2715           00223                                   MOONFLAG
001138: 27,2716           56722                                   INTWAKEC
001139: 27,2717           43174        INTWAKEM          AXT,2    SET                                   #  LUNAR SPHERE OF INFLUENCE.
001140: 27,2720           00002                          DEC      2          B-14
001141: 27,2721           00063                                   MOONFLAG
001142: 27,2722           50135        INTWAKEC          SLOAD    BMN                                   #  COMMON CODING AFTER X2 INITIALIZED AND
001143:                                                                                                 #  MOONFLAG SET (OR CLEARED).
001144: 27,2723           01502                                   UPSVFLAG                              #  IS THIS A REQUEST FOR A LEM OR CSM
001145: 27,2724           56732                                   INTWAKLM                              #         STATE VECTOR UPDATE......
001146: 27,2725           77624                          CALL                                           #  UPDATE CSM STATE VECTOR
001147: 27,2726           26705                                   ATOPCSM
001148:
001149: 27,2727           52014                          CLEAR    GOTO
001150: 27,2730           01671                                   ORBWFLAG
001151: 27,2731           56734                                   INTWAKEX
001152:
001153: 27,2732           77624        INTWAKLM          CALL                                           #  UPDATE LM STATE VECTOR
001154: 27,2733           26760                                   ATOPLEM
001155:
001156: 27,2734           77614        INTWAKEX          CLEAR
001157: 27,2735           02676                                   RENDWFLG
001158:
001159: 27,2736           45131        INTWAKUP          SSP      CALL                                  #  REMOVE `UPDATE STATE VECTOR INDICATOR'
001160:                                                                                                 #  Page 1333
001161: 27,2737           01502                                   UPSVFLAG
001162: 27,2740           00000                                   0
001163: 27,2741           27455                                   INTWAKE0                              #  RELEASE `GRAB' OF ORBIT INTEG.
001164: 27,2742           77776                          EXIT
001165:
001166: 27,2743           05412                          TC       PHASCHNG
001167: 27,2744           04026                          OCT      04026
001168: 27,2745           00330                          TC       INTWAKUQ
001169:
001170: 27,2746           00002        UPMNSVCD          OCT      2
001171: 27,2747           00000                          OCT      0
001172:
001173: 27,2750           77420        GRP2PC            STQ      EXIT
001174: 27,2751           03536                                   GRP2SVQ
001175: 27,2752           05412                          TC       PHASCHNG
001176: 27,2753           04022                          OCT      04022
001177: 27,2754           06006                          TC       INTPRET
001178: 27,2755           77650                          GOTO
001179: 27,2756           03536                                   GRP2SVQ
001180:
001181:
001182:

End of include-file INTEGRATION_INITIALIZATION.agc.  Parent file is MAIN.agc


