
Source Code


000002:                                                                                                  ## Copyright:   Public domain.
000003:                                                                                                  ## Filename:    INTERPRETIVE_CONSTANTS.agc
000004:                                                                                                  ## Purpose:     Part of the source code for Colossus 2A, AKA Comanche 055.
000005:                                                                                                  ##              It is part of the source code for the Command Module's (CM)
000006:                                                                                                  ##              Apollo Guidance Computer (AGC), for Apollo 11.
000007:                                                                                                  ## Assembler:   yaYUL
000008:                                                                                                  ## Contact:     Ron Burkey <info@sandroid.org>.
000009:                                                                                                  ## Website:     www.ibiblio.org/apollo.
000010:                                                                                                  ## Pages:       1205-1206
000011:                                                                                                  ## Mod history: 2009-05-13 RSB  Adapted from the Colossus249/ file of the
000012:                                                                                                  ##                              same name, using Comanche055 page images.
000013:                                                                                                  ##              2016-12-21 RSB  Proofed comment text using octopus/ProoferComments
000014:                                                                                                  ##                              but no errors found.
000015:                                                                                                  ##
000016:                                                                                                  ## This source code has been transcribed or otherwise adapted from digitized
000017:                                                                                                  ## images of a hardcopy from the MIT Museum.  The digitization was performed
000018:                                                                                                  ## by Paul Fjeld, and arranged for by Deborah Douglas of the Museum.  Many
000019:                                                                                                  ## thanks to both.  The images (with suitable reduction in storage size and
000020:                                                                                                  ## consequent reduction in image quality as well) are available online at
000021:                                                                                                  ## www.ibiblio.org/apollo.  If for some reason you find that the images are
000022:                                                                                                  ## illegible, contact me at info@sandroid.org about getting access to the
000023:                                                                                                  ## (much) higher-quality images which Paul actually created.
000024:                                                                                                  ##
000025:                                                                                                  ## Notations on the hardcopy document read, in part:
000026:                                                                                                  ##
000027:                                                                                                  ##      Assemble revision 055 of AGC program Comanche by NASA
000028:                                                                                                  ##      2021113-051.  10:28 APR. 1, 1969
000029:                                                                                                  ##
000030:                                                                                                  ##      This AGC program shall also be referred to as
000031:                                                                                                  ##                      Colossus 2A
000032:


000034: 26,2000                                           SETLOC   INTPRET1
000035: 26,2000                                           BANK
000036:
000037: 26,3324                                           COUNT    23/ICONS
000038:
000039: 26,3324           10000 00000  DP1/4TH            2DEC     .25
000040:
000041: 26,3326           00000 00000  UNITZ              2DEC     0          B-28
000042:
000043: 26,3330           00000 00000  UNITY              2DEC     0          B-28
000044:
000045: 26,3332           20000 00000  UNITX              2DEC     .5
000046:
000047: 26,3334           00000 00000  ZEROVECS           2DEC     0          B-28
000048:
000049: 26,3336           00000 00000                     2DEC     0          B-28
000050:
000051: 26,3340           00000 00000                     2DEC     0          B-28
000052:
000053: 26,3342  26,3332               DPHALF             =        UNITX
000054: 26,3342           37777        DPPOSMAX           OCT      37777
000055: 26,3343           37777                           OCT      37777
000056:


000058:                                                                                                  #  INTERPRETIVE CONSTANTS IN THE OTHER HALF-MEMORY
000059:
000060: 04,2000                                           SETLOC   INTPRET2
000061: 04,2000                                           BANK
000062:
000063: 04,3557                                           COUNT    14/ICONS
000064:
000065: 04,3557           00000 00000  ZUNIT              2DEC     0          B-28
000066:
000067: 04,3561           00000 00000  YUNIT              2DEC     0          B-28
000068:
000069: 04,3563           20000 00000  XUNIT              2DEC     .5
000070:
000071: 04,3565           00000 00000  ZEROVEC            2DEC     0          B-28
000072:
000073: 04,3567           00000 00000                     2DEC     0          B-28
000074:
000075: 04,3571           00000 00000                     2DEC     0          B-28
000076:
000077: 04,3573           77777                           OCT      77777                                 #  -0, -6, -12 MUST REMAIN IN THIS ORDER
000078: 04,3574           77771        DEC-6              DEC      -6         B-14
000079: 04,3575           77763        DEC-12             DEC      -12        B-14
000080: 04,3576           37777 37777  LODPMAX            2OCT     3777737777                            #  THESE TWO CONSTANTS MUST REMAIN
000081:
000082: 04,3600           37777 37777  LODPMAX1           2OCT     3777737777                            #  ADJACENT AND THE SAME FOR INTEGRATION
000083:
000084: 04,3602  04,3565               ZERODP             =        ZEROVEC
000085: 04,3602  04,3563               HALFDP             =        XUNIT
000086:
000087:
000088:
000089:

End of include-file INTERPRETIVE_CONSTANTS.agc.  Parent file is MAIN.agc


