
Source Code
000001:                                                                                                 #  Copyright:     Public domain.
000002:                                                                                                 #  Filename:      INTERPRETIVE_CONSTANTS.agc
000003:                                                                                                 #  Purpose:       Part of the source code for Colossus 2A, AKA Comanche 055.
000004:                                                                                                 #                 It is part of the source code for the Command Module's (CM)
000005:                                                                                                 #                 Apollo Guidance Computer (AGC), for Apollo 11.
000006:                                                                                                 #  Assembler:     yaYUL
000007:                                                                                                 #  Contact:       Ron Burkey <info@sandroid.org>.
000008:                                                                                                 #  Website:       www.ibiblio.org/apollo.
000009:                                                                                                 #  Pages: 1205-1206
000010:                                                                                                 #  Mod history:   2009-05-13 RSB  Adapted from the Colossus249/ file of the
000011:                                                                                                 #                                 same name, using Comanche055 page images.
000012:
000013:                                                                                                 #  This source code has been transcribed or otherwise adapted from digitized
000014:                                                                                                 #  images of a hardcopy from the MIT Museum.  The digitization was performed
000015:                                                                                                 #  by Paul Fjeld, and arranged for by Deborah Douglas of the Museum.  Many
000016:                                                                                                 #  thanks to both.  The images (with suitable reduction in storage size and
000017:                                                                                                 #  consequent reduction in image quality as well) are available online at
000018:                                                                                                 #  www.ibiblio.org/apollo.  If for some reason you find that the images are
000019:                                                                                                 #  illegible, contact me at info@sandroid.org about getting access to the
000020:                                                                                                 #  (much) higher-quality images which Paul actually created.
000021:
000022:                                                                                                 #  Notations on the hardcopy document read, in part:
000023:
000024:                                                                                                 #         Assemble revision 055 of AGC program Comanche by NASA
000025:                                                                                                 #         2021113-051.  10:28 APR. 1, 1969
000026:
000027:                                                                                                 #         This AGC program shall also be referred to as
000028:                                                                                                 #                         Colossus 2A
000029:
000030:                                                                                                 #  Page 1205
000031: 26,2000                                          SETLOC   INTPRET1
000032: 26,2000                                          BANK
000033:
000034: 26,3324                                          COUNT    23/ICONS
000035:
000036: 26,3324           10000 00000  DP1/4TH           2DEC     .25
000037:
000038: 26,3326           00000 00000  UNITZ             2DEC     0          B-28
000039:
000040: 26,3330           00000 00000  UNITY             2DEC     0          B-28
000041:
000042: 26,3332           20000 00000  UNITX             2DEC     .5
000043:
000044: 26,3334           00000 00000  ZEROVECS          2DEC     0          B-28
000045:
000046: 26,3336           00000 00000                    2DEC     0          B-28
000047:
000048: 26,3340           00000 00000                    2DEC     0          B-28
000049:
000050: 26,3342  26,3332               DPHALF            =        UNITX
000051: 26,3342           37777        DPPOSMAX          OCT      37777
000052: 26,3343           37777                          OCT      37777
000053:
000054:                                                                                                 #  Page 1206
000055:                                                                                                 #  INTERPRETIVE CONSTANTS IN THE OTHER HALF-MEMORY
000056:
000057: 04,2000                                          SETLOC   INTPRET2
000058: 04,2000                                          BANK
000059:
000060: 04,3557                                          COUNT    14/ICONS
000061:
000062: 04,3557           00000 00000  ZUNIT             2DEC     0          B-28
000063:
000064: 04,3561           00000 00000  YUNIT             2DEC     0          B-28
000065:
000066: 04,3563           20000 00000  XUNIT             2DEC     .5
000067:
000068: 04,3565           00000 00000  ZEROVEC           2DEC     0          B-28
000069:
000070: 04,3567           00000 00000                    2DEC     0          B-28
000071:
000072: 04,3571           00000 00000                    2DEC     0          B-28
000073:
000074: 04,3573           77777                          OCT      77777                                 #  -0, -6, -12 MUST REMAIN IN THIS ORDER
000075: 04,3574           77771        DEC-6             DEC      -6         B-14
000076: 04,3575           77763        DEC-12            DEC      -12        B-14
000077: 04,3576           37777 37777  LODPMAX           2OCT     3777737777                            #  THESE TWO CONSTANTS MUST REMAIN
000078:
000079: 04,3600           37777 37777  LODPMAX1          2OCT     3777737777                            #  ADJACENT AND THE SAME FOR INTEGRATION
000080:
000081: 04,3602  04,3565               ZERODP            =        ZEROVEC
000082: 04,3602  04,3563               HALFDP            =        XUNIT
000083:
000084:
000085:
000086:

End of include-file INTERPRETIVE_CONSTANTS.agc.  Parent file is MAIN.agc


