
Source Code


000002:                                                                                                  ## Copyright:    Public domain.
000003:                                                                                                  ## Filename:     KEYRUPT_UPRUPT.agc
000004:                                                                                                  ## Purpose:      Part of the source code for Comanche, build 055. It
000005:                                                                                                  ##               is part of the source code for the Command Module's
000006:                                                                                                  ##               (CM) Apollo Guidance Computer (AGC), Apollo 11.
000007:                                                                                                  ## Assembler:    yaYUL
000008:                                                                                                  ## Reference:    pp. 1449-1451
000009:                                                                                                  ## Contact:      Ron Burkey <info@sandroid.org>
000010:                                                                                                  ## Website:      http://www.ibiblio.org/apollo.
000011:                                                                                                  ## Mod history:  2009-05-07 RSB Adapted from Colossus249 file of the same
000012:                                                                                                  ##                              name, and page images. Corrected various
000013:                                                                                                  ##                              typos in the transcription of program
000014:                                                                                                  ##                              comments, and these should be back-ported
000015:                                                                                                  ##                              to Colossus249.
000016:                                                                                                  ##              2016-12-22 RSB  Proofed comment text using octopus/ProoferComments
000017:                                                                                                  ##                              and corrected the errors found.
000018:                                                                                                  ##              2017-02-05 RSB  Back-ported comment corrections
000019:                                                                                                  ##                              identified while proofing Artemis 072.
000020:                                                                                                  ##
000021:                                                                                                  ## The contents of the "Comanche055" files, in general, are transcribed
000022:                                                                                                  ## from scanned documents.
000023:                                                                                                  ##
000024:                                                                                                  ##       Assemble revision 055 of AGC program Comanche by NASA
000025:                                                                                                  ##       2021113-051.  April 1, 1969.
000026:                                                                                                  ##
000027:                                                                                                  ##       This AGC program shall also be referred to as Colossus 2A
000028:                                                                                                  ##
000029:                                                                                                  ##       Prepared by
000030:                                                                                                  ##                       Massachusetts Institute of Technology
000031:                                                                                                  ##                       75 Cambridge Parkway
000032:                                                                                                  ##                       Cambridge, Massachusetts
000033:                                                                                                  ##
000034:                                                                                                  ##       under NASA contract NAS 9-4065.
000035:                                                                                                  ##
000036:                                                                                                  ## Refer directly to the online document mentioned above for further
000037:                                                                                                  ## information.  Please report any errors to info@sandroid.org.
000038:


000040: 14,3761                                           BANK     14
000041: 07,2000                                           SETLOC   KEYRUPT
000042: 07,2000                                           BANK
000043: 07,3673                                           COUNT*   $$/KEYUP
000044:
000045: 07,3673           54016        KEYRUPT1           TS       BANKRUPT
000046: 07,3674           56002                           XCH      Q
000047: 07,3675           54012                           TS       QRUPT
000048: 07,3676           04414                           TC       LODSAMPT                              #  TIME IS SNATCHED IN RUPT FOR NOUN 65.
000049: 07,3677           34362                           CAF      LOW5
000050: 07,3700           00006                           EXTEND
000051: 07,3701           02015                           RAND     MNKEYIN                               #  CHECK IF KEYS 5M-1M ON
000052: 07,3702           54073        KEYCOM             TS       RUPTREG4
000053: 07,3703           40101                           CS       FLAGWRD5
000054: 07,3704           75001                           MASK     BIT15
000055: 07,3705           26101                           ADS      FLAGWRD5
000056:
000057: 07,3706           34371        ACCEPTUP           CAF      CHRPRIO                               #  (NOTE: RUPTREG4 = KEYTEMP1)
000058: 07,3707           05134                           TC       NOVAC
000059: 07,3710     0777                                  EBANK=   DSPCOUNT
000060: 07,3710           02000 60101                     2CADR    CHARIN
000061:
000062: 07,3712           30073                           CA       RUPTREG4
000063: 07,3713           50064                           INDEX    LOCCTR
000064: 07,3714           54154                           TS       MPAC                                  #  LEAVE 5 BIT KEY CDE IN MPAC FOR CHARIN
000065: 07,3715           05333                           TC       RESUME
000066:


000068:                                                                                                  #  UPRUPT PROGRAM
000069:
000070: 07,3716           54016        UPRUPT             TS       BANKRUPT
000071: 07,3717           56002                           XCH      Q
000072: 07,3720           54012                           TS       QRUPT
000073: 07,3721           04414                           TC       LODSAMPT                              #  TIME IS SNATCHED IN RUPT FOR NOUN 65.
000074: 07,3722           35021                           CAF      ZERO
000075: 07,3723           56045                           XCH      INLINK
000076: 07,3724           54073                           TS       KEYTEMP1
000077: 07,3725           35015                           CAF      BIT3                                  #  TURN ON UPACT LIGHT
000078: 07,3726           00006                           EXTEND                                         #  (BIT 3 OF CHANNEL 11)
000079: 07,3727           05011                           WOR      DSALMOUT
000080: 07,3730           34362        UPRPT1             CAF      LOW5                                  #  TEST FOR TRIPLE CHAR REDUNDANCY
000081: 07,3731           70073                           MASK     KEYTEMP1                              #  LOW5 OF WORD
000082: 07,3732           56073                           XCH      KEYTEMP1                              #  LOW5 INTO KEYTEMP1
000083: 07,3733           00006                           EXTEND
000084: 07,3734           75006                           MP       BIT10                                 #  SHIFT RIGHT 5
000085: 07,3735           54734                           TS       KEYTEMP2
000086: 07,3736           74362                           MASK     LOW5                                  #  MID 5
000087: 07,3737           63773                           AD       HI10
000088: 07,3740           03770                           TC       UPTEST
000089: 07,3741           35006                           CAF      BIT10
000090: 07,3742           00006                           EXTEND
000091: 07,3743           70734                           MP       KEYTEMP2                              #  SHIFT RIGHT 5
000092: 07,3744           74362                           MASK     LOW5                                  #  HIGH 5
000093: 07,3745           40000                           COM
000094: 07,3746           03770                           TC       UPTEST
000095:
000096: 07,3747           43776        UPOK               CS       ELRCODE                               #  CODE IS GOOD.  IF CODE = 'ERROR RESET',
000097: 07,3750           60073                           AD       KEYTEMP1                              #  CLEAR UPLOCKFL (SET BIT4 OF FLAGWRD7 = 0)
000098: 07,3751           00006                           EXTEND                                         #  IF CODE DOES NOT = 'ERROR RESET', ACCEPT
000099: 07,3752           13760                           BZF      CLUPLOCK                              #  CODE ONLY IF UPLOCKFL IS CLEAR (=0).
000100:
000101: 07,3753           35014                           CAF      BIT4                                  #  TEST UPLOCKFL FOR 0 OR 1.
000102: 07,3754           70103                           MASK     FLAGWRD7
000103: 07,3755           10000                           CCS      A
000104: 07,3756           05333                           TC       RESUME                                #  UPLOCKFL = 1
000105: 07,3757           03706                           TC       ACCEPTUP                              #  UPLOCKFL = 0
000106:
000107: 07,3760           45014        CLUPLOCK           CS       BIT4                                  #  CLEAR UPLOCKFL (I.E., SET BIT 4 OF
000108: 07,3761           70103                           MASK     FLAGWRD7                              #  FLAGWRD7 = 0)
000109: 07,3762           54103                           TS       FLAGWRD7
000110: 07,3763           03706                           TC       ACCEPTUP
000111:
000112:                                                                                                  #  CODE IS BAD
000113: 07,3764           40103        TMFAIL2            CS       FLAGWRD7                              #  LOCK OUT FURTHER UPLINK ACTIVITY
000114: 07,3765           75014                           MASK     BIT4                                  #  (BY SETTING UPLOCKFL = 1) UNTIL
000115: 07,3766           26103                           ADS      FLAGWRD7                              #  'ERROR RESET' IS SENT VIA UPLINK.
000116: 07,3767           05333                           TC       RESUME
000117: 07,3770           60073        UPTEST             AD       KEYTEMP1


000119: 07,3771           10000                           CCS      A
000120: 07,3772           03764                           TC       TMFAIL2
000121: 07,3773           77740        HI10               OCT      77740
000122: 07,3774           03764                           TC       TMFAIL2
000123: 07,3775           00002                           TC       Q
000124:
000125: 07,3776           00022        ELRCODE            OCT      22
000126:
000127:                                                                                                  #  'UPLINK ACTIVITY LIGHT' IS TURNED OFF BY .....
000128:                                                                                                  #        1.      VBRELDSP
000129:                                                                                                  #        2.      ERROR RESET
000130:                                                                                                  #        3.      UPDATE PROGRAM (P27) ENTERED BY V70,V71,V72, AND V73.
000131:
000132:                                                                                                  #                                     -
000133:                                                                                                  #  THE RECEPTION OF A BAD CODE (I.E  CCC FAILURE) LOCKS OUT FURTHER UPLINK ACTIVITY BY SETTING BIT4 OF FLAGWRD7 = 1.
000134:                                                                                                  #  THIS INDICATION WILL BE TRANSFERRED TO THE GROUND BY THE DOWNLINK WHICH DOWNLINKS ALL FLAGWORDS.
000135:                                                                                                  #  WHEN UPLINK ACTIVITY IS LOCKED OUT, IT CAN BE ALLOWED WHEN THE GROUND UPLINKS AND 'ERROR RESET' CODE.
000136:                                                                                                  #  (IT IS RECOMMENDED THAT THE 'ERROR LIGHT RESET' CODE IS PRECEEDED BY 16 BITS THE FIRST OF WHICH IS 1 FOLLOWED
000137:                                                                                                  #  BY 15 ZEROES.  THIS WILL ELIMINATE EXTRANEOUS BITS FROM INLINK WHICH MAY HAVE BEEN LEFT OVER FROM THE ORIGINAL
000138:                                                                                                  #  FAILURE)
000139:
000140:                                                                                                  #  UPLINK ACTIVITY IS ALSO ALLOWED (UNLOCKED) DURING FRESH START WHEN FRESH START SETS BIT4 OF FLAGWRD7 = 0.
000141:
000142:

End of include-file KEYRUPT,_UPRUPT.agc.  Parent file is MAIN.agc


