
Source Code


000002:                                                                                                  ## Copyright:   Public domain.
000003:                                                                                                  ## Filename:    LATITUDE_LONGITUDE_SUBROUTINES.agc
000004:                                                                                                  ## Purpose:     Part of the source code for Colossus 2A, AKA Comanche 055.
000005:                                                                                                  ##              It is part of the source code for the Command Module's (CM)
000006:                                                                                                  ##              Apollo Guidance Computer (AGC), for Apollo 11.
000007:                                                                                                  ## Assembler:   yaYUL
000008:                                                                                                  ## Contact:     Ron Burkey <info@sandroid.org>.
000009:                                                                                                  ## Website:     www.ibiblio.org/apollo.
000010:                                                                                                  ## Pages:       1236-1242
000011:                                                                                                  ## Mod history: 2009-05-14 RSB  Adapted from the Colossus249/ file of the
000012:                                                                                                  ##                              same name, using Comanche055 page images.
000013:                                                                                                  ##              2010-08-20 JL   Fixed indentation of RVQ opcode on line 180.
000014:                                                                                                  ##              2016-12-21 RSB  Proofed comment text using octopus/ProoferComments
000015:                                                                                                  ##                              and corrected the errors found.
000016:                                                                                                  ##              2017-02-05 RSB  Back-ported comment corrections
000017:                                                                                                  ##                              identified while proofing Artemis 072.
000018:                                                                                                  ##              2017-03-15 RSB  Comment-text fixes identified in 5-way
000019:                                                                                                  ##                              side-by-side diff of Luminary 69/99/116/131/210.
000020:
000021:                                                                                                  ## This source code has been transcribed or otherwise adapted from digitized
000022:                                                                                                  ## images of a hardcopy from the MIT Museum.  The digitization was performed
000023:                                                                                                  ## by Paul Fjeld, and arranged for by Deborah Douglas of the Museum.  Many
000024:                                                                                                  ## thanks to both.  The images (with suitable reduction in storage size and
000025:                                                                                                  ## consequent reduction in image quality as well) are available online at
000026:                                                                                                  ## www.ibiblio.org/apollo.  If for some reason you find that the images are
000027:                                                                                                  ## illegible, contact me at info@sandroid.org about getting access to the
000028:                                                                                                  ## (much) higher-quality images which Paul actually created.
000029:                                                                                                  ##
000030:                                                                                                  ## Notations on the hardcopy document read, in part:
000031:                                                                                                  ##
000032:                                                                                                  ##      Assemble revision 055 of AGC program Comanche by NASA
000033:                                                                                                  ##      2021113-051.  10:28 APR. 1, 1969
000034:                                                                                                  ##
000035:                                                                                                  ##      This AGC program shall also be referred to as
000036:                                                                                                  ##                      Colossus 2A
000037:


000039:                                                                                                  #  SUBROUTINE TO CONVERT RAD VECTOR AT GIVEN TIME TO LAT,LONG AND ALT
000040:
000041:                                                                                                  #  CALLING SEQUENCE
000042:                                                                                                  #        L-1     CALL
000043:                                                                                                  #        L               LAT-LONG
000044:
000045:                                                                                                  #  SUBROUTINES USED
000046:                                                                                                  #        R-TO-RP, ARCTAN, SETGAMMA, SETRE
000047:
000048:                                                                                                  #  ERASABLE INIT. REQ.
000049:                                                                                                  #        AXO, -AYO, AZO, TEPHEM (SET AT LAUNCH TIME)
000050:                                                                                                  #        ALPHAV = POSITION VECTOR METERS B-29
000051:                                                                                                  #        MPAC -- TIME (CSECS B-28)
000052:                                                                                                  #        ERADFLAG =1, TO COMPUTE EARTH RADIUS, =0 FOR FIXED EARTH RADIUS
000053:                                                                                                  #        LUNAFLAG=0 FOR EARTH, 1 FOR MOON
000054:
000055:                                                                                                  #  OUTPUT
000056:                                                                                                  #        LATITUDE IN LAT         (REVS. B-0)
000057:                                                                                                  #        LONGITUDE IN LONG       (REVS. B-0)
000058:                                                                                                  #        ALTITUDE IN ALT METERS  B-29
000059:
000060: 30,3750                                           BANK     30
000061: 13,2000                                           SETLOC   LATLONG
000062: 13,2000                                           BANK
000063:
000064: 13,2370                                           COUNT    13/LT-LG
000065:
000066: 13,2370  E4,1551                                  EBANK=   ALPHAV
000067: 13,2370           40220        LAT-LONG           STQ      SETPD
000068: 13,2371           02242                                    INCORPEX
000069: 13,2372           00001                                    0D
000070: 13,2373           24007                           STOVL    6D                                    #  SAVE TIME IN 6-7D FOR R-TO-RP
000071: 13,2374           02152                                    ALPHAV
000072: 13,2375           51406                           PUSH     ABVAL                                 #  0-5D= R FOR R-TO-RP
000073: 13,2376           16310                           STODL    ALPHAM                                #  ABS. VALUE OF R FOR ALT FORMULA BELOW
000074: 13,2377           11566                                    ZEROVEC                               #  SET MPAC=0 FOR EARTH, NON-ZERO FOR MOON
000075: 13,2400           71414                           BOFF     COS                                   #  USE COS(0) TO GET NON-ZERO IN MPAC
000076: 13,2401           01743                                    LUNAFLAG                              #  0=EARTH, 1=MOON
000077: 13,2402           26403                                    CALLRTRP
000078: 13,2403           77624        CALLRTRP           CALL
000079: 13,2404           55371                                    R-TO-RP                               #  RP VECTOR CONVERTED FROM R B-29
000080: 13,2405           77656                           UNIT                                           #  UNIT RP B-1
000081: 13,2406           36152                           STCALL   ALPHAV                                #  U2= 1/2 SINL FOR SETRE SUBR BELOW
000082: 13,2407           26571                                    SETGAMMA                              #        SET GAMMA=B2/A2 FOR EARTH, =1 FOR MOON
000083: 13,2410           77624                           CALL                                           #        SCALED B-1
000084: 13,2411           26601                                    SETRE                                 #  CALC RE METERS B-29
000085: 13,2412           63545                           DLOAD    DSQ
000086: 13,2413           02152                                    ALPHAV
000087: 13,2414           63525                           PDDL     DSQ
000088: 13,2415           02154                                    ALPHAV     +2


000090: 13,2416           75415                           DAD      SQRT
000091: 13,2417           76405                           DMP      SL1R
000092: 13,2420           00011                                    GAMRP
000093: 13,2421           14021                           STODL    COSTH                                 #  COS(LAT) B-1
000094: 13,2422           02156                                    ALPHAV     +4
000095: 13,2423           34023                           STCALL   SINTH                                 #  SIN(LAT) B-1
000096: 13,2424           26531                                    ARCTAN
000097: 13,2425           15104                           STODL    LAT                                   #  LAT B0
000098: 13,2426           02152                                    ALPHAV
000099: 13,2427           14021                           STODL    COSTH                                 #  COS(LONG) B-1
000100: 13,2430           02154                                    ALPHAV     +2
000101: 13,2431           34023                           STCALL   SINTH                                 #  SIN(LONG) B-1
000102: 13,2432           26531                                    ARCTAN
000103: 13,2433           15106                           STODL    LONG                                  #  LONG. REVS B-0 IN RANGE -1/2 TO 1/2
000104: 13,2434           02310                                    ALPHAM
000105: 13,2435           77625                           DSU                                            #  ALT= R-RE METERS B-29
000106: 13,2436           02241                                    ERADM
000107: 13,2437           35110                           STCALL   ALT                                   #  EXIT WITH ALT METERS B-29
000108: 13,2440           02242                                    INCORPEX


000110:                                                                                                  #  SUBROUTINE TO CONVERT LAT,LONG,ALT AT GIVEN TIME TO RADIUS VECTOR
000111:
000112:                                                                                                  #  CALLING SEQUENCE
000113:                                                                                                  #        L-1     CALL
000114:                                                                                                  #        L               LALOTORV
000115:
000116:                                                                                                  #  SUBROUTINES USED
000117:                                                                                                  #        SETGAMMA, SETRE, RP-TO-R
000118:
000119:                                                                                                  #  ERASABLE INIT. REQ.
000120:                                                                                                  #        AXO, AYO, AZO, TEPHEM SET AT LAUNCH TIME
000121:                                                                                                  #        LAT -- LATITUDE         (REVS B0)
000122:                                                                                                  #        LONG -- LONGITUDE       (REVS B0)
000123:                                                                                                  #        ALT -- ALTITUDE         (METERS) B-29
000124:                                                                                                  #        MPAC -- TIME            (CSECS B-28)
000125:                                                                                                  #        ERADFLAG =1 TO COMPUTE EARTH RADIUS, =0 FOR FIXED EARTH RADIUS
000126:                                                                                                  #        LUNAFLAG=0 FOR EARTH, 1 FOR MOON
000127:
000128:                                                                                                  #  OUTPUT
000129:                                                                                                  #        R-VECTOR IN ALPHAV      (METERS B-29)
000130:
000131: 13,2441           40220        LALOTORV           STQ      SETPD                                 #  LAT,LONG,ALT TO R VECTOR
000132: 13,2442           02242                                    INCORPEX
000133: 13,2443           00001                                    0D
000134: 13,2444           34007                           STCALL   6D                                    #      6-7D = TIME FOR RP-TO-R
000135: 13,2445           26571                                    SETGAMMA                              #     GAMMA = B2/A2 FOR EARTH, 1 FOR MOON B-1
000136: 13,2446           73545                           DLOAD    SIN                                   #            COS(LONG)COS(LAT) IN MPAC
000137: 13,2447           01104                                    LAT                                   #  UNIT  RP = SIN(LONG)COS(LAT)    2-3D
000138: 13,2450           65275                           DMPR     PDDL                                  #  PD 2      GAMMA*SIN(LAT)       0-1D
000139: 13,2451           00011                                    GAMRP
000140: 13,2452           01104                                    LAT                                   #      0-1D = GAMMA*SIN(LAT) B-2
000141: 13,2453           65346                           COS      PDDL                                  #  PD4 2-3D= COS(LAT) B-1 TEMPORARILY
000142: 13,2454           01106                                    LONG
000143: 13,2455           57356                           SIN      DMPR                                  #  PD 2
000144: 13,2456           71525                           PDDL     COS                                   #  PD 4 2-3D= SIN(LONG)COS(LAT) B-2
000145: 13,2457           01104                                    LAT
000146: 13,2460           71525                           PDDL     COS                                   #  PD 6 4-5D= COS(LAT) B-1 TEMPORARILY
000147: 13,2461           01106                                    LONG
000148: 13,2462           55475                           DMPR     VDEF                                  #  PD4 MPAC = COS(LONG)COS(LAT) B-2
000149: 13,2463           41456                           UNIT     PUSH                                  #      0-5D = UNIT RP FOR RP-TO-R SUBR.
000150: 13,2464           36152                           STCALL   ALPHAV                                #  ALPHAV +4= SINL FOR SETRE SUBR.
000151: 13,2465           26601                                    SETRE                                 #  RE METERS B-29
000152: 13,2466           43145                           DLOAD    BOFF                                  #  SET MPAC = 0 FOR EARTH, NON-ZERO FOR MOON
000153: 13,2467           11566                                    ZEROVEC
000154: 13,2470           01743                                    LUNAFLAG
000155: 13,2471           26473                                    CALLRPRT
000156: 13,2472           77746                           COS                                            #  USE COS(0) TO GET NON-ZERO IN MPAC
000157: 13,2473           77624        CALLRPRT           CALL
000158: 13,2474           55344                                    RP-TO-R                               #  EXIT WITH UNIT R VECTOR IN MPAC
000159: 13,2475           16152                           STODL    ALPHAV
000160: 13,2476           02241                                    ERADM


000162: 13,2477           74215                           DAD      VXSC                                  #  (RE + ALT)(UNIT R) METERS B-30
000163: 13,2500           01110                                    ALT
000164: 13,2501           02152                                    ALPHAV
000165: 13,2502           77772                           VSL1                                           #  R METERS B-29
000166: 13,2503           36152                           STCALL   ALPHAV                                #  EXIT WITH R IN METERS B-29
000167: 13,2504           02242                                    INCORPEX
000168:
000169:                                                                                                  #  SUBROUTINE TO COMPUTE EARTH RADIUS
000170:
000171:                                                                                                  #  INPUT
000172:                                                                                                  #        1/2 SIN LAT IN ALPHAV +4
000173:
000174:                                                                                                  #  OUTPUT
000175:                                                                                                  #        EARTH RADIUS IN ERADM AND MPAC (METERS B-29)
000176:
000177: 13,2505           63545        GETERAD            DLOAD    DSQ
000178: 13,2506           02156                                    ALPHAV     +4                         #  SIN**2(L)
000179: 13,2507           44352                           SL1      BDSU
000180: 13,2510           11564                                    DP1/2                                 #  COS**2(L)
000181: 13,2511           44275                           DMPR     BDSU
000182: 13,2512           26526                                    EE
000183: 13,2513           11564                                    DP1/2
000184: 13,2514           75465                           BDDV     SQRT
000185: 13,2515           26522                                    B2XSC
000186: 13,2516           77622                           SR4R
000187: 13,2517           02241                           STORE    ERADM
000188: 13,2520           77616                           RVQ
000189:
000190:                                                                                                  #  THE FOLLOWING CONSTANTS WERE COMPUTED WITH A=6378166, B=6356784 METERS
000191:                                                                                                  #  B2XSC = B**2 SCALED B-51
000192:                                                                                                  #  B2/A2 = B**2/A**2 SCALED B-1
000193:                                                                                                  #  EE = (1-B**2/A**2) SCALED B-0
000194:
000195: 13,2521           00446 00305  B2XSC              2DEC     .0179450689                            #  B**2 SCALED B-51
000196:
000197: 13,2523  04,3563               DP1/2              =        XUNIT
000198: 13,2523           17711 05254  B2/A2              2DEC     .9933064884 B-1                        #  GAMMA= B**2/A**2 B-1
000199:
000200: 13,2525           00155 25250  EE                 2DEC     6.6935116  E-3                        #  (1-B**2/A**2) B-0
000201:
000202: 13,2527           00302 17755  ERAD               2DEC     6373338    B-29                       #  PAD RADIUS
000203:


000205:                                                                                                  #  ARCTAN SUBROUTINE
000206:
000207:                                                                                                  #  CALLING SEQUENCE
000208:                                                                                                  #        SIN THETA IN SINTH B-1
000209:                                                                                                  #        COS THETA IN COSTH B-1
000210:                                                                                                  #        CALL ARCTAN
000211:
000212:                                                                                                  #  OUTPUT
000213:                                                                                                  #        ARCTAN THETA IN MPAC AND THETA B-0 IN RANGE -1/2 TO +1/2
000214:
000215: 13,2531           77600        ARCTAN             BOV
000216: 13,2532           26533                                    CLROVFLW
000217: 13,2533           63545        CLROVFLW           DLOAD    DSQ
000218: 13,2534           00023                                    SINTH
000219: 13,2535           63525                           PDDL     DSQ
000220: 13,2536           00021                                    COSTH
000221: 13,2537           77615                           DAD
000222: 13,2540           75454                           BZE      SQRT
000223: 13,2541           26557                                    ARCTANXX                              #  ATAN=0/0  SET THETA=0
000224: 13,2542           40065                           BDDV     BOV
000225: 13,2543           00023                                    SINTH
000226: 13,2544           26564                                    ATAN=90
000227: 13,2545           67542                           SR1      ASIN
000228: 13,2546           00025                           STORE    THETA
000229: 13,2547           50125                           PDDL     BMN
000230: 13,2550           00021                                    COSTH
000231: 13,2551           26553                                    NEGCOS
000232: 13,2552           43545                           DLOAD    RVQ
000233: 13,2553           57545        NEGCOS             DLOAD    DCOMP
000234: 13,2554           43244                           BPL      DAD
000235: 13,2555           26561                                    NEGOUT
000236: 13,2556           11564                                    DP1/2
000237: 13,2557           00025        ARCTANXX           STORE    THETA
000238: 13,2560           77616                           RVQ
000239:
000240: 13,2561           52025        NEGOUT             DSU      GOTO
000241: 13,2562           11564                                    DP1/2
000242: 13,2563           26557                                    ARCTANXX
000243: 13,2564           75345        ATAN=90            DLOAD    SIGN
000244: 13,2565           11612                                    LODP1/4
000245: 13,2566           00023                                    SINTH
000246: 13,2567           00025                           STORE    THETA
000247: 13,2570           77616                           RVQ
000248:
000249: 13,2571  04,3565               2DZERO             =        DPZERO
000250:


000252:                                                                                                  #  ..... SETGAMMA SUBROUTINE .....
000253:                                                                                                  #  SUBROUTINE TO SET GAMMA FOR THE LAT-LONG AND LALOTORV SUBROUTINES
000254:
000255:                                                                                                  #  GAMMA = B**2/A**2 FOR EARTH (B-1)
000256:                                                                                                  #  GAMMA = 1 FOR MOON (B-1)
000257:
000258:                                                                                                  #  CALLING SEQUENCE
000259:                                                                                                  #        L       CALL
000260:                                                                                                  #        L+1             SETGAMMA
000261:
000262:                                                                                                  #  INPUT
000263:                                                                                                  #        LUNAFLAG=0 FOR EARTH, =1 FOR MOON
000264:
000265:                                                                                                  #  OUTPUT
000266:                                                                                                  #        GAMMA IN GAMRP (B-1)
000267:
000268: 13,2571           43145        SETGAMMA           DLOAD    BOFF                                  #  BRANCH FOR EARTH
000269: 13,2572           26524                                    B2/A2                                 #  EARTH GAMMA
000270: 13,2573           01743                                    LUNAFLAG
000271: 13,2574           26577                                    SETGMEX
000272: 13,2575           77735                           SLOAD
000273: 13,2576           11564                                    1B1                                   #  MOON GAMMA
000274: 13,2577           00011        SETGMEX            STORE    GAMRP
000275: 13,2600           77616                           RVQ
000276: 13,2601                        GAMRP              =        8D
000277:


000279:                                                                                                  #  ..... SETRE SUBROUTINE .....
000280:                                                                                                  #  SUBROUTINE TO SET RE (EARTH OR MOON RADIUS)
000281:
000282:                                                                                                  #        RE = RM FOR MOON
000283:                                                                                                  #        RE = RREF FOR FIXED EARTH RADIUS OR COMPUTED RF FOR FISCHER ELLIPSOID
000284:
000285:                                                                                                  #  CALLING SEQUENCE
000286:                                                                                                  #        L       CALL
000287:                                                                                                  #        L+1             SETRE
000288:
000289:                                                                                                  #  SUBROUTINES USED
000290:                                                                                                  #        GETERAD
000291:
000292:                                                                                                  #  INPUT
000293:                                                                                                  #        ERADFLAG = 0 FOR FIXED RE, 1 FOR COMPUTED RE
000294:                                                                                                  #        ALPHAV +4 = 1/2 SINL IF GETERAD IS CALLED
000295:                                                                                                  #        LUNAFLAG = 0 FOR EARTH, =1 FOR MOON
000296:
000297:                                                                                                  #  OUTPUT
000298:                                                                                                  #        ERADM = 504RM FOR MOON (METERS B-29)
000299:                                                                                                  #        ERADM = ERAD OR COMPUTED RF FOR EARTH (METERS B-29)
000300:
000301: 13,2601           71220        SETRE              STQ      DLOAD
000302: 13,2602           00051                                    SETREX
000303: 13,2603           26626                                    504RM
000304: 13,2604           71214                           BON      DLOAD                                 #  BRANCH FOR MOON
000305: 13,2605           01703                                    LUNAFLAG
000306: 13,2606           26616                                    TSTRLSRM
000307: 13,2607           26530                                    ERAD
000308: 13,2610           45014                           BOFF     CALL                                  #  ERADFLAG=0 FOR FIXED RE, 1 FOR COMPUTED
000309: 13,2611           00742                                    ERADFLAG
000310: 13,2612           26614                                    SETRXX
000311: 13,2613           26505                                    GETERAD
000312: 13,2614           36241        SETRXX             STCALL   ERADM                                 #  EXIT WITH RE OR RM METERS B-29
000313: 13,2615           00051                                    SETREX
000314: 13,2616           77214        TSTRLSRM           BON      VLOAD                                 #  ERADFLAG=0, SET R0=RLS
000315: 13,2617           00702                                    ERADFLAG                              #          =1      R0=RM
000316: 13,2620           26614                                    SETRXX
000317: 13,2621           02026                                    RLS
000318: 13,2622           64446                           ABVAL    SR2R                                  #  SCALE FROM B-27 TO B-29
000319: 13,2623           77650                           GOTO
000320: 13,2624           26614                                    SETRXX
000321: 13,2625  0000051               SETREX             =        S2
000322: 13,2625           00065 01265  504RM              2DEC     1738090    B-29                       #  METERS B-29 (MOON RADIUS)
000323:
000324:
000325:
000326:

End of include-file LATITUDE_LONGITUDE_SUBROUTINES.agc.  Parent file is MAIN.agc


