
Source Code


000002:                                                                                                  ## Copyright:    Public domain.
000003:                                                                                                  ## Filename:     LUNAR_AND_SOLAR_EPHEMERIDES_SUBROUTINES.agc
000004:                                                                                                  ## Purpose:      Part of the source code for Comanche, build 055. It
000005:                                                                                                  ##               is part of the source code for the Command Module's
000006:                                                                                                  ##               (CM) Apollo Guidance Computer (AGC), Apollo 11.
000007:                                                                                                  ## Assembler:    yaYUL
000008:                                                                                                  ## Reference:    pp. 785-788
000009:                                                                                                  ## Contact:      Ron Burkey <info@sandroid.org>
000010:                                                                                                  ## Website:      http://www.ibiblio.org/apollo.
000011:                                                                                                  ## Mod history:  2009-05-12 RSB Adapted from Colossus249 file of the same
000012:                                                                                                  ##                              name and Comanche 055 page images.
000013:                                                                                                  ##              2009-07-26 RSB  Added annotations related to computation
000014:                                                                                                  ##                              of the ephemeral(?) polynomials.
000015:                                                                                                  ##
000016:                                                                                                  ## The contents of the "Comanche055" files, in general, are transcribed
000017:                                                                                                  ## from scanned documents.
000018:                                                                                                  ##
000019:                                                                                                  ##       Assemble revision 055 of AGC program Comanche by NASA
000020:                                                                                                  ##       2021113-051.  April 1, 1969.
000021:                                                                                                  ##
000022:                                                                                                  ##       This AGC program shall also be referred to as Colossus 2A
000023:                                                                                                  ##
000024:                                                                                                  ##       Prepared by
000025:                                                                                                  ##                       Massachusetts Institute of Technology
000026:                                                                                                  ##                       75 Cambridge Parkway
000027:                                                                                                  ##                       Cambridge, Massachusetts
000028:                                                                                                  ##
000029:                                                                                                  ##       under NASA contract NAS 9-4065.
000030:                                                                                                  ##
000031:                                                                                                  ## Refer directly to the online document mentioned above for further
000032:                                                                                                  ## information.  Please report any errors to info@sandroid.org.
000033:


000035:                                                                                                  #  LUNAR AND SOLAR EPHEMERIDES SUBROUTINES
000036:
000037:                                                                                                  #  FUNCTIONAL DESCRIPTION
000038:
000039:                                                                                                  #        THESE SUBROUTINES ARE USED TO DETERMINE THE POSITION AND VELOCITY
000040:                                                                                                  #        VECTORS OF THE SUN AND THE MOON RELATIVE TO THE EARTH AT THE
000041:                                                                                                  #        SPECIFIED GROUND ELAPSED TIME INPUT BY THE USER.
000042:
000043:                                                                                                  #        THE POSITION OF THE MOON IS STORED IN THE COMPUTER IN THE FORM OF
000044:                                                                                                  #        A NINTH DEGREE POLYNOMIAL APPROXIMATION WHICH IS VALID OVER A 15
000045:                                                                                                  #        DAY INTERVAL BEGINNING SHORTLY BEFORE LAUNCH.  THEREFORE THE TIME
000046:                                                                                                  #        INPUT BY THE USER SHOULD FALL WITHIN THIS 15 DAY INTERVAL.


000054:
000055:                                                                                                  #        LSPOS COMPUTES THE POSITION VECTORS OF THE SUN AND THE MOON.
000056:
000057:                                                                                                  #        LUNPOS COMPUTES THE POSITION VECTOR OF THE MOON.
000058:
000059:                                                                                                  #        LUNVEL COMPUTES THE VELOCITY VECTOR OF THE MOON.
000060:
000061:                                                                                                  #        SOLPOS COMPUTES THE POSITION VECTOR OF THE SUN.
000062:
000063:                                                                                                  #  CALLING SEQUENCE
000064:
000065:                                                                                                  #        DLOAD   CALL
000066:                                                                                                  #                TIME            GROUND ELAPSED TIME
000067:                                                                                                  #                SUBROUTINE      LSPOS OR LUNPOS OR LUNVEL OR SOLPOS
000068:
000069:                                                                                                  #  INPUT
000070:
000071:                                                                                                  #        1) SPECIFIED GROUND ELAPSED TIME IN CS x B-28 LOADED IN MPAC.
000072:
000073:                                                                                                  #        2) TIMEMO -- TIME AT THE CENTER OF THE RANGE OVER WHICH THE LUNAR
000074:                                                                                                  #        POSITION POLYNOMIAL IS VALID IN CS x B-42.
000075:
000076:                                                                                                  #        3) VECOEM -- VECTOR COEFFICIENTS OF THE LUNAR POSITION POLYNOMIAL
000077:                                                                                                  #        LOADED IN DESCENDING SEQUENCE IN METERS/CS**N x B-2
000078:
000079:                                                                                                  #        4) RESO -- POSITION VECTOR OF THE SUN RELATIVE TO THE EARTH AT
000080:                                                                                                  #        TIMEMO IN METERS x B-38
000081:
000082:                                                                                                  #        5) VESO -- VELOCITY VECTOR OF THE SUN RELATIVE TO THE EARTH AT
000083:                                                                                                  #        TIMEMO IN METERS/CS x B-9
000084:                                                                                                  #
000085:                                                                                                  #        6) OMEGAES -- ANGULAR VELOCITY OF THE VECTOR RESO AT TIMEMO IN
000086:                                                                                                  #        REV/CS x B+26
000087:
000088:                                                                                                  #        ALL EXCEPT THE FIRST INPUT ARE INCLUDED IN THE PRE-LAUNCH
000089:                                                                                                  #        ERASABLE DATA LOAD.
000090:
000091:                                                                                                  #  OUTPUT -- LSPOS


000093:
000094:                                                                                                  #        1) 2D OF VAC AREA CONTAINS THE POSITION VECTOR OF THE SUN RELATIVE
000095:                                                                                                  #        TO THE EARTH AT TIME INPUT BY THE USER IN METERS x B-38.
000096:
000097:                                                                                                  #        2) MPAC CONTAINS THE POSITION VECTOR OF THE MOON RELATIVE TO THE
000098:                                                                                                  #        EARTH AT TIME INPUT BY THE USER IN METERS x B-29
000099:
000100:                                                                                                  #  OUTPUT -- LUNPOS
000101:
000102:                                                                                                  #        MPAC CONTAINS THE POSITION VECTOR OF THE MOON RELATIVE TO THE
000103:                                                                                                  #        EARTH AT THE TIME INPUT BY USER IN METERS x B-29
000104:
000105:                                                                                                  #  OUTPUT -- LUNVEL
000106:
000107:                                                                                                  #        MPAC CONTAINS THE VELOCITY VECTOR OF THE MOON RELATIVE TO THE
000108:                                                                                                  #        EARTH AT THE TIME INPUT BY THE USER IN METERS/CS x B-7
000109:
000110:                                                                                                  #  OUTPUT -- SOLPOS
000111:
000112:                                                                                                  #        MPAC CONTAINS THE POSITION VECTOR OF THE SUN RELATIVE TO THE EARTH
000113:                                                                                                  #        AT TIME INPUT BY THE USER IN METERS x B-38.
000114:
000115:                                                                                                  #  SUBROUTINES USED
000116:
000117:                                                                                                  #        NONE
000118:
000119:                                                                                                  #  REMARKS
000120:
000121:                                                                                                  #        THE VAC AREA IS USED FOR STORAGE OF INTERMEDIATE AND FINAL RESULTS
000122:                                                                                                  #        OF COMPUTATIONS.
000123:
000124:                                                                                                  #        S1, X1, AND X2 ARE USED BY THESE SUBROUTINES.
000125:
000126:                                                                                                  #        PRELAUNCH ERASABLE DATA LOAD ARE ONLY ERASABLE STORAGE USED BY
000127:                                                                                                  #        THESE SUBROUTINES.
000128:
000129:                                                                                                  #        RESTARTS DURING OPERATION OF THESE SUBROUTINES MUST BE HANDLED BY
000130:                                                                                                  #        THE USER.
000131:
000132: 36,2466                                           BANK     36
000133: 26,2000                                           SETLOC   EPHEM
000134: 26,2000                                           BANK
000135:
000136: 26,2110                                           COUNT*   $$/EPHEM
000137: 26,2110  E7,1777                                  EBANK=   END-E7
000138: 26,2110           77774        LSPOS              AXT,2                                          #  COMPUTES POSITION VECTORS OF BOTH THE
000139: 26,2111           54161                                    RESA                                  #  SUN AND THE MOON.  THE POSITION VECTOR
000140: 26,2112           52170                           AXT,1    GOTO                                  #  OF THE SUN IS STORED IN 2D OF THE VAC
000141: 26,2113           54143                                    RES                                   #  AREA.  THE POSITION VECTOR OF THE MOON
000142: 26,2114           54126                                    LSTIME                                #  IS STORED IN MPAC.
000143: 26,2115           52170        LUNPOS             AXT,1    GOTO                                  #  COMPUTES THE POSITION VECTOR OF THE MOON
000144: 26,2116           54162                                    REM                                   #  AND STORES IT IN MPAC.
000145: 26,2117           54126                                    LSTIME


000147: 26,2120           52170        LUNVEL             AXT,1    GOTO                                  #  COMPUTES THE VELOCITY VECTOR OF THE MOON
000148: 26,2121           54173                                    VEM                                   #  AND STORES IT IN MPAC.
000149: 26,2122           54126                                    LSTIME
000150: 26,2123           76020        SOLPOS             STQ      AXT,1                                 #  COMPUTES THE POSITION VECTOR OF THE SUN
000151: 26,2124           00047                                    X2                                    #  AND STORES IT IN MPAC.
000152: 26,2125           54143                                    RES
000153: 26,2126           54201        LSTIME             SETPD    SR
000154: 26,2127           00001                                    0D
000155: 26,2130           20617                                    14D
000156: 26,2131           57571                           TAD      DCOMP
000157: 26,2132           01707                                    TEPHEM
000158: 26,2133           57571                           TAD      DCOMP
000159: 26,2134           02034                                    TIMEMO
000160: 26,2135           66261                           SL       SSP
000161: 26,2136           20221                                    16D
000162: 26,2137           00051                                    S1
000163: 26,2140           00006                                    6D
000164: 26,2141           77650                           GOTO
000165: 26,2142           00046                                    X1
000166: 26,2143           41206        RES                PUSH     DMP                                   #                                        PD- 2
000167: 26,2144           02147                                    OMEGAES
000168: 26,2145           71406                           PUSH     COS                                   #                                        PD- 4
000169: 26,2146           65361                           VXSC     PDDL                                  #                                        PD- 8
000170: 26,2147           02133                                    RESO
000171: 26,2150           63356                           SIN      PDVL                                  #                                        PD-10
000172: 26,2151           02133                                    RESO
000173: 26,2152           53406                           PUSH     UNIT                                  #                                        PD-16
000174: 26,2153           53435                           VXV      UNIT
000175: 26,2154           02141                                    VESO
000176: 26,2155           76435                           VXV      VSL1                                  #                                        PD-10
000177: 26,2156           53361                           VXSC     VAD                                   #                                        PD-02
000178: 26,2157           52172                           VSL1     GOTO                                  #  RES IN METERS x B-38 IN MPAC.
000179: 26,2160           00047                                    X2
000180: 26,2161           14003        RESA               STODL    2D                                    #  RES IN METERS x B-38 IN 2D OF VAC.    PD- 0
000181: 26,2162           63370        REM                AXT,1    PDVL                                  #                                        PD- 2
000182: 26,2163           00066                                    54D
000183: 26,2164           02037                                    VECOEM
000184: 26,2165           52761        REMA               VXSC     VAD*
000185: 26,2166           00001                                    0D
000186: 26,2167           02133                                    VECOEM     +60D,1
000187: 26,2170           72500                           TIX,1    VSL2                                  #  REM IN METERS x B-29 IN MPAC.
000188: 26,2171           54165                                    REMA
000189: 26,2172           77616                           RVQ
000190: 26,2173           65370        VEM                AXT,1    PDDL                                  #                                        PD- 2
000191: 26,2174           00060                                    48D
000192: 26,2175           14214                                    NINEB4
000193: 26,2176           74206                           PUSH     VXSC                                  #                                        PD- 4
000194: 26,2177           02037                                    VECOEM
000195: 26,2200           77761        VEMA               VXSC
000196: 26,2201           00001                                    0D


000198: 26,2202           14005                           STODL    4D                                    #                                        PD- 2
000199: 26,2203           41425                           DSU      PUSH                                  #                                        PD- 4
000200: 26,2204           14216                                    ONEB4
000201: 26,2205           53357                           VXSC*    VAD
000202: 26,2206           02125                                    VECOEM     +54D,1
000203: 26,2207           00005                                    4D
000204: 26,2210           72500                           TIX,1    VSL2                                  #  VEM IN METERS/CS x B-7 IN MPAC.
000205: 26,2211           54200                                    VEMA
000206: 26,2212           77616                           RVQ
000207: 26,2213           22000 00000  NINEB4             2DEC     9.0        B-4
000208:
000209: 26,2215           02000 00000  ONEB4              2DEC     1.0        B-4
000210:
000211:
000212:

End of include-file LUNAR_AND_SOLAR_EPHEMERIDES_SUBROUTINES.agc.  Parent file is MAIN.agc


