
Source Code
000001:                                                                                                 #  Copyright:    Public domain.
000002:                                                                                                 #  Filename:     LUNAR_AND_SOLAR_EPHEMERIDES_SUBROUTINES.agc
000003:                                                                                                 #  Purpose:      Part of the source code for Comanche, build 055. It
000004:                                                                                                 #                is part of the source code for the Command Module's
000005:                                                                                                 #                (CM) Apollo Guidance Computer (AGC), Apollo 11.
000006:                                                                                                 #  Assembler:    yaYUL
000007:                                                                                                 #  Reference:    pp. 785-788
000008:                                                                                                 #  Contact:      Ron Burkey <info@sandroid.org>
000009:                                                                                                 #  Website:      http://www.ibiblio.org/apollo.
000010:                                                                                                 #  Mod history:  2009-05-12 RSB   Adapted from Colossus249 file of the same
000011:                                                                                                 #                                 name and Comanche 055 page images.
000012:                                                                                                 #                 2009-07-26 RSB  Added annotations related to computation
000013:                                                                                                 #                                 of the ephemeral(?) polynomials.
000014:
000015:                                                                                                 #  The contents of the "Comanche055" files, in general, are transcribed
000016:                                                                                                 #  from scanned documents.
000017:
000018:                                                                                                 #        Assemble revision 055 of AGC program Comanche by NASA
000019:                                                                                                 #        2021113-051.  April 1, 1969.
000020:
000021:                                                                                                 #        This AGC program shall also be referred to as Colossus 2A
000022:
000023:                                                                                                 #        Prepared by
000024:                                                                                                 #                        Massachussets Institute of Technology
000025:                                                                                                 #                        75 Cambridge Parkway
000026:                                                                                                 #                        Cambridge, Massachusetts
000027:
000028:                                                                                                 #        under NASA contract NAS 9-4065.
000029:
000030:                                                                                                 #  Refer directly to the online document mentioned above for further
000031:                                                                                                 #  information.  Please report any errors to info@sandroid.org.
000032:
000033:                                                                                                 #  Page 785
000034:                                                                                                 #  LUNAR AND SOLAR EPHEMERIDES SUBROUTINES
000035:
000036:                                                                                                 #  FUNCTIONAL DESCRIPTION
000037:
000038:                                                                                                 #         THESE SUBROUTINES ARE USED TO DETERMINE THE POSITION AND VELOCITY
000039:                                                                                                 #         VECTORS OF THE SUN AND THE MOON RELATIVE TO THE EARTH AT THE
000040:                                                                                                 #         SPECIFIED GROUND ELAPSED TIME INPUT BY THE USER.
000041:
000042:                                                                                                 #         THE POSITION OF THE MOON IS STORED IN THE COMPUTER IN THE FORM OF
000043:                                                                                                 #         A NINTH DEGREE POLYNOMIAL APPROXIMATION WHICH IS VALID OVER A 15
000044:                                                                                                 #         DAY INTERVAL BEGINNING SHORTLY BEFORE LAUNCH.  THEREFORE THE TIME
000045:                                                                                                 #         INPUT BY THE USER SHOULD FALL WITHIN THIS 15 DAY INTERVAL.
000046:                                                                                                 # #       The 9th-degree polynomial spoken of here is a pad load, meaning
000047:                                                                                                 # #       that it is not actually hardcoded into the software.  Additional
000048:                                                                                                 # #       information about calculating the polynomial can be found on the
000049:                                                                                                 # #       <a href="http://nassp.sourceforge.net/wiki/Lunar_Ephemeris_Polynomials">
000050:                                                                                                 # #       <b>Orbiter</b> NASSP wiki</a>, as well as information about calculation
000051:                                                                                                 # #       of the <a href="http://nassp.sourceforge.net/wiki/Solar_Ephemeris">
000052:                                                                                                 # #       solar ephemerides</a>.
000053:
000054:                                                                                                 #         LSPOS COMPUTES THE POSITION VECTORS OF THE SUN AND THE MOON.
000055:
000056:                                                                                                 #         LUNPOS COMPUTES THE POSITION VECTOR OF THE MOON.
000057:
000058:                                                                                                 #         LUNVEL COMPUTES THE VELOCITY VECTOR OF THE MOON.
000059:
000060:                                                                                                 #         SOLPOS COMPUTES THE POSITION VECTOR OF THE SUN.
000061:
000062:                                                                                                 #  CALLING SEQUENCE
000063:
000064:                                                                                                 #         DLOAD   CALL
000065:                                                                                                 #                 TIME            GROUND ELAPSED TIME
000066:                                                                                                 #                 SUBROUTINE      LSPOS OR LUNPOS OR LUNVEL OR SOLPOS
000067:
000068:                                                                                                 #  INPUT
000069:
000070:                                                                                                 #         1) SPECIFIED GROUND ELAPSED TIME IN CS x B-28 LOADED IN MPAC.
000071:
000072:                                                                                                 #         2) TIMEMO -- TIME AT THE CENTER OF THE RANGE OVER WHICH THE LUNAR
000073:                                                                                                 #         POSITION POLYNOMIAL IS VALID IN CS x B-42.
000074:
000075:                                                                                                 #         3) VECOEM -- VECTOR COEFFICIENTS OF THE LUNAR POSITION POLYNOMIAL
000076:                                                                                                 #         LOADED IN DESCENDING SEQUENCE IN METERS/CS**N x B-2
000077:
000078:                                                                                                 #         4) RESO -- POSITION VECTOR OF THE SUN RELATIVE TO THE EARTH AT
000079:                                                                                                 #         TIMEMO IN METERS x B-38
000080:
000081:                                                                                                 #         5) VESO -- VELOCITY VECTOR OF THE SUN RELATIVE TO THE EARTH AT
000082:                                                                                                 #         TIMEMO IN METERS/CS x B-9
000083:                                                                                                 #
000084:                                                                                                 #         6) OMEGAES -- ANGULAR VELOCITY OF THE VECTOR RESO AT TIMEMO IN
000085:                                                                                                 #         REV/CS x B+26
000086:
000087:                                                                                                 #         ALL EXCEPT THE FIRST INPUT ARE INCLUDED IN THE PRE-LAUNCH
000088:                                                                                                 #         ERASABLE DATA LOAD.
000089:
000090:                                                                                                 #  OUTPUT -- LSPOS
000091:                                                                                                 #  Page 786
000092:
000093:                                                                                                 #         1) 2D OF VAC AREA CONTAINS THE POSITION VECTOR OF THE SUN RELATIVE
000094:                                                                                                 #         TO THE EARTH AT TIME INPUT BY THE USER IN METERS x B-38.
000095:
000096:                                                                                                 #         2) MPAC CONTAINS THE POSITION VECTOR OF THE MOON RELATIVE TO THE
000097:                                                                                                 #         EARTH AT TIME INPUT BY THE USER IN METERS x B-29
000098:
000099:                                                                                                 #  OUTPUT -- LUNPOS
000100:
000101:                                                                                                 #         MPAC CONTAINS THE POSITION VECTOR OF THE MOON RELATIVE TO THE
000102:                                                                                                 #         EARTH AT THE TIME INPUT BY USER IN METERS x B-29
000103:
000104:                                                                                                 #  OUTPUT -- LUNVEL
000105:
000106:                                                                                                 #         MPAC CONTAINS THE VELOCITY VECTOR OF THE MOON RELATIVE TO THE
000107:                                                                                                 #         EARTH AT THE TIME INPUT BY THE USER IN METERS/CS x B-7
000108:
000109:                                                                                                 #  OUTPUT -- SOLPOS
000110:
000111:                                                                                                 #         MPAC CONTAINS THE POSITION VECTOR OF THE SUN RELATIVE TO THE EARTH
000112:                                                                                                 #         AT TIME INPUT BY THE USER IN METERS x B-38.
000113:
000114:                                                                                                 #  SUBROUTINES USED
000115:
000116:                                                                                                 #         NONE
000117:
000118:                                                                                                 #  REMARKS
000119:
000120:                                                                                                 #         THE VAC AREA IS USED FOR STORAGE OF INTERMEDIATE AND FINAL RESULTS
000121:                                                                                                 #         OF COMPUTATIONS.
000122:
000123:                                                                                                 #         S1, X1, AND X2 ARE USED BY THESE SUBROUTINES.
000124:
000125:                                                                                                 #         PRELAUNCH ERASABLE DATA LOAD ARE ONLY ERASABLE STORAGE USED BY
000126:                                                                                                 #         THESE SUBROUTINES.
000127:
000128:                                                                                                 #         RESTARTS DURING OPERATION OF THESE SUBROUTINES MUST BE HANDLED BY
000129:                                                                                                 #         THE USER.
000130:
000131: 36,2466                                          BANK     36
000132: 26,2000                                          SETLOC   EPHEM
000133: 26,2000                                          BANK
000134:
000135: 26,2110                                          COUNT*   $$/EPHEM
000136: 26,2110  E7,1777                                 EBANK=   END-E7
000137: 26,2110           77774        LSPOS             AXT,2                                          #  COMPUTES POSITION VECTORS OF BOTH THE
000138: 26,2111           54161                                   RESA                                  #  SUN AND THE MOON.  THE POSITION VECTOR
000139: 26,2112           52170                          AXT,1    GOTO                                  #  OF THE SUN IS STORED IN 2D OF THE VAC
000140: 26,2113           54143                                   RES                                   #  AREA.  THE POSITION VECTOR OF THE MOON
000141: 26,2114           54126                                   LSTIME                                #  IS STORED IN MPAC.
000142: 26,2115           52170        LUNPOS            AXT,1    GOTO                                  #  COMPUTES THE POSITION VECTOR OF THE MOON
000143: 26,2116           54162                                   REM                                   #  AND STORES IT IN MPAC.
000144: 26,2117           54126                                   LSTIME
000145:                                                                                                 #  Page 787
000146: 26,2120           52170        LUNVEL            AXT,1    GOTO                                  #  COMPUTES THE VELOCITY VECTOR OF THE MOON
000147: 26,2121           54173                                   VEM                                   #  AND STORES IT IN MPAC.
000148: 26,2122           54126                                   LSTIME
000149: 26,2123           76020        SOLPOS            STQ      AXT,1                                 #  COMPUTES THE POSITION VECTOR OF THE SUN
000150: 26,2124           00047                                   X2                                    #  AND STORES IT IN MPAC.
000151: 26,2125           54143                                   RES
000152: 26,2126           54201        LSTIME            SETPD    SR
000153: 26,2127           00001                                   0D
000154: 26,2130           20617                                   14D
000155: 26,2131           57571                          TAD      DCOMP
000156: 26,2132           01707                                   TEPHEM
000157: 26,2133           57571                          TAD      DCOMP
000158: 26,2134           02034                                   TIMEMO
000159: 26,2135           66261                          SL       SSP
000160: 26,2136           20221                                   16D
000161: 26,2137           00051                                   S1
000162: 26,2140           00006                                   6D
000163: 26,2141           77650                          GOTO
000164: 26,2142           00046                                   X1
000165: 26,2143           41206        RES               PUSH     DMP                                   #                                         PD- 2
000166: 26,2144           02147                                   OMEGAES
000167: 26,2145           71406                          PUSH     COS                                   #                                         PD- 4
000168: 26,2146           65361                          VXSC     PDDL                                  #                                         PD- 8
000169: 26,2147           02133                                   RESO
000170: 26,2150           63356                          SIN      PDVL                                  #                                         PD-10
000171: 26,2151           02133                                   RESO
000172: 26,2152           53406                          PUSH     UNIT                                  #                                         PD-16
000173: 26,2153           53435                          VXV      UNIT
000174: 26,2154           02141                                   VESO
000175: 26,2155           76435                          VXV      VSL1                                  #                                         PD-10
000176: 26,2156           53361                          VXSC     VAD                                   #                                         PD-02
000177: 26,2157           52172                          VSL1     GOTO                                  #  RES IN METERS x B-38 IN MPAC.
000178: 26,2160           00047                                   X2
000179: 26,2161           14003        RESA              STODL    2D                                    #  RES IN METERS x B-38 IN 2D OF VAC.     PD- 0
000180: 26,2162           63370        REM               AXT,1    PDVL                                  #                                         PD- 2
000181: 26,2163           00066                                   54D
000182: 26,2164           02037                                   VECOEM
000183: 26,2165           52761        REMA              VXSC     VAD*
000184: 26,2166           00001                                   0D
000185: 26,2167           02133                                   VECOEM     +60D,1
000186: 26,2170           72500                          TIX,1    VSL2                                  #  REM IN METERS x B-29 IN MPAC.
000187: 26,2171           54165                                   REMA
000188: 26,2172           77616                          RVQ
000189: 26,2173           65370        VEM               AXT,1    PDDL                                  #                                         PD- 2
000190: 26,2174           00060                                   48D
000191: 26,2175           14214                                   NINEB4
000192: 26,2176           74206                          PUSH     VXSC                                  #                                         PD- 4
000193: 26,2177           02037                                   VECOEM
000194: 26,2200           77761        VEMA              VXSC
000195: 26,2201           00001                                   0D
000196:                                                                                                 #  Page 788
000197: 26,2202           14005                          STODL    4D                                    #                                         PD- 2
000198: 26,2203           41425                          DSU      PUSH                                  #                                         PD- 4
000199: 26,2204           14216                                   ONEB4
000200: 26,2205           53357                          VXSC*    VAD
000201: 26,2206           02125                                   VECOEM     +54D,1
000202: 26,2207           00005                                   4D
000203: 26,2210           72500                          TIX,1    VSL2                                  #  VEM IN METERS/CS x B-7 IN MPAC.
000204: 26,2211           54200                                   VEMA
000205: 26,2212           77616                          RVQ
000206: 26,2213           22000 00000  NINEB4            2DEC     9.0        B-4
000207:
000208: 26,2215           02000 00000  ONEB4             2DEC     1.0        B-4
000209:
000210:
000211:

End of include-file LUNAR_AND_SOLAR_EPHEMERIDES_SUBROUTINES.agc.  Parent file is MAIN.agc


