
Source Code


000002:                                                                                                  ## Copyright:   Public domain.
000003:                                                                                                  ## Filename:    MYSUBS.agc
000004:                                                                                                  ## Purpose:     Part of the source code for Colossus 2A, AKA Comanche 055.
000005:                                                                                                  ##              It is part of the source code for the Command Module's (CM)
000006:                                                                                                  ##              Apollo Guidance Computer (AGC), for Apollo 11.
000007:                                                                                                  ## Assembler:   yaYUL
000008:                                                                                                  ## Contact:     Ron Burkey <info@sandroid.org>.
000009:                                                                                                  ## Website:     www.ibiblio.org/apollo.
000010:                                                                                                  ## Pages:       999-1001
000011:                                                                                                  ## Mod history: 2009-05-13 RSB  Adapted from the Colossus249/ file of the
000012:                                                                                                  ##                              same name, using Comanche055 page images.
000013:                                                                                                  ##              2009-05-20 RSB  Corrections: EBANK= changed from MPAC to KMPAC.
000014:                                                                                                  ##              2016-12-21 RSB  Proofed comment text using octopus/ProoferComments
000015:                                                                                                  ##                              but no errors found.
000016:                                                                                                  ##
000017:                                                                                                  ## This source code has been transcribed or otherwise adapted from digitized
000018:                                                                                                  ## images of a hardcopy from the MIT Museum.  The digitization was performed
000019:                                                                                                  ## by Paul Fjeld, and arranged for by Deborah Douglas of the Museum.  Many
000020:                                                                                                  ## thanks to both.  The images (with suitable reduction in storage size and
000021:                                                                                                  ## consequent reduction in image quality as well) are available online at
000022:                                                                                                  ## www.ibiblio.org/apollo.  If for some reason you find that the images are
000023:                                                                                                  ## illegible, contact me at info@sandroid.org about getting access to the
000024:                                                                                                  ## (much) higher-quality images which Paul actually created.
000025:                                                                                                  ##
000026:                                                                                                  ## Notations on the hardcopy document read, in part:
000027:                                                                                                  ##
000028:                                                                                                  ##      Assemble revision 055 of AGC program Comanche by NASA
000029:                                                                                                  ##      2021113-051.  10:28 APR. 1, 1969
000030:                                                                                                  ##
000031:                                                                                                  ##      This AGC program shall also be referred to as
000032:                                                                                                  ##                      Colossus 2A
000033:


000035: 20,3612                                           BANK     20
000036: 21,2000                                           SETLOC   MYSUBS
000037: 21,2000                                           BANK
000038:
000039: 21,2042  E6,1510                                  EBANK=   KMPAC
000040: 21,2042     5074               SPCOS1             EQUALS   SPCOS
000041: 21,2042     5075               SPSIN1             EQUALS   SPSIN
000042: 21,2042     5074               SPCOS2             EQUALS   SPCOS
000043: 21,2042     5075               SPSIN2             EQUALS   SPSIN
000044:
000045: 21,2042                                           COUNT    21/DAPMS
000046:
000047:                                                                                                  #  ONE AND ONE HALF PRECISION MULTIPLICATION ROUTINE
000048:
000049: 21,2042           55512        SMALLMP            TS       KMPTEMP                               #  A(X+Y)
000050: 21,2043           00006                           EXTEND
000051: 21,2044           71511                           MP       KMPAC      +1
000052: 21,2045           55511                           TS       KMPAC      +1                         #  AY
000053: 21,2046           35021                           CAF      ZERO
000054: 21,2047           57510                           XCH      KMPAC
000055: 21,2050           00006                           EXTEND
000056: 21,2051           71512                           MP       KMPTEMP                               #  AX
000057: 21,2052           21511                           DAS      KMPAC                                 #  AX+AY
000058: 21,2053           00002                           TC       Q
000059:
000060:                                                                                                  #  SUBROUTINE FOR DOUBLE PRECISION ADDITIONS OF ANGLES
000061:                                                                                                  #  A AND L CONTAIN A DP(1S) ANGLE SCALED BY 180 DEGS TO BE ADDED TO KMPAC.
000062:                                                                                                  #  RESULT IS PLACED IN KMPAC.  TIMING = 6 MCT (22 MCT ON OVERFLOW)
000063:
000064: 21,2054           21511        DPADD              DAS      KMPAC
000065: 21,2055           00006                           EXTEND
000066: 21,2056           12073                           BZF      TSK        +1                         #  NO OVERFLOW
000067: 21,2057           11510                           CCS      KMPAC
000068: 21,2060           12074                           TCF      DPADD+                                #  + OVERFLOW
000069: 21,2061           12063                           TCF      +2
000070: 21,2062           12076                           TCF      DPADD-                                #  - OVERFLOW
000071: 21,2063           11511                           CCS      KMPAC      +1
000072: 21,2064           12101                           TCF      DPADD2+                               #  UPPER = 0, LOWER +
000073: 21,2065           12067                           TCF      +2
000074: 21,2066           40000                           COM                                            #  UPPER = 0, LOWER -
000075: 21,2067           64777                           AD       POSMAX                                #  LOWER = 0, A = 0
000076: 21,2070           55511                           TS       KMPAC      +1                         #  CAN NOT OVERFLOW
000077: 21,2071           34777                           CA       POSMAX                                #  UPPER WAS = 0
000078: 21,2072           55510        TSK                TS       KMPAC
000079: 21,2073           00002                           TC       Q
000080:
000081: 21,2074           65001        DPADD+             AD       NEGMAX                                #  KMPAC GREATER THAN 0
000082: 21,2075           12072                           TCF      TSK
000083:


000085: 21,2076           40000        DPADD-             COM
000086: 21,2077           64777                           AD       POSMAX                                #  KMPAC LESS THAN 0
000087: 21,2100           12072                           TCF      TSK
000088:
000089: 21,2101           65001        DPADD2+            AD       NEGMAX                                #  CAN NOT OVERFLOW
000090: 21,2102           55511                           TS       KMPAC      +1
000091: 21,2103           35001                           CA       NEGMAX                                #  UPPER WAS = 0
000092: 21,2104           12072                           TCF      TSK
000093:


000096:
000097:

End of include-file MYSUBS.agc.  Parent file is MAIN.agc


