
Source Code
000001:                                                                                                 #  Copyright:    Public domain.
000002:                                                                                                 #  Filename:     P11.agc
000003:                                                                                                 #  Purpose:      Part of the source code for Colossus 2A, AKA Comanche 055.
000004:                                                                                                 #                It is part of the source code for the Command Module's (CM)
000005:                                                                                                 #                Apollo Guidance Computer (AGC), for Apollo 11.
000006:                                                                                                 #  Assembler:    yaYUL
000007:                                                                                                 #  Contact:      Hartmuth Gutsche <hgutsche@xplornet.com>.
000008:                                                                                                 #  Website:      www.ibiblio.org/apollo.
000009:                                                                                                 #  Pages: 533-550
000010:                                                                                                 #  Mod history:  2009-05-13 HG   Started adapting from the Colossus249/ file
000011:                                                                                                 #                                 of the same name, using Comanche055 page
000012:                                                                                                 #                                 images 0533.jpg - 0550.jpg.
000013:                                                                                                 #                 2009-05-20 RSB  Corrections: ERTHALT -> EARTHALT,
000014:                                                                                                 #                                 STATSW -> SATSW.
000015:                                                                                                 #                 2009-05-23 RSB  At end of RESCALES, corrected TC 0 to TC Q.
000016:                                                                                                 #                                 Added an SBANK= prior to a 2CADR.
000017:
000018:                                                                                                 #  This source code has been transcribed or otherwise adapted from digitized
000019:                                                                                                 #  images of a hardcopy from the MIT Museum.  The digitization was performed
000020:                                                                                                 #  by Paul Fjeld, and arranged for by Deborah Douglas of the Museum.  Many
000021:                                                                                                 #  thanks to both.  The images (with suitable reduction in storage size and
000022:                                                                                                 #  consequent reduction in image quality as well) are available online at
000023:                                                                                                 #  www.ibiblio.org/apollo.  If for some reason you find that the images are
000024:                                                                                                 #  illegible, contact me at info@sandroid.org about getting access to the
000025:                                                                                                 #  (much) higher-quality images which Paul actually created.
000026:
000027:                                                                                                 #  Notations on the hardcopy document read, in part:
000028:
000029:                                                                                                 #     Assemble revision 055 of AGC program Comanche by NASA
000030:                                                                                                 #     2021113-051.  10:28 APR. 1, 1969
000031:
000032:                                                                                                 #     This AGC program shall also be referred to as
000033:                                                                                                 #             Colossus 2A
000034:                                                                                                 #  Page 533
000035:                                                                                                 #  EARTH ORBIT INSERTION MONITOR PROGRAM
000036:                                                                                                 #  *************************************
000037:
000038:                                                                                                 #  PROGRAM DESCRIPTION -P11-
000039:
000040:                                                                                                 #         MOD NO. 1
000041:                                                                                                 #         MOD BY ELIASSEN
000042:
000043:                                                                                                 #  FUNCTIONAL DESCRIPTION
000044:
000045:                                                                                                 #         P11 IS INITIATED BY
000046:
000047:                                                                                                 #                 A) GYROCOMPASS PRG P02 WHEN LIFTOFF DISCRETE IS RECEIVED OR
000048:                                                                                                 #                 B) BACKUP THRU VERB 75 ENTER
000049:
000050:                                                                                                 #         PROGRAM WILL
000051:                                                                                                 #                 1. ZERO CMC CLOCK AT LIFTOFF (OR UPON RECEIPT OF BACKUP)
000052:                                                                                                 #                 2. UPDATE TEPHEM TO TIME CMC CLOCK WAS ZEROED
000053:                                                                                                 #                 3. INITIATE SERVICER AT PREREAD1
000054:                                                                                                 #                 4. CHANGE MAJOR MODE TO 11
000055:                                                                                                 #                 5. CLEAR DSKY IN CASE OF V 75
000056:                                                                                                 #                 6. STORE LIFTOFF IMU-CDU ANGLES FOR ATT. ERROR DISPLAY
000057:                                                                                                 #                 7. TERMINATE GYROCOMPASSING     __  __
000058:                                                                                                 #                 8. COMPUTE INITIAL VECTORS      RN, VN            _  _  _
000059:                                                                                                 #                 9. COMPUTE REFSMMAT FOR PRELAUNCH ALIGNMENT WHERE U ,U ,U  ARE
000060:                                                                                                 #                         _         _                                X  Y  Z
000061:                                                                                                 #                         U =(UNIT(-R)    LOCAL VERTICAL AT TIME OF LIFTOFF
000062:                                                                                                 #                         _Z      _       _
000063:                                                                                                 #                         U =UNIT(A),     A=HOR VECTOR AT LAUNCH AZIMUTH
000064:                                                                                                 #                         _X _   _
000065:                                                                                                 #                         U =U * U
000066:                                                                                                 #                          U  Z   X
000067:                                                                                                 #                 10. SET REFSMMAT KNOWN FLAG
000068:                                                                                                 #                 11. SET AVGEXIT IN SERVICER TO VHHDOT TO
000069:                                                                                                 #                     COMPUTE AND DISPLAY NOUN 62 EVERY 2 SECONDS
000070:
000071:                                                                                                 #                         R1      V1   -- INERTIAL VELOCITY MAGNITUDE IN FPS
000072:                                                                                                 #                         R2      HDOT -- RATE OF CHANGE OF VEHICLE VEL IN FPS
000073:                                                                                                 #                         R3      H    -- VEHICLE ALTITUDE ABOVE PAD IN NM
000074:                                                                                                 #
000075:                                                                                                 #                 12. DISPLAY BODY AXES ATT. ERRORS ON FDAI NEEDLES
000076:
000077:                                                                                                 #                         A) FROM L.O. TO RPSTART (APPROX. 0 TO +10SECS AFTER L.O.)
000078:                                                                                                 #                            DESIRED ATTITUDE IS AS STORED AT L.O.
000079:                                                                                                 #                         B) FROM RPSTART TO POLYSTOP (APPROX. +10 TO +133SECS AFTER LO)
000080:                                                                                                 #                            DESIRED ATTITUDE IS SPECIFIED BY CMC PITCH AND ROLL
000081:                                                                                                 #                            POLYNOMIALS DURING SATURN ROLLOUT AND PITCHOVER
000082:                                                                                                 #  Page 534
000083:                                                                                                 #                            THE DISPLAY IS RUN AS LOW PRIORITY JOB APPROX.
000084:                                                                                                 #                            EVERY 1/2 SEC OR LESS AND IS DISABLED UPON OVFLO OF TIME1
000085:
000086:                                                                                                 #  SUBROUTINES CALLED
000087:
000088:                                                                                                 #         2PHSCHNG        BANKCALL        CALCGRA         CDUTRIG         CLEANDSP        DANZIG
000089:                                                                                                 #         DELAYJOB        EARTHR          ENDOFJOB        FINDVAC         IBNKCALL
000090:                                                                                                 #         INTPRET         LALOTORV        NEEDLER         NEWMODEX        PHASCHNG
000091:                                                                                                 #         POSTJUMP        POWRSERS        PREREAD1        REGODSPR        S11.1
000092:                                                                                                 #         SERVEXIT        TASKOVER        TCDANZIG        V1STO2S         WAITLIST
000093:
000094:                                                                                                 #  ASTRONAUT REQUESTS (IF ALTITUDE ABOVE 300,000 FT)
000095:
000096:                                                                                                 #         DSKY --
000097:                                                                                                 #                 MONITOR DISPLAY OF TIME TO PERIGEE R1 HOURS
000098:                                                                                                 #                                                    R2 MINUTES
000099:
000100:                                                                                                 #         DSKY --
000101:                                                                                                 #                 MONITOR DISPLAY OF R1 APOGEE ALTITUDE IN NAUTICAL MILES
000102:                                                                                                 #                                    R2 PERIGEE ALTITUDE IN NAUTICAL MILES
000103:                                                                                                 #                                    R3 TFF IN MINUTES/SECS
000104:
000105:                                                                                                 #         IF ASTRONAUT HAS REQUESTED ANY OF THESE DISPLAYS HE MUST
000106:                                                                                                 #  HIT PROCEED TO RETURN TO NORMAL NOUN 62 DISPLAY.
000107:                                                                                                 #  NORMAL EXIT MODE
000108:
000109:                                                                                                 #         ASTRONAUT       VERB 37 ENTER 00 ENTER
000110:
000111:                                                                                                 #  ALARM MODES -- NONE
000112:
000113:                                                                                                 #  ABORT EXIT MODES --
000114:
000115:                                                                                                 #  OUTPUT
000116:
000117:                                                                                                 #         TLIFTOFF (DP)   TEPHEM (TP)
000118:                                                                                                 #         REFSMMAT
000119:                                                                                                 #         DSKY DISPLAY
000120:                                                                                                 #         FDAI DISPLAY
000121:
000122:                                                                                                 #  ERASABLE INITIALIZATION
000123:
000124:                                                                                                 #         AZO, AXO, -AYO
000125:                                                                                                 #         LATITUDE
000126:                                                                                                 #         PADLONG
000127:                                                                                                 #         TEPHEM
000128:                                                                                                 #         PGNCSALT
000129:                                                                                                 #         POLYNUM THRU POLYNUM +14D
000130:                                                                                                 #         RPSTART
000131:                                                                                                 #         POLYSTOP
000132:                                                                                                 #  FLAGS SET OR RESET
000133:                                                                                                 #  Page 535
000134:                                                                                                 #         SET REFSMFLG
000135:                                                                                                 #         SET DVMON IDLE FLAG
000136:                                                                                                 #         CLEAR ERADFLAG
000137:
000138:                                                                                                 #  DEBRIS
000139:
000140:                                                                                                 #         LIFTTEMP
000141:                                                                                                 #         POLYNUM THRU POLYNUM +7
000142:                                                                                                 #         SPOLYARG
000143:                                                                                                 #         BODY1, BODY2, BODY3
000144:                                                                                                 #         VMAG2, ALTI, HDOT
000145:                                                                                                 #         CENTRALS, CORE SET, AND VAC AREAS
000146:
000147: 04,3303                                          COUNT    34/P11
000148:
000149: 04,3303     5035               BITS5-6           =        SUPER011
000150: 42,3606                                          BANK     42
000151: 34,2000                                          SETLOC   P11ONE
000152: 34,2000                                          BANK
000153:
000154: 34,2002  E3,1706                                 EBANK=   TEPHEM
000155: 34,2002           35051        P11               CA       EBANK3
000156: 34,2003           54003                          TS       EBANK
000157:
000158: 34,2004           00006                          EXTEND
000159: 34,2005           32277                          DCA      REP11S                                #  DIRECT RESTARTS TO REP11
000160: 34,2006           52757                          DXCH     -PHASE3
000161: 34,2007           45021                          CS       ZERO
000162: 34,2010           22007                          ZL
000163: 34,2011           55265                          TS       LIFTTEMP
000164: 34,2012           52763                          DXCH     -PHASE5                               #  INACTIVE GROUP 5, PRELAUNCH PROTECTION
000165: 34,2013           00006        P11+7             EXTEND
000166: 34,2014           32301                          DCA      REP11SA
000167: 34,2015           53337                          DXCH     TLIFTOFF
000168:
000169: 34,2016           00006                          EXTEND
000170: 34,2017           30025                          DCA      TIME2
000171: 34,2020           53266                          DXCH     LIFTTEMP                              #  FORE RESTARTS
000172:
000173: 34,2021           35021                          CA       ZERO
000174: 34,2022           22007                          ZL
000175: 34,2023           52025                          DXCH     TIME2
000176: 34,2024           53337        REP11A-2          DXCH     TLIFTOFF
000177: 34,2025           52757        REP11A-1          DXCH     -PHASE3                               #  RESET PHASE
000178:
000179: 34,2026           00004        REP11A            INHINT
000180: 34,2027           00006                          EXTEND
000181: 34,2030           31710                          DCA      TEPHEM     +1
000182: 34,2031           53271                          DXCH     TEPHEM1    +1
000183: 34,2032           31706                          CA       TEPHEM
000184:                                                                                                 #  Page 536
000185: 34,2033           57267                          XCH      TEPHEM1
000186:
000187: 34,2034           00006                          EXTEND
000188: 34,2035           31337                          DCA      TLIFTOFF
000189: 34,2036           21271                          DAS      TEPHEM1    +1
000190: 34,2037           27267                          ADS      TEPHEM1                               #  CORRECT FOR OVERFLOW
000191:
000192: 34,2040           05412                          TC       PHASCHNG
000193: 34,2041           05023                          OCT      05023
000194: 34,2042           22000                          OCT      22000
000195:
000196: 34,2043           00004                          INHINT
000197: 34,2044           00006                          EXTEND
000198: 34,2045           31270                          DCA      TEPHEM1
000199: 34,2046           53707                          DXCH     TEPHEM
000200: 34,2047           31271                          CA       TEPHEM1    +2
000201: 34,2050           57710                          XCH      TEPHEM     +2
000202:
000203: 34,2051           32000                          CAF      EBDVCNT
000204: 34,2052           54003                          TS       EBANK
000205: 34,2053  E7,1431                                 EBANK=   DVCNTR
000206: 34,2053           04740                          TC       IBNKCALL
000207: 34,2054           76722                          CADR     PREREAD1                              #  ZERO PIPS AND INITIALIZE AVERAGEG
000208:
000209: 34,2055           05412                          TC       PHASCHNG
000210: 34,2056           05023                          OCT      05023                                 #  CONTINUE HERE ON RESTART
000211: 34,2057           22000                          OCT      22000
000212:
000213: 34,2060           35036                          CAF      .5SEC                                 #  START ATT ERROR DISPLAY
000214: 34,2061           05245                          TC       WAITLIST                              #  IN .5 SEC
000215: 34,2062  E6,1704                                 EBANK=   BODY3
000216: 34,2062           02320 70066                    2CADR    ATERTASK
000217:
000218: 34,2064           05354                          TC       NEWMODEX                              #  DISPLAY MM 11
000219: 34,2065           00013                          MM       11         B-14
000220:
000221: 34,2066           05546                          TC       UPFLAG
000222: 34,2067           00022                          ADRES    NODOP01
000223:
000224: 34,2070           36214                          CA       POWDNCOD                              #  SWITCH TO POWERED FLIGHT DOWNLIST
000225: 34,2071           54332                          TS       DNLSTCOD
000226:
000227: 34,2072           04662                          TC       BANKCALL
000228: 34,2073           20703                          CADR     CLEANDSP                              #  CLEAR DSKY IN CASE OF V75
000229:
000230: 34,2074           05372                          TC       2PHSCHNG
000231: 34,2075           40514                          OCT      40514                                 #  PROTECT ATERTASK
000232: 34,2076           00073                          OCT      00073
000233: 34,2077           32001                          CAF      EBQPLACE
000234:                                                                                                 #  Page 537
000235: 34,2100           54003                          TS       EBANK
000236:
000237: 34,2101  E5,1426                                 EBANK=   QPLACES
000238: 34,2101           32302                          CA       P11XIT                                #  SET EXIT FROM PROUT IN EARTHR
000239: 34,2102           55426                          TS       QPLACES
000240: 34,2103           06006                          TC       INTPRET
000241: 34,2104           64375                          VLOAD    MXV
000242: 34,2105           02467                                   THETAN
000243: 34,2106           02672                                   XSM
000244: 34,2107           53372                          VSL1     VAD
000245: 34,2110           02650                                   ERCOMP
000246: 34,2111           16650                          STODL    ERCOMP
000247: 34,2112           01337                                   TLIFTOFF
000248: 34,2113           52131                          SSP      GOTO
000249: 34,2114           00052                                   S2
000250: 34,2115           66424                          CADR     PROUT                                 #  RETURN FROM EARTHR
000251: 34,2116           66373                                   EARTHR     +3
000252: 34,2117           22007        MATRXJOB          ZL                                             #  STORE DP GIMBAL ANGLES FOR ATTITUDE
000253: 34,2120           30032                          CA       CDUX                                  #        ERROR DISPLAY AFTER LIFTOFF
000254: 34,2121           53760                          DXCH     OGC
000255: 34,2122           22007                          ZL
000256: 34,2123           30033                          CA       CDUY
000257: 34,2124           53762                          DXCH     IGC
000258: 34,2125           22007                          ZL
000259: 34,2126           30034                          CA       CDUZ
000260: 34,2127           53764                          DXCH     MGC
000261: 34,2130           06006                          TC       INTPRET    _
000262: 34,2131           74575                          VLOAD    VSR1                                  #  SCALE OGC B-1
000263: 34,2132           02760                                   OGC
000264: 34,2133           02760                          STORE    OGC
000265: 34,2134           77731                          SSP                                            #  ZERO RTX2
000266: 34,2135           03747                                   RTX2                                  #  FOR
000267: 34,2136           00000                                   0                                     #  EARTH
000268: 34,2137           65345                          DLOAD    PDDL
000269: 34,2140           01273                                   PGNCSALT                              #  ALTITUDE OF PGNCS
000270: 34,2141           01264                                   PADLONG                               #  LONGITUDE
000271: 34,2142           55525                          PDDL     VDEF
000272: 34,2143           02403                                   LATITUDE                              #  GEODETIC LATITUDE
000273: 34,2144           15104                          STODL    LAT                                   #  LAT,LONG,ALT ARE CONSECUTIVE
000274: 34,2145           15335                                   HI6ZEROS                              #  TIME = 0
000275: 34,2146           45014                          CLEAR    CALL
000276: 34,2147           00662                                   ERADFLAG
000277: 34,2150           26441                                   LALOTORV                              #  CONVERT TO POSITION VECTOR IN REF. COORDS.
000278:
000279: 34,2151           35232                          STCALL   RN1                                   #               _
000280: 34,2152           70334                                   GETDOWN                               #  RETURN WITH VECTOR FOR DOWN DIRECTION
000281: 34,2153           53476                          VCOMP    UNIT
000282: 34,2154           25752                          STOVL    REFSMMAT   +12D                       #  UNITZ = UNIT(GRAV)
000283: 34,2155           01232                                   RN1
000284: 34,2156           74235                          VXV      VXSC
000285:                                                                                                 #  Page 538
000286: 34,2157           01714                                   UNITW                                 #  SCALED AT 1
000287: 34,2160           30304                                   -ERTHRAT                              #  V = EARTHRATE X R
000288: 34,2161           77712                          VSL4                                           #  SCALE TO 2(7) M/CS
000289: 34,2162           25240                          STOVL    VN1
000290: 34,2163           01752                                   REFSMMAT   +12D
000291: 34,2164           53435                          VXV      UNIT
000292: 34,2165           01714                                   UNITW                                 #  (REF3 X UNITW) = EAST
000293: 34,2166           47206                          PUSH     VXV
000294: 34,2167           01752                                   REFSMMAT   +12D                       #  (EAST X REF3) = -SOUTH
000295: 34,2170           65256                          UNIT     PDDL
000296: 34,2171           02634                                   LAUNCHAZ                              #  COS(AZ)*SOUTH
000297: 34,2172           74346                          COS      VXSC
000298: 34,2173           77626                          STADR
000299: 34,2174           62041                          STODL    REFSMMAT                              #  TEMPORARY STORAGE
000300: 34,2175           02634                                   LAUNCHAZ
000301: 34,2176           74356                          SIN      VXSC                                  #  SIN(AZ)*EAST
000302: 34,2177           53455                          VAD      UNIT                                  #  SIN(AZ)*EAST - COS(AZ)*SOUTH = REF1
000303: 34,2200           01736                                   REFSMMAT
000304: 34,2201           01736                          STORE    REFSMMAT
000305:
000306: 34,2202           53435                          VXV      UNIT                                  #  (REF1 X REF3) = -REF3
000307: 34,2203           01752                                   REFSMMAT   +12D
000308: 34,2204           77676                          VCOMP
000309: 34,2205           01744                          STORE    REFSMMAT   +6
000310: 34,2206           45345                          DLOAD    DSU
000311: 34,2207           15333                                   DPHALF                                #  1/2 REV
000312: 34,2210           02634                                   LAUNCHAZ
000313: 34,2211           65215                          DAD      PDDL
000314: 34,2212           02401                                   AZIMUTH
000315: 34,2213           03301                                   SATRLRT                               #  SET SATRLRT = -SATRLRT IF
000316: 34,2214           45565                          SIGN     STADR                                 #  (1/2REV -LAVNCHAZ +AZIMUTH) IS NEGATIVE
000317: 34,2215           74476                          STORE    SATRLRT                               #  FOR ROLL CALC IN FDAI ATT. ERROR DISPLAY
000318: 34,2216           77414                          SET      EXIT
000319: 34,2217           01462                                   REFSMFLG                              #  SET REFSMMAT KNOWN FLAG
000320:
000321: 34,2220           05412                          TC       PHASCHNG
000322: 34,2221           04023                          OCT      04023
000323:
000324: 34,2222           00006                          EXTEND
000325: 34,2223           32306                          DCA      P11SCADR
000326: 34,2224           53223                          DXCH     AVGEXIT                               #  SET AVGEXIT
000327:
000328: 34,2225           37665                          CA       PRIO31                                #  2 SECONDS AT 2(+8)
000329: 34,2226           55074                          TS       1/PIPADT
000330:
000331: 34,2227  E6,1501                                 EBANK=   RCSFLAGS
000332: 34,2227           35057                          CA       EBANK6
000333: 34,2230           54003                          TS       EBANK
000334:
000335: 34,2231           00004                          INHINT
000336:                                                                                                 #  Page 539
000337: 34,2232           45021                          CS       ZERO
000338: 34,2233           55063                          TS       TBASE5                                #  RESTART READACCS 2 SECONDS AFTER LIFTOFF
000339:
000340: 34,2234           40025                          CS       TIME1
000341: 34,2235           65042                          AD       2SECS                                 #  DO READACCS 2 SECONDS AFTER LIFTOFF
000342:
000343: 34,2236           10000                          CCS      A                                     #  CHECK TO INSURE DT IS POSITIVE
000344: 34,2237           12242                          TCF      +3                                    #  TIME POSITIVE
000345: 34,2240           12242                          TCF      +2                                    #  CANNOT GET HERE
000346: 34,2241           35021                          CA       ZERO                                  #  TIME NEGATIVE -- SET TO 1
000347: 34,2242           65017                          AD       ONE                                   #  RESTORE TIME  --  OR MAKE POSITIVE
000348:
000349: 34,2243           05245                          TC       WAITLIST
000350: 34,2244  E6,1661                                 EBANK=   AOG
000351: 34,2244           02744 76066                    2CADR    READACCS
000352:
000353: 34,2246           05372                          TC       2PHSCHNG
000354: 34,2247           00003                          OCT      00003                                 #  TURN OFF GROUP 3
000355: 34,2250           00025                          OCT      00025                                 #  PROTECT NORMLIZE AND READACCS
000356:
000357: 34,2251           04701                          TC       POSTJUMP
000358: 34,2252           77236                          CADR     NORMLIZE                              #  DO NORMLIZE AND ENDOFJOB
000359:
000360:
000361: 34,2253  E3,1706                                 EBANK=   TEPHEM
000362: 34,2253           00004        REP11             INHINT
000363: 34,2254           10763                          CCS      PHASE5
000364: 34,2255           05217                          TC       ENDOFJOB
000365:
000366: 34,2256           11265                          CCS      LIFTTEMP
000367: 34,2257           12263                          TCF      +4
000368: 34,2260           12263                          TCF      +3
000369: 34,2261           12263                          TCF      +2
000370: 34,2262           12013                          TCF      P11+7
000371:
000372: 34,2263           41336                          CS       TLIFTOFF
000373: 34,2264           00006                          EXTEND
000374: 34,2265           62273                          BZMF     ENDREP11
000375:
000376: 34,2266           10024                          CCS      TIME2                                 #  ** TIME2 MUST BE NON-ZERO AT LIFTOFF **
000377: 34,2267           12021                          TCF      REP11A     -5                         #  T2,T1 NOT YET ZEROED, GO AND DO IT
000378:
000379: 34,2270           00006                          EXTEND                                         #  T2,T1 ZEROED, SET TLIFTOFF
000380: 34,2271           31266                          DCA      LIFTTEMP
000381: 34,2272           12024                          TCF      REP11A-2
000382:
000383: 34,2273           00006        ENDREP11          EXTEND
000384: 34,2274           32301                          DCA      REP11SA
000385: 34,2275           12025                          TCF      REP11A-1
000386:                                                                                                 # Page 540
000387: 34,2276           77766 00011  REP11S            2OCT     7776600011
000388:
000389: 34,2300           77764 00013  REP11SA           2OCT     7776400013
000390:
000391: 34,2302           02451        P11XIT            GENADR   P11OUT
000392: 34,2303           71704 41735  -ERTHRAT          2DEC*    -7.292115138 E-7        B18*            #  - EARTH RATE AT 2(18)
000393:
000394: 34,2305  E6,1704                                 EBANK=   BODY3
000395: 34,2305           02307 70066  P11SCADR          2CADR    VHHDOT
000396:
000397: 34,2307     6214               POWDNCOD          EQUALS   THREE
000398:
000399: 34,2307  E6,1704                                 EBANK=   BODY3
000400:                                                                                                 #  VHHDOT IS EXECUTED EVERY 2 SECONDS TO DISPLAY ON DSKY
000401:                                                                                                 #         VI      INERTIAL VELOCITY MAGNITUDE
000402:                                                                                                 #         HDOT    RATE OF CHANGE OF ALT ABOVE L PAD RADIUS
000403:                                                                                                 #         H       ALTITUDE ABOVE L PAD RADIUS
000404:
000405: 34,2307           06006        VHHDOT            TC       INTPRET
000406: 34,2310           77624                          CALL                                           #  LOAD VMAGI, ALTI,
000407: 34,2311           70542                                   S11.1                                 #  HDOT FOR DISPLAY
000408: 34,2312           77776                          EXIT
000409: 34,2313           05412                          TC       PHASCHNG
000410: 34,2314           00035                          OCT      00035
000411:
000412: 34,2315           32622                          CAF      V06N62                                #  DISPLAY IN R1  R2   R3
000413: 34,2316           04662                          TC       BANKCALL                              #             VI  HDOT H
000414: 34,2317           20707                          CADR     REGODSP
000415:
000416: 34,2320           35006        ATERTASK          CAF      PRIO1                                 #  ESTABLISH JOB TO DISPLAY ATT ERRORS
000417: 34,2321           05147                          TC       FINDVAC                               #  COMES HERE AT L.O. + .33 SEC
000418: 34,2322  E6,1704                                 EBANK=   BODY3
000419: 34,2322           02345 70066                    2CADR    ATERJOB
000420:
000421: 34,2324           41501                          CS       RCSFLAGS                              #  SET BIT3 FOR
000422: 34,2325           75015                          MASK     BIT3                                  #  NEEDLER
000423: 34,2326           27501                          ADS      RCSFLAGS                              #  INITIALIZATION PASS
000424: 34,2327           04740                          TC       IBNKCALL                              #  AND GO
000425: 34,2330           42420                          CADR     NEEDLER                               #  DO IT
000426: 34,2331           35017                          CA       BIT1                                  #  SET SW
000427: 34,2332           55725                          TS       SATSW                                 #  FOR DISPLAY
000428: 34,2333           05324                          TC       TASKOVER
000429: 34,2334           40220        GETDOWN           STQ      SETPD
000430: 34,2335           02242                                   INCORPEX
000431: 34,2336           00001                                   0D
000432: 34,2337           77745                          DLOAD
000433: 34,2340           15335                                   HI6ZEROS
000434:                                                                                                 # Page 541
000435: 34,2341           14007                          STODL    6D
000436: 34,2342           15333                                   DPHALF
000437: 34,2343           34011                          STCALL   8D
000438: 34,2344           26446                                   LALOTORV   +5
000439:                                                                                                 #  THIS SECTION PROVIDES ATTITUDE ERROR DISPLAYS TO THE FDAI DURING SONE BOOST
000440:
000441:                                                                                                 #         COMPUTE DESIRED PITCH W.R.T. PAD LOCAL VERTICAL AT LIFTOFF
000442:                                                                                                 #                          2    3    4    5    6
000443:                                                                                                 #         PITCH = A0+A1T+A2T +A3T +A4T +A5T +A6T
000444:                                                                                                 #                 SCALED TO 32 REVS.                                   -14
000445:                                                                                                 #         IF TL = TIME IN SECS FROM L.O., THEN    T = 100(TL-RPSTART0)2
000446:                                                                                                 #         WHERE   TL GE RPSTART
000447:                                                                                                 #                 TL LE (-POLYSTOP + RPSTART)
000448:                                                                                                 #         COMPUTE DESIRED ROLL WEHRE ROLL EQUALS ANGLE FROM
000449:                                                                                                 #         LAUNCHAZ TO -Z(S/C) AS SEEN FROM X(S/C).
000450:                                                                                                 #         ROLL = LAUNCHAZ-AZIMUTH-.5+SATRLRT*T    IN REV
000451:                                                                                                 #         SATRLRT = RATE OF ROLL IN REV/CENTI-SEC
000452:                                                                                                 #         T, IN CENTI-SEC, IS DEFINED AS ABOVE, INCLUSIVE OF TIME RESTRICTIONS
000453:
000454:                                                                                                 #         FOR SIMPLICITY, LET     P = 2*PI*PITCH
000455:                                                                                                 #                                 R = 2*PI*ROLL
000456:
000457:                                                                                                 #         CONSTRUCT THE TRANSFORMATION MATRIX, TSMV, GIVING DESIRED S/C AXES IN
000458:                                                                                                 #         TERMS OF SM COORDINATES.  LET THE RESULTING ROWS EQUAL THE VECTORS XDC,
000459:                                                                                                 #         YDC, AND ZDC.
000460:
000461:                                                                                                 #          *     (    SIN(P)                 0               -COS(P)    )   (XDC)
000462:                                                                                                 #         TSMV = (-SIN(R)*COS(P)          -COS(R)         -SIN(R)*SIN(P)) = (YDC)
000463:                                                                                                 #                (-COS(R)*COS(P)           SIN(R)         -COS(R)*SIN(P))   (ZDC)
000464:
000465:                                                                                                 #         XDC,YDC,ZDC ARE USED AS INPUT TO CALCGTA FOR THE EXTRACTION OF THE
000466:                                                                                                 #         EULER SET OF ANGLES WHICH WILL BRING THE SM INTO THE DESIRED
000467:                                                                                                 #         ORIENTATION.  THIS EULER SET, OGC, IGC, AND MGC, MAY BE IDENTIFIED
000468:                                                                                                 #         AS THE DESIRED CDU ANGLES.
000469:
000470:                                                                                                 #         (XDC)                   (OGC)
000471:                                                                                                 #         (YDC) ---) CALCGTA ---) (IGC)
000472:                                                                                                 #         (ZDC)                   (MGC)
000473:                                                                                                 #                            _
000474:                                                                                                 #         DEFINE THE VECTOR DELTACDU.
000475:
000476:                                                                                                 #          _         (OGC)   (CDUX)
000477:                                                                                                 #         DELTACDU = (IGC) - (CDUY)
000478:                                                                                                 #                    (MGC)   (CDUZ)
000479:                                                                                                 #                                  _              _    *    _
000480:                                                                                                 #         COMPUTE ATTITUDE ERRORS, A, WHERE       A = TGSC*DELTACDU
000481:
000482:                                                                                                 #          *     (1             SIN(CDUZ)             0    )   THE GIMBAL ANGLES
000483:                                                                                                 # Page 542
000484:                                                                                                 #         TGSC = (0       COS(CDUX)*COS(CDUZ)     SIN(CDUX)) = TO SPACECRAFT AXES
000485:                                                                                                 #                (0      -SIN(CDUX)*COS(CDUZ)     COS(CDUX))   CONVERSION MATRIX
000486:                                                                                                 #                              _
000487:                                                                                                 #         THE ATTITUDE ERRORS, A, ARE STORED ONE HALF SINGLE PRECISION IN
000488:                                                                                                 #         THE REGISTERS AK, AK1, AK2 AS INPUT TO NEEDLER, THE FDAI ATTITUDE
000489:                                                                                                 #         ERROR DISPLAY ROUTINE.
000490:
000491: 34,2345           30102        ATERJOB           CAE      FLAGWRD6                              #  CHECK FLAGWRD6
000492: 34,2346           74105                          MASK     OCT60000                              #  BITS 14, 15
000493: 34,2347           00006                          EXTEND
000494: 34,2350           12352                          BZF      +2                                    #  OK -- CONTINUE
000495: 34,2351           05217                          TC       ENDOFJOB                              #  STAURN STICK ON -- KILL JOB
000496: 34,2352           35006                          CAF      BIT10                                 #  CHECK IF S/C CONTROL
000497: 34,2353           00006                          EXTEND                                         #  OF SATURN PANEL
000498: 34,2354           02030                          RAND     CHAN30                                #  SWITCH IS ON
000499: 34,2355           00006                          EXTEND
000500: 34,2356           12510                          BZF      STRSAT                                #  IT IS -- GO STEER
000501: 34,2357           11725                          CCS      SATSW                                 #  IT IS NOT -- WAS IT ON LAST CYCLE
000502: 34,2360           02363                          TC       ATTDISP                               #  NO -- CONTINUE
000503: 34,2361           02513                          TC       ATRESET                               #  YES -- REINITIALIZE NEEDLER
000504: 34,2362           02513                          TC       ATRESET                               #  YES -- REINITIALIZE NEEDLER
000505: 34,2363           41702        ATTDISP           CS       RPSTART                               #  PITCH/ROLL START TIME
000506: 34,2364           60025                          AD       TIME1
000507: 34,2365           00006                          EXTEND
000508: 34,2366           62615                          BZMF     NOPOLY                                #  IF MINUS THEN ATTITUDE HOLD
000509: 34,2367           54154                          TS       MPAC                                  #  MPAC = TIME1 - RPSTART
000510: 34,2370           55707                          TS       SPOLYARG                              #  SAVE FOR USE IN ROLL CALCULATION
000511: 34,2371           61703                          AD       POLYSTOP                              #  NEG PITCHOVER TIME IN CSECS
000512: 34,2372           00006                          EXTEND
000513: 34,2373           62375                          BZMF     +2
000514: 34,2374           02615                          TC       NOPOLY                                #  GO TO ATTITUDE HOLD
000515: 34,2375           30024                          CA       TIME2
000516: 34,2376           00006                          EXTEND
000517: 34,2377           62401                          BZMF     +2
000518: 34,2400           02615                          TC       NOPOLY                                #  GO TO ATTITUDE HOLD
000519: 34,2401           31661                          CAE      POLYNUM
000520: 34,2402           54001                          TS       L
000521: 34,2403           32621                          CAF      COEFPOLY                              #  EVALUATE PITCH POLYNOMIAL
000522: 34,2404           07164                          TC       POWRSERS                              #  SCALED TO 32 REVOLUTIONS
000523: 34,2405           35021                          CA       ZERO                                  #  RETURN WITH PITCH(32REV)
000524: 34,2406           54163                          TS       MODE                                  #  STORED MPAC, MPAC +1
000525: 34,2407           06006                          TC       INTPRET
000526: 34,2410           54201                          SETPD    SL                                    #  32(PITCH(32REV)) = PITCH(REV)
000527: 34,2411           00001                                   0
000528: 34,2412           20206                                   5
000529: 34,2413           77606                          PUSH                                           #  LET P(RAD) = 2*PI*PITCH(REV)
000530: 34,2414           77650                          GOTO
000531: 34,2415           76155                                   ATTDISP1                              #  AROUND SETLOC
000532:                                                                                                 # Page 543
000533:                                                                                                 #                                      *
000534:                                                                                                 #         CONSTRUCT SM TO S/C MATRIX, TSMV
000535:
000536: 37,2000                                          SETLOC   P11TWO
000537: 37,2000                                          BANK                                           #  36 IN COL., 34 IN DISK
000538:
000539: 37,2155                                          COUNT    36/P11
000540:
000541: 37,2155           57546        ATTDISP1          COS      DCOMP
000542: 37,2156           14017                          STODL    14D                                   #  -.5*COS(P)
000543: 37,2157           77756                          SIN
000544: 37,2160           14013                          STODL    10D                                   #  .5*SIN(P)
000545: 37,2161           15335                                   ZEROVECS
000546: 37,2162           00015                          STORE    12D                                   #  0
000547:
000548:                                                                                                 #         EVALUATE ROLL = LAUNCHAZ-AZIMUTH-.5+SATRLRT*T
000549: 37,2163           41335                          SLOAD    DMP
000550: 37,2164           03310                                   SPOLYARG                              #  TIME1 - RSPSTART, CSECS B-14.
000551: 37,2165           03301                                   SATRLRT
000552: 37,2166           45261                          SL       DSU
000553: 37,2167           20217                                   14D
000554: 37,2170           15333                                   DPHALF
000555: 37,2171           45215                          DAD      DSU                                   #  ASSUMING X(SM) ALONG LAUNCH AZIMUTH,
000556: 37,2172           02634                                   LAUNCHAZ                              #  LAUNCHAZ = ANGLE FROM NORTH TO X(SM).
000557: 37,2173           02401                                   AZIMUTH                               #  AZIMUTH = -ANGLE FROM NORTH TO Z(S/C)
000558: 37,2174           77634                          RTB                                            #  DETERMINE IF ROLLOUT
000559: 37,2175           70604                                   RLTST                                 #  IS COMPLETED
000560: 37,2176           71406        ATTDISPR          PUSH     COS                                   #  CONTINUE COMPUTING TSMV
000561: 37,2177           77606                          PUSH                                           #  LET R(RAD) = 2*PI*ROLL(REV)
000562: 37,2200           72405                          DMP      SL1
000563: 37,2201           00017                                   14D
000564: 37,2202           14027                          STODL    22D                                   #  -.5*COS(R)*COS(P)
000565: 37,2203           77676                          DCOMP
000566: 37,2204           00023                          STORE    18D                                   #  -.5*COS(R)
000567: 37,2205           72405                          DMP      SL1
000568: 37,2206           00013                                   10D
000569: 37,2207           14033                          STODL    26D                                   #  -.5*COS(R)*SIN(P)
000570: 37,2210           41556                          SIN      PUSH
000571: 37,2211           00031                          STORE    24D                                   #  .5*SIN(R)
000572: 37,2212           72405                          DMP      SL1
000573: 37,2213           00017                                   14D
000574: 37,2214           14021                          STODL    16D                                   #  -.5*SIN(R)*COS(P)
000575: 37,2215           77676                          DCOMP
000576: 37,2216           72405                          DMP      SL1
000577: 37,2217           00013                                   10D
000578: 37,2220           24025                          STOVL    20D                                   #  -.5*SIN(R)*SIN(P)
000579: 37,2221           00013                                   10D
000580:
000581:                                                                                                 #         FROM TSMV FIND THE HALF UNIT VECTORS XDC,YDC,ZDC = INPUT TO CALCGTA
000582:                                                                                                 #  Page 544
000583: 37,2222           77656                          UNIT
000584: 37,2223           26714                          STOVL    XDC                                   #  XDC = .5*UNIT(SIN(P),0,-COS(P))
000585: 37,2224           00021                                   16D
000586: 37,2225           77656                          UNIT
000587: 37,2226           26722                          STOVL    YDC                                   #  YDC = .5*UNIT(-SIN(R)*COS(P),-COS(R),
000588: 37,2227           00027                                   22D                                   #                         -SIN(R)*SIN(P))
000589: 37,2230           77656                          UNIT
000590: 37,2231           36730                          STCALL   ZDC                                   #  ZDC = .5*UNIT(-COS(R)*COS(P),SIN(R),
000591: 37,2232           47205                                   CALCGTA                               #                         -COS(R)*SIN(P))
000592:
000593:                                                                                                 #         CALL CALCGTA TO COMPUTE DESIRED SM ORIENTATION  OGC,IGC, AND MGC
000594:                                                                                                 #                                  _          _   _
000595:                                                                                                 #         FIND DIFFERENCE VECTOR  DELTACDU = OGC-CDUX
000596:                                                                                                 #
000597:                                                                                                 #         ENTER HERE IF ATTITUDE HOLD
000598:
000599: 37,2233           41575        NOPOLYM           VLOAD    PUSH                                  #         OGC      IGC
000600: 37,2234           02760                                   OGC                                   #  CHANGE IGC  TO  MGC FOR COMPATIBILITY
000601: 37,2235           45006                          PUSH     CALL                                  #         MGC      OGC
000602: 37,2236           47477                                   CDUTRIG                               #  WITH Y,Z,X ORDER OF CDUSPOT
000603: 37,2237           47175                          VLOAD    RTB                                   #   _         DPHI     OGC-CDUX , PD4
000604: 37,2240           00003                                   2                                     #  DELTACDU = DTHETA = IGC-CDUY , 0
000605: 37,2241           45552                                   V1STO2S                               #             DPSI     MGC-CDUZ , 2
000606: 37,2242           27317                          STOVL    BOOSTEMP
000607: 37,2243           15335                                   ZEROVECS
000608: 37,2244           24001                          STOVL    0
000609: 37,2245           00767                                   CDUSPOT
000610: 37,2246           47034                          RTB      RTB
000611: 37,2247           45552                                   V1STO2S
000612: 37,2250           70564                                   DELSTOR
000613: 37,2251           14013                          STODL    10D
000614: 37,2252           00741                                   SINCDUZ
000615: 37,2253           72405                          DMP      SL1
000616: 37,2254           00001                                   0
000617: 37,2255           60415                          DAD      SR2                                   #  CHANGE SCALE OF AK TO 2REVS
000618: 37,2256           00005                                   4
000619: 37,2257           77650                          GOTO
000620: 37,2260           70416                                   ATTDISP2
000621:
000622: 34,2000                                          SETLOC   P11ONE
000623: 34,2000                                          BANK
000624: 34,2416                                          COUNT    34/P11
000625:
000626: 34,2416           14021        ATTDISP2          STODL    16D                                   #  16D, .5(DPHI + DTHETA*SIN(CDUZ))
000627: 34,2417           00747                                   COSCDUZ
000628: 34,2420           41405                          DMP      PUSH
000629: 34,2421           00001                                   0
000630: 34,2422           72405                          DMP      SL1
000631: 34,2423           00751                                   COSCDUX
000632: 34,2424           41325                          PDDL     DMP
000633:                                                                                                 #  Page 545
000634: 34,2425           00743                                   SINCDUX
000635: 34,2426           00003                                   2
000636: 34,2427           72415                          DAD      SL1
000637: 34,2430           77626                          STADR
000638: 34,2431           63755                          STODL    17D                                   #  17D,   .5(DTHETA*COS(CDUX)*COS(CDUZ)
000639: 34,2432           72405                          DMP      SL1                                   #                         +DPSI*SIN(CDUX))
000640: 34,2433           00743                                   SINCDUX
000641: 34,2434           41325                          PDDL     DMP
000642: 34,2435           00751                                   COSCDUX
000643: 34,2436           00003                                   2
000644: 34,2437           72425                          DSU      SL1
000645: 34,2440           77626                          STADR
000646: 34,2441           77754                          STORE    18D                                   #  18D,   .5(-DTHETA*SIN(CDUX)*COS(CDUZ)
000647: 34,2442           77751                          TLOAD                                          #                         +DPSI*COS(CDUX))
000648: 34,2443           00021                                   16D
000649: 34,2444           03077                          STORE    AK                                    #  STORE ATTITUDE ERRORS IN AK,AK1,AK2
000650: 34,2445           77776                          EXIT
000651:
000652: 34,2446           31725                          CA       SATSW
000653: 34,2447           10000                          CCS      A                                     #  CHK TAKEOVER STATUS
000654: 34,2450           02471                          TC       SATOUT                                #  POS -- DISPLAY ONLY
000655: 34,2451           02477                          TC       AKLOAD                                #  0      STORE BIAS
000656: 34,2452           06006        STEERSAT          TC       INTPRET                               #  NEG    STEER L/V
000657: 34,2453           76351                          TLOAD    TAD
000658: 34,2454           03327                                   BIASAK
000659: 34,2455           03077                                   AK
000660: 34,2456           03077                          STORE    AK                                    #  AKS = AKS - STORED BIAS
000661: 34,2457           77776                          EXIT
000662: 34,2460           31476                          CA       AK
000663: 34,2461           02623                          TC       RESCALES
000664: 34,2462           55476                          TS       AK
000665: 34,2463           31477                          CA       AK1
000666: 34,2464           02623                          TC       RESCALES
000667: 34,2465           55477                          TS       AK1
000668: 34,2466           31500                          CA       AK2
000669: 34,2467           02623                          TC       RESCALES
000670: 34,2470           55500                          TS       AK2
000671:                                                                                                 #         DISPLAY ATTITUDE ERRORS ON FDAI VIA NEEDLER
000672:
000673: 34,2471           04662        SATOUT            TC       BANKCALL
000674: 34,2472           42420                          CADR     NEEDLER
000675: 34,2473           34113        ATERSET           CAF      OCT31                                 #  DELAY .25 SEC
000676: 34,2474           04662                          TC       BANKCALL                              #  EXECUTION + DELAY = .56SEC APPROX
000677: 34,2475           01732                          CADR     DELAYJOB
000678: 34,2476           02345                          TC       ATERJOB                               #  END OF ATT ERROR DISPLAY CYCLE
000679:
000680: 34,2477           41476        AKLOAD            CS       AK                                    #  STORE AKS
000681: 34,2500           55726                          TS       BIASAK                                #  INTO BIAS
000682: 34,2501           41477                          CS       AK1                                   #  COMPLEMENTED
000683: 34,2502           55727                          TS       BIASAK     +1
000684:                                                                                                 #  Page 546
000685: 34,2503           41500                          CS       AK2
000686: 34,2504           55730                          TS       BIASAK     +2
000687: 34,2505           45017                          CS       BIT1                                  #  SET SW
000688: 34,2506           55725                          TS       SATSW                                 #  TO STEER
000689: 34,2507           02452                          TC       STEERSAT                              #  GO STEER
000690: 34,2510           31725        STRSAT            CA       SATSW                                 #  CHECK IF NEDLER
000691: 34,2511           00006                          EXTEND                                         #  HAS BEEN INITIALIZED
000692: 34,2512           62363                          BZMF     ATTDISP                               #  YES -- CONTINUE
000693: 34,2513           41501        ATRESET           CS       RCSFLAGS                              #  NO -- SET
000694: 34,2514           75015                          MASK     BIT3                                  #  INITIALIZATION SW
000695: 34,2515           27501                          ADS      RCSFLAGS                              #  FOR NEDLER
000696: 34,2516           04662                          TC       BANKCALL                              #  AND GO
000697: 34,2517           42420                          CADR     NEEDLER                               #  DO IT
000698: 34,2520           36211                          CAF      REVCNT                                #  OCT 6
000699: 34,2521           04662                          TC       BANKCALL                              #  DELAY JOB
000700: 34,2522           01732                          CADR     DELAYJOB                              #  60 MS --WAIT TILL IMUERRCNTR ZEROED
000701: 34,2523           11725                          CCS      SATSW                                 #  CHECK SW STATUS
000702: 34,2524           02534                          TC       TAKEON                                #  POS   STEER INIT.
000703: 34,2525           02526                          TC       +1                                    #  0     RETURN TO DISPLAY
000704: 34,2526           35017                          CA       BIT1                                  #  NEG   RETURN TO DISPLAY
000705: 34,2527           55725                          TS       SATSW                                 #  SW = DISPLAY ON
000706: 34,2530           45007                          CS       BIT9                                  #  DISABLE
000707: 34,2531           00006                          EXTEND                                         #  SIVB
000708: 34,2532           03012                          WAND     CHAN12                                #  TAKEOVER
000709: 34,2533           02471                          TC       SATOUT                                #  DISPLAY
000710: 34,2534           35007        TAKEON            CAF      BIT9                                  #  ENABLE
000711: 34,2535           00006                          EXTEND                                         #  SIVB
000712: 34,2536           05012                          WOR      CHAN12                                #  TAKEOVER
000713: 34,2537           35021                          CA       ZERO                                  #  INDICATE NEEDLER
000714: 34,2540           55725                          TS       SATSW                                 #  WAS INITIALIZED
000715: 34,2541           02471                          TC       SATOUT
000716: 34,2542           51575        S11.1             VLOAD    ABVAL
000717: 34,2543           01177                                   VN
000718: 34,2544           27723                          STOVL    VMAGI                                 #  VI     SCALED 2(7) IN METERS/CSEC
000719: 34,2545           01171                                   RN
000720: 34,2546           50256                          UNIT     DOT
000721: 34,2547           01177                                   VN
000722: 34,2550           77752                          SL1
000723: 34,2551           17737                          STODL    HDOT
000724: 34,2552           05152                                   RPAD
000725: 34,2553           77214                          BOF      VLOAD
000726: 34,2554           00355                                   AMOONFLG
000727: 34,2555           70560                                   EARTHALT
000728: 34,2556           02026                                   RLS
000729: 34,2557           60446                          ABVAL    SR2
000730: 34,2560           77621        EARTHALT          BDSU
000731: 34,2561           00045                                   36D
000732: 34,2562           03735                          STORE    ALTI
000733: 34,2563           77616                          RVQ
000734: 34,2564           31716        DELSTOR           CA       BOOSTEMP
000735:                                                                                                 #  Page 547
000736: 34,2565           00006                          EXTEND                                         #  STORE DELTACDU INTO PDL 0,2,4
000737: 34,2566           20154                          MSU      MPAC
000738: 34,2567           50120                          INDEX    FIXLOC
000739: 34,2570           54000                          TS       0
000740: 34,2571           31717                          CA       BOOSTEMP   +1
000741: 34,2572           00006                          EXTEND
000742: 34,2573           20155                          MSU      MPAC       +1
000743: 34,2574           50120                          INDEX    FIXLOC
000744: 34,2575           54002                          TS       2
000745: 34,2576           31720                          CA       BOOSTEMP   +2
000746: 34,2577           00006                          EXTEND
000747: 34,2600           20156                          MSU      MPAC       +2
000748: 34,2601           50120                          INDEX    FIXLOC
000749: 34,2602           54004                          TS       4
000750: 34,2603           16030                          TCF      DANZIG
000751: 34,2604           30154        RLTST             CA       MPAC                                  #  DETERMINE IF ROLLOUT
000752: 34,2605           00006                          EXTEND                                         #  IS COMPLETED
000753: 34,2606           71701                          MP       SATRLRT    +1
000754: 34,2607           00006                          EXTEND
000755: 34,2610           66030                          BZMF     DANZIG                                #  UNLIKE SIGNS STILL ROLLING
000756: 34,2611           00006                          EXTEND                                         #  ROLLOUT COMPLETED
000757: 34,2612           33672                          DCA      MBDYTCTL   +2                         #  ZERO OUT ROLL CONTRIBUTION
000758: 34,2613           52155                          DXCH     MPAC
000759: 34,2614           06030                          TC       DANZIG
000760: 34,2615           06006        NOPOLY            TC       INTPRET                               #  COMES HERE IF
000761: 34,2616           52001                          SETPD    GOTO                                  #  ATTITUDE HOLD
000762: 34,2617           00001                                   0
000763: 34,2620           76233                                   NOPOLYM
000764: 34,2621           01673        COEFPOLY          ADRES    POLYLOC
000765: 34,2622           01476        V06N62            VN       0662
000766: 34,2623           00006        RESCALES          EXTEND                                         #  RESCALE AK S FOR
000767: 34,2624           71731                          MP       SATSCALE                              #  NEW HARDWARE
000768: 34,2625           20001                          DDOUBL                                         #  SCALING FOR
000769: 34,2626           20001                          DDOUBL                                         #  STEERING
000770: 34,2627           00002                          TC       Q                                     #  SATURN
000771:
000772:                                                                                                 #  SATURN TAKEOVER FUNCTION
000773:                                                                                                 #  ************************
000774:                                                                                                 #
000775:                                                                                                 #  PROGRAM DESCRIPTION
000776:
000777:                                                                                                 #         MOD NUMBER 1
000778:                                                                                                 #         MOD BY ELIASSEN
000779:
000780:                                                                                                 #  FUNCTIONAL DESCRIPTION
000781:
000782:                                                                                                 #         DURING THE COASTING PHASE OF SIVB ATTACHED, THE
000783:                                                                                                 #         ASTRONAUT MAY REQUEST SATURN TAKEOVER THROUGH
000784:                                                                                                 #         EXTENDED VERB 46 (BITS 13,14 OF DAPDATR1 SET ).
000785:                                                                                                 #         THE CMC REGARDS RHC COMMANDS AS BODY-AXES RATE
000786:                                                                                                 #         COMMANDS AND IT TRANSMITS THESE TO SATURN AS DC
000787:                                                                                                 # Page 548
000788:                                                                                                 #         VOLTAGES.  THE VALUE OF THE CONSTANT RATE COMMAND
000789:                                                                                                 #         IS 0.5 DEG/SEC.  AN ABSENCE OF RHC ACTIVITY RE-
000790:                                                                                                 #         SULTS IN A ZERO RATE COMMAND.
000791:
000792:                                                                                                 #         THE FDAI ERROR NEEDLES WILL INDICATE THE VALUE
000793:                                                                                                 #         OF THE RATE COMMAND.
000794:
000795:                                                                                                 #  CALLING SEQUENCE
000796:
000797:                                                                                                 #         DAPFIG +9D      TC      POSTJUMP
000798:                                                                                                 #                         CADR    SATSTKON
000799:
000800:                                                                                                 #  SUBROUTINES CALLED
000801:
000802:                                                                                                 #         ENDEXT
000803:                                                                                                 #         IBNKCALL
000804:                                                                                                 #         STICKCHK
000805:                                                                                                 #         NEEDLER
000806:                                                                                                 #         T5RUPT
000807:                                                                                                 #         RESUME
000808:
000809:                                                                                                 #  ASTRONAUT REQUESTS
000810:
000811:                                                                                                 #         ENTRY --  VERB 46 ENTER
000812:                                                                                                 #                   (CONDITION -- BITS 13, 14 OF DAPDATR1 SET)
000813:
000814:                                                                                                 #         EXIT --   VERB 48 ENTER (FLASH V06N46)
000815:                                                                                                 #                   VERB 21 ENTER AXXXX ENTER WHERE A=0 OR 1
000816:                                                                                                 #                   VERB 34 ENTER
000817:                                                                                                 #                   VERB 46 ENTER
000818:
000819:                                                                                                 #  NORMAL EXIT MODE
000820:
000821:                                                                                                 #         VERB 46 ENTER   (SEE ASTRONAUT ABOVE)
000822:
000823:                                                                                                 #  ALARM OR ABORT EXIT MODES
000824:
000825:                                                                                                 #         NONE
000826:
000827:                                                                                                 #  OUTPUT
000828:
000829:                                                                                                 #         SATURN RATES IN CDUXCMD, CDUYCMD, CDUZCMD
000830:
000831:                                                                                                 #  ERASABLE INITIALIZATION
000832:
000833:                                                                                                 #         DAPDATR1        (BITS 13, 14 MUST BE SET)
000834:
000835:                                                                                                 #  DEBRIS
000836:
000837:                                                                                                 #         CENTRALS
000838:                                                                                                 # Page 549
000839:                                                                                                 #         CDUXCMD, CDUYCMD, CDUZCMD
000840:
000841: 43,3215                                          BANK     43
000842: 43,2000                                          SETLOC   EXTVERBS
000843: 43,2000                                          BANK
000844:
000845: 43,3215                                          COUNT    23/STTKE
000846: 43,3215           00006        SATSTKON          EXTEND
000847: 43,3216           33233                          DCA      2REDOSAT
000848: 43,3217           00004                          INHINT
000849: 43,3220           53313                          DXCH     T5LOC
000850: 43,3221           34777                          CAF      POSMAX
000851: 43,3222           54030                          TS       TIME5
000852: 43,3223           40102                          CS       FLAGWRD6                              #  TURN ON BITS 15,14 OF
000853: 43,3224           74105                          MASK     RELTAB11                              #  FLAGWRD6
000854: 43,3225           26102                          ADS      FLAGWRD6                              #         SATSTICK CONTROL OF T5
000855: 43,3226           04740                          TC       IBNKCALL                              #  ZERO JET CHANNELS IN 14 MS AND THEN
000856: 43,3227           42632                          CADR     ZEROJET                               #  LEAVE THE T6 CLOCK DISABLED
000857: 43,3230           00003                          RELINT
000858: 43,3231           02121                          TC       GOPIN                                 #  EXIT THUS BECAUSE WE CAME VIA V46
000859:
000860: 43,3232  40,2000                                 SBANK=   PINSUPER                              #  Added RSB 2009
000861: 43,3232  E6,1704                                 EBANK=   BODY3
000862: 43,3232           02765 46106  2REDOSAT          2CADR    REDOSAT
000863:
000864:
000865: 43,3234  30,2000                                 SBANK=   LOWSUPER
000866: 32,2017                                          BANK     32
000867: 23,2000                                          SETLOC   P11FOUR
000868: 23,2000                                          BANK
000869:
000870: 23,2765           22016        REDOSAT           LXCH     BANKRUPT                              #  ALSO COMES HERE FOR RESTARTS
000871: 23,2766           00006                          EXTEND
000872: 23,2767           22012                          QXCH     QRUPT
000873: 23,2770           41501                          CS       RCSFLAGS                              #  TURN ON BIT3 OF RCSFLAGX
000874: 23,2771           75015                          MASK     BIT3                                  #  FOR
000875: 23,2772           27501                          ADS      RCSFLAGS                              #  NEEDLER INITIALIZATION
000876: 23,2773           04740                          TC       IBNKCALL
000877: 23,2774           42420                          CADR     NEEDLER                               #  DISABLE IMU ERR COUNTERS ETC.
000878: 23,2775           35007                          CAF      BIT9                                  #  SIVB
000879: 23,2776           00006                          EXTEND                                         #  TAKEOVER
000880: 23,2777           05012                          WOR      CHAN12                                #  ENABLE
000881: 23,3000           00006                          EXTEND                                         #  SET UP T5 CYCLE
000882: 23,3001           33042                          DCA      2SATSTCK
000883: 23,3002           53313                          DXCH     T5LOC
000884: 23,3003           33040                          CAF      100MST5                               #  IN 100 MSECS
000885: 23,3004           54030                          TS       TIME5
000886: 23,3005           15333                          TCF      RESUME                                #  END OF SATURN STICK INITIALIZATION
000887:
000888:                                                                                                 #         THIS SECTION IS EXECUTED EVERY 100 MSECS.
000889:                                                                                                 # Page 550
000890: 23,3006           22016        SATSTICK          LXCH     BANKRUPT
000891: 23,3007           00006                          EXTEND
000892: 23,3010           22012                          QXCH     QRUPT
000893:
000894: 23,3011           33041                          CAF      2SATSTCK                              #  SET UP RUPT
000895: 23,3012           55312                          TS       T5LOC                                 #  LO ORDER LOC SET
000896: 23,3013           33040                          CAF      100MST5                               #  100 MSECS
000897: 23,3014           54030                          TS       TIME5
000898: 23,3015           33037                          CAF      STIKBITS
000899: 23,3016           00006                          EXTEND
000900: 23,3017           06031                          RXOR     CHAN31                                #  CHECK IF MAN ROT BITS SAME
000901: 23,3020           73037                          MASK     STIKBITS
000902: 23,3021           04740                          TC       IBNKCALL                              #  SET RATE INDICES
000903: 23,3022           43130                          CADR     STICKCHK                              #  FOR PITCH YAW AND ROLL
000904:
000905: 23,3023           51656                          INDEX    RMANNDX                               #  SET SATURN RATES
000906: 23,3024           31721                          CA       SATRATE
000907: 23,3025           55476                          TS       AK                                    #         ROLL
000908: 23,3026           51657                          INDEX    PMANNDX
000909: 23,3027           31721                          CA       SATRATE
000910: 23,3030           55477                          TS       AK1                                   #         PITCH
000911: 23,3031           51660                          INDEX    YMANNDX
000912: 23,3032           31721                          CA       SATRATE
000913: 23,3033           55500                          TS       AK2                                   #         YAW
000914:
000915: 23,3034           04740                          TC       IBNKCALL                              #  FOR SATURN INTERFACE AND FDAI DISPLAY
000916: 23,3035           42420                          CADR     NEEDLER
000917: 23,3036           15333                          TCF      RESUME                                #  END OF SATURN STICK CONTROL
000918:
000919: 23,3037           00077        STIKBITS          OCT      00077
000920: 23,3040           37766        100MST5           DEC      16374      B-14
000921: 23,3041  E6,1704                                 EBANK=   BODY3
000922: 23,3041           03006 46066  2SATSTCK          2CADR    SATSTICK

End of include-file P11.agc.  Parent file is MAIN.agc


