
Source Code


000002:                                                                                                  ## Copyright:   Public domain.
000003:                                                                                                  ## Filename:    P30-P37.agc
000004:                                                                                                  ## Purpose:     Part of the source code for Colossus 2A, AKA Comanche 055.
000005:                                                                                                  ##              It is part of the source code for the Command Module's (CM)
000006:                                                                                                  ##              Apollo Guidance Computer (AGC), for Apollo 11.
000007:                                                                                                  ## Assembler:   yaYUL
000008:                                                                                                  ## Contact:     Ron Burkey <info@sandroid.org>.
000009:                                                                                                  ## Website:     www.ibiblio.org/apollo.
000010:                                                                                                  ## Pages:       635-648
000011:                                                                                                  ## Mod history: 2009-05-10 RSB  Adapted from the Colossus249/ file
000012:                                                                                                  ##                              of the same name, using Comanche055 page
000013:                                                                                                  ##                              images.
000014:                                                                                                  ##              2009-05-20 RSB  Corrected BDV -> BOV.
000015:                                                                                                  ##              2010-08-24 JL   Fixed page numbers, some whitespace.
000016:                                                                                                  ##              2016-12-10 RSB  All of the GOTOPOOH's should have been
000017:                                                                                                  ##                              GOTOPOOH, and I've changed them back.
000018:                                                                                                  ##              2016-12-11 RSB  Proofed comments with octopus/ProoferComments
000019:                                                                                                  ##                              and fixed the errors found.
000020:                                                                                                  ##              2017-01-17 RSB  Fixed comment-text errors noted while diff'ing
000021:                                                                                                  ##                              vs Colossus 249.
000022:                                                                                                  ##
000023:                                                                                                  ## This source code has been transcribed or otherwise adapted from digitized
000024:                                                                                                  ## images of a hardcopy from the MIT Museum.  The digitization was performed
000025:                                                                                                  ## by Paul Fjeld, and arranged for by Deborah Douglas of the Museum.  Many
000026:                                                                                                  ## thanks to both.  The images (with suitable reduction in storage size and
000027:                                                                                                  ## consequent reduction in image quality as well) are available online at
000028:                                                                                                  ## www.ibiblio.org/apollo.  If for some reason you find that the images are
000029:                                                                                                  ## illegible, contact me at info@sandroid.org about getting access to the
000030:                                                                                                  ## (much) higher-quality images which Paul actually created.
000031:                                                                                                  ##
000032:                                                                                                  ## Notations on the hardcopy document read, in part:
000033:                                                                                                  ##
000034:                                                                                                  ##      Assemble revision 055 of AGC program Comanche by NASA
000035:                                                                                                  ##      2021113-051.  10:28 APR. 1, 1969
000036:                                                                                                  ##
000037:                                                                                                  ##      This AGC program shall also be referred to as
000038:                                                                                                  ##                      Colossus 2A
000039:


000041: 32,2017                                           BANK     32
000042:
000043: 35,2000                                           SETLOC   P30S1
000044: 35,2000                                           BANK
000045:
000046: 35,3264  E7,1625                                  EBANK=   +MGA
000047:
000048: 35,3264                                           COUNT    35/P34
000049:
000050: 35,3264           77420        DISPMGA            STQ      EXIT                                  #  USED IN P30
000051:
000052: 35,3265           02370                                    RGEXIT
000053: 35,3266           03304                           TC       COMPTGO
000054:
000055: 35,3267           34621        DISP45             CAF      V16N45
000056: 35,3270           04662                           TC       BANKCALL
000057: 35,3271           21057                           CADR     GOFLASHR
000058: 35,3272           04106                           TC       GOTOPOOH
000059: 35,3273           03300                           TC       END45
000060: 35,3274           03267                           TC       DISP45
000061: 35,3275           05412        P30PHSI            TC       PHASCHNG
000062: 35,3276           00014                           OCT      14
000063: 35,3277           05217                           TCR      ENDOFJOB
000064: 35,3300           06006        END45              TC       INTPRET
000065: 35,3301           52014                           CLEAR    GOTO
000066: 35,3302           03664                                    TIMRFLAG
000067: 35,3303           02370                                    RGEXIT
000068:
000069: 35,3304           00006        COMPTGO            EXTEND                                         #  USED TO COMPUTE TTOGO
000070: 35,3305           23066                           QXCH     PHSPRDT6                              #  ** GROUP 6 TEMPORARY USED ,, BEWARE **
000071:
000072: 35,3306           05546                           TC       UPFLAG                                #  SET TIMRFLAG
000073: 35,3307           00155                           ADRES    TIMRFLAG                              #  BIT 11 FLAG 7
000074: 35,3310           35021                           CAF      ZERO
000075: 35,3311           55145                           TS       NVWORD1
000076:
000077: 35,3312           35017                           CAF      ONE
000078: 35,3313           05245                           TC       WAITLIST
000079: 35,3314  E7,1412                                  EBANK=   TIG
000080: 35,3314           03260 50067                     2CADR    CLOKTASK
000081:
000082: 35,3316           05372                           TC       2PHSCHNG
000083: 35,3317           40036                           OCT      40036                                 #  6.3SPOT FOR CLOKTASK
000084: 35,3320           05024                           OCT      05024                                 #  GROUP 4 CONTINUES HERE
000085: 35,3321           13000                           OCT      13000
000086:
000087: 35,3322           01066                           TC       PHSPRDT6


000089:                                                                                                  #  PROGRAM DESCRIPTION P30       DATE 3-6-67
000090:                                                                                                  #  MOD. I BY S. ZELDIN-  TO ADD P31 AND ADAPT P30 FOR P31 USE.   22DEC67
000091:
000092:                                                                                                  #  FUNCTIONAL DESCRIPTION
000093:                                                                                                  #        +30     (EXTERNAL DELTA-V TARGETTING PROGRAM)
000094:                                                                                                  #                ACCEPTS ASTRONAUT INPUTS OF TIG,DELV(LV) AND COMPUTES, FOR DISPLAY,
000095:                                                                                                  #                APOGEE, PERIGEE, DELV(MAG), MGA ASSOCIATED WITH DESIRED MANEUVER
000096:                                                                                                  #        P31     (GENERAL LAMBERT AIMPOINT GUIDANCE)
000097:                                                                                                  #                A GROUND RULE FOR P31 IS THE ANGLE BETWEEN THE TARGET VECTOR AND
000098:                                                                                                  #                POSITION VECTOR AT TIG IS NOT 165-195 DEGREES APART
000099:                                                                                                  #                BASED ON STORED INPUT OF OFFSET TARGET(B+29) AND DELTA T TRANS, AND
000100:                                                                                                  #                ASTRONAUT ENTRY OF TIG, P31 COMPUTES REQUIRED VELOCITY FOR MANEUVER
000101:                                                                                                  #                AND, FOR DISPLAY, APOGEE, PERIGEE, DELV(7AG), +MGA ASSOCIATED WITH
000102:                                                                                                  #                DESIRED MANEUVER
000103:
000104:                                                                                                  #  THE FOLLOWING SUBROUTINES ARE USED IN P30 AND P31
000105:                                                                                                  #        S30.1 (P30 ONLY)
000106:                                                                                                  #        S31.1 (P31 ONLY)
000107:                                                                                                  #        P30/P31 - DISPLAYS TIG
000108:                                                                                                  #        CNTUP30 - DISPLAYS DELV(LV)
000109:                                                                                                  #        PARAM30 - DISPLAYS APOGEE, PERIGEE, DELV(MAG), MGA, TIME FROM TIG,
000110:                                                                                                  #                  MARKS SINCE LAST THRUSTING MANEUVER
000111:
000112:                                                                                                  #  CALLING SEQUENCE VIA JOB FROM V37
000113:
000114:                                                                                                  #  EXIT VIA V37 CALL OR GOTOPOOH
000115:
000116:                                                                                                  #  OUTPUT FOR POWERED FLIGHT
000117:                                                                                                  #        VTIG    X
000118:                                                                                                  #        RTIG    X       SEE S30.1
000119:                                                                                                  #        DELVSIN X
000120:                                                                                                  #        VGDISP
000121:                                                                                                  #        RTARG   X
000122:                                                                                                  #        TPASS4  X       SEE S31.1
000123:                                                                                                  #                X
000124:
000125: 35,3323                                           COUNT    35/P30
000126:
000127: 35,3323           03355        P30                TC       P30/P31
000128: 35,3324           03374                           TC       CNTNUP30
000129: 35,3325           05560                           TC       DOWNFLAG                              #  RESET UPDATFLG
000130: 35,3326           00027                           ADRES    UPDATFLG                              #  BIT 7 FLAG 1
000131: 35,3327           06006                           TC       INTPRET
000132: 35,3330           77624                           CALL
000133: 35,3331           63475                                    S30.1
000134: 35,3332           77776                           EXIT
000135: 35,3333           03404                           TC       PARAM30
000136: 35,3334           05546                           TC       UPFLAG


000138: 35,3335           00045                           ADRES    XDELVFLG                              #  SET XDELVFLG BIT 8 FLAG 2
000139: 35,3336           14106                           TCF      GOTOPOOH
000140:
000141: 35,3337           03355        P31                TC       P30/P31
000142: 35,3340           05560                           TC       DOWNFLAG
000143: 35,3341           00027                           ADRES    UPDATFLG                              #  RESET UPDATFLG BIT 7 FLAG 1
000144: 35,3342           05560                           TC       DOWNFLAG
000145: 35,3343           00156                           ADRES    NORMSW                                #  RESET NORMSW BIT 10 FLAG 7
000146: 35,3344           06006                           TC       INTPRET
000147: 35,3345           77624                           CALL
000148: 35,3346           63547                                    S31.1
000149: 35,3347           77776                           EXIT
000150: 35,3350           03374                           TC       CNTNUP30
000151: 35,3351           03404                           TC       PARAM30
000152: 35,3352           05560                           TC       DOWNFLAG
000153: 35,3353           00045                           ADRES    XDELVFLG                              #  BIT 8 FLAG 2
000154: 35,3354           14106                           TCF      GOTOPOOH
000155:
000156: 35,3355           56002        P30/P31            XCH      Q
000157: 35,3356           55664                           TS       P30/31RT
000158: 35,3357           05546                           TC       UPFLAG
000159: 35,3360           00027                           ADRES    UPDATFLG                              #  SET UPDATFLG BIT 7 FLAG 1
000160: 35,3361           05546                           TC       UPFLAG
000161: 35,3362           00031                           ADRES    TRACKFLG                              #  SET TRACKFLG BIT 5 FLAG 1
000162: 35,3363           33441                           CAF      V06N33                                #  T OF IGN
000163: 35,3364           04662                           TC       BANKCALL
000164: 35,3365           21057                           CADR     GOFLASHR
000165: 35,3366           14106                           TCF      GOTOPOOH
000166: 35,3367           01664                           TC       P30/31RT
000167: 35,3370           13361                           TCF      P30/P31    +4
000168: 35,3371           05412                           TC       PHASCHNG
000169: 35,3372           00014                           OCT      00014
000170: 35,3373           05217                           TC       ENDOFJOB
000171:
000172: 35,3374           56002        CNTNUP30           XCH      Q
000173: 35,3375           55127                           TS       P30/RET
000174: 35,3376           34620                           CAF      V06N81
000175: 35,3377           04662                           TC       BANKCALL
000176: 35,3400           20720                           CADR     GOFLASH
000177: 35,3401           14106                           TCF      GOTOPOOH
000178: 35,3402           01127                           TC       P30/RET
000179: 35,3403           13376                           TCF      CNTNUP30   +2
000180: 35,3404           56002        PARAM30            XCH      Q
000181: 35,3405           55664                           TS       P30/31RT
000182: 35,3406           33442                           CAF      V06N42
000183: 35,3407           04662                           TC       BANKCALL
000184: 35,3410           20720                           CADR     GOFLASH
000185: 35,3411           04106                           TC       GOTOPOOH                              #  ON TERMINATION GOTOPOOH
000186: 35,3412           13414                           TCF      REFTEST                               #  ON PROCEED GO DO REFTEST


000188: 35,3413           13406                           TCF      PARAM30    +2
000189: 35,3414           35003        REFTEST            CAF      BIT13
000190: 35,3415           70077                           MASK     STATE      +3                         #  REFSMFLAG
000191: 35,3416           00006                           EXTEND
000192: 35,3417           13427                           BZF      NOTSET                                #  REFSMFLAG =0, THEN BRANCH TO NOTSET
000193: 35,3420           06006                           TC       INTPRET
000194: 35,3421           41575                           VLOAD    PUSH
000195: 35,3422           03646                                    DELVSIN
000196: 35,3423           77624                           CALL
000197: 35,3424           10654                                    GET+MGA
000198: 35,3425           77650                           GOTO
000199: 35,3426           73433                                    FLASHMGA
000200: 35,3427           00006        NOTSET             EXTEND
000201: 35,3430           43440                           DCS      MARSDP
000202: 35,3431           53626                           DXCH     +MGA                                  #  +MGA, +MGA+1 CONTAINS (-00001)
000203: 35,3432           06006                           TC       INTPRET
000204: 35,3433           77624        FLASHMGA           CALL
000205: 35,3434           73264                                    DISPMGA
000206: 35,3435           77776                           EXIT
000207: 35,3436           01664                           TC       P30/31RT
000208: 35,3437           00000        MARSDP             OCT      00000                                 #  (00000) (16440) = (+00001)
000209: 35,3440           35100                           OCT      35100
000210:                                                                                                  #  ( .01 ) DEGREES IN THE LOW ORDER REGISTE
000211:
000212: 35,3441           01441        V06N33             VN       0633
000213: 35,3442           01452        V06N42             VN       0642
000214: 35,3443           04043        V16N35             VN       1635
000215: 35,3444           01455        V06N45             VN       0645
000216:


000218:                                                                                                  #  PROGRAM DESCRIPTION S30.1     DATE 9NOV66
000219:                                                                                                  #  MOD NO 1                      LOG SECTION P30,P37
000220:                                                                                                  #  MOD BY RAMA AIYAWAR **
000221:                                                                                                  #  MOD.2 BY S.ZELDIN - TO CORRECT MOD.1 FOR COLOSSUS             29DEC67
000222:
000223:                                                                                                  #  FUNCTIONAL DESCRIPTION
000224:                                                                                                  #        BASED ON STORED TARGET PARAMETERS (R OF IGNITION (RTIG), V OF
000225:                                                                                                  #        IGNITION (VTIG), TIME OF IGNITION (TIG), DELV(LV), COMPUTE PERIGEE ALTITUDE
000226:                                                                                                  #        A+OGEE ALTITUDE AND DELTA-V REQUIRED IN REF. COORDS. (DELVSIN)
000227:
000228:                                                                                                  #  CALLING SEQUENCE
000229:                                                                                                  #        L       CALL
000230:                                                                                                  #        L+1             S30.1
000231:
000232:                                                                                                  #  NORMAL EXIT MODE
000233:                                                                                                  #        AT L+2 OR CALLING SEQUENCE (GOTO L+2)
000234:
000235:                                                                                                  #  SUBROUTINES CALLED
000236:                                                                                                  #        THISPREC
000237:                                                                                                  #        PERIAPO
000238:
000239:                                                                                                  #  ALARM OR ABORT EXIT MODES
000240:                                                                                                  #        NONE
000241:
000242:                                                                                                  #  ERASABLE INITIALIZATION REQUIRED
000243:                                                                                                  #        TIG             TIME OF IGNITION        DP B28CS
000244:                                                                                                  #        DELVSLV         SPECIFIED DELTA-V IN LOCAL VERT.
000245:                                                                                                  #                        COORDS. OF ACTIVE VEHICLE AT
000246:                                                                                                  #                        TIME OF IGNITION        VCT. B+7 M/CS
000247:
000248:                                                                                                  #  OUTPUT
000249:                                                                                                  #        RTIG            POSITION AT TIG         VCT.    B+29 M
000250:                                                                                                  #        VTIG            VELOCITY AT TIG         VCT.    B+7 M
000251:                                                                                                  #        HAPO            APOGEE ALT.             DP      B+29 M
000252:                                                                                                  #        HPER            PERIGEE ALT.            DP      B+29 M
000253:                                                                                                  #        DELVSIN         DELVSLV IN REF COORDS   VCT.    B+7 M/CS
000254:                                                                                                  #        VGDISP          MAG. OF DELVSIN         DP      B+7 M/CS
000255:
000256:                                                                                                  #  DEBRIS        QTEMP   TEMP.ERASABLE
000257:                                                                                                  #                QPRET, MPAC
000258:                                                                                                  #                PUSHLIST
000259:
000260: 31,2000                                           SETLOC   P30S1A
000261: 31,2000                                           BANK
000262:
000263: 31,3475                                           COUNT    35/S30S
000264:
000265: 31,3475           71220        S30.1              STQ      DLOAD
000266: 31,3476           03657                                    QTEMP
000267: 31,3477           03413                                    TIG                                   #  TIME IGNITION SCALED AT 2(+28)CS
000268: 31,3500           34041                           STCALL   TDEC1
000269: 31,3501           27071                                    THISPREC                              #  ENCKE ROUTINE FOR
000270:
000271: 31,3502           67175                           VLOAD    SXA,2
000272: 31,3503           00007                                    VATT
000273: 31,3504           03746                                    RTX2
000274: 31,3505           27640                           STOVL    VTIG


000276: 31,3506           00001                                    RATT
000277: 31,3507           03632                           STORE    RTIG
000278: 31,3510           03540                           STORE    RACT3
000279: 31,3511           53435                           VXV      UNIT
000280: 31,3512           03640                                    VTIG
000281: 31,3513           36617                           STCALL   UNRM
000282: 31,3514           72666                                    LOMAT
000283: 31,3515           61375                           VLOAD    VXM
000284: 31,3516           03405                                    DELVSLV
000285: 31,3517           00001                                    0
000286: 31,3520           66172                           VSL1     SXA,1
000287: 31,3521           03745                                    RTX1
000288: 31,3522           03646                           STORE    DELVSIN
000289: 31,3523           77646                           ABVAL
000290: 31,3524           27773                           STOVL    VGDISP                                #  MAG DELV
000291: 31,3525           03632                                    RTIG
000292: 31,3526           53315                           PDVL     VAD
000293: 31,3527           03646                                    DELVSIN
000294: 31,3530           03640                                    VTIG
000295: 31,3531           77624                           CALL
000296: 31,3532           45153                                    PERIAPO1
000297: 31,3533           77624                           CALL
000298: 31,3534           45263                                    SHIFTR1
000299: 31,3535           77624                           CALL
000300: 31,3536           46754                                    MAXCHK
000301: 31,3537           16366                           STODL    HPER                                  #  PERIGEE ALT B+29
000302: 31,3540           00005                                    4D
000303: 31,3541           77624                           CALL
000304: 31,3542           45263                                    SHIFTR1
000305: 31,3543           77624                           CALL
000306: 31,3544           46754                                    MAXCHK
000307: 31,3545           36364                           STCALL   HAPO                                  #  APOGEE ALT B+29
000308: 31,3546           03657                                    QTEMP
000309:


000311:                                                                                                  #  S31.1 PROGRAM DESCRIPTION             28DEC67
000312:                                                                                                  #  MOD.1 BY S.ZELDIN
000313:
000314:                                                                                                  #  S31.1 COMPUTES DELV IN REF AND LV COORDS,MAG OF DELV,INTERCEPT TIME,
000315:                                                                                                  #  APOGEE AND PERIGEE ALT FOR REQUIRED MANEUVER
000316:
000317:                                                                                                  #  CALLING SEQUENCE
000318:                                                                                                  #        L       CALL
000319:                                                                                                  #        L+1             S31.1
000320:
000321:                                                                                                  #  NORMAL EXIT MODE
000322:                                                                                                  #        AT L +2 OF CALLING SEQUENCE (GOTO L+2)
000323:
000324:                                                                                                  #  SUBROUTINES CALLED
000325:                                                                                                  #        AGAIN
000326:                                                                                                  #        PERIAPO1
000327:                                                                                                  #        SHIFTR1
000328:                                                                                                  #        MIDGIM
000329:
000330:                                                                                                  #  NO ALARM OR ABORT MODES
000331:
000332:                                                                                                  #  INPUT
000333:                                                                                                  #        DELLT4          DP      +28
000334:                                                                                                  #        TIG             DP      +28
000335:                                                                                                  #        RTARG           VCT     +29
000336:
000337:                                                                                                  #  OUTPUT
000338:                                                                                                  #        DELVLVC         VCT     +7
000339:                                                                                                  #        VGDISP          DP      +7
000340:                                                                                                  #        HAPO            DP      +29
000341:                                                                                                  #        HPER            DP      +29
000342:                                                                                                  #        TPASS4          DP      +28
000343:
000344:                                                                                                  #  DEBRIS - QTEMP
000345:
000346: 31,3547           71220        S31.1              STQ      DLOAD
000347: 31,3550           03657                                    QTEMP
000348: 31,3551           03413                                    TIG
000349: 31,3552           34041                           STCALL   TDEC1
000350: 31,3553           61651                                    AGAIN                                 #  RETURNS RTX2,RTX1,RATT,VATT,VIPRIME
000351: 31,3554           63375                           VLOAD    PDVL                                  #  DELUEET3
000352: 31,3555           03632                                    RTIG
000353: 31,3556           03612                                    VIPRIME
000354: 31,3557           77624                           CALL
000355: 31,3560           45153                                    PERIAPO1
000356: 31,3561           77624                           CALL
000357: 31,3562           45263                                    SHIFTR1
000358: 31,3563           77624                           CALL
000359: 31,3564           46754                                    MAXCHK
000360: 31,3565           16366                           STODL    HPER                                  #  B29
000361: 31,3566           00005                                    4D
000362: 31,3567           77624                           CALL
000363: 31,3570           45263                                    SHIFTR1
000364: 31,3571           77624                           CALL
000365: 31,3572           46754                                    MAXCHK
000366: 31,3573           26364                           STOVL    HAPO                                  #  B29


000368: 31,3574           03646                                    DELVEET3
000369: 31,3575           00001                           STORE    0
000370: 31,3576           45014                           SET      CALL
000371: 31,3577           01072                                    AVFLAG
000372: 31,3600           10647                                    MIDGIM                                #  GET DELVLVC B7 FOR DISPLAY
000373: 31,3601           77646                           ABVAL
000374: 31,3602           17773                           STODL    VGDISP                                #  B+7 FOR DISPLAY
000375: 31,3603           03423                                    DELLT4
000376: 31,3604           77615                           DAD
000377: 31,3605           03413                                    TIG
000378: 31,3606           37656                           STCALL   TPASS4                                #  FOR S40.1
000379: 31,3607           03657                                    QTEMP
000380:


000382:                                                                                                  #  SUBROUTINE NAME:      DELRSPL         (CONTINUATION OF V 82 IN CSM IF P11 ACTI
000383:                                                                                                  #  TRANSFERRED COMPLETELY FROM SUNDISK, P30S REV 33.  9 SEPT 67.
000384:                                                                                                  #  MOD NO: 0     MOD BY: ZELDIN          DATE:
000385:                                                                                                  #  MOD NO: 1     MOD BY: RR BAIRNSFATHER DATE: 11 APR 67
000386:                                                                                                  #  MOD NO: 2     MOD BY: RR BAIRNSFATHER DATE: 12 MAY 67         ADD UR.RT CALC WHEN BELOW 300K FT
000387:                                                                                                  #  MOD NO: 2.1   MOD BY: RR BAIRNSFATHER DATE: 5 JULY 67         FIX ERROR IN MOD. 2.
000388:                                                                                                  #  MOD NO: 3     MOD BY: RR BAIRNSFATHER DATE: 12 JUL 67         CHANGE SIGN OF DISPLAYED ERROR.
000389:                                                                                                  #  MOD 4         MOD BY  S.ZELDIN        DATE  3 APRIL 68        CHANGE EQUATIONS FOR L/D=.18 WHICH REPLA
000390:
000391:                                                                                                  #  FUNCTION:     CALCULATE (FOR DISPLAY ON CALL) AN APPROXIMATE MEASURE OF IN-PLANE SPLASH DOWN
000392:                                                                                                  #                ERROR.  IF THE FREE-FALL TRANSFER ANGLE TO 300K FT ABOVE PAD RADIUS IS POSITIVE:
000393:                                                                                                  #                SPLASH ERROR= -RANGE TO TARGET + FREE-FALL TRANSFER ANGLE + ESTIMATED ENTRY ANGLE.
000394:                                                                                                  #                THE TARGET LOCATION AT ESTIMATED TIME OF IMPACT IS USED.  IF THE FREE-FALL TRANSFER
000395:                                                                                                  #                ANGLE IS NEGATIVE:  SPLASH ERROR= -RANGE TO TARGET
000396:                                                                                                  #                THE PRESENT TARGET LOCATION IS USED.
000397:
000398:                                                                                                  #  CALLING SEQUENCE  CALLED AFTER SR30.1 IF IN CSM AND IF P11 OPERATING (UNDER CONTROL OF V82)
000399:
000400:                                                                                                  #  SUBROUTINES CALLED:  VGAMCALC, TFF/TRIG, LALOTORV.
000401:
000402:                                                                                                  #  EXIT          RETURN DIRECTLY TO V 82 PROG. AT SPLRET
000403:
000404:                                                                                                  #  ERASABLE INITIALIZATION   LEFT BY SR30.1 AND V82GON1
000405:
000406:                                                                                                  #  OUTPUT:       RSP-RREC RANGE IN REVOLUTIONS                   DSKY DISPLAY IN N. MI.
000407:
000408:                                                                                                  #  DEBRIS:       QPRET, PDL0 ... PDL7, PDL10
000409:
000410:                                                                                                  #  THETA(1)
000411:
000412: 32,2017                                           BANK     32
000413: 32,2000                                           SETLOC   DELRSPL1
000414: 32,2000                                           BANK
000415: 32,2017                                           COUNT*   $$/P30                                #  PROGRAMS: P30 EXTERNAL DELTA V
000416:
000417: 32,2017           00011        DELRSPL            STORE    8D
000418: 32,2020           45244                           BPL      DSU
000419: 32,2021           64067                                    CANTDO                                #  GONE PAST 300K FT ALT
000420: 32,2022           16326                                    1BITDP
000421: 32,2023           45000                           BOV      CALL
000422: 32,2024           64067                                    CANTDO                                #  POSMAX INDICATES NO 300K FT SOLUTION.
000423: 32,2025           55051                                    VGAMCALC                              #  +GAMMA(REV) IN PMAC,V300 MAG(B-7)=PDL 0
000424: 32,2026           45006                           PUSH     CALL
000425: 32,2027           56631                                    TFF/TRIG
000426: 32,2030           77624                           CALL
000427: 32,2031           64075                                    AUGEKUGL
000428: 32,2032           65525                           PDDL     ACOS                                  #  T ENTRY PDL 6
000429: 32,2033           00017                                    CDELF/2
000430: 32,2034           77615                           DAD
000431: 32,2035           00005                                    4
000432: 32,2036           26350        GETARG             STOVL    THETA(1)
000433: 32,2037           03401                                    LAT(SPL)
000434: 32,2040           15104                           STODL    LAT
000435: 32,2041           15335                                    HI6ZEROS
000436: 32,2042           15110                           STODL    ALT                                   #  ALT=0 = LAT +4
000437: 32,2043           01205                                    PIPTIME


000439: 32,2044           71214                           BON      DLOAD
000440: 32,2045           03711                                    V37FLAG
000441: 32,2046           64050                                    +2
000442: 32,2047           02325                                    TSTART82
000443: 32,2050           43225                           DSU      DAD
000444: 32,2051           00011                                    8D
000445: 32,2052           45014                           CLEAR    CALL
000446: 32,2053           00662                                    ERADFLAG
000447: 32,2054           26441                                    LALOTORV                              #  R RECOV. IN ALPHAV AND MPAC
000448:
000449: 32,2055           63256                           UNIT     PDVL
000450: 32,2056           02327                                    RONE
000451: 32,2057           50256                           UNIT     DOT
000452: 32,2060           65552                           SL1      ARCCOS
000453: 32,2061           77621                           BDSU                                           #  ERROR = THETA EST - THETA TARG
000454:                                                                                                  #  NEGATIVE NUMBER SIGNIFIES THAT WILL FALL SHORT.
000455:                                                                                                  #  POSITIVE NUMBER SIGNIFIES THAT WILL OVERSHOOT.
000456: 32,2062           02350                                    THETA(1)
000457: 32,2063           36356        DELRDONE           STCALL   RSP-RREC                              #  DOWNRANGE RECOVERY RANGE ERROR        /360
000458: 32,2064           27455                                    INTWAKE0
000459: 32,2065           77624                           CALL
000460: 32,2066           46653                                    SPLRET
000461: 32,2067           65345        CANTDO             DLOAD    PDDL                                  #  INITIALIZE ERASE TO DOT TARGET AND UR
000462:                                                                                                  #  FOR RANGE ANGLE.
000463: 32,2070           15333                                    HIDPHALF                              #  TO PDL 0 FOR DEN INDDV.
000464: 32,2071           15335                                    HI6ZEROS
000465: 32,2072           77606                           PUSH                                           #  ZERO TO PDL 2 FOR PHI ENTRY
000466: 32,2073           34011                           STCALL   8D
000467: 32,2074           64036                                    GETARG                                #  GO SET RSP-RREC =0
000468:
000469: 32,2075           77775        AUGEKUGL           VLOAD
000470: 32,2076           24256                                    X1CON      -2
000471: 32,2077           14045                           STODL    X1         -2
000472: 32,2100           00001                                    0
000473: 32,2101           50025                           DSU      BMN
000474: 32,2102           24250                                    V(21K)
000475: 32,2103           64130                                    LOOPSET
000476: 32,2104           65060                           XSU,1    XCHX,2
000477: 32,2105           00050                                    S1
000478: 32,2106           00046                                    X1
000479: 32,2107           45324                           XCHX,2   DSU
000480: 32,2110           00050                                    S1
000481: 32,2111           24236                                    V(3K)
000482: 32,2112           65040                           BMN      XCHX,2
000483: 32,2113           64130                                    LOOPSET
000484: 32,2114           00050                                    S1
000485: 32,2115           50025                           DSU      BMN
000486: 32,2116           24246                                    V(4K)
000487: 32,2117           64130                                    LOOPSET
000488: 32,2120           65124                           XCHX,2   XCHX,2


000490: 32,2121           00050                                    S1
000491: 32,2122           00046                                    X1
000492: 32,2123           50025                           DSU      BMN
000493: 32,2124           24232                                    V(400)
000494: 32,2125           64130                                    LOOPSET
000495: 32,2126           77730                           SXA,1
000496: 32,2127           00050                                    S1
000497: 32,2130           52110        LOOPSET            INCR,1   GOTO
000498: 32,2131           00001                           DEC      1          B-14
000499: 32,2132           64135                                    K1K2LOOP
000500: 32,2133           77730        K2CALC             SXA,1
000501: 32,2134           00050                                    S1
000502: 32,2135           44745        K1K2LOOP           DLOAD    DSU*
000503: 32,2136           00001                                    0
000504: 32,2137           24245                                    V(32K)     +1,1
000505: 32,2140           42603                           DMP*     DAD*
000506: 32,2141           24231                                    YK1K2      +1,1
000507: 32,2142           24215                                    CK1K2      +1,1
000508: 32,2143           60125                           PDDL     TIX,1
000509: 32,2144           00003                                    2
000510: 32,2145           64133                                    K2CALC
000511: 32,2146           55225                           DSU      BDDV
000512: 32,2147           40006                           PUSH     BOV
000513: 32,2150           64173                                    MAXPHI
000514: 32,2151           45240                           BMN      DSU
000515: 32,2152           64173                                    MAXPHI
000516: 32,2153           24200                                    MAXPHIC
000517: 32,2154           77644                           BPL
000518: 32,2155           64173                                    MAXPHI
000519: 32,2156           45345        PHICALC            DLOAD    DSU                                   #  PHI ENTRY PDL 4D
000520: 32,2157           00001                                    0
000521: 32,2160           24256                                    V(26K)
000522: 32,2161           71244                           BPL      DLOAD
000523: 32,2162           64170                                    TGR26
000524: 32,2163           24252                                    TLESS26
000525: 32,2164           77671                           DDV
000526: 32,2165           00001                                    0
000527: 32,2166           43405        TENT               DMP      RVQ
000528: 32,2167           00005                                    4D
000529: 32,2170           52145        TGR26              DLOAD    GOTO
000530: 32,2171           24254                                    TGR26CON
000531: 32,2172           64166                                    TENT
000532:
000533: 32,2173           65345        MAXPHI             DLOAD    PDDL
000534: 32,2174           24200                                    MAXPHIC
000535: 32,2175           77650                           GOTO
000536: 32,2176           64156                                    PHICALC
000537: 32,2177           02755 01307  MAXPHIC            2DEC     .09259298                             #  2000 NM FOR MAXIMUM PHI ENTRY
000538:


000540:
000541: 32,2201                                           COUNT*   $$/P30
000542:
000543:                                                                                                  #                BELOW
000544:                                                                                                  #  <<<< TABLE IS INDEXED. KEEP IN ORDER >>>
000545:
000546: 32,2201           00013 22652                     2DEC     7.07304526 E-4                        #  5500
000547: 32,2203           00005 01642                     2DEC     3.08641975 E-4                        #  2400
000548: 32,2205           00005 01642                     2DEC     3.08641975 E-4                        #  2400
000549: 32,2207           77556 53522                     2DEC     -8.8888888 E-3                        #  -3.2
000550: 32,2211           00055 20266                     2DEC     2.7777777  E-3                        #  1
000551: 32,2213           00155 07202  CK1K2              2DEC     6.6666666  E-3                        #  2.4
000552: 32,2215           00000 00000                     2DEC     0          B-28                       #  0
000553: 32,2217           77730 71525                     2DEC*    -1.86909989 E-5        B7*             #  -.443
000554: 32,2221           00000 00000                     2DEC     0          B-28
000555: 32,2223           04445 10102                     2DEC*    1.11639691 E-3        B7*             #  .001225
000556: 32,2225           03726 31201                     2DEC*    9.56911636 E-4        B7*             #  .00105
000557: 32,2227           01040 26313  YK1K2              2DEC*    2.59733157 E-4        B7*             #  .000285
000558: 32,2231           00234 01660  V(400)             2DEC     1.2192     B-7
000559: 32,2233           25254 01014  V(28K)             2DEC     85.344     B-7
000560: 32,2235           02222 15646  V(3K)              2DEC     9.144      B-7
000561: 32,2237           22223 16457  V(24K)             2DEC     73.152     B-7
000562: 32,2241           25254 01014                     2DEC     85.344     B-7
000563: 32,2243           30304 23351  V(32K)             2DEC     97.536     B-7
000564: 32,2245           03030 22335  V(4K)              2DEC     12.192     B-7
000565: 32,2247           20000 00000  V(21K)             2DEC     64.000     B-7
000566: 32,2251           00033 05763  TLESS26            2DEC*    5.70146688 E7         B-35*           #  8660PHI/V
000567: 32,2253           00053 36200  TGR26CON           2DEC     7.2        E5         B-28            #  PHI/3
000568: 32,2255           23637 27636  V(26K)             2DEC     79.248     B-7                        #  26000
000569:


000571:
000572: 32,2257           00012        X1CON              DEC      10         B-14
000573: 32,2260           00010                           DEC      8          B-14
000574: 32,2261           00006                           DEC      6          B-14
000575:                                                                                                  #  <<<< TABLE IS INDEXED. KEEP IN ORDER >>>
000576:                                                                                                  #                     ABOVE


000578:                                                                                                  #  ..... AVFLAGA/P .....
000579:
000580:                                                                                                  #  SUBROUTINES USED
000581:
000582:                                                                                                  #        UPFLAG
000583:                                                                                                  #        DOWNFLAG
000584:
000585:    4000                                           SETLOC   P30SUBS
000586:    4000                                           BANK
000587:    4627  E4,1770                                  EBANK=   SUBEXIT
000588:    4627           00006        AVFLAGA            EXTEND                                         #  AVFLAG = CSM
000589:    4630           23770                           QXCH     SUBEXIT
000590:    4631           05560                           TC       DOWNFLAG
000591:    4632           00050                           ADRES    AVFLAG                                #  BIT 5 FLAG 2
000592:    4633           35060                           CAF      EBANK7
000593:    4634           54003                           TS       EBANK
000594:    4635  E7,1424                                  EBANK=   ECSTEER
000595:    4635           35003                           CAF      BIT13
000596:    4636           55424                           TS       ECSTEER                               #  SET ECSTEER = 1
000597:    4637           35005                           CAF      EBANK4
000598:    4640           54003                           TS       EBANK
000599:    4641  E4,1770                                  EBANK=   SUBEXIT
000600:    4641           01770                           TC       SUBEXIT
000601:    4642           00006        AVFLAGP            EXTEND                                         #  AVFLAG = LEM
000602:    4643           23770                           QXCH     SUBEXIT
000603:    4644           05546                           TC       UPFLAG
000604:    4645           00050                           ADRES    AVFLAG                                #  BIT 5 FLAG 2
000605:    4646           01770                           TC       SUBEXIT
000606:    4647           00006        P20FLGON           EXTEND
000607:    4650           23770                           QXCH     SUBEXIT
000608:    4651           05546                           TC       UPFLAG
000609:    4652           00031                           ADRES    TRACKFLG
000610:    4653           05546                           TC       UPFLAG
000611:    4654           00027                           ADRES    UPDATFLG
000612:    4655           01770                           TC       SUBEXIT                               #  DP B4
000613:
000614:

End of include-file P30,P37.agc.  Parent file is MAIN.agc


