
Source Code


000002:                                                                                                  #  Copyright:    Public domain.
000003:                                                                                                  #  Filename:     P32-P33_P72-P73.agc
000004:                                                                                                  #  Purpose:      Part of the source code for Colossus 2A, AKA Comanche 055.
000005:                                                                                                  #                It is part of the source code for the Command Module's (CM)
000006:                                                                                                  #                Apollo Guidance Computer (AGC), for Apollo 11.
000007:                                                                                                  #  Assembler:    yaYUL
000008:                                                                                                  #  Contact:      Ron Burkey <info@sandroid.org>.
000009:                                                                                                  #  Website:      www.ibiblio.org/apollo.
000010:                                                                                                  #  Pages:        649-683
000011:                                                                                                  #  Mod history:  2009-05-09 RSB  Adapted from the Luminary131/ file
000012:                                                                                                  #                                P32-P35_P72-P75.agc and Comanche055 page
000013:                                                                                                  #                                images.
000014:                                                                                                  #                2009-05-20 RSB  Corrected CSI/COM3 -> CSI/CDH3,
000015:                                                                                                  #                                CSI/CDHI -> CSI/CDH1, CDHTAB -> CDHTAG,
000016:                                                                                                  #                                changed a SETLOC from CSI/CDH to CSI/CDH1,
000017:                                                                                                  #                                a SETLOC CSI/CDH1 to CSIPROG.
000018:                                                                                                  #                2009-05-21 RSB  Changed a P32/P72D to P32/P72E in
000019:                                                                                                  #                                P32/P72D.  DP1/4TH changed to DP1/4 in
000020:                                                                                                  #                                CDHMVR.
000021:
000022:                                                                                                  #  This source code has been transcribed or otherwise adapted from digitized
000023:                                                                                                  #  images of a hardcopy from the MIT Museum.  The digitization was performed
000024:                                                                                                  #  by Paul Fjeld, and arranged for by Deborah Douglas of the Museum.  Many
000025:                                                                                                  #  thanks to both.  The images (with suitable reduction in storage size and
000026:                                                                                                  #  consequent reduction in image quality as well) are available online at
000027:                                                                                                  #  www.ibiblio.org/apollo.  If for some reason you find that the images are
000028:                                                                                                  #  illegible, contact me at info@sandroid.org about getting access to the
000029:                                                                                                  #  (much) higher-quality images which Paul actually created.
000030:
000031:                                                                                                  #  Notations on the hardcopy document read, in part:
000032:
000033:                                                                                                  #        Assemble revision 055 of AGC program Comanche by NASA
000034:                                                                                                  #        2021113-051.  10:28 APR. 1, 1969
000035:
000036:                                                                                                  #        This AGC program shall also be referred to as
000037:                                                                                                  #                        Colossus 2A
000038:
000039:                                                                                                  #  Page 649
000040:                                                                                                  #  COELLIPTIC SEQUENCE INITIATION (CSI) PROGRAMS (P32 AND P72)
000041:
000042:                                                                                                  #  MOD NO -1             LOG SECTION -- P32-P35, P72-P75
000043:                                                                                                  #  MOD BY WHITE, P.      DATE 1 JUNE 67
000044:
000045:                                                                                                  #  PURPOSE
000046:                                                                                                  #        (1)     TO CALCULATE PARAMETERS ASSOCIATED WTIH THE FOLLOWING
000047:                                                                                                  #                CONCENTRIC FLIGHT PLAN MANEUVERS -- THE CO-ELLIPTIC SEQUENCE
000048:                                                                                                  #                INITIATION (CSI) MANEUVER AND THE CONSTANT DELTA ALTITUDE
000049:                                                                                                  #                (CDH) MANEUVER.
000050:                                                                                                  #        (2)     TO CALCULATE THESE PARAMETERS BASED UPON MANEUVER DATA
000051:                                                                                                  #                APPROVED AND KEYED INTO THE DSKY BY THE ASTRONAUT.
000052:                                                                                                  #        (3)     TO DISPLAY TO THE ASTRONAUT AND THE GROUND DEPENDENT VARIABLES
000053:                                                                                                  #                ASSOCIATED WITH THE CONCENTRIC FLIGHT PLAN MANEUVERS FOR
000054:                                                                                                  #                APPROVAL BY THE ASTRRONAUT/GROUND.
000055:                                                                                                  #        (4)     TO STORE THE CSI TARGET PARAMETERS FOR USE BY THE DESIRED
000056:                                                                                                  #                THRUSTING PROGRAM.
000057:
000058:                                                                                                  #  ASSUMPTIONS
000059:                                                                                                  #        (1)     AT A SELECTED TPI TIME THE LINE OF SIGNT BETWEEN THE ACTIVE
000060:                                                                                                  #                AND PASSIVE VEHICLES IS SELECTED TO BE A PRESCRIBED ANGLE (E)
000061:                                                                                                  #                FROM THE HORIZONTAL PLANE DEFINED BY THE ACTIVE VEHICLE
000062:                                                                                                  #                POSITION.
000063:                                                                                                  #        (2)     THE TIME BETWEEN CSI IGNITION AND CDH IGNITION MUST BE
000064:                                                                                                  #                COMPUTED TO BE GREATER THAN 10 MINUTES FOR SUCCESSFUL
000065:                                                                                                  #                COMPLETION OF THE PROGRAM.
000066:                                                                                                  #        (3)     THE TIME BETWEEN CDH IGNITION AND TPI IGNITION MUST BE
000067:                                                                                                  #                COMPUTED TO BE GREATER THAN 10 MINUTES FOR SUCCESSFUL
000068:                                                                                                  #                COMPLETION OF THE PROGRAM.
000069:                                                                                                  #        (4)     CDH DELTA V IS SELECTED TO MINIMIZE THE VARIATION OF THE
000070:                                                                                                  #                ALTITUDE DIFFERENCE BETWEEN THE ORBITS.
000071:                                                                                                  #        (5)     CSI BURN IS DEFINED SUCH THAT THE IMPULSIVE DELTA V IS IN THE
000072:                                                                                                  #                HORIZONTAL PLANE DEFINED BY THE ACTIVE VEHICLE POSITION AT CSI
000073:                                                                                                  #                IGNITION.
000074:                                                                                                  #        (6)     THE PERICENTER ALTITUDE OF THE ORBIT FOLLOWING CSI AND CDH
000075:                                                                                                  #                MUST BE GREATER THAN 35,000 FT (LUNAR ORBIT) OR 85 NM (EARTH
000076:                                                                                                  #                ORBIT) FOR SUCCESSFUL COMPLETION OF THIS PROGRAM.
000077:                                                                                                  #        (7)     THE CSI AND CDH MANEUVERS ARE ORIGINALLY ASSUMED TO BE
000078:                                                                                                  #                PARALLEL TO THE PLANE OF THE CSM ORBIT.  HOWEVER, CREW
000079:                                                                                                  #  Page 650
000080:                                                                                                  #                MODIFICATION OF DELTA V (LV) COMPONENTS MAY RESULT IN AN
000081:                                                                                                  #                OUT-OF-PLANE CSI MANEUVER
000082:                                                                                                  #        (8)     STATE VECTOR UPDATES BY P27 ARE DISALLOWED DURING AUTOMATIC
000083:                                                                                                  #                STATE VECTOR UPDATING INITIATED BY P20 (SEE ASSUMPTION 10).
000084:                                                                                                  #        (9)     COMPUTED VARIABLES MAY BE STORED FOR LATER VERIFICATION BY
000085:                                                                                                  #                THE GROUND.  THESE STORAGE CAPABILITIES ARE NORMALLY LIMITED
000086:                                                                                                  #                ONLY TO THE PARAMETERS FOR ONE THRUSTING MANEUVER AT A TIME
000087:                                                                                                  #                EXCEPT FOR CONCENTRIC FLIGHT PLAN MANEUVER SEQUENCES.
000088:                                                                                                  #        (10)    THE RENDEZVOUS RADAR MAY OR MAY NOT BE USED TO UPDATE THE LM
000089:                                                                                                  #                OR CSM STATE VECTORS FOR THIS PROGRAM.  IF RADAR USE IS
000090:                                                                                                  #                DESIRED THE RADAR WAS TURNED ON AND LOCKED BY THE CSM BY
000091:                                                                                                  #                PREVIOUS SELECTION OF P20.  RADAR SIGHTING MARKS WILL BE MADE
000092:                                                                                                  #                AUTOMATICALLY APPROXIMATELY ONCE A MINUTE WHEN ENABLED BY THE
000093:                                                                                                  #                TRACK AND UPDATE FLAGS (SEE P20).  THE RENDEZVOUS TRACKING
000094:                                                                                                  #                MARK COUNTER IS ZEROED BY THE SELECTION OF P20 AND AFTER EACH
000095:                                                                                                  #                THRUSTING MANEUVER.
000096:                                                                                                  #        (11)    THE ISS NEED NOT BE ON TO COMPLETE THIS PROGRAM.
000097:                                                                                                  #        (12)    THE OPERATION OF THE PROGRAM UTILIZES THE FOLLOWING FLAGS --
000098:
000099:                                                                                                  #                        ACTIVE VEHICLE FLAG -- DESIGNATES THE VEHICLE WHICH IS
000100:                                                                                                  #                        DOING RENDEZVOUS THRUSTING MANEUVERS TO THE PROGRAM WHICH
000101:                                                                                                  #                        CALCULATES THE MANEUVER PARAMETERS.  SET AT THE START OF
000102:                                                                                                  #                        EACH RENDEZVOUS PRE-THRUSTING PROGRAM.
000103:
000104:                                                                                                  #                        FINAL FLAG -- SELECTS FINAL PROGRAM DISPLAYS AFTER CREW HAS
000105:                                                                                                  #                        COMPLETED THE FINAL MANEUVER COMPUTATION AND DISPLAY
000106:                                                                                                  #                        CYCLE.
000107:
000108:                                                                                                  #                        EXTERNAL DELTA V STEERING FLAG -- DESIGNATES THE TYPE OF
000109:                                                                                                  #                        STEERING REQUIRED FOR EXECUTION OF THIS MANEUVER BY THE
000110:                                                                                                  #                        THRUSTING PROGRAM SELECTED AFTER COMPLETION OF THIS
000111:                                                                                                  #                        PROGRAM.
000112:
000113:                                                                                                  #        (13)    IT IS NORMALLY REQUIRED THAT THE ISS BE ON FOR 1 HOUR PRIOR TO
000114:                                                                                                  #                A THRUSTING MANEUVER.
000115:
000116:                                                                                                  #        (14)    THIS PROGRAM IS SELECTED BY THE ASTRONAUT BY DSKY ENTRY
000117:
000118:                                                                                                  #                        P32 IF THIS VEHICLE IS ACTIVE VEHICLE.
000119:
000120:                                                                                                  #                        P72 IF THIS VEHICLE IS THE PASSIVE VEHICLE.
000121:
000122:                                                                                                  #  INPUT
000123:                                                                                                  #        (1)     TCSI            TIME OF THE CSI MANEUVER
000124:                                                                                                  #  Page 651
000125:                                                                                                  #        (2)     NN              NUMBER OF APSIDAL CROSSINGS THRU WHICH THE ACTIVE
000126:                                                                                                  #                                VEHICLE ORBIT CAN BE ADVANCED TO OBTAIN THE CDH
000127:                                                                                                  #                                MANEUVER POINT.
000128:                                                                                                  #        (3)     ELEV            DESIRED LOS ANGLE AT TPI
000129:                                                                                                  #        (4)     TTPI            TIME OF THE TPI MANEUVER
000130:
000131:                                                                                                  #  OUTPUT
000132:                                                                                                  #        (1)     TRKMKCNT        NUMBER OF MARKS
000133:                                                                                                  #        (2)     TTOGO           TIME TO GO
000134:                                                                                                  #        (3)     +MGA            MIDDLE GIMBAL ANGLE
000135:                                                                                                  #        (4)     DIFFALT         DELTA ALTITUDE AT CDH
000136:                                                                                                  #        (5)     T1TOT2          DELTA TIME FROM CSI TO CDH
000137:                                                                                                  #        (6)     T2TOT3          DELTA TIME FROM CDH TO TPI
000138:                                                                                                  #        (7)     DELVLVC         DELTA VELOCITY AT CSI -- LOCAL VERTICAL COORDINATES
000139:                                                                                                  #        (8)     DELVLVC         DELTA VELOCITY AT CDH -- LOCAL VERTICAL COORDINATES
000140:
000141:                                                                                                  #  DOWNLINK
000142:                                                                                                  #        (1)     TCSI            TIME OF THE CSI MANEUVER
000143:                                                                                                  #        (2)     TCDH            TIME OF THE CDH MANEUVER
000144:                                                                                                  #        (3)     TTPI            TIME OF THE TPI MANEUVER
000145:                                                                                                  #        (4)     TIG             TIME OF THE CSI MANEUVER
000146:                                                                                                  #        (5)     DELVEET1        DELTA VELOCITY AT CSI -- REFERENCE COORDINATES
000147:                                                                                                  #        (6)     DELVEET2        DELTA VELOCITY AT CDH -- REFERENCE COORDINATES
000148:                                                                                                  #        (7)     DIFFALT         DELTA ALTITUDE AT CDH
000149:                                                                                                  #        (8)     NN              NUMBER OF APSIDAL CROSSINGS THRU WHICH THE ACTIVE
000150:                                                                                                  #                                VEHICLE ORBIT CAN BE ADVANCED TO OBTAIN THE CDH
000151:                                                                                                  #                                MANEUVER POINT
000152:                                                                                                  #        (9)     ELEV            DESIRED LOS ANGLE AT TPI
000153:
000154:                                                                                                  #  COMMUNICATION TO THRUSTING PROGRAMS
000155:                                                                                                  #        (1)     TIG             TIME OF THE CSI MANEUVER
000156:                                                                                                  #        (2)     RTIG            POSITION OF ACTIVE VEHICLE AT CSI -- BEFORE ROTATION
000157:                                                                                                  #                                INTO PLANE OF PASSIVE VEHICLE
000158:                                                                                                  #        (3)     VTIG            VELOCITY OF ACTIVE VEHICLE AT CSE -- BEFORE ROTATION
000159:                                                                                                  #                                INTO PLANE OF PASSIVE VEHICLE
000160:                                                                                                  #        (4)     DELVSIN         DELTA VELOCITY AT CSI -- REFERENCE COORDINATES
000161:                                                                                                  #        (5)     DELVSAB         MAGNITUDE OF DELTA VELOCITY AT CSI
000162:                                                                                                  #        (6)     XDELVFLG        SET TO INDICATE EXTERNAL DELTA V VG COMPUTATION
000163:
000164:                                                                                                  #  SUBROUTINES USED
000165:                                                                                                  #        AVFLAGA
000166:                                                                                                  #        AVFLAGP
000167:                                                                                                  #        P20FLGON
000168:                                                                                                  #        VARALARM
000169:                                                                                                  #        BANKCALL
000170:                                                                                                  #        GOFLASH
000171:                                                                                                  #        GOTOP00H
000172:                                                                                                  #  Page 652
000173:                                                                                                  #        VNP00H
000174:                                                                                                  #        GOFLASHR
000175:                                                                                                  #        BLANKET
000176:                                                                                                  #        ENDOFJOB
000177:                                                                                                  #        SELECTMU
000178:                                                                                                  #        ADVANCE
000179:                                                                                                  #        INTINT
000180:                                                                                                  #        PASSIVE
000181:                                                                                                  #        CSI/A
000182:                                                                                                  #        S32/33.1
000183:                                                                                                  #        DISDVLVC
000184:                                                                                                  #        VN1645
000185:
000186: 35,3445                                           BANK     35
000187: 04,2000                                           SETLOC   CSI/CDH1
000188: 04,2000                                           BANK
000189: 04,3303  E4,1770                                  EBANK=   SUBEXIT
000190: 04,3303                                           COUNT    35/P3272
000191: 04,3303           04627        P32                TC       AVFLAGA
000192: 04,3304           03306                           TC       P32STRT
000193: 04,3305           04642        P72                TC       AVFLAGP
000194: 04,3306           06006        P32STRT            TC       INTPRET
000195: 04,3307           77745                           DLOAD
000196: 04,3310           11566                                    ZEROVEC
000197: 04,3311           03754                           STORE    CENTANG
000198: 04,3312           77776                           EXIT
000199: 04,3313           03331                           TC       P32/P72A
000200: 04,3314           77734        ALMXITA            SXA,2
000201: 04,3315           03664                                    CSIALRM
000202: 04,3316           77740        ALMXIT             LXC,1
000203: 04,3317           03664                                    CSIALRM
000204: 04,3320           77533                           SLOAD*   EXIT
000205: 04,3321           15653                                    ALARM/TB   -1,1
000206: 04,3322           30154                           CA       MPAC
000207: 04,3323           05764                           TC       VARALARM
000208: 04,3324           35050                           CAF      V05N09
000209: 04,3325           04662                           TC       BANKCALL
000210: 04,3326           20720                           CADR     GOFLASH
000211: 04,3327           04106                           TC       GOTOP00H
000212: 04,3330           03324                           TC       -4
000213: 04,3331           04647        P32/P72A           TC       P20FLGON
000214: 04,3332           06006                           TC       INTPRET
000215: 04,3333           77745                           DLOAD
000216: 04,3334           11566                                    ZEROVEC
000217: 04,3335           03766                           STORE    NN
000218: 04,3336           77776                           EXIT
000219: 04,3337           34656                           CAF      V06N11                                #  TCSI
000220: 04,3340           04575                           TC       VNP00H
000221: 04,3341           34615                           CAF      V06N55
000222:                                                                                                  #  Page 653
000223: 04,3342           04662                           TC       BANKCALL
000224: 04,3343           20720                           CADR     GOFLASH
000225: 04,3344           04106                           TC       GOTOP00H
000226: 04,3345           03347                           TC       +2
000227: 04,3346           03341                           TC       -5
000228: 04,3347           34614                           CAF      V06N37                                #  TTPI
000229: 04,3350           04575                           TC       VNP00H
000230: 04,3351           06006                           TC       INTPRET
000231: 04,3352           77745                           DLOAD
000232: 04,3353           02637                                    TCSI
000233: 04,3354           37413                           STCALL   TIG
000234: 04,3355           10712                                    SELECTMU
000235: 04,3356           77624        P32/P72B           CALL
000236: 04,3357           76645                                    ADVANCE
000237: 04,3360           77201                           SETPD    VLOAD
000238: 04,3361           00001                                    0D
000239: 04,3362           03512                                    VPASS1
000240: 04,3363           65315                           PDVL     PDDL
000241: 04,3364           03756                                    RPASS1
000242: 04,3365           02637                                    TCSI
000243: 04,3366           65325                           PDDL     PDDL
000244: 04,3367           03663                                    TTPI
000245: 04,3370           11630                                    2PISC
000246: 04,3371           41512                           SL2      PUSH
000247: 04,3372           77624                           CALL
000248: 04,3373           72705                                    INTINT
000249: 04,3374           77624                           CALL
000250: 04,3375           45247                                    PASSIVE
000251: 04,3376           77624                           CALL
000252: 04,3377           15704                                    CSI/A
000253: 04,3400           43014        P32/P72C           BON      SET
000254: 04,3401           01311                                    FINALFLG
000255: 04,3402           11404                                    P32/P72D
000256: 04,3403           00470                                    UPDATFLG
000257: 04,3404           52145        P32/P72D           DLOAD    GOTO
000258: 04,3405           02547                                    T1TOT2
000259: 04,3406           30002                                    P32/P72E
000260: 14,2000                                           SETLOC   CSI/CDH3
000261: 14,2000                                           BANK
000262: 14,2002           02547        P32/P72E           STORE    T1TOT2
000263: 14,2003           51025                           DSU      BPL
000264: 14,2004           15652                                    60MIN
000265: 14,2005           30002                                    P32/P72E
000266: 14,2006           52145                           DLOAD    GOTO
000267: 14,2007           03656                                    T2TOT3
000268: 14,2010           11407                                    P32/P72F
000269: 04,2000                                           SETLOC   CSI/CDH1
000270: 04,2000                                           BANK
000271: 04,3407           03656        P32/P72F           STORE    T2TOT3
000272: 04,3410           51025                           DSU      BPL
000273:                                                                                                  #  Page 654
000274: 04,3411           15652                                    60MIN
000275: 04,3412           11407                                    P32/P72F
000276: 04,3413           77776                           EXIT
000277: 04,3414           34660                           CAF      V06N75
000278: 04,3415           04575                           TC       VNP00H
000279: 04,3416           06006                           TC       INTPRET
000280: 04,3417           45175                           VLOAD    CALL
000281: 04,3420           02445                                    DELVEET1
000282: 04,3421           73457                                    S32/33.1
000283: 04,3422           26445                           STOVL    DELVEET1
000284: 04,3423           02453                                    RACT2
000285: 04,3424           26541                           STOVL    RACT1
000286: 04,3425           03667                                    DELVEET2
000287: 04,3426           45170                           AXT,1    CALL
000288: 04,3427           01522                           VN       0682
000289: 04,3430           76625                                    DISDVLVC
000290: 04,3431           77745                           DLOAD
000291: 04,3432           03663                                    TTPI
000292: 04,3433           36641                           STCALL   TTPIO
000293: 04,3434           73002                                    VN1645
000294: 04,3435           77650                           GOTO
000295: 04,3436           11356                                    P32/P72B
000296:
000297:                                                                                                  #  Page 655
000298:                                                                                                  #  CONSTANT DELTA HEIGHT (CDH) PROGRAMS (P33 AND P73)
000299:                                                                                                  #  MOD NO -1                     LOC SECTION -- P32-P35, P72-P75
000300:                                                                                                  #  MOD BY WHITE, P.              DATE: 1 JUNE 67
000301:
000302:                                                                                                  #  PURPOSE
000303:
000304:                                                                                                  #        (1)     TO CALCULATE PARAMETERS ASSOCIATED WITH THE CONSTANT DELTA
000305:                                                                                                  #                ALTITUDE MANEUVER (CDH).
000306:
000307:                                                                                                  #        (2)     TO CALCULATE THESE PARAMETERS BASED UPON MANEUVER DATA
000308:                                                                                                  #                APPROVED AND KEYED INTO THE DSKY BY THE ASTRONAUT.
000309:
000310:                                                                                                  #        (3)     TO DISPLAY TO THE ASTRONAUT AND THE GROUND DEPENDENT VARIABLES
000311:                                                                                                  #                ASSOCIATED WITH THE CDH MANEUVER FOR APPROVAL BY THE
000312:                                                                                                  #                ASTRONAUT/GROUND.
000313:
000314:                                                                                                  #        (4)     TO STORE THE CDH TARGET PARAMETERS FOR USE BY THE DESIRED
000315:                                                                                                  #                THRUSTING PROGRAM.
000316:
000317:                                                                                                  #  ASSUMPTIONS
000318:
000319:                                                                                                  #        (1)     THIS PROGRAM IS BASED UPON PREVIOUS COMPLETION OF THE
000320:                                                                                                  #                CO-ELLIPTIC SEQUENCE INITIATION (CSI) PROGRAM (P32/P72).
000321:                                                                                                  #                THEREFORE --
000322:
000323:                                                                                                  #                (A)     AT A SELECTED TPI TIME (NOW IN STORAGE) THE LINE OF SIGHT
000324:                                                                                                  #                        BETWEEN THE ACTIVE AND PASSIVE VEHICLES WAS SELECTED TO BE
000325:                                                                                                  #                        A PRESCRIBED ANGLE (E) (NOW IN STORAGE) FROM THE
000326:                                                                                                  #                        HORIZONTAL PLANE DEFINED BY THE ACTIVE VEHICLE POSITION.
000327:
000328:                                                                                                  #                (B)     THE TIME BETWEEN CSI IGNITION AND CDH IGNITION WAS
000329:                                                                                                  #                        COMPUTED TO BE GREATER THAN 10 MINUTES.
000330:
000331:                                                                                                  #                (C)     THE TIME BETWEEN CDH IGNITION AND TPI IGNITION WAS
000332:                                                                                                  #                        COMPUTED TO BE GREATER THAN 10 MINUTES.
000333:
000334:                                                                                                  #                (D)     THE VARIATION OF THE ALTITUDE DIFFERENCE BETWEEN THE
000335:                                                                                                  #                        ORBITS WAS MINIMIZED.
000336:
000337:                                                                                                  #                (E)     CSI BURN WAS DEFINED SUCH THAT THE IMPULSIVE DELTA V WAS
000338:                                                                                                  #                        IN THE HORIZONTAL PLANE DEFINED BY ACTIVE VEHICLE
000339:                                                                                                  #                        POSITION AT CSI IGNITION.
000340:
000341:                                                                                                  #                (F)     THE PERICENTER ALTITUDES OF THE ORBITS FOLLOWING CSI AND
000342:                                                                                                  #                        CDH WERE COMPUTED TO BE GREATER THAN 35,000 FT FOR LUNAR
000343:                                                                                                  #                        ORBIT OR 85 NM FOR EARTH ORBIT.
000344:
000345:                                                                                                  #                (G)     THE CSI AND CDH MANEUVERS WERE ASSUMED TO BE PARALLEL TO
000346:                                                                                                  #                        THE PLANE OF THE PASSIVE VEHICLE ORBIT.  HOWEVER, CREW
000347:                                                                                                  #  Page 656
000348:                                                                                                  #                        MODIFICATION OF DELTA V (LV) COMPONENTS MAY HAVE RESULTED
000349:                                                                                                  #                        IN AN OUT-OF-PLANE MANEUVER.
000350:
000351:                                                                                                  #        (2)     STATE VECTOR UPDATES BY P27 ARE DISALLOWED DURING AUTOMATIC
000352:                                                                                                  #                STATE VECTOR UPDATING INITIATED BY P20 (SEE ASSUMPTION 4).
000353:
000354:                                                                                                  #        (3)     COMPUTED VARIABLES MAY BE STORED FOR LATER VERIFICATION BY
000355:                                                                                                  #                THE GROUND.  THESE STORAGE CAPABILITIES ARE NORMALLY LIMITED
000356:                                                                                                  #                ONLY TO THE PARAMETERS FOR ONE THRUSTING MANEUVER AT A TIME
000357:                                                                                                  #                EXCEPT FOR CONCENTRIC FLIGHT PLAN MANEUVER SEQUENCES.
000358:
000359:                                                                                                  #        (4)     THE RENDEZVOUS RADAR MAY OR MAY NOT BE USED TO UPDATE THE LM.
000360:                                                                                                  #                OR CSM STATE VECTORS FOR THIS PROGRAM.  IF RADAR USE IS
000361:                                                                                                  #                DESIRED THE RADAR WAS TURNED ON AND LOCKED ON THE CSM BY
000362:                                                                                                  #                PREVIOUS SELECTION OF P20.  RADAR SIGHTING MARKS WILL BE MADE
000363:                                                                                                  #                AUTOMATICALLY APPROXIMATELY ONCE A MINUTE WHEN ENABLED BY THE
000364:                                                                                                  #                TRACK AND UPDATE FLAGS (SEE P20).  THE RENDEZVOUS TRACKING
000365:                                                                                                  #                MARK COUNTER IS ZEROED BY THE SELECTION OF P20 AND AFTER EACH
000366:                                                                                                  #                THRUSTING MANEUVER.
000367:
000368:                                                                                                  #        (5)     THE ISS NEED NOT BE ON TO COMPLETE THIS PROGRAM.
000369:
000370:                                                                                                  #        (6)     THE OPERATION OF THE PROGRAM UTILIZES THE FOLLOWING FLAGS --
000371:
000372:                                                                                                  #                        ACTIVE VEHICLE FLAG -- DESIGNATES THE VEHICLE WHICH IS
000373:                                                                                                  #                        DOING RENDEZVOUS THRUSTING MANEUVERS TO THE PROGRAM WHICH
000374:                                                                                                  #                        CALCULATES THE MANEUVER PARAMETERS.  SET AT THE START OF
000375:                                                                                                  #                        EACH RENDEZVOUS PRE-THRUSTING PROGRAM.
000376:
000377:                                                                                                  #                        FINAL FLAG -- SELECTS FINAL PROGRAM DISPLAYS AFTER CREW HAS
000378:                                                                                                  #                        COMPLETED THE FINAL MANEUVER COMPUTATION AND DISPLAY
000379:                                                                                                  #                        CYCLE.
000380:
000381:                                                                                                  #                        EXTERNAL DELTA V STEERING FLAG -- DESIGNATES THE TYPE OF
000382:                                                                                                  #                        STEERING REQUIRED FOR EXECUTION OF THIS MANEUVER BY THE
000383:                                                                                                  #                        THRUSTING PROGRAM SELECTED AFTER COMPLETION OF THIS
000384:                                                                                                  #                        PROGRAM.
000385:
000386:                                                                                                  #        (7)     IT IS NORMALLY REQUIRED THAT THE ISS BE ON FOR 1 HOUR PRIOR TO
000387:                                                                                                  #                A THRUSTING MANEUVER.
000388:
000389:                                                                                                  #        (8)     THIS PROGRAM IS SELECTED BY THE ASTRONAUT BY DSKY ENTRY.
000390:
000391:                                                                                                  #                        P33 IF THIS VEHICLE IS ACTIVE VEHICLE.
000392:
000393:                                                                                                  #                        P73 IF THIS VEHICLE IS PASSIVE VEHICLE.
000394:
000395:                                                                                                  #  INPUT
000396:
000397:                                                                                                  #        (1)     TTPIO   TIME OF THE TPI MANEUVER -- SAVED FROM P32/P72
000398:                                                                                                  #  Page 657
000399:                                                                                                  #        (2)     ELEV    DESIRED LOS ANGLE AT TPI -- SAVED FROM P32/P72
000400:                                                                                                  #        (3)     TCDH    TIME OF THE CDH MANEUVER
000401:
000402:                                                                                                  #  OUTPUT
000403:
000404:                                                                                                  #        (1)     TRKMKCNT        NUMBER OF MARKS
000405:                                                                                                  #        (2)     TTOGO           TIME TO GO
000406:                                                                                                  #        (3)     +MGA            MIDDLE GIMBAL ANGLE
000407:                                                                                                  #        (4)     DIFFALT         DELTA ALTITUDE AT CDH
000408:                                                                                                  #        (5)     T2TOT3          DELTA TIME FROM CDH TO COMPUTED TPI
000409:                                                                                                  #        (6)     NOMTPI          DELTA TIME FROM NOMINAL TPI TO COMPUTED TPI
000410:                                                                                                  #        (7)     DELVLVC         DELTA VELOCITY AT CDH -- LOCAL VERTICAL COORDINATES
000411:
000412:                                                                                                  #  DOWNLINK
000413:
000414:                                                                                                  #        (1)     TCDH            TIME OF THE CDH MANEUVER
000415:                                                                                                  #        (2)     TTPI            TIME OF THE TPI MANEUVER
000416:                                                                                                  #        (3)     TIG             TIME OF THE CDH MANEUVER
000417:                                                                                                  #        (4)     DELLVEET2       DELTA VELOCITY AT CDH -- REFERENCE COORDINATES
000418:                                                                                                  #        (5)     DIFFALT         DELTA ALTITUDE AT CDH
000419:                                                                                                  #        (6)     ELEV            DESIRED LOS ANGLE AT TPI
000420:
000421:                                                                                                  #  COMMUNICATION TO THRUSTING PROGRAMS
000422:
000423:                                                                                                  #        (1)     TIG             TIME OF THE CDH MANEUVER
000424:                                                                                                  #        (2)     RTIG            POSITION OF ACTIVE VEHICLE AT CDH -- BEFORE ROTATION
000425:                                                                                                  #                                INTO PLANE OF PASSIVE VEHICLE.
000426:                                                                                                  #        (3)     VTIG            VELOCITY OF ACTIVE VEHICLE AT CDH -- BEFORE ROTATION
000427:                                                                                                  #                                INTO PLANE OF PASSIVE VEHICLE.
000428:                                                                                                  #        (4)     DELVSIN         DELTA VELOCITY AT CDH -- REFERENCE COORDINATES.
000429:                                                                                                  #        (5)     DELVSAB         MAGNITUDE OF DELTA VELOCITY AT CDH.
000430:                                                                                                  #        (6)     XDELVFLG        SET TO INDICATE EXTERNAL DELTA V VG COMPUTATION.
000431:
000432:                                                                                                  #  SUBROUTINES USED
000433:
000434:                                                                                                  #        AVFLAGA
000435:                                                                                                  #        AVFLAGP
000436:                                                                                                  #        P20FLGON
000437:                                                                                                  #        VNP00H
000438:                                                                                                  #        SELECTMU
000439:                                                                                                  #        ADVANCE
000440:                                                                                                  #        CDHMVR
000441:                                                                                                  #        INTINT3P
000442:                                                                                                  #        ACTIVE
000443:                                                                                                  #        PASSIVE
000444:                                                                                                  #        S33/S34.1
000445:                                                                                                  #        ALARM
000446:                                                                                                  #        BANKCALL
000447:                                                                                                  #        GOFLASH
000448:                                                                                                  #        GOTOP00H
000449:                                                                                                  #        S32/33.1
000450:                                                                                                  #  Page 658
000451:                                                                                                  #        VN1645
000452:
000453: 04,3437                                           COUNT    35/P3373
000454:
000455: 04,3437           04627        P33                TC       AVFLAGA
000456: 04,3440           03442                           TC       P33/P73A
000457: 04,3441           04642        P73                TC       AVFLAGP
000458: 04,3442           04647        P33/P73A           TC       P20FLGON
000459: 04,3443           34657                           CAF      V06N13                                #  TCDH
000460: 04,3444           04575                           TC       VNP00H
000461: 04,3445           06006                           TC       INTPRET
000462: 04,3446           77745                           DLOAD
000463: 04,3447           02641                                    TTPIO
000464: 04,3450           17663                           STODL    TTPI
000465: 04,3451           02635                                    TCDH
000466: 04,3452           37413                           STCALL   TIG
000467: 04,3453           10712                                    SELECTMU
000468: 04,3454           77624        P33/P73B           CALL
000469: 04,3455           76645                                    ADVANCE
000470: 04,3456           77624                           CALL
000471: 04,3457           13230                                    CDHMVR
000472: 04,3460           77201                           SETPD    VLOAD
000473: 04,3461           00001                                    0D
000474: 04,3462           03546                                    VACT3
000475: 04,3463           45115                           PDVL     CALL
000476: 04,3464           02453                                    RACT2
000477: 04,3465           63671                                    INTINT3P
000478: 04,3466           77624                           CALL
000479: 04,3467           45237                                    ACTIVE
000480: 04,3470           77201                           SETPD    VLOAD
000481: 04,3471           00001                                    0D
000482: 04,3472           02617                                    VPASS2
000483: 04,3473           45115                           PDVL     CALL
000484: 04,3474           02625                                    RPASS2
000485: 04,3475           63671                                    INTINT3P
000486: 04,3476           77624                           CALL
000487: 04,3477           45247                                    PASSIVE
000488: 04,3500           43145                           DLOAD    SET
000489: 04,3501           11566                                    ZEROVEC
000490: 04,3502           03461                                    ITSWICH
000491: 04,3503           36364                           STCALL   NOMTPI
000492: 04,3504           72216                                    S33/34.1
000493: 04,3505           77454                           BZE      EXIT
000494: 04,3506           24000                                    P33/P73C
000495: 04,3507           05650                           TC       ALARM
000496: 04,3510           00611                           OCT      611
000497: 04,3511           35050                           CAF      V05N09
000498: 04,3512           04662                           TC       BANKCALL
000499: 04,3513           20720                           CADR     GOFLASH
000500: 04,3514           04106                           TC       GOTOP00H
000501:                                                                                                  #  Page 659
000502: 04,3515           03517                           TC       +2
000503: 04,3516           03442                           TC       P33/P73A
000504: 04,3517           06006                           TC       INTPRET
000505: 04,3520           77745                           DLOAD
000506: 04,3521           11566                                    ZEROVEC
000507: 04,3522           36364                           STCALL   NOMTPI
000508: 04,3523           24000                                    P33/P73C
000509: 12,2000                                           SETLOC   CSI/CDH2
000510: 12,2000                                           BANK
000511:
000512: 12,2000           43014        P33/P73C           BON      SET
000513: 12,2001           01311                                    FINALFLG
000514: 12,2002           24004                                    P33/P73D
000515: 12,2003           00470                                    UPDATFLG
000516: 12,2004           43345        P33/P73D           DLOAD    DAD
000517: 12,2005           02364                                    NOMTPI
000518: 12,2006           03663                                    TTPI
000519: 12,2007           03663                           STORE    TTPI
000520: 12,2010           52025                           DSU      GOTO
000521: 12,2011           02635                                    TCDH
000522: 12,2012           11524                                    P33/P73E
000523: 04,2000                                           SETLOC   CSI/CDH1
000524: 04,2000                                           BANK
000525:
000526: 04,3524           51025        P33/P73E           DSU      BPL
000527: 04,3525           15652                                    60MIN
000528: 04,3526           11524                                    P33/P73E
000529: 04,3527           77615                           DAD
000530: 04,3530           15652                                    60MIN
000531: 04,3531           16547                           STODL    T1TOT2
000532: 04,3532           03663                                    TTPI
000533: 04,3533           41425                           DSU      PUSH
000534: 04,3534           02641                                    TTPIO
000535: 04,3535           45246        P33/P73F           ABS      DSU
000536: 04,3536           15652                                    60MIN
000537: 04,3537           43244                           BPL      DAD
000538: 04,3540           11535                                    P33/P73F
000539: 04,3541           15652                                    60MIN
000540: 04,3542           45565                           SIGN     STADR
000541: 04,3543           74121                           STORE    T2TOT3
000542: 04,3544           77776                           EXIT
000543: 04,3545           34660                           CAF      V06N75
000544: 04,3546           04575                           TC       VNP00H
000545: 04,3547           06006                           TC       INTPRET
000546: 04,3550           45175                           VLOAD    CALL
000547: 04,3551           03667                                    DELVEET2
000548: 04,3552           73457                                    S32/33.1
000549: 04,3553           37667                           STCALL   DELVEET2
000550: 04,3554           73002                                    VN1645
000551: 04,3555           77650                           GOTO
000552:                                                                                                  #  Page 660
000553: 04,3556           11454                                    P33/P73B
000554:
000555:                                                                                                  #  Page 661
000556:                                                                                                  #  ***** AVFLAGA/P *****
000557:
000558:                                                                                                  #  Page 662
000559:                                                                                                  #  ***** DISDVLVC *****
000560:
000561:                                                                                                  #  SUBROUTINES USED
000562:
000563:                                                                                                  #        S32/33.X
000564:                                                                                                  #        VNP00H
000565:
000566: 37,2000                                           SETLOC   CDHTAG3
000567: 37,2000                                           BANK
000568:
000569: 37,2625           03405        DISDVLVC           STORE    DELVLVC
000570: 37,2626           45020                           STQ      CALL
000571: 37,2627           01340                                    NORMEX
000572: 37,2630           26231                                    S32/33.X
000573: 37,2631           64375                           VLOAD    MXV
000574: 37,2632           03405                                    DELVLVC
000575: 37,2633           00001                                    0D
000576: 37,2634           66172                           VSL1     SXA,1
000577: 37,2635           02365                                    VERBNOUN
000578: 37,2636           03405                           STORE    DELVLVC
000579: 37,2637           77776                           EXIT
000580: 37,2640           31765                           CA       VERBNOUN
000581: 37,2641           04575                           TC       VNP00H
000582: 37,2642           06006                           TC       INTPRET
000583: 37,2643           77650                           GOTO
000584: 37,2644           01340                                    NORMEX
000585:    4000                                           SETLOC   FFTAG12
000586:    4000                                           BANK
000587:
000588:    4656           01413        V06N11             VN       0611
000589:    4657           01415        V06N13             VN       0613
000590:    4660           01513        V06N75             VN       0675
000591:
000592:    4661           01462        V06N50             VN       0650
000593:
000594:                                                                                                  #  Page 663
000595:
000596:                                                                                                  #  ***** CSI/A *****
000597:
000598:                                                                                                  #  SUBROUTINES USED
000599:
000600:                                                                                                  #        VECSHIFT
000601:                                                                                                  #        TIMETHET
000602:                                                                                                  #        PERIAPO
000603:                                                                                                  #        SHIFTR1
000604:                                                                                                  #        INTINT2C
000605:                                                                                                  #        CDHMVR
000606:                                                                                                  #        PERIAPO1
000607:                                                                                                  #        INTINT
000608:                                                                                                  #        ACTIVE
000609:
000610: 34,3763                                           BANK     34
000611: 06,2000                                           SETLOC   CSIPROG
000612: 06,2000                                           BANK
000613: 06,3651  E4,1770                                  EBANK=   SUBEXIT
000614: 06,3651                                           COUNT    34/CSI
000615:
000616: 06,3651           00025 37100  60MIN              2DEC     360000     B-28
000617:
000618: 06,3653           00600        ALARM/TB           OCT      00600                                 #  NO 1
000619: 06,3654           00601                           OCT      00601                                 #     2
000620: 06,3655           00602                           OCT      00602                                 #     3
000621: 06,3656           00603                           OCT      00603                                 #     4
000622: 06,3657           00604                           OCT      00604                                 #     5
000623: 06,3660           00605                           OCT      00605                                 #     6
000624: 06,3661           00606                           OCT      00606                                 #     7
000625: 06,3662           00000 00020  LOOPMX             2DEC     16         B-28
000626:
000627: 06,3664           00003 34661  INITST             2DEC     .03048     B-7                        #  INITIAL DELDV = 10 FPS
000628:
000629: 06,3666           00606 04467  DVMAX1             2DEC     3.0480     B-7                        #  MAXIMUM DV1 = 1000 FPS
000630:
000631: 06,3670           00601 33216  DVMAX2             2DEC     3.014472   B-7                        #                 989 FPS
000632:
000633: 06,3672           10000 00000  1DPB2              2DEC     1.0        B-2
000634:
000635: 06,3674           00000 00001  1DPB28             2DEC     1          B-28
000636:
000637: 06,3676           00000 01177  EPSILN1            2DEC     .0003048   B-7                        #  .1 FPS
000638:
000639:
000640: 06,3700           77754 57611  FIFPSDP            2DEC     -.152400   B-7                        #  5 FPS
000641:
000642: 06,3702           00116 00730  DELMAX1            2DEC     .6096000   B-7                        #  200 FPS
000643:
000644: 35,2000                                           SETLOC   CSI/CDH
000645: 35,2000                                           BANK
000646: 35,3445           00004 31566  PMINE              2DEC     157420     B-29                       #  84 NM -- MUST BE 8 WORDS BEFORE PMINM
000647:
000648:                                                                                                  #  Page 664
000649:
000650: 35,3447           00002 27311  NICKELDP           2DEC     .021336    B-7                        #  7 FPS
000651:
000652: 35,3451           00003 34661  INITST1            2DEC     .03048     B-7                        #  INITIAL DELDV = 10 FPS
000653:
000654: 35,3453           00000 06433  ONETHTH            2DEC     .0001      B-3
000655:
000656: 35,3455           00000 12326  PMINM              2DEC     10668      B-29                       #  35000 FT -- MUST BE 8 WORDS AFTER PMINE
000657:
000658: 06,2000                                           SETLOC   CSIPROG
000659: 06,2000                                           BANK
000660:
000661: 06,3704           43014        CSI/A              CLEAR    SET                                   #  INITIALIZE INDICATORS
000662: 06,3705           05660                                    S32.1F1                               #  DVT1 HAS EXCEEDED MAX INDICATOR
000663: 06,3706           05461                                    S32.1F2                               #  FIRST PASS FOR NEWTON ITERATION INDICATOR
000664: 06,3707           43014                           CLEAR    SET
000665: 06,3710           05662                                    S32.1F3A                              #  00=1ST 2 PASSES 2ND CYCLE, 01=FIRST CYCLE
000666: 06,3711           05463                                    S32.1F3B                              #  10=2ND CYCLE, 11=50 FPS STAGE 2ND CYCLE
000667: 06,3712           77745                           DLOAD
000668: 06,3713           11566                                    ZEROVEC
000669: 06,3714           03764                           STORE    LOOPCT
000670: 06,3715           03665                           STORE    CSIALRM
000671: 06,3716           77201        CSI/B              SETPD    VLOAD
000672: 06,3717           00001                                    0D
000673: 06,3720           02541                                    RACT1
000674: 06,3721           41446                           ABVAL    PUSH                                  #  RA1                                  B29 PL02D
000675: 06,3722           70501                           NORM     SR1
000676: 06,3723           00050                                    X2                                    #                                B29-N2+ B1 PL04D
000677: 06,3724           51515                           PDVL     ABVAL
000678: 06,3725           03554                                    RPASS3
000679: 06,3726           55301                           NORM     BDDV                                  #  RA1/RP3                               B1 PL02D
000680: 06,3727           00047                                    X1
000681: 06,3730           53664                           XSU,2    SR*                                   #                                        B2
000682: 06,3731           00046                                    X1
000683: 06,3732           57175                                    1,2
000684: 06,3733           41215                           DAD      DMP                                   #  (1+(RA1/RP3))RA1              B29+B2=B31 PL00D
000685: 06,3734           15673                                    1DPB2
000686: 06,3735           65301                           NORM     PDDL                                  #                                           PL02D
000687: 06,3736           00047                                    X1
000688: 06,3737           03750                                    RTMU
000689: 06,3740           56342                           SR1      DDV                                   #                               B38-B31= B7 PL00D
000690: 06,3741           75457                           SL*      SQRT                                  #                                        B7
000691: 06,3742           20172                                    0          -7,1
000692: 06,3743           53515                           PDVL     UNIT                                  #                                           PL02D
000693: 06,3744           02541                                    RACT1
000694: 06,3745           47315                           PDVL     VXV
000695: 06,3746           02611                                    UP1
000696: 06,3747           77656                           UNIT                                           #  UNIT(URP1 X UVP1 X URA1) = UH1
000697: 06,3750           72441                           DOT      SL1                                   #  VA1 . UH1                             B7
000698: 06,3751           03504                                    VACT1
000699: 06,3752           45421                           BDSU     STADR                                 #                                           PL00D
000700:                                                                                                  #  Page 665
000701: 06,3753           60315                           STODL    DELVCSI
000702: 06,3754           15665                                    INITST                                #  10 FPS
000703: 06,3755           03464                           STORE    DELDV
000704: 06,3756           43345        CSI/B1             DLOAD    DAD                                   #  IF LOOPCT = 16
000705: 06,3757           03764                                    LOOPCT
000706: 06,3760           15675                                    1DPB28
000707: 06,3761           03764                           STORE    LOOPCT
000708: 06,3762           77025                           DSU      AXT,2
000709: 06,3763           15663                                    LOOPMX
000710: 06,3764           00006                                    6
000711: 06,3765           52044                           BPL      GOTO
000712: 06,3766           63642                                    SCNDSOL
000713: 06,3767           24013                                    CSI/B2
000714:
000715: 12,2000                                           SETLOC   CSIPROG2
000716: 12,2000                                           BANK
000717:
000718: 12,2013           77601        CSI/B2             SETPD
000719: 12,2014           00001                                    0D
000720: 12,2015           51545                           DLOAD    ABS
000721: 12,2016           03462                                    DELVCSI
000722: 12,2017           50025                           DSU      BMN
000723: 12,2020           15667                                    DVMAX1
000724: 12,2021           45267                                    CSI/B23
000725: 12,2022           43174                           AXT,2    BON
000726: 12,2023           00007                                    7
000727: 12,2024           05700                                    S32.1F1
000728: 12,2025           63642                                    SCNDSOL
000729: 12,2026           43014                           BOFF     BON
000730: 12,2027           05742                                    S32.1F3A
000731: 12,2030           24033                                    CSI/B22                               #  FLAG 3 NEQ 3
000732: 12,2031           05703                                    S32.1F3B
000733: 12,2032           63642                                    SCNDSOL
000734: 12,2033           71214        CSI/B22            SET      DLOAD
000735: 12,2034           05460                                    S32.1F1
000736: 12,2035           15671                                    DVMAX2
000737: 12,2036           77765                           SIGN
000738: 12,2037           03462                                    DELVCSI
000739: 12,2040           37462                           STCALL   DELVCSI
000740: 12,2041           45267                                    CSI/B23
000741:
000742: 22,2000                                           SETLOC   CSIPROG3
000743: 22,2000                                           BANK
000744:
000745: 22,3267           41575        CSI/B23            VLOAD    PUSH
000746: 22,3270           02541                                    RACT1
000747: 22,3271           63256                           UNIT     PDVL
000748: 22,3272           02611                                    UP1
000749: 22,3273           53435                           VXV      UNIT                                  #  UNIT (URP1 X UVP1 X URA1) = UH1
000750: 22,3274           76561                           VXSC     VSL1
000751:                                                                                                  #  Page 666
000752: 22,3275           03462                                    DELVCSI
000753: 22,3276           02445                           STORE    DELVEET1
000754: 22,3277           40055                           VAD      BOV
000755: 22,3300           03504                                    VACT1
000756: 22,3301           45302                                    CSI/B23D
000757: 22,3302           37474        CSI/B23D           STCALL   VACT4
000758: 22,3303           45253                                    VECSHIFT
000759: 22,3304           26746                           STOVL    VVEC
000760: 22,3305           77614                           SET
000761: 22,3306           03466                                    RVSW
000762: 22,3307           26657                           STOVL    RVEC
000763: 22,3310           05426                                    SN359+
000764: 22,3311           36732                           STCALL   SNTH                                  #  ALSO CSTH
000765: 22,3312           24744                                    TIMETHET
000766: 22,3313           72142                           SR1      LXA,1
000767: 22,3314           03745                                    RTX1
000768: 22,3315           37472                           STCALL   HAFPA1
000769: 22,3316           45163                                    PERIAPO
000770: 22,3317           77624                           CALL
000771: 22,3320           45263                                    SHIFTR1
000772: 22,3321           17460                           STODL    POSTCSI
000773: 22,3322           03754                                    CENTANG
000774: 22,3323           52054                           BZE      GOTO
000775: 22,3324           45326                                    +2
000776: 22,3325           47145                                    CIRCL
000777: 22,3326           77745                           DLOAD
000778: 22,3327           02754                                    ECC
000779: 22,3330           50025                           DSU      BMN
000780: 22,3331           33454                                    ONETHTH
000781: 22,3332           47145                                    CIRCL
000782: 22,3333           45145                           DLOAD    CALL
000783: 22,3334           00041                                    R1
000784: 22,3335           45263                                    SHIFTR1
000785: 22,3336           60201                           SETPD    NORM
000786: 22,3337           00003                                    2D
000787: 22,3340           00047                                    X1
000788: 22,3341           50315                           PDVL     DOT                                   #                                PL04D
000789: 22,3342           02541                                    RACT1
000790: 22,3343           03474                                    VACT4
000791: 22,3344           56246                           ABS      DDV
000792: 22,3345           00003                                    02D                                   #  (/RDOTV/)/R1          B36-B29= B7
000793: 22,3346           45257                           SL*      DSU
000794: 22,3347           20201                                    0,1
000795: 22,3350           33450                                    NICKELDP
000796: 22,3351           71240                           BMN      DLOAD
000797: 22,3352           47145                                    CIRCL
000798: 22,3353           02742                                    P
000799: 22,3354           45312                           SL2      DSU
000800: 22,3355           33502                                    1RTEB2                                #  1.B.2
000801: 22,3356           14017                           STODL    14D
000802:                                                                                                  #  Page 667
000803: 22,3357           03752                                    RTSR1/MU
000804: 22,3360           56342                           SR1      DDV                                   #  (1/ROOTMU)/R1         B-16-B29 = B-45 PL02D
000805: 22,3361           41325                           PDDL     DMP
000806: 22,3362           02742                                    P
000807: 22,3363           00041                                    R1
000808: 22,3364           77624                           CALL
000809: 22,3365           45263                                    SHIFTR1
000810: 22,3366           72412                           SL4      SL1
000811: 22,3367           41366                           SQRT     DMP                                   #  ((P/MU)**.5)/R1       B14+B-14 = B-31 BL02D
000812: 22,3370           52414                           BOFF     SL3
000813: 22,3371           04343                                    CMOONFLG
000814: 22,3372           45373                                    CSI/B3
000815: 22,3373           50315        CSI/B3             PDVL     DOT
000816: 22,3374           02541                                    RACT1
000817: 22,3375           03474                                    VACT4
000818: 22,3376           03502                           STORE    RDOTV
000819: 22,3377           77646                           ABS
000820: 22,3400           41301                           NORM     DMP                                   #  ((P/MU)**.5)RDOTV/R1                  PL02D
000821: 22,3401           00050                                    X2
000822: 22,3402           53660                           XSU,1    SL*                                   #                        B-31+B36-B3 = B2
000823: 22,3403           00047                                    X2
000824: 22,3404           20204                                    3,1
000825: 22,3405           14015                           STODL    12D
000826: 22,3406           15335                                    ZEROVECS
000827: 22,3407           00021                           STORE    16D
000828: 22,3410           53575                           VLOAD    UNIT
000829: 22,3411           00015                                    12D
000830: 22,3412           26732                           STOVL    SNTH                                  #  ALSO STORES CSTH AND 0
000831: 22,3413           02541                                    RACT1
000832: 22,3414           75315                           PDVL     SIGN
000833: 22,3415           03474                                    VACT4
000834: 22,3416           03502                                    RDOTV
000835: 22,3417           45076                           VCOMP    CALL
000836: 22,3420           45253                                    VECSHIFT
000837: 22,3421           26746                           STOVL    VVEC
000838: 22,3422           77614                           SETGO
000839: 22,3423           03426                                    RVSW
000840: 22,3424           47134                                    CSINEXT
000841:
000842: 22,3425           77776 62460  SN359+             2DEC     -.000086601
000843:
000844: 22,3427           17777 37776  CS359+             2DEC     +.499999992
000845:
000846: 23,2000                                           SETLOC   CSIPROG4
000847: 23,2000                                           BANK
000848:
000849: 23,3134           36657        CSINEXT            STCALL   RVEC
000850: 23,3135           24744                                    TIMETHET
000851: 23,3136           51125                           PDDL     BPL
000852: 23,3137           03502                                    RDOTV
000853:                                                                                                  #  Page 668
000854: 23,3140           47151                                    NTP/2
000855: 23,3141           45345                           DLOAD    DSU
000856: 23,3142           03472                                    HAFPA1
000857: 23,3143           52006                           PUSH     GOTO
000858: 23,3144           47151                                    NTP/2
000859: 23,3145           71201        CIRCL              SETPD    DLOAD
000860: 23,3146           00001                                    00D
000861: 23,3147           15335                                    ZEROVECS
000862: 23,3150           77606                           PUSH
000863: 23,3151           41345        NTP/2              DLOAD    DMP
000864: 23,3152           03766                                    NN
000865: 23,3153           03472                                    HAFPA1
000866: 23,3154           45261                           SL       DSU
000867: 23,3155           20217                                    14D
000868: 23,3156           77615                           DAD
000869: 23,3157           02637                                    TCSI
000870: 23,3160           02635                           STORE    TCDH
000871: 23,3161           77021                           BDSU     AXT,2
000872: 23,3162           03663                                    TTPI
000873: 23,3163           00005                                    5D
000874: 23,3164           40240                           BMN      SETPD
000875: 23,3165           63642                                    SCNDSOL
000876: 23,3166           00001                                    0D
000877: 23,3167           63375                           VLOAD    PDVL
000878: 23,3170           03474                                    VACT4
000879: 23,3171           02541                                    RACT1
000880: 23,3172           77624                           CALL
000881: 23,3173           63662                                    INTINT2C
000882: 23,3174           26453                           STOVL    RACT2
000883: 23,3175           00007                                    VATT
000884: 23,3176           26533                           STOVL    VACT2
000885: 23,3177           03512                                    VPASS1
000886: 23,3200           63201                           SETPD    PDVL
000887: 23,3201           00001                                    0D
000888: 23,3202           03756                                    RPASS1
000889: 23,3203           77650                           GOTO
000890: 23,3204           22256                                    CSINEXT1
000891:
000892: 11,2000                                           SETLOC   CSIPROG5
000893: 11,2000                                           BANK
000894:
000895: 11,2256           77624        CSINEXT1           CALL
000896: 11,2257           63662                                    INTINT2C
000897: 11,2260           26625                           STOVL    RPASS2
000898: 11,2261           00007                                    VATT
000899: 11,2262           36617                           STCALL   VPASS2
000900: 11,2263           13230                                    CDHMVR
000901: 11,2264           40375                           VLOAD    SETPD
000902: 11,2265           02453                                    RACT2
000903: 11,2266           00001                                    0D
000904:                                                                                                  #  Page 669
000905: 11,2267           45115                           PDVL     CALL
000906: 11,2270           03546                                    VACT3
000907: 11,2271           45153                                    PERIAPO1
000908: 11,2272           77624                           CALL
000909: 11,2273           45263                                    SHIFTR1
000910: 11,2274           27472                           STOVL    POSTCDH
000911: 11,2275           03546                                    VACT3
000912: 11,2276           63201                           SETPD    PDVL
000913: 11,2277           00001                                    0D
000914: 11,2300           02453                                    RACT2
000915: 11,2301           65325                           PDDL     PDDL
000916: 11,2302           02635                                    TCDH
000917: 11,2303           03663                                    TTPI
000918: 11,2304           62525                           PDDL     SL2
000919: 11,2305           11630                                    2PISC
000920: 11,2306           45006                           PUSH     CALL
000921: 11,2307           72705                                    INTINT
000922: 11,2310           77624                           CALL
000923: 11,2311           45237                                    ACTIVE
000924: 11,2312           77745                           DLOAD
000925: 11,2313           03744                                    ELEV
000926: 11,2314           73401                           SETPD    SINE
000927: 11,2315           00007                                    6D
000928: 11,2316           53515                           PDVL     UNIT
000929: 11,2317           03540                                    RACT3
000930: 11,2320           00001                           STORE    00D                                   #  URA3 AT 00D
000931: 11,2321           47315                           PDVL     VXV                                   #  PL14D, PL08D
000932: 11,2322           02611                                    UP1
000933: 11,2323           77656                           UNIT
000934: 11,2324           71525                           PDDL     COSINE                                #  UNIT(URA3 X UVA3 X URA3) = UH3        B1 PL14D
000935: 11,2325           03744                                    ELEV
000936: 11,2326           45561                           VXSC     STADR                                 #  (COSLOS)(UH3)                         B2 PL08D
000937: 11,2327           43754                           STCALL   18D                                   #                PLUS
000938: 11,2330           16517                                    CSINEXT2
000939:
000940: 07,2000                                           SETLOC   CSIPROG6
000941: 07,2000                                           BANK
000942:
000943: 07,2517           74345        CSINEXT2           DLOAD    VXSC                                  #  (SINLOS)(URA3) = U                    B2 PL00D
000944: 07,2520           76455                           VAD      VSL1
000945: 07,2521           00023                                    18D                                   #                                        B1
000946: 07,2522           50206                           PUSH     DOT                                   #                                           PL06D
000947: 07,2523           03540                                    RACT3                                 #  (U . RA3) = TEMP1         B1 + B29 = B30
000948: 07,2524           41552                           SL1      PUSH                                  #                                       B29 PL08D
000949: 07,2525           72316                           DSQ      TLOAD                                 #  TEMP1**2                             B58
000950: 07,2526           00155                                    MPAC
000951: 07,2527           50315                           PDVL     DOT                                   #                                           PL11D
000952: 07,2530           03540                                    RACT3
000953: 07,2531           03540                                    RACT3
000954: 07,2532           57551                           TLOAD    DCOMP                                 #  RA3 . RA3
000955:                                                                                                  #  Page 670
000956: 07,2533           00155                                    MPAC
000957: 07,2534           50315                           PDVL     DOT                                   #  RP3 . RP3                         B58 PL14D
000958: 07,2535           03554                                    RPASS3
000959: 07,2536           03554                                    RPASS3                                #                                        PL11D
000960: 07,2537           76371                           TAD      TAD                                   #  TEMP1**2 + RA3.RA3 + RP3.RP3 = TEMP2  PL08D
000961: 07,2540           71244                           BPL      DLOAD
000962: 07,2541           16557                                    K10RK2
000963: 07,2542           03764                                    LOOPCT
000964: 07,2543           77025                           DSU      AXT,2
000965: 07,2544           15675                                    1DPB28
000966: 07,2545           00001                                    1D
000967: 07,2546           77654                           BZE
000968: 07,2547           11314                                    ALMXITA
000969: 07,2550           70545                           DLOAD    SR1
000970: 07,2551           03464                                    DELDV
000971: 07,2552           03464                           STORE    DELDV
000972: 07,2553           77621                           BDSU
000973: 07,2554           03470                                    DVPREV
000974: 07,2555           37462                           STCALL   DELVCSI
000975: 07,2556           15756                                    CSI/B1
000976: 07,2557           41566        K10RK2             SQRT     PUSH                                  #  TEMP3 = TEMP2**.5                 B29 PL10D
000977: 07,2560           45276                           DCOMP    DSU
000978: 07,2561           00007                                    06D                                   #  -TEMP1-TEMP3 = K2 AT 10D
000979: 07,2562           14013                           STODL    10D                                   #                                        PL08D
000980: 07,2563           45425                           DSU      STADR                                 #                                        PL06D
000981: 07,2564           77762                           STORE    12D                                   #  -TEMP1+TEMP3 = K1 AT 12D
000982: 07,2565           77646                           ABS
000983: 07,2566           14017                           STODL    14D
000984: 07,2567           00013                                    10D
000985: 07,2570           45246                           ABS      DSU
000986: 07,2571           00017                                    14D
000987: 07,2572           71240                           BMN      DLOAD
000988: 07,2573           50002                                    K2.
000989: 07,2574           00015                                    12D
000990: 07,2575           34013                           STCALL   10D                                   #  K EQUALS K1
000991: 07,2576           50002                                    K2.
000992:
000993: 24,2000                                           SETLOC   CSIPROG7
000994: 24,2000                                           BANK
000995:
000996: 24,2002           77745        K2.                DLOAD
000997: 24,2003           00013                                    10D
000998: 24,2004           76561                           VXSC     VSL1
000999: 24,2005           53455                           VAD      UNIT                                  #  V = RA3 + KU UNIT                 B1
001000: 24,2006           03540                                    RACT3
001001: 24,2007           53515                           PDVL     UNIT
001002: 24,2010           03554                                    RPASS3                                #                                        PL06D
001003: 24,2011           53515                           PDVL     UNIT
001004: 24,2012           03562                                    VPASS3                                #                                        PL12D
001005: 24,2013           63235                           VXV      PDVL                                  #  UVP3 X URP3                           PL18D
001006:                                                                                                  #  Page 671
001007: 24,2014           00007                                    06D
001008: 24,2015           00007                                    06D
001009: 24,2016           50235                           VXV      DOT
001010: 24,2017           00001                                    00D
001011: 24,2020           77626                           STADR                                          #                                        PL12D
001012: 24,2021           53762                           STOVL    12D                                   #  (URP3 X V).(UVP3 X URP3)=TEMP         PL06D
001013: 24,2022           72441                           DOT      SL1                                   #                                        PL00D
001014: 24,2023           75326                           ARCCOS   SIGN
001015: 24,2024           00015                                    12D                                   #                                     B0
001016: 24,2025           41542                           SR1      PUSH                                  #  GAMMA = SIGN(TEMP)ARCOS(UNITV.URP3)   PL02D
001017: 24,2026           71214                           BON      DLOAD
001018: 24,2027           05701                                    S32.1F2
001019: 24,2030           50065                                    FRSTPAS
001020: 24,2031           00001                                    00D                                   #  NOT THE FIRST PASS OF A CYCLE
001021: 24,2032           65225                           DSU      PDDL                                  #  GAMMA-GAMPREV                      B1 PL04D
001022: 24,2033           03466                                    GAMPREV
001023: 24,2034           03462                                    DELVCSI
001024: 24,2035           60225                           DSU      NORM                                  #                                     B7
001025: 24,2036           03470                                    DVPREV
001026: 24,2037           00047                                    X1
001027: 24,2040           65265                           BDDV     PDDL                                  #  (GAM-GAMPREV)/(DV-DVPREV)      B-6+N1 PL06D
001028: 24,2041           00003                                    02D                                   #        = SLOPE
001029: 24,2042           03462                                    DELVCSI
001030: 24,2043           03470                           STORE    DVPREV
001031: 24,2044           43014                           BOFF     BOFF
001032: 24,2045           05742                                    S32.1F3A
001033: 24,2046           20307                                    THRDCHK
001034: 24,2047           05743                                    S32.1F3B
001035: 24,2050           20307                                    THRDCHK
001036: 24,2051           41345                           DLOAD    DMP
001037: 24,2052           00003                                    02D
001038: 24,2053           03466                                    GAMPREV
001039: 24,2054           71244                           BPL      DLOAD
001040: 24,2055           20314                                    FIFTYFPS
001041: 24,2056           33452                                    INITST1
001042: 24,2057           77765                           SIGN
001043: 24,2060           03464                                    DELDV
001044: 24,2061           03464                           STORE    DELDV
001045: 24,2062           43014                           SET      CLEAR
001046: 24,2063           05462                                    S32.1F3A
001047: 24,2064           05663                                    S32.1F3B
001048: 24,2065           77745        FRSTPAS            DLOAD
001049: 24,2066           00001                                    00D
001050: 24,2067           17466                           STODL    GAMPREV
001051: 24,2070           03462                                    DELVCSI
001052: 24,2071           37470                           STCALL   DVPREV
001053: 24,2072           20302                                    CSINEXT3
001054:
001055: 10,2000                                           SETLOC   CSIPROG8
001056: 10,2000                                           BANK
001057:                                                                                                  #  Page 672
001058:
001059: 10,2302           43025        CSINEXT3           DSU      CLEAR
001060: 10,2303           03464                                    DELDV
001061: 10,2304           05661                                    S32.1F2
001062: 10,2305           37462                           STCALL   DELVCSI
001063: 10,2306           15756                                    CSI/B1
001064: 10,2307           43014        THRDCHK            BON      BON
001065: 10,2310           05702                                    S32.1F3A
001066: 10,2311           20333                                    NEWTN
001067: 10,2312           05703                                    S32.1F3B
001068: 10,2313           20333                                    NEWTN
001069: 10,2314           75345        FIFTYFPS           DLOAD    SIGN
001070: 10,2315           15701                                    FIFPSDP
001071: 10,2316           00005                                    04D
001072: 10,2317           77765                           SIGN
001073: 10,2320           03466                                    GAMPREV
001074: 10,2321           03464                           STORE    DELDV
001075: 10,2322           43276                           DCOMP    DAD
001076: 10,2323           03462                                    DELVCSI
001077: 10,2324           17462                           STODL    DELVCSI
001078: 10,2325           00001                                    00D
001079: 10,2326           43014                           SET      SET
001080: 10,2327           05463                                    S32.1F3B
001081: 10,2330           05462                                    S32.1F3A
001082: 10,2331           37466                           STCALL   GAMPREV
001083: 10,2332           24013                                    CSI/B2
001084: 10,2333           60345        NEWTN              DLOAD    NORM
001085: 10,2334           00005                                    04D
001086: 10,2335           00050                                    X2
001087: 10,2336           54065                           BDDV     XSU,1
001088: 10,2337           00001                                    00D
001089: 10,2340           00047                                    X2
001090: 10,2341           77657                           SR*
001091: 10,2342           20601                                    0,1
001092: 10,2343           17464                           STODL    DELDV
001093: 10,2344           00001                                    00D
001094: 10,2345           03466                           STORE    GAMPREV
001095: 10,2346           51545                           DLOAD    ABS
001096: 10,2347           03464                                    DELDV
001097: 10,2350           45206                           PUSH     DSU                                   #                                        PL08D
001098: 10,2351           15677                                    EPSILN1
001099: 10,2352           71240                           BMN      DLOAD
001100: 10,2353           20370                                    CSI/SOL
001101: 10,2354           50025                           DSU      BMN
001102: 10,2355           15703                                    DELMAX1
001103: 10,2356           20363                                    CSISTEP
001104: 10,2357           75345                           DLOAD    SIGN
001105: 10,2360           15703                                    DELMAX1
001106: 10,2361           03464                                    DELDV
001107: 10,2362           03464                           STORE    DELDV
001108: 10,2363           45345        CSISTEP            DLOAD    DSU
001109:                                                                                                  #  Page 673
001110: 10,2364           03462                                    DELVCSI
001111: 10,2365           03464                                    DELDV
001112: 10,2366           37462                           STCALL   DELVCSI
001113: 10,2367           15756                                    CSI/B1
001114: 10,2370           77145        CSI/SOL            DLOAD    AXT,2
001115: 10,2371           03460                                    POSTCSI
001116: 10,2372           00002                                    2
001117: 10,2373           52150                           LXA,1    GOTO
001118: 10,2374           03745                                    RTX1
001119: 10,2375           63610                                    CSINEXT4
001120:
001121: 31,2000                                           SETLOC   CSIPROG9
001122: 31,2000                                           BANK
001123:
001124: 31,3610           50023        CSINEXT4           DSU*     BMN
001125: 31,3611           33444                                    PMINE      -2,1
001126: 31,3612           63642                                    SCNDSOL
001127: 31,3613           71374                           AXT,2    DLOAD
001128: 31,3614           00003                                    3
001129: 31,3615           03472                                    POSTCDH
001130: 31,3616           50023                           DSU*     BMN
001131: 31,3617           33444                                    PMINE      -2,1
001132: 31,3620           63642                                    SCNDSOL
001133: 31,3621           45345                           DLOAD    DSU
001134: 31,3622           02635                                    TCDH
001135: 31,3623           02637                                    TCSI
001136: 31,3624           02547                           STORE    T1TOT2
001137: 31,3625           45374                           AXT,2    DSU
001138: 31,3626           00004                                    4
001139: 31,3627           36146                                    600SEC
001140: 31,3630           77040                           BMN      AXT,2
001141: 31,3631           63642                                    SCNDSOL
001142: 31,3632           00005                                    5
001143: 31,3633           45345                           DLOAD    DSU
001144: 31,3634           03663                                    TTPI
001145: 31,3635           02635                                    TCDH
001146: 31,3636           03656                           STORE    T2TOT3
001147: 31,3637           51025                           DSU      BPL
001148: 31,3640           36146                                    600SEC
001149: 31,3641           11400                                    P32/P72C
001150: 31,3642           43014        SCNDSOL            BON      BOFF
001151: 31,3643           05702                                    S32.1F3A
001152: 31,3644           11316                                    ALMXIT
001153: 31,3645           05743                                    S32.1F3B
001154: 31,3646           11316                                    ALMXIT
001155: 31,3647           71334                           SXA,2    DLOAD
001156: 31,3650           03664                                    CSIALRM
001157: 31,3651           15335                                    ZEROVECS
001158: 31,3652           43014                           CLEAR    SET
001159: 31,3653           05660                                    S32.1F1
001160:                                                                                                  #  Page 674
001161: 31,3654           05461                                    S32.1F2
001162: 31,3655           43014                           CLEAR    CLEAR
001163: 31,3656           05662                                    S32.1F3A
001164: 31,3657           05663                                    S32.1F3B
001165: 31,3660           37764                           STCALL   LOOPCT
001166: 31,3661           15716                                    CSI/B
001167:
001168:                                                                                                  #  Page 675
001169:                                                                                                  #  ***** ADVANCE *****
001170:
001171:                                                                                                  #  SUBROUTINES USED
001172:                                                                                                  #        PRECSET
001173:                                                                                                  #        ROTATE
001174:
001175: 37,2000                                           SETLOC   CDHTAG3
001176: 37,2000                                           BANK
001177:
001178: 37,2645           71220        ADVANCE            STQ      DLOAD
001179: 37,2646           02370                                    SUBEXIT
001180: 37,2647           03413                                    TIG
001181: 37,2650           34041                           STCALL   TDEC1
001182: 37,2651           45215                                    PRECSET
001183: 37,2652           77214                           SET      VLOAD
001184: 37,2653           01067                                    XDELVFLG
001185: 37,2654           03562                                    VPASS3
001186: 37,2655           02617                           STORE    VPASS2
001187: 37,2656           27512                           STOVL    VPASS1
001188: 37,2657           03554                                    RPASS3
001189: 37,2660           02625                           STORE    RPASS2
001190: 37,2661           03756                           STORE    RPASS1
001191: 37,2662           47256                           UNIT     VXV
001192: 37,2663           03512                                    VPASS1
001193: 37,2664           77656                           UNIT
001194: 37,2665           26611                           STOVL    UP1
001195: 37,2666           03540                                    RACT3
001196: 37,2667           37632                           STCALL   RTIG
001197: 37,2670           13220                                    ROTATE
001198: 37,2671           02453                           STORE    RACT2
001199: 37,2672           26541                           STOVL    RACT1
001200: 37,2673           03546                                    VACT3
001201: 37,2674           37640                           STCALL   VTIG
001202: 37,2675           13220                                    ROTATE
001203: 37,2676           02533                           STORE    VACT2
001204: 37,2677           37504                           STCALL   VACT1
001205: 37,2700           02370                                    SUBEXIT
001206:
001207:                                                                                                  #  Page 676
001208:                                                                                                  #  ***** ROTATE *****
001209:
001210: 05,2000                                           SETLOC   CDHTAG
001211: 05,2000                                           BANK
001212:
001213: 05,3220           41406        ROTATE             PUSH     PUSH
001214: 05,3221           74241                           DOT      VXSC
001215: 05,3222           02611                                    UP1
001216: 05,3223           02611                                    UP1
001217: 05,3224           51352                           VSL2     BVSU
001218: 05,3225           63256                           UNIT     PDVL
001219: 05,3226           74246                           ABVAL    VXSC
001220: 05,3227           43572                           VSL1     RVQ
001221:
001222:                                                                                                  #  Page 677
001223:                                                                                                  #  ***** INTINTNA *****
001224:
001225: 31,2000                                           SETLOC   CDHTAG2
001226: 31,2000                                           BANK
001227:
001228: 31,3662           65325        INTINT2C           PDDL     PDDL
001229: 31,3663           02637                                    TCSI
001230: 31,3664           02635                                    TCDH
001231: 31,3665           41525                           PDDL     PUSH
001232: 31,3666           33107                                    TWOPI
001233: 31,3667           77650                           GOTO
001234: 31,3670           72705                                    INTINT
001235: 31,3671           65325        INTINT3P           PDDL     PDDL
001236: 31,3672           02635                                    TCDH
001237: 31,3673           03663                                    TTPI
001238: 31,3674           41525                           PDDL     PUSH
001239: 31,3675           15335                                    ZEROVECS
001240: 31,3676           77650                           GOTO
001241: 31,3677           72705                                    INTINT
001242:
001243:                                                                                                  #  Page 678
001244:                                                                                                  #  ***** S32/33.1 *****
001245:
001246:                                                                                                  #  SUBROUTINES USED
001247:                                                                                                  #        S32/33.X
001248:
001249: 35,2000                                           SETLOC   CSI/CDH
001250: 35,2000                                           BANK
001251:
001252: 35,3457           76020        S32/33.1           STQ      AXT,1
001253: 35,3460           02370                                    SUBEXIT
001254: 35,3461           01521                           VN       0681
001255: 35,3462           77624                           CALL
001256: 35,3463           76625                                    DISDVLVC
001257: 35,3464           77624                           CALL
001258: 35,3465           26231                                    S32/33.X
001259: 35,3466           61375                           VLOAD    VXM
001260: 35,3467           03405                                    DELVLVC
001261: 35,3470           00001                                    0D
001262: 35,3471           77772                           VSL1
001263: 35,3472           03646                           STORE    DELVSIN
001264: 35,3473           51406                           PUSH     ABVAL
001265: 35,3474           27654                           STOVL    DELVSAB
001266: 35,3475           77650                           GOTO
001267: 35,3476           02370                                    SUBEXIT
001268:
001269:                                                                                                  #  Page 679
001270:                                                                                                  #  ***** S32/33.X *****
001271:
001272: 13,2000                                           SETLOC   CDHTAGS
001273: 13,2000                                           BANK
001274:
001275: 13,2231           77201        S32/33.X           SETPD    VLOAD
001276: 13,2232           00007                                    6D
001277: 13,2233           02611                                    UP1
001278: 13,2234           63276                           VCOMP    PDVL
001279: 13,2235           02541                                    RACT1
001280: 13,2236           57456                           UNIT     VCOMP
001281: 13,2237           47206                           PUSH     VXV
001282: 13,2240           02611                                    UP1
001283: 13,2241           77772                           VSL1
001284: 13,2242           00001                           STORE    0D
001285: 13,2243           77616                           RVQ
001286:
001287:                                                                                                  #  Page 680
001288:                                                                                                  #  ***** CDHMVR *****
001289:
001290:                                                                                                  #  SUBROUTINES USED
001291:                                                                                                  #        VECSHIFT
001292:                                                                                                  #        TIMETHET
001293:                                                                                                  #        SHIFTR1
001294:
001295: 05,2000                                           SETLOC   CDHTAG
001296: 05,2000                                           BANK
001297:
001298: 05,3230           77220        CDHMVR             STQ      VLOAD
001299: 05,3231           02370                                    SUBEXIT
001300: 05,3232           02453                                    RACT2
001301: 05,3233           53406                           PUSH     UNIT
001302: 05,3234           27546                           STOVL    UNVEC                                 #  UR SUB A
001303: 05,3235           02625                                    RPASS2
001304: 05,3236           50256                           UNIT     DOT
001305: 05,3237           03546                                    UNVEC
001306: 05,3240           72406                           PUSH     SL1
001307: 05,3241           16734                           STODL    CSTH
001308: 05,3242           65316                           DSQ      PDDL
001309: 05,3243           23756                                    DP1/4
001310: 05,3244           45302                           SR2      DSU
001311: 05,3245           72566                           SQRT     SL1
001312: 05,3246           57515                           PDVL     VCOMP
001313: 05,3247           77635                           VXV
001314: 05,3250           02625                                    RPASS2
001315: 05,3251           65241                           DOT      PDDL
001316: 05,3252           02611                                    UP1
001317: 05,3253           45565                           SIGN     STADR
001318: 05,3254           51045                           STOVL    SNTH
001319: 05,3255           02625                                    RPASS2
001320: 05,3256           45115                           PDVL     CALL
001321: 05,3257           02617                                    VPASS2
001322: 05,3260           45253                                    VECSHIFT
001323: 05,3261           26746                           STOVL    VVEC
001324: 05,3262           77614                           CLEAR
001325: 05,3263           03666                                    RVSW
001326: 05,3264           36657                           STCALL   RVEC
001327: 05,3265           24744                                    TIMETHET
001328: 05,3266           53754                           LXA,2    VSL*
001329: 05,3267           03746                                    RTX2
001330: 05,3270           57576                                    0,2
001331: 05,3271           00023                           STORE    18D
001332: 05,3272           76441                           DOT      SL1R
001333: 05,3273           03546                                    UNVEC
001334: 05,3274           51515                           PDVL     ABVAL                                 #  0D = V SUB PV
001335: 05,3275           63257                           SL*      PDVL
001336: 05,3276           57576                                    0,2
001337:                                                                                                  #  Page 681
001338: 05,3277           02453                                    RACT2
001339: 05,3300           65246                           ABVAL    PDDL                                  #  2D = LENGTH OF R SUB A
001340: 05,3301           77625                           DSU
001341: 05,3302           00003                                    02D
001342: 05,3303           16633                           STODL    DIFFALT                               #  DELTA H IN METERS             B+29
001343: 05,3304           02744                                    R1A
001344: 05,3305           65301                           NORM     PDDL                                  #  2 - R V**/MU                          04D
001345: 05,3306           00047                                    X1
001346: 05,3307           00041                                    R1
001347: 05,3310           77624                           CALL
001348: 05,3311           45263                                    SHIFTR1
001349: 05,3312           56362                           SR1R     DDV
001350: 05,3313           41457                           SL*      PUSH
001351: 05,3314           20174                                    0          -5,1
001352: 05,3315           65225                           DSU      PDDL                                  #  A SUB A                       B+29    04D
001353: 05,3316           02633                                    DIFFALT
001354: 05,3317           56302                           SR2      DDV                                   #  A SUB P                       B+31
001355: 05,3320           00005                                    04D                                   #                                B+2
001356: 05,3321           75406                           PUSH     SQRT                                  #  A SUB P/A SUB A                       06D
001357: 05,3322           41275                           DMPR     DMP
001358: 05,3323           00007                                    06D
001359: 05,3324           00001                                    00D
001360: 05,3325           65272                           SL3R     PDDL                                  #  V SUB A V METERS/CS           B+7     08D
001361: 05,3326           00003                                    02D                                   #  R SUB A MAGNITUDE             B+29
001362: 05,3327           65301                           NORM     PDDL
001363: 05,3330           00047                                    X1
001364: 05,3331           03750                                    RTMU
001365: 05,3332           56342                           SR1      DDV                                   #  2MU                           B+38
001366: 05,3333           65257                           SL*      PDDL                                  #  2 MU/R SUBAA                  B+14    10D
001367: 05,3334           20174                                    0          -5,1
001368: 05,3335           00005                                    04D                                   #  ASUBA                         B+29
001369: 05,3336           65301                           NORM     PDDL
001370: 05,3337           00050                                    X2
001371: 05,3340           03750                                    RTMU
001372: 05,3341           56342                           SR1      DDV
001373: 05,3342           44257                           SL*      BDSU
001374: 05,3343           57604                                    0          -6,2                       #  2U/R - U/A             B+14 (METERS/CS)SQ
001375: 05,3344           63525                           PDDL     DSQ                                   #                                        10D
001376: 05,3345           00011                                    08D
001377: 05,3346           75421                           BDSU     SQRT
001378: 05,3347           47315                           PDVL     VXV                                   #  SQRT(MU(2/R SUB A-1/A SUB A)-VSUBA2)  10D
001379: 05,3350           02611                                    UP1
001380: 05,3351           03546                                    UNVEC
001381: 05,3352           74256                           UNIT     VXSC
001382: 05,3353           00013                                    10D
001383: 05,3354           74315                           PDVL     VXSC
001384: 05,3355           03546                                    UNVEC
001385: 05,3356           00011                                    08D
001386: 05,3357           76455                           VAD      VSL1
001387: 05,3360           77626                           STADR
001388:                                                                                                  #  Page 682
001389: 05,3361           74231                           STORE    VACT3
001390: 05,3362           77651                           VSU
001391: 05,3363           02533                                    VACT2
001392: 05,3364           37667                           STCALL   DELVEET2                              #  DELTA VCDH -- REFERENCE COORDINATES
001393: 05,3365           02370                                    SUBEXIT
001394:
001395:                                                                                                  #  Page 683
001396:                                                                                                  #  ***** COMPTGO *****
001397:
001398:                                                                                                  #  SUBROUTINES USED
001399:                                                                                                  #        CLOKTASK
001400:                                                                                                  #        2PHSCHNG
001401:
001402: 35,3477                                           BANK     35
001403: 35,2000                                           SETLOC   CSI/CDH
001404: 35,2000                                           BANK
001405:
001406: 35,3477  E4,1767                                  EBANK=   RTRN
001407:
001408: 35,3477                                           COUNT*   $$/P3575
001409:

End of include-file P32-P33_P72-P73.agc.  Parent file is MAIN.agc


