
Source Code


000002:                                                                                                  #  Copyright:    Public domain.
000003:                                                                                                  #  Filename:     P34-35_P74-75.agc
000004:                                                                                                  #  Purpose:      Part of the source code for Comanche, build 055. It
000005:                                                                                                  #                is part of the source code for the Command Module's
000006:                                                                                                  #                (CM) Apollo Guidance Computer (AGC), Apollo 11.
000007:                                                                                                  #  Assembler:    yaYUL
000008:                                                                                                  #  Reference:    pp. 460-504
000009:                                                                                                  #  Contact:      Onno Hommes <ohommes@cmu.edu>
000010:                                                                                                  #  Website:      http://www.ibiblio.org/apollo.
000011:                                                                                                  #  Mod history:  2009-05-10 OH   Batch 2 Assignment Comanche Transcription
000012:                                                                                                  #                2009-05-23 RSB  In DISPLAYE, corrected a CADR GOFLASHR
000013:                                                                                                  #                                to CADR GOFLASH.
000014:                                                                                                  #                2010-08-28 JL   Added missing comment character on p478.
000015:                                                                                                  #                2011-05-08 JL   Removed workaround.
000016:
000017:                                                                                                  #  The contents of the "Comanche055" files, in general, are transcribed
000018:                                                                                                  #  from scanned documents.
000019:
000020:                                                                                                  #        Assemble revision 055 of AGC program Comanche by NASA
000021:                                                                                                  #        2021113-051.  April 1, 1969.
000022:
000023:                                                                                                  #        This AGC program shall also be referred to as Colossus 2A
000024:
000025:                                                                                                  #        Prepared by
000026:                                                                                                  #                        Massachusetts Institute of Technology
000027:                                                                                                  #                        75 Cambridge Parkway
000028:                                                                                                  #                        Cambridge, Massachusetts
000029:
000030:                                                                                                  #        under NASA contract NAS 9-4065.
000031:
000032:                                                                                                  #  Refer directly to the online document mentioned above for further
000033:                                                                                                  #  information.  Please report any errors to info@sandroid.org.
000034:
000035:


000037:                                                                                                  #  TRANSFER PHASE INITITIATION (TPI) PROGRAMS (P34 AND P74)
000038:                                                                                                  #  MOD NO -1                     LOG SECTION -- P32-P35, P72-P75
000039:                                                                                                  #  MOD BY WHITE, P.              DATE: 1 JUNE 67
000040:
000041:                                                                                                  #  PURPOSE
000042:                                                                                                  #        (1)     TO CALCULATE THE REQUIRED DELTA V AND OTHER INITIAL CONDITIONS
000043:                                                                                                  #                REQUIRED BY THE ACTIVE VEHICLE FOR EXECUTION OF THE TRANSFER
000044:                                                                                                  #                PHASE INITITATION (TPI) MANEUVER, GIVEN --
000045:                                                                                                  #                (A)     TIME OF IGNITION TIG (TPI) OR THE ELEVATION ANGLE (E) OF
000046:                                                                                                  #                        THE ACTIVE/PASSIVE VEHICLE LOS AT TIG (TPI).
000047:                                                                                                  #                (B)     CENTRAL ANGLE OF TRANSFER (CENTANG) FROM TIG (TPI) TO
000048:                                                                                                  #                        INTERCEPT TIME (TIG (TPF)).
000049:                                                                                                  #        (2)     TO CALCULATE TIG (TPI) GIVEN E OR E GIVEN TIG (TPI).
000050:                                                                                                  #        (3)     TO CALCULATE THESE PARAMETERS BASED UPON MANEUVER DATA
000051:                                                                                                  #                APPROVED AND KEYED INTO THE DSKY BY THE ASTRONAUT.
000052:                                                                                                  #        (4)     TO DISPLAY TO THE ASTRONAUT AND THE GROUND CERTAIN DEPENDENT
000053:                                                                                                  #                VARIABLES ASSOCIATED WITH THE MANEUVER FOR APPROVAL BY THE
000054:                                                                                                  #                ASTRONAUT/GROUND.
000055:                                                                                                  #        (5)     TO STORE THE TPI TARGET PARAMETERS FOR USE BY THE DESIRED
000056:                                                                                                  #                THRUSTING PROGRAM.
000057:
000058:                                                                                                  #  ASSUMPTIONS
000059:                                                                                                  #        (1)     LM ONLY -- THIS PROGRAM IS BASED UPON PREVIOUS COMPLETION OF
000060:                                                                                                  #                THE CONSTANT DELTA ALTITUDE (CDH) PROGRAM (P33/P73).
000061:                                                                                                  #                THEREFORE --
000062:                                                                                                  #                (A)     AT A SELECTED TPI TIME (NOW IN STORAGE) THE LINE OF SIGHT
000063:                                                                                                  #                        BETWEEN THE ACTIVE AND PASSIVE VEHICLES WAS SELECTED TO BE
000064:                                                                                                  #                        A PRESCRIBED ANGLE (E) (NOW IN STORAGE) FROM THE
000065:                                                                                                  #                        HORIZONTAL PLANE DEFINED BY THE ACTIVE VEHICLE POSITION.
000066:                                                                                                  #                (B)     THE TIME BETWEEN CDH IGNITION AND TPI IGNITION WAS
000067:                                                                                                  #                        COMPUTED TO BE GREATER THAN 10 MINUTES.
000068:                                                                                                  #                (C)     THE VARIATION OF TEH ALTITUDE DIFFERENCE BETWEEN THE
000069:                                                                                                  #                        ORBITS WAS MINIMIZED.
000070:                                                                                                  #                (D)     THE PERICENTER ALTITUDES OF ORBITS FOLLOWING CSI AND
000071:                                                                                                  #                        CDH WERE COMPUTED TO BE GREATER THAN 35,000 FT FOR LUNAR


000073:                                                                                                  #                        ORBIT OR 85 NM FOR EARTH ORBIT.
000074:                                                                                                  #                (E)     THE CSI AND CDH MANEUVERS WERE ASSUMED TO BE PARALLEL TO
000075:                                                                                                  #                        THE PLANE OF THE PASSIVE VEHICLE ORBIT.  HOWEVER, CREW
000076:                                                                                                  #                        MODIFICATION OF DELTA V (LV) COMPONENTS MAY HAVE RESULTED
000077:                                                                                                  #                        IN AN OUT-OF-PLANE MANEUVER.
000078:                                                                                                  #        (2)     STATE VECTOR UPDATED BY P27 ARE DISALLOWED DURING AUTOMATIC
000079:                                                                                                  #                STATE VECTOR UPDATING INITIATED BY P20 (SEE ASSUMPTION (4)).
000080:                                                                                                  #        (3)     THIS PROGRAM MUST BE DONE OVER A TRACKING STATION FOR REAL
000081:                                                                                                  #                TIME GROUND PARTICIPATION IN DATA INPUT AND OUTPUT.  COMPUTED
000082:                                                                                                  #                VARIABLES MAY BE STORED FOR LATER VERIFICATION BY THE GROUND.
000083:                                                                                                  #                THESE STORAGE CAPABILITIES ARE LIMITED ONLY TO THE PARAMETERS
000084:                                                                                                  #                FOR ONE THRUSTING MANEUVER AT A TIME EXCEPT FOR CONCENTRIC
000085:                                                                                                  #                FLIGHT PLAN MANEUVER SEQUENCES.
000086:                                                                                                  #        (4)     THE RENDEZVOUS RADAR MAY OR MAY NOT BE USED TO UPDATE THE LM
000087:                                                                                                  #                OR CSM STATE VECTORS FOR THIS PROGRAM.  IF RADAR USE IS
000088:                                                                                                  #                DESIRED THE RADAR WAS TURNED ON AND LOCKED ON THE CSM BY
000089:                                                                                                  #                PREVIOUS SELECTION OF P20.  RADAR SIGHTING MARKS WILL BE MADE
000090:                                                                                                  #                AUTOMATICALLY APPROXIMATELY ONCE A MINUTE WHEN ENABLED BY THE
000091:                                                                                                  #                TRACK AND UPDATE FLAGS (SEE P20).  THE RENDEZVOUS TRACKING
000092:                                                                                                  #                MARK COUNTER IS ZEROED BY TEH SELECTION OF P20 AND AFTER EACH
000093:                                                                                                  #                THRUSTING MANEUVER.
000094:                                                                                                  #        (5)     THE ISS NEED NOT BE ON TO COMPLETE THIS PROGRAM.
000095:                                                                                                  #        (6)     THE OPERATION OF THE PROGRAM UTILIZES THE FOLLOWING FLAGS --
000096:
000097:                                                                                                  #                        ACTIVE VEHICLE FLAG -- DESIGNATES THE VEHICLE WHICH IS
000098:                                                                                                  #                        DOING RENDEZVOUS THRUSTING MANEUVERS TO THE PROGRAM WHICH
000099:                                                                                                  #                        CALCULATES THE MANEUVER PARAMETERS.  SET AT THE START OF
000100:                                                                                                  #                        EACH RENDEZVOUS PRE-THRUSTING PROGRAM.
000101:
000102:                                                                                                  #                        FINAL FLAG -- SELECTS FINAL PROGRAM DISPLAYS AFTER CREW HAS
000103:                                                                                                  #                        SELECTED THE FINAL MANEUVER COMPUTATION CYCLE.
000104:
000105:                                                                                                  #                        EXTERNAL DELTA V FLAG -- DESIGNATES THE TYPE OF STEERING
000106:                                                                                                  #                        REQUIRED FOR EXECUTION OF THIS MANEUVER BY THE THRUSTING
000107:                                                                                                  #                        PROGRAM SELECTED AFTER COMPLETION OF THIS PROGRAM.
000108:
000109:                                                                                                  #        (7)     ONCE THE PARAMETERS REQUIRED FOR COMPUTATION OF THE MANEUVER
000110:                                                                                                  #                HAVE BEEN COMPLETELY SPECIFIED, TEH VALUE OF THE ACTIVE
000111:                                                                                                  #                VEHICLE CENTRAL ANGLE OF TRANSFER IS COMPUTED AND STORED.
000112:                                                                                                  #                THIS NUMBER WILL BE AVAILABLE FOR DISPLAY TO THE ASTRONAUT
000113:                                                                                                  #                THROUGH THE USE OF V06N52.
000114:
000115:                                                                                                  #                THE ASTRONAUT WILL CALL THIS DISPLAY TO VERIFY THAT THE
000116:                                                                                                  #                CENTRAL ANGLE OF TRANSFER OF THE ACTIVE VEHICLE IS NOT WITHIN


000118:                                                                                                  #                170 TO 190 DEGREES.  IF THE ANGLE IS WITHIN THIS ZONE THE
000119:                                                                                                  #                ASTRONAUT SHOULD REASSES THE INPUT TARGETING PARAMETERS BASED
000120:                                                                                                  #                UPON DELTA V AND EXPECTED MANEUVER TIME.
000121:                                                                                                  #        (8)     THIS PROGRAM IS SELECTED BY THE ASTRONAUT BY DSKY ENTRY --
000122:
000123:                                                                                                  #                        P34 IF THIS VEHICLE IS ACTIVE VEHICLE.
000124:
000125:                                                                                                  #                        P74 IF THIS VEHICLE IS PASSIVE VEHICLE.
000126:
000127:                                                                                                  #  INPUT
000128:                                                                                                  #        (1)     TTPI    TIME OF THE TPI MANEUVER.
000129:                                                                                                  #        (2)     ELEV    DESIRED LOS ANGLE AT TPI
000130:                                                                                                  #        (3)     CENTANG ORBITAL CENTRAL ANGLE OF THE PASSIVE VEHICLE DURING
000131:                                                                                                  #                        TRANSFER FROM TPI TO TIME OF INTERCEPT
000132:
000133:                                                                                                  #  OUTPUT
000134:                                                                                                  #        (1)     TRKMKCNT        NUMBER OF MARKS
000135:                                                                                                  #        (2)     TTOGO           TIME TO GO
000136:                                                                                                  #        (3)     +MGA            MIDDLE GIMBAL ANGLE
000137:                                                                                                  #        (4)     TTPI            COMPUTED TIME OF TPI MANEUVER
000138:                                                                                                  #                 OR
000139:                                                                                                  #                ELEV            COMPUTED LOS ANGLE AT TPI
000140:                                                                                                  #        (5)     POSTTPI         PERIGEE ALTITUDE AFTER THE TPI MANEUVER
000141:                                                                                                  #        (6)     DELVTPI         MAGNITUDE OF DELTA V AT TPI
000142:                                                                                                  #        (7)     DELVTPF         MAGNITUDE OF DELTA V AT INTERCEPT
000143:                                                                                                  #        (8)     DVLOS           DELTA VELOCITY AT TPI -- LINE OF SIGHT
000144:                                                                                                  #        (9)     DELVLVC         DELTA VELOCITY AT TPI -- LOCAL VERTICAL COORDINATES
000145:
000146:                                                                                                  #  DOWNLINK
000147:                                                                                                  #        (1)     TTPI            TIME OF TPI MANEUVER
000148:                                                                                                  #        (2)     TIG             TIME OF TPI MANEUVER
000149:                                                                                                  #        (3)     ELEV            DESIRED LOS ANGLE AT TPI
000150:                                                                                                  #        (4)     CENTANG         ORBITAL CENTRAL ANGLE OF THE PASSIVE VEHICLE DURING
000151:                                                                                                  #                                TRANSFER FROM TPI TO TIME OF INTERCEPT
000152:                                                                                                  #        (5)     DELVEET3        DELTA VELOCITY AT TPI -- REFERENCE COORDINATES
000153:                                                                                                  #        (6)     TPASS4          TIME OF INTERCEPT
000154:
000155:                                                                                                  #  COMMUNICATION TO THRUSTING PROGRAMS
000156:                                                                                                  #        (1)     TIG             TIME OF THE TPI MANEUVER
000157:                                                                                                  #        (2)     RTARG           OFFSET TARGET POSITION
000158:                                                                                                  #        (3)     TPASS4          TIME OF INTERCEPT
000159:                                                                                                  #        (4)     XDELVFLG        RESET TO INDICATE LAMBERT (AIMPOINT) VG COMPUTATION
000160:
000161:                                                                                                  #  SUBROUTINES USED
000162:                                                                                                  #        AVFLAGA


000164:                                                                                                  #        AVFLAGP
000165:                                                                                                  #        VNP00H
000166:                                                                                                  #        DISPLAYE
000167:                                                                                                  #        SELECTMU
000168:                                                                                                  #        PRECSET
000169:                                                                                                  #        S33/34.1
000170:                                                                                                  #        ALARM
000171:                                                                                                  #        BANKCALL
000172:                                                                                                  #        GOFLASH
000173:                                                                                                  #        GOTOP00H
000174:                                                                                                  #        TIMETHET
000175:                                                                                                  #        S34/35.2
000176:                                                                                                  #        PERIAPO1
000177:                                                                                                  #        SHIFTR1
000178:                                                                                                  #        S34/35.5
000179:                                                                                                  #        VN1645
000180:
000181: 35,2000                                           SETLOC   CSI/CDH
000182: 35,2000                                           BANK
000183: 35,2000  E4,1770                                  EBANK=   SUBEXIT
000184: 35,2000                                           COUNT    35/P3474
000185:
000186: 35,2000           04627        P34                TC       AVFLAGA
000187: 35,2001           02003                           TC       P34/P74A
000188: 35,2002           04642        P74                TC       AVFLAGP
000189: 35,2003           04647        P34/P74A           TC       P20FLGON                              #  SET UPDATFLG, TRACKFLG
000190: 35,2004           34614                           CAF      V06N37                                #  TTPI
000191: 35,2005           04575                           TC       VNP00H                                #  Onno: The scans look like O not zero
000192: 35,2006           06006                           TC       INTPRET
000193: 35,2007           77531                           SSP      EXIT
000194: 35,2010           03766                                    NN
000195: 35,2011           00000                                    0
000196: 35,2012           03070                           TC       DISPLAYE                              #  ELEV AND CENTANG
000197: 35,2013           06006                           TC       INTPRET
000198: 35,2014           71214                           CLEAR    DLOAD
000199: 35,2015           01270                                    ETPIFLAG
000200: 35,2016           03663                                    TTPI
000201: 35,2017           17413                           STODL    TIG
000202: 35,2020           03744                                    ELEV
000203: 35,2021           43054                           BZE      SET
000204: 35,2022           72024                                    P34/P74B
000205: 35,2023           01070                                    ETPIFLAG
000206: 35,2024           77624        P34/P74B           CALL
000207: 35,2025           10712                                    SELECTMU
000208: 35,2026                        DELELO             EQUALS   26D
000209: 35,2026           43145        P34/P74C           DLOAD    SET
000210: 35,2027           15335                                    ZEROVECS
000211: 35,2030           03461                                    ITSWICH
000212: 35,2031           43014                           BON      CLEAR
000213: 35,2032           01310                                    ETPIFLAG


000215: 35,2033           72035                                    SWCHSET
000216: 35,2034           03661                                    ITSWICH
000217: 35,2035           02364        SWCHSET            STORE    NOMTPI
000218: 35,2036           43345        INTLOOP            DLOAD    DAD
000219: 35,2037           03663                                    TTPI
000220: 35,2040           02364                                    NOMTPI
000221: 35,2041           34041                           STCALL   TDEC1
000222: 35,2042           45215                                    PRECSET
000223: 35,2043           77624                           CALL
000224: 35,2044           72216                                    S33/34.1
000225: 35,2045           77454                           BZE      EXIT
000226: 35,2046           72057                                    SWCHCLR
000227: 35,2047           05650                           TC       ALARM
000228: 35,2050           00611                           OCT      611
000229: 35,2051           35050                           CAF      V05N09
000230: 35,2052           04662                           TC       BANKCALL
000231: 35,2053           20720                           CADR     GOFLASH
000232: 35,2054           04106                           TC       GOTOP00H
000233: 35,2055           02003                           TC       P34/P74A                              #  PROCEED
000234: 35,2056           02047                           TC       -7                                    #  V32
000235:
000236: 35,2057           43014        SWCHCLR            BONCLR   BON
000237: 35,2060           03601                                    ITSWICH
000238: 35,2061           72036                                    INTLOOP
000239: 35,2062           01310                                    ETPIFLAG
000240: 35,2063           72067                                    P34/P74D                              #  DISPLAY TTPI
000241: 35,2064           77776                           EXIT
000242: 35,2065           03070                           TC       DISPLAYE                              #  DISPLAY ELEV AND CENTANG
000243: 35,2066           02072                           TC       P34/P74E
000244: 35,2067           77776        P34/P74D           EXIT
000245: 35,2070           34614                           CAF      V06N37                                #  TTPI
000246: 35,2071           04575                           TC       VNP00H
000247: 35,2072           06006        P34/P74E           TC       INTPRET
000248: 35,2073           71201                           SETPD    DLOAD
000249: 35,2074           00001                                    0D
000250: 35,2075           03746                                    RTX1
000251: 35,2076           14047                           STODL    X1
000252: 35,2077           03754                                    CENTANG
000253: 35,2100           71406                           PUSH     COS
000254: 35,2101           16734                           STODL    CSTH
000255: 35,2102           77756                           SIN
000256: 35,2103           26732                           STOVL    SNTH
000257: 35,2104           03554                                    RPASS3
000258: 35,2105           77657                           VSR*
000259: 35,2106           57176                                    0,2
000260: 35,2107           26657                           STOVL    RVEC
000261: 35,2110           03562                                    VPASS3
000262: 35,2111           43057                           VSR*     SET
000263: 35,2112           57176                                    0,2
000264: 35,2113           03466                                    RVSW


000266: 35,2114           36746                           STCALL   VVEC
000267: 35,2115           24744                                    TIMETHET
000268: 35,2116           77745                           DLOAD
000269: 35,2117           03663                                    TTPI
000270: 35,2120           03503                           STORE    INTIME                                #  FOR INITVEL
000271: 35,2121           77615                           DAD
000272: 35,2122           00037                                    T                                     #  RENDEZVOUS TIME
000273: 35,2123           37656                           STCALL   TPASS4                                #  FOR INITVEL
000274: 35,2124           72526                                    S34/35.2
000275: 35,2125           51575                           VLOAD    ABVAL
000276: 35,2126           03646                                    DELVEET3
000277: 35,2127           26635                           STOVL    DELVTPI
000278: 35,2130           03640                                    VPASS4
000279: 35,2131           51451                           VSU      ABVAL
000280: 35,2132           03620                                    VTPRIME
000281: 35,2133           26637                           STOVL    DELVTPF
000282: 35,2134           03540                                    RACT3
000283: 35,2135           45115                           PDVL     CALL
000284: 35,2136           03612                                    VIPRIME
000285: 35,2137           45153                                    PERIAPO1
000286: 35,2140           77624                           CALL
000287: 35,2141           45263                                    SHIFTR1
000288: 35,2142           16641                           STODL    POSTTPI
000289: 35,2143           03663                                    TTPI
000290: 35,2144           03413                           STORE    TIG
000291: 35,2145           77776                           EXIT
000292: 35,2146           34616                           CAF      V06N58
000293: 35,2147           04575                           TC       VNP00H
000294: 35,2150           06006                           TC       INTPRET
000295: 35,2151           77624                           CALL
000296: 35,2152           72741                                    S34/35.5
000297: 35,2153           77624                           CALL
000298: 35,2154           73002                                    VN1645
000299: 35,2155           77650                           GOTO
000300: 35,2156           72026                                    P34/P74C
000301:


000303:                                                                                                  #  RENDEZVOUS MID-COURSE MANEUVER PROGRAMS (P35 AND P75)
000304:                                                                                                  #  MOD NO -1                     LOG SECTION -- P32-P35, P72-P75
000305:                                                                                                  #  MOD BY WHITE, P.              DATE:  1 JUNE 67
000306:
000307:                                                                                                  #  PURPOSE
000308:                                                                                                  #        (1)     TO CALCULATE THE REQUIRED DELTA V AND OTHER INITIAL CONDITIONS
000309:                                                                                                  #                REQUIRED BY THE ACTIVE VEHICLE FOR EXECUTION OF THE NEXT
000310:                                                                                                  #                MID-COURSE CORRECTION OF THE TRANSFER PHASE OF AN ACTIVE
000311:                                                                                                  #                VEHICLE RENDEZVOUS.
000312:                                                                                                  #        (2)     TO DISPLAY TO THE ASTRONAUT AND THE GROUND CERTAIN DEPENDENT
000313:                                                                                                  #                VARIABLES ASSOCIATED WITH THE MANEUVER FOR APPROVAL BY THE
000314:                                                                                                  #                ASTRONAUT/GROUND.
000315:                                                                                                  #        (3)     TO STORE THE TPM TARGET PARAMETERS FOR USE BY THE DESIRED
000316:                                                                                                  #                THRUSTING PROGRAM.
000317:
000318:                                                                                                  #  ASSUMPTIONS
000319:                                                                                                  #        (1)     THE ISS NEED NOT BE ON TO COMPLETE THIS PROGRAM.
000320:                                                                                                  #        (2)     STATE VECTOR UPDATES BY P27 ARE DISALLOWED DURING AUTOMATIC
000321:                                                                                                  #                STATE VECTOR UPDATING INITIATED BY P20 (SEE ASSUMPTION (3)).
000322:                                                                                                  #        (3)     THE RENDEZVOUS RADAR IS ON AND IS LOCKED ON THE CSM.  THIS WAS
000323:                                                                                                  #                DONE DURING PREVIOUS SELECTION OF P20.  RADAR SIGHTING MARKS
000324:                                                                                                  #                WILL BE MADE AUTOMATICALLY APPROXIMATELY ONCE A MINUTE WHEN
000325:                                                                                                  #                ENABLED BY THE TRACK AND UPDATE FLAGS (SEE P20).  THE
000326:                                                                                                  #                RENDEZVOUS TRACKING MARK COUNTER IS ZEROED BY THE SELECTION OF
000327:                                                                                                  #                P20 AND AFTER EACH THRUSTING MANEUVER.
000328:                                                                                                  #        (4)     THE OPERATION OF THE PROGRAM UTILIZES THE FOLLOWING FLAGS --
000329:
000330:                                                                                                  #                        ACTIVE VEHICLE FLAG -- DESIGNATES THE VEHICLE WHICH IS
000331:                                                                                                  #                        DOING RENDEZVOUS THRUSTING MANEUVERS TO THE PROGRAM WHICH
000332:                                                                                                  #                        CALCULATES THE MANEUVER PARAMETERS.  SET AT THE START OF
000333:                                                                                                  #                        EACH RENDEZVOUS PRE-THRUSTING PROGRAM.
000334:
000335:                                                                                                  #                        FINAL FLAG -- SELECTS FINAL PROGRAM DISPLAYS AFTER CREW HAS
000336:                                                                                                  #                        SELECTED THE FINAL MANEUVER COMPUTATION CYCLE.
000337:
000338:                                                                                                  #                        EXTERNAL DELTA V FLAG -- DESIGNATES THE TYPE OF STEERING
000339:                                                                                                  #                        REQUIRED FOR EXECUTION OF THIS MANEUVER BY THE THRUSTING
000340:                                                                                                  #                        PROGRAM SELECTED AFTER COMPLETION OF THIS PROGRAM.
000341:
000342:                                                                                                  #        (5)     THE TIME OF INTERCEPT (T(INT)) WAS DEFINED BY PREVIOUS
000343:                                                                                                  #                COMPLETION OF THE TRANSFER PHASE INITIATION (TPI) PROGRAM
000344:                                                                                                  #                (P34/P74) AND IS PRESENTLY AVAILABLE IN STORAGE.


000346:                                                                                                  #        (6)     ONCE THE PARAMETERS REQUIRED FOR COMPUTATION OF THE MANEUVER
000347:                                                                                                  #                HAVE BEEN COMPLETELY SPECIFIED, THE VALUE OF THE ACTIVE
000348:                                                                                                  #                VEHICLE CENTRAL ANGLE OF TRANSFER IS COMPUTED AND STORED.
000349:                                                                                                  #                THIS NUMBER WILL BE AVAILABLE FOR DISPLAY TO THE ASTRONAUT
000350:                                                                                                  #                THROUGH THE USE OF V06N52
000351:
000352:                                                                                                  #                THE ASTRONAUT WILL CALL THIS DISPLAY TO VERIFY THAT THE
000353:                                                                                                  #                CENTRAL ANGLE OF TRANSFER OF THE ACTIVE VEHICLE IS NOT WITHIN
000354:                                                                                                  #                170 TO 190 DEGREES.  IF THE ANGLE IS WITHIN THIS ZONE THE
000355:                                                                                                  #                ASTRONAUT SHOULD REASSESS THE INPUT TARGETING PARAMETERS BASED
000356:                                                                                                  #                UPON DELTA V AND EXPECTED MANEUVER TIME.
000357:                                                                                                  #        (7)     THIS PROGRAM IS SELECTED BY THE ASTRONAUT BY DSKY ENTRY --
000358:
000359:                                                                                                  #                        P35 IF THIS VEHICLE IS ACTIVE VEHICLE.
000360:
000361:                                                                                                  #                        P75 IF THIS VEHICLE IS PASSIVE VEHICLE.
000362:
000363:                                                                                                  #  INPUT
000364:                                                                                                  #        (1)     TPASS4          TIME OF INTERCEPT -- SAVED FROM P34/P74
000365:
000366:                                                                                                  #  OUTPUT
000367:                                                                                                  #        (1)     TRKMKCNT        NUMBER OF MARKS
000368:                                                                                                  #        (2)     TTOGO           TIME TO GO
000369:                                                                                                  #        (3)     +MGA            MIDDLE GIMBAL ANGLE
000370:                                                                                                  #        (4)     DVLOS           DELTA VELOCITY AT MID -- LINE OF SIGHT
000371:                                                                                                  #        (5)     DELVLVC         DELTA VELOCITY AT MID -- LOCAL VERTICAL COORDINATES
000372:
000373:                                                                                                  #  DOWNLINK
000374:                                                                                                  #        (1)     TIG             TIME OF THE TPM MANEUVER
000375:                                                                                                  #        (2)     DELVEET3        DELTA VELOCITY AT TPM -- REFERENCE COORDINATES
000376:                                                                                                  #        (3)     TPASS4          TIME OF INTERCEPT
000377:
000378:                                                                                                  #  COMMUNICATION TO THRUSTING PROGRAMS
000379:                                                                                                  #        (1)     TIG             TIME OF THE TPM MANEUVER
000380:                                                                                                  #        (2)     RTARG           OFFSET TARGET POSITION
000381:                                                                                                  #        (3)     TPASS4          TIME OF INTERCEPT
000382:                                                                                                  #        (4)     XDELVFLG        RESET TO INDICATE LAMBERT (AIMPOINT) VG COMPUTATION.
000383:
000384:                                                                                                  #  SUBROUTINES USED
000385:                                                                                                  #        AVFLAGA
000386:                                                                                                  #        AVFLAGP
000387:                                                                                                  #        LOADTIME
000388:                                                                                                  #        SELECTMU
000389:                                                                                                  #        PRECSET
000390:                                                                                                  #        S34/35.1
000391:                                                                                                  #        S34/35.2


000393:                                                                                                  #        S34/35.5
000394:                                                                                                  #        VN1645
000395:
000396: 35,2157                                           COUNT    35/P3575
000397: 35,2157  E4,1763                                  EBANK=   KT
000398:
000399: 35,2157           04627        P35                TC       AVFLAGA
000400: 35,2160           00006                           EXTEND
000401: 35,2161           31422                           DCA      ATIGINC
000402: 35,2162           02166                           TC       P35/P75A
000403: 35,2163           04642        P75                TC       AVFLAGP
000404: 35,2164           00006                           EXTEND
000405: 35,2165           31424                           DCA      PTIGINC
000406: 35,2166           53764        P35/P75A           DXCH     KT
000407: 35,2167           04647                           TC       P20FLGON                              #  SET UPDATFLG, TRACKFLG
000408: 35,2170           06006                           TC       INTPRET
000409: 35,2171           77624                           CALL
000410: 35,2172           10712                                    SELECTMU
000411: 35,2173           77634        P35/P75B           RTB
000412: 35,2174           45510                                    LOADTIME
000413: 35,2175           03665                           STORE    TSTRT
000414: 35,2176           77615                           DAD
000415: 35,2177           02364                                    KT
000416: 35,2200           03413                           STORE    TIG
000417: 35,2201           03503                           STORE    INTIME                                #  FOR INITVEL
000418: 35,2202           34041                           STCALL   TDEC1
000419: 35,2203           45215                                    PRECSET                               #  ADVANCE BOTH VEHICLES
000420: 35,2204           77624                           CALL
000421: 35,2205           74000                                    S34/35.1                              #  GET NORM AND LOS FOR TRANSFORM
000422: 35,2206           77624                           CALL
000423: 35,2207           72526                                    S34/35.2                              #  GET DELTA V(LV)
000424: 35,2210           77624                           CALL
000425: 35,2211           72741                                    S34/35.5
000426: 35,2212           77624                           CALL
000427: 35,2213           73002                                    VN1645
000428: 35,2214           77650                           GOTO
000429: 35,2215           72173                                    P35/P75B


000431:                                                                                                  #  ***** S33/34.1 *****
000432:
000433: 35,2216           66220        S33/34.1           STQ      SSP
000434: 35,2217           01340                                    NORMEX
000435: 35,2220           03665                                    TITER
000436: 35,2221           40000                           OCT      40000
000437: 35,2222           40345                           DLOAD    SETPD
000438: 35,2223           33111                                    MAX250
000439: 35,2224           00001                                    0D
000440: 35,2225           27454                           STOVL    SECMAX
000441: 35,2226           03540                                    RACT3
000442: 35,2227           27576                           STOVL    RAPREC
000443: 35,2230           03546                                    VACT3
000444: 35,2231           27570                           STOVL    VAPREC
000445: 35,2232           03554                                    RPASS3
000446: 35,2233           27620                           STOVL    RPPREC
000447: 35,2234           03562                                    VPASS3
000448: 35,2235           03612                           STORE    VPPREC
000449: 35,2236           77624        ELCALC             CALL
000450: 35,2237           74000                                    S34/35.1                              #  NORMAL AND LOS
000451: 35,2240           63235                           VXV      PDVL
000452: 35,2241           03540                                    RACT3                                 #  (RA*VA)*RA 0D
000453: 35,2242           53515                           PDVL     UNIT                                  #  ULOS AT 6D
000454: 35,2243           03540                                    RACT3
000455: 35,2244           46315                           PDVL     VPROJ                                 #  XCHNJ AND UP
000456: 35,2245           51352                           VSL2     BVSU
000457: 35,2246           02625                                    ULOS
000458: 35,2247           63256                           UNIT     PDVL                                  #  UP AT 0D
000459: 35,2250           63241                           DOT      PDVL                                  #  UP.UN*RA AT 0D
000460: 35,2251           00001                                    0D                                    #  UP IN MPAC
000461: 35,2252           75241                           DOT      SIGN
000462: 35,2253           02625                                    ULOS
000463: 35,2254           65552                           SL1      ACOS
000464: 35,2255           50315                           PDVL     DOT                                   #  EA AT 0D
000465: 35,2256           02625                                    ULOS
000466: 35,2257           03540                                    RACT3
000467: 35,2260           71244                           BPL      DLOAD
000468: 35,2261           72264                                    TESTY
000469: 35,2262           15343                                    DPPOSMAX
000470: 35,2263           41425                           DSU      PUSH
000471: 35,2264           71214        TESTY              BOFF     DLOAD
000472: 35,2265           03741                                    ITSWICH
000473: 35,2266           72513                                    ELEX
000474: 35,2267           03452                                    DELEL
000475: 35,2270           14033                           STODL    DELELO
000476: 35,2271           77625                           DSU
000477: 35,2272           03744                                    ELEV
000478: 35,2273           03452                           STORE    DELEL
000479: 35,2274           45246                           ABS      DSU
000480: 35,2275           33115                                    ELEPS


000482: 35,2276           77640                           BMN
000483: 35,2277           72523                                    TIMEX                                 #  COMMERCIALS EVERYWHERE
000484: 35,2300           70535        FIGTIME            SLOAD    SR1
000485: 35,2301           03665                                    TITER
000486: 35,2302           72030                           BHIZ     LXA,1
000487: 35,2303           01340                                    NORMEX                                #  TOO MANY ITERATIONS
000488: 35,2304           00154                                    MPAC
000489: 35,2305           77330                           SXA,1    VLOAD
000490: 35,2306           03664                                    TITER
000491: 35,2307           03554                                    RPASS3
000492: 35,2310           65256                           UNIT     PDDL
000493: 35,2311           00045                                    36D
000494: 35,2312           53515                           PDVL     UNIT
000495: 35,2313           03540                                    RACT3
000496: 35,2314           77725                           PDDL
000497: 35,2315           41525                           PDDL     PUSH
000498: 35,2316           00045                                    36D
000499: 35,2317           77621                           BDSU
000500: 35,2320           00015                                    12D
000501: 35,2321           14037                           STODL    30D                                   #  RP-RA MAGNITUDES
000502: 35,2322           15333                                    DPHALF
000503: 35,2323           41425                           DSU      PUSH
000504: 35,2324           03744                                    ELEV
000505: 35,2325           50165                           SIGN     BMN
000506: 35,2326           00037                                    30D
000507: 35,2327           01340                                    NORMEX
000508: 35,2330           71545                           DLOAD    COS
000509: 35,2331           56205                           DMP      DDV
000510: 35,2332           00017                                    14D
000511: 35,2333           00015                                    12D
000512: 35,2334           77676                           DCOMP                                          #  SINCE COS(180-A)=-COS A
000513: 35,2335           00035                           STORE    28D
000514: 35,2336           44246                           ABS      BDSU
000515: 35,2337           15333                                    DPHALF
000516: 35,2340           77240                           BMN      VLOAD
000517: 35,2341           01340                                    NORMEX
000518: 35,2342           02617                                    UNRM
000519: 35,2343           53435                           VXV      UNIT
000520: 35,2344           00007                                    6D                                    #  UN*RA
000521: 35,2345           41241                           DOT      DMP
000522: 35,2346           03546                                    VACT3
000523: 35,2347           00015                                    12D
000524: 35,2350           47315                           PDVL     VXV
000525: 35,2351           00001                                    0D
000526: 35,2352           03562                                    VPASS3
000527: 35,2353           53435                           VXV      UNIT
000528: 35,2354           00001                                    0D                                    #  (RP*VP)*RP
000529: 35,2355           41241                           DOT      DMP
000530: 35,2356           03562                                    VPASS3
000531: 35,2357           00017                                    14D


000533: 35,2360           77621                           BDSU
000534: 35,2361           63301                           NORM     PDVL                                  #  NORMALIZED WA-WP 12D
000535: 35,2362           00047                                    X1
000536: 35,2363           00007                                    6D
000537: 35,2364           50235                           VXV      DOT
000538: 35,2365           00001                                    0D
000539: 35,2366           02617                                    UNRM                                  #  RA*RP.UN 14D
000540: 35,2367           50315                           PDVL     DOT
000541: 35,2370           00001                                    0D
000542: 35,2371           00007                                    6D
000543: 35,2372           65552                           SL1      ACOS
000544: 35,2373           77765                           SIGN
000545: 35,2374           43225                           DSU      DAD                                   #  ALPHA PI
000546: 35,2375           15333                                    DPHALF
000547: 35,2376           03744                                    ELEV
000548: 35,2377           65525                           PDDL     ACOS
000549: 35,2400           00035                                    28D
000550: 35,2401           75221                           BDSU     SIGN
000551: 35,2402           15333                                    DPHALF
000552: 35,2403           00037                                    30D                                   #  CONTAINS RP-RA
000553: 35,2404           77615                           DAD
000554: 35,2405           56205                           DMP      DDV
000555: 35,2406           33107                                    TWOPI
000556: 35,2407           77605                           DMP
000557: 35,2410           41257                           SL*      DMP
000558: 35,2411           20176                                    0          -3,1
000559: 35,2412           51406                           PUSH     ABS
000560: 35,2413           50025                           DSU      BMN
000561: 35,2414           03454                                    SECMAX
000562: 35,2415           72421                                    OKMAX
000563: 35,2416           75345                           DLOAD    SIGN                                  #  REPLACE TIME WITH MAX TIME SIGNED
000564: 35,2417           03454                                    SECMAX
000565: 35,2420           77606                           PUSH
000566: 35,2421           51135        OKMAX              SLOAD    BPL                                   #  TEST FIRST ITERATION
000567: 35,2422           03665                                    TITER
000568: 35,2423           72431                                    REPETE
000569: 35,2424           71331                           SSP      DLOAD
000570: 35,2425           03665                                    TITER
000571: 35,2426           37777                           OCT      37777
000572: 35,2427           77650                           GOTO
000573: 35,2430           72467                                    STORDELT
000574: 35,2431           41345        REPETE             DLOAD    DMP
000575: 35,2432           03452                                    DELEL
000576: 35,2433           00033                                    DELELO
000577: 35,2434           71244                           BPL      DLOAD
000578: 35,2435           72445                                    NEXTES
000579: 35,2436           03454                                    SECMAX
000580: 35,2437           77605                           DMP
000581: 35,2440           33113                                    THIRD
000582: 35,2441           17454                           STODL    SECMAX


000584: 35,2442           70446                           ABS      SR1                                   #  CROSSED OVER SOLUTION
000585: 35,2443           52076                           DCOMP    GOTO                                  #  DT=(-SIGN(DTO)//DT//)/2
000586: 35,2444           72455                                    RESIGN
000587: 35,2445           51545        NEXTES             DLOAD    ABS
000588: 35,2446           03452                                    DELEL
000589: 35,2447           51525                           PDDL     ABS
000590: 35,2450           00033                                    DELELO
000591: 35,2451           77625                           DSU
000592: 35,2452           71240                           BMN      DLOAD
000593: 35,2453           72460                                    REVERS                                #  WRONG DIRECTION
000594: 35,2454           77646                           ABS
000595: 35,2455           52165        RESIGN             SIGN     GOTO
000596: 35,2456           03450                                    DELTEEO
000597: 35,2457           72467                                    STORDELT
000598: 35,2460           57545        REVERS             DLOAD    DCOMP
000599: 35,2461           03450                                    DELTEEO
000600: 35,2462           70406                           PUSH     SR1
000601: 35,2463           03450                           STORE    DELTEEO
000602: 35,2464           77615                           DAD
000603: 35,2465           77650                           GOTO
000604: 35,2466           72470                                    ADTIME
000605: 35,2467           03450        STORDELT           STORE    DELTEEO
000606: 35,2470           77615        ADTIME             DAD
000607: 35,2471           02364                                    NOMTPI                                #  SUM OF DELTA T:S
000608: 35,2472           02364                           STORE    NOMTPI
000609: 35,2473           63375                           VLOAD    PDVL
000610: 35,2474           03570                                    VAPREC
000611: 35,2475           03576                                    RAPREC
000612: 35,2476           77624                           CALL
000613: 35,2477           72701                                    GOINT
000614: 35,2500           77624                           CALL
000615: 35,2501           45237                                    ACTIVE                                #  STORE NEW RACT3 VACT3
000616: 35,2502           63375                           VLOAD    PDVL
000617: 35,2503           03612                                    VPPREC
000618: 35,2504           03620                                    RPPREC
000619: 35,2505           77624                           CALL
000620: 35,2506           72701                                    GOINT
000621: 35,2507           77624                           CALL
000622: 35,2510           45247                                    PASSIVE                               #  STORE NEW RPASS3 VPASS3
000623: 35,2511           77650                           GOTO
000624: 35,2512           72236                                    ELCALC
000625: 35,2513           43345        ELEX               DLOAD    DAD
000626: 35,2514           03663                                    TTPI
000627: 35,2515           02364                                    NOMTPI
000628: 35,2516           17663                           STODL    TTPI
000629: 35,2517           77614                           BON
000630: 35,2520           01310                                    ETPIFLAG
000631: 35,2521           72523                                    TIMEX
000632: 35,2522           03744                           STORE    ELEV
000633: 35,2523           52145        TIMEX              DLOAD    GOTO


000635: 35,2524           15335                                    ZEROVECS
000636: 35,2525           01340                                    NORMEX
000637:


000639:                                                                                                  #  ***** S34/35.1 *****
000640:
000641:                                                                                                  #  COMPUTE UNIT NORMAL AND LINE OF SIGHT VECTORS GIVEN THE ACTIVE AND
000642:                                                                                                  #  PASSIVE POS AND VEL AT TIME T3
000643: 36,2000                                           SETLOC   S3435LOC
000644: 36,2000                                           BANK
000645:
000646: 36,2000           52375        S34/35.1           VLOAD    VSU
000647: 36,2001           03554                                    RPASS3
000648: 36,2002           03540                                    RACT3
000649: 36,2003           41456                           UNIT     PUSH
000650: 36,2004           26625                           STOVL    ULOS
000651: 36,2005           03540                                    RACT3
000652: 36,2006           53435                           VXV      UNIT
000653: 36,2007           03546                                    VACT3
000654: 36,2010           02617                           STORE    UNRM
000655: 36,2011           77616                           RVQ
000656:


000658:                                                                                                  #  ***** S34/35.2 *****
000659:
000660:                                                                                                  #  ADVANCE PASSIVE VEH TO RENDEZVOUS TIME AND GET REQ VEL FROM LAMBERT
000661: 35,2000                                           SETLOC   CSI/CDH
000662: 35,2000                                           BANK
000663:
000664: 35,2526           77220        S34/35.2           STQ      VLOAD
000665: 35,2527           02370                                    SUBEXIT
000666: 35,2530           03562                                    VPASS3
000667: 35,2531           65315                           PDVL     PDDL
000668: 35,2532           03554                                    RPASS3
000669: 35,2533           03503                                    INTIME
000670: 35,2534           65325                           PDDL     PDDL
000671: 35,2535           03656                                    TPASS4
000672: 35,2536           33107                                    TWOPI                                 #  CONIC
000673: 35,2537           46125                           PDDL     BHIZ
000674: 35,2540           03766                                    NN
000675: 35,2541           72544                                    S3435.23
000676: 35,2542           65345                           DLOAD    PDDL
000677: 35,2543           15335                                    ZEROVECS                              #  PRECISION
000678: 35,2544           77624        S3435.23           CALL
000679: 35,2545           72705                                    INTINT                                #  GET TARGET VECTOR
000680: 35,2546           27415        S3435.25           STOVL    RTARG
000681: 35,2547           00007                                    VATT
000682: 35,2550           27640                           STOVL    VPASS4
000683: 35,2551           03415                                    RTARG
000684:                                                                                                  #  COMPUTE PHI = PI + (ACOS(UNIT RA.UNIT RP) - PI) SIGN(RA*RP.U)
000685: 35,2552           63256                           UNIT     PDVL                                  #  UNIT RP
000686: 35,2553           03540                                    RACT3
000687: 35,2554           41456                           UNIT     PUSH                                  #  UNIT RA
000688: 35,2555           50235                           VXV      DOT
000689: 35,2556           00001                                    0D
000690: 35,2557           02617                                    UNRM                                  #  RA*RP.U
000691: 35,2560           77715                           PDVL
000692: 35,2561           72441                           DOT      SL1                                   #  UNIT RA.UNIT RP
000693: 35,2562           00001                                    0D
000694: 35,2563           75326                           ACOS     SIGN
000695: 35,2564           43244                           BPL      DAD
000696: 35,2565           72567                                    NOPIE
000697: 35,2566           15343                                    DPPOSMAX                              #  REASONABLE TWO PI
000698: 35,2567           16633        NOPIE              STODL    ACTCENT
000699: 35,2570           03656                                    TPASS4
000700: 35,2571           77625                           DSU
000701: 35,2572           03503                                    INTIME
000702: 35,2573           03423                           STORE    DELLT4
000703: 35,2574           40335                           SLOAD    SETPD
000704: 35,2575           03766                                    NN                                    #  NUMBER OF OFFSETS
000705: 35,2576           00001                                    0D
000706: 35,2577           63325                           PDDL     PDVL
000707: 35,2600           33122                                    EPSFOUR


000709: 35,2601           03540                                    RACT3
000710: 35,2602           27570                           STOVL    RINIT
000711: 35,2603           03546                                    VACT3
000712: 35,2604           37576                           STCALL   VINIT
000713: 35,2605           22000                                    INITVEL
000714: 35,2606           77624                           CALL
000715: 35,2607           72666                                    LOMAT
000716: 35,2610           64375                           VLOAD    MXV
000717: 35,2611           03646                                    DELVEET3
000718: 35,2612           00001                                    0D
000719: 35,2613           77772                           VSL1
000720: 35,2614           37405                           STCALL   DELVLVC
000721: 35,2615           02370                                    SUBEXIT
000722:


000724:                                                                                                  #  ***** S34/35.3 *****
000725:
000726: 35,2616           45020        S34/35.3           STQ      CALL
000727: 35,2617           01340                                    NORMEX
000728: 35,2620           72666                                    LOMAT                                 #  GET MATRIX IN PUSH LIST
000729: 35,2621           61375                           VLOAD    VXM
000730: 35,2622           03405                                    DELVLVC                               #  NEW DEL V TPI
000731: 35,2623           00001                                    0D
000732: 35,2624           77772                           VSL1
000733: 35,2625           03646                           STORE    DELVEET3                              #  SAVE FOR TRANSFORM
000734: 35,2626           63255                           VAD      PDVL
000735: 35,2627           03546                                    VACT3                                 #  NEW V REQ
000736: 35,2630           03540                                    RACT3
000737: 35,2631           65325                           PDDL     PDDL
000738: 35,2632           03413                                    TIG
000739: 35,2633           03656                                    TPASS4
000740: 35,2634           41525                           PDDL     PUSH
000741: 35,2635           15343                                    DPPOSMAX
000742: 35,2636           77624                           CALL                                           #  INTEG. FOR NEW TARGET VEC
000743: 35,2637           72705                                    INTINT
000744: 35,2640           77775                           VLOAD
000745: 35,2641           00001                                    RATT
000746: 35,2642           03415                           STORE    RTARG
000747: 35,2643           41575        NOVRWRT            VLOAD    PUSH
000748: 35,2644           02625                                    ULOS
000749: 35,2645           57435                           VXV      VCOMP
000750: 35,2646           02617                                    UNRM
000751: 35,2647           41456                           UNIT     PUSH
000752: 35,2650           76435                           VXV      VSL1
000753: 35,2651           02625                                    ULOS
000754: 35,2652           77715                           PDVL
000755: 35,2653           64315                           PDVL     MXV
000756: 35,2654           03646                                    DELVEET3
000757: 35,2655           00001                                    0D
000758: 35,2656           77772                           VSL1
000759: 35,2657           36611                           STCALL   DVLOS
000760: 35,2660           01340                                    NORMEX
000761:


000763:                                                                                                  #  ***** S34/35.4 *****
000764:
000765: 35,2661           40220        S34/35.4           STQ      SETPD                                 #  NO ASTRONAUT OVERWRITE
000766: 35,2662           01340                                    NORMEX
000767: 35,2663           00001                                    0D
000768: 35,2664           77650                           GOTO
000769: 35,2665           72643                                    NOVRWRT
000770:


000772:                                                                                                  #  ***** LOMAT *****
000773:
000774: 35,2666           57575        LOMAT              VLOAD    VCOMP
000775: 35,2667           02617                                    UNRM
000776: 35,2670           24007                           STOVL    6D                                    #  Y
000777: 35,2671           03540                                    RACT3
000778: 35,2672           57456                           UNIT     VCOMP
000779: 35,2673           00015                           STORE    12D
000780: 35,2674           76435                           VXV      VSL1
000781: 35,2675           02617                                    UNRM                                  #  Z*-Y
000782: 35,2676           00001                           STORE    0D
000783: 35,2677           43401                           SETPD    RVQ
000784: 35,2700           00023                                    18D
000785: 35,2701           65325        GOINT              PDDL     PDDL                                  #  DO
000786: 35,2702           15335                                    ZEROVECS                              #        NOT
000787: 35,2703           02364                                    NOMTPI
000788: 35,2704           41406                           PUSH     PUSH                                  #                ORDER OR INSERT BEFORE INTINT
000789: 35,2705           45020        INTINT             STQ      CALL
000790: 35,2706           02367                                    RTRN
000791: 35,2707           27442                                    INTSTALL
000792: 35,2710           71214                           CLEAR    DLOAD
000793: 35,2711           01673                                    INTYPFLG
000794: 35,2712           43054                           BZE      SET
000795: 35,2713           72715                                    +2
000796: 35,2714           01473                                    INTYPFLG
000797: 35,2715           45545                           DLOAD    STADR
000798: 35,2716           63736                           STODL    TDEC1
000799: 35,2717           73014                           SET      LXA,2
000800: 35,2720           00063                                    MOONFLAG
000801: 35,2721           03746                                    RTX2
000802: 35,2722           43014                           BON      CLEAR
000803: 35,2723           04303                                    CMOONFLG
000804: 35,2724           72726                                    ALLSET
000805: 35,2725           00263                                    MOONFLAG
000806: 35,2726           25517        ALLSET             STOVL    TET
000807: 35,2727           77657                           VSR*
000808: 35,2730           57176                                    0,2
000809: 35,2731           25535                           STOVL    RCV
000810: 35,2732           77657                           VSR*
000811: 35,2733           57176                                    0,2
000812: 35,2734           35543                           STCALL   VCV
000813: 35,2735           27135                                    INTEGRVS
000814: 35,2736           52175                           VLOAD    GOTO
000815: 35,2737           00001                                    RATT
000816: 35,2740           02367                                    RTRN
000817:


000819:                                                                                                  #  ***** S34/35.5 *****
000820:
000821:                                                                                                  #  SUBROUTINES USED
000822:                                                                                                  #        BANKCALL
000823:                                                                                                  #        GOFLASH
000824:                                                                                                  #        GOTOP00H
000825:                                                                                                  #        S34/35.3
000826:                                                                                                  #        S34.35.4
000827:                                                                                                  #        VNP00H
000828:
000829: 35,2741           43020        S34/35.5           STQ      BON
000830: 35,2742           02370                                    SUBEXIT
000831: 35,2743           01311                                    FINALFLG
000832: 35,2744           72750                                    FLAGON
000833: 35,2745           52014                           SET      GOTO
000834: 35,2746           00470                                    UPDATFLG
000835: 35,2747           72772                                    FLAGOFF
000836: 35,2750           77775        FLAGON             VLOAD
000837: 35,2751           03405                                    DELVLVC
000838: 35,2752           02611                           STORE    DVLOS                                 #  SAVE DELTA V BEFORE DISPLAY
000839: 35,2753           77776                           EXIT
000840: 35,2754           34620                           CAF      V06N81
000841: 35,2755           04575                           TC       VNP00H
000842: 35,2756           06006                           TC       INTPRET
000843: 35,2757           52375                           VLOAD    VSU                                   #  TEST FOR OVERWRITE OF COMPUTED
000844: 35,2760           03405                                    DELVLVC                               #                       DELTA V
000845: 35,2761           02611                                    DVLOS
000846: 35,2762           53046                           ABVAL    BZE
000847: 35,2763           72766                                    NOCHG                                 #  NO OVERWRITE
000848: 35,2764           77624                           CALL
000849: 35,2765           72616                                    S34/35.3
000850: 35,2766           77214        NOCHG              CLEAR    VLOAD
000851: 35,2767           01267                                    XDELVFLG
000852: 35,2770           03646                                    DELVEET3
000853: 35,2771           03646                           STORE    DELVSIN
000854: 35,2772           77624        FLAGOFF            CALL
000855: 35,2773           72661                                    S34/35.4
000856: 35,2774           77776                           EXIT
000857: 35,2775           34617                           CAF      V06N59
000858: 35,2776           04575                           TC       VNP00H
000859: 35,2777           06006                           TC       INTPRET
000860: 35,3000           77650                           GOTO
000861: 35,3001           02370                                    SUBEXIT
000862:


000864:                                                                                                  #  ***** VN1645 *****
000865:
000866:                                                                                                  #  SUBROUTINES USED
000867:                                                                                                  #        P3XORP7X
000868:                                                                                                  #        GET+MGA
000869:                                                                                                  #        BANKCALL
000870:                                                                                                  #        DELAYJOB
000871:                                                                                                  #        COMPTGO
000872:                                                                                                  #        GOFLASHR
000873:                                                                                                  #        GOTOP00H
000874:                                                                                                  #        FLAGUP
000875:
000876: 35,3002           71220        VN1645             STQ      DLOAD
000877: 35,3003           02370                                    SUBEXIT
000878: 35,3004           33120                                    DP-.01
000879: 35,3005           03626                           STORE    +MGA                                  #  MGA = -.01
000880: 35,3006           71214                           BOFF     DLOAD
000881: 35,3007           01351                                    FINALFLG
000882: 35,3010           73030                                    GET45
000883: 35,3011           33120                                    DP-.01
000884: 35,3012           77615                           DAD
000885: 35,3013           33120                                    DP-.01
000886: 35,3014           03626                           STORE    +MGA                                  #  MGA = -.02
000887: 35,3015           77414                           BOFF     EXIT
000888: 35,3016           01742                                    REFSMFLG
000889: 35,3017           73030                                    GET45
000890: 35,3020           03100                           TC       P3XORP7X
000891: 35,3021           03023                           TC       +2                                    #  P3X
000892: 35,3022           03031                           TC       GET45      +1                         #  P7X
000893: 35,3023           06006                           TC       INTPRET
000894: 35,3024           41575                           VLOAD    PUSH
000895: 35,3025           03646                                    DELVSIN
000896: 35,3026           77624                           CALL                                           #  COMPUTE MGA
000897: 35,3027           10654                                    GET+MGA
000898: 35,3030           77776        GET45              EXIT
000899: 35,3031           03304                           TC       COMPTGO                               #  INITIATE TASK TO UPDATE TTOGO
000900: 35,3032           31770                           CA       SUBEXIT
000901: 35,3033           55766                           TS       QSAVED
000902: 35,3034           35041                           CAF      1SEC
000903: 35,3035           04662                           TC       BANKCALL
000904: 35,3036           01732                           CADR     DELAYJOB
000905: 35,3037           34621                           CAF      V16N45                                #  TRKMKCNT, TTOGO, +MGA
000906: 35,3040           04662                           TC       BANKCALL
000907: 35,3041           20720                           CADR     GOFLASH
000908: 35,3042           03045                           TC       KILCLOCK                              #  TERMINATE
000909: 35,3043           03050                           TC       N45PROC                               #  PROCEED
000910: 35,3044           03060                           TC       CLUPDATE                              #  RECYCLE -- RETURN FOR INITIAL COMPUTATION
000911: 35,3045           30005        KILCLOCK           CA       Z
000912: 35,3046           54000                           TS       DISPDEX


000914: 35,3047           04106                           TC       GOTOP00H
000915: 35,3050           40076        N45PROC            CS       FLAGWRD2
000916: 35,3051           75012                           MASK     BIT6
000917: 35,3052           00006                           EXTEND
000918: 35,3053           13045                           BZF      KILCLOCK                              #  FINALFLG IS SET -- FLASH V37 -- AWAIT NEW PGM
000919: 35,3054           05412                           TC       PHASCHNG
000920: 35,3055           04024                           OCT      04024
000921: 35,3056           05546                           TC       UPFLAG                                #  SET
000922: 35,3057           00047                           ADRES    FINALFLG                              #  FINALFLG
000923: 35,3060           30005        CLUPDATE           CA       Z
000924: 35,3061           54000                           TS       DISPDEX
000925: 35,3062           05412                           TC       PHASCHNG
000926: 35,3063           04024                           OCT      04024
000927: 35,3064           06006                           TC       INTPRET
000928: 35,3065           52014                           CLEAR    GOTO
000929: 35,3066           00670                                    UPDATFLG
000930: 35,3067           02366                                    QSAVED
000931:


000933:                                                                                                  #  ***** DISPLAYE *****
000934:
000935:                                                                                                  #  SUBROUTINES USED
000936:                                                                                                  #        BANKCALL
000937:                                                                                                  #        GOFLASHR
000938:                                                                                                  #        GOTOP00H
000939:                                                                                                  #        BLANKET
000940:                                                                                                  #        ENDOFJOB
000941:
000942: 35,3070           00006        DISPLAYE           EXTEND
000943: 35,3071           23340                           QXCH     NORMEX
000944: 35,3072           34615                           CAF      V06N55
000945: 35,3073           04662                           TCR      BANKCALL
000946: 35,3074           20720                           CADR     GOFLASH
000947: 35,3075           14106                           TCF      GOTOP00H
000948: 35,3076           01340                           TC       NORMEX
000949: 35,3077           13072                           TCF      -5
000950:


000952:                                                                                                  #  ***** P3XORP7X *****
000953:
000954: 35,3100           37713        P3XORP7X           CAF      HIGH9
000955: 35,3101           71011                           MASK     MODREG
000956: 35,3102           00006                           EXTEND
000957: 35,3103           13105                           BZF      +2
000958: 35,3104           24002                           INCR     Q
000959: 35,3105           00002                           RETURN
000960:
000961:                                                                                                  #  ***** VNP00H *****
000962:
000963:                                                                                                  #  SUBROUTINES USED
000964:                                                                                                  #        BANKCALL
000965:                                                                                                  #        GOFLASH
000966:                                                                                                  #        GOTOP00H
000967:
000968:    4000                                           SETLOC   P30SUBS
000969:    4000                                           BANK
000970:
000971:    4575           00006        VNP00H             EXTEND
000972:    4576           23767                           QXCH     RTRN
000973:    4577           55765                           TS       VERBNOUN
000974:    4600           34610                           CAF      VNBANK                                #  ***** THIS ROUTINE MUST REMAIN IN
000975:    4601           56004                           XCH      FBANK                                 #        FIXED-FIXED *****
000976:    4602           55063                           TS       TBASE5                                #  * WATCH OUT *
000977:
000978:    4603           31765                           CA       VERBNOUN
000979:    4604           04662                           TCR      BANKCALL
000980:    4605           20720                           CADR     GOFLASH
000981:    4606           14106                           TCF      GOTOP00H
000982:    4607           14611                           TCF      +2
000983:    4610           04603        VNBANK             TC       -5
000984:
000985:    4611           31063                           CA       TBASE5
000986:    4612           54004                           TS       FBANK
000987:    4613           01767                           TC       RTRN
000988:


000990:                                                                                                  #  ***** CONSTANTS *****
000991:
000992:    4614           01445        V06N37             VN       0637
000993:    4615           01467        V06N55             VN       0655
000994:    4616           01472        V06N58             VN       0658
000995:    4617           01473        V06N59             VN       0659
000996:    4620           01521        V06N81             VN       0681
000997:    4621           04055        V16N45             VN       1645
000998: 35,2000                                           SETLOC   CSI/CDH
000999: 35,2000                                           BANK
001000:
001001: 35,3106           14441 37325  TWOPI              2DEC     6.283185307 B-4
001002: 35,3110           00001 20650  MAX250             2DEC     25         E3
001003: 35,3112           12525 12525  THIRD              2DEC     .333333333
001004: 35,3114           00004 21505  ELEPS              2DEC     .27777777  E-3
001005: 35,3116           00002        DECTWO             OCT      2
001006: 35,3117           77777        DP-.01             OCT      77777                                 #  CONSTANTS
001007: 35,3120           61337                           OCT      61337                                 #  ADJACENT      -.01 FOR MGA DSP
001008: 35,3121           01252 25253  EPSFOUR            2DEC     .0416666666
001009:


001011:                                                                                                  #  ***** INITVEL *****
001012:                                                                                                  #  MOD NO -1                     LOG SECTION -- P34-P35, P74-P75
001013:                                                                                                  #  MOD BY WHITE, P.              DATE:  21 NOV 67
001014:
001015:                                                                                                  #  FUNCTIONAL DESCRIPTION
001016:                                                                                                  #        THIS SUBROUTINE COMPUTES THE REQUIRED INITIAL VELOCITY VECTOR FOR
001017:                                                                                                  #        A TRAJECTORY OF SPECIFIC TRANSFER TIME BETWEEN SPECIFIED INITIAL
001018:                                                                                                  #        AND TARGET POSITIONS.  THE TRAJECTORY MAY BE EITHER CONIC OR
001019:                                                                                                  #        PRECISION DEPENDING ON AN INPUT PARAMETER (NAMELY, NUMBER OF
001020:                                                                                                  #        OFFSETS).  IN ADDITION, IN THE PRECISION TRAJECTORY CASE, THE
001021:                                                                                                  #        SUBROUTINE ALSO COMPUTES AN OFFSET TARGET VECTOR, TO BE USED
001022:                                                                                                  #        DURING PURE-CONIC CROSS-PRODUCT STEERING.  THE OFFSET TARGET
001023:                                                                                                  #        VECTOR IS THE TERMINAL POSITION VECTOR OF A CONIC TRAJECTORY WHICH
001024:                                                                                                  #        HAS THE SAME INITIAL STATE AS A PRECISION TRAJECTORY WHOSE
001025:                                                                                                  #        TERMINAL POSITION VECTOR IS THE SPECIFIED TARGET VECTOR.
001026:
001027:                                                                                                  #        IN ORDER TO AVOID THE INHERENT SINGULARITIES IN THE 180 DEGREE
001028:                                                                                                  #        TRANSFER CASE WHEN THE (TRUE OR OFFSET) TARGET VECTOR MAY BE
001029:                                                                                                  #        SLIGHTLYOUT OF THE ORBITAL PLANE, THIS SUBROUTINE ROTATES THIS
001030:                                                                                                  #        VECTOR INTO A PLANE DEFINED BY THE INPUT INITIAL POSITION VECTOR
001031:                                                                                                  #        AND ANOTHER INPUT VECTOR (USUALLY THE INITIAL VELOCITY VECTOR),
001032:                                                                                                  #        WHENEVER THE INPUT TARGET VECTOR LIES INSIDE A CONE WHOSE VERTEX
001033:                                                                                                  #        IS THE ORIGIN OF COORDINATES, WHOSE AXIS IS THE 180 DEGREE
001034:                                                                                                  #        TRANSFER DIRECTION, AND WHOSE CONE ANGLE IS SPECIFIED BY THE USER.
001035:
001036:                                                                                                  #        THE LAMBERT SUBROUTINE IS UTILIZED FOR THE CONIC COMUTATIONS AND
001037:                                                                                                  #        THE COASTING INTEGRATION SUBROUTINE IS UTILIZED FOR THE PRECISION
001038:                                                                                                  #        TRAJECTORY COMPUTATIONS.
001039:
001040:                                                                                                  #  CALLING SEQUENCE
001041:                                                                                                  #        L       CALL
001042:                                                                                                  #        L+1             INITVEL
001043:                                                                                                  #        L+2     (RETURN -- ALWAYS)
001044:
001045:                                                                                                  #  INPUT
001046:                                                                                                  #        (1)     RINIT           INITIAL POSITION RADIUS VECTOR
001047:                                                                                                  #        (2)     VINIT           INITIAL POSITION VELOCITY VECTOR
001048:                                                                                                  #        (3)     RTARG           TARGET POSITION RADIUS VECTOR
001049:                                                                                                  #        (4)     DELLT4          DESIRED TIME OF FLIGHT FROM RINIT TO RTARG
001050:                                                                                                  #        (5)     INTIME          TIME OF RINIT
001051:                                                                                                  #        (6)     0D              NUMBER OF ITERATIONS OF LAMBERT/INTEGRVS
001052:                                                                                                  #        (7)     2D              ANGLE TO 180 DEGREES WHEN ROTATION STARTS
001053:                                                                                                  #        (8)     RTX1            -2 FOR EARTH, -10D FOR LUNAR
001054:                                                                                                  #        (9)     RTX2            COORDINATE SYSTEM ORIGIN -- 0 FOR EARTH, 2 FOR LUNAR
001055:                                                                                                  #        PUSHLOC SET AT 4D
001056:


001058:                                                                                                  #  OUTPUT
001059:                                                                                                  #        (1)     RTARG           OFFSET TARGET POSITION VECTOR
001060:                                                                                                  #        (2)     VIPRIME         MANEUVER VELOCITY REQUIRED
001061:                                                                                                  #        (3)     VTPRIME         VELOCITY AT TARGET AFTER MANEUVER
001062:                                                                                                  #        (4)     DELVEET3        DELTA VELOCITY REQUIRED FOR MANEUVER
001063:
001064:                                                                                                  #  SUBROUTINES USED
001065:                                                                                                  #        LAMBERT
001066:                                                                                                  #        INTSTALL
001067:                                                                                                  #        INTEGRVS
001068:
001069: 11,2000                                           SETLOC   INTVEL
001070: 11,2000                                           BANK
001071:
001072: 11,2000                                           COUNT    11/INITV
001073: 11,2000           77614        INITVEL            SET                                            #  COGA GUESS NOT AVAILABLE
001074: 11,2001           00475                                    GUESSW
001075: 11,2002           44175        HAVEGUES           VLOAD    STQ
001076: 11,2003           03415                                    RTARG
001077: 11,2004           01340                                    NORMEX
001078: 11,2005           03604                           STORE    RTARG1
001079: 11,2006           46135                           SLOAD    BHIZ
001080: 11,2007           03747                                    RTX2
001081: 11,2010           22022                                    INITVEL1
001082: 11,2011           72575                           VLOAD    VSL2
001083: 11,2012           03570                                    RINIT                                 #  B29
001084: 11,2013           27570                           STOVL    RINIT                                 #  B27
001085: 11,2014           03576                                    VINIT                                 #  B7
001086: 11,2015           77752                           VSL2
001087: 11,2016           27576                           STOVL    VINIT                                 #  B5
001088: 11,2017           03604                                    RTARG1
001089: 11,2020           77752                           VSL2
001090: 11,2021           03604                           STORE    RTARG1
001091:
001092:                                                                                                  #  INITIALIZATION
001093:
001094: 11,2022           71331        INITVEL1           SSP      DLOAD                                 #  SET ITCTR TO -1,LOAD MPAC WITH E4 (PL 2D)
001095: 11,2023           03505                                    ITCTR
001096: 11,2024           77776                                    0          -1
001097: 11,2025           70546                           COSINE   SR1                                   #  CALCULATE COSINE (E4) (+2)
001098: 11,2026           17630                           STODL    COZY4                                 #  SET COZY4 TO COSINE (E4) (PL 0D)
001099: 11,2027           67154                           LXA,2    SXA,2
001100: 11,2030           00154                                    MPAC
001101: 11,2031           02703                                    VTARGTAG                              #  SET VTARGTAG TO 0D (SP)
001102: 11,2032           77775                           VLOAD
001103: 11,2033           03570                                    RINIT
001104: 11,2034           26657                           STOVL    R1VEC                                 #  R1VEC EQ RINIT
001105: 11,2035           03604                                    RTARG1


001107: 11,2036           16665                           STODL    R2VEC                                 #  R2VEC EQ RTARG
001108: 11,2037           03423                                    DELLT4
001109: 11,2040           02673                           STORE    TDESIRED                              #  TDESIRED EQ DELLT4
001110: 11,2041           77201                           SETPD    VLOAD
001111: 11,2042           00001                                    0D                                    #  INITIALIZE PL TO 0D
001112: 11,2043           03570                                    RINIT                                 #  MPAC EQ RINIT (+29)
001113: 11,2044           41456                           UNIT     PUSH                                  #  UNIT(RI) (+1)         (PL 6D)
001114: 11,2045           53435                           VXV      UNIT
001115: 11,2046           03576                                    VINIT                                 #  MPAC EQ UNIT(RI) X VI (+8)
001116: 11,2047           26676                           STOVL    UN
001117: 11,2050           03604                                    RTARG1
001118: 11,2051           50256                           UNIT     DOT                                   #  TEMP=URT.URI (+2)     (PL 0D)
001119: 11,2052           43015                           DAD      CLEAR
001120: 11,2053           03630                                    COZY4
001121: 11,2054           03665                                    NORMSW
001122: 11,2055           03630                           STORE    COZY4
001123: 11,2056           43044        INITVEL2           BPL      SET
001124: 11,2057           22101                                    INITVEL3                              #  UN CALCULATED IN LAMBERT
001125: 11,2060           03465                                    NORMSW
001126:
001127:                                                                                                  #  ROTATE RC INTO YC PLANE -- SET UNIT NORMAL TO YC
001128:
001129: 11,2061           41575                           VLOAD    PUSH                                  #                                   (PL 6D)
001130: 11,2062           02665                                    R2VEC                                 #  RC TO 6D (+29)
001131: 11,2063           63246                           ABVAL    PDVL                                  #  RC TO MPAC, ABVAL(RC) (+29) TO OD(PL 2D)
001132: 11,2064           46206                           PUSH     VPROJ                                 #                                   (PL 8D)
001133: 11,2065           02676                                    UN
001134: 11,2066           51352                           VSL2     BVSU
001135: 11,2067           74256                           UNIT     VXSC                                  #                                   (PL 0D)
001136: 11,2070           77772                           VSL1
001137: 11,2071           02665                           STORE    R2VEC
001138: 11,2072           67351                           TLOAD    SLOAD
001139: 11,2073           11566                                    ZEROVEC
001140: 11,2074           03505                                    ITCTR
001141: 11,2075           77244                           BPL      VLOAD
001142: 11,2076           22101                                    INITVEL3
001143: 11,2077           02665                                    R2VEC
001144: 11,2100           03604                           STORE    RTARG1
001145: 11,2101           63345        INITVEL3           DLOAD    PDVL                                  #                                (PL 2D)
001146: 11,2102           27735                                    MUEARTH                               #  POSITIVE VALUE
001147: 11,2103           02665                                    R2VEC
001148: 11,2104           63256                           UNIT     PDVL                                  #  2D = UNIT(R2VEC)              (PL 8D)
001149: 11,2105           02657                                    R1VEC
001150: 11,2106           41456                           UNIT     PUSH                                  #  8D = UNIT(R1VEC)              (PL 14D)
001151: 11,2107           57435                           VXV      VCOMP                                 #  -N = UNIT(R2VEC) X UNIT(R1VEC)
001152: 11,2110           00003                                    2D
001153: 11,2111           77606                           PUSH                                           #                                (PL 20D)
001154: 11,2112           71350                           LXA,1    DLOAD
001155: 11,2113           03745                                    RTX1
001156: 11,2114           00023                                    18D
001157: 11,2115           62040                           BMN      INCR,1


001159: 11,2116           22120                                    +2
001160: 11,2117           77767                           DEC      -8         B-14
001161: 11,2120           67310                           INCR,1   SLOAD
001162: 11,2121           00012                                    10D
001163: 11,2122           00047                                    X1
001164: 11,2123           77230                           BHIZ     VLOAD                                 #                        (PL 14D)
001165: 11,2124           22126                                    +2
001166: 11,2125           41476                           VCOMP    PUSH                                  #                        (PL 20 D)
001167: 11,2126           77775                           VLOAD                                          #                        (PL 14D)
001168: 11,2127           50235                           VXV      DOT                                   #                        (PL 2D)
001169: 11,2130           71244                           BPL      DLOAD                                 #                        (PL 0D)
001170: 11,2131           22133                                    INITVEL4
001171: 11,2132           41476                           DCOMP    PUSH                                  #                        (PL 2D)
001172: 11,2133           67154        INITVEL4           LXA,2    SXA,2
001173: 11,2134           00000                                    0D
001174: 11,2135           02674                                    GEOMSGN
001175:
001176:                                                                                                  #  SET INPUTS UP FOR LAMBERT
001177:
001178: 11,2136           45150                           LXA,1    CALL
001179: 11,2137           03745                                    RTX1
001180:                                                                                                  #   OPERATE THE LAMBERT CONIC ROUTINE (COASTFLT SUBROUTINE)
001181:
001182: 11,2140           25224                                    LAMBERT
001183:
001184:                                                                                                  #  ARRIVED AT SOLUTION IS GOOD ENOUGH ACCORDING TO SLIGHTLY WIDER BOUNDS.
001185:
001186: 11,2141           77214                           CLEAR    VLOAD
001187: 11,2142           00675                                    GUESSW
001188: 11,2143           02746                                    VVEC
001189:
001190:                                                                                                  #  STORE CALCULATED INITIAL VELOCITY REQUIRED IN VIPRIME
001191:
001192: 11,2144           17612                           STODL    VIPRIME                               #  INITIAL VELOCITY REQUIRED (+7)
001193:
001194:                                                                                                  #  IF NUMIT IS ZERO, CONTINUE AT INITVELB, OTHERWISE
001195:                                                                                                  #  SET UP INPUTS FOR ENCKE INTEGRATION (INTEGRVS).
001196:
001197: 11,2145           02704                                    VTARGTAG
001198: 11,2146           45030                           BHIZ     CALL
001199: 11,2147           22224                                    INITVEL7
001200: 11,2150           27442                                    INTSTALL
001201: 11,2151           43135                           SLOAD    CLEAR
001202: 11,2152           03747                                    RTX2
001203: 11,2153           00263                                    MOONFLAG
001204: 11,2154           43030                           BHIZ     SET
001205: 11,2155           22157                                    INITVEL5
001206: 11,2156           00063                                    MOONFLAG
001207: 11,2157           77775        INITVEL5           VLOAD
001208: 11,2160           03570                                    RINIT
001209: 11,2161           02657                           STORE    R1VEC


001211: 11,2162           25535                           STOVL    RCV
001212: 11,2163           03612                                    VIPRIME
001213: 11,2164           15543                           STODL    VCV
001214: 11,2165           03503                                    INTIME
001215: 11,2166           01517                           STORE    TET
001216: 11,2167           43015                           DAD      CLEAR
001217: 11,2170           03423                                    DELLT4
001218: 11,2171           01673                                    INTYPFLG
001219: 11,2172           34041                           STCALL   TDEC1
001220: 11,2173           27135                                    INTEGRVS
001221: 11,2174           77775                           VLOAD
001222: 11,2175           00025                                    VATT1
001223: 11,2176           02705                           STORE    VTARGET
001224:
001225:                                                                                                  #  IF ITERATION COUNTER (ITCTR) EQ NO. ITERATIONS (NUMIT), CONTINUE AT
001226:                                                                                                  #  INITVELC, OTHERWISE REITERATE LAMBERT AND ENCKE
001227:
001228: 11,2177           63154                           LXA,2    INCR,2
001229: 11,2200           03504                                    ITCTR
001230: 11,2201           00001                                    1D                                    #  INCREMENT ITCTR
001231: 11,2202           55134                           SXA,2    XSU,2
001232: 11,2203           03504                                    ITCTR
001233: 11,2204           02703                                    VTARGTAG
001234: 11,2205           46135                           SLOAD    BHIZ                                  #  IF SP(MPAC) EQ 0, CONTINUE AT INITVELC
001235: 11,2206           00050                                    X2
001236: 11,2207           22221                                    INITVEL6
001237:
001238:                                                                                                  #  OFFSET CONIC TARGET VECTGOR
001239:
001240: 11,2210           52375                           VLOAD    VSU
001241: 11,2211           03604                                    RTARG1
001242: 11,2212           00017                                    RATT1
001243: 11,2213           77655                           VAD
001244: 11,2214           02665                                    R2VEC
001245: 11,2215           16665                           STODL    R2VEC
001246: 11,2216           03630                                    COZY4
001247: 11,2217           77650                           GOTO
001248: 11,2220           22056                                    INITVEL2                              #  CONTINUE ITERATING AT INITVEL2
001249:
001250:                                                                                                  #  COMPUTE THE DELTA VELOCITY
001251:
001252: 11,2221           77775        INITVEL6           VLOAD
001253: 11,2222           02665                                    R2VEC
001254: 11,2223           03604                           STORE    RTARG1
001255: 11,2224           52375        INITVEL7           VLOAD    VSU
001256: 11,2225           03612                                    VIPRIME
001257: 11,2226           03576                                    VINIT
001258: 11,2227           27646                           STOVL    DELVEET3                              #  DELVEET3 = VIPRIME-VINIT (+7)
001259: 11,2230           02705                                    VTARGET
001260: 11,2231           03620                           STORE    VTPRIME
001261: 11,2232           46135                           SLOAD    BHIZ
001262: 11,2233           03747                                    RTX2


001264: 11,2234           22251                                    INITVELX
001265: 11,2235           70575                           VLOAD    VSR2
001266: 11,2236           03620                                    VTPRIME
001267: 11,2237           27620                           STOVL    VTPRIME
001268: 11,2240           03612                                    VIPRIME
001269: 11,2241           77742                           VSR2
001270: 11,2242           27612                           STOVL    VIPRIME
001271: 11,2243           03604                                    RTARG1
001272: 11,2244           77742                           VSR2
001273: 11,2245           27604                           STOVL    RTARG1
001274: 11,2246           03646                                    DELVEET3
001275: 11,2247           77742                           VSR2
001276: 11,2250           03646                           STORE    DELVEET3
001277: 11,2251           77201        INITVELX           SETPD    VLOAD
001278: 11,2252           00001                                    0D
001279: 11,2253           03604                                    RTARG1
001280: 11,2254           37415                           STCALL   RTARG
001281: 11,2255           01340                                    NORMEX
001282:
001283:                                                                                                  #  ***** END OF INITVEL ROUTINE *****
001284:


001286:                                                                                                  #  ***** MIDGIM *****
001287:                                                                                                  #  MOD NO. 0, BY WILLMAN, SUBROUTINE RENDGUID, LOG P34-P35, P74-P75
001288:                                                                                                  #  REVISION 03, 17 FEB 67
001289:
001290:                                                                                                  #  IF THE ACTIVE VEHICLE IS DOING THE COMPUTATION, MIDGIM COMPUTES
001291:                                                                                                  #  THE POSITIVE MIDDLE GIMBAL ANGLE OF THE ACTIVE VEHICLE TO THE INPUT
001292:                                                                                                  #  DELTA VELOCITY VECTOR (0D IN PUSY LIST), OTHERWISE
001293:                                                                                                  #  MIDGIM CONVERTS THE INPUT DELTA VELOCITY VECTOR FROM INERTIAL COORDIN-
001294:                                                                                                  #  ATES TO LOCAL VERTICAL COORDINATES OF THE ACTIVE VEHICLE.
001295:
001296:                                                                                                  #  ** INPUTS **
001297:                                                                                                  #    NAME     MEANING                                            UNITS/SCALING/MODE
001298:                                                                                                  #    AVFLAG   INT FLAG -- 0 IS CSM ACTIVE, 1 IS LEM ACTIVE       BIT
001299:                                                                                                  #    COMPUTER INT FLAG -- 0 IS LEM COMPUTER, 1 IS CSM COMPUTER   BIT
001300:                                                                                                  #    RINIT    ACTIVE VEHICLE RADIUS VECTOR                       METERS/CSEC (+7) VT
001301:                                                                                                  #    VINIT    ACTIVE VEHICLE VELOCITY VECTOR                     METERS/CSEC (+7) VT
001302:                                                                                                  #    0D(PL)   ACTIVE VEHICLE DELTA VELOCITY VECTOR               METERS/CSEC (+7) VT
001303:
001304:                                                                                                  #  ** OUTPUTS **
001305:                                                                                                  #    NAME     MEANING                                            UNITS/SCALING/MODE
001306:                                                                                                  #    +MGA     + MIDDLE GIMBAL ANGLE                              REVOLUTIONS (+0) DP
001307:                                                                                                  #    DELVLVC  DELTA VELOCITY VECTOR IN LV COORD.                 METERS/CSEC (+7) VT
001308:                                                                                                  #    MGLVFLAG INT FLAG: 0 IS +MGA COMUTED, 1 IS DELVLVC COMP.    BIT
001309:
001310:                                                                                                  #  ** CALLING SEQUENCE **
001311:                                                                                                  #        L       CALL
001312:                                                                                                  #        L+1             MIDGIM
001313:                                                                                                  #        L+2     (RETURN -- ALWAYS)
001314:
001315:                                                                                                  #  ** NO SUBROUTINES CALLED **
001316:
001317:                                                                                                  #  ** DEBRIS -- ERASABLE TEMPORARY USAGE **
001318:                                                                                                  #        A,Q,L, PUSH LIST, MPAC.
001319:
001320:                                                                                                  #  ** ALARMS -- NONE **
001321:


001323:                                                                                                  #  MIDDLE GIMBAL ANGLE COMPUTATION
001324: 04,2000                                           SETLOC   MIDDGIM
001325: 04,2000                                           BANK
001326:
001327: 04,2645                                           COUNT*   $$/MIDG
001328:
001329: 04,2645           20000 00000  HALFREV            2DEC     1          B-1
001330:
001331: 04,2647           43014        MIDGIM             BON      BOFF
001332: 04,2650           01312                                    AVFLAG
001333: 04,2651           10667                                    MIDGIM1
001334: 04,2652           02747                                    COMPUTER
001335: 04,2653           10672                                    GET.LVC
001336:
001337:                                                                                                  #  COMPUTE +MGA IF AVFLAG AND COMPUTER HAVE OPPOSITE VALUES.
001338:
001339: 04,2654           53575        GET+MGA            VLOAD    UNIT                                  #  (PL 0D) V (+7) TO MPAC UNITIZE UV (+1)
001340: 04,2655           72441                           DOT      SL1                                   #  DOT UV WITH Y(STABLE MEMBER) AND RESCALE
001341: 04,2656           01744                                    REFSMMAT   +6                         #  FROM +2 TO +1 FOR ASIN ROUTINE
001342: 04,2657           51136                           ARCSIN   BPL
001343: 04,2660           10664                                    SETMGA
001344: 04,2661           43215                           DAD      DAD                                   #  CONVERT -MGA TO +MGA BY
001345: 04,2662           10646                                    HALFREV                               #  ADDING ONE REVOLUTION
001346: 04,2663           10646                                    HALFREV
001347: 04,2664           03626        SETMGA             STORE    +MGA
001348: 04,2665           43414                           CLR      RVQ                                   #  CLEAR MGLVFLAG TO INDICATE +MGA CALC
001349: 04,2666           02675                                    MGLVFLAG                              #  AND EXIT
001350:
001351: 04,2667           77614        MIDGIM1            BOFF
001352: 04,2670           02747                                    COMPUTER
001353: 04,2671           10654                                    GET+MGA
001354:
001355:                                                                                                  #  COMPUTE DELVLVC IF AVFLAG AND COMPUTER HAVE SAME VALUES
001356:
001357: 04,2672           53575        GET.LVC            VLOAD    UNIT                                  #  (PL 6D) R (+29) IN MPAC UNITZE UR
001358: 04,2673           03570                                    RINIT
001359: 04,2674           77676                           VCOMP                                          #  U(-R)
001360: 04,2675           00023                           STORE    18D                                   #  U(-R) TO 18D
001361: 04,2676           53435                           VXV      UNIT                                  #  U(-R)*V EQ V*U(R), U(V*R)
001362: 04,2677           03576                                    VINIT
001363: 04,2700           00015                           STORE    12D                                   #  U(V*R) TO 12D
001364: 04,2701           53435                           VXV      UNIT                                  #  U(V*R)*U(-R), U((V*R)*(-R))
001365: 04,2702           00023                                    18D
001366: 04,2703           24007                           STOVL    6D                                    #  TRANSFORMATION MATRIX IS IN 6D (+1)
001367: 04,2704           00001                                    0D                                    #  DELTA V (+7) IN 0D
001368: 04,2705           76521                           MXV      VSL1                                  #  CONVERT FROM INER COOR TO LV COOR (+8)
001369: 04,2706           00007                                    6D                                    #  AND SCALE +7 IN MPAC
001370: 04,2707           03405                           STORE    DELVLVC                               #  STORE IN DELVLVC (+7(
001371: 04,2710           43414                           SET      RVQ                                   #  SET MGLVFLAG TO INDICATE LVC CALC
001372: 04,2711           02475                                    MGLVFLAG                              #  AND EXIT
001373:
001374:                                                                                                  #  ***** END OF MIDGIM ROUTINE *****
001375:


001377: 04,2712           77160        SELECTMU           AXC,1    AXT,2
001378: 04,2713           00002                                    2D
001379: 04,2714           00000                                    0D
001380: 04,2715           77614                           BOFF
001381: 04,2716           04343                                    CMOONFLG
001382: 04,2717           10723                                    SETMUER
001383: 04,2720           77160                           AXC,1    AXT,2
001384: 04,2721           00012                                    10D
001385: 04,2722           00002                                    2D
001386: 04,2723           66143        SETMUER            DLOAD*   SXA,1
001387: 04,2724           11744                                    MUTABLE    +4,1
001388: 04,2725           03745                                    RTX1
001389: 04,2726           23752                           STODL*   RTSR1/MU
001390: 04,2727           11736                                    MUTABLE    -2,1
001391: 04,2730           54214                           BOFF     SR
001392: 04,2731           04343                                    CMOONFLG
001393: 04,2732           10734                                    RTRNMU
001394: 04,2733           20607                                    6D
001395: 04,2734           03750        RTRNMU             STORE    RTMU
001396: 04,2735           43134                           SXA,2    CLEAR
001397: 04,2736           03746                                    RTX2
001398: 04,2737           01271                                    FINALFLG
001399: 04,2740           77650                           GOTO
001400: 04,2741           73002                                    VN1645
001401:


001403:                                                                                                  #  ***** PERIAPO *****
001404:                                                                                                  #  MOD NO -1                     LOG SECTION -- P34-P35, P74-P75
001405:                                                                                                  #  MOD BY WHITE, P.              DATE 18 JAN 68
001406:
001407:                                                                                                  #  FUNCTIONAL DESCRIPTION
001408:                                                                                                  #        THIS SUBROUTINE COMPUTES THE TWO BODY APOCENTER AND PERICENTER
001409:                                                                                                  #        ALTITUDES GIVEN THE POSITION AND VELOCITY VECTORS FOR A POINT ON
001410:                                                                                                  #        THE TRAJECTORY AND THE PRIMARY BODY.
001411:
001412:                                                                                                  #        SETRAD IS CALLED TO DETERMINE THE RADIUS OF THE PRIMARY BODY.
001413:
001414:                                                                                                  #        APSIDES IS CALLED TO SOVE FOR THE TWO BODY RADII OF APOCENTER AND
001415:                                                                                                  #        PERICENTER AND THE ECCENTRICITY OF THE TRAJECTORY.
001416:
001417:                                                                                                  #  CALLING SEQUENCE
001418:                                                                                                  #        L       CALL
001419:                                                                                                  #        L+1             PERIAPO
001420:                                                                                                  #        L+2     (RETURN -- ALWAYS)
001421:
001422:                                                                                                  #  INPUT
001423:                                                                                                  #        (1)     RVEC    POSITION VECTOR IN METERS
001424:                                                                                                  #                        SCALE FACTOR -- EARTH +29, MOON +27
001425:                                                                                                  #        (2)     VVEC    VELOCITY VECTORY IN METERS/CENTISECOND
001426:                                                                                                  #                        SCALE FACTOR -- EARTH +7, MOON +5
001427:                                                                                                  #        (3)     X1      PRIMARY BODY INDICATOR
001428:                                                                                                  #                        EARTH -2, MOON -10
001429:
001430:                                                                                                  #  OUTPUT
001431:                                                                                                  #        (1)     2D      APOCENTER RADIUS IN METERS
001432:                                                                                                  #                        SCALE FACTOR -- EARTH +29, MOON +27
001433:                                                                                                  #        (2)     4D      APOCENTER ALTITUDE IN METERS
001434:                                                                                                  #                        SCALE FACTOR -- EARTH +29, MOON +27
001435:                                                                                                  #        (3)     6D      PERICENTER RADIUS IN METERS
001436:                                                                                                  #                        SCALE FACTOR -- EARTH +29, MOON +27
001437:                                                                                                  #        (4)     8D      PERICENTER ALTITUDE IN METERS
001438:                                                                                                  #                        SCALE FACTOR -- EARTH +29, MOON +27
001439:                                                                                                  #        (5)     ECC     ECCENTRICITY OF CONIC TRAJECTORY
001440:                                                                                                  #                        SCALE FACTOR -- +3
001441:                                                                                                  #        (6)     XXXALT  RADIUS OF THE PRIMARY BODY IN METERS
001442:                                                                                                  #                        SCALE FACTOR -- EARTH +29, MOON +27
001443:                                                                                                  #        (7)     PUSHLOC EQUALS 10D
001444:
001445:                                                                                                  #  SUBROUTINES USED
001446:                                                                                                  #        SETRAD


001448:                                                                                                  #        APSIDES
001449:
001450: 22,2000                                           SETLOC   APOPERI
001451: 22,2000                                           BANK
001452:
001453: 22,3151                                           COUNT*   $$/PERAP
001454:
001455: 22,3151           00302 17755  RPAD               2DEC     6373338    B-29                       #  STANDARD RADIUS OF PAD 37-B.
001456:                                                                                                  #  = 20 909 901.57 FT
001457:
001458: 22,3153           53754        PERIAPO1           LXA,2    VSR*
001459: 22,3154           03746                                    RTX2
001460: 22,3155           57176                                    0,2
001461: 22,3156           26746                           STOVL    VVEC
001462: 22,3157           53750                           LXA,1    VSR*
001463: 22,3160           03745                                    RTX1
001464: 22,3161           57176                                    0,2
001465: 22,3162           02657                           STORE    RVEC
001466: 22,3163           45020        PERIAPO            STQ      CALL
001467: 22,3164           01340                                    NORMEX
001468: 22,3165           45201                                    SETRAD
001469: 22,3166           37456                           STCALL   XXXALT
001470: 22,3167           25703                                    APSIDES
001471: 22,3170           41401                           SETPD    PUSH                                  #  2D = APOCENTER RADIUS         B29 OR B27
001472: 22,3171           00003                                    2D
001473: 22,3172           65225                           DSU      PDDL                                  #  4D = APOGEE ALTITUDE          B29 OR B27
001474: 22,3173           03456                                    XXXALT
001475: 22,3174           00001                                    0D
001476: 22,3175           45206                           PUSH     DSU                                   #  6D = PERICENTER RADIUS        B29 OR B27
001477: 22,3176           03456                                    XXXALT
001478: 22,3177           52006                           PUSH     GOTO                                  #  8D = PERIGEE ALTITUDE         B29 OR B27
001479: 22,3200           01340                                    NORMEX


001481:                                                                                                  #  SETRAD
001482: 22,3201           41545        SETRAD             DLOAD    PUSH
001483: 22,3202           05152                                    RPAD
001484: 22,3203           63130                           SXA,1    INCR,2
001485: 22,3204           00047                                    X2
001486: 22,3205           00002                                    2D
001487: 22,3206           46135                           SLOAD    BHIZ
001488: 22,3207           00050                                    X2
001489: 22,3210           45214                                    SETRADX
001490: 22,3211           51575                           VLOAD    ABVAL
001491: 22,3212           02026                                    RLS
001492: 22,3213           77725                           PDDL
001493: 22,3214           43545        SETRADX            DLOAD    RVQ
001494:


001496:                                                                                                  #  PRECSET
001497: 22,3215           77620        PRECSET            STQ
001498: 22,3216           01340                                    NORMEX
001499: 22,3217           36635                           STCALL   TDEC2
001500: 22,3220           27105                                    LEMPREC
001501: 22,3221           77624                           CALL
001502: 22,3222           45233                                    LEMSTORE
001503: 22,3223           77745                           DLOAD
001504: 22,3224           02635                                    TDEC2
001505: 22,3225           34041                           STCALL   TDEC1
001506: 22,3226           27071                                    CSMPREC
001507: 22,3227           77624                           CALL
001508: 22,3230           45243                                    CSMSTORE
001509: 22,3231           77650                           GOTO
001510: 22,3232           01340                                    NORMEX
001511: 22,3233           43175        LEMSTORE           VLOAD    BOFF
001512: 22,3234           00001                                    RATT
001513: 22,3235           01352                                    AVFLAG
001514: 22,3236           45247                                    PASSIVE
001515: 22,3237           27540        ACTIVE             STOVL    RACT3
001516: 22,3240           00007                                    VATT
001517: 22,3241           03546                           STORE    VACT3
001518: 22,3242           77616                           RVQ
001519: 22,3243           43175        CSMSTORE           VLOAD    BOFF
001520: 22,3244           00001                                    RATT
001521: 22,3245           01352                                    AVFLAG
001522: 22,3246           45237                                    ACTIVE
001523: 22,3247           27554        PASSIVE            STOVL    RPASS3
001524: 22,3250           00007                                    VATT
001525: 22,3251           03562                           STORE    VPASS3
001526: 22,3252           77616                           RVQ
001527:


001529:                                                                                                  #  VECSHIFT
001530: 22,3253           53754        VECSHIFT           LXA,2    VSR*
001531: 22,3254           03746                                    RTX2
001532: 22,3255           57176                                    0,2
001533: 22,3256           63350                           LXA,1    PDVL
001534: 22,3257           03745                                    RTX1
001535: 22,3260           63257                           VSR*     PDVL
001536: 22,3261           57176                                    0,2
001537: 22,3262           77616                           RVQ
001538:


001540:                                                                                                  #  SHIFTR1
001541: 22,3263           53754        SHIFTR1            LXA,2    SL*
001542: 22,3264           03746                                    RTX2
001543: 22,3265           57576                                    0,2
001544: 22,3266           77616                           RVQ
001545:


001547:                                                                                                  #  PROGRAM DESCRIPTION
001548:
001549:                                                                                                  #  SUBROUTINE NAME       R36     OUT-OF-PLANE RENDEZVOUS ROUTINE
001550:                                                                                                  #  MOD NO. 2             DATE 2 JANUARY 1969
001551:                                                                                                  #  MOD BY A.W.BANCROFT   LOG SECTION EXTENDED VERBS
001552:
001553:                                                                                                  #  FUNCTIONAL DESCRIPTION
001554:
001555:                                                                                                  #  TO DISPLAY AT ASTRONAUT REQUEST LGC CALCULATED RENDEZVOUS
001556:                                                                                                  #  OUT-OF-PLANE PARAMETERS (Y, YDOT, PSI).  (REQUESTED BY DSKY).
001557:
001558:                                                                                                  #  CALLING SEQUENCE
001559:                                                                                                  #        ASTRONAUT REQUEST THROUGH DSKY V 90 E
001560:
001561:                                                                                                  #  SUBROUTINES CALLED
001562:                                                                                                  #        EXDSPRET
001563:                                                                                                  #        GOMARKF
001564:                                                                                                  #        CSMPREC
001565:                                                                                                  #        LEMPREC
001566:                                                                                                  #        SGNAGREE
001567:                                                                                                  #        LOADTIME
001568:
001569:                                                                                                  #  NORMAL EXIT MODES
001570:                                                                                                  #        ASTRONAUT REQUEST THROUGH DSKY TO TERMINATE PROGRAM V 34 E
001571:
001572:                                                                                                  #  ALARM OR ABORT EXIT MODES
001573:                                                                                                  #        NONE
001574:
001575:                                                                                                  #  OUTPUT
001576:                                                                                                  #        DECIMAL DISPLAY OF TIME, Y, YDOT AND PSI
001577:
001578:                                                                                                  #        DISPLAYED VALUES Y, YDOT, AND PSI, ARE STORED IN ERASABLE
001579:                                                                                                  #        REGISTERS RANGE, RRATE, AND RTHETA RESPECTIVELY.
001580:
001581:                                                                                                  #  ERASABLE INITIALIZATION REQUIRED
001582:                                                                                                  #        CSM AND LEM STATE VECTORS
001583:
001584:                                                                                                  #  DEBRIS
001585:                                                                                                  #        CENTRALS A,Q,L
001586:                                                                                                  #        OTHER:  THOSE USED BY THE ABOVE LISTED SUBROUTINES
001587:
001588: 20,2164                                           BANK     20
001589: 20,2000                                           SETLOC   R36CM
001590: 20,2000                                           BANK


001592: 20,2164  E4,1726                                  EBANK=   RPASS36
001593:
001594: 20,2164  41,3727                                  SBANK=   R36A
001595: 20,2164                                           COUNT*   $$/R36
001596:
001597: 20,2164           35016        R36                CAF      TWO
001598: 20,2165           55051                           TS       OPTIONX
001599: 20,2166           35017                           CAF      ONE
001600: 20,2167           55052                           TS       OPTIONX    +1
001601: 20,2170           32200                           CAF      OPTION36                              #  V 04 N 12
001602: 20,2171           04662                           TC       BANKCALL
001603: 20,2172           20561                           CADR     GOXDSPF
001604: 20,2173           05534                           TC       ENDEXT                                #  TERMINATE
001605: 20,2174           02176                           TC       +2                                    #  PROCEED
001606: 20,2175           02170                           TC       -5                                    #  R2 LOADED VIA DSKY
001607: 20,2176           04701                           TC       POSTJUMP
001608: 20,2177           63727                           CADR     R36A
001609:
001610: 20,2200           01014        OPTION36           VN       0412
001611:
001612: 41,2000                                           SETLOC   R36LM
001613: 41,2000                                           BANK
001614:
001615: 41,3727           22007        R36A               ZL
001616: 41,3730           35021                           CAF      ZERO                                  #  SET TIME OF EVENT TO ZERO FOR FIRST
001617: 41,3731           53052                           DXCH     DSPTEMX                               #  DISPLAY
001618: 41,3732           23742                           LXCH     OPTIONY                               #  SAVE VEH. OPTION
001619: 41,3733           33775        R36P3              CAF      V06N16N
001620: 41,3734           04662                           TC       BANKCALL
001621: 41,3735           20561                           CADR     GOMARKF
001622: 41,3736           15534                           TCF      ENDEXT                                #  TERMINATE
001623: 41,3737           13741                           TCF      +2                                    #  PROCEED
001624: 41,3740           13733                           TCF      -5                                    #  RECYCLE FOR ASTRONAUT INPUT TIME
001625: 41,3741           53052                           DXCH     DSPTEMX
001626: 41,3742           00006                           EXTEND
001627: 41,3743           13764                           BZF      LREGCHK                               #  A-REG ZERO GOTO CHECK L-REG FOR ZERO
001628: 41,3744           52155        ASTROTIM           DXCH     MPAC                                  #  A-REG NON-ZERO, TIME = ASTRO INPUT TIME
001629: 41,3745           06006                           TC       INTPRET
001630: 41,3746           52034                           RTB      GOTO
001631: 41,3747           45716                                    DPMODE
001632: 41,3750           65521                                    R36INT
001633:
001634: 42,2000                                           SETLOC   R36LM1
001635: 42,2000                                           BANK
001636:
001637: 42,3521           00041        R36INT             STORE    TDEC1
001638: 42,3522           70535                           SLOAD    SR1
001639: 42,3523           02343                                    OPTIONY
001640: 42,3524           45030                           BHIZ     CALL
001641: 42,3525           65531                                    R36PROG2                              #  FOR CSM DISPLAY


001643: 42,3526           27071                                    THISPREC                              #  FOR LEM DISPLAY
001644: 42,3527           77650                           GOTO
001645: 42,3530           65533                                    R36PROG3
001646: 42,3531           77624        R36PROG2           CALL
001647: 42,3532           27105                                    OTHPREC
001648: 42,3533           63375        R36PROG3           VLOAD    PDVL
001649: 42,3534           00007                                    VATT
001650: 42,3535           00001                                    RATT                                  #  _
001651: 42,3536           02327                           STORE    RPASS36                               #  R
001652: 42,3537           63256                           UNIT     PDVL                                  #   P
001653: 42,3540           53435                           VXV      UNIT                                  #  -
001654: 42,3541           77626                           STADR
001655: 42,3542           61442                           STODL    UNP36                                 #  U
001656: 42,3543           00015                                    TAT
001657: 42,3544           00041                           STORE    TDEC1
001658: 42,3545           70535                           SLOAD    SR1
001659: 42,3546           02343                                    OPTIONY
001660: 42,3547           45030                           BHIZ     CALL
001661: 42,3550           65554                                    R36PROG4                              #  FOR CSM DISPLAY
001662: 42,3551           27105                                    OTHPREC                               #  FOR LEM DISPLAY
001663: 42,3552           77650                           GOTO
001664: 42,3553           65556                                    R36PROG5
001665: 42,3554           77624        R36PROG4           CALL
001666: 42,3555           27071                                    THISPREC
001667: 42,3556           63375        R36PROG5           VLOAD    PDVL                                  #                        _
001668: 42,3557           00007                                    VATT                                  #  VELOCITY VECTOR       V       00D
001669: 42,3560           00001                                    RATT                                  #                         A
001670: 42,3561           77725                           PDDL
001671: 42,3562           00015                                    TAT                                   #  SAVE TIME IN LOCATION 30D FOR REDISPLAY
001672: 42,3563           24037                           STOVL    30D                                   #                        _
001673: 42,3564           41406                           PUSH     PUSH                                  #  POSITION VECTOR       R   IN  06D AND 12D
001674: 42,3565           63245                           BVSU     PDVL                                  #                        _A  _
001675: 42,3566           02327                                    RPASS36                               #  LINE OF SIGHT VECTOR  R - R   12D
001676: 42,3567           72441                           DOT      SL1                                   #                         P   A
001677: 42,3570           02335                                    UNP36                                 #      _   _
001678: 42,3571           26321                           STOVL    RANGE                                 #  Y = U . R
001679: 42,3572           00001                                    00D                                   #           A
001680: 42,3573           72441                           DOT      SL1
001681: 42,3574           02335                                    UNP36                                 #  .   _   _
001682: 42,3575           26323                           STOVL    RRATE                                 #  Y = U . V
001683: 42,3576           00007                                    06D                                   #  _        A
001684: 42,3577           41456                           UNIT     PUSH                                  #  U  = UNIT ( R  )              18D
001685: 42,3600           47235                           VXV      VXV                                   #   RA          A
001686: 42,3601           00001                                    00D                                   #   _    _     _     _
001687: 42,3602           00023                                    18D                                   #  (U  X V ) X U   = U
001688: 42,3603           53552                           VSL2     UNIT                                  #    RA   A     RA    A
001689: 42,3604           52056                           UNIT     GOTO
001690: 42,3605           61600                                    R36B
001691:
001692: 40,2000                                           SETLOC   R36CM1


001694: 40,2000                                           BANK
001695:
001696: 40,3600           24001        R36B               STOVL    00D                                   #  UNIT HORIZONTAL IN FORWARD DIR. 00D
001697: 40,3601           00023                                    18D
001698: 40,3602           74241                           DOT      VXSC                                  #  _
001699: 40,3603           00015                                    12D                                   #  U
001700: 40,3604           77752                           VSL2                                           #   L
001701: 40,3605           53445                           BVSU     UNIT
001702: 40,3606           77656                           UNIT
001703: 40,3607           50206                           PUSH     DOT                                   #  LOS PROJECTED INTO HORIZONTAL  12D
001704: 40,3610           00001                                    00D                                   #  PLANE
001705: 40,3611           65552                           SL1      ARCCOS                                #               _   _
001706: 40,3612           26325                           STOVL    RTHETA                                #  PSI = ARCCOS(U . U )
001707: 40,3613           50235                           VXV      DOT                                   #                A   L
001708: 40,3614           00001                                    00D
001709: 40,3615           71244                           BPL      DLOAD
001710: 40,3616           63751                                    R36TAG2
001711: 40,3617           15343                                    DPPOSMAX
001712: 40,3620           77625                           DSU
001713: 40,3621           02325                                    RTHETA
001714: 40,3622           36325                           STCALL   RTHETA
001715: 40,3623           63751                                    R36TAG2
001716:
001717: 41,2000                                           SETLOC   R36LM
001718: 41,2000                                           BANK
001719:
001720: 41,3751           47145        R36TAG2            DLOAD    RTB
001721: 41,3752           00037                                    30D
001722: 41,3753           45544                                    SGNAGREE
001723: 41,3754           01052                           STORE    DSPTEMX
001724: 41,3755           77776                           EXIT
001725: 41,3756           33776                           CAF      V06N90N                               #  DISPLAY Y, YDOT, AND PSI.
001726: 41,3757           04662                           TC       BANKCALL
001727: 41,3760           20561                           CADR     GOMARKF
001728: 41,3761           15534                           TCF      ENDEXT                                #  TERMINATE
001729: 41,3762           15534                           TCF      ENDEXT                                #  PROCEED, END OF PROGRAM
001730: 41,3763           13733                           TCF      R36P3                                 #  REDISPLAY OUTPUT
001731: 41,3764           56001        LREGCHK            XCH      L
001732: 41,3765           00006                           EXTEND
001733: 41,3766           13771                           BZF      ENTTIM2                               #  L-REG ZERO, SET TIME = PRESENT TIME
001734: 41,3767           56001                           XCH      L                                     #  L-REG NON ZERO, TIME = ASTRO INPUT TIME
001735: 41,3770           13744                           TCF      ASTROTIM
001736: 41,3771           06006        ENTTIM2            TC       INTPRET
001737: 41,3772           52034                           RTB      GOTO
001738: 41,3773           45510                                    LOADTIME
001739: 41,3774           65521                                    R36INT
001740: 41,3775           01420        V06N16N            VN       00616
001741: 41,3776           01532        V06N90N            VN       00690
001742: 41,3777  30,2000                                  SBANK=   LOWSUPER

End of include-file P34-35_P74-75.agc.  Parent file is MAIN.agc


