
Source Code


000002:                                                                                                  #  Copyright:    Public domain.
000003:                                                                                                  #  Filename:     P61-P67.agc
000004:                                                                                                  #  Purpose:      Part of the source code for Comanche, build 055. It
000005:                                                                                                  #                is part of the source code for the Command Module's
000006:                                                                                                  #                (CM) Apollo Guidance Computer (AGC), Apollo 11.
000007:                                                                                                  #  Assembler:    yaYUL
000008:                                                                                                  #  Reference:    pp. 789-818
000009:                                                                                                  #  Contact:      Ron Burkey <info@sandroid.org>
000010:                                                                                                  #  Website:      http://www.ibiblio.org/apollo.
000011:                                                                                                  #  Mod history:  2009-05-12 RSB  Adapted from Colossus249 file of the same
000012:                                                                                                  #                                name and Comanche 055 page images.
000013:                                                                                                  #                2009-05-20 RSB  Corrections:  V06N68 -> V06N74, added missing
000014:                                                                                                  #                                definition of V06N74, in several
000015:                                                                                                  #                                interpreter operands fixed stuff like
000016:                                                                                                  #                                N-M,1 to N -M,1
000017:                                                                                                  #                2010-08-28 JL   Fixed some indentation.
000018:
000019:                                                                                                  #  The contents of the "Comanche055" files, in general, are transcribed
000020:                                                                                                  #  from scanned documents.
000021:
000022:                                                                                                  #        Assemble revision 055 of AGC program Comanche by NASA
000023:                                                                                                  #        2021113-051.  April 1, 1969.
000024:
000025:                                                                                                  #        This AGC program shall also be referred to as Colossus 2A
000026:
000027:                                                                                                  #        Prepared by
000028:                                                                                                  #                        Massachusetts Institute of Technology
000029:                                                                                                  #                        75 Cambridge Parkway
000030:                                                                                                  #                        Cambridge, Massachusetts
000031:
000032:                                                                                                  #        under NASA contract NAS 9-4065.
000033:
000034:                                                                                                  #  Refer directly to the online document mentioned above for further
000035:                                                                                                  #  information.  Please report any errors to info@sandroid.org.
000036:
000037:                                                                                                  #  Page 789
000038:                                                                                                  #  PROGRAM:      P61
000039:                                                                                                  #  MOD NO.:      0       MAR. 13, 1967
000040:                                                                                                  #  MOD BY:       R. HIRSCHKOP
000041:                                                                                                  #  MOD NO: 1     MOD BY:  RR BAIRNSFATHER        DATE: 22 JUN 67         RESTARTS
000042:                                                                                                  #  MOD NO: 2     MOD BY:  RR BAIRNSFATHER        DATE: 17 JAN 68         COLOSSUS GSOP CHANGES
000043:                                                                                                  #  MOD NO: 3     MOD BY:  RR BAIRNSFATHER        DATE:  8 MAY 68         DELETE CMSM MANEUVER (PCR 50)
000044:                                                                                                  #  FUNCTION:     TO CALCULATE AND DISPLAY EMS INITIALIZATION DATA
000045:                                                                                                  #  CALLING SEQUENCE:  BY V37
000046:                                                                                                  #  EXIT:         TO P62
000047:                                                                                                  #  SUBROUTINE CALLS:  S61.1, S61.3, GOFLASH, FLAGUP, R02BOTH
000048:                                                                                                  #  ERASABLE INITIALIZATION:
000049:                                                                                                  #        EMSALT (-29) M          .05G ALTITUDE ABOVE FISCHER ELLIPSOID   PAD LOADED.
000050:                                                                                                  #        ALFAPAD /180            HYPERSONIC CM TRIM ANGLE OF ATTACK      PAD LOADED
000051:                                                                                                  #  OUTPUT:       THE FOLLOWING REGISTERS ARE WRITTEN IN FOR USE BY DISPLAYS
000052:                                                                                                  #                GMAX    100 GMAX (-14) G,S      MAXIMUM ACCELERATION
000053:                                                                                                  #                VPRED   (-7) M/CS               PREDICTED VELOCITY AT 400K FT
000054:                                                                                                  #                GAMMAEI (GAMMA/360              PREDICTED GAMMA    AT 400K FT
000055:                                                                                                  #                RTGO    THETAH/360              RANGE ANGLE TO SPLASH FROM EMSALT       EMSALT IS PAD LOADED
000056:                                                                                                  #                VIO     (-7) M/CS               INERTIAL VELOCITY AT       EMSALT       EMSALT IS PAD LOADED
000057:                                                                                                  #                TTE     (-28) CS                TIME TO                    EMSALT       EMSALT IS PAD LOADED
000058:                                                                                                  #                LAT(SPL) /360                   TARGET LOCATION                         LEFT BY DSKY
000059:                                                                                                  #                LNG(SPL) /360                   TARGET LOCATION                         LEFT BY DSKY
000060:                                                                                                  #                HEADSUP (0)                     +1 = LIFT DOWN, -1 = LIFT UP            LEFT BY DSKY
000061:                                                                                                  #  DEBRIS:       SEE SUBROUTINES.
000062:
000063: 26,2217                                           BANK     26
000064: 26,2000                                           SETLOC   P60S
000065: 26,2000                                           BANK
000066:
000067: 26,2217  E6,1661                                  EBANK=   AOG
000068:
000069: 26,2217                                           COUNT*   $$/P61
000070:
000071: 26,2217           35002        P61                CA       BIT14                                 #  EXTENDED VERB SHOULD BE FREE THIS CLOSE
000072: 26,2220           55044                           TS       EXTVBACT                              #  TO V37
000073:                                                                                                  #  LOCK OUT EXTENDED VERBS SO CAN USE TFF
000074:                                                                                                  #  ROUTINES.  EXT VERB ERASE IS USED
000075:
000076: 26,2221           45017                           CS       ONE                                   #  REMOVE IF HEADSUP EVER ON UPLINK DATA
000077: 26,2222           55726                           TS       HEADSUP                               #  PRELOAD
000078:
000079: 26,2223           02544                           TC       S61.1                                 #  CHECK STATE VECTOR AND IMU ORIENTATION
000080:                                                                                                  #  RV 50GENRET. DOES PHASCHNG, GROUP 4.
000081:
000082: 26,2224           32425                           CA       V06N61                                #  LAT(SPL)      LNG(SPL)        HEADSUP
000083:                                                                                                  #  XXX.XX DEG    XXX.XX DEG      XXXXX.
000084: 26,2225           04662                           TC       BANKCALL
000085: 26,2226           21057                           CADR     GOFLASHR
000086: 26,2227           04106                           TC       GOTOP00H
000087:                                                                                                  #  Page 790
000088: 26,2230           02235                           TC       P61.4
000089: 26,2231           02224                           TC       -5
000090:
000091: 26,2232           05412        P61.3              TC       PHASCHNG
000092: 26,2233           00014                           OCT      00014
000093:
000094: 26,2234           05217                           TC       ENDOFJOB
000095:
000096: 26,2235           22007        P61.4              ZL
000097: 26,2236           11726                           CCS      HEADSUP                               #  C(HEADSUP)= +1/-1
000098: 26,2237           35002                           CA       BIT14                                 #  IF HEADSUP POS,ROLLC =180 DEG.(LIFT DWN)
000099: 26,2240           12241                           NOOP                                           #  IF HEADSUP NEG,ROLLC =0 (LIFT UP)
000100: 26,2241           53716                           DXCH     ROLLC                                 #  ROLLC IS USED BY S62.3: GIM ANG AT .05G
000101:
000102: 26,2242           06006                           TC       INTPRET
000103: 26,2243           77745        NEWRNVN            DLOAD
000104: 26,2244           01205                                    PIPTIME                               #  SAVE TIME OF RN,VN TO DETERMINE IF AN
000105: 26,2245           37651                           STCALL   MM                                    #  UPDATE HAS OCCURRED.
000106: 26,2246           52063                                    STARTEN1                              #  INITIALIZE
000107: 26,2247           77775                           VLOAD
000108: 26,2250           01171                                    RN
000109: 26,2251           02327                           STORE    RONE
000110: 26,2252           77656                           UNIT
000111: 26,2253           26343                           STOVL    URONE
000112: 26,2254           01177                                    VN
000113: 26,2255           02335                           STORE    VONE
000114: 26,2256           53435                           VXV      UNIT
000115: 26,2257           02343                                    URONE
000116: 26,2260           03502                           STORE    UNI
000117: 26,2261           45345        DUMPP61            DLOAD    DSU
000118: 26,2262           03651                                    MM                                    #  INITIAL VALUE OF PIPTIME
000119: 26,2263           01205                                    PIPTIME
000120: 26,2264           45040                           BMN      CALRB
000121: 26,2265           54243                                    NEWRNVN                               #  UPDATED... GO TRY AGAIN
000122: 26,2266           54651                                    S61.2                                 #  GET DISPLAY DATA FOR N60 AND N63
000123:                                                                                                  #  AND RETURN IN BASIC, BELOW.
000124: 26,2267           05536        P61.1              TC       CLEARMRK
000125: 26,2270           32424                           CA       V06N60                                #  GMAX          VPRED           GAMMAEI
000126:                                                                                                  #  XXX.XX G      XXXXX. FPS      XXX.XX DEG
000127: 26,2271           04662                           TC       BANKCALL
000128: 26,2272           20720                           CADR     GOFLASH
000129:
000130: 26,2273           04106                           TC       GOTOP00H
000131: 26,2274           02276                           TC       P61.2                                 #  PROCEED
000132: 26,2275           02270                           TC       -5
000133:
000134: 26,2276           06006        P61.2              TC       INTPRET                               #  CORRECT TTE FOR TIME LAPSE DURING
000135:                                                                                                  #  ABOVE DISPLAY.
000136: 26,2277           45234                           RTB      DSU
000137: 26,2300           45510                                    LOADTIME                              #  CURRENT TIME.
000138:                                                                                                  #  Page 791
000139: 26,2301           03651                                    MM                                    #  PIPTIME FOR RONE & VONE.
000140: 26,2302           77615                           DAD
000141: 26,2303           03733                                    TTE1                                  #  NEGATIVE OF FREE FALL TIME.
000142: 26,2304           03727                           STORE    TTE                                   #  DECREMENTED
000143:
000144: 26,2305           77776                           EXIT
000145:
000146: 26,2306           32426                           CA       V06N63                                #  RTGO          VIO             TTE
000147:                                                                                                  #  XXXX.X NM     XXXXX. FPS      XXBXX M,S
000148: 26,2307           04662                           TC       BANKCALL
000149: 26,2310           20720                           CADR     GOFLASH
000150: 26,2311           04106                           TC       GOTOP00H
000151: 26,2312           02314                           TC       +2
000152: 26,2313           02276                           TC       P61.2                                 #  REDO
000153:
000154:                                                                                                  #                .... THEN FALL INTO P62
000155:                                                                                                  #  Page 792
000156:
000157:                                                                                                  #  PROGRAM:      P62
000158:                                                                                                  #  MOD NO.:      0       MAR. 13, 1967
000159:                                                                                                  #  MOD BY:       R. HIRSCHKOP
000160:                                                                                                  #  MOD NO:  1    MOD BY:  RR BAIRNSFATHER        DATE: 21 MAR 67
000161:                                                                                                  #  MOD NO:  2    MOD BY:  RR BAIRNSFATHER        DATE: 22 JUN 67         RESTARTS.
000162:                                                                                                  #  MOD NO:  3    MOD BY:  RR BAIRNSFATHER        DATE: 17 JAN 68         COLOSSUS GSOP CHANGES.
000163:                                                                                                  #  MOD NO:  4    MOD BY:  RR BAIRNSFATHER        DATE:  8 MAY 68         MOVE START OF DESIRED GIMBAL CALC.
000164:                                                                                                  #  FUNCTION:     1) TO NOTIFY CREW WHEN GNC SYSTEM IS PREPARED FOR CM/SM SEPARATION.
000165:                                                                                                  #                2) TO ORIENT THE CM TO THE CORRECT ATTITUDE FOR ATMOSPHERIC ENTRY.
000166:                                                                                                  #  CALLING SEQUENCE:  BY V37 OR DIRECTLY FROM P61
000167:                                                                                                  #  EXIT:         TO P63
000168:                                                                                                  #  ERASABLE INITIALIZATION:
000169:                                                                                                  #        ALFAPAD                                         LEFT BY PAD LOAD
000170:                                                                                                  #        LADPAD                                          LEFT BY PAD LOAD
000171:                                                                                                  #        LODPAD                                          LEFT BY PAD LOAD
000172:                                                                                                  #        LAT(SPL)        (MAY BE CHANGED BELOW)          LEFT BY DSKY, VIA P61
000173:                                                                                                  #        LNG(SPL)        (MAY BE CHANGED BELOW)          LEFT BY DSKY, VIA P61
000174:                                                                                                  #        HEADSUP         (MAY BE CHANGED BELOW)          LEFT BY DSKY, VIA P61
000175:                                                                                                  #  SUBROUTINE CALLS:  NEWMODEX, S61.1, CM/DAPIC, CM/DAPON, R02BOTH, GOPERF1, GOFLASH, GODSPR.
000176:
000177: 26,2314                                           COUNT*   $$/P62
000178:
000179: 26,2314           05354                           TC       NEWMODEX                              #  MODE CHANGE IF CAME FROM P61.
000180: 26,2315           00076                           MM       62         B-14                       #  MODE CHANGE AUTOMATIC VIA V 37.
000181: 26,2316           35017                           CA       ONE
000182: 26,2317           54332                           TS       DNLSTCOD
000183:
000184: 26,2320           02544        P62                TC       S61.1                                 #  CHECK STATE VECTOR AND IMU ORIENTATION.
000185:
000186: 26,2321           06006                           TC       INTPRET
000187: 26,2322           47131                           SSP      RTB
000188: 26,2323           03325                                    POSEXIT
000189: 26,2324           54401                                    P62.3                                 #  CALCULATE DESIRED .05G GIMBAL ANGLES.
000190:                                                                                                  #  WITHOUT DISPLAY.
000191: 26,2325           41672                                    CM/DAPIC                              #  START CM/POSE AND BODY RATE CALC
000192:
000193:                                                                                                  #  DOES 2PHSCHNG, OCT 40116, OCT 05024, OCT 13000.
000194:                                                                                                  #  CM/DAPIC SETS EBANK = EBAOG
000195:                                                                                                  #  AND RETURNS IN BASIC TO P62.2.
000196: 26,2326           00006        P62.2              EXTEND
000197: 26,2327           32432                           DCA      POSECADR                              #  CONTINUE WITH CM/POSE AFTER AV G.
000198: 26,2330           53223                           DXCH     AVEGEXIT
000199:
000200: 26,2331           34270                           CAF      OCT41                                 #  REQUEST SEPARATION
000201: 26,2332           04662                           TC       BANKCALL
000202: 26,2333           21125                           CADR     GOPERF1R
000203: 26,2334           04106                           TC       GOTOP00H
000204: 26,2335           02340                           TC       +3                                    #  PROCEED
000205:                                                                                                  #  Page 793
000206:                                                                                                  #  NOTE:  NODOFLAG WILL BE SET IN CM/DAPON. ***
000207: 26,2336           02331                           TC       -5                                    #  ENTER
000208: 26,2337           02232                           TC       P61.3                                 #  FOR PHASCHNG AND ENDOFJOB
000209:
000210: 26,2340           04701                 +3        TC       POSTJUMP
000211: 26,2341           41612                           CADR     CM/DAPON                              #  DISABLE RCS DAP, ENABLE ENTRY DAP AND
000212:                                                                                                  #  DO ATTITUDE HOLD.
000213:
000214:                                                                                                  #  WILL IDLE UNTIL CM/POSE DOES ONE UPDATE.
000215:                                                                                                  #  CM/DAPON DOES NO PHASCHNG.
000216:
000217: 26,2342           32425        P62.1              CA       V06N61                                #  LAT(SPL)      LNG(SPL)        HEADSUP
000218:                                                                                                  #  XXX.XX DEG    XXX.XX DEG      0000X.
000219:
000220:                                                                                                  #  TERMINATE ATTITUDE HOLD.  SET UP COMMANDS:
000221:                                                                                                  #  ROLLC, ALFACOM, BETACOM.  BEGIN MANEUVER TO
000222:                                                                                                  #  ENTRY ATTITUDE.
000223:
000224: 26,2343           04662                           TC       BANKCALL
000225: 26,2344           20720                           CADR     GOFLASH
000226: 26,2345           02342                           TC       -3
000227: 26,2346           02350                           TC       +2
000228: 26,2347           02342                           TC       -5
000229:
000230: 26,2350           05412                           TC       PHASCHNG
000231: 26,2351           04024                           OCT      04024                                 #  USE ENTRYVN FOR DISPLAY BELOW.
000232:                                                                                                  #  EBANK WAS SET IN CM/DAPON TO EBAOG
000233:
000234: 26,2352           11726                           CCS      HEADSUP                               #  C(HEADSUP) = +/- 1
000235: 26,2353           35002                           CA       BIT14                                 #  IF HEADSUP POS, ROLLC=180 DEG (LIFT DWN)
000236: 26,2354           12355                           NOOP                                           #  IF HEADSUP NEG, ROLLC=0 DEG (LIFT UP)
000237: 26,2355           55715                           TS       ROLLC
000238: 26,2356           31411                           CA       ALFAPAD                               #  NOMINAL ALFATRIM PAD LOADED, NEG. NO.
000239: 26,2357           22007                           ZL
000240: 26,2360           53604                           DXCH     ALFACOM                               #  SET ALFACOM = ALFA TRIM, BETACOM=0
000241:
000242: 26,2361           35017                           CA       ONE                                   #  PERMITS EXDAP2 TO CHANGE FLAG TO +0
000243: 26,2362           55727                           TS       P63FLAG                               #  AS INDICATOR.  STARTS UP P63.
000244:
000245: 26,2363           35052                           CA       V06N22                                #  SET UP DISPLAY FOR CDU DESIRED VALUES
000246: 26,2364           55263                           TS       ENTRYVN                               #  FROM ENTRY ATTITUDE CALC, THAT IS
000247:                                                                                                  #  ALREADY GOING.
000248: 26,2365           05546                           TC       UPFLAG                                #  TURN ON ENTRY DISPLAY
000249: 26,2366           00134                           ADRES    ENTRYDSP                              #  ENTRYDSP = 92D BIT 13 FLAG 6
000250: 26,2367                        SKIP
000251:                                                                                                  #  Page 794
000252: 26,2367           41700                           CS       CMDAPMOD                              #  GO DIRECTLY TO P63 IF BODY ATTITUDE
000253: 26,2370           75017                           MASK     ONE                                   #  IS SUCH THAT THE DELAY TASK: WAKEP62
000254: 26,2371           00006                           EXTEND                                         #  WILL BE OMITTED.
000255: 26,2372           12421                           BZF      P63.1                                 #  DISABLE GRP 4, GO TO ENDOFJOB.
000256:                                                                                                  #  (I.E., CONTINUE IF CMDAPMOD = -1, OR +0)
000257: 26,2373           02405                           TC       P63
000258:
000259:                                                                                                  #  PUT JOB TO SLEEP UNTIL VEHICLE MANEUVER HAS
000260:                                                                                                  #  REDUCED ALFA TO +/-45 DEG. CONSIDER REMAINING
000261:                                                                                                  #  65 DEG (25 DEG IF ALFA NEG) TO ALFA TRIM TO
000262:                                                                                                  #  OCCUR AT 3 DEG/SEC, AND TERMINATE P62 AT THAT
000263:                                                                                                  #  TIME.
000264:
000265:                                                                                                  #  TASK WAKEP62 IS CALLED FROM ENTRY DAP.
000266: 26,2374           35065        WAKEP62            CA       PRIO13
000267: 26,2375           05134                           TC       NOVAC
000268: 26,2376  E6,1661                                  EBANK=   AOG
000269: 26,2376           02405 54066                     2CADR    P63
000270:
000271: 26,2400           05324                           TC       TASKOVER
000272:
000273:                                                                                                  #  EACH 2 SEC, CALCULATE GIMBAL ANGLES FOR ENTRY CON-
000274:                                                                                                  #  DITIONS THAT WILL HOLD IF REORIENTATION WERE MADE
000275:                                                                                                  #  AT PRESENT RN, VN.  COME HERE FROM CM/POSE AND ALSO
000276:                                                                                                  #  IN KEPLER PHASE OF ENTRY.
000277:
000278: 26,2401           52131        P62.3              SSP      GOTO                                  #  SET RETURN ADDRESS SO THAT ROUTINE
000279: 26,2402           00053                                    QPRET                                 #  GOES DIRECTLY TO ENTRY GUIDANCE EXIT
000280: 26,2403           53576                                    ENDEXIT                               #  THAT DOES ENTRY DISPLAY, GRP 5.
000281: 26,2404           20376                                    S62.3                                 #  PUT DESIRED CDU VALUES IN CPHI'S FOR
000282:                                                                                                  #  N22 DISPLAY.
000283:
000284:                                                                                                  #  Page 795
000285:                                                                                                  #        P63
000286:                                                                                                  #  PROGRAM:      P63
000287:                                                                                                  #  MOD NO:       0       MAR. 13, 1967
000288:                                                                                                  #  MOD BY:       R. HIRSCHKOP
000289:                                                                                                  #  MOD NO: 1     MOD BY: RR BAIRNSFATHER         DATE: 22 JUN 67         RESTARTS
000290:                                                                                                  #  MOD NO: 2     MOD BY: RR BAIRNSFATHER         DATE: 14 JUL 67         REVISED RESTARTS
000291:                                                                                                  #  FUNCTION:     1) TO INITIALIZE THE ENTRY EQUATIONS.
000292:                                                                                                  #                2) TO CONTINUE TO HOLD THE CM TO THE CORRECT ATTITUDE WITH RESPECT TO THE ATMOSPHERE FOR
000293:                                                                                                  #                   THE ONSET OF ENTRY DECELERATION.  ROLL ANGLE IS LIFT UP/DOWN AS SPECIFIED BY HEADSUP.
000294:                                                                                                  #                3) TO SENSE .05G.
000295:                                                                                                  #  CALLING SEQUENCE:  DIRECTLY FROM P62
000296:                                                                                                  #  EXIT:         TO ENDOFJOB
000297:                                                                                                  #  SUBROUTINE CALLS:  NEWMODEX, GODSPR
000298:
000299: 26,2405                                           COUNT*   $$/P63
000300:
000301: 26,2405           05354        P63                TC       NEWMODEX
000302: 26,2406           00077                           MM       63         B-14
000303:
000304:                                                                                                  #  ARRIVE WITH EBANK = AOG.
000305:
000306: 26,2407           32430                           CA       ENTCADR                               #  CONTINUE AT STARTENT AFTER CM/POSE.
000307:
000308:                                                                                                  #  AT END OF STATEMENT, CHANGE ADDRESS IN GOTOADDR
000309:                                                                                                  #  TO CONTINUE AT SCALEPOP THEREAFTER.
000310:
000311: 26,2410           55724                           TS       POSEXIT
000312:
000313: 26,2411           32427                           CA       V06N64                                #  G             VI              R TO SPLSH
000314:                                                                                                  #  XXX.XX G      XXXX. FPS       XXXX.X NM
000315: 26,2412           55263                           TS       ENTRYVN                               #  FOR DISPLAY CALL IN OVERNOUT
000316:
000317: 26,2413           45017                           CS       ONE                                   #  IN CASE FLAG IS LEFT AT +1 BY DAP.  THE
000318: 26,2414           55727                           TS       P63FLAG                               #  -1 ASSURES THAT EXO-ATM DAP WILL NOT
000319:                                                                                                  #  CALL P63 OUT OF SEQUENCE IN P66.
000320:
000321: 26,2415           05412                           TC       PHASCHNG                              #  THIS IS REQUIRED TO PRESERVE CLEANDSP
000322: 26,2416           00004                           OCT      00004                                 #  RETURN IN EVENT OF AN EXTENDED VERB
000323:
000324: 26,2417           04662                           TC       BANKCALL                              #  FLUSH 'N22' DISPLAY, IF ON, (OMIT
000325: 26,2420           20703                           CADR     CLEANDSP                              #  DISPLAY DURING 'STARTENT' PASS.)
000326:
000327: 26,2421           05412        P63.1              TC       PHASCHNG
000328: 26,2422           00004                           OCT      00004                                 #  DISABLE.  DISPLAY RESTARTED VIA ENTRY.
000329:
000330: 26,2423           05217                           TC       ENDOFJOB
000331:
000332: 26,2424           01474        V06N60             VN       0660
000333: 26,2425           01475        V06N61             VN       0661
000334: 26,2426           01477        V06N63             VN       0663
000335:                                                                                                  #  Page 796
000336: 26,2427           01500        V06N64             VN       0664
000337: 26,2430           52000        ENTCADR            CADR     STARTENT
000338:
000339: 26,2431  E7,1451                                  EBANK=   RTINIT                                #  TO CARRY OVER INTO ENTRY STEERING.
000340: 26,2431           03470 76067  POSECADR           2CADR    CM/POSE
000341:
000342:                                                                                                  #  Page 797
000343:                                                                                                  #  PROGRAM:      P64
000344:                                                                                                  #  MOD NO:       1       SEPT. 19, 1967
000345:                                                                                                  #  MOD BY:       R. HIRSCHKOP
000346:                                                                                                  #  MOD NO: 2     MOD BY: RR BAIRNSFATHER         DATE: 8 MAY 68          REVISED COMMENTS FOR COLOSSUS
000347:                                                                                                  #  FUNCTION:     1.  TO START ENTRY GUIDANCE AT .05G SELECTING ROLL ATTITUDE, CONSTANT DRAG LEVEL, AND
000348:                                                                                                  #                    DRAG THRESHHOLD, KA, WHICH ARE KEYED TO THE .05G POINT.
000349:                                                                                                  #                2.  SELECT FINAL PHASE P67 IF V < 27000 FPS WHEN .2G OCCURS.
000350:                                                                                                  #                3.  ITERATE FOR UP-CONTROL SOLUTION P65 IF V > 27000 FPS AND IF ALTITUDE RATE AND DRAG
000351:                                                                                                  #                    LEVEL CONDITIONS ARE SATISFIED.  ENTER P65 WHEN CONSTANT DRAG CONTROLLER HAS BROUGHT RANGE
000352:                                                                                                  #                    AS PREDICTED TO WITHIN 25 NM OF DESIRED RANGE.
000353:                                                                                                  #                4.  SELECT FINAL PHASE  P67  IF NO UP-CONTROL SOLUTION EXISTS WITH VL > 18000 FPS.
000354:                                                                                                  #  CALLING SEQUENCE:  BY RTB FROM REENTRY CONTROL
000355:                                                                                                  #  EXIT:         BACK TO REENTRY CONTROL.
000356:                                                                                                  #  SUBROUTINE CALLS:  NEWMODEX
000357:
000358: 25,2000                                           BANK     25
000359: 26,2000                                           SETLOC   P60S1
000360: 26,2000                                           BANK
000361:
000362:                                                                                                  #  THIS DISPLAY IS CALLED EACH PASS THROUGH STEERING.  RESTART PROTECTION IS VIA STEERING.
000363:
000364: 26,2433                                           COUNT*   $$/P64
000365:
000366: 26,2433           05354        P64                TC       NEWMODEX                              #  ENTER VIA RTB WHEN .05G IS EXCEEDED.
000367: 26,2434           00100                           MM       64         B-14
000368: 26,2435           32440                           CA       V06N74                                #  ROLLC         VI              D
000369:                                                                                                  #  XXX.XX DEG    XXXXX. FPS      XXX.XX G
000370: 26,2436           55263                           TS       ENTRYVN                               #  DISPLAY VIA OVERNOUT.
000371:
000372: 26,2437           06030                           TC       DANZIG                                #  ... AND CONTINUE IN INITROLL ...
000373:
000374: 26,2440           01512        V06N74             VN       0674
000375:
000376:                                                                                                  #  Page 798
000377:                                                                                                  #  PROGRAM:      P65
000378:                                                                                                  #  MOD NO:  0    MOD BY:  RR BAIRNSFATHER        DATE:  17 JAN 68        COLOSSUS GSOP ADDITION.
000379:                                                                                                  #  FUNCTION:     TO CONTINUE ENTRY GUIDANCE, USING THE UP-CONTROL PHASE TO STEER TO A CONTROLLED EXIT
000380:                                                                                                  #                CONDITION.  THIS PHASE TERMINATES  A) IF D < Q7 FPSS, GOTO TO P66.
000381:                                                                                                  #                                                   B) IF RDOT NEG, AND IF V < VL +500 FPS, GO TO P67.
000382:                                                                                                  #  CALLING SEQUENCE:  BY RTB FROM REENTRY CONTROL
000383:                                                                                                  #  EXIT:         BACK TO REENTRY CONTROL, OR TO ENDOFJOB.
000384:                                                                                                  #  SUBROUTINE CALLS:  NEWMODEX
000385:
000386: 26,2441                                           COUNT*   $$/P65
000387:
000388: 26,2441           05354        P65                TC       NEWMODEX                              #  ENTER VIA RTB WHEN RANGE < 25 N M OF
000389: 26,2442           00101                           MM       65         B-14                       #  TARGET.
000390:
000391: 26,2443           35065                           CA       PRIO13
000392: 26,2444           05134                           TC       NOVAC
000393: 26,2445     1263                                  EBANK=   ENTRYVN
000394: 26,2445           02457 54062                     2CADR    P65.1
000395:
000396: 26,2447           05372                           TC       2PHSCHNG                              #  2 PHASE CHG REQUIRED TO PREVENT RE-
000397: 26,2450           00554                           OCT      00554                                 #  STARTING FLASHING DISPLAY TWICE.
000398: 26,2451           10035                           OCT      10035                                 #  4.55 SPOT AND SERVICER, HERE.
000399: 26,2452           06006                           TC       INTPRET
000400: 26,2453           47131                           SSP      RTB
000401: 26,2454           03646                                    GOTOADDR                              #  CHANGE ENTRY MODE TO UPCONTRL.
000402: 26,2455           53035                                    UPCONTRL
000403: 26,2456           52120                                    REFAZE10                              #  GO HERE TO REESTABLISH ENTRY SEQUENCER.
000404:                                                                                                  #  AND CONTINUE AT UPCONTRL...
000405:
000406: 26,2457           05560        P65.1              TC       DOWNFLAG
000407: 26,2460           00134                           ADRES    ENTRYDSP                              #  ENTRYDSP = 92D BIT 13 FLAG 6
000408:
000409: 26,2461           32473                           CA       V16N69                                #  ROLLC         DL (Q7)         VL
000410: 26,2462           04662                           TC       BANKCALL                              #  XXX.XX DEG    XXX.XX G        XXXXX. FPS
000411: 26,2463           21057                           CADR     GOFLASHR
000412: 26,2464           02461                           TC       -3                                    #  NODOFLAG IS SET ...
000413: 26,2465           02470                           TC       +3
000414: 26,2466           02461                           TC       -5
000415: 26,2467           02232                           TC       P61.3                                 #  EST. GRP 4 FOR DISPLAY AND DO ENDOFJOB
000416:                                                                                                  #  IF PROCEED, CONTINUE
000417: 26,2470           05546                           TC       UPFLAG
000418: 26,2471           00134                           ADRES    ENTRYDSP                              #  ENTRYDSP = 92D BIT 13 FLAG 6
000419:
000420: 26,2472           02421                           TC       P63.1                                 #  DISABLE GRP 4, START UP ENTRY DISPLAY
000421:                                                                                                  #  N06V68 VIA OVERNOUT, AS USED IN P64
000422: 26,2473           04105        V16N69             VN       1669
000423:
000424:                                                                                                  #  Page 799
000425:                                                                                                  #  PROGRAM:      P66
000426:                                                                                                  #  MOD NO: 0     MOD BY: RR BAIRNSFATHER         DATE: 17 JAN 68         COLOSSUS GSOP ADDITIONS
000427:                                                                                                  #  FUNCTION:     KEEP CM ATTITUDE IN TRIM TO THE RELATIVE VELOCITY VECTOR.  ENTRY GUIDANCE STOPS GENERATING
000428:                                                                                                  #                ROLL COMMANDS UNTIL DRAG BUILDS UP TO Q7+0.5 FPSS.
000429:                                                                                                  #  CALLING SEQUENCE:  VIA RTB FROM REENTRY CONTROL.
000430:                                                                                                  #  EXIT:         BACK TO REENTRY CONTROL.
000431:                                                                                                  #  SUBROUTINE CALLS:  NEWMODEX
000432:
000433: 26,2474                                           COUNT*   $$/P66
000434:
000435: 26,2474           05354        P66                TC       NEWMODEX                              #  ENTER VIA RTB WHEN D < Q7 FPSS
000436: 26,2475           00102                           MM       66         B-14
000437:
000438: 26,2476           35052                           CA       V06N22                                #  OGA           IGA             MGA
000439:                                                                                                  #  XXX.XX DEG    XXX.XX DEG      XXX.XX DEG
000440: 26,2477           02503                           TC       P66END                                #  IN CASE CAME FROM P65, GO TO DISABLE GRP 4,
000441:                                                                                                  #  AND SET ENTRYDSP TO DO DISPLAY VIA
000442:                                                                                                  #  OVERNOUT.
000443:
000444:                                                                                                  #  ... AND CONTINUE AT KEP2
000445:
000446:                                                                                                  #  Page 800
000447:                                                                                                  #  PROGRAM:      P67
000448:                                                                                                  #  MOD NO:       0       MAR. 16, 1967
000449:                                                                                                  #  MOD BY:       R. HIRSCHKOP
000450:                                                                                                  #  FUNCTION:     TO TERMINATE STEERING WHEN THE CM VELOCITY WRT EARTH = 1000 FT/SEC
000451:                                                                                                  #  CALLING SEQUENCE:
000452:                                                                                                  #  EXIT:         TO P00H
000453:                                                                                                  #  SUBROUTINE CALLS:  GOFLASH
000454:
000455:                                                                                                  #  THIS DISPLAY IS CALLED EACH PASS THROUGH STEERING.  RESTART PROTECTION IS VIA STEERING.
000456:
000457: 26,2500                                           COUNT*   $$/P67
000458:
000459: 26,2500           05354        P67                TC       NEWMODEX                              #  ENTER VIA RTB
000460: 26,2501           00103                           MM       67         B-14
000461: 26,2502           32511                           CA       V06N66                                #  ROLLC         XRNGERR         DNRNGERR
000462:                                                                                                  #  XXX.XX DEG    XXXX.X NM       XXXX.X NM
000463: 26,2503           55263        P66END             TS       ENTRYVN                               #  DISPLAY VIA OVERNOUT.
000464:
000465: 26,2504           05546                           TC       UPFLAG                                #  (IN CASE CAME FROM P65.  ENTRY DISPLAY
000466: 26,2505           00134                           ADRES    ENTRYDSP                              #  WILL FLUSH FLASHING DISP.  IF STILL ON)
000467:                                                                                                  #  BIT 13 FLAG 6
000468: 26,2506           05412        KILLGRP4           TC       PHASCHNG                              #  DISABLE GRP4, IN CASE CAME FROM HUNTEST.
000469: 26,2507           00004                           OCT      00004                                 #  (COME TO KILLGRP4 VIA RTB, RET TO CALLER)
000470:
000471: 26,2510           06030                           TC       DANZIG                                #  ... AND CONTINUE AT PREDICT3 ...
000472:
000473: 26,2511           01502        V06N66             VN       0666
000474:
000475: 26,2512                                           BANK     26
000476: 26,2000                                           SETLOC   P60S2
000477: 26,2000                                           BANK
000478:
000479: 26,2512           32543        P67.1              CA       V16N67                                #  RTOGO         LAT             LONG
000480:                                                                                                  #  XXXX.X NM     XXX.XX DEG      XXX.XX DEG
000481: 26,2513           04662                           TC       BANKCALL
000482: 26,2514           20720                           CADR     GOFLASH
000483: 26,2515           02520                           TC       +3                                    #  EFFECTIVE GOTOP00H
000484: 26,2516           02520                           TC       +2
000485: 26,2517           02512                           TC       P67.1                                 #  REDO
000486:
000487: 26,2520           46214                           CS       THREE                                 #  TURN OFF ENTRY DAP
000488: 26,2521           00004                           INHINT
000489: 26,2522           70102                           MASK     CM/FLAGS                              #  CM/DSTBY, GAMDIFSW
000490: 26,2523           54102                           TS       CM/FLAGS
000491: 26,2524           00003                           RELINT
000492: 26,2525           00006                           EXTEND
000493: 26,2526           32643                           DCA      SERVCAD2
000494:
000495:                                                                                                  #  Page 801
000496: 26,2527           53223                           DXCH     AVEGEXIT
000497:
000498: 26,2530           14106                           TCF      GOTOP00H
000499:
000500:                                                                                                  #  Page 802
000501: 26,2531           43175        P67.2              VLOAD    CLEAR                                 #  CALC PRESENT LAT, LONG, ALT.
000502: 26,2532           01171                                    RN
000503: 26,2533           00662                                    ERADFLAG                              #  USE PAD RAD FOR ALT. (NOT SEEN ANYWAY)
000504: 26,2534           16152                           STODL    ALPHAV
000505: 26,2535           01205                                    PIPTIME                               #  USE TIME OF RN
000506: 26,2536           45014                           CLEAR    CALL
000507: 26,2537           01663                                    LUNAFLAG
000508: 26,2540           26370                                    LAT-LONG
000509: 26,2541           77634        P67.3              RTB                                            #  ENTRY EXIT THAT OMITS DISPLAY.
000510: 26,2542           53611                                    SERVNOUT
000511:
000512: 26,2543           04103        V16N67             VN       1667
000513: 26,2544     4270               OCT41              =        33DEC
000514: 26,2544  26,2642               SERVCAD2           =        SERVCAD1
000515:
000516:                                                                                                  #  Page 803
000517:                                                                                                  #  SUBROUTINE NAME:      S61.1
000518:                                                                                                  #  MOD NO:       0                                       DATE:           21 FEB 67
000519:                                                                                                  #  MOD BY:       RR BAIRNSFATHER                         LOG SECTION:    P61-P67
000520:                                                                                                  #  MOD NO:       1       MOD BY: RR BAIRNSFATHER         DATE:           22 JUN 67       RESTARTS.
000521:
000522:                                                                                                  #  FUNCTIONAL DESCRIPTION:       CALLED BY BOTH P61 AND P62
000523:                                                                                                  #        FIRST, TEST TO SEE IF  AVERAGEG  IS ON.  IF NOT, UPDATE THE STATE VECTOR TO PRESENT TIME + TOLERANCE
000524:                                                                                                  #        AND TURN ON  AVERAGEG  AT THAT TIME, AND CONTINUE.  OTHERWISE CONTINUE:  SEE IF IMU Y AXIS IS
000525:                                                                                                  #        WITHIN 30 DEG OF VAR.  IF YES, EXIT SUBROUTINE S61.1.  IF SO, SEE IF -Y AXIS OF IMU IS WITHIN
000526:                                                                                                  #        30 DEG OF VAR.  IF YES, DISPLAY ALARM:  01427   IMU REVERSED.
000527:                                                                                                  #                        IF NO, DISPLAY ALARM:   01426   IMU UNSATISFACTORY.
000528:                                                                                                  #        IN EITHER OF THESE LAST 2 CASES, WAIT 10 SEC AND THEN EXIT SUBROUTINE S61.1.
000529:
000530:                                                                                                  #  REMARK:       THERE WILL BE A SHORT 10 SEC DELAY IF AN ALARM EXIT IS TAKEN.  THE DELAY FOR INTEGRATION IS
000531:                                                                                                  #                AS SHORT AS CAN BE MADE, BUT IS ARBITRARY SINCE IT DEPENDS ON THE AGE OF THE STATE VECTOR.
000532:
000533:                                                                                                  #  CALLING SEQUENCE:     CALL
000534:                                                                                                  #                                S61.1
000535:
000536:                                                                                                  #                        C(MPAC) UNSPECIFIED
000537:                                                                                                  #                        PUSHLOC UNSPECIFIED
000538:
000539:                                                                                                  #  SUBROUTINES CALLED:   LOADTIME, CSMPREC, TPAGTREE,
000540:                                                                                                  #                        WAITLIST, JOBSLEEP, JOBWAKE, PREREAD, ALARM, GODSPR, BANKCALL, DELAYJOB
000541:
000542:                                                                                                  #  NORMAL EXIT MODES:    RVQ
000543:
000544:                                                                                                  #  ALARMS:       01426   IMU UNSATISFACTORY
000545:                                                                                                  #                01427   IMU REVERSED
000546:
000547:                                                                                                  #  OUTPUT:       POSSIBLE ALARMS
000548:                                                                                                  #                POSSIBLY TDEC1, RATT, VATT, RN, VN
000549:
000550:                                                                                                  #  ERASABLE INITIALIZATION REQUIRED:
000551:                                                                                                  #        AVEGFLAG                AVERAGEG ON OR OFF                              LEFT BY SERVICER
000552:                                                                                                  #        PIPTIME   (-28) CS      TIME OF PIPA UPDATE                             LEFT BY READACCS
000553:                                                                                                  #        RN        (-29) M       STATE VECTOR                                    LEFT BY AVERAGEG
000554:                                                                                                  #        VN        (-7) M/CS     STATE VECTOR                                    LEFT BY AVERAGEG
000555:                                                                                                  #        REFSMMAT  (-1)          .5 REF TO SM MATRIX                             LEFT BY LAST IMU ALIGNMENT
000556:
000557:                                                                                                  #  DEBRIS:       QPRET
000558:                                                                                                  #                POSSIBLY PIPTIME1, RATT, VATT, TDEC1, RN1, VN1, QTEMP, X1       IF UPDATED
000559:                                                                                                  #                PUSH LIST LOCS USED BY CSMPREC
000560:
000561: 26,2544  E6,1661                                  EBANK=   AOG                                   #  FOR 60GENRET, S61DT
000562: 26,2544                                           BANK     26
000563: 26,2000                                           SETLOC   P60S3
000564: 26,2000                                           BANK
000565:
000566: 26,2544                                           COUNT*   $$/S61.1
000567:
000568: 26,2544           00006        S61.1              EXTEND
000569: 26,2545           23773                           QXCH     60GENRET                              #  SAVE RET ADDR IN EB 6
000570: 26,2546           04662                           TC       BANKCALL
000571: 26,2547           17653                           CADR     R02BOTH
000572: 26,2550           06006                           TC       INTPRET
000573:                                                                                                  #  Page 804
000574: 26,2551           45014                           BON      CALRB
000575: 26,2552           00716                                    AVEGFLAG                              #  IS AVERAGEG ON
000576: 26,2553           54604                                    S61.1A                                #  YES
000577: 26,2554           27543                                    MIDTOAV2                              #  GET FUTURE STATE VECTOR SOON AS CAN
000578:
000579: 26,2555           30155                           CA       MPAC       +1                         #  RETURN INHINTED ***
000580: 26,2556           55774                           TS       S61DT                                 #  FOR RESTART.
000581: 26,2557           05245                           TC       WAITLIST
000582: 26,2560  E7,1431                                  EBANK=   DVCNTR
000583: 26,2560           02565 54067                     2CADR    S61.1C
000584:
000585: 26,2562           05412                           TC       PHASCHNG
000586: 26,2563           40434                           OCT      40434
000587: 26,2564           05217                           TC       ENDOFJOB
000588:
000589: 26,2565           35065        S61.1C             CA       PRIO13
000590: 26,2566           05147                           TC       FINDVAC
000591: 26,2567  E6,1661                                  EBANK=   AOG
000592: 26,2567           02603 54066                     2CADR    S61.1A     -1
000593:
000594: 26,2571           00006                           EXTEND
000595: 26,2572           32643                           DCA      SERVCAD1                              #  HE WHO START AVERAGEG MUST SERVICE
000596: 26,2573           53223                           DXCH     AVEGEXIT                              #  THE EXIT.
000597:
000598: 26,2574           05372                           TC       2PHSCHNG
000599: 26,2575           00454                           OCT      00454
000600: 26,2576           00415                           OCT      00415
000601:
000602: 26,2577           35060                           CA       EBENTRY                               #  SET EB= 7 FOR PREREAD.
000603: 26,2600           54003                           TS       EBANK
000604:
000605: 26,2601           04701                           TC       POSTJUMP
000606: 26,2602           76701                           CADR     PREREAD                               #  PREREAD DOES TC TASKOVER.
000607:
000608: 26,2603           06006                           TC       INTPRET
000609: 26,2604           77204        S61.1A             BOVB     VLOAD
000610: 26,2605           57352                                    TCDANZIG                              #  TURN OFF OVFIND, IF ON
000611: 26,2606           01177                                    VN                                    #  VN    (-7) M/CS
000612: 26,2607           64235                           VXV      MXV
000613: 26,2610           01171                                    RN                                    #  RN    (-29) M
000614: 26,2611           01736                                    REFSMMAT                              #  .5 UNIT MATRIX
000615: 26,2612           71256                           UNIT     DLOAD
000616: 26,2613           00160                                    MPAC       +3                         #  GET COS(THETA)/2
000617: 26,2614           43240                           BMN      DAD
000618: 26,2615           54622                                    S61.1B                                #  DO TEST ON -YSM
000619: 26,2616           14645                                    C(30)LIM                              #  = 1.0 -.5 COS(30)
000620: 26,2617           47004                           BOVB     RTB
000621: 26,2620           54641                                    RETRN1
000622: 26,2621           54626                                    RETRN3
000623:                                                                                                  #  Page 805
000624: 26,2622           43276        S61.1B             DCOMP    DAD
000625: 26,2623           14645                                    C(30)LIM                              #  = 1.0 - .5 COS(30)
000626: 26,2624           77404                           BOVB     EXIT
000627: 26,2625           54631                                    RETRN2
000628:
000629: 26,2626           05650        RETRN3             TC       ALARM
000630: 26,2627           01426                           OCT      01426                                 #  IMU UNSATISFACTORY
000631: 26,2630           02633                           TC       RETRN2     +2
000632:
000633: 26,2631           05650        RETRN2             TC       ALARM
000634: 26,2632           01427                           OCT      01427                                 #  IMU REVERSED
000635:
000636: 26,2633           35050                 +2        CAF      V05N09
000637: 26,2634           04662                           TC       BANKCALL
000638: 26,2635           20676                           CADR     GODSPR                                #  DO DISPLAY
000639: 26,2636           32646                           CA       10SECS
000640: 26,2637           04662                           TC       BANKCALL
000641: 26,2640           01732                           CADR     DELAYJOB
000642:
000643: 26,2641           01773        RETRN1             TC       60GENRET
000644:
000645: 26,2642  E7,1431                                  EBANK=   DVCNTR
000646: 26,2642           03227 76067  SERVCAD1           2CADR    SERVEXIT
000647:
000648: 26,2644           22111 17335  C(30)LIM           2DEC     .566985                               #  = 1.0 - .5 COS(30)
000649:
000650: 26,2646           01750        10SECS             DEC      1000       B-14                       #  1000 CS
000651: 26,2647           00000 13560  60SECDP            2DEC     6000       B-28                       #  6000 CS
000652:
000653:                                                                                                  #  Page 806
000654:                                                                                                  #  PROGRAM NAME:         S61.2                   DATE:           14 FEB 67
000655:                                                                                                  #  MOD NO:       1                               LOG SECTION:    P61-P67
000656:                                                                                                  #  MOD BY:       NORTH / BAIRNSFATHER
000657:                                                                                                  #  MOD NO: 2     MOD BY: NORTH/BAIRNSFATHER      DATE: 11 MAY 67         ADD 2ND ITER FOR ERAD AT 400K FT.
000658:                                                                                                  #  MOD NO: 3     MOD BY: RR BAIRNSFATHER         DATE: 21 NOV 67         VARIABLE MU ADDED.
000659:                                                                                                  #  MOD NO: 4     MOD BY: RR BAIRNSFATHER         DATE: 21 MAR 68         DIFFERENT EARTH/MOON SCALES IN TFF'S
000660:
000661:                                                                                                  #  FUNCTIONAL DESCRIPTION:  CALLED IN P61.  PROVIDES DISPLAYS FOR NOUNS  N60  AND  N63 .
000662:                                                                                                  #        PROGRAM CALCULATES ENTRY DISPLAY OF MAXIMUM ACCELERATION EXPECTED  (GMAX)  AND ALSO THE EXPECTED
000663:                                                                                                  #        INERTIAL VELOCITY (VPRED) AND ENTRY ANGLE  (GAMMAEI)  THAT WILL OBTAIN AT 400K FT ABOVE THE FISCHER
000664:                                                                                                  #        ELLIPSOID.  PROGRAM ALSO CALCULATES A SECOND DISPLAY RELATIVE TO THE  EMSALT  ABOVE FISCHER ELLIPSOID
000665:                                                                                                  #        AND CONSISTS OF RANGE TO SPLASH FOM NOW  (RTGO) , PREDICTED INERTIAL VELOCITY  (VIO) , AND THE TIME TO
000666:                                                                                                  #        GO FROM NOW  (TTE) .
000667:
000668:                                                                                                  #  CALLING SEQUENCE:     CALL
000669:                                                                                                  #                                S61.2
000670:                                                                                                  #                        C(MPAC) UNSPECIFIED
000671:                                                                                                  #                        PUSHLOC WILL BE SET TO ZERO.
000672:
000673:                                                                                                  #  SUBROUTINES CALLED:   TFFCONIC, CALCTFF, TFF/TRIG, FISHCALC, GETERAD, VGAMCALC
000674:
000675:                                                                                                  #  NORMAL EXIT MODES:    RTB, P61.1
000676:
000677:                                                                                                  #  ALARMS:       NONE
000678:
000679:                                                                                                  #  OUTPUT:       THE FOLLOWING REGISTERS ARE WRITTEN IN FOR USE BY DISPLAYS
000680:                                                                                                  #                GMAX    100 GMAX (-14) G,S      MAXIMUM ACCELERATION
000681:                                                                                                  #                VPRED   (-7) M/CS               PREDICTED VELOCITY AT 400K FT
000682:                                                                                                  #                GAMMAEI GAMMA/360               PREDICTED GAMMA    AT 400K FT
000683:                                                                                                  #                                                FOR TM, DP(GAMMAEI) = (GAMMAEI, RTGO) / 360
000684:                                                                                                  #                RTGO    THETAH/360              RANGE ANGLE TO SPLASH FROM EMSALT       EMSALT IS PAD LOADED.
000685:                                                                                                  #                VIO     (-7) M/CS               INTERTIAL VELOCITY AT      EMSALT       EMSALT IS PAD LOADED.
000686:                                                                                                  #                TTE     (-28) CS                TIME TO                    EMSALT       EMSALT IS PAD LOADED.
000687:                                                                                                  #                PUSHLOC = 0
000688:                                                                                                  #                CONIC PARAMETERS STORED IN VAC AREA (SEE TFF SUBROUTINES)
000689:
000690:                                                                                                  #  ERASABLE INITIALIZATION REQUIRED:
000691:                                                                                                  #                RONE    (-29) M                 STATE VECTOR                            LEFT BY USER
000692:                                                                                                  #                VONE    (-7) M/CS               STATE VECTOR                            LEFT BY USER
000693:                                                                                                  #                URONE   UR/2                                                            LEFT BY USER
000694:                                                                                                  #                UNI     (-1)                    UNIT NORMAL V*R                         LEFT BY ENTRY / P61
000695:                                                                                                  #                THETAH  THETAH/360              RANGE ANGLE                             LEFT BY ENTRY / P61
000696:                                                                                                  #                UNITW   (0)                     UNIT POLAR VECTOR                       LEFT BY PAD LOAD
000697:                                                                                                  #                EMSALT  (-29) M                 EMS INTERFACE ALTITUDE                  LEFT BY PAD LOAD
000698:                                                                                                  #                                                ORBITAL REENTRY: 284843 FT., LUNAR REENTRY: 297431 FT.
000699:
000700:                                                                                                  #  DEBRIS:       QPRET,
000701:                                                                                                  #                ALL PDL LOCATIONS ABOVE 12D, INCLUDING X1,X2,S1,S2
000702:                                                                                                  #                ALSO PDL+0 ... PDL+5, WHERE INITIAL PUSHLOC = PDL
000703:
000704:                                                                                                  #  Page 807
000705:                                                                                                  #  THE FOLLOWING PUSH LIST LOCATIONS HAVE BEEN RESERVED FOR TFF ROUTINES AND ARE REPEATED HERE FOR CONVENIENCE.
000706:                                                                                                  #  OF COURSE FOR S61.2 USAGE, EARTH ORIGIN SCALING IS USED.
000707:
000708:                                                                                                  #                                BELOW   E:  IS USED FOR EARTH ORIGIN SCALE
000709:                                                                                                  #                                        M:  IS USED FOR MOON ORIGIN SCALE
000710:
000711:                                                                                                  #        RTERM   =       18D             TERMINAL RADIUS M       E:  (-29)       M:  (-27)
000712:                                                                                                  #        NRTERM  =       16D             TERMINAL RADIUS M       E:  (-29+NR)
000713:                                                                                                  #                                                                M:  (-27+NR)
000714:                                                                                                  #        RMAG1   =       12D             PRESENT RADIUS M        E:  (-29)       M:  (-27)
000715:                                                                                                  #        NRMAG   =       32D             PRESENT RADIUS M        E:  (-29+NR)
000716:                                                                                                  #                                                                M:  (-27+NR)
000717:                                                                                                  #        SDELF/2                         SIN(THETA) / 2
000718:                                                                                                  #        CDELF/2 =       14D             COS(THETA) / 2
000719:                                                                                                  #        TFFX    =       34D             X, ARGUMENT OF SERIES T(X)
000720:                                                                                                  #        TFFTEM  =       36D             ARG FOR TRANSFER ANGLE CALCULATION
000721:                                                                                                  #        TFFNP   =       28D             LC P M                  E:  (-38+2NR)   M:  (-36+2NR)
000722:                                                                                                  #        TFF/RTMU=       30D             1/SQRT(MU)              E:  (17)        M:  (14)
000723:                                                                                                  #        TFFVSQ  =       20D             -(VN.VN/MU)     1/M     E:  (20)        M:  (18)
000724:
000725:                                                                                                  #  Page 808
000726: 34,3763                                           BANK     34
000727: 26,2000                                           SETLOC   P60S2
000728: 26,2000                                           BANK
000729:
000730: 26,2651                                           COUNT*   $$/S61.2
000731:                                                                                                  #  PDL LEFT AT ZERO BY TARGETING
000732:
000733: 26,2651           45345        S61.2              DLOAD    DSU
000734: 26,2652           02020                                    EMSALT
000735: 26,2653           15001                                    290KFT
000736: 26,2654           71244                           BPL      DLOAD
000737: 26,2655           54775                                    LUNENT
000738: 26,2656           17354                                    1/RTMU                                #  ESTABLISH MU FOR ORBITAL ENTRIES
000739: 26,2657           77624        CALLCON            CALL
000740: 26,2660           56757                                    TFFCONIC                              #  FILL VAC AREA WITH CONIC PARAMETERS
000741:
000742: 26,2661           45145                           DLOAD    CALL
000743: 26,2662           15021                                    RTRIAL                                #  1ST GUESS AT TERMINAL RADIUS  (-29)
000744: 26,2663           57067                                    CALCTFF                               #  SAVES MPAC IN RTERM           (18D)
000745:
000746: 26,2664           77624                           CALL                                           #  CALC SDELF/2, CDELF/2
000747: 26,2665           56631                                    TFF/TRIG                              #  RETURN WITH S(THETA) IN MPAC
000748:
000749: 26,2666           77624                           CALL                                           #  GET FISCHER RADIUS            (-29) M
000750: 26,2667           55030                                    FISHCALC                              #  ANS IN MPAC AND IN ERADM
000751:
000752: 26,2670           45015                           DAD      CALL
000753: 26,2671           02020                                    EMSALT
000754: 26,2672           57067                                    CALCTFF                               #  SAVES MPAC IN RTERM           (18D)
000755:
000756: 26,2673           77676                           DCOMP                                          #  NEGATIVE AS IN COUNTDOWN
000757: 26,2674           03733                           STORE    TTE1                                  #  DECR TTE FROM BASB TTE1.  (RESTART)
000758:                                                                                                  #  DNLIST AND DSKY WILL USE TTE.
000759: 26,2675           37727                           STCALL   TTE                                   #  LET MISS CONTRL DECR BY ELAPSED TIME
000760:                                                                                                  #  TTE= TIME FROM NOW TO EMSALT +FISCHER
000761:
000762: 26,2676           56631                                    TFF/TRIG                              #  S(THETA) IN MPAC ON RETURNING
000763:                                                                                                  #  AND THETA= RANGE FROM NOW TO EMSALT
000764:
000765: 26,2677           77624                           CALL
000766: 26,2700           55030                                    FISHCALC
000767: 26,2701           77624                           CALL
000768: 26,2702           56664                                    VRCALC
000769: 26,2703           77624                           CALL
000770: 26,2704           56651                                    DISPTARG
000771: 26,2705           77624                           CALL
000772: 26,2706           56651                                    DISPTARG
000773: 26,2707           37714                           STCALL   RTGO
000774:                                                                                                  #  Page 809
000775: 26,2710           55051                                    VGAMCALC
000776:
000777: 26,2711           77605                           DMP                                            #  MPAC = GAMMA
000778:                                                                                                  #  PDL0 HAS VGAM.
000779: 26,2712           43265                           BDDV     DAD
000780: 26,2713           15027                                    VEMSCON                               #  -HS D 180/PI (-14)
000781: 26,2714           00001                                    0                                     #  VGAM FROM PDL0
000782: 26,2715           17725                           STODL    VIO                                   #  PREDICTED VELOCITY AT EMSALT.
000783:
000784:                                                                                                  #  GAMMA AND VGAM AT 300K FT ARE REQUIRED BY GMAX
000785:                                                                                                  #  ALGORITHM.
000786:
000787: 26,2716           02241                                    ERADM                                 #  EARTH RADIUS FROM GETERAD (-29) M
000788:                                                                                                  #  = FISCHER RADIUS (-29)
000789:
000790: 26,2717           77615                           DAD
000791: 26,2720           06462                                    300KFT                                #  M (-29)
000792: 26,2721           34023                           STCALL   RTERM                                 #  TERMINAL RADIUS M (-29)
000793:
000794: 26,2722           55046                                    PREVGAM                               #  VGAMCALC WITH NEW RTERM
000795:
000796:                                                                                                  #  VBAR = (V(FPS) - 36KF/S) / 20 F/S
000797:                                                                                                  #  GMAX = (4/(1 + 4.8 VBARSQ))(GAM - 6.05 - 2.4 VBARSQ) - 10(L/D - .3) + 10      ASSUME L/D = 0.3, BANK =0.
000798:
000799:                                                                                                  #  GMAXCALC
000800: 26,2723           45325                           PDDL     DSU                                   #  GAM TO PDL2
000801: 26,2724           00001                                    0                                     #  VGAM IS IN PDL0 (-7)
000802: 26,2725           15005                                    36KFT/S                               #  (-7) M/CS
000803: 26,2726           63471                           DDV      DSQ
000804: 26,2727           15007                                    20KFT/S                               #  (-6) M/CS
000805: 26,2730           00001                           STORE    0                                     #  VBARSQ (-2) TO PDL0
000806:
000807: 26,2731           43205                           DMP      DAD
000808: 26,2732           15011                                    KR1
000809:                                                                                                  #  GAM, POS DOWN, FROM PDL2
000810: 26,2733           41215                           DAD      DMP
000811: 26,2734           15013                                    -6.05DEG
000812: 26,2735           15015                                    KR2
000813: 26,2736           77725                           PDDL                                           #  XCH PDL+0 FOR VBARSQ (-2)
000814: 26,2737           43271                           DDV      DAD
000815: 26,2740           15025                                    KR4
000816: 26,2741           17366                                    DP2(-4)
000817: 26,2742           77665                           BDDV
000818:                                                                                                  #  NUM FROM PDL+0
000819: 26,2743           51015                           DAD      BPL
000820: 26,2744           15017                                    KR3
000821: 26,2745           54750                                    +3
000822: 26,2746           77745                           DLOAD
000823: 26,2747           15335                                    HI6ZEROS
000824: 26,2750           17722                           STODL    GMAX                                  #  100 GMAX (-14)
000825:                                                                                                  #  Page 810
000826:                                                                                                  #  DISPLAY USES GMAX AS SP, SO LO WORD IS WRITTEN OVER BY VPRED.
000827: 26,2751           02241                                    ERADM                                 #  = FISCHER RADIUS (-29) M
000828: 26,2752           45015                           DAD      CALL                                  #  2 ND ITERATION FOR FISCHER RADIUS
000829: 26,2753           15023                                    400KFT
000830: 26,2754           57067                                    CALCTFF                               #  ESTABLISH TRANSFER ANGLE DATA.
000831: 26,2755           77624                           CALL
000832: 26,2756           56631                                    TFF/TRIG                              #  GET SIN, COS DELF
000833: 26,2757           77624                           CALL
000834: 26,2760           55030                                    FISHCALC                              #  GET CORRESPONDING FISCHER RADIUS.
000835:
000836: 26,2761           73015                           DAD      LXA,2                                 #  SAVE HI-WORD FOR DOWNLIST.
000837: 26,2762           15023                                    400KFT                                #  M (-29)
000838: 26,2763           03713                                    RTGO                                  #  (RANGE ANGLE FROM EMSALT) / 360
000839: 26,2764           34023                           STCALL   RTERM
000840: 26,2765           55046                                    PREVGAM                               #  VGAMCALC WITH NEW RTERM
000841:
000842: 26,2766           67076                           DCOMP    SXA,2                                 #  HI-WORD OF EACH ON DOWNLIST.
000843: 26,2767           00155                                    MPAC       +1
000844: 26,2770           17771                           STODL    GAMMAEI                               #  CONIC GAMMA/360 AT 400K FT.   (HI-WORD)
000845:                                                                                                  #  CONIC RTGO/360 FROM EMSALT   (LOW-WORD)
000846:                                                                                                  #  FOR TM, DP(GAMMAEI) = (GAMMA, RTGO) / 360
000847:
000848:                                                                                                  #  VGAM FROM PDL+0 (-7)
000849: 26,2771           77626                           STADR
000850: 26,2772           74010                           STORE    VPRED                                 #  CONIC VELOCITY AT 400K FT
000851:
000852: 26,2773           77634                           RTB
000853: 26,2774           54267                                    P61.1
000854:                                                                                                  #  PDL BACK TO ZERO.
000855:
000856: 26,2775           52145        LUNENT             DLOAD    GOTO
000857: 26,2776           06456                                    1/RTMUE                               #  ESTABLISH MU FOR LUNAR TYPE ENTRIES
000858: 26,2777           54657                                    CALLCON
000859: 26,3000           00002 26244  290KFT             2DEC     88392.0    B-29
000860:
000861: 26,3002           00052 05716  KTETA1             2DEC*    .421844723 E2         B-14*           #  110 2PI/16384(163.84)
000862:
000863: 26,3004           33335 05707  36KFT/S            2DEC     109.728    B-7                        #  (-7) M/CS = 36 KFT/S (-7)
000864:
000865: 26,3006           36365 30244  20KFT/S            2DEC     121.92     B-7                        #  (-6) M/CS = 2 20KFT/S (-7)
000866:
000867: 26,3010           77113 42770  KR1                2DEC     -.026666667                            #  = -2.4 4 / 360
000868:
000869: 26,3012           77354 65030  -6.05DEG           2DEC     -.016805556                            #  = -6.05 / 360
000870:
000871: 26,3014           21450 00001  KR2                2DEC     .54931641                             #  = (360/4) 100 (-14) = 9000 B-14
000872:
000873: 26,3016           01750 00000  KR3                2DEC     1000       B-14                       #  = 100 (10.0) (-14) G,S
000874:                                                                                                  #  Page 811
000875:                                                                                                  #  ASSUMES L/D = 0.3, BANK =0.
000876: 26,3020           00305 04541  RTRIAL             2DEC     6460097.18 B-29                       #  RPAD +264643 FT =21 194 545 FT
000877:                                                                                                  #  RPAD DEFINED AS 20 909 901.57 FT =6 373 336 M
000878: 26,3022           00003 27040  400KFT             2DEC     121920     B-29                       #  METERS
000879:
000880:                                                                                                  #  300KFT        2DEC    91440 B-29      # (-29) M
000881:
000882:                                                                                                  #  EMSALT        2DEC    86759.2 B-29    # 284643 FT (-29) M     (ORBITAL REENTRY)
000883:
000884:                                                                                                  #  EMSALT        2DEC    90657 B-29      # 297431 FT (-29) M     (LUNAR REENTRY)
000885:
000886: 26,3024           32525 12525  KR4                2DEC     .833333333
000887:
000888: 26,3026  23,2461               300KFT             EQUALS   MINPERE
000889: 26,3026           77777 76601  VEMSCON            2DEC     -.0389676  B-14                       #  = -HS D / 2 PI (-14)  M SQ / CS SQ
000890:
000891:                                                                                                  #  = -16369      .05G    32.2    .3048   .3048/2 PI      (-14)
000892:
000893:                                                                                                  #  Page 812
000894:                                                                                                  #  SUBROUTINE NAME:  FISHCALC    (USED BY S61.2)         DATE:           01.21.67
000895:                                                                                                  #  MOD NO: 0                                             LOG SECTION:    P61-P67
000896:                                                                                                  #  MOD BY: MORTH / BAIRNSFATHER
000897:                                                                                                  #  MOD NO: 1     MOD BY: RR BAIRNSFATHER                 DATE:           11 MAY 67       INCLUDE GETERAD CALL
000898:
000899:                                                                                                  #  FUNCTIONAL DESCRIPTION:  GIVEN THE PRESENT POSITION, UNITR, CALCULATE A NEW UNITR THAT IS ROTATED THROUGH
000900:                                                                                                  #        TRANSFER ANGLE, THETA, ALONG THE TRAJECTORY.  THEN CALCULATE SIN(LAT) AND USE TO OBTAIN FISCHER RADIUS.
000901:                                                                                                  #        SINCE FISHCALC USED UNI (LEFT BY ENTRY) EARTH SCALING IS ASSUMED.  (WILL IMPROVE FOR SUITABLE TENNANT)
000902:
000903:                                                                                                  #  CALLING SEQUENCE:     CALL
000904:                                                                                                  #                                FISHCALC
000905:                                                                                                  #        ENTER WITH .5 SIN(THETA) IN MPAC.
000906:                                                                                                  #        PUSHLOC IS AT PDL+0, AN ARBITRARY BASE VALUE IF LEQ 8D
000907:
000908:                                                                                                  #  SUBROUTINES CALLED:  GET ERAD
000909:
000910:                                                                                                  #  NORMAL EXIT MODE:  RVQ
000911:
000912:                                                                                                  #  EXIT MODES:   NONE
000913:
000914:                                                                                                  #  OUTPUT:       ERADM (-29) M IN MPAC ON RETURNING
000915:                                                                                                  #                NEW UNIT VECTOR NOT SAVED.
000916:                                                                                                  #                SIN(LAT) NOT SAVED.
000917:                                                                                                  #                PUSHLOC AT PDL+0
000918:
000919:                                                                                                  #  ERASABLE INITIALIZATION REQUIRED:
000920:                                                                                                  #                SDELF/2         =SIN(THETA) / 2, IN MPAC                LEFT BY TFF/TRIG
000921:                                                                                                  #                CDELF/2         =COS(THETA) / 2, STORED IN PDL 14D      LEFT BY TFF/TRIG
000922:                                                                                                  #                RONE            (-29) M                                 LEFT BY USER
000923:                                                                                                  #                VONE            (-7) M/CS                               LEFT BY USER
000924:                                                                                                  #                URONE           UR/2                                    LEFT BY USER
000925:                                                                                                  #                UNI             .5 UNIT(V*R)                            LEFT BY ENTRY / P61
000926:                                                                                                  #                UNITW           UNIT NORTH POLE                         LEFT BY PAD LOAD
000927:
000928:                                                                                                  #  DEBRIS:       QPRET, PDL+0 ... PDL+5
000929:                                                                                                  #  _      _          _
000930: 26,3030           47315        FISHCALC           PDVL     VXV                                   #  URPR = UR CDELF + UHOR SDELF
000931: 26,3031           02343                                    URONE
000932: 26,3032           03502                                    UNI
000933: 26,3033           76561                           VXSC     VSL1
000934:                                                                                                  #  SIN(THETA) / 2 FROM PDL+0
000935: 26,3034           74315                           PDVL     VXSC                                  #  TO PDL+0, +5
000936: 26,3035           02343                                    URONE
000937: 26,3036           00017                                    CDELF/2                               #  COS(THETA) / 2
000938: 26,3037           45455                           VAD      STADR
000939: 26,3040           74235                           STORE    URH                                   #  FOR USE IN RTGO FROM EMS DISPLAY
000940: 26,3041           72441                           DOT      SL1
000941: 26,3042           01714                                    UNITW                                 #  PULL UNIT VECTOR      UNIT NORTH
000942: 26,3043           02156                           STORE    ALPHAV     +4                         #  = .5 SIN(LAT)
000943: 26,3044           77650        DUMPFISH           GOTO
000944: 26,3045           26505                                    GETERAD                               #  SAVES FISCHER RAD (-29) M IN ERADM AND
000945:                                                                                                  #  IN MPAC.  RETURNS TO CALLER VIO QPRET.
000946:
000947:                                                                                                  #  Page 813
000948:                                                                                                  #  SUBROUTINE NAME:  VGAMCALC    (USED BY S61.2)                         DATE:           01.21.67
000949:                                                                                                  #  MOD NO: 0                                                             LOG SECTION:    P61-P67
000950:                                                                                                  #  MOD BY: MORTH / BAIRNSFATHER
000951:                                                                                                  #  MOD NO: 1     MOD BY: RR BAIRNSFATHER         DATE: 11 APR 67
000952:                                                                                                  #  MOD NO: 2     MOD BY: RR BAIRNSFATHER         DATE: 21 NOV 67         VARIABLE MU ADDED.
000953:                                                                                                  #  MOD NO: 3     MOD BY: RR BAIRNSFATHER         DATE: 21 MAR 68         ACCEPT DIFFERENT EARTH/MOON SCALE
000954:
000955:                                                                                                  #  FUNCTONAL DESCRIPTION:  EARTH CENTERED VIS VIVA CALCULATION OF TERMINAL VELOCITY AND GAMMA (REL TO
000956:                                                                                                  #        HORIZONTAL) GIVEN THE SCALAR QUANTITIES:  PRESENT RADIUS AND VELOCITY AND THE TERMINAL RADIUS.
000957:                                                                                                  #        THE USER MUST APPEND PROPER SIGN TO GAMMA, SINCE IT IS CALCULATED AS A POSITIVE NUMBER.
000958:                                                                                                  #        THE EQUATIONS ARE
000959:
000960:                                                                                                  #                VGAM = SQRT(VN VN/MU + 2(RN-RTERM)/(RN RTERM) ) RTMU
000961:
000962:                                                                                                  #                COSGAM = H / RTERM VGAM = SQRT (LCP) / (RTERM VGAM/RTMU)
000963:
000964:                                                                                                  #        VGAMCALC ASSUMES THAT THE TERMINAL RADIUS IS LESS THAN THE PRESENT RADIUS.  BOTH CALCTFF AND CALCTPER
000965:                                                                                                  #        MAKE THIS ASSUMPTION.
000966:
000967:                                                                                                  #  CALLING SEQUENCE:     CALL                    STCALL  RTERM
000968:                                                                                                  #                                VGAMCALC                PREVGAM
000969:                                                                                                  #        PUSHLOC AT PDL+0, ARBITRARY IF LEQ 12D
000970:                                                                                                  #        C(MPAC) UNSPECIFIED                     C(MPAC)=NEW RTERM
000971:
000972:                                                                                                  #  SUBROUTINES CALLED:  NONE
000973:
000974:                                                                                                  #  NORMAL EXIT MODE:  RVQ
000975:
000976:                                                                                                  #  ALARMS:       NONE
000977:                                                                                                  #
000978:                                                                                                  #  OUTPUT:       GAMMA / 360 IN MPAC, POSITIVE NUMBER
000979:                                                                                                  #                VGAM    E: (-7)   M: (-5)       M/CS IN PDL+0
000980:                                                                                                  #                PUSHLOC AT PDL+2
000981:
000982:                                                                                                  #  ERASABLE INITIALIZATION REQD:
000983:                                                                                                  #        TFF/RTMU  E: (17)   M: (14)     1/SQRT(MU)                              LEFT BY TFFCONIC
000984:                                                                                                  #        RMAG1     E: (-29)  M: (-27)    M  PRESENT RADIUS LENGTH                LEFT BY TFFCONIC
000985:                                                                                                  #        NRMAG     E: (-29+NR)           M  NORM LENGTH OF PRESENT POSITION      LEFT BY TFFCONIC
000986:                                                                                                  #                  M: (-27+NR)
000987:                                                                                                  #        RTERM     E: (-29)  M: (-27)    M  TERMINAL RADIUS LENGTH               LEFT BY CALCTFF
000988:                                                                                                  #        NRTERM    E: (-29+NR)           M  NORM LENGTH OF TERMINAL RADIUS       LEFT BY CALCTFF
000989:                                                                                                  #                  M: (-27+NR)
000990:                                                                                                  #        TFFVSQ    E: (20)   M: (18)   1/M  -(V SQ/MU): PRESENT VELOCITY, NORM   LEFT BY TFFCONIC
000991:                                                                                                  #        TFFNP     E: (-38+2NR)          M  LCP, SEMI-LATUS RECTUM, WEIGHT NR    LEFT BY TFFCONIC
000992:                                                                                                  #                  M: (-36+2NR)
000993:
000994:                                                                                                  #  DEBRIS:       QPRET, PDL+0 ... PDL+3
000995:                                                                                                  #                RTERM, NRTERM IF PREVGAM ENTERED.
000996:                                                                                                  #  Page 814
000997:
000998: 26,3046           77657        PREVGAM            SL*                                            #  ENTER WITH NEW RTERM IN MPAC
000999:                                                                                                  #  E: (-29)  M: (-27)
001000: 26,3047           20201                                    0,1                                   #  X1 = -NR
001001: 26,3050           00021                           STORE    NRTERM                                #  RTERM M               E: (-29+NR)     M: (-27+NR)
001002:
001003: 26,3051           41345        VGAMCALC           DLOAD    DMP
001004: 26,3052           00041                                    NRMAG                                 #  RMAG M                E: (-29+NR)     M: (-27+NR)
001005: 26,3053           00021                                    NRTERM                                #  RTERM M               E: (-29+NR)     M: (-27+NR)
001006: 26,3054           45325                           PDDL     DSU                                   #  RMAG RTERM M          E: (-58+2NR)    M: (-54+2NR)
001007: 26,3055           00041                                    NRMAG                                 #  RMAG M                E: (-29+NR)     M: (-27+NR)
001008: 26,3056           00021                                    NRTERM                                #  RTERM M               E: (-29+NR)     M: (-27+NR)
001009: 26,3057           56257                           SL*      DDV                                   #  2(RN-RTERM)           E: (-30+NR)     M: (-28+NR)
001010: 26,3060           20171                                    0          -8D,1                      #  (-8+NR)
001011:                                                                                                  #  PUSH UP PRODUCT.
001012: 26,3061           77625                           DSU
001013: 26,3062           00025                                    TFFVSQ                                #  -(V SQ/MU)            E: (20)         M: (18)
001014: 26,3063           41566                           SQRT     PUSH                                  #  SAVE VGAM/RT(MU) FOR NOW.     E: (10) M: (9)
001015: 26,3064           65271                           DDV      PDDL                                  #  XCH PDL+0, LEAVING VGAM FOR OUTPUT.
001016:                                                                                                  #  VGAM TO PDL M/CS      E: (-7)         M: (-2)
001017: 26,3065           00037                                    TFF/RTMU                              #                        E: (17)         M: (14)
001018: 26,3066           65205                           DMP      PDDL                                  #  RTERM VGAM/RTMU       E: (-19+NR)     M: (-18+NR)
001019: 26,3067           00021                                    NRTERM                                #  RTERM M               E: (-29+NR)     M: (-27+NR)
001020: 26,3070           00035                                    TFFNP                                 #  LC P =H.H/MU M        E: (-38+2NR)    M: (-36+2NR)
001021: 26,3071           56366                           SQRT     DDV                                   #                        E: (-19+NR)     M: (-18+NR)
001022:                                                                                                  #  PUSH UP DEN           E: (-19+NR)     M: (-18+NR)
001023:                                                                                                  #  USE DDV OVFL AS LIMITER (|COS| <1.0)
001024: 26,3072           65542                           SR1      ACOS
001025: 26,3073           77616        DUMPVGAM           RVQ
001026:                                                                                                  #  CALLER MUST SUPPLY OWN SIGN ...
001027:                                                                                                  #                        22W     27MS
001028:
001029:                                                                                                  #  Page 815
001030:                                                                                                  #  SUBROUTINE NAME:      TFF/TRIG        (USED BY S61.2)         DATE:           01.17.67
001031:                                                                                                  #  MOD NO: 0                                                     LOG SECTION:    P61-P67
001032:                                                                                                  #  MOD BY: RR BAIRNSFATHER
001033:                                                                                                  #  MOD NO: 1     MOD BY: RR BAIRNSFATHER         DATE: 14 APR 67
001034:                                                                                                  #  MOD NO: 2     MOD BY: RR BAIRNSFATHER         DATE: 21 MAR 68         ACCEPT DIFFERENT EARTH/MOON SCALE
001035:
001036:                                                                                                  #  FUNCTIONAL DESCRIPTION:  USED BY ENTRY DISPLAY TO CALCULATE SIN(THETA), COS(THETA) FROM DATA LEFT IN
001037:                                                                                                  #        PDL BY TFF SUBROUTINES.  THE EQNS ARE
001038:
001039:                                                                                                  #                COS(THETA) = 1-2 ABS(ARG) / (RN RTERM (1+X) )
001040:                                                                                                  #                                                2
001041:                                                                                                  #                SIN(THETA) = SGN(ARG) SQRT(1-COS (THETA) )
001042:
001043:                                                                                                  #        WHERE THETA = TRANSFER ANGLE
001044:                                                                                                  #        AND     ARG = P Z ABS(Z)                        IF ALFA ZZ LEQ 1
001045:                                                                                                  #                ARG = (P / ALFA) SGN(Q1 + R 1/Z)        IF ALFA Z Z G 1
001046:                                                                                                  #        AND  ARG  HAS BEEN AFFIXED WITH THE SIGN OF SIN(THETA)
001047:
001048:                                                                                                  #  CALLING SEQUENCE:     CALL
001049:                                                                                                  #                                TFF/TRIG
001050:                                                                                                  #                PUSHLOC AT PDL+0, ARBITRARY IF NOT EQ 14D
001051:                                                                                                  #                C(MPAC) UNSPECIFIED
001052:
001053:                                                                                                  #  SUBROUTINES CALLED:  NONE
001054:
001055:                                                                                                  #  NORMAL EXIT MODES:  RVQ
001056:
001057:                                                                                                  #  ALARMS:       NONE
001058:
001059:                                                                                                  #  OUTPUT:       C(MPAC) = .5 SIN(THETA)
001060:                                                                                                  #                CDELF/2 = .5 COS(THETA)         (IN PDL 14D)
001061:                                                                                                  #                PUSHLOC AT PDL+0
001062:
001063:                                                                                                  #  ERASABLE INITIALIZATION REQUIRED:
001064:                                                                                                  #                TFFX                    X                                       LEFT BY CALCTFF OR CALCTPER
001065:                                                                                                  #                TFFTEM  E: (-59+2NR)    ARG                                     LEFT BY CALCTFF OR CALCTPER
001066:                                                                                                  #                        M: (-55+2NR)    WHERE ARG = LCF ZZ SGN(DELF) OR ARG = LCP/ALFA SGN(DELF)
001067:                                                                                                  #                NRTERM  E: (-29+NR)     M  NORM LENGTH OF TERMINAL RADIUS       LEFT BY CALCTFF OR CALCTPER
001068:                                                                                                  #                        M: (-27+NR)
001069:                                                                                                  #                NRMAG   E: (-29+NR)     M  NORM LENGTH OF PRESENT POSITION      LEFT BY TFFCONIC
001070:                                                                                                  #                        M: (-27+NR)
001071:
001072:                                                                                                  #  DEBRIS:       QPRET, CDELF/2
001073:
001074: 27,2631                                           BANK     27
001075: 27,2000                                           SETLOC   P60S5
001076: 27,2000                                           BANK
001077: 27,2631           70545        TFF/TRIG           DLOAD    SR1
001078: 27,2632           00043                                    TFFX
001079: 27,2633           41215                           DAD      DMP
001080: 27,2634           15333                                    HIDPHALF
001081: 27,2635           00041                                    NRMAG                                 #  RMAG M                E: (-29+NR)     M: (-27+NR)
001082: 27,2636           55205                           DMP      BDDV
001083: 27,2637           00021                                    NRTERM                                #  RTERM M               E: (-29+NR)     M: (-27+NR)
001084: 27,2640           00045                                    TFFTEM                                #  P ZSQ OR P/ALFA       E: (-59+2NR)    M: (-55+2NR)
001085: 27,2641           44246                           ABS      BDSU                                  #  THE SIGN IS FOR SDELF.
001086: 27,2642           15333                                    HIDPHALF
001087: 27,2643           00017                           STORE    CDELF/2                               #  .5 COS(THETA)
001088: 27,2644           57516                           DSQ      DCOMP                                 #  KEEP HONEST FOR SQRT.
001089:                                                                                                  #  Page 816
001090: 27,2645           75415                           DAD      SQRT
001091: 27,2646           15325                                    HIDP1/4
001092: 27,2647           43565        DUMPTRIG           SIGN     RVQ
001093: 27,2650           00045                                    TFFTEM                                #  AFFIX SIGN(DELE/2)
001094:                                                                                                  #  RETURN WITH .5 SIN(THETA) IN MPAC
001095:
001096:                                                                                                  #                        16W     15MS
001097:
001098: 27,2651           77620        DISPTARG           STQ                                            #  C(MPAC = TRGO ESTIMATE
001099: 27,2652           03373                                    60GENRET
001100: 27,2653           45205                           DMP      DSU
001101: 27,2654           15003                                    KTETA1
001102: 27,2655           03733                                    TTE1
001103: 27,2656           37606                           STCALL   DTEAROT
001104: 27,2657           46225                                    EARROT2
001105: 27,2660           77624                           CALL
001106: 27,2661           56664                                    VRCALC
001107: 27,2662           77650                           GOTO
001108: 27,2663           03373                                    60GENRET
001109: 27,2664           50375        VRCALC             VLOAD    DOT
001110: 27,2665           03542                                    URH
001111: 27,2666           03474                                    RT
001112: 27,2667           65512                           SL2      ACOS
001113: 27,2670           77616                           RVQ
001114:
001115:                                                                                                  #  END OF PROGRAM S61.2
001116:
001117:                                                                                                  #  Page 817
001118:                                                                                                  #  PROGRAM DESCRIPTION S62.3     DATE 10JAN67
001119:                                                                                                  #  MOD NO 1:                     LOG SECTION P60-P67
001120:                                                                                                  #  MOD BY ZELDIN
001121:                                                                                                  #  MOD NO: 2     MOD BY: RR BAIRNSFATHER         DATE: 15 MAY 67         CHANGED TO REF COORDS.
001122:                                                                                                  #  MOD NO: 3     MOD BY: RR BAIRNSFATHER         DATE: 17 JAN 68         ALFAPAD CHANGES MADE.
001123:
001124:                                                                                                  #  FUNCTIONAL DESCRIPTION
001125:
001126:                                                                                                  #        COMPUTE DESIRED GIMBAL ANGLES FOR ENTRY ATTITUDE
001127:                                                                                                  #        THE FOLLOWING TRAJECTORY TRIAD IS AVAILABLE IN MEMORY AND IS COMPUTED EACH 2 SECONDS BY CM/POSE IN
001128:                                                                                                  #        REFERENCE COORDINATES (V = VELOCITY RELATIVE TO EARTH):
001129:
001130:                                                                                                  #                UXA = -UNIT(V)
001131:                                                                                                  #                UYA =  UNIT(V*R)
001132:                                                                                                  #                UZA =  UXA*UYA
001133:
001134:                                                                                                  #        GENERATE A DESIRED BODY TRIAD FOR TRIMMED FLIGHT WITH RESPECT TO THE RELATIVE VELOCITY VECTOR, USING
001135:                                                                                                  #        ROLL COMMAND AND TRIM ANGLE OF ATTACK:
001136:
001137:                                                                                                  #                UXD = UNIT(UYD*UXA) SIN(ALFATRIM) + UXA COS(ALFATRIM)
001138:                                                                                                  #                UYD = UYA COS(ROLLC) + UZA SIN(ROLLC)
001139:                                                                                                  #                UZD = UXD * UYD
001140:
001141:                                                                                                  #        USE THE DESIRED SET (IN REFERENCE COORDS) AND REFSMMAT TO CALL  CALCGA  AND OBTAIN GIMBAL ANGLES
001142:                                                                                                  #        IN 2S, C IN MPAC, +2 AND THETAD, +2.
001143:
001144:                                                                                                  #  CALLING SEQUENCE
001145:
001146:                                                                                                  #        L       CALL
001147:                                                                                                  #        L+1             S62.3
001148:
001149:                                                                                                  #  NORMAL EXIT MODE
001150:
001151:                                                                                                  #        RETURN VIA QPRET DIRECTLY FROM CALCGA.
001152:
001153:                                                                                                  #  SUBROUTINES CALLED
001154:
001155:                                                                                                  #        CALCGA
001156:
001157:                                                                                                  #  ALARM OR ABORT MODES
001158:
001159:                                                                                                  #        NONE
001160:
001161:                                                                                                  #  ERASABLE INITIALIZATION REQUIRED
001162:
001163:                                                                                                  #        ROLLC   ROLL COMMAND            DP 1'S COMP AT 1REV
001164:                                                                                                  #        ALFAPAD SP 1'S C / 180          LEFT BY PAD LOAD        ALFATRIM IS NEGATIVE.
001165:                                                                                                  #        UXA/2   REF COORDS              LEFT BY CM/POSE
001166:                                                                                                  #        UYA/2   REF COORDS              LEFT BY CM/POSE
001167:                                                                                                  #        UZA/2   REF COORDS              LEFT BY CM/POSE
001168:
001169:                                                                                                  #  OUTPUT
001170:                                                                                                  #
001171:                                                                                                  #        CPHI    GIMBAL ANGLES (O,I,M) 2'S COMP TP (O,I,M)/180
001172:
001173:                                                                                                  #  DEBRIS
001174:
001175:                                                                                                  #        QTEMP, QPRET, PUSHLIST
001176:
001177: 10,2376                                           BANK     10
001178: 10,2000                                           SETLOC   P60S4
001179: 10,2000                                           BANK
001180:                                                                                                  #  Page 818
001181: 10,2376                                           COUNT*   $$/S62.3
001182:
001183: 10,2376           67201        S62.3              SETPD    SLOAD
001184: 10,2377           00001                                    0
001185: 10,2400           03012                                    ALFAPAD                               #  ALFATRIM / 180, ALFA IS NEG.
001186: 10,2401           41542                           SR1      PUSH
001187: 10,2402           65346                           COS      PDDL                                  #  XCH PDL, COS TO PDL0
001188: 10,2403           65356                           SIN      PDDL                                  #  SIN TO PDL2
001189: 10,2404           03316                                    ROLLC
001190: 10,2405           74346                           COS      VXSC
001191: 10,2406           03550                                    UYA/2                                 #                                REF COORDS
001192: 10,2407           73525                           PDDL     SIN                                   #  PUSH VECTOR INTO PDL4...9
001193: 10,2410           03316                                    ROLLC
001194: 10,2411           53361                           VXSC     VAD
001195: 10,2412           03556                                    UZA/2                                 #                                REF COORDS
001196:                                                                                                  #  VECTOR FROM PDL4...9
001197: 10,2413           77772                           VSL1
001198: 10,2414           02722                           STORE    YNB                                   #  = UYD                         REF COORDS
001199:
001200: 10,2415           76435                           VXV      VSL1
001201: 10,2416           03542                                    UXA/2                                 #                                REF COORDS
001202: 10,2417           65361                           VXSC     PDDL
001203:                                                                                                  #  SIN TRIM FROM PDL2
001204:                                                                                                  #  XCH PDL0 FOR COS TRIM
001205: 10,2420           53361                           VXSC     VAD
001206: 10,2421           03542                                    UXA/2                                 #                                REF COORDS
001207:                                                                                                  #  FROM PDL0
001208: 10,2422           77772                           VSL1
001209: 10,2423           02714                           STORE    XNB                                   #  X SC AXIS (.5 UNIT)           REF COORDS
001210:
001211: 10,2424           76435                           VXV      VSL1
001212: 10,2425           02722                                    YNB
001213: 10,2426           26730                           STOVL    ZNB                                   #  Z SC IN REF COOR. SCALED AT 2
001214: 10,2427           01736                                    REFSMMAT
001215: 10,2430           26672                           STOVL    XSM
001216: 10,2431           01744                                    REFSMMAT   +6
001217: 10,2432           26700                           STOVL    YSM
001218: 10,2433           01752                                    REFSMMAT   +12D
001219: 10,2434           02706                           STORE    ZSM
001220:
001221: 10,2435           52014                           CLEAR    GOTO
001222: 10,2436           00260                                    CPHIFLAG                              #  CAUSE CALCGA TO STORE ANS IN TP CPHI
001223: 10,2437           47311                                    CALCGA
001224:                                                                                                  #  CALCGA WILL RETURN TO ORIGINAL CALLER
001225:                                                                                                  #  VIA QPRET WITH 2'S COMP. ANGLES IN CPHI
001226:
001227:
001228:

End of include-file P61-P67.agc.  Parent file is MAIN.agc


