
Source Code


000002:                                                                                                  ## Copyright:   Public domain.
000003:                                                                                                  ## Filename:    P61-P67.agc
000004:                                                                                                  ## Purpose:     Part of the source code for Comanche, build 055. It
000005:                                                                                                  ##              is part of the source code for the Command Module's
000006:                                                                                                  ##              (CM) Apollo Guidance Computer (AGC), Apollo 11.
000007:                                                                                                  ## Assembler:   yaYUL
000008:                                                                                                  ## Reference:   pp. 789-818
000009:                                                                                                  ## Contact:     Ron Burkey <info@sandroid.org>
000010:                                                                                                  ## Website:     http://www.ibiblio.org/apollo.
000011:                                                                                                  ## Mod history: 2009-05-12 RSB  Adapted from Colossus249 file of the same
000012:                                                                                                  ##                              name and Comanche 055 page images.
000013:                                                                                                  ##              2009-05-20 RSB  Corrections:  V06N68 -> V06N74, added missing
000014:                                                                                                  ##                              definition of V06N74, in several
000015:                                                                                                  ##                              interpreter operands fixed stuff like
000016:                                                                                                  ##                              N-M,1 to N -M,1
000017:                                                                                                  ##              2010-08-28 JL   Fixed some indentation.
000018:                                                                                                  ##              2016-12-10 RSB  All of the GOTOPOOH's should have been
000019:                                                                                                  ##                              GOTOPOOH, and I've changed them back.
000020:                                                                                                  ##              2016-12-11 RSB  Proofed comments with octopus/ProoferComments
000021:                                                                                                  ##                              and fixed the errors found.
000022:                                                                                                  ##              2017-01-18 RSB  Fixed comment-text errors noted while diff'ing
000023:                                                                                                  ##                              vs Colossus 249.
000024:                                                                                                  ##              2017-02-08 RSB  Fixed comment-text errors noted while diff'ing
000025:                                                                                                  ##                              vs Artemis 72.
000026:                                                                                                  ##
000027:                                                                                                  ## The contents of the "Comanche055" files, in general, are transcribed
000028:                                                                                                  ## from scanned documents.
000029:                                                                                                  ##
000030:                                                                                                  ##       Assemble revision 055 of AGC program Comanche by NASA
000031:                                                                                                  ##       2021113-051.  April 1, 1969.
000032:                                                                                                  ##
000033:                                                                                                  ##       This AGC program shall also be referred to as Colossus 2A
000034:                                                                                                  ##
000035:                                                                                                  ##       Prepared by
000036:                                                                                                  ##                       Massachusetts Institute of Technology
000037:                                                                                                  ##                       75 Cambridge Parkway
000038:                                                                                                  ##                       Cambridge, Massachusetts
000039:                                                                                                  ##
000040:                                                                                                  ##       under NASA contract NAS 9-4065.
000041:                                                                                                  ##
000042:                                                                                                  ## Refer directly to the online document mentioned above for further
000043:                                                                                                  ## information.  Please report any errors to info@sandroid.org.
000044:


000046:                                                                                                  #  PROGRAM:      P61
000047:                                                                                                  #  MOD NO.:      0       MAR. 13, 1967
000048:                                                                                                  #  MOD BY:       R. HIRSCHKOP
000049:                                                                                                  #  MOD NO: 1     MOD BY:  RR BAIRNSFATHER        DATE: 22 JUN 67         RESTARTS.
000050:                                                                                                  #  MOD NO: 2     MOD BY:  RR BAIRNSFATHER        DATE: 17 JAN 68         COLOSSUS GSOP CHANGES.
000051:                                                                                                  #  MOD NO: 3     MOD BY:  RR BAIRNSFATHER        DATE:  8 MAY 68         DELETE CMSM MANEUVER (PCR 50)
000052:                                                                                                  #  FUNCTION:     TO CALCULATE AND DISPLAY EMS INITIALIZATION DATA
000053:                                                                                                  #  CALLING SEQUENCE-  BY V37
000054:                                                                                                  #  EXIT-         TO P62
000055:                                                                                                  #  SUBROUTINE CALLS-  S61.1, S61.3, GOFLASH, FLAGUP, R02BOTH
000056:                                                                                                  #  ERASABLE INITIALIZATION:
000057:                                                                                                  #        EMSALT (-29) M          .05G ALTITUDE ABOVE FISCHER ELLIPSOID   PAD LOADED.
000058:                                                                                                  #        ALFAPAD /180            HYPERSONIC CM TRIM ANGLE OF ATTACK      PAD LOADED
000059:                                                                                                  #  OUTPUT:       THE FOLLOWING REGISTERS ARE WRITTEN IN FOR USE BY DISPLAYS
000060:                                                                                                  #                GMAX    100 GMAX (-14) G,S      MAXIMUM ACCELERATION
000061:                                                                                                  #                VPRED   (-7) M/CS               PREDICTED VELOCITY AT 400K FT
000062:                                                                                                  #                GAMMAEI GAMMA/360               PREDICTED GAMMA    AT 400K FT
000063:                                                                                                  #                RTGO    THETAH/360              RANGE ANGLE TO SPLASH FROM EMSALT       EMSALT IS PAD LOADED
000064:                                                                                                  #                VIO     (-7) M/CS               INERTIAL VELOCITY AT       EMSALT       EMSALT IS PAD LOADED
000065:                                                                                                  #                TTE     (-28) CS                TIME TO                    EMSALT       EMSALT IS PAD LOADED
000066:                                                                                                  #                LAT(SPL) /360                   TARGET LOCATION                         LEFT BY DSKY
000067:                                                                                                  #                LNG(SPL) /360                   TARGET LOCATION                         LEFT BY DSKY
000068:                                                                                                  #                HEADSUP (0)                     +1 = LIFT DOWN, -1 = LIFT UP            LEFT BY DSKY
000069:                                                                                                  #  DEBRIS:       SEE SUBROUTINES.
000070:
000071: 26,2217                                           BANK     26
000072: 26,2000                                           SETLOC   P60S
000073: 26,2000                                           BANK
000074:
000075: 26,2217  E6,1661                                  EBANK=   AOG
000076:
000077: 26,2217                                           COUNT*   $$/P61
000078:
000079: 26,2217           35002        P61                CA       BIT14                                 #  EXTENDED VERB SHOULD BE FREE THIS CLOSE
000080: 26,2220           55044                           TS       EXTVBACT                              #  TO V37
000081:                                                                                                  #  LOCK OUT EXTENDED VERBS SO CAN USE TFF
000082:                                                                                                  #  ROUTINES.  EXT VERB ERASE IS USED
000083:
000084: 26,2221           45017                           CS       ONE                                   #  REMOVE IF HEADSUP EVER ON UPLINK DATA
000085: 26,2222           55726                           TS       HEADSUP                               #  PRELOAD
000086:
000087: 26,2223           02544                           TC       S61.1                                 #  CHECK STATE VECTOR AND IMU ORIENTATION
000088:                                                                                                  #  RV 60GENRET. DOES PHASCHNG, GROUP 4.
000089:
000090: 26,2224           32425                           CA       V06N61                                #  LAT(SPL)      LNG(SPL)        HEADSUP
000091:                                                                                                  #  XXX.XX DEG    XXX.XX DEG      XXXXX.
000092: 26,2225           04662                           TC       BANKCALL
000093: 26,2226           21057                           CADR     GOFLASHR
000094: 26,2227           04106                           TC       GOTOPOOH


000096: 26,2230           02235                           TC       P61.4
000097: 26,2231           02224                           TC       -5
000098:
000099: 26,2232           05412        P61.3              TC       PHASCHNG
000100: 26,2233           00014                           OCT      00014
000101:
000102: 26,2234           05217                           TC       ENDOFJOB
000103:
000104: 26,2235           22007        P61.4              ZL
000105: 26,2236           11726                           CCS      HEADSUP                               #  C(HEADSUP)= +1/-1
000106: 26,2237           35002                           CA       BIT14                                 #  IF HEADSUP POS,ROLLC =180 DEG.(LIFT DWN)
000107: 26,2240           12241                           NOOP                                           #  IF HEADSUP NEG,ROLLC =0 (LIFT UP)
000108: 26,2241           53716                           DXCH     ROLLC                                 #  ROLLC IS USED BY S62.3: GIM ANG AT .05G
000109:
000110: 26,2242           06006                           TC       INTPRET
000111: 26,2243           77745        NEWRNVN            DLOAD
000112: 26,2244           01205                                    PIPTIME                               #  SAVE TIME OF RN,VN TO DETERMINE IF AN
000113: 26,2245           37651                           STCALL   MM                                    #  UPDATE HAS OCCURRED
000114: 26,2246           52063                                    STARTEN1                              #  INITIALIZE
000115: 26,2247           77775                           VLOAD
000116: 26,2250           01171                                    RN
000117: 26,2251           02327                           STORE    RONE
000118: 26,2252           77656                           UNIT
000119: 26,2253           26343                           STOVL    URONE
000120: 26,2254           01177                                    VN
000121: 26,2255           02335                           STORE    VONE
000122: 26,2256           53435                           VXV      UNIT
000123: 26,2257           02343                                    URONE
000124: 26,2260           03502                           STORE    UNI
000125: 26,2261           45345        DUMPP61            DLOAD    DSU
000126: 26,2262           03651                                    MM                                    #  INITIAL VALUE OF PIPTIME
000127: 26,2263           01205                                    PIPTIME
000128: 26,2264           45040                           BMN      CALRB
000129: 26,2265           54243                                    NEWRNVN                               #  UPDATED... GO TRY AGAIN
000130: 26,2266           54651                                    S61.2                                 #  GET DISPLAY DATA FOR N60 AND N63
000131:                                                                                                  #  AND RETURN IN BASIC, BELOW.
000132: 26,2267           05536        P61.1              TC       CLEARMRK
000133: 26,2270           32424                           CA       V06N60                                #  GMAX          VPRED           GAMMAEI
000134:                                                                                                  #  XXX.XX G      XXXXX. FPS      XXX.XX DEG
000135: 26,2271           04662                           TC       BANKCALL
000136: 26,2272           20720                           CADR     GOFLASH
000137:
000138: 26,2273           04106                           TC       GOTOPOOH
000139: 26,2274           02276                           TC       P61.2                                 #  PROCEED
000140: 26,2275           02270                           TC       -5
000141:
000142: 26,2276           06006        P61.2              TC       INTPRET                               #  CORRECT TTE FOR TIME LAPSE DURING
000143:                                                                                                  #  ABOVE DISPLAY.
000144: 26,2277           45234                           RTB      DSU
000145: 26,2300           45510                                    LOADTIME                              #  CURRENT TIME.


000147: 26,2301           03651                                    MM                                    #  PIPTIME FOR RONE & VONE.
000148: 26,2302           77615                           DAD
000149: 26,2303           03733                                    TTE1                                  #  NEGATIVE OF FREE FALL TIME.
000150: 26,2304           03727                           STORE    TTE                                   #  DECREMENTED
000151:
000152: 26,2305           77776                           EXIT
000153:
000154: 26,2306           32426                           CA       V06N63                                #  RTGO          VIO             TTE
000155:                                                                                                  #  XXXX.X NM     XXXXX. FPS      XXBXX M,S
000156: 26,2307           04662                           TC       BANKCALL
000157: 26,2310           20720                           CADR     GOFLASH
000158: 26,2311           04106                           TC       GOTOPOOH
000159: 26,2312           02314                           TC       +2
000160: 26,2313           02276                           TC       P61.2                                 #  REDO
000161:
000162:                                                                                                  #                .... THEN FALL INTO P62


000164:
000165:                                                                                                  #  PROGRAM-      P62
000166:                                                                                                  #  MOD NO.-      0       MAR. 13, 1967
000167:                                                                                                  #  MOD BY-       R. HIRSCHKOP
000168:                                                                                                  #  MOD NO:  1    MOD BY:  RR BAIRNSFATHER        DATE: 21 MAR 67
000169:                                                                                                  #  MOD NO:  2    MOD BY:  RR BAIRNSFATHER        DATE: 22 JUN 67         RESTARTS.
000170:                                                                                                  #  MOD NO:  3    MOD BY:  RR BAIRNSFATHER        DATE: 17 JAN 68         COLOSSUS GSOP CHANGES.
000171:                                                                                                  #  MOD NO:  4    MOD BY:  RR BAIRNSFATHER        DATE:  8 MAY 68         MOVE START OF DESIRED GIMBAL CALC.
000172:                                                                                                  #  FUNCTION-     1) TO NOTIFY CREW WHEN GNC SYSTEM IS PREPARED FOR CM/SM SEPARATION
000173:                                                                                                  #                2) TO ORIENT THE CM TO THE CORRECT ATTITUDE FOR ATMOSPHERIC ENTRY
000174:                                                                                                  #  CALLING SEQUENCE-  BY V37 OR DIRECTLY FROM P61
000175:                                                                                                  #  EXIT-         TO P63
000176:                                                                                                  #  ERASABLE INITIALIZATION:
000177:                                                                                                  #        ALFAPAD                                         LEFT BY PAD LOAD
000178:                                                                                                  #        LADPAD                                          LEFT BY PAD LOAD
000179:                                                                                                  #        LODPAD                                          LEFT BY PAD LOAD
000180:                                                                                                  #        LAT(SPL)        (MAY BE CHANGED BELOW)          LEFT BY DSKY, VIA P61
000181:                                                                                                  #        LNG(SPL)        (MAY BE CHANGED BELOW)          LEFT BY DSKY, VIA P61
000182:                                                                                                  #        HEADSUP         (MAY BE CHANGED BELOW)          LEFT BY DSKY, VIA P61
000183:                                                                                                  #  SUBROUTINE CALLS:  NEWMODEX, S61.1, CM/DAPIC, CM/DAPON, R02BOTH, GOPERF1, GOFLASH, GODSPR
000184:
000185: 26,2314                                           COUNT*   $$/P62
000186:
000187: 26,2314           05354                           TC       NEWMODEX                              #  MODE CHANGE IF CAME FROM P61.
000188: 26,2315           00076                           MM       62         B-14                       #  MODE CHANGE AUTOMATIC VIA V 37.
000189: 26,2316           35017                           CA       ONE
000190: 26,2317           54332                           TS       DNLSTCOD
000191:
000192: 26,2320           02544        P62                TC       S61.1                                 #  CHECK STATE VECTOR AND IMU ORIENTATION.
000193:
000194: 26,2321           06006                           TC       INTPRET
000195: 26,2322           47131                           SSP      RTB
000196: 26,2323           03325                                    POSEXIT
000197: 26,2324           54401                                    P62.3                                 #  CALCULATE DESIRED .05G GIMBAL ANGLES,
000198:                                                                                                  #  WITHOUT DISPLAY.
000199: 26,2325           41672                                    CM/DAPIC                              #  START CM/POSE AND BODY RATE CALC
000200:
000201:                                                                                                  #  DOES 2PHSCHNG, OCT 40116, OCT 05024, OCT 13000.
000202:                                                                                                  #  CM/DAPIC SETS EBANK = EBAOG
000203:                                                                                                  #  AND RETURNS IN BASIC TO P62.2.
000204: 26,2326           00006        P62.2              EXTEND
000205: 26,2327           32432                           DCA      POSECADR                              #  CONTINUE WITH CM/POSE AFTER AV G.
000206: 26,2330           53223                           DXCH     AVEGEXIT
000207:
000208: 26,2331           34270                           CAF      OCT41                                 #  REQUEST SEPARATION
000209: 26,2332           04662                           TC       BANKCALL
000210: 26,2333           21125                           CADR     GOPERF1R
000211: 26,2334           04106                           TC       GOTOPOOH
000212: 26,2335           02340                           TC       +3                                    #  PROCEED


000214:                                                                                                  #  NOTE:  NODOFLAG WILL BE SET IN CM/DAPON. <<<
000215: 26,2336           02331                           TC       -5                                    #  ENTER
000216: 26,2337           02232                           TC       P61.3                                 #  FOR PHASCHNG AND ENDOFJOB.
000217:
000218: 26,2340           04701                 +3        TC       POSTJUMP
000219: 26,2341           41612                           CADR     CM/DAPON                              #  DISABLE RCS DAP, ENABLE ENTRY DAP AND
000220:                                                                                                  #  DO ATTITUDE HOLD.
000221:
000222:                                                                                                  #  WILL IDLE UNTIL CM/POSE DOES ONE UPDATE.
000223:                                                                                                  #  CM/DAPON DOES NO PHASCHNG.
000224:
000225: 26,2342           32425        P62.1              CA       V06N61                                #  LAT(SPL)      LNG(SPL)        HEADSUP
000226:                                                                                                  #  XXX.XX DEG    XXX.XX DEG      0000X.
000227:
000228:                                                                                                  #  TERMINATE ATTITUDE HOLD.  SET UP COMMANDS:
000229:                                                                                                  #  ROLLC, ALFACOM, BETACOM.  BEGIN MANUVER TO
000230:                                                                                                  #  ENTRY ATTITUDE.
000231:
000232: 26,2343           04662                           TC       BANKCALL
000233: 26,2344           20720                           CADR     GOFLASH
000234: 26,2345           02342                           TC       -3
000235: 26,2346           02350                           TC       +2
000236: 26,2347           02342                           TC       -5
000237:
000238: 26,2350           05412                           TC       PHASCHNG
000239: 26,2351           04024                           OCT      04024                                 #  USE ENTRYVN FOR DISPLAY BELOW.
000240:                                                                                                  #  EBANK WAS SET IN CM/DAPON TO EBAOG
000241:
000242: 26,2352           11726                           CCS      HEADSUP                               #  C(HEADSUP) = +/- 1
000243: 26,2353           35002                           CA       BIT14                                 #  IF HEADSUP POS, ROLLC=180 DEG (LIFT DWN)
000244: 26,2354           12355                           NOOP                                           #  IF HEADSUP NEG, ROLLC=0 DEG (LIFT UP)
000245: 26,2355           55715                           TS       ROLLC
000246: 26,2356           31411                           CA       ALFAPAD                               #  NOMINAL ALFATRIM PAD LOADED, NEG. NO.
000247: 26,2357           22007                           ZL
000248: 26,2360           53604                           DXCH     ALFACOM                               #  SET ALFACOM = ALFA TRIM, BETACOM=0
000249:
000250: 26,2361           35017                           CA       ONE                                   #  PERMITS EXDAP2 TO CHANGE FLAG TO +0
000251: 26,2362           55727                           TS       P63FLAG                               #  AS INDICATOR.  STARTS UP P63.
000252:
000253: 26,2363           35052                           CA       V06N22                                #  SET UP DISPLAY FOR CDU DESIRED VALUES
000254: 26,2364           55263                           TS       ENTRYVN                               #  FROM ENTRY ATTITUDE CALC, THAT IS
000255:                                                                                                  #  ALREADY GOING.
000256: 26,2365           05546                           TC       UPFLAG                                #  TURN ON ENTRY DISPLAY
000257: 26,2366           00134                           ADRES    ENTRYDSP                              #  ENTRYDSP = 92D BIT 13 FLAG 6
000258:                                                                                                  #  SKIP


000260: 26,2367           41700                           CS       CMDAPMOD                              #  GO DIRECTLY TO P63 IF BODY ATTITUDE
000261: 26,2370           75017                           MASK     ONE                                   #  IS SUCH THAT THE DELAY TASK: WAKEP62
000262: 26,2371           00006                           EXTEND                                         #  WILL BE OMITTED.
000263: 26,2372           12421                           BZF      P63.1                                 #  DISABLE GRP 4, GO TO ENDOFJOB.
000264:                                                                                                  #  (IE, CONTINUE IF CMDAPMOD = -1, OR +0)
000265: 26,2373           02405                           TC       P63
000266:
000267:                                                                                                  #  PUT JOB TO SLEEP UNTIL VEHICLE MANUVER HAS
000268:                                                                                                  #  REDUCED ALFA TO +/-45 DEG. CONSIDER REMAINING
000269:                                                                                                  #  65 DEG (25 DEG IF ALFA NEG) TO ALFA TRIM TO
000270:                                                                                                  #  OCCUR AT 3 DEG/SEC, AND TERMINATE P62 AT THAT
000271:                                                                                                  #  TIME.
000272:
000273:                                                                                                  #  TASK WAKEP62 IS CALLED FROM ENTRY DAP.
000274: 26,2374           35065        WAKEP62            CA       PRIO13
000275: 26,2375           05134                           TC       NOVAC
000276: 26,2376  E6,1661                                  EBANK=   AOG
000277: 26,2376           02405 54066                     2CADR    P63
000278:
000279: 26,2400           05324                           TC       TASKOVER
000280:
000281:                                                                                                  #  EACH 2 SEC, CALCULATE GIMBAL ANGLES FOR ENTRY CON-
000282:                                                                                                  #  DITIONS THAT WILL HOLD IF REORIENTATION WERE MADE
000283:                                                                                                  #  AT PRESENT RN, VN.  COME HERE FROM CM/POSE AND ALSO
000284:                                                                                                  #  IN KEPLER PHASE OF ENTRY.
000285:
000286: 26,2401           52131        P62.3              SSP      GOTO                                  #  SET RETURN ADDRESS SO THAT ROUTINE
000287: 26,2402           00053                                    QPRET                                 #  GOES DIRECTLY TO ENTRY GUIDANCE EXIT
000288: 26,2403           53576                                    ENDEXIT                               #  THAT DOES ENTRY DISPLAY, GRP 5.
000289: 26,2404           20376                                    S62.3                                 #  PUT DESIRED CDU VALUES IN CPHI'S FOR
000290:                                                                                                  #  N22 DISPLAY.
000291:


000293:                                                                                                  #        P63
000294:                                                                                                  #  PROGRAM-      P63
000295:                                                                                                  #  MOD NO.-      0       MAR. 13, 1967
000296:                                                                                                  #  MOD BY-       R. HIRSCHKOP
000297:                                                                                                  #  MOD NO: 1     MOD BY: RR BAIRNSFATHER         DATE: 22 JIN 67         RESTARTS.
000298:                                                                                                  #  MOD NO: 2     MOD BY: RR BAIRNSFATHER         DATE: 14 JUL 67         REVISED RESTARTS
000299:                                                                                                  #  FUNCTION-     1) TO INITIALIZE THE ENTRY EQUATIONS
000300:                                                                                                  #                2) TO CONTINUE TO HOLD THE CM TO THE CORRECT ATTITUDE WITH RESPECT TO THE ATMOSPHERE FOR
000301:                                                                                                  #                   THE ONSET OF ENTRY DECELERATION.  ROLL ANGLE IS LIFT UP/DOWN AS SPECIFIED BY HEADSUP.
000302:                                                                                                  #                3) TO SENSE .05 G
000303:                                                                                                  #  CALLING SEQUENCE-  DIRECTLY FROM P62
000304:                                                                                                  #  EXIT-         TO ENDOFJOB
000305:                                                                                                  #  SUBROUTINE CALLS-  NEWMODEX, GODSPR
000306:
000307: 26,2405                                           COUNT*   $$/P63
000308:
000309: 26,2405           05354        P63                TC       NEWMODEX
000310: 26,2406           00077                           MM       63         B-14
000311:
000312:                                                                                                  #  ARRIVE WITH EBANK = AOG.
000313:
000314: 26,2407           32430                           CA       ENTCADR                               #  CONTINUE AT STARTENT AFTER CM/POSE.
000315:
000316:                                                                                                  #  AT END OF STARTENT, CHANGE ADDRESS IN GOTOADDR
000317:                                                                                                  #  TO CONTINUE AT SCALEPOP THEREAFTER.
000318:
000319: 26,2410           55724                           TS       POSEXIT
000320:
000321: 26,2411           32427                           CA       V06N64                                #  G             VI              R TO SPLSH
000322:                                                                                                  #  XXX.XX G      XXXXX. FPS      XXXX.X NM
000323: 26,2412           55263                           TS       ENTRYVN                               #  FOR DISPLAY CALL IN OVERNOUT.
000324:
000325: 26,2413           45017                           CS       ONE                                   #  IN CASE FLAG IS LEFT AT +1 BY DAP.  THE
000326: 26,2414           55727                           TS       P63FLAG                               #  -1 ASSURES THAT EXO-ATM DAP WILL NOT
000327:                                                                                                  #  CALL P63 OUT OF SEQUENCE IN P66.
000328:
000329: 26,2415           05412                           TC       PHASCHNG                              #  THIS IS REQUIRED TO PRESERVE CLEANDSP
000330: 26,2416           00004                           OCT      00004                                 #  RETURN IN EVENT OF AN EXTENDED VERB..
000331:
000332: 26,2417           04662                           TC       BANKCALL                              #  FLUSH 'N22' DISPLAY, IF ON. (OMIT
000333: 26,2420           20703                           CADR     CLEANDSP                              #  DISPLAY DURING 'STARTENT' PASS.)
000334:
000335: 26,2421           05412        P63.1              TC       PHASCHNG
000336: 26,2422           00004                           OCT      00004                                 #  DISABLE.  DISPLAY RESTARTED VIA ENTRY.
000337:
000338: 26,2423           05217                           TC       ENDOFJOB
000339:
000340: 26,2424           01474        V06N60             VN       0660
000341: 26,2425           01475        V06N61             VN       0661
000342: 26,2426           01477        V06N63             VN       0663


000344: 26,2427           01500        V06N64             VN       0664
000345: 26,2430           52000        ENTCADR            CADR     STARTENT
000346:
000347: 26,2431  E7,1451                                  EBANK=   RTINIT                                #  TO CARY OVER INTO ENTRY STEERING.
000348: 26,2431           03470 76067  POSECADR           2CADR    CM/POSE
000349:


000351:                                                                                                  #  PROGRAM-      P64
000352:                                                                                                  #  MOD NO.-      1       SEPT. 19, 1967
000353:                                                                                                  #  MOD BY-       R. HIRSCHKOP
000354:                                                                                                  #  MOD NO: 2     MOD BY: RR BAIRNSFATHER         DATE: 8 MAY 68          REVISED COMMENTS FOR COLOSSUS
000355:                                                                                                  #  MOD NO: 3     MOD BY: RR BAIRNSFATHER         DATE: 1 MAR '69  N74
000356:                                                                                                  #  FUNCTION-     1.  TO START ENTRY GUIDANCE AT .05G SELECTING ROLL ATTITUDE, CONSTANT DRAG LEVEL, AND
000357:                                                                                                  #                    DRAG THRESHOLD, KA, WHICH ARE KEYED TO THE .05G POINT.
000358:                                                                                                  #                2.  SELECT FINAL PHASE P67 IF V < 27000 FPS WHEN .2G OCCURS.
000359:                                                                                                  #                3.  ITERATE FOR UP-CONTROL SOLUTION P65 IF V > 27000 FPS AND IF ALTITUDE RATE AND DRAG
000360:                                                                                                  #                    LEVEL CONDITIONS ARE SATISFIED.  ENTER P65 WHEN CONSTANT DRAG CONTROLLER HAS BROUGHT RANGE
000361:                                                                                                  #                    AS PREDICTED TO WITHIN 25 NM OF DESIRED RANGE.
000362:                                                                                                  #                4.  SELECT FINAL PHASE  P67  IF NO UP-CONTROL SOLUTION EXISTS WITH VL > 18000 FPS.
000363:                                                                                                  #  CALLING SEQUENCE-  BY RTB FROM REENTRY CONTROL
000364:                                                                                                  #  EXIT-         BACK TO REENTRY CONTROL
000365:                                                                                                  #  SUBROUTINE CALLS-  NEWMODEX
000366:
000367: 25,2000                                           BANK     25
000368: 26,2000                                           SETLOC   P60S1
000369: 26,2000                                           BANK
000370:
000371:                                                                                                  #  THIS DISPLAY IS CALLED EACH PASS THROUGH STEERING.  RESTART PROTECTION IS VIA STEERING.
000372:
000373: 26,2433                                           COUNT*   $$/P64
000374:
000375: 26,2433           05354        P64                TC       NEWMODEX                              #  ENTER VIA RTB WHEN .05G IS EXCEEDED.
000376: 26,2434           00100                           MM       64         B-14
000377: 26,2435           32440                           CA       V06N74                                #  ROLLC         VI              D
000378:                                                                                                  #  XXX.XX DEG    XXXXX. FPS      XXX.XX G
000379: 26,2436           55263                           TS       ENTRYVN                               #  DISPLAY VIA OVERNOUT.
000380:
000381: 26,2437           06030                           TC       DANZIG                                #  ... AND CONTINUE IN INITROLL ...
000382:
000383: 26,2440           01512        V06N74             VN       0674
000384:


000386:                                                                                                  #  PROGRAM:      P65
000387:                                                                                                  #  MOD NO:  0    MOD BY:  RR BAIRNSFATHER        DATE:  17 JAN 68        COLOSSUS GSOP ADDITION.
000388:                                                                                                  #  FUNCTION:     TO CONTINUE ENTRY GUIDANCE, USING THE UP-CONTROL PHASE TO STEER TO A CONTROLLED EXIT
000389:                                                                                                  #                CONDITION.  THIS PHASE TERMINATES  A) IF D < Q7 FPSS, GO TO P66   ,
000390:                                                                                                  #                                                   B) IF RDOT NEG, AND IF V < VL +500 FPS, GO TO P67.
000391:                                                                                                  #  CALLING SEQUENCE:  BY RTB FROM REENTRY CONTROL
000392:                                                                                                  #  EXIT:         BACK TO REENTRY CONTROL, OR TO ENDOFJOB.
000393:                                                                                                  #  SUBROUTINE CALLS:  NEWMODEX
000394:
000395: 26,2441                                           COUNT*   $$/P65
000396:
000397: 26,2441           05354        P65                TC       NEWMODEX                              #  ENTER VIA RTB WHEN RANGE < 25 N M OF
000398: 26,2442           00101                           MM       65         B-14                       #  TARGET.
000399:
000400: 26,2443           35065                           CA       PRIO13
000401: 26,2444           05134                           TC       NOVAC
000402: 26,2445     1263                                  EBANK=   ENTRYVN
000403: 26,2445           02457 54062                     2CADR    P65.1
000404:
000405: 26,2447           05372                           TC       2PHSCHNG                              #  2 PHASE CHG REQUIRED TO PREVENT RE-
000406: 26,2450           00554                           OCT      00554                                 #  STARTING FLASHING DISPLAY TWICE.
000407: 26,2451           10035                           OCT      10035                                 #  4.55 SPOT AND SERVICER, HERE.
000408: 26,2452           06006                           TC       INTPRET
000409: 26,2453           47131                           SSP      RTB
000410: 26,2454           03646                                    GOTOADDR                              #  CHANGE ENTRY MODE TO UPCONTRL.
000411: 26,2455           53035                                    UPCONTRL
000412: 26,2456           52120                                    REFAZE10                              #  GO HERE TO REESTABLISH ENTRY SEQUENCER.
000413:                                                                                                  #  AND CONTINUE AT UPCONTRL...
000414:
000415: 26,2457           05560        P65.1              TC       DOWNFLAG
000416: 26,2460           00134                           ADRES    ENTRYDSP                              #  ENTRYDSP = 92D BIT 13 FLAG 6
000417:
000418: 26,2461           32473                           CA       V16N69                                #  ROLLC         DL (Q7)         VL
000419: 26,2462           04662                           TC       BANKCALL                              #  XXX.XX DEG    XXX.XX G        XXXXX. FPS
000420: 26,2463           21057                           CADR     GOFLASHR
000421: 26,2464           02461                           TC       -3                                    #  NODOFLAG IS SET..
000422: 26,2465           02470                           TC       +3
000423: 26,2466           02461                           TC       -5
000424: 26,2467           02232                           TC       P61.3                                 #  EST. GRP 4 FOR DSPLAY AND DO ENDOFJOB
000425:                                                                                                  #  IF PROCEED, CONTINUE.
000426: 26,2470           05546                           TC       UPFLAG
000427: 26,2471           00134                           ADRES    ENTRYDSP                              #  ENTRYDSP = 92D BIT 13 FLAG 6
000428:
000429: 26,2472           02421                           TC       P63.1                                 #  DISABLE GRP 4,START UP ENTRY DISPLAY
000430:                                                                                                  #  N06V68 VIA OVERNOUT, AS USED IN P64.
000431: 26,2473           04105        V16N69             VN       1669
000432:


000434:                                                                                                  #  PROGRAM:      P66
000435:                                                                                                  #  MOD NO: 0     MOD BY: RR BAIRNSFATHER         DATE: 17 JAN 68         COLOSSUS GSOP ADDITIONS.
000436:                                                                                                  #  FUNCTION:     KEEP CM ATTITUDE IN TRIM TO THE RELATIVE VELOCITY VECTOR.  ENTRY GUIDANCE STOPS GENERATING
000437:                                                                                                  #                ROLL COMMANDS UNTIL DRAG BUILDS UP TO Q7+0.5 FPSS.
000438:                                                                                                  #  CALLING SEQUENCE:  VIA RTB FROM REENTRY CONTROL.
000439:                                                                                                  #  EXIT:         BACK TO REENTRY CONTROL.
000440:                                                                                                  #  SUBROUTINE CALLS:  NEWMODEX
000441:
000442: 26,2474                                           COUNT*   $$/P66
000443:
000444: 26,2474           05354        P66                TC       NEWMODEX                              #  ENTER VIA RTB WHEN D < Q7 FPSS
000445: 26,2475           00102                           MM       66         B-14
000446:
000447: 26,2476           35052                           CA       V06N22                                #  OGA           IGA             MGA
000448:                                                                                                  #  XXX.XX DEG    XXX.XX DEG      XXX.XX DEG
000449: 26,2477           02503                           TC       P66END                                #  IN CASE CAME FROM P65, GO DISABLE GRP4,
000450:                                                                                                  #  AND SET ENTRYDSP TO DO DISPLAY VIA
000451:                                                                                                  #  OVERNOUT.
000452:
000453:                                                                                                  #  ... AND CONTINUE AT KEP2
000454:


000456:                                                                                                  #  P67
000457:
000458:                                                                                                  #  PROGRAM-      P67
000459:                                                                                                  #  MOD NO.-      0       MAR. 16, 1967
000460:                                                                                                  #  MOD BY-       R. HIRSCHKOP
000461:                                                                                                  #  FUNCTION-     TO TERMINATE STEERING WHEN THE CM VELOCITY WRT EARTH = 1000 FT/SEC
000462:                                                                                                  #  CALLING SEQUENCE-
000463:                                                                                                  #  EXIT-         TO POOH
000464:                                                                                                  #  SUBROUTINE CALLS-  GOFLASH
000465:
000466:                                                                                                  #  THIS DISPLAY IS CALLED EACH PASS THROUGH STEERING.  RESTART PROTECTION IS VIA STEERING.
000467:
000468: 26,2500                                           COUNT*   $$/P67
000469:
000470: 26,2500           05354        P67                TC       NEWMODEX                              #  ENTER VIA RTB
000471: 26,2501           00103                           MM       67         B-14
000472: 26,2502           32511                           CA       V06N66                                #  ROLLC         XRNGERR         DNRNGERR
000473:                                                                                                  #  XXX.XX DEG    XXXX.X NM       XXXX.X NM
000474: 26,2503           55263        P66END             TS       ENTRYVN                               #  DISPLAY VIA OVERNOUT.
000475:
000476: 26,2504           05546                           TC       UPFLAG                                #  (IN CASE CAME FROM P65.  ENTRY DISPLAY
000477: 26,2505           00134                           ADRES    ENTRYDSP                              #  WILL FLUSH FLASHING DISP.  IF STILL ON)
000478:                                                                                                  #  BIT 13 FLAG 6
000479: 26,2506           05412        KILLGRP4           TC       PHASCHNG                              #  DISABLE GRP4, IN CASE CAME FROM HUNTEST.
000480: 26,2507           00004                           OCT      00004                                 #  (COME TO KILLGRP4 VIA RTB, RET TO CALLER)
000481:
000482: 26,2510           06030                           TC       DANZIG                                #  ... AND CONTINUE AT PREDICT3 ...
000483:
000484: 26,2511           01502        V06N66             VN       0666
000485:
000486: 26,2512                                           BANK     26
000487: 26,2000                                           SETLOC   P60S2
000488: 26,2000                                           BANK
000489:
000490: 26,2512           32543        P67.1              CA       V16N67                                #  RTOGO         LAT             LONG
000491:                                                                                                  #  XXXX.X NM     XXX.XX DEG      XXX.XX DEG
000492: 26,2513           04662                           TC       BANKCALL
000493: 26,2514           20720                           CADR     GOFLASH
000494: 26,2515           02520                           TC       +3                                    #  EFFECTIVE GOTOPOOH
000495: 26,2516           02520                           TC       +2
000496: 26,2517           02512                           TC       P67.1                                 #  REDO
000497:
000498: 26,2520           46214                           CS       THREE                                 #  TURN OFF ENTRY DAP
000499: 26,2521           00004                           INHINT
000500: 26,2522           70102                           MASK     CM/FLAGS                              #  CM/DSTBY, GAMDIFSW
000501: 26,2523           54102                           TS       CM/FLAGS
000502: 26,2524           00003                           RELINT
000503: 26,2525           00006                           EXTEND
000504: 26,2526           32643                           DCA      SERVCAD2
000505:


000507: 26,2527           53223                           DXCH     AVEGEXIT
000508:
000509: 26,2530           14106                           TCF      GOTOPOOH
000510:


000512: 26,2531           43175        P67.2              VLOAD    CLEAR                                 #  CALC PRESENT LAT, LONG, ALT.
000513: 26,2532           01171                                    RN
000514: 26,2533           00662                                    ERADFLAG                              #  USE PAD RAD FOR ALT. (NOT SEEN ANYWAY)
000515: 26,2534           16152                           STODL    ALPHAV
000516: 26,2535           01205                                    PIPTIME                               #  USE TIME OF RN
000517: 26,2536           45014                           CLEAR    CALL
000518: 26,2537           01663                                    LUNAFLAG
000519: 26,2540           26370                                    LAT-LONG
000520: 26,2541           77634        P67.3              RTB                                            #  ENTRY EXIT THAT OMITS DISPLAY.
000521: 26,2542           53611                                    SERVNOUT
000522:
000523: 26,2543           04103        V16N67             VN       1667
000524: 26,2544     4270               OCT41              =        33DEC
000525: 26,2544  26,2642               SERVCAD2           =        SERVCAD1
000526:


000528:                                                                                                  #  SUBROUTINE NAME:      S61.1
000529:                                                                                                  #  MOD NO:       0                                       DATE:           21 FEB 67
000530:                                                                                                  #  MOD BY:       RR BAIRNSFATHER                         LOG SECTION:    P61-P67
000531:                                                                                                  #  MOD NO:       1       MOD BY: RR BAIRNSFATHER         DATE:           22 JUN 67       RESTARTS.
000532:
000533:                                                                                                  #  FUNCTIONAL DESCRIPTION:       CALLED BY BOTH P61 AND P62
000534:                                                                                                  #        FIRST, TEST TO SEE IF  AVERAGEG  IS ON.  IF NOT, UPDATE THE STATE VECTOR TO PRESENT TIME + TOLERANCE
000535:                                                                                                  #        AND TURN ON  AVERAGEG  AT THAT TIME, AND CONTINUE.  OTHERWISE CONTINUE:  SEE IF IMU Y AXIS IS
000536:                                                                                                  #        WITHIN 30 DEG OF V*R.  IF YES, EXIT SUBROUTINE S61.1.  IF NO, SEE IF -Y AXIS OF IMU IS WITHIN
000537:                                                                                                  #        30 DEG OF V*R.  IF YES, DISPLAY ALARM:  01427   IMU REVERSED.
000538:                                                                                                  #                        IF NO, DISPLAY ALARM:   01426   IMU UNSATISFACTORY.
000539:                                                                                                  #        IN EITHER OF THESE LAST 2 CASES, WAIT 10 SEC AND THEN EXIT SUBROUTINE S61.1.
000540:
000541:                                                                                                  #  REMARK:       THERE WILL BE A SHORT 10 SEC DELAY IF AN ALARM EXIT IS TAKEN.  THE DELAY FOR INTEGRATION IS
000542:                                                                                                  #                AS SHORT AS CAN BE MADE, BUT IS ARBITRARY SINCE IT DEPENDS ON THE AGE OF THE STATE VECTOR.
000543:
000544:                                                                                                  #  CALLING SEQUENCE:     CALL
000545:                                                                                                  #                                S61.1
000546:
000547:                                                                                                  #                        C(MPAC) UNSPECIFIED
000548:                                                                                                  #                        PUSHLOC UNSPECIFIED
000549:
000550:                                                                                                  #  SUBROUTINES CALLED:   LOADTIME, CSMPREC, TPAGREE,
000551:                                                                                                  #                        WAITLIST, JOBSLEEP, JOBWAKE, PREREAD, ALARM, GODSPR, BANKCALL, DELAYJOB
000552:
000553:                                                                                                  #  NORMAL EXIT MODES:    RVQ
000554:
000555:                                                                                                  #  ALARMS:       01426   IMU UNSATISFACTORY
000556:                                                                                                  #                01427   IMU REVERSED
000557:
000558:                                                                                                  #  OUTPUT:       POSSIBLE ALARMS
000559:                                                                                                  #                POSSIBLY TDEC1, RATT, VATT, RN, VN
000560:
000561:                                                                                                  #  ERASABLE INITIALIZATION REQUIRED:
000562:                                                                                                  #        AVEGFLAG                AVERAGEG ON OR OFF                              LEFT BY SERVICER
000563:                                                                                                  #        PIPTIME   (-28) CS      TIME OF PIPA UPDATE                             LEFT BY READACCS
000564:                                                                                                  #        RN        (-29) M       STATE VECTOR                                    LEFT BY AVERAGEG
000565:                                                                                                  #        VN        (-7) M/CS     STATE VECTOR                                    LEFT BY AVERAGEG
000566:                                                                                                  #        REFSMMAT  (-1)          .5 REF TO SM MATRIX                             LEFT BY LAST IMU ALIGNMENT
000567:
000568:                                                                                                  #  DEBRIS:       QPRET
000569:                                                                                                  #                POSSIBLY PIPTIME1, RATT, VATT, TDEC1, RN1, VN1, QTEMP, X1       IF UPDATED
000570:                                                                                                  #                PUSH LIST LOCS USED BY CSMPREC
000571:
000572: 26,2544  E6,1661                                  EBANK=   AOG                                   #  FOR 60GENRET, S61DT
000573: 26,2544                                           BANK     26
000574: 26,2000                                           SETLOC   P60S3
000575: 26,2000                                           BANK
000576:
000577: 26,2544                                           COUNT*   $$/S61.1
000578:
000579: 26,2544           00006        S61.1              EXTEND
000580: 26,2545           23773                           QXCH     60GENRET                              #  SAVE RET ADDR IN EB 6
000581: 26,2546           04662                           TC       BANKCALL
000582: 26,2547           17653                           CADR     R02BOTH
000583: 26,2550           06006                           TC       INTPRET


000585: 26,2551           45014                           BON      CALRB
000586: 26,2552           00716                                    AVEGFLAG                              #  IS AVERAGEG ON
000587: 26,2553           54604                                    S61.1A                                #  YES
000588: 26,2554           27543                                    MIDTOAV2                              #  GET FUTURE STATE VECTOR SOON AS CAN
000589:
000590: 26,2555           30155                           CA       MPAC       +1                         #  RETURN INHINTED ***
000591: 26,2556           55774                           TS       S61DT                                 #  FOR RESTART.
000592: 26,2557           05245                           TC       WAITLIST
000593: 26,2560  E7,1431                                  EBANK=   DVCNTR
000594: 26,2560           02565 54067                     2CADR    S61.1C
000595:
000596: 26,2562           05412                           TC       PHASCHNG
000597: 26,2563           40434                           OCT      40434
000598: 26,2564           05217                           TC       ENDOFJOB
000599:
000600: 26,2565           35065        S61.1C             CA       PRIO13
000601: 26,2566           05147                           TC       FINDVAC
000602: 26,2567  E6,1661                                  EBANK=   AOG
000603: 26,2567           02603 54066                     2CADR    S61.1A     -1
000604:
000605: 26,2571           00006                           EXTEND
000606: 26,2572           32643                           DCA      SERVCAD1                              #  HE WHO STARTS AVERAGEG MUST SERVICE
000607: 26,2573           53223                           DXCH     AVEGEXIT                              #  THE EXIT.
000608:
000609: 26,2574           05372                           TC       2PHSCHNG
000610: 26,2575           00454                           OCT      00454
000611: 26,2576           00415                           OCT      00415
000612:
000613: 26,2577           35060                           CA       EBENTRY                               #  SET EB= 7 FOR PREREAD.
000614: 26,2600           54003                           TS       EBANK
000615:
000616: 26,2601           04701                           TC       POSTJUMP
000617: 26,2602           76701                           CADR     PREREAD                               #  PREREAD DOES TC TASKOVER.
000618:
000619: 26,2603           06006                           TC       INTPRET
000620: 26,2604           77204        S61.1A             BOVB     VLOAD
000621: 26,2605           57352                                    TCDANZIG                              #  TURN OFF OVFIND, IF ON
000622: 26,2606           01177                                    VN                                    #  VN    (-7) M/CS
000623: 26,2607           64235                           VXV      MXV
000624: 26,2610           01171                                    RN                                    #  RN    (-29) M
000625: 26,2611           01736                                    REFSMMAT                              #  .5 UNIT MATRIX
000626: 26,2612           71256                           UNIT     DLOAD
000627: 26,2613           00160                                    MPAC       +3                         #  GET COS(THETA)/2
000628: 26,2614           43240                           BMN      DAD
000629: 26,2615           54622                                    S61.1B                                #  DO TEST ON -YSM
000630: 26,2616           14645                                    C(30)LIM                              #  = 1.0 -.5 COS(30)
000631: 26,2617           47004                           BOVB     RTB
000632: 26,2620           54641                                    RETRN1
000633: 26,2621           54626                                    RETRN3


000635: 26,2622           43276        S61.1B             DCOMP    DAD
000636: 26,2623           14645                                    C(30)LIM                              #  = 1.0 - .5 COS(30)
000637: 26,2624           77404                           BOVB     EXIT
000638: 26,2625           54631                                    RETRN2
000639:
000640: 26,2626           05650        RETRN3             TC       ALARM
000641: 26,2627           01426                           OCT      01426                                 #  IMU UNSATISFACTORY
000642: 26,2630           02633                           TC       RETRN2     +2
000643:
000644: 26,2631           05650        RETRN2             TC       ALARM
000645: 26,2632           01427                           OCT      01427                                 #  IMU REVERSED
000646:
000647: 26,2633           35050                 +2        CAF      V05N09
000648: 26,2634           04662                           TC       BANKCALL
000649: 26,2635           20676                           CADR     GODSPR                                #  DO DISPLAY
000650: 26,2636           32646                           CA       10SECS
000651: 26,2637           04662                           TC       BANKCALL
000652: 26,2640           01732                           CADR     DELAYJOB
000653:
000654: 26,2641           01773        RETRN1             TC       60GENRET
000655:
000656: 26,2642  E7,1431                                  EBANK=   DVCNTR
000657: 26,2642           03227 76067  SERVCAD1           2CADR    SERVEXIT
000658:
000659: 26,2644           22111 17335  C(30)LIM           2DEC     .566985                               #  = 1.0 - .5 COS(30)
000660:
000661: 26,2646           01750        10SECS             DEC      1000       B-14                       #  1000 CS
000662: 26,2647           00000 13560  60SECDP            2DEC     6000       B-28                       #  6000 CS
000663:


000665:                                                                                                  #  PROGRAM NAME:         S61.2                   DATE:           14 FEB 67
000666:                                                                                                  #  MOD NO:       1                               LOG SECTION:    P61-P67
000667:                                                                                                  #  MOD BY:       MORTH / BAIRNSFATHER
000668:                                                                                                  #  MOD NO: 2     MOD BY: MORTH/BAIRNSFATHER      DATE: 11 MAY 67         ADD 2ND ITER FOR ERAD AT 400K FT.
000669:                                                                                                  #  MOD NO: 3     MOD BY: RR BAIRNSFATHER         DATE: 21 NOV 67         VARIABLE MU ADDED.
000670:                                                                                                  #  MOD NO: 4     MOD BY: RR BAIRNSFATHER         DATE: 21 MAR 68         DIFFERENT EARTH/MOON SCALES IN TFF'S
000671:
000672:                                                                                                  #  FUNCTIONAL DESCRIPTION:  CALLED BY P61.  PROVIDES DISPLAYS FOR NOUNS  N60  AND  N63 .
000673:                                                                                                  #        PROGRAM CALCULATES ENTRY DISPLAY OF MAXIMUM ACCELERATION EXPECTED  (GMAX)  AND ALSO THE EXPECTED
000674:                                                                                                  #        INERTIAL VELOCITY (VPRED) AND ENTRY ANGLE  (GAMMAEI)  THAT WILL OBTAIN AT 400K FT ABOVE THE FISCHER
000675:                                                                                                  #        ELLIPSOID.  PROGRAM ALSO CALCULATES A SECOND DISPLAY RELATIVE TO THE  EMSALT  ABOVE FISCHER ELLIPSOID
000676:                                                                                                  #        AND CONSISTS OF RANGE TO SPLASH FROM NOW  (RTGO) , PREDICTED INERTIAL VELOCITY  (VIO) , AND THE TIME TO
000677:                                                                                                  #        GO FROM NOW  (TTE) .
000678:
000679:                                                                                                  #  CALLING SEQUENCE:     CALL
000680:                                                                                                  #                                S61.2
000681:                                                                                                  #                        C(MPAC) UNSPECIFIED
000682:                                                                                                  #                        PUSHLOC WILL BE SET TO ZERO.
000683:
000684:                                                                                                  #  SUBROUTINES CALLED:   TFFCONIC, CALCTFF, TFF/TRIG, FISHCALC, GETERAD, VGAMCALC
000685:
000686:                                                                                                  #  NORMAL EXIT MODES:    RTB   P61.1
000687:
000688:                                                                                                  #  ALARMS:       NONE
000689:
000690:                                                                                                  #  OUTPUT:       THE FOLLOWING REGISTERS ARE WRITTEN IN FOR USE BY DISPLAYS
000691:                                                                                                  #                GMAX    100 GMAX (-14) G,S      MAXIMUM ACCELERATION
000692:                                                                                                  #                VPRED   (-7) M/CS               PREDICTED VELOCITY AT 400K FT
000693:                                                                                                  #                GAMMAEI GAMMA/360               PREDICTED GAMMA    AT 400K FT
000694:                                                                                                  #                                                FOR TM, DP(GAMMAEI) = (GAMMAEI, RTGO) / 360
000695:                                                                                                  #                RTGO    THETAH/360              RANGE ANGLE TO SPLASH FROM EMSALT       EMSALT IS PAD LOADED
000696:                                                                                                  #                VIO     (-7) M/CS               INERTIAL VELOCITY AT      EMSALT        EMSALT IS PAD LOADED
000697:                                                                                                  #                TTE     (-28) CS                TIME TO                    EMSALT       EMSALT IS PAD LOADED
000698:                                                                                                  #                PUSHLOC = 0
000699:                                                                                                  #                CONIC PARAMETERS STORED IN VAC AREA (SEE TFF SUBROUTINES)
000700:
000701:                                                                                                  #  ERASABLE INITIALIZATION REQUIRED:
000702:                                                                                                  #                RONE    (-29) M                 STATE VECTOR                            LEFT BY USER
000703:                                                                                                  #                VONE    (-7) M/CS               STATE VECTOR                            LEFT BY USER
000704:                                                                                                  #                URONE   UR/2                                                            LEFT BY USER
000705:                                                                                                  #                UNI     (-1)                    UNIT NORMAL V*R                         LEFT BY ENTRY / P61
000706:                                                                                                  #                THETAH  THETAH/360              RANGE ANGLE                             LEFT BY ENTRY / P61
000707:                                                                                                  #                UNITW   (0)                     UNIT POLAR VECTOR                       LEFT BY PAD LOAD
000708:                                                                                                  #                EMSALT  (-29) M                 EMS INTERFACE ALTITUDE                  LEFT BY PAD LOAD
000709:                                                                                                  #                                                ORBITAL REENTRY: 284643 FT, LUNAR REENTRY: 297431 FT.
000710:
000711:                                                                                                  #  DEBRIS:       QPRET,
000712:                                                                                                  #                ALL PDL LOCATIONS ABOVE 12D, INCLUDING X1,X2,S1,S2
000713:                                                                                                  #                ALSO PDL+0 ... PDL+5, WHERE INITIAL PUSHLOC = PDL
000714:


000716:                                                                                                  #  THE FOLLOWING PUSH LIST LOCATIONS HAVE BEEN RESERVED FOR TFF ROUTINES AND ARE REPEATED HERE FOR CONVENIENCE.
000717:                                                                                                  #  OF COURSE FOR S61.2 USAGE, EARTH ORIGIN SCALING IS USED.
000718:
000719:                                                                                                  #                                BELOW   E:  IS USED FOR EARTH ORIGIN SCALE
000720:                                                                                                  #                                        M:  IS USED FOR MOON ORIGIN SCALE
000721:
000722:                                                                                                  #        RTERM   =       18D             TERMINAL RADIUS M       E:  (-29)       M:  (-27)
000723:                                                                                                  #        NRTERM  =       16D             TERMINAL RADIUS M       E:  (-29+NR)
000724:                                                                                                  #                                                                M:  (-27+NR)
000725:                                                                                                  #        RMAG1   =       12D             PRESENT RADIUS M        E:  (-29)       M:  (-27)
000726:                                                                                                  #        NRMAG   =       32D             PRESENT RADIUS M        E:  (-29+NR)
000727:                                                                                                  #                                                                M:  (-27+NR)
000728:                                                                                                  #        SDELF/2                         SIN(THETA) / 2
000729:                                                                                                  #        CDELF/2 =       14D             COS(THETA) / 2
000730:                                                                                                  #        TFFX    =       34D             X, ARGUMENT OF SERIES T(X).
000731:                                                                                                  #        TFFTEM  =       36D             ARG FOR TRANSFER ANGLE CALCULATION.
000732:                                                                                                  #        TFFNP   =       28D             LC P M                  E:  (-38+2NR)   M:  (-36+2NR)
000733:                                                                                                  #        TFF/RTMU=       30D             1/SQRT(MU)              E:  (17)        M:  (14)
000734:                                                                                                  #        TFFVSQ  =       20D             -(VN.VN/MU)     1/M     E:  (20)        M:  (18)
000735:


000737: 34,3763                                           BANK     34
000738: 26,2000                                           SETLOC   P60S2
000739: 26,2000                                           BANK
000740:
000741: 26,2651                                           COUNT*   $$/S61.2
000742:                                                                                                  #  PDL LEFT AT ZERO BY TARGETNG
000743:
000744: 26,2651           45345        S61.2              DLOAD    DSU
000745: 26,2652           02020                                    EMSALT
000746: 26,2653           15001                                    290KFT
000747: 26,2654           71244                           BPL      DLOAD
000748: 26,2655           54775                                    LUNENT
000749: 26,2656           17354                                    1/RTMU                                #  ESTABLISH MU FOR ORBITAL ENTRIES
000750: 26,2657           77624        CALLCON            CALL
000751: 26,2660           56757                                    TFFCONIC                              #  FILL VAC AREA WITH CONIC PARAMETERS
000752:
000753: 26,2661           45145                           DLOAD    CALL
000754: 26,2662           15021                                    RTRIAL                                #  1ST GUESS AT TERMINAL RADIUS  (-29)
000755: 26,2663           57067                                    CALCTFF                               #  SAVES MPAC IN RTERM           (18D)
000756:
000757: 26,2664           77624                           CALL                                           #  CALC SDELF/2, CDELF/2
000758: 26,2665           56631                                    TFF/TRIG                              #  RETURN WITH S(THETA) IN MPAC
000759:
000760: 26,2666           77624                           CALL                                           #  GET FISCHER RADIUS            (-29) M
000761: 26,2667           55030                                    FISHCALC                              #  ANS IN MPAC AND IN ERADM.
000762:
000763: 26,2670           45015                           DAD      CALL
000764: 26,2671           02020                                    EMSALT
000765: 26,2672           57067                                    CALCTFF                               #  SAVES MPAC IN RTERM           (18D)
000766:
000767: 26,2673           77676                           DCOMP                                          #  NEGATIVE AS IN COUNTDOWN.
000768: 26,2674           03733                           STORE    TTE1                                  #  DECR TTE FROM BASE TTE1.  (RESTART)
000769:                                                                                                  #  DNLIST AND DSKY WILL USE TTE.
000770: 26,2675           37727                           STCALL   TTE                                   #  LET MISS CONTRL DECR BY ELAPSED TIME
000771:                                                                                                  #  TTE= TIME FROM NOW TO EMSALT +FISCHER
000772:
000773: 26,2676           56631                                    TFF/TRIG                              #  S(THETA) IN MPAC ON RETURNING
000774:                                                                                                  #  AND THETA= RANGE FROM NOW TO EMSALT
000775:
000776: 26,2677           77624                           CALL
000777: 26,2700           55030                                    FISHCALC
000778: 26,2701           77624                           CALL
000779: 26,2702           56664                                    VRCALC
000780: 26,2703           77624                           CALL
000781: 26,2704           56651                                    DISPTARG
000782: 26,2705           77624                           CALL
000783: 26,2706           56651                                    DISPTARG
000784: 26,2707           37714                           STCALL   RTGO


000786: 26,2710           55051                                    VGAMCALC
000787:
000788: 26,2711           77605                           DMP                                            #  MPAC = GAMMA
000789:                                                                                                  #  PDL0 HAS VGAM.
000790: 26,2712           43265                           BDDV     DAD
000791: 26,2713           15027                                    VEMSCON                               #  -HS D 180/PI (-14)
000792: 26,2714           00001                                    0                                     #  VGAM FROM PDL0.
000793: 26,2715           17725                           STODL    VIO                                   #  PREDICTED VELOCITY AT EMSALT.
000794:
000795:                                                                                                  #  GAMMA AND VGAM AT 300K FT ARE REQUIRED BY GMAX
000796:                                                                                                  #  ALGORITHM.
000797:
000798: 26,2716           02241                                    ERADM                                 #  EARTH RADIUS FROM GETERAD (-29) M
000799:                                                                                                  #  = FISCHER RADIUS (-29)
000800:
000801: 26,2717           77615                           DAD
000802: 26,2720           06462                                    300KFT                                #  M (-29)
000803: 26,2721           34023                           STCALL   RTERM                                 #  TERMINAL RADIUS M (-29)
000804:
000805: 26,2722           55046                                    PREVGAM                               #  VGAMCALC WITH NEW RTERM
000806:
000807:                                                                                                  #  VBAR = (V(FPS) - 36KF/S) / 20KF/S
000808:                                                                                                  #  GMAX = (4/(1 + 4.8 VBARSQ))(GAM - 6.05 - 2.4 VBARSQ) - 10(L/D - .3) + 10      ASSUME L/D = 0.3, BANK =0.
000809:
000810:                                                                                                  #  GMAXCALC
000811: 26,2723           45325                           PDDL     DSU                                   #  GAM TO PDL2
000812: 26,2724           00001                                    0                                     #  VGAM IS IN PDL0 (-7)
000813: 26,2725           15005                                    36KFT/S                               #  (-7) M/CS
000814: 26,2726           63471                           DDV      DSQ
000815: 26,2727           15007                                    20KFT/S                               #  (-6) M/CS
000816: 26,2730           00001                           STORE    0                                     #  VBARSQ (-2) TO PDL0
000817:
000818: 26,2731           43205                           DMP      DAD
000819: 26,2732           15011                                    KR1
000820:                                                                                                  #  GAM, POS DOWN, FROM PDL2
000821: 26,2733           41215                           DAD      DMP
000822: 26,2734           15013                                    -6.05DEG
000823: 26,2735           15015                                    KR2
000824: 26,2736           77725                           PDDL                                           #  XCH PDL+0 FOR VBARSQ (-2)
000825: 26,2737           43271                           DDV      DAD
000826: 26,2740           15025                                    KR4
000827: 26,2741           17366                                    DP2(-4)
000828: 26,2742           77665                           BDDV
000829:                                                                                                  #  NUM FROM PDL+0
000830: 26,2743           51015                           DAD      BPL
000831: 26,2744           15017                                    KR3
000832: 26,2745           54750                                    +3
000833: 26,2746           77745                           DLOAD
000834: 26,2747           15335                                    HI6ZEROS
000835: 26,2750           17722                           STODL    GMAX                                  #  100 GMAX (-14)


000837:                                                                                                  #  DISPLAY USES GMAX AS SP, SO LO WORD IS WRITTEN OVER BY VPRED.
000838: 26,2751           02241                                    ERADM                                 #  = FISCHER RADIUS (-29) M
000839: 26,2752           45015                           DAD      CALL                                  #  2 ND ITERATION FOR FISCHER RADIUS
000840: 26,2753           15023                                    400KFT
000841: 26,2754           57067                                    CALCTFF                               #  ESTABLISH TRANSFER ANGLE DATA.
000842: 26,2755           77624                           CALL
000843: 26,2756           56631                                    TFF/TRIG                              #  GET SIN, COS DELF
000844: 26,2757           77624                           CALL
000845: 26,2760           55030                                    FISHCALC                              #  GET CORRESPONDING FISCHER RADIUS.
000846:
000847: 26,2761           73015                           DAD      LXA,2                                 #  SAVE HI-WORD FOR DOWNLIST.
000848: 26,2762           15023                                    400KFT                                #  M (-29)
000849: 26,2763           03713                                    RTGO                                  #  (RANGE ANGLE FROM EMSALT) / 360
000850: 26,2764           34023                           STCALL   RTERM
000851: 26,2765           55046                                    PREVGAM                               #  VGAMCALC WITH NEW RTERM
000852:
000853: 26,2766           67076                           DCOMP    SXA,2                                 #  HI-WORD OF EACH ON DOWNLIST.
000854: 26,2767           00155                                    MPAC       +1
000855: 26,2770           17771                           STODL    GAMMAEI                               #  CONIC GAMMA/360 AT 400K FT.   (HI-WORD)
000856:                                                                                                  #  CONIC RTGO/360 FROM EMSALT   (LOW-WORD)
000857:                                                                                                  #  FOR TM, DP(GAMMAEI) = (GAMMA, RTGO) / 360
000858:
000859:                                                                                                  #  VGAM FROM PDL+0 (-7)
000860: 26,2771           77626                           STADR
000861: 26,2772           74010                           STORE    VPRED                                 #  CONIC VELOCITY AT 400K FT
000862:
000863: 26,2773           77634                           RTB
000864: 26,2774           54267                                    P61.1
000865:                                                                                                  #  PDL BACK TO ZERO.
000866:
000867: 26,2775           52145        LUNENT             DLOAD    GOTO
000868: 26,2776           06456                                    1/RTMUE                               #  ESTABLISH MU FOR LUNAR TYPE ENTRIES
000869: 26,2777           54657                                    CALLCON
000870: 26,3000           00002 26244  290KFT             2DEC     88392.0    B-29
000871:
000872: 26,3002           00052 05716  KTETA1             2DEC*    .421844723 E2         B-14*           #  1100 2PI/16384(163.84)
000873:
000874: 26,3004           33335 05707  36KFT/S            2DEC     109.728    B-7                        #  (-7) M/CS = 36 KFT/S (-7)
000875:
000876: 26,3006           36365 30244  20KFT/S            2DEC     121.92     B-7                        #  (-6) M/CS = 2 20KFT/S (-7)
000877:
000878: 26,3010           77113 42770  KR1                2DEC     -.026666667                            #  = -2.4 4 / 360
000879:
000880: 26,3012           77354 65030  -6.05DEG           2DEC     -.016805556                            #  = -6.05 / 360
000881:
000882: 26,3014           21450 00001  KR2                2DEC     .54931641                             #  = (360/4) 100 (-14) = 9000 B-14
000883:
000884: 26,3016           01750 00000  KR3                2DEC     1000       B-14                       #  = 100 (10.0) (-14) G,S


000886:                                                                                                  #  ASSUMES L/D = 0.3, BANK =0.
000887: 26,3020           00305 04541  RTRIAL             2DEC     6460097.18 B-29                       #  RPAD +284643 FT =21 194 545 FT
000888:                                                                                                  #  RPAD DEFINED AS 20 909 901.57 FT =6 373 338 M
000889: 26,3022           00003 27040  400KFT             2DEC     121920     B-29                       #  METERS
000890:
000891:                                                                                                  #  300KFT        2DEC    91440 B-29      (-29) M
000892:
000893:                                                                                                  #  EMSALT        2DEC    86759.2 B-29    284643 FT (-29) M       (ORBITAL REENTRY)
000894:
000895:                                                                                                  #  EMSALT        2DEC    90657 B-29      297431 FT (-29) M       (LUNAR REENTRY)
000896:
000897: 26,3024           32525 12525  KR4                2DEC     .833333333
000898:
000899: 26,3026  23,2461               300KFT             EQUALS   MINPERE
000900: 26,3026           77777 76601  VEMSCON            2DEC     -.0389676  B-14                       #  = -HS D / 2 PI (-14)  M SQ / CS SQ
000901:
000902:                                                                                                  #  = -16369      .05G    32.2    .3048   .3048/2 PI      (-14)
000903:


000905:                                                                                                  #  SUBROUTINE NAME:  FISHCALC    (USED BY S61.2)         DATE:           01.21.67
000906:                                                                                                  #  MOD NO: 0                                             LOG SECTION:    P61-P67
000907:                                                                                                  #  MOD BY: MORTH / BAIRNSFATHER
000908:                                                                                                  #  MOD NO: 1     MOD BY: RR BAIRNSFATHER                 DATE:           11 MAY 67       INCLUDE GETERAD CALL
000909:
000910:                                                                                                  #  FUNCTIONAL DESCRIPTION:  GIVEN THE PRESENT POSITION, UNITR, CALCULATE A NEW UNITR THAT IS ROTATED THROUGH
000911:                                                                                                  #        TRANSFER ANGLE, THETA, ALONG TRAJECTORY.  THEN CALCULATE SIN(LAT) AND USE TO OBTAIN FISCHER RADIUS.
000912:
000913:                                                                                                  #        SINCE FISHCALC USES UNI (LEFT BY ENTRY) EARTH SCALING IS ASSUMED.  (WILL IMPROVE FOR SUITABLE TENNANT)
000914:
000915:                                                                                                  #  CALLING SEQUENCE:     CALL
000916:                                                                                                  #                                FISHCALC
000917:                                                                                                  #        ENTER WITH .5 SIN(THETA) IN MPAC.
000918:                                                                                                  #        PUSHLOC IS AT PDL+0, AN ARBITRARY BASE VALUE IF LEQ 8D
000919:
000920:                                                                                                  #  SUBROUTINES CALLED:  GET ERAD
000921:
000922:                                                                                                  #  NORMAL EXIT MODE:  RVQ
000923:
000924:                                                                                                  #  EXIT MODES:   NONE
000925:
000926:                                                                                                  #  OUTPUT:       ERADM (-29) M IN MPAC ON RETURNING
000927:                                                                                                  #                NEW UNIT VECTOR NOT SAVED.
000928:                                                                                                  #                SIN(LAT) NOT SAVED.
000929:                                                                                                  #                PUSHLOC AT PDL+0
000930:
000931:                                                                                                  #  ERASEABLE INITIALIZATION REQUIRED:
000932:                                                                                                  #                SDELF/2         =SIN(THETA) / 2, IN MPAC                LEFT BY TFF/TRIG
000933:                                                                                                  #                CDELF/2         =COS(THETA) / 2, STORED IN PDL 14D      LEFT BY TFF/TRIG
000934:                                                                                                  #                RONE            (-29) M                                 LEFT BY USER
000935:                                                                                                  #                VONE            (-7) M/CS                               LEFT BY USER
000936:                                                                                                  #                URONE           UR/2                                    LEFT BY USER
000937:                                                                                                  #                UNI             .5 UNIT(V*R)                            LEFT BY ENTRY / P61
000938:                                                                                                  #                UNITW           UNIT NORTH POLE                         LEFT BY PAD LOAD
000939:
000940:                                                                                                  #  DEBRIS:       QPRET, PDL+0 ... PDL+5
000941:                                                                                                  #  -      -          -
000942: 26,3030           47315        FISHCALC           PDVL     VXV                                   #  URPR = UR CDELF + UHOR SDELF
000943: 26,3031           02343                                    URONE
000944: 26,3032           03502                                    UNI
000945: 26,3033           76561                           VXSC     VSL1
000946:                                                                                                  #  SIN(THETA) / 2 FROM PDL+0
000947: 26,3034           74315                           PDVL     VXSC                                  #  TO PDL+0, +5
000948: 26,3035           02343                                    URONE
000949: 26,3036           00017                                    CDELF/2                               #  COS(THETA) / 2
000950: 26,3037           45455                           VAD      STADR
000951: 26,3040           74235                           STORE    URH                                   #  FOR USE IN RTGO FROM EMS DISPLAY
000952: 26,3041           72441                           DOT      SL1
000953: 26,3042           01714                                    UNITW                                 #  FULL UNIT VECTOR      UNIT NORTH
000954: 26,3043           02156                           STORE    ALPHAV     +4                         #  = .5 SIN(LAT)
000955: 26,3044           77650        DUMPFISH           GOTO
000956: 26,3045           26505                                    GETERAD                               #  SAVES FISCHER RAD (-29) M IN ERADM AND
000957:                                                                                                  #  IN MPAC.  RETURNS TO CALLER VIQ QPRET.
000958:


000960:                                                                                                  #  SUBROUTINE NAME:  VGAMCALC    (USED BY S61.2)                         DATE:           01.21.67
000961:                                                                                                  #  MOD NO: 0                                                             LOG SECTION:    P61-P67
000962:                                                                                                  #  MOD BY: MORTH / BAIRNSFATHER
000963:                                                                                                  #  MOD NO: 1     MOD BY: RR BAIRNSFATHER         DATE: 11 APR 67
000964:                                                                                                  #  MOD NO: 2     MOD BY: RR BAIRNSFATHER         DATE: 21 NOV 67         VARIABLE MU ADDED.
000965:                                                                                                  #  MOD NO: 3     MOD BY: RR BAIRNSFATHER         DATE: 21 MAR 68         ACCEPT DIFFERENT EARTH/MOON SCALE
000966:
000967:                                                                                                  #  FUNCTIONAL DESCRIPTION:  EARTH CENTERED VIS VIVA CALCULATION OF TERMINAL VELOCITY AND GAMMA (REL TO
000968:                                                                                                  #        HORIZONTAL) GIVEN THE SCALAR QUANTITIES:  PRESENT RADIUS AND VELOCITY AND THE TERMINAL RADIUS.
000969:                                                                                                  #        THE USER MUST APPEND PROPER SIGN TO GAMMA, SINCE IT IS CALCULATED AS A POSITIVE NUMBER.
000970:                                                                                                  #        THE EQUATIONS ARE
000971:
000972:                                                                                                  #                VGAM = SQRT(VN VN/MU + 2(RN-RTERM)/(RN RTERM) ) RTMU
000973:
000974:                                                                                                  #                COSGAM = H / RTERM VGAM = SQRT (LCP) / (RTERM VGAM/RTMU)
000975:
000976:                                                                                                  #        VGAMCALC ASSUMES THAT THE TERMINAL RADIUS IS LESS THAN THE PRESENT RADIUS.  BOTH CALCTFF AND CALCTPER
000977:                                                                                                  #        MAKE THIS ASSUMPTION.
000978:
000979:                                                                                                  #  CALLING SEQUENCE:     CALL                    STCALL  RTERM
000980:                                                                                                  #                                VGAMCALC                PREVGAM
000981:                                                                                                  #        PUSHLOC AT PDL+0, ARBITRARY IF LEQ 12D
000982:                                                                                                  #        C(MPAC) UNSPECIFIED                     C(MPAC)=NEW RTERM
000983:
000984:                                                                                                  #  SUBROUTINES CALLED:  NONE
000985:
000986:                                                                                                  #  NORMAL EXIT MODE:  RVQ
000987:
000988:                                                                                                  #  ALARMS:       NONE
000989:                                                                                                  #
000990:                                                                                                  #  OUTPUT:       GAMMA / 360 IN MPAC, POSITIVE NUMBER
000991:                                                                                                  #                VGAM    E: (-7)   M: (-5)       M/CS IN PDL+0
000992:                                                                                                  #                PUSHLOC AT PDL+2
000993:
000994:                                                                                                  #  ERASABLE INITIALIZATION REQD:
000995:                                                                                                  #        TFF/RTMU  E: (17)   M: (14)     1/SQRT(MU)                              LEFT BY TFFCONIC.
000996:                                                                                                  #        RMAG1     E: (-29)  M: (-27)    M  PRESENT RADIUS LENGTH                LEFT BY TFFCONIC
000997:                                                                                                  #        NRMAG     E: (-29+NR)           M  NORM LENGTH OF PRESENT POSITION      LEFT BY TFFCONIC
000998:                                                                                                  #                  M: (-27+NR)
000999:                                                                                                  #        RTERM     E: (-29)  M: (-27)    M  TERMINAL RADIUS LENGTH               LEFT BY CALCTFF
001000:                                                                                                  #        NRTERM    E: (-29+NR)           M  NORM LENGTH OF TERMINAL RADIUS       LEFT BY CALCTFF
001001:                                                                                                  #                  M: (-27+NR)
001002:                                                                                                  #        TFFVSQ    E: (20)   M: (18)   1/M  -(V SQ/MU): PRESENT VELOCITY, NORM   LEFT BY TFFCONIC
001003:                                                                                                  #        TFFNP     E: (-38+2NR)          M  LCP, SEMI-LATUS RECTUM, WEIGHT NR    LEFT BY TFFCONIC
001004:                                                                                                  #                  M: (-36+2NR)
001005:
001006:                                                                                                  #  DEBRIS:       QPRET, PDL+0 ... PDL+3
001007:                                                                                                  #                RTERM, NRTERM IF PREVGAM ENTERED.


001009:
001010: 26,3046           77657        PREVGAM            SL*                                            #  ENTER WITH NEW RTERM IN MPAC
001011:                                                                                                  #  E: (-29)  M: (-27)
001012: 26,3047           20201                                    0,1                                   #  X1 = -NR
001013: 26,3050           00021                           STORE    NRTERM                                #  RTERM M               E: (-29+NR)     M: (-27+NR)
001014:
001015: 26,3051           41345        VGAMCALC           DLOAD    DMP
001016: 26,3052           00041                                    NRMAG                                 #  RMAG M                E: (-29+NR)     M: (-27+NR)
001017: 26,3053           00021                                    NRTERM                                #  RTERM M               E: (-29+NR)     M: (-27+NR)
001018: 26,3054           45325                           PDDL     DSU                                   #  RMAG RTERM M          E: (-58+2NR)    M: (-54+2NR)
001019: 26,3055           00041                                    NRMAG                                 #  RMAG M                E: (-29+NR)     M: (-27+NR)
001020: 26,3056           00021                                    NRTERM                                #  RTERM M               E: (-29+NR)     M: (-27+NR)
001021: 26,3057           56257                           SL*      DDV                                   #  2(RN-RTERM)           E: (-30+NR)     M: (-28+NR)
001022: 26,3060           20171                                    0          -8D,1                      #  (-8+NR)
001023:                                                                                                  #  PUSH UP PRODUCT.
001024: 26,3061           77625                           DSU
001025: 26,3062           00025                                    TFFVSQ                                #  -(V SQ/MU)            E: (20)         M: (18)
001026: 26,3063           41566                           SQRT     PUSH                                  #  SAVE VGAM/RT(MU) FOR NOW.     E: (10) M: (9)
001027: 26,3064           65271                           DDV      PDDL                                  #  XCH PDL+0, LEAVING VGAM FOR OUTPUT.
001028:                                                                                                  #  VGAM TO PDL M/CS      E: (-7)         M: (-2)
001029: 26,3065           00037                                    TFF/RTMU                              #                        E: (17)         M: (14)
001030: 26,3066           65205                           DMP      PDDL                                  #  RTERM VGAM/RTMU       E: (-19+NR)     M: (-18+NR)
001031: 26,3067           00021                                    NRTERM                                #  RTERM M               E: (-29+NR)     M: (-27+NR)
001032: 26,3070           00035                                    TFFNP                                 #  LC P =H.H/MU M        E: (-38+2NR)    M: (-36+2NR)
001033: 26,3071           56366                           SQRT     DDV                                   #                        E: (-19+NR)     M: (-18+NR)
001034:                                                                                                  #  PUSH UP DEN           E: (-19+NR)     M: (-18+NR)
001035:                                                                                                  #  USE DDV OVFL AS LIMITER (|COS| <1.0)
001036: 26,3072           65542                           SR1      ACOS
001037: 26,3073           77616        DUMPVGAM           RVQ
001038:                                                                                                  #  CALLER MUST SUPPLY OWN SIGN ...
001039:                                                                                                  #                        22W     27MS
001040:


001042:                                                                                                  #  SUBROUTINE NAME:      TFF/TRIG        (USED BY S61.2)         DATE            01.17.67
001043:                                                                                                  #  MOD NO: 0                                                     LOG SECTION:    P61-P67
001044:                                                                                                  #  MOD BY: RR BAIRNSFATHER
001045:                                                                                                  #  MOD NO: 1     MOD BY: RR BAIRNSFATHER         DATE: 14 APR 67
001046:                                                                                                  #  MOD NO: 2     MOD BY: RR BAIRNSFATHER         DATE: 21 MAR 68         ACCEPT DIFFERENT EARTH/MOON SCALE
001047:
001048:                                                                                                  #  FUNCTIONAL DESCRIPTION:  USED BY ENTRY DISPLAY TO CALCULATE SIN(THETA), COS(THETA) FROM DATA LEFT IN
001049:                                                                                                  #        PDL BY TFF SUBROUTINES.  THE EQNS ARE
001050:
001051:                                                                                                  #                COS(THETA) = 1-2 ABS(ARG) / (RN RTERM (1+X) )
001052:                                                                                                  #                                                2
001053:                                                                                                  #                SIN(THETA) = SGN(ARG) SQRT(1-COS (THETA) )
001054:
001055:                                                                                                  #        WHERE THETA = TRANSFER ANGLE
001056:                                                                                                  #        AND     ARG = P Z ABS(Z)                        IF ALFA ZZ LEQ 1
001057:                                                                                                  #                ARG = (P / ALFA) SGN(Q1 + R 1/Z)        IF ALFA Z Z G 1
001058:                                                                                                  #        AND  ARG  HAS BEEN AFFIXED WITH THE SIGN OF SIN(THETA).
001059:
001060:                                                                                                  #  CALLING SEQUENCE:     CALL
001061:                                                                                                  #                                TFF/TRIG
001062:                                                                                                  #                PUSHLOC AT PDL+0, ARBITRARY IF NOT EQ 14D
001063:                                                                                                  #                C(MPAC) UNSPECIFIED
001064:
001065:                                                                                                  #  SUBROUTINES CALLED:  NONE
001066:
001067:                                                                                                  #  NORMAL EXIT MODES:  RVQ
001068:
001069:                                                                                                  #  ALARMS:       NONE
001070:
001071:                                                                                                  #  OUTPUT:       C(MPAC) = .5 SIN(THETA)
001072:                                                                                                  #                CDELF/2 = .5 COS(THETA)         (IN PDL 14D)
001073:                                                                                                  #                PUSHLOC AT PDL+0
001074:
001075:                                                                                                  #  ERASABLE INITIALIZATION REQUIRED:
001076:                                                                                                  #                TFFX                    X                                       LEFT BY CALCTFF OR CALCTPER
001077:                                                                                                  #                TFFTEM  E: (-59+2NR)    ARG                                     LEFT BY CALCTFF OR CALCTPER
001078:                                                                                                  #                        M: (-55+2NR)    WHERE ARG = LCP ZZ SGN(DELF) OR ARG = LCP/ALFA SGN(DELF)
001079:                                                                                                  #                NRTERM  E: (-29+NR)     M  NORM LENGTH OF TERMINAL RADIUS       LEFT BY CALCTFF OR CALCTPER
001080:                                                                                                  #                        M: (-27+NR)
001081:                                                                                                  #                NRMAG   E: (-29+NR)     M  NORM LENGTH OF PRESENT POSITION      LEFT BY TFFCONIC
001082:                                                                                                  #                        M: (-27+NR)
001083:
001084:                                                                                                  #  DEBRIS:       QPRET, CDELF/2
001085:
001086: 27,2631                                           BANK     27
001087: 27,2000                                           SETLOC   P60S5
001088: 27,2000                                           BANK
001089: 27,2631           70545        TFF/TRIG           DLOAD    SR1
001090: 27,2632           00043                                    TFFX
001091: 27,2633           41215                           DAD      DMP
001092: 27,2634           15333                                    HIDPHALF
001093: 27,2635           00041                                    NRMAG                                 #  RMAG M                E: (-29+NR)     M: (-27+NR)
001094: 27,2636           55205                           DMP      BDDV
001095: 27,2637           00021                                    NRTERM                                #  RTERM M               E: (-29+NR)     M: (-27+NR)
001096: 27,2640           00045                                    TFFTEM                                #  P ZSQ OR P/ALFA       E: (-59+2NR)    M: (-55+2NR)
001097: 27,2641           44246                           ABS      BDSU                                  #  THE SIGN IS FOR SDELF.
001098: 27,2642           15333                                    HIDPHALF
001099: 27,2643           00017                           STORE    CDELF/2                               #  .5 COS(THETA)
001100: 27,2644           57516                           DSQ      DCOMP                                 #  KEEP HONEST FOR SQRT.


001102: 27,2645           75415                           DAD      SQRT
001103: 27,2646           15325                                    HIDP1/4
001104: 27,2647           43565        DUMPTRIG           SIGN     RVQ
001105: 27,2650           00045                                    TFFTEM                                #  AFFIX SIGN(DELE/2)
001106:                                                                                                  #  RETURN WITH .5 SIN(THETA) IN MPAC
001107:
001108:                                                                                                  #                        16W     15MS
001109:
001110: 27,2651           77620        DISPTARG           STQ                                            #  C(MPAC) = TRGO ESTIMATE
001111: 27,2652           03373                                    60GENRET
001112: 27,2653           45205                           DMP      DSU
001113: 27,2654           15003                                    KTETA1
001114: 27,2655           03733                                    TTE1
001115: 27,2656           37606                           STCALL   DTEAROT
001116: 27,2657           46225                                    EARROT2
001117: 27,2660           77624                           CALL
001118: 27,2661           56664                                    VRCALC
001119: 27,2662           77650                           GOTO
001120: 27,2663           03373                                    60GENRET
001121: 27,2664           50375        VRCALC             VLOAD    DOT
001122: 27,2665           03542                                    URH
001123: 27,2666           03474                                    RT
001124: 27,2667           65512                           SL2      ACOS
001125: 27,2670           77616                           RVQ
001126:
001127:                                                                                                  #  END OF PROGRAM S61.2
001128:


001130:                                                                                                  #  PROGRAM DESCRIPTION S62.3     DATE 10JAN67
001131:                                                                                                  #  MOD NO 1                      LOG SECTION P60-P67
001132:                                                                                                  #  MOD BY ZELDIN
001133:                                                                                                  #  MOD NO: 2     MOD BY: RR BAIRNSFATHER         DATE: 15 MAY 67         CHANGED TO REF COORDS.
001134:                                                                                                  #  MOD NO: 3     MOD BY: RR BAIRNSFATHER         DATE: 17 JAN 68         ALFAPAD CHANGES MADE.
001135:
001136:                                                                                                  #  FUNCTIONAL DESCRIPTION
001137:
001138:                                                                                                  #        COMPUTE DESIRED GIMBOL ANGLES FOR ENTRY ATTITUDE
001139:                                                                                                  #        THE FOLLOWING TRAJECTORY TRIAD IS AVAILABLE IN MEMORY AND IS COMPUTED EACH 2 SECONDS BY CM/POSE IN
001140:                                                                                                  #        REFERENCE COORDINATES (V = VELOCITY RELATIVE TO EARTH) :
001141:
001142:                                                                                                  #                UXA = -UNIT(V)
001143:                                                                                                  #                UYA =  UNIT(V*R)
001144:                                                                                                  #                UZA =  UXA*UYA
001145:
001146:                                                                                                  #        GENERATE A DESIRED BODY TRIAD FOR TRIMMED FLIGHT WITH RESPECT TO THE RELATIVE VELOCITY VECTOR, USING
001147:                                                                                                  #        ROLL COMMAND AND TRIM ANGLE OF ATTACK:
001148:
001149:                                                                                                  #                UXD = UNIT(UYD*UXA) SIN(ALFATRIM) + UXA COS(ALFATRIM)
001150:                                                                                                  #                UYD = UYA COS(ROLLC) + UZA SIN(ROLLC)
001151:                                                                                                  #                UZD = UXD * UYD
001152:
001153:                                                                                                  #        USE THE DESIRED SET (IN REFERENCE COORDS) AND REFSMMAT TO CALL  CALCGA  AND OBTAIN GIMBAL ANGLES
001154:                                                                                                  #        IN 2S, C IN MPAC, +2 AND THETAD, +2.
001155:
001156:                                                                                                  #  CALLING SEQUENCE
001157:
001158:                                                                                                  #        L       CALL
001159:                                                                                                  #        L+1             S62.3
001160:
001161:                                                                                                  #  NORMAL EXIT MODE
001162:
001163:                                                                                                  #        RETURN VIA QPRET DIRECTLY FROM CALCGA.
001164:
001165:                                                                                                  #  SUBROUTINES CALLED
001166:
001167:                                                                                                  #        CALCGA
001168:
001169:                                                                                                  #  ALARM OR ABORT MODES
001170:
001171:                                                                                                  #        NONE
001172:
001173:                                                                                                  #  ERASABLE INITIALIZATION REQUIRED
001174:
001175:                                                                                                  #        ROLLC   ROLL COMMAND            DP 1:S COMP AT 1REV
001176:                                                                                                  #        ALFAPAD SP 1S,C / 180           LEFT BY PAD LOAD        ALFATRIM IS NEGATIVE.
001177:                                                                                                  #        UXA/2   REF COORDS              LEFT BY CM/POSE
001178:                                                                                                  #        UYA/2   REF COORDS              LEFT BY CM/POSE
001179:                                                                                                  #        UZA/2   REF COORDS              LEFT BY CM/POSE
001180:
001181:                                                                                                  #  OUTPUT
001182:                                                                                                  #
001183:                                                                                                  #        CPHI    GIMBAL ANGLES (O,I,M) 2:S COMP TP (O,I,M)/180
001184:
001185:                                                                                                  #  DEBRIS
001186:
001187:                                                                                                  #        QTEMP, QPRET, PUSHLIST
001188:
001189: 10,2376                                           BANK     10
001190: 10,2000                                           SETLOC   P60S4
001191: 10,2000                                           BANK


001193: 10,2376                                           COUNT*   $$/S62.3
001194:
001195: 10,2376           67201        S62.3              SETPD    SLOAD
001196: 10,2377           00001                                    0
001197: 10,2400           03012                                    ALFAPAD                               #  ALFATRIM / 180, ALFA IS NEG.
001198: 10,2401           41542                           SR1      PUSH
001199: 10,2402           65346                           COS      PDDL                                  #  XCH PDL, COS TO PDL0
001200: 10,2403           65356                           SIN      PDDL                                  #  SIN TO PDL2
001201: 10,2404           03316                                    ROLLC
001202: 10,2405           74346                           COS      VXSC
001203: 10,2406           03550                                    UYA/2                                 #                                REF COORDS
001204: 10,2407           73525                           PDDL     SIN                                   #  PUSH VECTOR INTO PDL4,.9
001205: 10,2410           03316                                    ROLLC
001206: 10,2411           53361                           VXSC     VAD
001207: 10,2412           03556                                    UZA/2                                 #                                REF COORDS
001208:                                                                                                  #  VECTOR FROM PDL4, 9
001209: 10,2413           77772                           VSL1
001210: 10,2414           02722                           STORE    YNB                                   #  = UYD                         REF COORDS
001211:
001212: 10,2415           76435                           VXV      VSL1
001213: 10,2416           03542                                    UXA/2                                 #                                REF COORDS
001214: 10,2417           65361                           VXSC     PDDL
001215:                                                                                                  #  SIN TRIM FROM PDL2
001216:                                                                                                  #  XCH PDL0 FOR COS TRIM
001217: 10,2420           53361                           VXSC     VAD
001218: 10,2421           03542                                    UXA/2                                 #                                REF COORDS
001219:                                                                                                  #  FROM PDL0
001220: 10,2422           77772                           VSL1
001221: 10,2423           02714                           STORE    XNB                                   #  X SC AXIS (.5 UNIT)           REF COORDS
001222:
001223: 10,2424           76435                           VXV      VSL1
001224: 10,2425           02722                                    YNB
001225: 10,2426           26730                           STOVL    ZNB                                   #  Z SC IN REF COOR. SCALED AT 2
001226: 10,2427           01736                                    REFSMMAT
001227: 10,2430           26672                           STOVL    XSM
001228: 10,2431           01744                                    REFSMMAT   +6
001229: 10,2432           26700                           STOVL    YSM
001230: 10,2433           01752                                    REFSMMAT   +12D
001231: 10,2434           02706                           STORE    ZSM
001232:
001233: 10,2435           52014                           CLEAR    GOTO
001234: 10,2436           00260                                    CPHIFLAG                              #  CAUSE CALCGA TO STORE ANS IN TP CPHI
001235: 10,2437           47311                                    CALCGA
001236:                                                                                                  #  CALCGA WILL RETURN TO ORIGINAL CALLER
001237:                                                                                                  #  VIA QPRET WITH 2,S COMP. ANGLES IN CPHI
001238:
001239:
001240:

End of include-file P61-P67.agc.  Parent file is MAIN.agc


