
Source Code
000001:                                                                                                 #  Copyright:     Public domain.
000002:                                                                                                 #  Filename:      PHASE_TABLE_MAINTENANCE.agc
000003:                                                                                                 #  Purpose:       Part of the source code for Colossus 2A, AKA Comanche 055.
000004:                                                                                                 #                 It is part of the source code for the Command Module's (CM)
000005:                                                                                                 #                 Apollo Guidance Computer (AGC), for Apollo 11.
000006:                                                                                                 #  Assembler:     yaYUL
000007:                                                                                                 #  Contact:       Ron Burkey <info@sandroid.org>.
000008:                                                                                                 #  Website:       www.ibiblio.org/apollo.
000009:                                                                                                 #  Pages: 1404-1413
000010:                                                                                                 #  Mod history:  2009-05-10 SN   (Sergio Navarro).  Started adapting
000011:                                                                                                 #                                 from the Colossus249/ file of the same
000012:                                                                                                 #                                 name, using Comanche055 page images.
000013:
000014:                                                                                                 #  This source code has been transcribed or otherwise adapted from digitized
000015:                                                                                                 #  images of a hardcopy from the MIT Museum.  The digitization was performed
000016:                                                                                                 #  by Paul Fjeld, and arranged for by Deborah Douglas of the Museum.  Many
000017:                                                                                                 #  thanks to both.  The images (with suitable reduction in storage size and
000018:                                                                                                 #  consequent reduction in image quality as well) are available online at
000019:                                                                                                 #  www.ibiblio.org/apollo.  If for some reason you find that the images are
000020:                                                                                                 #  illegible, contact me at info@sandroid.org about getting access to the
000021:                                                                                                 #  (much) higher-quality images which Paul actually created.
000022:
000023:                                                                                                 #  Notations on the hardcopy document read, in part:
000024:
000025:                                                                                                 #     Assemble revision 055 of AGC program Comanche by NASA
000026:                                                                                                 #     2021113-051.  10:28 APR. 1, 1969
000027:
000028:                                                                                                 #     This AGC program shall also be referred to as
000029:                                                                                                 #             Colossus 2A
000030:
000031:                                                                                                 #  Page 1404
000032:                                                                                                 #  SUBROUTINE TO UPDATE THE PROGRAM NUMBER DISPLAY ON THE DSKY.
000033:
000034: 43,3726                                          COUNT    02/PHASE
000035:    5354                                          BLOCK    02
000036:    4000                                          SETLOC   FFTAG1
000037:    4000                                          BANK
000038:
000039:    5354           50002        NEWMODEX          INDEX    Q                                     #  UPDATE MODREG.  ENTRY FOR MODE IN FIXED.
000040:    5355           30000                          CAF      0
000041:    5356           24002                          INCR     Q
000042:
000043:    5357           55011        NEWMODEA          TS       MODREG                                #  ENTRY FOR MODE IN A.
000044:    5360           35363        MMDSPLAY          CAF      +3                                    #  DISPLAY MAJOR MODE.
000045:    5361           22006        PREBJUMP          LXCH     BBANK                                 #  PUTS BBANK IN L
000046:    5362           14704                          TCF      BANKJUMP                              #  PUTS Q INTO A
000047:    5363           20440                          CADR     SETUPDSP
000048:
000049:                                                                                                 #  RETURN TO CALLER +3 IF MODE = THAT AT CALLER +1.  OTHERWISE RETURN TO CALLER +2.
000050:
000051:    5364           50002        CHECKMM           INDEX    Q
000052:    5365           40000                          CS       0
000053:    5366           61011                          AD       MODREG
000054:    5367           00006                          EXTEND
000055:    5370           16710                          BZF      Q+2
000056:    5371           16706                          TCF      Q+1                                   #  NO MATCH
000057:
000058:    5372     6711               TCQ               =        Q+2        +1
000059:
000060: 14,3761                                          BANK     14
000061: 10,2000                                          SETLOC   PHASETAB
000062: 10,2000                                          BANK
000063:
000064: 10,2440                                          COUNT    10/PHASE
000065:
000066: 10,2440           00004        SETUPDSP          INHINT
000067: 10,2441           52071                          DXCH     RUPTREG1                              #  SAVE CALLER'S RETURN 2CADR
000068: 10,2442           34371                          CAF      PRIO30                                #         EITHER A TASK OR JOB CAN COME TO
000069: 10,2443           05134                          TC       NOVAC                                 #         NEWMODEX
000070: 10,2444     1011                                 EBANK=   MODREG
000071: 10,2444           03441 60102                    2CADR    DSPMMJOB
000072:
000073: 10,2446           52071                          DXCH     RUPTREG1
000074: 10,2447           00003                          RELINT
000075: 10,2450           52006                          DXCH     Z                                     #  RETURN
000076:
000077: 10,2451  40,3441               DSPMMJOB          EQUALS   DSPMMJB
000078:
000079:    5372                                          BLOCK    02
000080:                                                                                                 #  Page 1405
000081:    4000                                          SETLOC   FFTAG1
000082:    4000                                          BANK
000083:
000084:                                                                                                 #  Page 1406
000085:                                                                                                 #  PHASCHNG IS THE MAIN WAY OF MAKING PHASE CHANGES FOR RESTARTS.  THERE ARE THREE FORMS OF PHASCHNG, KNOWN AS TYPE
000086:                                                                                                 #  A, TYPE B, AND TYPE C.  THEY ARE ALL CALLED AS FOLLOWS, WHERE OCT XXXXX CONTAINS THE PHASE INFORMATION,
000087:                                                                                                 #                 TC      PHASCHNG
000088:                                                                                                 #                 OCT     XXXXX
000089:                                                                                                 #  TYPE A IS CONCERNED WITH FIXED PHASE CHANGES, THAT IS, PHASE INFORMATION THAT IS STORED PERMANENTLY.  THESE
000090:                                                                                                 #  OPTIONS ARE, WHERE G STANDS FOR A GROUP AND .X FOR THE PHASE,
000091:                                                                                                 #         G.0             INACTIVE, WILL NOT PERMIT A GROUP G RESTART
000092:                                                                                                 #         G.1             WILL CAUSE THE LAST DISPLAY TO BE REACTIVATED, USED MAINLY IN MANNED FLIGHTS
000093:                                                                                                 #         G.EVEN          A DOUBLE TABLE RESTART, CAN CAUSE ANY COMBINATION OF TWO JOBS, TASKS, AND/OR
000094:                                                                                                 #                         LONGCALL TO BE RESTARTED.
000095:                                                                                                 #         G.ODD NOT .1    A SINGLE TABLE RESTART, CAN CAUSE EITHER A JOB, TASK, OR LONGCALL RESTART.
000096:
000097:                                                                                                 #  THIS INFORMATION IS PUT INTO THE OCTAL WORD AFTER TC PHASCHNG AS FOLLOWS
000098:                                                                                                 #         TL0 00P PPP PPP GGG
000099:                                                                                                 #  WHERE EACH LETTER OR NUMBER STANTS FOR A BIT.  THE G'S STAND FOR THE GROUP, OCTAL 1-7, THE P'S FOR THE PHASE,
000100:                                                                                                 #  OCTAL 0 - 127.  0'S MUST BE 0.  IF ONE WISHES TO HAVE THE TBASE OF GROUP G TO BE SET AT THIS TIME,
000101:                                                                                                 #  T IS SET TO 1, OTHERWISE IT IS SET TO 0.  SIMILARLY IF ONE WISHES TO SET LONGBASE, THEN L IS SET TO 1, OTHERWISE
000102:                                                                                                 #  IT IS SET TO 0.  SOME EXAMLES,
000103:                                                                                                 #                 TC      PHASCHNG        # THIS WILL CAUSE GROUP 3 TO BE SET TO 0,
000104:                                                                                                 #                 OCT     00003           # MAKING GROUP 3 INACTIVE
000105:
000106:                                                                                                 #                 TC      PHASCHNG        # IF A RESTART OCCURS THIS WOULD CAUSE
000107:                                                                                                 #                 OCT     00012           # GROUP 2 TO RESTART THE LAST DISPLAY
000108:
000109:                                                                                                 #                 TC      PHASCHNG        # THIS SETS THE TBASE OF GROUP 4 AND IN
000110:                                                                                                 #                 OCT     40064           # CASE OF A RESTART WOULD START UP THE TWO
000111:                                                                                                 #                                         # THINGS LOCATED IN THE DOUBLE 4.6 RESTART
000112:                                                                                                 #                                         # LOCATION.
000113:
000114:                                                                                                 #                 TC      PHASCHNG        # THIS SETS LONGBASE AND UPON A RESTART
000115:                                                                                                 #                 OCT     20135           # CAUSES 5.13 TO BE RESTARTED (SINCE
000116:                                                                                                 #                                         # LONGBASE WAS SET THIS SINGLE ENTRY
000117:                                                                                                 #                                         # SHOULD BE A LONGCALL)
000118:
000119:                                                                                                 #                 TC      PHASCHNG        # SINCE BOTH TBASE4 AND LONGBASE ARE SET,
000120:                                                                                                 #                 OCT     60124           # 4.12 SHOULD CONTAIN BOTH A TASK AND A
000121:                                                                                                 #                                         # LONGCALL TO BE RESTARTED
000122:
000123:                                                                                                 #  TYPE C PHASCHNG CONTAINS THE VARIABLE TYPE OF PHASCHNG INFORMATION.  INSTEAD OF THE INFORMATION BEING IN A
000124:                                                                                                 #  PERMANENT FORM, ONE STORES THE DESIRED RESTART INFORMATION IN A VARIABLE LOCATION.  THE BITS ARE AS FOLLOWS,
000125:                                                                                                 #         TL0 1AD XXX CJW GGG
000126:                                                                                                 #  WHERE EACH LETTER OR NUMBER STANDS FOR A BIT.  THE G'S STAND FOR THE GROUP, OCTAL 1 - 7.  IF THE RESTART IS TO
000127:                                                                                                 #  BE BY WAITLIST, W IS SET TO 1, IF IT IS A JOB, J IS SET TO 1, IF IT IS A LONGCALL, C IS SET TO 1.  ONLY ONE OF
000128:                                                                                                 #  THESE THREE BITS MAY BE SET.  X'S ARE IGNORED, 1 MUST BE 1, AND 0 MUST BE 0.  AGAIN T STANDS FOR THE TBASE,
000129:                                                                                                 #  Page 1407
000130:                                                                                                 #  AND L FOR LONGBASE.  THE BITS A AND D ARE CONCERNED WITH THE VARIABLE INFORMATION.  IF D IS SET TO 1, A PRIORITY
000131:                                                                                                 #  OR DELTA TIME WILL BE READ FROM THE NEXT LOCATION AFTER THE OCTAL INFORMATION., IF THIS IS TO BE INDIRECT, THAT
000132:                                                                                                 #  IS, THE NAME OF A LOCATION CONTAINING THE INFORMATION (DELTA TIME ONLY), THEN THIS IS GIVEN AS THE -GENADR OF
000133:                                                                                                 #  THAT LOCATION WHICH CONTAINS THE DELTA TIME.  IF THE OLD PRIORITY OR DELTA TIME IS TO BE USED, THAT WHICH IS
000134:                                                                                                 #  ALREADY IN THE VARIABLE STORAGE, THEN D IS SET TO 0.  NEXT THE A BIT IS USED.  IF IT IS SET TO 0, THE ADDRESS
000135:                                                                                                 #  THAT WOULD BE RESTARTED DURING A RESTART IS THE NEXT LOCATION AFTER THE PHASE INFORMATION, THAT IS, EITHER
000136:                                                                                                 #  (TC PHASCHNG) +2 OR +3, DEPENDING ON WHETHER D HAD BEEN SET OR NOT.  IF A IS SET TO 1, THEN THE ADDRESS THAT
000137:                                                                                                 #  WOULD BE RESTARTED IS THE 2CADR THAT IS READ FROM THE NEXT TWO LOCATION.  EXAMPLES,
000138:                                                                                                 #         AD      TC      PHASCHNG        # THIS WOULD CAUSE LOCATION AD +3 TO BE
000139:                                                                                                 #         AD+1    OCT     05023           # RESTARTED BY GROUP THREE WITH A PRIORITY
000140:                                                                                                 #         AD+2    OCT     23000           # OF 23.  NOTE UPON RETURNING IT WOULD
000141:                                                                                                 #         AD+3                            # ALSO GO TO AD+3
000142:
000143:                                                                                                 #         AD      TC      PHASCHNG        # GROUP 1 WOULD CAUSE CALLCALL TO BE
000144:                                                                                                 #         AD+1    OCT     27441           # BE STARTED AS A LONGCALL FROM THE TIME
000145:                                                                                                 #         AD+2    -GENADR DELTIME         # STORED IN LONGBASE (LONGBASE WAS SET) BY
000146:                                                                                                 #         AD+3    2CADR   CALLCALL        # A DELTATIME STORED IN DELTIME.  THE
000147:                                                                                                 #         AD+4                            # BBCON OF THE 2CADR SHOULD CONTAIN THE E
000148:                                                                                                 #         AD+5                            # BANK OF DELTIME.  PHASCHNG RETURNS TO
000149:                                                                                                 #                                         # LOCATION AD+5
000150:
000151:                                                                                                 #  NOTE THAT IF A VARIABLE PRIORITY IS GIVEN FOR A JOB, THE JOB WILL BE RESTARTED AS A NOVAC IF THE PRIORITY IS
000152:                                                                                                 #  NEGATIVE, AS A FINDVAC IF THE PRIORITY IS POSITIVE.
000153:
000154:                                                                                                 #  TYPE B PHASCHNG IS A COMBINATION OF VARIABLE AND FIXED PHASE CHANGES.  IT WILL START UP A JOB AS INDICATED
000155:                                                                                                 #  BELOW AND ALSO START UP ONE FIXED RESTART, THAT IS EITHER AN G.1 OR A G.ODD OR THE FIRST ENTRY OF G.EVEN
000156:                                                                                                 #  DOUBLE ENTRY.  THE BIT INFORMATION IS AS FOLLOW,
000157:                                                                                                 #         TL1 DAP PPP PPP GGG
000158:                                                                                                 #  WHERE EACH LETTER OR NUMBER STANDS FOR A BIT.  THE G'S STAND FOR THE GROUP, OCTAL 1 - 7, THE P'S FOR THE FIXED
000159:                                                                                                 #  PHASE INFORMATION, OCTAL 0 - 127.  1 MUST BE 1.  AND AGAIN T STANDS FOR THE TBASE AND L FOR LONGBASE.  D THIS
000160:                                                                                                 #  TIME STANDS ONLY FOR PRIORITY SINCE THIS WILL BE CONSIDERED A JOB, AND IT MUST BE GIVEN DIRECTLY IF GIVEN.
000161:                                                                                                 #  AGAIN A STANDS FOR THE ADDRESS OF THE LOCATION TO BE RESTARTED, 1 IF THE 2CADR IS GIVEN, OR 0 IF IT IS TO BE
000162:                                                                                                 #  THE NEXT LOCATION.  (THE RETURN LOCATION OF PHASCHNG) EXAMPLES,
000163:                                                                                                 #         AD      TC      PHASCHNG        # TBASE IS SET AND A RESTART CAUSE GROUP 3
000164:                                                                                                 #         AD+1    OCT     56043           # TO START THE JOB AJOBAJOB WITH PRIORITY
000165:                                                                                                 #         AD+2    OCT     31000           # 31 AND THE FIRST ENTRY OF 3.4SPOT (WE CAN
000166:                                                                                                 #         AD+3    2CADR   AJOBAJOB        # ASSUME IT IS A TASK SINCE WE SET TBASE3)
000167:                                                                                                 #         AD+4                            # UPON RETURN FROM PHASCHNG CONTROL WOULD
000168:                                                                                                 #         AD+5                            # GO TO AD+5
000169:
000170:                                                                                                 #         AD      TC      PHASCHNG        # UPON A RESTART THE LAST DISPLAY WOULD BE
000171:                                                                                                 #         AD+1    OCT     10015           # RESTARTED AND A JOB WITH THE PREVIOUSLY
000172:                                                                                                 #         AD+2                            # STORED PRIORITY WOULD BE BEGUN AT AD+2
000173:                                                                                                 #                                         # BY MEANS OF GROUP 5
000174:                                                                                                 #  Page 1408
000175:                                                                                                 #  THE NOVAC-FINDVAC CHOICE FOR JOBS HOLDS HERE ALSO -- NEGATIVE PRIORITY CAUSES A NOVAC CALL, POSITIVE A FINDVAC.
000176:
000177:                                                                                                 #  SUMMARY OF BITS:
000178:                                                                                                 #         TYPE A          TL0 00P PPP PPP GGG
000179:                                                                                                 #         TYPE B          TL1 DAP PPP PPP GGG
000180:                                                                                                 #         TYPE C          TL0 1AD XXX CJW GGG
000181:
000182:                                                                                                 #  Page 1409
000183:                                                                                                 #  2PHSCHNG IS USED WHEN ONE WISHES TO START UP A GROUP OR CHANGE A GROUP WHILE UNDER THE CONTROL OF A DIFFERENT
000184:                                                                                                 #  GROUP.  FOR EXAMPLE, CHANGE THE PHASE OF GROUP 3 WHILE THE PORTION OF THE PROGRAM IS UNDER GROUP 5.  ALL 2PHSCHNG
000185:                                                                                                 #  CALLS ARE MADE IN THE FOLLOWING MANNER,
000186:                                                                                                 #                 TC      2PHSCHNG
000187:                                                                                                 #                 OCT     XXXXX
000188:                                                                                                 #                 OCT     YYYYY
000189:                                                                                                 #  WHERE OCT XXXXX MUST BE OF TYPE A AND OCT YYYYY MAY BE OF EITHER TYPE A OR TYPE B OR TYPE C.  THERE IS ONE
000190:                                                                                                 #  DIFFERENCE --- NOTE: IF LONGBASE IS TO BE SET THIS INFORMATION IS GIVEN IN THE OCT YYYYY INFORMATION, IT WILL
000191:                                                                                                 #  BE DISREGARDED IF GIVEN WITH THE OCT XXXXX INFORMATION.  A COUPLE OF EXAMPLES MAY HELP,
000192:                                                                                                 #         AD      TC      2PHACHNG        # SET TBASE3 AND IF A RESTART OCCURS START
000193:                                                                                                 #         AD+1    OCT     40083           # THE TWO ENTRIES IN 3.8 TABLE LOCATION
000194:                                                                                                 #         AD+2    OCT     05025           # THIS IS OF TYPE C, SET THE JOB TO BE
000195:                                                                                                 #         AD+3    OCT     18000           # TO BE LOCATION AD+4, WITH A PRIORITY 18,
000196:                                                                                                 #         AD+4                            # FOR GROUP 5 PHASE INFORMATION.
000197:
000198:    5372                                          COUNT    02/PHASE
000199:
000200:    5372           00004        2PHSCHNG          INHINT                                         #  THE ENTRY FOR A DOUBLE PHASE CHANGE
000201:    5373           50002                          NDX      Q
000202:    5374           30000                          CA       0
000203:    5375           24002                          INCR     Q
000204:    5376           54072                          TS       TEMPP2
000205:
000206:    5377           75023                          MASK     OCT7
000207:    5400           60000                          DOUBLE
000208:    5401           54071                          TS       TEMPG2
000209:
000210:    5402           30072                          CA       TEMPP2
000211:    5403           75072                          MASK     OCT17770                              #  NEED ONLY 1770, BUT WHY GET A NEW CONST.
000212:    5404           00006                          EXTEND
000213:    5405           75004                          MP       BIT12
000214:    5406           56072                          XCH      TEMPP2
000215:
000216:    5407           75001                          MASK     BIT15
000217:    5410           54066                          TS       TEMPSW2                               #  INDICATES WHETHER TO SET TBASE OR NOT
000218:
000219:    5411           15415                          TCF      PHASCHNG   +3
000220:
000221:    5412           00004        PHASCHNG          INHINT
000222:    5413           35017                          CA       ONE                                   #  INDICATES CAME FROM A PHASCHNG ENTRY
000223:    5414           54066                          TS       TEMPSW2
000224:
000225:    5415           50002                          NDX      Q
000226:    5416           30000                          CA       0
000227:    5417           24002                          INCR     Q
000228:    5420           54065                          TS       TEMPSW
000229:                                                                                                 #  Page 1410
000230:    5421           00006                          EXTEND
000231:    5422           35425                          DCA      ADRPCHN2                              #  OFF TO SWITCHED BANK
000232:    5423           52006                          DTCB
000233:
000234:    5424  E3,1400                                 EBANK=   LST1
000235:    5424           02451 20063  ADRPCHN2          2CADR    PHSCHNG2
000236:
000237:    5426           22073        ONEORTWO          LXCH     TEMPBBCN
000238:    5427           22006                          LXCH     BBANK
000239:    5430           22073                          LXCH     TEMPBBCN
000240:
000241:    5431           75066                          MASK     OCT14000                              #  SEE WHAT KIND OF PHASE CHANGE IT IS
000242:    5432           10000                          CCS      A
000243:    5433           15474                          TCF      CHECKB                                #  IT IS OF TYPE `B'.
000244:
000245:    5434           30062                          CA       TEMPP
000246:    5435           75011                          MASK     BIT7
000247:    5436           10000                          CCS      A                                     #  SHALL WE USE THE OLD PRIORITY
000248:    5437           15461                          TCF      GETPRIO                               #  NO GET A NEW PRIORITY (OR DELTA T)
000249:
000250:    5440           50061        OLDPRIO           NDX      TEMPG                                 #  USE THE OLD PRIORITY (OR DELTA T)
000251:    5441           31052                          CA       PHSPRDT1   -2
000252:    5442           54070                          TS       TEMPPR
000253:
000254:    5443           30062        CON1              CA       TEMPP                                 #  SEE IF A 2CADR IS GIVEN
000255:    5444           75010                          MASK     BIT8
000256:    5445           10000                          CCS      A
000257:    5446           15465                          TCF      GETNEWNM
000258:
000259:    5447           30002                          CA       Q
000260:    5450           54063                          TS       TEMPNM
000261:    5451           30006                          CA       BB
000262:    5452           00006                          EXTEND                                         #  PICK UP USER'S SUPERBANK
000263:    5453           04007                          ROR      SUPERBNK
000264:    5454           54064                          TS       TEMPBB
000265:
000266:    5455           35460        TOCON2            CA       CON2ADR                               #  BACK TO SWITCHED BANK
000267:    5456           22073                          LXCH     TEMPBBCN
000268:    5457           52006                          DTCB
000269:
000270:    5460           02537        CON2ADR           GENADR   CON2
000271:
000272:    5461           50002        GETPRIO           NDX      Q                                     #  DON'T CARE IF DIRECT OR INDIRECT
000273:    5462           30000                          CA       0                                     #  LEAVE THAT DECISION TO RESTARTS
000274:    5463           24002                          INCR     Q                                     #  OBTAIN RETURN ADDRESS
000275:    5464           15442                          TCF      CON1       -1
000276:
000277:    5465           00006        GETNEWNM          EXTEND
000278:                                                                                                 #  Page 1411
000279:    5466           50002                          INDEX    Q
000280:    5467           30001                          DCA      0
000281:    5470           52064                          DXCH     TEMPNM
000282:    5471           35016                          CA       TWO
000283:    5472           26002                          ADS      Q                                     #  OBTAIN RETURN ADDRESS
000284:
000285:    5473           15455                          TCF      TOCON2
000286:
000287:    5474     5066               OCT14000          EQUALS   PRIO14
000288:    5474     0061               TEMPG             EQUALS   ITEMP1
000289:    5474     0062               TEMPP             EQUALS   ITEMP2
000290:    5474     0063               TEMPNM            EQUALS   ITEMP3
000291:    5474     0064               TEMPBB            EQUALS   ITEMP4
000292:    5474     0065               TEMPSW            EQUALS   ITEMP5
000293:    5474     0066               TEMPSW2           EQUALS   ITEMP6
000294:    5474     0070               TEMPPR            EQUALS   RUPTREG1
000295:    5474     0071               TEMPG2            EQUALS   RUPTREG2
000296:    5474     0072               TEMPP2            EQUALS   RUPTREG3
000297:
000298:    5474     0073               TEMPBBCN          EQUALS   RUPTREG4
000299:    5474  0000006               BB                EQUALS   BBANK
000300:
000301: 14,3761                                          BANK     14
000302: 10,2000                                          SETLOC   PHASETAB
000303: 10,2000                                          BANK
000304:
000305: 10,2451  E3,1436                                 EBANK=   PHSNAME1
000306: 10,2451                                          COUNT    10/PHASE
000307:
000308: 10,2451           22073        PHSCHNG2          LXCH     TEMPBBCN
000309: 10,2452           30065                          CA       TEMPSW
000310: 10,2453           75023                          MASK     OCT7
000311: 10,2454           60000                          DOUBLE
000312: 10,2455           54061                          TS       TEMPG
000313:
000314: 10,2456           30065                          CA       TEMPSW
000315: 10,2457           75072                          MASK     OCT17770
000316: 10,2460           00006                          EXTEND
000317: 10,2461           75004                          MP       BIT12
000318: 10,2462           54062                          TS       TEMPP
000319:
000320: 10,2463           30065                          CA       TEMPSW
000321: 10,2464           74105                          MASK     OCT60000
000322: 10,2465           56065                          XCH      TEMPSW
000323: 10,2466           75066                          MASK     OCT14000
000324: 10,2467           10000                          CCS      A
000325: 10,2470           15426                          TCF      ONEORTWO
000326:
000327:                                                                                                 #  Page 1412
000328: 10,2471           30062                          CA       TEMPP                                 #  START STORING THE PHASE INFORMATION
000329: 10,2472           50061                          NDX      TEMPG
000330: 10,2473           54751                          TS       PHASE1     -2
000331:
000332: 10,2474           10066        BELOW1            CCS      TEMPSW2                               #  IS IT A PHASCHNG OR A 2PHSCHNG
000333: 10,2475           12511                          TCF      BELOW2                                #  IT'S A PHASCHNG
000334:
000335: 10,2476           12477                          TCF      +1                                    #  IT'S A 2PHSCHNG
000336: 10,2477           40072                          CS       TEMPP2
000337: 10,2500           22072                          LXCH     TEMPP2
000338: 10,2501           50071                          NDX      TEMPG2
000339: 10,2502           52751                          DXCH     -PHASE1    -2
000340:
000341: 10,2503           10066                          CCS      TEMPSW2
000342: 10,2504           12505                          NOOP                                           #  CAN'T GET HERE
000343: 10,2505           12511                          TCF      BELOW2
000344:
000345: 10,2506           40025                          CS       TIME1
000346: 10,2507           50071                          NDX      TEMPG2
000347: 10,2510           55051                          TS       TBASE1     -2
000348:
000349: 10,2511           10065        BELOW2            CCS      TEMPSW                                #  SEE IF WE SHOULD SET TBASE OR LONGBASE
000350: 10,2512           12525                          TCF      BELOW3                                #  SET LONGBASE ONLY
000351: 10,2513           12530                          TCF      BELOW4                                #  SET NEITHER
000352:
000353: 10,2514           40025                          CS       TIME1                                 #  SET TBASE TO BEGIN WITH
000354: 10,2515           50061                          NDX      TEMPG
000355: 10,2516           55051                          TS       TBASE1     -2
000356:
000357: 10,2517           30065                          CA       TEMPSW                                #  SHALL WE NOW SET LONGBASE
000358: 10,2520           62523                          AD       BIT14COM
000359: 10,2521           10000                          CCS      A
000360: 10,2522           12523                          NOOP                                           #  ***** CAN'T GET HERE *****
000361: 10,2523           17777        BIT14COM          OCT      17777                                 #  ***** CAN'T GET HERE *****
000362: 10,2524           12530                          TCF      BELOW4                                #  NO WE NEED ONLY SET TBASE
000363:
000364: 10,2525           00006        BELOW3            EXTEND                                         #  SET LONGBASE
000365: 10,2526           30025                          DCA      TIME2
000366: 10,2527           53136                          DXCH     LONGBASE
000367:
000368: 10,2530           40062        BELOW4            CS       TEMPP                                 #  AND STORE THE FINAL PART OF THE PHASE
000369: 10,2531           50061                          NDX      TEMPG
000370: 10,2532           54750                          TS       -PHASE1    -2
000371:
000372: 10,2533           30002                          CA       Q
000373: 10,2534           22073                          LXCH     TEMPBBCN
000374: 10,2535           00003                          RELINT
000375: 10,2536           52006                          DTCB
000376: 10,2537           22073        CON2              LXCH     TEMPBBCN
000377:                                                                                                 #  Page 1413
000378: 10,2540           30062                          CA       TEMPP
000379: 10,2541           50061                          NDX      TEMPG
000380: 10,2542           54751                          TS       PHASE1     -2
000381:
000382: 10,2543           30070                          CA       TEMPPR
000383: 10,2544           50061                          NDX      TEMPG
000384: 10,2545           55052                          TS       PHSPRDT1   -2
000385:
000386: 10,2546           00006                          EXTEND
000387: 10,2547           30064                          DCA      TEMPNM
000388: 10,2550           50061                          NDX      TEMPG
000389: 10,2551           53435                          DXCH     PHSNAME1   -2
000390:
000391: 10,2552           12474                          TCF      BELOW1
000392:
000393:    5474                                          BLOCK    02
000394:    4000                                          SETLOC   FFTAG1
000395:    4000                                          BANK
000396:
000397:    5474                                          COUNT    02/PHASE
000398:
000399:    5474           75004        CHECKB            MASK     BIT12                                 #  SINCE THIS IS OF TYPE B, THIS BIT SHOULD
000400:    5475           10000                          CCS      A                                     #  BE HERE IF WE ARE TO GET A NEW PRIORITY
000401:    5476           15461                          TCF      GETPRIO                               #  IT IS, SO GET NEW PRIORITY
000402:
000403:    5477           15440                          TCF      OLDPRIO                               #  IT ISN'T, USE THE OLD PRIORITY.
000404:
000405:
000406:

End of include-file PHASE_TABLE_MAINTENANCE.agc.  Parent file is MAIN.agc


