
Source Code


000002:                                                                                                  ## Copyright:   Public domain.
000003:                                                                                                  ## Filename:    PHASE_TABLE_MAINTENANCE.agc
000004:                                                                                                  ## Purpose:     Part of the source code for Colossus 2A, AKA Comanche 055.
000005:                                                                                                  ##              It is part of the source code for the Command Module's (CM)
000006:                                                                                                  ##              Apollo Guidance Computer (AGC), for Apollo 11.
000007:                                                                                                  ## Assembler:   yaYUL
000008:                                                                                                  ## Contact:     Ron Burkey <info@sandroid.org>.
000009:                                                                                                  ## Website:     www.ibiblio.org/apollo.
000010:                                                                                                  ## Pages:       1404-1413
000011:                                                                                                  ## Mod history: 2009-05-10 SN   (Sergio Navarro).  Started adapting
000012:                                                                                                  ##                              from the Colossus249/ file of the same
000013:                                                                                                  ##                              name, using Comanche055 page images.
000014:                                                                                                  ##              2016-12-22 RSB  Proofed comment text using octopus/ProoferComments
000015:                                                                                                  ##                              and corrected the errors found.
000016:                                                                                                  ##              2017-01-18 RSB  Fixed comment-text errors noted while diff'ing
000017:                                                                                                  ##                              vs Colossus 249.
000018:                                                                                                  ##
000019:                                                                                                  ## This source code has been transcribed or otherwise adapted from digitized
000020:                                                                                                  ## images of a hardcopy from the MIT Museum.  The digitization was performed
000021:                                                                                                  ## by Paul Fjeld, and arranged for by Deborah Douglas of the Museum.  Many
000022:                                                                                                  ## thanks to both.  The images (with suitable reduction in storage size and
000023:                                                                                                  ## consequent reduction in image quality as well) are available online at
000024:                                                                                                  ## www.ibiblio.org/apollo.  If for some reason you find that the images are
000025:                                                                                                  ## illegible, contact me at info@sandroid.org about getting access to the
000026:                                                                                                  ## (much) higher-quality images which Paul actually created.
000027:                                                                                                  ##
000028:                                                                                                  ## Notations on the hardcopy document read, in part:
000029:                                                                                                  ##
000030:                                                                                                  ##    Assemble revision 055 of AGC program Comanche by NASA
000031:                                                                                                  ##    2021113-051.  10:28 APR. 1, 1969
000032:                                                                                                  ##
000033:                                                                                                  ##    This AGC program shall also be referred to as
000034:                                                                                                  ##            Colossus 2A
000035:


000037:                                                                                                  #  SUBROUTINE TO UPDATE THE PROGRAM NUMBER DISPLAY ON THE DSKY.
000038:
000039: 43,3726                                           COUNT    02/PHASE
000040:    5354                                           BLOCK    02
000041:    4000                                           SETLOC   FFTAG1
000042:    4000                                           BANK
000043:
000044:    5354           50002        NEWMODEX           INDEX    Q                                     #  UPDATE MODREG.  ENTRY FOR MODE IN FIXED.
000045:    5355           30000                           CAF      0
000046:    5356           24002                           INCR     Q
000047:
000048:    5357           55011        NEWMODEA           TS       MODREG                                #  ENTRY FOR MODE IN A.
000049:    5360           35363        MMDSPLAY           CAF      +3                                    #  DISPLAY MAJOR MODE.
000050:    5361           22006        PREBJUMP           LXCH     BBANK                                 #  PUTS BBANK IN L
000051:    5362           14704                           TCF      BANKJUMP                              #  PUTS Q INTO A
000052:    5363           20440                           CADR     SETUPDSP
000053:
000054:                                                                                                  #  RETURN TO CALLER +3 IF MODE = THAT AT CALLER +1.  OTHERWISE RETURN TO CALLER +2.
000055:
000056:    5364           50002        CHECKMM            INDEX    Q
000057:    5365           40000                           CS       0
000058:    5366           61011                           AD       MODREG
000059:    5367           00006                           EXTEND
000060:    5370           16710                           BZF      Q+2
000061:    5371           16706                           TCF      Q+1                                   #  NO MATCH
000062:
000063:    5372     6711               TCQ                =        Q+2        +1
000064:
000065: 14,3761                                           BANK     14
000066: 10,2000                                           SETLOC   PHASETAB
000067: 10,2000                                           BANK
000068:
000069: 10,2440                                           COUNT    10/PHASE
000070:
000071: 10,2440           00004        SETUPDSP           INHINT
000072: 10,2441           52071                           DXCH     RUPTREG1                              #  SAVE CALLER-S RETURN 2CADR
000073: 10,2442           34371                           CAF      PRIO30                                #        EITHER A TASK OR JOB CAN COME TO
000074: 10,2443           05134                           TC       NOVAC                                 #        NEWMODEX
000075: 10,2444     1011                                  EBANK=   MODREG
000076: 10,2444           03441 60102                     2CADR    DSPMMJOB
000077:
000078: 10,2446           52071                           DXCH     RUPTREG1
000079: 10,2447           00003                           RELINT
000080: 10,2450           52006                           DXCH     Z                                     #  RETURN
000081:
000082: 10,2451  40,3441               DSPMMJOB           EQUALS   DSPMMJB
000083:
000084:    5372                                           BLOCK    02


000086:    4000                                           SETLOC   FFTAG1
000087:    4000                                           BANK
000088:


000090:                                                                                                  #  PHASCHNG IS THE MAIN WAY OF MAKING PHASE CHANGES FOR RESTARTS.  THERE ARE THREE FORMS OF PHASCHNG, KNOWN AS TYPE
000091:                                                                                                  #  A, TYPE B, AND TYPE C.  THEY ARE ALL CALLED AS FOLLOWS, WHERE OCT XXXXX CONTAINS THE PHASE INFORMATION,
000092:                                                                                                  #                TC      PHASCHNG
000093:                                                                                                  #                OCT     XXXXX
000094:                                                                                                  #  TYPE A IS CONCERNED WITH FIXED PHASE CHANGES, THAT IS, PHASE INFORMATION THAT IS STORED PERMANENTLY.  THESE
000095:                                                                                                  #  OPTIONS ARE, WHERE G STANDS FOR A GROUP AND .X FOR THE PHASE,
000096:                                                                                                  #        G.0             INACTIVE, WILL NOT PERMIT A GROUP G RESTART
000097:                                                                                                  #        G.1             WILL CAUSE THE LAST DISPLAY TO BE REACTIVATED, USED MAINLY IN MANNED FLIGHTS
000098:                                                                                                  #        G.EVEN          A DOUBLE TABLE RESTART, CAN CAUSE ANY COMBINATION OF TWO JOBS, TASKS, AND/OR
000099:                                                                                                  #                        LONGCALL TO BE RESTARTED.
000100:                                                                                                  #        G.ODD NOT .1    A SINGLE TABLE RESTART, CAN CAUSE EITHER A JOB, TASK, OR LONGCALL RESTART
000101:
000102:                                                                                                  #  THIS INFORMATION IS PUT INTO THE OCTAL WORD AFTER TC PHASCHNG AS FOLLOWS
000103:                                                                                                  #                  TL0 00P PPP PPP GGG                                     ,
000104:                                                                                                  #  WHERE EACH LETTER OR NUMBER STANDS FOR A BIT.  THE G:S STAND FOR THE GROUP, OCTAL 1-7, THE P:S FOR THE PHASE,
000105:                                                                                                  #  OCTAL 0 - 127.  0:S MUST BE 0.  IF ONE WISHES TO HAVE THE TBASE OF GROUP G TO BE SET AT THIS TIME,
000106:                                                                                                  #  T IS SET TO 1, OTHERWISE IT IS SET TO 0.  SIMIARLY IF ONE WISHES TO SET LONGBASE, THEN L IS SET TO 1, OTHERWISE
000107:                                                                                                  #  IT IS SET TO 0.  SOME EXAMPLES,
000108:                                                                                                  #                TC      PHASCHNG        THIS WILL CAUSE GROUP 3 TO BE SET TO 0,
000109:                                                                                                  #                OCT     00003           MAKING GROUP 3 INACTIVE
000110:
000111:                                                                                                  #                TC      PHASCHNG        IF A RESTART OCCURS THIS WOULD CAUSE
000112:                                                                                                  #                OCT     00012           GROUP 2 TO RESTART THE LAST DISPLAY
000113:
000114:                                                                                                  #                TC      PHASCHNG        THIS SETS THE TBASE OF GROUP 4 AND IN
000115:                                                                                                  #                OCT     40064           CASE OF A RESTART WOULD START UP THE TWO
000116:                                                                                                  #                                        THINGS LOCATED IN THE DOUBLE 4.6 RESTART
000117:                                                                                                  #                                        LOCATION
000118:
000119:                                                                                                  #                TC      PHASCHNG        THIS SETS LONGBASE AND UPON A RESTART
000120:                                                                                                  #                OCT     20135           CAUSES 5.13 TO BE RESTARTED (SINCE
000121:                                                                                                  #                                        LONGBASE WAS SET THIS SINGLE ENTRY
000122:                                                                                                  #                                        SHOULD BE A LONGCALL)
000123:
000124:                                                                                                  #                TC      PHASCHNG        SINCE BOTH TBASE4 AND LONGBASE ARE SET,
000125:                                                                                                  #                OCT     60124           4.12 SHOULD CONTAIN BOTH A TASK AND A
000126:                                                                                                  #                                        LONGCALL TO BE RESTARTED
000127:
000128:                                                                                                  #  TYPE C PHASCHNG CONTAINS THE VARIABLE TYPE OF PHASCHNG INFORMATION.  INSTEAD OF THE INFORMATION BEING IN A
000129:                                                                                                  #  PERMANENT FORM, ONE STORES THE DESIRED RESTART INFORMATION IN A VARIABKE LOCATION.  THE BITS ARE AS FOLLOWS,
000130:                                                                                                  #        TL0 1AD XXX CJW GGG
000131:                                                                                                  #  WHERE EACH LETTER OR NUMBER STANDS FOR A BIT.  THE G:S STAND FOR THE GROUP, OCTAL 1 - 7.  IF THE RESTART IS TO
000132:                                                                                                  #  BE BY WAITLIST, W IS SET TO 1, IF IT IS A JOB, J IS SET TO 1, IF IT IS A LONGCALL, C IS SET TO 1.  ONLY ONE OF
000133:                                                                                                  #  THESE THREE BITS MAY BE SET.  X:S ARE IGNORED  1 MUST BE 1, AND 0 MUST BE 0.  AGAIN T STANDS FOR THE TBASE,


000135:                                                                                                  #  AND L FOR LONGBASE.  THE BITS A AND D ARE CONCERNED WITH THE VARIABLE INFORMATION.  IF D IS SET TO 1, A PRIORITY
000136:                                                                                                  #  OR DELTA TIME WILL BE READ FROM THE NEXT LOCATION AFTER THE OCTAL INFORMATION, IF THIS IS TO BE INDIRECT, THAT
000137:                                                                                                  #  IS, THE NAME OF A LOCATION COMT+INING THE INFORMATION (DELTA TIME ONLY), THEN THIS IS GIVEN AS THE -GENADR OF
000138:                                                                                                  #  THAT LOCATION WHICH CONTAINS THE DELTA TIME.  IF THE OLD PRIORITY OR DELTA TIME IS TO BE USED, THAT WHICH IS
000139:                                                                                                  #  ALREADY IN THE VARIABLE STORAGE, THEN D IS SET TO 0.  NEXT THE A BIT IS USED.  IF IT IS SET TO 0, THE ADDRESS
000140:                                                                                                  #  THAT WOULD BE RESTARTED DURING A RESTART IS THE NEXT LOCATION AFTER THE PHASE INFORMATION, THAT IS, EITHER
000141:                                                                                                  #  (TC PHASCHNG) +2 OR +3, DEPENDING ON WHETHER D HAD BEEN SET OR NOT.  IF A IS SET TO 1, THEN THE ADDRESS THAT
000142:                                                                                                  #  WOULD BE RESTARTED IS THE 2CADR THAT IS READ FROM THE NEXT TWO LOCATIONS.  EXAMPLES,
000143:                                                                                                  #        AD      TC      PHASCHNG        THIS WOULD CAUSE LOCATION AD +3 TO BE
000144:                                                                                                  #        AD+1    OCT     05023           RESTARTED BY GROUP THREE WITH A PRIORITY
000145:                                                                                                  #        AD+2    OCT     23000           OF 23.  NOTE UPON RETURNING IT WOULD
000146:                                                                                                  #        AD+3                            ALSO GO TO AD+3
000147:
000148:                                                                                                  #        AD      TC      PHASCHNG        GROUP  1 WOULD CAUSE CAUSE CALLCALL TO
000149:                                                                                                  #        AD+1    OCT     27441           BE STARTED AS A LONGCALL FROM THE TIME
000150:                                                                                                  #        AD+2    -GENADR DELTIME         STORED IN LONGBASE (LONGBASE WAS SET) BY
000151:                                                                                                  #        AD+3    2CADR   CALLCALL        A DELTATIME STORED IN DELTIME.  THE
000152:                                                                                                  #        AD+4                            BBCON OF THE 2CADR SHOULD CONTAIN THE E
000153:                                                                                                  #        AD+5                            BANK OF DELTIME.  PHASCHNG RETURNS TO
000154:                                                                                                  #                                        LOCATION AD+5
000155:
000156:                                                                                                  #  NOTE THAT IF A VARIABLE PRIORITY IS GIVEN FOR A JOB, THE JOB WILL BE RESTARTED AS A NOVAC IF THE PRIORITY IS
000157:                                                                                                  #  NEGATIVE, AS A FINDVAC IF THE PRIORITY IS POSITIVE.
000158:
000159:                                                                                                  #  TYPE B PHASCHNG IS A COMBINATION OF VARIABLE AND FIXED PHASE CHANGES.  IT WILL START UP A JOB AS INDICATED
000160:                                                                                                  #  BELOW AND ALSO START UP ONE FIXED RESTART, THAT IS EITHER AN G.1 OR A G.ODD OR THE FIRST ENTRY OF G.EVEN
000161:                                                                                                  #  DOUBLE ENTRY.  THE BIT INFORMATION IS AS FOLLOWS,
000162:                                                                                                  #        TL1 DAP PPP PPP GGG
000163:                                                                                                  #  WHERE EACH LETTER OR NUMBER STANDS FOR A BIT.  THE G:S STAND FOR THE GROUP, OCTAL 1 - 7. THE P:S FOR THE FIXED
000164:                                                                                                  #  PHASE INFORMATION, OCTAL 0 - 127.  1 MUST BE 1.  AND AGAIN T STANDS FOR THE TBASE AND L FOR LONGBASE.  D THIS
000165:                                                                                                  #  TIME STANDS ONLY FOR PRIORITY SINCE THIS WILL BE CONSIDERED A JOB, AND IT MUST BE GIVEN DIRECTLY IF GIVEN.
000166:                                                                                                  #  AGAIN A STANDS FOR THE ADDRESS OF THE LOCATION TO BE RESTARTED, 1 IF THE 2CADR IS GIVEN, OR 0 IF IT IS TO BE
000167:                                                                                                  #  THE NEXT LOCATION.  (THE RETURN LOCATION OF PHASCHNG) EXAMPLES,
000168:                                                                                                  #        AD      TC      PHASCHNG        TBASE IS SET AND A RESTART CAUSE GROUP 3
000169:                                                                                                  #        AD+1    OCT     56043           TO START THE JOB AJOBAJOB WITH PRIORITY
000170:                                                                                                  #        AD+2    OCT     31000           31 AND THE FIRST ENTRY OF 3.4SPOT (WE CAN
000171:                                                                                                  #        AD+3    2CADR   AJOBAJOB        ASSUME IT IS A TASK SINCE WE SET TBASE3)
000172:                                                                                                  #        AD+4                            UPON RETURN FROM PHASCHNG CONTROL WOULD
000173:                                                                                                  #        AD+5                            GO TO AD+5
000174:
000175:                                                                                                  #        AD      TC      PHASCHNG        UPON A RESTART THE LAST DISPLAY WOULD BE
000176:                                                                                                  #        AD+1    OCT     10015           RESTARTED AND A JOB WITH THE PREVIOUSLY
000177:                                                                                                  #        AD+2                            STORED PRIORITY WOULD BE BEGUN AT AD+2
000178:                                                                                                  #                                        BY MEANS OF GROUP 5


000180:                                                                                                  #  THE NOVAC-FINDVAC CHOICE FOR JOBS HOLDS HERE ALSO - NEGATIVE PRIORITY CAUSES A NOVAC CALL, POSITIVE A FINDVAC.
000181:
000182:                                                                                                  #  SUMMARY OF BITS
000183:                                                                                                  #        TYPE A          TL0 00P PPP PPP GGG
000184:                                                                                                  #        TYPE B          TL1 DAP PPP PPP GGG
000185:                                                                                                  #        TYPE C          TL0 1AD XXX CJW GGG
000186:


000188:                                                                                                  #  2PHSCHNG IS USED WHEN ONE WISHES TO START UP A GROUP OR CHANGE A GROUP WHILE UNDER THE CONTROL OF A DIFFERENT
000189:                                                                                                  #  GROUP.  FOR EXAMPLE, CHANGE THE PHASE OF GROUP 3 WHILE THE PORTION OF THE PROGRAM IS UNDER GROUP 5.  ALL 2PHSCHNG
000190:                                                                                                  #  CALLS ARE MADE IN THE FOLLOWING MANNER,
000191:                                                                                                  #                TC      2PHSCHNG
000192:                                                                                                  #                OCT     XXXXX
000193:                                                                                                  #                OCT     YYYYY
000194:                                                                                                  #  WHERE OCT XXXXX MUST BE OF TYPE A AND OCT YYYYY MAY BE OF EITHER TYPE A OR TYPE B OR TYPE C.  THERE IS ONE
000195:                                                                                                  #  DIFFERENCE --- NOTE- IF LONGBASE IS TO BE SET THIS INFORMATION IS GIVEN IN THE OCT YYYYY INFORMATION, IT WILL
000196:                                                                                                  #  BE DISREGARDED IF GIVEN WITH THE OCT XXXXX INFORMATION.  A COUPLE OF EXAMPLES MAY HELP,
000197:                                                                                                  #        AD      TC      2PHSCHNG        SET TBASE3 AND IF A RESTART OCCURS START
000198:                                                                                                  #        AD+1    OCT     40083           THE TWO ENTRIES IN 3.8 TABLE LOCATION
000199:                                                                                                  #        AD+2    OCT     05025           THIS IS OF TYPE C, SET THE JOB TO BE
000200:                                                                                                  #        AD+3    OCT     18000           TO BE LOCATION AD+4, WITH A PRIORITY 18,
000201:                                                                                                  #        AD+4                            FOR GROUP 5 PHASE INFORMATION
000202:
000203:    5372                                           COUNT    02/PHASE
000204:
000205:    5372           00004        2PHSCHNG           INHINT                                         #  THE ENTRY FOR A DOUBLE PHASE CHANGE
000206:    5373           50002                           NDX      Q
000207:    5374           30000                           CA       0
000208:    5375           24002                           INCR     Q
000209:    5376           54072                           TS       TEMPP2
000210:
000211:    5377           75023                           MASK     OCT7
000212:    5400           60000                           DOUBLE
000213:    5401           54071                           TS       TEMPG2
000214:
000215:    5402           30072                           CA       TEMPP2
000216:    5403           75072                           MASK     OCT17770                              #  NEED ONLY 1770, BUT WHY GET A NEW CONST.
000217:    5404           00006                           EXTEND
000218:    5405           75004                           MP       BIT12
000219:    5406           56072                           XCH      TEMPP2
000220:
000221:    5407           75001                           MASK     BIT15
000222:    5410           54066                           TS       TEMPSW2                               #  INDICATES WHETHER TO SET TBASE OR NOT
000223:
000224:    5411           15415                           TCF      PHASCHNG   +3
000225:
000226:    5412           00004        PHASCHNG           INHINT
000227:    5413           35017                           CA       ONE                                   #  INDICATESWE CAME FROM A PHASCHNG ENTRY
000228:    5414           54066                           TS       TEMPSW2
000229:
000230:    5415           50002                           NDX      Q
000231:    5416           30000                           CA       0
000232:    5417           24002                           INCR     Q
000233:    5420           54065                           TS       TEMPSW


000235:    5421           00006                           EXTEND
000236:    5422           35425                           DCA      ADRPCHN2                              #  OFF TO SWITCHED BANK
000237:    5423           52006                           DTCB
000238:
000239:    5424  E3,1400                                  EBANK=   LST1
000240:    5424           02451 20063  ADRPCHN2           2CADR    PHSCHNG2
000241:
000242:    5426           22073        ONEORTWO           LXCH     TEMPBBCN
000243:    5427           22006                           LXCH     BBANK
000244:    5430           22073                           LXCH     TEMPBBCN
000245:
000246:    5431           75066                           MASK     OCT14000                              #  SEE WHAT KIND OF PHASE CHANGE IT IS
000247:    5432           10000                           CCS      A
000248:    5433           15474                           TCF      CHECKB                                #  IT IS OF TYPE :B:
000249:
000250:    5434           30062                           CA       TEMPP
000251:    5435           75011                           MASK     BIT7
000252:    5436           10000                           CCS      A                                     #  SHALL WE USE THE OLD PRIORITY
000253:    5437           15461                           TCF      GETPRIO                               #  NO GET A NEW PRIORITY (OR DELTA T)
000254:
000255:    5440           50061        OLDPRIO            NDX      TEMPG                                 #  USE THE OLD PRIORITY (OR DELTA T)
000256:    5441           31052                           CA       PHSPRDT1   -2
000257:    5442           54070                           TS       TEMPPR
000258:
000259:    5443           30062        CON1               CA       TEMPP                                 #  SEE IF A 2CADR IS GIVEN
000260:    5444           75010                           MASK     BIT8
000261:    5445           10000                           CCS      A
000262:    5446           15465                           TCF      GETNEWNM
000263:
000264:    5447           30002                           CA       Q
000265:    5450           54063                           TS       TEMPNM
000266:    5451           30006                           CA       BB
000267:    5452           00006                           EXTEND                                         #  PICK UP USERS SUPERBANK
000268:    5453           04007                           ROR      SUPERBNK
000269:    5454           54064                           TS       TEMPBB
000270:
000271:    5455           35460        TOCON2             CA       CON2ADR                               #  BACK TO SWITCHED BANK
000272:    5456           22073                           LXCH     TEMPBBCN
000273:    5457           52006                           DTCB
000274:
000275:    5460           02537        CON2ADR            GENADR   CON2
000276:
000277:    5461           50002        GETPRIO            NDX      Q                                     #  DON:T CARE IF DIRECT OR INDIRECT
000278:    5462           30000                           CA       0                                     #  LEAVE THAT DECISION TO RESTARTS
000279:    5463           24002                           INCR     Q                                     #  OBTAIN RETURN ADDRESS
000280:    5464           15442                           TCF      CON1       -1
000281:
000282:    5465           00006        GETNEWNM           EXTEND


000284:    5466           50002                           INDEX    Q
000285:    5467           30001                           DCA      0
000286:    5470           52064                           DXCH     TEMPNM
000287:    5471           35016                           CA       TWO
000288:    5472           26002                           ADS      Q                                     #  OBTAIN RETURN ADDRESS
000289:
000290:    5473           15455                           TCF      TOCON2
000291:
000292:    5474     5066               OCT14000           EQUALS   PRIO14
000293:    5474     0061               TEMPG              EQUALS   ITEMP1
000294:    5474     0062               TEMPP              EQUALS   ITEMP2
000295:    5474     0063               TEMPNM             EQUALS   ITEMP3
000296:    5474     0064               TEMPBB             EQUALS   ITEMP4
000297:    5474     0065               TEMPSW             EQUALS   ITEMP5
000298:    5474     0066               TEMPSW2            EQUALS   ITEMP6
000299:    5474     0070               TEMPPR             EQUALS   RUPTREG1
000300:    5474     0071               TEMPG2             EQUALS   RUPTREG2
000301:    5474     0072               TEMPP2             EQUALS   RUPTREG3
000302:
000303:    5474     0073               TEMPBBCN           EQUALS   RUPTREG4
000304:    5474  0000006               BB                 EQUALS   BBANK
000305:
000306: 14,3761                                           BANK     14
000307: 10,2000                                           SETLOC   PHASETAB
000308: 10,2000                                           BANK
000309:
000310: 10,2451  E3,1436                                  EBANK=   PHSNAME1
000311: 10,2451                                           COUNT    10/PHASE
000312:
000313: 10,2451           22073        PHSCHNG2           LXCH     TEMPBBCN
000314: 10,2452           30065                           CA       TEMPSW
000315: 10,2453           75023                           MASK     OCT7
000316: 10,2454           60000                           DOUBLE
000317: 10,2455           54061                           TS       TEMPG
000318:
000319: 10,2456           30065                           CA       TEMPSW
000320: 10,2457           75072                           MASK     OCT17770
000321: 10,2460           00006                           EXTEND
000322: 10,2461           75004                           MP       BIT12
000323: 10,2462           54062                           TS       TEMPP
000324:
000325: 10,2463           30065                           CA       TEMPSW
000326: 10,2464           74105                           MASK     OCT60000
000327: 10,2465           56065                           XCH      TEMPSW
000328: 10,2466           75066                           MASK     OCT14000
000329: 10,2467           10000                           CCS      A
000330: 10,2470           15426                           TCF      ONEORTWO
000331:


000333: 10,2471           30062                           CA       TEMPP                                 #  START STORING THE PHASE INFORMATION
000334: 10,2472           50061                           NDX      TEMPG
000335: 10,2473           54751                           TS       PHASE1     -2
000336:
000337: 10,2474           10066        BELOW1             CCS      TEMPSW2                               #  IS IT A PHASCHNG OR A 2PHSCHNG
000338: 10,2475           12511                           TCF      BELOW2                                #  IT:S A PHASCHNG
000339:
000340: 10,2476           12477                           TCF      +1                                    #  IT:S A 2PHSCHNG
000341: 10,2477           40072                           CS       TEMPP2
000342: 10,2500           22072                           LXCH     TEMPP2
000343: 10,2501           50071                           NDX      TEMPG2
000344: 10,2502           52751                           DXCH     -PHASE1    -2
000345:
000346: 10,2503           10066                           CCS      TEMPSW2
000347: 10,2504           12505                           NOOP                                           #  CAN:T GET HERE
000348: 10,2505           12511                           TCF      BELOW2
000349:
000350: 10,2506           40025                           CS       TIME1
000351: 10,2507           50071                           NDX      TEMPG2
000352: 10,2510           55051                           TS       TBASE1     -2
000353:
000354: 10,2511           10065        BELOW2             CCS      TEMPSW                                #  SEE IF WE SHOULD SET TBASE OR LONGBASE
000355: 10,2512           12525                           TCF      BELOW3                                #  SET LONGBASE ONLY
000356: 10,2513           12530                           TCF      BELOW4                                #  SET NEITHER
000357:
000358: 10,2514           40025                           CS       TIME1                                 #  SET TBASE TO BEGIN WITH
000359: 10,2515           50061                           NDX      TEMPG
000360: 10,2516           55051                           TS       TBASE1     -2
000361:
000362: 10,2517           30065                           CA       TEMPSW                                #  SHALL WE NOW SET LONGBASE
000363: 10,2520           62523                           AD       BIT14COM
000364: 10,2521           10000                           CCS      A
000365: 10,2522           12523                           NOOP                                           #  ***** CANT GET HERE *****
000366: 10,2523           17777        BIT14COM           OCT      17777                                 #  ***** CANT GET HERE *****
000367: 10,2524           12530                           TCF      BELOW4                                #  NO WE NEED ONLY SET TBASE
000368:
000369: 10,2525           00006        BELOW3             EXTEND                                         #  SET LONGBASE
000370: 10,2526           30025                           DCA      TIME2
000371: 10,2527           53136                           DXCH     LONGBASE
000372:
000373: 10,2530           40062        BELOW4             CS       TEMPP                                 #  AND STORE THE FINAL PART OF THE PHASE
000374: 10,2531           50061                           NDX      TEMPG
000375: 10,2532           54750                           TS       -PHASE1    -2
000376:
000377: 10,2533           30002                           CA       Q
000378: 10,2534           22073                           LXCH     TEMPBBCN
000379: 10,2535           00003                           RELINT
000380: 10,2536           52006                           DTCB
000381: 10,2537           22073        CON2               LXCH     TEMPBBCN


000383: 10,2540           30062                           CA       TEMPP
000384: 10,2541           50061                           NDX      TEMPG
000385: 10,2542           54751                           TS       PHASE1     -2
000386:
000387: 10,2543           30070                           CA       TEMPPR
000388: 10,2544           50061                           NDX      TEMPG
000389: 10,2545           55052                           TS       PHSPRDT1   -2
000390:
000391: 10,2546           00006                           EXTEND
000392: 10,2547           30064                           DCA      TEMPNM
000393: 10,2550           50061                           NDX      TEMPG
000394: 10,2551           53435                           DXCH     PHSNAME1   -2
000395:
000396: 10,2552           12474                           TCF      BELOW1
000397:
000398:    5474                                           BLOCK    02
000399:    4000                                           SETLOC   FFTAG1
000400:    4000                                           BANK
000401:
000402:    5474                                           COUNT    02/PHASE
000403:
000404:    5474           75004        CHECKB             MASK     BIT12                                 #  SINCE THIS IS OF TYPE B, THIS BIT SHOULD
000405:    5475           10000                           CCS      A                                     #  BE HERE IF WE ARE TO GET A NEW PRIORITY
000406:    5476           15461                           TCF      GETPRIO                               #  IT IS, SO GET NEW PRIORITY
000407:
000408:    5477           15440                           TCF      OLDPRIO                               #  IT ISN:T, USE THE OLD PRIORITY
000409:
000410:
000411:

End of include-file PHASE_TABLE_MAINTENANCE.agc.  Parent file is MAIN.agc


