
Source Code
000001:                                                                                                 #  Copyright:     Public domain.
000002:                                                                                                 #  Filename:      PINBALL_GAME_BUTTONS_AND_LIGHTS.agc
000003:                                                                                                 #  Purpose:       Part of the source code for Colossus 2A, AKA Comanche 055.
000004:                                                                                                 #                 It is part of the source code for the Command Module's (CM)
000005:                                                                                                 #                 Apollo Guidance Computer (AGC), for Apollo 11.
000006:                                                                                                 #  Assembler:     yaYUL
000007:                                                                                                 #  Contact:       Ron Burkey <info@sandroid.org>.
000008:                                                                                                 #  Website:       www.ibiblio.org/apollo.
000009:                                                                                                 #  Pages: 307-389
000010:                                                                                                 #  Mod history:   2009-05-08 RSB  Started adapting from the Colossus249/ file
000011:                                                                                                 #                                 of the same name, using Comanche055 page
000012:                                                                                                 #                                 images.  Finished through page 329.
000013:                                                                                                 #                 2009-05-09 RSB  Finished first draft.
000014:                                                                                                 #                 2009-05-20 RSB  Corrected a CHKPOOH to CHKP00H.
000015:
000016:                                                                                                 #  This source code has been transcribed or otherwise adapted from digitized
000017:                                                                                                 #  images of a hardcopy from the MIT Museum.  The digitization was performed
000018:                                                                                                 #  by Paul Fjeld, and arranged for by Deborah Douglas of the Museum.  Many
000019:                                                                                                 #  thanks to both.  The images (with suitable reduction in storage size and
000020:                                                                                                 #  consequent reduction in image quality as well) are available online at
000021:                                                                                                 #  www.ibiblio.org/apollo.  If for some reason you find that the images are
000022:                                                                                                 #  illegible, contact me at info@sandroid.org about getting access to the
000023:                                                                                                 #  (much) higher-quality images which Paul actually created.
000024:
000025:                                                                                                 #  Notations on the hardcopy document read, in part:
000026:
000027:                                                                                                 #         Assemble revision 055 of AGC program Comanche by NASA
000028:                                                                                                 #         2021113-051.  10:28 APR. 1, 1969
000029:
000030:                                                                                                 #         This AGC program shall also be referred to as
000031:                                                                                                 #                         Colossus 2A
000032:
000033:                                                                                                 #  Page 307
000034:                                                                                                 #  PROGRAM NAME -- KEYBOARD AND DISPLAY PROGRAM
000035:                                                                                                 #  MOD NO -- 4            DATE -- 27 APRIL 1967           ASSEMBLY -- PINDISK REV 17
000036:                                                                                                 #  MOD BY -- FILENE
000037:                                                                                                 #  LOG SECTION -- PINBALL GAME BUTTONS AND LIGHTS
000038:
000039:                                                                                                 #  FUNCTIONAL DESCRIPTION
000040:
000041:                                                                                                 #  THE KEYBOARD AND DISPLAY SYSTEM PROGRAM OPERATES UNDER EXECUTIVE
000042:                                                                                                 #  CONTROL AND PROCESSES INFORMATION EXCHANGED BETWEEN THE AGC AND THE
000043:                                                                                                 #  COMPUTER OPERATOR.  THE INPUTS TO THE PROGRAM ARE FROM THE KEYBOARD,
000044:                                                                                                 #  FROM INTERNAL PROGRAM, AND FROM THE UPLINK.
000045:
000046:                                                                                                 #  THE LANGUAGE OF COMMUNICATION WITH THE PROGRAM IS A PAIR OF WORDS
000047:                                                                                                 #  KNOWN AS VERB AND NOUN.  EACH OF THESE IS REPRESENTED BY A 2 CHARACTER
000048:                                                                                                 #  DECIMAL NUMBER.  THE VERB CODE INDICATES WHAT ACTION IS TO BE TAKEN, THE
000049:                                                                                                 #  NOUN CODE INDICATES TO WHAT THIS ACTION IS APPLIED.  NOUNS USUALLY
000050:                                                                                                 #  REFER TO A GROUP OF ERASABLE REGISTERS.
000051:
000052:                                                                                                 #  VERBS ARE GROUPED INTO DISPLAYS, LOADS, MONITORS (DISPLAYS THAT ARE
000053:                                                                                                 #  UPDATED ONCE PER SECOND), SPECIAL FUNCTIONS, AND EXTENDED VERBS (THESE
000054:                                                                                                 #  ARE OUTSIDE OF THE DOMAIN OF PINBALL AND CAN BE FOUND UNDER LOG SECTION
000055:                                                                                                 #  `EXTENDED VERBS').
000056:
000057:                                                                                                 #  A LIST OF VERBS AND NOUNS IS GIVEN IN LOG SECTION `ASSEMBLY AND
000058:                                                                                                 #  OPERATION INFORMATION'.
000059:
000060:                                                                                                 #  CALLING SEQUENCES --
000061:
000062:                                                                                                 #  KEYBOARD:
000063:                                                                                                 #  EACH DEPRESSION OF A MAIN (NAVIGATION) KEYBOARD BUTTON ACTIVATES
000064:                                                                                                 #  INTERRUPT KEYRUPT1 (KEYRUPT2) AND PLACES THE 5 BIT KEY CODE INTO
000065:                                                                                                 #  CHANNEL 15 (CHANNEL 16).  KEYRUPT1 (KEYRUPT2) PLACES THE KEY
000066:                                                                                                 #  CODE INTO MPAC, ENTERS AN EXECUTIVE REQUEST FOR THE KEYBOARD AND DISPLAY
000067:                                                                                                 #  PROGRAM (AT `CHARIN'), AND EXECUTES A RESUME.
000068:
000069:                                                                                                 #  UPLINK:
000070:                                                                                                 #  EACH WORD RECEIVED BY THE UPLINK ACTIVATES INTERRUPT UPRUPT, WHICH
000071:                                                                                                 #  PLACES THE 5 BIT KEY CODE INTO MPAC, ENTERS AN EXECUTIVE REQUEST FOR THE
000072:                                                                                                 #  KEYBOARD AND DISPLAY PROGRAM (AT `CHARIN') AND EXECUTES A RESUME.
000073:
000074:                                                                                                 #  INTERNAL PROGRAMS:
000075:                                                                                                 #  INTERNAL PROGRAMS CALL PINBALL AT `NVSUB' WITH THE DESIRED VERB/NOUN
000076:                                                                                                 #  CODE IN A (LOW 7 BITS FOR NOUN, NEXT 7 BITS FOR VERB).  DETAILS
000077:                                                                                                 #  DESCRIBED ON REMARKS CARDS JUST BEFORE `NVSUB' AND `NVSBWAIT' (SEE
000078:                                                                                                 #  SYMBOL TABLE FOR PAGE NUMBERS).
000079:
000080:                                                                                                 #  NORMAL EXIT MODES --
000081:
000082:                                                                                                 #         IF PINBALL WAS CALLED BY EXTERNAL ACTION, THERE ARE FOUR EXITS:
000083:                                                                                                 #                 1)      ALL BUT (2), (3), AND (4) EXIT DIRECTLY TO ENDOFJOB.
000084:                                                                                                 #  Page 308
000085:                                                                                                 #                 2)      EXTENDED VERBS TO TO THE EXTENDED VERB FAN AS PART OF THE
000086:                                                                                                 #                         PINBALL EXECUTIVE JOB WITH PRIORITY 30000.  IT IS THE
000087:                                                                                                 #                         RESPONSIBILITY OF THE EXTEDED VERB CALLED TO EVENTUALLY
000088:                                                                                                 #                         CHANGE PRIORITY (IF NECESSARY) AD DO AN ENDOFJOB.
000089:                                                                                                 #                         ALSO PINBALL IS A NOVAC JOB.  EBANK SET FOR COMMON.
000090:                                                                                                 #                 3)      VERB 37.  CHANGE OF PROGRAM (MAJOR MODE) CALLS `V37' IN THE
000091:                                                                                                 #                         SERVICE ROUTINES AS PART OF THE PINBALL EXEC JOB WITH PRIO
000092:                                                                                                 #                         30000.  THE NEW PROGRAM CODE (MAJOR MODE) IS LEFT IN A.
000093:                                                                                                 #                 4)      KEY RELEASE BUTTON CALLS `PINBRNCH' IN THE DISPLAY INTERFACE
000094:                                                                                                 #                         ROUTINES AS PART OF THE PINBALL EXEC JOB WITH PRIO 30000 IF
000095:                                                                                                 #                         THE KEY RELEASE LIGHT IS OFF AND `CADRSTOR' IS NOT 40.
000096:
000097:                                                                                                 #  IF PINBALL WAS CALLED BY INTERNAL PROGRAMS, EXIT FROM PINBALL IS BACK
000098:                                                                                                 #  TO CALLING ROUTINE.  DETAILS DESCRIBED IN REMARKS CARDS JUST BEFORE
000099:                                                                                                 #  `NVSUB' AND `NVSBWAIT' (SEE SYMBOL TABLE FOR PAGE NUMBERS).
000100:
000101:                                                                                                 #  ALARM OR ABORT EXIT MODES --
000102:
000103:                                                                                                 #         EXTERNAL INITIATION:
000104:                                                                                                 #                 IF SOME IMPROPER SEQUENCE OF KEY CODES IS DETECTED, THE OPERATOR
000105:                                                                                                 #                 ERROR LIGHT IS TURNED ON AND EXIT IS TO `ENDOFJOB'.
000106:
000107:                                                                                                 #         INTERNAL PROGRAM INITIATION:
000108:                                                                                                 #                 IF AN ILLEGAL V/N COMBINATION IS ATTEMPTED, AN ABORT IS CAUSED
000109:                                                                                                 #                 (WITH OCTAL 01501).
000110:                                                                                                 #                 IF A SECOND ATTEMPT IS MADE TO GO TO SLEEP IN PINBALL, AN ABORT IS
000111:                                                                                                 #                 CAUSED (WITH OCTAL 01206).  THERE ARE TWO WAYS TO GO TO SLEEP IN PINBALL:
000112:                                                                                                 #                 1)      ENDIDLE OR DATAWAIT.
000113:                                                                                                 #                 2)      NVSBWAIT, PRENVBSY, OR NVSUBUSY.
000114:
000115:                                                                                                 #  CONDITIONS LEADING TO THE ABOVE ARE DESCRIBED IN FORTHCOMING MIT/IL
000116:                                                                                                 #  E-REPORT DESCRIBING KEYBOARD AND DISPLAY OPERATION FOR 278.
000117:
000118:                                                                                                 #  OUTPUT --
000119:
000120:                                                                                                 #  INFORMATION TO BE SENT TO THE DISPLAY PANEL IS LEFT IN THE `DSPTAB'
000121:                                                                                                 #  BUFFERS REGISTERS (UNDER EXEC CONTROL).  `DSPOUT' (A PART OF T4RUPT)
000122:                                                                                                 #  HANDLES THE PLACING OF THE `DSPTAB' INFORMATION INTO OUTPUT CHANNEL 10
000123:                                                                                                 #  IN INTERRUPT.
000124:
000125:                                                                                                 #  ERASABLE INITIALIZATION --
000126:
000127:                                                                                                 #  FRESH START AND RESTART INITIALIZE THE NECESSARY E REGISTERS FOR
000128:                                                                                                 #  PINBALL IN `STARTSUB'.  REGISTERS ARE:  DSPTAB BUFFER, CADRSTOR,
000129:                                                                                                 #  REQRET, CLPASS, DSPLOCK, MONSAVE, MONSAVE1, VERBREG, NOUNREG, DSPLIST,
000130:                                                                                                 #  DSPCOUNT, NOUT.
000131:
000132:                                                                                                 #  Page 309
000133:                                                                                                 #  A COMPLETE LIST OF ALL THE ERASABLES (BOTH RESERVED AND TEMPORARIES) FOR
000134:                                                                                                 #  PINBALL IS GIVEN BELOW.
000135:
000136:                                                                                                 #  THE FOLLOWING ARE OF GENERAL INTEREST --
000137:
000138:                                                                                                 #  REMARKS CARDS PRECEDE THE REFERENCED SYMBOL DEFINITION.  SEE SYMBOL
000139:                                                                                                 #  TABLE TO FIND APPROPRIATE PACE NUMBERS.
000140:
000141:                                                                                                 #         NVSUB           CALLING POINT FOR INTERNAL USE OF PINBALL.
000142:                                                                                                 #                         OF RELATED INTEREST     NVSBWAIT
000143:                                                                                                 #                                                 NVSUBUSY
000144:                                                                                                 #                                                 PRENVBSY
000145:
000146:                                                                                                 #         ENDIDLE         ROUTINE FOR INTERNAL PROGRAMS WISHING TO TO SLEEP WHILE
000147:                                                                                                 #                         AWAITING OPERATOR'S RESPONSE.
000148:
000149:                                                                                                 #         DSPMM           ROUTINE BY WHICH AN INTERNAL PROGRAM MAY DISPLAY A DECIMAL
000150:                                                                                                 #                         PROGRAM CODE (MAJOR MODE) IN THE PROGRAM (MAJOR MODE) LIGHT
000151:                                                                                                 #                         (DSPMM DOES NOT DISPLAY DIRECTLY BUT ENTERS EXEC REQUEST
000152:                                                                                                 #                         FOR DSPMMJB WITH PRIO 30000 AND RETURNS TO CALLER.)
000153:
000154:                                                                                                 #         BLANKSUB        ROUTINE BY WHICH AN INTERNAL PROGRAM MAY BLANK ANY
000155:                                                                                                 #                         COMBINATION OF THE DISPLAY REGISTERS R1, R2, R3.
000156:
000157:                                                                                                 #         JAMTERM         ROUTINE BY WHICH AN INTERNAL PROGRAM MAY PERFORM THE
000158:                                                                                                 #         JAMPROC         TERMINATE (V 34) OR PROCEED (V33) FUNCTION.
000159:
000160:                                                                                                 #         MONITOR         VERBS FOR PERIODIC (1 PER SEC) DISPLAY.
000161:
000162:                                                                                                 #         PLEASE PERFORM, PLEASE MARK SITUATIONS
000163:                                                                                                 #                 REMARKS DESCRIBING HOW AN INTERNAL ROUTINE SHOULD HANDLE
000164:                                                                                                 #                 THESE SITUATIONS CAN BE FOUND JUST BEFORE `NVSUB' (SEE
000165:                                                                                                 #                 SYMBOL TABLE FOR PAGE NUMBER).
000166:
000167:                                                                                                 #         THE NOUN TABLE FORMAT IS DESCRIBED ON A PAGE OF REMARKS CARDS JUST
000168:                                                                                                 #         BEFORE `DSPABC' (SEE SYMBOL TABLE FOR PAGE NUMBER).
000169:
000170:                                                                                                 #         THE NOUN TABLES THEMSELVES ARE FOUND IN LOG SECTION `PINBALL NOUN
000171:                                                                                                 #         TABLES'.
000172:
000173:                                                                                                 #  FOR FURTHER DETAILS ABOUT OPERATION OF THE KEYBOARD AND DISPLAY SYSTEM
000174:                                                                                                 #  PROGRAM, SEE THE MISSION PLAN AND/OR MIT/IL E-2129
000175:                                                                                                 #  DESCRIBING KEYBOARD AND DISPLAY OPERATION FOR 278.
000176:                                                                                                 #  (Note that this doc by Green and Filene is/was available online at
000177:                                                                                                 #  http://hrst.mit.edu/hrs/apollo/public/archive/1706.pdf --- RSB 6/2004.)
000178:
000179:                                                                                                 #  THE FOLLOWING QUOTATION IS PROVIDED THROUGH THE COURTESY OF THE AUTHORS.
000180:
000181:                                                                                                 #         "IT WILL BE PROVED TO THY FACE THAT THOU HAST MEN ABOUT THEE THAT
000182:                                                                                                 #  Page 310
000183:                                                                                                 #         USUALLY TALK OF A NOUN AND A VERB, AND SUCH ABOMINABLE WORDS AS NO
000184:                                                                                                 #         CHRISTIAN EAR CAN ENDURE TO HEAR."
000185:                                                                                                 #                                         HENRY 6, ACT 2, SCENE 4
000186:
000187:                                                                                                 #  THE FOLLOWING ASSIGNMENTS FOR PINBALL ARE MADE ELSEWHERE
000188:
000189:                                                                                                 #  RESERVED FOR PINBALL EXECUTIVE ACTION
000190:
000191:                                                                                                 # DSPCOUNT        ERASE                   # DISPLAY POSITION INDICATOR
000192:                                                                                                 # DECBRNCH        ERASE                   # +DEC, -DEC, OCT INDICATOR
000193:                                                                                                 # VERBREG ERASE                   # VERB CODE
000194:                                                                                                 # NOUNREG ERASE                   # NOUN CODE
000195:                                                                                                 # XREG            ERASE                   # R1 INPUT BUFFER
000196:                                                                                                 # YREG            ERASE                   # R2 INPUT BUFFER
000197:                                                                                                 # ZREG            ERASE                   # R3 INPUT BUFFER
000198:                                                                                                 # XREGLP          ERASE                   # LO PART OF XREG (FOR DEC CONV ONLY)
000199:                                                                                                 # YREGLP          ERASE                   # LO PART OF YREG (FOR DEC CONV ONLY)
000200:                                                                                                 # HITEMOUT        =       YREGLP          # TEMP FOR DISPLAY OF HRS,MIN,SEC
000201:                                                                                                 #                                         # MUST = LOTEMOUT-1.
000202:                                                                                                 # ZREGLP          ERASE                   # LO PART OF ZREG (FOR DEC CONV ONLY)
000203:                                                                                                 # LOTEMOUT        =       ZREGLP          # TEMP FOR DISPLAY OF HRS,MIN,SEC
000204:                                                                                                 #                                         # MUST = HITEMOUT+1
000205:                                                                                                 # MODREG          ERASE                   # MODE CODE
000206:                                                                                                 # DSPLOCK ERASE                   # KEYBOARD/SUBROUTINE CALL INTERLOCK
000207:                                                                                                 # REQRET          ERASE                   # RETURN REGISTER FOR LOAD
000208:                                                                                                 # LOADSTAT        ERASE                   # STATUS INDICATOR FOR LOADTST
000209:                                                                                                 # CLPASS          ERASE                   # PASS INDICATOR FOR CLEAR
000210:                                                                                                 # NOUT            ERASE                   # ACTIVITY COUNTER FOR DSPTAB
000211:                                                                                                 # NOUNCADR        ERASE                   # MACHINE CADR FOR NOUN
000212:                                                                                                 # MONSAVE ERASE                   # N/V CODE FOR MONITOR. (= MONSAVE1-1)
000213:                                                                                                 # MONSAVE1        ERASE                   # NOUNCADR FOR MONITOR (MATBS1) = MONSAVE+1
000214:                                                                                                 # MONSAVE2        ERASE                   # NVMONOPT OPTIONS
000215:                                                                                                 # DSPTAB          ERASE   +13D            # 0-10, DISPLAY PANEL BUFFER 11-13, C RELAYS.
000216:                                                                                                 # CADRSTOR        ERASE                   # ENDIDLE STORAGE
000217:                                                                                                 # NVQTEM          ERASE                   # NVSUB STORAGE FOR CALLING ADDRESS
000218:                                                                                                 #                                         # MUST = NVBNKTEM-1.
000219:                                                                                                 # NVBNKTEM        ERASE                   # NVSUB STORAGE FOR CALLING BANK
000220:                                                                                                 #                                         # MUST = NVQTEM+1
000221:                                                                                                 # VERBSAVE        ERASE                   # NEEDED FOR RECYCLE
000222:                                                                                                 # DSPLIST ERASE                   # WAITING REG FOR DSP SYST INTERNAL USE
000223:                                                                                                 # EXTVBACT        ERASE                   # EXTENDED VERB ACTIVITY INTERLOCK
000224:                                                                                                 # DSPTEM1 ERASE   +2              # BUFFER STORAGE AREA 1 (MOSTLY FOR TIME)
000225:                                                                                                 # DSPTEM2 ERASE   +2              # BUFFER STORAGE AREA 2 (MOSTLY FOR DEG)
000226:
000227:                                                                                                 #  END OF ERASABLES RESERVED FOR PINBALL EXECUTIVE ACTION.
000228:
000229:                                                                                                 #  TEMPORARIES FOR PINBALL EXECUTIVE ACTION
000230:                                                                                                 #  Page 311
000231:                                                                                                 # DSEXIT          =       INTB15+         # RETURN FOR DSPIN
000232:                                                                                                 # EXITEM          =       INTB15+         # RETURN FOR SCALE FACTOR ROUTINE SELECT
000233:                                                                                                 # BLANKRET        =       INTB15+         # RETURN FOR 2BLANK
000234:                                                                                                 # WRDRET          =       INTBIT15        # RETURN FOR 5BLANK.
000235:                                                                                                 # WDRET           =       INTBIT15        # RETURN FOR DSPWD
000236:                                                                                                 # DECRET          =       INTBIT15        # RETURN FOR PUTCOM(DEC LOAD)
000237:                                                                                                 # 21/22REG        =       INTBIT15        # TEMP FOR CHARIN
000238:                                                                                                 # UPDATRET        =       POLISH          # RETURN FOR UPDATNN, UPDATVB
000239:                                                                                                 # CHAR            =       POLISH          # TEMP FOR CHARIN
000240:                                                                                                 # ERCNT           =       POLISH          # COUNTER FOR ERROR LIGHT RESET
000241:                                                                                                 # DECOUNT =       POLISH          # COUNTER FOR SCALING AND DISPLAY (DEC)
000242:                                                                                                 # SGNON           =       VBUF            # TEMP FOR +,- ON
000243:                                                                                                 # NOUNTEM =       VBUF            # COUNTER FOR MIXNOUN FETCH
000244:                                                                                                 # DISTEM          =       VBUF            # COUNTER FOR OCTAL DISPLAY VERB
000245:                                                                                                 # DECTEM          =       VBUF            # COUNTER FOR FETCH (DEC DISPLAY VERBS)
000246:                                                                                                 # SGNOFF          =       VBUF +1         # TEMP FOR +,- ON
000247:                                                                                                 # NVTEMP          =       VBUF +1         # TEMP FOR NVSUB
000248:                                                                                                 # SFTEMP1 =       VBUF +1         # STORAGE FOR SF CONST HI PART (=SFTEMP2-1)
000249:                                                                                                 # HITEMIN =       VBUF +1         # TEMP FOR LOAD OF HRS,MIN,SEC
000250:                                                                                                 #                                         #       MUST = LOTEMIN-1.
000251:                                                                                                 # CODE            =       VBUF +2         # FOR DSPIN
000252:                                                                                                 # SFTEMP2 =       VBUF +2         # STORAGE FOR SF CONST LO PART (=SFTEMP1+1)
000253:                                                                                                 # LOTEMIN =       VBUF +2         # TEMP FOR LOAD OF HRS,MIN,SEC
000254:                                                                                                 #                                         #       MUST = HITEMIN+1
000255:                                                                                                 # MIXTEMP =       VBUF +3         # FOR MIXNOUN DATA
000256:                                                                                                 # SIGNRET =       VBUF +3         # RETURN FOR +,- ON
000257:                                                                                                 #  ALSO MIXTEMP+1 = VBUF+4, MIXTEMP+2 = VBUF+5
000258:                                                                                                 # ENTRET          =       DOTINC          # EXIT FROM ENTER
000259:                                                                                                 # WDONT           =       DOTRET          # CHAR COUNTER FOR DSPWD
000260:                                                                                                 # INREL           =       DOTRET          # INPUT BUFFER SELECTOR (X,Y,Z, REG )
000261:                                                                                                 # DSPMMTEM        =       MATINC          # DSPCOUNT SAVE FOR DSPMM
000262:                                                                                                 # MIXBR           =       MATINC          # INDICATOR FOR MIXED OR NORMAL NOUN
000263:                                                                                                 # TEM1            ERASE                   # EXEC TEMP
000264:                                                                                                 # DSREL           =       TEM1            # REL ADDRESS FOR DSPIN
000265:                                                                                                 # TEM2            ERASE                   # EXEC TEMP
000266:                                                                                                 # DSMAG           =       TEM2            # MAGNITUDE STORE FOR DSPIN
000267:                                                                                                 # IDADDTEM        =       TEM2            # MIXNOUN INDIRECT ADDRESS STORAGE
000268:                                                                                                 # TEM3            ERASE                   # EXEC TEMP
000269:                                                                                                 # COUNT           =       TEM3            # FOR DSPIN
000270:                                                                                                 #  Page 312
000271:                                                                                                 # TEM4            ERASE                   # EXEC TEMP
000272:                                                                                                 # LSTPTR          =       TEM4            # LIST POINTER FOR GRABUSY
000273:                                                                                                 # RELRET          =       TEM4            # RETURN FOR RELDSP
000274:                                                                                                 # FREERET =       TEM4            # RETURN FOR FREEDSP
000275:                                                                                                 # DSPWDRET        =       TEM4            # RETURN FOR DSPSIGN
000276:                                                                                                 # SEPSCRET        =       TEM4            # RETURN FOR SEPSEC
000277:                                                                                                 # SEPMNRET        =       TEM4            # RETURN FOR SEPMIN
000278:                                                                                                 # TEM5            ERASE                   # EXEC TEMP
000279:                                                                                                 # NOUNADD =       TEM5            # TEMP STORAGE FOR NOUN ADDRESS
000280:                                                                                                 # NNADTEM ERASE                   # TEMP FOR NOUN ADDRESS TABLE ENTRY
000281:                                                                                                 # NNTYPTEM        ERASE                   # TEMP FOR NOUN TYPE TABLE ENTRY
000282:                                                                                                 # IDAD1TEM        ERASE                   # TEMP FOR INDIR ADDRESS TABLE ENTRY (MIXNN)
000283:                                                                                                 #                                         # MUST = IDAD2TEM-1, = IDAD3TEM-2
000284:                                                                                                 # IDAD2TEM        ERASE                   # TEMP FOR INDIR ADDRESS TABLE ENTRY (MIXNN)
000285:                                                                                                 #                                         # MUST = IDAD1TEM+1, IDAD3TEM-1.
000286:                                                                                                 # IDAD3TEM        ERASE                   # TEMP FOR INDIR ADDRESS TABLE ENTRY (MIXNN)
000287:                                                                                                 #                                         # MUST = IDAD1TEM+2, IDAD2TEM+1.
000288:                                                                                                 # RUTMXTEM        ERASE                   # TEMP FOR SF ROUT TABLE ENTRY (MIXNN ONLY)
000289:
000290:                                                                                                 #  END OF TEMPORARIES FOR PINBALL EXECUTIVE ACTION.
000291:
000292:                                                                                                 #  ADDITIONAL TEMPORARIES FOR PINBALL EXECUTIVE ACTION
000293:
000294:                                                                                                 #         MPAC, THRU MPAC +6
000295:                                                                                                 #         BUF, +1, +2
000296:                                                                                                 #         BUF2, +1, +2
000297:                                                                                                 #         MPTEMP
000298:                                                                                                 #         ADDRWD
000299:
000300:                                                                                                 #  END OF ADDITIONAL TEMPS FOR PINBALL EXEC ACTION
000301:
000302:                                                                                                 #  RESERVED FOR PINBALL INTERRUPT ACTION
000303:
000304:                                                                                                 # DSPCNT          ERASE                   # COUNTER FOR DSPOUT
000305:                                                                                                 # UPLOCK          ERASE                   # BIT1 = UPLINK INTERLOCK (ACTIVATED BY
000306:                                                                                                 #                                         # RECEPTION OF A BAD MESSAGE IN UPLINK)
000307:
000308:                                                                                                 #  END OF ERASABLES RESERVED FOR PINBALL INTERRUPT ACTION
000309:
000310:                                                                                                 #  TEMPORARIES FOR PINBALL INTERRUPT ACTION
000311:
000312:                                                                                                 # KEYTEMP1        =       WAITEXIT        # TEMP FOR KEYRUPT, UPRUPT
000313:                                                                                                 # DSRUPTEM        =       WAITEXIT        # TEMP FOR DSPOUT
000314:                                                                                                 # KEYTEMP2        =       RUPTAGN         # TEMP FOR KEYRUPT, UPRUPT
000315:
000316:                                                                                                 #  END OF TEMPORARIES FOR PINBALL INTERRUPT ACTION
000317:
000318:                                                                                                 #  Page 313
000319:                                                                                                 #  THE INPUT CODES ASSUMED FOR THE KEYBOARD ARE,
000320:                                                                                                 #         0               10000
000321:                                                                                                 #         1               00001
000322:                                                                                                 #         9               01001
000323:                                                                                                 #         VERB            10001
000324:                                                                                                 #         ERROR RES       10010
000325:                                                                                                 #         KEY RLSE        11001
000326:                                                                                                 #         +               11010
000327:                                                                                                 #         -               11011
000328:                                                                                                 #         ENTER           11100
000329:                                                                                                 #         CLEAR           11110
000330:                                                                                                 #         NOUN            11111
000331:
000332:                                                                                                 #  OUTPUT FORMAT FOR DISPLAY PANEL.  SET OUT0 TO AAAABCCCCCDDDDD.
000333:                                                                                                 #  A'S    SELECTS A RELAYWORD.  THIS DETERMINES WHICH PAIR OF CHARACTERS ARE
000334:                                                                                                 #         ENERGIZED.
000335:                                                                                                 #  B      FOR SPECIAL RELAYS SUCH AS SIGNS ETC.
000336:                                                                                                 #  C'S    5 BIT RELAY CODE FOR LEFT CHAR OF PAIR SELECTED BY RELAYWORD.
000337:                                                                                                 #  D'S    5 BIT RELAY CODE FOR RIGHT CHAR OF PAIR SELECTED BY RELAYWORD.
000338:
000339:                                                                                                 #  THE PANEL APPEARS AS FOLLOWS,
000340:                                                                                                 #         MD1             MD2 (MAJOR MODE)
000341:                                                                                                 #         VD1             VD2 (VERB)                      ND1             ND2 (NOUN)
000342:                                                                                                 #         R1D1            R1D2            R1D3            R1D4            R1D5 (R1)
000343:                                                                                                 #         R2D1            R2D2            R2D3            R2D4            R2D5 (R2)
000344:                                                                                                 #         R3D1            R3D2            R3D3            R3D4            R3D5 (R3)
000345:
000346:                                                                                                 #  EACH OF THESE IS GIVEN A DSPCOUNT NUMBER FOR USE WITHIN COMPUTATION ONLY
000347:
000348:                                                                                                 #         MD1     25              R2D1    11              ALL ARE OCTAL
000349:                                                                                                 #         MD2     24              R2D2    10
000350:                                                                                                 #         VD1     23              R2D3    7
000351:                                                                                                 #         VD2     22              R2D4    6
000352:                                                                                                 #         ND1     21              R2D5    5
000353:                                                                                                 #         ND2     20              R3D1    4
000354:                                                                                                 #         R1D1    16              R3D2    3
000355:                                                                                                 #         R1D2    15              R3D3    2
000356:                                                                                                 #         R1D3    14              R3D4    1
000357:                                                                                                 #         R1D4    13              R3D5    0
000358:                                                                                                 #         R1D5    12
000359:
000360:                                                                                                 #  THERE IS AN 11-REGISTER TABLE (DSPTAB) FOR THE DISPLAY PANEL.
000361:
000362:                                                                                                 #         DSPTAB          RELAYWD         BIT11           BITS 10-6       BITS 5-1
000363:                                                                                                 #         RELADD
000364:                                                                                                 #         10              1011                            MD1 (25)        MD2  (24)
000365:                                                                                                 #         9               1010                            VD1 (23)        VD2  (22)
000366:                                                                                                 #         8               1001                            ND1 (21)        ND2  (20)
000367:                                                                                                 #         7               1000                                            R1D1 (16)
000368:                                                                                                 #  Page 314
000369:                                                                                                 #         6               0111            +R1             R1D2 (15)       R1D3 (14)
000370:                                                                                                 #         5               0110            -R1             R1D4 (13)       R1D5 (12)
000371:                                                                                                 #         4               0101            +R2             R2D1 (11)       R2D2 (10)
000372:                                                                                                 #         3               0100            -R2             R2D3 (7)        R2D4 (6)
000373:                                                                                                 #         2               0011                            R2D5 (5)        R3D1 (4)
000374:                                                                                                 #         1               0010            +R3             R3D2 (3)        R3D3 (2)
000375:                                                                                                 #         0               0001            -R3             R3D4 (1)        R3D5 (0)
000376:                                                                                                 #                         0000        NO RELAYWORD
000377:
000378:                                                                                                 #  THE 5-BIT OUTOUT RELAY CODES ARE:
000379:
000380:                                                                                                 #         BLANK   00000
000381:                                                                                                 #         0       10101
000382:                                                                                                 #         1       00011
000383:                                                                                                 #         2       11001
000384:                                                                                                 #         3       11011
000385:                                                                                                 #         4       01111
000386:                                                                                                 #         5       11110
000387:                                                                                                 #         6       11100
000388:                                                                                                 #         7       10011
000389:                                                                                                 #         8       11101
000390:                                                                                                 #         9       11111
000391:
000392:                                                                                                 #  OUTPUT BITS USED BY PINBALL:
000393:
000394:                                                                                                 #         KEY RELEASE LIGHT       --      BIT 5 OF CHANNEL 11
000395:                                                                                                 #         VERB/NOUN FLASH         --      BIT 6 OF CHANNEL 11
000396:                                                                                                 #         OPERATOR ERROR LIGHT    --      BIT 7 OF CHANNEL 11
000397:
000398:                                                                                                 #  Page 315
000399:                                                                                                 #  START OF EXECUTIVE SECTION OF PINBALL
000400:
000401: 40,2000                                          BANK     40
000402: 40,2000                                          SETLOC   PINBALL1
000403: 40,2000                                          BANK
000404:
000405: 40,2000                                          COUNT    40/PIN
000406:
000407: 40,2000           35017        CHARIN            CAF      ONE                                   #  BLOCK DISPLAY SYST
000408: 40,2001           57012                          XCH      DSPLOCK                               #  MAKE DSP SYST BUSY, BUT SAVE OLD
000409: 40,2002           54115                          TS       21/22REG                              #  C(DSPLOCK) FOR ERROR LIGHT RESET.
000410: 40,2003           11042                          CCS      CADRSTOR                              #  ALL KEYS EXCEPT ER TURN ON KR LITE IF
000411: 40,2004           02006                          TC       +2                                    #  CADRSTOR IS FULL.  THIS REMINDS OPERATOR
000412: 40,2005           02013                          TC       CHARIN2                               #  TO RE-ESTABLISH A FLASHING DISPLAY
000413: 40,2006           42057                          CS       ELRCODE1                              #  WHICH HE HAS OBSCURED WITH DISPLAYS OF
000414: 40,2007           60154                          AD       MPAC                                  #  HIS OWN (SEE REMARKS PRECEDING ROUTINE
000415: 40,2010           00006                          EXTEND                                         #  VBRELDSP).
000416: 40,2011           12013                          BZF      CHARIN2
000417: 40,2012           04410                          TC       RELDSPON
000418: 40,2013           56154        CHARIN2           XCH      MPAC
000419: 40,2014           54117                          TS       CHAR
000420: 40,2015           50000                          INDEX    A
000421: 40,2016           02017                          TC       +1                                    #    INPUT CODE       FUNCTION
000422: 40,2017           03341                          TC       CHARALRM                              #         0
000423: 40,2020           02076                          TC       NUM                                   #         1
000424: 40,2021           02076                          TC       NUM                                   #         2
000425: 40,2022           02076                          TC       NUM                                   #         3
000426: 40,2023           02076                          TC       NUM                                   #         4
000427: 40,2024           02076                          TC       NUM                                   #         5
000428: 40,2025           02076                          TC       NUM                                   #         6
000429: 40,2026           02076                          TC       NUM                                   #         7
000430: 40,2027           02062                          TC       89TEST                                #         10              8
000431: 40,2030           02062                          TC       89TEST                                #         11              9
000432: 40,2031           03341                          TC       CHARALRM                              #         12
000433: 40,2032           03341                          TC       CHARALRM                              #         13
000434: 40,2033           03341                          TC       CHARALRM                              #         14
000435: 40,2034           03341                          TC       CHARALRM                              #         15
000436: 40,2035           03341                          TC       CHARALRM                              #         16
000437: 40,2036           03341                          TC       CHARALRM                              #         17
000438: 40,2037           02074                          TC       NUM        -2                         #         20              0
000439: 40,2040           02255                          TC       VERB                                  #         21              VERB
000440: 40,2041           03510                          TC       ERROR                                 #         22              ERROR LIGHT RESET
000441: 40,2042           03341                          TC       CHARALRM                              #         23
000442: 40,2043           03341                          TC       CHARALRM                              #         24
000443: 40,2044           03341                          TC       CHARALRM                              #         25
000444: 40,2045           03341                          TC       CHARALRM                              #         26
000445: 40,2046           03341                          TC       CHARALRM                              #         27
000446: 40,2047           03341                          TC       CHARALRM                              #         30
000447: 40,2050           03366                          TC       VBRELDSP                              #         31              KEY RELEASE
000448:                                                                                                 #  Page 316
000449: 40,2051           02310                          TC       POSGN                                 #         32              +
000450: 40,2052           02275                          TC       NEGSGN                                #         33              -
000451: 40,2053           02060                          TC       ENTERJMP                              #         34              ENTER
000452: 40,2054           03341                          TC       CHARALRM                              #         35
000453: 40,2055           02370                          TC       CLEAR                                 #         36              CLEAR
000454: 40,2056           02271                          TC       NOUN                                  #         37              NOUN
000455:
000456: 40,2057           00022        ELRCODE1          OCT      22
000457: 40,2060           04701        ENTERJMP          TC       POSTJUMP
000458: 40,2061           62002                          CADR     ENTER
000459:
000460: 40,2062           10777        89TEST            CCS      DSPCOUNT
000461: 40,2063           02067                          TC       +4                                    #  +
000462: 40,2064           02067                          TC       +3                                    #  +0
000463: 40,2065           05217                          TC       ENDOFJOB                              #  - BLOCK DATA IN IF DSPCOUNT IS - OR -0
000464: 40,2066           05217                          TC       ENDOFJOB                              #  -0
000465: 40,2067           36214                          CAF      THREE
000466: 40,2070           71000                          MASK     DECBRNCH
000467: 40,2071           10000                          CCS      A
000468: 40,2072           02076                          TC       NUM                                   #  IF DECBRNCH IS +, 8 OR 9 OK
000469: 40,2073           03341                          TC       CHARALRM                              #  IF DECBRNCH IS +0, REJECT 8 OR 9
000470:
000471:                                                                                                 #  NUM ASSEMBLES OCTAL 3 BITS AT A TIME.  FOR DECIMAL IT CONVERTS INCOMING
000472:                                                                                                 #  WORD AS A FRACTION, KEEPING RESULTS TO DP.
000473:                                                                                                 #  OCTAL RESULTS ARE LEFT IN XREG, YREG, OR ZREG.  HI PART OF DEC IN XREG,
000474:                                                                                                 #  YREG, ZREG.  THE LOW PARTS IN XREGLP, YREGLP, OR ZREGLP.
000475:                                                                                                 #  DECBRNCH IS LEFT AT +0 FOR OCT, +1 FOR + DEC, +2 FOR - DEC.
000476:                                                                                                 #  IF DSPCOUNT WAS LEFT -, NO MORE DATA IS ACCEPTED.
000477:
000478: 40,2074           35021                          CAF      ZERO
000479: 40,2075           54117                          TS       CHAR
000480: 40,2076           10777        NUM               CCS      DSPCOUNT
000481: 40,2077           02103                          TC       +4                                    #  +
000482: 40,2100           02103                          TC       +3                                    #  +0
000483: 40,2101           02102                          TC       +1                                    #  -BLOCK DATA IN IF DSPCOUNT IS -
000484: 40,2102           05217                          TC       ENDOFJOB                              #  -0
000485: 40,2103           02225                          TC       GETINREL
000486: 40,2104           11015                          CCS      CLPASS                                #  IF CLPASS IS + OR +0, MAKE IT +0.
000487: 40,2105           35021                          CAF      ZERO
000488: 40,2106           55015                          TS       CLPASS
000489: 40,2107           02110                          TC       +1
000490: 40,2110           50117                          INDEX    CHAR
000491: 40,2111           34072                          CAF      RELTAB
000492: 40,2112           74362                          MASK     LOW5
000493: 40,2113           54124                          TS       CODE
000494: 40,2114           30777                          CA       DSPCOUNT
000495: 40,2115           54143                          TS       COUNT
000496: 40,2116           03227                          TC       DSPIN
000497:                                                                                                 #  Page 317
000498: 40,2117           36214                          CAF      THREE
000499: 40,2120           71000                          MASK     DECBRNCH
000500: 40,2121           10000                          CCS      A                                     #  +0, OCTAL.  +1, + DEC.  +2, - DEC.
000501: 40,2122           02133                          TC       DECTOBIN                              #  +
000502: 40,2123           50137                          INDEX    INREL                                 #  +0 OCTAL
000503: 40,2124           57001                          XCH      VERBREG
000504: 40,2125           54022                          TS       CYL
000505: 40,2126           40022                          CS       CYL
000506: 40,2127           40022                          CS       CYL
000507: 40,2130           56022                          XCH      CYL
000508: 40,2131           60117                          AD       CHAR
000509: 40,2132           02150                          TC       ENDNMTST
000510: 40,2133           50137        DECTOBIN          INDEX    INREL
000511: 40,2134           57001                          XCH      VERBREG
000512: 40,2135           54154                          TS       MPAC                                  #  SUM X 2EXP-14 IN MPAC
000513: 40,2136           35021                          CAF      ZERO
000514: 40,2137           54155                          TS       MPAC       +1
000515: 40,2140           34377                          CAF      TEN                                   #  10 X 2EXP-14
000516: 40,2141           07256                          TC       SHORTMP                               #  10SUM X 2EXP-28 IN MPAC, MPAC+1
000517: 40,2142           56155                          XCH      MPAC       +1
000518: 40,2143           60117                          AD       CHAR
000519: 40,2144           54155                          TS       MPAC       +1
000520: 40,2145           02150                          TC       ENDNMTST                              #  NO OF
000521: 40,2146           26154                          ADS      MPAC                                  #  OF MUST BE 5TH CHAR
000522: 40,2147           02166                          TC       DECEND
000523: 40,2150           50137        ENDNMTST          INDEX    INREL
000524: 40,2151           55001                          TS       VERBREG
000525: 40,2152           40777                          CS       DSPCOUNT
000526: 40,2153           50137                          INDEX    INREL
000527: 40,2154           62216                          AD       CRITCON
000528: 40,2155           00006                          EXTEND
000529: 40,2156           12160                          BZF      ENDNUM                                #  -0, DSPCOUNT = CRITCON
000530: 40,2157           02213                          TC       MORNUM                                #  -, DSPCOUNT G/ CRITCON
000531: 40,2160           36214        ENDNUM            CAF      THREE
000532: 40,2161           71000                          MASK     DECBRNCH
000533: 40,2162           10000                          CCS      A
000534: 40,2163           02166                          TC       DECEND
000535: 40,2164           40777        ENDALL            CS       DSPCOUNT                              #  BLOCK NUMIN BY PLACING DSPCOUNT
000536: 40,2165           02214                          TC       MORNUM     +1                         #  NEGATIVELY
000537: 40,2166           45017        DECEND            CS       ONE
000538: 40,2167           60137                          AD       INREL
000539: 40,2170           00006                          EXTEND
000540: 40,2171           62164                          BZMF     ENDALL                                #  IF INREL=0,1 (VBREG,NNREG) LEAVE WHOLE
000541: 40,2172           07052                          TC       DMP                                   #  IF INREL=2,3,4 (R1,R2,R3), CONVERT TO FRAC
000542:                                                                                                 #  MULT SUM X 2EXP-28 IN MPAC, MPAC+1 BY
000543: 40,2173           02223                          ADRES    DECON                                 #  2EXP14/10EXP5, GIVES (SUM/10EXP5)X2EXP-14
000544: 40,2174           36214                          CAF      THREE                                 #  IN MPAC, +1, +2.
000545: 40,2175           71000                          MASK     DECBRNCH
000546: 40,2176           50000                          INDEX    A
000547: 40,2177           02177                          TC       +0
000548:                                                                                                 #  Page 318
000549: 40,2200           02204                          TC       +DECSGN
000550: 40,2201           00006                          EXTEND                                         #  - CASE
000551: 40,2202           40156                          DCS      MPAC       +1
000552: 40,2203           52156                          DXCH     MPAC       +1
000553: 40,2204           56156        +DECSGN           XCH      MPAC       +2
000554: 40,2205           50137                          INDEX    INREL
000555: 40,2206           55004                          TS       XREGLP     -2
000556: 40,2207           56155                          XCH      MPAC       +1
000557: 40,2210           50137                          INDEX    INREL
000558: 40,2211           55001                          TS       VERBREG
000559: 40,2212           02164                          TC       ENDALL
000560: 40,2213           10777        MORNUM            CCS      DSPCOUNT                              #  DECREMENT DSPCOUNT
000561: 40,2214           54777                          TS       DSPCOUNT
000562: 40,2215           05217                          TC       ENDOFJOB
000563:
000564: 40,2216           00022        CRITCON           OCT      22                                    #  (DEC 18)
000565: 40,2217           00020                          OCT      20                                    #  (DEC 16)
000566: 40,2220           00012                          OCT      12                                    #  (DEC 10)
000567: 40,2221           00005                          OCT      5
000568: 40,2222           00000                          OCT      0
000569:
000570: 40,2223           05174 13261  DECON             2DEC     1          E-5        B14             #  2EXP14/10EXP5 = .16384 DEC
000571:
000572:                                                                                                 #  GETINREL GETS PROPER DATA REG REL ADDRESS FOR CURRENT C(DSPCOUNT) AND
000573:                                                                                                 #  PUTS IN INTO INREL.  +0 VERBREG, 1 NOUNREG, 2 XREG, 3 YREG, 4 ZREG.
000574:
000575: 40,2225           50777        GETINREL          INDEX    DSPCOUNT
000576: 40,2226           32231                          CAF      INRELTAB
000577: 40,2227           54137                          TS       INREL                                 #  (A TEMP. REG)
000578: 40,2230           00002                          TC       Q
000579:
000580: 40,2231           00004        INRELTAB          OCT      4                                     #  R3D5 (DSPCOUNT = 0)
000581: 40,2232           00004                          OCT      4                                     #  R3D4            =(1)
000582: 40,2233           00004                          OCT      4                                     #  R3D3            =(2)
000583: 40,2234           00004                          OCT      4                                     #  R3D2            =(3)
000584: 40,2235           00004                          OCT      4                                     #  R3D1            =(4)
000585: 40,2236           00003                          OCT      3                                     #  R2D5            =(5)
000586: 40,2237           00003                          OCT      3                                     #  R2D4            =(6)
000587: 40,2240           00003                          OCT      3                                     #  R2D3            =(7)
000588: 40,2241           00003                          OCT      3                                     #  R2D2            =(8D)
000589: 40,2242           00003                          OCT      3                                     #  R2D1            =(9D)
000590: 40,2243           00002                          OCT      2                                     #  R1D5            =(10D)
000591: 40,2244           00002                          OCT      2                                     #  R1D4            =(11D)
000592: 40,2245           00002                          OCT      2                                     #  R1D3            =(12D)
000593: 40,2246           00002                          OCT      2                                     #  R1D2            =(13D)
000594: 40,2247           00002                          OCT      2                                     #  R1D1            =(14D)
000595: 40,2250           05747                          TC       CCSHOLE                               #  NO DISCOUNT NUMBER = 15D
000596: 40,2251           00001                          OCT      1                                     #  ND2             =(16D)
000597:                                                                                                 #  Page 319
000598: 40,2252           00001                          OCT      1                                     #  ND1             =(17D)
000599: 40,2253           00000                          OCT      0                                     #  VD2             =(18D)
000600: 40,2254           00000                          OCT      0                                     #  VD1             =(19D)
000601:
000602: 40,2255           35021        VERB              CAF      ZERO
000603: 40,2256           55001                          TS       VERBREG
000604: 40,2257           34374                          CAF      VD1
000605: 40,2260           54777        NVCOM             TS       DSPCOUNT
000606: 40,2261           02502                          TC       2BLANK
000607: 40,2262           35017                          CAF      ONE
000608: 40,2263           55000                          TS       DECBRNCH                              #  SET FOR DEC V/N CODE
000609: 40,2264           35021                          CAF      ZERO
000610: 40,2265           55013                          TS       REQRET                                #  SET FOR ENTPAS0
000611: 40,2266           34233                          CAF      ENDINST                               #  IF DSPALARM OCCURS BEFORE FIRST ENTPAS0
000612: 40,2267           54136                          TS       ENTRET                                #  OR NVSUB, ENTRET MUST ALREADY BE SET
000613:                                                                                                 #  TO TC ENDOFJOB
000614: 40,2270           05217                          TC       ENDOFJOB
000615: 40,2271           35021        NOUN              CAF      ZERO
000616: 40,2272           55002                          TS       NOUNREG
000617: 40,2273           34375                          CAF      ND1                                   #  ND1, OCT 21 (DEC 17)
000618: 40,2274           02260                          TC       NVCOM
000619:
000620: 40,2275           02347        NEGSGN            TC       SIGNTEST
000621: 40,2276           02334                          TC       -ON
000622: 40,2277           35016                          CAF      TWO
000623: 40,2300           50137        BOTHSGN           INDEX    INREL                                 #  SET DEC COMP BIT TO 1 (IN DECBRNCH)
000624: 40,2301           65011                          AD       BIT7                                  #  BIT 5 FOR R1.  BIT 4 FOR R2.
000625: 40,2302           27000                          ADS      DECBRNCH                              #  BIT 3 FOR R3.
000626: 40,2303           11015        FIXCLPAS          CCS      CLPASS                                #  IF CLPASS IS + OR +0.  MAKE IT +0.
000627: 40,2304           35021                          CAF      ZERO
000628: 40,2305           55015                          TS       CLPASS
000629: 40,2306           02307                          TC       +1
000630: 40,2307           05217                          TC       ENDOFJOB
000631:
000632: 40,2310           02347        POSGN             TC       SIGNTEST
000633: 40,2311           02314                          TC       +ON
000634: 40,2312           35017                          CAF      ONE
000635: 40,2313           02300                          TC       BOTHSGN
000636:
000637: 40,2314           22002        +ON               LXCH     Q
000638: 40,2315           02225                          TC       GETINREL
000639: 40,2316           50137                          INDEX    INREL
000640: 40,2317           32342                          CAF      SGNTAB     -2
000641: 40,2320           54123                          TS       SGNOFF
000642: 40,2321           65017                          AD       ONE
000643: 40,2322           54122                          TS       SGNON
000644: 40,2323           35021        SGNCOM            CAF      ZERO
000645: 40,2324           54124                          TS       CODE
000646:                                                                                                 #  Page 320
000647: 40,2325           56123                          XCH      SGNOFF
000648: 40,2326           03311                          TC       11DSPIN
000649: 40,2327           35005                          CAF      BIT11
000650: 40,2330           54124                          TS       CODE
000651: 40,2331           56122                          XCH      SGNON
000652: 40,2332           03311                          TC       11DSPIN
000653: 40,2333           00001                          TC       L
000654: 40,2334           22002        -ON               LXCH     Q
000655: 40,2335           02225                          TC       GETINREL
000656: 40,2336           50137                          INDEX    INREL
000657: 40,2337           32342                          CAF      SGNTAB     -2
000658: 40,2340           54122                          TS       SGNON
000659: 40,2341           65017                          AD       ONE
000660: 40,2342           54123                          TS       SGNOFF
000661: 40,2343           02323                          TC       SGNCOM
000662:
000663: 40,2344           00005        SGNTAB            OCT      5                                     #  -R1
000664: 40,2345           00003                          OCT      3                                     #  -R2
000665: 40,2346           00000                          OCT      0                                     #  -R3
000666:
000667: 40,2347           22002        SIGNTEST          LXCH     Q                                     #  ALLOWS +,- ONLY WHEN DSPCOUNT=R1D1,
000668: 40,2350           36214                          CAF      THREE                                 #  R2D1, OR R3D1.  ALLOWS ONLY FIRST OF
000669: 40,2351           71000                          MASK     DECBRNCH                              #  CONSECUTIVE +/- CHARACTERS.
000670: 40,2352           10000                          CCS      A                                     #  IF LOW2 BITS OF DECBRNCH NOT 0.  SIGN
000671: 40,2353           05217                          TC       ENDOFJOB                              #  FOR THIS WORD ALREADY IN.  REJECT.
000672: 40,2354           44333                          CS       R1D1
000673: 40,2355           02363                          TC       SGNTST1
000674: 40,2356           44334                          CS       R2D1
000675: 40,2357           02363                          TC       SGNTST1
000676: 40,2360           44335                          CS       R3D1
000677: 40,2361           02363                          TC       SGNTST1
000678: 40,2362           05217                          TC       ENDOFJOB                              #  NO MATCH FOUND.  SIGN ILLEGAL
000679: 40,2363           60777        SGNTST1           AD       DSPCOUNT
000680: 40,2364           00006                          EXTEND
000681: 40,2365           12367                          BZF      +2                                    #  MATCH FOUND
000682: 40,2366           00002                          TC       Q
000683: 40,2367           00001                          TC       L                                     #  SIGN LEGAL
000684:
000685:                                                                                                 #  CLEAR BLANKS WHICH R1, R2, R3 IS CURRENT OR LAST TO BE DISPLAYED (PERTINENT
000686:                                                                                                 #  XREG, YREG, ZREG IS CLEARED).  SUCCESSIVE CLEARS TAKE CARE OF EACH RX
000687:                                                                                                 #  L/ RC UNTIL R1 IS DONE.  THEN NO FURTHER ACTION.
000688:
000689:                                                                                                 #  THE SINGLE COMPONENT LOAD VERBS ALLOW ONLY THE SINGLE RC THAT IS
000690:                                                                                                 #  APPROPRIATE TO BE CLEARED.
000691:
000692:                                                                                                 #  CLPASS +0 PASS0, CAN BE BACKED UP
000693:                                                                                                 #                 +NZ HIPASS, CAN BE BACKED UP
000694:                                                                                                 #                 -NZ PASS0, CANNOT BE BACKED UP
000695:                                                                                                 #  Page 321
000696: 40,2370           10777        CLEAR             CCS      DSPCOUNT
000697: 40,2371           65017                          AD       ONE
000698: 40,2372           02374                          TC       +2
000699: 40,2373           65017                          AD       ONE
000700: 40,2374           50000                          INDEX    A                                     #  DO NOT CHANGE DSPCOUNT BECAUSE MAY LATER
000701: 40,2375           32231                          CAF      INRELTAB                              #  FAIL LEGALTST.
000702: 40,2376           54137                          TS       INREL                                 #  MUST SET INREL, EVEN FOR HIPASS.
000703: 40,2377           11015                          CCS      CLPASS
000704: 40,2400           02406                          TC       CLPASHI                               #  +
000705: 40,2401           02403                          TC       +2                                    #  +0     IF CLPASS IS +0 OR -, IT IS PASS0
000706: 40,2402           02403                          TC       +1                                    #  -
000707: 40,2403           30137                          CA       INREL
000708: 40,2404           02430                          TC       LEGALTST
000709: 40,2405           02423                          TC       CLEAR1
000710: 40,2406           10137        CLPASHI           CCS      INREL
000711: 40,2407           54137                          TS       INREL
000712: 40,2410           02430                          TC       LEGALTST
000713: 40,2411           32500                          CAF      DOUBLK     +2                         #  +3 TO - NUMBER, BACKS DATA REQUESTS.
000714: 40,2412           27013                          ADS      REQRET
000715: 40,2413           30137                          CA       INREL
000716: 40,2414           54125                          TS       MIXTEMP                               #  TEMP STORAGE FOR INREL
000717: 40,2415           00006                          EXTEND
000718: 40,2416           27001                          DIM      VERBREG                               #  DECREMENT VERB AND RE-DISPLAY
000719: 40,2417           04662                          TC       BANKCALL
000720: 40,2420           62340                          CADR     UPDATVB
000721: 40,2421           30125                          CA       MIXTEMP
000722: 40,2422           54137                          TS       INREL                                 #  RESTORE INREL
000723: 40,2423           02426        CLEAR1            TC       CLR5
000724: 40,2424           25015                          INCR     CLPASS                                #  ONLY IF CLPASS IS + OR +0
000725: 40,2425           05217                          TC       ENDOFJOB                              #  SET FOR HIGHER PASS.
000726: 40,2426           22002        CLR5              LXCH     Q                                     #  USED 5BLANK BUT AVOIDS ITS TC GETINREL
000727: 40,2427           02441                          TC       5BLANK     +2
000728: 40,2430           67715        LEGALTST          AD       NEG2
000729: 40,2431           10000                          CCS      A
000730: 40,2432           00002                          TC       Q                                     #  LEGAL  INREL G/2
000731: 40,2433           05747                          TC       CCSHOLE
000732: 40,2434           05217                          TC       ENDOFJOB                              #  ILLEGAL        INREL=0,1
000733: 40,2435           00002                          TC       Q                                     #  LEGAL          INREL=2
000734:
000735:                                                                                                 #  5BLANK BLANKS 5 CHAR DISPLAY WORD IN R1, R2, OR R3.  IT ALSO ZEROES XREG,
000736:                                                                                                 #  YREG, OR ZREG.  PLACE ANY + DSPCOUNT NUMBER FOR PERTINENT RC INTO DSPCOUNT.
000737:                                                                                                 #  DSPCOUNT IS LEFT SET TO LEFT MOST DSP NUMB FOR RC JUST BLANKED.
000738:
000739: 40,2436           54777                          TS       DSPCOUNT                              #  NEEDED FOR BLANKSUB
000740: 40,2437           22002        5BLANK            LXCH     Q
000741: 40,2440           02225                          TC       GETINREL
000742: 40,2441           35021                          CAF      ZERO
000743: 40,2442           50137                          INDEX    INREL
000744: 40,2443           55001                          TS       VERBREG                               #  ZERO X, Y, Z, REG.
000745:                                                                                                 #  Page 322
000746: 40,2444           50137                          INDEX    INREL
000747: 40,2445           55004                          TS       XREGLP     -2
000748: 40,2446           54124                          TS       CODE
000749: 40,2447           50137                          INDEX    INREL                                 #  ZERO PERTINENT DEC COMP BIT.
000750: 40,2450           45011                          CS       BIT7                                  #  PROTECT OTHERS
000751: 40,2451           71000                          MASK     DECBRNCH
000752: 40,2452           72501                          MASK     BRNCHCON                              #  ZERO LOW 2 BITS.
000753: 40,2453           55000                          TS       DECBRNCH
000754: 40,2454           50137                          INDEX    INREL
000755: 40,2455           32471                          CAF      SINBLANK   -2                         #  BLANK ISOLATED CHAR SEPARATELY
000756: 40,2456           54143                          TS       COUNT
000757: 40,2457           03227                          TC       DSPIN
000758: 40,2460           50137        5BLANK1           INDEX    INREL
000759: 40,2461           32474                          CAF      DOUBLK     -2
000760: 40,2462           54777                          TS       DSPCOUNT
000761: 40,2463           02502                          TC       2BLANK
000762: 40,2464           45016                          CS       TWO
000763: 40,2465           26777                          ADS      DSPCOUNT
000764: 40,2466           02502                          TC       2BLANK
000765: 40,2467           50137                          INDEX    INREL
000766: 40,2470           34331                          CAF      R1D1       -2
000767: 40,2471           54777                          TS       DSPCOUNT                              #  SET DSPCOUNT TO LEFT MOST DSP NUMBER
000768: 40,2472           00001                          TC       L                                     #  OF REG. JUST BLANKED
000769:
000770: 40,2473           00016        SINBLANK          OCT      16                                    #  DEC 14
000771: 40,2474           00005                          OCT      5
000772: 40,2475           00004                          OCT      4
000773: 40,2476           00015        DOUBLK            OCT      15                                    #  DEC 13
000774: 40,2477           00011                          OCT      11                                    #  DEC 9
000775: 40,2500           00003                          OCT      3
000776:
000777: 40,2501           77774        BRNCHCON          OCT      77774
000778:
000779:                                                                                                 #  2BLANK BLANKS TWO CHAR. PLACE DSP NUMBER OF LEFT CHAR OF THE PAIR INTO
000780:                                                                                                 #  DSPCOUNT.  THIS NUMBER IS LEFT IN DSPCOUNT
000781:
000782: 40,2502           30777        2BLANK            CA       DSPCOUNT
000783: 40,2503           54021                          TS       SR
000784: 40,2504           42515                          CS       BLANKCON
000785: 40,2505           00004                          INHINT
000786: 40,2506           50021                          INDEX    SR
000787: 40,2507           57023                          XCH      DSPTAB
000788: 40,2510           00006                          EXTEND
000789: 40,2511           62513                          BZMF     +2                                    #  IF OLD CONTENTS -, NOUT OK
000790: 40,2512           25016                          INCR     NOUT                                  #  IF OLD CONTENTS +, +1 TO NOUT
000791: 40,2513           00003                          RELINT                                         #  IF -, NOUT OK
000792: 40,2514           00002                          TC       Q
000793: 40,2515           04000        BLANKCON          OCT      4000
000794:
000795:                                                                                                 #  Page 323
000796:                                                                                                 #  ENTER PASS 0 IS THE EXECUTE FUNCTION.  HIGHER ORDER ENTERS ARE TO LOAD
000797:                                                                                                 #  DATA.  THE SIGN OF REQRET DETERMINES THE PASS, + FOR PASS 0, - FOR HIGHER
000798:                                                                                                 #  PASSES
000799:
000800:                                                                                                 #  MACHINE CADR TO BE SPECIFIED (MCTBS) NOUNS DESIRE AN ECADR TO BE LOADED
000801:                                                                                                 #  WHEN USED WITH LOAD VERBS, MONITOR VERBS, OR DISPLAY VERBS (EXCEPT
000802:                                                                                                 #  VERB = FIXED MEMORY DISPLAY, WHICH REQUIRES AN FCADR).
000803:
000804: 41,2000                                          BANK     41
000805: 41,2000                                          SETLOC   PINBALL2
000806: 41,2000                                          BANK
000807:
000808: 41,2000                                          COUNT    41/PIN
000809:
000810: 41,2000           03544        NVSUBB            TC       NVSUB1                                #  STANDARD LEAD INS.  DON'T MOVE.
000811: 41,2001           02775        LOADLV1           TC       LOADLV
000812:
000813:                                                                                                 #  END OF STANDARD LEAD INS.
000814:
000815: 41,2002           35021        ENTER             CAF      ZERO
000816: 41,2003           55015                          TS       CLPASS
000817: 41,2004           34233                          CAF      ENDINST
000818: 41,2005           54136                          TS       ENTRET
000819: 41,2006           11013                          CCS      REQRET
000820: 41,2007           02035                          TC       ENTPAS0                               #  IF +, PASS 0
000821: 41,2010           02035                          TC       ENTPAS0                               #  IF +, PASS 0
000822: 41,2011           02012                          TC       +1                                    #  IF -, NOT PASS 0
000823: 41,2012           32033        ENTPASHI          CAF      MMADREF
000824: 41,2013           61013                          AD       REQRET                                #  IF L/ 2 CHAR IN FOR MM CODE, ALARM
000825: 41,2014           00006                          EXTEND                                         #  AND RECYCLE (DECIDE AT MCHANG+1).
000826: 41,2015           12027                          BZF      ACCEPTWD
000827: 41,2016           36214                          CAF      THREE                                 #  IF DEC, ALARM IF L/ 5 CHAR IN FOR DATA,
000828: 41,2017           71000                          MASK     DECBRNCH                              #  BUT LEAVE REQRET - AND FLASH ON, SO
000829: 41,2020           10000                          CCS      A                                     #  OPERATOR CAN SUPPLY MISSING NUMERICAL
000830: 41,2021           02023                          TC       +2                                    #  CHARACTERS AND CONTINUE.
000831: 41,2022           02027                          TC       ACCEPTWD                              #  OCTAL.  ANY NUMBER OF CHAR OK.
000832: 41,2023           10777                          CCS      DSPCOUNT
000833: 41,2024           02351                          TC       GODSPALM                              #  LESS THAN 5 CHAR DEC(DSPCOUNT IS +)
000834: 41,2025           02351                          TC       GODSPALM                              #  LESS THAN 5 CHAR DEC(DSPCOUNT IS +)
000835: 41,2026           02027                          TC       +1                                    #  5 CHAR IN (DSPCOUNT IS -)
000836: 41,2027           41013        ACCEPTWD          CS       REQRET                                #  5 CHAR IN (DSPCOUNT IS -)
000837: 41,2030           55013                          TS       REQRET                                #  SET REQRET +.
000838: 41,2031           04447                          TC       FLASHOFF
000839: 41,2032           01013                          TC       REQRET
000840:
000841: 41,2033     0136               ENTEXIT           =        ENTRET
000842:
000843: 41,2033           03431        MMADREF           ADRES    MMCHANG    +1                         #  ASSUMES TC REQMM AT MMCHANG.
000844:
000845:                                                                                                 #  Page 324
000846: 41,2034           00034        LOWVERB           DEC      28         B-14                       #  LOWER VERB THAT AVOIDS NOUN TEST.
000847:
000848: 41,2035           35021        ENTPAS0           CAF      ZERO                                  #  NOUN VERB SUB ENTERS HERE
000849: 41,2036           55000                          TS       DECBRNCH
000850: 41,2037           44374                          CS       VD1                                   #  BLOCK FURTHER NUM CHAR, SO THAT STRAY
000851: 41,2040           54777                          TS       DSPCOUNT                              #  CHAR DO NOT GET INTO VERB OR NOUN LTS.
000852: 41,2041           41001        TESTVB            CS       VERBREG                               #  IF VERB IS G/E LOWVB, SKIP NOUN TEST.
000853: 41,2042           55041                          TS       VERBSAVE                              #  SAVE VERB FOR POSSIBLE RECYCLE.
000854: 41,2043           62034                          AD       LOWVERB                               #  LOWVERB - VB
000855: 41,2044           00006                          EXTEND
000856: 41,2045           62133                          BZMF     VERBFAN                               #  VERB G/ E LOWVERB
000857: 41,2046           00006        TESTNN            EXTEND                                         #  VERB L/ LOWVERB
000858: 41,2047           32114                          DCA      LODNNLOC                              #  SWITCH BANKS TO NOUN TABLE READING
000859: 41,2050           52006                          DXCH     Z                                     #  ROUTINE.
000860: 41,2051           50140                          INDEX    MIXBR
000861: 41,2052           02052                          TC       +0
000862: 41,2053           02055                          TC       +2                                    #  NORMAL
000863: 41,2054           02221                          TC       MIXNOUN                               #  MIXED
000864: 41,2055           10146                          CCS      NNADTEM                               #  NORMAL
000865: 41,2056           02131                          TC       VERBFAN    -2                         #         NORMAL  IF +
000866: 41,2057           02351                          TC       GODSPALM                              #  NOT IN USE     IF +0
000867: 41,2060           02064                          TC       REQADD                                #  SPECIFY MACHINE CADR IF -
000868: 41,2061           25017                          INCR     NOUNCADR                              #  AUGMENT MACHINE CADR IF -0
000869: 41,2062           04325                          TC       SETNADD                               #  ECADR FROM NOUNCADR, SETS ED, NOUNADD.
000870: 41,2063           02120                          TC       INTMCTBS   +2
000871: 41,2064           35001        REQADD            CAF      BIT15                                 #  SET CLPASS FOR PASS 0 ONLY
000872: 41,2065           55015                          TS       CLPASS
000873: 41,2066           44233                          CS       ENDINST                               #  TEST IF REACHED HERE FROM INTERNAL OR
000874: 41,2067           60136                          AD       ENTEXIT                               #         FROM EXTERNAL
000875: 41,2070           00006                          EXTEND
000876: 41,2071           12073                          BZF      +2                                    #  EXTERNAL MACH CADR TO BE SPECIFIED
000877: 41,2072           02116                          TC       INTMCTBS
000878: 41,2073           02307                          TC       REQDATZ                               #  EXTERNAL MACH CADR TO BE SPECIFIED
000879: 41,2074           11000                          CCS      DECBRNCH                              #  ALARM AND RECYCLE IF DECIMAL USED
000880: 41,2075           04161                          TC       ALMCYCLE                              #  FOR MCTBS.
000881: 41,2076           44374                          CS       VD1                                   #  OCTAL USED OK
000882: 41,2077           54777                          TS       DSPCOUNT                              #  BLOCK NUM CHAR IN
000883: 41,2100           11042                          CCS      CADRSTOR
000884: 41,2101           02104                          TC       +3                                    #  EXTERNAL MCTBS DISPLAY WILL LEAVE FLASH
000885: 41,2102           02105                          TC       USEADD                                #  ON IF ENDIDLE NOT = +0.
000886: 41,2103           02104                          TC       +1
000887: 41,2104           04443                          TC       FLASHON
000888: 41,2105           57005        USEADD            XCH      ZREG
000889: 41,2106           04317                          TC       SETNCADR                              #  ECADR INTO NOUNCADR.  SET EB, NOUNADD.
000890: 41,2107           00006                          EXTEND
000891: 41,2110           32114                          DCA      LODNNLOC                              #  SWITCH BANKS TO NOUN TAB E READING
000892: 41,2111           52006                          DXCH     Z                                     #  ROUTINE.
000893: 41,2112           02133                          TC       VERBFAN
000894:
000895: 41,2113     0777                                 EBANK=   DSPCOUNT
000896:                                                                                                 #  Page 325
000897: 41,2113           02062 64101  LODNNLOC          2CADR    LODNNTAB
000898:
000899: 41,2115           77772        NEG5              OCT      77772
000900:
000901: 41,2116           30156        INTMCTBS          CA       MPAC       +2                         #  INTERNAL MACH CADR TO BE SPECIFIED.
000902: 41,2117           04317                          TC       SETNCADR                              #  ECADR INTO NOUNCADR.  SET EB, NOUNADD.
000903: 41,2120           45022                          CS       FIVE                                  #  NVSUB CALL LEFT CADR IN MPAC+2 FOR MACH
000904: 41,2121           61001                          AD       VERBREG                               #  CADR TO BE SPECIFIED.
000905: 41,2122           00006                          EXTEND
000906: 41,2123           12133                          BZF      VERBFAN                               #  DON'T DISPLAY CADR IF VB = 05.
000907: 41,2124           34335                          CAF      R3D1                                  #  VB NOT = 05.  DISPLAY CADR.
000908: 41,2125           54777                          TS       DSPCOUNT
000909: 41,2126           31017                          CA       NOUNCADR
000910: 41,2127           03363                          TC       DSPOCTWO
000911: 41,2130           02133                          TC       VERBFAN
000912:
000913: 41,2131           65017                          AD       ONE
000914: 41,2132           04317                          TC       SETNCADR                              #  ECADR INTO NOUNCADR.  SETS EB, NOUNADD.
000915: 41,2133           42145        VERBFAN           CS       LST2CON
000916: 41,2134           61001                          AD       VERBREG                               #  VERB -- LST2CON
000917: 41,2135           10000                          CCS      A
000918: 41,2136           65017                          AD       ONE                                   #  VERB G/ LST2CON
000919: 41,2137           02141                          TC       +2
000920: 41,2140           02146                          TC       VBFANDIR                              #  VERB L/ LST2CON
000921: 41,2141           54154                          TS       MPAC
000922: 41,2142           04473                          TC       RELDSP                                #  RELEASE DISPLAY SYST
000923: 41,2143           04701                          TC       POSTJUMP                              #  GO TO GOEXTVB WITH VB=40 IN MPAC.
000924: 41,2144           66000                          CADR     GOEXTVB
000925: 41,2145           00050        LST2CON           DEC      40         B-14                       #  FIRST LIST2 VERB (EXTENDED VERB)
000926:
000927: 41,2146           51001        VBFANDIR          INDEX    VERBREG
000928: 41,2147           32151                          CAF      VERBTAB
000929: 41,2150           04704                          TC       BANKJUMP
000930:
000931: 41,2151           62351        VERBTAB           CADR     GODSPALM                              #  VB00 ILLEGAL
000932: 41,2152           62365                          CADR     DSPA                                  #  VB01 DISPLAY OCT COMP 1 (R1)
000933: 41,2153           62373                          CADR     DSPB                                  #  VB02 DISPLAY OCT COMP 2 (R1)
000934: 41,2154           62400                          CADR     DSPC                                  #  VB03 DISPLAY OCT COMP 3 (R1)
000935: 41,2155           62360                          CADR     DSPAB                                 #  VB04 DISPLAY OCT COMP 1,2 (R1,R2)
000936: 41,2156           62353                          CADR     DSPABC                                #  VB05 DISPLAY OCT COMP 1,2,3 (R1,R2,R3)
000937: 41,2157           62523                          CADR     DECDSP                                #  VB06 DECIMAL DISPLAY
000938: 41,2160           60677                          CADR     DSPDPDEC                              #  VB07 DP DECIMAL DISPLAY (R1,R2)
000939: 41,2161           62351                          CADR     GODSPALM                              #  VB08 SPARE
000940: 41,2162           62351                          CADR     GODSPALM                              #  VB09 SPARE
000941: 41,2163           61325                          CADR     DSPALARM                              #  VB10 SPARE
000942: 41,2164           63230                          CADR     MONITOR                               #  VB11 MONITOR OCT COMP 1 (R1)
000943: 41,2165           63230                          CADR     MONITOR                               #  VB12 MONITOR OCT COMP 2 (R1)
000944: 41,2166           63230                          CADR     MONITOR                               #  VB13 MONITOR OCT COMP 3 (R1)
000945: 41,2167           63230                          CADR     MONITOR                               #  VB14 MONITOR OCT COMP 1,2 (R1,R2)
000946:                                                                                                 #  Page 326
000947: 41,2170           63230                          CADR     MONITOR                               #  VB15 MONITOR OCT COMP 1,2,3 (R1,R2,R3)
000948: 41,2171           63230                          CADR     MONITOR                               #  VB16 MONITOR DECIMAL
000949: 41,2172           63230                          CADR     MONITOR                               #  VB17 MONITOR DP DEC (R1,R2)
000950: 41,2173           62351                          CADR     GODSPALM                              #  VB18 SPARE
000951: 41,2174           62351                          CADR     GODSPALM                              #  VB19 SPARE
000952: 41,2175           62351                          CADR     GODSPALM                              #  VB20 SPARE
000953: 41,2176           62732                          CADR     ALOAD                                 #  VB21 LOAD COMP 1 (R1)
000954: 41,2177           62743                          CADR     BLOAD                                 #  VB22 LOAD COMP 2 (R2)
000955: 41,2200           62760                          CADR     CLOAD                                 #  VB23 LOAD COMP 3 (R3)
000956: 41,2201           62703                          CADR     ABLOAD                                #  VB24 LOAD COMP 1,2 (R1,R2)
000957: 41,2202           62616                          CADR     ABCLOAD                               #  VB25 LOAD COMP 1,2,3 (R1,R2,R3)
000958: 41,2203           62351                          CADR     GODSPALM                              #  VB26 SPARE
000959: 41,2204           63353                          CADR     DSPFMEM                               #  VB27 FIXED MEMORY DISPLAY
000960:                                                                                                 #  THE FOLLOWING VERBS MAKE NO NOUN TEST
000961: 41,2205           62351                          CADR     GODSPALM                              #  VB28 SPARE
000962: 41,2206           62351                          CADR     GODSPALM                              #  VB29 SPARE
000963: 41,2207           63466        REQEXLQC          CADR     VBRQEXEC                              #  VB30 REQUEST EXECUTIVE
000964: 41,2210           63512                          CADR     VBRQWAIT                              #  VB31 REQUEST WAITLIST
000965: 41,2211           61364                          CADR     VBRESEQ                               #  VB32 RESEQUENCE
000966: 41,2212           61347                          CADR     VBPROC                                #  VB33 PROCEED WITHOUT DATA
000967: 41,2213           61355                          CADR     VBTERM                                #  VB34 TERMINATE CURRENT TEST OR LOAD REQ
000968: 41,2214           63613                          CADR     VBTSTLTS                              #  VB35 TEST LIGHTS
000969: 41,2215           12342                          CADR     SLAP1                                 #  VB36 FRESH START
000970: 41,2216           63430                          CADR     MMCHANG                               #  VB37 CHANGE MAJOR MODE
000971: 41,2217           62351                          CADR     GODSPALM                              #  VB38 SPARE
000972: 41,2220           62351                          CADR     GODSPALM                              #  VB39 SPARE
000973:
000974:                                                                                                 #  THE LIST2 VERBFAN IS LOCATED IN THE EXTENDED VERB BANK.
000975:                                                                                                 #  Page 327
000976:                                                                                                 #  NNADTAB CONTAINS A RELATIVE ADDRESS, IDADDREL (IN LOW 10 BITS), REFERRING
000977:                                                                                                 #  TO WHERE 3 CONSECUTIVE ADDRESSES ARE STORED (IN IDADDTAB).
000978:                                                                                                 #  MIXNOUN GETS DATA AND STORES IN MIXTEMP,+1,+2.  IT SETS NOUNADD FOR
000979:                                                                                                 #  MIXTEMP.
000980:
000981: 41,2221           10146        MIXNOUN           CCS      NNADTEM
000982: 41,2222           02226                          TC       +4                                    #  + IN USE
000983: 41,2223           02351                          TC       GODSPALM                              #  +0 NOT IN USE
000984: 41,2224           02226                          TC       +2                                    #  - IN USE
000985: 41,2225           02226                          TC       +1                                    #  -0 IN USE
000986: 41,2226           46211                          CS       SIX
000987: 41,2227           61001                          AD       VERBREG
000988: 41,2230           00006                          EXTEND
000989: 41,2231           62233                          BZMF     +2                                    #  VERB L/E 6
000990: 41,2232           02133                          TC       VERBFAN                               #  AVOID MIXNOUN SWAP IF VB NOT = DISPLAY
000991: 41,2233           35016                          CAF      TWO
000992: 41,2234           54117        MIXNN1            TS       DECOUNT
000993: 41,2235           62260                          AD       MIXAD
000994: 41,2236           54145                          TS       NOUNADD                               #  SET NOUNADD TO MIXTEMP +K
000995: 41,2237           50117                          INDEX    DECOUNT                               #  GET IDADDTAB ENTRY FOR COMPONENT K
000996: 41,2240           30150                          CA       IDAD1TEM                              #  OF NOUN.
000997: 41,2241           54122                          TS       NOUNTEM
000998:                                                                                                 #  TEST FOR DP (FOR OCT DISPLAY).  IF SO, GET
000999:                                                                                                 #         MINOR PART ONLY.
001000: 41,2242           03034                          TC       SFRUTMIX                              #  GET SF ROUT NUMBER IN A
001001: 41,2243           02261                          TC       DPTEST
001002: 41,2244           02246                          TC       MIXNN2                                #  NO DP
001003: 41,2245           24122                          INCR     NOUNTEM                               #  DP GET MINOR PART
001004: 41,2246           30122        MIXNN2            CA       NOUNTEM
001005: 41,2247           74372                          MASK     LOW11                                 #  ESUBK (NO DP) OR (ESUBK)+1  FOR DP.
001006: 41,2250           04327                          TC       SETEBANK                              #  SET EBANK, LEAVE EADRES IN A.
001007: 41,2251           50000                          INDEX    A                                     #  PICK UP C(ESUBK) NOT DP.
001008: 41,2252           30000                          CA       0                                     #  OR C((ESUBK)+1) FOR DP MINOR PART
001009: 41,2253           50145                          INDEX    NOUNADD
001010: 41,2254           56000                          XCH      0                                     #  STORE IN MIXTEM + K
001011: 41,2255           10117                          CCS      DECOUNT
001012: 41,2256           02234                          TC       MIXNN1
001013: 41,2257           02133                          TC       VERBFAN
001014:
001015: 41,2260           00125        MIXAD             TC       MIXTEMP
001016:
001017:                                                                                                 #  DPTEST ENTER WITH SF ROUT NUMBER IN A.
001018:                                                                                                 #                 RETURNS TO L+1 IF NO DP.
001019:                                                                                                 #                 RETURNS TO L+2 IF DP.
001020:
001021: 41,2261           50000        DPTEST            INDEX    A
001022: 41,2262           12263                          TCF      +1
001023: 41,2263           00002                          TC       Q                                     #  OCTAL ONLY NO DP
001024: 41,2264           00002                          TC       Q                                     #  FRACT NO DP
001025:                                                                                                 #  Page 328
001026: 41,2265           00002                          TC       Q                                     #  DEG NO DP
001027: 41,2266           00002                          TC       Q                                     #  ARITH NO DP
001028: 41,2267           12301                          TCF      DPTEST1                               #  DP1OUT
001029: 41,2270           12301                          TCF      DPTEST1                               #  DP2OUT
001030: 41,2271           00002                          TC       Q                                     #  OPDEG NO DP
001031: 41,2272           12301                          TCF      DPTEST1                               #  DP3OUT
001032: 41,2273           00002                          TC       Q                                     #  HMS NO DP
001033: 41,2274           00002                          TC       Q                                     #  M/S NO DP
001034: 41,2275           12301                          TCF      DPTEST1                               #  DP4OUT
001035: 41,2276           00002                          TC       Q                                     #  ARITH1 NO DP
001036: 41,2277           00002                          TC       Q                                     #  2INTOUT NO DP TO GET HI PART IN MPAC
001037: 41,2300           12301                          TCF      DPTEST1                               #  DPFRACOT
001038: 41,2301           50002        DPTEST1           INDEX    Q
001039: 41,2302           00001                          TC       1                                     #  RETURN TO L+2
001040:
001041: 41,2303           34333        REQDATX           CAF      R1D1
001042: 41,2304           12310                          TCF      REQCOM
001043: 41,2305           34334        REQDATY           CAF      R2D1
001044: 41,2306           12310                          TCF      REQCOM
001045: 41,2307           34335        REQDATZ           CAF      R3D1
001046: 41,2310           54777        REQCOM            TS       DSPCOUNT
001047: 41,2311           40002                          CS       Q
001048: 41,2312           55013                          TS       REQRET
001049: 41,2313           04662                          TC       BANKCALL
001050: 41,2314           60437                          CADR     5BLANK
001051: 41,2315           04443                          TC       FLASHON
001052: 41,2316           00136        ENDRQDAT          TC       ENTEXIT
001053:
001054: 41,2317           55002                          TS       NOUNREG
001055: 41,2320           56002        UPDATNN           XCH      Q
001056: 41,2321           54117                          TS       UPDATRET
001057: 41,2322           00006                          EXTEND
001058: 41,2323           32114                          DCA      LODNNLOC                              #  SWITCH BANKS TO NOUN TABLE READING
001059: 41,2324           52006                          DXCH     Z                                     #  ROUTINE.
001060: 41,2325           10146                          CCS      NNADTEM
001061: 41,2326           65017                          AD       ONE                                   #  NORMAL
001062: 41,2327           12332                          TCF      PUTADD
001063: 41,2330           12333                          TCF      PUTADD     +1                         #  MCTBS          DON'T CHANGE NOUNADD
001064: 41,2331           12333                          TCF      PUTADD     +1                         #  MCTBI          DON'T CHANGE NOUNADD
001065: 41,2332           04317        PUTADD            TC       SETNCADR                              #  ECADR INTO NOUNCADR.  SETS EB, NOUNADD.
001066: 41,2333           34375                          CAF      ND1
001067: 41,2334           54777                          TS       DSPCOUNT
001068: 41,2335           31002                          CA       NOUNREG
001069: 41,2336           12345                          TCF      UPDAT1
001070:
001071: 41,2337           55001                          TS       VERBREG
001072: 41,2340           56002        UPDATVB           XCH      Q
001073: 41,2341           54117                          TS       UPDATRET
001074: 41,2342           34374                          CAF      VD1
001075:                                                                                                 #  Page 329
001076: 41,2343           54777                          TS       DSPCOUNT
001077: 41,2344           31001                          CA       VERBREG
001078: 41,2345           04701        UPDAT1            TC       POSTJUMP                              #  CAN'T USE SWCALL TO GO TC DSPDECVN, SINCE
001079: 41,2346           61224                          CADR     GOVNUPDT                              #  UPDATVB CAN ITSELF BE CALLED BY SWCALL.
001080: 41,2347           00117                          TC       UPDATRET
001081:
001082: 41,2350           04161        GOALMCYC          TC       ALMCYCLE                              #  NEEDED BECAUSE BANKJUMP CAN'T HANDLE F/F.
001083:
001084: 41,2351           04701        GODSPALM          TC       POSTJUMP
001085: 41,2352           61325                          CADR     DSPALARM
001086:
001087:                                                                                                 #  Page 330
001088:                                                                                                 #  NOUN TABLES
001089:
001090:                                                                                                 #  NOUN CODE L/40, NORMAL NOUN CASE.  NOUN CODE G/E 40, MIXED NOUN CASE.
001091:                                                                                                 #  FOR NORMAL CASE, NNADTAB CONTAINS ONE ECADR FOR EACH NOUN.
001092:                                                                                                 #  +0 INDICATES NOUN NOT USED.  - ENTRY INDICATES MACHINE CADR (E OR F) TO
001093:                                                                                                 #  BE SPECIFIED.  -1 INDICATES CHANNEL TO BE SPECIFIED.  -0 INDICATES AUGMENT
001094:                                                                                                 #  OF LAST MACHINE CADR SUPPLIED.
001095:
001096:                                                                                                 #  FOR MIXED CASE, NNADTAB CONTAINS ONE INDIRECT ADDRESS (IDADDREL) IN LOW
001097:                                                                                                 #  10 BITS, AND THE COMPONENT CODE NUMBER IN THE HIGH 5 BITS.
001098:
001099:                                                                                                 #  NNTYPTAB IS A PACKED TABLE OF THE FORM MMMMMNNNNNPPPPP.
001100:
001101:                                                                                                 #  FOR THE NORMAL CASE,   M'S ARE THE COMPONENT CODE NUMBER.
001102:                                                                                                 #                         N'S ARE THE SF ROUTINE CODE NUMBER.
001103:                                                                                                 #                         P'S ARE THE SF CONSTANT CODE NUMBER.
001104:
001105:                                                                                                 #  MIXED-CASE,            M'S ARE THE SF CONSTANT3 CODE NUMBER    3 COMPONENT CASE
001106:                                                                                                 #                         N'S ARE THE SF CONSTANT2 CODE NUMBER
001107:                                                                                                 #                         P'S ARE THE SF CONSTANT1 CODE NUMBER
001108:                                                                                                 #                         N'S ARE THE SF CONSTANT2 CODE NUMBER    2 COMPONENT CASE
001109:                                                                                                 #                         P'S ARE THE SF CONSTANT1 CODE NUMBER
001110:                                                                                                 #                         P'S ARE THE SF CONSTANT1 CODE NUMBER    1 COMPONENT CASE
001111:
001112:                                                                                                 #  THERE IS ALSO AN INDIRECT ADDRESS TABLE (IDADDTAB) FOR MIXED CASE ONLY
001113:                                                                                                 #  EACH ENTRY CONTAINS ONE ECADR.  IDADDREL IS THE RELATIVE ADDRESS OF
001114:                                                                                                 #  THE FIRST OF THESE ENTRIES.
001115:
001116:                                                                                                 #  THERE IS ONE ENTRY IN THIS TABEL FOR EACH COMPONENT OF A MIXED NOUN
001117:                                                                                                 #  THEY ARE LISTED IN ORDER OF ASCENDING K.
001118:
001119:                                                                                                 #  THERE IS ALSO A SCALE FACTOR ROUTINE NUMBER TABLE (RUTMXTAB) FOR MIXED
001120:                                                                                                 #  CASE ONLY.  THERE IS ONE ENTRY PER MIXED NOUN.  THE FORM IS,
001121:
001122:                                                                                                 #         QQQQQRRRRRSSSSS
001123:
001124:                                                                                                 #  Q'S ARE THE SF ROUTINE 3 CODE NUMBER           3 COMPONENT CASE
001125:                                                                                                 #  R'S ARE THE SF ROUTINE 2 CODE NUMBER
001126:                                                                                                 #  S'S ARE THE SF ROUTINE 1 CODE NUMBER
001127:                                                                                                 #  R'S ARE THE SF ROUTINE 2 CODE NUMBER           2 COMPONENT CASE
001128:                                                                                                 #  S'S ARE THE SF ROUTINE 1 CODE NUMBER
001129:
001130:                                                                                                 #  IN OCTAL DISPLAY AND LOAD (OCT OR DEC) VERBS, EXCLUDE USE OF VERBS WHOSE
001131:                                                                                                 #  COMPONENT NUMBER IS GREATER THAN THE NUMBER OF COMONENTS IN NOUN.
001132:                                                                                                 #  (ALL MACHINE ADDRESS TO BE SPECIFIED NOUNS ARE 3 COMPONENT.)
001133:
001134:                                                                                                 #  IN MULTI-COMPONENT LOAD VERBS, NO MIXING OF OCTAL AND DECIMAL DATA
001135:                                                                                                 #  COMPONENT WORDS IS ALLOWED.  ALARM IF VIOLATION.
001136:
001137:                                                                                                 #  IN DECIMAL LOADS OF DATA, 5 NUMERICAL CHARACTERS MUST BE KEYED IN
001138:                                                                                                 #  BEFORE EACH ENTER.  IF NOT, ALARM.
001139:
001140:                                                                                                 #  Page 331
001141:                                                                                                 #  DISPLAY VERBS
001142:
001143: 41,2353           45016        DSPABC            CS       TWO
001144: 41,2354           02424                          TC       COMPTEST
001145: 41,2355           50145                          INDEX    NOUNADD
001146: 41,2356           40002                          CS       2
001147: 41,2357           56132                          XCH      BUF        +2
001148: 41,2360           45017        DSPAB             CS       ONE
001149: 41,2361           02424                          TC       COMPTEST
001150: 41,2362           50145                          INDEX    NOUNADD
001151: 41,2363           40001                          CS       1
001152: 41,2364           56131                          XCH      BUF        +1
001153: 41,2365           02443        DSPA              TC       DECTEST
001154: 41,2366           02466                          TC       TSTFORDP
001155: 41,2367           50145                          INDEX    NOUNADD
001156: 41,2370           40000                          CS       0
001157: 41,2371           56130        DSPCOM1           XCH      BUF
001158: 41,2372           02405                          TC       DSPCOM2
001159: 41,2373           45017        DSPB              CS       ONE
001160: 41,2374           02437                          TC       DCOMPTST
001161: 41,2375           50145                          INDEX    NOUNADD
001162: 41,2376           40001                          CS       1
001163: 41,2377           02371                          TC       DSPCOM1
001164: 41,2400           45016        DSPC              CS       TWO
001165: 41,2401           02437                          TC       DCOMPTST
001166: 41,2402           50145                          INDEX    NOUNADD
001167: 41,2403           40002                          CS       2
001168: 41,2404           02371                          TC       DSPCOM1
001169: 41,2405           45016        DSPCOM2           CS       TWO                                   #  A B C AB ABC
001170: 41,2406           61001                          AD       VERBREG                               #  -1 -0 +1 +2 +3 IN A
001171: 41,2407           10000                          CCS      A                                     #  +0 +0 +0 +1 +2 IN A AFTER CCS
001172: 41,2410           02413                          TC       DSPCOM3
001173: 41,2411           00136                          TC       ENTEXIT
001174: 41,2412           02413                          TC       +1
001175: 41,2413           54122        DSPCOM3           TS       DISTEM                                #  +0 +1 +2 INTO DISTEM
001176: 41,2414           50000                          INDEX    A
001177: 41,2415           34333                          CAF      R1D1
001178: 41,2416           54777                          TS       DSPCOUNT
001179: 41,2417           50122                          INDEX    DISTEM
001180: 41,2420           40130                          CS       BUF
001181: 41,2421           03363                          TC       DSPOCTWO
001182: 41,2422           56122                          XCH      DISTEM
001183: 41,2423           02407                          TC       DSPCOM2    +2
001184:
001185:                                                                                                 #  COMPTEST ALARMS IF COMPONENT NUMBER OF VERB (LOAD OR OCT DISPLAY) IS
001186:                                                                                                 #  GREATER THAN THE HIGHEST COMPONENT NUMBER OF NOUN.
001187:
001188: 41,2424           54123        COMPTEST          TS       SFTEMP1                               #  VERB COMP
001189: 41,2425           22002                          LXCH     Q
001190: 41,2426           02515        COMPTST1          TC       GETCOMP
001191: 41,2427           04345                          TC       LEFT5
001192: 41,2430           76214                          MASK     THREE                                 #  NOUN COMP
001193:                                                                                                 #  Page 332
001194: 41,2431           60123                          AD       SFTEMP1                               #  NOUN COMP -- VERB COMP
001195: 41,2432           10000                          CCS      A
001196: 41,2433           00001                          TC       L                                     #  NOUN COMP G/ VERB COMP
001197: 41,2434           05747                          TC       CCSHOLE
001198: 41,2435           02351                          TC       GODSPALM                              #  NOUN COMP L/ VERB COMP
001199: 41,2436           00001        NDCMPTST          TC       L                                     #  NOUN COMP = VERB COMP
001200:
001201:                                                                                                 #  DCOMPTST ALARMS IF DECIMAL ONLY BIT (BIT4 OF COMP CODE NUMBER) = 1.
001202:                                                                                                 #  IF NOT, IT PERFORMS REGULAR COMPTEST.
001203:
001204: 41,2437           54123        DCOMPTST          TS       SFTEMP1                               #  - VERB COMP
001205: 41,2440           22002                          LXCH     Q
001206: 41,2441           02443                          TC       DECTEST
001207: 41,2442           02426                          TC       COMPTST1
001208:
001209: 41,2443           00006        DECTEST           EXTEND                                         #  ALARMS IF DEC ONLY BIT = 1 (BIT4 OF COMP
001210: 41,2444           22156                          QXCH     MPAC       +2                         #  CODE NUMBER).  RETURNS IF NOT.
001211: 41,2445           02515                          TC       GETCOMP
001212: 41,2446           75002                          MASK     BIT14
001213: 41,2447           10000                          CCS      A
001214: 41,2450           02351                          TC       GODSPALM
001215: 41,2451           00156                          TC       MPAC       +2
001216:
001217: 41,2452           22002        DCTSTCYC          LXCH     Q                                     #  ALARMS AND RECYCLES IF DEC ONLY BIT = 1
001218: 41,2453           02515                          TC       GETCOMP                               #  (BIT4 OF COMP CODE NUMBER). RETURNS
001219: 41,2454           75002                          MASK     BIT14                                 #  IF NOT.  USED BY LOAD VERBS.
001220: 41,2455           10000                          CCS      A
001221: 41,2456           04161                          TC       ALMCYCLE
001222: 41,2457           00001                          TC       L
001223:
001224:                                                                                                 #  NOUNTEST ALARMS IF NO-LOAD BIT (BIT5 OF COMP CODE NUMBER) = 1.
001225:                                                                                                 #  IF NOT, IT RETURNS.
001226:
001227: 41,2460           22002        NOUNTEST          LXCH     Q
001228: 41,2461           02515                          TC       GETCOMP
001229: 41,2462           10000                          CCS      A
001230: 41,2463           00001                          TC       L
001231: 41,2464           00001                          TC       L
001232: 41,2465           02351                          TC       GODSPALM
001233:
001234: 41,2466           22002        TSTFORDP          LXCH     Q                                     #  TEST FOR DP.  IF SO, GET MINOR PART ONLY.
001235: 41,2467           30146                          CA       NNADTEM
001236: 41,2470           65017                          AD       ONE                                   #  IF NNADTEM = -1, CHANNEL TO BE SPECIFIED
001237: 41,2471           00006                          EXTEND
001238: 41,2472           12504                          BZF      CHANDSP
001239: 41,2473           50140                          INDEX    MIXBR
001240: 41,2474           02474                          TC       +0
001241: 41,2475           02477                          TC       +2                                    #  NORMAL
001242:                                                                                                 #  Page 333
001243: 41,2476           00001                          TC       L                                     #  MIXED CASE ALREADY HANDLED IN MIXNOUN
001244: 41,2477           03026                          TC       SFRUTNOR
001245: 41,2500           02261                          TC       DPTEST
001246: 41,2501           00001                          TC       L                                     #  NO DP
001247: 41,2502           24145                          INCR     NOUNADD                               #  DP     E+1 INTO NOUNADD FOR MINOR PART.
001248: 41,2503           00001                          TC       L
001249:
001250: 41,2504           31017        CHANDSP           CA       NOUNCADR
001251: 41,2505           75046                          MASK     LOW9
001252: 41,2506           00006                          EXTEND
001253: 41,2507           50000                          INDEX    A
001254: 41,2510           00000                          READ     0
001255: 41,2511           40000                          CS       A
001256: 41,2512           12371                          TCF      DSPCOM1
001257:
001258: 41,2513           00147        COMPICK           ADRES    NNTYPTEM
001259: 41,2514           00146                          ADRES    NNADTEM
001260:
001261: 41,2515           50140        GETCOMP           INDEX    MIXBR                                 #         NORMAL                          MIXED
001262: 41,2516           32512                          CAF      COMPICK    -1                         #         ADRES NNTYPTEM                  ADRES NNADTEM
001263: 41,2517           50000                          INDEX    A
001264: 41,2520           30000                          CA       0                                     #         C(NNTYPTEM)                     C(NNADTEM)
001265: 41,2521           74364                          MASK     HI5                                   #         GET HI5 OF NNTYPTAB (NORM)      OF NNADTAB (MIX)
001266: 41,2522           00002                          TC       Q
001267:
001268: 41,2523           02515        DECDSP            TC       GETCOMP
001269: 41,2524           04345                          TC       LEFT5
001270: 41,2525           76214                          MASK     THREE
001271: 41,2526           54117                          TS       DECOUNT                               #  COMP NUMBER INTO DECOUNT
001272: 41,2527           54122        DSPDCGET          TS       DECTEM                                #  PICKS UP DATA
001273: 41,2530           60145                          AD       NOUNADD                               #  DECTEM 1COMP +0, 2COMP +1, 3COMP +2
001274: 41,2531           50000                          INDEX    A
001275: 41,2532           40000                          CS       0
001276: 41,2533           50122                          INDEX    DECTEM
001277: 41,2534           57003                          XCH      XREG                                  #  CAN'T USE BUF SINCE DMP USES IT.
001278: 41,2535           10122                          CCS      DECTEM
001279: 41,2536           02527                          TC       DSPDCGET                              #  MORE TO GET
001280: 41,2537           35021        DSPDCPUT          CAF      ZERO                                  #  DISPLAYS DATA
001281: 41,2540           54155                          TS       MPAC       +1                         #  DECOUNT 1COMP +0, 2COMP +1, 3COMP +2
001282: 41,2541           54156                          TS       MPAC       +2
001283: 41,2542           50117                          INDEX    DECOUNT
001284: 41,2543           34333                          CAF      R1D1
001285: 41,2544           54777                          TS       DSPCOUNT
001286: 41,2545           50117                          INDEX    DECOUNT
001287: 41,2546           41003                          CS       XREG
001288: 41,2547           54154                          TS       MPAC
001289: 41,2550           03047                          TC       SFCONUM                               #  2X (SF CON NUMB) IN A
001290:                                                                                                 #  Page 334
001291: 41,2551           54123                          TS       SFTEMP1
001292: 41,2552           00006                          EXTEND                                         #  SWITCH BANKS TO SF CONSTANT TABLE
001293: 41,2553           32565                          DCA      GTSFOUTL                              #         READING ROUTINE.
001294: 41,2554           52006                          DXCH     Z                                     #  LOADS SFTEMP1, SFTEMP2
001295: 41,2555           50140                          INDEX    MIXBR
001296: 41,2556           02556                          TC       +0
001297: 41,2557           02562                          TC       DSPSFNOR
001298: 41,2560           03034                          TC       SFRUTMIX
001299: 41,2561           02575                          TC       DECDSP3
001300:
001301: 41,2562           03026        DSPSFNOR          TC       SFRUTNOR
001302: 41,2563           02575                          TC       DECDSP3
001303:
001304: 41,2564     0777                                 EBANK=   DSPCOUNT
001305: 41,2564           02120 64101  GTSFOUTL          2CADR    GTSFOUT
001306:
001307: 41,2566           04662        DSPDCEND          TC       BANKCALL                              #  ALL SFOUT ROUTINES END HERE
001308: 41,2567           61133                          CADR     DSPDECWD
001309: 41,2570           10117                          CCS      DECOUNT
001310: 41,2571           02573                          TC       +2
001311: 41,2572           00136                          TC       ENTEXIT
001312: 41,2573           54117                          TS       DECOUNT
001313: 41,2574           02537                          TC       DSPDCPUT                              #  MORE TO DISPLAY
001314:
001315: 41,2575           50000        DECDSP3           INDEX    A
001316: 41,2576           32600                          CAF      SFOUTABR
001317: 41,2577           04704                          TC       BANKJUMP
001318:
001319: 41,2600           61323        SFOUTABR          CADR     PREDSPAL                              #  ALARM IF DEC DISP WITH OCTAL ONLY NOUN
001320: 41,2601           62566                          CADR     DSPDCEND
001321: 41,2602           60516                          CADR     DEGOUTSF
001322: 41,2603           60603                          CADR     ARTOUTSF
001323: 41,2604           60614                          CADR     DP1OUTSF
001324: 41,2605           60621                          CADR     DP2OUTSF
001325: 41,2606           60524                          CADR     OPDEGOUT
001326: 41,2607           60623                          CADR     DP3OUTSF
001327: 41,2610           65143                          CADR     HMSOUT
001328: 41,2611           65216                          CADR     M/SOUT
001329: 41,2612           60621                          CADR     DP2OUTSF
001330: 41,2613           60610                          CADR     AROUT1SF
001331: 41,2614           60636                          CADR     2INTOUT
001332: 41,2615           60653                          CADR     DPFRACOT
001333: 41,2616                        ENDRTOUT          EQUALS
001334:
001335:                                                                                                 #  THE FOLLOWING IS ATYPICAL SF ROUTINE.  IT USES MPAC.  LEAVES RESULTS
001336:                                                                                                 #  IN MPAC, MPAC+1.  ENDS WITH TC DSPDCEND
001337:
001338:                                                                                                 #  Page 335
001339:
001340: 40,2516                                          SETLOC   BLANKCON   +1
001341:
001342: 40,2516                                          COUNT    40/PIN
001343:                                                                                                 #  DEGOUTSF SCALES BY .18 THE LOW 14 BITS OF ANGLE, ADDING .18 FOR
001344:                                                                                                 #  NUMBERS IN THE NEGATIVE (AGC) RANGE.
001345:
001346: 40,2516           35021        DEGOUTSF          CAF      ZERO
001347: 40,2517           54156                          TS       MPAC       +2                         #  SET INDEX FOR FULL SCALE.
001348: 40,2520           02555                          TC       FIXRANGE
001349: 40,2521           02523                          TC       +2                                    #  NO AUGMENT NEEDED (SFTEMP1 AND 2 ARE 0)
001350: 40,2522           02550                          TC       SETAUG                                #  SET AUGMENTER ACCORDING TO C(MPAC +2)
001351: 40,2523           02566                          TC       DEGCOM
001352:
001353:                                                                                                 #  OPDEGOUT SCALES BY .45 (THE RANGE IS 90 DEGREES) AND ADDS A 20 DEG BIAS.
001354:
001355: 40,2524           10154        OPDEGOUT          CCS      MPAC                                  #  RANGE IS 90 DEG
001356: 40,2525           56154                          XCH      MPAC                                  #  IF POS OR POS 0 THEN ADD BIAS AND
001357: 40,2526           02531                          TC       +3                                    #  CORRECT FOR POSSIBLE OVERFLOW
001358: 40,2527           02540                          TC       NEGOPT                                #  IF NEG NON ZERO
001359: 40,2530           67716                          AD       NEG1                                  #  IF NEG ZERO SUBTRACT 1
001360: 40,2531           62602                          AD       20BIAS
001361: 40,2532           54154        BIASCOM           TS       MPAC                                  #  TEST FOR OVEFLOW
001362: 40,2533           02536                          TC       +3                                    #  NO OVFLOW
001363: 40,2534           35001                          CAF      BIT15                                 #  IF OVFLOW
001364: 40,2535           26154                          ADS      MPAC
001365: 40,2536           35016                          CAF      TWO                                   #  SET MULTIPLIER TO .45
001366: 40,2537           02517                          TC       DEGOUTSF   +1
001367:
001368: 40,2540           56154        NEGOPT            XCH      MPAC                                  #  NEGATIVE CASE
001369: 40,2541           62602                          AD       20BIAS
001370: 40,2542           10000                          CCS      A
001371: 40,2543           02532                          TC       BIASCOM                               #  IF POS THEN SUBTRACT 1 BECASUE OF 2SCOM
001372: 40,2544           05747                          TC       CCSHOLE
001373: 40,2545           65017                          AD       ONE                                   #  IF NEG RESTORE SUM
001374: 40,2546           40000                          COM                                            #  IF NEG 0 LEAVE NEG 0
001375: 40,2547           02532                          TC       BIASCOM
001376:
001377: 40,2550           00006        SETAUG            EXTEND                                         #  LOADS SFTEMP1 AND SFTEMP2 WITH THE
001378: 40,2551           50156                          INDEX    MPAC       +2                         #  DP AUGMENTER CONSTANT
001379: 40,2552           32577                          DCA      DEGTAB
001380: 40,2553           52124                          DXCH     SFTEMP1
001381: 40,2554           00002                          TC       Q
001382:
001383: 40,2555           10154        FIXRANGE          CCS      MPAC                                  #  IF MPAC IS + RETURN TO L+1
001384: 40,2556           00002                          TC       Q                                     #  IF MPAC IS - RETURN TO L+2 AFTER
001385: 40,2557           00002                          TC       Q                                     #  MASKING OUT THE SIGN BIT
001386: 40,2560           12561                          TCF      +1
001387: 40,2561           45001                          CS       BIT15
001388: 40,2562           70154                          MASK     MPAC
001389:                                                                                                 #  Page 336
001390: 40,2563           54154                          TS       MPAC
001391: 40,2564           50002                          INDEX    Q
001392: 40,2565           00001                          TC       1
001393:
001394: 40,2566           00006        DEGCOM            EXTEND                                         #  LOADS MULTIPLIER, DOES SHORTMP, AND
001395: 40,2567           50156                          INDEX    MPAC       +2                         #  ADDS AUTMENTER.
001396: 40,2570           32577                          DCA      DEGTAB
001397: 40,2571           52155                          DXCH     MPAC                                  #  ADJUSTED ANGLE IN A
001398: 40,2572           07256                          TC       SHORTMP
001399: 40,2573           52124                          DXCH     SFTEMP1
001400: 40,2574           20155                          DAS      MPAC
001401: 40,2575           02606                          TC       SCOUTEND
001402:
001403: 40,2576           05605        DEGTAB            OCT      05605                                 #  HI PART OF     .18
001404: 40,2577           03656                          OCT      03656                                 #  LOW PART OF    .18
001405: 40,2600           16314                          OCT      16314                                 #  HI PART OF     .45
001406: 40,2601           31463                          OCT      31463                                 #  LO PART OF     .45
001407:
001408: 40,2602           16040        20BIAS            OCT      16040                                 #  20 DEG BIAS FOR OPTICS
001409:
001410: 40,2603           52124        ARTOUTSF          DXCH     SFTEMP1                               #  ASSUMES POINT AT LEFT OF DP SFCON
001411: 40,2604           52155                          DXCH     MPAC
001412: 40,2605           04431                          TC       PRSHRTMP                              #  IF C(A) = -0, SHORTMP FAILS TO GIVE -0.
001413: 40,2606           04701        SCOUTEND          TC       POSTJUMP
001414: 40,2607           62566                          CADR     DSPDCEND
001415:
001416: 40,2610           52124        AROUT1SF          DXCH     SFTEMP1                               #  ASSUMES POINT BETWEEN HI AND LO PARTS OF
001417: 40,2611           52155                          DXCH     MPAC                                  #  DP SFCON.  SHIFTS RESULTS LEFT 14, BY
001418: 40,2612           04431                          TC       PRSHRTMP                              #  TAKING RESULTS FROM MPAC+1, MPAC+2.
001419: 40,2613           02615                          TC       L14/OUT
001420:
001421: 40,2614           02627        DP1OUTSF          TC       DPOUT                                 #  SCALES MPAC, MPAC +1 BY DP SCALE FACTOR
001422: 40,2615           56156        L14/OUT           XCH      MPAC       +2                         #  IN SFTEMP1, SFTEMP2.  THEN SCALE RESULT
001423: 40,2616           56155                          XCH      MPAC       +1                         #  BY B14
001424: 40,2617           54154                          TS       MPAC
001425: 40,2620           02606                          TC       SCOUTEND
001426:
001427: 40,2621           02627        DP2OUTSF          TC       DPOUT                                 #  SCALES MPAC, MPAC +1 BY DP SCALE FACTOR
001428: 40,2622           02606                          TC       SCOUTEND
001429:
001430: 40,2623           02627        DP3OUTSF          TC       DPOUT                                 #  ASSUMES POINT BETWEEN BITS 7-8 OF HIGH
001431: 40,2624           36211                          CAF      SIX                                   #  LEFT BY 7, ROUNDS MPAC+2 INTO MPAC+1
001432: 40,2625           03060                          TC       TPLEFTN                               #  SHIFT LEFT 7.
001433: 40,2626           02606                          TC       SCOUTEND
001434:
001435:                                                                                                 #  Page 337
001436:
001437: 40,2627     0162               MPAC+6            =        MPAC       +6                         #  USE MPAC +6 INSTEAD OF OVFIND
001438:
001439: 40,2627           56002        DPOUT             XCH      Q
001440: 40,2630           54162                          TS       MPAC+6
001441: 40,2631           02655                          TC       READLO                                #  GET FRESH DATA FOR BOTH HI AND LO.
001442: 40,2632           07226                          TC       TPAGREE                               #  MAKE DP DATA AGREE
001443: 40,2633           07052                          TC       DMP
001444: 40,2634           00123                          ADRES    SFTEMP1
001445: 40,2635           00162                          TC       MPAC+6
001446:
001447:                                                                                                 #  THE FOLLOWING ROUTINE DISPLAYS TWO CONTIGUOUS SP POSITIVE INTEGERS
001448:                                                                                                 #  AS TWO POSITIVE DECIMAL INTEGERS IN RXD1-RXD2 AND RXD4-RXD5 (RXD3 IS
001449:                                                                                                 #  BLANKED).  THE INTEGER IN THE LOWER NUMBERED ADDRESS IS DISPLAYED IN
001450:                                                                                                 #  RXD1-RXD2.
001451:
001452: 40,2636           02437        2INTOUT           TC       5BLANK                                #  TO BLANK RXD3
001453: 40,2637           02314                          TC       +ON                                   #  TURN ON + SIGN
001454: 40,2640           30154                          CA       MPAC
001455: 40,2641           03213                          TC       DSPDECVN                              #  DISPLAY 1ST INTEGER (LIKE VERB AND NOUN)
001456: 40,2642           46214                          CS       THREE
001457: 40,2643           50117                          INDEX    DECOUNT
001458: 40,2644           64333                          AD       R1D1                                  #  RXD4
001459: 40,2645           54777                          TS       DSPCOUNT
001460: 40,2646           02655                          TC       READLO                                #  GET 2ND INTEGER
001461: 40,2647           30155                          CA       MPAC       +1
001462: 40,2650           03213                          TC       DSPDECVN                              #  DISPLAY 2ND INTEGER (LIKE VERB AND NOUN)
001463: 40,2651           04701                          TC       POSTJUMP
001464: 40,2652           62570                          CADR     DSPDCEND   +2
001465:
001466: 40,2653           02655        DPFRACOT          TC       READLO                                #  DP FRACTION TO MPAC,+1
001467: 40,2654           02606                          TC       SCOUTEND
001468:
001469:                                                                                                 #  READLO PICKS UP FRESHDATA FOR BOTH HI AND LO AND LEAVES IT IN
001470:                                                                                                 #  MPAC, MPAC+1.  THIS IS NEEDED FOR TIME DISPLAY.  IT ZEROES MPAC+2, BUT
001471:                                                                                                 #  DOES NOT FORCE TPAGREE.
001472:
001473: 40,2655           56002        READLO            XCH      Q
001474: 40,2656           54144                          TS       TEM4
001475: 40,2657           50140                          INDEX    MIXBR
001476: 40,2660           02660                          TC       +0
001477: 40,2661           02675                          TC       RDLONOR
001478: 40,2662           50117                          INDEX    DECOUNT
001479: 40,2663           30150                          CA       IDAD1TEM                              #  GET IDADDTAB ENTRY FOR COMP K OF NOUN.
001480: 40,2664           74372                          MASK     LOW11                                 #  E SUBK
001481: 40,2665           04327                          TC       SETEBANK                              #  SET EB, LEAVE EADRES IN A
001482: 40,2666           00006        READLO1           EXTEND                                         #  MIXED                          NORMAL
001483: 40,2667           50000                          INDEX    A                                     #  C(ESUBK)                       C(E)
001484: 40,2670           30001                          DCA      0                                     #  C(E SUBK)+1)                   C(E+1)
001485: 40,2671           52155                          DXCH     MPAC
001486:                                                                                                 #  Page 338
001487: 40,2672           35021                          CAF      ZERO
001488: 40,2673           54156                          TS       MPAC       +2
001489: 40,2674           00144                          TC       TEM4
001490:
001491: 40,2675           30145        RDLONOR           CA       NOUNADD                               #  E
001492: 40,2676           02666        ENDRDLO           TC       READLO1
001493:
001494: 42,3143                                          BANK     42
001495: 42,2000                                          SETLOC   PINBALL3
001496: 42,2000                                          BANK
001497:
001498: 42,3143                                          COUNT    42/PIN
001499:
001500: 42,3143           04662        HMSOUT            TC       BANKCALL                              #  READ FRESH DATA FOR HI AND LO INTO MPAC.
001501: 42,3144           60655                          CADR     READLO                                #  MPAC+1.
001502: 42,3145           07226                          TC       TPAGREE                               #  MAKE DP DATA AGREE.
001503: 42,3146           03332                          TC       SEPSECNR                              #  LEAVE FRACT SEC/60 IN MPAC, MPAC+1.  LEAVE
001504:                                                                                                 #  WHOLE MIN IN BIT13 OF LOTEMOUT AND ABOVE
001505: 42,3147           07052                          TC       DMP                                   #  USE ONLY FRACT SEC/60 MOD 60
001506: 42,3150           03204                          ADRES    SECON2                                #  MULT BY .06
001507: 42,3151           34335                          CAF      R3D1                                  #  GIVES CENTI-SEC/10EXP5 MOD 60
001508: 42,3152           54777                          TS       DSPCOUNT
001509: 42,3153           04662                          TC       BANKCALL                              #  DISPLAY SEC MOD 60
001510: 42,3154           61133                          CADR     DSPDECWD
001511: 42,3155           03350                          TC       SEPMIN                                #  REMOVE REST OF SECONDS
001512: 42,3156           33206                          CAF      MINCON2                               #  LEAVE FRACT MIN/60 IN MPAC+1.  LEAVE
001513: 42,3157           56154                          XCH      MPAC                                  #  WHOLE HOURS IN MPAC.
001514: 42,3160           55007                          TS       HITEMOUT                              #  SAVE WHOLE HOURS.
001515: 42,3161           33207                          CAF      MINCON2    +1
001516: 42,3162           56155                          XCH      MPAC       +1                         #  USE ONLY FRACT MIN/60 MOD 60
001517: 42,3163           04431                          TC       PRSHRTMP                              #  IF C(A) = -0, SHORTMP FAILS TO GIVE -0.
001518:                                                                                                 #  MULT BY .0006
001519: 42,3164           34334                          CAF      R2D1                                  #  GIVE MIN/10EXP5 MOD 60
001520: 42,3165           54777                          TS       DSPCOUNT
001521: 42,3166           04662                          TC       BANKCALL                              #  DISPLAY MIN MOD 60
001522: 42,3167           61133                          CADR     DSPDECWD
001523: 42,3170           00006                          EXTEND                                         #  MINUTES, SECONDS HAVE BEEN REMOVED
001524: 42,3171           33213                          DCA      HRCON1
001525: 42,3172           52155                          DXCH     MPAC
001526: 42,3173           31007                          CA       HITEMOUT                              #  USE WHOLE HOURS
001527: 42,3174           04431                          TC       PRSHRTMP                              #  IF C(A) = -0, SHORTMP FAILS TO GIVE -0.
001528:                                                                                                 #  MULT BY .16384
001529: 42,3175           34333                          CAF      R1D1                                  #  GIVES HOURS/10EXP5
001530: 42,3176           54777                          TS       DSPCOUNT
001531: 42,3177           04662                          TC       BANKCALL                              #  USE REGULAR DSPDECWD WITH ROUND OFF.
001532: 42,3200           61133                          CADR     DSPDECWD
001533: 42,3201           00136                          TC       ENTEXIT
001534:
001535: 42,3202           25660 31742  SECON1            2DEC*    1.666666666 E-4        B12*            #  2EXP12/6000
001536:                                                                                                 #  Page 339
001537: 42,3204           01727        SECON2            OCT      01727                                 #  .06 FOR SECONDS DISPLAY
001538: 42,3205           01217                          OCT      01217
001539: 42,3206           00011        MINCON2           OCT      00011                                 #  .0006 FOR MINUTES DISPLAY
001540: 42,3207           32445                          OCT      32445
001541: 42,3210           02104        MINCON1           OCT      02104                                 #  .06..66 UPPED BY 2EXP-2B
001542: 42,3211           10422                          OCT      10422
001543: 42,3212           05174 13261  HRCON1            2DEC     .16384
001544: 42,3214           00000                          OCT      00000
001545: 42,3215           00062        RNDCON            OCT      00062                                 #  .5 SEC
001546:
001547: 42,3216           04662        M/SOUT            TC       BANKCALL                              #  READ FRESH DATA FOR HI AND LO INTO MPAC.
001548: 42,3217           60655                          CADR     READLO                                #  MPAC+1.
001549: 42,3220           07226                          TC       TPAGREE                               #  MAKE DP DATA AGREE
001550: 42,3221           10154                          CCS      MPAC                                  #  IF MAG OF (MPAC, MPAC+1) G/ 59 M 59 S.
001551: 42,3222           03224                          TC       +2                                    #  DISPLAY 59B59, WITH PROPER SIGN.
001552: 42,3223           03255                          TC       M/SNORM                               #  MPAC = +0.  L/ 59M58.5S
001553: 42,3224           63312                          AD       M/SCON1                               #  - HI PART OF (59M58.5) +1 FOR CCS
001554: 42,3225           10000                          CCS      A                                     #  MAG OF MPAC - HI PART OF (59M58.5S)
001555: 42,3226           03241                          TC       M/SLIMIT                              #  G/ 59M58.5S
001556: 42,3227           03255                          TC       M/SNORM                               #  ORIGINAL MPAC = -0.  L/59M58.5S
001557: 42,3230           03255                          TC       M/SNORM                               #  L/ 59M58.5S
001558: 42,3231           10155                          CCS      MPAC       +1                         #  MAG OF MPAC = HI PART OF 59M58.5S
001559: 42,3232           03234                          TC       +2
001560: 42,3233           03255                          TC       M/SNORM                               #  MPAC+1 = +0.  L/ 59M58.5S
001561: 42,3234           63313                          AD       M/SCON2                               #  - LO PART OF (59M58.5S) +1 FOR CCS
001562: 42,3235           10000                          CCS      A                                     #  MAG OF MPAC+1 - LO PART OF (59M58.5S)
001563: 42,3236           03241                          TC       M/SLIMIT                              #  G/ 59M58.5S
001564: 42,3237           03255                          TC       M/SNORM                               #  ORIGINAL MPAC+1 = -0.  L/ 49M58.5S
001565: 42,3240           03255                          TC       M/SNORM                               #  L/ 59M58.5S
001566: 42,3241           10154        M/SLIMIT          CCS      MPAC                                  #  = 59M58.5S     LIMIT
001567: 42,3242           33315                          CAF      M/SCON3                               #  MPAC CANNOT BE +/- 0 AT THIS POINT.
001568: 42,3243           03252                          TC       +LIMIT                                #  FORCE MPAC, MPAC+1 TO +/- 59M58.5S
001569: 42,3244           43315                          CS       M/SCON3
001570: 42,3245           54154                          TS       MPAC                                  #  WILL DISPLAY 59M59S IN DSPDECNR
001571: 42,3246           43316                          CS       M/SCON3    +1
001572: 42,3247           54155        LIMITCOM          TS       MPAC       +1
001573: 42,3250           33314                          CAF      NORMADR                               #  SET RETURN TO M/SNORM+1.
001574: 42,3251           03333                          TC       SEPSECNR   +1
001575: 42,3252           54154        +LIMIT            TS       MPAC
001576: 42,3253           33316                          CAF      M/SCON3    +1
001577: 42,3254           03247                          TC       LIMITCOM
001578: 42,3255           03317        M/SNORM           TC       SEPSEC                                #  LEAVE FRACT SEC/60 IN MPAC,MPAC+1.  LEAVE
001579:                                                                                                 #  WHOLE MIN IN BIT13 OF LOTEMOUT AND ABOVE
001580: 42,3256           33310                          CAF      HISECON                               #  USE ONLY FRACT SEC/60 MOD 60
001581: 42,3257           07256                          TC       SHORTMP                               #  MULT BY .6 + 2EXP-14
001582: 42,3260           46214                          CS       THREE                                 #  GIVES SEC/100 MOD 60
001583: 42,3261           26777                          ADS      DSPCOUNT                              #  DSPCOUNT ALREADY SET TO RXD1
001584: 42,3262           04662                          TC       BANKCALL                              #  DISPLAY SEC MOD 60 IN D4D5.
001585:                                                                                                 #  Page 340
001586: 42,3263           61173                          CADR     DSPDC2NR
001587: 42,3264           35021                          CAF      ZERO
001588: 42,3265           54124                          TS       CODE
001589: 42,3266           45016                          CS       TWO
001590: 42,3267           50117                          INDEX    DECOUNT
001591: 42,3270           64333                          AD       R1D1                                  #  RXD3
001592: 42,3271           54143                          TS       COUNT
001593: 42,3272           04662                          TC       BANKCALL                              #  BLANK MIDDLE CHAR
001594: 42,3273           61227                          CADR     DSPIN
001595: 42,3274           03350                          TC       SEPMIN                                #  REMOVE REST OF SECONDS
001596: 42,3275           56155                          XCH      MPAC       +1                         #  LEAVE FRACT MIN/60 IN MPAC+1
001597: 42,3276           00006                          EXTEND                                         #  USE ONLY FRACT MIN/60 MOD 60
001598: 42,3277           73311                          MP       HIMINCON                              #  MULT BY .6 + 2EXP-7
001599: 42,3300           52155                          DXCH     MPAC                                  #  GIVES MIN/100 MOD 60
001600: 42,3301           50117                          INDEX    DECOUNT
001601: 42,3302           34333                          CAF      R1D1                                  #  RXD1
001602: 42,3303           54777                          TS       DSPCOUNT
001603: 42,3304           04662                          TC       BANKCALL                              #  DISPLAY MIN MOD 60 IN D1D2.
001604: 42,3305           61173                          CADR     DSPDC2NR
001605: 42,3306           04701                          TC       POSTJUMP
001606: 42,3307           62570                          CADR     DSPDCEND   +2
001607:
001608: 42,3310           23147        HISECON           OCT      23147                                 #  .6 + 2EXP-14
001609: 42,3311           23346        HIMINCON          OCT      23346                                 #  .6 + 2EXP-7
001610:
001611: 42,3312           77753        M/SCON1           OCT      77753                                 #  - HI PART OF (59M58.5S)
001612: 42,3313           41126        M/SCON2           OCT      41126                                 #  - LO PART OF (59M58.5S)
001613: 42,3314           03256        NORMADR           ADRES    M/SNORM    +1
001614: 42,3315           00025        M/SCON3           OCT      00025                                 #  59M 59.5S
001615: 42,3316           37016                          OCT      37016
001616:
001617: 42,3317           10155        SEPSEC            CCS      MPAC       +1                         #  IF +, ROUND BY ADDING .5 SEC
001618: 42,3320           13327                          TCF      POSEC                                 #  IF -, ROUND BY SUBTRACING .5 SEC
001619: 42,3321           13327                          TCF      POSEC                                 #  FINDS TIME IN MPAC, MPAC+1
001620: 42,3322           13323                          TCF      +1                                    #  ROUNDS OFF BY +/- .5 SEC
001621: 42,3323           00006                          EXTEND                                         #  LEAVES WHOLE MIN IN BIT13 OF
001622: 42,3324           43215                          DCS      RNDCON     -1                         #  LOTEMOUT AND ABOVE.
001623: 42,3325           20155        SEPSEC1           DAS      MPAC                                  #  LEAVES FRACT SEC/60 IN MPAC, MPAC+1.
001624: 42,3326           13332                          TCF      SEPSECNR
001625: 42,3327           00006        POSEC             EXTEND
001626: 42,3330           33215                          DCA      RNDCON     -1
001627: 42,3331           13325                          TCF      SEPSEC1
001628: 42,3332           56002        SEPSECNR          XCH      Q                                     #  THIS ENTRY AVOIDS ROUNDING BY .5 SEC
001629: 42,3333           54144                          TS       SEPSCRET
001630: 42,3334           07052                          TC       DMP                                   #  MULT BY 2EXP12/6000
001631: 42,3335           03202                          ADRES    SECON1                                #  GIVES FRACT SEC/60 IN BIT12 OF MPAC+1
001632: 42,3336           00006                          EXTEND                                         #  AND BELOW.
001633: 42,3337           30155                          DCA      MPAC                                  #  SAVE MINUTES AND HOURS
001634: 42,3340           53010                          DXCH     HITEMOUT
001635:                                                                                                 #  Page 341
001636: 42,3341           04420                          TC       TPSL1
001637: 42,3342           04420                          TC       TPSL1                                 #  GIVES FRACT SEC/60 IN MPAC+1, MPAC+2.
001638: 42,3343           35021                          CAF      ZERO
001639: 42,3344           56156                          XCH      MPAC       +2                         #  LEAVE FRACT SEC/60 IN MPAC, MPAC+1.
001640: 42,3345           56155                          XCH      MPAC       +1
001641: 42,3346           56154                          XCH      MPAC
001642: 42,3347           00144                          TC       SEPSCRET
001643:
001644: 42,3350           56002        SEPMIN            XCH      Q                                     #  FIND WHOLE MINUTES IN BIT13
001645: 42,3351           54144                          TS       SEPMNRET                              #  OF LOTEMOUT AND ABOVE.
001646: 42,3352           31010                          CA       LOTEMOUT                              #  REMOVES REST OF SECONDS.
001647: 42,3353           00006                          EXTEND                                         #  LEAVES FRACT MIN/60 IN MPAC+1.
001648: 42,3354           75015                          MP       BIT3                                  #  LEAVES WHOLE HOURS IN MPAC.
001649: 42,3355           00006                          EXTEND                                         #  SR 12, THROW AWAY LP.
001650: 42,3356           75003                          MP       BIT13                                 #  SR 2, TAKE FROM LP. = SL 12.
001651: 42,3357           22155                          LXCH     MPAC       +1                         #  THIS FORCES BITS 12-1 TO 0 IF +.
001652:                                                                                                 #  FORCES BITS 12-1 TO 1 IF -.
001653: 42,3360           31007                          CA       HITEMOUT
001654: 42,3361           54154                          TS       MPAC
001655: 42,3362           07052                          TC       DMP                                   #  MULT BY 1/15
001656: 42,3363           03210                          ADRES    MINCON1                               #  GIVES FRACT MIN/60 IN MPAC+1.
001657: 42,3364           00144        ENDSPMIN          TC       SEPMNRET                              #  GIVES WHOLE HOURS IN MPAC.
001658:
001659:                                                                                                 #  THIS IS A SPECIAL PURPOS VERB FOR DISPLAYING A DOUBLE PRECISION AGC
001660:                                                                                                 #  WORD AS 10 DECIMAL DIGITS ON THE AGC DISPLAY PANEL.  IT CAN BE USED WITH
001661:                                                                                                 #  ANY NOUN, EXCEPT MIXED NOUNS.  IT DISPLAYS THE CONTENTS
001662:                                                                                                 #  OF THE REGISTER NOUNADD IS POINTING TO.  IF USED WITH NOUNS WHICH ARE
001663:                                                                                                 #  INHERENTLY NOT DP SUCH AS THE CDU COUNTERS THE DISPLAY WILL BE GARBAGE.
001664:                                                                                                 #  DISPLAY IS IN R1 AND R2 ONLY WITH THE SIGN IN R1.
001665:
001666: 40,2677                                          SETLOC   ENDRDLO    +1
001667:
001668: 40,2677                                          COUNT    40/PIN
001669:
001670: 40,2677           50140        DSPDPDEC          INDEX    MIXBR
001671: 40,2700           02700                          TC       +0
001672: 40,2701           02703                          TC       +2                                    #  NORMAL NOUN
001673: 40,2702           03325                          TC       DSPALARM
001674: 40,2703           00006                          EXTEND
001675: 40,2704           50145                          INDEX    NOUNADD
001676: 40,2705           30001                          DCA      0
001677: 40,2706           52155                          DXCH     MPAC
001678: 40,2707           34333                          CAF      R1D1
001679: 40,2710           54777                          TS       DSPCOUNT
001680: 40,2711           35021                          CAF      ZERO
001681: 40,2712           54156                          TS       MPAC       +2
001682: 40,2713           07226                          TC       TPAGREE
001683:                                                                                                 #  Page 342
001684: 40,2714           03200                          TC       DSP2DEC
001685: 40,2715           00136        ENDDPDEC          TC       ENTEXIT
001686:
001687:                                                                                                 #  Page 343
001688:
001689:                                                                                                 #  LOAD VERBS             IF ALARM CONDITION IS DETECTED DURING EXECUTE,
001690:                                                                                                 #  CHECK FAIL LIGHT IS TURNED ON AND ENDOFJOB.  IF ALARM CONDITION IS
001691:                                                                                                 #  DETECTED DURING ENTER OF DATA, CHECK FAIL IS TURNED ON AND IT RECYCLES
001692:                                                                                                 #  TO EXECUTE OF ORIGINAL LOAD VERB.  RECYCLE CAUSED BY           1) DECIMAL MACHINE
001693:                                                                                                 #  CADR           2) MIXTURE OF OCTAL/DECIMAL DATA        3) OCTAL DATA INTO DECIMAL
001694:                                                                                                 #  ONLY NOUN      4) DEC DATA INTO OCT ONLY NOUN          5) DATA TOO LARGE FOR SCALE
001695:                                                                                                 #  6) FEWER THAN 3 DATA WORDS LOADED FOR HRS, MIN, SEC NOUN.8  (2)-(6) ALARM
001696:                                                                                                 #  AND RECYCLE OCCUR AT FINAL ENTER OF SET.       (1) ALARM AND RECYCLE OCCUR AT
001697:                                                                                                 #  ENTER OF CADR.
001698:
001699: 41,2616                                          SETLOC   ENDRTOUT
001700:
001701: 41,2616                                          COUNT    41/PIN
001702:
001703: 41,2616           45016        ABCLOAD           CS       TWO
001704: 41,2617           02424                          TC       COMPTEST
001705: 41,2620           02460                          TC       NOUNTEST                              #  TEST IF NOUN CAN BE LOADED.
001706: 41,2621           33006                          CAF      VBSP1LD
001707: 41,2622           02337                          TC       UPDATVB    -1
001708: 41,2623           02303                          TC       REQDATX
001709: 41,2624           33007                          CAF      VBSP2LD
001710: 41,2625           02337                          TC       UPDATVB    -1
001711: 41,2626           02305                          TC       REQDATY
001712: 41,2627           33010                          CAF      VBSP3LD
001713: 41,2630           02337                          TC       UPDATVB    -1
001714: 41,2631           02307                          TC       REQDATZ
001715:
001716: 41,2632           46211        PUTXYZ            CS       SIX                                   #  TEST THAT THE 3 DATA WORDS LOADED ARE
001717: 41,2633           03011                          TC       ALLDC/OC                              #  ALL DEC OR ALL OCT.
001718: 41,2634           00006                          EXTEND
001719: 41,2635           32114                          DCA      LODNNLOC                              #  SWITCH BANKS TO NOUN TABLE READING
001720: 41,2636           52006                          DXCH     Z                                     #  ROUTINE.
001721: 41,2637           35021                          CAF      ZERO                                  #  X COMP
001722: 41,2640           03075                          TC       PUTCOM
001723: 41,2641           50145                          INDEX    NOUNADD
001724: 41,2642           54000                          TS       0
001725: 41,2643           35017                          CAF      ONE                                   #  Y COMP
001726: 41,2644           03075                          TC       PUTCOM
001727: 41,2645           50145                          INDEX    NOUNADD
001728: 41,2646           54001                          TS       1
001729: 41,2647           35016                          CAF      TWO                                   #  Z COMP
001730: 41,2650           03075                          TC       PUTCOM
001731: 41,2651           50145                          INDEX    NOUNADD
001732: 41,2652           54002                          TS       2
001733: 41,2653           45023                          CS       SEVEN                                 #  IF NOUN 7 HAS JUST BEEN LOADED, SET
001734: 41,2654           61002                          AD       NOUNREG                               #  FLAG BITS AS SPECIFIED.
001735: 41,2655           00006                          EXTEND
001736: 41,2656           12660                          BZF      +2
001737:                                                                                                 #  Page 344
001738: 41,2657           02775                          TC       LOADLV
001739: 41,2660           31003                          CA       XREG                                  #  ECADR OF ERASABLE CELL
001740: 41,2661           04320                          TC       SETNCADR   +1                         #  SET EBANK, NOUNADD
001741: 41,2662           31005                          CA       ZREG                                  #  ZERO TO RESET BITS. NON-ZERO TO SET BITS
001742: 41,2663           00004                          INHINT
001743: 41,2664           00006                          EXTEND
001744: 41,2665           12674                          BZF      BITSOFF
001745: 41,2666           50145                          INDEX    NOUNADD
001746: 41,2667           40000                          CS       0
001747: 41,2670           71004                          MASK     YREG                                  #  BITS TO BE PROCESSED
001748: 41,2671           50145                          INDEX    NOUNADD
001749: 41,2672           26000                          ADS      0                                     #  SET BITS.
001750: 41,2673           02701                          TC       BITSOFF1
001751:
001752: 41,2674           41004        BITSOFF           CS       YREG                                  #  BITS TO BE PROCESSED
001753: 41,2675           50145                          INDEX    NOUNADD
001754: 41,2676           70000                          MASK     0
001755: 41,2677           50145                          INDEX    NOUNADD
001756: 41,2700           54000                          TS       0                                     #  RESET BITS
001757: 41,2701           00003        BITSOFF1          RELINT
001758: 41,2702           02775                          TC       LOADLV
001759:
001760: 41,2703           45017        ABLOAD            CS       ONE
001761: 41,2704           02424                          TC       COMPTEST
001762: 41,2705           02460                          TC       NOUNTEST                              #  TEST IF NOUN CAN BE LOADED
001763: 41,2706           33006                          CAF      VBSP1LD
001764: 41,2707           02337                          TC       UPDATVB    -1
001765: 41,2710           02303                          TC       REQDATX
001766: 41,2711           33007                          CAF      VBSP2LD
001767: 41,2712           02337                          TC       UPDATVB    -1
001768: 41,2713           02305                          TC       REQDATY
001769: 41,2714           45022        PUTXY             CS       FIVE                                  #  TEST THAT THE 2 DATA WORDS LOADED ARE
001770: 41,2715           03011                          TC       ALLDC/OC                              #  ALL DEC OR ALL OCT.
001771: 41,2716           00006                          EXTEND
001772: 41,2717           32114                          DCA      LODNNLOC                              #  SWITCH BANKS TO NOUN TABLE READING
001773: 41,2720           52006                          DXCH     Z                                     #  ROUTINE.
001774: 41,2721           35021                          CAF      ZERO                                  #  X COMP
001775: 41,2722           03075                          TC       PUTCOM
001776: 41,2723           50145                          INDEX    NOUNADD
001777: 41,2724           54000                          TS       0
001778: 41,2725           35017                          CAF      ONE                                   #  Y COMP
001779: 41,2726           03075                          TC       PUTCOM
001780: 41,2727           50145                          INDEX    NOUNADD
001781: 41,2730           54001                          TS       1
001782: 41,2731           02775                          TC       LOADLV
001783:
001784: 41,2732           02303        ALOAD             TC       REQDATX
001785: 41,2733           00006                          EXTEND
001786: 41,2734           32114                          DCA      LODNNLOC                              #  SWITCH BANKS TO NOUN TABLE READING
001787: 41,2735           52006                          DXCH     Z                                     #  ROUTINE.
001788: 41,2736           35021                          CAF      ZERO                                  #  X COMP
001789:                                                                                                 #  Page 345
001790: 41,2737           03075                          TC       PUTCOM
001791: 41,2740           50145                          INDEX    NOUNADD
001792: 41,2741           54000                          TS       0
001793: 41,2742           02775                          TC       LOADLV
001794:
001795: 41,2743           45017        BLOAD             CS       ONE
001796: 41,2744           02424                          TC       COMPTEST
001797: 41,2745           35001                          CAF      BIT15                                 #  SET CLPASS FOR PASS0 ONLY
001798: 41,2746           55015                          TS       CLPASS
001799: 41,2747           02305                          TC       REQDATY
001800: 41,2750           00006                          EXTEND
001801: 41,2751           32114                          DCA      LODNNLOC                              #  SWITCH BANKS TO NOUN TABLE READING
001802: 41,2752           52006                          DXCH     Z                                     #  ROUTINE.
001803: 41,2753           35017                          CAF      ONE
001804: 41,2754           03075                          TC       PUTCOM
001805: 41,2755           50145                          INDEX    NOUNADD
001806: 41,2756           54001                          TS       1
001807: 41,2757           02775                          TC       LOADLV
001808:
001809: 41,2760           45016        CLOAD             CS       TWO
001810: 41,2761           02424                          TC       COMPTEST
001811: 41,2762           35001                          CAF      BIT15                                 #  SET CLPASS FOR PASS0 ONLY
001812: 41,2763           55015                          TS       CLPASS
001813: 41,2764           02307                          TC       REQDATZ
001814: 41,2765           00006                          EXTEND
001815: 41,2766           32114                          DCA      LODNNLOC                              #  SWITCH BANKS TO NOUN TABLE READING
001816: 41,2767           52006                          DXCH     Z                                     #  ROUTINE.
001817: 41,2770           35016                          CAF      TWO
001818: 41,2771           03075                          TC       PUTCOM
001819: 41,2772           50145                          INDEX    NOUNADD
001820: 41,2773           54002                          TS       2
001821: 41,2774           02775                          TC       LOADLV
001822:
001823: 41,2775           35021        LOADLV            CAF      ZERO
001824: 41,2776           55000                          TS       DECBRNCH
001825: 41,2777           45021                          CS       ZERO
001826: 41,3000           55014                          TS       LOADSTAT
001827: 41,3001           04473                          TC       RELDSP                                #  RELEASE FOR PRIORITY DISPLAY PROBLEM.
001828: 41,3002           44374                          CS       VD1                                   #  TO BLOCK NUMERICAL CHARACTERS AND
001829: 41,3003           54777                          TS       DSPCOUNT                              #  CLEARS AFTER A COMPLETED LOAD
001830: 41,3004           04701                          TC       POSTJUMP                              #  AFTER COMPLETED LOAD, GO TO RECALTST
001831: 41,3005           61454                          CADR     RECALTST                              #  TO SEE IF THERE IS RECALL FROM ENDIDLE.
001832:
001833: 41,3006           00025        VBSP1LD           DEC      21         B-14                       #  VB21 = ALOAD
001834: 41,3007           00026        VBSP2LD           DEC      22         B-14                       #  VB22 = BLOAD
001835: 41,3010           00027        VBSP3LD           DEC      23         B-14                       #  VB23 = CLOAD
001836:
001837: 41,3011           54117        ALLDC/OC          TS       DECOUNT                               #  TESTS THAT DATA WORDS LOADED ARE EITHER
001838: 41,3012           41000                          CS       DECBRNCH                              #  ALL DEC OR ALL OCT.  ALARMS IF NOT.
001839:                                                                                                 #  Page 346
001840: 41,3013           54021                          TS       SR
001841: 41,3014           40021                          CS       SR
001842: 41,3015           40021                          CS       SR                                    #  SHIFTED RIGHT 2
001843: 41,3016           10000                          CCS      A                                     #  DEC COMP BITS IN LOW 3
001844: 41,3017           13021                          TCF      +2                                    #  SOME ONES IN LOW 3
001845: 41,3020           00002                          TC       Q                                     #  ALL ZEROS.  ALL OCTAL.  OK
001846: 41,3021           60117                          AD       DECOUNT                               #  DEC COMP = 7 FOR 3COMP, =6 FOR 2COMP
001847: 41,3022           00006                          EXTEND                                         #  (BUT IT HAS BEEN DECREMENTED BY CCS)
001848: 41,3023           13025                          BZF      +2                                    #  MUST MATCH 6 FOR 3COMP, 5 FOR 2COMP.
001849: 41,3024           04161                          TC       ALMCYCLE                              #  ALARM AND RECYCLE.
001850: 41,3025           00002        GOQ               TC       Q                                     #  ALL REQUIRED ARE DEC.  OK
001851:
001852: 41,3026           56002        SFRUTNOR          XCH      Q                                     #  GETS SF ROUTINE NUMBER FOR NORMAL CASE
001853: 41,3027           54114                          TS       EXITEM                                #  CAN'T USE L FOR RETURN.  TSTFORDP USES L.
001854: 41,3030           34363                          CAF      MID5
001855: 41,3031           70147                          MASK     NNTYPTEM
001856: 41,3032           04336                          TC       RIGHT5
001857: 41,3033           00114                          TC       EXITEM                                #  SF ROUTINE NUMBER IN A
001858:
001859: 41,3034           56002        SFRUTMIX          XCH      Q                                     #  GETS SF ROUTINE NUMBER FOR MIXED CASE
001860: 41,3035           54114                          TS       EXITEM
001861: 41,3036           50117                          INDEX    DECOUNT
001862: 41,3037           33066                          CAF      DISPLACE                              #  PUT TC GOQ, TC RIGHT5, OR TC LEFT5 IN L
001863: 41,3040           54001                          TS       L
001864: 41,3041           50117                          INDEX    DECOUNT
001865: 41,3042           34362                          CAF      LOW5                                  #  LOW5, MID5, OR HI5 IN A
001866: 41,3043           70153                          MASK     RUTMXTEM                              #  GET HI5, MID5, OR LOW5 OF RUTMXTAB ENTRY
001867: 41,3044           50001                          INDEX    L
001868: 41,3045           00000                          TC       0
001869:
001870:                                                                                                 #  DO TC GOQ(DECOUNT=0), DO TC RIGHT5(DECOUNT=1), DO TC LEFT5(DECOUNT=2).
001871:
001872: 41,3046           00114        SFRET1            TC       EXITEM                                #  SF ROUTINE NUMBER IN A
001873:
001874: 41,3047           56002        SFCONUM           XCH      Q                                     #  GETS 2X(SF CONSTANT NUMBER)
001875: 41,3050           54114                          TS       EXITEM
001876: 41,3051           50140                          INDEX    MIXBR
001877: 41,3052           03052                          TC       +0
001878: 41,3053           03071                          TC       CONUMNOR                              #  NORMAL NOUN
001879: 41,3054           50117                          INDEX    DECOUNT                               #  MIXED NOUN
001880: 41,3055           33066                          CAF      DISPLACE
001881: 41,3056           54001                          TS       L                                     #  PUT TC GOQ, TC RIGHT5, OR TC LEFT5 IN L
001882: 41,3057           50117                          INDEX    DECOUNT
001883: 41,3060           34362                          CAF      LOW5
001884: 41,3061           70147                          MASK     NNTYPTEM
001885: 41,3062           50001                          INDEX    L
001886: 41,3063           00000                          TC       0
001887:
001888:                                                                                                 #  DO TC GOQ(DECOUNT=0), DO TC RIGHT5(DECOUNT=1), DO TC LEFT5(DECOUNT=2).
001889:
001890: 41,3064           60000        SFRET             DOUBLE                                         #  2X(SF CONSTANT NUMBER) IN A
001891: 41,3065           00114                          TC       EXITEM
001892:
001893:                                                                                                 #  Page 347
001894:
001895: 41,3066           03025        DISPLACE          TC       GOQ
001896: 41,3067           04336                          TC       RIGHT5
001897: 41,3070           04345                          TC       LEFT5
001898:
001899: 41,3071           34362        CONUMNOR          CAF      LOW5                                  #  NORMAL NOUN ALWAYS GETS LOW 5 OF
001900: 41,3072           70147                          MASK     NNTYPTEM                              #  NNTYPTAB FOR SF CONUM.
001901: 41,3073           60000                          DOUBLE
001902: 41,3074           00114                          TC       EXITEM                                #  2X(SF CONSTANT NUMBER) IN A
001903:
001904: 41,3075           54117        PUTCOM            TS       DECOUNT
001905: 41,3076           56002                          XCH      Q
001906: 41,3077           54115                          TS       DECRET
001907: 41,3100           35021                          CAF      ZERO
001908: 41,3101           54162                          TS       MPAC+6
001909: 41,3102           50117                          INDEX    DECOUNT
001910: 41,3103           57006                          XCH      XREGLP
001911: 41,3104           54155                          TS       MPAC       +1
001912: 41,3105           50117                          INDEX    DECOUNT
001913: 41,3106           57003                          XCH      XREG
001914: 41,3107           54154                          TS       MPAC
001915: 41,3110           50140                          INDEX    MIXBR
001916: 41,3111           03111                          TC       +0
001917: 41,3112           03137                          TC       PUTNORM                               #  NORMAL NOUN
001918:
001919:                                                                                                 #  IF MIXNOUN, PLACE ADDRESS FOR COMPONENT K INTO NOUNADD, SET EBANK BITS.
001920:
001921: 41,3113           50117                          INDEX    DECOUNT                               #  GET IDADDTAB ENTRY FOR COMPONENT K
001922: 41,3114           30150                          CA       IDAD1TEM                              #         OF NOUN.
001923: 41,3115           74372                          MASK     LOW11                                 #  (ECADR)SUBK FOR CURRENT COMP OF NOUN
001924: 41,3116           04317                          TC       SETNCADR                              #  ECADR INTO NOUNCADR.  SETS EB, NOUNADD.
001925: 41,3117           00006                          EXTEND                                         #  C(NOUNADD) IN A UPON RETURN
001926: 41,3120           60117                          SU       DECOUNT                               #  PLACE (ESUBK)-K INTO NOUNADD
001927: 41,3121           54145                          TS       NOUNADD
001928: 41,3122           11000                          CCS      DECBRNCH
001929: 41,3123           03174                          TC       PUTDECSF                              #  + DEC
001930: 41,3124           02452                          TC       DCTSTCYC                              #  +0 OCTAL
001931: 41,3125           03034                          TC       SFRUTMIX                              #  TEST IF DEC ONLY BIT = 1.  IF SO,
001932: 41,3126           02261                          TC       DPTEST                                #  ALARM AND RECYCLE.  IF NOT, CONTINUE.
001933: 41,3127           03155                          TC       PUTCOM2                               #  NO DP
001934:                                                                                                 #  TEST FOR DP SCALE FOR OCT LOAD.  IF SO,
001935:                                                                                                 #  +0 INTO MAJOR PART.  SET NOUNADD FOR
001936:                                                                                                 #  LOADING OCTAL WORD INTO MINOR PART.
001937: 41,3130           24145        PUTDPCOM          INCR     NOUNADD                               #  DP (ESUBK)-K+1 OR E+1
001938: 41,3131           30145                          CA       NOUNADD                               #  NOUNADD NOW SET FOR MINOR PART
001939: 41,3132           26117                          ADS      DECOUNT                               #  (ESUBK)+1 OR E+1 INTO DECOUNT
001940: 41,3133           35021                          CAF      ZERO                                  #  NOUNADD SET FOR MINOR PART
001941: 41,3134           50117                          INDEX    DECOUNT
001942: 41,3135           53777                          TS       0          -1                         #  ZERO MAJOR PART(ESUBK OR E)
001943: 41,3136           03155                          TC       PUTCOM2
001944:
001945: 41,3137           04325        PUTNORM           TC       SETNADD                               #  ECADR FROM NOUNCADR.  SETS EB, NOUNADD.
001946:                                                                                                 #  Page 348
001947: 41,3140           11000                          CCS      DECBRNCH
001948: 41,3141           03174                          TC       PUTDECSF                              #  + DEC
001949: 41,3142           02452                          TC       DCTSTCYC                              #  +0 OCTAL
001950: 41,3143           03026                          TC       SFRUTNOR                              #  TEST IF DEC ONLY BIT (garbled).  IF SO,
001951: 41,3144           02261                          TC       DPTEST                                #  ALARM AND RECYCLE.  IF NOT, CONTINUE.
001952: 41,3145           03151                          TC       PUTCOM2    -4                         #  NO DP
001953: 41,3146           35021                          CAF      ZERO                                  #  DP
001954: 41,3147           54117                          TS       DECOUNT
001955: 41,3150           03130                          TC       PUTDPCOM
001956:
001957: 41,3151           30146                          CA       NNADTEM
001958: 41,3152           65017                          AD       ONE                                   #  IF NNADTEM = -1, CHANNEL TO BE SPECIFIED
001959: 41,3153           00006                          EXTEND
001960: 41,3154           13161                          BZF      CHANLOAD
001961: 41,3155           56154        PUTCOM2           XCH      MPAC
001962: 41,3156           00115                          TC       DECRET
001963:
001964: 41,3157     0777                                 EBANK=   DSPCOUNT
001965: 41,3157           02126 64101  GTSFINLC          2CADR    GTSFIN
001966:
001967: 41,3161           45023        CHANLOAD          CS       SEVEN                                 #  DON'T LOAD CHAN 7.  (IT'S SUPERBANK).
001968: 41,3162           61017                          AD       NOUNCADR
001969: 41,3163           00006                          EXTEND
001970: 41,3164           12775                          BZF      LOADLV
001971: 41,3165           31017                          CA       NOUNCADR
001972: 41,3166           75046                          MASK     LOW9
001973: 41,3167           56154                          XCH      MPAC
001974: 41,3170           00006                          EXTEND
001975: 41,3171           50154                          INDEX    MPAC
001976: 41,3172           01000                          WRITE    0
001977: 41,3173           02775                          TC       LOADLV
001978:
001979:                                                                                                 #  PUTDECSF FINDS MIXBR AND DECOUNT STILL SET FROM PUTCOM.
001980:
001981: 41,3174           03047        PUTDECSF          TC       SFCONUM                               #  2X(SF CON NUMB) IN A
001982: 41,3175           54123                          TS       SFTEMP1
001983: 41,3176           00006                          EXTEND                                         #  SWITCH BANKS TO SF CONSTANT TABLE
001984: 41,3177           33160                          DCA      GTSFINLC                              #  READING ROUTINE.
001985: 41,3200           52006                          DXCH     Z                                     #  LOADS SFTEMP1, SFTEMP2.
001986: 41,3201           50140                          INDEX    MIXBR
001987: 41,3202           03202                          TC       +0
001988: 41,3203           03206                          TC       PUTSFNOR
001989: 41,3204           03034                          TC       SFRUTMIX
001990: 41,3205           03207                          TC       PUTDCSF2
001991: 41,3206           03026        PUTSFNOR          TC       SFRUTNOR
001992:
001993: 41,3207           50000        PUTDCSF2          INDEX    A
001994:                                                                                                 #  Page 349
001995: 41,3210           33212                          CAF      SFINTABR
001996: 41,3211           04704                          TC       BANKJUMP                              #  SWITCH BANKS FOR EXPANSION ROOM
001997: 41,3212           62350        SFINTABR          CADR     GOALMCYC                              #  ALARM AND RECYCLE IF DEC LOAD
001998:                                                                                                 #  WITH OCTAL ONLY NOUN.
001999: 41,3213           60776                          CADR     BINROUND
002000: 41,3214           60716                          CADR     DEGINSF
002001: 41,3215           60766                          CADR     ARTHINSF
002002: 41,3216           61021                          CADR     DPINSF
002003: 41,3217           61046                          CADR     DPINSF2
002004: 41,3220           61004                          CADR     OPTDEGIN
002005: 41,3221           61021                          CADR     DPINSF                                #  SAME AS ARITHDP1
002006: 41,3222           65365                          CADR     HMSIN
002007: 41,3223           61325                          CADR     DSPALARM                              #  MIN/SEC CAN'T BE LOADED.
002008: 41,3224           61053                          CADR     DPINSF4
002009: 41,3225           61001                          CADR     ARTIN1SF
002010: 41,3226           61325                          CADR     DSPALARM                              #  2INTOUT CAN'T BE LOADED.
002011: 41,3227           61032                          CADR     DPFRACIN
002012: 41,3230                        ENDRUTIN          EQUALS
002013:
002014:                                                                                                 #  SCALE FACTORS FOR THOSE ROUTINES NEEDING THEM ARE AVAILABLE IN SFTEMP1.
002015:                                                                                                 #  ALL SFIN ROUTINES USE MPAC MPAC+1.  LEAVE RESULT IN A.  END WITH TC DECRET.
002016:
002017: 40,2716                                          SETLOC   ENDDPDEC   +1
002018:
002019: 40,2716                                          COUNT    40/PIN
002020:
002021:                                                                                                 #  DEGINSF APPLIES 1000/180 * 5.55555(10) = 5.43434(8)
002022:
002023: 40,2716           07052        DEGINSF           TC       DMP                                   #  SF ROUTINE FOR DEC DEGREES
002024: 40,2717           02761                          ADRES    DEGCON1                               #  MULT BY 5.5 5(10)X2EXP-3
002025: 40,2720           10155                          CCS      MPAC       +1                         #  THIS ROUNDS OFF MPAC+1 BEFORE SHIFT
002026: 40,2721           35005                          CAF      BIT11                                 #  LEFT 3, AND CAUSES 360.00 TO OF/UF
002027: 40,2722           02724                          TC       +2                                    #  WHEN SHIFTED LEFT AND ALARM.
002028: 40,2723           45005                          CS       BIT11
002029: 40,2724           60155                          AD       MPAC       +1
002030: 40,2725           03072                          TC       2ROUND     +2
002031: 40,2726           04420                          TC       TPSL1                                 #  LEFT 1
002032: 40,2727           04420        DEGINSF2          TC       TPSL1                                 #  LEFT 2
002033: 40,2730           03101                          TC       TESTOFUF
002034: 40,2731           04420                          TC       TPSL1                                 #  RETURNS IF NO OF/UF (LEFT3)
002035: 40,2732           10154                          CCS      MPAC
002036: 40,2733           02737                          TC       SIGNFIX                               #  IF +, GO TO SIGNFIX
002037: 40,2734           02737                          TC       SIGNFIX                               #  IF +0, GO TO SIGNFIX
002038: 40,2735           40000                          COM                                            #  IF -, USE -MAGNITUDE +1
002039: 40,2736           54154                          TS       MPAC                                  #  IF -0, USE +0
002040: 40,2737           10162        SIGNFIX           CCS      MPAC+6
002041: 40,2740           02755                          TC       SGNTO1                                #  IF OVERFLOW
002042: 40,2741           02751                          TC       ENDSCALE                              #  NO OVERFLOW/UNDERFLOW
002043:                                                                                                 #  Page 350
002044: 40,2742           10154                          CCS      MPAC                                  #  IF UF FORCE SIGN TO 0 EXCEPT -180
002045: 40,2743           05747                          TC       CCSHOLE
002046: 40,2744           02753                          TC       NEG180
002047: 40,2745           02746                          TC       +1
002048: 40,2746           56154                          XCH      MPAC
002049: 40,2747           74777                          MASK     POSMAX
002050: 40,2750           54154                          TS       MPAC
002051: 40,2751           04701        ENDSCALE          TC       POSTJUMP
002052: 40,2752           63155                          CADR     PUTCOM2
002053:
002054: 40,2753           44777        NEG180            CS       POSMAX
002055: 40,2754           02750                          TC       ENDSCALE   -1
002056:
002057: 40,2755           40154        SGNTO1            CS       MPAC                                  #  IF OF FORCE SIGN TO 1
002058: 40,2756           74777                          MASK     POSMAX
002059: 40,2757           40000                          CS       A
002060: 40,2760           02750                          TC       ENDSCALE   -1
002061:
002062: 40,2761           26161 30707  DEGCON1           2DEC     5.555555555 B-3
002063:
002064: 40,2763           21616 07071  DEGCON2           2DEC     2.222222222 B-2
002065:
002066: 40,2765           71527        NEG.2             OCT      -06250                                #  = .197753906   I.E., THE BIAS SCALED
002067:
002068: 40,2766           07052        ARTHINSF          TC       DMP                                   #  SCALES MPAC, +1 BY SFTEMP1, SFTEMP2.
002069: 40,2767           00123                          ADRES    SFTEMP1                               #  ASSUMES POINT BETWEEN HI AND LO PARTS
002070: 40,2770           56156                          XCH      MPAC       +2                         #  OF SFCON.  SHIFTS RESULTS LEFT BY 14.
002071: 40,2771           56155                          XCH      MPAC       +1                         #  (BY TAKING RESULTS FROM MPAC+1, MPAC+2)
002072: 40,2772           56154                          XCH      MPAC
002073: 40,2773           00006                          EXTEND
002074: 40,2774           12776                          BZF      BINROUND
002075: 40,2775           04161                          TC       ALMCYCLE                              #  TOO LARGE A LOAD.  ALARM AND RECYCLE.
002076: 40,2776           03070        BINROUND          TC       2ROUND
002077: 40,2777           03101                          TC       TESTOFUF
002078: 40,3000           02751                          TC       ENDSCALE                              #  RETURNS IF NO OF/UF
002079:
002080: 40,3001           07052        ARTIN1SF          TC       DMP                                   #  SCALES MPAC, +1 BY SFTEMP1, SFTEMP2.
002081: 40,3002           00123                          ADRES    SFTEMP1                               #  ROUNDS MPAC+1 INTO MPAC.
002082: 40,3003           02776                          TC       BINROUND
002083:
002084: 40,3004           10154        OPTDEGIN          CCS      MPAC                                  #  OPTICS SCALING ROUTINE
002085: 40,3005           03011                          TC       +4
002086: 40,3006           03011                          TC       +3
002087: 40,3007           04161                          TC       ALMCYCLE                              #  REJECT -- INPUT.  ALARM AND RECYCLE.
002088: 40,3010           04161                          TC       ALMCYCLE                              #  REJECT -- INPUT.  ALARM AND RECYCLE.
002089: 40,3011           32765        OPDEGIN2          CAF      NEG.2                                 #  RANGE IS 90 DEG
002090: 40,3012           26154                          ADS      MPAC                                  #  SUBTRACT BIAS
002091:                                                                                                 #  Page 351
002092: 40,3013           07052                          TC       DMP                                   #  MULT BY 100 / 45 B-2
002093: 40,3014           02763                          ADRES    DEGCON2
002094: 40,3015           35004                          CAF      BIT12                                 #  ROUND AS IN DEGINSF
002095: 40,3016           60155                          AD       MPAC       +1
002096: 40,3017           03072                          TC       2ROUND     +2
002097: 40,3020           02727                          TC       DEGINSF2
002098:
002099: 40,3021           07052        DPINSF            TC       DMP                                   #  SCALES MPAC, MPAC +1 BY SFTEMP1,
002100: 40,3022           00123                          ADRES    SFTEMP1                               #  SFTEMP.  STORES LOW PART OF RESULT
002101: 40,3023           56156                          XCH      MPAC       +2                         #  IN (E SUBK) +1 OR E+1
002102: 40,3024           60000                          DOUBLE
002103: 40,3025           54156                          TS       MPAC       +2
002104: 40,3026           35021                          CAF      ZERO
002105: 40,3027           60155                          AD       MPAC       +1
002106: 40,3030           03072                          TC       2ROUND     +2
002107: 40,3031           03101                          TC       TESTOFUF
002108: 40,3032           50140        DPFRACIN          INDEX    MIXBR                                 #  RETURNS IF NO OF/UF
002109: 40,3033           03033                          TC       +0
002110: 40,3034           03044                          TC       DPINORM
002111: 40,3035           30117                          CA       DECOUNT                               #  MIXED NOUN
002112: 40,3036           60145        DPINCOM           AD       NOUNADD                               #         MIXED           NORMAL
002113: 40,3037           54002                          TS       Q                                     #         E SUBK          E
002114: 40,3040           56155                          XCH      MPAC       +1
002115: 40,3041           50002                          INDEX    Q
002116: 40,3042           54001                          TS       1                                     #  PLACE LOW PART IN
002117: 40,3043           02751                          TC       ENDSCALE                              #         (E SUBK) +1     MIXED
002118:
002119: 40,3044           35021        DPINORM           CAF      ZERO                                  #         E +1            NORMAL
002120: 40,3045           03036                          TC       DPINCOM
002121:
002122: 40,3046           07052        DPINSF2           TC       DMP                                   #  ASSUMES POINT BETWEEN BITS 7-8 OF HIGH
002123: 40,3047           00123                          ADRES    SFTEMP1                               #  PART OF SF CONST.  DPINSF2 SHIFTS RESULTS
002124: 40,3050           36211                          CAF      SIX                                   #  LEFT BY 7, ROUNDS MPAC+2 INTO MPAC+1
002125: 40,3051           03060                          TC       TPLEFTN                               #  SHIFT LEFT 7.
002126: 40,3052           03023                          TC       DPINSF     +2
002127:
002128: 40,3053           07052        DPINSF4           TC       DMP                                   #  ASSUMES POINT BETWEEN BITS 11-12 OF HIGH
002129: 40,3054           00123                          ADRES    SFTEMP1                               #  PART OF SF CONST.  DPINSF2 SHIFTS RESULTS
002130: 40,3055           35016                          CAF      TWO                                   #  LEFT BY 3, ROUNDS MPAC+2 INTO MPAC+1.
002131: 40,3056           03060                          TC       TPLEFTN                               #  SHIFT LEFT 3.
002132: 40,3057           03023                          TC       DPINSF     +2
002133:
002134: 40,3060           56002        TPLEFTN           XCH      Q                                     #  SHIFTS MPAC, +1, +2 LEFT N.  SETS OVFIND
002135: 40,3061           54124                          TS       SFTEMP2                               #  TO +1 FOR OF, -1 FOR UF.
002136: 40,3062           56002                          XCH      Q                                     #  CALL WITH N-1 IN A.
002137: 40,3063           54123        LEFTNCOM          TS       SFTEMP1                               #         LOOP TIME .37 MSEC.
002138: 40,3064           04420                          TC       TPSL1
002139: 40,3065           10123                          CCS      SFTEMP1
002140:                                                                                                 #  Page 352
002141: 40,3066           03063                          TC       LEFTNCOM
002142: 40,3067           00124                          TC       SFTEMP2
002143:
002144: 40,3070           56155        2ROUND            XCH      MPAC       +1
002145: 40,3071           60000                          DOUBLE
002146: 40,3072           54155                          TS       MPAC       +1
002147: 40,3073           00002                          TC       Q                                     #  IF MPAC+1 DOES NOT OF/UF
002148: 40,3074           60154                          AD       MPAC
002149: 40,3075           54154                          TS       MPAC
002150: 40,3076           00002                          TC       Q                                     #  IF MPAC DOES NOT OF/UF
002151: 40,3077           54162                          TS       MPAC+6
002152: 40,3100           00002        2RNDEND           TC       Q
002153:
002154: 40,3101           10162        TESTOFUF          CCS      MPAC+6                                #  RETURNS IF NO OF/UF
002155: 40,3102           04161                          TC       ALMCYCLE                              #  OF     ALARM AND RECYCLE.
002156: 40,3103           00002                          TC       Q
002157: 40,3104           04161                          TC       ALMCYCLE                              #  UF     ALARM AND RECYCLE.
002158:
002159: 42,3365                                          SETLOC   ENDSPMIN   +1
002160:
002161: 42,3365                                          COUNT    42/PIN
002162:
002163: 42,3365           03506        HMSIN             TC       ALL3DEC                               #  IF ALL 3 WORDS WERE NOT LOADED, ALARM.
002164: 42,3366           07052                          TC       DMP                                   #  XREG, XREGLP (=HOURS) WERE ALREADY PUT
002165: 42,3367           03447                          ADRES    WHOLECON                              #  INTO MPAC, MPAC+1.
002166: 42,3370           03456                          TC       RND/TST                               #  ROUND OFF TO WHOLE HRS IN MPAC+1.
002167: 42,3371           35021                          CAF      ZERO                                  #  ALARM IF MPAC NON ZERO (G/ 16383).
002168: 42,3372           54156                          TS       MPAC       +2
002169: 42,3373           33451                          CAF      HRCON
002170: 42,3374           54154                          TS       MPAC
002171: 42,3375           33452                          CAF      HRCON      +1
002172: 42,3376           56155                          XCH      MPAC       +1
002173: 42,3377           07256                          TC       SHORTMP
002174: 42,3400           03467                          TC       MPACTST                               #  ALARM IF MPAC NON ZERO (G/ 745)
002175: 42,3401           52156                          DXCH     MPAC       +1                         #  STORE HOURS CONTRIBUTION
002176: 42,3402           52124                          DXCH     HITEMIN
002177: 42,3403           31004                          CA       YREG                                  #  PUT YREG, YREGLP INTO MPAC, +1.
002178: 42,3404           23007                          LXCH     YREGLP
002179: 42,3405           52155                          DXCH     MPAC
002180: 42,3406           07052                          TC       DMP
002181: 42,3407           03447                          ADRES    WHOLECON
002182: 42,3410           03456                          TC       RND/TST                               #  ROUND OFF TO WHOLE MIN IN MPAC+1
002183: 42,3411           43454                          CS       59MIN                                 #  ALARM IF MPAC NON ZERO (G/16383)
002184: 42,3412           03474                          TC       SIZETST                               #  ALARM IF MPAC+1 G/ 59MIN
002185: 42,3413           56155                          XCH      MPAC       +1
002186: 42,3414           00006                          EXTEND
002187: 42,3415           73453                          MP       MINCON                                #  LEAVES MINUTES CONTRIBUTION IN A,L
002188:                                                                                                 #  Page 353
002189: 42,3416           20124                          DAS      HITEMIN                               #  ADD IN MINUTES CONTRIBUTION
002190: 42,3417           00006                          EXTEND                                         #  IF THIS DAS OVEFLOWS, G/ 745 HR, 39MIN
002191: 42,3420           13422                          BZF      +2
002192: 42,3421           04161                          TC       ALMCYCLE
002193: 42,3422           31005                          CA       ZREG                                  #  PUT ZREG, ZREGLP INTO MPAC +1.
002194: 42,3423           23010                          LXCH     ZREGLP
002195: 42,3424           52155                          DXCH     MPAC
002196: 42,3425           07052                          TC       DMP
002197: 42,3426           03447                          ADRES    WHOLECON
002198: 42,3427           03456                          TC       RND/TST                               #  ROUND OFF TO WHOLE CENTI-SEC IN MPAC+1
002199: 42,3430           43455                          CS       59.99SEC                              #  ALARM IF MPAC NON ZERO (G/163.83 SEC)
002200: 42,3431           03474                          TC       SIZETST                               #  ALARM IF MPAC+1 G/59.99 SEC
002201: 42,3432           52124                          DXCH     HITEMIN                               #  ADD IN SECONDS CONTRIBUTION
002202: 42,3433           20155                          DAS      MPAC                                  #  IF THIS DAS OVERFLOWS,
002203: 42,3434           00006                          EXTEND                                         #  G/ 745 HR, 39 MIN, 14.59 SEC.
002204: 42,3435           13437                          BZF      +2
002205: 42,3436           04161                          TC       ALMCYCLE                              #  ALARM AND RECYCLE
002206: 42,3437           35021                          CAF      ZERO
002207: 42,3440           54156                          TS       MPAC       +2
002208: 42,3441           07226                          TC       TPAGREE
002209: 42,3442           52155                          DXCH     MPAC
002210: 42,3443           50145                          INDEX    NOUNADD
002211: 42,3444           52001                          DXCH     0
002212: 42,3445           04701                          TC       POSTJUMP
002213: 42,3446           62775                          CADR     LOADLV
002214:
002215: 42,3447           00006        WHOLECON          OCT      00006                                 #  (10EXP5/2EXP14)2EXP14
002216: 42,3450           03240                          OCT      03240
002217: 42,3451           00025        HRCON             OCT      00025                                 #  1 HOUR IN CENTI-SEC
002218: 42,3452           37100                          OCT      37100
002219: 42,3453           13560        MINCON            OCT      13560                                 #  1 MINUTE IN CENTI-SEC
002220: 42,3454           00073        59MIN             OCT      00073                                 #  59 AS WHOLE
002221: 42,3455           13557        59.99SEC          OCT      13557                                 #  5999 SENTI-SEC
002222:
002223: 42,3456           56156        RND/TST           XCH      MPAC       +2                         #  ROUNDS MPAC+2 INTO MPAC+1.
002224: 42,3457           60000                          DOUBLE                                         #  ALARMS IF MPAC NOT 0
002225: 42,3460           54156                          TS       MPAC       +2
002226: 42,3461           35021                          CAF      ZERO
002227: 42,3462           60155                          AD       MPAC       +1
002228: 42,3463           54155                          TS       MPAC       +1
002229: 42,3464           35021                          CAF      ZERO
002230: 42,3465           60154                          AD       MPAC                                  #  CAN'T OVFLOW
002231: 42,3466           56154                          XCH      MPAC
002232: 42,3467           10154        MPACTST           CCS      MPAC                                  #  ALARM IF MPAC NON ZERO
002233: 42,3470           04161                          TC       ALMCYCLE                              #  ALARM AND RECYCLE
002234: 42,3471           00002                          TC       Q
002235: 42,3472           04161                          TC       ALMCYCLE                              #  ALARM AND RECYCLE
002236: 42,3473           00002                          TC       Q
002237:
002238:                                                                                                 #  Page 354
002239:
002240: 42,3474           54156        SIZETST           TS       MPAC       +2                         #  CALLED WITH - CON IN A
002241: 42,3475           10155                          CCS      MPAC       +1                         #  GET MAG OF MPAC+1
002242: 42,3476           65017                          AD       ONE
002243: 42,3477           13501                          TCF      +2
002244: 42,3500           65017                          AD       ONE
002245: 42,3501           60156                          AD       MPAC       +2
002246: 42,3502           00006                          EXTEND                                         #  MAG OF MPAC+1 - CON
002247: 42,3503           63505                          BZMF     +2
002248: 42,3504           04161                          TC       ALMCYCLE                              #  MAG OF MPAC+1 G/ CON.  ALARM AND RECYCLE.
002249: 42,3505           00002                          TC       Q                                     #  MAG OF MPAC+1 L/= CON
002250:
002251:                                                                                                 #  ALL3DEC TESTS THAT ALL 3 WORDS ARE LOADED IN DEC (FOR HMSIN).
002252:                                                                                                 #  ALARM IF NOT.  (TEST THAT BITS 3,4,5 OF DECBRNCH ARE ALL = 1).
002253:
002254: 42,3506           43513        ALL3DEC           CS       OCT34BAR                              #  GET BITS 3,4,5 IN A
002255: 42,3507           71000                          MASK     DECBRNCH                              #  GET BITS 3,4,5 OF DECBRNCH IN A
002256: 42,3510           63513                          AD       OCT34BAR                              #  BITS 3,4,5 OF DECBRNCH MUST ALL = 1
002257: 42,3511           10000                          CCS      A
002258: 42,3512           03516                          TC       FORCEV25
002259: 42,3513           77743        OCT34BAR          OCT      77743
002260: 42,3514           03516                          TC       FORCEV25
002261: 42,3515           00002                          TC       Q
002262:
002263: 42,3516           44113        FORCEV25          CS       OCT31                                 #  FORCE VERB 25 TO BE EXECUTED BY RECYCLE
002264: 42,3517           55041                          TS       VERBSAVE                              #  IN CASE OPERATOR EXECUTED A LOWER LOAD
002265: 42,3520           04161                          TC       ALMCYCLE                              #  VERB.  ALARM AND RECYCLE.
002266: 42,3521                        ENDHMSS           EQUALS
002267:
002268:                                                                                                 #  Page 355
002269:                                                                                                 #  MONITOR ALLOWS OTHER KEYBOARD ACTIVITY.  IT IS ENDED BY VERB TERMINATE,
002270:                                                                                                 #  VERB PROCEED WITHOUT DATA, VERB RESEQUENCE,
002271:                                                                                                 #  ANOTHER MONITOR, OR ANY NVSUB CALL THAT PASSES THE DSPLOCK (PROVIDED
002272:                                                                                                 #  THAT THE OPERATOR HAS SOMEHOW ALLOWED THE ENDING OF A MONITOR WHICH
002273:                                                                                                 #  HE HAS INITIATED THROUGH THE KEYBOARD).
002274:
002275:                                                                                                 #  MONITOR ACTION IS SUSPENDED, BUT NOT ENDED, BY ANY KEYBOARD ACTION.
002276:                                                                                                 #  EXCEPT ERROR LIGHT RESET.  IT BEGINS AGAIN WHEN KEY RELEASE IS PERFORMED.
002277:                                                                                                 #  MONITOR SAVES THE NOUN AND APPROPRIATE DISPLAY VERB IN MONSAVE.  IT SAVES
002278:                                                                                                 #  NOUNCADR IN MONSAVE1, IF NOUN = MACHINE CADR TO BE SPECIFIED.  BIT 15 OF
002279:                                                                                                 #  MONSAVE1 IS THE KILL MONITOR SIGNAL (KILLER BIT).  BIT 14 OF MONSAVE1
002280:                                                                                                 #  INDICATES THE CURRENT MONITOR WAS EXTERNALLY INITIATED (EXTERNAL
002281:                                                                                                 #  MONITOR BIT).  IT IS TURNED OFF BY RELDSP AND KILMONON.
002282:
002283:                                                                                                 #  MONSAVE INDICATES IF MONITOR IS ON (+=ON, +0=OFF)
002284:                                                                                                 #  IF MONSAVE IS +, MONITOR ENTERS NO REQUEST, BUT TURNS KILLER BIT OFF.
002285:                                                                                                 #  IF MONSAVE IS +0, MONITOR ENTERS REQUEST AND TURNS KILLER BIT OFF.
002286:
002287:                                                                                                 #  NVSUB (IF EXTERNAL MONITOR BIT IS OFF), VB=PROCEED WITHOUT DATA,
002288:                                                                                                 #  VB=RESEQUENCE, AND VB=TERMINATE TURN KILL MONITOR BIT ON.
002289:
002290:                                                                                                 #  IF KILLER BIT IS ON, MONREQ ENTERS NO FURTHER REQUESTS, ZEROS MONSAVE
002291:                                                                                                 #  AND MONSAVE1 (TURNING OFF KILLER BIT AND EXTERNAL MONITOR BIT).
002292:
002293:                                                                                                 #  MONITOR DOESN'T TEST FOR MATBS SINCE NVSUB CAN HANDLE INTERNAL MATBS NOW.
002294:
002295: 41,3230                                          SETLOC   ENDRUTIN
002296:
002297: 41,3230                                          COUNT    41/PIN
002298:
002299: 41,3230           43237        MONITOR           CS       BIT15/14
002300: 41,3231           71017                          MASK     NOUNCADR
002301: 41,3232           54155        MONIT1            TS       MPAC       +1                         #  TEMP STORAGE
002302: 41,3233           40136                          CS       ENTEXIT
002303: 41,3234           64233                          AD       ENDINST
002304: 41,3235           10000                          CCS      A
002305: 41,3236           03245                          TC       MONIT2
002306: 41,3237           60000        BIT15/14          OCT      60000
002307: 41,3240           03245                          TC       MONIT2
002308: 41,3241           35002                          CAF      BIT14                                 #  EXTERNALLY INITIATED MONITOR.
002309: 41,3242           26155                          ADS      MPAC       +1                         #  SET BIT 14 FOR MONSAVE1.
002310: 41,3243           35021                          CAF      ZERO
002311: 41,3244           55022                          TS       MONSAVE2                              #  ZERO NVMONOPT OPTIONS
002312: 41,3245           36043        MONIT2            CAF      LOW7
002313: 41,3246           71001                          MASK     VERBREG
002314: 41,3247           04345                          TC       LEFT5
002315: 41,3250           54022                          TS       CYL
002316: 41,3251           40022                          CS       CYL
002317: 41,3252           56022                          XCH      CYL
002318: 41,3253           61002                          AD       NOUNREG
002319: 41,3254           54154                          TS       MPAC                                  #  TEMP STORAGE
002320:                                                                                                 #  Page 356
002321: 41,3255           35021                          CAF      ZERO
002322: 41,3256           55012                          TS       DSPLOCK                               #  +0 INTO DSPLOCK SO MONITOR CAN RUN.
002323: 41,3257           11042                          CCS      CADRSTOR                              #  TURN OFF KR LITE IF CADRSTOR AND DSPLIST
002324: 41,3260           03262                          TC       +2                                    #  ARE BOTH EMPTY.  (LITE COMES ON IF NEW
002325: 41,3261           04516                          TC       RELDSP1                               #  MONITOR IS KEYED IN OVER OLD MONITOR.)
002326: 41,3262           00004                          INHINT
002327: 41,3263           11020                          CCS      MONSAVE
002328: 41,3264           03271                          TC       +5                                    #  IF MONSAVE WAS +, NO REQUEST
002329: 41,3265           35017                          CAF      ONE                                   #  IF MONSAVE WAS 0, REQUEST MONREQ
002330: 41,3266           05245                          TC       WAITLIST
002331: 41,3267     0777                                 EBANK=   DSPCOUNT
002332: 41,3267           03275 62101                    2CADR    MONREQ
002333:
002334: 41,3271           52155                          DXCH     MPAC                                  #  PLACE MONITOR VERB AND NOUN INTO MONSAVE
002335: 41,3272           53021                          DXCH     MONSAVE                               #  ZERO THE KILL MONITOR BIT
002336: 41,3273           00003                          RELINT                                         #  SET UP EXTERNAL MONITOR BIT
002337: 41,3274           00136                          TC       ENTRET
002338:
002339: 41,3275           04414        MONREQ            TC       LODSAMPT                              #  CALLED BY WAITLIST
002340: 41,3276           11021                          CCS      MONSAVE1                              #  TIME IS SNATCHED N RUPT FOR NOUN 65
002341: 41,3277           03303                          TC       +4                                    #  IF KILLER BIT = 0, ENTER REQUESTS
002342: 41,3300           03303                          TC       +3                                    #  IF KILLER BIT = 0, ENTER REQUESTS
002343: 41,3301           03314                          TC       KILLMON                               #  IF KILLER BIT = 1, NO REQUESTS.
002344: 41,3302           03314                          TC       KILLMON                               #  IF KILLER BIT = 1, NO REQUESTS.
002345: 41,3303           33320                          CAF      MONDEL
002346: 41,3304           05245                          TC       WAITLIST                              #  ENTER WAITLIST REQUEST FOR MONREQ
002347: 41,3305     0777                                 EBANK=   DSPCOUNT
002348: 41,3305           03275 62101                    2CADR    MONREQ
002349:
002350: 41,3307           34371                          CAF      CHRPRIO
002351: 41,3310           05134                          TC       NOVAC                                 #  ENTER EXEC REQUEST FOR MONDO
002352: 41,3311     0777                                 EBANK=   DSPCOUNT
002353: 41,3311           03321 62101                    2CADR    MONDO
002354:
002355: 41,3313           05324                          TC       TASKOVER
002356:
002357: 41,3314           35021        KILLMON           CAF      ZERO                                  #  ZERO MONSAVE AND TURN KILLER BIT OFF
002358: 41,3315           55020                          TS       MONSAVE
002359: 41,3316           55021                          TS       MONSAVE1                              #  TURN OFF KILL MONITOR BIT.
002360: 41,3317           05324                          TC       TASKOVER                              #  TURN OFF EXTERNAL MONITOR BIT.
002361: 41,3320           00144        MONDEL            OCT      144                                   #  FOR 1 SEC MONITOR INTERVALS.
002362:
002363: 41,3321           11021        MONDO             CCS      MONSAVE1                              #  CALLED BY EXEC
002364: 41,3322           03326                          TC       +4                                    #  IF KILLER BIT = 0, CONTINUE
002365: 41,3323           03326                          TC       +3                                    #  IF KILLER BIT = 0, CONTINUE
002366: 41,3324           05217                          TC       ENDOFJOB                              #  IN CASE TERMINATE CAME SINCE LAST MONREQ
002367: 41,3325           05217                          TC       ENDOFJOB                              #  IN CASE TERMINATE CAME SINCE LAST MONREQ
002368: 41,3326           11012                          CCS      DSPLOCK
002369:                                                                                                 #  Page 357
002370: 41,3327           03351                          TC       MONBUSY                               #  NVSUB IS BUSY
002371: 41,3330           36043                          CAF      LOW7
002372: 41,3331           71020                          MASK     MONSAVE
002373: 41,3332           02317                          TC       UPDATNN    -1                         #  PLACE NOUN INTO NOUNREG AND DISPLAY IT
002374: 41,3333           34160                          CAF      MID7
002375: 41,3334           71020                          MASK     MONSAVE                               #  CHANGE MONITOR VERB TO DISPLAY VERB
002376: 41,3335           63347                          AD       MONREF                                #  -DEC10, STARTING IN BIT8
002377: 41,3336           54023                          TS       EDOP                                  #  RIGHT 7
002378: 41,3337           30023                          CA       EDOP
002379: 41,3340           55001                          TS       VERBREG
002380: 41,3341           33350                          CAF      MONBACK                               #  SET RETURN TO PASTEVB AFTER DATA DISPLAY
002381: 41,3342           54136                          TS       ENTRET
002382: 41,3343           43237                          CS       BIT15/14
002383: 41,3344           71021                          MASK     MONSAVE1                              #  PUT ECADR INTO MPAC +2.  INTMCTBS WILL
002384: 41,3345           54156                          TS       MPAC       +2                         #  DISPLAY IT AND SET NOUNCADR, NOUNADD,
002385: 41,3346           02046        ENDMONDO          TC       TESTNN                                #  EBANK.
002386:
002387:    4140                                          BLOCK    2
002388:
002389:    4000                                          SETLOC   FFTAG8
002390:    4000                                          BANK
002391:
002392:    4140                                          COUNT    02/PIN
002393:
002394:    4140           34160        PASTEVB           CAF      MID7
002395:    4141           71022                          MASK     MONSAVE2                              #  NVMONOPT PASTE OPTION
002396:    4142           00006                          EXTEND
002397:    4143           14145                          BZF      +2
002398:    4144           04146                          TC       PASTEOPT                              #  PASTE PLEASE VERB FOR NVMONOPT
002399:    4145           31020                          CA       MONSAVE                               #  PASTE MONITOR VERB --  PASTE OPTION IS 0
002400:    4146           54023        PASTEOPT          TS       EDOP                                  #  RIGHT 7
002401:    4147           30023                          CA       EDOP                                  #  PLACE MONITOR VERB OR PLEASE VERB INTO
002402:    4150           04662                          TC       BANKCALL                              #         VERBREG AND DISPLAY IT.
002403:    4151           62337                          CADR     UPDATVB    -1
002404:    4152           35021                          CAF      ZERO                                  #  ZERO REQRET SO THAT PASTED VERBS CAN
002405:    4153           55013                          TS       REQRET                                #         BE EXECUTED BY OPERATOR.
002406:    4154           31022                          CA       MONSAVE2
002407:    4155           04271                          TC       BLANKSUB                              #  PROCESS NVMONOPT BLANK OPTION IF ANY
002408:    4156           04157                          TC       +1
002409:    4157           05217        ENDPASTE          TC       ENDOFJOB
002410:
002411:    4160           37600        MID7              OCT      37600
002412:
002413: 41,3347                                          SETLOC   ENDMONDO   +1
002414: 41,3347                                          COUNT    41/PIN
002415:
002416: 41,3347           75377        MONREF            OCT      75377                                 #  -DEC10, STARTING IN BIT8
002417: 41,3350           04140        MONBACK           ADRES    PASTEVB
002418:
002419:                                                                                                 #  Page 358
002420: 41,3351           04410        MONBUSY           TC       RELDSPON                              #  TURN KEY RELEASE LIGHT
002421: 41,3352           05217                          TC       ENDOFJOB
002422:
002423:                                                                                                 #  DSPFMEM IS USED TO DISPLAY (IN OCTAL) ANY FIXED REGISTER.
002424:                                                                                                 #  IT IS USED WITH NOUN = MACHINE CADR TO BE SPECIFIED.  THE FCADR OF THE
002425:                                                                                                 #  DESIRED LOCATION IS THEN PUNCHED IN.  IT HANDLES F/F (FCADR 4000-7777)
002426:                                                                                                 #
002427:                                                                                                 #  FOR BANKS L/E 27, THIS IS ENOUGH.
002428:
002429:                                                                                                 #  FOR BANKS G/E 30, THE THIRD COMPONENT OF NOUN 26 (PRIO, ADRES, BBCON)
002430:                                                                                                 #  MUST BE PRELOADED WITH THE DESIRED SUPERBANK BITS (BITS 5,6,7).
002431:                                                                                                 #         V23N26 SHOULD BE USED.
002432:
002433:                                                                                                 #  SUMMARY
002434:                                                                                                 #  FOR BANKS L/E 27,                              V27N01E(FCADR)E
002435:                                                                                                 #  FOR BANKS G/E 30,      V23N26E(SUPERBITS)E     V27N01E(FCADR)E
002436:
002437: 41,3353           34333        DSPFMEM           CAF      R1D1                                  #  IF F/F, DATACALL USES BANK 02 OR 03.
002438: 41,3354           54777                          TS       DSPCOUNT
002439: 41,3355           31047                          CA       DSPTEM1    +2                         #  SUPERBANK BITS WERE PRELOADED INTO
002440: 41,3356           54001                          TS       L                                     #  3RD COMPONENT OF NOUN 26.
002441: 41,3357           31017                          CA       NOUNCADR                              #  ORIGINAL FCADR LOADED STILL IN NOUNCADR.
002442: 41,3360           04715                          TC       SUPDACAL                              #  CALL WITH FCADR IN A, SUPERBITS IN L.
002443: 41,3361           03363                          TC       DSPOCTWO
002444: 41,3362           05217        ENDSPF            TC       ENDOFJOB
002445:
002446:                                                                                                 #  Page 359
002447:                                                                                                 #  WORD DISPLAY ROUTINES
002448: 40,3105                                          SETLOC   TESTOFUF   +4
002449: 40,3105                                          COUNT    40/PIN
002450:
002451: 40,3105           56002        DSPSIGN           XCH      Q
002452: 40,3106           54144                          TS       DSPWDRET
002453: 40,3107           10154                          CCS      MPAC
002454: 40,3110           03120                          TC       +8D
002455: 40,3111           03120                          TC       +7
002456: 40,3112           65017                          AD       ONE
002457: 40,3113           54154                          TS       MPAC
002458: 40,3114           02334                          TC       -ON
002459: 40,3115           40155                          CS       MPAC       +1
002460: 40,3116           54155                          TS       MPAC       +1
002461: 40,3117           00144                          TC       DSPWDRET
002462: 40,3120           02314                          TC       +ON
002463: 40,3121           00144                          TC       DSPWDRET
002464:
002465: 40,3122           00006        DSPRND            EXTEND                                         #  ROUND BY 5 EXP-6
002466: 40,3123           33166                          DCA      DECROUND   -1
002467: 40,3124           20155                          DAS      MPAC
002468: 40,3125           00006                          EXTEND
002469: 40,3126           13132                          BZF      +4
002470: 40,3127           00006                          EXTEND
002471: 40,3130           34777                          DCA      DPOSMAX
002472: 40,3131           52155                          DXCH     MPAC
002473: 40,3132           00002                          TC       Q
002474:
002475:                                                                                                 #  DSPDECWD CONVERTS C(MPAC,MPAC+1) INTO A SIGN AND 5 CHAR DECIMAL
002476:                                                                                                 #  STARTING IN LOC SPECIFIED IN DSPCOUNT.  IT ROUNDS BY 5 EXP-6.
002477:
002478: 40,3133           56002        DSPDECWD          XCH      Q
002479: 40,3134           54115                          TS       WDRET
002480: 40,3135           03105                          TC       DSPSIGN
002481: 40,3136           03122                          TC       DSPRND
002482: 40,3137           35015                          CAF      FOUR
002483: 40,3140           54137        DSPDCWD1          TS       WDCNT
002484: 40,3141           34377                          CAF      BINCON
002485: 40,3142           07256                          TC       SHORTMP
002486: 40,3143           50154        TRACE1            INDEX    MPAC
002487: 40,3144           34072                          CAF      RELTAB
002488: 40,3145           74362                          MASK     LOW5
002489: 40,3146           54124                          TS       CODE
002490: 40,3147           35021                          CAF      ZERO
002491: 40,3150           56156                          XCH      MPAC       +2
002492: 40,3151           56155                          XCH      MPAC       +1
002493: 40,3152           54154                          TS       MPAC
002494: 40,3153           56777                          XCH      DSPCOUNT
002495: 40,3154           54143        TRACE1S           TS       COUNT
002496:                                                                                                 #  Page 360
002497: 40,3155           10000                          CCS      A                                     #  DECREMENT DSPCOUNT EXCEPT AT +0
002498: 40,3156           54777                          TS       DSPCOUNT
002499: 40,3157           03227                          TC       DSPIN
002500: 40,3160           10137                          CCS      WDCNT
002501: 40,3161           03140                          TC       DSPDCWD1
002502: 40,3162           44374                          CS       VD1
002503: 40,3163           54777                          TS       DSPCOUNT
002504: 40,3164           00115                          TC       WDRET
002505:
002506: 40,3165           00000                          OCT      00000
002507: 40,3166           02476        DECROUND          OCT      02476
002508:
002509:                                                                                                 #  DSPDECNR CONVERTS C(MPAC,MPAC+1) INTO A SIGN AND 5 CHAR DECIMAL
002510:                                                                                                 #  STARTING IN LOC SPECIFIED IN DSPCOUNT.  IT DOES NOT ROUND
002511:
002512: 40,3167           56002        DSPDECNR          XCH      Q
002513: 40,3170           54115                          TS       WDRET
002514: 40,3171           03105                          TC       DSPSIGN
002515: 40,3172           03137                          TC       DSPDCWD1   -1
002516:
002517:                                                                                                 #  DSPDC2NR CONVERTS C(MPAC,MPAC+1) INTO A SIGN AND 2 CHAR DECIMAL
002518:                                                                                                 #  STARTING IN LOC SPECIFIED IN DSPCOUNT.  IT DOES NOT ROUND
002519:
002520: 40,3173           56002        DSPDC2NR          XCH      Q
002521: 40,3174           54115                          TS       WDRET
002522: 40,3175           03105                          TC       DSPSIGN
002523: 40,3176           35017                          CAF      ONE
002524: 40,3177           03140                          TC       DSPDCWD1
002525:
002526:                                                                                                 #  DSP2DEC CONVERTS C(MPAC) AND C(MPAC+1) INTO A SIGN AND 10 CHAR DECIMAL
002527:                                                                                                 #  STARTING IN THE LOC SPECIFIED IN DSPCOUNT.
002528:
002529: 40,3200           56002        DSP2DEC           XCH      Q
002530: 40,3201           54115                          TS       WDRET
002531: 40,3202           35021                          CAF      ZERO
002532: 40,3203           54124                          TS       CODE
002533: 40,3204           36214                          CAF      THREE
002534: 40,3205           03311                          TC       11DSPIN                               #  -R2 OFF
002535: 40,3206           35015                          CAF      FOUR
002536: 40,3207           03311                          TC       11DSPIN                               #  +R2 OFF
002537: 40,3210           03105                          TC       DSPSIGN
002538: 40,3211           34334                          CAF      R2D1
002539: 40,3212           03140        END2DEC           TC       DSPDCWD1
002540:
002541:                                                                                                 #  DSPDECVN DISPLAYS C(A) UPON ENTRY AS A 2 CHAR DECIMAL BEGINNING IN THE
002542:                                                                                                 #  DSP LOC SPECIFIED IN DSPCOUNT.
002543:
002544:                                                                                                 #  C(A) SHOULD BE IN FORM N X 2EXP-14.  THIS IS SCALED TO FORM N/100 BEFORE
002545:                                                                                                 #  DISPLAY CONVERSION.
002546:                                                                                                 #  Page 361
002547:
002548: 40,3213           00006        DSPDECVN          EXTEND
002549: 40,3214           73223                          MP       VNDSPCON                              #  MULT BY .01
002550: 40,3215           22154                          LXCH     MPAC                                  #  TAKE RESULTS FROM L. (MULT BY 2EXP14).
002551: 40,3216           35021                          CAF      ZERO
002552: 40,3217           54155                          TS       MPAC       +1
002553: 40,3220           56002                          XCH      Q
002554: 40,3221           54115                          TS       WDRET
002555: 40,3222           03176                          TC       DSPDC2NR   +3                         #  NO SIGN, NO ROUND, 2 CHAR
002556:
002557: 40,3223           00244        VNDSPCON          OCT      00244                                 #  .01 ROUNDED UP
002558:
002559: 40,3224           03213        GOVNUPDT          TC       DSPDECVN                              #  THIS IS NOT FOR GENERAL USE.  REALLY PART
002560: 40,3225           04701                          TC       POSTJUMP                              #  OF UPDATVB.
002561: 40,3226           62347                          CADR     UPDAT1     +2
002562:
002563: 40,3227                        ENDECVN           EQUALS
002564:
002565: 41,3363                                          SETLOC   ENDSPF     +1
002566: 41,3363                                          COUNT    41/PIN
002567:
002568:                                                                                                 #  DSPOCTWD DISPLAYS C(A) UPON ENTRY AS A 5 CHAR OCT STARTING IN THE DSP
002569:                                                                                                 #  CHAR SPECIFIED IN DSPCOUNT.  IT STOPS AFTER 5 CHAR HAVE BEEN DISPLAYED.
002570:
002571: 41,3363           54022        DSPOCTWO          TS       CYL
002572: 41,3364           56002                          XCH      Q
002573: 41,3365           54115                          TS       WDRET                                 #  MUST USE SAME RETURN AS DSP2BIT.
002574: 41,3366           35002                          CAF      BIT14                                 #  TO BLANK SIGNS
002575: 41,3367           26777                          ADS      DSPCOUNT
002576: 41,3370           35015                          CAF      FOUR
002577: 41,3371           54137        WDAGAIN           TS       WDCNT
002578: 41,3372           40022                          CS       CYL
002579: 41,3373           40022                          CS       CYL
002580: 41,3374           40022                          CS       CYL
002581: 41,3375           40000                          CS       A
002582: 41,3376           75023                          MASK     DSPMSK
002583: 41,3377           50000                          INDEX    A
002584: 41,3400           34072                          CAF      RELTAB
002585: 41,3401           74362                          MASK     LOW5
002586: 41,3402           54124                          TS       CODE
002587: 41,3403           56777                          XCH      DSPCOUNT
002588: 41,3404           54143                          TS       COUNT
002589: 41,3405           10000                          CCS      A                                     #  DECREMENT DSPCOUNT EXCEPT AT +0
002590: 41,3406           54777                          TS       DSPCOUNT
002591: 41,3407           04701                          TC       POSTJUMP
002592: 41,3410           61317                          CADR     DSPOCTIN
002593: 41,3411           10137        OCTBACK           CCS      WDCNT
002594: 41,3412           03371                          TC       WDAGAIN                               #  +
002595: 41,3413           44374        DSPLV             CS       VD1                                   #  TO BLOCK NUMERICAL CHARACTERS, CLEARS,
002596:                                                                                                 #  Page 362
002597: 41,3414           54777                          TS       DSPCOUNT                              #  AND SIGNS AFTER A COMPLETED DISPLAY.
002598: 41,3415           00115                          TC       WDRET
002599:
002600: 41,3416     5023               DSPMSK            =        SEVEN
002601:
002602:                                                                                                 #  DSP2BIT DISPLAYS C(A) UPON ENTRY AS A 2 CHAR OCT BEGINNING IN THE DSP
002603:                                                                                                 #  LOC SPECIFIED IN DSPCOUNT BY PRE CYCLING RIGHT C(A) AND USING THE LOGIC
002604:                                                                                                 #  OF THE 5 CHAR OCTAL DISPLAY
002605:
002606: 41,3416           54020        DSP2BIT           TS       CYR
002607: 41,3417           56002                          XCH      Q
002608: 41,3420           54115                          TS       WDRET
002609: 41,3421           35017                          CAF      ONE
002610: 41,3422           54137                          TS       WDCNT
002611: 41,3423           40020                          CS       CYR
002612: 41,3424           40020                          CS       CYR
002613: 41,3425           56020                          XCH      CYR
002614: 41,3426           54022                          TS       CYL
002615: 41,3427           03376                          TC       WDAGAIN    +5
002616:
002617:                                                                                                 #  FOR DSPIN PLACE 0/25 OCT INTO COUNT, 5 BIT RELAY CODE INTO CODE.  BOTH
002618:                                                                                                 #  ARE DESTROYED.  IF BIT14 OF COUNT IS 1, SIGN IS BLANKED WITH LEFT CHAR.
002619:                                                                                                 #  FOR DSPIN1 PLACE 0,1 INTO BIT11 OF CODE, 2 INTO COUNT, REL ADDRESS OF
002620:                                                                                                 #  DSPTAB ENTRY INTO DSREL.
002621:
002622: 40,3227                                          SETLOC   ENDECVN
002623:
002624: 40,3227                                          COUNT    40/PIN
002625:
002626: 40,3227           56002        DSPIN             XCH      Q                                     #  CAN'T USE L FOR RETURN, SINCE MANY OF THE
002627: 40,3230           54114                          TS       DSEXIT                                #  ROUTINES CALLING DSPIN USE L AS RETURN.
002628: 40,3231           34362                          CAF      LOW5
002629: 40,3232           70143                          MASK     COUNT
002630: 40,3233           54021                          TS       SR
002631: 40,3234           56021                          XCH      SR
002632: 40,3235           54141                          TS       DSREL
002633: 40,3236           35017                          CAF      BIT1
002634: 40,3237           70143                          MASK     COUNT
002635: 40,3240           10000                          CCS      A
002636: 40,3241           03243                          TC       +2                                    #  LEFT IF COUNT IS ODD
002637: 40,3242           03253                          TC       DSPIN1     -1                         #  RIGHT IF COUNT IS EVEN
002638: 40,3243           56124                          XCH      CODE
002639: 40,3244           04354                          TC       SLEFT5                                #  DOES NOT USE CYL
002640: 40,3245           54124                          TS       CODE
002641: 40,3246           35002                          CAF      BIT14
002642: 40,3247           70143                          MASK     COUNT
002643: 40,3250           10000                          CCS      A
002644: 40,3251           35016                          CAF      TWO                                   #  BIT14 = 1, BLANK SIGN
002645:                                                                                                 #  Page 363
002646: 40,3252           65017                          AD       ONE                                   #  BIT14 = 0, LEAVE SIGN ALONE
002647: 40,3253           54143                          TS       COUNT                                 #  +0 INTO COUNT FOR RIGHT
002648:                                                                                                 #  +1 INTO COUNT FOR LEFT (SIGN LEFT ALONE)
002649:                                                                                                 #  +3 INTO COUNT FOR LEFT (TO BLANK SIGN)
002650: 40,3254           00004        DSPIN1            INHINT
002651: 40,3255           50141                          INDEX    DSREL
002652: 40,3256           11023                          CCS      DSPTAB
002653: 40,3257           03261                          TC       +2                                    #  IF +
002654: 40,3260           05747                          TC       CCSHOLE
002655: 40,3261           65017                          AD       ONE                                   #  IF -
002656: 40,3262           54142                          TS       DSMAG
002657: 40,3263           50143                          INDEX    COUNT
002658: 40,3264           73305                          MASK     DSMSK
002659: 40,3265           00006                          EXTEND
002660: 40,3266           60124                          SU       CODE
002661: 40,3267           00006                          EXTEND
002662: 40,3270           13303                          BZF      DSLV                                  #  SAME
002663: 40,3271           50143        DFRNT             INDEX    COUNT
002664: 40,3272           43305                          CS       DSMSK                                 #  MASK WITH 77740, 76037, 76777, OR 74037
002665: 40,3273           70142                          MASK     DSMAG
002666: 40,3274           60124                          AD       CODE
002667: 40,3275           40000                          CS       A
002668: 40,3276           50141                          INDEX    DSREL
002669: 40,3277           57023                          XCH      DSPTAB
002670: 40,3300           00006                          EXTEND
002671: 40,3301           63303                          BZMF     DSLV                                  #  DSPTAB ENTRY WAS -
002672: 40,3302           25016                          INCR     NOUT                                  #  DSPTAB ENTRY WAS +
002673: 40,3303           00003        DSLV              RELINT
002674: 40,3304           00114                          TC       DSEXIT
002675:
002676: 40,3305           00037        DSMSK             OCT      37
002677: 40,3306           01740                          OCT      1740
002678: 40,3307           02000                          OCT      2000
002679: 40,3310           03740                          OCT      3740
002680:
002681:                                                                                                 #  FOR 11DSPIN, PUT REL ADDRESS OF DSPTAB ENTRY INTO A, 1 IN BIT11 OR 0 IN
002682:                                                                                                 #  BIT11 OF CODE.
002683:
002684: 40,3311           54141        11DSPIN           TS       DSREL
002685: 40,3312           35016                          CAF      TWO
002686: 40,3313           54143                          TS       COUNT
002687: 40,3314           56002                          XCH      Q                                     #  MUST USE SAME RETURN AS DSPIN
002688: 40,3315           54114                          TS       DSEXIT
002689: 40,3316           03254                          TC       DSPIN1
002690:
002691: 40,3317           03227        DSPOCTIN          TC       DSPIN                                 #  SO DSPOCTWD DOESN'T USE SWCALL
002692: 40,3320           33322                          CAF      +2
002693: 40,3321           04704                          TC       BANKJUMP
002694:                                                                                                 #  Page 364
002695: 40,3322           63411        ENDSPOCT          CADR     OCTBACK
002696:
002697:                                                                                                 #  DSPALARM FINDS TC NVSUBEND IN ENTRET FOR NVSUB INITIATED ROUTINES
002698:                                                                                                 #  ABORT WITH 01501.
002699:
002700:                                                                                                 #  DSPALARM FINDS TC ENDOFJOB IN ENTRET FOR KEYBOARD INITIATED ROUTINES.
002701:                                                                                                 #  DC TC ENTRET.
002702:
002703: 40,3323           44374        PREDSPAL          CS       VD1
002704: 40,3324           54777                          TS       DSPCOUNT
002705: 40,3325           43346        DSPALARM          CS       NVSBENDL
002706: 40,3326           60136                          AD       ENTEXIT
002707: 40,3327           00006                          EXTEND
002708: 40,3330           13343                          BZF      CHARALRM   +2
002709: 40,3331           43345                          CS       MONADR                                #  IF THIS IS A MONITOR, KILL IT
002710: 40,3332           60136                          AD       ENTEXIT
002711: 40,3333           00006                          EXTEND
002712: 40,3334           13336                          BZF      +2
002713: 40,3335           03341                          TC       CHARALRM
002714: 40,3336           04220                          TC       KILMONON
002715: 40,3337           04400                          TC       FALTON
002716: 40,3340           04140                          TC       PASTEVB                               #  PUT MONITOR VERB BACK IN VERBREG
002717: 40,3341           04400        CHARALRM          TC       FALTON                                #  NOT NVSUB INITATED TURN ON OPR ERROR
002718: 40,3342           05217                          TC       ENDOFJOB
002719: 40,3343           05721                          TC       P00DOO
002720: 40,3344           01501                          OCT      01501
002721: 40,3345           04140        MONADR            GENADR   PASTEVB
002722: 40,3346           04216        NVSBENDL          TC       NVSUBEND
002723:
002724:                                                                                                 #  ALMCYCLE TURNS ON CHECK FAIL LIGHT, REDISPLAYS THE ORIGINAL VERB THAT
002725:                                                                                                 #  WAS EXECUTED, AND RECYCLES TO EXECUTE THE ORIGINAL VERB/NOUN COMBINATION
002726:                                                                                                 #  THAT WAS LAST EXECUTED.  USED FOR BAD DATA DURING LOAD VERBS AND BY
002727:                                                                                                 #  MCTBS.  ALSO BY MMCHANG IF 2 NUMERICAL CHARACTERS WERE NOT PUNCHED IN
002728:                                                                                                 #  FOR MM CODE
002729:
002730:    4161                                          SETLOC   MID7       +1
002731:    4161                                          COUNT    02/PIN
002732:
002733:    4161           04400        ALMCYCLE          TC       FALTON                                #  TURN ON CHECK FAIL LIGHT.
002734:    4162           41041                          CS       VERBSAVE                              #  GET ORIGINAL VERB THAT WAS EXECUTED
002735:    4163           55013                          TS       REQRET                                #  SET FOR ENTPAS0
002736:    4164           04662                          TC       BANKCALL                              #  PUTS ORIGINAL VERB INTO VERBREG AND
002737:    4165           62337                          CADR     UPDATVB    -1                         #  DISPLAYS IT IN VERB LIGHTS.
002738:    4166           04701                          TC       POSTJUMP
002739:    4167           62002        ENDALM            CADR     ENTER
002740:
002741:                                                                                                 #  MMCHANG USES NOUN DISPLAY UNTIL ENTER.  THEN IT USES MODE DISP.
002742:                                                                                                 #  IT GOES TO MODROUT WITH THE NEW M M CODE IN A, BUT NOT DISPLAYED IN
002743:                                                                                                 #  Page 365
002744:                                                                                                 #  MM LIGHTS.
002745:
002746:                                                                                                 #  IT DEMANDS 2 NUMERICAL CHARACTERS BE PUNCHED IN FOR NEW MM CODE.
002747:                                                                                                 #  IF NOT, IT RECYCLES.
002748:
002749: 41,3430                                          SETLOC   DSP2BIT    +10D
002750:
002751: 41,3430                                          COUNT    41/PIN
002752:
002753: 41,3430           03452        MMCHANG           TC       REQMM                                 #  ENTPASHI ASSUMES THE TC REQMM AT MMCHANG
002754:                                                                                                 #  IF THIS MOVES AT ALL, MUST CHANGE
002755:                                                                                                 #  MMADREF AT ENTPASHI.
002756: 41,3431           35013                          CAF      BIT5                                  #  OCT20 = ND2.
002757: 41,3432           60777                          AD       DSPCOUNT                              #  DSPCOUNT MUST = -ND2.
002758: 41,3433           00006                          EXTEND                                         #  DEMAND THAT 2 NUM CHAR WERE PUNCHED IN.
002759: 41,3434           13436                          BZF      +2
002760: 41,3435           04161                          TC       ALMCYCLE                              #  DSPCOUNT NOT= -ND2.  ALARM AND RECYCLE.
002761: 41,3436           35021                          CAF      ZERO                                  #  DSPCOUNT = -ND2.
002762: 41,3437           57002                          XCH      NOUNREG
002763: 41,3440           54154                          TS       MPAC
002764: 41,3441           34375                          CAF      ND1
002765: 41,3442           54777                          TS       DSPCOUNT
002766: 41,3443           04662                          TC       BANKCALL
002767: 41,3444           60502                          CADR     2BLANK
002768: 41,3445           44374                          CS       VD1                                   #  BLOCK NUM CHAR IN
002769: 41,3446           54777                          TS       DSPCOUNT
002770: 41,3447           30154                          CA       MPAC
002771: 41,3450           04701                          TC       POSTJUMP
002772: 41,3451           10011                          CADR     MODROUTB                              #  GO THRU STANDARD LOC.
002773:
002774: 41,3452  04,2011               MODROUTB          =        V37
002775: 41,3452           40002        REQMM             CS       Q
002776: 41,3453           55013                          TS       REQRET
002777: 41,3454           34375                          CAF      ND1
002778: 41,3455           54777                          TS       DSPCOUNT
002779: 41,3456           35021                          CAF      ZERO
002780: 41,3457           55002                          TS       NOUNREG
002781: 41,3460           04662                          TC       BANKCALL
002782: 41,3461           60502                          CADR     2BLANK
002783: 41,3462           04443                          TC       FLASHON
002784: 41,3463           35017                          CAF      ONE
002785: 41,3464           55000                          TS       DECBRNCH                              #  SET FOR DEC
002786: 41,3465           00136                          TC       ENTEXIT
002787:
002788:                                                                                                 #  VBRQEXEC ENTERS REQUEST TO EXEC FOR ANY ADDRESS WITH ANY PRIORITY.
002789:                                                                                                 #  IT DOES ENDOFJOB AFTER ENTERING REQUEST.  DISPLAY SYST IS RELEASED.
002790:                                                                                                 #  IT ASSUMES NOUN 26 HAS BEEN PRELOADED WITH
002791:                                                                                                 #         COMPONENT 1     PRIORITY (BITS 10-14) BIT1=0 FOR NOVAC, BIT1=1 FOR FINDVAC.
002792:                                                                                                 #         COMPONENT 2     JOB ADRES (12 BIT)
002793:                                                                                                 #  Page 366
002794:                                                                                                 #         COMPONENT 3     BBCON
002795:
002796: 41,3466           35017        VBRQEXEC          CAF      BIT1
002797: 41,3467           71045                          MASK     DSPTEM1
002798: 41,3470           10000                          CCS      A
002799: 41,3471           03510                          TC       SETVAC                                #  IF BIT1 = 1, FINDVAC
002800: 41,3472           34365                          CAF      TCNOVAC                               #  IF BIT1 = 0, NOVAC
002801: 41,3473           54154        REQEX1            TS       MPAC                                  #  TC NOVAC OR TC FINDVAC INTO MPAC
002802: 41,3474           45017                          CS       BIT1
002803: 41,3475           71045                          MASK     DSPTEM1
002804: 41,3476           54160                          TS       MPAC       +4                         #  PRIO INTO MPAC+4 AS A TEMP
002805: 41,3477           04473        REQUESTC          TC       RELDSP
002806: 41,3500           34233                          CA       ENDINST
002807: 41,3501           54157                          TS       MPAC       +3                         #  TC ENDOFJOB INTO MPAC+3
002808: 41,3502           00006                          EXTEND
002809: 41,3503           31047                          DCA      DSPTEM1    +1                         #  JOB ADRES INTO MPAC+1
002810: 41,3504           52156                          DXCH     MPAC       +1                         #  BBCON INTO MPAC+2
002811: 41,3505           30160                          CA       MPAC       +4                         #  PRIO IN A
002812: 41,3506           00004                          INHINT
002813: 41,3507           00154                          TC       MPAC
002814:
002815: 41,3510           34370        SETVAC            CAF      TCFINDVC
002816: 41,3511           03473                          TC       REQEX1
002817:
002818:                                                                                                 #  VBRQWAIT ENTERS REQUEST TO WAITLIST FOR ANY ADDRESS WITH ANY DELAY.
002819:                                                                                                 #  IT DOES ENDOFJOB AFTER ENTERING REQUEST.  DISPLAY SYST IS RELEASED.
002820:                                                                                                 #  IT ASSUMES NOUN 26 HAS BEEN PRELOADED WTIH
002821:                                                                                                 #         COMPONENT 1     DELAY (LOW BITS)
002822:                                                                                                 #         COMPONENT 2     TASK ADRES (12 BIT)
002823:                                                                                                 #         COMPONENT 3     BBCON
002824:
002825: 41,3512           34366        VBRQWAIT          CAF      TCWAIT
002826: 41,3513           54154                          TS       MPAC                                  #  TC WAITLIST INTO MPAC
002827: 41,3514           31045                          CA       DSPTEM1                               #  TIME DELAY
002828: 41,3515           03476        ENDRQWT           TC       REQUESTC   -1
002829:
002830:                                                                                                 #  REQUESTC WILL PUT TASK ADRES INTO MPAC+1, BBCON INTO MPAC+2,
002831:                                                                                                 #  TC ENDOFJOB INTO MPAC+3.  IT WILL TAKE TIME DELAY OUT OF MPAC+4 AND
002832:                                                                                                 #  LEAVE IT IN A, INHINT AND TC MPAC.
002833:
002834: 40,3347                                          SETLOC   NVSBENDL   +1
002835: 40,3347                                          COUNT    40/PIN
002836:
002837: 40,3347           35017        VBPROC            CAF      ONE                                   #  PROCEED WITHOUT DATA
002838: 40,3350           55014                          TS       LOADSTAT
002839: 40,3351           04220                          TC       KILMONON                              #  TURN ON KILL MONITOR BIT
002840: 40,3352           04473                          TC       RELDSP
002841: 40,3353           04447                          TC       FLASHOFF
002842: 40,3354           03454                          TC       RECALTST                              #  SEE IF THERE IS ANY RECALL FROM ENDIDLE
002843:
002844:                                                                                                 #  Page 367
002845: 40,3355           45017        VBTERM            CS       ONE
002846: 40,3356           03350                          TC       VBPROC     +1                         #  TERM VERB SETS LOADSTAT NEG
002847:
002848:                                                                                                 #  PROCKEY PERFORMS THE SAME FUNCTION AS VBPROC.  IT MUST BE CALLED UNDER
002849:                                                                                                 #  EXECUTIVE CONTROL, WITH CHRPRIO.
002850:
002851: 40,3357           35021        PROCKEY           CAF      ZERO                                  #  SET REQRET FOR ENTER PASS 0.
002852: 40,3360           55013                          TS       REQRET
002853: 40,3361           44374                          CS       VD1                                   #  BLOCK NUMERICAL CHARACTERS, SIGNS, CLEAR
002854: 40,3362           54777                          TS       DSPCOUNT
002855: 40,3363           03347                          TC       VBPROC
002856:
002857:                                                                                                 #  VBRESEQ WAKES ENDIDLE AT SAME LINE AS FINAL ENTER OF LOAD (L+3).
002858:                                                                                                 #  (MAIN USE IS INTENDED AS RESPONSE TO INTERNALLY INITIATED FLASHING
002859:                                                                                                 #  DISPLAYS IN ENDIDLE.  SHOULD NOT BE USED WITH LOAD VERBS, PLEASE PERFORM,
002860:                                                                                                 #  OR PLEASE MARK VERBS BECAUSE THEY ALREADY USE L+3 IN ANOTHER CONTEXT.)
002861:
002862: 40,3364           45021        VBRESEQ           CS       ZERO                                  #  MAKE IT LOOK LIKE DATA IN.
002863: 40,3365           03350                          TC       VBPROC     +1
002864:
002865:                                                                                                 #  FLASH IS TURNED OFF BY PROCEED WITHOUT DATA, TERMINATE, RESEQUENCE,
002866:                                                                                                 #  END OF LOAD.
002867:                                                                                                 #  Page 368
002868:
002869:                                                                                                 #  KEY RELEASE ROUTINE
002870:
002871:                                                                                                 #  THIS ROUTINE ALWAYS TURNS OFF THE UPACT LIGHT AND ALWAYS CLEARS DSPLOCK.
002872:
002873:                                                                                                 #  THE HIGHEST PRIORITY FUNCTION OF THE KEY RELEASE BUTTON IS THE
002874:                                                                                                 #  UNSUSPENDING OF A SUSPENDED MONITOR WHICH WAS EXTERNALLY INITIATED.
002875:                                                                                                 #  THIS FUNCTION IS ACCOMPLISHED BY CLEARING DSPLOCK AND TURNING OFF
002876:                                                                                                 #  THE KEY RELEASE LIGHT IF BOTH DSPLIST AND CADRSTOR ARE EMPTY.
002877:
002878:                                                                                                 #  IF NO SUCH MONITOR EXISTS, THEN RELDSP IS EXECUTED TO CLEAR DSPLOCK
002879:                                                                                                 #  AND THE EXTERNAL MONITOR BIT (FREEING THE DISPLAY SYSTEM FOR INTERNAL
002880:                                                                                                 #  USE), TURN OFF THE KEY RELEASE LIGHT, AND WAKE UP ANY JOB IN DSPLIST.
002881:
002882:                                                                                                 #  IN ADDITION IF THERE IS A JOB IN ENDIDLE, THEN CONTROL IS TRANSFERRED
002883:                                                                                                 #  TO PINBRNCH (IN DISPLAY INTERFACE ROUTINE) TO RE-EXECUTE THE SERIES OF
002884:                                                                                                 #  NVSUB CALLS ETC. THAT PRECEDED THE ENDIDLE CALL STILL AWAITING RESPONSE.
002885:                                                                                                 #  THIS FEATURE IS INTENDED FOR USE WHEN THE OPERATOR HAS BEEN REQUESTED TO
002886:                                                                                                 #  RESPOND TO SOME INTERNAL ACTION THAT USED ENDIDLE, BUT HE HAS WRITTEN
002887:                                                                                                 #  OVER THE INFORMATION ON THE DISPLAY PANEL BY SOME DISPLAYS OF HIS OWN
002888:                                                                                                 #  INITIATION WHICH DO NOT SERVE AS RESPONSES.  HITTING KEYRLSE WILL
002889:                                                                                                 #  RE-ESTABLISH THE DISPLAYS TO THE STATE THEY WERE IN BEOFRE HE OBSCURED
002890:                                                                                                 #  THEM, SO THAT HE CAN SEE THE WAITING REQUEST.  THIS WORKS ONLY FOR
002891:                                                                                                 #  INTERNAL PROGRAMS THAT USED ENDIDLE THROUGH MARGARET'S DISPLAY
002892:                                                                                                 #  SUBROUTINES.
002893:
002894: 40,3366           45015        VBRELDSP          CS       BIT3
002895: 40,3367           00006                          EXTEND
002896: 40,3370           03011                          WAND     DSALMOUT                              #  TURN OF UPACT LITE
002897: 40,3371           10115                          CCS      21/22REG                              #  OLD DSPLOCK
002898: 40,3372           35002                          CAF      BIT14
002899: 40,3373           71021                          MASK     MONSAVE1                              #  EXTERNAL MONITOR BIT (EMB)
002900: 40,3374           10000                          CCS      A
002901: 40,3375           03404                          TC       UNSUSPEN                              #  OLD DSPLOCK AND EMB BOTH 1, UNSUSPEND,
002902: 40,3376           04473        TSTLTS4           TC       RELDSP                                #  NOT UNSUSPENDING EXTERNAL MONITOR
002903: 40,3377           11042                          CCS      CADRSTOR                              #         RELEASE DISPLAY SYSTEM AND
002904: 40,3400           03402                          TC       +2                                    #         DO RE-ESTABLISH IF CADRSTOR IS FULL.
002905: 40,3401           05217                          TC       ENDOFJOB
002906: 40,3402           04701                          TC       POSTJUMP
002907: 40,3403           21272                          CADR     PINBRNCH
002908: 40,3404           35021        UNSUSPEN          CAF      ZERO                                  #  EXTERNAL MONITOR IS SUSPENDED,
002909: 40,3405           55012                          TS       DSPLOCK                               #         JUST UNSUSPEND IT BY CLEARING DSPLOCK.
002910: 40,3406           11042                          CCS      CADRSTOR                              #         TURN KEY RELEASE LIGHT OFF IF BOTH
002911: 40,3407           05217                          TC       ENDOFJOB                              #         CADRSTOR AND DSPLIST ARE EMPTY.
002912: 40,3410           04516                          TC       RELDSP1
002913: 40,3411           05217                          TC       ENDOFJOB
002914:
002915: 40,3412                        ENDRELDS          EQUALS
002916:
002917:                                                                                                 #  Page 369
002918:                                                                                                 #  NVSUB IS USED FOR SUBROUTINE CALLS FROM WITHIN COMPUTER.  IT CAN BE
002919:                                                                                                 #  USED TO CALL THE COMBINATION OF ANY DISPLAY, LOAD, OR MONITOR VERB
002920:                                                                                                 #  TOGETHER WITH ANY NOUN AVAILABLE TO THE KEYBOARD.
002921:                                                                                                 #  PLACE 0VVVVVVVNNNNNNN INTO A.
002922:                                                                                                 #  V'S ARE THE 7-BIT VERB CODE.  N'S ARE THE 7-BIT NOUN CODE.
002923:
002924:                                                                                                 #  IF NVSUB IS CALLED WTIH THE FOLLOWING NEGATIVE NUMBERS (RATHER THAN THE
002925:                                                                                                 #  VERB-NOUN CODE) IN A, THEN THE DISPLAY IS BLANKED AS FOLLOWS ---
002926:                                                                                                 #  -4 FULL BLANK, -3 LEAVE MODE, -2 LEAVE MODE AND VERB, -1 BLANK R'S ONLY.
002927:
002928:                                                                                                 #  NVSUB CAN BE USED WTIH MACHINE CADR TO BE SPECIFIED BY PLACING THE CADR INTO
002929:                                                                                                 #  MPAC+2 BEFORE THE STANDARD NVSUB CALL.
002930:
002931:                                                                                                 #  NVSUB RETURNS TO 2+ CALLING LOC AFTER PERFORMING TASK, IF DISPLAY
002932:                                                                                                 #  SYSTEM IS AVAILABLE.  THE NEW NOUN AND VERB CODES ARE DISPLAYED.
002933:                                                                                                 #  IF V'S =0, THE NEW NOUN CODE IS DISPLAYED ONLY (RETURN WITH NO FURTHER
002934:                                                                                                 #  ACTION).  IF N'S =0, THE NEW VERB CODE IS DISPLAYED ONLY (RETURN WITH NO
002935:                                                                                                 #  FURTHER ACTION).
002936:
002937:                                                                                                 #  IT RETURNS TO 1+ CALLING LOC WITHOUT PERFORMING TASK, IF DISPLAY
002938:                                                                                                 #  SYSTEM IS BLOCKED (NOTHING IS DISPLAYED IN THIS CASE).
002939:                                                                                                 #  IT DOES TC ABORT (WITH OCT 01501) IF IT ENCOUNTERS A DISPLAY PROGRAM
002940:                                                                                                 #  ALARM CONDITION BEFORE RETURN TO CALLER.
002941:
002942:                                                                                                 #  THE DISPLAY SYSTEM IS BLOCKED BY THE DEPRESSION OF ANY
002943:                                                                                                 #  KEY, EXCEPT ERROR LIGHT RESET.
002944:                                                                                                 #  IT IS RELEASED BY THE KEY RELEASE BUTTON, ALL EXTENDED VERBS,
002945:                                                                                                 #  PROCED WITOHOUT DATA, TERMINATE, RESEQUENCE, INITIALIZE EXECUTIVE,
002946:                                                                                                 #  RECALL PART OF RECALTST IF ENDIDLE WAS USED,
002947:                                                                                                 #  VB = REQUEST EXECUTIVE, VB = REQUEST WAITLIST,
002948:                                                                                                 #  MONITOR SET UP.
002949:
002950:                                                                                                 #  THE DISPLAY SYSTEM IS ALSO BLOCKED BY THE EXTERNAL MONITOR BIT, WHICH
002951:                                                                                                 #  INDICATES AND EXTERNALLY INITIATED MONITOR IS RUNNING (SEE MONITOR).
002952:
002953:                                                                                                 #  A NVSUB CALL THAT PASSES DSPLOCK AND THE EXTERNAL MONITOR BIT ENDS OLD
002954:                                                                                                 #  MONITOR.
002955:
002956:                                                                                                 #  DSPLOCK IS THE INTERLOCK FOR USE OF KEYBOARD AND DISPLAY SYSTEM WHICH
002957:                                                                                                 #  LOCKS OUT INTERNAL USE WHENEVER THERE IS EXTERNAL KEYBOARD ACTION.
002958:
002959:                                                                                                 #  NVSUB SHOULD BE USED TWICE IN SUCCESSION FOR `PLEASE PERFORM' SITUATIONS
002960:                                                                                                 #  (SIMILARLY FOR PLEASE MARK).  FIRST PLACE THE CODED NUMBER FOR WHAT
002961:                                                                                                 #  ACTION IS DESIRED OF OPERATOR INTO THEREGISTERS REFERRED TO BY THE
002962:                                                                                                 #  `CHECKLIST' NOUN.  GO TO NVSUB WITH A DISPLAY VERB AND THE `CHECKLIST'
002963:                                                                                                 #  NOUN.  GO TO NVSUB AGAIN WTIH THE `PLEASE PERFORM' VERB AND ZEROS IN THE
002964:                                                                                                 #  LOW 7 BITS.  THIS `PASTES UP' THE `PLEASE PERFORM' VERB INTO THE VERB
002965:                                                                                                 #  LIGHTS.
002966:
002967:                                                                                                 #  NVMONOPT IS AN ENTRY SIMILAR TO NVSUB, BUT REQUIRING AN ADDITIONAL
002968:                                                                                                 #  Page 370
002969:                                                                                                 #  PARAMETER IN L.  IT SHOULD BE USED ONLY WITH A MONITOR VERB-NOUN CODE IN
002970:                                                                                                 #  A.  AFTER EACH MONITOR DISPLAY A *PLEASE* VERB WILL BE PASED INT THE VERB
002971:                                                                                                 #  LIGHTS OR DATA WILL BE BLANKED (OR BOTH) ACCORDING TO THE OPTIONS
002972:                                                                                                 #  SPECIFIED IN L.  IF BITS 8-14 OF L ARE OTHER THAN ZERO, THEN THEY WILL
002973:                                                                                                 #  BE INTERPRETED AS A VERB CODE AND PASTED IN THE VERB LIGHTS.  (THIS VERB
002974:                                                                                                 #  CODE SHOULD DESIGNATE ONE OF THE *PLEASE* VERBS.)  IF BITS 1-3 OF L ARE
002975:                                                                                                 #  OTHER THAN ZERO, THEN THEY WILL BE USED BO BLANK DATA BY BEING FED TO
002976:                                                                                                 #  BLANKSUB.  IF NVMONOPT IS USED WITH A VERB OTHER THAN A MONITOR VERB,
002977:                                                                                                 #  THE PARAMETER IN L HAS NO EFFECT.
002978:
002979:                                                                                                 #  NVSUB IN FIXED-FIXED PLACES 2+CALLING LOC INTO NVQTEM, TC NVSUBEND INTO
002980:                                                                                                 #  ENTRET.  (THIS WILL RESTORE OLD CALLING BANK BITS)
002981:
002982:    4170                                          SETLOC   ENDALM     +1
002983:
002984:    4170                                          COUNT    02/PIN
002985:
002986:    4170           22007        NVSUB             LXCH     7                                     #  ZERO NVMONOPT OPTIONS
002987:    4171           54123        NVMONOPT          TS       NVTEMP
002988:    4172           35002                          CAF      BIT14
002989:    4173           71021                          MASK     MONSAVE1                              #  EXTERNAL MONITOR BIT
002990:    4174           61012                          AD       DSPLOCK
002991:    4175           10000                          CCS      A
002992:    4176           00002                          TC       Q                                     #  DSP SYST BLOCKED.  RET TO 1.  CALLING LOC
002993:    4177           35017                          CAF      ONE                                   #  DSP SYST AVAILABLE.
002994:    4200           60002        NVSBCOM           AD       Q
002995:    4201           55037                          TS       NVQTEM                                #  2+ CALLING LOC INTO NVQTEM
002996:    4202           23022                          LXCH     MONSAVE2                              #  STORE NVMONOPT OPTIONS
002997:    4203           04220                          TC       KILMONON                              #  TURN ON KILL MONITOR BIT
002998:    4204           34215        NVSUBCOM          CAF      NVSBBBNK
002999:
003000:    4205           56006                          XCH      BBANK
003001:    4206           00006                          EXTEND                                         #  SAVE OLD SUPERBITS
003002:    4207           04007                          ROR      SUPERBNK
003003:    4210           55040                          TS       NVBNKTEM
003004:    4211           34215                          CAF      PINSUPBT
003005:    4212           00006                          EXTEND
003006:    4213           01007                          WRITE    SUPERBNK
003007:    4214           02000                          TC       NVSUBB                                #  GO TO NVSUB1 THRU STANDARD LOC
003008:    4215     0777                                 EBANK=   DSPCOUNT
003009:    4215           62101        NVSBBBNK          BBCON    NVSUB1
003010:
003011:    4216     4215               PINSUPBT          =        NVSBBBNK                              #  CONTAINS THE PINBALL SUPERBIT.
003012:
003013:    4216           53040        NVSUBEND          DXCH     NVQTEM                                #  NVBNKTEM MUST = NVQTEM+1
003014:    4217           05227                          TC       SUPDXCHZ                              #  DTCB WITH SUPERBIT SWITCHING
003015:
003016: 41,3516                                          SETLOC   ENDRQWT    +1
003017:
003018: 41,3516                                          COUNT    41/PIN
003019:                                                                                                 #  Page 371
003020:
003021:                                                                                                 #  BLANKDSP BLANKS DISPLAY ACCORDING TO OPTION NUMBER IN NVTEMP AS FOLLOWS:
003022:                                                                                                 #  -4 FULL BLANK, -3 LEAVE MODE, -2 LEAVE MODE AND VERB, -1 BLANK R'S ONLY.
003023:
003024: 41,3516           65023        BLANKDSP          AD       SEVEN                                 #  7,8,9, OR 10 (A HAD 0,1,2,OR 3)
003025: 41,3517           00004                          INHINT
003026: 41,3520           54124                          TS       CODE                                  #  BLANK SPECIFIED DSPTABS
003027: 41,3521           45004                          CS       BIT12
003028: 41,3522           50124                          INDEX    CODE
003029: 41,3523           57023                          XCH      DSPTAB
003030: 41,3524           10000                          CCS      A
003031: 41,3525           25016                          INCR     NOUT
003032: 41,3526           03527                          TC       +1
003033: 41,3527           10124                          CCS      CODE
003034: 41,3530           03520                          TC       BLANKDSP   +2
003035: 41,3531           00003                          RELINT
003036: 41,3532           50123                          INDEX    NVTEMP
003037: 41,3533           03540                          TC       +5
003038: 41,3534           03535                          TC       +1                                    #  NVTEMP HAS     -4 (NEVER TOUCH MODREG)
003039: 41,3535           55001                          TS       VERBREG                               #                 -3
003040: 41,3536           55002                          TS       NOUNREG                               #                 -2
003041: 41,3537           55015                          TS       CLPASS                                #                 -1
003042: 41,3540           44374                          CS       VD1
003043: 41,3541           54777                          TS       DSPCOUNT
003044: 41,3542           04447                          TC       FLASHOFF                              #  PROTECT AGAINST INVISIBLE FLASH
003045: 41,3543           03566                          TC       ENTSET     -2                         #  ZEROS REQRET
003046:
003047: 41,3544           33570        NVSUB1            CAF      ENTSET                                #  IN BANK
003048: 41,3545           54136                          TS       ENTRET                                #  SET RETURN TO NVSUBEND
003049: 41,3546           10123                          CCS      NVTEMP                                #  WHAT NOW
003050: 41,3547           03553                          TC       +4                                    #  NORMAL NVSUB CALL (EXECUTE VN OR PASTE)
003051: 41,3550           02351                          TC       GODSPALM
003052: 41,3551           03516                          TC       BLANKDSP                              #  BLANK DISPLAY AS SPECIFIED
003053: 41,3552           02351                          TC       GODSPALM
003054: 41,3553           36043                          CAF      LOW7
003055: 41,3554           70123                          MASK     NVTEMP
003056: 41,3555           54157                          TS       MPAC       +3                         #  TEMP FOR NOUN (CAN'T USE MPAC.  DSPDECVN
003057: 41,3556           30123                          CA       NVTEMP                                #                  USES MPAC, +1, +2).
003058: 41,3557           54023                          TS       EDOP                                  #  RIGHT 7
003059: 41,3560           30023                          CA       EDOP
003060: 41,3561           54160                          TS       MPAC       +4                         #  TEMP FOR VERB (CAN'T USE MPAC+1.  DSPDECVN
003061:                                                                                                 #                  USES MPAC, +1, +2)
003062: 41,3562           10157                          CCS      MPAC       +3                         #  TEST NOUN
003063: 41,3563           03571                          TC       NVSUB2                                #  IF NOUN NOT +0, GO ON
003064: 41,3564           30160                          CA       MPAC       +4
003065: 41,3565           02337                          TC       UPDATVB    -1                         #  IF NOUN = +0, DISPLAY VERB.  THEN RETURN
003066: 41,3566           35021                          CAF      ZERO                                  #  ZERO REQRET SO THAT PASTED VERBS CAN
003067: 41,3567           55013                          TS       REQRET                                #  BE EXECUTED BY OPERATOR.
003068: 41,3570           04216        ENTSET            TC       NVSUBEND
003069: 41,3571           10160        NVSUB2            CCS      MPAC       +4                         #  TEST VERB
003070: 41,3572           03576                          TC       +4                                    #  IF VERB NOT +0, GO ON
003071:                                                                                                 #  Page 372
003072: 41,3573           30157                          CA       MPAC       +3
003073: 41,3574           02317                          TC       UPDATNN    -1                         #  IF VERB = +0, DISPLAY NOUN.  THEN RETURN
003074: 41,3575           04216                          TC       NVSUBEND
003075: 41,3576           30156                          CA       MPAC       +2                         #  TEMP FOR MACH CADR TO BE SPEC.  (DSPDECVN
003076: 41,3577           54161                          TS       MPAC       +5                         #         USES MPAC, +1, +2)
003077: 41,3600           30160                          CA       MPAC       +4
003078: 41,3601           02337                          TC       UPDATVB    -1                         #  IF BOTH NOUN AND VERB NOT +0, DISPLAY
003079: 41,3602           30157                          CA       MPAC       +3                         #  BOTH AND GO TO ENTPAS0.
003080: 41,3603           02317                          TC       UPDATNN    -1
003081: 41,3604           35021                          CAF      ZERO
003082: 41,3605           55014                          TS       LOADSTAT                              #  SET FOR WAITING FOR DATA CONDITION
003083: 41,3606           55015                          TS       CLPASS
003084: 41,3607           55013                          TS       REQRET                                #  SET REQRET FOR PASS 0.
003085: 41,3610           30161                          CA       MPAC       +5                         #  RESTORES MACH CADR TO BE SPEC TO MPAC+2
003086: 41,3611           54156                          TS       MPAC       +2                         #  FOR USE IN INTMCTBS (IN ENTPAS0).
003087: 41,3612           02035        ENDNVSB1          TC       ENTPAS0
003088:
003089:                                                                                                 #  IF INTERNAL MACH CADR TO BE SPECIFIED, MPAC+2 WILL BE PLACED INTO
003090:                                                                                                 #  NOUNCADR IN ENTPAS0 (INTMCTBS).
003091:
003092:    4220                                          SETLOC   NVSUBEND   +2
003093:    4220                                          COUNT    02/PIN
003094:                                                                                                 #  FORCE BIT 15 OF MONSAVE1 TO .
003095:    4220           35001        KILMONON          CAF      BIT15                                 #         THIS IS THE KILL MONITOR BIT.
003096:    4221           55021                          TS       MONSAVE1                              #  TURN OFF BIT 14, THE EXTERNAL
003097:                                                                                                 #         MONITOR BIT.
003098:    4222           00002                          TC       Q
003099:
003100:                                                                                                 #  LOADSTAT       +0      INACTIVE (WAITING FOR DATA).  SET BY NVSUB
003101:                                                                                                 #                 +1      PROCEED NO DATA.  SET BY SPECIAL VERB
003102:                                                                                                 #                 -1      TERMINATE.  SET BY SPECIAL VERB.
003103:                                                                                                 #                 -0      DATA IN.        SET BY END OF LOAD ROUTINE.
003104:                                                                                                 #                         OR RESEQUENCE.  SET BY VERB 32
003105:
003106:                                                                                                 #  L TO ENDIDLE (FIXED FIXED).
003107:                                                                                                 #  ROUTINES THAT REQUEST LOADS THROUGH NVSUB SHOULD USE ENDIDLE WHILE
003108:                                                                                                 #  WAITING FOR THE DATA TO BE LOADED.  ENDIDLE PUTS CURRENT JOB TO SLEEP.
003109:                                                                                                 #  ENDIDLE CANNOT BE CALLED FROM ERASABLE OR F/F MEMORY,
003110:                                                                                                 #  SINCE JOB SLEEP AND JOBWAKE CAN HANDLE ONLY FIXED BANKS.
003111:                                                                                                 #  RECALTST TESTS LOADSTAT AND WAKES JOB UP TO,
003112:                                                                                                 #         L+1     FOR TERMINATE
003113:                                                                                                 #         L+2     FOR PROCEED WITHOUT DATA
003114:                                                                                                 #         L+3     FOR DATA IN, OR RESEQUENCE
003115:                                                                                                 #  IT DOES NOTHING IF LOADSTAT INDICATES WAITING FOR DTA.
003116:                                                                                                 #  Page 373
003117:
003118:                                                                                                 #  ENDIDLE ABORTS (WITH CODE 1206) IF A SECOND JOB ATTEMPTS TO GO TO SLEEP
003119:                                                                                                 #  IN PINBALL.  IN PARTICULAR, IF AN ATTEMPT IS MADE TO GO TO ENDIDLE WHEN
003120:                                                                                                 #         1)      CADRSTOR NOT= +0.  THIS IS THE CASE WHERE THE CAPACITY OF ENDIDLE IS
003121:                                                                                                 #                 EXCEEDED.  (+-NZ INDICATES A JOB IS ALREADY ASLEEP DUE TO ENDIDDLE.)
003122:                                                                                                 #         2)      DSPLIST NOT= +0.  THIS INDICATES A JOB IS ALREADY ASLEEP DUE TO
003123:                                                                                                 #                 NVSUBUSY.
003124:
003125:    4223           22002        ENDIDLE           LXCH     Q                                     #  RETURN ADDRESS INTO L.
003126:    4224           04234                          TC       ISCADR+0                              #  ABORT IF CADRSTOR NOT= +0.
003127:    4225           04240                          TC       ISLIST+0                              #  ABORT IF DSPLIST NOT= +0
003128:    4226           30001                          CA       L                                     #  DON'T SET DSPLOC TO 1 SO CAN USE
003129:    4227           75054                          MASK     LOW10                                 #  ENDIDLE WITH NVSUB INITIATE MONITOR.
003130:    4230           60004                          AD       FBANK                                 #  SAME STRATEGY FOR CADR AS MAKECADR.
003131:    4231           55042                          TS       CADRSTOR
003132:    4232           05175                          TC       JOBSLEEP
003133:
003134:    4233           05217        ENDINST           TC       ENDOFJOB
003135:
003136:    4234           11042        ISCADR+0          CCS      CADRSTOR                              #  ABORTS (CODE 01206) IF CADRSTOR NOT= +0.
003137:    4235           04243                          TC       DSPABORT                              #  RETURNS IF CADRSTOR = +0.
003138:    4236           00002                          TC       Q
003139:    4237           04243                          TC       DSPABORT
003140:
003141:    4240           11043        ISLIST+0          CCS      DSPLIST                               #  ABORTS (CODE 01206) IF DSPLIST NOT= +0.
003142:    4241           04243                          TC       DSPABORT                              #  RETURNS IF DSPLIST = +0.
003143:    4242           00002                          TC       Q
003144:    4243           05721        DSPABORT          TC       P00DOO
003145:    4244           01206                          OCT      01206
003146:
003147:                                                                                                 #  JAMTERM ALLOWS PROGRAMS TO PERFORM THE TERMINATE FUNCTION.
003148:                                                                                                 #  IT DOES ENDOFJOB.
003149:
003150:    4245           34215        JAMTERM           CAF      PINSUPBT
003151:    4246           00006                          EXTEND
003152:    4247           01007                          WRITE    SUPERBNK
003153:    4250           34256                          CAF      34DEC
003154:    4251           55013                          TS       REQRET                                #  LEAVE ENTER SET FOR ENTPASS0.
003155:    4252           44374                          CS       VD1
003156:    4253           54777                          TS       DSPCOUNT
003157:    4254           04701                          TC       POSTJUMP
003158:    4255           61355                          CADR     VBTERM
003159:
003160:    4256           00042        34DEC             DEC      34         B-14
003161:
003162:                                                                                                 #  JAMPROC ALLOWS PROGRAMS TO PERFORM THE PROCEED/PROCEED WITHOUT DATA
003163:                                                                                                 #  FUNCTION.  IT DOES ENDOFJOB.
003164:                                                                                                 #  Page 374
003165:
003166:    4257           34215        JAMPROC           CAF      PINSUPBT
003167:    4260           00006                          EXTEND
003168:    4261           01007                          WRITE    SUPERBNK
003169:    4262           34270                          CAF      33DEC
003170:    4263           55013                          TS       REQRET                                #  LEAVE ENTER SET FOR ENTPASS0.
003171:    4264           44374                          CS       VD1
003172:    4265           54777                          TS       DSPCOUNT
003173:    4266           04701                          TC       POSTJUMP
003174:    4267           61347                          CADR     VBPROC
003175:
003176:    4270           00041        33DEC             DEC      33         B-14
003177:
003178:                                                                                                 #  BLANKSUB BLANKS ANY COMBINATION OF R1, R2, R3.
003179:                                                                                                 #  CALL WITH BLANKING CODE IN A.
003180:                                                                                                 #  BIT1=1 BLANKS R1, BIT2=1 BLANKS R2, BIT3=1 BLANKS R3.
003181:                                                                                                 #  ANY COMBINATION OF THESE BITS IS ACCEPTED.
003182:
003183:                                                                                                 #  DSPCOUNT IS RESTORED TO STATE IT WAS IN BEFORE BLANKSUB WAS EXECUTED.
003184:
003185:    4271           75023        BLANKSUB          MASK     SEVEN
003186:    4272           54123                          TS       NVTEMP                                #  STORE BLANKING CODE IN NVTEMP.
003187:    4273           35002                          CAF      BIT14
003188:    4274           71021                          MASK     MONSAVE1                              #  EXTERNAL MONITOR BIT
003189:    4275           61012                          AD       DSPLOCK
003190:    4276           10000                          CCS      A
003191:    4277           00002                          TC       Q                                     #  DSP SYST BLOCKED.  RET TO 1+ CALLING LOC
003192:    4300           24002                          INCR     Q                                     #  DSP SYST AVAILABLE
003193:                                                                                                 #  SET RETURN FOR 2+ CALLING LOC
003194:    4301           10123                          CCS      NVTEMP
003195:    4302           14304                          TCF      +2
003196:    4303           00002                          TC       Q                                     #  NOTHING TO BLANK.  RET TO 2+ CALLING LOC
003197:    4304           22002                          LXCH     Q                                     #  SET RETURN FOR 2 + CALLING LOC
003198:    4305           34316                          CAF      BLNKBBNK
003199:    4306           56006                          XCH      BBANK
003200:    4307           00006                          EXTEND
003201:    4310           04007                          ROR      SUPERBNK                              #  SAVE OLD SUPERBITS.
003202:    4311           52131                          DXCH     BUF
003203:    4312           34215                          CAF      PINSUPBT
003204:    4313           00006                          EXTEND
003205:    4314           01007                          WRITE    SUPERBNK
003206:    4315           03412                          TC       BLNKSUB1
003207:
003208:    4316     0777                                 EBANK=   DSPCOUNT
003209:    4316           60101        BLNKBBNK          BBCON    BLNKSUB1
003210:    4317                        ENDBLFF           EQUALS
003211:
003212: 40,3412                                          SETLOC   ENDRELDS
003213: 40,3412                                          COUNT    40/PIN
003214:
003215:                                                                                                 #  Page 375
003216: 40,3412           30777        BLNKSUB1          CA       DSPCOUNT                              #  SAVE OLD DSPCOUNT FOR LATER RESTORATION
003217: 40,3413           54132                          TS       BUF        +2
003218: 40,3414           35017                          CAF      BIT1                                  #  TEST BIT1.  SEE IF R1 TO BE BLANKED.
003219: 40,3415           03434                          TC       TESTBIT
003220: 40,3416           34333                          CAF      R1D1
003221: 40,3417           02436                          TC       5BLANK     -1
003222: 40,3420           35016                          CAF      BIT2                                  #  TEST BIT2.  SEE IF R2 TO BE BLANKED.
003223: 40,3421           03434                          TC       TESTBIT
003224: 40,3422           34334                          CAF      R2D1
003225: 40,3423           02436                          TC       5BLANK     -1
003226: 40,3424           35015                          CAF      BIT3                                  #  TEST BIT3.  SEE IF R3 TO BE BLANKED.
003227: 40,3425           03434                          TC       TESTBIT
003228: 40,3426           34335                          CAF      R3D1
003229: 40,3427           02436                          TC       5BLANK     -1
003230: 40,3430           30132                          CA       BUF        +2                         #  RESTORE DSPCOUNT TO STATE IT HAD
003231: 40,3431           54777                          TS       DSPCOUNT                              #         BEFORE BLANKSUB.
003232: 40,3432           52131                          DXCH     BUF                                   #  CALL L+2 DIRECTORY.
003233: 40,3433           05230                          TC       SUPDXCHZ   +1                         #  DTCB WITH SUPERBIT SWITCHING
003234:
003235: 40,3434           70123        TESTBIT           MASK     NVTEMP                                #  NVTEMP CONTAINS BLANKING CODE
003236: 40,3435           10000                          CCS      A
003237: 40,3436           00002                          TC       Q                                     #  IF CURRENT BIT = 1, RETURN TO L+1.
003238: 40,3437           50002                          INDEX    Q                                     #  IF CURRENT BIT = 0, RETURN TO L+3.
003239: 40,3440           00002                          TC       2
003240:
003241: 40,3441                        ENDBSUB1          EQUALS
003242:
003243:                                                                                                 #  DSPMM DOES NOT DISPLAY MODREG DIRECTLY.  IT PUTS IN EXEC REQUEST WITH
003244:                                                                                                 #  PRIO 30000 FOR DSPMMJB AND RETURNS TO CALLER.
003245:
003246:                                                                                                 #  IF MODREG CONTAINS -0, DSPMMJB BLANKS THE MODE LIGHTS.
003247:
003248:                                                                                                 #  DSPMM MUST BE IN BANK 27 OR LOWER, SO IT CAN BE CALLED VIA BANKCALL.
003249:
003250: 07,2441                                          BANK     7
003251: 04,2000                                          SETLOC   PINBALL4
003252: 04,2000                                          BANK
003253:
003254: 04,2566                                          COUNT    07/PIN
003255:
003256: 04,2566           56002        DSPMM             XCH      Q
003257: 04,2567           54154                          TS       MPAC
003258: 04,2570           00004                          INHINT
003259: 04,2571           34371                          CAF      CHRPRIO
003260: 04,2572           05134                          TC       NOVAC
003261: 04,2573     0777                                 EBANK=   DSPCOUNT
003262: 04,2573           03441 60101                    2CADR    DSPMMJB
003263:
003264: 04,2575           00003                          RELINT
003265:                                                                                                 #  Page 376
003266: 04,2576           00154        ENDSPMM           TC       MPAC
003267:
003268:                                                                                                 #  DSPMM PLACE MAJOR MODE CODE INTO MODREG
003269:
003270: 40,3441                                          SETLOC   ENDBSUB1
003271:
003272: 40,3441                                          COUNT    40/PIN
003273:
003274: 40,3441           34376        DSPMMJB           CAF      MD1                                   #  GETS HERE THRU DSPMM
003275: 40,3442           56777                          XCH      DSPCOUNT
003276: 40,3443           54140                          TS       DSPMMTEM                              #  SAVE DSPCOUNT
003277: 40,3444           11011                          CCS      MODREG
003278: 40,3445           65017                          AD       ONE
003279: 40,3446           03213                          TC       DSPDECVN                              #  IF MODREG IS + OR +0, DISPLAY MODREG
003280: 40,3447           03451                          TC       +2                                    #  IF MODREG IS -NZ, DO NOTHING
003281: 40,3450           02502                          TC       2BLANK                                #  IF MODREG IS -0, BLANK MM
003282: 40,3451           56140                          XCH      DSPMMTEM                              #  RESTORE DSPCOUNT
003283: 40,3452           54777                          TS       DSPCOUNT
003284: 40,3453           05217                          TC       ENDOFJOB
003285:
003286:                                                                                                 #  RECALTST IS ENTERED DIRECTLY AFTER DATA IS LOADED (OR RESEQUENCE VERB IS
003287:                                                                                                 #  EXECUTED), TERMINATE VERB IS EXECUTED, OR PROCEED WITHOUT DATA VERB IS
003288:                                                                                                 #  EXECUTED.  IT WAKES UP JOB THAT DID TC ENDIDLE.
003289:                                                                                                 #
003290:                                                                                                 #  IF CADRSTOR NOT= +0, IT PUTS +0 INTO DSPLOCK, AND TURNS OFF KEY RLSE
003291:                                                                                                 #  LIGHT IF DSPLIST IS EMPTY (LEAVES KEY RLSE LIGHT ALONE IF NOT EMPTY).
003292:
003293: 40,3454           11042        RECALTST          CCS      CADRSTOR
003294: 40,3455           03457                          TC       RECAL1
003295: 40,3456           05217                          TC       ENDOFJOB                              #  NORMAL EXIT IF KEYBOARD INITIATED
003296: 40,3457           35021        RECAL1            CAF      ZERO
003297: 40,3460           57042                          XCH      CADRSTOR
003298: 40,3461           00004                          INHINT
003299: 40,3462           05201                          TC       JOBWAKE
003300: 40,3463           11014                          CCS      LOADSTAT
003301: 40,3464           03506                          TC       DOPROC                                #  + PROCEED WITHOUT DATA
003302: 40,3465           05217                          TC       ENDOFJOB                              #  PATHOLOGICAL CASE EXIT
003303: 40,3466           03504                          TC       DOTERM                                #  -  TERMINATE
003304: 40,3467           35016                          CAF      TWO                                   #  -0 DATA IN OR RESEQUENCE
003305: 40,3470           50064        RECAL2            INDEX    LOCCTR
003306: 40,3471           60164                          AD       LOC                                   #  LOC IS + FOR BASIC JOBS
003307: 40,3472           50064                          INDEX    LOCCTR
003308: 40,3473           54164                          TS       LOC
003309: 40,3474           31002                          CA       NOUNREG                               #  SAVE VERB IN MPAC, NOUN IN MPAC+1 AT
003310: 40,3475           54001                          TS       L                                     #  TIME OF RESPONSE TO ENDIDLE FOR
003311: 40,3476           31001                          CA       VERBREG                               #  POSSIBLE LATER TESTING BY JOB THAT HAS
003312: 40,3477           50064                          INDEX    LOCCTR                                #  BEEN WAKED UP.
003313: 40,3500           52155                          DXCH     MPAC
003314: 40,3501           00003                          RELINT
003315:                                                                                                 #  Page 377
003316: 40,3502           04473        RECAL3            TC       RELDSP
003317: 40,3503           05217                          TC       ENDOFJOB
003318:
003319: 40,3504           35021        DOTERM            CAF      ZERO
003320: 40,3505           03470                          TC       RECAL2
003321:
003322: 40,3506           35017        DOPROC            CAF      ONE
003323: 40,3507           03470                          TC       RECAL2
003324:
003325: 40,3510  30,2000                                 SBANK=   LOWSUPER
003326:                                                                                                 #  Page 378
003327:                                                                                                 #  MISCELLANEOUS SERVICE ROUTINES IN FIXED/FIXED
003328:
003329:    4317                                          SETLOC   ENDBLFF
003330:
003331:    4317                                          COUNT    02/PIN
003332:
003333:                                                                                                 #  SETNCADR       E CADR ARRIVES IN A.  IT IS STORED IN NOUNCADR.  EBANK BITS
003334:                                                                                                 #                 ARE SET.  E ADRES IS DERIVED AND PUT INTO NOUNADD.
003335:
003336:    4317           55017        SETNCADR          TS       NOUNCADR                              #  STORE ECADR
003337:    4320           54003                          TS       EBANK                                 #  SET EBANK BITS
003338:    4321           74373                          MASK     LOW8
003339:    4322           65051                          AD       OCT1400
003340:    4323           54145                          TS       NOUNADD                               #  PUT E ADRES INTO NOUNADD
003341:    4324           00002                          TC       Q
003342:
003343:                                                                                                 #  SETNADD        GETS E CADR FROM NOUNCADR, SETS EBANK BITS, DERIVES
003344:                                                                                                 #                 E ADRES AND PUTS IT INTO NOUNADD.
003345:
003346:    4325           31017        SETNADD           CA       NOUNCADR
003347:    4326           14320                          TCF      SETNCADR   +1
003348:
003349:                                                                                                 #  SETEBANK       E CADR ARRIVES IN A.  EBANK BITS ARE SET.  E ADRES IS
003350:                                                                                                 #                 DERIVED AND LEFT IN A.
003351:
003352:    4327           54003        SETEBANK          TS       EBANK                                 #  SET EBANK BITS
003353:    4330           74373                          MASK     LOW8
003354:    4331           65051                          AD       OCT1400                               #  E ADRES LEFT IN A
003355:    4332           00002                          TC       Q
003356:
003357:    4333           00016        R1D1              OCT      16                                    #  THESE 3 CONSTANTS FORM A PACKED TABLE.
003358:    4334           00011        R2D1              OCT      11                                    #  DON'T SEPARATE.
003359:    4335           00004        R3D1              OCT      4
003360:
003361:    4336           54020        RIGHT5            TS       CYR
003362:    4337           40020                          CS       CYR
003363:    4340           40020                          CS       CYR
003364:    4341           40020                          CS       CYR
003365:    4342           40020                          CS       CYR
003366:    4343           56020                          XCH      CYR
003367:    4344           00002                          TC       Q
003368:
003369:    4345           54022        LEFT5             TS       CYL
003370:    4346           40022                          CS       CYL
003371:    4347           40022                          CS       CYL
003372:    4350           40022                          CS       CYL
003373:                                                                                                 #  Page 379
003374:    4351           40022                          CS       CYL
003375:    4352           56022                          XCH      CYL
003376:    4353           00002                          TC       Q
003377:
003378:    4354           60000        SLEFT5            DOUBLE
003379:    4355           60000                          DOUBLE
003380:    4356           60000                          DOUBLE
003381:    4357           60000                          DOUBLE
003382:    4360           60000                          DOUBLE
003383:    4361           00002                          TC       Q
003384:
003385:    4362           00037        LOW5              OCT      37                                    #  THESE 3 CONSTANTS FORM A PACKED TABLE.
003386:    4363           01740        MID5              OCT      1740                                  #  DON'T SEPARATE.
003387:    4364           76000        HI5               OCT      76000                                 #  MUST STAY HERE
003388:
003389:    4365           05134        TCNOVAC           TC       NOVAC
003390:    4366           05245        TCWAIT            TC       WAITLIST
003391:    4367           05324        TCTSKOVR          TC       TASKOVER
003392:    4370           05147        TCFINDVC          TC       FINDVAC
003393:
003394:    4371           30000        CHRPRIO           OCT      30000                                 #  EXEC PRIORITY OF CHARIN
003395:
003396:    4372           03777        LOW11             OCT      3777
003397:    4373     4372               B12-1             EQUALS   LOW11
003398:    4373           00377        LOW8              OCT      377
003399:
003400:    4374           00023        VD1               OCT      23                                    #  THESE 3 CONSTANTS FORM A PACKED TABLE.
003401:    4375           00021        ND1               OCT      21                                    #  DON'T SEPARATE.
003402:    4376           00025        MD1               OCT      25
003403:
003404:    4377           00012        BINCON            DEC      10         B-14
003405:
003406:    4400           35011        FALTON            CA       BIT7                                  #  TURN ON OPERATOR ERROR LIGHT.
003407:    4401           00006                          EXTEND
003408:    4402           05011                          WOR      DSALMOUT                              #  BIT 7 OF CHANNEL 11
003409:    4403           00002                          TC       Q
003410:
003411:    4404           45011        FALTOF            CS       BIT7                                  #  TURN OFF OPERATOR ERROR LIGHT
003412:    4405           00006                          EXTEND
003413:    4406           03011                          WAND     DSALMOUT                              #  BIT 7 OF CHANNEL 11
003414:    4407           00002                          TC       Q
003415:
003416:    4410           35013        RELDSPON          CAF      BIT5                                  #  TURN ON KEY RELEASE LIGHT
003417:    4411           00006                          EXTEND
003418:    4412           05011                          WOR      DSALMOUT                              #  BIT 5 OF CHANNEL 11
003419:    4413           00002                          TC       Q
003420:
003421:                                                                                                 #  Page 380
003422:    4414           00006        LODSAMPT          EXTEND
003423:    4415           30025                          DCA      TIME2
003424:    4416           52014                          DXCH     SAMPTIME
003425:    4417           00002                          TC       Q
003426:
003427:    4420           00006        TPSL1             EXTEND                                         #  SHIFTS MPAC, +1, +2 LEFT 1
003428:    4421           30156                          DCA      MPAC       +1                         #  LEAVES OVFIND SET TO +/- 1 FOR OF/UF
003429:    4422           20156                          DAS      MPAC       +1
003430:    4423           60154                          AD       MPAC
003431:    4424           26154                          ADS      MPAC
003432:    4425           54007                          TS       7                                     #  TS A DOES NOT CHANGE A ON OF/UF.
003433:    4426           00002                          TC       Q                                     #  NO NET OF/UF
003434:    4427           54162                          TS       MPAC+6                                #  MPAC +6 SET TO +/- 1 FOR OF/UF
003435:    4430           00002                          TC       Q
003436:
003437:                                                                                                 #  IF MPAC, +1 ARE EACH +NZ OR +0 AND C(A)=-0, SHORTMP WRONGLY GIVES +0.
003438:                                                                                                 #  IF MPAC, +1 ARE EACH -NZ OR -0 AND C(A)=+0, SHORTMP WRONGLY GIVES +0.
003439:                                                                                                 #  PRSHRTMP FIXES FIRST CASE ONLY, BY MERELY TESTING C(A) AND IF IT = -0,
003440:                                                                                                 #  SETTING RESULT TO -0.
003441:
003442:                                                                                                 #  (DO NOT USE PRSHRTMP UNLESS MPAC, +1 ARE EACH +NZ OR +0, AS THEY ARE
003443:                                                                                                 #  WHEN THEY CONTAIN THE SF CONSTANTS.)
003444:
003445:    4431           54135        PRSHRTMP          TS       MPTEMP
003446:    4432           10000                          CCS      A
003447:    4433           30135                          CA       MPTEMP                                #  C(A) +,  DO REGULAR SHORTMP
003448:    4434           17257                          TCF      SHORTMP    +1                         #  C(A) +0, DO REGULAR SHORTMP
003449:    4435           14433                          TCF      -2                                    #  C(A) -,  DO REGULAR SHORTMP
003450:    4436           45021                          CS       ZERO                                  #  C(A) -0, FORCE RESULT TO -0 AND RETURN.
003451:    4437           54154                          TS       MPAC
003452:    4440           54155                          TS       MPAC       +1
003453:    4441           54156                          TS       MPAC       +2
003454:    4442           00002                          TC       Q
003455:
003456:    4443           35012        FLASHON           CAF      BIT6                                  #  TURN ON V/N FLASH
003457:    4444           00006                          EXTEND                                         #  BIT 6 OF CHANNEL 11
003458:    4445           05011                          WOR      DSALMOUT
003459:    4446           00002                          TC       Q
003460:
003461:    4447           45012        FLASHOFF          CS       BIT6                                  #  TURN OFF V/N FLASH
003462:    4450           00006                          EXTEND
003463:    4451           03011                          WAND     DSALMOUT                              #  BIT 6 OF CHANNEL 11
003464:    4452           00002                          TC       Q
003465:
003466:                                                                                                 #  Page 381
003467:                                                                                                 #  INTERNAL USE OF KEYBOARD AND DISPLAY PROGRAM.
003468:
003469:                                                                                                 #  USER MUST SCHEDULE CALLS TO NVSUB SO THAT THERE IS NO CONFLICT OF USE OR
003470:                                                                                                 #  CONFUSION TO OPERATOR.  THE OLD CRABLOCK (INTERNAL/INTERNAL INTERLOCK)
003471:                                                                                                 #  HAS BEEN REMOVED AND THE INTERNAL USER NO LONGER HAS THE PROTECTION THIS
003472:                                                                                                 #  OFFERED.
003473:
003474:                                                                                                 #  THERE ARE TWO WAYS A JOB CAN BE PUT TO SLEEP BY TEH KEYBOARD + DISPLAY
003475:                                                                                                 #  PROGRAM.       1)      BY ENDIDLE
003476:                                                                                                 #                 2)      BY NVSUBUSY
003477:                                                                                                 #  THE BASIC CONVENTION IS THAT ONLY ONE JOB WILL BE PERITTED ASLEEP VIA
003478:                                                                                                 #  THE KEYBOARD + DISPLAY PROGRAM AT A TIME.  IF A JOB ATTEMPTS TO GO TO
003479:                                                                                                 #  SLEEP BY MEANS OF (1) OR (2) AND THERE IS ALREADY AJOB ASLEEP THAT WAS
003480:                                                                                                 #  PUT TO SLEEP BY (1) OR (2), THEN AN ABORT IS CAUSED.
003481:
003482:                                                                                                 #  THE CALLING SEQUENCE FOR NVSUB IS
003483:                                                                                                 #                         CAF             V/N
003484:                                                                                                 #         L               TC              NVSUB
003485:                                                                                                 #         L+1             RETURN HERE IF OPERATOR HAS INTERVENED
003486:                                                                                                 #         L+2             RETURN HERE AFTER EXECUTION
003487:
003488:                                                                                                 #  A ROUTINE CALLED NVSUBUSY IS PROVIDED (USE IS OPTIONAL) TO PUT
003489:                                                                                                 #  YOUR JOB TO SLEEP UNTIL THE OPERATOR RELEASES THE KEYBOARD + DISPLAY
003490:                                                                                                 #  SYSTEM.  NVSUBUSY ALSO TURNS ON THE KEY RELEASE LIGHT.
003491:                                                                                                 #  NVSUBUSY CANNOT BE CALLED FROM ERASABLE OR F/F MEMORY,
003492:                                                                                                 #  SINCE JOBSLEEP AND JOBWAKE CAN HANDLE ONLY FIXED BANKS.
003493:
003494:                                                                                                 #  THE CALLING SEQUENCE IS
003495:                                                                                                 #         CAF     WAKEFCADR
003496:                                                                                                 #         TC      NVSUBUSY
003497:                                                                                                 #  .
003498:
003499:                                                                                                 #  NVSUBUSY IS INTENDED FOR USE WHEN AN INTERNAL PROGRAM FINDS THE OPERATOR
003500:                                                                                                 #  IS NOT USING THE KEYBOARD + DISPLAY PROGRAM (BY HIS OWN INITIATION).  IT IS
003501:                                                                                                 #  NOT INTENDED FOR USE WHEN ONE INTERNAL PROGRAM FINDS ANOTHER INTERNAL
003502:                                                                                                 #  PROGRAM USING THE KEYBOARD + DISPLAY PROGRAM.
003503:
003504:                                                                                                 #  NVSUBUSY ABORTS (WITH CODE 01206) IF A SECOND JOB ATTEMPTS TO GO TO
003505:                                                                                                 #  SLEEP IN PINBALL.  IN PARTICULAR, IF AN ATTEMPT IS MAKE TO GO TO NVSUBUSY
003506:                                                                                                 #  WHEN
003507:
003508:                                                                                                 #         1)      DSPLIST NOT= +0.  THIS IS THE CASE WHERE THE CAPACITY FO THE DSPLIST
003509:                                                                                                 #                 IS EXCEEDED.
003510:                                                                                                 #         2)      CADRSTOR NOT= +0.  THIS INDICATES THAT A JOB IS ALREADY USING
003511:                                                                                                 #  Page 382
003512:                                                                                                 #  ENDIDLE.  (+-NZ INDICATES A JOB IS ALREADY ASLEEP DUE TO ENDIDLE.)
003513:
003514:    4453           44460        PRENVBSY          CS       2K+3                                  #  SPECIAL ENTRANCE FOR ROUTINES IN FIXED
003515:    4454           60002                          AD       Q                                     #  BANKS ONLY DESIRING THE FCADR OF (LOC
003516:    4455           60004                          AD       FBANK                                 #  FROM WHICH THE TC PRENVBSY WAS DONE) -2
003517:    4456           04701        NVSUBUSY          TC       POSTJUMP                              #  TO BE ENTERED.
003518:    4457           10577                          CADR     NVSUBSY1
003519:    4460           02003        2K+3              OCT      2003
003520:
003521:                                                                                                 #  NVSUBSY1 MUST BE IN BANK 27 OR LOWER, SO IT WILL PUT CALLER TO SLEEP
003522:                                                                                                 #  WITH HIS PROPER SUPERBITS.
003523:
003524: 04,2577                                          SETLOC   ENDSPMM    +1
003525: 04,2577                                          COUNT    07/PIN
003526:
003527: 04,2577           54001        NVSUBSY1          TS       L
003528: 04,2600           04234                          TC       ISCADR+0                              #  ABORT IF CADRSTOR NOT= +0.
003529: 04,2601           04240                          TC       ISLIST+0                              #  ABORT IF DSPLIST NOT= +0.
003530: 04,2602           04410                          TC       RELDSPON
003531: 04,2603           30001                          CA       L
003532: 04,2604           55043                          TS       DSPLIST
003533: 04,2605           05175        ENDNVBSY          TC       JOBSLEEP
003534:
003535:                                                                                                 #  NVSBWAIT IS A SPECIAL ENTRANCE FOR ROUTINES IN FIXED BANKS ONLY. IF
003536:                                                                                                 #  SYSTEM IS NOT BUSY, IT EXECUTES V/N AND RETURNS TO L+1 (L= LOC FROM
003537:                                                                                                 #  WHICH THE TC NVSBWAIT WAS DONE).  IF SYSTEM IS BUSY, IT PUTS CALLING JOB
003538:                                                                                                 #  TO SLEEP WITH L-1 GOING INTO LIST FOR EVENTUAL WAKING UP WHEN SYSTEM
003539:                                                                                                 #  IS NOT BUSY.
003540:
003541:    4461                                          SETLOC   NVSUBUSY   +3
003542:    4461                                          COUNT    02/PIN
003543:
003544:    4461           22007        NVSBWAIT          LXCH     7                                     #  ZERO NVMONOPT OPTIONS
003545:    4462           54123                          TS       NVTEMP
003546:    4463           35002                          CAF      BIT14
003547:    4464           71021                          MASK     MONSAVE1                              #  EXTERNAL MONITOR BIT
003548:    4465           61012                          AD       DSPLOCK
003549:    4466           10000                          CCS      A
003550:    4467           14471                          TCF      NVSBWT1                               #  BUSY
003551:    4470           14200                          TCF      NVSBCOM                               #  FREE. NVSUB WILL SAVE L+1 FOR RETURN
003552:                                                                                                 #  AFTER EXECUTION.
003553:    4471           24002        NVSBWT1           INCR     Q                                     #  L+2.  PRENVBSY WILL PUT L-1 INTO LIST AND
003554:    4472           14453                          TCF      PRENVBSY                              #  GO TO SLEEP.
003555:
003556:                                                                                                 #  RELDSP IS USED BY VBPROC, VBTERM, VBRQEXEC, VBRQWAIT, VBRELDSP, EXTENDED
003557:                                                                                                 #  VERB DISPATCHER, VBRESEQ, RECALTST.
003558:
003559:                                                                                                 #  RELDSP1 IS USED BY MONITOR SET UP, VBRELDSP.
003560:
003561:    4473           56002        RELDSP            XCH      Q                                     #  SET DSPLOCK TO +0, TURN RELDSP LIGHT
003562:                                                                                                 #  Page 383
003563:    4474           54144                          TS       RELRET                                #  OFF, SEARCH DSPLIST
003564:    4475           45002                          CS       BIT14
003565:    4476           00004                          INHINT
003566:    4477           71021                          MASK     MONSAVE1
003567:    4500           55021                          TS       MONSAVE1                              #  TURN OFF EXTERNAL MONITOR BIT
003568:    4501           11043                          CCS      DSPLIST
003569:    4502           04504                          TC       +2
003570:    4503           04507                          TC       RELDSP2                               #  LIST EMPTY
003571:    4504           35021                          CAF      ZERO
003572:    4505           57043                          XCH      DSPLIST
003573:    4506           05201                          TC       JOBWAKE
003574:    4507           00003        RELDSP2           RELINT
003575:    4510           45013                          CS       BIT5                                  #  TURN OFF KEY RELEASE LIGHT
003576:    4511           00006                          EXTEND                                         #  (BIT 5 OF CHANNEL 11)
003577:    4512           03011                          WAND     DSALMOUT
003578:    4513           35021                          CAF      ZERO
003579:    4514           55012                          TS       DSPLOCK
003580:    4515           00144                          TC       RELRET
003581:    4516           56002        RELDSP1           XCH      Q                                     #  SET DSPLOCK TO +0.  NO DSPLIST SEARCH.
003582:    4517           54144                          TS       RELRET                                #  TURN KEY RLSE LIGHT OFF IF DSPLIST IS
003583:                                                                                                 #  EMPTY.  LEAVE KEY RLSE LIGHT ALONE IF
003584:                                                                                                 #  DSPLIST IS NOT EMPTY.
003585:    4520           11043                          CCS      DSPLIST
003586:    4521           04523                          TC       +2                                    #  +      NOT EMPTY.  LEAVE KEY RLSE LIGHT ALONE.
003587:    4522           04507                          TC       RELDSP2                               #  +0     EMPTY.  TURN OFF KEY RLSE LIGHT
003588:    4523           35021                          CAF      ZERO                                  #  -      NOT EMPTY.  LEAVE KEY RLSE LIGHT ALONE
003589:    4524           55012                          TS       DSPLOCK
003590:    4525           00144                          TC       RELRET
003591:
003592:    4526                        ENDPINBF          EQUALS
003593:
003594:                                                                                                 #  Page 384
003595:                                                                                                 #  PINTEST IS NEEDED FOR AUTO CHECK OF PINBALL.
003596:
003597:    4526  43,2002               PINTEST           EQUALS   LST2FAN
003598:
003599:                                                                                                 #  Page 385
003600:                                                                                                 #  VBTSTLTS TURNS ON ALL DISPLAY PANEL LIGHTS.  AFTER 5 SEC, IT TURNS
003601:                                                                                                 #  OFF THE CAUTION AND STATUS LIGHTS.
003602:
003603: 41,3613                                          SETLOC   ENDNVSB1   +1
003604:
003605: 41,3613                                          COUNT    41/PIN
003606:
003607: 41,3613           04662        VBTSTLTS          TC       BANKCALL
003608: 41,3614           66730                          CADR     CHKP00H
003609:
003610: 41,3615           00004                          INHINT
003611: 41,3616           45017                          CS       BIT1                                  #  SET BIT 1 OF IMODES33 SO IMUMON WON'T
003612: 41,3617           71321                          MASK     IMODES33                              #  TURN OUT ANY LAMPS.
003613: 41,3620           65017                          AD       BIT1
003614: 41,3621           55321                          TS       IMODES33
003615:
003616: 41,3622           33656                          CAF      TSTCON1                               #  TURN ON UPLINK ACTIVITY, TEMP, KEY RLSE,
003617: 41,3623           00006                          EXTEND                                         #  V/N FLASH, OPERATOR ERROR.
003618: 41,3624           05011                          WOR      DSALMOUT
003619: 41,3625           33657                          CAF      TSTCON2                               #  TURN ON NO ATT, GIMBAL LOCK, TRACKER,
003620: 41,3626           55036                          TS       DSPTAB     +11D                       #  PROG ALM.
003621: 41,3627           35006                          CAF      BIT10                                 #  TURN ON TEST ALARM OUTBIT
003622: 41,3630           00006                          EXTEND
003623: 41,3631           05013                          WOR      CHAN13
003624: 41,3632           34377                          CAF      TEN
003625: 41,3633           54117        TSTLTS1           TS       ERCNT
003626: 41,3634           43654                          CS       FULLDSP
003627: 41,3635           50117                          INDEX    ERCNT
003628: 41,3636           55023                          TS       DSPTAB
003629: 41,3637           10117                          CCS      ERCNT
003630: 41,3640           03633                          TC       TSTLTS1
003631: 41,3641           43655                          CS       FULLDSP1
003632: 41,3642           55024                          TS       DSPTAB     +1                         #  TURN ON 3 PLUS SIGNS
003633: 41,3643           55027                          TS       DSPTAB     +4
003634: 41,3644           55031                          TS       DSPTAB     +6
003635: 41,3645           35024                          CAF      ELEVEN
003636: 41,3646           55016                          TS       NOUT
003637: 41,3647           33661                          CAF      SHOLTS
003638: 41,3650           05245                          TC       WAITLIST
003639: 41,3651     1023                                 EBANK=   DSPTAB
003640: 41,3651           03662 62102                    2CADR    TSTLTS2
003641:
003642: 41,3653           05217                          TC       ENDOFJOB                              #  DSPLOCK IS LEFT BUSY (FROM KEYBOARD
003643:                                                                                                 #  ACTION) UNTIL TSTLTS3 TO INSURE THAT
003644:                                                                                                 #  LIGHTS TEST WILL BE SEEN.
003645:
003646: 41,3654           05675        FULLDSP           OCT      05675                                 #  DISPLAY ALL 8'S
003647: 41,3655           07675        FULLDSP1          OCT      07675                                 #  DISPLAY ALL 8'S AND +
003648: 41,3656           00175        TSTCON1           OCT      00175
003649:                                                                                                 #  Page 386
003650:                                                                                                 #  UPLINK ACTIVITY, TEMP, KEY RLSE,
003651:                                                                                                 #  V/N FLASH, OPERATOR ERROR.
003652: 41,3657           40650        TSTCON2           OCT      40650                                 #  DSPTAB+11D BITS 4,6,8,9,
003653:                                                                                                 #  NO ATT, GIMBAL LOCK, TRACKER, PROG ALM.
003654: 41,3660           00115        TSTCON3           OCT      00115                                 #  CHAN 11 BITS 1, 3, 4, 7.
003655:                                                                                                 #  UPLINK ACITIVY, TEMP, OPERATOR ERROR.
003656: 41,3661           00764        SHOLTS            OCT      764                                   #  5 SEC
003657:
003658: 41,3662           34371        TSTLTS2           CAF      CHRPRIO                               #  CALLED BY WAITLIST
003659: 41,3663           05134                          TC       NOVAC
003660: 41,3664     1023                                 EBANK=   DSPTAB
003661: 41,3664           03667 62102                    2CADR    TSTLTS3
003662:
003663: 41,3666           05324                          TC       TASKOVER
003664:
003665: 41,3667           43660        TSTLTS3           CS       TSTCON3                               #  CALLED BY EXECUTIVE
003666: 41,3670           00004                          INHINT
003667: 41,3671           00006                          EXTEND                                         #  TURN OFF UPLINK ACTIVITY, TEMP,
003668: 41,3672           03011                          WAND     DSALMOUT                              #  OPERATOR ERROR.
003669: 41,3673           45006                          CS       BIT10                                 #  TURN OFF TEST ALARM OUTBIT
003670: 41,3674           00006                          EXTEND
003671: 41,3675           03013                          WAND     CHAN13
003672: 41,3676           35014                          CAF      BIT4                                  #  MAKE NO ATT FOLLOW BIT 4 OF CHANNEL 12
003673: 41,3677           00006                          EXTEND                                         #         (NO TT LIGHT ON IF IN COARSE ALIGN)
003674: 41,3700           02012                          RAND     CHAN12
003675: 41,3701           65001                          AD       BIT15                                 #  TURN OFF AUTO, HOLD, FREE, SPARE,
003676: 41,3702           55036                          TS       DSPTAB     +11D                       #  GIMBAL LOCK, SPARE, TRACKER, PROG ALM
003677: 41,3703           43725                          CS       13-11,1                               #  SET BITS TO INDICATE ALL LAMPS OUT. TEST
003678: 41,3704           71321                          MASK     IMODES33                              #  LIGHTS COMPLETE.
003679: 41,3705           65070                          AD       PRIO16
003680: 41,3706           55321                          TS       IMODES33
003681:
003682: 41,3707           43726                          CS       OCT55000
003683: 41,3710           71320                          MASK     IMODES30
003684: 41,3711           65067                          AD       PRIO15                                #  15000.
003685: 41,3712           55320                          TS       IMODES30
003686:
003687: 41,3713           41331                          CS       OPTMODES
003688: 41,3714           75011                          MASK     BIT7
003689: 41,3715           27331                          ADS      OPTMODES
003690: 41,3716           00003                          RELINT
003691:
003692: 41,3717           04662                          TC       BANKCALL                              #  REDISPLAY C(MODREG)
003693: 41,3720           10566                          CADR     DSPMM
003694: 41,3721           04220                          TC       KILMONON                              #  TURN ON KILL MONITOR BIT.
003695: 41,3722           04447                          TC       FLASHOFF                              #  TURN OFF V/N FLASH.
003696: 41,3723           04701                          TC       POSTJUMP                              #  DOES RELDSP AND GOES TO PINBRNCH IF
003697: 41,3724           61376                          CADR     TSTLTS4                               #  ENDIDLE IS AWAITING OPERATOR RESPONSE.
003698:                                                                                                 #  Page 387
003699: 41,3725           16001        13-11,1           OCT      16001
003700: 41,3726           55000        OCT55000          OCT      55000
003701: 41,3727                        ENDPINS2          EQUALS
003702:
003703:                                                                                                 #  Page 388
003704:                                                                                                 #  ERROR LIGHT RESET (RSET) TURNS OFF:
003705:                                                                                                 #  UPLINK ACTIVITY, AUTO, HOLD, FREE, OPERATOR ERROR,
003706:                                                                                                 #  PROG ALM, TRACKER FAIL.
003707:
003708:                                                                                                 #  LEAVES GIMBAL LOCK AND NO ATT ALONE.
003709:                                                                                                 #
003710:                                                                                                 #  IT ALSO ZEROS THE `TEST ALARM' OUT BIT, WHICH TURNS OFF STBY, RESTART.
003711:                                                                                                 #  IT ALSO SETS `CAUTION RESET' TO 1.
003712:                                                                                                 #  IT ALSO FORCES BIT 12 OF ALL DSPTAB ENTRIES TO 1.
003713:
003714: 40,3510                                          SETLOC   DOPROC     +2
003715: 40,3510                                          COUNT    40/PIN
003716:
003717: 40,3510           56115        ERROR             XCH      21/22REG                              #  RESTORE ORIGINAL C(DSPLOCK).  THUS ERROR
003718: 40,3511           55012                          TS       DSPLOCK                               #  LIGHT RESET LEAVES DSPLOCK CHANGED.
003719: 40,3512           00004                          INHINT
003720: 40,3513           35006                          CAF      BIT10                                 #  TURN ON `CAUTION RESET' OUTBIT
003721: 40,3514           00006                          EXTEND
003722: 40,3515           05011                          WOR      DSALMOUT                              #  BIT10 CHAN 11
003723: 40,3516           33576                          CAF      GL+NOATT                              #  LEAVE GIMBAL LOCK AND NO ATT INTACT,
003724: 40,3517           71036                          MASK     DSPTAB     +11D                       #  TURNING OFF AUTO, HOLD, FREE,
003725: 40,3520           65001                          AD       BIT15                                 #  PROG ALARM, AND TRACKER.
003726: 40,3521           55036                          TS       DSPTAB     +11D
003727: 40,3522           45070                          CS       PRIO16                                #  RESET FAIL BITS WHICH GENERATE PROG
003728: 40,3523           71321                          MASK     IMODES33                              #  ALARM SO THAT IF THE FAILURE STILL
003729: 40,3524           65070                          AD       PRIO16                                #  EXISTS, THE ALARM WILL COME BACK.
003730: 40,3525           55321                          TS       IMODES33
003731: 40,3526           45006                          CS       BIT10
003732: 40,3527           71320                          MASK     IMODES30
003733: 40,3530           65006                          AD       BIT10
003734: 40,3531           55320                          TS       IMODES30
003735:
003736: 40,3532           41331                          CS       OPTMODES
003737: 40,3533           75011                          MASK     BIT7
003738: 40,3534           27331                          ADS      OPTMODES
003739: 40,3535           45006                          CS       BIT10                                 #  TURN OFF 'TEST ALARM' OUTBIT
003740: 40,3536           00006                          EXTEND
003741: 40,3537           03013                          WAND     CHAN13
003742: 40,3540           43574                          CS       ERCON                                 #  TURN OFF UPLINK ACTIVITY,
003743: 40,3541           00006                          EXTEND                                         #  OPERATOR ERROR.
003744: 40,3542           03011                          WAND     DSALMOUT
003745: 40,3543           34377        TSTAB             CAF      BINCON                                #  (DEC 10)
003746: 40,3544           54117                          TS       ERCNT                                 #  ERCNT = COUNT
003747: 40,3545           00004                          INHINT
003748: 40,3546           50117                          INDEX    ERCNT
003749: 40,3547           11023                          CCS      DSPTAB
003750: 40,3550           65017                          AD       ONE
003751: 40,3551           03556                          TC       ERPLUS
003752: 40,3552           65017                          AD       ONE
003753: 40,3553           40000        ERMINUS           CS       A
003754: 40,3554           73577                          MASK     NOTBIT12
003755: 40,3555           03561                          TC       ERCOM
003756:                                                                                                 #  Page 389
003757: 40,3556           40000        ERPLUS            CS       A
003758: 40,3557           73577                          MASK     NOTBIT12
003759: 40,3560           40000                          CS       A                                     #  MIGHT WANT TO RESET CLPASS, DECBRNCH,
003760: 40,3561           50117        ERCOM             INDEX    ERCNT                                 #  ETC.
003761: 40,3562           55023                          TS       DSPTAB
003762: 40,3563           00003                          RELINT
003763: 40,3564           10117                          CCS      ERCNT
003764: 40,3565           03544                          TC       TSTAB      +1
003765: 40,3566           35021                          CAF      ZERO
003766: 40,3567           54375                          TS       FAILREG
003767: 40,3570           54376                          TS       FAILREG    +1
003768: 40,3571           54377                          TS       FAILREG    +2
003769: 40,3572           55357                          TS       SFAIL
003770: 40,3573           05217                          TC       ENDOFJOB
003771:
003772: 40,3574           00104        ERCON             OCT      104                                   #  CHAN 11 BITS 3,7.
003773:                                                                                                 #  UPLINK ACTIVITY, AND OPERATOR ERROR.
003774: 40,3575           00240        BITS6,8           OCT      240
003775: 40,3576           00050        GL+NOATT          OCT      00050                                 #  NO ATT AND GIMBAL LOCK LAMPS
003776: 40,3577           73777        NOTBIT12          OCT      73777
003777:
003778: 40,3600                        ENDPINS1          EQUALS
003779:
003780: 40,3600  30,2000                                 SBANK=   LOWSUPER
003781:

End of include-file PINBALL_GAME_BUTTONS_AND_LIGHTS.agc.  Parent file is MAIN.agc


