
Source Code


000002:                                                                                                  ## Copyright:   Public domain.
000003:                                                                                                  ## Filename:    PLANETARY_INERTIAL_ORIENTATION.agc
000004:                                                                                                  ## Purpose:     Part of the source code for Colossus 2A, AKA Comanche 055.
000005:                                                                                                  ##              It is part of the source code for the Command Module's (CM)
000006:                                                                                                  ##              Apollo Guidance Computer (AGC), for Apollo 11.
000007:                                                                                                  ## Assembler:   yaYUL
000008:                                                                                                  ## Contact:     Ron Burkey <info@sandroid.org>.
000009:                                                                                                  ## Website:     www.ibiblio.org/apollo.
000010:                                                                                                  ## Pages:       1243-1251
000011:                                                                                                  ## Mod history: 2009-05-14 RSB  Adapted from the Colossus249/ file of the
000012:                                                                                                  ##                              same name, using Comanche055 page images.
000013:                                                                                                  ##              2016-12-21 RSB  Proofed comment text using octopus/ProoferComments
000014:                                                                                                  ##                              and corrected the errors found.
000015:                                                                                                  ##              2017-01-18 RSB  Fixed comment-text errors noted while diff'ing
000016:                                                                                                  ##                              vs Colossus 249.
000017:                                                                                                  ##              2017-03-16 RSB  Comment-text fixes identified in 5-way
000018:                                                                                                  ##                              side-by-side diff of Luminary 69/99/116/131/210.
000019:
000020:                                                                                                  ## This source code has been transcribed or otherwise adapted from digitized
000021:                                                                                                  ## images of a hardcopy from the MIT Museum.  The digitization was performed
000022:                                                                                                  ## by Paul Fjeld, and arranged for by Deborah Douglas of the Museum.  Many
000023:                                                                                                  ## thanks to both.  The images (with suitable reduction in storage size and
000024:                                                                                                  ## consequent reduction in image quality as well) are available online at
000025:                                                                                                  ## www.ibiblio.org/apollo.  If for some reason you find that the images are
000026:                                                                                                  ## illegible, contact me at info@sandroid.org about getting access to the
000027:                                                                                                  ## (much) higher-quality images which Paul actually created.
000028:                                                                                                  ##
000029:                                                                                                  ## Notations on the hardcopy document read, in part:
000030:                                                                                                  ##
000031:                                                                                                  ##      Assemble revision 055 of AGC program Comanche by NASA
000032:                                                                                                  ##      2021113-051.  10:28 APR. 1, 1969
000033:                                                                                                  ##
000034:                                                                                                  ##      This AGC program shall also be referred to as
000035:                                                                                                  ##                      Colossus 2A
000036:


000038:                                                                                                  #  ..... RP-TO-R SUBROUTINE .....
000039:                                                                                                  #  SUBROUTINE TO CONVERT RP (VECTOR IN PLANETARY COORDINATE SYSTEM, EITHER
000040:                                                                                                  #  EARTH-FIXED OR MOON-FIXED) TO R (SAME VECTOR IN THE BASIC REF. SYSTEM)
000041:                                                                                                  #        R = MT(T) * (RP + LP X RP)      MT = M MATRIX TRANSPOSE
000042:
000043:                                                                                                  #  CALLING SEQUENCE
000044:                                                                                                  #        L       CALL
000045:                                                                                                  #        L+1             RP-TO-R
000046:
000047:                                                                                                  #  SUBROUTINES USED
000048:                                                                                                  #        EARTHMX, MOONMX, EARTHL
000049:
000050:                                                                                                  #        ITEMS AVAILABLE FROM LAUNCH DATA
000051:                                                                                                  #                504LM = THE LIBRATION VECTOR L OF THE MOON AT TIME TIMSUBL, EXPRESSED
000052:                                                                                                  #                IN THE MOON-FIXED COORD. SYSTEM         RADIANS B0
000053:
000054:                                                                                                  #        ITEMS NECESSARY FOR SUBR. USED (SEE DESCRIPTION OF SUBR.)
000055:
000056:                                                                                                  #  INPUT
000057:                                                                                                  #        MPAC = 0 FOR EARTH, NON-ZERO FOR MOON
000058:                                                                                                  #        0-5D = RP VECTOR
000059:                                                                                                  #        6-7D = TIME
000060:
000061:                                                                                                  #  OUTPUT
000062:                                                                                                  #        MPAC = R VECTOR METERS B-29 FOR EARTH, B-27 FOR MOON
000063:
000064: 26,2000                                           SETLOC   PLANTIN
000065: 26,2000                                           BANK
000066:
000067: 26,3344                                           COUNT*   $$/LUROT
000068:
000069: 26,3344           46020        RP-TO-R            STQ      BHIZ
000070: 26,3345           00050                                    RPREXIT
000071: 26,3346           55361                                    RPTORA
000072: 26,3347           77624                           CALL                                           #  COMPUTE M MATRIX FOR MOON
000073: 26,3350           55421                                    MOONMX                                #  LP=LM FOR MOON        RADIANS B0
000074: 26,3351           77775                           VLOAD
000075: 26,3352           02012                                    504LM
000076: 26,3353           53235        RPTORB             VXV      VAD
000077: 26,3354           00001                                    504RPR
000078: 26,3355           00001                                    504RPR
000079: 26,3356           52105                           VXM      GOTO
000080: 26,3357           00025                                    MMATRIX                               #  MPAC=R=MT(T)*(RP+LPXRP)
000081: 26,3360           55407                                    RPRPXXXX                              #  RESET PUSHLOC TO 0 BEFORE EXITING
000082: 26,3361           77624        RPTORA             CALL                                           #  EARTH COMPUTATIONS
000083: 26,3362           55573                                    EARTHMX                               #  M MATRIX B-1
000084: 26,3363           77624                           CALL
000085: 26,3364           55625                                    EARTHL                                #  L VECTOR RADIANS B0
000086: 26,3365           76521                           MXV      VSL1                                  #  LP=M(T)*L     RAD B-0
000087: 26,3366           00025                                    MMATRIX


000089: 26,3367           77650                           GOTO
000090: 26,3370           55353                                    RPTORB
000091:


000093:                                                                                                  #  ..... R-TO-RP SUBROUTINE .....
000094:                                                                                                  #  SUBROUTINE TO CONVERT R (VECTOR IN REFERENCE COORD. SYSTEM) TO RP
000095:                                                                                                  #  (VECTOR IN PLANETARY COORD SYSTEM) EITHER EARTH-FIXED OR MOON-FIXED
000096:                                                                                                  #        RP = M(T) * (R - L X R)
000097:
000098:                                                                                                  #  CALLING SEQUENCE
000099:                                                                                                  #        L       CALL
000100:                                                                                                  #        L+1             R-TO-RP
000101:
000102:                                                                                                  #  SUBROUTINES USED
000103:                                                                                                  #        EARTHMX, MOONMX, EARTHL
000104:
000105:                                                                                                  #  INPUT
000106:                                                                                                  #        MPAC = 0 FOR EARTH, NON-ZERO FOR MOON
000107:                                                                                                  #        0-5D = R VECTOR
000108:                                                                                                  #        6-7D = TIME
000109:
000110:                                                                                                  #        ITEMS AVAILABLE FROM LAUNCH DATA
000111:                                                                                                  #                504LM = THE LIBRATION VECTOR L OF THE MOON AT TIME TIMSUBL, EXPRESSED
000112:                                                                                                  #                IN THE MOON-FIXED COORD. SYSTEM                 RADIANS B0
000113:
000114:                                                                                                  #        ITEMS NECESSARY FOR SUBROUTINES USED (SEE DESCRIPTION OF SUBR.)
000115:
000116:                                                                                                  #  OUTPUT
000117:                                                                                                  #        MPAC = RP VECTOR METERS B-29 FOR EARTH, B-27 FOR MOON
000118:
000119: 26,3371           46020        R-TO-RP            STQ      BHIZ
000120: 26,3372           00050                                    RPREXIT
000121: 26,3373           55413                                    RTORPA
000122: 26,3374           77624                           CALL
000123: 26,3375           55421                                    MOONMX
000124: 26,3376           61375                           VLOAD    VXM
000125: 26,3377           02012                                    504LM                                 #  LP=LM
000126: 26,3400           00025                                    MMATRIX
000127: 26,3401           77772                           VSL1                                           #  L = MT(T)*LP          RADIANS B0
000128: 26,3402           51235        RTORPB             VXV      BVSU
000129: 26,3403           00001                                    504RPR
000130: 26,3404           00001                                    504RPR
000131: 26,3405           77721                           MXV                                            #  M(T)*(R-LXR)          B-2
000132: 26,3406           00025                                    MMATRIX
000133: 26,3407           40372        RPRPXXXX           VSL1     SETPD
000134: 26,3410           00001                                    0D
000135: 26,3411           77650                           GOTO
000136: 26,3412           00050                                    RPREXIT
000137: 26,3413           77624        RTORPA             CALL                                           #  EARTH COMPUTATIONS
000138: 26,3414           55573                                    EARTHMX
000139: 26,3415           77624                           CALL
000140: 26,3416           55625                                    EARTHL
000141: 26,3417           77650                           GOTO                                           #  MPAC=L=(-AX,-AY,0)    RAD B-0
000142: 26,3420           55402                                    RTORPB
000143:


000145:                                                                                                  #  ..... MOONMX SUBROUTINE .....
000146:                                                                                                  #  SUBROUTINE TO COMPUTE THE TRANSFORMATION MATRIX M FOR THE MOON
000147:
000148:                                                                                                  #  CALLING SEQUENCE
000149:                                                                                                  #        L       CALL
000150:                                                                                                  #        L+1             MOONMX
000151:
000152:                                                                                                  #  SUBROUTINES USED
000153:                                                                                                  #        NEWANGLE
000154:
000155:                                                                                                  #  INPUT
000156:                                                                                                  #        6-7D = TIME
000157:
000158:                                                                                                  #        ITEMS AVAILABLE FROM LAUNCH DATA
000159:                                                                                                  #                BSUBO, BDOT
000160:                                                                                                  #                TIMSUBO, NODIO, NODDOT, FSUBO, FDOT
000161:                                                                                                  #                COSI = COS(I)   B-1
000162:                                                                                                  #                SINI = SIN(I)   B-1
000163:                                                                                                  #                I IS THE ANGLE BETWEEN THE MEAN LUNAR EQUATORIAL PLANE AND THE
000164:                                                                                                  #                PLANE OF THE ECLIPTIC (1 DEGREE 32.1 MINUTES)
000165:
000166:                                                                                                  #  OUTPUT
000167:                                                                                                  #        MMATRIX = 3X3 M MATRIX          B-1 (STORED IN VAC AREA)
000168:
000169: 26,3421           40220        MOONMX             STQ      SETPD
000170: 26,3422           00051                                    EARTHMXX
000171: 26,3423           00011                                    8D
000172: 26,3424           77770                           AXT,1                                          #  B REQUIRES SL 0, SL 5 IN NEWANGLE
000173: 26,3425           00005                                    5
000174: 26,3426           65345                           DLOAD    PDDL                                  #  PD 10D        8-9D=BSUBO
000175: 26,3427           15655                                    BSUBO                                 #                10-11D=BDOT
000176: 26,3430           15647                                    BDOT
000177: 26,3431           45006                           PUSH     CALL                                  #  PD 12D
000178: 26,3432           55546                                    NEWANGLE                              #  EXIT WITH PD 8D AND MPAC= B   REVS B0
000179: 26,3433           71406                           PUSH     COS                                   #  PD 10D
000180: 26,3434           14041                           STODL    COB                                   #  PD 8D         COS(B) B-1
000181: 26,3435           77756                           SIN                                            #                SIN(B) B-1
000182: 26,3436           14043                           STODL    SOB                                   #                SETUP INPUT FOR NEWANGLE
000183: 26,3437           15653                                    FSUBO                                 #                        8-9D=FSUBO
000184: 26,3440           41525                           PDDL     PUSH                                  #  PD 10D THEN 12D       10-11D=FDOT
000185: 26,3441           15645                                    FDOT
000186: 26,3442           45170                           AXT,1    CALL                                  #  F REQUIRES SL 1, SL 6 IN NEWANGLE
000187: 26,3443           00004                                    4
000188: 26,3444           55546                                    NEWANGLE                              #  EXIT WITH PD 8D AND MPAC= F REVS B0
000189: 26,3445           14027                           STODL    AVECTR     +2                         #  SAVE F TEMP
000190: 26,3446           15651                                    NODIO                                 #                        8-9D=NODIO
000191: 26,3447           41525                           PDDL     PUSH                                  #  PD 10D THEN 12D       10-11D=NODDOT
000192: 26,3450           15643                                    NODDOT                                #                        MPAC=T
000193: 26,3451           45170                           AXT,1    CALL                                  #  NODE REQUIRES SL 0, SL 5 IN NEWANGLE
000194: 26,3452           00005                                    5
000195: 26,3453           55546                                    NEWANGLE                              #  EXIT WITH PD 8D AND MPAC= NODI REVS B0


000197: 26,3454           71406                           PUSH     COS                                   #  PD 10D        8-9D= NODI REVS B0
000198: 26,3455           77606                           PUSH                                           #  PD 12D        10-11D= COS(NODI) B-1
000199: 26,3456           00025                           STORE    AVECTR
000200: 26,3457           76405                           DMP      SL1R
000201: 26,3460           00041                                    COB                                   #                        COS(NODI) B-1
000202: 26,3461           14035                           STODL    BVECTR     +2                         #  PD 10D  20-25D=AVECTR=COB*SIN(NODI)
000203: 26,3462           76405                           DMP      SL1R                                  #                        SOB*SIN(NODI)
000204: 26,3463           00043                                    SOB
000205: 26,3464           14037                           STODL    BVECTR     +4                         #  PD 8D
000206: 26,3465           41556                           SIN      PUSH                                  #  PD 10D                -SIN(NODI) B-1
000207: 26,3466           77676                           DCOMP                                          #          26-31D=BVECTR=COB*COS(NODI)
000208: 26,3467           14033                           STODL    BVECTR                                #  PD 8D                 SOB*COS(NODI)
000209: 26,3470           00027                                    AVECTR     +2                         #  MOVE F FROM TEMP LOC. TO 504F
000210: 26,3471           14007                           STODL    504F
000211: 26,3472           76405                           DMP      SL1R
000212: 26,3473           00041                                    COB
000213: 26,3474           14027                           STODL    AVECTR     +2
000214: 26,3475           00011                                    SINNODI                               #  8-9D=SIN(NODI) B-1
000215: 26,3476           76405                           DMP      SL1R
000216: 26,3477           00043                                    SOB
000217: 26,3500           14031                           STODL    AVECTR     +4                         #                        0
000218: 26,3501           15335                                    HI6ZEROS                              #        8-13D= CVECTR=  -SOB B-1
000219: 26,3502           57525                           PDDL     DCOMP                                 #  PD 10D                COB
000220: 26,3503           00043                                    SOB
000221: 26,3504           63325                           PDDL     PDVL                                  #  PD 12D THEN PD 14D
000222: 26,3505           00041                                    COB
000223: 26,3506           00033                                    BVECTR
000224: 26,3507           63361                           VXSC     PDVL                                  #  PD 20D        BVECTR*SINI B-2
000225: 26,3510           15641                                    SINI
000226: 26,3511           00011                                    CVECTR
000227: 26,3512           53361                           VXSC     VAD                                   #  PD 14D        CVECTR*COSI B-2
000228: 26,3513           15637                                    COSI
000229: 26,3514           77772                           VSL1
000230: 26,3515           24041                           STOVL    MMATRIX    +12D                       #  PD 8D  M2=BVECTR*SINI+CVECTR*COSI B-1
000231: 26,3516           63361                           VXSC     PDVL                                  #  PD 14D
000232: 26,3517           15641                                    SINI                                  #                CVECTR*SINI B-2
000233: 26,3520           00033                                    BVECTR
000234: 26,3521           52361                           VXSC     VSU                                   #  PD 8D         BVECTR*COSI B-2
000235: 26,3522           15637                                    COSI
000236: 26,3523           65372                           VSL1     PDDL                                  #  PD 14D
000237: 26,3524           00007                                    504F                                  #  8-13D=DVECTR=BVECTR*COSI-CVECTR*SINI B-1
000238: 26,3525           74346                           COS      VXSC
000239: 26,3526           00011                                    DVECTR
000240: 26,3527           73525                           PDDL     SIN                                   #  PD 20D  14-19D= DVECTR*COSF B-2
000241: 26,3530           00007                                    504F
000242: 26,3531           52361                           VXSC     VSU                                   #  PD 14D        AVECTR*SINF B-2
000243: 26,3532           00025                                    AVECTR
000244: 26,3533           77772                           VSL1
000245: 26,3534           14033                           STODL    MMATRIX    +6                         #  M1= AVECTR*SINF-DVECTR*COSF B-1
000246: 26,3535           00007                                    504F


000248: 26,3536           74356                           SIN      VXSC                                  #  PD 8D
000249: 26,3537           71525                           PDDL     COS                                   #  PD 14D  8-13D=DVECTR*SINF B-2
000250: 26,3540           00007                                    504F
000251: 26,3541           53361                           VXSC     VAD                                   #  PD 8D         AVECTR*COSF B-2
000252: 26,3542           00025                                    AVECTR
000253: 26,3543           57572                           VSL1     VCOMP
000254: 26,3544           34025                           STCALL   MMATRIX                               #  M0= -(AVECTR*COSF+DVECTR*SINF) B-1
000255: 26,3545           00051                                    EARTHMXX
000256:
000257:                                                                                                  #  COMPUTE X=X0+(XDOT)(T+T0)
000258:                                                                                                  #  8-9D= XO (REVS B-0), PUSHLOC SET AT 12D
000259:                                                                                                  #  10-11D=XDOT (REVS/CSEC) SCALED B+23 FOR WEARTH,B+28 FOR NODDOT AND BDOT
000260:                                                                                                  #                        AND B+27 FOR FDOT
000261:                                                                                                  #  X1=DIFFERENCE IN 23 AND SCALING OF XDOT, =0 FOR WEARTH, 5 FOR NODDOT AND
000262:                                                                                                  #                                        BDOT AND 4 FOR FDOT
000263:                                                                                                  #  6-7D=T (CSEC B-28), TIMSUBO= (CSEC B-42 TRIPLE PREC.)
000264:
000265: 26,3546           54345        NEWANGLE           DLOAD    SR                                    #  ENTER PD 12D
000266: 26,3547           00007                                    6D
000267: 26,3550           20617                                    14D
000268: 26,3551           72371                           TAD      TLOAD                                 #  CHANGE MODE TO TP
000269: 26,3552           01707                                    TIMSUBO
000270: 26,3553           00155                                    MPAC
000271: 26,3554           14017                           STODL    TIMSUBM                               #  T+T0 CSEC B-42
000272: 26,3555           00020                                    TIMSUBM    +1
000273: 26,3556           77605                           DMP                                            #  PD 10D        MULT BY XDOT IN 10-11D
000274: 26,3557           43257                           SL*      DAD                                   #  PD 8D         ADD XO IN 8-9D AFTER SHIFTING
000275: 26,3560           20206                                    5,1                                   #                SUCH THAT SCALING IS B-0
000276: 26,3561           67206                           PUSH     SLOAD                                 #  PD 10D  SAVE PARTIAL (X0+XDOT*T) IN 8-9D
000277: 26,3562           00017                                    TIMSUBM
000278: 26,3563           41261                           SL       DMP
000279: 26,3564           20212                                    9D
000280: 26,3565           00013                                    10D                                   #  XDOT
000281: 26,3566           43257                           SL*      DAD                                   #  PD 8D         SHIFT SUCH THAT THIS PART OF X
000282: 26,3567           20213                                    10D,1                                 #                IS SCALED REVS/CSEC B-0
000283: 26,3570           77600                           BOV                                            #  TURN OFF OVERFLOW IF SET BY SHIFT
000284: 26,3571           55572                                    +1                                    #  INSTRUCTION BEFORE EXITING
000285: 26,3572           77616                           RVQ                                            #  MPAC=X= X0+(XDOT)(T+T0)       REVS B0
000286:


000288:                                                                                                  #  ..... EARTHMX SUBROUTINE .....
000289:                                                                                                  #  SUBROUTINE TO COMPUTE THE TRANSFORMATION MATRIX M FOR THE EARTH
000290:
000291:                                                                                                  #  CALLING SEQUENCE
000292:                                                                                                  #        L       CALL
000293:                                                                                                  #        L+1             EARTHMX
000294:
000295:                                                                                                  #  SUBROUTINES USED
000296:                                                                                                  #        NEWANGLE
000297:
000298:                                                                                                  #  INPUT
000299:                                                                                                  #        INPUT AVAILABLE FROM LAUNCH DATA        AZO REVS B-0
000300:                                                                                                  #                                                TEPHEM CSEC B-42
000301:                                                                                                  #        6-7D= TIME CSEC B-28
000302:
000303:                                                                                                  #  OUTPUT
000304:                                                                                                  #        MMATRIX= 3X3 M MATRIX B-1 (STORED IN VAC AREA)
000305:
000306: 26,3573           40220        EARTHMX            STQ      SETPD                                 #  SET 8-9D=AZO
000307: 26,3574           00051                                    EARTHMXX
000308: 26,3575           00011                                    8D                                    #  10-11D=WEARTH
000309: 26,3576           77770                           AXT,1                                          #  FOR SL 5, AND SL 10 IN NEWANGLE
000310: 26,3577           00000                                    0
000311: 26,3600           65345                           DLOAD    PDDL                                  #  LEAVING PD SET AT 12D FOR NEWANGLE
000312: 26,3601           01712                                    AZO
000313: 26,3602           15657                                    WEARTH
000314: 26,3603           45006                           PUSH     CALL
000315: 26,3604           55546                                    NEWANGLE
000316: 26,3605           41401                           SETPD    PUSH                                  #  18-19D=504AZ
000317: 26,3606           00023                                    18D                                   #                         COS(AZ)   SIN(AZ)     0
000318: 26,3607           65346                           COS      PDDL                                  #  20-37D=  MMATRIX=     -SIN(AZ)   COS(AZ)     0    B-1
000319: 26,3610           00023                                    504AZ                                 #                            0         0        1
000320: 26,3611           65356                           SIN      PDDL
000321: 26,3612           15335                                    HI6ZEROS
000322: 26,3613           73525                           PDDL     SIN
000323: 26,3614           00023                                    504AZ
000324: 26,3615           65276                           DCOMP    PDDL
000325: 26,3616           00023                                    504AZ
000326: 26,3617           63346                           COS      PDVL
000327: 26,3620           15335                                    HI6ZEROS
000328: 26,3621           41525                           PDDL     PUSH
000329: 26,3622           15333                                    HIDPHALF
000330: 26,3623           77650                           GOTO
000331: 26,3624           00051                                    EARTHMXX
000332:


000334:                                                                                                  #  ..... EARTHL SUBROUTINE .....
000335:                                                                                                  #  SUBROUTINE TO COMPUTE L VECTOR FOR EARTH
000336:
000337:                                                                                                  #  CALLING SEQUENCE
000338:                                                                                                  #        L       CALL
000339:                                                                                                  #        L+1             EARTHL
000340:
000341:                                                                                                  #  INPUT
000342:                                                                                                  #        AXO,AYO SET AT LAUNCH TIME WITH AYO IMMEDIATELY FOLLOWING AXO IN CORE
000343:
000344:                                                                                                  #  OUTPUT
000345:                                                                                                  #                -AX
000346:                                                                                                  #        MPAC=   -AY     RADIANS B-0
000347:                                                                                                  #                  0
000348:
000349: 26,3625           57545        EARTHL             DLOAD    DCOMP
000350: 26,3626           01716                                    AXO
000351: 26,3627           14017                           STODL    504LPL
000352: 26,3630           01714                                    -AYO
000353: 26,3631           14021                           STODL    504LPL     +2
000354: 26,3632           15335                                    HI6ZEROS
000355: 26,3633           24023                           STOVL    504LPL     +4
000356: 26,3634           00017                                    504LPL
000357: 26,3635           77616                           RVQ
000358:


000360:                                                                                                  #  CONSTANTS AND ERASABLE ASSIGNMENTS
000361:
000362: 26,3636  04,3563               1B1                =        DP1/2                                 #  1 SCALED B-1
000363: 26,3636           17775 02052  COSI               2DEC     .99964173  B-1                        #  COS(5521.5 SEC) B-1
000364:
000365: 26,3640           00333 10374  SINI               2DEC     .02676579  B-1                        #  SIN(5521.5 SEC) B-1
000366:
000367: 26,3642  0000050               RPREXIT            =        S1                                    #  R-TO-RP AND RP-TO-R SUBR EXIT
000368: 26,3642  0000051               EARTHMXX           =        S2                                    #  EARTHMX, MOONMX SUBR. EXITS
000369: 26,3642                        504RPR             =        0D                                    #  6 REGS        R OR RP VECTOR
000370: 26,3642                        SINNODI            =        8D                                    #  2             SIN(NODI)
000371: 26,3642                        DVECTR             =        8D                                    #  6             D VECTOR MOON
000372: 26,3642                        CVECTR             =        8D                                    #  6             C VECTR MOON
000373: 26,3642                        504AZ              =        18D                                   #  2             AZ
000374: 26,3642                        TIMSUBM            =        14D                                   #  3             TIME SUB M (MOON) T+T0 IN GETAZ
000375: 26,3642                        504LPL             =        14D                                   #  6             L OR LP VECTOR
000376: 26,3642                        AVECTR             =        20D                                   #  6             A VECTOR (MOON)
000377: 26,3642                        BVECTR             =        26D                                   #  6             B VECTOR (MOON)
000378: 26,3642                        MMATRIX            =        20D                                   #  18            M MATRIX
000379: 26,3642                        COB                =        32D                                   #  2             COS(B) B-1
000380: 26,3642                        SOB                =        34D                                   #  2             SIN(B) B-1
000381: 26,3642                        504F               =        6D                                    #  2             F(MOON)
000382: 26,3642           77665 42175  NODDOT             2DEC     -.457335121 E-2                        #  REVS/CSEC B+28=-1.07047011 E-8  RAD/SEC
000383:
000384: 26,3644           22211 00625  FDOT               2DEC     .570863327                            #  REVS/CSEC B+27= 2.67240410 E-6  RAD/SEC
000385:
000386: 26,3646           77777 77767  BDOT               2DEC     -3.07500686 E-8                        #  REVS/CSEC B+28=-7.19757301 E-14 RAD/SEC
000387:
000388: 26,3650           37436 01613  NODIO              2DEC     .986209434                            #  REVS B-0      = 6.19653663041   RAD
000389:
000390: 26,3652           32417 32160  FSUBO              2DEC     .829090536                            #  REVS B-0      = 5.20932947829   RAD
000391:
000392: 26,3654           02052 35552  BSUBO              2DEC     .0651201393                            #  REVS B-0      = 0.40916190299   RAD
000393:
000394: 26,3656           37116 32523  WEARTH             2DEC     .973561595                            #  REVS/CSEC B+23= 7.29211494 E-5  RAD/SEC
000395:

End of include-file PLANETARY_INERTIAL_ORIENTATION.agc.  Parent file is MAIN.agc


