
Source Code


000002:                                                                                                  ## Copyright:   Public domain.
000003:                                                                                                  ## Filename:    POWERED_FLIGHT_SUBROUTINES.agc
000004:                                                                                                  ## Purpose:     Part of the source code for Colossus 2A, AKA Comanche 055.
000005:                                                                                                  ##              It is part of the source code for the Command Module's (CM)
000006:                                                                                                  ##              Apollo Guidance Computer (AGC), for Apollo 11.
000007:                                                                                                  ## Assembler:   yaYUL
000008:                                                                                                  ## Contact:     Ron Burkey <info@sandroid.org>.
000009:                                                                                                  ## Website:     www.ibiblio.org/apollo.
000010:                                                                                                  ## Pages:       1365-1372
000011:                                                                                                  ## Mod history: 2009-05-10 SN   (Sergio Navarro).  Started adapting
000012:                                                                                                  ##                              from the Colossus249/ file of the same
000013:                                                                                                  ##                              name, using Comanche055 page images.
000014:                                                                                                  ##              2010-08-29 JL   Fixed indentation.
000015:                                                                                                  ##
000016:                                                                                                  ## This source code has been transcribed or otherwise adapted from digitized
000017:                                                                                                  ## images of a hardcopy from the MIT Museum.  The digitization was performed
000018:                                                                                                  ## by Paul Fjeld, and arranged for by Deborah Douglas of the Museum.  Many
000019:                                                                                                  ## thanks to both.  The images (with suitable reduction in storage size and
000020:                                                                                                  ## consequent reduction in image quality as well) are available online at
000021:                                                                                                  ## www.ibiblio.org/apollo.  If for some reason you find that the images are
000022:                                                                                                  ## illegible, contact me at info@sandroid.org about getting access to the
000023:                                                                                                  ## (much) higher-quality images which Paul actually created.
000024:                                                                                                  ##
000025:                                                                                                  ## Notations on the hardcopy document read, in part:
000026:                                                                                                  ##
000027:                                                                                                  ##    Assemble revision 055 of AGC program Comanche by NASA
000028:                                                                                                  ##    2021113-051.  10:28 APR. 1, 1969
000029:                                                                                                  ##
000030:                                                                                                  ##    This AGC program shall also be referred to as
000031:                                                                                                  ##            Colossus 2A
000032:
000033:


000035: 14,3422                                           BANK     14                                    #  SAME FBANK AS THE FINDCDUD SUB-PROGRAM
000036: 23,2000                                           SETLOC   POWFLITE
000037: 23,2000                                           BANK
000038:
000039: 23,3477     0142                                  EBANK=   DEXDEX
000040: 23,3477                                           COUNT*   $$/POWFL
000041:
000042:                                                                                                  #  CDUTRIG, CDUTRIG1, CDUTRIG2, AND CD*GR*GS ALL COMPUTE THE SINES AND
000043:                                                                                                  #  COSINES OF THREE 2'S COMPLEMENT ANGLES AND PLACE THE RESULT, DOUBLE
000044:                                                                                                  #  PRECISION, IN THE SAME ORDER AS THE INPUTS, AT SINCDU AND COSCDU.  AN
000045:                                                                                                  #  ADDITIONAL OUTPUT IS THE 1'S COMPLENT ANGLES AT CDUSPOT.  THESE
000046:                                                                                                  #  ROUTINES GO OUT OF THEIR WAY TO LEAVE THE MPAC AREA AS THEY FIND IT.
000047:                                                                                                  #  EXCEPT FOR THE GENERALLY UNIMPORTANT MPAC +2.  THEY DIFFER ONLY IN
000048:                                                                                                  #  WHERE THEY GET THE ANGLES, AND IN METHOD OF CALLING.
000049:
000050:                                                                                                  #  CDUTRIG (AND CDUTRIG1, WHICH CAN BE CALLED IN BASIC) COMPUTE THE
000051:                                                                                                  #  SINES AND COSINES FROM THE CURRENT CONTENTS OF THE CDU REGISTERS.
000052:                                                                                                  #  THE CONTENTS OF CDUTEMP, ETC., ARE NOT TOUCHED SO THAT THEY MAY
000053:                                                                                                  #  CONTINUE TO FORM A CONSISTENT SET WITH THE LATEST PIPA READINGS.
000054:
000055:                                                                                                  #  CDUTRIG1 IS LIKE CDUTRIG EXCEPT THAT IT CAN BE CALLED IN BASIC.
000056:
000057:                                                                                                  #  CD*TR*GS FINDS CDU VALUES IN CDUSPOT RATHER THAN IN CDUTEMP.  THIS
000058:                                                                                                  #  ALLOWS USERS TO MAKE TRANSFORMATIONS USING ARBITRARY ANGLES, OR REAL
000059:                                                                                                  #  ANGLES IN AN ORDER OTHER THAN X Y Z.  A CALL TO THIS ROUTINE IS
000060:                                                                                                  #  NECESSARY IN PREPARATION FOR A CALL TO AX*SR*T IN EITHER OF ITS TWO
000061:                                                                                                  #  MODES (SMNB OR NBSM).  SINCE AX*SR*T EXPECTS TO FIND THE SINES AND
000062:                                                                                                  #  COSINES IN THE ORDER Y Z X THE ANGLES MUST HAVE BEEN PLACED IN CDUSPOT
000063:                                                                                                  #  IN THIS ORDER.  CD*TR*GS NEED NOT BE REPEATED WHEN AX*SR*T IS CALLED
000064:                                                                                                  #  MORE THAN ONCE, PROVIDED THE ANGLES HAVE NOT CHANGED.  NOTE THAT SINCE
000065:                                                                                                  #  IT CLOBBERS BUF2 (IN THE SINE AND COSINE ROUTINES) CD*TR*GS CANNOT BE
000066:                                                                                                  #  CALLED USING BANKCALL.  SORRY.
000067:
000068:                                                                                                  #  CD*TR*G IS LIKE CD*TR*GS EXCEPT THAT IT CAN BE CALLED IN
000069:                                                                                                  #  INTERPRETIVE.
000070:
000071: 23,3477           77776        CDUTRIG            EXIT
000072: 23,3500           03507                           TC       CDUTRIGS
000073: 23,3501           06006                           TC       INTPRET
000074: 23,3502           77616                           RVQ
000075:
000076: 23,3503           77776        CD*TR*G            EXIT
000077: 23,3504           03515                           TC       CD*TR*GS
000078: 23,3505           06006                           TC       INTPRET
000079: 23,3506           77616                           RVQ
000080:
000081: 23,3507           30032        CDUTRIGS           CA       CDUX
000082: 23,3510           54772                           TS       CDUSPOT    +4
000083: 23,3511           30033                           CA       CDUY
000084: 23,3512           54766                           TS       CDUSPOT


000086: 23,3513           30034                           CA       CDUZ
000087: 23,3514           54770                           TS       CDUSPOT    +2
000088:
000089: 23,3515           00006        CD*TR*GS           EXTEND
000090: 23,3516           22142                           QXCH     TEM2
000091: 23,3517           35015                           CAF      FOUR
000092: 23,3520           76211        TR*GL**P           MASK     SIX                                   #  MAKE IT EVEN AND SMALLER
000093: 23,3521           54143                           TS       TEM3
000094: 23,3522           50143                           INDEX    TEM3
000095: 23,3523           30766                           CA       CDUSPOT
000096: 23,3524           52155                           DXCH     MPAC                                  #  STORING 2'S COMP ANGLE, LOADING MPAC
000097: 23,3525           52127                           DXCH     VBUF       +4                         #  STORING MPAC FOR LATER RESTORATION
000098: 23,3526           04757                           TC       USPRCADR
000099: 23,3527           45513                           CADR     CDULOGIC
000100: 23,3530           00006                           EXTEND
000101: 23,3531           30155                           DCA      MPAC
000102: 23,3532           50143                           INDEX    TEM3
000103: 23,3533           52767                           DXCH     CDUSPOT                               #  STORING 1'S COMPLEMENT ANGLE
000104: 23,3534           04757                           TC       USPRCADR
000105: 23,3535           01516                           CADR     COSINE
000106: 23,3536           52155                           DXCH     MPAC
000107: 23,3537           50143                           INDEX    TEM3
000108: 23,3540           52745                           DXCH     COSCDU                                #  STORING COSINE
000109: 23,3541           00006                           EXTEND
000110: 23,3542           50143                           INDEX    TEM3
000111: 23,3543           30767                           DCA      CDUSPOT                               #  LOADING 1'S COMPLEMENT ANGLE
000112: 23,3544           04757                           TC       USPRCADR
000113: 23,3545           01530                           CADR     SINE       +1                         #  SINE +1 EXPECTS ARGUMENT IN A AND L
000114: 23,3546           52127                           DXCH     VBUF       +4                         #  BRINGING UP PRIOR MPAC TO BE RESTORED
000115: 23,3547           52155                           DXCH     MPAC
000116: 23,3550           50143                           INDEX    TEM3
000117: 23,3551           52737                           DXCH     SINCDU
000118: 23,3552           10143                           CCS      TEM3
000119: 23,3553           13520                           TCF      TR*GL**P
000120: 23,3554           00142                           TC       TEM2


000122:                                                                                                  #  *******************************************************************************************************
000123:                                                                                                  #  QUICTRIG, INTENDED FOR QUIDANCE CYCLE USE WHERE TIME IS CRITICAL, IS A MUCH FASTER VERSION OF CD*TR*GS.
000124:                                                                                                  #  QUICTRIG COMPUTES AND STORES THE SINES AND COSINES OF THE 2'S COMPLEMENT ANGLES AT CDUSPOT, CDUSPOT +2,
000125:                                                                                                  #  AND CDUSPOT +4.  UNLIKE CD*TR*GS, QUICTRIG DOES NOT LEAVE THE 1'S COMPLEMENT VERSIONS OF THE ANGLES IN
000126:                                                                                                  #  CDUSPOT.  QUICTRIG'S EXECUTION TIME IS 4.1 MS;    THIS IS 10 TIMES AS FAST AS CD*TR*GS.    QUICTRIG MAY BE
000127:                                                                                                  #  CALLED FROM INTERPRETIVE AS AN RTB OP-CODE, OR FROM BASIC VIA BANKCALL OR IBNKCALL.
000128:
000129: 23,3555           00004        QUICTRIG           INHINT                                         #  INHINT SINCE DAP USES THE SAME TEMPS
000130: 23,3556           00006                           EXTEND
000131: 23,3557           22061                           QXCH     ITEMP1
000132: 23,3560           35015                           CAF      FOUR
000133: 23,3561           76211                 +4        MASK     SIX
000134: 23,3562           54062                           TS       ITEMP2
000135: 23,3563           50062                           INDEX    ITEMP2
000136: 23,3564           30766                           CA       CDUSPOT
000137: 23,3565           05075                           TC       SPSIN
000138: 23,3566           00006                           EXTEND
000139: 23,3567           75002                           MP       BIT14                                 #  SCALE DOWN TO MATCH INTERPRETER OUTPUTS
000140: 23,3570           50062                           INDEX    ITEMP2
000141: 23,3571           52737                           DXCH     SINCDU
000142: 23,3572           50062                           INDEX    ITEMP2
000143: 23,3573           30766                           CA       CDUSPOT
000144: 23,3574           05074                           TC       SPCOS
000145: 23,3575           00006                           EXTEND
000146: 23,3576           75002                           MP       BIT14
000147: 23,3577           50062                           INDEX    ITEMP2
000148: 23,3600           52745                           DXCH     COSCDU
000149: 23,3601           10062                           CCS      ITEMP2
000150: 23,3602           13561                           TCF      QUICTRIG   +4
000151: 23,3603           30061                           CA       ITEMP1
000152: 23,3604           00003                           RELINT
000153: 23,3605           00000                           TC       A


000155:                                                                                                  # ****************************************************************************
000156:                                                                                                  #  THESE INTERFACE ROUTINES MAKE IT POSSIBLE TO CALL AX*SR*T, ETC., IN
000157:                                                                                                  #  INTERPRETIVE.  LATER, WHERE POSSIBLE, THEY WILL BE ELIMINATED.
000158:
000159:                                                                                                  #  NBSM WILL BE THE FIRST TO GO.  IT SHOULD NOT BE USED.
000160:
000161: 23,3606           77620        NBSM               STQ
000162: 23,3607           00047                                    X2
000163: 23,3610           76740                           LXC,1    VLOAD*
000164: 23,3611           00050                                    S1                                    #  BASE ADDRESS OF THE CDU ANGLES IS IN S1
000165: 23,3612           00001                                    0,1
000166: 23,3613           24767                           STOVL    CDUSPOT
000167: 23,3614           00041                                    32D                                   #  VECTOR TO BE TRANSFORMED IS IN 32D
000168: 23,3615           77624                           CALL
000169: 23,3616           47637                                    TRG*NBSM
000170: 23,3617           34041                           STCALL   32D                                   #  SINCE THERE'S NO STGOTO
000171: 23,3620           00047                                    X2
000172:
000173:                                                                                                  #  THESE INTERFACE ROUTINES ARE PERMANENT.  ALL RESTORE USER'S EBANK
000174:                                                                                                  #  SETTING. ALL ARE STRICT INTERPRETIVE SUBROUTINES, CALLED USING "CALL",
000175:                                                                                                  #  RETURNING VIA QPRET.  ALL EXPECT AND RETURN THE VECTOR TO BE TRANSFOR-
000176:                                                                                                  #  MED INTERPRETER-STYLE IN MPAC: COMPONENTS AT MPAC, MPAC +3, AND MPAC +5.
000177:
000178:                                                                                                  #  TRG*SMNB AND TRG*NBSM BOTH EXPECT TO SEE THE 2'S COMPLEMENT ANGLES
000179:                                                                                                  #  AT CDUSPOT (ORDER Y Z X, AT CDUSPOT, CDUSPOT +2, AND CDUSPOT +4. ODD
000180:                                                                                                  #  LOCATIONS NEED NOT BE ZEROED).  TRG*NBSM DOES THE NB TO SM TRANSFOR-
000181:                                                                                                  #  MATION:  TRG*SMNB, VICE VERSA.
000182:
000183:                                                                                                  #  CDU*NBSM DOES ITS TRANSFORMATION USING THE PRESENT CONTENTS OF
000184:                                                                                                  #  THE CDL COUNTERS.  OTHERWISE IT IS LIKE TRG*NBSM.
000185:
000186:                                                                                                  #  CDU*SMNB IS THE COMPLEMENT OF CDU*NBSM.
000187:
000188: 23,3621           77776        CDU*SMNB           EXIT
000189: 23,3622           03507                           TC       CDUTRIGS
000190: 23,3623           13626                           TCF      C*MM*N1
000191:
000192: 23,3624           77776        TRG*SMNB           EXIT
000193: 23,3625           03515                           TC       CD*TR*GS
000194: 23,3626           07501        C*MM*N1            TC       MPACVBUF                              #  AX*SR*T EXPECTS VECTOR IN VBUF
000195: 23,3627           46214                           CS       THREE                                 #  SIGNAL FOR SM TO NB TRANSFORMATION.
000196: 23,3630           03650        C*MM*N2            TC       AX*SR*T
000197: 23,3631           06006                           TC       INTPRET
000198: 23,3632           43575                           VLOAD    RVQ
000199: 23,3633           00123                                    VBUF
000200:
000201: 23,3634           77776        CDU*NBSM           EXIT
000202: 23,3635           03507                           TC       CDUTRIGS
000203:


000205:
000206: 23,3636           13641                           TCF      C*MM*N3
000207:
000208: 23,3637           77776        TRG*NBSM           EXIT
000209: 23,3640           03515                           TC       CD*TR*GS
000210: 23,3641           07501        C*MM*N3            TC       MPACVBUF                              #  FOR AX*SR*T
000211: 23,3642           36214                           CA       THREE                                 #  SIGNAL FOR NB TO SM TRANSFORMATION
000212: 23,3643           13630                           TCF      C*MM*N2
000213:
000214:                                                                                                  #  *NBSM* AND *SMNB* EXPECT TO SEE THE SINES AND COSINES (AT SINCDU
000215:                                                                                                  #  AND COSCDU) RATHER THAN THE ANGLES THEMSELVES.  OTHERWISE THEY ARE
000216:                                                                                                  #  LIKE TRG*NBSM AND TRG*SMNB.
000217:
000218:                                                                                                  #  NOTE THAT JUST AS CD*TR*GS NEED BE CALLED ONLY ONCE FOR EACH SERIES
000219:                                                                                                  #  OF TRANSFORMATIONS USING THE SAME ANGLES, SO TOO ONLY ONE OF TRG*NBSM
000220:                                                                                                  #  AND TRG*SMNB NEED BE CALLED FOR EACH SERIES.  FOR SUBSEQUENT TRANFOR-
000221:                                                                                                  #  MATIONS USE *NBSM* AND *SMNB*.
000222:
000223: 23,3644           77776        *SMNB*             EXIT
000224: 23,3645           13626                           TCF      C*MM*N1
000225:
000226: 23,3646           77776        *NBSM*             EXIT
000227: 23,3647           13641                           TCF      C*MM*N3
000228:
000229:                                                                                                  #  AX*SR*T COMBINES THE OLD SMNB AND NBSM.  FOR THE NB TO SM
000230:                                                                                                  #  TRANSFORMATION, ENTER WITH +3 IN A.  FOR SM TO NB, ENTER WITH -3.
000231:                                                                                                  #  THE VECTOR TO BE TRANSFORMED ARRIVES, AND IS RETURNED, IN VBUF.
000232:                                                                                                  #  AX*SR*T EXPECTS TO FIND THE SINES AND COSINES OF THE ANGLES OF ROTATION
000233:                                                                                                  #  AT SINCDU AND COSCDU, IN THE ORDER Y Z X.  A CALL TO CD*TR*GS, WITH
000234:                                                                                                  #  THE 2'S COMPLEMENT ANGLES (ORDER Y Z X) AT CDUSPOT, WILL TAKE CARE OF
000235:                                                                                                  #  THIS.  HERE IS A SAMPLE CALLING SEQUENCE:--
000236:                                                                                                  #                TC      CDUTRIGS
000237:                                                                                                  #                CS      THREE           # ("CA THREE" FOR NBSM)
000238:                                                                                                  #                TC      AX*SR*T
000239:                                                                                                  #  THE CALL TO CD*TR*GS NEED NOT BE REPEATED, WHEN AX*SR*T IS CALLED MORE
000240:                                                                                                  #  THAN ONCE, UNLESS THE ANGLES HAVE CHANGED.
000241:
000242:                                                                                                  #  AX*SR*T IS GUARANTEED SAFE ONLY FOR VECTORS OF MAGNITUDE LESS THAN
000243:                                                                                                  #  UNITY.  A LOOK AT THE CASE IN WHICH A VECTOR OF GREATER MAGNITUDE
000244:                                                                                                  #  HAPPENS TO LIE ALONG AN AXIS OF THE SYSTEM TO WHICH IT IS TO BE TRANS-
000245:                                                                                                  #  FORMED CONVINCES ONE THAT THIS IS A RESTRICTION WHICH MUST BE ACCEPTED.
000246:
000247: 23,3650           54142        AX*SR*T            TS       DEXDEX                                #  WHERE IT BECOMES THE INDEX OF INDEXES.
000248: 23,3651           00006                           EXTEND
000249: 23,3652           22145                           QXCH     RTNSAVER
000250:
000251: 23,3653           10142        R*TL**P            CCS      DEXDEX                                #                +3 --> 0        -3 --> 2
000252: 23,3654           40142                           CS       DEXDEX                                #  THUS:         +2 --> 1        -2 --> 1
000253: 23,3655           66214                           AD       THREE                                 #                +1 --> 2        -1 --> 0


000255: 23,3656           00006                           EXTEND
000256: 23,3657           50000                           INDEX    A
000257: 23,3660           33737                           DCA      INDEXI
000258: 23,3661           52144                           DXCH     DEXI
000259:
000260: 23,3662           35017                           CA       ONE
000261: 23,3663           54130                           TS       BUF
000262: 23,3664           00006                           EXTEND
000263: 23,3665           50143                           INDEX    DEX1
000264: 23,3666           40123                           DCS      VBUF
000265: 23,3667           13671                           TCF      LOOP1                                 #  REALLY BE A SUBTRACT, AND VICE VERSA
000266:
000267: 23,3670           52131        LOOP2              DXCH     BUF                                   #  LOADING VECTOR COMPONENT, STORING INDEX
000268:
000269: 23,3671           52155        LOOP1              DXCH     MPAC
000270: 23,3672           33735                           CA       SINESLOC
000271: 23,3673           60143                           AD       DEX1
000272: 23,3674           54116                           TS       ADDRWD
000273:
000274: 23,3675           07056                           TC       DMPSUB                                #  MULTIPLY BY SIN(CDUANGLE)
000275: 23,3676           10142                           CCS      DEXDEX
000276: 23,3677           52155                           DXCH     MPAC                                  #  NBSM CASE
000277: 23,3700           13703                           TCF      +3
000278: 23,3701           00006                           EXTEND                                         #  SMNB CASE
000279: 23,3702           40155                           DCS      MPAC
000280: 23,3703           52134                           DXCH     TERM1TMP
000281:
000282: 23,3704           36211                           CA       SIX                                   #  SINCDU AND COSCDU (EACH 6 WORDS) MUST
000283: 23,3705           26116                           ADS      ADDRWD                                #        BE CONSECUTIVE AND IN THAT ORDER
000284:
000285: 23,3706           00006                           EXTEND
000286: 23,3707           50130                           INDEX    BUF
000287: 23,3710           50143                           INDEX    DEX1
000288: 23,3711           30123                           DCA      VBUF
000289: 23,3712           52155                           DXCH     MPAC
000290: 23,3713           07056                           TC       DMPSUB                                #  MULTIPLY BY COS(CDUANGLE)
000291: 23,3714           52155                           DXCH     MPAC
000292: 23,3715           20134                           DAS      TERM1TMP
000293: 23,3716           52134                           DXCH     TERM1TMP
000294: 23,3717           20001                           DDOUBL
000295: 23,3720           50130                           INDEX    BUF
000296: 23,3721           50143                           INDEX    DEX1
000297: 23,3722           52123                           DXCH     VBUF
000298: 23,3723           52131                           DXCH     BUF                                   #  LOADING INDEX, STORING VECTOR COMPONENT
000299: 23,3724           10000                           CCS      A                                     #  'CAUSE THAT'S WHERE THE INDEX NOW IS
000300: 23,3725           13670                           TCF      LOOP2
000301:
000302: 23,3726           00006                           EXTEND
000303: 23,3727           26142                           DIM      DEXDEX                                #  DECREMENT MAGNITUDE PRESERVING SIGN
000304:


000306: 23,3730           10142        TSTPOINT           CCS      DEXDEX                                #  ONLY THE BRANCHING FUNCTION IS USED
000307: 23,3731           13653                           TCF      R*TL**P
000308: 23,3732           00145                           TC       RTNSAVER
000309: 23,3733           13653                           TCF      R*TL**P
000310: 23,3734           00145                           TC       RTNSAVER
000311:
000312: 23,3735           00736        SINESLOC           ADRES    SINCDU                                #  FOR USE IN SETTING ADDRWD
000313:
000314: 23,3736           00004        INDEXI             DEC      4          B-14                       #  **********   DON'T   ***********
000315: 23,3737           00002                           DEC      2          B-14                       #  **********   TOUCH   ***********
000316: 23,3740           00000                           DEC      0          B-14                       #  **********   THESE   ***********
000317: 23,3741           00004                           DEC      4          B-14                       #  ********** CONSTANTS ***********
000318:
000319:                                                                                                  #  ******************************************************************************


000321:                                                                                                  #  THIS SUBROUTINE COMPUTES INCREMENTAL CHANGES IN CDU(GIMBAL) ANGLES FROM INCREMENTAL CHANGES ABOUT SM AXES.  IT
000322:                                                                                                  #  REQUIRES SM INCREMENTS AS A DP VECTOR SCALED AT ONE REVOLUTION(DTHETASM,+2,+4).  SIN,COS(CDUY,Z,X) ARE IN
000323:                                                                                                  #  SINCDU,+2,+4 AND COSCDU,+2,+4 RESPECTIVELY, SCALED TO ONE HALF.  CDU INCREMENTS ARE PLACED IN DCDU,+2,+4 SCALED TO
000324:                                                                                                  #  ONE REVOLUTION.
000325:
000326:                                                                                                  #        *  COS(IGA)SEC(MGA)             0               -SIN(IGA)SEC(MGA) *
000327:                                                                                                  #        *                                                                 *
000328:                                                                                                  #        * -COS(IGA)TAN(MGA)             1                SIN(IGA)TAN(MGA) *
000329:                                                                                                  #        *                                                                 *
000330:                                                                                                  #        *      SIN(IGA)                 0                    COS(IGA)     *
000331:
000332: 14,3422                                           BANK     14
000333: 23,2000                                           SETLOC   POWFLIT1
000334: 23,2000                                           BANK
000335:
000336: 23,3742           41345        SMCDURES           DLOAD    DMP
000337: 23,3743           03212                                    DTHETASM
000338: 23,3744           00745                                    COSCDUY
000339:
000340: 23,3745           41325                           PDDL     DMP
000341: 23,3746           03216                                    DTHETASM   +4
000342: 23,3747           00737                                    SINCDUY
000343:
000344: 23,3750           77621                           BDSU
000345: 23,3751           77671                           DDV
000346: 23,3752           00747                                    COSCDUZ
000347: 23,3753           03204                           STORE    DCDU
000348:
000349: 23,3754           72405                           DMP      SL1                                   #  SCALE
000350: 23,3755           00741                                    SINCDUZ
000351: 23,3756           77621                           BDSU
000352:
000353: 23,3757           03214                                    DTHETASM   +2
000354: 23,3760           17206                           STODL    DCDU       +2
000355: 23,3761           03212                                    DTHETASM
000356:
000357: 23,3762           65205                           DMP      PDDL
000358: 23,3763           00737                                    SINCDUY
000359: 23,3764           03216                                    DTHETASM   +4
000360:
000361: 23,3765           43205                           DMP      DAD
000362: 23,3766           00745                                    COSCDUY
000363: 23,3767           77752                           SL1
000364: 23,3770           03210                           STORE    DCDU       +4
000365: 23,3771           77616                           RVQ
000366:

End of include-file POWERED_FLIGHT_SUBROUTINES.agc.  Parent file is MAIN.agc


