
Source Code


000002:                                                                                                  ## Copyright:   Public domain.
000003:                                                                                                  ## Filename:    POWERED_FLIGHT_SUBROUTINES.agc
000004:                                                                                                  ## Purpose:     Part of the source code for Colossus 2A, AKA Comanche 055.
000005:                                                                                                  ##              It is part of the source code for the Command Module's (CM)
000006:                                                                                                  ##              Apollo Guidance Computer (AGC), for Apollo 11.
000007:                                                                                                  ## Assembler:   yaYUL
000008:                                                                                                  ## Contact:     Ron Burkey <info@sandroid.org>.
000009:                                                                                                  ## Website:     www.ibiblio.org/apollo.
000010:                                                                                                  ## Pages:       1365-1372
000011:                                                                                                  ## Mod history: 2009-05-10 SN   (Sergio Navarro).  Started adapting
000012:                                                                                                  ##                              from the Colossus249/ file of the same
000013:                                                                                                  ##                              name, using Comanche055 page images.
000014:                                                                                                  ##              2010-08-29 JL   Fixed indentation.
000015:                                                                                                  ##              2016-12-22 RSB  Proofed comment text using octopus/ProoferComments
000016:                                                                                                  ##                              and corrected the errors found.
000017:                                                                                                  ##              2017-01-18 RSB  Fixed comment-text errors noted while diff'ing
000018:                                                                                                  ##                              vs Colossus 249.
000019:                                                                                                  ##
000020:                                                                                                  ## This source code has been transcribed or otherwise adapted from digitized
000021:                                                                                                  ## images of a hardcopy from the MIT Museum.  The digitization was performed
000022:                                                                                                  ## by Paul Fjeld, and arranged for by Deborah Douglas of the Museum.  Many
000023:                                                                                                  ## thanks to both.  The images (with suitable reduction in storage size and
000024:                                                                                                  ## consequent reduction in image quality as well) are available online at
000025:                                                                                                  ## www.ibiblio.org/apollo.  If for some reason you find that the images are
000026:                                                                                                  ## illegible, contact me at info@sandroid.org about getting access to the
000027:                                                                                                  ## (much) higher-quality images which Paul actually created.
000028:                                                                                                  ##
000029:                                                                                                  ## Notations on the hardcopy document read, in part:
000030:                                                                                                  ##
000031:                                                                                                  ##    Assemble revision 055 of AGC program Comanche by NASA
000032:                                                                                                  ##    2021113-051.  10:28 APR. 1, 1969
000033:                                                                                                  ##
000034:                                                                                                  ##    This AGC program shall also be referred to as
000035:                                                                                                  ##            Colossus 2A
000036:
000037:


000039: 14,3422                                           BANK     14                                    #  SAME FBANK AS THE FINDCDUD SUB-PROGRAM
000040: 23,2000                                           SETLOC   POWFLITE
000041: 23,2000                                           BANK
000042:
000043: 23,3477     0142                                  EBANK=   DEXDEX
000044: 23,3477                                           COUNT*   $$/POWFL
000045:
000046:                                                                                                  #  CDUTRIG, CDUTRIG1, CDUTRIG2, AND CD*TR*GS ALL COMPUTE THE SINES AND
000047:                                                                                                  #  COSINES OF THREE 2'S COMPLEMENT ANGLES AND PLACE THE RESULT, DOUBLE
000048:                                                                                                  #  PRECISION, IN THE SAME ORDER AS THE INPUTS, AT SINCDU AND COSCDU.  AN
000049:                                                                                                  #  ADDITIONAL OUTPUT IS THE 1'S COMPLEMENT ANGLES AT CDUSPOT.  THESE
000050:                                                                                                  #  ROUTINES GO OUT OF THEIR WAY TO LEAVE THE MPAC AREA AS THEY FIND IT,
000051:                                                                                                  #  EXCEPT FOR THE GENERALLY UNIMPORTANT MPAC +2.  THEY DIFFER ONLY IN
000052:                                                                                                  #  WHERE THEY GET THE ANGLES, AND IN METHOD OF CALLING.
000053:
000054:                                                                                                  #  CDUTRIG (AND CDUTRIG1, WHICH CAN BE CALLED IN BASIC) COMPUTE THE
000055:                                                                                                  #  SINES AND COSINES FROM THE CURRENT CONTENTS OF THE CDU REGISTERS.
000056:                                                                                                  #  THE CONTENTS OF CDUTEMP, ETC., ARE NOT TOUCHED SO THAT THEY MAY
000057:                                                                                                  #  CONTINUE TO FORM A CONSISTENT SET WITH THE LATEST PIPA READINGS.
000058:
000059:                                                                                                  #  CDUTRIG1 IS LIKE CDUTRIG EXCEPT THAT IT CAN BE CALLED IN BASIC.
000060:
000061:                                                                                                  #  CD*TR*GS FINDS CDU VALUES IN CDUSPOT RATHER THAN IN CDUTEMP.  THIS
000062:                                                                                                  #  ALLOWS USERS TO MAKE TRANSFORMATIONS USING ARBITRARY ANGLES, OR REAL
000063:                                                                                                  #  ANGLES IN AN ORDER OTHER THAN X Y Z.  A CALL TO THIS ROUTINE IS
000064:                                                                                                  #  NECESSARY IN PREPARATION FOR A CALL TO AX*SR*T IN EITHER OF ITS TWO
000065:                                                                                                  #  MODES (SMNB OR NBSM).  SINCE AX*SR*T EXPECTS TO FIND THE SINES AND
000066:                                                                                                  #  COSINES IN THE ORDER Y Z X THE ANGLES MUST HAVE BEEN PLACED IN CDUSPOT
000067:                                                                                                  #  IN THIS ORDER.  CD*TR*GS NEED NOT BE REPEATED WHEN AX*SR*T IS CALLED
000068:                                                                                                  #  MORE THAN ONCE, PROVIDED THE ANGLES HAVE NOT CHANGED.  NOTE THAT SINCE
000069:                                                                                                  #  IT CLOBBERS BUF2 (IN THE SINE AND COSINE ROUTINES) CD*TR*GS CANNOT BE
000070:                                                                                                  #  CALLED USING BANKCALL.  SORRY.
000071:
000072:                                                                                                  #  CD*TR*G IS LIKE CD*TR*GS EXCEPT THAT IT CAN BE CALLED IN
000073:                                                                                                  #  INTERPRETIVE.
000074:
000075: 23,3477           77776        CDUTRIG            EXIT
000076: 23,3500           03507                           TC       CDUTRIGS
000077: 23,3501           06006                           TC       INTPRET
000078: 23,3502           77616                           RVQ
000079:
000080: 23,3503           77776        CD*TR*G            EXIT
000081: 23,3504           03515                           TC       CD*TR*GS
000082: 23,3505           06006                           TC       INTPRET
000083: 23,3506           77616                           RVQ
000084:
000085: 23,3507           30032        CDUTRIGS           CA       CDUX
000086: 23,3510           54772                           TS       CDUSPOT    +4
000087: 23,3511           30033                           CA       CDUY
000088: 23,3512           54766                           TS       CDUSPOT


000090: 23,3513           30034                           CA       CDUZ
000091: 23,3514           54770                           TS       CDUSPOT    +2
000092:
000093: 23,3515           00006        CD*TR*GS           EXTEND
000094: 23,3516           22142                           QXCH     TEM2
000095: 23,3517           35015                           CAF      FOUR
000096: 23,3520           76211        TR*GL**P           MASK     SIX                                   #  MAKE IT EVEN AND SMALLER
000097: 23,3521           54143                           TS       TEM3
000098: 23,3522           50143                           INDEX    TEM3
000099: 23,3523           30766                           CA       CDUSPOT
000100: 23,3524           52155                           DXCH     MPAC                                  #  STORING 2'S COMP ANGLE, LOADING MPAC
000101: 23,3525           52127                           DXCH     VBUF       +4                         #  STORING MPAC FOR LATER RESTORATION
000102: 23,3526           04757                           TC       USPRCADR
000103: 23,3527           45513                           CADR     CDULOGIC
000104: 23,3530           00006                           EXTEND
000105: 23,3531           30155                           DCA      MPAC
000106: 23,3532           50143                           INDEX    TEM3
000107: 23,3533           52767                           DXCH     CDUSPOT                               #  STORING 1'S COMPLEMENT ANGLE
000108: 23,3534           04757                           TC       USPRCADR
000109: 23,3535           01516                           CADR     COSINE
000110: 23,3536           52155                           DXCH     MPAC
000111: 23,3537           50143                           INDEX    TEM3
000112: 23,3540           52745                           DXCH     COSCDU                                #  STORING COSINE
000113: 23,3541           00006                           EXTEND
000114: 23,3542           50143                           INDEX    TEM3
000115: 23,3543           30767                           DCA      CDUSPOT                               #  LOADING 1'S COMPLEMENT ANGLE
000116: 23,3544           04757                           TC       USPRCADR
000117: 23,3545           01530                           CADR     SINE       +1                         #  SINE +1 EXPECTS ARGUMENT IN A AND L
000118: 23,3546           52127                           DXCH     VBUF       +4                         #  BRINGING UP PRIOR MPAC TO BE RESTORED
000119: 23,3547           52155                           DXCH     MPAC
000120: 23,3550           50143                           INDEX    TEM3
000121: 23,3551           52737                           DXCH     SINCDU
000122: 23,3552           10143                           CCS      TEM3
000123: 23,3553           13520                           TCF      TR*GL**P
000124: 23,3554           00142                           TC       TEM2


000126:                                                                                                  #  ****************************************************************************************************************
000127:                                                                                                  #  QUICTRIG, INTENDED FOR GUIDANCE CYCLE USE WHERE TIME IS CRITICAL, IS A MUCH FASTER VERSION OF CD*TR*GS.
000128:                                                                                                  #  QUICTRIG COMPUTES AND STORES THE SINES AND COSINES OF THE 2'S COMPLEMENT ANGLES AT CDUSPOT, CDUSPOT +2,
000129:                                                                                                  #  AND CDUSPOT +4.  UNLIKE CD*TR*GS, QUICTRIG DOES NOT LEAVE THE 1'S COMPLEMENT VERSIONS OF THE ANGLES IN
000130:                                                                                                  #  CDUSPOT.  QUICTRIG'S EXECUTION TIME IS 4.1 MS;    THIS IS 10 TIMES AS FAST AS CD*TR*GS.    QUICTRIG MAY BE
000131:                                                                                                  #  CALLED FROM INTERPRETIVE AS AN RTB OP-CODE, OR FROM BASIC VIA BANKCALL OR IBNKCALL.
000132:
000133: 23,3555           00004        QUICTRIG           INHINT                                         #  INHINT SINCE DAP USES THE SAME TEMPS
000134: 23,3556           00006                           EXTEND
000135: 23,3557           22061                           QXCH     ITEMP1
000136: 23,3560           35015                           CAF      FOUR
000137: 23,3561           76211                 +4        MASK     SIX
000138: 23,3562           54062                           TS       ITEMP2
000139: 23,3563           50062                           INDEX    ITEMP2
000140: 23,3564           30766                           CA       CDUSPOT
000141: 23,3565           05075                           TC       SPSIN
000142: 23,3566           00006                           EXTEND
000143: 23,3567           75002                           MP       BIT14                                 #  SCALE DOWN TO MATCH INTERPRETER OUTPUTS
000144: 23,3570           50062                           INDEX    ITEMP2
000145: 23,3571           52737                           DXCH     SINCDU
000146: 23,3572           50062                           INDEX    ITEMP2
000147: 23,3573           30766                           CA       CDUSPOT
000148: 23,3574           05074                           TC       SPCOS
000149: 23,3575           00006                           EXTEND
000150: 23,3576           75002                           MP       BIT14
000151: 23,3577           50062                           INDEX    ITEMP2
000152: 23,3600           52745                           DXCH     COSCDU
000153: 23,3601           10062                           CCS      ITEMP2
000154: 23,3602           13561                           TCF      QUICTRIG   +4
000155: 23,3603           30061                           CA       ITEMP1
000156: 23,3604           00003                           RELINT
000157: 23,3605           00000                           TC       A


000159:                                                                                                  # ****************************************************************************************************************
000160:                                                                                                  #  THESE INTERFACE ROUTINES MAKE IT POSSIBLE TO CALL AX*SR*T, ETC., IN
000161:                                                                                                  #  INTERPRETIVE.  LATER, WHERE POSSIBLE, THEY WILL BE ELIMINATED.
000162:
000163:                                                                                                  #  NBSM WILL BE THE FIRST TO GO.  IT SHOULD NOT BE USED.
000164:
000165: 23,3606           77620        NBSM               STQ
000166: 23,3607           00047                                    X2
000167: 23,3610           76740                           LXC,1    VLOAD*
000168: 23,3611           00050                                    S1                                    #  BASE ADDRESS OF THE CDU ANGLES IS IN S1
000169: 23,3612           00001                                    0,1
000170: 23,3613           24767                           STOVL    CDUSPOT
000171: 23,3614           00041                                    32D                                   #  VECTOR TO BE TRANSFORMED IS IN 32D
000172: 23,3615           77624                           CALL
000173: 23,3616           47637                                    TRG*NBSM
000174: 23,3617           34041                           STCALL   32D                                   #  SINCE THERE'S NO STGOTO
000175: 23,3620           00047                                    X2
000176:
000177:                                                                                                  #  THESE INTERFACE ROUTINES ARE PERMANENT.  ALL RESTORE USER'S EBANK
000178:                                                                                                  #  SETTING. ALL ARE STRICT INTERPRETIVE SUBROUTINES, CALLED USING "CALL",
000179:                                                                                                  #  RETURNING VIA QPRET.  ALL EXPECT AND RETURN THE VECTOR TO BE TRANSFOR-
000180:                                                                                                  #  MED INTERPRETER-STYLE IN MPAC; COMPONENTS AT MPAC, MPAC +3, AND MPAC +5.
000181:
000182:                                                                                                  #  TRG*SMNB AND TRG*NBSM BOTH EXPECT TO SEE THE 2'S COMPLEMENT ANGLES
000183:                                                                                                  #  AT CDUSPOT (ORDER Y Z X, AT CDUSPOT, CDUSPOT +2, AND CDUSPOT +4; ODD
000184:                                                                                                  #  LOCATIONS NEED NOT BE ZEROED).  TRG*NBSM DOES THE NB TO SM TRANSFOR-
000185:                                                                                                  #  MATION; TRG*SMNB, VICE VERSA.
000186:
000187:                                                                                                  #  CDU*NBSM DOES ITS TRANSFORMATION USING THE PRESENT CONTENTS OF
000188:                                                                                                  #  THE CDU COUNTERS.  OTHERWISE IT IS LIKE TRG*NBSM.
000189:
000190:                                                                                                  #  CDU*SMNB IS THE COMPLEMENT OF CDU*NBSM.
000191:
000192: 23,3621           77776        CDU*SMNB           EXIT
000193: 23,3622           03507                           TC       CDUTRIGS
000194: 23,3623           13626                           TCF      C*MM*N1
000195:
000196: 23,3624           77776        TRG*SMNB           EXIT
000197: 23,3625           03515                           TC       CD*TR*GS
000198: 23,3626           07501        C*MM*N1            TC       MPACVBUF                              #  AX*SR*T EXPECTS VECTOR IN VBUF
000199: 23,3627           46214                           CS       THREE                                 #  SIGNAL FOR SM TO NB TRANSFORMATION
000200: 23,3630           03650        C*MM*N2            TC       AX*SR*T
000201: 23,3631           06006                           TC       INTPRET
000202: 23,3632           43575                           VLOAD    RVQ
000203: 23,3633           00123                                    VBUF
000204:
000205: 23,3634           77776        CDU*NBSM           EXIT
000206: 23,3635           03507                           TC       CDUTRIGS
000207:


000209:
000210: 23,3636           13641                           TCF      C*MM*N3
000211:
000212: 23,3637           77776        TRG*NBSM           EXIT
000213: 23,3640           03515                           TC       CD*TR*GS
000214: 23,3641           07501        C*MM*N3            TC       MPACVBUF                              #  FOR AX*SR*T
000215: 23,3642           36214                           CA       THREE                                 #  SIGNAL FOR NB TO SM TRANSFORMATION
000216: 23,3643           13630                           TCF      C*MM*N2
000217:
000218:                                                                                                  #  *NBSM* AND *SMNB* EXPECT TO SEE THE SINES AND COSINES (AT SINCDU
000219:                                                                                                  #  AND COSCDU) RATHER THAN THE ANGLES THEMSELVES.  OTHERWISE THEY ARE
000220:                                                                                                  #  LIKE TRG*NBSM AND TRG*SMNB.
000221:
000222:                                                                                                  #  NOTE THAT JUST AS CD*TR*GS NEED BE CALLED ONLY ONCE FOR EACH SERIES
000223:                                                                                                  #  OF TRANSFORMATIONS USING THE SAME ANGLES, SO TOO ONLY ONE OF TRG*NBSM
000224:                                                                                                  #  AND TRG*SMNB NEED BE CALLED FOR EACH SERIES.  FOR SUBSEQUENT TRANSFOR-
000225:                                                                                                  #  MATIONS USE *NBSM* AND *SMNB*.
000226:
000227: 23,3644           77776        *SMNB*             EXIT
000228: 23,3645           13626                           TCF      C*MM*N1
000229:
000230: 23,3646           77776        *NBSM*             EXIT
000231: 23,3647           13641                           TCF      C*MM*N3
000232:
000233:                                                                                                  #  AX*SR*T COMBINES THE OLD SMNB AND NBSM.  FOR THE NB TO SM
000234:                                                                                                  #  TRANSFORMATION, ENTER WITH +3 IN A.  FOR SM TO NB, ENTER WITH -3.
000235:                                                                                                  #  THE VECTOR TO BE TRANSFORMED ARRIVES, AND IS RETURNED, IN VBUF.
000236:                                                                                                  #  AX*SR*T EXPECTS TO FIND THE SINES AND COSINES OF THE ANGLES OF ROTATION
000237:                                                                                                  #  AT SINCDU AND COSCDU, IN THE ORDER Y Z X.  A CALL TO CD*TR*GS, WITH
000238:                                                                                                  #  THE 2'S COMPLEMENT ANGLES (ORDER Y Z X) AT CDUSPOT, WILL TAKE CARE OF
000239:                                                                                                  #  THIS.  HERE IS A SAMPLE CALLING SEQUENCE:-
000240:                                                                                                  #                TC      CDUTRIGS
000241:                                                                                                  #                CS      THREE           ("CA THREE" FOR NBSM)
000242:                                                                                                  #                TC      AX*SR*T
000243:                                                                                                  #  THE CALL TO CD*TR*GS NEED NOT BE REPEATED, WHEN AX*SR*T IS CALLED MORE
000244:                                                                                                  #  THAN ONCE, UNLESS THE ANGLES HAVE CHANGED.
000245:
000246:                                                                                                  #  AX*SR*T IS GUARANTEED SAFE ONLY FOR VECTORS OF MAGNITUDE LESS THAN
000247:                                                                                                  #  UNITY.  A LOOK AT THE CASE IN WHICH A VECTOR OF GREATER MAGNITUDE
000248:                                                                                                  #  HAPPENS TO LIE ALONG AN AXIS OF THE SYSTEM TO WHICH IT IS TO BE TRANS-
000249:                                                                                                  #  FORMED CONVINCES ONE THAT THIS IS A RESTRICTION WHICH MUST BE ACCEPTED.
000250:
000251: 23,3650           54142        AX*SR*T            TS       DEXDEX                                #  WHERE IT BECOMES THE INDEX OF INDEXES
000252: 23,3651           00006                           EXTEND
000253: 23,3652           22145                           QXCH     RTNSAVER
000254:
000255: 23,3653           10142        R*TL**P            CCS      DEXDEX                                #                +3 --> 0        -3 --> 2
000256: 23,3654           40142                           CS       DEXDEX                                #  THUS:         +2 --> 1        -2 --> 1
000257: 23,3655           66214                           AD       THREE                                 #                +1 --> 2        -1 --> 0


000259: 23,3656           00006                           EXTEND
000260: 23,3657           50000                           INDEX    A
000261: 23,3660           33737                           DCA      INDEXI
000262: 23,3661           52144                           DXCH     DEXI
000263:
000264: 23,3662           35017                           CA       ONE
000265: 23,3663           54130                           TS       BUF
000266: 23,3664           00006                           EXTEND
000267: 23,3665           50143                           INDEX    DEX1
000268: 23,3666           40123                           DCS      VBUF
000269: 23,3667           13671                           TCF      LOOP1                                 #  REALLY BE A SUBTRACT, AND VICE VERSA
000270:
000271: 23,3670           52131        LOOP2              DXCH     BUF                                   #  LOADING VECTOR COMPONENT, STORING INDEX
000272:
000273: 23,3671           52155        LOOP1              DXCH     MPAC
000274: 23,3672           33735                           CA       SINESLOC
000275: 23,3673           60143                           AD       DEX1
000276: 23,3674           54116                           TS       ADDRWD
000277:
000278: 23,3675           07056                           TC       DMPSUB                                #  MULTIPLY BY SIN(CDUANGLE)
000279: 23,3676           10142                           CCS      DEXDEX
000280: 23,3677           52155                           DXCH     MPAC                                  #  NBSM CASE
000281: 23,3700           13703                           TCF      +3
000282: 23,3701           00006                           EXTEND                                         #  SMNB CASE
000283: 23,3702           40155                           DCS      MPAC
000284: 23,3703           52134                           DXCH     TERM1TMP
000285:
000286: 23,3704           36211                           CA       SIX                                   #  SINCDU AND COSCDU (EACH 6 WORDS) MUST
000287: 23,3705           26116                           ADS      ADDRWD                                #        BE CONSECUTIVE AND IN THAT ORDER
000288:
000289: 23,3706           00006                           EXTEND
000290: 23,3707           50130                           INDEX    BUF
000291: 23,3710           50143                           INDEX    DEX1
000292: 23,3711           30123                           DCA      VBUF
000293: 23,3712           52155                           DXCH     MPAC
000294: 23,3713           07056                           TC       DMPSUB                                #  MULTIPLY BY COS(CDUANGLE)
000295: 23,3714           52155                           DXCH     MPAC
000296: 23,3715           20134                           DAS      TERM1TMP
000297: 23,3716           52134                           DXCH     TERM1TMP
000298: 23,3717           20001                           DDOUBL
000299: 23,3720           50130                           INDEX    BUF
000300: 23,3721           50143                           INDEX    DEX1
000301: 23,3722           52123                           DXCH     VBUF
000302: 23,3723           52131                           DXCH     BUF                                   #  LOADING INDEX, STORING VECTOR COMPONENT
000303: 23,3724           10000                           CCS      A                                     #  'CAUSE THAT'S WHERE THE INDEX NOW IS
000304: 23,3725           13670                           TCF      LOOP2
000305:
000306: 23,3726           00006                           EXTEND
000307: 23,3727           26142                           DIM      DEXDEX                                #  DECREMENT MAGNITUDE PRESERVING SIGN
000308:


000310: 23,3730           10142        TSTPOINT           CCS      DEXDEX                                #  ONLY THE BRANCHING FUNCTION IS USED
000311: 23,3731           13653                           TCF      R*TL**P
000312: 23,3732           00145                           TC       RTNSAVER
000313: 23,3733           13653                           TCF      R*TL**P
000314: 23,3734           00145                           TC       RTNSAVER
000315:
000316: 23,3735           00736        SINESLOC           ADRES    SINCDU                                #  FOR USE IN SETTING ADDRWD
000317:
000318: 23,3736           00004        INDEXI             DEC      4          B-14                       #  **********   DON'T   **********
000319: 23,3737           00002                           DEC      2          B-14                       #  **********   TOUCH   **********
000320: 23,3740           00000                           DEC      0          B-14                       #  **********   THESE   **********
000321: 23,3741           00004                           DEC      4          B-14                       #  ********** CONSTANTS **********
000322:
000323:                                                                                                  #  ****************************************************************************************************************


000325:                                                                                                  #  THIS SUBROUTINE COMPUTES INCREMENTAL CHANGES IN CDU(GIMBAL) ANGLES FROM INCREMENTAL CHANGES ABOUT SM AXES.  IT
000326:                                                                                                  #  REQUIRES SM INCREMENTS AS A DP VECTOR SCALED AT ONE REVOLUTION(DTHETASM,+2,+4).  SIN,COS(CDUY,Z,X) ARE IN
000327:                                                                                                  #  SINCDU,+2,+4 AND COSCDU,+2,+4 RESPECTIVELY, SCALED TO ONE HALF.  CDU INCREENTS ARE PLACED IN DCDU,+2,+4 SCALED TO
000328:                                                                                                  #  ONE REVOLUTION.
000329:
000330:                                                                                                  #        *  COS(IGA)SEC(MGA)             0               -SIN(IGA)SEC(MGA) *
000331:                                                                                                  #        *                                                                 *
000332:                                                                                                  #        * -COS(IGA)TAN(MGA)             1                SIN(IGA)TAN(MGA) *
000333:                                                                                                  #        *                                                                 *
000334:                                                                                                  #        *      SIN(IGA)                 0                    COS(IGA)     *
000335:
000336: 14,3422                                           BANK     14
000337: 23,2000                                           SETLOC   POWFLIT1
000338: 23,2000                                           BANK
000339:
000340: 23,3742           41345        SMCDURES           DLOAD    DMP
000341: 23,3743           03212                                    DTHETASM
000342: 23,3744           00745                                    COSCDUY
000343:
000344: 23,3745           41325                           PDDL     DMP
000345: 23,3746           03216                                    DTHETASM   +4
000346: 23,3747           00737                                    SINCDUY
000347:
000348: 23,3750           77621                           BDSU
000349: 23,3751           77671                           DDV
000350: 23,3752           00747                                    COSCDUZ
000351: 23,3753           03204                           STORE    DCDU
000352:
000353: 23,3754           72405                           DMP      SL1                                   #  SCALE
000354: 23,3755           00741                                    SINCDUZ
000355: 23,3756           77621                           BDSU
000356:
000357: 23,3757           03214                                    DTHETASM   +2
000358: 23,3760           17206                           STODL    DCDU       +2
000359: 23,3761           03212                                    DTHETASM
000360:
000361: 23,3762           65205                           DMP      PDDL
000362: 23,3763           00737                                    SINCDUY
000363: 23,3764           03216                                    DTHETASM   +4
000364:
000365: 23,3765           43205                           DMP      DAD
000366: 23,3766           00745                                    COSCDUY
000367: 23,3767           77752                           SL1
000368: 23,3770           03210                           STORE    DCDU       +4
000369: 23,3771           77616                           RVQ
000370:

End of include-file POWERED_FLIGHT_SUBROUTINES.agc.  Parent file is MAIN.agc


