
Source Code


000002:                                                                                                  ## Copyright:   Public domain.
000003:                                                                                                  ## Filename:    RCS-CSM_DAP_EXECUTIVE_PROGRAMS.agc
000004:                                                                                                  ## Purpose:     Part of the source code for Colossus 2A, AKA Comanche 055.
000005:                                                                                                  ##              It is part of the source code for the Command Module's (CM)
000006:                                                                                                  ##              Apollo Guidance Computer (AGC), for Apollo 11.
000007:                                                                                                  ## Assembler:   yaYUL
000008:                                                                                                  ## Contact:     Ron Burkey <info@sandroid.org>.
000009:                                                                                                  ## Website:     www.ibiblio.org/apollo.
000010:                                                                                                  ## Pages:       1037-1038
000011:                                                                                                  ## Mod history: 2009-05-13 RSB  Adapted from the Colossus249/ file of the
000012:                                                                                                  ##                              same name, using Comanche055 page images.
000013:                                                                                                  ##              2009-05-20 RSB  A "Page N" comment was corrected.
000014:                                                                                                  ##              2016-12-21 RSB  Proofed comment text using octopus/ProoferComments
000015:                                                                                                  ##                              but no errors found.
000016:                                                                                                  ##
000017:                                                                                                  ## This source code has been transcribed or otherwise adapted from digitized
000018:                                                                                                  ## images of a hardcopy from the MIT Museum.  The digitization was performed
000019:                                                                                                  ## by Paul Fjeld, and arranged for by Deborah Douglas of the Museum.  Many
000020:                                                                                                  ## thanks to both.  The images (with suitable reduction in storage size and
000021:                                                                                                  ## consequent reduction in image quality as well) are available online at
000022:                                                                                                  ## www.ibiblio.org/apollo.  If for some reason you find that the images are
000023:                                                                                                  ## illegible, contact me at info@sandroid.org about getting access to the
000024:                                                                                                  ## (much) higher-quality images which Paul actually created.
000025:                                                                                                  ##
000026:                                                                                                  ## Notations on the hardcopy document read, in part:
000027:                                                                                                  ##
000028:                                                                                                  ##      Assemble revision 055 of AGC program Comanche by NASA
000029:                                                                                                  ##      2021113-051.  10:28 APR. 1, 1969
000030:                                                                                                  ##
000031:                                                                                                  ##      This AGC program shall also be referred to as
000032:                                                                                                  ##                      Colossus 2A
000033:


000035:                                                                                                  #  CALCULATION OF  AMGB, AMBG  ONCE EVERY SECOND
000036:
000037:                                                                                                  #        AMGB =  1       SIN(PSI)                0
000038:                                                                                                  #                0       COS(PSI)COS(PHI)        SIN(PHI)
000039:                                                                                                  #                0       -COS(PSI)SIN(PHI)       COS(PHI)
000040:
000041:                                                                                                  #        AMBG =  1       -TAN(PSI)COS(PHI)       TAN(PSI)SIN(PHI)
000042:                                                                                                  #                0       COS(PHI)/COS(PSI)       -SIN(PHI)/COS(PSI)
000043:                                                                                                  #                0       SIN(PHI)                COS(PHI)
000044:
000045:                                                                                                  #  WHERE PHI AND PSI ARE CDU ANGLES
000046:
000047: 20,3612                                           BANK     20
000048: 22,2000                                           SETLOC   DAPS8
000049: 22,2000                                           BANK
000050:
000051: 22,3447                                           COUNT*   $$/DAPEX
000052: 22,3447  E6,1510                                  EBANK=   KMPAC
000053: 22,3447           30102        AMBGUPDT           CA       FLAGWRD6                              #  CHECK FOR RCS AUTOPILOT
000054: 22,3450           00006                           EXTEND
000055: 22,3451           65217                           BZMF     ENDOFJOB                              #  BIT15 = 0, BIT14 = 1
000056: 22,3452           75002                           MASK     BIT14                                 #  IF NOT RCS, EXIT
000057: 22,3453           00006                           EXTEND
000058: 22,3454           15217                           BZF      ENDOFJOB                              #  TO PROTECT TVC DAP ON SWITCHOVER
000059:
000060: 22,3455           30034                           CA       CDUZ
000061: 22,3456           05075                           TC       SPSIN2
000062: 22,3457           55640                           TS       AMGB1                                 #  CALCULATE AMGB
000063: 22,3460           30034                           CA       CDUZ
000064: 22,3461           05074                           TC       SPCOS2
000065: 22,3462           55645                           TS       CAPSI                                 #  MUST CHECK FOR GIMBAL LOCK
000066: 22,3463           33507                           CAF      QUADANGL                              #  = 7.25  DEGREES JET QUAD ANGULAR OFFSET
000067: 22,3464           00006                           EXTEND
000068: 22,3465           20032                           MSU      CDUX
000069: 22,3466           40000                           COM                                            #  CDUX - 7.25 DEG
000070: 22,3467           05074                           TC       SPCOS1
000071: 22,3470           55644                           TS       AMGB8
000072: 22,3471           00006                           EXTEND
000073: 22,3472           71645                           MP       CAPSI
000074: 22,3473           55641                           TS       AMGB4
000075: 22,3474           33507                           CAF      QUADANGL
000076: 22,3475           00006                           EXTEND
000077: 22,3476           20032                           MSU      CDUX
000078: 22,3477           40000                           COM                                            #  CDUX - 7.25 DEG
000079: 22,3500           05075                           TC       SPSIN1
000080: 22,3501           55642                           TS       AMGB5
000081: 22,3502           00006                           EXTEND
000082: 22,3503           71645                           MP       CAPSI
000083: 22,3504           40000                           COM


000085: 22,3505           55643                           TS       AMGB7
000086: 22,3506           15217                           TCF      ENDOFJOB
000087: 22,3507           01224        QUADANGL           DEC      660        B-14                       #  = 7.25 DEGREES
000088:

End of include-file RCS-CSM_DAP_EXECUTIVE_PROGRAMS.agc.  Parent file is MAIN.agc


