
Source Code


000002:                                                                                                  ## Copyright:   Public domain.
000003:                                                                                                  ## Filename:    RCS-CSM_DIGITAL_AUTOPILOT.agc
000004:                                                                                                  ## Purpose:     Part of the source code for Colossus 2A, AKA Comanche 055.
000005:                                                                                                  ##              It is part of the source code for the Command Module's (CM)
000006:                                                                                                  ##              Apollo Guidance Computer (AGC), for Apollo 11.
000007:                                                                                                  ## Assembler:   yaYUL
000008:                                                                                                  ## Contact:     Ron Burkey <info@sandroid.org>.
000009:                                                                                                  ## Website:     www.ibiblio.org/apollo.
000010:                                                                                                  ## Pages:       1002-1024
000011:                                                                                                  ## Mod history: 2009-05-13 RSB  Adapted from the Colossus249/ file of the
000012:                                                                                                  ##                              same name, using Comanche055 page images.
000013:                                                                                                  ##              2016-12-21 RSB  Proofed comment text using octopus/ProoferComments
000014:                                                                                                  ##                              and corrected the errors found.
000015:                                                                                                  ##              2017-01-18 RSB  Fixed comment-text errors noted while diff'ing
000016:                                                                                                  ##                              vs Colossus 249.
000017:                                                                                                  ##
000018:                                                                                                  ## This source code has been transcribed or otherwise adapted from digitized
000019:                                                                                                  ## images of a hardcopy from the MIT Museum.  The digitization was performed
000020:                                                                                                  ## by Paul Fjeld, and arranged for by Deborah Douglas of the Museum.  Many
000021:                                                                                                  ## thanks to both.  The images (with suitable reduction in storage size and
000022:                                                                                                  ## consequent reduction in image quality as well) are available online at
000023:                                                                                                  ## www.ibiblio.org/apollo.  If for some reason you find that the images are
000024:                                                                                                  ## illegible, contact me at info@sandroid.org about getting access to the
000025:                                                                                                  ## (much) higher-quality images which Paul actually created.
000026:                                                                                                  ##
000027:                                                                                                  ## Notations on the hardcopy document read, in part:
000028:                                                                                                  ##
000029:                                                                                                  ##      Assemble revision 055 of AGC program Comanche by NASA
000030:                                                                                                  ##      2021113-051.  10:28 APR. 1, 1969
000031:                                                                                                  ##
000032:                                                                                                  ##      This AGC program shall also be referred to as
000033:                                                                                                  ##                      Colossus 2A
000034:


000036:                                                                                                  #  T5 INTERRUPT PROGRAM FOR THE RCS-CSM AUTOPILOT
000037:
000038:                                                                                                  #  START OF T5 INTERRUPT PROGRAM
000039:
000040: 20,3612                                           BANK     20
000041: 21,2000                                           SETLOC   DAPS3
000042: 21,2000                                           BANK
000043:
000044: 21,2105                                           COUNT    21/DAPRC
000045:
000046: 21,2105  E6,1510                                  EBANK=   KMPAC
000047: 21,2105           22016        REDORCS            LXCH     BANKRUPT                              #  RESTART OF AUTOPILOT COMES HERE
000048: 21,2106           31465                           CA       T5PHASE                               #  ON A T5 RUPT.
000049: 21,2107           00006                           EXTEND
000050: 21,2110           62112                           BZMF     +2                                    #  IF T5PHASE +0, -0, OR -, RESET TO -
000051: 21,2111           12114                           TCF      +3                                    #  IF T5PHASE +, LEAVE IT +.  DO A FRESHDAP
000052: 21,2112           45017                           CS       ONE
000053: 21,2113           55465                           TS       T5PHASE
000054: 21,2114           00006                           EXTEND
000055: 21,2115           32121                           DCA      RCSLOC
000056: 21,2116           53313                           DXCH     T5LOC                                 #  HOOK UP T5RUPT TO AUTOPILOT
000057: 21,2117           12123                           TCF      RCSATT     +1
000058: 21,2120  E6,1510                                  EBANK=   KMPAC
000059: 21,2120           02122 42066  RCSLOC             2CADR    RCSATT
000060:
000061: 21,2122           22016        RCSATT             LXCH     BANKRUPT                              #  SAVE BB
000062: 21,2123           00006                           EXTEND                                         #  SAVE Q
000063: 21,2124           22012                           QXCH     QRUPT
000064: 21,2125           35001                           CAF      BIT15                                 #  BIT15 CHAN31 = 0 IF IMU POWER IS ON AND
000065: 21,2126           00006                           EXTEND                                         #  S/C CONT SW IS IN CMC (I.E. IF G/C AUTO
000066: 21,2127           02031                           RAND     CHAN31                                #  PILOT IS FULLY ENABLED)
000067: 21,2130           00006                           EXTEND
000068: 21,2131           12160                           BZF      SETT5                                 #  IF G/C AUTOPILOT IS FULLY ENABLED,
000069:                                                                                                  #  GO TO SETT5
000070:
000071: 21,2132           41501                           CS       RCSFLAGS                              #  IF G/C AUTOPILOT IS NOT FULLY ENABLED,
000072: 21,2133           75002                           MASK     BIT14
000073: 21,2134           27501                           ADS      RCSFLAGS                              #  SET NORATE FLAG,
000074: 21,2135           34777                           CAF      POSMAX
000075: 21,2136           55332                           TS       HOLDFLAG                              #  SET HOLDFLAG +,
000076: 21,2137           35021                           CAF      ZERO                                  #  ZERO ERRORX, ERRORY, AND ERRORZ,
000077: 21,2140           55567                           TS       ERRORX
000078: 21,2141           55570                           TS       ERRORY
000079: 21,2142           55571                           TS       ERRORZ
000080: 21,2143           35002                           CAF      BIT14
000081: 21,2144           00006                           EXTEND
000082: 21,2145           02031                           RAND     CHAN31                                #  AND CHECK FREE FUNCTION (BIT14 CHAN31).
000083: 21,2146           00006                           EXTEND


000085: 21,2147           12160                           BZF      SETT5                                 #  IF IN FREE MODE, GO TO SETT5.
000086:
000087: 21,2150           55465                           TS       T5PHASE                               #  IF NOT IN FREE MODE,
000088: 21,2151           37676                           CAF      OCT37766                              #  SCHEDULE REINITIALIZATION (FRESHDAP)
000089: 21,2152           54030                           TS       TIME5                                 #  IN 100 MS VIA T5RUPT
000090:
000091: 21,2153           02632                           TCR      ZEROJET                               #  ZERO JET CHANNELS IN 14 MS VIA ZEROJET
000092:
000093: 21,2154           12350                           TCF      KMATRIX
000094: 21,2155           37770        DELTATT            OCT      37770                                 #  80MS (TIME5)
000095: 21,2156           37776        DELTATT2           OCT      37776                                 #  20MS (TIME5)
000096: 21,2157           37634        ONESEK             DEC      16284      B-14                       #  1 SEC(TIME5)
000097: 21,2160                        CHAN5              EQUALS   5
000098: 21,2160                        CHAN6              EQUALS   6
000099: 21,2160     7671               PRIO34A            =        PRIO34
000100:
000101:                                                                                                  #  CHECK PHASE OF T5 PROGRAM
000102:
000103:                                                                                                  #  BECAUSE OF THE LENGTH OF THE T5 PROGRAM,IT HAS BEEN DIVIDED INTO
000104:                                                                                                  #  THREE PARTS, T5PHASE1, T5PHASE2, AND THE JET SELECTION LOGIC,
000105:                                                                                                  #  TO ALLOW FOR THE EXECUTION OF OTHER
000106:                                                                                                  #  INTERRUPTS.  T5PHASE IS ALSO USED IN THE INITIALIZATION OF THE AUTOPILOT
000107:                                                                                                  #  VARIABLES AT TURN ON.
000108:
000109:                                                                                                  #  THE CODING OF T5PHASE IS...
000110:
000111:                                                                                                  #                + = INITIALIZE T5 RCS-CSM AUTOPILOT
000112:                                                                                                  #     T5PHASE = +0 = PHASE2 OF THE T5 PROGRAM
000113:                                                                                                  #                - = RESTART DAP
000114:                                                                                                  #               -0 = PHASE1 OF THE T5 PROGRAM
000115:
000116: 21,2160           11465        SETT5              CCS      T5PHASE
000117: 21,2161           12544                           TCF      FRESHDAP                              #  TURN ON AUTOPILOT
000118: 21,2162           12661                           TCF      T5PHASE2                              #  BRANCH TO PHASE2 OF PROGRAM
000119: 21,2163           12546                           TCF      REDAP                                 #  RESTART AUTOPILOT
000120:
000121: 21,2164           55465                           TS       T5PHASE                               #  PHASE 1  RESET  FOR PHASE 2
000122: 21,2165           30030                           CA       TIME5
000123: 21,2166           55634                           TS       T5TIME                                #  USED IN COMPENSATING FOR DELAYS IN T5
000124: 21,2167           32156                           CAF      DELTATT2                              #  RESET FOR T5RUPT IN 20MS FOR PHASE2
000125: 21,2170           54030                           TS       TIME5                                 #  OF PROGRAM
000126:


000128:                                                                                                  #  IMU STATUS CHECK
000129:
000130: 21,2171           41321                           CS       IMODES33                              #  CHECK IMU STATUS
000131: 21,2172           75012                           MASK     BIT6                                  #  BIT6 = 0 IMU OK
000132: 21,2173           10000                           CCS      A                                     #  BIT6 = 1 NO IMU
000133: 21,2174           12210                           TCF      RATEFILT
000134: 21,2175           41501        FREECHK            CS       RCSFLAGS                              #  BIT14 INDICATES THAT RATES HAVE NOT BEEN
000135: 21,2176           75002                           MASK     BIT14                                 #  INITIALIZED
000136: 21,2177           27501                           ADS      RCSFLAGS
000137: 21,2200           35002                           CAF      BIT14                                 #  NO ATTITUDE REFERENCE
000138: 21,2201           55332                           TS       HOLDFLAG                              #  STOP ANY AUTOMATIC STEERING AND PREPARE
000139:                                                                                                  #  TO PICK UP CDU ANGLES UPON RESUMPTION OF
000140:                                                                                                  #  ATTITUDE HOLD
000141: 21,2202           00006                           EXTEND
000142: 21,2203           02031                           RAND     CHAN31                                #  CHECK FOR FREE MODE
000143: 21,2204           00006                           EXTEND
000144: 21,2205           12417                           BZF      KRESUME1                              #  IN FREE MODE PROVIDE FREE CONTROL ONLY
000145: 21,2206           12534                           TCF      REINIT                                #  .....TILT...............................
000146: 21,2207           00030        BITS4,5            OCT      30
000147:
000148: 21,2210           31501        RATEFILT           CA       RCSFLAGS                              #  SEE IF RATEFILTER HAS BEEN INITIALIZED
000149: 21,2211           75002                           MASK     BIT14
000150: 21,2212           00006                           EXTEND                                         #  IF SO, PROCEED WITH RATE DERIVATION
000151: 21,2213           12215                           BZF      +2
000152: 21,2214           12350                           TCF      KMATRIX                               #  IF NOT, SKIP RATE DERIVATION
000153:
000154:                                                                                                  #        RATE FILTER     TIMING = 7.72 MS
000155:
000156:                                                                                                  #  RATE FILTER EQUATIONS
000157:
000158:
000159:                                                                                                  #  DRHO = DELRHO - (.1)ADOT + (1 - GAIN1)DRHO
000160:                                                                                                  #                                            -1
000161:
000162:                                                                                                  #  ADOT = ADOT   + GAIN2 DRHO + KMJ DFT
000163:                                                                                                  #             -1
000164:                                                                                                  #         -       *     -     -
000165:                                                                                                  #  WHERE DELRHO = AMGB (CDU - CDU  )
000166:                                                                                                  #                                -1
000167:
000168: 21,2215           35016                           CAF      TWO
000169: 21,2216           55506        DRHOLOOP           TS       SPNDX
000170: 21,2217           60000                           DOUBLE
000171: 21,2220           55507                           TS       DPNDX
000172: 21,2221           51507                           INDEX    DPNDX
000173: 21,2222           41552                           CS       DRHO                                  #  DRHO SCALED 180 DEGS
000174: 21,2223           00006                           EXTEND
000175: 21,2224           51617                           INDEX    ATTKALMN                              #  PICK UP DESIRED FILTER GAIN
000176: 21,2225           73077                           MP       GAIN1
000177: 21,2226           51507                           INDEX    DPNDX
000178: 21,2227           21553                           DAS      DRHO                                  #  (1 -.064) DRHO
000179: 21,2230           00006                           EXTEND


000181: 21,2231           51507                           INDEX    DPNDX
000182: 21,2232           41534                           DCS      ADOT
000183: 21,2233           53511                           DXCH     KMPAC                                 #  -(.1)ADOT
000184: 21,2234           35003                           CA       QUARTER
000185: 21,2235           02042                           TC       SMALLMP
000186: 21,2236           53511                           DXCH     KMPAC
000187: 21,2237           51507                           INDEX    DPNDX
000188: 21,2240           21553                           DAS      DRHO
000189: 21,2241           11506                           CCS      SPNDX
000190: 21,2242           12216                           TCF      DRHOLOOP
000191:
000192: 21,2243           30032                           CA       CDUX                                  #  MEASURED BODY RATES--
000193: 21,2244           57635                           XCH      RHO
000194: 21,2245           00006                           EXTEND
000195: 21,2246           21635                           MSU      RHO                                   #  -        *     -     -
000196: 21,2247           40000                           COM                                            #  DELRHO = AMGB (CDU - CDU  )
000197:                                                                                                  #                          -1
000198: 21,2250           22007                           ZL
000199: 21,2251           53516                           DXCH     DELTEMPX
000200: 21,2252           30033                           CA       CDUY
000201: 21,2253           57636                           XCH      RHO1
000202: 21,2254           00006                           EXTEND
000203: 21,2255           21636                           MSU      RHO1
000204: 21,2256           40000                           COM
000205: 21,2257           55502                           TS       T5TEMP                                #  (CDUY - RHO1)    SCALED 90 DEGS
000206: 21,2260           00006                           EXTEND
000207: 21,2261           71640                           MP       AMGB1
000208: 21,2262           21516                           DAS      DELTEMPX                              #  DELTEMPX = (CDUX-RHO) + AMGB1(CDUY-RHO1)
000209:                                                                                                  #  MUST BE DOUBLE PRECISION OR WILL LOSE
000210:                                                                                                  #  PULSES
000211: 21,2263           31641                           CA       AMGB4
000212: 21,2264           00006                           EXTEND
000213: 21,2265           71502                           MP       T5TEMP
000214: 21,2266           53520                           DXCH     DELTEMPY
000215: 21,2267           31643                           CA       AMGB7
000216: 21,2270           00006                           EXTEND
000217: 21,2271           71502                           MP       T5TEMP
000218: 21,2272           53522                           DXCH     DELTEMPZ
000219: 21,2273           30034                           CA       CDUZ
000220: 21,2274           57637                           XCH      RHO2
000221: 21,2275           00006                           EXTEND
000222: 21,2276           21637                           MSU      RHO2
000223: 21,2277           40000                           COM
000224: 21,2300           55502                           TS       T5TEMP                                #  (CDUZ - RHO2)    SCALED 90 DEGS
000225: 21,2301           00006                           EXTEND
000226: 21,2302           71642                           MP       AMGB5
000227: 21,2303           21520                           DAS      DELTEMPY                              #  DELTEMPY = AMGB4(CDUY-RHO1)
000228:                                                                                                  #                   + AMGB5(CDUZ-RHO2)
000229: 21,2304           31644                           CA       AMGB8
000230: 21,2305           00006                           EXTEND
000231:


000233: 21,2306           71502                           MP       T5TEMP
000234: 21,2307           21522                           DAS      DELTEMPZ                              #  DELTEMPZ = AMGB7(CDUY-RHO1)
000235:                                                                                                  #                  + AMGB8(CDUZ-RHO2)
000236: 21,2310           35016                           CAF      TWO
000237: 21,2311           55506        ADOTLOOP           TS       SPNDX
000238: 21,2312           60000                           DOUBLE
000239: 21,2313           55507                           TS       DPNDX
000240: 21,2314           00006                           EXTEND
000241: 21,2315           51507                           INDEX    DPNDX
000242: 21,2316           31516                           DCA      DELTEMPX
000243: 21,2317           51507                           INDEX    DPNDX
000244: 21,2320           21553                           DAS      DRHO
000245: 21,2321           00006                           EXTEND
000246: 21,2322           51507                           INDEX    DPNDX
000247: 21,2323           31516                           DCA      DELTEMPX
000248: 21,2324           51507                           INDEX    DPNDX
000249: 21,2325           21542                           DAS      MERRORX
000250: 21,2326           51507                           INDEX    DPNDX
000251: 21,2327           31552                           CA       DRHO
000252: 21,2330           60000                           DOUBLE                                         #  N.B.
000253: 21,2331           60000                           DOUBLE                                         #  N.B.
000254: 21,2332           00006                           EXTEND
000255: 21,2333           51617                           INDEX    ATTKALMN                              #  PICK UP DESIRED FILTER GAINS
000256: 21,2334           73115                           MP       GAIN2
000257: 21,2335           51507                           INDEX    DPNDX                                 #  ADOT   + (.16)(.1)DRHO
000258: 21,2336           21534                           DAS      ADOT                                  #      -1
000259: 21,2337           51506                           INDEX    SPNDX                                 #  S/C TORQUE TO INERTIA RATIO
000260: 21,2340           31620                           CA       KMJ                                   #  SCALED (450)(1600)/(57.3)(16384)=1/1.3
000261: 21,2341           00006                           EXTEND
000262: 21,2342           51506                           INDEX    SPNDX
000263: 21,2343           71547                           MP       DFT
000264: 21,2344           51507                           INDEX    DPNDX
000265: 21,2345           21534                           DAS      ADOT                                  #  KMJ(DFT)
000266: 21,2346           11506                           CCS      SPNDX
000267: 21,2347           12311                           TCF      ADOTLOOP                              #  END CALCULATION OF VEHICLE RATES
000268: 21,2350           31560        KMATRIX            CA       ATTSEC
000269: 21,2351           75026                           MASK     LOW4
000270: 21,2352           10000                           CCS      A
000271: 21,2353           12361                           TCF      TENTHSEK
000272: 21,2354           37671                           CAF      PRIO34                                #  CALL FOR 1 SEC UPDATE OF TRANSFORMATION
000273: 21,2355           05134                           TC       NOVAC                                 #  MATRIX FROM GIMBAL AXES TO BODY AXES
000274: 21,2356  E6,1510                                  EBANK=   KMPAC
000275: 21,2356           03447 44066                     2CADR    AMBGUPDT
000276:
000277: 21,2360           34334                           CAF      NINE
000278:
000279: 21,2361           55560        TENTHSEK           TS       ATTSEC
000280:


000282:                                                                                                  #  WHEN AUTOMATIC MANEUVERS ARE BEING PERFORMED, THE FOLLOWING ANGLE ADDITION MUST BE MADE TO PROVIDE A SMOOTH
000283:                                                                                                  #  SEQUENCE OF ANGULAR COMMANDS TO THE AUTOPILOT--
000284:
000285:                                                                                                  #        CDUXD = CDUXD + DELCDUX         (DOUBLE PRECISION)
000286:                                                                                                  #        CDUYD = CDUYD + DELCDUY         (DOUBLE PRECISION)
000287:                                                                                                  #        CDUZD = CDUZD + DELCDUZ         (DOUBLE PRECISION)
000288:
000289:                                                                                                  #  THE STEERING PROGRAMS-
000290:                                                                                                  #        1) ATTITUDE MANEUVER ROUTINE
000291:                                                                                                  #        2) LEM TRACKING
000292:
000293:                                                                                                  #  SHOULD GENERATE THE DESIRED ANGLES (CDUXD, CDUYD, CDUZD) AS WELL AS THE INCREMENTAL ANGLES (DELCDUX, DELCDUY,
000294:                                                                                                  #  DELCDUZ) SO THAT THE GIMBAL ANGLE COMMANDS CAN BE INTERPOLATED BETWEEN UPDATES.
000295:
000296:                                                                                                  #  HOLDFLAG CODING-
000297:
000298:                                                                                                  #        + = GRAB PRESENT CDU ANGLES AND STORE IN THETADX, THETADY, THETADZ
000299:                                                                                                  #            AND PERFORM ATTITUDE HOLD ABOUT THESE ANGLES
000300:                                                                                                  #            ALSO IGNORE AUTOMATIC STEERING
000301:                                                                                                  #            SET = + BY
000302:                                                                                                  #                1) INITIALIZATION PHASE OF AUTOPILOT
000303:                                                                                                  #                2) OCCURANCE OF RHC COMMANDS
000304:                                                                                                  #                3) FREE MODE
000305:                                                                                                  #                4) SWITCH OVER TO ATTITUDE HOLD FROM AUTO
000306:                                                                                                  #                   WHILE DOING AUTOMATIC STEERING (IN THIS CASE
000307:                                                                                                  #                   HOLDFLAG IS NOT ACTUALLY SET TO +, BUT THE LOGIC
000308:                                                                                                  #                   FUNCTIONS AS IF IT WERE.)
000309:                                                                                                  #                5) S/C CONTROL SWITCH IN SCS
000310:                                                                                                  #                6) IMU POWER OFF
000311:                                                                                                  #       +0 = IN ATTITUDE HOLD ABOUT A PREVIOUSLY ESTABLISHED REFERENCE
000312:                                                                                                  #        - = PERFORMING AUTOMATIC MANEUVER
000313:                                                                                                  #       -0 = NOT USED AT PRESENT
000314:
000315:                                                                                                  #  NOTE THAT THIS FLAG MUST BE SET = - BY THE STEERING PROGRAM IF IT IS TO COMMAND THE AUTOPILOT.
000316:                                                                                                  #  SINCE ASTRONAUT ACTION MAY CHANGE THE HOLDFLAG SETTING, IT SHOULD BE MONITORED BY THE STEERING PROGRAM TO
000317:                                                                                                  #  DETERMINE IF THE AUTOMATIC SEQUENCE HAS BEEN INTERRUPTED AND IF SO, TAKE APPROPRIATE ACTION.
000318:
000319: 21,2362           41332                           CS       HOLDFLAG
000320: 21,2363           00006                           EXTEND
000321: 21,2364           62411                           BZMF     DACNDLS                               #  IF HOLDFLAG +0,-0,+, BYPASS AUTOMATIC
000322:                                                                                                  #  COMMANDS
000323: 21,2365           35016        DCDUINCR           CAF      TWO
000324: 21,2366           55506        DELOOP             TS       SPNDX
000325: 21,2367           60000                           DOUBLE
000326: 21,2370           55507                           TS       DPNDX
000327: 21,2371           00006                           EXTEND
000328: 21,2372           50000                           INDEX    A
000329: 21,2373           31647                           DCA      CDUXD


000331: 21,2374           53511                           DXCH     KMPAC
000332: 21,2375           00006                           EXTEND
000333: 21,2376           51507                           INDEX    DPNDX
000334: 21,2377           31576                           DCA      DELCDUX
000335: 21,2400           02054                           TC       DPADD
000336: 21,2401           00006                           EXTEND
000337: 21,2402           31511                           DCA      KMPAC
000338: 21,2403           51506                           INDEX    SPNDX
000339: 21,2404           55572                           TS       THETADX
000340: 21,2405           51507                           INDEX    DPNDX
000341: 21,2406           53647                           DXCH     CDUXD
000342: 21,2407           11506                           CCS      SPNDX
000343: 21,2410           12366                           TCF      DELOOP
000344:


000346:                                                                                                  #  RCS-CSM AUTOPILOT ATTITUDE ERROR DISPLAY
000347:
000348:                                                                                                  #  THREE TYPES OF ATTITUDE ERRORS MAY BE DISPLAYED ON THE FDAI-
000349:
000350:                                                                                                  #        MODE 1) AUTOPILOT FOLLOWING ERRORS              SELECTED BY V61E
000351:                                                                                                  #                GENERATED INTERNALLY BY THE AUTOPILOT
000352:
000353:                                                                                                  #        MODE 2) TOTAL ATTITUDE ERRORS                   SELECTED BY V62E
000354:                                                                                                  #                WITH RESPECT TO THE CONTENTS OF N22
000355:
000356:                                                                                                  #        MODE 3) TOTAL ASTRONAUT ATTITUDE ERRORS         SELECTED BY V63E
000357:                                                                                                  #                WITH RESPECT TO THE CONTENTS OF N17
000358:
000359:                                                                                                  #  MODE 1 IS PROVIDED AS A MONITOR OF THE RCS DAP AND ITS ABILITY TO TRACK AUTOMATIC STEERING COMMANDS.  IN THIS
000360:                                                                                                  #  MODE THE ATTITUDE ERRORS WILL BE ZEROED WHEN THE CMC MODE SWITCH IS IN FREE
000361:
000362:                                                                                                  #  MODE 2 IS PROVIDED TO ASSIST THE CREW IN MANUALLY MANEUVERING THE S/C TO THE ATTITUDE (GIMBAL ANGLES) SPECIFIED
000363:                                                                                                  #  IN N22.  THE ATTITUDE ERRORS WRT THESE ANGLES AND THE CURRENT CDU ANGLES ARE RESOLVED INTO S/C CONTROL AXES
000364:                                                                                                  #  AS A FLY-TO INDICATOR.
000365:
000366:                                                                                                  #  MODE 3 IS PROVIDED TO ASSIST THE CREW IN MANUALLY MANEUVERING THE S/C TO THE ATTITUDE (GIMBAL ANGLES) SPECIFIED
000367:                                                                                                  #  IN N17.  THE ATTITUDE ERRORS WRT THESE ANGLES AND THE CURRENT CDU ANGLES ARE RESOLVED INTO S/C CONTROL AXES
000368:                                                                                                  #  AS A FLY-TO INDICATOR.
000369:
000370:                                                                                                  #  V60 IS PROVIDED TO LOAD N17 WITH A SNAPSHOT OF THE CURRENT CDU ANGLES, THUS SYNCHRONIZING THE MODE 3 DISPLAY
000371:                                                                                                  #  WITH THE CURRENT S/C ATTITUDE.  THIS VERB MAY BE USED AT ANY TIME.
000372:
000373:                                                                                                  #  THESE DISPLAYS WILL BE AVAILIABLE IN ANY MODE (AUTO, HOLD, FREE, G+N, OR SCS) ONCE THE RCS DAP HAS BEEN
000374:                                                                                                  #  INITIATED VIA V46E.  MODE 1, HOWEVER, WILL BE MEANINGFUL ONLY IN G+N AUTO OR HOLD.  THE CREW MAY PRESET (VIA
000375:                                                                                                  #  V25N17) AN ATTITUDE REFERENCE (DESIRED GIMBAL ANGLES) INTO N17 AT ANY TIME.
000376:
000377: 21,2411           41501        DACNDLS            CS       RCSFLAGS                              #  ALTERNATE BETWEEN FDAIDSP1 AND FDAIDSP2
000378: 21,2412           75014                           MASK     BIT4
000379: 21,2413           00006                           EXTEND
000380: 21,2414           13160                           BZF      FDAIDSP2
000381:
000382: 21,2415           27501        FDAIDSP1           ADS      RCSFLAGS
000383: 21,2416           02420                           TC       NEEDLER
000384: 21,2417           15333        KRESUME1           TCF      RESUME                                #  END PHASE 1
000385:


000387:                                                                                                  #  FDAI ATTITUDE ERROR DISPLAY SUBROUTINE
000388:
000389:                                                                                                  #  PROGRAM DESCRIPTION:  D. KEENE  5/24/67
000390:
000391:                                                                                                  #  THIS SUBROUTINE IS USED TO DISPLAY ATTITUDE ERRORS ON THE FDAI VIA THE DIGITAL TO ANALOG CONVERTERS (DACS)
000392:                                                                                                  #  IN THE CDUS.  CARE IS TAKEN TO METER OUT THE APPROPRIATE NUMBER OF PULSES TO THE IMU ERROR COUNTERS AND PREVENT
000393:                                                                                                  #  OVERFLOW, TO CONTROL THE RELAY SEQUENCING, AND TO AVOID INTERFERENCE WITH THE COARSE ALIGN LOOP WHICH ALSO USES
000394:                                                                                                  #  THE DACS.
000395:
000396:                                                                                                  #  CALLING SEQUENCE:
000397:
000398:                                                                                                  #  DURING THE INITIALIZATION SECTION OF THE USER'S PROGRAM, BIT3 OF RCSFLAGS SHOULD BE SET TO INITIATE THE
000399:                                                                                                  #  TURN-ON SEQUENCE WITHIN THE NEEDLES PROGRAM:
000400:
000401:                                                                                                  #                CS      RCSFLAGS        IN EBANK6
000402:                                                                                                  #                MASK    BIT3
000403:                                                                                                  #                ADS     RCSFLAGS
000404:
000405:                                                                                                  #  THEREAFTER, THE ATTITUDE ERRORS GENERATED BY THE USER SHOULD BE TRANSFERED TO THE FOLLOWING LOCATIONS IN EBANK6:
000406:
000407:                                                                                                  #                AK      SCALED 180 DEGREES      NOTE:   THESE LOCATIONS ARE SUBJECT
000408:                                                                                                  #                AK1     SCALED 180 DEGREES              TO CHANGE
000409:                                                                                                  #                AK2     SCALED 180 DEGREES
000410:
000411:                                                                                                  #  FULL SCALED DEFLECTION CORRESPONDS TO 16 7/8 DEGREES OF ATTITUDE ERROR
000412:                                                                                                  #                (= 384 BITS IN IMU ERROR COUNTER)
000413:
000414:                                                                                                  #  A CALL TO NEEDLER WILL THEN UPDATE THE DISPLAY:
000415:
000416:                                                                                                  #                INHINT
000417:                                                                                                  #                TC      IBNKCALL        NOTE: EBANK SHOULD BE SET TO E6
000418:                                                                                                  #                CADR    NEEDLER
000419:                                                                                                  #                RELINT
000420:
000421:                                                                                                  #  THIS PROCESS SHOULD BE REPEATED EACH TIME THE ERRORS ARE UPDATED.  AT LEAST 3 PASSES THRU THE PROGRAM ARE
000422:                                                                                                  #  REQUIRED BEFORE ANYTHING IS ACTUALLY DISPLAYED ON THE ERROR METERS.
000423:                                                                                                  #  NOTE:  EACH CALL TO NEEDLER MUST BE SEPARATED BY AT LEAST 50MS TO ASSURE PROPER RELAY SEQUENCING.
000424:
000425:                                                                                                  #  ERASABLE USED:
000426:                                                                                                  #                AK              CDUXCMD
000427:                                                                                                  #                AK1             CDUYCMD
000428:                                                                                                  #                AK2             CDUZCMD
000429:                                                                                                  #                EDRIVEX         A,L,Q
000430:                                                                                                  #                EDRIVEY         T5TEMP
000431:                                                                                                  #                EDRIVEZ         SPNDX
000432:
000433:                                                                                                  #  SWITCHES:     RCSFLAGS        BITS 3,2
000434:
000435:                                                                                                  #  I/O CHANNELS: CHAN12          BIT 4            (COARSE ALIGN - READ ONLY)


000437:                                                                                                  #                CHAN12          BIT 6           (IMU ERROR COUNTER ENABLE)
000438:                                                                                                  #                CHAN14          BIT 13,14,15    (DAC ACTIVITY)
000439:
000440:                                                                                                  #  SIGN CONVENTION<      AK = THETAC - THETA
000441:                                                                                                  #                WHERE   THETAC = COMMAND ANGLE
000442:                                                                                                  #                        THETA = PRESENT ANGLE
000443:
000444: 21,2420           35014        NEEDLER            CAF      BIT4                                  #  CHECK FOR COARSE ALIGN ENABLE
000445: 21,2421           00006                           EXTEND                                         #  IF IN COARSE ALIGN DO NOT USE IMU
000446: 21,2422           02012                           RAND     CHAN12                                #  ERROR COUNTERS.  DONT USE NEEDLES
000447: 21,2423           00006                           EXTEND
000448: 21,2424           12431                           BZF      NEEDLER1
000449: 21,2425           41501                           CS       RCSFLAGS                              #  SET BIT3 FOR INITIALIZATION PASS
000450: 21,2426           75015                           MASK     BIT3
000451: 21,2427           27501                           ADS      RCSFLAGS
000452: 21,2430           00002                           TC       Q
000453:
000454: 21,2431           31501        NEEDLER1           CA       RCSFLAGS
000455: 21,2432           76211                           MASK     SIX
000456: 21,2433           00006                           EXTEND
000457: 21,2434           12471                           BZF      NEEDLES3
000458: 21,2435           75015                           MASK     BIT3
000459: 21,2436           00006                           EXTEND
000460: 21,2437           12462                           BZF      NEEDLER2                              #  BIT3 = 0, BIT2 = 1
000461:
000462: 21,2440           45012                           CS       BIT6                                  #  FIRST PASS BIT3 = 1
000463: 21,2441           00006                           EXTEND                                         #  DISABLE IMU ERROR COUNTER TO ZERO DACS
000464: 21,2442           03012                           WAND     CHAN12                                #  MUST WAIT AT LEAST 60 MS BEFORE
000465: 21,2443           45021        NEEDLE11           CS       ZERO                                  #  ENABLING COUNTERS.
000466: 21,2444           55476                           TS       AK                                    #  ZERO THE INPUTS ON FIRST PASS
000467: 21,2445           55477                           TS       AK1
000468: 21,2446           55500                           TS       AK2
000469: 21,2447           55503                           TS       EDRIVEX                               #  ZERO THE DISPLAY REGISTERS
000470: 21,2450           55504                           TS       EDRIVEY
000471: 21,2451           55505                           TS       EDRIVEZ
000472: 21,2452           54050                           TS       CDUXCMD                               #  ZERO THE OUT COUNTERS
000473: 21,2453           54051                           TS       CDUYCMD
000474: 21,2454           54052                           TS       CDUZCMD
000475: 21,2455           46211                           CS       SIX                                   #  RESET RCSFLAGS FOR PASS2
000476: 21,2456           71501                           MASK     RCSFLAGS
000477: 21,2457           65016                           AD       BIT2
000478: 21,2460           55501                           TS       RCSFLAGS
000479: 21,2461           00002                           TC       Q                                     #  END PASS1
000480:
000481: 21,2462           35012        NEEDLER2           CAF      BIT6                                  #  ENABLE IMU ERROR COUNTERS
000482: 21,2463           00006                           EXTEND
000483: 21,2464           05012                           WOR      CHAN12
000484: 21,2465           46211                           CS       SIX                                   #  RESET RCSFLAGS TO DISPLAY ATTITUDE


000486: 21,2466           71501                           MASK     RCSFLAGS                              #  ERRORS    WAIT AT LEAST 4 MS FOR
000487: 21,2467           55501                           TS       RCSFLAGS                              #  RELAY CLOSURE
000488: 21,2470           00002                           TC       Q
000489:
000490: 21,2471           35012        NEEDLES3           CAF      BIT6                                  #  CHECK TO SEE IF IMU ERROR COUNTER
000491: 21,2472           00006                           EXTEND                                         #  IS ENABLED
000492: 21,2473           02012                           RAND     CHAN12
000493: 21,2474           00006                           EXTEND                                         #  IF NOT RECYCLE NEEDLES
000494: 21,2475           12425                           BZF      NEEDLER    +5
000495:
000496: 21,2476           35016        NEEDLES            CAF      TWO
000497: 21,2477           55506        DACLOOP            TS       SPNDX
000498: 21,2500           45003                           CS       QUARTER
000499: 21,2501           00006                           EXTEND
000500: 21,2502           51506                           INDEX    SPNDX
000501: 21,2503           71476                           MP       AK
000502: 21,2504           54001                           TS       L
000503: 21,2505           10000                           CCS      A
000504: 21,2506           32542                           CA       DACLIMIT
000505: 21,2507           12511                           TCF      +2
000506: 21,2510           42542                           CS       DACLIMIT
000507: 21,2511           60001                           AD       L
000508: 21,2512           55502                           TS       T5TEMP                                #  OVFLO CHK
000509: 21,2513           12517                           TCF      +4
000510: 21,2514           50000                           INDEX    A                                     #  ON OVERFLOW LIMIT OUTPUT TO +-384
000511: 21,2515           32542                           CAF      DACLIMIT
000512: 21,2516           54001                           TS       L
000513: 21,2517           51506                           INDEX    SPNDX
000514: 21,2520           41503                           CS       EDRIVEX                               #  CURRENT VALUE OF DAC
000515: 21,2521           60001                           AD       L
000516: 21,2522           51506                           INDEX    SPNDX
000517: 21,2523           26050                           ADS      CDUXCMD
000518: 21,2524           51506                           INDEX    SPNDX
000519: 21,2525           23503                           LXCH     EDRIVEX
000520: 21,2526           11506                           CCS      SPNDX
000521: 21,2527           12477                           TCF      DACLOOP
000522: 21,2530           37707                           CAF      13,14,15
000523: 21,2531           00006                           EXTEND
000524: 21,2532           05014                           WOR      CHAN14                                #  SET DAC ACTIVITY BITS
000525: 21,2533           00002                           TC       Q
000526:
000527: 21,2534           32540        REINIT             CAF      DELAY200                              #  ........TILT LOGIC
000528: 21,2535           54030                           TS       TIME5                                 #  REINITIALIZE DAP IN 200MS
000529: 21,2536           55465                           TS       T5PHASE
000530: 21,2537           15333                           TCF      RESUME
000531: 21,2540           37754        DELAY200           DEC      16364      B-14                       #  200MS
000532:
000533: 21,2541           77177                           DEC      -384       B-14
000534:


000536: 21,2542           37200        DACLIMIT           DEC      16000      B-14
000537: 21,2543           00600                           DEC      384        B-14
000538:


000540:                                                                                                  #  INITIALIZATION PROGRAM FOR RCS-CSM AUTOPILOT
000541:
000542:                                                                                                  #  THE FOLLOWING QUANTITIES WILL BE ZEROED AND SHOULD APPEAR IN CONSECUTIVE LOCATIONS IN MEMORY AFTER WBODY
000543:
000544:                                                                                                  #        WBODY   (+1)            DFT                     TAU2
000545:                                                                                                  #        WBODY1  (+1)            DFT1                    BIAS
000546:                                                                                                  #        WBODY2  (+1)            DFT2                    BIAS1
000547:                                                                                                  #        ADOT    (+1)            DRHO    (+1)            BIAS2
000548:                                                                                                  #        ADOT1   (+1)            DRHO1   (+1)            ERRORX
000549:                                                                                                  #        ADOT2   (+1)            DRHO2   (+1)            ERRORY
000550:                                                                                                  #        MERRORX (+1)            ATTSEC                  ERRORZ
000551:                                                                                                  #        MERRORY (+1)            TAU
000552:                                                                                                  #        MERRORZ (+1)            TAU1
000553:
000554: 21,2544           35017        FRESHDAP           CAF      ONE                                   #  RESET HOLDFLAG TO STOP AUTOMATIC
000555: 21,2545           55332                           TS       HOLDFLAG                              #  STEERING AND PREPARE TO PICK UP AN
000556:                                                                                                  #  ATTITUDE HOLD REFERENCE
000557:
000558: 21,2546           04740        REDAP              TC       IBNKCALL                              #  DECODE DAPDATR1, DAPDATR2 FOR DEADBANDS
000559: 21,2547           40347                           CADR     S41.2                                 #  RATES, QUADFAILS, QUAD MANAGEMENT
000560:
000561: 21,2550           04740                           TC       IBNKCALL                              #  DECODE IXX, IAVG AND CONVERT
000562: 21,2551           40500                           CADR     S40.14                                #  TO AUTOPILOT GAINS
000563:
000564: 21,2552           32623                           CAF      NO.T5VAR                              #  NO. LOCATIONS TO BE ZEROED MINUS ONE
000565: 21,2553           55506        ZEROT5             TS       SPNDX                                 #  ZERO ALL NECESSARY ERASABLE REGISTERS
000566: 21,2554           35021                           CAF      ZERO
000567: 21,2555           51506                           INDEX    SPNDX
000568: 21,2556           55525                           TS       WBODY
000569: 21,2557           11506                           CCS      SPNDX
000570: 21,2560           12553                           TCF      ZEROT5
000571: 21,2561           02632                           TCR      ZEROJET
000572:
000573: 21,2562           45021                           CS       ZERO
000574: 21,2563           55633                           TS       CHANTEMP                              #  INITIALIZE MINIMUM IMPULSE CONTROL
000575:
000576: 21,2564           55632                           TS       CH31TEMP                              #  INITIALIZE RHC POSITION MEMORY FOR
000577:                                                                                                  #  MANUAL RATE MODES
000578:
000579: 21,2565           32624                           CAF      =.24
000580: 21,2566           55654                           TS       SLOPE                                 #  INITIALIZE SWITCHING LOGIC SLOPE
000581:
000582: 21,2567           35015                           CAF      FOUR
000583: 21,2570           55634                           TS       T5TIME                                #  PHASE 0 RESETS FOR PHASE 2 INTERRUPT IN
000584:                                                                                                  #  60 MS.  PHASE 2 RESETS FOR PHASE 1 RUPT
000585:                                                                                                  #  IN (80MS - T5TIME(40MS)).  THEREFORE
000586:                                                                                                  #  PHASE 1 (RATEFILTER) BEGINS CYCLING 100
000587:                                                                                                  #  MS FROM NOW AND EVERY 100MS THEREAFTER
000588:
000589: 21,2571           35024                           CAF      ELEVEN
000590: 21,2572           55617                           TS       ATTKALMN                              #  RESET TO PICK UP KALMAN FILTER GAINS
000591:                                                                                                  #  TO INITIALIZE THE S/C ANGULAR RATES


000593: 21,2573           30032                           CA       CDUX
000594: 21,2574           55635                           TS       RHO
000595: 21,2575           30033                           CA       CDUY
000596: 21,2576           55636                           TS       RHO1
000597: 21,2577           30034                           CA       CDUZ
000598: 21,2600           55637                           TS       RHO2
000599: 21,2601           35021                           CAF      ZERO                                  #  RESET AUTOPILOT TO BEGIN EXECUTING
000600: 21,2602           55465                           TS       T5PHASE                               #  PHASE2 OF PROGRAM
000601:
000602: 21,2603           41321                           CS       IMODES33                              #  CHECK IMU STATUS
000603: 21,2604           75012                           MASK     BIT6                                  #  IF BIT6 = 0 IMU IN FINE ALIGN
000604: 21,2605           10000                           CCS      A                                     #  IF BIT6 = 1 IMU NOT READY
000605: 21,2606           12612                           TCF      IMUAOK
000606: 21,2607           55617                           TS       ATTKALMN                              #  CANNOT USE IMU
000607: 21,2610           32626                           CAF      RCSINITB                              #  PROVIDE FREE CONTROL ONLY
000608: 21,2611           12617                           TCF      RCSSWIT                               #  DONT START UP RATE FILTER
000609:                                                                                                  #  SIGNAL NO RATE FILTER
000610:
000611: 21,2612           37671        IMUAOK             CAF      PRIO34                                #  START MATRIX INITIALIZATION
000612: 21,2613           05134                           TC       NOVAC                                 #  BYPASS IF IMU NOT IN FINE ALIGN
000613: 21,2614  E6,1510                                  EBANK=   KMPAC
000614: 21,2614           03447 44066                     2CADR    AMBGUPDT
000615:
000616: 21,2616           32625                           CAF      RCSINIT                               #  CLEAR BIT14 -ASSUME WE HAVE A GOOD IMU
000617: 21,2617           55501        RCSSWIT            TS       RCSFLAGS                              #  CLEAR BIT1  -INITIALIZE T6 PROGRAM
000618:                                                                                                  #    SET BIT3  -INITIALIZE NEEDLES
000619:                                                                                                  #  CLEAR BIT4  -RESET FOR FDAIDSP1
000620: 21,2620           32627                           CAF      T5WAIT60                              #  NEXT T5RUPT 60 MS FROM NOW TO ALLOW IMU
000621:                                                                                                  #  ERROR COUNTER TO ZERO.
000622:                                                                                                  #  (MINIMUM DELAY = 15 MS)
000623: 21,2621           54030                           TS       TIME5                                 #  SINCE ATTKALMN IS +11, PROGRAM WILL THEN
000624: 21,2622           05333                           TC       RESUME                                #  PICK UP THE KALMAN FILTER GAINS.  RATE
000625:                                                                                                  #  FILTER WILL BEGIN OPERATING ZOOMS FROM
000626:                                                                                                  #  NOW
000627:
000628:                                                                                                  #  CONSTANTS USED IN INITIALIZATION PROGRAM
000629:
000630: 21,2623           00044        NO.T5VAR           DEC      36         B-14
000631: 21,2624           07534        =.24               DEC      .24                                   #  = SLOPE OF 0.6/SEC
000632: 21,2625           00004        RCSINIT            OCT      00004
000633: 21,2626           20004        RCSINITB           OCT      20004
000634: 21,2627           37772        T5WAIT60           DEC      16378      B-14                       #  = 6 CS
000635: 21,2630  E6,1510                                  EBANK=   KMPAC
000636: 21,2630           03617 36066  T6ADDR             2CADR    T6START
000637:
000638: 21,2632           35024        ZEROJET            CAF      ELEVEN                                #  ZERO BLAST2, BLAST1, BLAST, YWORD2,
000639: 21,2633           55506                           TS       SPNDX                                 #  YWORD1, PWORD2, PWORD1, RWORD2,
000640: 21,2634           35021                           CAF      ZERO                                  #  AND RWORD1.
000641:


000643: 21,2635           51506                           INDEX    SPNDX
000644: 21,2636           55451                           TS       RWORD1
000645: 21,2637           11506                           CCS      SPNDX
000646: 21,2640           12633                           TCF      ZEROJET    +1
000647:
000648: 21,2641           35015                           CAF      FOUR
000649: 21,2642           55462                           TS       BLAST1     +1
000650: 21,2643           35024                           CAF      ELEVEN
000651: 21,2644           55464                           TS       BLAST2     +1
000652:
000653: 21,2645           45017                           CS       BIT1
000654: 21,2646           71501                           MASK     RCSFLAGS
000655: 21,2647           55501                           TS       RCSFLAGS                              #  RESET BIT1 OF RCSFLAGS TO 0
000656:
000657: 21,2650           00006                           EXTEND
000658: 21,2651           32631                           DCA      T6ADDR
000659: 21,2652           53311                           DXCH     T6LOC
000660: 21,2653           33050                           CAF      =+14MS                                #  ENABLE T6RUPT TO SHUT OFF JETS IN 14 MS.
000661: 21,2654           54031                           TS       TIME6
000662: 21,2655           35001                           CAF      BIT15
000663: 21,2656           00006                           EXTEND
000664: 21,2657           05013                           WOR      CHAN13
000665:
000666: 21,2660           00002                           TC       Q
000667:
000668: 21,2661           11617        T5PHASE2           CCS      ATTKALMN                              #  IF (+) INITIALIZE RATE ESTIMATE
000669: 21,2662           13146                           TCF      KALUPDT
000670:
000671: 21,2663           12665                           TCF      +2                                    #  ONLY IF ATTKALMN POSITIVE
000672: 21,2664           12665                           TCF      +1
000673: 21,2665           32156                           CA       DELTATT2                              #  RESET FOR PHASE3 IN 20 MS
000674: 21,2666           56030                           XCH      TIME5                                 #  (JET SELECTION LOGIC)
000675: 21,2667           27634                           ADS      T5TIME                                #  TO COMPENSATE FOR DELAYS IN T5RUPT
000676:
000677: 21,2670           31501                           CA       RCSFLAGS                              #  IF A HIGH RATE AUTO MANEUVER IS IN
000678: 21,2671           75001                           MASK     BIT15                                 #  PROGRESS (BIT 15 OF RCSFLAGS SET), SET
000679: 21,2672           00006                           EXTEND                                         #  ATTKALMN TO -1
000680: 21,2673           12675                           BZF      NOHIAUTO                              #  OTHERWISE SET ATTKALMN TO 0.
000681: 21,2674           45017                           CS       ONE
000682: 21,2675           55617        NOHIAUTO           TS       ATTKALMN
000683:


000685:                                                                                                  #  MANUAL ROTATION COMMANDS
000686:
000687: 21,2676           43032                           CS       OCT01760                              #  RESET FORCED FIRING BITS (BITS 10 TO 5
000688: 21,2677           71501                           MASK     RCSFLAGS                              #  OF RCSFLAGS) TO ZERO
000689: 21,2700           55501                           TS       RCSFLAGS
000690:
000691: 21,2701           00006                           EXTEND
000692: 21,2702           00031                           READ     CHAN31
000693: 21,2703           54001                           TS       L
000694: 21,2704           31632                           CA       CH31TEMP
000695: 21,2705           00006                           EXTEND
000696: 21,2706           06001                           RXOR     LCHAN
000697: 21,2707           73036                           MASK     MANROT                                #  = OCT00077
000698: 21,2710           00006                           EXTEND
000699: 21,2711           62724                           BZMF     NOCHANGE
000700:
000701: 21,2712           22000                           LXCH     A
000702: 21,2713           55632                           TS       CH31TEMP                              #  SAVE CONTENTS OF CHANNEL 31 IN CH31TEMP
000703:
000704: 21,2714           30001                           CA       L
000705: 21,2715           00006                           EXTEND
000706: 21,2716           75013                           MP       BIT5                                  #  PUT BITS 6-1 OF A IN BITS 10-5 OF L
000707: 21,2717           30001                           CA       L
000708: 21,2720           27501                           ADS      RCSFLAGS                              #  SET FORCED FIRING BITS FOR AXES WITH
000709:                                                                                                  #  WITH CHANGES IN COMMAND.  BITS 10,9 FOR
000710:                                                                                                  #  ROLL, BITS 8,7 FOR YAW, BITS 6,5 FOR
000711:                                                                                                  #  PITCH
000712:
000713: 21,2721           41501                           CS       RCSFLAGS                              #  SET RATE DAMPING FLAGS (BITS 13,12, AND
000714: 21,2722           73037                           MASK     OCT16000                              #  11 OF RCSFLAGS)
000715: 21,2723           27501                           ADS      RCSFLAGS
000716:
000717: 21,2724           41632        NOCHANGE           CS       CH31TEMP
000718: 21,2725           73036                           MASK     MANROT
000719: 21,2726           00006                           EXTEND
000720: 21,2727           63250                           BZMF     AHFNOROT                              #  IF NO MANUAL COMMANDS, GO TO AHFNOROT
000721:
000722: 21,2730           55332                           TS       HOLDFLAG                              #  SET HOLDFLAG +
000723:
000724: 21,2731           03130                           TC       STICKCHK                              #  WHEN THE RHC IS OUT OF DETENT, PMANNDX,
000725:                                                                                                  #  YMANNDX, AND RMANNDX ARE ALL SET, BY
000726:                                                                                                  #  MEANS OF STICKCHK, TO 0, 1, OR 2 FOR NO,
000727:                                                                                                  #  +, OR - ROTATION RESPECTIVELY AS
000728:                                                                                                  #  COMMANDED BY THE RHC.
000729:
000730:                                                                                                  #  HOWEVER, IT IS WELL TO NOTE THAT AFTER
000731:                                                                                                  #  THE RHC IS RETURNED TO DETENT, THE
000732:                                                                                                  #  PROGRAM BRANCHES TO AHFNOROT AND AVOIDS
000733:                                                                                                  #  STICKCHK SO PMANNDX, YMANNDX, AND
000734:                                                                                                  #  RMANNDX ARE NOT RESET TO ZERO BUT RATHER
000735:                                                                                                  #  LEFT SET TO THEIR LAST OUT OF DETENT


000737:                                                                                                  #  VALUES.
000738:
000739: 21,2732           40075                           CS       FLAGWRD1                              #  SET STIKFLAG TO INFORM STEERING
000740: 21,2733           75002                           MASK     BIT14                                 #  PROGRAMS (P20) THAT ASTRONAUT HAS
000741: 21,2734           26075                           ADS      FLAGWRD1                              #  ASSUMED ROTATIONAL CONTROL OF SPACECRAFT
000742:
000743: 21,2735           35002                           CAF      BIT14
000744: 21,2736           00006                           EXTEND
000745: 21,2737           02031                           RAND     CHAN31
000746: 21,2740           00006                           EXTEND
000747: 21,2741           63051                           BZMF     FREEFUNC
000748:
000749: 21,2742           31501                           CA       RCSFLAGS                              #  EXAMINE RCSFLAGS TO SEE IF RATE FILTER
000750: 21,2743           75002                           MASK     BIT14                                 #  HAS BEEN INITIALIZED
000751: 21,2744           10000                           CCS      A                                     #  IF SO, PROCEED WITH MANUAL RATE COMMANDS
000752: 21,2745           12534                           TCF      REINIT                                #  .....TILT, RECYCLE TO INITIALIZE FILTER
000753:
000754: 21,2746           45022                           CS       FIVE                                  #  IF MANUAL MANEUVER IS AT HIGH RATE, SET
000755: 21,2747           61130                           AD       RATEINDX                              #  ATTKALMN TO -1.
000756: 21,2750           00006                           EXTEND                                         #  OTHERWISE, LEAVE ATTKALMN ALONE.
000757: 21,2751           62754                           BZMF     +3
000758: 21,2752           45017                           CS       ONE
000759: 21,2753           55617                           TS       ATTKALMN
000760:
000761: 21,2754           35016                           CAF      TWO                                   #  AUTO-HOLD MANUAL ROTATION
000762: 21,2755           55506        SETWBODY           TS       SPNDX
000763: 21,2756           60000                           DOUBLE
000764: 21,2757           55507                           TS       DPNDX
000765: 21,2760           51506                           INDEX    SPNDX                                 #  RMANNDX = 0 NO ROTATION
000766: 21,2761           31656                           CA       RMANNDX                               #          = 1  + ROTATION
000767: 21,2762           00006                           EXTEND                                         #          = 2  - ROTATION
000768: 21,2763           13005                           BZF      NORATE                                #  IF NO ROTATION COMMAND ON THIS AXIS,
000769:                                                                                                  #  GO TO NORATE.
000770:
000771: 21,2764           61130                           AD       RATEINDX                              #  RATEINDX = 0  0.05 DEG/SEC
000772: 21,2765           54002                           TS       Q                                     #           = 2  0.2  DEG/SEC
000773: 21,2766           50002                           INDEX    Q                                     #           = 4  0.5  DEG/SEC
000774: 21,2767           33037                           CA       MANTABLE   -1                         #           = 6  2.0  DEG/SEC
000775: 21,2770           00006                           EXTEND
000776: 21,2771           75007                           MP       BIT9                                  #  MULTIPLY MANTABLE BY 2 TO THE -6
000777: 21,2772           51507                           INDEX    DPNDX                                 #  TO GET COMMANDED RATE.
000778: 21,2773           53526                           DXCH     WBODY                                 #  SET WBODY TO COMMANDED RATE.
000779:
000780: 21,2774           31501                           CA       RCSFLAGS
000781: 21,2775           73037                           MASK     OCT16000                              #  IS RATE DAMPING COMPLETED (BITS 13,12 AND
000782: 21,2776           00006                           EXTEND                                         #  11 OF RCSFLAGS ALL ZERO.)  IF SO, GO TO
000783: 21,2777           13015                           BZF      MERUPDAT                              #  MERUPDAT TO UPDATE CUMULATIVE ATTITUDE
000784:                                                                                                  #  ERROR.
000785:


000787: 21,3000           35021        ZEROER             CA       ZERO                                  #  ZEROER ZEROS MERRORS
000788: 21,3001           22007                           ZL
000789: 21,3002           51507                           INDEX    DPNDX
000790: 21,3003           53542                           DXCH     MERRORX
000791: 21,3004           13023                           TCF      SPNDXCHK
000792:
000793: 21,3005           22007        NORATE             ZL
000794: 21,3006           51507                           INDEX    DPNDX
000795: 21,3007           53526                           DXCH     WBODY                                 #  ZERO WBODY FOR THIS AXIS
000796: 21,3010           31501                           CA       RCSFLAGS
000797: 21,3011           73037                           MASK     OCT16000
000798: 21,3012           00006                           EXTEND                                         #  IS RATE DAMPING COMPLETED
000799: 21,3013           13023                           BZF      SPNDXCHK                              #  YES, KEEP CURRENT MERRORX GO TO SPNDXCHK
000800: 21,3014           13000                           TCF      ZEROER                                #  NO, GO TO ZEROER
000801:
000802: 21,3015           50002        MERUPDAT           INDEX    Q                                     #  MERRORX=MERRORX+MEASURED CHANGE IN ANGLE
000803: 21,3016           43037                           CS       MANTABLE   -1                         #  -COMMANDED CHANGE IN ANGLE
000804: 21,3017           00006                           EXTEND                                         #  THE ADDITION OF MEASURED CHANGE IN ANGLE
000805: 21,3020           75011                           MP       BIT7                                  #  HAS ALREADY BEEN DONE IN THE RATE FILTER
000806: 21,3021           51507                           INDEX    DPNDX                                 #  COMMANDED CHANGE IN ANGLE = WBODY TIMES
000807: 21,3022           21542                           DAS      MERRORX                               #  .1SEC = MANTABLE ENTRY TIMES 2 TO THE -8
000808:
000809: 21,3023           51507        SPNDXCHK           INDEX    DPNDX
000810: 21,3024           31541                           CA       MERRORX
000811: 21,3025           51506                           INDEX    SPNDX
000812: 21,3026           55567                           TS       ERRORX                                #  ERRORX = HIGH ORDER WORD OF MERRORX
000813: 21,3027           11506                           CCS      SPNDX
000814: 21,3030           12755                           TCF      SETWBODY
000815: 21,3031           13441                           TCF      JETS
000816:
000817: 21,3032           01760        OCT01760           OCT      01760                                 #  FORCED FIRING BITS MASK
000818:
000819: 21,3033           01400        OCT01400           OCT      01400                                 #  ROLL FORCED FIRING MASK       ORDER OF
000820: 21,3034           00060        OCT00060           OCT      00060                                 #  PITCH FORCED FIRING MASK      DEFINITION
000821: 21,3035           00300        OCT00300           OCT      00300                                 #  YAW FORCED FIRING MASK        MUST BE
000822:                                                                                                  #                                PRESERVED
000823:                                                                                                  #                                FOR INDEXING
000824: 21,3036           00077        MANROT             OCT      77
000825: 21,3037           16000        OCT16000           OCT      16000                                 #  RATE DAMPING FLAGS MASK
000826: 21,3040           00165        MANTABLE           DEC      .0071111
000827: 21,3041           77612                           DEC      -.0071111
000828: 21,3042           00722                           DEC      .028444
000829: 21,3043           77055                           DEC      -0.028444
000830: 21,3044           02215                           DEC      .071111
000831: 21,3045           75562                           DEC      -.071111
000832: 21,3046           11064                           DEC      .284444
000833: 21,3047           66713                           DEC      -.284444
000834: 21,3050           00027        =+14MS             DEC      23         B-14
000835: 21,3051           51656        FREEFUNC           INDEX    RMANNDX                               #  ACCELERATION


000837: 21,3052           33063                           CA       FREETAU                               #  COMMANDS
000838: 21,3053           55561                           TS       TAU
000839: 21,3054           51657                           INDEX    PMANNDX
000840: 21,3055           33063                           CA       FREETAU                               #  FREETAU       0 SEC
000841: 21,3056           55562                           TS       TAU1                                  #  +1            +0.10 SEC
000842: 21,3057           51660                           INDEX    YMANNDX                               #  +2            -0.10 SEC
000843: 21,3060           33063                           CA       FREETAU                               #  (+3)          0 SEC
000844: 21,3061           55563                           TS       TAU2
000845: 21,3062           13067                           TCF      T6PROGM
000846:
000847: 21,3063           00000        FREETAU            DEC      0          B-14
000848: 21,3064           00740                           DEC      480        B-14
000849: 21,3065           77037                           DEC      -480       B-14
000850: 21,3066           00000                           DEC      0          B-14
000851:
000852: 21,3067           35021        T6PROGM            CAF      ZERO                                  #  FOR MANUAL ROTATIONS
000853: 21,3070           55567                           TS       ERRORX
000854: 21,3071           55570                           TS       ERRORY
000855: 21,3072           55571                           TS       ERRORZ
000856: 21,3073           13757                           TCF      T6PROG
000857:


000859: 21,3074           06604                           DEC      .2112                                 #  FILTER GAIN FOR TRANSLATION, LEM ON
000860: 21,3075           32703                           DEC      .8400                                 #  FILTER GAIN FOR TRANSLATION 2(ZETA)WN DT
000861: 21,3076           06604                           DEC      .2112                                 #  FILTER GAIN FOR 2 DEGREES/SEC MANEUVERS
000862: 21,3077           02031        GAIN1              DEC      .0640                                 #  KALMAN FILTER GAINS FOR INITIALIZATION
000863: 21,3100           12132                           DEC      .3180                                 #  OF ATTITUDE RATES
000864: 21,3101           13030                           DEC      .3452
000865: 21,3102           14047                           DEC      .3774
000866: 21,3103           15241                           DEC      .4161
000867: 21,3104           16650                           DEC      .4634
000868: 21,3105           20555                           DEC      .5223
000869: 21,3106           23065                           DEC      .5970
000870: 21,3107           26137                           DEC      .6933
000871: 21,3110           32053                           DEC      .8151
000872: 21,3111           35712                           DEC      .9342
000873:
000874: 21,3112           00435                           DEC      .0174                                 #  FILTER GAIN FOR TRANSLATION, LEM ON
000875: 21,3113           13412                           DEC      .3600                                 #  FILTER GAIN FOR TRANSLATION (WN)(WN)DT
000876: 21,3114           00435                           DEC      .0174                                 #  FILTER GAIN FOR 2 DEGREES/SEC MANEUVERS
000877: 21,3115           00032        GAIN2              DEC      .0016                                 #  SCALED 10
000878: 21,3116           01350                           DEC      .0454
000879: 21,3117           01575                           DEC      .0545
000880: 21,3120           02103                           DEC      .0666
000881: 21,3121           02523                           DEC      .0832
000882: 21,3122           03327                           DEC      .1069
000883: 21,3123           04432                           DEC      .1422
000884: 21,3124           06264                           DEC      .1985
000885: 21,3125           11351                           DEC      .2955
000886: 21,3126           17324                           DEC      .4817
000887: 21,3127           33622                           DEC      .8683
000888: 21,3130           55502        STICKCHK           TS       T5TEMP
000889: 21,3131           76214                           MASK     THREE                                 #  INDECES FOR MANUAL ROTATION
000890: 21,3132           55657                           TS       PMANNDX
000891: 21,3133           31502                           CA       T5TEMP
000892: 21,3134           00006                           EXTEND                                         #  MAN RATE  0   0 RATE (DP)
000893: 21,3135           75003                           MP       QUARTER                               #           +1   + RATE (DP)
000894: 21,3136           55502                           TS       T5TEMP                                #           +2   - RATE (DP)
000895: 21,3137           76214                           MASK     THREE                                 #          (+3)  0 RATE (DP)
000896: 21,3140           55660                           TS       YMANNDX
000897: 21,3141           31502                           CA       T5TEMP
000898: 21,3142           00006                           EXTEND
000899: 21,3143           75003                           MP       QUARTER
000900: 21,3144           55656                           TS       RMANNDX
000901: 21,3145           00002                           TC       Q
000902: 21,3146           55617        KALUPDT            TS       ATTKALMN                              #  INITIALIZATION OF ATTITUDE RATES USING
000903:                                                                                                  #  KALMAN FILTER TAKES 1.1 SEC
000904:
000905: 21,3147           32155                           CA       DELTATT                               #  =1SEC - 80MS
000906: 21,3150           61634                           AD       T5TIME                                #  + DELAYS


000908: 21,3151           54030                           TS       TIME5
000909: 21,3152           13155                           TCF      +3
000910: 21,3153           32156                           CAF      DELTATT2                              #  SAFETY PLAY TO ASSURE
000911: 21,3154           54030                           TS       TIME5                                 #  A T5RUPT
000912:
000913: 21,3155           45021        KRESUME2           CS       ZERO                                  #  RESET FOR PHASE1
000914: 21,3156           55465                           TS       T5PHASE                               #  RESUME INTERRUPTED PROGRAM
000915: 21,3157           15333                           TCF      RESUME
000916:
000917: 21,3160           45014        FDAIDSP2           CS       BIT4                                  #  RESET FOR FDAIDSP1
000918: 21,3161           71501                           MASK     RCSFLAGS
000919: 21,3162           55501                           TS       RCSFLAGS
000920:
000921: 21,3163           40074                           CS       FLAGWRD0                              #  ON - DISPLAY ONE OF THE TOTAL ATTITUDE
000922: 21,3164           75007                           MASK     BIT9                                  #  ERRORS
000923: 21,3165           00006                           EXTEND
000924: 21,3166           13175                           BZF      FDAITOTL
000925: 21,3167           00006                           EXTEND
000926: 21,3170           41570                           DCS      ERRORX                                #  OFF - DISPLAY AUTOPILOT FOLLOWING ERROR
000927: 21,3171           53477                           DXCH     AK
000928: 21,3172           41571                           CS       ERRORZ
000929: 21,3173           55500                           TS       AK2
000930: 21,3174           15333                           TCF      RESUME                                #  END PHASE 1
000931:
000932: 21,3175           30105        FDAITOTL           CA       FLAGWRD9
000933: 21,3176           75012                           MASK     BIT6
000934: 21,3177           00006                           EXTEND
000935: 21,3200           13243                           BZF      WRTN17                                #  IS N22ORN17 (BIT6 OF FLAGWRD9) = 0
000936:                                                                                                  #  IF SO, GO TO WRTN17
000937: 21,3201           00006        WRTN22             EXTEND                                         #  OTHERWISE, CONTINUE ON TO WRTN22 AND
000938: 21,3202           31157                           DCA      CTHETA                                #  GET SET TO COMPUTE TOTAL ATTITUDE
000939: 21,3203           53514                           DXCH     WTEMP                                 #  ERROR WRT N22 BY PICKING UP THE THREE
000940: 21,3204           31155                           CA       CPHI                                  #  COMPONENTS OF N22
000941:
000942: 21,3205           00006        GETAKS             EXTEND                                         #  COMPUTE TOTAL ATTITUDE ERROR FOR
000943: 21,3206           20032                           MSU      CDUX                                  #  DISPLAY ON FDAI ERROR NEEDLES
000944: 21,3207           55476                           TS       AK
000945: 21,3210           31513                           CA       WTEMP
000946: 21,3211           00006                           EXTEND
000947: 21,3212           20033                           MSU      CDUY
000948: 21,3213           55502                           TS       T5TEMP
000949: 21,3214           00006                           EXTEND
000950: 21,3215           71640                           MP       AMGB1
000951: 21,3216           27476                           ADS      AK
000952: 21,3217           31502                           CA       T5TEMP
000953: 21,3220           00006                           EXTEND
000954: 21,3221           71641                           MP       AMGB4


000956: 21,3222           55477                           TS       AK1
000957: 21,3223           31502                           CA       T5TEMP
000958: 21,3224           00006                           EXTEND
000959: 21,3225           71643                           MP       AMGB7
000960: 21,3226           55500                           TS       AK2
000961: 21,3227           31514                           CA       WTEMP      +1
000962: 21,3230           00006                           EXTEND
000963: 21,3231           20034                           MSU      CDUZ
000964: 21,3232           55502                           TS       T5TEMP
000965: 21,3233           00006                           EXTEND
000966: 21,3234           71642                           MP       AMGB5
000967: 21,3235           27477                           ADS      AK1
000968: 21,3236           31502                           CA       T5TEMP
000969: 21,3237           00006                           EXTEND
000970: 21,3240           71644                           MP       AMGB8
000971: 21,3241           27500                           ADS      AK2
000972: 21,3242           15333                           TCF      RESUME                                #  END PHASE1 OF RCS DAP
000973:
000974: 21,3243           00006        WRTN17             EXTEND                                         #  GET SET TO COMPUTE TOTAL ASTRONAUT
000975: 21,3244           31335                           DCA      CPHIX      +1                         #  ATTITUDE ERROR WRT N17 BY PICKING UP
000976: 21,3245           53514                           DXCH     WTEMP                                 #  THE THREE COMPONENTS OF N17
000977: 21,3246           31333                           CA       CPHIX
000978: 21,3247           13205                           TCF      GETAKS
000979:


000982:
000983:

End of include-file RCS-CSM_DIGITAL_AUTOPILOT.agc.  Parent file is MAIN.agc


