
Source Code


000002:                                                                                                  ## Copyright:   Public domain.
000003:                                                                                                  ## Filename:    RESTARTS_ROUTINE.agc
000004:                                                                                                  ## Purpose:     Part of the source code for Comanche, build 055. It
000005:                                                                                                  ##              is part of the source code for the Command Module's
000006:                                                                                                  ##              (CM) Apollo Guidance Computer (AGC), Apollo 11.
000007:                                                                                                  ## Assembler:   yaYUL
000008:                                                                                                  ## Reference:   pp. 1414-1419
000009:                                                                                                  ## Contact:     Ron Burkey <info@sandroid.org>
000010:                                                                                                  ## Website:     http://www.ibiblio.org/apollo.
000011:                                                                                                  ## Mod history: 2009-05-07 RSB  Adapted from Colossus249 file of the same
000012:                                                                                                  ##                              name, and page images. Corrected various
000013:                                                                                                  ##                              typos in the transcription of program
000014:                                                                                                  ##                              comments, and these should be back-ported
000015:                                                                                                  ##                              to Colossus249.
000016:                                                                                                  ##              2010-08-28 JL   Added missing comment character.
000017:                                                                                                  ##              2016-12-22 RSB  Proofed comment text using octopus/ProoferComments
000018:                                                                                                  ##                              and corrected the errors found.
000019:                                                                                                  ##              2017-01-18 RSB  Fixed comment-text errors noted while diff'ing
000020:                                                                                                  ##                              vs Colossus 249.
000021:                                                                                                  ##
000022:                                                                                                  ## The contents of the "Comanche055" files, in general, are transcribed
000023:                                                                                                  ## from scanned documents.
000024:                                                                                                  ##
000025:                                                                                                  ##       Assemble revision 055 of AGC program Comanche by NASA
000026:                                                                                                  ##       2021113-051.  April 1, 1969.
000027:                                                                                                  ##
000028:                                                                                                  ##       This AGC program shall also be referred to as Colossus 2A
000029:                                                                                                  ##
000030:                                                                                                  ##       Prepared by
000031:                                                                                                  ##                       Massachusetts Institute of Technology
000032:                                                                                                  ##                       75 Cambridge Parkway
000033:                                                                                                  ##                       Cambridge, Massachusetts
000034:                                                                                                  ##
000035:                                                                                                  ##       under NASA contract NAS 9-4065.
000036:                                                                                                  ##
000037:                                                                                                  ## Refer directly to the online document mentioned above for further
000038:                                                                                                  ## information.  Please report any errors to info@sandroid.org.
000039:


000041: 01,3520                                           BANK     01
000042: 01,2000                                           SETLOC   RESTART
000043: 01,2000                                           BANK
000044:
000045: 01,3520  E3,1436                                  EBANK=   PHSNAME1                              #  GOPROG MUST SWITCH TO THIS EBANK
000046:
000047: 01,3520                                           COUNT    01/RSROU
000048:
000049: 01,3520           30161        RESTARTS           CA       MPAC       +5                         #  GET GROUP NUMBER -1
000050: 01,3521           60000                           DOUBLE                                         #  SAVE FOR INDEXING
000051: 01,3522           54155                           TS       TEMP2G
000052:
000053: 01,3523           33762                           CA       PHS2CADR                              #  SET UP EXIT IN CASE IT IS AN EVEN
000054: 01,3524           54157                           TS       TEMPSWCH                              #  TABLE PHASE
000055:
000056: 01,3525           33557                           CA       RTRNCADR                              #  TO SAVE TIME ASSUME IT WILL GET NEXT
000057: 01,3526           54707                           TS       GOLOC      +2                         #  GROUP AFTER THIS
000058:
000059: 01,3527           30154                           CA       TEMPPHS
000060: 01,3530           75051                           MASK     OCT1400
000061: 01,3531           10000                           CCS      A                                     #  IS IT A VARIABLE OR TABLE RESTART
000062: 01,3532           13543                           TCF      ITSAVAR                               #  IT:S A VARIABLE RESTART
000063:
000064: 01,3533           10154        GETPART2           CCS      TEMPPHS                               #  IS IT AN X.1 RESTART
000065: 01,3534           10000                           CCS      A
000066: 01,3535           13643                           TCF      ITSATBL                               #  NO, ITS A TABLE RESTART
000067:
000068: 01,3536           35066                           CA       PRIO14                                #  IT IS AN X.1 RESTART, THEREFORE START
000069: 01,3537           05147                           TC       FINDVAC                               #  THE DISPLAY RESTART JOB
000070: 01,3540  E3,1400                                  EBANK=   LST1
000071: 01,3540           03261 20063                     2CADR    INITDSP
000072:
000073: 01,3542           03557                           TC       RTRNCADR                              #  FINISHED WITH THIS GROUP, GET NEXT ONE
000074:
000075: 01,3543           75051        ITSAVAR            MASK     OCT1400                               #  IS IT TYPE B ?
000076: 01,3544           10000                           CCS      A
000077: 01,3545           13614                           TCF      ITSLIKEB                              #  YES, IT IS TYPE B
000078:
000079: 01,3546           00006                           EXTEND                                         #  STORE THE JOB (OR TASK) 2CADR FOR EXIT
000080: 01,3547           50155                           NDX      TEMP2G
000081: 01,3550           31437                           DCA      PHSNAME1
000082: 01,3551           52706                           DXCH     GOLOC
000083:
000084: 01,3552           30154                           CA       TEMPPHS                               #  SEE IF THIS IS A JOB, TASK, OR A LONGCAL
000085: 01,3553           75023                           MASK     OCT7
000086: 01,3554           67715                           AD       MINUS2
000087: 01,3555           10000                           CCS      A
000088: 01,3556           13726                           TCF      ITSLNGCL                              #  ITS A LONGCALL
000089:


000091: 01,3557           04675        RTRNCADR           TC       SWRETURN                              #  CANT GET HERE
000092: 01,3560           13562                           TCF      ITSAWAIT
000093:
000094: 01,3561           13627                           TCF      ITSAJOB                               #  ITS A JOB
000095:
000096: 01,3562           33766        ITSAWAIT           CA       WTLTCADR                              #  SET UP WAITLIST CALL
000097: 01,3563           54704                           TS       GOLOC      -1
000098:
000099: 01,3564           50155                           NDX      TEMP2G                                #  DIRECTLY STORED
000100: 01,3565           31054                           CA       PHSPRDT1
000101: 01,3566           10000        TIMETEST           CCS      A                                     #  IS IT AN IMMEDIATE RESTART
000102: 01,3567           24000                           INCR     A                                     #  NO.
000103: 01,3570           13573                           TCF      FINDTIME                              #  FIND OUT WHEN IT SHOULD BEGIN
000104:
000105: 01,3571           15500                           TCF      ITSINDIR                              #  STORED INDIRECTLY
000106:
000107: 01,3572           13612                           TCF      IMEDIATE                              #  IT WANTS AN IMMEDIATE RESTART
000108:
000109:                                                                                                  #  ***** THIS MUST BE IN FIXED FIXED *****
000110:
000111:    5500                                           BLOCK    02
000112:    4000                                           SETLOC   FFTAG2
000113:    4000                                           BANK
000114:
000115:    5500                                           COUNT    02/RSROU
000116:
000117:    5500           22706        ITSINDIR           LXCH     GOLOC      +1                         #  GET THE CORRECT E BANK IN CASE THIS IS
000118:    5501           22006                           LXCH     BB                                    #  SWITCHED ERRASIBLE
000119:
000120:    5502           50000                           NDX      A                                     #  GET THE TIME INDIRECTLY
000121:    5503           30001                           CA       1
000122:
000123:    5504           22006                           LXCH     BB                                    #  RESTORE THE BB AND GOLOC
000124:    5505           22706                           LXCH     GOLOC      +1
000125:
000126:    5506           13573                           TCF      FINDTIME                              #  FIND OUT WHEN IT SHOULD BEGIN
000127:
000128:                                                                                                  #  ***** YOU MAY RETURN TO SWITCHED FIXED *****
000129:
000130: 01,3573                                           BANK     01
000131: 01,2000                                           SETLOC   RESTART
000132: 01,2000                                           BANK
000133:
000134: 01,3573                                           COUNT    01/RSROU
000135:
000136: 01,3573           40000        FINDTIME           COM                                            #  MAKE NEGITIVE SINCE IT WILL BE SUBTRACTD
000137: 01,3574           54001                           TS       L                                     #  AND SAVE
000138: 01,3575           50155                           NDX      TEMP2G
000139: 01,3576           41053                           CS       TBASE1
000140: 01,3577           00006                           EXTEND


000142: 01,3600           60025                           SU       TIME1
000143: 01,3601           10000                           CCS      A
000144: 01,3602           40000                           COM
000145: 01,3603           67700                           AD       OCT37776
000146: 01,3604           65017                           AD       ONE
000147: 01,3605           60001                           AD       L
000148: 01,3606           10000                           CCS      A
000149: 01,3607           35021                           CA       ZERO
000150: 01,3610           13612                           TCF      +2
000151: 01,3611           13612                           TCF      +1
000152: 01,3612           65017        IMEDIATE           AD       ONE
000153: 01,3613           00704                           TC       GOLOC      -1
000154: 01,3614           33557        ITSLIKEB           CA       RTRNCADR                              #  TYPE B, SO STORE RETURN IN
000155: 01,3615           54157                           TS       TEMPSWCH                              #  TEMPSWCH IN CASE OF AN EVEN PHASE
000156:
000157: 01,3616           33763                           CA       PRT2CADR                              #  SET UP EXIT TO GET TABLE PART OF THIS
000158: 01,3617           54707                           TS       GOLOC      +2                         #  VARIABLE TYPE OF PHASE
000159:
000160: 01,3620           30154                           CA       TEMPPHS                               #  MAKE THE PHASE LOOK RIGHT FOR THE TABLE
000161: 01,3621           76043                           MASK     OCT177                                #  PART OF THIS VARIABLE PHASE
000162: 01,3622           54154                           TS       TEMPPHS
000163:
000164: 01,3623           00006                           EXTEND
000165: 01,3624           50155                           NDX      TEMP2G                                #  OBTAIN THE JOB:S 2CADR
000166: 01,3625           31437                           DCA      PHSNAME1
000167: 01,3626           52706                           DXCH     GOLOC
000168:
000169: 01,3627           50155        ITSAJOB            NDX      TEMP2G                                #  NOW ADD THE PRIORITY AND LET:S GO
000170: 01,3630           31054                           CA       PHSPRDT1
000171: 01,3631           54704        CHKNOVAC           TS       GOLOC      -1                         #  SAVE PRIO UNTIL WE SEE IF ITS
000172: 01,3632           00006                           EXTEND                                         #  A FINDVAC OR A NOVAC
000173: 01,3633           63637                           BZMF     ITSNOVAC
000174:
000175: 01,3634           33765                           CAF      FVACCADR                              #  POSITIVE, SET UP FINDVAC CALL.
000176: 01,3635           56704                           XCH      GOLOC      -1                         #  PICK UP PRIO,
000177: 01,3636           00704                           TC       GOLOC      -1                         #  AND GO
000178:
000179: 01,3637           33767        ITSNOVAC           CAF      NOVACADR                              #  NEGATIVE,
000180: 01,3640           56704                           XCH      GOLOC      -1                         #  SET UP NOVAC CALL,
000181: 01,3641           40000                           COM                                            #  CORRECT PRIO,
000182: 01,3642           00704                           TC       GOLOC      -1                         #  AND GO
000183:
000184: 01,3643           54020        ITSATBL            TS       CYR                                   #  FIND OUT IF THE PHASE IS ODD OR EVEN
000185: 01,3644           10020                           CCS      CYR
000186: 01,3645           13646                           TCF      +1                                    #  IT:S EVEN
000187: 01,3646           13744                           TCF      ITSEVEN
000188:
000189: 01,3647           33557                           CA       RTRNCADR                              #  IN CASE THIS IS THE SECOND PART OF A
000190: 01,3650           54707                           TS       GOLOC      +2                         #  TYPE B RESTART, WE NEED PROPER EXIT


000192: 01,3651           30154                           CA       TEMPPHS                               #  SET UP POINTER FOR FINDING OUR PLACE IN
000193: 01,3652           54021                           TS       SR                                    #  THE RESTART TABLES
000194: 01,3653           60021                           AD       SR
000195: 01,3654           50155                           NDX      TEMP2G
000196: 01,3655           62001                           AD       SIZETAB    +1
000197: 01,3656           54156                           TS       POINTER
000198:
000199: 01,3657           00006        CONTBL2            EXTEND                                         #  FIND OUT WHAT:S IN THE TABLE
000200: 01,3660           50156                           NDX      POINTER
000201: 01,3661           32002                           DCA      CADRTAB                               #  GET THE 2CADR
000202:
000203: 01,3662           22706                           LXCH     GOLOC      +1                         #  STORE THE BB INFORMATION
000204:
000205: 01,3663           10000                           CCS      A                                     #  IS IT A JOB OR IS IT TIMED
000206: 01,3664           24000                           INCR     A                                     #  POSITIVE, MUST BE A JOB
000207: 01,3665           13740                           TCF      ITSAJOB2
000208:
000209: 01,3666           24000                           INCR     A                                     #  MUST BE EITHER A WAITLIST OR LONGCALL
000210: 01,3667           54705                           TS       GOLOC                                 #  LET-S STORE THE CORRECT CADR
000211:
000212: 01,3670           33766                           CA       WTLTCADR                              #  SET UP OUR EXIT TO WAITLIST
000213: 01,3671           54704                           TS       GOLOC      -1
000214:
000215: 01,3672           30706                           CA       GOLOC      +1                         #  NOW FIND OUT IF IT IS A WAITLIST CALL
000216: 01,3673           75006                           MASK     BIT10                                 #  THIS SHOULD BE ONE IF WE HAVE -BB
000217: 01,3674           10000                           CCS      A                                     #  FOR THAT MATTER SO SHOULD BE BITS 9,8,7,
000218:                                                                                                  #  6,5, AND LAST BUT NOT LEAST (PERHAPS NOT
000219:                                                                                                  #  IN IMPORTANCE ANYWAY.  BIT 4
000220: 01,3675           13733                           TCF      ITSWTLST                              #  IT IS A WAITLIST CALL
000221:
000222: 01,3676           50156                           NDX      POINTER                               #  OBTAIN THE ORIGINAL DELTA T
000223: 01,3677           32000                           CA       PRDTTAB                               #  ADDRESS FOR THIS LONGCALL
000224:
000225: 01,3700           15507                           TCF      ITSLGCL1                              #  NOW GO GET THE DELTA TIME
000226:
000227:                                                                                                  #  ***** THIS MUST BE IN FIXED FIXED *****
000228:
000229:    5507                                           BLOCK    02
000230:    4000                                           SETLOC   FFTAG2
000231:    4000                                           BANK
000232:
000233:    5507                                           COUNT    02/RSROU
000234:
000235:    5507           22706        ITSLGCL1           LXCH     GOLOC      +1                         #  OBTAIN THE CORRECT E BANK
000236:    5510           22006                           LXCH     BB
000237:    5511           22706                           LXCH     GOLOC      +1                         #  AND PRESERVE OUR E AND F BANKS
000238:
000239:    5512           00006                           EXTEND                                         #  GET THE DELTA TIME
000240:    5513           50000                           NDX      A
000241:    5514           30001                           DCA      0


000243:    5515           22706                           LXCH     GOLOC      +1                         #  RESTORE OUR E AND F BANK
000244:    5516           22006                           LXCH     BB                                    #  RESTORE THE TASKS E AND F BANKS
000245:    5517           22706                           LXCH     GOLOC      +1                         #  AND PRESERVE OUR L
000246:    5520           13701                           TCF      ITSLGCL2                              #  NOW LET:S PROCESS THIS LONGCALL
000247:
000248:                                                                                                  #  ***** YOU MAY RETURN TO SWITCHED FIXED *****
000249:
000250: 01,3701                                           BANK     01
000251: 01,2000                                           SETLOC   RESTART
000252: 01,2000                                           BANK
000253:
000254: 01,3701                                           COUNT    01/RSROU
000255: 01,3701           53140        ITSLGCL2           DXCH     LONGTIME
000256:
000257: 01,3702           00006                           EXTEND                                         #  CALCULATE TIME LEFT
000258: 01,3703           40025                           DCS      TIME2
000259: 01,3704           21140                           DAS      LONGTIME
000260: 01,3705           00006                           EXTEND
000261: 01,3706           31136                           DCA      LONGBASE
000262: 01,3707           21140                           DAS      LONGTIME
000263:
000264: 01,3710           11137                           CCS      LONGTIME                              #  FIND OUT HOW THIS SHOULD BE RESTARTED
000265: 01,3711           13721                           TCF      LONGCLCL
000266: 01,3712           13714                           TCF      +2
000267: 01,3713           13607                           TCF      IMEDIATE   -3
000268: 01,3714           11140                           CCS      LONGTIME   +1
000269: 01,3715           13721                           TCF      LONGCLCL
000270: 01,3716           13717                           NOOP                                           #  CAN:T GET HERE *********
000271: 01,3717           13607                           TCF      IMEDIATE   -3
000272: 01,3720           13612                           TCF      IMEDIATE
000273:
000274: 01,3721           33764        LONGCLCL           CA       LGCLCADR                              #  WE WILL GO TO LONGCALL
000275: 01,3722           54704                           TS       GOLOC      -1
000276:
000277: 01,3723           00006                           EXTEND                                         #  PREPARE OUR ENTRY TO LONGCALL
000278: 01,3724           31140                           DCA      LONGTIME
000279: 01,3725           00704                           TC       GOLOC      -1
000280:
000281: 01,3726           33766        ITSLNGCL           CA       WTLTCADR                              #  ASSUME IT WILL GO TO WAITLIST
000282: 01,3727           54704                           TS       GOLOC      -1
000283:
000284: 01,3730           50155                           NDX      TEMP2G
000285: 01,3731           41054                           CS       PHSPRDT1                              #  GET THE DELTA T ADDRESS
000286:
000287: 01,3732           15507                           TCF      ITSLGCL1                              #  NOW GET THE DELTA TIME
000288:
000289: 01,3733           40706        ITSWTLST           CS       GOLOC      +1                         #  CORRECT THE BBCON INFORMATION
000290: 01,3734           54706                           TS       GOLOC      +1


000292: 01,3735           50156                           NDX      POINTER                               #  GET THE DT AND FIND OUT IF IT WAS STORED
000293: 01,3736           32000                           CA       PRDTTAB                               #  DIRECTLY OR INDIRECTLY
000294:
000295: 01,3737           13566                           TCF      TIMETEST                              #  FIND OUT HOW THE TIME IS STORED
000296:
000297: 01,3740           56705        ITSAJOB2           XCH      GOLOC                                 #  STORE THE CADR
000298:
000299: 01,3741           50156                           NDX      POINTER                               #  ADD THE PRIORITY AND LET:S GO
000300: 01,3742           32000                           CA       PRDTTAB
000301:
000302: 01,3743           13631                           TCF      CHKNOVAC
000303:
000304: 01,3744           30157        ITSEVEN            CA       TEMPSWCH                              #  SET UP FOR EITHER THE SECOND PART OF THE
000305: 01,3745           54707                           TS       GOLOC      +2                         #  TABLE, OR A RETURN FOR THE NEXT GROUP
000306:
000307: 01,3746           50155                           NDX      TEMP2G                                #  SET UP POINTER FOR OUR LOCATION WITHIN
000308: 01,3747           32000                           CA       SIZETAB                               #  THE TABLE
000309: 01,3750           60154                           AD       TEMPPHS                               #  THIS MAY LOOK BAD BUT LET:S SEE YOU DO
000310: 01,3751           60154                           AD       TEMPPHS                               #  BETTER IN TIME OR NUMBERR OF LOCATIONS
000311: 01,3752           60154                           AD       TEMPPHS
000312: 01,3753           54156                           TS       POINTER
000313:
000314: 01,3754           13657                           TCF      CONTBL2                               #  NOW PROCESS WHAT IS IN THE TABLE
000315:
000316: 01,3755           36214        PHSPART2           CA       THREE                                 #  SET THE POINTER FOR THE SECOND HALF OF
000317: 01,3756           26156                           ADS      POINTER                               #  THE TABLE
000318:
000319: 01,3757           33557                           CA       RTRNCADR                              #  THIS WILL BE OUR LAST TIME THROUGH THE
000320: 01,3760           54707                           TS       GOLOC      +2                         #  EVEN TABLE, SO AFTER IT GET THE NEXT
000321:                                                                                                  #  GROUP
000322: 01,3761           13657                           TCF      CONTBL2                               #  SO LET:S GET THE SECOND ENTRY IN THE TBL
000323:
000324: 01,3762     0154               TEMPPHS            EQUALS   MPAC
000325: 01,3762     0155               TEMP2G             EQUALS   MPAC       +1
000326: 01,3762     0156               POINTER            EQUALS   MPAC       +2
000327: 01,3762     0157               TEMPSWCH           EQUALS   MPAC       +3
000328: 01,3762     0705               GOLOC              EQUALS   VAC5       +20D
000329: 01,3762     7715               MINUS2             EQUALS   NEG2
000330: 01,3762     6043               OCT177             EQUALS   LOW7
000331:
000332: 01,3762           03755        PHS2CADR           GENADR   PHSPART2
000333: 01,3763           03533        PRT2CADR           GENADR   GETPART2
000334: 01,3764           05342        LGCLCADR           GENADR   LONGCALL
000335: 01,3765           05147        FVACCADR           GENADR   FINDVAC
000336: 01,3766           05245        WTLTCADR           GENADR   WAITLIST
000337: 01,3767           05134        NOVACADR           GENADR   NOVAC
000338:
000339:
000340:
000341:

End of include-file RESTARTS_ROUTINE.agc.  Parent file is MAIN.agc


