
Source Code


000002:                                                                                                  #  Copyright:    Public domain.
000003:                                                                                                  #  Filename:     SERVICE_ROUTINES.agc
000004:                                                                                                  #  Purpose:      Part of the source code for Comanche, build 055. It
000005:                                                                                                  #                is part of the source code for the Command Module's
000006:                                                                                                  #                (CM) Apollo Guidance Computer (AGC), Apollo 11.
000007:                                                                                                  #  Assembler:    yaYUL
000008:                                                                                                  #  Reference:    pp. 1485-1492
000009:                                                                                                  #  Contact:      Ron Burkey <info@sandroid.org>
000010:                                                                                                  #  Website:      http://www.ibiblio.org/apollo.
000011:                                                                                                  #  Mod history:  2009-05-07 RSB  Adapted from Colossus249 file of the same
000012:                                                                                                  #                                name, and page images. Corrected various
000013:                                                                                                  #                                typos in the transcription of program
000014:                                                                                                  #                                comments, and these should be back-ported
000015:                                                                                                  #                                to Colossus249.
000016:
000017:                                                                                                  #  The contents of the "Comanche055" files, in general, are transcribed
000018:                                                                                                  #  from scanned documents.
000019:
000020:                                                                                                  #        Assemble revision 055 of AGC program Comanche by NASA
000021:                                                                                                  #        2021113-051.  April 1, 1969.
000022:
000023:                                                                                                  #        This AGC program shall also be referred to as Colossus 2A
000024:
000025:                                                                                                  #        Prepared by
000026:                                                                                                  #                        Massachusetts Institute of Technology
000027:                                                                                                  #                        75 Cambridge Parkway
000028:                                                                                                  #                        Cambridge, Massachusetts
000029:
000030:                                                                                                  #        under NASA contract NAS 9-4065.
000031:
000032:                                                                                                  #  Refer directly to the online document mentioned above for further
000033:                                                                                                  #  information.  Please report any errors to info@sandroid.org.
000034:
000035:                                                                                                  #  Page 1485
000036:    7722                                           BLOCK    3
000037:    6000                                           SETLOC   FFTAG6
000038:    6000                                           BANK
000039:    7722                                           COUNT    03/FLAG
000040:
000041:    7722           54001        UPENT2             TS       L                                     #  WHICH FLAGWORD IS IT
000042:    7723           75023                           MASK     OCT7
000043:    7724           56001                           XCH      L                                     #  SAVE IN L FOR INDEXING
000044:
000045:    7725           75731                           MASK     OCT77770                              #  OBTAIN THE BIT INFORMATION
000046:    7726           00004                           INHINT                                         #  PREVENT INTERRUPTS
000047:    7727           54061                           TS       ITEMP1                                #  STORE THE BIT INFORMATION TEMPORARILY
000048:
000049:    7730           50001                           NDX      L
000050:    7731           40074                           CS       FLAGWRD0
000051:    7732           70061                           MASK     ITEMP1
000052:    7733           50001                           NDX      L
000053:    7734           26074                           ADS      FLAGWRD0
000054:    7735           00003                           RELINT                                         #  RELEASE INTERRUPT INHIBIT
000055:
000056:    7736           24002                           INCR     Q                                     #  OBTAIN THE CORRECT RETURN ADDRESS
000057:    7737           00002                           TC       Q                                     #  RETURN
000058:
000059:    7740           54001        DOWNENT2           TS       L                                     #  WHICH FLAGWORD IS IT
000060:    7741           75023                           MASK     OCT7
000061:    7742           56001                           XCH      L                                     #  SAVE IN L FOR INDEXING
000062:
000063:    7743           75731                           MASK     OCT77770                              #  OBTAIN THE BIT INFORMATION
000064:    7744           40000                           COM                                            #  START TO PROCESS THE INFORMATION
000065:
000066:    7745           00004                           INHINT                                         #  PREVENT INTERRUPTS
000067:    7746           50001                           NDX      L
000068:    7747           70074                           MASK     FLAGWRD0
000069:    7750           50001                           NDX      L
000070:    7751           54074                           TS       FLAGWRD0
000071:    7752           00003                           RELINT                                         #  RELEASE INTERRUPT INHIBIT
000072:
000073:    7753           24002                           INCR     Q                                     #  OBTAIN THE CORRECT RETURN ADDRESS
000074:    7754           00002                           TC       Q
000075:
000076:    7755     5023               OCT7               EQUALS   SEVEN
000077: 10,3766                                           BANK     10
000078:
000079:                                                                                                  #  Page 1486
000080:                                                                                                  #  UPFLAG AND DOWNFLAG ARE ENTIRELY GENERAL FLAG SETTING AND CLEARING SUBROUTINES.  USING THEM, WHETHER OR
000081:                                                                                                  #  NOT IN INTERRUPT, ONE MAY SET OR CLEAR ANY SINGLE, NAMED BIT IN ANY ERASABLE REGISTER, SUBJECT OF COURSE TO
000082:                                                                                                  #  EBANK SETTING.  A "NAMED" BIT, AS THE WORD IS USED HERE, IS ANY BIT WITH A NAME FORMALLY ASSIGNED BY THE YUL
000083:                                                                                                  #  ASSEMBLER.
000084:
000085:                                                                                                  #  AT PRESENT THE ONLY NAMED BITS ARE THOSE IN THE FLAGWORDS.  ASSEMBLER CHANGES WILL MAKE IT POSSIBLE TO
000086:                                                                                                  #  NAME ANY BIT IN ERASABLE MEMORY.
000087:
000088:                                                                                                  #  CALLING SEQUENCES ARE AS FOLLOWS --
000089:                                                                                                  #                TC      UPFLAG                  TC      DOWNFLAG
000090:                                                                                                  #                ADRES   NAME OF FLAG            ADRES   NAME OF FLAG
000091:
000092:                                                                                                  #  RETURN IS TO THE LOCATION FOLLOWING THE "ADRES" ABOUT .58 MS AFTER THE "TC".
000093:                                                                                                  #  UPON RETURN A CONTAINS THE CURRENT FLAGWRD SETTING.
000094:
000095:    5546                                           BLOCK    02
000096:    4000                                           SETLOC   FFTAG1
000097:    4000                                           BANK
000098:    5546                                           COUNT*   $$/FLAG
000099:
000100:    5546           30002        UPFLAG             CA       Q
000101:    5547           05564                           TC       DEBIT
000102:    5550           40000                           COM                                            #  +(15 - BIT)
000103:    5551           00006                           EXTEND
000104:    5552           04001                           ROR      LCHAN                                 #  SET BIT
000105:    5553           50061        COMFLAG            INDEX    ITEMP1
000106:    5554           54074                           TS       FLAGWRD0
000107:    5555           22063                           LXCH     ITEMP3
000108:    5556           00003                           RELINT
000109:    5557           00001                           TC       L
000110:
000111:    5560           30002        DOWNFLAG           CA       Q
000112:    5561           05564                           TC       DEBIT
000113:    5562           70001                           MASK     L                                     #  RESET BIT
000114:    5563           15553                           TCF      COMFLAG
000115:
000116:    5564           65017        DEBIT              AD       ONE                                   #  CET DE BITS
000117:    5565           00004                           INHINT
000118:    5566           54063                           TS       ITEMP3
000119:    5567           35026                           CA       LOW4                                  #  DEC15
000120:    5570           54061                           TS       ITEMP1
000121:    5571           50063                           INDEX    ITEMP3
000122:    5572           27777                           CA       0          -1                         #  ADRES
000123:    5573           54001                           TS       L
000124:    5574           35021                           CA       ZERO
000125:                                                                                                  #  Page 1487
000126:    5575           00006                           EXTEND
000127:    5576           10061                           DV       ITEMP1                                #  A = FLAGWRD, L = (15 - BIT)
000128:    5577           52062                           DXCH     ITEMP1
000129:    5600           50061                           INDEX    ITEMP1
000130:    5601           30074                           CA       FLAGWRD0
000131:    5602           54001                           TS       L                                     #  CURRENT STATE
000132:    5603           50062                           INDEX    ITEMP2
000133:    5604           45001                           CS       BIT15                                 #  -(15 - BIT)
000134:    5605           00002                           TC       Q
000135:
000136:                                                                                                  #  Page 1488
000137:                                                                                                  #  DELAYJOB -- A GENERAL ROUTINE TO DELAY A JOB A SPECIFIC AMOUNT OF TIME BEFORE PICKING UP AGAIN.
000138:
000139:                                                                                                  #  ENTRANCE REQUIREMENTS ...
000140:                                                                                                  #                CAF     DT              # DELAY JOB FOR DT CENTISECS
000141:                                                                                                  #                TC      BANKCALL
000142:                                                                                                  #                CADR    DELAYJOB
000143:
000144: 06,3770                                           BANK     06
000145: 00,2000                                           SETLOC   DLAYJOB
000146: 00,2000                                           BANK
000147:
000148:                                                                                                  #  THIS MUST REMAIN IN BANK 0 ****************************************
000149:
000150: 00,3732                                           COUNT    00/DELAY
000151:
000152: 00,3732           00004        DELAYJOB           INHINT
000153: 00,3733           54002                           TS       Q                                     #  STORE DELAY DT IN Q FOR DLY -1 IN
000154: 00,3734           36214                           CAF      DELAYNUM                              #  WAITLIST
000155: 00,3735           54070        DELLOOP            TS       RUPTREG1
000156: 00,3736           50000                           INDEX    A
000157: 00,3737           31141                           CA       DELAYLOC                              #  IS THIS DELAYLOC AVAILABLE
000158: 00,3740           00006                           EXTEND
000159: 00,3741           13746                           BZF      OK2DELAY                              #  YES
000160:
000161: 00,3742           10070                           CCS      RUPTREG1                              #  NO, TRY NEXT DELAYLOC
000162: 00,3743           13735                           TCF      DELLOOP
000163:
000164: 00,3744           07755                           TC       BAILOUT                               #  NO AVAILABLE LOCS.
000165: 00,3745           01104                           OCT      1104
000166:
000167: 00,3746           33766        OK2DELAY           CA       TCSLEEP                               #  SET WAITLIST IMMEDIATE RETURN
000168: 00,3747           54061                           TS       WAITEXIT
000169:
000170: 00,3750           30004                           CA       FBANK
000171: 00,3751           60070                           AD       RUPTREG1                              #  STORE BBANK FOR TASK CALL
000172: 00,3752           54001                           TS       L
000173:
000174: 00,3753           33767                           CAF      WAKECAD                               #  STORE CADR FOR TASK CALL
000175: 00,3754           15255                           TCF      DLY2       -1                         #  DLY IS IN WAITLIST ROUTINE
000176:
000177: 00,3755           04711        TCGETCAD           TC       MAKECADR                              #  GET CALLER'S FCADR
000178:
000179: 00,3756           50070                           INDEX    RUPTREG1
000180: 00,3757           55141                           TS       DELAYLOC                              #  SAVE DELAY CADRS
000181:
000182: 00,3760           05175                           TC       JOBSLEEP
000183:
000184: 00,3761           35021        WAKER              CAF      ZERO
000185: 00,3762           50006                           INDEX    BBANK
000186: 00,3763           57141                           XCH      DELAYLOC                              #  MAKE DELAYLOC AVAILABLE
000187:                                                                                                  #  Page 1489
000188: 00,3764           05201                           TC       JOBWAKE
000189:
000190: 00,3765           05324                           TC       TASKOVER
000191:
000192: 00,3766           03753        TCSLEEP            GENADR   TCGETCAD   -2
000193: 00,3767           03761        WAKECAD            GENADR   WAKER
000194:
000195:                                                                                                  #  Page 1490
000196:                                                                                                  #  GENTRAN, A BLOCK TRANSFER ROUTINE
000197:                                                                                                  #  WRITTEN BY D. EYLES
000198:                                                                                                  #  MOD 1 BY KERNAN                               UTILITYM REV 17 11/18/67
000199:                                                                                                  #  MOD 2 BY SCHULENBERG -- (REMOVE RELINT) -- SKIPPER REV 4 2/28/68
000200:
000201:                                                                                                  #  THIS ROUTINE IS USEFUL FOR TRANSFERRING N CONSECUTIVE ERASABLE OR FIXED QUANTITIES TO SOME OTHER N
000202:                                                                                                  #  CONSECUTIVE ERASABLE LOCATIONS.  IF BOTH BLOCKS OF DATA ARE IN SWITCHABLE EBANKS, THEY MUST BE IN THE SAME ONE.
000203:
000204:                                                                                                  #  GENTRAN IS CALLABLE IN A JOB AS WELL AS A RUPT.  THE CALLING SEQUENCE IS:
000205:                                                                                                  #        I       CA      N-1             # NO. NUMBER OF QUANTITIES MINUS ONE.
000206:                                                                                                  #        I +1    TC      GENTRAN         # IN FIXED-FIXED.
000207:                                                                                                  #        I +2    ADRES   L               # STARTING ADRES OF DATA TO BE MOVED.
000208:                                                                                                  #        I +3    ADRES   M               # STARTING ADRES OF DUPLICATION BLOCK.
000209:                                                                                                  #        I +4                            # RETURNS HERE.
000210:
000211:                                                                                                  #  GENTRAN TAKES 25 MCT'S (300 MICROSECONDS) PER ITEM + 5 MCT'S (60 MICS) FOR ENTERING AND EXITING.
000212:                                                                                                  #  A, L, AND ITEMP1 ARE NOT PRESERVED.
000213:
000214:    5606                                           BLOCK    02
000215:    4000                                           SETLOC   FFTAG4
000216:    4000                                           BANK
000217:
000218:    5606     0061                                  EBANK=   ITEMP1
000219:
000220:    5606                                           COUNT*   $$/TRAN
000221:
000222:    5606           00004        GENTRAN            INHINT
000223:    5607           54061                           TS       ITEMP1                                #  SAVE N-1
000224:    5610           50002                           INDEX    Q                                     #  C(Q) = ADRES L.
000225:    5611           60000                           AD       0                                     #  ADRES (L + N - 1).
000226:    5612           50000                           INDEX    A
000227:    5613           30000                           CA       0                                     #  C(ABOVE).
000228:    5614           54001                           TS       L                                     #  SAVE DATA.
000229:    5615           30061                           CA       ITEMP1
000230:    5616           50002                           INDEX    Q
000231:    5617           60001                           AD       1                                     #  ADRES (M + N - 1).
000232:    5620           50000                           INDEX    A
000233:    5621           22000                           LXCH     0                                     #  STUFF IT.
000234:    5622           10061                           CCS      ITEMP1                                #  LOOP UNTIL N-1 = 0.
000235:    5623           15607                           TCF      GENTRAN    +1
000236:    5624           16710                           TCF      Q+2                                   #  RETURN TO CALLER.
000237:
000238:                                                                                                  #  Page 1491
000239:                                                                                                  #  B5OFF         ZERO BIT 5 OF EXTVBACK, WHICH IS SET BY TESTXACT.
000240:                                                                                                  #  MAY BE USED AS NEEDED BY ANY EXTENDED VERB WHICH HAS DONE TESTXACT
000241:
000242:    5625                                           COUNT*   $$/EXTVB
000243:
000244:    5625           45013        B5OFF              CS       BIT5
000245:    5626           71044                           MASK     EXTVBACT
000246:    5627           55044                           TS       EXTVBACT
000247:    5630           05217                           TC       ENDOFJOB
000248:
000249:                                                                                                  #  Page 1492
000250:                                                                                                  #  SUBROUTINES TO TURN OFF AND TURN ON TRACKER FAIL LIGHT.
000251:
000252:    5631           00004        TRFAILOF           INHINT
000253:    5632           47704                           CS       OCT40200                              #  TURN OFF TRACKER LIGHT
000254:    5633           71036                           MASK     DSPTAB     +11D
000255:    5634           65001                           AD       BIT15
000256:    5635           55036                           TS       DSPTAB     +11D
000257:    5636           41331                           CS       OPTMODES                              #  TO INSURE THAT OCDU FAIL WILL GO ON
000258:    5637           75011                           MASK     BIT7                                  #  AGAIN IF IT WAS ON IN ADDITION TO
000259:    5640           27331                           ADS      OPTMODES                              #  TRACKER FAIL.
000260:
000261:    5641           00003        REQ                RELINT
000262:    5642           00002                           TC       Q
000263:
000264:    5643           00004        TRFAILON           INHINT
000265:    5644           41036                           CS       DSPTAB     +11D                       #  TURN ON
000266:    5645           77704                           MASK     OCT40200
000267:    5646           27036                           ADS      DSPTAB     +11D
000268:    5647           15641                           TCF      REQ
000269:
000270:
000271:
000272:

End of include-file SERVICE_ROUTINES.agc.  Parent file is MAIN.agc


