
Source Code


000002:                                                                                                  ## Copyright:   Public domain.
000003:                                                                                                  ## Filename:    SERVICER207.agc
000004:                                                                                                  ## Purpose:     Part of the source code for Comanche, build 055. It
000005:                                                                                                  ##              is part of the source code for the Command Module's
000006:                                                                                                  ##              (CM) Apollo Guidance Computer (AGC), Apollo 11.
000007:                                                                                                  ## Assembler:   yaYUL
000008:                                                                                                  ## Reference:   pp. 819-836
000009:                                                                                                  ## Contact:     Ron Burkey <info@sandroid.org>
000010:                                                                                                  ## Website:     http://www.ibiblio.org/apollo.
000011:                                                                                                  ## Mod history: 2009-05-12 RSB  Adapted from Colossus249 file of the same
000012:                                                                                                  ##                              name and Comanche 055 page images.
000013:                                                                                                  ##              2016-12-11 RSB  Proofed comments with octopus/ProoferComments
000014:                                                                                                  ##                              and fixed the errors found.
000015:                                                                                                  ##              2017-01-18 RSB  Fixed comment-text errors noted while diff'ing
000016:                                                                                                  ##                              vs Colossus 249.
000017:                                                                                                  ##
000018:                                                                                                  ## The contents of the "Comanche055" files, in general, are transcribed
000019:                                                                                                  ## from scanned documents.
000020:                                                                                                  ##
000021:                                                                                                  ##       Assemble revision 055 of AGC program Comanche by NASA
000022:                                                                                                  ##       2021113-051.  April 1, 1969.
000023:                                                                                                  ##
000024:                                                                                                  ##       This AGC program shall also be referred to as Colossus 2A
000025:                                                                                                  ##
000026:                                                                                                  ##       Prepared by
000027:                                                                                                  ##                       Massachusetts Institute of Technology
000028:                                                                                                  ##                       75 Cambridge Parkway
000029:                                                                                                  ##                       Cambridge, Massachusetts
000030:                                                                                                  ##
000031:                                                                                                  ##       under NASA contract NAS 9-4065.
000032:                                                                                                  ##
000033:                                                                                                  ## Refer directly to the online document mentioned above for further
000034:                                                                                                  ## information.  Please report any errors to info@sandroid.org.
000035:


000037:                                                                                                  #  PROGRAM NAME -        PREREAD, READACCS, SERVICER, AVERAGE G.
000038:                                                                                                  #  MOD NO. 00 BY M. HAMILTON     DEC. 12, 1966
000039:
000040:                                                                                                  #  FUNCTIONAL DESCRIPTION
000041:
000042:                                                                                                  #  THE ROUTINES DESCRIBED BELOW ARE USED TO CALCULATE VALUES OF RN, VN, AND GDT/2 DURING ACCELERATED FLIGHT.
000043:                                                                                                  #  THE SEVERAL ROUTINES COMPRISE A PACKAGE AND ARE NOT MEANT TO BE USED AS SEPARATE SUBROUTINES.
000044:
000045:                                                                                                  #  GENERAL REFERENCES TO  SERVICER  OR  AVERAGE G  ARE UNDERSTOOD TO REFER TO THE ENTIRE SET OF ROUTINES INCLUDING
000046:                                                                                                  #  READACCS, SERVICER, AVERAGE G, INTEREAD, SMOOTHER, AND ANY ADDITIONAL ROUTINES ATTACHED AT AVGEXIT (SEE BELOW).
000047:
000048:                                                                                                  #  PROGRAMS INITIATING SERVICER ARE REQUIRED TO MAKE A WAITLIST CALL FOR PREREAD (OR, IF LIFTOFF, FOR BIBIBIAS)
000049:                                                                                                  #  AT 2 SECONDS BEFORE THE FIRST AVERAGE G UPDATE IN ORDER TO INITIALIZE THE SEQUENCE, WHICH WILL RECUR EVERY
000050:                                                                                                  #  2 SECONDS FROM THAT TIME ON AS LONG AS AVEGFLAG REMAINS SET.
000051:
000052:                                                                                                  #  THE USE OF ERASABLE AVGEXIT ALLOWS VARIOUS ROUTINES TO BE PERFORMED AS PART OF THE NORMAL CYCLE (SEE
000053:                                                                                                  #  EXPLANATION OF AVGEXIT BELOW).
000054:
000055:                                                                                                  #  DESCRIPTIONS OF INDIVIDUAL ROUTINES FOLLOW.
000056:
000057:                                                                                                  #        PREREAD
000058:
000059:                                                                                                  #                PREVIOUSLY EXTRAPOLATED VALUES COPIED FROM RN1, VN1, AND PIPTIME1 INTO RN, VN, AND PIPTIME.
000060:                                                                                                  #                LASTBIAS JOB SCHEDULED.
000061:                                                                                                  #                PIPS READ AND CLEARED VIA PIPASR SUBROUTINE.
000062:                                                                                                  #                AVERAGE G FLAG SET ON.
000063:                                                                                                  #                DRIFT FLAG SET OFF.
000064:                                                                                                  #                V37 FLAG SET ON.
000065:                                                                                                  #                INITIALIZATION OF       1) THRUST MONITOR (DVMON) - DVCNTR SET TO ONE.
000066:                                                                                                  #                                        2) TOTAL ACCUMULATED DELV VALUE (DVTOTAL) - SET TO ZERO.
000067:                                                                                                  #                                        3) AXIS VECTOR (AXIS) - SET TO (.5,0,0).
000068:                                                                                                  #                NORMLIZE JOB SCHEDULED.
000069:                                                                                                  #                READACCS TASK CALLED IN 2 SECONDS.
000070:
000071:                                                                                                  #        NORMLIZE
000072:
000073:                                                                                                  #                GDT/2 INITIALIZED VIA CALCGRAV SUBROUTINE.
000074:
000075:                                                                                                  #        READACCS
000076:
000077:                                                                                                  #                IF ONMON FLAG SET QUIKREAD ROUTINE IS PERFORMED BEFORE PIPASR ZEROS THE PIPA REGISTERS, AND THE 1/2 SEC
000078:                                                                                                  #                ONMONITOR LOOP IS INITIATED TO PROVIDE DOWNLINK INFORMATION DURING ENTRY.
000079:                                                                                                  #                PIPS READ AND CLEARED BY PIPASR SUBROUTINE.
000080:                                                                                                  #                IF CM/DSTBY IS ON, ENTRY VARIABLES INITIALIZED AND SETJTAG TASK CALLED.


000082:
000083:                                                                                                  #                IF AVERAGEG FLAG ON     READACCS CALLED TO RECYCLE IN 2 SECONDS.
000084:                                                                                                  #                IF AVERAGEG FLAG OFF    AVERAGE G EXIT (AVGEXIT) SET TO 2CADR AVGEND FOR FINAL PASS.
000085:                                                                                                  #                SERVICER JOB SCHEDULED.
000086:                                                                                                  #                TEST CONNECTOR OUTBIT TURNED ON.
000087:
000088:                                                                                                  #        ONMNITOR
000089:
000090:                                                                                                  #                A SEQUENCE OF THREE PASSES THROUGH QUICKREAD FOLLOWING A CALL TO READACCS WITH ONMONFLG SET AT 1/2
000091:                                                                                                  #                SEC INTERVALS.  INTERVALS ARE COUNTED OUT BY PIPCTR, INITIALISED AT 3 BY READACCS
000092:
000093:                                                                                                  #        QUIKREAD
000094:
000095:                                                                                                  #                READS CURRENT PIPS INTO X,Y,ZPIPBUF.  READS OLD X,Y,ZPIPBUF INTO X,Y,ZOLDBUF.  VALUES ARE SENT TO
000096:                                                                                                  #                DOWNLIST DURING ENTRY.
000097:
000098:                                                                                                  #        SERVICER
000099:
000100:                                                                                                  #                DELV VALUES CHECKED TO DETECT RUNAWAY PIP -
000101:                                                                                                  #                        IF BAD PIP      1) ALARM SENT.
000102:                                                                                                  #                                        2) COMPENSATION, DVTOTAL ACCUMULATION, AND DVMON BYPASSED.  CONTROL
000103:                                                                                                  #                                           TRANSFERRED TO AVERAGE G.
000104:                                                                                                  #                PIPS COMPENSATED VIA 1/PIPA SUBROUTINE.
000105:                                                                                                  #                DVTOTAL INCREMENTED BY ABSOLUTE VALUE OF DELV.
000106:                                                                                                  #                THRUST MONITOR (DVMON) PERFORMED UNLESS IDLE FLAG IS ON.
000107:                                                                                                  #                CONTROL TRANSFERRED TO AVERAGE G.
000108:
000109:                                                                                                  #        DVMON
000110:
000111:                                                                                                  #                THRESHOLD VALUE (PLACED IN DVTHRUSH BY USER) CHECKED AGAINST ABSOLUTE VALUE OF DELV TO CHECK
000112:                                                                                                  #                THRUST LEVEL.
000113:
000114:                                                                                                  #                        IF THRUST       1) ULLAGE OFF ROUTINE PERFORMED.
000115:                                                                                                  #                                        2) STEERING FLAG TURNED ON AT FIRST DETECTION OF THRUST.
000116:                                                                                                  #                                        3) CONTROL TRANSFERRED TO AVERAGE G.
000117:                                                                                                  #                        IF NO THRUST    1) ON FIRST PASS THROUGH MONITOR, CONTROL TRANSFERRED TO AVERAGE G.
000118:                                                                                                  #                                        2) ON SUBSEQUENT PASSES, CONTROL TRANSFERRED TO ENGINE FAIL ROUTINE IF THRUST
000119:                                                                                                  #                                           HAS FAILED FOR 3 CONSECUTIVE PASSES.
000120:
000121:                                                                                                  #        ENGINE FAIL
000122:
000123:                                                                                                  #                ENGFAIL1 TASK CALLED IN 2.5 SECONDS.  THIS WILL RETURN CONTROL TO TIG-5 SO THAT THE IGNITION
000124:                                                                                                  #                        SEQUENCE MAY BE REPEATED.
000125:                                                                                                  #                ENGINOF3 PERFORMED.
000126:                                                                                                  #                DAP SET UP FOR RCS.
000127:                                                                                                  #
000128:                                                                                                  #        AVERAGE G


000130:                                                                                                  #                RN1, VN1, GDT1/2 CALCULATED VIA CALCRVG ROUTINE BY UPDATING RN, VN WITH DELV AND AN AVERAGED VALUE
000131:                                                                                                  #                        OF GDT/2.
000132:                                                                                                  #                RN1, VN1, GDT1/2, PIPTIME1 COPIED INTO RN, VN, GDT/2, PIPTIME FOR RESTART PROTECTION.
000133:                                                                                                  #                CONTROL TRANSFERRED TO ADDRESS SPECIFIED BY USER (OR BY READACCS FOR LAST PASS) IN AVGEXIT.
000134:                                                                                                  #                LAST PASS (AVGEND)      1) FREE FALL GYRO COMPENSATION SET UP.
000135:                                                                                                  #                                        2) DRIFT FLAG TURNED ON.
000136:                                                                                                  #                                        3) STATE VECTOR TRANSFERRED VIA AVETOMID ROUTINE.
000137:                                                                                                  #                                        4) ONMONITOR FLAG RESET.
000138:                                                                                                  #                                        5) V37 FLAG RESET.
000139:                                                                                                  #                                        6) TEST CONNECTOR OUTBIT RESET.
000140:                                                                                                  #                                        7) CONTROL TRANSFERRED TO CANV37 TO CONTINUE MM CHANGE ROUTINE (R00).
000141:
000142:                                                                                                  #  CALLING SEQUENCE
000143:
000144:                                                                                                  #        PREREAD ENTERED DIRECTLY FROM TIG-30 VIA POSTJUMP.
000145:                                                                                                  #        READACCS CALLED AS WAITLIST TASK.                                          .
000146:
000147:                                                                                                  #  SUBROUTINES CALLED
000148:
000149:                                                                                                  #        UTILITY ROUTINES - PHASCHNG FLAGUP FLAGDOWN NOVAC FINDVAC WAITLIST ALARM NEWPHASE 2PHSCHNG
000150:
000151:                                                                                                  #        OTHER - PIPASR 1/PIPA CALCGRAV CALCRVG AVETOMID
000152:
000153:                                                                                                  #  NORMAL EXIT MODES
000154:
000155:                                                                                                  #        ENDOFJOB        TASKOVER        CANV37
000156:
000157:                                                                                                  #        AVGEXIT -       THIS IS A DOUBLE PRECISION ERASABLE LOCATION BY WHICH CONTROL IS TRANSFERRED AT THE END
000158:                                                                                                  #                                OF EACH CYCLE OF AVERAGE G.
000159:                                                                                                  #                        THE 2CADR OF A ROUTINE TO BE PERFORMED AT THAT TIME (E.G., STEERING EQUATIONS TO BE PERFORMED
000160:                                                                                                  #                                AT 2 SECOND INTERVALS) MAY BE SET BY THE USER INTO AVGEXIT.
000161:                                                                                                  #                        ALL SUCH ROUTINES SHOULD RETURN TO SERVEXIT, WHICH IS THE NORMAL EXIT FROM AVERAGE G.
000162:
000163:                                                                                                  #        SERVEXIT -      DOES A PHASE CHANGE FOR RESTART PROTECTION AND GOES TO ENDOFJOB.
000164:                                                                                                  #                        THE 2CADR OF SERVEXIT IS SET INTO AVGEXIT BY THE USER IF NO OTHER ROUTINE (SEE ABOVE).
000165:
000166:                                                                                                  #        AVGEND -        LAST PASS OF AVERAGE G EXITS HERE, BYPASSING SPECIAL ROUTINE (SEE ABOVE UNDER READACCS).
000167:                                                                                                  #                        FINAL EXIT IS TO CANV37.                                F AVERAGE G).
000168:
000169:                                                                                                  #  OUTPUT
000170:
000171:                                                                                                  #        DVTOTAL(2)  PIPTIME(2)  XPIPBUF(2)  YPIPBUF(2)  ZPIPBUF(2)
000172:                                                                                                  #        RN(6)           REFERENCE COORD.        SCALED AT 2(+29) M/CS
000173:                                                                                                  #        VN(6)           REFERENCE COORD.        SCALED AT 2(+7) M/CS
000174:                                                                                                  #        GDT/2(6)        REFERENCE COORD.        SCALED AT 2(+7) M/CS
000175:                                                                                                  #        DELV(6)         STABLE MEMB. COORD.     SCALED AT 2(+14)*5.85*10(-4) M/CS (KPIP1 USED TO GET DV/2 AT 2(+7))


000177:                                                                                                  #        DELVREF(6)      REFERENCE COORD.        SCALED AT 2(+7) M/CS
000178:
000179:                                                                                                  #  INITIALIZATION
000180:
000181:                                                                                                  #        ONMONITOR FLAG SET BY ENTRY TO SHOW PIPBUF VALUES REQUIRED.
000182:                                                                                                  #        IDLE FLAG ON IF DVMON TO BE BYPASSED.
000183:                                                                                                  #        DVTHRUSH SET TO APPROPRIATE VALUE FOR DVMON.
000184:                                                                                                  #        AVGEXIT SET TO 2CADR OF ROUTINE, IF ANY, TO BE PERFORMED AFTER EACH CYCLE OF AVERAGE G.  IF NO ROUTINE
000185:                                                                                                  #                TO BE DONE, AVGEXIT SET TO SERVEXIT.
000186:                                                                                                  #        VALUES NEEDED
000187:                                                                                                  #                REFSMMAT
000188:                                                                                                  #                UNITW -  FULL UNIT VECTOR, IN REFERENCE COORD., OF EARTH S ROTATIONAL VECTOR
000189:                                                                                                  #                RN1, VN1, PIPTIME1 -  IN REFERENCE COORD., CONSISTENT WITH TIME OF EXECUTION OF PREREAD
000190:
000191:                                                                                                  #  DEBRIS
000192:
000193:                                                                                                  #        CENTRALS        A, L, Q
000194:                                                                                                  #        OTHER           INTERNAL - DVCNTR(1)  PIPAGE(1)  PIPCTR(1)  AVGEXIT(2)
000195:                                                                                                  #                        EXTERNAL - ITEMP1(1)  ITEMP2(1)  RUPTREG1(1)  TEMX(1)  TEMY(1)  TEMZ(1)
000196:                                                                                                  #                        USEFUL DEBRIS
000197:                                                                                                  #                                RN1(6)  VN1(6)  GDT1/2  PIPTIME1(2)
000198:                                                                                                  #                                        THESE LOCATIONS USED AS BUFFER STORAGE FOR NEWLY CALCULATED VALUES OF RN, VN, GDT/2,
000199:                                                                                                  #                                        AND PIPTIME DURING PERFORMANCE OF SERVICER ROUTINES.
000200:                                                                                                  #                                UNITR - HALF UNIT VECTOR OF RN, REFERENCE COORD.
000201:                                                                                                  #                                RMAG SCALED AT 2(+58) IN 36D.
000202:                                                                                                  #                                RMAGSQ SCALED AT 2(+58) IN 34D.
000203:                                                                                                  #                                (RE/RMAG)SQ IN 32D.
000204:
000205: 27,2671                                           BANK     27
000206: 37,2000                                           SETLOC   SERVICES
000207: 37,2000                                           BANK
000208:
000209: 37,2701  E7,1431                                  EBANK=   DVCNTR
000210:                                                                                                  #  *************************************   PREREAD   **************************************************************
000211:
000212: 37,2701                                           COUNT    37/SERV
000213:
000214: 37,2701           35073        PREREAD            CAF      PRIO21                                #  CALLER MUST PROTECT PREREAD
000215: 37,2702           05134                           TC       NOVAC
000216: 37,2703  E3,1460                                  EBANK=   NBDX
000217: 37,2703           03636 14063                     2CADR    LASTBIAS                              #  DO LAST GYRO COMPENSATION IN FREE FALL
000218:
000219:                                                                                                  #  CALL-TO AND LASTBIAS ITSELF ARE NOT
000220:                                                                                                  #        PROTECTED. REREADAC SETS 1/PIPADT
000221:                                                                                                  #        TO 2.0 SECS IN CASE LASTBIAS LOST.
000222:                                                                                                  #        (REDUNDANT IF LASTBIAS IS AOK)


000224: 37,2705           02722        REDO5.31           TC       PREREAD1
000225:
000226: 37,2706           37667                           CAF      PRIO32
000227: 37,2707           05147                           TC       FINDVAC                               #  SET UP NORMLIZE JOB REQUIRED PRIOR TO
000228: 37,2710  E7,1431                                  EBANK=   DVCNTR                                #  FIRST AVERAGE G PASS
000229: 37,2710           03236 76067                     2CADR    NORMLIZE
000230:
000231: 37,2712           35042                           CAF      2SECS
000232: 37,2713           05245                           TC       WAITLIST
000233: 37,2714  E6,1661                                  EBANK=   AOG
000234: 37,2714           02744 76066                     2CADR    READACCS
000235:
000236: 37,2716           45016                           CS       TWO
000237: 37,2717           04114                           TC       NEWPHASE
000238: 37,2720           00005                           OCT      5
000239:
000240: 37,2721           15324                           TCF      TASKOVER
000241:
000242: 37,2722           00006        PREREAD1           EXTEND
000243: 37,2723           22070                           QXCH     RUPTREG1
000244:
000245: 37,2724           03254                           TC       PIPASR                                #  CLEAR + READ PIPS LAST TIME IN FREE FALL
000246:
000247: 37,2725           35017                           CAF      ONE                                   #  SET UP PIPAGE FOR REREADAC IN CASE A
000248: 37,2726           55230                           TS       PIPAGE                                #        RESTART OCCURS BEFORE READACCS
000249:
000250: 37,2727           40075                           CS       FLAGWRD1                              #  SET AVEG FLAG
000251: 37,2730           75017                           MASK     BIT1
000252: 37,2731           26075                           ADS      FLAGWRD1
000253:
000254: 37,2732           34777                           CA       POSMAX
000255: 37,2733           70076                           MASK     FLAGWRD2
000256: 37,2734           54076                           TS       FLAGWRD2                              #  KNOCK DOWN DRIFT FLAG
000257:
000258: 37,2735           40103                           CS       FLAGWRD7                              #  SET V37 FLAG
000259: 37,2736           75012                           MASK     BIT6
000260: 37,2737           26103                           ADS      FLAGWRD7
000261:
000262: 37,2740           35021                           CAF      ZERO
000263: 37,2741           55425                           TS       DVTOTAL                               #  CLEAR DVTOTAL
000264: 37,2742           55426                           TS       DVTOTAL    +1
000265:
000266: 37,2743           00070                           TC       RUPTREG1
000267:


000269:                                                                                                  #  *************************************   READACCS   *************************************************************
000270: 37,2744  E6,1661                                  EBANK=   AOG
000271: 37,2744           03254        READACCS           TC       PIPASR
000272:
000273: 37,2745           35022        PIPSDONE           CAF      FIVE
000274: 37,2746           54001                           TS       L
000275: 37,2747           40000                           COM
000276: 37,2750           52763                           DXCH     -PHASE5
000277:
000278: 37,2751           35017        REDO5.5            CAF      ONE                                   #  SHOW PIPS HAVE BEEN READ
000279: 37,2752           55230                           TS       PIPAGE
000280:
000281: 37,2753           35016                           CA       TWO                                   #  SET PIPCTR FOR ONMINTOR
000282: 37,2754           55227                           TS       PIPCTR                                #  AFTER ABOVE PHASCHNG
000283:
000284: 37,2755           40102                           CS       CM/FLAGS
000285: 37,2756           75016                           MASK     BIT2                                  #  CM/DSTBY
000286: 37,2757           10000                           CCS      A
000287: 37,2760           03033                           TC       CHEKAVEG
000288:
000289: 37,2761           41246                           CS       PIPTIME1   +1
000290: 37,2762           55065                           TS       TBASE6                                #  FOR RESTARTS
000291: 37,2763           00006                           EXTEND                                         #  CONTINUE FOR ENTRY DAP
000292: 37,2764           31662                           DCA      AOG
000293: 37,2765           53670                           DXCH     AOG/PIP
000294: 37,2766           31663                           CA       AMG
000295: 37,2767           57671                           XCH      AMG/PIP
000296: 37,2770           00006                           EXTEND
000297: 37,2771           31665                           DCA      ROLL/180
000298: 37,2772           53673                           DXCH     ROLL/PIP
000299: 37,2773           31666                           CA       BETA/180
000300: 37,2774           57674                           XCH      BETA/PIP
000301: 37,2775           30102                           CA       CM/FLAGS
000302: 37,2776           75004                           MASK     BIT12                                 #  CM/DAPARM 93D BIT12
000303: 37,2777           00006                           EXTEND                                         #  DURING ENTRY, WHEN RCS DAP IS INACTIVE,
000304: 37,3000           13016                           BZF      NOSAVPIP                              #  SAVE PIPAS EACH 0.5 SEC FOR TM.
000305:
000306: 37,3001           33066                           CA       0.5SEC
000307: 37,3002           05245                           TC       WAITLIST
000308: 37,3003  E6,1533                                  EBANK=   XPIPBUF
000309: 37,3003           03067 76066                     2CADR    QUIKREAD
000310:
000311:                                                                                                  #  NO NEED TO RESTART PROTECT THIS.
000312: 37,3005           31162                           CA       DELVX                                 #  SAVE PIPAS AS READ (BUT NOT COMPENSATED)
000313: 37,3006           57533                           XCH      XPIPBUF
000314: 37,3007           55536                           TS       XOLDBUF
000315:
000316: 37,3010           31164                           CA       DELVY
000317: 37,3011           57534                           XCH      YPIPBUF
000318: 37,3012           55537                           TS       YOLDBUF


000320: 37,3013           31166                           CA       DELVZ
000321: 37,3014           57535                           XCH      ZPIPBUF
000322: 37,3015           55540                           TS       ZOLDBUF
000323:
000324: 37,3016           35022        NOSAVPIP           CA       FIVE
000325: 37,3017           55725                           TS       CM/GYMDT
000326:
000327: 37,3020           33233                           CA       JTAGTIME                              #  ACTIVATE CM/RCS AFTER PIPUP TO GO
000328:                                                                                                  #  IN JTAGTIME +5 CS.
000329: 37,3021           05245                           TC       WAITLIST
000330: 37,3022  E6,1661                                  EBANK=   AOG
000331: 37,3022           03207 32066                     2CADR    SETJTAG
000332:
000333: 37,3024           46214                           CS       THREE                                 #  1.3SPOT FOR SETJTAG
000334: 37,3025           04114                           TC       NEWPHASE
000335: 37,3026           00001                           OCT      1
000336:
000337: 37,3027           34362                           CAF      OCT37
000338: 37,3030           54001                           TS       L
000339: 37,3031           40000                           COM
000340: 37,3032           52763                           DXCH     -PHASE5
000341:
000342: 37,3033           40075        CHEKAVEG           CS       FLAGWRD1
000343: 37,3034           75017                           MASK     BIT1
000344: 37,3035           10000                           CCS      A                                     #  IF AVEG FLAG DOWN SET FINAL EXIT AVEG
000345: 37,3036           03056                           TC       AVEGOUT
000346:
000347: 37,3037           35042                           CAF      2SECS
000348: 37,3040           05245                           TC       WAITLIST
000349: 37,3041  E6,1661                                  EBANK=   AOG
000350: 37,3041           02744 76066                     2CADR    READACCS
000351:
000352: 37,3043           35002        MAKESERV           CAF      PRIO20                                #  ESTABLISH SERVICER ROUTINE
000353: 37,3044           05147                           TC       FINDVAC
000354: 37,3045  E7,1431                                  EBANK=   DVCNTR
000355: 37,3045           03104 76067                     2CADR    SERVICER
000356:
000357: 37,3047           45015                           CS       FOUR                                  #  RESTART SERVICER AND READACCS
000358: 37,3050           04114                           TC       NEWPHASE
000359: 37,3051           00005                           OCT      5
000360:
000361: 37,3052           35007                           CAF      BIT9
000362: 37,3053           00006                           EXTEND
000363: 37,3054           05011                           WOR      DSALMOUT                              #  TURN TEST CONNECTOR OUTBIT ON
000364:
000365: 37,3055           15324                           TCF      TASKOVER                              #  END PREVIOUS READACCS WAITLIST TASK
000366:


000368: 37,3056           00006        AVEGOUT            EXTEND
000369: 37,3057           33063                           DCA      AVOUTCAD
000370: 37,3060           53223                           DXCH     AVGEXIT
000371: 37,3061           13043                           TCF      MAKESERV
000372:
000373: 37,3062  E7,1431                                  EBANK=   DVCNTR
000374: 37,3062           03165 76067  AVOUTCAD           2CADR    AVGEND
000375:


000377:                                                                                                  #  ROUTINE NAME: ONMNITOR
000378:                                                                                                  #  MOD 04 BY BAIRNSFATHER 30 APR 1968    REDO ONMNITOR TO SAVE PIPS EACH 0.5 SEC FOR TM,ENTRY.
000379:                                                                                                  #  MOD 03 BY FISHER DECEMBER 1967
000380:                                                                                                  #  MOD 02 BY RYE SEPT 1967
000381:                                                                                                  #  MOD 01 BY KOSMALA 23 MAR 1967
000382:                                                                                                  #  MOD 00 BY KOSMALA 27 FEB 1967
000383:
000384:                                                                                                  #  FUNCTIONAL DESCRIPTION
000385:
000386:                                                                                                  #        THE PURPOSE OF ONMONITOR IS TO PROVIDE 1/2 SEC. READING OF PIPAS FOR DOWNLIST DURING ENTRY.
000387:                                                                                                  #        X,Y,ZPIPBUF CONTAIN PRESENT VALUES X,Y,ZOLDBUF CONTAIN VALUES FROM PREVIOUS READING.
000388:
000389:                                                                                                  #  CALLING SEQUENCE
000390:
000391:                                                                                                  #        CALL AS WAITLIST TASK. TERMINATES ITSELF IN TASKOVER
000392:
000393:                                                                                                  #  INITIALISATION
000394:
000395:                                                                                                  #        PIPCTR = 2 (FOR DT = 0.5 SEC)
000396:                                                                                                  #        X,Y,ZPIPBUF SET TO PREVIOUS PIPAX,Y,Z
000397:
000398:                                                                                                  #  OUTPUT
000399:
000400:                                                                                                  #        X,Y,ZPIPBUF, X,Y,ZOLDBUF
000401:
000402:                                                                                                  #  DEBRIS
000403:
000404:                                                                                                  #        X,Y,ZPIPBUF CONTAIN LAST PIPAX,Y,Z VALUES
000405:                                                                                                  #                X,Y,ZOLDBUF CONTAIN LAST-BUT-ONE PIPAX,Y,Z VALUES
000406:                                                                                                  #        RUPTREG1
000407:                                                                                                  #        PIPCTR
000408:
000409: 37,3064           55227        ONMNITOR           TS       PIPCTR
000410:
000411: 37,3065           05267                           TC       FIXDELAY                              #  WAIT
000412: 37,3066           00062        0.5SEC             DEC      50         B-14
000413:
000414: 37,3067           35016        QUIKREAD           CAF      TWO
000415: 37,3070           54070                           TS       RUPTREG1
000416: 37,3071           50000                           INDEX    A
000417: 37,3072           30037                           CA       PIPAX                                 #  SAVE ACTUAL PIPAS FOR TM.
000418: 37,3073           50070                           INDEX    RUPTREG1
000419: 37,3074           57533                           XCH      XPIPBUF                               #  UPDATE X,Y,ZPIPBUF
000420: 37,3075           50070                           INDEX    RUPTREG1
000421: 37,3076           55536                           TS       XOLDBUF                               #  AND X,Y,ZOLDBUF
000422: 37,3077           10070        CHKCTR             CCS      RUPTREG1
000423: 37,3100           13070                           TCF      QUIKREAD   +1                         #  LOOP AGAIN
000424: 37,3101           11227                           CCS      PIPCTR
000425: 37,3102           13064                           TCF      ONMNITOR
000426: 37,3103           05324                           TC       TASKOVER
000427:


000429:                                                                                                  #  *************************************   SERVICER   *************************************************************
000430:
000431: 37,3104  E7,1431                                  EBANK=   DVCNTR
000432:
000433: 37,3104           35016        SERVICER           CAF      TWO
000434: 37,3105           00004                           INHINT
000435: 37,3106           54070        PIPCHECK           TS       RUPTREG1
000436:
000437: 37,3107           60000                           DOUBLE
000438: 37,3110           50000                           INDEX    A
000439: 37,3111           11162                           CCS      DELVX
000440: 37,3112           03114                           TC       +2
000441: 37,3113           03122                           TC       PIPLOOP
000442:
000443: 37,3114           63232                           AD       -MAXDELV                              #  DO PIPA-SATURATION TEST BEFORE
000444: 37,3115           00006                           EXTEND
000445: 37,3116           63122                           BZMF     PIPLOOP                               #  COMPENSATION.
000446:
000447: 37,3117           05650                           TC       ALARM
000448: 37,3120           00205                           OCT      00205                                 #  SATURATED-PIPA ALARM   ***CHANGE LATER
000449: 37,3121           03143                           TC       AVERAGEG
000450:
000451: 37,3122           10070        PIPLOOP            CCS      RUPTREG1
000452: 37,3123           13106                           TCF      PIPCHECK
000453:
000454: 37,3124           05412                           TC       PHASCHNG                              #  RESTART REREADAC + SERVICER
000455: 37,3125           16035                           OCT      16035
000456: 37,3126           20000                           OCT      20000
000457: 37,3127  E7,1431                                  EBANK=   DVCNTR
000458: 37,3127           03133 76067                     2CADR    DVTOTUP
000459:
000460: 37,3131           04662                           TC       BANKCALL                              #  PIPA COMPENSATION CALL
000461: 37,3132           15262                           CADR     1/PIPA
000462:
000463: 37,3133           06006        DVTOTUP            TC       INTPRET
000464: 37,3134           51575                           VLOAD    ABVAL                                 #  GET ABS VALUE OF DELV
000465: 37,3135           01163                                    DELV
000466: 37,3136           77405                           DMP      EXIT
000467: 37,3137           37451                                    KPIP1                                 #  SCALE AT 2(+7)
000468:
000469: 37,3140           00006                           EXTEND
000470: 37,3141           30155                           DCA      MPAC
000471: 37,3142           21426                           DAS      DVTOTAL                               #  ACCUMULATE DVTOTAL
000472: 37,3143           05412        AVERAGEG           TC       PHASCHNG
000473: 37,3144           10035                           OCT      10035
000474:
000475: 37,3145           06006                           TC       INTPRET
000476: 37,3146           77624                           CALL


000478: 37,3147           77420                                    CALCRVG
000479: 37,3150           77776                           EXIT
000480:
000481: 37,3151           05412                           TC       PHASCHNG
000482: 37,3152           10035                           OCT      10035
000483:
000484: 37,3153           34113                           CAF      OCT31                                 #  COPY RN1,VN1,GOT102,GOBL1/2,PIPTIME1
000485: 37,3154           05606                           TC       GENTRAN                               #  INTO RN, VN, GDT/12, GOBL/2,PIPTIME
000486: 37,3155           01231                           ADRES    RN1
000487: 37,3156           01170                           ADRES    RN
000488: 37,3157           00003                           RELINT                                         #  GENTRAN DOES AN INHINT
000489: 37,3160           05412                           TC       PHASCHNG
000490: 37,3161           10035                           OCT      10035
000491:
000492: 37,3162           00006                           EXTEND
000493: 37,3163           31223                           DCA      AVGEXIT
000494: 37,3164           52006                           DXCH     Z                                     #  AVERAGEG EXIT
000495:
000496: 37,3165           31205        AVGEND             CA       PIPTIME    +1                         #  FINAL AVERAGE G EXIT
000497: 37,3166           55074                           TS       OLDBT1                                #  SET UP FREE FALL GYRO COMPENSATION
000498:
000499: 37,3167           05546                           TC       UPFLAG                                #  SET DRIFTFLG
000500: 37,3170           00036                           ADRES    DRIFTFLG                              #  BIT 15 FLAG 2
000501: 37,3171           05372                           TC       2PHSCHNG
000502: 37,3172           00005                           OCT      5                                     #  GROUP 5 OFF
000503: 37,3173           05022                           OCT      05022                                 #  GROUP 2 ON FOR AVETOMID
000504: 37,3174           20000                           OCT      20000
000505:
000506: 37,3175           06006                           TC       INTPRET
000507: 37,3176           77624                           CALL
000508: 37,3177           73675                                    AVETOMID                              #  CONVERT STATE VECTOR TO REFERENCE SCALE.
000509: 37,3200           77776                           EXIT
000510:
000511: 37,3201           35021                           CAF      ZERO                                  #  ZERO MARK COUNTERS.
000512: 37,3202           55125                           TS       VHFCNT
000513: 37,3203           55126                           TS       TRKMKCNT
000514:
000515: 37,3204           04662                           TC       BANKCALL
000516: 37,3205           17173                           CADR     PIPFREE
000517:
000518: 37,3206           45007                           CS       BIT9
000519: 37,3207           55734                           TS       MRKBUF2                               #  INVALIDATE MARK BUFFER
000520: 37,3210           00006                           EXTEND
000521: 37,3211           03011                           WAND     DSALMOUT
000522:
000523: 37,3212           05560                           TC       DOWNFLAG
000524: 37,3213           00147                           ADRES    CM/DSTBY
000525:
000526: 37,3214           05560                           TC       DOWNFLAG
000527: 37,3215           00162                           ADRES    V37FLAG
000528:


000530: 37,3216           35011                           CAF      BIT7                                  #  RESTORE GROUP 1 + 2 IF P20 IS RUNNING.
000531: 37,3217           70074                           MASK     FLAGWRD0
000532: 37,3220           00006                           EXTEND
000533: 37,3221           13225                           BZF      +4
000534:
000535: 37,3222           05372                           TC       2PHSCHNG
000536: 37,3223           00111                           OCT      111                                   #  1.11SPOT
000537: 37,3224           00132                           OCT      132                                   #  2.13SPOT
000538:
000539: 37,3225           04701                           TC       POSTJUMP
000540: 37,3226           10124                           CADR     CANV37
000541:
000542: 37,3227           05412        SERVEXIT           TC       PHASCHNG
000543: 37,3230           00035                           OCT      00035                                 #  A, 5.3 = REREADAC     (ONLY)
000544:
000545: 37,3231           15217                           TCF      ENDOFJOB
000546:
000547: 37,3232     5024               DVTHRUSH           EQUALS   ELEVEN                                #  15 PERCENT OF 2SEC PIPA ACCUMULATION,
000548:                                                                                                  #        FOR 503-FULL CSM/LEM....DELV SC.AT
000549:                                                                                                  #        5.85 CM/SEC.
000550:
000551: 37,3232           63401        -MAXDELV           DEC      -6398      B-14                       #  3200 PPS FOR 2 SEC CCS TAKES 1
000552:
000553: 37,3233           00170        JTAGTIME           DEC      120        B-14                       #  = 1 SEC + T CDU, T CDU = .1 SEC
000554:
000555: 37,3234           00372        2.5SEC             DEC      250        B-14
000556: 37,3235           00044        MDOTFAIL           DEC      144.0      B-16                       #  5 SEC MASS LOSS AT 28.8 KG/SEC
000557:                                                                                                  #  SHOULD BE 2-4 SECS FOR NO START
000558:                                                                                                  #            6-8 SECS FOR FAILURE
000559:


000561:                                                                                                  #  NORMLIZE PERFORMS THE INITIALIZATION REQUIRED PRIOR TO THE FIRST ENTRY TO AVERAGEG, AND SCALES RN SO THAT IT
000562:                                                                                                  #  HAS 1 LEADING BINARY ZERO.  IN MOST MISSIONS, RN WILL BE SCALED AT 2(+29), BUT IN THE 206 MISSION, RN WILL BE
000563:                                                                                                  #  SCALED AT 2(+24) M.
000564:
000565: 37,3236           35025        NORMLIZE           CAF      THIRTEEN                              #  SET UP TO COPY 14 REGS- RN1,VN1,PIPTIME1
000566: 37,3237           05606                           TC       GENTRAN                               #  INTO RN,VN,PIPTIME
000567: 37,3240           01231                           ADRES    RN1                                   #  FROM HERE
000568: 37,3241           01170                           ADRES    RN                                    #  TO HERE
000569:
000570: 37,3242           00003                           RELINT
000571: 37,3243           06006                           TC       INTPRET
000572: 37,3244           45175                           VLOAD    CALL                                  #  LOAD RN FOR CALCGRAV
000573: 37,3245           01171                                    RN
000574: 37,3246           77353                                    CALCGRAV                              #  INITIALISE UNITR RMAG GDT1
000575:
000576: 37,3247           25207                           STOVL    GDT/2
000577: 37,3250           01256                                    GOBL1/2
000578: 37,3251           01215                           STORE    GOBL/2
000579: 37,3252           77776                           EXIT
000580: 37,3253           15217                           TCF      ENDOFJOB
000581:


000583:                                                                                                  #  *****  PIPA READER *****
000584:                                                                                                  #  MOD NO. 00 BY D. LICKLY DEC. 9 1966
000585:
000586:                                                                                                  #  FUNCTIONAL DESCRIPTION
000587:
000588:                                                                                                  #  SUBROUTINE TO READ PIPA COUNTERS, TRYING TO BE VERY CAREFUL SO THAT IT WILL BE RESTARTABLE.
000589:                                                                                                  #  PIPA READINGS ARE STORED IN THE VECTOR DELV.  THE HIGH ORDER PART OF EACH COMPONENT CONTAINS THE PIPA READING,
000590:                                                                                                  #  RESTARTS BEGIN AT REREADAC.
000591:
000592:                                                                                                  #  AT THE END OF THE PIPA READER THE CDUS ARE READ AND STORED AS A
000593:                                                                                                  #  VECTOR IN CDUTEMP.  THE HIGH ORDER PART OF EACH COMPONENT CONTAINS
000594:                                                                                                  #  THE CDU READING IN 2S COMP IN THE ORDER CDUX,Y,Z.  THE THRUST
000595:                                                                                                  #  VECTOR ESTIMATOR IN FINDCDUD REQUIRES THE CDUS BE READ AT PIPTIME.
000596:
000597:                                                                                                  #  CALLING SEQUENCE AND EXIT
000598:
000599:                                                                                                  #        CALL VIA TC, ISWCALL, ETC.
000600:
000601:                                                                                                  #        EXIT IS VIA Q.
000602:
000603:                                                                                                  #  INPUT
000604:
000605:                                                                                                  #        INPUT IS THROUGH THE COUNTERS PIPAX, PIPAY, PIPAZ, AND TIME2.
000606:
000607:                                                                                                  #  OUTPUT
000608:
000609:                                                                                                  #        HIGH ORDER COMPONENTS OF THE VECTOR DELV CONTAIN THE PIPA READINGS.
000610:
000611:                                                                                                  #        PIPTIME CONTAINS TIME OF PIPA READING.
000612:
000613:                                                                                                  #  DEBRIS (ERASABLE LOCATIONS DESTROYED BY PROGRAM)
000614:
000615:                                                                                                  #        LOW ORDER DELV'S ARE ZEROED FOR TM INDICATION.
000616:                                                                                                  #        TEMX    TEMY    TEMZ    PIPAGE
000617:
000618: 37,3254           00006        PIPASR             EXTEND
000619: 37,3255           30025                           DCA      TIME2
000620: 37,3256           53246                           DXCH     PIPTIME1                              #  CURRENT TIME  POSITIVE VALUE
000621: 37,3257           45021                           CS       ZERO                                  #  INITIALIZE THESE AT NEG ZERO.
000622: 37,3260           55224                           TS       TEMX
000623: 37,3261           55225                           TS       TEMY
000624: 37,3262           55226                           TS       TEMZ


000626: 37,3263           35021                           CA       ZERO
000627: 37,3264           55166                           TS       DELVZ                                 #  OTHER DELVS OK INCLUDING LOW ORDER
000628: 37,3265           55164                           TS       DELVY
000629:
000630: 37,3266           55163                           TS       DELVX      +1                         #  LOW ORDER DELV'S ARE ZEROED FOR TM:  THUS
000631: 37,3267           55165                           TS       DELVY      +1                         #  IF DNLNK'D LOW ORDER DELVS ARE NZ, THEY
000632: 37,3270           55167                           TS       DELVZ      +1                         #  CONTAIN PROPER COMPENSATION.  IF=0, THEN
000633:                                                                                                  #  THE TM VALUES ARE BEFORE COMPENSATION.
000634:
000635: 37,3271           55230                           TS       PIPAGE                                #  SHOW PIPA READING IN PROGRESS
000636:
000637: 37,3272           00006        REPIP1             EXTEND
000638: 37,3273           40040                           DCS      PIPAX                                 #  X AND Y PIPS READ
000639: 37,3274           53225                           DXCH     TEMX
000640: 37,3275           52040                           DXCH     PIPAX                                 #  PIPAS SET TO NEG ZERO AS READ.
000641: 37,3276           55162                           TS       DELVX
000642: 37,3277           23164                           LXCH     DELVY
000643:
000644: 37,3300           40041        REPIP3             CS       PIPAZ                                 #  REPEAT PROCESS FOR Z PIP
000645: 37,3301           57226                           XCH      TEMZ
000646: 37,3302           56041                           XCH      PIPAZ
000647: 37,3303           55166        DODELVZ            TS       DELVZ
000648:
000649: 37,3304           00002                           TC       Q
000650:
000651: 37,3305  E6,1661                                  EBANK=   AOG
000652:
000653: 37,3305           10763        REREADAC           CCS      PHASE5                                #  LAST PASS CHECK
000654: 37,3306           13310                           TCF      +2
000655: 37,3307           15324                           TCF      TASKOVER
000656:
000657: 37,3310           37665                           CAF      PRIO31                                #  RESTART MAY HAVE WIPED OUT LASTBIAS, AN
000658: 37,3311           55074                           TS       1/PIPADT                              #        UNPROTECTED NOVAC FROM PREREAD,
000659:                                                                                                  #        WHICH SET(S) UP 1/PIPADT (THUSLY)
000660:                                                                                                  #        FOR NON-COASTING COMPENSATION....BE
000661:                                                                                                  #        SURE 1/PIPADT IS AOK.  (PRIO31 IS
000662:                                                                                                  #        2.0SEC SC.AT B+8CS)
000663:
000664: 37,3312           11230                           CCS      PIPAGE
000665: 37,3313           12744                           TCF      READACCS                              #  PIP READING NOT STARTED.  GO TO BEGINNING
000666:
000667: 37,3314           33352                           CAF      DONEADR                               #  SET UP RETURN FROM PIPASR
000668: 37,3315           54002                           TS       Q
000669:
000670: 37,3316           11166                           CCS      DELVZ
000671: 37,3317           00002                           TC       Q                                     #  Z DONE, GO DO CDUS
000672: 37,3320           13323                           TCF      +3                                    #  Z NOT DONE, CHECK Y.
000673: 37,3321           00002                           TC       Q
000674: 37,3322           00002                           TC       Q


000676: 37,3323           22007                           ZL
000677: 37,3324           11164                           CCS      DELVY
000678: 37,3325           13330                           TCF      +3
000679: 37,3326           13337                           TCF      CHKTEMX                               #  Y NOT DONE, CHECK X.
000680: 37,3327           13330                           TCF      +1
000681: 37,3330           22041                           LXCH     PIPAZ                                 #  Y DONE, ZERO Z PIP.
000682:
000683: 37,3331           11226                           CCS      TEMZ
000684: 37,3332           41226                           CS       TEMZ                                  #  TEMZ NOT = -0, CONTAINS -PIPAZ VALUE.
000685: 37,3333           13303                           TCF      DODELVZ
000686: 37,3334           13332                           TCF      -2
000687: 37,3335           23166                           LXCH     DELVZ                                 #  TEMZ = -0, L HAS ZPIP VALUE.
000688: 37,3336           00002                           TC       Q
000689:
000690: 37,3337           11224        CHKTEMX            CCS      TEMX                                  #  HAS THIS CHANGED
000691: 37,3340           41224                           CS       TEMX                                  #  YES
000692: 37,3341           13344                           TCF      +3                                    #  YES
000693: 37,3342           13340                           TCF      -2                                    #  YES
000694: 37,3343           13272                           TCF      REPIP1                                #  NO
000695: 37,3344           55162                           TS       DELVX
000696:
000697: 37,3345           41225                           CS       TEMY
000698: 37,3346           55164                           TS       DELVY
000699:
000700: 37,3347           45021                           CS       ZERO                                  #  ZERO X AND Y PIPS
000701: 37,3350           52040                           DXCH     PIPAX                                 #  L STILL ZERO FROM ABOVE
000702:
000703: 37,3351           13300                           TCF      REPIP3
000704:
000705: 37,3352           02745        DONEADR            GENADR   PIPSDONE
000706:


000708:                                                                                                  #  *************************************************************************************************************
000709:
000710:                                                                                                  #           ROUTINE CALCRVG INTEGRATES THE EQUATIONS OF MOTION BY AVERAGING THE THRUST AND GRAVITATIONAL
000711:                                                                                                  #  ACCELERATIONS OVER A TIME INTERVAL OF 2 SECONDS.
000712:
000713:                                                                                                  #           FOR THE EARTH-CENTERED GRAVITATIONAL FIELD, THE PERTURBATION DUE TO OBLATENESS IS COMPUTED TO THE FIRST
000714:                                                                                                  #  HARMONIC COEFFICIENT J.
000715:
000716:                                                                                                  #  ROUTINE CALCRVG REQUIRES...
000717:                                                                                                  #        1) THRUST ACCELERATION INCREMENTS IN DELV SCALED SAME AS PIPAX,Y,Z IN STABLE MEMBER COORDS.
000718:                                                                                                  #        2) VN SCALED 2(+7) M/CS IN REFERENCE COORDS.
000719:                                                                                                  #        3) RN SCALED AT 2(+29) METERS IN REFERENCE COORDS.
000720:                                                                                                  #        4) UNITW THE EARTH S UNIT ROTATIONAL VECTOR (SCALED AS A FULL UNIT VECTOR) IN REFERENCE COORDS.
000721:
000722:                                                                                                  #  IT LEAVES RN1 UPDATED (SCALED AT 2(+29)M, VN1 (SCALED AT 2(+7)M/CS), AND GDT1/2 (SCALED AT 2(+7)M/CS). ALSO HALF
000723:                                                                                                  #  UNIT VECTOR UNITR, RMAG IN 36D SCALED AT 2(+29)M, R MAG SQ. IN 34D SCALED AT 2(+58) M SQ.
000724:
000725: 37,3353           41456        CALCGRAV           UNIT     PUSH                                  #  ENTER WITH RN IN MPAC
000726: 37,3354           01760                           STORE    UNITR
000727: 37,3355           67340                           LXC,1    SLOAD
000728: 37,3356           03746                                    RTX2
000729: 37,3357           00047                                    X1
000730: 37,3360           77240                           BMN      VLOAD
000731: 37,3361           77407                                    ITISMOON
000732: 37,3362           41441                           DOT      PUSH
000733: 37,3363           01714                                    UNITW
000734: 37,3364           44316                           DSQ      BDSU
000735: 37,3365           37461                                    DP1/20
000736: 37,3366           56325                           PDDL     DDV
000737: 37,3367           37463                                    RESQ
000738: 37,3370           00043                                    34D                                   #  (RN)SQ
000739: 37,3371           00041                           STORE    32D                                   #  TEMP FOR (RE/RN)SQ
000740: 37,3372           41205                           DMP      DMP
000741: 37,3373           37465                                    20J
000742: 37,3374           65361                           VXSC     PDDL
000743: 37,3375           01760                                    UNITR
000744: 37,3376           41205                           DMP      DMP
000745: 37,3377           37467                                    2J
000746: 37,3400           00041                                    32D
000747: 37,3401           53361                           VXSC     VAD
000748: 37,3402           01714                                    UNITW
000749: 37,3403           77626                           STADR
000750: 37,3404           76521                           STORE    GOBL1/2
000751: 37,3405           41455                           VAD      PUSH
000752: 37,3406           01760                                    UNITR
000753: 37,3407           60345        ITISMOON           DLOAD    NORM
000754: 37,3410           00043                                    34D
000755: 37,3411           00050                                    X2
000756: 37,3412           53663                           BDDV*    SLR*


000758: 37,3413           37453                                    -MUDT(E),1
000759: 37,3414           56623                                    0          -21D,2
000760: 37,3415           45561                           VXSC     STADR
000761: 37,3416           76527                           STORE    GDT1/2                                #  SCALED AT 2(+7) M/CS
000762: 37,3417           77616                           RVQ
000763:
000764: 37,3420           74375        CALCRVG            VLOAD    VXSC
000765: 37,3421           01163                                    DELV
000766: 37,3422           37451                                    KPIP1
000767: 37,3423           76505                           VXM      VSL1
000768: 37,3424           01736                                    REFSMMAT
000769: 37,3425           03433                           STORE    DELVREF                               #  DELV IN REF COORDS AT 2(+7)
000770: 37,3426           41562                           VSR1     PUSH
000771: 37,3427           41455                           VAD      PUSH                                  #  (DV-OLDGDT)/2 TO PD SCALED AT 2(+7)M/CS
000772: 37,3430           01207                                    GDT/2
000773: 37,3431           74255                           VAD      VXSC
000774: 37,3432           01177                                    VN
000775: 37,3433           37457                                    2SEC(22)
000776: 37,3434           44055                           VAD      STQ
000777: 37,3435           01171                                    RN
000778: 37,3436           00037                                    31D
000779: 37,3437           35232                           STCALL   RN1                                   #  TEMP STORAGE OF RN SCALED 2(+29)M
000780: 37,3440           77353                                    CALCGRAV
000781:
000782: 37,3441           53255                           VAD      VAD
000783: 37,3442           77655                           VAD
000784: 37,3443           01177                                    VN
000785: 37,3444           35240                           STCALL   VN1                                   #  TEMP STORAGE OF VN SCALED 2(+7) M/CS
000786: 37,3445           00037                                    31D
000787:
000788: 37,3446           03215 27057  KPIP               2DEC     .1024                                 #  SCALES DELV TO 2(+4)
000789:
000790: 37,3450           02312 32537  KPIP1              2DEC     0.074880                              #  207 DELV SCALING.  1 PULSE = 5.85 CM/SEC.
000791:
000792: 37,3452           61377 55754  -MUDT(E)           2DEC*    -7.9720645 E+12       B-44*
000793:
000794: 37,3454           77644 65556  -MUDT(M)           2DEC*    -9.805556  E+10       B-44*
000795:
000796: 37,3456           00000 31000  2SEC(22)           2DEC     200        B-22
000797:
000798: 37,3460           01463 06315  DP1/20             2DEC     0.05
000799:
000800: 37,3462           00001 05000  RESQ               2DEC*    40.6809913 E12        B-59*
000801:
000802: 37,3464           02047 36332  20J                2DEC*    3.24692010 E-2        B1*
000803:
000804: 37,3466           00152 14511  2J                 2DEC*    3.24692010 E-3        B1*
000805:

End of include-file SERVICER207.agc.  Parent file is MAIN.agc


