
Source Code
000001:                                                                                                 #  Copyright:    Public domain.
000002:                                                                                                 #  Filename:     SERVICE_ROUTINES.agc
000003:                                                                                                 #  Purpose:      Part of the source code for Comanche, build 055. It
000004:                                                                                                 #                is part of the source code for the Command Module's
000005:                                                                                                 #                (CM) Apollo Guidance Computer (AGC), Apollo 11.
000006:                                                                                                 #  Assembler:    yaYUL
000007:                                                                                                 #  Reference:    pp. 1485-1492
000008:                                                                                                 #  Contact:      Ron Burkey <info@sandroid.org>
000009:                                                                                                 #  Website:      http://www.ibiblio.org/apollo.
000010:                                                                                                 #  Mod history:  2009-05-07 RSB   Adapted from Colossus249 file of the same
000011:                                                                                                 #                                 name, and page images. Corrected various
000012:                                                                                                 #                                 typos in the transcription of program
000013:                                                                                                 #                                 comments, and these should be back-ported
000014:                                                                                                 #                                 to Colossus249.
000015:
000016:                                                                                                 #  The contents of the "Comanche055" files, in general, are transcribed
000017:                                                                                                 #  from scanned documents.
000018:
000019:                                                                                                 #        Assemble revision 055 of AGC program Comanche by NASA
000020:                                                                                                 #        2021113-051.  April 1, 1969.
000021:
000022:                                                                                                 #        This AGC program shall also be referred to as Colossus 2A
000023:
000024:                                                                                                 #        Prepared by
000025:                                                                                                 #                        Massachussets Institute of Technology
000026:                                                                                                 #                        75 Cambridge Parkway
000027:                                                                                                 #                        Cambridge, Massachusetts
000028:
000029:                                                                                                 #        under NASA contract NAS 9-4065.
000030:
000031:                                                                                                 #  Refer directly to the online document mentioned above for further
000032:                                                                                                 #  information.  Please report any errors to info@sandroid.org.
000033:
000034:                                                                                                 #  Page 1485
000035:    7722                                          BLOCK    3
000036:    6000                                          SETLOC   FFTAG6
000037:    6000                                          BANK
000038:    7722                                          COUNT    03/FLAG
000039:
000040:    7722           54001        UPENT2            TS       L                                     #  WHICH FLAGWORD IS IT
000041:    7723           75023                          MASK     OCT7
000042:    7724           56001                          XCH      L                                     #  SAVE IN L FOR INDEXING
000043:
000044:    7725           75731                          MASK     OCT77770                              #  OBTAIN THE BIT INFORMATION
000045:    7726           00004                          INHINT                                         #  PREVENT INTERRUPTS
000046:    7727           54061                          TS       ITEMP1                                #  STORE THE BIT INFORMATION TEMPORARILY
000047:
000048:    7730           50001                          NDX      L
000049:    7731           40074                          CS       FLAGWRD0
000050:    7732           70061                          MASK     ITEMP1
000051:    7733           50001                          NDX      L
000052:    7734           26074                          ADS      FLAGWRD0
000053:    7735           00003                          RELINT                                         #  RELEASE INTERRUPT INHIBIT
000054:
000055:    7736           24002                          INCR     Q                                     #  OBTAIN THE CORRECT RETURN ADDRESS
000056:    7737           00002                          TC       Q                                     #  RETURN
000057:
000058:    7740           54001        DOWNENT2          TS       L                                     #  WHICH FLAGWORD IS IT
000059:    7741           75023                          MASK     OCT7
000060:    7742           56001                          XCH      L                                     #  SAVE IN L FOR INDEXING
000061:
000062:    7743           75731                          MASK     OCT77770                              #  OBTAIN THE BIT INFORMATION
000063:    7744           40000                          COM                                            #  START TO PROCESS THE INFORMATION
000064:
000065:    7745           00004                          INHINT                                         #  PREVENT INTERRUPTS
000066:    7746           50001                          NDX      L
000067:    7747           70074                          MASK     FLAGWRD0
000068:    7750           50001                          NDX      L
000069:    7751           54074                          TS       FLAGWRD0
000070:    7752           00003                          RELINT                                         #  RELEASE INTERRUPT INHIBIT
000071:
000072:    7753           24002                          INCR     Q                                     #  OBTAIN THE CORRECT RETURN ADDRESS
000073:    7754           00002                          TC       Q
000074:
000075:    7755     5023               OCT7              EQUALS   SEVEN
000076: 10,3766                                          BANK     10
000077:
000078:                                                                                                 #  Page 1486
000079:                                                                                                 #  UPFLAG AND DOWNFLAG ARE ENTIRELY GENERAL FLAG SETTING AND CLEARING SUBROUTINES.  USING THEM, WHETHER OR
000080:                                                                                                 #  NOT IN INTERRUPT, ONE MAY SET OR CLEAR ANY SINGLE, NAMED BIT IN ANY ERASABLE REGISTER, SUBJECT OF COURSE TO
000081:                                                                                                 #  EBANK SETTING.  A "NAMED" BIT, AS THE WORD IS USED HERE, IS ANY BIT WITH A NAME FORMALLY ASSIGNED BY THE YUL
000082:                                                                                                 #  ASSEMBLER.
000083:
000084:                                                                                                 #  AT PRESENT THE ONLY NAMED BITS ARE THOSE IN THE FLAGWORDS.  ASSEMBLER CHANGES WILL MAKE IT POSSIBLE TO
000085:                                                                                                 #  NAME ANY BIT IN ERASABLE MEMORY.
000086:
000087:                                                                                                 #  CALLING SEQUENCES ARE AS FOLLOWS --
000088:                                                                                                 #                 TC      UPFLAG                  TC      DOWNFLAG
000089:                                                                                                 #                 ADRES   NAME OF FLAG            ADRES   NAME OF FLAG
000090:
000091:                                                                                                 #  RETURN IS TO THE LOCATION FOLLOWING THE "ADRES" ABOUT .58 MS AFTER THE "TC".
000092:                                                                                                 #  UPON RETURN A CONTAINS THE CURRENT FLAGWRD SETTING.
000093:
000094:    5546                                          BLOCK    02
000095:    4000                                          SETLOC   FFTAG1
000096:    4000                                          BANK
000097:    5546                                          COUNT*   $$/FLAG
000098:
000099:    5546           30002        UPFLAG            CA       Q
000100:    5547           05564                          TC       DEBIT
000101:    5550           40000                          COM                                            #  +(15 - BIT)
000102:    5551           00006                          EXTEND
000103:    5552           04001                          ROR      LCHAN                                 #  SET BIT
000104:    5553           50061        COMFLAG           INDEX    ITEMP1
000105:    5554           54074                          TS       FLAGWRD0
000106:    5555           22063                          LXCH     ITEMP3
000107:    5556           00003                          RELINT
000108:    5557           00001                          TC       L
000109:
000110:    5560           30002        DOWNFLAG          CA       Q
000111:    5561           05564                          TC       DEBIT
000112:    5562           70001                          MASK     L                                     #  RESET BIT
000113:    5563           15553                          TCF      COMFLAG
000114:
000115:    5564           65017        DEBIT             AD       ONE                                   #  CET DE BITS
000116:    5565           00004                          INHINT
000117:    5566           54063                          TS       ITEMP3
000118:    5567           35026                          CA       LOW4                                  #  DEC15
000119:    5570           54061                          TS       ITEMP1
000120:    5571           50063                          INDEX    ITEMP3
000121:    5572           27777                          CA       0          -1                         #  ADRES
000122:    5573           54001                          TS       L
000123:    5574           35021                          CA       ZERO
000124:                                                                                                 #  Page 1487
000125:    5575           00006                          EXTEND
000126:    5576           10061                          DV       ITEMP1                                #  A = FLAGWRD, L = (15 - BIT)
000127:    5577           52062                          DXCH     ITEMP1
000128:    5600           50061                          INDEX    ITEMP1
000129:    5601           30074                          CA       FLAGWRD0
000130:    5602           54001                          TS       L                                     #  CURRENT STATE
000131:    5603           50062                          INDEX    ITEMP2
000132:    5604           45001                          CS       BIT15                                 #  -(15 - BIT)
000133:    5605           00002                          TC       Q
000134:
000135:                                                                                                 #  Page 1488
000136:                                                                                                 #  DELAYJOB -- A GENERAL ROUTINE TO DELAY A JOB A SPECIFIC AMOUNT OF TIME BEFORE PICKING UP AGAIN.
000137:
000138:                                                                                                 #  ENTRANCE REQUIREMENTS ...
000139:                                                                                                 #                 CAF     DT              # DELAY JOB FOR DT CENTISECS
000140:                                                                                                 #                 TC      BANKCALL
000141:                                                                                                 #                 CADR    DELAYJOB
000142:
000143: 06,3770                                          BANK     06
000144: 00,2000                                          SETLOC   DLAYJOB
000145: 00,2000                                          BANK
000146:
000147:                                                                                                 #  THIS MUST REMAIN IN BANK 0 ****************************************
000148:
000149: 00,3732                                          COUNT    00/DELAY
000150:
000151: 00,3732           00004        DELAYJOB          INHINT
000152: 00,3733           54002                          TS       Q                                     #  STORE DELAY DT IN Q FOR DLY -1 IN
000153: 00,3734           36214                          CAF      DELAYNUM                              #  WAITLIST
000154: 00,3735           54070        DELLOOP           TS       RUPTREG1
000155: 00,3736           50000                          INDEX    A
000156: 00,3737           31141                          CA       DELAYLOC                              #  IS THIS DELAYLOC AVAILABLE
000157: 00,3740           00006                          EXTEND
000158: 00,3741           13746                          BZF      OK2DELAY                              #  YES
000159:
000160: 00,3742           10070                          CCS      RUPTREG1                              #  NO, TRY NEXT DELAYLOC
000161: 00,3743           13735                          TCF      DELLOOP
000162:
000163: 00,3744           07755                          TC       BAILOUT                               #  NO AVAILABLE LOCS.
000164: 00,3745           01104                          OCT      1104
000165:
000166: 00,3746           33766        OK2DELAY          CA       TCSLEEP                               #  SET WAITLIST IMMEDIATE RETURN
000167: 00,3747           54061                          TS       WAITEXIT
000168:
000169: 00,3750           30004                          CA       FBANK
000170: 00,3751           60070                          AD       RUPTREG1                              #  STORE BBANK FOR TASK CALL
000171: 00,3752           54001                          TS       L
000172:
000173: 00,3753           33767                          CAF      WAKECAD                               #  STORE CADR FOR TASK CALL
000174: 00,3754           15255                          TCF      DLY2       -1                         #  DLY IS IN WAITLIST ROUTINE
000175:
000176: 00,3755           04711        TCGETCAD          TC       MAKECADR                              #  GET CALLER'S FCADR
000177:
000178: 00,3756           50070                          INDEX    RUPTREG1
000179: 00,3757           55141                          TS       DELAYLOC                              #  SAVE DELAY CADRS
000180:
000181: 00,3760           05175                          TC       JOBSLEEP
000182:
000183: 00,3761           35021        WAKER             CAF      ZERO
000184: 00,3762           50006                          INDEX    BBANK
000185: 00,3763           57141                          XCH      DELAYLOC                              #  MAKE DELAYLOC AVAILABLE
000186:                                                                                                 #  Page 1489
000187: 00,3764           05201                          TC       JOBWAKE
000188:
000189: 00,3765           05324                          TC       TASKOVER
000190:
000191: 00,3766           03753        TCSLEEP           GENADR   TCGETCAD   -2
000192: 00,3767           03761        WAKECAD           GENADR   WAKER
000193:
000194:                                                                                                 #  Page 1490
000195:                                                                                                 #  GENTRAN, A BLOCK TRANSFER ROUTINE
000196:                                                                                                 #  WRITTEN BY D. EYLES
000197:                                                                                                 #  MOD 1 BY KERNAN                                UTILITYM REV 17 11/18/67
000198:                                                                                                 #  MOD 2 BY SCHULENBERG -- (REMOVE RELINT) -- SKIPPER REV 4 2/28/68
000199:
000200:                                                                                                 #  THIS ROUTINE IS USEFUL FOR TRANSFERRING N CONSECUTIVE ERASABLE OR FIXED QUANTITIES TO SOME OTHER N
000201:                                                                                                 #  CONSECUTIVE ERASABLE LOCATIONS.  IF BOTH BLOCKS OF DATA ARE IN SWITCHABLE EBANKS, THEY MUST BE IN THE SAME ONE.
000202:
000203:                                                                                                 #  GENTRAN IS CALLABLE IN A JOB AS WELL AS A RUPT.  THE CALLING SEQUENCE IS:
000204:                                                                                                 #         I       CA      N-1             # NO. NUMBER OF QUANTITIES MINUS ONE.
000205:                                                                                                 #         I +1    TC      GENTRAN         # IN FIXED-FIXED.
000206:                                                                                                 #         I +2    ADRES   L               # STARTING ADRES OF DATA TO BE MOVED.
000207:                                                                                                 #         I +3    ADRES   M               # STARTING ADRES OF DUPLICATION BLOCK.
000208:                                                                                                 #         I +4                            # RETURNS HERE.
000209:
000210:                                                                                                 #  GENTRAN TAKES 25 MCT'S (300 MICROSECONDS) PER ITEM + 5 MCT'S (60 MICS) FOR ENTERING AND EXITING.
000211:                                                                                                 #  A, L, AND ITEMP1 ARE NOT PRESERVED.
000212:
000213:    5606                                          BLOCK    02
000214:    4000                                          SETLOC   FFTAG4
000215:    4000                                          BANK
000216:
000217:    5606     0061                                 EBANK=   ITEMP1
000218:
000219:    5606                                          COUNT*   $$/TRAN
000220:
000221:    5606           00004        GENTRAN           INHINT
000222:    5607           54061                          TS       ITEMP1                                #  SAVE N-1
000223:    5610           50002                          INDEX    Q                                     #  C(Q) = ADRES L.
000224:    5611           60000                          AD       0                                     #  ADRES (L + N - 1).
000225:    5612           50000                          INDEX    A
000226:    5613           30000                          CA       0                                     #  C(ABOVE).
000227:    5614           54001                          TS       L                                     #  SAVE DATA.
000228:    5615           30061                          CA       ITEMP1
000229:    5616           50002                          INDEX    Q
000230:    5617           60001                          AD       1                                     #  ADRES (M + N - 1).
000231:    5620           50000                          INDEX    A
000232:    5621           22000                          LXCH     0                                     #  STUFF IT.
000233:    5622           10061                          CCS      ITEMP1                                #  LOOP UNTIL N-1 = 0.
000234:    5623           15607                          TCF      GENTRAN    +1
000235:    5624           16710                          TCF      Q+2                                   #  RETURN TO CALLER.
000236:
000237:                                                                                                 #  Page 1491
000238:                                                                                                 #  B5OFF          ZERO BIT 5 OF EXTVBACK, WHICH IS SET BY TESTXACT.
000239:                                                                                                 #  MAY BE USED AS NEEDED BY ANY EXTENDED VERB WHICH HAS DONE TESTXACT
000240:
000241:    5625                                          COUNT*   $$/EXTVB
000242:
000243:    5625           45013        B5OFF             CS       BIT5
000244:    5626           71044                          MASK     EXTVBACT
000245:    5627           55044                          TS       EXTVBACT
000246:    5630           05217                          TC       ENDOFJOB
000247:
000248:                                                                                                 #  Page 1492
000249:                                                                                                 #  SUBROUTINES TO TURN OFF AND TURN ON TRACKER FAIL LIGHT.
000250:
000251:    5631           00004        TRFAILOF          INHINT
000252:    5632           47704                          CS       OCT40200                              #  TURN OFF TRACKER LIGHT
000253:    5633           71036                          MASK     DSPTAB     +11D
000254:    5634           65001                          AD       BIT15
000255:    5635           55036                          TS       DSPTAB     +11D
000256:    5636           41331                          CS       OPTMODES                              #  TO INSURE THAT OCDU FAIL WILL GO ON
000257:    5637           75011                          MASK     BIT7                                  #  AGAIN IF IT WAS ON IN ADDITION TO
000258:    5640           27331                          ADS      OPTMODES                              #  TRACKER FAIL.
000259:
000260:    5641           00003        REQ               RELINT
000261:    5642           00002                          TC       Q
000262:
000263:    5643           00004        TRFAILON          INHINT
000264:    5644           41036                          CS       DSPTAB     +11D                       #  TURN ON
000265:    5645           77704                          MASK     OCT40200
000266:    5646           27036                          ADS      DSPTAB     +11D
000267:    5647           15641                          TCF      REQ
000268:
000269:
000270:
000271:

End of include-file SERVICE_ROUTINES.agc.  Parent file is MAIN.agc


